{"abi":[{"type":"function","name":"activateStrategy","inputs":[{"name":"_address","type":"address","internalType":"address"}],"outputs":[],"stateMutability":"nonpayable"},{"type":"function","name":"addStrategy","inputs":[{"name":"_strategy","type":"address","internalType":"address"},{"name":"","type":"uint256","internalType":"uint256"},{"name":"_councilSafe","type":"address","internalType":"address"}],"outputs":[],"stateMutability":"nonpayable"},{"type":"function","name":"canExecuteAction","inputs":[{"name":"_user","type":"address","internalType":"address"},{"name":"","type":"address","internalType":"address"}],"outputs":[{"name":"isUserValid","type":"bool","internalType":"bool"}],"stateMutability":"view"},{"type":"function","name":"changeListManager","inputs":[{"name":"_newManager","type":"address","internalType":"address"}],"outputs":[],"stateMutability":"nonpayable"},{"type":"function","name":"initialize","inputs":[{"name":"_listManager","type":"address","internalType":"address"},{"name":"_owner","type":"address","internalType":"address"}],"outputs":[],"stateMutability":"nonpayable"},{"type":"function","name":"initialize","inputs":[{"name":"initialOwner","type":"address","internalType":"address"}],"outputs":[],"stateMutability":"nonpayable"},{"type":"function","name":"invalidateUser","inputs":[{"name":"_user","type":"address","internalType":"address"}],"outputs":[],"stateMutability":"nonpayable"},{"type":"function","name":"listManager","inputs":[],"outputs":[{"name":"","type":"address","internalType":"address"}],"stateMutability":"view"},{"type":"function","name":"modifyThreshold","inputs":[{"name":"","type":"address","internalType":"address"},{"name":"","type":"uint256","internalType":"uint256"}],"outputs":[],"stateMutability":"pure"},{"type":"function","name":"owner","inputs":[],"outputs":[{"name":"","type":"address","internalType":"address"}],"stateMutability":"view"},{"type":"function","name":"proxiableUUID","inputs":[],"outputs":[{"name":"","type":"bytes32","internalType":"bytes32"}],"stateMutability":"view"},{"type":"function","name":"proxyOwner","inputs":[],"outputs":[{"name":"","type":"address","internalType":"address"}],"stateMutability":"view"},{"type":"function","name":"renounceOwnership","inputs":[],"outputs":[],"stateMutability":"nonpayable"},{"type":"function","name":"strategies","inputs":[{"name":"","type":"address","internalType":"address"}],"outputs":[{"name":"threshold","type":"uint256","internalType":"uint256"},{"name":"active","type":"bool","internalType":"bool"},{"name":"councilSafe","type":"address","internalType":"address"}],"stateMutability":"view"},{"type":"function","name":"transferOwnership","inputs":[{"name":"newOwner","type":"address","internalType":"address"}],"outputs":[],"stateMutability":"nonpayable"},{"type":"function","name":"upgradeTo","inputs":[{"name":"newImplementation","type":"address","internalType":"address"}],"outputs":[],"stateMutability":"nonpayable"},{"type":"function","name":"upgradeToAndCall","inputs":[{"name":"newImplementation","type":"address","internalType":"address"},{"name":"data","type":"bytes","internalType":"bytes"}],"outputs":[],"stateMutability":"payable"},{"type":"function","name":"userValidity","inputs":[{"name":"","type":"address","internalType":"address"}],"outputs":[{"name":"","type":"bool","internalType":"bool"}],"stateMutability":"view"},{"type":"function","name":"validateUser","inputs":[{"name":"_user","type":"address","internalType":"address"}],"outputs":[],"stateMutability":"nonpayable"},{"type":"event","name":"AdminChanged","inputs":[{"name":"previousAdmin","type":"address","indexed":false,"internalType":"address"},{"name":"newAdmin","type":"address","indexed":false,"internalType":"address"}],"anonymous":false},{"type":"event","name":"BeaconUpgraded","inputs":[{"name":"beacon","type":"address","indexed":true,"internalType":"address"}],"anonymous":false},{"type":"event","name":"GoodDollarStrategyAdded","inputs":[{"name":"strategy","type":"address","indexed":true,"internalType":"address"},{"name":"councilSafe","type":"address","indexed":false,"internalType":"address"}],"anonymous":false},{"type":"event","name":"Initialized","inputs":[{"name":"version","type":"uint8","indexed":false,"internalType":"uint8"}],"anonymous":false},{"type":"event","name":"ListManagerChanged","inputs":[{"name":"oldManager","type":"address","indexed":true,"internalType":"address"},{"name":"newManager","type":"address","indexed":true,"internalType":"address"}],"anonymous":false},{"type":"event","name":"OwnershipTransferred","inputs":[{"name":"previousOwner","type":"address","indexed":true,"internalType":"address"},{"name":"newOwner","type":"address","indexed":true,"internalType":"address"}],"anonymous":false},{"type":"event","name":"Upgraded","inputs":[{"name":"implementation","type":"address","indexed":true,"internalType":"address"}],"anonymous":false},{"type":"event","name":"UserInvalidated","inputs":[{"name":"user","type":"address","indexed":true,"internalType":"address"}],"anonymous":false},{"type":"event","name":"UserValidated","inputs":[{"name":"user","type":"address","indexed":false,"internalType":"address"}],"anonymous":false},{"type":"error","name":"CallerNotOwner","inputs":[{"name":"_caller","type":"address","internalType":"address"},{"name":"_owner","type":"address","internalType":"address"}]},{"type":"error","name":"NotSupported","inputs":[]},{"type":"error","name":"OnlyAuthorized","inputs":[]},{"type":"error","name":"OnlyCouncilOrAuthorized","inputs":[]},{"type":"error","name":"ZeroAddress","inputs":[]}],"bytecode":{"object":"0x60a060405230608052348015610013575f80fd5b506080516114e46100485f395f81816103e901528181610432015281816105fa0152818161063a01526106b501526114e45ff3fe6080604052600436106100e3575f3560e01c8063025313a2146100e75780633659cfe61461011157806339ebf823146101325780633d4768301461019b57806342a987a0146101ba57806345851f5414610202578063485cc955146102305780634f1ef2861461024f57806352d1902d14610262578063642ce76b14610284578063697cb94e146102a3578063715018a6146102c25780638459254e146102d65780638da5cb5b146102f55780638df8b2fe14610309578063c4d66de814610328578063d80ea5a014610347578063f2fde38b14610389578063fc2ebdd1146103a8575b5f80fd5b3480156100f2575f80fd5b506100fb6103c7565b604051610108919061113b565b60405180910390f35b34801561011c575f80fd5b5061013061012b366004611163565b6103df565b005b34801561013d575f80fd5b5061017761014c366004611163565b60676020525f90815260409020805460019091015460ff81169061010090046001600160a01b031683565b6040805193845291151560208401526001600160a01b031690820152606001610108565b3480156101a6575f80fd5b506101306101b5366004611163565b6104af565b3480156101c5575f80fd5b506101f26101d436600461117e565b506001600160a01b03165f9081526066602052604090205460ff1690565b6040519015158152602001610108565b34801561020d575f80fd5b506101f261021c366004611163565b60666020525f908152604090205460ff1681565b34801561023b575f80fd5b5061013061024a36600461117e565b610511565b61013061025d3660046111c9565b6105f0565b34801561026d575f80fd5b506102766106a9565b604051908152602001610108565b34801561028f575f80fd5b5061013061029e366004611286565b610755565b3480156102ae575f80fd5b506101306102bd366004611163565b61076e565b3480156102cd575f80fd5b5061013061080e565b3480156102e1575f80fd5b506101306102f0366004611163565b610821565b348015610300575f80fd5b506100fb6108bd565b348015610314575f80fd5b506065546100fb906001600160a01b031681565b348015610333575f80fd5b50610130610342366004611163565b610950565b348015610352575f80fd5b50610130610361366004611163565b6001600160a01b03165f9081526067602052604090206001908101805460ff19169091179055565b348015610394575f80fd5b506101306103a3366004611163565b610a09565b3480156103b3575f80fd5b506101306103c23660046112b0565b610a7f565b5f6103da6033546001600160a01b031690565b905090565b6001600160a01b037f00000000000000000000000000000000000000000000000000000000000000001630036104305760405162461bcd60e51b8152600401610427906112ef565b60405180910390fd5b7f00000000000000000000000000000000000000000000000000000000000000006001600160a01b0316610462610c3a565b6001600160a01b0316146104885760405162461bcd60e51b815260040161042790611328565b61049181610c55565b604080515f808252602082019092526104ac91839190610ca1565b50565b6104b7610e0b565b6104c081610e6a565b606580546001600160a01b038381166001600160a01b0319831681179093556040519116919082907f5117c6c457d7b27a4cb68df40b118f157ac1f1ba81f8a571d189f829d74fbc86905f90a35050565b5f54610100900460ff161580801561052f57505f54600160ff909116105b8061054f575061053e30610e91565b15801561054f57505f5460ff166001145b61056b5760405162461bcd60e51b815260040161042790611361565b5f805460ff19166001179055801561058c575f805461ff0019166101001790555b61059582610950565b61059e83610e6a565b606580546001600160a01b0319166001600160a01b03851617905580156105eb575f805461ff0019169055604051600181525f805160206114918339815191529060200160405180910390a15b505050565b6001600160a01b037f00000000000000000000000000000000000000000000000000000000000000001630036106385760405162461bcd60e51b8152600401610427906112ef565b7f00000000000000000000000000000000000000000000000000000000000000006001600160a01b031661066a610c3a565b6001600160a01b0316146106905760405162461bcd60e51b815260040161042790611328565b61069982610c55565b6106a582826001610ca1565b5050565b5f306001600160a01b037f000000000000000000000000000000000000000000000000000000000000000016146107435760405162461bcd60e51b815260206004820152603860248201527f555550535570677261646561626c653a206d757374206e6f742062652063616c6044820152771b1959081d1a1c9bdd59da0819195b1959d85d1958d85b1b60421b6064820152608401610427565b505f8051602061147183398151915290565b604051630280e1e560e61b815260040160405180910390fd5b6107766108bd565b6001600160a01b0316336001600160a01b0316148061079f57506065546001600160a01b031633145b156107f5576107ad81610e6a565b6001600160a01b0381165f81815260666020526040808220805460ff19169055517f4f8005ebd235501cd5e919f9e3bb4030a514c1ff31a10c14b28777644a1def409190a250565b604051637d7b71b560e01b815260040160405180910390fd5b610816610e0b565b61081f5f610ea0565b565b6108296108bd565b6001600160a01b0316336001600160a01b0316148061085257506065546001600160a01b031633145b156107f55761086081610e6a565b6001600160a01b0381165f9081526066602052604090819020805460ff19166001179055517f046a32eade4e4deb4fea2498b18cd864bfebe7301f25ecf3e72a26539fddca12906108b290839061113b565b60405180910390a150565b5f6108c66103c7565b6001600160a01b03163b5f036108de576103da6103c7565b6108e66103c7565b6001600160a01b0316638da5cb5b6040518163ffffffff1660e01b8152600401602060405180830381865afa92505050801561093f575060408051601f3d908101601f1916820190925261093c918101906113af565b60015b61094b576103da6103c7565b919050565b5f54610100900460ff161580801561096e57505f54600160ff909116105b8061098e575061097d30610e91565b15801561098e57505f5460ff166001145b6109aa5760405162461bcd60e51b815260040161042790611361565b5f805460ff1916600117905580156109cb575f805461ff0019166101001790555b6109d482610ea0565b80156106a5575f805461ff0019169055604051600181525f805160206114918339815191529060200160405180910390a15050565b610a11610e0b565b6001600160a01b038116610a765760405162461bcd60e51b815260206004820152602660248201527f4f776e61626c653a206e6577206f776e657220697320746865207a65726f206160448201526564647265737360d01b6064820152608401610427565b6104ac81610ea0565b825f816001600160a01b0316636003e4146040518163ffffffff1660e01b8152600401602060405180830381865afa158015610abd573d5f803e3d5ffd5b505050506040513d601f19601f82011682018060405250810190610ae191906113af565b9050610aeb6108bd565b6001600160a01b0316336001600160a01b03161480610b125750336001600160a01b038316145b80610b255750336001600160a01b038216145b80610b3a57506065546001600160a01b031633145b80610b6557506001600160a01b038281165f9081526067602052604090206001015461010090041633145b15610c1a57604080516060810182525f80825260208083018281526001600160a01b038089168587019081528b82168086526067909452938690209451855590516001949094018054935190911661010002610100600160a81b0319941515949094166001600160a81b03199093169290921792909217905590517f972dc3986ceb49bf0f30f0228b6e5e8e16488f31444c610c9120751708e8014590610c0d90869061113b565b60405180910390a2610c33565b60405163e3b6914b60e01b815260040160405180910390fd5b5050505050565b5f80516020611471833981519152546001600160a01b031690565b33610c5e6108bd565b6001600160a01b0316146104ac5733610c756108bd565b60405163163678e960e01b81526001600160a01b03928316600482015291166024820152604401610427565b7f4910fdfa16fed3260ed0e7147f7cc6da11a60208b5b9406d12a635614ffd91435460ff1615610cd4576105eb83610ef1565b826001600160a01b03166352d1902d6040518163ffffffff1660e01b8152600401602060405180830381865afa925050508015610d2e575060408051601f3d908101601f19168201909252610d2b918101906113ca565b60015b610d915760405162461bcd60e51b815260206004820152602e60248201527f45524331393637557067726164653a206e657720696d706c656d656e7461746960448201526d6f6e206973206e6f74205555505360901b6064820152608401610427565b5f805160206114718339815191528114610dff5760405162461bcd60e51b815260206004820152602960248201527f45524331393637557067726164653a20756e737570706f727465642070726f786044820152681a58589b195555525160ba1b6064820152608401610427565b506105eb838383610f8a565b33610e146108bd565b6001600160a01b03161461081f5760405162461bcd60e51b815260206004820181905260248201527f4f776e61626c653a2063616c6c6572206973206e6f7420746865206f776e65726044820152606401610427565b6001600160a01b0381166104ac5760405163d92e233d60e01b815260040160405180910390fd5b6001600160a01b03163b151590565b603380546001600160a01b038381166001600160a01b0319831681179093556040519116919082907f8be0079c531659141344cd1fd0a4f28419497f9722a3daafe3b4186f6b6457e0905f90a35050565b610efa81610e91565b610f5c5760405162461bcd60e51b815260206004820152602d60248201527f455243313936373a206e657720696d706c656d656e746174696f6e206973206e60448201526c1bdd08184818dbdb9d1c9858dd609a1b6064820152608401610427565b5f8051602061147183398151915280546001600160a01b0319166001600160a01b0392909216919091179055565b610f9383610fb4565b5f82511180610f9f5750805b156105eb57610fae8383610ff3565b50505050565b610fbd81610ef1565b6040516001600160a01b038216907fbc7cd75a20ee27fd9adebab32041f755214dbc6bffa90cc0225b39da2e5c2d3b905f90a250565b606061101883836040518060600160405280602781526020016114b16027913961101f565b9392505050565b60605f80856001600160a01b03168560405161103b9190611403565b5f60405180830381855af49150503d805f8114611073576040519150601f19603f3d011682016040523d82523d5f602084013e611078565b606091505b509150915061108986838387611093565b9695505050505050565b606083156110ff5782515f036110f8576110ac85610e91565b6110f85760405162461bcd60e51b815260206004820152601d60248201527f416464726573733a2063616c6c20746f206e6f6e2d636f6e74726163740000006044820152606401610427565b5081611109565b6111098383611111565b949350505050565b8151156111215781518083602001fd5b8060405162461bcd60e51b8152600401610427919061141e565b6001600160a01b0391909116815260200190565b6001600160a01b03811681146104ac575f80fd5b5f60208284031215611173575f80fd5b81356110188161114f565b5f806040838503121561118f575f80fd5b823561119a8161114f565b915060208301356111aa8161114f565b809150509250929050565b634e487b7160e01b5f52604160045260245ffd5b5f80604083850312156111da575f80fd5b82356111e58161114f565b915060208301356001600160401b0380821115611200575f80fd5b818501915085601f830112611213575f80fd5b813581811115611225576112256111b5565b604051601f8201601f19908116603f0116810190838211818310171561124d5761124d6111b5565b81604052828152886020848701011115611265575f80fd5b826020860160208301375f6020848301015280955050505050509250929050565b5f8060408385031215611297575f80fd5b82356112a28161114f565b946020939093013593505050565b5f805f606084860312156112c2575f80fd5b83356112cd8161114f565b92506020840135915060408401356112e48161114f565b809150509250925092565b6020808252602c908201525f8051602061145183398151915260408201526b19195b1959d85d1958d85b1b60a21b606082015260800190565b6020808252602c908201525f8051602061145183398151915260408201526b6163746976652070726f787960a01b606082015260800190565b6020808252602e908201527f496e697469616c697a61626c653a20636f6e747261637420697320616c72656160408201526d191e481a5b9a5d1a585b1a5e995960921b606082015260800190565b5f602082840312156113bf575f80fd5b81516110188161114f565b5f602082840312156113da575f80fd5b5051919050565b5f5b838110156113fb5781810151838201526020016113e3565b50505f910152565b5f82516114148184602087016113e1565b9190910192915050565b602081525f825180602084015261143c8160408501602087016113e1565b601f01601f1916919091016040019291505056fe46756e6374696f6e206d7573742062652063616c6c6564207468726f75676820360894a13ba1a3210667c828492db98dca3e2076cc3735a920a3ca505d382bbc7f26b83ff96e1f2b6a682f133852f6798a09c465da95921460cefb3847402498416464726573733a206c6f772d6c6576656c2064656c65676174652063616c6c206661696c6564a164736f6c6343000817000a","linkReferences":{}},"methodIdentifiers":{"activateStrategy(address)":"d80ea5a0","addStrategy(address,uint256,address)":"fc2ebdd1","canExecuteAction(address,address)":"42a987a0","changeListManager(address)":"3d476830","initialize(address)":"c4d66de8","initialize(address,address)":"485cc955","invalidateUser(address)":"697cb94e","listManager()":"8df8b2fe","modifyThreshold(address,uint256)":"642ce76b","owner()":"8da5cb5b","proxiableUUID()":"52d1902d","proxyOwner()":"025313a2","renounceOwnership()":"715018a6","strategies(address)":"39ebf823","transferOwnership(address)":"f2fde38b","upgradeTo(address)":"3659cfe6","upgradeToAndCall(address,bytes)":"4f1ef286","userValidity(address)":"45851f54","validateUser(address)":"8459254e"},"storageLayout":{"storage":[{"astId":52973,"contract":"pkg/contracts/src/GoodDollarSybil.sol:GoodDollarSybil","label":"_initialized","offset":0,"slot":"0","type":"t_uint8"},{"astId":52976,"contract":"pkg/contracts/src/GoodDollarSybil.sol:GoodDollarSybil","label":"_initializing","offset":1,"slot":"0","type":"t_bool"},{"astId":53678,"contract":"pkg/contracts/src/GoodDollarSybil.sol:GoodDollarSybil","label":"__gap","offset":0,"slot":"1","type":"t_array(t_uint256)50_storage"},{"astId":52765,"contract":"pkg/contracts/src/GoodDollarSybil.sol:GoodDollarSybil","label":"_owner","offset":0,"slot":"51","type":"t_address"},{"astId":52885,"contract":"pkg/contracts/src/GoodDollarSybil.sol:GoodDollarSybil","label":"__gap","offset":0,"slot":"52","type":"t_array(t_uint256)49_storage"},{"astId":95402,"contract":"pkg/contracts/src/GoodDollarSybil.sol:GoodDollarSybil","label":"listManager","offset":0,"slot":"101","type":"t_address"},{"astId":95406,"contract":"pkg/contracts/src/GoodDollarSybil.sol:GoodDollarSybil","label":"userValidity","offset":0,"slot":"102","type":"t_mapping(t_address,t_bool)"},{"astId":95411,"contract":"pkg/contracts/src/GoodDollarSybil.sol:GoodDollarSybil","label":"strategies","offset":0,"slot":"103","type":"t_mapping(t_address,t_struct(Strategy)95737_storage)"},{"astId":95702,"contract":"pkg/contracts/src/GoodDollarSybil.sol:GoodDollarSybil","label":"__gap","offset":0,"slot":"104","type":"t_array(t_uint256)50_storage"}],"types":{"t_address":{"encoding":"inplace","label":"address","numberOfBytes":"20"},"t_array(t_uint256)49_storage":{"encoding":"inplace","label":"uint256[49]","numberOfBytes":"1568","base":"t_uint256"},"t_array(t_uint256)50_storage":{"encoding":"inplace","label":"uint256[50]","numberOfBytes":"1600","base":"t_uint256"},"t_bool":{"encoding":"inplace","label":"bool","numberOfBytes":"1"},"t_mapping(t_address,t_bool)":{"encoding":"mapping","key":"t_address","label":"mapping(address => bool)","numberOfBytes":"32","value":"t_bool"},"t_mapping(t_address,t_struct(Strategy)95737_storage)":{"encoding":"mapping","key":"t_address","label":"mapping(address => struct Strategy)","numberOfBytes":"32","value":"t_struct(Strategy)95737_storage"},"t_struct(Strategy)95737_storage":{"encoding":"inplace","label":"struct Strategy","numberOfBytes":"64","members":[{"astId":95732,"contract":"pkg/contracts/src/GoodDollarSybil.sol:GoodDollarSybil","label":"threshold","offset":0,"slot":"0","type":"t_uint256"},{"astId":95734,"contract":"pkg/contracts/src/GoodDollarSybil.sol:GoodDollarSybil","label":"active","offset":0,"slot":"1","type":"t_bool"},{"astId":95736,"contract":"pkg/contracts/src/GoodDollarSybil.sol:GoodDollarSybil","label":"councilSafe","offset":1,"slot":"1","type":"t_address"}]},"t_uint256":{"encoding":"inplace","label":"uint256","numberOfBytes":"32"},"t_uint8":{"encoding":"inplace","label":"uint8","numberOfBytes":"1"}}},"id":158}