{"abi":[{"type":"constructor","inputs":[{"name":"name_","type":"string","internalType":"string"},{"name":"symbol_","type":"string","internalType":"string"},{"name":"decimals_","type":"uint8","internalType":"uint8"}],"stateMutability":"nonpayable"},{"type":"function","name":"DOMAIN_SEPARATOR","inputs":[],"outputs":[{"name":"result","type":"bytes32","internalType":"bytes32"}],"stateMutability":"view"},{"type":"function","name":"allowance","inputs":[{"name":"owner","type":"address","internalType":"address"},{"name":"spender","type":"address","internalType":"address"}],"outputs":[{"name":"result","type":"uint256","internalType":"uint256"}],"stateMutability":"view"},{"type":"function","name":"approve","inputs":[{"name":"spender","type":"address","internalType":"address"},{"name":"amount","type":"uint256","internalType":"uint256"}],"outputs":[{"name":"","type":"bool","internalType":"bool"}],"stateMutability":"nonpayable"},{"type":"function","name":"balanceOf","inputs":[{"name":"owner","type":"address","internalType":"address"}],"outputs":[{"name":"result","type":"uint256","internalType":"uint256"}],"stateMutability":"view"},{"type":"function","name":"burn","inputs":[{"name":"from","type":"address","internalType":"address"},{"name":"value","type":"uint256","internalType":"uint256"}],"outputs":[],"stateMutability":"nonpayable"},{"type":"function","name":"decimals","inputs":[],"outputs":[{"name":"","type":"uint8","internalType":"uint8"}],"stateMutability":"view"},{"type":"function","name":"decreaseAllowance","inputs":[{"name":"spender","type":"address","internalType":"address"},{"name":"difference","type":"uint256","internalType":"uint256"}],"outputs":[{"name":"","type":"bool","internalType":"bool"}],"stateMutability":"nonpayable"},{"type":"function","name":"directSpendAllowance","inputs":[{"name":"owner","type":"address","internalType":"address"},{"name":"spender","type":"address","internalType":"address"},{"name":"amount","type":"uint256","internalType":"uint256"}],"outputs":[],"stateMutability":"nonpayable"},{"type":"function","name":"directTransfer","inputs":[{"name":"from","type":"address","internalType":"address"},{"name":"to","type":"address","internalType":"address"},{"name":"amount","type":"uint256","internalType":"uint256"}],"outputs":[],"stateMutability":"nonpayable"},{"type":"function","name":"increaseAllowance","inputs":[{"name":"spender","type":"address","internalType":"address"},{"name":"difference","type":"uint256","internalType":"uint256"}],"outputs":[{"name":"","type":"bool","internalType":"bool"}],"stateMutability":"nonpayable"},{"type":"function","name":"mint","inputs":[{"name":"to","type":"address","internalType":"address"},{"name":"value","type":"uint256","internalType":"uint256"}],"outputs":[],"stateMutability":"nonpayable"},{"type":"function","name":"name","inputs":[],"outputs":[{"name":"","type":"string","internalType":"string"}],"stateMutability":"view"},{"type":"function","name":"nonces","inputs":[{"name":"owner","type":"address","internalType":"address"}],"outputs":[{"name":"result","type":"uint256","internalType":"uint256"}],"stateMutability":"view"},{"type":"function","name":"permit","inputs":[{"name":"owner","type":"address","internalType":"address"},{"name":"spender","type":"address","internalType":"address"},{"name":"value","type":"uint256","internalType":"uint256"},{"name":"deadline","type":"uint256","internalType":"uint256"},{"name":"v","type":"uint8","internalType":"uint8"},{"name":"r","type":"bytes32","internalType":"bytes32"},{"name":"s","type":"bytes32","internalType":"bytes32"}],"outputs":[],"stateMutability":"nonpayable"},{"type":"function","name":"symbol","inputs":[],"outputs":[{"name":"","type":"string","internalType":"string"}],"stateMutability":"view"},{"type":"function","name":"totalSupply","inputs":[],"outputs":[{"name":"result","type":"uint256","internalType":"uint256"}],"stateMutability":"view"},{"type":"function","name":"transfer","inputs":[{"name":"to","type":"address","internalType":"address"},{"name":"amount","type":"uint256","internalType":"uint256"}],"outputs":[{"name":"","type":"bool","internalType":"bool"}],"stateMutability":"nonpayable"},{"type":"function","name":"transferFrom","inputs":[{"name":"from","type":"address","internalType":"address"},{"name":"to","type":"address","internalType":"address"},{"name":"amount","type":"uint256","internalType":"uint256"}],"outputs":[{"name":"","type":"bool","internalType":"bool"}],"stateMutability":"nonpayable"},{"type":"event","name":"Approval","inputs":[{"name":"owner","type":"address","indexed":true,"internalType":"address"},{"name":"spender","type":"address","indexed":true,"internalType":"address"},{"name":"amount","type":"uint256","indexed":false,"internalType":"uint256"}],"anonymous":false},{"type":"event","name":"Transfer","inputs":[{"name":"from","type":"address","indexed":true,"internalType":"address"},{"name":"to","type":"address","indexed":true,"internalType":"address"},{"name":"amount","type":"uint256","indexed":false,"internalType":"uint256"}],"anonymous":false},{"type":"error","name":"AllowanceOverflow","inputs":[]},{"type":"error","name":"AllowanceUnderflow","inputs":[]},{"type":"error","name":"InsufficientAllowance","inputs":[]},{"type":"error","name":"InsufficientBalance","inputs":[]},{"type":"error","name":"InvalidPermit","inputs":[]},{"type":"error","name":"PermitExpired","inputs":[]},{"type":"error","name":"TotalSupplyOverflow","inputs":[]}],"bytecode":{"object":"0x60806040523480156200001157600080fd5b506040516200178438038062001784833981810160405281019062000037919062000250565b826000908162000048919062000535565b5081600190816200005a919062000535565b5080600260006101000a81548160ff021916908360ff1602179055505050506200061c565b6000604051905090565b600080fd5b600080fd5b600080fd5b600080fd5b6000601f19601f8301169050919050565b7f4e487b7100000000000000000000000000000000000000000000000000000000600052604160045260246000fd5b620000e8826200009d565b810181811067ffffffffffffffff821117156200010a5762000109620000ae565b5b80604052505050565b60006200011f6200007f565b90506200012d8282620000dd565b919050565b600067ffffffffffffffff82111562000150576200014f620000ae565b5b6200015b826200009d565b9050602081019050919050565b60005b83811015620001885780820151818401526020810190506200016b565b60008484015250505050565b6000620001ab620001a58462000132565b62000113565b905082815260208101848484011115620001ca57620001c962000098565b5b620001d784828562000168565b509392505050565b600082601f830112620001f757620001f662000093565b5b81516200020984826020860162000194565b91505092915050565b600060ff82169050919050565b6200022a8162000212565b81146200023657600080fd5b50565b6000815190506200024a816200021f565b92915050565b6000806000606084860312156200026c576200026b62000089565b5b600084015167ffffffffffffffff8111156200028d576200028c6200008e565b5b6200029b86828701620001df565b935050602084015167ffffffffffffffff811115620002bf57620002be6200008e565b5b620002cd86828701620001df565b9250506040620002e08682870162000239565b9150509250925092565b600081519050919050565b7f4e487b7100000000000000000000000000000000000000000000000000000000600052602260045260246000fd5b600060028204905060018216806200033d57607f821691505b602082108103620003535762000352620002f5565b5b50919050565b60008190508160005260206000209050919050565b60006020601f8301049050919050565b600082821b905092915050565b600060088302620003bd7fffffffffffffffffffffffffffffffffffffffffffffffffffffffffffffffff826200037e565b620003c986836200037e565b95508019841693508086168417925050509392505050565b6000819050919050565b6000819050919050565b600062000416620004106200040a84620003e1565b620003eb565b620003e1565b9050919050565b6000819050919050565b6200043283620003f5565b6200044a62000441826200041d565b8484546200038b565b825550505050565b600090565b6200046162000452565b6200046e81848462000427565b505050565b5b8181101562000496576200048a60008262000457565b60018101905062000474565b5050565b601f821115620004e557620004af8162000359565b620004ba846200036e565b81016020851015620004ca578190505b620004e2620004d9856200036e565b83018262000473565b50505b505050565b600082821c905092915050565b60006200050a60001984600802620004ea565b1980831691505092915050565b6000620005258383620004f7565b9150826002028217905092915050565b6200054082620002ea565b67ffffffffffffffff8111156200055c576200055b620000ae565b5b62000568825462000324565b620005758282856200049a565b600060209050601f831160018114620005ad576000841562000598578287015190505b620005a4858262000517565b86555062000614565b601f198416620005bd8662000359565b60005b82811015620005e757848901518255600182019150602085019450602081019050620005c0565b8683101562000607578489015162000603601f891682620004f7565b8355505b6001600288020188555050505b505050505050565b611158806200062c6000396000f3fe608060405234801561001057600080fd5b50600436106101165760003560e01c80637ecebe00116100a2578063a9059cbb11610071578063a9059cbb14610309578063d30ed3b314610339578063d505accf14610355578063dd62ed3e14610371578063f83d1791146103a157610116565b80637ecebe001461026f57806395d89b411461029f5780639dc29fac146102bd578063a457c2d7146102d957610116565b8063313ce567116100e9578063313ce567146101b75780633644e515146101d557806339509351146101f357806340c10f191461022357806370a082311461023f57610116565b806306fdde031461011b578063095ea7b31461013957806318160ddd1461016957806323b872dd14610187575b600080fd5b6101236103bd565b6040516101309190610d42565b60405180910390f35b610153600480360381019061014e9190610dfd565b61044f565b6040516101609190610e58565b60405180910390f35b6101716104a3565b60405161017e9190610e82565b60405180910390f35b6101a1600480360381019061019c9190610e9d565b6104b5565b6040516101ae9190610e58565b60405180910390f35b6101bf6104db565b6040516101cc9190610f0c565b60405180910390f35b6101dd6104f2565b6040516101ea9190610f40565b60405180910390f35b61020d60048036038101906102089190610dfd565b610573565b60405161021a9190610e58565b60405180910390f35b61023d60048036038101906102389190610dfd565b61058f565b005b61025960048036038101906102549190610f5b565b6105a5565b6040516102669190610e82565b60405180910390f35b61028960048036038101906102849190610f5b565b6105c0565b6040516102969190610e82565b60405180910390f35b6102a76105db565b6040516102b49190610d42565b60405180910390f35b6102d760048036038101906102d29190610dfd565b61066d565b005b6102f360048036038101906102ee9190610dfd565b610683565b6040516103009190610e58565b60405180910390f35b610323600480360381019061031e9190610dfd565b61069f565b6040516103309190610e58565b60405180910390f35b610353600480360381019061034e9190610e9d565b6106bb565b005b61036f600480360381019061036a9190610fe0565b6106db565b005b61038b60048036038101906103869190611082565b61080a565b6040516103989190610e82565b60405180910390f35b6103bb60048036038101906103b69190610e9d565b61082a565b005b6060600080546103cc906110f1565b80601f01602080910402602001604051908101604052809291908181526020018280546103f8906110f1565b80156104455780601f1061041a57610100808354040283529160200191610445565b820191906000526020600020905b81548152906001019060200180831161042857829003601f168201915b5050505050905090565b600082602052637f5e9f20600c5233600052816034600c205581600052602c5160601c337f8c5be1e5ebec7d5bd14f71427d1e84f3dd0314c0f7b2291e5b200ac8c7c3b92560206000a36001905092915050565b60006805345cdf77eb68f44c54905090565b60006104d26104c38561084a565b6104cc8561084a565b84610859565b90509392505050565b6000600260009054906101000a900460ff16905090565b6000604051905060006105036103bd565b805190602001209050817f8b73c3c69bb8fe3d512ecc4cf759cc79239f7b179b0ffacaa9a75d522b39400f81528160208201527fc89efdaa54c0f20c7adf612882df0950f5a951637e0307cdcb4c672f298b8bc6604082015246606082015230608082015260a081209250505090565b60006105876105818461084a565b8361092e565b905092915050565b6105a161059b8361084a565b826109a1565b5050565b60006387a211a2600c52816000526020600c20549050919050565b60006338377508600c52816000526020600c20549050919050565b6060600180546105ea906110f1565b80601f0160208091040260200160405190810160405280929190818152602001828054610616906110f1565b80156106635780601f1061063857610100808354040283529160200191610663565b820191906000526020600020905b81548152906001019060200180831161064657829003601f168201915b5050505050905090565b61067f6106798361084a565b82610a38565b5050565b60006106976106918461084a565b83610acf565b905092915050565b60006106b36106ad8461084a565b83610b42565b905092915050565b6106d66106c78461084a565b6106d08461084a565b83610bd4565b505050565b60006106e56104f2565b90506040518542111561070057631a15a3cc6000526004601cfd5b8860601b60601c98508760601b60601c97506338377508600c52886000526020600c2080546001810182557f6e71edae12b1b97f4d1f60370fef10105fa2faae0126114a169c64845d6126c983528a60208401528960408401528860608401528060808401528760a08401526119016000528360205260c083206040526042601e206000528660ff1660205285604052846060526020806080600060015afa508a3d51146107b65763ddafbaef6000526004601cfd5b89637f5e9f2060a01b17604052886034602c2055898b7f8c5be1e5ebec7d5bd14f71427d1e84f3dd0314c0f7b2291e5b200ac8c7c3b925602060608701a38260405260006060525050505050505050505050565b600081602052637f5e9f20600c52826000526034600c2054905092915050565b6108456108368461084a565b61083f8461084a565b83610c17565b505050565b60005a60a01b82179050919050565b6000610866848484610ca8565b8360601b33602052637f5e9f208117600c526034600c20805460001981146108a4578085111561089e576313be252b6000526004601cfd5b84810382555b6387a211a28317600c526020600c208054808711156108cb5763f4d678b86000526004601cfd5b8681038255876000526020600c2087815401815587602052600c5160601c8660601c7fddf252ad1be2c89b69c2b068fc378daa952ba7f163c4a11628f55a4df523b3ef602080a3505050505050610923848484610cad565b600190509392505050565b600082602052637f5e9f20600c52336000526034600c208054838101818110156109605763f90670666000526004601cfd5b80835580600052602c5160601c337f8c5be1e5ebec7d5bd14f71427d1e84f3dd0314c0f7b2291e5b200ac8c7c3b92560206000a35050506001905092915050565b6109ad60008383610ca8565b6805345cdf77eb68f44c54818101818110156109d15763e5cfe9576000526004601cfd5b806805345cdf77eb68f44c556387a211a2600c52836000526020600c2083815401815583602052600c5160601c60007fddf252ad1be2c89b69c2b068fc378daa952ba7f163c4a11628f55a4df523b3ef602080a3505050610a3460008383610cad565b5050565b610a4482600083610ca8565b6387a211a2600c52816000526020600c20805480831115610a6d5763f4d678b86000526004601cfd5b8281038255826805345cdf77eb68f44c54036805345cdf77eb68f44c558260005260008460601b60601c7fddf252ad1be2c89b69c2b068fc378daa952ba7f163c4a11628f55a4df523b3ef60206000a35050610acb82600083610cad565b5050565b600082602052637f5e9f20600c52336000526034600c20805483811015610afe57638301ab386000526004601cfd5b83810380835580600052602c5160601c337f8c5be1e5ebec7d5bd14f71427d1e84f3dd0314c0f7b2291e5b200ac8c7c3b92560206000a35050506001905092915050565b6000610b4f338484610ca8565b6387a211a2600c52336000526020600c20805480841115610b785763f4d678b86000526004601cfd5b8381038255846000526020600c2084815401815584602052600c5160601c337fddf252ad1be2c89b69c2b068fc378daa952ba7f163c4a11628f55a4df523b3ef602080a3505050610bca338484610cad565b6001905092915050565b81602052637f5e9f20600c52826000526034600c2080546000198114610c105780831115610c0a576313be252b6000526004601cfd5b82810382555b5050505050565b610c22838383610ca8565b8260601b6387a211a28117600c526020600c20805480841115610c4d5763f4d678b86000526004601cfd5b8381038255846000526020600c2084815401815584602052600c5160601c8460601c7fddf252ad1be2c89b69c2b068fc378daa952ba7f163c4a11628f55a4df523b3ef602080a350505050610ca3838383610cad565b505050565b505050565b505050565b600081519050919050565b600082825260208201905092915050565b60005b83811015610cec578082015181840152602081019050610cd1565b60008484015250505050565b6000601f19601f8301169050919050565b6000610d1482610cb2565b610d1e8185610cbd565b9350610d2e818560208601610cce565b610d3781610cf8565b840191505092915050565b60006020820190508181036000830152610d5c8184610d09565b905092915050565b600080fd5b600073ffffffffffffffffffffffffffffffffffffffff82169050919050565b6000610d9482610d69565b9050919050565b610da481610d89565b8114610daf57600080fd5b50565b600081359050610dc181610d9b565b92915050565b6000819050919050565b610dda81610dc7565b8114610de557600080fd5b50565b600081359050610df781610dd1565b92915050565b60008060408385031215610e1457610e13610d64565b5b6000610e2285828601610db2565b9250506020610e3385828601610de8565b9150509250929050565b60008115159050919050565b610e5281610e3d565b82525050565b6000602082019050610e6d6000830184610e49565b92915050565b610e7c81610dc7565b82525050565b6000602082019050610e976000830184610e73565b92915050565b600080600060608486031215610eb657610eb5610d64565b5b6000610ec486828701610db2565b9350506020610ed586828701610db2565b9250506040610ee686828701610de8565b9150509250925092565b600060ff82169050919050565b610f0681610ef0565b82525050565b6000602082019050610f216000830184610efd565b92915050565b6000819050919050565b610f3a81610f27565b82525050565b6000602082019050610f556000830184610f31565b92915050565b600060208284031215610f7157610f70610d64565b5b6000610f7f84828501610db2565b91505092915050565b610f9181610ef0565b8114610f9c57600080fd5b50565b600081359050610fae81610f88565b92915050565b610fbd81610f27565b8114610fc857600080fd5b50565b600081359050610fda81610fb4565b92915050565b600080600080600080600060e0888a031215610fff57610ffe610d64565b5b600061100d8a828b01610db2565b975050602061101e8a828b01610db2565b965050604061102f8a828b01610de8565b95505060606110408a828b01610de8565b94505060806110518a828b01610f9f565b93505060a06110628a828b01610fcb565b92505060c06110738a828b01610fcb565b91505092959891949750929550565b6000806040838503121561109957611098610d64565b5b60006110a785828601610db2565b92505060206110b885828601610db2565b9150509250929050565b7f4e487b7100000000000000000000000000000000000000000000000000000000600052602260045260246000fd5b6000600282049050600182168061110957607f821691505b60208210810361111c5761111b6110c2565b5b5091905056fea2646970667358221220da8a20bbb1338e154ca310330535d8ed3dad112d5deb90b1d52e2cabf005e42e64736f6c63430008130033","linkReferences":{}},"methodIdentifiers":{"DOMAIN_SEPARATOR()":"3644e515","allowance(address,address)":"dd62ed3e","approve(address,uint256)":"095ea7b3","balanceOf(address)":"70a08231","burn(address,uint256)":"9dc29fac","decimals()":"313ce567","decreaseAllowance(address,uint256)":"a457c2d7","directSpendAllowance(address,address,uint256)":"d30ed3b3","directTransfer(address,address,uint256)":"f83d1791","increaseAllowance(address,uint256)":"39509351","mint(address,uint256)":"40c10f19","name()":"06fdde03","nonces(address)":"7ecebe00","permit(address,address,uint256,uint256,uint8,bytes32,bytes32)":"d505accf","symbol()":"95d89b41","totalSupply()":"18160ddd","transfer(address,uint256)":"a9059cbb","transferFrom(address,address,uint256)":"23b872dd"},"storageLayout":{"storage":[{"astId":105083,"contract":"pkg/contracts/test/shared/TERC20.sol:TERC20","label":"_name","offset":0,"slot":"0","type":"t_string_storage"},{"astId":105085,"contract":"pkg/contracts/test/shared/TERC20.sol:TERC20","label":"_symbol","offset":0,"slot":"1","type":"t_string_storage"},{"astId":105087,"contract":"pkg/contracts/test/shared/TERC20.sol:TERC20","label":"_decimals","offset":0,"slot":"2","type":"t_uint8"}],"types":{"t_string_storage":{"encoding":"bytes","label":"string","numberOfBytes":"32"},"t_uint8":{"encoding":"inplace","label":"uint8","numberOfBytes":"1"}}},"id":145}