{"abi":[{"type":"function","name":"COUNCIL_MEMBER","inputs":[],"outputs":[{"name":"","type":"bytes32","internalType":"bytes32"}],"stateMutability":"view"},{"type":"function","name":"DEFAULT_ADMIN_ROLE","inputs":[],"outputs":[{"name":"","type":"bytes32","internalType":"bytes32"}],"stateMutability":"view"},{"type":"function","name":"MAX_FEE","inputs":[],"outputs":[{"name":"","type":"uint256","internalType":"uint256"}],"stateMutability":"view"},{"type":"function","name":"MAX_STRATEGIES_PER_MEMBER","inputs":[],"outputs":[{"name":"","type":"uint256","internalType":"uint256"}],"stateMutability":"view"},{"type":"function","name":"NATIVE","inputs":[],"outputs":[{"name":"","type":"address","internalType":"address"}],"stateMutability":"view"},{"type":"function","name":"PRECISION_SCALE","inputs":[],"outputs":[{"name":"","type":"uint256","internalType":"uint256"}],"stateMutability":"view"},{"type":"function","name":"VERSION","inputs":[],"outputs":[{"name":"","type":"string","internalType":"string"}],"stateMutability":"view"},{"type":"function","name":"addressToMemberInfo","inputs":[{"name":"member","type":"address","internalType":"address"}],"outputs":[{"name":"member","type":"address","internalType":"address"},{"name":"stakedAmount","type":"uint256","internalType":"uint256"},{"name":"isRegistered","type":"bool","internalType":"bool"}],"stateMutability":"view"},{"type":"function","name":"allo","inputs":[],"outputs":[{"name":"","type":"address","internalType":"contract FAllo"}],"stateMutability":"view"},{"type":"function","name":"cloneNonce","inputs":[],"outputs":[{"name":"","type":"uint256","internalType":"uint256"}],"stateMutability":"view"},{"type":"function","name":"collateralVaultTemplate","inputs":[],"outputs":[{"name":"","type":"address","internalType":"address"}],"stateMutability":"view"},{"type":"function","name":"communityFee","inputs":[],"outputs":[{"name":"","type":"uint256","internalType":"uint256"}],"stateMutability":"view"},{"type":"function","name":"communityName","inputs":[],"outputs":[{"name":"","type":"string","internalType":"string"}],"stateMutability":"view"},{"type":"function","name":"councilSafe","inputs":[],"outputs":[{"name":"","type":"address","internalType":"contract ISafe"}],"stateMutability":"view"},{"type":"function","name":"covenantIpfsHash","inputs":[],"outputs":[{"name":"","type":"string","internalType":"string"}],"stateMutability":"view"},{"type":"function","name":"enabledStrategies","inputs":[{"name":"strategy","type":"address","internalType":"address"}],"outputs":[{"name":"isEnabled","type":"bool","internalType":"bool"}],"stateMutability":"view"},{"type":"function","name":"feeReceiver","inputs":[],"outputs":[{"name":"","type":"address","internalType":"address"}],"stateMutability":"view"},{"type":"function","name":"gardenToken","inputs":[],"outputs":[{"name":"","type":"address","internalType":"contract IERC20"}],"stateMutability":"view"},{"type":"function","name":"getBasisStakedAmount","inputs":[],"outputs":[{"name":"","type":"uint256","internalType":"uint256"}],"stateMutability":"view"},{"type":"function","name":"getRoleAdmin","inputs":[{"name":"role","type":"bytes32","internalType":"bytes32"}],"outputs":[{"name":"","type":"bytes32","internalType":"bytes32"}],"stateMutability":"view"},{"type":"function","name":"getStakeAmountWithFees","inputs":[],"outputs":[{"name":"","type":"uint256","internalType":"uint256"}],"stateMutability":"view"},{"type":"function","name":"grantRole","inputs":[{"name":"role","type":"bytes32","internalType":"bytes32"},{"name":"account","type":"address","internalType":"address"}],"outputs":[],"stateMutability":"nonpayable"},{"type":"function","name":"hasRole","inputs":[{"name":"role","type":"bytes32","internalType":"bytes32"},{"name":"account","type":"address","internalType":"address"}],"outputs":[{"name":"","type":"bool","internalType":"bool"}],"stateMutability":"view"},{"type":"function","name":"initialize","inputs":[{"name":"initialOwner","type":"address","internalType":"address"}],"outputs":[],"stateMutability":"nonpayable"},{"type":"function","name":"isKickEnabled","inputs":[],"outputs":[{"name":"","type":"bool","internalType":"bool"}],"stateMutability":"view"},{"type":"function","name":"isMember","inputs":[{"name":"_member","type":"address","internalType":"address"}],"outputs":[{"name":"","type":"bool","internalType":"bool"}],"stateMutability":"view"},{"type":"function","name":"kickMember","inputs":[{"name":"_member","type":"address","internalType":"address"},{"name":"_transferAddress","type":"address","internalType":"address"}],"outputs":[],"stateMutability":"nonpayable"},{"type":"function","name":"memberActivatedInStrategies","inputs":[{"name":"member","type":"address","internalType":"address"},{"name":"strategy","type":"address","internalType":"address"}],"outputs":[{"name":"isActivated","type":"bool","internalType":"bool"}],"stateMutability":"view"},{"type":"function","name":"memberPowerInStrategy","inputs":[{"name":"strategy","type":"address","internalType":"address"},{"name":"member","type":"address","internalType":"address"}],"outputs":[{"name":"power","type":"uint256","internalType":"uint256"}],"stateMutability":"view"},{"type":"function","name":"owner","inputs":[],"outputs":[{"name":"","type":"address","internalType":"address"}],"stateMutability":"view"},{"type":"function","name":"pendingCouncilSafe","inputs":[],"outputs":[{"name":"","type":"address","internalType":"address payable"}],"stateMutability":"view"},{"type":"function","name":"profileId","inputs":[],"outputs":[{"name":"","type":"bytes32","internalType":"bytes32"}],"stateMutability":"view"},{"type":"function","name":"proxiableUUID","inputs":[],"outputs":[{"name":"","type":"bytes32","internalType":"bytes32"}],"stateMutability":"view"},{"type":"function","name":"proxyOwner","inputs":[],"outputs":[{"name":"","type":"address","internalType":"address"}],"stateMutability":"view"},{"type":"function","name":"registerMember","inputs":[],"outputs":[],"stateMutability":"nonpayable"},{"type":"function","name":"registerStakeAmount","inputs":[],"outputs":[{"name":"","type":"uint256","internalType":"uint256"}],"stateMutability":"view"},{"type":"function","name":"registry","inputs":[],"outputs":[{"name":"","type":"address","internalType":"contract IRegistry"}],"stateMutability":"view"},{"type":"function","name":"registryFactory","inputs":[],"outputs":[{"name":"","type":"address","internalType":"address"}],"stateMutability":"view"},{"type":"function","name":"renounceOwnership","inputs":[],"outputs":[],"stateMutability":"nonpayable"},{"type":"function","name":"renounceRole","inputs":[{"name":"role","type":"bytes32","internalType":"bytes32"},{"name":"account","type":"address","internalType":"address"}],"outputs":[],"stateMutability":"nonpayable"},{"type":"function","name":"revokeRole","inputs":[{"name":"role","type":"bytes32","internalType":"bytes32"},{"name":"account","type":"address","internalType":"address"}],"outputs":[],"stateMutability":"nonpayable"},{"type":"function","name":"stakeAndRegisterMember","inputs":[{"name":"covenantSig","type":"string","internalType":"string"}],"outputs":[],"stateMutability":"nonpayable"},{"type":"function","name":"strategiesByMember","inputs":[{"name":"member","type":"address","internalType":"address"},{"name":"","type":"uint256","internalType":"uint256"}],"outputs":[{"name":"strategiesAddresses","type":"address","internalType":"address"}],"stateMutability":"view"},{"type":"function","name":"strategyTemplate","inputs":[],"outputs":[{"name":"","type":"address","internalType":"address"}],"stateMutability":"view"},{"type":"function","name":"supportsInterface","inputs":[{"name":"interfaceId","type":"bytes4","internalType":"bytes4"}],"outputs":[{"name":"","type":"bool","internalType":"bool"}],"stateMutability":"view"},{"type":"function","name":"totalMembers","inputs":[],"outputs":[{"name":"","type":"uint256","internalType":"uint256"}],"stateMutability":"view"},{"type":"function","name":"transferOwnership","inputs":[{"name":"newOwner","type":"address","internalType":"address"}],"outputs":[],"stateMutability":"nonpayable"},{"type":"function","name":"unregisterMember","inputs":[],"outputs":[],"stateMutability":"nonpayable"},{"type":"function","name":"upgradeTo","inputs":[{"name":"newImplementation","type":"address","internalType":"address"}],"outputs":[],"stateMutability":"nonpayable"},{"type":"function","name":"upgradeToAndCall","inputs":[{"name":"newImplementation","type":"address","internalType":"address"},{"name":"data","type":"bytes","internalType":"bytes"}],"outputs":[],"stateMutability":"payable"},{"type":"event","name":"AdminChanged","inputs":[{"name":"previousAdmin","type":"address","indexed":false,"internalType":"address"},{"name":"newAdmin","type":"address","indexed":false,"internalType":"address"}],"anonymous":false},{"type":"event","name":"BeaconUpgraded","inputs":[{"name":"beacon","type":"address","indexed":true,"internalType":"address"}],"anonymous":false},{"type":"event","name":"Initialized","inputs":[{"name":"version","type":"uint8","indexed":false,"internalType":"uint8"}],"anonymous":false},{"type":"event","name":"MemberKicked","inputs":[{"name":"_member","type":"address","indexed":false,"internalType":"address"},{"name":"_transferAddress","type":"address","indexed":false,"internalType":"address"},{"name":"_amountReturned","type":"uint256","indexed":false,"internalType":"uint256"}],"anonymous":false},{"type":"event","name":"MemberRegisteredWithCovenant","inputs":[{"name":"_member","type":"address","indexed":false,"internalType":"address"},{"name":"_amountStaked","type":"uint256","indexed":false,"internalType":"uint256"},{"name":"_covenantSig","type":"string","indexed":false,"internalType":"string"}],"anonymous":false},{"type":"event","name":"MemberUnregistered","inputs":[{"name":"_member","type":"address","indexed":false,"internalType":"address"},{"name":"_amountReturned","type":"uint256","indexed":false,"internalType":"uint256"}],"anonymous":false},{"type":"event","name":"OwnershipTransferred","inputs":[{"name":"previousOwner","type":"address","indexed":true,"internalType":"address"},{"name":"newOwner","type":"address","indexed":true,"internalType":"address"}],"anonymous":false},{"type":"event","name":"RoleAdminChanged","inputs":[{"name":"role","type":"bytes32","indexed":true,"internalType":"bytes32"},{"name":"previousAdminRole","type":"bytes32","indexed":true,"internalType":"bytes32"},{"name":"newAdminRole","type":"bytes32","indexed":true,"internalType":"bytes32"}],"anonymous":false},{"type":"event","name":"RoleGranted","inputs":[{"name":"role","type":"bytes32","indexed":true,"internalType":"bytes32"},{"name":"account","type":"address","indexed":true,"internalType":"address"},{"name":"sender","type":"address","indexed":true,"internalType":"address"}],"anonymous":false},{"type":"event","name":"RoleRevoked","inputs":[{"name":"role","type":"bytes32","indexed":true,"internalType":"bytes32"},{"name":"account","type":"address","indexed":true,"internalType":"address"},{"name":"sender","type":"address","indexed":true,"internalType":"address"}],"anonymous":false},{"type":"event","name":"Upgraded","inputs":[{"name":"implementation","type":"address","indexed":true,"internalType":"address"}],"anonymous":false},{"type":"error","name":"CallerNotOwner","inputs":[{"name":"_caller","type":"address","internalType":"address"},{"name":"_owner","type":"address","internalType":"address"}]},{"type":"error","name":"CommunityPaused","inputs":[{"name":"controller","type":"address","internalType":"address"}]},{"type":"error","name":"CommunitySelectorPaused","inputs":[{"name":"selector","type":"bytes4","internalType":"bytes4"},{"name":"controller","type":"address","internalType":"address"}]},{"type":"error","name":"KickNotEnabled","inputs":[]},{"type":"error","name":"StakeRequiredForMembership","inputs":[]},{"type":"error","name":"UserNotInCouncil","inputs":[{"name":"_user","type":"address","internalType":"address"}]},{"type":"error","name":"UserNotInRegistry","inputs":[]}],"bytecode":{"object":"0x60a06040523060805234801562000014575f80fd5b506200001f62000025565b620000e3565b5f54610100900460ff1615620000915760405162461bcd60e51b815260206004820152602760248201527f496e697469616c697a61626c653a20636f6e747261637420697320696e697469604482015266616c697a696e6760c81b606482015260840160405180910390fd5b5f5460ff90811614620000e1575f805460ff191660ff9081179091556040519081527f7f26b83ff96e1f2b6a682f133852f6798a09c465da95921460cefb38474024989060200160405180910390a15b565b608051612725620001185f395f8181610a8601528181610ac601528181610b4d01528181610b8d0152610c0401526127255ff3fe608060405260043610610238575f3560e01c806301ffc9a71461023c578063025313a2146102705780630331383c1461029157806308386eba146102af5780631f787d28146102c4578063248a9ca3146102dc57806328c309e9146102fb5780632b38c69c1461030f5780632f2ff15d1461032e578063339604591461034f57806336568abe146103645780633659cfe6146103835780633a871fe1146103a2578063477a5cc0146103d15780634ef9119f1461040b5780634f1ef2861461041f57806352d1902d146104325780635c94e4d21461044657806360f8dd7e1461046657806365e3864c1461047a5780636871eb4d146104b157806368decabb146104d05780636c53db9a146104f0578063715018a614610510578063733a2d1f1461052457806376e925591461054457806377122d561461055a57806378a0b8a91461057a5780637b1039991461058f57806388cfe684146105af5780638961be6b1461061e5780638da5cb5b1461063357806391d14854146106475780639a1f46e214610666578063a0cf0aea14610685578063a217fddf146106ac578063a230c524146106bf578063b3f00674146106de578063b64e39af14610702578063b99b437014610723578063bc063e1a14610737578063c4d66de81461074b578063c6d572ae1461076a578063d547741f1461077e578063d6d8428d1461079d578063d7050f07146107bd578063db61d65c146107d2578063f2fde38b146107f2578063f86c5f8914610811578063ffa1ad7414610831575b5f80fd5b348015610247575f80fd5b5061025b61025636600461215b565b61085f565b60405190151581526020015b60405180910390f35b34801561027b575f80fd5b50610284610895565b6040516102679190612182565b34801561029c575f80fd5b5060fb545b604051908152602001610267565b3480156102ba575f80fd5b506102a160fe5481565b3480156102cf575f80fd5b5060ff805461025b911681565b3480156102e7575f80fd5b506102a16102f6366004612196565b6108ad565b348015610306575f80fd5b506102a16108c1565b34801561031a575f80fd5b506102846103293660046121c1565b6109a3565b348015610339575f80fd5b5061034d6103483660046121eb565b6109d8565b005b34801561035a575f80fd5b506102a160fd5481565b34801561036f575f80fd5b5061034d61037e3660046121eb565b6109f9565b34801561038e575f80fd5b5061034d61039d366004612219565b610a7c565b3480156103ad575f80fd5b5061025b6103bc366004612219565b61010a6020525f908152604090205460ff1681565b3480156103dc575f80fd5b5061025b6103eb366004612234565b61010e60209081525f928352604080842090915290825290205460ff1681565b348015610416575f80fd5b506102a1604081565b61034d61042d3660046122e6565b610b43565b34801561043d575f80fd5b506102a1610bf8565b348015610451575f80fd5b5061010254610284906001600160a01b031681565b348015610471575f80fd5b5061034d610ca4565b348015610485575f80fd5b506102a1610494366004612234565b61010b60209081525f928352604080842090915290825290205481565b3480156104bc575f80fd5b5061034d6104cb366004612234565b610d41565b3480156104db575f80fd5b5061010354610284906001600160a01b031681565b3480156104fb575f80fd5b5061010654610284906001600160a01b031681565b34801561051b575f80fd5b5061034d610f1f565b34801561052f575f80fd5b506102a15f8051602061267283398151915281565b34801561054f575f80fd5b506102a16101105481565b348015610565575f80fd5b5061010154610284906001600160a01b031681565b348015610585575f80fd5b506102a160fb5481565b34801561059a575f80fd5b5061010454610284906001600160a01b031681565b3480156105ba575f80fd5b506105f76105c9366004612219565b61010c6020525f90815260409020805460018201546002909201546001600160a01b03909116919060ff1683565b604080516001600160a01b0390941684526020840192909252151590820152606001610267565b348015610629575f80fd5b506102a160fc5481565b34801561063e575f80fd5b50610284610f30565b348015610652575f80fd5b5061025b6106613660046121eb565b610fc3565b348015610671575f80fd5b5061034d610680366004612345565b610fed565b348015610690575f80fd5b5061028473eeeeeeeeeeeeeeeeeeeeeeeeeeeeeeeeeeeeeeee81565b3480156106b7575f80fd5b506102a15f81565b3480156106ca575f80fd5b5061025b6106d9366004612219565b611207565b3480156106e9575f80fd5b5060ff546102849061010090046001600160a01b031681565b34801561070d575f80fd5b50610716611228565b60405161026791906123d6565b34801561072e575f80fd5b5061034d6112b5565b348015610742575f80fd5b506102a1611445565b348015610756575f80fd5b5061034d610765366004612219565b611455565b348015610775575f80fd5b50610716611568565b348015610789575f80fd5b5061034d6107983660046121eb565b611576565b3480156107a8575f80fd5b5061010754610284906001600160a01b031681565b3480156107c8575f80fd5b506102a161271081565b3480156107dd575f80fd5b5061010554610284906001600160a01b031681565b3480156107fd575f80fd5b5061034d61080c366004612219565b611592565b34801561081c575f80fd5b5061010054610284906001600160a01b031681565b34801561083c575f80fd5b50610716604051806040016040528060038152602001620302e360ec1b81525081565b5f6001600160e01b03198216637965db0b60e01b148061088f57506301ffc9a760e01b6001600160e01b03198316145b92915050565b5f6108a86033546001600160a01b031690565b905090565b5f90815260c9602052604090206001015490565b5f806108d061271060646123fc565b60fc5460fb546108e091906123fc565b6108ea9190612413565b90505f6108fa61271060646123fc565b610100546040516302a64b8360e21b81526001600160a01b0390911690630a992e0c9061092b903090600401612182565b602060405180830381865afa158015610946573d5f803e3d5ffd5b505050506040513d601f19601f8201168201806040525081019061096a9190612432565b60fb5461097791906123fc565b6109819190612413565b9050808260fb546109929190612449565b61099c9190612449565b9250505090565b61010d602052815f5260405f2081815481106109bd575f80fd5b5f918252602090912001546001600160a01b03169150829050565b6109e1826108ad565b6109ea81611608565b6109f48383611612565b505050565b6001600160a01b0381163314610a6e5760405162461bcd60e51b815260206004820152602f60248201527f416363657373436f6e74726f6c3a2063616e206f6e6c792072656e6f756e636560448201526e103937b632b9903337b91039b2b63360891b60648201526084015b60405180910390fd5b610a788282611697565b5050565b6001600160a01b037f0000000000000000000000000000000000000000000000000000000000000000163003610ac45760405162461bcd60e51b8152600401610a659061245c565b7f00000000000000000000000000000000000000000000000000000000000000006001600160a01b0316610af66116fd565b6001600160a01b031614610b1c5760405162461bcd60e51b8152600401610a6590612495565b610b2581611718565b604080515f80825260208201909252610b4091839190611764565b50565b6001600160a01b037f0000000000000000000000000000000000000000000000000000000000000000163003610b8b5760405162461bcd60e51b8152600401610a659061245c565b7f00000000000000000000000000000000000000000000000000000000000000006001600160a01b0316610bbd6116fd565b6001600160a01b031614610be35760405162461bcd60e51b8152600401610a6590612495565b610bec82611718565b610a7882826001611764565b5f306001600160a01b037f00000000000000000000000000000000000000000000000000000000000000001614610c925760405162461bcd60e51b815260206004820152603860248201527f555550535570677261646561626c653a206d757374206e6f742062652063616c6044820152771b1959081d1a1c9bdd59da0819195b1959d85d1958d85b1b60421b6064820152608401610a65565b505f805160206126b283398151915290565b60fb5415610cc5576040516316a9dced60e21b815260040160405180910390fd5b610cce33611207565b610d3f57335f90815261010c60205260408120600201805460ff19166001908117909155610110805491929091610d06908490612449565b9091555050604080513381525f60208201819052606082840181905282015290515f805160206126f98339815191529181900360800190a15b565b610d496118ce565b60ff805416610d6b576040516365b1ee3960e11b815260040160405180910390fd5b610d7482611207565b610d9157604051636a5cfb6d60e01b815260040160405180910390fd5b6001600160a01b0382165f90815261010d6020908152604080832080548251818502810185019093528083529192909190830182828015610df957602002820191905f5260205f20905b81546001600160a01b03168152600190910190602001808311610ddb575b5050506001600160a01b038087165f81815261010c602090815260408083208151606081018352815490961686526001810154868401526002015460ff1615158582015292825261010d90529081209495509093610e599350915061212d565b6001600160a01b0384165f90815261010c6020526040812080546001600160a01b031916815560018082018390556002909101805460ff19169055610110805491929091610ea89084906124ce565b90915550610eba905084836001611904565b602081015161010554610eda916001600160a01b039091169085906119da565b7fb5946f249f8744efe9d14d49a483b54a589b1362944ff6694de93456cceb96a384848360200151604051610f11939291906124e1565b60405180910390a150505050565b610f27611a30565b610d3f5f611a8f565b5f610f39610895565b6001600160a01b03163b5f03610f51576108a8610895565b610f59610895565b6001600160a01b0316638da5cb5b6040518163ffffffff1660e01b8152600401602060405180830381865afa925050508015610fb2575060408051601f3d908101601f19168201909252610faf91810190612505565b60015b610fbe576108a8610895565b919050565b5f91825260c9602090815260408084206001600160a01b0393909316845291905290205460ff1690565b610100546001600160a01b03165f61100861271060646123fc565b60fc5460fb5461101891906123fc565b6110229190612413565b90505f61103261271060646123fc565b6040516302a64b8360e21b81526001600160a01b03851690630a992e0c9061105e903090600401612182565b602060405180830381865afa158015611079573d5f803e3d5ffd5b505050506040513d601f19601f8201168201806040525081019061109d9190612432565b60fb546110aa91906123fc565b6110b49190612413565b90506110bf33611207565b61120157335f81815261010c6020526040902060028101805460ff1916600190811790915560fb54910181905561111f919030908490611100908790612449565b61110a9190612449565b610105546001600160a01b0316929190611ae0565b81156111495760ff5461010554611149916001600160a01b039182169161010090910416846119da565b80156111c6576111c6836001600160a01b031663987435be6040518163ffffffff1660e01b8152600401602060405180830381865afa15801561118e573d5f803e3d5ffd5b505050506040513d601f19601f820116820180604052508101906111b29190612505565b610105546001600160a01b031690836119da565b60016101105f8282546111d99190612449565b909155505060fb546040515f805160206126f983398151915291610f11913391908890612520565b50505050565b6001600160a01b03165f90815261010c602052604090206002015460ff1690565b61010980546112369061254f565b80601f01602080910402602001604051908101604052809291908181526020018280546112629061254f565b80156112ad5780601f10611284576101008083540402835291602001916112ad565b820191905f5260205f20905b81548152906001019060200180831161129057829003601f168201915b505050505081565b6112bd611b01565b335f81815261010d602090815260408083208054825181850281018501909352808352919290919083018282801561131c57602002820191905f5260205f20905b81546001600160a01b031681526001909101906020018083116112fe575b5050506001600160a01b038086165f81815261010c602090815260408083208151606081018352815490961686526001810154868401526002015460ff1615158582015292825261010d9052908120949550909361137c9350915061212d565b6001600160a01b0383165f90815261010c6020526040812080546001600160a01b03191681556001810191909155600201805460ff1916905561011054156113d75760016101105f8282546113d191906124ce565b90915550505b6113e383836001611904565b602081015161010554611403916001600160a01b039091169085906119da565b7fa13f4668aacb68c4e9eed8e3f6e1cbec3eca776896ec46b5eabcc3983fc8f5f4838260200151604051611438929190612587565b60405180910390a1505050565b611452612710600a6123fc565b81565b5f54610100900460ff161580801561147357505f54600160ff909116105b80611493575061148230611b27565b15801561149357505f5460ff166001145b6114f65760405162461bcd60e51b815260206004820152602e60248201527f496e697469616c697a61626c653a20636f6e747261637420697320616c72656160448201526d191e481a5b9a5d1a585b1a5e995960921b6064820152608401610a65565b5f805460ff191660011790558015611517575f805461ff0019166101001790555b61152082611a8f565b8015610a78575f805461ff0019169055604051600181527f7f26b83ff96e1f2b6a682f133852f6798a09c465da95921460cefb38474024989060200160405180910390a15050565b61010880546112369061254f565b61157f826108ad565b61158881611608565b6109f48383611697565b61159a611a30565b6001600160a01b0381166115ff5760405162461bcd60e51b815260206004820152602660248201527f4f776e61626c653a206e6577206f776e657220697320746865207a65726f206160448201526564647265737360d01b6064820152608401610a65565b610b4081611a8f565b610b408133611b36565b61161c8282610fc3565b610a78575f82815260c9602090815260408083206001600160a01b03851684529091529020805460ff191660011790556116533390565b6001600160a01b0316816001600160a01b0316837f2f8788117e7eff1d82e926ec794901d17c78024a50270940304540a733656f0d60405160405180910390a45050565b6116a18282610fc3565b15610a78575f82815260c9602090815260408083206001600160a01b0385168085529252808320805460ff1916905551339285917ff6391f5c32d9c69d2a47ea670b442974b53935d1edc7fd64eb21e047a839171b9190a45050565b5f805160206126b2833981519152546001600160a01b031690565b33611721610f30565b6001600160a01b031614610b405733611738610f30565b60405163163678e960e01b81526001600160a01b03928316600482015291166024820152604401610a65565b7f4910fdfa16fed3260ed0e7147f7cc6da11a60208b5b9406d12a635614ffd91435460ff1615611797576109f483611b8f565b826001600160a01b03166352d1902d6040518163ffffffff1660e01b8152600401602060405180830381865afa9250505080156117f1575060408051601f3d908101601f191682019092526117ee91810190612432565b60015b6118545760405162461bcd60e51b815260206004820152602e60248201527f45524331393637557067726164653a206e657720696d706c656d656e7461746960448201526d6f6e206973206e6f74205555505360901b6064820152608401610a65565b5f805160206126b283398151915281146118c25760405162461bcd60e51b815260206004820152602960248201527f45524331393637557067726164653a20756e737570706f727465642070726f786044820152681a58589b195555525160ba1b6064820152608401610a65565b506109f4838383611c28565b6118e55f8051602061267283398151915233610fc3565b610d3f573360405163fc4be72f60e01b8152600401610a659190612182565b5f5b8251811015611201575f838281518110611922576119226125a0565b60200260200101519050806001600160a01b0316636453d9c4866040518263ffffffff1660e01b81526004016119589190612182565b5f604051808303815f87803b15801561196f575f80fd5b505af1158015611981573d5f803e3d5ffd5b5050505082156119d1576001600160a01b038086165f81815261010e60209081526040808320948616808452948252808320805460ff1916905592825261010b8152828220938252929092528120555b50600101611906565b6109f48363a9059cbb60e01b84846040516024016119f9929190612587565b60408051601f198184030181529190526020810180516001600160e01b03166001600160e01b031990931692909217909152611c4c565b33611a39610f30565b6001600160a01b031614610d3f5760405162461bcd60e51b815260206004820181905260248201527f4f776e61626c653a2063616c6c6572206973206e6f7420746865206f776e65726044820152606401610a65565b603380546001600160a01b038381166001600160a01b0319831681179093556040519116919082907f8be0079c531659141344cd1fd0a4f28419497f9722a3daafe3b4186f6b6457e0905f90a35050565b611201846323b872dd60e01b8585856040516024016119f9939291906124e1565b611b0a33611207565b610d3f57604051636a5cfb6d60e01b815260040160405180910390fd5b6001600160a01b03163b151590565b611b408282610fc3565b610a7857611b4d81611d1f565b611b58836020611d31565b604051602001611b699291906125b4565b60408051601f198184030181529082905262461bcd60e51b8252610a65916004016123d6565b611b9881611b27565b611bfa5760405162461bcd60e51b815260206004820152602d60248201527f455243313936373a206e657720696d706c656d656e746174696f6e206973206e60448201526c1bdd08184818dbdb9d1c9858dd609a1b6064820152608401610a65565b5f805160206126b283398151915280546001600160a01b0319166001600160a01b0392909216919091179055565b611c3183611ecd565b5f82511180611c3d5750805b156109f4576112018383611f0c565b5f611ca0826040518060400160405280602081526020017f5361666545524332303a206c6f772d6c6576656c2063616c6c206661696c6564815250856001600160a01b0316611f319092919063ffffffff16565b905080515f1480611cc0575080806020019051810190611cc09190612622565b6109f45760405162461bcd60e51b815260206004820152602a60248201527f5361666545524332303a204552433230206f7065726174696f6e20646964206e6044820152691bdd081cdd58d8d9595960b21b6064820152608401610a65565b606061088f6001600160a01b03831660145b60605f611d3f8360026123fc565b611d4a906002612449565b6001600160401b03811115611d6157611d61612260565b6040519080825280601f01601f191660200182016040528015611d8b576020820181803683370190505b509050600360fc1b815f81518110611da557611da56125a0565b60200101906001600160f81b03191690815f1a905350600f60fb1b81600181518110611dd357611dd36125a0565b60200101906001600160f81b03191690815f1a9053505f611df58460026123fc565b611e00906001612449565b90505b6001811115611e77576f181899199a1a9b1b9c1cb0b131b232b360811b85600f1660108110611e3457611e346125a0565b1a60f81b828281518110611e4a57611e4a6125a0565b60200101906001600160f81b03191690815f1a90535060049490941c93611e7081612641565b9050611e03565b508315611ec65760405162461bcd60e51b815260206004820181905260248201527f537472696e67733a20686578206c656e67746820696e73756666696369656e746044820152606401610a65565b9392505050565b611ed681611b8f565b6040516001600160a01b038216907fbc7cd75a20ee27fd9adebab32041f755214dbc6bffa90cc0225b39da2e5c2d3b905f90a250565b6060611ec683836040518060600160405280602781526020016126d260279139611f47565b6060611f3f84845f85611fbb565b949350505050565b60605f80856001600160a01b031685604051611f639190612656565b5f60405180830381855af49150503d805f8114611f9b576040519150601f19603f3d011682016040523d82523d5f602084013e611fa0565b606091505b5091509150611fb186838387612092565b9695505050505050565b60608247101561201c5760405162461bcd60e51b815260206004820152602660248201527f416464726573733a20696e73756666696369656e742062616c616e636520666f6044820152651c8818d85b1b60d21b6064820152608401610a65565b5f80866001600160a01b031685876040516120379190612656565b5f6040518083038185875af1925050503d805f8114612071576040519150601f19603f3d011682016040523d82523d5f602084013e612076565b606091505b509150915061208787838387612092565b979650505050505050565b606083156120fe5782515f036120f7576120ab85611b27565b6120f75760405162461bcd60e51b815260206004820152601d60248201527f416464726573733a2063616c6c20746f206e6f6e2d636f6e74726163740000006044820152606401610a65565b5081611f3f565b611f3f83838151156121135781518083602001fd5b8060405162461bcd60e51b8152600401610a6591906123d6565b5080545f8255905f5260205f2090810190610b4091905b80821115612157575f8155600101612144565b5090565b5f6020828403121561216b575f80fd5b81356001600160e01b031981168114611ec6575f80fd5b6001600160a01b0391909116815260200190565b5f602082840312156121a6575f80fd5b5035919050565b6001600160a01b0381168114610b40575f80fd5b5f80604083850312156121d2575f80fd5b82356121dd816121ad565b946020939093013593505050565b5f80604083850312156121fc575f80fd5b82359150602083013561220e816121ad565b809150509250929050565b5f60208284031215612229575f80fd5b8135611ec6816121ad565b5f8060408385031215612245575f80fd5b8235612250816121ad565b9150602083013561220e816121ad565b634e487b7160e01b5f52604160045260245ffd5b5f6001600160401b038084111561228d5761228d612260565b604051601f8501601f19908116603f011681019082821181831017156122b5576122b5612260565b816040528093508581528686860111156122cd575f80fd5b858560208301375f602087830101525050509392505050565b5f80604083850312156122f7575f80fd5b8235612302816121ad565b915060208301356001600160401b0381111561231c575f80fd5b8301601f8101851361232c575f80fd5b61233b85823560208401612274565b9150509250929050565b5f60208284031215612355575f80fd5b81356001600160401b0381111561236a575f80fd5b8201601f8101841361237a575f80fd5b611f3f84823560208401612274565b5f5b838110156123a357818101518382015260200161238b565b50505f910152565b5f81518084526123c2816020860160208601612389565b601f01601f19169290920160200192915050565b602081525f611ec660208301846123ab565b634e487b7160e01b5f52601160045260245ffd5b808202811582820484141761088f5761088f6123e8565b5f8261242d57634e487b7160e01b5f52601260045260245ffd5b500490565b5f60208284031215612442575f80fd5b5051919050565b8082018082111561088f5761088f6123e8565b6020808252602c908201525f8051602061269283398151915260408201526b19195b1959d85d1958d85b1b60a21b606082015260800190565b6020808252602c908201525f8051602061269283398151915260408201526b6163746976652070726f787960a01b606082015260800190565b8181038181111561088f5761088f6123e8565b6001600160a01b039384168152919092166020820152604081019190915260600190565b5f60208284031215612515575f80fd5b8151611ec6816121ad565b60018060a01b0384168152826020820152606060408201525f61254660608301846123ab565b95945050505050565b600181811c9082168061256357607f821691505b60208210810361258157634e487b7160e01b5f52602260045260245ffd5b50919050565b6001600160a01b03929092168252602082015260400190565b634e487b7160e01b5f52603260045260245ffd5b76020b1b1b2b9b9a1b7b73a3937b61d1030b1b1b7bab73a1604d1b81525f83516125e5816017850160208801612389565b7001034b99036b4b9b9b4b733903937b6329607d1b6017918401918201528351612616816028840160208801612389565b01602801949350505050565b5f60208284031215612632575f80fd5b81518015158114611ec6575f80fd5b5f8161264f5761264f6123e8565b505f190190565b5f8251612667818460208701612389565b919091019291505056fe03be538b6391ddcd7f2649585cc95b120c9e2a613f70714fbb55345057d809fa46756e6374696f6e206d7573742062652063616c6c6564207468726f75676820360894a13ba1a3210667c828492db98dca3e2076cc3735a920a3ca505d382bbc416464726573733a206c6f772d6c6576656c2064656c65676174652063616c6c206661696c65640bd09b1e448ffe881e884ac37014bf3e0274007308056b6469b50fa485542abfa164736f6c6343000817000a","linkReferences":{}},"methodIdentifiers":{"COUNCIL_MEMBER()":"733a2d1f","DEFAULT_ADMIN_ROLE()":"a217fddf","MAX_FEE()":"bc063e1a","MAX_STRATEGIES_PER_MEMBER()":"4ef9119f","NATIVE()":"a0cf0aea","PRECISION_SCALE()":"d7050f07","VERSION()":"ffa1ad74","addressToMemberInfo(address)":"88cfe684","allo()":"d6d8428d","cloneNonce()":"33960459","collateralVaultTemplate()":"77122d56","communityFee()":"8961be6b","communityName()":"c6d572ae","councilSafe()":"6c53db9a","covenantIpfsHash()":"b64e39af","enabledStrategies(address)":"3a871fe1","feeReceiver()":"b3f00674","gardenToken()":"db61d65c","getBasisStakedAmount()":"0331383c","getRoleAdmin(bytes32)":"248a9ca3","getStakeAmountWithFees()":"28c309e9","grantRole(bytes32,address)":"2f2ff15d","hasRole(bytes32,address)":"91d14854","initialize(address)":"c4d66de8","isKickEnabled()":"1f787d28","isMember(address)":"a230c524","kickMember(address,address)":"6871eb4d","memberActivatedInStrategies(address,address)":"477a5cc0","memberPowerInStrategy(address,address)":"65e3864c","owner()":"8da5cb5b","pendingCouncilSafe()":"68decabb","profileId()":"08386eba","proxiableUUID()":"52d1902d","proxyOwner()":"025313a2","registerMember()":"60f8dd7e","registerStakeAmount()":"78a0b8a9","registry()":"7b103999","registryFactory()":"f86c5f89","renounceOwnership()":"715018a6","renounceRole(bytes32,address)":"36568abe","revokeRole(bytes32,address)":"d547741f","stakeAndRegisterMember(string)":"9a1f46e2","strategiesByMember(address,uint256)":"2b38c69c","strategyTemplate()":"5c94e4d2","supportsInterface(bytes4)":"01ffc9a7","totalMembers()":"76e92559","transferOwnership(address)":"f2fde38b","unregisterMember()":"b99b4370","upgradeTo(address)":"3659cfe6","upgradeToAndCall(address,bytes)":"4f1ef286"},"storageLayout":{"storage":[{"astId":49373,"contract":"pkg/contracts/src/RegistryCommunity/facets/CommunityMemberFacet.sol:CommunityMemberFacet","label":"_initialized","offset":0,"slot":"0","type":"t_uint8"},{"astId":49376,"contract":"pkg/contracts/src/RegistryCommunity/facets/CommunityMemberFacet.sol:CommunityMemberFacet","label":"_initializing","offset":1,"slot":"0","type":"t_bool"},{"astId":50000,"contract":"pkg/contracts/src/RegistryCommunity/facets/CommunityMemberFacet.sol:CommunityMemberFacet","label":"__gap","offset":0,"slot":"1","type":"t_array(t_uint256)50_storage"},{"astId":49165,"contract":"pkg/contracts/src/RegistryCommunity/facets/CommunityMemberFacet.sol:CommunityMemberFacet","label":"_owner","offset":0,"slot":"51","type":"t_address"},{"astId":49285,"contract":"pkg/contracts/src/RegistryCommunity/facets/CommunityMemberFacet.sol:CommunityMemberFacet","label":"__gap","offset":0,"slot":"52","type":"t_array(t_uint256)49_storage"},{"astId":49550,"contract":"pkg/contracts/src/RegistryCommunity/facets/CommunityMemberFacet.sol:CommunityMemberFacet","label":"_status","offset":0,"slot":"101","type":"t_uint256"},{"astId":49619,"contract":"pkg/contracts/src/RegistryCommunity/facets/CommunityMemberFacet.sol:CommunityMemberFacet","label":"__gap","offset":0,"slot":"102","type":"t_array(t_uint256)49_storage"},{"astId":50274,"contract":"pkg/contracts/src/RegistryCommunity/facets/CommunityMemberFacet.sol:CommunityMemberFacet","label":"__gap","offset":0,"slot":"151","type":"t_array(t_uint256)50_storage"},{"astId":48772,"contract":"pkg/contracts/src/RegistryCommunity/facets/CommunityMemberFacet.sol:CommunityMemberFacet","label":"_roles","offset":0,"slot":"201","type":"t_mapping(t_bytes32,t_struct(RoleData)48767_storage)"},{"astId":49079,"contract":"pkg/contracts/src/RegistryCommunity/facets/CommunityMemberFacet.sol:CommunityMemberFacet","label":"__gap","offset":0,"slot":"202","type":"t_array(t_uint256)49_storage"},{"astId":97114,"contract":"pkg/contracts/src/RegistryCommunity/facets/CommunityMemberFacet.sol:CommunityMemberFacet","label":"registerStakeAmount","offset":0,"slot":"251","type":"t_uint256"},{"astId":97117,"contract":"pkg/contracts/src/RegistryCommunity/facets/CommunityMemberFacet.sol:CommunityMemberFacet","label":"communityFee","offset":0,"slot":"252","type":"t_uint256"},{"astId":97120,"contract":"pkg/contracts/src/RegistryCommunity/facets/CommunityMemberFacet.sol:CommunityMemberFacet","label":"cloneNonce","offset":0,"slot":"253","type":"t_uint256"},{"astId":97123,"contract":"pkg/contracts/src/RegistryCommunity/facets/CommunityMemberFacet.sol:CommunityMemberFacet","label":"profileId","offset":0,"slot":"254","type":"t_bytes32"},{"astId":97126,"contract":"pkg/contracts/src/RegistryCommunity/facets/CommunityMemberFacet.sol:CommunityMemberFacet","label":"isKickEnabled","offset":0,"slot":"255","type":"t_bool"},{"astId":97129,"contract":"pkg/contracts/src/RegistryCommunity/facets/CommunityMemberFacet.sol:CommunityMemberFacet","label":"feeReceiver","offset":1,"slot":"255","type":"t_address"},{"astId":97132,"contract":"pkg/contracts/src/RegistryCommunity/facets/CommunityMemberFacet.sol:CommunityMemberFacet","label":"registryFactory","offset":0,"slot":"256","type":"t_address"},{"astId":97135,"contract":"pkg/contracts/src/RegistryCommunity/facets/CommunityMemberFacet.sol:CommunityMemberFacet","label":"collateralVaultTemplate","offset":0,"slot":"257","type":"t_address"},{"astId":97138,"contract":"pkg/contracts/src/RegistryCommunity/facets/CommunityMemberFacet.sol:CommunityMemberFacet","label":"strategyTemplate","offset":0,"slot":"258","type":"t_address"},{"astId":97141,"contract":"pkg/contracts/src/RegistryCommunity/facets/CommunityMemberFacet.sol:CommunityMemberFacet","label":"pendingCouncilSafe","offset":0,"slot":"259","type":"t_address_payable"},{"astId":97145,"contract":"pkg/contracts/src/RegistryCommunity/facets/CommunityMemberFacet.sol:CommunityMemberFacet","label":"registry","offset":0,"slot":"260","type":"t_contract(IRegistry)544"},{"astId":97149,"contract":"pkg/contracts/src/RegistryCommunity/facets/CommunityMemberFacet.sol:CommunityMemberFacet","label":"gardenToken","offset":0,"slot":"261","type":"t_contract(IERC20)52994"},{"astId":97153,"contract":"pkg/contracts/src/RegistryCommunity/facets/CommunityMemberFacet.sol:CommunityMemberFacet","label":"councilSafe","offset":0,"slot":"262","type":"t_contract(ISafe)103639"},{"astId":97157,"contract":"pkg/contracts/src/RegistryCommunity/facets/CommunityMemberFacet.sol:CommunityMemberFacet","label":"allo","offset":0,"slot":"263","type":"t_contract(FAllo)103309"},{"astId":97160,"contract":"pkg/contracts/src/RegistryCommunity/facets/CommunityMemberFacet.sol:CommunityMemberFacet","label":"communityName","offset":0,"slot":"264","type":"t_string_storage"},{"astId":97163,"contract":"pkg/contracts/src/RegistryCommunity/facets/CommunityMemberFacet.sol:CommunityMemberFacet","label":"covenantIpfsHash","offset":0,"slot":"265","type":"t_string_storage"},{"astId":97168,"contract":"pkg/contracts/src/RegistryCommunity/facets/CommunityMemberFacet.sol:CommunityMemberFacet","label":"enabledStrategies","offset":0,"slot":"266","type":"t_mapping(t_address,t_bool)"},{"astId":97175,"contract":"pkg/contracts/src/RegistryCommunity/facets/CommunityMemberFacet.sol:CommunityMemberFacet","label":"memberPowerInStrategy","offset":0,"slot":"267","type":"t_mapping(t_address,t_mapping(t_address,t_uint256))"},{"astId":97181,"contract":"pkg/contracts/src/RegistryCommunity/facets/CommunityMemberFacet.sol:CommunityMemberFacet","label":"addressToMemberInfo","offset":0,"slot":"268","type":"t_mapping(t_address,t_struct(Member)97055_storage)"},{"astId":97187,"contract":"pkg/contracts/src/RegistryCommunity/facets/CommunityMemberFacet.sol:CommunityMemberFacet","label":"strategiesByMember","offset":0,"slot":"269","type":"t_mapping(t_address,t_array(t_address)dyn_storage)"},{"astId":97194,"contract":"pkg/contracts/src/RegistryCommunity/facets/CommunityMemberFacet.sol:CommunityMemberFacet","label":"memberActivatedInStrategies","offset":0,"slot":"270","type":"t_mapping(t_address,t_mapping(t_address,t_bool))"},{"astId":97198,"contract":"pkg/contracts/src/RegistryCommunity/facets/CommunityMemberFacet.sol:CommunityMemberFacet","label":"initialMembers","offset":0,"slot":"271","type":"t_array(t_address)dyn_storage"},{"astId":97201,"contract":"pkg/contracts/src/RegistryCommunity/facets/CommunityMemberFacet.sol:CommunityMemberFacet","label":"totalMembers","offset":0,"slot":"272","type":"t_uint256"},{"astId":97206,"contract":"pkg/contracts/src/RegistryCommunity/facets/CommunityMemberFacet.sol:CommunityMemberFacet","label":"strategyFacetCuts","offset":0,"slot":"273","type":"t_array(t_struct(FacetCut)102303_storage)dyn_storage"},{"astId":97208,"contract":"pkg/contracts/src/RegistryCommunity/facets/CommunityMemberFacet.sol:CommunityMemberFacet","label":"strategyInit","offset":0,"slot":"274","type":"t_address"},{"astId":97210,"contract":"pkg/contracts/src/RegistryCommunity/facets/CommunityMemberFacet.sol:CommunityMemberFacet","label":"strategyInitCalldata","offset":0,"slot":"275","type":"t_bytes_storage"},{"astId":97214,"contract":"pkg/contracts/src/RegistryCommunity/facets/CommunityMemberFacet.sol:CommunityMemberFacet","label":"__gap","offset":0,"slot":"276","type":"t_array(t_uint256)46_storage"}],"types":{"t_address":{"encoding":"inplace","label":"address","numberOfBytes":"20"},"t_address_payable":{"encoding":"inplace","label":"address payable","numberOfBytes":"20"},"t_array(t_address)dyn_storage":{"encoding":"dynamic_array","label":"address[]","numberOfBytes":"32","base":"t_address"},"t_array(t_bytes4)dyn_storage":{"encoding":"dynamic_array","label":"bytes4[]","numberOfBytes":"32","base":"t_bytes4"},"t_array(t_struct(FacetCut)102303_storage)dyn_storage":{"encoding":"dynamic_array","label":"struct IDiamond.FacetCut[]","numberOfBytes":"32","base":"t_struct(FacetCut)102303_storage"},"t_array(t_uint256)46_storage":{"encoding":"inplace","label":"uint256[46]","numberOfBytes":"1472","base":"t_uint256"},"t_array(t_uint256)49_storage":{"encoding":"inplace","label":"uint256[49]","numberOfBytes":"1568","base":"t_uint256"},"t_array(t_uint256)50_storage":{"encoding":"inplace","label":"uint256[50]","numberOfBytes":"1600","base":"t_uint256"},"t_bool":{"encoding":"inplace","label":"bool","numberOfBytes":"1"},"t_bytes32":{"encoding":"inplace","label":"bytes32","numberOfBytes":"32"},"t_bytes4":{"encoding":"inplace","label":"bytes4","numberOfBytes":"4"},"t_bytes_storage":{"encoding":"bytes","label":"bytes","numberOfBytes":"32"},"t_contract(FAllo)103309":{"encoding":"inplace","label":"contract FAllo","numberOfBytes":"20"},"t_contract(IERC20)52994":{"encoding":"inplace","label":"contract IERC20","numberOfBytes":"20"},"t_contract(IRegistry)544":{"encoding":"inplace","label":"contract IRegistry","numberOfBytes":"20"},"t_contract(ISafe)103639":{"encoding":"inplace","label":"contract ISafe","numberOfBytes":"20"},"t_enum(FacetCutAction)102294":{"encoding":"inplace","label":"enum IDiamond.FacetCutAction","numberOfBytes":"1"},"t_mapping(t_address,t_array(t_address)dyn_storage)":{"encoding":"mapping","key":"t_address","label":"mapping(address => address[])","numberOfBytes":"32","value":"t_array(t_address)dyn_storage"},"t_mapping(t_address,t_bool)":{"encoding":"mapping","key":"t_address","label":"mapping(address => bool)","numberOfBytes":"32","value":"t_bool"},"t_mapping(t_address,t_mapping(t_address,t_bool))":{"encoding":"mapping","key":"t_address","label":"mapping(address => mapping(address => bool))","numberOfBytes":"32","value":"t_mapping(t_address,t_bool)"},"t_mapping(t_address,t_mapping(t_address,t_uint256))":{"encoding":"mapping","key":"t_address","label":"mapping(address => mapping(address => uint256))","numberOfBytes":"32","value":"t_mapping(t_address,t_uint256)"},"t_mapping(t_address,t_struct(Member)97055_storage)":{"encoding":"mapping","key":"t_address","label":"mapping(address => struct Member)","numberOfBytes":"32","value":"t_struct(Member)97055_storage"},"t_mapping(t_address,t_uint256)":{"encoding":"mapping","key":"t_address","label":"mapping(address => uint256)","numberOfBytes":"32","value":"t_uint256"},"t_mapping(t_bytes32,t_struct(RoleData)48767_storage)":{"encoding":"mapping","key":"t_bytes32","label":"mapping(bytes32 => struct AccessControlUpgradeable.RoleData)","numberOfBytes":"32","value":"t_struct(RoleData)48767_storage"},"t_string_storage":{"encoding":"bytes","label":"string","numberOfBytes":"32"},"t_struct(FacetCut)102303_storage":{"encoding":"inplace","label":"struct IDiamond.FacetCut","numberOfBytes":"64","members":[{"astId":102296,"contract":"pkg/contracts/src/RegistryCommunity/facets/CommunityMemberFacet.sol:CommunityMemberFacet","label":"facetAddress","offset":0,"slot":"0","type":"t_address"},{"astId":102299,"contract":"pkg/contracts/src/RegistryCommunity/facets/CommunityMemberFacet.sol:CommunityMemberFacet","label":"action","offset":20,"slot":"0","type":"t_enum(FacetCutAction)102294"},{"astId":102302,"contract":"pkg/contracts/src/RegistryCommunity/facets/CommunityMemberFacet.sol:CommunityMemberFacet","label":"functionSelectors","offset":0,"slot":"1","type":"t_array(t_bytes4)dyn_storage"}]},"t_struct(Member)97055_storage":{"encoding":"inplace","label":"struct Member","numberOfBytes":"96","members":[{"astId":97050,"contract":"pkg/contracts/src/RegistryCommunity/facets/CommunityMemberFacet.sol:CommunityMemberFacet","label":"member","offset":0,"slot":"0","type":"t_address"},{"astId":97052,"contract":"pkg/contracts/src/RegistryCommunity/facets/CommunityMemberFacet.sol:CommunityMemberFacet","label":"stakedAmount","offset":0,"slot":"1","type":"t_uint256"},{"astId":97054,"contract":"pkg/contracts/src/RegistryCommunity/facets/CommunityMemberFacet.sol:CommunityMemberFacet","label":"isRegistered","offset":0,"slot":"2","type":"t_bool"}]},"t_struct(RoleData)48767_storage":{"encoding":"inplace","label":"struct AccessControlUpgradeable.RoleData","numberOfBytes":"64","members":[{"astId":48764,"contract":"pkg/contracts/src/RegistryCommunity/facets/CommunityMemberFacet.sol:CommunityMemberFacet","label":"members","offset":0,"slot":"0","type":"t_mapping(t_address,t_bool)"},{"astId":48766,"contract":"pkg/contracts/src/RegistryCommunity/facets/CommunityMemberFacet.sol:CommunityMemberFacet","label":"adminRole","offset":0,"slot":"1","type":"t_bytes32"}]},"t_uint256":{"encoding":"inplace","label":"uint256","numberOfBytes":"32"},"t_uint8":{"encoding":"inplace","label":"uint8","numberOfBytes":"1"}}},"id":149}