{"abi":[{"type":"function","name":"COUNCIL_MEMBER","inputs":[],"outputs":[{"name":"","type":"bytes32","internalType":"bytes32"}],"stateMutability":"view"},{"type":"function","name":"DEFAULT_ADMIN_ROLE","inputs":[],"outputs":[{"name":"","type":"bytes32","internalType":"bytes32"}],"stateMutability":"view"},{"type":"function","name":"MAX_FEE","inputs":[],"outputs":[{"name":"","type":"uint256","internalType":"uint256"}],"stateMutability":"view"},{"type":"function","name":"NATIVE","inputs":[],"outputs":[{"name":"","type":"address","internalType":"address"}],"stateMutability":"view"},{"type":"function","name":"PRECISION_SCALE","inputs":[],"outputs":[{"name":"","type":"uint256","internalType":"uint256"}],"stateMutability":"view"},{"type":"function","name":"VERSION","inputs":[],"outputs":[{"name":"","type":"string","internalType":"string"}],"stateMutability":"view"},{"type":"function","name":"addressToMemberInfo","inputs":[{"name":"member","type":"address","internalType":"address"}],"outputs":[{"name":"member","type":"address","internalType":"address"},{"name":"stakedAmount","type":"uint256","internalType":"uint256"},{"name":"isRegistered","type":"bool","internalType":"bool"}],"stateMutability":"view"},{"type":"function","name":"allo","inputs":[],"outputs":[{"name":"","type":"address","internalType":"contract FAllo"}],"stateMutability":"view"},{"type":"function","name":"cloneNonce","inputs":[],"outputs":[{"name":"","type":"uint256","internalType":"uint256"}],"stateMutability":"view"},{"type":"function","name":"collateralVaultTemplate","inputs":[],"outputs":[{"name":"","type":"address","internalType":"address"}],"stateMutability":"view"},{"type":"function","name":"communityFee","inputs":[],"outputs":[{"name":"","type":"uint256","internalType":"uint256"}],"stateMutability":"view"},{"type":"function","name":"communityName","inputs":[],"outputs":[{"name":"","type":"string","internalType":"string"}],"stateMutability":"view"},{"type":"function","name":"councilSafe","inputs":[],"outputs":[{"name":"","type":"address","internalType":"contract ISafe"}],"stateMutability":"view"},{"type":"function","name":"covenantIpfsHash","inputs":[],"outputs":[{"name":"","type":"string","internalType":"string"}],"stateMutability":"view"},{"type":"function","name":"enabledStrategies","inputs":[{"name":"strategy","type":"address","internalType":"address"}],"outputs":[{"name":"isEnabled","type":"bool","internalType":"bool"}],"stateMutability":"view"},{"type":"function","name":"feeReceiver","inputs":[],"outputs":[{"name":"","type":"address","internalType":"address"}],"stateMutability":"view"},{"type":"function","name":"gardenToken","inputs":[],"outputs":[{"name":"","type":"address","internalType":"contract IERC20"}],"stateMutability":"view"},{"type":"function","name":"getBasisStakedAmount","inputs":[],"outputs":[{"name":"","type":"uint256","internalType":"uint256"}],"stateMutability":"view"},{"type":"function","name":"getRoleAdmin","inputs":[{"name":"role","type":"bytes32","internalType":"bytes32"}],"outputs":[{"name":"","type":"bytes32","internalType":"bytes32"}],"stateMutability":"view"},{"type":"function","name":"getStakeAmountWithFees","inputs":[],"outputs":[{"name":"","type":"uint256","internalType":"uint256"}],"stateMutability":"view"},{"type":"function","name":"grantRole","inputs":[{"name":"role","type":"bytes32","internalType":"bytes32"},{"name":"account","type":"address","internalType":"address"}],"outputs":[],"stateMutability":"nonpayable"},{"type":"function","name":"hasRole","inputs":[{"name":"role","type":"bytes32","internalType":"bytes32"},{"name":"account","type":"address","internalType":"address"}],"outputs":[{"name":"","type":"bool","internalType":"bool"}],"stateMutability":"view"},{"type":"function","name":"initialize","inputs":[{"name":"initialOwner","type":"address","internalType":"address"}],"outputs":[],"stateMutability":"nonpayable"},{"type":"function","name":"isKickEnabled","inputs":[],"outputs":[{"name":"","type":"bool","internalType":"bool"}],"stateMutability":"view"},{"type":"function","name":"isMember","inputs":[{"name":"_member","type":"address","internalType":"address"}],"outputs":[{"name":"","type":"bool","internalType":"bool"}],"stateMutability":"view"},{"type":"function","name":"kickMember","inputs":[{"name":"_member","type":"address","internalType":"address"},{"name":"_transferAddress","type":"address","internalType":"address"}],"outputs":[],"stateMutability":"nonpayable"},{"type":"function","name":"memberActivatedInStrategies","inputs":[{"name":"member","type":"address","internalType":"address"},{"name":"strategy","type":"address","internalType":"address"}],"outputs":[{"name":"isActivated","type":"bool","internalType":"bool"}],"stateMutability":"view"},{"type":"function","name":"memberPowerInStrategy","inputs":[{"name":"strategy","type":"address","internalType":"address"},{"name":"member","type":"address","internalType":"address"}],"outputs":[{"name":"power","type":"uint256","internalType":"uint256"}],"stateMutability":"view"},{"type":"function","name":"owner","inputs":[],"outputs":[{"name":"","type":"address","internalType":"address"}],"stateMutability":"view"},{"type":"function","name":"pendingCouncilSafe","inputs":[],"outputs":[{"name":"","type":"address","internalType":"address payable"}],"stateMutability":"view"},{"type":"function","name":"profileId","inputs":[],"outputs":[{"name":"","type":"bytes32","internalType":"bytes32"}],"stateMutability":"view"},{"type":"function","name":"proxiableUUID","inputs":[],"outputs":[{"name":"","type":"bytes32","internalType":"bytes32"}],"stateMutability":"view"},{"type":"function","name":"proxyOwner","inputs":[],"outputs":[{"name":"","type":"address","internalType":"address"}],"stateMutability":"view"},{"type":"function","name":"registerStakeAmount","inputs":[],"outputs":[{"name":"","type":"uint256","internalType":"uint256"}],"stateMutability":"view"},{"type":"function","name":"registry","inputs":[],"outputs":[{"name":"","type":"address","internalType":"contract IRegistry"}],"stateMutability":"view"},{"type":"function","name":"registryFactory","inputs":[],"outputs":[{"name":"","type":"address","internalType":"address"}],"stateMutability":"view"},{"type":"function","name":"renounceOwnership","inputs":[],"outputs":[],"stateMutability":"nonpayable"},{"type":"function","name":"renounceRole","inputs":[{"name":"role","type":"bytes32","internalType":"bytes32"},{"name":"account","type":"address","internalType":"address"}],"outputs":[],"stateMutability":"nonpayable"},{"type":"function","name":"revokeRole","inputs":[{"name":"role","type":"bytes32","internalType":"bytes32"},{"name":"account","type":"address","internalType":"address"}],"outputs":[],"stateMutability":"nonpayable"},{"type":"function","name":"stakeAndRegisterMember","inputs":[{"name":"covenantSig","type":"string","internalType":"string"}],"outputs":[],"stateMutability":"nonpayable"},{"type":"function","name":"strategiesByMember","inputs":[{"name":"member","type":"address","internalType":"address"},{"name":"","type":"uint256","internalType":"uint256"}],"outputs":[{"name":"strategiesAddresses","type":"address","internalType":"address"}],"stateMutability":"view"},{"type":"function","name":"strategyTemplate","inputs":[],"outputs":[{"name":"","type":"address","internalType":"address"}],"stateMutability":"view"},{"type":"function","name":"supportsInterface","inputs":[{"name":"interfaceId","type":"bytes4","internalType":"bytes4"}],"outputs":[{"name":"","type":"bool","internalType":"bool"}],"stateMutability":"view"},{"type":"function","name":"totalMembers","inputs":[],"outputs":[{"name":"","type":"uint256","internalType":"uint256"}],"stateMutability":"view"},{"type":"function","name":"transferOwnership","inputs":[{"name":"newOwner","type":"address","internalType":"address"}],"outputs":[],"stateMutability":"nonpayable"},{"type":"function","name":"unregisterMember","inputs":[],"outputs":[],"stateMutability":"nonpayable"},{"type":"function","name":"upgradeTo","inputs":[{"name":"newImplementation","type":"address","internalType":"address"}],"outputs":[],"stateMutability":"nonpayable"},{"type":"function","name":"upgradeToAndCall","inputs":[{"name":"newImplementation","type":"address","internalType":"address"},{"name":"data","type":"bytes","internalType":"bytes"}],"outputs":[],"stateMutability":"payable"},{"type":"event","name":"AdminChanged","inputs":[{"name":"previousAdmin","type":"address","indexed":false,"internalType":"address"},{"name":"newAdmin","type":"address","indexed":false,"internalType":"address"}],"anonymous":false},{"type":"event","name":"BeaconUpgraded","inputs":[{"name":"beacon","type":"address","indexed":true,"internalType":"address"}],"anonymous":false},{"type":"event","name":"Initialized","inputs":[{"name":"version","type":"uint8","indexed":false,"internalType":"uint8"}],"anonymous":false},{"type":"event","name":"MemberKicked","inputs":[{"name":"_member","type":"address","indexed":false,"internalType":"address"},{"name":"_transferAddress","type":"address","indexed":false,"internalType":"address"},{"name":"_amountReturned","type":"uint256","indexed":false,"internalType":"uint256"}],"anonymous":false},{"type":"event","name":"MemberRegisteredWithCovenant","inputs":[{"name":"_member","type":"address","indexed":false,"internalType":"address"},{"name":"_amountStaked","type":"uint256","indexed":false,"internalType":"uint256"},{"name":"_covenantSig","type":"string","indexed":false,"internalType":"string"}],"anonymous":false},{"type":"event","name":"MemberUnregistered","inputs":[{"name":"_member","type":"address","indexed":false,"internalType":"address"},{"name":"_amountReturned","type":"uint256","indexed":false,"internalType":"uint256"}],"anonymous":false},{"type":"event","name":"OwnershipTransferred","inputs":[{"name":"previousOwner","type":"address","indexed":true,"internalType":"address"},{"name":"newOwner","type":"address","indexed":true,"internalType":"address"}],"anonymous":false},{"type":"event","name":"RoleAdminChanged","inputs":[{"name":"role","type":"bytes32","indexed":true,"internalType":"bytes32"},{"name":"previousAdminRole","type":"bytes32","indexed":true,"internalType":"bytes32"},{"name":"newAdminRole","type":"bytes32","indexed":true,"internalType":"bytes32"}],"anonymous":false},{"type":"event","name":"RoleGranted","inputs":[{"name":"role","type":"bytes32","indexed":true,"internalType":"bytes32"},{"name":"account","type":"address","indexed":true,"internalType":"address"},{"name":"sender","type":"address","indexed":true,"internalType":"address"}],"anonymous":false},{"type":"event","name":"RoleRevoked","inputs":[{"name":"role","type":"bytes32","indexed":true,"internalType":"bytes32"},{"name":"account","type":"address","indexed":true,"internalType":"address"},{"name":"sender","type":"address","indexed":true,"internalType":"address"}],"anonymous":false},{"type":"event","name":"Upgraded","inputs":[{"name":"implementation","type":"address","indexed":true,"internalType":"address"}],"anonymous":false},{"type":"error","name":"CallerNotOwner","inputs":[{"name":"_caller","type":"address","internalType":"address"},{"name":"_owner","type":"address","internalType":"address"}]},{"type":"error","name":"CommunityPaused","inputs":[{"name":"controller","type":"address","internalType":"address"}]},{"type":"error","name":"CommunitySelectorPaused","inputs":[{"name":"selector","type":"bytes4","internalType":"bytes4"},{"name":"controller","type":"address","internalType":"address"}]},{"type":"error","name":"KickNotEnabled","inputs":[]},{"type":"error","name":"UserNotInCouncil","inputs":[{"name":"_user","type":"address","internalType":"address"}]},{"type":"error","name":"UserNotInRegistry","inputs":[]}],"bytecode":{"object":"0x60a060405230608052348015610013575f80fd5b506080516125586100485f395f8181610a4801528181610a8801528181610b0f01528181610b4f0152610bc601526125585ff3fe608060405260043610610222575f3560e01c806301ffc9a714610226578063025313a21461025a5780630331383c1461027b57806308386eba146102995780631f787d28146102ae578063248a9ca3146102c657806328c309e9146102e55780632b38c69c146102f95780632f2ff15d14610318578063339604591461033957806336568abe1461034e5780633659cfe61461036d5780633a871fe11461038c578063477a5cc0146103bb5780634f1ef286146103f557806352d1902d146104085780635c94e4d21461041c57806365e3864c1461043c5780636871eb4d1461047357806368decabb146104925780636c53db9a146104b2578063715018a6146104d2578063733a2d1f146104e657806376e925591461050657806377122d561461051c57806378a0b8a91461053c5780637b1039991461055157806388cfe684146105715780638961be6b146105e05780638da5cb5b146105f557806391d14854146106095780639a1f46e214610628578063a0cf0aea14610647578063a217fddf1461066e578063a230c52414610681578063b3f00674146106a0578063b64e39af146106c4578063b99b4370146106e5578063bc063e1a146106f9578063c4d66de81461070d578063c6d572ae1461072c578063d547741f14610740578063d6d8428d1461075f578063d7050f071461077f578063db61d65c14610794578063f2fde38b146107b4578063f86c5f89146107d3578063ffa1ad74146107f3575b5f80fd5b348015610231575f80fd5b50610245610240366004611fae565b610821565b60405190151581526020015b60405180910390f35b348015610265575f80fd5b5061026e610857565b6040516102519190611fd5565b348015610286575f80fd5b5060fb545b604051908152602001610251565b3480156102a4575f80fd5b5061028b60fe5481565b3480156102b9575f80fd5b5060ff8054610245911681565b3480156102d1575f80fd5b5061028b6102e0366004611fe9565b61086f565b3480156102f0575f80fd5b5061028b610883565b348015610304575f80fd5b5061026e610313366004612014565b610965565b348015610323575f80fd5b5061033761033236600461203e565b61099a565b005b348015610344575f80fd5b5061028b60fd5481565b348015610359575f80fd5b5061033761036836600461203e565b6109bb565b348015610378575f80fd5b5061033761038736600461206c565b610a3e565b348015610397575f80fd5b506102456103a636600461206c565b61010a6020525f908152604090205460ff1681565b3480156103c6575f80fd5b506102456103d5366004612087565b61010e60209081525f928352604080842090915290825290205460ff1681565b610337610403366004612139565b610b05565b348015610413575f80fd5b5061028b610bba565b348015610427575f80fd5b506101025461026e906001600160a01b031681565b348015610447575f80fd5b5061028b610456366004612087565b61010b60209081525f928352604080842090915290825290205481565b34801561047e575f80fd5b5061033761048d366004612087565b610c66565b34801561049d575f80fd5b506101035461026e906001600160a01b031681565b3480156104bd575f80fd5b506101065461026e906001600160a01b031681565b3480156104dd575f80fd5b50610337610dbc565b3480156104f1575f80fd5b5061028b5f805160206124c583398151915281565b348015610511575f80fd5b5061028b6101105481565b348015610527575f80fd5b506101015461026e906001600160a01b031681565b348015610547575f80fd5b5061028b60fb5481565b34801561055c575f80fd5b506101045461026e906001600160a01b031681565b34801561057c575f80fd5b506105b961058b36600461206c565b61010c6020525f90815260409020805460018201546002909201546001600160a01b03909116919060ff1683565b604080516001600160a01b0390941684526020840192909252151590820152606001610251565b3480156105eb575f80fd5b5061028b60fc5481565b348015610600575f80fd5b5061026e610dcf565b348015610614575f80fd5b5061024561062336600461203e565b610e62565b348015610633575f80fd5b50610337610642366004612198565b610e8c565b348015610652575f80fd5b5061026e73eeeeeeeeeeeeeeeeeeeeeeeeeeeeeeeeeeeeeeee81565b348015610679575f80fd5b5061028b5f81565b34801561068c575f80fd5b5061024561069b36600461206c565b6110c2565b3480156106ab575f80fd5b5060ff5461026e9061010090046001600160a01b031681565b3480156106cf575f80fd5b506106d86110e3565b6040516102519190612229565b3480156106f0575f80fd5b50610337611170565b348015610704575f80fd5b5061028b61127d565b348015610718575f80fd5b5061033761072736600461206c565b61128d565b348015610737575f80fd5b506106d8611399565b34801561074b575f80fd5b5061033761075a36600461203e565b6113a7565b34801561076a575f80fd5b506101075461026e906001600160a01b031681565b34801561078a575f80fd5b5061028b61271081565b34801561079f575f80fd5b506101055461026e906001600160a01b031681565b3480156107bf575f80fd5b506103376107ce36600461206c565b6113c3565b3480156107de575f80fd5b506101005461026e906001600160a01b031681565b3480156107fe575f80fd5b506106d8604051806040016040528060038152602001620302e360ec1b81525081565b5f6001600160e01b03198216637965db0b60e01b148061085157506301ffc9a760e01b6001600160e01b03198316145b92915050565b5f61086a6033546001600160a01b031690565b905090565b5f90815260c9602052604090206001015490565b5f80610892612710606461224f565b60fc5460fb546108a2919061224f565b6108ac9190612266565b90505f6108bc612710606461224f565b610100546040516302a64b8360e21b81526001600160a01b0390911690630a992e0c906108ed903090600401611fd5565b602060405180830381865afa158015610908573d5f803e3d5ffd5b505050506040513d601f19601f8201168201806040525081019061092c9190612285565b60fb54610939919061224f565b6109439190612266565b9050808260fb54610954919061229c565b61095e919061229c565b9250505090565b61010d602052815f5260405f20818154811061097f575f80fd5b5f918252602090912001546001600160a01b03169150829050565b6109a38261086f565b6109ac81611439565b6109b68383611443565b505050565b6001600160a01b0381163314610a305760405162461bcd60e51b815260206004820152602f60248201527f416363657373436f6e74726f6c3a2063616e206f6e6c792072656e6f756e636560448201526e103937b632b9903337b91039b2b63360891b60648201526084015b60405180910390fd5b610a3a82826114c8565b5050565b6001600160a01b037f0000000000000000000000000000000000000000000000000000000000000000163003610a865760405162461bcd60e51b8152600401610a27906122af565b7f00000000000000000000000000000000000000000000000000000000000000006001600160a01b0316610ab861152e565b6001600160a01b031614610ade5760405162461bcd60e51b8152600401610a27906122e8565b610ae781611549565b604080515f80825260208201909252610b0291839190611595565b50565b6001600160a01b037f0000000000000000000000000000000000000000000000000000000000000000163003610b4d5760405162461bcd60e51b8152600401610a27906122af565b7f00000000000000000000000000000000000000000000000000000000000000006001600160a01b0316610b7f61152e565b6001600160a01b031614610ba55760405162461bcd60e51b8152600401610a27906122e8565b610bae82611549565b610a3a82826001611595565b5f306001600160a01b037f00000000000000000000000000000000000000000000000000000000000000001614610c545760405162461bcd60e51b815260206004820152603860248201527f555550535570677261646561626c653a206d757374206e6f742062652063616c6044820152771b1959081d1a1c9bdd59da0819195b1959d85d1958d85b1b60421b6064820152608401610a27565b505f8051602061250583398151915290565b610c6e6116ff565b60ff805416610c90576040516365b1ee3960e11b815260040160405180910390fd5b610c99826110c2565b610cb657604051636a5cfb6d60e01b815260040160405180910390fd5b6001600160a01b038083165f90815261010c60209081526040918290208251606081018452815490941684526001810154918401919091526002015460ff16151590820152610d0483611735565b6001600160a01b0383165f90815261010c6020526040812080546001600160a01b031916815560018082018390556002909101805460ff19169055610110805491929091610d53908490612321565b9091555050602081015161010554610d78916001600160a01b0390911690849061182d565b7fb5946f249f8744efe9d14d49a483b54a589b1362944ff6694de93456cceb96a383838360200151604051610daf93929190612334565b60405180910390a1505050565b610dc4611883565b610dcd5f6118e2565b565b5f610dd8610857565b6001600160a01b03163b5f03610df05761086a610857565b610df8610857565b6001600160a01b0316638da5cb5b6040518163ffffffff1660e01b8152600401602060405180830381865afa925050508015610e51575060408051601f3d908101601f19168201909252610e4e91810190612358565b60015b610e5d5761086a610857565b919050565b5f91825260c9602090815260408084206001600160a01b0393909316845291905290205460ff1690565b610100546001600160a01b03165f610ea7612710606461224f565b60fc5460fb54610eb7919061224f565b610ec19190612266565b90505f610ed1612710606461224f565b6040516302a64b8360e21b81526001600160a01b03851690630a992e0c90610efd903090600401611fd5565b602060405180830381865afa158015610f18573d5f803e3d5ffd5b505050506040513d601f19601f82011682018060405250810190610f3c9190612285565b60fb54610f49919061224f565b610f539190612266565b9050610f5e336110c2565b6110bc57335f81815261010c6020526040902060028101805460ff1916600190811790915560fb549101819055610fbe919030908490610f9f90879061229c565b610fa9919061229c565b610105546001600160a01b0316929190611933565b8115610fe85760ff5461010554610fe8916001600160a01b0391821691610100909104168461182d565b801561106557611065836001600160a01b031663987435be6040518163ffffffff1660e01b8152600401602060405180830381865afa15801561102d573d5f803e3d5ffd5b505050506040513d601f19601f820116820180604052508101906110519190612358565b610105546001600160a01b0316908361182d565b60016101105f828254611078919061229c565b909155505060fb546040517f0bd09b1e448ffe881e884ac37014bf3e0274007308056b6469b50fa485542abf916110b3913391908890612373565b60405180910390a15b50505050565b6001600160a01b03165f90815261010c602052604090206002015460ff1690565b61010980546110f1906123a2565b80601f016020809104026020016040519081016040528092919081815260200182805461111d906123a2565b80156111685780601f1061113f57610100808354040283529160200191611168565b820191905f5260205f20905b81548152906001019060200180831161114b57829003601f168201915b505050505081565b611178611954565b3361118281611735565b6001600160a01b038082165f81815261010c602090815260408083208151606081018352815496871681526001820180548286015260028301805460ff81161515848701529787526001600160a01b03199098169092559084905560ff1990941690945561010d905291822090916111fa9190611f80565b610110541561121c5760016101105f8282546112169190612321565b90915550505b60208101516101055461123c916001600160a01b0390911690849061182d565b7fa13f4668aacb68c4e9eed8e3f6e1cbec3eca776896ec46b5eabcc3983fc8f5f48282602001516040516112719291906123da565b60405180910390a15050565b61128a612710600a61224f565b81565b5f54610100900460ff16158080156112ab57505f54600160ff909116105b806112cb57506112ba3061197a565b1580156112cb57505f5460ff166001145b61132e5760405162461bcd60e51b815260206004820152602e60248201527f496e697469616c697a61626c653a20636f6e747261637420697320616c72656160448201526d191e481a5b9a5d1a585b1a5e995960921b6064820152608401610a27565b5f805460ff19166001179055801561134f575f805461ff0019166101001790555b611358826118e2565b8015610a3a575f805461ff0019169055604051600181527f7f26b83ff96e1f2b6a682f133852f6798a09c465da95921460cefb384740249890602001611271565b61010880546110f1906123a2565b6113b08261086f565b6113b981611439565b6109b683836114c8565b6113cb611883565b6001600160a01b0381166114305760405162461bcd60e51b815260206004820152602660248201527f4f776e61626c653a206e6577206f776e657220697320746865207a65726f206160448201526564647265737360d01b6064820152608401610a27565b610b02816118e2565b610b028133611989565b61144d8282610e62565b610a3a575f82815260c9602090815260408083206001600160a01b03851684529091529020805460ff191660011790556114843390565b6001600160a01b0316816001600160a01b0316837f2f8788117e7eff1d82e926ec794901d17c78024a50270940304540a733656f0d60405160405180910390a45050565b6114d28282610e62565b15610a3a575f82815260c9602090815260408083206001600160a01b0385168085529252808320805460ff1916905551339285917ff6391f5c32d9c69d2a47ea670b442974b53935d1edc7fd64eb21e047a839171b9190a45050565b5f80516020612505833981519152546001600160a01b031690565b33611552610dcf565b6001600160a01b031614610b025733611569610dcf565b60405163163678e960e01b81526001600160a01b03928316600482015291166024820152604401610a27565b7f4910fdfa16fed3260ed0e7147f7cc6da11a60208b5b9406d12a635614ffd91435460ff16156115c8576109b6836119e2565b826001600160a01b03166352d1902d6040518163ffffffff1660e01b8152600401602060405180830381865afa925050508015611622575060408051601f3d908101601f1916820190925261161f91810190612285565b60015b6116855760405162461bcd60e51b815260206004820152602e60248201527f45524331393637557067726164653a206e657720696d706c656d656e7461746960448201526d6f6e206973206e6f74205555505360901b6064820152608401610a27565b5f8051602061250583398151915281146116f35760405162461bcd60e51b815260206004820152602960248201527f45524331393637557067726164653a20756e737570706f727465642070726f786044820152681a58589b195555525160ba1b6064820152608401610a27565b506109b6838383611a7b565b6117165f805160206124c583398151915233610e62565b610dcd573360405163fc4be72f60e01b8152600401610a279190611fd5565b6001600160a01b0381165f90815261010d602090815260408083208054825181850281018501909352808352919290919083018282801561179d57602002820191905f5260205f20905b81546001600160a01b0316815260019091019060200180831161177f575b505050505090505f5b81518110156109b6578181815181106117c1576117c16123f3565b60200260200101516001600160a01b0316636453d9c4846040518263ffffffff1660e01b81526004016117f49190611fd5565b5f604051808303815f87803b15801561180b575f80fd5b505af115801561181d573d5f803e3d5ffd5b5050600190920191506117a69050565b6109b68363a9059cbb60e01b848460405160240161184c9291906123da565b60408051601f198184030181529190526020810180516001600160e01b03166001600160e01b031990931692909217909152611a9f565b3361188c610dcf565b6001600160a01b031614610dcd5760405162461bcd60e51b815260206004820181905260248201527f4f776e61626c653a2063616c6c6572206973206e6f7420746865206f776e65726044820152606401610a27565b603380546001600160a01b038381166001600160a01b0319831681179093556040519116919082907f8be0079c531659141344cd1fd0a4f28419497f9722a3daafe3b4186f6b6457e0905f90a35050565b6110bc846323b872dd60e01b85858560405160240161184c93929190612334565b61195d336110c2565b610dcd57604051636a5cfb6d60e01b815260040160405180910390fd5b6001600160a01b03163b151590565b6119938282610e62565b610a3a576119a081611b72565b6119ab836020611b84565b6040516020016119bc929190612407565b60408051601f198184030181529082905262461bcd60e51b8252610a2791600401612229565b6119eb8161197a565b611a4d5760405162461bcd60e51b815260206004820152602d60248201527f455243313936373a206e657720696d706c656d656e746174696f6e206973206e60448201526c1bdd08184818dbdb9d1c9858dd609a1b6064820152608401610a27565b5f8051602061250583398151915280546001600160a01b0319166001600160a01b0392909216919091179055565b611a8483611d20565b5f82511180611a905750805b156109b6576110bc8383611d5f565b5f611af3826040518060400160405280602081526020017f5361666545524332303a206c6f772d6c6576656c2063616c6c206661696c6564815250856001600160a01b0316611d849092919063ffffffff16565b905080515f1480611b13575080806020019051810190611b139190612475565b6109b65760405162461bcd60e51b815260206004820152602a60248201527f5361666545524332303a204552433230206f7065726174696f6e20646964206e6044820152691bdd081cdd58d8d9595960b21b6064820152608401610a27565b60606108516001600160a01b03831660145b60605f611b9283600261224f565b611b9d90600261229c565b6001600160401b03811115611bb457611bb46120b3565b6040519080825280601f01601f191660200182016040528015611bde576020820181803683370190505b509050600360fc1b815f81518110611bf857611bf86123f3565b60200101906001600160f81b03191690815f1a905350600f60fb1b81600181518110611c2657611c266123f3565b60200101906001600160f81b03191690815f1a9053505f611c4884600261224f565b611c5390600161229c565b90505b6001811115611cca576f181899199a1a9b1b9c1cb0b131b232b360811b85600f1660108110611c8757611c876123f3565b1a60f81b828281518110611c9d57611c9d6123f3565b60200101906001600160f81b03191690815f1a90535060049490941c93611cc381612494565b9050611c56565b508315611d195760405162461bcd60e51b815260206004820181905260248201527f537472696e67733a20686578206c656e67746820696e73756666696369656e746044820152606401610a27565b9392505050565b611d29816119e2565b6040516001600160a01b038216907fbc7cd75a20ee27fd9adebab32041f755214dbc6bffa90cc0225b39da2e5c2d3b905f90a250565b6060611d19838360405180606001604052806027815260200161252560279139611d9a565b6060611d9284845f85611e0e565b949350505050565b60605f80856001600160a01b031685604051611db691906124a9565b5f60405180830381855af49150503d805f8114611dee576040519150601f19603f3d011682016040523d82523d5f602084013e611df3565b606091505b5091509150611e0486838387611ee5565b9695505050505050565b606082471015611e6f5760405162461bcd60e51b815260206004820152602660248201527f416464726573733a20696e73756666696369656e742062616c616e636520666f6044820152651c8818d85b1b60d21b6064820152608401610a27565b5f80866001600160a01b03168587604051611e8a91906124a9565b5f6040518083038185875af1925050503d805f8114611ec4576040519150601f19603f3d011682016040523d82523d5f602084013e611ec9565b606091505b5091509150611eda87838387611ee5565b979650505050505050565b60608315611f515782515f03611f4a57611efe8561197a565b611f4a5760405162461bcd60e51b815260206004820152601d60248201527f416464726573733a2063616c6c20746f206e6f6e2d636f6e74726163740000006044820152606401610a27565b5081611d92565b611d928383815115611f665781518083602001fd5b8060405162461bcd60e51b8152600401610a279190612229565b5080545f8255905f5260205f2090810190610b0291905b80821115611faa575f8155600101611f97565b5090565b5f60208284031215611fbe575f80fd5b81356001600160e01b031981168114611d19575f80fd5b6001600160a01b0391909116815260200190565b5f60208284031215611ff9575f80fd5b5035919050565b6001600160a01b0381168114610b02575f80fd5b5f8060408385031215612025575f80fd5b823561203081612000565b946020939093013593505050565b5f806040838503121561204f575f80fd5b82359150602083013561206181612000565b809150509250929050565b5f6020828403121561207c575f80fd5b8135611d1981612000565b5f8060408385031215612098575f80fd5b82356120a381612000565b9150602083013561206181612000565b634e487b7160e01b5f52604160045260245ffd5b5f6001600160401b03808411156120e0576120e06120b3565b604051601f8501601f19908116603f01168101908282118183101715612108576121086120b3565b81604052809350858152868686011115612120575f80fd5b858560208301375f602087830101525050509392505050565b5f806040838503121561214a575f80fd5b823561215581612000565b915060208301356001600160401b0381111561216f575f80fd5b8301601f8101851361217f575f80fd5b61218e858235602084016120c7565b9150509250929050565b5f602082840312156121a8575f80fd5b81356001600160401b038111156121bd575f80fd5b8201601f810184136121cd575f80fd5b611d92848235602084016120c7565b5f5b838110156121f65781810151838201526020016121de565b50505f910152565b5f81518084526122158160208601602086016121dc565b601f01601f19169290920160200192915050565b602081525f611d1960208301846121fe565b634e487b7160e01b5f52601160045260245ffd5b80820281158282048414176108515761085161223b565b5f8261228057634e487b7160e01b5f52601260045260245ffd5b500490565b5f60208284031215612295575f80fd5b5051919050565b808201808211156108515761085161223b565b6020808252602c908201525f805160206124e583398151915260408201526b19195b1959d85d1958d85b1b60a21b606082015260800190565b6020808252602c908201525f805160206124e583398151915260408201526b6163746976652070726f787960a01b606082015260800190565b818103818111156108515761085161223b565b6001600160a01b039384168152919092166020820152604081019190915260600190565b5f60208284031215612368575f80fd5b8151611d1981612000565b60018060a01b0384168152826020820152606060408201525f61239960608301846121fe565b95945050505050565b600181811c908216806123b657607f821691505b6020821081036123d457634e487b7160e01b5f52602260045260245ffd5b50919050565b6001600160a01b03929092168252602082015260400190565b634e487b7160e01b5f52603260045260245ffd5b76020b1b1b2b9b9a1b7b73a3937b61d1030b1b1b7bab73a1604d1b81525f83516124388160178501602088016121dc565b7001034b99036b4b9b9b4b733903937b6329607d1b60179184019182015283516124698160288401602088016121dc565b01602801949350505050565b5f60208284031215612485575f80fd5b81518015158114611d19575f80fd5b5f816124a2576124a261223b565b505f190190565b5f82516124ba8184602087016121dc565b919091019291505056fe03be538b6391ddcd7f2649585cc95b120c9e2a613f70714fbb55345057d809fa46756e6374696f6e206d7573742062652063616c6c6564207468726f75676820360894a13ba1a3210667c828492db98dca3e2076cc3735a920a3ca505d382bbc416464726573733a206c6f772d6c6576656c2064656c65676174652063616c6c206661696c6564a164736f6c6343000817000a","linkReferences":{}},"methodIdentifiers":{"COUNCIL_MEMBER()":"733a2d1f","DEFAULT_ADMIN_ROLE()":"a217fddf","MAX_FEE()":"bc063e1a","NATIVE()":"a0cf0aea","PRECISION_SCALE()":"d7050f07","VERSION()":"ffa1ad74","addressToMemberInfo(address)":"88cfe684","allo()":"d6d8428d","cloneNonce()":"33960459","collateralVaultTemplate()":"77122d56","communityFee()":"8961be6b","communityName()":"c6d572ae","councilSafe()":"6c53db9a","covenantIpfsHash()":"b64e39af","enabledStrategies(address)":"3a871fe1","feeReceiver()":"b3f00674","gardenToken()":"db61d65c","getBasisStakedAmount()":"0331383c","getRoleAdmin(bytes32)":"248a9ca3","getStakeAmountWithFees()":"28c309e9","grantRole(bytes32,address)":"2f2ff15d","hasRole(bytes32,address)":"91d14854","initialize(address)":"c4d66de8","isKickEnabled()":"1f787d28","isMember(address)":"a230c524","kickMember(address,address)":"6871eb4d","memberActivatedInStrategies(address,address)":"477a5cc0","memberPowerInStrategy(address,address)":"65e3864c","owner()":"8da5cb5b","pendingCouncilSafe()":"68decabb","profileId()":"08386eba","proxiableUUID()":"52d1902d","proxyOwner()":"025313a2","registerStakeAmount()":"78a0b8a9","registry()":"7b103999","registryFactory()":"f86c5f89","renounceOwnership()":"715018a6","renounceRole(bytes32,address)":"36568abe","revokeRole(bytes32,address)":"d547741f","stakeAndRegisterMember(string)":"9a1f46e2","strategiesByMember(address,uint256)":"2b38c69c","strategyTemplate()":"5c94e4d2","supportsInterface(bytes4)":"01ffc9a7","totalMembers()":"76e92559","transferOwnership(address)":"f2fde38b","unregisterMember()":"b99b4370","upgradeTo(address)":"3659cfe6","upgradeToAndCall(address,bytes)":"4f1ef286"},"storageLayout":{"storage":[{"astId":52241,"contract":"pkg/contracts/src/RegistryCommunity/facets/CommunityMemberFacet.sol:CommunityMemberFacet","label":"_initialized","offset":0,"slot":"0","type":"t_uint8"},{"astId":52244,"contract":"pkg/contracts/src/RegistryCommunity/facets/CommunityMemberFacet.sol:CommunityMemberFacet","label":"_initializing","offset":1,"slot":"0","type":"t_bool"},{"astId":52946,"contract":"pkg/contracts/src/RegistryCommunity/facets/CommunityMemberFacet.sol:CommunityMemberFacet","label":"__gap","offset":0,"slot":"1","type":"t_array(t_uint256)50_storage"},{"astId":52033,"contract":"pkg/contracts/src/RegistryCommunity/facets/CommunityMemberFacet.sol:CommunityMemberFacet","label":"_owner","offset":0,"slot":"51","type":"t_address"},{"astId":52153,"contract":"pkg/contracts/src/RegistryCommunity/facets/CommunityMemberFacet.sol:CommunityMemberFacet","label":"__gap","offset":0,"slot":"52","type":"t_array(t_uint256)49_storage"},{"astId":52418,"contract":"pkg/contracts/src/RegistryCommunity/facets/CommunityMemberFacet.sol:CommunityMemberFacet","label":"_status","offset":0,"slot":"101","type":"t_uint256"},{"astId":52487,"contract":"pkg/contracts/src/RegistryCommunity/facets/CommunityMemberFacet.sol:CommunityMemberFacet","label":"__gap","offset":0,"slot":"102","type":"t_array(t_uint256)49_storage"},{"astId":53220,"contract":"pkg/contracts/src/RegistryCommunity/facets/CommunityMemberFacet.sol:CommunityMemberFacet","label":"__gap","offset":0,"slot":"151","type":"t_array(t_uint256)50_storage"},{"astId":51640,"contract":"pkg/contracts/src/RegistryCommunity/facets/CommunityMemberFacet.sol:CommunityMemberFacet","label":"_roles","offset":0,"slot":"201","type":"t_mapping(t_bytes32,t_struct(RoleData)51635_storage)"},{"astId":51947,"contract":"pkg/contracts/src/RegistryCommunity/facets/CommunityMemberFacet.sol:CommunityMemberFacet","label":"__gap","offset":0,"slot":"202","type":"t_array(t_uint256)49_storage"},{"astId":97880,"contract":"pkg/contracts/src/RegistryCommunity/facets/CommunityMemberFacet.sol:CommunityMemberFacet","label":"registerStakeAmount","offset":0,"slot":"251","type":"t_uint256"},{"astId":97883,"contract":"pkg/contracts/src/RegistryCommunity/facets/CommunityMemberFacet.sol:CommunityMemberFacet","label":"communityFee","offset":0,"slot":"252","type":"t_uint256"},{"astId":97886,"contract":"pkg/contracts/src/RegistryCommunity/facets/CommunityMemberFacet.sol:CommunityMemberFacet","label":"cloneNonce","offset":0,"slot":"253","type":"t_uint256"},{"astId":97889,"contract":"pkg/contracts/src/RegistryCommunity/facets/CommunityMemberFacet.sol:CommunityMemberFacet","label":"profileId","offset":0,"slot":"254","type":"t_bytes32"},{"astId":97892,"contract":"pkg/contracts/src/RegistryCommunity/facets/CommunityMemberFacet.sol:CommunityMemberFacet","label":"isKickEnabled","offset":0,"slot":"255","type":"t_bool"},{"astId":97895,"contract":"pkg/contracts/src/RegistryCommunity/facets/CommunityMemberFacet.sol:CommunityMemberFacet","label":"feeReceiver","offset":1,"slot":"255","type":"t_address"},{"astId":97898,"contract":"pkg/contracts/src/RegistryCommunity/facets/CommunityMemberFacet.sol:CommunityMemberFacet","label":"registryFactory","offset":0,"slot":"256","type":"t_address"},{"astId":97901,"contract":"pkg/contracts/src/RegistryCommunity/facets/CommunityMemberFacet.sol:CommunityMemberFacet","label":"collateralVaultTemplate","offset":0,"slot":"257","type":"t_address"},{"astId":97904,"contract":"pkg/contracts/src/RegistryCommunity/facets/CommunityMemberFacet.sol:CommunityMemberFacet","label":"strategyTemplate","offset":0,"slot":"258","type":"t_address"},{"astId":97907,"contract":"pkg/contracts/src/RegistryCommunity/facets/CommunityMemberFacet.sol:CommunityMemberFacet","label":"pendingCouncilSafe","offset":0,"slot":"259","type":"t_address_payable"},{"astId":97911,"contract":"pkg/contracts/src/RegistryCommunity/facets/CommunityMemberFacet.sol:CommunityMemberFacet","label":"registry","offset":0,"slot":"260","type":"t_contract(IRegistry)2824"},{"astId":97915,"contract":"pkg/contracts/src/RegistryCommunity/facets/CommunityMemberFacet.sol:CommunityMemberFacet","label":"gardenToken","offset":0,"slot":"261","type":"t_contract(IERC20)56131"},{"astId":97919,"contract":"pkg/contracts/src/RegistryCommunity/facets/CommunityMemberFacet.sol:CommunityMemberFacet","label":"councilSafe","offset":0,"slot":"262","type":"t_contract(ISafe)105840"},{"astId":97923,"contract":"pkg/contracts/src/RegistryCommunity/facets/CommunityMemberFacet.sol:CommunityMemberFacet","label":"allo","offset":0,"slot":"263","type":"t_contract(FAllo)105510"},{"astId":97926,"contract":"pkg/contracts/src/RegistryCommunity/facets/CommunityMemberFacet.sol:CommunityMemberFacet","label":"communityName","offset":0,"slot":"264","type":"t_string_storage"},{"astId":97929,"contract":"pkg/contracts/src/RegistryCommunity/facets/CommunityMemberFacet.sol:CommunityMemberFacet","label":"covenantIpfsHash","offset":0,"slot":"265","type":"t_string_storage"},{"astId":97934,"contract":"pkg/contracts/src/RegistryCommunity/facets/CommunityMemberFacet.sol:CommunityMemberFacet","label":"enabledStrategies","offset":0,"slot":"266","type":"t_mapping(t_address,t_bool)"},{"astId":97941,"contract":"pkg/contracts/src/RegistryCommunity/facets/CommunityMemberFacet.sol:CommunityMemberFacet","label":"memberPowerInStrategy","offset":0,"slot":"267","type":"t_mapping(t_address,t_mapping(t_address,t_uint256))"},{"astId":97947,"contract":"pkg/contracts/src/RegistryCommunity/facets/CommunityMemberFacet.sol:CommunityMemberFacet","label":"addressToMemberInfo","offset":0,"slot":"268","type":"t_mapping(t_address,t_struct(Member)97825_storage)"},{"astId":97953,"contract":"pkg/contracts/src/RegistryCommunity/facets/CommunityMemberFacet.sol:CommunityMemberFacet","label":"strategiesByMember","offset":0,"slot":"269","type":"t_mapping(t_address,t_array(t_address)dyn_storage)"},{"astId":97960,"contract":"pkg/contracts/src/RegistryCommunity/facets/CommunityMemberFacet.sol:CommunityMemberFacet","label":"memberActivatedInStrategies","offset":0,"slot":"270","type":"t_mapping(t_address,t_mapping(t_address,t_bool))"},{"astId":97964,"contract":"pkg/contracts/src/RegistryCommunity/facets/CommunityMemberFacet.sol:CommunityMemberFacet","label":"initialMembers","offset":0,"slot":"271","type":"t_array(t_address)dyn_storage"},{"astId":97967,"contract":"pkg/contracts/src/RegistryCommunity/facets/CommunityMemberFacet.sol:CommunityMemberFacet","label":"totalMembers","offset":0,"slot":"272","type":"t_uint256"},{"astId":97972,"contract":"pkg/contracts/src/RegistryCommunity/facets/CommunityMemberFacet.sol:CommunityMemberFacet","label":"strategyFacetCuts","offset":0,"slot":"273","type":"t_array(t_struct(FacetCut)104342_storage)dyn_storage"},{"astId":97974,"contract":"pkg/contracts/src/RegistryCommunity/facets/CommunityMemberFacet.sol:CommunityMemberFacet","label":"strategyInit","offset":0,"slot":"274","type":"t_address"},{"astId":97976,"contract":"pkg/contracts/src/RegistryCommunity/facets/CommunityMemberFacet.sol:CommunityMemberFacet","label":"strategyInitCalldata","offset":0,"slot":"275","type":"t_bytes_storage"},{"astId":97980,"contract":"pkg/contracts/src/RegistryCommunity/facets/CommunityMemberFacet.sol:CommunityMemberFacet","label":"__gap","offset":0,"slot":"276","type":"t_array(t_uint256)46_storage"}],"types":{"t_address":{"encoding":"inplace","label":"address","numberOfBytes":"20"},"t_address_payable":{"encoding":"inplace","label":"address payable","numberOfBytes":"20"},"t_array(t_address)dyn_storage":{"encoding":"dynamic_array","label":"address[]","numberOfBytes":"32","base":"t_address"},"t_array(t_bytes4)dyn_storage":{"encoding":"dynamic_array","label":"bytes4[]","numberOfBytes":"32","base":"t_bytes4"},"t_array(t_struct(FacetCut)104342_storage)dyn_storage":{"encoding":"dynamic_array","label":"struct IDiamond.FacetCut[]","numberOfBytes":"32","base":"t_struct(FacetCut)104342_storage"},"t_array(t_uint256)46_storage":{"encoding":"inplace","label":"uint256[46]","numberOfBytes":"1472","base":"t_uint256"},"t_array(t_uint256)49_storage":{"encoding":"inplace","label":"uint256[49]","numberOfBytes":"1568","base":"t_uint256"},"t_array(t_uint256)50_storage":{"encoding":"inplace","label":"uint256[50]","numberOfBytes":"1600","base":"t_uint256"},"t_bool":{"encoding":"inplace","label":"bool","numberOfBytes":"1"},"t_bytes32":{"encoding":"inplace","label":"bytes32","numberOfBytes":"32"},"t_bytes4":{"encoding":"inplace","label":"bytes4","numberOfBytes":"4"},"t_bytes_storage":{"encoding":"bytes","label":"bytes","numberOfBytes":"32"},"t_contract(FAllo)105510":{"encoding":"inplace","label":"contract FAllo","numberOfBytes":"20"},"t_contract(IERC20)56131":{"encoding":"inplace","label":"contract IERC20","numberOfBytes":"20"},"t_contract(IRegistry)2824":{"encoding":"inplace","label":"contract IRegistry","numberOfBytes":"20"},"t_contract(ISafe)105840":{"encoding":"inplace","label":"contract ISafe","numberOfBytes":"20"},"t_enum(FacetCutAction)104333":{"encoding":"inplace","label":"enum IDiamond.FacetCutAction","numberOfBytes":"1"},"t_mapping(t_address,t_array(t_address)dyn_storage)":{"encoding":"mapping","key":"t_address","label":"mapping(address => address[])","numberOfBytes":"32","value":"t_array(t_address)dyn_storage"},"t_mapping(t_address,t_bool)":{"encoding":"mapping","key":"t_address","label":"mapping(address => bool)","numberOfBytes":"32","value":"t_bool"},"t_mapping(t_address,t_mapping(t_address,t_bool))":{"encoding":"mapping","key":"t_address","label":"mapping(address => mapping(address => bool))","numberOfBytes":"32","value":"t_mapping(t_address,t_bool)"},"t_mapping(t_address,t_mapping(t_address,t_uint256))":{"encoding":"mapping","key":"t_address","label":"mapping(address => mapping(address => uint256))","numberOfBytes":"32","value":"t_mapping(t_address,t_uint256)"},"t_mapping(t_address,t_struct(Member)97825_storage)":{"encoding":"mapping","key":"t_address","label":"mapping(address => struct Member)","numberOfBytes":"32","value":"t_struct(Member)97825_storage"},"t_mapping(t_address,t_uint256)":{"encoding":"mapping","key":"t_address","label":"mapping(address => uint256)","numberOfBytes":"32","value":"t_uint256"},"t_mapping(t_bytes32,t_struct(RoleData)51635_storage)":{"encoding":"mapping","key":"t_bytes32","label":"mapping(bytes32 => struct AccessControlUpgradeable.RoleData)","numberOfBytes":"32","value":"t_struct(RoleData)51635_storage"},"t_string_storage":{"encoding":"bytes","label":"string","numberOfBytes":"32"},"t_struct(FacetCut)104342_storage":{"encoding":"inplace","label":"struct IDiamond.FacetCut","numberOfBytes":"64","members":[{"astId":104335,"contract":"pkg/contracts/src/RegistryCommunity/facets/CommunityMemberFacet.sol:CommunityMemberFacet","label":"facetAddress","offset":0,"slot":"0","type":"t_address"},{"astId":104338,"contract":"pkg/contracts/src/RegistryCommunity/facets/CommunityMemberFacet.sol:CommunityMemberFacet","label":"action","offset":20,"slot":"0","type":"t_enum(FacetCutAction)104333"},{"astId":104341,"contract":"pkg/contracts/src/RegistryCommunity/facets/CommunityMemberFacet.sol:CommunityMemberFacet","label":"functionSelectors","offset":0,"slot":"1","type":"t_array(t_bytes4)dyn_storage"}]},"t_struct(Member)97825_storage":{"encoding":"inplace","label":"struct Member","numberOfBytes":"96","members":[{"astId":97820,"contract":"pkg/contracts/src/RegistryCommunity/facets/CommunityMemberFacet.sol:CommunityMemberFacet","label":"member","offset":0,"slot":"0","type":"t_address"},{"astId":97822,"contract":"pkg/contracts/src/RegistryCommunity/facets/CommunityMemberFacet.sol:CommunityMemberFacet","label":"stakedAmount","offset":0,"slot":"1","type":"t_uint256"},{"astId":97824,"contract":"pkg/contracts/src/RegistryCommunity/facets/CommunityMemberFacet.sol:CommunityMemberFacet","label":"isRegistered","offset":0,"slot":"2","type":"t_bool"}]},"t_struct(RoleData)51635_storage":{"encoding":"inplace","label":"struct AccessControlUpgradeable.RoleData","numberOfBytes":"64","members":[{"astId":51632,"contract":"pkg/contracts/src/RegistryCommunity/facets/CommunityMemberFacet.sol:CommunityMemberFacet","label":"members","offset":0,"slot":"0","type":"t_mapping(t_address,t_bool)"},{"astId":51634,"contract":"pkg/contracts/src/RegistryCommunity/facets/CommunityMemberFacet.sol:CommunityMemberFacet","label":"adminRole","offset":0,"slot":"1","type":"t_bytes32"}]},"t_uint256":{"encoding":"inplace","label":"uint256","numberOfBytes":"32"},"t_uint8":{"encoding":"inplace","label":"uint8","numberOfBytes":"1"}}},"id":168}