{"abi":[{"type":"constructor","inputs":[{"name":"name_","type":"string","internalType":"string"},{"name":"symbol_","type":"string","internalType":"string"},{"name":"decimals_","type":"uint8","internalType":"uint8"}],"stateMutability":"nonpayable"},{"type":"function","name":"DOMAIN_SEPARATOR","inputs":[],"outputs":[{"name":"result","type":"bytes32","internalType":"bytes32"}],"stateMutability":"view"},{"type":"function","name":"allowance","inputs":[{"name":"owner","type":"address","internalType":"address"},{"name":"spender","type":"address","internalType":"address"}],"outputs":[{"name":"result","type":"uint256","internalType":"uint256"}],"stateMutability":"view"},{"type":"function","name":"approve","inputs":[{"name":"spender","type":"address","internalType":"address"},{"name":"amount","type":"uint256","internalType":"uint256"}],"outputs":[{"name":"","type":"bool","internalType":"bool"}],"stateMutability":"nonpayable"},{"type":"function","name":"balanceOf","inputs":[{"name":"owner","type":"address","internalType":"address"}],"outputs":[{"name":"result","type":"uint256","internalType":"uint256"}],"stateMutability":"view"},{"type":"function","name":"burn","inputs":[{"name":"from","type":"address","internalType":"address"},{"name":"value","type":"uint256","internalType":"uint256"}],"outputs":[],"stateMutability":"nonpayable"},{"type":"function","name":"decimals","inputs":[],"outputs":[{"name":"","type":"uint8","internalType":"uint8"}],"stateMutability":"view"},{"type":"function","name":"decreaseAllowance","inputs":[{"name":"spender","type":"address","internalType":"address"},{"name":"difference","type":"uint256","internalType":"uint256"}],"outputs":[{"name":"","type":"bool","internalType":"bool"}],"stateMutability":"nonpayable"},{"type":"function","name":"directSpendAllowance","inputs":[{"name":"owner","type":"address","internalType":"address"},{"name":"spender","type":"address","internalType":"address"},{"name":"amount","type":"uint256","internalType":"uint256"}],"outputs":[],"stateMutability":"nonpayable"},{"type":"function","name":"directTransfer","inputs":[{"name":"from","type":"address","internalType":"address"},{"name":"to","type":"address","internalType":"address"},{"name":"amount","type":"uint256","internalType":"uint256"}],"outputs":[],"stateMutability":"nonpayable"},{"type":"function","name":"increaseAllowance","inputs":[{"name":"spender","type":"address","internalType":"address"},{"name":"difference","type":"uint256","internalType":"uint256"}],"outputs":[{"name":"","type":"bool","internalType":"bool"}],"stateMutability":"nonpayable"},{"type":"function","name":"mint","inputs":[{"name":"to","type":"address","internalType":"address"},{"name":"value","type":"uint256","internalType":"uint256"}],"outputs":[],"stateMutability":"nonpayable"},{"type":"function","name":"name","inputs":[],"outputs":[{"name":"","type":"string","internalType":"string"}],"stateMutability":"view"},{"type":"function","name":"nonces","inputs":[{"name":"owner","type":"address","internalType":"address"}],"outputs":[{"name":"result","type":"uint256","internalType":"uint256"}],"stateMutability":"view"},{"type":"function","name":"permit","inputs":[{"name":"owner","type":"address","internalType":"address"},{"name":"spender","type":"address","internalType":"address"},{"name":"value","type":"uint256","internalType":"uint256"},{"name":"deadline","type":"uint256","internalType":"uint256"},{"name":"v","type":"uint8","internalType":"uint8"},{"name":"r","type":"bytes32","internalType":"bytes32"},{"name":"s","type":"bytes32","internalType":"bytes32"}],"outputs":[],"stateMutability":"nonpayable"},{"type":"function","name":"symbol","inputs":[],"outputs":[{"name":"","type":"string","internalType":"string"}],"stateMutability":"view"},{"type":"function","name":"totalSupply","inputs":[],"outputs":[{"name":"result","type":"uint256","internalType":"uint256"}],"stateMutability":"view"},{"type":"function","name":"transfer","inputs":[{"name":"to","type":"address","internalType":"address"},{"name":"amount","type":"uint256","internalType":"uint256"}],"outputs":[{"name":"","type":"bool","internalType":"bool"}],"stateMutability":"nonpayable"},{"type":"function","name":"transferFrom","inputs":[{"name":"from","type":"address","internalType":"address"},{"name":"to","type":"address","internalType":"address"},{"name":"amount","type":"uint256","internalType":"uint256"}],"outputs":[{"name":"","type":"bool","internalType":"bool"}],"stateMutability":"nonpayable"},{"type":"event","name":"Approval","inputs":[{"name":"owner","type":"address","indexed":true,"internalType":"address"},{"name":"spender","type":"address","indexed":true,"internalType":"address"},{"name":"amount","type":"uint256","indexed":false,"internalType":"uint256"}],"anonymous":false},{"type":"event","name":"Transfer","inputs":[{"name":"from","type":"address","indexed":true,"internalType":"address"},{"name":"to","type":"address","indexed":true,"internalType":"address"},{"name":"amount","type":"uint256","indexed":false,"internalType":"uint256"}],"anonymous":false},{"type":"error","name":"AllowanceOverflow","inputs":[]},{"type":"error","name":"AllowanceUnderflow","inputs":[]},{"type":"error","name":"InsufficientAllowance","inputs":[]},{"type":"error","name":"InsufficientBalance","inputs":[]},{"type":"error","name":"InvalidPermit","inputs":[]},{"type":"error","name":"PermitExpired","inputs":[]},{"type":"error","name":"TotalSupplyOverflow","inputs":[]}],"bytecode":{"object":"0x6080604052346200033a5762000f9d803803806200001d816200033f565b9283398101906060818303126200033a5780516001600160401b03908181116200033a57836200004f91840162000365565b90602093848401518281116200033a576040916200006f91860162000365565b9301519260ff84168094036200033a57825190828211620003245760008054926001958685811c9516801562000319575b8986101462000305578190601f95868111620002b2575b5089908683116001146200024e57849262000242575b5050600019600383901b1c191690861b1781555b81519384116200022e5784548581811c9116801562000223575b888210146200020f57838111620001c7575b5086928411600114620001615783949596509262000155575b5050600019600383901b1c191690821b1790555b60ff196002541617600255604051610bc59081620003d88239f35b01519050388062000126565b9190601f1984169685845280842093905b888210620001af575050838596971062000195575b505050811b0190556200013a565b015160001960f88460031b161c1916905538808062000187565b80878596829496860151815501950193019062000172565b8582528782208480870160051c8201928a881062000205575b0160051c019086905b828110620001f95750506200010d565b838155018690620001e9565b92508192620001e0565b634e487b7160e01b82526022600452602482fd5b90607f1690620000fb565b634e487b7160e01b81526041600452602490fd5b015190503880620000cd565b8480528a85208994509190601f198416865b8d8282106200029b575050841162000281575b505050811b018155620000e1565b015160001960f88460031b161c1916905538808062000273565b8385015186558c9790950194938401930162000260565b9091508380528984208680850160051c8201928c8610620002fb575b918a91869594930160051c01915b828110620002ec575050620000b7565b8681558594508a9101620002dc565b92508192620002ce565b634e487b7160e01b83526022600452602483fd5b94607f1694620000a0565b634e487b7160e01b600052604160045260246000fd5b600080fd5b6040519190601f01601f191682016001600160401b038111838210176200032457604052565b919080601f840112156200033a5782516001600160401b03811162000324576020906200039b601f8201601f191683016200033f565b928184528282870101116200033a5760005b818110620003c357508260009394955001015290565b8581018301518482018401528201620003ad56fe60806040908082526004908136101561001757600080fd5b600092833560e01c91826306fdde031461089a57508163095ea7b31461084257816318160ddd1461081b57816323b872dd14610761578163313ce5671461073f5781633644e5151461071b57816339509351146106a457816340c10f191461062357816370a08231146105ef5781637ecebe00146105bb57816395d89b41146104b85781639dc29fac14610438578163a457c2d7146103c0578163a9059cbb1461033c578163d30ed3b3146102de578163d505accf146101af578163dd62ed3e14610171575063f83d1791146100ec57600080fd5b3461016d576100fa366109cd565b919290925a60a01b17925a60a01b17906387a211a28460601b17600c526020600c20908154908185116101625750839003905583526020600c20818154019055602052600c5160601c9060018060a01b0316600080516020610b50833981519152602080a380f35b63f4d678b88752601cfd5b5080fd5b83903461016d578060031936011261016d5760209161018e61099c565b906101976109b7565b8452637f5e9f20600c52526034600c20549051908152f35b8391503461016d5760e036600319011261016d576101cb61099c565b906101d46109b7565b90604435606435906084359260ff841684036102da576101f2610a02565b938151968442116102ce5760c09060018060a01b038091169716976338377508600c52878a5260209687600c20968754976001890190557f6e71edae12b1b97f4d1f60370fef10105fa2faae0126114a169c64845d6126c9835289898401528a868401526060830197878952608084015260a08301526119018b5287522082526042601e20885260ff16845260a435815260c435606052838060808960015afa50843d51036102c2576303faf4f960a51b861790526034602c2055600080516020610b708339815191529190a380f35b8763ddafbaef8852601cfd5b89631a15a3cc8a52601cfd5b8680fd5b50503461016d576102ee366109cd565b91905a905a60a01b17602052637f5e9f20600c5260a01b1783526034600c2091825490600019820361031e578480f35b8183116103315750039055388080808480f35b6313be252b8552601cfd5b905082346103bd57816003193601126103bd5761035761099c565b90602435915a60a01b17906387a211a2600c5233815260209485600c20908154908186116103b2575084900390555282600c208181540190558252600c5160601c33600080516020610b508339815191528480a35160018152f35b63f4d678b88452601cfd5b80fd5b905082346103bd57816003193601126103bd576103db61099c565b602435905a60a01b17602052637f5e9f20600c523382526034600c2090815481811061042c5760209550038091558152602c5160601c90600080516020610b70833981519152843392a35160018152f35b85638301ab388552601cfd5b8391503461016d573660031901126103bd5761045261099c565b602435905a60a01b17906387a211a2600c528183526020600c208054948583116104ad57508184950390556805345cdf77eb68f44c818154039055825260018060a01b0316600080516020610b50833981519152602083a380f35b63f4d678b88552601cfd5b8391503461016d578160031936011261016d5780519082600180549081811c908083169283156105b1575b602093848410811461059e57838852908115610582575060011461054a575b505050829003601f01601f19168201926001600160401b038411838510176105375750829182610533925282610953565b0390f35b634e487b7160e01b815260418552602490fd5b809293508652828620918387935b83851061056e5750505050830101858080610502565b805488860183015293019284908201610558565b60ff1916878501525050151560051b8401019050858080610502565b634e487b7160e01b895260228a52602489fd5b91607f16916104e3565b83903461016d57602036600319011261016d576020916105d961099c565b906338377508600c525281600c20549051908152f35b83903461016d57602036600319011261016d5760209161060d61099c565b906387a211a2600c525281600c20549051908152f35b9050346106a05736600319011261016d5761063c61099c565b90602435915a60a01b17906805345cdf77eb68f44c8054918483019283106106955750556387a211a2600c5282526020600c20818154019055602052600c5160601c81600080516020610b50833981519152602080a380f35b63e5cfe9578652601cfd5b8280fd5b905082346103bd57816003193601126103bd576106bf61099c565b5a60a01b17602052637f5e9f20600c523381526034600c20928354906024358201918210610710575080602094558152602c5160601c90600080516020610b70833981519152843392a35160018152f35b63f90670668352601cfd5b83903461016d578160031936011261016d57602090610738610a02565b9051908152f35b83903461016d578160031936011261016d5760209060ff600254169051908152f35b905082346103bd57610772366109cd565b9092915a60a01b17925a60a01b178360601b92602096338852600c94637f5e9f208117865260348620805460001981036107f8575b50506387a211a2178552878520908154908186116103b2575084900390555284822080548201905584525160601c906001600160a01b0316600080516020610b508339815191528480a35160018152f35b80871161080f5786900390556387a211a28a6107a7565b836313be252b8652601cfd5b83903461016d578160031936011261016d576020906805345cdf77eb68f44c549051908152f35b83903461016d578060031936011261016d5760209161085f61099c565b602435908452637f5e9f20600c52338252806034600c20558152602c5160601c90600080516020610b70833981519152843392a35160018152f35b90849250346106a057826003193601126106a057828354600181811c90808316928315610949575b602093848410811461059e57838852908115610582575060011461091157505050829003601f01601f19168201926001600160401b038411838510176105375750829182610533925282610953565b919250858052828620918387935b8385106109355750505050830101858080610502565b80548886018301529301928490820161091f565b91607f16916108c2565b6020808252825181830181905290939260005b82811061098857505060409293506000838284010152601f8019910116010190565b818101860151848201604001528501610966565b600435906001600160a01b03821682036109b257565b600080fd5b602435906001600160a01b03821682036109b257565b60609060031901126109b2576001600160a01b039060043582811681036109b2579160243590811681036109b2579060443590565b60405160009081549160019280841c848216948515610b45575b6020928383108714610b315782865283860196908115610b175750600114610adc575b505050819003601f01601f19168101916001600160401b03831182841017610ac65760a09260405281518120907f8b73c3c69bb8fe3d512ecc4cf759cc79239f7b179b0ffacaa9a75d522b39400f8352527fc89efdaa54c0f20c7adf612882df0950f5a951637e0307cdcb4c672f298b8bc660408201524660608201523060808201522090565b634e487b7160e01b600052604160045260246000fd5b919250600080528260002091836000935b838510610b035750505050820101388080610a3f565b805487860183015293019284908201610aed565b60ff191687525050151560051b8301019050388080610a3f565b634e487b7160e01b85526022600452602485fd5b90607f1690610a1c56feddf252ad1be2c89b69c2b068fc378daa952ba7f163c4a11628f55a4df523b3ef8c5be1e5ebec7d5bd14f71427d1e84f3dd0314c0f7b2291e5b200ac8c7c3b925a264697066735822122012fd584b2a1889095179bc971ea37e802f1865c76ace8e2c4fde9028999849d464736f6c63430008130033","linkReferences":{}},"methodIdentifiers":{"DOMAIN_SEPARATOR()":"3644e515","allowance(address,address)":"dd62ed3e","approve(address,uint256)":"095ea7b3","balanceOf(address)":"70a08231","burn(address,uint256)":"9dc29fac","decimals()":"313ce567","decreaseAllowance(address,uint256)":"a457c2d7","directSpendAllowance(address,address,uint256)":"d30ed3b3","directTransfer(address,address,uint256)":"f83d1791","increaseAllowance(address,uint256)":"39509351","mint(address,uint256)":"40c10f19","name()":"06fdde03","nonces(address)":"7ecebe00","permit(address,address,uint256,uint256,uint8,bytes32,bytes32)":"d505accf","symbol()":"95d89b41","totalSupply()":"18160ddd","transfer(address,uint256)":"a9059cbb","transferFrom(address,address,uint256)":"23b872dd"},"storageLayout":{"storage":[{"astId":64456,"contract":"pkg/contracts/script/GV2ERC20.sol:GV2ERC20","label":"_name","offset":0,"slot":"0","type":"t_string_storage"},{"astId":64458,"contract":"pkg/contracts/script/GV2ERC20.sol:GV2ERC20","label":"_symbol","offset":0,"slot":"1","type":"t_string_storage"},{"astId":64460,"contract":"pkg/contracts/script/GV2ERC20.sol:GV2ERC20","label":"_decimals","offset":0,"slot":"2","type":"t_uint8"}],"types":{"t_string_storage":{"encoding":"bytes","label":"string","numberOfBytes":"32"},"t_uint8":{"encoding":"inplace","label":"uint8","numberOfBytes":"1"}}},"id":96}