{"abi":[{"type":"function","name":"collateralVaultTemplate","inputs":[],"outputs":[{"name":"","type":"address","internalType":"address"}],"stateMutability":"view"},{"type":"function","name":"createRegistry","inputs":[{"name":"params","type":"tuple","internalType":"struct RegistryCommunityV0_0.InitializeParams","components":[{"name":"_allo","type":"address","internalType":"address"},{"name":"_gardenToken","type":"address","internalType":"contract IERC20"},{"name":"_registerStakeAmount","type":"uint256","internalType":"uint256"},{"name":"_communityFee","type":"uint256","internalType":"uint256"},{"name":"_nonce","type":"uint256","internalType":"uint256"},{"name":"_registryFactory","type":"address","internalType":"address"},{"name":"_feeReceiver","type":"address","internalType":"address"},{"name":"_metadata","type":"tuple","internalType":"struct Metadata","components":[{"name":"protocol","type":"uint256","internalType":"uint256"},{"name":"pointer","type":"string","internalType":"string"}]},{"name":"_councilSafe","type":"address","internalType":"address payable"},{"name":"_communityName","type":"string","internalType":"string"},{"name":"_isKickEnabled","type":"bool","internalType":"bool"},{"name":"covenantIpfsHash","type":"string","internalType":"string"}]}],"outputs":[{"name":"_createdRegistryAddress","type":"address","internalType":"address"}],"stateMutability":"nonpayable"},{"type":"function","name":"gardensFeeReceiver","inputs":[],"outputs":[{"name":"","type":"address","internalType":"address"}],"stateMutability":"view"},{"type":"function","name":"getCommunityValidity","inputs":[{"name":"_community","type":"address","internalType":"address"}],"outputs":[{"name":"","type":"bool","internalType":"bool"}],"stateMutability":"view"},{"type":"function","name":"getGardensFeeReceiver","inputs":[],"outputs":[{"name":"","type":"address","internalType":"address"}],"stateMutability":"view"},{"type":"function","name":"getProtocolFee","inputs":[{"name":"_community","type":"address","internalType":"address"}],"outputs":[{"name":"","type":"uint256","internalType":"uint256"}],"stateMutability":"view"},{"type":"function","name":"initialize","inputs":[{"name":"_gardensFeeReceiver","type":"address","internalType":"address"},{"name":"_registryCommunityTemplate","type":"address","internalType":"address"},{"name":"_strategyTemplate","type":"address","internalType":"address"},{"name":"_collateralVaultTemplate","type":"address","internalType":"address"}],"outputs":[],"stateMutability":"nonpayable"},{"type":"function","name":"nonce","inputs":[],"outputs":[{"name":"","type":"uint256","internalType":"uint256"}],"stateMutability":"view"},{"type":"function","name":"owner","inputs":[],"outputs":[{"name":"","type":"address","internalType":"address"}],"stateMutability":"view"},{"type":"function","name":"proxiableUUID","inputs":[],"outputs":[{"name":"","type":"bytes32","internalType":"bytes32"}],"stateMutability":"view"},{"type":"function","name":"registryCommunityTemplate","inputs":[],"outputs":[{"name":"","type":"address","internalType":"address"}],"stateMutability":"view"},{"type":"function","name":"renounceOwnership","inputs":[],"outputs":[],"stateMutability":"nonpayable"},{"type":"function","name":"setCommunityValidity","inputs":[{"name":"_community","type":"address","internalType":"address"},{"name":"_isValid","type":"bool","internalType":"bool"}],"outputs":[],"stateMutability":"nonpayable"},{"type":"function","name":"setProtocolFee","inputs":[{"name":"_community","type":"address","internalType":"address"},{"name":"_newProtocolFee","type":"uint256","internalType":"uint256"}],"outputs":[],"stateMutability":"nonpayable"},{"type":"function","name":"setReceiverAddress","inputs":[{"name":"_newFeeReceiver","type":"address","internalType":"address"}],"outputs":[],"stateMutability":"nonpayable"},{"type":"function","name":"strategyTemplate","inputs":[],"outputs":[{"name":"","type":"address","internalType":"address"}],"stateMutability":"view"},{"type":"function","name":"transferOwnership","inputs":[{"name":"newOwner","type":"address","internalType":"address"}],"outputs":[],"stateMutability":"nonpayable"},{"type":"function","name":"upgradeTo","inputs":[{"name":"newImplementation","type":"address","internalType":"address"}],"outputs":[],"stateMutability":"nonpayable"},{"type":"function","name":"upgradeToAndCall","inputs":[{"name":"newImplementation","type":"address","internalType":"address"},{"name":"data","type":"bytes","internalType":"bytes"}],"outputs":[],"stateMutability":"payable"},{"type":"event","name":"AdminChanged","inputs":[{"name":"previousAdmin","type":"address","indexed":false,"internalType":"address"},{"name":"newAdmin","type":"address","indexed":false,"internalType":"address"}],"anonymous":false},{"type":"event","name":"BeaconUpgraded","inputs":[{"name":"beacon","type":"address","indexed":true,"internalType":"address"}],"anonymous":false},{"type":"event","name":"CommunityCreated","inputs":[{"name":"_registryCommunity","type":"address","indexed":false,"internalType":"address"}],"anonymous":false},{"type":"event","name":"CommunityValiditySet","inputs":[{"name":"_community","type":"address","indexed":false,"internalType":"address"},{"name":"_isValid","type":"bool","indexed":false,"internalType":"bool"}],"anonymous":false},{"type":"event","name":"FeeReceiverSet","inputs":[{"name":"_newFeeReceiver","type":"address","indexed":false,"internalType":"address"}],"anonymous":false},{"type":"event","name":"Initialized","inputs":[{"name":"version","type":"uint8","indexed":false,"internalType":"uint8"}],"anonymous":false},{"type":"event","name":"OwnershipTransferred","inputs":[{"name":"previousOwner","type":"address","indexed":true,"internalType":"address"},{"name":"newOwner","type":"address","indexed":true,"internalType":"address"}],"anonymous":false},{"type":"event","name":"ProtocolFeeSet","inputs":[{"name":"_community","type":"address","indexed":false,"internalType":"address"},{"name":"_newProtocolFee","type":"uint256","indexed":false,"internalType":"uint256"}],"anonymous":false},{"type":"event","name":"Upgraded","inputs":[{"name":"implementation","type":"address","indexed":true,"internalType":"address"}],"anonymous":false},{"type":"error","name":"AddressCannotBeZero","inputs":[]},{"type":"error","name":"CommunityInvalid","inputs":[{"name":"_community","type":"address","internalType":"address"}]}],"bytecode":{"object":"0x60a080604052346100315730608052611a5d90816100378239608051818181610aad01528181610bb00152610e160152f35b600080fdfe60808060405260043610156200001457600080fd5b60003560e01c90816302c1d0b114620010be575080630a992e0c146200104d5780633659cfe61462000ded5780634f1ef2861462000b5b57806352d1902d1462000a985780635a2c8ace1462000a0a5780635c94e4d214620009df578063715018a6146200098f57806377122d5614620009645780638279c7db14620008f85780638da5cb5b14620008cd578063987435be146200080f578063affed0e014620008ad578063b5b3ca2c146200083a578063b8bed901146200080f578063beb331a314620003da578063f2fde38b1462000342578063f5016b5e14620002fc5763f8c8765e146200010457600080fd5b34620002f7576080366003190112620002f75762000121620010e4565b602435906001600160a01b038083169190828403620002f75760443590808216809203620002f7576064359381851691828603620002f7576000549460ff8660081c161597888099620002e9575b8015620002d0575b156200027457600080516020620019a883398151915297620001e6620001ec926020998c600160ff1983161760005562000261575b50620001cb60ff60005460081c16620001c58162001473565b62001473565b620001d63362001222565b6000606555620001e685620014d4565b620014d4565b169260018060a01b03199184836067541617606755826068541617606855816069541617606955606a541617606a55604051908152a16200022957005b61ff0019600054166000557f7f26b83ff96e1f2b6a682f133852f6798a09c465da95921460cefb3847402498602060405160018152a1005b61ffff19166101011760005538620001ac565b60405162461bcd60e51b815260206004820152602e60248201527f496e697469616c697a61626c653a20636f6e747261637420697320616c72656160448201526d191e481a5b9a5d1a585b1a5e995960921b6064820152608490fd5b50303b158015620001775750600160ff88161462000177565b50600160ff8816106200016f565b600080fd5b34620002f7576020366003190112620002f7576001600160a01b0362000321620010e4565b166000526066602052602060ff600160406000200154166040519015158152f35b34620002f7576020366003190112620002f7576200035f620010e4565b62000369620011c9565b6001600160a01b038116156200038657620003849062001222565b005b60405162461bcd60e51b815260206004820152602660248201527f4f776e61626c653a206e6577206f776e657220697320746865207a65726f206160448201526564647265737360d01b6064820152608490fd5b34620002f757600319602036820112620002f7576001600160401b0360043511620002f7576101808160043536030112620002f7576040519061018082016001600160401b03811183821017620007e3576040526200043e600435600401620010fb565b8252600435602401356001600160a01b0381168103620002f75760208301526004356044810135604084015260648101356060840152608481013560808401526200048c9060a401620010fb565b60a0830152620004a160c460043501620010fb565b60c083015260043560e40135906001600160401b038211620002f757604090826004350136030112620002f75760408051919082018083116001600160401b0390911117620007e357604082810190526004803582019081013583526001600160401b0360249091013511620002f7576200052c9036906004803590910160248101350101620011a8565b602082015260e082015260043561010401356001600160a01b0381168103620002f75761010082015260043561012401356001600160401b038111620002f7576200057f906004369181350101620011a8565b61012082015260043561014401358015159003620002f7576004356101448101356101408301526001600160401b036101649091013511620002f757620005d236600480356101648101350101620011a8565b6101608201526065546000198114620007f95760018101606555608082019081523060a08301908152606854606954606a54604080516243bd4560e51b60208083019190915260606024830181905289516001600160a01b039081166084850152828b0151811660a4850152848b015160c4850152908a015160e484015297516101048301529551871661012482015260c0880151871661014482015260e0880151610180610164830152805161020483015290950151610224860191909152928516959394620007359486949382169391909216916200071b91620006be9061024487019062001431565b6101008201516001600160a01b03166101848701526101208201518682036083199081016101a48901529161016091620006f9919062001431565b9261014081015115156101c4890152015190868303016101e487015262001431565b916044840152606483015203601f1981018352826200112c565b6040519161041080840192906001600160401b03841185851017620007e35784936200077493604092620014f887398152816020820152019062001431565b03906000f08015620007d75760209060018060a01b031680600052606682526001604060002001600160ff198254161790557fb4108a188495a1a681cdc0750af164011025a1773b41e93ff3e628adc037dc2982604051838152a1604051908152f35b6040513d6000823e3d90fd5b634e487b7160e01b600052604160045260246000fd5b634e487b7160e01b600052601160045260246000fd5b34620002f7576000366003190112620002f7576067546040516001600160a01b039091168152602090f35b34620002f7576040366003190112620002f7577fa1ee82e4f177a8017f33ddddac05b7ceab1de9d46f7195e15e8aa2e8b88f3b1c60406200087a620010e4565b6024359062000888620011c9565b60018060a01b03169081600052606660205280836000205582519182526020820152a1005b34620002f7576000366003190112620002f7576020606554604051908152f35b34620002f7576000366003190112620002f7576033546040516001600160a01b039091168152602090f35b34620002f7576020366003190112620002f757600080516020620019a8833981519152602062000927620010e4565b62000931620011c9565b6200093c81620014d4565b606780546001600160a01b0319166001600160a01b03929092169182179055604051908152a1005b34620002f7576000366003190112620002f757606a546040516001600160a01b039091168152602090f35b34620002f7576000366003190112620002f757620009ac620011c9565b603380546001600160a01b031981169091556000906001600160a01b0316600080516020620019688339815191528280a3005b34620002f7576000366003190112620002f7576069546040516001600160a01b039091168152602090f35b34620002f7576040366003190112620002f75762000a27620010e4565b60243590811515809203620002f7577fecdcd3502799a6c41864ea2682236184e876f63e10f8d56c7768a3d501e89f629160409162000a65620011c9565b60018060a01b0316908160005260666020526001836000200160ff1981541660ff831617905582519182526020820152a1005b34620002f7576000366003190112620002f7577f00000000000000000000000000000000000000000000000000000000000000006001600160a01b0316300362000af5576020604051600080516020620019488339815191528152f35b60405162461bcd60e51b815260206004820152603860248201527f555550535570677261646561626c653a206d757374206e6f742062652063616c6044820152771b1959081d1a1c9bdd59da0819195b1959d85d1958d85b1b60421b6064820152608490fd5b6040366003190112620002f75762000b72620010e4565b6024356001600160401b038111620002f75736602382011215620002f75762000ba69036906024816004013591016200116c565b6001600160a01b037f00000000000000000000000000000000000000000000000000000000000000008116919062000be1308414156200125a565b62000c0160008051602062001948833981519152938285541614620012ab565b62000c0b620011c9565b600080516020620019088339815191525460ff161562000c33575050506200038490620012fc565b8316604051926352d1902d60e01b84526020938481600481865afa6000918162000db8575b5062000ca95760405162461bcd60e51b815260048101869052602e602482015260008051602062001a0883398151915260448201526d6f6e206973206e6f74205555505360901b6064820152608490fd5b9392930362000d725762000cbd84620012fc565b60008051602062001988833981519152600080a281511580159062000d69575b62000ce457005b62000384926000806040519462000cfb8662001110565b60278652600080516020620019e883398151915285870152660819985a5b195960ca1b60408701528481519101845af4903d1562000d5f573d62000d3f8162001150565b9062000d4f60405192836200112c565b8152600081943d92013e6200138e565b606092506200138e565b50600162000cdd565b60405162461bcd60e51b81526004810183905260296024820152600080516020620019c88339815191526044820152681a58589b195555525160ba1b6064820152608490fd5b9091508581813d831162000de5575b62000dd381836200112c565b81010312620002f75751908762000c58565b503d62000dc7565b34620002f757602080600319360112620002f75762000e0b620010e4565b6001600160a01b03917f0000000000000000000000000000000000000000000000000000000000000000831662000e45308214156200125a565b62000e6560008051602062001948833981519152918583541614620012ab565b62000e6f620011c9565b604051828101949091906001600160401b03861183871017620007e357856040526000835260ff60008051602062001908833981519152541660001462000ec05750505050620003849150620012fc565b8492939416906040516352d1902d60e01b81528581600481865afa6000918162001018575b5062000f365760405162461bcd60e51b815260048101879052602e602482015260008051602062001a0883398151915260448201526d6f6e206973206e6f74205555505360901b6064820152608490fd5b9493940362000fd25762000f4a82620012fc565b60008051602062001988833981519152600080a282511580159062000fc9575b62000f7157005b60008062000384956040519562000f888762001110565b60278752600080516020620019e883398151915286880152660819985a5b195960ca1b60408801525190845af4903d1562000d5f573d62000d3f8162001150565b50600062000f6a565b60405162461bcd60e51b81526004810184905260296024820152600080516020620019c88339815191526044820152681a58589b195555525160ba1b6064820152608490fd5b9091508681813d831162001045575b6200103381836200112c565b81010312620002f75751908862000ee5565b503d62001027565b34620002f7576020366003190112620002f7576001600160a01b0362001072620010e4565b1680600052606660205260ff6001604060002001541615620010a65760005260666020526020604060002054604051908152f35b6024906040519063f5a6943d60e01b82526004820152fd5b34620002f7576000366003190112620002f7576068546001600160a01b03168152602090f35b600435906001600160a01b0382168203620002f757565b35906001600160a01b0382168203620002f757565b606081019081106001600160401b03821117620007e357604052565b601f909101601f19168101906001600160401b03821190821017620007e357604052565b6001600160401b038111620007e357601f01601f191660200190565b9291926200117a8262001150565b916200118a60405193846200112c565b829481845281830111620002f7578281602093846000960137010152565b9080601f83011215620002f757816020620011c6933591016200116c565b90565b6033546001600160a01b03163303620011de57565b606460405162461bcd60e51b815260206004820152602060248201527f4f776e61626c653a2063616c6c6572206973206e6f7420746865206f776e65726044820152fd5b603380546001600160a01b039283166001600160a01b03198216811790925590911660008051602062001968833981519152600080a3565b156200126257565b60405162461bcd60e51b815260206004820152602c60248201526000805160206200192883398151915260448201526b19195b1959d85d1958d85b1b60a21b6064820152608490fd5b15620012b357565b60405162461bcd60e51b815260206004820152602c60248201526000805160206200192883398151915260448201526b6163746976652070726f787960a01b6064820152608490fd5b803b1562001333576000805160206200194883398151915280546001600160a01b0319166001600160a01b03909216919091179055565b60405162461bcd60e51b815260206004820152602d60248201527f455243313936373a206e657720696d706c656d656e746174696f6e206973206e60448201526c1bdd08184818dbdb9d1c9858dd609a1b6064820152608490fd5b91929015620013f35750815115620013a4575090565b3b15620013ae5790565b60405162461bcd60e51b815260206004820152601d60248201527f416464726573733a2063616c6c20746f206e6f6e2d636f6e74726163740000006044820152606490fd5b825190915015620014075750805190602001fd5b60405162461bcd60e51b8152602060048201529081906200142d90602483019062001431565b0390fd5b919082519283825260005b8481106200145e575050826000602080949584010152601f8019910116010190565b6020818301810151848301820152016200143c565b156200147b57565b60405162461bcd60e51b815260206004820152602b60248201527f496e697469616c697a61626c653a20636f6e7472616374206973206e6f74206960448201526a6e697469616c697a696e6760a81b6064820152608490fd5b6001600160a01b031615620014e557565b6040516303988b8160e61b8152600490fdfe604060808152610410908138038061001681610218565b93843982019181818403126102135780516001600160a01b038116808203610213576020838101516001600160401b0394919391858211610213570186601f820112156102135780519061007161006c83610253565b610218565b918083528583019886828401011161021357888661008f930161026e565b813b156101b9577f360894a13ba1a3210667c828492db98dca3e2076cc3735a920a3ca505d382bbc80546001600160a01b031916841790556000927fbc7cd75a20ee27fd9adebab32041f755214dbc6bffa90cc0225b39da2e5c2d3b8480a28051158015906101b2575b61010b575b855160cb90816103458239f35b855194606086019081118682101761019e578697849283926101889952602788527f416464726573733a206c6f772d6c6576656c2064656c65676174652063616c6c87890152660819985a5b195960ca1b8a8901525190845af4913d15610194573d9061017a61006c83610253565b91825281943d92013e610291565b508038808080806100fe565b5060609250610291565b634e487b7160e01b84526041600452602484fd5b50826100f9565b855162461bcd60e51b815260048101859052602d60248201527f455243313936373a206e657720696d706c656d656e746174696f6e206973206e60448201526c1bdd08184818dbdb9d1c9858dd609a1b6064820152608490fd5b600080fd5b6040519190601f01601f191682016001600160401b0381118382101761023d57604052565b634e487b7160e01b600052604160045260246000fd5b6001600160401b03811161023d57601f01601f191660200190565b60005b8381106102815750506000910152565b8181015183820152602001610271565b919290156102f357508151156102a5575090565b3b156102ae5790565b60405162461bcd60e51b815260206004820152601d60248201527f416464726573733a2063616c6c20746f206e6f6e2d636f6e74726163740000006044820152606490fd5b8251909150156103065750805190602001fd5b6044604051809262461bcd60e51b825260206004830152610336815180928160248601526020868601910161026e565b601f01601f19168101030190fdfe60806040523615604157600080516020607683398151915254600090819081906001600160a01b0316368280378136915af43d82803e15603d573d90f35b3d90fd5b600080516020607683398151915254600090819081906001600160a01b0316368280378136915af43d82803e15603d573d90f3fe360894a13ba1a3210667c828492db98dca3e2076cc3735a920a3ca505d382bbca264697066735822122061847e96a7ec765809df85dd5b5b49051bdf3e8e4e4c0efdb74ab6f0065c6dcf64736f6c634300081300334910fdfa16fed3260ed0e7147f7cc6da11a60208b5b9406d12a635614ffd914346756e6374696f6e206d7573742062652063616c6c6564207468726f75676820360894a13ba1a3210667c828492db98dca3e2076cc3735a920a3ca505d382bbc8be0079c531659141344cd1fd0a4f28419497f9722a3daafe3b4186f6b6457e0bc7cd75a20ee27fd9adebab32041f755214dbc6bffa90cc0225b39da2e5c2d3bbdf37c276f641820b141429d245add2552b4118c0866e5a78638e3de5ef18d9d45524331393637557067726164653a20756e737570706f727465642070726f78416464726573733a206c6f772d6c6576656c2064656c65676174652063616c6c45524331393637557067726164653a206e657720696d706c656d656e74617469a2646970667358221220430fb7fa2925568ab1f3461a95d42db89dce393cbe459236314adb2f9c013a0c64736f6c63430008130033","linkReferences":{}},"methodIdentifiers":{"collateralVaultTemplate()":"77122d56","createRegistry((address,address,uint256,uint256,uint256,address,address,(uint256,string),address,string,bool,string))":"beb331a3","gardensFeeReceiver()":"b8bed901","getCommunityValidity(address)":"f5016b5e","getGardensFeeReceiver()":"987435be","getProtocolFee(address)":"0a992e0c","initialize(address,address,address,address)":"f8c8765e","nonce()":"affed0e0","owner()":"8da5cb5b","proxiableUUID()":"52d1902d","registryCommunityTemplate()":"02c1d0b1","renounceOwnership()":"715018a6","setCommunityValidity(address,bool)":"5a2c8ace","setProtocolFee(address,uint256)":"b5b3ca2c","setReceiverAddress(address)":"8279c7db","strategyTemplate()":"5c94e4d2","transferOwnership(address)":"f2fde38b","upgradeTo(address)":"3659cfe6","upgradeToAndCall(address,bytes)":"4f1ef286"},"storageLayout":{"storage":[{"astId":53071,"contract":"pkg/contracts/src/RegistryFactoryV0_0.sol:RegistryFactoryV0_0","label":"_initialized","offset":0,"slot":"0","type":"t_uint8"},{"astId":53074,"contract":"pkg/contracts/src/RegistryFactoryV0_0.sol:RegistryFactoryV0_0","label":"_initializing","offset":1,"slot":"0","type":"t_bool"},{"astId":53776,"contract":"pkg/contracts/src/RegistryFactoryV0_0.sol:RegistryFactoryV0_0","label":"__gap","offset":0,"slot":"1","type":"t_array(t_uint256)50_storage"},{"astId":52863,"contract":"pkg/contracts/src/RegistryFactoryV0_0.sol:RegistryFactoryV0_0","label":"_owner","offset":0,"slot":"51","type":"t_address"},{"astId":52983,"contract":"pkg/contracts/src/RegistryFactoryV0_0.sol:RegistryFactoryV0_0","label":"__gap","offset":0,"slot":"52","type":"t_array(t_uint256)49_storage"},{"astId":79879,"contract":"pkg/contracts/src/RegistryFactoryV0_0.sol:RegistryFactoryV0_0","label":"nonce","offset":0,"slot":"101","type":"t_uint256"},{"astId":79884,"contract":"pkg/contracts/src/RegistryFactoryV0_0.sol:RegistryFactoryV0_0","label":"communityToInfo","offset":0,"slot":"102","type":"t_mapping(t_address,t_struct(CommunityInfo)79872_storage)"},{"astId":79886,"contract":"pkg/contracts/src/RegistryFactoryV0_0.sol:RegistryFactoryV0_0","label":"gardensFeeReceiver","offset":0,"slot":"103","type":"t_address"},{"astId":79888,"contract":"pkg/contracts/src/RegistryFactoryV0_0.sol:RegistryFactoryV0_0","label":"registryCommunityTemplate","offset":0,"slot":"104","type":"t_address"},{"astId":79890,"contract":"pkg/contracts/src/RegistryFactoryV0_0.sol:RegistryFactoryV0_0","label":"strategyTemplate","offset":0,"slot":"105","type":"t_address"},{"astId":79892,"contract":"pkg/contracts/src/RegistryFactoryV0_0.sol:RegistryFactoryV0_0","label":"collateralVaultTemplate","offset":0,"slot":"106","type":"t_address"},{"astId":80190,"contract":"pkg/contracts/src/RegistryFactoryV0_0.sol:RegistryFactoryV0_0","label":"__gap","offset":0,"slot":"107","type":"t_array(t_uint256)50_storage"}],"types":{"t_address":{"encoding":"inplace","label":"address","numberOfBytes":"20"},"t_array(t_uint256)49_storage":{"encoding":"inplace","label":"uint256[49]","numberOfBytes":"1568","base":"t_uint256"},"t_array(t_uint256)50_storage":{"encoding":"inplace","label":"uint256[50]","numberOfBytes":"1600","base":"t_uint256"},"t_bool":{"encoding":"inplace","label":"bool","numberOfBytes":"1"},"t_mapping(t_address,t_struct(CommunityInfo)79872_storage)":{"encoding":"mapping","key":"t_address","label":"mapping(address => struct CommunityInfo)","numberOfBytes":"32","value":"t_struct(CommunityInfo)79872_storage"},"t_struct(CommunityInfo)79872_storage":{"encoding":"inplace","label":"struct CommunityInfo","numberOfBytes":"64","members":[{"astId":79869,"contract":"pkg/contracts/src/RegistryFactoryV0_0.sol:RegistryFactoryV0_0","label":"fee","offset":0,"slot":"0","type":"t_uint256"},{"astId":79871,"contract":"pkg/contracts/src/RegistryFactoryV0_0.sol:RegistryFactoryV0_0","label":"valid","offset":0,"slot":"1","type":"t_bool"}]},"t_uint256":{"encoding":"inplace","label":"uint256","numberOfBytes":"32"},"t_uint8":{"encoding":"inplace","label":"uint8","numberOfBytes":"1"}}},"id":120}