{"abi":[{"type":"function","name":"createRegistry","inputs":[{"name":"params","type":"tuple","internalType":"struct IRegistryCommunityV0_0.InitializeParams","components":[{"name":"_allo","type":"address","internalType":"address"},{"name":"_gardenToken","type":"address","internalType":"contract IERC20"},{"name":"_registerStakeAmount","type":"uint256","internalType":"uint256"},{"name":"_communityFee","type":"uint256","internalType":"uint256"},{"name":"_nonce","type":"uint256","internalType":"uint256"},{"name":"_registryFactory","type":"address","internalType":"address"},{"name":"_feeReceiver","type":"address","internalType":"address"},{"name":"_metadata","type":"tuple","internalType":"struct Metadata","components":[{"name":"protocol","type":"uint256","internalType":"uint256"},{"name":"pointer","type":"string","internalType":"string"}]},{"name":"_councilSafe","type":"address","internalType":"address payable"},{"name":"_communityName","type":"string","internalType":"string"},{"name":"_isKickEnabled","type":"bool","internalType":"bool"},{"name":"covenantIpfsHash","type":"string","internalType":"string"},{"name":"_strategyTemplate","type":"address","internalType":"address"}]}],"outputs":[{"name":"_createdRegistryAddress","type":"address","internalType":"address"}],"stateMutability":"nonpayable"},{"type":"function","name":"gardensFeeReceiver","inputs":[],"outputs":[{"name":"","type":"address","internalType":"address"}],"stateMutability":"view"},{"type":"function","name":"getCommunityValidity","inputs":[{"name":"_community","type":"address","internalType":"address"}],"outputs":[{"name":"","type":"bool","internalType":"bool"}],"stateMutability":"view"},{"type":"function","name":"getGardensFeeReceiver","inputs":[],"outputs":[{"name":"","type":"address","internalType":"address"}],"stateMutability":"view"},{"type":"function","name":"getProtocolFee","inputs":[{"name":"_community","type":"address","internalType":"address"}],"outputs":[{"name":"","type":"uint256","internalType":"uint256"}],"stateMutability":"view"},{"type":"function","name":"initialize","inputs":[{"name":"_gardensFeeReceiver","type":"address","internalType":"address"},{"name":"_registryCommunityTemplate","type":"address","internalType":"address"}],"outputs":[],"stateMutability":"nonpayable"},{"type":"function","name":"nonce","inputs":[],"outputs":[{"name":"","type":"uint256","internalType":"uint256"}],"stateMutability":"view"},{"type":"function","name":"owner","inputs":[],"outputs":[{"name":"","type":"address","internalType":"address"}],"stateMutability":"view"},{"type":"function","name":"proxiableUUID","inputs":[],"outputs":[{"name":"","type":"bytes32","internalType":"bytes32"}],"stateMutability":"view"},{"type":"function","name":"registryCommunityTemplate","inputs":[],"outputs":[{"name":"","type":"address","internalType":"address"}],"stateMutability":"view"},{"type":"function","name":"renounceOwnership","inputs":[],"outputs":[],"stateMutability":"nonpayable"},{"type":"function","name":"setCommunityValidity","inputs":[{"name":"_community","type":"address","internalType":"address"},{"name":"_isValid","type":"bool","internalType":"bool"}],"outputs":[],"stateMutability":"nonpayable"},{"type":"function","name":"setProtocolFee","inputs":[{"name":"_community","type":"address","internalType":"address"},{"name":"_newProtocolFee","type":"uint256","internalType":"uint256"}],"outputs":[],"stateMutability":"nonpayable"},{"type":"function","name":"setReceiverAddress","inputs":[{"name":"_newFeeReceiver","type":"address","internalType":"address"}],"outputs":[],"stateMutability":"nonpayable"},{"type":"function","name":"transferOwnership","inputs":[{"name":"newOwner","type":"address","internalType":"address"}],"outputs":[],"stateMutability":"nonpayable"},{"type":"function","name":"upgradeTo","inputs":[{"name":"newImplementation","type":"address","internalType":"address"}],"outputs":[],"stateMutability":"nonpayable"},{"type":"function","name":"upgradeToAndCall","inputs":[{"name":"newImplementation","type":"address","internalType":"address"},{"name":"data","type":"bytes","internalType":"bytes"}],"outputs":[],"stateMutability":"payable"},{"type":"event","name":"AdminChanged","inputs":[{"name":"previousAdmin","type":"address","indexed":false,"internalType":"address"},{"name":"newAdmin","type":"address","indexed":false,"internalType":"address"}],"anonymous":false},{"type":"event","name":"BeaconUpgraded","inputs":[{"name":"beacon","type":"address","indexed":true,"internalType":"address"}],"anonymous":false},{"type":"event","name":"CommunityCreated","inputs":[{"name":"_registryCommunity","type":"address","indexed":false,"internalType":"address"}],"anonymous":false},{"type":"event","name":"CommunityValiditySet","inputs":[{"name":"_community","type":"address","indexed":false,"internalType":"address"},{"name":"_isValid","type":"bool","indexed":false,"internalType":"bool"}],"anonymous":false},{"type":"event","name":"FeeReceiverSet","inputs":[{"name":"_newFeeReceiver","type":"address","indexed":false,"internalType":"address"}],"anonymous":false},{"type":"event","name":"Initialized","inputs":[{"name":"version","type":"uint8","indexed":false,"internalType":"uint8"}],"anonymous":false},{"type":"event","name":"OwnershipTransferred","inputs":[{"name":"previousOwner","type":"address","indexed":true,"internalType":"address"},{"name":"newOwner","type":"address","indexed":true,"internalType":"address"}],"anonymous":false},{"type":"event","name":"ProtocolFeeSet","inputs":[{"name":"_community","type":"address","indexed":false,"internalType":"address"},{"name":"_newProtocolFee","type":"uint256","indexed":false,"internalType":"uint256"}],"anonymous":false},{"type":"event","name":"Upgraded","inputs":[{"name":"implementation","type":"address","indexed":true,"internalType":"address"}],"anonymous":false},{"type":"error","name":"AddressCannotBeZero","inputs":[]},{"type":"error","name":"CommunityInvalid","inputs":[{"name":"_community","type":"address","internalType":"address"}]}],"bytecode":{"object":"0x60a0806040523461003157306080526119de90816100378239608051818181610880015281816109880152610e0d0152f35b600080fdfe60808060405260043610156200001457600080fd5b60003560e01c90816302c1d0b11462001108575080630a992e0c14620010975780633659cfe61462000de4578063485cc9551462000c1a5780634f1ef286146200093357806352d1902d146200086b5780635a2c8ace14620007dd578063715018a6146200077c5780638279c7db14620006ff5780638a16135f14620002b85780638da5cb5b146200028d578063987435be14620001cf578063affed0e0146200026d578063b5b3ca2c14620001fa578063b8bed90114620001cf578063f2fde38b14620001375763f5016b5e14620000ec57600080fd5b346200013257602036600319011262000132576001600160a01b03620001116200112e565b166000526066602052602060ff600160406000200154166040519015158152f35b600080fd5b34620001325760203660031901126200013257620001546200112e565b6200015e62001211565b6001600160a01b038116156200017b5762000179906200126a565b005b60405162461bcd60e51b815260206004820152602660248201527f4f776e61626c653a206e6577206f776e657220697320746865207a65726f206160448201526564647265737360d01b6064820152608490fd5b346200013257600036600319011262000132576067546040516001600160a01b039091168152602090f35b346200013257604036600319011262000132577fa1ee82e4f177a8017f33ddddac05b7ceab1de9d46f7195e15e8aa2e8b88f3b1c60406200023a6200112e565b602435906200024862001211565b60018060a01b03169081600052606660205280836000205582519182526020820152a1005b346200013257600036600319011262000132576020606554604051908152f35b346200013257600036600319011262000132576033546040516001600160a01b039091168152602090f35b34620001325760031960203682011262000132576001600160401b036004351162000132576101a081600435360301126200013257604051906101a082018281106001600160401b03821117620006d3576040526200031c60043560040162001145565b8252600435602401356001600160a01b0381168103620001325760208301526004356044810135604084015260648101356060840152608481013560808401526200036a9060a40162001145565b60a08301526200037f60c46004350162001145565b60c083015260e46004350135906001600160401b03821162000132576040908260043501360301126200013257604051908160408101106001600160401b03604084011117620006d35760408201604052600481813501013582526001600160401b036024826004350101351162000132576200040c9036906004803590910160248101350101620011f0565b602082015260e082015260043561010401356001600160a01b0381168103620001325761010082015261012460043501356001600160401b03811162000132576200045f906004369181350101620011f0565b61012082015260043561014401358015159003620001325761014460043501356101408201526001600160401b036101646004350135116200013257620004b236600480356101648101350101620011f0565b610160820152620004c96101846004350162001145565b6101808201526065546000198114620006e95760018101606555608082019081523060a08301908152606854604080516325bc2b7b60e21b6020808301919091526024820181905286516001600160a01b0390811660448401528188015181166064840152838801516084840152606088015160a4840152955160c48301529351851660e482015260c0860151851661010482015260e08601516101a061012483015280516101e483015290930151610204840191909152921692909162000625918391620005ff90620005a390610224850190620014ac565b6101008301516001600160a01b031661014485015261012083015184820360431990810161016487015291620005d991620014ac565b90610140840151151561018486015261016084015190858303016101a4860152620014ac565b61018091909101516001600160a01b03166101c483015203601f19810183528262001176565b6040519161041691828401928484106001600160401b03851117620006d3578493620006649360409262001573873981528160208201520190620014ac565b03906000f08015620006c75760209060018060a01b031680600052606682526001604060002001600160ff198254161790557fb4108a188495a1a681cdc0750af164011025a1773b41e93ff3e628adc037dc2982604051838152a1604051908152f35b6040513d6000823e3d90fd5b634e487b7160e01b600052604160045260246000fd5b634e487b7160e01b600052601160045260246000fd5b346200013257602036600319011262000132577fbdf37c276f641820b141429d245add2552b4118c0866e5a78638e3de5ef18d9d60206200073f6200112e565b6200074962001211565b62000754816200154f565b606780546001600160a01b0319166001600160a01b03929092169182179055604051908152a1005b346200013257600036600319011262000132576200079962001211565b603380546001600160a01b031981169091556000906001600160a01b03167f8be0079c531659141344cd1fd0a4f28419497f9722a3daafe3b4186f6b6457e08280a3005b34620001325760403660031901126200013257620007fa6200112e565b6024359081151580920362000132577fecdcd3502799a6c41864ea2682236184e876f63e10f8d56c7768a3d501e89f62916040916200083862001211565b60018060a01b0316908160005260666020526001836000200160ff1981541660ff831617905582519182526020820152a1005b346200013257600036600319011262000132577f00000000000000000000000000000000000000000000000000000000000000006001600160a01b03163003620008c8576020604051600080516020620019898339815191528152f35b60405162461bcd60e51b815260206004820152603860248201527f555550535570677261646561626c653a206d757374206e6f742062652063616c60448201527f6c6564207468726f7567682064656c656761746563616c6c00000000000000006064820152608490fd5b604036600319011262000132576200094a6200112e565b6024356001600160401b03811162000132573660238201121562000132576200097e903690602481600401359101620011b4565b6001600160a01b037f000000000000000000000000000000000000000000000000000000000000000081169190620009b930841415620012b3565b620009d96000805160206200198983398151915293828554161462001315565b620009e362001211565b7f4910fdfa16fed3260ed0e7147f7cc6da11a60208b5b9406d12a635614ffd91435460ff161562000a1c57505050620001799062001377565b8316604051926352d1902d60e01b84526020938481600481865afa6000918162000be5575b5062000aa35760405162461bcd60e51b815260048101869052602e60248201527f45524331393637557067726164653a206e657720696d706c656d656e7461746960448201526d6f6e206973206e6f74205555505360901b6064820152608490fd5b9392930362000b8e5762000ab78462001377565b7fbc7cd75a20ee27fd9adebab32041f755214dbc6bffa90cc0225b39da2e5c2d3b600080a281511580159062000b85575b62000aef57005b62000179926000806040519462000b06866200115a565b602786527f416464726573733a206c6f772d6c6576656c2064656c65676174652063616c6c85870152660819985a5b195960ca1b60408701528481519101845af4903d1562000b7b573d62000b5b8162001198565b9062000b6b604051928362001176565b8152600081943d92013e62001409565b6060925062001409565b50600162000ae8565b60405162461bcd60e51b815260048101839052602960248201527f45524331393637557067726164653a20756e737570706f727465642070726f786044820152681a58589b195555525160ba1b6064820152608490fd5b9091508581813d831162000c12575b62000c00818362001176565b81010312620001325751908762000a41565b503d62000bf4565b3462000132576040366003190112620001325762000c376200112e565b6001600160a01b03906024358281169081900362000132576000549060ff8260081c16159384809562000dd6575b801562000dbd575b1562000d615760ff1983166001176000557fbdf37c276f641820b141429d245add2552b4118c0866e5a78638e3de5ef18d9d936020938662000d4e575b5062000cc960ff60005460081c1662000cc381620014ee565b620014ee565b62000cd4336200126a565b600060655562000ce4816200154f565b16906bffffffffffffffffffffffff60a01b828160675416176067556068541617606855604051908152a162000d1657005b61ff0019600054166000557f7f26b83ff96e1f2b6a682f133852f6798a09c465da95921460cefb3847402498602060405160018152a1005b61ffff1916610101176000558662000caa565b60405162461bcd60e51b815260206004820152602e60248201527f496e697469616c697a61626c653a20636f6e747261637420697320616c72656160448201526d191e481a5b9a5d1a585b1a5e995960921b6064820152608490fd5b50303b15801562000c6d5750600160ff84161462000c6d565b50600160ff84161062000c65565b346200013257602080600319360112620001325762000e026200112e565b6001600160a01b03917f0000000000000000000000000000000000000000000000000000000000000000831662000e3c30821415620012b3565b62000e5c6000805160206200198983398151915291858354161462001315565b62000e6662001211565b60405190828201948286106001600160401b03871117620006d357856040526000835260ff7f4910fdfa16fed3260ed0e7147f7cc6da11a60208b5b9406d12a635614ffd9143541660001462000ec6575050505062000179915062001377565b8492939416906040516352d1902d60e01b81528581600481865afa6000918162001062575b5062000f4d5760405162461bcd60e51b815260048101879052602e60248201527f45524331393637557067726164653a206e657720696d706c656d656e7461746960448201526d6f6e206973206e6f74205555505360901b6064820152608490fd5b949394036200100b5762000f618262001377565b7fbc7cd75a20ee27fd9adebab32041f755214dbc6bffa90cc0225b39da2e5c2d3b600080a282511580159062001002575b62000f9957005b60008062000179956040519562000fb0876200115a565b602787527f416464726573733a206c6f772d6c6576656c2064656c65676174652063616c6c86880152660819985a5b195960ca1b60408801525190845af4903d1562000b7b573d62000b5b8162001198565b50600062000f92565b60405162461bcd60e51b815260048101849052602960248201527f45524331393637557067726164653a20756e737570706f727465642070726f786044820152681a58589b195555525160ba1b6064820152608490fd5b9091508681813d83116200108f575b6200107d818362001176565b81010312620001325751908862000eeb565b503d62001071565b346200013257602036600319011262000132576001600160a01b03620010bc6200112e565b1680600052606660205260ff6001604060002001541615620010f05760005260666020526020604060002054604051908152f35b6024906040519063f5a6943d60e01b82526004820152fd5b346200013257600036600319011262000132576068546001600160a01b03168152602090f35b600435906001600160a01b03821682036200013257565b35906001600160a01b03821682036200013257565b606081019081106001600160401b03821117620006d357604052565b90601f801991011681019081106001600160401b03821117620006d357604052565b6001600160401b038111620006d357601f01601f191660200190565b929192620011c28262001198565b91620011d2604051938462001176565b82948184528183011162000132578281602093846000960137010152565b9080601f8301121562000132578160206200120e93359101620011b4565b90565b6033546001600160a01b031633036200122657565b606460405162461bcd60e51b815260206004820152602060248201527f4f776e61626c653a2063616c6c6572206973206e6f7420746865206f776e65726044820152fd5b603380546001600160a01b039283166001600160a01b0319821681179092559091167f8be0079c531659141344cd1fd0a4f28419497f9722a3daafe3b4186f6b6457e0600080a3565b15620012bb57565b60405162461bcd60e51b815260206004820152602c60248201527f46756e6374696f6e206d7573742062652063616c6c6564207468726f7567682060448201526b19195b1959d85d1958d85b1b60a21b6064820152608490fd5b156200131d57565b60405162461bcd60e51b815260206004820152602c60248201527f46756e6374696f6e206d7573742062652063616c6c6564207468726f7567682060448201526b6163746976652070726f787960a01b6064820152608490fd5b803b15620013ae576000805160206200198983398151915280546001600160a01b0319166001600160a01b03909216919091179055565b60405162461bcd60e51b815260206004820152602d60248201527f455243313936373a206e657720696d706c656d656e746174696f6e206973206e60448201526c1bdd08184818dbdb9d1c9858dd609a1b6064820152608490fd5b919290156200146e57508151156200141f575090565b3b15620014295790565b60405162461bcd60e51b815260206004820152601d60248201527f416464726573733a2063616c6c20746f206e6f6e2d636f6e74726163740000006044820152606490fd5b825190915015620014825750805190602001fd5b60405162461bcd60e51b815260206004820152908190620014a8906024830190620014ac565b0390fd5b919082519283825260005b848110620014d9575050826000602080949584010152601f8019910116010190565b602081830181015184830182015201620014b7565b15620014f657565b60405162461bcd60e51b815260206004820152602b60248201527f496e697469616c697a61626c653a20636f6e7472616374206973206e6f74206960448201526a6e697469616c697a696e6760a81b6064820152608490fd5b6001600160a01b0316156200156057565b6040516303988b8160e61b8152600490fdfe604060808152610416908138038061001681610218565b93843982019181818403126102135780516001600160a01b038116808203610213576020838101516001600160401b0394919391858211610213570186601f820112156102135780519061007161006c83610253565b610218565b918083528583019886828401011161021357888661008f930161026e565b813b156101b9577f360894a13ba1a3210667c828492db98dca3e2076cc3735a920a3ca505d382bbc80546001600160a01b031916841790556000927fbc7cd75a20ee27fd9adebab32041f755214dbc6bffa90cc0225b39da2e5c2d3b8480a28051158015906101b2575b61010b575b855160d190816103458239f35b855194606086019081118682101761019e578697849283926101889952602788527f416464726573733a206c6f772d6c6576656c2064656c65676174652063616c6c87890152660819985a5b195960ca1b8a8901525190845af4913d15610194573d9061017a61006c83610253565b91825281943d92013e610291565b508038808080806100fe565b5060609250610291565b634e487b7160e01b84526041600452602484fd5b50826100f9565b855162461bcd60e51b815260048101859052602d60248201527f455243313936373a206e657720696d706c656d656e746174696f6e206973206e60448201526c1bdd08184818dbdb9d1c9858dd609a1b6064820152608490fd5b600080fd5b6040519190601f01601f191682016001600160401b0381118382101761023d57604052565b634e487b7160e01b600052604160045260246000fd5b6001600160401b03811161023d57601f01601f191660200190565b60005b8381106102815750506000910152565b8181015183820152602001610271565b919290156102f357508151156102a5575090565b3b156102ae5790565b60405162461bcd60e51b815260206004820152601d60248201527f416464726573733a2063616c6c20746f206e6f6e2d636f6e74726163740000006044820152606490fd5b8251909150156103065750805190602001fd5b6044604051809262461bcd60e51b825260206004830152610336815180928160248601526020868601910161026e565b601f01601f19168101030190fdfe608060405236156054577f360894a13ba1a3210667c828492db98dca3e2076cc3735a920a3ca505d382bbc54600090819081906001600160a01b0316368280378136915af43d82803e156050573d90f35b3d90fd5b7f360894a13ba1a3210667c828492db98dca3e2076cc3735a920a3ca505d382bbc54600090819081906001600160a01b0316368280378136915af43d82803e156050573d90f3fea26469706673582212202a4006a3fa6e904d3606b392c1f8c8ba630f0c9e9c2dfbeda08c1fd084e42d8264736f6c63430008130033360894a13ba1a3210667c828492db98dca3e2076cc3735a920a3ca505d382bbca26469706673582212207fef3211f9b4584827ca56ddab60030acb3f3820c8274c5b43b0319c8b0cbf4f64736f6c63430008130033","linkReferences":{}},"methodIdentifiers":{"createRegistry((address,address,uint256,uint256,uint256,address,address,(uint256,string),address,string,bool,string,address))":"8a16135f","gardensFeeReceiver()":"b8bed901","getCommunityValidity(address)":"f5016b5e","getGardensFeeReceiver()":"987435be","getProtocolFee(address)":"0a992e0c","initialize(address,address)":"485cc955","nonce()":"affed0e0","owner()":"8da5cb5b","proxiableUUID()":"52d1902d","registryCommunityTemplate()":"02c1d0b1","renounceOwnership()":"715018a6","setCommunityValidity(address,bool)":"5a2c8ace","setProtocolFee(address,uint256)":"b5b3ca2c","setReceiverAddress(address)":"8279c7db","transferOwnership(address)":"f2fde38b","upgradeTo(address)":"3659cfe6","upgradeToAndCall(address,bytes)":"4f1ef286"},"storageLayout":{"storage":[{"astId":14129,"contract":"src/RegistryFactoryV0_0.sol:RegistryFactoryV0_0","label":"_initialized","offset":0,"slot":"0","type":"t_uint8"},{"astId":14132,"contract":"src/RegistryFactoryV0_0.sol:RegistryFactoryV0_0","label":"_initializing","offset":1,"slot":"0","type":"t_bool"},{"astId":14756,"contract":"src/RegistryFactoryV0_0.sol:RegistryFactoryV0_0","label":"__gap","offset":0,"slot":"1","type":"t_array(t_uint256)50_storage"},{"astId":13921,"contract":"src/RegistryFactoryV0_0.sol:RegistryFactoryV0_0","label":"_owner","offset":0,"slot":"51","type":"t_address"},{"astId":14041,"contract":"src/RegistryFactoryV0_0.sol:RegistryFactoryV0_0","label":"__gap","offset":0,"slot":"52","type":"t_array(t_uint256)49_storage"},{"astId":32368,"contract":"src/RegistryFactoryV0_0.sol:RegistryFactoryV0_0","label":"nonce","offset":0,"slot":"101","type":"t_uint256"},{"astId":32373,"contract":"src/RegistryFactoryV0_0.sol:RegistryFactoryV0_0","label":"communityToInfo","offset":0,"slot":"102","type":"t_mapping(t_address,t_struct(CommunityInfo)32361_storage)"},{"astId":32375,"contract":"src/RegistryFactoryV0_0.sol:RegistryFactoryV0_0","label":"gardensFeeReceiver","offset":0,"slot":"103","type":"t_address"},{"astId":32377,"contract":"src/RegistryFactoryV0_0.sol:RegistryFactoryV0_0","label":"registryCommunityTemplate","offset":0,"slot":"104","type":"t_address"},{"astId":32653,"contract":"src/RegistryFactoryV0_0.sol:RegistryFactoryV0_0","label":"__gap","offset":0,"slot":"105","type":"t_array(t_uint256)50_storage"}],"types":{"t_address":{"encoding":"inplace","label":"address","numberOfBytes":"20"},"t_array(t_uint256)49_storage":{"encoding":"inplace","label":"uint256[49]","numberOfBytes":"1568","base":"t_uint256"},"t_array(t_uint256)50_storage":{"encoding":"inplace","label":"uint256[50]","numberOfBytes":"1600","base":"t_uint256"},"t_bool":{"encoding":"inplace","label":"bool","numberOfBytes":"1"},"t_mapping(t_address,t_struct(CommunityInfo)32361_storage)":{"encoding":"mapping","key":"t_address","label":"mapping(address => struct CommunityInfo)","numberOfBytes":"32","value":"t_struct(CommunityInfo)32361_storage"},"t_struct(CommunityInfo)32361_storage":{"encoding":"inplace","label":"struct CommunityInfo","numberOfBytes":"64","members":[{"astId":32358,"contract":"src/RegistryFactoryV0_0.sol:RegistryFactoryV0_0","label":"fee","offset":0,"slot":"0","type":"t_uint256"},{"astId":32360,"contract":"src/RegistryFactoryV0_0.sol:RegistryFactoryV0_0","label":"valid","offset":0,"slot":"1","type":"t_bool"}]},"t_uint256":{"encoding":"inplace","label":"uint256","numberOfBytes":"32"},"t_uint8":{"encoding":"inplace","label":"uint8","numberOfBytes":"1"}}},"id":67}