{"abi":[{"type":"function","name":"collateralVaultTemplate","inputs":[],"outputs":[{"name":"","type":"address","internalType":"address"}],"stateMutability":"view"},{"type":"function","name":"createRegistry","inputs":[{"name":"params","type":"tuple","internalType":"struct IRegistryCommunityV0_0.InitializeParams","components":[{"name":"_allo","type":"address","internalType":"address"},{"name":"_gardenToken","type":"address","internalType":"contract IERC20"},{"name":"_registerStakeAmount","type":"uint256","internalType":"uint256"},{"name":"_communityFee","type":"uint256","internalType":"uint256"},{"name":"_nonce","type":"uint256","internalType":"uint256"},{"name":"_registryFactory","type":"address","internalType":"address"},{"name":"_feeReceiver","type":"address","internalType":"address"},{"name":"_metadata","type":"tuple","internalType":"struct Metadata","components":[{"name":"protocol","type":"uint256","internalType":"uint256"},{"name":"pointer","type":"string","internalType":"string"}]},{"name":"_councilSafe","type":"address","internalType":"address payable"},{"name":"_communityName","type":"string","internalType":"string"},{"name":"_isKickEnabled","type":"bool","internalType":"bool"},{"name":"covenantIpfsHash","type":"string","internalType":"string"},{"name":"_strategyTemplate","type":"address","internalType":"address"}]}],"outputs":[{"name":"_createdRegistryAddress","type":"address","internalType":"address"}],"stateMutability":"nonpayable"},{"type":"function","name":"gardensFeeReceiver","inputs":[],"outputs":[{"name":"","type":"address","internalType":"address"}],"stateMutability":"view"},{"type":"function","name":"getCommunityValidity","inputs":[{"name":"_community","type":"address","internalType":"address"}],"outputs":[{"name":"","type":"bool","internalType":"bool"}],"stateMutability":"view"},{"type":"function","name":"getGardensFeeReceiver","inputs":[],"outputs":[{"name":"","type":"address","internalType":"address"}],"stateMutability":"view"},{"type":"function","name":"getProtocolFee","inputs":[{"name":"_community","type":"address","internalType":"address"}],"outputs":[{"name":"","type":"uint256","internalType":"uint256"}],"stateMutability":"view"},{"type":"function","name":"initialize","inputs":[{"name":"_gardensFeeReceiver","type":"address","internalType":"address"},{"name":"_registryCommunityTemplate","type":"address","internalType":"address"},{"name":"_collateralVaultTemplate","type":"address","internalType":"address"}],"outputs":[],"stateMutability":"nonpayable"},{"type":"function","name":"nonce","inputs":[],"outputs":[{"name":"","type":"uint256","internalType":"uint256"}],"stateMutability":"view"},{"type":"function","name":"owner","inputs":[],"outputs":[{"name":"","type":"address","internalType":"address"}],"stateMutability":"view"},{"type":"function","name":"proxiableUUID","inputs":[],"outputs":[{"name":"","type":"bytes32","internalType":"bytes32"}],"stateMutability":"view"},{"type":"function","name":"registryCommunityTemplate","inputs":[],"outputs":[{"name":"","type":"address","internalType":"address"}],"stateMutability":"view"},{"type":"function","name":"renounceOwnership","inputs":[],"outputs":[],"stateMutability":"nonpayable"},{"type":"function","name":"setCommunityValidity","inputs":[{"name":"_community","type":"address","internalType":"address"},{"name":"_isValid","type":"bool","internalType":"bool"}],"outputs":[],"stateMutability":"nonpayable"},{"type":"function","name":"setProtocolFee","inputs":[{"name":"_community","type":"address","internalType":"address"},{"name":"_newProtocolFee","type":"uint256","internalType":"uint256"}],"outputs":[],"stateMutability":"nonpayable"},{"type":"function","name":"setReceiverAddress","inputs":[{"name":"_newFeeReceiver","type":"address","internalType":"address"}],"outputs":[],"stateMutability":"nonpayable"},{"type":"function","name":"transferOwnership","inputs":[{"name":"newOwner","type":"address","internalType":"address"}],"outputs":[],"stateMutability":"nonpayable"},{"type":"function","name":"upgradeTo","inputs":[{"name":"newImplementation","type":"address","internalType":"address"}],"outputs":[],"stateMutability":"nonpayable"},{"type":"function","name":"upgradeToAndCall","inputs":[{"name":"newImplementation","type":"address","internalType":"address"},{"name":"data","type":"bytes","internalType":"bytes"}],"outputs":[],"stateMutability":"payable"},{"type":"event","name":"AdminChanged","inputs":[{"name":"previousAdmin","type":"address","indexed":false,"internalType":"address"},{"name":"newAdmin","type":"address","indexed":false,"internalType":"address"}],"anonymous":false},{"type":"event","name":"BeaconUpgraded","inputs":[{"name":"beacon","type":"address","indexed":true,"internalType":"address"}],"anonymous":false},{"type":"event","name":"CommunityCreated","inputs":[{"name":"_registryCommunity","type":"address","indexed":false,"internalType":"address"}],"anonymous":false},{"type":"event","name":"CommunityValiditySet","inputs":[{"name":"_community","type":"address","indexed":false,"internalType":"address"},{"name":"_isValid","type":"bool","indexed":false,"internalType":"bool"}],"anonymous":false},{"type":"event","name":"FeeReceiverSet","inputs":[{"name":"_newFeeReceiver","type":"address","indexed":false,"internalType":"address"}],"anonymous":false},{"type":"event","name":"Initialized","inputs":[{"name":"version","type":"uint8","indexed":false,"internalType":"uint8"}],"anonymous":false},{"type":"event","name":"OwnershipTransferred","inputs":[{"name":"previousOwner","type":"address","indexed":true,"internalType":"address"},{"name":"newOwner","type":"address","indexed":true,"internalType":"address"}],"anonymous":false},{"type":"event","name":"ProtocolFeeSet","inputs":[{"name":"_community","type":"address","indexed":false,"internalType":"address"},{"name":"_newProtocolFee","type":"uint256","indexed":false,"internalType":"uint256"}],"anonymous":false},{"type":"event","name":"Upgraded","inputs":[{"name":"implementation","type":"address","indexed":true,"internalType":"address"}],"anonymous":false},{"type":"error","name":"AddressCannotBeZero","inputs":[]},{"type":"error","name":"CommunityInvalid","inputs":[{"name":"_community","type":"address","internalType":"address"}]}],"bytecode":{"object":"0x60a080604052346100315730608052611a2d90816100378239608051818181610a7d01528181610b800152610de60152f35b600080fdfe60808060405260043610156200001457600080fd5b60003560e01c90816302c1d0b1146200108e575080630a992e0c146200101d5780633659cfe61462000dbd5780634f1ef2861462000b2b57806352d1902d1462000a685780635a2c8ace14620009da578063715018a6146200098a57806377122d56146200095f5780638279c7db14620008f35780638a16135f146200049e5780638da5cb5b1462000473578063987435be14620003b5578063affed0e01462000453578063b5b3ca2c14620003e0578063b8bed90114620003b5578063c0c53b8b14620001db578063f2fde38b14620001435763f5016b5e14620000f857600080fd5b346200013e5760203660031901126200013e576001600160a01b036200011d620010b4565b166000526066602052602060ff600160406000200154166040519015158152f35b600080fd5b346200013e5760203660031901126200013e5762000160620010b4565b6200016a62001199565b6001600160a01b0381161562000187576200018590620011f2565b005b60405162461bcd60e51b815260206004820152602660248201527f4f776e61626c653a206e6577206f776e657220697320746865207a65726f206160448201526564647265737360d01b6064820152608490fd5b346200013e5760603660031901126200013e57620001f8620010b4565b602435906001600160a01b03908183168084036200013e5760443592808416908185036200013e576000549360ff8560081c161596878098620003a7575b80156200038e575b1562000332576000805160206200197883398151915296620002ad620002b3926020988b600160ff198316176000556200031f575b506200029260ff60005460081c166200028c8162001443565b62001443565b6200029d33620011f2565b6000606555620002ad85620014a4565b620014a4565b169160018060a01b031990838260675416176067558160685416176068556069541617606955604051908152a1620002e757005b61ff0019600054166000557f7f26b83ff96e1f2b6a682f133852f6798a09c465da95921460cefb3847402498602060405160018152a1005b61ffff1916610101176000558b62000273565b60405162461bcd60e51b815260206004820152602e60248201527f496e697469616c697a61626c653a20636f6e747261637420697320616c72656160448201526d191e481a5b9a5d1a585b1a5e995960921b6064820152608490fd5b50303b1580156200023e5750600160ff8716146200023e565b50600160ff87161062000236565b346200013e5760003660031901126200013e576067546040516001600160a01b039091168152602090f35b346200013e5760403660031901126200013e577fa1ee82e4f177a8017f33ddddac05b7ceab1de9d46f7195e15e8aa2e8b88f3b1c604062000420620010b4565b602435906200042e62001199565b60018060a01b03169081600052606660205280836000205582519182526020820152a1005b346200013e5760003660031901126200013e576020606554604051908152f35b346200013e5760003660031901126200013e576033546040516001600160a01b039091168152602090f35b346200013e576003196020368201126200013e576001600160401b03600435116200013e576101a081600435360301126200013e57604051906101a082016001600160401b03811183821017620008c75760405262000502600435600401620010cb565b8252600435602401356001600160a01b03811681036200013e576020830152600435604481013560408401526064810135606084015260848101356080840152620005509060a401620010cb565b60a08301526200056560c460043501620010cb565b60c083015260043560e40135906001600160401b0382116200013e576040908260043501360301126200013e5760408051919082018083116001600160401b0390911117620008c757604082810190526004803582019081013583526001600160401b03602490910135116200013e57620005f0903690600480359091016024810135010162001178565b602082015260e082015260043561010401356001600160a01b03811681036200013e5761010082015260043561012401356001600160401b0381116200013e576200064390600436918135010162001178565b610120820152600435610144013580151590036200013e576004356101448101356101408301526001600160401b0361016490910135116200013e57620006963660048035610164810135010162001178565b610160820152620006ad61018460043501620010cb565b6101808201526065546000198114620008dd5760018101606555608082019081523060a083019081526068546069546040805163fa50f53d60e01b6020808301919091526024820183905287516001600160a01b03908116606484015281890151811660848401528389015160a4840152606089015160c4840152965160e48301529451861661010482015260c0870151861661012482015260e08701516101a061014483015280516102048301529094015161022485019190915291841694929362000819938593909290911690620007ee90620007929061024486019062001401565b6101008401516001600160a01b031661016486015261012084015185820360631990810161018488015291620007c89162001401565b9061014085015115156101a487015261016085015190868303016101c487015262001401565b61018092909201516001600160a01b03166101e4840152604483015203601f198101835282620010fc565b6040519161041080840192906001600160401b03841185851017620008c75784936200085893604092620014c887398152816020820152019062001401565b03906000f08015620008bb5760209060018060a01b031680600052606682526001604060002001600160ff198254161790557fb4108a188495a1a681cdc0750af164011025a1773b41e93ff3e628adc037dc2982604051838152a1604051908152f35b6040513d6000823e3d90fd5b634e487b7160e01b600052604160045260246000fd5b634e487b7160e01b600052601160045260246000fd5b346200013e5760203660031901126200013e5760008051602062001978833981519152602062000922620010b4565b6200092c62001199565b6200093781620014a4565b606780546001600160a01b0319166001600160a01b03929092169182179055604051908152a1005b346200013e5760003660031901126200013e576069546040516001600160a01b039091168152602090f35b346200013e5760003660031901126200013e57620009a762001199565b603380546001600160a01b031981169091556000906001600160a01b0316600080516020620019388339815191528280a3005b346200013e5760403660031901126200013e57620009f7620010b4565b602435908115158092036200013e577fecdcd3502799a6c41864ea2682236184e876f63e10f8d56c7768a3d501e89f629160409162000a3562001199565b60018060a01b0316908160005260666020526001836000200160ff1981541660ff831617905582519182526020820152a1005b346200013e5760003660031901126200013e577f00000000000000000000000000000000000000000000000000000000000000006001600160a01b0316300362000ac5576020604051600080516020620019188339815191528152f35b60405162461bcd60e51b815260206004820152603860248201527f555550535570677261646561626c653a206d757374206e6f742062652063616c6044820152771b1959081d1a1c9bdd59da0819195b1959d85d1958d85b1b60421b6064820152608490fd5b60403660031901126200013e5762000b42620010b4565b6024356001600160401b0381116200013e57366023820112156200013e5762000b769036906024816004013591016200113c565b6001600160a01b037f00000000000000000000000000000000000000000000000000000000000000008116919062000bb1308414156200122a565b62000bd1600080516020620019188339815191529382855416146200127b565b62000bdb62001199565b600080516020620018d88339815191525460ff161562000c03575050506200018590620012cc565b8316604051926352d1902d60e01b84526020938481600481865afa6000918162000d88575b5062000c795760405162461bcd60e51b815260048101869052602e6024820152600080516020620019d883398151915260448201526d6f6e206973206e6f74205555505360901b6064820152608490fd5b9392930362000d425762000c8d84620012cc565b60008051602062001958833981519152600080a281511580159062000d39575b62000cb457005b62000185926000806040519462000ccb86620010e0565b60278652600080516020620019b883398151915285870152660819985a5b195960ca1b60408701528481519101845af4903d1562000d2f573d62000d0f8162001120565b9062000d1f6040519283620010fc565b8152600081943d92013e6200135e565b606092506200135e565b50600162000cad565b60405162461bcd60e51b81526004810183905260296024820152600080516020620019988339815191526044820152681a58589b195555525160ba1b6064820152608490fd5b9091508581813d831162000db5575b62000da38183620010fc565b810103126200013e5751908762000c28565b503d62000d97565b346200013e576020806003193601126200013e5762000ddb620010b4565b6001600160a01b03917f0000000000000000000000000000000000000000000000000000000000000000831662000e15308214156200122a565b62000e35600080516020620019188339815191529185835416146200127b565b62000e3f62001199565b604051828101949091906001600160401b03861183871017620008c757856040526000835260ff600080516020620018d8833981519152541660001462000e905750505050620001859150620012cc565b8492939416906040516352d1902d60e01b81528581600481865afa6000918162000fe8575b5062000f065760405162461bcd60e51b815260048101879052602e6024820152600080516020620019d883398151915260448201526d6f6e206973206e6f74205555505360901b6064820152608490fd5b9493940362000fa25762000f1a82620012cc565b60008051602062001958833981519152600080a282511580159062000f99575b62000f4157005b60008062000185956040519562000f5887620010e0565b60278752600080516020620019b883398151915286880152660819985a5b195960ca1b60408801525190845af4903d1562000d2f573d62000d0f8162001120565b50600062000f3a565b60405162461bcd60e51b81526004810184905260296024820152600080516020620019988339815191526044820152681a58589b195555525160ba1b6064820152608490fd5b9091508681813d831162001015575b620010038183620010fc565b810103126200013e5751908862000eb5565b503d62000ff7565b346200013e5760203660031901126200013e576001600160a01b0362001042620010b4565b1680600052606660205260ff6001604060002001541615620010765760005260666020526020604060002054604051908152f35b6024906040519063f5a6943d60e01b82526004820152fd5b346200013e5760003660031901126200013e576068546001600160a01b03168152602090f35b600435906001600160a01b03821682036200013e57565b35906001600160a01b03821682036200013e57565b606081019081106001600160401b03821117620008c757604052565b601f909101601f19168101906001600160401b03821190821017620008c757604052565b6001600160401b038111620008c757601f01601f191660200190565b9291926200114a8262001120565b916200115a6040519384620010fc565b8294818452818301116200013e578281602093846000960137010152565b9080601f830112156200013e5781602062001196933591016200113c565b90565b6033546001600160a01b03163303620011ae57565b606460405162461bcd60e51b815260206004820152602060248201527f4f776e61626c653a2063616c6c6572206973206e6f7420746865206f776e65726044820152fd5b603380546001600160a01b039283166001600160a01b03198216811790925590911660008051602062001938833981519152600080a3565b156200123257565b60405162461bcd60e51b815260206004820152602c6024820152600080516020620018f883398151915260448201526b19195b1959d85d1958d85b1b60a21b6064820152608490fd5b156200128357565b60405162461bcd60e51b815260206004820152602c6024820152600080516020620018f883398151915260448201526b6163746976652070726f787960a01b6064820152608490fd5b803b1562001303576000805160206200191883398151915280546001600160a01b0319166001600160a01b03909216919091179055565b60405162461bcd60e51b815260206004820152602d60248201527f455243313936373a206e657720696d706c656d656e746174696f6e206973206e60448201526c1bdd08184818dbdb9d1c9858dd609a1b6064820152608490fd5b91929015620013c3575081511562001374575090565b3b156200137e5790565b60405162461bcd60e51b815260206004820152601d60248201527f416464726573733a2063616c6c20746f206e6f6e2d636f6e74726163740000006044820152606490fd5b825190915015620013d75750805190602001fd5b60405162461bcd60e51b815260206004820152908190620013fd90602483019062001401565b0390fd5b919082519283825260005b8481106200142e575050826000602080949584010152601f8019910116010190565b6020818301810151848301820152016200140c565b156200144b57565b60405162461bcd60e51b815260206004820152602b60248201527f496e697469616c697a61626c653a20636f6e7472616374206973206e6f74206960448201526a6e697469616c697a696e6760a81b6064820152608490fd5b6001600160a01b031615620014b557565b6040516303988b8160e61b8152600490fdfe604060808152610410908138038061001681610218565b93843982019181818403126102135780516001600160a01b038116808203610213576020838101516001600160401b0394919391858211610213570186601f820112156102135780519061007161006c83610253565b610218565b918083528583019886828401011161021357888661008f930161026e565b813b156101b9577f360894a13ba1a3210667c828492db98dca3e2076cc3735a920a3ca505d382bbc80546001600160a01b031916841790556000927fbc7cd75a20ee27fd9adebab32041f755214dbc6bffa90cc0225b39da2e5c2d3b8480a28051158015906101b2575b61010b575b855160cb90816103458239f35b855194606086019081118682101761019e578697849283926101889952602788527f416464726573733a206c6f772d6c6576656c2064656c65676174652063616c6c87890152660819985a5b195960ca1b8a8901525190845af4913d15610194573d9061017a61006c83610253565b91825281943d92013e610291565b508038808080806100fe565b5060609250610291565b634e487b7160e01b84526041600452602484fd5b50826100f9565b855162461bcd60e51b815260048101859052602d60248201527f455243313936373a206e657720696d706c656d656e746174696f6e206973206e60448201526c1bdd08184818dbdb9d1c9858dd609a1b6064820152608490fd5b600080fd5b6040519190601f01601f191682016001600160401b0381118382101761023d57604052565b634e487b7160e01b600052604160045260246000fd5b6001600160401b03811161023d57601f01601f191660200190565b60005b8381106102815750506000910152565b8181015183820152602001610271565b919290156102f357508151156102a5575090565b3b156102ae5790565b60405162461bcd60e51b815260206004820152601d60248201527f416464726573733a2063616c6c20746f206e6f6e2d636f6e74726163740000006044820152606490fd5b8251909150156103065750805190602001fd5b6044604051809262461bcd60e51b825260206004830152610336815180928160248601526020868601910161026e565b601f01601f19168101030190fdfe60806040523615604157600080516020607683398151915254600090819081906001600160a01b0316368280378136915af43d82803e15603d573d90f35b3d90fd5b600080516020607683398151915254600090819081906001600160a01b0316368280378136915af43d82803e15603d573d90f3fe360894a13ba1a3210667c828492db98dca3e2076cc3735a920a3ca505d382bbca264697066735822122061847e96a7ec765809df85dd5b5b49051bdf3e8e4e4c0efdb74ab6f0065c6dcf64736f6c634300081300334910fdfa16fed3260ed0e7147f7cc6da11a60208b5b9406d12a635614ffd914346756e6374696f6e206d7573742062652063616c6c6564207468726f75676820360894a13ba1a3210667c828492db98dca3e2076cc3735a920a3ca505d382bbc8be0079c531659141344cd1fd0a4f28419497f9722a3daafe3b4186f6b6457e0bc7cd75a20ee27fd9adebab32041f755214dbc6bffa90cc0225b39da2e5c2d3bbdf37c276f641820b141429d245add2552b4118c0866e5a78638e3de5ef18d9d45524331393637557067726164653a20756e737570706f727465642070726f78416464726573733a206c6f772d6c6576656c2064656c65676174652063616c6c45524331393637557067726164653a206e657720696d706c656d656e74617469a2646970667358221220009c80fee322e8ad1392858ef6a8e85e020dc3b8087d5d5a54d8e933451311db64736f6c63430008130033","linkReferences":{}},"methodIdentifiers":{"collateralVaultTemplate()":"77122d56","createRegistry((address,address,uint256,uint256,uint256,address,address,(uint256,string),address,string,bool,string,address))":"8a16135f","gardensFeeReceiver()":"b8bed901","getCommunityValidity(address)":"f5016b5e","getGardensFeeReceiver()":"987435be","getProtocolFee(address)":"0a992e0c","initialize(address,address,address)":"c0c53b8b","nonce()":"affed0e0","owner()":"8da5cb5b","proxiableUUID()":"52d1902d","registryCommunityTemplate()":"02c1d0b1","renounceOwnership()":"715018a6","setCommunityValidity(address,bool)":"5a2c8ace","setProtocolFee(address,uint256)":"b5b3ca2c","setReceiverAddress(address)":"8279c7db","transferOwnership(address)":"f2fde38b","upgradeTo(address)":"3659cfe6","upgradeToAndCall(address,bytes)":"4f1ef286"},"storageLayout":{"storage":[{"astId":53071,"contract":"pkg/contracts/src/RegistryFactoryV0_0.sol:RegistryFactoryV0_0","label":"_initialized","offset":0,"slot":"0","type":"t_uint8"},{"astId":53074,"contract":"pkg/contracts/src/RegistryFactoryV0_0.sol:RegistryFactoryV0_0","label":"_initializing","offset":1,"slot":"0","type":"t_bool"},{"astId":53776,"contract":"pkg/contracts/src/RegistryFactoryV0_0.sol:RegistryFactoryV0_0","label":"__gap","offset":0,"slot":"1","type":"t_array(t_uint256)50_storage"},{"astId":52863,"contract":"pkg/contracts/src/RegistryFactoryV0_0.sol:RegistryFactoryV0_0","label":"_owner","offset":0,"slot":"51","type":"t_address"},{"astId":52983,"contract":"pkg/contracts/src/RegistryFactoryV0_0.sol:RegistryFactoryV0_0","label":"__gap","offset":0,"slot":"52","type":"t_array(t_uint256)49_storage"},{"astId":78393,"contract":"pkg/contracts/src/RegistryFactoryV0_0.sol:RegistryFactoryV0_0","label":"nonce","offset":0,"slot":"101","type":"t_uint256"},{"astId":78398,"contract":"pkg/contracts/src/RegistryFactoryV0_0.sol:RegistryFactoryV0_0","label":"communityToInfo","offset":0,"slot":"102","type":"t_mapping(t_address,t_struct(CommunityInfo)78386_storage)"},{"astId":78400,"contract":"pkg/contracts/src/RegistryFactoryV0_0.sol:RegistryFactoryV0_0","label":"gardensFeeReceiver","offset":0,"slot":"103","type":"t_address"},{"astId":78402,"contract":"pkg/contracts/src/RegistryFactoryV0_0.sol:RegistryFactoryV0_0","label":"registryCommunityTemplate","offset":0,"slot":"104","type":"t_address"},{"astId":78404,"contract":"pkg/contracts/src/RegistryFactoryV0_0.sol:RegistryFactoryV0_0","label":"collateralVaultTemplate","offset":0,"slot":"105","type":"t_address"},{"astId":78695,"contract":"pkg/contracts/src/RegistryFactoryV0_0.sol:RegistryFactoryV0_0","label":"__gap","offset":0,"slot":"106","type":"t_array(t_uint256)50_storage"}],"types":{"t_address":{"encoding":"inplace","label":"address","numberOfBytes":"20"},"t_array(t_uint256)49_storage":{"encoding":"inplace","label":"uint256[49]","numberOfBytes":"1568","base":"t_uint256"},"t_array(t_uint256)50_storage":{"encoding":"inplace","label":"uint256[50]","numberOfBytes":"1600","base":"t_uint256"},"t_bool":{"encoding":"inplace","label":"bool","numberOfBytes":"1"},"t_mapping(t_address,t_struct(CommunityInfo)78386_storage)":{"encoding":"mapping","key":"t_address","label":"mapping(address => struct CommunityInfo)","numberOfBytes":"32","value":"t_struct(CommunityInfo)78386_storage"},"t_struct(CommunityInfo)78386_storage":{"encoding":"inplace","label":"struct CommunityInfo","numberOfBytes":"64","members":[{"astId":78383,"contract":"pkg/contracts/src/RegistryFactoryV0_0.sol:RegistryFactoryV0_0","label":"fee","offset":0,"slot":"0","type":"t_uint256"},{"astId":78385,"contract":"pkg/contracts/src/RegistryFactoryV0_0.sol:RegistryFactoryV0_0","label":"valid","offset":0,"slot":"1","type":"t_bool"}]},"t_uint256":{"encoding":"inplace","label":"uint256","numberOfBytes":"32"},"t_uint8":{"encoding":"inplace","label":"uint8","numberOfBytes":"1"}}},"id":117}