{"abi":[{"type":"function","name":"createRegistry","inputs":[{"name":"params","type":"tuple","internalType":"struct RegistryCommunityV0_0.InitializeParams","components":[{"name":"_allo","type":"address","internalType":"address"},{"name":"_gardenToken","type":"address","internalType":"contract IERC20"},{"name":"_registerStakeAmount","type":"uint256","internalType":"uint256"},{"name":"_communityFee","type":"uint256","internalType":"uint256"},{"name":"_nonce","type":"uint256","internalType":"uint256"},{"name":"_registryFactory","type":"address","internalType":"address"},{"name":"_feeReceiver","type":"address","internalType":"address"},{"name":"_metadata","type":"tuple","internalType":"struct Metadata","components":[{"name":"protocol","type":"uint256","internalType":"uint256"},{"name":"pointer","type":"string","internalType":"string"}]},{"name":"_councilSafe","type":"address","internalType":"address payable"},{"name":"_communityName","type":"string","internalType":"string"},{"name":"_isKickEnabled","type":"bool","internalType":"bool"},{"name":"covenantIpfsHash","type":"string","internalType":"string"},{"name":"_strategyTemplate","type":"address","internalType":"address"}]}],"outputs":[{"name":"_createdRegistryAddress","type":"address","internalType":"address"}],"stateMutability":"nonpayable"},{"type":"function","name":"gardensFeeReceiver","inputs":[],"outputs":[{"name":"","type":"address","internalType":"address"}],"stateMutability":"view"},{"type":"function","name":"getCommunityValidity","inputs":[{"name":"_community","type":"address","internalType":"address"}],"outputs":[{"name":"","type":"bool","internalType":"bool"}],"stateMutability":"view"},{"type":"function","name":"getGardensFeeReceiver","inputs":[],"outputs":[{"name":"","type":"address","internalType":"address"}],"stateMutability":"view"},{"type":"function","name":"getProtocolFee","inputs":[{"name":"_community","type":"address","internalType":"address"}],"outputs":[{"name":"","type":"uint256","internalType":"uint256"}],"stateMutability":"view"},{"type":"function","name":"initialize","inputs":[{"name":"_gardensFeeReceiver","type":"address","internalType":"address"}],"outputs":[],"stateMutability":"nonpayable"},{"type":"function","name":"nonce","inputs":[],"outputs":[{"name":"","type":"uint256","internalType":"uint256"}],"stateMutability":"view"},{"type":"function","name":"owner","inputs":[],"outputs":[{"name":"","type":"address","internalType":"address"}],"stateMutability":"view"},{"type":"function","name":"proxiableUUID","inputs":[],"outputs":[{"name":"","type":"bytes32","internalType":"bytes32"}],"stateMutability":"view"},{"type":"function","name":"renounceOwnership","inputs":[],"outputs":[],"stateMutability":"nonpayable"},{"type":"function","name":"setCommunityValidity","inputs":[{"name":"_community","type":"address","internalType":"address"},{"name":"_isValid","type":"bool","internalType":"bool"}],"outputs":[],"stateMutability":"nonpayable"},{"type":"function","name":"setProtocolFee","inputs":[{"name":"_community","type":"address","internalType":"address"},{"name":"_newProtocolFee","type":"uint256","internalType":"uint256"}],"outputs":[],"stateMutability":"nonpayable"},{"type":"function","name":"setReceiverAddress","inputs":[{"name":"_newFeeReceiver","type":"address","internalType":"address"}],"outputs":[],"stateMutability":"nonpayable"},{"type":"function","name":"transferOwnership","inputs":[{"name":"newOwner","type":"address","internalType":"address"}],"outputs":[],"stateMutability":"nonpayable"},{"type":"function","name":"upgradeTo","inputs":[{"name":"newImplementation","type":"address","internalType":"address"}],"outputs":[],"stateMutability":"nonpayable"},{"type":"function","name":"upgradeToAndCall","inputs":[{"name":"newImplementation","type":"address","internalType":"address"},{"name":"data","type":"bytes","internalType":"bytes"}],"outputs":[],"stateMutability":"payable"},{"type":"event","name":"AdminChanged","inputs":[{"name":"previousAdmin","type":"address","indexed":false,"internalType":"address"},{"name":"newAdmin","type":"address","indexed":false,"internalType":"address"}],"anonymous":false},{"type":"event","name":"BeaconUpgraded","inputs":[{"name":"beacon","type":"address","indexed":true,"internalType":"address"}],"anonymous":false},{"type":"event","name":"CommunityCreated","inputs":[{"name":"_registryCommunity","type":"address","indexed":false,"internalType":"address"}],"anonymous":false},{"type":"event","name":"CommunityValiditySet","inputs":[{"name":"_community","type":"address","indexed":false,"internalType":"address"},{"name":"_isValid","type":"bool","indexed":false,"internalType":"bool"}],"anonymous":false},{"type":"event","name":"FeeReceiverSet","inputs":[{"name":"_newFeeReceiver","type":"address","indexed":false,"internalType":"address"}],"anonymous":false},{"type":"event","name":"Initialized","inputs":[{"name":"version","type":"uint8","indexed":false,"internalType":"uint8"}],"anonymous":false},{"type":"event","name":"OwnershipTransferred","inputs":[{"name":"previousOwner","type":"address","indexed":true,"internalType":"address"},{"name":"newOwner","type":"address","indexed":true,"internalType":"address"}],"anonymous":false},{"type":"event","name":"ProtocolFeeSet","inputs":[{"name":"_community","type":"address","indexed":false,"internalType":"address"},{"name":"_newProtocolFee","type":"uint256","indexed":false,"internalType":"uint256"}],"anonymous":false},{"type":"event","name":"Upgraded","inputs":[{"name":"implementation","type":"address","indexed":true,"internalType":"address"}],"anonymous":false},{"type":"error","name":"AddressCannotBeZero","inputs":[]},{"type":"error","name":"CommunityInvalid","inputs":[{"name":"_community","type":"address","internalType":"address"}]}],"bytecode":{"object":"0x60a06040523060805234801561001457600080fd5b5060805161efbd6200004d6000396000818161040001528181610487015281816105840152818161060b01526106fc015261efbd6000f3fe608060405260043610620001075760003560e01c80638da5cb5b1162000095578063b8bed9011162000060578063b8bed90114620002b7578063c4d66de814620002d9578063f2fde38b14620002fe578063f5016b5e146200032357600080fd5b80638da5cb5b146200023a578063987435be146200025a578063affed0e0146200027a578063b5b3ca2c146200029257600080fd5b80635a2c8ace11620000d65780635a2c8ace146200019a578063715018a614620001bf5780638279c7db14620001d75780638a16135f14620001fc57600080fd5b80630a992e0c146200010c5780633659cfe614620001445780634f1ef286146200016b57806352d1902d1462000182575b600080fd5b3480156200011957600080fd5b50620001316200012b36600462001346565b62000374565b6040519081526020015b60405180910390f35b3480156200015157600080fd5b50620001696200016336600462001346565b620003f6565b005b620001696200017c36600462001426565b6200057a565b3480156200018f57600080fd5b5062000131620006ef565b348015620001a757600080fd5b5062000169620001b9366004620014a2565b620007b6565b348015620001cc57600080fd5b506200016962000827565b348015620001e457600080fd5b5062000169620001f636600462001346565b6200083f565b3480156200020957600080fd5b50620002216200021b36600462001575565b620008b5565b6040516001600160a01b0390911681526020016200013b565b3480156200024757600080fd5b506033546001600160a01b031662000221565b3480156200026757600080fd5b506067546001600160a01b031662000221565b3480156200028757600080fd5b506200013160655481565b3480156200029f57600080fd5b5062000169620002b1366004620016e7565b62000a3a565b348015620002c457600080fd5b5060675462000221906001600160a01b031681565b348015620002e657600080fd5b5062000169620002f836600462001346565b62000a96565b3480156200030b57600080fd5b50620001696200031d36600462001346565b62000c27565b3480156200033057600080fd5b50620003636200034236600462001346565b6001600160a01b031660009081526066602052604090206001015460ff1690565b60405190151581526020016200013b565b6001600160a01b03811660009081526066602052604081206001015460ff16620003da576040517ff5a6943d0000000000000000000000000000000000000000000000000000000081526001600160a01b03831660048201526024015b60405180910390fd5b506001600160a01b031660009081526066602052604090205490565b6001600160a01b037f0000000000000000000000000000000000000000000000000000000000000000163003620004855760405162461bcd60e51b815260206004820152602c60248201527f46756e6374696f6e206d7573742062652063616c6c6564207468726f7567682060448201526b19195b1959d85d1958d85b1b60a21b6064820152608401620003d1565b7f00000000000000000000000000000000000000000000000000000000000000006001600160a01b0316620004e17f360894a13ba1a3210667c828492db98dca3e2076cc3735a920a3ca505d382bbc546001600160a01b031690565b6001600160a01b0316146200054e5760405162461bcd60e51b815260206004820152602c60248201527f46756e6374696f6e206d7573742062652063616c6c6564207468726f7567682060448201526b6163746976652070726f787960a01b6064820152608401620003d1565b620005598162000cba565b60408051600080825260208201909252620005779183919062000cc4565b50565b6001600160a01b037f0000000000000000000000000000000000000000000000000000000000000000163003620006095760405162461bcd60e51b815260206004820152602c60248201527f46756e6374696f6e206d7573742062652063616c6c6564207468726f7567682060448201526b19195b1959d85d1958d85b1b60a21b6064820152608401620003d1565b7f00000000000000000000000000000000000000000000000000000000000000006001600160a01b0316620006657f360894a13ba1a3210667c828492db98dca3e2076cc3735a920a3ca505d382bbc546001600160a01b031690565b6001600160a01b031614620006d25760405162461bcd60e51b815260206004820152602c60248201527f46756e6374696f6e206d7573742062652063616c6c6564207468726f7567682060448201526b6163746976652070726f787960a01b6064820152608401620003d1565b620006dd8262000cba565b620006eb8282600162000cc4565b5050565b6000306001600160a01b037f00000000000000000000000000000000000000000000000000000000000000001614620007915760405162461bcd60e51b815260206004820152603860248201527f555550535570677261646561626c653a206d757374206e6f742062652063616c60448201527f6c6564207468726f7567682064656c656761746563616c6c00000000000000006064820152608401620003d1565b507f360894a13ba1a3210667c828492db98dca3e2076cc3735a920a3ca505d382bbc90565b620007c062000e75565b6001600160a01b038216600081815260666020908152604091829020600101805460ff19168515159081179091558251938452908301527fecdcd3502799a6c41864ea2682236184e876f63e10f8d56c7768a3d501e89f6291015b60405180910390a15050565b6200083162000e75565b6200083d600062000ed1565b565b6200084962000e75565b620008548162000f30565b6067805473ffffffffffffffffffffffffffffffffffffffff19166001600160a01b0383169081179091556040519081527fbdf37c276f641820b141429d245add2552b4118c0866e5a78638e3de5ef18d9d9060200160405180910390a150565b6065805460009182620008c88362001716565b9091555060808301523060a0830152604051600090620008e89062001302565b604051809103906000f08015801562000905573d6000803e3d6000fd5b506040517f96f0adec00000000000000000000000000000000000000000000000000000000906200093b908690602401620017b3565b60408051601f198184030181529181526020820180517bffffffffffffffffffffffffffffffffffffffffffffffffffffffff167fffffffff00000000000000000000000000000000000000000000000000000000909416939093179092529051620009a79062001310565b620009b4929190620018fe565b604051809103906000f080158015620009d1573d6000803e3d6000fd5b506001600160a01b0381166000818152606660209081526040918290206001908101805460ff19169091179055905191825291925082917fb4108a188495a1a681cdc0750af164011025a1773b41e93ff3e628adc037dc29910160405180910390a19392505050565b62000a4462000e75565b6001600160a01b038216600081815260666020908152604091829020849055815192835282018390527fa1ee82e4f177a8017f33ddddac05b7ceab1de9d46f7195e15e8aa2e8b88f3b1c91016200081b565b600054610100900460ff161580801562000ab75750600054600160ff909116105b8062000ad35750303b15801562000ad3575060005460ff166001145b62000b475760405162461bcd60e51b815260206004820152602e60248201527f496e697469616c697a61626c653a20636f6e747261637420697320616c72656160448201527f647920696e697469616c697a65640000000000000000000000000000000000006064820152608401620003d1565b6000805460ff19166001179055801562000b6b576000805461ff0019166101001790555b62000b7562000f71565b600060655562000b858262000f30565b6067805473ffffffffffffffffffffffffffffffffffffffff19166001600160a01b0384169081179091556040519081527fbdf37c276f641820b141429d245add2552b4118c0866e5a78638e3de5ef18d9d9060200160405180910390a18015620006eb576000805461ff0019169055604051600181527f7f26b83ff96e1f2b6a682f133852f6798a09c465da95921460cefb3847402498906020016200081b565b62000c3162000e75565b6001600160a01b03811662000caf5760405162461bcd60e51b815260206004820152602660248201527f4f776e61626c653a206e6577206f776e657220697320746865207a65726f206160448201527f64647265737300000000000000000000000000000000000000000000000000006064820152608401620003d1565b620005778162000ed1565b6200057762000e75565b7f4910fdfa16fed3260ed0e7147f7cc6da11a60208b5b9406d12a635614ffd91435460ff161562000cff5762000cfa8362000fe8565b505050565b826001600160a01b03166352d1902d6040518163ffffffff1660e01b8152600401602060405180830381865afa92505050801562000d5c575060408051601f3d908101601f1916820190925262000d599181019062001922565b60015b62000dd05760405162461bcd60e51b815260206004820152602e60248201527f45524331393637557067726164653a206e657720696d706c656d656e7461746960448201527f6f6e206973206e6f7420555550530000000000000000000000000000000000006064820152608401620003d1565b7f360894a13ba1a3210667c828492db98dca3e2076cc3735a920a3ca505d382bbc811462000e675760405162461bcd60e51b815260206004820152602960248201527f45524331393637557067726164653a20756e737570706f727465642070726f7860448201527f6961626c655555494400000000000000000000000000000000000000000000006064820152608401620003d1565b5062000cfa838383620010b5565b6033546001600160a01b031633146200083d5760405162461bcd60e51b815260206004820181905260248201527f4f776e61626c653a2063616c6c6572206973206e6f7420746865206f776e65726044820152606401620003d1565b603380546001600160a01b0383811673ffffffffffffffffffffffffffffffffffffffff19831681179093556040519116919082907f8be0079c531659141344cd1fd0a4f28419497f9722a3daafe3b4186f6b6457e090600090a35050565b6001600160a01b03811662000577576040517fe622e04000000000000000000000000000000000000000000000000000000000815260040160405180910390fd5b600054610100900460ff1662000fde5760405162461bcd60e51b815260206004820152602b60248201527f496e697469616c697a61626c653a20636f6e7472616374206973206e6f74206960448201526a6e697469616c697a696e6760a81b6064820152608401620003d1565b6200083d620010e6565b6001600160a01b0381163b620010675760405162461bcd60e51b815260206004820152602d60248201527f455243313936373a206e657720696d706c656d656e746174696f6e206973206e60448201527f6f74206120636f6e7472616374000000000000000000000000000000000000006064820152608401620003d1565b7f360894a13ba1a3210667c828492db98dca3e2076cc3735a920a3ca505d382bbc805473ffffffffffffffffffffffffffffffffffffffff19166001600160a01b0392909216919091179055565b620010c0836200115e565b600082511180620010ce5750805b1562000cfa57620010e08383620011a0565b50505050565b600054610100900460ff16620011535760405162461bcd60e51b815260206004820152602b60248201527f496e697469616c697a61626c653a20636f6e7472616374206973206e6f74206960448201526a6e697469616c697a696e6760a81b6064820152608401620003d1565b6200083d3362000ed1565b620011698162000fe8565b6040516001600160a01b038216907fbc7cd75a20ee27fd9adebab32041f755214dbc6bffa90cc0225b39da2e5c2d3b90600090a250565b6060620011c883836040518060600160405280602781526020016200ef6160279139620011cf565b9392505050565b6060600080856001600160a01b031685604051620011ee91906200193c565b600060405180830381855af49150503d80600081146200122b576040519150601f19603f3d011682016040523d82523d6000602084013e62001230565b606091505b509150915062001243868383876200124d565b9695505050505050565b60608315620012c1578251600003620012b9576001600160a01b0385163b620012b95760405162461bcd60e51b815260206004820152601d60248201527f416464726573733a2063616c6c20746f206e6f6e2d636f6e74726163740000006044820152606401620003d1565b5081620012cd565b620012cd8383620012d5565b949350505050565b815115620012e65781518083602001fd5b8060405162461bcd60e51b8152600401620003d191906200195a565b61d103806200197083390190565b6104ee806200ea7383390190565b6001600160a01b03811681146200057757600080fd5b803562001341816200131e565b919050565b6000602082840312156200135957600080fd5b8135620011c8816200131e565b634e487b7160e01b600052604160045260246000fd5b6040516101a0810167ffffffffffffffff81118282101715620013a357620013a362001366565b60405290565b600067ffffffffffffffff80841115620013c757620013c762001366565b604051601f8501601f19908116603f01168101908282118183101715620013f257620013f262001366565b816040528093508581528686860111156200140c57600080fd5b858560208301376000602087830101525050509392505050565b600080604083850312156200143a57600080fd5b823562001447816200131e565b9150602083013567ffffffffffffffff8111156200146457600080fd5b8301601f810185136200147657600080fd5b6200148785823560208401620013a9565b9150509250929050565b803580151581146200134157600080fd5b60008060408385031215620014b657600080fd5b8235620014c3816200131e565b9150620014d36020840162001491565b90509250929050565b600082601f830112620014ee57600080fd5b620011c883833560208501620013a9565b6000604082840312156200151257600080fd5b6040516040810167ffffffffffffffff828210818311171562001539576200153962001366565b816040528293508435835260208501359150808211156200155957600080fd5b506200156885828601620014dc565b6020830152505092915050565b6000602082840312156200158857600080fd5b813567ffffffffffffffff80821115620015a157600080fd5b908301906101a08286031215620015b757600080fd5b620015c16200137c565b620015cc8362001334565b8152620015dc6020840162001334565b60208201526040830135604082015260608301356060820152608083013560808201526200160d60a0840162001334565b60a08201526200162060c0840162001334565b60c082015260e0830135828111156200163857600080fd5b6200164687828601620014ff565b60e0830152506101006200165c81850162001334565b9082015261012083810135838111156200167557600080fd5b6200168388828701620014dc565b8284015250506101406200169981850162001491565b908201526101608381013583811115620016b257600080fd5b620016c088828701620014dc565b8284015250506101809150620016d882840162001334565b91810191909152949350505050565b60008060408385031215620016fb57600080fd5b823562001708816200131e565b946020939093013593505050565b6000600182016200173757634e487b7160e01b600052601160045260246000fd5b5060010190565b60005b838110156200175b57818101518382015260200162001741565b50506000910152565b600081518084526200177e8160208601602086016200173e565b601f01601f19169290920160200192915050565b805182526000602082015160406020850152620012cd604085018262001764565b60208152620017ce6020820183516001600160a01b03169052565b60006020830151620017eb60408401826001600160a01b03169052565b506040830151606083015260608301516080830152608083015160a083015260a08301516200182560c08401826001600160a01b03169052565b5060c08301516001600160a01b03811660e08401525060e08301516101a061010081818601526200185b6101c086018462001792565b908601519092506101206200187a868201836001600160a01b03169052565b80870151915050601f196101408187860301818801526200189c858462001764565b945080880151925050610160620018b68188018415159052565b80880151925050610180818786030181880152620018d5858462001764565b94508088015192505050620018f4828601826001600160a01b03169052565b5090949350505050565b6001600160a01b0383168152604060208201526000620012cd604083018462001764565b6000602082840312156200193557600080fd5b5051919050565b60008251620019508184602087016200173e565b9190910192915050565b602081526000620011c860208301846200176456fe60a06040523060805234801561001457600080fd5b5060805161d0b66200004d60003960008181611aa501528181611b2c01528181611e2701528181611eae0152611f9b015261d0b66000f3fe608060405260043610620003ef5760003560e01c80636871eb4d116200020f578063a0cf0aea1162000123578063c6d572ae11620000ad578063db61d65c1162000078578063db61d65c1462000cff578063ebd7dc521462000d22578063f2fde38b1462000d47578063f86c5f891462000d6c57600080fd5b8063c6d572ae1462000c87578063d547741f1462000c9f578063d6d8428d1462000cc4578063d7050f071462000ce757600080fd5b8063b5058c5011620000ee578063b5058c501462000c18578063b64e39af1462000c30578063b99b43701462000c57578063bc063e1a1462000c6f57600080fd5b8063a0cf0aea1462000b4c578063a217fddf1462000b76578063a230c5241462000b8d578063b3f006741462000bf657600080fd5b806378a0b8a911620001a55780638961be6b11620001705780638961be6b1462000aa55780638da5cb5b1462000abd57806391d148541462000add57806396f0adec1462000b2757600080fd5b806378a0b8a914620009cf5780637b10399914620009e757806382d6a1e71462000a0a57806388cfe6841462000a2f57600080fd5b8063715018a611620001e6578063715018a6146200091157806373265c371462000929578063733a2d1f146200094e5780637817ee4f146200098457600080fd5b80636871eb4d14620008a657806368decabb14620008cb5780636c53db9a14620008ee57600080fd5b806331f61bca1162000307578063477a5cc0116200029d578063559de05d1162000268578063559de05d14620007fc5780635c94e4d214620008215780635ecf71c5146200084457806365e3864c146200086957600080fd5b8063477a5cc014620007685780634950d28a14620007a85780634f1ef28614620007cd57806352d1902d14620007e457600080fd5b806336568abe11620002de57806336568abe14620006c45780633659cfe614620006e9578063397e2543146200070e5780633a871fe1146200073357600080fd5b806331f61bca146200066e5780633396045914620006935780633517aa7d14620006ac57600080fd5b8063223e547911620003895780632b38c69c11620003545780632b38c69c146200058a5780632c611c4a14620005c85780632f2ff15d146200060657806331b8701d146200062b57600080fd5b8063223e547914620004f457806322bcf9991462000519578063248a9ca3146200053e57806328c309e9146200057257600080fd5b80630d12bbdb11620003ca5780630d12bbdb14620004675780630d4a8b49146200048e578063175188e814620004b35780631f787d2814620004d857600080fd5b806301ffc9a714620003f45780630331383c146200042e57806308386eba146200044f575b600080fd5b3480156200040157600080fd5b50620004196200041336600462004ce0565b62000d8f565b60405190151581526020015b60405180910390f35b3480156200043b57600080fd5b5060fc545b60405190815260200162000425565b3480156200045c57600080fd5b506200044060fe5481565b3480156200047457600080fd5b506200048c6200048636600462004d0c565b62000de0565b005b3480156200049b57600080fd5b506200048c620004ad36600462004d4e565b62000e6f565b348015620004c057600080fd5b506200048c620004d236600462004d8c565b620011f7565b348015620004e557600080fd5b5060fb54620004199060ff1681565b3480156200050157600080fd5b506200048c6200051336600462004d8c565b6200120f565b3480156200052657600080fd5b506200048c6200053836600462004d4e565b62001224565b3480156200054b57600080fd5b50620004406200055d36600462004d0c565b600090815260c9602052604090206001015490565b3480156200057f57600080fd5b506200044062001340565b3480156200059757600080fd5b50620005af620005a936600462004dac565b6200143e565b6040516001600160a01b03909116815260200162000425565b348015620005d557600080fd5b5062000440620005e736600462004d8c565b6001600160a01b0316600090815261010c602052604090206001015490565b3480156200061357600080fd5b506200048c6200062536600462004ddb565b62001478565b3480156200063857600080fd5b50620006506200064a366004620051b0565b620014a6565b604080519283526001600160a01b0390911660208301520162000425565b3480156200067b57600080fd5b506200048c6200068d36600462004d0c565b6200158b565b348015620006a057600080fd5b50620004406101025481565b348015620006b957600080fd5b506200048c620015cb565b348015620006d157600080fd5b506200048c620006e336600462004ddb565b62001a07565b348015620006f657600080fd5b506200048c6200070836600462004d8c565b62001a9b565b3480156200071b57600080fd5b506200048c6200072d36600462004d8c565b62001c1c565b3480156200074057600080fd5b50620004196200075236600462004d8c565b61010a6020526000908152604090205460ff1681565b3480156200077557600080fd5b50620004196200078736600462004d4e565b61010e60209081526000928352604080842090915290825290205460ff1681565b348015620007b557600080fd5b5062000650620007c73660046200521b565b62001c90565b6200048c620007de3660046200529b565b62001e1d565b348015620007f157600080fd5b506200044062001f8e565b3480156200080957600080fd5b506200048c6200081b36600462004d0c565b62002055565b3480156200082e57600080fd5b5061010154620005af906001600160a01b031681565b3480156200085157600080fd5b506200048c6200086336600462004d0c565b62002354565b3480156200087657600080fd5b50620004406200088836600462004d4e565b61010b60209081526000928352604080842090915290825290205481565b348015620008b357600080fd5b506200048c620008c536600462004d4e565b62002745565b348015620008d857600080fd5b5061010354620005af906001600160a01b031681565b348015620008fb57600080fd5b5061010654620005af906001600160a01b031681565b3480156200091e57600080fd5b506200048c62002960565b3480156200093657600080fd5b506200048c6200094836600462004d0c565b62002976565b3480156200095b57600080fd5b50620004407f03be538b6391ddcd7f2649585cc95b120c9e2a613f70714fbb55345057d809fa81565b3480156200099157600080fd5b5062000440620009a336600462004d4e565b6001600160a01b03918216600090815261010b6020908152604080832093909416825291909152205490565b348015620009dc57600080fd5b506200044060fc5481565b348015620009f457600080fd5b5061010454620005af906001600160a01b031681565b34801562000a1757600080fd5b506200048c62000a2936600462004d0c565b62002a12565b34801562000a3c57600080fd5b5062000a7d62000a4e36600462004d8c565b61010c602052600090815260409020805460018201546002909201546001600160a01b03909116919060ff1683565b604080516001600160a01b039094168452602084019290925215159082015260600162000425565b34801562000ab257600080fd5b506200044060fd5481565b34801562000aca57600080fd5b506033546001600160a01b0316620005af565b34801562000aea57600080fd5b506200041962000afc36600462004ddb565b600091825260c9602090815260408084206001600160a01b0393909316845291905290205460ff1690565b34801562000b3457600080fd5b506200048c62000b4636600462005322565b62002ad0565b34801562000b5957600080fd5b50620005af73eeeeeeeeeeeeeeeeeeeeeeeeeeeeeeeeeeeeeeee81565b34801562000b8357600080fd5b5062000440600081565b34801562000b9a57600080fd5b506200041962000bac36600462004d8c565b6001600160a01b03908116600090815261010c60209081526040918290208251606081018452815490941684526001810154918401919091526002015460ff161515910181905290565b34801562000c0357600080fd5b5060ff54620005af906001600160a01b031681565b34801562000c2557600080fd5b506200048c62003166565b34801562000c3d57600080fd5b5062000c48620031b6565b604051620004259190620054e8565b34801562000c6457600080fd5b506200048c6200324d565b34801562000c7c57600080fd5b5062000440620033bf565b34801562000c9457600080fd5b5062000c48620033d1565b34801562000cac57600080fd5b506200048c62000cbe36600462004ddb565b620033e1565b34801562000cd157600080fd5b5061010754620005af906001600160a01b031681565b34801562000cf457600080fd5b506200044061271081565b34801562000d0c57600080fd5b5061010554620005af906001600160a01b031681565b34801562000d2f57600080fd5b506200041962000d4136600462004d8c565b6200340a565b34801562000d5457600080fd5b506200048c62000d6636600462004d8c565b6200344b565b34801562000d7957600080fd5b5061010054620005af906001600160a01b031681565b60006001600160e01b031982167f7965db0b00000000000000000000000000000000000000000000000000000000148062000dda57506301ffc9a760e01b6001600160e01b03198316145b92915050565b62000dea620034de565b62000df9612710600a62005513565b81111562000e33576040517ffe925f7d00000000000000000000000000000000000000000000000000000000815260040160405180910390fd5b60fd8190556040518181527f611668bfcf654a99c33cdb66c29ec37a5aae5c1287d2d9715a24e18cb4d806d6906020015b60405180910390a150565b62000e7a8262003547565b62000e8581620035ac565b62000e908162003600565b6001600160a01b03808316600090815261010e602090815260408083209385168352929052205460ff161562000ef2576040517fd5b9bc9600000000000000000000000000000000000000000000000000000000815260040160405180910390fd5b6001600160a01b03808316600090815261010c602090815260409182902082516060810184528154909416845260018101549184018290526002015460ff1615159183019190915260fc546003846001600160a01b031663c32921716040518163ffffffff1660e01b81526004016020604051808303816000875af115801562000f80573d6000803e3d6000fd5b505050506040513d601f19601f8201168201806040525081019062000fa6919062005543565b600381111562000fba5762000fba6200552d565b036200103e5760405163782aadff60e01b81526001600160a01b0386811660048301526000602483015285169063782aadff906044016020604051808303816000875af115801562001010573d6000803e3d6000fd5b505050506040513d601f19601f8201168201806040525081019062001036919062005563565b90506200113a565b6000846001600160a01b031663c32921716040518163ffffffff1660e01b81526004016020604051808303816000875af115801562001081573d6000803e3d6000fd5b505050506040513d601f19601f82011682018060405250810190620010a7919062005543565b6003811115620010bb57620010bb6200552d565b146200113a5760405163782aadff60e01b81526001600160a01b0386811660048301526024820184905285169063782aadff906044016020604051808303816000875af115801562001111573d6000803e3d6000fd5b505050506040513d601f19601f8201168201806040525081019062001137919062005563565b90505b6001600160a01b03858116600081815261010b6020908152604080832094891680845294825280832086905583835261010e82528083208584528252808320805460ff1916600190811790915584845261010d83528184208054918201815584529282902090920180546001600160a01b0319168517905581519283528201929092529081018290527ff56fa57e85e169a12200d12d9921ec069b52e688f6d309d9dab7bceff54614ec9060600160405180910390a15050505050565b62001201620034de565b6200120c8162003641565b50565b62001219620034de565b6200120c816200369f565b6200122f8262003547565b6200123a8162003600565b620012463382620037ea565b6001600160a01b03808316600090815261010e602090815260408083209385168352929052205460ff16620012a7576040517fc12369dc00000000000000000000000000000000000000000000000000000000815260040160405180910390fd5b6001600160a01b03808316600081815261010e60209081526040808320948616808452948252808320805460ff1916905592825261010b815282822093825292909252812055620012f9828262003836565b604080516001600160a01b038085168252831660208201527ede109bef4619f7e2cf00c8e5a50ca55f8deb44f87087eed414a91dbf8d1d1b91015b60405180910390a15050565b610100546000906001600160a01b03168162001360612710606462005513565b60fd5460fc5462001372919062005513565b6200137e91906200557d565b9050600062001391612710606462005513565b6040516302a64b8360e21b81523060048201526001600160a01b03851690630a992e0c90602401602060405180830381865afa158015620013d6573d6000803e3d6000fd5b505050506040513d601f19601f82011682018060405250810190620013fc919062005563565b60fc546200140b919062005513565b6200141791906200557d565b9050808260fc546200142a9190620055a0565b620014369190620055a0565b935050505090565b61010d60205281600052604060002081815481106200145c57600080fd5b6000918252602090912001546001600160a01b03169150829050565b600082815260c9602052604090206001015462001495816200396c565b620014a1838362003978565b505050565b6000806000604051620014b99062004c28565b604051809103906000f080158015620014d6573d6000803e3d6000fd5b5061010754604080516001600160a01b0390921660248084019190915281518084039091018152604490920181526020820180516001600160e01b03167f19ab453c0000000000000000000000000000000000000000000000000000000017905251620015439062004c36565b62001550929190620055b6565b604051809103906000f0801580156200156d573d6000803e3d6000fd5b5090506200157e8187878762001c90565b9250925050935093915050565b62001595620034de565b60fc8190556040518181527f5bcc2c453001fb0e2ba6266d56ecb411e7c6e15c8f9c3d301f93dd36ad25726f9060200162000e64565b620015d562003a1c565b33600081815261010c602052604081206101005490916001600160a01b039091169062001606612710606462005513565b60fd5460fc5462001618919062005513565b6200162491906200557d565b9050600062001637612710606462005513565b6040516302a64b8360e21b81523060048201526001600160a01b03851690630a992e0c90602401602060405180830381865afa1580156200167c573d6000803e3d6000fd5b505050506040513d601f19601f82011682018060405250810190620016a2919062005563565b60fc54620016b1919062005513565b620016bd91906200557d565b6001600160a01b03808716600090815261010c60209081526040918290208251606081018452815490941684526001810154918401919091526002015460ff1615159101819052909150620019f55760028401805460ff1916600190811790915560fc549085015560408051808201909152600b81527f67617264656e546f6b656e0000000000000000000000000000000000000000006020820152610105546200177291906001600160a01b031662003a77565b620017ab8530838560fc54620017899190620055a0565b620017959190620055a0565b610105546001600160a01b031692919062003ad9565b620017ec6040518060400160405280601281526020017f636f6d6d756e697479466565416d6f756e7400000000000000000000000000008152508362003b5f565b81156200185f5760408051808201909152600b81527f6665655265636569766572000000000000000000000000000000000000000000602082015260ff546200183f91906001600160a01b031662003a77565b60ff54610105546200185f916001600160a01b0391821691168462003bc1565b620018a06040518060400160405280601081526020017f67617264656e73466565416d6f756e74000000000000000000000000000000008152508262003b5f565b8015620019ae57620019306040518060600160405280602681526020016200d03460269139846001600160a01b031663987435be6040518163ffffffff1660e01b8152600401602060405180830381865afa15801562001904573d6000803e3d6000fd5b505050506040513d601f19601f820116820180604052508101906200192a9190620055da565b62003a77565b620019ae836001600160a01b031663987435be6040518163ffffffff1660e01b8152600401602060405180830381865afa15801562001973573d6000803e3d6000fd5b505050506040513d601f19601f82011682018060405250810190620019999190620055da565b610105546001600160a01b0316908362003bc1565b60fc54604080516001600160a01b038816815260208101929092527f67e0244e28040fec15240cd4b6c04c776a2a0278caef23b59e8ada1df31f7689910160405180910390a15b505050505062001a056001606555565b565b6001600160a01b038116331462001a8b5760405162461bcd60e51b815260206004820152602f60248201527f416363657373436f6e74726f6c3a2063616e206f6e6c792072656e6f756e636560448201527f20726f6c657320666f722073656c66000000000000000000000000000000000060648201526084015b60405180910390fd5b62001a97828262003bfa565b5050565b6001600160a01b037f000000000000000000000000000000000000000000000000000000000000000016300362001b2a5760405162461bcd60e51b815260206004820152602c60248201527f46756e6374696f6e206d7573742062652063616c6c6564207468726f7567682060448201526b19195b1959d85d1958d85b1b60a21b606482015260840162001a82565b7f00000000000000000000000000000000000000000000000000000000000000006001600160a01b031662001b867f360894a13ba1a3210667c828492db98dca3e2076cc3735a920a3ca505d382bbc546001600160a01b031690565b6001600160a01b03161462001bf35760405162461bcd60e51b815260206004820152602c60248201527f46756e6374696f6e206d7573742062652063616c6c6564207468726f7567682060448201526b6163746976652070726f787960a01b606482015260840162001a82565b62001bfe8162003c7e565b604080516000808252602082019092526200120c9183919062003c88565b62001c26620034de565b62001c318162003600565b61010380546001600160a01b0319166001600160a01b03838116918217909255610106546040805191909316815260208101919091527f83eac9fdaff0ac1017624b7eddeb9782e3d707cd894073cb7e8301a41c6e5cf8910162000e64565b60008073eeeeeeeeeeeeeeeeeeeeeeeeeeeeeeeeeeeeeeee6001600160a01b0386161562001cbb5750845b869150600061010f80548060200260200160405190810160405280929190818152602001828054801562001d1957602002820191906000526020600020905b81546001600160a01b0316815260019091019060200180831162001cfa575b50506101075460fe546040519596506001600160a01b039091169463e1007d4a945090925087915062001d51908b9060200162005624565b6040516020818303038152906040528660008b886040518863ffffffff1660e01b815260040162001d8997969594939291906200577f565b6020604051808303816000875af115801562001da9573d6000803e3d6000fd5b505050506040513d601f19601f8201168201806040525081019062001dcf919062005563565b93507f778cac0ae0b66477341553a4a89398c61ccf448313d3354ad0ca85a5a825d2838484308a8960405162001e0a959493929190620057f1565b60405180910390a1505094509492505050565b6001600160a01b037f000000000000000000000000000000000000000000000000000000000000000016300362001eac5760405162461bcd60e51b815260206004820152602c60248201527f46756e6374696f6e206d7573742062652063616c6c6564207468726f7567682060448201526b19195b1959d85d1958d85b1b60a21b606482015260840162001a82565b7f00000000000000000000000000000000000000000000000000000000000000006001600160a01b031662001f087f360894a13ba1a3210667c828492db98dca3e2076cc3735a920a3ca505d382bbc546001600160a01b031690565b6001600160a01b03161462001f755760405162461bcd60e51b815260206004820152602c60248201527f46756e6374696f6e206d7573742062652063616c6c6564207468726f7567682060448201526b6163746976652070726f787960a01b606482015260840162001a82565b62001f808262003c7e565b62001a978282600162003c88565b6000306001600160a01b037f00000000000000000000000000000000000000000000000000000000000000001614620020305760405162461bcd60e51b815260206004820152603860248201527f555550535570677261646561626c653a206d757374206e6f742062652063616c60448201527f6c6564207468726f7567682064656c656761746563616c6c0000000000000000606482015260840162001a82565b507f360894a13ba1a3210667c828492db98dca3e2076cc3735a920a3ca505d382bbc90565b6200205f62003a1c565b6200206962003e34565b33600081815261010d6020908152604080832080548251818502810185019093528083529192909190830182828015620020cd57602002820191906000526020600020905b81546001600160a01b03168152600190910190602001808311620020ae575b50505050509050600080600090505b8251811015620022b457828181518110620020fb57620020fb6200582d565b602090810291909101015160405163782aadff60e01b81526001600160a01b038681166004830152602482018890529091169063782aadff906044016020604051808303816000875af115801562002157573d6000803e3d6000fd5b505050506040513d601f19601f820116820180604052508101906200217d919062005563565b915081156200229f576001600160a01b038416600090815261010b602052604081208451849290869085908110620021b957620021b96200582d565b60200260200101516001600160a01b03166001600160a01b031681526020019081526020016000206000828254620021f29190620055a0565b925050819055506200229f6040518060400160405280600e81526020017f537472617465677920706f77657200000000000000000000000000000000000081525061010b6000876001600160a01b03166001600160a01b0316815260200190815260200160002060008685815181106200227057620022706200582d565b60200260200101516001600160a01b03166001600160a01b031681526020019081526020016000205462003b5f565b80620022ab8162005843565b915050620020dc565b5061010554620022d0906001600160a01b031684308762003ad9565b6001600160a01b038316600090815261010c602052604081206001018054869290620022fe908490620055a0565b9091555050604080516001600160a01b0385168152602081018690527f576605f9bfe8911e7508bed3763c7c5c8eb3b86e8b360b90a4bc6abe1104cb7f91015b60405180910390a15050506200120c6001606555565b6200235e62003a1c565b6200236862003e34565b33600081815261010d6020908152604080832060fc5461010c90935290832060010154909291906200239c9086906200585f565b1015620023d5576040517f9c47d02e00000000000000000000000000000000000000000000000000000000815260040160405180910390fd5b61010554620023ef906001600160a01b0316848662003bc1565b60005b8254811015620026d15760008382815481106200241357620024136200582d565b6000918252602090912001546001600160a01b031690506200243d8163f1801e6160e01b62003e95565b15620025f5576040517f2ed04b2b0000000000000000000000000000000000000000000000000000000081526001600160a01b03868116600483015260248201889052821690632ed04b2b906044016020604051808303816000875af1158015620024ac573d6000803e3d6000fd5b505050506040513d601f19601f82011682018060405250810190620024d2919062005563565b9250600061010b6000876001600160a01b03166001600160a01b0316815260200190815260200160002060008685815481106200251357620025136200582d565b60009182526020808320909101546001600160a01b0316835282019290925260400190205490508084111562002580576040517f8a11f318000000000000000000000000000000000000000000000000000000008152600481018590526024810182905260440162001a82565b6001600160a01b038616600090815261010b602052604081208654869290889087908110620025b357620025b36200582d565b60009182526020808320909101546001600160a01b0316835282019290925260400181208054909190620025e99084906200585f565b909155505050620026bb565b8354849062002607906001906200585f565b815481106200261a576200261a6200582d565b9060005260206000200160009054906101000a90046001600160a01b03168483815481106200264d576200264d6200582d565b9060005260206000200160006101000a8154816001600160a01b0302191690836001600160a01b03160217905550838054806200268e576200268e62005875565b600082815260209020810160001990810180546001600160a01b0319169055019055620026bb8162003641565b5080620026c88162005843565b915050620023f2565b506001600160a01b038316600090815261010c602052604081206001018054869290620027009084906200585f565b9091555050604080516001600160a01b0385168152602081018690527f6ee2c70b2d6b89ae808a2313aab43e925c06624271419cd665d85cfa1ae04ff891016200233e565b6200274f62003a1c565b62002759620034de565b60fb5460ff1662002796576040517fcb63dc7200000000000000000000000000000000000000000000000000000000815260040160405180910390fd5b6001600160a01b03808316600090815261010c60209081526040918290208251606081018452815490941684526001810154918401919091526002015460ff1615159101819052620027fb57604051636a5cfb6d60e01b815260040160405180910390fd5b6001600160a01b03808316600090815261010c60209081526040918290208251606081018452815490941684526001810154918401919091526002015460ff161515908201526200284c8362003ebd565b6001600160a01b03838116600090815261010c6020908152604080832080546001600160a01b031916815560018101939093556002909201805460ff191690556101055490840151915163a9059cbb60e01b8152858416600482015260248101929092529091169063a9059cbb906044016020604051808303816000875af1158015620028dd573d6000803e3d6000fd5b505050506040513d601f19601f820116820180604052508101906200290391906200588b565b50602080820151604080516001600160a01b0380881682528616938101939093528201527fb5946f249f8744efe9d14d49a483b54a589b1362944ff6694de93456cceb96a39060600160405180910390a15062001a976001606555565b6200296a62003feb565b62001a05600062004047565b62002980620034de565b6101075460405163068bcd8d60e01b8152600481018390526000916001600160a01b03169063068bcd8d90602401600060405180830381865afa158015620029cc573d6000803e3d6000fd5b505050506040513d6000823e601f3d908101601f19168201604052620029f69190810190620058ab565b60200151905062002a078162003600565b62001a978162003641565b62002a1c620034de565b6101075460405163068bcd8d60e01b8152600481018390526000916001600160a01b03169063068bcd8d90602401600060405180830381865afa15801562002a68573d6000803e3d6000fd5b505050506040513d6000823e601f3d908101601f1916820160405262002a929190810190620058ab565b60200151905062002aa38162003600565b62002abf6001600160a01b03821663f1801e6160e01b62003e95565b1562001a975762001a97816200369f565b600054610100900460ff161580801562002af15750600054600160ff909116105b8062002b0d5750303b15801562002b0d575060005460ff166001145b62002b815760405162461bcd60e51b815260206004820152602e60248201527f496e697469616c697a61626c653a20636f6e747261637420697320616c72656160448201527f647920696e697469616c697a6564000000000000000000000000000000000000606482015260840162001a82565b6000805460ff19166001179055801562002ba5576000805461ff0019166101001790555b62002baf62004099565b62002bb962004110565b62002bc362004187565b62002bf07f03be538b6391ddcd7f2649585cc95b120c9e2a613f70714fbb55345057d809fa6000620041f4565b62002bff826020015162003600565b62002c0f82610100015162003600565b815162002c1c9062003600565b62002c2b8260a0015162003600565b62002c3b82610180015162003600565b60608201511562002c555762002c558260c0015162003600565b815161010780546001600160a01b039283166001600160a01b03199182161790915560208401516101058054919093169116179055604082015160000362002cc9576040517fc70d18aa00000000000000000000000000000000000000000000000000000000815260040160405180910390fd5b604082015160fc55606082015160fd5561014082015160fb805460ff19169115159190911790556101208201516101089062002d06908262005a70565b506101608201516101099062002d1d908262005a70565b5060a082015161010080546001600160a01b03199081166001600160a01b0393841617825560c085015160ff8054831691851691909117905590840151610106805483168285161790556101808501516101018054909316931692909217905562002daa907f03be538b6391ddcd7f2649585cc95b120c9e2a613f70714fbb55345057d809fa9062003978565b61010760009054906101000a90046001600160a01b03166001600160a01b0316635ab1bd536040518163ffffffff1660e01b8152600401602060405180830381865afa15801562002dff573d6000803e3d6000fd5b505050506040513d601f19601f8201168201806040525081019062002e259190620055da565b61010480546001600160a01b0319166001600160a01b0392831617905561010654604080517fa0e67e2b0000000000000000000000000000000000000000000000000000000081529051600093929092169163a0e67e2b9160048082019286929091908290030181865afa15801562002ea2573d6000803e3d6000fd5b505050506040513d6000823e601f3d908101601f1916820160405262002ecc919081019062005b3d565b905060008151600262002ee09190620055a0565b67ffffffffffffffff81111562002efb5762002efb62004e03565b60405190808252806020026020018201604052801562002f25578160200160208202803683370190505b50905060005b825181101562002f945782818151811062002f4a5762002f4a6200582d565b602002602001015182828151811062002f675762002f676200582d565b6001600160a01b03909216602092830291909101909101528062002f8b8162005843565b91505062002f2b565b506101065481516001600160a01b0390911690829062002fb7906001906200585f565b8151811062002fca5762002fca6200582d565b60200260200101906001600160a01b031690816001600160a01b03168152505030816002835162002ffc91906200585f565b815181106200300f576200300f6200582d565b6001600160a01b03928316602091820292909201015261010454608086015160e08701516040517f3a92f65f0000000000000000000000000000000000000000000000000000000081529290931692633a92f65f926200307b9291610108913090889060040162005c81565b6020604051808303816000875af11580156200309b573d6000803e3d6000fd5b505050506040513d601f19601f82011682018060405250810190620030c1919062005563565b60fe558051620030da9061010f90602084019062004c44565b507f2f2ffcb06f8a1d35e2716f6b43ef2c19bfa76467d8f66964ae12c2583ed0320560fe546101088660e00151604051620031189392919062005cd5565b60405180910390a15050801562001a97576000805461ff0019169055604051600181527f7f26b83ff96e1f2b6a682f133852f6798a09c465da95921460cefb38474024989060200162001334565b610103546001600160a01b03163314620031ac576040517febcd0d6e00000000000000000000000000000000000000000000000000000000815260040160405180910390fd5b62001a056200423f565b6101098054620031c690620059e2565b80601f0160208091040260200160405190810160405280929190818152602001828054620031f490620059e2565b8015620032455780601f10620032195761010080835404028352916020019162003245565b820191906000526020600020905b8154815290600101906020018083116200322757829003601f168201915b505050505081565b6200325762003a1c565b33620032638162003547565b6200326e8162003ebd565b6001600160a01b03808216600081815261010c602090815260408083208151606081018352815496871681526001820180548286015260028301805460ff81161515848701529787526001600160a01b03199098169092559084905560ff1990941690945561010d90529182209091620032e9919062004cae565b61010554602082015160405163a9059cbb60e01b81526001600160a01b038581166004830152602482019290925291169063a9059cbb906044016020604051808303816000875af115801562003343573d6000803e3d6000fd5b505050506040513d601f19601f820116820180604052508101906200336991906200588b565b50602080820151604080516001600160a01b0386168152928301919091527fa13f4668aacb68c4e9eed8e3f6e1cbec3eca776896ec46b5eabcc3983fc8f5f4910160405180910390a1505062001a056001606555565b620033ce612710600a62005513565b81565b6101088054620031c690620059e2565b600082815260c96020526040902060010154620033fe816200396c565b620014a1838362003bfa565b6001600160a01b03811660009081527fa867e09674d469ee17077111ff66261f5d2fc5820cc6914676cb47231da58818602052604081205460ff1662000dda565b6200345562003feb565b6001600160a01b038116620034d35760405162461bcd60e51b815260206004820152602660248201527f4f776e61626c653a206e6577206f776e657220697320746865207a65726f206160448201527f6464726573730000000000000000000000000000000000000000000000000000606482015260840162001a82565b6200120c8162004047565b3360009081527fa867e09674d469ee17077111ff66261f5d2fc5820cc6914676cb47231da58818602052604090205460ff1662001a05576040517ff62651fa00000000000000000000000000000000000000000000000000000000815260040160405180910390fd5b6001600160a01b03808216600090815261010c60209081526040918290208251606081018452815490941684526001810154918401919091526002015460ff16151591018190526200120c57604051636a5cfb6d60e01b815260040160405180910390fd5b6001600160a01b038116600090815261010a602052604090205460ff166200120c576040517f46c26e4b00000000000000000000000000000000000000000000000000000000815260040160405180910390fd5b6001600160a01b0381166200120c576040517fe622e04000000000000000000000000000000000000000000000000000000000815260040160405180910390fd5b6200364c8162003600565b6001600160a01b038116600081815261010a6020908152604091829020805460ff1916905590519182527f09a1db4b80c32706328728508c941a6b954f31eb5affd32f236c1fd405f8fea4910162000e64565b604080518082018252601f81527f656e61626c6564537472617465676965735b5f6e657753747261746567795d006020808301919091526001600160a01b038416600090815261010a9091529190912054620036ff919060ff166200429c565b6001600160a01b038116600090815261010a602052604090205460ff161562003754576040517f968a4d2c00000000000000000000000000000000000000000000000000000000815260040160405180910390fd5b620037946040518060400160405280600381526020017f454e440000000000000000000000000000000000000000000000000000000000815250620042fe565b6001600160a01b038116600081815261010a6020908152604091829020805460ff1916600117905590519182527f3f008fd510eae7a9e7bee13513d7b83bef8003d488b5a3d0b0da4de71d6846f1910162000e64565b806001600160a01b0316826001600160a01b03161462001a97576040517fbbe7961100000000000000000000000000000000000000000000000000000000815260040160405180910390fd5b6001600160a01b038216600090815261010d60205260408120905b81548110156200396657826001600160a01b03168282815481106200387a576200387a6200582d565b6000918252602090912001546001600160a01b031603620039515781548290620038a7906001906200585f565b81548110620038ba57620038ba6200582d565b9060005260206000200160009054906101000a90046001600160a01b0316828281548110620038ed57620038ed6200582d565b9060005260206000200160006101000a8154816001600160a01b0302191690836001600160a01b03160217905550818054806200392e576200392e62005875565b600082815260209020810160001990810180546001600160a01b03191690550190555b806200395d8162005843565b91505062003851565b50505050565b6200120c81336200435e565b600082815260c9602090815260408083206001600160a01b038516845290915290205460ff1662001a9757600082815260c9602090815260408083206001600160a01b03851684529091529020805460ff19166001179055620039d83390565b6001600160a01b0316816001600160a01b0316837f2f8788117e7eff1d82e926ec794901d17c78024a50270940304540a733656f0d60405160405180910390a45050565b60026065540362003a705760405162461bcd60e51b815260206004820152601f60248201527f5265656e7472616e637947756172643a207265656e7472616e742063616c6c00604482015260640162001a82565b6002606555565b62001a97828260405160240162003a9092919062005d04565b60408051601f198184030181529190526020810180516001600160e01b03167f319af33300000000000000000000000000000000000000000000000000000000179052620043dc565b6040516001600160a01b0380851660248301528316604482015260648101829052620039669085907f23b872dd00000000000000000000000000000000000000000000000000000000906084015b60408051601f198184030181529190526020810180516001600160e01b03166001600160e01b031990931692909217909152620043fd565b62001a97828260405160240162003b7892919062005d31565b60408051601f198184030181529190526020810180516001600160e01b03167f9710a9d000000000000000000000000000000000000000000000000000000000179052620043dc565b6040516001600160a01b038316602482015260448101829052620014a190849063a9059cbb60e01b9060640162003b27565b6001606555565b600082815260c9602090815260408083206001600160a01b038516845290915290205460ff161562001a9757600082815260c9602090815260408083206001600160a01b0385168085529252808320805460ff1916905551339285917ff6391f5c32d9c69d2a47ea670b442974b53935d1edc7fd64eb21e047a839171b9190a45050565b6200120c62003feb565b7f4910fdfa16fed3260ed0e7147f7cc6da11a60208b5b9406d12a635614ffd91435460ff161562003cbe57620014a183620044ec565b826001600160a01b03166352d1902d6040518163ffffffff1660e01b8152600401602060405180830381865afa92505050801562003d1b575060408051601f3d908101601f1916820190925262003d189181019062005563565b60015b62003d8f5760405162461bcd60e51b815260206004820152602e60248201527f45524331393637557067726164653a206e657720696d706c656d656e7461746960448201527f6f6e206973206e6f742055555053000000000000000000000000000000000000606482015260840162001a82565b7f360894a13ba1a3210667c828492db98dca3e2076cc3735a920a3ca505d382bbc811462003e265760405162461bcd60e51b815260206004820152602960248201527f45524331393637557067726164653a20756e737570706f727465642070726f7860448201527f6961626c65555549440000000000000000000000000000000000000000000000606482015260840162001a82565b50620014a1838383620045ac565b33600090815261010c6020908152604091829020825160608101845281546001600160a01b031681526001820154928101929092526002015460ff161515910181905262001a0557604051636a5cfb6d60e01b815260040160405180910390fd5b600062003ea283620045d7565b801562003eb6575062003eb683836200460f565b9392505050565b6001600160a01b038116600090815261010d602090815260408083208054825181850281018501909352808352919290919083018282801562003f2a57602002820191906000526020600020905b81546001600160a01b0316815260019091019060200180831162003f0b575b5050505050905060005b8151811015620014a15781818151811062003f535762003f536200582d565b60209081029190910101516040517f6453d9c40000000000000000000000000000000000000000000000000000000081526001600160a01b03858116600483015290911690636453d9c490602401600060405180830381600087803b15801562003fbc57600080fd5b505af115801562003fd1573d6000803e3d6000fd5b50505050808062003fe29062005843565b91505062003f34565b6033546001600160a01b0316331462001a055760405162461bcd60e51b815260206004820181905260248201527f4f776e61626c653a2063616c6c6572206973206e6f7420746865206f776e6572604482015260640162001a82565b603380546001600160a01b038381166001600160a01b0319831681179093556040519116919082907f8be0079c531659141344cd1fd0a4f28419497f9722a3daafe3b4186f6b6457e090600090a35050565b600054610100900460ff16620041065760405162461bcd60e51b815260206004820152602b60248201527f496e697469616c697a61626c653a20636f6e7472616374206973206e6f74206960448201526a6e697469616c697a696e6760a81b606482015260840162001a82565b62001a056200469a565b600054610100900460ff166200417d5760405162461bcd60e51b815260206004820152602b60248201527f496e697469616c697a61626c653a20636f6e7472616374206973206e6f74206960448201526a6e697469616c697a696e6760a81b606482015260840162001a82565b62001a0562004712565b600054610100900460ff1662001a055760405162461bcd60e51b815260206004820152602b60248201527f496e697469616c697a61626c653a20636f6e7472616374206973206e6f74206960448201526a6e697469616c697a696e6760a81b606482015260840162001a82565b600082815260c96020526040808220600101805490849055905190918391839186917fbd79b86ffe0ab8e8776151514217cd7cacd52c909f66475c3af44e129f0b00ff9190a4505050565b610103805461010680546001600160a01b0383166001600160a01b031991821617909155169055604051600081527fad0399dc40331b9a4977aa89da7a164a3fd482c65e6da73b25a94ea74fb688729060200160405180910390a1565b62001a978282604051602401620042b592919062005d55565b60408051601f198184030181529190526020810180516001600160e01b03167fc3b5563500000000000000000000000000000000000000000000000000000000179052620043dc565b6200120c81604051602401620043159190620054e8565b60408051601f198184030181529190526020810180516001600160e01b03167f41304fac00000000000000000000000000000000000000000000000000000000179052620043dc565b600082815260c9602090815260408083206001600160a01b038516845290915290205460ff1662001a975762004394816200477f565b620043a183602062004792565b604051602001620043b492919062005d7b565b60408051601f198184030181529082905262461bcd60e51b825262001a8291600401620054e8565b80516a636f6e736f6c652e6c6f67602083016000808483855afa5050505050565b600062004454826040518060400160405280602081526020017f5361666545524332303a206c6f772d6c6576656c2063616c6c206661696c6564815250856001600160a01b0316620049919092919063ffffffff16565b9050805160001480620044785750808060200190518101906200447891906200588b565b620014a15760405162461bcd60e51b815260206004820152602a60248201527f5361666545524332303a204552433230206f7065726174696f6e20646964206e60448201527f6f74207375636365656400000000000000000000000000000000000000000000606482015260840162001a82565b6001600160a01b0381163b6200456b5760405162461bcd60e51b815260206004820152602d60248201527f455243313936373a206e657720696d706c656d656e746174696f6e206973206e60448201527f6f74206120636f6e747261637400000000000000000000000000000000000000606482015260840162001a82565b7f360894a13ba1a3210667c828492db98dca3e2076cc3735a920a3ca505d382bbc80546001600160a01b0319166001600160a01b0392909216919091179055565b620045b783620049aa565b600082511180620045c55750805b15620014a157620039668383620049ec565b6000620045ec826301ffc9a760e01b6200460f565b801562000dda575062004608826001600160e01b03196200460f565b1592915050565b604080516001600160e01b03198316602480830191909152825180830390910181526044909101909152602080820180516001600160e01b03166301ffc9a760e01b178152825160009392849283928392918391908a617530fa92503d9150600051905082801562004682575060208210155b80156200468f5750600081115b979650505050505050565b600054610100900460ff16620047075760405162461bcd60e51b815260206004820152602b60248201527f496e697469616c697a61626c653a20636f6e7472616374206973206e6f74206960448201526a6e697469616c697a696e6760a81b606482015260840162001a82565b62001a053362004047565b600054610100900460ff1662003bf35760405162461bcd60e51b815260206004820152602b60248201527f496e697469616c697a61626c653a20636f6e7472616374206973206e6f74206960448201526a6e697469616c697a696e6760a81b606482015260840162001a82565b606062000dda6001600160a01b03831660145b60606000620047a383600262005513565b620047b0906002620055a0565b67ffffffffffffffff811115620047cb57620047cb62004e03565b6040519080825280601f01601f191660200182016040528015620047f6576020820181803683370190505b5090507f3000000000000000000000000000000000000000000000000000000000000000816000815181106200483057620048306200582d565b60200101906001600160f81b031916908160001a9053507f7800000000000000000000000000000000000000000000000000000000000000816001815181106200487e576200487e6200582d565b60200101906001600160f81b031916908160001a9053506000620048a484600262005513565b620048b1906001620055a0565b90505b600181111562004940577f303132333435363738396162636465660000000000000000000000000000000085600f1660108110620048f657620048f66200582d565b1a60f81b8282815181106200490f576200490f6200582d565b60200101906001600160f81b031916908160001a90535060049490941c93620049388162005e00565b9050620048b4565b50831562003eb65760405162461bcd60e51b815260206004820181905260248201527f537472696e67733a20686578206c656e67746820696e73756666696369656e74604482015260640162001a82565b6060620049a2848460008562004a14565b949350505050565b620049b581620044ec565b6040516001600160a01b038216907fbc7cd75a20ee27fd9adebab32041f755214dbc6bffa90cc0225b39da2e5c2d3b90600090a250565b606062003eb683836040518060600160405280602781526020016200d05a6027913962004b03565b60608247101562004a8e5760405162461bcd60e51b815260206004820152602660248201527f416464726573733a20696e73756666696369656e742062616c616e636520666f60448201527f722063616c6c0000000000000000000000000000000000000000000000000000606482015260840162001a82565b600080866001600160a01b0316858760405162004aac919062005e1a565b60006040518083038185875af1925050503d806000811462004aeb576040519150601f19603f3d011682016040523d82523d6000602084013e62004af0565b606091505b50915091506200468f8783838762004b81565b6060600080856001600160a01b03168560405162004b22919062005e1a565b600060405180830381855af49150503d806000811462004b5f576040519150601f19603f3d011682016040523d82523d6000602084013e62004b64565b606091505b509150915062004b778683838762004b81565b9695505050505050565b6060831562004bf557825160000362004bed576001600160a01b0385163b62004bed5760405162461bcd60e51b815260206004820152601d60248201527f416464726573733a2063616c6c20746f206e6f6e2d636f6e7472616374000000604482015260640162001a82565b5081620049a2565b620049a2838381511562004c0c5781518083602001fd5b8060405162461bcd60e51b815260040162001a829190620054e8565b616d0d8062005e3983390190565b6104ee806200cb4683390190565b82805482825590600052602060002090810192821562004c9c579160200282015b8281111562004c9c57825182546001600160a01b0319166001600160a01b0390911617825560209092019160019091019062004c65565b5062004caa92915062004cc9565b5090565b50805460008255906000526020600020908101906200120c91905b5b8082111562004caa576000815560010162004cca565b60006020828403121562004cf357600080fd5b81356001600160e01b03198116811462003eb657600080fd5b60006020828403121562004d1f57600080fd5b5035919050565b6001600160a01b03811681146200120c57600080fd5b803562004d498162004d26565b919050565b6000806040838503121562004d6257600080fd5b823562004d6f8162004d26565b9150602083013562004d818162004d26565b809150509250929050565b60006020828403121562004d9f57600080fd5b813562003eb68162004d26565b6000806040838503121562004dc057600080fd5b823562004dcd8162004d26565b946020939093013593505050565b6000806040838503121562004def57600080fd5b82359150602083013562004d818162004d26565b634e487b7160e01b600052604160045260246000fd5b604051610140810167ffffffffffffffff8111828210171562004e405762004e4062004e03565b60405290565b6040805190810167ffffffffffffffff8111828210171562004e405762004e4062004e03565b6040516101a0810167ffffffffffffffff8111828210171562004e405762004e4062004e03565b60405160c0810167ffffffffffffffff8111828210171562004e405762004e4062004e03565b604051601f8201601f1916810167ffffffffffffffff8111828210171562004ee55762004ee562004e03565b604052919050565b80356003811062004d4957600080fd5b600481106200120c57600080fd5b803562004d498162004efd565b60006020828403121562004f2b57600080fd5b6040516020810181811067ffffffffffffffff8211171562004f515762004f5162004e03565b6040529135825250919050565b600060e0828403121562004f7157600080fd5b60405160e0810181811067ffffffffffffffff8211171562004f975762004f9762004e03565b604052905080823562004faa8162004d26565b8152602083013562004fbc8162004d26565b8060208301525060408301356040820152606083013560608201526080830135608082015260a083013560a082015260c083013562004ffb8162004d26565b60c0919091015292915050565b600061020082840312156200501c57600080fd5b6200502662004e19565b9050620050338262004d3c565b8152602082013560208201526040820135604082015260608201356060820152608082013560808201526200506b60a0830162004eed565b60a08201526200507e60c0830162004f0b565b60c0820152620050928360e0840162004f18565b60e0820152610100620050a88482850162004f5e565b90820152620050bb6101e0830162004d3c565b61012082015292915050565b600067ffffffffffffffff821115620050e457620050e462004e03565b50601f01601f191660200190565b6000620051096200510384620050c7565b62004eb9565b90508281528383830111156200511e57600080fd5b828260208301376000602084830101529392505050565b600082601f8301126200514757600080fd5b62003eb683833560208501620050f2565b6000604082840312156200516b57600080fd5b6200517562004e46565b905081358152602082013567ffffffffffffffff8111156200519657600080fd5b620051a48482850162005135565b60208301525092915050565b60008060006102408486031215620051c757600080fd5b8335620051d48162004d26565b9250620051e5856020860162005008565b915061022084013567ffffffffffffffff8111156200520357600080fd5b620052118682870162005158565b9150509250925092565b60008060008061026085870312156200523357600080fd5b8435620052408162004d26565b93506020850135620052528162004d26565b925062005263866040870162005008565b915061024085013567ffffffffffffffff8111156200528157600080fd5b6200528f8782880162005158565b91505092959194509250565b60008060408385031215620052af57600080fd5b8235620052bc8162004d26565b9150602083013567ffffffffffffffff811115620052d957600080fd5b8301601f81018513620052eb57600080fd5b620052fc85823560208401620050f2565b9150509250929050565b80151581146200120c57600080fd5b803562004d498162005306565b6000602082840312156200533557600080fd5b813567ffffffffffffffff808211156200534e57600080fd5b908301906101a082860312156200536457600080fd5b6200536e62004e6c565b620053798362004d3c565b8152620053896020840162004d3c565b6020820152604083013560408201526060830135606082015260808301356080820152620053ba60a0840162004d3c565b60a0820152620053cd60c0840162004d3c565b60c082015260e083013582811115620053e557600080fd5b620053f38782860162005158565b60e0830152506101006200540981850162004d3c565b9082015261012083810135838111156200542257600080fd5b620054308882870162005135565b8284015250506101406200544681850162005315565b9082015261016083810135838111156200545f57600080fd5b6200546d8882870162005135565b82840152505061018091506200548582840162004d3c565b91810191909152949350505050565b60005b83811015620054b157818101518382015260200162005497565b50506000910152565b60008151808452620054d481602086016020860162005494565b601f01601f19169290920160200192915050565b60208152600062003eb66020830184620054ba565b634e487b7160e01b600052601160045260246000fd5b808202811582820484141762000dda5762000dda620054fd565b634e487b7160e01b600052602160045260246000fd5b6000602082840312156200555657600080fd5b815162003eb68162004efd565b6000602082840312156200557657600080fd5b5051919050565b6000826200559b57634e487b7160e01b600052601260045260246000fd5b500490565b8082018082111562000dda5762000dda620054fd565b6001600160a01b0383168152604060208201526000620049a26040830184620054ba565b600060208284031215620055ed57600080fd5b815162003eb68162004d26565b600381106200560d576200560d6200552d565b9052565b600481106200560d576200560d6200552d565b81516001600160a01b0316815261020081016020830151602083015260408301516040830152606083015160608301526080830151608083015260a08301516200567260a0840182620055fa565b5060c08301516200568760c084018262005611565b5060e08301516200569b60e0840182519052565b506101008381015180516001600160a01b03908116858401526020820151811661012086015260408201516101408601526060820151610160860152608082015161018086015260a08201516101a086015260c0820151166101c085015250506101208301516001600160a01b0381166101e08401525092915050565b805182526000602082015160406020850152620049a26040850182620054ba565b600081518084526020808501945080840160005b83811015620057745781516001600160a01b0316875295820195908201906001016200574d565b509495945050505050565b87815260006001600160a01b03808916602084015260e06040840152620057aa60e0840189620054ba565b818816606085015286608085015283810360a0850152620057cc818762005718565b91505082810360c0840152620057e3818562005739565b9a9950505050505050505050565b85815260006001600160a01b038087166020840152808616604084015280851660608401525060a060808301526200468f60a083018462005718565b634e487b7160e01b600052603260045260246000fd5b600060018201620058585762005858620054fd565b5060010190565b8181038181111562000dda5762000dda620054fd565b634e487b7160e01b600052603160045260246000fd5b6000602082840312156200589e57600080fd5b815162003eb68162005306565b60006020808385031215620058bf57600080fd5b825167ffffffffffffffff80821115620058d857600080fd5b9084019060c08287031215620058ed57600080fd5b620058f762004e93565b82518152838301516200590a8162004d26565b8185015260408301516200591e8162004d26565b60408201526060830151828111156200593657600080fd5b8301604081890312156200594957600080fd5b6200595362004e46565b8151815285820151848111156200596957600080fd5b82019350601f840189136200597d57600080fd5b83519150620059906200510383620050c7565b8281528987848701011115620059a557600080fd5b620059b68388830189880162005494565b95810195909552506060810193909352506080818101519083015260a090810151908201529392505050565b600181811c90821680620059f757607f821691505b60208210810362005a1857634e487b7160e01b600052602260045260246000fd5b50919050565b601f821115620014a157600081815260208120601f850160051c8101602086101562005a475750805b601f850160051c820191505b8181101562005a685782815560010162005a53565b505050505050565b815167ffffffffffffffff81111562005a8d5762005a8d62004e03565b62005aa58162005a9e8454620059e2565b8462005a1e565b602080601f83116001811462005add576000841562005ac45750858301515b600019600386901b1c1916600185901b17855562005a68565b600085815260208120601f198616915b8281101562005b0e5788860151825594840194600190910190840162005aed565b508582101562005b2d5787850151600019600388901b60f8161c191681555b5050505050600190811b01905550565b6000602080838503121562005b5157600080fd5b825167ffffffffffffffff8082111562005b6a57600080fd5b818501915085601f83011262005b7f57600080fd5b81518181111562005b945762005b9462004e03565b8060051b915062005ba784830162004eb9565b818152918301840191848101908884111562005bc257600080fd5b938501935b8385101562005bf0578451925062005bdf8362004d26565b828252938501939085019062005bc7565b98975050505050505050565b6000815462005c0b81620059e2565b80855260206001838116801562005c2b576001811462005c465762005c76565b60ff1985168884015283151560051b88018301955062005c76565b866000528260002060005b8581101562005c6e5781548a820186015290830190840162005c51565b890184019650505b505050505092915050565b85815260a06020820152600062005c9c60a083018762005bfc565b828103604084015262005cb0818762005718565b90506001600160a01b0385166060840152828103608084015262005bf0818562005739565b83815260606020820152600062005cf0606083018562005bfc565b828103604084015262004b77818562005718565b60408152600062005d196040830185620054ba565b90506001600160a01b03831660208301529392505050565b60408152600062005d466040830185620054ba565b90508260208301529392505050565b60408152600062005d6a6040830185620054ba565b905082151560208301529392505050565b7f416363657373436f6e74726f6c3a206163636f756e742000000000000000000081526000835162005db581601785016020880162005494565b7f206973206d697373696e6720726f6c6520000000000000000000000000000000601791840191820152835162005df481602884016020880162005494565b01602801949350505050565b60008162005e125762005e12620054fd565b506000190190565b6000825162005e2e81846020870162005494565b919091019291505056fe60a0604052306080526000609f81905560a25534801561001e57600080fd5b50608051616cb66200005760003960008181611b8a01528181611c0f01528181611dc301528181611e480152611f2e0152616cb66000f3fe6080604052600436106104e75760003560e01c8063626c47e811610282578063ac1ed7b911610161578063e0dd2c38116100ca578063f2b688e711610084578063f321b3051161006c578063f321b30514610e79578063f5b0dfb714610e99578063fc1711f214610eb957005b8063f2b688e714610e43578063f2fde38b14610e5957005b8063eb11af93116100b2578063eb11af9314610de3578063edd146cc14610e10578063ef2920fc14610e3057005b8063e0dd2c3814610da3578063e33add9314610dc357005b8063c32921711161011b578063d1e3623211610103578063d1e3623214610d49578063dc96ff2d14610d5e578063df868ed314610d8e57005b8063c329217114610cf6578063c7f758a814610d1357005b8063b5f620ce11610149578063b5f620ce14610c80578063b6c61f3114610ca0578063bcc5b93b14610cc057005b8063ac1ed7b914610c33578063b2b878d014610c5357005b8063824ea8ed11610203578063a0cf0aea116101bd578063a47ff7e5116101a5578063a47ff7e514610bd9578063a574cea414610bf0578063aba9ffee14610c1d57005b8063a0cf0aea14610b9b578063a1aab33f14610bc357005b80638da5cb5b116101eb5780638da5cb5b14610b3d5780638ff327f114610b5b578063950559d714610b7b57005b8063824ea8ed14610afd578063868c57b814610b1d57005b8063715018a611610254578063782aadff1161023c578063782aadff14610ab2578063814516ad14610ad2578063817b1cd214610ae757005b8063715018a614610a8757806376365af714610a9c57005b8063626c47e814610a125780636453d9c414610a2757806368a806c414610a4757806369fa25c414610a6757005b80632ed04b2b116103c657806342fda9c71161032f57806352d1902d116102e957806359a5db8b116102d157806359a5db8b146109a55780635db64b99146109c55780636003e414146109f257005b806352d1902d1461097a57806354fac9191461098f57005b80634d31d087116103175780634d31d087146109275780634e2ffa88146109475780634f1ef2861461096757005b806342fda9c7146108fd5780634ab4ba421461091257005b8063346db8cb116103805780633659cfe6116103685780633659cfe6146108b357806338fff2d0146108d3578063406244d8146108e857005b8063346db8cb1461086c578063351d9f961461088c57005b80633142ba3c116103ae5780633142ba3c14610821578063315deeaa14610841578063339604591461085657005b80632ed04b2b146107e1578063311a6c561461080157005b806311f22ae311610468578063255ffb38116104225780632bbe0cae1161040a5780632bbe0cae146107825780632cefadbb146107955780632dbd6fdd146107b557005b8063255ffb3814610737578063285a722d1461076457005b806319ab453c1161045057806319ab453c146106e25780631aa91a9e146107025780631ddf1e231461072257005b806311f22ae3146106a457806315cc481e146106c457005b80630ba95909116104b95780630c0512e9116104a15780630c0512e9146105f95780630f529ba21461060f5780631073e9961461062657005b80630ba95909146105a25780630bece79c146105c157005b8063013cf08b146104f057806301ffc9a714610532578063058aca44146105625780630a6f0ee91461058257005b366104ee57005b005b3480156104fc57600080fd5b5061051061050b366004615922565b610ed9565b6040516105299d9c9b9a999897969594939291906159d0565b60405180910390f35b34801561053e57600080fd5b5061055261054d366004615a5e565b611003565b6040519015158152602001610529565b34801561056e57600080fd5b506104ee61057d366004615a9d565b61106c565b34801561058e57600080fd5b506104ee61059d366004615cd0565b6110cc565b3480156105ae57600080fd5b5060a6545b604051908152602001610529565b3480156105cd57600080fd5b5060af546105e1906001600160a01b031681565b6040516001600160a01b039091168152602001610529565b34801561060557600080fd5b506105b3609f5481565b34801561061b57600080fd5b506105b36298968081565b34801561063257600080fd5b5060a75460a85460a95460aa5460ab5460ac5460ad54610663966001600160a01b0390811696811695949392911687565b604080516001600160a01b03988916815296881660208801528601949094526060850192909252608084015260a083015290911660c082015260e001610529565b3480156106b057600080fd5b506104ee6106bf366004615922565b6110ec565b3480156106d057600080fd5b506065546001600160a01b03166105e1565b3480156106ee57600080fd5b506104ee6106fd366004615a9d565b61112b565b34801561070e57600080fd5b506105b361071d366004615922565b611294565b34801561072e57600080fd5b506104ee61131a565b34801561074357600080fd5b506105b3610752366004615922565b60b46020526000908152604090205481565b34801561077057600080fd5b5060af546001600160a01b03166105e1565b6105e1610790366004615d48565b611325565b3480156107a157600080fd5b506104ee6107b0366004615922565b611348565b3480156107c157600080fd5b5060a5546107d490610100900460ff1681565b6040516105299190615dae565b3480156107ed57600080fd5b506105b36107fc366004615dbc565b611394565b34801561080d57600080fd5b506104ee61081c366004615de8565b611466565b34801561082d57600080fd5b506104ee61083c366004615e0a565b611a2e565b34801561084d57600080fd5b5060a9546105b3565b34801561086257600080fd5b506105b360a45481565b34801561087857600080fd5b506105b3610887366004615e88565b611adb565b34801561089857600080fd5b5060a5546108a69060ff1681565b6040516105299190615ec4565b3480156108bf57600080fd5b506104ee6108ce366004615a9d565b611b80565b3480156108df57600080fd5b506068546105b3565b3480156108f457600080fd5b506105b3600a81565b34801561090957600080fd5b506066546105b3565b34801561091e57600080fd5b506069546105b3565b34801561093357600080fd5b50610552610942366004615a9d565b611cfb565b34801561095357600080fd5b506104ee610962366004615a9d565b611d06565b6104ee610975366004615ed2565b611db9565b34801561098657600080fd5b506105b3611f21565b34801561099b57600080fd5b506105b3609c5481565b3480156109b157600080fd5b506105b36109c0366004615922565b611fe6565b3480156109d157600080fd5b506105b36109e0366004615a9d565b60b26020526000908152604090205481565b3480156109fe57600080fd5b5060ae546105e1906001600160a01b031681565b348015610a1e57600080fd5b506105b3600381565b348015610a3357600080fd5b506104ee610a42366004615a9d565b612123565b348015610a5357600080fd5b506104ee610a62366004615a9d565b612134565b348015610a7357600080fd5b506104ee610a82366004615922565b61218a565b348015610a9357600080fd5b506104ee6121c9565b348015610aa857600080fd5b506105b3609d5481565b348015610abe57600080fd5b506105b3610acd366004615dbc565b6121db565b348015610ade57600080fd5b506104ee61237d565b348015610af357600080fd5b506105b360a05481565b348015610b0957600080fd5b50610552610b18366004615922565b6124af565b348015610b2957600080fd5b506105b3610b38366004615dbc565b61250c565b348015610b4957600080fd5b506033546001600160a01b03166105e1565b348015610b6757600080fd5b506104ee610b76366004615f22565b61253d565b348015610b8757600080fd5b506105b3610b96366004615922565b612688565b348015610ba757600080fd5b506105e173eeeeeeeeeeeeeeeeeeeeeeeeeeeeeeeeeeeeeeee81565b348015610bcf57600080fd5b506105b3609e5481565b348015610be557600080fd5b5060a6546105b39081565b348015610bfc57600080fd5b50610c10610c0b366004615922565b6126b2565b6040516105299190615f57565b348015610c2957600080fd5b506105b360a15481565b348015610c3f57600080fd5b506104ee610c4e366004615a9d565b612791565b348015610c5f57600080fd5b50610c73610c6e366004615f6a565b6127c4565b604051610529919061603f565b348015610c8c57600080fd5b506104ee610c9b3660046160a5565b6127df565b348015610cac57600080fd5b5060b0546105e1906001600160a01b031681565b348015610ccc57600080fd5b506105b3610cdb366004615a9d565b6001600160a01b0316600090815260b2602052604090205490565b348015610d0257600080fd5b5060a554610100900460ff166107d4565b348015610d1f57600080fd5b50610d33610d2e366004615922565b6127e8565b6040516105299a999897969594939291906160c2565b348015610d5557600080fd5b5060a1546105b3565b348015610d6a57600080fd5b506105b3610d79366004615922565b600090815260b1602052604090206002015490565b348015610d9a57600080fd5b506105526128ea565b348015610daf57600080fd5b506105b3610dbe366004616128565b6128fd565b348015610dcf57600080fd5b506104ee610dde36600461614d565b612928565b348015610def57600080fd5b50610e03610dfe366004615a9d565b612941565b60405161052991906161f8565b348015610e1c57600080fd5b506104ee610e2b36600461620b565b61294c565b6104ee610e3e366004615d48565b612c96565b348015610e4f57600080fd5b506105b360a25481565b348015610e6557600080fd5b506104ee610e74366004615a9d565b612cb0565b348015610e8557600080fd5b506104ee610e9436600461623c565b612d3d565b348015610ea557600080fd5b506104ee610eb4366004615922565b612d88565b348015610ec557600080fd5b506104ee610ed4366004615922565b612db1565b60b1602090815260009182526040918290208054600182015460028301546003840154600485015460058601546006870154600788015460088901548b51808d01909c52600a8a0180548d52600b8b0180549a9d999c989b979a6001600160a01b039788169a968816999790951697939660ff9093169593949192840191610f6090616296565b80601f0160208091040260200160405190810160405280929190818152602001828054610f8c90616296565b8015610fd95780601f10610fae57610100808354040283529160200191610fd9565b820191906000526020600020905b815481529060010190602001808311610fbc57829003601f168201915b50505091909252505050600c820154600d830154600e90930154919290916001600160a01b03168d565b60006001600160e01b031982167ff1801e6100000000000000000000000000000000000000000000000000000000148061106657507f01ffc9a7000000000000000000000000000000000000000000000000000000006001600160e01b03198316145b92915050565b3361107681612df0565b60ae80546001600160a01b0319166001600160a01b0384169081179091556040519081527fd6ceddf6d2a22f21c7c81675c518004eff43bc5c8a6fc32a0b748e69d58671cd906020015b60405180910390a15050565b6110d4612e9f565b6110dc612eca565b6110e7838383612f06565b505050565b336110f681612df0565b609d8290556040518281527f08e39b387d1f739ce0d2553bb31822392e3f67c62c6c0a215120ab4a6841a8ab906020016110c0565b600054610100900460ff161580801561114b5750600054600160ff909116105b806111655750303b158015611165575060005460ff166001145b6111dc5760405162461bcd60e51b815260206004820152602e60248201527f496e697469616c697a61626c653a20636f6e747261637420697320616c72656160448201527f647920696e697469616c697a656400000000000000000000000000000000000060648201526084015b60405180910390fd5b6000805460ff1916600117905580156111ff576000805461ff0019166101001790555b61123e826040518060400160405280600a81526020017f4356537472617465677900000000000000000000000000000000000000000000815250612d3d565b611246613273565b61124e6132e6565b8015611290576000805461ff0019169055604051600181527f7f26b83ff96e1f2b6a682f133852f6798a09c465da95921460cefb3847402498906020016110c0565b5050565b600081815260b160205260408120805483146112c65760405163c1d17bef60e01b8152600481018490526024016111d3565b6001600882015460ff1660068111156112e1576112e161593b565b14611302576040516344980d8f60e01b8152600481018490526024016111d3565b611310818260020154613359565b6003015492915050565b61132333613394565b565b600061132f612e9f565b611337612eca565b61134183836134de565b9392505050565b3361135281612df0565b60a25460408051918252602082018490527f056aedca4e334b6c4bea48715fb0de644811b740894de57a0380d3eb90f2805b910160405180910390a15060a255565b600061139e61395e565b6000600260a554610100900460ff1660038111156113be576113be61593b565b14806113e55750600160a554610100900460ff1660038111156113e3576113e361593b565b145b156113f15750816113fe565b6113fb84846139a2565b90505b8060a1600082825461141091906162e0565b9091555050604080516001600160a01b0386168152602081018590529081018290527f70b752f3fadb6ac131c0ece847fcbb6994ec56ed6411595710fd9b29c6ac6cc19060600160405180910390a19392505050565b600082815260b4602090815260408083205480845260b1909252822090918290036114a75760405163c1d17bef60e01b8152600481018390526024016111d3565b6005600882015460ff1660068111156114c2576114c261593b565b146114fc576040517f96023952000000000000000000000000000000000000000000000000000000008152600481018390526024016111d3565b60ac54600d820154600091611510916162f3565b4211905080158161152c575060a7546001600160a01b03163314155b15611563576040517f2eef310a00000000000000000000000000000000000000000000000000000000815260040160405180910390fd5b808061156d575083155b156116d25760ab546000036115ae576040517fdd466dd000000000000000000000000000000000000000000000000000000000815260040160405180910390fd5b60ab546001036115c85760088201805460ff191660011790555b60ab546002036115e25760088201805460ff191660061790555b60af54600e83015460aa5460405163099ea56b60e41b8152600481018790526001600160a01b03928316602482015260448101919091529116906399ea56b090606401600060405180830381600087803b15801561163f57600080fd5b505af1158015611653573d6000803e3d6000fd5b505060af54600585015460a95460405163099ea56b60e41b8152600481018990526001600160a01b0392831660248201526044810191909152911692506399ea56b091506064015b600060405180830381600087803b1580156116b557600080fd5b505af11580156116c9573d6000803e3d6000fd5b505050506119e5565b836001036117b15760088201805460ff1916600117905560af54600e83015460ae5460408051633629edcd60e11b815290516001600160a01b0394851694638969ab5394899490821693911691636c53db9a916004808201926020929091908290030181865afa15801561174a573d6000803e3d6000fd5b505050506040513d601f19601f8201168201806040525081019061176e9190616306565b60aa5460405160e086901b6001600160e01b031916815260048101949094526001600160a01b03928316602485015291166044830152606482015260840161169b565b836002036119e55760088201805460ff1916600617905560af54600e83015460aa5460405163099ea56b60e41b8152600481018790526001600160a01b03928316602482015260448101919091529116906399ea56b090606401600060405180830381600087803b15801561182557600080fd5b505af1158015611839573d6000803e3d6000fd5b505060af54600585015460ae5460408051633629edcd60e11b815290516001600160a01b039485169650638969ab53955089949384169390921691636c53db9a916004808201926020929091908290030181865afa15801561189f573d6000803e3d6000fd5b505050506040513d601f19601f820116820180604052508101906118c39190616306565b60a9546118d290600290616339565b6040516001600160e01b031960e087901b16815260048101949094526001600160a01b039283166024850152911660448301526064820152608401600060405180830381600087803b15801561192757600080fd5b505af115801561193b573d6000803e3d6000fd5b505060af546005850154600e86015460a9546001600160a01b039384169550638969ab5394508893928316929091169061197790600290616339565b6040516001600160e01b031960e087901b16815260048101949094526001600160a01b039283166024850152911660448301526064820152608401600060405180830381600087803b1580156119cc57600080fd5b505af11580156119e0573d6000803e3d6000fd5b505050505b60a75460405185815286916001600160a01b0316907f394027a5fa6e098a1191094d1719d6929b9abc535fcc0c8f448d6a4e756222769060200160405180910390a35050505050565b611a36613c66565b805160a780546001600160a01b03199081166001600160a01b0393841617909155602083015160a88054831691841691909117905560408084015160a955606084015160aa55608084015160ab5560a084015160ac5560c084015160ad80549093169316929092179055517f03acbb620b466488b6003b007e23a10152d0439657b375c4cfef48d58b820ea590611ad0903090849061635b565b60405180910390a150565b6000808490506000611b01629896806080609c54901b611afb9190616339565b83613d27565b905060806f80000000000000000000000000000000609c5462989680611b2791906162e0565b611b3584600160801b6162e0565b611b4262989680896163c7565b611b4c91906163c7565b611b569190616339565b611b6088856163c7565b611b6a91906162f3565b611b7491906162f3565b901c9695505050505050565b6001600160a01b037f0000000000000000000000000000000000000000000000000000000000000000163003611c0d5760405162461bcd60e51b815260206004820152602c60248201527f46756e6374696f6e206d7573742062652063616c6c6564207468726f7567682060448201526b19195b1959d85d1958d85b1b60a21b60648201526084016111d3565b7f00000000000000000000000000000000000000000000000000000000000000006001600160a01b0316611c687f360894a13ba1a3210667c828492db98dca3e2076cc3735a920a3ca505d382bbc546001600160a01b031690565b6001600160a01b031614611cd35760405162461bcd60e51b815260206004820152602c60248201527f46756e6374696f6e206d7573742062652063616c6c6564207468726f7567682060448201526b6163746976652070726f787960a01b60648201526084016111d3565b611cdc81613dd0565b60408051600080825260208201909252611cf891839190613dd8565b50565b600061106682613f78565b611d0e613c66565b60a75460405163446adb9960e11b81526001600160a01b038381166004830152909116906388d5b73290602401600060405180830381600087803b158015611d5557600080fd5b505af1158015611d69573d6000803e3d6000fd5b505060a754604080513081526001600160a01b039283166020820152918516908201527fdc20f5c479493aac0cf803ca3b82ebc1964faa557450a37ea0a8121b0e98454f92506060019050611ad0565b6001600160a01b037f0000000000000000000000000000000000000000000000000000000000000000163003611e465760405162461bcd60e51b815260206004820152602c60248201527f46756e6374696f6e206d7573742062652063616c6c6564207468726f7567682060448201526b19195b1959d85d1958d85b1b60a21b60648201526084016111d3565b7f00000000000000000000000000000000000000000000000000000000000000006001600160a01b0316611ea17f360894a13ba1a3210667c828492db98dca3e2076cc3735a920a3ca505d382bbc546001600160a01b031690565b6001600160a01b031614611f0c5760405162461bcd60e51b815260206004820152602c60248201527f46756e6374696f6e206d7573742062652063616c6c6564207468726f7567682060448201526b6163746976652070726f787960a01b60648201526084016111d3565b611f1582613dd0565b61129082826001613dd8565b6000306001600160a01b037f00000000000000000000000000000000000000000000000000000000000000001614611fc15760405162461bcd60e51b815260206004820152603860248201527f555550535570677261646561626c653a206d757374206e6f742062652063616c60448201527f6c6564207468726f7567682064656c656761746563616c6c000000000000000060648201526084016111d3565b507f360894a13ba1a3210667c828492db98dca3e2076cc3735a920a3ca505d382bbc90565b60008060695411612023576040517fed4421ad00000000000000000000000000000000000000000000000000000000815260040160405180910390fd5b61202c82613f98565b1561204a57604051630efd728560e21b815260040160405180910390fd5b60695460009061206384680100000000000000006163c7565b61206d9190616339565b62989680609d546801000000000000000061208891906163c7565b6120929190616339565b61209c91906162e0565b905060406120a960a15490565b609c546120b990629896806162e0565b6298968060406120c986806163c7565b901c629896806080609e54901b6120e09190616339565b6120ea9190616339565b6120f491906163c7565b6120fe9190616339565b61210891906163c7565b901c915060a254821161211d5760a254611341565b50919050565b61212b61395e565b611cf881613394565b61213c613c66565b60af80546001600160a01b0319166001600160a01b0383169081179091556040519081527f98591b379d0945355df2687e7941177774bf190304dba561b029c0f63fcbc17990602001611ad0565b3361219481612df0565b609c8290556040518281527f592dcd55d60d892e7fcb3ba105013312e99691cd59f91e15f83cb67cb5a505f2906020016110c0565b6121d1613fbf565b6113236000614019565b60006121e561395e565b6121ee8361406b565b61220b57604051630b72d6b160e31b815260040160405180910390fd5b6000600260a554610100900460ff16600381111561222b5761222b61593b565b0361223957825b9050612296565b600160a554610100900460ff1660038111156122575761225761593b565b03612266576122328484614113565b600360a554610100900460ff1660038111156122845761228461593b565b03612296576122938484614279565b90505b60ae5460405163011de97360e61b81526001600160a01b038681166004830152306024830152600092169063477a5cc090604401602060405180830381865afa1580156122e7573d6000803e3d6000fd5b505050506040513d601f19601f8201168201806040525081019061230b91906163de565b9050801561232b578160a1600082825461232591906162f3565b90915550505b604080516001600160a01b0387168152602081018690529081018390527f0b9150e1e54346ed3fa36b977cd5d65dca5a649c737c3174a26bddaadd47667a9060600160405180910390a1509392505050565b336123878161406b565b6123a457604051630b72d6b160e31b815260040160405180910390fd5b60ae546040517f0d4a8b490000000000000000000000000000000000000000000000000000000081526001600160a01b03838116600483015230602483015290911690630d4a8b4990604401600060405180830381600087803b15801561240a57600080fd5b505af115801561241e573d6000803e3d6000fd5b505060ae54604051637817ee4f60e01b81526001600160a01b0385811660048301523060248301529091169250637817ee4f9150604401602060405180830381865afa158015612472573d6000803e3d6000fd5b505050506040513d601f19601f8201168201806040525081019061249691906163fb565b60a160008282546124a791906162f3565b909155505050565b600081815260b1602052604081206002810154829081906124d19084906144c0565b915091508160001480156124e3575080155b156124f057826003015491505b60006124ff8460010154611fe6565b9092101595945050505050565b60b3602052816000526040600020818154811061252857600080fd5b90600052602060002001600091509150505481565b612545613c66565b60008060008060008580602001905181019061256191906164a3565b60a8546020860151959a50939850919650945092506001600160a01b039182169116146125ad57602085015160a880546001600160a01b0319166001600160a01b039092169190911790555b60a9546040860151146125c357604085015160a9555b60aa546060860151146125d957606085015160aa555b60ab546080860151146125ef57608085015160ab555b60ac5460a0860151146126055760a085015160ac555b60ad5460c08601516001600160a01b039081169116146126445760c085015160ad80546001600160a01b0319166001600160a01b039092169190911790555b60a25484146126535760a28490555b609c54831461266257609c8390555b609d54821461267157609d8290555b609e54811461268057609e8190555b505050505050565b6000609c546298968061269b91906162e0565b6126a862989680846163c7565b6110669190616339565b604080518082019091526000815260606020820152600060b16000848152602001908152602001600020905080600a016040518060400160405290816000820154815260200160018201805461270790616296565b80601f016020809104026020016040519081016040528092919081815260200182805461273390616296565b80156127805780601f1061275557610100808354040283529160200191612780565b820191906000526020600020905b81548152906001019060200180831161276357829003601f168201915b505050505081525050915050919050565b612799613c66565b6127a281614518565b60b080546001600160a01b0319166001600160a01b0392909216919091179055565b606060405163d623472560e01b815260040160405180910390fd5b611cf881614558565b600080600080600080600080600080600060b160008d81526020019081526020016000209050806001015460001461282c576128278160010154611fe6565b61282f565b60005b92508060050160009054906101000a90046001600160a01b03168160040160009054906101000a90046001600160a01b03168260060160009054906101000a90046001600160a01b0316836001015484600201548560080160009054906101000a900460ff16866007015487600301548a896009016000336001600160a01b03166001600160a01b03168152602001908152602001600020549a509a509a509a509a509a509a509a509a509a50509193959799509193959799565b60006128f860675460ff1690565b905090565b600082815260b1602090815260408083206001600160a01b0385168452600901909152812054611341565b60405163d623472560e01b815260040160405180910390fd5b600061106682614599565b612954612e9f565b61295d826145b9565b600081806020019051810190612973919061654f565b80519091506001600160a01b031661299e57604051635df4b1ef60e01b815260040160405180910390fd5b805160ae80546001600160a01b0319166001600160a01b039092169190911790556020810151609c556040810151609d556060810151609e5560a081015160a5805460ff191660018360028111156129f8576129f861593b565b021790555060c081015160a5805461ff001916610100836003811115612a2057612a2061593b565b021790555060e08101515160a65560808082015160a25561012082015160b080546001600160a01b039283166001600160a01b031991821617909155610100840151805160a7805491851691841682179055602082015160a88054918616918516919091179055604082015160a955606082015160aa559381015160ab5560a081015160ac5560c0015160ad805491909316911617905515612c325760ad5460a48054612ae5926001600160a01b0316916000612adc836165fe565b9190505561463a565b60af80546001600160a01b0319166001600160a01b03929092169182179055604080517f8129fc1c0000000000000000000000000000000000000000000000000000000081529051638129fc1c9160048082019260009290919082900301818387803b158015612b5457600080fd5b505af1158015612b68573d6000803e3d6000fd5b505060a8546001600160a01b0316159150612c3290505760a75460a85460405163446adb9960e11b81526001600160a01b0391821660048201529116906388d5b73290602401600060405180830381600087803b158015612bc857600080fd5b505af1158015612bdc573d6000803e3d6000fd5b505060a75460a854604080513081526001600160a01b0393841660208201529290911682820152517fdc20f5c479493aac0cf803ca3b82ebc1964faa557450a37ea0a8121b0e98454f9350908190036060019150a15b61012081015160b080546001600160a01b0319166001600160a01b039092169190911790556040517f20a153f9c9716c875d37fdbb521bd43a7cdda0304b0fbdbb0d0515d68ae3723f90612c899085908490616617565b60405180910390a1505050565b612c9e612e9f565b612ca6612eca565b611290828261468e565b612cb8613fbf565b6001600160a01b038116612d345760405162461bcd60e51b815260206004820152602660248201527f4f776e61626c653a206e6577206f776e657220697320746865207a65726f206160448201527f646472657373000000000000000000000000000000000000000000000000000060648201526084016111d3565b611cf881614019565b606580546001600160a01b0319166001600160a01b038416179055604051612d69908290602001616710565b60408051601f1981840301815291905280516020909101206066555050565b612d90612e9f565b8060696000828254612da291906162f3565b90915550611cf890508161479d565b33612dbb81612df0565b609e8290556040518281527f30ee8206062f283e56a0af2b02138016bf7442ded26ad68a92a18a9dd246fb49906020016110c0565b6065546068546040517f29e40d4b00000000000000000000000000000000000000000000000000000000815260048101919091526001600160a01b038381166024830152909116906329e40d4b90604401602060405180830381865afa158015612e5e573d6000803e3d6000fd5b505050506040513d601f19601f82011682018060405250810190612e8291906163de565b611cf85760405163075fd2b160e01b815260040160405180910390fd5b6065546001600160a01b031633146113235760405163075fd2b160e01b815260040160405180910390fd5b606854600003611323576040517f3da3f98c00000000000000000000000000000000000000000000000000000000815260040160405180910390fd5b6000825111612f41576040517fc5f7c4c000000000000000000000000000000000000000000000000000000000815260040160405180910390fd5b600082806020019051810190612f5791906163fb565b905080600003612f93576040517ff881a10d00000000000000000000000000000000000000000000000000000000815260040160405180910390fd5b600081815260b160205260409020600160a55460ff166002811115612fba57612fba61593b565b0361326c5780548214612fe35760405163c1d17bef60e01b8152600481018390526024016111d3565b6069548160010154111561303b5760018101546069546040517f5863b0b600000000000000000000000000000000000000000000000000000000815260048101859052602481019290925260448201526064016111d3565b6001600882015460ff1660068111156130565761305661593b565b14613077576040516344980d8f60e01b8152600481018390526024016111d3565b600061308283611294565b905060006130938360010154611fe6565b905080821080156130a8575060008360010154115b156130df576040517fcce7930800000000000000000000000000000000000000000000000000000000815260040160405180910390fd5b60655460685460405163068bcd8d60e01b815260048101919091526000916001600160a01b03169063068bcd8d90602401600060405180830381865afa15801561312d573d6000803e3d6000fd5b505050506040513d6000823e601f3d908101601f1916820160405261315591908101906167b0565b905083600101546069600082825461316d91906162e0565b909155505060408101516004850154600186015461319592916001600160a01b0316906147cd565b60088401805460ff1916600490811790915560af54600586015460a95460405163099ea56b60e41b81529384018990526001600160a01b039182166024850152604484015216906399ea56b090606401600060405180830381600087803b1580156131ff57600080fd5b505af1158015613213573d6000803e3d6000fd5b5050505060048401546001850154604080518881526001600160a01b0390931660208401528201527fa7932e9c92f31e1ed56b29d00bbe669a97484dc24de28dd9c8c0429df7f358479060600160405180910390a15050505b5050505050565b600054610100900460ff166132de5760405162461bcd60e51b815260206004820152602b60248201527f496e697469616c697a61626c653a20636f6e7472616374206973206e6f74206960448201526a6e697469616c697a696e6760a81b60648201526084016111d3565b611323614812565b600054610100900460ff166133515760405162461bcd60e51b815260206004820152602b60248201527f496e697469616c697a61626c653a20636f6e7472616374206973206e6f74206960448201526a6e697469616c697a696e6760a81b60648201526084016111d3565b611323614886565b60008061336684846144c0565b91509150816000148015613378575080155b156133835750505050565b600784015560039092019190915550565b60ae54604051637817ee4f60e01b81526001600160a01b03838116600483015230602483015290911690637817ee4f90604401602060405180830381865afa1580156133e4573d6000803e3d6000fd5b505050506040513d601f19601f8201168201806040525081019061340891906163fb565b60a1600082825461341991906162e0565b909155505060ae546040517f22bcf9990000000000000000000000000000000000000000000000000000000081526001600160a01b038381166004830152306024830152909116906322bcf99990604401600060405180830381600087803b15801561348457600080fd5b505af1158015613498573d6000803e3d6000fd5b505050506134a5816148f8565b6040516001600160a01b03821681527f1468da654b37bb3631011c1917d02e0db437d519918858d40b38b5e980ca033b90602001611ad0565b60006134e98261406b565b61350657604051630b72d6b160e31b815260040160405180910390fd5b60008380602001905181019061351c9190616864565b805190915060000361355a576040517f4e79178600000000000000000000000000000000000000000000000000000000815260040160405180910390fd5b600160a55460ff1660028111156135735761357361593b565b03613726576135858160200151614518565b60608101516001600160a01b03166135c9576040517f596a094c00000000000000000000000000000000000000000000000000000000815260040160405180910390fd5b6000306001600160a01b03166315cc481e6040518163ffffffff1660e01b8152600401602060405180830381865afa158015613609573d6000803e3d6000fd5b505050506040513d601f19601f8201168201806040525081019061362d9190616306565b825160405163068bcd8d60e01b815260048101919091529091506000906001600160a01b0383169063068bcd8d90602401600060405180830381865afa15801561367b573d6000803e3d6000fd5b505050506040513d6000823e601f3d908101601f191682016040526136a391908101906167b0565b905080604001516001600160a01b031683606001516001600160a01b0316146136f8576040517fa29c498600000000000000000000000000000000000000000000000000000000815260040160405180910390fd5b6137058360400151613f98565b1561372357604051630efd728560e21b815260040160405180910390fd5b50505b60a7546001600160a01b031615801590613741575060a95434105b156137855760a9546040517fb07e3bc400000000000000000000000000000000000000000000000000000000815234600482015260248101919091526044016111d3565b6000609f60008154613796906165fe565b9182905550600081815260b1602090815260408083208481556005810180546001600160a01b038b81166001600160a01b0319928316179092558885015160048401805491841691831691909117905560608901516006840180549190931691161790559086015160018083019190915560088201805460ff19169091179055436007820155600381019290925560808501518051600a8401908155918101519394509192600b84019061384a9082616951565b505060af5460058301546040517f481fef8a000000000000000000000000000000000000000000000000000000008152600481018690526001600160a01b0391821660248201529116915063481fef8a9034906044016000604051808303818588803b1580156138b957600080fd5b505af11580156138cd573d6000803e3d6000fd5b50505050507ffcf3b1aa65a464cef2889608f99e8b8c0f680a4be6c2acb9d961c536a5a9294b6068548360405161390e929190918252602082015260400190565b60405180910390a16139556040518060400160405280600a81526020017f47617a206c6566743a20000000000000000000000000000000000000000000008152505a614a85565b50949350505050565b60ae546001600160a01b03163314611323576040517faf0916a200000000000000000000000000000000000000000000000000000000815260040160405180910390fd5b60ae54604080516336d8759760e21b815290516000926012926001600160a01b039091169163db61d65c916004808201926020929091908290030181865afa1580156139f2573d6000803e3d6000fd5b505050506040513d601f19601f82011682018060405250810190613a169190616306565b6001600160a01b031663313ce5676040518163ffffffff1660e01b8152600401602060405180830381865afa925050508015613a6f575060408051601f3d908101601f19168201909252613a6c91810190616a11565b60015b613ab657613ab16040518060400160405280601581526020017f4572726f722067657474696e6720646563696d616c0000000000000000000000815250614af8565b613abc565b60ff1690505b613afb6040518060400160405280601081526020017f5f616d6f756e74546f556e7374616b650000000000000000000000000000000081525084614a85565b60ae546040516316308e2560e11b81526001600160a01b0386811660048301526000928692911690632c611c4a90602401602060405180830381865afa158015613b49573d6000803e3d6000fd5b505050506040513d601f19601f82011682018060405250810190613b6d91906163fb565b613b7791906162e0565b9050613bb86040518060400160405280600d81526020017f6e6577546f74616c5374616b650000000000000000000000000000000000000081525082614a85565b6000613bd7613bc884600a616b18565b613bd290846163c7565b614b69565b60ae54604051637817ee4f60e01b81526001600160a01b03898116600483015230602483015292935060009284921690637817ee4f90604401602060405180830381865afa158015613c2d573d6000803e3d6000fd5b505050506040513d601f19601f82011682018060405250810190613c5191906163fb565b613c5b91906162e0565b979650505050505050565b60ae60009054906101000a90046001600160a01b03166001600160a01b0316636c53db9a6040518163ffffffff1660e01b8152600401602060405180830381865afa158015613cb9573d6000803e3d6000fd5b505050506040513d601f19601f82011682018060405250810190613cdd9190616306565b6001600160a01b0316336001600160a01b031614611323576040517fe860ec7e00000000000000000000000000000000000000000000000000000000815260040160405180910390fd5b6000600160801b8310613d7c5760405162461bcd60e51b815260206004820152601c60248201527f5f612073686f756c64206265206c657373207468616e20325e3132380000000060448201526064016111d3565b50600160801b82825b8015613dc85780600116600003613daa57613da08283614c51565b915060011c613d85565b613db48383614c51565b9250613dc16001826162e0565b9050613d85565b505092915050565b611cf8613fbf565b7f4910fdfa16fed3260ed0e7147f7cc6da11a60208b5b9406d12a635614ffd91435460ff1615613e0b576110e783614d50565b826001600160a01b03166352d1902d6040518163ffffffff1660e01b8152600401602060405180830381865afa925050508015613e65575060408051601f3d908101601f19168201909252613e62918101906163fb565b60015b613ed75760405162461bcd60e51b815260206004820152602e60248201527f45524331393637557067726164653a206e657720696d706c656d656e7461746960448201527f6f6e206973206e6f74205555505300000000000000000000000000000000000060648201526084016111d3565b7f360894a13ba1a3210667c828492db98dca3e2076cc3735a920a3ca505d382bbc8114613f6c5760405162461bcd60e51b815260206004820152602960248201527f45524331393637557067726164653a20756e737570706f727465642070726f7860448201527f6961626c6555554944000000000000000000000000000000000000000000000060648201526084016111d3565b506110e7838383614e0e565b60006001600160a01b03821615613f90576001611066565b600092915050565b6000613fa762989680836163c7565b606954609d54613fb791906163c7565b111592915050565b6033546001600160a01b031633146113235760405162461bcd60e51b815260206004820181905260248201527f4f776e61626c653a2063616c6c6572206973206e6f7420746865206f776e657260448201526064016111d3565b603380546001600160a01b038381166001600160a01b0319831681179093556040519116919082907f8be0079c531659141344cd1fd0a4f28419497f9722a3daafe3b4186f6b6457e090600090a35050565b60b0546000906001600160a01b031661408657506001919050565b60b0546040517f42a987a00000000000000000000000000000000000000000000000000000000081526001600160a01b038481166004830152306024830152909116906342a987a090604401602060405180830381865afa1580156140ef573d6000803e3d6000fd5b505050506040513d601f19601f8201168201806040525081019061106691906163de565b6000808290506141586040518060400160405280601281526020017f504f494e545320544f20494e435245415345000000000000000000000000000081525082614a85565b60ae54604051637817ee4f60e01b81526001600160a01b0386811660048301523060248301526000921690637817ee4f90604401602060405180830381865afa1580156141a9573d6000803e3d6000fd5b505050506040513d601f19601f820116820180604052508101906141cd91906163fb565b905061420e6040518060400160405280600b81526020017f4d454d424552504f57455200000000000000000000000000000000000000000081525082614a85565b60a65461421b83836162f3565b11156142325760a65461422f9082906162e0565b91505b6142716040518060400160405280601681526020017f504f494e545320544f20494e43524541534520454e440000000000000000000081525083614a85565b509392505050565b60ae546040516316308e2560e11b81526001600160a01b0384811660048301526000928392859290911690632c611c4a90602401602060405180830381865afa1580156142ca573d6000803e3d6000fd5b505050506040513d601f19601f820116820180604052508101906142ee91906163fb565b6142f891906162f3565b60ae54604080516336d8759760e21b815290519293506012926001600160a01b039092169163db61d65c916004808201926020929091908290030181865afa158015614348573d6000803e3d6000fd5b505050506040513d601f19601f8201168201806040525081019061436c9190616306565b6001600160a01b031663313ce5676040518163ffffffff1660e01b8152600401602060405180830381865afa9250505080156143c5575060408051601f3d908101601f191682019092526143c291810190616a11565b60015b61440c576144076040518060400160405280601581526020017f4572726f722067657474696e6720646563696d616c0000000000000000000000815250614af8565b614412565b60ff1690505b600061442c61442283600a616b18565b613bd290856163c7565b60ae54604051637817ee4f60e01b81526001600160a01b03898116600483015230602483015292935060009290911690637817ee4f90604401602060405180830381865afa158015614482573d6000803e3d6000fd5b505050506040513d601f19601f820116820180604052508101906144a691906163fb565b905060006144b482846162e0565b98975050505050505050565b60008043905080846007015411156144da576144da616b24565b808460070154036144f057506000905080614511565b61450e84600701548261450391906162e0565b856003015485611adb565b91505b9250929050565b6001600160a01b038116611cf8576040517fe622e04000000000000000000000000000000000000000000000000000000000815260040160405180910390fd5b6067805460ff19168215159081179091556040519081527fd94c9bc4d43c51d8dc345a016d8e3d994432fac68e72832e4cf3a616bd8efae090602001611ad0565b60006001600160a01b038216156145b1576002611066565b600392915050565b6145c1612e9f565b606854156145fb576040517f439a74c900000000000000000000000000000000000000000000000000000000815260040160405180910390fd5b80600003614635576040517f7fcce2a900000000000000000000000000000000000000000000000000000000815260040160405180910390fd5b606855565b6040516bffffffffffffffffffffffff193360601b1660208201526034810182905260009081906054016040516020818303038152906040528051906020012090506146868482614e33565b949350505050565b61469781614ed0565b6146a08161406b565b6146bd57604051630b72d6b160e31b815260040160405180910390fd5b60ae5460405163011de97360e61b81526001600160a01b038381166004830152306024830152600092169063477a5cc090604401602060405180830381865afa15801561470e573d6000803e3d6000fd5b505050506040513d601f19601f8201168201806040525081019061473291906163de565b90508061476b576040517f5fccb67f00000000000000000000000000000000000000000000000000000000815260040160405180910390fd5b6000838060200190518101906147819190616b3a565b905061478d8382614ff6565b61479783826151b9565b50505050565b6040518181527f46aeb5d8770fc4474bc2dfa118fd2595f7fb33ce2cbce6f4e5a3dabfe0f7633990602001611ad0565b7fffffffffffffffffffffffff11111111111111111111111111111111111111126001600160a01b03841601614807576110e782826155dd565b6110e78383836155f9565b600054610100900460ff1661487d5760405162461bcd60e51b815260206004820152602b60248201527f496e697469616c697a61626c653a20636f6e7472616374206973206e6f74206960448201526a6e697469616c697a696e6760a81b60648201526084016111d3565b61132333614019565b600054610100900460ff166148f15760405162461bcd60e51b815260206004820152602b60248201527f496e697469616c697a61626c653a20636f6e7472616374206973206e6f74206960448201526a6e697469616c697a696e6760a81b60648201526084016111d3565b6001606a55565b6001600160a01b038116600090815260b3602090815260408083208054825181850281018501909352808352919290919083018282801561495857602002820191906000526020600020905b815481526020019060010190808311614944575b5050505050905060005b81518110156110e757600082828151811061497f5761497f616be5565b60200260200101519050600060b1600083815260200190815260200160002090506149a982615648565b15614a70576001600160a01b03851660009081526009820160205260408120805490829055600283018054919283926149e39084906162e0565b925050819055508060a060008282546149fc91906162e0565b90915550614a0c90508282613359565b60028201546003830154604080516001600160a01b038a1681526020810187905260008183015260608101939093526080830191909152517f0227f642ddcf2042ceaeafadb9d540f432072c00cd4862881667168dcc14710f9181900360a00190a1505b50508080614a7d906165fe565b915050614962565b6112908282604051602401614a9b929190616bfb565b60408051601f198184030181529190526020810180517bffffffffffffffffffffffffffffffffffffffffffffffffffffffff167f9710a9d000000000000000000000000000000000000000000000000000000000179052615681565b611cf881604051602401614b0c9190616710565b60408051601f198184030181529190526020810180517bffffffffffffffffffffffffffffffffffffffffffffffffffffffff167f41304fac00000000000000000000000000000000000000000000000000000000179052615681565b600081600003614b7b57506000919050565b60006001614b88846156a2565b901c6001901b90506001818481614ba157614ba1616323565b048201901c90506001818481614bb957614bb9616323565b048201901c90506001818481614bd157614bd1616323565b048201901c90506001818481614be957614be9616323565b048201901c90506001818481614c0157614c01616323565b048201901c90506001818481614c1957614c19616323565b048201901c90506001818481614c3157614c31616323565b048201901c905061134181828581614c4b57614c4b616323565b04615736565b6000600160801b831115614ccd5760405162461bcd60e51b815260206004820152602860248201527f5f612073686f756c64206265206c657373207468616e206f7220657175616c2060448201527f746f20325e31323800000000000000000000000000000000000000000000000060648201526084016111d3565b600160801b8210614d205760405162461bcd60e51b815260206004820152601c60248201527f5f622073686f756c64206265206c657373207468616e20325e3132380000000060448201526064016111d3565b60806f80000000000000000000000000000000614d3d84866163c7565b614d4791906162f3565b901c9392505050565b6001600160a01b0381163b614dcd5760405162461bcd60e51b815260206004820152602d60248201527f455243313936373a206e657720696d706c656d656e746174696f6e206973206e60448201527f6f74206120636f6e74726163740000000000000000000000000000000000000060648201526084016111d3565b7f360894a13ba1a3210667c828492db98dca3e2076cc3735a920a3ca505d382bbc80546001600160a01b0319166001600160a01b0392909216919091179055565b614e178361574c565b600082511180614e245750805b156110e757614797838361578c565b6000763d602d80600a3d3981f3363d3d373d3d3d363d730000008360601b60e81c176000526e5af43d82803e903d91602b57fd5bf38360781b1760205281603760096000f590506001600160a01b0381166110665760405162461bcd60e51b815260206004820152601760248201527f455243313136373a2063726561746532206661696c656400000000000000000060448201526064016111d3565b6001600160a01b038116614f10576040517fd1f2828800000000000000000000000000000000000000000000000000000000815260040160405180910390fd5b60ae546001600160a01b0316614f3957604051635df4b1ef60e01b815260040160405180910390fd5b60ae546040517fa230c5240000000000000000000000000000000000000000000000000000000081526001600160a01b0383811660048301529091169063a230c52490602401602060405180830381865afa158015614f9c573d6000803e3d6000fd5b505050506040513d601f19601f82011682018060405250810190614fc091906163de565b611cf8576040517f6a5cfb6d00000000000000000000000000000000000000000000000000000000815260040160405180910390fd5b6000805b82518110156150b35782818151811061501557615015616be5565b602002602001015160000151600003156150a157600083828151811061503d5761503d616be5565b602002602001015160000151905061505481615648565b6150745760405163c1d17bef60e01b8152600481018290526024016111d3565b83828151811061508657615086616be5565b6020026020010151602001518361509d9190616c1d565b9250505b806150ab816165fe565b915050614ffa565b506001600160a01b038316600090815260b260205260408120546150d790836157b1565b60ae54604051637817ee4f60e01b81526001600160a01b03878116600483015230602483015292935060009290911690637817ee4f90604401602060405180830381865afa15801561512d573d6000803e3d6000fd5b505050506040513d601f19601f8201168201806040525081019061515191906163fb565b905080821115615197576040517fd64182fe00000000000000000000000000000000000000000000000000000000815260048101839052602481018290526044016111d3565b506001600160a01b03909316600090815260b260205260409020929092555050565b606060005b82518110156147975760008382815181106151db576151db616be5565b60200260200101516000015190508251600003615237576040805160018082528183019092529060208083019080368337019050509250808360008151811061522657615226616be5565b60200260200101818152505061538a565b6000805b84518110156152b6578285828151811061525757615257616be5565b6020026020010151036152a4576040517fadebb1540000000000000000000000000000000000000000000000000000000081526004810184905260248101829052600192506044016111d3565b806152ae816165fe565b91505061523b565b5080615388576000845160016152cc91906162f3565b67ffffffffffffffff8111156152e4576152e4615aba565b60405190808252806020026020018201604052801561530d578160200160208202803683370190505b50905060005b85518110156153655785818151811061532e5761532e616be5565b602002602001015182828151811061534857615348616be5565b60209081029190910101528061535d816165fe565b915050615313565b50828186518151811061537a5761537a616be5565b602090810291909101015293505b505b600084838151811061539e5761539e616be5565b602090810291909101810151810151600084815260b1835260408082206001600160a01b038b168352600981019094528120549193506153de82856157b1565b6001600160a01b038a1660009081526009850160205260408120829055909150805b6001600160a01b038b16600090815260b360205260409020548110156154775784546001600160a01b038c16600090815260b36020526040902080548390811061544c5761544c616be5565b9060005260206000200154036154655760019150615477565b8061546f816165fe565b915050615400565b50806154ad576001600160a01b038a16600090815260b36020908152604082208654815460018101835591845291909220909101555b8183116154fd576154be83836162e0565b60a060008282546154cf91906162f3565b909155506154df905083836162e0565b8460020160008282546154f291906162f3565b909155506155419050565b61550782846162e0565b60a0600082825461551891906162e0565b90915550615528905082846162e0565b84600201600082825461553b91906162e0565b90915550505b8360070154600003615558574360078501556155c4565b6155628484613359565b60028401546003850154604080516001600160a01b038e168152602081018a9052908101859052606081019290925260808201527f0227f642ddcf2042ceaeafadb9d540f432072c00cd4862881667168dcc14710f9060a00160405180910390a15b50505050505080806155d5906165fe565b9150506151be565b60008060008084865af16112905763b12d13eb6000526004601cfd5b81601452806034526fa9059cbb00000000000000000000000060005260206000604460106000875af13d15600160005114171661563e576390b8ec186000526004601cfd5b6000603452505050565b600081815260b1602052604081205415801590611066575050600090815260b160205260409020600501546001600160a01b0316151590565b80516a636f6e736f6c652e6c6f67602083016000808483855afa5050505050565b600080608083901c156156b757608092831c92015b604083901c156156c957604092831c92015b602083901c156156db57602092831c92015b601083901c156156ed57601092831c92015b600883901c156156ff57600892831c92015b600483901c1561571157600492831c92015b600283901c1561572357600292831c92015b600183901c156110665760010192915050565b60008183106157455781611341565b5090919050565b61575581614d50565b6040516001600160a01b038216907fbc7cd75a20ee27fd9adebab32041f755214dbc6bffa90cc0225b39da2e5c2d3b90600090a250565b60606113418383604051806060016040528060278152602001616c5a6027913961580c565b6000806157be8385616c1d565b90506000811215611341576040517f3bbc71420000000000000000000000000000000000000000000000000000000081526004810185905260248101849052604481018290526064016111d3565b6060600080856001600160a01b0316856040516158299190616c3d565b600060405180830381855af49150503d8060008114615864576040519150601f19603f3d011682016040523d82523d6000602084013e615869565b606091505b509150915061587a86838387615884565b9695505050505050565b606083156158f35782516000036158ec576001600160a01b0385163b6158ec5760405162461bcd60e51b815260206004820152601d60248201527f416464726573733a2063616c6c20746f206e6f6e2d636f6e747261637400000060448201526064016111d3565b5081614686565b61468683838151156159085781518083602001fd5b8060405162461bcd60e51b81526004016111d39190616710565b60006020828403121561593457600080fd5b5035919050565b634e487b7160e01b600052602160045260246000fd5b60078110611cf857611cf861593b565b60005b8381101561597c578181015183820152602001615964565b50506000910152565b6000815180845261599d816020860160208601615961565b601f01601f19169290920160200192915050565b8051825260006020820151604060208501526146866040850182615985565b60006101a08f83528e60208401528d60408401528c60608401526001600160a01b03808d166080850152808c1660a0850152808b1660c08501528960e0850152615a1989615951565b8861010085015281610120850152615a33828501896159b1565b61014085019790975261016084019590955250509116610180909101529a9950505050505050505050565b600060208284031215615a7057600080fd5b81356001600160e01b03198116811461134157600080fd5b6001600160a01b0381168114611cf857600080fd5b600060208284031215615aaf57600080fd5b813561134181615a88565b634e487b7160e01b600052604160045260246000fd5b60405160e0810167ffffffffffffffff81118282101715615af357615af3615aba565b60405290565b6040805190810167ffffffffffffffff81118282101715615af357615af3615aba565b604051610140810167ffffffffffffffff81118282101715615af357615af3615aba565b60405160c0810167ffffffffffffffff81118282101715615af357615af3615aba565b60405160a0810167ffffffffffffffff81118282101715615af357615af3615aba565b604051601f8201601f1916810167ffffffffffffffff81118282101715615baf57615baf615aba565b604052919050565b600067ffffffffffffffff821115615bd157615bd1615aba565b5060051b60200190565b600082601f830112615bec57600080fd5b81356020615c01615bfc83615bb7565b615b86565b82815260059290921b84018101918181019086841115615c2057600080fd5b8286015b84811015615c44578035615c3781615a88565b8352918301918301615c24565b509695505050505050565b600067ffffffffffffffff821115615c6957615c69615aba565b50601f01601f191660200190565b6000615c85615bfc84615c4f565b9050828152838383011115615c9957600080fd5b828260208301376000602084830101529392505050565b600082601f830112615cc157600080fd5b61134183833560208501615c77565b600080600060608486031215615ce557600080fd5b833567ffffffffffffffff80821115615cfd57600080fd5b615d0987838801615bdb565b94506020860135915080821115615d1f57600080fd5b50615d2c86828701615cb0565b9250506040840135615d3d81615a88565b809150509250925092565b60008060408385031215615d5b57600080fd5b823567ffffffffffffffff811115615d7257600080fd5b615d7e85828601615cb0565b9250506020830135615d8f81615a88565b809150509250929050565b60048110615daa57615daa61593b565b9052565b602081016110668284615d9a565b60008060408385031215615dcf57600080fd5b8235615dda81615a88565b946020939093013593505050565b60008060408385031215615dfb57600080fd5b50508035926020909101359150565b600060e08284031215615e1c57600080fd5b615e24615ad0565b8235615e2f81615a88565b81526020830135615e3f81615a88565b8060208301525060408301356040820152606083013560608201526080830135608082015260a083013560a082015260c0830135615e7c81615a88565b60c08201529392505050565b600080600060608486031215615e9d57600080fd5b505081359360208301359350604090920135919050565b60038110615daa57615daa61593b565b602081016110668284615eb4565b60008060408385031215615ee557600080fd5b8235615ef081615a88565b9150602083013567ffffffffffffffff811115615f0c57600080fd5b615f1885828601615cb0565b9150509250929050565b600060208284031215615f3457600080fd5b813567ffffffffffffffff811115615f4b57600080fd5b61468684828501615cb0565b60208152600061134160208301846159b1565b60008060408385031215615f7d57600080fd5b823567ffffffffffffffff80821115615f9557600080fd5b615fa186838701615bdb565b9350602091508185013581811115615fb857600080fd5b8501601f81018713615fc957600080fd5b8035615fd7615bfc82615bb7565b81815260059190911b82018401908481019089831115615ff657600080fd5b8584015b8381101561602e578035868111156160125760008081fd5b6160208c8983890101615cb0565b845250918601918601615ffa565b508096505050505050509250929050565b602080825282518282018190526000919060409081850190868401855b8281101561608a57815180516001600160a01b0316855286015186850152928401929085019060010161605c565b5091979650505050505050565b8015158114611cf857600080fd5b6000602082840312156160b757600080fd5b813561134181616097565b6001600160a01b038b811682528a8116602083015289166040820152606081018890526080810187905261014081016160fa87615951565b60a082019690965260c081019490945260e08401929092526101008301526101209091015295945050505050565b6000806040838503121561613b57600080fd5b823591506020830135615d8f81615a88565b6000602080838503121561616057600080fd5b823567ffffffffffffffff81111561617757600080fd5b8301601f8101851361618857600080fd5b8035616196615bfc82615bb7565b81815260069190911b820183019083810190878311156161b557600080fd5b928401925b82841015613c5b57604084890312156161d35760008081fd5b6161db615af9565b8435815285850135868201528252604090930192908401906161ba565b6020810161620583615951565b91905290565b6000806040838503121561621e57600080fd5b82359150602083013567ffffffffffffffff811115615f0c57600080fd5b6000806040838503121561624f57600080fd5b823561625a81615a88565b9150602083013567ffffffffffffffff81111561627657600080fd5b8301601f8101851361628757600080fd5b615f1885823560208401615c77565b600181811c908216806162aa57607f821691505b60208210810361211d57634e487b7160e01b600052602260045260246000fd5b634e487b7160e01b600052601160045260246000fd5b81810381811115611066576110666162ca565b80820180821115611066576110666162ca565b60006020828403121561631857600080fd5b815161134181615a88565b634e487b7160e01b600052601260045260246000fd5b60008261635657634e487b7160e01b600052601260045260246000fd5b500490565b6001600160a01b0383168152610100810161134160208301846001600160a01b0380825116835280602083015116602084015260408201516040840152606082015160608401526080820151608084015260a082015160a08401528060c08301511660c0840152505050565b8082028115828204841417611066576110666162ca565b6000602082840312156163f057600080fd5b815161134181616097565b60006020828403121561640d57600080fd5b5051919050565b805161641f81615a88565b919050565b600060e0828403121561643657600080fd5b61643e615ad0565b9050815161644b81615a88565b8152602082015161645b81615a88565b8060208301525060408201516040820152606082015160608201526080820151608082015260a082015160a082015260c082015161649881615a88565b60c082015292915050565b600080600080600061016086880312156164bc57600080fd5b6164c68787616424565b60e087015161010088015161012089015161014090990151929a91995097965090945092505050565b80516003811061641f57600080fd5b80516004811061641f57600080fd5b60006020828403121561651f57600080fd5b6040516020810181811067ffffffffffffffff8211171561654257616542615aba565b6040529151825250919050565b6000610200828403121561656257600080fd5b61656a615b1c565b61657383616414565b8152602083015160208201526040830151604082015260608301516060820152608083015160808201526165a960a084016164ef565b60a08201526165ba60c084016164fe565b60c08201526165cc8460e0850161650d565b60e08201526101006165e085828601616424565b908201526165f16101e08401616414565b6101208201529392505050565b600060018201616610576166106162ca565b5060010190565b82815281516001600160a01b031660208201526102208101602083015160408301526040830151606083015260608301516080830152608083015160a083015260a083015161666960c0840182615eb4565b5060c083015161667c60e0840182615d9a565b5060e083015161010061669181850183519052565b84015190506101206166f3848201836001600160a01b0380825116835280602083015116602084015260408201516040840152606082015160608401526080820151608084015260a082015160a08401528060c08301511660c0840152505050565b8401516001600160a01b0381166102008501529050509392505050565b6020815260006113416020830184615985565b60006040828403121561673557600080fd5b61673d615af9565b905081518152602082015167ffffffffffffffff81111561675d57600080fd5b8201601f8101841361676e57600080fd5b805161677c615bfc82615c4f565b81815285602083850101111561679157600080fd5b6167a2826020830160208601615961565b602084015250909392505050565b6000602082840312156167c257600080fd5b815167ffffffffffffffff808211156167da57600080fd5b9083019060c082860312156167ee57600080fd5b6167f6615b40565b82518152602083015161680881615a88565b6020820152604083015161681b81615a88565b604082015260608301518281111561683257600080fd5b61683e87828601616723565b6060830152506080830151608082015260a083015160a082015280935050505092915050565b60006020828403121561687657600080fd5b815167ffffffffffffffff8082111561688e57600080fd5b9083019060a082860312156168a257600080fd5b6168aa615b63565b8251815260208301516168bc81615a88565b60208201526040838101519082015260608301516168d981615a88565b60608201526080830151828111156168f057600080fd5b6168fc87828601616723565b60808301525095945050505050565b601f8211156110e757600081815260208120601f850160051c810160208610156169325750805b601f850160051c820191505b818110156126805782815560010161693e565b815167ffffffffffffffff81111561696b5761696b615aba565b61697f816169798454616296565b8461690b565b602080601f8311600181146169b4576000841561699c5750858301515b600019600386901b1c1916600185901b178555612680565b600085815260208120601f198616915b828110156169e3578886015182559484019460019091019084016169c4565b5085821015616a015787850151600019600388901b60f8161c191681555b5050505050600190811b01905550565b600060208284031215616a2357600080fd5b815160ff8116811461134157600080fd5b600181815b80851115616a6f578160001904821115616a5557616a556162ca565b80851615616a6257918102915b93841c9390800290616a39565b509250929050565b600082616a8657506001611066565b81616a9357506000611066565b8160018114616aa95760028114616ab357616acf565b6001915050611066565b60ff841115616ac457616ac46162ca565b50506001821b611066565b5060208310610133831016604e8410600b8410161715616af2575081810a611066565b616afc8383616a34565b8060001904821115616b1057616b106162ca565b029392505050565b60006113418383616a77565b634e487b7160e01b600052600160045260246000fd5b60006020808385031215616b4d57600080fd5b825167ffffffffffffffff811115616b6457600080fd5b8301601f81018513616b7557600080fd5b8051616b83615bfc82615bb7565b81815260069190911b82018301908381019087831115616ba257600080fd5b928401925b82841015613c5b5760408489031215616bc05760008081fd5b616bc8615af9565b845181528585015186820152825260409093019290840190616ba7565b634e487b7160e01b600052603260045260246000fd5b604081526000616c0e6040830185615985565b90508260208301529392505050565b8082018281126000831280158216821582161715613dc857613dc86162ca565b60008251616c4f818460208701615961565b919091019291505056fe416464726573733a206c6f772d6c6576656c2064656c65676174652063616c6c206661696c6564a264697066735822122044151c793f7bafd65d8bf6196b032316795e49f38e85ebe58a0c73355e9427c464736f6c6343000813003360806040526040516104ee3803806104ee833981016040819052610022916102de565b61002e82826000610035565b50506103fb565b61003e83610061565b60008251118061004b5750805b1561005c5761005a83836100a1565b505b505050565b61006a816100cd565b6040516001600160a01b038216907fbc7cd75a20ee27fd9adebab32041f755214dbc6bffa90cc0225b39da2e5c2d3b90600090a250565b60606100c683836040518060600160405280602781526020016104c760279139610180565b9392505050565b6001600160a01b0381163b61013f5760405162461bcd60e51b815260206004820152602d60248201527f455243313936373a206e657720696d706c656d656e746174696f6e206973206e60448201526c1bdd08184818dbdb9d1c9858dd609a1b60648201526084015b60405180910390fd5b7f360894a13ba1a3210667c828492db98dca3e2076cc3735a920a3ca505d382bbc80546001600160a01b0319166001600160a01b0392909216919091179055565b6060600080856001600160a01b03168560405161019d91906103ac565b600060405180830381855af49150503d80600081146101d8576040519150601f19603f3d011682016040523d82523d6000602084013e6101dd565b606091505b5090925090506101ef868383876101f9565b9695505050505050565b60608315610268578251600003610261576001600160a01b0385163b6102615760405162461bcd60e51b815260206004820152601d60248201527f416464726573733a2063616c6c20746f206e6f6e2d636f6e74726163740000006044820152606401610136565b5081610272565b610272838361027a565b949350505050565b81511561028a5781518083602001fd5b8060405162461bcd60e51b815260040161013691906103c8565b634e487b7160e01b600052604160045260246000fd5b60005b838110156102d55781810151838201526020016102bd565b50506000910152565b600080604083850312156102f157600080fd5b82516001600160a01b038116811461030857600080fd5b60208401519092506001600160401b038082111561032557600080fd5b818501915085601f83011261033957600080fd5b81518181111561034b5761034b6102a4565b604051601f8201601f19908116603f01168101908382118183101715610373576103736102a4565b8160405282815288602084870101111561038c57600080fd5b61039d8360208301602088016102ba565b80955050505050509250929050565b600082516103be8184602087016102ba565b9190910192915050565b60208152600082518060208401526103e78160408501602087016102ba565b601f01601f19169190910160400192915050565b60be806104096000396000f3fe608060405236601057600e6013565b005b600e5b601f601b6021565b6065565b565b600060607f360894a13ba1a3210667c828492db98dca3e2076cc3735a920a3ca505d382bbc5473ffffffffffffffffffffffffffffffffffffffff1690565b905090565b3660008037600080366000845af43d6000803e8080156083573d6000f35b3d6000fdfea26469706673582212205585e3040ed05db1951a83eda0d85299cecabb1d46e6c2e1aa118361cd09d1dd64736f6c63430008130033416464726573733a206c6f772d6c6576656c2064656c65676174652063616c6c206661696c656467617264656e73466163746f72792e67657447617264656e7346656552656365697665722829416464726573733a206c6f772d6c6576656c2064656c65676174652063616c6c206661696c6564a2646970667358221220bc3c8b2a4a3fa196f7f612b47742bd15e47dc9f22aa9e1af628b94ab696567e664736f6c6343000813003360806040526040516104ee3803806104ee833981016040819052610022916102de565b61002e82826000610035565b50506103fb565b61003e83610061565b60008251118061004b5750805b1561005c5761005a83836100a1565b505b505050565b61006a816100cd565b6040516001600160a01b038216907fbc7cd75a20ee27fd9adebab32041f755214dbc6bffa90cc0225b39da2e5c2d3b90600090a250565b60606100c683836040518060600160405280602781526020016104c760279139610180565b9392505050565b6001600160a01b0381163b61013f5760405162461bcd60e51b815260206004820152602d60248201527f455243313936373a206e657720696d706c656d656e746174696f6e206973206e60448201526c1bdd08184818dbdb9d1c9858dd609a1b60648201526084015b60405180910390fd5b7f360894a13ba1a3210667c828492db98dca3e2076cc3735a920a3ca505d382bbc80546001600160a01b0319166001600160a01b0392909216919091179055565b6060600080856001600160a01b03168560405161019d91906103ac565b600060405180830381855af49150503d80600081146101d8576040519150601f19603f3d011682016040523d82523d6000602084013e6101dd565b606091505b5090925090506101ef868383876101f9565b9695505050505050565b60608315610268578251600003610261576001600160a01b0385163b6102615760405162461bcd60e51b815260206004820152601d60248201527f416464726573733a2063616c6c20746f206e6f6e2d636f6e74726163740000006044820152606401610136565b5081610272565b610272838361027a565b949350505050565b81511561028a5781518083602001fd5b8060405162461bcd60e51b815260040161013691906103c8565b634e487b7160e01b600052604160045260246000fd5b60005b838110156102d55781810151838201526020016102bd565b50506000910152565b600080604083850312156102f157600080fd5b82516001600160a01b038116811461030857600080fd5b60208401519092506001600160401b038082111561032557600080fd5b818501915085601f83011261033957600080fd5b81518181111561034b5761034b6102a4565b604051601f8201601f19908116603f01168101908382118183101715610373576103736102a4565b8160405282815288602084870101111561038c57600080fd5b61039d8360208301602088016102ba565b80955050505050509250929050565b600082516103be8184602087016102ba565b9190910192915050565b60208152600082518060208401526103e78160408501602087016102ba565b601f01601f19169190910160400192915050565b60be806104096000396000f3fe608060405236601057600e6013565b005b600e5b601f601b6021565b6065565b565b600060607f360894a13ba1a3210667c828492db98dca3e2076cc3735a920a3ca505d382bbc5473ffffffffffffffffffffffffffffffffffffffff1690565b905090565b3660008037600080366000845af43d6000803e8080156083573d6000f35b3d6000fdfea26469706673582212205585e3040ed05db1951a83eda0d85299cecabb1d46e6c2e1aa118361cd09d1dd64736f6c63430008130033416464726573733a206c6f772d6c6576656c2064656c65676174652063616c6c206661696c6564416464726573733a206c6f772d6c6576656c2064656c65676174652063616c6c206661696c6564a2646970667358221220d70c4734fe77944ff65f6e23aaed9a168baf66d224f1b10320d25ab9a2938fd564736f6c63430008130033","linkReferences":{}},"methodIdentifiers":{"createRegistry((address,address,uint256,uint256,uint256,address,address,(uint256,string),address,string,bool,string,address))":"8a16135f","gardensFeeReceiver()":"b8bed901","getCommunityValidity(address)":"f5016b5e","getGardensFeeReceiver()":"987435be","getProtocolFee(address)":"0a992e0c","initialize(address)":"c4d66de8","nonce()":"affed0e0","owner()":"8da5cb5b","proxiableUUID()":"52d1902d","renounceOwnership()":"715018a6","setCommunityValidity(address,bool)":"5a2c8ace","setProtocolFee(address,uint256)":"b5b3ca2c","setReceiverAddress(address)":"8279c7db","transferOwnership(address)":"f2fde38b","upgradeTo(address)":"3659cfe6","upgradeToAndCall(address,bytes)":"4f1ef286"},"storageLayout":{"storage":[{"astId":53029,"contract":"pkg/contracts/src/RegistryFactoryV0_0.sol:RegistryFactoryV0_0","label":"_initialized","offset":0,"slot":"0","type":"t_uint8"},{"astId":53032,"contract":"pkg/contracts/src/RegistryFactoryV0_0.sol:RegistryFactoryV0_0","label":"_initializing","offset":1,"slot":"0","type":"t_bool"},{"astId":53734,"contract":"pkg/contracts/src/RegistryFactoryV0_0.sol:RegistryFactoryV0_0","label":"__gap","offset":0,"slot":"1","type":"t_array(t_uint256)50_storage"},{"astId":52821,"contract":"pkg/contracts/src/RegistryFactoryV0_0.sol:RegistryFactoryV0_0","label":"_owner","offset":0,"slot":"51","type":"t_address"},{"astId":52941,"contract":"pkg/contracts/src/RegistryFactoryV0_0.sol:RegistryFactoryV0_0","label":"__gap","offset":0,"slot":"52","type":"t_array(t_uint256)49_storage"},{"astId":87442,"contract":"pkg/contracts/src/RegistryFactoryV0_0.sol:RegistryFactoryV0_0","label":"nonce","offset":0,"slot":"101","type":"t_uint256"},{"astId":87447,"contract":"pkg/contracts/src/RegistryFactoryV0_0.sol:RegistryFactoryV0_0","label":"communityToInfo","offset":0,"slot":"102","type":"t_mapping(t_address,t_struct(CommunityInfo)87435_storage)"},{"astId":87449,"contract":"pkg/contracts/src/RegistryFactoryV0_0.sol:RegistryFactoryV0_0","label":"gardensFeeReceiver","offset":0,"slot":"103","type":"t_address"},{"astId":87722,"contract":"pkg/contracts/src/RegistryFactoryV0_0.sol:RegistryFactoryV0_0","label":"__gap","offset":0,"slot":"104","type":"t_array(t_uint256)50_storage"}],"types":{"t_address":{"encoding":"inplace","label":"address","numberOfBytes":"20"},"t_array(t_uint256)49_storage":{"encoding":"inplace","label":"uint256[49]","numberOfBytes":"1568","base":"t_uint256"},"t_array(t_uint256)50_storage":{"encoding":"inplace","label":"uint256[50]","numberOfBytes":"1600","base":"t_uint256"},"t_bool":{"encoding":"inplace","label":"bool","numberOfBytes":"1"},"t_mapping(t_address,t_struct(CommunityInfo)87435_storage)":{"encoding":"mapping","key":"t_address","label":"mapping(address => struct CommunityInfo)","numberOfBytes":"32","value":"t_struct(CommunityInfo)87435_storage"},"t_struct(CommunityInfo)87435_storage":{"encoding":"inplace","label":"struct CommunityInfo","numberOfBytes":"64","members":[{"astId":87432,"contract":"pkg/contracts/src/RegistryFactoryV0_0.sol:RegistryFactoryV0_0","label":"fee","offset":0,"slot":"0","type":"t_uint256"},{"astId":87434,"contract":"pkg/contracts/src/RegistryFactoryV0_0.sol:RegistryFactoryV0_0","label":"valid","offset":0,"slot":"1","type":"t_bool"}]},"t_uint256":{"encoding":"inplace","label":"uint256","numberOfBytes":"32"},"t_uint8":{"encoding":"inplace","label":"uint8","numberOfBytes":"1"}}},"id":138}