{"abi":[{"type":"function","name":"DISPUTE_COOLDOWN_SEC","inputs":[],"outputs":[{"name":"","type":"uint256","internalType":"uint256"}],"stateMutability":"view"},{"type":"function","name":"RULING_OPTIONS","inputs":[],"outputs":[{"name":"","type":"uint256","internalType":"uint256"}],"stateMutability":"view"},{"type":"function","name":"allocate","inputs":[{"name":"_data","type":"bytes","internalType":"bytes"},{"name":"_sender","type":"address","internalType":"address"}],"outputs":[],"stateMutability":"payable"},{"type":"function","name":"arbitrableConfigs","inputs":[{"name":"","type":"uint256","internalType":"uint256"}],"outputs":[{"name":"arbitrator","type":"address","internalType":"contract IArbitrator"},{"name":"tribunalSafe","type":"address","internalType":"address"},{"name":"submitterCollateralAmount","type":"uint256","internalType":"uint256"},{"name":"challengerCollateralAmount","type":"uint256","internalType":"uint256"},{"name":"defaultRuling","type":"uint256","internalType":"uint256"},{"name":"defaultRulingTimeout","type":"uint256","internalType":"uint256"}],"stateMutability":"view"},{"type":"function","name":"cloneNonce","inputs":[],"outputs":[{"name":"","type":"uint256","internalType":"uint256"}],"stateMutability":"view"},{"type":"function","name":"collateralVault","inputs":[],"outputs":[{"name":"","type":"address","internalType":"contract ICollateralVault"}],"stateMutability":"view"},{"type":"function","name":"currentArbitrableConfigVersion","inputs":[],"outputs":[{"name":"","type":"uint256","internalType":"uint256"}],"stateMutability":"view"},{"type":"function","name":"cvParams","inputs":[],"outputs":[{"name":"maxRatio","type":"uint256","internalType":"uint256"},{"name":"weight","type":"uint256","internalType":"uint256"},{"name":"decay","type":"uint256","internalType":"uint256"},{"name":"minThresholdPoints","type":"uint256","internalType":"uint256"}],"stateMutability":"view"},{"type":"function","name":"disputeCount","inputs":[],"outputs":[{"name":"","type":"uint64","internalType":"uint64"}],"stateMutability":"view"},{"type":"function","name":"disputeIdToProposalId","inputs":[{"name":"","type":"uint256","internalType":"uint256"}],"outputs":[{"name":"","type":"uint256","internalType":"uint256"}],"stateMutability":"view"},{"type":"function","name":"distribute","inputs":[{"name":"","type":"address[]","internalType":"address[]"},{"name":"_data","type":"bytes","internalType":"bytes"},{"name":"","type":"address","internalType":"address"}],"outputs":[],"stateMutability":"nonpayable"},{"type":"function","name":"pointConfig","inputs":[],"outputs":[{"name":"maxAmount","type":"uint256","internalType":"uint256"}],"stateMutability":"view"},{"type":"function","name":"pointSystem","inputs":[],"outputs":[{"name":"","type":"uint8","internalType":"enum PointSystem"}],"stateMutability":"view"},{"type":"function","name":"proposalCounter","inputs":[],"outputs":[{"name":"","type":"uint256","internalType":"uint256"}],"stateMutability":"view"},{"type":"function","name":"proposalType","inputs":[],"outputs":[{"name":"","type":"uint8","internalType":"enum ProposalType"}],"stateMutability":"view"},{"type":"function","name":"proposals","inputs":[{"name":"","type":"uint256","internalType":"uint256"}],"outputs":[{"name":"proposalId","type":"uint256","internalType":"uint256"},{"name":"requestedAmount","type":"uint256","internalType":"uint256"},{"name":"stakedAmount","type":"uint256","internalType":"uint256"},{"name":"convictionLast","type":"uint256","internalType":"uint256"},{"name":"beneficiary","type":"address","internalType":"address"},{"name":"submitter","type":"address","internalType":"address"},{"name":"requestedToken","type":"address","internalType":"address"},{"name":"blockLast","type":"uint256","internalType":"uint256"},{"name":"proposalStatus","type":"uint8","internalType":"enum ProposalStatus"},{"name":"metadata","type":"tuple","internalType":"struct Metadata","components":[{"name":"protocol","type":"uint256","internalType":"uint256"},{"name":"pointer","type":"string","internalType":"string"}]},{"name":"disputeInfo","type":"tuple","internalType":"struct ProposalDisputeInfo","components":[{"name":"disputeId","type":"uint256","internalType":"uint256"},{"name":"disputeTimestamp","type":"uint256","internalType":"uint256"},{"name":"challenger","type":"address","internalType":"address"}]},{"name":"lastDisputeCompletion","type":"uint256","internalType":"uint256"},{"name":"arbitrableConfigVersion","type":"uint256","internalType":"uint256"},{"name":"creationTimestamp","type":"uint256","internalType":"uint256"}],"stateMutability":"view"},{"type":"function","name":"registryCommunity","inputs":[],"outputs":[{"name":"","type":"address","internalType":"contract RegistryCommunity"}],"stateMutability":"view"},{"type":"function","name":"superfluidToken","inputs":[],"outputs":[{"name":"","type":"address","internalType":"contract ISuperToken"}],"stateMutability":"view"},{"type":"function","name":"sybilScorer","inputs":[],"outputs":[{"name":"","type":"address","internalType":"contract ISybilScorer"}],"stateMutability":"view"},{"type":"function","name":"totalPointsActivated","inputs":[],"outputs":[{"name":"","type":"uint256","internalType":"uint256"}],"stateMutability":"view"},{"type":"function","name":"totalStaked","inputs":[],"outputs":[{"name":"","type":"uint256","internalType":"uint256"}],"stateMutability":"view"},{"type":"function","name":"totalVoterStakePct","inputs":[{"name":"","type":"address","internalType":"address"}],"outputs":[{"name":"","type":"uint256","internalType":"uint256"}],"stateMutability":"view"},{"type":"function","name":"voterStakedProposals","inputs":[{"name":"","type":"address","internalType":"address"},{"name":"","type":"uint256","internalType":"uint256"}],"outputs":[{"name":"","type":"uint256","internalType":"uint256"}],"stateMutability":"view"},{"type":"event","name":"Distributed","inputs":[{"name":"proposalId","type":"uint256","indexed":false,"internalType":"uint256"},{"name":"beneficiary","type":"address","indexed":false,"internalType":"address"},{"name":"amount","type":"uint256","indexed":false,"internalType":"uint256"}],"anonymous":false},{"type":"event","name":"SupportAdded","inputs":[{"name":"from","type":"address","indexed":false,"internalType":"address"},{"name":"proposalId","type":"uint256","indexed":false,"internalType":"uint256"},{"name":"amount","type":"uint256","indexed":false,"internalType":"uint256"},{"name":"totalStakedAmount","type":"uint256","indexed":false,"internalType":"uint256"},{"name":"convictionLast","type":"uint256","indexed":false,"internalType":"uint256"}],"anonymous":false},{"type":"error","name":"AmountOverMaxRatio","inputs":[{"name":"requestedAmount","type":"uint256","internalType":"uint256"},{"name":"maxAllowed","type":"uint256","internalType":"uint256"},{"name":"poolAmount","type":"uint256","internalType":"uint256"}]},{"type":"error","name":"ConvictionUnderMinimumThreshold","inputs":[{"name":"conviction","type":"uint256","internalType":"uint256"},{"name":"threshold","type":"uint256","internalType":"uint256"},{"name":"requestedAmount","type":"uint256","internalType":"uint256"}]},{"type":"error","name":"NativeTransferFailed","inputs":[{"name":"recipient","type":"address","internalType":"address"},{"name":"amount","type":"uint256","internalType":"uint256"}]},{"type":"error","name":"NotEnoughPointsToSupport","inputs":[{"name":"pointsSupport","type":"uint256","internalType":"uint256"},{"name":"pointsBalance","type":"uint256","internalType":"uint256"}]},{"type":"error","name":"OnlyActiveProposal","inputs":[{"name":"proposalId","type":"uint256","internalType":"uint256"}]},{"type":"error","name":"OnlyAllo","inputs":[{"name":"sender","type":"address","internalType":"address"},{"name":"allo","type":"address","internalType":"address"}]},{"type":"error","name":"OnlyCouncilSafe","inputs":[{"name":"sender","type":"address","internalType":"address"},{"name":"councilSafe","type":"address","internalType":"address"},{"name":"owner","type":"address","internalType":"address"}]},{"type":"error","name":"OnlyCouncilSafeOrMember","inputs":[{"name":"sender","type":"address","internalType":"address"},{"name":"councilSafe","type":"address","internalType":"address"}]},{"type":"error","name":"OnlyInitialized","inputs":[{"name":"poolId","type":"uint256","internalType":"uint256"}]},{"type":"error","name":"OnlyMember","inputs":[{"name":"wallet","type":"address","internalType":"address"},{"name":"community","type":"address","internalType":"address"}]},{"type":"error","name":"OnlyRegistryCommunity","inputs":[{"name":"sender","type":"address","internalType":"address"},{"name":"registry","type":"address","internalType":"address"}]},{"type":"error","name":"OnlySubmitter","inputs":[{"name":"proposalId","type":"uint256","internalType":"uint256"},{"name":"submitter","type":"address","internalType":"address"},{"name":"sender","type":"address","internalType":"address"}]},{"type":"error","name":"PoolAmountNotEnough","inputs":[{"name":"proposalId","type":"uint256","internalType":"uint256"},{"name":"requestedAmount","type":"uint256","internalType":"uint256"},{"name":"poolAmount","type":"uint256","internalType":"uint256"}]},{"type":"error","name":"PoolIsEmpty","inputs":[{"name":"poolAmount","type":"uint256","internalType":"uint256"}]},{"type":"error","name":"ProposalDataIsEmpty","inputs":[{"name":"inputLength","type":"uint256","internalType":"uint256"}]},{"type":"error","name":"ProposalDoesNotExist","inputs":[{"name":"proposalID","type":"uint256","internalType":"uint256"}]},{"type":"error","name":"ProposalInvalidForAllocation","inputs":[{"name":"_proposalId","type":"uint256","internalType":"uint256"},{"name":"_proposalStatus","type":"uint8","internalType":"enum ProposalStatus"}]},{"type":"error","name":"ProposalNotActive","inputs":[{"name":"proposalId","type":"uint256","internalType":"uint256"},{"name":"currentStatus","type":"uint8","internalType":"uint8"}]},{"type":"error","name":"ProposalNotInList","inputs":[{"name":"proposalId","type":"uint256","internalType":"uint256"}]},{"type":"error","name":"ProposalSupportDuplicated","inputs":[{"name":"_proposalId","type":"uint256","internalType":"uint256"},{"name":"index","type":"uint256","internalType":"uint256"}]},{"type":"error","name":"SupportUnderflow","inputs":[{"name":"_support","type":"uint256","internalType":"uint256"},{"name":"_delta","type":"int256","internalType":"int256"},{"name":"_result","type":"int256","internalType":"int256"}]},{"type":"error","name":"UserCannotExecuteAction","inputs":[{"name":"user","type":"address","internalType":"address"}]},{"type":"error","name":"UserIsInactive","inputs":[{"name":"user","type":"address","internalType":"address"}]}],"bytecode":{"object":"0x608060405234801561001057600080fd5b5061287b806100206000396000f3fe6080604052600436106101105760003560e01c8063013cf08b1461011557806305caa7f3146101585780630a6f0ee9146101855780630bece79c146101a75780630c0512e9146101c7578063125fd1d9146101eb5780632506b87014610201578063255ffb38146102345780632dbd6fdd14610261578063339604591461028d578063351d9f96146102a357806341bb7605146102ca5780635db64b991461035f5780636003e4141461038c578063626c47e8146103ac578063817b1cd2146103c1578063868c57b8146103d7578063a28889e1146103f7578063a47ff7e51461042f578063aba9ffee14610446578063b6c61f311461045c578063ef2920fc1461047c578063f5be3f7c1461048f575b600080fd5b34801561012157600080fd5b50610135610130366004611ed8565b6104a5565b60405161014f9e9d9c9b9a99989796959493929190611f8a565b60405180910390f35b34801561016457600080fd5b50608054610178906001600160a01b031681565b60405161014f919061203e565b34801561019157600080fd5b506101a56101a03660046121a7565b6105f8565b005b3480156101b357600080fd5b50607954610178906001600160a01b031681565b3480156101d357600080fd5b506101dd606e5481565b60405190815260200161014f565b3480156101f757600080fd5b506101dd606f5481565b34801561020d57600080fd5b506072546073546074546075546102249392919084565b60405161014f9493929190612278565b34801561024057600080fd5b506101dd61024f366004611ed8565b607e6020526000908152604090205481565b34801561026d57600080fd5b5060765461028090610100900460ff1681565b60405161014f9190612293565b34801561029957600080fd5b506101dd606c5481565b3480156102af57600080fd5b506076546102bd9060ff1681565b60405161014f91906122ad565b3480156102d657600080fd5b506103276102e5366004611ed8565b607f602052600090815260409020805460018201546002830154600384015460048501546005909501546001600160a01b039485169593909416939192909186565b604080516001600160a01b039788168152969095166020870152938501929092526060840152608083015260a082015260c00161014f565b34801561036b57600080fd5b506101dd61037a3660046122c1565b607c6020526000908152604090205481565b34801561039857600080fd5b50607854610178906001600160a01b031681565b3480156103b857600080fd5b506101dd600381565b3480156103cd57600080fd5b506101dd60705481565b3480156103e357600080fd5b506101dd6103f23660046122de565b610ca5565b34801561040357600080fd5b50606d54610417906001600160401b031681565b6040516001600160401b03909116815260200161014f565b34801561043b57600080fd5b506077546101dd9081565b34801561045257600080fd5b506101dd60715481565b34801561046857600080fd5b50607a54610178906001600160a01b031681565b6101a561048a36600461230a565b610cd6565b34801561049b57600080fd5b506101dd611c2081565b607b602090815260009182526040918290208054600182015460028301546003840154600485015460058601546006870154600788015460088901548b51808d01909c52600a8a0180548d52600b8b0180549a9d999c989b979a6001600160a01b039788169a968816999790951697939660ff909316959394919284019161052c9061235b565b80601f01602080910402602001604051908101604052809291908181526020018280546105589061235b565b80156105a55780601f1061057a576101008083540402835291602001916105a5565b820191906000526020600020905b81548152906001019060200180831161058857829003601f168201915b50505091909252505060408051606081018252600c8501548152600d8501546020820152600e8501546001600160a01b031691810191909152600f8401546010850154601190950154939491939092508e565b6065546001600160a01b0316331461063d57606554604051636ca3252960e01b81526106349133916001600160a01b0390911690600401612395565b60405180910390fd5b6068546000036106665760685460405163243d58fb60e21b815260040161063491815260200190565b600082511161068d5781516040516307ab773f60e01b815260040161063491815260200190565b60006106976113f2565b9050806000036106bd57604051633d16389f60e21b815260048101829052602401610634565b6000838060200190518101906106d391906123af565b6080549091506001600160a01b03161561083f576000818152607b602052604090819020600181015460069091015491516370a0823160e01b815290916001600160a01b0316906370a082319061072e90309060040161203e565b602060405180830381865afa15801561074b573d6000803e3d6000fd5b505050506040513d601f19601f8201168201806040525081019061076f91906123af565b101561083f576080546040516370a0823160e01b81526001600160a01b03909116906311bcc81e9082906370a08231906107ad90309060040161203e565b602060405180830381865afa1580156107ca573d6000803e3d6000fd5b505050506040513d601f19601f820116820180604052508101906107ee91906123af565b6040518263ffffffff1660e01b815260040161080c91815260200190565b600060405180830381600087803b15801561082657600080fd5b505af115801561083a573d6000803e3d6000fd5b505050505b600160765460ff16600281111561085857610858611ef1565b03610c9e576000818152607b6020526040902054811480159061087a57508015155b1561089b5760405163c1d17bef60e01b815260048101829052602401610634565b60016000828152607b602052604090206008015460ff1660068111156108c3576108c3611ef1565b14610915576000818152607b6020526040902060080154819060ff1660068111156108f0576108f0611ef1565b60405163052d1a7b60e21b8152600481019290925260ff166024820152604401610634565b6000818152607b602052604090206001015482101561095e576000818152607b602052604090819020600101549051632c31d85b60e11b815261063491839185906004016123c8565b6000818152607b602052604090206001015461097990611680565b156109d2576000629896808360726000015461099591906123f4565b61099f919061240b565b6000838152607b602052604090819020600101549051633e4bb86360e01b815291925061063491839086906004016123c8565b60006109dd826116ac565b6000838152607b60205260408082206001015460715460745460735460725460755495516314eff2dd60e11b81526004810195909552602485018b905260448501939093526064840191909152608483015260a482015260c48101919091529192509073__$f1b7c69ba751c396eddc93d3bbc5414fd9$__906329dfe5ba9060e401602060405180830381865af4158015610a7c573d6000803e3d6000fd5b505050506040513d601f19601f82011682018060405250810190610aa091906123af565b9050808211158015610ac257506000838152607b602052604090206001015415155b15610af8576000838152607b602052604090819020600101549051637ac83e3d60e01b81526106349184918491906004016123c8565b60655460685460405163068bcd8d60e01b81526004810191909152610b9f916001600160a01b03169063068bcd8d90602401600060405180830381865afa158015610b47573d6000803e3d6000fd5b505050506040513d6000823e601f3d908101601f19168201604052610b6f919081019061242d565b6040908101516000868152607b6020529190912060048101546001909101546001600160a01b03909116906116f6565b6000838152607b6020908152604080832060088101805460ff19166004908117909155607954600590920154606f548652607f9094529382902060020154915163099ea56b60e41b81526001600160a01b03918216946399ea56b094610c0d948a949091169290910161254e565b600060405180830381600087803b158015610c2757600080fd5b505af1158015610c3b573d6000803e3d6000fd5b5050506000848152607b602052604090819020600481015460019091015491517fa7932e9c92f31e1ed56b29d00bbe669a97484dc24de28dd9c8c0429df7f358479350610c939287926001600160a01b03169161254e565b60405180910390a150505b5050505050565b607d6020528160005260406000208181548110610cc157600080fd5b90600052602060002001600091509150505481565b6065546001600160a01b03163314610d1257606554604051636ca3252960e01b81526106349133916001600160a01b0390911690600401612395565b606854600003610d3b5760685460405163243d58fb60e21b815260040161063491815260200190565b600082806020019051810190610d51919061256d565b905060005b8151811015610db557610da3828281518110610d7457610d74612617565b602002602001015160000151838381518110610d9257610d92612617565b6020026020010151602001516117a9565b80610dad8161262d565b915050610d56565b50610dbf82611871565b60785460405163011de97360e61b81526001600160a01b039091169063477a5cc090610df19085903090600401612395565b602060405180830381865afa158015610e0e573d6000803e3d6000fd5b505050506040513d601f19601f82011682018060405250810190610e329190612646565b610e515781604051634f6fcf7360e11b8152600401610634919061203e565b600080610e5d84611915565b905060005b8351811015610ef35781158015610e9657506000848281518110610e8857610e88612617565b602002602001015160200151135b15610eb657846040516307772b5360e51b8152600401610634919061203e565b838181518110610ec857610ec8612617565b60200260200101516020015183610edf9190612668565b925080610eeb8161262d565b915050610e62565b506001600160a01b0384166000908152607c6020526040812054610f179084611ada565b607854604051637817ee4f60e01b81529192506000916001600160a01b0390911690637817ee4f90610f4f9089903090600401612395565b6020604051808303816000875af1158015610f6e573d6000803e3d6000fd5b505050506040513d601f19601f82011682018060405250810190610f9291906123af565b905080821115610fbf57604051636b20c17f60e11b81526004810183905260248101829052604401610634565b506001600160a01b0385166000908152607c60205260408120919091556060925090505b8251811015610c9e57600083828151811061100057611000612617565b6020026020010151600001519050825160000361105c576040805160018082528183019092529060208083019080368337019050509250808360008151811061104b5761104b612617565b602002602001018181525050611195565b6000805b84518110156110c2578285828151811061107c5761107c612617565b6020026020010151036110b057604051632b7aec5560e21b8152600481018490526024810182905260019250604401610634565b806110ba8161262d565b915050611060565b5080611193576000845160016110d89190612690565b6001600160401b038111156110ef576110ef612052565b604051908082528060200260200182016040528015611118578160200160208202803683370190505b50905060005b85518110156111705785818151811061113957611139612617565b602002602001015182828151811061115357611153612617565b6020908102919091010152806111688161262d565b91505061111e565b50828186518151811061118557611185612617565b602090810291909101015293505b505b60008483815181106111a9576111a9612617565b6020908102919091018101518101516000848152607b8352604080822060028101546001600160a01b038c16845260098201909552908220549294509291906111f28286611ada565b6001600160a01b038b1660009081526009860160205260408120829055909150805b6001600160a01b038c166000908152607d602052604090205481101561128b5785546001600160a01b038d166000908152607d6020526040902080548390811061126057611260612617565b906000526020600020015403611279576001915061128b565b806112838161262d565b915050611214565b50806112c1576001600160a01b038b166000908152607d6020908152604082208754815460018101835591845291909220909101555b818311611311576112d283836126a3565b607060008282546112e39190612690565b909155506112f3905083836126a3565b8560020160008282546113069190612690565b909155506113559050565b61131b82846126a3565b6070600082825461132c91906126a3565b9091555061133c905082846126a3565b85600201600082825461134f91906126a3565b90915550505b846007015460000361136c574360078601556113d8565b6113768585611b11565b60028501546003860154604080516001600160a01b038f168152602081018b9052908101859052606081019290925260808201527f0227f642ddcf2042ceaeafadb9d540f432072c00cd4862881667168dcc14710f9060a00160405180910390a15b5050505050505080806113ea9061262d565b915050610fe3565b60655460685460405163068bcd8d60e01b815260009283926001600160a01b039091169163068bcd8d9161142c9160040190815260200190565b600060405180830381865afa158015611449573d6000803e3d6000fd5b505050506040513d6000823e601f3d908101601f19168201604052611471919081019061242d565b60400151905073eeeeeeeeeeeeeeeeeeeeeeeeeeeeeeeeeeeeeeed196001600160a01b038216016114a3574791505090565b6040516370a0823160e01b81526000906001600160a01b038316906370a08231906114d290309060040161203e565b602060405180830381865afa1580156114ef573d6000803e3d6000fd5b505050506040513d601f19601f8201168201806040525081019061151391906123af565b6080549091506000906001600160a01b0316156115a0576080546040516370a0823160e01b81526001600160a01b03909116906370a082319061155a90309060040161203e565b602060405180830381865afa158015611577573d6000803e3d6000fd5b505050506040513d601f19601f8201168201806040525081019061159b91906123af565b6115a3565b60005b90506000836001600160a01b031663313ce5676040518163ffffffff1660e01b8152600401602060405180830381865afa1580156115e5573d6000803e3d6000fd5b505050506040513d601f19601f8201168201806040525081019061160991906126b6565b905060128160ff16101561163e576116228160126126d9565b61162d90600a6127d6565b611637908361240b565b915061166d565b60128160ff16111561166d576116556012826126d9565b61166090600a6127d6565b61166a90836123f4565b91505b6116778284612690565b94505050505090565b600061168f62989680836123f4565b6116976113f2565b6072546116a491906123f4565b111592915050565b6000818152607b60205260408120805483146116de5760405163c1d17bef60e01b815260048101849052602401610634565b6116ec818260020154611b11565b6003015492915050565b73eeeeeeeeeeeeeeeeeeeeeeeeeeeeeeeeeeeeeeed196001600160a01b03841601611799576000826001600160a01b03168260405160006040518083038185875af1925050503d8060008114611768576040519150601f19603f3d011682016040523d82523d6000602084013e61176d565b606091505b505090508061179357828260405163296c17bb60e21b81526004016106349291906127e5565b50505050565b6117a4838383611b4c565b505050565b6000828152607b60205260408120908213801561184657506000600882015460ff1660068111156117dc576117dc611ef1565b148061180057506003600882015460ff1660068111156117fe576117fe611ef1565b145b8061182357506004600882015460ff16600681111561182157611821611ef1565b145b8061184657506006600882015460ff16600681111561184457611844611ef1565b145b156117a45760088101546040516394d57ead60e01b815261063491859160ff909116906004016127fe565b60785460405163288c314960e21b81526001600160a01b039091169063a230c524906118a190849060040161203e565b6020604051808303816000875af11580156118c0573d6000803e3d6000fd5b505050506040513d601f19601f820116820180604052508101906118e49190612646565b61191257607854604051636332657560e11b81526106349183916001600160a01b0390911690600401612395565b50565b607a546000906001600160a01b0316611a61576068546040516810531313d5d31254d560ba1b6020820152602981019190915260009060490160408051601f19818403018152908290528051602090910120607854632474521560e21b83529092506001600160a01b0316906391d1485490611998908490600090600401612812565b602060405180830381865afa1580156119b5573d6000803e3d6000fd5b505050506040513d601f19601f820116820180604052508101906119d99190612646565b156119e75750600192915050565b607854604051632474521560e21b81526001600160a01b03909116906391d1485490611a199084908790600401612812565b602060405180830381865afa158015611a36573d6000803e3d6000fd5b505050506040513d601f19601f82011682018060405250810190611a5a9190612646565b9392505050565b607a546040516302154c3d60e51b81526001600160a01b03909116906342a987a090611a939085903090600401612395565b602060405180830381865afa158015611ab0573d6000803e3d6000fd5b505050506040513d601f19601f82011682018060405250810190611ad49190612646565b92915050565b600080611ae78385612668565b90506000811215611a5a57838382604051631dde38a160e11b8152600401610634939291906123c8565b600080611b1e8484611ba2565b91509150816000148015611b30575080155b15611b3b5750505050565b600784015560039092019190915550565b6117a48363a9059cbb60e01b8484604051602401611b6b9291906127e5565b60408051601f198184030181529190526020810180516001600160e01b03166001600160e01b031990931692909217909152611c73565b6000804390508084600701541115611bbc57611bbc612829565b80846007015403611bd257506000905080611c6c565b73__$f1b7c69ba751c396eddc93d3bbc5414fd9$__63010dfe64856007015483611bfc91906126a3565b60038701546074546040516001600160e01b031960e086901b168152611c289392918991600401612278565b602060405180830381865af4158015611c45573d6000803e3d6000fd5b505050506040513d601f19601f82011682018060405250810190611c6991906123af565b91505b9250929050565b6000611cc8826040518060400160405280602081526020017f5361666545524332303a206c6f772d6c6576656c2063616c6c206661696c6564815250856001600160a01b0316611d489092919063ffffffff16565b9050805160001480611ce9575080806020019051810190611ce99190612646565b6117a45760405162461bcd60e51b815260206004820152602a60248201527f5361666545524332303a204552433230206f7065726174696f6e20646964206e6044820152691bdd081cdd58d8d9595960b21b6064820152608401610634565b6060611d578484600085611d5f565b949350505050565b606082471015611dc05760405162461bcd60e51b815260206004820152602660248201527f416464726573733a20696e73756666696369656e742062616c616e636520666f6044820152651c8818d85b1b60d21b6064820152608401610634565b600080866001600160a01b03168587604051611ddc919061283f565b60006040518083038185875af1925050503d8060008114611e19576040519150601f19603f3d011682016040523d82523d6000602084013e611e1e565b606091505b5091509150611e2f87838387611e3a565b979650505050505050565b60608315611ea9578251600003611ea2576001600160a01b0385163b611ea25760405162461bcd60e51b815260206004820152601d60248201527f416464726573733a2063616c6c20746f206e6f6e2d636f6e74726163740000006044820152606401610634565b5081611d57565b611d578383815115611ebe5781518083602001fd5b8060405162461bcd60e51b8152600401610634919061285b565b600060208284031215611eea57600080fd5b5035919050565b634e487b7160e01b600052602160045260246000fd5b60078110611f1757611f17611ef1565b9052565b60005b83811015611f36578181015183820152602001611f1e565b50506000910152565b60008151808452611f57816020860160208601611f1b565b601f01601f19169290920160200192915050565b805182526000602082015160406020850152611d576040850182611f3f565b8e8152602081018e9052604081018d9052606081018c90526001600160a01b038b811660808301528a811660a0830152891660c082015260008860e0830152611fd7610100830189611f07565b610200610120830152611fee610200830188611f6b565b865161014084015260208701516101608401526040909601516001600160a01b0316610180830152506101a08101939093526101c08301919091526101e0909101529a9950505050505050505050565b6001600160a01b0391909116815260200190565b634e487b7160e01b600052604160045260246000fd5b60405160c081016001600160401b038111828210171561208a5761208a612052565b60405290565b604080519081016001600160401b038111828210171561208a5761208a612052565b604051601f8201601f191681016001600160401b03811182821017156120da576120da612052565b604052919050565b60006001600160401b038211156120fb576120fb612052565b5060051b60200190565b6001600160a01b038116811461191257600080fd5b803561212581612105565b919050565b60006001600160401b0382111561214357612143612052565b50601f01601f191660200190565b600082601f83011261216257600080fd5b81356121756121708261212a565b6120b2565b81815284602083860101111561218a57600080fd5b816020850160208301376000918101602001919091529392505050565b6000806000606084860312156121bc57600080fd5b83356001600160401b03808211156121d357600080fd5b818601915086601f8301126121e757600080fd5b813560206121f7612170836120e2565b82815260059290921b8401810191818101908a84111561221657600080fd5b948201945b8386101561223d57853561222e81612105565b8252948201949082019061221b565b9750508701359250508082111561225357600080fd5b5061226086828701612151565b92505061226f6040850161211a565b90509250925092565b93845260208401929092526040830152606082015260800190565b60208101600483106122a7576122a7611ef1565b91905290565b60208101600383106122a7576122a7611ef1565b6000602082840312156122d357600080fd5b8135611a5a81612105565b600080604083850312156122f157600080fd5b82356122fc81612105565b946020939093013593505050565b6000806040838503121561231d57600080fd5b82356001600160401b0381111561233357600080fd5b61233f85828601612151565b925050602083013561235081612105565b809150509250929050565b600181811c9082168061236f57607f821691505b60208210810361238f57634e487b7160e01b600052602260045260246000fd5b50919050565b6001600160a01b0392831681529116602082015260400190565b6000602082840312156123c157600080fd5b5051919050565b9283526020830191909152604082015260600190565b634e487b7160e01b600052601160045260246000fd5b8082028115828204841417611ad457611ad46123de565b60008261242857634e487b7160e01b600052601260045260246000fd5b500490565b6000602080838503121561244057600080fd5b82516001600160401b038082111561245757600080fd5b9084019060c0828703121561246b57600080fd5b612473612068565b825181528383015161248481612105565b81850152604083015161249681612105565b60408201526060830151828111156124ad57600080fd5b8301604081890312156124bf57600080fd5b6124c7612090565b8151815285820151848111156124dc57600080fd5b82019350601f840189136124ef57600080fd5b835191506124ff6121708361212a565b828152898784870101111561251357600080fd5b61252283888301898801611f1b565b95810195909552506060810193909352506080818101519083015260a090810151908201529392505050565b9283526001600160a01b03919091166020830152604082015260600190565b6000602080838503121561258057600080fd5b82516001600160401b0381111561259657600080fd5b8301601f810185136125a757600080fd5b80516125b5612170826120e2565b81815260069190911b820183019083810190878311156125d457600080fd5b928401925b82841015611e2f57604084890312156125f25760008081fd5b6125fa612090565b8451815285850151868201528252604090930192908401906125d9565b634e487b7160e01b600052603260045260246000fd5b60006001820161263f5761263f6123de565b5060010190565b60006020828403121561265857600080fd5b81518015158114611a5a57600080fd5b8082018281126000831280158216821582161715612688576126886123de565b505092915050565b80820180821115611ad457611ad46123de565b81810381811115611ad457611ad46123de565b6000602082840312156126c857600080fd5b815160ff81168114611a5a57600080fd5b60ff8281168282160390811115611ad457611ad46123de565b600181815b8085111561272d578160001904821115612713576127136123de565b8085161561272057918102915b93841c93908002906126f7565b509250929050565b60008261274457506001611ad4565b8161275157506000611ad4565b816001811461276757600281146127715761278d565b6001915050611ad4565b60ff841115612782576127826123de565b50506001821b611ad4565b5060208310610133831016604e8410600b84101617156127b0575081810a611ad4565b6127ba83836126f2565b80600019048211156127ce576127ce6123de565b029392505050565b6000611a5a60ff841683612735565b6001600160a01b03929092168252602082015260400190565b82815260408101611a5a6020830184611f07565b9182526001600160a01b0316602082015260400190565b634e487b7160e01b600052600160045260246000fd5b60008251612851818460208701611f1b565b9190910192915050565b602081526000611a5a6020830184611f3f56fea164736f6c6343000813000a","linkReferences":{"pkg/contracts/src/CVStrategy/ConvictionsUtils.sol":{"ConvictionsUtils":[{"start":2658,"length":20},{"start":7156,"length":20}]}}},"methodIdentifiers":{"DISPUTE_COOLDOWN_SEC()":"f5be3f7c","RULING_OPTIONS()":"626c47e8","allocate(bytes,address)":"ef2920fc","arbitrableConfigs(uint256)":"41bb7605","cloneNonce()":"33960459","collateralVault()":"0bece79c","currentArbitrableConfigVersion()":"125fd1d9","cvParams()":"2506b870","disputeCount()":"a28889e1","disputeIdToProposalId(uint256)":"255ffb38","distribute(address[],bytes,address)":"0a6f0ee9","pointConfig()":"a47ff7e5","pointSystem()":"2dbd6fdd","proposalCounter()":"0c0512e9","proposalType()":"351d9f96","proposals(uint256)":"013cf08b","registryCommunity()":"6003e414","superfluidToken()":"05caa7f3","sybilScorer()":"b6c61f31","totalPointsActivated()":"aba9ffee","totalStaked()":"817b1cd2","totalVoterStakePct(address)":"5db64b99","voterStakedProposals(address,uint256)":"868c57b8"},"storageLayout":{"storage":[{"astId":71576,"contract":"pkg/contracts/src/CVStrategy/facets/CVAllocationFacet.sol:CVAllocationFacet","label":"_initialized","offset":0,"slot":"0","type":"t_uint8"},{"astId":71578,"contract":"pkg/contracts/src/CVStrategy/facets/CVAllocationFacet.sol:CVAllocationFacet","label":"_initializing","offset":1,"slot":"0","type":"t_bool"},{"astId":71582,"contract":"pkg/contracts/src/CVStrategy/facets/CVAllocationFacet.sol:CVAllocationFacet","label":"__gap_init","offset":0,"slot":"1","type":"t_array(t_uint256)50_storage"},{"astId":71585,"contract":"pkg/contracts/src/CVStrategy/facets/CVAllocationFacet.sol:CVAllocationFacet","label":"_owner","offset":0,"slot":"51","type":"t_address"},{"astId":71589,"contract":"pkg/contracts/src/CVStrategy/facets/CVAllocationFacet.sol:CVAllocationFacet","label":"__gap_ownable","offset":0,"slot":"52","type":"t_array(t_uint256)49_storage"},{"astId":71593,"contract":"pkg/contracts/src/CVStrategy/facets/CVAllocationFacet.sol:CVAllocationFacet","label":"allo","offset":0,"slot":"101","type":"t_contract(IAllo)350"},{"astId":71595,"contract":"pkg/contracts/src/CVStrategy/facets/CVAllocationFacet.sol:CVAllocationFacet","label":"strategyId","offset":0,"slot":"102","type":"t_bytes32"},{"astId":71597,"contract":"pkg/contracts/src/CVStrategy/facets/CVAllocationFacet.sol:CVAllocationFacet","label":"poolActive","offset":0,"slot":"103","type":"t_bool"},{"astId":71599,"contract":"pkg/contracts/src/CVStrategy/facets/CVAllocationFacet.sol:CVAllocationFacet","label":"poolId","offset":0,"slot":"104","type":"t_uint256"},{"astId":71601,"contract":"pkg/contracts/src/CVStrategy/facets/CVAllocationFacet.sol:CVAllocationFacet","label":"poolAmount","offset":0,"slot":"105","type":"t_uint256"},{"astId":71604,"contract":"pkg/contracts/src/CVStrategy/facets/CVAllocationFacet.sol:CVAllocationFacet","label":"collateralVaultTemplate","offset":0,"slot":"106","type":"t_address"},{"astId":71607,"contract":"pkg/contracts/src/CVStrategy/facets/CVAllocationFacet.sol:CVAllocationFacet","label":"surpressStateMutabilityWarning","offset":0,"slot":"107","type":"t_uint256"},{"astId":71610,"contract":"pkg/contracts/src/CVStrategy/facets/CVAllocationFacet.sol:CVAllocationFacet","label":"cloneNonce","offset":0,"slot":"108","type":"t_uint256"},{"astId":71613,"contract":"pkg/contracts/src/CVStrategy/facets/CVAllocationFacet.sol:CVAllocationFacet","label":"disputeCount","offset":0,"slot":"109","type":"t_uint64"},{"astId":71616,"contract":"pkg/contracts/src/CVStrategy/facets/CVAllocationFacet.sol:CVAllocationFacet","label":"proposalCounter","offset":0,"slot":"110","type":"t_uint256"},{"astId":71619,"contract":"pkg/contracts/src/CVStrategy/facets/CVAllocationFacet.sol:CVAllocationFacet","label":"currentArbitrableConfigVersion","offset":0,"slot":"111","type":"t_uint256"},{"astId":71622,"contract":"pkg/contracts/src/CVStrategy/facets/CVAllocationFacet.sol:CVAllocationFacet","label":"totalStaked","offset":0,"slot":"112","type":"t_uint256"},{"astId":71625,"contract":"pkg/contracts/src/CVStrategy/facets/CVAllocationFacet.sol:CVAllocationFacet","label":"totalPointsActivated","offset":0,"slot":"113","type":"t_uint256"},{"astId":71629,"contract":"pkg/contracts/src/CVStrategy/facets/CVAllocationFacet.sol:CVAllocationFacet","label":"cvParams","offset":0,"slot":"114","type":"t_struct(CVParams)72600_storage"},{"astId":71633,"contract":"pkg/contracts/src/CVStrategy/facets/CVAllocationFacet.sol:CVAllocationFacet","label":"proposalType","offset":0,"slot":"118","type":"t_enum(ProposalType)72501"},{"astId":71637,"contract":"pkg/contracts/src/CVStrategy/facets/CVAllocationFacet.sol:CVAllocationFacet","label":"pointSystem","offset":1,"slot":"118","type":"t_enum(PointSystem)72506"},{"astId":71641,"contract":"pkg/contracts/src/CVStrategy/facets/CVAllocationFacet.sol:CVAllocationFacet","label":"pointConfig","offset":0,"slot":"119","type":"t_struct(PointSystemConfig)72577_storage"},{"astId":71645,"contract":"pkg/contracts/src/CVStrategy/facets/CVAllocationFacet.sol:CVAllocationFacet","label":"registryCommunity","offset":0,"slot":"120","type":"t_contract(RegistryCommunity)79247"},{"astId":71649,"contract":"pkg/contracts/src/CVStrategy/facets/CVAllocationFacet.sol:CVAllocationFacet","label":"collateralVault","offset":0,"slot":"121","type":"t_contract(ICollateralVault)84647"},{"astId":71653,"contract":"pkg/contracts/src/CVStrategy/facets/CVAllocationFacet.sol:CVAllocationFacet","label":"sybilScorer","offset":0,"slot":"122","type":"t_contract(ISybilScorer)77092"},{"astId":71659,"contract":"pkg/contracts/src/CVStrategy/facets/CVAllocationFacet.sol:CVAllocationFacet","label":"proposals","offset":0,"slot":"123","type":"t_mapping(t_uint256,t_struct(Proposal)72569_storage)"},{"astId":71664,"contract":"pkg/contracts/src/CVStrategy/facets/CVAllocationFacet.sol:CVAllocationFacet","label":"totalVoterStakePct","offset":0,"slot":"124","type":"t_mapping(t_address,t_uint256)"},{"astId":71670,"contract":"pkg/contracts/src/CVStrategy/facets/CVAllocationFacet.sol:CVAllocationFacet","label":"voterStakedProposals","offset":0,"slot":"125","type":"t_mapping(t_address,t_array(t_uint256)dyn_storage)"},{"astId":71675,"contract":"pkg/contracts/src/CVStrategy/facets/CVAllocationFacet.sol:CVAllocationFacet","label":"disputeIdToProposalId","offset":0,"slot":"126","type":"t_mapping(t_uint256,t_uint256)"},{"astId":71681,"contract":"pkg/contracts/src/CVStrategy/facets/CVAllocationFacet.sol:CVAllocationFacet","label":"arbitrableConfigs","offset":0,"slot":"127","type":"t_mapping(t_uint256,t_struct(ArbitrableConfig)72591_storage)"},{"astId":71685,"contract":"pkg/contracts/src/CVStrategy/facets/CVAllocationFacet.sol:CVAllocationFacet","label":"superfluidToken","offset":0,"slot":"128","type":"t_contract(ISuperToken)67830"},{"astId":71690,"contract":"pkg/contracts/src/CVStrategy/facets/CVAllocationFacet.sol:CVAllocationFacet","label":"__gap","offset":0,"slot":"129","type":"t_array(t_uint256)49_storage"}],"types":{"t_address":{"encoding":"inplace","label":"address","numberOfBytes":"20"},"t_array(t_uint256)49_storage":{"encoding":"inplace","label":"uint256[49]","numberOfBytes":"1568","base":"t_uint256"},"t_array(t_uint256)50_storage":{"encoding":"inplace","label":"uint256[50]","numberOfBytes":"1600","base":"t_uint256"},"t_array(t_uint256)dyn_storage":{"encoding":"dynamic_array","label":"uint256[]","numberOfBytes":"32","base":"t_uint256"},"t_bool":{"encoding":"inplace","label":"bool","numberOfBytes":"1"},"t_bytes32":{"encoding":"inplace","label":"bytes32","numberOfBytes":"32"},"t_contract(IAllo)350":{"encoding":"inplace","label":"contract IAllo","numberOfBytes":"20"},"t_contract(IArbitrator)84614":{"encoding":"inplace","label":"contract IArbitrator","numberOfBytes":"20"},"t_contract(ICollateralVault)84647":{"encoding":"inplace","label":"contract ICollateralVault","numberOfBytes":"20"},"t_contract(ISuperToken)67830":{"encoding":"inplace","label":"contract ISuperToken","numberOfBytes":"20"},"t_contract(ISybilScorer)77092":{"encoding":"inplace","label":"contract ISybilScorer","numberOfBytes":"20"},"t_contract(RegistryCommunity)79247":{"encoding":"inplace","label":"contract RegistryCommunity","numberOfBytes":"20"},"t_enum(PointSystem)72506":{"encoding":"inplace","label":"enum PointSystem","numberOfBytes":"1"},"t_enum(ProposalStatus)72526":{"encoding":"inplace","label":"enum ProposalStatus","numberOfBytes":"1"},"t_enum(ProposalType)72501":{"encoding":"inplace","label":"enum ProposalType","numberOfBytes":"1"},"t_mapping(t_address,t_array(t_uint256)dyn_storage)":{"encoding":"mapping","key":"t_address","label":"mapping(address => uint256[])","numberOfBytes":"32","value":"t_array(t_uint256)dyn_storage"},"t_mapping(t_address,t_uint256)":{"encoding":"mapping","key":"t_address","label":"mapping(address => uint256)","numberOfBytes":"32","value":"t_uint256"},"t_mapping(t_uint256,t_struct(ArbitrableConfig)72591_storage)":{"encoding":"mapping","key":"t_uint256","label":"mapping(uint256 => struct ArbitrableConfig)","numberOfBytes":"32","value":"t_struct(ArbitrableConfig)72591_storage"},"t_mapping(t_uint256,t_struct(Proposal)72569_storage)":{"encoding":"mapping","key":"t_uint256","label":"mapping(uint256 => struct Proposal)","numberOfBytes":"32","value":"t_struct(Proposal)72569_storage"},"t_mapping(t_uint256,t_uint256)":{"encoding":"mapping","key":"t_uint256","label":"mapping(uint256 => uint256)","numberOfBytes":"32","value":"t_uint256"},"t_string_storage":{"encoding":"bytes","label":"string","numberOfBytes":"32"},"t_struct(ArbitrableConfig)72591_storage":{"encoding":"inplace","label":"struct ArbitrableConfig","numberOfBytes":"192","members":[{"astId":72580,"contract":"pkg/contracts/src/CVStrategy/facets/CVAllocationFacet.sol:CVAllocationFacet","label":"arbitrator","offset":0,"slot":"0","type":"t_contract(IArbitrator)84614"},{"astId":72582,"contract":"pkg/contracts/src/CVStrategy/facets/CVAllocationFacet.sol:CVAllocationFacet","label":"tribunalSafe","offset":0,"slot":"1","type":"t_address"},{"astId":72584,"contract":"pkg/contracts/src/CVStrategy/facets/CVAllocationFacet.sol:CVAllocationFacet","label":"submitterCollateralAmount","offset":0,"slot":"2","type":"t_uint256"},{"astId":72586,"contract":"pkg/contracts/src/CVStrategy/facets/CVAllocationFacet.sol:CVAllocationFacet","label":"challengerCollateralAmount","offset":0,"slot":"3","type":"t_uint256"},{"astId":72588,"contract":"pkg/contracts/src/CVStrategy/facets/CVAllocationFacet.sol:CVAllocationFacet","label":"defaultRuling","offset":0,"slot":"4","type":"t_uint256"},{"astId":72590,"contract":"pkg/contracts/src/CVStrategy/facets/CVAllocationFacet.sol:CVAllocationFacet","label":"defaultRulingTimeout","offset":0,"slot":"5","type":"t_uint256"}]},"t_struct(CVParams)72600_storage":{"encoding":"inplace","label":"struct CVParams","numberOfBytes":"128","members":[{"astId":72593,"contract":"pkg/contracts/src/CVStrategy/facets/CVAllocationFacet.sol:CVAllocationFacet","label":"maxRatio","offset":0,"slot":"0","type":"t_uint256"},{"astId":72595,"contract":"pkg/contracts/src/CVStrategy/facets/CVAllocationFacet.sol:CVAllocationFacet","label":"weight","offset":0,"slot":"1","type":"t_uint256"},{"astId":72597,"contract":"pkg/contracts/src/CVStrategy/facets/CVAllocationFacet.sol:CVAllocationFacet","label":"decay","offset":0,"slot":"2","type":"t_uint256"},{"astId":72599,"contract":"pkg/contracts/src/CVStrategy/facets/CVAllocationFacet.sol:CVAllocationFacet","label":"minThresholdPoints","offset":0,"slot":"3","type":"t_uint256"}]},"t_struct(Metadata)801_storage":{"encoding":"inplace","label":"struct Metadata","numberOfBytes":"64","members":[{"astId":797,"contract":"pkg/contracts/src/CVStrategy/facets/CVAllocationFacet.sol:CVAllocationFacet","label":"protocol","offset":0,"slot":"0","type":"t_uint256"},{"astId":800,"contract":"pkg/contracts/src/CVStrategy/facets/CVAllocationFacet.sol:CVAllocationFacet","label":"pointer","offset":0,"slot":"1","type":"t_string_storage"}]},"t_struct(PointSystemConfig)72577_storage":{"encoding":"inplace","label":"struct PointSystemConfig","numberOfBytes":"32","members":[{"astId":72576,"contract":"pkg/contracts/src/CVStrategy/facets/CVAllocationFacet.sol:CVAllocationFacet","label":"maxAmount","offset":0,"slot":"0","type":"t_uint256"}]},"t_struct(Proposal)72569_storage":{"encoding":"inplace","label":"struct Proposal","numberOfBytes":"576","members":[{"astId":72535,"contract":"pkg/contracts/src/CVStrategy/facets/CVAllocationFacet.sol:CVAllocationFacet","label":"proposalId","offset":0,"slot":"0","type":"t_uint256"},{"astId":72537,"contract":"pkg/contracts/src/CVStrategy/facets/CVAllocationFacet.sol:CVAllocationFacet","label":"requestedAmount","offset":0,"slot":"1","type":"t_uint256"},{"astId":72539,"contract":"pkg/contracts/src/CVStrategy/facets/CVAllocationFacet.sol:CVAllocationFacet","label":"stakedAmount","offset":0,"slot":"2","type":"t_uint256"},{"astId":72541,"contract":"pkg/contracts/src/CVStrategy/facets/CVAllocationFacet.sol:CVAllocationFacet","label":"convictionLast","offset":0,"slot":"3","type":"t_uint256"},{"astId":72543,"contract":"pkg/contracts/src/CVStrategy/facets/CVAllocationFacet.sol:CVAllocationFacet","label":"beneficiary","offset":0,"slot":"4","type":"t_address"},{"astId":72545,"contract":"pkg/contracts/src/CVStrategy/facets/CVAllocationFacet.sol:CVAllocationFacet","label":"submitter","offset":0,"slot":"5","type":"t_address"},{"astId":72547,"contract":"pkg/contracts/src/CVStrategy/facets/CVAllocationFacet.sol:CVAllocationFacet","label":"requestedToken","offset":0,"slot":"6","type":"t_address"},{"astId":72549,"contract":"pkg/contracts/src/CVStrategy/facets/CVAllocationFacet.sol:CVAllocationFacet","label":"blockLast","offset":0,"slot":"7","type":"t_uint256"},{"astId":72552,"contract":"pkg/contracts/src/CVStrategy/facets/CVAllocationFacet.sol:CVAllocationFacet","label":"proposalStatus","offset":0,"slot":"8","type":"t_enum(ProposalStatus)72526"},{"astId":72556,"contract":"pkg/contracts/src/CVStrategy/facets/CVAllocationFacet.sol:CVAllocationFacet","label":"voterStakedPoints","offset":0,"slot":"9","type":"t_mapping(t_address,t_uint256)"},{"astId":72559,"contract":"pkg/contracts/src/CVStrategy/facets/CVAllocationFacet.sol:CVAllocationFacet","label":"metadata","offset":0,"slot":"10","type":"t_struct(Metadata)801_storage"},{"astId":72562,"contract":"pkg/contracts/src/CVStrategy/facets/CVAllocationFacet.sol:CVAllocationFacet","label":"disputeInfo","offset":0,"slot":"12","type":"t_struct(ProposalDisputeInfo)72533_storage"},{"astId":72564,"contract":"pkg/contracts/src/CVStrategy/facets/CVAllocationFacet.sol:CVAllocationFacet","label":"lastDisputeCompletion","offset":0,"slot":"15","type":"t_uint256"},{"astId":72566,"contract":"pkg/contracts/src/CVStrategy/facets/CVAllocationFacet.sol:CVAllocationFacet","label":"arbitrableConfigVersion","offset":0,"slot":"16","type":"t_uint256"},{"astId":72568,"contract":"pkg/contracts/src/CVStrategy/facets/CVAllocationFacet.sol:CVAllocationFacet","label":"creationTimestamp","offset":0,"slot":"17","type":"t_uint256"}]},"t_struct(ProposalDisputeInfo)72533_storage":{"encoding":"inplace","label":"struct ProposalDisputeInfo","numberOfBytes":"96","members":[{"astId":72528,"contract":"pkg/contracts/src/CVStrategy/facets/CVAllocationFacet.sol:CVAllocationFacet","label":"disputeId","offset":0,"slot":"0","type":"t_uint256"},{"astId":72530,"contract":"pkg/contracts/src/CVStrategy/facets/CVAllocationFacet.sol:CVAllocationFacet","label":"disputeTimestamp","offset":0,"slot":"1","type":"t_uint256"},{"astId":72532,"contract":"pkg/contracts/src/CVStrategy/facets/CVAllocationFacet.sol:CVAllocationFacet","label":"challenger","offset":0,"slot":"2","type":"t_address"}]},"t_uint256":{"encoding":"inplace","label":"uint256","numberOfBytes":"32"},"t_uint64":{"encoding":"inplace","label":"uint64","numberOfBytes":"8"},"t_uint8":{"encoding":"inplace","label":"uint8","numberOfBytes":"1"}}},"id":110}