{"abi":[{"type":"function","name":"DISPUTE_COOLDOWN_SEC","inputs":[],"outputs":[{"name":"","type":"uint256","internalType":"uint256"}],"stateMutability":"view"},{"type":"function","name":"RULING_OPTIONS","inputs":[],"outputs":[{"name":"","type":"uint256","internalType":"uint256"}],"stateMutability":"view"},{"type":"function","name":"allocate","inputs":[{"name":"_data","type":"bytes","internalType":"bytes"},{"name":"_sender","type":"address","internalType":"address"}],"outputs":[],"stateMutability":"payable"},{"type":"function","name":"arbitrableConfigs","inputs":[{"name":"","type":"uint256","internalType":"uint256"}],"outputs":[{"name":"arbitrator","type":"address","internalType":"contract IArbitrator"},{"name":"tribunalSafe","type":"address","internalType":"address"},{"name":"submitterCollateralAmount","type":"uint256","internalType":"uint256"},{"name":"challengerCollateralAmount","type":"uint256","internalType":"uint256"},{"name":"defaultRuling","type":"uint256","internalType":"uint256"},{"name":"defaultRulingTimeout","type":"uint256","internalType":"uint256"}],"stateMutability":"view"},{"type":"function","name":"cloneNonce","inputs":[],"outputs":[{"name":"","type":"uint256","internalType":"uint256"}],"stateMutability":"view"},{"type":"function","name":"collateralVault","inputs":[],"outputs":[{"name":"","type":"address","internalType":"contract ICollateralVault"}],"stateMutability":"view"},{"type":"function","name":"currentArbitrableConfigVersion","inputs":[],"outputs":[{"name":"","type":"uint256","internalType":"uint256"}],"stateMutability":"view"},{"type":"function","name":"cvParams","inputs":[],"outputs":[{"name":"maxRatio","type":"uint256","internalType":"uint256"},{"name":"weight","type":"uint256","internalType":"uint256"},{"name":"decay","type":"uint256","internalType":"uint256"},{"name":"minThresholdPoints","type":"uint256","internalType":"uint256"}],"stateMutability":"view"},{"type":"function","name":"cvVault","inputs":[],"outputs":[{"name":"","type":"address","internalType":"contract ICVVault"}],"stateMutability":"view"},{"type":"function","name":"disputeCount","inputs":[],"outputs":[{"name":"","type":"uint64","internalType":"uint64"}],"stateMutability":"view"},{"type":"function","name":"disputeIdToProposalId","inputs":[{"name":"","type":"uint256","internalType":"uint256"}],"outputs":[{"name":"","type":"uint256","internalType":"uint256"}],"stateMutability":"view"},{"type":"function","name":"distribute","inputs":[{"name":"","type":"address[]","internalType":"address[]"},{"name":"_data","type":"bytes","internalType":"bytes"},{"name":"","type":"address","internalType":"address"}],"outputs":[],"stateMutability":"nonpayable"},{"type":"function","name":"pointConfig","inputs":[],"outputs":[{"name":"maxAmount","type":"uint256","internalType":"uint256"}],"stateMutability":"view"},{"type":"function","name":"pointSystem","inputs":[],"outputs":[{"name":"","type":"uint8","internalType":"enum PointSystem"}],"stateMutability":"view"},{"type":"function","name":"proposalCounter","inputs":[],"outputs":[{"name":"","type":"uint256","internalType":"uint256"}],"stateMutability":"view"},{"type":"function","name":"proposalType","inputs":[],"outputs":[{"name":"","type":"uint8","internalType":"enum ProposalType"}],"stateMutability":"view"},{"type":"function","name":"proposals","inputs":[{"name":"","type":"uint256","internalType":"uint256"}],"outputs":[{"name":"proposalId","type":"uint256","internalType":"uint256"},{"name":"requestedAmount","type":"uint256","internalType":"uint256"},{"name":"stakedAmount","type":"uint256","internalType":"uint256"},{"name":"convictionLast","type":"uint256","internalType":"uint256"},{"name":"beneficiary","type":"address","internalType":"address"},{"name":"submitter","type":"address","internalType":"address"},{"name":"requestedToken","type":"address","internalType":"address"},{"name":"blockLast","type":"uint256","internalType":"uint256"},{"name":"proposalStatus","type":"uint8","internalType":"enum ProposalStatus"},{"name":"metadata","type":"tuple","internalType":"struct Metadata","components":[{"name":"protocol","type":"uint256","internalType":"uint256"},{"name":"pointer","type":"string","internalType":"string"}]},{"name":"disputeInfo","type":"tuple","internalType":"struct ProposalDisputeInfo","components":[{"name":"disputeId","type":"uint256","internalType":"uint256"},{"name":"disputeTimestamp","type":"uint256","internalType":"uint256"},{"name":"challenger","type":"address","internalType":"address"}]},{"name":"lastDisputeCompletion","type":"uint256","internalType":"uint256"},{"name":"arbitrableConfigVersion","type":"uint256","internalType":"uint256"},{"name":"creationTimestamp","type":"uint256","internalType":"uint256"}],"stateMutability":"view"},{"type":"function","name":"registryCommunity","inputs":[],"outputs":[{"name":"","type":"address","internalType":"contract IVotingPowerRegistry"}],"stateMutability":"view"},{"type":"function","name":"superfluidToken","inputs":[],"outputs":[{"name":"","type":"address","internalType":"contract ISuperToken"}],"stateMutability":"view"},{"type":"function","name":"sybilScorer","inputs":[],"outputs":[{"name":"","type":"address","internalType":"contract ISybilScorer"}],"stateMutability":"view"},{"type":"function","name":"totalPointsActivated","inputs":[],"outputs":[{"name":"","type":"uint256","internalType":"uint256"}],"stateMutability":"view"},{"type":"function","name":"totalStaked","inputs":[],"outputs":[{"name":"","type":"uint256","internalType":"uint256"}],"stateMutability":"view"},{"type":"function","name":"totalVoterStakePct","inputs":[{"name":"","type":"address","internalType":"address"}],"outputs":[{"name":"","type":"uint256","internalType":"uint256"}],"stateMutability":"view"},{"type":"function","name":"voterStakedProposals","inputs":[{"name":"","type":"address","internalType":"address"},{"name":"","type":"uint256","internalType":"uint256"}],"outputs":[{"name":"","type":"uint256","internalType":"uint256"}],"stateMutability":"view"},{"type":"event","name":"Distributed","inputs":[{"name":"proposalId","type":"uint256","indexed":false,"internalType":"uint256"},{"name":"beneficiary","type":"address","indexed":false,"internalType":"address"},{"name":"amount","type":"uint256","indexed":false,"internalType":"uint256"}],"anonymous":false},{"type":"event","name":"SupportAdded","inputs":[{"name":"from","type":"address","indexed":false,"internalType":"address"},{"name":"proposalId","type":"uint256","indexed":false,"internalType":"uint256"},{"name":"amount","type":"uint256","indexed":false,"internalType":"uint256"},{"name":"totalStakedAmount","type":"uint256","indexed":false,"internalType":"uint256"},{"name":"convictionLast","type":"uint256","indexed":false,"internalType":"uint256"}],"anonymous":false},{"type":"error","name":"AmountOverMaxRatio","inputs":[{"name":"requestedAmount","type":"uint256","internalType":"uint256"},{"name":"maxAllowed","type":"uint256","internalType":"uint256"},{"name":"poolAmount","type":"uint256","internalType":"uint256"}]},{"type":"error","name":"ConvictionUnderMinimumThreshold","inputs":[{"name":"conviction","type":"uint256","internalType":"uint256"},{"name":"threshold","type":"uint256","internalType":"uint256"},{"name":"requestedAmount","type":"uint256","internalType":"uint256"}]},{"type":"error","name":"NativeTransferFailed","inputs":[{"name":"recipient","type":"address","internalType":"address"},{"name":"amount","type":"uint256","internalType":"uint256"}]},{"type":"error","name":"NotEnoughPointsToSupport","inputs":[{"name":"pointsSupport","type":"uint256","internalType":"uint256"},{"name":"pointsBalance","type":"uint256","internalType":"uint256"}]},{"type":"error","name":"OnlyActiveProposal","inputs":[{"name":"proposalId","type":"uint256","internalType":"uint256"}]},{"type":"error","name":"OnlyAllo","inputs":[{"name":"sender","type":"address","internalType":"address"},{"name":"allo","type":"address","internalType":"address"}]},{"type":"error","name":"OnlyCouncilSafe","inputs":[{"name":"sender","type":"address","internalType":"address"},{"name":"councilSafe","type":"address","internalType":"address"},{"name":"owner","type":"address","internalType":"address"}]},{"type":"error","name":"OnlyCouncilSafeOrMember","inputs":[{"name":"sender","type":"address","internalType":"address"},{"name":"councilSafe","type":"address","internalType":"address"}]},{"type":"error","name":"OnlyInitialized","inputs":[{"name":"poolId","type":"uint256","internalType":"uint256"}]},{"type":"error","name":"OnlyMember","inputs":[{"name":"wallet","type":"address","internalType":"address"},{"name":"community","type":"address","internalType":"address"}]},{"type":"error","name":"OnlyRegistryCommunity","inputs":[{"name":"sender","type":"address","internalType":"address"},{"name":"registry","type":"address","internalType":"address"}]},{"type":"error","name":"OnlySubmitter","inputs":[{"name":"proposalId","type":"uint256","internalType":"uint256"},{"name":"submitter","type":"address","internalType":"address"},{"name":"sender","type":"address","internalType":"address"}]},{"type":"error","name":"PoolAmountNotEnough","inputs":[{"name":"proposalId","type":"uint256","internalType":"uint256"},{"name":"requestedAmount","type":"uint256","internalType":"uint256"},{"name":"poolAmount","type":"uint256","internalType":"uint256"}]},{"type":"error","name":"PoolIsEmpty","inputs":[{"name":"poolAmount","type":"uint256","internalType":"uint256"}]},{"type":"error","name":"ProposalDataIsEmpty","inputs":[{"name":"inputLength","type":"uint256","internalType":"uint256"}]},{"type":"error","name":"ProposalDoesNotExist","inputs":[{"name":"proposalID","type":"uint256","internalType":"uint256"}]},{"type":"error","name":"ProposalInvalidForAllocation","inputs":[{"name":"_proposalId","type":"uint256","internalType":"uint256"},{"name":"_proposalStatus","type":"uint8","internalType":"enum ProposalStatus"}]},{"type":"error","name":"ProposalNotActive","inputs":[{"name":"proposalId","type":"uint256","internalType":"uint256"},{"name":"currentStatus","type":"uint8","internalType":"uint8"}]},{"type":"error","name":"ProposalNotInList","inputs":[{"name":"proposalId","type":"uint256","internalType":"uint256"}]},{"type":"error","name":"SupportUnderflow","inputs":[{"name":"_support","type":"uint256","internalType":"uint256"},{"name":"_delta","type":"int256","internalType":"int256"},{"name":"_result","type":"int256","internalType":"int256"}]},{"type":"error","name":"UserCannotExecuteAction","inputs":[{"name":"user","type":"address","internalType":"address"}]},{"type":"error","name":"UserIsInactive","inputs":[{"name":"user","type":"address","internalType":"address"}]}],"bytecode":{"object":"0x608060405234801561001057600080fd5b50612674806100206000396000f3fe60806040526004361061011b5760003560e01c8063013cf08b1461012057806305caa7f3146101635780630a6f0ee9146101905780630bece79c146101b25780630c0512e9146101d2578063125fd1d9146101f65780632506b8701461020c578063255ffb381461023f5780632dbd6fdd1461026c5780633396045914610298578063351d9f96146102ae57806341bb7605146102c85780635db64b991461035d5780636003e4141461038a578063626c47e8146103aa578063817b1cd2146103bf578063868c57b8146103d5578063a28889e1146103f5578063a47ff7e51461042d578063aba9ffee14610444578063b6c61f311461045a578063d4ec78791461047a578063ef2920fc1461049a578063f5be3f7c146104ad575b600080fd5b34801561012c57600080fd5b5061014061013b366004611d0b565b6104c3565b60405161015a9e9d9c9b9a99989796959493929190611db2565b60405180910390f35b34801561016f57600080fd5b50608254610183906001600160a01b031681565b60405161015a9190611e66565b34801561019c57600080fd5b506101b06101ab366004611fcf565b610616565b005b3480156101be57600080fd5b50607a54610183906001600160a01b031681565b3480156101de57600080fd5b506101e8606f5481565b60405190815260200161015a565b34801561020257600080fd5b506101e860705481565b34801561021857600080fd5b5060735460745460755460765461022f9392919084565b60405161015a94939291906120a0565b34801561024b57600080fd5b506101e861025a366004611d0b565b60806020526000908152604090205481565b34801561027857600080fd5b5060775461028b90610100900460ff1681565b60405161015a91906120cb565b3480156102a457600080fd5b506101e8606d5481565b3480156102ba57600080fd5b5060775461028b9060ff1681565b3480156102d457600080fd5b506103256102e3366004611d0b565b6081602052600090815260409020805460018201546002830154600384015460048501546005909501546001600160a01b039485169593909416939192909186565b604080516001600160a01b039788168152969095166020870152938501929092526060840152608083015260a082015260c00161015a565b34801561036957600080fd5b506101e86103783660046120de565b607e6020526000908152604090205481565b34801561039657600080fd5b50607954610183906001600160a01b031681565b3480156103b657600080fd5b506101e8600381565b3480156103cb57600080fd5b506101e860715481565b3480156103e157600080fd5b506101e86103f03660046120fb565b610c91565b34801561040157600080fd5b50606e54610415906001600160401b031681565b6040516001600160401b03909116815260200161015a565b34801561043957600080fd5b506078546101e89081565b34801561045057600080fd5b506101e860725481565b34801561046657600080fd5b50607c54610183906001600160a01b031681565b34801561048657600080fd5b50607b54610183906001600160a01b031681565b6101b06104a8366004612127565b610cc2565b3480156104b957600080fd5b506101e8611c2081565b607d602090815260009182526040918290208054600182015460028301546003840154600485015460058601546006870154600788015460088901548b51808d01909c52600a8a0180548d52600b8b0180549a9d999c989b979a6001600160a01b039788169a968816999790951697939660ff909316959394919284019161054a90612178565b80601f016020809104026020016040519081016040528092919081815260200182805461057690612178565b80156105c35780601f10610598576101008083540402835291602001916105c3565b820191906000526020600020905b8154815290600101906020018083116105a657829003601f168201915b50505091909252505060408051606081018252600c8501548152600d8501546020820152600e8501546001600160a01b031691810191909152600f8401546010850154601190950154939491939092508e565b61061e6113dc565b61062661141a565b600360775460ff16600381111561063f5761063f611d24565b0361064957600080fd5b60008251116106795781516040516307ab773f60e01b815260040161067091815260200190565b60405180910390fd5b6000610683611443565b9050806000036106a957604051633d16389f60e21b815260048101829052602401610670565b6000838060200190518101906106bf91906121b2565b6082549091506001600160a01b03161561082b576000818152607d602052604090819020600181015460069091015491516370a0823160e01b815290916001600160a01b0316906370a082319061071a903090600401611e66565b602060405180830381865afa158015610737573d6000803e3d6000fd5b505050506040513d601f19601f8201168201806040525081019061075b91906121b2565b101561082b576082546040516370a0823160e01b81526001600160a01b03909116906311bcc81e9082906370a0823190610799903090600401611e66565b602060405180830381865afa1580156107b6573d6000803e3d6000fd5b505050506040513d601f19601f820116820180604052508101906107da91906121b2565b6040518263ffffffff1660e01b81526004016107f891815260200190565b600060405180830381600087803b15801561081257600080fd5b505af1158015610826573d6000803e3d6000fd5b505050505b600160775460ff16600381111561084457610844611d24565b03610c8a576000818152607d6020526040902054811480159061086657508015155b156108875760405163c1d17bef60e01b815260048101829052602401610670565b60016000828152607d602052604090206008015460ff1660068111156108af576108af611d24565b14610901576000818152607d6020526040902060080154819060ff1660068111156108dc576108dc611d24565b60405163052d1a7b60e21b8152600481019290925260ff166024820152604401610670565b6000818152607d602052604090206001015482101561094a576000818152607d602052604090819020600101549051632c31d85b60e11b815261067091839185906004016121cb565b6000818152607d6020526040902060010154610965906116d1565b156109be576000629896808360736000015461098191906121f7565b61098b919061220e565b6000838152607d602052604090819020600101549051633e4bb86360e01b815291925061067091839086906004016121cb565b60006109c9826116fd565b6000838152607d60205260408082206001015460725460755460745460735460765495516314eff2dd60e11b81526004810195909552602485018b905260448501939093526064840191909152608483015260a482015260c48101919091529192509073__$f1b7c69ba751c396eddc93d3bbc5414fd9$__906329dfe5ba9060e401602060405180830381865af4158015610a68573d6000803e3d6000fd5b505050506040513d601f19601f82011682018060405250810190610a8c91906121b2565b9050808211158015610aae57506000838152607d602052604090206001015415155b15610ae4576000838152607d602052604090819020600101549051637ac83e3d60e01b81526106709184918491906004016121cb565b60655460685460405163068bcd8d60e01b81526004810191909152610b8b916001600160a01b03169063068bcd8d90602401600060405180830381865afa158015610b33573d6000803e3d6000fd5b505050506040513d6000823e601f3d908101601f19168201604052610b5b9190810190612230565b6040908101516000868152607d6020529190912060048101546001909101546001600160a01b0390911690611747565b6000838152607d6020908152604080832060088101805460ff19166004908117909155607a54600590920154607054865260819094529382902060020154915163099ea56b60e41b81526001600160a01b03918216946399ea56b094610bf9948a9490911692909101612351565b600060405180830381600087803b158015610c1357600080fd5b505af1158015610c27573d6000803e3d6000fd5b5050506000848152607d602052604090819020600481015460019091015491517fa7932e9c92f31e1ed56b29d00bbe669a97484dc24de28dd9c8c0429df7f358479350610c7f9287926001600160a01b031691612351565b60405180910390a150505b5050505050565b607f6020528160005260406000208181548110610cad57600080fd5b90600052602060002001600091509150505481565b610cca6113dc565b610cd261141a565b600082806020019051810190610ce89190612370565b905060005b8151811015610d4c57610d3a828281518110610d0b57610d0b612425565b602002602001015160000151838381518110610d2957610d29612425565b602002602001015160200151611860565b80610d448161243b565b915050610ced565b50610d5682611928565b60795460405163011de97360e61b81526001600160a01b039091169063477a5cc090610d889085903090600401612454565b602060405180830381865afa158015610da5573d6000803e3d6000fd5b505050506040513d601f19601f82011682018060405250810190610dc9919061246e565b610de85781604051634f6fcf7360e11b81526004016106709190611e66565b600080610df4846119ca565b905060005b8351811015610efd5781158015610e2d57506000848281518110610e1f57610e1f612425565b602002602001015160200151135b15610e4d57846040516307772b5360e51b81526004016106709190611e66565b838181518110610e5f57610e5f612425565b60200260200101516000015160000315610eeb576000848281518110610e8757610e87612425565b6020026020010151600001519050610e9e81611b8f565b610ebe5760405163c1d17bef60e01b815260048101829052602401610670565b848281518110610ed057610ed0612425565b60200260200101516020015184610ee79190612490565b9350505b80610ef58161243b565b915050610df9565b506001600160a01b0384166000908152607e6020526040812054610f219084611bc8565b607954604051637817ee4f60e01b81529192506000916001600160a01b0390911690637817ee4f90610f599089903090600401612454565b602060405180830381865afa158015610f76573d6000803e3d6000fd5b505050506040513d601f19601f82011682018060405250810190610f9a91906121b2565b905080821115610fc757604051636b20c17f60e11b81526004810183905260248101829052604401610670565b506001600160a01b0385166000908152607e60205260408120919091556060925090505b8251811015610c8a57600083828151811061100857611008612425565b60200260200101516000015190508251600003611064576040805160018082528183019092529060208083019080368337019050509250808360008151811061105357611053612425565b60200260200101818152505061117f565b6000805b84518110156110ac578285828151811061108457611084612425565b60200260200101510361109a57600191506110ac565b806110a48161243b565b915050611068565b508061117d576000845160016110c291906124b8565b6001600160401b038111156110d9576110d9611e7a565b604051908082528060200260200182016040528015611102578160200160208202803683370190505b50905060005b855181101561115a5785818151811061112357611123612425565b602002602001015182828151811061113d5761113d612425565b6020908102919091010152806111528161243b565b915050611108565b50828186518151811061116f5761116f612425565b602090810291909101015293505b505b600084838151811061119357611193612425565b6020908102919091018101518101516000848152607d8352604080822060028101546001600160a01b038c16845260098201909552908220549294509291906111dc8286611bc8565b6001600160a01b038b1660009081526009860160205260408120829055909150805b6001600160a01b038c166000908152607f60205260409020548110156112755785546001600160a01b038d166000908152607f6020526040902080548390811061124a5761124a612425565b9060005260206000200154036112635760019150611275565b8061126d8161243b565b9150506111fe565b50806112ab576001600160a01b038b166000908152607f6020908152604082208754815460018101835591845291909220909101555b8183116112fb576112bc83836124cb565b607160008282546112cd91906124b8565b909155506112dd905083836124cb565b8560020160008282546112f091906124b8565b9091555061133f9050565b61130582846124cb565b6071600082825461131691906124cb565b90915550611326905082846124cb565b85600201600082825461133991906124cb565b90915550505b8460070154600003611356574360078601556113c2565b6113608585611bff565b60028501546003860154604080516001600160a01b038f168152602081018b9052908101859052606081019290925260808201527f0227f642ddcf2042ceaeafadb9d540f432072c00cd4862881667168dcc14710f9060a00160405180910390a15b5050505050505080806113d49061243b565b915050610feb565b6065546001600160a01b0316331461141857606554604051636ca3252960e01b81526106709133916001600160a01b0390911690600401612454565b565b6068546000036114185760685460405163243d58fb60e21b815260040161067091815260200190565b60655460685460405163068bcd8d60e01b815260009283926001600160a01b039091169163068bcd8d9161147d9160040190815260200190565b600060405180830381865afa15801561149a573d6000803e3d6000fd5b505050506040513d6000823e601f3d908101601f191682016040526114c29190810190612230565b60400151905073eeeeeeeeeeeeeeeeeeeeeeeeeeeeeeeeeeeeeeed196001600160a01b038216016114f4574791505090565b6040516370a0823160e01b81526000906001600160a01b038316906370a0823190611523903090600401611e66565b602060405180830381865afa158015611540573d6000803e3d6000fd5b505050506040513d601f19601f8201168201806040525081019061156491906121b2565b6082549091506000906001600160a01b0316156115f1576082546040516370a0823160e01b81526001600160a01b03909116906370a08231906115ab903090600401611e66565b602060405180830381865afa1580156115c8573d6000803e3d6000fd5b505050506040513d601f19601f820116820180604052508101906115ec91906121b2565b6115f4565b60005b90506000836001600160a01b031663313ce5676040518163ffffffff1660e01b8152600401602060405180830381865afa158015611636573d6000803e3d6000fd5b505050506040513d601f19601f8201168201806040525081019061165a91906124de565b905060128160ff16101561168f57611673816012612501565b61167e90600a6125fe565b611688908361220e565b91506116be565b60128160ff1611156116be576116a6601282612501565b6116b190600a6125fe565b6116bb90836121f7565b91505b6116c882846124b8565b94505050505090565b60006116e062989680836121f7565b6116e8611443565b6073546116f591906121f7565b111592915050565b6000818152607d602052604081208054831461172f5760405163c1d17bef60e01b815260048101849052602401610670565b61173d818260020154611bff565b6003015492915050565b73eeeeeeeeeeeeeeeeeeeeeeeeeeeeeeeeeeeeeeed196001600160a01b038416016117ea576000826001600160a01b03168260405160006040518083038185875af1925050503d80600081146117b9576040519150601f19603f3d011682016040523d82523d6000602084013e6117be565b606091505b50509050806117e457828260405163296c17bb60e21b815260040161067092919061260d565b50505050565b60405163a9059cbb60e01b81526001600160a01b0384169063a9059cbb90611818908590859060040161260d565b6020604051808303816000875af1158015611837573d6000803e3d6000fd5b505050506040513d601f19601f820116820180604052508101906117e4919061246e565b505050565b6000828152607d6020526040812090821380156118fd57506000600882015460ff16600681111561189357611893611d24565b14806118b757506003600882015460ff1660068111156118b5576118b5611d24565b145b806118da57506004600882015460ff1660068111156118d8576118d8611d24565b145b806118fd57506006600882015460ff1660068111156118fb576118fb611d24565b145b1561185b5760088101546040516394d57ead60e01b815261067091859160ff90911690600401612626565b60795460405163288c314960e21b81526001600160a01b039091169063a230c52490611958908490600401611e66565b602060405180830381865afa158015611975573d6000803e3d6000fd5b505050506040513d601f19601f82011682018060405250810190611999919061246e565b6119c757607954604051636332657560e11b81526106709183916001600160a01b0390911690600401612454565b50565b607c546000906001600160a01b0316611b16576068546040516810531313d5d31254d560ba1b6020820152602981019190915260009060490160408051601f19818403018152908290528051602090910120607954632474521560e21b83529092506001600160a01b0316906391d1485490611a4d90849060009060040161263a565b602060405180830381865afa158015611a6a573d6000803e3d6000fd5b505050506040513d601f19601f82011682018060405250810190611a8e919061246e565b15611a9c5750600192915050565b607954604051632474521560e21b81526001600160a01b03909116906391d1485490611ace908490879060040161263a565b602060405180830381865afa158015611aeb573d6000803e3d6000fd5b505050506040513d601f19601f82011682018060405250810190611b0f919061246e565b9392505050565b607c546040516302154c3d60e51b81526001600160a01b03909116906342a987a090611b489085903090600401612454565b602060405180830381865afa158015611b65573d6000803e3d6000fd5b505050506040513d601f19601f82011682018060405250810190611b89919061246e565b92915050565b6000818152607d602052604081205415801590611b895750506000908152607d60205260409020600501546001600160a01b0316151590565b600080611bd58385612490565b90506000811215611b0f57838382604051631dde38a160e11b8152600401610670939291906121cb565b600080611c0c8484611c3a565b91509150816000148015611c1e575080155b15611c295750505050565b600784015560039092019190915550565b6000804390508084600701541115611c5457611c54612651565b80846007015403611c6a57506000905080611d04565b73__$f1b7c69ba751c396eddc93d3bbc5414fd9$__63010dfe64856007015483611c9491906124cb565b60038701546075546040516001600160e01b031960e086901b168152611cc093929189916004016120a0565b602060405180830381865af4158015611cdd573d6000803e3d6000fd5b505050506040513d601f19601f82011682018060405250810190611d0191906121b2565b91505b9250929050565b600060208284031215611d1d57600080fd5b5035919050565b634e487b7160e01b600052602160045260246000fd5b60078110611d4a57611d4a611d24565b9052565b60005b83811015611d69578181015183820152602001611d51565b50506000910152565b8051825260006020820151604060208501528051806040860152611d9d816060870160208501611d4e565b601f01601f1916939093016060019392505050565b8e8152602081018e9052604081018d9052606081018c90526001600160a01b038b811660808301528a811660a0830152891660c082015260008860e0830152611dff610100830189611d3a565b610200610120830152611e16610200830188611d72565b865161014084015260208701516101608401526040909601516001600160a01b0316610180830152506101a08101939093526101c08301919091526101e0909101529a9950505050505050505050565b6001600160a01b0391909116815260200190565b634e487b7160e01b600052604160045260246000fd5b60405160c081016001600160401b0381118282101715611eb257611eb2611e7a565b60405290565b604080519081016001600160401b0381118282101715611eb257611eb2611e7a565b604051601f8201601f191681016001600160401b0381118282101715611f0257611f02611e7a565b604052919050565b60006001600160401b03821115611f2357611f23611e7a565b5060051b60200190565b6001600160a01b03811681146119c757600080fd5b8035611f4d81611f2d565b919050565b60006001600160401b03821115611f6b57611f6b611e7a565b50601f01601f191660200190565b600082601f830112611f8a57600080fd5b8135611f9d611f9882611f52565b611eda565b818152846020838601011115611fb257600080fd5b816020850160208301376000918101602001919091529392505050565b600080600060608486031215611fe457600080fd5b83356001600160401b0380821115611ffb57600080fd5b818601915086601f83011261200f57600080fd5b8135602061201f611f9883611f0a565b82815260059290921b8401810191818101908a84111561203e57600080fd5b948201945b8386101561206557853561205681611f2d565b82529482019490820190612043565b9750508701359250508082111561207b57600080fd5b5061208886828701611f79565b92505061209760408501611f42565b90509250925092565b93845260208401929092526040830152606082015260800190565b600481106119c7576119c7611d24565b602081016120d8836120bb565b91905290565b6000602082840312156120f057600080fd5b8135611b0f81611f2d565b6000806040838503121561210e57600080fd5b823561211981611f2d565b946020939093013593505050565b6000806040838503121561213a57600080fd5b82356001600160401b0381111561215057600080fd5b61215c85828601611f79565b925050602083013561216d81611f2d565b809150509250929050565b600181811c9082168061218c57607f821691505b6020821081036121ac57634e487b7160e01b600052602260045260246000fd5b50919050565b6000602082840312156121c457600080fd5b5051919050565b9283526020830191909152604082015260600190565b634e487b7160e01b600052601160045260246000fd5b8082028115828204841417611b8957611b896121e1565b60008261222b57634e487b7160e01b600052601260045260246000fd5b500490565b6000602080838503121561224357600080fd5b82516001600160401b038082111561225a57600080fd5b9084019060c0828703121561226e57600080fd5b612276611e90565b825181528383015161228781611f2d565b81850152604083015161229981611f2d565b60408201526060830151828111156122b057600080fd5b8301604081890312156122c257600080fd5b6122ca611eb8565b8151815285820151848111156122df57600080fd5b82019350601f840189136122f257600080fd5b83519150612302611f9883611f52565b828152898784870101111561231657600080fd5b61232583888301898801611d4e565b95810195909552506060810193909352506080818101519083015260a090810151908201529392505050565b9283526001600160a01b03919091166020830152604082015260600190565b6000602080838503121561238357600080fd5b82516001600160401b0381111561239957600080fd5b8301601f810185136123aa57600080fd5b80516123b8611f9882611f0a565b81815260069190911b820183019083810190878311156123d757600080fd5b928401925b8284101561241a57604084890312156123f55760008081fd5b6123fd611eb8565b8451815285850151868201528252604090930192908401906123dc565b979650505050505050565b634e487b7160e01b600052603260045260246000fd5b60006001820161244d5761244d6121e1565b5060010190565b6001600160a01b0392831681529116602082015260400190565b60006020828403121561248057600080fd5b81518015158114611b0f57600080fd5b80820182811260008312801582168215821617156124b0576124b06121e1565b505092915050565b80820180821115611b8957611b896121e1565b81810381811115611b8957611b896121e1565b6000602082840312156124f057600080fd5b815160ff81168114611b0f57600080fd5b60ff8281168282160390811115611b8957611b896121e1565b600181815b8085111561255557816000190482111561253b5761253b6121e1565b8085161561254857918102915b93841c939080029061251f565b509250929050565b60008261256c57506001611b89565b8161257957506000611b89565b816001811461258f5760028114612599576125b5565b6001915050611b89565b60ff8411156125aa576125aa6121e1565b50506001821b611b89565b5060208310610133831016604e8410600b84101617156125d8575081810a611b89565b6125e2838361251a565b80600019048211156125f6576125f66121e1565b029392505050565b6000611b0f60ff84168361255d565b6001600160a01b03929092168252602082015260400190565b82815260408101611b0f6020830184611d3a565b9182526001600160a01b0316602082015260400190565b634e487b7160e01b600052600160045260246000fdfea164736f6c6343000813000a","linkReferences":{"pkg/contracts/src/CVStrategy/ConvictionsUtils.sol":{"ConvictionsUtils":[{"start":2638,"length":20},{"start":7308,"length":20}]}}},"methodIdentifiers":{"DISPUTE_COOLDOWN_SEC()":"f5be3f7c","RULING_OPTIONS()":"626c47e8","allocate(bytes,address)":"ef2920fc","arbitrableConfigs(uint256)":"41bb7605","cloneNonce()":"33960459","collateralVault()":"0bece79c","currentArbitrableConfigVersion()":"125fd1d9","cvParams()":"2506b870","cvVault()":"d4ec7879","disputeCount()":"a28889e1","disputeIdToProposalId(uint256)":"255ffb38","distribute(address[],bytes,address)":"0a6f0ee9","pointConfig()":"a47ff7e5","pointSystem()":"2dbd6fdd","proposalCounter()":"0c0512e9","proposalType()":"351d9f96","proposals(uint256)":"013cf08b","registryCommunity()":"6003e414","superfluidToken()":"05caa7f3","sybilScorer()":"b6c61f31","totalPointsActivated()":"aba9ffee","totalStaked()":"817b1cd2","totalVoterStakePct(address)":"5db64b99","voterStakedProposals(address,uint256)":"868c57b8"},"storageLayout":{"storage":[{"astId":86218,"contract":"pkg/contracts/src/CVStrategy/facets/CVAllocationFacet.sol:CVAllocationFacet","label":"_initialized","offset":0,"slot":"0","type":"t_uint8"},{"astId":86220,"contract":"pkg/contracts/src/CVStrategy/facets/CVAllocationFacet.sol:CVAllocationFacet","label":"_initializing","offset":1,"slot":"0","type":"t_bool"},{"astId":86224,"contract":"pkg/contracts/src/CVStrategy/facets/CVAllocationFacet.sol:CVAllocationFacet","label":"__gap_init","offset":0,"slot":"1","type":"t_array(t_uint256)50_storage"},{"astId":86227,"contract":"pkg/contracts/src/CVStrategy/facets/CVAllocationFacet.sol:CVAllocationFacet","label":"_owner","offset":0,"slot":"51","type":"t_address"},{"astId":86231,"contract":"pkg/contracts/src/CVStrategy/facets/CVAllocationFacet.sol:CVAllocationFacet","label":"__gap_ownable","offset":0,"slot":"52","type":"t_array(t_uint256)49_storage"},{"astId":86235,"contract":"pkg/contracts/src/CVStrategy/facets/CVAllocationFacet.sol:CVAllocationFacet","label":"allo","offset":0,"slot":"101","type":"t_contract(IAllo)2629"},{"astId":86237,"contract":"pkg/contracts/src/CVStrategy/facets/CVAllocationFacet.sol:CVAllocationFacet","label":"strategyId","offset":0,"slot":"102","type":"t_bytes32"},{"astId":86239,"contract":"pkg/contracts/src/CVStrategy/facets/CVAllocationFacet.sol:CVAllocationFacet","label":"poolActive","offset":0,"slot":"103","type":"t_bool"},{"astId":86241,"contract":"pkg/contracts/src/CVStrategy/facets/CVAllocationFacet.sol:CVAllocationFacet","label":"poolId","offset":0,"slot":"104","type":"t_uint256"},{"astId":86243,"contract":"pkg/contracts/src/CVStrategy/facets/CVAllocationFacet.sol:CVAllocationFacet","label":"poolAmount","offset":0,"slot":"105","type":"t_uint256"},{"astId":86246,"contract":"pkg/contracts/src/CVStrategy/facets/CVAllocationFacet.sol:CVAllocationFacet","label":"collateralVaultTemplate","offset":0,"slot":"106","type":"t_address"},{"astId":86249,"contract":"pkg/contracts/src/CVStrategy/facets/CVAllocationFacet.sol:CVAllocationFacet","label":"cvVaultTemplate","offset":0,"slot":"107","type":"t_address"},{"astId":86252,"contract":"pkg/contracts/src/CVStrategy/facets/CVAllocationFacet.sol:CVAllocationFacet","label":"surpressStateMutabilityWarning","offset":0,"slot":"108","type":"t_uint256"},{"astId":86255,"contract":"pkg/contracts/src/CVStrategy/facets/CVAllocationFacet.sol:CVAllocationFacet","label":"cloneNonce","offset":0,"slot":"109","type":"t_uint256"},{"astId":86258,"contract":"pkg/contracts/src/CVStrategy/facets/CVAllocationFacet.sol:CVAllocationFacet","label":"disputeCount","offset":0,"slot":"110","type":"t_uint64"},{"astId":86261,"contract":"pkg/contracts/src/CVStrategy/facets/CVAllocationFacet.sol:CVAllocationFacet","label":"proposalCounter","offset":0,"slot":"111","type":"t_uint256"},{"astId":86264,"contract":"pkg/contracts/src/CVStrategy/facets/CVAllocationFacet.sol:CVAllocationFacet","label":"currentArbitrableConfigVersion","offset":0,"slot":"112","type":"t_uint256"},{"astId":86267,"contract":"pkg/contracts/src/CVStrategy/facets/CVAllocationFacet.sol:CVAllocationFacet","label":"totalStaked","offset":0,"slot":"113","type":"t_uint256"},{"astId":86270,"contract":"pkg/contracts/src/CVStrategy/facets/CVAllocationFacet.sol:CVAllocationFacet","label":"totalPointsActivated","offset":0,"slot":"114","type":"t_uint256"},{"astId":86274,"contract":"pkg/contracts/src/CVStrategy/facets/CVAllocationFacet.sol:CVAllocationFacet","label":"cvParams","offset":0,"slot":"115","type":"t_struct(CVParams)87165_storage"},{"astId":86278,"contract":"pkg/contracts/src/CVStrategy/facets/CVAllocationFacet.sol:CVAllocationFacet","label":"proposalType","offset":0,"slot":"119","type":"t_enum(ProposalType)87066"},{"astId":86282,"contract":"pkg/contracts/src/CVStrategy/facets/CVAllocationFacet.sol:CVAllocationFacet","label":"pointSystem","offset":1,"slot":"119","type":"t_enum(PointSystem)87071"},{"astId":86286,"contract":"pkg/contracts/src/CVStrategy/facets/CVAllocationFacet.sol:CVAllocationFacet","label":"pointConfig","offset":0,"slot":"120","type":"t_struct(PointSystemConfig)87142_storage"},{"astId":86290,"contract":"pkg/contracts/src/CVStrategy/facets/CVAllocationFacet.sol:CVAllocationFacet","label":"registryCommunity","offset":0,"slot":"121","type":"t_contract(IVotingPowerRegistry)101434"},{"astId":86294,"contract":"pkg/contracts/src/CVStrategy/facets/CVAllocationFacet.sol:CVAllocationFacet","label":"collateralVault","offset":0,"slot":"122","type":"t_contract(ICollateralVault)100713"},{"astId":86298,"contract":"pkg/contracts/src/CVStrategy/facets/CVAllocationFacet.sol:CVAllocationFacet","label":"cvVault","offset":0,"slot":"123","type":"t_contract(ICVVault)100680"},{"astId":86302,"contract":"pkg/contracts/src/CVStrategy/facets/CVAllocationFacet.sol:CVAllocationFacet","label":"sybilScorer","offset":0,"slot":"124","type":"t_contract(ISybilScorer)93006"},{"astId":86308,"contract":"pkg/contracts/src/CVStrategy/facets/CVAllocationFacet.sol:CVAllocationFacet","label":"proposals","offset":0,"slot":"125","type":"t_mapping(t_uint256,t_struct(Proposal)87134_storage)"},{"astId":86313,"contract":"pkg/contracts/src/CVStrategy/facets/CVAllocationFacet.sol:CVAllocationFacet","label":"totalVoterStakePct","offset":0,"slot":"126","type":"t_mapping(t_address,t_uint256)"},{"astId":86319,"contract":"pkg/contracts/src/CVStrategy/facets/CVAllocationFacet.sol:CVAllocationFacet","label":"voterStakedProposals","offset":0,"slot":"127","type":"t_mapping(t_address,t_array(t_uint256)dyn_storage)"},{"astId":86324,"contract":"pkg/contracts/src/CVStrategy/facets/CVAllocationFacet.sol:CVAllocationFacet","label":"disputeIdToProposalId","offset":0,"slot":"128","type":"t_mapping(t_uint256,t_uint256)"},{"astId":86330,"contract":"pkg/contracts/src/CVStrategy/facets/CVAllocationFacet.sol:CVAllocationFacet","label":"arbitrableConfigs","offset":0,"slot":"129","type":"t_mapping(t_uint256,t_struct(ArbitrableConfig)87156_storage)"},{"astId":86334,"contract":"pkg/contracts/src/CVStrategy/facets/CVAllocationFacet.sol:CVAllocationFacet","label":"superfluidToken","offset":0,"slot":"130","type":"t_contract(ISuperToken)73628"},{"astId":86339,"contract":"pkg/contracts/src/CVStrategy/facets/CVAllocationFacet.sol:CVAllocationFacet","label":"__gap","offset":0,"slot":"131","type":"t_array(t_uint256)49_storage"}],"types":{"t_address":{"encoding":"inplace","label":"address","numberOfBytes":"20"},"t_array(t_uint256)49_storage":{"encoding":"inplace","label":"uint256[49]","numberOfBytes":"1568","base":"t_uint256"},"t_array(t_uint256)50_storage":{"encoding":"inplace","label":"uint256[50]","numberOfBytes":"1600","base":"t_uint256"},"t_array(t_uint256)dyn_storage":{"encoding":"dynamic_array","label":"uint256[]","numberOfBytes":"32","base":"t_uint256"},"t_bool":{"encoding":"inplace","label":"bool","numberOfBytes":"1"},"t_bytes32":{"encoding":"inplace","label":"bytes32","numberOfBytes":"32"},"t_contract(IAllo)2629":{"encoding":"inplace","label":"contract IAllo","numberOfBytes":"20"},"t_contract(IArbitrator)100616":{"encoding":"inplace","label":"contract IArbitrator","numberOfBytes":"20"},"t_contract(ICVVault)100680":{"encoding":"inplace","label":"contract ICVVault","numberOfBytes":"20"},"t_contract(ICollateralVault)100713":{"encoding":"inplace","label":"contract ICollateralVault","numberOfBytes":"20"},"t_contract(ISuperToken)73628":{"encoding":"inplace","label":"contract ISuperToken","numberOfBytes":"20"},"t_contract(ISybilScorer)93006":{"encoding":"inplace","label":"contract ISybilScorer","numberOfBytes":"20"},"t_contract(IVotingPowerRegistry)101434":{"encoding":"inplace","label":"contract IVotingPowerRegistry","numberOfBytes":"20"},"t_enum(PointSystem)87071":{"encoding":"inplace","label":"enum PointSystem","numberOfBytes":"1"},"t_enum(ProposalStatus)87091":{"encoding":"inplace","label":"enum ProposalStatus","numberOfBytes":"1"},"t_enum(ProposalType)87066":{"encoding":"inplace","label":"enum ProposalType","numberOfBytes":"1"},"t_mapping(t_address,t_array(t_uint256)dyn_storage)":{"encoding":"mapping","key":"t_address","label":"mapping(address => uint256[])","numberOfBytes":"32","value":"t_array(t_uint256)dyn_storage"},"t_mapping(t_address,t_uint256)":{"encoding":"mapping","key":"t_address","label":"mapping(address => uint256)","numberOfBytes":"32","value":"t_uint256"},"t_mapping(t_uint256,t_struct(ArbitrableConfig)87156_storage)":{"encoding":"mapping","key":"t_uint256","label":"mapping(uint256 => struct ArbitrableConfig)","numberOfBytes":"32","value":"t_struct(ArbitrableConfig)87156_storage"},"t_mapping(t_uint256,t_struct(Proposal)87134_storage)":{"encoding":"mapping","key":"t_uint256","label":"mapping(uint256 => struct Proposal)","numberOfBytes":"32","value":"t_struct(Proposal)87134_storage"},"t_mapping(t_uint256,t_uint256)":{"encoding":"mapping","key":"t_uint256","label":"mapping(uint256 => uint256)","numberOfBytes":"32","value":"t_uint256"},"t_string_storage":{"encoding":"bytes","label":"string","numberOfBytes":"32"},"t_struct(ArbitrableConfig)87156_storage":{"encoding":"inplace","label":"struct ArbitrableConfig","numberOfBytes":"192","members":[{"astId":87145,"contract":"pkg/contracts/src/CVStrategy/facets/CVAllocationFacet.sol:CVAllocationFacet","label":"arbitrator","offset":0,"slot":"0","type":"t_contract(IArbitrator)100616"},{"astId":87147,"contract":"pkg/contracts/src/CVStrategy/facets/CVAllocationFacet.sol:CVAllocationFacet","label":"tribunalSafe","offset":0,"slot":"1","type":"t_address"},{"astId":87149,"contract":"pkg/contracts/src/CVStrategy/facets/CVAllocationFacet.sol:CVAllocationFacet","label":"submitterCollateralAmount","offset":0,"slot":"2","type":"t_uint256"},{"astId":87151,"contract":"pkg/contracts/src/CVStrategy/facets/CVAllocationFacet.sol:CVAllocationFacet","label":"challengerCollateralAmount","offset":0,"slot":"3","type":"t_uint256"},{"astId":87153,"contract":"pkg/contracts/src/CVStrategy/facets/CVAllocationFacet.sol:CVAllocationFacet","label":"defaultRuling","offset":0,"slot":"4","type":"t_uint256"},{"astId":87155,"contract":"pkg/contracts/src/CVStrategy/facets/CVAllocationFacet.sol:CVAllocationFacet","label":"defaultRulingTimeout","offset":0,"slot":"5","type":"t_uint256"}]},"t_struct(CVParams)87165_storage":{"encoding":"inplace","label":"struct CVParams","numberOfBytes":"128","members":[{"astId":87158,"contract":"pkg/contracts/src/CVStrategy/facets/CVAllocationFacet.sol:CVAllocationFacet","label":"maxRatio","offset":0,"slot":"0","type":"t_uint256"},{"astId":87160,"contract":"pkg/contracts/src/CVStrategy/facets/CVAllocationFacet.sol:CVAllocationFacet","label":"weight","offset":0,"slot":"1","type":"t_uint256"},{"astId":87162,"contract":"pkg/contracts/src/CVStrategy/facets/CVAllocationFacet.sol:CVAllocationFacet","label":"decay","offset":0,"slot":"2","type":"t_uint256"},{"astId":87164,"contract":"pkg/contracts/src/CVStrategy/facets/CVAllocationFacet.sol:CVAllocationFacet","label":"minThresholdPoints","offset":0,"slot":"3","type":"t_uint256"}]},"t_struct(Metadata)3080_storage":{"encoding":"inplace","label":"struct Metadata","numberOfBytes":"64","members":[{"astId":3076,"contract":"pkg/contracts/src/CVStrategy/facets/CVAllocationFacet.sol:CVAllocationFacet","label":"protocol","offset":0,"slot":"0","type":"t_uint256"},{"astId":3079,"contract":"pkg/contracts/src/CVStrategy/facets/CVAllocationFacet.sol:CVAllocationFacet","label":"pointer","offset":0,"slot":"1","type":"t_string_storage"}]},"t_struct(PointSystemConfig)87142_storage":{"encoding":"inplace","label":"struct PointSystemConfig","numberOfBytes":"32","members":[{"astId":87141,"contract":"pkg/contracts/src/CVStrategy/facets/CVAllocationFacet.sol:CVAllocationFacet","label":"maxAmount","offset":0,"slot":"0","type":"t_uint256"}]},"t_struct(Proposal)87134_storage":{"encoding":"inplace","label":"struct Proposal","numberOfBytes":"576","members":[{"astId":87100,"contract":"pkg/contracts/src/CVStrategy/facets/CVAllocationFacet.sol:CVAllocationFacet","label":"proposalId","offset":0,"slot":"0","type":"t_uint256"},{"astId":87102,"contract":"pkg/contracts/src/CVStrategy/facets/CVAllocationFacet.sol:CVAllocationFacet","label":"requestedAmount","offset":0,"slot":"1","type":"t_uint256"},{"astId":87104,"contract":"pkg/contracts/src/CVStrategy/facets/CVAllocationFacet.sol:CVAllocationFacet","label":"stakedAmount","offset":0,"slot":"2","type":"t_uint256"},{"astId":87106,"contract":"pkg/contracts/src/CVStrategy/facets/CVAllocationFacet.sol:CVAllocationFacet","label":"convictionLast","offset":0,"slot":"3","type":"t_uint256"},{"astId":87108,"contract":"pkg/contracts/src/CVStrategy/facets/CVAllocationFacet.sol:CVAllocationFacet","label":"beneficiary","offset":0,"slot":"4","type":"t_address"},{"astId":87110,"contract":"pkg/contracts/src/CVStrategy/facets/CVAllocationFacet.sol:CVAllocationFacet","label":"submitter","offset":0,"slot":"5","type":"t_address"},{"astId":87112,"contract":"pkg/contracts/src/CVStrategy/facets/CVAllocationFacet.sol:CVAllocationFacet","label":"requestedToken","offset":0,"slot":"6","type":"t_address"},{"astId":87114,"contract":"pkg/contracts/src/CVStrategy/facets/CVAllocationFacet.sol:CVAllocationFacet","label":"blockLast","offset":0,"slot":"7","type":"t_uint256"},{"astId":87117,"contract":"pkg/contracts/src/CVStrategy/facets/CVAllocationFacet.sol:CVAllocationFacet","label":"proposalStatus","offset":0,"slot":"8","type":"t_enum(ProposalStatus)87091"},{"astId":87121,"contract":"pkg/contracts/src/CVStrategy/facets/CVAllocationFacet.sol:CVAllocationFacet","label":"voterStakedPoints","offset":0,"slot":"9","type":"t_mapping(t_address,t_uint256)"},{"astId":87124,"contract":"pkg/contracts/src/CVStrategy/facets/CVAllocationFacet.sol:CVAllocationFacet","label":"metadata","offset":0,"slot":"10","type":"t_struct(Metadata)3080_storage"},{"astId":87127,"contract":"pkg/contracts/src/CVStrategy/facets/CVAllocationFacet.sol:CVAllocationFacet","label":"disputeInfo","offset":0,"slot":"12","type":"t_struct(ProposalDisputeInfo)87098_storage"},{"astId":87129,"contract":"pkg/contracts/src/CVStrategy/facets/CVAllocationFacet.sol:CVAllocationFacet","label":"lastDisputeCompletion","offset":0,"slot":"15","type":"t_uint256"},{"astId":87131,"contract":"pkg/contracts/src/CVStrategy/facets/CVAllocationFacet.sol:CVAllocationFacet","label":"arbitrableConfigVersion","offset":0,"slot":"16","type":"t_uint256"},{"astId":87133,"contract":"pkg/contracts/src/CVStrategy/facets/CVAllocationFacet.sol:CVAllocationFacet","label":"creationTimestamp","offset":0,"slot":"17","type":"t_uint256"}]},"t_struct(ProposalDisputeInfo)87098_storage":{"encoding":"inplace","label":"struct ProposalDisputeInfo","numberOfBytes":"96","members":[{"astId":87093,"contract":"pkg/contracts/src/CVStrategy/facets/CVAllocationFacet.sol:CVAllocationFacet","label":"disputeId","offset":0,"slot":"0","type":"t_uint256"},{"astId":87095,"contract":"pkg/contracts/src/CVStrategy/facets/CVAllocationFacet.sol:CVAllocationFacet","label":"disputeTimestamp","offset":0,"slot":"1","type":"t_uint256"},{"astId":87097,"contract":"pkg/contracts/src/CVStrategy/facets/CVAllocationFacet.sol:CVAllocationFacet","label":"challenger","offset":0,"slot":"2","type":"t_address"}]},"t_uint256":{"encoding":"inplace","label":"uint256","numberOfBytes":"32"},"t_uint64":{"encoding":"inplace","label":"uint64","numberOfBytes":"8"},"t_uint8":{"encoding":"inplace","label":"uint8","numberOfBytes":"1"}}},"id":154}