{"abi":[{"type":"function","name":"DEFAULT_FUNDING_UNITS","inputs":[],"outputs":[{"name":"","type":"uint128","internalType":"uint128"}],"stateMutability":"view"},{"type":"function","name":"DISPUTE_COOLDOWN_SEC","inputs":[],"outputs":[{"name":"","type":"uint256","internalType":"uint256"}],"stateMutability":"view"},{"type":"function","name":"RULING_OPTIONS","inputs":[],"outputs":[{"name":"","type":"uint256","internalType":"uint256"}],"stateMutability":"view"},{"type":"function","name":"TOTAL_GDA_UNITS","inputs":[],"outputs":[{"name":"","type":"uint128","internalType":"uint128"}],"stateMutability":"view"},{"type":"function","name":"allocate","inputs":[{"name":"_data","type":"bytes","internalType":"bytes"},{"name":"_sender","type":"address","internalType":"address"}],"outputs":[],"stateMutability":"payable"},{"type":"function","name":"arbitrableConfigs","inputs":[{"name":"","type":"uint256","internalType":"uint256"}],"outputs":[{"name":"arbitrator","type":"address","internalType":"contract IArbitrator"},{"name":"tribunalSafe","type":"address","internalType":"address"},{"name":"submitterCollateralAmount","type":"uint256","internalType":"uint256"},{"name":"challengerCollateralAmount","type":"uint256","internalType":"uint256"},{"name":"defaultRuling","type":"uint256","internalType":"uint256"},{"name":"defaultRulingTimeout","type":"uint256","internalType":"uint256"}],"stateMutability":"view"},{"type":"function","name":"cloneNonce","inputs":[],"outputs":[{"name":"","type":"uint256","internalType":"uint256"}],"stateMutability":"view"},{"type":"function","name":"collateralVault","inputs":[],"outputs":[{"name":"","type":"address","internalType":"contract ICollateralVault"}],"stateMutability":"view"},{"type":"function","name":"currentArbitrableConfigVersion","inputs":[],"outputs":[{"name":"","type":"uint256","internalType":"uint256"}],"stateMutability":"view"},{"type":"function","name":"cvParams","inputs":[],"outputs":[{"name":"maxRatio","type":"uint256","internalType":"uint256"},{"name":"weight","type":"uint256","internalType":"uint256"},{"name":"decay","type":"uint256","internalType":"uint256"},{"name":"minThresholdPoints","type":"uint256","internalType":"uint256"}],"stateMutability":"view"},{"type":"function","name":"cvVault","inputs":[],"outputs":[{"name":"","type":"address","internalType":"contract ICVVault"}],"stateMutability":"view"},{"type":"function","name":"disputeCount","inputs":[],"outputs":[{"name":"","type":"uint64","internalType":"uint64"}],"stateMutability":"view"},{"type":"function","name":"disputeIdToProposalId","inputs":[{"name":"","type":"uint256","internalType":"uint256"}],"outputs":[{"name":"","type":"uint256","internalType":"uint256"}],"stateMutability":"view"},{"type":"function","name":"distribute","inputs":[{"name":"","type":"address[]","internalType":"address[]"},{"name":"_data","type":"bytes","internalType":"bytes"},{"name":"","type":"address","internalType":"address"}],"outputs":[],"stateMutability":"nonpayable"},{"type":"function","name":"pointConfig","inputs":[],"outputs":[{"name":"maxAmount","type":"uint256","internalType":"uint256"}],"stateMutability":"view"},{"type":"function","name":"pointSystem","inputs":[],"outputs":[{"name":"","type":"uint8","internalType":"enum PointSystem"}],"stateMutability":"view"},{"type":"function","name":"proposalCounter","inputs":[],"outputs":[{"name":"","type":"uint256","internalType":"uint256"}],"stateMutability":"view"},{"type":"function","name":"proposalType","inputs":[],"outputs":[{"name":"","type":"uint8","internalType":"enum ProposalType"}],"stateMutability":"view"},{"type":"function","name":"proposals","inputs":[{"name":"","type":"uint256","internalType":"uint256"}],"outputs":[{"name":"proposalId","type":"uint256","internalType":"uint256"},{"name":"requestedAmount","type":"uint256","internalType":"uint256"},{"name":"stakedAmount","type":"uint256","internalType":"uint256"},{"name":"convictionLast","type":"uint256","internalType":"uint256"},{"name":"beneficiary","type":"address","internalType":"address"},{"name":"submitter","type":"address","internalType":"address"},{"name":"requestedToken","type":"address","internalType":"address"},{"name":"blockLast","type":"uint256","internalType":"uint256"},{"name":"proposalStatus","type":"uint8","internalType":"enum ProposalStatus"},{"name":"metadata","type":"tuple","internalType":"struct Metadata","components":[{"name":"protocol","type":"uint256","internalType":"uint256"},{"name":"pointer","type":"string","internalType":"string"}]},{"name":"disputeInfo","type":"tuple","internalType":"struct ProposalDisputeInfo","components":[{"name":"disputeId","type":"uint256","internalType":"uint256"},{"name":"disputeTimestamp","type":"uint256","internalType":"uint256"},{"name":"challenger","type":"address","internalType":"address"}]},{"name":"lastDisputeCompletion","type":"uint256","internalType":"uint256"},{"name":"arbitrableConfigVersion","type":"uint256","internalType":"uint256"}],"stateMutability":"view"},{"type":"function","name":"registryCommunity","inputs":[],"outputs":[{"name":"","type":"address","internalType":"contract IVotingPowerRegistry"}],"stateMutability":"view"},{"type":"function","name":"streamingEnabled","inputs":[],"outputs":[{"name":"","type":"bool","internalType":"bool"}],"stateMutability":"view"},{"type":"function","name":"superfluidToken","inputs":[],"outputs":[{"name":"","type":"address","internalType":"contract ISuperToken"}],"stateMutability":"view"},{"type":"function","name":"sybilScorer","inputs":[],"outputs":[{"name":"","type":"address","internalType":"contract ISybilScorer"}],"stateMutability":"view"},{"type":"function","name":"totalPointsActivated","inputs":[],"outputs":[{"name":"","type":"uint256","internalType":"uint256"}],"stateMutability":"view"},{"type":"function","name":"totalStaked","inputs":[],"outputs":[{"name":"","type":"uint256","internalType":"uint256"}],"stateMutability":"view"},{"type":"function","name":"totalVoterStakePct","inputs":[{"name":"","type":"address","internalType":"address"}],"outputs":[{"name":"","type":"uint256","internalType":"uint256"}],"stateMutability":"view"},{"type":"function","name":"voterStakedProposals","inputs":[{"name":"","type":"address","internalType":"address"},{"name":"","type":"uint256","internalType":"uint256"}],"outputs":[{"name":"","type":"uint256","internalType":"uint256"}],"stateMutability":"view"},{"type":"function","name":"ydsStrategy","inputs":[],"outputs":[{"name":"","type":"address","internalType":"contract IYDSStrategy"}],"stateMutability":"view"},{"type":"event","name":"Distributed","inputs":[{"name":"proposalId","type":"uint256","indexed":false,"internalType":"uint256"},{"name":"beneficiary","type":"address","indexed":false,"internalType":"address"},{"name":"amount","type":"uint256","indexed":false,"internalType":"uint256"}],"anonymous":false},{"type":"event","name":"SignificantConvictionChange","inputs":[{"name":"proposalId","type":"uint256","indexed":true,"internalType":"uint256"},{"name":"percentChange","type":"uint256","indexed":false,"internalType":"uint256"}],"anonymous":false},{"type":"event","name":"SupportAdded","inputs":[{"name":"from","type":"address","indexed":false,"internalType":"address"},{"name":"proposalId","type":"uint256","indexed":false,"internalType":"uint256"},{"name":"amount","type":"uint256","indexed":false,"internalType":"uint256"},{"name":"totalStakedAmount","type":"uint256","indexed":false,"internalType":"uint256"},{"name":"convictionLast","type":"uint256","indexed":false,"internalType":"uint256"}],"anonymous":false},{"type":"error","name":"AmountOverMaxRatio","inputs":[]},{"type":"error","name":"ConvictionUnderMinimumThreshold","inputs":[]},{"type":"error","name":"GDANotConfigured","inputs":[]},{"type":"error","name":"InvalidUnits","inputs":[]},{"type":"error","name":"NoVaultConfigured","inputs":[]},{"type":"error","name":"NoYDSStrategy","inputs":[]},{"type":"error","name":"NotEnoughPointsToSupport","inputs":[{"name":"pointsSupport","type":"uint256","internalType":"uint256"},{"name":"pointsBalance","type":"uint256","internalType":"uint256"}]},{"type":"error","name":"OnlyCommunityAllowed","inputs":[]},{"type":"error","name":"OnlyPendingRecipient","inputs":[]},{"type":"error","name":"PoolAmountNotEnough","inputs":[{"name":"_proposalId","type":"uint256","internalType":"uint256"},{"name":"_requestedAmount","type":"uint256","internalType":"uint256"},{"name":"_poolAmount","type":"uint256","internalType":"uint256"}]},{"type":"error","name":"PoolIsEmpty","inputs":[]},{"type":"error","name":"ProposalDataIsEmpty","inputs":[]},{"type":"error","name":"ProposalInvalidForAllocation","inputs":[{"name":"_proposalId","type":"uint256","internalType":"uint256"},{"name":"_proposalStatus","type":"uint8","internalType":"enum ProposalStatus"}]},{"type":"error","name":"ProposalNotActive","inputs":[{"name":"_proposalId","type":"uint256","internalType":"uint256"}]},{"type":"error","name":"ProposalNotFoundStream","inputs":[]},{"type":"error","name":"ProposalNotInList","inputs":[{"name":"_proposalId","type":"uint256","internalType":"uint256"}]},{"type":"error","name":"StreamAlreadyActive","inputs":[{"name":"proposalId","type":"uint256","internalType":"uint256"}]},{"type":"error","name":"StreamNotActive","inputs":[{"name":"proposalId","type":"uint256","internalType":"uint256"}]},{"type":"error","name":"StreamingNotEnabled","inputs":[]},{"type":"error","name":"SuperfluidOperationFailed","inputs":[{"name":"operation","type":"string","internalType":"string"}]},{"type":"error","name":"SupportUnderflow","inputs":[{"name":"_support","type":"uint256","internalType":"uint256"},{"name":"_delta","type":"int256","internalType":"int256"},{"name":"_result","type":"int256","internalType":"int256"}]},{"type":"error","name":"UserCannotExecuteAction","inputs":[]},{"type":"error","name":"UserIsInactive","inputs":[]},{"type":"error","name":"UserNotInRegistry","inputs":[]},{"type":"error","name":"WrongProposalType","inputs":[]}],"bytecode":{"object":"0x608060405234801561001057600080fd5b506126cc806100206000396000f3fe6080604052600436106101475760003560e01c8063013cf08b1461014c57806305caa7f31461018e5780630a6f0ee9146101bb5780630bece79c146101dd5780630c0512e9146101fd578063125fd1d9146102215780632506b87014610237578063255ffb381461026a5780632dbd6fdd1461029757806333960459146102c3578063351d9f96146102d957806341bb7605146102f35780635db64b99146103885780636003e414146103b5578063626c47e8146103d55780637a3c8b38146103ea578063817b1cd214610418578063868c57b81461042e5780638a05105a1461044e578063a28889e11461047f578063a47ff7e5146104b7578063aba9ffee146104ce578063b4b9a107146104e4578063b6c61f31146104fa578063d4ec78791461051a578063ef2920fc1461053a578063f5be3f7c1461054d578063f846782114610563575b600080fd5b34801561015857600080fd5b5061016c610167366004611d98565b610583565b6040516101859d9c9b9a99989796959493929190611e2b565b60405180910390f35b34801561019a57600080fd5b506082546101ae906001600160a01b031681565b6040516101859190611ee5565b3480156101c757600080fd5b506101db6101d636600461204e565b6106d1565b005b3480156101e957600080fd5b50607a546101ae906001600160a01b031681565b34801561020957600080fd5b50610213606f5481565b604051908152602001610185565b34801561022d57600080fd5b5061021360705481565b34801561024357600080fd5b5060735460745460755460765461025a9392919084565b604051610185949392919061211f565b34801561027657600080fd5b50610213610285366004611d98565b60806020526000908152604090205481565b3480156102a357600080fd5b506077546102b690610100900460ff1681565b604051610185919061214a565b3480156102cf57600080fd5b50610213606d5481565b3480156102e557600080fd5b506077546102b69060ff1681565b3480156102ff57600080fd5b5061035061030e366004611d98565b6081602052600090815260409020805460018201546002830154600384015460048501546005909501546001600160a01b039485169593909416939192909186565b604080516001600160a01b039788168152969095166020870152938501929092526060840152608083015260a082015260c001610185565b34801561039457600080fd5b506102136103a336600461215d565b607e6020526000908152604090205481565b3480156103c157600080fd5b506079546101ae906001600160a01b031681565b3480156103e157600080fd5b50610213600381565b3480156103f657600080fd5b5061040061271081565b6040516001600160801b039091168152602001610185565b34801561042457600080fd5b5061021360715481565b34801561043a57600080fd5b5061021361044936600461217a565b610c1c565b34801561045a57600080fd5b5060855461046f90600160a01b900460ff1681565b6040519015158152602001610185565b34801561048b57600080fd5b50606e5461049f906001600160401b031681565b6040516001600160401b039091168152602001610185565b3480156104c357600080fd5b506078546102139081565b3480156104da57600080fd5b5061021360725481565b3480156104f057600080fd5b506104006103e881565b34801561050657600080fd5b50607c546101ae906001600160a01b031681565b34801561052657600080fd5b50607b546101ae906001600160a01b031681565b6101db6105483660046121a6565b610c4d565b34801561055957600080fd5b50610213611c2081565b34801561056f57600080fd5b506083546101ae906001600160a01b031681565b607d602090815260009182526040918290208054600182015460028301546003840154600485015460058601546006870154600788015460088901548b51808d01909c52600a8a0180548d52600b8b0180549a9d999c989b979a6001600160a01b039788169a968816999790951697939660ff909316959394919284019161060a906121f7565b80601f0160208091040260200160405190810160405280929190818152602001828054610636906121f7565b80156106835780601f1061065857610100808354040283529160200191610683565b820191906000526020600020905b81548152906001019060200180831161066657829003601f168201915b50505091909252505060408051606081018252600c8501548152600d8501546020820152600e8501546001600160a01b031691810191909152600f840154601090940154929390929091508d565b6106d9611331565b6106e161134a565b600360775460ff1660038111156106fa576106fa611db1565b0361070457600080fd5b600082511161071257600080fd5b600061071c611359565b1161072657600080fd5b60008280602001905181019061073c9190612231565b6082549091506001600160a01b0316156108a8576000818152607d602052604090819020600181015460069091015491516370a0823160e01b815290916001600160a01b0316906370a0823190610797903090600401611ee5565b602060405180830381865afa1580156107b4573d6000803e3d6000fd5b505050506040513d601f19601f820116820180604052508101906107d89190612231565b10156108a8576082546040516370a0823160e01b81526001600160a01b03909116906311bcc81e9082906370a0823190610816903090600401611ee5565b602060405180830381865afa158015610833573d6000803e3d6000fd5b505050506040513d601f19601f820116820180604052508101906108579190612231565b6040518263ffffffff1660e01b815260040161087591815260200190565b600060405180830381600087803b15801561088f57600080fd5b505af11580156108a3573d6000803e3d6000fd5b505050505b600160775460ff1660038111156108c1576108c1611db1565b03610c16576000818152607d602052604090205481148015906108e357508015155b156108ed57600080fd5b60016000828152607d602052604090206008015460ff16600681111561091557610915611db1565b1461091f57600080fd5b610927611359565b6000828152607d6020526040902060010154111561094457600080fd5b6000818152607d602052604090206001015461095f906115e7565b1561096957600080fd5b600061097482611613565b6000838152607d60205260408120600101549192509073__$f1b7c69ba751c396eddc93d3bbc5414fd9$__906329dfe5ba906109ae611359565b60725460755460745460735460765460405160e089901b6001600160e01b03191681526004810197909752602487019590955260448601939093526064850191909152608484015260a483015260c482015260e401602060405180830381865af4158015610a20573d6000803e3d6000fd5b505050506040513d601f19601f82011682018060405250810190610a449190612231565b9050808211158015610a6657506000838152607d602052604090206001015415155b15610a7057600080fd5b60655460685460405163068bcd8d60e01b81526004810191909152610b17916001600160a01b03169063068bcd8d90602401600060405180830381865afa158015610abf573d6000803e3d6000fd5b505050506040513d6000823e601f3d908101601f19168201604052610ae7919081019061224a565b6040908101516000868152607d6020529190912060048101546001909101546001600160a01b0390911690611646565b6000838152607d6020908152604080832060088101805460ff19166004908117909155607a54600590920154607054865260819094529382902060020154915163099ea56b60e41b81526001600160a01b03918216946399ea56b094610b85948a949091169290910161236b565b600060405180830381600087803b158015610b9f57600080fd5b505af1158015610bb3573d6000803e3d6000fd5b5050506000848152607d602052604090819020600481015460019091015491517fa7932e9c92f31e1ed56b29d00bbe669a97484dc24de28dd9c8c0429df7f358479350610c0b9287926001600160a01b03169161236b565b60405180910390a150505b50505050565b607f6020528160005260406000208181548110610c3857600080fd5b90600052602060002001600091509150505481565b610c55611331565b610c5d61134a565b600082806020019051810190610c73919061238a565b905060005b8151811015610cd757610cc5828281518110610c9657610c9661243f565b602002602001015160000151838381518110610cb457610cb461243f565b602002602001015160200151611783565b80610ccf8161246b565b915050610c78565b50610ce18261182a565b60795460405163011de97360e61b81526001600160a01b039091169063477a5cc090610d139085903090600401612484565b602060405180830381865afa158015610d30573d6000803e3d6000fd5b505050506040513d601f19601f82011682018060405250810190610d54919061249e565b610d5d57600080fd5b600080610d69846118a7565b905060005b8351811015610e455781158015610da257506000848281518110610d9457610d9461243f565b602002602001015160200151135b15610dac57600080fd5b838181518110610dbe57610dbe61243f565b60200260200101516000015160000315610e33576000848281518110610de657610de661243f565b6020026020010151600001519050610dfd81611a6c565b610e0657600080fd5b848281518110610e1857610e1861243f565b60200260200101516020015184610e2f91906124c0565b9350505b80610e3d8161246b565b915050610d6e565b506001600160a01b0384166000908152607e6020526040812054610e699084611aa5565b607954604051637817ee4f60e01b81529192506000916001600160a01b0390911690637817ee4f90610ea19089903090600401612484565b602060405180830381865afa158015610ebe573d6000803e3d6000fd5b505050506040513d601f19601f82011682018060405250810190610ee29190612231565b905080821115610ef157600080fd5b506001600160a01b0385166000908152607e60205260408120919091556060925090505b825181101561132a576000838281518110610f3257610f3261243f565b60200260200101516000015190508251600003610f8e5760408051600180825281830190925290602080830190803683370190505092508083600081518110610f7d57610f7d61243f565b6020026020010181815250506110a9565b6000805b8451811015610fd65782858281518110610fae57610fae61243f565b602002602001015103610fc45760019150610fd6565b80610fce8161246b565b915050610f92565b50806110a757600084516001610fec91906124e8565b6001600160401b0381111561100357611003611ef9565b60405190808252806020026020018201604052801561102c578160200160208202803683370190505b50905060005b85518110156110845785818151811061104d5761104d61243f565b60200260200101518282815181106110675761106761243f565b60209081029190910101528061107c8161246b565b915050611032565b5082818651815181106110995761109961243f565b602090810291909101015293505b505b60008483815181106110bd576110bd61243f565b6020908102919091018101518101516000848152607d8352604080822060028101546001600160a01b038c16845260098201909552908220549294509291906111068286611aa5565b6001600160a01b038b1660009081526009860160205260408120829055909150805b6001600160a01b038c166000908152607f602052604090205481101561119f5785546001600160a01b038d166000908152607f602052604090208054839081106111745761117461243f565b90600052602060002001540361118d576001915061119f565b806111978161246b565b915050611128565b50806111d5576001600160a01b038b166000908152607f6020908152604082208754815460018101835591845291909220909101555b818311611225576111e683836124fb565b607160008282546111f791906124e8565b90915550611207905083836124fb565b85600201600082825461121a91906124e8565b909155506112699050565b61122f82846124fb565b6071600082825461124091906124fb565b90915550611250905082846124fb565b85600201600082825461126391906124fb565b90915550505b846007015460000361128057436007860155611310565b600385015461128f8686611ac2565b7f0227f642ddcf2042ceaeafadb9d540f432072c00cd4862881667168dcc14710f8c898589600201548a600301546040516112f79594939291906001600160a01b03959095168552602085019390935260408401919091526060830152608082015260a00190565b60405180910390a161130e88828860030154611b59565b505b5050505050505080806113229061246b565b915050610f15565b5050505050565b6065546001600160a01b0316331461134857600080fd5b565b60685460000361134857600080fd5b60655460685460405163068bcd8d60e01b815260009283926001600160a01b039091169163068bcd8d916113939160040190815260200190565b600060405180830381865afa1580156113b0573d6000803e3d6000fd5b505050506040513d6000823e601f3d908101601f191682016040526113d8919081019061224a565b60400151905073eeeeeeeeeeeeeeeeeeeeeeeeeeeeeeeeeeeeeeed196001600160a01b0382160161140a574791505090565b6040516370a0823160e01b81526000906001600160a01b038316906370a0823190611439903090600401611ee5565b602060405180830381865afa158015611456573d6000803e3d6000fd5b505050506040513d601f19601f8201168201806040525081019061147a9190612231565b6082549091506000906001600160a01b031615611507576082546040516370a0823160e01b81526001600160a01b03909116906370a08231906114c1903090600401611ee5565b602060405180830381865afa1580156114de573d6000803e3d6000fd5b505050506040513d601f19601f820116820180604052508101906115029190612231565b61150a565b60005b90506000836001600160a01b031663313ce5676040518163ffffffff1660e01b8152600401602060405180830381865afa15801561154c573d6000803e3d6000fd5b505050506040513d601f19601f82011682018060405250810190611570919061250e565b905060128160ff1610156115a557611589816012612531565b61159490600a61262e565b61159e908361263d565b91506115d4565b60128160ff1611156115d4576115bc601282612531565b6115c790600a61262e565b6115d1908361265f565b91505b6115de82846124e8565b94505050505090565b60006115f6629896808361265f565b6115fe611359565b60735461160b919061265f565b111592915050565b6000818152607d602052604081208054831461162e57600080fd5b61163c818260020154611ac2565b6003015492915050565b73eeeeeeeeeeeeeeeeeeeeeeeeeeeeeeeeeeeeeeed196001600160a01b0384160161170b576000826001600160a01b03168260405160006040518083038185875af1925050503d80600081146116b8576040519150601f19603f3d011682016040523d82523d6000602084013e6116bd565b606091505b5050905080610c165760405162461bcd60e51b815260206004820152601660248201527513985d1a5d99481d1c985b9cd9995c8819985a5b195960521b604482015260640160405180910390fd5b60405163a9059cbb60e01b81526001600160a01b0383811660048301526024820183905284169063a9059cbb906044016020604051808303816000875af115801561175a573d6000803e3d6000fd5b505050506040513d601f19601f82011682018060405250810190610c16919061249e565b505050565b6000828152607d60205260408120908213801561182057506000600882015460ff1660068111156117b6576117b6611db1565b14806117da57506003600882015460ff1660068111156117d8576117d8611db1565b145b806117fd57506004600882015460ff1660068111156117fb576117fb611db1565b145b8061182057506006600882015460ff16600681111561181e5761181e611db1565b145b1561177e57600080fd5b60795460405163288c314960e21b81526001600160a01b039091169063a230c5249061185a908490600401611ee5565b602060405180830381865afa158015611877573d6000803e3d6000fd5b505050506040513d601f19601f8201168201806040525081019061189b919061249e565b6118a457600080fd5b50565b607c546000906001600160a01b03166119f3576068546040516810531313d5d31254d560ba1b6020820152602981019190915260009060490160408051601f19818403018152908290528051602090910120607954632474521560e21b83529092506001600160a01b0316906391d148549061192a908490600090600401612676565b602060405180830381865afa158015611947573d6000803e3d6000fd5b505050506040513d601f19601f8201168201806040525081019061196b919061249e565b156119795750600192915050565b607954604051632474521560e21b81526001600160a01b03909116906391d14854906119ab9084908790600401612676565b602060405180830381865afa1580156119c8573d6000803e3d6000fd5b505050506040513d601f19601f820116820180604052508101906119ec919061249e565b9392505050565b607c546040516302154c3d60e51b81526001600160a01b03909116906342a987a090611a259085903090600401612484565b602060405180830381865afa158015611a42573d6000803e3d6000fd5b505050506040513d601f19601f82011682018060405250810190611a66919061249e565b92915050565b6000818152607d602052604081205415801590611a665750506000908152607d60205260409020600501546001600160a01b0316151590565b600080611ab283856124c0565b905060008112156119ec57600080fd5b600080611acf8484611c02565b91509150816000148015611ae1575080155b15611aec5750505050565b6007840181905560038401829055608554600160a01b900460ff168015611b495750600160775460ff166003811115611b2757611b27611db1565b1480611b495750600260775460ff166003811115611b4757611b47611db1565b145b15610c16578354610c1690611cd3565b81600003611b6657505050565b600082821115611b975782611b7b81846124fb565b611b8690606461265f565b611b90919061263d565b9050611bba565b82611ba283826124fb565b611bad90606461265f565b611bb7919061263d565b90505b60058110610c1657837fe94f05cf46c6a00a3b2f60d2ce0482d30064b3f95f7635ab3a5548d755dab5dd82604051611bf491815260200190565b60405180910390a250505050565b6000804390508084600701541115611c1c57611c1c61268d565b80846007015403611c3257506000905080611ccc565b73__$f1b7c69ba751c396eddc93d3bbc5414fd9$__63010dfe64856007015483611c5c91906124fb565b60038701546075546040516001600160e01b031960e086901b168152611c88939291899160040161211f565b602060405180830381865af4158015611ca5573d6000803e3d6000fd5b505050506040513d601f19601f82011682018060405250810190611cc99190612231565b91505b9250929050565b60008181526084602052604090206002810154611cf190600a6124e8565b431015611cfc575050565b4360028201556040516024810183905260006044820181905290309060640160408051601f198184030181529181526020820180516001600160e01b031663020dc1f960e01b17905251611d5091906126a3565b600060405180830381855af49150503d8060008114611d8b576040519150601f19603f3d011682016040523d82523d6000602084013e611d90565b606091505b505050505050565b600060208284031215611daa57600080fd5b5035919050565b634e487b7160e01b600052602160045260246000fd5b60005b83811015611de2578181015183820152602001611dca565b50506000910152565b8051825260006020820151604060208501528051806040860152611e16816060870160208501611dc7565b601f01601f1916939093016060019392505050565b8d8152602081018d9052604081018c9052606081018b90526001600160a01b038a8116608083015289811660a0830152881660c082015260e0810187905260006101e060078810611e7e57611e7e611db1565b8761010084015280610120840152611e9881840188611deb565b8651610140850152602087015161016085015260408701516001600160a01b03166101808501529150611ec89050565b6101a08201939093526101c001529b9a5050505050505050505050565b6001600160a01b0391909116815260200190565b634e487b7160e01b600052604160045260246000fd5b60405160c081016001600160401b0381118282101715611f3157611f31611ef9565b60405290565b604080519081016001600160401b0381118282101715611f3157611f31611ef9565b604051601f8201601f191681016001600160401b0381118282101715611f8157611f81611ef9565b604052919050565b60006001600160401b03821115611fa257611fa2611ef9565b5060051b60200190565b6001600160a01b03811681146118a457600080fd5b8035611fcc81611fac565b919050565b60006001600160401b03821115611fea57611fea611ef9565b50601f01601f191660200190565b600082601f83011261200957600080fd5b813561201c61201782611fd1565b611f59565b81815284602083860101111561203157600080fd5b816020850160208301376000918101602001919091529392505050565b60008060006060848603121561206357600080fd5b83356001600160401b038082111561207a57600080fd5b818601915086601f83011261208e57600080fd5b8135602061209e61201783611f89565b82815260059290921b8401810191818101908a8411156120bd57600080fd5b948201945b838610156120e45785356120d581611fac565b825294820194908201906120c2565b975050870135925050808211156120fa57600080fd5b5061210786828701611ff8565b92505061211660408501611fc1565b90509250925092565b93845260208401929092526040830152606082015260800190565b600481106118a4576118a4611db1565b602081016121578361213a565b91905290565b60006020828403121561216f57600080fd5b81356119ec81611fac565b6000806040838503121561218d57600080fd5b823561219881611fac565b946020939093013593505050565b600080604083850312156121b957600080fd5b82356001600160401b038111156121cf57600080fd5b6121db85828601611ff8565b92505060208301356121ec81611fac565b809150509250929050565b600181811c9082168061220b57607f821691505b60208210810361222b57634e487b7160e01b600052602260045260246000fd5b50919050565b60006020828403121561224357600080fd5b5051919050565b6000602080838503121561225d57600080fd5b82516001600160401b038082111561227457600080fd5b9084019060c0828703121561228857600080fd5b612290611f0f565b82518152838301516122a181611fac565b8185015260408301516122b381611fac565b60408201526060830151828111156122ca57600080fd5b8301604081890312156122dc57600080fd5b6122e4611f37565b8151815285820151848111156122f957600080fd5b82019350601f8401891361230c57600080fd5b8351915061231c61201783611fd1565b828152898784870101111561233057600080fd5b61233f83888301898801611dc7565b95810195909552506060810193909352506080818101519083015260a090810151908201529392505050565b9283526001600160a01b03919091166020830152604082015260600190565b6000602080838503121561239d57600080fd5b82516001600160401b038111156123b357600080fd5b8301601f810185136123c457600080fd5b80516123d261201782611f89565b81815260069190911b820183019083810190878311156123f157600080fd5b928401925b82841015612434576040848903121561240f5760008081fd5b612417611f37565b8451815285850151868201528252604090930192908401906123f6565b979650505050505050565b634e487b7160e01b600052603260045260246000fd5b634e487b7160e01b600052601160045260246000fd5b60006001820161247d5761247d612455565b5060010190565b6001600160a01b0392831681529116602082015260400190565b6000602082840312156124b057600080fd5b815180151581146119ec57600080fd5b80820182811260008312801582168215821617156124e0576124e0612455565b505092915050565b80820180821115611a6657611a66612455565b81810381811115611a6657611a66612455565b60006020828403121561252057600080fd5b815160ff811681146119ec57600080fd5b60ff8281168282160390811115611a6657611a66612455565b600181815b8085111561258557816000190482111561256b5761256b612455565b8085161561257857918102915b93841c939080029061254f565b509250929050565b60008261259c57506001611a66565b816125a957506000611a66565b81600181146125bf57600281146125c9576125e5565b6001915050611a66565b60ff8411156125da576125da612455565b50506001821b611a66565b5060208310610133831016604e8410600b8410161715612608575081810a611a66565b612612838361254a565b806000190482111561262657612626612455565b029392505050565b60006119ec60ff84168361258d565b60008261265a57634e487b7160e01b600052601260045260246000fd5b500490565b8082028115828204841417611a6657611a66612455565b9182526001600160a01b0316602082015260400190565b634e487b7160e01b600052600160045260246000fd5b600082516126b5818460208701611dc7565b919091019291505056fea164736f6c6343000813000a","linkReferences":{"pkg/contracts/src/CVStrategy/ConvictionsUtils.sol":{"ConvictionsUtils":[{"start":2476,"length":20},{"start":7252,"length":20}]}}},"methodIdentifiers":{"DEFAULT_FUNDING_UNITS()":"b4b9a107","DISPUTE_COOLDOWN_SEC()":"f5be3f7c","RULING_OPTIONS()":"626c47e8","TOTAL_GDA_UNITS()":"7a3c8b38","allocate(bytes,address)":"ef2920fc","arbitrableConfigs(uint256)":"41bb7605","cloneNonce()":"33960459","collateralVault()":"0bece79c","currentArbitrableConfigVersion()":"125fd1d9","cvParams()":"2506b870","cvVault()":"d4ec7879","disputeCount()":"a28889e1","disputeIdToProposalId(uint256)":"255ffb38","distribute(address[],bytes,address)":"0a6f0ee9","pointConfig()":"a47ff7e5","pointSystem()":"2dbd6fdd","proposalCounter()":"0c0512e9","proposalType()":"351d9f96","proposals(uint256)":"013cf08b","registryCommunity()":"6003e414","streamingEnabled()":"8a05105a","superfluidToken()":"05caa7f3","sybilScorer()":"b6c61f31","totalPointsActivated()":"aba9ffee","totalStaked()":"817b1cd2","totalVoterStakePct(address)":"5db64b99","voterStakedProposals(address,uint256)":"868c57b8","ydsStrategy()":"f8467821"},"storageLayout":{"storage":[{"astId":86056,"contract":"pkg/contracts/src/CVStrategy/facets/CVAllocationFacet.sol:CVAllocationFacet","label":"_initialized","offset":0,"slot":"0","type":"t_uint8"},{"astId":86058,"contract":"pkg/contracts/src/CVStrategy/facets/CVAllocationFacet.sol:CVAllocationFacet","label":"_initializing","offset":1,"slot":"0","type":"t_bool"},{"astId":86062,"contract":"pkg/contracts/src/CVStrategy/facets/CVAllocationFacet.sol:CVAllocationFacet","label":"__gap_init","offset":0,"slot":"1","type":"t_array(t_uint256)50_storage"},{"astId":86065,"contract":"pkg/contracts/src/CVStrategy/facets/CVAllocationFacet.sol:CVAllocationFacet","label":"_owner","offset":0,"slot":"51","type":"t_address"},{"astId":86069,"contract":"pkg/contracts/src/CVStrategy/facets/CVAllocationFacet.sol:CVAllocationFacet","label":"__gap_ownable","offset":0,"slot":"52","type":"t_array(t_uint256)49_storage"},{"astId":86073,"contract":"pkg/contracts/src/CVStrategy/facets/CVAllocationFacet.sol:CVAllocationFacet","label":"allo","offset":0,"slot":"101","type":"t_contract(IAllo)2629"},{"astId":86075,"contract":"pkg/contracts/src/CVStrategy/facets/CVAllocationFacet.sol:CVAllocationFacet","label":"strategyId","offset":0,"slot":"102","type":"t_bytes32"},{"astId":86077,"contract":"pkg/contracts/src/CVStrategy/facets/CVAllocationFacet.sol:CVAllocationFacet","label":"poolActive","offset":0,"slot":"103","type":"t_bool"},{"astId":86079,"contract":"pkg/contracts/src/CVStrategy/facets/CVAllocationFacet.sol:CVAllocationFacet","label":"poolId","offset":0,"slot":"104","type":"t_uint256"},{"astId":86081,"contract":"pkg/contracts/src/CVStrategy/facets/CVAllocationFacet.sol:CVAllocationFacet","label":"poolAmount","offset":0,"slot":"105","type":"t_uint256"},{"astId":86084,"contract":"pkg/contracts/src/CVStrategy/facets/CVAllocationFacet.sol:CVAllocationFacet","label":"collateralVaultTemplate","offset":0,"slot":"106","type":"t_address"},{"astId":86087,"contract":"pkg/contracts/src/CVStrategy/facets/CVAllocationFacet.sol:CVAllocationFacet","label":"cvVaultTemplate","offset":0,"slot":"107","type":"t_address"},{"astId":86090,"contract":"pkg/contracts/src/CVStrategy/facets/CVAllocationFacet.sol:CVAllocationFacet","label":"surpressStateMutabilityWarning","offset":0,"slot":"108","type":"t_uint256"},{"astId":86093,"contract":"pkg/contracts/src/CVStrategy/facets/CVAllocationFacet.sol:CVAllocationFacet","label":"cloneNonce","offset":0,"slot":"109","type":"t_uint256"},{"astId":86096,"contract":"pkg/contracts/src/CVStrategy/facets/CVAllocationFacet.sol:CVAllocationFacet","label":"disputeCount","offset":0,"slot":"110","type":"t_uint64"},{"astId":86099,"contract":"pkg/contracts/src/CVStrategy/facets/CVAllocationFacet.sol:CVAllocationFacet","label":"proposalCounter","offset":0,"slot":"111","type":"t_uint256"},{"astId":86102,"contract":"pkg/contracts/src/CVStrategy/facets/CVAllocationFacet.sol:CVAllocationFacet","label":"currentArbitrableConfigVersion","offset":0,"slot":"112","type":"t_uint256"},{"astId":86105,"contract":"pkg/contracts/src/CVStrategy/facets/CVAllocationFacet.sol:CVAllocationFacet","label":"totalStaked","offset":0,"slot":"113","type":"t_uint256"},{"astId":86108,"contract":"pkg/contracts/src/CVStrategy/facets/CVAllocationFacet.sol:CVAllocationFacet","label":"totalPointsActivated","offset":0,"slot":"114","type":"t_uint256"},{"astId":86112,"contract":"pkg/contracts/src/CVStrategy/facets/CVAllocationFacet.sol:CVAllocationFacet","label":"cvParams","offset":0,"slot":"115","type":"t_struct(CVParams)87149_storage"},{"astId":86116,"contract":"pkg/contracts/src/CVStrategy/facets/CVAllocationFacet.sol:CVAllocationFacet","label":"proposalType","offset":0,"slot":"119","type":"t_enum(ProposalType)87052"},{"astId":86120,"contract":"pkg/contracts/src/CVStrategy/facets/CVAllocationFacet.sol:CVAllocationFacet","label":"pointSystem","offset":1,"slot":"119","type":"t_enum(PointSystem)87057"},{"astId":86124,"contract":"pkg/contracts/src/CVStrategy/facets/CVAllocationFacet.sol:CVAllocationFacet","label":"pointConfig","offset":0,"slot":"120","type":"t_struct(PointSystemConfig)87126_storage"},{"astId":86128,"contract":"pkg/contracts/src/CVStrategy/facets/CVAllocationFacet.sol:CVAllocationFacet","label":"registryCommunity","offset":0,"slot":"121","type":"t_contract(IVotingPowerRegistry)103335"},{"astId":86132,"contract":"pkg/contracts/src/CVStrategy/facets/CVAllocationFacet.sol:CVAllocationFacet","label":"collateralVault","offset":0,"slot":"122","type":"t_contract(ICollateralVault)102614"},{"astId":86136,"contract":"pkg/contracts/src/CVStrategy/facets/CVAllocationFacet.sol:CVAllocationFacet","label":"cvVault","offset":0,"slot":"123","type":"t_contract(ICVVault)102581"},{"astId":86140,"contract":"pkg/contracts/src/CVStrategy/facets/CVAllocationFacet.sol:CVAllocationFacet","label":"sybilScorer","offset":0,"slot":"124","type":"t_contract(ISybilScorer)94780"},{"astId":86146,"contract":"pkg/contracts/src/CVStrategy/facets/CVAllocationFacet.sol:CVAllocationFacet","label":"proposals","offset":0,"slot":"125","type":"t_mapping(t_uint256,t_struct(Proposal)87118_storage)"},{"astId":86151,"contract":"pkg/contracts/src/CVStrategy/facets/CVAllocationFacet.sol:CVAllocationFacet","label":"totalVoterStakePct","offset":0,"slot":"126","type":"t_mapping(t_address,t_uint256)"},{"astId":86157,"contract":"pkg/contracts/src/CVStrategy/facets/CVAllocationFacet.sol:CVAllocationFacet","label":"voterStakedProposals","offset":0,"slot":"127","type":"t_mapping(t_address,t_array(t_uint256)dyn_storage)"},{"astId":86162,"contract":"pkg/contracts/src/CVStrategy/facets/CVAllocationFacet.sol:CVAllocationFacet","label":"disputeIdToProposalId","offset":0,"slot":"128","type":"t_mapping(t_uint256,t_uint256)"},{"astId":86168,"contract":"pkg/contracts/src/CVStrategy/facets/CVAllocationFacet.sol:CVAllocationFacet","label":"arbitrableConfigs","offset":0,"slot":"129","type":"t_mapping(t_uint256,t_struct(ArbitrableConfig)87140_storage)"},{"astId":86172,"contract":"pkg/contracts/src/CVStrategy/facets/CVAllocationFacet.sol:CVAllocationFacet","label":"superfluidToken","offset":0,"slot":"130","type":"t_contract(ISuperToken)73796"},{"astId":86176,"contract":"pkg/contracts/src/CVStrategy/facets/CVAllocationFacet.sol:CVAllocationFacet","label":"ydsStrategy","offset":0,"slot":"131","type":"t_contract(IYDSStrategy)103471"},{"astId":86193,"contract":"pkg/contracts/src/CVStrategy/facets/CVAllocationFacet.sol:CVAllocationFacet","label":"proposalStreams","offset":0,"slot":"132","type":"t_mapping(t_uint256,t_struct(StreamState)86187_storage)"},{"astId":86196,"contract":"pkg/contracts/src/CVStrategy/facets/CVAllocationFacet.sol:CVAllocationFacet","label":"superfluidGDA","offset":0,"slot":"133","type":"t_address"},{"astId":86199,"contract":"pkg/contracts/src/CVStrategy/facets/CVAllocationFacet.sol:CVAllocationFacet","label":"streamingEnabled","offset":20,"slot":"133","type":"t_bool"},{"astId":86204,"contract":"pkg/contracts/src/CVStrategy/facets/CVAllocationFacet.sol:CVAllocationFacet","label":"__gap","offset":0,"slot":"134","type":"t_array(t_uint256)45_storage"}],"types":{"t_address":{"encoding":"inplace","label":"address","numberOfBytes":"20"},"t_array(t_uint256)45_storage":{"encoding":"inplace","label":"uint256[45]","numberOfBytes":"1440","base":"t_uint256"},"t_array(t_uint256)49_storage":{"encoding":"inplace","label":"uint256[49]","numberOfBytes":"1568","base":"t_uint256"},"t_array(t_uint256)50_storage":{"encoding":"inplace","label":"uint256[50]","numberOfBytes":"1600","base":"t_uint256"},"t_array(t_uint256)dyn_storage":{"encoding":"dynamic_array","label":"uint256[]","numberOfBytes":"32","base":"t_uint256"},"t_bool":{"encoding":"inplace","label":"bool","numberOfBytes":"1"},"t_bytes32":{"encoding":"inplace","label":"bytes32","numberOfBytes":"32"},"t_contract(IAllo)2629":{"encoding":"inplace","label":"contract IAllo","numberOfBytes":"20"},"t_contract(IArbitrator)102497":{"encoding":"inplace","label":"contract IArbitrator","numberOfBytes":"20"},"t_contract(ICVVault)102581":{"encoding":"inplace","label":"contract ICVVault","numberOfBytes":"20"},"t_contract(ICollateralVault)102614":{"encoding":"inplace","label":"contract ICollateralVault","numberOfBytes":"20"},"t_contract(ISuperToken)73796":{"encoding":"inplace","label":"contract ISuperToken","numberOfBytes":"20"},"t_contract(ISybilScorer)94780":{"encoding":"inplace","label":"contract ISybilScorer","numberOfBytes":"20"},"t_contract(IVotingPowerRegistry)103335":{"encoding":"inplace","label":"contract IVotingPowerRegistry","numberOfBytes":"20"},"t_contract(IYDSStrategy)103471":{"encoding":"inplace","label":"contract IYDSStrategy","numberOfBytes":"20"},"t_enum(PointSystem)87057":{"encoding":"inplace","label":"enum PointSystem","numberOfBytes":"1"},"t_enum(ProposalStatus)87077":{"encoding":"inplace","label":"enum ProposalStatus","numberOfBytes":"1"},"t_enum(ProposalType)87052":{"encoding":"inplace","label":"enum ProposalType","numberOfBytes":"1"},"t_mapping(t_address,t_array(t_uint256)dyn_storage)":{"encoding":"mapping","key":"t_address","label":"mapping(address => uint256[])","numberOfBytes":"32","value":"t_array(t_uint256)dyn_storage"},"t_mapping(t_address,t_uint256)":{"encoding":"mapping","key":"t_address","label":"mapping(address => uint256)","numberOfBytes":"32","value":"t_uint256"},"t_mapping(t_uint256,t_struct(ArbitrableConfig)87140_storage)":{"encoding":"mapping","key":"t_uint256","label":"mapping(uint256 => struct ArbitrableConfig)","numberOfBytes":"32","value":"t_struct(ArbitrableConfig)87140_storage"},"t_mapping(t_uint256,t_struct(Proposal)87118_storage)":{"encoding":"mapping","key":"t_uint256","label":"mapping(uint256 => struct Proposal)","numberOfBytes":"32","value":"t_struct(Proposal)87118_storage"},"t_mapping(t_uint256,t_struct(StreamState)86187_storage)":{"encoding":"mapping","key":"t_uint256","label":"mapping(uint256 => struct CVStrategyBaseFacet.StreamState)","numberOfBytes":"32","value":"t_struct(StreamState)86187_storage"},"t_mapping(t_uint256,t_uint256)":{"encoding":"mapping","key":"t_uint256","label":"mapping(uint256 => uint256)","numberOfBytes":"32","value":"t_uint256"},"t_string_storage":{"encoding":"bytes","label":"string","numberOfBytes":"32"},"t_struct(ArbitrableConfig)87140_storage":{"encoding":"inplace","label":"struct ArbitrableConfig","numberOfBytes":"192","members":[{"astId":87129,"contract":"pkg/contracts/src/CVStrategy/facets/CVAllocationFacet.sol:CVAllocationFacet","label":"arbitrator","offset":0,"slot":"0","type":"t_contract(IArbitrator)102497"},{"astId":87131,"contract":"pkg/contracts/src/CVStrategy/facets/CVAllocationFacet.sol:CVAllocationFacet","label":"tribunalSafe","offset":0,"slot":"1","type":"t_address"},{"astId":87133,"contract":"pkg/contracts/src/CVStrategy/facets/CVAllocationFacet.sol:CVAllocationFacet","label":"submitterCollateralAmount","offset":0,"slot":"2","type":"t_uint256"},{"astId":87135,"contract":"pkg/contracts/src/CVStrategy/facets/CVAllocationFacet.sol:CVAllocationFacet","label":"challengerCollateralAmount","offset":0,"slot":"3","type":"t_uint256"},{"astId":87137,"contract":"pkg/contracts/src/CVStrategy/facets/CVAllocationFacet.sol:CVAllocationFacet","label":"defaultRuling","offset":0,"slot":"4","type":"t_uint256"},{"astId":87139,"contract":"pkg/contracts/src/CVStrategy/facets/CVAllocationFacet.sol:CVAllocationFacet","label":"defaultRulingTimeout","offset":0,"slot":"5","type":"t_uint256"}]},"t_struct(CVParams)87149_storage":{"encoding":"inplace","label":"struct CVParams","numberOfBytes":"128","members":[{"astId":87142,"contract":"pkg/contracts/src/CVStrategy/facets/CVAllocationFacet.sol:CVAllocationFacet","label":"maxRatio","offset":0,"slot":"0","type":"t_uint256"},{"astId":87144,"contract":"pkg/contracts/src/CVStrategy/facets/CVAllocationFacet.sol:CVAllocationFacet","label":"weight","offset":0,"slot":"1","type":"t_uint256"},{"astId":87146,"contract":"pkg/contracts/src/CVStrategy/facets/CVAllocationFacet.sol:CVAllocationFacet","label":"decay","offset":0,"slot":"2","type":"t_uint256"},{"astId":87148,"contract":"pkg/contracts/src/CVStrategy/facets/CVAllocationFacet.sol:CVAllocationFacet","label":"minThresholdPoints","offset":0,"slot":"3","type":"t_uint256"}]},"t_struct(Metadata)3080_storage":{"encoding":"inplace","label":"struct Metadata","numberOfBytes":"64","members":[{"astId":3076,"contract":"pkg/contracts/src/CVStrategy/facets/CVAllocationFacet.sol:CVAllocationFacet","label":"protocol","offset":0,"slot":"0","type":"t_uint256"},{"astId":3079,"contract":"pkg/contracts/src/CVStrategy/facets/CVAllocationFacet.sol:CVAllocationFacet","label":"pointer","offset":0,"slot":"1","type":"t_string_storage"}]},"t_struct(PointSystemConfig)87126_storage":{"encoding":"inplace","label":"struct PointSystemConfig","numberOfBytes":"32","members":[{"astId":87125,"contract":"pkg/contracts/src/CVStrategy/facets/CVAllocationFacet.sol:CVAllocationFacet","label":"maxAmount","offset":0,"slot":"0","type":"t_uint256"}]},"t_struct(Proposal)87118_storage":{"encoding":"inplace","label":"struct Proposal","numberOfBytes":"544","members":[{"astId":87086,"contract":"pkg/contracts/src/CVStrategy/facets/CVAllocationFacet.sol:CVAllocationFacet","label":"proposalId","offset":0,"slot":"0","type":"t_uint256"},{"astId":87088,"contract":"pkg/contracts/src/CVStrategy/facets/CVAllocationFacet.sol:CVAllocationFacet","label":"requestedAmount","offset":0,"slot":"1","type":"t_uint256"},{"astId":87090,"contract":"pkg/contracts/src/CVStrategy/facets/CVAllocationFacet.sol:CVAllocationFacet","label":"stakedAmount","offset":0,"slot":"2","type":"t_uint256"},{"astId":87092,"contract":"pkg/contracts/src/CVStrategy/facets/CVAllocationFacet.sol:CVAllocationFacet","label":"convictionLast","offset":0,"slot":"3","type":"t_uint256"},{"astId":87094,"contract":"pkg/contracts/src/CVStrategy/facets/CVAllocationFacet.sol:CVAllocationFacet","label":"beneficiary","offset":0,"slot":"4","type":"t_address"},{"astId":87096,"contract":"pkg/contracts/src/CVStrategy/facets/CVAllocationFacet.sol:CVAllocationFacet","label":"submitter","offset":0,"slot":"5","type":"t_address"},{"astId":87098,"contract":"pkg/contracts/src/CVStrategy/facets/CVAllocationFacet.sol:CVAllocationFacet","label":"requestedToken","offset":0,"slot":"6","type":"t_address"},{"astId":87100,"contract":"pkg/contracts/src/CVStrategy/facets/CVAllocationFacet.sol:CVAllocationFacet","label":"blockLast","offset":0,"slot":"7","type":"t_uint256"},{"astId":87103,"contract":"pkg/contracts/src/CVStrategy/facets/CVAllocationFacet.sol:CVAllocationFacet","label":"proposalStatus","offset":0,"slot":"8","type":"t_enum(ProposalStatus)87077"},{"astId":87107,"contract":"pkg/contracts/src/CVStrategy/facets/CVAllocationFacet.sol:CVAllocationFacet","label":"voterStakedPoints","offset":0,"slot":"9","type":"t_mapping(t_address,t_uint256)"},{"astId":87110,"contract":"pkg/contracts/src/CVStrategy/facets/CVAllocationFacet.sol:CVAllocationFacet","label":"metadata","offset":0,"slot":"10","type":"t_struct(Metadata)3080_storage"},{"astId":87113,"contract":"pkg/contracts/src/CVStrategy/facets/CVAllocationFacet.sol:CVAllocationFacet","label":"disputeInfo","offset":0,"slot":"12","type":"t_struct(ProposalDisputeInfo)87084_storage"},{"astId":87115,"contract":"pkg/contracts/src/CVStrategy/facets/CVAllocationFacet.sol:CVAllocationFacet","label":"lastDisputeCompletion","offset":0,"slot":"15","type":"t_uint256"},{"astId":87117,"contract":"pkg/contracts/src/CVStrategy/facets/CVAllocationFacet.sol:CVAllocationFacet","label":"arbitrableConfigVersion","offset":0,"slot":"16","type":"t_uint256"}]},"t_struct(ProposalDisputeInfo)87084_storage":{"encoding":"inplace","label":"struct ProposalDisputeInfo","numberOfBytes":"96","members":[{"astId":87079,"contract":"pkg/contracts/src/CVStrategy/facets/CVAllocationFacet.sol:CVAllocationFacet","label":"disputeId","offset":0,"slot":"0","type":"t_uint256"},{"astId":87081,"contract":"pkg/contracts/src/CVStrategy/facets/CVAllocationFacet.sol:CVAllocationFacet","label":"disputeTimestamp","offset":0,"slot":"1","type":"t_uint256"},{"astId":87083,"contract":"pkg/contracts/src/CVStrategy/facets/CVAllocationFacet.sol:CVAllocationFacet","label":"challenger","offset":0,"slot":"2","type":"t_address"}]},"t_struct(StreamState)86187_storage":{"encoding":"inplace","label":"struct CVStrategyBaseFacet.StreamState","numberOfBytes":"128","members":[{"astId":86178,"contract":"pkg/contracts/src/CVStrategy/facets/CVAllocationFacet.sol:CVAllocationFacet","label":"isActive","offset":0,"slot":"0","type":"t_bool"},{"astId":86180,"contract":"pkg/contracts/src/CVStrategy/facets/CVAllocationFacet.sol:CVAllocationFacet","label":"flowUnits","offset":1,"slot":"0","type":"t_uint128"},{"astId":86182,"contract":"pkg/contracts/src/CVStrategy/facets/CVAllocationFacet.sol:CVAllocationFacet","label":"lastUpdateBlock","offset":0,"slot":"1","type":"t_uint256"},{"astId":86184,"contract":"pkg/contracts/src/CVStrategy/facets/CVAllocationFacet.sol:CVAllocationFacet","label":"lastEvalBlock","offset":0,"slot":"2","type":"t_uint256"},{"astId":86186,"contract":"pkg/contracts/src/CVStrategy/facets/CVAllocationFacet.sol:CVAllocationFacet","label":"beneficiary","offset":0,"slot":"3","type":"t_address"}]},"t_uint128":{"encoding":"inplace","label":"uint128","numberOfBytes":"16"},"t_uint256":{"encoding":"inplace","label":"uint256","numberOfBytes":"32"},"t_uint64":{"encoding":"inplace","label":"uint64","numberOfBytes":"8"},"t_uint8":{"encoding":"inplace","label":"uint8","numberOfBytes":"1"}}},"id":153}