{"abi":[{"type":"function","name":"DISPUTE_COOLDOWN_SEC","inputs":[],"outputs":[{"name":"","type":"uint256","internalType":"uint256"}],"stateMutability":"view"},{"type":"function","name":"RULING_OPTIONS","inputs":[],"outputs":[{"name":"","type":"uint256","internalType":"uint256"}],"stateMutability":"view"},{"type":"function","name":"allocate","inputs":[{"name":"_data","type":"bytes","internalType":"bytes"},{"name":"_sender","type":"address","internalType":"address"}],"outputs":[],"stateMutability":"payable"},{"type":"function","name":"arbitrableConfigs","inputs":[{"name":"","type":"uint256","internalType":"uint256"}],"outputs":[{"name":"arbitrator","type":"address","internalType":"contract IArbitrator"},{"name":"tribunalSafe","type":"address","internalType":"address"},{"name":"submitterCollateralAmount","type":"uint256","internalType":"uint256"},{"name":"challengerCollateralAmount","type":"uint256","internalType":"uint256"},{"name":"defaultRuling","type":"uint256","internalType":"uint256"},{"name":"defaultRulingTimeout","type":"uint256","internalType":"uint256"}],"stateMutability":"view"},{"type":"function","name":"cloneNonce","inputs":[],"outputs":[{"name":"","type":"uint256","internalType":"uint256"}],"stateMutability":"view"},{"type":"function","name":"collateralVault","inputs":[],"outputs":[{"name":"","type":"address","internalType":"contract ICollateralVault"}],"stateMutability":"view"},{"type":"function","name":"currentArbitrableConfigVersion","inputs":[],"outputs":[{"name":"","type":"uint256","internalType":"uint256"}],"stateMutability":"view"},{"type":"function","name":"cvParams","inputs":[],"outputs":[{"name":"maxRatio","type":"uint256","internalType":"uint256"},{"name":"weight","type":"uint256","internalType":"uint256"},{"name":"decay","type":"uint256","internalType":"uint256"},{"name":"minThresholdPoints","type":"uint256","internalType":"uint256"}],"stateMutability":"view"},{"type":"function","name":"disputeCount","inputs":[],"outputs":[{"name":"","type":"uint64","internalType":"uint64"}],"stateMutability":"view"},{"type":"function","name":"disputeIdToProposalId","inputs":[{"name":"","type":"uint256","internalType":"uint256"}],"outputs":[{"name":"","type":"uint256","internalType":"uint256"}],"stateMutability":"view"},{"type":"function","name":"distribute","inputs":[{"name":"","type":"address[]","internalType":"address[]"},{"name":"_data","type":"bytes","internalType":"bytes"},{"name":"","type":"address","internalType":"address"}],"outputs":[],"stateMutability":"nonpayable"},{"type":"function","name":"pointConfig","inputs":[],"outputs":[{"name":"maxAmount","type":"uint256","internalType":"uint256"}],"stateMutability":"view"},{"type":"function","name":"pointSystem","inputs":[],"outputs":[{"name":"","type":"uint8","internalType":"enum PointSystem"}],"stateMutability":"view"},{"type":"function","name":"proposalCounter","inputs":[],"outputs":[{"name":"","type":"uint256","internalType":"uint256"}],"stateMutability":"view"},{"type":"function","name":"proposalType","inputs":[],"outputs":[{"name":"","type":"uint8","internalType":"enum ProposalType"}],"stateMutability":"view"},{"type":"function","name":"proposals","inputs":[{"name":"","type":"uint256","internalType":"uint256"}],"outputs":[{"name":"proposalId","type":"uint256","internalType":"uint256"},{"name":"requestedAmount","type":"uint256","internalType":"uint256"},{"name":"stakedAmount","type":"uint256","internalType":"uint256"},{"name":"convictionLast","type":"uint256","internalType":"uint256"},{"name":"beneficiary","type":"address","internalType":"address"},{"name":"submitter","type":"address","internalType":"address"},{"name":"requestedToken","type":"address","internalType":"address"},{"name":"blockLast","type":"uint256","internalType":"uint256"},{"name":"proposalStatus","type":"uint8","internalType":"enum ProposalStatus"},{"name":"metadata","type":"tuple","internalType":"struct Metadata","components":[{"name":"protocol","type":"uint256","internalType":"uint256"},{"name":"pointer","type":"string","internalType":"string"}]},{"name":"disputeInfo","type":"tuple","internalType":"struct ProposalDisputeInfo","components":[{"name":"disputeId","type":"uint256","internalType":"uint256"},{"name":"disputeTimestamp","type":"uint256","internalType":"uint256"},{"name":"challenger","type":"address","internalType":"address"}]},{"name":"lastDisputeCompletion","type":"uint256","internalType":"uint256"},{"name":"arbitrableConfigVersion","type":"uint256","internalType":"uint256"}],"stateMutability":"view"},{"type":"function","name":"registryCommunity","inputs":[],"outputs":[{"name":"","type":"address","internalType":"contract RegistryCommunityV0_0"}],"stateMutability":"view"},{"type":"function","name":"superfluidToken","inputs":[],"outputs":[{"name":"","type":"address","internalType":"contract ISuperToken"}],"stateMutability":"view"},{"type":"function","name":"sybilScorer","inputs":[],"outputs":[{"name":"","type":"address","internalType":"contract ISybilScorer"}],"stateMutability":"view"},{"type":"function","name":"totalPointsActivated","inputs":[],"outputs":[{"name":"","type":"uint256","internalType":"uint256"}],"stateMutability":"view"},{"type":"function","name":"totalStaked","inputs":[],"outputs":[{"name":"","type":"uint256","internalType":"uint256"}],"stateMutability":"view"},{"type":"function","name":"totalVoterStakePct","inputs":[{"name":"","type":"address","internalType":"address"}],"outputs":[{"name":"","type":"uint256","internalType":"uint256"}],"stateMutability":"view"},{"type":"function","name":"voterStakedProposals","inputs":[{"name":"","type":"address","internalType":"address"},{"name":"","type":"uint256","internalType":"uint256"}],"outputs":[{"name":"","type":"uint256","internalType":"uint256"}],"stateMutability":"view"},{"type":"event","name":"Distributed","inputs":[{"name":"proposalId","type":"uint256","indexed":false,"internalType":"uint256"},{"name":"beneficiary","type":"address","indexed":false,"internalType":"address"},{"name":"amount","type":"uint256","indexed":false,"internalType":"uint256"}],"anonymous":false},{"type":"event","name":"SupportAdded","inputs":[{"name":"from","type":"address","indexed":false,"internalType":"address"},{"name":"proposalId","type":"uint256","indexed":false,"internalType":"uint256"},{"name":"amount","type":"uint256","indexed":false,"internalType":"uint256"},{"name":"totalStakedAmount","type":"uint256","indexed":false,"internalType":"uint256"},{"name":"convictionLast","type":"uint256","indexed":false,"internalType":"uint256"}],"anonymous":false},{"type":"error","name":"AmountOverMaxRatio","inputs":[]},{"type":"error","name":"ConvictionUnderMinimumThreshold","inputs":[]},{"type":"error","name":"NotEnoughPointsToSupport","inputs":[{"name":"pointsSupport","type":"uint256","internalType":"uint256"},{"name":"pointsBalance","type":"uint256","internalType":"uint256"}]},{"type":"error","name":"OnlyCommunityAllowed","inputs":[]},{"type":"error","name":"PoolAmountNotEnough","inputs":[{"name":"_proposalId","type":"uint256","internalType":"uint256"},{"name":"_requestedAmount","type":"uint256","internalType":"uint256"},{"name":"_poolAmount","type":"uint256","internalType":"uint256"}]},{"type":"error","name":"PoolIsEmpty","inputs":[]},{"type":"error","name":"ProposalDataIsEmpty","inputs":[]},{"type":"error","name":"ProposalInvalidForAllocation","inputs":[{"name":"_proposalId","type":"uint256","internalType":"uint256"},{"name":"_proposalStatus","type":"uint8","internalType":"enum ProposalStatus"}]},{"type":"error","name":"ProposalNotActive","inputs":[{"name":"_proposalId","type":"uint256","internalType":"uint256"}]},{"type":"error","name":"ProposalNotInList","inputs":[{"name":"_proposalId","type":"uint256","internalType":"uint256"}]},{"type":"error","name":"SupportUnderflow","inputs":[{"name":"_support","type":"uint256","internalType":"uint256"},{"name":"_delta","type":"int256","internalType":"int256"},{"name":"_result","type":"int256","internalType":"int256"}]},{"type":"error","name":"UserCannotExecuteAction","inputs":[]},{"type":"error","name":"UserIsInactive","inputs":[]},{"type":"error","name":"UserNotInRegistry","inputs":[]}],"bytecode":{"object":"0x608060405234801561001057600080fd5b506123cf806100206000396000f3fe6080604052600436106101105760003560e01c8063013cf08b1461011557806305caa7f3146101575780630a6f0ee9146101845780630bece79c146101a65780630c0512e9146101c6578063125fd1d9146101ea5780632506b87014610200578063255ffb38146102335780632dbd6fdd14610260578063339604591461028c578063351d9f96146102a257806341bb7605146102c95780635db64b991461035e5780636003e4141461038b578063626c47e8146103ab578063817b1cd2146103c0578063868c57b8146103d6578063a28889e1146103f6578063a47ff7e51461042e578063aba9ffee14610445578063b6c61f311461045b578063ef2920fc1461047b578063f5be3f7c1461048e575b600080fd5b34801561012157600080fd5b50610135610130366004611aac565b6104a4565b60405161014e9d9c9b9a99989796959493929190611b3f565b60405180910390f35b34801561016357600080fd5b50608054610177906001600160a01b031681565b60405161014e9190611bf9565b34801561019057600080fd5b506101a461019f366004611d62565b6105f2565b005b3480156101b257600080fd5b50607954610177906001600160a01b031681565b3480156101d257600080fd5b506101dc606e5481565b60405190815260200161014e565b3480156101f657600080fd5b506101dc606f5481565b34801561020c57600080fd5b506072546073546074546075546102239392919084565b60405161014e9493929190611e33565b34801561023f57600080fd5b506101dc61024e366004611aac565b607e6020526000908152604090205481565b34801561026c57600080fd5b5060765461027f90610100900460ff1681565b60405161014e9190611e4e565b34801561029857600080fd5b506101dc606c5481565b3480156102ae57600080fd5b506076546102bc9060ff1681565b60405161014e9190611e68565b3480156102d557600080fd5b506103266102e4366004611aac565b607f602052600090815260409020805460018201546002830154600384015460048501546005909501546001600160a01b039485169593909416939192909186565b604080516001600160a01b039788168152969095166020870152938501929092526060840152608083015260a082015260c00161014e565b34801561036a57600080fd5b506101dc610379366004611e7c565b607c6020526000908152604090205481565b34801561039757600080fd5b50607854610177906001600160a01b031681565b3480156103b757600080fd5b506101dc600381565b3480156103cc57600080fd5b506101dc60705481565b3480156103e257600080fd5b506101dc6103f1366004611e99565b610b1a565b34801561040257600080fd5b50606d54610416906001600160401b031681565b6040516001600160401b03909116815260200161014e565b34801561043a57600080fd5b506077546101dc9081565b34801561045157600080fd5b506101dc60715481565b34801561046757600080fd5b50607a54610177906001600160a01b031681565b6101a4610489366004611ec5565b610b4b565b34801561049a57600080fd5b506101dc611c2081565b607b602090815260009182526040918290208054600182015460028301546003840154600485015460058601546006870154600788015460088901548b51808d01909c52600a8a0180548d52600b8b0180549a9d999c989b979a6001600160a01b039788169a968816999790951697939660ff909316959394919284019161052b90611f16565b80601f016020809104026020016040519081016040528092919081815260200182805461055790611f16565b80156105a45780601f10610579576101008083540402835291602001916105a4565b820191906000526020600020905b81548152906001019060200180831161058757829003601f168201915b50505091909252505060408051606081018252600c8501548152600d8501546020820152600e8501546001600160a01b031691810191909152600f840154601090940154929390929091508d565b6105fa61120d565b610602611226565b600082511161061057600080fd5b600061061a611235565b1161062457600080fd5b60008280602001905181019061063a9190611f50565b6080549091506001600160a01b0316156107a6576000818152607b602052604090819020600181015460069091015491516370a0823160e01b815290916001600160a01b0316906370a0823190610695903090600401611bf9565b602060405180830381865afa1580156106b2573d6000803e3d6000fd5b505050506040513d601f19601f820116820180604052508101906106d69190611f50565b10156107a6576080546040516370a0823160e01b81526001600160a01b03909116906311bcc81e9082906370a0823190610714903090600401611bf9565b602060405180830381865afa158015610731573d6000803e3d6000fd5b505050506040513d601f19601f820116820180604052508101906107559190611f50565b6040518263ffffffff1660e01b815260040161077391815260200190565b600060405180830381600087803b15801561078d57600080fd5b505af11580156107a1573d6000803e3d6000fd5b505050505b600160765460ff1660028111156107bf576107bf611ac5565b03610b14576000818152607b602052604090205481148015906107e157508015155b156107eb57600080fd5b60016000828152607b602052604090206008015460ff16600681111561081357610813611ac5565b1461081d57600080fd5b610825611235565b6000828152607b6020526040902060010154111561084257600080fd5b6000818152607b602052604090206001015461085d906114c3565b1561086757600080fd5b6000610872826114ef565b6000838152607b60205260408120600101549192509073__$f1b7c69ba751c396eddc93d3bbc5414fd9$__906329dfe5ba906108ac611235565b60715460745460735460725460755460405160e089901b6001600160e01b03191681526004810197909752602487019590955260448601939093526064850191909152608484015260a483015260c482015260e401602060405180830381865af415801561091e573d6000803e3d6000fd5b505050506040513d601f19601f820116820180604052508101906109429190611f50565b905080821115801561096457506000838152607b602052604090206001015415155b1561096e57600080fd5b60655460685460405163068bcd8d60e01b81526004810191909152610a15916001600160a01b03169063068bcd8d90602401600060405180830381865afa1580156109bd573d6000803e3d6000fd5b505050506040513d6000823e601f3d908101601f191682016040526109e59190810190611f69565b6040908101516000868152607b6020529190912060048101546001909101546001600160a01b0390911690611522565b6000838152607b6020908152604080832060088101805460ff19166004908117909155607954600590920154606f548652607f9094529382902060020154915163099ea56b60e41b81526001600160a01b03918216946399ea56b094610a83948a949091169290910161208a565b600060405180830381600087803b158015610a9d57600080fd5b505af1158015610ab1573d6000803e3d6000fd5b5050506000848152607b602052604090819020600481015460019091015491517fa7932e9c92f31e1ed56b29d00bbe669a97484dc24de28dd9c8c0429df7f358479350610b099287926001600160a01b03169161208a565b60405180910390a150505b50505050565b607d6020528160005260406000208181548110610b3657600080fd5b90600052602060002001600091509150505481565b610b5361120d565b610b5b611226565b600082806020019051810190610b7191906120a9565b905060005b8151811015610bd557610bc3828281518110610b9457610b9461215e565b602002602001015160000151838381518110610bb257610bb261215e565b60200260200101516020015161165f565b80610bcd8161218a565b915050610b76565b50610bdf82611706565b60785460405163011de97360e61b81526001600160a01b039091169063477a5cc090610c1190859030906004016121a3565b602060405180830381865afa158015610c2e573d6000803e3d6000fd5b505050506040513d601f19601f82011682018060405250810190610c5291906121bd565b610c5b57600080fd5b600080610c6784611785565b905060005b8351811015610d435781158015610ca057506000848281518110610c9257610c9261215e565b602002602001015160200151135b15610caa57600080fd5b838181518110610cbc57610cbc61215e565b60200260200101516000015160000315610d31576000848281518110610ce457610ce461215e565b6020026020010151600001519050610cfb8161194a565b610d0457600080fd5b848281518110610d1657610d1661215e565b60200260200101516020015184610d2d91906121df565b9350505b80610d3b8161218a565b915050610c6c565b506001600160a01b0384166000908152607c6020526040812054610d679084611983565b607854604051637817ee4f60e01b81529192506000916001600160a01b0390911690637817ee4f90610d9f90899030906004016121a3565b6020604051808303816000875af1158015610dbe573d6000803e3d6000fd5b505050506040513d601f19601f82011682018060405250810190610de29190611f50565b905080821115610df157600080fd5b506001600160a01b0385166000908152607c60205260408120919091556060925090505b8251811015611206576000838281518110610e3257610e3261215e565b60200260200101516000015190508251600003610e8e5760408051600180825281830190925290602080830190803683370190505092508083600081518110610e7d57610e7d61215e565b602002602001018181525050610fa9565b6000805b8451811015610ed65782858281518110610eae57610eae61215e565b602002602001015103610ec45760019150610ed6565b80610ece8161218a565b915050610e92565b5080610fa757600084516001610eec9190612207565b6001600160401b03811115610f0357610f03611c0d565b604051908082528060200260200182016040528015610f2c578160200160208202803683370190505b50905060005b8551811015610f8457858181518110610f4d57610f4d61215e565b6020026020010151828281518110610f6757610f6761215e565b602090810291909101015280610f7c8161218a565b915050610f32565b508281865181518110610f9957610f9961215e565b602090810291909101015293505b505b6000848381518110610fbd57610fbd61215e565b6020908102919091018101518101516000848152607b8352604080822060028101546001600160a01b038c16845260098201909552908220549294509291906110068286611983565b6001600160a01b038b1660009081526009860160205260408120829055909150805b6001600160a01b038c166000908152607d602052604090205481101561109f5785546001600160a01b038d166000908152607d602052604090208054839081106110745761107461215e565b90600052602060002001540361108d576001915061109f565b806110978161218a565b915050611028565b50806110d5576001600160a01b038b166000908152607d6020908152604082208754815460018101835591845291909220909101555b818311611125576110e6838361221a565b607060008282546110f79190612207565b909155506111079050838361221a565b85600201600082825461111a9190612207565b909155506111699050565b61112f828461221a565b60706000828254611140919061221a565b909155506111509050828461221a565b856002016000828254611163919061221a565b90915550505b8460070154600003611180574360078601556111ec565b61118a85856119a0565b60028501546003860154604080516001600160a01b038f168152602081018b9052908101859052606081019290925260808201527f0227f642ddcf2042ceaeafadb9d540f432072c00cd4862881667168dcc14710f9060a00160405180910390a15b5050505050505080806111fe9061218a565b915050610e15565b5050505050565b6065546001600160a01b0316331461122457600080fd5b565b60685460000361122457600080fd5b60655460685460405163068bcd8d60e01b815260009283926001600160a01b039091169163068bcd8d9161126f9160040190815260200190565b600060405180830381865afa15801561128c573d6000803e3d6000fd5b505050506040513d6000823e601f3d908101601f191682016040526112b49190810190611f69565b60400151905073eeeeeeeeeeeeeeeeeeeeeeeeeeeeeeeeeeeeeeed196001600160a01b038216016112e6574791505090565b6040516370a0823160e01b81526000906001600160a01b038316906370a0823190611315903090600401611bf9565b602060405180830381865afa158015611332573d6000803e3d6000fd5b505050506040513d601f19601f820116820180604052508101906113569190611f50565b6080549091506000906001600160a01b0316156113e3576080546040516370a0823160e01b81526001600160a01b03909116906370a082319061139d903090600401611bf9565b602060405180830381865afa1580156113ba573d6000803e3d6000fd5b505050506040513d601f19601f820116820180604052508101906113de9190611f50565b6113e6565b60005b90506000836001600160a01b031663313ce5676040518163ffffffff1660e01b8152600401602060405180830381865afa158015611428573d6000803e3d6000fd5b505050506040513d601f19601f8201168201806040525081019061144c919061222d565b905060128160ff16101561148157611465816012612250565b61147090600a61234d565b61147a908361235c565b91506114b0565b60128160ff1611156114b057611498601282612250565b6114a390600a61234d565b6114ad908361237e565b91505b6114ba8284612207565b94505050505090565b60006114d2629896808361237e565b6114da611235565b6072546114e7919061237e565b111592915050565b6000818152607b602052604081208054831461150a57600080fd5b6115188182600201546119a0565b6003015492915050565b73eeeeeeeeeeeeeeeeeeeeeeeeeeeeeeeeeeeeeeed196001600160a01b038416016115e7576000826001600160a01b03168260405160006040518083038185875af1925050503d8060008114611594576040519150601f19603f3d011682016040523d82523d6000602084013e611599565b606091505b5050905080610b145760405162461bcd60e51b815260206004820152601660248201527513985d1a5d99481d1c985b9cd9995c8819985a5b195960521b604482015260640160405180910390fd5b60405163a9059cbb60e01b81526001600160a01b0383811660048301526024820183905284169063a9059cbb906044016020604051808303816000875af1158015611636573d6000803e3d6000fd5b505050506040513d601f19601f82011682018060405250810190610b1491906121bd565b505050565b6000828152607b6020526040812090821380156116fc57506000600882015460ff16600681111561169257611692611ac5565b14806116b657506003600882015460ff1660068111156116b4576116b4611ac5565b145b806116d957506004600882015460ff1660068111156116d7576116d7611ac5565b145b806116fc57506006600882015460ff1660068111156116fa576116fa611ac5565b145b1561165a57600080fd5b60785460405163288c314960e21b81526001600160a01b039091169063a230c52490611736908490600401611bf9565b6020604051808303816000875af1158015611755573d6000803e3d6000fd5b505050506040513d601f19601f8201168201806040525081019061177991906121bd565b61178257600080fd5b50565b607a546000906001600160a01b03166118d1576068546040516810531313d5d31254d560ba1b6020820152602981019190915260009060490160408051601f19818403018152908290528051602090910120607854632474521560e21b83529092506001600160a01b0316906391d1485490611808908490600090600401612395565b602060405180830381865afa158015611825573d6000803e3d6000fd5b505050506040513d601f19601f8201168201806040525081019061184991906121bd565b156118575750600192915050565b607854604051632474521560e21b81526001600160a01b03909116906391d14854906118899084908790600401612395565b602060405180830381865afa1580156118a6573d6000803e3d6000fd5b505050506040513d601f19601f820116820180604052508101906118ca91906121bd565b9392505050565b607a546040516302154c3d60e51b81526001600160a01b03909116906342a987a09061190390859030906004016121a3565b602060405180830381865afa158015611920573d6000803e3d6000fd5b505050506040513d601f19601f8201168201806040525081019061194491906121bd565b92915050565b6000818152607b6020526040812054158015906119445750506000908152607b60205260409020600501546001600160a01b0316151590565b60008061199083856121df565b905060008112156118ca57600080fd5b6000806119ad84846119db565b915091508160001480156119bf575080155b156119ca5750505050565b600784015560039092019190915550565b60008043905080846007015411156119f5576119f56123ac565b80846007015403611a0b57506000905080611aa5565b73__$f1b7c69ba751c396eddc93d3bbc5414fd9$__63010dfe64856007015483611a35919061221a565b60038701546074546040516001600160e01b031960e086901b168152611a619392918991600401611e33565b602060405180830381865af4158015611a7e573d6000803e3d6000fd5b505050506040513d601f19601f82011682018060405250810190611aa29190611f50565b91505b9250929050565b600060208284031215611abe57600080fd5b5035919050565b634e487b7160e01b600052602160045260246000fd5b60005b83811015611af6578181015183820152602001611ade565b50506000910152565b8051825260006020820151604060208501528051806040860152611b2a816060870160208501611adb565b601f01601f1916939093016060019392505050565b8d8152602081018d9052604081018c9052606081018b90526001600160a01b038a8116608083015289811660a0830152881660c082015260e0810187905260006101e060078810611b9257611b92611ac5565b8761010084015280610120840152611bac81840188611aff565b8651610140850152602087015161016085015260408701516001600160a01b03166101808501529150611bdc9050565b6101a08201939093526101c001529b9a5050505050505050505050565b6001600160a01b0391909116815260200190565b634e487b7160e01b600052604160045260246000fd5b60405160c081016001600160401b0381118282101715611c4557611c45611c0d565b60405290565b604080519081016001600160401b0381118282101715611c4557611c45611c0d565b604051601f8201601f191681016001600160401b0381118282101715611c9557611c95611c0d565b604052919050565b60006001600160401b03821115611cb657611cb6611c0d565b5060051b60200190565b6001600160a01b038116811461178257600080fd5b8035611ce081611cc0565b919050565b60006001600160401b03821115611cfe57611cfe611c0d565b50601f01601f191660200190565b600082601f830112611d1d57600080fd5b8135611d30611d2b82611ce5565b611c6d565b818152846020838601011115611d4557600080fd5b816020850160208301376000918101602001919091529392505050565b600080600060608486031215611d7757600080fd5b83356001600160401b0380821115611d8e57600080fd5b818601915086601f830112611da257600080fd5b81356020611db2611d2b83611c9d565b82815260059290921b8401810191818101908a841115611dd157600080fd5b948201945b83861015611df8578535611de981611cc0565b82529482019490820190611dd6565b97505087013592505080821115611e0e57600080fd5b50611e1b86828701611d0c565b925050611e2a60408501611cd5565b90509250925092565b93845260208401929092526040830152606082015260800190565b6020810160048310611e6257611e62611ac5565b91905290565b6020810160038310611e6257611e62611ac5565b600060208284031215611e8e57600080fd5b81356118ca81611cc0565b60008060408385031215611eac57600080fd5b8235611eb781611cc0565b946020939093013593505050565b60008060408385031215611ed857600080fd5b82356001600160401b03811115611eee57600080fd5b611efa85828601611d0c565b9250506020830135611f0b81611cc0565b809150509250929050565b600181811c90821680611f2a57607f821691505b602082108103611f4a57634e487b7160e01b600052602260045260246000fd5b50919050565b600060208284031215611f6257600080fd5b5051919050565b60006020808385031215611f7c57600080fd5b82516001600160401b0380821115611f9357600080fd5b9084019060c08287031215611fa757600080fd5b611faf611c23565b8251815283830151611fc081611cc0565b818501526040830151611fd281611cc0565b6040820152606083015182811115611fe957600080fd5b830160408189031215611ffb57600080fd5b612003611c4b565b81518152858201518481111561201857600080fd5b82019350601f8401891361202b57600080fd5b8351915061203b611d2b83611ce5565b828152898784870101111561204f57600080fd5b61205e83888301898801611adb565b95810195909552506060810193909352506080818101519083015260a090810151908201529392505050565b9283526001600160a01b03919091166020830152604082015260600190565b600060208083850312156120bc57600080fd5b82516001600160401b038111156120d257600080fd5b8301601f810185136120e357600080fd5b80516120f1611d2b82611c9d565b81815260069190911b8201830190838101908783111561211057600080fd5b928401925b82841015612153576040848903121561212e5760008081fd5b612136611c4b565b845181528585015186820152825260409093019290840190612115565b979650505050505050565b634e487b7160e01b600052603260045260246000fd5b634e487b7160e01b600052601160045260246000fd5b60006001820161219c5761219c612174565b5060010190565b6001600160a01b0392831681529116602082015260400190565b6000602082840312156121cf57600080fd5b815180151581146118ca57600080fd5b80820182811260008312801582168215821617156121ff576121ff612174565b505092915050565b8082018082111561194457611944612174565b8181038181111561194457611944612174565b60006020828403121561223f57600080fd5b815160ff811681146118ca57600080fd5b60ff828116828216039081111561194457611944612174565b600181815b808511156122a457816000190482111561228a5761228a612174565b8085161561229757918102915b93841c939080029061226e565b509250929050565b6000826122bb57506001611944565b816122c857506000611944565b81600181146122de57600281146122e857612304565b6001915050611944565b60ff8411156122f9576122f9612174565b50506001821b611944565b5060208310610133831016604e8410600b8410161715612327575081810a611944565b6123318383612269565b806000190482111561234557612345612174565b029392505050565b60006118ca60ff8416836122ac565b60008261237957634e487b7160e01b600052601260045260246000fd5b500490565b808202811582820484141761194457611944612174565b9182526001600160a01b0316602082015260400190565b634e487b7160e01b600052600160045260246000fdfea164736f6c6343000813000a","linkReferences":{"pkg/contracts/src/CVStrategy/ConvictionsUtils.sol":{"ConvictionsUtils":[{"start":2218,"length":20},{"start":6701,"length":20}]}}},"methodIdentifiers":{"DISPUTE_COOLDOWN_SEC()":"f5be3f7c","RULING_OPTIONS()":"626c47e8","allocate(bytes,address)":"ef2920fc","arbitrableConfigs(uint256)":"41bb7605","cloneNonce()":"33960459","collateralVault()":"0bece79c","currentArbitrableConfigVersion()":"125fd1d9","cvParams()":"2506b870","disputeCount()":"a28889e1","disputeIdToProposalId(uint256)":"255ffb38","distribute(address[],bytes,address)":"0a6f0ee9","pointConfig()":"a47ff7e5","pointSystem()":"2dbd6fdd","proposalCounter()":"0c0512e9","proposalType()":"351d9f96","proposals(uint256)":"013cf08b","registryCommunity()":"6003e414","superfluidToken()":"05caa7f3","sybilScorer()":"b6c61f31","totalPointsActivated()":"aba9ffee","totalStaked()":"817b1cd2","totalVoterStakePct(address)":"5db64b99","voterStakedProposals(address,uint256)":"868c57b8"},"storageLayout":{"storage":[{"astId":73407,"contract":"pkg/contracts/src/CVStrategy/facets/CVAllocationFacet.sol:CVAllocationFacet","label":"_initialized","offset":0,"slot":"0","type":"t_uint8"},{"astId":73409,"contract":"pkg/contracts/src/CVStrategy/facets/CVAllocationFacet.sol:CVAllocationFacet","label":"_initializing","offset":1,"slot":"0","type":"t_bool"},{"astId":73413,"contract":"pkg/contracts/src/CVStrategy/facets/CVAllocationFacet.sol:CVAllocationFacet","label":"__gap_init","offset":0,"slot":"1","type":"t_array(t_uint256)50_storage"},{"astId":73416,"contract":"pkg/contracts/src/CVStrategy/facets/CVAllocationFacet.sol:CVAllocationFacet","label":"_owner","offset":0,"slot":"51","type":"t_address"},{"astId":73420,"contract":"pkg/contracts/src/CVStrategy/facets/CVAllocationFacet.sol:CVAllocationFacet","label":"__gap_ownable","offset":0,"slot":"52","type":"t_array(t_uint256)49_storage"},{"astId":73424,"contract":"pkg/contracts/src/CVStrategy/facets/CVAllocationFacet.sol:CVAllocationFacet","label":"allo","offset":0,"slot":"101","type":"t_contract(IAllo)2629"},{"astId":73426,"contract":"pkg/contracts/src/CVStrategy/facets/CVAllocationFacet.sol:CVAllocationFacet","label":"strategyId","offset":0,"slot":"102","type":"t_bytes32"},{"astId":73428,"contract":"pkg/contracts/src/CVStrategy/facets/CVAllocationFacet.sol:CVAllocationFacet","label":"poolActive","offset":0,"slot":"103","type":"t_bool"},{"astId":73430,"contract":"pkg/contracts/src/CVStrategy/facets/CVAllocationFacet.sol:CVAllocationFacet","label":"poolId","offset":0,"slot":"104","type":"t_uint256"},{"astId":73432,"contract":"pkg/contracts/src/CVStrategy/facets/CVAllocationFacet.sol:CVAllocationFacet","label":"poolAmount","offset":0,"slot":"105","type":"t_uint256"},{"astId":73435,"contract":"pkg/contracts/src/CVStrategy/facets/CVAllocationFacet.sol:CVAllocationFacet","label":"collateralVaultTemplate","offset":0,"slot":"106","type":"t_address"},{"astId":73438,"contract":"pkg/contracts/src/CVStrategy/facets/CVAllocationFacet.sol:CVAllocationFacet","label":"surpressStateMutabilityWarning","offset":0,"slot":"107","type":"t_uint256"},{"astId":73441,"contract":"pkg/contracts/src/CVStrategy/facets/CVAllocationFacet.sol:CVAllocationFacet","label":"cloneNonce","offset":0,"slot":"108","type":"t_uint256"},{"astId":73444,"contract":"pkg/contracts/src/CVStrategy/facets/CVAllocationFacet.sol:CVAllocationFacet","label":"disputeCount","offset":0,"slot":"109","type":"t_uint64"},{"astId":73447,"contract":"pkg/contracts/src/CVStrategy/facets/CVAllocationFacet.sol:CVAllocationFacet","label":"proposalCounter","offset":0,"slot":"110","type":"t_uint256"},{"astId":73450,"contract":"pkg/contracts/src/CVStrategy/facets/CVAllocationFacet.sol:CVAllocationFacet","label":"currentArbitrableConfigVersion","offset":0,"slot":"111","type":"t_uint256"},{"astId":73453,"contract":"pkg/contracts/src/CVStrategy/facets/CVAllocationFacet.sol:CVAllocationFacet","label":"totalStaked","offset":0,"slot":"112","type":"t_uint256"},{"astId":73456,"contract":"pkg/contracts/src/CVStrategy/facets/CVAllocationFacet.sol:CVAllocationFacet","label":"totalPointsActivated","offset":0,"slot":"113","type":"t_uint256"},{"astId":73460,"contract":"pkg/contracts/src/CVStrategy/facets/CVAllocationFacet.sol:CVAllocationFacet","label":"cvParams","offset":0,"slot":"114","type":"t_struct(CVParams)75995_storage"},{"astId":73464,"contract":"pkg/contracts/src/CVStrategy/facets/CVAllocationFacet.sol:CVAllocationFacet","label":"proposalType","offset":0,"slot":"118","type":"t_enum(ProposalType)75898"},{"astId":73468,"contract":"pkg/contracts/src/CVStrategy/facets/CVAllocationFacet.sol:CVAllocationFacet","label":"pointSystem","offset":1,"slot":"118","type":"t_enum(PointSystem)75903"},{"astId":73472,"contract":"pkg/contracts/src/CVStrategy/facets/CVAllocationFacet.sol:CVAllocationFacet","label":"pointConfig","offset":0,"slot":"119","type":"t_struct(PointSystemConfig)75972_storage"},{"astId":73476,"contract":"pkg/contracts/src/CVStrategy/facets/CVAllocationFacet.sol:CVAllocationFacet","label":"registryCommunity","offset":0,"slot":"120","type":"t_contract(RegistryCommunityV0_0)81749"},{"astId":73480,"contract":"pkg/contracts/src/CVStrategy/facets/CVAllocationFacet.sol:CVAllocationFacet","label":"collateralVault","offset":0,"slot":"121","type":"t_contract(ICollateralVault)84960"},{"astId":73484,"contract":"pkg/contracts/src/CVStrategy/facets/CVAllocationFacet.sol:CVAllocationFacet","label":"sybilScorer","offset":0,"slot":"122","type":"t_contract(ISybilScorer)79879"},{"astId":73490,"contract":"pkg/contracts/src/CVStrategy/facets/CVAllocationFacet.sol:CVAllocationFacet","label":"proposals","offset":0,"slot":"123","type":"t_mapping(t_uint256,t_struct(Proposal)75964_storage)"},{"astId":73495,"contract":"pkg/contracts/src/CVStrategy/facets/CVAllocationFacet.sol:CVAllocationFacet","label":"totalVoterStakePct","offset":0,"slot":"124","type":"t_mapping(t_address,t_uint256)"},{"astId":73501,"contract":"pkg/contracts/src/CVStrategy/facets/CVAllocationFacet.sol:CVAllocationFacet","label":"voterStakedProposals","offset":0,"slot":"125","type":"t_mapping(t_address,t_array(t_uint256)dyn_storage)"},{"astId":73506,"contract":"pkg/contracts/src/CVStrategy/facets/CVAllocationFacet.sol:CVAllocationFacet","label":"disputeIdToProposalId","offset":0,"slot":"126","type":"t_mapping(t_uint256,t_uint256)"},{"astId":73512,"contract":"pkg/contracts/src/CVStrategy/facets/CVAllocationFacet.sol:CVAllocationFacet","label":"arbitrableConfigs","offset":0,"slot":"127","type":"t_mapping(t_uint256,t_struct(ArbitrableConfig)75986_storage)"},{"astId":73516,"contract":"pkg/contracts/src/CVStrategy/facets/CVAllocationFacet.sol:CVAllocationFacet","label":"superfluidToken","offset":0,"slot":"128","type":"t_contract(ISuperToken)71678"},{"astId":73521,"contract":"pkg/contracts/src/CVStrategy/facets/CVAllocationFacet.sol:CVAllocationFacet","label":"__gap","offset":0,"slot":"129","type":"t_array(t_uint256)49_storage"}],"types":{"t_address":{"encoding":"inplace","label":"address","numberOfBytes":"20"},"t_array(t_uint256)49_storage":{"encoding":"inplace","label":"uint256[49]","numberOfBytes":"1568","base":"t_uint256"},"t_array(t_uint256)50_storage":{"encoding":"inplace","label":"uint256[50]","numberOfBytes":"1600","base":"t_uint256"},"t_array(t_uint256)dyn_storage":{"encoding":"dynamic_array","label":"uint256[]","numberOfBytes":"32","base":"t_uint256"},"t_bool":{"encoding":"inplace","label":"bool","numberOfBytes":"1"},"t_bytes32":{"encoding":"inplace","label":"bytes32","numberOfBytes":"32"},"t_contract(IAllo)2629":{"encoding":"inplace","label":"contract IAllo","numberOfBytes":"20"},"t_contract(IArbitrator)84927":{"encoding":"inplace","label":"contract IArbitrator","numberOfBytes":"20"},"t_contract(ICollateralVault)84960":{"encoding":"inplace","label":"contract ICollateralVault","numberOfBytes":"20"},"t_contract(ISuperToken)71678":{"encoding":"inplace","label":"contract ISuperToken","numberOfBytes":"20"},"t_contract(ISybilScorer)79879":{"encoding":"inplace","label":"contract ISybilScorer","numberOfBytes":"20"},"t_contract(RegistryCommunityV0_0)81749":{"encoding":"inplace","label":"contract RegistryCommunityV0_0","numberOfBytes":"20"},"t_enum(PointSystem)75903":{"encoding":"inplace","label":"enum PointSystem","numberOfBytes":"1"},"t_enum(ProposalStatus)75923":{"encoding":"inplace","label":"enum ProposalStatus","numberOfBytes":"1"},"t_enum(ProposalType)75898":{"encoding":"inplace","label":"enum ProposalType","numberOfBytes":"1"},"t_mapping(t_address,t_array(t_uint256)dyn_storage)":{"encoding":"mapping","key":"t_address","label":"mapping(address => uint256[])","numberOfBytes":"32","value":"t_array(t_uint256)dyn_storage"},"t_mapping(t_address,t_uint256)":{"encoding":"mapping","key":"t_address","label":"mapping(address => uint256)","numberOfBytes":"32","value":"t_uint256"},"t_mapping(t_uint256,t_struct(ArbitrableConfig)75986_storage)":{"encoding":"mapping","key":"t_uint256","label":"mapping(uint256 => struct ArbitrableConfig)","numberOfBytes":"32","value":"t_struct(ArbitrableConfig)75986_storage"},"t_mapping(t_uint256,t_struct(Proposal)75964_storage)":{"encoding":"mapping","key":"t_uint256","label":"mapping(uint256 => struct Proposal)","numberOfBytes":"32","value":"t_struct(Proposal)75964_storage"},"t_mapping(t_uint256,t_uint256)":{"encoding":"mapping","key":"t_uint256","label":"mapping(uint256 => uint256)","numberOfBytes":"32","value":"t_uint256"},"t_string_storage":{"encoding":"bytes","label":"string","numberOfBytes":"32"},"t_struct(ArbitrableConfig)75986_storage":{"encoding":"inplace","label":"struct ArbitrableConfig","numberOfBytes":"192","members":[{"astId":75975,"contract":"pkg/contracts/src/CVStrategy/facets/CVAllocationFacet.sol:CVAllocationFacet","label":"arbitrator","offset":0,"slot":"0","type":"t_contract(IArbitrator)84927"},{"astId":75977,"contract":"pkg/contracts/src/CVStrategy/facets/CVAllocationFacet.sol:CVAllocationFacet","label":"tribunalSafe","offset":0,"slot":"1","type":"t_address"},{"astId":75979,"contract":"pkg/contracts/src/CVStrategy/facets/CVAllocationFacet.sol:CVAllocationFacet","label":"submitterCollateralAmount","offset":0,"slot":"2","type":"t_uint256"},{"astId":75981,"contract":"pkg/contracts/src/CVStrategy/facets/CVAllocationFacet.sol:CVAllocationFacet","label":"challengerCollateralAmount","offset":0,"slot":"3","type":"t_uint256"},{"astId":75983,"contract":"pkg/contracts/src/CVStrategy/facets/CVAllocationFacet.sol:CVAllocationFacet","label":"defaultRuling","offset":0,"slot":"4","type":"t_uint256"},{"astId":75985,"contract":"pkg/contracts/src/CVStrategy/facets/CVAllocationFacet.sol:CVAllocationFacet","label":"defaultRulingTimeout","offset":0,"slot":"5","type":"t_uint256"}]},"t_struct(CVParams)75995_storage":{"encoding":"inplace","label":"struct CVParams","numberOfBytes":"128","members":[{"astId":75988,"contract":"pkg/contracts/src/CVStrategy/facets/CVAllocationFacet.sol:CVAllocationFacet","label":"maxRatio","offset":0,"slot":"0","type":"t_uint256"},{"astId":75990,"contract":"pkg/contracts/src/CVStrategy/facets/CVAllocationFacet.sol:CVAllocationFacet","label":"weight","offset":0,"slot":"1","type":"t_uint256"},{"astId":75992,"contract":"pkg/contracts/src/CVStrategy/facets/CVAllocationFacet.sol:CVAllocationFacet","label":"decay","offset":0,"slot":"2","type":"t_uint256"},{"astId":75994,"contract":"pkg/contracts/src/CVStrategy/facets/CVAllocationFacet.sol:CVAllocationFacet","label":"minThresholdPoints","offset":0,"slot":"3","type":"t_uint256"}]},"t_struct(Metadata)3080_storage":{"encoding":"inplace","label":"struct Metadata","numberOfBytes":"64","members":[{"astId":3076,"contract":"pkg/contracts/src/CVStrategy/facets/CVAllocationFacet.sol:CVAllocationFacet","label":"protocol","offset":0,"slot":"0","type":"t_uint256"},{"astId":3079,"contract":"pkg/contracts/src/CVStrategy/facets/CVAllocationFacet.sol:CVAllocationFacet","label":"pointer","offset":0,"slot":"1","type":"t_string_storage"}]},"t_struct(PointSystemConfig)75972_storage":{"encoding":"inplace","label":"struct PointSystemConfig","numberOfBytes":"32","members":[{"astId":75971,"contract":"pkg/contracts/src/CVStrategy/facets/CVAllocationFacet.sol:CVAllocationFacet","label":"maxAmount","offset":0,"slot":"0","type":"t_uint256"}]},"t_struct(Proposal)75964_storage":{"encoding":"inplace","label":"struct Proposal","numberOfBytes":"544","members":[{"astId":75932,"contract":"pkg/contracts/src/CVStrategy/facets/CVAllocationFacet.sol:CVAllocationFacet","label":"proposalId","offset":0,"slot":"0","type":"t_uint256"},{"astId":75934,"contract":"pkg/contracts/src/CVStrategy/facets/CVAllocationFacet.sol:CVAllocationFacet","label":"requestedAmount","offset":0,"slot":"1","type":"t_uint256"},{"astId":75936,"contract":"pkg/contracts/src/CVStrategy/facets/CVAllocationFacet.sol:CVAllocationFacet","label":"stakedAmount","offset":0,"slot":"2","type":"t_uint256"},{"astId":75938,"contract":"pkg/contracts/src/CVStrategy/facets/CVAllocationFacet.sol:CVAllocationFacet","label":"convictionLast","offset":0,"slot":"3","type":"t_uint256"},{"astId":75940,"contract":"pkg/contracts/src/CVStrategy/facets/CVAllocationFacet.sol:CVAllocationFacet","label":"beneficiary","offset":0,"slot":"4","type":"t_address"},{"astId":75942,"contract":"pkg/contracts/src/CVStrategy/facets/CVAllocationFacet.sol:CVAllocationFacet","label":"submitter","offset":0,"slot":"5","type":"t_address"},{"astId":75944,"contract":"pkg/contracts/src/CVStrategy/facets/CVAllocationFacet.sol:CVAllocationFacet","label":"requestedToken","offset":0,"slot":"6","type":"t_address"},{"astId":75946,"contract":"pkg/contracts/src/CVStrategy/facets/CVAllocationFacet.sol:CVAllocationFacet","label":"blockLast","offset":0,"slot":"7","type":"t_uint256"},{"astId":75949,"contract":"pkg/contracts/src/CVStrategy/facets/CVAllocationFacet.sol:CVAllocationFacet","label":"proposalStatus","offset":0,"slot":"8","type":"t_enum(ProposalStatus)75923"},{"astId":75953,"contract":"pkg/contracts/src/CVStrategy/facets/CVAllocationFacet.sol:CVAllocationFacet","label":"voterStakedPoints","offset":0,"slot":"9","type":"t_mapping(t_address,t_uint256)"},{"astId":75956,"contract":"pkg/contracts/src/CVStrategy/facets/CVAllocationFacet.sol:CVAllocationFacet","label":"metadata","offset":0,"slot":"10","type":"t_struct(Metadata)3080_storage"},{"astId":75959,"contract":"pkg/contracts/src/CVStrategy/facets/CVAllocationFacet.sol:CVAllocationFacet","label":"disputeInfo","offset":0,"slot":"12","type":"t_struct(ProposalDisputeInfo)75930_storage"},{"astId":75961,"contract":"pkg/contracts/src/CVStrategy/facets/CVAllocationFacet.sol:CVAllocationFacet","label":"lastDisputeCompletion","offset":0,"slot":"15","type":"t_uint256"},{"astId":75963,"contract":"pkg/contracts/src/CVStrategy/facets/CVAllocationFacet.sol:CVAllocationFacet","label":"arbitrableConfigVersion","offset":0,"slot":"16","type":"t_uint256"}]},"t_struct(ProposalDisputeInfo)75930_storage":{"encoding":"inplace","label":"struct ProposalDisputeInfo","numberOfBytes":"96","members":[{"astId":75925,"contract":"pkg/contracts/src/CVStrategy/facets/CVAllocationFacet.sol:CVAllocationFacet","label":"disputeId","offset":0,"slot":"0","type":"t_uint256"},{"astId":75927,"contract":"pkg/contracts/src/CVStrategy/facets/CVAllocationFacet.sol:CVAllocationFacet","label":"disputeTimestamp","offset":0,"slot":"1","type":"t_uint256"},{"astId":75929,"contract":"pkg/contracts/src/CVStrategy/facets/CVAllocationFacet.sol:CVAllocationFacet","label":"challenger","offset":0,"slot":"2","type":"t_address"}]},"t_uint256":{"encoding":"inplace","label":"uint256","numberOfBytes":"32"},"t_uint64":{"encoding":"inplace","label":"uint64","numberOfBytes":"8"},"t_uint8":{"encoding":"inplace","label":"uint8","numberOfBytes":"1"}}},"id":125}