{"abi":[{"type":"fallback","stateMutability":"nonpayable"},{"type":"function","name":"COUNCIL_MEMBER","inputs":[],"outputs":[{"name":"","type":"bytes32","internalType":"bytes32"}],"stateMutability":"view"},{"type":"function","name":"DEFAULT_ADMIN_ROLE","inputs":[],"outputs":[{"name":"","type":"bytes32","internalType":"bytes32"}],"stateMutability":"view"},{"type":"function","name":"MAX_FEE","inputs":[],"outputs":[{"name":"","type":"uint256","internalType":"uint256"}],"stateMutability":"view"},{"type":"function","name":"NATIVE","inputs":[],"outputs":[{"name":"","type":"address","internalType":"address"}],"stateMutability":"view"},{"type":"function","name":"PRECISION_SCALE","inputs":[],"outputs":[{"name":"","type":"uint256","internalType":"uint256"}],"stateMutability":"view"},{"type":"function","name":"VERSION","inputs":[],"outputs":[{"name":"","type":"string","internalType":"string"}],"stateMutability":"view"},{"type":"function","name":"acceptCouncilSafe","inputs":[],"outputs":[],"stateMutability":"nonpayable"},{"type":"function","name":"activateMemberInStrategy","inputs":[{"name":"","type":"address","internalType":"address"},{"name":"","type":"address","internalType":"address"}],"outputs":[],"stateMutability":"nonpayable"},{"type":"function","name":"addStrategy","inputs":[{"name":"","type":"address","internalType":"address"}],"outputs":[],"stateMutability":"nonpayable"},{"type":"function","name":"addStrategyByPoolId","inputs":[{"name":"","type":"uint256","internalType":"uint256"}],"outputs":[],"stateMutability":"nonpayable"},{"type":"function","name":"addressToMemberInfo","inputs":[{"name":"member","type":"address","internalType":"address"}],"outputs":[{"name":"member","type":"address","internalType":"address"},{"name":"stakedAmount","type":"uint256","internalType":"uint256"},{"name":"isRegistered","type":"bool","internalType":"bool"}],"stateMutability":"view"},{"type":"function","name":"allo","inputs":[],"outputs":[{"name":"","type":"address","internalType":"contract FAllo"}],"stateMutability":"view"},{"type":"function","name":"cloneNonce","inputs":[],"outputs":[{"name":"","type":"uint256","internalType":"uint256"}],"stateMutability":"view"},{"type":"function","name":"collateralVaultTemplate","inputs":[],"outputs":[{"name":"","type":"address","internalType":"address"}],"stateMutability":"view"},{"type":"function","name":"communityFee","inputs":[],"outputs":[{"name":"","type":"uint256","internalType":"uint256"}],"stateMutability":"view"},{"type":"function","name":"communityName","inputs":[],"outputs":[{"name":"","type":"string","internalType":"string"}],"stateMutability":"view"},{"type":"function","name":"councilSafe","inputs":[],"outputs":[{"name":"","type":"address","internalType":"contract ISafe"}],"stateMutability":"view"},{"type":"function","name":"covenantIpfsHash","inputs":[],"outputs":[{"name":"","type":"string","internalType":"string"}],"stateMutability":"view"},{"type":"function","name":"createPool","inputs":[{"name":"_token","type":"address","internalType":"address"},{"name":"_params","type":"tuple","internalType":"struct CVStrategyInitializeParamsV0_2","components":[{"name":"cvParams","type":"tuple","internalType":"struct CVParams","components":[{"name":"maxRatio","type":"uint256","internalType":"uint256"},{"name":"weight","type":"uint256","internalType":"uint256"},{"name":"decay","type":"uint256","internalType":"uint256"},{"name":"minThresholdPoints","type":"uint256","internalType":"uint256"}]},{"name":"proposalType","type":"uint8","internalType":"enum ProposalType"},{"name":"pointSystem","type":"uint8","internalType":"enum PointSystem"},{"name":"pointConfig","type":"tuple","internalType":"struct PointSystemConfig","components":[{"name":"maxAmount","type":"uint256","internalType":"uint256"}]},{"name":"arbitrableConfig","type":"tuple","internalType":"struct ArbitrableConfig","components":[{"name":"arbitrator","type":"address","internalType":"contract IArbitrator"},{"name":"tribunalSafe","type":"address","internalType":"address"},{"name":"submitterCollateralAmount","type":"uint256","internalType":"uint256"},{"name":"challengerCollateralAmount","type":"uint256","internalType":"uint256"},{"name":"defaultRuling","type":"uint256","internalType":"uint256"},{"name":"defaultRulingTimeout","type":"uint256","internalType":"uint256"}]},{"name":"registryCommunity","type":"address","internalType":"address"},{"name":"sybilScorer","type":"address","internalType":"address"},{"name":"sybilScorerThreshold","type":"uint256","internalType":"uint256"},{"name":"initialAllowlist","type":"address[]","internalType":"address[]"},{"name":"superfluidToken","type":"address","internalType":"address"}]},{"name":"_metadata","type":"tuple","internalType":"struct Metadata","components":[{"name":"protocol","type":"uint256","internalType":"uint256"},{"name":"pointer","type":"string","internalType":"string"}]}],"outputs":[{"name":"poolId","type":"uint256","internalType":"uint256"},{"name":"strategy","type":"address","internalType":"address"}],"stateMutability":"nonpayable"},{"type":"function","name":"createPool","inputs":[{"name":"_strategy","type":"address","internalType":"address"},{"name":"_token","type":"address","internalType":"address"},{"name":"_params","type":"tuple","internalType":"struct CVStrategyInitializeParamsV0_2","components":[{"name":"cvParams","type":"tuple","internalType":"struct CVParams","components":[{"name":"maxRatio","type":"uint256","internalType":"uint256"},{"name":"weight","type":"uint256","internalType":"uint256"},{"name":"decay","type":"uint256","internalType":"uint256"},{"name":"minThresholdPoints","type":"uint256","internalType":"uint256"}]},{"name":"proposalType","type":"uint8","internalType":"enum ProposalType"},{"name":"pointSystem","type":"uint8","internalType":"enum PointSystem"},{"name":"pointConfig","type":"tuple","internalType":"struct PointSystemConfig","components":[{"name":"maxAmount","type":"uint256","internalType":"uint256"}]},{"name":"arbitrableConfig","type":"tuple","internalType":"struct ArbitrableConfig","components":[{"name":"arbitrator","type":"address","internalType":"contract IArbitrator"},{"name":"tribunalSafe","type":"address","internalType":"address"},{"name":"submitterCollateralAmount","type":"uint256","internalType":"uint256"},{"name":"challengerCollateralAmount","type":"uint256","internalType":"uint256"},{"name":"defaultRuling","type":"uint256","internalType":"uint256"},{"name":"defaultRulingTimeout","type":"uint256","internalType":"uint256"}]},{"name":"registryCommunity","type":"address","internalType":"address"},{"name":"sybilScorer","type":"address","internalType":"address"},{"name":"sybilScorerThreshold","type":"uint256","internalType":"uint256"},{"name":"initialAllowlist","type":"address[]","internalType":"address[]"},{"name":"superfluidToken","type":"address","internalType":"address"}]},{"name":"_metadata","type":"tuple","internalType":"struct Metadata","components":[{"name":"protocol","type":"uint256","internalType":"uint256"},{"name":"pointer","type":"string","internalType":"string"}]}],"outputs":[{"name":"poolId","type":"uint256","internalType":"uint256"},{"name":"strategy","type":"address","internalType":"address"}],"stateMutability":"nonpayable"},{"type":"function","name":"cvVaultTemplate","inputs":[],"outputs":[{"name":"","type":"address","internalType":"address"}],"stateMutability":"view"},{"type":"function","name":"deactivateMemberInStrategy","inputs":[{"name":"","type":"address","internalType":"address"},{"name":"","type":"address","internalType":"address"}],"outputs":[],"stateMutability":"nonpayable"},{"type":"function","name":"decreasePower","inputs":[{"name":"","type":"uint256","internalType":"uint256"}],"outputs":[],"stateMutability":"nonpayable"},{"type":"function","name":"diamondCut","inputs":[{"name":"_diamondCut","type":"tuple[]","internalType":"struct IDiamond.FacetCut[]","components":[{"name":"facetAddress","type":"address","internalType":"address"},{"name":"action","type":"uint8","internalType":"enum IDiamond.FacetCutAction"},{"name":"functionSelectors","type":"bytes4[]","internalType":"bytes4[]"}]},{"name":"_init","type":"address","internalType":"address"},{"name":"_calldata","type":"bytes","internalType":"bytes"}],"outputs":[],"stateMutability":"nonpayable"},{"type":"function","name":"enabledStrategies","inputs":[{"name":"strategy","type":"address","internalType":"address"}],"outputs":[{"name":"isEnabled","type":"bool","internalType":"bool"}],"stateMutability":"view"},{"type":"function","name":"feeReceiver","inputs":[],"outputs":[{"name":"","type":"address","internalType":"address"}],"stateMutability":"view"},{"type":"function","name":"getBasisStakedAmount","inputs":[],"outputs":[{"name":"","type":"uint256","internalType":"uint256"}],"stateMutability":"nonpayable"},{"type":"function","name":"getMemberPowerInStrategy","inputs":[{"name":"","type":"address","internalType":"address"},{"name":"","type":"address","internalType":"address"}],"outputs":[{"name":"","type":"uint256","internalType":"uint256"}],"stateMutability":"nonpayable"},{"type":"function","name":"getMemberStakedAmount","inputs":[{"name":"","type":"address","internalType":"address"}],"outputs":[{"name":"","type":"uint256","internalType":"uint256"}],"stateMutability":"nonpayable"},{"type":"function","name":"getRoleAdmin","inputs":[{"name":"role","type":"bytes32","internalType":"bytes32"}],"outputs":[{"name":"","type":"bytes32","internalType":"bytes32"}],"stateMutability":"view"},{"type":"function","name":"getStakeAmountWithFees","inputs":[],"outputs":[{"name":"","type":"uint256","internalType":"uint256"}],"stateMutability":"nonpayable"},{"type":"function","name":"governanceToken","inputs":[],"outputs":[{"name":"","type":"address","internalType":"contract IERC20"}],"stateMutability":"view"},{"type":"function","name":"grantRole","inputs":[{"name":"role","type":"bytes32","internalType":"bytes32"},{"name":"account","type":"address","internalType":"address"}],"outputs":[],"stateMutability":"nonpayable"},{"type":"function","name":"hasRole","inputs":[{"name":"role","type":"bytes32","internalType":"bytes32"},{"name":"account","type":"address","internalType":"address"}],"outputs":[{"name":"","type":"bool","internalType":"bool"}],"stateMutability":"view"},{"type":"function","name":"increasePower","inputs":[{"name":"","type":"uint256","internalType":"uint256"}],"outputs":[],"stateMutability":"nonpayable"},{"type":"function","name":"initialize","inputs":[{"name":"initialOwner","type":"address","internalType":"address"}],"outputs":[],"stateMutability":"nonpayable"},{"type":"function","name":"initialize","inputs":[{"name":"params","type":"tuple","internalType":"struct RegistryCommunityInitializeParams","components":[{"name":"_allo","type":"address","internalType":"address"},{"name":"_gardenToken","type":"address","internalType":"contract IERC20"},{"name":"_registerStakeAmount","type":"uint256","internalType":"uint256"},{"name":"_communityFee","type":"uint256","internalType":"uint256"},{"name":"_nonce","type":"uint256","internalType":"uint256"},{"name":"_registryFactory","type":"address","internalType":"address"},{"name":"_feeReceiver","type":"address","internalType":"address"},{"name":"_metadata","type":"tuple","internalType":"struct Metadata","components":[{"name":"protocol","type":"uint256","internalType":"uint256"},{"name":"pointer","type":"string","internalType":"string"}]},{"name":"_councilSafe","type":"address","internalType":"address payable"},{"name":"_communityName","type":"string","internalType":"string"},{"name":"_isKickEnabled","type":"bool","internalType":"bool"},{"name":"covenantIpfsHash","type":"string","internalType":"string"}]},{"name":"_strategyTemplate","type":"address","internalType":"address"},{"name":"_collateralVaultTemplate","type":"address","internalType":"address"},{"name":"_cvVaultTemplate","type":"address","internalType":"address"},{"name":"_owner","type":"address","internalType":"address"}],"outputs":[],"stateMutability":"nonpayable"},{"type":"function","name":"isCouncilMember","inputs":[{"name":"","type":"address","internalType":"address"}],"outputs":[{"name":"","type":"bool","internalType":"bool"}],"stateMutability":"nonpayable"},{"type":"function","name":"isKickEnabled","inputs":[],"outputs":[{"name":"","type":"bool","internalType":"bool"}],"stateMutability":"view"},{"type":"function","name":"isMember","inputs":[{"name":"","type":"address","internalType":"address"}],"outputs":[{"name":"","type":"bool","internalType":"bool"}],"stateMutability":"nonpayable"},{"type":"function","name":"kickMember","inputs":[{"name":"","type":"address","internalType":"address"},{"name":"","type":"address","internalType":"address"}],"outputs":[],"stateMutability":"nonpayable"},{"type":"function","name":"memberActivatedInStrategies","inputs":[{"name":"member","type":"address","internalType":"address"},{"name":"strategy","type":"address","internalType":"address"}],"outputs":[{"name":"isActivated","type":"bool","internalType":"bool"}],"stateMutability":"view"},{"type":"function","name":"memberPowerInStrategy","inputs":[{"name":"strategy","type":"address","internalType":"address"},{"name":"member","type":"address","internalType":"address"}],"outputs":[{"name":"power","type":"uint256","internalType":"uint256"}],"stateMutability":"view"},{"type":"function","name":"onlyStrategyEnabled","inputs":[{"name":"_strategy","type":"address","internalType":"address"}],"outputs":[],"stateMutability":"view"},{"type":"function","name":"owner","inputs":[],"outputs":[{"name":"","type":"address","internalType":"address"}],"stateMutability":"view"},{"type":"function","name":"pendingCouncilSafe","inputs":[],"outputs":[{"name":"","type":"address","internalType":"address payable"}],"stateMutability":"view"},{"type":"function","name":"profileId","inputs":[],"outputs":[{"name":"","type":"bytes32","internalType":"bytes32"}],"stateMutability":"view"},{"type":"function","name":"proxiableUUID","inputs":[],"outputs":[{"name":"","type":"bytes32","internalType":"bytes32"}],"stateMutability":"view"},{"type":"function","name":"proxyOwner","inputs":[],"outputs":[{"name":"","type":"address","internalType":"address"}],"stateMutability":"view"},{"type":"function","name":"registerStakeAmount","inputs":[],"outputs":[{"name":"","type":"uint256","internalType":"uint256"}],"stateMutability":"view"},{"type":"function","name":"registry","inputs":[],"outputs":[{"name":"","type":"address","internalType":"contract IRegistry"}],"stateMutability":"view"},{"type":"function","name":"registryFactory","inputs":[],"outputs":[{"name":"","type":"address","internalType":"address"}],"stateMutability":"view"},{"type":"function","name":"rejectPool","inputs":[{"name":"","type":"address","internalType":"address"}],"outputs":[],"stateMutability":"nonpayable"},{"type":"function","name":"removeStrategy","inputs":[{"name":"","type":"address","internalType":"address"}],"outputs":[],"stateMutability":"nonpayable"},{"type":"function","name":"removeStrategyByPoolId","inputs":[{"name":"","type":"uint256","internalType":"uint256"}],"outputs":[],"stateMutability":"nonpayable"},{"type":"function","name":"renounceOwnership","inputs":[],"outputs":[],"stateMutability":"nonpayable"},{"type":"function","name":"renounceRole","inputs":[{"name":"role","type":"bytes32","internalType":"bytes32"},{"name":"account","type":"address","internalType":"address"}],"outputs":[],"stateMutability":"nonpayable"},{"type":"function","name":"revokeRole","inputs":[{"name":"role","type":"bytes32","internalType":"bytes32"},{"name":"account","type":"address","internalType":"address"}],"outputs":[],"stateMutability":"nonpayable"},{"type":"function","name":"setArchived","inputs":[{"name":"","type":"bool","internalType":"bool"}],"outputs":[],"stateMutability":"nonpayable"},{"type":"function","name":"setBasisStakedAmount","inputs":[{"name":"","type":"uint256","internalType":"uint256"}],"outputs":[],"stateMutability":"nonpayable"},{"type":"function","name":"setCVVaultTemplate","inputs":[{"name":"template","type":"address","internalType":"address"}],"outputs":[],"stateMutability":"nonpayable"},{"type":"function","name":"setCollateralVaultTemplate","inputs":[{"name":"template","type":"address","internalType":"address"}],"outputs":[],"stateMutability":"nonpayable"},{"type":"function","name":"setCommunityFee","inputs":[{"name":"","type":"uint256","internalType":"uint256"}],"outputs":[],"stateMutability":"nonpayable"},{"type":"function","name":"setCommunityParams","inputs":[{"name":"","type":"tuple","internalType":"struct CommunityParams","components":[{"name":"councilSafe","type":"address","internalType":"address"},{"name":"feeReceiver","type":"address","internalType":"address"},{"name":"communityFee","type":"uint256","internalType":"uint256"},{"name":"communityName","type":"string","internalType":"string"},{"name":"registerStakeAmount","type":"uint256","internalType":"uint256"},{"name":"isKickEnabled","type":"bool","internalType":"bool"},{"name":"covenantIpfsHash","type":"string","internalType":"string"}]}],"outputs":[],"stateMutability":"nonpayable"},{"type":"function","name":"setCouncilSafe","inputs":[{"name":"","type":"address","internalType":"address payable"}],"outputs":[],"stateMutability":"nonpayable"},{"type":"function","name":"setStrategyTemplate","inputs":[{"name":"template","type":"address","internalType":"address"}],"outputs":[],"stateMutability":"nonpayable"},{"type":"function","name":"stakeAndRegisterMember","inputs":[{"name":"","type":"string","internalType":"string"}],"outputs":[],"stateMutability":"nonpayable"},{"type":"function","name":"strategiesByMember","inputs":[{"name":"member","type":"address","internalType":"address"},{"name":"","type":"uint256","internalType":"uint256"}],"outputs":[{"name":"strategiesAddresses","type":"address","internalType":"address"}],"stateMutability":"view"},{"type":"function","name":"strategyTemplate","inputs":[],"outputs":[{"name":"","type":"address","internalType":"address"}],"stateMutability":"view"},{"type":"function","name":"supportsInterface","inputs":[{"name":"interfaceId","type":"bytes4","internalType":"bytes4"}],"outputs":[{"name":"","type":"bool","internalType":"bool"}],"stateMutability":"view"},{"type":"function","name":"totalMembers","inputs":[],"outputs":[{"name":"","type":"uint256","internalType":"uint256"}],"stateMutability":"view"},{"type":"function","name":"transferOwnership","inputs":[{"name":"newOwner","type":"address","internalType":"address"}],"outputs":[],"stateMutability":"nonpayable"},{"type":"function","name":"unregisterMember","inputs":[],"outputs":[],"stateMutability":"nonpayable"},{"type":"function","name":"upgradeTo","inputs":[{"name":"newImplementation","type":"address","internalType":"address"}],"outputs":[],"stateMutability":"nonpayable"},{"type":"function","name":"upgradeToAndCall","inputs":[{"name":"newImplementation","type":"address","internalType":"address"},{"name":"data","type":"bytes","internalType":"bytes"}],"outputs":[],"stateMutability":"payable"},{"type":"event","name":"AdminChanged","inputs":[{"name":"previousAdmin","type":"address","indexed":false,"internalType":"address"},{"name":"newAdmin","type":"address","indexed":false,"internalType":"address"}],"anonymous":false},{"type":"event","name":"BasisStakedAmountUpdated","inputs":[{"name":"_newAmount","type":"uint256","indexed":false,"internalType":"uint256"}],"anonymous":false},{"type":"event","name":"BeaconUpgraded","inputs":[{"name":"beacon","type":"address","indexed":true,"internalType":"address"}],"anonymous":false},{"type":"event","name":"CommunityArchived","inputs":[{"name":"_archived","type":"bool","indexed":false,"internalType":"bool"}],"anonymous":false},{"type":"event","name":"CommunityFeeUpdated","inputs":[{"name":"_newFee","type":"uint256","indexed":false,"internalType":"uint256"}],"anonymous":false},{"type":"event","name":"CommunityNameUpdated","inputs":[{"name":"_communityName","type":"string","indexed":false,"internalType":"string"}],"anonymous":false},{"type":"event","name":"CouncilSafeChangeStarted","inputs":[{"name":"_safeOwner","type":"address","indexed":false,"internalType":"address"},{"name":"_newSafeOwner","type":"address","indexed":false,"internalType":"address"}],"anonymous":false},{"type":"event","name":"CouncilSafeUpdated","inputs":[{"name":"_safe","type":"address","indexed":false,"internalType":"address"}],"anonymous":false},{"type":"event","name":"CovenantIpfsHashUpdated","inputs":[{"name":"_covenantIpfsHash","type":"string","indexed":false,"internalType":"string"}],"anonymous":false},{"type":"event","name":"FeeReceiverChanged","inputs":[{"name":"_feeReceiver","type":"address","indexed":false,"internalType":"address"}],"anonymous":false},{"type":"event","name":"Initialized","inputs":[{"name":"version","type":"uint8","indexed":false,"internalType":"uint8"}],"anonymous":false},{"type":"event","name":"KickEnabledUpdated","inputs":[{"name":"_isKickEnabled","type":"bool","indexed":false,"internalType":"bool"}],"anonymous":false},{"type":"event","name":"MemberActivatedStrategy","inputs":[{"name":"_member","type":"address","indexed":false,"internalType":"address"},{"name":"_strategy","type":"address","indexed":false,"internalType":"address"},{"name":"_pointsToIncrease","type":"uint256","indexed":false,"internalType":"uint256"}],"anonymous":false},{"type":"event","name":"MemberDeactivatedStrategy","inputs":[{"name":"_member","type":"address","indexed":false,"internalType":"address"},{"name":"_strategy","type":"address","indexed":false,"internalType":"address"}],"anonymous":false},{"type":"event","name":"MemberKicked","inputs":[{"name":"_member","type":"address","indexed":false,"internalType":"address"},{"name":"_transferAddress","type":"address","indexed":false,"internalType":"address"},{"name":"_amountReturned","type":"uint256","indexed":false,"internalType":"uint256"}],"anonymous":false},{"type":"event","name":"MemberPowerDecreased","inputs":[{"name":"_member","type":"address","indexed":false,"internalType":"address"},{"name":"_unstakedAmount","type":"uint256","indexed":false,"internalType":"uint256"}],"anonymous":false},{"type":"event","name":"MemberPowerIncreased","inputs":[{"name":"_member","type":"address","indexed":false,"internalType":"address"},{"name":"_stakedAmount","type":"uint256","indexed":false,"internalType":"uint256"}],"anonymous":false},{"type":"event","name":"MemberRegistered","inputs":[{"name":"_member","type":"address","indexed":false,"internalType":"address"},{"name":"_amountStaked","type":"uint256","indexed":false,"internalType":"uint256"}],"anonymous":false},{"type":"event","name":"MemberRegisteredWithCovenant","inputs":[{"name":"_member","type":"address","indexed":false,"internalType":"address"},{"name":"_amountStaked","type":"uint256","indexed":false,"internalType":"uint256"},{"name":"_covenantSig","type":"string","indexed":false,"internalType":"string"}],"anonymous":false},{"type":"event","name":"MemberUnregistered","inputs":[{"name":"_member","type":"address","indexed":false,"internalType":"address"},{"name":"_amountReturned","type":"uint256","indexed":false,"internalType":"uint256"}],"anonymous":false},{"type":"event","name":"OwnershipTransferred","inputs":[{"name":"previousOwner","type":"address","indexed":true,"internalType":"address"},{"name":"newOwner","type":"address","indexed":true,"internalType":"address"}],"anonymous":false},{"type":"event","name":"PoolCreated","inputs":[{"name":"_poolId","type":"uint256","indexed":false,"internalType":"uint256"},{"name":"_strategy","type":"address","indexed":false,"internalType":"address"},{"name":"_community","type":"address","indexed":false,"internalType":"address"},{"name":"_token","type":"address","indexed":false,"internalType":"address"},{"name":"_metadata","type":"tuple","indexed":false,"internalType":"struct Metadata","components":[{"name":"protocol","type":"uint256","internalType":"uint256"},{"name":"pointer","type":"string","internalType":"string"}]}],"anonymous":false},{"type":"event","name":"PoolRejected","inputs":[{"name":"_strategy","type":"address","indexed":false,"internalType":"address"}],"anonymous":false},{"type":"event","name":"RegistryInitialized","inputs":[{"name":"_profileId","type":"bytes32","indexed":false,"internalType":"bytes32"},{"name":"_communityName","type":"string","indexed":false,"internalType":"string"},{"name":"_metadata","type":"tuple","indexed":false,"internalType":"struct Metadata","components":[{"name":"protocol","type":"uint256","internalType":"uint256"},{"name":"pointer","type":"string","internalType":"string"}]}],"anonymous":false},{"type":"event","name":"RoleAdminChanged","inputs":[{"name":"role","type":"bytes32","indexed":true,"internalType":"bytes32"},{"name":"previousAdminRole","type":"bytes32","indexed":true,"internalType":"bytes32"},{"name":"newAdminRole","type":"bytes32","indexed":true,"internalType":"bytes32"}],"anonymous":false},{"type":"event","name":"RoleGranted","inputs":[{"name":"role","type":"bytes32","indexed":true,"internalType":"bytes32"},{"name":"account","type":"address","indexed":true,"internalType":"address"},{"name":"sender","type":"address","indexed":true,"internalType":"address"}],"anonymous":false},{"type":"event","name":"RoleRevoked","inputs":[{"name":"role","type":"bytes32","indexed":true,"internalType":"bytes32"},{"name":"account","type":"address","indexed":true,"internalType":"address"},{"name":"sender","type":"address","indexed":true,"internalType":"address"}],"anonymous":false},{"type":"event","name":"StrategyAdded","inputs":[{"name":"_strategy","type":"address","indexed":false,"internalType":"address"}],"anonymous":false},{"type":"event","name":"StrategyRemoved","inputs":[{"name":"_strategy","type":"address","indexed":false,"internalType":"address"}],"anonymous":false},{"type":"event","name":"Upgraded","inputs":[{"name":"implementation","type":"address","indexed":true,"internalType":"address"}],"anonymous":false},{"type":"error","name":"AllowlistTooBig","inputs":[{"name":"size","type":"uint256","internalType":"uint256"}]},{"type":"error","name":"CallerNotOwner","inputs":[{"name":"_caller","type":"address","internalType":"address"},{"name":"_owner","type":"address","internalType":"address"}]},{"type":"error","name":"CannotAddFunctionToDiamondThatAlreadyExists","inputs":[{"name":"_selector","type":"bytes4","internalType":"bytes4"}]},{"type":"error","name":"CannotAddSelectorsToZeroAddress","inputs":[{"name":"_selectors","type":"bytes4[]","internalType":"bytes4[]"}]},{"type":"error","name":"CannotRemoveFunctionThatDoesNotExist","inputs":[{"name":"_selector","type":"bytes4","internalType":"bytes4"}]},{"type":"error","name":"CannotRemoveImmutableFunction","inputs":[{"name":"_selector","type":"bytes4","internalType":"bytes4"}]},{"type":"error","name":"CannotReplaceFunctionThatDoesNotExists","inputs":[{"name":"_selector","type":"bytes4","internalType":"bytes4"}]},{"type":"error","name":"CannotReplaceFunctionWithTheSameFunctionFromTheSameFacet","inputs":[{"name":"_selector","type":"bytes4","internalType":"bytes4"}]},{"type":"error","name":"CannotReplaceFunctionsFromFacetWithZeroAddress","inputs":[{"name":"_selectors","type":"bytes4[]","internalType":"bytes4[]"}]},{"type":"error","name":"CannotReplaceImmutableFunction","inputs":[{"name":"_selector","type":"bytes4","internalType":"bytes4"}]},{"type":"error","name":"CantDecreaseMoreThanPower","inputs":[{"name":"_decreaseAmount","type":"uint256","internalType":"uint256"},{"name":"_currentPower","type":"uint256","internalType":"uint256"}]},{"type":"error","name":"DecreaseUnderMinimum","inputs":[]},{"type":"error","name":"IncorrectFacetCutAction","inputs":[{"name":"_action","type":"uint8","internalType":"uint8"}]},{"type":"error","name":"InitializationFunctionReverted","inputs":[{"name":"_initializationContractAddress","type":"address","internalType":"address"},{"name":"_calldata","type":"bytes","internalType":"bytes"}]},{"type":"error","name":"KickNotEnabled","inputs":[]},{"type":"error","name":"NewFeeGreaterThanMax","inputs":[]},{"type":"error","name":"NoBytecodeAtAddress","inputs":[{"name":"_contractAddress","type":"address","internalType":"address"},{"name":"_message","type":"string","internalType":"string"}]},{"type":"error","name":"NoSelectorsProvidedForFacetForCut","inputs":[{"name":"_facetAddress","type":"address","internalType":"address"}]},{"type":"error","name":"OnlyEmptyCommunity","inputs":[{"name":"totalMembers","type":"uint256","internalType":"uint256"}]},{"type":"error","name":"PointsDeactivated","inputs":[]},{"type":"error","name":"RemoveFacetAddressMustBeZeroAddress","inputs":[{"name":"_facetAddress","type":"address","internalType":"address"}]},{"type":"error","name":"SenderNotNewOwner","inputs":[]},{"type":"error","name":"SenderNotStrategy","inputs":[]},{"type":"error","name":"StrategyDisabled","inputs":[]},{"type":"error","name":"StrategyExists","inputs":[]},{"type":"error","name":"UserAlreadyActivated","inputs":[]},{"type":"error","name":"UserNotInCouncil","inputs":[{"name":"_user","type":"address","internalType":"address"}]},{"type":"error","name":"UserNotInRegistry","inputs":[]},{"type":"error","name":"ValueCannotBeZero","inputs":[]}],"bytecode":{"object":"0x60a06040523060805234801561001457600080fd5b50608051613f3761004c60003960008181610dd601528181610e1601528181610ee801528181610f280152610fa00152613f376000f3fe60806040526004361061034c5760003560e01c806301ffc9a7146103da578063025313a21461040f5780630331383c1461043157806308386eba146104545780630b03bb9a1461046a5780630d12bbdb1461048a5780630d4a8b49146104a5578063175188e8146104c55780631b71f0e4146104e05780631f787d28146105005780631f931c1c14610519578063223e5479146104c557806322bcf999146104a5578063248a9ca31461053957806328c309e9146104315780632b38c69c146105595780632c611c4a146105795780632f2ff15d1461059957806331f61bca1461048a57806333960459146105b957806336568abe146105cf5780633659cfe6146105ef578063397e2543146104c55780633a871fe11461060f578063411481e614610640578063477a5cc014610660578063499ac57f1461069c5780634f1ef286146106d957806352d1902d146106ec578063559de05d1461048a5780635c94e4d2146107015780635e808daa146107225780635ecf71c51461048a57806365e3864c146107435780636871eb4d146104a557806368decabb1461077c5780636c53db9a1461079d578063715018a6146107be57806373265c371461048a578063733a2d1f146107d357806376e92559146107f557806377122d561461080c5780637817ee4f1461082d57806378a0b8a91461084d5780637b1039991461086357806382d6a1e71461048a57806388cfe684146108845780638961be6b146108f55780638da5cb5b1461090b57806391d14854146109205780639a1f46e214610940578063a0cf0aea1461095b578063a217fddf14610983578063a230c52414610998578063b0d3713a146109b3578063b3f00674146109d3578063b5058c50146109f8578063b64e39af14610a0d578063b99b4370146109f8578063bc063e1a14610a2f578063c4d66de814610a44578063c5325d9214610a64578063c6d572ae14610a84578063cd564dae14610a99578063d547741f14610ab9578063d6d8428d14610ad9578063d7050f0714610afa578063eb9c578d14610b10578063ebd7dc5214610998578063f2d774e714610b30578063f2fde38b14610b4b578063f86c5f8914610b6b578063f96dae0a14610b8c578063fb1f6917146104c5578063ffa1ad7414610bad575b34801561035857600080fd5b50600080356001600160e01b0319168152600080516020613e30833981519152602081905260409091205481906001600160a01b0316806103b45760405162461bcd60e51b81526004016103ab90612aa9565b60405180910390fd5b3660008037600080366000845af43d6000803e8080156103d3573d6000f35b3d6000fd5b005b3480156103e657600080fd5b506103fa6103f5366004612b0b565b610bdc565b60405190151581526020015b60405180910390f35b34801561041b57600080fd5b50610424610c13565b6040516104069190612b26565b34801561043d57600080fd5b50610446610c2c565b604051908152602001610406565b34801561046057600080fd5b5061044660fe5481565b34801561047657600080fd5b506103d8610485366004612b4a565b610c39565b34801561049657600080fd5b506103d8610485366004612b65565b3480156104b157600080fd5b506103d86104c0366004612b9e565b610c44565b3480156104d157600080fd5b506103d8610485366004612bd7565b3480156104ec57600080fd5b506103d86104fb366004612bd7565b610c50565b34801561050c57600080fd5b5060ff80546103fa911681565b34801561052557600080fd5b506103d8610534366004612c3c565b610c7b565b34801561054557600080fd5b50610446610554366004612b65565b610cd4565b34801561056557600080fd5b50610424610574366004612ced565b610ce9565b34801561058557600080fd5b50610446610594366004612bd7565b610d22565b3480156105a557600080fd5b506103d86105b4366004612d19565b610d31565b3480156105c557600080fd5b5061044660fd5481565b3480156105db57600080fd5b506103d86105ea366004612d19565b610d52565b3480156105fb57600080fd5b506103d861060a366004612bd7565b610dcc565b34801561061b57600080fd5b506103fa61062a366004612bd7565b61010b6020526000908152604090205460ff1681565b34801561064c57600080fd5b506103d861065b366004612bd7565b610e91565b34801561066c57600080fd5b506103fa61067b366004612b9e565b61010f60209081526000928352604080842090915290825290205460ff1681565b3480156106a857600080fd5b506106bc6106b73660046131b4565b610ecb565b604080519283526001600160a01b03909116602083015201610406565b6103d86106e7366004613229565b610ede565b3480156106f857600080fd5b50610446610f93565b34801561070d57600080fd5b5061010354610424906001600160a01b031681565b34801561072e57600080fd5b5061010254610424906001600160a01b031681565b34801561074f57600080fd5b5061044661075e366004612b9e565b61010c60209081526000928352604080842090915290825290205481565b34801561078857600080fd5b5061010454610424906001600160a01b031681565b3480156107a957600080fd5b5061010754610424906001600160a01b031681565b3480156107ca57600080fd5b506103d8611041565b3480156107df57600080fd5b50610446600080516020613e1083398151915281565b34801561080157600080fd5b506104466101115481565b34801561081857600080fd5b5061010154610424906001600160a01b031681565b34801561083957600080fd5b50610446610848366004612b9e565b611055565b34801561085957600080fd5b5061044660fb5481565b34801561086f57600080fd5b5061010554610424906001600160a01b031681565b34801561089057600080fd5b506108ce61089f366004612bd7565b61010d602052600090815260409020805460018201546002909201546001600160a01b03909116919060ff1683565b604080516001600160a01b0390941684526020840192909252151590820152606001610406565b34801561090157600080fd5b5061044660fc5481565b34801561091757600080fd5b5061042461105f565b34801561092c57600080fd5b506103fa61093b366004612d19565b6110ef565b34801561094c57600080fd5b506103d861048536600461328c565b34801561096757600080fd5b5061042473eeeeeeeeeeeeeeeeeeeeeeeeeeeeeeeeeeeeeeee81565b34801561098f57600080fd5b50610446600081565b3480156109a457600080fd5b506103fa610594366004612bd7565b3480156109bf57600080fd5b506103d86109ce366004612bd7565b61111a565b3480156109df57600080fd5b5060ff546104249061010090046001600160a01b031681565b348015610a0457600080fd5b506103d8611145565b348015610a1957600080fd5b50610a2261114d565b6040516104069190613310565b348015610a3b57600080fd5b506104466111dc565b348015610a5057600080fd5b506103d8610a5f366004612bd7565b6111ec565b348015610a7057600080fd5b506103d8610a7f366004612bd7565b61121c565b348015610a9057600080fd5b50610a22611247565b348015610aa557600080fd5b506106bc610ab4366004613323565b611255565b348015610ac557600080fd5b506103d8610ad4366004612d19565b611269565b348015610ae557600080fd5b5061010854610424906001600160a01b031681565b348015610b0657600080fd5b5061044661271081565b348015610b1c57600080fd5b506103d8610b2b3660046133ab565b611285565b348015610b3c57600080fd5b506103d861048536600461352f565b348015610b5757600080fd5b506103d8610b66366004612bd7565b6118b9565b348015610b7757600080fd5b5061010054610424906001600160a01b031681565b348015610b9857600080fd5b5061010654610424906001600160a01b031681565b348015610bb957600080fd5b50610a22604051806040016040528060038152602001620302e360ec1b81525081565b60006001600160e01b03198216637965db0b60e01b1480610c0d57506301ffc9a760e01b6001600160e01b03198316145b92915050565b6000610c276033546001600160a01b031690565b905090565b6000610c36611926565b90565b610c41611926565b50565b610c4c611926565b5050565b610c58611978565b61010380546001600160a01b0319166001600160a01b0392909216919091179055565b610c83611978565b610ccd610c908587613606565b8484848080601f0160208091040260200160405190810160405280939291908181526020018383808284376000920191909152506119d792505050565b5050505050565b600090815260c9602052604090206001015490565b61010e6020528160005260406000208181548110610d0657600080fd5b6000918252602090912001546001600160a01b03169150829050565b6000610d2c611926565b919050565b610d3a82610cd4565b610d4381611b79565b610d4d8383611b83565b505050565b6001600160a01b0381163314610dc25760405162461bcd60e51b815260206004820152602f60248201527f416363657373436f6e74726f6c3a2063616e206f6e6c792072656e6f756e636560448201526e103937b632b9903337b91039b2b63360891b60648201526084016103ab565b610c4c8282611c09565b6001600160a01b037f0000000000000000000000000000000000000000000000000000000000000000163003610e145760405162461bcd60e51b81526004016103ab90613736565b7f00000000000000000000000000000000000000000000000000000000000000006001600160a01b0316610e46611c70565b6001600160a01b031614610e6c5760405162461bcd60e51b81526004016103ab90613770565b610e7581611c8c565b60408051600080825260208201909252610c4191839190611cd8565b6001600160a01b038116600090815261010b602052604090205460ff16610c41576040516346c26e4b60e01b815260040160405180910390fd5b600080610ed6611926565b935093915050565b6001600160a01b037f0000000000000000000000000000000000000000000000000000000000000000163003610f265760405162461bcd60e51b81526004016103ab90613736565b7f00000000000000000000000000000000000000000000000000000000000000006001600160a01b0316610f58611c70565b6001600160a01b031614610f7e5760405162461bcd60e51b81526004016103ab90613770565b610f8782611c8c565b610c4c82826001611cd8565b6000306001600160a01b037f0000000000000000000000000000000000000000000000000000000000000000161461102e5760405162461bcd60e51b815260206004820152603860248201527f555550535570677261646561626c653a206d757374206e6f742062652063616c6044820152771b1959081d1a1c9bdd59da0819195b1959d85d1958d85b1b60421b60648201526084016103ab565b50600080516020613ebc83398151915290565b611049611978565b6110536000611e43565b565b6000610c0d611926565b6000611069610c13565b6001600160a01b03163b60000361108257610c27610c13565b61108a610c13565b6001600160a01b0316638da5cb5b6040518163ffffffff1660e01b8152600401602060405180830381865afa9250505080156110e3575060408051601f3d908101601f191682019092526110e0918101906137aa565b60015b610d2c57610c27610c13565b600091825260c9602090815260408084206001600160a01b0393909316845291905290205460ff1690565b611122611978565b61010180546001600160a01b0319166001600160a01b0392909216919091179055565b611053611926565b61010a805461115b906137c7565b80601f0160208091040260200160405190810160405280929190818152602001828054611187906137c7565b80156111d45780601f106111a9576101008083540402835291602001916111d4565b820191906000526020600020905b8154815290600101906020018083116111b757829003601f168201915b505050505081565b6111e9612710600a613817565b81565b600054610100900460ff166112135760405162461bcd60e51b81526004016103ab9061382e565b610c4181611e43565b611224611978565b61010280546001600160a01b0319166001600160a01b0392909216919091179055565b610109805461115b906137c7565b600080611260611926565b94509492505050565b61127282610cd4565b61127b81611b79565b610d4d8383611c09565b600054610100900460ff16158080156112a55750600054600160ff909116105b806112c657506112b430611e95565b1580156112c6575060005460ff166001145b6113295760405162461bcd60e51b815260206004820152602e60248201527f496e697469616c697a61626c653a20636f6e747261637420697320616c72656160448201526d191e481a5b9a5d1a585b1a5e995960921b60648201526084016103ab565b6000805460ff19166001179055801561134c576000805461ff0019166101001790555b611355826111ec565b61135d611ea4565b611365611ed3565b61137e600080516020613e108339815191526000611efa565b855161010880546001600160a01b039283166001600160a01b0319918216179091556020880151610106805491909316911617905560408601516000036113d8576040516363868c5560e11b815260040160405180910390fd5b604086015160fb55606086015160fc5561014086015160ff805460ff19169115159190911790556101208601516101099061141390826138bf565b5061016086015161010a9061142890826138bf565b5060a086015161010080546001600160a01b03199081166001600160a01b0393841617825560c089015160ff8054610100600160a81b03191691851684029190911790559088015161010780549092169281169290921790556000610111556114a090600080516020613e1083398151915290611b83565b61010860009054906101000a90046001600160a01b03166001600160a01b0316635ab1bd536040518163ffffffff1660e01b8152600401602060405180830381865afa1580156114f4573d6000803e3d6000fd5b505050506040513d601f19601f8201168201806040525081019061151891906137aa565b61010580546001600160a01b0319166001600160a01b0392831617905561010754606091163b60000361159f57604080516003808252608082019092529060208201606080368337019050509050338160008151811061157a5761157a61397e565b60200260200101906001600160a01b031690816001600160a01b0316815250506116c9565b610107546040805163a0e67e2b60e01b815290516000926001600160a01b03169163a0e67e2b91600480830192869291908290030181865afa1580156115e9573d6000803e3d6000fd5b505050506040513d6000823e601f3d908101601f191682016040526116119190810190613994565b9050805160026116219190613a2d565b6001600160401b0381111561163857611638612d3e565b604051908082528060200260200182016040528015611661578160200160208202803683370190505b50915060005b81518110156116c6578181815181106116825761168261397e565b602002602001015183828151811061169c5761169c61397e565b6001600160a01b0390921660209283029190910190910152806116be81613a40565b915050611667565b50505b6101075481516001600160a01b039091169082906116e990600190613a59565b815181106116f9576116f961397e565b60200260200101906001600160a01b031690816001600160a01b0316815250503081600283516117299190613a59565b815181106117395761173961397e565b6001600160a01b03928316602091820292909201015261010554608089015160e08a0151604051633a92f65f60e01b81529290931692633a92f65f9261178a92916101099130908890600401613b08565b6020604051808303816000875af11580156117a9573d6000803e3d6000fd5b505050506040513d601f19601f820116820180604052508101906117cd9190613b8d565b60fe5580516117e490610110906020840190612a2f565b5061010380546001600160a01b038089166001600160a01b031992831617909255610101805488841690831617905561010280549287169290911691909117905560fe5460e08801516040517f2f2ffcb06f8a1d35e2716f6b43ef2c19bfa76467d8f66964ae12c2583ed03205926118629290916101099190613ba6565b60405180910390a15080156118b1576000805461ff0019169055604051600181527f7f26b83ff96e1f2b6a682f133852f6798a09c465da95921460cefb38474024989060200160405180910390a15b505050505050565b6118c1611978565b6001600160a01b0381166112135760405162461bcd60e51b815260206004820152602660248201527f4f776e61626c653a206e6577206f776e657220697320746865207a65726f206160448201526564647265737360d01b60648201526084016103ab565b600080356001600160e01b0319168152600080516020613e30833981519152602081905260409091205481906001600160a01b0316806103b45760405162461bcd60e51b81526004016103ab90612aa9565b3361198161105f565b6001600160a01b0316146110535760405162461bcd60e51b815260206004820181905260248201527f4f776e61626c653a2063616c6c6572206973206e6f7420746865206f776e657260448201526064016103ab565b60005b8351811015611b335760008482815181106119f7576119f761397e565b60200260200101516040015190506000858381518110611a1957611a1961397e565b60200260200101516000015190508151600003611a4b578060405163e767f91f60e01b81526004016103ab9190612b26565b6000868481518110611a5f57611a5f61397e565b602002602001015160200151905060006002811115611a8057611a80613bd1565b816002811115611a9257611a92613bd1565b03611aa657611aa18284611f4d565b611b1d565b6001816002811115611aba57611aba613bd1565b03611ac957611aa182846120e4565b6002816002811115611add57611add613bd1565b03611aec57611aa18284612256565b806002811115611afe57611afe613bd1565b604051633ff4d20f60e11b815260ff90911660048201526024016103ab565b5050508080611b2b90613a40565b9150506119da565b507f8faa70878671ccd212d20771b795c50af8fd3ff6cf27f4bde57e5d4de0aeb673838383604051611b6793929190613c2c565b60405180910390a1610d4d82826124b4565b610c41813361257a565b611b8d82826110ef565b610c4c57600082815260c9602090815260408083206001600160a01b03851684529091529020805460ff19166001179055611bc53390565b6001600160a01b0316816001600160a01b0316837f2f8788117e7eff1d82e926ec794901d17c78024a50270940304540a733656f0d60405160405180910390a45050565b611c1382826110ef565b15610c4c57600082815260c9602090815260408083206001600160a01b0385168085529252808320805460ff1916905551339285917ff6391f5c32d9c69d2a47ea670b442974b53935d1edc7fd64eb21e047a839171b9190a45050565b600080516020613ebc833981519152546001600160a01b031690565b33611c9561105f565b6001600160a01b031614610c415733611cac61105f565b60405163163678e960e01b81526001600160a01b039283166004820152911660248201526044016103ab565b7f4910fdfa16fed3260ed0e7147f7cc6da11a60208b5b9406d12a635614ffd91435460ff1615611d0b57610d4d836125d3565b826001600160a01b03166352d1902d6040518163ffffffff1660e01b8152600401602060405180830381865afa925050508015611d65575060408051601f3d908101601f19168201909252611d6291810190613b8d565b60015b611dc85760405162461bcd60e51b815260206004820152602e60248201527f45524331393637557067726164653a206e657720696d706c656d656e7461746960448201526d6f6e206973206e6f74205555505360901b60648201526084016103ab565b600080516020613ebc8339815191528114611e375760405162461bcd60e51b815260206004820152602960248201527f45524331393637557067726164653a20756e737570706f727465642070726f786044820152681a58589b195555525160ba1b60648201526084016103ab565b50610d4d83838361266d565b603380546001600160a01b038381166001600160a01b0319831681179093556040519116919082907f8be0079c531659141344cd1fd0a4f28419497f9722a3daafe3b4186f6b6457e090600090a35050565b6001600160a01b03163b151590565b600054610100900460ff16611ecb5760405162461bcd60e51b81526004016103ab9061382e565b611053612692565b600054610100900460ff166110535760405162461bcd60e51b81526004016103ab9061382e565b6000611f0583610cd4565b600084815260c96020526040808220600101859055519192508391839186917fbd79b86ffe0ab8e8776151514217cd7cacd52c909f66475c3af44e129f0b00ff9190a4505050565b6001600160a01b038216611f7657806040516302b8da0760e21b81526004016103ab9190613cea565b6000611f806126c0565b9050600081600101805490509050611fb084604051806060016040528060248152602001613e50602491396126d2565b60005b8351811015610ccd576000848281518110611fd057611fd061397e565b6020908102919091018101516001600160e01b031981166000908152918690526040909120549091506001600160a01b03168015612023578160405163ebbf5d0760e01b81526004016103ab9190613cfd565b6040805180820182526001600160a01b03808a16825261ffff80881660208085019182526001600160e01b0319881660009081528b8252958620945185549251909316600160a01b026001600160b01b0319909216929093169190911717909155600180880180549182018155835291206008820401805460e085901c60046007909416939093026101000a92830263ffffffff9093021916919091179055836120cc81613d12565b945050505080806120dc90613a40565b915050611fb3565b60006120ee6126c0565b90506001600160a01b038316612119578160405163cd98a96f60e01b81526004016103ab9190613cea565b61213b83604051806060016040528060288152602001613f03602891396126d2565b60005b825181101561225057600083828151811061215b5761215b61397e565b6020908102919091018101516001600160e01b031981166000908152918590526040909120549091506001600160a01b03163081036121af5781604051632901806d60e11b81526004016103ab9190613cfd565b856001600160a01b0316816001600160a01b0316036121e35781604051631ac6ce8d60e11b81526004016103ab9190613cfd565b6001600160a01b03811661220c5781604051637479f93960e01b81526004016103ab9190613cfd565b506001600160e01b031916600090815260208390526040902080546001600160a01b0319166001600160a01b0386161790558061224881613a40565b91505061213e565b50505050565b60006122606126c0565b60018101549091506001600160a01b03841615612292578360405163d091bc8160e01b81526004016103ab9190612b26565b60005b8351811015610ccd5760008482815181106122b2576122b261397e565b6020908102919091018101516001600160e01b0319811660009081528683526040908190208151808301909252546001600160a01b038116808352600160a01b90910461ffff1693820193909352909250906123235781604051637a08a22d60e01b81526004016103ab9190613cfd565b8051306001600160a01b03909116036123515781604051630df5fd6160e31b81526004016103ab9190613cfd565b8361235b81613d33565b94505083816020015161ffff16146124395760008560010185815481106123845761238461397e565b90600052602060002090600891828204019190066004029054906101000a900460e01b90508086600101836020015161ffff16815481106123c7576123c761397e565b600091825260208083206008830401805463ffffffff60079094166004026101000a938402191660e09590951c92909202939093179055838201516001600160e01b03199390931681529087905260409020805461ffff60a01b1916600160a01b61ffff909316929092029190911790555b8460010180548061244c5761244c613d4a565b60008281526020808220600860001990940193840401805463ffffffff600460078716026101000a0219169055919092556001600160e01b0319909316815291859052506040902080546001600160b01b0319169055806124ac81613a40565b915050612295565b6001600160a01b0382166124c6575050565b6124e882604051806060016040528060288152602001613e74602891396126d2565b600080836001600160a01b0316836040516125039190613d60565b600060405180830381855af49150503d806000811461253e576040519150601f19603f3d011682016040523d82523d6000602084013e612543565b606091505b5091509150816122505780511561255d5780518082602001fd5b838360405163192105d760e01b81526004016103ab929190613d7c565b61258482826110ef565b610c4c57612591816126fa565b61259c83602061270c565b6040516020016125ad929190613da0565b60408051601f198184030181529082905262461bcd60e51b82526103ab91600401613310565b6125dc81611e95565b61263e5760405162461bcd60e51b815260206004820152602d60248201527f455243313936373a206e657720696d706c656d656e746174696f6e206973206e60448201526c1bdd08184818dbdb9d1c9858dd609a1b60648201526084016103ab565b600080516020613ebc83398151915280546001600160a01b0319166001600160a01b0392909216919091179055565b612676836128ae565b6000825111806126835750805b15610d4d5761225083836128ee565b600054610100900460ff166126b95760405162461bcd60e51b81526004016103ab9061382e565b6001606555565b600080516020613e3083398151915290565b813b6000819003610d4d57828260405163919834b960e01b81526004016103ab929190613d7c565b6060610c0d6001600160a01b03831660145b6060600061271b836002613817565b612726906002613a2d565b6001600160401b0381111561273d5761273d612d3e565b6040519080825280601f01601f191660200182016040528015612767576020820181803683370190505b509050600360fc1b816000815181106127825761278261397e565b60200101906001600160f81b031916908160001a905350600f60fb1b816001815181106127b1576127b161397e565b60200101906001600160f81b031916908160001a90535060006127d5846002613817565b6127e0906001613a2d565b90505b6001811115612858576f181899199a1a9b1b9c1cb0b131b232b360811b85600f16601081106128145761281461397e565b1a60f81b82828151811061282a5761282a61397e565b60200101906001600160f81b031916908160001a90535060049490941c9361285181613d33565b90506127e3565b5083156128a75760405162461bcd60e51b815260206004820181905260248201527f537472696e67733a20686578206c656e67746820696e73756666696369656e7460448201526064016103ab565b9392505050565b6128b7816125d3565b6040516001600160a01b038216907fbc7cd75a20ee27fd9adebab32041f755214dbc6bffa90cc0225b39da2e5c2d3b90600090a250565b60606128a78383604051806060016040528060278152602001613edc602791396060600080856001600160a01b03168560405161292b9190613d60565b600060405180830381855af49150503d8060008114612966576040519150601f19603f3d011682016040523d82523d6000602084013e61296b565b606091505b509150915061297c86838387612986565b9695505050505050565b606083156129f35782516000036129ec576129a085611e95565b6129ec5760405162461bcd60e51b815260206004820152601d60248201527f416464726573733a2063616c6c20746f206e6f6e2d636f6e747261637400000060448201526064016103ab565b50816129fd565b6129fd8383612a05565b949350505050565b815115612a155781518083602001fd5b8060405162461bcd60e51b81526004016103ab9190613310565b828054828255906000526020600020908101928215612a84579160200282015b82811115612a8457825182546001600160a01b0319166001600160a01b03909116178255602090920191600190910190612a4f565b50612a90929150612a94565b5090565b5b80821115612a905760008155600101612a95565b6020808252602a908201527f5265676973747279436f6d6d756e6974793a2046756e6374696f6e20646f6573604082015269081b9bdd08195e1a5cdd60b21b606082015260800190565b80356001600160e01b031981168114610d2c57600080fd5b600060208284031215612b1d57600080fd5b6128a782612af3565b6001600160a01b0391909116815260200190565b80358015158114610d2c57600080fd5b600060208284031215612b5c57600080fd5b6128a782612b3a565b600060208284031215612b7757600080fd5b5035919050565b6001600160a01b0381168114610c4157600080fd5b8035610d2c81612b7e565b60008060408385031215612bb157600080fd5b8235612bbc81612b7e565b91506020830135612bcc81612b7e565b809150509250929050565b600060208284031215612be957600080fd5b81356128a781612b7e565b60008083601f840112612c0657600080fd5b5081356001600160401b03811115612c1d57600080fd5b602083019150836020828501011115612c3557600080fd5b9250929050565b600080600080600060608688031215612c5457600080fd5b85356001600160401b0380821115612c6b57600080fd5b818801915088601f830112612c7f57600080fd5b813581811115612c8e57600080fd5b8960208260051b8501011115612ca357600080fd5b60208301975080965050612cb960208901612b93565b94506040880135915080821115612ccf57600080fd5b50612cdc88828901612bf4565b969995985093965092949392505050565b60008060408385031215612d0057600080fd5b8235612d0b81612b7e565b946020939093013593505050565b60008060408385031215612d2c57600080fd5b823591506020830135612bcc81612b7e565b634e487b7160e01b600052604160045260246000fd5b60405161014081016001600160401b0381118282101715612d7757612d77612d3e565b60405290565b60405161018081016001600160401b0381118282101715612d7757612d77612d3e565b60405160e081016001600160401b0381118282101715612d7757612d77612d3e565b604051606081016001600160401b0381118282101715612d7757612d77612d3e565b604051601f8201601f191681016001600160401b0381118282101715612e0c57612e0c612d3e565b604052919050565b600060808284031215612e2657600080fd5b604051608081016001600160401b0381118282101715612e4857612e48612d3e565b8060405250809150823581526020830135602082015260408301356040820152606083013560608201525092915050565b803560048110610d2c57600080fd5b600060208284031215612e9a57600080fd5b604051602081016001600160401b0381118282101715612ebc57612ebc612d3e565b6040529135825250919050565b600060c08284031215612edb57600080fd5b60405160c081016001600160401b0381118282101715612efd57612efd612d3e565b6040529050808235612f0e81612b7e565b81526020830135612f1e81612b7e565b8060208301525060408301356040820152606083013560608201526080830135608082015260a083013560a08201525092915050565b60006001600160401b03821115612f6d57612f6d612d3e565b5060051b60200190565b600082601f830112612f8857600080fd5b81356020612f9d612f9883612f54565b612de4565b82815260059290921b84018101918181019086841115612fbc57600080fd5b8286015b84811015612fe0578035612fd381612b7e565b8352918301918301612fc0565b509695505050505050565b60006102408284031215612ffe57600080fd5b613006612d54565b90506130128383612e14565b815261302060808301612e79565b602082015261303160a08301612e79565b60408201526130438360c08401612e88565b60608201526130558360e08401612ec9565b60808201526130676101a08301612b93565b60a08201526130796101c08301612b93565b60c08201526101e082013560e08201526102008201356001600160401b038111156130a357600080fd5b6130af84828501612f77565b610100830152506130c36102208301612b93565b61012082015292915050565b60006001600160401b038311156130e8576130e8612d3e565b6130fb601f8401601f1916602001612de4565b905082815283838301111561310f57600080fd5b828260208301376000602084830101529392505050565b600082601f83011261313757600080fd5b6128a7838335602085016130cf565b60006040828403121561315857600080fd5b604080519081016001600160401b03808211838310171561317b5761317b612d3e565b8160405282935084358352602085013591508082111561319a57600080fd5b506131a785828601613126565b6020830152505092915050565b6000806000606084860312156131c957600080fd5b83356131d481612b7e565b925060208401356001600160401b03808211156131f057600080fd5b6131fc87838801612feb565b9350604086013591508082111561321257600080fd5b5061321f86828701613146565b9150509250925092565b6000806040838503121561323c57600080fd5b823561324781612b7e565b915060208301356001600160401b0381111561326257600080fd5b8301601f8101851361327357600080fd5b613282858235602084016130cf565b9150509250929050565b60006020828403121561329e57600080fd5b81356001600160401b038111156132b457600080fd5b6129fd84828501613126565b60005b838110156132db5781810151838201526020016132c3565b50506000910152565b600081518084526132fc8160208601602086016132c0565b601f01601f19169290920160200192915050565b6020815260006128a760208301846132e4565b6000806000806080858703121561333957600080fd5b843561334481612b7e565b9350602085013561335481612b7e565b925060408501356001600160401b038082111561337057600080fd5b61337c88838901612feb565b9350606087013591508082111561339257600080fd5b5061339f87828801613146565b91505092959194509250565b600080600080600060a086880312156133c357600080fd5b85356001600160401b03808211156133da57600080fd5b90870190610180828a0312156133ef57600080fd5b6133f7612d7d565b61340083612b93565b815261340e60208401612b93565b602082015260408301356040820152606083013560608201526080830135608082015261343d60a08401612b93565b60a082015261344e60c08401612b93565b60c082015260e08301358281111561346557600080fd5b6134718b828601613146565b60e083015250610100613485818501612b93565b90820152610120838101358381111561349d57600080fd5b6134a98c828701613126565b8284015250506101406134bd818501612b3a565b9082015261016083810135838111156134d557600080fd5b6134e18c828701613126565b8284015250508097505050506134f960208701612b93565b935061350760408701612b93565b925061351560608701612b93565b915061352360808701612b93565b90509295509295909350565b60006020828403121561354157600080fd5b81356001600160401b038082111561355857600080fd5b9083019060e0828603121561356c57600080fd5b613574612da0565b61357d83612b93565b815261358b60208401612b93565b6020820152604083013560408201526060830135828111156135ac57600080fd5b6135b887828601613126565b606083015250608083013560808201526135d460a08401612b3a565b60a082015260c0830135828111156135eb57600080fd5b6135f787828601613126565b60c08301525095945050505050565b6000613614612f9884612f54565b83815260208082019190600586811b86013681111561363257600080fd5b865b818110156137295780356001600160401b03808211156136545760008081fd5b818a0191506060823603121561366a5760008081fd5b613672612dc2565b823561367d81612b7e565b815282870135600381106136915760008081fd5b81880152604083810135838111156136a95760008081fd5b939093019236601f8501126136c057600092508283fd5b833592506136d0612f9884612f54565b83815292871b840188019288810190368511156136ed5760008081fd5b948901945b848610156137125761370386612af3565b825294890194908901906136f2565b918301919091525088525050948301948301613634565b5092979650505050505050565b6020808252602c90820152600080516020613e9c83398151915260408201526b19195b1959d85d1958d85b1b60a21b606082015260800190565b6020808252602c90820152600080516020613e9c83398151915260408201526b6163746976652070726f787960a01b606082015260800190565b6000602082840312156137bc57600080fd5b81516128a781612b7e565b600181811c908216806137db57607f821691505b6020821081036137fb57634e487b7160e01b600052602260045260246000fd5b50919050565b634e487b7160e01b600052601160045260246000fd5b8082028115828204841417610c0d57610c0d613801565b6020808252602b908201527f496e697469616c697a61626c653a20636f6e7472616374206973206e6f74206960408201526a6e697469616c697a696e6760a81b606082015260800190565b601f821115610d4d57600081815260208120601f850160051c810160208610156138a05750805b601f850160051c820191505b818110156118b1578281556001016138ac565b81516001600160401b038111156138d8576138d8612d3e565b6138ec816138e684546137c7565b84613879565b602080601f83116001811461392157600084156139095750858301515b600019600386901b1c1916600185901b1785556118b1565b600085815260208120601f198616915b8281101561395057888601518255948401946001909101908401613931565b508582101561396e5787850151600019600388901b60f8161c191681555b5050505050600190811b01905550565b634e487b7160e01b600052603260045260246000fd5b600060208083850312156139a757600080fd5b82516001600160401b038111156139bd57600080fd5b8301601f810185136139ce57600080fd5b80516139dc612f9882612f54565b81815260059190911b820183019083810190878311156139fb57600080fd5b928401925b82841015613a22578351613a1381612b7e565b82529284019290840190613a00565b979650505050505050565b80820180821115610c0d57610c0d613801565b600060018201613a5257613a52613801565b5060010190565b81810381811115610c0d57610c0d613801565b60008154613a79816137c7565b808552602060018381168015613a965760018114613ab057613ade565b60ff1985168884015283151560051b880183019550613ade565b866000528260002060005b85811015613ad65781548a8201860152908301908401613abb565b890184019650505b505050505092915050565b8051825260006020820151604060208501526129fd60408501826132e4565b8581526000602060a081840152613b2260a0840188613a6c565b8381036040850152613b348188613ae9565b6001600160a01b038781166060870152858203608087015286518083528488019350909184019060005b81811015613b7c578451841683529385019391850191600101613b5e565b50909b9a5050505050505050505050565b600060208284031215613b9f57600080fd5b5051919050565b838152606060208201526000613bbf6060830185613a6c565b828103604084015261297c8185613ae9565b634e487b7160e01b600052602160045260246000fd5b600081518084526020808501945080840160005b83811015613c215781516001600160e01b03191687529582019590820190600101613bfb565b509495945050505050565b6000606080830181845280875180835260808601915060808160051b87010192506020808a016000805b84811015613cc557898703607f19018652825180516001600160a01b031688528481015160038110613c9657634e487b7160e01b84526021600452602484fd5b88860152604090810151908801899052613cb289890182613be7565b9750509483019491830191600101613c56565b5050506001600160a01b0389169087015250508381036040850152613a2281866132e4565b6020815260006128a76020830184613be7565b6001600160e01b031991909116815260200190565b600061ffff808316818103613d2957613d29613801565b6001019392505050565b600081613d4257613d42613801565b506000190190565b634e487b7160e01b600052603160045260246000fd5b60008251613d728184602087016132c0565b9190910192915050565b6001600160a01b03831681526040602082018190526000906129fd908301846132e4565b76020b1b1b2b9b9a1b7b73a3937b61d1030b1b1b7bab73a1604d1b815260008351613dd28160178501602088016132c0565b7001034b99036b4b9b9b4b733903937b6329607d1b6017918401918201528351613e038160288401602088016132c0565b0160280194935050505056fe03be538b6391ddcd7f2649585cc95b120c9e2a613f70714fbb55345057d809fac8fcad8db84d3cc18b4c41d551ea0ee66dd599cde068d998e57d5e09332c131c4c69624469616d6f6e644375743a2041646420666163657420686173206e6f20636f64654c69624469616d6f6e644375743a205f696e6974206164647265737320686173206e6f20636f646546756e6374696f6e206d7573742062652063616c6c6564207468726f75676820360894a13ba1a3210667c828492db98dca3e2076cc3735a920a3ca505d382bbc416464726573733a206c6f772d6c6576656c2064656c65676174652063616c6c206661696c65644c69624469616d6f6e644375743a205265706c61636520666163657420686173206e6f20636f6465a164736f6c6343000813000a","linkReferences":{}},"methodIdentifiers":{"COUNCIL_MEMBER()":"733a2d1f","DEFAULT_ADMIN_ROLE()":"a217fddf","MAX_FEE()":"bc063e1a","NATIVE()":"a0cf0aea","PRECISION_SCALE()":"d7050f07","VERSION()":"ffa1ad74","acceptCouncilSafe()":"b5058c50","activateMemberInStrategy(address,address)":"0d4a8b49","addStrategy(address)":"223e5479","addStrategyByPoolId(uint256)":"82d6a1e7","addressToMemberInfo(address)":"88cfe684","allo()":"d6d8428d","cloneNonce()":"33960459","collateralVaultTemplate()":"77122d56","communityFee()":"8961be6b","communityName()":"c6d572ae","councilSafe()":"6c53db9a","covenantIpfsHash()":"b64e39af","createPool(address,((uint256,uint256,uint256,uint256),uint8,uint8,(uint256),(address,address,uint256,uint256,uint256,uint256),address,address,uint256,address[],address),(uint256,string))":"499ac57f","createPool(address,address,((uint256,uint256,uint256,uint256),uint8,uint8,(uint256),(address,address,uint256,uint256,uint256,uint256),address,address,uint256,address[],address),(uint256,string))":"cd564dae","cvVaultTemplate()":"5e808daa","deactivateMemberInStrategy(address,address)":"22bcf999","decreasePower(uint256)":"5ecf71c5","diamondCut((address,uint8,bytes4[])[],address,bytes)":"1f931c1c","enabledStrategies(address)":"3a871fe1","feeReceiver()":"b3f00674","getBasisStakedAmount()":"0331383c","getMemberPowerInStrategy(address,address)":"7817ee4f","getMemberStakedAmount(address)":"2c611c4a","getRoleAdmin(bytes32)":"248a9ca3","getStakeAmountWithFees()":"28c309e9","governanceToken()":"f96dae0a","grantRole(bytes32,address)":"2f2ff15d","hasRole(bytes32,address)":"91d14854","increasePower(uint256)":"559de05d","initialize((address,address,uint256,uint256,uint256,address,address,(uint256,string),address,string,bool,string),address,address,address,address)":"eb9c578d","initialize(address)":"c4d66de8","isCouncilMember(address)":"ebd7dc52","isKickEnabled()":"1f787d28","isMember(address)":"a230c524","kickMember(address,address)":"6871eb4d","memberActivatedInStrategies(address,address)":"477a5cc0","memberPowerInStrategy(address,address)":"65e3864c","onlyStrategyEnabled(address)":"411481e6","owner()":"8da5cb5b","pendingCouncilSafe()":"68decabb","profileId()":"08386eba","proxiableUUID()":"52d1902d","proxyOwner()":"025313a2","registerStakeAmount()":"78a0b8a9","registry()":"7b103999","registryFactory()":"f86c5f89","rejectPool(address)":"fb1f6917","removeStrategy(address)":"175188e8","removeStrategyByPoolId(uint256)":"73265c37","renounceOwnership()":"715018a6","renounceRole(bytes32,address)":"36568abe","revokeRole(bytes32,address)":"d547741f","setArchived(bool)":"0b03bb9a","setBasisStakedAmount(uint256)":"31f61bca","setCVVaultTemplate(address)":"c5325d92","setCollateralVaultTemplate(address)":"b0d3713a","setCommunityFee(uint256)":"0d12bbdb","setCommunityParams((address,address,uint256,string,uint256,bool,string))":"f2d774e7","setCouncilSafe(address)":"397e2543","setStrategyTemplate(address)":"1b71f0e4","stakeAndRegisterMember(string)":"9a1f46e2","strategiesByMember(address,uint256)":"2b38c69c","strategyTemplate()":"5c94e4d2","supportsInterface(bytes4)":"01ffc9a7","totalMembers()":"76e92559","transferOwnership(address)":"f2fde38b","unregisterMember()":"b99b4370","upgradeTo(address)":"3659cfe6","upgradeToAndCall(address,bytes)":"4f1ef286"},"storageLayout":{"storage":[{"astId":53203,"contract":"pkg/contracts/src/RegistryCommunity/RegistryCommunity.sol:RegistryCommunity","label":"_initialized","offset":0,"slot":"0","type":"t_uint8"},{"astId":53206,"contract":"pkg/contracts/src/RegistryCommunity/RegistryCommunity.sol:RegistryCommunity","label":"_initializing","offset":1,"slot":"0","type":"t_bool"},{"astId":55609,"contract":"pkg/contracts/src/RegistryCommunity/RegistryCommunity.sol:RegistryCommunity","label":"__gap","offset":0,"slot":"1","type":"t_array(t_uint256)50_storage"},{"astId":52827,"contract":"pkg/contracts/src/RegistryCommunity/RegistryCommunity.sol:RegistryCommunity","label":"_owner","offset":0,"slot":"51","type":"t_address"},{"astId":52947,"contract":"pkg/contracts/src/RegistryCommunity/RegistryCommunity.sol:RegistryCommunity","label":"__gap","offset":0,"slot":"52","type":"t_array(t_uint256)49_storage"},{"astId":53380,"contract":"pkg/contracts/src/RegistryCommunity/RegistryCommunity.sol:RegistryCommunity","label":"_status","offset":0,"slot":"101","type":"t_uint256"},{"astId":53449,"contract":"pkg/contracts/src/RegistryCommunity/RegistryCommunity.sol:RegistryCommunity","label":"__gap","offset":0,"slot":"102","type":"t_array(t_uint256)49_storage"},{"astId":55883,"contract":"pkg/contracts/src/RegistryCommunity/RegistryCommunity.sol:RegistryCommunity","label":"__gap","offset":0,"slot":"151","type":"t_array(t_uint256)50_storage"},{"astId":52434,"contract":"pkg/contracts/src/RegistryCommunity/RegistryCommunity.sol:RegistryCommunity","label":"_roles","offset":0,"slot":"201","type":"t_mapping(t_bytes32,t_struct(RoleData)52429_storage)"},{"astId":52741,"contract":"pkg/contracts/src/RegistryCommunity/RegistryCommunity.sol:RegistryCommunity","label":"__gap","offset":0,"slot":"202","type":"t_array(t_uint256)49_storage"},{"astId":96762,"contract":"pkg/contracts/src/RegistryCommunity/RegistryCommunity.sol:RegistryCommunity","label":"registerStakeAmount","offset":0,"slot":"251","type":"t_uint256"},{"astId":96765,"contract":"pkg/contracts/src/RegistryCommunity/RegistryCommunity.sol:RegistryCommunity","label":"communityFee","offset":0,"slot":"252","type":"t_uint256"},{"astId":96768,"contract":"pkg/contracts/src/RegistryCommunity/RegistryCommunity.sol:RegistryCommunity","label":"cloneNonce","offset":0,"slot":"253","type":"t_uint256"},{"astId":96771,"contract":"pkg/contracts/src/RegistryCommunity/RegistryCommunity.sol:RegistryCommunity","label":"profileId","offset":0,"slot":"254","type":"t_bytes32"},{"astId":96774,"contract":"pkg/contracts/src/RegistryCommunity/RegistryCommunity.sol:RegistryCommunity","label":"isKickEnabled","offset":0,"slot":"255","type":"t_bool"},{"astId":96777,"contract":"pkg/contracts/src/RegistryCommunity/RegistryCommunity.sol:RegistryCommunity","label":"feeReceiver","offset":1,"slot":"255","type":"t_address"},{"astId":96780,"contract":"pkg/contracts/src/RegistryCommunity/RegistryCommunity.sol:RegistryCommunity","label":"registryFactory","offset":0,"slot":"256","type":"t_address"},{"astId":96783,"contract":"pkg/contracts/src/RegistryCommunity/RegistryCommunity.sol:RegistryCommunity","label":"collateralVaultTemplate","offset":0,"slot":"257","type":"t_address"},{"astId":96786,"contract":"pkg/contracts/src/RegistryCommunity/RegistryCommunity.sol:RegistryCommunity","label":"cvVaultTemplate","offset":0,"slot":"258","type":"t_address"},{"astId":96789,"contract":"pkg/contracts/src/RegistryCommunity/RegistryCommunity.sol:RegistryCommunity","label":"strategyTemplate","offset":0,"slot":"259","type":"t_address"},{"astId":96792,"contract":"pkg/contracts/src/RegistryCommunity/RegistryCommunity.sol:RegistryCommunity","label":"pendingCouncilSafe","offset":0,"slot":"260","type":"t_address_payable"},{"astId":96796,"contract":"pkg/contracts/src/RegistryCommunity/RegistryCommunity.sol:RegistryCommunity","label":"registry","offset":0,"slot":"261","type":"t_contract(IRegistry)2821"},{"astId":96800,"contract":"pkg/contracts/src/RegistryCommunity/RegistryCommunity.sol:RegistryCommunity","label":"governanceToken","offset":0,"slot":"262","type":"t_contract(IERC20)58708"},{"astId":96804,"contract":"pkg/contracts/src/RegistryCommunity/RegistryCommunity.sol:RegistryCommunity","label":"councilSafe","offset":0,"slot":"263","type":"t_contract(ISafe)103211"},{"astId":96808,"contract":"pkg/contracts/src/RegistryCommunity/RegistryCommunity.sol:RegistryCommunity","label":"allo","offset":0,"slot":"264","type":"t_contract(FAllo)102860"},{"astId":96811,"contract":"pkg/contracts/src/RegistryCommunity/RegistryCommunity.sol:RegistryCommunity","label":"communityName","offset":0,"slot":"265","type":"t_string_storage"},{"astId":96814,"contract":"pkg/contracts/src/RegistryCommunity/RegistryCommunity.sol:RegistryCommunity","label":"covenantIpfsHash","offset":0,"slot":"266","type":"t_string_storage"},{"astId":96819,"contract":"pkg/contracts/src/RegistryCommunity/RegistryCommunity.sol:RegistryCommunity","label":"enabledStrategies","offset":0,"slot":"267","type":"t_mapping(t_address,t_bool)"},{"astId":96826,"contract":"pkg/contracts/src/RegistryCommunity/RegistryCommunity.sol:RegistryCommunity","label":"memberPowerInStrategy","offset":0,"slot":"268","type":"t_mapping(t_address,t_mapping(t_address,t_uint256))"},{"astId":96832,"contract":"pkg/contracts/src/RegistryCommunity/RegistryCommunity.sol:RegistryCommunity","label":"addressToMemberInfo","offset":0,"slot":"269","type":"t_mapping(t_address,t_struct(Member)96538_storage)"},{"astId":96838,"contract":"pkg/contracts/src/RegistryCommunity/RegistryCommunity.sol:RegistryCommunity","label":"strategiesByMember","offset":0,"slot":"270","type":"t_mapping(t_address,t_array(t_address)dyn_storage)"},{"astId":96845,"contract":"pkg/contracts/src/RegistryCommunity/RegistryCommunity.sol:RegistryCommunity","label":"memberActivatedInStrategies","offset":0,"slot":"271","type":"t_mapping(t_address,t_mapping(t_address,t_bool))"},{"astId":96849,"contract":"pkg/contracts/src/RegistryCommunity/RegistryCommunity.sol:RegistryCommunity","label":"initialMembers","offset":0,"slot":"272","type":"t_array(t_address)dyn_storage"},{"astId":96852,"contract":"pkg/contracts/src/RegistryCommunity/RegistryCommunity.sol:RegistryCommunity","label":"totalMembers","offset":0,"slot":"273","type":"t_uint256"},{"astId":97623,"contract":"pkg/contracts/src/RegistryCommunity/RegistryCommunity.sol:RegistryCommunity","label":"__gap","offset":0,"slot":"274","type":"t_array(t_uint256)49_storage"}],"types":{"t_address":{"encoding":"inplace","label":"address","numberOfBytes":"20"},"t_address_payable":{"encoding":"inplace","label":"address payable","numberOfBytes":"20"},"t_array(t_address)dyn_storage":{"encoding":"dynamic_array","label":"address[]","numberOfBytes":"32","base":"t_address"},"t_array(t_uint256)49_storage":{"encoding":"inplace","label":"uint256[49]","numberOfBytes":"1568","base":"t_uint256"},"t_array(t_uint256)50_storage":{"encoding":"inplace","label":"uint256[50]","numberOfBytes":"1600","base":"t_uint256"},"t_bool":{"encoding":"inplace","label":"bool","numberOfBytes":"1"},"t_bytes32":{"encoding":"inplace","label":"bytes32","numberOfBytes":"32"},"t_contract(FAllo)102860":{"encoding":"inplace","label":"contract FAllo","numberOfBytes":"20"},"t_contract(IERC20)58708":{"encoding":"inplace","label":"contract IERC20","numberOfBytes":"20"},"t_contract(IRegistry)2821":{"encoding":"inplace","label":"contract IRegistry","numberOfBytes":"20"},"t_contract(ISafe)103211":{"encoding":"inplace","label":"contract ISafe","numberOfBytes":"20"},"t_mapping(t_address,t_array(t_address)dyn_storage)":{"encoding":"mapping","key":"t_address","label":"mapping(address => address[])","numberOfBytes":"32","value":"t_array(t_address)dyn_storage"},"t_mapping(t_address,t_bool)":{"encoding":"mapping","key":"t_address","label":"mapping(address => bool)","numberOfBytes":"32","value":"t_bool"},"t_mapping(t_address,t_mapping(t_address,t_bool))":{"encoding":"mapping","key":"t_address","label":"mapping(address => mapping(address => bool))","numberOfBytes":"32","value":"t_mapping(t_address,t_bool)"},"t_mapping(t_address,t_mapping(t_address,t_uint256))":{"encoding":"mapping","key":"t_address","label":"mapping(address => mapping(address => uint256))","numberOfBytes":"32","value":"t_mapping(t_address,t_uint256)"},"t_mapping(t_address,t_struct(Member)96538_storage)":{"encoding":"mapping","key":"t_address","label":"mapping(address => struct Member)","numberOfBytes":"32","value":"t_struct(Member)96538_storage"},"t_mapping(t_address,t_uint256)":{"encoding":"mapping","key":"t_address","label":"mapping(address => uint256)","numberOfBytes":"32","value":"t_uint256"},"t_mapping(t_bytes32,t_struct(RoleData)52429_storage)":{"encoding":"mapping","key":"t_bytes32","label":"mapping(bytes32 => struct AccessControlUpgradeable.RoleData)","numberOfBytes":"32","value":"t_struct(RoleData)52429_storage"},"t_string_storage":{"encoding":"bytes","label":"string","numberOfBytes":"32"},"t_struct(Member)96538_storage":{"encoding":"inplace","label":"struct Member","numberOfBytes":"96","members":[{"astId":96533,"contract":"pkg/contracts/src/RegistryCommunity/RegistryCommunity.sol:RegistryCommunity","label":"member","offset":0,"slot":"0","type":"t_address"},{"astId":96535,"contract":"pkg/contracts/src/RegistryCommunity/RegistryCommunity.sol:RegistryCommunity","label":"stakedAmount","offset":0,"slot":"1","type":"t_uint256"},{"astId":96537,"contract":"pkg/contracts/src/RegistryCommunity/RegistryCommunity.sol:RegistryCommunity","label":"isRegistered","offset":0,"slot":"2","type":"t_bool"}]},"t_struct(RoleData)52429_storage":{"encoding":"inplace","label":"struct AccessControlUpgradeable.RoleData","numberOfBytes":"64","members":[{"astId":52426,"contract":"pkg/contracts/src/RegistryCommunity/RegistryCommunity.sol:RegistryCommunity","label":"members","offset":0,"slot":"0","type":"t_mapping(t_address,t_bool)"},{"astId":52428,"contract":"pkg/contracts/src/RegistryCommunity/RegistryCommunity.sol:RegistryCommunity","label":"adminRole","offset":0,"slot":"1","type":"t_bytes32"}]},"t_uint256":{"encoding":"inplace","label":"uint256","numberOfBytes":"32"},"t_uint8":{"encoding":"inplace","label":"uint8","numberOfBytes":"1"}}},"id":173}