{"abi":[{"type":"constructor","inputs":[],"stateMutability":"nonpayable"},{"type":"function","name":"COUNCIL_MEMBER_CHANGE","inputs":[],"outputs":[{"name":"","type":"bytes32","internalType":"bytes32"}],"stateMutability":"view"},{"type":"function","name":"DEFAULT_ADMIN_ROLE","inputs":[],"outputs":[{"name":"","type":"bytes32","internalType":"bytes32"}],"stateMutability":"view"},{"type":"function","name":"NATIVE","inputs":[],"outputs":[{"name":"","type":"address","internalType":"address"}],"stateMutability":"view"},{"type":"function","name":"PRECISION_SCALE","inputs":[],"outputs":[{"name":"","type":"uint256","internalType":"uint256"}],"stateMutability":"view"},{"type":"function","name":"acceptCouncilSafe","inputs":[],"outputs":[],"stateMutability":"nonpayable"},{"type":"function","name":"activateMemberInStrategy","inputs":[{"name":"_member","type":"address","internalType":"address"},{"name":"_strategy","type":"address","internalType":"address"}],"outputs":[],"stateMutability":"nonpayable"},{"type":"function","name":"addStrategy","inputs":[{"name":"_newStrategy","type":"address","internalType":"address"}],"outputs":[],"stateMutability":"nonpayable"},{"type":"function","name":"addressToMemberInfo","inputs":[{"name":"","type":"address","internalType":"address"}],"outputs":[{"name":"member","type":"address","internalType":"address"},{"name":"stakedAmount","type":"uint256","internalType":"uint256"},{"name":"isRegistered","type":"bool","internalType":"bool"}],"stateMutability":"view"},{"type":"function","name":"allo","inputs":[],"outputs":[{"name":"","type":"address","internalType":"contract FAllo"}],"stateMutability":"view"},{"type":"function","name":"communityFee","inputs":[],"outputs":[{"name":"","type":"uint256","internalType":"uint256"}],"stateMutability":"view"},{"type":"function","name":"communityName","inputs":[],"outputs":[{"name":"","type":"string","internalType":"string"}],"stateMutability":"view"},{"type":"function","name":"councilSafe","inputs":[],"outputs":[{"name":"","type":"address","internalType":"contract ISafe"}],"stateMutability":"view"},{"type":"function","name":"covenantIpfsHash","inputs":[],"outputs":[{"name":"","type":"string","internalType":"string"}],"stateMutability":"view"},{"type":"function","name":"createPool","inputs":[{"name":"_strategy","type":"address","internalType":"address"},{"name":"_token","type":"address","internalType":"address"},{"name":"_params","type":"tuple","internalType":"struct StrategyStruct.InitializeParams","components":[{"name":"registryCommunity","type":"address","internalType":"address"},{"name":"decay","type":"uint256","internalType":"uint256"},{"name":"maxRatio","type":"uint256","internalType":"uint256"},{"name":"weight","type":"uint256","internalType":"uint256"},{"name":"proposalType","type":"uint8","internalType":"enum StrategyStruct.ProposalType"},{"name":"pointSystem","type":"uint8","internalType":"enum StrategyStruct.PointSystem"},{"name":"pointConfig","type":"tuple","internalType":"struct StrategyStruct.PointSystemConfig","components":[{"name":"pointsPerTokenStaked","type":"uint256","internalType":"uint256"},{"name":"maxAmount","type":"uint256","internalType":"uint256"},{"name":"pointsPerMember","type":"uint256","internalType":"uint256"},{"name":"tokensPerPoint","type":"uint256","internalType":"uint256"}]}]},{"name":"_metadata","type":"tuple","internalType":"struct Metadata","components":[{"name":"protocol","type":"uint256","internalType":"uint256"},{"name":"pointer","type":"string","internalType":"string"}]}],"outputs":[{"name":"poolId","type":"uint256","internalType":"uint256"},{"name":"strategy","type":"address","internalType":"address"}],"stateMutability":"nonpayable"},{"type":"function","name":"deactivateMemberInStrategy","inputs":[{"name":"_member","type":"address","internalType":"address"},{"name":"_strategy","type":"address","internalType":"address"}],"outputs":[],"stateMutability":"nonpayable"},{"type":"function","name":"decreasePower","inputs":[{"name":"_amountUnstaked","type":"uint256","internalType":"uint256"}],"outputs":[],"stateMutability":"nonpayable"},{"type":"function","name":"enabledStrategies","inputs":[{"name":"","type":"address","internalType":"address"}],"outputs":[{"name":"","type":"bool","internalType":"bool"}],"stateMutability":"view"},{"type":"function","name":"feeReceiver","inputs":[],"outputs":[{"name":"","type":"address","internalType":"address"}],"stateMutability":"view"},{"type":"function","name":"gardenToken","inputs":[],"outputs":[{"name":"","type":"address","internalType":"contract IERC20"}],"stateMutability":"view"},{"type":"function","name":"getBasisStakedAmount","inputs":[],"outputs":[{"name":"","type":"uint256","internalType":"uint256"}],"stateMutability":"view"},{"type":"function","name":"getMemberPowerInStrategy","inputs":[{"name":"_member","type":"address","internalType":"address"},{"name":"_strategy","type":"address","internalType":"address"}],"outputs":[{"name":"","type":"uint256","internalType":"uint256"}],"stateMutability":"view"},{"type":"function","name":"getMemberStakedAmount","inputs":[{"name":"_member","type":"address","internalType":"address"}],"outputs":[{"name":"","type":"uint256","internalType":"uint256"}],"stateMutability":"view"},{"type":"function","name":"getRoleAdmin","inputs":[{"name":"role","type":"bytes32","internalType":"bytes32"}],"outputs":[{"name":"","type":"bytes32","internalType":"bytes32"}],"stateMutability":"view"},{"type":"function","name":"getStakeAmountWithFees","inputs":[],"outputs":[{"name":"","type":"uint256","internalType":"uint256"}],"stateMutability":"view"},{"type":"function","name":"grantRole","inputs":[{"name":"role","type":"bytes32","internalType":"bytes32"},{"name":"account","type":"address","internalType":"address"}],"outputs":[],"stateMutability":"nonpayable"},{"type":"function","name":"hasRole","inputs":[{"name":"role","type":"bytes32","internalType":"bytes32"},{"name":"account","type":"address","internalType":"address"}],"outputs":[{"name":"","type":"bool","internalType":"bool"}],"stateMutability":"view"},{"type":"function","name":"increasePower","inputs":[{"name":"_amountStaked","type":"uint256","internalType":"uint256"}],"outputs":[],"stateMutability":"nonpayable"},{"type":"function","name":"initialize","inputs":[{"name":"params","type":"tuple","internalType":"struct RegistryCommunity.InitializeParams","components":[{"name":"_allo","type":"address","internalType":"address"},{"name":"_gardenToken","type":"address","internalType":"contract IERC20"},{"name":"_registerStakeAmount","type":"uint256","internalType":"uint256"},{"name":"_communityFee","type":"uint256","internalType":"uint256"},{"name":"_nonce","type":"uint256","internalType":"uint256"},{"name":"_registryFactory","type":"address","internalType":"address"},{"name":"_feeReceiver","type":"address","internalType":"address"},{"name":"_metadata","type":"tuple","internalType":"struct Metadata","components":[{"name":"protocol","type":"uint256","internalType":"uint256"},{"name":"pointer","type":"string","internalType":"string"}]},{"name":"_councilSafe","type":"address","internalType":"address payable"},{"name":"_communityName","type":"string","internalType":"string"},{"name":"_isKickEnabled","type":"bool","internalType":"bool"},{"name":"covenantIpfsHash","type":"string","internalType":"string"}]}],"outputs":[],"stateMutability":"nonpayable"},{"type":"function","name":"isCouncilMember","inputs":[{"name":"_member","type":"address","internalType":"address"}],"outputs":[{"name":"","type":"bool","internalType":"bool"}],"stateMutability":"view"},{"type":"function","name":"isKickEnabled","inputs":[],"outputs":[{"name":"","type":"bool","internalType":"bool"}],"stateMutability":"view"},{"type":"function","name":"isMember","inputs":[{"name":"_member","type":"address","internalType":"address"}],"outputs":[{"name":"_isMember","type":"bool","internalType":"bool"}],"stateMutability":"view"},{"type":"function","name":"kickMember","inputs":[{"name":"_member","type":"address","internalType":"address"},{"name":"_transferAddress","type":"address","internalType":"address"}],"outputs":[],"stateMutability":"nonpayable"},{"type":"function","name":"memberActivatedInStrategies","inputs":[{"name":"","type":"address","internalType":"address"},{"name":"","type":"address","internalType":"address"}],"outputs":[{"name":"","type":"bool","internalType":"bool"}],"stateMutability":"view"},{"type":"function","name":"memberPowerInStrategy","inputs":[{"name":"","type":"address","internalType":"address"},{"name":"","type":"address","internalType":"address"}],"outputs":[{"name":"","type":"uint256","internalType":"uint256"}],"stateMutability":"view"},{"type":"function","name":"pendingCouncilSafe","inputs":[],"outputs":[{"name":"","type":"address","internalType":"address payable"}],"stateMutability":"view"},{"type":"function","name":"profileId","inputs":[],"outputs":[{"name":"","type":"bytes32","internalType":"bytes32"}],"stateMutability":"view"},{"type":"function","name":"registerStakeAmount","inputs":[],"outputs":[{"name":"","type":"uint256","internalType":"uint256"}],"stateMutability":"view"},{"type":"function","name":"registry","inputs":[],"outputs":[{"name":"","type":"address","internalType":"contract IRegistry"}],"stateMutability":"view"},{"type":"function","name":"registryFactory","inputs":[],"outputs":[{"name":"","type":"address","internalType":"address"}],"stateMutability":"view"},{"type":"function","name":"removeStrategy","inputs":[{"name":"_strategy","type":"address","internalType":"address"}],"outputs":[],"stateMutability":"nonpayable"},{"type":"function","name":"renounceRole","inputs":[{"name":"role","type":"bytes32","internalType":"bytes32"},{"name":"account","type":"address","internalType":"address"}],"outputs":[],"stateMutability":"nonpayable"},{"type":"function","name":"revokeRole","inputs":[{"name":"role","type":"bytes32","internalType":"bytes32"},{"name":"account","type":"address","internalType":"address"}],"outputs":[],"stateMutability":"nonpayable"},{"type":"function","name":"setAllo","inputs":[{"name":"_allo","type":"address","internalType":"address"}],"outputs":[],"stateMutability":"nonpayable"},{"type":"function","name":"setBasisStakedAmount","inputs":[{"name":"_newAmount","type":"uint256","internalType":"uint256"}],"outputs":[],"stateMutability":"nonpayable"},{"type":"function","name":"setCouncilSafe","inputs":[{"name":"_safe","type":"address","internalType":"address payable"}],"outputs":[],"stateMutability":"nonpayable"},{"type":"function","name":"stakeAndRegisterMember","inputs":[],"outputs":[],"stateMutability":"nonpayable"},{"type":"function","name":"strategiesByMember","inputs":[{"name":"","type":"address","internalType":"address"},{"name":"","type":"uint256","internalType":"uint256"}],"outputs":[{"name":"","type":"address","internalType":"address"}],"stateMutability":"view"},{"type":"function","name":"supportsInterface","inputs":[{"name":"interfaceId","type":"bytes4","internalType":"bytes4"}],"outputs":[{"name":"","type":"bool","internalType":"bool"}],"stateMutability":"view"},{"type":"function","name":"tribunalMembers","inputs":[{"name":"","type":"address","internalType":"address"}],"outputs":[{"name":"","type":"bool","internalType":"bool"}],"stateMutability":"view"},{"type":"function","name":"unregisterMember","inputs":[],"outputs":[],"stateMutability":"nonpayable"},{"type":"function","name":"updateCommunityFee","inputs":[{"name":"_newCommunityFee","type":"uint256","internalType":"uint256"}],"outputs":[],"stateMutability":"nonpayable"},{"type":"event","name":"AlloSet","inputs":[{"name":"_allo","type":"address","indexed":false,"internalType":"address"}],"anonymous":false},{"type":"event","name":"BasisStakedAmountSet","inputs":[{"name":"_newAmount","type":"uint256","indexed":false,"internalType":"uint256"}],"anonymous":false},{"type":"event","name":"CommunityFeeUpdated","inputs":[{"name":"_newFee","type":"uint256","indexed":false,"internalType":"uint256"}],"anonymous":false},{"type":"event","name":"CouncilSafeChangeStarted","inputs":[{"name":"_safeOwner","type":"address","indexed":false,"internalType":"address"},{"name":"_newSafeOwner","type":"address","indexed":false,"internalType":"address"}],"anonymous":false},{"type":"event","name":"CouncilSafeSet","inputs":[{"name":"_safe","type":"address","indexed":false,"internalType":"address"}],"anonymous":false},{"type":"event","name":"MemberActivatedStrategy","inputs":[{"name":"_member","type":"address","indexed":false,"internalType":"address"},{"name":"_strategy","type":"address","indexed":false,"internalType":"address"}],"anonymous":false},{"type":"event","name":"MemberDeactivatedStrategy","inputs":[{"name":"_member","type":"address","indexed":false,"internalType":"address"},{"name":"_strategy","type":"address","indexed":false,"internalType":"address"}],"anonymous":false},{"type":"event","name":"MemberKicked","inputs":[{"name":"_member","type":"address","indexed":false,"internalType":"address"},{"name":"_transferAddress","type":"address","indexed":false,"internalType":"address"},{"name":"_amountReturned","type":"uint256","indexed":false,"internalType":"uint256"}],"anonymous":false},{"type":"event","name":"MemberRegistered","inputs":[{"name":"_member","type":"address","indexed":false,"internalType":"address"},{"name":"_amountStaked","type":"uint256","indexed":false,"internalType":"uint256"}],"anonymous":false},{"type":"event","name":"MemberUnregistered","inputs":[{"name":"_member","type":"address","indexed":false,"internalType":"address"},{"name":"_amountReturned","type":"uint256","indexed":false,"internalType":"uint256"}],"anonymous":false},{"type":"event","name":"PoolCreated","inputs":[{"name":"_poolId","type":"uint256","indexed":false,"internalType":"uint256"},{"name":"_strategy","type":"address","indexed":false,"internalType":"address"},{"name":"_community","type":"address","indexed":false,"internalType":"address"},{"name":"_token","type":"address","indexed":false,"internalType":"address"},{"name":"_metadata","type":"tuple","indexed":false,"internalType":"struct Metadata","components":[{"name":"protocol","type":"uint256","internalType":"uint256"},{"name":"pointer","type":"string","internalType":"string"}]}],"anonymous":false},{"type":"event","name":"RegistryInitialized","inputs":[{"name":"_profileId","type":"bytes32","indexed":false,"internalType":"bytes32"},{"name":"_communityName","type":"string","indexed":false,"internalType":"string"},{"name":"_metadata","type":"tuple","indexed":false,"internalType":"struct Metadata","components":[{"name":"protocol","type":"uint256","internalType":"uint256"},{"name":"pointer","type":"string","internalType":"string"}]}],"anonymous":false},{"type":"event","name":"RoleAdminChanged","inputs":[{"name":"role","type":"bytes32","indexed":true,"internalType":"bytes32"},{"name":"previousAdminRole","type":"bytes32","indexed":true,"internalType":"bytes32"},{"name":"newAdminRole","type":"bytes32","indexed":true,"internalType":"bytes32"}],"anonymous":false},{"type":"event","name":"RoleGranted","inputs":[{"name":"role","type":"bytes32","indexed":true,"internalType":"bytes32"},{"name":"account","type":"address","indexed":true,"internalType":"address"},{"name":"sender","type":"address","indexed":true,"internalType":"address"}],"anonymous":false},{"type":"event","name":"RoleRevoked","inputs":[{"name":"role","type":"bytes32","indexed":true,"internalType":"bytes32"},{"name":"account","type":"address","indexed":true,"internalType":"address"},{"name":"sender","type":"address","indexed":true,"internalType":"address"}],"anonymous":false},{"type":"event","name":"StrategyAdded","inputs":[{"name":"_strategy","type":"address","indexed":false,"internalType":"address"}],"anonymous":false},{"type":"event","name":"StrategyRemoved","inputs":[{"name":"_strategy","type":"address","indexed":false,"internalType":"address"}],"anonymous":false},{"type":"error","name":"AddressCannotBeZero","inputs":[]},{"type":"error","name":"CallerIsNotNewOnwer","inputs":[]},{"type":"error","name":"DecreaseUnderMinimum","inputs":[]},{"type":"error","name":"KickNotEnabled","inputs":[]},{"type":"error","name":"PointsDeactivated","inputs":[]},{"type":"error","name":"RegistryCannotBeZero","inputs":[]},{"type":"error","name":"StrategyDisabled","inputs":[]},{"type":"error","name":"StrategyExists","inputs":[]},{"type":"error","name":"UserAlreadyActivated","inputs":[]},{"type":"error","name":"UserAlreadyDeactivated","inputs":[]},{"type":"error","name":"UserAlreadyRegistered","inputs":[]},{"type":"error","name":"UserNotGardenOwner","inputs":[]},{"type":"error","name":"UserNotInCouncil","inputs":[]},{"type":"error","name":"UserNotInRegistry","inputs":[]},{"type":"error","name":"ValueCannotBeZero","inputs":[]}],"bytecode":{"object":"0x60806040523480156200001157600080fd5b506001600090815562000046907fbc6bbe35ebc64943402c04d2ae016d7bd2bba28e1a11cf66be743c9bd74c720b906200004c565b62000099565b6000828152600160208190526040808320909101805490849055905190918391839186917fbd79b86ffe0ab8e8776151514217cd7cacd52c909f66475c3af44e129f0b00ff9190a4505050565b6139f180620000a96000396000f3fe608060405234801561001057600080fd5b50600436106103415760003560e01c80636871eb4d116101bd578063a230c524116100f9578063d14329e0116100a2578063d7050f071161007c578063d7050f0714610823578063db61d65c1461082c578063ebd7dc521461083f578063f86c5f891461085257600080fd5b8063d14329e0146107ea578063d547741f146107fd578063d6d8428d1461081057600080fd5b8063b64e39af116100d3578063b64e39af146107c5578063b99b4370146107da578063c6d572ae146107e257600080fd5b8063a230c52414610753578063b3f00674146107aa578063b5058c50146107bd57600080fd5b80637b1039991161016657806391d148541161014057806391d14854146106d0578063a0b21cdf14610709578063a0cf0aea14610730578063a217fddf1461074b57600080fd5b80637b1039991461065157806388cfe684146106645780638961be6b146106c757600080fd5b80636ff61ab3116101975780636ff61ab3146105ec5780637817ee4f1461060f57806378a0b8a91461064857600080fd5b80636871eb4d146105b357806368decabb146105c65780636c53db9a146105d957600080fd5b80632d3aeaea1161028c578063397e254311610235578063477a5cc01161020f578063477a5cc014610534578063559de05d146105625780635ecf71c51461057557806365e3864c1461058857600080fd5b8063397e2543146104eb5780633a871fe1146104fe5780633c0923301461052157600080fd5b806334c832491161026657806334c83249146104bd5780633517aa7d146104d057806336568abe146104d857600080fd5b80632d3aeaea146104675780632f2ff15d1461049757806331f61bca146104aa57600080fd5b8063223e5479116102ee57806328c309e9116102c857806328c309e9146104085780632b38c69c146104105780632c611c4a1461043b57600080fd5b8063223e5479146103be57806322bcf999146103d1578063248a9ca3146103e457600080fd5b80630d4a8b491161031f5780630d4a8b4914610389578063175188e81461039e5780631f787d28146103b157600080fd5b806301ffc9a7146103465780630331383c1461036e57806308386eba14610380575b600080fd5b610359610354366004612daa565b61086a565b60405190151581526020015b60405180910390f35b6005545b604051908152602001610365565b61037260085481565b61039c610397366004612df9565b6108d3565b005b61039c6103ac366004612e32565b610b6c565b6009546103599060ff1681565b61039c6103cc366004612e32565b610bd5565b61039c6103df366004612df9565b610c84565b6103726103f2366004612e4f565b6000908152600160208190526040909120015490565b610372610d89565b61042361041e366004612e68565b610e78565b6040516001600160a01b039091168152602001610365565b610372610449366004612e32565b6001600160a01b03166000908152600f602052604090206001015490565b61047a61047536600461307c565b610eb0565b604080519283526001600160a01b03909116602083015201610365565b61039c6104a536600461316b565b61102f565b61039c6104b8366004612e4f565b61105a565b61039c6104cb366004612e4f565b611097565b61039c6110d4565b61039c6104e636600461316b565b6114a6565b61039c6104f9366004612e32565b611537565b61035961050c366004612e32565b60106020526000908152604090205460ff1681565b61039c61052f366004612e32565b6115a4565b610359610542366004612df9565b601160209081526000928352604080842090915290825290205460ff1681565b61039c610570366004612e4f565b6115f2565b61039c610583366004612e4f565b611854565b610372610596366004612df9565b601360209081526000928352604080842090915290825290205481565b61039c6105c1366004612df9565b611b32565b600a54610423906001600160a01b031681565b600b54610423906001600160a01b031681565b6103596105fa366004612e32565b600e6020526000908152604090205460ff1681565b61037261061d366004612df9565b6001600160a01b03918216600090815260136020908152604080832093909416825291909152205490565b61037260055481565b600354610423906001600160a01b031681565b6106a0610672366004612e32565b600f602052600090815260409020805460018201546002909201546001600160a01b03909116919060ff1683565b604080516001600160a01b0390941684526020840192909252151590820152606001610365565b61037260065481565b6103596106de36600461316b565b60009182526001602090815260408084206001600160a01b0393909316845291905290205460ff1690565b6103727fbc6bbe35ebc64943402c04d2ae016d7bd2bba28e1a11cf66be743c9bd74c720b81565b61042373eeeeeeeeeeeeeeeeeeeeeeeeeeeeeeeeeeeeeeee81565b610372600081565b610359610761366004612e32565b6001600160a01b039081166000908152600f60209081526040918290208251606081018452815490941684526001810154918401919091526002015460ff161515910181905290565b600754610423906001600160a01b031681565b61039c611d4c565b6107cd611d98565b60405161036591906131e0565b61039c611e26565b6107cd611f8c565b61039c6107f836600461320c565b611f99565b61039c61080b36600461316b565b612475565b600254610423906001600160a01b031681565b61037261271081565b600454610423906001600160a01b031681565b61035961084d366004612e32565b61249b565b6009546104239061010090046001600160a01b031681565b60006001600160e01b031982167f7965db0b0000000000000000000000000000000000000000000000000000000014806108cd57507f01ffc9a7000000000000000000000000000000000000000000000000000000006001600160e01b03198316145b92915050565b6108dc826124db565b6108e58161253e565b6108ee81612590565b6001600160a01b0380831660009081526011602090815260408083209385168352929052205460ff161561094e576040517fd5b9bc9600000000000000000000000000000000000000000000000000000000815260040160405180910390fd5b6000816001600160a01b031663cbfc1daa6040518163ffffffff1660e01b8152600401602060405180830381865afa15801561098e573d6000803e3d6000fd5b505050506040513d601f19601f820116820180604052508101906109b2919061334e565b6001600160a01b038085166000908152600f6020908152604080832081516060810183528154909516855260018101549285018390526002015460ff1615159084015260055493945091929091610a09919061337d565b905060008115610a895760405163782aadff60e01b81526001600160a01b0387811660048301526024820184905286169063782aadff906044016020604051808303816000875af1158015610a62573d6000803e3d6000fd5b505050506040513d601f19601f82011682018060405250810190610a86919061334e565b90505b6000841180610a985750600081115b15610ace57610aa78185613390565b6001600160a01b038088166000908152601360209081526040808320938a16835292905220555b6001600160a01b038681166000818152601160209081526040808320948a16808452948252808320805460ff19166001908117909155848452601283528184208054918201815584529282902090920180546001600160a01b0319168517905581519283528201929092527f63c3cbece50d2c21233b9f1ffb1b3c4554cdf37170cecb94e65f94196df8baff910160405180910390a1505050505050565b610b746125d0565b610b7d81612590565b6001600160a01b038116600081815260106020908152604091829020805460ff1916905590519182527f09a1db4b80c32706328728508c941a6b954f31eb5affd32f236c1fd405f8fea491015b60405180910390a150565b610bdd6125d0565b6001600160a01b03811660009081526010602052604090205460ff1615610c30576040517f968a4d2c00000000000000000000000000000000000000000000000000000000815260040160405180910390fd5b6001600160a01b038116600081815260106020908152604091829020805460ff1916600117905590519182527f3f008fd510eae7a9e7bee13513d7b83bef8003d488b5a3d0b0da4de71d6846f19101610bca565b610c8d826124db565b610c9681612590565b6001600160a01b0380831660009081526011602090815260408083209385168352929052205460ff16610cf5576040517fc12369dc00000000000000000000000000000000000000000000000000000000815260040160405180910390fd5b6001600160a01b038083166000818152601160209081526040808320948616808452948252808320805460ff191690559282526013815282822093825292909252812055610d438282612638565b604080516001600160a01b038085168252831660208201527ede109bef4619f7e2cf00c8e5a50ca55f8deb44f87087eed414a91dbf8d1d1b910160405180910390a15050565b60095460009061010090046001600160a01b031681610dab61271060646133a3565b600654600554610dbb91906133a3565b610dc591906133ba565b90506000610dd661271060646133a3565b6040516302a64b8360e21b81523060048201526001600160a01b03851690630a992e0c90602401602060405180830381865afa158015610e1a573d6000803e3d6000fd5b505050506040513d601f19601f82011682018060405250810190610e3e919061334e565b600554610e4b91906133a3565b610e5591906133ba565b90508082600554610e669190613390565b610e709190613390565b935050505090565b60126020528160005260406000208181548110610e9457600080fd5b6000918252602090912001546001600160a01b03169150829050565b60008073eeeeeeeeeeeeeeeeeeeeeeeeeeeeeeeeeeeeeeee6001600160a01b03861615610eda5750845b86915060006014805480602002602001604051908101604052809291908181526020018280548015610f3557602002820191906000526020600020905b81546001600160a01b03168152600190910190602001808311610f17575b50506002546008546040519596506001600160a01b039091169463e1007d4a9450909250879150610f6a908b906020016133f2565b6040516020818303038152906040528660008b886040518863ffffffff1660e01b8152600401610fa097969594939291906134f9565b6020604051808303816000875af1158015610fbf573d6000803e3d6000fd5b505050506040513d601f19601f82011682018060405250810190610fe3919061334e565b93507f778cac0ae0b66477341553a4a89398c61ccf448313d3354ad0ca85a5a825d2838484308a8960405161101c959493929190613565565b60405180910390a1505094509492505050565b6000828152600160208190526040909120015461104b8161275a565b6110558383612764565b505050565b6110626125d0565b60058190556040518181527f5bcc2c453001fb0e2ba6266d56ecb411e7c6e15c8f9c3d301f93dd36ad25726f90602001610bca565b61109f6125d0565b60068190556040518181527f611668bfcf654a99c33cdb66c29ec37a5aae5c1287d2d9715a24e18cb4d806d690602001610bca565b6110dc6127eb565b336000818152600f6020526040812060095490916101009091046001600160a01b03169061110d61271060646133a3565b60065460055461111d91906133a3565b61112791906133ba565b9050600061113861271060646133a3565b6040516302a64b8360e21b81523060048201526001600160a01b03851690630a992e0c90602401602060405180830381865afa15801561117c573d6000803e3d6000fd5b505050506040513d601f19601f820116820180604052508101906111a0919061334e565b6005546111ad91906133a3565b6111b791906133ba565b6001600160a01b038087166000908152600f60209081526040918290208251606081018452815490941684526001810154918401919091526002015460ff16151591018190529091506114955760028401805460ff191660019081179091556005549085018190556004546001600160a01b0316906323b872dd90879030908590611243908890613390565b61124d9190613390565b6040516001600160e01b031960e086901b1681526001600160a01b03938416600482015292909116602483015260448201526064016020604051808303816000875af11580156112a1573d6000803e3d6000fd5b505050506040513d601f19601f820116820180604052508101906112c591906135aa565b508115611349576004805460075460405163a9059cbb60e01b81526001600160a01b039182169381019390935260248301859052169063a9059cbb906044016020604051808303816000875af1158015611323573d6000803e3d6000fd5b505050506040513d601f19601f8201168201806040525081019061134791906135aa565b505b801561144e5760048054604080517f987435be00000000000000000000000000000000000000000000000000000000815290516001600160a01b039283169363a9059cbb9388169263987435be92818301926020928290030181865afa1580156113b7573d6000803e3d6000fd5b505050506040513d601f19601f820116820180604052508101906113db91906135c7565b6040516001600160e01b031960e084901b1681526001600160a01b039091166004820152602481018490526044016020604051808303816000875af1158015611428573d6000803e3d6000fd5b505050506040513d601f19601f8201168201806040525081019061144c91906135aa565b505b600554604080516001600160a01b038816815260208101929092527f67e0244e28040fec15240cd4b6c04c776a2a0278caef23b59e8ada1df31f7689910160405180910390a15b50505050506114a46001600055565b565b6001600160a01b03811633146115295760405162461bcd60e51b815260206004820152602f60248201527f416363657373436f6e74726f6c3a2063616e206f6e6c792072656e6f756e636560448201527f20726f6c657320666f722073656c66000000000000000000000000000000000060648201526084015b60405180910390fd5b6115338282612844565b5050565b61153f6125d0565b61154881612590565b600a80546001600160a01b0319166001600160a01b03838116918217909255600b546040805191909316815260208101919091527f83eac9fdaff0ac1017624b7eddeb9782e3d707cd894073cb7e8301a41c6e5cf89101610bca565b600280546001600160a01b0319166001600160a01b0383169081179091556040519081527faaded18d4d508696508b945d03ff3d168110dbb73e17aeda699745655fa958d290602001610bca565b6115fa6127eb565b6116026128c7565b3360008181526012602090815260408083208054825181850281018501909352808352919290919083018282801561166357602002820191906000526020600020905b81546001600160a01b03168152600190910190602001808311611645575b50505050509050600080600090505b82518110156117925782818151811061168d5761168d6135e4565b602090810291909101015160405163782aadff60e01b81526001600160a01b038681166004830152602482018890529091169063782aadff906044016020604051808303816000875af11580156116e8573d6000803e3d6000fd5b505050506040513d601f19601f8201168201806040525081019061170c919061334e565b91508115611780576001600160a01b03841660009081526013602052604081208451849290869085908110611743576117436135e4565b60200260200101516001600160a01b03166001600160a01b03168152602001908152602001600020600082825461177a9190613390565b90915550505b8061178a816135fa565b915050611672565b50600480546040516323b872dd60e01b81526001600160a01b0386811693820193909352306024820152604481018790529116906323b872dd906064016020604051808303816000875af11580156117ee573d6000803e3d6000fd5b505050506040513d601f19601f8201168201806040525081019061181291906135aa565b506001600160a01b0383166000908152600f60205260408120600101805486929061183e908490613390565b9091555050600160005550611851915050565b50565b61185c6127eb565b6118646128c7565b336000818152601260209081526040808320805482518185028101850190935280835291929091908301828280156118c557602002820191906000526020600020905b81546001600160a01b031681526001909101906020018083116118a7575b50506005546001600160a01b0387166000908152600f6020526040812060010154959650949093506118fa925087915061337d565b1015611932576040517f9c47d02e00000000000000000000000000000000000000000000000000000000815260040160405180910390fd5b600480546040516323b872dd60e01b81526001600160a01b0386811693820193909352306024820152604481018790529116906323b872dd906064016020604051808303816000875af115801561198d573d6000803e3d6000fd5b505050506040513d601f19601f820116820180604052508101906119b191906135aa565b506001600160a01b0383166000908152600f6020526040812060010180548692906119dd90849061337d565b90915550600090505b8251811015611b2457828181518110611a0157611a016135e4565b60209081029190910101516040517f2ed04b2b0000000000000000000000000000000000000000000000000000000081526001600160a01b0386811660048301526024820188905290911690632ed04b2b906044016020604051808303816000875af1158015611a75573d6000803e3d6000fd5b505050506040513d601f19601f82011682018060405250810190611a99919061334e565b91508160136000866001600160a01b03166001600160a01b031681526020019081526020016000206000858481518110611ad557611ad56135e4565b60200260200101516001600160a01b03166001600160a01b031681526020019081526020016000206000828254611b0c919061337d565b90915550819050611b1c816135fa565b9150506119e6565b505050506118516001600055565b611b3a6127eb565b611b426125d0565b60095460ff16611b7e576040517fcb63dc7200000000000000000000000000000000000000000000000000000000815260040160405180910390fd5b6001600160a01b038083166000908152600f60209081526040918290208251606081018452815490941684526001810154918401919091526002015460ff1615159101819052611be157604051636a5cfb6d60e01b815260040160405180910390fd5b6001600160a01b038083166000908152600f60209081526040918290208251606081018452815490941684526001810154918401919091526002015460ff16151590820152611c2f83612926565b6001600160a01b038084166000908152600f6020908152604080832080546001600160a01b031916815560018101939093556002909201805460ff191690556004805491850151925163a9059cbb60e01b8152919093169263a9059cbb92611cad928792016001600160a01b03929092168252602082015260400190565b6020604051808303816000875af1158015611ccc573d6000803e3d6000fd5b505050506040513d601f19601f82011682018060405250810190611cf091906135aa565b50602080820151604080516001600160a01b0380881682528616938101939093528201527fb5946f249f8744efe9d14d49a483b54a589b1362944ff6694de93456cceb96a39060600160405180910390a1506115336001600055565b600a546001600160a01b03163314611d90576040517ffd4bfdb700000000000000000000000000000000000000000000000000000000815260040160405180910390fd5b6114a4612a48565b600d8054611da590613613565b80601f0160208091040260200160405190810160405280929190818152602001828054611dd190613613565b8015611e1e5780601f10611df357610100808354040283529160200191611e1e565b820191906000526020600020905b815481529060010190602001808311611e0157829003601f168201915b505050505081565b611e2e6127eb565b33611e38816124db565b611e4181612926565b6001600160a01b038082166000818152600f602090815260408083208151606081018352815496871681526001820180548286015260028301805460ff81161515848701529787526001600160a01b03199098169092559084905560ff19909416909455601290529182209091611eb89190612d12565b60048054602083015160405163a9059cbb60e01b81526001600160a01b0386811694820194909452602481019190915291169063a9059cbb906044016020604051808303816000875af1158015611f13573d6000803e3d6000fd5b505050506040513d601f19601f82011682018060405250810190611f3791906135aa565b50602080820151604080516001600160a01b0386168152928301919091527fa13f4668aacb68c4e9eed8e3f6e1cbec3eca776896ec46b5eabcc3983fc8f5f4910160405180910390a150506114a46001600055565b600c8054611da590613613565b611fa68160200151612590565b611fb4816101000151612590565b8051611fbf90612590565b611fcc8160a00151612590565b8051600280546001600160a01b039283166001600160a01b031991821617909155602083015160048054919093169116179055604081015160000361203d576040517fc70d18aa00000000000000000000000000000000000000000000000000000000815260040160405180910390fd5b604081015160055560608101516006556101408101516009805460ff1916911515919091179055610120810151600c90612077908261369b565b50610160810151600d9061208b908261369b565b5060a0810151600980547fffffffffffffffffffffff0000000000000000000000000000000000000000ff166101006001600160a01b0393841681029190911790915560c0830151600780546001600160a01b031990811692851692909217905590830151600b805490921692811692909217905561212b907fbc6bbe35ebc64943402c04d2ae016d7bd2bba28e1a11cf66be743c9bd74c720b90612764565b600260009054906101000a90046001600160a01b03166001600160a01b0316635ab1bd536040518163ffffffff1660e01b8152600401602060405180830381865afa15801561217e573d6000803e3d6000fd5b505050506040513d601f19601f820116820180604052508101906121a291906135c7565b600380546001600160a01b0319166001600160a01b03928316179055600b54604080517fa0e67e2b0000000000000000000000000000000000000000000000000000000081529051600093929092169163a0e67e2b9160048082019286929091908290030181865afa15801561221c573d6000803e3d6000fd5b505050506040513d6000823e601f3d908101601f19168201604052612244919081019061375b565b90506000815160026122569190613390565b67ffffffffffffffff81111561226e5761226e612e94565b604051908082528060200260200182016040528015612297578160200160208202803683370190505b50905060005b82518110156122fc578281815181106122b8576122b86135e4565b60200260200101518282815181106122d2576122d26135e4565b6001600160a01b0390921660209283029190910190910152806122f4816135fa565b91505061229d565b50600b5481516001600160a01b0390911690829061231c9060019061337d565b8151811061232c5761232c6135e4565b60200260200101906001600160a01b031690816001600160a01b03168152505030816002835161235c919061337d565b8151811061236c5761236c6135e4565b6001600160a01b039283166020918202929092010152600354608085015160e08601516040517f3a92f65f0000000000000000000000000000000000000000000000000000000081529290931692633a92f65f926123d49291600c913090889060040161388a565b6020604051808303816000875af11580156123f3573d6000803e3d6000fd5b505050506040513d601f19601f82011682018060405250810190612417919061334e565b600855805161242d906014906020840190612d30565b507f2f2ffcb06f8a1d35e2716f6b43ef2c19bfa76467d8f66964ae12c2583ed03205600854600c8560e00151604051612468939291906138d8565b60405180910390a1505050565b600082815260016020819052604090912001546124918161275a565b6110558383612844565b6001600160a01b03811660009081527fb5ecf5ecfeba8b6e20c37ad4ed6024e3afbcd2e706bee2e266a62cb37e60342c602052604081205460ff166108cd565b6001600160a01b038082166000908152600f60209081526040918290208251606081018452815490941684526001810154918401919091526002015460ff161515910181905261185157604051636a5cfb6d60e01b815260040160405180910390fd5b6001600160a01b03811660009081526010602052604090205460ff16611851576040517f46c26e4b00000000000000000000000000000000000000000000000000000000815260040160405180910390fd5b6001600160a01b038116611851576040517fe622e04000000000000000000000000000000000000000000000000000000000815260040160405180910390fd5b3360009081527fb5ecf5ecfeba8b6e20c37ad4ed6024e3afbcd2e706bee2e266a62cb37e60342c602052604090205460ff166114a4576040517ff62651fa00000000000000000000000000000000000000000000000000000000815260040160405180910390fd5b6001600160a01b0382166000908152601260205260408120905b815481101561275457826001600160a01b0316828281548110612677576126776135e4565b6000918252602090912001546001600160a01b03160361274257815482906126a19060019061337d565b815481106126b1576126b16135e4565b9060005260206000200160009054906101000a90046001600160a01b03168282815481106126e1576126e16135e4565b9060005260206000200160006101000a8154816001600160a01b0302191690836001600160a01b031602179055508180548061271f5761271f61390d565b600082815260209020810160001990810180546001600160a01b03191690550190555b8061274c816135fa565b915050612652565b50505050565b6118518133612aa3565b60008281526001602090815260408083206001600160a01b038516845290915290205460ff166115335760008281526001602081815260408084206001600160a01b0386168086529252808420805460ff19169093179092559051339285917f2f8788117e7eff1d82e926ec794901d17c78024a50270940304540a733656f0d9190a45050565b60026000540361283d5760405162461bcd60e51b815260206004820152601f60248201527f5265656e7472616e637947756172643a207265656e7472616e742063616c6c006044820152606401611520565b6002600055565b60008281526001602090815260408083206001600160a01b038516845290915290205460ff16156115335760008281526001602090815260408083206001600160a01b0385168085529252808320805460ff1916905551339285917ff6391f5c32d9c69d2a47ea670b442974b53935d1edc7fd64eb21e047a839171b9190a45050565b336000908152600f6020908152604091829020825160608101845281546001600160a01b031681526001820154928101929092526002015460ff16151591018190526114a457604051636a5cfb6d60e01b815260040160405180910390fd5b6001600160a01b03811660009081526012602090815260408083208054825181850281018501909352808352919290919083018282801561299057602002820191906000526020600020905b81546001600160a01b03168152600190910190602001808311612972575b5050505050905060005b8151811015611055578181815181106129b5576129b56135e4565b60209081029190910101516040517f6453d9c40000000000000000000000000000000000000000000000000000000081526001600160a01b03858116600483015290911690636453d9c490602401600060405180830381600087803b158015612a1d57600080fd5b505af1158015612a31573d6000803e3d6000fd5b505050508080612a40906135fa565b91505061299a565b600a8054600b80546001600160a01b0383166001600160a01b031991821617909155169055604051600081527fad0399dc40331b9a4977aa89da7a164a3fd482c65e6da73b25a94ea74fb688729060200160405180910390a1565b60008281526001602090815260408083206001600160a01b038516845290915290205460ff1661153357612ad681612b18565b612ae1836020612b2a565b604051602001612af2929190613923565b60408051601f198184030181529082905262461bcd60e51b8252611520916004016131e0565b60606108cd6001600160a01b03831660145b60606000612b398360026133a3565b612b44906002613390565b67ffffffffffffffff811115612b5c57612b5c612e94565b6040519080825280601f01601f191660200182016040528015612b86576020820181803683370190505b5090507f300000000000000000000000000000000000000000000000000000000000000081600081518110612bbd57612bbd6135e4565b60200101906001600160f81b031916908160001a9053507f780000000000000000000000000000000000000000000000000000000000000081600181518110612c0857612c086135e4565b60200101906001600160f81b031916908160001a9053506000612c2c8460026133a3565b612c37906001613390565b90505b6001811115612cbc577f303132333435363738396162636465660000000000000000000000000000000085600f1660108110612c7857612c786135e4565b1a60f81b828281518110612c8e57612c8e6135e4565b60200101906001600160f81b031916908160001a90535060049490941c93612cb5816139a4565b9050612c3a565b508315612d0b5760405162461bcd60e51b815260206004820181905260248201527f537472696e67733a20686578206c656e67746820696e73756666696369656e746044820152606401611520565b9392505050565b50805460008255906000526020600020908101906118519190612d95565b828054828255906000526020600020908101928215612d85579160200282015b82811115612d8557825182546001600160a01b0319166001600160a01b03909116178255602090920191600190910190612d50565b50612d91929150612d95565b5090565b5b80821115612d915760008155600101612d96565b600060208284031215612dbc57600080fd5b81356001600160e01b031981168114612d0b57600080fd5b6001600160a01b038116811461185157600080fd5b8035612df481612dd4565b919050565b60008060408385031215612e0c57600080fd5b8235612e1781612dd4565b91506020830135612e2781612dd4565b809150509250929050565b600060208284031215612e4457600080fd5b8135612d0b81612dd4565b600060208284031215612e6157600080fd5b5035919050565b60008060408385031215612e7b57600080fd5b8235612e8681612dd4565b946020939093013593505050565b634e487b7160e01b600052604160045260246000fd5b60405160e0810167ffffffffffffffff81118282101715612ecd57612ecd612e94565b60405290565b604051610180810167ffffffffffffffff81118282101715612ecd57612ecd612e94565b604051601f8201601f1916810167ffffffffffffffff81118282101715612f2057612f20612e94565b604052919050565b803560048110612df457600080fd5b600060808284031215612f4957600080fd5b6040516080810181811067ffffffffffffffff82111715612f6c57612f6c612e94565b8060405250809150823581526020830135602082015260408301356040820152606083013560608201525092915050565b600082601f830112612fae57600080fd5b813567ffffffffffffffff811115612fc857612fc8612e94565b612fdb601f8201601f1916602001612ef7565b818152846020838601011115612ff057600080fd5b816020850160208301376000918101602001919091529392505050565b60006040828403121561301f57600080fd5b6040516040810167ffffffffffffffff828210818311171561304357613043612e94565b8160405282935084358352602085013591508082111561306257600080fd5b5061306f85828601612f9d565b6020830152505092915050565b6000806000808486036101a081121561309457600080fd5b853561309f81612dd4565b945060208601356130af81612dd4565b9350610140603f19820112156130c457600080fd5b506130cd612eaa565b60408601356130db81612dd4565b815260608681013560208301526080870135604083015260a08701359082015260c08601356003811061310d57600080fd5b608082015261311e60e08701612f28565b60a0820152613131876101008801612f37565b60c0820152915061018085013567ffffffffffffffff81111561315357600080fd5b61315f8782880161300d565b91505092959194509250565b6000806040838503121561317e57600080fd5b823591506020830135612e2781612dd4565b60005b838110156131ab578181015183820152602001613193565b50506000910152565b600081518084526131cc816020860160208601613190565b601f01601f19169290920160200192915050565b602081526000612d0b60208301846131b4565b801515811461185157600080fd5b8035612df4816131f3565b60006020828403121561321e57600080fd5b813567ffffffffffffffff8082111561323657600080fd5b90830190610180828603121561324b57600080fd5b613253612ed3565b61325c83612de9565b815261326a60208401612de9565b602082015260408301356040820152606083013560608201526080830135608082015261329960a08401612de9565b60a08201526132aa60c08401612de9565b60c082015260e0830135828111156132c157600080fd5b6132cd8782860161300d565b60e0830152506101006132e1818501612de9565b9082015261012083810135838111156132f957600080fd5b61330588828701612f9d565b828401525050610140613319818501613201565b90820152610160838101358381111561333157600080fd5b61333d88828701612f9d565b918301919091525095945050505050565b60006020828403121561336057600080fd5b5051919050565b634e487b7160e01b600052601160045260246000fd5b818103818111156108cd576108cd613367565b808201808211156108cd576108cd613367565b80820281158282048414176108cd576108cd613367565b6000826133d757634e487b7160e01b600052601260045260246000fd5b500490565b634e487b7160e01b600052602160045260246000fd5b6000610140820190506001600160a01b03835116825260208301516020830152604083015160408301526060830151606083015260808301516003811061343b5761343b6133dc565b608083015260a083015160048110613455576134556133dc565b60a083015260c092830151805193830193909352602083015160e083015260408301516101008301526060909201516101209091015290565b8051825260006020820151604060208501526134ad60408501826131b4565b949350505050565b600081518084526020808501945080840160005b838110156134ee5781516001600160a01b0316875295820195908201906001016134c9565b509495945050505050565b87815260006001600160a01b03808916602084015260e0604084015261352260e08401896131b4565b818816606085015286608085015283810360a0850152613542818761348e565b91505082810360c084015261355781856134b5565b9a9950505050505050505050565b85815260006001600160a01b038087166020840152808616604084015280851660608401525060a0608083015261359f60a083018461348e565b979650505050505050565b6000602082840312156135bc57600080fd5b8151612d0b816131f3565b6000602082840312156135d957600080fd5b8151612d0b81612dd4565b634e487b7160e01b600052603260045260246000fd5b60006001820161360c5761360c613367565b5060010190565b600181811c9082168061362757607f821691505b60208210810361364757634e487b7160e01b600052602260045260246000fd5b50919050565b601f82111561105557600081815260208120601f850160051c810160208610156136745750805b601f850160051c820191505b8181101561369357828155600101613680565b505050505050565b815167ffffffffffffffff8111156136b5576136b5612e94565b6136c9816136c38454613613565b8461364d565b602080601f8311600181146136fe57600084156136e65750858301515b600019600386901b1c1916600185901b178555613693565b600085815260208120601f198616915b8281101561372d5788860151825594840194600190910190840161370e565b508582101561374b5787850151600019600388901b60f8161c191681555b5050505050600190811b01905550565b6000602080838503121561376e57600080fd5b825167ffffffffffffffff8082111561378657600080fd5b818501915085601f83011261379a57600080fd5b8151818111156137ac576137ac612e94565b8060051b91506137bd848301612ef7565b81815291830184019184810190888411156137d757600080fd5b938501935b8385101561380157845192506137f183612dd4565b82825293850193908501906137dc565b98975050505050505050565b6000815461381a81613613565b80855260206001838116801561383757600181146138515761387f565b60ff1985168884015283151560051b88018301955061387f565b866000528260002060005b858110156138775781548a820186015290830190840161385c565b890184019650505b505050505092915050565b85815260a0602082015260006138a360a083018761380d565b82810360408401526138b5818761348e565b90506001600160a01b0385166060840152828103608084015261380181856134b5565b8381526060602082015260006138f1606083018561380d565b8281036040840152613903818561348e565b9695505050505050565b634e487b7160e01b600052603160045260246000fd5b7f416363657373436f6e74726f6c3a206163636f756e742000000000000000000081526000835161395b816017850160208801613190565b7f206973206d697373696e6720726f6c65200000000000000000000000000000006017918401918201528351613998816028840160208801613190565b01602801949350505050565b6000816139b3576139b3613367565b50600019019056fea2646970667358221220cd0fb3bd73cd308576cd9d8bae03250bf3de9478fab58474711f11e95a41241064736f6c63430008130033","linkReferences":{}},"methodIdentifiers":{"COUNCIL_MEMBER_CHANGE()":"a0b21cdf","DEFAULT_ADMIN_ROLE()":"a217fddf","NATIVE()":"a0cf0aea","PRECISION_SCALE()":"d7050f07","acceptCouncilSafe()":"b5058c50","activateMemberInStrategy(address,address)":"0d4a8b49","addStrategy(address)":"223e5479","addressToMemberInfo(address)":"88cfe684","allo()":"d6d8428d","communityFee()":"8961be6b","communityName()":"c6d572ae","councilSafe()":"6c53db9a","covenantIpfsHash()":"b64e39af","createPool(address,address,(address,uint256,uint256,uint256,uint8,uint8,(uint256,uint256,uint256,uint256)),(uint256,string))":"2d3aeaea","deactivateMemberInStrategy(address,address)":"22bcf999","decreasePower(uint256)":"5ecf71c5","enabledStrategies(address)":"3a871fe1","feeReceiver()":"b3f00674","gardenToken()":"db61d65c","getBasisStakedAmount()":"0331383c","getMemberPowerInStrategy(address,address)":"7817ee4f","getMemberStakedAmount(address)":"2c611c4a","getRoleAdmin(bytes32)":"248a9ca3","getStakeAmountWithFees()":"28c309e9","grantRole(bytes32,address)":"2f2ff15d","hasRole(bytes32,address)":"91d14854","increasePower(uint256)":"559de05d","initialize((address,address,uint256,uint256,uint256,address,address,(uint256,string),address,string,bool,string))":"d14329e0","isCouncilMember(address)":"ebd7dc52","isKickEnabled()":"1f787d28","isMember(address)":"a230c524","kickMember(address,address)":"6871eb4d","memberActivatedInStrategies(address,address)":"477a5cc0","memberPowerInStrategy(address,address)":"65e3864c","pendingCouncilSafe()":"68decabb","profileId()":"08386eba","registerStakeAmount()":"78a0b8a9","registry()":"7b103999","registryFactory()":"f86c5f89","removeStrategy(address)":"175188e8","renounceRole(bytes32,address)":"36568abe","revokeRole(bytes32,address)":"d547741f","setAllo(address)":"3c092330","setBasisStakedAmount(uint256)":"31f61bca","setCouncilSafe(address)":"397e2543","stakeAndRegisterMember()":"3517aa7d","strategiesByMember(address,uint256)":"2b38c69c","supportsInterface(bytes4)":"01ffc9a7","tribunalMembers(address)":"6ff61ab3","unregisterMember()":"b99b4370","updateCommunityFee(uint256)":"34c83249"},"id":96}