{"abi":[{"type":"constructor","inputs":[],"stateMutability":"nonpayable"},{"type":"function","name":"COUNCIL_MEMBER_CHANGE","inputs":[],"outputs":[{"name":"","type":"bytes32","internalType":"bytes32"}],"stateMutability":"view"},{"type":"function","name":"DEFAULT_ADMIN_ROLE","inputs":[],"outputs":[{"name":"","type":"bytes32","internalType":"bytes32"}],"stateMutability":"view"},{"type":"function","name":"MAX_FEE","inputs":[],"outputs":[{"name":"","type":"uint256","internalType":"uint256"}],"stateMutability":"view"},{"type":"function","name":"NATIVE","inputs":[],"outputs":[{"name":"","type":"address","internalType":"address"}],"stateMutability":"view"},{"type":"function","name":"PRECISION_SCALE","inputs":[],"outputs":[{"name":"","type":"uint256","internalType":"uint256"}],"stateMutability":"view"},{"type":"function","name":"acceptCouncilSafe","inputs":[],"outputs":[],"stateMutability":"nonpayable"},{"type":"function","name":"activateMemberInStrategy","inputs":[{"name":"_member","type":"address","internalType":"address"},{"name":"_strategy","type":"address","internalType":"address"}],"outputs":[],"stateMutability":"nonpayable"},{"type":"function","name":"addStrategy","inputs":[{"name":"_newStrategy","type":"address","internalType":"address"}],"outputs":[],"stateMutability":"nonpayable"},{"type":"function","name":"addStrategyByPoolId","inputs":[{"name":"poolId","type":"uint256","internalType":"uint256"}],"outputs":[],"stateMutability":"nonpayable"},{"type":"function","name":"addressToMemberInfo","inputs":[{"name":"member","type":"address","internalType":"address"}],"outputs":[{"name":"member","type":"address","internalType":"address"},{"name":"stakedAmount","type":"uint256","internalType":"uint256"},{"name":"isRegistered","type":"bool","internalType":"bool"}],"stateMutability":"view"},{"type":"function","name":"allo","inputs":[],"outputs":[{"name":"","type":"address","internalType":"contract FAllo"}],"stateMutability":"view"},{"type":"function","name":"cloneNonce","inputs":[],"outputs":[{"name":"","type":"uint256","internalType":"uint256"}],"stateMutability":"view"},{"type":"function","name":"communityFee","inputs":[],"outputs":[{"name":"","type":"uint256","internalType":"uint256"}],"stateMutability":"view"},{"type":"function","name":"communityName","inputs":[],"outputs":[{"name":"","type":"string","internalType":"string"}],"stateMutability":"view"},{"type":"function","name":"councilSafe","inputs":[],"outputs":[{"name":"","type":"address","internalType":"contract ISafe"}],"stateMutability":"view"},{"type":"function","name":"covenantIpfsHash","inputs":[],"outputs":[{"name":"","type":"string","internalType":"string"}],"stateMutability":"view"},{"type":"function","name":"createPool","inputs":[{"name":"_token","type":"address","internalType":"address"},{"name":"_params","type":"tuple","internalType":"struct StrategyStruct.InitializeParams","components":[{"name":"registryCommunity","type":"address","internalType":"address"},{"name":"decay","type":"uint256","internalType":"uint256"},{"name":"maxRatio","type":"uint256","internalType":"uint256"},{"name":"weight","type":"uint256","internalType":"uint256"},{"name":"minThresholdPoints","type":"uint256","internalType":"uint256"},{"name":"proposalType","type":"uint8","internalType":"enum StrategyStruct.ProposalType"},{"name":"pointSystem","type":"uint8","internalType":"enum StrategyStruct.PointSystem"},{"name":"pointConfig","type":"tuple","internalType":"struct StrategyStruct.PointSystemConfig","components":[{"name":"maxAmount","type":"uint256","internalType":"uint256"}]},{"name":"arbitrableConfig","type":"tuple","internalType":"struct StrategyStruct.ArbitrableConfig","components":[{"name":"arbitrator","type":"address","internalType":"contract IArbitrator"},{"name":"tribunalSafe","type":"address","internalType":"address"},{"name":"collateralAmount","type":"uint256","internalType":"uint256"},{"name":"defaultRuling","type":"uint256","internalType":"uint256"},{"name":"defaultRulingTimeout","type":"uint256","internalType":"uint256"},{"name":"collateralVaultTemplate","type":"address","internalType":"address"}]},{"name":"sybilScorer","type":"address","internalType":"address"}]},{"name":"_metadata","type":"tuple","internalType":"struct Metadata","components":[{"name":"protocol","type":"uint256","internalType":"uint256"},{"name":"pointer","type":"string","internalType":"string"}]}],"outputs":[{"name":"poolId","type":"uint256","internalType":"uint256"},{"name":"strategy","type":"address","internalType":"address"}],"stateMutability":"nonpayable"},{"type":"function","name":"createPool","inputs":[{"name":"_strategy","type":"address","internalType":"address"},{"name":"_token","type":"address","internalType":"address"},{"name":"_params","type":"tuple","internalType":"struct StrategyStruct.InitializeParams","components":[{"name":"registryCommunity","type":"address","internalType":"address"},{"name":"decay","type":"uint256","internalType":"uint256"},{"name":"maxRatio","type":"uint256","internalType":"uint256"},{"name":"weight","type":"uint256","internalType":"uint256"},{"name":"minThresholdPoints","type":"uint256","internalType":"uint256"},{"name":"proposalType","type":"uint8","internalType":"enum StrategyStruct.ProposalType"},{"name":"pointSystem","type":"uint8","internalType":"enum StrategyStruct.PointSystem"},{"name":"pointConfig","type":"tuple","internalType":"struct StrategyStruct.PointSystemConfig","components":[{"name":"maxAmount","type":"uint256","internalType":"uint256"}]},{"name":"arbitrableConfig","type":"tuple","internalType":"struct StrategyStruct.ArbitrableConfig","components":[{"name":"arbitrator","type":"address","internalType":"contract IArbitrator"},{"name":"tribunalSafe","type":"address","internalType":"address"},{"name":"collateralAmount","type":"uint256","internalType":"uint256"},{"name":"defaultRuling","type":"uint256","internalType":"uint256"},{"name":"defaultRulingTimeout","type":"uint256","internalType":"uint256"},{"name":"collateralVaultTemplate","type":"address","internalType":"address"}]},{"name":"sybilScorer","type":"address","internalType":"address"}]},{"name":"_metadata","type":"tuple","internalType":"struct Metadata","components":[{"name":"protocol","type":"uint256","internalType":"uint256"},{"name":"pointer","type":"string","internalType":"string"}]}],"outputs":[{"name":"poolId","type":"uint256","internalType":"uint256"},{"name":"strategy","type":"address","internalType":"address"}],"stateMutability":"nonpayable"},{"type":"function","name":"deactivateMemberInStrategy","inputs":[{"name":"_member","type":"address","internalType":"address"},{"name":"_strategy","type":"address","internalType":"address"}],"outputs":[],"stateMutability":"nonpayable"},{"type":"function","name":"decreasePower","inputs":[{"name":"_amountUnstaked","type":"uint256","internalType":"uint256"}],"outputs":[],"stateMutability":"nonpayable"},{"type":"function","name":"enabledStrategies","inputs":[{"name":"strategy","type":"address","internalType":"address"}],"outputs":[{"name":"isEnabled","type":"bool","internalType":"bool"}],"stateMutability":"view"},{"type":"function","name":"feeReceiver","inputs":[],"outputs":[{"name":"","type":"address","internalType":"address"}],"stateMutability":"view"},{"type":"function","name":"gardenToken","inputs":[],"outputs":[{"name":"","type":"address","internalType":"contract IERC20"}],"stateMutability":"view"},{"type":"function","name":"getBasisStakedAmount","inputs":[],"outputs":[{"name":"","type":"uint256","internalType":"uint256"}],"stateMutability":"view"},{"type":"function","name":"getMemberPowerInStrategy","inputs":[{"name":"_member","type":"address","internalType":"address"},{"name":"_strategy","type":"address","internalType":"address"}],"outputs":[{"name":"","type":"uint256","internalType":"uint256"}],"stateMutability":"view"},{"type":"function","name":"getMemberStakedAmount","inputs":[{"name":"_member","type":"address","internalType":"address"}],"outputs":[{"name":"","type":"uint256","internalType":"uint256"}],"stateMutability":"view"},{"type":"function","name":"getRoleAdmin","inputs":[{"name":"role","type":"bytes32","internalType":"bytes32"}],"outputs":[{"name":"","type":"bytes32","internalType":"bytes32"}],"stateMutability":"view"},{"type":"function","name":"getStakeAmountWithFees","inputs":[],"outputs":[{"name":"","type":"uint256","internalType":"uint256"}],"stateMutability":"view"},{"type":"function","name":"grantRole","inputs":[{"name":"role","type":"bytes32","internalType":"bytes32"},{"name":"account","type":"address","internalType":"address"}],"outputs":[],"stateMutability":"nonpayable"},{"type":"function","name":"hasRole","inputs":[{"name":"role","type":"bytes32","internalType":"bytes32"},{"name":"account","type":"address","internalType":"address"}],"outputs":[{"name":"","type":"bool","internalType":"bool"}],"stateMutability":"view"},{"type":"function","name":"increasePower","inputs":[{"name":"_amountStaked","type":"uint256","internalType":"uint256"}],"outputs":[],"stateMutability":"nonpayable"},{"type":"function","name":"initialize","inputs":[{"name":"params","type":"tuple","internalType":"struct RegistryCommunity.InitializeParams","components":[{"name":"_allo","type":"address","internalType":"address"},{"name":"_gardenToken","type":"address","internalType":"contract IERC20"},{"name":"_registerStakeAmount","type":"uint256","internalType":"uint256"},{"name":"_communityFee","type":"uint256","internalType":"uint256"},{"name":"_nonce","type":"uint256","internalType":"uint256"},{"name":"_registryFactory","type":"address","internalType":"address"},{"name":"_feeReceiver","type":"address","internalType":"address"},{"name":"_metadata","type":"tuple","internalType":"struct Metadata","components":[{"name":"protocol","type":"uint256","internalType":"uint256"},{"name":"pointer","type":"string","internalType":"string"}]},{"name":"_councilSafe","type":"address","internalType":"address payable"},{"name":"_communityName","type":"string","internalType":"string"},{"name":"_isKickEnabled","type":"bool","internalType":"bool"},{"name":"covenantIpfsHash","type":"string","internalType":"string"},{"name":"_strategyTemplate","type":"address","internalType":"address"}]}],"outputs":[],"stateMutability":"nonpayable"},{"type":"function","name":"isCouncilMember","inputs":[{"name":"_member","type":"address","internalType":"address"}],"outputs":[{"name":"","type":"bool","internalType":"bool"}],"stateMutability":"view"},{"type":"function","name":"isKickEnabled","inputs":[],"outputs":[{"name":"","type":"bool","internalType":"bool"}],"stateMutability":"view"},{"type":"function","name":"isMember","inputs":[{"name":"_member","type":"address","internalType":"address"}],"outputs":[{"name":"_isMember","type":"bool","internalType":"bool"}],"stateMutability":"view"},{"type":"function","name":"kickMember","inputs":[{"name":"_member","type":"address","internalType":"address"},{"name":"_transferAddress","type":"address","internalType":"address"}],"outputs":[],"stateMutability":"nonpayable"},{"type":"function","name":"memberActivatedInStrategies","inputs":[{"name":"member","type":"address","internalType":"address"},{"name":"strategy","type":"address","internalType":"address"}],"outputs":[{"name":"isActivated","type":"bool","internalType":"bool"}],"stateMutability":"view"},{"type":"function","name":"memberPowerInStrategy","inputs":[{"name":"strategy","type":"address","internalType":"address"},{"name":"member","type":"address","internalType":"address"}],"outputs":[{"name":"power","type":"uint256","internalType":"uint256"}],"stateMutability":"view"},{"type":"function","name":"pendingCouncilSafe","inputs":[],"outputs":[{"name":"","type":"address","internalType":"address payable"}],"stateMutability":"view"},{"type":"function","name":"profileId","inputs":[],"outputs":[{"name":"","type":"bytes32","internalType":"bytes32"}],"stateMutability":"view"},{"type":"function","name":"registerStakeAmount","inputs":[],"outputs":[{"name":"","type":"uint256","internalType":"uint256"}],"stateMutability":"view"},{"type":"function","name":"registry","inputs":[],"outputs":[{"name":"","type":"address","internalType":"contract IRegistry"}],"stateMutability":"view"},{"type":"function","name":"registryFactory","inputs":[],"outputs":[{"name":"","type":"address","internalType":"address"}],"stateMutability":"view"},{"type":"function","name":"removeStrategy","inputs":[{"name":"_strategy","type":"address","internalType":"address"}],"outputs":[],"stateMutability":"nonpayable"},{"type":"function","name":"removeStrategyByPoolId","inputs":[{"name":"poolId","type":"uint256","internalType":"uint256"}],"outputs":[],"stateMutability":"nonpayable"},{"type":"function","name":"renounceRole","inputs":[{"name":"role","type":"bytes32","internalType":"bytes32"},{"name":"account","type":"address","internalType":"address"}],"outputs":[],"stateMutability":"nonpayable"},{"type":"function","name":"revokeRole","inputs":[{"name":"role","type":"bytes32","internalType":"bytes32"},{"name":"account","type":"address","internalType":"address"}],"outputs":[],"stateMutability":"nonpayable"},{"type":"function","name":"setBasisStakedAmount","inputs":[{"name":"_newAmount","type":"uint256","internalType":"uint256"}],"outputs":[],"stateMutability":"nonpayable"},{"type":"function","name":"setCommunityFee","inputs":[{"name":"_newCommunityFee","type":"uint256","internalType":"uint256"}],"outputs":[],"stateMutability":"nonpayable"},{"type":"function","name":"setCouncilSafe","inputs":[{"name":"_safe","type":"address","internalType":"address payable"}],"outputs":[],"stateMutability":"nonpayable"},{"type":"function","name":"stakeAndRegisterMember","inputs":[],"outputs":[],"stateMutability":"nonpayable"},{"type":"function","name":"strategiesByMember","inputs":[{"name":"member","type":"address","internalType":"address"},{"name":"","type":"uint256","internalType":"uint256"}],"outputs":[{"name":"strategiesAddresses","type":"address","internalType":"address"}],"stateMutability":"view"},{"type":"function","name":"strategyTemplate","inputs":[],"outputs":[{"name":"","type":"address","internalType":"address"}],"stateMutability":"view"},{"type":"function","name":"supportsInterface","inputs":[{"name":"interfaceId","type":"bytes4","internalType":"bytes4"}],"outputs":[{"name":"","type":"bool","internalType":"bool"}],"stateMutability":"view"},{"type":"function","name":"unregisterMember","inputs":[],"outputs":[],"stateMutability":"nonpayable"},{"type":"event","name":"AlloSet","inputs":[{"name":"_allo","type":"address","indexed":false,"internalType":"address"}],"anonymous":false},{"type":"event","name":"BasisStakedAmountSet","inputs":[{"name":"_newAmount","type":"uint256","indexed":false,"internalType":"uint256"}],"anonymous":false},{"type":"event","name":"CommunityFeeUpdated","inputs":[{"name":"_newFee","type":"uint256","indexed":false,"internalType":"uint256"}],"anonymous":false},{"type":"event","name":"CouncilSafeChangeStarted","inputs":[{"name":"_safeOwner","type":"address","indexed":false,"internalType":"address"},{"name":"_newSafeOwner","type":"address","indexed":false,"internalType":"address"}],"anonymous":false},{"type":"event","name":"CouncilSafeSet","inputs":[{"name":"_safe","type":"address","indexed":false,"internalType":"address"}],"anonymous":false},{"type":"event","name":"MemberActivatedStrategy","inputs":[{"name":"_member","type":"address","indexed":false,"internalType":"address"},{"name":"_strategy","type":"address","indexed":false,"internalType":"address"},{"name":"_pointsToIncrease","type":"uint256","indexed":false,"internalType":"uint256"}],"anonymous":false},{"type":"event","name":"MemberDeactivatedStrategy","inputs":[{"name":"_member","type":"address","indexed":false,"internalType":"address"},{"name":"_strategy","type":"address","indexed":false,"internalType":"address"}],"anonymous":false},{"type":"event","name":"MemberKicked","inputs":[{"name":"_member","type":"address","indexed":false,"internalType":"address"},{"name":"_transferAddress","type":"address","indexed":false,"internalType":"address"},{"name":"_amountReturned","type":"uint256","indexed":false,"internalType":"uint256"}],"anonymous":false},{"type":"event","name":"MemberPowerDecreased","inputs":[{"name":"_member","type":"address","indexed":false,"internalType":"address"},{"name":"_unstakedAmount","type":"uint256","indexed":false,"internalType":"uint256"}],"anonymous":false},{"type":"event","name":"MemberPowerIncreased","inputs":[{"name":"_member","type":"address","indexed":false,"internalType":"address"},{"name":"_stakedAmount","type":"uint256","indexed":false,"internalType":"uint256"}],"anonymous":false},{"type":"event","name":"MemberRegistered","inputs":[{"name":"_member","type":"address","indexed":false,"internalType":"address"},{"name":"_amountStaked","type":"uint256","indexed":false,"internalType":"uint256"}],"anonymous":false},{"type":"event","name":"MemberUnregistered","inputs":[{"name":"_member","type":"address","indexed":false,"internalType":"address"},{"name":"_amountReturned","type":"uint256","indexed":false,"internalType":"uint256"}],"anonymous":false},{"type":"event","name":"PoolCreated","inputs":[{"name":"_poolId","type":"uint256","indexed":false,"internalType":"uint256"},{"name":"_strategy","type":"address","indexed":false,"internalType":"address"},{"name":"_community","type":"address","indexed":false,"internalType":"address"},{"name":"_token","type":"address","indexed":false,"internalType":"address"},{"name":"_metadata","type":"tuple","indexed":false,"internalType":"struct Metadata","components":[{"name":"protocol","type":"uint256","internalType":"uint256"},{"name":"pointer","type":"string","internalType":"string"}]}],"anonymous":false},{"type":"event","name":"RegistryInitialized","inputs":[{"name":"_profileId","type":"bytes32","indexed":false,"internalType":"bytes32"},{"name":"_communityName","type":"string","indexed":false,"internalType":"string"},{"name":"_metadata","type":"tuple","indexed":false,"internalType":"struct Metadata","components":[{"name":"protocol","type":"uint256","internalType":"uint256"},{"name":"pointer","type":"string","internalType":"string"}]}],"anonymous":false},{"type":"event","name":"RoleAdminChanged","inputs":[{"name":"role","type":"bytes32","indexed":true,"internalType":"bytes32"},{"name":"previousAdminRole","type":"bytes32","indexed":true,"internalType":"bytes32"},{"name":"newAdminRole","type":"bytes32","indexed":true,"internalType":"bytes32"}],"anonymous":false},{"type":"event","name":"RoleGranted","inputs":[{"name":"role","type":"bytes32","indexed":true,"internalType":"bytes32"},{"name":"account","type":"address","indexed":true,"internalType":"address"},{"name":"sender","type":"address","indexed":true,"internalType":"address"}],"anonymous":false},{"type":"event","name":"RoleRevoked","inputs":[{"name":"role","type":"bytes32","indexed":true,"internalType":"bytes32"},{"name":"account","type":"address","indexed":true,"internalType":"address"},{"name":"sender","type":"address","indexed":true,"internalType":"address"}],"anonymous":false},{"type":"event","name":"StrategyAdded","inputs":[{"name":"_strategy","type":"address","indexed":false,"internalType":"address"}],"anonymous":false},{"type":"event","name":"StrategyRemoved","inputs":[{"name":"_strategy","type":"address","indexed":false,"internalType":"address"}],"anonymous":false},{"type":"error","name":"AddressCannotBeZero","inputs":[]},{"type":"error","name":"CantDecreaseMoreThanPower","inputs":[{"name":"_decreaseAmount","type":"uint256","internalType":"uint256"},{"name":"_currentPower","type":"uint256","internalType":"uint256"}]},{"type":"error","name":"DecreaseUnderMinimum","inputs":[]},{"type":"error","name":"KickNotEnabled","inputs":[]},{"type":"error","name":"NewFeeGreaterThanMax","inputs":[]},{"type":"error","name":"PointsDeactivated","inputs":[]},{"type":"error","name":"RegistryCannotBeZero","inputs":[]},{"type":"error","name":"SenderNotNewOwner","inputs":[]},{"type":"error","name":"SenderNotStrategy","inputs":[]},{"type":"error","name":"StrategyDisabled","inputs":[]},{"type":"error","name":"StrategyExists","inputs":[]},{"type":"error","name":"UserAlreadyActivated","inputs":[]},{"type":"error","name":"UserAlreadyDeactivated","inputs":[]},{"type":"error","name":"UserAlreadyRegistered","inputs":[]},{"type":"error","name":"UserNotGardenOwner","inputs":[]},{"type":"error","name":"UserNotInCouncil","inputs":[]},{"type":"error","name":"UserNotInRegistry","inputs":[]},{"type":"error","name":"ValueCannotBeZero","inputs":[]}],"bytecode":{"object":"0x60806040523480156200001157600080fd5b506001600090815562000046907fbc6bbe35ebc64943402c04d2ae016d7bd2bba28e1a11cf66be743c9bd74c720b906200004c565b62000099565b6000828152600160208190526040808320909101805490849055905190918391839186917fbd79b86ffe0ab8e8776151514217cd7cacd52c909f66475c3af44e129f0b00ff9190a4505050565b61473a80620000a96000396000f3fe608060405234801561001057600080fd5b506004361061036d5760003560e01c80636c53db9a116101d3578063a230c52411610104578063c6d572ae116100a2578063d7050f071161007c578063d7050f0714610876578063db61d65c1461087f578063ebd7dc5214610892578063f86c5f89146108a557600080fd5b8063c6d572ae14610848578063d547741f14610850578063d6d8428d1461086357600080fd5b8063b5058c50116100de578063b5058c501461081b578063b64e39af14610823578063b99b437014610838578063bc063e1a1461084057600080fd5b8063a230c5241461079e578063ab6bc62e146107f5578063b3f006741461080857600080fd5b806388cfe6841161017157806396f0adec1161014b57806396f0adec14610741578063a0b21cdf14610754578063a0cf0aea1461077b578063a217fddf1461079657600080fd5b806388cfe6841461069c5780638961be6b146106ff57806391d148541461070857600080fd5b806378a0b8a9116101ad57806378a0b8a91461063d578063796de3a2146106465780637b1039991461067657806382d6a1e71461068957600080fd5b80636c53db9a146105de57806373265c37146105f15780637817ee4f1461060457600080fd5b80632f2ff15d116102ad578063477a5cc01161024b5780635ecf71c5116102255780635ecf71c51461057a57806365e3864c1461058d5780636871eb4d146105b857806368decabb146105cb57600080fd5b8063477a5cc014610526578063559de05d146105545780635c94e4d21461056757600080fd5b80633517aa7d116102875780633517aa7d146104d557806336568abe146104dd578063397e2543146104f05780633a871fe11461050357600080fd5b80632f2ff15d146104a657806331f61bca146104b957806333960459146104cc57600080fd5b80631f787d281161031a578063248a9ca3116102f4578063248a9ca31461042357806328c309e9146104475780632b38c69c1461044f5780632c611c4a1461047a57600080fd5b80631f787d28146103f0578063223e5479146103fd57806322bcf9991461041057600080fd5b80630d12bbdb1161034b5780630d12bbdb146103b55780630d4a8b49146103ca578063175188e8146103dd57600080fd5b806301ffc9a7146103725780630331383c1461039a57806308386eba146103ac575b600080fd5b61038561038036600461377d565b6108b8565b60405190151581526020015b60405180910390f35b6003545b604051908152602001610391565b61039e60055481565b6103c86103c33660046137a7565b610908565b005b6103c86103d83660046137e5565b610992565b6103c86103eb36600461381e565b610cf9565b6002546103859060ff1681565b6103c861040b36600461381e565b610d0d565b6103c861041e3660046137e5565b610d1e565b61039e6104313660046137a7565b6000908152600160208190526040909120015490565b61039e610e2d565b61046261045d36600461383b565b610f17565b6040516001600160a01b039091168152602001610391565b61039e61048836600461381e565b6001600160a01b031660009081526013602052604090206001015490565b6103c86104b4366004613867565b610f4f565b6103c86104c73660046137a7565b610f7a565b61039e60095481565b6103c8610fb7565b6103c86104eb366004613867565b6113bc565b6103c86104fe36600461381e565b61144d565b61038561051136600461381e565b60116020526000908152604090205460ff1681565b6103856105343660046137e5565b601560209081526000928352604080842090915290825290205460ff1681565b6103c86105623660046137a7565b6114ba565b600854610462906001600160a01b031681565b6103c86105883660046137a7565b611794565b61039e61059b3660046137e5565b601260209081526000928352604080842090915290825290205481565b6103c86105c63660046137e5565b611b4e565b600a54610462906001600160a01b031681565b600d54610462906001600160a01b031681565b6103c86105ff3660046137a7565b611d59565b61039e6106123660046137e5565b6001600160a01b03918216600090815260126020908152604080832093909416825291909152205490565b61039e60035481565b610659610654366004613bc5565b611deb565b604080519283526001600160a01b03909116602083015201610391565b600b54610462906001600160a01b031681565b6103c86106973660046137a7565b611e35565b6106d86106aa36600461381e565b6013602052600090815260409020805460018201546002909201546001600160a01b03909116919060ff1683565b604080516001600160a01b0390941684526020840192909252151590820152606001610391565b61039e60045481565b610385610716366004613867565b60009182526001602090815260408084206001600160a01b0393909316845291905290205460ff1690565b6103c861074f366004613c41565b611ee6565b61039e7fbc6bbe35ebc64943402c04d2ae016d7bd2bba28e1a11cf66be743c9bd74c720b81565b61046273eeeeeeeeeeeeeeeeeeeeeeeeeeeeeeeeeeeeeeee81565b61039e600081565b6103856107ac36600461381e565b6001600160a01b039081166000908152601360209081526040918290208251606081018452815490941684526001810154918401919091526002015460ff161515910181905290565b610659610803366004613d97565b6123d2565b600654610462906001600160a01b031681565b6103c8612551565b61082b61259d565b6040516103919190613e5d565b6103c861262b565b61039e61278e565b61082b61279e565b6103c861085e366004613867565b6127ab565b600e54610462906001600160a01b031681565b61039e61271081565b600c54610462906001600160a01b031681565b6103856108a036600461381e565b6127d1565b600754610462906001600160a01b031681565b60006001600160e01b031982167f7965db0b00000000000000000000000000000000000000000000000000000000148061090257506301ffc9a760e01b6001600160e01b03198316145b92915050565b610910612811565b61091d612710600a613e86565b811115610956576040517ffe925f7d00000000000000000000000000000000000000000000000000000000815260040160405180910390fd5b60048190556040518181527f611668bfcf654a99c33cdb66c29ec37a5aae5c1287d2d9715a24e18cb4d806d6906020015b60405180910390a150565b61099b82612879565b6109a4816128dc565b6109ad8161292e565b6001600160a01b0380831660009081526015602090815260408083209385168352929052205460ff1615610a0d576040517fd5b9bc9600000000000000000000000000000000000000000000000000000000815260040160405180910390fd5b6001600160a01b0380831660009081526013602090815260409182902082516060810184528154909416845260018101549184018290526002015460ff161515918301919091526003805490846001600160a01b031663c32921716040518163ffffffff1660e01b81526004016020604051808303816000875af1158015610a99573d6000803e3d6000fd5b505050506040513d601f19601f82011682018060405250810190610abd9190613eb3565b6003811115610ace57610ace613e9d565b03610b4d5760405163782aadff60e01b81526001600160a01b0386811660048301526000602483015285169063782aadff906044016020604051808303816000875af1158015610b22573d6000803e3d6000fd5b505050506040513d601f19601f82011682018060405250810190610b469190613ed0565b9050610c3f565b6000846001600160a01b031663c32921716040518163ffffffff1660e01b81526004016020604051808303816000875af1158015610b8f573d6000803e3d6000fd5b505050506040513d601f19601f82011682018060405250810190610bb39190613eb3565b6003811115610bc457610bc4613e9d565b14610c3f5760405163782aadff60e01b81526001600160a01b0386811660048301526024820184905285169063782aadff906044016020604051808303816000875af1158015610c18573d6000803e3d6000fd5b505050506040513d601f19601f82011682018060405250810190610c3c9190613ed0565b90505b6001600160a01b038581166000818152601260209081526040808320948916808452948252808320869055838352601582528083208584528252808320805460ff19166001908117909155848452601483528184208054918201815584529282902090920180546001600160a01b0319168517905581519283528201929092529081018290527ff56fa57e85e169a12200d12d9921ec069b52e688f6d309d9dab7bceff54614ec9060600160405180910390a15050505050565b610d01612811565b610d0a8161296e565b50565b610d15612811565b610d0a816129c8565b610d2782612879565b610d308161292e565b610d3a3382612a6f565b6001600160a01b0380831660009081526015602090815260408083209385168352929052205460ff16610d99576040517fc12369dc00000000000000000000000000000000000000000000000000000000815260040160405180910390fd5b6001600160a01b038083166000818152601560209081526040808320948616808452948252808320805460ff191690559282526012815282822093825292909252812055610de78282612aba565b604080516001600160a01b038085168252831660208201527ede109bef4619f7e2cf00c8e5a50ca55f8deb44f87087eed414a91dbf8d1d1b910160405180910390a15050565b6007546000906001600160a01b031681610e4a6127106064613e86565b600454600354610e5a9190613e86565b610e649190613ee9565b90506000610e756127106064613e86565b6040516302a64b8360e21b81523060048201526001600160a01b03851690630a992e0c90602401602060405180830381865afa158015610eb9573d6000803e3d6000fd5b505050506040513d601f19601f82011682018060405250810190610edd9190613ed0565b600354610eea9190613e86565b610ef49190613ee9565b90508082600354610f059190613f0b565b610f0f9190613f0b565b935050505090565b60146020528160005260406000208181548110610f3357600080fd5b6000918252602090912001546001600160a01b03169150829050565b60008281526001602081905260409091200154610f6b81612bdc565b610f758383612be6565b505050565b610f82612811565b60038190556040518181527f5bcc2c453001fb0e2ba6266d56ecb411e7c6e15c8f9c3d301f93dd36ad25726f90602001610987565b610fbf612c6d565b33600081815260136020526040812060075490916001600160a01b0390911690610fec6127106064613e86565b600454600354610ffc9190613e86565b6110069190613ee9565b905060006110176127106064613e86565b6040516302a64b8360e21b81523060048201526001600160a01b03851690630a992e0c90602401602060405180830381865afa15801561105b573d6000803e3d6000fd5b505050506040513d601f19601f8201168201806040525081019061107f9190613ed0565b60035461108c9190613e86565b6110969190613ee9565b6001600160a01b038087166000908152601360209081526040918290208251606081018452815490941684526001810154918401919091526002015460ff16151591018190529091506113ab5760028401805460ff191660019081179091556003549085015560408051808201909152600b81527f67617264656e546f6b656e0000000000000000000000000000000000000000006020820152600c5461114691906001600160a01b0316612cc6565b6111788530838560035461115a9190613f0b565b6111649190613f0b565b600c546001600160a01b0316929190612d24565b6111b76040518060400160405280601281526020017f636f6d6d756e697479466565416d6f756e74000000000000000000000000000081525083612da8565b81156112245760408051808201909152600b81527f6665655265636569766572000000000000000000000000000000000000000000602082015260065461120791906001600160a01b0316612cc6565b600654600c54611224916001600160a01b03918216911684612e06565b6112636040518060400160405280601081526020017f67617264656e73466565416d6f756e740000000000000000000000000000000081525082612da8565b8015611364576112ec6040518060600160405280602681526020016146df60269139846001600160a01b031663987435be6040518163ffffffff1660e01b8152600401602060405180830381865afa1580156112c3573d6000803e3d6000fd5b505050506040513d601f19601f820116820180604052508101906112e79190613f1e565b612cc6565b611364836001600160a01b031663987435be6040518163ffffffff1660e01b8152600401602060405180830381865afa15801561132d573d6000803e3d6000fd5b505050506040513d601f19601f820116820180604052508101906113519190613f1e565b600c546001600160a01b03169083612e06565b600354604080516001600160a01b038816815260208101929092527f67e0244e28040fec15240cd4b6c04c776a2a0278caef23b59e8ada1df31f7689910160405180910390a15b50505050506113ba6001600055565b565b6001600160a01b038116331461143f5760405162461bcd60e51b815260206004820152602f60248201527f416363657373436f6e74726f6c3a2063616e206f6e6c792072656e6f756e636560448201527f20726f6c657320666f722073656c66000000000000000000000000000000000060648201526084015b60405180910390fd5b6114498282612e36565b5050565b611455612811565b61145e8161292e565b600a80546001600160a01b0319166001600160a01b03838116918217909255600d546040805191909316815260208101919091527f83eac9fdaff0ac1017624b7eddeb9782e3d707cd894073cb7e8301a41c6e5cf89101610987565b6114c2612c6d565b6114ca612eb9565b3360008181526014602090815260408083208054825181850281018501909352808352919290919083018282801561152b57602002820191906000526020600020905b81546001600160a01b0316815260019091019060200180831161150d575b50505050509050600080600090505b82518110156116fb5782818151811061155557611555613f3b565b602090810291909101015160405163782aadff60e01b81526001600160a01b038681166004830152602482018890529091169063782aadff906044016020604051808303816000875af11580156115b0573d6000803e3d6000fd5b505050506040513d601f19601f820116820180604052508101906115d49190613ed0565b915081156116e9576001600160a01b0384166000908152601260205260408120845184929086908590811061160b5761160b613f3b565b60200260200101516001600160a01b03166001600160a01b0316815260200190815260200160002060008282546116429190613f0b565b925050819055506116e96040518060400160405280600e81526020017f537472617465677920706f77657200000000000000000000000000000000000081525060126000876001600160a01b03166001600160a01b0316815260200190815260200160002060008685815181106116bb576116bb613f3b565b60200260200101516001600160a01b03166001600160a01b0316815260200190815260200160002054612da8565b806116f381613f51565b91505061153a565b50600c54611714906001600160a01b0316843087612d24565b6001600160a01b0383166000908152601360205260408120600101805486929061173f908490613f0b565b9091555050604080516001600160a01b0385168152602081018690527f576605f9bfe8911e7508bed3763c7c5c8eb3b86e8b360b90a4bc6abe1104cb7f91015b60405180910390a1505050610d0a6001600055565b61179c612c6d565b6117a4612eb9565b336000818152601460209081526040808320600354601390935290832060010154909291906117d4908690613f6a565b101561180c576040517f9c47d02e00000000000000000000000000000000000000000000000000000000815260040160405180910390fd5b600c54611823906001600160a01b03168486612e06565b60005b8254811015611ade57600083828154811061184357611843613f3b565b6000918252602090912001546001600160a01b0316905061186b8163f1801e6160e01b612f18565b15611a12576040517f2ed04b2b0000000000000000000000000000000000000000000000000000000081526001600160a01b03868116600483015260248201889052821690632ed04b2b906044016020604051808303816000875af11580156118d8573d6000803e3d6000fd5b505050506040513d601f19601f820116820180604052508101906118fc9190613ed0565b9250600060126000876001600160a01b03166001600160a01b03168152602001908152602001600020600086858154811061193957611939613f3b565b60009182526020808320909101546001600160a01b031683528201929092526040019020549050808411156119a4576040517f8a11f3180000000000000000000000000000000000000000000000000000000081526004810185905260248101829052604401611436565b6001600160a01b038616600090815260126020526040812086548692908890879081106119d3576119d3613f3b565b60009182526020808320909101546001600160a01b0316835282019290925260400181208054909190611a07908490613f6a565b909155505050611acb565b83548490611a2290600190613f6a565b81548110611a3257611a32613f3b565b9060005260206000200160009054906101000a90046001600160a01b0316848381548110611a6257611a62613f3b565b9060005260206000200160006101000a8154816001600160a01b0302191690836001600160a01b0316021790555083805480611aa057611aa0613f7d565b600082815260209020810160001990810180546001600160a01b0319169055019055611acb8161296e565b5080611ad681613f51565b915050611826565b506001600160a01b03831660009081526013602052604081206001018054869290611b0a908490613f6a565b9091555050604080516001600160a01b0385168152602081018690527f6ee2c70b2d6b89ae808a2313aab43e925c06624271419cd665d85cfa1ae04ff8910161177f565b611b56612c6d565b611b5e612811565b60025460ff16611b9a576040517fcb63dc7200000000000000000000000000000000000000000000000000000000815260040160405180910390fd5b6001600160a01b038083166000908152601360209081526040918290208251606081018452815490941684526001810154918401919091526002015460ff1615159101819052611bfd57604051636a5cfb6d60e01b815260040160405180910390fd5b6001600160a01b038083166000908152601360209081526040918290208251606081018452815490941684526001810154918401919091526002015460ff16151590820152611c4b83612f3b565b6001600160a01b03838116600090815260136020908152604080832080546001600160a01b031916815560018101939093556002909201805460ff19169055600c5490840151915163a9059cbb60e01b8152858416600482015260248101929092529091169063a9059cbb906044016020604051808303816000875af1158015611cd9573d6000803e3d6000fd5b505050506040513d601f19601f82011682018060405250810190611cfd9190613f93565b50602080820151604080516001600160a01b0380881682528616938101939093528201527fb5946f249f8744efe9d14d49a483b54a589b1362944ff6694de93456cceb96a39060600160405180910390a1506114496001600055565b611d61612811565b600e5460405163068bcd8d60e01b8152600481018390526000916001600160a01b03169063068bcd8d90602401600060405180830381865afa158015611dab573d6000803e3d6000fd5b505050506040513d6000823e601f3d908101601f19168201604052611dd39190810190613fb0565b602001519050611de28161292e565b6114498161296e565b6008546009805460009283928392611e1a926001600160a01b03169184611e1183613f51565b9190505561305d565b9050611e28818787876123d2565b9250925050935093915050565b611e3d612811565b600e5460405163068bcd8d60e01b8152600481018390526000916001600160a01b03169063068bcd8d90602401600060405180830381865afa158015611e87573d6000803e3d6000fd5b505050506040513d6000823e601f3d908101601f19168201604052611eaf9190810190613fb0565b602001519050611ebe8161292e565b611ed86001600160a01b03821663f1801e6160e01b612f18565b1561144957611449816129c8565b611ef3816020015161292e565b611f0181610100015161292e565b8051611f0c9061292e565b611f198160a0015161292e565b611f2781610180015161292e565b606081015115611f3e57611f3e8160c0015161292e565b8051600e80546001600160a01b039283166001600160a01b0319918216179091556020830151600c80549190931691161790556040810151600003611faf576040517fc70d18aa00000000000000000000000000000000000000000000000000000000815260040160405180910390fd5b604081015160035560608101516004556101408101516002805460ff1916911515919091179055610120810151600f90611fe9908261415a565b50610160810151601090611ffd908261415a565b5060a0810151600780546001600160a01b03199081166001600160a01b039384161790915560c0830151600680548316918416919091179055610100830151600d80548316828516179055610180840151600880549093169316929092179055612088907fbc6bbe35ebc64943402c04d2ae016d7bd2bba28e1a11cf66be743c9bd74c720b90612be6565b600e60009054906101000a90046001600160a01b03166001600160a01b0316635ab1bd536040518163ffffffff1660e01b8152600401602060405180830381865afa1580156120db573d6000803e3d6000fd5b505050506040513d601f19601f820116820180604052508101906120ff9190613f1e565b600b80546001600160a01b0319166001600160a01b03928316179055600d54604080517fa0e67e2b0000000000000000000000000000000000000000000000000000000081529051600093929092169163a0e67e2b9160048082019286929091908290030181865afa158015612179573d6000803e3d6000fd5b505050506040513d6000823e601f3d908101601f191682016040526121a1919081019061421a565b90506000815160026121b39190613f0b565b67ffffffffffffffff8111156121cb576121cb61388c565b6040519080825280602002602001820160405280156121f4578160200160208202803683370190505b50905060005b82518110156122595782818151811061221557612215613f3b565b602002602001015182828151811061222f5761222f613f3b565b6001600160a01b03909216602092830291909101909101528061225181613f51565b9150506121fa565b50600d5481516001600160a01b0390911690829061227990600190613f6a565b8151811061228957612289613f3b565b60200260200101906001600160a01b031690816001600160a01b0316815250503081600283516122b99190613f6a565b815181106122c9576122c9613f3b565b6001600160a01b039283166020918202929092010152600b54608085015160e08601516040517f3a92f65f0000000000000000000000000000000000000000000000000000000081529290931692633a92f65f926123319291600f91309088906004016143ac565b6020604051808303816000875af1158015612350573d6000803e3d6000fd5b505050506040513d601f19601f820116820180604052508101906123749190613ed0565b600555805161238a9060169060208401906136e9565b507f2f2ffcb06f8a1d35e2716f6b43ef2c19bfa76467d8f66964ae12c2583ed03205600554600f8560e001516040516123c5939291906143fa565b60405180910390a1505050565b60008073eeeeeeeeeeeeeeeeeeeeeeeeeeeeeeeeeeeeeeee6001600160a01b038616156123fc5750845b8691506000601680548060200260200160405190810160405280929190818152602001828054801561245757602002820191906000526020600020905b81546001600160a01b03168152600190910190602001808311612439575b5050600e546005546040519596506001600160a01b039091169463e1007d4a945090925087915061248c908b90602001614453565b6040516020818303038152906040528660008b886040518863ffffffff1660e01b81526004016124c29796959493929190614537565b6020604051808303816000875af11580156124e1573d6000803e3d6000fd5b505050506040513d601f19601f820116820180604052508101906125059190613ed0565b93507f778cac0ae0b66477341553a4a89398c61ccf448313d3354ad0ca85a5a825d2838484308a8960405161253e9594939291906145a3565b60405180910390a1505094509492505050565b600a546001600160a01b03163314612595576040517febcd0d6e00000000000000000000000000000000000000000000000000000000815260040160405180910390fd5b6113ba6130b1565b601080546125aa906140d2565b80601f01602080910402602001604051908101604052809291908181526020018280546125d6906140d2565b80156126235780601f106125f857610100808354040283529160200191612623565b820191906000526020600020905b81548152906001019060200180831161260657829003601f168201915b505050505081565b612633612c6d565b3361263d81612879565b61264681612f3b565b6001600160a01b0380821660008181526013602090815260408083208151606081018352815496871681526001820180548286015260028301805460ff81161515848701529787526001600160a01b03199098169092559084905560ff199094169094556014905291822090916126bd919061374e565b600c54602082015160405163a9059cbb60e01b81526001600160a01b038581166004830152602482019290925291169063a9059cbb906044016020604051808303816000875af1158015612715573d6000803e3d6000fd5b505050506040513d601f19601f820116820180604052508101906127399190613f93565b50602080820151604080516001600160a01b0386168152928301919091527fa13f4668aacb68c4e9eed8e3f6e1cbec3eca776896ec46b5eabcc3983fc8f5f4910160405180910390a150506113ba6001600055565b61279b612710600a613e86565b81565b600f80546125aa906140d2565b600082815260016020819052604090912001546127c781612bdc565b610f758383612e36565b6001600160a01b03811660009081527fb5ecf5ecfeba8b6e20c37ad4ed6024e3afbcd2e706bee2e266a62cb37e60342c602052604081205460ff16610902565b3360009081527fb5ecf5ecfeba8b6e20c37ad4ed6024e3afbcd2e706bee2e266a62cb37e60342c602052604090205460ff166113ba576040517ff62651fa00000000000000000000000000000000000000000000000000000000815260040160405180910390fd5b6001600160a01b038082166000908152601360209081526040918290208251606081018452815490941684526001810154918401919091526002015460ff1615159101819052610d0a57604051636a5cfb6d60e01b815260040160405180910390fd5b6001600160a01b03811660009081526011602052604090205460ff16610d0a576040517f46c26e4b00000000000000000000000000000000000000000000000000000000815260040160405180910390fd5b6001600160a01b038116610d0a576040517fe622e04000000000000000000000000000000000000000000000000000000000815260040160405180910390fd5b6129778161292e565b6001600160a01b038116600081815260116020908152604091829020805460ff1916905590519182527f09a1db4b80c32706328728508c941a6b954f31eb5affd32f236c1fd405f8fea49101610987565b6001600160a01b03811660009081526011602052604090205460ff1615612a1b576040517f968a4d2c00000000000000000000000000000000000000000000000000000000815260040160405180910390fd5b6001600160a01b038116600081815260116020908152604091829020805460ff1916600117905590519182527f3f008fd510eae7a9e7bee13513d7b83bef8003d488b5a3d0b0da4de71d6846f19101610987565b806001600160a01b0316826001600160a01b031614611449576040517fbbe7961100000000000000000000000000000000000000000000000000000000815260040160405180910390fd5b6001600160a01b0382166000908152601460205260408120905b8154811015612bd657826001600160a01b0316828281548110612af957612af9613f3b565b6000918252602090912001546001600160a01b031603612bc45781548290612b2390600190613f6a565b81548110612b3357612b33613f3b565b9060005260206000200160009054906101000a90046001600160a01b0316828281548110612b6357612b63613f3b565b9060005260206000200160006101000a8154816001600160a01b0302191690836001600160a01b0316021790555081805480612ba157612ba1613f7d565b600082815260209020810160001990810180546001600160a01b03191690550190555b80612bce81613f51565b915050612ad4565b50505050565b610d0a813361310c565b60008281526001602090815260408083206001600160a01b038516845290915290205460ff166114495760008281526001602081815260408084206001600160a01b0386168086529252808420805460ff19169093179092559051339285917f2f8788117e7eff1d82e926ec794901d17c78024a50270940304540a733656f0d9190a45050565b600260005403612cbf5760405162461bcd60e51b815260206004820152601f60248201527f5265656e7472616e637947756172643a207265656e7472616e742063616c6c006044820152606401611436565b6002600055565b6114498282604051602401612cdc9291906145dd565b60408051601f198184030181529190526020810180516001600160e01b03167f319af33300000000000000000000000000000000000000000000000000000000179052613181565b6040516001600160a01b0380851660248301528316604482015260648101829052612bd69085907f23b872dd00000000000000000000000000000000000000000000000000000000906084015b60408051601f198184030181529190526020810180516001600160e01b03166001600160e01b0319909316929092179091526131a2565b6114498282604051602401612dbe929190614608565b60408051601f198184030181529190526020810180516001600160e01b03167f9710a9d000000000000000000000000000000000000000000000000000000000179052613181565b6040516001600160a01b038316602482015260448101829052610f7590849063a9059cbb60e01b90606401612d71565b60008281526001602090815260408083206001600160a01b038516845290915290205460ff16156114495760008281526001602090815260408083206001600160a01b0385168085529252808320805460ff1916905551339285917ff6391f5c32d9c69d2a47ea670b442974b53935d1edc7fd64eb21e047a839171b9190a45050565b33600090815260136020908152604091829020825160608101845281546001600160a01b031681526001820154928101929092526002015460ff16151591018190526113ba57604051636a5cfb6d60e01b815260040160405180910390fd5b6000612f238361328a565b8015612f345750612f3483836132bd565b9392505050565b6001600160a01b038116600090815260146020908152604080832080548251818502810185019093528083529192909190830182828015612fa557602002820191906000526020600020905b81546001600160a01b03168152600190910190602001808311612f87575b5050505050905060005b8151811015610f7557818181518110612fca57612fca613f3b565b60209081029190910101516040517f6453d9c40000000000000000000000000000000000000000000000000000000081526001600160a01b03858116600483015290911690636453d9c490602401600060405180830381600087803b15801561303257600080fd5b505af1158015613046573d6000803e3d6000fd5b50505050808061305590613f51565b915050612faf565b6040516bffffffffffffffffffffffff193360601b1660208201526034810182905260009081906054016040516020818303038152906040528051906020012090506130a98482613346565b949350505050565b600a8054600d80546001600160a01b0383166001600160a01b031991821617909155169055604051600081527fad0399dc40331b9a4977aa89da7a164a3fd482c65e6da73b25a94ea74fb688729060200160405180910390a1565b60008281526001602090815260408083206001600160a01b038516845290915290205460ff166114495761313f816133e3565b61314a8360206133f5565b60405160200161315b92919061462a565b60408051601f198184030181529082905262461bcd60e51b825261143691600401613e5d565b80516a636f6e736f6c652e6c6f67602083016000808483855afa5050505050565b60006131f7826040518060400160405280602081526020017f5361666545524332303a206c6f772d6c6576656c2063616c6c206661696c6564815250856001600160a01b03166135d69092919063ffffffff16565b90508051600014806132185750808060200190518101906132189190613f93565b610f755760405162461bcd60e51b815260206004820152602a60248201527f5361666545524332303a204552433230206f7065726174696f6e20646964206e60448201527f6f742073756363656564000000000000000000000000000000000000000000006064820152608401611436565b600061329d826301ffc9a760e01b6132bd565b801561090257506132b6826001600160e01b03196132bd565b1592915050565b604080516001600160e01b03198316602480830191909152825180830390910181526044909101909152602080820180516001600160e01b03166301ffc9a760e01b178152825160009392849283928392918391908a617530fa92503d9150600051905082801561332f575060208210155b801561333b5750600081115b979650505050505050565b6000763d602d80600a3d3981f3363d3d373d3d3d363d730000008360601b60e81c176000526e5af43d82803e903d91602b57fd5bf38360781b1760205281603760096000f590506001600160a01b0381166109025760405162461bcd60e51b815260206004820152601760248201527f455243313136373a2063726561746532206661696c65640000000000000000006044820152606401611436565b60606109026001600160a01b03831660145b60606000613404836002613e86565b61340f906002613f0b565b67ffffffffffffffff8111156134275761342761388c565b6040519080825280601f01601f191660200182016040528015613451576020820181803683370190505b5090507f30000000000000000000000000000000000000000000000000000000000000008160008151811061348857613488613f3b565b60200101906001600160f81b031916908160001a9053507f7800000000000000000000000000000000000000000000000000000000000000816001815181106134d3576134d3613f3b565b60200101906001600160f81b031916908160001a90535060006134f7846002613e86565b613502906001613f0b565b90505b6001811115613587577f303132333435363738396162636465660000000000000000000000000000000085600f166010811061354357613543613f3b565b1a60f81b82828151811061355957613559613f3b565b60200101906001600160f81b031916908160001a90535060049490941c93613580816146ab565b9050613505565b508315612f345760405162461bcd60e51b815260206004820181905260248201527f537472696e67733a20686578206c656e67746820696e73756666696369656e746044820152606401611436565b60606130a9848460008585600080866001600160a01b031685876040516135fd91906146c2565b60006040518083038185875af1925050503d806000811461363a576040519150601f19603f3d011682016040523d82523d6000602084013e61363f565b606091505b509150915061333b87838387606083156136ba5782516000036136b3576001600160a01b0385163b6136b35760405162461bcd60e51b815260206004820152601d60248201527f416464726573733a2063616c6c20746f206e6f6e2d636f6e74726163740000006044820152606401611436565b50816130a9565b6130a983838151156136cf5781518083602001fd5b8060405162461bcd60e51b81526004016114369190613e5d565b82805482825590600052602060002090810192821561373e579160200282015b8281111561373e57825182546001600160a01b0319166001600160a01b03909116178255602090920191600190910190613709565b5061374a929150613768565b5090565b5080546000825590600052602060002090810190610d0a91905b5b8082111561374a5760008155600101613769565b60006020828403121561378f57600080fd5b81356001600160e01b031981168114612f3457600080fd5b6000602082840312156137b957600080fd5b5035919050565b6001600160a01b0381168114610d0a57600080fd5b80356137e0816137c0565b919050565b600080604083850312156137f857600080fd5b8235613803816137c0565b91506020830135613813816137c0565b809150509250929050565b60006020828403121561383057600080fd5b8135612f34816137c0565b6000806040838503121561384e57600080fd5b8235613859816137c0565b946020939093013593505050565b6000806040838503121561387a57600080fd5b823591506020830135613813816137c0565b634e487b7160e01b600052604160045260246000fd5b60405160c0810167ffffffffffffffff811182821017156138c5576138c561388c565b60405290565b604051610140810167ffffffffffffffff811182821017156138c5576138c561388c565b6040805190810167ffffffffffffffff811182821017156138c5576138c561388c565b6040516101a0810167ffffffffffffffff811182821017156138c5576138c561388c565b604051601f8201601f1916810167ffffffffffffffff8111828210171561395f5761395f61388c565b604052919050565b8035600381106137e057600080fd5b60048110610d0a57600080fd5b80356137e081613976565b6000602082840312156139a057600080fd5b6040516020810181811067ffffffffffffffff821117156139c3576139c361388c565b6040529135825250919050565b600060c082840312156139e257600080fd5b6139ea6138a2565b905081356139f7816137c0565b81526020820135613a07816137c0565b8060208301525060408201356040820152606082013560608201526080820135608082015260a0820135613a3a816137c0565b60a082015292915050565b60006101e08284031215613a5857600080fd5b613a606138cb565b9050613a6b826137d5565b815260208201356020820152604082013560408201526060820135606082015260808201356080820152613aa160a08301613967565b60a0820152613ab260c08301613983565b60c0820152613ac48360e0840161398e565b60e0820152610100613ad8848285016139d0565b90820152613ae96101c083016137d5565b61012082015292915050565b600067ffffffffffffffff821115613b0f57613b0f61388c565b50601f01601f191660200190565b600082601f830112613b2e57600080fd5b8135613b41613b3c82613af5565b613936565b818152846020838601011115613b5657600080fd5b816020850160208301376000918101602001919091529392505050565b600060408284031215613b8557600080fd5b613b8d6138ef565b905081358152602082013567ffffffffffffffff811115613bad57600080fd5b613bb984828501613b1d565b60208301525092915050565b60008060006102208486031215613bdb57600080fd5b8335613be6816137c0565b9250613bf58560208601613a45565b915061020084013567ffffffffffffffff811115613c1257600080fd5b613c1e86828701613b73565b9150509250925092565b8015158114610d0a57600080fd5b80356137e081613c28565b600060208284031215613c5357600080fd5b813567ffffffffffffffff80821115613c6b57600080fd5b908301906101a08286031215613c8057600080fd5b613c88613912565b613c91836137d5565b8152613c9f602084016137d5565b6020820152604083013560408201526060830135606082015260808301356080820152613cce60a084016137d5565b60a0820152613cdf60c084016137d5565b60c082015260e083013582811115613cf657600080fd5b613d0287828601613b73565b60e083015250610100613d168185016137d5565b908201526101208381013583811115613d2e57600080fd5b613d3a88828701613b1d565b828401525050610140613d4e818501613c36565b908201526101608381013583811115613d6657600080fd5b613d7288828701613b1d565b8284015250506101809150613d888284016137d5565b91810191909152949350505050565b6000806000806102408587031215613dae57600080fd5b8435613db9816137c0565b93506020850135613dc9816137c0565b9250613dd88660408701613a45565b915061022085013567ffffffffffffffff811115613df557600080fd5b613e0187828801613b73565b91505092959194509250565b60005b83811015613e28578181015183820152602001613e10565b50506000910152565b60008151808452613e49816020860160208601613e0d565b601f01601f19169290920160200192915050565b602081526000612f346020830184613e31565b634e487b7160e01b600052601160045260246000fd5b808202811582820484141761090257610902613e70565b634e487b7160e01b600052602160045260246000fd5b600060208284031215613ec557600080fd5b8151612f3481613976565b600060208284031215613ee257600080fd5b5051919050565b600082613f0657634e487b7160e01b600052601260045260246000fd5b500490565b8082018082111561090257610902613e70565b600060208284031215613f3057600080fd5b8151612f34816137c0565b634e487b7160e01b600052603260045260246000fd5b600060018201613f6357613f63613e70565b5060010190565b8181038181111561090257610902613e70565b634e487b7160e01b600052603160045260246000fd5b600060208284031215613fa557600080fd5b8151612f3481613c28565b60006020808385031215613fc357600080fd5b825167ffffffffffffffff80821115613fdb57600080fd5b9084019060c08287031215613fef57600080fd5b613ff76138a2565b8251815283830151614008816137c0565b81850152604083015161401a816137c0565b604082015260608301518281111561403157600080fd5b83016040818903121561404357600080fd5b61404b6138ef565b81518152858201518481111561406057600080fd5b82019350601f8401891361407357600080fd5b83519150614083613b3c83613af5565b828152898784870101111561409757600080fd5b6140a683888301898801613e0d565b95810195909552506060810193909352506080818101519083015260a090810151908201529392505050565b600181811c908216806140e657607f821691505b60208210810361410657634e487b7160e01b600052602260045260246000fd5b50919050565b601f821115610f7557600081815260208120601f850160051c810160208610156141335750805b601f850160051c820191505b818110156141525782815560010161413f565b505050505050565b815167ffffffffffffffff8111156141745761417461388c565b6141888161418284546140d2565b8461410c565b602080601f8311600181146141bd57600084156141a55750858301515b600019600386901b1c1916600185901b178555614152565b600085815260208120601f198616915b828110156141ec578886015182559484019460019091019084016141cd565b508582101561420a5787850151600019600388901b60f8161c191681555b5050505050600190811b01905550565b6000602080838503121561422d57600080fd5b825167ffffffffffffffff8082111561424557600080fd5b818501915085601f83011261425957600080fd5b81518181111561426b5761426b61388c565b8060051b915061427c848301613936565b818152918301840191848101908884111561429657600080fd5b938501935b838510156142c057845192506142b0836137c0565b828252938501939085019061429b565b98975050505050505050565b600081546142d9816140d2565b8085526020600183811680156142f657600181146143105761433e565b60ff1985168884015283151560051b88018301955061433e565b866000528260002060005b858110156143365781548a820186015290830190840161431b565b890184019650505b505050505092915050565b8051825260006020820151604060208501526130a96040850182613e31565b600081518084526020808501945080840160005b838110156143a15781516001600160a01b03168752958201959082019060010161437c565b509495945050505050565b85815260a0602082015260006143c560a08301876142cc565b82810360408401526143d78187614349565b90506001600160a01b038516606084015282810360808401526142c08185614368565b83815260606020820152600061441360608301856142cc565b82810360408401526144258185614349565b9695505050505050565b6003811061443f5761443f613e9d565b9052565b6004811061443f5761443f613e9d565b81516001600160a01b031681526101e081016020830151602083015260408301516040830152606083015160608301526080830151608083015260a083015161449f60a084018261442f565b5060c08301516144b260c0840182614443565b5060e08301516144c560e0840182519052565b506101008381015180516001600160a01b03908116858401526020820151811661012086015260408201516101408601526060820151610160860152608082015161018086015260a0820151166101a085015250506101208301516001600160a01b0381166101c08401525092915050565b87815260006001600160a01b03808916602084015260e0604084015261456060e0840189613e31565b818816606085015286608085015283810360a08501526145808187614349565b91505082810360c08401526145958185614368565b9a9950505050505050505050565b85815260006001600160a01b038087166020840152808616604084015280851660608401525060a0608083015261333b60a0830184614349565b6040815260006145f06040830185613e31565b90506001600160a01b03831660208301529392505050565b60408152600061461b6040830185613e31565b90508260208301529392505050565b7f416363657373436f6e74726f6c3a206163636f756e7420000000000000000000815260008351614662816017850160208801613e0d565b7f206973206d697373696e6720726f6c6520000000000000000000000000000000601791840191820152835161469f816028840160208801613e0d565b01602801949350505050565b6000816146ba576146ba613e70565b506000190190565b600082516146d4818460208701613e0d565b919091019291505056fe67617264656e73466163746f72792e67657447617264656e7346656552656365697665722829a26469706673582212206cb87c50053800336efa5f9706ca34d95e0785d29250be615e52c562a0261f7864736f6c63430008130033","linkReferences":{}},"methodIdentifiers":{"COUNCIL_MEMBER_CHANGE()":"a0b21cdf","DEFAULT_ADMIN_ROLE()":"a217fddf","MAX_FEE()":"bc063e1a","NATIVE()":"a0cf0aea","PRECISION_SCALE()":"d7050f07","acceptCouncilSafe()":"b5058c50","activateMemberInStrategy(address,address)":"0d4a8b49","addStrategy(address)":"223e5479","addStrategyByPoolId(uint256)":"82d6a1e7","addressToMemberInfo(address)":"88cfe684","allo()":"d6d8428d","cloneNonce()":"33960459","communityFee()":"8961be6b","communityName()":"c6d572ae","councilSafe()":"6c53db9a","covenantIpfsHash()":"b64e39af","createPool(address,(address,uint256,uint256,uint256,uint256,uint8,uint8,(uint256),(address,address,uint256,uint256,uint256,address),address),(uint256,string))":"796de3a2","createPool(address,address,(address,uint256,uint256,uint256,uint256,uint8,uint8,(uint256),(address,address,uint256,uint256,uint256,address),address),(uint256,string))":"ab6bc62e","deactivateMemberInStrategy(address,address)":"22bcf999","decreasePower(uint256)":"5ecf71c5","enabledStrategies(address)":"3a871fe1","feeReceiver()":"b3f00674","gardenToken()":"db61d65c","getBasisStakedAmount()":"0331383c","getMemberPowerInStrategy(address,address)":"7817ee4f","getMemberStakedAmount(address)":"2c611c4a","getRoleAdmin(bytes32)":"248a9ca3","getStakeAmountWithFees()":"28c309e9","grantRole(bytes32,address)":"2f2ff15d","hasRole(bytes32,address)":"91d14854","increasePower(uint256)":"559de05d","initialize((address,address,uint256,uint256,uint256,address,address,(uint256,string),address,string,bool,string,address))":"96f0adec","isCouncilMember(address)":"ebd7dc52","isKickEnabled()":"1f787d28","isMember(address)":"a230c524","kickMember(address,address)":"6871eb4d","memberActivatedInStrategies(address,address)":"477a5cc0","memberPowerInStrategy(address,address)":"65e3864c","pendingCouncilSafe()":"68decabb","profileId()":"08386eba","registerStakeAmount()":"78a0b8a9","registry()":"7b103999","registryFactory()":"f86c5f89","removeStrategy(address)":"175188e8","removeStrategyByPoolId(uint256)":"73265c37","renounceRole(bytes32,address)":"36568abe","revokeRole(bytes32,address)":"d547741f","setBasisStakedAmount(uint256)":"31f61bca","setCommunityFee(uint256)":"0d12bbdb","setCouncilSafe(address)":"397e2543","stakeAndRegisterMember()":"3517aa7d","strategiesByMember(address,uint256)":"2b38c69c","strategyTemplate()":"5c94e4d2","supportsInterface(bytes4)":"01ffc9a7","unregisterMember()":"b99b4370"},"storageLayout":{"storage":[{"astId":56224,"contract":"pkg/contracts/src/RegistryCommunity.sol:RegistryCommunity","label":"_status","offset":0,"slot":"0","type":"t_uint256"},{"astId":55017,"contract":"pkg/contracts/src/RegistryCommunity.sol:RegistryCommunity","label":"_roles","offset":0,"slot":"1","type":"t_mapping(t_bytes32,t_struct(RoleData)55012_storage)"},{"astId":83328,"contract":"pkg/contracts/src/RegistryCommunity.sol:RegistryCommunity","label":"isKickEnabled","offset":0,"slot":"2","type":"t_bool"},{"astId":83330,"contract":"pkg/contracts/src/RegistryCommunity.sol:RegistryCommunity","label":"registerStakeAmount","offset":0,"slot":"3","type":"t_uint256"},{"astId":83332,"contract":"pkg/contracts/src/RegistryCommunity.sol:RegistryCommunity","label":"communityFee","offset":0,"slot":"4","type":"t_uint256"},{"astId":83334,"contract":"pkg/contracts/src/RegistryCommunity.sol:RegistryCommunity","label":"profileId","offset":0,"slot":"5","type":"t_bytes32"},{"astId":83336,"contract":"pkg/contracts/src/RegistryCommunity.sol:RegistryCommunity","label":"feeReceiver","offset":0,"slot":"6","type":"t_address"},{"astId":83338,"contract":"pkg/contracts/src/RegistryCommunity.sol:RegistryCommunity","label":"registryFactory","offset":0,"slot":"7","type":"t_address"},{"astId":83340,"contract":"pkg/contracts/src/RegistryCommunity.sol:RegistryCommunity","label":"strategyTemplate","offset":0,"slot":"8","type":"t_address"},{"astId":83342,"contract":"pkg/contracts/src/RegistryCommunity.sol:RegistryCommunity","label":"cloneNonce","offset":0,"slot":"9","type":"t_uint256"},{"astId":83344,"contract":"pkg/contracts/src/RegistryCommunity.sol:RegistryCommunity","label":"pendingCouncilSafe","offset":0,"slot":"10","type":"t_address_payable"},{"astId":83347,"contract":"pkg/contracts/src/RegistryCommunity.sol:RegistryCommunity","label":"registry","offset":0,"slot":"11","type":"t_contract(IRegistry)2802"},{"astId":83350,"contract":"pkg/contracts/src/RegistryCommunity.sol:RegistryCommunity","label":"gardenToken","offset":0,"slot":"12","type":"t_contract(IERC20)57069"},{"astId":83353,"contract":"pkg/contracts/src/RegistryCommunity.sol:RegistryCommunity","label":"councilSafe","offset":0,"slot":"13","type":"t_contract(ISafe)87940"},{"astId":83356,"contract":"pkg/contracts/src/RegistryCommunity.sol:RegistryCommunity","label":"allo","offset":0,"slot":"14","type":"t_contract(FAllo)83033"},{"astId":83358,"contract":"pkg/contracts/src/RegistryCommunity.sol:RegistryCommunity","label":"communityName","offset":0,"slot":"15","type":"t_string_storage"},{"astId":83360,"contract":"pkg/contracts/src/RegistryCommunity.sol:RegistryCommunity","label":"covenantIpfsHash","offset":0,"slot":"16","type":"t_string_storage"},{"astId":83364,"contract":"pkg/contracts/src/RegistryCommunity.sol:RegistryCommunity","label":"enabledStrategies","offset":0,"slot":"17","type":"t_mapping(t_address,t_bool)"},{"astId":83370,"contract":"pkg/contracts/src/RegistryCommunity.sol:RegistryCommunity","label":"memberPowerInStrategy","offset":0,"slot":"18","type":"t_mapping(t_address,t_mapping(t_address,t_uint256))"},{"astId":83375,"contract":"pkg/contracts/src/RegistryCommunity.sol:RegistryCommunity","label":"addressToMemberInfo","offset":0,"slot":"19","type":"t_mapping(t_address,t_struct(Member)83293_storage)"},{"astId":83380,"contract":"pkg/contracts/src/RegistryCommunity.sol:RegistryCommunity","label":"strategiesByMember","offset":0,"slot":"20","type":"t_mapping(t_address,t_array(t_address)dyn_storage)"},{"astId":83386,"contract":"pkg/contracts/src/RegistryCommunity.sol:RegistryCommunity","label":"memberActivatedInStrategies","offset":0,"slot":"21","type":"t_mapping(t_address,t_mapping(t_address,t_bool))"},{"astId":83389,"contract":"pkg/contracts/src/RegistryCommunity.sol:RegistryCommunity","label":"initialMembers","offset":0,"slot":"22","type":"t_array(t_address)dyn_storage"}],"types":{"t_address":{"encoding":"inplace","label":"address","numberOfBytes":"20"},"t_address_payable":{"encoding":"inplace","label":"address payable","numberOfBytes":"20"},"t_array(t_address)dyn_storage":{"encoding":"dynamic_array","label":"address[]","numberOfBytes":"32","base":"t_address"},"t_bool":{"encoding":"inplace","label":"bool","numberOfBytes":"1"},"t_bytes32":{"encoding":"inplace","label":"bytes32","numberOfBytes":"32"},"t_contract(FAllo)83033":{"encoding":"inplace","label":"contract FAllo","numberOfBytes":"20"},"t_contract(IERC20)57069":{"encoding":"inplace","label":"contract IERC20","numberOfBytes":"20"},"t_contract(IRegistry)2802":{"encoding":"inplace","label":"contract IRegistry","numberOfBytes":"20"},"t_contract(ISafe)87940":{"encoding":"inplace","label":"contract ISafe","numberOfBytes":"20"},"t_mapping(t_address,t_array(t_address)dyn_storage)":{"encoding":"mapping","key":"t_address","label":"mapping(address => address[])","numberOfBytes":"32","value":"t_array(t_address)dyn_storage"},"t_mapping(t_address,t_bool)":{"encoding":"mapping","key":"t_address","label":"mapping(address => bool)","numberOfBytes":"32","value":"t_bool"},"t_mapping(t_address,t_mapping(t_address,t_bool))":{"encoding":"mapping","key":"t_address","label":"mapping(address => mapping(address => bool))","numberOfBytes":"32","value":"t_mapping(t_address,t_bool)"},"t_mapping(t_address,t_mapping(t_address,t_uint256))":{"encoding":"mapping","key":"t_address","label":"mapping(address => mapping(address => uint256))","numberOfBytes":"32","value":"t_mapping(t_address,t_uint256)"},"t_mapping(t_address,t_struct(Member)83293_storage)":{"encoding":"mapping","key":"t_address","label":"mapping(address => struct RegistryCommunity.Member)","numberOfBytes":"32","value":"t_struct(Member)83293_storage"},"t_mapping(t_address,t_uint256)":{"encoding":"mapping","key":"t_address","label":"mapping(address => uint256)","numberOfBytes":"32","value":"t_uint256"},"t_mapping(t_bytes32,t_struct(RoleData)55012_storage)":{"encoding":"mapping","key":"t_bytes32","label":"mapping(bytes32 => struct AccessControl.RoleData)","numberOfBytes":"32","value":"t_struct(RoleData)55012_storage"},"t_string_storage":{"encoding":"bytes","label":"string","numberOfBytes":"32"},"t_struct(Member)83293_storage":{"encoding":"inplace","label":"struct RegistryCommunity.Member","numberOfBytes":"96","members":[{"astId":83288,"contract":"pkg/contracts/src/RegistryCommunity.sol:RegistryCommunity","label":"member","offset":0,"slot":"0","type":"t_address"},{"astId":83290,"contract":"pkg/contracts/src/RegistryCommunity.sol:RegistryCommunity","label":"stakedAmount","offset":0,"slot":"1","type":"t_uint256"},{"astId":83292,"contract":"pkg/contracts/src/RegistryCommunity.sol:RegistryCommunity","label":"isRegistered","offset":0,"slot":"2","type":"t_bool"}]},"t_struct(RoleData)55012_storage":{"encoding":"inplace","label":"struct AccessControl.RoleData","numberOfBytes":"64","members":[{"astId":55009,"contract":"pkg/contracts/src/RegistryCommunity.sol:RegistryCommunity","label":"members","offset":0,"slot":"0","type":"t_mapping(t_address,t_bool)"},{"astId":55011,"contract":"pkg/contracts/src/RegistryCommunity.sol:RegistryCommunity","label":"adminRole","offset":0,"slot":"1","type":"t_bytes32"}]},"t_uint256":{"encoding":"inplace","label":"uint256","numberOfBytes":"32"}}},"id":136}