{"abi":[{"type":"function","name":"DEFAULT_ADMIN_ROLE","inputs":[],"outputs":[{"name":"","type":"bytes32","internalType":"bytes32"}],"stateMutability":"view"},{"type":"function","name":"NATIVE","inputs":[],"outputs":[{"name":"","type":"address","internalType":"address"}],"stateMutability":"view"},{"type":"function","name":"addPoolManager","inputs":[{"name":"_poolId","type":"uint256","internalType":"uint256"},{"name":"_manager","type":"address","internalType":"address"}],"outputs":[],"stateMutability":"nonpayable"},{"type":"function","name":"addToCloneableStrategies","inputs":[{"name":"_strategy","type":"address","internalType":"address"}],"outputs":[],"stateMutability":"nonpayable"},{"type":"function","name":"allocate","inputs":[{"name":"_poolId","type":"uint256","internalType":"uint256"},{"name":"_data","type":"bytes","internalType":"bytes"}],"outputs":[],"stateMutability":"payable"},{"type":"function","name":"batchAllocate","inputs":[{"name":"_poolIds","type":"uint256[]","internalType":"uint256[]"},{"name":"_datas","type":"bytes[]","internalType":"bytes[]"}],"outputs":[],"stateMutability":"nonpayable"},{"type":"function","name":"batchRegisterRecipient","inputs":[{"name":"_poolIds","type":"uint256[]","internalType":"uint256[]"},{"name":"_data","type":"bytes[]","internalType":"bytes[]"}],"outputs":[{"name":"recipientIds","type":"address[]","internalType":"address[]"}],"stateMutability":"nonpayable"},{"type":"function","name":"cancelOwnershipHandover","inputs":[],"outputs":[],"stateMutability":"payable"},{"type":"function","name":"completeOwnershipHandover","inputs":[{"name":"pendingOwner","type":"address","internalType":"address"}],"outputs":[],"stateMutability":"payable"},{"type":"function","name":"createPool","inputs":[{"name":"_profileId","type":"bytes32","internalType":"bytes32"},{"name":"_strategy","type":"address","internalType":"address"},{"name":"_initStrategyData","type":"bytes","internalType":"bytes"},{"name":"_token","type":"address","internalType":"address"},{"name":"_amount","type":"uint256","internalType":"uint256"},{"name":"_metadata","type":"tuple","internalType":"struct Metadata","components":[{"name":"protocol","type":"uint256","internalType":"uint256"},{"name":"pointer","type":"string","internalType":"string"}]},{"name":"_managers","type":"address[]","internalType":"address[]"}],"outputs":[{"name":"poolId","type":"uint256","internalType":"uint256"}],"stateMutability":"payable"},{"type":"function","name":"createPoolWithCustomStrategy","inputs":[{"name":"_profileId","type":"bytes32","internalType":"bytes32"},{"name":"_strategy","type":"address","internalType":"address"},{"name":"_initStrategyData","type":"bytes","internalType":"bytes"},{"name":"_token","type":"address","internalType":"address"},{"name":"_amount","type":"uint256","internalType":"uint256"},{"name":"_metadata","type":"tuple","internalType":"struct Metadata","components":[{"name":"protocol","type":"uint256","internalType":"uint256"},{"name":"pointer","type":"string","internalType":"string"}]},{"name":"_managers","type":"address[]","internalType":"address[]"}],"outputs":[{"name":"poolId","type":"uint256","internalType":"uint256"}],"stateMutability":"payable"},{"type":"function","name":"distribute","inputs":[{"name":"_poolId","type":"uint256","internalType":"uint256"},{"name":"_recipientIds","type":"address[]","internalType":"address[]"},{"name":"_data","type":"bytes","internalType":"bytes"}],"outputs":[],"stateMutability":"nonpayable"},{"type":"function","name":"fundPool","inputs":[{"name":"_poolId","type":"uint256","internalType":"uint256"},{"name":"_amount","type":"uint256","internalType":"uint256"}],"outputs":[],"stateMutability":"payable"},{"type":"function","name":"getBaseFee","inputs":[],"outputs":[{"name":"","type":"uint256","internalType":"uint256"}],"stateMutability":"view"},{"type":"function","name":"getFeeDenominator","inputs":[],"outputs":[{"name":"FEE_DENOMINATOR","type":"uint256","internalType":"uint256"}],"stateMutability":"pure"},{"type":"function","name":"getPercentFee","inputs":[],"outputs":[{"name":"","type":"uint256","internalType":"uint256"}],"stateMutability":"view"},{"type":"function","name":"getPool","inputs":[{"name":"_poolId","type":"uint256","internalType":"uint256"}],"outputs":[{"name":"","type":"tuple","internalType":"struct IAllo.Pool","components":[{"name":"profileId","type":"bytes32","internalType":"bytes32"},{"name":"strategy","type":"address","internalType":"contract IStrategy"},{"name":"token","type":"address","internalType":"address"},{"name":"metadata","type":"tuple","internalType":"struct Metadata","components":[{"name":"protocol","type":"uint256","internalType":"uint256"},{"name":"pointer","type":"string","internalType":"string"}]},{"name":"managerRole","type":"bytes32","internalType":"bytes32"},{"name":"adminRole","type":"bytes32","internalType":"bytes32"}]}],"stateMutability":"view"},{"type":"function","name":"getRegistry","inputs":[],"outputs":[{"name":"","type":"address","internalType":"contract IRegistry"}],"stateMutability":"view"},{"type":"function","name":"getRoleAdmin","inputs":[{"name":"role","type":"bytes32","internalType":"bytes32"}],"outputs":[{"name":"","type":"bytes32","internalType":"bytes32"}],"stateMutability":"view"},{"type":"function","name":"getStrategy","inputs":[{"name":"_poolId","type":"uint256","internalType":"uint256"}],"outputs":[{"name":"","type":"address","internalType":"address"}],"stateMutability":"view"},{"type":"function","name":"getTreasury","inputs":[],"outputs":[{"name":"","type":"address","internalType":"address payable"}],"stateMutability":"view"},{"type":"function","name":"grantRole","inputs":[{"name":"role","type":"bytes32","internalType":"bytes32"},{"name":"account","type":"address","internalType":"address"}],"outputs":[],"stateMutability":"nonpayable"},{"type":"function","name":"hasRole","inputs":[{"name":"role","type":"bytes32","internalType":"bytes32"},{"name":"account","type":"address","internalType":"address"}],"outputs":[{"name":"","type":"bool","internalType":"bool"}],"stateMutability":"view"},{"type":"function","name":"initialize","inputs":[{"name":"_owner","type":"address","internalType":"address"},{"name":"_registry","type":"address","internalType":"address"},{"name":"_treasury","type":"address","internalType":"address payable"},{"name":"_percentFee","type":"uint256","internalType":"uint256"},{"name":"_baseFee","type":"uint256","internalType":"uint256"}],"outputs":[],"stateMutability":"nonpayable"},{"type":"function","name":"isCloneableStrategy","inputs":[{"name":"_strategy","type":"address","internalType":"address"}],"outputs":[{"name":"","type":"bool","internalType":"bool"}],"stateMutability":"view"},{"type":"function","name":"isPoolAdmin","inputs":[{"name":"_poolId","type":"uint256","internalType":"uint256"},{"name":"_address","type":"address","internalType":"address"}],"outputs":[{"name":"","type":"bool","internalType":"bool"}],"stateMutability":"view"},{"type":"function","name":"isPoolManager","inputs":[{"name":"_poolId","type":"uint256","internalType":"uint256"},{"name":"_address","type":"address","internalType":"address"}],"outputs":[{"name":"","type":"bool","internalType":"bool"}],"stateMutability":"view"},{"type":"function","name":"owner","inputs":[],"outputs":[{"name":"result","type":"address","internalType":"address"}],"stateMutability":"view"},{"type":"function","name":"ownershipHandoverExpiresAt","inputs":[{"name":"pendingOwner","type":"address","internalType":"address"}],"outputs":[{"name":"result","type":"uint256","internalType":"uint256"}],"stateMutability":"view"},{"type":"function","name":"recoverFunds","inputs":[{"name":"_token","type":"address","internalType":"address"},{"name":"_recipient","type":"address","internalType":"address"}],"outputs":[],"stateMutability":"nonpayable"},{"type":"function","name":"registerRecipient","inputs":[{"name":"_poolId","type":"uint256","internalType":"uint256"},{"name":"_data","type":"bytes","internalType":"bytes"}],"outputs":[{"name":"","type":"address","internalType":"address"}],"stateMutability":"payable"},{"type":"function","name":"removeFromCloneableStrategies","inputs":[{"name":"_strategy","type":"address","internalType":"address"}],"outputs":[],"stateMutability":"nonpayable"},{"type":"function","name":"removePoolManager","inputs":[{"name":"_poolId","type":"uint256","internalType":"uint256"},{"name":"_manager","type":"address","internalType":"address"}],"outputs":[],"stateMutability":"nonpayable"},{"type":"function","name":"renounceOwnership","inputs":[],"outputs":[],"stateMutability":"payable"},{"type":"function","name":"renounceRole","inputs":[{"name":"role","type":"bytes32","internalType":"bytes32"},{"name":"account","type":"address","internalType":"address"}],"outputs":[],"stateMutability":"nonpayable"},{"type":"function","name":"requestOwnershipHandover","inputs":[],"outputs":[],"stateMutability":"payable"},{"type":"function","name":"revokeRole","inputs":[{"name":"role","type":"bytes32","internalType":"bytes32"},{"name":"account","type":"address","internalType":"address"}],"outputs":[],"stateMutability":"nonpayable"},{"type":"function","name":"supportsInterface","inputs":[{"name":"interfaceId","type":"bytes4","internalType":"bytes4"}],"outputs":[{"name":"","type":"bool","internalType":"bool"}],"stateMutability":"view"},{"type":"function","name":"transferOwnership","inputs":[{"name":"newOwner","type":"address","internalType":"address"}],"outputs":[],"stateMutability":"payable"},{"type":"function","name":"updateBaseFee","inputs":[{"name":"_baseFee","type":"uint256","internalType":"uint256"}],"outputs":[],"stateMutability":"nonpayable"},{"type":"function","name":"updatePercentFee","inputs":[{"name":"_percentFee","type":"uint256","internalType":"uint256"}],"outputs":[],"stateMutability":"nonpayable"},{"type":"function","name":"updatePoolMetadata","inputs":[{"name":"_poolId","type":"uint256","internalType":"uint256"},{"name":"_metadata","type":"tuple","internalType":"struct Metadata","components":[{"name":"protocol","type":"uint256","internalType":"uint256"},{"name":"pointer","type":"string","internalType":"string"}]}],"outputs":[],"stateMutability":"nonpayable"},{"type":"function","name":"updateRegistry","inputs":[{"name":"_registry","type":"address","internalType":"address"}],"outputs":[],"stateMutability":"nonpayable"},{"type":"function","name":"updateTreasury","inputs":[{"name":"_treasury","type":"address","internalType":"address payable"}],"outputs":[],"stateMutability":"nonpayable"},{"type":"event","name":"BaseFeePaid","inputs":[{"name":"poolId","type":"uint256","indexed":true,"internalType":"uint256"},{"name":"amount","type":"uint256","indexed":false,"internalType":"uint256"}],"anonymous":false},{"type":"event","name":"BaseFeeUpdated","inputs":[{"name":"baseFee","type":"uint256","indexed":false,"internalType":"uint256"}],"anonymous":false},{"type":"event","name":"Initialized","inputs":[{"name":"version","type":"uint8","indexed":false,"internalType":"uint8"}],"anonymous":false},{"type":"event","name":"OwnershipHandoverCanceled","inputs":[{"name":"pendingOwner","type":"address","indexed":true,"internalType":"address"}],"anonymous":false},{"type":"event","name":"OwnershipHandoverRequested","inputs":[{"name":"pendingOwner","type":"address","indexed":true,"internalType":"address"}],"anonymous":false},{"type":"event","name":"OwnershipTransferred","inputs":[{"name":"oldOwner","type":"address","indexed":true,"internalType":"address"},{"name":"newOwner","type":"address","indexed":true,"internalType":"address"}],"anonymous":false},{"type":"event","name":"PercentFeeUpdated","inputs":[{"name":"percentFee","type":"uint256","indexed":false,"internalType":"uint256"}],"anonymous":false},{"type":"event","name":"PoolCreated","inputs":[{"name":"poolId","type":"uint256","indexed":true,"internalType":"uint256"},{"name":"profileId","type":"bytes32","indexed":true,"internalType":"bytes32"},{"name":"strategy","type":"address","indexed":false,"internalType":"contract IStrategy"},{"name":"token","type":"address","indexed":false,"internalType":"address"},{"name":"amount","type":"uint256","indexed":false,"internalType":"uint256"},{"name":"metadata","type":"tuple","indexed":false,"internalType":"struct Metadata","components":[{"name":"protocol","type":"uint256","internalType":"uint256"},{"name":"pointer","type":"string","internalType":"string"}]}],"anonymous":false},{"type":"event","name":"PoolFunded","inputs":[{"name":"poolId","type":"uint256","indexed":true,"internalType":"uint256"},{"name":"amount","type":"uint256","indexed":false,"internalType":"uint256"},{"name":"fee","type":"uint256","indexed":false,"internalType":"uint256"}],"anonymous":false},{"type":"event","name":"PoolMetadataUpdated","inputs":[{"name":"poolId","type":"uint256","indexed":true,"internalType":"uint256"},{"name":"metadata","type":"tuple","indexed":false,"internalType":"struct Metadata","components":[{"name":"protocol","type":"uint256","internalType":"uint256"},{"name":"pointer","type":"string","internalType":"string"}]}],"anonymous":false},{"type":"event","name":"RegistryUpdated","inputs":[{"name":"registry","type":"address","indexed":false,"internalType":"address"}],"anonymous":false},{"type":"event","name":"RoleAdminChanged","inputs":[{"name":"role","type":"bytes32","indexed":true,"internalType":"bytes32"},{"name":"previousAdminRole","type":"bytes32","indexed":true,"internalType":"bytes32"},{"name":"newAdminRole","type":"bytes32","indexed":true,"internalType":"bytes32"}],"anonymous":false},{"type":"event","name":"RoleGranted","inputs":[{"name":"role","type":"bytes32","indexed":true,"internalType":"bytes32"},{"name":"account","type":"address","indexed":true,"internalType":"address"},{"name":"sender","type":"address","indexed":true,"internalType":"address"}],"anonymous":false},{"type":"event","name":"RoleRevoked","inputs":[{"name":"role","type":"bytes32","indexed":true,"internalType":"bytes32"},{"name":"account","type":"address","indexed":true,"internalType":"address"},{"name":"sender","type":"address","indexed":true,"internalType":"address"}],"anonymous":false},{"type":"event","name":"StrategyApproved","inputs":[{"name":"strategy","type":"address","indexed":false,"internalType":"address"}],"anonymous":false},{"type":"event","name":"StrategyRemoved","inputs":[{"name":"strategy","type":"address","indexed":false,"internalType":"address"}],"anonymous":false},{"type":"event","name":"TreasuryUpdated","inputs":[{"name":"treasury","type":"address","indexed":false,"internalType":"address"}],"anonymous":false},{"type":"error","name":"ALLOCATION_ACTIVE","inputs":[]},{"type":"error","name":"ALLOCATION_NOT_ACTIVE","inputs":[]},{"type":"error","name":"ALLOCATION_NOT_ENDED","inputs":[]},{"type":"error","name":"ALREADY_INITIALIZED","inputs":[]},{"type":"error","name":"AMOUNT_MISMATCH","inputs":[]},{"type":"error","name":"ANCHOR_ERROR","inputs":[]},{"type":"error","name":"ARRAY_MISMATCH","inputs":[]},{"type":"error","name":"INVALID","inputs":[]},{"type":"error","name":"INVALID_ADDRESS","inputs":[]},{"type":"error","name":"INVALID_FEE","inputs":[]},{"type":"error","name":"INVALID_METADATA","inputs":[]},{"type":"error","name":"INVALID_REGISTRATION","inputs":[]},{"type":"error","name":"IS_APPROVED_STRATEGY","inputs":[]},{"type":"error","name":"MISMATCH","inputs":[]},{"type":"error","name":"NONCE_NOT_AVAILABLE","inputs":[]},{"type":"error","name":"NON_ZERO_VALUE","inputs":[]},{"type":"error","name":"NOT_APPROVED_STRATEGY","inputs":[]},{"type":"error","name":"NOT_ENOUGH_FUNDS","inputs":[]},{"type":"error","name":"NOT_IMPLEMENTED","inputs":[]},{"type":"error","name":"NOT_INITIALIZED","inputs":[]},{"type":"error","name":"NOT_PENDING_OWNER","inputs":[]},{"type":"error","name":"NewOwnerIsZeroAddress","inputs":[]},{"type":"error","name":"NoHandoverRequest","inputs":[]},{"type":"error","name":"POOL_ACTIVE","inputs":[]},{"type":"error","name":"POOL_INACTIVE","inputs":[]},{"type":"error","name":"RECIPIENT_ALREADY_ACCEPTED","inputs":[]},{"type":"error","name":"RECIPIENT_ERROR","inputs":[{"name":"recipientId","type":"address","internalType":"address"}]},{"type":"error","name":"RECIPIENT_NOT_ACCEPTED","inputs":[]},{"type":"error","name":"REGISTRATION_ACTIVE","inputs":[]},{"type":"error","name":"REGISTRATION_NOT_ACTIVE","inputs":[]},{"type":"error","name":"UNAUTHORIZED","inputs":[]},{"type":"error","name":"Unauthorized","inputs":[]},{"type":"error","name":"ZERO_ADDRESS","inputs":[]}],"bytecode":{"object":"0x608060405234801561000f575f80fd5b50612fde8061001d5f395ff3fe6080604052600436106101f6575f3560e01c806301ffc9a7146101fa578063031e2fa11461022e578063068bcd8d1461024f578063075c0e9c1461027b57806315e812ad1461029b5780631a20bd88146102b95780631a5da6c8146102e5578063248a9ca31461030457806324ae6a2714610323578063256929621461034257806329e40d4b1461034a5780632cf682b0146103695780632ec38188146103885780632f2ff15d1461039b57806336568abe146103ba5780633a5fbd92146103d95780633b19e84a146103f857806341bba0b4146104155780634edbaadc1461043457806354d1f13d146104485780635ab1bd53146104505780635acd6fac1461046d5780635f9ca13814610480578063715018a61461049f57806377da8caf146104a75780637f51bb1f146104ba5780637f5a70bd146104d95780638da5cb5b146104f85780638e6901861461051057806391d148541461052f578063a0cf0aea1461054e578063a217fddf14610575578063a6b63eb814610588578063ab2ec589146105a7578063ab3febc6146105c6578063c6dff1cf146105e5578063cfc0cc3414610604578063d547741f1461063b578063e1007d4a1461065a578063f04e283e1461066d578063f2fde38b14610680578063f4e1fc4114610693578063f54fc4a0146106ad578063fee81cf4146106cc575b5f80fd5b348015610205575f80fd5b5061021961021436600461249a565b6106fd565b60405190151581526020015b60405180910390f35b348015610239575f80fd5b5061024d6102483660046124d5565b610733565b005b34801561025a575f80fd5b5061026e6102693660046124f0565b610795565b6040516102259190612572565b61028e61028936600461268f565b6108a5565b60405161022591906126d2565b3480156102a6575f80fd5b5060ca545b604051908152602001610225565b3480156102c4575f80fd5b506102d86102d3366004612792565b61093e565b604051610225919061287d565b3480156102f0575f80fd5b5061024d6102ff3660046124d5565b610abd565b34801561030f575f80fd5b506102ab61031e3660046124f0565b610ad1565b34801561032e575f80fd5b5061024d61033d36600461288f565b610ae5565b61024d610b96565b348015610355575f80fd5b506102196103643660046128c6565b610be2565b348015610374575f80fd5b5061024d6103833660046128c6565b610bf4565b61024d61039636600461268f565b610c40565b3480156103a6575f80fd5b5061024d6103b53660046128c6565b610c60565b3480156103c5575f80fd5b5061024d6103d43660046128c6565b610c7c565b3480156103e4575f80fd5b5061024d6103f336600461294e565b610cfb565b348015610403575f80fd5b5060cc546001600160a01b031661028e565b348015610420575f80fd5b5061024d61042f3660046124d5565b610d7d565b34801561043f575f80fd5b5060c9546102ab565b61024d610dfe565b34801561045b575f80fd5b5060cd546001600160a01b031661028e565b61024d61047b3660046129b5565b610e37565b34801561048b575f80fd5b5061024d61049a366004612a53565b610fca565b61024d611046565b6102ab6104b5366004612a8c565b611059565b3480156104c5575f80fd5b5061024d6104d43660046124d5565b6110da565b3480156104e4575f80fd5b5061024d6104f33660046128c6565b6110eb565b348015610503575f80fd5b50638b78c6d8195461028e565b34801561051b575f80fd5b5061024d61052a3660046124f0565b611110565b34801561053a575f80fd5b506102196105493660046128c6565b611121565b348015610559575f80fd5b5061028e73eeeeeeeeeeeeeeeeeeeeeeeeeeeeeeeeeeeeeeee81565b348015610580575f80fd5b506102ab5f81565b348015610593575f80fd5b5061024d6105a2366004612b46565b61114b565b3480156105b2575f80fd5b506102196105c13660046124d5565b611256565b3480156105d1575f80fd5b506102196105e03660046128c6565b611260565b3480156105f0575f80fd5b5061024d6105ff366004612b9d565b61126b565b34801561060f575f80fd5b5061028e61061e3660046124f0565b5f90815260cf60205260409020600101546001600160a01b031690565b348015610646575f80fd5b5061024d6106553660046128c6565b6112ef565b6102ab610668366004612a8c565b61130b565b61024d61067b3660046124d5565b611375565b61024d61068e3660046124d5565b6113af565b34801561069e575f80fd5b50670de0b6b3a76400006102ab565b3480156106b8575f80fd5b5061024d6106c73660046124f0565b6113d5565b3480156106d7575f80fd5b506102ab6106e63660046124d5565b63389a75e1600c9081525f91909152602090205490565b5f6001600160e01b03198216637965db0b60e01b148061072d57506301ffc9a760e01b6001600160e01b03198316145b92915050565b61073b6113e6565b6001600160a01b0381165f90815260d0602052604090819020805460ff19169055517f09a1db4b80c32706328728508c941a6b954f31eb5affd32f236c1fd405f8fea49061078a9083906126d2565b60405180910390a150565b61079d612439565b5f82815260cf6020908152604091829020825160c0810184528154815260018201546001600160a01b0390811682850152600283015416818501528351808501909452600382018054855260048301805492959394606087019493908401919061080690612c21565b80601f016020809104026020016040519081016040528092919081815260200182805461083290612c21565b801561087d5780601f106108545761010080835404028352916020019161087d565b820191905f5260205f20905b81548152906001019060200180831161086057829003601f168201915b5050505050815250508152602001600582015481526020016006820154815250509050919050565b5f6108ae611400565b5f83815260cf6020526040908190206001015490516315df065760e11b81526001600160a01b0390911690632bbe0cae9034906108f19086903390600401612c59565b60206040518083038185885af115801561090d573d5f803e3d5ffd5b50505050506040513d601f19601f820116820180604052508101906109329190612c82565b905061072d6001609755565b6060610948611400565b8251806001600160401b03811115610962576109626125d9565b60405190808252806020026020018201604052801561098b578160200160208202803683370190505b509150825181146109af5760405163636e39bb60e01b815260040160405180910390fd5b5f5b81811015610ab15760cf5f8683815181106109ce576109ce612c9d565b602002602001015181526020019081526020015f206001015f9054906101000a90046001600160a01b03166001600160a01b0316632bbe0cae858381518110610a1957610a19612c9d565b6020026020010151336040518363ffffffff1660e01b8152600401610a3f929190612c59565b6020604051808303815f875af1158015610a5b573d5f803e3d5ffd5b505050506040513d601f19601f82011682018060405250810190610a7f9190612c82565b838281518110610a9157610a91612c9d565b6001600160a01b03909216602092830291909101909101526001016109b1565b505061072d6001609755565b610ac56113e6565b610ace81611459565b50565b5f9081526065602052604090206001015490565b610aed6113e6565b5f6001600160a01b03831673eeeeeeeeeeeeeeeeeeeeeeeeeeeeeeeeeeeeeeee14610b82576040516370a0823160e01b81526001600160a01b038416906370a0823190610b3e9030906004016126d2565b602060405180830381865afa158015610b59573d5f803e3d5ffd5b505050506040513d601f19601f82011682018060405250810190610b7d9190612cb1565b610b84565b475b9050610b918383836114cb565b505050565b5f6202a3006001600160401b03164201905063389a75e1600c52335f52806020600c2055337fdbf36a107da19e49527a7176a1babf963b4b0ff8cde35ee35d6cd8f1f9ac7e1d5f80a250565b5f610bed8383611505565b9392505050565b81610bfe81611530565b6001600160a01b038216610c255760405163538ba4f960e01b815260040160405180910390fd5b5f83815260cf6020526040902060050154610b919083611557565b610c48611400565b610c5282826115dc565b610c5c6001609755565b5050565b610c6982610ad1565b610c7281611651565b610b918383611557565b6001600160a01b0381163314610cf15760405162461bcd60e51b815260206004820152602f60248201527f416363657373436f6e74726f6c3a2063616e206f6e6c792072656e6f756e636560448201526e103937b632b9903337b91039b2b63360891b60648201526084015b60405180910390fd5b610c5c828261165b565b610d03611400565b5f83815260cf602052604090819020600101549051630a6f0ee960e01b81526001600160a01b0390911690630a6f0ee990610d4690859085903390600401612cc8565b5f604051808303815f87803b158015610d5d575f80fd5b505af1158015610d6f573d5f803e3d5ffd5b50505050610b916001609755565b610d856113e6565b6001600160a01b038116610dac5760405163538ba4f960e01b815260040160405180910390fd5b6001600160a01b0381165f90815260d0602052604090819020805460ff19166001179055517f960dd94cbb79169f09a4e445d58b895df2d9bffa5b31055d0932d801724a20d19061078a9083906126d2565b63389a75e1600c52335f525f6020600c2055337ffa7b8eab7da67f412cc9575ed43464468f9bfbae89d1675917346ca6d8fe3c925f80a2565b610e3f611400565b805f03610e5f576040516303e09bb960e31b815260040160405180910390fd5b5f82815260cf60209081526040808320815160c0810183528154815260018201546001600160a01b0390811682860152600283015416818401528251808401909352600382018054845260048301805492959394606087019490939084019190610ec890612c21565b80601f0160208091040260200160405190810160405280929190818152602001828054610ef490612c21565b8015610f3f5780601f10610f1657610100808354040283529160200191610f3f565b820191905f5260205f20905b815481529060010190602001808311610f2257829003601f168201915b505050919092525050508152600582015460208201526006909101546040918201528101519091506001600160a01b031673eeeeeeeeeeeeeeeeeeeeeeeeeeeeeeeeeeeeeeee148015610f925750348214155b15610fb0576040516303e09bb960e31b815260040160405180910390fd5b610fbf828483602001516116c1565b50610c5c6001609755565b81610fd481611914565b5f83815260cf60209081526040909120835160038201908155918401519091849160048401906110049082612d50565b50905050837f14f52b76bda9e4c482842cefda2968d332933577988f224e80aae18fba10edf0846040516110389190612e0f565b60405180910390a250505050565b61104e6113e6565b6110575f61191e565b565b5f611062611400565b61106b87611948565b6110885760405163126d324760e31b815260040160405180910390fd5b335f90815260ce6020526040812080546110c3928b926110b9928c929091906110b083612e35565b91905055611965565b88888888886119b3565b90506110cf6001609755565b979650505050505050565b6110e26113e6565b610ace81611e74565b816110f581611530565b5f83815260cf6020526040902060050154610b91908361165b565b6111186113e6565b610ace81611ee7565b5f9182526065602090815260408084206001600160a01b0393909316845291905290205460ff1690565b5f54600190610100900460ff1615801561116b57505f5460ff8083169116105b6111ce5760405162461bcd60e51b815260206004820152602e60248201527f496e697469616c697a61626c653a20636f6e747261637420697320616c72656160448201526d191e481a5b9a5d1a585b1a5e995960921b6064820152608401610ce8565b5f805461ffff191660ff8316176101001790556111ea86611f1c565b6111f385611459565b6111fc84611e74565b61120583611f44565b61120e82611ee7565b5f805461ff001916905560405160ff821681527f7f26b83ff96e1f2b6a682f133852f6798a09c465da95921460cefb38474024989060200160405180910390a1505050505050565b5f61072d82611948565b5f610bed8383611fa2565b611273611400565b8051829081146112965760405163636e39bb60e01b815260040160405180910390fd5b5f5b818110156112e3576112db8585838181106112b5576112b5612c9d565b905060200201358483815181106112ce576112ce612c9d565b60200260200101516115dc565b600101611298565b5050610b916001609755565b6112f882610ad1565b61130181611651565b610b91838361165b565b5f6001600160a01b0387166113335760405163538ba4f960e01b815260040160405180910390fd5b61133c87611948565b1561135a5760405163eeffa72160e01b815260040160405180910390fd5b611369888888888888886119b3565b98975050505050505050565b61137d6113e6565b63389a75e1600c52805f526020600c2080544211156113a357636f5e88185f526004601cfd5b5f9055610ace8161191e565b6113b76113e6565b8060601b6113cc57637448fbae5f526004601cfd5b610ace8161191e565b6113dd6113e6565b610ace81611f44565b638b78c6d819543314611057576382b429005f526004601cfd5b6002609754036114525760405162461bcd60e51b815260206004820152601f60248201527f5265656e7472616e637947756172643a207265656e7472616e742063616c6c006044820152606401610ce8565b6002609755565b6001600160a01b0381166114805760405163538ba4f960e01b815260040160405180910390fd5b60cd80546001600160a01b0319166001600160a01b0383161790556040517fd6ceddf6d2a22f21c7c81675c518004eff43bc5c8a6fc32a0b748e69d58671cd9061078a9083906126d2565b73eeeeeeeeeeeeeeeeeeeeeeeeeeeeeeeeeeeeeeed196001600160a01b038416016114fa57610b918282611fbd565b610b91838383611fd6565b5f82815260cf60205260408120600501546115209083611121565b80610bed5750610bed8383611fa2565b61153a8133611fa2565b610ace5760405163075fd2b160e01b815260040160405180910390fd5b6115618282611121565b610c5c575f8281526065602090815260408083206001600160a01b03851684529091529020805460ff191660011790556115983390565b6001600160a01b0316816001600160a01b0316837f2f8788117e7eff1d82e926ec794901d17c78024a50270940304540a733656f0d60405160405180910390a45050565b5f82815260cf602052604090819020600101549051633bca483f60e21b81526001600160a01b039091169063ef2920fc90349061161f9085903390600401612c59565b5f604051808303818588803b158015611636575f80fd5b505af1158015611648573d5f803e3d5ffd5b50505050505050565b610ace8133612016565b6116658282611121565b15610c5c575f8281526065602090815260408083206001600160a01b0385168085529252808320805460ff1916905551339285917ff6391f5c32d9c69d2a47ea670b442974b53935d1edc7fd64eb21e047a839171b9190a45050565b5f82815260cf60205260408120600281015460c9548692916001600160a01b0316901561180f57670de0b6b3a764000060c9546116fe9089612e4d565b6117089190612e64565b93506117148484612e83565b9250866117218486612e96565b1461173f57604051637fcce2a960e01b815260040160405180910390fd5b73eeeeeeeeeeeeeeeeeeeeeeeeeeeeeeeeeeeeeeed196001600160a01b03821601611799576040805160608101825233815260cc546001600160a01b0316602082015290810185905261179390829061206f565b5061180f565b60cc545f906117b29083906001600160a01b03166120ec565b6040805160608101825233815260cc546001600160a01b031660208201529081018790529091506117e490839061206f565b5060cc545f906117fe9084906001600160a01b03166120ec565b905061180a8282612e83565b955050505b73eeeeeeeeeeeeeeeeeeeeeeeeeeeeeeeeeeeeeeed196001600160a01b038216016118705761186a816040518060600160405280336001600160a01b03168152602001886001600160a01b031681526020018681525061206f565b506118d0565b5f61187b82876120ec565b90506118b3826040518060600160405280336001600160a01b03168152602001896001600160a01b031681526020018781525061206f565b505f6118bf83886120ec565b90506118cb8282612e83565b945050505b604080518481526020810186905287917fbf59838198f4ea92f663f5c1fc697f151a1b746b7dff86d564f250a55cbb4851910160405180910390a250505050505050565b61153a8133611505565b638b78c6d81980546001600160a01b039092169182905f80516020612fb28339815191525f80a355565b6001600160a01b03165f90815260d0602052604090205460ff1690565b6040516001600160601b03193360601b166020820152603481018290525f9081906054016040516020818303038152906040528051906020012090506119ab8482612134565b949350505050565b60cd54604051635e8a791560e01b8152600481018990523360248201525f916001600160a01b031690635e8a791590604401602060405180830381865afa158015611a00573d5f803e3d5ffd5b505050506040513d601f19601f82011682018060405250810190611a249190612ea9565b611a415760405163075fd2b160e01b815260040160405180910390fd5b60cb5f8154611a4f90612e35565b918290555060405190915081905f90611a7e9083906020019081526430b236b4b760d91b602082015260250190565b60408051601f19818403018152828252805160209182012060c0840183528d84526001600160a01b03808e168584019081528c8216868601908152606087018c8152608088018a905260a088018590525f8b815260cf8752969096208751815591516001830180549185166001600160a01b031992831617905590516002830180549190941691161790915592518051600385019081559281015191955084939290916004840190611b309082612d50565b5050506080820151600582015560a090910151600690910155611b538233611557565b611b5d83836121c8565b604051633b7451b360e21b81526001600160a01b038b169063edd146cc90611b8b9087908d90600401612ec8565b5f604051808303815f87803b158015611ba2575f80fd5b505af1158015611bb4573d5f803e3d5ffd5b50505050838a6001600160a01b03166338fff2d06040518163ffffffff1660e01b8152600401602060405180830381865afa158015611bf5573d5f803e3d5ffd5b505050506040513d601f19601f82011682018060405250810190611c199190612cb1565b141580611c975750306001600160a01b03168a6001600160a01b03166315cc481e6040518163ffffffff1660e01b8152600401602060405180830381865afa158015611c67573d5f803e3d5ffd5b505050506040513d601f19601f82011682018060405250810190611c8b9190612c82565b6001600160a01b031614155b15611cb55760405163636e39bb60e01b815260040160405180910390fd5b84515f5b81811015611d23575f878281518110611cd457611cd4612c9d565b602002602001015190505f6001600160a01b0316816001600160a01b031603611d105760405163538ba4f960e01b815260040160405180910390fd5b611d1a8682611557565b50600101611cb9565b5060ca5415611e26576001600160a01b03891673eeeeeeeeeeeeeeeeeeeeeeeeeeeeeeeeeeeeeeee148015611d655750348860ca54611d629190612e96565b14155b80611d9a57506001600160a01b03891673eeeeeeeeeeeeeeeeeeeeeeeeeeeeeeeeeeeeeeee14801590611d9a57503460ca5414155b15611db8576040516303e09bb960e31b815260040160405180910390fd5b60cc5460ca54611de99173eeeeeeeeeeeeeeeeeeeeeeeeeeeeeeeeeeeeeeee916001600160a01b03909116906114cb565b847f02e340b51c6ae66fd22509c9b016f224c47a54063d4259fe3d860958e9eaac7260ca54604051611e1d91815260200190565b60405180910390a25b8b857f69bcb5a6cf6a3c95185cbb451e77787240c866dd2e8332597e3013ff18a1aba18d8c8c8c604051611e5d9493929190612ee0565b60405180910390a350505050979650505050505050565b6001600160a01b038116611e9b5760405163538ba4f960e01b815260040160405180910390fd5b60cc80546001600160a01b0319166001600160a01b0383169081179091556040517f7dae230f18360d76a040c81f050aa14eb9d6dc7901b20fc5d855e2a20fe814d19161078a916126d2565b60ca8190556040518181527f803bee7e92bbc6ae7a1551f9f4ed3e31a8ea8df32e93332f41b0028f1091f9c39060200161078a565b6001600160a01b0316638b78c6d819819055805f5f80516020612fb28339815191528180a350565b670de0b6b3a7640000811115611f6d57604051632fb15b8760e01b815260040160405180910390fd5b60c98190556040518181527f9e826789de2de708fd9f09edea1182545e543893caa8ff71f8eb3aab50a4b0659060200161078a565b5f82815260cf6020526040812060060154610bed9083611121565b5f805f8084865af1610c5c5763b12d13eb5f526004601cfd5b816014528060345263a9059cbb60601b5f5260205f604460105f875af13d1560015f5114171661200d576390b8ec185f526004601cfd5b5f603452505050565b6120208282611121565b610c5c5761202d81612219565b61203883602061222b565b604051602001612049929190612f1c565b60408051601f198184030181529082905262461bcd60e51b8252610ce891600401612f8a565b60408101515f9073eeeeeeeeeeeeeeeeeeeeeeeeeeeeeeeeeeeeeeed196001600160a01b038516016120cf57803410156120bc576040516374c5672b60e01b815260040160405180910390fd5b6120ca836020015182611fbd565b6120e2565b6120e284845f01518560200151846123c0565b5060019392505050565b5f73eeeeeeeeeeeeeeeeeeeeeeeeeeeeeeeeeeeeeeed196001600160a01b0384160161212357506001600160a01b0381163161072d565b61212d838361240f565b905061072d565b5f763d602d80600a3d3981f3363d3d373d3d3d363d730000008360601b60e81c175f526e5af43d82803e903d91602b57fd5bf38360781b1760205281603760095ff590506001600160a01b03811661072d5760405162461bcd60e51b8152602060048201526017602482015276115490cc4c4d8dce8818dc99585d194c8819985a5b1959604a1b6044820152606401610ce8565b5f6121d283610ad1565b5f84815260656020526040808220600101859055519192508391839186917fbd79b86ffe0ab8e8776151514217cd7cacd52c909f66475c3af44e129f0b00ff9190a4505050565b606061072d6001600160a01b03831660145b60605f612239836002612e4d565b612244906002612e96565b6001600160401b0381111561225b5761225b6125d9565b6040519080825280601f01601f191660200182016040528015612285576020820181803683370190505b509050600360fc1b815f8151811061229f5761229f612c9d565b60200101906001600160f81b03191690815f1a905350600f60fb1b816001815181106122cd576122cd612c9d565b60200101906001600160f81b03191690815f1a9053505f6122ef846002612e4d565b6122fa906001612e96565b90505b6001811115612371576f181899199a1a9b1b9c1cb0b131b232b360811b85600f166010811061232e5761232e612c9d565b1a60f81b82828151811061234457612344612c9d565b60200101906001600160f81b03191690815f1a90535060049490941c9361236a81612f9c565b90506122fd565b508315610bed5760405162461bcd60e51b815260206004820181905260248201527f537472696e67733a20686578206c656e67746820696e73756666696369656e746044820152606401610ce8565b60405181606052826040528360601b602c526323b872dd60601b600c5260205f6064601c5f895af13d1560015f5114171661240257637939f4245f526004601cfd5b5f60605260405250505050565b5f816014526370a0823160601b5f5260208060246010865afa601f3d111660205102905092915050565b6040518060c001604052805f80191681526020015f6001600160a01b031681526020015f6001600160a01b0316815260200161248760405180604001604052805f8152602001606081525090565b81525f6020820181905260409091015290565b5f602082840312156124aa575f80fd5b81356001600160e01b031981168114610bed575f80fd5b6001600160a01b0381168114610ace575f80fd5b5f602082840312156124e5575f80fd5b8135610bed816124c1565b5f60208284031215612500575f80fd5b5035919050565b5f5b83811015612521578181015183820152602001612509565b50505f910152565b5f8151808452612540816020860160208601612507565b601f01601f19169290920160200192915050565b805182525f6020820151604060208501526119ab6040850182612529565b60208152815160208201525f602083015160018060a01b0380821660408501528060408601511660608501525050606083015160c060808401526125b960e0840182612554565b9050608084015160a084015260a084015160c08401528091505092915050565b634e487b7160e01b5f52604160045260245ffd5b604051601f8201601f191681016001600160401b0381118282101715612615576126156125d9565b604052919050565b5f6001600160401b03831115612635576126356125d9565b612648601f8401601f19166020016125ed565b905082815283838301111561265b575f80fd5b828260208301375f602084830101529392505050565b5f82601f830112612680575f80fd5b610bed8383356020850161261d565b5f80604083850312156126a0575f80fd5b8235915060208301356001600160401b038111156126bc575f80fd5b6126c885828601612671565b9150509250929050565b6001600160a01b0391909116815260200190565b5f6001600160401b038211156126fe576126fe6125d9565b5060051b60200190565b5f82601f830112612717575f80fd5b8135602061272c612727836126e6565b6125ed565b82815260059290921b8401810191818101908684111561274a575f80fd5b8286015b848110156127875780356001600160401b0381111561276b575f80fd5b6127798986838b0101612671565b84525091830191830161274e565b509695505050505050565b5f80604083850312156127a3575f80fd5b82356001600160401b03808211156127b9575f80fd5b818501915085601f8301126127cc575f80fd5b813560206127dc612727836126e6565b82815260059290921b840181019181810190898411156127fa575f80fd5b948201945b83861015612818578535825294820194908201906127ff565b9650508601359250508082111561282d575f80fd5b506126c885828601612708565b5f815180845260208085019450602084015f5b838110156128725781516001600160a01b03168752958201959082019060010161284d565b509495945050505050565b602081525f610bed602083018461283a565b5f80604083850312156128a0575f80fd5b82356128ab816124c1565b915060208301356128bb816124c1565b809150509250929050565b5f80604083850312156128d7575f80fd5b8235915060208301356128bb816124c1565b5f82601f8301126128f8575f80fd5b81356020612908612727836126e6565b8083825260208201915060208460051b870101935086841115612929575f80fd5b602086015b84811015612787578035612941816124c1565b835291830191830161292e565b5f805f60608486031215612960575f80fd5b8335925060208401356001600160401b038082111561297d575f80fd5b612989878388016128e9565b9350604086013591508082111561299e575f80fd5b506129ab86828701612671565b9150509250925092565b5f80604083850312156129c6575f80fd5b50508035926020909101359150565b5f604082840312156129e5575f80fd5b604080519081016001600160401b038082118383101715612a0857612a086125d9565b81604052829350843583526020850135915080821115612a26575f80fd5b508301601f81018513612a37575f80fd5b612a468582356020840161261d565b6020830152505092915050565b5f8060408385031215612a64575f80fd5b8235915060208301356001600160401b03811115612a80575f80fd5b6126c8858286016129d5565b5f805f805f805f60e0888a031215612aa2575f80fd5b873596506020880135612ab4816124c1565b955060408801356001600160401b0380821115612acf575f80fd5b612adb8b838c01612671565b965060608a01359150612aed826124c1565b9094506080890135935060a08901359080821115612b09575f80fd5b612b158b838c016129d5565b935060c08a0135915080821115612b2a575f80fd5b50612b378a828b016128e9565b91505092959891949750929550565b5f805f805f60a08688031215612b5a575f80fd5b8535612b65816124c1565b94506020860135612b75816124c1565b93506040860135612b85816124c1565b94979396509394606081013594506080013592915050565b5f805f60408486031215612baf575f80fd5b83356001600160401b0380821115612bc5575f80fd5b818601915086601f830112612bd8575f80fd5b813581811115612be6575f80fd5b8760208260051b8501011115612bfa575f80fd5b602092830195509350908501359080821115612c14575f80fd5b506129ab86828701612708565b600181811c90821680612c3557607f821691505b602082108103612c5357634e487b7160e01b5f52602260045260245ffd5b50919050565b604081525f612c6b6040830185612529565b905060018060a01b03831660208301529392505050565b5f60208284031215612c92575f80fd5b8151610bed816124c1565b634e487b7160e01b5f52603260045260245ffd5b5f60208284031215612cc1575f80fd5b5051919050565b606081525f612cda606083018661283a565b8281036020840152612cec8186612529565b91505060018060a01b0383166040830152949350505050565b601f821115610b9157805f5260205f20601f840160051c81016020851015612d2a5750805b601f840160051c820191505b81811015612d49575f8155600101612d36565b5050505050565b81516001600160401b03811115612d6957612d696125d9565b612d7d81612d778454612c21565b84612d05565b602080601f831160018114612db0575f8415612d995750858301515b5f19600386901b1c1916600185901b178555612e07565b5f85815260208120601f198616915b82811015612dde57888601518255948401946001909101908401612dbf565b5085821015612dfb57878501515f19600388901b60f8161c191681555b505060018460011b0185555b505050505050565b602081525f610bed6020830184612554565b634e487b7160e01b5f52601160045260245ffd5b5f60018201612e4657612e46612e21565b5060010190565b808202811582820484141761072d5761072d612e21565b5f82612e7e57634e487b7160e01b5f52601260045260245ffd5b500490565b8181038181111561072d5761072d612e21565b8082018082111561072d5761072d612e21565b5f60208284031215612eb9575f80fd5b81518015158114610bed575f80fd5b828152604060208201525f6119ab6040830184612529565b6001600160a01b03858116825284166020820152604081018390526080606082018190525f90612f1290830184612554565b9695505050505050565b76020b1b1b2b9b9a1b7b73a3937b61d1030b1b1b7bab73a1604d1b81525f8351612f4d816017850160208801612507565b7001034b99036b4b9b9b4b733903937b6329607d1b6017918401918201528351612f7e816028840160208801612507565b01602801949350505050565b602081525f610bed6020830184612529565b5f81612faa57612faa612e21565b505f19019056fe8be0079c531659141344cd1fd0a4f28419497f9722a3daafe3b4186f6b6457e0a164736f6c6343000817000a","linkReferences":{}},"methodIdentifiers":{"DEFAULT_ADMIN_ROLE()":"a217fddf","NATIVE()":"a0cf0aea","addPoolManager(uint256,address)":"2cf682b0","addToCloneableStrategies(address)":"41bba0b4","allocate(uint256,bytes)":"2ec38188","batchAllocate(uint256[],bytes[])":"c6dff1cf","batchRegisterRecipient(uint256[],bytes[])":"1a20bd88","cancelOwnershipHandover()":"54d1f13d","completeOwnershipHandover(address)":"f04e283e","createPool(bytes32,address,bytes,address,uint256,(uint256,string),address[])":"77da8caf","createPoolWithCustomStrategy(bytes32,address,bytes,address,uint256,(uint256,string),address[])":"e1007d4a","distribute(uint256,address[],bytes)":"3a5fbd92","fundPool(uint256,uint256)":"5acd6fac","getBaseFee()":"15e812ad","getFeeDenominator()":"f4e1fc41","getPercentFee()":"4edbaadc","getPool(uint256)":"068bcd8d","getRegistry()":"5ab1bd53","getRoleAdmin(bytes32)":"248a9ca3","getStrategy(uint256)":"cfc0cc34","getTreasury()":"3b19e84a","grantRole(bytes32,address)":"2f2ff15d","hasRole(bytes32,address)":"91d14854","initialize(address,address,address,uint256,uint256)":"a6b63eb8","isCloneableStrategy(address)":"ab2ec589","isPoolAdmin(uint256,address)":"ab3febc6","isPoolManager(uint256,address)":"29e40d4b","owner()":"8da5cb5b","ownershipHandoverExpiresAt(address)":"fee81cf4","recoverFunds(address,address)":"24ae6a27","registerRecipient(uint256,bytes)":"075c0e9c","removeFromCloneableStrategies(address)":"031e2fa1","removePoolManager(uint256,address)":"7f5a70bd","renounceOwnership()":"715018a6","renounceRole(bytes32,address)":"36568abe","requestOwnershipHandover()":"25692962","revokeRole(bytes32,address)":"d547741f","supportsInterface(bytes4)":"01ffc9a7","transferOwnership(address)":"f2fde38b","updateBaseFee(uint256)":"8e690186","updatePercentFee(uint256)":"f54fc4a0","updatePoolMetadata(uint256,(uint256,string))":"5f9ca138","updateRegistry(address)":"1a5da6c8","updateTreasury(address)":"7f51bb1f"},"storageLayout":{"storage":[{"astId":52241,"contract":"lib/allo-v2/contracts/core/Allo.sol:Allo","label":"_initialized","offset":0,"slot":"0","type":"t_uint8"},{"astId":52244,"contract":"lib/allo-v2/contracts/core/Allo.sol:Allo","label":"_initializing","offset":1,"slot":"0","type":"t_bool"},{"astId":52946,"contract":"lib/allo-v2/contracts/core/Allo.sol:Allo","label":"__gap","offset":0,"slot":"1","type":"t_array(t_uint256)50_storage"},{"astId":53220,"contract":"lib/allo-v2/contracts/core/Allo.sol:Allo","label":"__gap","offset":0,"slot":"51","type":"t_array(t_uint256)50_storage"},{"astId":51640,"contract":"lib/allo-v2/contracts/core/Allo.sol:Allo","label":"_roles","offset":0,"slot":"101","type":"t_mapping(t_bytes32,t_struct(RoleData)51635_storage)"},{"astId":51947,"contract":"lib/allo-v2/contracts/core/Allo.sol:Allo","label":"__gap","offset":0,"slot":"102","type":"t_array(t_uint256)49_storage"},{"astId":52418,"contract":"lib/allo-v2/contracts/core/Allo.sol:Allo","label":"_status","offset":0,"slot":"151","type":"t_uint256"},{"astId":52487,"contract":"lib/allo-v2/contracts/core/Allo.sol:Allo","label":"__gap","offset":0,"slot":"152","type":"t_array(t_uint256)49_storage"},{"astId":34,"contract":"lib/allo-v2/contracts/core/Allo.sol:Allo","label":"percentFee","offset":0,"slot":"201","type":"t_uint256"},{"astId":37,"contract":"lib/allo-v2/contracts/core/Allo.sol:Allo","label":"baseFee","offset":0,"slot":"202","type":"t_uint256"},{"astId":40,"contract":"lib/allo-v2/contracts/core/Allo.sol:Allo","label":"_poolIndex","offset":0,"slot":"203","type":"t_uint256"},{"astId":43,"contract":"lib/allo-v2/contracts/core/Allo.sol:Allo","label":"treasury","offset":0,"slot":"204","type":"t_address_payable"},{"astId":47,"contract":"lib/allo-v2/contracts/core/Allo.sol:Allo","label":"registry","offset":0,"slot":"205","type":"t_contract(IRegistry)2824"},{"astId":52,"contract":"lib/allo-v2/contracts/core/Allo.sol:Allo","label":"_nonces","offset":0,"slot":"206","type":"t_mapping(t_address,t_uint256)"},{"astId":58,"contract":"lib/allo-v2/contracts/core/Allo.sol:Allo","label":"pools","offset":0,"slot":"207","type":"t_mapping(t_uint256,t_struct(Pool)2304_storage)"},{"astId":63,"contract":"lib/allo-v2/contracts/core/Allo.sol:Allo","label":"cloneableStrategies","offset":0,"slot":"208","type":"t_mapping(t_address,t_bool)"}],"types":{"t_address":{"encoding":"inplace","label":"address","numberOfBytes":"20"},"t_address_payable":{"encoding":"inplace","label":"address payable","numberOfBytes":"20"},"t_array(t_uint256)49_storage":{"encoding":"inplace","label":"uint256[49]","numberOfBytes":"1568","base":"t_uint256"},"t_array(t_uint256)50_storage":{"encoding":"inplace","label":"uint256[50]","numberOfBytes":"1600","base":"t_uint256"},"t_bool":{"encoding":"inplace","label":"bool","numberOfBytes":"1"},"t_bytes32":{"encoding":"inplace","label":"bytes32","numberOfBytes":"32"},"t_contract(IRegistry)2824":{"encoding":"inplace","label":"contract IRegistry","numberOfBytes":"20"},"t_contract(IStrategy)2950":{"encoding":"inplace","label":"contract IStrategy","numberOfBytes":"20"},"t_mapping(t_address,t_bool)":{"encoding":"mapping","key":"t_address","label":"mapping(address => bool)","numberOfBytes":"32","value":"t_bool"},"t_mapping(t_address,t_uint256)":{"encoding":"mapping","key":"t_address","label":"mapping(address => uint256)","numberOfBytes":"32","value":"t_uint256"},"t_mapping(t_bytes32,t_struct(RoleData)51635_storage)":{"encoding":"mapping","key":"t_bytes32","label":"mapping(bytes32 => struct AccessControlUpgradeable.RoleData)","numberOfBytes":"32","value":"t_struct(RoleData)51635_storage"},"t_mapping(t_uint256,t_struct(Pool)2304_storage)":{"encoding":"mapping","key":"t_uint256","label":"mapping(uint256 => struct IAllo.Pool)","numberOfBytes":"32","value":"t_struct(Pool)2304_storage"},"t_string_storage":{"encoding":"bytes","label":"string","numberOfBytes":"32"},"t_struct(Metadata)3086_storage":{"encoding":"inplace","label":"struct Metadata","numberOfBytes":"64","members":[{"astId":3082,"contract":"lib/allo-v2/contracts/core/Allo.sol:Allo","label":"protocol","offset":0,"slot":"0","type":"t_uint256"},{"astId":3085,"contract":"lib/allo-v2/contracts/core/Allo.sol:Allo","label":"pointer","offset":0,"slot":"1","type":"t_string_storage"}]},"t_struct(Pool)2304_storage":{"encoding":"inplace","label":"struct IAllo.Pool","numberOfBytes":"224","members":[{"astId":2291,"contract":"lib/allo-v2/contracts/core/Allo.sol:Allo","label":"profileId","offset":0,"slot":"0","type":"t_bytes32"},{"astId":2294,"contract":"lib/allo-v2/contracts/core/Allo.sol:Allo","label":"strategy","offset":0,"slot":"1","type":"t_contract(IStrategy)2950"},{"astId":2296,"contract":"lib/allo-v2/contracts/core/Allo.sol:Allo","label":"token","offset":0,"slot":"2","type":"t_address"},{"astId":2299,"contract":"lib/allo-v2/contracts/core/Allo.sol:Allo","label":"metadata","offset":0,"slot":"3","type":"t_struct(Metadata)3086_storage"},{"astId":2301,"contract":"lib/allo-v2/contracts/core/Allo.sol:Allo","label":"managerRole","offset":0,"slot":"5","type":"t_bytes32"},{"astId":2303,"contract":"lib/allo-v2/contracts/core/Allo.sol:Allo","label":"adminRole","offset":0,"slot":"6","type":"t_bytes32"}]},"t_struct(RoleData)51635_storage":{"encoding":"inplace","label":"struct AccessControlUpgradeable.RoleData","numberOfBytes":"64","members":[{"astId":51632,"contract":"lib/allo-v2/contracts/core/Allo.sol:Allo","label":"members","offset":0,"slot":"0","type":"t_mapping(t_address,t_bool)"},{"astId":51634,"contract":"lib/allo-v2/contracts/core/Allo.sol:Allo","label":"adminRole","offset":0,"slot":"1","type":"t_bytes32"}]},"t_uint256":{"encoding":"inplace","label":"uint256","numberOfBytes":"32"},"t_uint8":{"encoding":"inplace","label":"uint8","numberOfBytes":"1"}}},"id":0}