{"abi":[{"type":"function","name":"D","inputs":[],"outputs":[{"name":"","type":"uint256","internalType":"uint256"}],"stateMutability":"view"},{"type":"function","name":"calculateConviction","inputs":[{"name":"_timePassed","type":"uint256","internalType":"uint256"},{"name":"_lastConv","type":"uint256","internalType":"uint256"},{"name":"_oldAmount","type":"uint256","internalType":"uint256"},{"name":"_decay","type":"uint256","internalType":"uint256"}],"outputs":[{"name":"","type":"uint256","internalType":"uint256"}],"stateMutability":"pure"},{"type":"function","name":"calculateThreshold","inputs":[{"name":"_requestedAmount","type":"uint256","internalType":"uint256"},{"name":"_poolAmount","type":"uint256","internalType":"uint256"},{"name":"_totalPointsActivated","type":"uint256","internalType":"uint256"},{"name":"_decay","type":"uint256","internalType":"uint256"},{"name":"_weight","type":"uint256","internalType":"uint256"},{"name":"_maxRatio","type":"uint256","internalType":"uint256"},{"name":"_minThresholdPoints","type":"uint256","internalType":"uint256"}],"outputs":[{"name":"_threshold","type":"uint256","internalType":"uint256"}],"stateMutability":"pure"},{"type":"function","name":"getMaxConviction","inputs":[{"name":"amount","type":"uint256","internalType":"uint256"},{"name":"_decay","type":"uint256","internalType":"uint256"}],"outputs":[{"name":"","type":"uint256","internalType":"uint256"}],"stateMutability":"pure"},{"type":"error","name":"AShouldBeUnderOrEqTwo_128","inputs":[]},{"type":"error","name":"AShouldBeUnderTwo_128","inputs":[]},{"type":"error","name":"BShouldBeLessTwo_128","inputs":[]}],"bytecode":{"object":"0x61056d610035600b8282823980515f1a60731461002957634e487b7160e01b5f525f60045260245ffd5b305f52607381538281f3fe7300000000000000000000000000000000000000003014608060405260043610610055575f3560e01c8063010dfe64146100595780630f529ba21461007e57806329dfe5ba146100885780639bcb99c41461009b575b5f80fd5b61006c610067366004610446565b6100ae565b60405190815260200160405180910390f35b61006c6298968081565b61006c610096366004610475565b61013b565b61006c6100a93660046104bc565b610240565b5f84816100cb6100c562989680608087901b610504565b8361026e565b905060806001607f1b6100e18662989680610523565b6100ef84600160801b610523565b6100fc629896808a610536565b6101069190610536565b6101109190610504565b61011a8985610536565b610124919061054d565b61012e919061054d565b901c979650505050505050565b5f808761014c8a600160401b610536565b6101569190610504565b6298968061016886600160401b610536565b6101729190610504565b61017c9190610523565b90505f61019062989680608088901b610504565b90505f6101ae826298968060406101a78780610536565b901c6102e6565b90505f6101be8962989680610523565b6101c89083610504565b90506101d9818b600160401b6102e6565b94508915610231575f629896808b6101f18d8d610240565b6101fe629896808b610536565b6102089190610536565b6102129190610504565b61021c9190610504565b905080861161022b578061022d565b855b9550505b50505050979650505050505050565b5f61024e8262989680610523565b61025b6298968085610536565b6102659190610504565b90505b92915050565b5f600160801b831061029357604051633e668d0360e01b815260040160405180910390fd5b50600160801b82825b80156102de57806001165f036102c0576102b682836103d5565b915060011c61029c565b6102ca83836103d5565b92506102d7600182610523565b905061029c565b505092915050565b5f80805f19858709858702925082811083820303915050805f0361031d57838281610313576103136104dc565b04925050506103ce565b8084116103685760405162461bcd60e51b81526020600482015260156024820152744d6174683a206d756c446976206f766572666c6f7760581b604482015260640160405180910390fd5b5f848688098519600190810187169687900496828603819004959092119093035f82900391909104909201919091029190911760038402600290811880860282030280860282030280860282030280860282030280860282030280860290910302029150505b9392505050565b5f600160801b8311156103fe57604051600162a4c31160e01b0319815260040160405180910390fd5b600160801b8210610422576040516370b7a2d960e01b815260040160405180910390fd5b60806001607f1b6104338486610536565b61043d919061054d565b901c9392505050565b5f805f8060808587031215610459575f80fd5b5050823594602084013594506040840135936060013592509050565b5f805f805f805f60e0888a03121561048b575f80fd5b505085359760208701359750604087013596606081013596506080810135955060a0810135945060c0013592509050565b5f80604083850312156104cd575f80fd5b50508035926020909101359150565b634e487b7160e01b5f52601260045260245ffd5b634e487b7160e01b5f52601160045260245ffd5b5f8261051e57634e487b7160e01b5f52601260045260245ffd5b500490565b81810381811115610268576102686104f0565b8082028115828204841417610268576102686104f0565b80820180821115610268576102686104f056fea164736f6c6343000817000a","linkReferences":{}},"methodIdentifiers":{"D()":"0f529ba2","calculateConviction(uint256,uint256,uint256,uint256)":"010dfe64","calculateThreshold(uint256,uint256,uint256,uint256,uint256,uint256,uint256)":"29dfe5ba","getMaxConviction(uint256,uint256)":"9bcb99c4"},"storageLayout":{"storage":[],"types":{}},"id":103}