{"abi":[{"type":"function","name":"D","inputs":[],"outputs":[{"name":"","type":"uint256","internalType":"uint256"}],"stateMutability":"view"},{"type":"function","name":"calculateConviction","inputs":[{"name":"_timePassed","type":"uint256","internalType":"uint256"},{"name":"_lastConv","type":"uint256","internalType":"uint256"},{"name":"_oldAmount","type":"uint256","internalType":"uint256"},{"name":"_decay","type":"uint256","internalType":"uint256"}],"outputs":[{"name":"","type":"uint256","internalType":"uint256"}],"stateMutability":"pure"},{"type":"function","name":"calculateThreshold","inputs":[{"name":"_requestedAmount","type":"uint256","internalType":"uint256"},{"name":"_poolAmount","type":"uint256","internalType":"uint256"},{"name":"_totalPointsActivated","type":"uint256","internalType":"uint256"},{"name":"_decay","type":"uint256","internalType":"uint256"},{"name":"_weight","type":"uint256","internalType":"uint256"},{"name":"_maxRatio","type":"uint256","internalType":"uint256"},{"name":"_minThresholdPoints","type":"uint256","internalType":"uint256"}],"outputs":[{"name":"_threshold","type":"uint256","internalType":"uint256"}],"stateMutability":"pure"},{"type":"function","name":"calculateThresholdOverride","inputs":[{"name":"_decay","type":"uint256","internalType":"uint256"},{"name":"_minThresholdPoints","type":"uint256","internalType":"uint256"}],"outputs":[{"name":"","type":"uint256","internalType":"uint256"}],"stateMutability":"pure"},{"type":"function","name":"getMaxConviction","inputs":[{"name":"amount","type":"uint256","internalType":"uint256"},{"name":"_decay","type":"uint256","internalType":"uint256"}],"outputs":[{"name":"","type":"uint256","internalType":"uint256"}],"stateMutability":"pure"},{"type":"error","name":"AShouldBeUnderOrEqTwo_128","inputs":[]},{"type":"error","name":"AShouldBeUnderTwo_128","inputs":[]},{"type":"error","name":"BShouldBeLessTwo_128","inputs":[]}],"bytecode":{"object":"0x6105ab610035600b8282823980515f1a60731461002957634e487b7160e01b5f525f60045260245ffd5b305f52607381538281f3fe7300000000000000000000000000000000000000003014608060405260043610610060575f3560e01c8063010dfe64146100645780630f529ba21461008957806329dfe5ba146100935780639bcb99c4146100a6578063b54239b0146100b9575b5f80fd5b610077610072366004610484565b6100cc565b60405190815260200160405180910390f35b6100776298968081565b6100776100a13660046104b3565b610159565b6100776100b43660046104fa565b610266565b6100776100c73660046104fa565b610294565b5f84816100e96100e362989680608087901b610542565b836102ac565b905060806001607f1b6100ff8662989680610561565b61010d84600160801b610561565b61011a629896808a610574565b6101249190610574565b61012e9190610542565b6101388985610574565b610142919061058b565b61014c919061058b565b901c979650505050505050565b5f808711801561017e57506101716298968089610574565b61017b8885610574565b11155b1561018b57505f1961025b565b5f87156101b057876101a18a600160401b610574565b6101ab9190610542565b6101b2565b5f5b90505f81629896806101c887600160401b610574565b6101d29190610542565b6101dc9190610561565b90505f6101f062989680608089901b610542565b90505f61020e826298968060406102078780610574565b901c610324565b90505f61021e8a62989680610561565b6102289083610542565b9050610239818c600160401b610324565b95505f6102468b89610294565b905080871015610254578096505b5050505050505b979650505050505050565b5f6102748262989680610561565b6102816298968085610574565b61028b9190610542565b90505b92915050565b5f61028b82629896806102a78682610561565b610324565b5f600160801b83106102d157604051633e668d0360e01b815260040160405180910390fd5b50600160801b82825b801561031c57806001165f036102fe576102f48283610413565b915060011c6102da565b6103088383610413565b9250610315600182610561565b90506102da565b505092915050565b5f80805f19858709858702925082811083820303915050805f0361035b578382816103515761035161051a565b049250505061040c565b8084116103a65760405162461bcd60e51b81526020600482015260156024820152744d6174683a206d756c446976206f766572666c6f7760581b604482015260640160405180910390fd5b5f848688098519600190810187169687900496828603819004959092119093035f82900391909104909201919091029190911760038402600290811880860282030280860282030280860282030280860282030280860282030280860290910302029150505b9392505050565b5f600160801b83111561043c57604051600162a4c31160e01b0319815260040160405180910390fd5b600160801b8210610460576040516370b7a2d960e01b815260040160405180910390fd5b60806001607f1b6104718486610574565b61047b919061058b565b901c9392505050565b5f805f8060808587031215610497575f80fd5b5050823594602084013594506040840135936060013592509050565b5f805f805f805f60e0888a0312156104c9575f80fd5b505085359760208701359750604087013596606081013596506080810135955060a0810135945060c0013592509050565b5f806040838503121561050b575f80fd5b50508035926020909101359150565b634e487b7160e01b5f52601260045260245ffd5b634e487b7160e01b5f52601160045260245ffd5b5f8261055c57634e487b7160e01b5f52601260045260245ffd5b500490565b8181038181111561028e5761028e61052e565b808202811582820484141761028e5761028e61052e565b8082018082111561028e5761028e61052e56fea164736f6c6343000817000a","linkReferences":{}},"methodIdentifiers":{"D()":"0f529ba2","calculateConviction(uint256,uint256,uint256,uint256)":"010dfe64","calculateThreshold(uint256,uint256,uint256,uint256,uint256,uint256,uint256)":"29dfe5ba","calculateThresholdOverride(uint256,uint256)":"b54239b0","getMaxConviction(uint256,uint256)":"9bcb99c4"},"storageLayout":{"storage":[],"types":{}},"id":128}