{"abi":[{"type":"constructor","inputs":[{"name":"_allo","type":"address","internalType":"address"}],"stateMutability":"nonpayable"},{"type":"fallback","stateMutability":"payable"},{"type":"receive","stateMutability":"payable"},{"type":"function","name":"D","inputs":[],"outputs":[{"name":"","type":"uint256","internalType":"uint256"}],"stateMutability":"view"},{"type":"function","name":"MAX_STAKED_PROPOSALS","inputs":[],"outputs":[{"name":"","type":"uint256","internalType":"uint256"}],"stateMutability":"view"},{"type":"function","name":"NATIVE","inputs":[],"outputs":[{"name":"","type":"address","internalType":"address"}],"stateMutability":"view"},{"type":"function","name":"_minThresholdPoints","inputs":[],"outputs":[{"name":"","type":"uint256","internalType":"uint256"}],"stateMutability":"view"},{"type":"function","name":"activatePoints","inputs":[],"outputs":[],"stateMutability":"nonpayable"},{"type":"function","name":"allocate","inputs":[{"name":"_data","type":"bytes","internalType":"bytes"},{"name":"_sender","type":"address","internalType":"address"}],"outputs":[],"stateMutability":"payable"},{"type":"function","name":"calculateConviction","inputs":[{"name":"_timePassed","type":"uint256","internalType":"uint256"},{"name":"_lastConv","type":"uint256","internalType":"uint256"},{"name":"_oldAmount","type":"uint256","internalType":"uint256"}],"outputs":[{"name":"","type":"uint256","internalType":"uint256"}],"stateMutability":"view"},{"type":"function","name":"calculateThreshold","inputs":[{"name":"_requestedAmount","type":"uint256","internalType":"uint256"}],"outputs":[{"name":"_threshold","type":"uint256","internalType":"uint256"}],"stateMutability":"view"},{"type":"function","name":"canExecuteProposal","inputs":[{"name":"proposalId","type":"uint256","internalType":"uint256"}],"outputs":[{"name":"canBeExecuted","type":"bool","internalType":"bool"}],"stateMutability":"view"},{"type":"function","name":"deactivatePoints","inputs":[],"outputs":[],"stateMutability":"nonpayable"},{"type":"function","name":"deactivatePoints","inputs":[{"name":"_member","type":"address","internalType":"address"}],"outputs":[],"stateMutability":"nonpayable"},{"type":"function","name":"decay","inputs":[],"outputs":[{"name":"","type":"uint256","internalType":"uint256"}],"stateMutability":"view"},{"type":"function","name":"decreasePower","inputs":[{"name":"_member","type":"address","internalType":"address"},{"name":"_amountToUnstake","type":"uint256","internalType":"uint256"}],"outputs":[{"name":"","type":"uint256","internalType":"uint256"}],"stateMutability":"nonpayable"},{"type":"function","name":"distribute","inputs":[{"name":"_recipientIds","type":"address[]","internalType":"address[]"},{"name":"_data","type":"bytes","internalType":"bytes"},{"name":"_sender","type":"address","internalType":"address"}],"outputs":[],"stateMutability":"nonpayable"},{"type":"function","name":"getAllo","inputs":[],"outputs":[{"name":"","type":"address","internalType":"contract IAllo"}],"stateMutability":"view"},{"type":"function","name":"getMaxAmount","inputs":[],"outputs":[{"name":"","type":"uint256","internalType":"uint256"}],"stateMutability":"view"},{"type":"function","name":"getMaxConviction","inputs":[{"name":"amount","type":"uint256","internalType":"uint256"}],"outputs":[{"name":"","type":"uint256","internalType":"uint256"}],"stateMutability":"view"},{"type":"function","name":"getMetadata","inputs":[{"name":"_proposalId","type":"uint256","internalType":"uint256"}],"outputs":[{"name":"","type":"tuple","internalType":"struct Metadata","components":[{"name":"protocol","type":"uint256","internalType":"uint256"},{"name":"pointer","type":"string","internalType":"string"}]}],"stateMutability":"view"},{"type":"function","name":"getPayouts","inputs":[{"name":"","type":"address[]","internalType":"address[]"},{"name":"","type":"bytes[]","internalType":"bytes[]"}],"outputs":[{"name":"","type":"tuple[]","internalType":"struct IStrategy.PayoutSummary[]","components":[{"name":"recipientAddress","type":"address","internalType":"address"},{"name":"amount","type":"uint256","internalType":"uint256"}]}],"stateMutability":"pure"},{"type":"function","name":"getPointSystem","inputs":[],"outputs":[{"name":"","type":"uint8","internalType":"enum StrategyStruct.PointSystem"}],"stateMutability":"view"},{"type":"function","name":"getPoolAmount","inputs":[],"outputs":[{"name":"","type":"uint256","internalType":"uint256"}],"stateMutability":"view"},{"type":"function","name":"getPoolId","inputs":[],"outputs":[{"name":"","type":"uint256","internalType":"uint256"}],"stateMutability":"view"},{"type":"function","name":"getProposal","inputs":[{"name":"_proposalId","type":"uint256","internalType":"uint256"}],"outputs":[{"name":"submitter","type":"address","internalType":"address"},{"name":"beneficiary","type":"address","internalType":"address"},{"name":"requestedToken","type":"address","internalType":"address"},{"name":"requestedAmount","type":"uint256","internalType":"uint256"},{"name":"stakedAmount","type":"uint256","internalType":"uint256"},{"name":"proposalStatus","type":"uint8","internalType":"enum StrategyStruct.ProposalStatus"},{"name":"blockLast","type":"uint256","internalType":"uint256"},{"name":"convictionLast","type":"uint256","internalType":"uint256"},{"name":"threshold","type":"uint256","internalType":"uint256"},{"name":"voterStakedPoints","type":"uint256","internalType":"uint256"}],"stateMutability":"view"},{"type":"function","name":"getProposalStakedAmount","inputs":[{"name":"_proposalId","type":"uint256","internalType":"uint256"}],"outputs":[{"name":"","type":"uint256","internalType":"uint256"}],"stateMutability":"view"},{"type":"function","name":"getProposalVoterStake","inputs":[{"name":"_proposalId","type":"uint256","internalType":"uint256"},{"name":"_voter","type":"address","internalType":"address"}],"outputs":[{"name":"","type":"uint256","internalType":"uint256"}],"stateMutability":"view"},{"type":"function","name":"getRecipientStatus","inputs":[{"name":"_recipientId","type":"address","internalType":"address"}],"outputs":[{"name":"","type":"uint8","internalType":"enum IStrategy.Status"}],"stateMutability":"view"},{"type":"function","name":"getStrategyId","inputs":[],"outputs":[{"name":"","type":"bytes32","internalType":"bytes32"}],"stateMutability":"view"},{"type":"function","name":"getTotalVoterStakePct","inputs":[{"name":"_voter","type":"address","internalType":"address"}],"outputs":[{"name":"","type":"uint256","internalType":"uint256"}],"stateMutability":"view"},{"type":"function","name":"increasePoolAmount","inputs":[{"name":"_amount","type":"uint256","internalType":"uint256"}],"outputs":[],"stateMutability":"nonpayable"},{"type":"function","name":"increasePower","inputs":[{"name":"_member","type":"address","internalType":"address"},{"name":"_amountToStake","type":"uint256","internalType":"uint256"}],"outputs":[{"name":"","type":"uint256","internalType":"uint256"}],"stateMutability":"nonpayable"},{"type":"function","name":"initialize","inputs":[{"name":"_poolId","type":"uint256","internalType":"uint256"},{"name":"_data","type":"bytes","internalType":"bytes"}],"outputs":[],"stateMutability":"nonpayable"},{"type":"function","name":"isPoolActive","inputs":[],"outputs":[{"name":"","type":"bool","internalType":"bool"}],"stateMutability":"view"},{"type":"function","name":"isValidAllocator","inputs":[{"name":"_allocator","type":"address","internalType":"address"}],"outputs":[{"name":"","type":"bool","internalType":"bool"}],"stateMutability":"view"},{"type":"function","name":"maxRatio","inputs":[],"outputs":[{"name":"","type":"uint256","internalType":"uint256"}],"stateMutability":"view"},{"type":"function","name":"pointConfig","inputs":[],"outputs":[{"name":"maxAmount","type":"uint256","internalType":"uint256"}],"stateMutability":"view"},{"type":"function","name":"pointSystem","inputs":[],"outputs":[{"name":"","type":"uint8","internalType":"enum StrategyStruct.PointSystem"}],"stateMutability":"view"},{"type":"function","name":"proposalCounter","inputs":[],"outputs":[{"name":"","type":"uint256","internalType":"uint256"}],"stateMutability":"view"},{"type":"function","name":"proposalType","inputs":[],"outputs":[{"name":"","type":"uint8","internalType":"enum StrategyStruct.ProposalType"}],"stateMutability":"view"},{"type":"function","name":"proposals","inputs":[{"name":"","type":"uint256","internalType":"uint256"}],"outputs":[{"name":"proposalId","type":"uint256","internalType":"uint256"},{"name":"requestedAmount","type":"uint256","internalType":"uint256"},{"name":"stakedAmount","type":"uint256","internalType":"uint256"},{"name":"convictionLast","type":"uint256","internalType":"uint256"},{"name":"beneficiary","type":"address","internalType":"address"},{"name":"submitter","type":"address","internalType":"address"},{"name":"requestedToken","type":"address","internalType":"address"},{"name":"blockLast","type":"uint256","internalType":"uint256"},{"name":"proposalStatus","type":"uint8","internalType":"enum StrategyStruct.ProposalStatus"},{"name":"metadata","type":"tuple","internalType":"struct Metadata","components":[{"name":"protocol","type":"uint256","internalType":"uint256"},{"name":"pointer","type":"string","internalType":"string"}]}],"stateMutability":"view"},{"type":"function","name":"registerRecipient","inputs":[{"name":"_data","type":"bytes","internalType":"bytes"},{"name":"_sender","type":"address","internalType":"address"}],"outputs":[{"name":"recipientId","type":"address","internalType":"address"}],"stateMutability":"payable"},{"type":"function","name":"registryCommunity","inputs":[],"outputs":[{"name":"","type":"address","internalType":"contract RegistryCommunity"}],"stateMutability":"view"},{"type":"function","name":"setDecay","inputs":[{"name":"_decay","type":"uint256","internalType":"uint256"}],"outputs":[],"stateMutability":"nonpayable"},{"type":"function","name":"setMaxRatio","inputs":[{"name":"_maxRatio","type":"uint256","internalType":"uint256"}],"outputs":[],"stateMutability":"nonpayable"},{"type":"function","name":"setMinThresholdPoints","inputs":[{"name":"minThresholdPoints_","type":"uint256","internalType":"uint256"}],"outputs":[],"stateMutability":"nonpayable"},{"type":"function","name":"setPoolActive","inputs":[{"name":"_active","type":"bool","internalType":"bool"}],"outputs":[],"stateMutability":"nonpayable"},{"type":"function","name":"setRegistryCommunity","inputs":[{"name":"_registryCommunity","type":"address","internalType":"address"}],"outputs":[],"stateMutability":"nonpayable"},{"type":"function","name":"setSybilScorer","inputs":[{"name":"_sybilScorer","type":"address","internalType":"address"}],"outputs":[],"stateMutability":"nonpayable"},{"type":"function","name":"setWeight","inputs":[{"name":"_weight","type":"uint256","internalType":"uint256"}],"outputs":[],"stateMutability":"nonpayable"},{"type":"function","name":"supportProposal","inputs":[{"name":"","type":"tuple[]","internalType":"struct StrategyStruct.ProposalSupport[]","components":[{"name":"proposalId","type":"uint256","internalType":"uint256"},{"name":"deltaSupport","type":"int256","internalType":"int256"}]}],"outputs":[],"stateMutability":"pure"},{"type":"function","name":"supportsInterface","inputs":[{"name":"interfaceId","type":"bytes4","internalType":"bytes4"}],"outputs":[{"name":"","type":"bool","internalType":"bool"}],"stateMutability":"view"},{"type":"function","name":"sybilScorer","inputs":[],"outputs":[{"name":"","type":"address","internalType":"contract ISybilScorer"}],"stateMutability":"view"},{"type":"function","name":"totalEffectiveActivePoints","inputs":[],"outputs":[{"name":"","type":"uint256","internalType":"uint256"}],"stateMutability":"view"},{"type":"function","name":"totalPointsActivated","inputs":[],"outputs":[{"name":"","type":"uint256","internalType":"uint256"}],"stateMutability":"view"},{"type":"function","name":"totalStaked","inputs":[],"outputs":[{"name":"","type":"uint256","internalType":"uint256"}],"stateMutability":"view"},{"type":"function","name":"totalVoterStakePct","inputs":[{"name":"","type":"address","internalType":"address"}],"outputs":[{"name":"","type":"uint256","internalType":"uint256"}],"stateMutability":"view"},{"type":"function","name":"updateProposalConviction","inputs":[{"name":"proposalId","type":"uint256","internalType":"uint256"}],"outputs":[{"name":"","type":"uint256","internalType":"uint256"}],"stateMutability":"nonpayable"},{"type":"function","name":"voterStakedProposals","inputs":[{"name":"","type":"address","internalType":"address"},{"name":"","type":"uint256","internalType":"uint256"}],"outputs":[{"name":"","type":"uint256","internalType":"uint256"}],"stateMutability":"view"},{"type":"function","name":"weight","inputs":[],"outputs":[{"name":"","type":"uint256","internalType":"uint256"}],"stateMutability":"view"},{"type":"event","name":"Allocated","inputs":[{"name":"recipientId","type":"address","indexed":true,"internalType":"address"},{"name":"amount","type":"uint256","indexed":false,"internalType":"uint256"},{"name":"token","type":"address","indexed":false,"internalType":"address"},{"name":"sender","type":"address","indexed":false,"internalType":"address"}],"anonymous":false},{"type":"event","name":"DecayUpdated","inputs":[{"name":"decay","type":"uint256","indexed":false,"internalType":"uint256"}],"anonymous":false},{"type":"event","name":"Distributed","inputs":[{"name":"proposalId","type":"uint256","indexed":false,"internalType":"uint256"},{"name":"beneficiary","type":"address","indexed":false,"internalType":"address"},{"name":"amount","type":"uint256","indexed":false,"internalType":"uint256"}],"anonymous":false},{"type":"event","name":"Distributed","inputs":[{"name":"recipientId","type":"address","indexed":true,"internalType":"address"},{"name":"recipientAddress","type":"address","indexed":false,"internalType":"address"},{"name":"amount","type":"uint256","indexed":false,"internalType":"uint256"},{"name":"sender","type":"address","indexed":false,"internalType":"address"}],"anonymous":false},{"type":"event","name":"Initialized","inputs":[{"name":"poolId","type":"uint256","indexed":false,"internalType":"uint256"},{"name":"data","type":"bytes","indexed":false,"internalType":"bytes"}],"anonymous":false},{"type":"event","name":"InitializedCV","inputs":[{"name":"poolId","type":"uint256","indexed":false,"internalType":"uint256"},{"name":"data","type":"tuple","indexed":false,"internalType":"struct StrategyStruct.InitializeParams","components":[{"name":"registryCommunity","type":"address","internalType":"address"},{"name":"decay","type":"uint256","internalType":"uint256"},{"name":"maxRatio","type":"uint256","internalType":"uint256"},{"name":"weight","type":"uint256","internalType":"uint256"},{"name":"minThresholdPoints","type":"uint256","internalType":"uint256"},{"name":"proposalType","type":"uint8","internalType":"enum StrategyStruct.ProposalType"},{"name":"pointSystem","type":"uint8","internalType":"enum StrategyStruct.PointSystem"},{"name":"pointConfig","type":"tuple","internalType":"struct StrategyStruct.PointSystemConfig","components":[{"name":"maxAmount","type":"uint256","internalType":"uint256"}]},{"name":"sybilScorer","type":"address","internalType":"address"}]}],"anonymous":false},{"type":"event","name":"MaxRatioUpdated","inputs":[{"name":"maxRatio","type":"uint256","indexed":false,"internalType":"uint256"}],"anonymous":false},{"type":"event","name":"MinThresholdPointsUpdated","inputs":[{"name":"before","type":"uint256","indexed":false,"internalType":"uint256"},{"name":"minThresholdPoints","type":"uint256","indexed":false,"internalType":"uint256"}],"anonymous":false},{"type":"event","name":"PointsDeactivated","inputs":[{"name":"member","type":"address","indexed":false,"internalType":"address"}],"anonymous":false},{"type":"event","name":"PoolActive","inputs":[{"name":"active","type":"bool","indexed":false,"internalType":"bool"}],"anonymous":false},{"type":"event","name":"PoolAmountIncreased","inputs":[{"name":"amount","type":"uint256","indexed":false,"internalType":"uint256"}],"anonymous":false},{"type":"event","name":"PowerDecreased","inputs":[{"name":"member","type":"address","indexed":false,"internalType":"address"},{"name":"tokensUnStaked","type":"uint256","indexed":false,"internalType":"uint256"},{"name":"pointsToDecrease","type":"uint256","indexed":false,"internalType":"uint256"}],"anonymous":false},{"type":"event","name":"PowerIncreased","inputs":[{"name":"member","type":"address","indexed":false,"internalType":"address"},{"name":"tokensStaked","type":"uint256","indexed":false,"internalType":"uint256"},{"name":"pointsToIncrease","type":"uint256","indexed":false,"internalType":"uint256"}],"anonymous":false},{"type":"event","name":"ProposalCreated","inputs":[{"name":"poolId","type":"uint256","indexed":false,"internalType":"uint256"},{"name":"proposalId","type":"uint256","indexed":false,"internalType":"uint256"}],"anonymous":false},{"type":"event","name":"Registered","inputs":[{"name":"recipientId","type":"address","indexed":true,"internalType":"address"},{"name":"data","type":"bytes","indexed":false,"internalType":"bytes"},{"name":"sender","type":"address","indexed":false,"internalType":"address"}],"anonymous":false},{"type":"event","name":"RegistryUpdated","inputs":[{"name":"registryCommunity","type":"address","indexed":false,"internalType":"address"}],"anonymous":false},{"type":"event","name":"SupportAdded","inputs":[{"name":"from","type":"address","indexed":false,"internalType":"address"},{"name":"proposalId","type":"uint256","indexed":false,"internalType":"uint256"},{"name":"amount","type":"uint256","indexed":false,"internalType":"uint256"},{"name":"totalStakedAmount","type":"uint256","indexed":false,"internalType":"uint256"},{"name":"convictionLast","type":"uint256","indexed":false,"internalType":"uint256"}],"anonymous":false},{"type":"event","name":"WeightUpdated","inputs":[{"name":"weight","type":"uint256","indexed":false,"internalType":"uint256"}],"anonymous":false},{"type":"error","name":"ALLOCATION_ACTIVE","inputs":[]},{"type":"error","name":"ALLOCATION_NOT_ACTIVE","inputs":[]},{"type":"error","name":"ALLOCATION_NOT_ENDED","inputs":[]},{"type":"error","name":"ALREADY_INITIALIZED","inputs":[]},{"type":"error","name":"AMOUNT_MISMATCH","inputs":[]},{"type":"error","name":"ANCHOR_ERROR","inputs":[]},{"type":"error","name":"ARRAY_MISMATCH","inputs":[]},{"type":"error","name":"AddressCannotBeZero","inputs":[]},{"type":"error","name":"AmountOverMaxRatio","inputs":[]},{"type":"error","name":"CantIncreaseFixedSystem","inputs":[]},{"type":"error","name":"ConvictionUnderMinimumThreshold","inputs":[]},{"type":"error","name":"INVALID","inputs":[]},{"type":"error","name":"INVALID_ADDRESS","inputs":[]},{"type":"error","name":"INVALID_FEE","inputs":[]},{"type":"error","name":"INVALID_METADATA","inputs":[]},{"type":"error","name":"INVALID_REGISTRATION","inputs":[]},{"type":"error","name":"IS_APPROVED_STRATEGY","inputs":[]},{"type":"error","name":"MISMATCH","inputs":[]},{"type":"error","name":"MaxPointsReached","inputs":[]},{"type":"error","name":"NONCE_NOT_AVAILABLE","inputs":[]},{"type":"error","name":"NOT_APPROVED_STRATEGY","inputs":[]},{"type":"error","name":"NOT_ENOUGH_FUNDS","inputs":[]},{"type":"error","name":"NOT_IMPLEMENTED","inputs":[]},{"type":"error","name":"NOT_INITIALIZED","inputs":[]},{"type":"error","name":"NOT_PENDING_OWNER","inputs":[]},{"type":"error","name":"NotEnoughPointsToSupport","inputs":[{"name":"pointsSupport","type":"uint256","internalType":"uint256"},{"name":"pointsBalance","type":"uint256","internalType":"uint256"}]},{"type":"error","name":"NotImplemented","inputs":[]},{"type":"error","name":"OnlyCommunityAllowed","inputs":[]},{"type":"error","name":"OnlyCouncilSafe","inputs":[]},{"type":"error","name":"POOL_ACTIVE","inputs":[]},{"type":"error","name":"POOL_INACTIVE","inputs":[]},{"type":"error","name":"PoolAmountNotEnough","inputs":[{"name":"_proposalId","type":"uint256","internalType":"uint256"},{"name":"_requestedAmount","type":"uint256","internalType":"uint256"},{"name":"_poolAmount","type":"uint256","internalType":"uint256"}]},{"type":"error","name":"PoolIdCannotBeZero","inputs":[]},{"type":"error","name":"PoolIsEmpty","inputs":[]},{"type":"error","name":"ProposalDataIsEmpty","inputs":[]},{"type":"error","name":"ProposalIdCannotBeZero","inputs":[]},{"type":"error","name":"ProposalNotActive","inputs":[{"name":"_proposalId","type":"uint256","internalType":"uint256"}]},{"type":"error","name":"ProposalNotInList","inputs":[{"name":"_proposalId","type":"uint256","internalType":"uint256"}]},{"type":"error","name":"ProposalSupportDuplicated","inputs":[{"name":"_proposalId","type":"uint256","internalType":"uint256"},{"name":"index","type":"uint256","internalType":"uint256"}]},{"type":"error","name":"RECIPIENT_ALREADY_ACCEPTED","inputs":[]},{"type":"error","name":"RECIPIENT_ERROR","inputs":[{"name":"recipientId","type":"address","internalType":"address"}]},{"type":"error","name":"RECIPIENT_NOT_ACCEPTED","inputs":[]},{"type":"error","name":"REGISTRATION_NOT_ACTIVE","inputs":[]},{"type":"error","name":"RegistryCannotBeZero","inputs":[]},{"type":"error","name":"SupportUnderflow","inputs":[{"name":"_support","type":"uint256","internalType":"uint256"},{"name":"_delta","type":"int256","internalType":"int256"},{"name":"_result","type":"int256","internalType":"int256"}]},{"type":"error","name":"TokenCannotBeZero","inputs":[]},{"type":"error","name":"TokenNotAllowed","inputs":[]},{"type":"error","name":"UNAUTHORIZED","inputs":[]},{"type":"error","name":"UserCannotBeZero","inputs":[]},{"type":"error","name":"UserCannotExecuteAction","inputs":[]},{"type":"error","name":"UserIsInactive","inputs":[]},{"type":"error","name":"UserNotInRegistry","inputs":[]},{"type":"error","name":"ZERO_ADDRESS","inputs":[]}],"bytecode":{"object":"0x60c0604052600060065560006009553480156200001b57600080fd5b5060405162004cb438038062004cb48339810160408190526200003e91620000a6565b604080518082018252600a8152694356537472617465677960b01b6020808301919091526001600160a01b038416608052915183926200008191839101620000d8565b60408051601f19818403018152919052805160209091012060a0525062000128915050565b600060208284031215620000b957600080fd5b81516001600160a01b0381168114620000d157600080fd5b9392505050565b600060208083528351808285015260005b818110156200010757858101830151858201604001528201620000e9565b506000604082860101526040601f19601f8301168501019250505092915050565b60805160a051614b516200016360003960006105f401526000818161048801528181611a1f01528181611ab20152611d3b0152614b516000f3fe6080604052600436106103555760003560e01c8063782aadff116101b9578063b5f620ce116100f6578063df868ed31161009a578063edd146cc1161006c578063edd146cc14610a5f578063ef2920fc14610a7f578063f5b0dfb714610a92578063fc1711f214610ab257005b8063df868ed3146109da578063e0dd2c38146109f2578063e33add9314610a12578063eb11af9314610a3257005b8063c3292171116100d3578063c329217114610942578063c7f758a81461095f578063d1e3623214610995578063dc96ff2d146109aa57005b8063b5f620ce146108cc578063b6c61f31146108ec578063bcc5b93b1461090c57005b8063a0cf0aea1161015d578063a574cea41161013a578063a574cea41461083c578063aba9ffee14610869578063ac1ed7b91461087f578063b2b878d01461089f57005b8063a0cf0aea146107e7578063a1aab33f1461080f578063a47ff7e51461082557005b8063817b1cd211610196578063817b1cd214610771578063824ea8ed14610787578063868c57b8146107a7578063950559d7146107c757005b8063782aadff146107265780637c6570ba14610746578063814516ad1461075c57005b80632ed04b2b116102925780634d31d087116102365780636003e414116102085780636003e414146106b05780636453d9c4146106d057806369fa25c4146106f057806376365af71461071057005b80634d31d0871461062d57806354fac9191461064d57806359a5db8b146106635780635db64b991461068357005b806338fff2d01161026f57806338fff2d0146105bb578063406244d8146105d057806342fda9c7146105e55780634ab4ba421461061857005b80632ed04b2b14610554578063346db8cb14610574578063351d9f961461059457005b806311f22ae3116102f95780631ddf1e23116102d65780631ddf1e23146104e05780632bbe0cae146104f55780632cefadbb146105085780632dbd6fdd1461052857005b806311f22ae31461045957806315cc481e146104795780631aa91a9e146104c057005b80630a6f0ee9116103325780630a6f0ee9146103ed5780630ba959091461040d5780630c0512e91461042c5780630f529ba21461044257005b8063013cf08b1461035e57806301ffc9a71461039d578063058aca44146103cd57005b3661035c57005b005b34801561036a57600080fd5b5061037e610379366004613b32565b610ad2565b6040516103949a99989796959493929190613bec565b60405180910390f35b3480156103a957600080fd5b506103bd6103b8366004613c5f565b610be0565b6040519015158152602001610394565b3480156103d957600080fd5b5061035c6103e8366004613cb6565b610c79565b3480156103f957600080fd5b5061035c610408366004613ebe565b610cd9565b34801561041957600080fd5b50600c545b604051908152602001610394565b34801561043857600080fd5b5061041e60065481565b34801561044e57600080fd5b5061041e6298968081565b34801561046557600080fd5b5061035c610474366004613b32565b610cf9565b34801561048557600080fd5b507f00000000000000000000000000000000000000000000000000000000000000005b6040516001600160a01b039091168152602001610394565b3480156104cc57600080fd5b5061041e6104db366004613b32565b610d38565b3480156104ec57600080fd5b5061035c610dc3565b6104a8610503366004613f36565b610dce565b34801561051457600080fd5b5061035c610523366004613b32565b610df1565b34801561053457600080fd5b50600b5461054790610100900460ff1681565b6040516103949190613f98565b34801561056057600080fd5b5061041e61056f366004613fa6565b610e3d565b34801561058057600080fd5b5061041e61058f366004613fd2565b610f0f565b3480156105a057600080fd5b50600b546105ae9060ff1681565b604051610394919061400e565b3480156105c757600080fd5b5060015461041e565b3480156105dc57600080fd5b5061041e600a81565b3480156105f157600080fd5b507f000000000000000000000000000000000000000000000000000000000000000061041e565b34801561062457600080fd5b5060025461041e565b34801561063957600080fd5b506103bd610648366004613cb6565b610fb4565b34801561065957600080fd5b5061041e60035481565b34801561066f57600080fd5b5061041e61067e366004613b32565b610fbf565b34801561068f57600080fd5b5061041e61069e366004613cb6565b60106020526000908152604090205481565b3480156106bc57600080fd5b50600d546104a8906001600160a01b031681565b3480156106dc57600080fd5b5061035c6106eb366004613cb6565b6110fc565b3480156106fc57600080fd5b5061035c61070b366004613b32565b611110565b34801561071c57600080fd5b5061041e60045481565b34801561073257600080fd5b5061041e610741366004613fa6565b61114f565b34801561075257600080fd5b5061041e60095481565b34801561076857600080fd5b5061035c6112f1565b34801561077d57600080fd5b5061041e60075481565b34801561079357600080fd5b506103bd6107a2366004613b32565b611423565b3480156107b357600080fd5b5061041e6107c2366004613fa6565b611480565b3480156107d357600080fd5b5061041e6107e2366004613b32565b6114b1565b3480156107f357600080fd5b506104a873eeeeeeeeeeeeeeeeeeeeeeeeeeeeeeeeeeeeeeee81565b34801561081b57600080fd5b5061041e60055481565b34801561083157600080fd5b50600c5461041e9081565b34801561084857600080fd5b5061085c610857366004613b32565b6114db565b604051610394919061401c565b34801561087557600080fd5b5061041e60085481565b34801561088b57600080fd5b5061035c61089a366004613cb6565b6115ba565b3480156108ab57600080fd5b506108bf6108ba36600461402f565b61169b565b6040516103949190614104565b3480156108d857600080fd5b5061035c6108e736600461416a565b6116b6565b3480156108f857600080fd5b50600e546104a8906001600160a01b031681565b34801561091857600080fd5b5061041e610927366004613cb6565b6001600160a01b031660009081526010602052604090205490565b34801561094e57600080fd5b50600b54610100900460ff16610547565b34801561096b57600080fd5b5061097f61097a366004613b32565b6116bf565b6040516103949a99989796959493929190614187565b3480156109a157600080fd5b5060085461041e565b3480156109b657600080fd5b5061041e6109c5366004613b32565b6000908152600f602052604090206002015490565b3480156109e657600080fd5b5060005460ff166103bd565b3480156109fe57600080fd5b5061041e610a0d3660046141ec565b6117c1565b348015610a1e57600080fd5b5061035c610a2d366004614211565b6117ec565b348015610a3e57600080fd5b50610a52610a4d366004613cb6565b611805565b60405161039491906142bc565b348015610a6b57600080fd5b5061035c610a7a3660046142d6565b611810565b61035c610a8d366004613f36565b611956565b348015610a9e57600080fd5b5061035c610aad366004613b32565b611974565b348015610abe57600080fd5b5061035c610acd366004613b32565b61199d565b600f602090815260009182526040918290208054600182015460028301546003840154600485015460058601546006870154600788015460088901548b51808d01909c52600a8a0180548d52600b8b0180549a9d999c989b979a6001600160a01b039788169a968816999790951697939660ff9093169593949192840191610b599061431d565b80601f0160208091040260200160405190810160405280929190818152602001828054610b859061431d565b8015610bd25780601f10610ba757610100808354040283529160200191610bd2565b820191906000526020600020905b815481529060010190602001808311610bb557829003601f168201915b50505050508152505090508a565b60007fffffffff0000000000000000000000000000000000000000000000000000000082167ff1801e61000000000000000000000000000000000000000000000000000000001480610c7357507f01ffc9a7000000000000000000000000000000000000000000000000000000007fffffffff000000000000000000000000000000000000000000000000000000008316145b92915050565b33610c83816119dc565b600d80546001600160a01b0319166001600160a01b0384169081179091556040519081527fd6ceddf6d2a22f21c7c81675c518004eff43bc5c8a6fc32a0b748e69d58671cd906020015b60405180910390a15050565b610ce1611aa7565b610ce9611af0565b610cf4838383611b2c565b505050565b33610d03816119dc565b60048290556040518281527f08e39b387d1f739ce0d2553bb31822392e3f67c62c6c0a215120ab4a6841a8ab90602001610ccd565b6000818152600f6020526040812080548314610d6f5760405163c1d17bef60e01b8152600481018490526024015b60405180910390fd5b6001600882015460ff166004811115610d8a57610d8a613b4b565b14610dab576040516344980d8f60e01b815260048101849052602401610d66565b610db9818260020154611e63565b6003015492915050565b610dcc33611e9e565b565b6000610dd8611aa7565b610de0611af0565b610dea8383611fef565b9392505050565b33610dfb816119dc565b60095460408051918252602082018490527f056aedca4e334b6c4bea48715fb0de644811b740894de57a0380d3eb90f2805b910160405180910390a150600955565b6000610e4761231a565b60006002600b54610100900460ff166003811115610e6757610e67613b4b565b1480610e8e57506001600b54610100900460ff166003811115610e8c57610e8c613b4b565b145b15610e9a575081610ea7565b610ea4848461235e565b90505b8060086000828254610eb99190614367565b9091555050604080516001600160a01b0386168152602081018590529081018290527f70b752f3fadb6ac131c0ece847fcbb6994ec56ed6411595710fd9b29c6ac6cc19060600160405180910390a19392505050565b6000808490506000610f35629896806080600354901b610f2f9190614390565b83612622565b905060806f8000000000000000000000000000000060035462989680610f5b9190614367565b610f6984600160801b614367565b610f7662989680896143b2565b610f8091906143b2565b610f8a9190614390565b610f9488856143b2565b610f9e91906143c9565b610fa891906143c9565b901c9695505050505050565b6000610c73826126cb565b60008060025411610ffc576040517fed4421ad00000000000000000000000000000000000000000000000000000000815260040160405180910390fd5b611005826126eb565b1561102357604051630efd728560e21b815260040160405180910390fd5b60025460009061103c84680100000000000000006143b2565b6110469190614390565b629896806004546801000000000000000061106191906143b2565b61106b9190614390565b6110759190614367565b9050604061108260085490565b6003546110929062989680614367565b6298968060406110a286806143b2565b901c629896806080600554901b6110b99190614390565b6110c39190614390565b6110cd91906143b2565b6110d79190614390565b6110e191906143b2565b901c915060095482116110f657600954610dea565b50919050565b61110461231a565b61110d81611e9e565b50565b3361111a816119dc565b60038290556040518281527f592dcd55d60d892e7fcb3ba105013312e99691cd59f91e15f83cb67cb5a505f290602001610ccd565b600061115961231a565b61116283612712565b61117f57604051630b72d6b160e31b815260040160405180910390fd5b60006002600b54610100900460ff16600381111561119f5761119f613b4b565b036111ad57825b905061120a565b6001600b54610100900460ff1660038111156111cb576111cb613b4b565b036111da576111a684846127ba565b6003600b54610100900460ff1660038111156111f8576111f8613b4b565b0361120a576112078484612920565b90505b600d5460405163011de97360e61b81526001600160a01b038681166004830152306024830152600092169063477a5cc090604401602060405180830381865afa15801561125b573d6000803e3d6000fd5b505050506040513d601f19601f8201168201806040525081019061127f91906143dc565b9050801561129f57816008600082825461129991906143c9565b90915550505b604080516001600160a01b0387168152602081018690529081018390527f0b9150e1e54346ed3fa36b977cd5d65dca5a649c737c3174a26bddaadd47667a9060600160405180910390a1509392505050565b336112fb81612712565b61131857604051630b72d6b160e31b815260040160405180910390fd5b600d546040517f0d4a8b490000000000000000000000000000000000000000000000000000000081526001600160a01b03838116600483015230602483015290911690630d4a8b4990604401600060405180830381600087803b15801561137e57600080fd5b505af1158015611392573d6000803e3d6000fd5b5050600d54604051637817ee4f60e01b81526001600160a01b0385811660048301523060248301529091169250637817ee4f9150604401602060405180830381865afa1580156113e6573d6000803e3d6000fd5b505050506040513d601f19601f8201168201806040525081019061140a91906143f9565b6008600082825461141b91906143c9565b909155505050565b6000818152600f60205260408120600281015482908190611445908490612b67565b91509150816000148015611457575080155b1561146457826003015491505b60006114738460010154610fbf565b9092101595945050505050565b6011602052816000526040600020818154811061149c57600080fd5b90600052602060002001600091509150505481565b6000600354629896806114c49190614367565b6114d162989680846143b2565b610c739190614390565b6040805180820190915260008152606060208201526000600f6000848152602001908152602001600020905080600a01604051806040016040529081600082015481526020016001820180546115309061431d565b80601f016020809104026020016040519081016040528092919081815260200182805461155c9061431d565b80156115a95780601f1061157e576101008083540402835291602001916115a9565b820191906000526020600020905b81548152906001019060200180831161158c57829003601f168201915b505050505081525050915050919050565b600d60009054906101000a90046001600160a01b03166001600160a01b0316636c53db9a6040518163ffffffff1660e01b8152600401602060405180830381865afa15801561160d573d6000803e3d6000fd5b505050506040513d601f19601f820116820180604052508101906116319190614412565b6001600160a01b031633036116695761164981612bbf565b600e80546001600160a01b0383166001600160a01b031990911617905550565b6040517fe860ec7e00000000000000000000000000000000000000000000000000000000815260040160405180910390fd5b606060405163d623472560e01b815260040160405180910390fd5b61110d81612bff565b6000806000806000806000806000806000600f60008d815260200190815260200160002090508060010154600014611703576116fe8160010154610fbf565b611706565b60005b92508060050160009054906101000a90046001600160a01b03168160040160009054906101000a90046001600160a01b03168260060160009054906101000a90046001600160a01b0316836001015484600201548560080160009054906101000a900460ff16866007015487600301548a896009016000336001600160a01b03166001600160a01b03168152602001908152602001600020549a509a509a509a509a509a509a509a509a509a50509193959799509193959799565b6000828152600f602090815260408083206001600160a01b0385168452600901909152812054610dea565b60405163d623472560e01b815260040160405180910390fd5b6000610c7382612c40565b61181982612c60565b60008180602001905181019061182f919061449f565b80519091506001600160a01b031661185a57604051635df4b1ef60e01b815260040160405180910390fd5b8051600d80546001600160a01b0319166001600160a01b0390921691909117905560208101516003556040810151600455606081015160055560a0810151600b805460ff191660018360028111156118b4576118b4613b4b565b021790555060c0810151600b805461ff0019166101008360038111156118dc576118dc613b4b565b021790555060e081015151600c556080810151600955610100810151600e80546001600160a01b0319166001600160a01b039092169190911790556040517f4ebdec05fb64815e553aeaf3976ef8112dd79760a459bee3ac7d1659ab2c4e0490611949908590849061453a565b60405180910390a1505050565b61195e611aa7565b611966611af0565b6119708282612ce1565b5050565b61197c611aa7565b806002600082825461198e91906143c9565b9091555061110d905081612df0565b336119a7816119dc565b60058290556040518281527f30ee8206062f283e56a0af2b02138016bf7442ded26ad68a92a18a9dd246fb4990602001610ccd565b6001546040517f29e40d4b00000000000000000000000000000000000000000000000000000000815260048101919091526001600160a01b0382811660248301527f000000000000000000000000000000000000000000000000000000000000000016906329e40d4b90604401602060405180830381865afa158015611a66573d6000803e3d6000fd5b505050506040513d601f19601f82011682018060405250810190611a8a91906143dc565b61110d5760405163075fd2b160e01b815260040160405180910390fd5b336001600160a01b037f00000000000000000000000000000000000000000000000000000000000000001614610dcc5760405163075fd2b160e01b815260040160405180910390fd5b600154600003610dcc576040517f3da3f98c00000000000000000000000000000000000000000000000000000000815260040160405180910390fd5b6000825111611b67576040517fc5f7c4c000000000000000000000000000000000000000000000000000000000815260040160405180910390fd5b600082806020019051810190611b7d91906143f9565b905080600003611bb9576040517ff881a10d00000000000000000000000000000000000000000000000000000000815260040160405180910390fd5b6000818152600f602052604090206001600b5460ff166002811115611be057611be0613b4b565b03611e5c5780548214611c095760405163c1d17bef60e01b815260048101839052602401610d66565b60025481600101541115611c615760018101546002546040517f5863b0b60000000000000000000000000000000000000000000000000000000081526004810185905260248101929092526044820152606401610d66565b6001600882015460ff166004811115611c7c57611c7c613b4b565b14611c9d576040516344980d8f60e01b815260048101839052602401610d66565b6000611ca883610d38565b90506000611cb98360010154610fbf565b90508082108015611cce575060008360010154115b15611d05576040517fcce7930800000000000000000000000000000000000000000000000000000000815260040160405180910390fd5b6001546040517f068bcd8d0000000000000000000000000000000000000000000000000000000081526000916001600160a01b037f0000000000000000000000000000000000000000000000000000000000000000169163068bcd8d91611d729160040190815260200190565b600060405180830381865afa158015611d8f573d6000803e3d6000fd5b505050506040513d6000823e601f3d908101601f19168201604052611db7919081019061465a565b9050836001015460026000828254611dcf9190614367565b9091555050604081015160048501546001860154611df792916001600160a01b031690612e20565b60088401805460ff191660049081179091558401546001850154604080518881526001600160a01b0390931660208401528201527fa7932e9c92f31e1ed56b29d00bbe669a97484dc24de28dd9c8c0429df7f358479060600160405180910390a15050505b5050505050565b600080611e708484612b67565b91509150816000148015611e82575080155b15611e8d5750505050565b600784015560039092019190915550565b600d54604051637817ee4f60e01b81526001600160a01b03838116600483015230602483015290911690637817ee4f90604401602060405180830381865afa158015611eee573d6000803e3d6000fd5b505050506040513d601f19601f82011682018060405250810190611f1291906143f9565b60086000828254611f239190614367565b9091555050600d546040517f22bcf9990000000000000000000000000000000000000000000000000000000081526001600160a01b038381166004830152306024830152909116906322bcf99990604401600060405180830381600087803b158015611f8e57600080fd5b505af1158015611fa2573d6000803e3d6000fd5b50505050611faf81612e65565b6040516001600160a01b03821681527f1468da654b37bb3631011c1917d02e0db437d519918858d40b38b5e980ca033b906020015b60405180910390a150565b60008083806020019051810190612006919061470e565b8051909150600003612044576040517f4e79178600000000000000000000000000000000000000000000000000000000815260040160405180910390fd5b6001600b5460ff16600281111561205d5761205d613b4b565b0361220d5761206f8160200151612bbf565b60608101516001600160a01b03166120b3576040517f596a094c00000000000000000000000000000000000000000000000000000000815260040160405180910390fd5b6000306001600160a01b03166315cc481e6040518163ffffffff1660e01b8152600401602060405180830381865afa1580156120f3573d6000803e3d6000fd5b505050506040513d601f19601f820116820180604052508101906121179190614412565b6001600160a01b031663068bcd8d6001546040518263ffffffff1660e01b815260040161214691815260200190565b600060405180830381865afa158015612163573d6000803e3d6000fd5b505050506040513d6000823e601f3d908101601f1916820160405261218b919081019061465a565b604001519050806001600160a01b031682606001516001600160a01b0316146121e0576040517fa29c498600000000000000000000000000000000000000000000000000000000815260040160405180910390fd5b6121ed82604001516126eb565b1561220b57604051630efd728560e21b815260040160405180910390fd5b505b600060066000815461221e906147b5565b91829055506000818152600f602090815260408083208481556005810180546001600160a01b038b81166001600160a01b0319928316179092558885015160048401805491841691831691909117905560608901516006840180549190931691161790559086015160018083019190915560088201805460ff19169091179055436007820155600381019290925560808501518051600a8401908155918101519394509192600b8401906122d2908261481c565b505060015460408051918252602082018590527ffcf3b1aa65a464cef2889608f99e8b8c0f680a4be6c2acb9d961c536a5a9294b92500160405180910390a150949350505050565b600d546001600160a01b03163314610dcc576040517faf0916a200000000000000000000000000000000000000000000000000000000815260040160405180910390fd5b600d54604080516336d8759760e21b815290516000926012926001600160a01b039091169163db61d65c916004808201926020929091908290030181865afa1580156123ae573d6000803e3d6000fd5b505050506040513d601f19601f820116820180604052508101906123d29190614412565b6001600160a01b031663313ce5676040518163ffffffff1660e01b8152600401602060405180830381865afa92505050801561242b575060408051601f3d908101601f19168201909252612428918101906148dc565b60015b6124725761246d6040518060400160405280601581526020017f4572726f722067657474696e6720646563696d616c0000000000000000000000815250612f90565b612478565b60ff1690505b6124b76040518060400160405280601081526020017f5f616d6f756e74546f556e7374616b650000000000000000000000000000000081525084613001565b600d546040516316308e2560e11b81526001600160a01b0386811660048301526000928692911690632c611c4a90602401602060405180830381865afa158015612505573d6000803e3d6000fd5b505050506040513d601f19601f8201168201806040525081019061252991906143f9565b6125339190614367565b90506125746040518060400160405280600d81526020017f6e6577546f74616c5374616b650000000000000000000000000000000000000081525082613001565b600061259361258484600a6149e3565b61258e90846143b2565b613074565b600d54604051637817ee4f60e01b81526001600160a01b03898116600483015230602483015292935060009284921690637817ee4f90604401602060405180830381865afa1580156125e9573d6000803e3d6000fd5b505050506040513d601f19601f8201168201806040525081019061260d91906143f9565b6126179190614367565b979650505050505050565b6000600160801b83106126775760405162461bcd60e51b815260206004820152601c60248201527f5f612073686f756c64206265206c657373207468616e20325e313238000000006044820152606401610d66565b50600160801b82825b80156126c357806001166000036126a55761269b828361315c565b915060011c612680565b6126af838361315c565b92506126bc600182614367565b9050612680565b505092915050565b60006001600160a01b038216156126e3576001610c73565b600092915050565b60006126fa62989680836143b2565b60025460045461270a91906143b2565b111592915050565b600e546000906001600160a01b031661272d57506001919050565b600e546040517f42a987a00000000000000000000000000000000000000000000000000000000081526001600160a01b038481166004830152306024830152909116906342a987a090604401602060405180830381865afa158015612796573d6000803e3d6000fd5b505050506040513d601f19601f82011682018060405250810190610c7391906143dc565b6000808290506127ff6040518060400160405280601281526020017f504f494e545320544f20494e435245415345000000000000000000000000000081525082613001565b600d54604051637817ee4f60e01b81526001600160a01b0386811660048301523060248301526000921690637817ee4f90604401602060405180830381865afa158015612850573d6000803e3d6000fd5b505050506040513d601f19601f8201168201806040525081019061287491906143f9565b90506128b56040518060400160405280600b81526020017f4d454d424552504f57455200000000000000000000000000000000000000000081525082613001565b600c546128c283836143c9565b11156128d957600c546128d6908290614367565b91505b6129186040518060400160405280601681526020017f504f494e545320544f20494e43524541534520454e440000000000000000000081525083613001565b509392505050565b600d546040516316308e2560e11b81526001600160a01b0384811660048301526000928392859290911690632c611c4a90602401602060405180830381865afa158015612971573d6000803e3d6000fd5b505050506040513d601f19601f8201168201806040525081019061299591906143f9565b61299f91906143c9565b600d54604080516336d8759760e21b815290519293506012926001600160a01b039092169163db61d65c916004808201926020929091908290030181865afa1580156129ef573d6000803e3d6000fd5b505050506040513d601f19601f82011682018060405250810190612a139190614412565b6001600160a01b031663313ce5676040518163ffffffff1660e01b8152600401602060405180830381865afa925050508015612a6c575060408051601f3d908101601f19168201909252612a69918101906148dc565b60015b612ab357612aae6040518060400160405280601581526020017f4572726f722067657474696e6720646563696d616c0000000000000000000000815250612f90565b612ab9565b60ff1690505b6000612ad3612ac983600a6149e3565b61258e90856143b2565b600d54604051637817ee4f60e01b81526001600160a01b03898116600483015230602483015292935060009290911690637817ee4f90604401602060405180830381865afa158015612b29573d6000803e3d6000fd5b505050506040513d601f19601f82011682018060405250810190612b4d91906143f9565b90506000612b5b8284614367565b98975050505050505050565b6000804390508084600701541115612b8157612b816149ef565b80846007015403612b9757506000905080612bb8565b612bb5846007015482612baa9190614367565b856003015485610f0f565b91505b9250929050565b6001600160a01b03811661110d576040517fe622e04000000000000000000000000000000000000000000000000000000000815260040160405180910390fd5b6000805460ff19168215159081179091556040519081527fd94c9bc4d43c51d8dc345a016d8e3d994432fac68e72832e4cf3a616bd8efae090602001611fe4565b60006001600160a01b03821615612c58576002610c73565b600392915050565b612c68611aa7565b60015415612ca2576040517f439a74c900000000000000000000000000000000000000000000000000000000815260040160405180910390fd5b80600003612cdc576040517f7fcce2a900000000000000000000000000000000000000000000000000000000815260040160405180910390fd5b600155565b612cea8161325b565b612cf381612712565b612d1057604051630b72d6b160e31b815260040160405180910390fd5b600d5460405163011de97360e61b81526001600160a01b038381166004830152306024830152600092169063477a5cc090604401602060405180830381865afa158015612d61573d6000803e3d6000fd5b505050506040513d601f19601f82011682018060405250810190612d8591906143dc565b905080612dbe576040517f5fccb67f00000000000000000000000000000000000000000000000000000000815260040160405180910390fd5b600083806020019051810190612dd49190614a05565b9050612de08382613381565b612dea8382613544565b50505050565b6040518181527f46aeb5d8770fc4474bc2dfa118fd2595f7fb33ce2cbce6f4e5a3dabfe0f7633990602001611fe4565b7fffffffffffffffffffffffff11111111111111111111111111111111111111126001600160a01b03841601612e5a57610cf48282613968565b610cf4838383613984565b6001600160a01b038116600090815260116020908152604080832080548251818502810185019093528083529192909190830182828015612ec557602002820191906000526020600020905b815481526020019060010190808311612eb1575b5050505050905060005b8151811015610cf4576000828281518110612eec57612eec614ab0565b602002602001015190506000600f60008381526020019081526020016000209050612f16826139d3565b15612f7b576001600160a01b0385166000908152600982016020526040812080549082905560028301805491928392612f50908490614367565b925050819055508060076000828254612f699190614367565b90915550612f7990508282611e63565b505b50508080612f88906147b5565b915050612ecf565b61110d81604051602401612fa49190614ac6565b60408051601f198184030181529190526020810180517bffffffffffffffffffffffffffffffffffffffffffffffffffffffff167f41304fac00000000000000000000000000000000000000000000000000000000179052613a0c565b6119708282604051602401613017929190614ad9565b60408051601f198184030181529190526020810180517bffffffffffffffffffffffffffffffffffffffffffffffffffffffff167f9710a9d000000000000000000000000000000000000000000000000000000000179052613a0c565b60008160000361308657506000919050565b6000600161309384613a2d565b901c6001901b905060018184816130ac576130ac61437a565b048201901c905060018184816130c4576130c461437a565b048201901c905060018184816130dc576130dc61437a565b048201901c905060018184816130f4576130f461437a565b048201901c9050600181848161310c5761310c61437a565b048201901c905060018184816131245761312461437a565b048201901c9050600181848161313c5761313c61437a565b048201901c9050610dea818285816131565761315661437a565b04613ac1565b6000600160801b8311156131d85760405162461bcd60e51b815260206004820152602860248201527f5f612073686f756c64206265206c657373207468616e206f7220657175616c2060448201527f746f20325e3132380000000000000000000000000000000000000000000000006064820152608401610d66565b600160801b821061322b5760405162461bcd60e51b815260206004820152601c60248201527f5f622073686f756c64206265206c657373207468616e20325e313238000000006044820152606401610d66565b60806f8000000000000000000000000000000061324884866143b2565b61325291906143c9565b901c9392505050565b6001600160a01b03811661329b576040517fd1f2828800000000000000000000000000000000000000000000000000000000815260040160405180910390fd5b600d546001600160a01b03166132c457604051635df4b1ef60e01b815260040160405180910390fd5b600d546040517fa230c5240000000000000000000000000000000000000000000000000000000081526001600160a01b0383811660048301529091169063a230c52490602401602060405180830381865afa158015613327573d6000803e3d6000fd5b505050506040513d601f19601f8201168201806040525081019061334b91906143dc565b61110d576040517f6a5cfb6d00000000000000000000000000000000000000000000000000000000815260040160405180910390fd5b6000805b825181101561343e578281815181106133a0576133a0614ab0565b6020026020010151600001516000031561342c5760008382815181106133c8576133c8614ab0565b60200260200101516000015190506133df816139d3565b6133ff5760405163c1d17bef60e01b815260048101829052602401610d66565b83828151811061341157613411614ab0565b602002602001015160200151836134289190614afb565b9250505b80613436816147b5565b915050613385565b506001600160a01b0383166000908152601060205260408120546134629083613ad7565b600d54604051637817ee4f60e01b81526001600160a01b03878116600483015230602483015292935060009290911690637817ee4f90604401602060405180830381865afa1580156134b8573d6000803e3d6000fd5b505050506040513d601f19601f820116820180604052508101906134dc91906143f9565b905080821115613522576040517fd64182fe0000000000000000000000000000000000000000000000000000000081526004810183905260248101829052604401610d66565b506001600160a01b039093166000908152601060205260409020929092555050565b606060005b8251811015612dea57600083828151811061356657613566614ab0565b602002602001015160000151905082516000036135c257604080516001808252818301909252906020808301908036833701905050925080836000815181106135b1576135b1614ab0565b602002602001018181525050613715565b6000805b845181101561364157828582815181106135e2576135e2614ab0565b60200260200101510361362f576040517fadebb154000000000000000000000000000000000000000000000000000000008152600481018490526024810182905260019250604401610d66565b80613639816147b5565b9150506135c6565b50806137135760008451600161365791906143c9565b67ffffffffffffffff81111561366f5761366f613cd3565b604051908082528060200260200182016040528015613698578160200160208202803683370190505b50905060005b85518110156136f0578581815181106136b9576136b9614ab0565b60200260200101518282815181106136d3576136d3614ab0565b6020908102919091010152806136e8816147b5565b91505061369e565b50828186518151811061370557613705614ab0565b602090810291909101015293505b505b600084838151811061372957613729614ab0565b6020908102919091018101518101516000848152600f835260408082206001600160a01b038b168352600981019094528120549193506137698285613ad7565b6001600160a01b038a1660009081526009850160205260408120829055909150805b6001600160a01b038b166000908152601160205260409020548110156138025784546001600160a01b038c1660009081526011602052604090208054839081106137d7576137d7614ab0565b9060005260206000200154036137f05760019150613802565b806137fa816147b5565b91505061378b565b5080613838576001600160a01b038a16600090815260116020908152604082208654815460018101835591845291909220909101555b818311613888576138498383614367565b6007600082825461385a91906143c9565b9091555061386a90508383614367565b84600201600082825461387d91906143c9565b909155506138cc9050565b6138928284614367565b600760008282546138a39190614367565b909155506138b390508284614367565b8460020160008282546138c69190614367565b90915550505b83600701546000036138e35743600785015561394f565b6138ed8484611e63565b60028401546003850154604080516001600160a01b038e168152602081018a9052908101859052606081019290925260808201527f0227f642ddcf2042ceaeafadb9d540f432072c00cd4862881667168dcc14710f9060a00160405180910390a15b5050505050508080613960906147b5565b915050613549565b60008060008084865af16119705763b12d13eb6000526004601cfd5b81601452806034526fa9059cbb00000000000000000000000060005260206000604460106000875af13d1560016000511417166139c9576390b8ec186000526004601cfd5b6000603452505050565b6000818152600f602052604081205415801590610c735750506000908152600f60205260409020600501546001600160a01b0316151590565b80516a636f6e736f6c652e6c6f67602083016000808483855afa5050505050565b600080608083901c15613a4257608092831c92015b604083901c15613a5457604092831c92015b602083901c15613a6657602092831c92015b601083901c15613a7857601092831c92015b600883901c15613a8a57600892831c92015b600483901c15613a9c57600492831c92015b600283901c15613aae57600292831c92015b600183901c15610c735760010192915050565b6000818310613ad05781610dea565b5090919050565b600080613ae48385614afb565b90506000811215610dea576040517f3bbc7142000000000000000000000000000000000000000000000000000000008152600481018590526024810184905260448101829052606401610d66565b600060208284031215613b4457600080fd5b5035919050565b634e487b7160e01b600052602160045260246000fd5b60058110613b7157613b71613b4b565b9052565b60005b83811015613b90578181015183820152602001613b78565b50506000910152565b60008151808452613bb1816020860160208601613b75565b601f01601f19169290920160200192915050565b805182526000602082015160406020850152613be46040850182613b99565b949350505050565b60006101408c83528b60208401528a60408401528960608401526001600160a01b03808a16608085015280891660a085015280881660c0850152508560e0840152613c3b610100840186613b61565b80610120840152613c4e81840185613bc5565b9d9c50505050505050505050505050565b600060208284031215613c7157600080fd5b81357fffffffff0000000000000000000000000000000000000000000000000000000081168114610dea57600080fd5b6001600160a01b038116811461110d57600080fd5b600060208284031215613cc857600080fd5b8135610dea81613ca1565b634e487b7160e01b600052604160045260246000fd5b6040805190810167ffffffffffffffff81118282101715613d0c57613d0c613cd3565b60405290565b604051610120810167ffffffffffffffff81118282101715613d0c57613d0c613cd3565b60405160c0810167ffffffffffffffff81118282101715613d0c57613d0c613cd3565b60405160a0810167ffffffffffffffff81118282101715613d0c57613d0c613cd3565b604051601f8201601f1916810167ffffffffffffffff81118282101715613da557613da5613cd3565b604052919050565b600067ffffffffffffffff821115613dc757613dc7613cd3565b5060051b60200190565b600082601f830112613de257600080fd5b81356020613df7613df283613dad565b613d7c565b82815260059290921b84018101918181019086841115613e1657600080fd5b8286015b84811015613e3a578035613e2d81613ca1565b8352918301918301613e1a565b509695505050505050565b600067ffffffffffffffff821115613e5f57613e5f613cd3565b50601f01601f191660200190565b600082601f830112613e7e57600080fd5b8135613e8c613df282613e45565b818152846020838601011115613ea157600080fd5b816020850160208301376000918101602001919091529392505050565b600080600060608486031215613ed357600080fd5b833567ffffffffffffffff80821115613eeb57600080fd5b613ef787838801613dd1565b94506020860135915080821115613f0d57600080fd5b50613f1a86828701613e6d565b9250506040840135613f2b81613ca1565b809150509250925092565b60008060408385031215613f4957600080fd5b823567ffffffffffffffff811115613f6057600080fd5b613f6c85828601613e6d565b9250506020830135613f7d81613ca1565b809150509250929050565b60048110613b7157613b71613b4b565b60208101610c738284613f88565b60008060408385031215613fb957600080fd5b8235613fc481613ca1565b946020939093013593505050565b600080600060608486031215613fe757600080fd5b505081359360208301359350604090920135919050565b60038110613b7157613b71613b4b565b60208101610c738284613ffe565b602081526000610dea6020830184613bc5565b6000806040838503121561404257600080fd5b823567ffffffffffffffff8082111561405a57600080fd5b61406686838701613dd1565b935060209150818501358181111561407d57600080fd5b8501601f8101871361408e57600080fd5b803561409c613df282613dad565b81815260059190911b820184019084810190898311156140bb57600080fd5b8584015b838110156140f3578035868111156140d75760008081fd5b6140e58c8983890101613e6d565b8452509186019186016140bf565b508096505050505050509250929050565b602080825282518282018190526000919060409081850190868401855b8281101561414f57815180516001600160a01b03168552860151868501529284019290850190600101614121565b5091979650505050505050565b801515811461110d57600080fd5b60006020828403121561417c57600080fd5b8135610dea8161415c565b6001600160a01b038b811682528a8116602083015289166040820152606081018890526080810187905261014081016141c360a0830188613b61565b8560c08301528460e083015283610100830152826101208301529b9a5050505050505050505050565b600080604083850312156141ff57600080fd5b823591506020830135613f7d81613ca1565b6000602080838503121561422457600080fd5b823567ffffffffffffffff81111561423b57600080fd5b8301601f8101851361424c57600080fd5b803561425a613df282613dad565b81815260069190911b8201830190838101908783111561427957600080fd5b928401925b8284101561261757604084890312156142975760008081fd5b61429f613ce9565b84358152858501358682015282526040909301929084019061427e565b60208101600783106142d0576142d0613b4b565b91905290565b600080604083850312156142e957600080fd5b82359150602083013567ffffffffffffffff81111561430757600080fd5b61431385828601613e6d565b9150509250929050565b600181811c9082168061433157607f821691505b6020821081036110f657634e487b7160e01b600052602260045260246000fd5b634e487b7160e01b600052601160045260246000fd5b81810381811115610c7357610c73614351565b634e487b7160e01b600052601260045260246000fd5b6000826143ad57634e487b7160e01b600052601260045260246000fd5b500490565b8082028115828204841417610c7357610c73614351565b80820180821115610c7357610c73614351565b6000602082840312156143ee57600080fd5b8151610dea8161415c565b60006020828403121561440b57600080fd5b5051919050565b60006020828403121561442457600080fd5b8151610dea81613ca1565b805161443a81613ca1565b919050565b80516003811061443a57600080fd5b80516004811061443a57600080fd5b60006020828403121561446f57600080fd5b6040516020810181811067ffffffffffffffff8211171561449257614492613cd3565b6040529151825250919050565b600061012082840312156144b257600080fd5b6144ba613d12565b6144c38361442f565b8152602083015160208201526040830151604082015260608301516060820152608083015160808201526144f960a0840161443f565b60a082015261450a60c0840161444e565b60c082015261451c8460e0850161445d565b60e082015261010061452f81850161442f565b908201529392505050565b6000610140820190508382526001600160a01b038351166020830152602083015160408301526040830151606083015260608301516080830152608083015160a083015260a083015161459060c0840182613ffe565b5060c08301516145a360e0840182613f88565b5060e08301515161010083810191909152909201516001600160a01b031661012090910152919050565b6000604082840312156145df57600080fd5b6145e7613ce9565b905081518152602082015167ffffffffffffffff81111561460757600080fd5b8201601f8101841361461857600080fd5b8051614626613df282613e45565b81815285602083850101111561463b57600080fd5b61464c826020830160208601613b75565b602084015250909392505050565b60006020828403121561466c57600080fd5b815167ffffffffffffffff8082111561468457600080fd5b9083019060c0828603121561469857600080fd5b6146a0613d36565b8251815260208301516146b281613ca1565b602082015260408301516146c581613ca1565b60408201526060830151828111156146dc57600080fd5b6146e8878286016145cd565b6060830152506080830151608082015260a083015160a082015280935050505092915050565b60006020828403121561472057600080fd5b815167ffffffffffffffff8082111561473857600080fd5b9083019060a0828603121561474c57600080fd5b614754613d59565b82518152602083015161476681613ca1565b602082015260408381015190820152606083015161478381613ca1565b606082015260808301518281111561479a57600080fd5b6147a6878286016145cd565b60808301525095945050505050565b6000600182016147c7576147c7614351565b5060010190565b601f821115610cf457600081815260208120601f850160051c810160208610156147f55750805b601f850160051c820191505b8181101561481457828155600101614801565b505050505050565b815167ffffffffffffffff81111561483657614836613cd3565b61484a81614844845461431d565b846147ce565b602080601f83116001811461487f57600084156148675750858301515b600019600386901b1c1916600185901b178555614814565b600085815260208120601f198616915b828110156148ae5788860151825594840194600190910190840161488f565b50858210156148cc5787850151600019600388901b60f8161c191681555b5050505050600190811b01905550565b6000602082840312156148ee57600080fd5b815160ff81168114610dea57600080fd5b600181815b8085111561493a57816000190482111561492057614920614351565b8085161561492d57918102915b93841c9390800290614904565b509250929050565b60008261495157506001610c73565b8161495e57506000610c73565b8160018114614974576002811461497e5761499a565b6001915050610c73565b60ff84111561498f5761498f614351565b50506001821b610c73565b5060208310610133831016604e8410600b84101617156149bd575081810a610c73565b6149c783836148ff565b80600019048211156149db576149db614351565b029392505050565b6000610dea8383614942565b634e487b7160e01b600052600160045260246000fd5b60006020808385031215614a1857600080fd5b825167ffffffffffffffff811115614a2f57600080fd5b8301601f81018513614a4057600080fd5b8051614a4e613df282613dad565b81815260069190911b82018301908381019087831115614a6d57600080fd5b928401925b828410156126175760408489031215614a8b5760008081fd5b614a93613ce9565b845181528585015186820152825260409093019290840190614a72565b634e487b7160e01b600052603260045260246000fd5b602081526000610dea6020830184613b99565b604081526000614aec6040830185613b99565b90508260208301529392505050565b80820182811260008312801582168215821617156126c3576126c361435156fea26469706673582212201fb83889697096e7240a9dbebf8dc66d616082927ca2efb14ff30e8770a70bff64736f6c63430008130033","linkReferences":{}},"methodIdentifiers":{"D()":"0f529ba2","MAX_STAKED_PROPOSALS()":"406244d8","NATIVE()":"a0cf0aea","_minThresholdPoints()":"7c6570ba","activatePoints()":"814516ad","allocate(bytes,address)":"ef2920fc","calculateConviction(uint256,uint256,uint256)":"346db8cb","calculateThreshold(uint256)":"59a5db8b","canExecuteProposal(uint256)":"824ea8ed","deactivatePoints()":"1ddf1e23","deactivatePoints(address)":"6453d9c4","decay()":"54fac919","decreasePower(address,uint256)":"2ed04b2b","distribute(address[],bytes,address)":"0a6f0ee9","getAllo()":"15cc481e","getMaxAmount()":"0ba95909","getMaxConviction(uint256)":"950559d7","getMetadata(uint256)":"a574cea4","getPayouts(address[],bytes[])":"b2b878d0","getPointSystem()":"c3292171","getPoolAmount()":"4ab4ba42","getPoolId()":"38fff2d0","getProposal(uint256)":"c7f758a8","getProposalStakedAmount(uint256)":"dc96ff2d","getProposalVoterStake(uint256,address)":"e0dd2c38","getRecipientStatus(address)":"eb11af93","getStrategyId()":"42fda9c7","getTotalVoterStakePct(address)":"bcc5b93b","increasePoolAmount(uint256)":"f5b0dfb7","increasePower(address,uint256)":"782aadff","initialize(uint256,bytes)":"edd146cc","isPoolActive()":"df868ed3","isValidAllocator(address)":"4d31d087","maxRatio()":"76365af7","pointConfig()":"a47ff7e5","pointSystem()":"2dbd6fdd","proposalCounter()":"0c0512e9","proposalType()":"351d9f96","proposals(uint256)":"013cf08b","registerRecipient(bytes,address)":"2bbe0cae","registryCommunity()":"6003e414","setDecay(uint256)":"69fa25c4","setMaxRatio(uint256)":"11f22ae3","setMinThresholdPoints(uint256)":"2cefadbb","setPoolActive(bool)":"b5f620ce","setRegistryCommunity(address)":"058aca44","setSybilScorer(address)":"ac1ed7b9","setWeight(uint256)":"fc1711f2","supportProposal((uint256,int256)[])":"e33add93","supportsInterface(bytes4)":"01ffc9a7","sybilScorer()":"b6c61f31","totalEffectiveActivePoints()":"d1e36232","totalPointsActivated()":"aba9ffee","totalStaked()":"817b1cd2","totalVoterStakePct(address)":"5db64b99","updateProposalConviction(uint256)":"1aa91a9e","voterStakedProposals(address,uint256)":"868c57b8","weight()":"a1aab33f"},"id":111}