{"abi":[{"type":"constructor","inputs":[{"name":"_allo","type":"address","internalType":"address"}],"stateMutability":"nonpayable"},{"type":"fallback","stateMutability":"payable"},{"type":"receive","stateMutability":"payable"},{"type":"function","name":"D","inputs":[],"outputs":[{"name":"","type":"uint256","internalType":"uint256"}],"stateMutability":"view"},{"type":"function","name":"MAX_STAKED_PROPOSALS","inputs":[],"outputs":[{"name":"","type":"uint256","internalType":"uint256"}],"stateMutability":"view"},{"type":"function","name":"NATIVE","inputs":[],"outputs":[{"name":"","type":"address","internalType":"address"}],"stateMutability":"view"},{"type":"function","name":"_minThresholdPoints","inputs":[],"outputs":[{"name":"","type":"uint256","internalType":"uint256"}],"stateMutability":"view"},{"type":"function","name":"activatePoints","inputs":[],"outputs":[],"stateMutability":"nonpayable"},{"type":"function","name":"allocate","inputs":[{"name":"_data","type":"bytes","internalType":"bytes"},{"name":"_sender","type":"address","internalType":"address"}],"outputs":[],"stateMutability":"payable"},{"type":"function","name":"calculateConviction","inputs":[{"name":"_timePassed","type":"uint256","internalType":"uint256"},{"name":"_lastConv","type":"uint256","internalType":"uint256"},{"name":"_oldAmount","type":"uint256","internalType":"uint256"}],"outputs":[{"name":"","type":"uint256","internalType":"uint256"}],"stateMutability":"view"},{"type":"function","name":"calculateThreshold","inputs":[{"name":"_requestedAmount","type":"uint256","internalType":"uint256"}],"outputs":[{"name":"_threshold","type":"uint256","internalType":"uint256"}],"stateMutability":"view"},{"type":"function","name":"canExecuteProposal","inputs":[{"name":"proposalId","type":"uint256","internalType":"uint256"}],"outputs":[{"name":"canBeExecuted","type":"bool","internalType":"bool"}],"stateMutability":"view"},{"type":"function","name":"deactivatePoints","inputs":[],"outputs":[],"stateMutability":"nonpayable"},{"type":"function","name":"deactivatePoints","inputs":[{"name":"_member","type":"address","internalType":"address"}],"outputs":[],"stateMutability":"nonpayable"},{"type":"function","name":"decay","inputs":[],"outputs":[{"name":"","type":"uint256","internalType":"uint256"}],"stateMutability":"view"},{"type":"function","name":"decreasePower","inputs":[{"name":"_member","type":"address","internalType":"address"},{"name":"_amountToUnstake","type":"uint256","internalType":"uint256"}],"outputs":[{"name":"","type":"uint256","internalType":"uint256"}],"stateMutability":"nonpayable"},{"type":"function","name":"distribute","inputs":[{"name":"_recipientIds","type":"address[]","internalType":"address[]"},{"name":"_data","type":"bytes","internalType":"bytes"},{"name":"_sender","type":"address","internalType":"address"}],"outputs":[],"stateMutability":"nonpayable"},{"type":"function","name":"getAllo","inputs":[],"outputs":[{"name":"","type":"address","internalType":"contract IAllo"}],"stateMutability":"view"},{"type":"function","name":"getMaxAmount","inputs":[],"outputs":[{"name":"","type":"uint256","internalType":"uint256"}],"stateMutability":"view"},{"type":"function","name":"getMaxConviction","inputs":[{"name":"amount","type":"uint256","internalType":"uint256"}],"outputs":[{"name":"","type":"uint256","internalType":"uint256"}],"stateMutability":"view"},{"type":"function","name":"getMetadata","inputs":[{"name":"_proposalId","type":"uint256","internalType":"uint256"}],"outputs":[{"name":"","type":"tuple","internalType":"struct Metadata","components":[{"name":"protocol","type":"uint256","internalType":"uint256"},{"name":"pointer","type":"string","internalType":"string"}]}],"stateMutability":"view"},{"type":"function","name":"getPayouts","inputs":[{"name":"","type":"address[]","internalType":"address[]"},{"name":"","type":"bytes[]","internalType":"bytes[]"}],"outputs":[{"name":"","type":"tuple[]","internalType":"struct IStrategy.PayoutSummary[]","components":[{"name":"recipientAddress","type":"address","internalType":"address"},{"name":"amount","type":"uint256","internalType":"uint256"}]}],"stateMutability":"pure"},{"type":"function","name":"getPointSystem","inputs":[],"outputs":[{"name":"","type":"uint8","internalType":"enum StrategyStruct.PointSystem"}],"stateMutability":"view"},{"type":"function","name":"getPoolAmount","inputs":[],"outputs":[{"name":"","type":"uint256","internalType":"uint256"}],"stateMutability":"view"},{"type":"function","name":"getPoolId","inputs":[],"outputs":[{"name":"","type":"uint256","internalType":"uint256"}],"stateMutability":"view"},{"type":"function","name":"getProposal","inputs":[{"name":"_proposalId","type":"uint256","internalType":"uint256"}],"outputs":[{"name":"submitter","type":"address","internalType":"address"},{"name":"beneficiary","type":"address","internalType":"address"},{"name":"requestedToken","type":"address","internalType":"address"},{"name":"requestedAmount","type":"uint256","internalType":"uint256"},{"name":"stakedAmount","type":"uint256","internalType":"uint256"},{"name":"proposalStatus","type":"uint8","internalType":"enum StrategyStruct.ProposalStatus"},{"name":"blockLast","type":"uint256","internalType":"uint256"},{"name":"convictionLast","type":"uint256","internalType":"uint256"},{"name":"threshold","type":"uint256","internalType":"uint256"},{"name":"voterStakedPoints","type":"uint256","internalType":"uint256"}],"stateMutability":"view"},{"type":"function","name":"getProposalStakedAmount","inputs":[{"name":"_proposalId","type":"uint256","internalType":"uint256"}],"outputs":[{"name":"","type":"uint256","internalType":"uint256"}],"stateMutability":"view"},{"type":"function","name":"getProposalVoterStake","inputs":[{"name":"_proposalId","type":"uint256","internalType":"uint256"},{"name":"_voter","type":"address","internalType":"address"}],"outputs":[{"name":"","type":"uint256","internalType":"uint256"}],"stateMutability":"view"},{"type":"function","name":"getRecipientStatus","inputs":[{"name":"_recipientId","type":"address","internalType":"address"}],"outputs":[{"name":"","type":"uint8","internalType":"enum IStrategy.Status"}],"stateMutability":"view"},{"type":"function","name":"getStrategyId","inputs":[],"outputs":[{"name":"","type":"bytes32","internalType":"bytes32"}],"stateMutability":"view"},{"type":"function","name":"getTotalVoterStakePct","inputs":[{"name":"_voter","type":"address","internalType":"address"}],"outputs":[{"name":"","type":"uint256","internalType":"uint256"}],"stateMutability":"view"},{"type":"function","name":"increasePoolAmount","inputs":[{"name":"_amount","type":"uint256","internalType":"uint256"}],"outputs":[],"stateMutability":"nonpayable"},{"type":"function","name":"increasePower","inputs":[{"name":"_member","type":"address","internalType":"address"},{"name":"_amountToStake","type":"uint256","internalType":"uint256"}],"outputs":[{"name":"","type":"uint256","internalType":"uint256"}],"stateMutability":"nonpayable"},{"type":"function","name":"initialize","inputs":[{"name":"_poolId","type":"uint256","internalType":"uint256"},{"name":"_data","type":"bytes","internalType":"bytes"}],"outputs":[],"stateMutability":"nonpayable"},{"type":"function","name":"isPoolActive","inputs":[],"outputs":[{"name":"","type":"bool","internalType":"bool"}],"stateMutability":"view"},{"type":"function","name":"isValidAllocator","inputs":[{"name":"_allocator","type":"address","internalType":"address"}],"outputs":[{"name":"","type":"bool","internalType":"bool"}],"stateMutability":"view"},{"type":"function","name":"maxRatio","inputs":[],"outputs":[{"name":"","type":"uint256","internalType":"uint256"}],"stateMutability":"view"},{"type":"function","name":"pointConfig","inputs":[],"outputs":[{"name":"maxAmount","type":"uint256","internalType":"uint256"}],"stateMutability":"view"},{"type":"function","name":"pointSystem","inputs":[],"outputs":[{"name":"","type":"uint8","internalType":"enum StrategyStruct.PointSystem"}],"stateMutability":"view"},{"type":"function","name":"proposalCounter","inputs":[],"outputs":[{"name":"","type":"uint256","internalType":"uint256"}],"stateMutability":"view"},{"type":"function","name":"proposalType","inputs":[],"outputs":[{"name":"","type":"uint8","internalType":"enum StrategyStruct.ProposalType"}],"stateMutability":"view"},{"type":"function","name":"proposals","inputs":[{"name":"","type":"uint256","internalType":"uint256"}],"outputs":[{"name":"proposalId","type":"uint256","internalType":"uint256"},{"name":"requestedAmount","type":"uint256","internalType":"uint256"},{"name":"stakedAmount","type":"uint256","internalType":"uint256"},{"name":"convictionLast","type":"uint256","internalType":"uint256"},{"name":"beneficiary","type":"address","internalType":"address"},{"name":"submitter","type":"address","internalType":"address"},{"name":"requestedToken","type":"address","internalType":"address"},{"name":"blockLast","type":"uint256","internalType":"uint256"},{"name":"proposalStatus","type":"uint8","internalType":"enum StrategyStruct.ProposalStatus"},{"name":"metadata","type":"tuple","internalType":"struct Metadata","components":[{"name":"protocol","type":"uint256","internalType":"uint256"},{"name":"pointer","type":"string","internalType":"string"}]}],"stateMutability":"view"},{"type":"function","name":"registerRecipient","inputs":[{"name":"_data","type":"bytes","internalType":"bytes"},{"name":"_sender","type":"address","internalType":"address"}],"outputs":[{"name":"recipientId","type":"address","internalType":"address"}],"stateMutability":"payable"},{"type":"function","name":"registryCommunity","inputs":[],"outputs":[{"name":"","type":"address","internalType":"contract RegistryCommunity"}],"stateMutability":"view"},{"type":"function","name":"setDecay","inputs":[{"name":"_decay","type":"uint256","internalType":"uint256"}],"outputs":[],"stateMutability":"nonpayable"},{"type":"function","name":"setMaxRatio","inputs":[{"name":"_maxRatio","type":"uint256","internalType":"uint256"}],"outputs":[],"stateMutability":"nonpayable"},{"type":"function","name":"setMinThresholdPoints","inputs":[{"name":"minThresholdPoints_","type":"uint256","internalType":"uint256"}],"outputs":[],"stateMutability":"nonpayable"},{"type":"function","name":"setPoolActive","inputs":[{"name":"_active","type":"bool","internalType":"bool"}],"outputs":[],"stateMutability":"nonpayable"},{"type":"function","name":"setRegistryCommunity","inputs":[{"name":"_registryCommunity","type":"address","internalType":"address"}],"outputs":[],"stateMutability":"nonpayable"},{"type":"function","name":"setWeight","inputs":[{"name":"_weight","type":"uint256","internalType":"uint256"}],"outputs":[],"stateMutability":"nonpayable"},{"type":"function","name":"supportProposal","inputs":[{"name":"","type":"tuple[]","internalType":"struct StrategyStruct.ProposalSupport[]","components":[{"name":"proposalId","type":"uint256","internalType":"uint256"},{"name":"deltaSupport","type":"int256","internalType":"int256"}]}],"outputs":[],"stateMutability":"pure"},{"type":"function","name":"supportsInterface","inputs":[{"name":"interfaceId","type":"bytes4","internalType":"bytes4"}],"outputs":[{"name":"","type":"bool","internalType":"bool"}],"stateMutability":"view"},{"type":"function","name":"totalEffectiveActivePoints","inputs":[],"outputs":[{"name":"","type":"uint256","internalType":"uint256"}],"stateMutability":"view"},{"type":"function","name":"totalPointsActivated","inputs":[],"outputs":[{"name":"","type":"uint256","internalType":"uint256"}],"stateMutability":"view"},{"type":"function","name":"totalStaked","inputs":[],"outputs":[{"name":"","type":"uint256","internalType":"uint256"}],"stateMutability":"view"},{"type":"function","name":"totalVoterStakePct","inputs":[{"name":"","type":"address","internalType":"address"}],"outputs":[{"name":"","type":"uint256","internalType":"uint256"}],"stateMutability":"view"},{"type":"function","name":"updateProposalConviction","inputs":[{"name":"proposalId","type":"uint256","internalType":"uint256"}],"outputs":[{"name":"","type":"uint256","internalType":"uint256"}],"stateMutability":"nonpayable"},{"type":"function","name":"voterStakedProposals","inputs":[{"name":"","type":"address","internalType":"address"},{"name":"","type":"uint256","internalType":"uint256"}],"outputs":[{"name":"","type":"uint256","internalType":"uint256"}],"stateMutability":"view"},{"type":"function","name":"weight","inputs":[],"outputs":[{"name":"","type":"uint256","internalType":"uint256"}],"stateMutability":"view"},{"type":"event","name":"Allocated","inputs":[{"name":"recipientId","type":"address","indexed":true,"internalType":"address"},{"name":"amount","type":"uint256","indexed":false,"internalType":"uint256"},{"name":"token","type":"address","indexed":false,"internalType":"address"},{"name":"sender","type":"address","indexed":false,"internalType":"address"}],"anonymous":false},{"type":"event","name":"DecayUpdated","inputs":[{"name":"decay","type":"uint256","indexed":false,"internalType":"uint256"}],"anonymous":false},{"type":"event","name":"Distributed","inputs":[{"name":"proposalId","type":"uint256","indexed":false,"internalType":"uint256"},{"name":"beneficiary","type":"address","indexed":false,"internalType":"address"},{"name":"amount","type":"uint256","indexed":false,"internalType":"uint256"}],"anonymous":false},{"type":"event","name":"Distributed","inputs":[{"name":"recipientId","type":"address","indexed":true,"internalType":"address"},{"name":"recipientAddress","type":"address","indexed":false,"internalType":"address"},{"name":"amount","type":"uint256","indexed":false,"internalType":"uint256"},{"name":"sender","type":"address","indexed":false,"internalType":"address"}],"anonymous":false},{"type":"event","name":"Initialized","inputs":[{"name":"poolId","type":"uint256","indexed":false,"internalType":"uint256"},{"name":"data","type":"bytes","indexed":false,"internalType":"bytes"}],"anonymous":false},{"type":"event","name":"InitializedCV","inputs":[{"name":"poolId","type":"uint256","indexed":false,"internalType":"uint256"},{"name":"data","type":"tuple","indexed":false,"internalType":"struct StrategyStruct.InitializeParams","components":[{"name":"registryCommunity","type":"address","internalType":"address"},{"name":"decay","type":"uint256","internalType":"uint256"},{"name":"maxRatio","type":"uint256","internalType":"uint256"},{"name":"weight","type":"uint256","internalType":"uint256"},{"name":"minThresholdPoints","type":"uint256","internalType":"uint256"},{"name":"proposalType","type":"uint8","internalType":"enum StrategyStruct.ProposalType"},{"name":"pointSystem","type":"uint8","internalType":"enum StrategyStruct.PointSystem"},{"name":"pointConfig","type":"tuple","internalType":"struct StrategyStruct.PointSystemConfig","components":[{"name":"maxAmount","type":"uint256","internalType":"uint256"}]},{"name":"sybilConfig","type":"tuple","internalType":"struct StrategyStruct.SybilConfig","components":[{"name":"sybilOracleScorer","type":"address","internalType":"address"},{"name":"threshold","type":"uint256","internalType":"uint256"}]}]}],"anonymous":false},{"type":"event","name":"MaxRatioUpdated","inputs":[{"name":"maxRatio","type":"uint256","indexed":false,"internalType":"uint256"}],"anonymous":false},{"type":"event","name":"MinThresholdPointsUpdated","inputs":[{"name":"before","type":"uint256","indexed":false,"internalType":"uint256"},{"name":"minThresholdPoints","type":"uint256","indexed":false,"internalType":"uint256"}],"anonymous":false},{"type":"event","name":"PointsDeactivated","inputs":[{"name":"member","type":"address","indexed":false,"internalType":"address"}],"anonymous":false},{"type":"event","name":"PoolActive","inputs":[{"name":"active","type":"bool","indexed":false,"internalType":"bool"}],"anonymous":false},{"type":"event","name":"PoolAmountIncreased","inputs":[{"name":"amount","type":"uint256","indexed":false,"internalType":"uint256"}],"anonymous":false},{"type":"event","name":"PowerDecreased","inputs":[{"name":"member","type":"address","indexed":false,"internalType":"address"},{"name":"tokensUnStaked","type":"uint256","indexed":false,"internalType":"uint256"},{"name":"pointsToDecrease","type":"uint256","indexed":false,"internalType":"uint256"}],"anonymous":false},{"type":"event","name":"PowerIncreased","inputs":[{"name":"member","type":"address","indexed":false,"internalType":"address"},{"name":"tokensStaked","type":"uint256","indexed":false,"internalType":"uint256"},{"name":"pointsToIncrease","type":"uint256","indexed":false,"internalType":"uint256"}],"anonymous":false},{"type":"event","name":"ProposalCreated","inputs":[{"name":"poolId","type":"uint256","indexed":false,"internalType":"uint256"},{"name":"proposalId","type":"uint256","indexed":false,"internalType":"uint256"}],"anonymous":false},{"type":"event","name":"Registered","inputs":[{"name":"recipientId","type":"address","indexed":true,"internalType":"address"},{"name":"data","type":"bytes","indexed":false,"internalType":"bytes"},{"name":"sender","type":"address","indexed":false,"internalType":"address"}],"anonymous":false},{"type":"event","name":"RegistryUpdated","inputs":[{"name":"registryCommunity","type":"address","indexed":false,"internalType":"address"}],"anonymous":false},{"type":"event","name":"SupportAdded","inputs":[{"name":"from","type":"address","indexed":false,"internalType":"address"},{"name":"proposalId","type":"uint256","indexed":false,"internalType":"uint256"},{"name":"amount","type":"uint256","indexed":false,"internalType":"uint256"},{"name":"totalStakedAmount","type":"uint256","indexed":false,"internalType":"uint256"},{"name":"convictionLast","type":"uint256","indexed":false,"internalType":"uint256"}],"anonymous":false},{"type":"event","name":"WeightUpdated","inputs":[{"name":"weight","type":"uint256","indexed":false,"internalType":"uint256"}],"anonymous":false},{"type":"error","name":"ALLOCATION_ACTIVE","inputs":[]},{"type":"error","name":"ALLOCATION_NOT_ACTIVE","inputs":[]},{"type":"error","name":"ALLOCATION_NOT_ENDED","inputs":[]},{"type":"error","name":"ALREADY_INITIALIZED","inputs":[]},{"type":"error","name":"AMOUNT_MISMATCH","inputs":[]},{"type":"error","name":"ANCHOR_ERROR","inputs":[]},{"type":"error","name":"ARRAY_MISMATCH","inputs":[]},{"type":"error","name":"AddressCannotBeZero","inputs":[]},{"type":"error","name":"AmountOverMaxRatio","inputs":[]},{"type":"error","name":"CantIncreaseFixedSystem","inputs":[]},{"type":"error","name":"ConvictionUnderMinimumThreshold","inputs":[]},{"type":"error","name":"INVALID","inputs":[]},{"type":"error","name":"INVALID_ADDRESS","inputs":[]},{"type":"error","name":"INVALID_FEE","inputs":[]},{"type":"error","name":"INVALID_METADATA","inputs":[]},{"type":"error","name":"INVALID_REGISTRATION","inputs":[]},{"type":"error","name":"IS_APPROVED_STRATEGY","inputs":[]},{"type":"error","name":"MISMATCH","inputs":[]},{"type":"error","name":"MaxPointsReached","inputs":[]},{"type":"error","name":"NONCE_NOT_AVAILABLE","inputs":[]},{"type":"error","name":"NOT_APPROVED_STRATEGY","inputs":[]},{"type":"error","name":"NOT_ENOUGH_FUNDS","inputs":[]},{"type":"error","name":"NOT_IMPLEMENTED","inputs":[]},{"type":"error","name":"NOT_INITIALIZED","inputs":[]},{"type":"error","name":"NOT_PENDING_OWNER","inputs":[]},{"type":"error","name":"NotEnoughPointsToSupport","inputs":[{"name":"pointsSupport","type":"uint256","internalType":"uint256"},{"name":"pointsBalance","type":"uint256","internalType":"uint256"}]},{"type":"error","name":"NotImplemented","inputs":[]},{"type":"error","name":"OnlyCommunityAllowed","inputs":[]},{"type":"error","name":"POOL_ACTIVE","inputs":[]},{"type":"error","name":"POOL_INACTIVE","inputs":[]},{"type":"error","name":"PoolAmountNotEnough","inputs":[{"name":"_proposalId","type":"uint256","internalType":"uint256"},{"name":"_requestedAmount","type":"uint256","internalType":"uint256"},{"name":"_poolAmount","type":"uint256","internalType":"uint256"}]},{"type":"error","name":"PoolIdCannotBeZero","inputs":[]},{"type":"error","name":"PoolIsEmpty","inputs":[]},{"type":"error","name":"ProposalDataIsEmpty","inputs":[]},{"type":"error","name":"ProposalIdCannotBeZero","inputs":[]},{"type":"error","name":"ProposalNotActive","inputs":[{"name":"_proposalId","type":"uint256","internalType":"uint256"}]},{"type":"error","name":"ProposalNotInList","inputs":[{"name":"_proposalId","type":"uint256","internalType":"uint256"}]},{"type":"error","name":"ProposalSupportDuplicated","inputs":[{"name":"_proposalId","type":"uint256","internalType":"uint256"},{"name":"index","type":"uint256","internalType":"uint256"}]},{"type":"error","name":"RECIPIENT_ALREADY_ACCEPTED","inputs":[]},{"type":"error","name":"RECIPIENT_ERROR","inputs":[{"name":"recipientId","type":"address","internalType":"address"}]},{"type":"error","name":"RECIPIENT_NOT_ACCEPTED","inputs":[]},{"type":"error","name":"REGISTRATION_NOT_ACTIVE","inputs":[]},{"type":"error","name":"RegistryCannotBeZero","inputs":[]},{"type":"error","name":"SupportUnderflow","inputs":[{"name":"_support","type":"uint256","internalType":"uint256"},{"name":"_delta","type":"int256","internalType":"int256"},{"name":"_result","type":"int256","internalType":"int256"}]},{"type":"error","name":"TokenCannotBeZero","inputs":[]},{"type":"error","name":"TokenNotAllowed","inputs":[]},{"type":"error","name":"UNAUTHORIZED","inputs":[]},{"type":"error","name":"UserCannotBeZero","inputs":[]},{"type":"error","name":"UserIsInactive","inputs":[]},{"type":"error","name":"UserNotInRegistry","inputs":[]},{"type":"error","name":"ZERO_ADDRESS","inputs":[]}],"bytecode":{"object":"0x60c0604052600060065560006009553480156200001b57600080fd5b5060405162004ab338038062004ab38339810160408190526200003e91620000a6565b604080518082018252600a8152694356537472617465677960b01b6020808301919091526001600160a01b038416608052915183926200008191839101620000d8565b60408051601f19818403018152919052805160209091012060a0525062000128915050565b600060208284031215620000b957600080fd5b81516001600160a01b0381168114620000d157600080fd5b9392505050565b600060208083528351808285015260005b818110156200010757858101830151858201604001528201620000e9565b506000604082860101526040601f19601f8301168501019250505092915050565b60805160a0516149506200016360003960006105de0152600081816104720152818161188f015281816119220152611bab01526149506000f3fe60806040526004361061033f5760003560e01c806376365af7116101ae578063b5f620ce116100eb578063e0dd2c381161008f578063edd146cc1161006c578063edd146cc14610a09578063ef2920fc14610a29578063f5b0dfb714610a3c578063fc1711f214610a5c57005b8063e0dd2c381461099c578063e33add93146109bc578063eb11af93146109dc57005b8063c7f758a8116100c8578063c7f758a814610909578063d1e362321461093f578063dc96ff2d14610954578063df868ed31461098457005b8063b5f620ce14610896578063bcc5b93b146108b6578063c3292171146108ec57005b8063950559d711610152578063a47ff7e51161012f578063a47ff7e51461080f578063a574cea414610826578063aba9ffee14610853578063b2b878d01461086957005b8063950559d7146107b1578063a0cf0aea146107d1578063a1aab33f146107f957005b8063814516ad1161018b578063814516ad14610746578063817b1cd21461075b578063824ea8ed14610771578063868c57b81461079157005b806376365af7146106fa578063782aadff146107105780637c6570ba1461073057005b80632ed04b2b1161027c5780634d31d087116102205780635db64b99116101fd5780635db64b991461066d5780636003e4141461069a5780636453d9c4146106ba57806369fa25c4146106da57005b80634d31d0871461061757806354fac9191461063757806359a5db8b1461064d57005b806338fff2d01161025957806338fff2d0146105a5578063406244d8146105ba57806342fda9c7146105cf5780634ab4ba421461060257005b80632ed04b2b1461053e578063346db8cb1461055e578063351d9f961461057e57005b806311f22ae3116102e35780631ddf1e23116102c05780631ddf1e23146104ca5780632bbe0cae146104df5780632cefadbb146104f25780632dbd6fdd1461051257005b806311f22ae31461044357806315cc481e146104635780631aa91a9e146104aa57005b80630a6f0ee91161031c5780630a6f0ee9146103d75780630ba95909146103f75780630c0512e9146104165780630f529ba21461042c57005b8063013cf08b1461034857806301ffc9a714610387578063058aca44146103b757005b3661034657005b005b34801561035457600080fd5b506103686103633660046138e1565b610a7c565b60405161037e9a9998979695949392919061399b565b60405180910390f35b34801561039357600080fd5b506103a76103a2366004613a0e565b610b8a565b604051901515815260200161037e565b3480156103c357600080fd5b506103466103d2366004613a65565b610c23565b3480156103e357600080fd5b506103466103f2366004613c6d565b610c90565b34801561040357600080fd5b50600c545b60405190815260200161037e565b34801561042257600080fd5b5061040860065481565b34801561043857600080fd5b506104086298968081565b34801561044f57600080fd5b5061034661045e3660046138e1565b610cb0565b34801561046f57600080fd5b507f00000000000000000000000000000000000000000000000000000000000000005b6040516001600160a01b03909116815260200161037e565b3480156104b657600080fd5b506104086104c53660046138e1565b610cef565b3480156104d657600080fd5b50610346610d7a565b6104926104ed366004613ce5565b610d85565b3480156104fe57600080fd5b5061034661050d3660046138e1565b610da8565b34801561051e57600080fd5b50600b5461053190610100900460ff1681565b60405161037e9190613d47565b34801561054a57600080fd5b50610408610559366004613d55565b610df4565b34801561056a57600080fd5b50610408610579366004613d81565b610ec6565b34801561058a57600080fd5b50600b546105989060ff1681565b60405161037e9190613dbd565b3480156105b157600080fd5b50600154610408565b3480156105c657600080fd5b50610408600a81565b3480156105db57600080fd5b507f0000000000000000000000000000000000000000000000000000000000000000610408565b34801561060e57600080fd5b50600254610408565b34801561062357600080fd5b506103a7610632366004613a65565b610f6b565b34801561064357600080fd5b5061040860035481565b34801561065957600080fd5b506104086106683660046138e1565b610f76565b34801561067957600080fd5b50610408610688366004613a65565b600f6020526000908152604090205481565b3480156106a657600080fd5b50600d54610492906001600160a01b031681565b3480156106c657600080fd5b506103466106d5366004613a65565b6110b3565b3480156106e657600080fd5b506103466106f53660046138e1565b6110c7565b34801561070657600080fd5b5061040860045481565b34801561071c57600080fd5b5061040861072b366004613d55565b611106565b34801561073c57600080fd5b5061040860095481565b34801561075257600080fd5b50610346611282565b34801561076757600080fd5b5061040860075481565b34801561077d57600080fd5b506103a761078c3660046138e1565b61138c565b34801561079d57600080fd5b506104086107ac366004613d55565b6113e9565b3480156107bd57600080fd5b506104086107cc3660046138e1565b61141a565b3480156107dd57600080fd5b5061049273eeeeeeeeeeeeeeeeeeeeeeeeeeeeeeeeeeeeeeee81565b34801561080557600080fd5b5061040860055481565b34801561081b57600080fd5b50600c546104089081565b34801561083257600080fd5b506108466108413660046138e1565b611444565b60405161037e9190613dcb565b34801561085f57600080fd5b5061040860085481565b34801561087557600080fd5b50610889610884366004613dde565b611523565b60405161037e9190613eb3565b3480156108a257600080fd5b506103466108b1366004613f21565b61153e565b3480156108c257600080fd5b506104086108d1366004613a65565b6001600160a01b03166000908152600f602052604090205490565b3480156108f857600080fd5b50600b54610100900460ff16610531565b34801561091557600080fd5b506109296109243660046138e1565b611547565b60405161037e9a99989796959493929190613f3e565b34801561094b57600080fd5b50600854610408565b34801561096057600080fd5b5061040861096f3660046138e1565b6000908152600e602052604090206002015490565b34801561099057600080fd5b5060005460ff166103a7565b3480156109a857600080fd5b506104086109b7366004613fa3565b611649565b3480156109c857600080fd5b506103466109d7366004613fc8565b611674565b3480156109e857600080fd5b506109fc6109f7366004613a65565b61168d565b60405161037e9190614073565b348015610a1557600080fd5b50610346610a2436600461408d565b611698565b610346610a37366004613ce5565b6117c6565b348015610a4857600080fd5b50610346610a573660046138e1565b6117e4565b348015610a6857600080fd5b50610346610a773660046138e1565b61180d565b600e602090815260009182526040918290208054600182015460028301546003840154600485015460058601546006870154600788015460088901548b51808d01909c52600a8a0180548d52600b8b0180549a9d999c989b979a6001600160a01b039788169a968816999790951697939660ff9093169593949192840191610b03906140d4565b80601f0160208091040260200160405190810160405280929190818152602001828054610b2f906140d4565b8015610b7c5780601f10610b5157610100808354040283529160200191610b7c565b820191906000526020600020905b815481529060010190602001808311610b5f57829003601f168201915b50505050508152505090508a565b60007fffffffff0000000000000000000000000000000000000000000000000000000082167ff1801e61000000000000000000000000000000000000000000000000000000001480610c1d57507f01ffc9a7000000000000000000000000000000000000000000000000000000007fffffffff000000000000000000000000000000000000000000000000000000008316145b92915050565b33610c2d8161184c565b600d805473ffffffffffffffffffffffffffffffffffffffff19166001600160a01b0384169081179091556040519081527fd6ceddf6d2a22f21c7c81675c518004eff43bc5c8a6fc32a0b748e69d58671cd906020015b60405180910390a15050565b610c98611917565b610ca0611960565b610cab83838361199c565b505050565b33610cba8161184c565b60048290556040518281527f08e39b387d1f739ce0d2553bb31822392e3f67c62c6c0a215120ab4a6841a8ab90602001610c84565b6000818152600e6020526040812080548314610d265760405163c1d17bef60e01b8152600481018490526024015b60405180910390fd5b6001600882015460ff166004811115610d4157610d416138fa565b14610d62576040516344980d8f60e01b815260048101849052602401610d1d565b610d70818260020154611cd3565b6003015492915050565b610d8333611d0e565b565b6000610d8f611917565b610d97611960565b610da18383611e5f565b9392505050565b33610db28161184c565b60095460408051918252602082018490527f056aedca4e334b6c4bea48715fb0de644811b740894de57a0380d3eb90f2805b910160405180910390a150600955565b6000610dfe612197565b60006002600b54610100900460ff166003811115610e1e57610e1e6138fa565b1480610e4557506001600b54610100900460ff166003811115610e4357610e436138fa565b145b15610e51575081610e5e565b610e5b84846121db565b90505b8060086000828254610e70919061411e565b9091555050604080516001600160a01b0386168152602081018590529081018290527f70b752f3fadb6ac131c0ece847fcbb6994ec56ed6411595710fd9b29c6ac6cc19060600160405180910390a19392505050565b6000808490506000610eec629896806080600354901b610ee69190614147565b8361249f565b905060806f8000000000000000000000000000000060035462989680610f12919061411e565b610f2084600160801b61411e565b610f2d6298968089614169565b610f379190614169565b610f419190614147565b610f4b8885614169565b610f559190614180565b610f5f9190614180565b901c9695505050505050565b6000610c1d82612548565b60008060025411610fb3576040517fed4421ad00000000000000000000000000000000000000000000000000000000815260040160405180910390fd5b610fbc82612568565b15610fda57604051630efd728560e21b815260040160405180910390fd5b600254600090610ff38468010000000000000000614169565b610ffd9190614147565b62989680600454680100000000000000006110189190614169565b6110229190614147565b61102c919061411e565b9050604061103960085490565b600354611049906298968061411e565b6298968060406110598680614169565b901c629896806080600554901b6110709190614147565b61107a9190614147565b6110849190614169565b61108e9190614147565b6110989190614169565b901c915060095482116110ad57600954610da1565b50919050565b6110bb612197565b6110c481611d0e565b50565b336110d18161184c565b60038290556040518281527f592dcd55d60d892e7fcb3ba105013312e99691cd59f91e15f83cb67cb5a505f290602001610c84565b6000611110612197565b60006002600b54610100900460ff166003811115611130576111306138fa565b0361113e57825b905061119b565b6001600b54610100900460ff16600381111561115c5761115c6138fa565b0361116b57611137848461258f565b6003600b54610100900460ff166003811115611189576111896138fa565b0361119b5761119884846126f5565b90505b600d5460405163011de97360e61b81526001600160a01b038681166004830152306024830152600092169063477a5cc090604401602060405180830381865afa1580156111ec573d6000803e3d6000fd5b505050506040513d601f19601f820116820180604052508101906112109190614193565b9050801561123057816008600082825461122a9190614180565b90915550505b604080516001600160a01b0387168152602081018690529081018390527f0b9150e1e54346ed3fa36b977cd5d65dca5a649c737c3174a26bddaadd47667a9060600160405180910390a1509392505050565b600d546040517f0d4a8b490000000000000000000000000000000000000000000000000000000081523360048201819052306024830152916001600160a01b031690630d4a8b4990604401600060405180830381600087803b1580156112e757600080fd5b505af11580156112fb573d6000803e3d6000fd5b5050600d54604051637817ee4f60e01b81526001600160a01b0385811660048301523060248301529091169250637817ee4f9150604401602060405180830381865afa15801561134f573d6000803e3d6000fd5b505050506040513d601f19601f8201168201806040525081019061137391906141b0565b600860008282546113849190614180565b909155505050565b6000818152600e602052604081206002810154829081906113ae90849061293c565b915091508160001480156113c0575080155b156113cd57826003015491505b60006113dc8460010154610f76565b9092101595945050505050565b6010602052816000526040600020818154811061140557600080fd5b90600052602060002001600091509150505481565b60006003546298968061142d919061411e565b61143a6298968084614169565b610c1d9190614147565b6040805180820190915260008152606060208201526000600e6000848152602001908152602001600020905080600a0160405180604001604052908160008201548152602001600182018054611499906140d4565b80601f01602080910402602001604051908101604052809291908181526020018280546114c5906140d4565b80156115125780601f106114e757610100808354040283529160200191611512565b820191906000526020600020905b8154815290600101906020018083116114f557829003601f168201915b505050505081525050915050919050565b606060405163d623472560e01b815260040160405180910390fd5b6110c481612994565b6000806000806000806000806000806000600e60008d81526020019081526020016000209050806001015460001461158b576115868160010154610f76565b61158e565b60005b92508060050160009054906101000a90046001600160a01b03168160040160009054906101000a90046001600160a01b03168260060160009054906101000a90046001600160a01b0316836001015484600201548560080160009054906101000a900460ff16866007015487600301548a896009016000336001600160a01b03166001600160a01b03168152602001908152602001600020549a509a509a509a509a509a509a509a509a509a50509193959799509193959799565b6000828152600e602090815260408083206001600160a01b0385168452600901909152812054610da1565b60405163d623472560e01b815260040160405180910390fd5b6000610c1d826129d5565b6116a1826129f5565b6000818060200190518101906116b79190614274565b80519091506001600160a01b03166116e257604051635df4b1ef60e01b815260040160405180910390fd5b8051600d805473ffffffffffffffffffffffffffffffffffffffff19166001600160a01b0390921691909117905560208101516003556040810151600455606081015160055560a0810151600b805460ff19166001836002811115611749576117496138fa565b021790555060c0810151600b805461ff001916610100836003811115611771576117716138fa565b021790555060e081015151600c5560808101516009556040517f8de50bebef1bd84245c2bf562892194bb7f5f441c7f848c1aa181f1e4e191e42906117b99085908490614310565b60405180910390a1505050565b6117ce611917565b6117d6611960565b6117e08282612a76565b5050565b6117ec611917565b80600260008282546117fe9190614180565b909155506110c4905081612b5f565b336118178161184c565b60058290556040518281527f30ee8206062f283e56a0af2b02138016bf7442ded26ad68a92a18a9dd246fb4990602001610c84565b6001546040517f29e40d4b00000000000000000000000000000000000000000000000000000000815260048101919091526001600160a01b0382811660248301527f000000000000000000000000000000000000000000000000000000000000000016906329e40d4b90604401602060405180830381865afa1580156118d6573d6000803e3d6000fd5b505050506040513d601f19601f820116820180604052508101906118fa9190614193565b6110c45760405163075fd2b160e01b815260040160405180910390fd5b336001600160a01b037f00000000000000000000000000000000000000000000000000000000000000001614610d835760405163075fd2b160e01b815260040160405180910390fd5b600154600003610d83576040517f3da3f98c00000000000000000000000000000000000000000000000000000000815260040160405180910390fd5b60008251116119d7576040517fc5f7c4c000000000000000000000000000000000000000000000000000000000815260040160405180910390fd5b6000828060200190518101906119ed91906141b0565b905080600003611a29576040517ff881a10d00000000000000000000000000000000000000000000000000000000815260040160405180910390fd5b6000818152600e602052604090206001600b5460ff166002811115611a5057611a506138fa565b03611ccc5780548214611a795760405163c1d17bef60e01b815260048101839052602401610d1d565b60025481600101541115611ad15760018101546002546040517f5863b0b60000000000000000000000000000000000000000000000000000000081526004810185905260248101929092526044820152606401610d1d565b6001600882015460ff166004811115611aec57611aec6138fa565b14611b0d576040516344980d8f60e01b815260048101839052602401610d1d565b6000611b1883610cef565b90506000611b298360010154610f76565b90508082108015611b3e575060008360010154115b15611b75576040517fcce7930800000000000000000000000000000000000000000000000000000000815260040160405180910390fd5b6001546040517f068bcd8d0000000000000000000000000000000000000000000000000000000081526000916001600160a01b037f0000000000000000000000000000000000000000000000000000000000000000169163068bcd8d91611be29160040190815260200190565b600060405180830381865afa158015611bff573d6000803e3d6000fd5b505050506040513d6000823e601f3d908101601f19168201604052611c27919081019061443c565b9050836001015460026000828254611c3f919061411e565b9091555050604081015160048501546001860154611c6792916001600160a01b031690612b8f565b60088401805460ff191660049081179091558401546001850154604080518881526001600160a01b0390931660208401528201527fa7932e9c92f31e1ed56b29d00bbe669a97484dc24de28dd9c8c0429df7f358479060600160405180910390a15050505b5050505050565b600080611ce0848461293c565b91509150816000148015611cf2575080155b15611cfd5750505050565b600784015560039092019190915550565b600d54604051637817ee4f60e01b81526001600160a01b03838116600483015230602483015290911690637817ee4f90604401602060405180830381865afa158015611d5e573d6000803e3d6000fd5b505050506040513d601f19601f82011682018060405250810190611d8291906141b0565b60086000828254611d93919061411e565b9091555050600d546040517f22bcf9990000000000000000000000000000000000000000000000000000000081526001600160a01b038381166004830152306024830152909116906322bcf99990604401600060405180830381600087803b158015611dfe57600080fd5b505af1158015611e12573d6000803e3d6000fd5b50505050611e1f81612bd4565b6040516001600160a01b03821681527f1468da654b37bb3631011c1917d02e0db437d519918858d40b38b5e980ca033b906020015b60405180910390a150565b60008083806020019051810190611e7691906144f0565b8051909150600003611eb4576040517f4e79178600000000000000000000000000000000000000000000000000000000815260040160405180910390fd5b6001600b5460ff166002811115611ecd57611ecd6138fa565b0361207d57611edf8160200151612cff565b60608101516001600160a01b0316611f23576040517f596a094c00000000000000000000000000000000000000000000000000000000815260040160405180910390fd5b6000306001600160a01b03166315cc481e6040518163ffffffff1660e01b8152600401602060405180830381865afa158015611f63573d6000803e3d6000fd5b505050506040513d601f19601f82011682018060405250810190611f879190614597565b6001600160a01b031663068bcd8d6001546040518263ffffffff1660e01b8152600401611fb691815260200190565b600060405180830381865afa158015611fd3573d6000803e3d6000fd5b505050506040513d6000823e601f3d908101601f19168201604052611ffb919081019061443c565b604001519050806001600160a01b031682606001516001600160a01b031614612050576040517fa29c498600000000000000000000000000000000000000000000000000000000815260040160405180910390fd5b61205d8260400151612568565b1561207b57604051630efd728560e21b815260040160405180910390fd5b505b600060066000815461208e906145b4565b91829055506000818152600e602090815260408083208481556005810180546001600160a01b038b811673ffffffffffffffffffffffffffffffffffffffff19928316179092558885015160048401805491841691831691909117905560608901516006840180549190931691161790559086015160018083019190915560088201805460ff19169091179055436007820155600381019290925560808501518051600a8401908155918101519394509192600b84019061214f908261461b565b505060015460408051918252602082018590527ffcf3b1aa65a464cef2889608f99e8b8c0f680a4be6c2acb9d961c536a5a9294b92500160405180910390a150949350505050565b600d546001600160a01b03163314610d83576040517faf0916a200000000000000000000000000000000000000000000000000000000815260040160405180910390fd5b600d54604080516336d8759760e21b815290516000926012926001600160a01b039091169163db61d65c916004808201926020929091908290030181865afa15801561222b573d6000803e3d6000fd5b505050506040513d601f19601f8201168201806040525081019061224f9190614597565b6001600160a01b031663313ce5676040518163ffffffff1660e01b8152600401602060405180830381865afa9250505080156122a8575060408051601f3d908101601f191682019092526122a5918101906146db565b60015b6122ef576122ea6040518060400160405280601581526020017f4572726f722067657474696e6720646563696d616c0000000000000000000000815250612d3f565b6122f5565b60ff1690505b6123346040518060400160405280601081526020017f5f616d6f756e74546f556e7374616b650000000000000000000000000000000081525084612db0565b600d546040516316308e2560e11b81526001600160a01b0386811660048301526000928692911690632c611c4a90602401602060405180830381865afa158015612382573d6000803e3d6000fd5b505050506040513d601f19601f820116820180604052508101906123a691906141b0565b6123b0919061411e565b90506123f16040518060400160405280600d81526020017f6e6577546f74616c5374616b650000000000000000000000000000000000000081525082612db0565b600061241061240184600a6147e2565b61240b9084614169565b612e23565b600d54604051637817ee4f60e01b81526001600160a01b03898116600483015230602483015292935060009284921690637817ee4f90604401602060405180830381865afa158015612466573d6000803e3d6000fd5b505050506040513d601f19601f8201168201806040525081019061248a91906141b0565b612494919061411e565b979650505050505050565b6000600160801b83106124f45760405162461bcd60e51b815260206004820152601c60248201527f5f612073686f756c64206265206c657373207468616e20325e313238000000006044820152606401610d1d565b50600160801b82825b80156125405780600116600003612522576125188283612f0b565b915060011c6124fd565b61252c8383612f0b565b925061253960018261411e565b90506124fd565b505092915050565b60006001600160a01b03821615612560576001610c1d565b600092915050565b60006125776298968083614169565b6002546004546125879190614169565b111592915050565b6000808290506125d46040518060400160405280601281526020017f504f494e545320544f20494e435245415345000000000000000000000000000081525082612db0565b600d54604051637817ee4f60e01b81526001600160a01b0386811660048301523060248301526000921690637817ee4f90604401602060405180830381865afa158015612625573d6000803e3d6000fd5b505050506040513d601f19601f8201168201806040525081019061264991906141b0565b905061268a6040518060400160405280600b81526020017f4d454d424552504f57455200000000000000000000000000000000000000000081525082612db0565b600c546126978383614180565b11156126ae57600c546126ab90829061411e565b91505b6126ed6040518060400160405280601681526020017f504f494e545320544f20494e43524541534520454e440000000000000000000081525083612db0565b509392505050565b600d546040516316308e2560e11b81526001600160a01b0384811660048301526000928392859290911690632c611c4a90602401602060405180830381865afa158015612746573d6000803e3d6000fd5b505050506040513d601f19601f8201168201806040525081019061276a91906141b0565b6127749190614180565b600d54604080516336d8759760e21b815290519293506012926001600160a01b039092169163db61d65c916004808201926020929091908290030181865afa1580156127c4573d6000803e3d6000fd5b505050506040513d601f19601f820116820180604052508101906127e89190614597565b6001600160a01b031663313ce5676040518163ffffffff1660e01b8152600401602060405180830381865afa925050508015612841575060408051601f3d908101601f1916820190925261283e918101906146db565b60015b612888576128836040518060400160405280601581526020017f4572726f722067657474696e6720646563696d616c0000000000000000000000815250612d3f565b61288e565b60ff1690505b60006128a861289e83600a6147e2565b61240b9085614169565b600d54604051637817ee4f60e01b81526001600160a01b03898116600483015230602483015292935060009290911690637817ee4f90604401602060405180830381865afa1580156128fe573d6000803e3d6000fd5b505050506040513d601f19601f8201168201806040525081019061292291906141b0565b90506000612930828461411e565b98975050505050505050565b6000804390508084600701541115612956576129566147ee565b8084600701540361296c5750600090508061298d565b61298a84600701548261297f919061411e565b856003015485610ec6565b91505b9250929050565b6000805460ff19168215159081179091556040519081527fd94c9bc4d43c51d8dc345a016d8e3d994432fac68e72832e4cf3a616bd8efae090602001611e54565b60006001600160a01b038216156129ed576002610c1d565b600392915050565b6129fd611917565b60015415612a37576040517f439a74c900000000000000000000000000000000000000000000000000000000815260040160405180910390fd5b80600003612a71576040517f7fcce2a900000000000000000000000000000000000000000000000000000000815260040160405180910390fd5b600155565b612a7f8161300a565b600d5460405163011de97360e61b81526001600160a01b038381166004830152306024830152600092169063477a5cc090604401602060405180830381865afa158015612ad0573d6000803e3d6000fd5b505050506040513d601f19601f82011682018060405250810190612af49190614193565b905080612b2d576040517f5fccb67f00000000000000000000000000000000000000000000000000000000815260040160405180910390fd5b600083806020019051810190612b439190614804565b9050612b4f8382613130565b612b5983826132f3565b50505050565b6040518181527f46aeb5d8770fc4474bc2dfa118fd2595f7fb33ce2cbce6f4e5a3dabfe0f7633990602001611e54565b7fffffffffffffffffffffffff11111111111111111111111111111111111111126001600160a01b03841601612bc957610cab8282613717565b610cab838383613733565b6001600160a01b038116600090815260106020908152604080832080548251818502810185019093528083529192909190830182828015612c3457602002820191906000526020600020905b815481526020019060010190808311612c20575b5050505050905060005b8151811015610cab576000828281518110612c5b57612c5b6148af565b602002602001015190506000600e60008381526020019081526020016000209050612c8582613782565b15612cea576001600160a01b0385166000908152600982016020526040812080549082905560028301805491928392612cbf90849061411e565b925050819055508060076000828254612cd8919061411e565b90915550612ce890508282611cd3565b505b50508080612cf7906145b4565b915050612c3e565b6001600160a01b0381166110c4576040517fe622e04000000000000000000000000000000000000000000000000000000000815260040160405180910390fd5b6110c481604051602401612d5391906148c5565b60408051601f198184030181529190526020810180517bffffffffffffffffffffffffffffffffffffffffffffffffffffffff167f41304fac000000000000000000000000000000000000000000000000000000001790526137bb565b6117e08282604051602401612dc69291906148d8565b60408051601f198184030181529190526020810180517bffffffffffffffffffffffffffffffffffffffffffffffffffffffff167f9710a9d0000000000000000000000000000000000000000000000000000000001790526137bb565b600081600003612e3557506000919050565b60006001612e42846137dc565b901c6001901b90506001818481612e5b57612e5b614131565b048201901c90506001818481612e7357612e73614131565b048201901c90506001818481612e8b57612e8b614131565b048201901c90506001818481612ea357612ea3614131565b048201901c90506001818481612ebb57612ebb614131565b048201901c90506001818481612ed357612ed3614131565b048201901c90506001818481612eeb57612eeb614131565b048201901c9050610da181828581612f0557612f05614131565b04613870565b6000600160801b831115612f875760405162461bcd60e51b815260206004820152602860248201527f5f612073686f756c64206265206c657373207468616e206f7220657175616c2060448201527f746f20325e3132380000000000000000000000000000000000000000000000006064820152608401610d1d565b600160801b8210612fda5760405162461bcd60e51b815260206004820152601c60248201527f5f622073686f756c64206265206c657373207468616e20325e313238000000006044820152606401610d1d565b60806f80000000000000000000000000000000612ff78486614169565b6130019190614180565b901c9392505050565b6001600160a01b03811661304a576040517fd1f2828800000000000000000000000000000000000000000000000000000000815260040160405180910390fd5b600d546001600160a01b031661307357604051635df4b1ef60e01b815260040160405180910390fd5b600d546040517fa230c5240000000000000000000000000000000000000000000000000000000081526001600160a01b0383811660048301529091169063a230c52490602401602060405180830381865afa1580156130d6573d6000803e3d6000fd5b505050506040513d601f19601f820116820180604052508101906130fa9190614193565b6110c4576040517f6a5cfb6d00000000000000000000000000000000000000000000000000000000815260040160405180910390fd5b6000805b82518110156131ed5782818151811061314f5761314f6148af565b602002602001015160000151600003156131db576000838281518110613177576131776148af565b602002602001015160000151905061318e81613782565b6131ae5760405163c1d17bef60e01b815260048101829052602401610d1d565b8382815181106131c0576131c06148af565b602002602001015160200151836131d791906148fa565b9250505b806131e5816145b4565b915050613134565b506001600160a01b0383166000908152600f60205260408120546132119083613886565b600d54604051637817ee4f60e01b81526001600160a01b03878116600483015230602483015292935060009290911690637817ee4f90604401602060405180830381865afa158015613267573d6000803e3d6000fd5b505050506040513d601f19601f8201168201806040525081019061328b91906141b0565b9050808211156132d1576040517fd64182fe0000000000000000000000000000000000000000000000000000000081526004810183905260248101829052604401610d1d565b506001600160a01b039093166000908152600f60205260409020929092555050565b606060005b8251811015612b59576000838281518110613315576133156148af565b602002602001015160000151905082516000036133715760408051600180825281830190925290602080830190803683370190505092508083600081518110613360576133606148af565b6020026020010181815250506134c4565b6000805b84518110156133f05782858281518110613391576133916148af565b6020026020010151036133de576040517fadebb154000000000000000000000000000000000000000000000000000000008152600481018490526024810182905260019250604401610d1d565b806133e8816145b4565b915050613375565b50806134c2576000845160016134069190614180565b67ffffffffffffffff81111561341e5761341e613a82565b604051908082528060200260200182016040528015613447578160200160208202803683370190505b50905060005b855181101561349f57858181518110613468576134686148af565b6020026020010151828281518110613482576134826148af565b602090810291909101015280613497816145b4565b91505061344d565b5082818651815181106134b4576134b46148af565b602090810291909101015293505b505b60008483815181106134d8576134d86148af565b6020908102919091018101518101516000848152600e835260408082206001600160a01b038b168352600981019094528120549193506135188285613886565b6001600160a01b038a1660009081526009850160205260408120829055909150805b6001600160a01b038b166000908152601060205260409020548110156135b15784546001600160a01b038c166000908152601060205260409020805483908110613586576135866148af565b90600052602060002001540361359f57600191506135b1565b806135a9816145b4565b91505061353a565b50806135e7576001600160a01b038a16600090815260106020908152604082208654815460018101835591845291909220909101555b818311613637576135f8838361411e565b600760008282546136099190614180565b909155506136199050838361411e565b84600201600082825461362c9190614180565b9091555061367b9050565b613641828461411e565b60076000828254613652919061411e565b909155506136629050828461411e565b846002016000828254613675919061411e565b90915550505b8360070154600003613692574360078501556136fe565b61369c8484611cd3565b60028401546003850154604080516001600160a01b038e168152602081018a9052908101859052606081019290925260808201527f0227f642ddcf2042ceaeafadb9d540f432072c00cd4862881667168dcc14710f9060a00160405180910390a15b505050505050808061370f906145b4565b9150506132f8565b60008060008084865af16117e05763b12d13eb6000526004601cfd5b81601452806034526fa9059cbb00000000000000000000000060005260206000604460106000875af13d156001600051141716613778576390b8ec186000526004601cfd5b6000603452505050565b6000818152600e602052604081205415801590610c1d5750506000908152600e60205260409020600501546001600160a01b0316151590565b80516a636f6e736f6c652e6c6f67602083016000808483855afa5050505050565b600080608083901c156137f157608092831c92015b604083901c1561380357604092831c92015b602083901c1561381557602092831c92015b601083901c1561382757601092831c92015b600883901c1561383957600892831c92015b600483901c1561384b57600492831c92015b600283901c1561385d57600292831c92015b600183901c15610c1d5760010192915050565b600081831061387f5781610da1565b5090919050565b60008061389383856148fa565b90506000811215610da1576040517f3bbc7142000000000000000000000000000000000000000000000000000000008152600481018590526024810184905260448101829052606401610d1d565b6000602082840312156138f357600080fd5b5035919050565b634e487b7160e01b600052602160045260246000fd5b60058110613920576139206138fa565b9052565b60005b8381101561393f578181015183820152602001613927565b50506000910152565b60008151808452613960816020860160208601613924565b601f01601f19169290920160200192915050565b8051825260006020820151604060208501526139936040850182613948565b949350505050565b60006101408c83528b60208401528a60408401528960608401526001600160a01b03808a16608085015280891660a085015280881660c0850152508560e08401526139ea610100840186613910565b806101208401526139fd81840185613974565b9d9c50505050505050505050505050565b600060208284031215613a2057600080fd5b81357fffffffff0000000000000000000000000000000000000000000000000000000081168114610da157600080fd5b6001600160a01b03811681146110c457600080fd5b600060208284031215613a7757600080fd5b8135610da181613a50565b634e487b7160e01b600052604160045260246000fd5b6040805190810167ffffffffffffffff81118282101715613abb57613abb613a82565b60405290565b604051610120810167ffffffffffffffff81118282101715613abb57613abb613a82565b60405160c0810167ffffffffffffffff81118282101715613abb57613abb613a82565b60405160a0810167ffffffffffffffff81118282101715613abb57613abb613a82565b604051601f8201601f1916810167ffffffffffffffff81118282101715613b5457613b54613a82565b604052919050565b600067ffffffffffffffff821115613b7657613b76613a82565b5060051b60200190565b600082601f830112613b9157600080fd5b81356020613ba6613ba183613b5c565b613b2b565b82815260059290921b84018101918181019086841115613bc557600080fd5b8286015b84811015613be9578035613bdc81613a50565b8352918301918301613bc9565b509695505050505050565b600067ffffffffffffffff821115613c0e57613c0e613a82565b50601f01601f191660200190565b600082601f830112613c2d57600080fd5b8135613c3b613ba182613bf4565b818152846020838601011115613c5057600080fd5b816020850160208301376000918101602001919091529392505050565b600080600060608486031215613c8257600080fd5b833567ffffffffffffffff80821115613c9a57600080fd5b613ca687838801613b80565b94506020860135915080821115613cbc57600080fd5b50613cc986828701613c1c565b9250506040840135613cda81613a50565b809150509250925092565b60008060408385031215613cf857600080fd5b823567ffffffffffffffff811115613d0f57600080fd5b613d1b85828601613c1c565b9250506020830135613d2c81613a50565b809150509250929050565b60048110613920576139206138fa565b60208101610c1d8284613d37565b60008060408385031215613d6857600080fd5b8235613d7381613a50565b946020939093013593505050565b600080600060608486031215613d9657600080fd5b505081359360208301359350604090920135919050565b60038110613920576139206138fa565b60208101610c1d8284613dad565b602081526000610da16020830184613974565b60008060408385031215613df157600080fd5b823567ffffffffffffffff80821115613e0957600080fd5b613e1586838701613b80565b9350602091508185013581811115613e2c57600080fd5b8501601f81018713613e3d57600080fd5b8035613e4b613ba182613b5c565b81815260059190911b82018401908481019089831115613e6a57600080fd5b8584015b83811015613ea257803586811115613e865760008081fd5b613e948c8983890101613c1c565b845250918601918601613e6e565b508096505050505050509250929050565b602080825282518282018190526000919060409081850190868401855b82811015613f0657613ef684835180516001600160a01b03168252602090810151910152565b9284019290850190600101613ed0565b5091979650505050505050565b80151581146110c457600080fd5b600060208284031215613f3357600080fd5b8135610da181613f13565b6001600160a01b038b811682528a811660208301528916604082015260608101889052608081018790526101408101613f7a60a0830188613910565b8560c08301528460e083015283610100830152826101208301529b9a5050505050505050505050565b60008060408385031215613fb657600080fd5b823591506020830135613d2c81613a50565b60006020808385031215613fdb57600080fd5b823567ffffffffffffffff811115613ff257600080fd5b8301601f8101851361400357600080fd5b8035614011613ba182613b5c565b81815260069190911b8201830190838101908783111561403057600080fd5b928401925b82841015612494576040848903121561404e5760008081fd5b614056613a98565b843581528585013586820152825260409093019290840190614035565b6020810160078310614087576140876138fa565b91905290565b600080604083850312156140a057600080fd5b82359150602083013567ffffffffffffffff8111156140be57600080fd5b6140ca85828601613c1c565b9150509250929050565b600181811c908216806140e857607f821691505b6020821081036110ad57634e487b7160e01b600052602260045260246000fd5b634e487b7160e01b600052601160045260246000fd5b81810381811115610c1d57610c1d614108565b634e487b7160e01b600052601260045260246000fd5b60008261416457634e487b7160e01b600052601260045260246000fd5b500490565b8082028115828204841417610c1d57610c1d614108565b80820180821115610c1d57610c1d614108565b6000602082840312156141a557600080fd5b8151610da181613f13565b6000602082840312156141c257600080fd5b5051919050565b80516141d481613a50565b919050565b8051600381106141d457600080fd5b8051600481106141d457600080fd5b60006020828403121561420957600080fd5b6040516020810181811067ffffffffffffffff8211171561422c5761422c613a82565b6040529151825250919050565b60006040828403121561424b57600080fd5b614253613a98565b9050815161426081613a50565b808252506020820151602082015292915050565b6000610140828403121561428757600080fd5b61428f613ac1565b614298836141c9565b8152602083015160208201526040830151604082015260608301516060820152608083015160808201526142ce60a084016141d9565b60a08201526142df60c084016141e8565b60c08201526142f18460e085016141f7565b60e082015261010061430585828601614239565b908201529392505050565b6000610160820190508382526001600160a01b038351166020830152602083015160408301526040830151606083015260608301516080830152608083015160a083015260a083015161436660c0840182613dad565b5060c083015161437960e0840182613d37565b5060e083015151610100838101919091529092015180516001600160a01b03166101208301526020015161014090910152919050565b6000604082840312156143c157600080fd5b6143c9613a98565b905081518152602082015167ffffffffffffffff8111156143e957600080fd5b8201601f810184136143fa57600080fd5b8051614408613ba182613bf4565b81815285602083850101111561441d57600080fd5b61442e826020830160208601613924565b602084015250909392505050565b60006020828403121561444e57600080fd5b815167ffffffffffffffff8082111561446657600080fd5b9083019060c0828603121561447a57600080fd5b614482613ae5565b82518152602083015161449481613a50565b602082015260408301516144a781613a50565b60408201526060830151828111156144be57600080fd5b6144ca878286016143af565b6060830152506080830151608082015260a083015160a082015280935050505092915050565b60006020828403121561450257600080fd5b815167ffffffffffffffff8082111561451a57600080fd5b9083019060a0828603121561452e57600080fd5b614536613b08565b82518152602083015161454881613a50565b602082015260408381015190820152606083015161456581613a50565b606082015260808301518281111561457c57600080fd5b614588878286016143af565b60808301525095945050505050565b6000602082840312156145a957600080fd5b8151610da181613a50565b6000600182016145c6576145c6614108565b5060010190565b601f821115610cab57600081815260208120601f850160051c810160208610156145f45750805b601f850160051c820191505b8181101561461357828155600101614600565b505050505050565b815167ffffffffffffffff81111561463557614635613a82565b6146498161464384546140d4565b846145cd565b602080601f83116001811461467e57600084156146665750858301515b600019600386901b1c1916600185901b178555614613565b600085815260208120601f198616915b828110156146ad5788860151825594840194600190910190840161468e565b50858210156146cb5787850151600019600388901b60f8161c191681555b5050505050600190811b01905550565b6000602082840312156146ed57600080fd5b815160ff81168114610da157600080fd5b600181815b8085111561473957816000190482111561471f5761471f614108565b8085161561472c57918102915b93841c9390800290614703565b509250929050565b60008261475057506001610c1d565b8161475d57506000610c1d565b8160018114614773576002811461477d57614799565b6001915050610c1d565b60ff84111561478e5761478e614108565b50506001821b610c1d565b5060208310610133831016604e8410600b84101617156147bc575081810a610c1d565b6147c683836146fe565b80600019048211156147da576147da614108565b029392505050565b6000610da18383614741565b634e487b7160e01b600052600160045260246000fd5b6000602080838503121561481757600080fd5b825167ffffffffffffffff81111561482e57600080fd5b8301601f8101851361483f57600080fd5b805161484d613ba182613b5c565b81815260069190911b8201830190838101908783111561486c57600080fd5b928401925b82841015612494576040848903121561488a5760008081fd5b614892613a98565b845181528585015186820152825260409093019290840190614871565b634e487b7160e01b600052603260045260246000fd5b602081526000610da16020830184613948565b6040815260006148eb6040830185613948565b90508260208301529392505050565b80820182811260008312801582168215821617156125405761254061410856fea26469706673582212208598030103e0610af42491e498e133f0105c5816b19cb34235fa93ed5772fe1864736f6c63430008130033","linkReferences":{}},"methodIdentifiers":{"D()":"0f529ba2","MAX_STAKED_PROPOSALS()":"406244d8","NATIVE()":"a0cf0aea","_minThresholdPoints()":"7c6570ba","activatePoints()":"814516ad","allocate(bytes,address)":"ef2920fc","calculateConviction(uint256,uint256,uint256)":"346db8cb","calculateThreshold(uint256)":"59a5db8b","canExecuteProposal(uint256)":"824ea8ed","deactivatePoints()":"1ddf1e23","deactivatePoints(address)":"6453d9c4","decay()":"54fac919","decreasePower(address,uint256)":"2ed04b2b","distribute(address[],bytes,address)":"0a6f0ee9","getAllo()":"15cc481e","getMaxAmount()":"0ba95909","getMaxConviction(uint256)":"950559d7","getMetadata(uint256)":"a574cea4","getPayouts(address[],bytes[])":"b2b878d0","getPointSystem()":"c3292171","getPoolAmount()":"4ab4ba42","getPoolId()":"38fff2d0","getProposal(uint256)":"c7f758a8","getProposalStakedAmount(uint256)":"dc96ff2d","getProposalVoterStake(uint256,address)":"e0dd2c38","getRecipientStatus(address)":"eb11af93","getStrategyId()":"42fda9c7","getTotalVoterStakePct(address)":"bcc5b93b","increasePoolAmount(uint256)":"f5b0dfb7","increasePower(address,uint256)":"782aadff","initialize(uint256,bytes)":"edd146cc","isPoolActive()":"df868ed3","isValidAllocator(address)":"4d31d087","maxRatio()":"76365af7","pointConfig()":"a47ff7e5","pointSystem()":"2dbd6fdd","proposalCounter()":"0c0512e9","proposalType()":"351d9f96","proposals(uint256)":"013cf08b","registerRecipient(bytes,address)":"2bbe0cae","registryCommunity()":"6003e414","setDecay(uint256)":"69fa25c4","setMaxRatio(uint256)":"11f22ae3","setMinThresholdPoints(uint256)":"2cefadbb","setPoolActive(bool)":"b5f620ce","setRegistryCommunity(address)":"058aca44","setWeight(uint256)":"fc1711f2","supportProposal((uint256,int256)[])":"e33add93","supportsInterface(bytes4)":"01ffc9a7","totalEffectiveActivePoints()":"d1e36232","totalPointsActivated()":"aba9ffee","totalStaked()":"817b1cd2","totalVoterStakePct(address)":"5db64b99","updateProposalConviction(uint256)":"1aa91a9e","voterStakedProposals(address,uint256)":"868c57b8","weight()":"a1aab33f"},"storageLayout":{"storage":[{"astId":3339,"contract":"pkg/contracts/src/CVStrategy.sol:CVStrategy","label":"poolActive","offset":0,"slot":"0","type":"t_bool"},{"astId":3341,"contract":"pkg/contracts/src/CVStrategy.sol:CVStrategy","label":"poolId","offset":0,"slot":"1","type":"t_uint256"},{"astId":3343,"contract":"pkg/contracts/src/CVStrategy.sol:CVStrategy","label":"poolAmount","offset":0,"slot":"2","type":"t_uint256"},{"astId":73059,"contract":"pkg/contracts/src/CVStrategy.sol:CVStrategy","label":"decay","offset":0,"slot":"3","type":"t_uint256"},{"astId":73061,"contract":"pkg/contracts/src/CVStrategy.sol:CVStrategy","label":"maxRatio","offset":0,"slot":"4","type":"t_uint256"},{"astId":73063,"contract":"pkg/contracts/src/CVStrategy.sol:CVStrategy","label":"weight","offset":0,"slot":"5","type":"t_uint256"},{"astId":73066,"contract":"pkg/contracts/src/CVStrategy.sol:CVStrategy","label":"proposalCounter","offset":0,"slot":"6","type":"t_uint256"},{"astId":73068,"contract":"pkg/contracts/src/CVStrategy.sol:CVStrategy","label":"totalStaked","offset":0,"slot":"7","type":"t_uint256"},{"astId":73070,"contract":"pkg/contracts/src/CVStrategy.sol:CVStrategy","label":"totalPointsActivated","offset":0,"slot":"8","type":"t_uint256"},{"astId":73073,"contract":"pkg/contracts/src/CVStrategy.sol:CVStrategy","label":"_minThresholdPoints","offset":0,"slot":"9","type":"t_uint256"},{"astId":73075,"contract":"pkg/contracts/src/CVStrategy.sol:CVStrategy","label":"surpressStateMutabilityWarning","offset":0,"slot":"10","type":"t_uint256"},{"astId":73078,"contract":"pkg/contracts/src/CVStrategy.sol:CVStrategy","label":"proposalType","offset":0,"slot":"11","type":"t_enum(ProposalType)72797"},{"astId":73081,"contract":"pkg/contracts/src/CVStrategy.sol:CVStrategy","label":"pointSystem","offset":1,"slot":"11","type":"t_enum(PointSystem)72802"},{"astId":73084,"contract":"pkg/contracts/src/CVStrategy.sol:CVStrategy","label":"pointConfig","offset":0,"slot":"12","type":"t_struct(PointSystemConfig)72855_storage"},{"astId":73087,"contract":"pkg/contracts/src/CVStrategy.sol:CVStrategy","label":"registryCommunity","offset":0,"slot":"13","type":"t_contract(RegistryCommunity)77675"},{"astId":73092,"contract":"pkg/contracts/src/CVStrategy.sol:CVStrategy","label":"proposals","offset":0,"slot":"14","type":"t_mapping(t_uint256,t_struct(Proposal)72847_storage)"},{"astId":73096,"contract":"pkg/contracts/src/CVStrategy.sol:CVStrategy","label":"totalVoterStakePct","offset":0,"slot":"15","type":"t_mapping(t_address,t_uint256)"},{"astId":73101,"contract":"pkg/contracts/src/CVStrategy.sol:CVStrategy","label":"voterStakedProposals","offset":0,"slot":"16","type":"t_mapping(t_address,t_array(t_uint256)dyn_storage)"}],"types":{"t_address":{"encoding":"inplace","label":"address","numberOfBytes":"20"},"t_array(t_uint256)dyn_storage":{"encoding":"dynamic_array","label":"uint256[]","numberOfBytes":"32","base":"t_uint256"},"t_bool":{"encoding":"inplace","label":"bool","numberOfBytes":"1"},"t_contract(RegistryCommunity)77675":{"encoding":"inplace","label":"contract RegistryCommunity","numberOfBytes":"20"},"t_enum(PointSystem)72802":{"encoding":"inplace","label":"enum StrategyStruct.PointSystem","numberOfBytes":"1"},"t_enum(ProposalStatus)72820":{"encoding":"inplace","label":"enum StrategyStruct.ProposalStatus","numberOfBytes":"1"},"t_enum(ProposalType)72797":{"encoding":"inplace","label":"enum StrategyStruct.ProposalType","numberOfBytes":"1"},"t_mapping(t_address,t_array(t_uint256)dyn_storage)":{"encoding":"mapping","key":"t_address","label":"mapping(address => uint256[])","numberOfBytes":"32","value":"t_array(t_uint256)dyn_storage"},"t_mapping(t_address,t_uint256)":{"encoding":"mapping","key":"t_address","label":"mapping(address => uint256)","numberOfBytes":"32","value":"t_uint256"},"t_mapping(t_uint256,t_struct(Proposal)72847_storage)":{"encoding":"mapping","key":"t_uint256","label":"mapping(uint256 => struct StrategyStruct.Proposal)","numberOfBytes":"32","value":"t_struct(Proposal)72847_storage"},"t_string_storage":{"encoding":"bytes","label":"string","numberOfBytes":"32"},"t_struct(Metadata)3098_storage":{"encoding":"inplace","label":"struct Metadata","numberOfBytes":"64","members":[{"astId":3094,"contract":"pkg/contracts/src/CVStrategy.sol:CVStrategy","label":"protocol","offset":0,"slot":"0","type":"t_uint256"},{"astId":3097,"contract":"pkg/contracts/src/CVStrategy.sol:CVStrategy","label":"pointer","offset":0,"slot":"1","type":"t_string_storage"}]},"t_struct(PointSystemConfig)72855_storage":{"encoding":"inplace","label":"struct StrategyStruct.PointSystemConfig","numberOfBytes":"32","members":[{"astId":72854,"contract":"pkg/contracts/src/CVStrategy.sol:CVStrategy","label":"maxAmount","offset":0,"slot":"0","type":"t_uint256"}]},"t_struct(Proposal)72847_storage":{"encoding":"inplace","label":"struct StrategyStruct.Proposal","numberOfBytes":"384","members":[{"astId":72822,"contract":"pkg/contracts/src/CVStrategy.sol:CVStrategy","label":"proposalId","offset":0,"slot":"0","type":"t_uint256"},{"astId":72824,"contract":"pkg/contracts/src/CVStrategy.sol:CVStrategy","label":"requestedAmount","offset":0,"slot":"1","type":"t_uint256"},{"astId":72826,"contract":"pkg/contracts/src/CVStrategy.sol:CVStrategy","label":"stakedAmount","offset":0,"slot":"2","type":"t_uint256"},{"astId":72828,"contract":"pkg/contracts/src/CVStrategy.sol:CVStrategy","label":"convictionLast","offset":0,"slot":"3","type":"t_uint256"},{"astId":72830,"contract":"pkg/contracts/src/CVStrategy.sol:CVStrategy","label":"beneficiary","offset":0,"slot":"4","type":"t_address"},{"astId":72832,"contract":"pkg/contracts/src/CVStrategy.sol:CVStrategy","label":"submitter","offset":0,"slot":"5","type":"t_address"},{"astId":72834,"contract":"pkg/contracts/src/CVStrategy.sol:CVStrategy","label":"requestedToken","offset":0,"slot":"6","type":"t_address"},{"astId":72836,"contract":"pkg/contracts/src/CVStrategy.sol:CVStrategy","label":"blockLast","offset":0,"slot":"7","type":"t_uint256"},{"astId":72839,"contract":"pkg/contracts/src/CVStrategy.sol:CVStrategy","label":"proposalStatus","offset":0,"slot":"8","type":"t_enum(ProposalStatus)72820"},{"astId":72843,"contract":"pkg/contracts/src/CVStrategy.sol:CVStrategy","label":"voterStakedPoints","offset":0,"slot":"9","type":"t_mapping(t_address,t_uint256)"},{"astId":72846,"contract":"pkg/contracts/src/CVStrategy.sol:CVStrategy","label":"metadata","offset":0,"slot":"10","type":"t_struct(Metadata)3098_storage"}]},"t_uint256":{"encoding":"inplace","label":"uint256","numberOfBytes":"32"}}},"id":126}