{"abi":[{"type":"fallback","stateMutability":"payable"},{"type":"receive","stateMutability":"payable"},{"type":"function","name":"DISPUTE_COOLDOWN_SEC","inputs":[],"outputs":[{"name":"","type":"uint256","internalType":"uint256"}],"stateMutability":"view"},{"type":"function","name":"NATIVE","inputs":[],"outputs":[{"name":"","type":"address","internalType":"address"}],"stateMutability":"view"},{"type":"function","name":"RULING_OPTIONS","inputs":[],"outputs":[{"name":"","type":"uint256","internalType":"uint256"}],"stateMutability":"view"},{"type":"function","name":"activatePoints","inputs":[],"outputs":[],"stateMutability":"nonpayable"},{"type":"function","name":"allocate","inputs":[{"name":"_data","type":"bytes","internalType":"bytes"},{"name":"_sender","type":"address","internalType":"address"}],"outputs":[],"stateMutability":"payable"},{"type":"function","name":"arbitrableConfigs","inputs":[{"name":"","type":"uint256","internalType":"uint256"}],"outputs":[{"name":"arbitrator","type":"address","internalType":"contract IArbitrator"},{"name":"tribunalSafe","type":"address","internalType":"address"},{"name":"submitterCollateralAmount","type":"uint256","internalType":"uint256"},{"name":"challengerCollateralAmount","type":"uint256","internalType":"uint256"},{"name":"defaultRuling","type":"uint256","internalType":"uint256"},{"name":"defaultRulingTimeout","type":"uint256","internalType":"uint256"}],"stateMutability":"view"},{"type":"function","name":"calculateProposalConviction","inputs":[{"name":"_proposalId","type":"uint256","internalType":"uint256"}],"outputs":[{"name":"","type":"uint256","internalType":"uint256"}],"stateMutability":"view"},{"type":"function","name":"calculateThreshold","inputs":[{"name":"_requestedAmount","type":"uint256","internalType":"uint256"}],"outputs":[{"name":"","type":"uint256","internalType":"uint256"}],"stateMutability":"view"},{"type":"function","name":"cancelProposal","inputs":[{"name":"","type":"uint256","internalType":"uint256"}],"outputs":[],"stateMutability":"nonpayable"},{"type":"function","name":"cloneNonce","inputs":[],"outputs":[{"name":"","type":"uint256","internalType":"uint256"}],"stateMutability":"view"},{"type":"function","name":"collateralVault","inputs":[],"outputs":[{"name":"","type":"address","internalType":"contract ICollateralVault"}],"stateMutability":"view"},{"type":"function","name":"connectSuperfluidGDA","inputs":[{"name":"","type":"address","internalType":"address"}],"outputs":[],"stateMutability":"nonpayable"},{"type":"function","name":"currentArbitrableConfigVersion","inputs":[],"outputs":[{"name":"","type":"uint256","internalType":"uint256"}],"stateMutability":"view"},{"type":"function","name":"cvParams","inputs":[],"outputs":[{"name":"maxRatio","type":"uint256","internalType":"uint256"},{"name":"weight","type":"uint256","internalType":"uint256"},{"name":"decay","type":"uint256","internalType":"uint256"},{"name":"minThresholdPoints","type":"uint256","internalType":"uint256"}],"stateMutability":"view"},{"type":"function","name":"deactivatePoints","inputs":[],"outputs":[],"stateMutability":"nonpayable"},{"type":"function","name":"deactivatePoints","inputs":[{"name":"_member","type":"address","internalType":"address"}],"outputs":[],"stateMutability":"nonpayable"},{"type":"function","name":"decreasePower","inputs":[{"name":"_member","type":"address","internalType":"address"},{"name":"_amountToUnstake","type":"uint256","internalType":"uint256"}],"outputs":[{"name":"","type":"uint256","internalType":"uint256"}],"stateMutability":"nonpayable"},{"type":"function","name":"diamondCut","inputs":[{"name":"_diamondCut","type":"tuple[]","internalType":"struct IDiamond.FacetCut[]","components":[{"name":"facetAddress","type":"address","internalType":"address"},{"name":"action","type":"uint8","internalType":"enum IDiamond.FacetCutAction"},{"name":"functionSelectors","type":"bytes4[]","internalType":"bytes4[]"}]},{"name":"_init","type":"address","internalType":"address"},{"name":"_calldata","type":"bytes","internalType":"bytes"}],"outputs":[],"stateMutability":"nonpayable"},{"type":"function","name":"disconnectSuperfluidGDA","inputs":[{"name":"","type":"address","internalType":"address"}],"outputs":[],"stateMutability":"nonpayable"},{"type":"function","name":"disputeCount","inputs":[],"outputs":[{"name":"","type":"uint64","internalType":"uint64"}],"stateMutability":"view"},{"type":"function","name":"disputeIdToProposalId","inputs":[{"name":"","type":"uint256","internalType":"uint256"}],"outputs":[{"name":"","type":"uint256","internalType":"uint256"}],"stateMutability":"view"},{"type":"function","name":"disputeProposal","inputs":[{"name":"","type":"uint256","internalType":"uint256"},{"name":"","type":"string","internalType":"string"},{"name":"","type":"bytes","internalType":"bytes"}],"outputs":[{"name":"","type":"uint256","internalType":"uint256"}],"stateMutability":"payable"},{"type":"function","name":"distribute","inputs":[{"name":"","type":"address[]","internalType":"address[]"},{"name":"","type":"bytes","internalType":"bytes"},{"name":"","type":"address","internalType":"address"}],"outputs":[],"stateMutability":"nonpayable"},{"type":"function","name":"editProposal","inputs":[{"name":"","type":"uint256","internalType":"uint256"},{"name":"","type":"tuple","internalType":"struct Metadata","components":[{"name":"protocol","type":"uint256","internalType":"uint256"},{"name":"pointer","type":"string","internalType":"string"}]},{"name":"","type":"address","internalType":"address"},{"name":"","type":"uint256","internalType":"uint256"}],"outputs":[],"stateMutability":"nonpayable"},{"type":"function","name":"getAllo","inputs":[],"outputs":[{"name":"","type":"address","internalType":"contract IAllo"}],"stateMutability":"view"},{"type":"function","name":"getArbitrableConfig","inputs":[],"outputs":[{"name":"arbitrator","type":"address","internalType":"contract IArbitrator"},{"name":"tribunalSafe","type":"address","internalType":"address"},{"name":"submitterCollateralAmount","type":"uint256","internalType":"uint256"},{"name":"challengerCollateralAmount","type":"uint256","internalType":"uint256"},{"name":"defaultRuling","type":"uint256","internalType":"uint256"},{"name":"defaultRulingTimeout","type":"uint256","internalType":"uint256"}],"stateMutability":"view"},{"type":"function","name":"getPointSystem","inputs":[],"outputs":[{"name":"","type":"uint8","internalType":"enum PointSystem"}],"stateMutability":"view"},{"type":"function","name":"getPoolAmount","inputs":[],"outputs":[{"name":"","type":"uint256","internalType":"uint256"}],"stateMutability":"view"},{"type":"function","name":"getPoolId","inputs":[],"outputs":[{"name":"","type":"uint256","internalType":"uint256"}],"stateMutability":"view"},{"type":"function","name":"getProposal","inputs":[{"name":"_proposalId","type":"uint256","internalType":"uint256"}],"outputs":[{"name":"submitter","type":"address","internalType":"address"},{"name":"beneficiary","type":"address","internalType":"address"},{"name":"requestedToken","type":"address","internalType":"address"},{"name":"requestedAmount","type":"uint256","internalType":"uint256"},{"name":"stakedAmount","type":"uint256","internalType":"uint256"},{"name":"proposalStatus","type":"uint8","internalType":"enum ProposalStatus"},{"name":"blockLast","type":"uint256","internalType":"uint256"},{"name":"convictionLast","type":"uint256","internalType":"uint256"},{"name":"threshold","type":"uint256","internalType":"uint256"},{"name":"voterStakedPoints","type":"uint256","internalType":"uint256"},{"name":"arbitrableConfigVersion","type":"uint256","internalType":"uint256"},{"name":"protocol","type":"uint256","internalType":"uint256"}],"stateMutability":"view"},{"type":"function","name":"getProposalStakedAmount","inputs":[{"name":"_proposalId","type":"uint256","internalType":"uint256"}],"outputs":[{"name":"","type":"uint256","internalType":"uint256"}],"stateMutability":"view"},{"type":"function","name":"getProposalVoterStake","inputs":[{"name":"_proposalId","type":"uint256","internalType":"uint256"},{"name":"_voter","type":"address","internalType":"address"}],"outputs":[{"name":"","type":"uint256","internalType":"uint256"}],"stateMutability":"view"},{"type":"function","name":"increasePower","inputs":[{"name":"_member","type":"address","internalType":"address"},{"name":"_amountToStake","type":"uint256","internalType":"uint256"}],"outputs":[{"name":"","type":"uint256","internalType":"uint256"}],"stateMutability":"nonpayable"},{"type":"function","name":"init","inputs":[{"name":"_allo","type":"address","internalType":"address"},{"name":"_collateralVaultTemplate","type":"address","internalType":"address"},{"name":"_owner","type":"address","internalType":"address"}],"outputs":[],"stateMutability":"nonpayable"},{"type":"function","name":"init","inputs":[{"name":"_allo","type":"address","internalType":"address"},{"name":"_name","type":"string","internalType":"string"},{"name":"_owner","type":"address","internalType":"address"}],"outputs":[],"stateMutability":"nonpayable"},{"type":"function","name":"initialize","inputs":[{"name":"initialOwner","type":"address","internalType":"address"}],"outputs":[],"stateMutability":"nonpayable"},{"type":"function","name":"initialize","inputs":[{"name":"_poolId","type":"uint256","internalType":"uint256"},{"name":"_data","type":"bytes","internalType":"bytes"}],"outputs":[],"stateMutability":"nonpayable"},{"type":"function","name":"isPoolActive","inputs":[],"outputs":[{"name":"","type":"bool","internalType":"bool"}],"stateMutability":"view"},{"type":"function","name":"owner","inputs":[],"outputs":[{"name":"","type":"address","internalType":"address"}],"stateMutability":"view"},{"type":"function","name":"pointConfig","inputs":[],"outputs":[{"name":"maxAmount","type":"uint256","internalType":"uint256"}],"stateMutability":"view"},{"type":"function","name":"pointSystem","inputs":[],"outputs":[{"name":"","type":"uint8","internalType":"enum PointSystem"}],"stateMutability":"view"},{"type":"function","name":"proposalCounter","inputs":[],"outputs":[{"name":"","type":"uint256","internalType":"uint256"}],"stateMutability":"view"},{"type":"function","name":"proposalType","inputs":[],"outputs":[{"name":"","type":"uint8","internalType":"enum ProposalType"}],"stateMutability":"view"},{"type":"function","name":"proposals","inputs":[{"name":"","type":"uint256","internalType":"uint256"}],"outputs":[{"name":"proposalId","type":"uint256","internalType":"uint256"},{"name":"requestedAmount","type":"uint256","internalType":"uint256"},{"name":"stakedAmount","type":"uint256","internalType":"uint256"},{"name":"convictionLast","type":"uint256","internalType":"uint256"},{"name":"beneficiary","type":"address","internalType":"address"},{"name":"submitter","type":"address","internalType":"address"},{"name":"requestedToken","type":"address","internalType":"address"},{"name":"blockLast","type":"uint256","internalType":"uint256"},{"name":"proposalStatus","type":"uint8","internalType":"enum ProposalStatus"},{"name":"metadata","type":"tuple","internalType":"struct Metadata","components":[{"name":"protocol","type":"uint256","internalType":"uint256"},{"name":"pointer","type":"string","internalType":"string"}]},{"name":"disputeInfo","type":"tuple","internalType":"struct ProposalDisputeInfo","components":[{"name":"disputeId","type":"uint256","internalType":"uint256"},{"name":"disputeTimestamp","type":"uint256","internalType":"uint256"},{"name":"challenger","type":"address","internalType":"address"}]},{"name":"lastDisputeCompletion","type":"uint256","internalType":"uint256"},{"name":"arbitrableConfigVersion","type":"uint256","internalType":"uint256"},{"name":"creationTimestamp","type":"uint256","internalType":"uint256"}],"stateMutability":"view"},{"type":"function","name":"proxiableUUID","inputs":[],"outputs":[{"name":"","type":"bytes32","internalType":"bytes32"}],"stateMutability":"view"},{"type":"function","name":"proxyOwner","inputs":[],"outputs":[{"name":"","type":"address","internalType":"address"}],"stateMutability":"view"},{"type":"function","name":"registerRecipient","inputs":[{"name":"_data","type":"bytes","internalType":"bytes"},{"name":"_sender","type":"address","internalType":"address"}],"outputs":[{"name":"","type":"address","internalType":"address"}],"stateMutability":"payable"},{"type":"function","name":"registryCommunity","inputs":[],"outputs":[{"name":"","type":"address","internalType":"contract RegistryCommunity"}],"stateMutability":"view"},{"type":"function","name":"renounceOwnership","inputs":[],"outputs":[],"stateMutability":"nonpayable"},{"type":"function","name":"rule","inputs":[{"name":"","type":"uint256","internalType":"uint256"},{"name":"","type":"uint256","internalType":"uint256"}],"outputs":[],"stateMutability":"nonpayable"},{"type":"function","name":"setCollateralVaultTemplate","inputs":[{"name":"template","type":"address","internalType":"address"}],"outputs":[],"stateMutability":"nonpayable"},{"type":"function","name":"setPoolActive","inputs":[{"name":"_active","type":"bool","internalType":"bool"}],"outputs":[],"stateMutability":"nonpayable"},{"type":"function","name":"setPoolParams","inputs":[{"name":"_arbitrableConfig","type":"tuple","internalType":"struct ArbitrableConfig","components":[{"name":"arbitrator","type":"address","internalType":"contract IArbitrator"},{"name":"tribunalSafe","type":"address","internalType":"address"},{"name":"submitterCollateralAmount","type":"uint256","internalType":"uint256"},{"name":"challengerCollateralAmount","type":"uint256","internalType":"uint256"},{"name":"defaultRuling","type":"uint256","internalType":"uint256"},{"name":"defaultRulingTimeout","type":"uint256","internalType":"uint256"}]},{"name":"_cvParams","type":"tuple","internalType":"struct CVParams","components":[{"name":"maxRatio","type":"uint256","internalType":"uint256"},{"name":"weight","type":"uint256","internalType":"uint256"},{"name":"decay","type":"uint256","internalType":"uint256"},{"name":"minThresholdPoints","type":"uint256","internalType":"uint256"}]},{"name":"_sybilScoreThreshold","type":"uint256","internalType":"uint256"},{"name":"_membersToAdd","type":"address[]","internalType":"address[]"},{"name":"_membersToRemove","type":"address[]","internalType":"address[]"},{"name":"_superfluidToken","type":"address","internalType":"address"}],"outputs":[],"stateMutability":"nonpayable"},{"type":"function","name":"superfluidToken","inputs":[],"outputs":[{"name":"","type":"address","internalType":"contract ISuperToken"}],"stateMutability":"view"},{"type":"function","name":"supportsInterface","inputs":[{"name":"interfaceId","type":"bytes4","internalType":"bytes4"}],"outputs":[{"name":"","type":"bool","internalType":"bool"}],"stateMutability":"view"},{"type":"function","name":"sybilScorer","inputs":[],"outputs":[{"name":"","type":"address","internalType":"contract ISybilScorer"}],"stateMutability":"view"},{"type":"function","name":"totalPointsActivated","inputs":[],"outputs":[{"name":"","type":"uint256","internalType":"uint256"}],"stateMutability":"view"},{"type":"function","name":"totalStaked","inputs":[],"outputs":[{"name":"","type":"uint256","internalType":"uint256"}],"stateMutability":"view"},{"type":"function","name":"totalVoterStakePct","inputs":[{"name":"","type":"address","internalType":"address"}],"outputs":[{"name":"","type":"uint256","internalType":"uint256"}],"stateMutability":"view"},{"type":"function","name":"transferOwnership","inputs":[{"name":"newOwner","type":"address","internalType":"address"}],"outputs":[],"stateMutability":"nonpayable"},{"type":"function","name":"updateProposalConviction","inputs":[{"name":"proposalId","type":"uint256","internalType":"uint256"}],"outputs":[{"name":"","type":"uint256","internalType":"uint256"}],"stateMutability":"nonpayable"},{"type":"function","name":"upgradeTo","inputs":[{"name":"newImplementation","type":"address","internalType":"address"}],"outputs":[],"stateMutability":"nonpayable"},{"type":"function","name":"upgradeToAndCall","inputs":[{"name":"newImplementation","type":"address","internalType":"address"},{"name":"data","type":"bytes","internalType":"bytes"}],"outputs":[],"stateMutability":"payable"},{"type":"function","name":"voterStakedProposals","inputs":[{"name":"","type":"address","internalType":"address"},{"name":"","type":"uint256","internalType":"uint256"}],"outputs":[{"name":"","type":"uint256","internalType":"uint256"}],"stateMutability":"view"},{"type":"event","name":"AdminChanged","inputs":[{"name":"previousAdmin","type":"address","indexed":false,"internalType":"address"},{"name":"newAdmin","type":"address","indexed":false,"internalType":"address"}],"anonymous":false},{"type":"event","name":"Allocated","inputs":[{"name":"recipientId","type":"address","indexed":true,"internalType":"address"},{"name":"amount","type":"uint256","indexed":false,"internalType":"uint256"},{"name":"token","type":"address","indexed":false,"internalType":"address"},{"name":"sender","type":"address","indexed":false,"internalType":"address"}],"anonymous":false},{"type":"event","name":"AllowlistMembersAdded","inputs":[{"name":"poolId","type":"uint256","indexed":false,"internalType":"uint256"},{"name":"members","type":"address[]","indexed":false,"internalType":"address[]"}],"anonymous":false},{"type":"event","name":"AllowlistMembersRemoved","inputs":[{"name":"poolId","type":"uint256","indexed":false,"internalType":"uint256"},{"name":"members","type":"address[]","indexed":false,"internalType":"address[]"}],"anonymous":false},{"type":"event","name":"ArbitrableConfigUpdated","inputs":[{"name":"currentArbitrableConfigVersion","type":"uint256","indexed":false,"internalType":"uint256"},{"name":"arbitrator","type":"address","indexed":false,"internalType":"contract IArbitrator"},{"name":"tribunalSafe","type":"address","indexed":false,"internalType":"address"},{"name":"submitterCollateralAmount","type":"uint256","indexed":false,"internalType":"uint256"},{"name":"challengerCollateralAmount","type":"uint256","indexed":false,"internalType":"uint256"},{"name":"defaultRuling","type":"uint256","indexed":false,"internalType":"uint256"},{"name":"defaultRulingTimeout","type":"uint256","indexed":false,"internalType":"uint256"}],"anonymous":false},{"type":"event","name":"BeaconUpgraded","inputs":[{"name":"beacon","type":"address","indexed":true,"internalType":"address"}],"anonymous":false},{"type":"event","name":"CVParamsUpdated","inputs":[{"name":"cvParams","type":"tuple","indexed":false,"internalType":"struct CVParams","components":[{"name":"maxRatio","type":"uint256","internalType":"uint256"},{"name":"weight","type":"uint256","internalType":"uint256"},{"name":"decay","type":"uint256","internalType":"uint256"},{"name":"minThresholdPoints","type":"uint256","internalType":"uint256"}]}],"anonymous":false},{"type":"event","name":"DisputeRequest","inputs":[{"name":"_arbitrator","type":"address","indexed":true,"internalType":"contract IArbitrator"},{"name":"_arbitrableDisputeID","type":"uint256","indexed":true,"internalType":"uint256"},{"name":"_externalDisputeID","type":"uint256","indexed":false,"internalType":"uint256"},{"name":"_templateId","type":"uint256","indexed":false,"internalType":"uint256"},{"name":"_templateUri","type":"string","indexed":false,"internalType":"string"}],"anonymous":false},{"type":"event","name":"Distributed","inputs":[{"name":"proposalId","type":"uint256","indexed":false,"internalType":"uint256"},{"name":"beneficiary","type":"address","indexed":false,"internalType":"address"},{"name":"amount","type":"uint256","indexed":false,"internalType":"uint256"}],"anonymous":false},{"type":"event","name":"Distributed","inputs":[{"name":"recipientId","type":"address","indexed":true,"internalType":"address"},{"name":"recipientAddress","type":"address","indexed":false,"internalType":"address"},{"name":"amount","type":"uint256","indexed":false,"internalType":"uint256"},{"name":"sender","type":"address","indexed":false,"internalType":"address"}],"anonymous":false},{"type":"event","name":"Initialized","inputs":[{"name":"poolId","type":"uint256","indexed":false,"internalType":"uint256"},{"name":"data","type":"bytes","indexed":false,"internalType":"bytes"}],"anonymous":false},{"type":"event","name":"Initialized","inputs":[{"name":"version","type":"uint8","indexed":false,"internalType":"uint8"}],"anonymous":false},{"type":"event","name":"InitializedCV","inputs":[{"name":"poolId","type":"uint256","indexed":false,"internalType":"uint256"},{"name":"data","type":"tuple","indexed":false,"internalType":"struct CVStrategyInitializeParamsV0_0","components":[{"name":"cvParams","type":"tuple","internalType":"struct CVParams","components":[{"name":"maxRatio","type":"uint256","internalType":"uint256"},{"name":"weight","type":"uint256","internalType":"uint256"},{"name":"decay","type":"uint256","internalType":"uint256"},{"name":"minThresholdPoints","type":"uint256","internalType":"uint256"}]},{"name":"proposalType","type":"uint8","internalType":"enum ProposalType"},{"name":"pointSystem","type":"uint8","internalType":"enum PointSystem"},{"name":"pointConfig","type":"tuple","internalType":"struct PointSystemConfig","components":[{"name":"maxAmount","type":"uint256","internalType":"uint256"}]},{"name":"arbitrableConfig","type":"tuple","internalType":"struct ArbitrableConfig","components":[{"name":"arbitrator","type":"address","internalType":"contract IArbitrator"},{"name":"tribunalSafe","type":"address","internalType":"address"},{"name":"submitterCollateralAmount","type":"uint256","internalType":"uint256"},{"name":"challengerCollateralAmount","type":"uint256","internalType":"uint256"},{"name":"defaultRuling","type":"uint256","internalType":"uint256"},{"name":"defaultRulingTimeout","type":"uint256","internalType":"uint256"}]},{"name":"registryCommunity","type":"address","internalType":"address"},{"name":"sybilScorer","type":"address","internalType":"address"}]}],"anonymous":false},{"type":"event","name":"InitializedCV2","inputs":[{"name":"poolId","type":"uint256","indexed":false,"internalType":"uint256"},{"name":"data","type":"tuple","indexed":false,"internalType":"struct CVStrategyInitializeParamsV0_1","components":[{"name":"cvParams","type":"tuple","internalType":"struct CVParams","components":[{"name":"maxRatio","type":"uint256","internalType":"uint256"},{"name":"weight","type":"uint256","internalType":"uint256"},{"name":"decay","type":"uint256","internalType":"uint256"},{"name":"minThresholdPoints","type":"uint256","internalType":"uint256"}]},{"name":"proposalType","type":"uint8","internalType":"enum ProposalType"},{"name":"pointSystem","type":"uint8","internalType":"enum PointSystem"},{"name":"pointConfig","type":"tuple","internalType":"struct PointSystemConfig","components":[{"name":"maxAmount","type":"uint256","internalType":"uint256"}]},{"name":"arbitrableConfig","type":"tuple","internalType":"struct ArbitrableConfig","components":[{"name":"arbitrator","type":"address","internalType":"contract IArbitrator"},{"name":"tribunalSafe","type":"address","internalType":"address"},{"name":"submitterCollateralAmount","type":"uint256","internalType":"uint256"},{"name":"challengerCollateralAmount","type":"uint256","internalType":"uint256"},{"name":"defaultRuling","type":"uint256","internalType":"uint256"},{"name":"defaultRulingTimeout","type":"uint256","internalType":"uint256"}]},{"name":"registryCommunity","type":"address","internalType":"address"},{"name":"sybilScorer","type":"address","internalType":"address"},{"name":"sybilScorerThreshold","type":"uint256","internalType":"uint256"},{"name":"initialAllowlist","type":"address[]","internalType":"address[]"}]}],"anonymous":false},{"type":"event","name":"InitializedCV3","inputs":[{"name":"poolId","type":"uint256","indexed":false,"internalType":"uint256"},{"name":"data","type":"tuple","indexed":false,"internalType":"struct CVStrategyInitializeParamsV0_2","components":[{"name":"cvParams","type":"tuple","internalType":"struct CVParams","components":[{"name":"maxRatio","type":"uint256","internalType":"uint256"},{"name":"weight","type":"uint256","internalType":"uint256"},{"name":"decay","type":"uint256","internalType":"uint256"},{"name":"minThresholdPoints","type":"uint256","internalType":"uint256"}]},{"name":"proposalType","type":"uint8","internalType":"enum ProposalType"},{"name":"pointSystem","type":"uint8","internalType":"enum PointSystem"},{"name":"pointConfig","type":"tuple","internalType":"struct PointSystemConfig","components":[{"name":"maxAmount","type":"uint256","internalType":"uint256"}]},{"name":"arbitrableConfig","type":"tuple","internalType":"struct ArbitrableConfig","components":[{"name":"arbitrator","type":"address","internalType":"contract IArbitrator"},{"name":"tribunalSafe","type":"address","internalType":"address"},{"name":"submitterCollateralAmount","type":"uint256","internalType":"uint256"},{"name":"challengerCollateralAmount","type":"uint256","internalType":"uint256"},{"name":"defaultRuling","type":"uint256","internalType":"uint256"},{"name":"defaultRulingTimeout","type":"uint256","internalType":"uint256"}]},{"name":"registryCommunity","type":"address","internalType":"address"},{"name":"sybilScorer","type":"address","internalType":"address"},{"name":"sybilScorerThreshold","type":"uint256","internalType":"uint256"},{"name":"initialAllowlist","type":"address[]","internalType":"address[]"},{"name":"superfluidToken","type":"address","internalType":"address"}]}],"anonymous":false},{"type":"event","name":"OwnershipTransferred","inputs":[{"name":"previousOwner","type":"address","indexed":true,"internalType":"address"},{"name":"newOwner","type":"address","indexed":true,"internalType":"address"}],"anonymous":false},{"type":"event","name":"PointsDeactivated","inputs":[{"name":"member","type":"address","indexed":false,"internalType":"address"}],"anonymous":false},{"type":"event","name":"PoolActive","inputs":[{"name":"active","type":"bool","indexed":false,"internalType":"bool"}],"anonymous":false},{"type":"event","name":"PowerDecreased","inputs":[{"name":"member","type":"address","indexed":false,"internalType":"address"},{"name":"tokensUnStaked","type":"uint256","indexed":false,"internalType":"uint256"},{"name":"pointsToDecrease","type":"uint256","indexed":false,"internalType":"uint256"}],"anonymous":false},{"type":"event","name":"PowerIncreased","inputs":[{"name":"member","type":"address","indexed":false,"internalType":"address"},{"name":"tokensStaked","type":"uint256","indexed":false,"internalType":"uint256"},{"name":"pointsToIncrease","type":"uint256","indexed":false,"internalType":"uint256"}],"anonymous":false},{"type":"event","name":"ProposalCancelled","inputs":[{"name":"proposalId","type":"uint256","indexed":false,"internalType":"uint256"}],"anonymous":false},{"type":"event","name":"ProposalCreated","inputs":[{"name":"poolId","type":"uint256","indexed":false,"internalType":"uint256"},{"name":"proposalId","type":"uint256","indexed":false,"internalType":"uint256"}],"anonymous":false},{"type":"event","name":"ProposalDisputed","inputs":[{"name":"arbitrator","type":"address","indexed":false,"internalType":"contract IArbitrator"},{"name":"proposalId","type":"uint256","indexed":false,"internalType":"uint256"},{"name":"disputeId","type":"uint256","indexed":false,"internalType":"uint256"},{"name":"challenger","type":"address","indexed":false,"internalType":"address"},{"name":"context","type":"string","indexed":false,"internalType":"string"},{"name":"timestamp","type":"uint256","indexed":false,"internalType":"uint256"}],"anonymous":false},{"type":"event","name":"Registered","inputs":[{"name":"recipientId","type":"address","indexed":true,"internalType":"address"},{"name":"data","type":"bytes","indexed":false,"internalType":"bytes"},{"name":"sender","type":"address","indexed":false,"internalType":"address"}],"anonymous":false},{"type":"event","name":"Ruling","inputs":[{"name":"_arbitrator","type":"address","indexed":true,"internalType":"contract IArbitrator"},{"name":"_disputeID","type":"uint256","indexed":true,"internalType":"uint256"},{"name":"_ruling","type":"uint256","indexed":false,"internalType":"uint256"}],"anonymous":false},{"type":"event","name":"SuperfluidGDAConnected","inputs":[{"name":"gda","type":"address","indexed":true,"internalType":"address"},{"name":"by","type":"address","indexed":true,"internalType":"address"}],"anonymous":false},{"type":"event","name":"SuperfluidGDADisconnected","inputs":[{"name":"gda","type":"address","indexed":true,"internalType":"address"},{"name":"by","type":"address","indexed":true,"internalType":"address"}],"anonymous":false},{"type":"event","name":"SuperfluidTokenUpdated","inputs":[{"name":"superfluidToken","type":"address","indexed":false,"internalType":"address"}],"anonymous":false},{"type":"event","name":"SupportAdded","inputs":[{"name":"from","type":"address","indexed":false,"internalType":"address"},{"name":"proposalId","type":"uint256","indexed":false,"internalType":"uint256"},{"name":"amount","type":"uint256","indexed":false,"internalType":"uint256"},{"name":"totalStakedAmount","type":"uint256","indexed":false,"internalType":"uint256"},{"name":"convictionLast","type":"uint256","indexed":false,"internalType":"uint256"}],"anonymous":false},{"type":"event","name":"SybilScorerUpdated","inputs":[{"name":"sybilScorer","type":"address","indexed":false,"internalType":"address"}],"anonymous":false},{"type":"event","name":"Upgraded","inputs":[{"name":"implementation","type":"address","indexed":true,"internalType":"address"}],"anonymous":false},{"type":"error","name":"ALLOCATION_ACTIVE","inputs":[]},{"type":"error","name":"ALLOCATION_NOT_ACTIVE","inputs":[]},{"type":"error","name":"ALLOCATION_NOT_ENDED","inputs":[]},{"type":"error","name":"ALREADY_INITIALIZED","inputs":[]},{"type":"error","name":"AMOUNT_MISMATCH","inputs":[]},{"type":"error","name":"ANCHOR_ERROR","inputs":[]},{"type":"error","name":"ARRAY_MISMATCH","inputs":[]},{"type":"error","name":"AShouldBeUnderOrEqTwo_128","inputs":[]},{"type":"error","name":"AShouldBeUnderTwo_128","inputs":[]},{"type":"error","name":"AddressCannotBeZero","inputs":[]},{"type":"error","name":"AmountOverMaxRatio","inputs":[]},{"type":"error","name":"ArbitratorCannotBeZero","inputs":[]},{"type":"error","name":"BShouldBeLessTwo_128","inputs":[]},{"type":"error","name":"CallerNotOwner","inputs":[{"name":"_caller","type":"address","internalType":"address"},{"name":"_owner","type":"address","internalType":"address"}]},{"type":"error","name":"CannotAddFunctionToDiamondThatAlreadyExists","inputs":[{"name":"_selector","type":"bytes4","internalType":"bytes4"},{"name":"_selectorSignature","type":"string","internalType":"string"}]},{"type":"error","name":"CannotAddSelectorsToZeroAddress","inputs":[{"name":"_selectors","type":"bytes4[]","internalType":"bytes4[]"}]},{"type":"error","name":"CannotRemoveFunctionThatDoesNotExist","inputs":[{"name":"_selector","type":"bytes4","internalType":"bytes4"}]},{"type":"error","name":"CannotRemoveImmutableFunction","inputs":[{"name":"_selector","type":"bytes4","internalType":"bytes4"}]},{"type":"error","name":"CannotReplaceFunctionThatDoesNotExists","inputs":[{"name":"_selector","type":"bytes4","internalType":"bytes4"}]},{"type":"error","name":"CannotReplaceFunctionWithTheSameFunctionFromTheSameFacet","inputs":[{"name":"_selector","type":"bytes4","internalType":"bytes4"}]},{"type":"error","name":"CannotReplaceFunctionsFromFacetWithZeroAddress","inputs":[{"name":"_selectors","type":"bytes4[]","internalType":"bytes4[]"}]},{"type":"error","name":"CannotReplaceImmutableFunction","inputs":[{"name":"_selector","type":"bytes4","internalType":"bytes4"}]},{"type":"error","name":"ConvictionUnderMinimumThreshold","inputs":[]},{"type":"error","name":"DefaultRulingNotSet","inputs":[]},{"type":"error","name":"DisputeCooldownNotPassed","inputs":[{"name":"_proposalId","type":"uint256","internalType":"uint256"},{"name":"_remainingSec","type":"uint256","internalType":"uint256"}]},{"type":"error","name":"INVALID","inputs":[]},{"type":"error","name":"INVALID_ADDRESS","inputs":[]},{"type":"error","name":"INVALID_FEE","inputs":[]},{"type":"error","name":"INVALID_METADATA","inputs":[]},{"type":"error","name":"INVALID_REGISTRATION","inputs":[]},{"type":"error","name":"IS_APPROVED_STRATEGY","inputs":[]},{"type":"error","name":"IncorrectFacetCutAction","inputs":[{"name":"_action","type":"uint8","internalType":"uint8"}]},{"type":"error","name":"InitializationFunctionReverted","inputs":[{"name":"_initializationContractAddress","type":"address","internalType":"address"},{"name":"_calldata","type":"bytes","internalType":"bytes"}]},{"type":"error","name":"InsufficientCollateral","inputs":[{"name":"sentAmount","type":"uint256","internalType":"uint256"},{"name":"requiredAmount","type":"uint256","internalType":"uint256"}]},{"type":"error","name":"MISMATCH","inputs":[]},{"type":"error","name":"NONCE_NOT_AVAILABLE","inputs":[]},{"type":"error","name":"NON_ZERO_VALUE","inputs":[]},{"type":"error","name":"NOT_APPROVED_STRATEGY","inputs":[]},{"type":"error","name":"NOT_ENOUGH_FUNDS","inputs":[]},{"type":"error","name":"NOT_IMPLEMENTED","inputs":[]},{"type":"error","name":"NOT_INITIALIZED","inputs":[]},{"type":"error","name":"NOT_PENDING_OWNER","inputs":[]},{"type":"error","name":"NoBytecodeAtAddress","inputs":[{"name":"_contractAddress","type":"address","internalType":"address"},{"name":"_message","type":"string","internalType":"string"}]},{"type":"error","name":"NoSelectorsProvidedForFacetForCut","inputs":[{"name":"_facetAddress","type":"address","internalType":"address"}]},{"type":"error","name":"NotEnoughPointsToSupport","inputs":[{"name":"pointsSupport","type":"uint256","internalType":"uint256"},{"name":"pointsBalance","type":"uint256","internalType":"uint256"}]},{"type":"error","name":"NotImplemented","inputs":[]},{"type":"error","name":"OnlyArbitrator","inputs":[]},{"type":"error","name":"OnlyCommunityAllowed","inputs":[]},{"type":"error","name":"OnlyCouncilSafe","inputs":[]},{"type":"error","name":"OnlySubmitter","inputs":[{"name":"submitter","type":"address","internalType":"address"},{"name":"sender","type":"address","internalType":"address"}]},{"type":"error","name":"POOL_ACTIVE","inputs":[]},{"type":"error","name":"POOL_INACTIVE","inputs":[]},{"type":"error","name":"PoolAmountNotEnough","inputs":[{"name":"_proposalId","type":"uint256","internalType":"uint256"},{"name":"_requestedAmount","type":"uint256","internalType":"uint256"},{"name":"_poolAmount","type":"uint256","internalType":"uint256"}]},{"type":"error","name":"PoolIsEmpty","inputs":[]},{"type":"error","name":"ProposalDataIsEmpty","inputs":[]},{"type":"error","name":"ProposalIdCannotBeZero","inputs":[]},{"type":"error","name":"ProposalInvalidForAllocation","inputs":[{"name":"_proposalId","type":"uint256","internalType":"uint256"},{"name":"_proposalStatus","type":"uint8","internalType":"enum ProposalStatus"}]},{"type":"error","name":"ProposalNotActive","inputs":[{"name":"_proposalId","type":"uint256","internalType":"uint256"}]},{"type":"error","name":"ProposalNotDisputed","inputs":[{"name":"_proposalId","type":"uint256","internalType":"uint256"}]},{"type":"error","name":"ProposalNotInList","inputs":[{"name":"_proposalId","type":"uint256","internalType":"uint256"}]},{"type":"error","name":"ProposalSupportDuplicated","inputs":[{"name":"_proposalId","type":"uint256","internalType":"uint256"},{"name":"index","type":"uint256","internalType":"uint256"}]},{"type":"error","name":"RECIPIENT_ALREADY_ACCEPTED","inputs":[]},{"type":"error","name":"RECIPIENT_ERROR","inputs":[{"name":"recipientId","type":"address","internalType":"address"}]},{"type":"error","name":"RECIPIENT_NOT_ACCEPTED","inputs":[]},{"type":"error","name":"REGISTRATION_ACTIVE","inputs":[]},{"type":"error","name":"REGISTRATION_NOT_ACTIVE","inputs":[]},{"type":"error","name":"RegistryCannotBeZero","inputs":[]},{"type":"error","name":"RemoveFacetAddressMustBeZeroAddress","inputs":[{"name":"_facetAddress","type":"address","internalType":"address"}]},{"type":"error","name":"StrategyFunctionDoesNotExist","inputs":[{"name":"selector","type":"bytes4","internalType":"bytes4"}]},{"type":"error","name":"SupportUnderflow","inputs":[{"name":"_support","type":"uint256","internalType":"uint256"},{"name":"_delta","type":"int256","internalType":"int256"},{"name":"_result","type":"int256","internalType":"int256"}]},{"type":"error","name":"TokenCannotBeZero","inputs":[]},{"type":"error","name":"TokenNotAllowed","inputs":[]},{"type":"error","name":"UNAUTHORIZED","inputs":[]},{"type":"error","name":"UserCannotBeZero","inputs":[]},{"type":"error","name":"UserCannotExecuteAction","inputs":[]},{"type":"error","name":"UserIsInactive","inputs":[]},{"type":"error","name":"UserNotInRegistry","inputs":[]},{"type":"error","name":"ZERO_ADDRESS","inputs":[]}],"bytecode":{"object":"0x60a06040523060805234801561001457600080fd5b50608051615e4b6200004d60003960008181610f8101528181610fc1015281816112d701528181611317015261138f0152615e4b6000f3fe6080604052600436106102d75760003560e01c8063013cf08b1461036e57806301ffc9a7146103b1578063025313a2146103e1578063059351cd1461040357806305caa7f3146104905780630a6f0ee9146104b05780630bece79c146104d05780630c0512e9146104f0578063125fd1d914610514578063141e3b381461052a57806315cc481e1461054a578063184b9559146105685780631aa91a9e146105885780631ddf1e23146105a85780631f931c1c146105bd5780632506b870146105dd578063255ffb38146106105780632bbe0cae1461063d5780632dbd6fdd146106505780632ed04b2b1461067c578063311a6c561461069757806333960459146106b7578063351d9f96146106cd5780633659cfe6146106f457806338fff2d01461071457806341bb7605146107295780634ab4ba42146107865780634f1ef2861461079b57806352d1902d146107ae57806359a5db8b146107c35780635db64b99146107e35780636003e4141461081057806360b0645a1461083057806360d5dedc14610850578063626c47e8146108705780636453d9c414610885578063715018a6146108a5578063782aadff146108ba578063814516ad146108da578063817b1cd2146108ef578063868c57b8146109055780638da5cb5b14610925578063924e670414610885578063a0cf0aea1461093a578063a28889e114610962578063a47ff7e51461099a578063aba9ffee146109b1578063b0d3713a146109c7578063b41596ec146109e7578063b5f620ce146109fa578063b6c61f3114610a1a578063c329217114610a3a578063c4d66de814610a57578063c69271ec14610885578063c7f758a814610a77578063d5b7cc5414610aaf578063dc96ff2d14610acf578063df868ed314610aff578063e0a8f6f514610b14578063e0dd2c3814610b2f578063edd146cc14610b4f578063ef2920fc14610b6f578063f2fde38b14610b7d578063f5be3f7c14610b9d576102de565b366102de57005b600080356001600160e01b03191681526000805160206159e6833981519152602081905260409091205481906001600160a01b031680610348576000356001600160e01b03191660405163335ed20560e11b815260040161033f91906142d2565b60405180910390fd5b3660008037600080366000845af43d6000803e808015610367573d6000f35b3d6000fd5b005b34801561037a57600080fd5b5061038e6103893660046142e7565b610bb3565b6040516103a89e9d9c9b9a999897969594939291906143a6565b60405180910390f35b3480156103bd57600080fd5b506103d16103cc366004614477565b610d06565b60405190151581526020016103a8565b3480156103ed57600080fd5b506103f6610d3d565b6040516103a89190614492565b34801561040f57600080fd5b50610458606f546000908152607f60205260409020805460018201546002830154600384015460048501546005909501546001600160a01b039485169694909316949193909290565b604080516001600160a01b039788168152969095166020870152938501929092526060840152608083015260a082015260c0016103a8565b34801561049c57600080fd5b506080546103f6906001600160a01b031681565b3480156104bc57600080fd5b5061036c6104cb3660046146cc565b610d56565b3480156104dc57600080fd5b506079546103f6906001600160a01b031681565b3480156104fc57600080fd5b50610506606e5481565b6040519081526020016103a8565b34801561052057600080fd5b50610506606f5481565b34801561053657600080fd5b5061036c610545366004614743565b610d63565b34801561055657600080fd5b506065546001600160a01b03166103f6565b34801561057457600080fd5b5061036c6105833660046147dd565b610d71565b34801561059457600080fd5b506105066105a33660046142e7565b610ecb565b3480156105b457600080fd5b5061036c610efe565b3480156105c957600080fd5b5061036c6105d836600461485e565b610f08565b3480156105e957600080fd5b506072546073546074546075546106009392919084565b6040516103a8949392919061490f565b34801561061c57600080fd5b5061050661062b3660046142e7565b607e6020526000908152604090205481565b6103f661064b36600461492a565b610f61565b34801561065c57600080fd5b5060765461066f90610100900460ff1681565b6040516103a89190614994565b34801561068857600080fd5b5061050661064b3660046149a7565b3480156106a357600080fd5b5061036c6106b23660046149d3565b610f6b565b3480156106c357600080fd5b50610506606c5481565b3480156106d957600080fd5b506076546106e79060ff1681565b6040516103a89190614a05565b34801561070057600080fd5b5061036c61070f366004614a13565b610f77565b34801561072057600080fd5b50606854610506565b34801561073557600080fd5b506104586107443660046142e7565b607f602052600090815260409020805460018201546002830154600384015460048501546005909501546001600160a01b039485169593909416939192909186565b34801561079257600080fd5b5061050661103f565b61036c6107a9366004614a30565b6112cd565b3480156107ba57600080fd5b50610506611382565b3480156107cf57600080fd5b506105066107de3660046142e7565b611430565b3480156107ef57600080fd5b506105066107fe366004614a13565b607c6020526000908152604090205481565b34801561081c57600080fd5b506078546103f6906001600160a01b031681565b34801561083c57600080fd5b5061050661084b3660046142e7565b6114df565b34801561085c57600080fd5b5061036c61086b366004614a7f565b611591565b34801561087c57600080fd5b50610506600381565b34801561089157600080fd5b5061036c6108a0366004614a13565b61160d565b3480156108b157600080fd5b5061036c611615565b3480156108c657600080fd5b506105066108d53660046149a7565b611627565b3480156108e657600080fd5b5061036c6117ca565b3480156108fb57600080fd5b5061050660705481565b34801561091157600080fd5b506105066109203660046149a7565b6118cd565b34801561093157600080fd5b506103f66118fe565b34801561094657600080fd5b506103f673eeeeeeeeeeeeeeeeeeeeeeeeeeeeeeeeeeeeeeee81565b34801561096e57600080fd5b50606d54610982906001600160401b031681565b6040516001600160401b0390911681526020016103a8565b3480156109a657600080fd5b506077546105069081565b3480156109bd57600080fd5b5061050660715481565b3480156109d357600080fd5b5061036c6109e2366004614a13565b611993565b6105066109f5366004614ac6565b6119bd565b348015610a0657600080fd5b5061036c610a15366004614b2f565b6119d0565b348015610a2657600080fd5b50607a546103f6906001600160a01b031681565b348015610a4657600080fd5b50607654610100900460ff1661066f565b348015610a6357600080fd5b5061036c610a72366004614a13565b6119d9565b348015610a8357600080fd5b50610a97610a923660046142e7565b611a09565b6040516103a89c9b9a99989796959493929190614b4c565b348015610abb57600080fd5b5061036c610aca366004614c05565b611bb2565b348015610adb57600080fd5b50610506610aea3660046142e7565b6000908152607b602052604090206002015490565b348015610b0b57600080fd5b506103d1611bc2565b348015610b2057600080fd5b5061036c6108a03660046142e7565b348015610b3b57600080fd5b50610506610b4a366004614d03565b611bd0565b348015610b5b57600080fd5b5061036c610b6a366004614d28565b611bfb565b61036c6106b236600461492a565b348015610b8957600080fd5b5061036c610b98366004614a13565b611ff2565b348015610ba957600080fd5b50610506611c2081565b607b602090815260009182526040918290208054600182015460028301546003840154600485015460058601546006870154600788015460088901548b51808d01909c52600a8a0180548d52600b8b0180549a9d999c989b979a6001600160a01b039788169a968816999790951697939660ff9093169593949192840191610c3a90614d58565b80601f0160208091040260200160405190810160405280929190818152602001828054610c6690614d58565b8015610cb35780601f10610c8857610100808354040283529160200191610cb3565b820191906000526020600020905b815481529060010190602001808311610c9657829003601f168201915b50505091909252505060408051606081018252600c8501548152600d8501546020820152600e8501546001600160a01b031691810191909152600f8401546010850154601190950154939491939092508e565b60006001600160e01b0319821663188d362b60e11b1480610d3757506301ffc9a760e01b6001600160e01b03198316145b92915050565b6000610d516033546001600160a01b031690565b905090565b610d5e6102de565b505050565b610d6b6102de565b50505050565b600054610100900460ff1615808015610d915750600054600160ff909116105b80610db25750610da03061205f565b158015610db2575060005460ff166001145b610e155760405162461bcd60e51b815260206004820152602e60248201527f496e697469616c697a61626c653a20636f6e747261637420697320616c72656160448201526d191e481a5b9a5d1a585b1a5e995960921b606482015260840161033f565b6000805460ff191660011790558015610e38576000805461ff0019166101001790555b610e65846040518060400160405280600a8152602001694356537472617465677960b01b81525084611591565b606a80546001600160a01b0319166001600160a01b0385161790558015610d6b576000805461ff0019169055604051600181527f7f26b83ff96e1f2b6a682f133852f6798a09c465da95921460cefb38474024989060200160405180910390a150505050565b6000818152607b6020526040812080548314610ee657600080fd5b610ef481826002015461206e565b6003015492915050565b610f066102de565b565b610f106120a9565b610f5a610f1d8587614d9f565b8484848080601f01602080910402602001604051908101604052809392919081815260200183838082843760009201919091525061210892505050565b5050505050565b6000610d376102de565b610f736102de565b5050565b6001600160a01b037f0000000000000000000000000000000000000000000000000000000000000000163003610fbf5760405162461bcd60e51b815260040161033f90614eca565b7f00000000000000000000000000000000000000000000000000000000000000006001600160a01b0316610ff16122cd565b6001600160a01b0316146110175760405162461bcd60e51b815260040161033f90614f04565b611020816122e9565b6040805160008082526020820190925261103c91839190612324565b50565b60655460685460405163068bcd8d60e01b815260009283926001600160a01b039091169163068bcd8d916110799160040190815260200190565b600060405180830381865afa158015611096573d6000803e3d6000fd5b505050506040513d6000823e601f3d908101601f191682016040526110be9190810190614f49565b60400151905073eeeeeeeeeeeeeeeeeeeeeeeeeeeeeeeeeeeeeeed196001600160a01b038216016110f0574791505090565b6040516370a0823160e01b81526000906001600160a01b038316906370a082319061111f903090600401614492565b602060405180830381865afa15801561113c573d6000803e3d6000fd5b505050506040513d601f19601f82011682018060405250810190611160919061506a565b6080549091506000906001600160a01b0316156111ed576080546040516370a0823160e01b81526001600160a01b03909116906370a08231906111a7903090600401614492565b602060405180830381865afa1580156111c4573d6000803e3d6000fd5b505050506040513d601f19601f820116820180604052508101906111e8919061506a565b6111f0565b60005b90506000836001600160a01b031663313ce5676040518163ffffffff1660e01b8152600401602060405180830381865afa158015611232573d6000803e3d6000fd5b505050506040513d601f19601f820116820180604052508101906112569190615083565b905060128160ff16101561128b5761126f8160126150bc565b61127a90600a6151b9565b61128490836151c8565b91506112ba565b60128160ff1611156112ba576112a26012826150bc565b6112ad90600a6151b9565b6112b790836151ea565b91505b6112c48284615201565b94505050505090565b6001600160a01b037f00000000000000000000000000000000000000000000000000000000000000001630036113155760405162461bcd60e51b815260040161033f90614eca565b7f00000000000000000000000000000000000000000000000000000000000000006001600160a01b03166113476122cd565b6001600160a01b03161461136d5760405162461bcd60e51b815260040161033f90614f04565b611376826122e9565b610f7382826001612324565b6000306001600160a01b037f0000000000000000000000000000000000000000000000000000000000000000161461141d5760405162461bcd60e51b815260206004820152603860248201527f555550535570677261646561626c653a206d757374206e6f742062652063616c6044820152771b1959081d1a1c9bdd59da0819195b1959d85d1958d85b1b60421b606482015260840161033f565b50600080516020615bd583398151915290565b600061143b8261248f565b1561144557600080fd5b73__$f1b7c69ba751c396eddc93d3bbc5414fd9$__6329dfe5ba8361146861103f565b6071546074546073546072546075546040516001600160e01b031960e08a901b16815261149e9796959493929190600401615214565b602060405180830381865af41580156114bb573d6000803e3d6000fd5b505050506040513d601f19601f82011682018060405250810190610d37919061506a565b6000818152607b60205260408120600781015473__$f1b7c69ba751c396eddc93d3bbc5414fd9$__9063010dfe64906115189043615244565b600384015460028501546074546040516001600160e01b031960e087901b168152611549949392919060040161490f565b602060405180830381865af4158015611566573d6000803e3d6000fd5b505050506040513d601f19601f8201168201806040525081019061158a919061506a565b9392505050565b600054610100900460ff166115b85760405162461bcd60e51b815260040161033f90615257565b6115c1816119d9565b606580546001600160a01b0319166001600160a01b0385161790556040516115ed9083906020016152a2565b60408051601f198184030181529190528051602090910120606655505050565b61103c6102de565b61161d6120a9565b610f0660006124bb565b600061163161250d565b61163a83612524565b61164357600080fd5b6078546076546077546040516348e346c360e01b815260009373__$c032285ca413f3d1dae375e8699dd757fc$__936348e346c39361169e936001600160a01b03909316928a928a9261010090910460ff16916004016152b5565b602060405180830381865af41580156116bb573d6000803e3d6000fd5b505050506040513d601f19601f820116820180604052508101906116df919061506a565b60785460405163011de97360e61b81529192506000916001600160a01b039091169063477a5cc09061171790889030906004016152f0565b602060405180830381865afa158015611734573d6000803e3d6000fd5b505050506040513d601f19601f82011682018060405250810190611758919061530a565b905080156117785781607160008282546117729190615201565b90915550505b604080516001600160a01b0387168152602081018690529081018390527f0b9150e1e54346ed3fa36b977cd5d65dca5a649c737c3174a26bddaadd47667a9060600160405180910390a1509392505050565b6117d333612524565b6117dc57600080fd5b607854604051630d4a8b4960e01b81526001600160a01b0390911690630d4a8b499061180e90339030906004016152f0565b600060405180830381600087803b15801561182857600080fd5b505af115801561183c573d6000803e3d6000fd5b5050607854604051637817ee4f60e01b81526001600160a01b039091169250637817ee4f915061187290339030906004016152f0565b6020604051808303816000875af1158015611891573d6000803e3d6000fd5b505050506040513d601f19601f820116820180604052508101906118b5919061506a565b607160008282546118c69190615201565b9091555050565b607d60205281600052604060002081815481106118e957600080fd5b90600052602060002001600091509150505481565b6000611908610d3d565b6001600160a01b03163b60000361192157610d51610d3d565b611929610d3d565b6001600160a01b0316638da5cb5b6040518163ffffffff1660e01b8152600401602060405180830381865afa925050508015611982575060408051601f3d908101601f1916820190925261197f91810190615327565b60015b61198e57610d51610d3d565b919050565b61199b6120a9565b606a80546001600160a01b0319166001600160a01b0392909216919091179055565b60006119c76102de565b95945050505050565b61103c816126dc565b600054610100900460ff16611a005760405162461bcd60e51b815260040161033f90615257565b61103c816124bb565b6000806000806000806000806000806000806000607b60008f815260200190815260200160002090508060010154600014611ae15773__$f1b7c69ba751c396eddc93d3bbc5414fd9$__6329dfe5ba8260010154611a6561103f565b6071546074546073546072546075546040516001600160e01b031960e08a901b168152611a9b9796959493929190600401615214565b602060405180830381865af4158015611ab8573d6000803e3d6000fd5b505050506040513d601f19601f82011682018060405250810190611adc919061506a565b611ae4565b60005b94508060050160009054906101000a90046001600160a01b03168160040160009054906101000a90046001600160a01b03168260060160009054906101000a90046001600160a01b0316836001015484600201548560080160009054906101000a900460ff16866007015487600301548c896009016000336001600160a01b03166001600160a01b03168152602001908152602001600020548a601001548b600a01600001549c509c509c509c509c509c509c509c509c509c509c509c505091939597999b5091939597999b565b611bba6102de565b505050505050565b6000610d5160675460ff1690565b6000828152607b602090815260408083206001600160a01b038516845260090190915281205461158a565b611c03612723565b611c0c8261274e565b606a54606c8054611c35926001600160a01b0316916000611c2c83615344565b9190505561279d565b607980546001600160a01b0319166001600160a01b039290921691821790556040805163204a7f0760e21b81529051638129fc1c9160048082019260009290919082900301818387803b158015611c8b57600080fd5b505af1158015611c9f573d6000803e3d6000fd5b50505050600081806020019051810190611cb991906154cc565b60a0810151607880546001600160a01b0319166001600160a01b03909216919091179055602081015160768054929350909160ff19166001836002811115611d0357611d0361430d565b021790555060408101516076805461ff001916610100836003811115611d2b57611d2b61430d565b021790555060608101515160775560c0810151607a80546001600160a01b039283166001600160a01b031991821617909155610120830151608080549190931691161790556040517f27cddb9d805ad332311bc448d558d9a480ce45ef8b7e99b382ee1f16267e567f90611da2908590849061563f565b60405180910390a16080810151602001516001600160a01b031615801590611dd757506080810151516001600160a01b031615155b15611f4a576080810151805160209091015160405163446adb9960e11b81526001600160a01b03909216916388d5b73291611e1491600401614492565b600060405180830381600087803b158015611e2e57600080fd5b505af1158015611e42573d6000803e3d6000fd5b5050606f8054925090506000611e5783615344565b909155505060808181018051606f80546000908152607f6020908152604091829020845181546001600160a01b039182166001600160a01b03199182161783558387015160018401805491841691909216179055838601516002830155606080870151600384015586890151600484015560a096870151600590930192909255935495518051818401518286015183850151848c0151948a015188519b8c52938916968b019690965296168886015291870194909452958501529183015260c082019290925290517fe677e2878aaaaf6a65ecf50f849ad58100c49f6dfd57d055ba4bddd63a175d539181900360e00190a15b805160400151158015611f605750805160200151155b8015611f6c5750805151155b8015611f7b5750805160600151155b611fd4578051805160725560208101516073556040808201516074556060820151607555517fec9315d9f4291207475c061feff1e5d7105750ac0ee9534af9444b4ff1dab9bc91611fcb9161575b565b60405180910390a15b607a546001600160a01b031615610d5e57610d5e8160e001516127ec565b611ffa6120a9565b6001600160a01b038116611a005760405162461bcd60e51b815260206004820152602660248201527f4f776e61626c653a206e6577206f776e657220697320746865207a65726f206160448201526564647265737360d01b606482015260840161033f565b6001600160a01b03163b151590565b60008061207b84846128d0565b9150915081600014801561208d575080155b156120985750505050565b600784015560039092019190915550565b336120b26118fe565b6001600160a01b031614610f065760405162461bcd60e51b815260206004820181905260248201527f4f776e61626c653a2063616c6c6572206973206e6f7420746865206f776e6572604482015260640161033f565b60005b835181101561228757600084828151811061212857612128615769565b6020026020010151604001519050600085838151811061214a5761214a615769565b6020026020010151600001519050815160000361217c578060405163e767f91f60e01b815260040161033f9190614492565b600086848151811061219057612190615769565b6020026020010151602001519050600060038111156121b1576121b161430d565b8160038111156121c3576121c361430d565b036121d7576121d282846129a1565b612271565b60018160038111156121eb576121eb61430d565b036121fa576121d28284612b42565b600281600381111561220e5761220e61430d565b0361221d576121d28284612cae565b60038160038111156122315761223161430d565b03612240576121d28284612f0c565b8060038111156122525761225261430d565b604051633ff4d20f60e11b815260ff909116600482015260240161033f565b505050808061227f90615344565b91505061210b565b507f8faa70878671ccd212d20771b795c50af8fd3ff6cf27f4bde57e5d4de0aeb6738383836040516122bb939291906157b9565b60405180910390a1610d5e8282613128565b600080516020615bd5833981519152546001600160a01b031690565b336122f26118fe565b6001600160a01b03161461103c57336123096118fe565b60405163163678e960e01b815260040161033f9291906152f0565b7f4910fdfa16fed3260ed0e7147f7cc6da11a60208b5b9406d12a635614ffd91435460ff161561235757610d5e836131ee565b826001600160a01b03166352d1902d6040518163ffffffff1660e01b8152600401602060405180830381865afa9250505080156123b1575060408051601f3d908101601f191682019092526123ae9181019061506a565b60015b6124145760405162461bcd60e51b815260206004820152602e60248201527f45524331393637557067726164653a206e657720696d706c656d656e7461746960448201526d6f6e206973206e6f74205555505360901b606482015260840161033f565b600080516020615bd583398151915281146124835760405162461bcd60e51b815260206004820152602960248201527f45524331393637557067726164653a20756e737570706f727465642070726f786044820152681a58589b195555525160ba1b606482015260840161033f565b50610d5e838383613288565b600061249e62989680836151ea565b6124a661103f565b6072546124b391906151ea565b111592915050565b603380546001600160a01b038381166001600160a01b0319831681179093556040519116919082907f8be0079c531659141344cd1fd0a4f28419497f9722a3daafe3b4186f6b6457e090600090a35050565b6078546001600160a01b03163314610f0657600080fd5b607a546000906001600160a01b0316612669576068546040516810531313d5d31254d560ba1b6020820152602981019190915260009060490160408051601f19818403018152908290528051602090910120607854632474521560e21b83529092506001600160a01b0316906391d14854906125a790849060009060040161586c565b602060405180830381865afa1580156125c4573d6000803e3d6000fd5b505050506040513d601f19601f820116820180604052508101906125e8919061530a565b156125f65750600192915050565b607854604051632474521560e21b81526001600160a01b03909116906391d1485490612628908490879060040161586c565b602060405180830381865afa158015612645573d6000803e3d6000fd5b505050506040513d601f19601f8201168201806040525081019061158a919061530a565b607a546040516302154c3d60e51b81526001600160a01b03909116906342a987a09061269b90859030906004016152f0565b602060405180830381865afa1580156126b8573d6000803e3d6000fd5b505050506040513d601f19601f82011682018060405250810190610d37919061530a565b6067805460ff19168215159081179091556040519081527fd94c9bc4d43c51d8dc345a016d8e3d994432fac68e72832e4cf3a616bd8efae09060200160405180910390a150565b6065546001600160a01b03163314610f065760405163075fd2b160e01b815260040160405180910390fd5b612756612723565b606854156127775760405163439a74c960e01b815260040160405180910390fd5b8060000361279857604051637fcce2a960e01b815260040160405180910390fd5b606855565b6040516001600160601b03193360601b1660208201526034810182905260009081906054016040516020818303038152906040528051906020012090506127e484826132ad565b949350505050565b607a5460785460408051633629edcd60e11b815290516001600160a01b039384169363fc2ebdd193309387939190921691636c53db9a9160048083019260209291908290030181865afa158015612847573d6000803e3d6000fd5b505050506040513d601f19601f8201168201806040525081019061286b9190615327565b60405160e085901b6001600160e01b03191681526001600160a01b03938416600482015260248101929092529091166044820152606401600060405180830381600087803b1580156128bc57600080fd5b505af1158015610f5a573d6000803e3d6000fd5b60008043905080846007015411156128ea576128ea615883565b808460070154036129005750600090508061299a565b73__$f1b7c69ba751c396eddc93d3bbc5414fd9$__63010dfe6485600701548361292a9190615244565b60038701546074546040516001600160e01b031960e086901b168152612956939291899160040161490f565b602060405180830381865af4158015612973573d6000803e3d6000fd5b505050506040513d601f19601f82011682018060405250810190612997919061506a565b91505b9250929050565b6001600160a01b0382166129ca57806040516302b8da0760e21b815260040161033f9190615899565b60006129d4613344565b9050600081600101805490509050612a0484604051806060016040528060248152602001615a7460249139613356565b60005b8351811015610f5a576000848281518110612a2457612a24615769565b6020908102919091018101516001600160e01b031981166000908152918690526040909120549091506001600160a01b03168015612a815781612a668361337e565b60405163d4624ab160e01b815260040161033f9291906158ac565b6040805180820182526001600160a01b03808a16825261ffff80881660208085019182526001600160e01b0319881660009081528b8252958620945185549251909316600160a01b026001600160b01b0319909216929093169190911717909155600180880180549182018155835291206008820401805460e085901c60046007909416939093026101000a92830263ffffffff909302191691909117905583612b2a816158ce565b94505050508080612b3a90615344565b915050612a07565b6000612b4c613344565b90506001600160a01b038316612b77578160405163cd98a96f60e01b815260040161033f9190615899565b612b9983604051806060016040528060288152602001615d7860289139613356565b60005b8251811015610d6b576000838281518110612bb957612bb9615769565b6020908102919091018101516001600160e01b031981166000908152918590526040909120549091506001600160a01b0316308103612c0d5781604051632901806d60e11b815260040161033f91906142d2565b856001600160a01b0316816001600160a01b031603612c415781604051631ac6ce8d60e11b815260040161033f91906142d2565b6001600160a01b038116612c6a5781604051637479f93960e01b815260040161033f91906142d2565b506001600160e01b031916600090815260208390526040902080546001600160a01b0319166001600160a01b03861617905580612ca681615344565b915050612b9c565b6000612cb8613344565b60018101549091506001600160a01b03841615612cea578360405163d091bc8160e01b815260040161033f9190614492565b60005b8351811015610f5a576000848281518110612d0a57612d0a615769565b6020908102919091018101516001600160e01b0319811660009081528683526040908190208151808301909252546001600160a01b038116808352600160a01b90910461ffff169382019390935290925090612d7b5781604051637a08a22d60e01b815260040161033f91906142d2565b8051306001600160a01b0390911603612da95781604051630df5fd6160e31b815260040161033f91906142d2565b83612db3816158ef565b94505083816020015161ffff1614612e91576000856001018581548110612ddc57612ddc615769565b90600052602060002090600891828204019190066004029054906101000a900460e01b90508086600101836020015161ffff1681548110612e1f57612e1f615769565b600091825260208083206008830401805463ffffffff60079094166004026101000a938402191660e09590951c92909202939093179055838201516001600160e01b03199390931681529087905260409020805461ffff60a01b1916600160a01b61ffff909316929092029190911790555b84600101805480612ea457612ea4615906565b60008281526020808220600860001990940193840401805463ffffffff600460078716026101000a0219169055919092556001600160e01b0319909316815291859052506040902080546001600160b01b031916905580612f0481615344565b915050612ced565b6001600160a01b038216612f3557806040516302b8da0760e21b815260040161033f9190615899565b6000612f3f613344565b9050612f63836040518060600160405280602581526020016159c160259139613356565b600082516001600160401b03811115612f7e57612f7e6144a6565b604051908082528060200260200182016040528015612fa7578160200160208202803683370190505b50905060008084516001600160401b03811115612fc657612fc66144a6565b604051908082528060200260200182016040528015612fef578160200160208202803683370190505b5090506000805b86518110156130ec57600087828151811061301357613013615769565b6020908102919091018101516001600160e01b031981166000908152918990526040909120549091506001600160a01b0316806130865781878761305681615344565b98508151811061306857613068615769565b6001600160e01b0319909216602092830291909101909101526130d7565b896001600160a01b0316816001600160a01b0316146130d7578185856130ab81615344565b9650815181106130bd576130bd615769565b6001600160e01b0319909216602092830291909101909101525b505080806130e490615344565b915050612ff6565b508215613106576131068761310186866133a4565b6129a1565b801561311f5761311f8761311a84846133a4565b612b42565b50505050505050565b6001600160a01b03821661313a575050565b61315c82604051806060016040528060288152602001615a9860289139613356565b600080836001600160a01b031683604051613177919061591c565b600060405180830381855af49150503d80600081146131b2576040519150601f19603f3d011682016040523d82523d6000602084013e6131b7565b606091505b509150915081610d6b578051156131d15780518082602001fd5b838360405163192105d760e01b815260040161033f929190615938565b6131f78161205f565b6132595760405162461bcd60e51b815260206004820152602d60248201527f455243313936373a206e657720696d706c656d656e746174696f6e206973206e60448201526c1bdd08184818dbdb9d1c9858dd609a1b606482015260840161033f565b600080516020615bd583398151915280546001600160a01b0319166001600160a01b0392909216919091179055565b61329183613456565b60008251118061329e5750805b15610d5e57610d6b8383613496565b6000763d602d80600a3d3981f3363d3d373d3d3d363d730000008360601b60e81c176000526e5af43d82803e903d91602b57fd5bf38360781b1760205281603760096000f590506001600160a01b038116610d375760405162461bcd60e51b8152602060048201526017602482015276115490cc4c4d8dce8818dc99585d194c8819985a5b1959604a1b604482015260640161033f565b6000805160206159e683398151915290565b813b6000819003610d5e57828260405163919834b960e01b815260040161033f929190615938565b6060600061338b836134bb565b80519091501561339b5792915050565b61158a83613ffa565b60606000826001600160401b038111156133c0576133c06144a6565b6040519080825280602002602001820160405280156133e9578160200160208202803683370190505b50905060005b8381101561344e5784818151811061340957613409615769565b602002602001015182828151811061342357613423615769565b6001600160e01b0319909216602092830291909101909101528061344681615344565b9150506133ef565b509392505050565b61345f816131ee565b6040516001600160a01b038216907fbc7cd75a20ee27fd9adebab32041f755214dbc6bffa90cc0225b39da2e5c2d3b90600090a250565b606061158a8383604051806060016040528060278152602001615cae602791396141be565b6060630a920ceb60e21b6001600160e01b031983160161350b57505060408051808201909152601a815279435641646d696e46616365742e736574506f6f6c506172616d7360301b602082015290565b631b6c663f60e21b6001600160e01b03198316016135425760405180606001604052806021815260200161597f6021913992915050565b630e5b638560e21b6001600160e01b031983160161357957604051806060016040528060248152602001615ae66024913992915050565b630435b7c160e21b6001600160e01b03198316016135c757505060408051808201909152601a8152794356416c6c6f636174696f6e46616365742e616c6c6f6361746560301b602082015290565b63f590f11760e01b6001600160e01b031983160161361757505060408051808201909152601c81527b4356416c6c6f636174696f6e46616365742e6469737472696275746560201b602082015290565b6312fa9a4560e21b6001600160e01b031983160161366857505060408051808201909152601e81527f43564469737075746546616365742e6469737075746550726f706f73616c0000602082015290565b636772c9d560e11b6001600160e01b03198316016136af57505060408051808201909152601381527243564469737075746546616365742e72756c6560681b602082015290565b63d12fb4d560e01b6001600160e01b03198316016136fd57505060408051808201909152601a81527921ab2837bbb2b92330b1b2ba173232b1b932b0b9b2a837bbb2b960311b602082015290565b63e220e1dd60e01b6001600160e01b031983160161374e57505060408051808201909152601f81527f4356506f77657246616365742e64656163746976617465506f696e7473282900602082015290565b6326eb098f60e21b6001600160e01b031983160161378557604051806060016040528060268152602001615d266026913992915050565b636a20f9a960e11b6001600160e01b03198316016137bc576040518060600160405280602181526020016159a06021913992915050565b631f57090b60e01b6001600160e01b031983160161380d57505060408051808201909152601e81527f435650726f706f73616c46616365742e63616e63656c50726f706f73616c0000602082015290565b631d7c389960e31b6001600160e01b031983160161385d57505060408051808201909152601c81527b10d5941c9bdc1bdcd85b119858d95d0b99591a5d141c9bdc1bdcd85b60221b602082015290565b63392383c760e21b6001600160e01b031983160161389457604051806060016040528060258152602001615c896025913992915050565b632796476360e11b6001600160e01b03198316016138cb576040518060600160405280602c8152602001615d4c602c913992915050565b63cbe69cab60e01b6001600160e01b031983160161391b57505060408051808201909152601c81527b5265676973747279436f6d6d756e6974792e696e697469616c697a6560201b602082015290565b63b6653a8160e01b6001600160e01b031983160161395257604051806080016040528060518152602001615cd56051913992915050565b631954d92960e11b6001600160e01b031983160161398957604051806080016040528060598152602001615b0a6059913992915050565b637a7e223360e11b6001600160e01b03198316016139da57505060408051808201909152601d81527f5265676973747279436f6d6d756e6974792e7365744172636869766564000000602082015290565b63f2b574b760e01b6001600160e01b0319831601613a11576040518060600160405280602a8152602001615da0602a913992915050565b63dd43066760e01b6001600160e01b0319831601613a48576040518060600160405280602c8152602001615b63602c913992915050565b63aa621fa360e01b6001600160e01b0319831601613a9957505060408051808201909152601f81527f5265676973747279436f6d6d756e6974792e696e637265617365506f77657200602082015290565b63a1308e3b60e01b6001600160e01b0319831601613aea57505060408051808201909152601f81527f5265676973747279436f6d6d756e6974792e6465637265617365506f77657200602082015290565b6387e811b160e01b6001600160e01b0319831601613b21576040518060600160405280602a8152602001615e15602a913992915050565b6369cf71db60e11b6001600160e01b0319831601613b5857604051806060016040528060278152602001615dca6027913992915050565b637d295e1960e01b6001600160e01b0319831601613b8f57604051806060016040528060258152602001615a066025913992915050565b63ddc1ab8760e01b6001600160e01b0319831601613be057505060408051808201909152601d81527f5265676973747279436f6d6d756e6974792e6164645374726174656779000000602082015290565b6304e096e960e01b6001600160e01b0319831601613c3057505060408051808201909152601c81527b149959da5cdd1c9e50dbdb5b5d5b9a5d1e4b9c995a9958dd141bdbdb60221b602082015290565b638cd9a3c960e01b6001600160e01b0319831601613c6757604051806060016040528060288152602001615c616028913992915050565b631d15cee360e31b6001600160e01b0319831601613cb85750506040805180820190915260208082527f5265676973747279436f6d6d756e6974792e72656d6f766553747261746567799082015290565b63c681dabd60e01b6001600160e01b0319831601613d095750506040805180820190915260208082527f5265676973747279436f6d6d756e6974792e736574436f756e63696c536166659082015290565b6304afa73b60e41b6001600160e01b0319831601613d4057604051806060016040528060238152602001615c1d6023913992915050565b631773ceb760e21b6001600160e01b0319831601613d8e57505060408051808201909152601a8152792932b3b4b9ba393ca1b7b6b6bab734ba3c9734b9a6b2b6b132b960311b602082015290565b6332f05c8f60e11b6001600160e01b0319831601613dc557604051806060016040528060288152602001615bf56028913992915050565b63d73cf61760e01b6001600160e01b0319831601613dfc57604051806060016040528060288152602001615a2b6028913992915050565b633f33b1f160e21b6001600160e01b0319831601613e3357604051806060016040528060268152602001615b8f6026913992915050565b636704f21b60e11b6001600160e01b0319831601613e6a57604051806060016040528060268152602001615ac06026913992915050565b630d288b1960e01b6001600160e01b0319831601613ea157604051806060016040528060248152602001615df16024913992915050565b63f2ed442560e01b6001600160e01b0319831601613ed857604051806060016040528060218152602001615a536021913992915050565b630a1411d760e11b6001600160e01b0319831601613f0f57604051806060016040528060218152602001615c406021913992915050565b6304664bc960e41b6001600160e01b0319831601613f465760405180606001604052806022815260200161595d6022913992915050565b63978e14b360e01b6001600160e01b0319831601613f9657505060408051808201909152601c81527b2932b3b4b9ba393ca1b7b6b6bab734ba3c9735b4b1b5a6b2b6b132b960211b602082015290565b63381b38f960e21b6001600160e01b0319831601613fe657505060408051808201909152601c81527b149959da5cdd1c9e50dbdb5b5d5b9a5d1e4b991a585b5bdb9910dd5d60221b602082015290565b505060408051602081019091526000815290565b604080518082018252601081526f181899199a1a9b1b9c1cb0b131b232b360811b60208201528151600a80825281840190935260609260009190602082018180368337019050509050600360fc1b8160008151811061405b5761405b615769565b60200101906001600160f81b031916908160001a905350600f60fb1b8160018151811061408a5761408a615769565b60200101906001600160f81b031916908160001a90535060005b600481101561344e578260048683600481106140c2576140c2615769565b1a60f81b6001600160f81b031916901c60f81c60ff16815181106140e8576140e8615769565b01602001516001600160f81b031916826141038360026151ea565b61410e906002615201565b8151811061411e5761411e615769565b60200101906001600160f81b031916908160001a9053508285826004811061414857614148615769565b825191901a600f1690811061415f5761415f615769565b01602001516001600160f81b0319168261417a8360026151ea565b614185906003615201565b8151811061419557614195615769565b60200101906001600160f81b031916908160001a905350806141b681615344565b9150506140a4565b6060600080856001600160a01b0316856040516141db919061591c565b600060405180830381855af49150503d8060008114614216576040519150601f19603f3d011682016040523d82523d6000602084013e61421b565b606091505b509150915061422c86838387614236565b9695505050505050565b606083156142a357825160000361429c576142508561205f565b61429c5760405162461bcd60e51b815260206004820152601d60248201527f416464726573733a2063616c6c20746f206e6f6e2d636f6e7472616374000000604482015260640161033f565b50816127e4565b6127e483838151156142b85781518083602001fd5b8060405162461bcd60e51b815260040161033f91906152a2565b6001600160e01b031991909116815260200190565b6000602082840312156142f957600080fd5b5035919050565b6001600160a01b03169052565b634e487b7160e01b600052602160045260246000fd5b600781106143335761433361430d565b9052565b60005b8381101561435257818101518382015260200161433a565b50506000910152565b60008151808452614373816020860160208601614337565b601f01601f19169290920160200192915050565b8051825260006020820151604060208501526127e4604085018261435b565b8e8152602081018e9052604081018d9052606081018c90526001600160a01b038b811660808301528a1660a082015260006143e460c083018b614300565b8860e08301526143f8610100830189614323565b61020061012083015261440f610200830188614387565b865161014084015260208701516101608401526040909601516001600160a01b0316610180830152506101a08101939093526101c08301919091526101e0909101529a9950505050505050505050565b80356001600160e01b03198116811461198e57600080fd5b60006020828403121561448957600080fd5b61158a8261445f565b6001600160a01b0391909116815260200190565b634e487b7160e01b600052604160045260246000fd5b604080519081016001600160401b03811182821017156144de576144de6144a6565b60405290565b604051608081016001600160401b03811182821017156144de576144de6144a6565b60405160c081016001600160401b03811182821017156144de576144de6144a6565b604051606081016001600160401b03811182821017156144de576144de6144a6565b60405161014081016001600160401b03811182821017156144de576144de6144a6565b604051601f8201601f191681016001600160401b0381118282101715614595576145956144a6565b604052919050565b60006001600160401b038211156145b6576145b66144a6565b5060051b60200190565b6001600160a01b038116811461103c57600080fd5b803561198e816145c0565b600082601f8301126145f157600080fd5b813560206146066146018361459d565b61456d565b82815260059290921b8401810191818101908684111561462557600080fd5b8286015b8481101561464957803561463c816145c0565b8352918301918301614629565b509695505050505050565b60006001600160401b0382111561466d5761466d6144a6565b50601f01601f191660200190565b600082601f83011261468c57600080fd5b813561469a61460182614654565b8181528460208386010111156146af57600080fd5b816020850160208301376000918101602001919091529392505050565b6000806000606084860312156146e157600080fd5b83356001600160401b03808211156146f857600080fd5b614704878388016145e0565b9450602086013591508082111561471a57600080fd5b506147278682870161467b565b9250506040840135614738816145c0565b809150509250925092565b6000806000806080858703121561475957600080fd5b8435935060208501356001600160401b038082111561477757600080fd5b908601906040828903121561478b57600080fd5b6147936144bc565b823581526020830135828111156147a957600080fd5b6147b58a82860161467b565b6020830152509450505060408501356147cd816145c0565b9396929550929360600135925050565b6000806000606084860312156147f257600080fd5b83356147fd816145c0565b9250602084013561480d816145c0565b91506040840135614738816145c0565b60008083601f84011261482f57600080fd5b5081356001600160401b0381111561484657600080fd5b60208301915083602082850101111561299a57600080fd5b60008060008060006060868803121561487657600080fd5b85356001600160401b038082111561488d57600080fd5b818801915088601f8301126148a157600080fd5b8135818111156148b057600080fd5b8960208260051b85010111156148c557600080fd5b602083019750809650506148db602089016145d5565b945060408801359150808211156148f157600080fd5b506148fe8882890161481d565b969995985093965092949392505050565b93845260208401929092526040830152606082015260800190565b6000806040838503121561493d57600080fd5b82356001600160401b0381111561495357600080fd5b61495f8582860161467b565b9250506020830135614970816145c0565b809150509250929050565b6004811061103c5761103c61430d565b6143338161497b565b602081016149a18361497b565b91905290565b600080604083850312156149ba57600080fd5b82356149c5816145c0565b946020939093013593505050565b600080604083850312156149e657600080fd5b50508035926020909101359150565b600381106143335761433361430d565b60208101610d3782846149f5565b600060208284031215614a2557600080fd5b813561158a816145c0565b60008060408385031215614a4357600080fd5b8235614a4e816145c0565b915060208301356001600160401b03811115614a6957600080fd5b614a758582860161467b565b9150509250929050565b600080600060608486031215614a9457600080fd5b8335614a9f816145c0565b925060208401356001600160401b03811115614aba57600080fd5b6147278682870161467b565b600080600080600060608688031215614ade57600080fd5b8535945060208601356001600160401b0380821115614afc57600080fd5b614b0889838a0161481d565b909650945060408801359150808211156148f157600080fd5b801515811461103c57600080fd5b600060208284031215614b4157600080fd5b813561158a81614b21565b6001600160a01b038d811682528c811660208301528b166040820152606081018a9052608081018990526101808101614b8860a083018a614323565b8760c08301528660e0830152856101008301528461012083015283610140830152826101608301529d9c50505050505050505050505050565b600060808284031215614bd357600080fd5b614bdb6144e4565b90508135815260208201356020820152604082013560408201526060820135606082015292915050565b6000806000806000808688036101c0811215614c2057600080fd5b60c0811215614c2e57600080fd5b50614c37614506565b8735614c42816145c0565b81526020880135614c52816145c0565b8060208301525060408801356040820152606088013560608201526080880135608082015260a088013560a082015280965050614c928860c08901614bc1565b945061014087013593506101608701356001600160401b0380821115614cb757600080fd5b614cc38a838b016145e0565b9450610180890135915080821115614cda57600080fd5b50614ce789828a016145e0565b925050614cf76101a088016145d5565b90509295509295509295565b60008060408385031215614d1657600080fd5b823591506020830135614970816145c0565b60008060408385031215614d3b57600080fd5b8235915060208301356001600160401b03811115614a6957600080fd5b600181811c90821680614d6c57607f821691505b602082108103614d8c57634e487b7160e01b600052602260045260246000fd5b50919050565b6004811061103c57600080fd5b6000614dad6146018461459d565b83815260208082019190600586811b860136811115614dcb57600080fd5b865b81811015614ebd5780356001600160401b0380821115614ded5760008081fd5b818a01915060608236031215614e035760008081fd5b614e0b614528565b8235614e16816145c0565b815282870135614e2581614d92565b8188015260408381013583811115614e3d5760008081fd5b939093019236601f850112614e5457600092508283fd5b83359250614e646146018461459d565b83815292871b84018801928881019036851115614e815760008081fd5b948901945b84861015614ea657614e978661445f565b82529489019490890190614e86565b918301919091525088525050948301948301614dcd565b5092979650505050505050565b6020808252602c90820152600080516020615bb583398151915260408201526b19195b1959d85d1958d85b1b60a21b606082015260800190565b6020808252602c90820152600080516020615bb583398151915260408201526b6163746976652070726f787960a01b606082015260800190565b805161198e816145c0565b60006020808385031215614f5c57600080fd5b82516001600160401b0380821115614f7357600080fd5b9084019060c08287031215614f8757600080fd5b614f8f614506565b8251815283830151614fa0816145c0565b818501526040830151614fb2816145c0565b6040820152606083015182811115614fc957600080fd5b830160408189031215614fdb57600080fd5b614fe36144bc565b815181528582015184811115614ff857600080fd5b82019350601f8401891361500b57600080fd5b8351915061501b61460183614654565b828152898784870101111561502f57600080fd5b61503e83888301898801614337565b95810195909552506060810193909352506080818101519083015260a090810151908201529392505050565b60006020828403121561507c57600080fd5b5051919050565b60006020828403121561509557600080fd5b815160ff8116811461158a57600080fd5b634e487b7160e01b600052601160045260246000fd5b60ff8281168282160390811115610d3757610d376150a6565b600181815b808511156151105781600019048211156150f6576150f66150a6565b8085161561510357918102915b93841c93908002906150da565b509250929050565b60008261512757506001610d37565b8161513457506000610d37565b816001811461514a576002811461515457615170565b6001915050610d37565b60ff841115615165576151656150a6565b50506001821b610d37565b5060208310610133831016604e8410600b8410161715615193575081810a610d37565b61519d83836150d5565b80600019048211156151b1576151b16150a6565b029392505050565b600061158a60ff841683615118565b6000826151e557634e487b7160e01b600052601260045260246000fd5b500490565b8082028115828204841417610d3757610d376150a6565b80820180821115610d3757610d376150a6565b968752602087019590955260408601939093526060850191909152608084015260a083015260c082015260e00190565b81810381811115610d3757610d376150a6565b6020808252602b908201527f496e697469616c697a61626c653a20636f6e7472616374206973206e6f74206960408201526a6e697469616c697a696e6760a81b606082015260800190565b60208152600061158a602083018461435b565b6001600160a01b038681168252851660208201526040810184905260a081016152dd8461497b565b6060820193909352608001529392505050565b6001600160a01b0392831681529116602082015260400190565b60006020828403121561531c57600080fd5b815161158a81614b21565b60006020828403121561533957600080fd5b815161158a816145c0565b600060018201615356576153566150a6565b5060010190565b60006080828403121561536f57600080fd5b6153776144e4565b90508151815260208201516020820152604082015160408201526060820151606082015292915050565b80516003811061198e57600080fd5b805161198e81614d92565b6000602082840312156153cd57600080fd5b604051602081016001600160401b03811182821017156153ef576153ef6144a6565b6040529151825250919050565b600060c0828403121561540e57600080fd5b615416614506565b90508151615423816145c0565b81526020820151615433816145c0565b8060208301525060408201516040820152606082015160608201526080820151608082015260a082015160a082015292915050565b600082601f83011261547957600080fd5b815160206154896146018361459d565b82815260059290921b840181019181810190868411156154a857600080fd5b8286015b848110156146495780516154bf816145c0565b83529183019183016154ac565b6000602082840312156154de57600080fd5b81516001600160401b03808211156154f557600080fd5b90830190610240828603121561550a57600080fd5b61551261454a565b61551c868461535d565b815261552a608084016153a1565b602082015261553b60a084016153b0565b604082015261554d8660c085016153bb565b606082015261555f8660e085016153fc565b60808201526155716101a08401614f3e565b60a08201526155836101c08401614f3e565b60c08201526101e083015160e0820152610200830151828111156155a657600080fd5b6155b287828601615468565b610100830152506155c66102208401614f3e565b61012082015295945050505050565b805182526020810151602083015260408101516040830152606081015160608301525050565b600081518084526020808501945080840160005b838110156156345781516001600160a01b03168752958201959082019060010161560f565b509495945050505050565b828152604060208201526156576040820183516155d5565b6000602083015161566b60c08401826149f5565b50604083015161567e60e084018261498b565b50606083015161010061569381850183519052565b60808581015180516001600160a01b0390811661012088810191909152602083015190911661014088015260408201516101608801526060820151610180880152918101516101a087015260a0908101516101c087015286015192506156fd6101e0860184614300565b60c08601519250615712610200860184614300565b60e08601516102208601528186015192506102409150818286015261573b6102808601846155fb565b925080860151915050615752610260850182614300565b50949350505050565b60808101610d3782846155d5565b634e487b7160e01b600052603260045260246000fd5b600081518084526020808501945080840160005b838110156156345781516001600160e01b03191687529582019590820190600101615793565b6000606080830181845280875180835260808601915060808160051b87010192506020808a0160005b8381101561583e57888603607f19018552815180516001600160a01b031687528381015161580f8161497b565b8785015260409081015190870188905261582b8888018261577f565b96505093820193908201906001016157e2565b505061584c8188018a614300565b5050508381036040850152615861818661435b565b979650505050505050565b9182526001600160a01b0316602082015260400190565b634e487b7160e01b600052600160045260246000fd5b60208152600061158a602083018461577f565b63ffffffff60e01b831681526040602082015260006127e4604083018461435b565b600061ffff8083168181036158e5576158e56150a6565b6001019392505050565b6000816158fe576158fe6150a6565b506000190190565b634e487b7160e01b600052603160045260246000fd5b6000825161592e818460208701614337565b9190910192915050565b6001600160a01b03831681526040602082018190526000906127e49083018461435b56fe5265676973747279436f6d6d756e6974792e756e72656769737465724d656d626572435641646d696e46616365742e636f6e6e6563745375706572666c756964474441435650726f706f73616c46616365742e7265676973746572526563697069656e744c69624469616d6f6e644375743a204175746f20666163657420686173206e6f20636f6465c8fcad8db84d3cc18b4c41d551ea0ee66dd599cde068d998e57d5e09332c131c5265676973747279436f6d6d756e6974792e61646453747261746567794279506f6f6c49645265676973747279436f6d6d756e6974792e6765745374616b65416d6f756e7457697468466565735265676973747279436f6d6d756e6974792e736574436f6d6d756e6974794665654c69624469616d6f6e644375743a2041646420666163657420686173206e6f20636f64654c69624469616d6f6e644375743a205f696e6974206164647265737320686173206e6f20636f64655265676973747279436f6d6d756e6974792e73657442617369735374616b6564416d6f756e74435641646d696e46616365742e646973636f6e6e6563745375706572666c7569644744415265676973747279436f6d6d756e6974792e637265617465506f6f6c28616464726573732c616464726573732c2843565374726174656779496e697469616c697a65506172616d7356305f32292c284d6574616461746129295265676973747279436f6d6d756e6974792e646561637469766174654d656d626572496e53747261746567795265676973747279436f6d6d756e6974792e67657442617369735374616b6564416d6f756e7446756e6374696f6e206d7573742062652063616c6c6564207468726f75676820360894a13ba1a3210667c828492db98dca3e2076cc3735a920a3ca505d382bbc5265676973747279436f6d6d756e6974792e7374616b65416e6452656769737465724d656d6265725265676973747279436f6d6d756e6974792e616363657074436f756e63696c536166655265676973747279436f6d6d756e6974792e6973436f756e63696c4d656d6265725265676973747279436f6d6d756e6974792e72656d6f766553747261746567794279506f6f6c49645265676973747279436f6d6d756e6974792e736574537472617465677954656d706c617465416464726573733a206c6f772d6c6576656c2064656c65676174652063616c6c206661696c65645265676973747279436f6d6d756e6974792e637265617465506f6f6c28616464726573732c2843565374726174656779496e697469616c697a65506172616d7356305f32292c284d6574616461746129294356506f77657246616365742e64656163746976617465506f696e74732861646472657373295265676973747279436f6d6d756e6974792e736574436f6c6c61746572616c5661756c7454656d706c6174654c69624469616d6f6e644375743a205265706c61636520666163657420686173206e6f20636f64655265676973747279436f6d6d756e6974792e61637469766174654d656d626572496e53747261746567795265676973747279436f6d6d756e6974792e6765744d656d6265725374616b6564416d6f756e745265676973747279436f6d6d756e6974792e736574436f6d6d756e697479506172616d735265676973747279436f6d6d756e6974792e6765744d656d626572506f776572496e5374726174656779a164736f6c6343000813000a","linkReferences":{"pkg/contracts/src/CVStrategy/ConvictionsUtils.sol":{"ConvictionsUtils":[{"start":5268,"length":20},{"start":5441,"length":20},{"start":6797,"length":20},{"start":10575,"length":20}]},"pkg/contracts/src/CVStrategy/PowerManagementUtils.sol":{"PowerManagementUtils":[{"start":5803,"length":20}]}}},"methodIdentifiers":{"DISPUTE_COOLDOWN_SEC()":"f5be3f7c","NATIVE()":"a0cf0aea","RULING_OPTIONS()":"626c47e8","activatePoints()":"814516ad","allocate(bytes,address)":"ef2920fc","arbitrableConfigs(uint256)":"41bb7605","calculateProposalConviction(uint256)":"60b0645a","calculateThreshold(uint256)":"59a5db8b","cancelProposal(uint256)":"e0a8f6f5","cloneNonce()":"33960459","collateralVault()":"0bece79c","connectSuperfluidGDA(address)":"924e6704","currentArbitrableConfigVersion()":"125fd1d9","cvParams()":"2506b870","deactivatePoints()":"1ddf1e23","deactivatePoints(address)":"6453d9c4","decreasePower(address,uint256)":"2ed04b2b","diamondCut((address,uint8,bytes4[])[],address,bytes)":"1f931c1c","disconnectSuperfluidGDA(address)":"c69271ec","disputeCount()":"a28889e1","disputeIdToProposalId(uint256)":"255ffb38","disputeProposal(uint256,string,bytes)":"b41596ec","distribute(address[],bytes,address)":"0a6f0ee9","editProposal(uint256,(uint256,string),address,uint256)":"141e3b38","getAllo()":"15cc481e","getArbitrableConfig()":"059351cd","getPointSystem()":"c3292171","getPoolAmount()":"4ab4ba42","getPoolId()":"38fff2d0","getProposal(uint256)":"c7f758a8","getProposalStakedAmount(uint256)":"dc96ff2d","getProposalVoterStake(uint256,address)":"e0dd2c38","increasePower(address,uint256)":"782aadff","init(address,address,address)":"184b9559","init(address,string,address)":"60d5dedc","initialize(address)":"c4d66de8","initialize(uint256,bytes)":"edd146cc","isPoolActive()":"df868ed3","owner()":"8da5cb5b","pointConfig()":"a47ff7e5","pointSystem()":"2dbd6fdd","proposalCounter()":"0c0512e9","proposalType()":"351d9f96","proposals(uint256)":"013cf08b","proxiableUUID()":"52d1902d","proxyOwner()":"025313a2","registerRecipient(bytes,address)":"2bbe0cae","registryCommunity()":"6003e414","renounceOwnership()":"715018a6","rule(uint256,uint256)":"311a6c56","setCollateralVaultTemplate(address)":"b0d3713a","setPoolActive(bool)":"b5f620ce","setPoolParams((address,address,uint256,uint256,uint256,uint256),(uint256,uint256,uint256,uint256),uint256,address[],address[],address)":"d5b7cc54","superfluidToken()":"05caa7f3","supportsInterface(bytes4)":"01ffc9a7","sybilScorer()":"b6c61f31","totalPointsActivated()":"aba9ffee","totalStaked()":"817b1cd2","totalVoterStakePct(address)":"5db64b99","transferOwnership(address)":"f2fde38b","updateProposalConviction(uint256)":"1aa91a9e","upgradeTo(address)":"3659cfe6","upgradeToAndCall(address,bytes)":"4f1ef286","voterStakedProposals(address,uint256)":"868c57b8"},"storageLayout":{"storage":[{"astId":52222,"contract":"pkg/contracts/src/CVStrategy/CVStrategy.sol:CVStrategy","label":"_initialized","offset":0,"slot":"0","type":"t_uint8"},{"astId":52225,"contract":"pkg/contracts/src/CVStrategy/CVStrategy.sol:CVStrategy","label":"_initializing","offset":1,"slot":"0","type":"t_bool"},{"astId":52927,"contract":"pkg/contracts/src/CVStrategy/CVStrategy.sol:CVStrategy","label":"__gap","offset":0,"slot":"1","type":"t_array(t_uint256)50_storage"},{"astId":52014,"contract":"pkg/contracts/src/CVStrategy/CVStrategy.sol:CVStrategy","label":"_owner","offset":0,"slot":"51","type":"t_address"},{"astId":52134,"contract":"pkg/contracts/src/CVStrategy/CVStrategy.sol:CVStrategy","label":"__gap","offset":0,"slot":"52","type":"t_array(t_uint256)49_storage"},{"astId":74160,"contract":"pkg/contracts/src/CVStrategy/CVStrategy.sol:CVStrategy","label":"allo","offset":0,"slot":"101","type":"t_contract(IAllo)2629"},{"astId":74162,"contract":"pkg/contracts/src/CVStrategy/CVStrategy.sol:CVStrategy","label":"strategyId","offset":0,"slot":"102","type":"t_bytes32"},{"astId":74164,"contract":"pkg/contracts/src/CVStrategy/CVStrategy.sol:CVStrategy","label":"poolActive","offset":0,"slot":"103","type":"t_bool"},{"astId":74166,"contract":"pkg/contracts/src/CVStrategy/CVStrategy.sol:CVStrategy","label":"poolId","offset":0,"slot":"104","type":"t_uint256"},{"astId":74168,"contract":"pkg/contracts/src/CVStrategy/CVStrategy.sol:CVStrategy","label":"poolAmount","offset":0,"slot":"105","type":"t_uint256"},{"astId":74725,"contract":"pkg/contracts/src/CVStrategy/CVStrategy.sol:CVStrategy","label":"collateralVaultTemplate","offset":0,"slot":"106","type":"t_address"},{"astId":74727,"contract":"pkg/contracts/src/CVStrategy/CVStrategy.sol:CVStrategy","label":"surpressStateMutabilityWarning","offset":0,"slot":"107","type":"t_uint256"},{"astId":74729,"contract":"pkg/contracts/src/CVStrategy/CVStrategy.sol:CVStrategy","label":"cloneNonce","offset":0,"slot":"108","type":"t_uint256"},{"astId":74731,"contract":"pkg/contracts/src/CVStrategy/CVStrategy.sol:CVStrategy","label":"disputeCount","offset":0,"slot":"109","type":"t_uint64"},{"astId":74733,"contract":"pkg/contracts/src/CVStrategy/CVStrategy.sol:CVStrategy","label":"proposalCounter","offset":0,"slot":"110","type":"t_uint256"},{"astId":74735,"contract":"pkg/contracts/src/CVStrategy/CVStrategy.sol:CVStrategy","label":"currentArbitrableConfigVersion","offset":0,"slot":"111","type":"t_uint256"},{"astId":74737,"contract":"pkg/contracts/src/CVStrategy/CVStrategy.sol:CVStrategy","label":"totalStaked","offset":0,"slot":"112","type":"t_uint256"},{"astId":74739,"contract":"pkg/contracts/src/CVStrategy/CVStrategy.sol:CVStrategy","label":"totalPointsActivated","offset":0,"slot":"113","type":"t_uint256"},{"astId":74742,"contract":"pkg/contracts/src/CVStrategy/CVStrategy.sol:CVStrategy","label":"cvParams","offset":0,"slot":"114","type":"t_struct(CVParams)77056_storage"},{"astId":74745,"contract":"pkg/contracts/src/CVStrategy/CVStrategy.sol:CVStrategy","label":"proposalType","offset":0,"slot":"118","type":"t_enum(ProposalType)76957"},{"astId":74748,"contract":"pkg/contracts/src/CVStrategy/CVStrategy.sol:CVStrategy","label":"pointSystem","offset":1,"slot":"118","type":"t_enum(PointSystem)76962"},{"astId":74751,"contract":"pkg/contracts/src/CVStrategy/CVStrategy.sol:CVStrategy","label":"pointConfig","offset":0,"slot":"119","type":"t_struct(PointSystemConfig)77033_storage"},{"astId":74754,"contract":"pkg/contracts/src/CVStrategy/CVStrategy.sol:CVStrategy","label":"registryCommunity","offset":0,"slot":"120","type":"t_contract(RegistryCommunity)83394"},{"astId":74757,"contract":"pkg/contracts/src/CVStrategy/CVStrategy.sol:CVStrategy","label":"collateralVault","offset":0,"slot":"121","type":"t_contract(ICollateralVault)88955"},{"astId":74760,"contract":"pkg/contracts/src/CVStrategy/CVStrategy.sol:CVStrategy","label":"sybilScorer","offset":0,"slot":"122","type":"t_contract(ISybilScorer)81406"},{"astId":74765,"contract":"pkg/contracts/src/CVStrategy/CVStrategy.sol:CVStrategy","label":"proposals","offset":0,"slot":"123","type":"t_mapping(t_uint256,t_struct(Proposal)77025_storage)"},{"astId":74769,"contract":"pkg/contracts/src/CVStrategy/CVStrategy.sol:CVStrategy","label":"totalVoterStakePct","offset":0,"slot":"124","type":"t_mapping(t_address,t_uint256)"},{"astId":74774,"contract":"pkg/contracts/src/CVStrategy/CVStrategy.sol:CVStrategy","label":"voterStakedProposals","offset":0,"slot":"125","type":"t_mapping(t_address,t_array(t_uint256)dyn_storage)"},{"astId":74778,"contract":"pkg/contracts/src/CVStrategy/CVStrategy.sol:CVStrategy","label":"disputeIdToProposalId","offset":0,"slot":"126","type":"t_mapping(t_uint256,t_uint256)"},{"astId":74783,"contract":"pkg/contracts/src/CVStrategy/CVStrategy.sol:CVStrategy","label":"arbitrableConfigs","offset":0,"slot":"127","type":"t_mapping(t_uint256,t_struct(ArbitrableConfig)77047_storage)"},{"astId":74786,"contract":"pkg/contracts/src/CVStrategy/CVStrategy.sol:CVStrategy","label":"superfluidToken","offset":0,"slot":"128","type":"t_contract(ISuperToken)70946"},{"astId":76210,"contract":"pkg/contracts/src/CVStrategy/CVStrategy.sol:CVStrategy","label":"__gap","offset":0,"slot":"129","type":"t_array(t_uint256)49_storage"}],"types":{"t_address":{"encoding":"inplace","label":"address","numberOfBytes":"20"},"t_array(t_uint256)49_storage":{"encoding":"inplace","label":"uint256[49]","numberOfBytes":"1568","base":"t_uint256"},"t_array(t_uint256)50_storage":{"encoding":"inplace","label":"uint256[50]","numberOfBytes":"1600","base":"t_uint256"},"t_array(t_uint256)dyn_storage":{"encoding":"dynamic_array","label":"uint256[]","numberOfBytes":"32","base":"t_uint256"},"t_bool":{"encoding":"inplace","label":"bool","numberOfBytes":"1"},"t_bytes32":{"encoding":"inplace","label":"bytes32","numberOfBytes":"32"},"t_contract(IAllo)2629":{"encoding":"inplace","label":"contract IAllo","numberOfBytes":"20"},"t_contract(IArbitrator)88922":{"encoding":"inplace","label":"contract IArbitrator","numberOfBytes":"20"},"t_contract(ICollateralVault)88955":{"encoding":"inplace","label":"contract ICollateralVault","numberOfBytes":"20"},"t_contract(ISuperToken)70946":{"encoding":"inplace","label":"contract ISuperToken","numberOfBytes":"20"},"t_contract(ISybilScorer)81406":{"encoding":"inplace","label":"contract ISybilScorer","numberOfBytes":"20"},"t_contract(RegistryCommunity)83394":{"encoding":"inplace","label":"contract RegistryCommunity","numberOfBytes":"20"},"t_enum(PointSystem)76962":{"encoding":"inplace","label":"enum PointSystem","numberOfBytes":"1"},"t_enum(ProposalStatus)76982":{"encoding":"inplace","label":"enum ProposalStatus","numberOfBytes":"1"},"t_enum(ProposalType)76957":{"encoding":"inplace","label":"enum ProposalType","numberOfBytes":"1"},"t_mapping(t_address,t_array(t_uint256)dyn_storage)":{"encoding":"mapping","key":"t_address","label":"mapping(address => uint256[])","numberOfBytes":"32","value":"t_array(t_uint256)dyn_storage"},"t_mapping(t_address,t_uint256)":{"encoding":"mapping","key":"t_address","label":"mapping(address => uint256)","numberOfBytes":"32","value":"t_uint256"},"t_mapping(t_uint256,t_struct(ArbitrableConfig)77047_storage)":{"encoding":"mapping","key":"t_uint256","label":"mapping(uint256 => struct ArbitrableConfig)","numberOfBytes":"32","value":"t_struct(ArbitrableConfig)77047_storage"},"t_mapping(t_uint256,t_struct(Proposal)77025_storage)":{"encoding":"mapping","key":"t_uint256","label":"mapping(uint256 => struct Proposal)","numberOfBytes":"32","value":"t_struct(Proposal)77025_storage"},"t_mapping(t_uint256,t_uint256)":{"encoding":"mapping","key":"t_uint256","label":"mapping(uint256 => uint256)","numberOfBytes":"32","value":"t_uint256"},"t_string_storage":{"encoding":"bytes","label":"string","numberOfBytes":"32"},"t_struct(ArbitrableConfig)77047_storage":{"encoding":"inplace","label":"struct ArbitrableConfig","numberOfBytes":"192","members":[{"astId":77036,"contract":"pkg/contracts/src/CVStrategy/CVStrategy.sol:CVStrategy","label":"arbitrator","offset":0,"slot":"0","type":"t_contract(IArbitrator)88922"},{"astId":77038,"contract":"pkg/contracts/src/CVStrategy/CVStrategy.sol:CVStrategy","label":"tribunalSafe","offset":0,"slot":"1","type":"t_address"},{"astId":77040,"contract":"pkg/contracts/src/CVStrategy/CVStrategy.sol:CVStrategy","label":"submitterCollateralAmount","offset":0,"slot":"2","type":"t_uint256"},{"astId":77042,"contract":"pkg/contracts/src/CVStrategy/CVStrategy.sol:CVStrategy","label":"challengerCollateralAmount","offset":0,"slot":"3","type":"t_uint256"},{"astId":77044,"contract":"pkg/contracts/src/CVStrategy/CVStrategy.sol:CVStrategy","label":"defaultRuling","offset":0,"slot":"4","type":"t_uint256"},{"astId":77046,"contract":"pkg/contracts/src/CVStrategy/CVStrategy.sol:CVStrategy","label":"defaultRulingTimeout","offset":0,"slot":"5","type":"t_uint256"}]},"t_struct(CVParams)77056_storage":{"encoding":"inplace","label":"struct CVParams","numberOfBytes":"128","members":[{"astId":77049,"contract":"pkg/contracts/src/CVStrategy/CVStrategy.sol:CVStrategy","label":"maxRatio","offset":0,"slot":"0","type":"t_uint256"},{"astId":77051,"contract":"pkg/contracts/src/CVStrategy/CVStrategy.sol:CVStrategy","label":"weight","offset":0,"slot":"1","type":"t_uint256"},{"astId":77053,"contract":"pkg/contracts/src/CVStrategy/CVStrategy.sol:CVStrategy","label":"decay","offset":0,"slot":"2","type":"t_uint256"},{"astId":77055,"contract":"pkg/contracts/src/CVStrategy/CVStrategy.sol:CVStrategy","label":"minThresholdPoints","offset":0,"slot":"3","type":"t_uint256"}]},"t_struct(Metadata)3080_storage":{"encoding":"inplace","label":"struct Metadata","numberOfBytes":"64","members":[{"astId":3076,"contract":"pkg/contracts/src/CVStrategy/CVStrategy.sol:CVStrategy","label":"protocol","offset":0,"slot":"0","type":"t_uint256"},{"astId":3079,"contract":"pkg/contracts/src/CVStrategy/CVStrategy.sol:CVStrategy","label":"pointer","offset":0,"slot":"1","type":"t_string_storage"}]},"t_struct(PointSystemConfig)77033_storage":{"encoding":"inplace","label":"struct PointSystemConfig","numberOfBytes":"32","members":[{"astId":77032,"contract":"pkg/contracts/src/CVStrategy/CVStrategy.sol:CVStrategy","label":"maxAmount","offset":0,"slot":"0","type":"t_uint256"}]},"t_struct(Proposal)77025_storage":{"encoding":"inplace","label":"struct Proposal","numberOfBytes":"576","members":[{"astId":76991,"contract":"pkg/contracts/src/CVStrategy/CVStrategy.sol:CVStrategy","label":"proposalId","offset":0,"slot":"0","type":"t_uint256"},{"astId":76993,"contract":"pkg/contracts/src/CVStrategy/CVStrategy.sol:CVStrategy","label":"requestedAmount","offset":0,"slot":"1","type":"t_uint256"},{"astId":76995,"contract":"pkg/contracts/src/CVStrategy/CVStrategy.sol:CVStrategy","label":"stakedAmount","offset":0,"slot":"2","type":"t_uint256"},{"astId":76997,"contract":"pkg/contracts/src/CVStrategy/CVStrategy.sol:CVStrategy","label":"convictionLast","offset":0,"slot":"3","type":"t_uint256"},{"astId":76999,"contract":"pkg/contracts/src/CVStrategy/CVStrategy.sol:CVStrategy","label":"beneficiary","offset":0,"slot":"4","type":"t_address"},{"astId":77001,"contract":"pkg/contracts/src/CVStrategy/CVStrategy.sol:CVStrategy","label":"submitter","offset":0,"slot":"5","type":"t_address"},{"astId":77003,"contract":"pkg/contracts/src/CVStrategy/CVStrategy.sol:CVStrategy","label":"requestedToken","offset":0,"slot":"6","type":"t_address"},{"astId":77005,"contract":"pkg/contracts/src/CVStrategy/CVStrategy.sol:CVStrategy","label":"blockLast","offset":0,"slot":"7","type":"t_uint256"},{"astId":77008,"contract":"pkg/contracts/src/CVStrategy/CVStrategy.sol:CVStrategy","label":"proposalStatus","offset":0,"slot":"8","type":"t_enum(ProposalStatus)76982"},{"astId":77012,"contract":"pkg/contracts/src/CVStrategy/CVStrategy.sol:CVStrategy","label":"voterStakedPoints","offset":0,"slot":"9","type":"t_mapping(t_address,t_uint256)"},{"astId":77015,"contract":"pkg/contracts/src/CVStrategy/CVStrategy.sol:CVStrategy","label":"metadata","offset":0,"slot":"10","type":"t_struct(Metadata)3080_storage"},{"astId":77018,"contract":"pkg/contracts/src/CVStrategy/CVStrategy.sol:CVStrategy","label":"disputeInfo","offset":0,"slot":"12","type":"t_struct(ProposalDisputeInfo)76989_storage"},{"astId":77020,"contract":"pkg/contracts/src/CVStrategy/CVStrategy.sol:CVStrategy","label":"lastDisputeCompletion","offset":0,"slot":"15","type":"t_uint256"},{"astId":77022,"contract":"pkg/contracts/src/CVStrategy/CVStrategy.sol:CVStrategy","label":"arbitrableConfigVersion","offset":0,"slot":"16","type":"t_uint256"},{"astId":77024,"contract":"pkg/contracts/src/CVStrategy/CVStrategy.sol:CVStrategy","label":"creationTimestamp","offset":0,"slot":"17","type":"t_uint256"}]},"t_struct(ProposalDisputeInfo)76989_storage":{"encoding":"inplace","label":"struct ProposalDisputeInfo","numberOfBytes":"96","members":[{"astId":76984,"contract":"pkg/contracts/src/CVStrategy/CVStrategy.sol:CVStrategy","label":"disputeId","offset":0,"slot":"0","type":"t_uint256"},{"astId":76986,"contract":"pkg/contracts/src/CVStrategy/CVStrategy.sol:CVStrategy","label":"disputeTimestamp","offset":0,"slot":"1","type":"t_uint256"},{"astId":76988,"contract":"pkg/contracts/src/CVStrategy/CVStrategy.sol:CVStrategy","label":"challenger","offset":0,"slot":"2","type":"t_address"}]},"t_uint256":{"encoding":"inplace","label":"uint256","numberOfBytes":"32"},"t_uint64":{"encoding":"inplace","label":"uint64","numberOfBytes":"8"},"t_uint8":{"encoding":"inplace","label":"uint8","numberOfBytes":"1"}}},"id":119}