{"abi":[{"type":"constructor","inputs":[{"name":"_allo","type":"address","internalType":"address"}],"stateMutability":"nonpayable"},{"type":"fallback","stateMutability":"payable"},{"type":"receive","stateMutability":"payable"},{"type":"function","name":"D","inputs":[],"outputs":[{"name":"","type":"uint256","internalType":"uint256"}],"stateMutability":"view"},{"type":"function","name":"MAX_STAKED_PROPOSALS","inputs":[],"outputs":[{"name":"","type":"uint256","internalType":"uint256"}],"stateMutability":"view"},{"type":"function","name":"NATIVE","inputs":[],"outputs":[{"name":"","type":"address","internalType":"address"}],"stateMutability":"view"},{"type":"function","name":"activatePoints","inputs":[],"outputs":[],"stateMutability":"nonpayable"},{"type":"function","name":"allocate","inputs":[{"name":"_data","type":"bytes","internalType":"bytes"},{"name":"_sender","type":"address","internalType":"address"}],"outputs":[],"stateMutability":"payable"},{"type":"function","name":"calculateConviction","inputs":[{"name":"_timePassed","type":"uint256","internalType":"uint256"},{"name":"_lastConv","type":"uint256","internalType":"uint256"},{"name":"_oldAmount","type":"uint256","internalType":"uint256"}],"outputs":[{"name":"","type":"uint256","internalType":"uint256"}],"stateMutability":"view"},{"type":"function","name":"calculateThreshold","inputs":[{"name":"_requestedAmount","type":"uint256","internalType":"uint256"}],"outputs":[{"name":"_threshold","type":"uint256","internalType":"uint256"}],"stateMutability":"view"},{"type":"function","name":"deactivatePoints","inputs":[],"outputs":[],"stateMutability":"nonpayable"},{"type":"function","name":"decay","inputs":[],"outputs":[{"name":"","type":"uint256","internalType":"uint256"}],"stateMutability":"view"},{"type":"function","name":"distribute","inputs":[{"name":"_recipientIds","type":"address[]","internalType":"address[]"},{"name":"_data","type":"bytes","internalType":"bytes"},{"name":"_sender","type":"address","internalType":"address"}],"outputs":[],"stateMutability":"nonpayable"},{"type":"function","name":"getAllo","inputs":[],"outputs":[{"name":"","type":"address","internalType":"contract IAllo"}],"stateMutability":"view"},{"type":"function","name":"getMaxConviction","inputs":[{"name":"amount","type":"uint256","internalType":"uint256"}],"outputs":[{"name":"","type":"uint256","internalType":"uint256"}],"stateMutability":"view"},{"type":"function","name":"getMetadata","inputs":[{"name":"_proposalId","type":"uint256","internalType":"uint256"}],"outputs":[{"name":"","type":"tuple","internalType":"struct Metadata","components":[{"name":"protocol","type":"uint256","internalType":"uint256"},{"name":"pointer","type":"string","internalType":"string"}]}],"stateMutability":"view"},{"type":"function","name":"getPayouts","inputs":[{"name":"","type":"address[]","internalType":"address[]"},{"name":"","type":"bytes[]","internalType":"bytes[]"}],"outputs":[{"name":"","type":"tuple[]","internalType":"struct IStrategy.PayoutSummary[]","components":[{"name":"recipientAddress","type":"address","internalType":"address"},{"name":"amount","type":"uint256","internalType":"uint256"}]}],"stateMutability":"view"},{"type":"function","name":"getPoolAmount","inputs":[],"outputs":[{"name":"","type":"uint256","internalType":"uint256"}],"stateMutability":"view"},{"type":"function","name":"getPoolId","inputs":[],"outputs":[{"name":"","type":"uint256","internalType":"uint256"}],"stateMutability":"view"},{"type":"function","name":"getProposal","inputs":[{"name":"_proposalId","type":"uint256","internalType":"uint256"}],"outputs":[{"name":"submitter","type":"address","internalType":"address"},{"name":"beneficiary","type":"address","internalType":"address"},{"name":"requestedToken","type":"address","internalType":"address"},{"name":"requestedAmount","type":"uint256","internalType":"uint256"},{"name":"stakedTokens","type":"uint256","internalType":"uint256"},{"name":"proposalType","type":"uint8","internalType":"enum CVStrategy.ProposalType"},{"name":"proposalStatus","type":"uint8","internalType":"enum CVStrategy.ProposalStatus"},{"name":"blockLast","type":"uint256","internalType":"uint256"},{"name":"convictionLast","type":"uint256","internalType":"uint256"},{"name":"agreementActionId","type":"uint256","internalType":"uint256"},{"name":"threshold","type":"uint256","internalType":"uint256"},{"name":"voterStakedPointsPct","type":"uint256","internalType":"uint256"}],"stateMutability":"view"},{"type":"function","name":"getProposalAgreementActionId","inputs":[{"name":"_proposalId","type":"uint256","internalType":"uint256"}],"outputs":[{"name":"","type":"uint256","internalType":"uint256"}],"stateMutability":"view"},{"type":"function","name":"getProposalBeneficiary","inputs":[{"name":"_proposalId","type":"uint256","internalType":"uint256"}],"outputs":[{"name":"","type":"address","internalType":"address"}],"stateMutability":"view"},{"type":"function","name":"getProposalBlockLast","inputs":[{"name":"_proposalId","type":"uint256","internalType":"uint256"}],"outputs":[{"name":"","type":"uint256","internalType":"uint256"}],"stateMutability":"view"},{"type":"function","name":"getProposalConvictionLast","inputs":[{"name":"_proposalId","type":"uint256","internalType":"uint256"}],"outputs":[{"name":"","type":"uint256","internalType":"uint256"}],"stateMutability":"view"},{"type":"function","name":"getProposalRequestedAmount","inputs":[{"name":"_proposalId","type":"uint256","internalType":"uint256"}],"outputs":[{"name":"","type":"uint256","internalType":"uint256"}],"stateMutability":"view"},{"type":"function","name":"getProposalRequestedToken","inputs":[{"name":"_proposalId","type":"uint256","internalType":"uint256"}],"outputs":[{"name":"","type":"address","internalType":"address"}],"stateMutability":"view"},{"type":"function","name":"getProposalStakedAmount","inputs":[{"name":"_proposalId","type":"uint256","internalType":"uint256"}],"outputs":[{"name":"","type":"uint256","internalType":"uint256"}],"stateMutability":"view"},{"type":"function","name":"getProposalStatus","inputs":[{"name":"_proposalId","type":"uint256","internalType":"uint256"}],"outputs":[{"name":"","type":"uint8","internalType":"enum CVStrategy.ProposalStatus"}],"stateMutability":"view"},{"type":"function","name":"getProposalSubmitter","inputs":[{"name":"_proposalId","type":"uint256","internalType":"uint256"}],"outputs":[{"name":"","type":"address","internalType":"address"}],"stateMutability":"view"},{"type":"function","name":"getProposalThreshold","inputs":[{"name":"_proposalId","type":"uint256","internalType":"uint256"}],"outputs":[{"name":"","type":"uint256","internalType":"uint256"}],"stateMutability":"view"},{"type":"function","name":"getProposalType","inputs":[{"name":"_proposalId","type":"uint256","internalType":"uint256"}],"outputs":[{"name":"","type":"uint8","internalType":"enum CVStrategy.ProposalType"}],"stateMutability":"view"},{"type":"function","name":"getProposalVoterStake","inputs":[{"name":"_proposalId","type":"uint256","internalType":"uint256"},{"name":"_voter","type":"address","internalType":"address"}],"outputs":[{"name":"","type":"uint256","internalType":"uint256"}],"stateMutability":"view"},{"type":"function","name":"getProposalVoterStakedAmount","inputs":[{"name":"_proposalId","type":"uint256","internalType":"uint256"},{"name":"_voter","type":"address","internalType":"address"}],"outputs":[{"name":"","type":"uint256","internalType":"uint256"}],"stateMutability":"view"},{"type":"function","name":"getProposalVoterStakedPointsPct","inputs":[{"name":"_proposalId","type":"uint256","internalType":"uint256"},{"name":"_voter","type":"address","internalType":"address"}],"outputs":[{"name":"","type":"uint256","internalType":"uint256"}],"stateMutability":"view"},{"type":"function","name":"getRecipientStatus","inputs":[{"name":"_recipientId","type":"address","internalType":"address"}],"outputs":[{"name":"","type":"uint8","internalType":"enum IStrategy.Status"}],"stateMutability":"view"},{"type":"function","name":"getStrategyId","inputs":[],"outputs":[{"name":"","type":"bytes32","internalType":"bytes32"}],"stateMutability":"view"},{"type":"function","name":"getTotalVoterStakePct","inputs":[{"name":"_voter","type":"address","internalType":"address"}],"outputs":[{"name":"","type":"uint256","internalType":"uint256"}],"stateMutability":"view"},{"type":"function","name":"increasePoolAmount","inputs":[{"name":"_amount","type":"uint256","internalType":"uint256"}],"outputs":[],"stateMutability":"nonpayable"},{"type":"function","name":"initialize","inputs":[{"name":"_poolId","type":"uint256","internalType":"uint256"},{"name":"_data","type":"bytes","internalType":"bytes"}],"outputs":[],"stateMutability":"nonpayable"},{"type":"function","name":"isPoolActive","inputs":[],"outputs":[{"name":"","type":"bool","internalType":"bool"}],"stateMutability":"view"},{"type":"function","name":"isValidAllocator","inputs":[{"name":"_allocator","type":"address","internalType":"address"}],"outputs":[{"name":"","type":"bool","internalType":"bool"}],"stateMutability":"view"},{"type":"function","name":"maxRatio","inputs":[],"outputs":[{"name":"","type":"uint256","internalType":"uint256"}],"stateMutability":"view"},{"type":"function","name":"minPointsActivated","inputs":[],"outputs":[{"name":"","type":"uint256","internalType":"uint256"}],"stateMutability":"view"},{"type":"function","name":"proposalCounter","inputs":[],"outputs":[{"name":"","type":"uint256","internalType":"uint256"}],"stateMutability":"view"},{"type":"function","name":"proposals","inputs":[{"name":"","type":"uint256","internalType":"uint256"}],"outputs":[{"name":"proposalId","type":"uint256","internalType":"uint256"},{"name":"requestedAmount","type":"uint256","internalType":"uint256"},{"name":"stakedAmount","type":"uint256","internalType":"uint256"},{"name":"convictionLast","type":"uint256","internalType":"uint256"},{"name":"agreementActionId","type":"uint256","internalType":"uint256"},{"name":"beneficiary","type":"address","internalType":"address"},{"name":"submitter","type":"address","internalType":"address"},{"name":"requestedToken","type":"address","internalType":"address"},{"name":"blockLast","type":"uint256","internalType":"uint256"},{"name":"proposalStatus","type":"uint8","internalType":"enum CVStrategy.ProposalStatus"},{"name":"proposalType","type":"uint8","internalType":"enum CVStrategy.ProposalType"},{"name":"metadata","type":"tuple","internalType":"struct Metadata","components":[{"name":"protocol","type":"uint256","internalType":"uint256"},{"name":"pointer","type":"string","internalType":"string"}]}],"stateMutability":"view"},{"type":"function","name":"registerRecipient","inputs":[{"name":"_data","type":"bytes","internalType":"bytes"},{"name":"_sender","type":"address","internalType":"address"}],"outputs":[{"name":"recipientId","type":"address","internalType":"address"}],"stateMutability":"payable"},{"type":"function","name":"registryCommunity","inputs":[],"outputs":[{"name":"","type":"address","internalType":"contract RegistryCommunity"}],"stateMutability":"view"},{"type":"function","name":"setDecay","inputs":[{"name":"_decay","type":"uint256","internalType":"uint256"}],"outputs":[],"stateMutability":"nonpayable"},{"type":"function","name":"setMaxRatio","inputs":[{"name":"_maxRatio","type":"uint256","internalType":"uint256"}],"outputs":[],"stateMutability":"nonpayable"},{"type":"function","name":"setPoolActive","inputs":[{"name":"_active","type":"bool","internalType":"bool"}],"outputs":[],"stateMutability":"nonpayable"},{"type":"function","name":"setRegistryCommunity","inputs":[{"name":"_registryCommunity","type":"address","internalType":"address"}],"outputs":[],"stateMutability":"nonpayable"},{"type":"function","name":"setWeight","inputs":[{"name":"_weight","type":"uint256","internalType":"uint256"}],"outputs":[],"stateMutability":"nonpayable"},{"type":"function","name":"supportProposal","inputs":[{"name":"","type":"tuple[]","internalType":"struct CVStrategy.ProposalSupport[]","components":[{"name":"proposalId","type":"uint256","internalType":"uint256"},{"name":"deltaSupport","type":"int256","internalType":"int256"}]}],"outputs":[],"stateMutability":"nonpayable"},{"type":"function","name":"totalEffectiveActivePoints","inputs":[],"outputs":[{"name":"","type":"uint256","internalType":"uint256"}],"stateMutability":"view"},{"type":"function","name":"totalStaked","inputs":[],"outputs":[{"name":"","type":"uint256","internalType":"uint256"}],"stateMutability":"view"},{"type":"function","name":"totalVoterStakePct","inputs":[{"name":"","type":"address","internalType":"address"}],"outputs":[{"name":"","type":"uint256","internalType":"uint256"}],"stateMutability":"view"},{"type":"function","name":"updateProposalConviction","inputs":[{"name":"proposalId","type":"uint256","internalType":"uint256"}],"outputs":[{"name":"","type":"uint256","internalType":"uint256"}],"stateMutability":"nonpayable"},{"type":"function","name":"voterStakedProposals","inputs":[{"name":"","type":"address","internalType":"address"},{"name":"","type":"uint256","internalType":"uint256"}],"outputs":[{"name":"","type":"uint256","internalType":"uint256"}],"stateMutability":"view"},{"type":"function","name":"weight","inputs":[],"outputs":[{"name":"","type":"uint256","internalType":"uint256"}],"stateMutability":"view"},{"type":"function","name":"withdraw","inputs":[{"name":"_member","type":"address","internalType":"address"}],"outputs":[],"stateMutability":"nonpayable"},{"type":"event","name":"Allocated","inputs":[{"name":"recipientId","type":"address","indexed":true,"internalType":"address"},{"name":"amount","type":"uint256","indexed":false,"internalType":"uint256"},{"name":"token","type":"address","indexed":false,"internalType":"address"},{"name":"sender","type":"address","indexed":false,"internalType":"address"}],"anonymous":false},{"type":"event","name":"Distributed","inputs":[{"name":"proposalId","type":"uint256","indexed":false,"internalType":"uint256"},{"name":"beneficiary","type":"address","indexed":false,"internalType":"address"},{"name":"amount","type":"uint256","indexed":false,"internalType":"uint256"}],"anonymous":false},{"type":"event","name":"Distributed","inputs":[{"name":"recipientId","type":"address","indexed":true,"internalType":"address"},{"name":"recipientAddress","type":"address","indexed":false,"internalType":"address"},{"name":"amount","type":"uint256","indexed":false,"internalType":"uint256"},{"name":"sender","type":"address","indexed":false,"internalType":"address"}],"anonymous":false},{"type":"event","name":"Initialized","inputs":[{"name":"poolId","type":"uint256","indexed":false,"internalType":"uint256"},{"name":"data","type":"bytes","indexed":false,"internalType":"bytes"}],"anonymous":false},{"type":"event","name":"InitializedCV","inputs":[{"name":"poolId","type":"uint256","indexed":false,"internalType":"uint256"},{"name":"data","type":"bytes","indexed":false,"internalType":"bytes"}],"anonymous":false},{"type":"event","name":"PoolActive","inputs":[{"name":"active","type":"bool","indexed":false,"internalType":"bool"}],"anonymous":false},{"type":"event","name":"ProposalCreated","inputs":[{"name":"proposalId","type":"uint256","indexed":false,"internalType":"uint256"},{"name":"beneficiary","type":"address","indexed":false,"internalType":"address"},{"name":"amountRequested","type":"uint256","indexed":false,"internalType":"uint256"}],"anonymous":false},{"type":"event","name":"Registered","inputs":[{"name":"recipientId","type":"address","indexed":true,"internalType":"address"},{"name":"data","type":"bytes","indexed":false,"internalType":"bytes"},{"name":"sender","type":"address","indexed":false,"internalType":"address"}],"anonymous":false},{"type":"error","name":"ALLOCATION_ACTIVE","inputs":[]},{"type":"error","name":"ALLOCATION_NOT_ACTIVE","inputs":[]},{"type":"error","name":"ALLOCATION_NOT_ENDED","inputs":[]},{"type":"error","name":"ALREADY_INITIALIZED","inputs":[]},{"type":"error","name":"AMOUNT_MISMATCH","inputs":[]},{"type":"error","name":"ANCHOR_ERROR","inputs":[]},{"type":"error","name":"ARRAY_MISMATCH","inputs":[]},{"type":"error","name":"AddressCannotBeZero","inputs":[]},{"type":"error","name":"AmountOverMaxRatio","inputs":[]},{"type":"error","name":"INVALID","inputs":[]},{"type":"error","name":"INVALID_ADDRESS","inputs":[]},{"type":"error","name":"INVALID_FEE","inputs":[]},{"type":"error","name":"INVALID_METADATA","inputs":[]},{"type":"error","name":"INVALID_REGISTRATION","inputs":[]},{"type":"error","name":"IS_APPROVED_STRATEGY","inputs":[]},{"type":"error","name":"MISMATCH","inputs":[]},{"type":"error","name":"NONCE_NOT_AVAILABLE","inputs":[]},{"type":"error","name":"NOT_APPROVED_STRATEGY","inputs":[]},{"type":"error","name":"NOT_ENOUGH_FUNDS","inputs":[]},{"type":"error","name":"NOT_IMPLEMENTED","inputs":[]},{"type":"error","name":"NOT_INITIALIZED","inputs":[]},{"type":"error","name":"NOT_PENDING_OWNER","inputs":[]},{"type":"error","name":"NotEnoughPointsToSupport","inputs":[{"name":"pointsSupport","type":"uint256","internalType":"uint256"},{"name":"pointsBalance","type":"uint256","internalType":"uint256"}]},{"type":"error","name":"NotImplemented","inputs":[]},{"type":"error","name":"POOL_ACTIVE","inputs":[]},{"type":"error","name":"POOL_INACTIVE","inputs":[]},{"type":"error","name":"PoolIdCannotBeZero","inputs":[]},{"type":"error","name":"PoolIsEmpty","inputs":[]},{"type":"error","name":"ProposalDataIsEmpty","inputs":[]},{"type":"error","name":"ProposalIdAlreadyExist","inputs":[{"name":"_proposalId","type":"uint256","internalType":"uint256"}]},{"type":"error","name":"ProposalIdCannotBeZero","inputs":[]},{"type":"error","name":"ProposalNotActive","inputs":[{"name":"_proposalId","type":"uint256","internalType":"uint256"}]},{"type":"error","name":"ProposalNotInList","inputs":[{"name":"_proposalId","type":"uint256","internalType":"uint256"}]},{"type":"error","name":"ProposalSupportDuplicated","inputs":[{"name":"_proposalId","type":"uint256","internalType":"uint256"},{"name":"index","type":"uint256","internalType":"uint256"}]},{"type":"error","name":"RECIPIENT_ALREADY_ACCEPTED","inputs":[]},{"type":"error","name":"RECIPIENT_ERROR","inputs":[{"name":"recipientId","type":"address","internalType":"address"}]},{"type":"error","name":"RECIPIENT_NOT_ACCEPTED","inputs":[]},{"type":"error","name":"REGISTRATION_NOT_ACTIVE","inputs":[]},{"type":"error","name":"RegistryCannotBeZero","inputs":[]},{"type":"error","name":"SupportUnderflow","inputs":[{"name":"_support","type":"uint256","internalType":"uint256"},{"name":"_delta","type":"int256","internalType":"int256"},{"name":"_result","type":"int256","internalType":"int256"}]},{"type":"error","name":"TokenCannotBeZero","inputs":[]},{"type":"error","name":"UNAUTHORIZED","inputs":[]},{"type":"error","name":"UserCannotBeZero","inputs":[]},{"type":"error","name":"UserIsInactive","inputs":[]},{"type":"error","name":"UserNotInRegistry","inputs":[]},{"type":"error","name":"ZERO_ADDRESS","inputs":[]}],"bytecode":{"object":"0x60c06040526103e8600d553480156200001757600080fd5b5060405162003bdf38038062003bdf8339810160408190526200003a91620000a2565b604080518082018252600a8152694356537472617465677960b01b6020808301919091526001600160a01b038416608052915183926200007d91839101620000d4565b60408051601f19818403018152919052805160209091012060a0525062000124915050565b600060208284031215620000b557600080fd5b81516001600160a01b0381168114620000cd57600080fd5b9392505050565b600060208083528351808285015260005b818110156200010357858101830151858201604001528201620000e5565b506000604082860101526040601f19601f8301168501019250505092915050565b60805160a051613a806200015f60003960006105c10152600081816104a8015281816118e0015281816119730152611b410152613a806000f3fe60806040526004361061037a5760003560e01c8063817b1cd2116101d1578063d1e3623211610102578063edd146cc116100a0578063f96e3b4c1161006f578063f96e3b4c14610b60578063fc1711f214610ba7578063fcdf3be114610bc7578063fe87876414610bf757610395565b8063edd146cc14610add578063ef2920fc14610afd578063f5b0dfb714610b10578063f8b18c4b14610b3057610395565b8063df868ed3116100dc578063df868ed314610a58578063e0dd2c3814610a70578063e33add9314610a90578063eb11af9314610ab057610395565b8063d1e36232146109ce578063d978ffba146109e3578063dc96ff2d14610a2857610395565b8063a574cea41161016f578063b5f620ce11610149578063b5f620ce14610920578063bcc5b93b14610940578063c7f758a814610976578063d1045aa9146109ae57610395565b8063a574cea41461088c578063a656985d146108b9578063b2b878d0146108f357610395565b80639a1df745116101ab5780639a1df745146107e55780639e209ea01461081e578063a0cf0aea1461084e578063a1aab33f1461087657610395565b8063817b1cd21461078f578063868c57b8146107a5578063950559d7146107c557610395565b8063406244d8116102ab57806359a5db8b1161024957806369fa25c41161022357806369fa25c41461071457806376365af7146107345780637c97eede1461074a578063814516ad1461077a57610395565b806359a5db8b146106a75780635db64b99146106c75780636003e414146106f457610395565b80634d31d087116102855780634d31d087146105fa5780635037fed61461062a57806351cff8d91461067157806354fac9191461069157610395565b8063406244d81461059d57806342fda9c7146105b25780634ab4ba42146105e557610395565b806315cc481e116103185780632bbe0cae116102f25780632bbe0cae14610515578063346db8cb1461052857806338fff2d014610548578063401853b71461055d57610395565b806315cc481e146104995780631aa91a9e146104e05780631ddf1e231461050057610395565b80630a6f0ee9116103545780630a6f0ee91461042c5780630c0512e91461044c5780630f529ba21461046257806311f22ae31461047957610395565b8063013cf08b146103a5578063058aca44146103e657806305d191751461040857610395565b36610395576003805490600061038f83612cd5565b91905055005b6003805490600061038f83612cd5565b3480156103b157600080fd5b506103c56103c0366004612cee565b610c30565b6040516103dd9c9b9a99989796959493929190612db8565b60405180910390f35b3480156103f257600080fd5b50610406610401366004612e57565b610d4a565b005b34801561041457600080fd5b5061041e600d5481565b6040519081526020016103dd565b34801561043857600080fd5b5061040661044736600461303b565b610d84565b34801561045857600080fd5b5061041e600b5481565b34801561046e57600080fd5b5061041e6298968081565b34801561048557600080fd5b50610406610494366004612cee565b610da4565b3480156104a557600080fd5b507f00000000000000000000000000000000000000000000000000000000000000005b6040516001600160a01b0390911681526020016103dd565b3480156104ec57600080fd5b5061041e6104fb366004612cee565b610db4565b34801561050c57600080fd5b50610406610e3f565b6104c86105233660046130b3565b610f33565b34801561053457600080fd5b5061041e610543366004613105565b610f58565b34801561055457600080fd5b5060015461041e565b34801561056957600080fd5b50610590610578366004612cee565b60009081526005602052604090206009015460ff1690565b6040516103dd9190613131565b3480156105a957600080fd5b5061041e600a81565b3480156105be57600080fd5b507f000000000000000000000000000000000000000000000000000000000000000061041e565b3480156105f157600080fd5b5060025461041e565b34801561060657600080fd5b5061061a610615366004612e57565b610ffd565b60405190151581526020016103dd565b34801561063657600080fd5b5061041e61064536600461313f565b60008281526005602090815260408083206001600160a01b0385168452600a0190915290205492915050565b34801561067d57600080fd5b5061040661068c366004612e57565b611008565b34801561069d57600080fd5b5061041e60085481565b3480156106b357600080fd5b5061041e6106c2366004612cee565b611137565b3480156106d357600080fd5b5061041e6106e2366004612e57565b60066020526000908152604090205481565b34801561070057600080fd5b506004546104c8906001600160a01b031681565b34801561072057600080fd5b5061040661072f366004612cee565b6112d3565b34801561074057600080fd5b5061041e60095481565b34801561075657600080fd5b5061041e610765366004612cee565b60009081526005602052604090206001015490565b34801561078657600080fd5b506104066112e3565b34801561079b57600080fd5b5061041e600c5481565b3480156107b157600080fd5b5061041e6107c0366004613164565b611334565b3480156107d157600080fd5b5061041e6107e0366004612cee565b611365565b3480156107f157600080fd5b506104c8610800366004612cee565b6000908152600560205260409020600701546001600160a01b031690565b34801561082a57600080fd5b5061041e610839366004612cee565b60009081526005602052604090206004015490565b34801561085a57600080fd5b506104c873eeeeeeeeeeeeeeeeeeeeeeeeeeeeeeeeeeeeeeee81565b34801561088257600080fd5b5061041e600a5481565b34801561089857600080fd5b506108ac6108a7366004612cee565b61138f565b6040516103dd9190613190565b3480156108c557600080fd5b506104c86108d4366004612cee565b600090815260056020819052604090912001546001600160a01b031690565b3480156108ff57600080fd5b5061091361090e3660046131a3565b61146e565b6040516103dd9190613278565b34801561092c57600080fd5b5061040661093b3660046132de565b611489565b34801561094c57600080fd5b5061041e61095b366004612e57565b6001600160a01b031660009081526006602052604090205490565b34801561098257600080fd5b50610996610991366004612cee565b611495565b6040516103dd9c9b9a999897969594939291906132fb565b3480156109ba57600080fd5b5061041e6109c9366004612cee565b6115b7565b3480156109da57600080fd5b5061041e6115eb565b3480156109ef57600080fd5b50610a1b6109fe366004612cee565b600090815260056020526040902060090154610100900460ff1690565b6040516103dd9190613376565b348015610a3457600080fd5b5061041e610a43366004612cee565b60009081526005602052604090206002015490565b348015610a6457600080fd5b5060005460ff1661061a565b348015610a7c57600080fd5b5061041e610a8b36600461313f565b611716565b348015610a9c57600080fd5b50610406610aab366004613384565b611741565b348015610abc57600080fd5b50610ad0610acb366004612e57565b61176f565b6040516103dd919061343a565b348015610ae957600080fd5b50610406610af8366004613454565b61177a565b610406610b0b3660046130b3565b611848565b348015610b1c57600080fd5b50610406610b2b366004612cee565b611866565b348015610b3c57600080fd5b5061041e610b4b366004612cee565b60009081526005602052604090206008015490565b348015610b6c57600080fd5b5061041e610b7b36600461313f565b60008281526005602090815260408083206001600160a01b0385168452600b0190915290205492915050565b348015610bb357600080fd5b50610406610bc2366004612cee565b61188d565b348015610bd357600080fd5b5061041e610be2366004612cee565b60009081526005602052604090206003015490565b348015610c0357600080fd5b506104c8610c12366004612cee565b6000908152600560205260409020600601546001600160a01b031690565b600560208181526000928352604092839020805460018201546002830154600384015460048501549685015460068601546007870154600888015460098901548c51808e01909d52600c8a0180548e52600d8b0180549a9e999d989c979b989a6001600160a01b039788169a968816999590971697939660ff8085169761010090950416959484019190610cc39061349b565b80601f0160208091040260200160405190810160405280929190818152602001828054610cef9061349b565b8015610d3c5780601f10610d1157610100808354040283529160200191610d3c565b820191906000526020600020905b815481529060010190602001808311610d1f57829003601f168201915b50505050508152505090508c565b33610d548161189d565b506004805473ffffffffffffffffffffffffffffffffffffffff19166001600160a01b0392909216919091179055565b610d8c611968565b610d946119b3565b610d9f8383836119ef565b505050565b33610dae8161189d565b50600955565b600081815260056020526040812080548314610deb5760405163c1d17bef60e01b8152600481018490526024015b60405180910390fd5b6000600982015460ff166003811115610e0657610e06612d07565b14610e27576040516344980d8f60e01b815260048101849052602401610de2565b610e35818260020154611c3d565b6003015492915050565b600480546040517f22bcf999000000000000000000000000000000000000000000000000000000008152339281018390523060248201526001600160a01b03909116906322bcf99990604401600060405180830381600087803b158015610ea557600080fd5b505af1158015610eb9573d6000803e3d6000fd5b50506040517f51cff8d90000000000000000000000000000000000000000000000000000000081526001600160a01b03841660048201523092506351cff8d991506024015b600060405180830381600087803b158015610f1857600080fd5b505af1158015610f2c573d6000803e3d6000fd5b5050505050565b6000610f3d611968565b610f456119b3565b610f4f8383611c98565b90505b92915050565b6000808490506000610f7e629896806080600854901b610f7891906134d5565b83611f4f565b905060806f8000000000000000000000000000000060085462989680610fa491906134f7565b610fb284600160801b6134f7565b610fbf629896808961350a565b610fc9919061350a565b610fd391906134d5565b610fdd888561350a565b610fe79190613521565b610ff19190613521565b901c9695505050505050565b6000610f5282611ff8565b6001600160a01b03811660009081526007602090815260408083208054825181850281018501909352808352919290919083018282801561106857602002820191906000526020600020905b815481526020019060010190808311611054575b5050505050905060005b8151811015610d9f57600082828151811061108f5761108f613534565b6020026020010151905060006005600083815260200190815260200160002090506110b982612018565b15611122576001600160a01b0385166000908152600b820160209081526040808320805490849055600a85019092528220829055600283018054919283926111029084906134f7565b9250508190555080600c600082825461111b91906134f7565b9091555050505b5050808061112f90612cd5565b915050611072565b60008060025411611174576040517fed4421ad00000000000000000000000000000000000000000000000000000000815260040160405180910390fd5b600254611184629896808461350a565b81600954611192919061350a565b116111c9576040517f3bf5ca1400000000000000000000000000000000000000000000000000000000815260040160405180910390fd5b6000816111df856801000000000000000061350a565b6111e991906134d5565b6298968060095468010000000000000000611204919061350a565b61120e91906134d5565b61121891906134f7565b90506112606040518060400160405280601a81526020017f746f74616c456666656374697665416374697665506f696e747300000000000081525061125b6115eb565b612051565b604061126a6115eb565b60085461127a90629896806134f7565b62989680604061128a868061350a565b901c629896806080600a54901b6112a191906134d5565b6112ab91906134d5565b6112b5919061350a565b6112bf91906134d5565b6112c9919061350a565b901c949350505050565b336112dd8161189d565b50600855565b600480546040517f0d4a8b49000000000000000000000000000000000000000000000000000000008152339281018390523060248201526001600160a01b0390911690630d4a8b4990604401610efe565b6007602052816000526040600020818154811061135057600080fd5b90600052602060002001600091509150505481565b60006008546298968061137891906134f7565b611385629896808461350a565b610f5291906134d5565b604080518082019091526000815260606020820152600060056000848152602001908152602001600020905080600c01604051806040016040529081600082015481526020016001820180546113e49061349b565b80601f01602080910402602001604051908101604052809291908181526020018280546114109061349b565b801561145d5780601f106114325761010080835404028352916020019161145d565b820191906000526020600020905b81548152906001019060200180831161144057829003601f168201915b505050505081525050915050919050565b606060405163d623472560e01b815260040160405180910390fd5b611492816120c4565b50565b6000806000806000806000806000806000806000600560008f8152602001908152602001600020905080600101546000146114dc576114d78160010154611137565b6114df565b60005b92508060060160009054906101000a90046001600160a01b03168160050160009054906101000a90046001600160a01b03168260070160009054906101000a90046001600160a01b0316836001015484600201548560090160019054906101000a900460ff168660090160009054906101000a900460ff168760080154886003015489600401548c8b600a016000336001600160a01b03166001600160a01b03168152602001908152602001600020549c509c509c509c509c509c509c509c509c509c509c509c505091939597999b5091939597999b565b60008181526005602052604081206001810154156115e1576115dc8160010154611137565b6115e4565b60005b9392505050565b600480546040517fc19563a7000000000000000000000000000000000000000000000000000000008152309281019290925260009182916001600160a01b03169063c19563a790602401602060405180830381865afa158015611652573d6000803e3d6000fd5b505050506040513d601f19601f82011682018060405250810190611676919061354a565b90506116b76040518060400160405280601481526020017f746f74616c506f696e747341637469766174656400000000000000000000000081525082612051565b6116f86040518060400160405280601281526020017f6d696e506f696e74734163746976617465640000000000000000000000000000815250600d54612051565b600d54811161170957600d5461170b565b805b91505090565b905090565b60008281526005602090815260408083206001600160a01b0385168452600b01909152812054610f4f565b6003805490600061175183612cd5565b919050555060405163d623472560e01b815260040160405180910390fd5b6000610f528261210b565b6117838261212b565b6000818060200190518101906117999190613573565b80519091506001600160a01b03166117c457604051635df4b1ef60e01b815260040160405180910390fd5b80516004805473ffffffffffffffffffffffffffffffffffffffff19166001600160a01b0390921691909117905560208101516008556040808201516009556060820151600a55517f974c01cd9ddb6ba65b95675ec7133421bbf57fae2f50292b8d84f6197ec3f02e9061183b90859085906135e2565b60405180910390a1505050565b611850611968565b6118586119b3565b61186282826121ac565b5050565b61186e611968565b80600260008282546118809190613521565b9091555061149290508181565b336118978161189d565b50600a55565b6001546040517f29e40d4b00000000000000000000000000000000000000000000000000000000815260048101919091526001600160a01b0382811660248301527f000000000000000000000000000000000000000000000000000000000000000016906329e40d4b90604401602060405180830381865afa158015611927573d6000803e3d6000fd5b505050506040513d601f19601f8201168201806040525081019061194b91906135fb565b6114925760405163075fd2b160e01b815260040160405180910390fd5b336001600160a01b037f000000000000000000000000000000000000000000000000000000000000000016146119b15760405163075fd2b160e01b815260040160405180910390fd5b565b6001546000036119b1576040517f3da3f98c00000000000000000000000000000000000000000000000000000000815260040160405180910390fd5b600380549060006119ff83612cd5565b91905055506000825111611a3f576040517fc5f7c4c000000000000000000000000000000000000000000000000000000000815260040160405180910390fd5b600082806020019051810190611a55919061354a565b905080600003611a785760405163f881a10d60e01b815260040160405180910390fd5b600081815260056020526040902060016009820154610100900460ff166002811115611aa657611aa6612d07565b03610f2c5780548214611acf5760405163c1d17bef60e01b815260048101839052602401610de2565b6000600982015460ff166003811115611aea57611aea612d07565b14611b0b576040516344980d8f60e01b815260048101839052602401610de2565b6001546040517f068bcd8d0000000000000000000000000000000000000000000000000000000081526000916001600160a01b037f0000000000000000000000000000000000000000000000000000000000000000169163068bcd8d91611b789160040190815260200190565b600060405180830381865afa158015611b95573d6000803e3d6000fd5b505050506040513d6000823e601f3d908101601f19168201604052611bbd91908101906136a5565b604081015160058401546001850154929350611be4926001600160a01b03909116906123e2565b60058201546001830154604080518681526001600160a01b0390931660208401528201527fa7932e9c92f31e1ed56b29d00bbe669a97484dc24de28dd9c8c0429df7f358479060600160405180910390a1505050505050565b60088201544390811015611c5357611c53613759565b80836008015403611c6357505050565b6000611c83846008015483611c7891906134f7565b856003015485610f58565b60088501929092555060039092019190915550565b6003805460009182611ca983612cd5565b9190505550600083806020019051810190611cc4919061377e565b8051909150600003611ce95760405163f881a10d60e01b815260040160405180910390fd5b8060200151600003611d27576040517f4e79178600000000000000000000000000000000000000000000000000000000815260040160405180910390fd5b600181606001516002811115611d3f57611d3f612d07565b03611dcc5760408101516001600160a01b0316611d88576040517fe622e04000000000000000000000000000000000000000000000000000000000815260040160405180910390fd5b60a08101516001600160a01b0316611dcc576040517f596a094c00000000000000000000000000000000000000000000000000000000815260040160405180910390fd5b805160009081526005602052604090208151815403611e1d5781516040517fdf4eff3b0000000000000000000000000000000000000000000000000000000081526004810191909152602401610de2565b815181556006810180546001600160a01b0380871673ffffffffffffffffffffffffffffffffffffffff1992831617909255604084015160058401805491841691831691909117905560a084015160078401805491909316911617905560808201516001820155606082015160098201805461ff001916610100836002811115611ea957611ea9612d07565b021790555060098101805460ff19169055436008820155600060038201819055600482015560c08201518051600c83019081556020820151600d840190611ef0908261388a565b50508251604080850151608086015182519384526001600160a01b039091166020840152908201527f3417b456fad6209c73445d5efd446d686e75e4560f0f50c13b5a5cde976447b4915060600160405180910390a150519392505050565b6000600160801b8310611fa45760405162461bcd60e51b815260206004820152601c60248201527f5f612073686f756c64206265206c657373207468616e20325e313238000000006044820152606401610de2565b50600160801b82825b8015611ff05780600116600003611fd257611fc88283612427565b915060011c611fad565b611fdc8383612427565b9250611fe96001826134f7565b9050611fad565b505092915050565b60006001600160a01b03821615612010576001610f52565b600092915050565b60008181526005602052604081205415801590610f525750506000908152600560205260409020600601546001600160a01b0316151590565b611862828260405160240161206792919061394a565b60408051601f198184030181529190526020810180517bffffffffffffffffffffffffffffffffffffffffffffffffffffffff167f9710a9d000000000000000000000000000000000000000000000000000000000179052612526565b6000805460ff19168215159081179091556040519081527fd94c9bc4d43c51d8dc345a016d8e3d994432fac68e72832e4cf3a616bd8efae09060200160405180910390a150565b60006001600160a01b03821615612123576002610f52565b600392915050565b612133611968565b6001541561216d576040517f439a74c900000000000000000000000000000000000000000000000000000000815260040160405180910390fd5b806000036121a7576040517f7fcce2a900000000000000000000000000000000000000000000000000000000815260040160405180910390fd5b600155565b806001600160a01b0381166121ed576040517fd1f2828800000000000000000000000000000000000000000000000000000000815260040160405180910390fd5b6004546001600160a01b031661221657604051635df4b1ef60e01b815260040160405180910390fd5b600480546040517fa230c5240000000000000000000000000000000000000000000000000000000081526001600160a01b038481169382019390935291169063a230c52490602401602060405180830381865afa15801561227b573d6000803e3d6000fd5b505050506040513d601f19601f8201168201806040525081019061229f91906135fb565b6122d5576040517f6a5cfb6d00000000000000000000000000000000000000000000000000000000815260040160405180910390fd5b600380549060006122e583612cd5565b9091555050600480546040517f477a5cc00000000000000000000000000000000000000000000000000000000081526001600160a01b03858116938201939093523060248201526000929091169063477a5cc090604401602060405180830381865afa158015612359573d6000803e3d6000fd5b505050506040513d601f19601f8201168201806040525081019061237d91906135fb565b9050806123b6576040517f5fccb67f00000000000000000000000000000000000000000000000000000000815260040160405180910390fd5b6000848060200190518101906123cc919061396c565b90506123d88482612547565b610f2c8482612755565b7fffffffffffffffffffffffff11111111111111111111111111111111111111126001600160a01b0384160161241c57610d9f8282612ae4565b610d9f838383612b00565b6000600160801b8311156124a35760405162461bcd60e51b815260206004820152602860248201527f5f612073686f756c64206265206c657373207468616e206f7220657175616c2060448201527f746f20325e3132380000000000000000000000000000000000000000000000006064820152608401610de2565b600160801b82106124f65760405162461bcd60e51b815260206004820152601c60248201527f5f622073686f756c64206265206c657373207468616e20325e313238000000006044820152606401610de2565b60806f80000000000000000000000000000000612513848661350a565b61251d9190613521565b901c9392505050565b80516a636f6e736f6c652e6c6f67602083016000808483855afa5050505050565b6000805b82518110156126465782818151811061256657612566613534565b6020026020010151600001516000036125bc576125b76040518060400160405280600f81526020017f70726f706f73616c4964203d3d20300000000000000000000000000000000000815250612b4f565b612634565b60008382815181106125d0576125d0613534565b60200260200101516000015190506125e781612018565b6126075760405163c1d17bef60e01b815260048101829052602401610de2565b83828151811061261957612619613534565b602002602001015160200151836126309190613a17565b9250505b8061263e81612cd5565b91505061254b565b506001600160a01b03831660009081526006602052604081205461266a9083612bc0565b905060006126ed600460009054906101000a90046001600160a01b03166001600160a01b0316630331383c6040518163ffffffff1660e01b8152600401602060405180830381865afa1580156126c4573d6000803e3d6000fd5b505050506040513d601f19601f820116820180604052508101906126e8919061354a565b612c1b565b905080821115612733576040517fd64182fe0000000000000000000000000000000000000000000000000000000081526004810183905260248101829052604401610de2565b506001600160a01b039093166000908152600660205260409020929092555050565b606060005b8251811015612ade57600083828151811061277757612777613534565b602002602001015160000151905082516000036127d357604080516001808252818301909252906020808301908036833701905050925080836000815181106127c2576127c2613534565b602002602001018181525050612926565b6000805b845181101561285257828582815181106127f3576127f3613534565b602002602001015103612840576040517fadebb154000000000000000000000000000000000000000000000000000000008152600481018490526024810182905260019250604401610de2565b8061284a81612cd5565b9150506127d7565b5080612924576000845160016128689190613521565b67ffffffffffffffff81111561288057612880612e74565b6040519080825280602002602001820160405280156128a9578160200160208202803683370190505b50905060005b8551811015612901578581815181106128ca576128ca613534565b60200260200101518282815181106128e4576128e4613534565b6020908102919091010152806128f981612cd5565b9150506128af565b50828186518151811061291657612916613534565b602090810291909101015293505b505b600084838151811061293a5761293a613534565b60209081029190910181015181015160008481526005835260408082206001600160a01b038b168352600a8101855281832054600b8201909552908220549294509291906129888386612bc0565b6001600160a01b038b166000908152600a8601602052604081208290559091506129b182612c30565b90506129f26040518060400160405280600c81526020017f7374616b6564416d6f756e74000000000000000000000000000000000000000081525082612051565b6001600160a01b038b166000908152600b860160205260409020819055808311612a5f57612a2083826134f7565b600c6000828254612a319190613521565b90915550612a41905083826134f7565b856002016000828254612a549190613521565b90915550612aa39050565b612a6981846134f7565b600c6000828254612a7a91906134f7565b90915550612a8a905081846134f7565b856002016000828254612a9d91906134f7565b90915550505b8460080154600003612aba57436008860155612ac4565b612ac48584611c3d565b505050505050508080612ad690612cd5565b91505061275a565b50505050565b60008060008084865af16118625763b12d13eb6000526004601cfd5b81601452806034526fa9059cbb00000000000000000000000060005260206000604460106000875af13d156001600051141716612b45576390b8ec186000526004601cfd5b6000603452505050565b61149281604051602401612b639190613a37565b60408051601f198184030181529190526020810180517bffffffffffffffffffffffffffffffffffffffffffffffffffffffff167f41304fac00000000000000000000000000000000000000000000000000000000179052612526565b600080612bcd8385613a17565b90506000811215610f4f576040517f3bbc7142000000000000000000000000000000000000000000000000000000008152600481018590526024810184905260448101829052606401610de2565b6000612c25612c46565b61138583606461350a565b60006064612c3c612c46565b611385908461350a565b6000600460009054906101000a90046001600160a01b03166001600160a01b0316630331383c6040518163ffffffff1660e01b8152600401602060405180830381865afa158015612c9b573d6000803e3d6000fd5b505050506040513d601f19601f82011682018060405250810190611711919061354a565b634e487b7160e01b600052601160045260246000fd5b600060018201612ce757612ce7612cbf565b5060010190565b600060208284031215612d0057600080fd5b5035919050565b634e487b7160e01b600052602160045260246000fd5b60048110612d2d57612d2d612d07565b9052565b60038110612d2d57612d2d612d07565b60005b83811015612d5c578181015183820152602001612d44565b50506000910152565b60008151808452612d7d816020860160208601612d41565b601f01601f19169290920160200192915050565b805182526000602082015160406020850152612db06040850182612d65565b949350505050565b60006101808e83528d60208401528c60408401528b60608401528a60808401526001600160a01b03808b1660a0850152808a1660c085015280891660e08501525086610100840152612e0e610120840187612d1d565b612e1c610140840186612d31565b80610160840152612e2f81840185612d91565b9f9e505050505050505050505050505050565b6001600160a01b038116811461149257600080fd5b600060208284031215612e6957600080fd5b8135610f4f81612e42565b634e487b7160e01b600052604160045260246000fd5b6040805190810167ffffffffffffffff81118282101715612ead57612ead612e74565b60405290565b60405160c0810167ffffffffffffffff81118282101715612ead57612ead612e74565b60405160e0810167ffffffffffffffff81118282101715612ead57612ead612e74565b604051601f8201601f1916810167ffffffffffffffff81118282101715612f2257612f22612e74565b604052919050565b600067ffffffffffffffff821115612f4457612f44612e74565b5060051b60200190565b600082601f830112612f5f57600080fd5b81356020612f74612f6f83612f2a565b612ef9565b82815260059290921b84018101918181019086841115612f9357600080fd5b8286015b84811015612fb7578035612faa81612e42565b8352918301918301612f97565b509695505050505050565b600067ffffffffffffffff821115612fdc57612fdc612e74565b50601f01601f191660200190565b600082601f830112612ffb57600080fd5b8135613009612f6f82612fc2565b81815284602083860101111561301e57600080fd5b816020850160208301376000918101602001919091529392505050565b60008060006060848603121561305057600080fd5b833567ffffffffffffffff8082111561306857600080fd5b61307487838801612f4e565b9450602086013591508082111561308a57600080fd5b5061309786828701612fea565b92505060408401356130a881612e42565b809150509250925092565b600080604083850312156130c657600080fd5b823567ffffffffffffffff8111156130dd57600080fd5b6130e985828601612fea565b92505060208301356130fa81612e42565b809150509250929050565b60008060006060848603121561311a57600080fd5b505081359360208301359350604090920135919050565b60208101610f528284612d1d565b6000806040838503121561315257600080fd5b8235915060208301356130fa81612e42565b6000806040838503121561317757600080fd5b823561318281612e42565b946020939093013593505050565b602081526000610f4f6020830184612d91565b600080604083850312156131b657600080fd5b823567ffffffffffffffff808211156131ce57600080fd5b6131da86838701612f4e565b93506020915081850135818111156131f157600080fd5b8501601f8101871361320257600080fd5b8035613210612f6f82612f2a565b81815260059190911b8201840190848101908983111561322f57600080fd5b8584015b838110156132675780358681111561324b5760008081fd5b6132598c8983890101612fea565b845250918601918601613233565b508096505050505050509250929050565b602080825282518282018190526000919060409081850190868401855b828110156132c357815180516001600160a01b03168552860151868501529284019290850190600101613295565b5091979650505050505050565b801515811461149257600080fd5b6000602082840312156132f057600080fd5b8135610f4f816132d0565b6001600160a01b038d811682528c811660208301528b166040820152606081018a905260808101899052610180810161333760a083018a612d31565b61334460c0830189612d1d565b60e082019690965261010081019490945261012084019290925261014083015261016090910152979650505050505050565b60208101610f528284612d31565b6000602080838503121561339757600080fd5b823567ffffffffffffffff8111156133ae57600080fd5b8301601f810185136133bf57600080fd5b80356133cd612f6f82612f2a565b81815260069190911b820183019083810190878311156133ec57600080fd5b928401925b8284101561342f576040848903121561340a5760008081fd5b613412612e8a565b8435815285850135868201528252604090930192908401906133f1565b979650505050505050565b602081016007831061344e5761344e612d07565b91905290565b6000806040838503121561346757600080fd5b82359150602083013567ffffffffffffffff81111561348557600080fd5b61349185828601612fea565b9150509250929050565b600181811c908216806134af57607f821691505b6020821081036134cf57634e487b7160e01b600052602260045260246000fd5b50919050565b6000826134f257634e487b7160e01b600052601260045260246000fd5b500490565b81810381811115610f5257610f52612cbf565b8082028115828204841417610f5257610f52612cbf565b80820180821115610f5257610f52612cbf565b634e487b7160e01b600052603260045260246000fd5b60006020828403121561355c57600080fd5b5051919050565b805161356e81612e42565b919050565b60006080828403121561358557600080fd5b6040516080810181811067ffffffffffffffff821117156135a8576135a8612e74565b60405282516135b681612e42565b808252506020830151602082015260408301516040820152606083015160608201528091505092915050565b828152604060208201526000612db06040830184612d65565b60006020828403121561360d57600080fd5b8151610f4f816132d0565b60006040828403121561362a57600080fd5b613632612e8a565b905081518152602082015167ffffffffffffffff81111561365257600080fd5b8201601f8101841361366357600080fd5b8051613671612f6f82612fc2565b81815285602083850101111561368657600080fd5b613697826020830160208601612d41565b602084015250909392505050565b6000602082840312156136b757600080fd5b815167ffffffffffffffff808211156136cf57600080fd5b9083019060c082860312156136e357600080fd5b6136eb612eb3565b8251815260208301516136fd81612e42565b6020820152604083015161371081612e42565b604082015260608301518281111561372757600080fd5b61373387828601613618565b6060830152506080830151608082015260a083015160a082015280935050505092915050565b634e487b7160e01b600052600160045260246000fd5b80516003811061356e57600080fd5b60006020828403121561379057600080fd5b815167ffffffffffffffff808211156137a857600080fd5b9083019060e082860312156137bc57600080fd5b6137c4612ed6565b82518152602083015160208201526137de60408401613563565b60408201526137ef6060840161376f565b60608201526080830151608082015261380a60a08401613563565b60a082015260c08301518281111561382157600080fd5b61382d87828601613618565b60c08301525095945050505050565b601f821115610d9f57600081815260208120601f850160051c810160208610156138635750805b601f850160051c820191505b818110156138825782815560010161386f565b505050505050565b815167ffffffffffffffff8111156138a4576138a4612e74565b6138b8816138b2845461349b565b8461383c565b602080601f8311600181146138ed57600084156138d55750858301515b600019600386901b1c1916600185901b178555613882565b600085815260208120601f198616915b8281101561391c578886015182559484019460019091019084016138fd565b508582101561393a5787850151600019600388901b60f8161c191681555b5050505050600190811b01905550565b60408152600061395d6040830185612d65565b90508260208301529392505050565b6000602080838503121561397f57600080fd5b825167ffffffffffffffff81111561399657600080fd5b8301601f810185136139a757600080fd5b80516139b5612f6f82612f2a565b81815260069190911b820183019083810190878311156139d457600080fd5b928401925b8284101561342f57604084890312156139f25760008081fd5b6139fa612e8a565b8451815285850151868201528252604090930192908401906139d9565b8082018281126000831280158216821582161715611ff057611ff0612cbf565b602081526000610f4f6020830184612d6556fea26469706673582212206668c340f3b2b067175dafc99a0c4b84e7d61a00378adeaa016eabfafdb8e3a364736f6c63430008130033","linkReferences":{}},"methodIdentifiers":{"D()":"0f529ba2","MAX_STAKED_PROPOSALS()":"406244d8","NATIVE()":"a0cf0aea","activatePoints()":"814516ad","allocate(bytes,address)":"ef2920fc","calculateConviction(uint256,uint256,uint256)":"346db8cb","calculateThreshold(uint256)":"59a5db8b","deactivatePoints()":"1ddf1e23","decay()":"54fac919","distribute(address[],bytes,address)":"0a6f0ee9","getAllo()":"15cc481e","getMaxConviction(uint256)":"950559d7","getMetadata(uint256)":"a574cea4","getPayouts(address[],bytes[])":"b2b878d0","getPoolAmount()":"4ab4ba42","getPoolId()":"38fff2d0","getProposal(uint256)":"c7f758a8","getProposalAgreementActionId(uint256)":"9e209ea0","getProposalBeneficiary(uint256)":"a656985d","getProposalBlockLast(uint256)":"f8b18c4b","getProposalConvictionLast(uint256)":"fcdf3be1","getProposalRequestedAmount(uint256)":"7c97eede","getProposalRequestedToken(uint256)":"9a1df745","getProposalStakedAmount(uint256)":"dc96ff2d","getProposalStatus(uint256)":"401853b7","getProposalSubmitter(uint256)":"fe878764","getProposalThreshold(uint256)":"d1045aa9","getProposalType(uint256)":"d978ffba","getProposalVoterStake(uint256,address)":"e0dd2c38","getProposalVoterStakedAmount(uint256,address)":"f96e3b4c","getProposalVoterStakedPointsPct(uint256,address)":"5037fed6","getRecipientStatus(address)":"eb11af93","getStrategyId()":"42fda9c7","getTotalVoterStakePct(address)":"bcc5b93b","increasePoolAmount(uint256)":"f5b0dfb7","initialize(uint256,bytes)":"edd146cc","isPoolActive()":"df868ed3","isValidAllocator(address)":"4d31d087","maxRatio()":"76365af7","minPointsActivated()":"05d19175","proposalCounter()":"0c0512e9","proposals(uint256)":"013cf08b","registerRecipient(bytes,address)":"2bbe0cae","registryCommunity()":"6003e414","setDecay(uint256)":"69fa25c4","setMaxRatio(uint256)":"11f22ae3","setPoolActive(bool)":"b5f620ce","setRegistryCommunity(address)":"058aca44","setWeight(uint256)":"fc1711f2","supportProposal((uint256,int256)[])":"e33add93","totalEffectiveActivePoints()":"d1e36232","totalStaked()":"817b1cd2","totalVoterStakePct(address)":"5db64b99","updateProposalConviction(uint256)":"1aa91a9e","voterStakedProposals(address,uint256)":"868c57b8","weight()":"a1aab33f","withdraw(address)":"51cff8d9"},"id":93}