{"abi":[{"type":"fallback","stateMutability":"payable"},{"type":"receive","stateMutability":"payable"},{"type":"function","name":"DISPUTE_COOLDOWN_SEC","inputs":[],"outputs":[{"name":"","type":"uint256","internalType":"uint256"}],"stateMutability":"view"},{"type":"function","name":"NATIVE","inputs":[],"outputs":[{"name":"","type":"address","internalType":"address"}],"stateMutability":"view"},{"type":"function","name":"RULING_OPTIONS","inputs":[],"outputs":[{"name":"","type":"uint256","internalType":"uint256"}],"stateMutability":"view"},{"type":"function","name":"activatePoints","inputs":[],"outputs":[],"stateMutability":"nonpayable"},{"type":"function","name":"allocate","inputs":[{"name":"","type":"bytes","internalType":"bytes"},{"name":"","type":"address","internalType":"address"}],"outputs":[],"stateMutability":"payable"},{"type":"function","name":"arbitrableConfigs","inputs":[{"name":"","type":"uint256","internalType":"uint256"}],"outputs":[{"name":"arbitrator","type":"address","internalType":"contract IArbitrator"},{"name":"tribunalSafe","type":"address","internalType":"address"},{"name":"submitterCollateralAmount","type":"uint256","internalType":"uint256"},{"name":"challengerCollateralAmount","type":"uint256","internalType":"uint256"},{"name":"defaultRuling","type":"uint256","internalType":"uint256"},{"name":"defaultRulingTimeout","type":"uint256","internalType":"uint256"}],"stateMutability":"view"},{"type":"function","name":"calculateProposalConviction","inputs":[{"name":"_proposalId","type":"uint256","internalType":"uint256"}],"outputs":[{"name":"","type":"uint256","internalType":"uint256"}],"stateMutability":"view"},{"type":"function","name":"calculateThreshold","inputs":[{"name":"_requestedAmount","type":"uint256","internalType":"uint256"}],"outputs":[{"name":"","type":"uint256","internalType":"uint256"}],"stateMutability":"view"},{"type":"function","name":"cancelProposal","inputs":[{"name":"","type":"uint256","internalType":"uint256"}],"outputs":[],"stateMutability":"nonpayable"},{"type":"function","name":"cloneNonce","inputs":[],"outputs":[{"name":"","type":"uint256","internalType":"uint256"}],"stateMutability":"view"},{"type":"function","name":"collateralVault","inputs":[],"outputs":[{"name":"","type":"address","internalType":"contract ICollateralVault"}],"stateMutability":"view"},{"type":"function","name":"connectSuperfluidGDA","inputs":[{"name":"","type":"address","internalType":"address"}],"outputs":[],"stateMutability":"nonpayable"},{"type":"function","name":"currentArbitrableConfigVersion","inputs":[],"outputs":[{"name":"","type":"uint256","internalType":"uint256"}],"stateMutability":"view"},{"type":"function","name":"cvParams","inputs":[],"outputs":[{"name":"maxRatio","type":"uint256","internalType":"uint256"},{"name":"weight","type":"uint256","internalType":"uint256"},{"name":"decay","type":"uint256","internalType":"uint256"},{"name":"minThresholdPoints","type":"uint256","internalType":"uint256"}],"stateMutability":"view"},{"type":"function","name":"deactivatePoints","inputs":[],"outputs":[],"stateMutability":"nonpayable"},{"type":"function","name":"deactivatePoints","inputs":[{"name":"","type":"address","internalType":"address"}],"outputs":[],"stateMutability":"nonpayable"},{"type":"function","name":"decreasePower","inputs":[{"name":"","type":"address","internalType":"address"},{"name":"","type":"uint256","internalType":"uint256"}],"outputs":[{"name":"","type":"uint256","internalType":"uint256"}],"stateMutability":"nonpayable"},{"type":"function","name":"diamondCut","inputs":[{"name":"_diamondCut","type":"tuple[]","internalType":"struct IDiamond.FacetCut[]","components":[{"name":"facetAddress","type":"address","internalType":"address"},{"name":"action","type":"uint8","internalType":"enum IDiamond.FacetCutAction"},{"name":"functionSelectors","type":"bytes4[]","internalType":"bytes4[]"}]},{"name":"_init","type":"address","internalType":"address"},{"name":"_calldata","type":"bytes","internalType":"bytes"}],"outputs":[],"stateMutability":"nonpayable"},{"type":"function","name":"disconnectSuperfluidGDA","inputs":[{"name":"","type":"address","internalType":"address"}],"outputs":[],"stateMutability":"nonpayable"},{"type":"function","name":"disputeCount","inputs":[],"outputs":[{"name":"","type":"uint64","internalType":"uint64"}],"stateMutability":"view"},{"type":"function","name":"disputeIdToProposalId","inputs":[{"name":"","type":"uint256","internalType":"uint256"}],"outputs":[{"name":"","type":"uint256","internalType":"uint256"}],"stateMutability":"view"},{"type":"function","name":"disputeProposal","inputs":[{"name":"proposalId","type":"uint256","internalType":"uint256"},{"name":"context","type":"string","internalType":"string"},{"name":"_extraData","type":"bytes","internalType":"bytes"}],"outputs":[{"name":"","type":"uint256","internalType":"uint256"}],"stateMutability":"payable"},{"type":"function","name":"distribute","inputs":[{"name":"","type":"address[]","internalType":"address[]"},{"name":"","type":"bytes","internalType":"bytes"},{"name":"","type":"address","internalType":"address"}],"outputs":[],"stateMutability":"nonpayable"},{"type":"function","name":"editProposal","inputs":[{"name":"","type":"uint256","internalType":"uint256"},{"name":"","type":"tuple","internalType":"struct Metadata","components":[{"name":"protocol","type":"uint256","internalType":"uint256"},{"name":"pointer","type":"string","internalType":"string"}]},{"name":"","type":"address","internalType":"address"},{"name":"","type":"uint256","internalType":"uint256"}],"outputs":[],"stateMutability":"nonpayable"},{"type":"function","name":"getAllo","inputs":[],"outputs":[{"name":"","type":"address","internalType":"contract IAllo"}],"stateMutability":"view"},{"type":"function","name":"getArbitrableConfig","inputs":[],"outputs":[{"name":"arbitrator","type":"address","internalType":"contract IArbitrator"},{"name":"tribunalSafe","type":"address","internalType":"address"},{"name":"submitterCollateralAmount","type":"uint256","internalType":"uint256"},{"name":"challengerCollateralAmount","type":"uint256","internalType":"uint256"},{"name":"defaultRuling","type":"uint256","internalType":"uint256"},{"name":"defaultRulingTimeout","type":"uint256","internalType":"uint256"}],"stateMutability":"view"},{"type":"function","name":"getFacets","inputs":[],"outputs":[{"name":"facets_","type":"tuple[]","internalType":"struct IDiamondLoupe.Facet[]","components":[{"name":"facetAddress","type":"address","internalType":"address"},{"name":"functionSelectors","type":"bytes4[]","internalType":"bytes4[]"}]}],"stateMutability":"view"},{"type":"function","name":"getMaxAmount","inputs":[],"outputs":[{"name":"","type":"uint256","internalType":"uint256"}],"stateMutability":"view"},{"type":"function","name":"getPointSystem","inputs":[],"outputs":[{"name":"","type":"uint8","internalType":"enum PointSystem"}],"stateMutability":"view"},{"type":"function","name":"getPoolAmount","inputs":[],"outputs":[{"name":"","type":"uint256","internalType":"uint256"}],"stateMutability":"view"},{"type":"function","name":"getPoolId","inputs":[],"outputs":[{"name":"","type":"uint256","internalType":"uint256"}],"stateMutability":"view"},{"type":"function","name":"getProposal","inputs":[{"name":"_proposalId","type":"uint256","internalType":"uint256"}],"outputs":[{"name":"submitter","type":"address","internalType":"address"},{"name":"beneficiary","type":"address","internalType":"address"},{"name":"requestedToken","type":"address","internalType":"address"},{"name":"requestedAmount","type":"uint256","internalType":"uint256"},{"name":"stakedAmount","type":"uint256","internalType":"uint256"},{"name":"proposalStatus","type":"uint8","internalType":"enum ProposalStatus"},{"name":"blockLast","type":"uint256","internalType":"uint256"},{"name":"convictionLast","type":"uint256","internalType":"uint256"},{"name":"threshold","type":"uint256","internalType":"uint256"},{"name":"voterStakedPoints","type":"uint256","internalType":"uint256"},{"name":"arbitrableConfigVersion","type":"uint256","internalType":"uint256"},{"name":"protocol","type":"uint256","internalType":"uint256"}],"stateMutability":"view"},{"type":"function","name":"getProposalStakedAmount","inputs":[{"name":"_proposalId","type":"uint256","internalType":"uint256"}],"outputs":[{"name":"","type":"uint256","internalType":"uint256"}],"stateMutability":"view"},{"type":"function","name":"getProposalVoterStake","inputs":[{"name":"_proposalId","type":"uint256","internalType":"uint256"},{"name":"_voter","type":"address","internalType":"address"}],"outputs":[{"name":"","type":"uint256","internalType":"uint256"}],"stateMutability":"view"},{"type":"function","name":"increasePower","inputs":[{"name":"","type":"address","internalType":"address"},{"name":"","type":"uint256","internalType":"uint256"}],"outputs":[{"name":"","type":"uint256","internalType":"uint256"}],"stateMutability":"nonpayable"},{"type":"function","name":"init","inputs":[{"name":"_allo","type":"address","internalType":"address"},{"name":"_collateralVaultTemplate","type":"address","internalType":"address"},{"name":"_owner","type":"address","internalType":"address"}],"outputs":[],"stateMutability":"nonpayable"},{"type":"function","name":"init","inputs":[{"name":"_allo","type":"address","internalType":"address"},{"name":"_name","type":"string","internalType":"string"},{"name":"_owner","type":"address","internalType":"address"}],"outputs":[],"stateMutability":"nonpayable"},{"type":"function","name":"initialize","inputs":[{"name":"initialOwner","type":"address","internalType":"address"}],"outputs":[],"stateMutability":"nonpayable"},{"type":"function","name":"initialize","inputs":[{"name":"_poolId","type":"uint256","internalType":"uint256"},{"name":"_data","type":"bytes","internalType":"bytes"}],"outputs":[],"stateMutability":"nonpayable"},{"type":"function","name":"isPoolActive","inputs":[],"outputs":[{"name":"","type":"bool","internalType":"bool"}],"stateMutability":"view"},{"type":"function","name":"owner","inputs":[],"outputs":[{"name":"","type":"address","internalType":"address"}],"stateMutability":"view"},{"type":"function","name":"pointConfig","inputs":[],"outputs":[{"name":"maxAmount","type":"uint256","internalType":"uint256"}],"stateMutability":"view"},{"type":"function","name":"pointSystem","inputs":[],"outputs":[{"name":"","type":"uint8","internalType":"enum PointSystem"}],"stateMutability":"view"},{"type":"function","name":"proposalCounter","inputs":[],"outputs":[{"name":"","type":"uint256","internalType":"uint256"}],"stateMutability":"view"},{"type":"function","name":"proposalType","inputs":[],"outputs":[{"name":"","type":"uint8","internalType":"enum ProposalType"}],"stateMutability":"view"},{"type":"function","name":"proposals","inputs":[{"name":"","type":"uint256","internalType":"uint256"}],"outputs":[{"name":"proposalId","type":"uint256","internalType":"uint256"},{"name":"requestedAmount","type":"uint256","internalType":"uint256"},{"name":"stakedAmount","type":"uint256","internalType":"uint256"},{"name":"convictionLast","type":"uint256","internalType":"uint256"},{"name":"beneficiary","type":"address","internalType":"address"},{"name":"submitter","type":"address","internalType":"address"},{"name":"requestedToken","type":"address","internalType":"address"},{"name":"blockLast","type":"uint256","internalType":"uint256"},{"name":"proposalStatus","type":"uint8","internalType":"enum ProposalStatus"},{"name":"metadata","type":"tuple","internalType":"struct Metadata","components":[{"name":"protocol","type":"uint256","internalType":"uint256"},{"name":"pointer","type":"string","internalType":"string"}]},{"name":"disputeInfo","type":"tuple","internalType":"struct ProposalDisputeInfo","components":[{"name":"disputeId","type":"uint256","internalType":"uint256"},{"name":"disputeTimestamp","type":"uint256","internalType":"uint256"},{"name":"challenger","type":"address","internalType":"address"}]},{"name":"lastDisputeCompletion","type":"uint256","internalType":"uint256"},{"name":"arbitrableConfigVersion","type":"uint256","internalType":"uint256"},{"name":"creationTimestamp","type":"uint256","internalType":"uint256"}],"stateMutability":"view"},{"type":"function","name":"proxiableUUID","inputs":[],"outputs":[{"name":"","type":"bytes32","internalType":"bytes32"}],"stateMutability":"view"},{"type":"function","name":"proxyOwner","inputs":[],"outputs":[{"name":"","type":"address","internalType":"address"}],"stateMutability":"view"},{"type":"function","name":"rebalance","inputs":[],"outputs":[],"stateMutability":"nonpayable"},{"type":"function","name":"registerRecipient","inputs":[{"name":"","type":"bytes","internalType":"bytes"},{"name":"","type":"address","internalType":"address"}],"outputs":[{"name":"","type":"address","internalType":"address"}],"stateMutability":"payable"},{"type":"function","name":"registryCommunity","inputs":[],"outputs":[{"name":"","type":"address","internalType":"contract RegistryCommunity"}],"stateMutability":"view"},{"type":"function","name":"renounceOwnership","inputs":[],"outputs":[],"stateMutability":"nonpayable"},{"type":"function","name":"rule","inputs":[{"name":"","type":"uint256","internalType":"uint256"},{"name":"","type":"uint256","internalType":"uint256"}],"outputs":[],"stateMutability":"nonpayable"},{"type":"function","name":"setCollateralVaultTemplate","inputs":[{"name":"template","type":"address","internalType":"address"}],"outputs":[],"stateMutability":"nonpayable"},{"type":"function","name":"setPoolActive","inputs":[{"name":"_active","type":"bool","internalType":"bool"}],"outputs":[],"stateMutability":"nonpayable"},{"type":"function","name":"setPoolParams","inputs":[{"name":"","type":"tuple","internalType":"struct ArbitrableConfig","components":[{"name":"arbitrator","type":"address","internalType":"contract IArbitrator"},{"name":"tribunalSafe","type":"address","internalType":"address"},{"name":"submitterCollateralAmount","type":"uint256","internalType":"uint256"},{"name":"challengerCollateralAmount","type":"uint256","internalType":"uint256"},{"name":"defaultRuling","type":"uint256","internalType":"uint256"},{"name":"defaultRulingTimeout","type":"uint256","internalType":"uint256"}]},{"name":"","type":"tuple","internalType":"struct CVParams","components":[{"name":"maxRatio","type":"uint256","internalType":"uint256"},{"name":"weight","type":"uint256","internalType":"uint256"},{"name":"decay","type":"uint256","internalType":"uint256"},{"name":"minThresholdPoints","type":"uint256","internalType":"uint256"}]},{"name":"","type":"uint256","internalType":"uint256"},{"name":"","type":"address[]","internalType":"address[]"},{"name":"","type":"address[]","internalType":"address[]"},{"name":"","type":"address","internalType":"address"}],"outputs":[],"stateMutability":"nonpayable"},{"type":"function","name":"setSybilScorer","inputs":[{"name":"_sybilScorer","type":"address","internalType":"address"},{"name":"threshold","type":"uint256","internalType":"uint256"}],"outputs":[],"stateMutability":"nonpayable"},{"type":"function","name":"streamingRatePerSecond","inputs":[],"outputs":[{"name":"","type":"uint256","internalType":"uint256"}],"stateMutability":"view"},{"type":"function","name":"superfluidGDA","inputs":[],"outputs":[{"name":"","type":"address","internalType":"contract ISuperfluidPool"}],"stateMutability":"view"},{"type":"function","name":"superfluidToken","inputs":[],"outputs":[{"name":"","type":"address","internalType":"contract ISuperToken"}],"stateMutability":"view"},{"type":"function","name":"supportsInterface","inputs":[{"name":"interfaceId","type":"bytes4","internalType":"bytes4"}],"outputs":[{"name":"","type":"bool","internalType":"bool"}],"stateMutability":"view"},{"type":"function","name":"sybilScorer","inputs":[],"outputs":[{"name":"","type":"address","internalType":"contract ISybilScorer"}],"stateMutability":"view"},{"type":"function","name":"totalPointsActivated","inputs":[],"outputs":[{"name":"","type":"uint256","internalType":"uint256"}],"stateMutability":"view"},{"type":"function","name":"totalStaked","inputs":[],"outputs":[{"name":"","type":"uint256","internalType":"uint256"}],"stateMutability":"view"},{"type":"function","name":"totalVoterStakePct","inputs":[{"name":"","type":"address","internalType":"address"}],"outputs":[{"name":"","type":"uint256","internalType":"uint256"}],"stateMutability":"view"},{"type":"function","name":"transferOwnership","inputs":[{"name":"newOwner","type":"address","internalType":"address"}],"outputs":[],"stateMutability":"nonpayable"},{"type":"function","name":"updateProposalConviction","inputs":[{"name":"proposalId","type":"uint256","internalType":"uint256"}],"outputs":[{"name":"","type":"uint256","internalType":"uint256"}],"stateMutability":"nonpayable"},{"type":"function","name":"upgradeTo","inputs":[{"name":"newImplementation","type":"address","internalType":"address"}],"outputs":[],"stateMutability":"nonpayable"},{"type":"function","name":"upgradeToAndCall","inputs":[{"name":"newImplementation","type":"address","internalType":"address"},{"name":"data","type":"bytes","internalType":"bytes"}],"outputs":[],"stateMutability":"payable"},{"type":"function","name":"voterStakedProposals","inputs":[{"name":"","type":"address","internalType":"address"},{"name":"","type":"uint256","internalType":"uint256"}],"outputs":[{"name":"","type":"uint256","internalType":"uint256"}],"stateMutability":"view"},{"type":"event","name":"AdminChanged","inputs":[{"name":"previousAdmin","type":"address","indexed":false,"internalType":"address"},{"name":"newAdmin","type":"address","indexed":false,"internalType":"address"}],"anonymous":false},{"type":"event","name":"Allocated","inputs":[{"name":"recipientId","type":"address","indexed":true,"internalType":"address"},{"name":"amount","type":"uint256","indexed":false,"internalType":"uint256"},{"name":"token","type":"address","indexed":false,"internalType":"address"},{"name":"sender","type":"address","indexed":false,"internalType":"address"}],"anonymous":false},{"type":"event","name":"AllowlistMembersAdded","inputs":[{"name":"poolId","type":"uint256","indexed":false,"internalType":"uint256"},{"name":"members","type":"address[]","indexed":false,"internalType":"address[]"}],"anonymous":false},{"type":"event","name":"AllowlistMembersRemoved","inputs":[{"name":"poolId","type":"uint256","indexed":false,"internalType":"uint256"},{"name":"members","type":"address[]","indexed":false,"internalType":"address[]"}],"anonymous":false},{"type":"event","name":"ArbitrableConfigUpdated","inputs":[{"name":"currentArbitrableConfigVersion","type":"uint256","indexed":false,"internalType":"uint256"},{"name":"arbitrator","type":"address","indexed":false,"internalType":"contract IArbitrator"},{"name":"tribunalSafe","type":"address","indexed":false,"internalType":"address"},{"name":"submitterCollateralAmount","type":"uint256","indexed":false,"internalType":"uint256"},{"name":"challengerCollateralAmount","type":"uint256","indexed":false,"internalType":"uint256"},{"name":"defaultRuling","type":"uint256","indexed":false,"internalType":"uint256"},{"name":"defaultRulingTimeout","type":"uint256","indexed":false,"internalType":"uint256"}],"anonymous":false},{"type":"event","name":"BeaconUpgraded","inputs":[{"name":"beacon","type":"address","indexed":true,"internalType":"address"}],"anonymous":false},{"type":"event","name":"CVParamsUpdated","inputs":[{"name":"cvParams","type":"tuple","indexed":false,"internalType":"struct CVParams","components":[{"name":"maxRatio","type":"uint256","internalType":"uint256"},{"name":"weight","type":"uint256","internalType":"uint256"},{"name":"decay","type":"uint256","internalType":"uint256"},{"name":"minThresholdPoints","type":"uint256","internalType":"uint256"}]}],"anonymous":false},{"type":"event","name":"DiamondCut","inputs":[{"name":"_diamondCut","type":"tuple[]","indexed":false,"internalType":"struct IDiamond.FacetCut[]","components":[{"name":"facetAddress","type":"address","internalType":"address"},{"name":"action","type":"uint8","internalType":"enum IDiamond.FacetCutAction"},{"name":"functionSelectors","type":"bytes4[]","internalType":"bytes4[]"}]},{"name":"_init","type":"address","indexed":false,"internalType":"address"},{"name":"_calldata","type":"bytes","indexed":false,"internalType":"bytes"}],"anonymous":false},{"type":"event","name":"DisputeRequest","inputs":[{"name":"_arbitrator","type":"address","indexed":true,"internalType":"contract IArbitrator"},{"name":"_arbitrableDisputeID","type":"uint256","indexed":true,"internalType":"uint256"},{"name":"_externalDisputeID","type":"uint256","indexed":false,"internalType":"uint256"},{"name":"_templateId","type":"uint256","indexed":false,"internalType":"uint256"},{"name":"_templateUri","type":"string","indexed":false,"internalType":"string"}],"anonymous":false},{"type":"event","name":"Distributed","inputs":[{"name":"recipientId","type":"address","indexed":true,"internalType":"address"},{"name":"recipientAddress","type":"address","indexed":false,"internalType":"address"},{"name":"amount","type":"uint256","indexed":false,"internalType":"uint256"},{"name":"sender","type":"address","indexed":false,"internalType":"address"}],"anonymous":false},{"type":"event","name":"Distributed","inputs":[{"name":"proposalId","type":"uint256","indexed":false,"internalType":"uint256"},{"name":"beneficiary","type":"address","indexed":false,"internalType":"address"},{"name":"amount","type":"uint256","indexed":false,"internalType":"uint256"}],"anonymous":false},{"type":"event","name":"Initialized","inputs":[{"name":"poolId","type":"uint256","indexed":false,"internalType":"uint256"},{"name":"data","type":"bytes","indexed":false,"internalType":"bytes"}],"anonymous":false},{"type":"event","name":"Initialized","inputs":[{"name":"version","type":"uint8","indexed":false,"internalType":"uint8"}],"anonymous":false},{"type":"event","name":"InitializedCV","inputs":[{"name":"poolId","type":"uint256","indexed":false,"internalType":"uint256"},{"name":"data","type":"tuple","indexed":false,"internalType":"struct CVStrategyInitializeParamsV0_0","components":[{"name":"cvParams","type":"tuple","internalType":"struct CVParams","components":[{"name":"maxRatio","type":"uint256","internalType":"uint256"},{"name":"weight","type":"uint256","internalType":"uint256"},{"name":"decay","type":"uint256","internalType":"uint256"},{"name":"minThresholdPoints","type":"uint256","internalType":"uint256"}]},{"name":"proposalType","type":"uint8","internalType":"enum ProposalType"},{"name":"pointSystem","type":"uint8","internalType":"enum PointSystem"},{"name":"pointConfig","type":"tuple","internalType":"struct PointSystemConfig","components":[{"name":"maxAmount","type":"uint256","internalType":"uint256"}]},{"name":"arbitrableConfig","type":"tuple","internalType":"struct ArbitrableConfig","components":[{"name":"arbitrator","type":"address","internalType":"contract IArbitrator"},{"name":"tribunalSafe","type":"address","internalType":"address"},{"name":"submitterCollateralAmount","type":"uint256","internalType":"uint256"},{"name":"challengerCollateralAmount","type":"uint256","internalType":"uint256"},{"name":"defaultRuling","type":"uint256","internalType":"uint256"},{"name":"defaultRulingTimeout","type":"uint256","internalType":"uint256"}]},{"name":"registryCommunity","type":"address","internalType":"address"},{"name":"sybilScorer","type":"address","internalType":"address"}]}],"anonymous":false},{"type":"event","name":"InitializedCV2","inputs":[{"name":"poolId","type":"uint256","indexed":false,"internalType":"uint256"},{"name":"data","type":"tuple","indexed":false,"internalType":"struct CVStrategyInitializeParamsV0_1","components":[{"name":"cvParams","type":"tuple","internalType":"struct CVParams","components":[{"name":"maxRatio","type":"uint256","internalType":"uint256"},{"name":"weight","type":"uint256","internalType":"uint256"},{"name":"decay","type":"uint256","internalType":"uint256"},{"name":"minThresholdPoints","type":"uint256","internalType":"uint256"}]},{"name":"proposalType","type":"uint8","internalType":"enum ProposalType"},{"name":"pointSystem","type":"uint8","internalType":"enum PointSystem"},{"name":"pointConfig","type":"tuple","internalType":"struct PointSystemConfig","components":[{"name":"maxAmount","type":"uint256","internalType":"uint256"}]},{"name":"arbitrableConfig","type":"tuple","internalType":"struct ArbitrableConfig","components":[{"name":"arbitrator","type":"address","internalType":"contract IArbitrator"},{"name":"tribunalSafe","type":"address","internalType":"address"},{"name":"submitterCollateralAmount","type":"uint256","internalType":"uint256"},{"name":"challengerCollateralAmount","type":"uint256","internalType":"uint256"},{"name":"defaultRuling","type":"uint256","internalType":"uint256"},{"name":"defaultRulingTimeout","type":"uint256","internalType":"uint256"}]},{"name":"registryCommunity","type":"address","internalType":"address"},{"name":"sybilScorer","type":"address","internalType":"address"},{"name":"sybilScorerThreshold","type":"uint256","internalType":"uint256"},{"name":"initialAllowlist","type":"address[]","internalType":"address[]"}]}],"anonymous":false},{"type":"event","name":"InitializedCV3","inputs":[{"name":"poolId","type":"uint256","indexed":false,"internalType":"uint256"},{"name":"data","type":"tuple","indexed":false,"internalType":"struct CVStrategyInitializeParamsV0_2","components":[{"name":"cvParams","type":"tuple","internalType":"struct CVParams","components":[{"name":"maxRatio","type":"uint256","internalType":"uint256"},{"name":"weight","type":"uint256","internalType":"uint256"},{"name":"decay","type":"uint256","internalType":"uint256"},{"name":"minThresholdPoints","type":"uint256","internalType":"uint256"}]},{"name":"proposalType","type":"uint8","internalType":"enum ProposalType"},{"name":"pointSystem","type":"uint8","internalType":"enum PointSystem"},{"name":"pointConfig","type":"tuple","internalType":"struct PointSystemConfig","components":[{"name":"maxAmount","type":"uint256","internalType":"uint256"}]},{"name":"arbitrableConfig","type":"tuple","internalType":"struct ArbitrableConfig","components":[{"name":"arbitrator","type":"address","internalType":"contract IArbitrator"},{"name":"tribunalSafe","type":"address","internalType":"address"},{"name":"submitterCollateralAmount","type":"uint256","internalType":"uint256"},{"name":"challengerCollateralAmount","type":"uint256","internalType":"uint256"},{"name":"defaultRuling","type":"uint256","internalType":"uint256"},{"name":"defaultRulingTimeout","type":"uint256","internalType":"uint256"}]},{"name":"registryCommunity","type":"address","internalType":"address"},{"name":"sybilScorer","type":"address","internalType":"address"},{"name":"sybilScorerThreshold","type":"uint256","internalType":"uint256"},{"name":"initialAllowlist","type":"address[]","internalType":"address[]"},{"name":"superfluidToken","type":"address","internalType":"address"}]}],"anonymous":false},{"type":"event","name":"InitializedCV4","inputs":[{"name":"poolId","type":"uint256","indexed":false,"internalType":"uint256"},{"name":"data","type":"tuple","indexed":false,"internalType":"struct CVStrategyInitializeParamsV0_3","components":[{"name":"cvParams","type":"tuple","internalType":"struct CVParams","components":[{"name":"maxRatio","type":"uint256","internalType":"uint256"},{"name":"weight","type":"uint256","internalType":"uint256"},{"name":"decay","type":"uint256","internalType":"uint256"},{"name":"minThresholdPoints","type":"uint256","internalType":"uint256"}]},{"name":"proposalType","type":"uint8","internalType":"enum ProposalType"},{"name":"pointSystem","type":"uint8","internalType":"enum PointSystem"},{"name":"pointConfig","type":"tuple","internalType":"struct PointSystemConfig","components":[{"name":"maxAmount","type":"uint256","internalType":"uint256"}]},{"name":"arbitrableConfig","type":"tuple","internalType":"struct ArbitrableConfig","components":[{"name":"arbitrator","type":"address","internalType":"contract IArbitrator"},{"name":"tribunalSafe","type":"address","internalType":"address"},{"name":"submitterCollateralAmount","type":"uint256","internalType":"uint256"},{"name":"challengerCollateralAmount","type":"uint256","internalType":"uint256"},{"name":"defaultRuling","type":"uint256","internalType":"uint256"},{"name":"defaultRulingTimeout","type":"uint256","internalType":"uint256"}]},{"name":"registryCommunity","type":"address","internalType":"address"},{"name":"sybilScorer","type":"address","internalType":"address"},{"name":"sybilScorerThreshold","type":"uint256","internalType":"uint256"},{"name":"initialAllowlist","type":"address[]","internalType":"address[]"},{"name":"superfluidToken","type":"address","internalType":"address"},{"name":"streamingRatePerSecond","type":"uint256","internalType":"uint256"}]}],"anonymous":false},{"type":"event","name":"OwnershipTransferred","inputs":[{"name":"previousOwner","type":"address","indexed":true,"internalType":"address"},{"name":"newOwner","type":"address","indexed":true,"internalType":"address"}],"anonymous":false},{"type":"event","name":"OwnershipTransferred","inputs":[{"name":"previousOwner","type":"address","indexed":true,"internalType":"address"},{"name":"newOwner","type":"address","indexed":true,"internalType":"address"}],"anonymous":false},{"type":"event","name":"PointsDeactivated","inputs":[{"name":"member","type":"address","indexed":false,"internalType":"address"}],"anonymous":false},{"type":"event","name":"PoolActive","inputs":[{"name":"active","type":"bool","indexed":false,"internalType":"bool"}],"anonymous":false},{"type":"event","name":"PowerDecreased","inputs":[{"name":"member","type":"address","indexed":false,"internalType":"address"},{"name":"tokensUnStaked","type":"uint256","indexed":false,"internalType":"uint256"},{"name":"pointsToDecrease","type":"uint256","indexed":false,"internalType":"uint256"}],"anonymous":false},{"type":"event","name":"PowerIncreased","inputs":[{"name":"member","type":"address","indexed":false,"internalType":"address"},{"name":"tokensStaked","type":"uint256","indexed":false,"internalType":"uint256"},{"name":"pointsToIncrease","type":"uint256","indexed":false,"internalType":"uint256"}],"anonymous":false},{"type":"event","name":"ProposalCancelled","inputs":[{"name":"proposalId","type":"uint256","indexed":false,"internalType":"uint256"}],"anonymous":false},{"type":"event","name":"ProposalCreated","inputs":[{"name":"poolId","type":"uint256","indexed":false,"internalType":"uint256"},{"name":"proposalId","type":"uint256","indexed":false,"internalType":"uint256"}],"anonymous":false},{"type":"event","name":"ProposalDisputed","inputs":[{"name":"arbitrator","type":"address","indexed":false,"internalType":"contract IArbitrator"},{"name":"proposalId","type":"uint256","indexed":false,"internalType":"uint256"},{"name":"disputeId","type":"uint256","indexed":false,"internalType":"uint256"},{"name":"challenger","type":"address","indexed":false,"internalType":"address"},{"name":"context","type":"string","indexed":false,"internalType":"string"},{"name":"timestamp","type":"uint256","indexed":false,"internalType":"uint256"}],"anonymous":false},{"type":"event","name":"Registered","inputs":[{"name":"recipientId","type":"address","indexed":true,"internalType":"address"},{"name":"data","type":"bytes","indexed":false,"internalType":"bytes"},{"name":"sender","type":"address","indexed":false,"internalType":"address"}],"anonymous":false},{"type":"event","name":"Ruling","inputs":[{"name":"_arbitrator","type":"address","indexed":true,"internalType":"contract IArbitrator"},{"name":"_disputeID","type":"uint256","indexed":true,"internalType":"uint256"},{"name":"_ruling","type":"uint256","indexed":false,"internalType":"uint256"}],"anonymous":false},{"type":"event","name":"SuperfluidGDAConnected","inputs":[{"name":"gda","type":"address","indexed":true,"internalType":"address"},{"name":"by","type":"address","indexed":true,"internalType":"address"}],"anonymous":false},{"type":"event","name":"SuperfluidGDADisconnected","inputs":[{"name":"gda","type":"address","indexed":true,"internalType":"address"},{"name":"by","type":"address","indexed":true,"internalType":"address"}],"anonymous":false},{"type":"event","name":"SuperfluidTokenUpdated","inputs":[{"name":"superfluidToken","type":"address","indexed":false,"internalType":"address"}],"anonymous":false},{"type":"event","name":"SupportAdded","inputs":[{"name":"from","type":"address","indexed":false,"internalType":"address"},{"name":"proposalId","type":"uint256","indexed":false,"internalType":"uint256"},{"name":"amount","type":"uint256","indexed":false,"internalType":"uint256"},{"name":"totalStakedAmount","type":"uint256","indexed":false,"internalType":"uint256"},{"name":"convictionLast","type":"uint256","indexed":false,"internalType":"uint256"}],"anonymous":false},{"type":"event","name":"SybilScorerUpdated","inputs":[{"name":"sybilScorer","type":"address","indexed":false,"internalType":"address"}],"anonymous":false},{"type":"event","name":"Upgraded","inputs":[{"name":"implementation","type":"address","indexed":true,"internalType":"address"}],"anonymous":false},{"type":"error","name":"ALLOCATION_ACTIVE","inputs":[]},{"type":"error","name":"ALLOCATION_NOT_ACTIVE","inputs":[]},{"type":"error","name":"ALLOCATION_NOT_ENDED","inputs":[]},{"type":"error","name":"ALREADY_INITIALIZED","inputs":[]},{"type":"error","name":"AMOUNT_MISMATCH","inputs":[]},{"type":"error","name":"ANCHOR_ERROR","inputs":[]},{"type":"error","name":"ARRAY_MISMATCH","inputs":[]},{"type":"error","name":"AShouldBeUnderOrEqTwo_128","inputs":[]},{"type":"error","name":"AShouldBeUnderTwo_128","inputs":[]},{"type":"error","name":"AddressCannotBeZero","inputs":[{"name":"input","type":"address","internalType":"address"}]},{"type":"error","name":"AmountOverMaxRatio","inputs":[{"name":"requestedAmount","type":"uint256","internalType":"uint256"},{"name":"maxAllowed","type":"uint256","internalType":"uint256"},{"name":"poolAmount","type":"uint256","internalType":"uint256"}]},{"type":"error","name":"ArbitratorCannotBeZero","inputs":[]},{"type":"error","name":"BShouldBeLessTwo_128","inputs":[]},{"type":"error","name":"CallerNotOwner","inputs":[{"name":"_caller","type":"address","internalType":"address"},{"name":"_owner","type":"address","internalType":"address"}]},{"type":"error","name":"CannotAddFunctionToDiamondThatAlreadyExists","inputs":[{"name":"_selector","type":"bytes4","internalType":"bytes4"}]},{"type":"error","name":"CannotAddSelectorsToZeroAddress","inputs":[{"name":"_selectors","type":"bytes4[]","internalType":"bytes4[]"}]},{"type":"error","name":"CannotRemoveFunctionThatDoesNotExist","inputs":[{"name":"_selector","type":"bytes4","internalType":"bytes4"}]},{"type":"error","name":"CannotRemoveImmutableFunction","inputs":[{"name":"_selector","type":"bytes4","internalType":"bytes4"}]},{"type":"error","name":"CannotReplaceFunctionThatDoesNotExists","inputs":[{"name":"_selector","type":"bytes4","internalType":"bytes4"}]},{"type":"error","name":"CannotReplaceFunctionWithTheSameFunctionFromTheSameFacet","inputs":[{"name":"_selector","type":"bytes4","internalType":"bytes4"}]},{"type":"error","name":"CannotReplaceFunctionsFromFacetWithZeroAddress","inputs":[{"name":"_selectors","type":"bytes4[]","internalType":"bytes4[]"}]},{"type":"error","name":"CannotReplaceImmutableFunction","inputs":[{"name":"_selector","type":"bytes4","internalType":"bytes4"}]},{"type":"error","name":"ConvictionUnderMinimumThreshold","inputs":[]},{"type":"error","name":"DefaultRulingNotSet","inputs":[]},{"type":"error","name":"DisputeCooldownNotPassed","inputs":[{"name":"_proposalId","type":"uint256","internalType":"uint256"},{"name":"_remainingSec","type":"uint256","internalType":"uint256"}]},{"type":"error","name":"INVALID","inputs":[]},{"type":"error","name":"INVALID_ADDRESS","inputs":[]},{"type":"error","name":"INVALID_FEE","inputs":[]},{"type":"error","name":"INVALID_METADATA","inputs":[]},{"type":"error","name":"INVALID_REGISTRATION","inputs":[]},{"type":"error","name":"IS_APPROVED_STRATEGY","inputs":[]},{"type":"error","name":"InitializationFunctionReverted","inputs":[{"name":"_initializationContractAddress","type":"address","internalType":"address"},{"name":"_calldata","type":"bytes","internalType":"bytes"}]},{"type":"error","name":"InsufficientCollateral","inputs":[{"name":"sentAmount","type":"uint256","internalType":"uint256"},{"name":"requiredAmount","type":"uint256","internalType":"uint256"}]},{"type":"error","name":"MISMATCH","inputs":[]},{"type":"error","name":"NONCE_NOT_AVAILABLE","inputs":[]},{"type":"error","name":"NON_ZERO_VALUE","inputs":[]},{"type":"error","name":"NOT_APPROVED_STRATEGY","inputs":[]},{"type":"error","name":"NOT_ENOUGH_FUNDS","inputs":[]},{"type":"error","name":"NOT_IMPLEMENTED","inputs":[]},{"type":"error","name":"NOT_INITIALIZED","inputs":[]},{"type":"error","name":"NOT_PENDING_OWNER","inputs":[]},{"type":"error","name":"NoBytecodeAtAddress","inputs":[{"name":"_contractAddress","type":"address","internalType":"address"},{"name":"_message","type":"string","internalType":"string"}]},{"type":"error","name":"NoSelectorsProvidedForFacetForCut","inputs":[{"name":"_facetAddress","type":"address","internalType":"address"}]},{"type":"error","name":"NotEnoughPointsToSupport","inputs":[{"name":"pointsSupport","type":"uint256","internalType":"uint256"},{"name":"pointsBalance","type":"uint256","internalType":"uint256"}]},{"type":"error","name":"NotImplemented","inputs":[{"name":"selector","type":"bytes4","internalType":"bytes4"}]},{"type":"error","name":"OnlyArbitrator","inputs":[{"name":"sender","type":"address","internalType":"address"},{"name":"arbitrator","type":"address","internalType":"address"}]},{"type":"error","name":"OnlyCommunityAllowed","inputs":[{"name":"sender","type":"address","internalType":"address"},{"name":"registryCommunity","type":"address","internalType":"address"}]},{"type":"error","name":"OnlyCouncilSafe","inputs":[{"name":"sender","type":"address","internalType":"address"},{"name":"councilSafe","type":"address","internalType":"address"},{"name":"owner","type":"address","internalType":"address"}]},{"type":"error","name":"OnlyCouncilSafeOrMember","inputs":[{"name":"sender","type":"address","internalType":"address"},{"name":"councilSafe","type":"address","internalType":"address"}]},{"type":"error","name":"POOL_ACTIVE","inputs":[]},{"type":"error","name":"POOL_INACTIVE","inputs":[]},{"type":"error","name":"PoolAmountNotEnough","inputs":[{"name":"_proposalId","type":"uint256","internalType":"uint256"},{"name":"_requestedAmount","type":"uint256","internalType":"uint256"},{"name":"_poolAmount","type":"uint256","internalType":"uint256"}]},{"type":"error","name":"PoolIsEmpty","inputs":[{"name":"poolAmount","type":"uint256","internalType":"uint256"}]},{"type":"error","name":"ProposalDataIsEmpty","inputs":[]},{"type":"error","name":"ProposalIdCannotBeZero","inputs":[]},{"type":"error","name":"ProposalInvalidForAllocation","inputs":[{"name":"_proposalId","type":"uint256","internalType":"uint256"},{"name":"_proposalStatus","type":"uint8","internalType":"enum ProposalStatus"}]},{"type":"error","name":"ProposalNotActive","inputs":[{"name":"_proposalId","type":"uint256","internalType":"uint256"}]},{"type":"error","name":"ProposalNotDisputed","inputs":[{"name":"_proposalId","type":"uint256","internalType":"uint256"}]},{"type":"error","name":"ProposalNotInList","inputs":[{"name":"_proposalId","type":"uint256","internalType":"uint256"}]},{"type":"error","name":"ProposalSupportDuplicated","inputs":[{"name":"_proposalId","type":"uint256","internalType":"uint256"},{"name":"index","type":"uint256","internalType":"uint256"}]},{"type":"error","name":"RECIPIENT_ALREADY_ACCEPTED","inputs":[]},{"type":"error","name":"RECIPIENT_ERROR","inputs":[{"name":"recipientId","type":"address","internalType":"address"}]},{"type":"error","name":"RECIPIENT_NOT_ACCEPTED","inputs":[]},{"type":"error","name":"REGISTRATION_ACTIVE","inputs":[]},{"type":"error","name":"REGISTRATION_NOT_ACTIVE","inputs":[]},{"type":"error","name":"RegistryCannotBeZero","inputs":[{"name":"registry","type":"address","internalType":"address"}]},{"type":"error","name":"RegistryCommunityCannotBeZero","inputs":[{"name":"registry","type":"address","internalType":"address"}]},{"type":"error","name":"RemoveFacetAddressMustBeZeroAddress","inputs":[{"name":"_facetAddress","type":"address","internalType":"address"}]},{"type":"error","name":"StrategyFunctionDoesNotExist","inputs":[{"name":"selector","type":"bytes4","internalType":"bytes4"}]},{"type":"error","name":"StrategyPaused","inputs":[{"name":"controller","type":"address","internalType":"address"}]},{"type":"error","name":"StrategySelectorPaused","inputs":[{"name":"selector","type":"bytes4","internalType":"bytes4"},{"name":"controller","type":"address","internalType":"address"}]},{"type":"error","name":"SupportUnderflow","inputs":[{"name":"_support","type":"uint256","internalType":"uint256"},{"name":"_delta","type":"int256","internalType":"int256"},{"name":"_result","type":"int256","internalType":"int256"}]},{"type":"error","name":"TokenCannotBeZero","inputs":[{"name":"token","type":"address","internalType":"address"}]},{"type":"error","name":"TokenNotAllowed","inputs":[{"name":"token","type":"address","internalType":"address"}]},{"type":"error","name":"UNAUTHORIZED","inputs":[]},{"type":"error","name":"UserCannotBeZero","inputs":[{"name":"user","type":"address","internalType":"address"}]},{"type":"error","name":"UserCannotExecuteAction","inputs":[{"name":"sender","type":"address","internalType":"address"}]},{"type":"error","name":"UserIsInactive","inputs":[{"name":"user","type":"address","internalType":"address"}]},{"type":"error","name":"UserNotInRegistry","inputs":[{"name":"user","type":"address","internalType":"address"},{"name":"registry","type":"address","internalType":"address"}]},{"type":"error","name":"ZERO_ADDRESS","inputs":[]}],"bytecode":{"object":"0x60a060405230608052348015610013575f80fd5b506080516153ad6100485f395f818161110701528181611147015281816116100152818161165001526116c701526153ad5ff3fe608060405260043610610318575f3560e01c8063013cf08b146103bb57806301ffc9a7146103fd578063025313a21461043d578063059351cd1461045e57806305caa7f3146104e95780630a6f0ee9146105085780630ba95909146105275780630bece79c146105455780630c0512e914610564578063125fd1d914610579578063141e3b381461058e57806315cc481e146105ad578063184b9559146105ca5780631aa91a9e146105e95780631b36f56f146106085780631ddf1e23146106275780631f931c1c1461063b5780632506b8701461065a578063255ffb381461068c5780632bbe0cae146106b75780632dbd6fdd146106ca5780632ed04b2b146106f5578063311a6c561461070f578063339604591461072e578063351d9f96146107435780633659cfe6146107695780633864d3661461078857806338fff2d0146107a757806341bb7605146107bb5780634ab4ba42146108165780634f1ef2861461082a57806352d1902d1461083d57806359a5db8b146108515780635db64b99146108705780636003e4141461089b57806360b0645a146108ba57806360d5dedc146108d9578063626c47e8146108f85780636453d9c41461090c578063662ea47d1461092b578063715018a61461094c578063782aadff146106f55780637d7c2a1c14610627578063814516ad14610627578063817b1cd214610960578063868c57b8146109755780638da5cb5b14610994578063924e67041461090c57806394573cbb146109a8578063a0cf0aea146109bd578063a28889e1146109e4578063a47ff7e514610a1b578063aba9ffee14610a31578063b0d3713a14610a46578063b41596ec14610a65578063b5f620ce14610a78578063b6c61f3114610a97578063c329217114610ab6578063c4d66de814610ad2578063c69271ec1461090c578063c7f758a814610af1578063d5b7cc5414610b28578063dc96ff2d14610b47578063df868ed314610b75578063e0a8f6f514610b89578063e0dd2c3814610ba3578063edd146cc14610bc2578063ef2920fc14610be1578063f2fde38b14610bef578063f5be3f7c14610c0e5761031f565b3661031f57005b5f80356001600160e01b03191681525f80516020615266833981519152602081905260409091205481906001600160a01b031680610386575f356001600160e01b03191660405163335ed20560e11b815260040161037d9190613c0a565b60405180910390fd5b61039b5f356001600160e01b03191682610c23565b365f80375f80365f845af43d5f803e8080156103b5573d5ff35b3d5ffd5b005b3480156103c6575f80fd5b506103da6103d5366004613c1f565b610db6565b6040516103f49e9d9c9b9a99989796959493929190613cd6565b60405180910390f35b348015610408575f80fd5b5061042d610417366004613da5565b6001600160e01b0319166301ffc9a760e01b1490565b60405190151581526020016103f4565b348015610448575f80fd5b50610451610f06565b6040516103f49190613dbe565b348015610469575f80fd5b506104b1606f545f908152607f60205260409020805460018201546002830154600384015460048501546005909501546001600160a01b039485169694909316949193909290565b604080516001600160a01b039788168152969095166020870152938501929092526060840152608083015260a082015260c0016103f4565b3480156104f4575f80fd5b50608054610451906001600160a01b031681565b348015610513575f80fd5b506103b9610522366004613ff0565b610f1e565b348015610532575f80fd5b506077545b6040519081526020016103f4565b348015610550575f80fd5b50607954610451906001600160a01b031681565b34801561056f575f80fd5b50610537606e5481565b348015610584575f80fd5b50610537606f5481565b348015610599575f80fd5b506103b96105a8366004614062565b610f26565b3480156105b8575f80fd5b506065546001600160a01b0316610451565b3480156105d5575f80fd5b506103b96105e43660046140f6565b610f34565b3480156105f4575f80fd5b50610537610603366004613c1f565b611037565b348015610613575f80fd5b50608154610451906001600160a01b031681565b348015610632575f80fd5b506103b9611080565b348015610646575f80fd5b506103b9610655366004614170565b61108a565b348015610665575f80fd5b5060725460735460745460755461067c9392919084565b6040516103f49493929190614218565b348015610697575f80fd5b506105376106a6366004613c1f565b607e6020525f908152604090205481565b6104516106c5366004614233565b6110e2565b3480156106d5575f80fd5b506076546106e890610100900460ff1681565b6040516103f4919061429a565b348015610700575f80fd5b506105376106c53660046142ad565b34801561071a575f80fd5b506103b96107293660046142d7565b6110f1565b348015610739575f80fd5b50610537606c5481565b34801561074e575f80fd5b5060765461075c9060ff1681565b6040516103f49190614307565b348015610774575f80fd5b506103b9610783366004614315565b6110fd565b348015610793575f80fd5b506103b96107a23660046142ad565b6111c4565b3480156107b2575f80fd5b50606854610537565b3480156107c6575f80fd5b506104b16107d5366004613c1f565b607f6020525f90815260409020805460018201546002830154600384015460048501546005909501546001600160a01b039485169593909416939192909186565b348015610821575f80fd5b50610537611387565b6103b9610838366004614330565b611606565b348015610848575f80fd5b506105376116bb565b34801561085c575f80fd5b5061053761086b366004613c1f565b611767565b34801561087b575f80fd5b5061053761088a366004614315565b607c6020525f908152604090205481565b3480156108a6575f80fd5b50607854610451906001600160a01b031681565b3480156108c5575f80fd5b506105376108d4366004613c1f565b61182c565b3480156108e4575f80fd5b506103b96108f336600461437c565b6118db565b348015610903575f80fd5b50610537600381565b348015610917575f80fd5b506103b9610926366004614315565b61199a565b348015610936575f80fd5b5061093f6119a2565b6040516103f49190614403565b348015610957575f80fd5b506103b9611d41565b34801561096b575f80fd5b5061053760705481565b348015610980575f80fd5b5061053761098f3660046142ad565b611d52565b34801561099f575f80fd5b50610451611d7d565b3480156109b3575f80fd5b5061053760825481565b3480156109c8575f80fd5b5061045173eeeeeeeeeeeeeeeeeeeeeeeeeeeeeeeeeeeeeeee81565b3480156109ef575f80fd5b50606d54610a03906001600160401b031681565b6040516001600160401b0390911681526020016103f4565b348015610a26575f80fd5b506077546105379081565b348015610a3c575f80fd5b5061053760715481565b348015610a51575f80fd5b506103b9610a60366004614315565b611e10565b610537610a73366004614480565b611e3a565b348015610a83575f80fd5b506103b9610a923660046144e2565b611e4c565b348015610aa2575f80fd5b50607a54610451906001600160a01b031681565b348015610ac1575f80fd5b50607654610100900460ff166106e8565b348015610add575f80fd5b506103b9610aec366004614315565b611e55565b348015610afc575f80fd5b50610b10610b0b366004613c1f565b611f07565b6040516103f49c9b9a999897969594939291906144fd565b348015610b33575f80fd5b506103b9610b423660046145b4565b6120d5565b348015610b52575f80fd5b50610537610b61366004613c1f565b5f908152607b602052604090206002015490565b348015610b80575f80fd5b5061042d6120e5565b348015610b94575f80fd5b506103b9610926366004613c1f565b348015610bae575f80fd5b50610537610bbd3660046146ab565b6120f2565b348015610bcd575f80fd5b506103b9610bdc3660046146ce565b61211c565b6103b9610729366004614233565b348015610bfa575f80fd5b506103b9610c09366004614315565b612645565b348015610c19575f80fd5b50610537611c2081565b610c2b6126bb565b600101546001600160a01b0390811690821603610c46575050565b610c4f826126df565b15610c58575050565b5f610c616126bb565b546001600160a01b0316905080610c7757505050565b604051635b14f18360e01b81526001600160a01b03821690635b14f18390610ca3903090600401613dbe565b602060405180830381865afa158015610cbe573d5f803e3d5ffd5b505050506040513d601f19601f82011682018060405250810190610ce291906146fb565b15610d02578060405163c2897a3760e01b815260040161037d9190613dbe565b6040516374b896f160e01b81523060048201526001600160e01b0319841660248201526001600160a01b038216906374b896f190604401602060405180830381865afa158015610d54573d5f803e3d5ffd5b505050506040513d601f19601f82011682018060405250810190610d7891906146fb565b15610db15760405163a9774bf960e01b81526001600160e01b0319841660048201526001600160a01b038216602482015260440161037d565b505050565b607b60209081525f9182526040918290208054600182015460028301546003840154600485015460058601546006870154600788015460088901548b51808d01909c52600a8a0180548d52600b8b0180549a9d999c989b979a6001600160a01b039788169a968816999790951697939660ff9093169593949192840191610e3c90614716565b80601f0160208091040260200160405190810160405280929190818152602001828054610e6890614716565b8015610eb35780601f10610e8a57610100808354040283529160200191610eb3565b820191905f5260205f20905b815481529060010190602001808311610e9657829003601f168201915b50505091909252505060408051606081018252600c8501548152600d8501546020820152600e8501546001600160a01b031691810191909152600f8401546010850154601190950154939491939092508e565b5f610f196033546001600160a01b031690565b905090565b610db161031f565b610f2e61031f565b50505050565b5f54610100900460ff1615808015610f5257505f54600160ff909116105b80610f725750610f6130612822565b158015610f7257505f5460ff166001145b610f8e5760405162461bcd60e51b815260040161037d9061474e565b5f805460ff191660011790558015610faf575f805461ff0019166101001790555b610fdc846040518060400160405280600a8152602001694356537472617465677960b01b815250846118db565b610fe582612831565b606a80546001600160a01b0319166001600160a01b0385161790558015610f2e575f805461ff0019169055604051600181525f805160206153128339815191529060200160405180910390a150505050565b5f818152607b60205260408120805483146110685760405163c1d17bef60e01b81526004810184905260240161037d565b61107681826002015461287c565b6003015492915050565b61108861031f565b565b6110926128b5565b6110db61109f85876147a8565b8484848080601f0160208091040260200160405190810160405280939291908181526020018383808284375f9201919091525061293a92505050565b5050505050565b5f6110eb61031f565b92915050565b6110f961031f565b5050565b6001600160a01b037f00000000000000000000000000000000000000000000000000000000000000001630036111455760405162461bcd60e51b815260040161037d906148c5565b7f00000000000000000000000000000000000000000000000000000000000000006001600160a01b0316611177612aa3565b6001600160a01b03161461119d5760405162461bcd60e51b815260040161037d906148fe565b6111a681612abe565b604080515f808252602082019092526111c191839190612b0a565b50565b60785f9054906101000a90046001600160a01b03166001600160a01b0316636c53db9a6040518163ffffffff1660e01b8152600401602060405180830381865afa158015611214573d5f803e3d5ffd5b505050506040513d601f19601f820116820180604052508101906112389190614937565b6001600160a01b0316336001600160a01b031614158015611272575061125c611d7d565b6001600160a01b0316336001600160a01b031614155b1561131f5760785460408051633629edcd60e11b8152905133926001600160a01b031691636c53db9a9160048083019260209291908290030181865afa1580156112be573d5f803e3d5ffd5b505050506040513d601f19601f820116820180604052508101906112e29190614937565b6112ea611d7d565b60405163e1b9c46960e01b81526001600160a01b0393841660048201529183166024830152909116604482015260640161037d565b61132882612c74565b607a80546001600160a01b0319166001600160a01b03841617905561134c81612c9d565b7f2667a0cd99dbc787d1d2596efe938cf43dfe83e8b8ddeb70e28007c09ff334858260405161137b9190613dbe565b60405180910390a15050565b60655460685460405163068bcd8d60e01b81525f9283926001600160a01b039091169163068bcd8d916113c09160040190815260200190565b5f60405180830381865afa1580156113da573d5f803e3d5ffd5b505050506040513d5f823e601f3d908101601f19168201604052611401919081019061495d565b60400151905073eeeeeeeeeeeeeeeeeeeeeeeeeeeeeeeeeeeeeeed196001600160a01b03821601611433574791505090565b6040516370a0823160e01b81525f906001600160a01b038316906370a0823190611461903090600401613dbe565b602060405180830381865afa15801561147c573d5f803e3d5ffd5b505050506040513d601f19601f820116820180604052508101906114a09190614a75565b6080549091505f906001600160a01b03161561152a576080546040516370a0823160e01b81526001600160a01b03909116906370a08231906114e6903090600401613dbe565b602060405180830381865afa158015611501573d5f803e3d5ffd5b505050506040513d601f19601f820116820180604052508101906115259190614a75565b61152c565b5f5b90505f836001600160a01b031663313ce5676040518163ffffffff1660e01b8152600401602060405180830381865afa15801561156b573d5f803e3d5ffd5b505050506040513d601f19601f8201168201806040525081019061158f9190614a8c565b905060128160ff1610156115c4576115a8816012614ac0565b6115b390600a614bb9565b6115bd9083614bdb565b91506115f3565b60128160ff1611156115f3576115db601282614ac0565b6115e690600a614bb9565b6115f09083614bfa565b91505b6115fd8284614c11565b94505050505090565b6001600160a01b037f000000000000000000000000000000000000000000000000000000000000000016300361164e5760405162461bcd60e51b815260040161037d906148c5565b7f00000000000000000000000000000000000000000000000000000000000000006001600160a01b0316611680612aa3565b6001600160a01b0316146116a65760405162461bcd60e51b815260040161037d906148fe565b6116af82612abe565b6110f982826001612b0a565b5f306001600160a01b037f000000000000000000000000000000000000000000000000000000000000000016146117555760405162461bcd60e51b815260206004820152603860248201527f555550535570677261646561626c653a206d757374206e6f742062652063616c6044820152771b1959081d1a1c9bdd59da0819195b1959d85d1958d85b1b60421b606482015260840161037d565b505f805160206152f283398151915290565b5f80611771611387565b90505f629896808260725f01546117889190614bfa565b6117929190614bdb565b6071546074546073546072546075546040516314eff2dd60e11b815295965073__$f1b7c69ba751c396eddc93d3bbc5414fd9$__956329dfe5ba956117e5958c958b959294919390929190600401614c24565b602060405180830381865af4158015611800573d5f803e3d5ffd5b505050506040513d601f19601f820116820180604052508101906118249190614a75565b949350505050565b5f818152607b60205260408120600781015473__$f1b7c69ba751c396eddc93d3bbc5414fd9$__9063010dfe64906118649043614c54565b600384015460028501546074546040516001600160e01b031960e087901b1681526118959493929190600401614218565b602060405180830381865af41580156118b0573d5f803e3d5ffd5b505050506040513d601f19601f820116820180604052508101906118d49190614a75565b9392505050565b5f54610100900460ff166119455760405162461bcd60e51b815260206004820152602b60248201527f496e697469616c697a61626c653a20636f6e7472616374206973206e6f74206960448201526a6e697469616c697a696e6760a81b606482015260840161037d565b61194e81611e55565b606580546001600160a01b0319166001600160a01b03851617905560405161197a908390602001614c67565b60408051601f198184030181529190528051602090910120606655505050565b6111c161031f565b60605f6119ad612d7a565b6001810154909150806001600160401b038111156119cd576119cd613dd2565b604051908082528060200260200182016040528015611a1257816020015b604080518082019091525f8152606060208201528152602001906001900390816119eb5790505b5092505f816001600160401b03811115611a2e57611a2e613dd2565b604051908082528060200260200182016040528015611a57578160200160208202803683370190505b5090505f805b83811015611cdc575f856001018281548110611a7b57611a7b614c79565b5f918252602080832060088304015460079092166004026101000a90910460e01b6001600160e01b0319811683529088905260408220549092506001600160a01b031690805b85811015611bac57826001600160a01b03168a8281518110611ae557611ae5614c79565b60200260200101515f01516001600160a01b031603611ba457838a8281518110611b1157611b11614c79565b602002602001015160200151888381518110611b2f57611b2f614c79565b602002602001015161ffff1681518110611b4b57611b4b614c79565b60200260200101906001600160e01b03191690816001600160e01b03191681525050868181518110611b7f57611b7f614c79565b602002602001018051809190611b9490614c8d565b61ffff1690525060019150611bac565b600101611ac1565b508015611bbc5750611cd4915050565b81898681518110611bcf57611bcf614c79565b60209081029190910101516001600160a01b039091169052866001600160401b03811115611bff57611bff613dd2565b604051908082528060200260200182016040528015611c28578160200160208202803683370190505b50898681518110611c3b57611c3b614c79565b60200260200101516020018190525082898681518110611c5d57611c5d614c79565b6020026020010151602001515f81518110611c7a57611c7a614c79565b60200260200101906001600160e01b03191690816001600160e01b031916815250506001868681518110611cb057611cb0614c79565b61ffff9092166020928302919091019091015284611ccd81614cad565b9550505050505b600101611a5d565b505f5b81811015611d36575f868281518110611cfa57611cfa614c79565b60200260200101516020015190505f848381518110611d1b57611d1b614c79565b602090810291909101015161ffff1690915250600101611cdf565b508085525050505090565b611d496128b5565b6110885f612d8b565b607d602052815f5260405f208181548110611d6b575f80fd5b905f5260205f20015f91509150505481565b5f611d86610f06565b6001600160a01b03163b5f03611d9e57610f19610f06565b611da6610f06565b6001600160a01b0316638da5cb5b6040518163ffffffff1660e01b8152600401602060405180830381865afa925050508015611dff575060408051601f3d908101601f19168201909252611dfc91810190614937565b60015b611e0b57610f19610f06565b919050565b611e186128b5565b606a80546001600160a01b0319166001600160a01b0392909216919091179055565b5f611e4361031f565b95945050505050565b6111c181612dc9565b5f54610100900460ff1615808015611e7357505f54600160ff909116105b80611e935750611e8230612822565b158015611e9357505f5460ff166001145b611eaf5760405162461bcd60e51b815260040161037d9061474e565b5f805460ff191660011790558015611ed0575f805461ff0019166101001790555b611ed982612d8b565b80156110f9575f805461ff0019169055604051600181525f805160206153128339815191529060200161137b565b5f805f805f805f805f805f805f607b5f8f81526020019081526020015f20905080600101545f03611f3a575f9450612010565b5f611f43611387565b90505f611f588260725f015462989680612e10565b9050801580611f6a5750808360010154115b15611f77575f965061200d565b60018301546071546074546073546072546075546040516314eff2dd60e11b815273__$f1b7c69ba751c396eddc93d3bbc5414fd9$__966329dfe5ba96611fcb9691958b9591949293909290600401614c24565b602060405180830381865af4158015611fe6573d5f803e3d5ffd5b505050506040513d601f19601f8201168201806040525081019061200a9190614a75565b96505b50505b806005015f9054906101000a90046001600160a01b0316816004015f9054906101000a90046001600160a01b0316826006015f9054906101000a90046001600160a01b031683600101548460020154856008015f9054906101000a900460ff16866007015487600301548c896009015f336001600160a01b03166001600160a01b031681526020019081526020015f20548a601001548b600a015f01549c509c509c509c509c509c509c509c509c509c509c509c505091939597999b5091939597999b565b6120dd61031f565b505050505050565b5f610f1960675460ff1690565b5f828152607b602090815260408083206001600160a01b03851684526009019091528120546118d4565b612124612ef4565b61212d82612f1f565b606a54606c8054612155926001600160a01b0316915f61214c83614cad565b91905055612f6d565b607980546001600160a01b0319166001600160a01b039290921691821790556040805163204a7f0760e21b81529051638129fc1c916004808201925f9290919082900301818387803b1580156121a9575f80fd5b505af11580156121bb573d5f803e3d5ffd5b505050505f818060200190518101906121d49190614e2e565b60a0810151607880546001600160a01b0319166001600160a01b03909216919091179055602081015160768054929350909160ff1916600183600281111561221e5761221e613c43565b021790555060408101516076805461ff00191661010083600381111561224657612246613c43565b021790555060608101515160775560c0810151607a80546001600160a01b039283166001600160a01b031991821617909155610120830151608080549190931691161790556101408101516082556040517f7fcde2fdfc978beea622208b397eaf9dea8608c4f735701a3aea2262cd8fd7b2906122c69085908490614f9d565b60405180910390a16002816020015160028111156122e6576122e6613c43565b03612404576080546001600160a01b0316158061230c57506081546001600160a01b0316155b806123175750608254155b1561233557604051630317df1360e61b815260040160405180910390fd5b6080546040805180820182525f808252602082018181529251630779d36560e01b81526001600160a01b039094166004850152306024850152905115156044840152905115156064830152736da13bde224a05a288748d857b9e7ddeffd1de08918290630779d3659060840160408051808303815f875af11580156123bc573d5f803e3d5ffd5b505050506040513d601f19601f820116820180604052508101906123e091906150c6565b608180546001600160a01b0319166001600160a01b03929092169190911790555050505b6080810151602001516001600160a01b03161580159061243157506080810151516001600160a01b031615155b1561259d576080810151805160209091015160405163446adb9960e11b81526001600160a01b03909216916388d5b7329161246e91600401613dbe565b5f604051808303815f87803b158015612485575f80fd5b505af1158015612497573d5f803e3d5ffd5b5050606f8054925090505f6124ab83614cad565b909155505060808181018051606f80545f908152607f6020908152604091829020845181546001600160a01b039182166001600160a01b03199182161783558387015160018401805491841691909216179055838601516002830155606080870151600384015586890151600484015560a096870151600590930192909255935495518051818401518286015183850151848c0151948a015188519b8c52938916968b019690965296168886015291870194909452958501529183015260c082019290925290517fe677e2878aaaaf6a65ecf50f849ad58100c49f6dfd57d055ba4bddd63a175d539181900360e00190a15b8051604001511580156125b35750805160200151155b80156125bf5750805151155b80156125ce5750805160600151155b612627578051805160725560208101516073556040808201516074556060820151607555517fec9315d9f4291207475c061feff1e5d7105750ac0ee9534af9444b4ff1dab9bc9161261e916150f3565b60405180910390a15b607a546001600160a01b031615610db157610db18160e00151612c9d565b61264d6128b5565b6001600160a01b0381166126b25760405162461bcd60e51b815260206004820152602660248201527f4f776e61626c653a206e6577206f776e657220697320746865207a65726f206160448201526564647265737360d01b606482015260840161037d565b6111c181612d8b565b7f12ec43b97389db0cfbdf8d85f200f1b822123856376a9d75d3a6918f27c903bb90565b5f6001600160e01b03198216631add1a0d60e01b148061270f57506001600160e01b0319821663088a8e8160e21b145b8061272a57506001600160e01b0319821663136439dd60e01b145b8061274557506001600160e01b031982166380c4a65f60e01b145b8061276057506001600160e01b03198216631fa5d41d60e11b145b8061277b57506001600160e01b0319821663bac1e94b60e01b145b8061279657506001600160e01b0319821663adaf157b60e01b145b806127b157506001600160e01b031982166360b4778960e01b145b806127cc57506001600160e01b031982166358c3de9360e11b145b806127e757506001600160e01b031982166304db2f3360e11b145b8061280257506001600160e01b03198216630da748b160e41b145b806110eb57506001600160e01b03198216632d2ebbef60e01b1492915050565b6001600160a01b03163b151590565b5f61283a612d7a565b6003810180546001600160a01b038581166001600160a01b031983168117909355604051939450169182905f80516020615332833981519152905f90a3505050565b5f806128888484612fb3565b91509150815f148015612899575080155b156128a45750505050565b600784015560039092019190915550565b5f6128be610f06565b90505f6128c9611d7d565b9050336001600160a01b038316148015906128ed5750336001600160a01b03821614155b156110f95760405162461bcd60e51b815260206004820181905260248201527f4f776e61626c653a2063616c6c6572206973206e6f7420746865206f776e6572604482015260640161037d565b5f5b8351811015612a5d575f84828151811061295857612958614c79565b60200260200101516040015190505f85838151811061297957612979614c79565b60200260200101515f0151905081515f036129a9578060405163e767f91f60e01b815260040161037d9190613dbe565b5f8684815181106129bc576129bc614c79565b60200260200101516020015190505f60038111156129dc576129dc613c43565b8160038111156129ee576129ee613c43565b03612a02576129fd8284613080565b612a52565b6001816003811115612a1657612a16613c43565b03612a25576129fd828461320a565b6002816003811115612a3957612a39613c43565b03612a48576129fd8284613367565b612a5282846135b1565b50505060010161293c565b507f8faa70878671ccd212d20771b795c50af8fd3ff6cf27f4bde57e5d4de0aeb673838383604051612a9193929190615101565b60405180910390a1610db182826137bc565b5f805160206152f2833981519152546001600160a01b031690565b33612ac7611d7d565b6001600160a01b0316146111c15733612ade611d7d565b60405163163678e960e01b81526001600160a01b0392831660048201529116602482015260440161037d565b7f4910fdfa16fed3260ed0e7147f7cc6da11a60208b5b9406d12a635614ffd91435460ff1615612b3d57610db18361387e565b826001600160a01b03166352d1902d6040518163ffffffff1660e01b8152600401602060405180830381865afa925050508015612b97575060408051601f3d908101601f19168201909252612b9491810190614a75565b60015b612bfa5760405162461bcd60e51b815260206004820152602e60248201527f45524331393637557067726164653a206e657720696d706c656d656e7461746960448201526d6f6e206973206e6f74205555505360901b606482015260840161037d565b5f805160206152f28339815191528114612c685760405162461bcd60e51b815260206004820152602960248201527f45524331393637557067726164653a20756e737570706f727465642070726f786044820152681a58589b195555525160ba1b606482015260840161037d565b50610db1838383613917565b6001600160a01b0381166111c1578060405163084c41ef60e01b815260040161037d9190613dbe565b607a5460785460408051633629edcd60e11b815290516001600160a01b039384169363fc2ebdd193309387939190921691636c53db9a9160048083019260209291908290030181865afa158015612cf6573d5f803e3d5ffd5b505050506040513d601f19601f82011682018060405250810190612d1a9190614937565b60405160e085901b6001600160e01b03191681526001600160a01b039384166004820152602481019290925290911660448201526064015f604051808303815f87803b158015612d68575f80fd5b505af11580156110db573d5f803e3d5ffd5b5f8051602061526683398151915290565b603380546001600160a01b038381166001600160a01b0319831681179093556040519116919082905f80516020615332833981519152905f90a35050565b6067805460ff19168215159081179091556040519081527fd94c9bc4d43c51d8dc345a016d8e3d994432fac68e72832e4cf3a616bd8efae09060200160405180910390a150565b5f80805f19858709858702925082811083820303915050805f03612e4757838281612e3d57612e3d614bc7565b04925050506118d4565b808411612e8e5760405162461bcd60e51b81526020600482015260156024820152744d6174683a206d756c446976206f766572666c6f7760581b604482015260640161037d565b5f84868809600260036001881981018916988990049182028318808302840302808302840302808302840302808302840302808302840302918202909203025f889003889004909101858311909403939093029303949094049190911702949350505050565b6065546001600160a01b031633146110885760405163075fd2b160e01b815260040160405180910390fd5b612f27612ef4565b60685415612f485760405163439a74c960e01b815260040160405180910390fd5b805f03612f6857604051637fcce2a960e01b815260040160405180910390fd5b606855565b6040516001600160601b03193360601b166020820152603481018290525f908190605401604051602081830303815290604052805190602001209050611824848261393b565b5f804390508084600701541115612fcc57612fcc6151b3565b80846007015403612fe157505f905080613079565b73__$f1b7c69ba751c396eddc93d3bbc5414fd9$__63010dfe6485600701548361300b9190614c54565b60038701546074546040516001600160e01b031960e086901b1681526130379392918991600401614218565b602060405180830381865af4158015613052573d5f803e3d5ffd5b505050506040513d601f19601f820116820180604052508101906130769190614a75565b91505b9250929050565b6001600160a01b0382166130a957806040516302b8da0760e21b815260040161037d91906151c7565b5f6130b2612d7a565b90505f816001018054905090506130e184604051806060016040528060248152602001615286602491396139cf565b5f5b83518110156110db575f8482815181106130ff576130ff614c79565b6020908102919091018101516001600160e01b031981165f908152918690526040909120549091506001600160a01b03168015613151578160405163ebbf5d0760e01b815260040161037d9190613c0a565b6040805180820182526001600160a01b03808a16825261ffff80881660208085019182526001600160e01b031988165f9081528b8252958620945185549251909316600160a01b026001600160b01b0319909216929093169190911717909155600180880180549182018155835291206008820401805460e085901c60046007909416939093026101000a92830263ffffffff9093021916919091179055836131f981614c8d565b945050600190920191506130e39050565b5f613213612d7a565b90506001600160a01b03831661323e578160405163cd98a96f60e01b815260040161037d91906151c7565b61326083604051806060016040528060288152602001615379602891396139cf565b5f5b8251811015610f2e575f83828151811061327e5761327e614c79565b6020908102919091018101516001600160e01b031981165f908152918590526040909120549091506001600160a01b03163081036132d15781604051632901806d60e11b815260040161037d9190613c0a565b856001600160a01b0316816001600160a01b0316036133055781604051631ac6ce8d60e11b815260040161037d9190613c0a565b6001600160a01b03811661332e5781604051637479f93960e01b815260040161037d9190613c0a565b506001600160e01b0319165f90815260208390526040902080546001600160a01b0319166001600160a01b038616179055600101613262565b5f613370612d7a565b60018101549091506001600160a01b038416156133a2578360405163d091bc8160e01b815260040161037d9190613dbe565b5f5b83518110156110db575f8482815181106133c0576133c0614c79565b6020908102919091018101516001600160e01b031981165f9081528683526040908190208151808301909252546001600160a01b038116808352600160a01b90910461ffff1693820193909352909250906134305781604051637a08a22d60e01b815260040161037d9190613c0a565b8051306001600160a01b039091160361345e5781604051630df5fd6160e31b815260040161037d9190613c0a565b83613468816151d9565b94505083816020015161ffff1614613542575f85600101858154811061349057613490614c79565b905f5260205f2090600891828204019190066004029054906101000a900460e01b90508086600101836020015161ffff16815481106134d1576134d1614c79565b5f91825260208083206008830401805463ffffffff60079094166004026101000a938402191660e09590951c92909202939093179055838201516001600160e01b03199390931681529087905260409020805461ffff60a01b1916600160a01b61ffff909316929092029190911790555b84600101805480613555576135556151ee565b5f828152602080822060085f1990940193840401805463ffffffff600460078716026101000a0219169055919092556001600160e01b0319909316815291859052506040902080546001600160b01b03191690556001016133a4565b6001600160a01b0382166135da57806040516302b8da0760e21b815260040161037d91906151c7565b5f6135e3612d7a565b905061360783604051806060016040528060258152602001615241602591396139cf565b5f82516001600160401b0381111561362157613621613dd2565b60405190808252806020026020018201604052801561364a578160200160208202803683370190505b5090505f8084516001600160401b0381111561366857613668613dd2565b604051908082528060200260200182016040528015613691578160200160208202803683370190505b5090505f805b8651811015613780575f8782815181106136b3576136b3614c79565b6020908102919091018101516001600160e01b031981165f908152918990526040909120549091506001600160a01b031680613725578187876136f581614cad565b98508151811061370757613707614c79565b6001600160e01b031990921660209283029190910190910152613776565b896001600160a01b0316816001600160a01b0316146137765781858561374a81614cad565b96508151811061375c5761375c614c79565b6001600160e01b0319909216602092830291909101909101525b5050600101613697565b50821561379a5761379a8761379586866139f6565b613080565b80156137b3576137b3876137ae84846139f6565b61320a565b50505050505050565b6001600160a01b0382166137ce575050565b6137f0826040518060600160405280602881526020016152aa602891396139cf565b5f80836001600160a01b03168360405161380a9190615202565b5f60405180830381855af49150503d805f8114613842576040519150601f19603f3d011682016040523d82523d5f602084013e613847565b606091505b509150915081610f2e578051156138615780518082602001fd5b838360405163192105d760e01b815260040161037d92919061521d565b61388781612822565b6138e95760405162461bcd60e51b815260206004820152602d60248201527f455243313936373a206e657720696d706c656d656e746174696f6e206973206e60448201526c1bdd08184818dbdb9d1c9858dd609a1b606482015260840161037d565b5f805160206152f283398151915280546001600160a01b0319166001600160a01b0392909216919091179055565b61392083613a9c565b5f8251118061392c5750805b15610db157610f2e8383613adb565b5f763d602d80600a3d3981f3363d3d373d3d3d363d730000008360601b60e81c175f526e5af43d82803e903d91602b57fd5bf38360781b1760205281603760095ff590506001600160a01b0381166110eb5760405162461bcd60e51b8152602060048201526017602482015276115490cc4c4d8dce8818dc99585d194c8819985a5b1959604a1b604482015260640161037d565b813b5f819003610db157828260405163919834b960e01b815260040161037d92919061521d565b60605f826001600160401b03811115613a1157613a11613dd2565b604051908082528060200260200182016040528015613a3a578160200160208202803683370190505b5090505f5b83811015613a9457848181518110613a5957613a59614c79565b6020026020010151828281518110613a7357613a73614c79565b6001600160e01b031990921660209283029190910190910152600101613a3f565b509392505050565b613aa58161387e565b6040516001600160a01b038216907fbc7cd75a20ee27fd9adebab32041f755214dbc6bffa90cc0225b39da2e5c2d3b905f90a250565b60606118d483836040518060600160405280602781526020016153526027913960605f80856001600160a01b031685604051613b179190615202565b5f60405180830381855af49150503d805f8114613b4f576040519150601f19603f3d011682016040523d82523d5f602084013e613b54565b606091505b5091509150613b6586838387613b6f565b9695505050505050565b60608315613bdb5782515f03613bd457613b8885612822565b613bd45760405162461bcd60e51b815260206004820152601d60248201527f416464726573733a2063616c6c20746f206e6f6e2d636f6e7472616374000000604482015260640161037d565b5081611824565b6118248383815115613bf05781518083602001fd5b8060405162461bcd60e51b815260040161037d9190614c67565b6001600160e01b031991909116815260200190565b5f60208284031215613c2f575f80fd5b5035919050565b6001600160a01b03169052565b634e487b7160e01b5f52602160045260245ffd5b60078110613c6757613c67613c43565b9052565b5f5b83811015613c85578181015183820152602001613c6d565b50505f910152565b5f8151808452613ca4816020860160208601613c6b565b601f01601f19169290920160200192915050565b805182525f6020820151604060208501526118246040850182613c8d565b8e8152602081018e9052604081018d9052606081018c90526001600160a01b038b811660808301528a1660a08201525f613d1360c083018b613c36565b8860e0830152613d27610100830189613c57565b610200610120830152613d3e610200830188613cb8565b865161014084015260208701516101608401526040909601516001600160a01b0316610180830152506101a08101939093526101c08301919091526101e0909101529a9950505050505050505050565b80356001600160e01b031981168114611e0b575f80fd5b5f60208284031215613db5575f80fd5b6118d482613d8e565b6001600160a01b0391909116815260200190565b634e487b7160e01b5f52604160045260245ffd5b604080519081016001600160401b0381118282101715613e0857613e08613dd2565b60405290565b604051608081016001600160401b0381118282101715613e0857613e08613dd2565b60405160c081016001600160401b0381118282101715613e0857613e08613dd2565b604051606081016001600160401b0381118282101715613e0857613e08613dd2565b60405161016081016001600160401b0381118282101715613e0857613e08613dd2565b604051601f8201601f191681016001600160401b0381118282101715613ebf57613ebf613dd2565b604052919050565b5f6001600160401b03821115613edf57613edf613dd2565b5060051b60200190565b6001600160a01b03811681146111c1575f80fd5b8035611e0b81613ee9565b5f82601f830112613f17575f80fd5b81356020613f2c613f2783613ec7565b613e97565b8083825260208201915060208460051b870101935086841115613f4d575f80fd5b602086015b84811015613f72578035613f6581613ee9565b8352918301918301613f52565b509695505050505050565b5f6001600160401b03821115613f9557613f95613dd2565b50601f01601f191660200190565b5f82601f830112613fb2575f80fd5b8135613fc0613f2782613f7d565b818152846020838601011115613fd4575f80fd5b816020850160208301375f918101602001919091529392505050565b5f805f60608486031215614002575f80fd5b83356001600160401b0380821115614018575f80fd5b61402487838801613f08565b94506020860135915080821115614039575f80fd5b5061404686828701613fa3565b925050604084013561405781613ee9565b809150509250925092565b5f805f8060808587031215614075575f80fd5b8435935060208501356001600160401b0380821115614092575f80fd5b90860190604082890312156140a5575f80fd5b6140ad613de6565b823581526020830135828111156140c2575f80fd5b6140ce8a828601613fa3565b6020830152509450505060408501356140e681613ee9565b9396929550929360600135925050565b5f805f60608486031215614108575f80fd5b833561411381613ee9565b9250602084013561412381613ee9565b9150604084013561405781613ee9565b5f8083601f840112614143575f80fd5b5081356001600160401b03811115614159575f80fd5b602083019150836020828501011115613079575f80fd5b5f805f805f60608688031215614184575f80fd5b85356001600160401b038082111561419a575f80fd5b818801915088601f8301126141ad575f80fd5b8135818111156141bb575f80fd5b8960208260051b85010111156141cf575f80fd5b602083019750809650506141e560208901613efd565b945060408801359150808211156141fa575f80fd5b5061420788828901614133565b969995985093965092949392505050565b93845260208401929092526040830152606082015260800190565b5f8060408385031215614244575f80fd5b82356001600160401b03811115614259575f80fd5b61426585828601613fa3565b925050602083013561427681613ee9565b809150509250929050565b600481106111c1576111c1613c43565b613c6781614281565b602081016142a783614281565b91905290565b5f80604083850312156142be575f80fd5b82356142c981613ee9565b946020939093013593505050565b5f80604083850312156142e8575f80fd5b50508035926020909101359150565b60038110613c6757613c67613c43565b602081016110eb82846142f7565b5f60208284031215614325575f80fd5b81356118d481613ee9565b5f8060408385031215614341575f80fd5b823561434c81613ee9565b915060208301356001600160401b03811115614366575f80fd5b61437285828601613fa3565b9150509250929050565b5f805f6060848603121561438e575f80fd5b833561439981613ee9565b925060208401356001600160401b038111156143b3575f80fd5b61404686828701613fa3565b5f815180845260208085019450602084015f5b838110156143f85781516001600160e01b031916875295820195908201906001016143d2565b509495945050505050565b5f60208083018184528085518083526040925060408601915060408160051b8701018488015f5b8381101561447257888303603f19018552815180516001600160a01b0316845287015187840187905261445f878501826143bf565b958801959350509086019060010161442a565b509098975050505050505050565b5f805f805f60608688031215614494575f80fd5b8535945060208601356001600160401b03808211156144b1575f80fd5b6144bd89838a01614133565b909650945060408801359150808211156141fa575f80fd5b80151581146111c1575f80fd5b5f602082840312156144f2575f80fd5b81356118d4816144d5565b6001600160a01b038d811682528c811660208301528b166040820152606081018a905260808101899052610180810161453960a083018a613c57565b8760c08301528660e0830152856101008301528461012083015283610140830152826101608301529d9c50505050505050505050505050565b5f60808284031215614582575f80fd5b61458a613e0e565b90508135815260208201356020820152604082013560408201526060820135606082015292915050565b5f805f805f808688036101c08112156145cb575f80fd5b60c08112156145d8575f80fd5b506145e1613e30565b87356145ec81613ee9565b815260208801356145fc81613ee9565b8060208301525060408801356040820152606088013560608201526080880135608082015260a088013560a08201528096505061463c8860c08901614572565b945061014087013593506101608701356001600160401b0380821115614660575f80fd5b61466c8a838b01613f08565b9450610180890135915080821115614682575f80fd5b5061468f89828a01613f08565b92505061469f6101a08801613efd565b90509295509295509295565b5f80604083850312156146bc575f80fd5b82359150602083013561427681613ee9565b5f80604083850312156146df575f80fd5b8235915060208301356001600160401b03811115614366575f80fd5b5f6020828403121561470b575f80fd5b81516118d4816144d5565b600181811c9082168061472a57607f821691505b60208210810361474857634e487b7160e01b5f52602260045260245ffd5b50919050565b6020808252602e908201527f496e697469616c697a61626c653a20636f6e747261637420697320616c72656160408201526d191e481a5b9a5d1a585b1a5e995960921b606082015260800190565b600481106111c1575f80fd5b5f6147b5613f2784613ec7565b83815260208082019190600586811b8601368111156147d2575f80fd5b865b818110156148b85780356001600160401b03808211156147f2575f80fd5b818a01915060608236031215614806575f80fd5b61480e613e52565b823561481981613ee9565b8152828701356148288161479c565b818801526040838101358381111561483e575f80fd5b939093019236601f850112614851575f80fd5b83359250614861613f2784613ec7565b83815292871b8401880192888101903685111561487c575f80fd5b948901945b848610156148a15761489286613d8e565b82529489019490890190614881565b9183019190915250885250509483019483016147d4565b5092979650505050505050565b6020808252602c908201525f805160206152d283398151915260408201526b19195b1959d85d1958d85b1b60a21b606082015260800190565b6020808252602c908201525f805160206152d283398151915260408201526b6163746976652070726f787960a01b606082015260800190565b5f60208284031215614947575f80fd5b81516118d481613ee9565b8051611e0b81613ee9565b5f602080838503121561496e575f80fd5b82516001600160401b0380821115614984575f80fd5b9084019060c08287031215614997575f80fd5b61499f613e30565b82518152838301516149b081613ee9565b8185015260408301516149c281613ee9565b60408201526060830151828111156149d8575f80fd5b8301604081890312156149e9575f80fd5b6149f1613de6565b815181528582015184811115614a05575f80fd5b82019350601f84018913614a17575f80fd5b83519150614a27613f2783613f7d565b8281528987848701011115614a3a575f80fd5b614a4983888301898801613c6b565b95810195909552506060810193909352506080818101519083015260a090810151908201529392505050565b5f60208284031215614a85575f80fd5b5051919050565b5f60208284031215614a9c575f80fd5b815160ff811681146118d4575f80fd5b634e487b7160e01b5f52601160045260245ffd5b60ff82811682821603908111156110eb576110eb614aac565b600181815b80851115614b1357815f1904821115614af957614af9614aac565b80851615614b0657918102915b93841c9390800290614ade565b509250929050565b5f82614b29575060016110eb565b81614b3557505f6110eb565b8160018114614b4b5760028114614b5557614b71565b60019150506110eb565b60ff841115614b6657614b66614aac565b50506001821b6110eb565b5060208310610133831016604e8410600b8410161715614b94575081810a6110eb565b614b9e8383614ad9565b805f1904821115614bb157614bb1614aac565b029392505050565b5f6118d460ff841683614b1b565b634e487b7160e01b5f52601260045260245ffd5b5f82614bf557634e487b7160e01b5f52601260045260245ffd5b500490565b80820281158282048414176110eb576110eb614aac565b808201808211156110eb576110eb614aac565b968752602087019590955260408601939093526060850191909152608084015260a083015260c082015260e00190565b818103818111156110eb576110eb614aac565b602081525f6118d46020830184613c8d565b634e487b7160e01b5f52603260045260245ffd5b5f61ffff808316818103614ca357614ca3614aac565b6001019392505050565b5f60018201614cbe57614cbe614aac565b5060010190565b5f60808284031215614cd5575f80fd5b614cdd613e0e565b90508151815260208201516020820152604082015160408201526060820151606082015292915050565b805160038110611e0b575f80fd5b8051611e0b8161479c565b5f60208284031215614d30575f80fd5b604051602081016001600160401b0381118282101715614d5257614d52613dd2565b6040529151825250919050565b5f60c08284031215614d6f575f80fd5b614d77613e30565b90508151614d8481613ee9565b81526020820151614d9481613ee9565b8060208301525060408201516040820152606082015160608201526080820151608082015260a082015160a082015292915050565b5f82601f830112614dd8575f80fd5b81516020614de8613f2783613ec7565b8083825260208201915060208460051b870101935086841115614e09575f80fd5b602086015b84811015613f72578051614e2181613ee9565b8352918301918301614e0e565b5f60208284031215614e3e575f80fd5b81516001600160401b0380821115614e54575f80fd5b908301906102608286031215614e68575f80fd5b614e70613e74565b614e7a8684614cc5565b8152614e8860808401614d07565b6020820152614e9960a08401614d15565b6040820152614eab8660c08501614d20565b6060820152614ebd8660e08501614d5f565b6080820152614ecf6101a08401614952565b60a0820152614ee16101c08401614952565b60c08201526101e083015160e082015261020083015182811115614f03575f80fd5b614f0f87828601614dc9565b61010083015250614f236102208401614952565b6101208201526102409290920151610140830152509392505050565b805182526020810151602083015260408101516040830152606081015160608301525050565b5f815180845260208085019450602084015f5b838110156143f85781516001600160a01b031687529582019590820190600101614f78565b82815260406020820152614fb5604082018351614f3f565b5f6020830151614fc860c08401826142f7565b506040830151614fdb60e0840182614291565b506060830151610100614ff081850183519052565b60808581015180516001600160a01b0390811661012088810191909152602083015190911661014088015260408201516101608801526060820151610180880152918101516101a087015260a0908101516101c0870152860151925061505a6101e0860184613c36565b60c0860151925061506f610200860184613c36565b60e086015161022086015281860151925061026091508161024086015261509a6102a0860184614f65565b908601519092506150ad85830182613c36565b5050610140840151610280840152809150509392505050565b5f80604083850312156150d7575f80fd5b82516150e2816144d5565b602084015190925061427681613ee9565b608081016110eb8284614f3f565b5f60608083016060845280875180835260808601915060808160051b87010192506020808a015f5b8381101561518557888603607f19018552815180516001600160a01b031687528381015161515681614281565b87850152604090810151908701889052615172888801826143bf565b9650509382019390820190600101615129565b50506151938188018a613c36565b50505083810360408501526151a88186613c8d565b979650505050505050565b634e487b7160e01b5f52600160045260245ffd5b602081525f6118d460208301846143bf565b5f816151e7576151e7614aac565b505f190190565b634e487b7160e01b5f52603160045260245ffd5b5f8251615213818460208701613c6b565b9190910192915050565b6001600160a01b03831681526040602082018190525f9061182490830184613c8d56fe4c69624469616d6f6e644375743a204175746f20666163657420686173206e6f20636f6465c8fcad8db84d3cc18b4c41d551ea0ee66dd599cde068d998e57d5e09332c131c4c69624469616d6f6e644375743a2041646420666163657420686173206e6f20636f64654c69624469616d6f6e644375743a205f696e6974206164647265737320686173206e6f20636f646546756e6374696f6e206d7573742062652063616c6c6564207468726f75676820360894a13ba1a3210667c828492db98dca3e2076cc3735a920a3ca505d382bbc7f26b83ff96e1f2b6a682f133852f6798a09c465da95921460cefb38474024988be0079c531659141344cd1fd0a4f28419497f9722a3daafe3b4186f6b6457e0416464726573733a206c6f772d6c6576656c2064656c65676174652063616c6c206661696c65644c69624469616d6f6e644375743a205265706c61636520666163657420686173206e6f20636f6465a164736f6c6343000817000a","linkReferences":{"pkg/contracts/src/CVStrategy/ConvictionsUtils.sol":{"ConvictionsUtils":[{"start":6139,"length":20},{"start":6280,"length":20},{"start":8162,"length":20},{"start":12331,"length":20}]}}},"methodIdentifiers":{"DISPUTE_COOLDOWN_SEC()":"f5be3f7c","NATIVE()":"a0cf0aea","RULING_OPTIONS()":"626c47e8","activatePoints()":"814516ad","allocate(bytes,address)":"ef2920fc","arbitrableConfigs(uint256)":"41bb7605","calculateProposalConviction(uint256)":"60b0645a","calculateThreshold(uint256)":"59a5db8b","cancelProposal(uint256)":"e0a8f6f5","cloneNonce()":"33960459","collateralVault()":"0bece79c","connectSuperfluidGDA(address)":"924e6704","currentArbitrableConfigVersion()":"125fd1d9","cvParams()":"2506b870","deactivatePoints()":"1ddf1e23","deactivatePoints(address)":"6453d9c4","decreasePower(address,uint256)":"2ed04b2b","diamondCut((address,uint8,bytes4[])[],address,bytes)":"1f931c1c","disconnectSuperfluidGDA(address)":"c69271ec","disputeCount()":"a28889e1","disputeIdToProposalId(uint256)":"255ffb38","disputeProposal(uint256,string,bytes)":"b41596ec","distribute(address[],bytes,address)":"0a6f0ee9","editProposal(uint256,(uint256,string),address,uint256)":"141e3b38","getAllo()":"15cc481e","getArbitrableConfig()":"059351cd","getFacets()":"662ea47d","getMaxAmount()":"0ba95909","getPointSystem()":"c3292171","getPoolAmount()":"4ab4ba42","getPoolId()":"38fff2d0","getProposal(uint256)":"c7f758a8","getProposalStakedAmount(uint256)":"dc96ff2d","getProposalVoterStake(uint256,address)":"e0dd2c38","increasePower(address,uint256)":"782aadff","init(address,address,address)":"184b9559","init(address,string,address)":"60d5dedc","initialize(address)":"c4d66de8","initialize(uint256,bytes)":"edd146cc","isPoolActive()":"df868ed3","owner()":"8da5cb5b","pointConfig()":"a47ff7e5","pointSystem()":"2dbd6fdd","proposalCounter()":"0c0512e9","proposalType()":"351d9f96","proposals(uint256)":"013cf08b","proxiableUUID()":"52d1902d","proxyOwner()":"025313a2","rebalance()":"7d7c2a1c","registerRecipient(bytes,address)":"2bbe0cae","registryCommunity()":"6003e414","renounceOwnership()":"715018a6","rule(uint256,uint256)":"311a6c56","setCollateralVaultTemplate(address)":"b0d3713a","setPoolActive(bool)":"b5f620ce","setPoolParams((address,address,uint256,uint256,uint256,uint256),(uint256,uint256,uint256,uint256),uint256,address[],address[],address)":"d5b7cc54","setSybilScorer(address,uint256)":"3864d366","streamingRatePerSecond()":"94573cbb","superfluidGDA()":"1b36f56f","superfluidToken()":"05caa7f3","supportsInterface(bytes4)":"01ffc9a7","sybilScorer()":"b6c61f31","totalPointsActivated()":"aba9ffee","totalStaked()":"817b1cd2","totalVoterStakePct(address)":"5db64b99","transferOwnership(address)":"f2fde38b","updateProposalConviction(uint256)":"1aa91a9e","upgradeTo(address)":"3659cfe6","upgradeToAndCall(address,bytes)":"4f1ef286","voterStakedProposals(address,uint256)":"868c57b8"},"storageLayout":{"storage":[{"astId":53054,"contract":"pkg/contracts/src/CVStrategy/CVStrategy.sol:CVStrategy","label":"_initialized","offset":0,"slot":"0","type":"t_uint8"},{"astId":53057,"contract":"pkg/contracts/src/CVStrategy/CVStrategy.sol:CVStrategy","label":"_initializing","offset":1,"slot":"0","type":"t_bool"},{"astId":53759,"contract":"pkg/contracts/src/CVStrategy/CVStrategy.sol:CVStrategy","label":"__gap","offset":0,"slot":"1","type":"t_array(t_uint256)50_storage"},{"astId":52846,"contract":"pkg/contracts/src/CVStrategy/CVStrategy.sol:CVStrategy","label":"_owner","offset":0,"slot":"51","type":"t_address"},{"astId":52966,"contract":"pkg/contracts/src/CVStrategy/CVStrategy.sol:CVStrategy","label":"__gap","offset":0,"slot":"52","type":"t_array(t_uint256)49_storage"},{"astId":98981,"contract":"pkg/contracts/src/CVStrategy/CVStrategy.sol:CVStrategy","label":"allo","offset":0,"slot":"101","type":"t_contract(IAllo)2631"},{"astId":98983,"contract":"pkg/contracts/src/CVStrategy/CVStrategy.sol:CVStrategy","label":"strategyId","offset":0,"slot":"102","type":"t_bytes32"},{"astId":98985,"contract":"pkg/contracts/src/CVStrategy/CVStrategy.sol:CVStrategy","label":"poolActive","offset":0,"slot":"103","type":"t_bool"},{"astId":98987,"contract":"pkg/contracts/src/CVStrategy/CVStrategy.sol:CVStrategy","label":"poolId","offset":0,"slot":"104","type":"t_uint256"},{"astId":98989,"contract":"pkg/contracts/src/CVStrategy/CVStrategy.sol:CVStrategy","label":"poolAmount","offset":0,"slot":"105","type":"t_uint256"},{"astId":99620,"contract":"pkg/contracts/src/CVStrategy/CVStrategy.sol:CVStrategy","label":"collateralVaultTemplate","offset":0,"slot":"106","type":"t_address"},{"astId":99622,"contract":"pkg/contracts/src/CVStrategy/CVStrategy.sol:CVStrategy","label":"surpressStateMutabilityWarning","offset":0,"slot":"107","type":"t_uint256"},{"astId":99624,"contract":"pkg/contracts/src/CVStrategy/CVStrategy.sol:CVStrategy","label":"cloneNonce","offset":0,"slot":"108","type":"t_uint256"},{"astId":99626,"contract":"pkg/contracts/src/CVStrategy/CVStrategy.sol:CVStrategy","label":"disputeCount","offset":0,"slot":"109","type":"t_uint64"},{"astId":99628,"contract":"pkg/contracts/src/CVStrategy/CVStrategy.sol:CVStrategy","label":"proposalCounter","offset":0,"slot":"110","type":"t_uint256"},{"astId":99630,"contract":"pkg/contracts/src/CVStrategy/CVStrategy.sol:CVStrategy","label":"currentArbitrableConfigVersion","offset":0,"slot":"111","type":"t_uint256"},{"astId":99632,"contract":"pkg/contracts/src/CVStrategy/CVStrategy.sol:CVStrategy","label":"totalStaked","offset":0,"slot":"112","type":"t_uint256"},{"astId":99634,"contract":"pkg/contracts/src/CVStrategy/CVStrategy.sol:CVStrategy","label":"totalPointsActivated","offset":0,"slot":"113","type":"t_uint256"},{"astId":99637,"contract":"pkg/contracts/src/CVStrategy/CVStrategy.sol:CVStrategy","label":"cvParams","offset":0,"slot":"114","type":"t_struct(CVParams)103180_storage"},{"astId":99640,"contract":"pkg/contracts/src/CVStrategy/CVStrategy.sol:CVStrategy","label":"proposalType","offset":0,"slot":"118","type":"t_enum(ProposalType)103081"},{"astId":99643,"contract":"pkg/contracts/src/CVStrategy/CVStrategy.sol:CVStrategy","label":"pointSystem","offset":1,"slot":"118","type":"t_enum(PointSystem)103086"},{"astId":99646,"contract":"pkg/contracts/src/CVStrategy/CVStrategy.sol:CVStrategy","label":"pointConfig","offset":0,"slot":"119","type":"t_struct(PointSystemConfig)103157_storage"},{"astId":99649,"contract":"pkg/contracts/src/CVStrategy/CVStrategy.sol:CVStrategy","label":"registryCommunity","offset":0,"slot":"120","type":"t_contract(RegistryCommunity)111435"},{"astId":99652,"contract":"pkg/contracts/src/CVStrategy/CVStrategy.sol:CVStrategy","label":"collateralVault","offset":0,"slot":"121","type":"t_contract(ICollateralVault)116894"},{"astId":99655,"contract":"pkg/contracts/src/CVStrategy/CVStrategy.sol:CVStrategy","label":"sybilScorer","offset":0,"slot":"122","type":"t_contract(ISybilScorer)108850"},{"astId":99660,"contract":"pkg/contracts/src/CVStrategy/CVStrategy.sol:CVStrategy","label":"proposals","offset":0,"slot":"123","type":"t_mapping(t_uint256,t_struct(Proposal)103149_storage)"},{"astId":99664,"contract":"pkg/contracts/src/CVStrategy/CVStrategy.sol:CVStrategy","label":"totalVoterStakePct","offset":0,"slot":"124","type":"t_mapping(t_address,t_uint256)"},{"astId":99669,"contract":"pkg/contracts/src/CVStrategy/CVStrategy.sol:CVStrategy","label":"voterStakedProposals","offset":0,"slot":"125","type":"t_mapping(t_address,t_array(t_uint256)dyn_storage)"},{"astId":99673,"contract":"pkg/contracts/src/CVStrategy/CVStrategy.sol:CVStrategy","label":"disputeIdToProposalId","offset":0,"slot":"126","type":"t_mapping(t_uint256,t_uint256)"},{"astId":99678,"contract":"pkg/contracts/src/CVStrategy/CVStrategy.sol:CVStrategy","label":"arbitrableConfigs","offset":0,"slot":"127","type":"t_mapping(t_uint256,t_struct(ArbitrableConfig)103171_storage)"},{"astId":99681,"contract":"pkg/contracts/src/CVStrategy/CVStrategy.sol:CVStrategy","label":"superfluidToken","offset":0,"slot":"128","type":"t_contract(ISuperToken)80140"},{"astId":99684,"contract":"pkg/contracts/src/CVStrategy/CVStrategy.sol:CVStrategy","label":"superfluidGDA","offset":0,"slot":"129","type":"t_contract(ISuperfluidPool)78968"},{"astId":99686,"contract":"pkg/contracts/src/CVStrategy/CVStrategy.sol:CVStrategy","label":"streamingRatePerSecond","offset":0,"slot":"130","type":"t_uint256"},{"astId":101706,"contract":"pkg/contracts/src/CVStrategy/CVStrategy.sol:CVStrategy","label":"__gap","offset":0,"slot":"131","type":"t_array(t_uint256)49_storage"}],"types":{"t_address":{"encoding":"inplace","label":"address","numberOfBytes":"20"},"t_array(t_uint256)49_storage":{"encoding":"inplace","label":"uint256[49]","numberOfBytes":"1568","base":"t_uint256"},"t_array(t_uint256)50_storage":{"encoding":"inplace","label":"uint256[50]","numberOfBytes":"1600","base":"t_uint256"},"t_array(t_uint256)dyn_storage":{"encoding":"dynamic_array","label":"uint256[]","numberOfBytes":"32","base":"t_uint256"},"t_bool":{"encoding":"inplace","label":"bool","numberOfBytes":"1"},"t_bytes32":{"encoding":"inplace","label":"bytes32","numberOfBytes":"32"},"t_contract(IAllo)2631":{"encoding":"inplace","label":"contract IAllo","numberOfBytes":"20"},"t_contract(IArbitrator)116861":{"encoding":"inplace","label":"contract IArbitrator","numberOfBytes":"20"},"t_contract(ICollateralVault)116894":{"encoding":"inplace","label":"contract ICollateralVault","numberOfBytes":"20"},"t_contract(ISuperToken)80140":{"encoding":"inplace","label":"contract ISuperToken","numberOfBytes":"20"},"t_contract(ISuperfluidPool)78968":{"encoding":"inplace","label":"contract ISuperfluidPool","numberOfBytes":"20"},"t_contract(ISybilScorer)108850":{"encoding":"inplace","label":"contract ISybilScorer","numberOfBytes":"20"},"t_contract(RegistryCommunity)111435":{"encoding":"inplace","label":"contract RegistryCommunity","numberOfBytes":"20"},"t_enum(PointSystem)103086":{"encoding":"inplace","label":"enum PointSystem","numberOfBytes":"1"},"t_enum(ProposalStatus)103106":{"encoding":"inplace","label":"enum ProposalStatus","numberOfBytes":"1"},"t_enum(ProposalType)103081":{"encoding":"inplace","label":"enum ProposalType","numberOfBytes":"1"},"t_mapping(t_address,t_array(t_uint256)dyn_storage)":{"encoding":"mapping","key":"t_address","label":"mapping(address => uint256[])","numberOfBytes":"32","value":"t_array(t_uint256)dyn_storage"},"t_mapping(t_address,t_uint256)":{"encoding":"mapping","key":"t_address","label":"mapping(address => uint256)","numberOfBytes":"32","value":"t_uint256"},"t_mapping(t_uint256,t_struct(ArbitrableConfig)103171_storage)":{"encoding":"mapping","key":"t_uint256","label":"mapping(uint256 => struct ArbitrableConfig)","numberOfBytes":"32","value":"t_struct(ArbitrableConfig)103171_storage"},"t_mapping(t_uint256,t_struct(Proposal)103149_storage)":{"encoding":"mapping","key":"t_uint256","label":"mapping(uint256 => struct Proposal)","numberOfBytes":"32","value":"t_struct(Proposal)103149_storage"},"t_mapping(t_uint256,t_uint256)":{"encoding":"mapping","key":"t_uint256","label":"mapping(uint256 => uint256)","numberOfBytes":"32","value":"t_uint256"},"t_string_storage":{"encoding":"bytes","label":"string","numberOfBytes":"32"},"t_struct(ArbitrableConfig)103171_storage":{"encoding":"inplace","label":"struct ArbitrableConfig","numberOfBytes":"192","members":[{"astId":103160,"contract":"pkg/contracts/src/CVStrategy/CVStrategy.sol:CVStrategy","label":"arbitrator","offset":0,"slot":"0","type":"t_contract(IArbitrator)116861"},{"astId":103162,"contract":"pkg/contracts/src/CVStrategy/CVStrategy.sol:CVStrategy","label":"tribunalSafe","offset":0,"slot":"1","type":"t_address"},{"astId":103164,"contract":"pkg/contracts/src/CVStrategy/CVStrategy.sol:CVStrategy","label":"submitterCollateralAmount","offset":0,"slot":"2","type":"t_uint256"},{"astId":103166,"contract":"pkg/contracts/src/CVStrategy/CVStrategy.sol:CVStrategy","label":"challengerCollateralAmount","offset":0,"slot":"3","type":"t_uint256"},{"astId":103168,"contract":"pkg/contracts/src/CVStrategy/CVStrategy.sol:CVStrategy","label":"defaultRuling","offset":0,"slot":"4","type":"t_uint256"},{"astId":103170,"contract":"pkg/contracts/src/CVStrategy/CVStrategy.sol:CVStrategy","label":"defaultRulingTimeout","offset":0,"slot":"5","type":"t_uint256"}]},"t_struct(CVParams)103180_storage":{"encoding":"inplace","label":"struct CVParams","numberOfBytes":"128","members":[{"astId":103173,"contract":"pkg/contracts/src/CVStrategy/CVStrategy.sol:CVStrategy","label":"maxRatio","offset":0,"slot":"0","type":"t_uint256"},{"astId":103175,"contract":"pkg/contracts/src/CVStrategy/CVStrategy.sol:CVStrategy","label":"weight","offset":0,"slot":"1","type":"t_uint256"},{"astId":103177,"contract":"pkg/contracts/src/CVStrategy/CVStrategy.sol:CVStrategy","label":"decay","offset":0,"slot":"2","type":"t_uint256"},{"astId":103179,"contract":"pkg/contracts/src/CVStrategy/CVStrategy.sol:CVStrategy","label":"minThresholdPoints","offset":0,"slot":"3","type":"t_uint256"}]},"t_struct(Metadata)3086_storage":{"encoding":"inplace","label":"struct Metadata","numberOfBytes":"64","members":[{"astId":3082,"contract":"pkg/contracts/src/CVStrategy/CVStrategy.sol:CVStrategy","label":"protocol","offset":0,"slot":"0","type":"t_uint256"},{"astId":3085,"contract":"pkg/contracts/src/CVStrategy/CVStrategy.sol:CVStrategy","label":"pointer","offset":0,"slot":"1","type":"t_string_storage"}]},"t_struct(PointSystemConfig)103157_storage":{"encoding":"inplace","label":"struct PointSystemConfig","numberOfBytes":"32","members":[{"astId":103156,"contract":"pkg/contracts/src/CVStrategy/CVStrategy.sol:CVStrategy","label":"maxAmount","offset":0,"slot":"0","type":"t_uint256"}]},"t_struct(Proposal)103149_storage":{"encoding":"inplace","label":"struct Proposal","numberOfBytes":"576","members":[{"astId":103115,"contract":"pkg/contracts/src/CVStrategy/CVStrategy.sol:CVStrategy","label":"proposalId","offset":0,"slot":"0","type":"t_uint256"},{"astId":103117,"contract":"pkg/contracts/src/CVStrategy/CVStrategy.sol:CVStrategy","label":"requestedAmount","offset":0,"slot":"1","type":"t_uint256"},{"astId":103119,"contract":"pkg/contracts/src/CVStrategy/CVStrategy.sol:CVStrategy","label":"stakedAmount","offset":0,"slot":"2","type":"t_uint256"},{"astId":103121,"contract":"pkg/contracts/src/CVStrategy/CVStrategy.sol:CVStrategy","label":"convictionLast","offset":0,"slot":"3","type":"t_uint256"},{"astId":103123,"contract":"pkg/contracts/src/CVStrategy/CVStrategy.sol:CVStrategy","label":"beneficiary","offset":0,"slot":"4","type":"t_address"},{"astId":103125,"contract":"pkg/contracts/src/CVStrategy/CVStrategy.sol:CVStrategy","label":"submitter","offset":0,"slot":"5","type":"t_address"},{"astId":103127,"contract":"pkg/contracts/src/CVStrategy/CVStrategy.sol:CVStrategy","label":"requestedToken","offset":0,"slot":"6","type":"t_address"},{"astId":103129,"contract":"pkg/contracts/src/CVStrategy/CVStrategy.sol:CVStrategy","label":"blockLast","offset":0,"slot":"7","type":"t_uint256"},{"astId":103132,"contract":"pkg/contracts/src/CVStrategy/CVStrategy.sol:CVStrategy","label":"proposalStatus","offset":0,"slot":"8","type":"t_enum(ProposalStatus)103106"},{"astId":103136,"contract":"pkg/contracts/src/CVStrategy/CVStrategy.sol:CVStrategy","label":"voterStakedPoints","offset":0,"slot":"9","type":"t_mapping(t_address,t_uint256)"},{"astId":103139,"contract":"pkg/contracts/src/CVStrategy/CVStrategy.sol:CVStrategy","label":"metadata","offset":0,"slot":"10","type":"t_struct(Metadata)3086_storage"},{"astId":103142,"contract":"pkg/contracts/src/CVStrategy/CVStrategy.sol:CVStrategy","label":"disputeInfo","offset":0,"slot":"12","type":"t_struct(ProposalDisputeInfo)103113_storage"},{"astId":103144,"contract":"pkg/contracts/src/CVStrategy/CVStrategy.sol:CVStrategy","label":"lastDisputeCompletion","offset":0,"slot":"15","type":"t_uint256"},{"astId":103146,"contract":"pkg/contracts/src/CVStrategy/CVStrategy.sol:CVStrategy","label":"arbitrableConfigVersion","offset":0,"slot":"16","type":"t_uint256"},{"astId":103148,"contract":"pkg/contracts/src/CVStrategy/CVStrategy.sol:CVStrategy","label":"creationTimestamp","offset":0,"slot":"17","type":"t_uint256"}]},"t_struct(ProposalDisputeInfo)103113_storage":{"encoding":"inplace","label":"struct ProposalDisputeInfo","numberOfBytes":"96","members":[{"astId":103108,"contract":"pkg/contracts/src/CVStrategy/CVStrategy.sol:CVStrategy","label":"disputeId","offset":0,"slot":"0","type":"t_uint256"},{"astId":103110,"contract":"pkg/contracts/src/CVStrategy/CVStrategy.sol:CVStrategy","label":"disputeTimestamp","offset":0,"slot":"1","type":"t_uint256"},{"astId":103112,"contract":"pkg/contracts/src/CVStrategy/CVStrategy.sol:CVStrategy","label":"challenger","offset":0,"slot":"2","type":"t_address"}]},"t_uint256":{"encoding":"inplace","label":"uint256","numberOfBytes":"32"},"t_uint64":{"encoding":"inplace","label":"uint64","numberOfBytes":"8"},"t_uint8":{"encoding":"inplace","label":"uint8","numberOfBytes":"1"}}},"id":163}