{"abi":[{"type":"constructor","inputs":[{"name":"_allo","type":"address","internalType":"address"}],"stateMutability":"nonpayable"},{"type":"fallback","stateMutability":"payable"},{"type":"receive","stateMutability":"payable"},{"type":"function","name":"D","inputs":[],"outputs":[{"name":"","type":"uint256","internalType":"uint256"}],"stateMutability":"view"},{"type":"function","name":"MAX_STAKED_PROPOSALS","inputs":[],"outputs":[{"name":"","type":"uint256","internalType":"uint256"}],"stateMutability":"view"},{"type":"function","name":"NATIVE","inputs":[],"outputs":[{"name":"","type":"address","internalType":"address"}],"stateMutability":"view"},{"type":"function","name":"RULING_OPTIONS","inputs":[],"outputs":[{"name":"","type":"uint256","internalType":"uint256"}],"stateMutability":"view"},{"type":"function","name":"_minThresholdPoints","inputs":[],"outputs":[{"name":"","type":"uint256","internalType":"uint256"}],"stateMutability":"view"},{"type":"function","name":"activatePoints","inputs":[],"outputs":[],"stateMutability":"nonpayable"},{"type":"function","name":"allocate","inputs":[{"name":"_data","type":"bytes","internalType":"bytes"},{"name":"_sender","type":"address","internalType":"address"}],"outputs":[],"stateMutability":"payable"},{"type":"function","name":"arbitrableConfig","inputs":[],"outputs":[{"name":"arbitrator","type":"address","internalType":"contract IArbitrator"},{"name":"tribunalSafe","type":"address","internalType":"address"},{"name":"submitterCollateralAmount","type":"uint256","internalType":"uint256"},{"name":"challengerCollateralAmount","type":"uint256","internalType":"uint256"},{"name":"defaultRuling","type":"uint256","internalType":"uint256"},{"name":"defaultRulingTimeout","type":"uint256","internalType":"uint256"},{"name":"collateralVaultTemplate","type":"address","internalType":"address"}],"stateMutability":"view"},{"type":"function","name":"calculateConviction","inputs":[{"name":"_timePassed","type":"uint256","internalType":"uint256"},{"name":"_lastConv","type":"uint256","internalType":"uint256"},{"name":"_oldAmount","type":"uint256","internalType":"uint256"}],"outputs":[{"name":"","type":"uint256","internalType":"uint256"}],"stateMutability":"view"},{"type":"function","name":"calculateThreshold","inputs":[{"name":"_requestedAmount","type":"uint256","internalType":"uint256"}],"outputs":[{"name":"_threshold","type":"uint256","internalType":"uint256"}],"stateMutability":"view"},{"type":"function","name":"canExecuteProposal","inputs":[{"name":"proposalId","type":"uint256","internalType":"uint256"}],"outputs":[{"name":"canBeExecuted","type":"bool","internalType":"bool"}],"stateMutability":"view"},{"type":"function","name":"cloneNonce","inputs":[],"outputs":[{"name":"","type":"uint256","internalType":"uint256"}],"stateMutability":"view"},{"type":"function","name":"collateralVault","inputs":[],"outputs":[{"name":"","type":"address","internalType":"address"}],"stateMutability":"view"},{"type":"function","name":"deactivatePoints","inputs":[],"outputs":[],"stateMutability":"nonpayable"},{"type":"function","name":"deactivatePoints","inputs":[{"name":"_member","type":"address","internalType":"address"}],"outputs":[],"stateMutability":"nonpayable"},{"type":"function","name":"decay","inputs":[],"outputs":[{"name":"","type":"uint256","internalType":"uint256"}],"stateMutability":"view"},{"type":"function","name":"decreasePower","inputs":[{"name":"_member","type":"address","internalType":"address"},{"name":"_amountToUnstake","type":"uint256","internalType":"uint256"}],"outputs":[{"name":"","type":"uint256","internalType":"uint256"}],"stateMutability":"nonpayable"},{"type":"function","name":"disputeIdToProposalId","inputs":[{"name":"","type":"uint256","internalType":"uint256"}],"outputs":[{"name":"","type":"uint256","internalType":"uint256"}],"stateMutability":"view"},{"type":"function","name":"disputeProposal","inputs":[{"name":"proposalId","type":"uint256","internalType":"uint256"},{"name":"context","type":"string","internalType":"string"},{"name":"_extraData","type":"bytes","internalType":"bytes"}],"outputs":[],"stateMutability":"payable"},{"type":"function","name":"distribute","inputs":[{"name":"_recipientIds","type":"address[]","internalType":"address[]"},{"name":"_data","type":"bytes","internalType":"bytes"},{"name":"_sender","type":"address","internalType":"address"}],"outputs":[],"stateMutability":"nonpayable"},{"type":"function","name":"getAllo","inputs":[],"outputs":[{"name":"","type":"address","internalType":"contract IAllo"}],"stateMutability":"view"},{"type":"function","name":"getCollateralVault","inputs":[],"outputs":[{"name":"","type":"address","internalType":"address"}],"stateMutability":"view"},{"type":"function","name":"getMaxAmount","inputs":[],"outputs":[{"name":"","type":"uint256","internalType":"uint256"}],"stateMutability":"view"},{"type":"function","name":"getMaxConviction","inputs":[{"name":"amount","type":"uint256","internalType":"uint256"}],"outputs":[{"name":"","type":"uint256","internalType":"uint256"}],"stateMutability":"view"},{"type":"function","name":"getMetadata","inputs":[{"name":"_proposalId","type":"uint256","internalType":"uint256"}],"outputs":[{"name":"","type":"tuple","internalType":"struct Metadata","components":[{"name":"protocol","type":"uint256","internalType":"uint256"},{"name":"pointer","type":"string","internalType":"string"}]}],"stateMutability":"view"},{"type":"function","name":"getPayouts","inputs":[{"name":"","type":"address[]","internalType":"address[]"},{"name":"","type":"bytes[]","internalType":"bytes[]"}],"outputs":[{"name":"","type":"tuple[]","internalType":"struct IStrategy.PayoutSummary[]","components":[{"name":"recipientAddress","type":"address","internalType":"address"},{"name":"amount","type":"uint256","internalType":"uint256"}]}],"stateMutability":"pure"},{"type":"function","name":"getPointSystem","inputs":[],"outputs":[{"name":"","type":"uint8","internalType":"enum StrategyStruct.PointSystem"}],"stateMutability":"view"},{"type":"function","name":"getPoolAmount","inputs":[],"outputs":[{"name":"","type":"uint256","internalType":"uint256"}],"stateMutability":"view"},{"type":"function","name":"getPoolId","inputs":[],"outputs":[{"name":"","type":"uint256","internalType":"uint256"}],"stateMutability":"view"},{"type":"function","name":"getProposal","inputs":[{"name":"_proposalId","type":"uint256","internalType":"uint256"}],"outputs":[{"name":"submitter","type":"address","internalType":"address"},{"name":"beneficiary","type":"address","internalType":"address"},{"name":"requestedToken","type":"address","internalType":"address"},{"name":"requestedAmount","type":"uint256","internalType":"uint256"},{"name":"stakedAmount","type":"uint256","internalType":"uint256"},{"name":"proposalStatus","type":"uint8","internalType":"enum StrategyStruct.ProposalStatus"},{"name":"blockLast","type":"uint256","internalType":"uint256"},{"name":"convictionLast","type":"uint256","internalType":"uint256"},{"name":"threshold","type":"uint256","internalType":"uint256"},{"name":"voterStakedPoints","type":"uint256","internalType":"uint256"}],"stateMutability":"view"},{"type":"function","name":"getProposalStakedAmount","inputs":[{"name":"_proposalId","type":"uint256","internalType":"uint256"}],"outputs":[{"name":"","type":"uint256","internalType":"uint256"}],"stateMutability":"view"},{"type":"function","name":"getProposalVoterStake","inputs":[{"name":"_proposalId","type":"uint256","internalType":"uint256"},{"name":"_voter","type":"address","internalType":"address"}],"outputs":[{"name":"","type":"uint256","internalType":"uint256"}],"stateMutability":"view"},{"type":"function","name":"getRecipientStatus","inputs":[{"name":"_recipientId","type":"address","internalType":"address"}],"outputs":[{"name":"","type":"uint8","internalType":"enum IStrategy.Status"}],"stateMutability":"view"},{"type":"function","name":"getStrategyId","inputs":[],"outputs":[{"name":"","type":"bytes32","internalType":"bytes32"}],"stateMutability":"view"},{"type":"function","name":"getTotalVoterStakePct","inputs":[{"name":"_voter","type":"address","internalType":"address"}],"outputs":[{"name":"","type":"uint256","internalType":"uint256"}],"stateMutability":"view"},{"type":"function","name":"increasePoolAmount","inputs":[{"name":"_amount","type":"uint256","internalType":"uint256"}],"outputs":[],"stateMutability":"nonpayable"},{"type":"function","name":"increasePower","inputs":[{"name":"_member","type":"address","internalType":"address"},{"name":"_amountToStake","type":"uint256","internalType":"uint256"}],"outputs":[{"name":"","type":"uint256","internalType":"uint256"}],"stateMutability":"nonpayable"},{"type":"function","name":"initialize","inputs":[{"name":"_poolId","type":"uint256","internalType":"uint256"},{"name":"_data","type":"bytes","internalType":"bytes"}],"outputs":[],"stateMutability":"nonpayable"},{"type":"function","name":"isPoolActive","inputs":[],"outputs":[{"name":"","type":"bool","internalType":"bool"}],"stateMutability":"view"},{"type":"function","name":"isValidAllocator","inputs":[{"name":"_allocator","type":"address","internalType":"address"}],"outputs":[{"name":"","type":"bool","internalType":"bool"}],"stateMutability":"view"},{"type":"function","name":"maxRatio","inputs":[],"outputs":[{"name":"","type":"uint256","internalType":"uint256"}],"stateMutability":"view"},{"type":"function","name":"pointConfig","inputs":[],"outputs":[{"name":"maxAmount","type":"uint256","internalType":"uint256"}],"stateMutability":"view"},{"type":"function","name":"pointSystem","inputs":[],"outputs":[{"name":"","type":"uint8","internalType":"enum StrategyStruct.PointSystem"}],"stateMutability":"view"},{"type":"function","name":"proposalCounter","inputs":[],"outputs":[{"name":"","type":"uint256","internalType":"uint256"}],"stateMutability":"view"},{"type":"function","name":"proposalType","inputs":[],"outputs":[{"name":"","type":"uint8","internalType":"enum StrategyStruct.ProposalType"}],"stateMutability":"view"},{"type":"function","name":"proposals","inputs":[{"name":"","type":"uint256","internalType":"uint256"}],"outputs":[{"name":"proposalId","type":"uint256","internalType":"uint256"},{"name":"requestedAmount","type":"uint256","internalType":"uint256"},{"name":"stakedAmount","type":"uint256","internalType":"uint256"},{"name":"convictionLast","type":"uint256","internalType":"uint256"},{"name":"beneficiary","type":"address","internalType":"address"},{"name":"submitter","type":"address","internalType":"address"},{"name":"requestedToken","type":"address","internalType":"address"},{"name":"blockLast","type":"uint256","internalType":"uint256"},{"name":"proposalStatus","type":"uint8","internalType":"enum StrategyStruct.ProposalStatus"},{"name":"metadata","type":"tuple","internalType":"struct Metadata","components":[{"name":"protocol","type":"uint256","internalType":"uint256"},{"name":"pointer","type":"string","internalType":"string"}]},{"name":"disputeId","type":"uint256","internalType":"uint256"},{"name":"disputeTimestamp","type":"uint256","internalType":"uint256"},{"name":"challenger","type":"address","internalType":"address"}],"stateMutability":"view"},{"type":"function","name":"registerRecipient","inputs":[{"name":"_data","type":"bytes","internalType":"bytes"},{"name":"_sender","type":"address","internalType":"address"}],"outputs":[{"name":"recipientId","type":"address","internalType":"address"}],"stateMutability":"payable"},{"type":"function","name":"registerTribunalSafe","inputs":[{"name":"_tribunalSafe","type":"address","internalType":"address"}],"outputs":[],"stateMutability":"nonpayable"},{"type":"function","name":"registryCommunity","inputs":[],"outputs":[{"name":"","type":"address","internalType":"contract RegistryCommunity"}],"stateMutability":"view"},{"type":"function","name":"rule","inputs":[{"name":"_disputeID","type":"uint256","internalType":"uint256"},{"name":"_ruling","type":"uint256","internalType":"uint256"}],"outputs":[],"stateMutability":"nonpayable"},{"type":"function","name":"setArbitrationConfig","inputs":[{"name":"_arbitrableConfig","type":"tuple","internalType":"struct StrategyStruct.ArbitrableConfig","components":[{"name":"arbitrator","type":"address","internalType":"contract IArbitrator"},{"name":"tribunalSafe","type":"address","internalType":"address"},{"name":"submitterCollateralAmount","type":"uint256","internalType":"uint256"},{"name":"challengerCollateralAmount","type":"uint256","internalType":"uint256"},{"name":"defaultRuling","type":"uint256","internalType":"uint256"},{"name":"defaultRulingTimeout","type":"uint256","internalType":"uint256"},{"name":"collateralVaultTemplate","type":"address","internalType":"address"}]}],"outputs":[],"stateMutability":"nonpayable"},{"type":"function","name":"setCollateralVault","inputs":[{"name":"_collateralVault","type":"address","internalType":"address"}],"outputs":[],"stateMutability":"nonpayable"},{"type":"function","name":"setDecay","inputs":[{"name":"_decay","type":"uint256","internalType":"uint256"}],"outputs":[],"stateMutability":"nonpayable"},{"type":"function","name":"setMaxRatio","inputs":[{"name":"_maxRatio","type":"uint256","internalType":"uint256"}],"outputs":[],"stateMutability":"nonpayable"},{"type":"function","name":"setMinThresholdPoints","inputs":[{"name":"minThresholdPoints_","type":"uint256","internalType":"uint256"}],"outputs":[],"stateMutability":"nonpayable"},{"type":"function","name":"setPoolActive","inputs":[{"name":"_active","type":"bool","internalType":"bool"}],"outputs":[],"stateMutability":"nonpayable"},{"type":"function","name":"setRegistryCommunity","inputs":[{"name":"_registryCommunity","type":"address","internalType":"address"}],"outputs":[],"stateMutability":"nonpayable"},{"type":"function","name":"setSybilScorer","inputs":[{"name":"_sybilScorer","type":"address","internalType":"address"}],"outputs":[],"stateMutability":"nonpayable"},{"type":"function","name":"setWeight","inputs":[{"name":"_weight","type":"uint256","internalType":"uint256"}],"outputs":[],"stateMutability":"nonpayable"},{"type":"function","name":"supportProposal","inputs":[{"name":"","type":"tuple[]","internalType":"struct StrategyStruct.ProposalSupport[]","components":[{"name":"proposalId","type":"uint256","internalType":"uint256"},{"name":"deltaSupport","type":"int256","internalType":"int256"}]}],"outputs":[],"stateMutability":"pure"},{"type":"function","name":"supportsInterface","inputs":[{"name":"interfaceId","type":"bytes4","internalType":"bytes4"}],"outputs":[{"name":"","type":"bool","internalType":"bool"}],"stateMutability":"view"},{"type":"function","name":"sybilScorer","inputs":[],"outputs":[{"name":"","type":"address","internalType":"contract ISybilScorer"}],"stateMutability":"view"},{"type":"function","name":"totalEffectiveActivePoints","inputs":[],"outputs":[{"name":"","type":"uint256","internalType":"uint256"}],"stateMutability":"view"},{"type":"function","name":"totalPointsActivated","inputs":[],"outputs":[{"name":"","type":"uint256","internalType":"uint256"}],"stateMutability":"view"},{"type":"function","name":"totalStaked","inputs":[],"outputs":[{"name":"","type":"uint256","internalType":"uint256"}],"stateMutability":"view"},{"type":"function","name":"totalVoterStakePct","inputs":[{"name":"","type":"address","internalType":"address"}],"outputs":[{"name":"","type":"uint256","internalType":"uint256"}],"stateMutability":"view"},{"type":"function","name":"updateProposalConviction","inputs":[{"name":"proposalId","type":"uint256","internalType":"uint256"}],"outputs":[{"name":"","type":"uint256","internalType":"uint256"}],"stateMutability":"nonpayable"},{"type":"function","name":"voterStakedProposals","inputs":[{"name":"","type":"address","internalType":"address"},{"name":"","type":"uint256","internalType":"uint256"}],"outputs":[{"name":"","type":"uint256","internalType":"uint256"}],"stateMutability":"view"},{"type":"function","name":"weight","inputs":[],"outputs":[{"name":"","type":"uint256","internalType":"uint256"}],"stateMutability":"view"},{"type":"event","name":"Allocated","inputs":[{"name":"recipientId","type":"address","indexed":true,"internalType":"address"},{"name":"amount","type":"uint256","indexed":false,"internalType":"uint256"},{"name":"token","type":"address","indexed":false,"internalType":"address"},{"name":"sender","type":"address","indexed":false,"internalType":"address"}],"anonymous":false},{"type":"event","name":"ArbitrationConfigUpdated","inputs":[{"name":"strategy","type":"address","indexed":false,"internalType":"address"},{"name":"arbitrableConfig","type":"tuple","indexed":false,"internalType":"struct StrategyStruct.ArbitrableConfig","components":[{"name":"arbitrator","type":"address","internalType":"contract IArbitrator"},{"name":"tribunalSafe","type":"address","internalType":"address"},{"name":"submitterCollateralAmount","type":"uint256","internalType":"uint256"},{"name":"challengerCollateralAmount","type":"uint256","internalType":"uint256"},{"name":"defaultRuling","type":"uint256","internalType":"uint256"},{"name":"defaultRulingTimeout","type":"uint256","internalType":"uint256"},{"name":"collateralVaultTemplate","type":"address","internalType":"address"}]}],"anonymous":false},{"type":"event","name":"CollateralVaultUpdated","inputs":[{"name":"collateralVault","type":"address","indexed":false,"internalType":"address"}],"anonymous":false},{"type":"event","name":"DecayUpdated","inputs":[{"name":"decay","type":"uint256","indexed":false,"internalType":"uint256"}],"anonymous":false},{"type":"event","name":"DisputeRequest","inputs":[{"name":"_arbitrator","type":"address","indexed":true,"internalType":"contract IArbitrator"},{"name":"_arbitrableDisputeID","type":"uint256","indexed":true,"internalType":"uint256"},{"name":"_externalDisputeID","type":"uint256","indexed":false,"internalType":"uint256"},{"name":"_templateId","type":"uint256","indexed":false,"internalType":"uint256"},{"name":"_templateUri","type":"string","indexed":false,"internalType":"string"}],"anonymous":false},{"type":"event","name":"Distributed","inputs":[{"name":"proposalId","type":"uint256","indexed":false,"internalType":"uint256"},{"name":"beneficiary","type":"address","indexed":false,"internalType":"address"},{"name":"amount","type":"uint256","indexed":false,"internalType":"uint256"}],"anonymous":false},{"type":"event","name":"Distributed","inputs":[{"name":"recipientId","type":"address","indexed":true,"internalType":"address"},{"name":"recipientAddress","type":"address","indexed":false,"internalType":"address"},{"name":"amount","type":"uint256","indexed":false,"internalType":"uint256"},{"name":"sender","type":"address","indexed":false,"internalType":"address"}],"anonymous":false},{"type":"event","name":"Initialized","inputs":[{"name":"poolId","type":"uint256","indexed":false,"internalType":"uint256"},{"name":"data","type":"bytes","indexed":false,"internalType":"bytes"}],"anonymous":false},{"type":"event","name":"InitializedCV","inputs":[{"name":"poolId","type":"uint256","indexed":false,"internalType":"uint256"},{"name":"data","type":"tuple","indexed":false,"internalType":"struct StrategyStruct.InitializeParams","components":[{"name":"registryCommunity","type":"address","internalType":"address"},{"name":"decay","type":"uint256","internalType":"uint256"},{"name":"maxRatio","type":"uint256","internalType":"uint256"},{"name":"weight","type":"uint256","internalType":"uint256"},{"name":"minThresholdPoints","type":"uint256","internalType":"uint256"},{"name":"proposalType","type":"uint8","internalType":"enum StrategyStruct.ProposalType"},{"name":"pointSystem","type":"uint8","internalType":"enum StrategyStruct.PointSystem"},{"name":"pointConfig","type":"tuple","internalType":"struct StrategyStruct.PointSystemConfig","components":[{"name":"maxAmount","type":"uint256","internalType":"uint256"}]},{"name":"arbitrableConfig","type":"tuple","internalType":"struct StrategyStruct.ArbitrableConfig","components":[{"name":"arbitrator","type":"address","internalType":"contract IArbitrator"},{"name":"tribunalSafe","type":"address","internalType":"address"},{"name":"submitterCollateralAmount","type":"uint256","internalType":"uint256"},{"name":"challengerCollateralAmount","type":"uint256","internalType":"uint256"},{"name":"defaultRuling","type":"uint256","internalType":"uint256"},{"name":"defaultRulingTimeout","type":"uint256","internalType":"uint256"},{"name":"collateralVaultTemplate","type":"address","internalType":"address"}]},{"name":"sybilScorer","type":"address","internalType":"address"}]}],"anonymous":false},{"type":"event","name":"MaxRatioUpdated","inputs":[{"name":"maxRatio","type":"uint256","indexed":false,"internalType":"uint256"}],"anonymous":false},{"type":"event","name":"MinThresholdPointsUpdated","inputs":[{"name":"before","type":"uint256","indexed":false,"internalType":"uint256"},{"name":"minThresholdPoints","type":"uint256","indexed":false,"internalType":"uint256"}],"anonymous":false},{"type":"event","name":"PointsDeactivated","inputs":[{"name":"member","type":"address","indexed":false,"internalType":"address"}],"anonymous":false},{"type":"event","name":"PoolActive","inputs":[{"name":"active","type":"bool","indexed":false,"internalType":"bool"}],"anonymous":false},{"type":"event","name":"PoolAmountIncreased","inputs":[{"name":"amount","type":"uint256","indexed":false,"internalType":"uint256"}],"anonymous":false},{"type":"event","name":"PowerDecreased","inputs":[{"name":"member","type":"address","indexed":false,"internalType":"address"},{"name":"tokensUnStaked","type":"uint256","indexed":false,"internalType":"uint256"},{"name":"pointsToDecrease","type":"uint256","indexed":false,"internalType":"uint256"}],"anonymous":false},{"type":"event","name":"PowerIncreased","inputs":[{"name":"member","type":"address","indexed":false,"internalType":"address"},{"name":"tokensStaked","type":"uint256","indexed":false,"internalType":"uint256"},{"name":"pointsToIncrease","type":"uint256","indexed":false,"internalType":"uint256"}],"anonymous":false},{"type":"event","name":"ProposalCreated","inputs":[{"name":"poolId","type":"uint256","indexed":false,"internalType":"uint256"},{"name":"proposalId","type":"uint256","indexed":false,"internalType":"uint256"}],"anonymous":false},{"type":"event","name":"ProposalDisputed","inputs":[{"name":"arbitrator","type":"address","indexed":false,"internalType":"contract IArbitrator"},{"name":"proposalId","type":"uint256","indexed":false,"internalType":"uint256"},{"name":"disputeId","type":"uint256","indexed":false,"internalType":"uint256"},{"name":"challenger","type":"address","indexed":false,"internalType":"address"},{"name":"context","type":"string","indexed":false,"internalType":"string"},{"name":"timestamp","type":"uint256","indexed":false,"internalType":"uint256"}],"anonymous":false},{"type":"event","name":"Registered","inputs":[{"name":"recipientId","type":"address","indexed":true,"internalType":"address"},{"name":"data","type":"bytes","indexed":false,"internalType":"bytes"},{"name":"sender","type":"address","indexed":false,"internalType":"address"}],"anonymous":false},{"type":"event","name":"RegistryUpdated","inputs":[{"name":"registryCommunity","type":"address","indexed":false,"internalType":"address"}],"anonymous":false},{"type":"event","name":"Ruling","inputs":[{"name":"_arbitrator","type":"address","indexed":true,"internalType":"contract IArbitrator"},{"name":"_disputeID","type":"uint256","indexed":true,"internalType":"uint256"},{"name":"_ruling","type":"uint256","indexed":false,"internalType":"uint256"}],"anonymous":false},{"type":"event","name":"SupportAdded","inputs":[{"name":"from","type":"address","indexed":false,"internalType":"address"},{"name":"proposalId","type":"uint256","indexed":false,"internalType":"uint256"},{"name":"amount","type":"uint256","indexed":false,"internalType":"uint256"},{"name":"totalStakedAmount","type":"uint256","indexed":false,"internalType":"uint256"},{"name":"convictionLast","type":"uint256","indexed":false,"internalType":"uint256"}],"anonymous":false},{"type":"event","name":"TribunaSafeRegistered","inputs":[{"name":"strategy","type":"address","indexed":false,"internalType":"address"},{"name":"arbitrator","type":"address","indexed":false,"internalType":"address"},{"name":"tribunalSafe","type":"address","indexed":false,"internalType":"address"}],"anonymous":false},{"type":"event","name":"WeightUpdated","inputs":[{"name":"weight","type":"uint256","indexed":false,"internalType":"uint256"}],"anonymous":false},{"type":"error","name":"ALLOCATION_ACTIVE","inputs":[]},{"type":"error","name":"ALLOCATION_NOT_ACTIVE","inputs":[]},{"type":"error","name":"ALLOCATION_NOT_ENDED","inputs":[]},{"type":"error","name":"ALREADY_INITIALIZED","inputs":[]},{"type":"error","name":"AMOUNT_MISMATCH","inputs":[]},{"type":"error","name":"ANCHOR_ERROR","inputs":[]},{"type":"error","name":"ARRAY_MISMATCH","inputs":[]},{"type":"error","name":"AddressCannotBeZero","inputs":[]},{"type":"error","name":"AmountOverMaxRatio","inputs":[]},{"type":"error","name":"ArbitratorCannotBeZero","inputs":[]},{"type":"error","name":"CantIncreaseFixedSystem","inputs":[]},{"type":"error","name":"CollateralVaultCannotBeZero","inputs":[]},{"type":"error","name":"ConvictionUnderMinimumThreshold","inputs":[]},{"type":"error","name":"DefaultRulingNotSet","inputs":[]},{"type":"error","name":"INVALID","inputs":[]},{"type":"error","name":"INVALID_ADDRESS","inputs":[]},{"type":"error","name":"INVALID_FEE","inputs":[]},{"type":"error","name":"INVALID_METADATA","inputs":[]},{"type":"error","name":"INVALID_REGISTRATION","inputs":[]},{"type":"error","name":"IS_APPROVED_STRATEGY","inputs":[]},{"type":"error","name":"InsufficientCollateral","inputs":[{"name":"sentAmount","type":"uint256","internalType":"uint256"},{"name":"requiredAmount","type":"uint256","internalType":"uint256"}]},{"type":"error","name":"MISMATCH","inputs":[]},{"type":"error","name":"MaxPointsReached","inputs":[]},{"type":"error","name":"NONCE_NOT_AVAILABLE","inputs":[]},{"type":"error","name":"NOT_APPROVED_STRATEGY","inputs":[]},{"type":"error","name":"NOT_ENOUGH_FUNDS","inputs":[]},{"type":"error","name":"NOT_IMPLEMENTED","inputs":[]},{"type":"error","name":"NOT_INITIALIZED","inputs":[]},{"type":"error","name":"NOT_PENDING_OWNER","inputs":[]},{"type":"error","name":"NotEnoughPointsToSupport","inputs":[{"name":"pointsSupport","type":"uint256","internalType":"uint256"},{"name":"pointsBalance","type":"uint256","internalType":"uint256"}]},{"type":"error","name":"NotImplemented","inputs":[]},{"type":"error","name":"OnlyArbitrator","inputs":[]},{"type":"error","name":"OnlyCommunityAllowed","inputs":[]},{"type":"error","name":"OnlyCouncilSafe","inputs":[]},{"type":"error","name":"POOL_ACTIVE","inputs":[]},{"type":"error","name":"POOL_INACTIVE","inputs":[]},{"type":"error","name":"PoolAmountNotEnough","inputs":[{"name":"_proposalId","type":"uint256","internalType":"uint256"},{"name":"_requestedAmount","type":"uint256","internalType":"uint256"},{"name":"_poolAmount","type":"uint256","internalType":"uint256"}]},{"type":"error","name":"PoolIdCannotBeZero","inputs":[]},{"type":"error","name":"PoolIsEmpty","inputs":[]},{"type":"error","name":"ProposalDataIsEmpty","inputs":[]},{"type":"error","name":"ProposalIdCannotBeZero","inputs":[]},{"type":"error","name":"ProposalNotActive","inputs":[{"name":"_proposalId","type":"uint256","internalType":"uint256"}]},{"type":"error","name":"ProposalNotDisputed","inputs":[{"name":"_proposalId","type":"uint256","internalType":"uint256"}]},{"type":"error","name":"ProposalNotInList","inputs":[{"name":"_proposalId","type":"uint256","internalType":"uint256"}]},{"type":"error","name":"ProposalSupportDuplicated","inputs":[{"name":"_proposalId","type":"uint256","internalType":"uint256"},{"name":"index","type":"uint256","internalType":"uint256"}]},{"type":"error","name":"RECIPIENT_ALREADY_ACCEPTED","inputs":[]},{"type":"error","name":"RECIPIENT_ERROR","inputs":[{"name":"recipientId","type":"address","internalType":"address"}]},{"type":"error","name":"RECIPIENT_NOT_ACCEPTED","inputs":[]},{"type":"error","name":"REGISTRATION_NOT_ACTIVE","inputs":[]},{"type":"error","name":"RegistryCannotBeZero","inputs":[]},{"type":"error","name":"SupportUnderflow","inputs":[{"name":"_support","type":"uint256","internalType":"uint256"},{"name":"_delta","type":"int256","internalType":"int256"},{"name":"_result","type":"int256","internalType":"int256"}]},{"type":"error","name":"TokenCannotBeZero","inputs":[]},{"type":"error","name":"TokenNotAllowed","inputs":[]},{"type":"error","name":"UNAUTHORIZED","inputs":[]},{"type":"error","name":"UserCannotBeZero","inputs":[]},{"type":"error","name":"UserCannotExecuteAction","inputs":[]},{"type":"error","name":"UserIsInactive","inputs":[]},{"type":"error","name":"UserNotInRegistry","inputs":[]},{"type":"error","name":"ZERO_ADDRESS","inputs":[]}],"bytecode":{"object":"0x60c060405260006007556000600a553480156200001b57600080fd5b506040516200601a3803806200601a8339810160408190526200003e91620000aa565b604080518082018252600a8152694356537472617465677960b01b6020808301919091526001600160a01b038416608052915183926200008191839101620000dc565b60408051601f19818403018152919052805160209091012060a05250506001600355506200012c565b600060208284031215620000bd57600080fd5b81516001600160a01b0381168114620000d557600080fd5b9392505050565b600060208083528351808285015260005b818110156200010b57858101830151858201604001528201620000ed565b506000604082860101526040601f19601f8301168501019250505092915050565b60805160a051615eb36200016760003960006107f40152600081816105fb015281816127e1015281816128740152612afd0152615eb36000f3fe60806040526004361061040f5760003560e01c8063626c47e811610222578063ac1ed7b911610131578063dc96ff2d116100b2578063eb11af9311610084578063ef2920fc1161006c578063ef2920fc14610ce7578063f5b0dfb714610cfa578063fc1711f214610d1a57005b8063eb11af9314610c9a578063edd146cc14610cc757005b8063dc96ff2d14610c12578063df868ed314610c42578063e0dd2c3814610c5a578063e33add9314610c7a57005b8063b6c61f3111610103578063c3292171116100eb578063c329217114610baa578063c7f758a814610bc7578063d1e3623214610bfd57005b8063b6c61f3114610b54578063bcc5b93b14610b7457005b8063ac1ed7b914610ad4578063b2b878d014610af4578063b41596ec14610b21578063b5f620ce14610b3457005b8063817b1cd2116101bb578063a0cf0aea1161018d578063a47ff7e511610175578063a47ff7e514610a7a578063a574cea414610a91578063aba9ffee14610abe57005b8063a0cf0aea14610a3c578063a1aab33f14610a6457005b8063817b1cd2146109c6578063824ea8ed146109dc578063868c57b8146109fc578063950559d714610a1c57005b806376365af7116101f457806376365af714610965578063782aadff1461097b5780637c6570ba1461099b578063814516ad146109b157005b8063626c47e8146108f05780636453d9c41461090557806368a806c41461092557806369fa25c41461094557005b80632dbd6fdd1161031e578063406244d8116102b75780634e2ffa881161028957806359a5db8b1161027157806359a5db8b146108835780635db64b99146108a35780636003e414146108d057005b80634e2ffa881461084d57806354fac9191461086d57005b8063406244d8146107d057806342fda9c7146107e55780634ab4ba42146108185780634d31d0871461082d57005b806333960459116102f0578063339604591461075e578063346db8cb14610774578063351d9f961461079457806338fff2d0146107bb57005b80632dbd6fdd146106d25780632ed04b2b146106fe578063311a6c561461071e5780633142ba3c1461073e57005b80631073e996116103a85780631ddf1e231161037a578063285a722d11610362578063285a722d146106815780632bbe0cae1461069f5780632cefadbb146106b257005b80631ddf1e231461063f578063255ffb381461065457005b80631073e9961461054e57806311f22ae3146105cc57806315cc481e146105ec5780631aa91a9e1461061f57005b80630ba95909116103e15780630ba95909146104ca5780630bece79c146104e95780630c0512e9146105215780630f529ba21461053757005b8063013cf08b1461041857806301ffc9a71461045a578063058aca441461048a5780630a6f0ee9146104aa57005b3661041657005b005b34801561042457600080fd5b50610438610433366004614ae2565b610d3a565b6040516104519d9c9b9a99989796959493929190614b90565b60405180910390f35b34801561046657600080fd5b5061047a610475366004614c1e565b610e64565b6040519015158152602001610451565b34801561049657600080fd5b506104166104a5366004614c5d565b610ecd565b3480156104b657600080fd5b506104166104c5366004614e88565b610f2d565b3480156104d657600080fd5b50600e545b604051908152602001610451565b3480156104f557600080fd5b50601754610509906001600160a01b031681565b6040516001600160a01b039091168152602001610451565b34801561052d57600080fd5b506104db60075481565b34801561054357600080fd5b506104db6298968081565b34801561055a57600080fd5b50600f5460105460115460125460135460145460155461058b966001600160a01b0390811696811695949392911687565b604080516001600160a01b03988916815296881660208801528601949094526060850192909252608084015260a083015290911660c082015260e001610451565b3480156105d857600080fd5b506104166105e7366004614ae2565b610f4d565b3480156105f857600080fd5b507f0000000000000000000000000000000000000000000000000000000000000000610509565b34801561062b57600080fd5b506104db61063a366004614ae2565b610f8c565b34801561064b57600080fd5b50610416611017565b34801561066057600080fd5b506104db61066f366004614ae2565b601c6020526000908152604090205481565b34801561068d57600080fd5b506017546001600160a01b0316610509565b6105096106ad366004614f00565b611022565b3480156106be57600080fd5b506104166106cd366004614ae2565b611045565b3480156106de57600080fd5b50600d546106f190610100900460ff1681565b6040516104519190614f66565b34801561070a57600080fd5b506104db610719366004614f74565b611091565b34801561072a57600080fd5b50610416610739366004614fa0565b611163565b34801561074a57600080fd5b50610416610759366004614fc2565b61172b565b34801561076a57600080fd5b506104db600c5481565b34801561078057600080fd5b506104db61078f366004615040565b6117d8565b3480156107a057600080fd5b50600d546107ae9060ff1681565b604051610451919061507c565b3480156107c757600080fd5b506001546104db565b3480156107dc57600080fd5b506104db600a81565b3480156107f157600080fd5b507f00000000000000000000000000000000000000000000000000000000000000006104db565b34801561082457600080fd5b506002546104db565b34801561083957600080fd5b5061047a610848366004614c5d565b61187d565b34801561085957600080fd5b50610416610868366004614c5d565b611890565b34801561087957600080fd5b506104db60045481565b34801561088f57600080fd5b506104db61089e366004614ae2565b611943565b3480156108af57600080fd5b506104db6108be366004614c5d565b601a6020526000908152604090205481565b3480156108dc57600080fd5b50601654610509906001600160a01b031681565b3480156108fc57600080fd5b506104db600381565b34801561091157600080fd5b50610416610920366004614c5d565b611a80565b34801561093157600080fd5b50610416610940366004614c5d565b611a94565b34801561095157600080fd5b50610416610960366004614ae2565b611aea565b34801561097157600080fd5b506104db60055481565b34801561098757600080fd5b506104db610996366004614f74565b611b29565b3480156109a757600080fd5b506104db600a5481565b3480156109bd57600080fd5b50610416611ccb565b3480156109d257600080fd5b506104db60085481565b3480156109e857600080fd5b5061047a6109f7366004614ae2565b611dfd565b348015610a0857600080fd5b506104db610a17366004614f74565b611e5a565b348015610a2857600080fd5b506104db610a37366004614ae2565b611e8b565b348015610a4857600080fd5b5061050973eeeeeeeeeeeeeeeeeeeeeeeeeeeeeeeeeeeeeeee81565b348015610a7057600080fd5b506104db60065481565b348015610a8657600080fd5b50600e546104db9081565b348015610a9d57600080fd5b50610ab1610aac366004614ae2565b611eb5565b604051610451919061508a565b348015610aca57600080fd5b506104db60095481565b348015610ae057600080fd5b50610416610aef366004614c5d565b611f94565b348015610b0057600080fd5b50610b14610b0f36600461509d565b611fc7565b6040516104519190615172565b610416610b2f36600461520c565b611fe2565b348015610b4057600080fd5b50610416610b4f366004615294565b6122c8565b348015610b6057600080fd5b50601854610509906001600160a01b031681565b348015610b8057600080fd5b506104db610b8f366004614c5d565b6001600160a01b03166000908152601a602052604090205490565b348015610bb657600080fd5b50600d54610100900460ff166106f1565b348015610bd357600080fd5b50610be7610be2366004614ae2565b6122d1565b6040516104519a999897969594939291906152b1565b348015610c0957600080fd5b506009546104db565b348015610c1e57600080fd5b506104db610c2d366004614ae2565b60009081526019602052604090206002015490565b348015610c4e57600080fd5b5060005460ff1661047a565b348015610c6657600080fd5b506104db610c75366004615317565b6123d3565b348015610c8657600080fd5b50610416610c9536600461533c565b6123fe565b348015610ca657600080fd5b50610cba610cb5366004614c5d565b612417565b60405161045191906153e7565b348015610cd357600080fd5b50610416610ce23660046153fa565b612422565b610416610cf5366004614f00565b612718565b348015610d0657600080fd5b50610416610d15366004614ae2565b612736565b348015610d2657600080fd5b50610416610d35366004614ae2565b61275f565b6019602090815260009182526040918290208054600182015460028301546003840154600485015460058601546006870154600788015460088901548b51808d01909c52600a8a0180548d52600b8b0180549a9d999c989b979a6001600160a01b039788169a968816999790951697939660ff9093169593949192840191610dc190615441565b80601f0160208091040260200160405190810160405280929190818152602001828054610ded90615441565b8015610e3a5780601f10610e0f57610100808354040283529160200191610e3a565b820191906000526020600020905b815481529060010190602001808311610e1d57829003601f168201915b50505091909252505050600c820154600d830154600e90930154919290916001600160a01b03168d565b60006001600160e01b031982167ff1801e61000000000000000000000000000000000000000000000000000000001480610ec757507f01ffc9a7000000000000000000000000000000000000000000000000000000006001600160e01b03198316145b92915050565b33610ed78161279e565b601680546001600160a01b0319166001600160a01b0384169081179091556040519081527fd6ceddf6d2a22f21c7c81675c518004eff43bc5c8a6fc32a0b748e69d58671cd906020015b60405180910390a15050565b610f35612869565b610f3d6128b2565b610f488383836128ee565b505050565b33610f578161279e565b60058290556040518281527f08e39b387d1f739ce0d2553bb31822392e3f67c62c6c0a215120ab4a6841a8ab90602001610f21565b600081815260196020526040812080548314610fc35760405163c1d17bef60e01b8152600481018490526024015b60405180910390fd5b6001600882015460ff166006811115610fde57610fde614afb565b14610fff576040516344980d8f60e01b815260048101849052602401610fba565b61100d818260020154612c99565b6003015492915050565b61102033612cd4565b565b600061102c612869565b6110346128b2565b61103e8383612e1e565b9392505050565b3361104f8161279e565b600a5460408051918252602082018490527f056aedca4e334b6c4bea48715fb0de644811b740894de57a0380d3eb90f2805b910160405180910390a150600a55565b600061109b61322a565b60006002600d54610100900460ff1660038111156110bb576110bb614afb565b14806110e257506001600d54610100900460ff1660038111156110e0576110e0614afb565b145b156110ee5750816110fb565b6110f8848461326e565b90505b806009600082825461110d919061548b565b9091555050604080516001600160a01b0386168152602081018590529081018290527f70b752f3fadb6ac131c0ece847fcbb6994ec56ed6411595710fd9b29c6ac6cc19060600160405180910390a19392505050565b6000828152601c60209081526040808320548084526019909252822090918290036111a45760405163c1d17bef60e01b815260048101839052602401610fba565b6005600882015460ff1660068111156111bf576111bf614afb565b146111f9576040517f9602395200000000000000000000000000000000000000000000000000000000815260048101839052602401610fba565b601454600d82015460009161120d9161549e565b421190508015816112295750600f546001600160a01b03163314155b15611260576040517f2eef310a00000000000000000000000000000000000000000000000000000000815260040160405180910390fd5b808061126a575083155b156113cf576013546000036112ab576040517fdd466dd000000000000000000000000000000000000000000000000000000000815260040160405180910390fd5b6013546001036112c55760088201805460ff191660011790555b6013546002036112df5760088201805460ff191660061790555b601754600e83015460125460405163099ea56b60e41b8152600481018790526001600160a01b03928316602482015260448101919091529116906399ea56b090606401600060405180830381600087803b15801561133c57600080fd5b505af1158015611350573d6000803e3d6000fd5b5050601754600585015460115460405163099ea56b60e41b8152600481018990526001600160a01b0392831660248201526044810191909152911692506399ea56b091506064015b600060405180830381600087803b1580156113b257600080fd5b505af11580156113c6573d6000803e3d6000fd5b505050506116e2565b836001036114ae5760088201805460ff19166001179055601754600e83015460165460408051633629edcd60e11b815290516001600160a01b0394851694638969ab5394899490821693911691636c53db9a916004808201926020929091908290030181865afa158015611447573d6000803e3d6000fd5b505050506040513d601f19601f8201168201806040525081019061146b91906154b1565b60125460405160e086901b6001600160e01b031916815260048101949094526001600160a01b039283166024850152911660448301526064820152608401611398565b836002036116e25760088201805460ff19166006179055601754600e83015460125460405163099ea56b60e41b8152600481018790526001600160a01b03928316602482015260448101919091529116906399ea56b090606401600060405180830381600087803b15801561152257600080fd5b505af1158015611536573d6000803e3d6000fd5b5050601754600585015460165460408051633629edcd60e11b815290516001600160a01b039485169650638969ab53955089949384169390921691636c53db9a916004808201926020929091908290030181865afa15801561159c573d6000803e3d6000fd5b505050506040513d601f19601f820116820180604052508101906115c091906154b1565b6011546115cf906002906154e4565b6040516001600160e01b031960e087901b16815260048101949094526001600160a01b039283166024850152911660448301526064820152608401600060405180830381600087803b15801561162457600080fd5b505af1158015611638573d6000803e3d6000fd5b50506017546005850154600e8601546011546001600160a01b039384169550638969ab53945088939283169290911690611674906002906154e4565b6040516001600160e01b031960e087901b16815260048101949094526001600160a01b039283166024850152911660448301526064820152608401600060405180830381600087803b1580156116c957600080fd5b505af11580156116dd573d6000803e3d6000fd5b505050505b600f5460405185815286916001600160a01b0316907f394027a5fa6e098a1191094d1719d6929b9abc535fcc0c8f448d6a4e756222769060200160405180910390a35050505050565b6117336134b4565b8051600f80546001600160a01b03199081166001600160a01b039384161790915560208301516010805483169184169190911790556040808401516011556060840151601255608084015160135560a084015160145560c0840151601580549093169316929092179055517f03acbb620b466488b6003b007e23a10152d0439657b375c4cfef48d58b820ea5906117cd9030908490615506565b60405180910390a150565b60008084905060006117fe629896806080600454901b6117f891906154e4565b83613575565b905060806f8000000000000000000000000000000060045462989680611824919061548b565b61183284600160801b61548b565b61183f6298968089615572565b6118499190615572565b61185391906154e4565b61185d8885615572565b611867919061549e565b611871919061549e565b901c9695505050505050565b60006001600160a01b0382161515610ec7565b6118986134b4565b600f5460405163446adb9960e11b81526001600160a01b038381166004830152909116906388d5b73290602401600060405180830381600087803b1580156118df57600080fd5b505af11580156118f3573d6000803e3d6000fd5b5050600f54604080513081526001600160a01b039283166020820152918516908201527fdc20f5c479493aac0cf803ca3b82ebc1964faa557450a37ea0a8121b0e98454f925060600190506117cd565b60008060025411611980576040517fed4421ad00000000000000000000000000000000000000000000000000000000815260040160405180910390fd5b6119898261361e565b156119a757604051630efd728560e21b815260040160405180910390fd5b6002546000906119c08468010000000000000000615572565b6119ca91906154e4565b62989680600554680100000000000000006119e59190615572565b6119ef91906154e4565b6119f9919061548b565b90506040611a0660095490565b600454611a16906298968061548b565b629896806040611a268680615572565b901c629896806080600654901b611a3d91906154e4565b611a4791906154e4565b611a519190615572565b611a5b91906154e4565b611a659190615572565b901c9150600a548211611a7a57600a5461103e565b50919050565b611a8861322a565b611a9181612cd4565b50565b611a9c6134b4565b601780546001600160a01b0319166001600160a01b0383169081179091556040519081527f98591b379d0945355df2687e7941177774bf190304dba561b029c0f63fcbc179906020016117cd565b33611af48161279e565b60048290556040518281527f592dcd55d60d892e7fcb3ba105013312e99691cd59f91e15f83cb67cb5a505f290602001610f21565b6000611b3361322a565b611b3c83613645565b611b5957604051630b72d6b160e31b815260040160405180910390fd5b60006002600d54610100900460ff166003811115611b7957611b79614afb565b03611b8757825b9050611be4565b6001600d54610100900460ff166003811115611ba557611ba5614afb565b03611bb457611b8084846136ed565b6003600d54610100900460ff166003811115611bd257611bd2614afb565b03611be457611be18484613797565b90505b60165460405163011de97360e61b81526001600160a01b038681166004830152306024830152600092169063477a5cc090604401602060405180830381865afa158015611c35573d6000803e3d6000fd5b505050506040513d601f19601f82011682018060405250810190611c599190615589565b90508015611c79578160096000828254611c73919061549e565b90915550505b604080516001600160a01b0387168152602081018690529081018390527f0b9150e1e54346ed3fa36b977cd5d65dca5a649c737c3174a26bddaadd47667a9060600160405180910390a1509392505050565b33611cd581613645565b611cf257604051630b72d6b160e31b815260040160405180910390fd5b6016546040517f0d4a8b490000000000000000000000000000000000000000000000000000000081526001600160a01b03838116600483015230602483015290911690630d4a8b4990604401600060405180830381600087803b158015611d5857600080fd5b505af1158015611d6c573d6000803e3d6000fd5b5050601654604051637817ee4f60e01b81526001600160a01b0385811660048301523060248301529091169250637817ee4f9150604401602060405180830381865afa158015611dc0573d6000803e3d6000fd5b505050506040513d601f19601f82011682018060405250810190611de491906155a6565b60096000828254611df5919061549e565b909155505050565b6000818152601960205260408120600281015482908190611e1f9084906139de565b91509150816000148015611e31575080155b15611e3e57826003015491505b6000611e4d8460010154611943565b9092101595945050505050565b601b6020528160005260406000208181548110611e7657600080fd5b90600052602060002001600091509150505481565b600060045462989680611e9e919061548b565b611eab6298968084615572565b610ec791906154e4565b604080518082019091526000815260606020820152600060196000848152602001908152602001600020905080600a0160405180604001604052908160008201548152602001600182018054611f0a90615441565b80601f0160208091040260200160405190810160405280929190818152602001828054611f3690615441565b8015611f835780601f10611f5857610100808354040283529160200191611f83565b820191906000526020600020905b815481529060010190602001808311611f6657829003601f168201915b505050505081525050915050919050565b611f9c6134b4565b611fa581613a36565b601880546001600160a01b0319166001600160a01b0392909216919091179055565b606060405163d623472560e01b815260040160405180910390fd5b611fea613a76565b6000858152601960205260409020600f546001600160a01b031661203a576040517f6c291fd300000000000000000000000000000000000000000000000000000000815260040160405180910390fd5b6017546001600160a01b031661207c576040517fc4d0cd2f00000000000000000000000000000000000000000000000000000000815260040160405180910390fd5b805486146120a05760405163c1d17bef60e01b815260048101879052602401610fba565b6001600882015460ff1660068111156120bb576120bb614afb565b146120dc576040516344980d8f60e01b815260048101879052602401610fba565b601254341161210b57601254604051632c1f8ef160e21b81523460048201526024810191909152604401610fba565b60125460009061211b903461548b565b60175460125460405163240ff7c560e11b8152600481018b90523360248201529293506001600160a01b039091169163481fef8a91906044016000604051808303818588803b15801561216d57600080fd5b505af1158015612181573d6000803e3d6000fd5b5050600f546040517fc13517e1000000000000000000000000000000000000000000000000000000008152600094506001600160a01b03909116925063c13517e1915084906121d9906003908a908a906004016155e8565b60206040518083038185885af11580156121f7573d6000803e3d6000fd5b50505050506040513d601f19601f8201168201806040525081019061221c91906155a6565b60088401805460ff19166005179055600c840181905542600d8501908155600e85018054336001600160a01b031990911681179091556000838152601c6020526040908190208c9055600f54925490519394507f034f6a48076db1bcaaa311ccdc43d473aff44d3918a76fe0fae27c8b3665016d936122ac936001600160a01b0316928d9287928e918e9161560b565b60405180910390a15050506122c16001600355565b5050505050565b611a9181613acf565b6000806000806000806000806000806000601960008d815260200190815260200160002090508060010154600014612315576123108160010154611943565b612318565b60005b92508060050160009054906101000a90046001600160a01b03168160040160009054906101000a90046001600160a01b03168260060160009054906101000a90046001600160a01b0316836001015484600201548560080160009054906101000a900460ff16866007015487600301548a896009016000336001600160a01b03166001600160a01b03168152602001908152602001600020549a509a509a509a509a509a509a509a509a509a50509193959799509193959799565b60008281526019602090815260408083206001600160a01b038516845260090190915281205461103e565b60405163d623472560e01b815260040160405180910390fd5b6000610ec782613b10565b61242b82613b30565b6000818060200190518101906124419190615747565b80519091506001600160a01b031661246c57604051635df4b1ef60e01b815260040160405180910390fd5b8051601680546001600160a01b0319166001600160a01b0390921691909117905560208101516004556040810151600555606081015160065560a0810151600d805460ff191660018360028111156124c6576124c6614afb565b021790555060c0810151600d805461ff0019166101008360038111156124ee576124ee614afb565b021790555060e081015151600e55608080820151600a556101008201518051600f80546001600160a01b03199081166001600160a01b039384169081179092556020840151601080548316918516919091179055604084015160115560608401516012559383015160135560a083015160145560c090920151601580549094169116179091551561267a57601554600c80546125a2926001600160a01b0316916000612599836157f6565b91905055613bb1565b601780546001600160a01b0319166001600160a01b03928316179055601054161561267a57600f5460105460405163446adb9960e11b81526001600160a01b0391821660048201529116906388d5b73290602401600060405180830381600087803b15801561261057600080fd5b505af1158015612624573d6000803e3d6000fd5b5050600f54601054604080513081526001600160a01b0393841660208201529290911682820152517fdc20f5c479493aac0cf803ca3b82ebc1964faa557450a37ea0a8121b0e98454f9350908190036060019150a15b610120810151601880546001600160a01b0319166001600160a01b039092169190911790556040517f20a153f9c9716c875d37fdbb521bd43a7cdda0304b0fbdbb0d0515d68ae3723f906126d1908590849061580f565b60405180910390a17f03acbb620b466488b6003b007e23a10152d0439657b375c4cfef48d58b820ea530600f60405161270b929190615908565b60405180910390a1505050565b612720612869565b6127286128b2565b6127328282613c05565b5050565b61273e612869565b8060026000828254612750919061549e565b90915550611a91905081613d14565b336127698161279e565b60068290556040518281527f30ee8206062f283e56a0af2b02138016bf7442ded26ad68a92a18a9dd246fb4990602001610f21565b6001546040517f29e40d4b00000000000000000000000000000000000000000000000000000000815260048101919091526001600160a01b0382811660248301527f000000000000000000000000000000000000000000000000000000000000000016906329e40d4b90604401602060405180830381865afa158015612828573d6000803e3d6000fd5b505050506040513d601f19601f8201168201806040525081019061284c9190615589565b611a915760405163075fd2b160e01b815260040160405180910390fd5b336001600160a01b037f000000000000000000000000000000000000000000000000000000000000000016146110205760405163075fd2b160e01b815260040160405180910390fd5b600154600003611020576040517f3da3f98c00000000000000000000000000000000000000000000000000000000815260040160405180910390fd5b6000825111612929576040517fc5f7c4c000000000000000000000000000000000000000000000000000000000815260040160405180910390fd5b60008280602001905181019061293f91906155a6565b90508060000361297b576040517ff881a10d00000000000000000000000000000000000000000000000000000000815260040160405180910390fd5b60008181526019602052604090206001600d5460ff1660028111156129a2576129a2614afb565b036122c157805482146129cb5760405163c1d17bef60e01b815260048101839052602401610fba565b60025481600101541115612a235760018101546002546040517f5863b0b60000000000000000000000000000000000000000000000000000000081526004810185905260248101929092526044820152606401610fba565b6001600882015460ff166006811115612a3e57612a3e614afb565b14612a5f576040516344980d8f60e01b815260048101839052602401610fba565b6000612a6a83610f8c565b90506000612a7b8360010154611943565b90508082108015612a90575060008360010154115b15612ac7576040517fcce7930800000000000000000000000000000000000000000000000000000000815260040160405180910390fd5b6001546040517f068bcd8d0000000000000000000000000000000000000000000000000000000081526000916001600160a01b037f0000000000000000000000000000000000000000000000000000000000000000169163068bcd8d91612b349160040190815260200190565b600060405180830381865afa158015612b51573d6000803e3d6000fd5b505050506040513d6000823e601f3d908101601f19168201604052612b7991908101906159f7565b9050836001015460026000828254612b91919061548b565b9091555050604081015160048501546001860154612bb992916001600160a01b031690613d44565b601754600585015460115460405163099ea56b60e41b8152600481018990526001600160a01b03928316602482015260448101919091529116906399ea56b090606401600060405180830381600087803b158015612c1657600080fd5b505af1158015612c2a573d6000803e3d6000fd5b5050505060088401805460ff191660049081179091558401546001850154604080518881526001600160a01b0390931660208401528201527fa7932e9c92f31e1ed56b29d00bbe669a97484dc24de28dd9c8c0429df7f358479060600160405180910390a15050505050505050565b600080612ca684846139de565b91509150816000148015612cb8575080155b15612cc35750505050565b600784015560039092019190915550565b601654604051637817ee4f60e01b81526001600160a01b03838116600483015230602483015290911690637817ee4f90604401602060405180830381865afa158015612d24573d6000803e3d6000fd5b505050506040513d601f19601f82011682018060405250810190612d4891906155a6565b60096000828254612d59919061548b565b90915550506016546040517f22bcf9990000000000000000000000000000000000000000000000000000000081526001600160a01b038381166004830152306024830152909116906322bcf99990604401600060405180830381600087803b158015612dc457600080fd5b505af1158015612dd8573d6000803e3d6000fd5b50505050612de581613d89565b6040516001600160a01b03821681527f1468da654b37bb3631011c1917d02e0db437d519918858d40b38b5e980ca033b906020016117cd565b6000612e2982613645565b612e4657604051630b72d6b160e31b815260040160405180910390fd5b600083806020019051810190612e5c9190615aab565b8051909150600003612e9a576040517f4e79178600000000000000000000000000000000000000000000000000000000815260040160405180910390fd5b6001600d5460ff166002811115612eb357612eb3614afb565b0361306357612ec58160200151613a36565b60608101516001600160a01b0316612f09576040517f596a094c00000000000000000000000000000000000000000000000000000000815260040160405180910390fd5b6000306001600160a01b03166315cc481e6040518163ffffffff1660e01b8152600401602060405180830381865afa158015612f49573d6000803e3d6000fd5b505050506040513d601f19601f82011682018060405250810190612f6d91906154b1565b6001600160a01b031663068bcd8d6001546040518263ffffffff1660e01b8152600401612f9c91815260200190565b600060405180830381865afa158015612fb9573d6000803e3d6000fd5b505050506040513d6000823e601f3d908101601f19168201604052612fe191908101906159f7565b604001519050806001600160a01b031682606001516001600160a01b031614613036576040517fa29c498600000000000000000000000000000000000000000000000000000000815260040160405180910390fd5b613043826040015161361e565b1561306157604051630efd728560e21b815260040160405180910390fd5b505b600f546001600160a01b03161580159061307e575060115434105b156130a957601154604051632c1f8ef160e21b81523460048201526024810191909152604401610fba565b60006007600081546130ba906157f6565b918290555060008181526019602090815260408083208481556005810180546001600160a01b038b81166001600160a01b0319928316179092558885015160048401805491841691831691909117905560608901516006840180549190931691161790559086015160018083019190915560088201805460ff19169091179055436007820155600381019290925560808501518051600a8401908155918101519394509192600b84019061316e9082615ba0565b5050601754600583015460405163240ff7c560e11b8152600481018690526001600160a01b0391821660248201529116915063481fef8a9034906044016000604051808303818588803b1580156131c457600080fd5b505af11580156131d8573d6000803e3d6000fd5b50505050507ffcf3b1aa65a464cef2889608f99e8b8c0f680a4be6c2acb9d961c536a5a9294b60015483604051613219929190918252602082015260400190565b60405180910390a150949350505050565b6016546001600160a01b03163314611020576040517faf0916a200000000000000000000000000000000000000000000000000000000815260040160405180910390fd5b601654604080516336d8759760e21b815290516000926012926001600160a01b039091169163db61d65c916004808201926020929091908290030181865afa1580156132be573d6000803e3d6000fd5b505050506040513d601f19601f820116820180604052508101906132e291906154b1565b6001600160a01b031663313ce5676040518163ffffffff1660e01b8152600401602060405180830381865afa92505050801561333b575060408051601f3d908101601f1916820190925261333891810190615c60565b60015b6133825761337d6040518060400160405280601581526020017f4572726f722067657474696e6720646563696d616c0000000000000000000000815250613f16565b613388565b60ff1690505b6016546040516316308e2560e11b81526001600160a01b0386811660048301526000928692911690632c611c4a90602401602060405180830381865afa1580156133d6573d6000803e3d6000fd5b505050506040513d601f19601f820116820180604052508101906133fa91906155a6565b613404919061548b565b9050600061342561341684600a615d67565b6134209084615572565b613f87565b601654604051637817ee4f60e01b81526001600160a01b03898116600483015230602483015292935060009284921690637817ee4f90604401602060405180830381865afa15801561347b573d6000803e3d6000fd5b505050506040513d601f19601f8201168201806040525081019061349f91906155a6565b6134a9919061548b565b979650505050505050565b601660009054906101000a90046001600160a01b03166001600160a01b0316636c53db9a6040518163ffffffff1660e01b8152600401602060405180830381865afa158015613507573d6000803e3d6000fd5b505050506040513d601f19601f8201168201806040525081019061352b91906154b1565b6001600160a01b0316336001600160a01b031614611020576040517fe860ec7e00000000000000000000000000000000000000000000000000000000815260040160405180910390fd5b6000600160801b83106135ca5760405162461bcd60e51b815260206004820152601c60248201527f5f612073686f756c64206265206c657373207468616e20325e313238000000006044820152606401610fba565b50600160801b82825b801561361657806001166000036135f8576135ee828361406f565b915060011c6135d3565b613602838361406f565b925061360f60018261548b565b90506135d3565b505092915050565b600061362d6298968083615572565b60025460055461363d9190615572565b111592915050565b6018546000906001600160a01b031661366057506001919050565b6018546040517f42a987a00000000000000000000000000000000000000000000000000000000081526001600160a01b038481166004830152306024830152909116906342a987a090604401602060405180830381865afa1580156136c9573d6000803e3d6000fd5b505050506040513d601f19601f82011682018060405250810190610ec79190615589565b601654604051637817ee4f60e01b81526001600160a01b0384811660048301523060248301526000928492849290911690637817ee4f90604401602060405180830381865afa158015613744573d6000803e3d6000fd5b505050506040513d601f19601f8201168201806040525081019061376891906155a6565b600e54909150613778838361549e565b111561378f57600e5461378c90829061548b565b91505b509392505050565b6016546040516316308e2560e11b81526001600160a01b0384811660048301526000928392859290911690632c611c4a90602401602060405180830381865afa1580156137e8573d6000803e3d6000fd5b505050506040513d601f19601f8201168201806040525081019061380c91906155a6565b613816919061549e565b601654604080516336d8759760e21b815290519293506012926001600160a01b039092169163db61d65c916004808201926020929091908290030181865afa158015613866573d6000803e3d6000fd5b505050506040513d601f19601f8201168201806040525081019061388a91906154b1565b6001600160a01b031663313ce5676040518163ffffffff1660e01b8152600401602060405180830381865afa9250505080156138e3575060408051601f3d908101601f191682019092526138e091810190615c60565b60015b61392a576139256040518060400160405280601581526020017f4572726f722067657474696e6720646563696d616c0000000000000000000000815250613f16565b613930565b60ff1690505b600061394a61394083600a615d67565b6134209085615572565b601654604051637817ee4f60e01b81526001600160a01b03898116600483015230602483015292935060009290911690637817ee4f90604401602060405180830381865afa1580156139a0573d6000803e3d6000fd5b505050506040513d601f19601f820116820180604052508101906139c491906155a6565b905060006139d2828461548b565b98975050505050505050565b60008043905080846007015411156139f8576139f8615d73565b80846007015403613a0e57506000905080613a2f565b613a2c846007015482613a21919061548b565b8560030154856117d8565b91505b9250929050565b6001600160a01b038116611a91576040517fe622e04000000000000000000000000000000000000000000000000000000000815260040160405180910390fd5b600260035403613ac85760405162461bcd60e51b815260206004820152601f60248201527f5265656e7472616e637947756172643a207265656e7472616e742063616c6c006044820152606401610fba565b6002600355565b6000805460ff19168215159081179091556040519081527fd94c9bc4d43c51d8dc345a016d8e3d994432fac68e72832e4cf3a616bd8efae0906020016117cd565b60006001600160a01b03821615613b28576002610ec7565b600392915050565b613b38612869565b60015415613b72576040517f439a74c900000000000000000000000000000000000000000000000000000000815260040160405180910390fd5b80600003613bac576040517f7fcce2a900000000000000000000000000000000000000000000000000000000815260040160405180910390fd5b600155565b6040516bffffffffffffffffffffffff193360601b166020820152603481018290526000908190605401604051602081830303815290604052805190602001209050613bfd848261416e565b949350505050565b613c0e8161420b565b613c1781613645565b613c3457604051630b72d6b160e31b815260040160405180910390fd5b60165460405163011de97360e61b81526001600160a01b038381166004830152306024830152600092169063477a5cc090604401602060405180830381865afa158015613c85573d6000803e3d6000fd5b505050506040513d601f19601f82011682018060405250810190613ca99190615589565b905080613ce2576040517f5fccb67f00000000000000000000000000000000000000000000000000000000815260040160405180910390fd5b600083806020019051810190613cf89190615d89565b9050613d048382614331565b613d0e83826144f4565b50505050565b6040518181527f46aeb5d8770fc4474bc2dfa118fd2595f7fb33ce2cbce6f4e5a3dabfe0f76339906020016117cd565b7fffffffffffffffffffffffff11111111111111111111111111111111111111126001600160a01b03841601613d7e57610f488282614918565b610f48838383614934565b6001600160a01b0381166000908152601b6020908152604080832080548251818502810185019093528083529192909190830182828015613de957602002820191906000526020600020905b815481526020019060010190808311613dd5575b5050505050905060005b8151811015610f48576000828281518110613e1057613e10615e34565b602002602001015190506000601960008381526020019081526020016000209050613e3a82614983565b15613f01576001600160a01b0385166000908152600982016020526040812080549082905560028301805491928392613e7490849061548b565b925050819055508060086000828254613e8d919061548b565b90915550613e9d90508282612c99565b60028201546003830154604080516001600160a01b038a1681526020810187905260008183015260608101939093526080830191909152517f0227f642ddcf2042ceaeafadb9d540f432072c00cd4862881667168dcc14710f9181900360a00190a1505b50508080613f0e906157f6565b915050613df3565b611a9181604051602401613f2a9190615e4a565b60408051601f198184030181529190526020810180517bffffffffffffffffffffffffffffffffffffffffffffffffffffffff167f41304fac000000000000000000000000000000000000000000000000000000001790526149bc565b600081600003613f9957506000919050565b60006001613fa6846149dd565b901c6001901b90506001818481613fbf57613fbf6154ce565b048201901c90506001818481613fd757613fd76154ce565b048201901c90506001818481613fef57613fef6154ce565b048201901c90506001818481614007576140076154ce565b048201901c9050600181848161401f5761401f6154ce565b048201901c90506001818481614037576140376154ce565b048201901c9050600181848161404f5761404f6154ce565b048201901c905061103e81828581614069576140696154ce565b04614a71565b6000600160801b8311156140eb5760405162461bcd60e51b815260206004820152602860248201527f5f612073686f756c64206265206c657373207468616e206f7220657175616c2060448201527f746f20325e3132380000000000000000000000000000000000000000000000006064820152608401610fba565b600160801b821061413e5760405162461bcd60e51b815260206004820152601c60248201527f5f622073686f756c64206265206c657373207468616e20325e313238000000006044820152606401610fba565b60806f8000000000000000000000000000000061415b8486615572565b614165919061549e565b901c9392505050565b6000763d602d80600a3d3981f3363d3d373d3d3d363d730000008360601b60e81c176000526e5af43d82803e903d91602b57fd5bf38360781b1760205281603760096000f590506001600160a01b038116610ec75760405162461bcd60e51b815260206004820152601760248201527f455243313136373a2063726561746532206661696c65640000000000000000006044820152606401610fba565b6001600160a01b03811661424b576040517fd1f2828800000000000000000000000000000000000000000000000000000000815260040160405180910390fd5b6016546001600160a01b031661427457604051635df4b1ef60e01b815260040160405180910390fd5b6016546040517fa230c5240000000000000000000000000000000000000000000000000000000081526001600160a01b0383811660048301529091169063a230c52490602401602060405180830381865afa1580156142d7573d6000803e3d6000fd5b505050506040513d601f19601f820116820180604052508101906142fb9190615589565b611a91576040517f6a5cfb6d00000000000000000000000000000000000000000000000000000000815260040160405180910390fd5b6000805b82518110156143ee5782818151811061435057614350615e34565b602002602001015160000151600003156143dc57600083828151811061437857614378615e34565b602002602001015160000151905061438f81614983565b6143af5760405163c1d17bef60e01b815260048101829052602401610fba565b8382815181106143c1576143c1615e34565b602002602001015160200151836143d89190615e5d565b9250505b806143e6816157f6565b915050614335565b506001600160a01b0383166000908152601a60205260408120546144129083614a87565b601654604051637817ee4f60e01b81526001600160a01b03878116600483015230602483015292935060009290911690637817ee4f90604401602060405180830381865afa158015614468573d6000803e3d6000fd5b505050506040513d601f19601f8201168201806040525081019061448c91906155a6565b9050808211156144d2576040517fd64182fe0000000000000000000000000000000000000000000000000000000081526004810183905260248101829052604401610fba565b506001600160a01b039093166000908152601a60205260409020929092555050565b606060005b8251811015613d0e57600083828151811061451657614516615e34565b60200260200101516000015190508251600003614572576040805160018082528183019092529060208083019080368337019050509250808360008151811061456157614561615e34565b6020026020010181815250506146c5565b6000805b84518110156145f1578285828151811061459257614592615e34565b6020026020010151036145df576040517fadebb154000000000000000000000000000000000000000000000000000000008152600481018490526024810182905260019250604401610fba565b806145e9816157f6565b915050614576565b50806146c357600084516001614607919061549e565b67ffffffffffffffff81111561461f5761461f614c7a565b604051908082528060200260200182016040528015614648578160200160208202803683370190505b50905060005b85518110156146a05785818151811061466957614669615e34565b602002602001015182828151811061468357614683615e34565b602090810291909101015280614698816157f6565b91505061464e565b5082818651815181106146b5576146b5615e34565b602090810291909101015293505b505b60008483815181106146d9576146d9615e34565b60209081029190910181015181015160008481526019835260408082206001600160a01b038b168352600981019094528120549193506147198285614a87565b6001600160a01b038a1660009081526009850160205260408120829055909150805b6001600160a01b038b166000908152601b60205260409020548110156147b25784546001600160a01b038c166000908152601b6020526040902080548390811061478757614787615e34565b9060005260206000200154036147a057600191506147b2565b806147aa816157f6565b91505061473b565b50806147e8576001600160a01b038a166000908152601b6020908152604082208654815460018101835591845291909220909101555b818311614838576147f9838361548b565b6008600082825461480a919061549e565b9091555061481a9050838361548b565b84600201600082825461482d919061549e565b9091555061487c9050565b614842828461548b565b60086000828254614853919061548b565b909155506148639050828461548b565b846002016000828254614876919061548b565b90915550505b8360070154600003614893574360078501556148ff565b61489d8484612c99565b60028401546003850154604080516001600160a01b038e168152602081018a9052908101859052606081019290925260808201527f0227f642ddcf2042ceaeafadb9d540f432072c00cd4862881667168dcc14710f9060a00160405180910390a15b5050505050508080614910906157f6565b9150506144f9565b60008060008084865af16127325763b12d13eb6000526004601cfd5b81601452806034526fa9059cbb00000000000000000000000060005260206000604460106000875af13d156001600051141716614979576390b8ec186000526004601cfd5b6000603452505050565b60008181526019602052604081205415801590610ec75750506000908152601960205260409020600501546001600160a01b0316151590565b80516a636f6e736f6c652e6c6f67602083016000808483855afa5050505050565b600080608083901c156149f257608092831c92015b604083901c15614a0457604092831c92015b602083901c15614a1657602092831c92015b601083901c15614a2857601092831c92015b600883901c15614a3a57600892831c92015b600483901c15614a4c57600492831c92015b600283901c15614a5e57600292831c92015b600183901c15610ec75760010192915050565b6000818310614a80578161103e565b5090919050565b600080614a948385615e5d565b9050600081121561103e576040517f3bbc7142000000000000000000000000000000000000000000000000000000008152600481018590526024810184905260448101829052606401610fba565b600060208284031215614af457600080fd5b5035919050565b634e487b7160e01b600052602160045260246000fd5b60078110611a9157611a91614afb565b60005b83811015614b3c578181015183820152602001614b24565b50506000910152565b60008151808452614b5d816020860160208601614b21565b601f01601f19169290920160200192915050565b805182526000602082015160406020850152613bfd6040850182614b45565b60006101a08f83528e60208401528d60408401528c60608401526001600160a01b03808d166080850152808c1660a0850152808b1660c08501528960e0850152614bd989614b11565b8861010085015281610120850152614bf382850189614b71565b61014085019790975261016084019590955250509116610180909101529a9950505050505050505050565b600060208284031215614c3057600080fd5b81356001600160e01b03198116811461103e57600080fd5b6001600160a01b0381168114611a9157600080fd5b600060208284031215614c6f57600080fd5b813561103e81614c48565b634e487b7160e01b600052604160045260246000fd5b60405160e0810167ffffffffffffffff81118282101715614cb357614cb3614c7a565b60405290565b6040805190810167ffffffffffffffff81118282101715614cb357614cb3614c7a565b604051610140810167ffffffffffffffff81118282101715614cb357614cb3614c7a565b60405160c0810167ffffffffffffffff81118282101715614cb357614cb3614c7a565b60405160a0810167ffffffffffffffff81118282101715614cb357614cb3614c7a565b604051601f8201601f1916810167ffffffffffffffff81118282101715614d6f57614d6f614c7a565b604052919050565b600067ffffffffffffffff821115614d9157614d91614c7a565b5060051b60200190565b600082601f830112614dac57600080fd5b81356020614dc1614dbc83614d77565b614d46565b82815260059290921b84018101918181019086841115614de057600080fd5b8286015b84811015614e04578035614df781614c48565b8352918301918301614de4565b509695505050505050565b600067ffffffffffffffff821115614e2957614e29614c7a565b50601f01601f191660200190565b600082601f830112614e4857600080fd5b8135614e56614dbc82614e0f565b818152846020838601011115614e6b57600080fd5b816020850160208301376000918101602001919091529392505050565b600080600060608486031215614e9d57600080fd5b833567ffffffffffffffff80821115614eb557600080fd5b614ec187838801614d9b565b94506020860135915080821115614ed757600080fd5b50614ee486828701614e37565b9250506040840135614ef581614c48565b809150509250925092565b60008060408385031215614f1357600080fd5b823567ffffffffffffffff811115614f2a57600080fd5b614f3685828601614e37565b9250506020830135614f4781614c48565b809150509250929050565b60048110614f6257614f62614afb565b9052565b60208101610ec78284614f52565b60008060408385031215614f8757600080fd5b8235614f9281614c48565b946020939093013593505050565b60008060408385031215614fb357600080fd5b50508035926020909101359150565b600060e08284031215614fd457600080fd5b614fdc614c90565b8235614fe781614c48565b81526020830135614ff781614c48565b8060208301525060408301356040820152606083013560608201526080830135608082015260a083013560a082015260c083013561503481614c48565b60c08201529392505050565b60008060006060848603121561505557600080fd5b505081359360208301359350604090920135919050565b60038110614f6257614f62614afb565b60208101610ec7828461506c565b60208152600061103e6020830184614b71565b600080604083850312156150b057600080fd5b823567ffffffffffffffff808211156150c857600080fd5b6150d486838701614d9b565b93506020915081850135818111156150eb57600080fd5b8501601f810187136150fc57600080fd5b803561510a614dbc82614d77565b81815260059190911b8201840190848101908983111561512957600080fd5b8584015b83811015615161578035868111156151455760008081fd5b6151538c8983890101614e37565b84525091860191860161512d565b508096505050505050509250929050565b602080825282518282018190526000919060409081850190868401855b828110156151bd57815180516001600160a01b0316855286015186850152928401929085019060010161518f565b5091979650505050505050565b60008083601f8401126151dc57600080fd5b50813567ffffffffffffffff8111156151f457600080fd5b602083019150836020828501011115613a2f57600080fd5b60008060008060006060868803121561522457600080fd5b85359450602086013567ffffffffffffffff8082111561524357600080fd5b61524f89838a016151ca565b9096509450604088013591508082111561526857600080fd5b50615275888289016151ca565b969995985093965092949392505050565b8015158114611a9157600080fd5b6000602082840312156152a657600080fd5b813561103e81615286565b6001600160a01b038b811682528a8116602083015289166040820152606081018890526080810187905261014081016152e987614b11565b60a082019690965260c081019490945260e08401929092526101008301526101209091015295945050505050565b6000806040838503121561532a57600080fd5b823591506020830135614f4781614c48565b6000602080838503121561534f57600080fd5b823567ffffffffffffffff81111561536657600080fd5b8301601f8101851361537757600080fd5b8035615385614dbc82614d77565b81815260069190911b820183019083810190878311156153a457600080fd5b928401925b828410156134a957604084890312156153c25760008081fd5b6153ca614cb9565b8435815285850135868201528252604090930192908401906153a9565b602081016153f483614b11565b91905290565b6000806040838503121561540d57600080fd5b82359150602083013567ffffffffffffffff81111561542b57600080fd5b61543785828601614e37565b9150509250929050565b600181811c9082168061545557607f821691505b602082108103611a7a57634e487b7160e01b600052602260045260246000fd5b634e487b7160e01b600052601160045260246000fd5b81810381811115610ec757610ec7615475565b80820180821115610ec757610ec7615475565b6000602082840312156154c357600080fd5b815161103e81614c48565b634e487b7160e01b600052601260045260246000fd5b60008261550157634e487b7160e01b600052601260045260246000fd5b500490565b6001600160a01b0383168152610100810161103e60208301846001600160a01b0380825116835280602083015116602084015260408201516040840152606082015160608401526080820151608084015260a082015160a08401528060c08301511660c0840152505050565b8082028115828204841417610ec757610ec7615475565b60006020828403121561559b57600080fd5b815161103e81615286565b6000602082840312156155b857600080fd5b5051919050565b81835281816020850137506000828201602090810191909152601f909101601f19169091010190565b8381526040602082015260006156026040830184866155bf565b95945050505050565b60006001600160a01b03808a16835288602084015287604084015280871660608401525060c0608083015261564460c0830185876155bf565b90508260a083015298975050505050505050565b805161566381614c48565b919050565b80516003811061566357600080fd5b80516004811061566357600080fd5b60006020828403121561569857600080fd5b6040516020810181811067ffffffffffffffff821117156156bb576156bb614c7a565b6040529151825250919050565b600060e082840312156156da57600080fd5b6156e2614c90565b905081516156ef81614c48565b815260208201516156ff81614c48565b8060208301525060408201516040820152606082015160608201526080820151608082015260a082015160a082015260c082015161573c81614c48565b60c082015292915050565b6000610200828403121561575a57600080fd5b615762614cdc565b61576b83615658565b8152602083015160208201526040830151604082015260608301516060820152608083015160808201526157a160a08401615668565b60a08201526157b260c08401615677565b60c08201526157c48460e08501615686565b60e08201526101006157d8858286016156c8565b908201526157e96101e08401615658565b6101208201529392505050565b60006001820161580857615808615475565b5060010190565b82815281516001600160a01b031660208201526102208101602083015160408301526040830151606083015260608301516080830152608083015160a083015260a083015161586160c084018261506c565b5060c083015161587460e0840182614f52565b5060e083015161010061588981850183519052565b84015190506101206158eb848201836001600160a01b0380825116835280602083015116602084015260408201516040840152606082015160608401526080820151608084015260a082015160a08401528060c08301511660c0840152505050565b8401516001600160a01b0381166102008501529050509392505050565b6001600160a01b0383811682528254811660208301526001830154811660408301526002830154606083015260038301546080830152600483015460a0830152600583015460c083015260068301541660e0820181905261010082019061378f565b60006040828403121561597c57600080fd5b615984614cb9565b905081518152602082015167ffffffffffffffff8111156159a457600080fd5b8201601f810184136159b557600080fd5b80516159c3614dbc82614e0f565b8181528560208385010111156159d857600080fd5b6159e9826020830160208601614b21565b602084015250909392505050565b600060208284031215615a0957600080fd5b815167ffffffffffffffff80821115615a2157600080fd5b9083019060c08286031215615a3557600080fd5b615a3d614d00565b825181526020830151615a4f81614c48565b60208201526040830151615a6281614c48565b6040820152606083015182811115615a7957600080fd5b615a858782860161596a565b6060830152506080830151608082015260a083015160a082015280935050505092915050565b600060208284031215615abd57600080fd5b815167ffffffffffffffff80821115615ad557600080fd5b9083019060a08286031215615ae957600080fd5b615af1614d23565b825181526020830151615b0381614c48565b6020820152604083810151908201526060830151615b2081614c48565b6060820152608083015182811115615b3757600080fd5b615b438782860161596a565b60808301525095945050505050565b601f821115610f4857600081815260208120601f850160051c81016020861015615b795750805b601f850160051c820191505b81811015615b9857828155600101615b85565b505050505050565b815167ffffffffffffffff811115615bba57615bba614c7a565b615bce81615bc88454615441565b84615b52565b602080601f831160018114615c035760008415615beb5750858301515b600019600386901b1c1916600185901b178555615b98565b600085815260208120601f198616915b82811015615c3257888601518255948401946001909101908401615c13565b5085821015615c505787850151600019600388901b60f8161c191681555b5050505050600190811b01905550565b600060208284031215615c7257600080fd5b815160ff8116811461103e57600080fd5b600181815b80851115615cbe578160001904821115615ca457615ca4615475565b80851615615cb157918102915b93841c9390800290615c88565b509250929050565b600082615cd557506001610ec7565b81615ce257506000610ec7565b8160018114615cf85760028114615d0257615d1e565b6001915050610ec7565b60ff841115615d1357615d13615475565b50506001821b610ec7565b5060208310610133831016604e8410600b8410161715615d41575081810a610ec7565b615d4b8383615c83565b8060001904821115615d5f57615d5f615475565b029392505050565b600061103e8383615cc6565b634e487b7160e01b600052600160045260246000fd5b60006020808385031215615d9c57600080fd5b825167ffffffffffffffff811115615db357600080fd5b8301601f81018513615dc457600080fd5b8051615dd2614dbc82614d77565b81815260069190911b82018301908381019087831115615df157600080fd5b928401925b828410156134a95760408489031215615e0f5760008081fd5b615e17614cb9565b845181528585015186820152825260409093019290840190615df6565b634e487b7160e01b600052603260045260246000fd5b60208152600061103e6020830184614b45565b80820182811260008312801582168215821617156136165761361661547556fea2646970667358221220927829c43207a8a91385d86f7bf37f4cbbf50c1e9b677560c7d8dbce7572b3ff64736f6c63430008130033","linkReferences":{}},"methodIdentifiers":{"D()":"0f529ba2","MAX_STAKED_PROPOSALS()":"406244d8","NATIVE()":"a0cf0aea","RULING_OPTIONS()":"626c47e8","_minThresholdPoints()":"7c6570ba","activatePoints()":"814516ad","allocate(bytes,address)":"ef2920fc","arbitrableConfig()":"1073e996","calculateConviction(uint256,uint256,uint256)":"346db8cb","calculateThreshold(uint256)":"59a5db8b","canExecuteProposal(uint256)":"824ea8ed","cloneNonce()":"33960459","collateralVault()":"0bece79c","deactivatePoints()":"1ddf1e23","deactivatePoints(address)":"6453d9c4","decay()":"54fac919","decreasePower(address,uint256)":"2ed04b2b","disputeIdToProposalId(uint256)":"255ffb38","disputeProposal(uint256,string,bytes)":"b41596ec","distribute(address[],bytes,address)":"0a6f0ee9","getAllo()":"15cc481e","getCollateralVault()":"285a722d","getMaxAmount()":"0ba95909","getMaxConviction(uint256)":"950559d7","getMetadata(uint256)":"a574cea4","getPayouts(address[],bytes[])":"b2b878d0","getPointSystem()":"c3292171","getPoolAmount()":"4ab4ba42","getPoolId()":"38fff2d0","getProposal(uint256)":"c7f758a8","getProposalStakedAmount(uint256)":"dc96ff2d","getProposalVoterStake(uint256,address)":"e0dd2c38","getRecipientStatus(address)":"eb11af93","getStrategyId()":"42fda9c7","getTotalVoterStakePct(address)":"bcc5b93b","increasePoolAmount(uint256)":"f5b0dfb7","increasePower(address,uint256)":"782aadff","initialize(uint256,bytes)":"edd146cc","isPoolActive()":"df868ed3","isValidAllocator(address)":"4d31d087","maxRatio()":"76365af7","pointConfig()":"a47ff7e5","pointSystem()":"2dbd6fdd","proposalCounter()":"0c0512e9","proposalType()":"351d9f96","proposals(uint256)":"013cf08b","registerRecipient(bytes,address)":"2bbe0cae","registerTribunalSafe(address)":"4e2ffa88","registryCommunity()":"6003e414","rule(uint256,uint256)":"311a6c56","setArbitrationConfig((address,address,uint256,uint256,uint256,uint256,address))":"3142ba3c","setCollateralVault(address)":"68a806c4","setDecay(uint256)":"69fa25c4","setMaxRatio(uint256)":"11f22ae3","setMinThresholdPoints(uint256)":"2cefadbb","setPoolActive(bool)":"b5f620ce","setRegistryCommunity(address)":"058aca44","setSybilScorer(address)":"ac1ed7b9","setWeight(uint256)":"fc1711f2","supportProposal((uint256,int256)[])":"e33add93","supportsInterface(bytes4)":"01ffc9a7","sybilScorer()":"b6c61f31","totalEffectiveActivePoints()":"d1e36232","totalPointsActivated()":"aba9ffee","totalStaked()":"817b1cd2","totalVoterStakePct(address)":"5db64b99","updateProposalConviction(uint256)":"1aa91a9e","voterStakedProposals(address,uint256)":"868c57b8","weight()":"a1aab33f"},"storageLayout":{"storage":[{"astId":3339,"contract":"pkg/contracts/src/CVStrategy.sol:CVStrategy","label":"poolActive","offset":0,"slot":"0","type":"t_bool"},{"astId":3341,"contract":"pkg/contracts/src/CVStrategy.sol:CVStrategy","label":"poolId","offset":0,"slot":"1","type":"t_uint256"},{"astId":3343,"contract":"pkg/contracts/src/CVStrategy.sol:CVStrategy","label":"poolAmount","offset":0,"slot":"2","type":"t_uint256"},{"astId":56233,"contract":"pkg/contracts/src/CVStrategy.sol:CVStrategy","label":"_status","offset":0,"slot":"3","type":"t_uint256"},{"astId":75450,"contract":"pkg/contracts/src/CVStrategy.sol:CVStrategy","label":"decay","offset":0,"slot":"4","type":"t_uint256"},{"astId":75452,"contract":"pkg/contracts/src/CVStrategy.sol:CVStrategy","label":"maxRatio","offset":0,"slot":"5","type":"t_uint256"},{"astId":75454,"contract":"pkg/contracts/src/CVStrategy.sol:CVStrategy","label":"weight","offset":0,"slot":"6","type":"t_uint256"},{"astId":75457,"contract":"pkg/contracts/src/CVStrategy.sol:CVStrategy","label":"proposalCounter","offset":0,"slot":"7","type":"t_uint256"},{"astId":75459,"contract":"pkg/contracts/src/CVStrategy.sol:CVStrategy","label":"totalStaked","offset":0,"slot":"8","type":"t_uint256"},{"astId":75461,"contract":"pkg/contracts/src/CVStrategy.sol:CVStrategy","label":"totalPointsActivated","offset":0,"slot":"9","type":"t_uint256"},{"astId":75464,"contract":"pkg/contracts/src/CVStrategy.sol:CVStrategy","label":"_minThresholdPoints","offset":0,"slot":"10","type":"t_uint256"},{"astId":75466,"contract":"pkg/contracts/src/CVStrategy.sol:CVStrategy","label":"surpressStateMutabilityWarning","offset":0,"slot":"11","type":"t_uint256"},{"astId":75468,"contract":"pkg/contracts/src/CVStrategy.sol:CVStrategy","label":"cloneNonce","offset":0,"slot":"12","type":"t_uint256"},{"astId":75471,"contract":"pkg/contracts/src/CVStrategy.sol:CVStrategy","label":"proposalType","offset":0,"slot":"13","type":"t_enum(ProposalType)75069"},{"astId":75474,"contract":"pkg/contracts/src/CVStrategy.sol:CVStrategy","label":"pointSystem","offset":1,"slot":"13","type":"t_enum(PointSystem)75074"},{"astId":75477,"contract":"pkg/contracts/src/CVStrategy.sol:CVStrategy","label":"pointConfig","offset":0,"slot":"14","type":"t_struct(PointSystemConfig)75135_storage"},{"astId":75480,"contract":"pkg/contracts/src/CVStrategy.sol:CVStrategy","label":"arbitrableConfig","offset":0,"slot":"15","type":"t_struct(ArbitrableConfig)75151_storage"},{"astId":75483,"contract":"pkg/contracts/src/CVStrategy.sol:CVStrategy","label":"registryCommunity","offset":0,"slot":"22","type":"t_contract(RegistryCommunity)84928"},{"astId":75485,"contract":"pkg/contracts/src/CVStrategy.sol:CVStrategy","label":"collateralVault","offset":0,"slot":"23","type":"t_address"},{"astId":75488,"contract":"pkg/contracts/src/CVStrategy.sol:CVStrategy","label":"sybilScorer","offset":0,"slot":"24","type":"t_contract(ISybilScorer)82512"},{"astId":75493,"contract":"pkg/contracts/src/CVStrategy.sol:CVStrategy","label":"proposals","offset":0,"slot":"25","type":"t_mapping(t_uint256,t_struct(Proposal)75127_storage)"},{"astId":75497,"contract":"pkg/contracts/src/CVStrategy.sol:CVStrategy","label":"totalVoterStakePct","offset":0,"slot":"26","type":"t_mapping(t_address,t_uint256)"},{"astId":75502,"contract":"pkg/contracts/src/CVStrategy.sol:CVStrategy","label":"voterStakedProposals","offset":0,"slot":"27","type":"t_mapping(t_address,t_array(t_uint256)dyn_storage)"},{"astId":75506,"contract":"pkg/contracts/src/CVStrategy.sol:CVStrategy","label":"disputeIdToProposalId","offset":0,"slot":"28","type":"t_mapping(t_uint256,t_uint256)"}],"types":{"t_address":{"encoding":"inplace","label":"address","numberOfBytes":"20"},"t_array(t_uint256)dyn_storage":{"encoding":"dynamic_array","label":"uint256[]","numberOfBytes":"32","base":"t_uint256"},"t_bool":{"encoding":"inplace","label":"bool","numberOfBytes":"1"},"t_contract(IArbitrator)87966":{"encoding":"inplace","label":"contract IArbitrator","numberOfBytes":"20"},"t_contract(ISybilScorer)82512":{"encoding":"inplace","label":"contract ISybilScorer","numberOfBytes":"20"},"t_contract(RegistryCommunity)84928":{"encoding":"inplace","label":"contract RegistryCommunity","numberOfBytes":"20"},"t_enum(PointSystem)75074":{"encoding":"inplace","label":"enum StrategyStruct.PointSystem","numberOfBytes":"1"},"t_enum(ProposalStatus)75094":{"encoding":"inplace","label":"enum StrategyStruct.ProposalStatus","numberOfBytes":"1"},"t_enum(ProposalType)75069":{"encoding":"inplace","label":"enum StrategyStruct.ProposalType","numberOfBytes":"1"},"t_mapping(t_address,t_array(t_uint256)dyn_storage)":{"encoding":"mapping","key":"t_address","label":"mapping(address => uint256[])","numberOfBytes":"32","value":"t_array(t_uint256)dyn_storage"},"t_mapping(t_address,t_uint256)":{"encoding":"mapping","key":"t_address","label":"mapping(address => uint256)","numberOfBytes":"32","value":"t_uint256"},"t_mapping(t_uint256,t_struct(Proposal)75127_storage)":{"encoding":"mapping","key":"t_uint256","label":"mapping(uint256 => struct StrategyStruct.Proposal)","numberOfBytes":"32","value":"t_struct(Proposal)75127_storage"},"t_mapping(t_uint256,t_uint256)":{"encoding":"mapping","key":"t_uint256","label":"mapping(uint256 => uint256)","numberOfBytes":"32","value":"t_uint256"},"t_string_storage":{"encoding":"bytes","label":"string","numberOfBytes":"32"},"t_struct(ArbitrableConfig)75151_storage":{"encoding":"inplace","label":"struct StrategyStruct.ArbitrableConfig","numberOfBytes":"224","members":[{"astId":75138,"contract":"pkg/contracts/src/CVStrategy.sol:CVStrategy","label":"arbitrator","offset":0,"slot":"0","type":"t_contract(IArbitrator)87966"},{"astId":75140,"contract":"pkg/contracts/src/CVStrategy.sol:CVStrategy","label":"tribunalSafe","offset":0,"slot":"1","type":"t_address"},{"astId":75142,"contract":"pkg/contracts/src/CVStrategy.sol:CVStrategy","label":"submitterCollateralAmount","offset":0,"slot":"2","type":"t_uint256"},{"astId":75144,"contract":"pkg/contracts/src/CVStrategy.sol:CVStrategy","label":"challengerCollateralAmount","offset":0,"slot":"3","type":"t_uint256"},{"astId":75146,"contract":"pkg/contracts/src/CVStrategy.sol:CVStrategy","label":"defaultRuling","offset":0,"slot":"4","type":"t_uint256"},{"astId":75148,"contract":"pkg/contracts/src/CVStrategy.sol:CVStrategy","label":"defaultRulingTimeout","offset":0,"slot":"5","type":"t_uint256"},{"astId":75150,"contract":"pkg/contracts/src/CVStrategy.sol:CVStrategy","label":"collateralVaultTemplate","offset":0,"slot":"6","type":"t_address"}]},"t_struct(Metadata)3098_storage":{"encoding":"inplace","label":"struct Metadata","numberOfBytes":"64","members":[{"astId":3094,"contract":"pkg/contracts/src/CVStrategy.sol:CVStrategy","label":"protocol","offset":0,"slot":"0","type":"t_uint256"},{"astId":3097,"contract":"pkg/contracts/src/CVStrategy.sol:CVStrategy","label":"pointer","offset":0,"slot":"1","type":"t_string_storage"}]},"t_struct(PointSystemConfig)75135_storage":{"encoding":"inplace","label":"struct StrategyStruct.PointSystemConfig","numberOfBytes":"32","members":[{"astId":75134,"contract":"pkg/contracts/src/CVStrategy.sol:CVStrategy","label":"maxAmount","offset":0,"slot":"0","type":"t_uint256"}]},"t_struct(Proposal)75127_storage":{"encoding":"inplace","label":"struct StrategyStruct.Proposal","numberOfBytes":"480","members":[{"astId":75096,"contract":"pkg/contracts/src/CVStrategy.sol:CVStrategy","label":"proposalId","offset":0,"slot":"0","type":"t_uint256"},{"astId":75098,"contract":"pkg/contracts/src/CVStrategy.sol:CVStrategy","label":"requestedAmount","offset":0,"slot":"1","type":"t_uint256"},{"astId":75100,"contract":"pkg/contracts/src/CVStrategy.sol:CVStrategy","label":"stakedAmount","offset":0,"slot":"2","type":"t_uint256"},{"astId":75102,"contract":"pkg/contracts/src/CVStrategy.sol:CVStrategy","label":"convictionLast","offset":0,"slot":"3","type":"t_uint256"},{"astId":75104,"contract":"pkg/contracts/src/CVStrategy.sol:CVStrategy","label":"beneficiary","offset":0,"slot":"4","type":"t_address"},{"astId":75106,"contract":"pkg/contracts/src/CVStrategy.sol:CVStrategy","label":"submitter","offset":0,"slot":"5","type":"t_address"},{"astId":75108,"contract":"pkg/contracts/src/CVStrategy.sol:CVStrategy","label":"requestedToken","offset":0,"slot":"6","type":"t_address"},{"astId":75110,"contract":"pkg/contracts/src/CVStrategy.sol:CVStrategy","label":"blockLast","offset":0,"slot":"7","type":"t_uint256"},{"astId":75113,"contract":"pkg/contracts/src/CVStrategy.sol:CVStrategy","label":"proposalStatus","offset":0,"slot":"8","type":"t_enum(ProposalStatus)75094"},{"astId":75117,"contract":"pkg/contracts/src/CVStrategy.sol:CVStrategy","label":"voterStakedPoints","offset":0,"slot":"9","type":"t_mapping(t_address,t_uint256)"},{"astId":75120,"contract":"pkg/contracts/src/CVStrategy.sol:CVStrategy","label":"metadata","offset":0,"slot":"10","type":"t_struct(Metadata)3098_storage"},{"astId":75122,"contract":"pkg/contracts/src/CVStrategy.sol:CVStrategy","label":"disputeId","offset":0,"slot":"12","type":"t_uint256"},{"astId":75124,"contract":"pkg/contracts/src/CVStrategy.sol:CVStrategy","label":"disputeTimestamp","offset":0,"slot":"13","type":"t_uint256"},{"astId":75126,"contract":"pkg/contracts/src/CVStrategy.sol:CVStrategy","label":"challenger","offset":0,"slot":"14","type":"t_address"}]},"t_uint256":{"encoding":"inplace","label":"uint256","numberOfBytes":"32"}}},"id":130}