{"abi":[{"type":"fallback","stateMutability":"payable"},{"type":"receive","stateMutability":"payable"},{"type":"function","name":"DISPUTE_COOLDOWN_SEC","inputs":[],"outputs":[{"name":"","type":"uint256","internalType":"uint256"}],"stateMutability":"view"},{"type":"function","name":"NATIVE","inputs":[],"outputs":[{"name":"","type":"address","internalType":"address"}],"stateMutability":"view"},{"type":"function","name":"RULING_OPTIONS","inputs":[],"outputs":[{"name":"","type":"uint256","internalType":"uint256"}],"stateMutability":"view"},{"type":"function","name":"activatePoints","inputs":[],"outputs":[],"stateMutability":"nonpayable"},{"type":"function","name":"allocate","inputs":[{"name":"_data","type":"bytes","internalType":"bytes"},{"name":"_sender","type":"address","internalType":"address"}],"outputs":[],"stateMutability":"payable"},{"type":"function","name":"arbitrableConfigs","inputs":[{"name":"","type":"uint256","internalType":"uint256"}],"outputs":[{"name":"arbitrator","type":"address","internalType":"contract IArbitrator"},{"name":"tribunalSafe","type":"address","internalType":"address"},{"name":"submitterCollateralAmount","type":"uint256","internalType":"uint256"},{"name":"challengerCollateralAmount","type":"uint256","internalType":"uint256"},{"name":"defaultRuling","type":"uint256","internalType":"uint256"},{"name":"defaultRulingTimeout","type":"uint256","internalType":"uint256"}],"stateMutability":"view"},{"type":"function","name":"calculateProposalConviction","inputs":[{"name":"_proposalId","type":"uint256","internalType":"uint256"}],"outputs":[{"name":"","type":"uint256","internalType":"uint256"}],"stateMutability":"view"},{"type":"function","name":"calculateThreshold","inputs":[{"name":"_requestedAmount","type":"uint256","internalType":"uint256"}],"outputs":[{"name":"","type":"uint256","internalType":"uint256"}],"stateMutability":"view"},{"type":"function","name":"cancelProposal","inputs":[{"name":"proposalId","type":"uint256","internalType":"uint256"}],"outputs":[],"stateMutability":"nonpayable"},{"type":"function","name":"cloneNonce","inputs":[],"outputs":[{"name":"","type":"uint256","internalType":"uint256"}],"stateMutability":"view"},{"type":"function","name":"collateralVault","inputs":[],"outputs":[{"name":"","type":"address","internalType":"contract ICollateralVault"}],"stateMutability":"view"},{"type":"function","name":"connectSuperfluidGDA","inputs":[{"name":"gda","type":"address","internalType":"address"}],"outputs":[],"stateMutability":"nonpayable"},{"type":"function","name":"currentArbitrableConfigVersion","inputs":[],"outputs":[{"name":"","type":"uint256","internalType":"uint256"}],"stateMutability":"view"},{"type":"function","name":"cvParams","inputs":[],"outputs":[{"name":"maxRatio","type":"uint256","internalType":"uint256"},{"name":"weight","type":"uint256","internalType":"uint256"},{"name":"decay","type":"uint256","internalType":"uint256"},{"name":"minThresholdPoints","type":"uint256","internalType":"uint256"}],"stateMutability":"view"},{"type":"function","name":"deactivatePoints","inputs":[],"outputs":[],"stateMutability":"nonpayable"},{"type":"function","name":"deactivatePoints","inputs":[{"name":"_member","type":"address","internalType":"address"}],"outputs":[],"stateMutability":"nonpayable"},{"type":"function","name":"decreasePower","inputs":[{"name":"_member","type":"address","internalType":"address"},{"name":"_amountToUnstake","type":"uint256","internalType":"uint256"}],"outputs":[{"name":"","type":"uint256","internalType":"uint256"}],"stateMutability":"nonpayable"},{"type":"function","name":"diamondCut","inputs":[{"name":"_diamondCut","type":"tuple[]","internalType":"struct IDiamond.FacetCut[]","components":[{"name":"facetAddress","type":"address","internalType":"address"},{"name":"action","type":"uint8","internalType":"enum IDiamond.FacetCutAction"},{"name":"functionSelectors","type":"bytes4[]","internalType":"bytes4[]"}]},{"name":"_init","type":"address","internalType":"address"},{"name":"_calldata","type":"bytes","internalType":"bytes"}],"outputs":[],"stateMutability":"nonpayable"},{"type":"function","name":"disconnectSuperfluidGDA","inputs":[{"name":"gda","type":"address","internalType":"address"}],"outputs":[],"stateMutability":"nonpayable"},{"type":"function","name":"disputeCount","inputs":[],"outputs":[{"name":"","type":"uint64","internalType":"uint64"}],"stateMutability":"view"},{"type":"function","name":"disputeIdToProposalId","inputs":[{"name":"","type":"uint256","internalType":"uint256"}],"outputs":[{"name":"","type":"uint256","internalType":"uint256"}],"stateMutability":"view"},{"type":"function","name":"disputeProposal","inputs":[{"name":"proposalId","type":"uint256","internalType":"uint256"},{"name":"context","type":"string","internalType":"string"},{"name":"_extraData","type":"bytes","internalType":"bytes"}],"outputs":[{"name":"disputeId","type":"uint256","internalType":"uint256"}],"stateMutability":"payable"},{"type":"function","name":"distribute","inputs":[{"name":"","type":"address[]","internalType":"address[]"},{"name":"","type":"bytes","internalType":"bytes"},{"name":"","type":"address","internalType":"address"}],"outputs":[],"stateMutability":"nonpayable"},{"type":"function","name":"editProposal","inputs":[{"name":"_proposalId","type":"uint256","internalType":"uint256"},{"name":"_metadata","type":"tuple","internalType":"struct Metadata","components":[{"name":"protocol","type":"uint256","internalType":"uint256"},{"name":"pointer","type":"string","internalType":"string"}]},{"name":"_beneficiary","type":"address","internalType":"address"},{"name":"_requestedAmount","type":"uint256","internalType":"uint256"}],"outputs":[],"stateMutability":"nonpayable"},{"type":"function","name":"getAllo","inputs":[],"outputs":[{"name":"","type":"address","internalType":"contract IAllo"}],"stateMutability":"view"},{"type":"function","name":"getArbitrableConfig","inputs":[],"outputs":[{"name":"arbitrator","type":"address","internalType":"contract IArbitrator"},{"name":"tribunalSafe","type":"address","internalType":"address"},{"name":"submitterCollateralAmount","type":"uint256","internalType":"uint256"},{"name":"challengerCollateralAmount","type":"uint256","internalType":"uint256"},{"name":"defaultRuling","type":"uint256","internalType":"uint256"},{"name":"defaultRulingTimeout","type":"uint256","internalType":"uint256"}],"stateMutability":"view"},{"type":"function","name":"getPointSystem","inputs":[],"outputs":[{"name":"","type":"uint8","internalType":"enum PointSystem"}],"stateMutability":"view"},{"type":"function","name":"getPoolAmount","inputs":[],"outputs":[{"name":"","type":"uint256","internalType":"uint256"}],"stateMutability":"view"},{"type":"function","name":"getPoolId","inputs":[],"outputs":[{"name":"","type":"uint256","internalType":"uint256"}],"stateMutability":"view"},{"type":"function","name":"getProposal","inputs":[{"name":"_proposalId","type":"uint256","internalType":"uint256"}],"outputs":[{"name":"submitter","type":"address","internalType":"address"},{"name":"beneficiary","type":"address","internalType":"address"},{"name":"requestedToken","type":"address","internalType":"address"},{"name":"requestedAmount","type":"uint256","internalType":"uint256"},{"name":"stakedAmount","type":"uint256","internalType":"uint256"},{"name":"proposalStatus","type":"uint8","internalType":"enum ProposalStatus"},{"name":"blockLast","type":"uint256","internalType":"uint256"},{"name":"convictionLast","type":"uint256","internalType":"uint256"},{"name":"threshold","type":"uint256","internalType":"uint256"},{"name":"voterStakedPoints","type":"uint256","internalType":"uint256"},{"name":"arbitrableConfigVersion","type":"uint256","internalType":"uint256"},{"name":"protocol","type":"uint256","internalType":"uint256"}],"stateMutability":"view"},{"type":"function","name":"getProposalStakedAmount","inputs":[{"name":"_proposalId","type":"uint256","internalType":"uint256"}],"outputs":[{"name":"","type":"uint256","internalType":"uint256"}],"stateMutability":"view"},{"type":"function","name":"getProposalVoterStake","inputs":[{"name":"_proposalId","type":"uint256","internalType":"uint256"},{"name":"_voter","type":"address","internalType":"address"}],"outputs":[{"name":"","type":"uint256","internalType":"uint256"}],"stateMutability":"view"},{"type":"function","name":"increasePower","inputs":[{"name":"_member","type":"address","internalType":"address"},{"name":"_amountToStake","type":"uint256","internalType":"uint256"}],"outputs":[{"name":"","type":"uint256","internalType":"uint256"}],"stateMutability":"nonpayable"},{"type":"function","name":"init","inputs":[{"name":"_allo","type":"address","internalType":"address"},{"name":"_collateralVaultTemplate","type":"address","internalType":"address"},{"name":"_owner","type":"address","internalType":"address"}],"outputs":[],"stateMutability":"nonpayable"},{"type":"function","name":"init","inputs":[{"name":"_allo","type":"address","internalType":"address"},{"name":"_name","type":"string","internalType":"string"},{"name":"_owner","type":"address","internalType":"address"}],"outputs":[],"stateMutability":"nonpayable"},{"type":"function","name":"initialize","inputs":[{"name":"initialOwner","type":"address","internalType":"address"}],"outputs":[],"stateMutability":"nonpayable"},{"type":"function","name":"initialize","inputs":[{"name":"_poolId","type":"uint256","internalType":"uint256"},{"name":"_data","type":"bytes","internalType":"bytes"}],"outputs":[],"stateMutability":"nonpayable"},{"type":"function","name":"isPoolActive","inputs":[],"outputs":[{"name":"","type":"bool","internalType":"bool"}],"stateMutability":"view"},{"type":"function","name":"owner","inputs":[],"outputs":[{"name":"","type":"address","internalType":"address"}],"stateMutability":"view"},{"type":"function","name":"pointConfig","inputs":[],"outputs":[{"name":"maxAmount","type":"uint256","internalType":"uint256"}],"stateMutability":"view"},{"type":"function","name":"pointSystem","inputs":[],"outputs":[{"name":"","type":"uint8","internalType":"enum PointSystem"}],"stateMutability":"view"},{"type":"function","name":"proposalCounter","inputs":[],"outputs":[{"name":"","type":"uint256","internalType":"uint256"}],"stateMutability":"view"},{"type":"function","name":"proposalType","inputs":[],"outputs":[{"name":"","type":"uint8","internalType":"enum ProposalType"}],"stateMutability":"view"},{"type":"function","name":"proposals","inputs":[{"name":"","type":"uint256","internalType":"uint256"}],"outputs":[{"name":"proposalId","type":"uint256","internalType":"uint256"},{"name":"requestedAmount","type":"uint256","internalType":"uint256"},{"name":"stakedAmount","type":"uint256","internalType":"uint256"},{"name":"convictionLast","type":"uint256","internalType":"uint256"},{"name":"beneficiary","type":"address","internalType":"address"},{"name":"submitter","type":"address","internalType":"address"},{"name":"requestedToken","type":"address","internalType":"address"},{"name":"blockLast","type":"uint256","internalType":"uint256"},{"name":"proposalStatus","type":"uint8","internalType":"enum ProposalStatus"},{"name":"metadata","type":"tuple","internalType":"struct Metadata","components":[{"name":"protocol","type":"uint256","internalType":"uint256"},{"name":"pointer","type":"string","internalType":"string"}]},{"name":"disputeInfo","type":"tuple","internalType":"struct ProposalDisputeInfo","components":[{"name":"disputeId","type":"uint256","internalType":"uint256"},{"name":"disputeTimestamp","type":"uint256","internalType":"uint256"},{"name":"challenger","type":"address","internalType":"address"}]},{"name":"lastDisputeCompletion","type":"uint256","internalType":"uint256"},{"name":"arbitrableConfigVersion","type":"uint256","internalType":"uint256"},{"name":"creationTimestamp","type":"uint256","internalType":"uint256"}],"stateMutability":"view"},{"type":"function","name":"proxiableUUID","inputs":[],"outputs":[{"name":"","type":"bytes32","internalType":"bytes32"}],"stateMutability":"view"},{"type":"function","name":"proxyOwner","inputs":[],"outputs":[{"name":"","type":"address","internalType":"address"}],"stateMutability":"view"},{"type":"function","name":"registerRecipient","inputs":[{"name":"_data","type":"bytes","internalType":"bytes"},{"name":"_sender","type":"address","internalType":"address"}],"outputs":[{"name":"","type":"address","internalType":"address"}],"stateMutability":"payable"},{"type":"function","name":"registryCommunity","inputs":[],"outputs":[{"name":"","type":"address","internalType":"contract RegistryCommunity"}],"stateMutability":"view"},{"type":"function","name":"renounceOwnership","inputs":[],"outputs":[],"stateMutability":"nonpayable"},{"type":"function","name":"rule","inputs":[{"name":"","type":"uint256","internalType":"uint256"},{"name":"","type":"uint256","internalType":"uint256"}],"outputs":[],"stateMutability":"nonpayable"},{"type":"function","name":"setCollateralVaultTemplate","inputs":[{"name":"template","type":"address","internalType":"address"}],"outputs":[],"stateMutability":"nonpayable"},{"type":"function","name":"setPoolActive","inputs":[{"name":"_active","type":"bool","internalType":"bool"}],"outputs":[],"stateMutability":"nonpayable"},{"type":"function","name":"setPoolParams","inputs":[{"name":"_arbitrableConfig","type":"tuple","internalType":"struct ArbitrableConfig","components":[{"name":"arbitrator","type":"address","internalType":"contract IArbitrator"},{"name":"tribunalSafe","type":"address","internalType":"address"},{"name":"submitterCollateralAmount","type":"uint256","internalType":"uint256"},{"name":"challengerCollateralAmount","type":"uint256","internalType":"uint256"},{"name":"defaultRuling","type":"uint256","internalType":"uint256"},{"name":"defaultRulingTimeout","type":"uint256","internalType":"uint256"}]},{"name":"_cvParams","type":"tuple","internalType":"struct CVParams","components":[{"name":"maxRatio","type":"uint256","internalType":"uint256"},{"name":"weight","type":"uint256","internalType":"uint256"},{"name":"decay","type":"uint256","internalType":"uint256"},{"name":"minThresholdPoints","type":"uint256","internalType":"uint256"}]},{"name":"_sybilScoreThreshold","type":"uint256","internalType":"uint256"},{"name":"_membersToAdd","type":"address[]","internalType":"address[]"},{"name":"_membersToRemove","type":"address[]","internalType":"address[]"},{"name":"_superfluidToken","type":"address","internalType":"address"}],"outputs":[],"stateMutability":"nonpayable"},{"type":"function","name":"superfluidToken","inputs":[],"outputs":[{"name":"","type":"address","internalType":"contract ISuperToken"}],"stateMutability":"view"},{"type":"function","name":"supportsInterface","inputs":[{"name":"interfaceId","type":"bytes4","internalType":"bytes4"}],"outputs":[{"name":"","type":"bool","internalType":"bool"}],"stateMutability":"view"},{"type":"function","name":"sybilScorer","inputs":[],"outputs":[{"name":"","type":"address","internalType":"contract ISybilScorer"}],"stateMutability":"view"},{"type":"function","name":"totalPointsActivated","inputs":[],"outputs":[{"name":"","type":"uint256","internalType":"uint256"}],"stateMutability":"view"},{"type":"function","name":"totalStaked","inputs":[],"outputs":[{"name":"","type":"uint256","internalType":"uint256"}],"stateMutability":"view"},{"type":"function","name":"totalVoterStakePct","inputs":[{"name":"","type":"address","internalType":"address"}],"outputs":[{"name":"","type":"uint256","internalType":"uint256"}],"stateMutability":"view"},{"type":"function","name":"transferOwnership","inputs":[{"name":"newOwner","type":"address","internalType":"address"}],"outputs":[],"stateMutability":"nonpayable"},{"type":"function","name":"updateProposalConviction","inputs":[{"name":"proposalId","type":"uint256","internalType":"uint256"}],"outputs":[{"name":"","type":"uint256","internalType":"uint256"}],"stateMutability":"nonpayable"},{"type":"function","name":"upgradeTo","inputs":[{"name":"newImplementation","type":"address","internalType":"address"}],"outputs":[],"stateMutability":"nonpayable"},{"type":"function","name":"upgradeToAndCall","inputs":[{"name":"newImplementation","type":"address","internalType":"address"},{"name":"data","type":"bytes","internalType":"bytes"}],"outputs":[],"stateMutability":"payable"},{"type":"function","name":"voterStakedProposals","inputs":[{"name":"","type":"address","internalType":"address"},{"name":"","type":"uint256","internalType":"uint256"}],"outputs":[{"name":"","type":"uint256","internalType":"uint256"}],"stateMutability":"view"},{"type":"event","name":"AdminChanged","inputs":[{"name":"previousAdmin","type":"address","indexed":false,"internalType":"address"},{"name":"newAdmin","type":"address","indexed":false,"internalType":"address"}],"anonymous":false},{"type":"event","name":"Allocated","inputs":[{"name":"recipientId","type":"address","indexed":true,"internalType":"address"},{"name":"amount","type":"uint256","indexed":false,"internalType":"uint256"},{"name":"token","type":"address","indexed":false,"internalType":"address"},{"name":"sender","type":"address","indexed":false,"internalType":"address"}],"anonymous":false},{"type":"event","name":"AllowlistMembersAdded","inputs":[{"name":"poolId","type":"uint256","indexed":false,"internalType":"uint256"},{"name":"members","type":"address[]","indexed":false,"internalType":"address[]"}],"anonymous":false},{"type":"event","name":"AllowlistMembersRemoved","inputs":[{"name":"poolId","type":"uint256","indexed":false,"internalType":"uint256"},{"name":"members","type":"address[]","indexed":false,"internalType":"address[]"}],"anonymous":false},{"type":"event","name":"ArbitrableConfigUpdated","inputs":[{"name":"currentArbitrableConfigVersion","type":"uint256","indexed":false,"internalType":"uint256"},{"name":"arbitrator","type":"address","indexed":false,"internalType":"contract IArbitrator"},{"name":"tribunalSafe","type":"address","indexed":false,"internalType":"address"},{"name":"submitterCollateralAmount","type":"uint256","indexed":false,"internalType":"uint256"},{"name":"challengerCollateralAmount","type":"uint256","indexed":false,"internalType":"uint256"},{"name":"defaultRuling","type":"uint256","indexed":false,"internalType":"uint256"},{"name":"defaultRulingTimeout","type":"uint256","indexed":false,"internalType":"uint256"}],"anonymous":false},{"type":"event","name":"BeaconUpgraded","inputs":[{"name":"beacon","type":"address","indexed":true,"internalType":"address"}],"anonymous":false},{"type":"event","name":"CVParamsUpdated","inputs":[{"name":"cvParams","type":"tuple","indexed":false,"internalType":"struct CVParams","components":[{"name":"maxRatio","type":"uint256","internalType":"uint256"},{"name":"weight","type":"uint256","internalType":"uint256"},{"name":"decay","type":"uint256","internalType":"uint256"},{"name":"minThresholdPoints","type":"uint256","internalType":"uint256"}]}],"anonymous":false},{"type":"event","name":"DisputeRequest","inputs":[{"name":"_arbitrator","type":"address","indexed":true,"internalType":"contract IArbitrator"},{"name":"_arbitrableDisputeID","type":"uint256","indexed":true,"internalType":"uint256"},{"name":"_externalDisputeID","type":"uint256","indexed":false,"internalType":"uint256"},{"name":"_templateId","type":"uint256","indexed":false,"internalType":"uint256"},{"name":"_templateUri","type":"string","indexed":false,"internalType":"string"}],"anonymous":false},{"type":"event","name":"Distributed","inputs":[{"name":"proposalId","type":"uint256","indexed":false,"internalType":"uint256"},{"name":"beneficiary","type":"address","indexed":false,"internalType":"address"},{"name":"amount","type":"uint256","indexed":false,"internalType":"uint256"}],"anonymous":false},{"type":"event","name":"Distributed","inputs":[{"name":"recipientId","type":"address","indexed":true,"internalType":"address"},{"name":"recipientAddress","type":"address","indexed":false,"internalType":"address"},{"name":"amount","type":"uint256","indexed":false,"internalType":"uint256"},{"name":"sender","type":"address","indexed":false,"internalType":"address"}],"anonymous":false},{"type":"event","name":"Initialized","inputs":[{"name":"poolId","type":"uint256","indexed":false,"internalType":"uint256"},{"name":"data","type":"bytes","indexed":false,"internalType":"bytes"}],"anonymous":false},{"type":"event","name":"Initialized","inputs":[{"name":"version","type":"uint8","indexed":false,"internalType":"uint8"}],"anonymous":false},{"type":"event","name":"InitializedCV","inputs":[{"name":"poolId","type":"uint256","indexed":false,"internalType":"uint256"},{"name":"data","type":"tuple","indexed":false,"internalType":"struct CVStrategyInitializeParamsV0_0","components":[{"name":"cvParams","type":"tuple","internalType":"struct CVParams","components":[{"name":"maxRatio","type":"uint256","internalType":"uint256"},{"name":"weight","type":"uint256","internalType":"uint256"},{"name":"decay","type":"uint256","internalType":"uint256"},{"name":"minThresholdPoints","type":"uint256","internalType":"uint256"}]},{"name":"proposalType","type":"uint8","internalType":"enum ProposalType"},{"name":"pointSystem","type":"uint8","internalType":"enum PointSystem"},{"name":"pointConfig","type":"tuple","internalType":"struct PointSystemConfig","components":[{"name":"maxAmount","type":"uint256","internalType":"uint256"}]},{"name":"arbitrableConfig","type":"tuple","internalType":"struct ArbitrableConfig","components":[{"name":"arbitrator","type":"address","internalType":"contract IArbitrator"},{"name":"tribunalSafe","type":"address","internalType":"address"},{"name":"submitterCollateralAmount","type":"uint256","internalType":"uint256"},{"name":"challengerCollateralAmount","type":"uint256","internalType":"uint256"},{"name":"defaultRuling","type":"uint256","internalType":"uint256"},{"name":"defaultRulingTimeout","type":"uint256","internalType":"uint256"}]},{"name":"registryCommunity","type":"address","internalType":"address"},{"name":"sybilScorer","type":"address","internalType":"address"}]}],"anonymous":false},{"type":"event","name":"InitializedCV2","inputs":[{"name":"poolId","type":"uint256","indexed":false,"internalType":"uint256"},{"name":"data","type":"tuple","indexed":false,"internalType":"struct CVStrategyInitializeParamsV0_1","components":[{"name":"cvParams","type":"tuple","internalType":"struct CVParams","components":[{"name":"maxRatio","type":"uint256","internalType":"uint256"},{"name":"weight","type":"uint256","internalType":"uint256"},{"name":"decay","type":"uint256","internalType":"uint256"},{"name":"minThresholdPoints","type":"uint256","internalType":"uint256"}]},{"name":"proposalType","type":"uint8","internalType":"enum ProposalType"},{"name":"pointSystem","type":"uint8","internalType":"enum PointSystem"},{"name":"pointConfig","type":"tuple","internalType":"struct PointSystemConfig","components":[{"name":"maxAmount","type":"uint256","internalType":"uint256"}]},{"name":"arbitrableConfig","type":"tuple","internalType":"struct ArbitrableConfig","components":[{"name":"arbitrator","type":"address","internalType":"contract IArbitrator"},{"name":"tribunalSafe","type":"address","internalType":"address"},{"name":"submitterCollateralAmount","type":"uint256","internalType":"uint256"},{"name":"challengerCollateralAmount","type":"uint256","internalType":"uint256"},{"name":"defaultRuling","type":"uint256","internalType":"uint256"},{"name":"defaultRulingTimeout","type":"uint256","internalType":"uint256"}]},{"name":"registryCommunity","type":"address","internalType":"address"},{"name":"sybilScorer","type":"address","internalType":"address"},{"name":"sybilScorerThreshold","type":"uint256","internalType":"uint256"},{"name":"initialAllowlist","type":"address[]","internalType":"address[]"}]}],"anonymous":false},{"type":"event","name":"InitializedCV3","inputs":[{"name":"poolId","type":"uint256","indexed":false,"internalType":"uint256"},{"name":"data","type":"tuple","indexed":false,"internalType":"struct CVStrategyInitializeParamsV0_2","components":[{"name":"cvParams","type":"tuple","internalType":"struct CVParams","components":[{"name":"maxRatio","type":"uint256","internalType":"uint256"},{"name":"weight","type":"uint256","internalType":"uint256"},{"name":"decay","type":"uint256","internalType":"uint256"},{"name":"minThresholdPoints","type":"uint256","internalType":"uint256"}]},{"name":"proposalType","type":"uint8","internalType":"enum ProposalType"},{"name":"pointSystem","type":"uint8","internalType":"enum PointSystem"},{"name":"pointConfig","type":"tuple","internalType":"struct PointSystemConfig","components":[{"name":"maxAmount","type":"uint256","internalType":"uint256"}]},{"name":"arbitrableConfig","type":"tuple","internalType":"struct ArbitrableConfig","components":[{"name":"arbitrator","type":"address","internalType":"contract IArbitrator"},{"name":"tribunalSafe","type":"address","internalType":"address"},{"name":"submitterCollateralAmount","type":"uint256","internalType":"uint256"},{"name":"challengerCollateralAmount","type":"uint256","internalType":"uint256"},{"name":"defaultRuling","type":"uint256","internalType":"uint256"},{"name":"defaultRulingTimeout","type":"uint256","internalType":"uint256"}]},{"name":"registryCommunity","type":"address","internalType":"address"},{"name":"sybilScorer","type":"address","internalType":"address"},{"name":"sybilScorerThreshold","type":"uint256","internalType":"uint256"},{"name":"initialAllowlist","type":"address[]","internalType":"address[]"},{"name":"superfluidToken","type":"address","internalType":"address"}]}],"anonymous":false},{"type":"event","name":"OwnershipTransferred","inputs":[{"name":"previousOwner","type":"address","indexed":true,"internalType":"address"},{"name":"newOwner","type":"address","indexed":true,"internalType":"address"}],"anonymous":false},{"type":"event","name":"PointsDeactivated","inputs":[{"name":"member","type":"address","indexed":false,"internalType":"address"}],"anonymous":false},{"type":"event","name":"PoolActive","inputs":[{"name":"active","type":"bool","indexed":false,"internalType":"bool"}],"anonymous":false},{"type":"event","name":"PowerDecreased","inputs":[{"name":"member","type":"address","indexed":false,"internalType":"address"},{"name":"tokensUnStaked","type":"uint256","indexed":false,"internalType":"uint256"},{"name":"pointsToDecrease","type":"uint256","indexed":false,"internalType":"uint256"}],"anonymous":false},{"type":"event","name":"PowerIncreased","inputs":[{"name":"member","type":"address","indexed":false,"internalType":"address"},{"name":"tokensStaked","type":"uint256","indexed":false,"internalType":"uint256"},{"name":"pointsToIncrease","type":"uint256","indexed":false,"internalType":"uint256"}],"anonymous":false},{"type":"event","name":"ProposalCancelled","inputs":[{"name":"proposalId","type":"uint256","indexed":false,"internalType":"uint256"}],"anonymous":false},{"type":"event","name":"ProposalCreated","inputs":[{"name":"poolId","type":"uint256","indexed":false,"internalType":"uint256"},{"name":"proposalId","type":"uint256","indexed":false,"internalType":"uint256"}],"anonymous":false},{"type":"event","name":"ProposalDisputed","inputs":[{"name":"arbitrator","type":"address","indexed":false,"internalType":"contract IArbitrator"},{"name":"proposalId","type":"uint256","indexed":false,"internalType":"uint256"},{"name":"disputeId","type":"uint256","indexed":false,"internalType":"uint256"},{"name":"challenger","type":"address","indexed":false,"internalType":"address"},{"name":"context","type":"string","indexed":false,"internalType":"string"},{"name":"timestamp","type":"uint256","indexed":false,"internalType":"uint256"}],"anonymous":false},{"type":"event","name":"Registered","inputs":[{"name":"recipientId","type":"address","indexed":true,"internalType":"address"},{"name":"data","type":"bytes","indexed":false,"internalType":"bytes"},{"name":"sender","type":"address","indexed":false,"internalType":"address"}],"anonymous":false},{"type":"event","name":"Ruling","inputs":[{"name":"_arbitrator","type":"address","indexed":true,"internalType":"contract IArbitrator"},{"name":"_disputeID","type":"uint256","indexed":true,"internalType":"uint256"},{"name":"_ruling","type":"uint256","indexed":false,"internalType":"uint256"}],"anonymous":false},{"type":"event","name":"SuperfluidGDAConnected","inputs":[{"name":"gda","type":"address","indexed":true,"internalType":"address"},{"name":"by","type":"address","indexed":true,"internalType":"address"}],"anonymous":false},{"type":"event","name":"SuperfluidGDADisconnected","inputs":[{"name":"gda","type":"address","indexed":true,"internalType":"address"},{"name":"by","type":"address","indexed":true,"internalType":"address"}],"anonymous":false},{"type":"event","name":"SuperfluidTokenUpdated","inputs":[{"name":"superfluidToken","type":"address","indexed":false,"internalType":"address"}],"anonymous":false},{"type":"event","name":"SupportAdded","inputs":[{"name":"from","type":"address","indexed":false,"internalType":"address"},{"name":"proposalId","type":"uint256","indexed":false,"internalType":"uint256"},{"name":"amount","type":"uint256","indexed":false,"internalType":"uint256"},{"name":"totalStakedAmount","type":"uint256","indexed":false,"internalType":"uint256"},{"name":"convictionLast","type":"uint256","indexed":false,"internalType":"uint256"}],"anonymous":false},{"type":"event","name":"SybilScorerUpdated","inputs":[{"name":"sybilScorer","type":"address","indexed":false,"internalType":"address"}],"anonymous":false},{"type":"event","name":"Upgraded","inputs":[{"name":"implementation","type":"address","indexed":true,"internalType":"address"}],"anonymous":false},{"type":"error","name":"ALLOCATION_ACTIVE","inputs":[]},{"type":"error","name":"ALLOCATION_NOT_ACTIVE","inputs":[]},{"type":"error","name":"ALLOCATION_NOT_ENDED","inputs":[]},{"type":"error","name":"ALREADY_INITIALIZED","inputs":[]},{"type":"error","name":"AMOUNT_MISMATCH","inputs":[]},{"type":"error","name":"ANCHOR_ERROR","inputs":[]},{"type":"error","name":"ARRAY_MISMATCH","inputs":[]},{"type":"error","name":"AShouldBeUnderOrEqTwo_128","inputs":[]},{"type":"error","name":"AShouldBeUnderTwo_128","inputs":[]},{"type":"error","name":"AddressCannotBeZero","inputs":[]},{"type":"error","name":"AmountOverMaxRatio","inputs":[]},{"type":"error","name":"ArbitratorCannotBeZero","inputs":[]},{"type":"error","name":"BShouldBeLessTwo_128","inputs":[]},{"type":"error","name":"CallerNotOwner","inputs":[{"name":"_caller","type":"address","internalType":"address"},{"name":"_owner","type":"address","internalType":"address"}]},{"type":"error","name":"CannotAddFunctionToDiamondThatAlreadyExists","inputs":[{"name":"_selector","type":"bytes4","internalType":"bytes4"},{"name":"_selectorSignature","type":"string","internalType":"string"}]},{"type":"error","name":"CannotAddSelectorsToZeroAddress","inputs":[{"name":"_selectors","type":"bytes4[]","internalType":"bytes4[]"}]},{"type":"error","name":"CannotRemoveFunctionThatDoesNotExist","inputs":[{"name":"_selector","type":"bytes4","internalType":"bytes4"}]},{"type":"error","name":"CannotRemoveImmutableFunction","inputs":[{"name":"_selector","type":"bytes4","internalType":"bytes4"}]},{"type":"error","name":"CannotReplaceFunctionThatDoesNotExists","inputs":[{"name":"_selector","type":"bytes4","internalType":"bytes4"}]},{"type":"error","name":"CannotReplaceFunctionWithTheSameFunctionFromTheSameFacet","inputs":[{"name":"_selector","type":"bytes4","internalType":"bytes4"}]},{"type":"error","name":"CannotReplaceFunctionsFromFacetWithZeroAddress","inputs":[{"name":"_selectors","type":"bytes4[]","internalType":"bytes4[]"}]},{"type":"error","name":"CannotReplaceImmutableFunction","inputs":[{"name":"_selector","type":"bytes4","internalType":"bytes4"}]},{"type":"error","name":"ConvictionUnderMinimumThreshold","inputs":[]},{"type":"error","name":"DefaultRulingNotSet","inputs":[]},{"type":"error","name":"DisputeCooldownNotPassed","inputs":[{"name":"_proposalId","type":"uint256","internalType":"uint256"},{"name":"_remainingSec","type":"uint256","internalType":"uint256"}]},{"type":"error","name":"INVALID","inputs":[]},{"type":"error","name":"INVALID_ADDRESS","inputs":[]},{"type":"error","name":"INVALID_FEE","inputs":[]},{"type":"error","name":"INVALID_METADATA","inputs":[]},{"type":"error","name":"INVALID_REGISTRATION","inputs":[]},{"type":"error","name":"IS_APPROVED_STRATEGY","inputs":[]},{"type":"error","name":"IncorrectFacetCutAction","inputs":[{"name":"_action","type":"uint8","internalType":"uint8"}]},{"type":"error","name":"InitializationFunctionReverted","inputs":[{"name":"_initializationContractAddress","type":"address","internalType":"address"},{"name":"_calldata","type":"bytes","internalType":"bytes"}]},{"type":"error","name":"InsufficientCollateral","inputs":[{"name":"sentAmount","type":"uint256","internalType":"uint256"},{"name":"requiredAmount","type":"uint256","internalType":"uint256"}]},{"type":"error","name":"MISMATCH","inputs":[]},{"type":"error","name":"NONCE_NOT_AVAILABLE","inputs":[]},{"type":"error","name":"NON_ZERO_VALUE","inputs":[]},{"type":"error","name":"NOT_APPROVED_STRATEGY","inputs":[]},{"type":"error","name":"NOT_ENOUGH_FUNDS","inputs":[]},{"type":"error","name":"NOT_IMPLEMENTED","inputs":[]},{"type":"error","name":"NOT_INITIALIZED","inputs":[]},{"type":"error","name":"NOT_PENDING_OWNER","inputs":[]},{"type":"error","name":"NoBytecodeAtAddress","inputs":[{"name":"_contractAddress","type":"address","internalType":"address"},{"name":"_message","type":"string","internalType":"string"}]},{"type":"error","name":"NoSelectorsProvidedForFacetForCut","inputs":[{"name":"_facetAddress","type":"address","internalType":"address"}]},{"type":"error","name":"NotEnoughPointsToSupport","inputs":[{"name":"pointsSupport","type":"uint256","internalType":"uint256"},{"name":"pointsBalance","type":"uint256","internalType":"uint256"}]},{"type":"error","name":"NotImplemented","inputs":[]},{"type":"error","name":"OnlyArbitrator","inputs":[]},{"type":"error","name":"OnlyCommunityAllowed","inputs":[]},{"type":"error","name":"OnlyCouncilSafe","inputs":[]},{"type":"error","name":"OnlySubmitter","inputs":[{"name":"submitter","type":"address","internalType":"address"},{"name":"sender","type":"address","internalType":"address"}]},{"type":"error","name":"POOL_ACTIVE","inputs":[]},{"type":"error","name":"POOL_INACTIVE","inputs":[]},{"type":"error","name":"PoolAmountNotEnough","inputs":[{"name":"_proposalId","type":"uint256","internalType":"uint256"},{"name":"_requestedAmount","type":"uint256","internalType":"uint256"},{"name":"_poolAmount","type":"uint256","internalType":"uint256"}]},{"type":"error","name":"PoolIsEmpty","inputs":[]},{"type":"error","name":"ProposalDataIsEmpty","inputs":[]},{"type":"error","name":"ProposalIdCannotBeZero","inputs":[]},{"type":"error","name":"ProposalInvalidForAllocation","inputs":[{"name":"_proposalId","type":"uint256","internalType":"uint256"},{"name":"_proposalStatus","type":"uint8","internalType":"enum ProposalStatus"}]},{"type":"error","name":"ProposalNotActive","inputs":[{"name":"_proposalId","type":"uint256","internalType":"uint256"}]},{"type":"error","name":"ProposalNotDisputed","inputs":[{"name":"_proposalId","type":"uint256","internalType":"uint256"}]},{"type":"error","name":"ProposalNotInList","inputs":[{"name":"_proposalId","type":"uint256","internalType":"uint256"}]},{"type":"error","name":"ProposalSupportDuplicated","inputs":[{"name":"_proposalId","type":"uint256","internalType":"uint256"},{"name":"index","type":"uint256","internalType":"uint256"}]},{"type":"error","name":"RECIPIENT_ALREADY_ACCEPTED","inputs":[]},{"type":"error","name":"RECIPIENT_ERROR","inputs":[{"name":"recipientId","type":"address","internalType":"address"}]},{"type":"error","name":"RECIPIENT_NOT_ACCEPTED","inputs":[]},{"type":"error","name":"REGISTRATION_ACTIVE","inputs":[]},{"type":"error","name":"REGISTRATION_NOT_ACTIVE","inputs":[]},{"type":"error","name":"RegistryCannotBeZero","inputs":[]},{"type":"error","name":"RemoveFacetAddressMustBeZeroAddress","inputs":[{"name":"_facetAddress","type":"address","internalType":"address"}]},{"type":"error","name":"SupportUnderflow","inputs":[{"name":"_support","type":"uint256","internalType":"uint256"},{"name":"_delta","type":"int256","internalType":"int256"},{"name":"_result","type":"int256","internalType":"int256"}]},{"type":"error","name":"TokenCannotBeZero","inputs":[]},{"type":"error","name":"TokenNotAllowed","inputs":[]},{"type":"error","name":"UNAUTHORIZED","inputs":[]},{"type":"error","name":"UserCannotBeZero","inputs":[]},{"type":"error","name":"UserCannotExecuteAction","inputs":[]},{"type":"error","name":"UserIsInactive","inputs":[]},{"type":"error","name":"UserNotInRegistry","inputs":[]},{"type":"error","name":"ZERO_ADDRESS","inputs":[]}],"bytecode":{"object":"0x60a08060405234610031573060805261493e90816100378239608051818181610ffe0152818161116c01526111c50152f35b600080fdfe60806040526004361015610015575b366137a657005b60003560e01c8063013cf08b1461040157806301ffc9a7146103fc578063025313a2146103f7578063059351cd146103f257806305caa7f3146103ed5780630a6f0ee9146103e85780630bece79c146103e35780630c0512e9146103de578063125fd1d9146103d9578063141e3b38146103d457806315cc481e146103cf578063184b9559146103ca5780631aa91a9e146103c55780631ddf1e23146103c05780631f931c1c146103bb5780632506b870146103b6578063255ffb38146103b15780632bbe0cae146102e45780632dbd6fdd146103165780632ed04b2b146103ac578063311a6c56146103a757806333960459146103a2578063351d9f961461039d5780633659cfe61461039857806338fff2d01461039357806341bb76051461038e5780634ab4ba42146103895780634f1ef2861461038457806352d1902d1461037f57806359a5db8b1461037a5780635db64b99146103755780636003e4141461037057806360b0645a1461036b57806360d5dedc14610366578063626c47e8146103615780636453d9c41461030c578063715018a61461035c578063782aadff14610357578063814516ad14610352578063817b1cd21461034d578063868c57b8146103485780638da5cb5b14610343578063924e67041461030c578063a0cf0aea1461033e578063a28889e114610339578063a47ff7e514610334578063aba9ffee1461032f578063b0d3713a1461032a578063b41596ec14610325578063b5f620ce14610320578063b6c61f311461031b578063c329217114610316578063c4d66de814610311578063c69271ec1461030c578063c7f758a814610307578063d5b7cc5414610302578063dc96ff2d146102fd578063df868ed3146102f8578063e0a8f6f5146102f3578063e0dd2c38146102ee578063edd146cc146102e9578063ef2920fc146102e4578063f2fde38b146102df5763f5be3f7c0361000e576122ba565b612229565b610ec9565b611df6565b611db4565b611d9d565b611d7a565b611d4b565b611c98565b611b21565b611506565b611a87565b610f17565b611a5e565b611a04565b6119ad565b611966565b611948565b61192a565b611901565b6118d2565b6118a5565b61184d565b611819565b611720565b611571565b611522565b6114ea565b61143c565b6113df565b6113b6565b611379565b611272565b6111b2565b611128565b611105565b6110ac565b61108e565b610fd4565b610faa565b610f75565b610f5e565b610f42565b610e9d565b610e6f565b610dd8565b610d94565b610d4d565b610c47565b610c1e565b610ba9565b610b8b565b610b6d565b610b44565b610ae9565b61099b565b610928565b6108cc565b610858565b610791565b600052607f602052604060002090565b6001600160a01b031690565b634e487b7160e01b600052604160045260246000fd5b604081019081106001600160401b0382111761045357604052565b610422565b606081019081106001600160401b0382111761045357604052565b6001600160401b03811161045357604052565b608081019081106001600160401b0382111761045357604052565b60c081019081106001600160401b0382111761045357604052565b602081019081106001600160401b0382111761045357604052565b601f909101601f19168101906001600160401b0382119082101761045357604052565b6040519061014082016001600160401b0381118382101761045357604052565b6040519061052782610438565b565b906040519161053783610438565b828154815260018092019060405192600083549384831c9280861691821561060d575b60209687861084146105f9578589528894936020860193929181156105da5750600114610595575b505050610591925003846104d7565b0152565b6105a6919350600052602060002090565b936000925b878285106105c457505050610591935001388080610582565b86548585015295810195899550909301926105ab565b925050506105919491925060ff19168252151560051b01388080610582565b634e487b7160e01b85526022600452602485fd5b93607f169361055a565b9060405161062481610458565b82548152600183015460208201526002909201546001600160a01b03166040830152565b6001600160a01b03169052565b634e487b7160e01b600052602160045260246000fd5b9060078210156106785752565b610655565b60005b8381106106905750506000910152565b8181015183820152602001610680565b906020916106b98151809281855285808601910161067d565b601f01601f1916010190565b90604060206106e2938051845201519181602082015201906106a0565b90565b9a9e9d9c999594610745956101e09d9a9560608e6107819c97610735976107579d9783526020830152604082015201528c608060018060a01b038094169101521660a08c015260c08b0190610648565b60e089015261010088019061066b565b610200806101208801528601906106c5565b885161014086015260208901516101608601526040909801516001600160a01b0316610180850152565b6101a08301526101c08201520152565b3461083e57602036600319011261083e576107b8600435600052607b602052604060002090565b805461083a60018301549260028101549060038101546107db6004830154610416565b6107e86005840154610416565b6107f56006850154610416565b6007850154600886015460ff169161080f600a8801610529565b9361081c600c8901610617565b95600f89015497601160108b01549a01549a6040519e8f9e8f6106e5565b0390f35b600080fd5b35906001600160e01b03198216820361083e57565b3461083e57602036600319011261083e5760043563ffffffff60e01b811680910361083e5760209063188d362b60e11b811490811561089d575b506040519015158152f35b6301ffc9a760e01b14905038610892565b600091031261083e57565b6001600160a01b03909116815260200190565b3461083e57600036600319011261083e576033546040516001600160a01b039091168152602090f35b9260a09491979695929760c0850198600180881b0380921686521660208501526040840152606083015260808201520152565b3461083e57600036600319011261083e57606f5480600052607f60205260406000209061083a60018060a01b03916002838554169360018601541694015490600361097282610406565b0154600561098c600461098485610406565b015493610406565b015492604051968796876108f5565b3461083e57600036600319011261083e576080546040516001600160a01b039091168152602090f35b6001600160401b0381116104535760051b60200190565b6001600160a01b0381160361083e57565b60443590610527826109db565b60243590610527826109db565b6101a43590610527826109db565b81601f8201121561083e57803591610a2b836109c4565b92610a3960405194856104d7565b808452602092838086019260051b82010192831161083e578301905b828210610a63575050505090565b8380918335610a71816109db565b815201910190610a55565b6001600160401b03811161045357601f01601f191660200190565b929192610aa382610a7c565b91610ab160405193846104d7565b82948184528183011161083e578281602093846000960137010152565b9080601f8301121561083e578160206106e293359101610a97565b3461083e57606036600319011261083e576001600160401b0360043581811161083e57610b1a903690600401610a14565b5060243590811161083e57610b33903690600401610ace565b50610b3f6044356109db565b6137a6565b3461083e57600036600319011261083e576079546040516001600160a01b039091168152602090f35b3461083e57600036600319011261083e576020606e54604051908152f35b3461083e57600036600319011261083e576020606f54604051908152f35b3461083e5760031960803682011261083e576001600160401b03906024359082821161083e57604090823603011261083e5760405191610be883610438565b81600401358352602482013590811161083e576020916004610c0d9236920101610ace565b910152610c186109ec565b506137a6565b3461083e57600036600319011261083e576065546040516001600160a01b039091168152602090f35b3461083e57606036600319011261083e57600435610c64816109db565b610cc1602435610c73816109db565b60443590610c80826109db565b60005493610ca560ff8660081c161580968197610d3f575b8115610d1f575b50612942565b84610cb8600160ff196000541617600055565b610d06576129a5565b610cc757005b610cd761ff001960005416600055565b604051600181527f7f26b83ff96e1f2b6a682f133852f6798a09c465da95921460cefb384740249890602090a1005b610d1a61010061ff00196000541617600055565b6129a5565b303b15915081610d31575b5038610c9f565b6001915060ff161438610d2a565b600160ff8216109150610c98565b3461083e57602036600319011261083e5760043580600052607b60205260406000209081540361083e57600381610d8a600260209401548261321b565b0154604051908152f35b3461083e576000366003190112156137a657600080fd5b9181601f8401121561083e578235916001600160401b03831161083e576020838186019501011161083e57565b3461083e57606036600319011261083e576004356001600160401b0380821161083e573660238301121561083e5781600401359181831161083e573660248460051b8301011161083e57610e2a6109f9565b60443592831161083e57610e5193610e486024943690600401610dab565b9490930161384a565b005b9094939260609260808301968352602083015260408201520152565b3461083e57600036600319011261083e576072546073549061083a6074546075549060405194859485610e53565b3461083e57602036600319011261083e57600435600052607e6020526020604060002054604051908152f35b604036600319011261083e576004356001600160401b03811161083e57610ef4903690600401610ace565b50610b3f6024356109db565b6004111561067857565b9060048210156106785752565b3461083e57600036600319011261083e57602060ff60765460081c16610f406040518092610f0a565bf35b3461083e57604036600319011261083e57610b3f6004356109db565b3461083e576040366003190112156137a657600080fd5b3461083e57600036600319011261083e576020606c54604051908152f35b6003111561067857565b90610fa782610f93565b52565b3461083e57600036600319011261083e57602060ff6076541660405190610fd081610f93565b8152f35b3461083e57602036600319011261083e57600435610ff1816109db565b6001600160a01b036110437f0000000000000000000000000000000000000000000000000000000000000000821661102b3082141561238c565b826000805160206148b28339815191525416146123db565b61104b613983565b3391160361106557610e519061105f61243d565b90612537565b61108a611070613983565b60405163163678e960e01b81529182913360048401612fae565b0390fd5b3461083e57600036600319011261083e576020606854604051908152f35b3461083e57602036600319011261083e57600435600052607f602052604060002060018060a01b0361083a81835416916001840154169260028101549060038101546005600483015492015492604051968796876108f5565b3461083e57600036600319011261083e57602061112061355c565b604051908152f35b604036600319011261083e57600435611140816109db565b6024356001600160401b03811161083e5761115f903690600401610ace565b6001600160a01b036111997f0000000000000000000000000000000000000000000000000000000000000000821661102b3082141561238c565b6111a1613983565b3391160361106557610e51916125e8565b3461083e57600036600319011261083e577f00000000000000000000000000000000000000000000000000000000000000006001600160a01b0316300361120c576040516000805160206148b28339815191528152602090f35b60405162461bcd60e51b815260206004820152603860248201527f555550535570677261646561626c653a206d757374206e6f742062652063616c6044820152771b1959081d1a1c9bdd59da0819195b1959d85d1958d85b1b60421b6064820152608490fd5b3461083e57602036600319011261083e5760725460043561129a61129461355c565b83613208565b629896809081830291838304148315171561135d57111561083e576020906112c061355c565b906112ee60715494607454906073546075549260405198899788976314eff2dd60e11b8952600489016131b7565b038173__$f1b7c69ba751c396eddc93d3bbc5414fd9$__5af480156113585761083a9160009161132a575b506040519081529081906020820190565b61134b915060203d8111611351575b61134381836104d7565b81019061246f565b38611319565b503d611339565b61247e565b612a2e565b9060018060a01b0316600052602052604060002090565b3461083e57602036600319011261083e57600435611396816109db565b60018060a01b0316600052607c6020526020604060002054604051908152f35b3461083e57600036600319011261083e576078546040516001600160a01b039091168152602090f35b3461083e57602036600319011261083e57600435600052607b602052604060002060206114106007830154436131e5565b9160026003820154910154926112ee607454604051958694859462437f9960e21b865260048601610e53565b3461083e57606036600319011261083e57600435611459816109db565b6024356001600160401b03811161083e57611478903690600401610ace565b906114a7604435611488816109db565b6114a260ff60005460081c1661149d816128e2565b6128e2565b612355565b60018060a01b031660018060a01b031960655416176065556040516114e2816114d46020820194856128d1565b03601f1981018352826104d7565b519020606655005b3461083e57600036600319011261083e57602060405160038152f35b3461083e57602036600319011261083e57610b3f6004356109db565b3461083e5760008060031936011261156e5761153c6122d7565b603380546001600160a01b0319811690915581906001600160a01b03166000805160206148d28339815191528280a380f35b80fd5b3461083e57604036600319011261083e5760043561158e816109db565b6024356115996131a3565b6115a96115a583613006565b1590565b61083e57816115eb916115bd607854610416565b60765460081c60ff166077549060405195869283926348e346c360e01b84528660209889976004870161316e565b038173__$c032285ca413f3d1dae375e8699dd757fc$__5af492831561135857600093611701575b50611627611622607854610416565b610416565b9382604051809663011de97360e61b82528180611648308760048401612fae565b03915afa80156113585761083a957f0b9150e1e54346ed3fa36b977cd5d65dca5a649c737c3174a26bddaadd47667a946000926116d4575b50506116bb575b604080516001600160a01b039290921682526020820192909252908101839052606090a16040519081529081906020820190565b6116cf6116ca85607154612fe4565b607155565b611687565b6116f39250803d106116fa575b6116eb81836104d7565b810190612ff1565b3880611680565b503d6116e1565b611719919350823d84116113515761134381836104d7565b9138611613565b3461083e5760008060031936011261156e5761173e6115a533613006565b61156e57611750611622607854610416565b803b1561181557816040518092630d4a8b4960e01b8252818381611778303360048401612fae565b03925af18015611358576117fc575b50611796611622607854610416565b60206040518092637817ee4f60e01b82528185816117b8303360048401612fae565b03925af1908115611358576117db916116ca9184916117de575b50607154612fe4565b80f35b6117f6915060203d81116113515761134381836104d7565b386117d2565b8061180961180f92610473565b806108ae565b38611787565b5080fd5b3461083e57600036600319011261083e576020607054604051908152f35b634e487b7160e01b600052603260045260246000fd5b3461083e57604036600319011261083e5760043561186a816109db565b6001600160a01b03166000908152607d60205260408120805460243591908210156118a15782526020918290200154604051908152f35b8280fd5b3461083e57600036600319011261083e5760206118c0613983565b6040516001600160a01b039091168152f35b3461083e57600036600319011261083e57602060405173eeeeeeeeeeeeeeeeeeeeeeeeeeeeeeeeeeeeeeee8152f35b3461083e57600036600319011261083e57606d546040516001600160401b039091168152602090f35b3461083e57600036600319011261083e576020607754604051908152f35b3461083e57600036600319011261083e576020607154604051908152f35b3461083e57602036600319011261083e57600435611983816109db565b61198b6122d7565b606a80546001600160a01b0319166001600160a01b0392909216919091179055005b606036600319011261083e576001600160401b0360243581811161083e576119d9903690600401610dab565b505060443590811161083e576119f3903690600401610dab565b50506137a6565b8015150361083e57565b3461083e57602036600319011261083e577fd94c9bc4d43c51d8dc345a016d8e3d994432fac68e72832e4cf3a616bd8efae06020600435611a44816119fa565b151560ff196067541660ff821617606755604051908152a1005b3461083e57600036600319011261083e57607a546040516001600160a01b039091168152602090f35b3461083e57602036600319011261083e57610e51600435611aa7816109db565b6114a260ff60005460081c166128e2565b9997959391909c9b9a989694926101808b019d600160a01b6001900392838092168d521660208c01521660408a01526060890152608088015260a08701611afe9161066b565b60c086015260e08501526101008401526101208301526101408201526101600152565b3461083e57602036600319011261083e57611b48600435600052607b602052604060002090565b600181019081546000908015600014611bd557505061083a6000925b611b716005840154610416565b92611b7f6004820154610416565b94611b8d6006830154610416565b9254906002830154611ba3600885015460ff1690565b600785015490600386015492611bbc3360098901611362565b5495600a6010890154980154986040519c8d9c8d611ab8565b6020611bdf61355c565b60715492611c0f607454607354607254906075549260405198899788976314eff2dd60e11b8952600489016131b7565b038173__$f1b7c69ba751c396eddc93d3bbc5414fd9$__5af49081156113585761083a9291611c40575b5092611b64565b611c58915060203d81116113515761134381836104d7565b38611c39565b60809060c319011261083e5760405190611c7782610486565b60c435825260e4356020830152610104356040830152610124356060830152565b3461083e5736600319016101c0811261083e5760c01361083e57604051611cbe816104a1565b600435611cca816109db565b8152602435611cd8816109db565b602082015260443560408201526064356060820152608435608082015260a060a435910152611d0636611c5e565b506001600160401b036101643581811161083e57611d28903690600401610a14565b506101843590811161083e57611d42903690600401610a14565b50610c18610a06565b3461083e57602036600319011261083e57600435600052607b6020526020600260406000200154604051908152f35b3461083e57600036600319011261083e57602060ff606754166040519015158152f35b3461083e576020366003190112156137a657600080fd5b3461083e57604036600319011261083e576020611ded602435611dd6816109db565b600435600052607b83526009604060002001611362565b54604051908152f35b3461083e5760408060031936011261083e576004356024356001600160401b03811161083e57611e2a903690600401610ace565b611e32612f88565b611e3b82612f4a565b611e8b611e69611622611e4f606a54610416565b606c5490611e64611e5f83612a44565b606c55565b612e90565b607980546001600160a01b0319166001600160a01b0392909216919091179055565b611e99611622607954610416565b92833b1561083e578051809463204a7f0760e21b82528160046000978880945af1801561135857612216575b507f27cddb9d805ad332311bc448d558d9a480ce45ef8b7e99b382ee1f16267e567f611efb602093848082518301019101612bb4565b8094611f32611f1061162260a0850151610416565b607880546001600160a01b0319166001600160a01b0392909216919091179055565b611f4785830151611f4281610f93565b612c9b565b611f5c84830151611f5781610f00565b612cb4565b611f6a606083015151607755565b611f9f611f7d61162260c0850151610416565b607a80546001600160a01b0319166001600160a01b0392909216919091179055565b611fd5611fb3611622610120850151610416565b608080546001600160a01b0319166001600160a01b0392909216919091179055565b611fe3845192839283612d34565b0390a183608084018051611ff985820151610416565b906001600160a01b0382161515806121fe575b6120d6575b50505050825191818301511590816120ca575b50806120c1575b806120b5575b1561205f575b505061204a611622611622607a54610416565b612052575080f35b60e06117db910151613312565b8151607255602082015160735560408201516074556060820151607555517fec9315d9f4291207475c061feff1e5d7105750ac0ee9534af9444b4ff1dab9bc9181906120ab9082612e80565b0390a13880612037565b50606082015115612031565b5081511561202b565b90508201511538612024565b6116226120e39151610416565b90813b156121fa57839161210c91865195868094819363446adb9960e11b8352600483016108b9565b03925af1918215611358577fe677e2878aaaaf6a65ecf50f849ad58100c49f6dfd57d055ba4bddd63a175d53926121e7575b5061215261214d606f54612a44565b606f55565b6121678151612162606f54610406565b612e30565b606f549051906121db61217a8351610416565b9261218787820151610416565b8682015160608084015160808086015160a0968701518c51998a526001600160a01b039a8b1660208b0152999095166040890152918701929092528501529083015260c082019290925290819060e0820190565b0390a183388080612011565b806118096121f492610473565b3861213e565b8380fd5b5061220f6116226116228351610416565b151561200c565b8061180961222392610473565b38611ec5565b3461083e57602036600319011261083e57600435612246816109db565b61224e6122d7565b6001600160a01b0381161561226657610e5190612355565b60405162461bcd60e51b815260206004820152602660248201527f4f776e61626c653a206e6577206f776e657220697320746865207a65726f206160448201526564647265737360d01b6064820152608490fd5b3461083e57600036600319011261083e576020604051611c208152f35b6122df613983565b336001600160a01b03909116036122f257565b606460405162461bcd60e51b815260206004820152602060248201527f4f776e61626c653a2063616c6c6572206973206e6f7420746865206f776e65726044820152fd5b80546001600160a01b0319166001600160a01b03909216919091179055565b603380546001600160a01b039283166001600160a01b0319821681179092559091166000805160206148d2833981519152600080a3565b1561239357565b60405162461bcd60e51b815260206004820152602c602482015260008051602061489283398151915260448201526b19195b1959d85d1958d85b1b60a21b6064820152608490fd5b156123e257565b60405162461bcd60e51b815260206004820152602c602482015260008051602061489283398151915260448201526b6163746976652070726f787960a01b6064820152608490fd5b60405190612437826104bc565b60008252565b604051612449816104bc565b60008152906000368137565b6040519061246282610438565b600a825260203681840137565b9081602091031261083e575190565b6040513d6000823e3d90fd5b1561249157565b60405162461bcd60e51b815260206004820152602960248201527f45524331393637557067726164653a20756e737570706f727465642070726f786044820152681a58589b195555525160ba1b6064820152608490fd5b60809060208152602e60208201527f45524331393637557067726164653a206e657720696d706c656d656e7461746960408201526d6f6e206973206e6f74205555505360901b60608201520190565b906125516000805160206148728339815191525460ff1690565b15612560575061052790612699565b6040516352d1902d60e01b8152916020836004816001600160a01b0385165afa600093816125c8575b506125a75760405162461bcd60e51b81528061108a600482016124e8565b6125c36000805160206148b2833981519152610527941461248a565b612729565b6125e191945060203d81116113515761134381836104d7565b9238612589565b906126026000805160206148728339815191525460ff1690565b15612611575061052790612699565b6040516352d1902d60e01b8152916020836004816001600160a01b0385165afa60009381612679575b506126585760405162461bcd60e51b81528061108a600482016124e8565b6126746000805160206148b2833981519152610527941461248a565b6127d3565b61269291945060203d81116113515761134381836104d7565b923861263a565b803b156126ce576000805160206148b283398151915280546001600160a01b0319166001600160a01b03909216919091179055565b60405162461bcd60e51b815260206004820152602d60248201527f455243313936373a206e657720696d706c656d656e746174696f6e206973206e60448201526c1bdd08184818dbdb9d1c9858dd609a1b6064820152608490fd5b9061273382612699565b6001600160a01b0382166000805160206148f2833981519152600080a28051158015906127cb575b612763575050565b6127c8916000806040519361277785610458565b602785527f416464726573733a206c6f772d6c6576656c2064656c65676174652063616c6c6020860152660819985a5b195960ca1b6040860152602081519101845af46127c2612814565b91612844565b50565b50600061275b565b906127dd82612699565b6001600160a01b0382166000805160206148f2833981519152600080a280511580159061280c57612763575050565b50600161275b565b3d1561283f573d9061282582610a7c565b9161283360405193846104d7565b82523d6000602084013e565b606090565b919290156128a65750815115612858575090565b3b156128615790565b60405162461bcd60e51b815260206004820152601d60248201527f416464726573733a2063616c6c20746f206e6f6e2d636f6e74726163740000006044820152606490fd5b8251909150156128b95750805190602001fd5b60405162461bcd60e51b815290819061108a90600483015b9060206106e29281815201906106a0565b156128e957565b60405162461bcd60e51b815260206004820152602b60248201527f496e697469616c697a61626c653a20636f6e7472616374206973206e6f74206960448201526a6e697469616c697a696e6760a81b6064820152608490fd5b1561294957565b60405162461bcd60e51b815260206004820152602e60248201527f496e697469616c697a61626c653a20636f6e747261637420697320616c72656160448201526d191e481a5b9a5d1a585b1a5e995960921b6064820152608490fd5b91906129e3604051926129b784610438565b600a8452694356537472617465677960b01b60208501526114a260ff60005460081c1661149d816128e2565b60018060a01b03918260018060a01b03199416846065541617606555604051612a1c816114d460208201946020865260408301906106a0565b5190206066551690606a541617606a55565b634e487b7160e01b600052601160045260246000fd5b600019811461135d5760010190565b919082608091031261083e57604051612a6b81610486565b60608082948051845260208101516020850152604081015160408501520151910152565b6003111561083e57565b519061052782612a8f565b5190600482101561083e57565b919082602091031261083e57604051602081016001600160401b038111828210176104535760405291518252565b5190610527826109db565b91908260c091031261083e57604051612b02816104a1565b60a08082948051612b12816109db565b84526020810151612b22816109db565b60208501526040810151604085015260608101516060850152608081015160808501520151910152565b81601f8201121561083e57805191612b63836109c4565b92612b7160405194856104d7565b808452602092838086019260051b82010192831161083e578301905b828210612b9b575050505090565b8380918351612ba9816109db565b815201910190612b8d565b60208183031261083e5780516001600160401b039182821161083e5701916102408382031261083e57612be56104fa565b92612bf08282612a53565b8452612bfe60808201612a99565b6020850152612c0f60a08201612aa4565b6040850152612c218260c08301612ab1565b6060850152612c338260e08301612aea565b6080850152612c456101a08201612adf565b60a0850152612c576101c08201612adf565b60c08501526101e081015160e085015261020081015192831161083e57612c8661022092612c92948301612b4c565b61010085015201612adf565b61012082015290565b612ca481610f93565b60ff801960765416911617607655565b60048110156106785761ff006076549160081b169061ff00191617607655565b606080918051845260208101516020850152604081015160408501520151910152565b90815180825260208080930193019160005b828110612d17575050505090565b83516001600160a01b031685529381019392810192600101612d09565b6106e291815260406020820152612d4f604082018451612cd4565b612d61602084015160c0830190610f9d565b612d73604084015160e0830190610f0a565b6102606060840151612d8b6101009182850190519052565b612e25608086015191612ddf610120938487019060a08091600180831b0380825116855260208201511660208501526040810151604085015260608101516060850152608081015160808501520151910152565b612df260a08801516101e0870190610648565b612e0560c0880151610200870190610648565b60e087015161022086015286015161024080860152610280850190612cf7565b940151910190610648565b9060a0600591612e5b600180841b03612e4c8184511687612336565b60208301511660018601612336565b6040810151600285015560608101516003850155608081015160048501550151910155565b6080810192916105279190612cd4565b906e5af43d82803e903d91602b57fd5bf39060405160208101913360601b8352603482015260348152612ec281610458565b51902091763d602d80600a3d3981f3363d3d373d3d3d363d7300000062ffffff8260881c161760005260781b17602052603760096000f56001600160a01b03811615612f0b5790565b60405162461bcd60e51b8152602060048201526017602482015276115490cc4c4d8dce8818dc99585d194c8819985a5b1959604a1b6044820152606490fd5b612f52612f88565b606854612f76578015612f6457606855565b604051637fcce2a960e01b8152600490fd5b60405163439a74c960e01b8152600490fd5b6065546001600160a01b03163303612f9c57565b60405163075fd2b160e01b8152600490fd5b6001600160a01b0391821681529116602082015260400190565b600201908160021161135d57565b600301908160031161135d57565b9190820180921161135d57565b9081602091031261083e57516106e2816119fa565b613014611622607a54610416565b6001600160a01b03811615613075576130479160209160405180809581946302154c3d60e51b8352309060048401612fae565b03915afa9081156113585760009161305d575090565b6106e2915060203d81116116fa576116eb81836104d7565b5060685490604051916020926130a8816114d486820194856029916810531313d5d31254d560ba1b825260098201520190565b519020906130ba611622607854610416565b604051632474521560e21b80825260048201859052600060248301529291908581604481855afa90811561135857600091613151575b5015613100575050505050600190565b60405192835260048301939093526001600160a01b03166024820152908290829060449082905afa9182156113585760009261313b57505090565b6106e29250803d106116fa576116eb81836104d7565b6131689150863d88116116fa576116eb81836104d7565b386130f0565b6001600160a01b03918216815291166020820152604081019190915260a0810193929160809190610591906060830190610f0a565b6078546001600160a01b0316330361083e57565b93909796959260c0959260e08601998652602086015260408501526060840152608083015260a08201520152565b9190820391821161135d57565b908160011b918083046002149015171561135d57565b8181029291811591840414171561135d57565b90613226908261324d565b9091821580613245575b6132405760039160078201550155565b505050565b508115613230565b60078101544392918382116132e7578382146132db576003613271602093866131e5565b91015490613295607454604051958694859462437f9960e21b865260048601610e53565b038173__$f1b7c69ba751c396eddc93d3bbc5414fd9$__5af4908115611358576000916132c0575091565b6132d8915060203d81116113515761134381836104d7565b91565b50505050600090600090565b634e487b7160e01b600052600160045260246000fd5b9081602091031261083e57516106e2816109db565b6004613322611622607a54610416565b916020613333611622607854610416565b604051633629edcd60e11b815293849182905afa918215611358576000926133b3575b50823b1561083e5760405163fc2ebdd160e01b815230600482015260248101919091526001600160a01b03919091166044820152906000908290606490829084905af18015611358576133a65750565b8061180961052792610473565b6133d591925060203d81116133dc575b6133cd81836104d7565b8101906132fd565b9038613356565b503d6133c3565b919060408382031261083e576040516133fb81610438565b83518152602084015190938491906001600160401b03821161083e57019082601f8301121561083e5781519161343083610a7c565b9361343e60405195866104d7565b8385526020848301011161083e576020926105919184808701910161067d565b9060208282031261083e5781516001600160401b039283821161083e570160c08183031261083e5760405192613493846104a1565b8151845260208201516134a5816109db565b60208501526134b660408301612adf565b6040850152606082015190811161083e5760a0926134d59183016133e3565b606084015260808101516080840152015160a082015290565b9081602091031261083e575160ff8116810361083e5790565b60ff6011199116019060ff821161135d57565b60ff166012039060ff821161135d57565b60ff16604d811161135d57600a0a90565b8115613546570490565b634e487b7160e01b600052601260045260246000fd5b61359461356d611622606554610416565b606854604051809263068bcd8d60e01b825281806000968795600483019190602083019252565b03915afa801561135857604091839161375e575b5001516001600160a01b039081906135bf90610416565b169073eeeeeeeeeeeeeeeeeeeeeeeeeeeeeeeeeeeeeeee821461375757604051916370a0823160e01b918284526020938481806135ff30600483016108b9565b0381865afa9384156113585785918795613738575b50613623611622608054610416565b9283166136eb5750505083925b60048185936040519283809263313ce56760e01b82525afa918215611358576106e296926136be575b505060ff811693601285101561368d575061368792935061367c6136819161351a565b61352b565b9061353c565b90612fe4565b919360121061369e575b5050612fe4565b6136b692935061367c6136b091613507565b90613208565b903880613697565b6136dd9250803d106136e4575b6136d581836104d7565b8101906134ee565b3880613659565b503d6136cb565b6040519283918252818061370230600483016108b9565b03915afa90811561135857859161371b575b5092613630565b6137329150843d86116113515761134381836104d7565b38613714565b613750919550823d84116113515761134381836104d7565b9338613614565b5050504790565b61377a91503d8085833e61377281836104d7565b81019061345e565b386135a8565b63ffffffff60e01b16600052600080516020614852833981519152602052604060002090565b600080356001600160e01b031916815260008051602061485283398151915260205260408120546001600160a01b031680156137f957818091368280378136915af43d82803e156137f5573d90f35b3d90fd5b60405162461bcd60e51b815260206004820152602360248201527f435653747261746567793a2046756e6374696f6e20646f6573206e6f742065786044820152621a5cdd60ea1b6064820152608490fd5b94939092946138576122d7565b613860846109c4565b93604061386f815196876104d7565b81865260209283870190600593841b81019336851161083e5781925b8584106138af575050505050505061052793946138a9913691610a97565b91613af2565b6001600160401b03843581811161083e5784019060608236031261083e578651916138d983610458565b80356138e4816109db565b8352898101356138f381612a8f565b8a8401528781013591821161083e570136601f8201121561083e5780359061391a826109c4565b91613927895193846104d7565b8083528a80840191871b8301019136831161083e57908b80959396949201905b8682106139625750508394508882015281520193019261388b565b948192949693956139738293610843565b81520191018b9492959391613947565b6033546001600160a01b0316803b6139985790565b604051638da5cb5b60e01b8152602081600481855afa600091816139c5575b506139c0575090565b905090565b6139de91925060203d81116133dc576133cd81836104d7565b90386139b7565b80518210156139f95760209160051b010190565b611837565b516106e281610f93565b90815180825260208080930193019160005b828110613a28575050505090565b83516001600160e01b03191685529381019392810192600101613a1a565b93929091936060948582019386835280518095526080830160808660051b850101956020809301916000905b828210613a9d57505050506106e295965090613a9091830190610648565b60408184039101526106a0565b909192978480613ae46001938e607f198c83030187528d5191868060a01b03835116815284830151613ace81610f93565b8582015281604080940151938201520190613a08565b9a0192019201909291613a72565b92909160005b8451811015613bff57604080613b0e83886139e5565b51015190613b2d613b1f84896139e5565b51516001600160a01b031690565b90825115613be357613b4b6020613b44868b6139e5565b51016139fe565b90613b5582610f93565b81613b74575050613b6f9291613b6a91613d8e565b612a44565b613af8565b613b7d82610f93565b60018203613b95575050613b6f9291613b6a91613f05565b613b9e82610f93565b60028203613bb6575050613b6f9291613b6a91614072565b61108a9250613bc482610f93565b51633ff4d20f60e11b815260ff90911660048201529081906024820190565b5163e767f91f60e01b81529150819061108a90600483016108b9565b509092917f8faa70878671ccd212d20771b795c50af8fd3ff6cf27f4bde57e5d4de0aeb6738161052794613c398560405193849384613a46565b0390a16141fb565b9060206106e2928181520190613a08565b60405190613c5f82610458565b6024825263636f646560e01b6040837f4c69624469616d6f6e644375743a2041646420666163657420686173206e6f2060208201520152565b6040906106e2939263ffffffff60e01b16815281602082015201906106a0565b805461ffff60a01b191660a09290921b61ffff60a01b16919091179055565b61ffff602061052793613cf360018060a01b0382511685612336565b01511690613cb8565b9060008051602061491283398151915280548310156139f957600052601c60206000208360031c019260021b1690565b60008051602061491283398151915280549190600160401b8310156104535782613d5e91600161052795019055613cfc565b90919063ffffffff83549160031b9260e01c831b921b1916179055565b61ffff80911690811461135d5760010190565b91906001600160a01b03831615613e8a576000805160206149128339815191525461ffff1690613dc5613dbf613c52565b85614812565b6000915b8151831015613e8357613ded613ddf84846139e5565b516001600160e01b03191690565b613e09611622613dfc83613780565b546001600160a01b031690565b613e5d57613e5791613e4c613e5192613e47613e2361051a565b6001600160a01b038b16815261ffff85166020820152613e4283613780565b613cd7565b613d2c565b613d7b565b92612a44565b91613dc9565b613e66816142aa565b60405163d4624ab160e01b815291829161108a9160048401613c98565b5050509050565b6040516302b8da0760e21b815290819061108a9060048301613c41565b60405190613eb482610458565b6028825267206e6f20636f646560c01b6040837f4c69624469616d6f6e644375743a205265706c6163652066616365742068617360208201520152565b6001600160e01b0319909116815260200190565b6001600160a01b03811692918315613fd157613f28613f22613ea7565b83614812565b60005b8151811015613e8357613f41613ddf82846139e5565b613f50611622613dfc83613780565b308114613fb657868114613f9b5715613f7e5790613b6a84613f74613f7994613780565b612336565b613f2b565b604051637479f93960e01b815290819061108a9060048301613ef1565b604051631ac6ce8d60e11b81528061108a8460048301613ef1565b604051632901806d60e11b81528061108a8460048301613ef1565b60405163cd98a96f60e01b815290819061108a9060048301613c41565b90604051613ffb81610438565b91546001600160a01b038116835260a01c61ffff166020830152565b801561135d576000190190565b6000805160206149128339815191528054801561405c57600019019061404982613cfc565b63ffffffff82549160031b1b1916905555565b634e487b7160e01b600052603160045260246000fd5b600080516020614912833981519152549291906001600160a01b0381166141bc5750600090815b8151811015613e83576140af613ddf82846139e5565b946140c16140bc87613780565b613fee565b906140cf6116228351610416565b156141a157306140e26116228451610416565b146141865761412660209761412c94936140fc8894614017565b998a91018161ffff614110835161ffff1690565b1603614131575b5050614121614024565b613780565b55612a44565b614099565b61417a61417461415361414661417f95613cfc565b90549060031b1c60e01b90565b9261416c84613d5e614167845161ffff1690565b613cfc565b5161ffff1690565b91613780565b613cb8565b8838614117565b604051630df5fd6160e31b81528061108a8960048301613ef1565b604051637a08a22d60e01b81528061108a8960048301613ef1565b60405163d091bc8160e01b815290819061108a90600483016108b9565b6001600160a01b0390911681526040602082018190526106e2929101906106a0565b906001600160a01b038216156142a65761425b60405161421a81610458565b602881527f4c69624469616d6f6e644375743a205f696e6974206164647265737320686173602082015267206e6f20636f646560c01b604082015283614812565b600080825160208401855af491614270612814565b921561427b57505050565b82511561428a57825160208401fd5b61108a60405192839263192105d760e01b8452600484016141d9565b5050565b6142b3816146d7565b80516139c057506142c261437d565b6142ca612455565b9060306142d6836143a9565b5360786142e2836143b6565b53600093845b600480821015614373579061434a61431661431661436e946143248a861a928392600f9485911c168a6143c6565b516001600160f81b03191690565b614342614338614333886131f2565b612fc8565b918d1a918b6143c6565b5316866143c6565b61436861435e614359846131f2565b612fd6565b91891a91876143c6565b53612a44565b6142e8565b5050935050905090565b6040519061438a82610438565b601082526f181899199a1a9b1b9c1cb0b131b232b360811b6020830152565b8051156139f95760200190565b8051600110156139f95760210190565b9081518110156139f9570160200190565b604051906143e482610438565b601a825279435641646d696e46616365742e736574506f6f6c506172616d7360301b6020830152565b6040519061441a82610458565b60218252604160f81b6040837f435641646d696e46616365742e636f6e6e6563745375706572666c756964474460208201520152565b6040519061445d82610458565b60248252636447444160e01b6040837f435641646d696e46616365742e646973636f6e6e6563745375706572666c756960208201520152565b604051906144a382610438565b601a8252794356416c6c6f636174696f6e46616365742e616c6c6f6361746560301b6020830152565b604051906144d982610438565b601c82527b4356416c6c6f636174696f6e46616365742e6469737472696275746560201b6020830152565b6040519061451182610438565b601e82527f43564469737075746546616365742e6469737075746550726f706f73616c00006020830152565b6040519061454a82610438565b601382527243564469737075746546616365742e72756c6560681b6020830152565b6040519061457982610438565b601a82527921ab2837bbb2b92330b1b2ba173232b1b932b0b9b2a837bbb2b960311b6020830152565b604051906145af82610438565b601f82527f4356506f77657246616365742e64656163746976617465506f696e74732829006020830152565b604051906145e882610458565b602682526564726573732960d01b6040837f4356506f77657246616365742e64656163746976617465506f696e747328616460208201520152565b6040519061463082610458565b60218252601d60fa1b6040837f435650726f706f73616c46616365742e7265676973746572526563697069656e60208201520152565b6040519061467382610438565b601e82527f435650726f706f73616c46616365742e63616e63656c50726f706f73616c00006020830152565b604051906146ac82610438565b601c82527b10d5941c9bdc1bdcd85b119858d95d0b99591a5d141c9bdc1bdcd85b60221b6020830152565b6001600160e01b03191663356df31560e21b81146148095763249399c160e21b8114614800576331a49c7b60e21b81146147f757633bca483f60e21b81146147ee57630a6f0ee960e01b81146147e557632d0565bb60e21b81146147dc5763188d362b60e11b81146147d357632ed04b2b60e01b81146147ca57631ddf1e2360e01b81146147c157631914f67160e21b81146147b8576315df065760e11b81146147af5763e0a8f6f560e01b81146147a657630283c76760e31b1461479e576106e261242a565b6106e261469f565b506106e2614666565b506106e2614623565b506106e26145db565b506106e26145a2565b506106e261456c565b506106e261453d565b506106e2614504565b506106e26144cc565b506106e2614496565b506106e2614450565b506106e261440d565b506106e26143d7565b803b1561481d575050565b6040805163919834b960e01b81526001600160a01b039092166004830152602482015290819061108a9060448301906106a056fec8fcad8db84d3cc18b4c41d551ea0ee66dd599cde068d998e57d5e09332c131c4910fdfa16fed3260ed0e7147f7cc6da11a60208b5b9406d12a635614ffd914346756e6374696f6e206d7573742062652063616c6c6564207468726f75676820360894a13ba1a3210667c828492db98dca3e2076cc3735a920a3ca505d382bbc8be0079c531659141344cd1fd0a4f28419497f9722a3daafe3b4186f6b6457e0bc7cd75a20ee27fd9adebab32041f755214dbc6bffa90cc0225b39da2e5c2d3bc8fcad8db84d3cc18b4c41d551ea0ee66dd599cde068d998e57d5e09332c131da164736f6c6343000813000a","linkReferences":{"pkg/contracts/src/CVStrategy/ConvictionsUtils.sol":{"ConvictionsUtils":[{"start":4905,"length":20},{"start":7242,"length":20},{"start":13008,"length":20}]},"pkg/contracts/src/CVStrategy/PowerManagementUtils.sol":{"PowerManagementUtils":[{"start":5670,"length":20}]}}},"methodIdentifiers":{"DISPUTE_COOLDOWN_SEC()":"f5be3f7c","NATIVE()":"a0cf0aea","RULING_OPTIONS()":"626c47e8","activatePoints()":"814516ad","allocate(bytes,address)":"ef2920fc","arbitrableConfigs(uint256)":"41bb7605","calculateProposalConviction(uint256)":"60b0645a","calculateThreshold(uint256)":"59a5db8b","cancelProposal(uint256)":"e0a8f6f5","cloneNonce()":"33960459","collateralVault()":"0bece79c","connectSuperfluidGDA(address)":"924e6704","currentArbitrableConfigVersion()":"125fd1d9","cvParams()":"2506b870","deactivatePoints()":"1ddf1e23","deactivatePoints(address)":"6453d9c4","decreasePower(address,uint256)":"2ed04b2b","diamondCut((address,uint8,bytes4[])[],address,bytes)":"1f931c1c","disconnectSuperfluidGDA(address)":"c69271ec","disputeCount()":"a28889e1","disputeIdToProposalId(uint256)":"255ffb38","disputeProposal(uint256,string,bytes)":"b41596ec","distribute(address[],bytes,address)":"0a6f0ee9","editProposal(uint256,(uint256,string),address,uint256)":"141e3b38","getAllo()":"15cc481e","getArbitrableConfig()":"059351cd","getPointSystem()":"c3292171","getPoolAmount()":"4ab4ba42","getPoolId()":"38fff2d0","getProposal(uint256)":"c7f758a8","getProposalStakedAmount(uint256)":"dc96ff2d","getProposalVoterStake(uint256,address)":"e0dd2c38","increasePower(address,uint256)":"782aadff","init(address,address,address)":"184b9559","init(address,string,address)":"60d5dedc","initialize(address)":"c4d66de8","initialize(uint256,bytes)":"edd146cc","isPoolActive()":"df868ed3","owner()":"8da5cb5b","pointConfig()":"a47ff7e5","pointSystem()":"2dbd6fdd","proposalCounter()":"0c0512e9","proposalType()":"351d9f96","proposals(uint256)":"013cf08b","proxiableUUID()":"52d1902d","proxyOwner()":"025313a2","registerRecipient(bytes,address)":"2bbe0cae","registryCommunity()":"6003e414","renounceOwnership()":"715018a6","rule(uint256,uint256)":"311a6c56","setCollateralVaultTemplate(address)":"b0d3713a","setPoolActive(bool)":"b5f620ce","setPoolParams((address,address,uint256,uint256,uint256,uint256),(uint256,uint256,uint256,uint256),uint256,address[],address[],address)":"d5b7cc54","superfluidToken()":"05caa7f3","supportsInterface(bytes4)":"01ffc9a7","sybilScorer()":"b6c61f31","totalPointsActivated()":"aba9ffee","totalStaked()":"817b1cd2","totalVoterStakePct(address)":"5db64b99","transferOwnership(address)":"f2fde38b","updateProposalConviction(uint256)":"1aa91a9e","upgradeTo(address)":"3659cfe6","upgradeToAndCall(address,bytes)":"4f1ef286","voterStakedProposals(address,uint256)":"868c57b8"},"storageLayout":{"storage":[{"astId":52222,"contract":"pkg/contracts/src/CVStrategy/CVStrategy.sol:CVStrategy","label":"_initialized","offset":0,"slot":"0","type":"t_uint8"},{"astId":52225,"contract":"pkg/contracts/src/CVStrategy/CVStrategy.sol:CVStrategy","label":"_initializing","offset":1,"slot":"0","type":"t_bool"},{"astId":52927,"contract":"pkg/contracts/src/CVStrategy/CVStrategy.sol:CVStrategy","label":"__gap","offset":0,"slot":"1","type":"t_array(t_uint256)50_storage"},{"astId":52014,"contract":"pkg/contracts/src/CVStrategy/CVStrategy.sol:CVStrategy","label":"_owner","offset":0,"slot":"51","type":"t_address"},{"astId":52134,"contract":"pkg/contracts/src/CVStrategy/CVStrategy.sol:CVStrategy","label":"__gap","offset":0,"slot":"52","type":"t_array(t_uint256)49_storage"},{"astId":73456,"contract":"pkg/contracts/src/CVStrategy/CVStrategy.sol:CVStrategy","label":"allo","offset":0,"slot":"101","type":"t_contract(IAllo)2629"},{"astId":73458,"contract":"pkg/contracts/src/CVStrategy/CVStrategy.sol:CVStrategy","label":"strategyId","offset":0,"slot":"102","type":"t_bytes32"},{"astId":73460,"contract":"pkg/contracts/src/CVStrategy/CVStrategy.sol:CVStrategy","label":"poolActive","offset":0,"slot":"103","type":"t_bool"},{"astId":73462,"contract":"pkg/contracts/src/CVStrategy/CVStrategy.sol:CVStrategy","label":"poolId","offset":0,"slot":"104","type":"t_uint256"},{"astId":73464,"contract":"pkg/contracts/src/CVStrategy/CVStrategy.sol:CVStrategy","label":"poolAmount","offset":0,"slot":"105","type":"t_uint256"},{"astId":74017,"contract":"pkg/contracts/src/CVStrategy/CVStrategy.sol:CVStrategy","label":"collateralVaultTemplate","offset":0,"slot":"106","type":"t_address"},{"astId":74019,"contract":"pkg/contracts/src/CVStrategy/CVStrategy.sol:CVStrategy","label":"surpressStateMutabilityWarning","offset":0,"slot":"107","type":"t_uint256"},{"astId":74021,"contract":"pkg/contracts/src/CVStrategy/CVStrategy.sol:CVStrategy","label":"cloneNonce","offset":0,"slot":"108","type":"t_uint256"},{"astId":74023,"contract":"pkg/contracts/src/CVStrategy/CVStrategy.sol:CVStrategy","label":"disputeCount","offset":0,"slot":"109","type":"t_uint64"},{"astId":74025,"contract":"pkg/contracts/src/CVStrategy/CVStrategy.sol:CVStrategy","label":"proposalCounter","offset":0,"slot":"110","type":"t_uint256"},{"astId":74027,"contract":"pkg/contracts/src/CVStrategy/CVStrategy.sol:CVStrategy","label":"currentArbitrableConfigVersion","offset":0,"slot":"111","type":"t_uint256"},{"astId":74029,"contract":"pkg/contracts/src/CVStrategy/CVStrategy.sol:CVStrategy","label":"totalStaked","offset":0,"slot":"112","type":"t_uint256"},{"astId":74031,"contract":"pkg/contracts/src/CVStrategy/CVStrategy.sol:CVStrategy","label":"totalPointsActivated","offset":0,"slot":"113","type":"t_uint256"},{"astId":74034,"contract":"pkg/contracts/src/CVStrategy/CVStrategy.sol:CVStrategy","label":"cvParams","offset":0,"slot":"114","type":"t_struct(CVParams)76342_storage"},{"astId":74037,"contract":"pkg/contracts/src/CVStrategy/CVStrategy.sol:CVStrategy","label":"proposalType","offset":0,"slot":"118","type":"t_enum(ProposalType)76243"},{"astId":74040,"contract":"pkg/contracts/src/CVStrategy/CVStrategy.sol:CVStrategy","label":"pointSystem","offset":1,"slot":"118","type":"t_enum(PointSystem)76248"},{"astId":74043,"contract":"pkg/contracts/src/CVStrategy/CVStrategy.sol:CVStrategy","label":"pointConfig","offset":0,"slot":"119","type":"t_struct(PointSystemConfig)76319_storage"},{"astId":74046,"contract":"pkg/contracts/src/CVStrategy/CVStrategy.sol:CVStrategy","label":"registryCommunity","offset":0,"slot":"120","type":"t_contract(RegistryCommunity)82686"},{"astId":74049,"contract":"pkg/contracts/src/CVStrategy/CVStrategy.sol:CVStrategy","label":"collateralVault","offset":0,"slot":"121","type":"t_contract(ICollateralVault)87773"},{"astId":74052,"contract":"pkg/contracts/src/CVStrategy/CVStrategy.sol:CVStrategy","label":"sybilScorer","offset":0,"slot":"122","type":"t_contract(ISybilScorer)80708"},{"astId":74057,"contract":"pkg/contracts/src/CVStrategy/CVStrategy.sol:CVStrategy","label":"proposals","offset":0,"slot":"123","type":"t_mapping(t_uint256,t_struct(Proposal)76311_storage)"},{"astId":74061,"contract":"pkg/contracts/src/CVStrategy/CVStrategy.sol:CVStrategy","label":"totalVoterStakePct","offset":0,"slot":"124","type":"t_mapping(t_address,t_uint256)"},{"astId":74066,"contract":"pkg/contracts/src/CVStrategy/CVStrategy.sol:CVStrategy","label":"voterStakedProposals","offset":0,"slot":"125","type":"t_mapping(t_address,t_array(t_uint256)dyn_storage)"},{"astId":74070,"contract":"pkg/contracts/src/CVStrategy/CVStrategy.sol:CVStrategy","label":"disputeIdToProposalId","offset":0,"slot":"126","type":"t_mapping(t_uint256,t_uint256)"},{"astId":74075,"contract":"pkg/contracts/src/CVStrategy/CVStrategy.sol:CVStrategy","label":"arbitrableConfigs","offset":0,"slot":"127","type":"t_mapping(t_uint256,t_struct(ArbitrableConfig)76333_storage)"},{"astId":74078,"contract":"pkg/contracts/src/CVStrategy/CVStrategy.sol:CVStrategy","label":"superfluidToken","offset":0,"slot":"128","type":"t_contract(ISuperToken)70946"},{"astId":75496,"contract":"pkg/contracts/src/CVStrategy/CVStrategy.sol:CVStrategy","label":"__gap","offset":0,"slot":"129","type":"t_array(t_uint256)49_storage"}],"types":{"t_address":{"encoding":"inplace","label":"address","numberOfBytes":"20"},"t_array(t_uint256)49_storage":{"encoding":"inplace","label":"uint256[49]","numberOfBytes":"1568","base":"t_uint256"},"t_array(t_uint256)50_storage":{"encoding":"inplace","label":"uint256[50]","numberOfBytes":"1600","base":"t_uint256"},"t_array(t_uint256)dyn_storage":{"encoding":"dynamic_array","label":"uint256[]","numberOfBytes":"32","base":"t_uint256"},"t_bool":{"encoding":"inplace","label":"bool","numberOfBytes":"1"},"t_bytes32":{"encoding":"inplace","label":"bytes32","numberOfBytes":"32"},"t_contract(IAllo)2629":{"encoding":"inplace","label":"contract IAllo","numberOfBytes":"20"},"t_contract(IArbitrator)87740":{"encoding":"inplace","label":"contract IArbitrator","numberOfBytes":"20"},"t_contract(ICollateralVault)87773":{"encoding":"inplace","label":"contract ICollateralVault","numberOfBytes":"20"},"t_contract(ISuperToken)70946":{"encoding":"inplace","label":"contract ISuperToken","numberOfBytes":"20"},"t_contract(ISybilScorer)80708":{"encoding":"inplace","label":"contract ISybilScorer","numberOfBytes":"20"},"t_contract(RegistryCommunity)82686":{"encoding":"inplace","label":"contract RegistryCommunity","numberOfBytes":"20"},"t_enum(PointSystem)76248":{"encoding":"inplace","label":"enum PointSystem","numberOfBytes":"1"},"t_enum(ProposalStatus)76268":{"encoding":"inplace","label":"enum ProposalStatus","numberOfBytes":"1"},"t_enum(ProposalType)76243":{"encoding":"inplace","label":"enum ProposalType","numberOfBytes":"1"},"t_mapping(t_address,t_array(t_uint256)dyn_storage)":{"encoding":"mapping","key":"t_address","label":"mapping(address => uint256[])","numberOfBytes":"32","value":"t_array(t_uint256)dyn_storage"},"t_mapping(t_address,t_uint256)":{"encoding":"mapping","key":"t_address","label":"mapping(address => uint256)","numberOfBytes":"32","value":"t_uint256"},"t_mapping(t_uint256,t_struct(ArbitrableConfig)76333_storage)":{"encoding":"mapping","key":"t_uint256","label":"mapping(uint256 => struct ArbitrableConfig)","numberOfBytes":"32","value":"t_struct(ArbitrableConfig)76333_storage"},"t_mapping(t_uint256,t_struct(Proposal)76311_storage)":{"encoding":"mapping","key":"t_uint256","label":"mapping(uint256 => struct Proposal)","numberOfBytes":"32","value":"t_struct(Proposal)76311_storage"},"t_mapping(t_uint256,t_uint256)":{"encoding":"mapping","key":"t_uint256","label":"mapping(uint256 => uint256)","numberOfBytes":"32","value":"t_uint256"},"t_string_storage":{"encoding":"bytes","label":"string","numberOfBytes":"32"},"t_struct(ArbitrableConfig)76333_storage":{"encoding":"inplace","label":"struct ArbitrableConfig","numberOfBytes":"192","members":[{"astId":76322,"contract":"pkg/contracts/src/CVStrategy/CVStrategy.sol:CVStrategy","label":"arbitrator","offset":0,"slot":"0","type":"t_contract(IArbitrator)87740"},{"astId":76324,"contract":"pkg/contracts/src/CVStrategy/CVStrategy.sol:CVStrategy","label":"tribunalSafe","offset":0,"slot":"1","type":"t_address"},{"astId":76326,"contract":"pkg/contracts/src/CVStrategy/CVStrategy.sol:CVStrategy","label":"submitterCollateralAmount","offset":0,"slot":"2","type":"t_uint256"},{"astId":76328,"contract":"pkg/contracts/src/CVStrategy/CVStrategy.sol:CVStrategy","label":"challengerCollateralAmount","offset":0,"slot":"3","type":"t_uint256"},{"astId":76330,"contract":"pkg/contracts/src/CVStrategy/CVStrategy.sol:CVStrategy","label":"defaultRuling","offset":0,"slot":"4","type":"t_uint256"},{"astId":76332,"contract":"pkg/contracts/src/CVStrategy/CVStrategy.sol:CVStrategy","label":"defaultRulingTimeout","offset":0,"slot":"5","type":"t_uint256"}]},"t_struct(CVParams)76342_storage":{"encoding":"inplace","label":"struct CVParams","numberOfBytes":"128","members":[{"astId":76335,"contract":"pkg/contracts/src/CVStrategy/CVStrategy.sol:CVStrategy","label":"maxRatio","offset":0,"slot":"0","type":"t_uint256"},{"astId":76337,"contract":"pkg/contracts/src/CVStrategy/CVStrategy.sol:CVStrategy","label":"weight","offset":0,"slot":"1","type":"t_uint256"},{"astId":76339,"contract":"pkg/contracts/src/CVStrategy/CVStrategy.sol:CVStrategy","label":"decay","offset":0,"slot":"2","type":"t_uint256"},{"astId":76341,"contract":"pkg/contracts/src/CVStrategy/CVStrategy.sol:CVStrategy","label":"minThresholdPoints","offset":0,"slot":"3","type":"t_uint256"}]},"t_struct(Metadata)3080_storage":{"encoding":"inplace","label":"struct Metadata","numberOfBytes":"64","members":[{"astId":3076,"contract":"pkg/contracts/src/CVStrategy/CVStrategy.sol:CVStrategy","label":"protocol","offset":0,"slot":"0","type":"t_uint256"},{"astId":3079,"contract":"pkg/contracts/src/CVStrategy/CVStrategy.sol:CVStrategy","label":"pointer","offset":0,"slot":"1","type":"t_string_storage"}]},"t_struct(PointSystemConfig)76319_storage":{"encoding":"inplace","label":"struct PointSystemConfig","numberOfBytes":"32","members":[{"astId":76318,"contract":"pkg/contracts/src/CVStrategy/CVStrategy.sol:CVStrategy","label":"maxAmount","offset":0,"slot":"0","type":"t_uint256"}]},"t_struct(Proposal)76311_storage":{"encoding":"inplace","label":"struct Proposal","numberOfBytes":"576","members":[{"astId":76277,"contract":"pkg/contracts/src/CVStrategy/CVStrategy.sol:CVStrategy","label":"proposalId","offset":0,"slot":"0","type":"t_uint256"},{"astId":76279,"contract":"pkg/contracts/src/CVStrategy/CVStrategy.sol:CVStrategy","label":"requestedAmount","offset":0,"slot":"1","type":"t_uint256"},{"astId":76281,"contract":"pkg/contracts/src/CVStrategy/CVStrategy.sol:CVStrategy","label":"stakedAmount","offset":0,"slot":"2","type":"t_uint256"},{"astId":76283,"contract":"pkg/contracts/src/CVStrategy/CVStrategy.sol:CVStrategy","label":"convictionLast","offset":0,"slot":"3","type":"t_uint256"},{"astId":76285,"contract":"pkg/contracts/src/CVStrategy/CVStrategy.sol:CVStrategy","label":"beneficiary","offset":0,"slot":"4","type":"t_address"},{"astId":76287,"contract":"pkg/contracts/src/CVStrategy/CVStrategy.sol:CVStrategy","label":"submitter","offset":0,"slot":"5","type":"t_address"},{"astId":76289,"contract":"pkg/contracts/src/CVStrategy/CVStrategy.sol:CVStrategy","label":"requestedToken","offset":0,"slot":"6","type":"t_address"},{"astId":76291,"contract":"pkg/contracts/src/CVStrategy/CVStrategy.sol:CVStrategy","label":"blockLast","offset":0,"slot":"7","type":"t_uint256"},{"astId":76294,"contract":"pkg/contracts/src/CVStrategy/CVStrategy.sol:CVStrategy","label":"proposalStatus","offset":0,"slot":"8","type":"t_enum(ProposalStatus)76268"},{"astId":76298,"contract":"pkg/contracts/src/CVStrategy/CVStrategy.sol:CVStrategy","label":"voterStakedPoints","offset":0,"slot":"9","type":"t_mapping(t_address,t_uint256)"},{"astId":76301,"contract":"pkg/contracts/src/CVStrategy/CVStrategy.sol:CVStrategy","label":"metadata","offset":0,"slot":"10","type":"t_struct(Metadata)3080_storage"},{"astId":76304,"contract":"pkg/contracts/src/CVStrategy/CVStrategy.sol:CVStrategy","label":"disputeInfo","offset":0,"slot":"12","type":"t_struct(ProposalDisputeInfo)76275_storage"},{"astId":76306,"contract":"pkg/contracts/src/CVStrategy/CVStrategy.sol:CVStrategy","label":"lastDisputeCompletion","offset":0,"slot":"15","type":"t_uint256"},{"astId":76308,"contract":"pkg/contracts/src/CVStrategy/CVStrategy.sol:CVStrategy","label":"arbitrableConfigVersion","offset":0,"slot":"16","type":"t_uint256"},{"astId":76310,"contract":"pkg/contracts/src/CVStrategy/CVStrategy.sol:CVStrategy","label":"creationTimestamp","offset":0,"slot":"17","type":"t_uint256"}]},"t_struct(ProposalDisputeInfo)76275_storage":{"encoding":"inplace","label":"struct ProposalDisputeInfo","numberOfBytes":"96","members":[{"astId":76270,"contract":"pkg/contracts/src/CVStrategy/CVStrategy.sol:CVStrategy","label":"disputeId","offset":0,"slot":"0","type":"t_uint256"},{"astId":76272,"contract":"pkg/contracts/src/CVStrategy/CVStrategy.sol:CVStrategy","label":"disputeTimestamp","offset":0,"slot":"1","type":"t_uint256"},{"astId":76274,"contract":"pkg/contracts/src/CVStrategy/CVStrategy.sol:CVStrategy","label":"challenger","offset":0,"slot":"2","type":"t_address"}]},"t_uint256":{"encoding":"inplace","label":"uint256","numberOfBytes":"32"},"t_uint64":{"encoding":"inplace","label":"uint64","numberOfBytes":"8"},"t_uint8":{"encoding":"inplace","label":"uint8","numberOfBytes":"1"}}},"id":118}