{"abi":[{"type":"constructor","inputs":[{"name":"_allo","type":"address","internalType":"address"}],"stateMutability":"nonpayable"},{"type":"fallback","stateMutability":"payable"},{"type":"receive","stateMutability":"payable"},{"type":"function","name":"D","inputs":[],"outputs":[{"name":"","type":"uint256","internalType":"uint256"}],"stateMutability":"view"},{"type":"function","name":"MAX_STAKED_PROPOSALS","inputs":[],"outputs":[{"name":"","type":"uint256","internalType":"uint256"}],"stateMutability":"view"},{"type":"function","name":"NATIVE","inputs":[],"outputs":[{"name":"","type":"address","internalType":"address"}],"stateMutability":"view"},{"type":"function","name":"activatePoints","inputs":[],"outputs":[],"stateMutability":"nonpayable"},{"type":"function","name":"allocate","inputs":[{"name":"_data","type":"bytes","internalType":"bytes"},{"name":"_sender","type":"address","internalType":"address"}],"outputs":[],"stateMutability":"payable"},{"type":"function","name":"calculateConviction","inputs":[{"name":"_timePassed","type":"uint256","internalType":"uint256"},{"name":"_lastConv","type":"uint256","internalType":"uint256"},{"name":"_oldAmount","type":"uint256","internalType":"uint256"}],"outputs":[{"name":"","type":"uint256","internalType":"uint256"}],"stateMutability":"view"},{"type":"function","name":"calculateThreshold","inputs":[{"name":"_requestedAmount","type":"uint256","internalType":"uint256"}],"outputs":[{"name":"_threshold","type":"uint256","internalType":"uint256"}],"stateMutability":"view"},{"type":"function","name":"deactivatePoints","inputs":[],"outputs":[],"stateMutability":"nonpayable"},{"type":"function","name":"decay","inputs":[],"outputs":[{"name":"","type":"uint256","internalType":"uint256"}],"stateMutability":"view"},{"type":"function","name":"distribute","inputs":[{"name":"_recipientIds","type":"address[]","internalType":"address[]"},{"name":"_data","type":"bytes","internalType":"bytes"},{"name":"_sender","type":"address","internalType":"address"}],"outputs":[],"stateMutability":"nonpayable"},{"type":"function","name":"getAllo","inputs":[],"outputs":[{"name":"","type":"address","internalType":"contract IAllo"}],"stateMutability":"view"},{"type":"function","name":"getMaxConviction","inputs":[{"name":"amount","type":"uint256","internalType":"uint256"}],"outputs":[{"name":"","type":"uint256","internalType":"uint256"}],"stateMutability":"view"},{"type":"function","name":"getPayouts","inputs":[{"name":"","type":"address[]","internalType":"address[]"},{"name":"","type":"bytes[]","internalType":"bytes[]"}],"outputs":[{"name":"","type":"tuple[]","internalType":"struct IStrategy.PayoutSummary[]","components":[{"name":"recipientAddress","type":"address","internalType":"address"},{"name":"amount","type":"uint256","internalType":"uint256"}]}],"stateMutability":"view"},{"type":"function","name":"getPoolAmount","inputs":[],"outputs":[{"name":"","type":"uint256","internalType":"uint256"}],"stateMutability":"view"},{"type":"function","name":"getPoolId","inputs":[],"outputs":[{"name":"","type":"uint256","internalType":"uint256"}],"stateMutability":"view"},{"type":"function","name":"getProposal","inputs":[{"name":"_proposalId","type":"uint256","internalType":"uint256"}],"outputs":[{"name":"submitter","type":"address","internalType":"address"},{"name":"beneficiary","type":"address","internalType":"address"},{"name":"requestedToken","type":"address","internalType":"address"},{"name":"requestedAmount","type":"uint256","internalType":"uint256"},{"name":"stakedTokens","type":"uint256","internalType":"uint256"},{"name":"proposalType","type":"uint8","internalType":"enum CVStrategy.ProposalType"},{"name":"proposalStatus","type":"uint8","internalType":"enum CVStrategy.ProposalStatus"},{"name":"blockLast","type":"uint256","internalType":"uint256"},{"name":"convictionLast","type":"uint256","internalType":"uint256"},{"name":"agreementActionId","type":"uint256","internalType":"uint256"},{"name":"threshold","type":"uint256","internalType":"uint256"},{"name":"voterStakedPointsPct","type":"uint256","internalType":"uint256"}],"stateMutability":"view"},{"type":"function","name":"getProposalStakedAmount","inputs":[{"name":"_proposalId","type":"uint256","internalType":"uint256"}],"outputs":[{"name":"","type":"uint256","internalType":"uint256"}],"stateMutability":"view"},{"type":"function","name":"getProposalVoterStake","inputs":[{"name":"_proposalId","type":"uint256","internalType":"uint256"},{"name":"_voter","type":"address","internalType":"address"}],"outputs":[{"name":"","type":"uint256","internalType":"uint256"}],"stateMutability":"view"},{"type":"function","name":"getRecipientStatus","inputs":[{"name":"_recipientId","type":"address","internalType":"address"}],"outputs":[{"name":"","type":"uint8","internalType":"enum IStrategy.Status"}],"stateMutability":"view"},{"type":"function","name":"getStrategyId","inputs":[],"outputs":[{"name":"","type":"bytes32","internalType":"bytes32"}],"stateMutability":"view"},{"type":"function","name":"getTotalVoterStakePct","inputs":[{"name":"_voter","type":"address","internalType":"address"}],"outputs":[{"name":"","type":"uint256","internalType":"uint256"}],"stateMutability":"view"},{"type":"function","name":"increasePoolAmount","inputs":[{"name":"_amount","type":"uint256","internalType":"uint256"}],"outputs":[],"stateMutability":"nonpayable"},{"type":"function","name":"initialize","inputs":[{"name":"_poolId","type":"uint256","internalType":"uint256"},{"name":"_data","type":"bytes","internalType":"bytes"}],"outputs":[],"stateMutability":"nonpayable"},{"type":"function","name":"isPoolActive","inputs":[],"outputs":[{"name":"","type":"bool","internalType":"bool"}],"stateMutability":"view"},{"type":"function","name":"isValidAllocator","inputs":[{"name":"_allocator","type":"address","internalType":"address"}],"outputs":[{"name":"","type":"bool","internalType":"bool"}],"stateMutability":"view"},{"type":"function","name":"maxRatio","inputs":[],"outputs":[{"name":"","type":"uint256","internalType":"uint256"}],"stateMutability":"view"},{"type":"function","name":"minPointsActivated","inputs":[],"outputs":[{"name":"","type":"uint256","internalType":"uint256"}],"stateMutability":"view"},{"type":"function","name":"proposalCounter","inputs":[],"outputs":[{"name":"","type":"uint256","internalType":"uint256"}],"stateMutability":"view"},{"type":"function","name":"proposals","inputs":[{"name":"","type":"uint256","internalType":"uint256"}],"outputs":[{"name":"proposalId","type":"uint256","internalType":"uint256"},{"name":"requestedAmount","type":"uint256","internalType":"uint256"},{"name":"stakedAmount","type":"uint256","internalType":"uint256"},{"name":"convictionLast","type":"uint256","internalType":"uint256"},{"name":"agreementActionId","type":"uint256","internalType":"uint256"},{"name":"beneficiary","type":"address","internalType":"address"},{"name":"submitter","type":"address","internalType":"address"},{"name":"requestedToken","type":"address","internalType":"address"},{"name":"blockLast","type":"uint256","internalType":"uint256"},{"name":"proposalStatus","type":"uint8","internalType":"enum CVStrategy.ProposalStatus"},{"name":"proposalType","type":"uint8","internalType":"enum CVStrategy.ProposalType"}],"stateMutability":"view"},{"type":"function","name":"registerRecipient","inputs":[{"name":"_data","type":"bytes","internalType":"bytes"},{"name":"_sender","type":"address","internalType":"address"}],"outputs":[{"name":"recipientId","type":"address","internalType":"address"}],"stateMutability":"payable"},{"type":"function","name":"setDecay","inputs":[{"name":"_decay","type":"uint256","internalType":"uint256"}],"outputs":[],"stateMutability":"nonpayable"},{"type":"function","name":"setMaxRatio","inputs":[{"name":"_maxRatio","type":"uint256","internalType":"uint256"}],"outputs":[],"stateMutability":"nonpayable"},{"type":"function","name":"setPoolActive","inputs":[{"name":"_active","type":"bool","internalType":"bool"}],"outputs":[],"stateMutability":"nonpayable"},{"type":"function","name":"setRegistryGardens","inputs":[{"name":"_registryGardens","type":"address","internalType":"address"}],"outputs":[],"stateMutability":"nonpayable"},{"type":"function","name":"setWeight","inputs":[{"name":"_weight","type":"uint256","internalType":"uint256"}],"outputs":[],"stateMutability":"nonpayable"},{"type":"function","name":"supportProposal","inputs":[{"name":"","type":"tuple[]","internalType":"struct CVStrategy.ProposalSupport[]","components":[{"name":"proposalId","type":"uint256","internalType":"uint256"},{"name":"deltaSupport","type":"int256","internalType":"int256"}]}],"outputs":[],"stateMutability":"nonpayable"},{"type":"function","name":"totalEffectiveActivePoints","inputs":[],"outputs":[{"name":"","type":"uint256","internalType":"uint256"}],"stateMutability":"view"},{"type":"function","name":"totalStaked","inputs":[],"outputs":[{"name":"","type":"uint256","internalType":"uint256"}],"stateMutability":"view"},{"type":"function","name":"totalVoterStakePct","inputs":[{"name":"","type":"address","internalType":"address"}],"outputs":[{"name":"","type":"uint256","internalType":"uint256"}],"stateMutability":"view"},{"type":"function","name":"updateProposalConviction","inputs":[{"name":"proposalId","type":"uint256","internalType":"uint256"}],"outputs":[{"name":"","type":"uint256","internalType":"uint256"}],"stateMutability":"nonpayable"},{"type":"function","name":"voterStakedProposals","inputs":[{"name":"","type":"address","internalType":"address"},{"name":"","type":"uint256","internalType":"uint256"}],"outputs":[{"name":"","type":"uint256","internalType":"uint256"}],"stateMutability":"view"},{"type":"function","name":"weight","inputs":[],"outputs":[{"name":"","type":"uint256","internalType":"uint256"}],"stateMutability":"view"},{"type":"function","name":"withdraw","inputs":[{"name":"_member","type":"address","internalType":"address"}],"outputs":[],"stateMutability":"nonpayable"},{"type":"event","name":"Allocated","inputs":[{"name":"recipientId","type":"address","indexed":true,"internalType":"address"},{"name":"amount","type":"uint256","indexed":false,"internalType":"uint256"},{"name":"token","type":"address","indexed":false,"internalType":"address"},{"name":"sender","type":"address","indexed":false,"internalType":"address"}],"anonymous":false},{"type":"event","name":"Distributed","inputs":[{"name":"proposalId","type":"uint256","indexed":false,"internalType":"uint256"},{"name":"beneficiary","type":"address","indexed":false,"internalType":"address"},{"name":"amount","type":"uint256","indexed":false,"internalType":"uint256"}],"anonymous":false},{"type":"event","name":"Distributed","inputs":[{"name":"recipientId","type":"address","indexed":true,"internalType":"address"},{"name":"recipientAddress","type":"address","indexed":false,"internalType":"address"},{"name":"amount","type":"uint256","indexed":false,"internalType":"uint256"},{"name":"sender","type":"address","indexed":false,"internalType":"address"}],"anonymous":false},{"type":"event","name":"Initialized","inputs":[{"name":"poolId","type":"uint256","indexed":false,"internalType":"uint256"},{"name":"data","type":"bytes","indexed":false,"internalType":"bytes"}],"anonymous":false},{"type":"event","name":"InitializedCV","inputs":[{"name":"poolId","type":"uint256","indexed":false,"internalType":"uint256"},{"name":"data","type":"bytes","indexed":false,"internalType":"bytes"}],"anonymous":false},{"type":"event","name":"PoolActive","inputs":[{"name":"active","type":"bool","indexed":false,"internalType":"bool"}],"anonymous":false},{"type":"event","name":"ProposalCreated","inputs":[{"name":"proposalId","type":"uint256","indexed":false,"internalType":"uint256"},{"name":"beneficiary","type":"address","indexed":false,"internalType":"address"},{"name":"amountRequested","type":"uint256","indexed":false,"internalType":"uint256"}],"anonymous":false},{"type":"event","name":"Registered","inputs":[{"name":"recipientId","type":"address","indexed":true,"internalType":"address"},{"name":"data","type":"bytes","indexed":false,"internalType":"bytes"},{"name":"sender","type":"address","indexed":false,"internalType":"address"}],"anonymous":false},{"type":"error","name":"ALLOCATION_ACTIVE","inputs":[]},{"type":"error","name":"ALLOCATION_NOT_ACTIVE","inputs":[]},{"type":"error","name":"ALLOCATION_NOT_ENDED","inputs":[]},{"type":"error","name":"ALREADY_INITIALIZED","inputs":[]},{"type":"error","name":"AMOUNT_MISMATCH","inputs":[]},{"type":"error","name":"ANCHOR_ERROR","inputs":[]},{"type":"error","name":"ARRAY_MISMATCH","inputs":[]},{"type":"error","name":"AddressCannotBeZero","inputs":[]},{"type":"error","name":"AmountOverMaxRatio","inputs":[]},{"type":"error","name":"INVALID","inputs":[]},{"type":"error","name":"INVALID_ADDRESS","inputs":[]},{"type":"error","name":"INVALID_FEE","inputs":[]},{"type":"error","name":"INVALID_METADATA","inputs":[]},{"type":"error","name":"INVALID_REGISTRATION","inputs":[]},{"type":"error","name":"IS_APPROVED_STRATEGY","inputs":[]},{"type":"error","name":"MISMATCH","inputs":[]},{"type":"error","name":"NONCE_NOT_AVAILABLE","inputs":[]},{"type":"error","name":"NOT_APPROVED_STRATEGY","inputs":[]},{"type":"error","name":"NOT_ENOUGH_FUNDS","inputs":[]},{"type":"error","name":"NOT_IMPLEMENTED","inputs":[]},{"type":"error","name":"NOT_INITIALIZED","inputs":[]},{"type":"error","name":"NOT_PENDING_OWNER","inputs":[]},{"type":"error","name":"NotEnoughPointsToSupport","inputs":[{"name":"pointsSupport","type":"uint256","internalType":"uint256"},{"name":"pointsBalance","type":"uint256","internalType":"uint256"}]},{"type":"error","name":"NotImplemented","inputs":[]},{"type":"error","name":"POOL_ACTIVE","inputs":[]},{"type":"error","name":"POOL_INACTIVE","inputs":[]},{"type":"error","name":"PoolIdCannotBeZero","inputs":[]},{"type":"error","name":"PoolIsEmpty","inputs":[]},{"type":"error","name":"ProposalDataIsEmpty","inputs":[]},{"type":"error","name":"ProposalIdAlreadyExist","inputs":[{"name":"_proposalId","type":"uint256","internalType":"uint256"}]},{"type":"error","name":"ProposalIdCannotBeZero","inputs":[]},{"type":"error","name":"ProposalNotActive","inputs":[{"name":"_proposalId","type":"uint256","internalType":"uint256"}]},{"type":"error","name":"ProposalNotInList","inputs":[{"name":"_proposalId","type":"uint256","internalType":"uint256"}]},{"type":"error","name":"ProposalSupportDuplicated","inputs":[{"name":"_proposalId","type":"uint256","internalType":"uint256"},{"name":"index","type":"uint256","internalType":"uint256"}]},{"type":"error","name":"RECIPIENT_ALREADY_ACCEPTED","inputs":[]},{"type":"error","name":"RECIPIENT_ERROR","inputs":[{"name":"recipientId","type":"address","internalType":"address"}]},{"type":"error","name":"RECIPIENT_NOT_ACCEPTED","inputs":[]},{"type":"error","name":"REGISTRATION_NOT_ACTIVE","inputs":[]},{"type":"error","name":"RegistryCannotBeZero","inputs":[]},{"type":"error","name":"SupportUnderflow","inputs":[{"name":"_support","type":"uint256","internalType":"uint256"},{"name":"_delta","type":"int256","internalType":"int256"},{"name":"_result","type":"int256","internalType":"int256"}]},{"type":"error","name":"TokenCannotBeZero","inputs":[]},{"type":"error","name":"UNAUTHORIZED","inputs":[]},{"type":"error","name":"UserCannotBeZero","inputs":[]},{"type":"error","name":"UserIsInactive","inputs":[]},{"type":"error","name":"UserNotInRegistry","inputs":[]},{"type":"error","name":"ZERO_ADDRESS","inputs":[]}],"bytecode":{"object":"0x60c06040526103e8600d553480156200001757600080fd5b5060405162003491380380620034918339810160408190526200003a91620000a2565b604080518082018252600a8152694356537472617465677960b01b6020808301919091526001600160a01b038416608052915183926200007d91839101620000d4565b60408051601f19818403018152919052805160209091012060a0525062000124915050565b600060208284031215620000b557600080fd5b81516001600160a01b0381168114620000cd57600080fd5b9392505050565b600060208083528351808285015260005b818110156200010357858101830151858201604001528201620000e5565b506000604082860101526040601f19601f8301168501019250505092915050565b60805160a0516133326200015f600039600061052d015260008181610454015281816113d2015281816115a001526116df01526133326000f3fe6080604052600436106102e05760003560e01c806376365af711610184578063d1e36232116100d6578063eb11af931161008a578063f5b0dfb711610064578063f5b0dfb7146108b0578063f8832aae146108d0578063fc1711f2146108f0576102fb565b8063eb11af9314610850578063edd146cc1461087d578063ef2920fc1461089d576102fb565b8063df868ed3116100bb578063df868ed3146107f8578063e0dd2c3814610810578063e33add9314610830576102fb565b8063d1e36232146107b3578063dc96ff2d146107c8576102fb565b8063a0cf0aea11610138578063b5f620ce11610112578063b5f620ce14610725578063bcc5b93b14610745578063c7f758a81461077b576102fb565b8063a0cf0aea146106ba578063a1aab33f146106e2578063b2b878d0146106f8576102fb565b8063817b1cd211610169578063817b1cd214610664578063868c57b81461067a578063950559d71461069a576102fb565b806376365af714610639578063814516ad1461064f576102fb565b8063346db8cb1161023d5780634d31d087116101f157806359a5db8b116101cb57806359a5db8b146105cc5780635db64b99146105ec57806369fa25c414610619576102fb565b80634d31d0871461056657806351cff8d91461059657806354fac919146105b6576102fb565b8063406244d811610222578063406244d81461050957806342fda9c71461051e5780634ab4ba4214610551576102fb565b8063346db8cb146104d457806338fff2d0146104f4576102fb565b806311f22ae3116102945780631aa91a9e116102795780631aa91a9e1461048c5780631ddf1e23146104ac5780632bbe0cae146104c1576102fb565b806311f22ae31461042557806315cc481e14610445576102fb565b80630a6f0ee9116102c55780630a6f0ee9146103d65780630c0512e9146103f85780630f529ba21461040e576102fb565b8063013cf08b1461030b57806305d19175146103b2576102fb565b366102fb57600380549060006102f5836127d8565b91905055005b600380549060006102f5836127d8565b34801561031757600080fd5b506103926103263660046127f1565b600560208190526000918252604090912080546001820154600283015460038401546004850154958501546006860154600787015460088801546009909801549698959794969395946001600160a01b0393841694928416939091169160ff808216916101009004168b565b6040516103a99b9a99989796959493929190612844565b60405180910390f35b3480156103be57600080fd5b506103c8600d5481565b6040519081526020016103a9565b3480156103e257600080fd5b506103f66103f1366004612a75565b610910565b005b34801561040457600080fd5b506103c8600b5481565b34801561041a57600080fd5b506103c86298968081565b34801561043157600080fd5b506103f66104403660046127f1565b610930565b34801561045157600080fd5b507f00000000000000000000000000000000000000000000000000000000000000005b6040516001600160a01b0390911681526020016103a9565b34801561049857600080fd5b506103c86104a73660046127f1565b610940565b3480156104b857600080fd5b506103f66109cb565b6104746104cf366004612aed565b610abf565b3480156104e057600080fd5b506103c86104ef366004612b3f565b610ae4565b34801561050057600080fd5b506001546103c8565b34801561051557600080fd5b506103c8600a81565b34801561052a57600080fd5b507f00000000000000000000000000000000000000000000000000000000000000006103c8565b34801561055d57600080fd5b506002546103c8565b34801561057257600080fd5b50610586610581366004612b6b565b610b89565b60405190151581526020016103a9565b3480156105a257600080fd5b506103f66105b1366004612b6b565b610b94565b3480156105c257600080fd5b506103c860085481565b3480156105d857600080fd5b506103c86105e73660046127f1565b610cc0565b3480156105f857600080fd5b506103c8610607366004612b6b565b60066020526000908152604090205481565b34801561062557600080fd5b506103f66106343660046127f1565b610e5c565b34801561064557600080fd5b506103c860095481565b34801561065b57600080fd5b506103f6610e6c565b34801561067057600080fd5b506103c8600c5481565b34801561068657600080fd5b506103c8610695366004612b88565b610f37565b3480156106a657600080fd5b506103c86106b53660046127f1565b610f68565b3480156106c657600080fd5b5061047473eeeeeeeeeeeeeeeeeeeeeeeeeeeeeeeeeeeeeeee81565b3480156106ee57600080fd5b506103c8600a5481565b34801561070457600080fd5b50610718610713366004612bb4565b610f92565b6040516103a99190612c89565b34801561073157600080fd5b506103f6610740366004612cef565b610fad565b34801561075157600080fd5b506103c8610760366004612b6b565b6001600160a01b031660009081526006602052604090205490565b34801561078757600080fd5b5061079b6107963660046127f1565b610fb9565b6040516103a99c9b9a99989796959493929190612d0c565b3480156107bf57600080fd5b506103c86110db565b3480156107d457600080fd5b506103c86107e33660046127f1565b60009081526005602052604090206002015490565b34801561080457600080fd5b5060005460ff16610586565b34801561081c57600080fd5b506103c861082b366004612d87565b611206565b34801561083c57600080fd5b506103f661084b366004612dac565b611231565b34801561085c57600080fd5b5061087061086b366004612b6b565b61125f565b6040516103a99190612e62565b34801561088957600080fd5b506103f6610898366004612e7c565b61126a565b6103f66108ab366004612aed565b611338565b3480156108bc57600080fd5b506103f66108cb3660046127f1565b611356565b3480156108dc57600080fd5b506103f66108eb366004612b6b565b61137d565b3480156108fc57600080fd5b506103f661090b3660046127f1565b6113b7565b6109186113c7565b610920611412565b61092b83838361144e565b505050565b3361093a8161169c565b50600955565b6000818152600560205260408120805483146109775760405163c1d17bef60e01b8152600481018490526024015b60405180910390fd5b6000600982015460ff1660038111156109925761099261280a565b146109b3576040516344980d8f60e01b81526004810184905260240161096e565b6109c1818260020154611767565b6003015492915050565b600480546040517f22bcf999000000000000000000000000000000000000000000000000000000008152339281018390523060248201526001600160a01b03909116906322bcf99990604401600060405180830381600087803b158015610a3157600080fd5b505af1158015610a45573d6000803e3d6000fd5b50506040517f51cff8d90000000000000000000000000000000000000000000000000000000081526001600160a01b03841660048201523092506351cff8d991506024015b600060405180830381600087803b158015610aa457600080fd5b505af1158015610ab8573d6000803e3d6000fd5b5050505050565b6000610ac96113c7565b610ad1611412565b610adb83836117c2565b90505b92915050565b6000808490506000610b0a629896806080600854901b610b049190612ec3565b83611a52565b905060806f8000000000000000000000000000000060085462989680610b309190612ee5565b610b3e84600160801b612ee5565b610b4b6298968089612ef8565b610b559190612ef8565b610b5f9190612ec3565b610b698885612ef8565b610b739190612f0f565b610b7d9190612f0f565b901c9695505050505050565b6000610ade82611afb565b6001600160a01b038116600090815260076020908152604080832080548251818502810185019093528083529192909190830182828015610bf457602002820191906000526020600020905b815481526020019060010190808311610be0575b5050505050905060005b815181101561092b576000828281518110610c1b57610c1b612f22565b602002602001015190506000600560008381526020019081526020016000209050610c4582611b1b565b506001600160a01b0385166000908152600b820160209081526040808320805490849055600a8501909252822082905560028301805491928392610c8a908490612ee5565b9250508190555080600c6000828254610ca39190612ee5565b925050819055505050508080610cb8906127d8565b915050610bfe565b60008060025411610cfd576040517fed4421ad00000000000000000000000000000000000000000000000000000000815260040160405180910390fd5b600254610d0d6298968084612ef8565b81600954610d1b9190612ef8565b11610d52576040517f3bf5ca1400000000000000000000000000000000000000000000000000000000815260040160405180910390fd5b600081610d688568010000000000000000612ef8565b610d729190612ec3565b6298968060095468010000000000000000610d8d9190612ef8565b610d979190612ec3565b610da19190612ee5565b9050610de96040518060400160405280601a81526020017f746f74616c456666656374697665416374697665506f696e7473000000000000815250610de46110db565b611b54565b6040610df36110db565b600854610e039062989680612ee5565b629896806040610e138680612ef8565b901c629896806080600a54901b610e2a9190612ec3565b610e349190612ec3565b610e3e9190612ef8565b610e489190612ec3565b610e529190612ef8565b901c949350505050565b33610e668161169c565b50600855565b600480546040517ff32aadc2000000000000000000000000000000000000000000000000000000008152339281018390526001600160a01b039091169063f32aadc290602401600060405180830381600087803b158015610ecc57600080fd5b505af1158015610ee0573d6000803e3d6000fd5b5050600480546040517f0d4a8b490000000000000000000000000000000000000000000000000000000081526001600160a01b038681169382019390935230602482015291169250630d4a8b499150604401610a8a565b60076020528160005260406000208181548110610f5357600080fd5b90600052602060002001600091509150505481565b600060085462989680610f7b9190612ee5565b610f886298968084612ef8565b610ade9190612ec3565b606060405163d623472560e01b815260040160405180910390fd5b610fb681611bc7565b50565b6000806000806000806000806000806000806000600560008f81526020019081526020016000209050806001015460001461100057610ffb8160010154610cc0565b611003565b60005b92508060060160009054906101000a90046001600160a01b03168160050160009054906101000a90046001600160a01b03168260070160009054906101000a90046001600160a01b0316836001015484600201548560090160019054906101000a900460ff168660090160009054906101000a900460ff168760080154886003015489600401548c8b600a016000336001600160a01b03166001600160a01b03168152602001908152602001600020549c509c509c509c509c509c509c509c509c509c509c509c505091939597999b5091939597999b565b600480546040517fc19563a7000000000000000000000000000000000000000000000000000000008152309281019290925260009182916001600160a01b03169063c19563a790602401602060405180830381865afa158015611142573d6000803e3d6000fd5b505050506040513d601f19601f820116820180604052508101906111669190612f38565b90506111a76040518060400160405280601481526020017f746f74616c506f696e747341637469766174656400000000000000000000000081525082611b54565b6111e86040518060400160405280601281526020017f6d696e506f696e74734163746976617465640000000000000000000000000000815250600d54611b54565b600d5481116111f957600d546111fb565b805b91505090565b905090565b60008281526005602090815260408083206001600160a01b0385168452600b01909152812054610adb565b60038054906000611241836127d8565b919050555060405163d623472560e01b815260040160405180910390fd5b6000610ade82611c0e565b61127382611c2e565b6000818060200190518101906112899190612f51565b80519091506001600160a01b03166112b457604051635df4b1ef60e01b815260040160405180910390fd5b80516004805473ffffffffffffffffffffffffffffffffffffffff19166001600160a01b0390921691909117905560208101516008556040808201516009556060820151600a55517f974c01cd9ddb6ba65b95675ec7133421bbf57fae2f50292b8d84f6197ec3f02e9061132b9085908590613010565b60405180910390a1505050565b6113406113c7565b611348611412565b6113528282611caf565b5050565b61135e6113c7565b80600260008282546113709190612f0f565b90915550610fb690508181565b336113878161169c565b506004805473ffffffffffffffffffffffffffffffffffffffff19166001600160a01b0392909216919091179055565b336113c18161169c565b50600a55565b336001600160a01b037f000000000000000000000000000000000000000000000000000000000000000016146114105760405163075fd2b160e01b815260040160405180910390fd5b565b600154600003611410576040517f3da3f98c00000000000000000000000000000000000000000000000000000000815260040160405180910390fd5b6003805490600061145e836127d8565b9190505550600082511161149e576040517fc5f7c4c000000000000000000000000000000000000000000000000000000000815260040160405180910390fd5b6000828060200190518101906114b49190612f38565b9050806000036114d75760405163f881a10d60e01b815260040160405180910390fd5b600081815260056020526040902060016009820154610100900460ff1660028111156115055761150561280a565b03610ab8578054821461152e5760405163c1d17bef60e01b81526004810183905260240161096e565b6000600982015460ff1660038111156115495761154961280a565b1461156a576040516344980d8f60e01b81526004810183905260240161096e565b6001546040517f068bcd8d0000000000000000000000000000000000000000000000000000000081526000916001600160a01b037f0000000000000000000000000000000000000000000000000000000000000000169163068bcd8d916115d79160040190815260200190565b600060405180830381865afa1580156115f4573d6000803e3d6000fd5b505050506040513d6000823e601f3d908101601f1916820160405261161c9190810190613031565b604081015160058401546001850154929350611643926001600160a01b0390911690611ee5565b60058201546001830154604080518681526001600160a01b0390931660208401528201527fa7932e9c92f31e1ed56b29d00bbe669a97484dc24de28dd9c8c0429df7f358479060600160405180910390a1505050505050565b6001546040517f29e40d4b00000000000000000000000000000000000000000000000000000000815260048101919091526001600160a01b0382811660248301527f000000000000000000000000000000000000000000000000000000000000000016906329e40d4b90604401602060405180830381865afa158015611726573d6000803e3d6000fd5b505050506040513d601f19601f8201168201806040525081019061174a9190613153565b610fb65760405163075fd2b160e01b815260040160405180910390fd5b6008820154439081101561177d5761177d613170565b8083600801540361178d57505050565b60006117ad8460080154836117a29190612ee5565b856003015485610ae4565b60088501929092555060039092019190915550565b60038054600091826117d3836127d8565b91905055506000838060200190518101906117ee9190613186565b80519091506000036118135760405163f881a10d60e01b815260040160405180910390fd5b8060200151600003611851576040517f4e79178600000000000000000000000000000000000000000000000000000000815260040160405180910390fd5b6001816060015160028111156118695761186961280a565b036118f65760408101516001600160a01b03166118b2576040517fe622e04000000000000000000000000000000000000000000000000000000000815260040160405180910390fd5b60a08101516001600160a01b03166118f6576040517f596a094c00000000000000000000000000000000000000000000000000000000815260040160405180910390fd5b8051600090815260056020526040902081518154036119475781516040517fdf4eff3b000000000000000000000000000000000000000000000000000000008152600481019190915260240161096e565b815181556006810180546001600160a01b0380871673ffffffffffffffffffffffffffffffffffffffff1992831617909255604084015160058401805491841691831691909117905560a084015160078401805491909316911617905560808201516001820155606082015160098201805461ff0019166101008360028111156119d3576119d361280a565b021790555060098101805460ff1916905543600882015560006003820181905560048201558151604080840151608085015182519384526001600160a01b03909116602084015282820152517f3417b456fad6209c73445d5efd446d686e75e4560f0f50c13b5a5cde976447b49181900360600190a150519392505050565b6000600160801b8310611aa75760405162461bcd60e51b815260206004820152601c60248201527f5f612073686f756c64206265206c657373207468616e20325e31323800000000604482015260640161096e565b50600160801b82825b8015611af35780600116600003611ad557611acb8283611f2a565b915060011c611ab0565b611adf8383611f2a565b9250611aec600182612ee5565b9050611ab0565b505092915050565b60006001600160a01b03821615611b13576001610ade565b600092915050565b60008181526005602052604081205415801590610ade5750506000908152600560205260409020600601546001600160a01b0316151590565b6113528282604051602401611b6a9291906131fc565b60408051601f198184030181529190526020810180517bffffffffffffffffffffffffffffffffffffffffffffffffffffffff167f9710a9d000000000000000000000000000000000000000000000000000000000179052612029565b6000805460ff19168215159081179091556040519081527fd94c9bc4d43c51d8dc345a016d8e3d994432fac68e72832e4cf3a616bd8efae09060200160405180910390a150565b60006001600160a01b03821615611c26576002610ade565b600392915050565b611c366113c7565b60015415611c70576040517f439a74c900000000000000000000000000000000000000000000000000000000815260040160405180910390fd5b80600003611caa576040517f7fcce2a900000000000000000000000000000000000000000000000000000000815260040160405180910390fd5b600155565b806001600160a01b038116611cf0576040517fd1f2828800000000000000000000000000000000000000000000000000000000815260040160405180910390fd5b6004546001600160a01b0316611d1957604051635df4b1ef60e01b815260040160405180910390fd5b600480546040517fa230c5240000000000000000000000000000000000000000000000000000000081526001600160a01b038481169382019390935291169063a230c52490602401602060405180830381865afa158015611d7e573d6000803e3d6000fd5b505050506040513d601f19601f82011682018060405250810190611da29190613153565b611dd8576040517f6a5cfb6d00000000000000000000000000000000000000000000000000000000815260040160405180910390fd5b60038054906000611de8836127d8565b9091555050600480546040517f477a5cc00000000000000000000000000000000000000000000000000000000081526001600160a01b03858116938201939093523060248201526000929091169063477a5cc090604401602060405180830381865afa158015611e5c573d6000803e3d6000fd5b505050506040513d601f19601f82011682018060405250810190611e809190613153565b905080611eb9576040517f5fccb67f00000000000000000000000000000000000000000000000000000000815260040160405180910390fd5b600084806020019051810190611ecf919061321e565b9050611edb848261204a565b610ab88482612258565b7fffffffffffffffffffffffff11111111111111111111111111111111111111126001600160a01b03841601611f1f5761092b82826125e7565b61092b838383612603565b6000600160801b831115611fa65760405162461bcd60e51b815260206004820152602860248201527f5f612073686f756c64206265206c657373207468616e206f7220657175616c2060448201527f746f20325e313238000000000000000000000000000000000000000000000000606482015260840161096e565b600160801b8210611ff95760405162461bcd60e51b815260206004820152601c60248201527f5f622073686f756c64206265206c657373207468616e20325e31323800000000604482015260640161096e565b60806f800000000000000000000000000000006120168486612ef8565b6120209190612f0f565b901c9392505050565b80516a636f6e736f6c652e6c6f67602083016000808483855afa5050505050565b6000805b82518110156121495782818151811061206957612069612f22565b6020026020010151600001516000036120bf576120ba6040518060400160405280600f81526020017f70726f706f73616c4964203d3d20300000000000000000000000000000000000815250612652565b612137565b60008382815181106120d3576120d3612f22565b60200260200101516000015190506120ea81611b1b565b61210a5760405163c1d17bef60e01b81526004810182905260240161096e565b83828151811061211c5761211c612f22565b6020026020010151602001518361213391906132c9565b9250505b80612141816127d8565b91505061204e565b506001600160a01b03831660009081526006602052604081205461216d90836126c3565b905060006121f0600460009054906101000a90046001600160a01b03166001600160a01b0316630331383c6040518163ffffffff1660e01b8152600401602060405180830381865afa1580156121c7573d6000803e3d6000fd5b505050506040513d601f19601f820116820180604052508101906121eb9190612f38565b61271e565b905080821115612236576040517fd64182fe000000000000000000000000000000000000000000000000000000008152600481018390526024810182905260440161096e565b506001600160a01b039093166000908152600660205260409020929092555050565b606060005b82518110156125e157600083828151811061227a5761227a612f22565b602002602001015160000151905082516000036122d657604080516001808252818301909252906020808301908036833701905050925080836000815181106122c5576122c5612f22565b602002602001018181525050612429565b6000805b845181101561235557828582815181106122f6576122f6612f22565b602002602001015103612343576040517fadebb15400000000000000000000000000000000000000000000000000000000815260048101849052602481018290526001925060440161096e565b8061234d816127d8565b9150506122da565b50806124275760008451600161236b9190612f0f565b67ffffffffffffffff811115612383576123836128bc565b6040519080825280602002602001820160405280156123ac578160200160208202803683370190505b50905060005b8551811015612404578581815181106123cd576123cd612f22565b60200260200101518282815181106123e7576123e7612f22565b6020908102919091010152806123fc816127d8565b9150506123b2565b50828186518151811061241957612419612f22565b602090810291909101015293505b505b600084838151811061243d5761243d612f22565b60209081029190910181015181015160008481526005835260408082206001600160a01b038b168352600a8101855281832054600b82019095529082205492945092919061248b83866126c3565b6001600160a01b038b166000908152600a8601602052604081208290559091506124b482612733565b90506124f56040518060400160405280600c81526020017f7374616b6564416d6f756e74000000000000000000000000000000000000000081525082611b54565b6001600160a01b038b166000908152600b860160205260409020819055808311612562576125238382612ee5565b600c60008282546125349190612f0f565b9091555061254490508382612ee5565b8560020160008282546125579190612f0f565b909155506125a69050565b61256c8184612ee5565b600c600082825461257d9190612ee5565b9091555061258d90508184612ee5565b8560020160008282546125a09190612ee5565b90915550505b84600801546000036125bd574360088601556125c7565b6125c78584611767565b5050505050505080806125d9906127d8565b91505061225d565b50505050565b60008060008084865af16113525763b12d13eb6000526004601cfd5b81601452806034526fa9059cbb00000000000000000000000060005260206000604460106000875af13d156001600051141716612648576390b8ec186000526004601cfd5b6000603452505050565b610fb68160405160240161266691906132e9565b60408051601f198184030181529190526020810180517bffffffffffffffffffffffffffffffffffffffffffffffffffffffff167f41304fac00000000000000000000000000000000000000000000000000000000179052612029565b6000806126d083856132c9565b90506000811215610adb576040517f3bbc714200000000000000000000000000000000000000000000000000000000815260048101859052602481018490526044810182905260640161096e565b6000612728612749565b610f88836064612ef8565b6000606461273f612749565b610f889084612ef8565b6000600460009054906101000a90046001600160a01b03166001600160a01b0316630331383c6040518163ffffffff1660e01b8152600401602060405180830381865afa15801561279e573d6000803e3d6000fd5b505050506040513d601f19601f820116820180604052508101906112019190612f38565b634e487b7160e01b600052601160045260246000fd5b6000600182016127ea576127ea6127c2565b5060010190565b60006020828403121561280357600080fd5b5035919050565b634e487b7160e01b600052602160045260246000fd5b600481106128305761283061280a565b9052565b600381106128305761283061280a565b6000610160820190508c82528b60208301528a60408301528960608301528860808301526001600160a01b0380891660a084015280881660c084015280871660e0840152508461010083015261289e610120830185612820565b6128ac610140830184612834565b9c9b505050505050505050505050565b634e487b7160e01b600052604160045260246000fd5b6040805190810167ffffffffffffffff811182821017156128f5576128f56128bc565b60405290565b60405160c0810167ffffffffffffffff811182821017156128f5576128f56128bc565b604051601f8201601f1916810167ffffffffffffffff81118282101715612947576129476128bc565b604052919050565b600067ffffffffffffffff821115612969576129696128bc565b5060051b60200190565b6001600160a01b0381168114610fb657600080fd5b600082601f83011261299957600080fd5b813560206129ae6129a98361294f565b61291e565b82815260059290921b840181019181810190868411156129cd57600080fd5b8286015b848110156129f15780356129e481612973565b83529183019183016129d1565b509695505050505050565b600067ffffffffffffffff821115612a1657612a166128bc565b50601f01601f191660200190565b600082601f830112612a3557600080fd5b8135612a436129a9826129fc565b818152846020838601011115612a5857600080fd5b816020850160208301376000918101602001919091529392505050565b600080600060608486031215612a8a57600080fd5b833567ffffffffffffffff80821115612aa257600080fd5b612aae87838801612988565b94506020860135915080821115612ac457600080fd5b50612ad186828701612a24565b9250506040840135612ae281612973565b809150509250925092565b60008060408385031215612b0057600080fd5b823567ffffffffffffffff811115612b1757600080fd5b612b2385828601612a24565b9250506020830135612b3481612973565b809150509250929050565b600080600060608486031215612b5457600080fd5b505081359360208301359350604090920135919050565b600060208284031215612b7d57600080fd5b8135610adb81612973565b60008060408385031215612b9b57600080fd5b8235612ba681612973565b946020939093013593505050565b60008060408385031215612bc757600080fd5b823567ffffffffffffffff80821115612bdf57600080fd5b612beb86838701612988565b9350602091508185013581811115612c0257600080fd5b8501601f81018713612c1357600080fd5b8035612c216129a98261294f565b81815260059190911b82018401908481019089831115612c4057600080fd5b8584015b83811015612c7857803586811115612c5c5760008081fd5b612c6a8c8983890101612a24565b845250918601918601612c44565b508096505050505050509250929050565b602080825282518282018190526000919060409081850190868401855b82811015612cd457815180516001600160a01b03168552860151868501529284019290850190600101612ca6565b5091979650505050505050565b8015158114610fb657600080fd5b600060208284031215612d0157600080fd5b8135610adb81612ce1565b6001600160a01b038d811682528c811660208301528b166040820152606081018a9052608081018990526101808101612d4860a083018a612834565b612d5560c0830189612820565b60e082019690965261010081019490945261012084019290925261014083015261016090910152979650505050505050565b60008060408385031215612d9a57600080fd5b823591506020830135612b3481612973565b60006020808385031215612dbf57600080fd5b823567ffffffffffffffff811115612dd657600080fd5b8301601f81018513612de757600080fd5b8035612df56129a98261294f565b81815260069190911b82018301908381019087831115612e1457600080fd5b928401925b82841015612e575760408489031215612e325760008081fd5b612e3a6128d2565b843581528585013586820152825260409093019290840190612e19565b979650505050505050565b6020810160078310612e7657612e7661280a565b91905290565b60008060408385031215612e8f57600080fd5b82359150602083013567ffffffffffffffff811115612ead57600080fd5b612eb985828601612a24565b9150509250929050565b600082612ee057634e487b7160e01b600052601260045260246000fd5b500490565b81810381811115610ade57610ade6127c2565b8082028115828204841417610ade57610ade6127c2565b80820180821115610ade57610ade6127c2565b634e487b7160e01b600052603260045260246000fd5b600060208284031215612f4a57600080fd5b5051919050565b600060808284031215612f6357600080fd5b6040516080810181811067ffffffffffffffff82111715612f8657612f866128bc565b6040528251612f9481612973565b808252506020830151602082015260408301516040820152606083015160608201528091505092915050565b60005b83811015612fdb578181015183820152602001612fc3565b50506000910152565b60008151808452612ffc816020860160208601612fc0565b601f01601f19169290920160200192915050565b8281526040602082015260006130296040830184612fe4565b949350505050565b6000602080838503121561304457600080fd5b825167ffffffffffffffff8082111561305c57600080fd5b9084019060c0828703121561307057600080fd5b6130786128fb565b825181528383015161308981612973565b81850152604083015161309b81612973565b60408201526060830151828111156130b257600080fd5b8301604081890312156130c457600080fd5b6130cc6128d2565b8151815285820151848111156130e157600080fd5b82019350601f840189136130f457600080fd5b835191506131046129a9836129fc565b828152898784870101111561311857600080fd5b61312783888301898801612fc0565b95810195909552506060810193909352506080818101519083015260a090810151908201529392505050565b60006020828403121561316557600080fd5b8151610adb81612ce1565b634e487b7160e01b600052600160045260246000fd5b600060c0828403121561319857600080fd5b6131a06128fb565b825181526020830151602082015260408301516131bc81612973565b60408201526060830151600381106131d357600080fd5b60608201526080838101519082015260a08301516131f081612973565b60a08201529392505050565b60408152600061320f6040830185612fe4565b90508260208301529392505050565b6000602080838503121561323157600080fd5b825167ffffffffffffffff81111561324857600080fd5b8301601f8101851361325957600080fd5b80516132676129a98261294f565b81815260069190911b8201830190838101908783111561328657600080fd5b928401925b82841015612e5757604084890312156132a45760008081fd5b6132ac6128d2565b84518152858501518682015282526040909301929084019061328b565b8082018281126000831280158216821582161715611af357611af36127c2565b602081526000610adb6020830184612fe456fea26469706673582212202e793e8a48e1805e5334beea1aac5abc7e7419c40bfd08ed44e970adecfe93b464736f6c63430008130033","linkReferences":{}},"methodIdentifiers":{"D()":"0f529ba2","MAX_STAKED_PROPOSALS()":"406244d8","NATIVE()":"a0cf0aea","activatePoints()":"814516ad","allocate(bytes,address)":"ef2920fc","calculateConviction(uint256,uint256,uint256)":"346db8cb","calculateThreshold(uint256)":"59a5db8b","deactivatePoints()":"1ddf1e23","decay()":"54fac919","distribute(address[],bytes,address)":"0a6f0ee9","getAllo()":"15cc481e","getMaxConviction(uint256)":"950559d7","getPayouts(address[],bytes[])":"b2b878d0","getPoolAmount()":"4ab4ba42","getPoolId()":"38fff2d0","getProposal(uint256)":"c7f758a8","getProposalStakedAmount(uint256)":"dc96ff2d","getProposalVoterStake(uint256,address)":"e0dd2c38","getRecipientStatus(address)":"eb11af93","getStrategyId()":"42fda9c7","getTotalVoterStakePct(address)":"bcc5b93b","increasePoolAmount(uint256)":"f5b0dfb7","initialize(uint256,bytes)":"edd146cc","isPoolActive()":"df868ed3","isValidAllocator(address)":"4d31d087","maxRatio()":"76365af7","minPointsActivated()":"05d19175","proposalCounter()":"0c0512e9","proposals(uint256)":"013cf08b","registerRecipient(bytes,address)":"2bbe0cae","setDecay(uint256)":"69fa25c4","setMaxRatio(uint256)":"11f22ae3","setPoolActive(bool)":"b5f620ce","setRegistryGardens(address)":"f8832aae","setWeight(uint256)":"fc1711f2","supportProposal((uint256,int256)[])":"e33add93","totalEffectiveActivePoints()":"d1e36232","totalStaked()":"817b1cd2","totalVoterStakePct(address)":"5db64b99","updateProposalConviction(uint256)":"1aa91a9e","voterStakedProposals(address,uint256)":"868c57b8","weight()":"a1aab33f","withdraw(address)":"51cff8d9"},"id":93}