{"abi":[{"type":"constructor","inputs":[{"name":"_allo","type":"address","internalType":"address"}],"stateMutability":"nonpayable"},{"type":"fallback","stateMutability":"payable"},{"type":"receive","stateMutability":"payable"},{"type":"function","name":"D","inputs":[],"outputs":[{"name":"","type":"uint256","internalType":"uint256"}],"stateMutability":"view"},{"type":"function","name":"MAX_STAKED_PROPOSALS","inputs":[],"outputs":[{"name":"","type":"uint256","internalType":"uint256"}],"stateMutability":"view"},{"type":"function","name":"NATIVE","inputs":[],"outputs":[{"name":"","type":"address","internalType":"address"}],"stateMutability":"view"},{"type":"function","name":"RULING_OPTIONS","inputs":[],"outputs":[{"name":"","type":"uint256","internalType":"uint256"}],"stateMutability":"view"},{"type":"function","name":"_minThresholdPoints","inputs":[],"outputs":[{"name":"","type":"uint256","internalType":"uint256"}],"stateMutability":"view"},{"type":"function","name":"activatePoints","inputs":[],"outputs":[],"stateMutability":"nonpayable"},{"type":"function","name":"allocate","inputs":[{"name":"_data","type":"bytes","internalType":"bytes"},{"name":"_sender","type":"address","internalType":"address"}],"outputs":[],"stateMutability":"payable"},{"type":"function","name":"arbitrableConfig","inputs":[],"outputs":[{"name":"arbitrator","type":"address","internalType":"contract IArbitrator"},{"name":"collateralAmount","type":"uint256","internalType":"uint256"},{"name":"defaultRuling","type":"uint256","internalType":"uint256"},{"name":"defaultRulingTimeout","type":"uint256","internalType":"uint256"}],"stateMutability":"view"},{"type":"function","name":"calculateConviction","inputs":[{"name":"_timePassed","type":"uint256","internalType":"uint256"},{"name":"_lastConv","type":"uint256","internalType":"uint256"},{"name":"_oldAmount","type":"uint256","internalType":"uint256"}],"outputs":[{"name":"","type":"uint256","internalType":"uint256"}],"stateMutability":"view"},{"type":"function","name":"calculateThreshold","inputs":[{"name":"_requestedAmount","type":"uint256","internalType":"uint256"}],"outputs":[{"name":"_threshold","type":"uint256","internalType":"uint256"}],"stateMutability":"view"},{"type":"function","name":"canExecuteProposal","inputs":[{"name":"proposalId","type":"uint256","internalType":"uint256"}],"outputs":[{"name":"canBeExecuted","type":"bool","internalType":"bool"}],"stateMutability":"view"},{"type":"function","name":"collateralVault","inputs":[],"outputs":[{"name":"","type":"address","internalType":"contract CollateralVault"}],"stateMutability":"view"},{"type":"function","name":"deactivatePoints","inputs":[],"outputs":[],"stateMutability":"nonpayable"},{"type":"function","name":"deactivatePoints","inputs":[{"name":"_member","type":"address","internalType":"address"}],"outputs":[],"stateMutability":"nonpayable"},{"type":"function","name":"decay","inputs":[],"outputs":[{"name":"","type":"uint256","internalType":"uint256"}],"stateMutability":"view"},{"type":"function","name":"decreasePower","inputs":[{"name":"_member","type":"address","internalType":"address"},{"name":"_amountToUnstake","type":"uint256","internalType":"uint256"}],"outputs":[{"name":"","type":"uint256","internalType":"uint256"}],"stateMutability":"nonpayable"},{"type":"function","name":"disputeIdToProposalId","inputs":[{"name":"","type":"uint256","internalType":"uint256"}],"outputs":[{"name":"","type":"uint256","internalType":"uint256"}],"stateMutability":"view"},{"type":"function","name":"disputeProposal","inputs":[{"name":"proposalId","type":"uint256","internalType":"uint256"},{"name":"context","type":"string","internalType":"string"},{"name":"_extraData","type":"bytes","internalType":"bytes"}],"outputs":[],"stateMutability":"payable"},{"type":"function","name":"distribute","inputs":[{"name":"_recipientIds","type":"address[]","internalType":"address[]"},{"name":"_data","type":"bytes","internalType":"bytes"},{"name":"_sender","type":"address","internalType":"address"}],"outputs":[],"stateMutability":"nonpayable"},{"type":"function","name":"getAllo","inputs":[],"outputs":[{"name":"","type":"address","internalType":"contract IAllo"}],"stateMutability":"view"},{"type":"function","name":"getCollateralVault","inputs":[],"outputs":[{"name":"","type":"address","internalType":"address"}],"stateMutability":"view"},{"type":"function","name":"getMaxAmount","inputs":[],"outputs":[{"name":"","type":"uint256","internalType":"uint256"}],"stateMutability":"view"},{"type":"function","name":"getMaxConviction","inputs":[{"name":"amount","type":"uint256","internalType":"uint256"}],"outputs":[{"name":"","type":"uint256","internalType":"uint256"}],"stateMutability":"view"},{"type":"function","name":"getMetadata","inputs":[{"name":"_proposalId","type":"uint256","internalType":"uint256"}],"outputs":[{"name":"","type":"tuple","internalType":"struct Metadata","components":[{"name":"protocol","type":"uint256","internalType":"uint256"},{"name":"pointer","type":"string","internalType":"string"}]}],"stateMutability":"view"},{"type":"function","name":"getPayouts","inputs":[{"name":"","type":"address[]","internalType":"address[]"},{"name":"","type":"bytes[]","internalType":"bytes[]"}],"outputs":[{"name":"","type":"tuple[]","internalType":"struct IStrategy.PayoutSummary[]","components":[{"name":"recipientAddress","type":"address","internalType":"address"},{"name":"amount","type":"uint256","internalType":"uint256"}]}],"stateMutability":"pure"},{"type":"function","name":"getPointSystem","inputs":[],"outputs":[{"name":"","type":"uint8","internalType":"enum StrategyStruct.PointSystem"}],"stateMutability":"view"},{"type":"function","name":"getPoolAmount","inputs":[],"outputs":[{"name":"","type":"uint256","internalType":"uint256"}],"stateMutability":"view"},{"type":"function","name":"getPoolId","inputs":[],"outputs":[{"name":"","type":"uint256","internalType":"uint256"}],"stateMutability":"view"},{"type":"function","name":"getProposal","inputs":[{"name":"_proposalId","type":"uint256","internalType":"uint256"}],"outputs":[{"name":"submitter","type":"address","internalType":"address"},{"name":"beneficiary","type":"address","internalType":"address"},{"name":"requestedToken","type":"address","internalType":"address"},{"name":"requestedAmount","type":"uint256","internalType":"uint256"},{"name":"stakedAmount","type":"uint256","internalType":"uint256"},{"name":"proposalStatus","type":"uint8","internalType":"enum StrategyStruct.ProposalStatus"},{"name":"blockLast","type":"uint256","internalType":"uint256"},{"name":"convictionLast","type":"uint256","internalType":"uint256"},{"name":"threshold","type":"uint256","internalType":"uint256"},{"name":"voterStakedPoints","type":"uint256","internalType":"uint256"}],"stateMutability":"view"},{"type":"function","name":"getProposalStakedAmount","inputs":[{"name":"_proposalId","type":"uint256","internalType":"uint256"}],"outputs":[{"name":"","type":"uint256","internalType":"uint256"}],"stateMutability":"view"},{"type":"function","name":"getProposalVoterStake","inputs":[{"name":"_proposalId","type":"uint256","internalType":"uint256"},{"name":"_voter","type":"address","internalType":"address"}],"outputs":[{"name":"","type":"uint256","internalType":"uint256"}],"stateMutability":"view"},{"type":"function","name":"getRecipientStatus","inputs":[{"name":"_recipientId","type":"address","internalType":"address"}],"outputs":[{"name":"","type":"uint8","internalType":"enum IStrategy.Status"}],"stateMutability":"view"},{"type":"function","name":"getStrategyId","inputs":[],"outputs":[{"name":"","type":"bytes32","internalType":"bytes32"}],"stateMutability":"view"},{"type":"function","name":"getTotalVoterStakePct","inputs":[{"name":"_voter","type":"address","internalType":"address"}],"outputs":[{"name":"","type":"uint256","internalType":"uint256"}],"stateMutability":"view"},{"type":"function","name":"increasePoolAmount","inputs":[{"name":"_amount","type":"uint256","internalType":"uint256"}],"outputs":[],"stateMutability":"nonpayable"},{"type":"function","name":"increasePower","inputs":[{"name":"_member","type":"address","internalType":"address"},{"name":"_amountToStake","type":"uint256","internalType":"uint256"}],"outputs":[{"name":"","type":"uint256","internalType":"uint256"}],"stateMutability":"nonpayable"},{"type":"function","name":"initialize","inputs":[{"name":"_poolId","type":"uint256","internalType":"uint256"},{"name":"_data","type":"bytes","internalType":"bytes"}],"outputs":[],"stateMutability":"nonpayable"},{"type":"function","name":"isPoolActive","inputs":[],"outputs":[{"name":"","type":"bool","internalType":"bool"}],"stateMutability":"view"},{"type":"function","name":"isValidAllocator","inputs":[{"name":"_allocator","type":"address","internalType":"address"}],"outputs":[{"name":"","type":"bool","internalType":"bool"}],"stateMutability":"view"},{"type":"function","name":"maxRatio","inputs":[],"outputs":[{"name":"","type":"uint256","internalType":"uint256"}],"stateMutability":"view"},{"type":"function","name":"pointConfig","inputs":[],"outputs":[{"name":"maxAmount","type":"uint256","internalType":"uint256"}],"stateMutability":"view"},{"type":"function","name":"pointSystem","inputs":[],"outputs":[{"name":"","type":"uint8","internalType":"enum StrategyStruct.PointSystem"}],"stateMutability":"view"},{"type":"function","name":"proposalCounter","inputs":[],"outputs":[{"name":"","type":"uint256","internalType":"uint256"}],"stateMutability":"view"},{"type":"function","name":"proposalType","inputs":[],"outputs":[{"name":"","type":"uint8","internalType":"enum StrategyStruct.ProposalType"}],"stateMutability":"view"},{"type":"function","name":"proposals","inputs":[{"name":"","type":"uint256","internalType":"uint256"}],"outputs":[{"name":"proposalId","type":"uint256","internalType":"uint256"},{"name":"requestedAmount","type":"uint256","internalType":"uint256"},{"name":"stakedAmount","type":"uint256","internalType":"uint256"},{"name":"convictionLast","type":"uint256","internalType":"uint256"},{"name":"beneficiary","type":"address","internalType":"address"},{"name":"submitter","type":"address","internalType":"address"},{"name":"requestedToken","type":"address","internalType":"address"},{"name":"blockLast","type":"uint256","internalType":"uint256"},{"name":"proposalStatus","type":"uint8","internalType":"enum StrategyStruct.ProposalStatus"},{"name":"metadata","type":"tuple","internalType":"struct Metadata","components":[{"name":"protocol","type":"uint256","internalType":"uint256"},{"name":"pointer","type":"string","internalType":"string"}]},{"name":"disputeId","type":"uint256","internalType":"uint256"},{"name":"disputeTimestamp","type":"uint256","internalType":"uint256"},{"name":"challenger","type":"address","internalType":"address"}],"stateMutability":"view"},{"type":"function","name":"registerRecipient","inputs":[{"name":"_data","type":"bytes","internalType":"bytes"},{"name":"_sender","type":"address","internalType":"address"}],"outputs":[{"name":"recipientId","type":"address","internalType":"address"}],"stateMutability":"payable"},{"type":"function","name":"registryCommunity","inputs":[],"outputs":[{"name":"","type":"address","internalType":"contract RegistryCommunity"}],"stateMutability":"view"},{"type":"function","name":"rule","inputs":[{"name":"_disputeID","type":"uint256","internalType":"uint256"},{"name":"_ruling","type":"uint256","internalType":"uint256"}],"outputs":[],"stateMutability":"nonpayable"},{"type":"function","name":"setCollateralVault","inputs":[{"name":"_collateralVault","type":"address","internalType":"address"}],"outputs":[],"stateMutability":"nonpayable"},{"type":"function","name":"setDecay","inputs":[{"name":"_decay","type":"uint256","internalType":"uint256"}],"outputs":[],"stateMutability":"nonpayable"},{"type":"function","name":"setMaxRatio","inputs":[{"name":"_maxRatio","type":"uint256","internalType":"uint256"}],"outputs":[],"stateMutability":"nonpayable"},{"type":"function","name":"setMinThresholdPoints","inputs":[{"name":"minThresholdPoints_","type":"uint256","internalType":"uint256"}],"outputs":[],"stateMutability":"nonpayable"},{"type":"function","name":"setPoolActive","inputs":[{"name":"_active","type":"bool","internalType":"bool"}],"outputs":[],"stateMutability":"nonpayable"},{"type":"function","name":"setRegistryCommunity","inputs":[{"name":"_registryCommunity","type":"address","internalType":"address"}],"outputs":[],"stateMutability":"nonpayable"},{"type":"function","name":"setWeight","inputs":[{"name":"_weight","type":"uint256","internalType":"uint256"}],"outputs":[],"stateMutability":"nonpayable"},{"type":"function","name":"supportProposal","inputs":[{"name":"","type":"tuple[]","internalType":"struct StrategyStruct.ProposalSupport[]","components":[{"name":"proposalId","type":"uint256","internalType":"uint256"},{"name":"deltaSupport","type":"int256","internalType":"int256"}]}],"outputs":[],"stateMutability":"pure"},{"type":"function","name":"supportsInterface","inputs":[{"name":"interfaceId","type":"bytes4","internalType":"bytes4"}],"outputs":[{"name":"","type":"bool","internalType":"bool"}],"stateMutability":"view"},{"type":"function","name":"totalEffectiveActivePoints","inputs":[],"outputs":[{"name":"","type":"uint256","internalType":"uint256"}],"stateMutability":"view"},{"type":"function","name":"totalPointsActivated","inputs":[],"outputs":[{"name":"","type":"uint256","internalType":"uint256"}],"stateMutability":"view"},{"type":"function","name":"totalStaked","inputs":[],"outputs":[{"name":"","type":"uint256","internalType":"uint256"}],"stateMutability":"view"},{"type":"function","name":"totalVoterStakePct","inputs":[{"name":"","type":"address","internalType":"address"}],"outputs":[{"name":"","type":"uint256","internalType":"uint256"}],"stateMutability":"view"},{"type":"function","name":"updateProposalConviction","inputs":[{"name":"proposalId","type":"uint256","internalType":"uint256"}],"outputs":[{"name":"","type":"uint256","internalType":"uint256"}],"stateMutability":"nonpayable"},{"type":"function","name":"voterStakedProposals","inputs":[{"name":"","type":"address","internalType":"address"},{"name":"","type":"uint256","internalType":"uint256"}],"outputs":[{"name":"","type":"uint256","internalType":"uint256"}],"stateMutability":"view"},{"type":"function","name":"weight","inputs":[],"outputs":[{"name":"","type":"uint256","internalType":"uint256"}],"stateMutability":"view"},{"type":"event","name":"Allocated","inputs":[{"name":"recipientId","type":"address","indexed":true,"internalType":"address"},{"name":"amount","type":"uint256","indexed":false,"internalType":"uint256"},{"name":"token","type":"address","indexed":false,"internalType":"address"},{"name":"sender","type":"address","indexed":false,"internalType":"address"}],"anonymous":false},{"type":"event","name":"CollateralVaultUpdated","inputs":[{"name":"collateralVault","type":"address","indexed":false,"internalType":"address"}],"anonymous":false},{"type":"event","name":"DecayUpdated","inputs":[{"name":"decay","type":"uint256","indexed":false,"internalType":"uint256"}],"anonymous":false},{"type":"event","name":"DisputeRequest","inputs":[{"name":"_arbitrator","type":"address","indexed":true,"internalType":"contract IArbitrator"},{"name":"_arbitrableDisputeID","type":"uint256","indexed":true,"internalType":"uint256"},{"name":"_externalDisputeID","type":"uint256","indexed":false,"internalType":"uint256"},{"name":"_templateId","type":"uint256","indexed":false,"internalType":"uint256"},{"name":"_templateUri","type":"string","indexed":false,"internalType":"string"}],"anonymous":false},{"type":"event","name":"Distributed","inputs":[{"name":"proposalId","type":"uint256","indexed":false,"internalType":"uint256"},{"name":"beneficiary","type":"address","indexed":false,"internalType":"address"},{"name":"amount","type":"uint256","indexed":false,"internalType":"uint256"}],"anonymous":false},{"type":"event","name":"Distributed","inputs":[{"name":"recipientId","type":"address","indexed":true,"internalType":"address"},{"name":"recipientAddress","type":"address","indexed":false,"internalType":"address"},{"name":"amount","type":"uint256","indexed":false,"internalType":"uint256"},{"name":"sender","type":"address","indexed":false,"internalType":"address"}],"anonymous":false},{"type":"event","name":"Initialized","inputs":[{"name":"poolId","type":"uint256","indexed":false,"internalType":"uint256"},{"name":"data","type":"bytes","indexed":false,"internalType":"bytes"}],"anonymous":false},{"type":"event","name":"InitializedCV","inputs":[{"name":"poolId","type":"uint256","indexed":false,"internalType":"uint256"},{"name":"data","type":"tuple","indexed":false,"internalType":"struct StrategyStruct.InitializeParams","components":[{"name":"registryCommunity","type":"address","internalType":"address"},{"name":"decay","type":"uint256","internalType":"uint256"},{"name":"maxRatio","type":"uint256","internalType":"uint256"},{"name":"weight","type":"uint256","internalType":"uint256"},{"name":"minThresholdPoints","type":"uint256","internalType":"uint256"},{"name":"proposalType","type":"uint8","internalType":"enum StrategyStruct.ProposalType"},{"name":"pointSystem","type":"uint8","internalType":"enum StrategyStruct.PointSystem"},{"name":"pointConfig","type":"tuple","internalType":"struct StrategyStruct.PointSystemConfig","components":[{"name":"maxAmount","type":"uint256","internalType":"uint256"}]},{"name":"arbitrableConfig","type":"tuple","internalType":"struct StrategyStruct.ArbitrableConfig","components":[{"name":"arbitrator","type":"address","internalType":"contract IArbitrator"},{"name":"collateralAmount","type":"uint256","internalType":"uint256"},{"name":"defaultRuling","type":"uint256","internalType":"uint256"},{"name":"defaultRulingTimeout","type":"uint256","internalType":"uint256"}]}]}],"anonymous":false},{"type":"event","name":"MaxRatioUpdated","inputs":[{"name":"maxRatio","type":"uint256","indexed":false,"internalType":"uint256"}],"anonymous":false},{"type":"event","name":"MinThresholdPointsUpdated","inputs":[{"name":"before","type":"uint256","indexed":false,"internalType":"uint256"},{"name":"minThresholdPoints","type":"uint256","indexed":false,"internalType":"uint256"}],"anonymous":false},{"type":"event","name":"PointsDeactivated","inputs":[{"name":"member","type":"address","indexed":false,"internalType":"address"}],"anonymous":false},{"type":"event","name":"PoolActive","inputs":[{"name":"active","type":"bool","indexed":false,"internalType":"bool"}],"anonymous":false},{"type":"event","name":"PoolAmountIncreased","inputs":[{"name":"amount","type":"uint256","indexed":false,"internalType":"uint256"}],"anonymous":false},{"type":"event","name":"PowerDecreased","inputs":[{"name":"member","type":"address","indexed":false,"internalType":"address"},{"name":"tokensUnStaked","type":"uint256","indexed":false,"internalType":"uint256"},{"name":"pointsToDecrease","type":"uint256","indexed":false,"internalType":"uint256"}],"anonymous":false},{"type":"event","name":"PowerIncreased","inputs":[{"name":"member","type":"address","indexed":false,"internalType":"address"},{"name":"tokensStaked","type":"uint256","indexed":false,"internalType":"uint256"},{"name":"pointsToIncrease","type":"uint256","indexed":false,"internalType":"uint256"}],"anonymous":false},{"type":"event","name":"ProposalCreated","inputs":[{"name":"poolId","type":"uint256","indexed":false,"internalType":"uint256"},{"name":"proposalId","type":"uint256","indexed":false,"internalType":"uint256"}],"anonymous":false},{"type":"event","name":"ProposalDisputed","inputs":[{"name":"proposalId","type":"uint256","indexed":false,"internalType":"uint256"},{"name":"disputeId","type":"uint256","indexed":false,"internalType":"uint256"},{"name":"challenger","type":"address","indexed":false,"internalType":"address"},{"name":"arbitrationFee","type":"uint256","indexed":false,"internalType":"uint256"},{"name":"context","type":"string","indexed":false,"internalType":"string"}],"anonymous":false},{"type":"event","name":"Registered","inputs":[{"name":"recipientId","type":"address","indexed":true,"internalType":"address"},{"name":"data","type":"bytes","indexed":false,"internalType":"bytes"},{"name":"sender","type":"address","indexed":false,"internalType":"address"}],"anonymous":false},{"type":"event","name":"RegistryUpdated","inputs":[{"name":"registryCommunity","type":"address","indexed":false,"internalType":"address"}],"anonymous":false},{"type":"event","name":"Ruling","inputs":[{"name":"_arbitrator","type":"address","indexed":true,"internalType":"contract IArbitrator"},{"name":"_disputeID","type":"uint256","indexed":true,"internalType":"uint256"},{"name":"_ruling","type":"uint256","indexed":false,"internalType":"uint256"}],"anonymous":false},{"type":"event","name":"SupportAdded","inputs":[{"name":"from","type":"address","indexed":false,"internalType":"address"},{"name":"proposalId","type":"uint256","indexed":false,"internalType":"uint256"},{"name":"amount","type":"uint256","indexed":false,"internalType":"uint256"},{"name":"totalStakedAmount","type":"uint256","indexed":false,"internalType":"uint256"},{"name":"convictionLast","type":"uint256","indexed":false,"internalType":"uint256"}],"anonymous":false},{"type":"event","name":"WeightUpdated","inputs":[{"name":"weight","type":"uint256","indexed":false,"internalType":"uint256"}],"anonymous":false},{"type":"error","name":"ALLOCATION_ACTIVE","inputs":[]},{"type":"error","name":"ALLOCATION_NOT_ACTIVE","inputs":[]},{"type":"error","name":"ALLOCATION_NOT_ENDED","inputs":[]},{"type":"error","name":"ALREADY_INITIALIZED","inputs":[]},{"type":"error","name":"AMOUNT_MISMATCH","inputs":[]},{"type":"error","name":"ANCHOR_ERROR","inputs":[]},{"type":"error","name":"ARRAY_MISMATCH","inputs":[]},{"type":"error","name":"AddressCannotBeZero","inputs":[]},{"type":"error","name":"AmountOverMaxRatio","inputs":[]},{"type":"error","name":"ArbitratorCannotBeZero","inputs":[]},{"type":"error","name":"CantIncreaseFixedSystem","inputs":[]},{"type":"error","name":"CollateralVaultCannotBeZero","inputs":[]},{"type":"error","name":"ConvictionUnderMinimumThreshold","inputs":[]},{"type":"error","name":"INVALID","inputs":[]},{"type":"error","name":"INVALID_ADDRESS","inputs":[]},{"type":"error","name":"INVALID_FEE","inputs":[]},{"type":"error","name":"INVALID_METADATA","inputs":[]},{"type":"error","name":"INVALID_REGISTRATION","inputs":[]},{"type":"error","name":"IS_APPROVED_STRATEGY","inputs":[]},{"type":"error","name":"InsufficientCollateral","inputs":[{"name":"sentAmount","type":"uint256","internalType":"uint256"},{"name":"requiredAmount","type":"uint256","internalType":"uint256"}]},{"type":"error","name":"MISMATCH","inputs":[]},{"type":"error","name":"MaxPointsReached","inputs":[]},{"type":"error","name":"NONCE_NOT_AVAILABLE","inputs":[]},{"type":"error","name":"NOT_APPROVED_STRATEGY","inputs":[]},{"type":"error","name":"NOT_ENOUGH_FUNDS","inputs":[]},{"type":"error","name":"NOT_IMPLEMENTED","inputs":[]},{"type":"error","name":"NOT_INITIALIZED","inputs":[]},{"type":"error","name":"NOT_PENDING_OWNER","inputs":[]},{"type":"error","name":"NotEnoughPointsToSupport","inputs":[{"name":"pointsSupport","type":"uint256","internalType":"uint256"},{"name":"pointsBalance","type":"uint256","internalType":"uint256"}]},{"type":"error","name":"NotImplemented","inputs":[]},{"type":"error","name":"OnlyArbitrator","inputs":[]},{"type":"error","name":"OnlyCommunityAllowed","inputs":[]},{"type":"error","name":"OnlyCouncilSafe","inputs":[]},{"type":"error","name":"POOL_ACTIVE","inputs":[]},{"type":"error","name":"POOL_INACTIVE","inputs":[]},{"type":"error","name":"PoolAmountNotEnough","inputs":[{"name":"_proposalId","type":"uint256","internalType":"uint256"},{"name":"_requestedAmount","type":"uint256","internalType":"uint256"},{"name":"_poolAmount","type":"uint256","internalType":"uint256"}]},{"type":"error","name":"PoolIdCannotBeZero","inputs":[]},{"type":"error","name":"PoolIsEmpty","inputs":[]},{"type":"error","name":"ProposalDataIsEmpty","inputs":[]},{"type":"error","name":"ProposalIdCannotBeZero","inputs":[]},{"type":"error","name":"ProposalNotActive","inputs":[{"name":"_proposalId","type":"uint256","internalType":"uint256"}]},{"type":"error","name":"ProposalNotDisputed","inputs":[{"name":"_proposalId","type":"uint256","internalType":"uint256"}]},{"type":"error","name":"ProposalNotInList","inputs":[{"name":"_proposalId","type":"uint256","internalType":"uint256"}]},{"type":"error","name":"ProposalSupportDuplicated","inputs":[{"name":"_proposalId","type":"uint256","internalType":"uint256"},{"name":"index","type":"uint256","internalType":"uint256"}]},{"type":"error","name":"RECIPIENT_ALREADY_ACCEPTED","inputs":[]},{"type":"error","name":"RECIPIENT_ERROR","inputs":[{"name":"recipientId","type":"address","internalType":"address"}]},{"type":"error","name":"RECIPIENT_NOT_ACCEPTED","inputs":[]},{"type":"error","name":"REGISTRATION_NOT_ACTIVE","inputs":[]},{"type":"error","name":"RegistryCannotBeZero","inputs":[]},{"type":"error","name":"SupportUnderflow","inputs":[{"name":"_support","type":"uint256","internalType":"uint256"},{"name":"_delta","type":"int256","internalType":"int256"},{"name":"_result","type":"int256","internalType":"int256"}]},{"type":"error","name":"TokenCannotBeZero","inputs":[]},{"type":"error","name":"TokenNotAllowed","inputs":[]},{"type":"error","name":"UNAUTHORIZED","inputs":[]},{"type":"error","name":"UserCannotBeZero","inputs":[]},{"type":"error","name":"UserIsInactive","inputs":[]},{"type":"error","name":"UserNotInRegistry","inputs":[]},{"type":"error","name":"ZERO_ADDRESS","inputs":[]}],"bytecode":{"object":"0x60c060405260006007556000600a553480156200001b57600080fd5b506040516200635a3803806200635a8339810160408190526200003e91620000aa565b604080518082018252600a8152694356537472617465677960b01b6020808301919091526001600160a01b038416608052915183926200008191839101620000dc565b60408051601f19818403018152919052805160209091012060a05250506001600355506200012c565b600060208284031215620000bd57600080fd5b81516001600160a01b0381168114620000d557600080fd5b9392505050565b600060208083528351808285015260005b818110156200010b57858101830151858201604001528201620000ed565b506000604082860101526040601f19601f8301168501019250505092915050565b60805160a0516161f36200016760003960006107cc0152600081816105d5015281816125be0152818161265501526128f701526161f36000f3fe608060405260043610620003e75760003560e01c80636453d9c41162000203578063b2b878d01162000117578063df868ed311620000a7578063edd146cc1162000075578063edd146cc1462000cc7578063ef2920fc1462000cec578063f5b0dfb71462000d03578063fc1711f21462000d2857005b8063df868ed31462000c2f578063e0dd2c381462000c49578063e33add931462000c6e578063eb11af931462000c9357005b8063c329217111620000e5578063c32921711462000b88578063c7f758a81462000ba7578063d1e362321462000be4578063dc96ff2d1462000bfb57005b8063b2b878d01462000ade578063b41596ec1462000b12578063b5f620ce1462000b29578063bcc5b93b1462000b4e57005b8063824ea8ed1162000193578063a1aab33f1162000161578063a1aab33f1462000a61578063a47ff7e51462000a79578063a574cea41462000a92578063aba9ffee1462000ac657005b8063824ea8ed14620009c8578063868c57b814620009ed578063950559d71462000a12578063a0cf0aea1462000a3757005b8063782aadff11620001d1578063782aadff146200095b5780637c6570ba1462000980578063814516ad1462000998578063817b1cd214620009b057005b80636453d9c414620008d457806368a806c414620008f957806369fa25c4146200091e57806376365af7146200094357005b80632cefadbb11620002fb57806342fda9c7116200028b57806359a5db8b116200025957806359a5db8b14620008455780635db64b99146200086a5780636003e414146200089b578063626c47e814620008bd57005b806342fda9c714620007bc5780634ab4ba4214620007f15780634d31d087146200080857806354fac919146200082d57005b8063346db8cb11620002c9578063346db8cb146200073e578063351d9f96146200076357806338fff2d0146200078e578063406244d814620007a557005b80632cefadbb146200069f5780632dbd6fdd14620006c45780632ed04b2b14620006f4578063311a6c56146200071957005b80631073e99611620003775780631ddf1e2311620003455780631ddf1e23146200061f578063255ffb381462000637578063285a722d14620006685780632bbe0cae146200068857005b80631073e996146200054757806311f22ae314620005a057806315cc481e14620005c55780631aa91a9e14620005fa57005b80630ba9590911620003b55780630ba9590914620004ba5780630bece79c14620004db5780630c0512e914620005165780630f529ba2146200052e57005b8063013cf08b14620003f157806301ffc9a7146200043a578063058aca4414620004705780630a6f0ee9146200049557005b36620003ef57005b005b348015620003fe57600080fd5b506200041662000410366004620046cd565b62000d4d565b604051620004319d9c9b9a999897969594939291906200478d565b60405180910390f35b3480156200044757600080fd5b506200045f620004593660046200481f565b62000e7f565b604051901515815260200162000431565b3480156200047d57600080fd5b50620003ef6200048f36600462004861565b62000ee9565b348015620004a257600080fd5b50620003ef620004b436600462004a90565b62000f4b565b348015620004c757600080fd5b50600d545b60405190815260200162000431565b348015620004e857600080fd5b50601354620004fd906001600160a01b031681565b6040516001600160a01b03909116815260200162000431565b3480156200052357600080fd5b50620004cc60075481565b3480156200053b57600080fd5b50620004cc6298968081565b3480156200055457600080fd5b50600e54600f5460105460115462000575936001600160a01b031692919084565b604080516001600160a01b039095168552602085019390935291830152606082015260800162000431565b348015620005ad57600080fd5b50620003ef620005bf366004620046cd565b62000f71565b348015620005d257600080fd5b507f0000000000000000000000000000000000000000000000000000000000000000620004fd565b3480156200060757600080fd5b50620004cc62000619366004620046cd565b62000fb3565b3480156200062c57600080fd5b50620003ef62001046565b3480156200064457600080fd5b50620004cc62000656366004620046cd565b60176020526000908152604090205481565b3480156200067557600080fd5b506013546001600160a01b0316620004fd565b620004fd6200069936600462004b11565b62001053565b348015620006ac57600080fd5b50620003ef620006be366004620046cd565b6200107c565b348015620006d157600080fd5b50600c54620006e590610100900460ff1681565b60405162000431919062004b80565b3480156200070157600080fd5b50620004cc6200071336600462004b90565b620010ca565b3480156200072657600080fd5b50620003ef6200073836600462004bbf565b620011ab565b3480156200074b57600080fd5b50620004cc6200075d36600462004be2565b62001742565b3480156200077057600080fd5b50600c546200077f9060ff1681565b60405162000431919062004c22565b3480156200079b57600080fd5b50600154620004cc565b348015620007b257600080fd5b50620004cc600a81565b348015620007c957600080fd5b507f0000000000000000000000000000000000000000000000000000000000000000620004cc565b348015620007fe57600080fd5b50600254620004cc565b3480156200081557600080fd5b506200045f6200082736600462004861565b620017fb565b3480156200083a57600080fd5b50620004cc60045481565b3480156200085257600080fd5b50620004cc62000864366004620046cd565b6200180f565b3480156200087757600080fd5b50620004cc6200088936600462004861565b60156020526000908152604090205481565b348015620008a857600080fd5b50601254620004fd906001600160a01b031681565b348015620008ca57600080fd5b50620004cc600381565b348015620008e157600080fd5b50620003ef620008f336600462004861565b6200196b565b3480156200090657600080fd5b50620003ef6200091836600462004861565b62001983565b3480156200092b57600080fd5b50620003ef6200093d366004620046cd565b620019e2565b3480156200095057600080fd5b50620004cc60055481565b3480156200096857600080fd5b50620004cc6200097a36600462004b90565b62001a24565b3480156200098d57600080fd5b50620004cc600a5481565b348015620009a557600080fd5b50620003ef62001bb9565b348015620009bd57600080fd5b50620004cc60085481565b348015620009d557600080fd5b506200045f620009e7366004620046cd565b62001cca565b348015620009fa57600080fd5b50620004cc62000a0c36600462004b90565b62001d2d565b34801562000a1f57600080fd5b50620004cc62000a31366004620046cd565b62001d5f565b34801562000a4457600080fd5b50620004fd73eeeeeeeeeeeeeeeeeeeeeeeeeeeeeeeeeeeeeeee81565b34801562000a6e57600080fd5b50620004cc60065481565b34801562000a8657600080fd5b50600d54620004cc9081565b34801562000a9f57600080fd5b5062000ab762000ab1366004620046cd565b62001d8f565b60405162000431919062004c32565b34801562000ad357600080fd5b50620004cc60095481565b34801562000aeb57600080fd5b5062000b0362000afd36600462004c47565b62001e76565b60405162000431919062004d2b565b620003ef62000b2336600462004dca565b62001e91565b34801562000b3657600080fd5b50620003ef62000b4836600462004e5a565b620021b3565b34801562000b5b57600080fd5b50620004cc62000b6d36600462004861565b6001600160a01b031660009081526015602052604090205490565b34801562000b9557600080fd5b50600c54610100900460ff16620006e5565b34801562000bb457600080fd5b5062000bcc62000bc6366004620046cd565b620021be565b604051620004319a9998979695949392919062004e7a565b34801562000bf157600080fd5b50600954620004cc565b34801562000c0857600080fd5b50620004cc62000c1a366004620046cd565b60009081526014602052604090206002015490565b34801562000c3c57600080fd5b5060005460ff166200045f565b34801562000c5657600080fd5b50620004cc62000c6836600462004ee2565b620022c4565b34801562000c7b57600080fd5b50620003ef62000c8d36600462004f0a565b620022f0565b34801562000ca057600080fd5b5062000cb862000cb236600462004861565b62002309565b60405162000431919062004fc1565b34801562000cd457600080fd5b50620003ef62000ce636600462004fd6565b62002316565b620003ef62000cfd36600462004b11565b620024e6565b34801562000d1057600080fd5b50620003ef62000d22366004620046cd565b6200250a565b34801562000d3557600080fd5b50620003ef62000d47366004620046cd565b62002539565b6014602090815260009182526040918290208054600182015460028301546003840154600485015460058601546006870154600788015460088901548b51808d01909c52600a8a0180548d52600b8b0180549a9d999c989b979a6001600160a01b039788169a968816999790951697939660ff909316959394919284019162000dd69062005021565b80601f016020809104026020016040519081016040528092919081815260200182805462000e049062005021565b801562000e555780601f1062000e295761010080835404028352916020019162000e55565b820191906000526020600020905b81548152906001019060200180831162000e3757829003601f168201915b50505091909252505050600c820154600d830154600e90930154919290916001600160a01b03168d565b60006001600160e01b031982167ff1801e6100000000000000000000000000000000000000000000000000000000148062000ee357507f01ffc9a7000000000000000000000000000000000000000000000000000000006001600160e01b03198316145b92915050565b3362000ef5816200257b565b601280546001600160a01b0319166001600160a01b0384169081179091556040519081527fd6ceddf6d2a22f21c7c81675c518004eff43bc5c8a6fc32a0b748e69d58671cd906020015b60405180910390a15050565b62000f556200264a565b62000f5f62002694565b62000f6c838383620026d1565b505050565b3362000f7d816200257b565b60058290556040518281527f08e39b387d1f739ce0d2553bb31822392e3f67c62c6c0a215120ab4a6841a8ab9060200162000f3f565b60008181526014602052604081208054831462000feb5760405163c1d17bef60e01b8152600481018490526024015b60405180910390fd5b6001600882015460ff166006811115620010095762001009620046e7565b146200102c576040516344980d8f60e01b81526004810184905260240162000fe2565b6200103c81826002015462002a26565b6003015492915050565b620010513362002a65565b565b60006200105f6200264a565b6200106962002694565b62001075838362002bb9565b9392505050565b3362001088816200257b565b600a5460408051918252602082018490527f056aedca4e334b6c4bea48715fb0de644811b740894de57a0380d3eb90f2805b910160405180910390a150600a55565b6000620010d662002efd565b60006002600c54610100900460ff166003811115620010f957620010f9620046e7565b14806200112457506001600c54610100900460ff166003811115620011225762001122620046e7565b145b156200113257508162001141565b6200113e848462002f42565b90505b80600960008282546200115591906200506d565b9091555050604080516001600160a01b0386168152602081018590529081018290527f70b752f3fadb6ac131c0ece847fcbb6994ec56ed6411595710fd9b29c6ac6cc19060600160405180910390a19392505050565b600082815260176020908152604080832054808452601490925282209091829003620011ee5760405163c1d17bef60e01b81526004810183905260240162000fe2565b6005600882015460ff1660068111156200120c576200120c620046e7565b1462001248576040517f960239520000000000000000000000000000000000000000000000000000000081526004810183905260240162000fe2565b601154600d8201546000916200125e9162005083565b421190508015816200127b5750600e546001600160a01b03163314155b15620012b3576040517f2eef310a00000000000000000000000000000000000000000000000000000000815260040160405180910390fd5b8080620012be575083155b15620013f557601054600114620012d7576006620012da565b60015b60088301805460ff19166001836006811115620012fb57620012fb620046e7565b0217905550601354600e830154600f5460405163099ea56b60e41b8152600481018790526001600160a01b03928316602482015260448101919091529116906399ea56b090606401600060405180830381600087803b1580156200135e57600080fd5b505af115801562001373573d6000803e3d6000fd5b50506013546005850154600f5460405163099ea56b60e41b8152600481018990526001600160a01b0392831660248201526044810191909152911692506399ea56b091506064015b600060405180830381600087803b158015620013d657600080fd5b505af1158015620013eb573d6000803e3d6000fd5b50505050620016f9565b83600103620015415760088201805460ff191660011790556013546005830154600f5460405163099ea56b60e41b8152600481018790526001600160a01b03928316602482015260448101919091529116906399ea56b090606401600060405180830381600087803b1580156200146b57600080fd5b505af115801562001480573d6000803e3d6000fd5b505060135460125460408051633629edcd60e11b815290516001600160a01b0393841695506399ea56b09450889390921691636c53db9a916004808201926020929091908290030181865afa158015620014de573d6000803e3d6000fd5b505050506040513d601f19601f8201168201806040525081019062001504919062005099565b600f5460405160e085901b6001600160e01b031916815260048101939093526001600160a01b0390911660248301526044820152606401620013bb565b83600203620016f95760088201805460ff19166006179055601354600e830154600f546001600160a01b03928316926399ea56b09287929116906002906200158b906003620050b9565b620015979190620050e9565b6040516001600160e01b031960e086901b16815260048101939093526001600160a01b0390911660248301526044820152606401600060405180830381600087803b158015620015e657600080fd5b505af1158015620015fb573d6000803e3d6000fd5b505060135460125460408051633629edcd60e11b815290516001600160a01b0393841695506399ea56b09450889390921691636c53db9a916004808201926020929091908290030181865afa15801562001659573d6000803e3d6000fd5b505050506040513d601f19601f820116820180604052508101906200167f919062005099565b600f546200169090600290620050e9565b6040516001600160e01b031960e086901b16815260048101939093526001600160a01b0390911660248301526044820152606401600060405180830381600087803b158015620016df57600080fd5b505af1158015620016f4573d6000803e3d6000fd5b505050505b600e5460405185815286916001600160a01b0316907f394027a5fa6e098a1191094d1719d6929b9abc535fcc0c8f448d6a4e756222769060200160405180910390a35050505050565b60008084905060006200176c629896806080600454901b620017659190620050e9565b836200319e565b905060806f80000000000000000000000000000000600454629896806200179491906200506d565b620017a484600160801b6200506d565b620017b36298968089620050b9565b620017bf9190620050b9565b620017cb9190620050e9565b620017d78885620050b9565b620017e3919062005083565b620017ef919062005083565b901c9695505050505050565b60006001600160a01b038216151562000ee3565b600080600254116200184d576040517fed4421ad00000000000000000000000000000000000000000000000000000000815260040160405180910390fd5b620018588262003253565b156200187757604051630efd728560e21b815260040160405180910390fd5b600254600090620018928468010000000000000000620050b9565b6200189e9190620050e9565b6298968060055468010000000000000000620018bb9190620050b9565b620018c79190620050e9565b620018d391906200506d565b90506040620018e160095490565b600454620018f390629896806200506d565b629896806040620019058680620050b9565b901c629896806080600654901b6200191e9190620050e9565b6200192a9190620050e9565b620019369190620050b9565b620019429190620050e9565b6200194e9190620050b9565b901c9150600a5482116200196557600a5462001075565b50919050565b6200197562002efd565b620019808162002a65565b50565b6200198d6200327e565b601380546001600160a01b0319166001600160a01b0383169081179091556040519081527f98591b379d0945355df2687e7941177774bf190304dba561b029c0f63fcbc179906020015b60405180910390a150565b33620019ee816200257b565b60048290556040518281527f592dcd55d60d892e7fcb3ba105013312e99691cd59f91e15f83cb67cb5a505f29060200162000f3f565b600062001a3062002efd565b60006002600c54610100900460ff16600381111562001a535762001a53620046e7565b0362001a6357825b905062001acc565b6001600c54610100900460ff16600381111562001a845762001a84620046e7565b0362001a965762001a5b848462003343565b6003600c54610100900460ff16600381111562001ab75762001ab7620046e7565b0362001acc5762001ac98484620033f5565b90505b60125460405163011de97360e61b81526001600160a01b038681166004830152306024830152600092169063477a5cc090604401602060405180830381865afa15801562001b1e573d6000803e3d6000fd5b505050506040513d601f19601f8201168201806040525081019062001b4491906200510c565b9050801562001b6757816009600082825462001b61919062005083565b90915550505b604080516001600160a01b0387168152602081018690529081018390527f0b9150e1e54346ed3fa36b977cd5d65dca5a649c737c3174a26bddaadd47667a9060600160405180910390a1509392505050565b6012546040517f0d4a8b490000000000000000000000000000000000000000000000000000000081523360048201819052306024830152916001600160a01b031690630d4a8b4990604401600060405180830381600087803b15801562001c1f57600080fd5b505af115801562001c34573d6000803e3d6000fd5b5050601254604051637817ee4f60e01b81526001600160a01b0385811660048301523060248301529091169250637817ee4f9150604401602060405180830381865afa15801562001c89573d6000803e3d6000fd5b505050506040513d601f19601f8201168201806040525081019062001caf91906200512c565b6009600082825462001cc2919062005083565b909155505050565b600081815260146020526040812060028101548290819062001cee90849062003654565b9150915081600014801562001d01575080155b1562001d0f57826003015491505b600062001d2084600101546200180f565b9092101595945050505050565b6016602052816000526040600020818154811062001d4a57600080fd5b90600052602060002001600091509150505481565b60006004546298968062001d7491906200506d565b62001d836298968084620050b9565b62000ee39190620050e9565b604080518082019091526000815260606020820152600060146000848152602001908152602001600020905080600a016040518060400160405290816000820154815260200160018201805462001de69062005021565b80601f016020809104026020016040519081016040528092919081815260200182805462001e149062005021565b801562001e655780601f1062001e395761010080835404028352916020019162001e65565b820191906000526020600020905b81548152906001019060200180831162001e4757829003601f168201915b505050505081525050915050919050565b606060405163d623472560e01b815260040160405180910390fd5b62001e9b620036b5565b6000858152601460205260409020600e546001600160a01b031662001eec576040517f6c291fd300000000000000000000000000000000000000000000000000000000815260040160405180910390fd5b6013546001600160a01b031662001f2f576040517fc4d0cd2f00000000000000000000000000000000000000000000000000000000815260040160405180910390fd5b8054861462001f555760405163c1d17bef60e01b81526004810187905260240162000fe2565b6001600882015460ff16600681111562001f735762001f73620046e7565b1462001f96576040516344980d8f60e01b81526004810187905260240162000fe2565b600f54341162001fe057600f546040517fb07e3bc4000000000000000000000000000000000000000000000000000000008152346004820152602481019190915260440162000fe2565b600f5460009062001ff290346200506d565b601354600f546040517f481fef8a000000000000000000000000000000000000000000000000000000008152600481018b90523360248201529293506001600160a01b039091169163481fef8a91906044016000604051808303818588803b1580156200205e57600080fd5b505af115801562002073573d6000803e3d6000fd5b5050600e546040517fc13517e1000000000000000000000000000000000000000000000000000000008152600094506001600160a01b03909116925063c13517e191508490620020cd906003908a908a906004016200516f565b60206040518083038185885af1158015620020ec573d6000803e3d6000fd5b50505050506040513d601f19601f820116820180604052508101906200211391906200512c565b60088401805460ff19166005179055600c840181905542600d850155600e84018054336001600160a01b03199091168117909155600082815260176020526040908190208b9055519192507f0a28607b854255b9abb949fa3b40d6167da812ea8c33ee06c710d4b51ecf5c559162002196918b9185919087908d908d9062005194565b60405180910390a1505050620021ac6001600355565b5050505050565b620019808162003710565b6000806000806000806000806000806000601460008d81526020019081526020016000209050806001015460001462002206576200220081600101546200180f565b62002209565b60005b92508060050160009054906101000a90046001600160a01b03168160040160009054906101000a90046001600160a01b03168260060160009054906101000a90046001600160a01b0316836001015484600201548560080160009054906101000a900460ff16866007015487600301548a896009016000336001600160a01b03166001600160a01b03168152602001908152602001600020549a509a509a509a509a509a509a509a509a509a50509193959799509193959799565b60008281526014602090815260408083206001600160a01b038516845260090190915281205462001075565b60405163d623472560e01b815260040160405180910390fd5b600062000ee38262003752565b620023218262003774565b600081806020019051810190620023399190620052ba565b80519091506001600160a01b03166200236557604051635df4b1ef60e01b815260040160405180910390fd5b8051601280546001600160a01b0319166001600160a01b0390921691909117905560208101516004556040810151600555606081015160065560a0810151600c805460ff19166001836002811115620023c257620023c2620046e7565b021790555060c0810151600c805461ff001916610100836003811115620023ed57620023ed620046e7565b021790555060e081015151600d556080810151600a556101008101518051600e80546001600160a01b0319166001600160a01b0390921691821790556020820151600f55604082015160105560609091015160115515620024a657306040516200245790620046bf565b6001600160a01b039091168152602001604051809103906000f08015801562002484573d6000803e3d6000fd5b50601380546001600160a01b0319166001600160a01b03929092169190911790555b7f562ca9cbbcd625eafc584dae50d6427fd01bdd96b3ba1b6ff05f4caee19a48f28382604051620024d992919062005363565b60405180910390a1505050565b620024f06200264a565b620024fa62002694565b620025068282620037f9565b5050565b620025146200264a565b806002600082825462002528919062005083565b9091555062001980905081620038ee565b3362002545816200257b565b60068290556040518281527f30ee8206062f283e56a0af2b02138016bf7442ded26ad68a92a18a9dd246fb499060200162000f3f565b6001546040517f29e40d4b00000000000000000000000000000000000000000000000000000000815260048101919091526001600160a01b0382811660248301527f000000000000000000000000000000000000000000000000000000000000000016906329e40d4b90604401602060405180830381865afa15801562002606573d6000803e3d6000fd5b505050506040513d601f19601f820116820180604052508101906200262c91906200510c565b620019805760405163075fd2b160e01b815260040160405180910390fd5b336001600160a01b037f00000000000000000000000000000000000000000000000000000000000000001614620010515760405163075fd2b160e01b815260040160405180910390fd5b60015460000362001051576040517f3da3f98c00000000000000000000000000000000000000000000000000000000815260040160405180910390fd5b60008251116200270d576040517fc5f7c4c000000000000000000000000000000000000000000000000000000000815260040160405180910390fd5b6000828060200190518101906200272591906200512c565b90508060000362002762576040517ff881a10d00000000000000000000000000000000000000000000000000000000815260040160405180910390fd5b60008181526014602052604090206001600c5460ff1660028111156200278c576200278c620046e7565b03620021ac5780548214620027b85760405163c1d17bef60e01b81526004810183905260240162000fe2565b60025481600101541115620028125760018101546002546040517f5863b0b6000000000000000000000000000000000000000000000000000000008152600481018590526024810192909252604482015260640162000fe2565b6001600882015460ff166006811115620028305762002830620046e7565b1462002853576040516344980d8f60e01b81526004810183905260240162000fe2565b6000620028608362000fb3565b905060006200287383600101546200180f565b9050808210801562002889575060008360010154115b15620028c1576040517fcce7930800000000000000000000000000000000000000000000000000000000815260040160405180910390fd5b6001546040517f068bcd8d0000000000000000000000000000000000000000000000000000000081526000916001600160a01b037f0000000000000000000000000000000000000000000000000000000000000000169163068bcd8d916200292f9160040190815260200190565b600060405180830381865afa1580156200294d573d6000803e3d6000fd5b505050506040513d6000823e601f3d908101601f19168201604052620029779190810190620054b4565b90508360010154600260008282546200299191906200506d565b9091555050604081015160048501546001860154620029bb92916001600160a01b0316906200391f565b60088401805460ff191660049081179091558401546001850154604080518881526001600160a01b0390931660208401528201527fa7932e9c92f31e1ed56b29d00bbe669a97484dc24de28dd9c8c0429df7f358479060600160405180910390a15050505050505050565b60008062002a35848462003654565b9150915081600014801562002a48575080155b1562002a545750505050565b600784015560039092019190915550565b601254604051637817ee4f60e01b81526001600160a01b03838116600483015230602483015290911690637817ee4f90604401602060405180830381865afa15801562002ab6573d6000803e3d6000fd5b505050506040513d601f19601f8201168201806040525081019062002adc91906200512c565b6009600082825462002aef91906200506d565b90915550506012546040517f22bcf9990000000000000000000000000000000000000000000000000000000081526001600160a01b038381166004830152306024830152909116906322bcf99990604401600060405180830381600087803b15801562002b5b57600080fd5b505af115801562002b70573d6000803e3d6000fd5b5050505062002b7f8162003969565b6040516001600160a01b03821681527f1468da654b37bb3631011c1917d02e0db437d519918858d40b38b5e980ca033b90602001620019d7565b6000808380602001905181019062002bd2919062005574565b805190915060000362002c11576040517f4e79178600000000000000000000000000000000000000000000000000000000815260040160405180910390fd5b6001600c5460ff16600281111562002c2d5762002c2d620046e7565b0362002dec5762002c42816020015162003aa6565b60608101516001600160a01b031662002c87576040517f596a094c00000000000000000000000000000000000000000000000000000000815260040160405180910390fd5b6000306001600160a01b03166315cc481e6040518163ffffffff1660e01b8152600401602060405180830381865afa15801562002cc8573d6000803e3d6000fd5b505050506040513d601f19601f8201168201806040525081019062002cee919062005099565b6001600160a01b031663068bcd8d6001546040518263ffffffff1660e01b815260040162002d1e91815260200190565b600060405180830381865afa15801562002d3c573d6000803e3d6000fd5b505050506040513d6000823e601f3d908101601f1916820160405262002d669190810190620054b4565b604001519050806001600160a01b031682606001516001600160a01b03161462002dbc576040517fa29c498600000000000000000000000000000000000000000000000000000000815260040160405180910390fd5b62002dcb826040015162003253565b1562002dea57604051630efd728560e21b815260040160405180910390fd5b505b600060076000815462002dff9062005627565b918290555060008181526014602090815260408083208481556005810180546001600160a01b038b81166001600160a01b0319928316179092558885015160048401805491841691831691909117905560608901516006840180549190931691161790559086015160018083019190915560088201805460ff19169091179055436007820155600381019290925560808501518051600a8401908155918101519394509192600b84019062002eb5908262005695565b505060015460408051918252602082018590527ffcf3b1aa65a464cef2889608f99e8b8c0f680a4be6c2acb9d961c536a5a9294b92500160405180910390a150949350505050565b6012546001600160a01b0316331462001051576040517faf0916a200000000000000000000000000000000000000000000000000000000815260040160405180910390fd5b60128054604080516336d8759760e21b81529051600093926001600160a01b03169163db61d65c9160048083019260209291908290030181865afa15801562002f8f573d6000803e3d6000fd5b505050506040513d601f19601f8201168201806040525081019062002fb5919062005099565b6001600160a01b031663313ce5676040518163ffffffff1660e01b8152600401602060405180830381865afa92505050801562003011575060408051601f3d908101601f191682019092526200300e9181019062005762565b60015b6200305c57620030566040518060400160405280601581526020017f4572726f722067657474696e6720646563696d616c000000000000000000000081525062003ae7565b62003062565b60ff1690505b6012546040516316308e2560e11b81526001600160a01b0386811660048301526000928692911690632c611c4a90602401602060405180830381865afa158015620030b1573d6000803e3d6000fd5b505050506040513d601f19601f82011682018060405250810190620030d791906200512c565b620030e391906200506d565b905060006200310a620030f884600a62005884565b620031049084620050b9565b62003b5c565b601254604051637817ee4f60e01b81526001600160a01b03898116600483015230602483015292935060009284921690637817ee4f90604401602060405180830381865afa15801562003161573d6000803e3d6000fd5b505050506040513d601f19601f820116820180604052508101906200318791906200512c565b6200319391906200506d565b979650505050505050565b6000600160801b8310620031f55760405162461bcd60e51b815260206004820152601c60248201527f5f612073686f756c64206265206c657373207468616e20325e31323800000000604482015260640162000fe2565b50600160801b82825b80156200324b578060011660000362003228576200321d828362003c61565b915060011c620031fe565b62003234838362003c61565b9250620032436001826200506d565b9050620031fe565b505092915050565b6000620032646298968083620050b9565b600254600554620032769190620050b9565b111592915050565b601260009054906101000a90046001600160a01b03166001600160a01b0316636c53db9a6040518163ffffffff1660e01b8152600401602060405180830381865afa158015620032d2573d6000803e3d6000fd5b505050506040513d601f19601f82011682018060405250810190620032f8919062005099565b6001600160a01b0316336001600160a01b03161462001051576040517fe860ec7e00000000000000000000000000000000000000000000000000000000815260040160405180910390fd5b601254604051637817ee4f60e01b81526001600160a01b0384811660048301523060248301526000928492849290911690637817ee4f90604401602060405180830381865afa1580156200339b573d6000803e3d6000fd5b505050506040513d601f19601f82011682018060405250810190620033c191906200512c565b600d54909150620033d3838362005083565b1115620033ed57600d54620033ea9082906200506d565b91505b509392505050565b6012546040516316308e2560e11b81526001600160a01b0384811660048301526000928392859290911690632c611c4a90602401602060405180830381865afa15801562003447573d6000803e3d6000fd5b505050506040513d601f19601f820116820180604052508101906200346d91906200512c565b62003479919062005083565b60128054604080516336d8759760e21b8152905193945091926001600160a01b039091169163db61d65c9160048083019260209291908290030181865afa158015620034c9573d6000803e3d6000fd5b505050506040513d601f19601f82011682018060405250810190620034ef919062005099565b6001600160a01b031663313ce5676040518163ffffffff1660e01b8152600401602060405180830381865afa9250505080156200354b575060408051601f3d908101601f19168201909252620035489181019062005762565b60015b6200359657620035906040518060400160405280601581526020017f4572726f722067657474696e6720646563696d616c000000000000000000000081525062003ae7565b6200359c565b60ff1690505b6000620035bb620035af83600a62005884565b620031049085620050b9565b601254604051637817ee4f60e01b81526001600160a01b03898116600483015230602483015292935060009290911690637817ee4f90604401602060405180830381865afa15801562003612573d6000803e3d6000fd5b505050506040513d601f19601f820116820180604052508101906200363891906200512c565b905060006200364882846200506d565b98975050505050505050565b600080439050808460070154111562003671576200367162005892565b808460070154036200368957506000905080620036ae565b620036ab8460070154826200369f91906200506d565b85600301548562001742565b91505b9250929050565b600260035403620037095760405162461bcd60e51b815260206004820152601f60248201527f5265656e7472616e637947756172643a207265656e7472616e742063616c6c00604482015260640162000fe2565b6002600355565b6000805460ff19168215159081179091556040519081527fd94c9bc4d43c51d8dc345a016d8e3d994432fac68e72832e4cf3a616bd8efae090602001620019d7565b60006001600160a01b038216156200376c57600262000ee3565b600392915050565b6200377e6200264a565b60015415620037b9576040517f439a74c900000000000000000000000000000000000000000000000000000000815260040160405180910390fd5b80600003620037f4576040517f7fcce2a900000000000000000000000000000000000000000000000000000000815260040160405180910390fd5b600155565b620038048162003d68565b60125460405163011de97360e61b81526001600160a01b038381166004830152306024830152600092169063477a5cc090604401602060405180830381865afa15801562003856573d6000803e3d6000fd5b505050506040513d601f19601f820116820180604052508101906200387c91906200510c565b905080620038b6576040517f5fccb67f00000000000000000000000000000000000000000000000000000000815260040160405180910390fd5b600083806020019051810190620038ce9190620058a8565b9050620038dc838262003e94565b620038e8838262004072565b50505050565b6040518181527f46aeb5d8770fc4474bc2dfa118fd2595f7fb33ce2cbce6f4e5a3dabfe0f7633990602001620019d7565b7fffffffffffffffffffffffff11111111111111111111111111111111111111126001600160a01b038416016200395c5762000f6c8282620044e4565b62000f6c83838362004501565b6001600160a01b038116600090815260166020908152604080832080548251818502810185019093528083529192909190830182828015620039cb57602002820191906000526020600020905b815481526020019060010190808311620039b6575b5050505050905060005b815181101562000f6c576000828281518110620039f657620039f66200595f565b60200260200101519050600060146000838152602001908152602001600020905062003a228262004551565b1562003a8e576001600160a01b038516600090815260098201602052604081208054908290556002830180549192839262003a5f9084906200506d565b92505081905550806008600082825462003a7a91906200506d565b9091555062003a8c9050828262002a26565b505b5050808062003a9d9062005627565b915050620039d5565b6001600160a01b03811662001980576040517fe622e04000000000000000000000000000000000000000000000000000000000815260040160405180910390fd5b620019808160405160240162003afe919062005975565b60408051601f198184030181529190526020810180517bffffffffffffffffffffffffffffffffffffffffffffffffffffffff167f41304fac000000000000000000000000000000000000000000000000000000001790526200458b565b60008160000362003b6f57506000919050565b6000600162003b7e84620045ac565b901c6001901b9050600181848162003b9a5762003b9a620050d3565b048201901c9050600181848162003bb55762003bb5620050d3565b048201901c9050600181848162003bd05762003bd0620050d3565b048201901c9050600181848162003beb5762003beb620050d3565b048201901c9050600181848162003c065762003c06620050d3565b048201901c9050600181848162003c215762003c21620050d3565b048201901c9050600181848162003c3c5762003c3c620050d3565b048201901c9050620010758182858162003c5a5762003c5a620050d3565b0462004648565b6000600160801b83111562003cdf5760405162461bcd60e51b815260206004820152602860248201527f5f612073686f756c64206265206c657373207468616e206f7220657175616c2060448201527f746f20325e313238000000000000000000000000000000000000000000000000606482015260840162000fe2565b600160801b821062003d345760405162461bcd60e51b815260206004820152601c60248201527f5f622073686f756c64206265206c657373207468616e20325e31323800000000604482015260640162000fe2565b60806f8000000000000000000000000000000062003d538486620050b9565b62003d5f919062005083565b901c9392505050565b6001600160a01b03811662003da9576040517fd1f2828800000000000000000000000000000000000000000000000000000000815260040160405180910390fd5b6012546001600160a01b031662003dd357604051635df4b1ef60e01b815260040160405180910390fd5b6012546040517fa230c5240000000000000000000000000000000000000000000000000000000081526001600160a01b0383811660048301529091169063a230c52490602401602060405180830381865afa15801562003e37573d6000803e3d6000fd5b505050506040513d601f19601f8201168201806040525081019062003e5d91906200510c565b62001980576040517f6a5cfb6d00000000000000000000000000000000000000000000000000000000815260040160405180910390fd5b6000805b825181101562003f655782818151811062003eb75762003eb76200595f565b6020026020010151600001516000031562003f5057600083828151811062003ee35762003ee36200595f565b602002602001015160000151905062003efc8162004551565b62003f1e5760405163c1d17bef60e01b81526004810182905260240162000fe2565b83828151811062003f335762003f336200595f565b6020026020010151602001518362003f4c91906200598a565b9250505b8062003f5c8162005627565b91505062003e98565b506001600160a01b03831660009081526015602052604081205462003f8b908362004660565b601254604051637817ee4f60e01b81526001600160a01b03878116600483015230602483015292935060009290911690637817ee4f90604401602060405180830381865afa15801562003fe2573d6000803e3d6000fd5b505050506040513d601f19601f820116820180604052508101906200400891906200512c565b90508082111562004050576040517fd64182fe000000000000000000000000000000000000000000000000000000008152600481018390526024810182905260440162000fe2565b506001600160a01b039093166000908152601560205260409020929092555050565b606060005b8251811015620038e85760008382815181106200409857620040986200595f565b60200260200101516000015190508251600003620040f95760408051600180825281830190925290602080830190803683370190505092508083600081518110620040e757620040e76200595f565b60200260200101818152505062004269565b6000805b84518110156200418157828582815181106200411d576200411d6200595f565b6020026020010151036200416c576040517fadebb15400000000000000000000000000000000000000000000000000000000815260048101849052602481018290526001925060440162000fe2565b80620041788162005627565b915050620040fd565b508062004267576000845160016200419a919062005083565b67ffffffffffffffff811115620041b557620041b562004881565b604051908082528060200260200182016040528015620041df578160200160208202803683370190505b50905060005b855181101562004241578581815181106200420457620042046200595f565b60200260200101518282815181106200422157620042216200595f565b602090810291909101015280620042388162005627565b915050620041e5565b5082818651815181106200425957620042596200595f565b602090810291909101015293505b505b60008483815181106200428057620042806200595f565b60209081029190910181015181015160008481526014835260408082206001600160a01b038b16835260098101909452812054919350620042c2828562004660565b6001600160a01b038a1660009081526009850160205260408120829055909150805b6001600160a01b038b16600090815260166020526040902054811015620043645784546001600160a01b038c1660009081526016602052604090208054839081106200433457620043346200595f565b9060005260206000200154036200434f576001915062004364565b806200435b8162005627565b915050620042e4565b50806200439b576001600160a01b038a16600090815260166020908152604082208654815460018101835591845291909220909101555b818311620043f557620043af83836200506d565b60086000828254620043c2919062005083565b90915550620043d4905083836200506d565b846002016000828254620043e9919062005083565b90915550620044419050565b6200440182846200506d565b600860008282546200441491906200506d565b9091555062004426905082846200506d565b8460020160008282546200443b91906200506d565b90915550505b83600701546000036200445a57436007850155620044c8565b62004466848462002a26565b60028401546003850154604080516001600160a01b038e168152602081018a9052908101859052606081019290925260808201527f0227f642ddcf2042ceaeafadb9d540f432072c00cd4862881667168dcc14710f9060a00160405180910390a15b5050505050508080620044db9062005627565b91505062004077565b60008060008084865af1620025065763b12d13eb6000526004601cfd5b81601452806034526fa9059cbb00000000000000000000000060005260206000604460106000875af13d15600160005114171662004547576390b8ec186000526004601cfd5b6000603452505050565b6000818152601460205260408120541580159062000ee35750506000908152601460205260409020600501546001600160a01b0316151590565b80516a636f6e736f6c652e6c6f67602083016000808483855afa5050505050565b600080608083901c15620045c257608092831c92015b604083901c15620045d557604092831c92015b602083901c15620045e857602092831c92015b601083901c15620045fb57601092831c92015b600883901c156200460e57600892831c92015b600483901c156200462157600492831c92015b600283901c156200463457600292831c92015b600183901c1562000ee35760010192915050565b600081831062004659578162001075565b5090919050565b6000806200466f83856200598a565b9050600081121562001075576040517f3bbc714200000000000000000000000000000000000000000000000000000000815260048101859052602481018490526044810182905260640162000fe2565b61081080620059ae83390190565b600060208284031215620046e057600080fd5b5035919050565b634e487b7160e01b600052602160045260246000fd5b60078110620019805762001980620046e7565b60005b838110156200472d57818101518382015260200162004713565b50506000910152565b600081518084526200475081602086016020860162004710565b601f01601f19169290920160200192915050565b80518252600060208201516040602085015262004785604085018262004736565b949350505050565b60006101a08f83528e60208401528d60408401528c60608401526001600160a01b03808d166080850152808c1660a0850152808b1660c08501528960e0850152620047d889620046fd565b8861010085015281610120850152620047f48285018962004764565b61014085019790975261016084019590955250509116610180909101529a9950505050505050505050565b6000602082840312156200483257600080fd5b81356001600160e01b0319811681146200107557600080fd5b6001600160a01b03811681146200198057600080fd5b6000602082840312156200487457600080fd5b813562001075816200484b565b634e487b7160e01b600052604160045260246000fd5b6040805190810167ffffffffffffffff81118282101715620048bd57620048bd62004881565b60405290565b604051610120810167ffffffffffffffff81118282101715620048bd57620048bd62004881565b60405160c0810167ffffffffffffffff81118282101715620048bd57620048bd62004881565b60405160a0810167ffffffffffffffff81118282101715620048bd57620048bd62004881565b604051601f8201601f1916810167ffffffffffffffff8111828210171562004962576200496262004881565b604052919050565b600067ffffffffffffffff82111562004987576200498762004881565b5060051b60200190565b600082601f830112620049a357600080fd5b81356020620049bc620049b6836200496a565b62004936565b82815260059290921b84018101918181019086841115620049dc57600080fd5b8286015b8481101562004a04578035620049f6816200484b565b8352918301918301620049e0565b509695505050505050565b600067ffffffffffffffff82111562004a2c5762004a2c62004881565b50601f01601f191660200190565b600082601f83011262004a4c57600080fd5b813562004a5d620049b68262004a0f565b81815284602083860101111562004a7357600080fd5b816020850160208301376000918101602001919091529392505050565b60008060006060848603121562004aa657600080fd5b833567ffffffffffffffff8082111562004abf57600080fd5b62004acd8783880162004991565b9450602086013591508082111562004ae457600080fd5b5062004af38682870162004a3a565b925050604084013562004b06816200484b565b809150509250925092565b6000806040838503121562004b2557600080fd5b823567ffffffffffffffff81111562004b3d57600080fd5b62004b4b8582860162004a3a565b925050602083013562004b5e816200484b565b809150509250929050565b6004811062004b7c5762004b7c620046e7565b9052565b6020810162000ee3828462004b69565b6000806040838503121562004ba457600080fd5b823562004bb1816200484b565b946020939093013593505050565b6000806040838503121562004bd357600080fd5b50508035926020909101359150565b60008060006060848603121562004bf857600080fd5b505081359360208301359350604090920135919050565b6003811062004b7c5762004b7c620046e7565b6020810162000ee3828462004c0f565b60208152600062001075602083018462004764565b6000806040838503121562004c5b57600080fd5b823567ffffffffffffffff8082111562004c7457600080fd5b62004c828683870162004991565b935060209150818501358181111562004c9a57600080fd5b8501601f8101871362004cac57600080fd5b803562004cbd620049b6826200496a565b81815260059190911b8201840190848101908983111562004cdd57600080fd5b8584015b8381101562004d1a5780358681111562004cfb5760008081fd5b62004d0b8c898389010162004a3a565b84525091860191860162004ce1565b508096505050505050509250929050565b602080825282518282018190526000919060409081850190868401855b8281101562004d7857815180516001600160a01b0316855286015186850152928401929085019060010162004d48565b5091979650505050505050565b60008083601f84011262004d9857600080fd5b50813567ffffffffffffffff81111562004db157600080fd5b602083019150836020828501011115620036ae57600080fd5b60008060008060006060868803121562004de357600080fd5b85359450602086013567ffffffffffffffff8082111562004e0357600080fd5b62004e1189838a0162004d85565b9096509450604088013591508082111562004e2b57600080fd5b5062004e3a8882890162004d85565b969995985093965092949392505050565b80151581146200198057600080fd5b60006020828403121562004e6d57600080fd5b8135620010758162004e4b565b6001600160a01b038b811682528a81166020830152891660408201526060810188905260808101879052610140810162004eb487620046fd565b60a082019690965260c081019490945260e08401929092526101008301526101209091015295945050505050565b6000806040838503121562004ef657600080fd5b82359150602083013562004b5e816200484b565b6000602080838503121562004f1e57600080fd5b823567ffffffffffffffff81111562004f3657600080fd5b8301601f8101851362004f4857600080fd5b803562004f59620049b6826200496a565b81815260069190911b8201830190838101908783111562004f7957600080fd5b928401925b8284101562003193576040848903121562004f995760008081fd5b62004fa362004897565b84358152858501358682015282526040909301929084019062004f7e565b6020810162004fd083620046fd565b91905290565b6000806040838503121562004fea57600080fd5b82359150602083013567ffffffffffffffff8111156200500957600080fd5b620050178582860162004a3a565b9150509250929050565b600181811c908216806200503657607f821691505b6020821081036200196557634e487b7160e01b600052602260045260246000fd5b634e487b7160e01b600052601160045260246000fd5b8181038181111562000ee35762000ee362005057565b8082018082111562000ee35762000ee362005057565b600060208284031215620050ac57600080fd5b815162001075816200484b565b808202811582820484141762000ee35762000ee362005057565b634e487b7160e01b600052601260045260246000fd5b6000826200510757634e487b7160e01b600052601260045260246000fd5b500490565b6000602082840312156200511f57600080fd5b8151620010758162004e4b565b6000602082840312156200513f57600080fd5b5051919050565b81835281816020850137506000828201602090810191909152601f909101601f19169091010190565b8381526040602082015260006200518b60408301848662005146565b95945050505050565b8681528560208201526001600160a01b038516604082015283606082015260a0608082015260006200364860a08301848662005146565b8051620051d8816200484b565b919050565b805160038110620051d857600080fd5b805160048110620051d857600080fd5b6000602082840312156200521057600080fd5b6040516020810181811067ffffffffffffffff8211171562005236576200523662004881565b6040529151825250919050565b6000608082840312156200525657600080fd5b6040516080810181811067ffffffffffffffff821117156200527c576200527c62004881565b8060405250809150825162005291816200484b565b808252506020830151602082015260408301516040820152606083015160608201525092915050565b60006101808284031215620052ce57600080fd5b620052d8620048c3565b620052e383620051cb565b8152602083015160208201526040830151604082015260608301516060820152608083015160808201526200531b60a08401620051dd565b60a08201526200532e60c08401620051ed565b60c0820152620053428460e08501620051fd565b60e0820152610100620053588582860162005243565b908201529392505050565b60006101a0820190508382526001600160a01b038351166020830152602083015160408301526040830151606083015260608301516080830152608083015160a083015260a0830151620053bb60c084018262004c0f565b5060c0830151620053d060e084018262004b69565b5060e083015151610100838101919091529092015180516001600160a01b0316610120830152602081015161014083015260408101516101608301526060015161018090910152919050565b6000604082840312156200542f57600080fd5b6200543962004897565b905081518152602082015167ffffffffffffffff8111156200545a57600080fd5b8201601f810184136200546c57600080fd5b80516200547d620049b68262004a0f565b8181528560208385010111156200549357600080fd5b620054a682602083016020860162004710565b602084015250909392505050565b600060208284031215620054c757600080fd5b815167ffffffffffffffff80821115620054e057600080fd5b9083019060c08286031215620054f557600080fd5b620054ff620048ea565b82518152602083015162005513816200484b565b6020820152604083015162005528816200484b565b60408201526060830151828111156200554057600080fd5b6200554e878286016200541c565b6060830152506080830151608082015260a083015160a082015280935050505092915050565b6000602082840312156200558757600080fd5b815167ffffffffffffffff80821115620055a057600080fd5b9083019060a08286031215620055b557600080fd5b620055bf62004910565b825181526020830151620055d3816200484b565b6020820152604083810151908201526060830151620055f2816200484b565b60608201526080830151828111156200560a57600080fd5b62005618878286016200541c565b60808301525095945050505050565b6000600182016200563c576200563c62005057565b5060010190565b601f82111562000f6c57600081815260208120601f850160051c810160208610156200566c5750805b601f850160051c820191505b818110156200568d5782815560010162005678565b505050505050565b815167ffffffffffffffff811115620056b257620056b262004881565b620056ca81620056c3845462005021565b8462005643565b602080601f831160018114620057025760008415620056e95750858301515b600019600386901b1c1916600185901b1785556200568d565b600085815260208120601f198616915b82811015620057335788860151825594840194600190910190840162005712565b5085821015620057525787850151600019600388901b60f8161c191681555b5050505050600190811b01905550565b6000602082840312156200577557600080fd5b815160ff811681146200107557600080fd5b600181815b80851115620057c8578160001904821115620057ac57620057ac62005057565b80851615620057ba57918102915b93841c93908002906200578c565b509250929050565b600082620057e15750600162000ee3565b81620057f05750600062000ee3565b8160018114620058095760028114620058145762005834565b600191505062000ee3565b60ff84111562005828576200582862005057565b50506001821b62000ee3565b5060208310610133831016604e8410600b841016171562005859575081810a62000ee3565b62005865838362005787565b80600019048211156200587c576200587c62005057565b029392505050565b6000620010758383620057d0565b634e487b7160e01b600052600160045260246000fd5b60006020808385031215620058bc57600080fd5b825167ffffffffffffffff811115620058d457600080fd5b8301601f81018513620058e657600080fd5b8051620058f7620049b6826200496a565b81815260069190911b820183019083810190878311156200591757600080fd5b928401925b82841015620031935760408489031215620059375760008081fd5b6200594162004897565b8451815285850151868201528252604090930192908401906200591c565b634e487b7160e01b600052603260045260246000fd5b60208152600062001075602083018462004736565b80820182811260008312801582168215821617156200324b576200324b6200505756fe608060405234801561001057600080fd5b5060405161081038038061081083398101604081905261002f916100d8565b61003833610088565b600180556001600160a01b0381166100635760405163e6c4247b60e01b815260040160405180910390fd5b600380546001600160a01b0319166001600160a01b0392909216919091179055610108565b600080546001600160a01b038381166001600160a01b0319831681178455604051919092169283917f8be0079c531659141344cd1fd0a4f28419497f9722a3daafe3b4186f6b6457e09190a35050565b6000602082840312156100ea57600080fd5b81516001600160a01b038116811461010157600080fd5b9392505050565b6106f9806101176000396000f3fe6080604052600436106100705760003560e01c80638da5cb5b1161004e5780638da5cb5b146100ea57806399ea56b01461011c578063a8c62e761461013c578063f2fde38b1461015c57600080fd5b8063481fef8a14610075578063715018a61461008a5780638630da1d1461009f575b600080fd5b6100886100833660046105e5565b61017c565b005b34801561009657600080fd5b50610088610236565b3480156100ab57600080fd5b506100d76100ba3660046105e5565b600260209081526000928352604080842090915290825290205481565b6040519081526020015b60405180910390f35b3480156100f657600080fd5b506000546001600160a01b03165b6040516001600160a01b0390911681526020016100e1565b34801561012857600080fd5b50610088610137366004610611565b61024a565b34801561014857600080fd5b50600354610104906001600160a01b031681565b34801561016857600080fd5b50610088610177366004610646565b61041e565b6003546001600160a01b031633146101a75760405163ea8e4eb560e01b815260040160405180910390fd5b6101af6104ae565b60008281526002602090815260408083206001600160a01b0385168452909152812080543492906101e1908490610697565b9091555050604080518381523460208201526001600160a01b038316917feec2f3feb835e2f2fd44281034b04700a1ddda63dd402949d470a25a7c40b36c910160405180910390a261023260018055565b5050565b61023e610507565b6102486000610561565b565b6003546001600160a01b031633146102755760405163ea8e4eb560e01b815260040160405180910390fd5b61027d6104ae565b60008381526002602090815260408083206001600160a01b03861684529091529020548115806102ac57508082115b156102f2576040517fb07e3bc400000000000000000000000000000000000000000000000000000000815260048101839052602481018290526044015b60405180910390fd5b60008481526002602090815260408083206001600160a01b0387168452909152812080548492906103249084906106b0565b90915550506040516000906001600160a01b0385169084908381818185875af1925050503d8060008114610374576040519150601f19603f3d011682016040523d82523d6000602084013e610379565b606091505b50509050806103ca5760405162461bcd60e51b815260206004820152600f60248201527f5472616e73666572206661696c6564000000000000000000000000000000000060448201526064016102e9565b60408051868152602081018590526001600160a01b038616917f7c5e5cb62e5ed3caf3764e4b0afedfedef533e27809d43367799787ad2abcd41910160405180910390a2505061041960018055565b505050565b610426610507565b6001600160a01b0381166104a25760405162461bcd60e51b815260206004820152602660248201527f4f776e61626c653a206e6577206f776e657220697320746865207a65726f206160448201527f646472657373000000000000000000000000000000000000000000000000000060648201526084016102e9565b6104ab81610561565b50565b6002600154036105005760405162461bcd60e51b815260206004820152601f60248201527f5265656e7472616e637947756172643a207265656e7472616e742063616c6c0060448201526064016102e9565b6002600155565b6000546001600160a01b031633146102485760405162461bcd60e51b815260206004820181905260248201527f4f776e61626c653a2063616c6c6572206973206e6f7420746865206f776e657260448201526064016102e9565b600080546001600160a01b038381167fffffffffffffffffffffffff0000000000000000000000000000000000000000831681178455604051919092169283917f8be0079c531659141344cd1fd0a4f28419497f9722a3daafe3b4186f6b6457e09190a35050565b80356001600160a01b03811681146105e057600080fd5b919050565b600080604083850312156105f857600080fd5b82359150610608602084016105c9565b90509250929050565b60008060006060848603121561062657600080fd5b83359250610636602085016105c9565b9150604084013590509250925092565b60006020828403121561065857600080fd5b610661826105c9565b9392505050565b7f4e487b7100000000000000000000000000000000000000000000000000000000600052601160045260246000fd5b808201808211156106aa576106aa610668565b92915050565b818103818111156106aa576106aa61066856fea26469706673582212206997e1ddca68b88ba099150aa2114266982e21b2bb444e334823871214139e7664736f6c63430008130033a264697066735822122051c3370b890d5031cc9ecebd8aeac10af0f295f5bffaa008109956e52e14187c64736f6c63430008130033","linkReferences":{}},"methodIdentifiers":{"D()":"0f529ba2","MAX_STAKED_PROPOSALS()":"406244d8","NATIVE()":"a0cf0aea","RULING_OPTIONS()":"626c47e8","_minThresholdPoints()":"7c6570ba","activatePoints()":"814516ad","allocate(bytes,address)":"ef2920fc","arbitrableConfig()":"1073e996","calculateConviction(uint256,uint256,uint256)":"346db8cb","calculateThreshold(uint256)":"59a5db8b","canExecuteProposal(uint256)":"824ea8ed","collateralVault()":"0bece79c","deactivatePoints()":"1ddf1e23","deactivatePoints(address)":"6453d9c4","decay()":"54fac919","decreasePower(address,uint256)":"2ed04b2b","disputeIdToProposalId(uint256)":"255ffb38","disputeProposal(uint256,string,bytes)":"b41596ec","distribute(address[],bytes,address)":"0a6f0ee9","getAllo()":"15cc481e","getCollateralVault()":"285a722d","getMaxAmount()":"0ba95909","getMaxConviction(uint256)":"950559d7","getMetadata(uint256)":"a574cea4","getPayouts(address[],bytes[])":"b2b878d0","getPointSystem()":"c3292171","getPoolAmount()":"4ab4ba42","getPoolId()":"38fff2d0","getProposal(uint256)":"c7f758a8","getProposalStakedAmount(uint256)":"dc96ff2d","getProposalVoterStake(uint256,address)":"e0dd2c38","getRecipientStatus(address)":"eb11af93","getStrategyId()":"42fda9c7","getTotalVoterStakePct(address)":"bcc5b93b","increasePoolAmount(uint256)":"f5b0dfb7","increasePower(address,uint256)":"782aadff","initialize(uint256,bytes)":"edd146cc","isPoolActive()":"df868ed3","isValidAllocator(address)":"4d31d087","maxRatio()":"76365af7","pointConfig()":"a47ff7e5","pointSystem()":"2dbd6fdd","proposalCounter()":"0c0512e9","proposalType()":"351d9f96","proposals(uint256)":"013cf08b","registerRecipient(bytes,address)":"2bbe0cae","registryCommunity()":"6003e414","rule(uint256,uint256)":"311a6c56","setCollateralVault(address)":"68a806c4","setDecay(uint256)":"69fa25c4","setMaxRatio(uint256)":"11f22ae3","setMinThresholdPoints(uint256)":"2cefadbb","setPoolActive(bool)":"b5f620ce","setRegistryCommunity(address)":"058aca44","setWeight(uint256)":"fc1711f2","supportProposal((uint256,int256)[])":"e33add93","supportsInterface(bytes4)":"01ffc9a7","totalEffectiveActivePoints()":"d1e36232","totalPointsActivated()":"aba9ffee","totalStaked()":"817b1cd2","totalVoterStakePct(address)":"5db64b99","updateProposalConviction(uint256)":"1aa91a9e","voterStakedProposals(address,uint256)":"868c57b8","weight()":"a1aab33f"},"id":109}