{"abi":[{"type":"constructor","inputs":[{"name":"_allo","type":"address","internalType":"address"}],"stateMutability":"nonpayable"},{"type":"fallback","stateMutability":"payable"},{"type":"receive","stateMutability":"payable"},{"type":"function","name":"D","inputs":[],"outputs":[{"name":"","type":"uint256","internalType":"uint256"}],"stateMutability":"view"},{"type":"function","name":"MAX_STAKED_PROPOSALS","inputs":[],"outputs":[{"name":"","type":"uint256","internalType":"uint256"}],"stateMutability":"view"},{"type":"function","name":"NATIVE","inputs":[],"outputs":[{"name":"","type":"address","internalType":"address"}],"stateMutability":"view"},{"type":"function","name":"activatePoints","inputs":[],"outputs":[],"stateMutability":"nonpayable"},{"type":"function","name":"allocate","inputs":[{"name":"_data","type":"bytes","internalType":"bytes"},{"name":"_sender","type":"address","internalType":"address"}],"outputs":[],"stateMutability":"payable"},{"type":"function","name":"calculateConviction","inputs":[{"name":"_timePassed","type":"uint256","internalType":"uint256"},{"name":"_lastConv","type":"uint256","internalType":"uint256"},{"name":"_oldAmount","type":"uint256","internalType":"uint256"}],"outputs":[{"name":"","type":"uint256","internalType":"uint256"}],"stateMutability":"view"},{"type":"function","name":"calculateThreshold","inputs":[{"name":"_requestedAmount","type":"uint256","internalType":"uint256"}],"outputs":[{"name":"_threshold","type":"uint256","internalType":"uint256"}],"stateMutability":"view"},{"type":"function","name":"deactivatePoints","inputs":[],"outputs":[],"stateMutability":"nonpayable"},{"type":"function","name":"decay","inputs":[],"outputs":[{"name":"","type":"uint256","internalType":"uint256"}],"stateMutability":"view"},{"type":"function","name":"distribute","inputs":[{"name":"_recipientIds","type":"address[]","internalType":"address[]"},{"name":"_data","type":"bytes","internalType":"bytes"},{"name":"_sender","type":"address","internalType":"address"}],"outputs":[],"stateMutability":"nonpayable"},{"type":"function","name":"getAllo","inputs":[],"outputs":[{"name":"","type":"address","internalType":"contract IAllo"}],"stateMutability":"view"},{"type":"function","name":"getMaxConviction","inputs":[{"name":"amount","type":"uint256","internalType":"uint256"}],"outputs":[{"name":"","type":"uint256","internalType":"uint256"}],"stateMutability":"view"},{"type":"function","name":"getMetadata","inputs":[{"name":"_proposalId","type":"uint256","internalType":"uint256"}],"outputs":[{"name":"","type":"tuple","internalType":"struct Metadata","components":[{"name":"protocol","type":"uint256","internalType":"uint256"},{"name":"pointer","type":"string","internalType":"string"}]}],"stateMutability":"view"},{"type":"function","name":"getPayouts","inputs":[{"name":"","type":"address[]","internalType":"address[]"},{"name":"","type":"bytes[]","internalType":"bytes[]"}],"outputs":[{"name":"","type":"tuple[]","internalType":"struct IStrategy.PayoutSummary[]","components":[{"name":"recipientAddress","type":"address","internalType":"address"},{"name":"amount","type":"uint256","internalType":"uint256"}]}],"stateMutability":"view"},{"type":"function","name":"getPoolAmount","inputs":[],"outputs":[{"name":"","type":"uint256","internalType":"uint256"}],"stateMutability":"view"},{"type":"function","name":"getPoolId","inputs":[],"outputs":[{"name":"","type":"uint256","internalType":"uint256"}],"stateMutability":"view"},{"type":"function","name":"getProposal","inputs":[{"name":"_proposalId","type":"uint256","internalType":"uint256"}],"outputs":[{"name":"submitter","type":"address","internalType":"address"},{"name":"beneficiary","type":"address","internalType":"address"},{"name":"requestedToken","type":"address","internalType":"address"},{"name":"requestedAmount","type":"uint256","internalType":"uint256"},{"name":"stakedTokens","type":"uint256","internalType":"uint256"},{"name":"proposalType","type":"uint8","internalType":"enum CVStrategy.ProposalType"},{"name":"proposalStatus","type":"uint8","internalType":"enum CVStrategy.ProposalStatus"},{"name":"blockLast","type":"uint256","internalType":"uint256"},{"name":"convictionLast","type":"uint256","internalType":"uint256"},{"name":"agreementActionId","type":"uint256","internalType":"uint256"},{"name":"threshold","type":"uint256","internalType":"uint256"},{"name":"voterStakedPointsPct","type":"uint256","internalType":"uint256"}],"stateMutability":"view"},{"type":"function","name":"getProposalAgreementActionId","inputs":[{"name":"_proposalId","type":"uint256","internalType":"uint256"}],"outputs":[{"name":"","type":"uint256","internalType":"uint256"}],"stateMutability":"view"},{"type":"function","name":"getProposalBeneficiary","inputs":[{"name":"_proposalId","type":"uint256","internalType":"uint256"}],"outputs":[{"name":"","type":"address","internalType":"address"}],"stateMutability":"view"},{"type":"function","name":"getProposalBlockLast","inputs":[{"name":"_proposalId","type":"uint256","internalType":"uint256"}],"outputs":[{"name":"","type":"uint256","internalType":"uint256"}],"stateMutability":"view"},{"type":"function","name":"getProposalConvictionLast","inputs":[{"name":"_proposalId","type":"uint256","internalType":"uint256"}],"outputs":[{"name":"","type":"uint256","internalType":"uint256"}],"stateMutability":"view"},{"type":"function","name":"getProposalRequestedAmount","inputs":[{"name":"_proposalId","type":"uint256","internalType":"uint256"}],"outputs":[{"name":"","type":"uint256","internalType":"uint256"}],"stateMutability":"view"},{"type":"function","name":"getProposalRequestedToken","inputs":[{"name":"_proposalId","type":"uint256","internalType":"uint256"}],"outputs":[{"name":"","type":"address","internalType":"address"}],"stateMutability":"view"},{"type":"function","name":"getProposalStakedAmount","inputs":[{"name":"_proposalId","type":"uint256","internalType":"uint256"}],"outputs":[{"name":"","type":"uint256","internalType":"uint256"}],"stateMutability":"view"},{"type":"function","name":"getProposalStatus","inputs":[{"name":"_proposalId","type":"uint256","internalType":"uint256"}],"outputs":[{"name":"","type":"uint8","internalType":"enum CVStrategy.ProposalStatus"}],"stateMutability":"view"},{"type":"function","name":"getProposalSubmitter","inputs":[{"name":"_proposalId","type":"uint256","internalType":"uint256"}],"outputs":[{"name":"","type":"address","internalType":"address"}],"stateMutability":"view"},{"type":"function","name":"getProposalThreshold","inputs":[{"name":"_proposalId","type":"uint256","internalType":"uint256"}],"outputs":[{"name":"","type":"uint256","internalType":"uint256"}],"stateMutability":"view"},{"type":"function","name":"getProposalType","inputs":[{"name":"_proposalId","type":"uint256","internalType":"uint256"}],"outputs":[{"name":"","type":"uint8","internalType":"enum CVStrategy.ProposalType"}],"stateMutability":"view"},{"type":"function","name":"getProposalVoterStake","inputs":[{"name":"_proposalId","type":"uint256","internalType":"uint256"},{"name":"_voter","type":"address","internalType":"address"}],"outputs":[{"name":"","type":"uint256","internalType":"uint256"}],"stateMutability":"view"},{"type":"function","name":"getProposalVoterStakedAmount","inputs":[{"name":"_proposalId","type":"uint256","internalType":"uint256"},{"name":"_voter","type":"address","internalType":"address"}],"outputs":[{"name":"","type":"uint256","internalType":"uint256"}],"stateMutability":"view"},{"type":"function","name":"getProposalVoterStakedPointsPct","inputs":[{"name":"_proposalId","type":"uint256","internalType":"uint256"},{"name":"_voter","type":"address","internalType":"address"}],"outputs":[{"name":"","type":"uint256","internalType":"uint256"}],"stateMutability":"view"},{"type":"function","name":"getRecipientStatus","inputs":[{"name":"_recipientId","type":"address","internalType":"address"}],"outputs":[{"name":"","type":"uint8","internalType":"enum IStrategy.Status"}],"stateMutability":"view"},{"type":"function","name":"getStrategyId","inputs":[],"outputs":[{"name":"","type":"bytes32","internalType":"bytes32"}],"stateMutability":"view"},{"type":"function","name":"getTotalVoterStakePct","inputs":[{"name":"_voter","type":"address","internalType":"address"}],"outputs":[{"name":"","type":"uint256","internalType":"uint256"}],"stateMutability":"view"},{"type":"function","name":"increasePoolAmount","inputs":[{"name":"_amount","type":"uint256","internalType":"uint256"}],"outputs":[],"stateMutability":"nonpayable"},{"type":"function","name":"initialize","inputs":[{"name":"_poolId","type":"uint256","internalType":"uint256"},{"name":"_data","type":"bytes","internalType":"bytes"}],"outputs":[],"stateMutability":"nonpayable"},{"type":"function","name":"isPoolActive","inputs":[],"outputs":[{"name":"","type":"bool","internalType":"bool"}],"stateMutability":"view"},{"type":"function","name":"isValidAllocator","inputs":[{"name":"_allocator","type":"address","internalType":"address"}],"outputs":[{"name":"","type":"bool","internalType":"bool"}],"stateMutability":"view"},{"type":"function","name":"maxRatio","inputs":[],"outputs":[{"name":"","type":"uint256","internalType":"uint256"}],"stateMutability":"view"},{"type":"function","name":"minPointsActivated","inputs":[],"outputs":[{"name":"","type":"uint256","internalType":"uint256"}],"stateMutability":"view"},{"type":"function","name":"proposalCounter","inputs":[],"outputs":[{"name":"","type":"uint256","internalType":"uint256"}],"stateMutability":"view"},{"type":"function","name":"proposals","inputs":[{"name":"","type":"uint256","internalType":"uint256"}],"outputs":[{"name":"proposalId","type":"uint256","internalType":"uint256"},{"name":"requestedAmount","type":"uint256","internalType":"uint256"},{"name":"stakedAmount","type":"uint256","internalType":"uint256"},{"name":"convictionLast","type":"uint256","internalType":"uint256"},{"name":"agreementActionId","type":"uint256","internalType":"uint256"},{"name":"beneficiary","type":"address","internalType":"address"},{"name":"submitter","type":"address","internalType":"address"},{"name":"requestedToken","type":"address","internalType":"address"},{"name":"blockLast","type":"uint256","internalType":"uint256"},{"name":"proposalStatus","type":"uint8","internalType":"enum CVStrategy.ProposalStatus"},{"name":"proposalType","type":"uint8","internalType":"enum CVStrategy.ProposalType"},{"name":"metadata","type":"tuple","internalType":"struct Metadata","components":[{"name":"protocol","type":"uint256","internalType":"uint256"},{"name":"pointer","type":"string","internalType":"string"}]}],"stateMutability":"view"},{"type":"function","name":"registerRecipient","inputs":[{"name":"_data","type":"bytes","internalType":"bytes"},{"name":"_sender","type":"address","internalType":"address"}],"outputs":[{"name":"recipientId","type":"address","internalType":"address"}],"stateMutability":"payable"},{"type":"function","name":"registryCommunity","inputs":[],"outputs":[{"name":"","type":"address","internalType":"contract RegistryCommunity"}],"stateMutability":"view"},{"type":"function","name":"setDecay","inputs":[{"name":"_decay","type":"uint256","internalType":"uint256"}],"outputs":[],"stateMutability":"nonpayable"},{"type":"function","name":"setMaxRatio","inputs":[{"name":"_maxRatio","type":"uint256","internalType":"uint256"}],"outputs":[],"stateMutability":"nonpayable"},{"type":"function","name":"setPoolActive","inputs":[{"name":"_active","type":"bool","internalType":"bool"}],"outputs":[],"stateMutability":"nonpayable"},{"type":"function","name":"setRegistryCommunity","inputs":[{"name":"_registryCommunity","type":"address","internalType":"address"}],"outputs":[],"stateMutability":"nonpayable"},{"type":"function","name":"setWeight","inputs":[{"name":"_weight","type":"uint256","internalType":"uint256"}],"outputs":[],"stateMutability":"nonpayable"},{"type":"function","name":"supportProposal","inputs":[{"name":"","type":"tuple[]","internalType":"struct CVStrategy.ProposalSupport[]","components":[{"name":"proposalId","type":"uint256","internalType":"uint256"},{"name":"deltaSupport","type":"int256","internalType":"int256"}]}],"outputs":[],"stateMutability":"nonpayable"},{"type":"function","name":"totalEffectiveActivePoints","inputs":[],"outputs":[{"name":"","type":"uint256","internalType":"uint256"}],"stateMutability":"view"},{"type":"function","name":"totalStaked","inputs":[],"outputs":[{"name":"","type":"uint256","internalType":"uint256"}],"stateMutability":"view"},{"type":"function","name":"totalVoterStakePct","inputs":[{"name":"","type":"address","internalType":"address"}],"outputs":[{"name":"","type":"uint256","internalType":"uint256"}],"stateMutability":"view"},{"type":"function","name":"updateProposalConviction","inputs":[{"name":"proposalId","type":"uint256","internalType":"uint256"}],"outputs":[{"name":"","type":"uint256","internalType":"uint256"}],"stateMutability":"nonpayable"},{"type":"function","name":"voterStakedProposals","inputs":[{"name":"","type":"address","internalType":"address"},{"name":"","type":"uint256","internalType":"uint256"}],"outputs":[{"name":"","type":"uint256","internalType":"uint256"}],"stateMutability":"view"},{"type":"function","name":"weight","inputs":[],"outputs":[{"name":"","type":"uint256","internalType":"uint256"}],"stateMutability":"view"},{"type":"function","name":"withdraw","inputs":[{"name":"_member","type":"address","internalType":"address"}],"outputs":[],"stateMutability":"nonpayable"},{"type":"event","name":"Allocated","inputs":[{"name":"recipientId","type":"address","indexed":true,"internalType":"address"},{"name":"amount","type":"uint256","indexed":false,"internalType":"uint256"},{"name":"token","type":"address","indexed":false,"internalType":"address"},{"name":"sender","type":"address","indexed":false,"internalType":"address"}],"anonymous":false},{"type":"event","name":"Distributed","inputs":[{"name":"proposalId","type":"uint256","indexed":false,"internalType":"uint256"},{"name":"beneficiary","type":"address","indexed":false,"internalType":"address"},{"name":"amount","type":"uint256","indexed":false,"internalType":"uint256"}],"anonymous":false},{"type":"event","name":"Distributed","inputs":[{"name":"recipientId","type":"address","indexed":true,"internalType":"address"},{"name":"recipientAddress","type":"address","indexed":false,"internalType":"address"},{"name":"amount","type":"uint256","indexed":false,"internalType":"uint256"},{"name":"sender","type":"address","indexed":false,"internalType":"address"}],"anonymous":false},{"type":"event","name":"Initialized","inputs":[{"name":"poolId","type":"uint256","indexed":false,"internalType":"uint256"},{"name":"data","type":"bytes","indexed":false,"internalType":"bytes"}],"anonymous":false},{"type":"event","name":"InitializedCV","inputs":[{"name":"poolId","type":"uint256","indexed":false,"internalType":"uint256"},{"name":"data","type":"tuple","indexed":false,"internalType":"struct CVStrategy.InitializeParams","components":[{"name":"registryCommunity","type":"address","internalType":"address"},{"name":"decay","type":"uint256","internalType":"uint256"},{"name":"maxRatio","type":"uint256","internalType":"uint256"},{"name":"weight","type":"uint256","internalType":"uint256"}]}],"anonymous":false},{"type":"event","name":"PoolActive","inputs":[{"name":"active","type":"bool","indexed":false,"internalType":"bool"}],"anonymous":false},{"type":"event","name":"ProposalCreated","inputs":[{"name":"poolId","type":"uint256","indexed":false,"internalType":"uint256"},{"name":"proposalId","type":"uint256","indexed":false,"internalType":"uint256"}],"anonymous":false},{"type":"event","name":"Registered","inputs":[{"name":"recipientId","type":"address","indexed":true,"internalType":"address"},{"name":"data","type":"bytes","indexed":false,"internalType":"bytes"},{"name":"sender","type":"address","indexed":false,"internalType":"address"}],"anonymous":false},{"type":"error","name":"ALLOCATION_ACTIVE","inputs":[]},{"type":"error","name":"ALLOCATION_NOT_ACTIVE","inputs":[]},{"type":"error","name":"ALLOCATION_NOT_ENDED","inputs":[]},{"type":"error","name":"ALREADY_INITIALIZED","inputs":[]},{"type":"error","name":"AMOUNT_MISMATCH","inputs":[]},{"type":"error","name":"ANCHOR_ERROR","inputs":[]},{"type":"error","name":"ARRAY_MISMATCH","inputs":[]},{"type":"error","name":"AddressCannotBeZero","inputs":[]},{"type":"error","name":"AmountOverMaxRatio","inputs":[]},{"type":"error","name":"INVALID","inputs":[]},{"type":"error","name":"INVALID_ADDRESS","inputs":[]},{"type":"error","name":"INVALID_FEE","inputs":[]},{"type":"error","name":"INVALID_METADATA","inputs":[]},{"type":"error","name":"INVALID_REGISTRATION","inputs":[]},{"type":"error","name":"IS_APPROVED_STRATEGY","inputs":[]},{"type":"error","name":"MISMATCH","inputs":[]},{"type":"error","name":"NONCE_NOT_AVAILABLE","inputs":[]},{"type":"error","name":"NOT_APPROVED_STRATEGY","inputs":[]},{"type":"error","name":"NOT_ENOUGH_FUNDS","inputs":[]},{"type":"error","name":"NOT_IMPLEMENTED","inputs":[]},{"type":"error","name":"NOT_INITIALIZED","inputs":[]},{"type":"error","name":"NOT_PENDING_OWNER","inputs":[]},{"type":"error","name":"NotEnoughPointsToSupport","inputs":[{"name":"pointsSupport","type":"uint256","internalType":"uint256"},{"name":"pointsBalance","type":"uint256","internalType":"uint256"}]},{"type":"error","name":"NotImplemented","inputs":[]},{"type":"error","name":"POOL_ACTIVE","inputs":[]},{"type":"error","name":"POOL_INACTIVE","inputs":[]},{"type":"error","name":"PoolIdCannotBeZero","inputs":[]},{"type":"error","name":"PoolIsEmpty","inputs":[]},{"type":"error","name":"ProposalDataIsEmpty","inputs":[]},{"type":"error","name":"ProposalIdAlreadyExist","inputs":[{"name":"_proposalId","type":"uint256","internalType":"uint256"}]},{"type":"error","name":"ProposalIdCannotBeZero","inputs":[]},{"type":"error","name":"ProposalNotActive","inputs":[{"name":"_proposalId","type":"uint256","internalType":"uint256"}]},{"type":"error","name":"ProposalNotInList","inputs":[{"name":"_proposalId","type":"uint256","internalType":"uint256"}]},{"type":"error","name":"ProposalSupportDuplicated","inputs":[{"name":"_proposalId","type":"uint256","internalType":"uint256"},{"name":"index","type":"uint256","internalType":"uint256"}]},{"type":"error","name":"RECIPIENT_ALREADY_ACCEPTED","inputs":[]},{"type":"error","name":"RECIPIENT_ERROR","inputs":[{"name":"recipientId","type":"address","internalType":"address"}]},{"type":"error","name":"RECIPIENT_NOT_ACCEPTED","inputs":[]},{"type":"error","name":"REGISTRATION_NOT_ACTIVE","inputs":[]},{"type":"error","name":"RegistryCannotBeZero","inputs":[]},{"type":"error","name":"SupportUnderflow","inputs":[{"name":"_support","type":"uint256","internalType":"uint256"},{"name":"_delta","type":"int256","internalType":"int256"},{"name":"_result","type":"int256","internalType":"int256"}]},{"type":"error","name":"TokenCannotBeZero","inputs":[]},{"type":"error","name":"UNAUTHORIZED","inputs":[]},{"type":"error","name":"UserCannotBeZero","inputs":[]},{"type":"error","name":"UserIsInactive","inputs":[]},{"type":"error","name":"UserNotInRegistry","inputs":[]},{"type":"error","name":"ZERO_ADDRESS","inputs":[]}],"bytecode":{"object":"0x60c06040526103e8600d553480156200001757600080fd5b5060405162003bd138038062003bd18339810160408190526200003a91620000a2565b604080518082018252600a8152694356537472617465677960b01b6020808301919091526001600160a01b038416608052915183926200007d91839101620000d4565b60408051601f19818403018152919052805160209091012060a0525062000124915050565b600060208284031215620000b557600080fd5b81516001600160a01b0381168114620000cd57600080fd5b9392505050565b600060208083528351808285015260005b818110156200010357858101830151858201604001528201620000e5565b506000604082860101526040601f19601f8301168501019250505092915050565b60805160a051613a726200015f60003960006105c10152600081816104a8015281816118fc0152818161198f0152611b5d0152613a726000f3fe60806040526004361061037a5760003560e01c8063817b1cd2116101d1578063d1e3623211610102578063edd146cc116100a0578063f96e3b4c1161006f578063f96e3b4c14610b60578063fc1711f214610ba7578063fcdf3be114610bc7578063fe87876414610bf757610395565b8063edd146cc14610add578063ef2920fc14610afd578063f5b0dfb714610b10578063f8b18c4b14610b3057610395565b8063df868ed3116100dc578063df868ed314610a58578063e0dd2c3814610a70578063e33add9314610a90578063eb11af9314610ab057610395565b8063d1e36232146109ce578063d978ffba146109e3578063dc96ff2d14610a2857610395565b8063a574cea41161016f578063b5f620ce11610149578063b5f620ce14610920578063bcc5b93b14610940578063c7f758a814610976578063d1045aa9146109ae57610395565b8063a574cea41461088c578063a656985d146108b9578063b2b878d0146108f357610395565b80639a1df745116101ab5780639a1df745146107e55780639e209ea01461081e578063a0cf0aea1461084e578063a1aab33f1461087657610395565b8063817b1cd21461078f578063868c57b8146107a5578063950559d7146107c557610395565b8063406244d8116102ab57806359a5db8b1161024957806369fa25c41161022357806369fa25c41461071457806376365af7146107345780637c97eede1461074a578063814516ad1461077a57610395565b806359a5db8b146106a75780635db64b99146106c75780636003e414146106f457610395565b80634d31d087116102855780634d31d087146105fa5780635037fed61461062a57806351cff8d91461067157806354fac9191461069157610395565b8063406244d81461059d57806342fda9c7146105b25780634ab4ba42146105e557610395565b806315cc481e116103185780632bbe0cae116102f25780632bbe0cae14610515578063346db8cb1461052857806338fff2d014610548578063401853b71461055d57610395565b806315cc481e146104995780631aa91a9e146104e05780631ddf1e231461050057610395565b80630a6f0ee9116103545780630a6f0ee91461042c5780630c0512e91461044c5780630f529ba21461046257806311f22ae31461047957610395565b8063013cf08b146103a5578063058aca44146103e657806305d191751461040857610395565b36610395576003805490600061038f83612ce0565b91905055005b6003805490600061038f83612ce0565b3480156103b157600080fd5b506103c56103c0366004612cf9565b610c30565b6040516103dd9c9b9a99989796959493929190612dc3565b60405180910390f35b3480156103f257600080fd5b50610406610401366004612e62565b610d4a565b005b34801561041457600080fd5b5061041e600d5481565b6040519081526020016103dd565b34801561043857600080fd5b50610406610447366004613046565b610d84565b34801561045857600080fd5b5061041e600b5481565b34801561046e57600080fd5b5061041e6298968081565b34801561048557600080fd5b50610406610494366004612cf9565b610da4565b3480156104a557600080fd5b507f00000000000000000000000000000000000000000000000000000000000000005b6040516001600160a01b0390911681526020016103dd565b3480156104ec57600080fd5b5061041e6104fb366004612cf9565b610db4565b34801561050c57600080fd5b50610406610e3f565b6104c86105233660046130be565b610f33565b34801561053457600080fd5b5061041e610543366004613110565b610f58565b34801561055457600080fd5b5060015461041e565b34801561056957600080fd5b50610590610578366004612cf9565b60009081526005602052604090206009015460ff1690565b6040516103dd919061313c565b3480156105a957600080fd5b5061041e600a81565b3480156105be57600080fd5b507f000000000000000000000000000000000000000000000000000000000000000061041e565b3480156105f157600080fd5b5060025461041e565b34801561060657600080fd5b5061061a610615366004612e62565b610ffd565b60405190151581526020016103dd565b34801561063657600080fd5b5061041e61064536600461314a565b60008281526005602090815260408083206001600160a01b0385168452600a0190915290205492915050565b34801561067d57600080fd5b5061040661068c366004612e62565b611008565b34801561069d57600080fd5b5061041e60085481565b3480156106b357600080fd5b5061041e6106c2366004612cf9565b611137565b3480156106d357600080fd5b5061041e6106e2366004612e62565b60066020526000908152604090205481565b34801561070057600080fd5b506004546104c8906001600160a01b031681565b34801561072057600080fd5b5061040661072f366004612cf9565b6112d3565b34801561074057600080fd5b5061041e60095481565b34801561075657600080fd5b5061041e610765366004612cf9565b60009081526005602052604090206001015490565b34801561078657600080fd5b506104066112e3565b34801561079b57600080fd5b5061041e600c5481565b3480156107b157600080fd5b5061041e6107c036600461316f565b611334565b3480156107d157600080fd5b5061041e6107e0366004612cf9565b611365565b3480156107f157600080fd5b506104c8610800366004612cf9565b6000908152600560205260409020600701546001600160a01b031690565b34801561082a57600080fd5b5061041e610839366004612cf9565b60009081526005602052604090206004015490565b34801561085a57600080fd5b506104c873eeeeeeeeeeeeeeeeeeeeeeeeeeeeeeeeeeeeeeee81565b34801561088257600080fd5b5061041e600a5481565b34801561089857600080fd5b506108ac6108a7366004612cf9565b61138f565b6040516103dd919061319b565b3480156108c557600080fd5b506104c86108d4366004612cf9565b600090815260056020819052604090912001546001600160a01b031690565b3480156108ff57600080fd5b5061091361090e3660046131ae565b61146e565b6040516103dd9190613283565b34801561092c57600080fd5b5061040661093b3660046132e9565b611489565b34801561094c57600080fd5b5061041e61095b366004612e62565b6001600160a01b031660009081526006602052604090205490565b34801561098257600080fd5b50610996610991366004612cf9565b611495565b6040516103dd9c9b9a99989796959493929190613306565b3480156109ba57600080fd5b5061041e6109c9366004612cf9565b6115b7565b3480156109da57600080fd5b5061041e6115eb565b3480156109ef57600080fd5b50610a1b6109fe366004612cf9565b600090815260056020526040902060090154610100900460ff1690565b6040516103dd9190613381565b348015610a3457600080fd5b5061041e610a43366004612cf9565b60009081526005602052604090206002015490565b348015610a6457600080fd5b5060005460ff1661061a565b348015610a7c57600080fd5b5061041e610a8b36600461314a565b611716565b348015610a9c57600080fd5b50610406610aab36600461338f565b611741565b348015610abc57600080fd5b50610ad0610acb366004612e62565b61176f565b6040516103dd9190613445565b348015610ae957600080fd5b50610406610af836600461345f565b61177a565b610406610b0b3660046130be565b611864565b348015610b1c57600080fd5b50610406610b2b366004612cf9565b611882565b348015610b3c57600080fd5b5061041e610b4b366004612cf9565b60009081526005602052604090206008015490565b348015610b6c57600080fd5b5061041e610b7b36600461314a565b60008281526005602090815260408083206001600160a01b0385168452600b0190915290205492915050565b348015610bb357600080fd5b50610406610bc2366004612cf9565b6118a9565b348015610bd357600080fd5b5061041e610be2366004612cf9565b60009081526005602052604090206003015490565b348015610c0357600080fd5b506104c8610c12366004612cf9565b6000908152600560205260409020600601546001600160a01b031690565b600560208181526000928352604092839020805460018201546002830154600384015460048501549685015460068601546007870154600888015460098901548c51808e01909d52600c8a0180548e52600d8b0180549a9e999d989c979b989a6001600160a01b039788169a968816999590971697939660ff8085169761010090950416959484019190610cc3906134a6565b80601f0160208091040260200160405190810160405280929190818152602001828054610cef906134a6565b8015610d3c5780601f10610d1157610100808354040283529160200191610d3c565b820191906000526020600020905b815481529060010190602001808311610d1f57829003601f168201915b50505050508152505090508c565b33610d54816118b9565b506004805473ffffffffffffffffffffffffffffffffffffffff19166001600160a01b0392909216919091179055565b610d8c611984565b610d946119cf565b610d9f838383611a0b565b505050565b33610dae816118b9565b50600955565b600081815260056020526040812080548314610deb5760405163c1d17bef60e01b8152600481018490526024015b60405180910390fd5b6001600982015460ff166004811115610e0657610e06612d12565b14610e27576040516344980d8f60e01b815260048101849052602401610de2565b610e35818260020154611c59565b6003015492915050565b600480546040517f22bcf999000000000000000000000000000000000000000000000000000000008152339281018390523060248201526001600160a01b03909116906322bcf99990604401600060405180830381600087803b158015610ea557600080fd5b505af1158015610eb9573d6000803e3d6000fd5b50506040517f51cff8d90000000000000000000000000000000000000000000000000000000081526001600160a01b03841660048201523092506351cff8d991506024015b600060405180830381600087803b158015610f1857600080fd5b505af1158015610f2c573d6000803e3d6000fd5b5050505050565b6000610f3d611984565b610f456119cf565b610f4f8383611cb4565b90505b92915050565b6000808490506000610f7e629896806080600854901b610f7891906134e0565b83611f5a565b905060806f8000000000000000000000000000000060085462989680610fa49190613502565b610fb284600160801b613502565b610fbf6298968089613515565b610fc99190613515565b610fd391906134e0565b610fdd8885613515565b610fe7919061352c565b610ff1919061352c565b901c9695505050505050565b6000610f5282612003565b6001600160a01b03811660009081526007602090815260408083208054825181850281018501909352808352919290919083018282801561106857602002820191906000526020600020905b815481526020019060010190808311611054575b5050505050905060005b8151811015610d9f57600082828151811061108f5761108f61353f565b6020026020010151905060006005600083815260200190815260200160002090506110b982612023565b15611122576001600160a01b0385166000908152600b820160209081526040808320805490849055600a8501909252822082905560028301805491928392611102908490613502565b9250508190555080600c600082825461111b9190613502565b9091555050505b5050808061112f90612ce0565b915050611072565b60008060025411611174576040517fed4421ad00000000000000000000000000000000000000000000000000000000815260040160405180910390fd5b6002546111846298968084613515565b816009546111929190613515565b116111c9576040517f3bf5ca1400000000000000000000000000000000000000000000000000000000815260040160405180910390fd5b6000816111df8568010000000000000000613515565b6111e991906134e0565b62989680600954680100000000000000006112049190613515565b61120e91906134e0565b6112189190613502565b90506112606040518060400160405280601a81526020017f746f74616c456666656374697665416374697665506f696e747300000000000081525061125b6115eb565b61205c565b604061126a6115eb565b60085461127a9062989680613502565b62989680604061128a8680613515565b901c629896806080600a54901b6112a191906134e0565b6112ab91906134e0565b6112b59190613515565b6112bf91906134e0565b6112c99190613515565b901c949350505050565b336112dd816118b9565b50600855565b600480546040517f0d4a8b49000000000000000000000000000000000000000000000000000000008152339281018390523060248201526001600160a01b0390911690630d4a8b4990604401610efe565b6007602052816000526040600020818154811061135057600080fd5b90600052602060002001600091509150505481565b6000600854629896806113789190613502565b6113856298968084613515565b610f5291906134e0565b604080518082019091526000815260606020820152600060056000848152602001908152602001600020905080600c01604051806040016040529081600082015481526020016001820180546113e4906134a6565b80601f0160208091040260200160405190810160405280929190818152602001828054611410906134a6565b801561145d5780601f106114325761010080835404028352916020019161145d565b820191906000526020600020905b81548152906001019060200180831161144057829003601f168201915b505050505081525050915050919050565b606060405163d623472560e01b815260040160405180910390fd5b611492816120cf565b50565b6000806000806000806000806000806000806000600560008f8152602001908152602001600020905080600101546000146114dc576114d78160010154611137565b6114df565b60005b92508060060160009054906101000a90046001600160a01b03168160050160009054906101000a90046001600160a01b03168260070160009054906101000a90046001600160a01b0316836001015484600201548560090160019054906101000a900460ff168660090160009054906101000a900460ff168760080154886003015489600401548c8b600a016000336001600160a01b03166001600160a01b03168152602001908152602001600020549c509c509c509c509c509c509c509c509c509c509c509c505091939597999b5091939597999b565b60008181526005602052604081206001810154156115e1576115dc8160010154611137565b6115e4565b60005b9392505050565b600480546040517fc19563a7000000000000000000000000000000000000000000000000000000008152309281019290925260009182916001600160a01b03169063c19563a790602401602060405180830381865afa158015611652573d6000803e3d6000fd5b505050506040513d601f19601f820116820180604052508101906116769190613555565b90506116b76040518060400160405280601481526020017f746f74616c506f696e74734163746976617465640000000000000000000000008152508261205c565b6116f86040518060400160405280601281526020017f6d696e506f696e74734163746976617465640000000000000000000000000000815250600d5461205c565b600d54811161170957600d5461170b565b805b91505090565b905090565b60008281526005602090815260408083206001600160a01b0385168452600b01909152812054610f4f565b6003805490600061175183612ce0565b919050555060405163d623472560e01b815260040160405180910390fd5b6000610f5282612116565b61178382612136565b600081806020019051810190611799919061357e565b80519091506001600160a01b03166117c457604051635df4b1ef60e01b815260040160405180910390fd5b80516004805473ffffffffffffffffffffffffffffffffffffffff19166001600160a01b03928316179055602080830180516008556040808501805160095560608087018051600a5583518a815288519097169587019590955292519185019190915251908301525160808201527fe89eb731c5d73696c797f7d61275b234e1d757bd12b935fd8ace57e9591822139060a00160405180910390a1505050565b61186c611984565b6118746119cf565b61187e82826121b7565b5050565b61188a611984565b806002600082825461189c919061352c565b9091555061149290508181565b336118b3816118b9565b50600a55565b6001546040517f29e40d4b00000000000000000000000000000000000000000000000000000000815260048101919091526001600160a01b0382811660248301527f000000000000000000000000000000000000000000000000000000000000000016906329e40d4b90604401602060405180830381865afa158015611943573d6000803e3d6000fd5b505050506040513d601f19601f8201168201806040525081019061196791906135ed565b6114925760405163075fd2b160e01b815260040160405180910390fd5b336001600160a01b037f000000000000000000000000000000000000000000000000000000000000000016146119cd5760405163075fd2b160e01b815260040160405180910390fd5b565b6001546000036119cd576040517f3da3f98c00000000000000000000000000000000000000000000000000000000815260040160405180910390fd5b60038054906000611a1b83612ce0565b91905055506000825111611a5b576040517fc5f7c4c000000000000000000000000000000000000000000000000000000000815260040160405180910390fd5b600082806020019051810190611a719190613555565b905080600003611a945760405163f881a10d60e01b815260040160405180910390fd5b600081815260056020526040902060016009820154610100900460ff166002811115611ac257611ac2612d12565b03610f2c5780548214611aeb5760405163c1d17bef60e01b815260048101839052602401610de2565b6001600982015460ff166004811115611b0657611b06612d12565b14611b27576040516344980d8f60e01b815260048101839052602401610de2565b6001546040517f068bcd8d0000000000000000000000000000000000000000000000000000000081526000916001600160a01b037f0000000000000000000000000000000000000000000000000000000000000000169163068bcd8d91611b949160040190815260200190565b600060405180830381865afa158015611bb1573d6000803e3d6000fd5b505050506040513d6000823e601f3d908101601f19168201604052611bd99190810190613697565b604081015160058401546001850154929350611c00926001600160a01b03909116906123ed565b60058201546001830154604080518681526001600160a01b0390931660208401528201527fa7932e9c92f31e1ed56b29d00bbe669a97484dc24de28dd9c8c0429df7f358479060600160405180910390a1505050505050565b60088201544390811015611c6f57611c6f61374b565b80836008015403611c7f57505050565b6000611c9f846008015483611c949190613502565b856003015485610f58565b60088501929092555060039092019190915550565b6003805460009182611cc583612ce0565b9190505550600083806020019051810190611ce09190613770565b8051909150600003611d055760405163f881a10d60e01b815260040160405180910390fd5b8060200151600003611d43576040517f4e79178600000000000000000000000000000000000000000000000000000000815260040160405180910390fd5b600181606001516002811115611d5b57611d5b612d12565b03611de85760408101516001600160a01b0316611da4576040517fe622e04000000000000000000000000000000000000000000000000000000000815260040160405180910390fd5b60a08101516001600160a01b0316611de8576040517f596a094c00000000000000000000000000000000000000000000000000000000815260040160405180910390fd5b805160009081526005602052604090208151815403611e395781516040517fdf4eff3b0000000000000000000000000000000000000000000000000000000081526004810191909152602401610de2565b815181556006810180546001600160a01b0380871673ffffffffffffffffffffffffffffffffffffffff1992831617909255604084015160058401805491841691831691909117905560a084015160078401805491909316911617905560808201516001820155606082015160098201805461ff001916610100836002811115611ec557611ec5612d12565b021790555060098101805460ff19166001179055436008820155600060038201819055600482015560c08201518051600c83019081556020820151600d840190611f0f908261387c565b505060015483516040805192835260208301919091527ffcf3b1aa65a464cef2889608f99e8b8c0f680a4be6c2acb9d961c536a5a9294b92500160405180910390a150519392505050565b6000600160801b8310611faf5760405162461bcd60e51b815260206004820152601c60248201527f5f612073686f756c64206265206c657373207468616e20325e313238000000006044820152606401610de2565b50600160801b82825b8015611ffb5780600116600003611fdd57611fd38283612432565b915060011c611fb8565b611fe78383612432565b9250611ff4600182613502565b9050611fb8565b505092915050565b60006001600160a01b0382161561201b576001610f52565b600092915050565b60008181526005602052604081205415801590610f525750506000908152600560205260409020600601546001600160a01b0316151590565b61187e828260405160240161207292919061393c565b60408051601f198184030181529190526020810180517bffffffffffffffffffffffffffffffffffffffffffffffffffffffff167f9710a9d000000000000000000000000000000000000000000000000000000000179052612531565b6000805460ff19168215159081179091556040519081527fd94c9bc4d43c51d8dc345a016d8e3d994432fac68e72832e4cf3a616bd8efae09060200160405180910390a150565b60006001600160a01b0382161561212e576002610f52565b600392915050565b61213e611984565b60015415612178576040517f439a74c900000000000000000000000000000000000000000000000000000000815260040160405180910390fd5b806000036121b2576040517f7fcce2a900000000000000000000000000000000000000000000000000000000815260040160405180910390fd5b600155565b806001600160a01b0381166121f8576040517fd1f2828800000000000000000000000000000000000000000000000000000000815260040160405180910390fd5b6004546001600160a01b031661222157604051635df4b1ef60e01b815260040160405180910390fd5b600480546040517fa230c5240000000000000000000000000000000000000000000000000000000081526001600160a01b038481169382019390935291169063a230c52490602401602060405180830381865afa158015612286573d6000803e3d6000fd5b505050506040513d601f19601f820116820180604052508101906122aa91906135ed565b6122e0576040517f6a5cfb6d00000000000000000000000000000000000000000000000000000000815260040160405180910390fd5b600380549060006122f083612ce0565b9091555050600480546040517f477a5cc00000000000000000000000000000000000000000000000000000000081526001600160a01b03858116938201939093523060248201526000929091169063477a5cc090604401602060405180830381865afa158015612364573d6000803e3d6000fd5b505050506040513d601f19601f8201168201806040525081019061238891906135ed565b9050806123c1576040517f5fccb67f00000000000000000000000000000000000000000000000000000000815260040160405180910390fd5b6000848060200190518101906123d7919061395e565b90506123e38482612552565b610f2c8482612760565b7fffffffffffffffffffffffff11111111111111111111111111111111111111126001600160a01b0384160161242757610d9f8282612aef565b610d9f838383612b0b565b6000600160801b8311156124ae5760405162461bcd60e51b815260206004820152602860248201527f5f612073686f756c64206265206c657373207468616e206f7220657175616c2060448201527f746f20325e3132380000000000000000000000000000000000000000000000006064820152608401610de2565b600160801b82106125015760405162461bcd60e51b815260206004820152601c60248201527f5f622073686f756c64206265206c657373207468616e20325e313238000000006044820152606401610de2565b60806f8000000000000000000000000000000061251e8486613515565b612528919061352c565b901c9392505050565b80516a636f6e736f6c652e6c6f67602083016000808483855afa5050505050565b6000805b8251811015612651578281815181106125715761257161353f565b6020026020010151600001516000036125c7576125c26040518060400160405280600f81526020017f70726f706f73616c4964203d3d20300000000000000000000000000000000000815250612b5a565b61263f565b60008382815181106125db576125db61353f565b60200260200101516000015190506125f281612023565b6126125760405163c1d17bef60e01b815260048101829052602401610de2565b8382815181106126245761262461353f565b6020026020010151602001518361263b9190613a09565b9250505b8061264981612ce0565b915050612556565b506001600160a01b0383166000908152600660205260408120546126759083612bcb565b905060006126f8600460009054906101000a90046001600160a01b03166001600160a01b0316630331383c6040518163ffffffff1660e01b8152600401602060405180830381865afa1580156126cf573d6000803e3d6000fd5b505050506040513d601f19601f820116820180604052508101906126f39190613555565b612c26565b90508082111561273e576040517fd64182fe0000000000000000000000000000000000000000000000000000000081526004810183905260248101829052604401610de2565b506001600160a01b039093166000908152600660205260409020929092555050565b606060005b8251811015612ae95760008382815181106127825761278261353f565b602002602001015160000151905082516000036127de57604080516001808252818301909252906020808301908036833701905050925080836000815181106127cd576127cd61353f565b602002602001018181525050612931565b6000805b845181101561285d57828582815181106127fe576127fe61353f565b60200260200101510361284b576040517fadebb154000000000000000000000000000000000000000000000000000000008152600481018490526024810182905260019250604401610de2565b8061285581612ce0565b9150506127e2565b508061292f57600084516001612873919061352c565b67ffffffffffffffff81111561288b5761288b612e7f565b6040519080825280602002602001820160405280156128b4578160200160208202803683370190505b50905060005b855181101561290c578581815181106128d5576128d561353f565b60200260200101518282815181106128ef576128ef61353f565b60209081029190910101528061290481612ce0565b9150506128ba565b5082818651815181106129215761292161353f565b602090810291909101015293505b505b60008483815181106129455761294561353f565b60209081029190910181015181015160008481526005835260408082206001600160a01b038b168352600a8101855281832054600b8201909552908220549294509291906129938386612bcb565b6001600160a01b038b166000908152600a8601602052604081208290559091506129bc82612c3b565b90506129fd6040518060400160405280600c81526020017f7374616b6564416d6f756e7400000000000000000000000000000000000000008152508261205c565b6001600160a01b038b166000908152600b860160205260409020819055808311612a6a57612a2b8382613502565b600c6000828254612a3c919061352c565b90915550612a4c90508382613502565b856002016000828254612a5f919061352c565b90915550612aae9050565b612a748184613502565b600c6000828254612a859190613502565b90915550612a9590508184613502565b856002016000828254612aa89190613502565b90915550505b8460080154600003612ac557436008860155612acf565b612acf8584611c59565b505050505050508080612ae190612ce0565b915050612765565b50505050565b60008060008084865af161187e5763b12d13eb6000526004601cfd5b81601452806034526fa9059cbb00000000000000000000000060005260206000604460106000875af13d156001600051141716612b50576390b8ec186000526004601cfd5b6000603452505050565b61149281604051602401612b6e9190613a29565b60408051601f198184030181529190526020810180517bffffffffffffffffffffffffffffffffffffffffffffffffffffffff167f41304fac00000000000000000000000000000000000000000000000000000000179052612531565b600080612bd88385613a09565b90506000811215610f4f576040517f3bbc7142000000000000000000000000000000000000000000000000000000008152600481018590526024810184905260448101829052606401610de2565b6000612c30612c51565b611385836064613515565b60006064612c47612c51565b6113859084613515565b6000600460009054906101000a90046001600160a01b03166001600160a01b0316630331383c6040518163ffffffff1660e01b8152600401602060405180830381865afa158015612ca6573d6000803e3d6000fd5b505050506040513d601f19601f820116820180604052508101906117119190613555565b634e487b7160e01b600052601160045260246000fd5b600060018201612cf257612cf2612cca565b5060010190565b600060208284031215612d0b57600080fd5b5035919050565b634e487b7160e01b600052602160045260246000fd5b60058110612d3857612d38612d12565b9052565b60038110612d3857612d38612d12565b60005b83811015612d67578181015183820152602001612d4f565b50506000910152565b60008151808452612d88816020860160208601612d4c565b601f01601f19169290920160200192915050565b805182526000602082015160406020850152612dbb6040850182612d70565b949350505050565b60006101808e83528d60208401528c60408401528b60608401528a60808401526001600160a01b03808b1660a0850152808a1660c085015280891660e08501525086610100840152612e19610120840187612d28565b612e27610140840186612d3c565b80610160840152612e3a81840185612d9c565b9f9e505050505050505050505050505050565b6001600160a01b038116811461149257600080fd5b600060208284031215612e7457600080fd5b8135610f4f81612e4d565b634e487b7160e01b600052604160045260246000fd5b6040805190810167ffffffffffffffff81118282101715612eb857612eb8612e7f565b60405290565b60405160c0810167ffffffffffffffff81118282101715612eb857612eb8612e7f565b60405160e0810167ffffffffffffffff81118282101715612eb857612eb8612e7f565b604051601f8201601f1916810167ffffffffffffffff81118282101715612f2d57612f2d612e7f565b604052919050565b600067ffffffffffffffff821115612f4f57612f4f612e7f565b5060051b60200190565b600082601f830112612f6a57600080fd5b81356020612f7f612f7a83612f35565b612f04565b82815260059290921b84018101918181019086841115612f9e57600080fd5b8286015b84811015612fc2578035612fb581612e4d565b8352918301918301612fa2565b509695505050505050565b600067ffffffffffffffff821115612fe757612fe7612e7f565b50601f01601f191660200190565b600082601f83011261300657600080fd5b8135613014612f7a82612fcd565b81815284602083860101111561302957600080fd5b816020850160208301376000918101602001919091529392505050565b60008060006060848603121561305b57600080fd5b833567ffffffffffffffff8082111561307357600080fd5b61307f87838801612f59565b9450602086013591508082111561309557600080fd5b506130a286828701612ff5565b92505060408401356130b381612e4d565b809150509250925092565b600080604083850312156130d157600080fd5b823567ffffffffffffffff8111156130e857600080fd5b6130f485828601612ff5565b925050602083013561310581612e4d565b809150509250929050565b60008060006060848603121561312557600080fd5b505081359360208301359350604090920135919050565b60208101610f528284612d28565b6000806040838503121561315d57600080fd5b82359150602083013561310581612e4d565b6000806040838503121561318257600080fd5b823561318d81612e4d565b946020939093013593505050565b602081526000610f4f6020830184612d9c565b600080604083850312156131c157600080fd5b823567ffffffffffffffff808211156131d957600080fd5b6131e586838701612f59565b93506020915081850135818111156131fc57600080fd5b8501601f8101871361320d57600080fd5b803561321b612f7a82612f35565b81815260059190911b8201840190848101908983111561323a57600080fd5b8584015b83811015613272578035868111156132565760008081fd5b6132648c8983890101612ff5565b84525091860191860161323e565b508096505050505050509250929050565b602080825282518282018190526000919060409081850190868401855b828110156132ce57815180516001600160a01b031685528601518685015292840192908501906001016132a0565b5091979650505050505050565b801515811461149257600080fd5b6000602082840312156132fb57600080fd5b8135610f4f816132db565b6001600160a01b038d811682528c811660208301528b166040820152606081018a905260808101899052610180810161334260a083018a612d3c565b61334f60c0830189612d28565b60e082019690965261010081019490945261012084019290925261014083015261016090910152979650505050505050565b60208101610f528284612d3c565b600060208083850312156133a257600080fd5b823567ffffffffffffffff8111156133b957600080fd5b8301601f810185136133ca57600080fd5b80356133d8612f7a82612f35565b81815260069190911b820183019083810190878311156133f757600080fd5b928401925b8284101561343a57604084890312156134155760008081fd5b61341d612e95565b8435815285850135868201528252604090930192908401906133fc565b979650505050505050565b602081016007831061345957613459612d12565b91905290565b6000806040838503121561347257600080fd5b82359150602083013567ffffffffffffffff81111561349057600080fd5b61349c85828601612ff5565b9150509250929050565b600181811c908216806134ba57607f821691505b6020821081036134da57634e487b7160e01b600052602260045260246000fd5b50919050565b6000826134fd57634e487b7160e01b600052601260045260246000fd5b500490565b81810381811115610f5257610f52612cca565b8082028115828204841417610f5257610f52612cca565b80820180821115610f5257610f52612cca565b634e487b7160e01b600052603260045260246000fd5b60006020828403121561356757600080fd5b5051919050565b805161357981612e4d565b919050565b60006080828403121561359057600080fd5b6040516080810181811067ffffffffffffffff821117156135b3576135b3612e7f565b60405282516135c181612e4d565b808252506020830151602082015260408301516040820152606083015160608201528091505092915050565b6000602082840312156135ff57600080fd5b8151610f4f816132db565b60006040828403121561361c57600080fd5b613624612e95565b905081518152602082015167ffffffffffffffff81111561364457600080fd5b8201601f8101841361365557600080fd5b8051613663612f7a82612fcd565b81815285602083850101111561367857600080fd5b613689826020830160208601612d4c565b602084015250909392505050565b6000602082840312156136a957600080fd5b815167ffffffffffffffff808211156136c157600080fd5b9083019060c082860312156136d557600080fd5b6136dd612ebe565b8251815260208301516136ef81612e4d565b6020820152604083015161370281612e4d565b604082015260608301518281111561371957600080fd5b6137258782860161360a565b6060830152506080830151608082015260a083015160a082015280935050505092915050565b634e487b7160e01b600052600160045260246000fd5b80516003811061357957600080fd5b60006020828403121561378257600080fd5b815167ffffffffffffffff8082111561379a57600080fd5b9083019060e082860312156137ae57600080fd5b6137b6612ee1565b82518152602083015160208201526137d06040840161356e565b60408201526137e160608401613761565b6060820152608083015160808201526137fc60a0840161356e565b60a082015260c08301518281111561381357600080fd5b61381f8782860161360a565b60c08301525095945050505050565b601f821115610d9f57600081815260208120601f850160051c810160208610156138555750805b601f850160051c820191505b8181101561387457828155600101613861565b505050505050565b815167ffffffffffffffff81111561389657613896612e7f565b6138aa816138a484546134a6565b8461382e565b602080601f8311600181146138df57600084156138c75750858301515b600019600386901b1c1916600185901b178555613874565b600085815260208120601f198616915b8281101561390e578886015182559484019460019091019084016138ef565b508582101561392c5787850151600019600388901b60f8161c191681555b5050505050600190811b01905550565b60408152600061394f6040830185612d70565b90508260208301529392505050565b6000602080838503121561397157600080fd5b825167ffffffffffffffff81111561398857600080fd5b8301601f8101851361399957600080fd5b80516139a7612f7a82612f35565b81815260069190911b820183019083810190878311156139c657600080fd5b928401925b8284101561343a57604084890312156139e45760008081fd5b6139ec612e95565b8451815285850151868201528252604090930192908401906139cb565b8082018281126000831280158216821582161715611ffb57611ffb612cca565b602081526000610f4f6020830184612d7056fea2646970667358221220c1a841deddba1a7d9eaa1b5fe099002a530b8e3e530b15cb71e95dcd5a63ae4b64736f6c63430008130033","linkReferences":{}},"methodIdentifiers":{"D()":"0f529ba2","MAX_STAKED_PROPOSALS()":"406244d8","NATIVE()":"a0cf0aea","activatePoints()":"814516ad","allocate(bytes,address)":"ef2920fc","calculateConviction(uint256,uint256,uint256)":"346db8cb","calculateThreshold(uint256)":"59a5db8b","deactivatePoints()":"1ddf1e23","decay()":"54fac919","distribute(address[],bytes,address)":"0a6f0ee9","getAllo()":"15cc481e","getMaxConviction(uint256)":"950559d7","getMetadata(uint256)":"a574cea4","getPayouts(address[],bytes[])":"b2b878d0","getPoolAmount()":"4ab4ba42","getPoolId()":"38fff2d0","getProposal(uint256)":"c7f758a8","getProposalAgreementActionId(uint256)":"9e209ea0","getProposalBeneficiary(uint256)":"a656985d","getProposalBlockLast(uint256)":"f8b18c4b","getProposalConvictionLast(uint256)":"fcdf3be1","getProposalRequestedAmount(uint256)":"7c97eede","getProposalRequestedToken(uint256)":"9a1df745","getProposalStakedAmount(uint256)":"dc96ff2d","getProposalStatus(uint256)":"401853b7","getProposalSubmitter(uint256)":"fe878764","getProposalThreshold(uint256)":"d1045aa9","getProposalType(uint256)":"d978ffba","getProposalVoterStake(uint256,address)":"e0dd2c38","getProposalVoterStakedAmount(uint256,address)":"f96e3b4c","getProposalVoterStakedPointsPct(uint256,address)":"5037fed6","getRecipientStatus(address)":"eb11af93","getStrategyId()":"42fda9c7","getTotalVoterStakePct(address)":"bcc5b93b","increasePoolAmount(uint256)":"f5b0dfb7","initialize(uint256,bytes)":"edd146cc","isPoolActive()":"df868ed3","isValidAllocator(address)":"4d31d087","maxRatio()":"76365af7","minPointsActivated()":"05d19175","proposalCounter()":"0c0512e9","proposals(uint256)":"013cf08b","registerRecipient(bytes,address)":"2bbe0cae","registryCommunity()":"6003e414","setDecay(uint256)":"69fa25c4","setMaxRatio(uint256)":"11f22ae3","setPoolActive(bool)":"b5f620ce","setRegistryCommunity(address)":"058aca44","setWeight(uint256)":"fc1711f2","supportProposal((uint256,int256)[])":"e33add93","totalEffectiveActivePoints()":"d1e36232","totalStaked()":"817b1cd2","totalVoterStakePct(address)":"5db64b99","updateProposalConviction(uint256)":"1aa91a9e","voterStakedProposals(address,uint256)":"868c57b8","weight()":"a1aab33f","withdraw(address)":"51cff8d9"},"id":93}