{"abi":[{"type":"constructor","inputs":[{"name":"_allo","type":"address","internalType":"address"}],"stateMutability":"nonpayable"},{"type":"fallback","stateMutability":"payable"},{"type":"receive","stateMutability":"payable"},{"type":"function","name":"D","inputs":[],"outputs":[{"name":"","type":"uint256","internalType":"uint256"}],"stateMutability":"view"},{"type":"function","name":"MAX_STAKED_PROPOSALS","inputs":[],"outputs":[{"name":"","type":"uint256","internalType":"uint256"}],"stateMutability":"view"},{"type":"function","name":"NATIVE","inputs":[],"outputs":[{"name":"","type":"address","internalType":"address"}],"stateMutability":"view"},{"type":"function","name":"_minThresholdPoints","inputs":[],"outputs":[{"name":"","type":"uint256","internalType":"uint256"}],"stateMutability":"view"},{"type":"function","name":"activatePoints","inputs":[],"outputs":[],"stateMutability":"nonpayable"},{"type":"function","name":"allocate","inputs":[{"name":"_data","type":"bytes","internalType":"bytes"},{"name":"_sender","type":"address","internalType":"address"}],"outputs":[],"stateMutability":"payable"},{"type":"function","name":"calculateConviction","inputs":[{"name":"_timePassed","type":"uint256","internalType":"uint256"},{"name":"_lastConv","type":"uint256","internalType":"uint256"},{"name":"_oldAmount","type":"uint256","internalType":"uint256"}],"outputs":[{"name":"","type":"uint256","internalType":"uint256"}],"stateMutability":"view"},{"type":"function","name":"calculateThreshold","inputs":[{"name":"_requestedAmount","type":"uint256","internalType":"uint256"}],"outputs":[{"name":"_threshold","type":"uint256","internalType":"uint256"}],"stateMutability":"view"},{"type":"function","name":"canExecuteProposal","inputs":[{"name":"proposalId","type":"uint256","internalType":"uint256"}],"outputs":[{"name":"canBeExecuted","type":"bool","internalType":"bool"}],"stateMutability":"view"},{"type":"function","name":"deactivatePoints","inputs":[],"outputs":[],"stateMutability":"nonpayable"},{"type":"function","name":"deactivatePoints","inputs":[{"name":"_member","type":"address","internalType":"address"}],"outputs":[],"stateMutability":"nonpayable"},{"type":"function","name":"decay","inputs":[],"outputs":[{"name":"","type":"uint256","internalType":"uint256"}],"stateMutability":"view"},{"type":"function","name":"decreasePower","inputs":[{"name":"_member","type":"address","internalType":"address"},{"name":"_amountToUnstake","type":"uint256","internalType":"uint256"}],"outputs":[{"name":"","type":"uint256","internalType":"uint256"}],"stateMutability":"nonpayable"},{"type":"function","name":"distribute","inputs":[{"name":"_recipientIds","type":"address[]","internalType":"address[]"},{"name":"_data","type":"bytes","internalType":"bytes"},{"name":"_sender","type":"address","internalType":"address"}],"outputs":[],"stateMutability":"nonpayable"},{"type":"function","name":"getAllo","inputs":[],"outputs":[{"name":"","type":"address","internalType":"contract IAllo"}],"stateMutability":"view"},{"type":"function","name":"getMaxAmount","inputs":[],"outputs":[{"name":"","type":"uint256","internalType":"uint256"}],"stateMutability":"view"},{"type":"function","name":"getMaxConviction","inputs":[{"name":"amount","type":"uint256","internalType":"uint256"}],"outputs":[{"name":"","type":"uint256","internalType":"uint256"}],"stateMutability":"view"},{"type":"function","name":"getMetadata","inputs":[{"name":"_proposalId","type":"uint256","internalType":"uint256"}],"outputs":[{"name":"","type":"tuple","internalType":"struct Metadata","components":[{"name":"protocol","type":"uint256","internalType":"uint256"},{"name":"pointer","type":"string","internalType":"string"}]}],"stateMutability":"view"},{"type":"function","name":"getPayouts","inputs":[{"name":"","type":"address[]","internalType":"address[]"},{"name":"","type":"bytes[]","internalType":"bytes[]"}],"outputs":[{"name":"","type":"tuple[]","internalType":"struct IStrategy.PayoutSummary[]","components":[{"name":"recipientAddress","type":"address","internalType":"address"},{"name":"amount","type":"uint256","internalType":"uint256"}]}],"stateMutability":"pure"},{"type":"function","name":"getPointSystem","inputs":[],"outputs":[{"name":"","type":"uint8","internalType":"enum StrategyStruct.PointSystem"}],"stateMutability":"view"},{"type":"function","name":"getPoolAmount","inputs":[],"outputs":[{"name":"","type":"uint256","internalType":"uint256"}],"stateMutability":"view"},{"type":"function","name":"getPoolId","inputs":[],"outputs":[{"name":"","type":"uint256","internalType":"uint256"}],"stateMutability":"view"},{"type":"function","name":"getProposal","inputs":[{"name":"_proposalId","type":"uint256","internalType":"uint256"}],"outputs":[{"name":"submitter","type":"address","internalType":"address"},{"name":"beneficiary","type":"address","internalType":"address"},{"name":"requestedToken","type":"address","internalType":"address"},{"name":"requestedAmount","type":"uint256","internalType":"uint256"},{"name":"stakedAmount","type":"uint256","internalType":"uint256"},{"name":"proposalStatus","type":"uint8","internalType":"enum StrategyStruct.ProposalStatus"},{"name":"blockLast","type":"uint256","internalType":"uint256"},{"name":"convictionLast","type":"uint256","internalType":"uint256"},{"name":"threshold","type":"uint256","internalType":"uint256"},{"name":"voterStakedPoints","type":"uint256","internalType":"uint256"}],"stateMutability":"view"},{"type":"function","name":"getProposalStakedAmount","inputs":[{"name":"_proposalId","type":"uint256","internalType":"uint256"}],"outputs":[{"name":"","type":"uint256","internalType":"uint256"}],"stateMutability":"view"},{"type":"function","name":"getProposalVoterStake","inputs":[{"name":"_proposalId","type":"uint256","internalType":"uint256"},{"name":"_voter","type":"address","internalType":"address"}],"outputs":[{"name":"","type":"uint256","internalType":"uint256"}],"stateMutability":"view"},{"type":"function","name":"getRecipientStatus","inputs":[{"name":"_recipientId","type":"address","internalType":"address"}],"outputs":[{"name":"","type":"uint8","internalType":"enum IStrategy.Status"}],"stateMutability":"view"},{"type":"function","name":"getStrategyId","inputs":[],"outputs":[{"name":"","type":"bytes32","internalType":"bytes32"}],"stateMutability":"view"},{"type":"function","name":"getTotalVoterStakePct","inputs":[{"name":"_voter","type":"address","internalType":"address"}],"outputs":[{"name":"","type":"uint256","internalType":"uint256"}],"stateMutability":"view"},{"type":"function","name":"increasePoolAmount","inputs":[{"name":"_amount","type":"uint256","internalType":"uint256"}],"outputs":[],"stateMutability":"nonpayable"},{"type":"function","name":"increasePower","inputs":[{"name":"_member","type":"address","internalType":"address"},{"name":"_amountToStake","type":"uint256","internalType":"uint256"}],"outputs":[{"name":"","type":"uint256","internalType":"uint256"}],"stateMutability":"nonpayable"},{"type":"function","name":"initialize","inputs":[{"name":"_poolId","type":"uint256","internalType":"uint256"},{"name":"_data","type":"bytes","internalType":"bytes"}],"outputs":[],"stateMutability":"nonpayable"},{"type":"function","name":"isPoolActive","inputs":[],"outputs":[{"name":"","type":"bool","internalType":"bool"}],"stateMutability":"view"},{"type":"function","name":"isValidAllocator","inputs":[{"name":"_allocator","type":"address","internalType":"address"}],"outputs":[{"name":"","type":"bool","internalType":"bool"}],"stateMutability":"view"},{"type":"function","name":"maxRatio","inputs":[],"outputs":[{"name":"","type":"uint256","internalType":"uint256"}],"stateMutability":"view"},{"type":"function","name":"pointConfig","inputs":[],"outputs":[{"name":"maxAmount","type":"uint256","internalType":"uint256"}],"stateMutability":"view"},{"type":"function","name":"pointSystem","inputs":[],"outputs":[{"name":"","type":"uint8","internalType":"enum StrategyStruct.PointSystem"}],"stateMutability":"view"},{"type":"function","name":"proposalCounter","inputs":[],"outputs":[{"name":"","type":"uint256","internalType":"uint256"}],"stateMutability":"view"},{"type":"function","name":"proposalType","inputs":[],"outputs":[{"name":"","type":"uint8","internalType":"enum StrategyStruct.ProposalType"}],"stateMutability":"view"},{"type":"function","name":"proposals","inputs":[{"name":"","type":"uint256","internalType":"uint256"}],"outputs":[{"name":"proposalId","type":"uint256","internalType":"uint256"},{"name":"requestedAmount","type":"uint256","internalType":"uint256"},{"name":"stakedAmount","type":"uint256","internalType":"uint256"},{"name":"convictionLast","type":"uint256","internalType":"uint256"},{"name":"beneficiary","type":"address","internalType":"address"},{"name":"submitter","type":"address","internalType":"address"},{"name":"requestedToken","type":"address","internalType":"address"},{"name":"blockLast","type":"uint256","internalType":"uint256"},{"name":"proposalStatus","type":"uint8","internalType":"enum StrategyStruct.ProposalStatus"},{"name":"metadata","type":"tuple","internalType":"struct Metadata","components":[{"name":"protocol","type":"uint256","internalType":"uint256"},{"name":"pointer","type":"string","internalType":"string"}]}],"stateMutability":"view"},{"type":"function","name":"registerRecipient","inputs":[{"name":"_data","type":"bytes","internalType":"bytes"},{"name":"_sender","type":"address","internalType":"address"}],"outputs":[{"name":"recipientId","type":"address","internalType":"address"}],"stateMutability":"payable"},{"type":"function","name":"registryCommunity","inputs":[],"outputs":[{"name":"","type":"address","internalType":"contract RegistryCommunity"}],"stateMutability":"view"},{"type":"function","name":"setDecay","inputs":[{"name":"_decay","type":"uint256","internalType":"uint256"}],"outputs":[],"stateMutability":"nonpayable"},{"type":"function","name":"setMaxRatio","inputs":[{"name":"_maxRatio","type":"uint256","internalType":"uint256"}],"outputs":[],"stateMutability":"nonpayable"},{"type":"function","name":"setMinThresholdPoints","inputs":[{"name":"minThresholdPoints_","type":"uint256","internalType":"uint256"}],"outputs":[],"stateMutability":"nonpayable"},{"type":"function","name":"setPoolActive","inputs":[{"name":"_active","type":"bool","internalType":"bool"}],"outputs":[],"stateMutability":"nonpayable"},{"type":"function","name":"setRegistryCommunity","inputs":[{"name":"_registryCommunity","type":"address","internalType":"address"}],"outputs":[],"stateMutability":"nonpayable"},{"type":"function","name":"setWeight","inputs":[{"name":"_weight","type":"uint256","internalType":"uint256"}],"outputs":[],"stateMutability":"nonpayable"},{"type":"function","name":"supportProposal","inputs":[{"name":"","type":"tuple[]","internalType":"struct StrategyStruct.ProposalSupport[]","components":[{"name":"proposalId","type":"uint256","internalType":"uint256"},{"name":"deltaSupport","type":"int256","internalType":"int256"}]}],"outputs":[],"stateMutability":"pure"},{"type":"function","name":"supportsInterface","inputs":[{"name":"interfaceId","type":"bytes4","internalType":"bytes4"}],"outputs":[{"name":"","type":"bool","internalType":"bool"}],"stateMutability":"view"},{"type":"function","name":"totalEffectiveActivePoints","inputs":[],"outputs":[{"name":"","type":"uint256","internalType":"uint256"}],"stateMutability":"view"},{"type":"function","name":"totalPointsActivated","inputs":[],"outputs":[{"name":"","type":"uint256","internalType":"uint256"}],"stateMutability":"view"},{"type":"function","name":"totalStaked","inputs":[],"outputs":[{"name":"","type":"uint256","internalType":"uint256"}],"stateMutability":"view"},{"type":"function","name":"totalVoterStakePct","inputs":[{"name":"","type":"address","internalType":"address"}],"outputs":[{"name":"","type":"uint256","internalType":"uint256"}],"stateMutability":"view"},{"type":"function","name":"updateProposalConviction","inputs":[{"name":"proposalId","type":"uint256","internalType":"uint256"}],"outputs":[{"name":"","type":"uint256","internalType":"uint256"}],"stateMutability":"nonpayable"},{"type":"function","name":"voterStakedProposals","inputs":[{"name":"","type":"address","internalType":"address"},{"name":"","type":"uint256","internalType":"uint256"}],"outputs":[{"name":"","type":"uint256","internalType":"uint256"}],"stateMutability":"view"},{"type":"function","name":"weight","inputs":[],"outputs":[{"name":"","type":"uint256","internalType":"uint256"}],"stateMutability":"view"},{"type":"event","name":"Allocated","inputs":[{"name":"recipientId","type":"address","indexed":true,"internalType":"address"},{"name":"amount","type":"uint256","indexed":false,"internalType":"uint256"},{"name":"token","type":"address","indexed":false,"internalType":"address"},{"name":"sender","type":"address","indexed":false,"internalType":"address"}],"anonymous":false},{"type":"event","name":"DecayUpdated","inputs":[{"name":"decay","type":"uint256","indexed":false,"internalType":"uint256"}],"anonymous":false},{"type":"event","name":"Distributed","inputs":[{"name":"proposalId","type":"uint256","indexed":false,"internalType":"uint256"},{"name":"beneficiary","type":"address","indexed":false,"internalType":"address"},{"name":"amount","type":"uint256","indexed":false,"internalType":"uint256"}],"anonymous":false},{"type":"event","name":"Distributed","inputs":[{"name":"recipientId","type":"address","indexed":true,"internalType":"address"},{"name":"recipientAddress","type":"address","indexed":false,"internalType":"address"},{"name":"amount","type":"uint256","indexed":false,"internalType":"uint256"},{"name":"sender","type":"address","indexed":false,"internalType":"address"}],"anonymous":false},{"type":"event","name":"Initialized","inputs":[{"name":"poolId","type":"uint256","indexed":false,"internalType":"uint256"},{"name":"data","type":"bytes","indexed":false,"internalType":"bytes"}],"anonymous":false},{"type":"event","name":"InitializedCV","inputs":[{"name":"poolId","type":"uint256","indexed":false,"internalType":"uint256"},{"name":"data","type":"tuple","indexed":false,"internalType":"struct StrategyStruct.InitializeParams","components":[{"name":"registryCommunity","type":"address","internalType":"address"},{"name":"decay","type":"uint256","internalType":"uint256"},{"name":"maxRatio","type":"uint256","internalType":"uint256"},{"name":"weight","type":"uint256","internalType":"uint256"},{"name":"minThresholdPoints","type":"uint256","internalType":"uint256"},{"name":"proposalType","type":"uint8","internalType":"enum StrategyStruct.ProposalType"},{"name":"pointSystem","type":"uint8","internalType":"enum StrategyStruct.PointSystem"},{"name":"pointConfig","type":"tuple","internalType":"struct StrategyStruct.PointSystemConfig","components":[{"name":"maxAmount","type":"uint256","internalType":"uint256"}]}]}],"anonymous":false},{"type":"event","name":"MaxRatioUpdated","inputs":[{"name":"maxRatio","type":"uint256","indexed":false,"internalType":"uint256"}],"anonymous":false},{"type":"event","name":"MinThresholdPointsUpdated","inputs":[{"name":"before","type":"uint256","indexed":false,"internalType":"uint256"},{"name":"minThresholdPoints","type":"uint256","indexed":false,"internalType":"uint256"}],"anonymous":false},{"type":"event","name":"PoolActive","inputs":[{"name":"active","type":"bool","indexed":false,"internalType":"bool"}],"anonymous":false},{"type":"event","name":"PoolAmountIncreased","inputs":[{"name":"amount","type":"uint256","indexed":false,"internalType":"uint256"}],"anonymous":false},{"type":"event","name":"PowerDecreased","inputs":[{"name":"member","type":"address","indexed":false,"internalType":"address"},{"name":"tokensUnStaked","type":"uint256","indexed":false,"internalType":"uint256"},{"name":"pointsToDecrease","type":"uint256","indexed":false,"internalType":"uint256"}],"anonymous":false},{"type":"event","name":"PowerIncreased","inputs":[{"name":"member","type":"address","indexed":false,"internalType":"address"},{"name":"tokensStaked","type":"uint256","indexed":false,"internalType":"uint256"},{"name":"pointsToIncrease","type":"uint256","indexed":false,"internalType":"uint256"}],"anonymous":false},{"type":"event","name":"ProposalCreated","inputs":[{"name":"poolId","type":"uint256","indexed":false,"internalType":"uint256"},{"name":"proposalId","type":"uint256","indexed":false,"internalType":"uint256"}],"anonymous":false},{"type":"event","name":"Registered","inputs":[{"name":"recipientId","type":"address","indexed":true,"internalType":"address"},{"name":"data","type":"bytes","indexed":false,"internalType":"bytes"},{"name":"sender","type":"address","indexed":false,"internalType":"address"}],"anonymous":false},{"type":"event","name":"SupportAdded","inputs":[{"name":"from","type":"address","indexed":false,"internalType":"address"},{"name":"proposalId","type":"uint256","indexed":false,"internalType":"uint256"},{"name":"amount","type":"uint256","indexed":false,"internalType":"uint256"},{"name":"totalStakedAmount","type":"uint256","indexed":false,"internalType":"uint256"},{"name":"convictionLast","type":"uint256","indexed":false,"internalType":"uint256"}],"anonymous":false},{"type":"event","name":"WeightUpdated","inputs":[{"name":"weight","type":"uint256","indexed":false,"internalType":"uint256"}],"anonymous":false},{"type":"error","name":"ALLOCATION_ACTIVE","inputs":[]},{"type":"error","name":"ALLOCATION_NOT_ACTIVE","inputs":[]},{"type":"error","name":"ALLOCATION_NOT_ENDED","inputs":[]},{"type":"error","name":"ALREADY_INITIALIZED","inputs":[]},{"type":"error","name":"AMOUNT_MISMATCH","inputs":[]},{"type":"error","name":"ANCHOR_ERROR","inputs":[]},{"type":"error","name":"ARRAY_MISMATCH","inputs":[]},{"type":"error","name":"AddressCannotBeZero","inputs":[]},{"type":"error","name":"AmountOverMaxRatio","inputs":[]},{"type":"error","name":"CantIncreaseFixedSystem","inputs":[]},{"type":"error","name":"ConvictionUnderMinimumThreshold","inputs":[]},{"type":"error","name":"INVALID","inputs":[]},{"type":"error","name":"INVALID_ADDRESS","inputs":[]},{"type":"error","name":"INVALID_FEE","inputs":[]},{"type":"error","name":"INVALID_METADATA","inputs":[]},{"type":"error","name":"INVALID_REGISTRATION","inputs":[]},{"type":"error","name":"IS_APPROVED_STRATEGY","inputs":[]},{"type":"error","name":"MISMATCH","inputs":[]},{"type":"error","name":"MaxPointsReached","inputs":[]},{"type":"error","name":"NONCE_NOT_AVAILABLE","inputs":[]},{"type":"error","name":"NOT_APPROVED_STRATEGY","inputs":[]},{"type":"error","name":"NOT_ENOUGH_FUNDS","inputs":[]},{"type":"error","name":"NOT_IMPLEMENTED","inputs":[]},{"type":"error","name":"NOT_INITIALIZED","inputs":[]},{"type":"error","name":"NOT_PENDING_OWNER","inputs":[]},{"type":"error","name":"NotEnoughPointsToSupport","inputs":[{"name":"pointsSupport","type":"uint256","internalType":"uint256"},{"name":"pointsBalance","type":"uint256","internalType":"uint256"}]},{"type":"error","name":"NotImplemented","inputs":[]},{"type":"error","name":"OnlyCommunityAllowed","inputs":[]},{"type":"error","name":"POOL_ACTIVE","inputs":[]},{"type":"error","name":"POOL_INACTIVE","inputs":[]},{"type":"error","name":"PoolIdCannotBeZero","inputs":[]},{"type":"error","name":"PoolIsEmpty","inputs":[]},{"type":"error","name":"ProposalDataIsEmpty","inputs":[]},{"type":"error","name":"ProposalIdCannotBeZero","inputs":[]},{"type":"error","name":"ProposalNotActive","inputs":[{"name":"_proposalId","type":"uint256","internalType":"uint256"}]},{"type":"error","name":"ProposalNotInList","inputs":[{"name":"_proposalId","type":"uint256","internalType":"uint256"}]},{"type":"error","name":"ProposalSupportDuplicated","inputs":[{"name":"_proposalId","type":"uint256","internalType":"uint256"},{"name":"index","type":"uint256","internalType":"uint256"}]},{"type":"error","name":"RECIPIENT_ALREADY_ACCEPTED","inputs":[]},{"type":"error","name":"RECIPIENT_ERROR","inputs":[{"name":"recipientId","type":"address","internalType":"address"}]},{"type":"error","name":"RECIPIENT_NOT_ACCEPTED","inputs":[]},{"type":"error","name":"REGISTRATION_NOT_ACTIVE","inputs":[]},{"type":"error","name":"RegistryCannotBeZero","inputs":[]},{"type":"error","name":"SupportUnderflow","inputs":[{"name":"_support","type":"uint256","internalType":"uint256"},{"name":"_delta","type":"int256","internalType":"int256"},{"name":"_result","type":"int256","internalType":"int256"}]},{"type":"error","name":"TokenCannotBeZero","inputs":[]},{"type":"error","name":"TokenNotAllowed","inputs":[]},{"type":"error","name":"UNAUTHORIZED","inputs":[]},{"type":"error","name":"UserCannotBeZero","inputs":[]},{"type":"error","name":"UserIsInactive","inputs":[]},{"type":"error","name":"UserNotInRegistry","inputs":[]},{"type":"error","name":"ZERO_ADDRESS","inputs":[]}],"bytecode":{"object":"0x60c06040526000600c556000600f553480156200001b57600080fd5b5060405162004958380380620049588339810160408190526200003e91620000a6565b604080518082018252600a8152694356537472617465677960b01b6020808301919091526001600160a01b038416608052915183926200008191839101620000d8565b60408051601f19818403018152919052805160209091012060a0525062000128915050565b600060208284031215620000b957600080fd5b81516001600160a01b0381168114620000d157600080fd5b9392505050565b600060208083528351808285015260005b818110156200010757858101830151858201604001528201620000e9565b506000604082860101526040601f19601f8301168501019250505092915050565b60805160a0516147f56200016360003960006105d901526000818161047201528181611844015281816118d70152611b0801526147f56000f3fe60806040526004361061033f5760003560e01c806376365af7116101ae578063b5f620ce116100eb578063e0dd2c381161008f578063edd146cc1161006c578063edd146cc146109ff578063ef2920fc14610a1f578063f5b0dfb714610a32578063fc1711f214610a5257005b8063e0dd2c3814610992578063e33add93146109b2578063eb11af93146109d257005b8063c7f758a8116100c8578063c7f758a8146108ff578063d1e3623214610935578063dc96ff2d1461094a578063df868ed31461097a57005b8063b5f620ce14610891578063bcc5b93b146108b1578063c3292171146108e757005b8063950559d711610152578063a47ff7e51161012f578063a47ff7e51461080a578063a574cea414610821578063aba9ffee1461084e578063b2b878d01461086457005b8063950559d7146107ac578063a0cf0aea146107cc578063a1aab33f146107f457005b8063814516ad1161018b578063814516ad14610741578063817b1cd214610756578063824ea8ed1461076c578063868c57b81461078c57005b806376365af7146106f5578063782aadff1461070b5780637c6570ba1461072b57005b80632ed04b2b1161027c5780634d31d087116102205780635db64b99116101fd5780635db64b99146106685780636003e414146106955780636453d9c4146106b557806369fa25c4146106d557005b80634d31d0871461061257806354fac9191461063257806359a5db8b1461064857005b806338fff2d01161025957806338fff2d0146105a0578063406244d8146105b557806342fda9c7146105ca5780634ab4ba42146105fd57005b80632ed04b2b14610539578063346db8cb14610559578063351d9f961461057957005b806311f22ae3116102e35780631ddf1e23116102c05780631ddf1e23146104ca5780632bbe0cae146104df5780632cefadbb146104f25780632dbd6fdd1461051257005b806311f22ae31461044357806315cc481e146104635780631aa91a9e146104aa57005b80630a6f0ee91161031c5780630a6f0ee9146103d75780630ba95909146103f75780630c0512e9146104165780630f529ba21461042c57005b8063013cf08b1461034857806301ffc9a714610387578063058aca44146103b757005b3661034657005b005b34801561035457600080fd5b50610368610363366004613807565b610a72565b60405161037e9a999897969594939291906138c1565b60405180910390f35b34801561039357600080fd5b506103a76103a2366004613934565b610b7d565b604051901515815260200161037e565b3480156103c357600080fd5b506103466103d236600461398b565b610c16565b3480156103e357600080fd5b506103466103f2366004613b6f565b610c50565b34801561040357600080fd5b506011545b60405190815260200161037e565b34801561042257600080fd5b50610408600c5481565b34801561043857600080fd5b506104086298968081565b34801561044f57600080fd5b5061034661045e366004613807565b610c70565b34801561046f57600080fd5b507f00000000000000000000000000000000000000000000000000000000000000005b6040516001600160a01b03909116815260200161037e565b3480156104b657600080fd5b506104086104c5366004613807565b610cb7565b3480156104d657600080fd5b50610346610d42565b6104926104ed366004613be7565b610d4d565b3480156104fe57600080fd5b5061034661050d366004613807565b610d70565b34801561051e57600080fd5b5060105461052c9060ff1681565b60405161037e9190613c49565b34801561054557600080fd5b50610408610554366004613c57565b610dbc565b34801561056557600080fd5b50610408610574366004613c83565b610e84565b34801561058557600080fd5b50600b546105939060ff1681565b60405161037e9190613cbf565b3480156105ac57600080fd5b50600154610408565b3480156105c157600080fd5b50610408600a81565b3480156105d657600080fd5b507f0000000000000000000000000000000000000000000000000000000000000000610408565b34801561060957600080fd5b50600254610408565b34801561061e57600080fd5b506103a761062d36600461398b565b610f29565b34801561063e57600080fd5b5061040860085481565b34801561065457600080fd5b50610408610663366004613807565b610f34565b34801561067457600080fd5b5061040861068336600461398b565b60066020526000908152604090205481565b3480156106a157600080fd5b50600454610492906001600160a01b031681565b3480156106c157600080fd5b506103466106d036600461398b565b611071565b3480156106e157600080fd5b506103466106f0366004613807565b611085565b34801561070157600080fd5b5061040860095481565b34801561071757600080fd5b50610408610726366004613c57565b6110c4565b34801561073757600080fd5b50610408600f5481565b34801561074d57600080fd5b50610346611236565b34801561076257600080fd5b50610408600d5481565b34801561077857600080fd5b506103a7610787366004613807565b611343565b34801561079857600080fd5b506104086107a7366004613c57565b6113a0565b3480156107b857600080fd5b506104086107c7366004613807565b6113d1565b3480156107d857600080fd5b5061049273eeeeeeeeeeeeeeeeeeeeeeeeeeeeeeeeeeeeeeee81565b34801561080057600080fd5b50610408600a5481565b34801561081657600080fd5b506011546104089081565b34801561082d57600080fd5b5061084161083c366004613807565b6113fb565b60405161037e9190613ccd565b34801561085a57600080fd5b50610408600e5481565b34801561087057600080fd5b5061088461087f366004613ce0565b6114da565b60405161037e9190613db5565b34801561089d57600080fd5b506103466108ac366004613e1b565b6114f5565b3480156108bd57600080fd5b506104086108cc36600461398b565b6001600160a01b031660009081526006602052604090205490565b3480156108f357600080fd5b5060105460ff1661052c565b34801561090b57600080fd5b5061091f61091a366004613807565b6114fe565b60405161037e9a99989796959493929190613e38565b34801561094157600080fd5b50600e54610408565b34801561095657600080fd5b50610408610965366004613807565b60009081526005602052604090206002015490565b34801561098657600080fd5b5060005460ff166103a7565b34801561099e57600080fd5b506104086109ad366004613e9d565b611600565b3480156109be57600080fd5b506103466109cd366004613ec2565b61162b565b3480156109de57600080fd5b506109f26109ed36600461398b565b611644565b60405161037e9190613f6d565b348015610a0b57600080fd5b50610346610a1a366004613f87565b61164f565b610346610a2d366004613be7565b61177b565b348015610a3e57600080fd5b50610346610a4d366004613807565b611799565b348015610a5e57600080fd5b50610346610a6d366004613807565b6117c2565b60056020818152600092835260409283902080546001820154600283015460038401546004850154968501546006860154600787015460088801548b51808d01909c52600a890180548d52600b8a018054999d989c979b969a6001600160a01b039889169a968916999890951697939660ff909316959192840191610af690613fce565b80601f0160208091040260200160405190810160405280929190818152602001828054610b2290613fce565b8015610b6f5780601f10610b4457610100808354040283529160200191610b6f565b820191906000526020600020905b815481529060010190602001808311610b5257829003601f168201915b50505050508152505090508a565b60007fffffffff0000000000000000000000000000000000000000000000000000000082167ff1801e61000000000000000000000000000000000000000000000000000000001480610c1057507f01ffc9a7000000000000000000000000000000000000000000000000000000007fffffffff000000000000000000000000000000000000000000000000000000008316145b92915050565b33610c2081611801565b506004805473ffffffffffffffffffffffffffffffffffffffff19166001600160a01b0392909216919091179055565b610c586118cc565b610c60611915565b610c6b838383611951565b505050565b33610c7a81611801565b60098290556040518281527f08e39b387d1f739ce0d2553bb31822392e3f67c62c6c0a215120ab4a6841a8ab906020015b60405180910390a15050565b600081815260056020526040812080548314610cee5760405163c1d17bef60e01b8152600481018490526024015b60405180910390fd5b6001600882015460ff166004811115610d0957610d09613820565b14610d2a576040516344980d8f60e01b815260048101849052602401610ce5565b610d38818260020154611c17565b6003015492915050565b610d4b33611c52565b565b6000610d576118cc565b610d5f611915565b610d698383611d67565b9392505050565b33610d7a81611801565b600f5460408051918252602082018490527f056aedca4e334b6c4bea48715fb0de644811b740894de57a0380d3eb90f2805b910160405180910390a150600f55565b6000610dc66120a0565b6000600260105460ff166003811115610de157610de1613820565b1480610e035750600160105460ff166003811115610e0157610e01613820565b145b15610e0f575081610e1c565b610e1984846120e4565b90505b80600e6000828254610e2e9190614018565b9091555050604080516001600160a01b0386168152602081018590529081018290527f70b752f3fadb6ac131c0ece847fcbb6994ec56ed6411595710fd9b29c6ac6cc19060600160405180910390a19392505050565b6000808490506000610eaa629896806080600854901b610ea49190614041565b836123a9565b905060806f8000000000000000000000000000000060085462989680610ed09190614018565b610ede84600160801b614018565b610eeb6298968089614063565b610ef59190614063565b610eff9190614041565b610f098885614063565b610f13919061407a565b610f1d919061407a565b901c9695505050505050565b6000610c1082612452565b60008060025411610f71576040517fed4421ad00000000000000000000000000000000000000000000000000000000815260040160405180910390fd5b610f7a82612472565b15610f9857604051630efd728560e21b815260040160405180910390fd5b600254600090610fb18468010000000000000000614063565b610fbb9190614041565b6298968060095468010000000000000000610fd69190614063565b610fe09190614041565b610fea9190614018565b90506040610ff7600e5490565b6008546110079062989680614018565b6298968060406110178680614063565b901c629896806080600a54901b61102e9190614041565b6110389190614041565b6110429190614063565b61104c9190614041565b6110569190614063565b901c9150600f54821161106b57600f54610d69565b50919050565b6110796120a0565b61108281611c52565b50565b3361108f81611801565b60088290556040518281527f592dcd55d60d892e7fcb3ba105013312e99691cd59f91e15f83cb67cb5a505f290602001610cab565b60006110ce6120a0565b6000600260105460ff1660038111156110e9576110e9613820565b036110f757825b905061114a565b600160105460ff16600381111561111057611110613820565b0361111f576110f0848461249e565b600360105460ff16600381111561113857611138613820565b0361114a576111478484612609565b90505b6004805460405163011de97360e61b81526001600160a01b03878116938201939093523060248201526000929091169063477a5cc090604401602060405180830381865afa1580156111a0573d6000803e3d6000fd5b505050506040513d601f19601f820116820180604052508101906111c4919061408d565b905080156111e45781600e60008282546111de919061407a565b90915550505b604080516001600160a01b0387168152602081018690529081018390527f0b9150e1e54346ed3fa36b977cd5d65dca5a649c737c3174a26bddaadd47667a9060600160405180910390a1509392505050565b600480546040517f0d4a8b49000000000000000000000000000000000000000000000000000000008152339281018390523060248201526001600160a01b0390911690630d4a8b4990604401600060405180830381600087803b15801561129c57600080fd5b505af11580156112b0573d6000803e3d6000fd5b505060048054604051637817ee4f60e01b81526001600160a01b038681169382019390935230602482015291169250637817ee4f9150604401602060405180830381865afa158015611306573d6000803e3d6000fd5b505050506040513d601f19601f8201168201806040525081019061132a91906140aa565b600e600082825461133b919061407a565b909155505050565b6000818152600560205260408120600281015482908190611365908490612851565b91509150816000148015611377575080155b1561138457826003015491505b60006113938460010154610f34565b9092101595945050505050565b600760205281600052604060002081815481106113bc57600080fd5b90600052602060002001600091509150505481565b6000600854629896806113e49190614018565b6113f16298968084614063565b610c109190614041565b604080518082019091526000815260606020820152600060056000848152602001908152602001600020905080600a016040518060400160405290816000820154815260200160018201805461145090613fce565b80601f016020809104026020016040519081016040528092919081815260200182805461147c90613fce565b80156114c95780601f1061149e576101008083540402835291602001916114c9565b820191906000526020600020905b8154815290600101906020018083116114ac57829003601f168201915b505050505081525050915050919050565b606060405163d623472560e01b815260040160405180910390fd5b611082816128a9565b6000806000806000806000806000806000600560008d8152602001908152602001600020905080600101546000146115425761153d8160010154610f34565b611545565b60005b92508060050160009054906101000a90046001600160a01b03168160040160009054906101000a90046001600160a01b03168260060160009054906101000a90046001600160a01b0316836001015484600201548560080160009054906101000a900460ff16866007015487600301548a896009016000336001600160a01b03166001600160a01b03168152602001908152602001600020549a509a509a509a509a509a509a509a509a509a50509193959799509193959799565b60008281526005602090815260408083206001600160a01b0385168452600901909152812054610d69565b60405163d623472560e01b815260040160405180910390fd5b6000610c10826128f1565b61165882612911565b60008180602001905181019061166e9190614128565b80519091506001600160a01b031661169957604051635df4b1ef60e01b815260040160405180910390fd5b80516004805473ffffffffffffffffffffffffffffffffffffffff19166001600160a01b03909216919091179055602081015160085560408101516009556060810151600a5560a0810151600b805460ff1916600183600281111561170057611700613820565b021790555060c08101516010805460ff1916600183600381111561172657611726613820565b021790555060e0810151516011556080810151600f556040517f11335eebb216b93f04c63826742eacbf3548a7df48a922f8bbd9e205f57807c39061176e90859084906141d7565b60405180910390a1505050565b6117836118cc565b61178b611915565b6117958282612992565b5050565b6117a16118cc565b80600260008282546117b3919061407a565b90915550611082905081612a80565b336117cc81611801565b600a8290556040518281527f30ee8206062f283e56a0af2b02138016bf7442ded26ad68a92a18a9dd246fb4990602001610cab565b6001546040517f29e40d4b00000000000000000000000000000000000000000000000000000000815260048101919091526001600160a01b0382811660248301527f000000000000000000000000000000000000000000000000000000000000000016906329e40d4b90604401602060405180830381865afa15801561188b573d6000803e3d6000fd5b505050506040513d601f19601f820116820180604052508101906118af919061408d565b6110825760405163075fd2b160e01b815260040160405180910390fd5b336001600160a01b037f00000000000000000000000000000000000000000000000000000000000000001614610d4b5760405163075fd2b160e01b815260040160405180910390fd5b600154600003610d4b576040517f3da3f98c00000000000000000000000000000000000000000000000000000000815260040160405180910390fd5b600082511161198c576040517fc5f7c4c000000000000000000000000000000000000000000000000000000000815260040160405180910390fd5b6000828060200190518101906119a291906140aa565b9050806000036119de576040517ff881a10d00000000000000000000000000000000000000000000000000000000815260040160405180910390fd5b60008181526005602052604090206001600b5460ff166002811115611a0557611a05613820565b03611c105780548214611a2e5760405163c1d17bef60e01b815260048101839052602401610ce5565b6001600882015460ff166004811115611a4957611a49613820565b14611a6a576040516344980d8f60e01b815260048101839052602401610ce5565b6000611a7583610cb7565b90506000611a868360010154610f34565b90508082108015611a9b575060008360010154115b15611ad2576040517fcce7930800000000000000000000000000000000000000000000000000000000815260040160405180910390fd5b6001546040517f068bcd8d0000000000000000000000000000000000000000000000000000000081526000916001600160a01b037f0000000000000000000000000000000000000000000000000000000000000000169163068bcd8d91611b3f9160040190815260200190565b600060405180830381865afa158015611b5c573d6000803e3d6000fd5b505050506040513d6000823e601f3d908101601f19168201604052611b8491908101906142e1565b604081015160048601546001870154929350611bab926001600160a01b0390911690612ab0565b60088401805460ff191660049081179091558401546001850154604080518881526001600160a01b0390931660208401528201527fa7932e9c92f31e1ed56b29d00bbe669a97484dc24de28dd9c8c0429df7f358479060600160405180910390a15050505b5050505050565b600080611c248484612851565b91509150816000148015611c36575080155b15611c415750505050565b600784015560039092019190915550565b60048054604051637817ee4f60e01b81526001600160a01b0384811693820193909352306024820152911690637817ee4f90604401602060405180830381865afa158015611ca4573d6000803e3d6000fd5b505050506040513d601f19601f82011682018060405250810190611cc891906140aa565b600e6000828254611cd99190614018565b9091555050600480546040517f22bcf9990000000000000000000000000000000000000000000000000000000081526001600160a01b03848116938201939093523060248201529116906322bcf99990604401600060405180830381600087803b158015611d4657600080fd5b505af1158015611d5a573d6000803e3d6000fd5b5050505061108281612af5565b60008083806020019051810190611d7e9190614395565b8051909150600003611dbc576040517f4e79178600000000000000000000000000000000000000000000000000000000815260040160405180910390fd5b6001600b5460ff166002811115611dd557611dd5613820565b03611f8557611de78160200151612c20565b60608101516001600160a01b0316611e2b576040517f596a094c00000000000000000000000000000000000000000000000000000000815260040160405180910390fd5b6000306001600160a01b03166315cc481e6040518163ffffffff1660e01b8152600401602060405180830381865afa158015611e6b573d6000803e3d6000fd5b505050506040513d601f19601f82011682018060405250810190611e8f919061443c565b6001600160a01b031663068bcd8d6001546040518263ffffffff1660e01b8152600401611ebe91815260200190565b600060405180830381865afa158015611edb573d6000803e3d6000fd5b505050506040513d6000823e601f3d908101601f19168201604052611f0391908101906142e1565b604001519050806001600160a01b031682606001516001600160a01b031614611f58576040517fa29c498600000000000000000000000000000000000000000000000000000000815260040160405180910390fd5b611f658260400151612472565b15611f8357604051630efd728560e21b815260040160405180910390fd5b505b6000600c60008154611f9690614459565b9182905550600081815260056020818152604080842085815592830180546001600160a01b038b811673ffffffffffffffffffffffffffffffffffffffff199283161790925588840151600486018054918416918316919091179055606089015160068601805491909316911617905586015160018084019190915560088301805460ff19169091179055436007830155600382019290925560808501518051600a8301908155928101519394509092909190600b84019061205890826144c0565b505060015460408051918252602082018590527ffcf3b1aa65a464cef2889608f99e8b8c0f680a4be6c2acb9d961c536a5a9294b92500160405180910390a150949350505050565b6004546001600160a01b03163314610d4b576040517faf0916a200000000000000000000000000000000000000000000000000000000815260040160405180910390fd5b60048054604080516336d8759760e21b815290516000936012936001600160a01b03169263db61d65c92818301926020928290030181865afa15801561212e573d6000803e3d6000fd5b505050506040513d601f19601f82011682018060405250810190612152919061443c565b6001600160a01b031663313ce5676040518163ffffffff1660e01b8152600401602060405180830381865afa9250505080156121ab575060408051601f3d908101601f191682019092526121a891810190614580565b60015b6121f2576121ed6040518060400160405280601581526020017f4572726f722067657474696e6720646563696d616c0000000000000000000000815250612c60565b6121f8565b60ff1690505b6122376040518060400160405280601081526020017f5f616d6f756e74546f556e7374616b650000000000000000000000000000000081525084612cd1565b600480546040516316308e2560e11b81526001600160a01b038781169382019390935260009286921690632c611c4a90602401602060405180830381865afa158015612287573d6000803e3d6000fd5b505050506040513d601f19601f820116820180604052508101906122ab91906140aa565b6122b59190614018565b90506122f66040518060400160405280600d81526020017f6e6577546f74616c5374616b650000000000000000000000000000000000000081525082612cd1565b600061231561230684600a614687565b6123109084614063565b612d44565b60048054604051637817ee4f60e01b81526001600160a01b038a811693820193909352306024820152929350600092849290911690637817ee4f90604401602060405180830381865afa158015612370573d6000803e3d6000fd5b505050506040513d601f19601f8201168201806040525081019061239491906140aa565b61239e9190614018565b979650505050505050565b6000600160801b83106123fe5760405162461bcd60e51b815260206004820152601c60248201527f5f612073686f756c64206265206c657373207468616e20325e313238000000006044820152606401610ce5565b50600160801b82825b801561244a578060011660000361242c576124228283612e2c565b915060011c612407565b6124368383612e2c565b9250612443600182614018565b9050612407565b505092915050565b60006001600160a01b0382161561246a576001610c10565b600092915050565b60006124816298968083614063565b6002546009546124919190614063565b1161246a57506001919050565b6000808290506124e36040518060400160405280601281526020017f504f494e545320544f20494e435245415345000000000000000000000000000081525082612cd1565b60048054604051637817ee4f60e01b81526001600160a01b038781169382019390935230602482015260009290911690637817ee4f90604401602060405180830381865afa158015612539573d6000803e3d6000fd5b505050506040513d601f19601f8201168201806040525081019061255d91906140aa565b905061259e6040518060400160405280600b81526020017f4d454d424552504f57455200000000000000000000000000000000000000000081525082612cd1565b6011546125ab838361407a565b11156125c2576011546125bf908290614018565b91505b6126016040518060400160405280601681526020017f504f494e545320544f20494e43524541534520454e440000000000000000000081525083612cd1565b509392505050565b600480546040516316308e2560e11b81526001600160a01b038581169382019390935260009283928592911690632c611c4a90602401602060405180830381865afa15801561265c573d6000803e3d6000fd5b505050506040513d601f19601f8201168201806040525081019061268091906140aa565b61268a919061407a565b60048054604080516336d8759760e21b815290519394506012936001600160a01b039092169263db61d65c9282820192602092908290030181865afa1580156126d7573d6000803e3d6000fd5b505050506040513d601f19601f820116820180604052508101906126fb919061443c565b6001600160a01b031663313ce5676040518163ffffffff1660e01b8152600401602060405180830381865afa925050508015612754575060408051601f3d908101601f1916820190925261275191810190614580565b60015b61279b576127966040518060400160405280601581526020017f4572726f722067657474696e6720646563696d616c0000000000000000000000815250612c60565b6127a1565b60ff1690505b60006127bb6127b183600a614687565b6123109085614063565b60048054604051637817ee4f60e01b81526001600160a01b038a811693820193909352306024820152929350600092911690637817ee4f90604401602060405180830381865afa158015612813573d6000803e3d6000fd5b505050506040513d601f19601f8201168201806040525081019061283791906140aa565b905060006128458284614018565b98975050505050505050565b600080439050808460070154111561286b5761286b614693565b80846007015403612881575060009050806128a2565b61289f8460070154826128949190614018565b856003015485610e84565b91505b9250929050565b6000805460ff19168215159081179091556040519081527fd94c9bc4d43c51d8dc345a016d8e3d994432fac68e72832e4cf3a616bd8efae0906020015b60405180910390a150565b60006001600160a01b03821615612909576002610c10565b600392915050565b6129196118cc565b60015415612953576040517f439a74c900000000000000000000000000000000000000000000000000000000815260040160405180910390fd5b8060000361298d576040517f7fcce2a900000000000000000000000000000000000000000000000000000000815260040160405180910390fd5b600155565b61299b81612f2b565b6004805460405163011de97360e61b81526001600160a01b03848116938201939093523060248201526000929091169063477a5cc090604401602060405180830381865afa1580156129f1573d6000803e3d6000fd5b505050506040513d601f19601f82011682018060405250810190612a15919061408d565b905080612a4e576040517f5fccb67f00000000000000000000000000000000000000000000000000000000815260040160405180910390fd5b600083806020019051810190612a6491906146a9565b9050612a708382613053565b612a7a8382613218565b50505050565b6040518181527f46aeb5d8770fc4474bc2dfa118fd2595f7fb33ce2cbce6f4e5a3dabfe0f76339906020016128e6565b7fffffffffffffffffffffffff11111111111111111111111111111111111111126001600160a01b03841601612aea57610c6b828261363c565b610c6b838383613658565b6001600160a01b038116600090815260076020908152604080832080548251818502810185019093528083529192909190830182828015612b5557602002820191906000526020600020905b815481526020019060010190808311612b41575b5050505050905060005b8151811015610c6b576000828281518110612b7c57612b7c614754565b602002602001015190506000600560008381526020019081526020016000209050612ba6826136a7565b15612c0b576001600160a01b0385166000908152600982016020526040812080549082905560028301805491928392612be0908490614018565b9250508190555080600d6000828254612bf99190614018565b90915550612c0990508282611c17565b505b50508080612c1890614459565b915050612b5f565b6001600160a01b038116611082576040517fe622e04000000000000000000000000000000000000000000000000000000000815260040160405180910390fd5b61108281604051602401612c74919061476a565b60408051601f198184030181529190526020810180517bffffffffffffffffffffffffffffffffffffffffffffffffffffffff167f41304fac000000000000000000000000000000000000000000000000000000001790526136e1565b6117958282604051602401612ce792919061477d565b60408051601f198184030181529190526020810180517bffffffffffffffffffffffffffffffffffffffffffffffffffffffff167f9710a9d0000000000000000000000000000000000000000000000000000000001790526136e1565b600081600003612d5657506000919050565b60006001612d6384613702565b901c6001901b90506001818481612d7c57612d7c61402b565b048201901c90506001818481612d9457612d9461402b565b048201901c90506001818481612dac57612dac61402b565b048201901c90506001818481612dc457612dc461402b565b048201901c90506001818481612ddc57612ddc61402b565b048201901c90506001818481612df457612df461402b565b048201901c90506001818481612e0c57612e0c61402b565b048201901c9050610d6981828581612e2657612e2661402b565b04613796565b6000600160801b831115612ea85760405162461bcd60e51b815260206004820152602860248201527f5f612073686f756c64206265206c657373207468616e206f7220657175616c2060448201527f746f20325e3132380000000000000000000000000000000000000000000000006064820152608401610ce5565b600160801b8210612efb5760405162461bcd60e51b815260206004820152601c60248201527f5f622073686f756c64206265206c657373207468616e20325e313238000000006044820152606401610ce5565b60806f80000000000000000000000000000000612f188486614063565b612f22919061407a565b901c9392505050565b6001600160a01b038116612f6b576040517fd1f2828800000000000000000000000000000000000000000000000000000000815260040160405180910390fd5b6004546001600160a01b0316612f9457604051635df4b1ef60e01b815260040160405180910390fd5b600480546040517fa230c5240000000000000000000000000000000000000000000000000000000081526001600160a01b038481169382019390935291169063a230c52490602401602060405180830381865afa158015612ff9573d6000803e3d6000fd5b505050506040513d601f19601f8201168201806040525081019061301d919061408d565b611082576040517f6a5cfb6d00000000000000000000000000000000000000000000000000000000815260040160405180910390fd5b6000805b82518110156131105782818151811061307257613072614754565b602002602001015160000151600003156130fe57600083828151811061309a5761309a614754565b60200260200101516000015190506130b1816136a7565b6130d15760405163c1d17bef60e01b815260048101829052602401610ce5565b8382815181106130e3576130e3614754565b602002602001015160200151836130fa919061479f565b9250505b8061310881614459565b915050613057565b506001600160a01b03831660009081526006602052604081205461313490836137ac565b60048054604051637817ee4f60e01b81526001600160a01b0388811693820193909352306024820152929350600092911690637817ee4f90604401602060405180830381865afa15801561318c573d6000803e3d6000fd5b505050506040513d601f19601f820116820180604052508101906131b091906140aa565b9050808211156131f6576040517fd64182fe0000000000000000000000000000000000000000000000000000000081526004810183905260248101829052604401610ce5565b506001600160a01b039093166000908152600660205260409020929092555050565b606060005b8251811015612a7a57600083828151811061323a5761323a614754565b60200260200101516000015190508251600003613296576040805160018082528183019092529060208083019080368337019050509250808360008151811061328557613285614754565b6020026020010181815250506133e9565b6000805b845181101561331557828582815181106132b6576132b6614754565b602002602001015103613303576040517fadebb154000000000000000000000000000000000000000000000000000000008152600481018490526024810182905260019250604401610ce5565b8061330d81614459565b91505061329a565b50806133e75760008451600161332b919061407a565b67ffffffffffffffff811115613343576133436139a8565b60405190808252806020026020018201604052801561336c578160200160208202803683370190505b50905060005b85518110156133c45785818151811061338d5761338d614754565b60200260200101518282815181106133a7576133a7614754565b6020908102919091010152806133bc81614459565b915050613372565b5082818651815181106133d9576133d9614754565b602090810291909101015293505b505b60008483815181106133fd576133fd614754565b60209081029190910181015181015160008481526005835260408082206001600160a01b038b1683526009810190945281205491935061343d82856137ac565b6001600160a01b038a1660009081526009850160205260408120829055909150805b6001600160a01b038b166000908152600760205260409020548110156134d65784546001600160a01b038c1660009081526007602052604090208054839081106134ab576134ab614754565b9060005260206000200154036134c457600191506134d6565b806134ce81614459565b91505061345f565b508061350c576001600160a01b038a16600090815260076020908152604082208654815460018101835591845291909220909101555b81831161355c5761351d8383614018565b600d600082825461352e919061407a565b9091555061353e90508383614018565b846002016000828254613551919061407a565b909155506135a09050565b6135668284614018565b600d60008282546135779190614018565b9091555061358790508284614018565b84600201600082825461359a9190614018565b90915550505b83600701546000036135b757436007850155613623565b6135c18484611c17565b60028401546003850154604080516001600160a01b038e168152602081018a9052908101859052606081019290925260808201527f0227f642ddcf2042ceaeafadb9d540f432072c00cd4862881667168dcc14710f9060a00160405180910390a15b505050505050808061363490614459565b91505061321d565b60008060008084865af16117955763b12d13eb6000526004601cfd5b81601452806034526fa9059cbb00000000000000000000000060005260206000604460106000875af13d15600160005114171661369d576390b8ec186000526004601cfd5b6000603452505050565b60008181526005602052604081205415801590610c10575050600090815260056020819052604090912001546001600160a01b0316151590565b80516a636f6e736f6c652e6c6f67602083016000808483855afa5050505050565b600080608083901c1561371757608092831c92015b604083901c1561372957604092831c92015b602083901c1561373b57602092831c92015b601083901c1561374d57601092831c92015b600883901c1561375f57600892831c92015b600483901c1561377157600492831c92015b600283901c1561378357600292831c92015b600183901c15610c105760010192915050565b60008183106137a55781610d69565b5090919050565b6000806137b9838561479f565b90506000811215610d69576040517f3bbc7142000000000000000000000000000000000000000000000000000000008152600481018590526024810184905260448101829052606401610ce5565b60006020828403121561381957600080fd5b5035919050565b634e487b7160e01b600052602160045260246000fd5b6005811061384657613846613820565b9052565b60005b8381101561386557818101518382015260200161384d565b50506000910152565b6000815180845261388681602086016020860161384a565b601f01601f19169290920160200192915050565b8051825260006020820151604060208501526138b9604085018261386e565b949350505050565b60006101408c83528b60208401528a60408401528960608401526001600160a01b03808a16608085015280891660a085015280881660c0850152508560e0840152613910610100840186613836565b806101208401526139238184018561389a565b9d9c50505050505050505050505050565b60006020828403121561394657600080fd5b81357fffffffff0000000000000000000000000000000000000000000000000000000081168114610d6957600080fd5b6001600160a01b038116811461108257600080fd5b60006020828403121561399d57600080fd5b8135610d6981613976565b634e487b7160e01b600052604160045260246000fd5b6040805190810167ffffffffffffffff811182821017156139e1576139e16139a8565b60405290565b60405160c0810167ffffffffffffffff811182821017156139e1576139e16139a8565b60405160a0810167ffffffffffffffff811182821017156139e1576139e16139a8565b604051601f8201601f1916810167ffffffffffffffff81118282101715613a5657613a566139a8565b604052919050565b600067ffffffffffffffff821115613a7857613a786139a8565b5060051b60200190565b600082601f830112613a9357600080fd5b81356020613aa8613aa383613a5e565b613a2d565b82815260059290921b84018101918181019086841115613ac757600080fd5b8286015b84811015613aeb578035613ade81613976565b8352918301918301613acb565b509695505050505050565b600067ffffffffffffffff821115613b1057613b106139a8565b50601f01601f191660200190565b600082601f830112613b2f57600080fd5b8135613b3d613aa382613af6565b818152846020838601011115613b5257600080fd5b816020850160208301376000918101602001919091529392505050565b600080600060608486031215613b8457600080fd5b833567ffffffffffffffff80821115613b9c57600080fd5b613ba887838801613a82565b94506020860135915080821115613bbe57600080fd5b50613bcb86828701613b1e565b9250506040840135613bdc81613976565b809150509250925092565b60008060408385031215613bfa57600080fd5b823567ffffffffffffffff811115613c1157600080fd5b613c1d85828601613b1e565b9250506020830135613c2e81613976565b809150509250929050565b6004811061384657613846613820565b60208101610c108284613c39565b60008060408385031215613c6a57600080fd5b8235613c7581613976565b946020939093013593505050565b600080600060608486031215613c9857600080fd5b505081359360208301359350604090920135919050565b6003811061384657613846613820565b60208101610c108284613caf565b602081526000610d69602083018461389a565b60008060408385031215613cf357600080fd5b823567ffffffffffffffff80821115613d0b57600080fd5b613d1786838701613a82565b9350602091508185013581811115613d2e57600080fd5b8501601f81018713613d3f57600080fd5b8035613d4d613aa382613a5e565b81815260059190911b82018401908481019089831115613d6c57600080fd5b8584015b83811015613da457803586811115613d885760008081fd5b613d968c8983890101613b1e565b845250918601918601613d70565b508096505050505050509250929050565b602080825282518282018190526000919060409081850190868401855b82811015613e0057815180516001600160a01b03168552860151868501529284019290850190600101613dd2565b5091979650505050505050565b801515811461108257600080fd5b600060208284031215613e2d57600080fd5b8135610d6981613e0d565b6001600160a01b038b811682528a811660208301528916604082015260608101889052608081018790526101408101613e7460a0830188613836565b8560c08301528460e083015283610100830152826101208301529b9a5050505050505050505050565b60008060408385031215613eb057600080fd5b823591506020830135613c2e81613976565b60006020808385031215613ed557600080fd5b823567ffffffffffffffff811115613eec57600080fd5b8301601f81018513613efd57600080fd5b8035613f0b613aa382613a5e565b81815260069190911b82018301908381019087831115613f2a57600080fd5b928401925b8284101561239e5760408489031215613f485760008081fd5b613f506139be565b843581528585013586820152825260409093019290840190613f2f565b6020810160078310613f8157613f81613820565b91905290565b60008060408385031215613f9a57600080fd5b82359150602083013567ffffffffffffffff811115613fb857600080fd5b613fc485828601613b1e565b9150509250929050565b600181811c90821680613fe257607f821691505b60208210810361106b57634e487b7160e01b600052602260045260246000fd5b634e487b7160e01b600052601160045260246000fd5b81810381811115610c1057610c10614002565b634e487b7160e01b600052601260045260246000fd5b60008261405e57634e487b7160e01b600052601260045260246000fd5b500490565b8082028115828204841417610c1057610c10614002565b80820180821115610c1057610c10614002565b60006020828403121561409f57600080fd5b8151610d6981613e0d565b6000602082840312156140bc57600080fd5b5051919050565b8051600381106140d257600080fd5b919050565b8051600481106140d257600080fd5b6000602082840312156140f857600080fd5b6040516020810181811067ffffffffffffffff8211171561411b5761411b6139a8565b6040529151825250919050565b600061010080838503121561413c57600080fd5b6040519081019067ffffffffffffffff8211818310171561415f5761415f6139a8565b816040528351915061417082613976565b818152602084015160208201526040840151604082015260608401516060820152608084015160808201526141a760a085016140c3565b60a08201526141b860c085016140d7565b60c08201526141ca8560e086016140e6565b60e0820152949350505050565b6000610120820190508382526001600160a01b038351166020830152602083015160408301526040830151606083015260608301516080830152608083015160a083015260a083015161422d60c0840182613caf565b5060c083015161424060e0840182613c39565b5060e0830151516101008301529392505050565b60006040828403121561426657600080fd5b61426e6139be565b905081518152602082015167ffffffffffffffff81111561428e57600080fd5b8201601f8101841361429f57600080fd5b80516142ad613aa382613af6565b8181528560208385010111156142c257600080fd5b6142d382602083016020860161384a565b602084015250909392505050565b6000602082840312156142f357600080fd5b815167ffffffffffffffff8082111561430b57600080fd5b9083019060c0828603121561431f57600080fd5b6143276139e7565b82518152602083015161433981613976565b6020820152604083015161434c81613976565b604082015260608301518281111561436357600080fd5b61436f87828601614254565b6060830152506080830151608082015260a083015160a082015280935050505092915050565b6000602082840312156143a757600080fd5b815167ffffffffffffffff808211156143bf57600080fd5b9083019060a082860312156143d357600080fd5b6143db613a0a565b8251815260208301516143ed81613976565b602082015260408381015190820152606083015161440a81613976565b606082015260808301518281111561442157600080fd5b61442d87828601614254565b60808301525095945050505050565b60006020828403121561444e57600080fd5b8151610d6981613976565b60006001820161446b5761446b614002565b5060010190565b601f821115610c6b57600081815260208120601f850160051c810160208610156144995750805b601f850160051c820191505b818110156144b8578281556001016144a5565b505050505050565b815167ffffffffffffffff8111156144da576144da6139a8565b6144ee816144e88454613fce565b84614472565b602080601f831160018114614523576000841561450b5750858301515b600019600386901b1c1916600185901b1785556144b8565b600085815260208120601f198616915b8281101561455257888601518255948401946001909101908401614533565b50858210156145705787850151600019600388901b60f8161c191681555b5050505050600190811b01905550565b60006020828403121561459257600080fd5b815160ff81168114610d6957600080fd5b600181815b808511156145de5781600019048211156145c4576145c4614002565b808516156145d157918102915b93841c93908002906145a8565b509250929050565b6000826145f557506001610c10565b8161460257506000610c10565b816001811461461857600281146146225761463e565b6001915050610c10565b60ff84111561463357614633614002565b50506001821b610c10565b5060208310610133831016604e8410600b8410161715614661575081810a610c10565b61466b83836145a3565b806000190482111561467f5761467f614002565b029392505050565b6000610d6983836145e6565b634e487b7160e01b600052600160045260246000fd5b600060208083850312156146bc57600080fd5b825167ffffffffffffffff8111156146d357600080fd5b8301601f810185136146e457600080fd5b80516146f2613aa382613a5e565b81815260069190911b8201830190838101908783111561471157600080fd5b928401925b8284101561239e576040848903121561472f5760008081fd5b6147376139be565b845181528585015186820152825260409093019290840190614716565b634e487b7160e01b600052603260045260246000fd5b602081526000610d69602083018461386e565b604081526000614790604083018561386e565b90508260208301529392505050565b808201828112600083128015821682158216171561244a5761244a61400256fea2646970667358221220ea48aa553d0eb87c85f4d49667ccbdf18e821b752a079dad0a2595829afcbe9b64736f6c63430008130033","linkReferences":{}},"methodIdentifiers":{"D()":"0f529ba2","MAX_STAKED_PROPOSALS()":"406244d8","NATIVE()":"a0cf0aea","_minThresholdPoints()":"7c6570ba","activatePoints()":"814516ad","allocate(bytes,address)":"ef2920fc","calculateConviction(uint256,uint256,uint256)":"346db8cb","calculateThreshold(uint256)":"59a5db8b","canExecuteProposal(uint256)":"824ea8ed","deactivatePoints()":"1ddf1e23","deactivatePoints(address)":"6453d9c4","decay()":"54fac919","decreasePower(address,uint256)":"2ed04b2b","distribute(address[],bytes,address)":"0a6f0ee9","getAllo()":"15cc481e","getMaxAmount()":"0ba95909","getMaxConviction(uint256)":"950559d7","getMetadata(uint256)":"a574cea4","getPayouts(address[],bytes[])":"b2b878d0","getPointSystem()":"c3292171","getPoolAmount()":"4ab4ba42","getPoolId()":"38fff2d0","getProposal(uint256)":"c7f758a8","getProposalStakedAmount(uint256)":"dc96ff2d","getProposalVoterStake(uint256,address)":"e0dd2c38","getRecipientStatus(address)":"eb11af93","getStrategyId()":"42fda9c7","getTotalVoterStakePct(address)":"bcc5b93b","increasePoolAmount(uint256)":"f5b0dfb7","increasePower(address,uint256)":"782aadff","initialize(uint256,bytes)":"edd146cc","isPoolActive()":"df868ed3","isValidAllocator(address)":"4d31d087","maxRatio()":"76365af7","pointConfig()":"a47ff7e5","pointSystem()":"2dbd6fdd","proposalCounter()":"0c0512e9","proposalType()":"351d9f96","proposals(uint256)":"013cf08b","registerRecipient(bytes,address)":"2bbe0cae","registryCommunity()":"6003e414","setDecay(uint256)":"69fa25c4","setMaxRatio(uint256)":"11f22ae3","setMinThresholdPoints(uint256)":"2cefadbb","setPoolActive(bool)":"b5f620ce","setRegistryCommunity(address)":"058aca44","setWeight(uint256)":"fc1711f2","supportProposal((uint256,int256)[])":"e33add93","supportsInterface(bytes4)":"01ffc9a7","totalEffectiveActivePoints()":"d1e36232","totalPointsActivated()":"aba9ffee","totalStaked()":"817b1cd2","totalVoterStakePct(address)":"5db64b99","updateProposalConviction(uint256)":"1aa91a9e","voterStakedProposals(address,uint256)":"868c57b8","weight()":"a1aab33f"},"id":108}