{"abi":[{"type":"constructor","inputs":[{"name":"_allo","type":"address","internalType":"address"}],"stateMutability":"nonpayable"},{"type":"fallback","stateMutability":"payable"},{"type":"receive","stateMutability":"payable"},{"type":"function","name":"D","inputs":[],"outputs":[{"name":"","type":"uint256","internalType":"uint256"}],"stateMutability":"view"},{"type":"function","name":"MAX_STAKED_PROPOSALS","inputs":[],"outputs":[{"name":"","type":"uint256","internalType":"uint256"}],"stateMutability":"view"},{"type":"function","name":"NATIVE","inputs":[],"outputs":[{"name":"","type":"address","internalType":"address"}],"stateMutability":"view"},{"type":"function","name":"PRECISION_SCALE","inputs":[],"outputs":[{"name":"","type":"uint256","internalType":"uint256"}],"stateMutability":"view"},{"type":"function","name":"activatePoints","inputs":[],"outputs":[],"stateMutability":"nonpayable"},{"type":"function","name":"allocate","inputs":[{"name":"_data","type":"bytes","internalType":"bytes"},{"name":"_sender","type":"address","internalType":"address"}],"outputs":[],"stateMutability":"payable"},{"type":"function","name":"calculateConviction","inputs":[{"name":"_timePassed","type":"uint256","internalType":"uint256"},{"name":"_lastConv","type":"uint256","internalType":"uint256"},{"name":"_oldAmount","type":"uint256","internalType":"uint256"}],"outputs":[{"name":"","type":"uint256","internalType":"uint256"}],"stateMutability":"view"},{"type":"function","name":"calculateThreshold","inputs":[{"name":"_requestedAmount","type":"uint256","internalType":"uint256"}],"outputs":[{"name":"_threshold","type":"uint256","internalType":"uint256"}],"stateMutability":"view"},{"type":"function","name":"deactivatePoints","inputs":[{"name":"_member","type":"address","internalType":"address"}],"outputs":[],"stateMutability":"nonpayable"},{"type":"function","name":"decay","inputs":[],"outputs":[{"name":"","type":"uint256","internalType":"uint256"}],"stateMutability":"view"},{"type":"function","name":"decreasePower","inputs":[{"name":"_member","type":"address","internalType":"address"},{"name":"_amountToUnstake","type":"uint256","internalType":"uint256"}],"outputs":[{"name":"","type":"uint256","internalType":"uint256"}],"stateMutability":"nonpayable"},{"type":"function","name":"distribute","inputs":[{"name":"_recipientIds","type":"address[]","internalType":"address[]"},{"name":"_data","type":"bytes","internalType":"bytes"},{"name":"_sender","type":"address","internalType":"address"}],"outputs":[],"stateMutability":"nonpayable"},{"type":"function","name":"getAllo","inputs":[],"outputs":[{"name":"","type":"address","internalType":"contract IAllo"}],"stateMutability":"view"},{"type":"function","name":"getMaxConviction","inputs":[{"name":"amount","type":"uint256","internalType":"uint256"}],"outputs":[{"name":"","type":"uint256","internalType":"uint256"}],"stateMutability":"view"},{"type":"function","name":"getMetadata","inputs":[{"name":"_proposalId","type":"uint256","internalType":"uint256"}],"outputs":[{"name":"","type":"tuple","internalType":"struct Metadata","components":[{"name":"protocol","type":"uint256","internalType":"uint256"},{"name":"pointer","type":"string","internalType":"string"}]}],"stateMutability":"view"},{"type":"function","name":"getPayouts","inputs":[{"name":"","type":"address[]","internalType":"address[]"},{"name":"","type":"bytes[]","internalType":"bytes[]"}],"outputs":[{"name":"","type":"tuple[]","internalType":"struct IStrategy.PayoutSummary[]","components":[{"name":"recipientAddress","type":"address","internalType":"address"},{"name":"amount","type":"uint256","internalType":"uint256"}]}],"stateMutability":"view"},{"type":"function","name":"getPointsPerMember","inputs":[],"outputs":[{"name":"","type":"uint256","internalType":"uint256"}],"stateMutability":"view"},{"type":"function","name":"getPointsPerTokenStaked","inputs":[],"outputs":[{"name":"","type":"uint256","internalType":"uint256"}],"stateMutability":"view"},{"type":"function","name":"getPoolAmount","inputs":[],"outputs":[{"name":"","type":"uint256","internalType":"uint256"}],"stateMutability":"view"},{"type":"function","name":"getPoolId","inputs":[],"outputs":[{"name":"","type":"uint256","internalType":"uint256"}],"stateMutability":"view"},{"type":"function","name":"getProposal","inputs":[{"name":"_proposalId","type":"uint256","internalType":"uint256"}],"outputs":[{"name":"submitter","type":"address","internalType":"address"},{"name":"beneficiary","type":"address","internalType":"address"},{"name":"requestedToken","type":"address","internalType":"address"},{"name":"requestedAmount","type":"uint256","internalType":"uint256"},{"name":"stakedTokens","type":"uint256","internalType":"uint256"},{"name":"proposalStatus","type":"uint8","internalType":"enum StrategyStruct.ProposalStatus"},{"name":"blockLast","type":"uint256","internalType":"uint256"},{"name":"convictionLast","type":"uint256","internalType":"uint256"},{"name":"threshold","type":"uint256","internalType":"uint256"},{"name":"voterStakedPoints","type":"uint256","internalType":"uint256"}],"stateMutability":"view"},{"type":"function","name":"getProposalStakedAmount","inputs":[{"name":"_proposalId","type":"uint256","internalType":"uint256"}],"outputs":[{"name":"","type":"uint256","internalType":"uint256"}],"stateMutability":"view"},{"type":"function","name":"getProposalVoterStake","inputs":[{"name":"_proposalId","type":"uint256","internalType":"uint256"},{"name":"_voter","type":"address","internalType":"address"}],"outputs":[{"name":"","type":"uint256","internalType":"uint256"}],"stateMutability":"view"},{"type":"function","name":"getRecipientStatus","inputs":[{"name":"_recipientId","type":"address","internalType":"address"}],"outputs":[{"name":"","type":"uint8","internalType":"enum IStrategy.Status"}],"stateMutability":"view"},{"type":"function","name":"getStrategyId","inputs":[],"outputs":[{"name":"","type":"bytes32","internalType":"bytes32"}],"stateMutability":"view"},{"type":"function","name":"getTotalVoterStakePct","inputs":[{"name":"_voter","type":"address","internalType":"address"}],"outputs":[{"name":"","type":"uint256","internalType":"uint256"}],"stateMutability":"view"},{"type":"function","name":"increasePoolAmount","inputs":[{"name":"_amount","type":"uint256","internalType":"uint256"}],"outputs":[],"stateMutability":"nonpayable"},{"type":"function","name":"increasePower","inputs":[{"name":"_member","type":"address","internalType":"address"},{"name":"_amountToStake","type":"uint256","internalType":"uint256"}],"outputs":[{"name":"","type":"uint256","internalType":"uint256"}],"stateMutability":"nonpayable"},{"type":"function","name":"increasePowerQuadratic","inputs":[{"name":"_member","type":"address","internalType":"address"},{"name":"_amountToStake","type":"uint256","internalType":"uint256"}],"outputs":[{"name":"","type":"uint256","internalType":"uint256"}],"stateMutability":"view"},{"type":"function","name":"initialize","inputs":[{"name":"_poolId","type":"uint256","internalType":"uint256"},{"name":"_data","type":"bytes","internalType":"bytes"}],"outputs":[],"stateMutability":"nonpayable"},{"type":"function","name":"isPoolActive","inputs":[],"outputs":[{"name":"","type":"bool","internalType":"bool"}],"stateMutability":"view"},{"type":"function","name":"isValidAllocator","inputs":[{"name":"_allocator","type":"address","internalType":"address"}],"outputs":[{"name":"","type":"bool","internalType":"bool"}],"stateMutability":"view"},{"type":"function","name":"maxRatio","inputs":[],"outputs":[{"name":"","type":"uint256","internalType":"uint256"}],"stateMutability":"view"},{"type":"function","name":"minPointsActivated","inputs":[],"outputs":[{"name":"","type":"uint256","internalType":"uint256"}],"stateMutability":"view"},{"type":"function","name":"pointConfig","inputs":[],"outputs":[{"name":"pointsPerTokenStaked","type":"uint256","internalType":"uint256"},{"name":"maxAmount","type":"uint256","internalType":"uint256"},{"name":"pointsPerMember","type":"uint256","internalType":"uint256"},{"name":"tokensPerPoint","type":"uint256","internalType":"uint256"}],"stateMutability":"view"},{"type":"function","name":"pointSystem","inputs":[],"outputs":[{"name":"","type":"uint8","internalType":"enum StrategyStruct.PointSystem"}],"stateMutability":"view"},{"type":"function","name":"proposalCounter","inputs":[],"outputs":[{"name":"","type":"uint256","internalType":"uint256"}],"stateMutability":"view"},{"type":"function","name":"proposalType","inputs":[],"outputs":[{"name":"","type":"uint8","internalType":"enum StrategyStruct.ProposalType"}],"stateMutability":"view"},{"type":"function","name":"proposals","inputs":[{"name":"","type":"uint256","internalType":"uint256"}],"outputs":[{"name":"proposalId","type":"uint256","internalType":"uint256"},{"name":"requestedAmount","type":"uint256","internalType":"uint256"},{"name":"stakedAmount","type":"uint256","internalType":"uint256"},{"name":"convictionLast","type":"uint256","internalType":"uint256"},{"name":"beneficiary","type":"address","internalType":"address"},{"name":"submitter","type":"address","internalType":"address"},{"name":"requestedToken","type":"address","internalType":"address"},{"name":"blockLast","type":"uint256","internalType":"uint256"},{"name":"proposalStatus","type":"uint8","internalType":"enum StrategyStruct.ProposalStatus"},{"name":"metadata","type":"tuple","internalType":"struct Metadata","components":[{"name":"protocol","type":"uint256","internalType":"uint256"},{"name":"pointer","type":"string","internalType":"string"}]}],"stateMutability":"view"},{"type":"function","name":"registerRecipient","inputs":[{"name":"_data","type":"bytes","internalType":"bytes"},{"name":"_sender","type":"address","internalType":"address"}],"outputs":[{"name":"recipientId","type":"address","internalType":"address"}],"stateMutability":"payable"},{"type":"function","name":"registryCommunity","inputs":[],"outputs":[{"name":"","type":"address","internalType":"contract RegistryCommunity"}],"stateMutability":"view"},{"type":"function","name":"setDecay","inputs":[{"name":"_decay","type":"uint256","internalType":"uint256"}],"outputs":[],"stateMutability":"nonpayable"},{"type":"function","name":"setMaxRatio","inputs":[{"name":"_maxRatio","type":"uint256","internalType":"uint256"}],"outputs":[],"stateMutability":"nonpayable"},{"type":"function","name":"setPoolActive","inputs":[{"name":"_active","type":"bool","internalType":"bool"}],"outputs":[],"stateMutability":"nonpayable"},{"type":"function","name":"setRegistryCommunity","inputs":[{"name":"_registryCommunity","type":"address","internalType":"address"}],"outputs":[],"stateMutability":"nonpayable"},{"type":"function","name":"setWeight","inputs":[{"name":"_weight","type":"uint256","internalType":"uint256"}],"outputs":[],"stateMutability":"nonpayable"},{"type":"function","name":"supportProposal","inputs":[{"name":"","type":"tuple[]","internalType":"struct StrategyStruct.ProposalSupport[]","components":[{"name":"proposalId","type":"uint256","internalType":"uint256"},{"name":"deltaSupport","type":"int256","internalType":"int256"}]}],"outputs":[],"stateMutability":"nonpayable"},{"type":"function","name":"supportsInterface","inputs":[{"name":"interfaceId","type":"bytes4","internalType":"bytes4"}],"outputs":[{"name":"","type":"bool","internalType":"bool"}],"stateMutability":"view"},{"type":"function","name":"totalEffectiveActivePoints","inputs":[],"outputs":[{"name":"","type":"uint256","internalType":"uint256"}],"stateMutability":"view"},{"type":"function","name":"totalPointsActivated","inputs":[],"outputs":[{"name":"","type":"uint256","internalType":"uint256"}],"stateMutability":"view"},{"type":"function","name":"totalStaked","inputs":[],"outputs":[{"name":"","type":"uint256","internalType":"uint256"}],"stateMutability":"view"},{"type":"function","name":"totalVoterStakePct","inputs":[{"name":"","type":"address","internalType":"address"}],"outputs":[{"name":"","type":"uint256","internalType":"uint256"}],"stateMutability":"view"},{"type":"function","name":"updateProposalConviction","inputs":[{"name":"proposalId","type":"uint256","internalType":"uint256"}],"outputs":[{"name":"","type":"uint256","internalType":"uint256"}],"stateMutability":"nonpayable"},{"type":"function","name":"voterStakedProposals","inputs":[{"name":"","type":"address","internalType":"address"},{"name":"","type":"uint256","internalType":"uint256"}],"outputs":[{"name":"","type":"uint256","internalType":"uint256"}],"stateMutability":"view"},{"type":"function","name":"weight","inputs":[],"outputs":[{"name":"","type":"uint256","internalType":"uint256"}],"stateMutability":"view"},{"type":"event","name":"Allocated","inputs":[{"name":"recipientId","type":"address","indexed":true,"internalType":"address"},{"name":"amount","type":"uint256","indexed":false,"internalType":"uint256"},{"name":"token","type":"address","indexed":false,"internalType":"address"},{"name":"sender","type":"address","indexed":false,"internalType":"address"}],"anonymous":false},{"type":"event","name":"DecayUpdated","inputs":[{"name":"decay","type":"uint256","indexed":false,"internalType":"uint256"}],"anonymous":false},{"type":"event","name":"Distributed","inputs":[{"name":"proposalId","type":"uint256","indexed":false,"internalType":"uint256"},{"name":"beneficiary","type":"address","indexed":false,"internalType":"address"},{"name":"amount","type":"uint256","indexed":false,"internalType":"uint256"}],"anonymous":false},{"type":"event","name":"Distributed","inputs":[{"name":"recipientId","type":"address","indexed":true,"internalType":"address"},{"name":"recipientAddress","type":"address","indexed":false,"internalType":"address"},{"name":"amount","type":"uint256","indexed":false,"internalType":"uint256"},{"name":"sender","type":"address","indexed":false,"internalType":"address"}],"anonymous":false},{"type":"event","name":"Initialized","inputs":[{"name":"poolId","type":"uint256","indexed":false,"internalType":"uint256"},{"name":"data","type":"bytes","indexed":false,"internalType":"bytes"}],"anonymous":false},{"type":"event","name":"InitializedCV","inputs":[{"name":"poolId","type":"uint256","indexed":false,"internalType":"uint256"},{"name":"data","type":"tuple","indexed":false,"internalType":"struct StrategyStruct.InitializeParams","components":[{"name":"registryCommunity","type":"address","internalType":"address"},{"name":"decay","type":"uint256","internalType":"uint256"},{"name":"maxRatio","type":"uint256","internalType":"uint256"},{"name":"weight","type":"uint256","internalType":"uint256"},{"name":"proposalType","type":"uint8","internalType":"enum StrategyStruct.ProposalType"},{"name":"pointSystem","type":"uint8","internalType":"enum StrategyStruct.PointSystem"},{"name":"pointConfig","type":"tuple","internalType":"struct StrategyStruct.PointSystemConfig","components":[{"name":"pointsPerTokenStaked","type":"uint256","internalType":"uint256"},{"name":"maxAmount","type":"uint256","internalType":"uint256"},{"name":"pointsPerMember","type":"uint256","internalType":"uint256"},{"name":"tokensPerPoint","type":"uint256","internalType":"uint256"}]}]}],"anonymous":false},{"type":"event","name":"MaxRatioUpdated","inputs":[{"name":"maxRatio","type":"uint256","indexed":false,"internalType":"uint256"}],"anonymous":false},{"type":"event","name":"PoolActive","inputs":[{"name":"active","type":"bool","indexed":false,"internalType":"bool"}],"anonymous":false},{"type":"event","name":"PoolAmountIncreased","inputs":[{"name":"amount","type":"uint256","indexed":false,"internalType":"uint256"}],"anonymous":false},{"type":"event","name":"PowerDecreased","inputs":[{"name":"member","type":"address","indexed":false,"internalType":"address"},{"name":"tokensUnStaked","type":"uint256","indexed":false,"internalType":"uint256"},{"name":"pointsToDecrease","type":"uint256","indexed":false,"internalType":"uint256"}],"anonymous":false},{"type":"event","name":"PowerIncreased","inputs":[{"name":"member","type":"address","indexed":false,"internalType":"address"},{"name":"tokensStaked","type":"uint256","indexed":false,"internalType":"uint256"},{"name":"pointsToIncrease","type":"uint256","indexed":false,"internalType":"uint256"}],"anonymous":false},{"type":"event","name":"ProposalCreated","inputs":[{"name":"poolId","type":"uint256","indexed":false,"internalType":"uint256"},{"name":"proposalId","type":"uint256","indexed":false,"internalType":"uint256"}],"anonymous":false},{"type":"event","name":"Registered","inputs":[{"name":"recipientId","type":"address","indexed":true,"internalType":"address"},{"name":"data","type":"bytes","indexed":false,"internalType":"bytes"},{"name":"sender","type":"address","indexed":false,"internalType":"address"}],"anonymous":false},{"type":"event","name":"SupportAdded","inputs":[{"name":"from","type":"address","indexed":false,"internalType":"address"},{"name":"proposalId","type":"uint256","indexed":false,"internalType":"uint256"},{"name":"amount","type":"uint256","indexed":false,"internalType":"uint256"},{"name":"totalStakedAmount","type":"uint256","indexed":false,"internalType":"uint256"},{"name":"convictionLast","type":"uint256","indexed":false,"internalType":"uint256"}],"anonymous":false},{"type":"event","name":"WeightUpdated","inputs":[{"name":"weight","type":"uint256","indexed":false,"internalType":"uint256"}],"anonymous":false},{"type":"error","name":"ALLOCATION_ACTIVE","inputs":[]},{"type":"error","name":"ALLOCATION_NOT_ACTIVE","inputs":[]},{"type":"error","name":"ALLOCATION_NOT_ENDED","inputs":[]},{"type":"error","name":"ALREADY_INITIALIZED","inputs":[]},{"type":"error","name":"AMOUNT_MISMATCH","inputs":[]},{"type":"error","name":"ANCHOR_ERROR","inputs":[]},{"type":"error","name":"ARRAY_MISMATCH","inputs":[]},{"type":"error","name":"AddressCannotBeZero","inputs":[]},{"type":"error","name":"AmountOverMaxRatio","inputs":[]},{"type":"error","name":"CantIncreaseFixedSystem","inputs":[]},{"type":"error","name":"ConvictionUnderMinimumThreshold","inputs":[]},{"type":"error","name":"INVALID","inputs":[]},{"type":"error","name":"INVALID_ADDRESS","inputs":[]},{"type":"error","name":"INVALID_FEE","inputs":[]},{"type":"error","name":"INVALID_METADATA","inputs":[]},{"type":"error","name":"INVALID_REGISTRATION","inputs":[]},{"type":"error","name":"IS_APPROVED_STRATEGY","inputs":[]},{"type":"error","name":"MISMATCH","inputs":[]},{"type":"error","name":"MaxPointsReached","inputs":[]},{"type":"error","name":"NONCE_NOT_AVAILABLE","inputs":[]},{"type":"error","name":"NOT_APPROVED_STRATEGY","inputs":[]},{"type":"error","name":"NOT_ENOUGH_FUNDS","inputs":[]},{"type":"error","name":"NOT_IMPLEMENTED","inputs":[]},{"type":"error","name":"NOT_INITIALIZED","inputs":[]},{"type":"error","name":"NOT_PENDING_OWNER","inputs":[]},{"type":"error","name":"NotEnoughPointsToSupport","inputs":[{"name":"pointsSupport","type":"uint256","internalType":"uint256"},{"name":"pointsBalance","type":"uint256","internalType":"uint256"}]},{"type":"error","name":"NotImplemented","inputs":[]},{"type":"error","name":"OnlyCommunityAllowed","inputs":[]},{"type":"error","name":"POOL_ACTIVE","inputs":[]},{"type":"error","name":"POOL_INACTIVE","inputs":[]},{"type":"error","name":"PoolIdCannotBeZero","inputs":[]},{"type":"error","name":"PoolIsEmpty","inputs":[]},{"type":"error","name":"ProposalDataIsEmpty","inputs":[]},{"type":"error","name":"ProposalIdCannotBeZero","inputs":[]},{"type":"error","name":"ProposalNotActive","inputs":[{"name":"_proposalId","type":"uint256","internalType":"uint256"}]},{"type":"error","name":"ProposalNotInList","inputs":[{"name":"_proposalId","type":"uint256","internalType":"uint256"}]},{"type":"error","name":"ProposalSupportDuplicated","inputs":[{"name":"_proposalId","type":"uint256","internalType":"uint256"},{"name":"index","type":"uint256","internalType":"uint256"}]},{"type":"error","name":"RECIPIENT_ALREADY_ACCEPTED","inputs":[]},{"type":"error","name":"RECIPIENT_ERROR","inputs":[{"name":"recipientId","type":"address","internalType":"address"}]},{"type":"error","name":"RECIPIENT_NOT_ACCEPTED","inputs":[]},{"type":"error","name":"REGISTRATION_NOT_ACTIVE","inputs":[]},{"type":"error","name":"RegistryCannotBeZero","inputs":[]},{"type":"error","name":"SupportUnderflow","inputs":[{"name":"_support","type":"uint256","internalType":"uint256"},{"name":"_delta","type":"int256","internalType":"int256"},{"name":"_result","type":"int256","internalType":"int256"}]},{"type":"error","name":"TokenCannotBeZero","inputs":[]},{"type":"error","name":"TokenNotAllowed","inputs":[]},{"type":"error","name":"UNAUTHORIZED","inputs":[]},{"type":"error","name":"UserCannotBeZero","inputs":[]},{"type":"error","name":"UserIsInactive","inputs":[]},{"type":"error","name":"UserNotInRegistry","inputs":[]},{"type":"error","name":"ZERO_ADDRESS","inputs":[]}],"bytecode":{"object":"0x60c06040526000600b55620000196127106103e8620000b4565b600e553480156200002957600080fd5b50604051620041fc380380620041fc8339810160408190526200004c91620000e0565b604080518082018252600a8152694356537472617465677960b01b6020808301919091526001600160a01b038416608052915183926200008f9183910162000112565b60408051601f19818403018152919052805160209091012060a0525062000162915050565b8082028115828204841417620000da57634e487b7160e01b600052601160045260246000fd5b92915050565b600060208284031215620000f357600080fd5b81516001600160a01b03811681146200010b57600080fd5b9392505050565b600060208083528351808285015260005b81811015620001415785810183015185820160400152820162000123565b506000604082860101526040601f19601f8301168501019250505092915050565b60805160a05161405f6200019d60003960006106000152600081816104ce015281816119cd01528181611a600152611c93015261405f6000f3fe6080604052600436106103345760003560e01c806376365af7116101ae578063bcc5b93b116100eb578063e0dd2c381161008f578063edd146cc1161006c578063edd146cc14610a44578063ef2920fc14610a64578063f5b0dfb714610a77578063fc1711f214610a9757005b8063e0dd2c38146109d7578063e33add93146109f7578063eb11af9314610a1757005b8063d1e36232116100c8578063d1e3623214610964578063d7050f0714610979578063dc96ff2d1461098f578063df868ed3146109bf57005b8063bcc5b93b146108e3578063c7f758a814610919578063cbfc1daa1461094f57005b8063a1aab33f11610152578063aba9ffee1161012f578063aba9ffee1461086b578063abdceae114610881578063b2b878d014610896578063b5f620ce146108c357005b8063a1aab33f146107e5578063a47ff7e5146107fb578063a574cea41461083e57005b8063817b1cd21161018b578063817b1cd214610767578063868c57b81461077d578063950559d71461079d578063a0cf0aea146107bd57005b806376365af71461071c578063782aadff14610732578063814516ad1461075257005b80632ed04b2b1161027c5780634d31d087116102205780635db64b99116101fd5780635db64b991461068f5780636003e414146106bc5780636453d9c4146106dc57806369fa25c4146106fc57005b80634d31d0871461063957806354fac9191461065957806359a5db8b1461066f57005b806338fff2d01161025957806338fff2d0146105c7578063406244d8146105dc57806342fda9c7146105f15780634ab4ba421461062457005b80632ed04b2b14610560578063346db8cb14610580578063351d9f96146105a057005b80630f529ba2116102e357806315cc481e116102c057806315cc481e146104bf5780631aa91a9e146105065780632bbe0cae146105265780632dbd6fdd1461053957005b80630f529ba21461046857806311f22ae31461047f57806313845d0e1461049f57005b806305d191751161031157806305d191751461040e5780630a6f0ee9146104325780630c0512e91461045257005b8063013cf08b1461033d57806301ffc9a71461037c578063058aca44146103ee57005b3661033b57005b005b34801561034957600080fd5b5061035d6103583660046131b3565b610ab7565b6040516103739a9998979695949392919061325a565b60405180910390f35b34801561038857600080fd5b506103de6103973660046132cd565b7fffffffff00000000000000000000000000000000000000000000000000000000167f01ffc9a7000000000000000000000000000000000000000000000000000000001490565b6040519015158152602001610373565b3480156103fa57600080fd5b5061033b610409366004613324565b610bc5565b34801561041a57600080fd5b50610424600e5481565b604051908152602001610373565b34801561043e57600080fd5b5061033b61044d36600461352b565b610bff565b34801561045e57600080fd5b50610424600b5481565b34801561047457600080fd5b506104246298968081565b34801561048b57600080fd5b5061033b61049a3660046131b3565b610c1f565b3480156104ab57600080fd5b506104246104ba3660046135a3565b610c66565b3480156104cb57600080fd5b507f00000000000000000000000000000000000000000000000000000000000000005b6040516001600160a01b039091168152602001610373565b34801561051257600080fd5b506104246105213660046131b3565b610e3d565b6104ee6105343660046135cf565b610ec8565b34801561054557600080fd5b50600f546105539060ff1681565b6040516103739190613631565b34801561056c57600080fd5b5061042461057b3660046135a3565b610eeb565b34801561058c57600080fd5b5061042461059b36600461363f565b610fb5565b3480156105ac57600080fd5b50600a546105ba9060ff1681565b604051610373919061367b565b3480156105d357600080fd5b50600154610424565b3480156105e857600080fd5b50610424600a81565b3480156105fd57600080fd5b507f0000000000000000000000000000000000000000000000000000000000000000610424565b34801561063057600080fd5b50600254610424565b34801561064557600080fd5b506103de610654366004613324565b61105a565b34801561066557600080fd5b5061042460075481565b34801561067b57600080fd5b5061042461068a3660046131b3565b611065565b34801561069b57600080fd5b506104246106aa366004613324565b60056020526000908152604090205481565b3480156106c857600080fd5b506003546104ee906001600160a01b031681565b3480156106e857600080fd5b5061033b6106f7366004613324565b6111bb565b34801561070857600080fd5b5061033b6107173660046131b3565b6112cf565b34801561072857600080fd5b5061042460085481565b34801561073e57600080fd5b5061042461074d3660046135a3565b61130e565b34801561075e57600080fd5b5061033b6113f0565b34801561077357600080fd5b50610424600c5481565b34801561078957600080fd5b506104246107983660046135a3565b6114fa565b3480156107a957600080fd5b506104246107b83660046131b3565b61152b565b3480156107c957600080fd5b506104ee73eeeeeeeeeeeeeeeeeeeeeeeeeeeeeeeeeeeeeeee81565b3480156107f157600080fd5b5061042460095481565b34801561080757600080fd5b5060105460115460125460135461081e9392919084565b604080519485526020850193909352918301526060820152608001610373565b34801561084a57600080fd5b5061085e6108593660046131b3565b611555565b6040516103739190613689565b34801561087757600080fd5b50610424600d5481565b34801561088d57600080fd5b50601054610424565b3480156108a257600080fd5b506108b66108b136600461369c565b611634565b6040516103739190613771565b3480156108cf57600080fd5b5061033b6108de3660046137d7565b61164f565b3480156108ef57600080fd5b506104246108fe366004613324565b6001600160a01b031660009081526005602052604090205490565b34801561092557600080fd5b506109396109343660046131b3565b611658565b6040516103739a999897969594939291906137f4565b34801561095b57600080fd5b50601254610424565b34801561097057600080fd5b5061042461175a565b34801561098557600080fd5b5061042461271081565b34801561099b57600080fd5b506104246109aa3660046131b3565b60009081526004602052604090206002015490565b3480156109cb57600080fd5b5060005460ff166103de565b3480156109e357600080fd5b506104246109f2366004613859565b611775565b348015610a0357600080fd5b5061033b610a1236600461387e565b6117a3565b348015610a2357600080fd5b50610a37610a32366004613324565b6117bc565b6040516103739190613934565b348015610a5057600080fd5b5061033b610a5f36600461394e565b6117c7565b61033b610a723660046135cf565b611904565b348015610a8357600080fd5b5061033b610a923660046131b3565b611922565b348015610aa357600080fd5b5061033b610ab23660046131b3565b61194b565b60046020818152600092835260409283902080546001820154600283015460038401549584015460058501546006860154600787015460088801548b51808d01909c52600a890180548d52600b8a018054999d989c979b979a6001600160a01b039788169a968816999790951697939660ff909316959293919291840191610b3e90613995565b80601f0160208091040260200160405190810160405280929190818152602001828054610b6a90613995565b8015610bb75780601f10610b8c57610100808354040283529160200191610bb7565b820191906000526020600020905b815481529060010190602001808311610b9a57829003601f168201915b50505050508152505090508a565b33610bcf8161198a565b506003805473ffffffffffffffffffffffffffffffffffffffff19166001600160a01b0392909216919091179055565b610c07611a55565b610c0f611aa0565b610c1a838383611adc565b505050565b33610c298161198a565b60088290556040518281527f08e39b387d1f739ce0d2553bb31822392e3f67c62c6c0a215120ab4a6841a8ab906020015b60405180910390a15050565b600080600360009054906101000a90046001600160a01b03166001600160a01b03166378a0b8a96040518163ffffffff1660e01b8152600401602060405180830381865afa158015610cbc573d6000803e3d6000fd5b505050506040513d601f19601f82011682018060405250810190610ce091906139c9565b6003546040516316308e2560e11b81526001600160a01b03878116600483015286921690632c611c4a90602401602060405180830381865afa158015610d2a573d6000803e3d6000fd5b505050506040513d601f19601f82011682018060405250810190610d4e91906139c9565b610d5891906139f8565b610d629190613a0b565b90506000620186a0610d9560106003015484610d7e9190613a1e565b610d9090670de0b6b3a7640000613a40565b611da2565b610d9f9190613a1e565b600354604051637817ee4f60e01b81526001600160a01b03888116600483015230602483015292935060009290911690637817ee4f90604401602060405180830381865afa158015610df5573d6000803e3d6000fd5b505050506040513d601f19601f82011682018060405250810190610e1991906139c9565b601254610e279084906139f8565b610e319190613a0b565b93505050505b92915050565b600081815260046020526040812080548314610e745760405163c1d17bef60e01b8152600481018490526024015b60405180910390fd5b6001600882015460ff166004811115610e8f57610e8f6131cc565b14610eb0576040516344980d8f60e01b815260048101849052602401610e6b565b610ebe818260020154611e12565b6003015492915050565b6000610ed2611a55565b610eda611aa0565b610ee48383611e6d565b9050610e37565b6000806002600f5460ff166003811115610f0757610f076131cc565b1480610f2957506001600f5460ff166003811115610f2757610f276131cc565b145b15610f3f57610f3884846121b5565b9050610f4c565b610f4984846121c5565b90505b80600d6000828254610f5e9190613a0b565b9091555050604080516001600160a01b0386168152602081018590529081018290527f70b752f3fadb6ac131c0ece847fcbb6994ec56ed6411595710fd9b29c6ac6cc1906060015b60405180910390a19392505050565b6000808490506000610fdb629896806080600754901b610fd59190613a1e565b8361235e565b905060806f80000000000000000000000000000000600754629896806110019190613a0b565b61100f84600160801b613a0b565b61101c6298968089613a40565b6110269190613a40565b6110309190613a1e565b61103a8885613a40565b61104491906139f8565b61104e91906139f8565b901c9695505050505050565b6000610e3782612407565b600080600254116110a2576040517fed4421ad00000000000000000000000000000000000000000000000000000000815260040160405180910390fd5b6002546110b26298968084613a40565b816008546110c09190613a40565b116110f7576040517f3bf5ca1400000000000000000000000000000000000000000000000000000000815260040160405180910390fd5b60008161110d8568010000000000000000613a40565b6111179190613a1e565b62989680600854680100000000000000006111329190613a40565b61113c9190613a1e565b6111469190613a0b565b9050604061115261175a565b6007546111629062989680613a0b565b6298968060406111728680613a40565b901c629896806080600954901b6111899190613a1e565b6111939190613a1e565b61119d9190613a40565b6111a79190613a1e565b6111b19190613a40565b901c949350505050565b600354604051637817ee4f60e01b81526001600160a01b03838116600483015230602483015290911690637817ee4f90604401602060405180830381865afa15801561120b573d6000803e3d6000fd5b505050506040513d601f19601f8201168201806040525081019061122f91906139c9565b600d60008282546112409190613a0b565b90915550506003546040517f22bcf9990000000000000000000000000000000000000000000000000000000081526001600160a01b038381166004830152306024830152909116906322bcf99990604401600060405180830381600087803b1580156112ab57600080fd5b505af11580156112bf573d6000803e3d6000fd5b505050506112cc81612427565b50565b336112d98161198a565b60078290556040518281527f592dcd55d60d892e7fcb3ba105013312e99691cd59f91e15f83cb67cb5a505f290602001610c5a565b6000806002600f5460ff16600381111561132a5761132a6131cc565b0361133f5761133883612552565b9050611392565b6001600f5460ff166003811115611358576113586131cc565b03611367576113388484612578565b6003600f5460ff166003811115611380576113806131cc565b036113925761138f8484610c66565b90505b80600d60008282546113a491906139f8565b9091555050604080516001600160a01b0386168152602081018590529081018290527f0b9150e1e54346ed3fa36b977cd5d65dca5a649c737c3174a26bddaadd47667a90606001610fa6565b6003546040517f0d4a8b490000000000000000000000000000000000000000000000000000000081523360048201819052306024830152916001600160a01b031690630d4a8b4990604401600060405180830381600087803b15801561145557600080fd5b505af1158015611469573d6000803e3d6000fd5b5050600354604051637817ee4f60e01b81526001600160a01b0385811660048301523060248301529091169250637817ee4f9150604401602060405180830381865afa1580156114bd573d6000803e3d6000fd5b505050506040513d601f19601f820116820180604052508101906114e191906139c9565b600d60008282546114f291906139f8565b909155505050565b6006602052816000526040600020818154811061151657600080fd5b90600052602060002001600091509150505481565b60006007546298968061153e9190613a0b565b61154b6298968084613a40565b610e379190613a1e565b604080518082019091526000815260606020820152600060046000848152602001908152602001600020905080600a01604051806040016040529081600082015481526020016001820180546115aa90613995565b80601f01602080910402602001604051908101604052809291908181526020018280546115d690613995565b80156116235780601f106115f857610100808354040283529160200191611623565b820191906000526020600020905b81548152906001019060200180831161160657829003601f168201915b505050505081525050915050919050565b606060405163d623472560e01b815260040160405180910390fd5b6112cc81612648565b6000806000806000806000806000806000600460008d81526020019081526020016000209050806001015460001461169c576116978160010154611065565b61169f565b60005b92508060050160009054906101000a90046001600160a01b03168160040160009054906101000a90046001600160a01b03168260060160009054906101000a90046001600160a01b0316836001015484600201548560080160009054906101000a900460ff16866007015487600301548a896009016000336001600160a01b03166001600160a01b03168152602001908152602001600020549a509a509a509a509a509a509a509a509a509a50509193959799509193959799565b6000600e54600d541161176e5750600e5490565b50600d5490565b60008281526004602090815260408083206001600160a01b03851684526009019091528120545b9392505050565b60405163d623472560e01b815260040160405180910390fd5b6000610e3782612690565b6117d0826126b0565b6000818060200190518101906117e69190613acc565b80519091506001600160a01b031661181157604051635df4b1ef60e01b815260040160405180910390fd5b80516003805473ffffffffffffffffffffffffffffffffffffffff19166001600160a01b039092169190911790556020810151600755604081015160085560608101516009556080810151600a805460ff19166001836002811115611878576118786131cc565b021790555060a0810151600f805460ff1916600183600381111561189e5761189e6131cc565b021790555060c081015180516010556020810151601155604080820151601255606090910151601355517f76164f4c577324c2cac6dbb73d6b99b5c05b6894d54aa69bd565b68f9e13bdcf906118f79085908490613b55565b60405180910390a1505050565b61190c611a55565b611914611aa0565b61191e8282612731565b5050565b61192a611a55565b806002600082825461193c91906139f8565b909155506112cc905081612833565b336119558161198a565b60098290556040518281527f30ee8206062f283e56a0af2b02138016bf7442ded26ad68a92a18a9dd246fb4990602001610c5a565b6001546040517f29e40d4b00000000000000000000000000000000000000000000000000000000815260048101919091526001600160a01b0382811660248301527f000000000000000000000000000000000000000000000000000000000000000016906329e40d4b90604401602060405180830381865afa158015611a14573d6000803e3d6000fd5b505050506040513d601f19601f82011682018060405250810190611a389190613be9565b6112cc5760405163075fd2b160e01b815260040160405180910390fd5b336001600160a01b037f00000000000000000000000000000000000000000000000000000000000000001614611a9e5760405163075fd2b160e01b815260040160405180910390fd5b565b600154600003611a9e576040517f3da3f98c00000000000000000000000000000000000000000000000000000000815260040160405180910390fd5b6000825111611b17576040517fc5f7c4c000000000000000000000000000000000000000000000000000000000815260040160405180910390fd5b600082806020019051810190611b2d91906139c9565b905080600003611b69576040517ff881a10d00000000000000000000000000000000000000000000000000000000815260040160405180910390fd5b60008181526004602052604090206001600a5460ff166002811115611b9057611b906131cc565b03611d9b5780548214611bb95760405163c1d17bef60e01b815260048101839052602401610e6b565b6001600882015460ff166004811115611bd457611bd46131cc565b14611bf5576040516344980d8f60e01b815260048101839052602401610e6b565b6000611c0083610e3d565b90506000611c118360010154611065565b90508082108015611c26575060008360010154115b15611c5d576040517fcce7930800000000000000000000000000000000000000000000000000000000815260040160405180910390fd5b6001546040517f068bcd8d0000000000000000000000000000000000000000000000000000000081526000916001600160a01b037f0000000000000000000000000000000000000000000000000000000000000000169163068bcd8d91611cca9160040190815260200190565b600060405180830381865afa158015611ce7573d6000803e3d6000fd5b505050506040513d6000823e601f3d908101601f19168201604052611d0f9190810190613c93565b604081015160048601546001870154929350611d36926001600160a01b0390911690612863565b60088401805460ff191660049081179091558401546001850154604080518881526001600160a01b0390931660208401528201527fa7932e9c92f31e1ed56b29d00bbe669a97484dc24de28dd9c8c0429df7f358479060600160405180910390a15050505b5050505050565b60006003821115611e035750806000611dbc600283613a1e565b611dc79060016139f8565b90505b81811015611dfd57905080600281611de28186613a1e565b611dec91906139f8565b611df69190613a1e565b9050611dca565b50919050565b8115611e0d575060015b919050565b60078201544390811015611e2857611e28613d47565b80836007015403611e3857505050565b6000611e58846007015483611e4d9190613a0b565b856003015485610fb5565b60078501929092555060039092019190915550565b60008083806020019051810190611e849190613d5d565b8051909150600003611ec2576040517f4e79178600000000000000000000000000000000000000000000000000000000815260040160405180910390fd5b6001600a5460ff166002811115611edb57611edb6131cc565b036120975760208101516001600160a01b0316611f24576040517fe622e04000000000000000000000000000000000000000000000000000000000815260040160405180910390fd5b60608101516001600160a01b0316611f68576040517f596a094c00000000000000000000000000000000000000000000000000000000815260040160405180910390fd5b6000306001600160a01b03166315cc481e6040518163ffffffff1660e01b8152600401602060405180830381865afa158015611fa8573d6000803e3d6000fd5b505050506040513d601f19601f82011682018060405250810190611fcc9190613e04565b6001600160a01b031663068bcd8d6001546040518263ffffffff1660e01b8152600401611ffb91815260200190565b600060405180830381865afa158015612018573d6000803e3d6000fd5b505050506040513d6000823e601f3d908101601f191682016040526120409190810190613c93565b604001519050806001600160a01b031682606001516001600160a01b031614612095576040517fa29c498600000000000000000000000000000000000000000000000000000000815260040160405180910390fd5b505b6000600b600081546120a890613e21565b9182905550600081815260046020818152604080842085815560058101805473ffffffffffffffffffffffffffffffffffffffff199081166001600160a01b038d811691909117909255898501519583018054821696831696909617909555606089015160068301805490961691161790935586015160018084019190915560088301805460ff19169091179055436007830155600382019290925560808501518051600a8301908155928101519394509092909190600b84019061216d9082613e88565b505060015460408051918252602082018590527ffcf3b1aa65a464cef2889608f99e8b8c0f680a4be6c2acb9d961c536a5a9294b92500160405180910390a150949350505050565b60105460009061179c9083613a40565b600080601060030154600360009054906101000a90046001600160a01b03166001600160a01b03166378a0b8a96040518163ffffffff1660e01b8152600401602060405180830381865afa158015612221573d6000803e3d6000fd5b505050506040513d601f19601f8201168201806040525081019061224591906139c9565b6003546040516316308e2560e11b81526001600160a01b03888116600483015287921690632c611c4a90602401602060405180830381865afa15801561228f573d6000803e3d6000fd5b505050506040513d601f19601f820116820180604052508101906122b391906139c9565b6122bd9190613a0b565b6122c79190613a0b565b6122d19190613a1e565b600354604051637817ee4f60e01b81526001600160a01b03878116600483015230602483015292935060009290911690637817ee4f90604401602060405180830381865afa158015612327573d6000803e3d6000fd5b505050506040513d601f19601f8201168201806040525081019061234b91906139c9565b6123559083613a0b565b95945050505050565b6000600160801b83106123b35760405162461bcd60e51b815260206004820152601c60248201527f5f612073686f756c64206265206c657373207468616e20325e313238000000006044820152606401610e6b565b50600160801b82825b80156123ff57806001166000036123e1576123d782836128a8565b915060011c6123bc565b6123eb83836128a8565b92506123f8600182613a0b565b90506123bc565b505092915050565b60006001600160a01b0382161561241f576001610e37565b600092915050565b6001600160a01b03811660009081526006602090815260408083208054825181850281018501909352808352919290919083018282801561248757602002820191906000526020600020905b815481526020019060010190808311612473575b5050505050905060005b8151811015610c1a5760008282815181106124ae576124ae613f48565b6020026020010151905060006004600083815260200190815260200160002090506124d8826129a7565b1561253d576001600160a01b0385166000908152600982016020526040812080549082905560028301805491928392612512908490613a0b565b9250508190555080600c600082825461252b9190613a0b565b9091555061253b90508282611e12565b505b5050808061254a90613e21565b915050612491565b60105460009081906125649084613a40565b905061179c670de0b6b3a764000082613a1e565b600080670de0b6b3a7640000601060000154846125959190613a40565b61259f9190613a1e565b600354604051637817ee4f60e01b81526001600160a01b03878116600483015230602483015292935060009290911690637817ee4f90604401602060405180830381865afa1580156125f5573d6000803e3d6000fd5b505050506040513d601f19601f8201168201806040525081019061261991906139c9565b60115490915061262983836139f8565b11156126405760115461263d908290613a0b565b91505b509392505050565b6000805460ff19168215159081179091556040519081527fd94c9bc4d43c51d8dc345a016d8e3d994432fac68e72832e4cf3a616bd8efae0906020015b60405180910390a150565b60006001600160a01b038216156126a8576002610e37565b600392915050565b6126b8611a55565b600154156126f2576040517f439a74c900000000000000000000000000000000000000000000000000000000815260040160405180910390fd5b8060000361272c576040517f7fcce2a900000000000000000000000000000000000000000000000000000000815260040160405180910390fd5b600155565b61273a816129e0565b6003546040517f477a5cc00000000000000000000000000000000000000000000000000000000081526001600160a01b038381166004830152306024830152600092169063477a5cc090604401602060405180830381865afa1580156127a4573d6000803e3d6000fd5b505050506040513d601f19601f820116820180604052508101906127c89190613be9565b905080612801576040517f5fccb67f00000000000000000000000000000000000000000000000000000000815260040160405180910390fd5b6000838060200190518101906128179190613f5e565b90506128238382612b06565b61282d8382612cc9565b50505050565b6040518181527f46aeb5d8770fc4474bc2dfa118fd2595f7fb33ce2cbce6f4e5a3dabfe0f7633990602001612685565b7fffffffffffffffffffffffff11111111111111111111111111111111111111126001600160a01b0384160161289d57610c1a82826130ed565b610c1a838383613109565b6000600160801b8311156129245760405162461bcd60e51b815260206004820152602860248201527f5f612073686f756c64206265206c657373207468616e206f7220657175616c2060448201527f746f20325e3132380000000000000000000000000000000000000000000000006064820152608401610e6b565b600160801b82106129775760405162461bcd60e51b815260206004820152601c60248201527f5f622073686f756c64206265206c657373207468616e20325e313238000000006044820152606401610e6b565b60806f800000000000000000000000000000006129948486613a40565b61299e91906139f8565b901c9392505050565b60008181526004602052604081205415801590610e375750506000908152600460205260409020600501546001600160a01b0316151590565b6001600160a01b038116612a20576040517fd1f2828800000000000000000000000000000000000000000000000000000000815260040160405180910390fd5b6003546001600160a01b0316612a4957604051635df4b1ef60e01b815260040160405180910390fd5b6003546040517fa230c5240000000000000000000000000000000000000000000000000000000081526001600160a01b0383811660048301529091169063a230c52490602401602060405180830381865afa158015612aac573d6000803e3d6000fd5b505050506040513d601f19601f82011682018060405250810190612ad09190613be9565b6112cc576040517f6a5cfb6d00000000000000000000000000000000000000000000000000000000815260040160405180910390fd5b6000805b8251811015612bc357828181518110612b2557612b25613f48565b60200260200101516000015160000315612bb1576000838281518110612b4d57612b4d613f48565b6020026020010151600001519050612b64816129a7565b612b845760405163c1d17bef60e01b815260048101829052602401610e6b565b838281518110612b9657612b96613f48565b60200260200101516020015183612bad9190614009565b9250505b80612bbb81613e21565b915050612b0a565b506001600160a01b038316600090815260056020526040812054612be79083613158565b600354604051637817ee4f60e01b81526001600160a01b03878116600483015230602483015292935060009290911690637817ee4f90604401602060405180830381865afa158015612c3d573d6000803e3d6000fd5b505050506040513d601f19601f82011682018060405250810190612c6191906139c9565b905080821115612ca7576040517fd64182fe0000000000000000000000000000000000000000000000000000000081526004810183905260248101829052604401610e6b565b506001600160a01b039093166000908152600560205260409020929092555050565b606060005b825181101561282d576000838281518110612ceb57612ceb613f48565b60200260200101516000015190508251600003612d475760408051600180825281830190925290602080830190803683370190505092508083600081518110612d3657612d36613f48565b602002602001018181525050612e9a565b6000805b8451811015612dc65782858281518110612d6757612d67613f48565b602002602001015103612db4576040517fadebb154000000000000000000000000000000000000000000000000000000008152600481018490526024810182905260019250604401610e6b565b80612dbe81613e21565b915050612d4b565b5080612e9857600084516001612ddc91906139f8565b67ffffffffffffffff811115612df457612df4613341565b604051908082528060200260200182016040528015612e1d578160200160208202803683370190505b50905060005b8551811015612e7557858181518110612e3e57612e3e613f48565b6020026020010151828281518110612e5857612e58613f48565b602090810291909101015280612e6d81613e21565b915050612e23565b508281865181518110612e8a57612e8a613f48565b602090810291909101015293505b505b6000848381518110612eae57612eae613f48565b60209081029190910181015181015160008481526004835260408082206001600160a01b038b16835260098101909452812054919350612eee8285613158565b6001600160a01b038a1660009081526009850160205260408120829055909150805b6001600160a01b038b16600090815260066020526040902054811015612f875784546001600160a01b038c166000908152600660205260409020805483908110612f5c57612f5c613f48565b906000526020600020015403612f755760019150612f87565b80612f7f81613e21565b915050612f10565b5080612fbd576001600160a01b038a16600090815260066020908152604082208654815460018101835591845291909220909101555b81831161300d57612fce8383613a0b565b600c6000828254612fdf91906139f8565b90915550612fef90508383613a0b565b84600201600082825461300291906139f8565b909155506130519050565b6130178284613a0b565b600c60008282546130289190613a0b565b9091555061303890508284613a0b565b84600201600082825461304b9190613a0b565b90915550505b8360070154600003613068574360078501556130d4565b6130728484611e12565b60028401546003850154604080516001600160a01b038e168152602081018a9052908101859052606081019290925260808201527f0227f642ddcf2042ceaeafadb9d540f432072c00cd4862881667168dcc14710f9060a00160405180910390a15b50505050505080806130e590613e21565b915050612cce565b60008060008084865af161191e5763b12d13eb6000526004601cfd5b81601452806034526fa9059cbb00000000000000000000000060005260206000604460106000875af13d15600160005114171661314e576390b8ec186000526004601cfd5b6000603452505050565b6000806131658385614009565b9050600081121561179c576040517f3bbc7142000000000000000000000000000000000000000000000000000000008152600481018590526024810184905260448101829052606401610e6b565b6000602082840312156131c557600080fd5b5035919050565b634e487b7160e01b600052602160045260246000fd5b600581106131f2576131f26131cc565b9052565b60005b838110156132115781810151838201526020016131f9565b50506000910152565b80518252600060208201516040602085015280518060408601526132458160608701602085016131f6565b601f01601f1916939093016060019392505050565b60006101408c83528b60208401528a60408401528960608401526001600160a01b03808a16608085015280891660a085015280881660c0850152508560e08401526132a96101008401866131e2565b806101208401526132bc8184018561321a565b9d9c50505050505050505050505050565b6000602082840312156132df57600080fd5b81357fffffffff000000000000000000000000000000000000000000000000000000008116811461179c57600080fd5b6001600160a01b03811681146112cc57600080fd5b60006020828403121561333657600080fd5b813561179c8161330f565b634e487b7160e01b600052604160045260246000fd5b6040805190810167ffffffffffffffff8111828210171561337a5761337a613341565b60405290565b60405160e0810167ffffffffffffffff8111828210171561337a5761337a613341565b60405160c0810167ffffffffffffffff8111828210171561337a5761337a613341565b60405160a0810167ffffffffffffffff8111828210171561337a5761337a613341565b604051601f8201601f1916810167ffffffffffffffff8111828210171561341257613412613341565b604052919050565b600067ffffffffffffffff82111561343457613434613341565b5060051b60200190565b600082601f83011261344f57600080fd5b8135602061346461345f8361341a565b6133e9565b82815260059290921b8401810191818101908684111561348357600080fd5b8286015b848110156134a757803561349a8161330f565b8352918301918301613487565b509695505050505050565b600067ffffffffffffffff8211156134cc576134cc613341565b50601f01601f191660200190565b600082601f8301126134eb57600080fd5b81356134f961345f826134b2565b81815284602083860101111561350e57600080fd5b816020850160208301376000918101602001919091529392505050565b60008060006060848603121561354057600080fd5b833567ffffffffffffffff8082111561355857600080fd5b6135648783880161343e565b9450602086013591508082111561357a57600080fd5b50613587868287016134da565b92505060408401356135988161330f565b809150509250925092565b600080604083850312156135b657600080fd5b82356135c18161330f565b946020939093013593505050565b600080604083850312156135e257600080fd5b823567ffffffffffffffff8111156135f957600080fd5b613605858286016134da565b92505060208301356136168161330f565b809150509250929050565b600481106131f2576131f26131cc565b60208101610e378284613621565b60008060006060848603121561365457600080fd5b505081359360208301359350604090920135919050565b600381106131f2576131f26131cc565b60208101610e37828461366b565b60208152600061179c602083018461321a565b600080604083850312156136af57600080fd5b823567ffffffffffffffff808211156136c757600080fd5b6136d38683870161343e565b93506020915081850135818111156136ea57600080fd5b8501601f810187136136fb57600080fd5b803561370961345f8261341a565b81815260059190911b8201840190848101908983111561372857600080fd5b8584015b83811015613760578035868111156137445760008081fd5b6137528c89838901016134da565b84525091860191860161372c565b508096505050505050509250929050565b602080825282518282018190526000919060409081850190868401855b828110156137bc57815180516001600160a01b0316855286015186850152928401929085019060010161378e565b5091979650505050505050565b80151581146112cc57600080fd5b6000602082840312156137e957600080fd5b813561179c816137c9565b6001600160a01b038b811682528a81166020830152891660408201526060810188905260808101879052610140810161383060a08301886131e2565b8560c08301528460e083015283610100830152826101208301529b9a5050505050505050505050565b6000806040838503121561386c57600080fd5b8235915060208301356136168161330f565b6000602080838503121561389157600080fd5b823567ffffffffffffffff8111156138a857600080fd5b8301601f810185136138b957600080fd5b80356138c761345f8261341a565b81815260069190911b820183019083810190878311156138e657600080fd5b928401925b8284101561392957604084890312156139045760008081fd5b61390c613357565b8435815285850135868201528252604090930192908401906138eb565b979650505050505050565b6020810160078310613948576139486131cc565b91905290565b6000806040838503121561396157600080fd5b82359150602083013567ffffffffffffffff81111561397f57600080fd5b61398b858286016134da565b9150509250929050565b600181811c908216806139a957607f821691505b602082108103611dfd57634e487b7160e01b600052602260045260246000fd5b6000602082840312156139db57600080fd5b5051919050565b634e487b7160e01b600052601160045260246000fd5b80820180821115610e3757610e376139e2565b81810381811115610e3757610e376139e2565b600082613a3b57634e487b7160e01b600052601260045260246000fd5b500490565b8082028115828204841417610e3757610e376139e2565b805160048110611e0d57600080fd5b600060808284031215613a7857600080fd5b6040516080810181811067ffffffffffffffff82111715613a9b57613a9b613341565b8060405250809150825181526020830151602082015260408301516040820152606083015160608201525092915050565b60006101408284031215613adf57600080fd5b613ae7613380565b8251613af28161330f565b80825250602083015160208201526040830151604082015260608301516060820152608083015160038110613b2657600080fd5b6080820152613b3760a08401613a57565b60a0820152613b498460c08501613a66565b60c08201529392505050565b6000610160820190508382526001600160a01b0383511660208301526020830151604083015260408301516060830152606083015160808301526080830151613ba160a084018261366b565b5060a0830151613bb460c0840182613621565b5060c09290920151805160e0830152602081015161010083015260408101516101208301526060015161014090910152919050565b600060208284031215613bfb57600080fd5b815161179c816137c9565b600060408284031215613c1857600080fd5b613c20613357565b905081518152602082015167ffffffffffffffff811115613c4057600080fd5b8201601f81018413613c5157600080fd5b8051613c5f61345f826134b2565b818152856020838501011115613c7457600080fd5b613c858260208301602086016131f6565b602084015250909392505050565b600060208284031215613ca557600080fd5b815167ffffffffffffffff80821115613cbd57600080fd5b9083019060c08286031215613cd157600080fd5b613cd96133a3565b825181526020830151613ceb8161330f565b60208201526040830151613cfe8161330f565b6040820152606083015182811115613d1557600080fd5b613d2187828601613c06565b6060830152506080830151608082015260a083015160a082015280935050505092915050565b634e487b7160e01b600052600160045260246000fd5b600060208284031215613d6f57600080fd5b815167ffffffffffffffff80821115613d8757600080fd5b9083019060a08286031215613d9b57600080fd5b613da36133c6565b825181526020830151613db58161330f565b6020820152604083810151908201526060830151613dd28161330f565b6060820152608083015182811115613de957600080fd5b613df587828601613c06565b60808301525095945050505050565b600060208284031215613e1657600080fd5b815161179c8161330f565b600060018201613e3357613e336139e2565b5060010190565b601f821115610c1a57600081815260208120601f850160051c81016020861015613e615750805b601f850160051c820191505b81811015613e8057828155600101613e6d565b505050505050565b815167ffffffffffffffff811115613ea257613ea2613341565b613eb681613eb08454613995565b84613e3a565b602080601f831160018114613eeb5760008415613ed35750858301515b600019600386901b1c1916600185901b178555613e80565b600085815260208120601f198616915b82811015613f1a57888601518255948401946001909101908401613efb565b5085821015613f385787850151600019600388901b60f8161c191681555b5050505050600190811b01905550565b634e487b7160e01b600052603260045260246000fd5b60006020808385031215613f7157600080fd5b825167ffffffffffffffff811115613f8857600080fd5b8301601f81018513613f9957600080fd5b8051613fa761345f8261341a565b81815260069190911b82018301908381019087831115613fc657600080fd5b928401925b828410156139295760408489031215613fe45760008081fd5b613fec613357565b845181528585015186820152825260409093019290840190613fcb565b80820182811260008312801582168215821617156123ff576123ff6139e256fea26469706673582212204e7f2a5e0e2205721423fe750f59e6eb7a5ae512dcd54bd838b4fb64a2dc938364736f6c63430008130033","linkReferences":{}},"methodIdentifiers":{"D()":"0f529ba2","MAX_STAKED_PROPOSALS()":"406244d8","NATIVE()":"a0cf0aea","PRECISION_SCALE()":"d7050f07","activatePoints()":"814516ad","allocate(bytes,address)":"ef2920fc","calculateConviction(uint256,uint256,uint256)":"346db8cb","calculateThreshold(uint256)":"59a5db8b","deactivatePoints(address)":"6453d9c4","decay()":"54fac919","decreasePower(address,uint256)":"2ed04b2b","distribute(address[],bytes,address)":"0a6f0ee9","getAllo()":"15cc481e","getMaxConviction(uint256)":"950559d7","getMetadata(uint256)":"a574cea4","getPayouts(address[],bytes[])":"b2b878d0","getPointsPerMember()":"cbfc1daa","getPointsPerTokenStaked()":"abdceae1","getPoolAmount()":"4ab4ba42","getPoolId()":"38fff2d0","getProposal(uint256)":"c7f758a8","getProposalStakedAmount(uint256)":"dc96ff2d","getProposalVoterStake(uint256,address)":"e0dd2c38","getRecipientStatus(address)":"eb11af93","getStrategyId()":"42fda9c7","getTotalVoterStakePct(address)":"bcc5b93b","increasePoolAmount(uint256)":"f5b0dfb7","increasePower(address,uint256)":"782aadff","increasePowerQuadratic(address,uint256)":"13845d0e","initialize(uint256,bytes)":"edd146cc","isPoolActive()":"df868ed3","isValidAllocator(address)":"4d31d087","maxRatio()":"76365af7","minPointsActivated()":"05d19175","pointConfig()":"a47ff7e5","pointSystem()":"2dbd6fdd","proposalCounter()":"0c0512e9","proposalType()":"351d9f96","proposals(uint256)":"013cf08b","registerRecipient(bytes,address)":"2bbe0cae","registryCommunity()":"6003e414","setDecay(uint256)":"69fa25c4","setMaxRatio(uint256)":"11f22ae3","setPoolActive(bool)":"b5f620ce","setRegistryCommunity(address)":"058aca44","setWeight(uint256)":"fc1711f2","supportProposal((uint256,int256)[])":"e33add93","supportsInterface(bytes4)":"01ffc9a7","totalEffectiveActivePoints()":"d1e36232","totalPointsActivated()":"aba9ffee","totalStaked()":"817b1cd2","totalVoterStakePct(address)":"5db64b99","updateProposalConviction(uint256)":"1aa91a9e","voterStakedProposals(address,uint256)":"868c57b8","weight()":"a1aab33f"},"id":97}