{"abi":[{"type":"fallback","stateMutability":"payable"},{"type":"receive","stateMutability":"payable"},{"type":"function","name":"DISPUTE_COOLDOWN_SEC","inputs":[],"outputs":[{"name":"","type":"uint256","internalType":"uint256"}],"stateMutability":"view"},{"type":"function","name":"NATIVE","inputs":[],"outputs":[{"name":"","type":"address","internalType":"address"}],"stateMutability":"view"},{"type":"function","name":"RULING_OPTIONS","inputs":[],"outputs":[{"name":"","type":"uint256","internalType":"uint256"}],"stateMutability":"view"},{"type":"function","name":"activatePoints","inputs":[],"outputs":[],"stateMutability":"nonpayable"},{"type":"function","name":"allocate","inputs":[{"name":"_data","type":"bytes","internalType":"bytes"},{"name":"_sender","type":"address","internalType":"address"}],"outputs":[],"stateMutability":"payable"},{"type":"function","name":"arbitrableConfigs","inputs":[{"name":"","type":"uint256","internalType":"uint256"}],"outputs":[{"name":"arbitrator","type":"address","internalType":"contract IArbitrator"},{"name":"tribunalSafe","type":"address","internalType":"address"},{"name":"submitterCollateralAmount","type":"uint256","internalType":"uint256"},{"name":"challengerCollateralAmount","type":"uint256","internalType":"uint256"},{"name":"defaultRuling","type":"uint256","internalType":"uint256"},{"name":"defaultRulingTimeout","type":"uint256","internalType":"uint256"}],"stateMutability":"view"},{"type":"function","name":"batchEvaluateStreams","inputs":[],"outputs":[],"stateMutability":"nonpayable"},{"type":"function","name":"calculateProposalConviction","inputs":[{"name":"_proposalId","type":"uint256","internalType":"uint256"}],"outputs":[{"name":"","type":"uint256","internalType":"uint256"}],"stateMutability":"view"},{"type":"function","name":"calculateThreshold","inputs":[{"name":"_requestedAmount","type":"uint256","internalType":"uint256"}],"outputs":[{"name":"","type":"uint256","internalType":"uint256"}],"stateMutability":"view"},{"type":"function","name":"cancelProposal","inputs":[{"name":"","type":"uint256","internalType":"uint256"}],"outputs":[],"stateMutability":"nonpayable"},{"type":"function","name":"cloneNonce","inputs":[],"outputs":[{"name":"","type":"uint256","internalType":"uint256"}],"stateMutability":"view"},{"type":"function","name":"collateralVault","inputs":[],"outputs":[{"name":"","type":"address","internalType":"contract ICollateralVault"}],"stateMutability":"view"},{"type":"function","name":"connectSuperfluidGDA","inputs":[{"name":"","type":"address","internalType":"address"}],"outputs":[],"stateMutability":"nonpayable"},{"type":"function","name":"currentArbitrableConfigVersion","inputs":[],"outputs":[{"name":"","type":"uint256","internalType":"uint256"}],"stateMutability":"view"},{"type":"function","name":"cvParams","inputs":[],"outputs":[{"name":"maxRatio","type":"uint256","internalType":"uint256"},{"name":"weight","type":"uint256","internalType":"uint256"},{"name":"decay","type":"uint256","internalType":"uint256"},{"name":"minThresholdPoints","type":"uint256","internalType":"uint256"}],"stateMutability":"view"},{"type":"function","name":"cvVault","inputs":[],"outputs":[{"name":"","type":"address","internalType":"contract ICVVault"}],"stateMutability":"view"},{"type":"function","name":"deactivatePoints","inputs":[],"outputs":[],"stateMutability":"nonpayable"},{"type":"function","name":"deactivatePoints","inputs":[{"name":"_member","type":"address","internalType":"address"}],"outputs":[],"stateMutability":"nonpayable"},{"type":"function","name":"decreasePower","inputs":[{"name":"_member","type":"address","internalType":"address"},{"name":"_amountToUnstake","type":"uint256","internalType":"uint256"}],"outputs":[{"name":"","type":"uint256","internalType":"uint256"}],"stateMutability":"nonpayable"},{"type":"function","name":"diamondCut","inputs":[{"name":"_diamondCut","type":"tuple[]","internalType":"struct IDiamond.FacetCut[]","components":[{"name":"facetAddress","type":"address","internalType":"address"},{"name":"action","type":"uint8","internalType":"enum IDiamond.FacetCutAction"},{"name":"functionSelectors","type":"bytes4[]","internalType":"bytes4[]"}]},{"name":"_init","type":"address","internalType":"address"},{"name":"_calldata","type":"bytes","internalType":"bytes"}],"outputs":[],"stateMutability":"nonpayable"},{"type":"function","name":"disconnectSuperfluidGDA","inputs":[{"name":"","type":"address","internalType":"address"}],"outputs":[],"stateMutability":"nonpayable"},{"type":"function","name":"disputeCount","inputs":[],"outputs":[{"name":"","type":"uint64","internalType":"uint64"}],"stateMutability":"view"},{"type":"function","name":"disputeIdToProposalId","inputs":[{"name":"","type":"uint256","internalType":"uint256"}],"outputs":[{"name":"","type":"uint256","internalType":"uint256"}],"stateMutability":"view"},{"type":"function","name":"disputeProposal","inputs":[{"name":"","type":"uint256","internalType":"uint256"},{"name":"","type":"string","internalType":"string"},{"name":"","type":"bytes","internalType":"bytes"}],"outputs":[{"name":"","type":"uint256","internalType":"uint256"}],"stateMutability":"payable"},{"type":"function","name":"distribute","inputs":[{"name":"","type":"address[]","internalType":"address[]"},{"name":"","type":"bytes","internalType":"bytes"},{"name":"","type":"address","internalType":"address"}],"outputs":[],"stateMutability":"nonpayable"},{"type":"function","name":"evaluateProposalStream","inputs":[{"name":"","type":"uint256","internalType":"uint256"}],"outputs":[],"stateMutability":"nonpayable"},{"type":"function","name":"getAllo","inputs":[],"outputs":[{"name":"","type":"address","internalType":"contract IAllo"}],"stateMutability":"view"},{"type":"function","name":"getArbitrableConfig","inputs":[],"outputs":[{"name":"arbitrator","type":"address","internalType":"contract IArbitrator"},{"name":"tribunalSafe","type":"address","internalType":"address"},{"name":"submitterCollateralAmount","type":"uint256","internalType":"uint256"},{"name":"challengerCollateralAmount","type":"uint256","internalType":"uint256"},{"name":"defaultRuling","type":"uint256","internalType":"uint256"},{"name":"defaultRulingTimeout","type":"uint256","internalType":"uint256"}],"stateMutability":"view"},{"type":"function","name":"getGDA","inputs":[],"outputs":[{"name":"","type":"address","internalType":"address"}],"stateMutability":"nonpayable"},{"type":"function","name":"getPointSystem","inputs":[],"outputs":[{"name":"","type":"uint8","internalType":"enum PointSystem"}],"stateMutability":"view"},{"type":"function","name":"getPoolAmount","inputs":[],"outputs":[{"name":"","type":"uint256","internalType":"uint256"}],"stateMutability":"view"},{"type":"function","name":"getPoolId","inputs":[],"outputs":[{"name":"","type":"uint256","internalType":"uint256"}],"stateMutability":"view"},{"type":"function","name":"getProposal","inputs":[{"name":"_proposalId","type":"uint256","internalType":"uint256"}],"outputs":[{"name":"submitter","type":"address","internalType":"address"},{"name":"beneficiary","type":"address","internalType":"address"},{"name":"requestedToken","type":"address","internalType":"address"},{"name":"requestedAmount","type":"uint256","internalType":"uint256"},{"name":"stakedAmount","type":"uint256","internalType":"uint256"},{"name":"proposalStatus","type":"uint8","internalType":"enum ProposalStatus"},{"name":"blockLast","type":"uint256","internalType":"uint256"},{"name":"convictionLast","type":"uint256","internalType":"uint256"},{"name":"threshold","type":"uint256","internalType":"uint256"},{"name":"voterStakedPoints","type":"uint256","internalType":"uint256"},{"name":"arbitrableConfigVersion","type":"uint256","internalType":"uint256"},{"name":"protocol","type":"uint256","internalType":"uint256"}],"stateMutability":"view"},{"type":"function","name":"getProposalStakedAmount","inputs":[{"name":"_proposalId","type":"uint256","internalType":"uint256"}],"outputs":[{"name":"","type":"uint256","internalType":"uint256"}],"stateMutability":"view"},{"type":"function","name":"getProposalVoterStake","inputs":[{"name":"_proposalId","type":"uint256","internalType":"uint256"},{"name":"_voter","type":"address","internalType":"address"}],"outputs":[{"name":"","type":"uint256","internalType":"uint256"}],"stateMutability":"view"},{"type":"function","name":"getStreamState","inputs":[{"name":"","type":"uint256","internalType":"uint256"}],"outputs":[{"name":"","type":"bool","internalType":"bool"},{"name":"","type":"uint128","internalType":"uint128"},{"name":"","type":"uint256","internalType":"uint256"},{"name":"","type":"address","internalType":"address"}],"stateMutability":"nonpayable"},{"type":"function","name":"harvestYDS","inputs":[],"outputs":[],"stateMutability":"nonpayable"},{"type":"function","name":"increasePower","inputs":[{"name":"_member","type":"address","internalType":"address"},{"name":"_amountToStake","type":"uint256","internalType":"uint256"}],"outputs":[{"name":"","type":"uint256","internalType":"uint256"}],"stateMutability":"nonpayable"},{"type":"function","name":"init","inputs":[{"name":"_allo","type":"address","internalType":"address"},{"name":"_collateralVaultTemplate","type":"address","internalType":"address"},{"name":"_cvVaultTemplate","type":"address","internalType":"address"},{"name":"_owner","type":"address","internalType":"address"}],"outputs":[],"stateMutability":"nonpayable"},{"type":"function","name":"init","inputs":[{"name":"_allo","type":"address","internalType":"address"},{"name":"_name","type":"string","internalType":"string"},{"name":"_owner","type":"address","internalType":"address"}],"outputs":[],"stateMutability":"nonpayable"},{"type":"function","name":"initialize","inputs":[{"name":"initialOwner","type":"address","internalType":"address"}],"outputs":[],"stateMutability":"nonpayable"},{"type":"function","name":"initialize","inputs":[{"name":"_poolId","type":"uint256","internalType":"uint256"},{"name":"_data","type":"bytes","internalType":"bytes"}],"outputs":[],"stateMutability":"nonpayable"},{"type":"function","name":"initializeGDA","inputs":[{"name":"","type":"address","internalType":"address"}],"outputs":[],"stateMutability":"nonpayable"},{"type":"function","name":"isPoolActive","inputs":[],"outputs":[{"name":"","type":"bool","internalType":"bool"}],"stateMutability":"view"},{"type":"function","name":"owner","inputs":[],"outputs":[{"name":"","type":"address","internalType":"address"}],"stateMutability":"view"},{"type":"function","name":"pointConfig","inputs":[],"outputs":[{"name":"maxAmount","type":"uint256","internalType":"uint256"}],"stateMutability":"view"},{"type":"function","name":"pointSystem","inputs":[],"outputs":[{"name":"","type":"uint8","internalType":"enum PointSystem"}],"stateMutability":"view"},{"type":"function","name":"proposalCounter","inputs":[],"outputs":[{"name":"","type":"uint256","internalType":"uint256"}],"stateMutability":"view"},{"type":"function","name":"proposalType","inputs":[],"outputs":[{"name":"","type":"uint8","internalType":"enum ProposalType"}],"stateMutability":"view"},{"type":"function","name":"proposals","inputs":[{"name":"","type":"uint256","internalType":"uint256"}],"outputs":[{"name":"proposalId","type":"uint256","internalType":"uint256"},{"name":"requestedAmount","type":"uint256","internalType":"uint256"},{"name":"stakedAmount","type":"uint256","internalType":"uint256"},{"name":"convictionLast","type":"uint256","internalType":"uint256"},{"name":"beneficiary","type":"address","internalType":"address"},{"name":"submitter","type":"address","internalType":"address"},{"name":"requestedToken","type":"address","internalType":"address"},{"name":"blockLast","type":"uint256","internalType":"uint256"},{"name":"proposalStatus","type":"uint8","internalType":"enum ProposalStatus"},{"name":"metadata","type":"tuple","internalType":"struct Metadata","components":[{"name":"protocol","type":"uint256","internalType":"uint256"},{"name":"pointer","type":"string","internalType":"string"}]},{"name":"disputeInfo","type":"tuple","internalType":"struct ProposalDisputeInfo","components":[{"name":"disputeId","type":"uint256","internalType":"uint256"},{"name":"disputeTimestamp","type":"uint256","internalType":"uint256"},{"name":"challenger","type":"address","internalType":"address"}]},{"name":"lastDisputeCompletion","type":"uint256","internalType":"uint256"},{"name":"arbitrableConfigVersion","type":"uint256","internalType":"uint256"}],"stateMutability":"view"},{"type":"function","name":"proxiableUUID","inputs":[],"outputs":[{"name":"","type":"bytes32","internalType":"bytes32"}],"stateMutability":"view"},{"type":"function","name":"proxyOwner","inputs":[],"outputs":[{"name":"","type":"address","internalType":"address"}],"stateMutability":"view"},{"type":"function","name":"rebalanceYieldStreams","inputs":[],"outputs":[],"stateMutability":"nonpayable"},{"type":"function","name":"registerRecipient","inputs":[{"name":"_data","type":"bytes","internalType":"bytes"},{"name":"_sender","type":"address","internalType":"address"}],"outputs":[{"name":"","type":"address","internalType":"address"}],"stateMutability":"payable"},{"type":"function","name":"registryCommunity","inputs":[],"outputs":[{"name":"","type":"address","internalType":"contract IVotingPowerRegistry"}],"stateMutability":"view"},{"type":"function","name":"renounceOwnership","inputs":[],"outputs":[],"stateMutability":"nonpayable"},{"type":"function","name":"rule","inputs":[{"name":"","type":"uint256","internalType":"uint256"},{"name":"","type":"uint256","internalType":"uint256"}],"outputs":[],"stateMutability":"nonpayable"},{"type":"function","name":"setCollateralVaultTemplate","inputs":[{"name":"template","type":"address","internalType":"address"}],"outputs":[],"stateMutability":"nonpayable"},{"type":"function","name":"setPoolActive","inputs":[{"name":"_active","type":"bool","internalType":"bool"}],"outputs":[],"stateMutability":"nonpayable"},{"type":"function","name":"setPoolParams","inputs":[{"name":"","type":"tuple","internalType":"struct ArbitrableConfig","components":[{"name":"arbitrator","type":"address","internalType":"contract IArbitrator"},{"name":"tribunalSafe","type":"address","internalType":"address"},{"name":"submitterCollateralAmount","type":"uint256","internalType":"uint256"},{"name":"challengerCollateralAmount","type":"uint256","internalType":"uint256"},{"name":"defaultRuling","type":"uint256","internalType":"uint256"},{"name":"defaultRulingTimeout","type":"uint256","internalType":"uint256"}]},{"name":"","type":"tuple","internalType":"struct CVParams","components":[{"name":"maxRatio","type":"uint256","internalType":"uint256"},{"name":"weight","type":"uint256","internalType":"uint256"},{"name":"decay","type":"uint256","internalType":"uint256"},{"name":"minThresholdPoints","type":"uint256","internalType":"uint256"}]},{"name":"","type":"uint256","internalType":"uint256"},{"name":"","type":"address[]","internalType":"address[]"},{"name":"","type":"address[]","internalType":"address[]"},{"name":"","type":"address","internalType":"address"}],"outputs":[],"stateMutability":"nonpayable"},{"type":"function","name":"setStreamingEnabled","inputs":[{"name":"","type":"bool","internalType":"bool"}],"outputs":[],"stateMutability":"nonpayable"},{"type":"function","name":"setYDSStrategy","inputs":[{"name":"","type":"address","internalType":"address"}],"outputs":[],"stateMutability":"nonpayable"},{"type":"function","name":"startStream","inputs":[{"name":"","type":"uint256","internalType":"uint256"},{"name":"","type":"address","internalType":"address"},{"name":"","type":"uint128","internalType":"uint128"}],"outputs":[],"stateMutability":"nonpayable"},{"type":"function","name":"stopStream","inputs":[{"name":"","type":"uint256","internalType":"uint256"}],"outputs":[],"stateMutability":"nonpayable"},{"type":"function","name":"superfluidToken","inputs":[],"outputs":[{"name":"","type":"address","internalType":"contract ISuperToken"}],"stateMutability":"view"},{"type":"function","name":"supportsInterface","inputs":[{"name":"interfaceId","type":"bytes4","internalType":"bytes4"}],"outputs":[{"name":"","type":"bool","internalType":"bool"}],"stateMutability":"view"},{"type":"function","name":"sybilScorer","inputs":[],"outputs":[{"name":"","type":"address","internalType":"contract ISybilScorer"}],"stateMutability":"view"},{"type":"function","name":"totalPointsActivated","inputs":[],"outputs":[{"name":"","type":"uint256","internalType":"uint256"}],"stateMutability":"view"},{"type":"function","name":"totalStaked","inputs":[],"outputs":[{"name":"","type":"uint256","internalType":"uint256"}],"stateMutability":"view"},{"type":"function","name":"totalVoterStakePct","inputs":[{"name":"","type":"address","internalType":"address"}],"outputs":[{"name":"","type":"uint256","internalType":"uint256"}],"stateMutability":"view"},{"type":"function","name":"transferOwnership","inputs":[{"name":"newOwner","type":"address","internalType":"address"}],"outputs":[],"stateMutability":"nonpayable"},{"type":"function","name":"updateProposalConviction","inputs":[{"name":"proposalId","type":"uint256","internalType":"uint256"}],"outputs":[{"name":"","type":"uint256","internalType":"uint256"}],"stateMutability":"nonpayable"},{"type":"function","name":"updateStream","inputs":[{"name":"","type":"uint256","internalType":"uint256"},{"name":"","type":"uint128","internalType":"uint128"}],"outputs":[],"stateMutability":"nonpayable"},{"type":"function","name":"upgradeTo","inputs":[{"name":"newImplementation","type":"address","internalType":"address"}],"outputs":[],"stateMutability":"nonpayable"},{"type":"function","name":"upgradeToAndCall","inputs":[{"name":"newImplementation","type":"address","internalType":"address"},{"name":"data","type":"bytes","internalType":"bytes"}],"outputs":[],"stateMutability":"payable"},{"type":"function","name":"voterStakedProposals","inputs":[{"name":"","type":"address","internalType":"address"},{"name":"","type":"uint256","internalType":"uint256"}],"outputs":[{"name":"","type":"uint256","internalType":"uint256"}],"stateMutability":"view"},{"type":"event","name":"AdminChanged","inputs":[{"name":"previousAdmin","type":"address","indexed":false,"internalType":"address"},{"name":"newAdmin","type":"address","indexed":false,"internalType":"address"}],"anonymous":false},{"type":"event","name":"Allocated","inputs":[{"name":"recipientId","type":"address","indexed":true,"internalType":"address"},{"name":"amount","type":"uint256","indexed":false,"internalType":"uint256"},{"name":"token","type":"address","indexed":false,"internalType":"address"},{"name":"sender","type":"address","indexed":false,"internalType":"address"}],"anonymous":false},{"type":"event","name":"AllowlistMembersAdded","inputs":[{"name":"poolId","type":"uint256","indexed":false,"internalType":"uint256"},{"name":"members","type":"address[]","indexed":false,"internalType":"address[]"}],"anonymous":false},{"type":"event","name":"AllowlistMembersRemoved","inputs":[{"name":"poolId","type":"uint256","indexed":false,"internalType":"uint256"},{"name":"members","type":"address[]","indexed":false,"internalType":"address[]"}],"anonymous":false},{"type":"event","name":"ArbitrableConfigUpdated","inputs":[{"name":"currentArbitrableConfigVersion","type":"uint256","indexed":false,"internalType":"uint256"},{"name":"arbitrator","type":"address","indexed":false,"internalType":"contract IArbitrator"},{"name":"tribunalSafe","type":"address","indexed":false,"internalType":"address"},{"name":"submitterCollateralAmount","type":"uint256","indexed":false,"internalType":"uint256"},{"name":"challengerCollateralAmount","type":"uint256","indexed":false,"internalType":"uint256"},{"name":"defaultRuling","type":"uint256","indexed":false,"internalType":"uint256"},{"name":"defaultRulingTimeout","type":"uint256","indexed":false,"internalType":"uint256"}],"anonymous":false},{"type":"event","name":"BeaconUpgraded","inputs":[{"name":"beacon","type":"address","indexed":true,"internalType":"address"}],"anonymous":false},{"type":"event","name":"CVParamsUpdated","inputs":[{"name":"cvParams","type":"tuple","indexed":false,"internalType":"struct CVParams","components":[{"name":"maxRatio","type":"uint256","internalType":"uint256"},{"name":"weight","type":"uint256","internalType":"uint256"},{"name":"decay","type":"uint256","internalType":"uint256"},{"name":"minThresholdPoints","type":"uint256","internalType":"uint256"}]}],"anonymous":false},{"type":"event","name":"DisputeRequest","inputs":[{"name":"_arbitrator","type":"address","indexed":true,"internalType":"contract IArbitrator"},{"name":"_arbitrableDisputeID","type":"uint256","indexed":true,"internalType":"uint256"},{"name":"_externalDisputeID","type":"uint256","indexed":false,"internalType":"uint256"},{"name":"_templateId","type":"uint256","indexed":false,"internalType":"uint256"},{"name":"_templateUri","type":"string","indexed":false,"internalType":"string"}],"anonymous":false},{"type":"event","name":"Distributed","inputs":[{"name":"proposalId","type":"uint256","indexed":false,"internalType":"uint256"},{"name":"beneficiary","type":"address","indexed":false,"internalType":"address"},{"name":"amount","type":"uint256","indexed":false,"internalType":"uint256"}],"anonymous":false},{"type":"event","name":"Distributed","inputs":[{"name":"recipientId","type":"address","indexed":true,"internalType":"address"},{"name":"recipientAddress","type":"address","indexed":false,"internalType":"address"},{"name":"amount","type":"uint256","indexed":false,"internalType":"uint256"},{"name":"sender","type":"address","indexed":false,"internalType":"address"}],"anonymous":false},{"type":"event","name":"Initialized","inputs":[{"name":"poolId","type":"uint256","indexed":false,"internalType":"uint256"},{"name":"data","type":"bytes","indexed":false,"internalType":"bytes"}],"anonymous":false},{"type":"event","name":"Initialized","inputs":[{"name":"version","type":"uint8","indexed":false,"internalType":"uint8"}],"anonymous":false},{"type":"event","name":"InitializedCV","inputs":[{"name":"poolId","type":"uint256","indexed":false,"internalType":"uint256"},{"name":"data","type":"tuple","indexed":false,"internalType":"struct CVStrategyInitializeParamsV0_0","components":[{"name":"cvParams","type":"tuple","internalType":"struct CVParams","components":[{"name":"maxRatio","type":"uint256","internalType":"uint256"},{"name":"weight","type":"uint256","internalType":"uint256"},{"name":"decay","type":"uint256","internalType":"uint256"},{"name":"minThresholdPoints","type":"uint256","internalType":"uint256"}]},{"name":"proposalType","type":"uint8","internalType":"enum ProposalType"},{"name":"pointSystem","type":"uint8","internalType":"enum PointSystem"},{"name":"pointConfig","type":"tuple","internalType":"struct PointSystemConfig","components":[{"name":"maxAmount","type":"uint256","internalType":"uint256"}]},{"name":"arbitrableConfig","type":"tuple","internalType":"struct ArbitrableConfig","components":[{"name":"arbitrator","type":"address","internalType":"contract IArbitrator"},{"name":"tribunalSafe","type":"address","internalType":"address"},{"name":"submitterCollateralAmount","type":"uint256","internalType":"uint256"},{"name":"challengerCollateralAmount","type":"uint256","internalType":"uint256"},{"name":"defaultRuling","type":"uint256","internalType":"uint256"},{"name":"defaultRulingTimeout","type":"uint256","internalType":"uint256"}]},{"name":"registryCommunity","type":"address","internalType":"address"},{"name":"sybilScorer","type":"address","internalType":"address"}]}],"anonymous":false},{"type":"event","name":"InitializedCV2","inputs":[{"name":"poolId","type":"uint256","indexed":false,"internalType":"uint256"},{"name":"data","type":"tuple","indexed":false,"internalType":"struct CVStrategyInitializeParamsV0_1","components":[{"name":"cvParams","type":"tuple","internalType":"struct CVParams","components":[{"name":"maxRatio","type":"uint256","internalType":"uint256"},{"name":"weight","type":"uint256","internalType":"uint256"},{"name":"decay","type":"uint256","internalType":"uint256"},{"name":"minThresholdPoints","type":"uint256","internalType":"uint256"}]},{"name":"proposalType","type":"uint8","internalType":"enum ProposalType"},{"name":"pointSystem","type":"uint8","internalType":"enum PointSystem"},{"name":"pointConfig","type":"tuple","internalType":"struct PointSystemConfig","components":[{"name":"maxAmount","type":"uint256","internalType":"uint256"}]},{"name":"arbitrableConfig","type":"tuple","internalType":"struct ArbitrableConfig","components":[{"name":"arbitrator","type":"address","internalType":"contract IArbitrator"},{"name":"tribunalSafe","type":"address","internalType":"address"},{"name":"submitterCollateralAmount","type":"uint256","internalType":"uint256"},{"name":"challengerCollateralAmount","type":"uint256","internalType":"uint256"},{"name":"defaultRuling","type":"uint256","internalType":"uint256"},{"name":"defaultRulingTimeout","type":"uint256","internalType":"uint256"}]},{"name":"registryCommunity","type":"address","internalType":"address"},{"name":"sybilScorer","type":"address","internalType":"address"},{"name":"sybilScorerThreshold","type":"uint256","internalType":"uint256"},{"name":"initialAllowlist","type":"address[]","internalType":"address[]"}]}],"anonymous":false},{"type":"event","name":"InitializedCV3","inputs":[{"name":"poolId","type":"uint256","indexed":false,"internalType":"uint256"},{"name":"data","type":"tuple","indexed":false,"internalType":"struct CVStrategyInitializeParamsV0_2","components":[{"name":"cvParams","type":"tuple","internalType":"struct CVParams","components":[{"name":"maxRatio","type":"uint256","internalType":"uint256"},{"name":"weight","type":"uint256","internalType":"uint256"},{"name":"decay","type":"uint256","internalType":"uint256"},{"name":"minThresholdPoints","type":"uint256","internalType":"uint256"}]},{"name":"proposalType","type":"uint8","internalType":"enum ProposalType"},{"name":"pointSystem","type":"uint8","internalType":"enum PointSystem"},{"name":"pointConfig","type":"tuple","internalType":"struct PointSystemConfig","components":[{"name":"maxAmount","type":"uint256","internalType":"uint256"}]},{"name":"arbitrableConfig","type":"tuple","internalType":"struct ArbitrableConfig","components":[{"name":"arbitrator","type":"address","internalType":"contract IArbitrator"},{"name":"tribunalSafe","type":"address","internalType":"address"},{"name":"submitterCollateralAmount","type":"uint256","internalType":"uint256"},{"name":"challengerCollateralAmount","type":"uint256","internalType":"uint256"},{"name":"defaultRuling","type":"uint256","internalType":"uint256"},{"name":"defaultRulingTimeout","type":"uint256","internalType":"uint256"}]},{"name":"registryCommunity","type":"address","internalType":"address"},{"name":"sybilScorer","type":"address","internalType":"address"},{"name":"sybilScorerThreshold","type":"uint256","internalType":"uint256"},{"name":"initialAllowlist","type":"address[]","internalType":"address[]"},{"name":"superfluidToken","type":"address","internalType":"address"}]}],"anonymous":false},{"type":"event","name":"OwnershipTransferred","inputs":[{"name":"previousOwner","type":"address","indexed":true,"internalType":"address"},{"name":"newOwner","type":"address","indexed":true,"internalType":"address"}],"anonymous":false},{"type":"event","name":"PointsDeactivated","inputs":[{"name":"member","type":"address","indexed":false,"internalType":"address"}],"anonymous":false},{"type":"event","name":"PoolActive","inputs":[{"name":"active","type":"bool","indexed":false,"internalType":"bool"}],"anonymous":false},{"type":"event","name":"PowerDecreased","inputs":[{"name":"member","type":"address","indexed":false,"internalType":"address"},{"name":"tokensUnStaked","type":"uint256","indexed":false,"internalType":"uint256"},{"name":"pointsToDecrease","type":"uint256","indexed":false,"internalType":"uint256"}],"anonymous":false},{"type":"event","name":"PowerIncreased","inputs":[{"name":"member","type":"address","indexed":false,"internalType":"address"},{"name":"tokensStaked","type":"uint256","indexed":false,"internalType":"uint256"},{"name":"pointsToIncrease","type":"uint256","indexed":false,"internalType":"uint256"}],"anonymous":false},{"type":"event","name":"ProposalCancelled","inputs":[{"name":"proposalId","type":"uint256","indexed":false,"internalType":"uint256"}],"anonymous":false},{"type":"event","name":"ProposalCreated","inputs":[{"name":"poolId","type":"uint256","indexed":false,"internalType":"uint256"},{"name":"proposalId","type":"uint256","indexed":false,"internalType":"uint256"}],"anonymous":false},{"type":"event","name":"ProposalDisputed","inputs":[{"name":"arbitrator","type":"address","indexed":false,"internalType":"contract IArbitrator"},{"name":"proposalId","type":"uint256","indexed":false,"internalType":"uint256"},{"name":"disputeId","type":"uint256","indexed":false,"internalType":"uint256"},{"name":"challenger","type":"address","indexed":false,"internalType":"address"},{"name":"context","type":"string","indexed":false,"internalType":"string"},{"name":"timestamp","type":"uint256","indexed":false,"internalType":"uint256"}],"anonymous":false},{"type":"event","name":"Registered","inputs":[{"name":"recipientId","type":"address","indexed":true,"internalType":"address"},{"name":"data","type":"bytes","indexed":false,"internalType":"bytes"},{"name":"sender","type":"address","indexed":false,"internalType":"address"}],"anonymous":false},{"type":"event","name":"Ruling","inputs":[{"name":"_arbitrator","type":"address","indexed":true,"internalType":"contract IArbitrator"},{"name":"_disputeID","type":"uint256","indexed":true,"internalType":"uint256"},{"name":"_ruling","type":"uint256","indexed":false,"internalType":"uint256"}],"anonymous":false},{"type":"event","name":"SuperfluidGDAConnected","inputs":[{"name":"gda","type":"address","indexed":true,"internalType":"address"},{"name":"by","type":"address","indexed":true,"internalType":"address"}],"anonymous":false},{"type":"event","name":"SuperfluidGDADisconnected","inputs":[{"name":"gda","type":"address","indexed":true,"internalType":"address"},{"name":"by","type":"address","indexed":true,"internalType":"address"}],"anonymous":false},{"type":"event","name":"SuperfluidTokenUpdated","inputs":[{"name":"superfluidToken","type":"address","indexed":false,"internalType":"address"}],"anonymous":false},{"type":"event","name":"SupportAdded","inputs":[{"name":"from","type":"address","indexed":false,"internalType":"address"},{"name":"proposalId","type":"uint256","indexed":false,"internalType":"uint256"},{"name":"amount","type":"uint256","indexed":false,"internalType":"uint256"},{"name":"totalStakedAmount","type":"uint256","indexed":false,"internalType":"uint256"},{"name":"convictionLast","type":"uint256","indexed":false,"internalType":"uint256"}],"anonymous":false},{"type":"event","name":"SybilScorerUpdated","inputs":[{"name":"sybilScorer","type":"address","indexed":false,"internalType":"address"}],"anonymous":false},{"type":"event","name":"Upgraded","inputs":[{"name":"implementation","type":"address","indexed":true,"internalType":"address"}],"anonymous":false},{"type":"error","name":"ALLOCATION_ACTIVE","inputs":[]},{"type":"error","name":"ALLOCATION_NOT_ACTIVE","inputs":[]},{"type":"error","name":"ALLOCATION_NOT_ENDED","inputs":[]},{"type":"error","name":"ALREADY_INITIALIZED","inputs":[]},{"type":"error","name":"AMOUNT_MISMATCH","inputs":[]},{"type":"error","name":"ANCHOR_ERROR","inputs":[]},{"type":"error","name":"ARRAY_MISMATCH","inputs":[]},{"type":"error","name":"AShouldBeUnderOrEqTwo_128","inputs":[]},{"type":"error","name":"AShouldBeUnderTwo_128","inputs":[]},{"type":"error","name":"AddressCannotBeZero","inputs":[]},{"type":"error","name":"AmountOverMaxRatio","inputs":[]},{"type":"error","name":"ArbitratorCannotBeZero","inputs":[]},{"type":"error","name":"BShouldBeLessTwo_128","inputs":[]},{"type":"error","name":"CallerNotOwner","inputs":[{"name":"_caller","type":"address","internalType":"address"},{"name":"_owner","type":"address","internalType":"address"}]},{"type":"error","name":"CannotAddFunctionToDiamondThatAlreadyExists","inputs":[{"name":"_selector","type":"bytes4","internalType":"bytes4"}]},{"type":"error","name":"CannotAddSelectorsToZeroAddress","inputs":[{"name":"_selectors","type":"bytes4[]","internalType":"bytes4[]"}]},{"type":"error","name":"CannotRemoveFunctionThatDoesNotExist","inputs":[{"name":"_selector","type":"bytes4","internalType":"bytes4"}]},{"type":"error","name":"CannotRemoveImmutableFunction","inputs":[{"name":"_selector","type":"bytes4","internalType":"bytes4"}]},{"type":"error","name":"CannotReplaceFunctionThatDoesNotExists","inputs":[{"name":"_selector","type":"bytes4","internalType":"bytes4"}]},{"type":"error","name":"CannotReplaceFunctionWithTheSameFunctionFromTheSameFacet","inputs":[{"name":"_selector","type":"bytes4","internalType":"bytes4"}]},{"type":"error","name":"CannotReplaceFunctionsFromFacetWithZeroAddress","inputs":[{"name":"_selectors","type":"bytes4[]","internalType":"bytes4[]"}]},{"type":"error","name":"CannotReplaceImmutableFunction","inputs":[{"name":"_selector","type":"bytes4","internalType":"bytes4"}]},{"type":"error","name":"ConvictionUnderMinimumThreshold","inputs":[]},{"type":"error","name":"DefaultRulingNotSet","inputs":[]},{"type":"error","name":"DisputeCooldownNotPassed","inputs":[{"name":"_proposalId","type":"uint256","internalType":"uint256"},{"name":"_remainingSec","type":"uint256","internalType":"uint256"}]},{"type":"error","name":"INVALID","inputs":[]},{"type":"error","name":"INVALID_ADDRESS","inputs":[]},{"type":"error","name":"INVALID_FEE","inputs":[]},{"type":"error","name":"INVALID_METADATA","inputs":[]},{"type":"error","name":"INVALID_REGISTRATION","inputs":[]},{"type":"error","name":"IS_APPROVED_STRATEGY","inputs":[]},{"type":"error","name":"IncorrectFacetCutAction","inputs":[{"name":"_action","type":"uint8","internalType":"uint8"}]},{"type":"error","name":"InitializationFunctionReverted","inputs":[{"name":"_initializationContractAddress","type":"address","internalType":"address"},{"name":"_calldata","type":"bytes","internalType":"bytes"}]},{"type":"error","name":"InsufficientCollateral","inputs":[{"name":"sentAmount","type":"uint256","internalType":"uint256"},{"name":"requiredAmount","type":"uint256","internalType":"uint256"}]},{"type":"error","name":"MISMATCH","inputs":[]},{"type":"error","name":"NONCE_NOT_AVAILABLE","inputs":[]},{"type":"error","name":"NON_ZERO_VALUE","inputs":[]},{"type":"error","name":"NOT_APPROVED_STRATEGY","inputs":[]},{"type":"error","name":"NOT_ENOUGH_FUNDS","inputs":[]},{"type":"error","name":"NOT_IMPLEMENTED","inputs":[]},{"type":"error","name":"NOT_INITIALIZED","inputs":[]},{"type":"error","name":"NOT_PENDING_OWNER","inputs":[]},{"type":"error","name":"NoBytecodeAtAddress","inputs":[{"name":"_contractAddress","type":"address","internalType":"address"},{"name":"_message","type":"string","internalType":"string"}]},{"type":"error","name":"NoSelectorsProvidedForFacetForCut","inputs":[{"name":"_facetAddress","type":"address","internalType":"address"}]},{"type":"error","name":"NotEnoughPointsToSupport","inputs":[{"name":"pointsSupport","type":"uint256","internalType":"uint256"},{"name":"pointsBalance","type":"uint256","internalType":"uint256"}]},{"type":"error","name":"NotImplemented","inputs":[]},{"type":"error","name":"OnlyArbitrator","inputs":[]},{"type":"error","name":"OnlyCommunityAllowed","inputs":[]},{"type":"error","name":"OnlyCouncilSafe","inputs":[]},{"type":"error","name":"OnlySubmitter","inputs":[{"name":"submitter","type":"address","internalType":"address"},{"name":"sender","type":"address","internalType":"address"}]},{"type":"error","name":"POOL_ACTIVE","inputs":[]},{"type":"error","name":"POOL_INACTIVE","inputs":[]},{"type":"error","name":"PoolAmountNotEnough","inputs":[{"name":"_proposalId","type":"uint256","internalType":"uint256"},{"name":"_requestedAmount","type":"uint256","internalType":"uint256"},{"name":"_poolAmount","type":"uint256","internalType":"uint256"}]},{"type":"error","name":"PoolIsEmpty","inputs":[]},{"type":"error","name":"ProposalDataIsEmpty","inputs":[]},{"type":"error","name":"ProposalIdCannotBeZero","inputs":[]},{"type":"error","name":"ProposalInvalidForAllocation","inputs":[{"name":"_proposalId","type":"uint256","internalType":"uint256"},{"name":"_proposalStatus","type":"uint8","internalType":"enum ProposalStatus"}]},{"type":"error","name":"ProposalNotActive","inputs":[{"name":"_proposalId","type":"uint256","internalType":"uint256"}]},{"type":"error","name":"ProposalNotDisputed","inputs":[{"name":"_proposalId","type":"uint256","internalType":"uint256"}]},{"type":"error","name":"ProposalNotInList","inputs":[{"name":"_proposalId","type":"uint256","internalType":"uint256"}]},{"type":"error","name":"ProposalSupportDuplicated","inputs":[{"name":"_proposalId","type":"uint256","internalType":"uint256"},{"name":"index","type":"uint256","internalType":"uint256"}]},{"type":"error","name":"RECIPIENT_ALREADY_ACCEPTED","inputs":[]},{"type":"error","name":"RECIPIENT_ERROR","inputs":[{"name":"recipientId","type":"address","internalType":"address"}]},{"type":"error","name":"RECIPIENT_NOT_ACCEPTED","inputs":[]},{"type":"error","name":"REGISTRATION_ACTIVE","inputs":[]},{"type":"error","name":"REGISTRATION_NOT_ACTIVE","inputs":[]},{"type":"error","name":"RegistryCannotBeZero","inputs":[]},{"type":"error","name":"RemoveFacetAddressMustBeZeroAddress","inputs":[{"name":"_facetAddress","type":"address","internalType":"address"}]},{"type":"error","name":"SupportUnderflow","inputs":[{"name":"_support","type":"uint256","internalType":"uint256"},{"name":"_delta","type":"int256","internalType":"int256"},{"name":"_result","type":"int256","internalType":"int256"}]},{"type":"error","name":"TokenCannotBeZero","inputs":[]},{"type":"error","name":"TokenNotAllowed","inputs":[]},{"type":"error","name":"UNAUTHORIZED","inputs":[]},{"type":"error","name":"UserCannotBeZero","inputs":[]},{"type":"error","name":"UserCannotExecuteAction","inputs":[]},{"type":"error","name":"UserIsInactive","inputs":[]},{"type":"error","name":"UserNotInRegistry","inputs":[]},{"type":"error","name":"ZERO_ADDRESS","inputs":[]}],"bytecode":{"object":"0x60a06040523060805234801561001457600080fd5b5060805161558b61004c600039600081816110e101528181611121015281816114340152818161147401526114ec015261558b6000f3fe60806040526004361061035b5760003560e01c8063013cf08b1461041b57806301ffc9a71461045d578063025313a21461048d578063059351cd146104af57806305caa7f31461053c57806306552ff31461055c5780630a6f0ee91461057c5780630bece79c1461059c5780630c0512e9146105bc578063125fd1d9146105e057806315cc481e146105f65780631aa91a9e146106145780631ddf1e23146106345780631de95593146106495780631f931c1c1461066957806321704668146106895780632506b870146106a4578063255ffb38146106d75780632bbe0cae146107045780632dbd6fdd146107175780632ed04b2b14610743578063311a6c561461075e578063339604591461077e578063351d9f96146107945780633659cfe6146107ae57806338fff2d0146107ce57806341bb7605146107e35780634ab4ba42146108405780634f1ef2861461085557806352d1902d1461086857806359a5db8b1461087d5780635db64b991461089d5780636003e414146108ca57806360b0645a146108ea57806360d01e7c1461090a57806360d5dedc1461095d578063626c47e81461097d5780636453d9c4146106495780636ff91d9b14610649578063715018a614610992578063782aadff146109a757806379ea88e6146109c7578063814516ad146109e2578063817b1cd2146109f757806385d5089e14610689578063868c57b814610a0d5780638da5cb5b14610a2d578063924e6704146106495780639ac7b86414610a42578063a0cf0aea14610a5d578063a28889e114610a85578063a47ff7e514610abd578063a6be4a5514610634578063aba9ffee14610ad4578063b0d3713a14610aea578063b41596ec14610b0a578063b5f620ce14610b1d578063b6c61f3114610b3d578063c329217114610b5d578063c4d66de814610b7a578063c69271ec14610649578063c778884f14610634578063c7f758a814610b9a578063d4ec787914610bd2578063d5b7cc5414610bf2578063d69bec6a14610c12578063dc96ff2d14610c27578063df868ed314610c57578063e0a8f6f514610689578063e0dd2c3814610c6c578063e1f1235514610c8c578063edd146cc14610ca7578063ef2920fc14610cc7578063f2fde38b14610cd5578063f5be3f7c14610cf5578063fc4896c81461063457610362565b3661036257005b600080356001600160e01b0319168152600080516020615484833981519152602081905260409091205481906001600160a01b0316806103f55760405162461bcd60e51b815260206004820152602360248201527f435653747261746567793a2046756e6374696f6e20646f6573206e6f742065786044820152621a5cdd60ea1b60648201526084015b60405180910390fd5b3660008037600080366000845af43d6000803e808015610414573d6000f35b3d6000fd5b005b34801561042757600080fd5b5061043b610436366004613d47565b610d0b565b6040516104549d9c9b9a99989796959493929190613de7565b60405180910390f35b34801561046957600080fd5b5061047d610478366004613ec6565b610e59565b6040519015158152602001610454565b34801561049957600080fd5b506104a2610e90565b6040516104549190613ee1565b3480156104bb57600080fd5b506105046070546000908152608160205260409020805460018201546002830154600384015460048501546005909501546001600160a01b039485169694909316949193909290565b604080516001600160a01b039788168152969095166020870152938501929092526060840152608083015260a082015260c001610454565b34801561054857600080fd5b506082546104a2906001600160a01b031681565b34801561056857600080fd5b50610419610577366004613f15565b610ea9565b34801561058857600080fd5b5061041961059736600461417f565b61101a565b3480156105a857600080fd5b50607a546104a2906001600160a01b031681565b3480156105c857600080fd5b506105d2606f5481565b604051908152602001610454565b3480156105ec57600080fd5b506105d260705481565b34801561060257600080fd5b506065546001600160a01b03166104a2565b34801561062057600080fd5b506105d261062f366004613d47565b611027565b34801561064057600080fd5b5061041961105a565b34801561065557600080fd5b506104196106643660046141f6565b611064565b34801561067557600080fd5b50610419610684366004614254565b61106f565b34801561069557600080fd5b50610419610664366004613d47565b3480156106b057600080fd5b506073546074546075546076546106c79392919084565b6040516104549493929190614305565b3480156106e357600080fd5b506105d26106f2366004613d47565b60806020526000908152604090205481565b6104a2610712366004614320565b6110c1565b34801561072357600080fd5b5060775461073690610100900460ff1681565b604051610454919061438a565b34801561074f57600080fd5b506105d261071236600461439d565b34801561076a57600080fd5b506104196107793660046143c9565b6110cb565b34801561078a57600080fd5b506105d2606d5481565b3480156107a057600080fd5b506077546107369060ff1681565b3480156107ba57600080fd5b506104196107c93660046141f6565b6110d7565b3480156107da57600080fd5b506068546105d2565b3480156107ef57600080fd5b506105046107fe366004613d47565b6081602052600090815260409020805460018201546002830154600384015460048501546005909501546001600160a01b039485169593909416939192909186565b34801561084c57600080fd5b506105d261119c565b6104196108633660046143eb565b61142a565b34801561087457600080fd5b506105d26114df565b34801561088957600080fd5b506105d2610898366004613d47565b61158e565b3480156108a957600080fd5b506105d26108b83660046141f6565b607e6020526000908152604090205481565b3480156108d657600080fd5b506079546104a2906001600160a01b031681565b3480156108f657600080fd5b506105d2610905366004613d47565b611663565b34801561091657600080fd5b5061092a610925366004613d47565b611715565b6040805194151585526001600160801b039093166020850152918301526001600160a01b03166060820152608001610454565b34801561096957600080fd5b5061041961097836600461443a565b61172a565b34801561098957600080fd5b506105d2600381565b34801561099e57600080fd5b506104196117a6565b3480156109b357600080fd5b506105d26109c236600461439d565b6117b8565b3480156109d357600080fd5b506104196106643660046144a3565b3480156109ee57600080fd5b5061041961195b565b348015610a0357600080fd5b506105d260715481565b348015610a1957600080fd5b506105d2610a2836600461439d565b611a5c565b348015610a3957600080fd5b506104a2611a8d565b348015610a4e57600080fd5b506104196107793660046144d7565b348015610a6957600080fd5b506104a273eeeeeeeeeeeeeeeeeeeeeeeeeeeeeeeeeeeeeeee81565b348015610a9157600080fd5b50606e54610aa5906001600160401b031681565b6040516001600160401b039091168152602001610454565b348015610ac957600080fd5b506078546105d29081565b348015610ae057600080fd5b506105d260725481565b348015610af657600080fd5b50610419610b053660046141f6565b611b22565b6105d2610b18366004614503565b611b4c565b348015610b2957600080fd5b50610419610b383660046144a3565b611b5f565b348015610b4957600080fd5b50607c546104a2906001600160a01b031681565b348015610b6957600080fd5b50607754610100900460ff16610736565b348015610b8657600080fd5b50610419610b953660046141f6565b611b68565b348015610ba657600080fd5b50610bba610bb5366004613d47565b611b98565b6040516104549c9b9a9998979695949392919061455e565b348015610bde57600080fd5b50607b546104a2906001600160a01b031681565b348015610bfe57600080fd5b50610419610c0d366004614617565b611d41565b348015610c1e57600080fd5b506104a2611d51565b348015610c3357600080fd5b506105d2610c42366004613d47565b6000908152607d602052604090206002015490565b348015610c6357600080fd5b5061047d611d5b565b348015610c7857600080fd5b506105d2610c87366004614715565b611d69565b348015610c9857600080fd5b5061041961059736600461473a565b348015610cb357600080fd5b50610419610cc2366004614778565b611d94565b610419610779366004614320565b348015610ce157600080fd5b50610419610cf03660046141f6565b612939565b348015610d0157600080fd5b506105d2611c2081565b607d602090815260009182526040918290208054600182015460028301546003840154600485015460058601546006870154600788015460088901548b51808d01909c52600a8a0180548d52600b8b0180549a9d999c989b979a6001600160a01b039788169a968816999790951697939660ff9093169593949192840191610d92906147a8565b80601f0160208091040260200160405190810160405280929190818152602001828054610dbe906147a8565b8015610e0b5780601f10610de057610100808354040283529160200191610e0b565b820191906000526020600020905b815481529060010190602001808311610dee57829003601f168201915b50505091909252505060408051606081018252600c8501548152600d8501546020820152600e8501546001600160a01b031691810191909152600f840154601090940154929390929091508d565b60006001600160e01b0319821663188d362b60e11b1480610e8a57506301ffc9a760e01b6001600160e01b03198316145b92915050565b6000610ea46033546001600160a01b031690565b905090565b600054610100900460ff1615808015610ec95750600054600160ff909116105b80610eea5750610ed8306129a6565b158015610eea575060005460ff166001145b610f4d5760405162461bcd60e51b815260206004820152602e60248201527f496e697469616c697a61626c653a20636f6e747261637420697320616c72656160448201526d191e481a5b9a5d1a585b1a5e995960921b60648201526084016103ec565b6000805460ff191660011790558015610f70576000805461ff0019166101001790555b610f9d856040518060400160405280600a8152602001694356537472617465677960b01b8152508461172a565b606a80546001600160a01b038087166001600160a01b031992831617909255606b8054928616929091169190911790558015611013576000805461ff0019169055604051600181527f7f26b83ff96e1f2b6a682f133852f6798a09c465da95921460cefb38474024989060200160405180910390a15b5050505050565b611022610362565b505050565b6000818152607d602052604081208054831461104257600080fd5b6110508182600201546129b5565b6003015492915050565b611062610362565b565b61106c610362565b50565b6110776129f0565b61101361108485876147e2565b8484848080601f016020809104026020016040519081016040528093929190818152602001838380828437600092019190915250612a4f92505050565b6000610e8a610362565b6110d3610362565b5050565b6001600160a01b037f000000000000000000000000000000000000000000000000000000000000000016300361111f5760405162461bcd60e51b81526004016103ec90614912565b7f00000000000000000000000000000000000000000000000000000000000000006001600160a01b0316611151612bf1565b6001600160a01b0316146111775760405162461bcd60e51b81526004016103ec9061494c565b61118081612c0d565b6040805160008082526020820190925261106c91839190612c48565b60655460685460405163068bcd8d60e01b815260009283926001600160a01b039091169163068bcd8d916111d69160040190815260200190565b600060405180830381865afa1580156111f3573d6000803e3d6000fd5b505050506040513d6000823e601f3d908101601f1916820160405261121b9190810190614991565b60400151905073eeeeeeeeeeeeeeeeeeeeeeeeeeeeeeeeeeeeeeed196001600160a01b0382160161124d574791505090565b6040516370a0823160e01b81526000906001600160a01b038316906370a082319061127c903090600401613ee1565b602060405180830381865afa158015611299573d6000803e3d6000fd5b505050506040513d601f19601f820116820180604052508101906112bd9190614ab2565b6082549091506000906001600160a01b03161561134a576082546040516370a0823160e01b81526001600160a01b03909116906370a0823190611304903090600401613ee1565b602060405180830381865afa158015611321573d6000803e3d6000fd5b505050506040513d601f19601f820116820180604052508101906113459190614ab2565b61134d565b60005b90506000836001600160a01b031663313ce5676040518163ffffffff1660e01b8152600401602060405180830381865afa15801561138f573d6000803e3d6000fd5b505050506040513d601f19601f820116820180604052508101906113b39190614acb565b905060128160ff1610156113e8576113cc816012614b04565b6113d790600a614c01565b6113e19083614c10565b9150611417565b60128160ff161115611417576113ff601282614b04565b61140a90600a614c01565b6114149083614c32565b91505b6114218284614c49565b94505050505090565b6001600160a01b037f00000000000000000000000000000000000000000000000000000000000000001630036114725760405162461bcd60e51b81526004016103ec90614912565b7f00000000000000000000000000000000000000000000000000000000000000006001600160a01b03166114a4612bf1565b6001600160a01b0316146114ca5760405162461bcd60e51b81526004016103ec9061494c565b6114d382612c0d565b6110d382826001612c48565b6000306001600160a01b037f0000000000000000000000000000000000000000000000000000000000000000161461157a5760405162461bcd60e51b815260206004820152603860248201527f555550535570677261646561626c653a206d757374206e6f742062652063616c6044820152771b1959081d1a1c9bdd59da0819195b1959d85d1958d85b1b60421b60648201526084016103ec565b506000805160206155108339815191525b90565b6000600360775460ff1660038111156115a9576115a9613d6d565b036115b657506000919050565b6115bf82612db3565b156115c957600080fd5b73__$f1b7c69ba751c396eddc93d3bbc5414fd9$__6329dfe5ba836115ec61119c565b6072546075546074546073546076546040516001600160e01b031960e08a901b1681526116229796959493929190600401614c5c565b602060405180830381865af415801561163f573d6000803e3d6000fd5b505050506040513d601f19601f82011682018060405250810190610e8a9190614ab2565b6000818152607d60205260408120600781015473__$f1b7c69ba751c396eddc93d3bbc5414fd9$__9063010dfe649061169c9043614c8c565b600384015460028501546075546040516001600160e01b031960e087901b1681526116cd9493929190600401614305565b602060405180830381865af41580156116ea573d6000803e3d6000fd5b505050506040513d601f19601f8201168201806040525081019061170e9190614ab2565b9392505050565b600080600080611723610362565b9193509193565b600054610100900460ff166117515760405162461bcd60e51b81526004016103ec90614c9f565b61175a81611b68565b606580546001600160a01b0319166001600160a01b038516179055604051611786908390602001614cea565b60408051601f198184030181529190528051602090910120606655505050565b6117ae6129f0565b6110626000612ddf565b60006117c2612e31565b6117cb83612e48565b6117d457600080fd5b607954607754607854604051632c319f1360e11b815260009373__$c032285ca413f3d1dae375e8699dd757fc$__936358633e269361182f936001600160a01b03909316928a928a9261010090910460ff1691600401614cfd565b602060405180830381865af415801561184c573d6000803e3d6000fd5b505050506040513d601f19601f820116820180604052508101906118709190614ab2565b60795460405163011de97360e61b81529192506000916001600160a01b039091169063477a5cc0906118a89088903090600401614d38565b602060405180830381865afa1580156118c5573d6000803e3d6000fd5b505050506040513d601f19601f820116820180604052508101906118e99190614d52565b905080156119095781607260008282546119039190614c49565b90915550505b604080516001600160a01b0387168152602081018690529081018390527f0b9150e1e54346ed3fa36b977cd5d65dca5a649c737c3174a26bddaadd47667a9060600160405180910390a1509392505050565b61196433612e48565b61196d57600080fd5b607954604051630d4a8b4960e01b81526001600160a01b0390911690630d4a8b499061199f9033903090600401614d38565b600060405180830381600087803b1580156119b957600080fd5b505af11580156119cd573d6000803e3d6000fd5b5050607954604051637817ee4f60e01b81526001600160a01b039091169250637817ee4f9150611a039033903090600401614d38565b602060405180830381865afa158015611a20573d6000803e3d6000fd5b505050506040513d601f19601f82011682018060405250810190611a449190614ab2565b60726000828254611a559190614c49565b9091555050565b607f6020528160005260406000208181548110611a7857600080fd5b90600052602060002001600091509150505481565b6000611a97610e90565b6001600160a01b03163b600003611ab057610ea4610e90565b611ab8610e90565b6001600160a01b0316638da5cb5b6040518163ffffffff1660e01b8152600401602060405180830381865afa925050508015611b11575060408051601f3d908101601f19168201909252611b0e91810190614d6f565b60015b611b1d57610ea4610e90565b919050565b611b2a6129f0565b606a80546001600160a01b0319166001600160a01b0392909216919091179055565b6000611b56610362565b95945050505050565b61106c81612fef565b600054610100900460ff16611b8f5760405162461bcd60e51b81526004016103ec90614c9f565b61106c81612ddf565b6000806000806000806000806000806000806000607d60008f815260200190815260200160002090508060010154600014611c705773__$f1b7c69ba751c396eddc93d3bbc5414fd9$__6329dfe5ba8260010154611bf461119c565b6072546075546074546073546076546040516001600160e01b031960e08a901b168152611c2a9796959493929190600401614c5c565b602060405180830381865af4158015611c47573d6000803e3d6000fd5b505050506040513d601f19601f82011682018060405250810190611c6b9190614ab2565b611c73565b60005b94508060050160009054906101000a90046001600160a01b03168160040160009054906101000a90046001600160a01b03168260060160009054906101000a90046001600160a01b0316836001015484600201548560080160009054906101000a900460ff16866007015487600301548c896009016000336001600160a01b03166001600160a01b03168152602001908152602001600020548a601001548b600a01600001549c509c509c509c509c509c509c509c509c509c509c509c505091939597999b5091939597999b565b611d49610362565b505050505050565b600061158b610362565b6000610ea460675460ff1690565b6000828152607d602090815260408083206001600160a01b038516845260090190915281205461170e565b611d9c613036565b611da582613061565b606a54606d8054611dce926001600160a01b0316916000611dc583614d8c565b919050556130b0565b607a80546001600160a01b0319166001600160a01b039290921691821790556040805163204a7f0760e21b81529051638129fc1c9160048082019260009290919082900301818387803b158015611e2457600080fd5b505af1158015611e38573d6000803e3d6000fd5b50505050600081806020019051810190611e529190614f09565b602081015160778054929350909182919060ff19166001836003811115611e7b57611e7b613d6d565b021790555060408201516077805461ff001916610100836003811115611ea357611ea3613d6d565b021790555060608201515160785560c0820151607c80546001600160a01b039283166001600160a01b031991821617909155610120840151608280549190931691161790556003816003811115611efc57611efc613d6d565b0361268d5760a0820151606b546001600160a01b0316611f1b57600080fd5b60655460685460405163068bcd8d60e01b815260048101919091526000916001600160a01b03169063068bcd8d90602401600060405180830381865afa158015611f69573d6000803e3d6000fd5b505050506040513d6000823e601f3d908101601f19168201604052611f919190810190614991565b60400151905073eeeeeeeeeeeeeeeeeeeeeeeeeeeeeeeeeeeeeeed196001600160a01b03821601611fd55760405163514e24c360e11b815260040160405180910390fd5b606b54606d8054611ff5926001600160a01b0316916000611dc583614d8c565b607b60006101000a8154816001600160a01b0302191690836001600160a01b0316021790555060006120286068546130ff565b6040516020016120389190615012565b604051602081830303815290604052905060006120566068546130ff565b604051602001612066919061504d565b6040516020818303038152906040529050607b60009054906101000a90046001600160a01b03166001600160a01b03166369d7161e84848430896001600160a01b0316636c53db9a6040518163ffffffff1660e01b8152600401602060405180830381865afa1580156120dd573d6000803e3d6000fd5b505050506040513d601f19601f820116820180604052508101906121019190614d6f565b8a6001600160a01b0316630331383c6040518163ffffffff1660e01b8152600401602060405180830381865afa15801561213f573d6000803e3d6000fd5b505050506040513d601f19601f820116820180604052508101906121639190614ab2565b3060016040518963ffffffff1660e01b815260040161218998979695949392919061507a565b600060405180830381600087803b1580156121a357600080fd5b505af11580156121b7573d6000803e3d6000fd5b5050607b54600092507f241ecf16d79d0f8dbfb92cbc07fe17840425976cf0667f022fe9877caa831b0891506001600160a01b0316632f2ff15d836121fa611a8d565b6040518363ffffffff1660e01b81526004016122179291906150e5565b600060405180830381600087803b15801561223157600080fd5b505af1158015612245573d6000803e3d6000fd5b5050607b546001600160a01b03169150632f2ff15d905082612265611a8d565b6040518363ffffffff1660e01b81526004016122829291906150e5565b600060405180830381600087803b15801561229c57600080fd5b505af11580156122b0573d6000803e3d6000fd5b5050505060006068546040516020016122c991906150fc565b604051602081830303815290604052805190602001209050600060685460405160200161231491906e20a62627aba624a9aa2fa0a226a4a760891b8152600f810191909152602f0190565b60408051808303601f19018152908290528051602090910120607b5463117951f760e01b835260048301859052602483018290529092506001600160a01b03169063117951f790604401600060405180830381600087803b15801561237857600080fd5b505af115801561238c573d6000803e3d6000fd5b5050607b54604051632f2ff15d60e01b81526001600160a01b039091169250632f2ff15d91506123c290849030906004016150e5565b600060405180830381600087803b1580156123dc57600080fd5b505af11580156123f0573d6000803e3d6000fd5b5050607b546001600160a01b03169150632f2ff15d905082612410611a8d565b6040518363ffffffff1660e01b815260040161242d9291906150e5565b600060405180830381600087803b15801561244757600080fd5b505af115801561245b573d6000803e3d6000fd5b5050607c546001600160a01b03169150612595905057896101000151516000036124e957607b54604051632f2ff15d60e01b81526001600160a01b0390911690632f2ff15d906124b29085906000906004016150e5565b600060405180830381600087803b1580156124cc57600080fd5b505af11580156124e0573d6000803e3d6000fd5b50505050612595565b60005b8a61010001515181101561259357607b546101008c015180516001600160a01b0390921691632f2ff15d9186918590811061252957612529615119565b60200260200101516040518363ffffffff1660e01b815260040161254e9291906150e5565b600060405180830381600087803b15801561256857600080fd5b505af115801561257c573d6000803e3d6000fd5b50505050808061258b90614d8c565b9150506124ec565b505b607b5460405163d547741f60e01b81526001600160a01b039091169063d547741f906125c790869030906004016150e5565b600060405180830381600087803b1580156125e157600080fd5b505af11580156125f5573d6000803e3d6000fd5b5050607b5460405163d547741f60e01b81526001600160a01b03909116925063d547741f915061262b90879030906004016150e5565b600060405180830381600087803b15801561264557600080fd5b505af1158015612659573d6000803e3d6000fd5b5050607b54607980546001600160a01b0319166001600160a01b03909216919091179055506126b298505050505050505050565b60a0820151607980546001600160a01b0319166001600160a01b039092169190911790555b7f27cddb9d805ad332311bc448d558d9a480ce45ef8b7e99b382ee1f16267e567f84836040516126e3929190615199565b60405180910390a16080820151602001516001600160a01b03161580159061271857506080820151516001600160a01b031615155b1561288b576080820151805160209091015160405163446adb9960e11b81526001600160a01b03909216916388d5b7329161275591600401613ee1565b600060405180830381600087803b15801561276f57600080fd5b505af1158015612783573d6000803e3d6000fd5b50506070805492509050600061279883614d8c565b90915550506080828101805160708054600090815260816020908152604091829020845181546001600160a01b039182166001600160a01b03199182161783558387015160018401805491841691909216179055838601516002830155606080870151600384015586890151600484015560a096870151600590930192909255935495518051818401518286015183850151848c0151948a015188519b8c52938916968b019690965296168886015291870194909452958501529183015260c082019290925290517fe677e2878aaaaf6a65ecf50f849ad58100c49f6dfd57d055ba4bddd63a175d539181900360e00190a15b8151604001511580156128a15750815160200151155b80156128ad5750815151155b80156128bc5750815160600151155b612915578151805160735560208101516074556040808201516075556060820151607655517fec9315d9f4291207475c061feff1e5d7105750ac0ee9534af9444b4ff1dab9bc9161290c916152b5565b60405180910390a15b607c546001600160a01b031615612933576129338260e00151613191565b50505050565b6129416129f0565b6001600160a01b038116611b8f5760405162461bcd60e51b815260206004820152602660248201527f4f776e61626c653a206e6577206f776e657220697320746865207a65726f206160448201526564647265737360d01b60648201526084016103ec565b6001600160a01b03163b151590565b6000806129c28484613275565b915091508160001480156129d4575080155b156129df5750505050565b600784015560039092019190915550565b336129f9611a8d565b6001600160a01b0316146110625760405162461bcd60e51b815260206004820181905260248201527f4f776e61626c653a2063616c6c6572206973206e6f7420746865206f776e657260448201526064016103ec565b60005b8351811015612bab576000848281518110612a6f57612a6f615119565b60200260200101516040015190506000858381518110612a9157612a91615119565b60200260200101516000015190508151600003612ac3578060405163e767f91f60e01b81526004016103ec9190613ee1565b6000868481518110612ad757612ad7615119565b602002602001015160200151905060006002811115612af857612af8613d6d565b816002811115612b0a57612b0a613d6d565b03612b1e57612b198284613346565b612b95565b6001816002811115612b3257612b32613d6d565b03612b4157612b1982846134dd565b6002816002811115612b5557612b55613d6d565b03612b6457612b198284613649565b806002811115612b7657612b76613d6d565b604051633ff4d20f60e11b815260ff90911660048201526024016103ec565b5050508080612ba390614d8c565b915050612a52565b507f8faa70878671ccd212d20771b795c50af8fd3ff6cf27f4bde57e5d4de0aeb673838383604051612bdf939291906152fd565b60405180910390a161102282826138a7565b600080516020615510833981519152546001600160a01b031690565b33612c16611a8d565b6001600160a01b03161461106c5733612c2d611a8d565b60405163163678e960e01b81526004016103ec929190614d38565b7f4910fdfa16fed3260ed0e7147f7cc6da11a60208b5b9406d12a635614ffd91435460ff1615612c7b576110228361396d565b826001600160a01b03166352d1902d6040518163ffffffff1660e01b8152600401602060405180830381865afa925050508015612cd5575060408051601f3d908101601f19168201909252612cd291810190614ab2565b60015b612d385760405162461bcd60e51b815260206004820152602e60248201527f45524331393637557067726164653a206e657720696d706c656d656e7461746960448201526d6f6e206973206e6f74205555505360901b60648201526084016103ec565b6000805160206155108339815191528114612da75760405162461bcd60e51b815260206004820152602960248201527f45524331393637557067726164653a20756e737570706f727465642070726f786044820152681a58589b195555525160ba1b60648201526084016103ec565b50611022838383613a07565b6000612dc26298968083614c32565b612dca61119c565b607354612dd79190614c32565b111592915050565b603380546001600160a01b038381166001600160a01b0319831681179093556040519116919082907f8be0079c531659141344cd1fd0a4f28419497f9722a3daafe3b4186f6b6457e090600090a35050565b6079546001600160a01b0316331461106257600080fd5b607c546000906001600160a01b0316612f7c576000606854604051602001612e7091906150fc565b60408051601f19818403018152908290528051602090910120607954632474521560e21b83529092506001600160a01b0316906391d1485490612eba9084906000906004016150e5565b602060405180830381865afa158015612ed7573d6000803e3d6000fd5b505050506040513d601f19601f82011682018060405250810190612efb9190614d52565b15612f095750600192915050565b607954604051632474521560e21b81526001600160a01b03909116906391d1485490612f3b90849087906004016150e5565b602060405180830381865afa158015612f58573d6000803e3d6000fd5b505050506040513d601f19601f8201168201806040525081019061170e9190614d52565b607c546040516302154c3d60e51b81526001600160a01b03909116906342a987a090612fae9085903090600401614d38565b602060405180830381865afa158015612fcb573d6000803e3d6000fd5b505050506040513d601f19601f82011682018060405250810190610e8a9190614d52565b6067805460ff19168215159081179091556040519081527fd94c9bc4d43c51d8dc345a016d8e3d994432fac68e72832e4cf3a616bd8efae09060200160405180910390a150565b6065546001600160a01b031633146110625760405163075fd2b160e01b815260040160405180910390fd5b613069613036565b6068541561308a5760405163439a74c960e01b815260040160405180910390fd5b806000036130ab57604051637fcce2a960e01b815260040160405180910390fd5b606855565b6040516001600160601b03193360601b1660208201526034810182905260009081906054016040516020818303038152906040528051906020012090506130f78482613a2c565b949350505050565b6060600061310c83613ac3565b60010190506000816001600160401b0381111561312b5761312b613f71565b6040519080825280601f01601f191660200182016040528015613155576020820181803683370190505b5090508181016020015b600019016f181899199a1a9b1b9c1cb0b131b232b360811b600a86061a8153600a850494508461315f57509392505050565b607c5460795460408051633629edcd60e11b815290516001600160a01b039384169363fc2ebdd193309387939190921691636c53db9a9160048083019260209291908290030181865afa1580156131ec573d6000803e3d6000fd5b505050506040513d601f19601f820116820180604052508101906132109190614d6f565b60405160e085901b6001600160e01b03191681526001600160a01b03938416600482015260248101929092529091166044820152606401600060405180830381600087803b15801561326157600080fd5b505af1158015611013573d6000803e3d6000fd5b600080439050808460070154111561328f5761328f6153b7565b808460070154036132a55750600090508061333f565b73__$f1b7c69ba751c396eddc93d3bbc5414fd9$__63010dfe648560070154836132cf9190614c8c565b60038701546075546040516001600160e01b031960e086901b1681526132fb9392918991600401614305565b602060405180830381865af4158015613318573d6000803e3d6000fd5b505050506040513d601f19601f8201168201806040525081019061333c9190614ab2565b91505b9250929050565b6001600160a01b03821661336f57806040516302b8da0760e21b81526004016103ec91906153cd565b6000613379613b99565b90506000816001018054905090506133a9846040518060600160405280602481526020016154a460249139613bab565b60005b83518110156110135760008482815181106133c9576133c9615119565b6020908102919091018101516001600160e01b031981166000908152918690526040909120549091506001600160a01b0316801561341c578160405163ebbf5d0760e01b81526004016103ec91906153e0565b6040805180820182526001600160a01b03808a16825261ffff80881660208085019182526001600160e01b0319881660009081528b8252958620945185549251909316600160a01b026001600160b01b0319909216929093169190911717909155600180880180549182018155835291206008820401805460e085901c60046007909416939093026101000a92830263ffffffff9093021916919091179055836134c5816153f5565b945050505080806134d590614d8c565b9150506133ac565b60006134e7613b99565b90506001600160a01b038316613512578160405163cd98a96f60e01b81526004016103ec91906153cd565b6135348360405180606001604052806028815260200161555760289139613bab565b60005b825181101561293357600083828151811061355457613554615119565b6020908102919091018101516001600160e01b031981166000908152918590526040909120549091506001600160a01b03163081036135a85781604051632901806d60e11b81526004016103ec91906153e0565b856001600160a01b0316816001600160a01b0316036135dc5781604051631ac6ce8d60e11b81526004016103ec91906153e0565b6001600160a01b0381166136055781604051637479f93960e01b81526004016103ec91906153e0565b506001600160e01b031916600090815260208390526040902080546001600160a01b0319166001600160a01b0386161790558061364181614d8c565b915050613537565b6000613653613b99565b60018101549091506001600160a01b03841615613685578360405163d091bc8160e01b81526004016103ec9190613ee1565b60005b83518110156110135760008482815181106136a5576136a5615119565b6020908102919091018101516001600160e01b0319811660009081528683526040908190208151808301909252546001600160a01b038116808352600160a01b90910461ffff1693820193909352909250906137165781604051637a08a22d60e01b81526004016103ec91906153e0565b8051306001600160a01b03909116036137445781604051630df5fd6160e31b81526004016103ec91906153e0565b8361374e81615416565b94505083816020015161ffff161461382c57600085600101858154811061377757613777615119565b90600052602060002090600891828204019190066004029054906101000a900460e01b90508086600101836020015161ffff16815481106137ba576137ba615119565b600091825260208083206008830401805463ffffffff60079094166004026101000a938402191660e09590951c92909202939093179055838201516001600160e01b03199390931681529087905260409020805461ffff60a01b1916600160a01b61ffff909316929092029190911790555b8460010180548061383f5761383f61542d565b60008281526020808220600860001990940193840401805463ffffffff600460078716026101000a0219169055919092556001600160e01b0319909316815291859052506040902080546001600160b01b03191690558061389f81614d8c565b915050613688565b6001600160a01b0382166138b9575050565b6138db826040518060600160405280602881526020016154c860289139613bab565b600080836001600160a01b0316836040516138f69190615443565b600060405180830381855af49150503d8060008114613931576040519150601f19603f3d011682016040523d82523d6000602084013e613936565b606091505b509150915081612933578051156139505780518082602001fd5b838360405163192105d760e01b81526004016103ec92919061545f565b613976816129a6565b6139d85760405162461bcd60e51b815260206004820152602d60248201527f455243313936373a206e657720696d706c656d656e746174696f6e206973206e60448201526c1bdd08184818dbdb9d1c9858dd609a1b60648201526084016103ec565b60008051602061551083398151915280546001600160a01b0319166001600160a01b0392909216919091179055565b613a1083613bd3565b600082511180613a1d5750805b15611022576129338383613c13565b6000763d602d80600a3d3981f3363d3d373d3d3d363d730000008360601b60e81c176000526e5af43d82803e903d91602b57fd5bf38360781b1760205281603760096000f590506001600160a01b038116610e8a5760405162461bcd60e51b8152602060048201526017602482015276115490cc4c4d8dce8818dc99585d194c8819985a5b1959604a1b60448201526064016103ec565b60008072184f03e93ff9f4daa797ed6e38ed64bf6a1f0160401b8310613b025772184f03e93ff9f4daa797ed6e38ed64bf6a1f0160401b830492506040015b6904ee2d6d415b85acef8160201b8310613b2c576904ee2d6d415b85acef8160201b830492506020015b662386f26fc100008310613b4a57662386f26fc10000830492506010015b6305f5e1008310613b62576305f5e100830492506008015b6127108310613b7657612710830492506004015b60648310613b88576064830492506002015b600a8310610e8a5760010192915050565b60008051602061548483398151915290565b813b600081900361102257828260405163919834b960e01b81526004016103ec92919061545f565b613bdc8161396d565b6040516001600160a01b038216907fbc7cd75a20ee27fd9adebab32041f755214dbc6bffa90cc0225b39da2e5c2d3b90600090a250565b606061170e8383604051806060016040528060278152602001615530602791396060600080856001600160a01b031685604051613c509190615443565b600060405180830381855af49150503d8060008114613c8b576040519150601f19603f3d011682016040523d82523d6000602084013e613c90565b606091505b5091509150613ca186838387613cab565b9695505050505050565b60608315613d18578251600003613d1157613cc5856129a6565b613d115760405162461bcd60e51b815260206004820152601d60248201527f416464726573733a2063616c6c20746f206e6f6e2d636f6e747261637400000060448201526064016103ec565b50816130f7565b6130f78383815115613d2d5781518083602001fd5b8060405162461bcd60e51b81526004016103ec9190614cea565b600060208284031215613d5957600080fd5b5035919050565b6001600160a01b03169052565b634e487b7160e01b600052602160045260246000fd5b60078110613d9357613d93613d6d565b9052565b60005b83811015613db2578181015183820152602001613d9a565b50506000910152565b60008151808452613dd3816020860160208601613d97565b601f01601f19169290920160200192915050565b8d8152602081018d9052604081018c9052606081018b90526001600160a01b038a8116608083015289811660a0830152881660c082015260e0810187905260006101e0613e38610100840189613d83565b806101208401528651818401525060208601516040610200840152613e61610220840182613dbb565b8651610140850152602087015161016085015260408701516001600160a01b03166101808501529150613e919050565b6101a08201939093526101c001529b9a5050505050505050505050565b80356001600160e01b031981168114611b1d57600080fd5b600060208284031215613ed857600080fd5b61170e82613eae565b6001600160a01b0391909116815260200190565b6001600160a01b038116811461106c57600080fd5b8035611b1d81613ef5565b60008060008060808587031215613f2b57600080fd5b8435613f3681613ef5565b93506020850135613f4681613ef5565b92506040850135613f5681613ef5565b91506060850135613f6681613ef5565b939692955090935050565b634e487b7160e01b600052604160045260246000fd5b604051608081016001600160401b0381118282101715613fa957613fa9613f71565b60405290565b60405160c081016001600160401b0381118282101715613fa957613fa9613f71565b604051606081016001600160401b0381118282101715613fa957613fa9613f71565b604080519081016001600160401b0381118282101715613fa957613fa9613f71565b60405161014081016001600160401b0381118282101715613fa957613fa9613f71565b604051601f8201601f191681016001600160401b038111828210171561406057614060613f71565b604052919050565b60006001600160401b0382111561408157614081613f71565b5060051b60200190565b600082601f83011261409c57600080fd5b813560206140b16140ac83614068565b614038565b82815260059290921b840181019181810190868411156140d057600080fd5b8286015b848110156140f45780356140e781613ef5565b83529183019183016140d4565b509695505050505050565b60006001600160401b0382111561411857614118613f71565b50601f01601f191660200190565b60006141346140ac846140ff565b905082815283838301111561414857600080fd5b828260208301376000602084830101529392505050565b600082601f83011261417057600080fd5b61170e83833560208501614126565b60008060006060848603121561419457600080fd5b83356001600160401b03808211156141ab57600080fd5b6141b78783880161408b565b945060208601359150808211156141cd57600080fd5b506141da8682870161415f565b92505060408401356141eb81613ef5565b809150509250925092565b60006020828403121561420857600080fd5b813561170e81613ef5565b60008083601f84011261422557600080fd5b5081356001600160401b0381111561423c57600080fd5b60208301915083602082850101111561333f57600080fd5b60008060008060006060868803121561426c57600080fd5b85356001600160401b038082111561428357600080fd5b818801915088601f83011261429757600080fd5b8135818111156142a657600080fd5b8960208260051b85010111156142bb57600080fd5b602083019750809650506142d160208901613f0a565b945060408801359150808211156142e757600080fd5b506142f488828901614213565b969995985093965092949392505050565b93845260208401929092526040830152606082015260800190565b6000806040838503121561433357600080fd5b82356001600160401b0381111561434957600080fd5b6143558582860161415f565b925050602083013561436681613ef5565b809150509250929050565b6004811061106c5761106c613d6d565b613d9381614371565b6020810161439783614371565b91905290565b600080604083850312156143b057600080fd5b82356143bb81613ef5565b946020939093013593505050565b600080604083850312156143dc57600080fd5b50508035926020909101359150565b600080604083850312156143fe57600080fd5b823561440981613ef5565b915060208301356001600160401b0381111561442457600080fd5b6144308582860161415f565b9150509250929050565b60008060006060848603121561444f57600080fd5b833561445a81613ef5565b925060208401356001600160401b0381111561447557600080fd5b8401601f8101861361448657600080fd5b6141da86823560208401614126565b801515811461106c57600080fd5b6000602082840312156144b557600080fd5b813561170e81614495565b80356001600160801b0381168114611b1d57600080fd5b600080604083850312156144ea57600080fd5b823591506144fa602084016144c0565b90509250929050565b60008060008060006060868803121561451b57600080fd5b8535945060208601356001600160401b038082111561453957600080fd5b61454589838a01614213565b909650945060408801359150808211156142e757600080fd5b6001600160a01b038d811682528c811660208301528b166040820152606081018a905260808101899052610180810161459a60a083018a613d83565b8760c08301528660e0830152856101008301528461012083015283610140830152826101608301529d9c50505050505050505050505050565b6000608082840312156145e557600080fd5b6145ed613f87565b90508135815260208201356020820152604082013560408201526060820135606082015292915050565b6000806000806000808688036101c081121561463257600080fd5b60c081121561464057600080fd5b50614649613faf565b873561465481613ef5565b8152602088013561466481613ef5565b8060208301525060408801356040820152606088013560608201526080880135608082015260a088013560a0820152809650506146a48860c089016145d3565b945061014087013593506101608701356001600160401b03808211156146c957600080fd5b6146d58a838b0161408b565b94506101808901359150808211156146ec57600080fd5b506146f989828a0161408b565b9250506147096101a08801613f0a565b90509295509295509295565b6000806040838503121561472857600080fd5b82359150602083013561436681613ef5565b60008060006060848603121561474f57600080fd5b83359250602084013561476181613ef5565b915061476f604085016144c0565b90509250925092565b6000806040838503121561478b57600080fd5b8235915060208301356001600160401b0381111561442457600080fd5b600181811c908216806147bc57607f821691505b6020821081036147dc57634e487b7160e01b600052602260045260246000fd5b50919050565b60006147f06140ac84614068565b83815260208082019190600586811b86013681111561480e57600080fd5b865b818110156149055780356001600160401b03808211156148305760008081fd5b818a019150606082360312156148465760008081fd5b61484e613fd1565b823561485981613ef5565b8152828701356003811061486d5760008081fd5b81880152604083810135838111156148855760008081fd5b939093019236601f85011261489c57600092508283fd5b833592506148ac6140ac84614068565b83815292871b840188019288810190368511156148c95760008081fd5b948901945b848610156148ee576148df86613eae565b825294890194908901906148ce565b918301919091525088525050948301948301614810565b5092979650505050505050565b6020808252602c908201526000805160206154f083398151915260408201526b19195b1959d85d1958d85b1b60a21b606082015260800190565b6020808252602c908201526000805160206154f083398151915260408201526b6163746976652070726f787960a01b606082015260800190565b8051611b1d81613ef5565b600060208083850312156149a457600080fd5b82516001600160401b03808211156149bb57600080fd5b9084019060c082870312156149cf57600080fd5b6149d7613faf565b82518152838301516149e881613ef5565b8185015260408301516149fa81613ef5565b6040820152606083015182811115614a1157600080fd5b830160408189031215614a2357600080fd5b614a2b613ff3565b815181528582015184811115614a4057600080fd5b82019350601f84018913614a5357600080fd5b83519150614a636140ac836140ff565b8281528987848701011115614a7757600080fd5b614a8683888301898801613d97565b95810195909552506060810193909352506080818101519083015260a090810151908201529392505050565b600060208284031215614ac457600080fd5b5051919050565b600060208284031215614add57600080fd5b815160ff8116811461170e57600080fd5b634e487b7160e01b600052601160045260246000fd5b60ff8281168282160390811115610e8a57610e8a614aee565b600181815b80851115614b58578160001904821115614b3e57614b3e614aee565b80851615614b4b57918102915b93841c9390800290614b22565b509250929050565b600082614b6f57506001610e8a565b81614b7c57506000610e8a565b8160018114614b925760028114614b9c57614bb8565b6001915050610e8a565b60ff841115614bad57614bad614aee565b50506001821b610e8a565b5060208310610133831016604e8410600b8410161715614bdb575081810a610e8a565b614be58383614b1d565b8060001904821115614bf957614bf9614aee565b029392505050565b600061170e60ff841683614b60565b600082614c2d57634e487b7160e01b600052601260045260246000fd5b500490565b8082028115828204841417610e8a57610e8a614aee565b80820180821115610e8a57610e8a614aee565b968752602087019590955260408601939093526060850191909152608084015260a083015260c082015260e00190565b81810381811115610e8a57610e8a614aee565b6020808252602b908201527f496e697469616c697a61626c653a20636f6e7472616374206973206e6f74206960408201526a6e697469616c697a696e6760a81b606082015260800190565b60208152600061170e6020830184613dbb565b6001600160a01b038681168252851660208201526040810184905260a08101614d2584614371565b6060820193909352608001529392505050565b6001600160a01b0392831681529116602082015260400190565b600060208284031215614d6457600080fd5b815161170e81614495565b600060208284031215614d8157600080fd5b815161170e81613ef5565b600060018201614d9e57614d9e614aee565b5060010190565b600060808284031215614db757600080fd5b614dbf613f87565b90508151815260208201516020820152604082015160408201526060820151606082015292915050565b805160048110611b1d57600080fd5b600060208284031215614e0a57600080fd5b604051602081016001600160401b0381118282101715614e2c57614e2c613f71565b6040529151825250919050565b600060c08284031215614e4b57600080fd5b614e53613faf565b90508151614e6081613ef5565b81526020820151614e7081613ef5565b8060208301525060408201516040820152606082015160608201526080820151608082015260a082015160a082015292915050565b600082601f830112614eb657600080fd5b81516020614ec66140ac83614068565b82815260059290921b84018101918181019086841115614ee557600080fd5b8286015b848110156140f4578051614efc81613ef5565b8352918301918301614ee9565b600060208284031215614f1b57600080fd5b81516001600160401b0380821115614f3257600080fd5b908301906102408286031215614f4757600080fd5b614f4f614015565b614f598684614da5565b8152614f6760808401614de9565b6020820152614f7860a08401614de9565b6040820152614f8a8660c08501614df8565b6060820152614f9c8660e08501614e39565b6080820152614fae6101a08401614986565b60a0820152614fc06101c08401614986565b60c08201526101e083015160e082015261020083015182811115614fe357600080fd5b614fef87828601614ea5565b610100830152506150036102208401614986565b61012082015295945050505050565b7247617264656e7320594453205661756c74202360681b815260008251615040816013850160208701613d97565b9190910160130192915050565b64675944532d60d81b81526000825161506d816005850160208701613d97565b9190910160050192915050565b6001600160a01b038981168252610100602083018190526000916150a08483018c613dbb565b915083820360408501526150b4828b613dbb565b98811660608501529687166080840152505060a0810193909352921660c082015290151560e0909101529392505050565b9182526001600160a01b0316602082015260400190565b6810531313d5d31254d560ba1b8152600981019190915260290190565b634e487b7160e01b600052603260045260246000fd5b805182526020810151602083015260408101516040830152606081015160608301525050565b600081518084526020808501945080840160005b8381101561518e5781516001600160a01b031687529582019590820190600101615169565b509495945050505050565b828152604060208201526151b160408201835161512f565b600060208301516151c560c0840182614381565b5060408301516151d860e0840182614381565b5060608301516101006151ed81850183519052565b60808581015180516001600160a01b0390811661012088810191909152602083015190911661014088015260408201516101608801526060820151610180880152918101516101a087015260a0908101516101c087015286015192506152576101e0860184613d60565b60c0860151925061526c610200860184613d60565b60e086015161022086015281860151925061024091508182860152615295610280860184615155565b9250808601519150506152ac610260850182613d60565b50949350505050565b60808101610e8a828461512f565b600081518084526020808501945080840160005b8381101561518e5781516001600160e01b031916875295820195908201906001016152d7565b6000606080830181845280875180835260808601915060808160051b87010192506020808a0160005b8381101561538957888603607f19018552815180516001600160a01b03168752838101516003811061535a5761535a613d6d565b87850152604090810151908701889052615376888801826152c3565b9650509382019390820190600101615326565b50506153978188018a613d60565b50505083810360408501526153ac8186613dbb565b979650505050505050565b634e487b7160e01b600052600160045260246000fd5b60208152600061170e60208301846152c3565b6001600160e01b031991909116815260200190565b600061ffff80831681810361540c5761540c614aee565b6001019392505050565b60008161542557615425614aee565b506000190190565b634e487b7160e01b600052603160045260246000fd5b60008251615455818460208701613d97565b9190910192915050565b6001600160a01b03831681526040602082018190526000906130f790830184613dbb56fec8fcad8db84d3cc18b4c41d551ea0ee66dd599cde068d998e57d5e09332c131c4c69624469616d6f6e644375743a2041646420666163657420686173206e6f20636f64654c69624469616d6f6e644375743a205f696e6974206164647265737320686173206e6f20636f646546756e6374696f6e206d7573742062652063616c6c6564207468726f75676820360894a13ba1a3210667c828492db98dca3e2076cc3735a920a3ca505d382bbc416464726573733a206c6f772d6c6576656c2064656c65676174652063616c6c206661696c65644c69624469616d6f6e644375743a205265706c61636520666163657420686173206e6f20636f6465a164736f6c6343000813000a","linkReferences":{"pkg/contracts/src/CVStrategy/ConvictionsUtils.sol":{"ConvictionsUtils":[{"start":5655,"length":20},{"start":5828,"length":20},{"start":7195,"length":20},{"start":13043,"length":20}]},"pkg/contracts/src/CVStrategy/PowerManagementUtils.sol":{"PowerManagementUtils":[{"start":6203,"length":20}]}}},"methodIdentifiers":{"DISPUTE_COOLDOWN_SEC()":"f5be3f7c","NATIVE()":"a0cf0aea","RULING_OPTIONS()":"626c47e8","activatePoints()":"814516ad","allocate(bytes,address)":"ef2920fc","arbitrableConfigs(uint256)":"41bb7605","batchEvaluateStreams()":"fc4896c8","calculateProposalConviction(uint256)":"60b0645a","calculateThreshold(uint256)":"59a5db8b","cancelProposal(uint256)":"e0a8f6f5","cloneNonce()":"33960459","collateralVault()":"0bece79c","connectSuperfluidGDA(address)":"924e6704","currentArbitrableConfigVersion()":"125fd1d9","cvParams()":"2506b870","cvVault()":"d4ec7879","deactivatePoints()":"1ddf1e23","deactivatePoints(address)":"6453d9c4","decreasePower(address,uint256)":"2ed04b2b","diamondCut((address,uint8,bytes4[])[],address,bytes)":"1f931c1c","disconnectSuperfluidGDA(address)":"c69271ec","disputeCount()":"a28889e1","disputeIdToProposalId(uint256)":"255ffb38","disputeProposal(uint256,string,bytes)":"b41596ec","distribute(address[],bytes,address)":"0a6f0ee9","evaluateProposalStream(uint256)":"21704668","getAllo()":"15cc481e","getArbitrableConfig()":"059351cd","getGDA()":"d69bec6a","getPointSystem()":"c3292171","getPoolAmount()":"4ab4ba42","getPoolId()":"38fff2d0","getProposal(uint256)":"c7f758a8","getProposalStakedAmount(uint256)":"dc96ff2d","getProposalVoterStake(uint256,address)":"e0dd2c38","getStreamState(uint256)":"60d01e7c","harvestYDS()":"a6be4a55","increasePower(address,uint256)":"782aadff","init(address,address,address,address)":"06552ff3","init(address,string,address)":"60d5dedc","initialize(address)":"c4d66de8","initialize(uint256,bytes)":"edd146cc","initializeGDA(address)":"6ff91d9b","isPoolActive()":"df868ed3","owner()":"8da5cb5b","pointConfig()":"a47ff7e5","pointSystem()":"2dbd6fdd","proposalCounter()":"0c0512e9","proposalType()":"351d9f96","proposals(uint256)":"013cf08b","proxiableUUID()":"52d1902d","proxyOwner()":"025313a2","rebalanceYieldStreams()":"c778884f","registerRecipient(bytes,address)":"2bbe0cae","registryCommunity()":"6003e414","renounceOwnership()":"715018a6","rule(uint256,uint256)":"311a6c56","setCollateralVaultTemplate(address)":"b0d3713a","setPoolActive(bool)":"b5f620ce","setPoolParams((address,address,uint256,uint256,uint256,uint256),(uint256,uint256,uint256,uint256),uint256,address[],address[],address)":"d5b7cc54","setStreamingEnabled(bool)":"79ea88e6","setYDSStrategy(address)":"1de95593","startStream(uint256,address,uint128)":"e1f12355","stopStream(uint256)":"85d5089e","superfluidToken()":"05caa7f3","supportsInterface(bytes4)":"01ffc9a7","sybilScorer()":"b6c61f31","totalPointsActivated()":"aba9ffee","totalStaked()":"817b1cd2","totalVoterStakePct(address)":"5db64b99","transferOwnership(address)":"f2fde38b","updateProposalConviction(uint256)":"1aa91a9e","updateStream(uint256,uint128)":"9ac7b864","upgradeTo(address)":"3659cfe6","upgradeToAndCall(address,bytes)":"4f1ef286","voterStakedProposals(address,uint256)":"868c57b8"},"storageLayout":{"storage":[{"astId":53203,"contract":"pkg/contracts/src/CVStrategy/CVStrategy.sol:CVStrategy","label":"_initialized","offset":0,"slot":"0","type":"t_uint8"},{"astId":53206,"contract":"pkg/contracts/src/CVStrategy/CVStrategy.sol:CVStrategy","label":"_initializing","offset":1,"slot":"0","type":"t_bool"},{"astId":55609,"contract":"pkg/contracts/src/CVStrategy/CVStrategy.sol:CVStrategy","label":"__gap","offset":0,"slot":"1","type":"t_array(t_uint256)50_storage"},{"astId":52827,"contract":"pkg/contracts/src/CVStrategy/CVStrategy.sol:CVStrategy","label":"_owner","offset":0,"slot":"51","type":"t_address"},{"astId":52947,"contract":"pkg/contracts/src/CVStrategy/CVStrategy.sol:CVStrategy","label":"__gap","offset":0,"slot":"52","type":"t_array(t_uint256)49_storage"},{"astId":84542,"contract":"pkg/contracts/src/CVStrategy/CVStrategy.sol:CVStrategy","label":"allo","offset":0,"slot":"101","type":"t_contract(IAllo)2629"},{"astId":84544,"contract":"pkg/contracts/src/CVStrategy/CVStrategy.sol:CVStrategy","label":"strategyId","offset":0,"slot":"102","type":"t_bytes32"},{"astId":84546,"contract":"pkg/contracts/src/CVStrategy/CVStrategy.sol:CVStrategy","label":"poolActive","offset":0,"slot":"103","type":"t_bool"},{"astId":84548,"contract":"pkg/contracts/src/CVStrategy/CVStrategy.sol:CVStrategy","label":"poolId","offset":0,"slot":"104","type":"t_uint256"},{"astId":84550,"contract":"pkg/contracts/src/CVStrategy/CVStrategy.sol:CVStrategy","label":"poolAmount","offset":0,"slot":"105","type":"t_uint256"},{"astId":85109,"contract":"pkg/contracts/src/CVStrategy/CVStrategy.sol:CVStrategy","label":"collateralVaultTemplate","offset":0,"slot":"106","type":"t_address"},{"astId":85111,"contract":"pkg/contracts/src/CVStrategy/CVStrategy.sol:CVStrategy","label":"cvVaultTemplate","offset":0,"slot":"107","type":"t_address"},{"astId":85113,"contract":"pkg/contracts/src/CVStrategy/CVStrategy.sol:CVStrategy","label":"surpressStateMutabilityWarning","offset":0,"slot":"108","type":"t_uint256"},{"astId":85115,"contract":"pkg/contracts/src/CVStrategy/CVStrategy.sol:CVStrategy","label":"cloneNonce","offset":0,"slot":"109","type":"t_uint256"},{"astId":85117,"contract":"pkg/contracts/src/CVStrategy/CVStrategy.sol:CVStrategy","label":"disputeCount","offset":0,"slot":"110","type":"t_uint64"},{"astId":85119,"contract":"pkg/contracts/src/CVStrategy/CVStrategy.sol:CVStrategy","label":"proposalCounter","offset":0,"slot":"111","type":"t_uint256"},{"astId":85121,"contract":"pkg/contracts/src/CVStrategy/CVStrategy.sol:CVStrategy","label":"currentArbitrableConfigVersion","offset":0,"slot":"112","type":"t_uint256"},{"astId":85123,"contract":"pkg/contracts/src/CVStrategy/CVStrategy.sol:CVStrategy","label":"totalStaked","offset":0,"slot":"113","type":"t_uint256"},{"astId":85125,"contract":"pkg/contracts/src/CVStrategy/CVStrategy.sol:CVStrategy","label":"totalPointsActivated","offset":0,"slot":"114","type":"t_uint256"},{"astId":85128,"contract":"pkg/contracts/src/CVStrategy/CVStrategy.sol:CVStrategy","label":"cvParams","offset":0,"slot":"115","type":"t_struct(CVParams)88147_storage"},{"astId":85131,"contract":"pkg/contracts/src/CVStrategy/CVStrategy.sol:CVStrategy","label":"proposalType","offset":0,"slot":"119","type":"t_enum(ProposalType)88050"},{"astId":85134,"contract":"pkg/contracts/src/CVStrategy/CVStrategy.sol:CVStrategy","label":"pointSystem","offset":1,"slot":"119","type":"t_enum(PointSystem)88055"},{"astId":85137,"contract":"pkg/contracts/src/CVStrategy/CVStrategy.sol:CVStrategy","label":"pointConfig","offset":0,"slot":"120","type":"t_struct(PointSystemConfig)88124_storage"},{"astId":85140,"contract":"pkg/contracts/src/CVStrategy/CVStrategy.sol:CVStrategy","label":"registryCommunity","offset":0,"slot":"121","type":"t_contract(IVotingPowerRegistry)104333"},{"astId":85143,"contract":"pkg/contracts/src/CVStrategy/CVStrategy.sol:CVStrategy","label":"collateralVault","offset":0,"slot":"122","type":"t_contract(ICollateralVault)103612"},{"astId":85146,"contract":"pkg/contracts/src/CVStrategy/CVStrategy.sol:CVStrategy","label":"cvVault","offset":0,"slot":"123","type":"t_contract(ICVVault)103579"},{"astId":85149,"contract":"pkg/contracts/src/CVStrategy/CVStrategy.sol:CVStrategy","label":"sybilScorer","offset":0,"slot":"124","type":"t_contract(ISybilScorer)95778"},{"astId":85154,"contract":"pkg/contracts/src/CVStrategy/CVStrategy.sol:CVStrategy","label":"proposals","offset":0,"slot":"125","type":"t_mapping(t_uint256,t_struct(Proposal)88116_storage)"},{"astId":85158,"contract":"pkg/contracts/src/CVStrategy/CVStrategy.sol:CVStrategy","label":"totalVoterStakePct","offset":0,"slot":"126","type":"t_mapping(t_address,t_uint256)"},{"astId":85163,"contract":"pkg/contracts/src/CVStrategy/CVStrategy.sol:CVStrategy","label":"voterStakedProposals","offset":0,"slot":"127","type":"t_mapping(t_address,t_array(t_uint256)dyn_storage)"},{"astId":85167,"contract":"pkg/contracts/src/CVStrategy/CVStrategy.sol:CVStrategy","label":"disputeIdToProposalId","offset":0,"slot":"128","type":"t_mapping(t_uint256,t_uint256)"},{"astId":85172,"contract":"pkg/contracts/src/CVStrategy/CVStrategy.sol:CVStrategy","label":"arbitrableConfigs","offset":0,"slot":"129","type":"t_mapping(t_uint256,t_struct(ArbitrableConfig)88138_storage)"},{"astId":85175,"contract":"pkg/contracts/src/CVStrategy/CVStrategy.sol:CVStrategy","label":"superfluidToken","offset":0,"slot":"130","type":"t_contract(ISuperToken)74423"},{"astId":86970,"contract":"pkg/contracts/src/CVStrategy/CVStrategy.sol:CVStrategy","label":"__gap","offset":0,"slot":"131","type":"t_array(t_uint256)49_storage"}],"types":{"t_address":{"encoding":"inplace","label":"address","numberOfBytes":"20"},"t_array(t_uint256)49_storage":{"encoding":"inplace","label":"uint256[49]","numberOfBytes":"1568","base":"t_uint256"},"t_array(t_uint256)50_storage":{"encoding":"inplace","label":"uint256[50]","numberOfBytes":"1600","base":"t_uint256"},"t_array(t_uint256)dyn_storage":{"encoding":"dynamic_array","label":"uint256[]","numberOfBytes":"32","base":"t_uint256"},"t_bool":{"encoding":"inplace","label":"bool","numberOfBytes":"1"},"t_bytes32":{"encoding":"inplace","label":"bytes32","numberOfBytes":"32"},"t_contract(IAllo)2629":{"encoding":"inplace","label":"contract IAllo","numberOfBytes":"20"},"t_contract(IArbitrator)103495":{"encoding":"inplace","label":"contract IArbitrator","numberOfBytes":"20"},"t_contract(ICVVault)103579":{"encoding":"inplace","label":"contract ICVVault","numberOfBytes":"20"},"t_contract(ICollateralVault)103612":{"encoding":"inplace","label":"contract ICollateralVault","numberOfBytes":"20"},"t_contract(ISuperToken)74423":{"encoding":"inplace","label":"contract ISuperToken","numberOfBytes":"20"},"t_contract(ISybilScorer)95778":{"encoding":"inplace","label":"contract ISybilScorer","numberOfBytes":"20"},"t_contract(IVotingPowerRegistry)104333":{"encoding":"inplace","label":"contract IVotingPowerRegistry","numberOfBytes":"20"},"t_enum(PointSystem)88055":{"encoding":"inplace","label":"enum PointSystem","numberOfBytes":"1"},"t_enum(ProposalStatus)88075":{"encoding":"inplace","label":"enum ProposalStatus","numberOfBytes":"1"},"t_enum(ProposalType)88050":{"encoding":"inplace","label":"enum ProposalType","numberOfBytes":"1"},"t_mapping(t_address,t_array(t_uint256)dyn_storage)":{"encoding":"mapping","key":"t_address","label":"mapping(address => uint256[])","numberOfBytes":"32","value":"t_array(t_uint256)dyn_storage"},"t_mapping(t_address,t_uint256)":{"encoding":"mapping","key":"t_address","label":"mapping(address => uint256)","numberOfBytes":"32","value":"t_uint256"},"t_mapping(t_uint256,t_struct(ArbitrableConfig)88138_storage)":{"encoding":"mapping","key":"t_uint256","label":"mapping(uint256 => struct ArbitrableConfig)","numberOfBytes":"32","value":"t_struct(ArbitrableConfig)88138_storage"},"t_mapping(t_uint256,t_struct(Proposal)88116_storage)":{"encoding":"mapping","key":"t_uint256","label":"mapping(uint256 => struct Proposal)","numberOfBytes":"32","value":"t_struct(Proposal)88116_storage"},"t_mapping(t_uint256,t_uint256)":{"encoding":"mapping","key":"t_uint256","label":"mapping(uint256 => uint256)","numberOfBytes":"32","value":"t_uint256"},"t_string_storage":{"encoding":"bytes","label":"string","numberOfBytes":"32"},"t_struct(ArbitrableConfig)88138_storage":{"encoding":"inplace","label":"struct ArbitrableConfig","numberOfBytes":"192","members":[{"astId":88127,"contract":"pkg/contracts/src/CVStrategy/CVStrategy.sol:CVStrategy","label":"arbitrator","offset":0,"slot":"0","type":"t_contract(IArbitrator)103495"},{"astId":88129,"contract":"pkg/contracts/src/CVStrategy/CVStrategy.sol:CVStrategy","label":"tribunalSafe","offset":0,"slot":"1","type":"t_address"},{"astId":88131,"contract":"pkg/contracts/src/CVStrategy/CVStrategy.sol:CVStrategy","label":"submitterCollateralAmount","offset":0,"slot":"2","type":"t_uint256"},{"astId":88133,"contract":"pkg/contracts/src/CVStrategy/CVStrategy.sol:CVStrategy","label":"challengerCollateralAmount","offset":0,"slot":"3","type":"t_uint256"},{"astId":88135,"contract":"pkg/contracts/src/CVStrategy/CVStrategy.sol:CVStrategy","label":"defaultRuling","offset":0,"slot":"4","type":"t_uint256"},{"astId":88137,"contract":"pkg/contracts/src/CVStrategy/CVStrategy.sol:CVStrategy","label":"defaultRulingTimeout","offset":0,"slot":"5","type":"t_uint256"}]},"t_struct(CVParams)88147_storage":{"encoding":"inplace","label":"struct CVParams","numberOfBytes":"128","members":[{"astId":88140,"contract":"pkg/contracts/src/CVStrategy/CVStrategy.sol:CVStrategy","label":"maxRatio","offset":0,"slot":"0","type":"t_uint256"},{"astId":88142,"contract":"pkg/contracts/src/CVStrategy/CVStrategy.sol:CVStrategy","label":"weight","offset":0,"slot":"1","type":"t_uint256"},{"astId":88144,"contract":"pkg/contracts/src/CVStrategy/CVStrategy.sol:CVStrategy","label":"decay","offset":0,"slot":"2","type":"t_uint256"},{"astId":88146,"contract":"pkg/contracts/src/CVStrategy/CVStrategy.sol:CVStrategy","label":"minThresholdPoints","offset":0,"slot":"3","type":"t_uint256"}]},"t_struct(Metadata)3080_storage":{"encoding":"inplace","label":"struct Metadata","numberOfBytes":"64","members":[{"astId":3076,"contract":"pkg/contracts/src/CVStrategy/CVStrategy.sol:CVStrategy","label":"protocol","offset":0,"slot":"0","type":"t_uint256"},{"astId":3079,"contract":"pkg/contracts/src/CVStrategy/CVStrategy.sol:CVStrategy","label":"pointer","offset":0,"slot":"1","type":"t_string_storage"}]},"t_struct(PointSystemConfig)88124_storage":{"encoding":"inplace","label":"struct PointSystemConfig","numberOfBytes":"32","members":[{"astId":88123,"contract":"pkg/contracts/src/CVStrategy/CVStrategy.sol:CVStrategy","label":"maxAmount","offset":0,"slot":"0","type":"t_uint256"}]},"t_struct(Proposal)88116_storage":{"encoding":"inplace","label":"struct Proposal","numberOfBytes":"544","members":[{"astId":88084,"contract":"pkg/contracts/src/CVStrategy/CVStrategy.sol:CVStrategy","label":"proposalId","offset":0,"slot":"0","type":"t_uint256"},{"astId":88086,"contract":"pkg/contracts/src/CVStrategy/CVStrategy.sol:CVStrategy","label":"requestedAmount","offset":0,"slot":"1","type":"t_uint256"},{"astId":88088,"contract":"pkg/contracts/src/CVStrategy/CVStrategy.sol:CVStrategy","label":"stakedAmount","offset":0,"slot":"2","type":"t_uint256"},{"astId":88090,"contract":"pkg/contracts/src/CVStrategy/CVStrategy.sol:CVStrategy","label":"convictionLast","offset":0,"slot":"3","type":"t_uint256"},{"astId":88092,"contract":"pkg/contracts/src/CVStrategy/CVStrategy.sol:CVStrategy","label":"beneficiary","offset":0,"slot":"4","type":"t_address"},{"astId":88094,"contract":"pkg/contracts/src/CVStrategy/CVStrategy.sol:CVStrategy","label":"submitter","offset":0,"slot":"5","type":"t_address"},{"astId":88096,"contract":"pkg/contracts/src/CVStrategy/CVStrategy.sol:CVStrategy","label":"requestedToken","offset":0,"slot":"6","type":"t_address"},{"astId":88098,"contract":"pkg/contracts/src/CVStrategy/CVStrategy.sol:CVStrategy","label":"blockLast","offset":0,"slot":"7","type":"t_uint256"},{"astId":88101,"contract":"pkg/contracts/src/CVStrategy/CVStrategy.sol:CVStrategy","label":"proposalStatus","offset":0,"slot":"8","type":"t_enum(ProposalStatus)88075"},{"astId":88105,"contract":"pkg/contracts/src/CVStrategy/CVStrategy.sol:CVStrategy","label":"voterStakedPoints","offset":0,"slot":"9","type":"t_mapping(t_address,t_uint256)"},{"astId":88108,"contract":"pkg/contracts/src/CVStrategy/CVStrategy.sol:CVStrategy","label":"metadata","offset":0,"slot":"10","type":"t_struct(Metadata)3080_storage"},{"astId":88111,"contract":"pkg/contracts/src/CVStrategy/CVStrategy.sol:CVStrategy","label":"disputeInfo","offset":0,"slot":"12","type":"t_struct(ProposalDisputeInfo)88082_storage"},{"astId":88113,"contract":"pkg/contracts/src/CVStrategy/CVStrategy.sol:CVStrategy","label":"lastDisputeCompletion","offset":0,"slot":"15","type":"t_uint256"},{"astId":88115,"contract":"pkg/contracts/src/CVStrategy/CVStrategy.sol:CVStrategy","label":"arbitrableConfigVersion","offset":0,"slot":"16","type":"t_uint256"}]},"t_struct(ProposalDisputeInfo)88082_storage":{"encoding":"inplace","label":"struct ProposalDisputeInfo","numberOfBytes":"96","members":[{"astId":88077,"contract":"pkg/contracts/src/CVStrategy/CVStrategy.sol:CVStrategy","label":"disputeId","offset":0,"slot":"0","type":"t_uint256"},{"astId":88079,"contract":"pkg/contracts/src/CVStrategy/CVStrategy.sol:CVStrategy","label":"disputeTimestamp","offset":0,"slot":"1","type":"t_uint256"},{"astId":88081,"contract":"pkg/contracts/src/CVStrategy/CVStrategy.sol:CVStrategy","label":"challenger","offset":0,"slot":"2","type":"t_address"}]},"t_uint256":{"encoding":"inplace","label":"uint256","numberOfBytes":"32"},"t_uint64":{"encoding":"inplace","label":"uint64","numberOfBytes":"8"},"t_uint8":{"encoding":"inplace","label":"uint8","numberOfBytes":"1"}}},"id":149}