{"abi":[{"type":"constructor","inputs":[{"name":"_allo","type":"address","internalType":"address"}],"stateMutability":"nonpayable"},{"type":"fallback","stateMutability":"payable"},{"type":"receive","stateMutability":"payable"},{"type":"function","name":"D","inputs":[],"outputs":[{"name":"","type":"uint256","internalType":"uint256"}],"stateMutability":"view"},{"type":"function","name":"MAX_STAKED_PROPOSALS","inputs":[],"outputs":[{"name":"","type":"uint256","internalType":"uint256"}],"stateMutability":"view"},{"type":"function","name":"NATIVE","inputs":[],"outputs":[{"name":"","type":"address","internalType":"address"}],"stateMutability":"view"},{"type":"function","name":"PRECISION_PERCENTAGE","inputs":[],"outputs":[{"name":"","type":"uint256","internalType":"uint256"}],"stateMutability":"view"},{"type":"function","name":"PRECISION_SCALE","inputs":[],"outputs":[{"name":"","type":"uint256","internalType":"uint256"}],"stateMutability":"view"},{"type":"function","name":"activatePoints","inputs":[],"outputs":[],"stateMutability":"nonpayable"},{"type":"function","name":"allocate","inputs":[{"name":"_data","type":"bytes","internalType":"bytes"},{"name":"_sender","type":"address","internalType":"address"}],"outputs":[],"stateMutability":"payable"},{"type":"function","name":"calculateConviction","inputs":[{"name":"_timePassed","type":"uint256","internalType":"uint256"},{"name":"_lastConv","type":"uint256","internalType":"uint256"},{"name":"_oldAmount","type":"uint256","internalType":"uint256"}],"outputs":[{"name":"","type":"uint256","internalType":"uint256"}],"stateMutability":"view"},{"type":"function","name":"calculateThreshold","inputs":[{"name":"_requestedAmount","type":"uint256","internalType":"uint256"}],"outputs":[{"name":"_threshold","type":"uint256","internalType":"uint256"}],"stateMutability":"view"},{"type":"function","name":"deactivatePoints","inputs":[{"name":"_member","type":"address","internalType":"address"}],"outputs":[],"stateMutability":"nonpayable"},{"type":"function","name":"decay","inputs":[],"outputs":[{"name":"","type":"uint256","internalType":"uint256"}],"stateMutability":"view"},{"type":"function","name":"decreasePower","inputs":[{"name":"_member","type":"address","internalType":"address"},{"name":"_amountToUnstake","type":"uint256","internalType":"uint256"}],"outputs":[{"name":"","type":"uint256","internalType":"uint256"}],"stateMutability":"nonpayable"},{"type":"function","name":"distribute","inputs":[{"name":"_recipientIds","type":"address[]","internalType":"address[]"},{"name":"_data","type":"bytes","internalType":"bytes"},{"name":"_sender","type":"address","internalType":"address"}],"outputs":[],"stateMutability":"nonpayable"},{"type":"function","name":"getAllo","inputs":[],"outputs":[{"name":"","type":"address","internalType":"contract IAllo"}],"stateMutability":"view"},{"type":"function","name":"getMaxConviction","inputs":[{"name":"amount","type":"uint256","internalType":"uint256"}],"outputs":[{"name":"","type":"uint256","internalType":"uint256"}],"stateMutability":"view"},{"type":"function","name":"getMetadata","inputs":[{"name":"_proposalId","type":"uint256","internalType":"uint256"}],"outputs":[{"name":"","type":"tuple","internalType":"struct Metadata","components":[{"name":"protocol","type":"uint256","internalType":"uint256"},{"name":"pointer","type":"string","internalType":"string"}]}],"stateMutability":"view"},{"type":"function","name":"getPayouts","inputs":[{"name":"","type":"address[]","internalType":"address[]"},{"name":"","type":"bytes[]","internalType":"bytes[]"}],"outputs":[{"name":"","type":"tuple[]","internalType":"struct IStrategy.PayoutSummary[]","components":[{"name":"recipientAddress","type":"address","internalType":"address"},{"name":"amount","type":"uint256","internalType":"uint256"}]}],"stateMutability":"view"},{"type":"function","name":"getPointsPerMember","inputs":[],"outputs":[{"name":"","type":"uint256","internalType":"uint256"}],"stateMutability":"view"},{"type":"function","name":"getPointsPerTokenStaked","inputs":[],"outputs":[{"name":"","type":"uint256","internalType":"uint256"}],"stateMutability":"view"},{"type":"function","name":"getPoolAmount","inputs":[],"outputs":[{"name":"","type":"uint256","internalType":"uint256"}],"stateMutability":"view"},{"type":"function","name":"getPoolId","inputs":[],"outputs":[{"name":"","type":"uint256","internalType":"uint256"}],"stateMutability":"view"},{"type":"function","name":"getProposal","inputs":[{"name":"_proposalId","type":"uint256","internalType":"uint256"}],"outputs":[{"name":"submitter","type":"address","internalType":"address"},{"name":"beneficiary","type":"address","internalType":"address"},{"name":"requestedToken","type":"address","internalType":"address"},{"name":"requestedAmount","type":"uint256","internalType":"uint256"},{"name":"stakedTokens","type":"uint256","internalType":"uint256"},{"name":"proposalStatus","type":"uint8","internalType":"enum StrategyStruct.ProposalStatus"},{"name":"blockLast","type":"uint256","internalType":"uint256"},{"name":"convictionLast","type":"uint256","internalType":"uint256"},{"name":"threshold","type":"uint256","internalType":"uint256"},{"name":"voterStakedPointsPct","type":"uint256","internalType":"uint256"}],"stateMutability":"view"},{"type":"function","name":"getProposalStakedAmount","inputs":[{"name":"_proposalId","type":"uint256","internalType":"uint256"}],"outputs":[{"name":"","type":"uint256","internalType":"uint256"}],"stateMutability":"view"},{"type":"function","name":"getProposalVoterStake","inputs":[{"name":"_proposalId","type":"uint256","internalType":"uint256"},{"name":"_voter","type":"address","internalType":"address"}],"outputs":[{"name":"","type":"uint256","internalType":"uint256"}],"stateMutability":"view"},{"type":"function","name":"getRecipientStatus","inputs":[{"name":"_recipientId","type":"address","internalType":"address"}],"outputs":[{"name":"","type":"uint8","internalType":"enum IStrategy.Status"}],"stateMutability":"view"},{"type":"function","name":"getStrategyId","inputs":[],"outputs":[{"name":"","type":"bytes32","internalType":"bytes32"}],"stateMutability":"view"},{"type":"function","name":"getTotalVoterStakePct","inputs":[{"name":"_voter","type":"address","internalType":"address"}],"outputs":[{"name":"","type":"uint256","internalType":"uint256"}],"stateMutability":"view"},{"type":"function","name":"increasePoolAmount","inputs":[{"name":"_amount","type":"uint256","internalType":"uint256"}],"outputs":[],"stateMutability":"nonpayable"},{"type":"function","name":"increasePower","inputs":[{"name":"_member","type":"address","internalType":"address"},{"name":"_amountToStake","type":"uint256","internalType":"uint256"}],"outputs":[{"name":"","type":"uint256","internalType":"uint256"}],"stateMutability":"nonpayable"},{"type":"function","name":"increasePowerQuadratic","inputs":[{"name":"_member","type":"address","internalType":"address"},{"name":"_amountToStake","type":"uint256","internalType":"uint256"}],"outputs":[{"name":"","type":"uint256","internalType":"uint256"}],"stateMutability":"view"},{"type":"function","name":"initialize","inputs":[{"name":"_poolId","type":"uint256","internalType":"uint256"},{"name":"_data","type":"bytes","internalType":"bytes"}],"outputs":[],"stateMutability":"nonpayable"},{"type":"function","name":"isPoolActive","inputs":[],"outputs":[{"name":"","type":"bool","internalType":"bool"}],"stateMutability":"view"},{"type":"function","name":"isValidAllocator","inputs":[{"name":"_allocator","type":"address","internalType":"address"}],"outputs":[{"name":"","type":"bool","internalType":"bool"}],"stateMutability":"view"},{"type":"function","name":"maxRatio","inputs":[],"outputs":[{"name":"","type":"uint256","internalType":"uint256"}],"stateMutability":"view"},{"type":"function","name":"minPointsActivated","inputs":[],"outputs":[{"name":"","type":"uint256","internalType":"uint256"}],"stateMutability":"view"},{"type":"function","name":"pointConfig","inputs":[],"outputs":[{"name":"pointsPerTokenStaked","type":"uint256","internalType":"uint256"},{"name":"maxAmount","type":"uint256","internalType":"uint256"},{"name":"pointsPerMember","type":"uint256","internalType":"uint256"},{"name":"tokensPerPoint","type":"uint256","internalType":"uint256"}],"stateMutability":"view"},{"type":"function","name":"pointSystem","inputs":[],"outputs":[{"name":"","type":"uint8","internalType":"enum StrategyStruct.PointSystem"}],"stateMutability":"view"},{"type":"function","name":"proposalCounter","inputs":[],"outputs":[{"name":"","type":"uint256","internalType":"uint256"}],"stateMutability":"view"},{"type":"function","name":"proposalType","inputs":[],"outputs":[{"name":"","type":"uint8","internalType":"enum StrategyStruct.ProposalType"}],"stateMutability":"view"},{"type":"function","name":"proposals","inputs":[{"name":"","type":"uint256","internalType":"uint256"}],"outputs":[{"name":"proposalId","type":"uint256","internalType":"uint256"},{"name":"requestedAmount","type":"uint256","internalType":"uint256"},{"name":"stakedAmount","type":"uint256","internalType":"uint256"},{"name":"convictionLast","type":"uint256","internalType":"uint256"},{"name":"beneficiary","type":"address","internalType":"address"},{"name":"submitter","type":"address","internalType":"address"},{"name":"requestedToken","type":"address","internalType":"address"},{"name":"blockLast","type":"uint256","internalType":"uint256"},{"name":"proposalStatus","type":"uint8","internalType":"enum StrategyStruct.ProposalStatus"},{"name":"metadata","type":"tuple","internalType":"struct Metadata","components":[{"name":"protocol","type":"uint256","internalType":"uint256"},{"name":"pointer","type":"string","internalType":"string"}]}],"stateMutability":"view"},{"type":"function","name":"registerRecipient","inputs":[{"name":"_data","type":"bytes","internalType":"bytes"},{"name":"_sender","type":"address","internalType":"address"}],"outputs":[{"name":"recipientId","type":"address","internalType":"address"}],"stateMutability":"payable"},{"type":"function","name":"registryCommunity","inputs":[],"outputs":[{"name":"","type":"address","internalType":"contract RegistryCommunity"}],"stateMutability":"view"},{"type":"function","name":"setDecay","inputs":[{"name":"_decay","type":"uint256","internalType":"uint256"}],"outputs":[],"stateMutability":"nonpayable"},{"type":"function","name":"setMaxRatio","inputs":[{"name":"_maxRatio","type":"uint256","internalType":"uint256"}],"outputs":[],"stateMutability":"nonpayable"},{"type":"function","name":"setPoolActive","inputs":[{"name":"_active","type":"bool","internalType":"bool"}],"outputs":[],"stateMutability":"nonpayable"},{"type":"function","name":"setRegistryCommunity","inputs":[{"name":"_registryCommunity","type":"address","internalType":"address"}],"outputs":[],"stateMutability":"nonpayable"},{"type":"function","name":"setWeight","inputs":[{"name":"_weight","type":"uint256","internalType":"uint256"}],"outputs":[],"stateMutability":"nonpayable"},{"type":"function","name":"supportProposal","inputs":[{"name":"","type":"tuple[]","internalType":"struct StrategyStruct.ProposalSupport[]","components":[{"name":"proposalId","type":"uint256","internalType":"uint256"},{"name":"deltaSupport","type":"int256","internalType":"int256"}]}],"outputs":[],"stateMutability":"nonpayable"},{"type":"function","name":"supportsInterface","inputs":[{"name":"interfaceId","type":"bytes4","internalType":"bytes4"}],"outputs":[{"name":"","type":"bool","internalType":"bool"}],"stateMutability":"view"},{"type":"function","name":"totalEffectiveActivePoints","inputs":[],"outputs":[{"name":"","type":"uint256","internalType":"uint256"}],"stateMutability":"view"},{"type":"function","name":"totalPointsActivated","inputs":[],"outputs":[{"name":"","type":"uint256","internalType":"uint256"}],"stateMutability":"view"},{"type":"function","name":"totalStaked","inputs":[],"outputs":[{"name":"","type":"uint256","internalType":"uint256"}],"stateMutability":"view"},{"type":"function","name":"totalVoterStakePct","inputs":[{"name":"","type":"address","internalType":"address"}],"outputs":[{"name":"","type":"uint256","internalType":"uint256"}],"stateMutability":"view"},{"type":"function","name":"updateProposalConviction","inputs":[{"name":"proposalId","type":"uint256","internalType":"uint256"}],"outputs":[{"name":"","type":"uint256","internalType":"uint256"}],"stateMutability":"nonpayable"},{"type":"function","name":"voterStakedProposals","inputs":[{"name":"","type":"address","internalType":"address"},{"name":"","type":"uint256","internalType":"uint256"}],"outputs":[{"name":"","type":"uint256","internalType":"uint256"}],"stateMutability":"view"},{"type":"function","name":"weight","inputs":[],"outputs":[{"name":"","type":"uint256","internalType":"uint256"}],"stateMutability":"view"},{"type":"function","name":"withdraw","inputs":[{"name":"_member","type":"address","internalType":"address"}],"outputs":[],"stateMutability":"nonpayable"},{"type":"event","name":"Allocated","inputs":[{"name":"recipientId","type":"address","indexed":true,"internalType":"address"},{"name":"amount","type":"uint256","indexed":false,"internalType":"uint256"},{"name":"token","type":"address","indexed":false,"internalType":"address"},{"name":"sender","type":"address","indexed":false,"internalType":"address"}],"anonymous":false},{"type":"event","name":"Distributed","inputs":[{"name":"proposalId","type":"uint256","indexed":false,"internalType":"uint256"},{"name":"beneficiary","type":"address","indexed":false,"internalType":"address"},{"name":"amount","type":"uint256","indexed":false,"internalType":"uint256"}],"anonymous":false},{"type":"event","name":"Distributed","inputs":[{"name":"recipientId","type":"address","indexed":true,"internalType":"address"},{"name":"recipientAddress","type":"address","indexed":false,"internalType":"address"},{"name":"amount","type":"uint256","indexed":false,"internalType":"uint256"},{"name":"sender","type":"address","indexed":false,"internalType":"address"}],"anonymous":false},{"type":"event","name":"Initialized","inputs":[{"name":"poolId","type":"uint256","indexed":false,"internalType":"uint256"},{"name":"data","type":"bytes","indexed":false,"internalType":"bytes"}],"anonymous":false},{"type":"event","name":"InitializedCV","inputs":[{"name":"poolId","type":"uint256","indexed":false,"internalType":"uint256"},{"name":"data","type":"tuple","indexed":false,"internalType":"struct StrategyStruct.InitializeParams","components":[{"name":"registryCommunity","type":"address","internalType":"address"},{"name":"decay","type":"uint256","internalType":"uint256"},{"name":"maxRatio","type":"uint256","internalType":"uint256"},{"name":"weight","type":"uint256","internalType":"uint256"},{"name":"proposalType","type":"uint8","internalType":"enum StrategyStruct.ProposalType"},{"name":"pointSystem","type":"uint8","internalType":"enum StrategyStruct.PointSystem"},{"name":"pointConfig","type":"tuple","internalType":"struct StrategyStruct.PointSystemConfig","components":[{"name":"pointsPerTokenStaked","type":"uint256","internalType":"uint256"},{"name":"maxAmount","type":"uint256","internalType":"uint256"},{"name":"pointsPerMember","type":"uint256","internalType":"uint256"},{"name":"tokensPerPoint","type":"uint256","internalType":"uint256"}]}]}],"anonymous":false},{"type":"event","name":"PoolActive","inputs":[{"name":"active","type":"bool","indexed":false,"internalType":"bool"}],"anonymous":false},{"type":"event","name":"PoolAmountIncreased","inputs":[{"name":"amount","type":"uint256","indexed":false,"internalType":"uint256"}],"anonymous":false},{"type":"event","name":"ProposalCreated","inputs":[{"name":"poolId","type":"uint256","indexed":false,"internalType":"uint256"},{"name":"proposalId","type":"uint256","indexed":false,"internalType":"uint256"}],"anonymous":false},{"type":"event","name":"Registered","inputs":[{"name":"recipientId","type":"address","indexed":true,"internalType":"address"},{"name":"data","type":"bytes","indexed":false,"internalType":"bytes"},{"name":"sender","type":"address","indexed":false,"internalType":"address"}],"anonymous":false},{"type":"event","name":"SupportAdded","inputs":[{"name":"from","type":"address","indexed":false,"internalType":"address"},{"name":"proposalId","type":"uint256","indexed":false,"internalType":"uint256"},{"name":"amount","type":"uint256","indexed":false,"internalType":"uint256"},{"name":"totalStakedPoints","type":"uint256","indexed":false,"internalType":"uint256"},{"name":"convictionLast","type":"uint256","indexed":false,"internalType":"uint256"}],"anonymous":false},{"type":"error","name":"ALLOCATION_ACTIVE","inputs":[]},{"type":"error","name":"ALLOCATION_NOT_ACTIVE","inputs":[]},{"type":"error","name":"ALLOCATION_NOT_ENDED","inputs":[]},{"type":"error","name":"ALREADY_INITIALIZED","inputs":[]},{"type":"error","name":"AMOUNT_MISMATCH","inputs":[]},{"type":"error","name":"ANCHOR_ERROR","inputs":[]},{"type":"error","name":"ARRAY_MISMATCH","inputs":[]},{"type":"error","name":"AddressCannotBeZero","inputs":[]},{"type":"error","name":"AmountOverMaxRatio","inputs":[]},{"type":"error","name":"CantIncreaseFixedSystem","inputs":[]},{"type":"error","name":"INVALID","inputs":[]},{"type":"error","name":"INVALID_ADDRESS","inputs":[]},{"type":"error","name":"INVALID_FEE","inputs":[]},{"type":"error","name":"INVALID_METADATA","inputs":[]},{"type":"error","name":"INVALID_REGISTRATION","inputs":[]},{"type":"error","name":"IS_APPROVED_STRATEGY","inputs":[]},{"type":"error","name":"MISMATCH","inputs":[]},{"type":"error","name":"MaxPointsReached","inputs":[]},{"type":"error","name":"NONCE_NOT_AVAILABLE","inputs":[]},{"type":"error","name":"NOT_APPROVED_STRATEGY","inputs":[]},{"type":"error","name":"NOT_ENOUGH_FUNDS","inputs":[]},{"type":"error","name":"NOT_IMPLEMENTED","inputs":[]},{"type":"error","name":"NOT_INITIALIZED","inputs":[]},{"type":"error","name":"NOT_PENDING_OWNER","inputs":[]},{"type":"error","name":"NotEnoughPointsToSupport","inputs":[{"name":"pointsSupport","type":"uint256","internalType":"uint256"},{"name":"pointsBalance","type":"uint256","internalType":"uint256"}]},{"type":"error","name":"NotImplemented","inputs":[]},{"type":"error","name":"POOL_ACTIVE","inputs":[]},{"type":"error","name":"POOL_INACTIVE","inputs":[]},{"type":"error","name":"PoolIdCannotBeZero","inputs":[]},{"type":"error","name":"PoolIsEmpty","inputs":[]},{"type":"error","name":"ProposalDataIsEmpty","inputs":[]},{"type":"error","name":"ProposalIdCannotBeZero","inputs":[]},{"type":"error","name":"ProposalNotActive","inputs":[{"name":"_proposalId","type":"uint256","internalType":"uint256"}]},{"type":"error","name":"ProposalNotInList","inputs":[{"name":"_proposalId","type":"uint256","internalType":"uint256"}]},{"type":"error","name":"ProposalSupportDuplicated","inputs":[{"name":"_proposalId","type":"uint256","internalType":"uint256"},{"name":"index","type":"uint256","internalType":"uint256"}]},{"type":"error","name":"RECIPIENT_ALREADY_ACCEPTED","inputs":[]},{"type":"error","name":"RECIPIENT_ERROR","inputs":[{"name":"recipientId","type":"address","internalType":"address"}]},{"type":"error","name":"RECIPIENT_NOT_ACCEPTED","inputs":[]},{"type":"error","name":"REGISTRATION_NOT_ACTIVE","inputs":[]},{"type":"error","name":"RegistryCannotBeZero","inputs":[]},{"type":"error","name":"SupportUnderflow","inputs":[{"name":"_support","type":"uint256","internalType":"uint256"},{"name":"_delta","type":"int256","internalType":"int256"},{"name":"_result","type":"int256","internalType":"int256"}]},{"type":"error","name":"TokenCannotBeZero","inputs":[]},{"type":"error","name":"TokenNotAllowed","inputs":[]},{"type":"error","name":"UNAUTHORIZED","inputs":[]},{"type":"error","name":"UserCannotBeZero","inputs":[]},{"type":"error","name":"UserIsInactive","inputs":[]},{"type":"error","name":"UserNotInRegistry","inputs":[]},{"type":"error","name":"ZERO_ADDRESS","inputs":[]}],"bytecode":{"object":"0x60c06040526000600b55620000196127106103e8620000b4565b600e553480156200002957600080fd5b5060405162004261380380620042618339810160408190526200004c91620000e0565b604080518082018252600a8152694356537472617465677960b01b6020808301919091526001600160a01b038416608052915183926200008f9183910162000112565b60408051601f19818403018152919052805160209091012060a0525062000162915050565b8082028115828204841417620000da57634e487b7160e01b600052601160045260246000fd5b92915050565b600060208284031215620000f357600080fd5b81516001600160a01b03811681146200010b57600080fd5b9392505050565b600060208083528351808285015260005b81811015620001415785810183015185820160400152820162000123565b506000604082860101526040601f19601f8301168501019250505092915050565b60805160a0516140c46200019d600039600061062b0152600081816104e401528181611ad801528181611b6b0152611d3601526140c46000f3fe60806040526004361061034a5760003560e01c806369fa25c4116101b9578063b5f620ce116100f6578063df868ed31161009a578063edd146cc1161006c578063edd146cc14610a8f578063ef2920fc14610aaf578063f5b0dfb714610ac2578063fc1711f214610ae257005b8063df868ed314610a0a578063e0dd2c3814610a22578063e33add9314610a42578063eb11af9314610a6257005b8063cbfc1daa116100d3578063cbfc1daa1461099a578063d1e36232146109af578063d7050f07146109c4578063dc96ff2d146109da57005b8063b5f620ce1461090e578063bcc5b93b1461092e578063c7f758a81461096457005b8063a0cf0aea1161015d578063a574cea41161013a578063a574cea414610889578063aba9ffee146108b6578063abdceae1146108cc578063b2b878d0146108e157005b8063a0cf0aea14610808578063a1aab33f14610830578063a47ff7e51461084657005b8063814516ad11610196578063814516ad1461079d578063817b1cd2146107b2578063868c57b8146107c8578063950559d7146107e857005b806369fa25c41461074757806376365af714610767578063782aadff1461077d57005b806334423641116102875780634d31d0871161022b57806359a5db8b1161020857806359a5db8b146106ba5780635db64b99146106da5780636003e414146107075780636453d9c41461072757005b80634d31d0871461066457806351cff8d91461068457806354fac919146106a457005b806338fff2d01161026457806338fff2d0146105f2578063406244d81461060757806342fda9c71461061c5780634ab4ba421461064f57005b80633442364114610596578063346db8cb146105ab578063351d9f96146105cb57005b806311f22ae3116102ee5780631aa91a9e116102cb5780631aa91a9e1461051c5780632bbe0cae1461053c5780632dbd6fdd1461054f5780632ed04b2b1461057657005b806311f22ae31461049557806313845d0e146104b557806315cc481e146104d557005b806305d191751161032757806305d19175146104245780630a6f0ee9146104485780630c0512e9146104685780630f529ba21461047e57005b8063013cf08b1461035357806301ffc9a714610392578063058aca441461040457005b3661035157005b005b34801561035f57600080fd5b5061037361036e366004613218565b610b02565b6040516103899a999897969594939291906132bf565b60405180910390f35b34801561039e57600080fd5b506103f46103ad366004613332565b7fffffffff00000000000000000000000000000000000000000000000000000000167f01ffc9a7000000000000000000000000000000000000000000000000000000001490565b6040519015158152602001610389565b34801561041057600080fd5b5061035161041f366004613389565b610c10565b34801561043057600080fd5b5061043a600e5481565b604051908152602001610389565b34801561045457600080fd5b50610351610463366004613590565b610c4a565b34801561047457600080fd5b5061043a600b5481565b34801561048a57600080fd5b5061043a6298968081565b3480156104a157600080fd5b506103516104b0366004613218565b610c6a565b3480156104c157600080fd5b5061043a6104d0366004613608565b610c7a565b3480156104e157600080fd5b507f00000000000000000000000000000000000000000000000000000000000000005b6040516001600160a01b039091168152602001610389565b34801561052857600080fd5b5061043a610537366004613218565b610e51565b61050461054a366004613634565b610edc565b34801561055b57600080fd5b50600f546105699060ff1681565b6040516103899190613696565b34801561058257600080fd5b5061043a610591366004613608565b610eff565b3480156105a257600080fd5b5061043a610f7f565b3480156105b757600080fd5b5061043a6105c63660046136a4565b610f8f565b3480156105d757600080fd5b50600a546105e59060ff1681565b60405161038991906136e0565b3480156105fe57600080fd5b5060015461043a565b34801561061357600080fd5b5061043a600a81565b34801561062857600080fd5b507f000000000000000000000000000000000000000000000000000000000000000061043a565b34801561065b57600080fd5b5060025461043a565b34801561067057600080fd5b506103f461067f366004613389565b611034565b34801561069057600080fd5b5061035161069f366004613389565b61103f565b3480156106b057600080fd5b5061043a60075481565b3480156106c657600080fd5b5061043a6106d5366004613218565b6111b2565b3480156106e657600080fd5b5061043a6106f5366004613389565b60056020526000908152604090205481565b34801561071357600080fd5b50600354610504906001600160a01b031681565b34801561073357600080fd5b50610351610742366004613389565b611308565b34801561075357600080fd5b50610351610762366004613218565b611485565b34801561077357600080fd5b5061043a60085481565b34801561078957600080fd5b5061043a610798366004613608565b611495565b3480156107a957600080fd5b50610351611525565b3480156107be57600080fd5b5061043a600c5481565b3480156107d457600080fd5b5061043a6107e3366004613608565b61162f565b3480156107f457600080fd5b5061043a610803366004613218565b611660565b34801561081457600080fd5b5061050473eeeeeeeeeeeeeeeeeeeeeeeeeeeeeeeeeeeeeeee81565b34801561083c57600080fd5b5061043a60095481565b34801561085257600080fd5b506010546011546012546013546108699392919084565b604080519485526020850193909352918301526060820152608001610389565b34801561089557600080fd5b506108a96108a4366004613218565b61168a565b60405161038991906136ee565b3480156108c257600080fd5b5061043a600d5481565b3480156108d857600080fd5b5060105461043a565b3480156108ed57600080fd5b506109016108fc366004613701565b611769565b60405161038991906137d6565b34801561091a57600080fd5b5061035161092936600461383c565b611784565b34801561093a57600080fd5b5061043a610949366004613389565b6001600160a01b031660009081526005602052604090205490565b34801561097057600080fd5b5061098461097f366004613218565b611790565b6040516103899a99989796959493929190613859565b3480156109a657600080fd5b5060125461043a565b3480156109bb57600080fd5b5061043a611892565b3480156109d057600080fd5b5061043a61271081565b3480156109e657600080fd5b5061043a6109f5366004613218565b60009081526004602052604090206002015490565b348015610a1657600080fd5b5060005460ff166103f4565b348015610a2e57600080fd5b5061043a610a3d3660046138be565b6118af565b348015610a4e57600080fd5b50610351610a5d3660046138e3565b6118dd565b348015610a6e57600080fd5b50610a82610a7d366004613389565b6118f6565b6040516103899190613999565b348015610a9b57600080fd5b50610351610aaa3660046139b3565b611901565b610351610abd366004613634565b611a3e565b348015610ace57600080fd5b50610351610add366004613218565b611a5c565b348015610aee57600080fd5b50610351610afd366004613218565b611a85565b60046020818152600092835260409283902080546001820154600283015460038401549584015460058501546006860154600787015460088801548b51808d01909c52600b890180548d52600c8a018054999d989c979b979a6001600160a01b039788169a968816999790951697939660ff909316959293919291840191610b89906139fa565b80601f0160208091040260200160405190810160405280929190818152602001828054610bb5906139fa565b8015610c025780601f10610bd757610100808354040283529160200191610c02565b820191906000526020600020905b815481529060010190602001808311610be557829003601f168201915b50505050508152505090508a565b33610c1a81611a95565b506003805473ffffffffffffffffffffffffffffffffffffffff19166001600160a01b0392909216919091179055565b610c52611b60565b610c5a611bab565b610c65838383611be7565b505050565b33610c7481611a95565b50600855565b600080600360009054906101000a90046001600160a01b03166001600160a01b03166378a0b8a96040518163ffffffff1660e01b8152600401602060405180830381865afa158015610cd0573d6000803e3d6000fd5b505050506040513d601f19601f82011682018060405250810190610cf49190613a2e565b6003546040516316308e2560e11b81526001600160a01b03878116600483015286921690632c611c4a90602401602060405180830381865afa158015610d3e573d6000803e3d6000fd5b505050506040513d601f19601f82011682018060405250810190610d629190613a2e565b610d6c9190613a5d565b610d769190613a70565b90506000620186a0610da960106003015484610d929190613a83565b610da490670de0b6b3a7640000613aa5565b611e42565b610db39190613a83565b600354604051637817ee4f60e01b81526001600160a01b03888116600483015230602483015292935060009290911690637817ee4f90604401602060405180830381865afa158015610e09573d6000803e3d6000fd5b505050506040513d601f19601f82011682018060405250810190610e2d9190613a2e565b601254610e3b908490613a5d565b610e459190613a70565b93505050505b92915050565b600081815260046020526040812080548314610e885760405163c1d17bef60e01b8152600481018490526024015b60405180910390fd5b6001600882015460ff166004811115610ea357610ea3613231565b14610ec4576040516344980d8f60e01b815260048101849052602401610e7f565b610ed2818260020154611eb2565b6003015492915050565b6000610ee6611b60565b610eee611bab565b610ef88383611f0d565b9050610e4b565b6000806002600f5460ff166003811115610f1b57610f1b613231565b1480610f3d57506001600f5460ff166003811115610f3b57610f3b613231565b145b15610f5357610f4c8484612255565b9050610f60565b610f5d8484612265565b90505b80600d6000828254610f729190613a70565b9091555090949350505050565b610f8c6127106064613aa5565b81565b6000808490506000610fb5629896806080600754901b610faf9190613a83565b836123fe565b905060806f8000000000000000000000000000000060075462989680610fdb9190613a70565b610fe984600160801b613a70565b610ff66298968089613aa5565b6110009190613aa5565b61100a9190613a83565b6110148885613aa5565b61101e9190613a5d565b6110289190613a5d565b901c9695505050505050565b6000610e4b826124a7565b6001600160a01b03811660009081526006602090815260408083208054825181850281018501909352808352919290919083018282801561109f57602002820191906000526020600020905b81548152602001906001019080831161108b575b5050505050905060005b8151811015610c655760008282815181106110c6576110c6613abc565b6020026020010151905060006004600083815260200190815260200160002090506110f0826124c7565b1561119d576001600160a01b0385166000908152600a82016020908152604080832080549084905560098501835281842054600590935290832080549193839261113b908490613a70565b90915550506001600160a01b03871660009081526009840160205260408120819055600284018054849290611171908490613a70565b9250508190555081600c600082825461118a9190613a70565b9091555061119a90508383611eb2565b50505b505080806111aa90613ad2565b9150506110a9565b600080600254116111ef576040517fed4421ad00000000000000000000000000000000000000000000000000000000815260040160405180910390fd5b6002546111ff6298968084613aa5565b8160085461120d9190613aa5565b11611244576040517f3bf5ca1400000000000000000000000000000000000000000000000000000000815260040160405180910390fd5b60008161125a8568010000000000000000613aa5565b6112649190613a83565b629896806008546801000000000000000061127f9190613aa5565b6112899190613a83565b6112939190613a70565b9050604061129f611892565b6007546112af9062989680613a70565b6298968060406112bf8680613aa5565b901c629896806080600954901b6112d69190613a83565b6112e09190613a83565b6112ea9190613aa5565b6112f49190613a83565b6112fe9190613aa5565b901c949350505050565b600354604051637817ee4f60e01b81526001600160a01b03838116600483015230602483015290911690637817ee4f90604401602060405180830381865afa158015611358573d6000803e3d6000fd5b505050506040513d601f19601f8201168201806040525081019061137c9190613a2e565b600d600082825461138d9190613a70565b90915550506003546040517f22bcf9990000000000000000000000000000000000000000000000000000000081526001600160a01b038381166004830152306024830152909116906322bcf99990604401600060405180830381600087803b1580156113f857600080fd5b505af115801561140c573d6000803e3d6000fd5b50506040517f51cff8d90000000000000000000000000000000000000000000000000000000081526001600160a01b03841660048201523092506351cff8d99150602401600060405180830381600087803b15801561146a57600080fd5b505af115801561147e573d6000803e3d6000fd5b5050505050565b3361148f81611a95565b50600755565b6000806002600f5460ff1660038111156114b1576114b1613231565b036114c6576114bf83612500565b9050611519565b6001600f5460ff1660038111156114df576114df613231565b036114ee576114bf8484612526565b6003600f5460ff16600381111561150757611507613231565b03611519576115168484610c7a565b90505b600d8190559392505050565b6003546040517f0d4a8b490000000000000000000000000000000000000000000000000000000081523360048201819052306024830152916001600160a01b031690630d4a8b4990604401600060405180830381600087803b15801561158a57600080fd5b505af115801561159e573d6000803e3d6000fd5b5050600354604051637817ee4f60e01b81526001600160a01b0385811660048301523060248301529091169250637817ee4f9150604401602060405180830381865afa1580156115f2573d6000803e3d6000fd5b505050506040513d601f19601f820116820180604052508101906116169190613a2e565b600d60008282546116279190613a5d565b909155505050565b6006602052816000526040600020818154811061164b57600080fd5b90600052602060002001600091509150505481565b6000600754629896806116739190613a70565b6116806298968084613aa5565b610e4b9190613a83565b604080518082019091526000815260606020820152600060046000848152602001908152602001600020905080600b01604051806040016040529081600082015481526020016001820180546116df906139fa565b80601f016020809104026020016040519081016040528092919081815260200182805461170b906139fa565b80156117585780601f1061172d57610100808354040283529160200191611758565b820191906000526020600020905b81548152906001019060200180831161173b57829003601f168201915b505050505081525050915050919050565b606060405163d623472560e01b815260040160405180910390fd5b61178d816125f6565b50565b6000806000806000806000806000806000600460008d8152602001908152602001600020905080600101546000146117d4576117cf81600101546111b2565b6117d7565b60005b92508060050160009054906101000a90046001600160a01b03168160040160009054906101000a90046001600160a01b03168260060160009054906101000a90046001600160a01b0316836001015484600201548560080160009054906101000a900460ff16866007015487600301548a896009016000336001600160a01b03166001600160a01b03168152602001908152602001600020549a509a509a509a509a509a509a509a509a509a50509193959799509193959799565b6000600e54600d54116118a65750600e5490565b600d545b905090565b60008281526004602090815260408083206001600160a01b0385168452600a019091528120545b9392505050565b60405163d623472560e01b815260040160405180910390fd5b6000610e4b8261263e565b61190a8261265e565b6000818060200190518101906119209190613b60565b80519091506001600160a01b031661194b57604051635df4b1ef60e01b815260040160405180910390fd5b80516003805473ffffffffffffffffffffffffffffffffffffffff19166001600160a01b039092169190911790556020810151600755604081015160085560608101516009556080810151600a805460ff191660018360028111156119b2576119b2613231565b021790555060a0810151600f805460ff191660018360038111156119d8576119d8613231565b021790555060c081015180516010556020810151601155604080820151601255606090910151601355517f76164f4c577324c2cac6dbb73d6b99b5c05b6894d54aa69bd565b68f9e13bdcf90611a319085908490613be9565b60405180910390a1505050565b611a46611b60565b611a4e611bab565b611a5882826126df565b5050565b611a64611b60565b8060026000828254611a769190613a5d565b9091555061178d9050816127e1565b33611a8f81611a95565b50600955565b6001546040517f29e40d4b00000000000000000000000000000000000000000000000000000000815260048101919091526001600160a01b0382811660248301527f000000000000000000000000000000000000000000000000000000000000000016906329e40d4b90604401602060405180830381865afa158015611b1f573d6000803e3d6000fd5b505050506040513d601f19601f82011682018060405250810190611b439190613c7d565b61178d5760405163075fd2b160e01b815260040160405180910390fd5b336001600160a01b037f00000000000000000000000000000000000000000000000000000000000000001614611ba95760405163075fd2b160e01b815260040160405180910390fd5b565b600154600003611ba9576040517f3da3f98c00000000000000000000000000000000000000000000000000000000815260040160405180910390fd5b6000825111611c22576040517fc5f7c4c000000000000000000000000000000000000000000000000000000000815260040160405180910390fd5b600082806020019051810190611c389190613a2e565b905080600003611c74576040517ff881a10d00000000000000000000000000000000000000000000000000000000815260040160405180910390fd5b60008181526004602052604090206001600a5460ff166002811115611c9b57611c9b613231565b0361147e5780548214611cc45760405163c1d17bef60e01b815260048101839052602401610e7f565b6001600882015460ff166004811115611cdf57611cdf613231565b14611d00576040516344980d8f60e01b815260048101839052602401610e7f565b6001546040517f068bcd8d0000000000000000000000000000000000000000000000000000000081526000916001600160a01b037f0000000000000000000000000000000000000000000000000000000000000000169163068bcd8d91611d6d9160040190815260200190565b600060405180830381865afa158015611d8a573d6000803e3d6000fd5b505050506040513d6000823e601f3d908101601f19168201604052611db29190810190613d27565b604081015160048401546001850154929350611dd9926001600160a01b0390911690612811565b60088201805460ff191660049081179091558201546001830154604080518681526001600160a01b0390931660208401528201527fa7932e9c92f31e1ed56b29d00bbe669a97484dc24de28dd9c8c0429df7f358479060600160405180910390a1505050505050565b60006003821115611ea35750806000611e5c600283613a83565b611e67906001613a5d565b90505b81811015611e9d57905080600281611e828186613a83565b611e8c9190613a5d565b611e969190613a83565b9050611e6a565b50919050565b8115611ead575060015b919050565b60078201544390811015611ec857611ec8613ddb565b80836007015403611ed857505050565b6000611ef8846007015483611eed9190613a70565b856003015485610f8f565b60078501929092555060039092019190915550565b60008083806020019051810190611f249190613df1565b8051909150600003611f62576040517f4e79178600000000000000000000000000000000000000000000000000000000815260040160405180910390fd5b6001600a5460ff166002811115611f7b57611f7b613231565b036121375760208101516001600160a01b0316611fc4576040517fe622e04000000000000000000000000000000000000000000000000000000000815260040160405180910390fd5b60608101516001600160a01b0316612008576040517f596a094c00000000000000000000000000000000000000000000000000000000815260040160405180910390fd5b6000306001600160a01b03166315cc481e6040518163ffffffff1660e01b8152600401602060405180830381865afa158015612048573d6000803e3d6000fd5b505050506040513d601f19601f8201168201806040525081019061206c9190613e98565b6001600160a01b031663068bcd8d6001546040518263ffffffff1660e01b815260040161209b91815260200190565b600060405180830381865afa1580156120b8573d6000803e3d6000fd5b505050506040513d6000823e601f3d908101601f191682016040526120e09190810190613d27565b604001519050806001600160a01b031682606001516001600160a01b031614612135576040517fa29c498600000000000000000000000000000000000000000000000000000000815260040160405180910390fd5b505b6000600b6000815461214890613ad2565b9182905550600081815260046020818152604080842085815560058101805473ffffffffffffffffffffffffffffffffffffffff199081166001600160a01b038d811691909117909255898501519583018054821696831696909617909555606089015160068301805490961691161790935586015160018084019190915560088301805460ff19169091179055436007830155600382019290925560808501518051600b8301908155928101519394509092909190600c84019061220d9082613f03565b505060015460408051918252602082018590527ffcf3b1aa65a464cef2889608f99e8b8c0f680a4be6c2acb9d961c536a5a9294b92500160405180910390a150949350505050565b6010546000906118d69083613aa5565b600080601060030154600360009054906101000a90046001600160a01b03166001600160a01b03166378a0b8a96040518163ffffffff1660e01b8152600401602060405180830381865afa1580156122c1573d6000803e3d6000fd5b505050506040513d601f19601f820116820180604052508101906122e59190613a2e565b6003546040516316308e2560e11b81526001600160a01b03888116600483015287921690632c611c4a90602401602060405180830381865afa15801561232f573d6000803e3d6000fd5b505050506040513d601f19601f820116820180604052508101906123539190613a2e565b61235d9190613a70565b6123679190613a70565b6123719190613a83565b600354604051637817ee4f60e01b81526001600160a01b03878116600483015230602483015292935060009290911690637817ee4f90604401602060405180830381865afa1580156123c7573d6000803e3d6000fd5b505050506040513d601f19601f820116820180604052508101906123eb9190613a2e565b6123f59083613a70565b95945050505050565b6000600160801b83106124535760405162461bcd60e51b815260206004820152601c60248201527f5f612073686f756c64206265206c657373207468616e20325e313238000000006044820152606401610e7f565b50600160801b82825b801561249f5780600116600003612481576124778283612856565b915060011c61245c565b61248b8383612856565b9250612498600182613a70565b905061245c565b505092915050565b60006001600160a01b038216156124bf576001610e4b565b600092915050565b60008181526004602052604081205415801590610e4b5750506000908152600460205260409020600501546001600160a01b0316151590565b60105460009081906125129084613aa5565b90506118d6670de0b6b3a764000082613a83565b600080670de0b6b3a7640000601060000154846125439190613aa5565b61254d9190613a83565b600354604051637817ee4f60e01b81526001600160a01b03878116600483015230602483015292935060009290911690637817ee4f90604401602060405180830381865afa1580156125a3573d6000803e3d6000fd5b505050506040513d601f19601f820116820180604052508101906125c79190613a2e565b6011549091506125d78383613a5d565b11156125ee576011546125eb908290613a70565b91505b509392505050565b6000805460ff19168215159081179091556040519081527fd94c9bc4d43c51d8dc345a016d8e3d994432fac68e72832e4cf3a616bd8efae0906020015b60405180910390a150565b60006001600160a01b03821615612656576002610e4b565b600392915050565b612666611b60565b600154156126a0576040517f439a74c900000000000000000000000000000000000000000000000000000000815260040160405180910390fd5b806000036126da576040517f7fcce2a900000000000000000000000000000000000000000000000000000000815260040160405180910390fd5b600155565b6126e881612955565b6003546040517f477a5cc00000000000000000000000000000000000000000000000000000000081526001600160a01b038381166004830152306024830152600092169063477a5cc090604401602060405180830381865afa158015612752573d6000803e3d6000fd5b505050506040513d601f19601f820116820180604052508101906127769190613c7d565b9050806127af576040517f5fccb67f00000000000000000000000000000000000000000000000000000000815260040160405180910390fd5b6000838060200190518101906127c59190613fc3565b90506127d18382612a7b565b6127db8382612c3e565b50505050565b6040518181527f46aeb5d8770fc4474bc2dfa118fd2595f7fb33ce2cbce6f4e5a3dabfe0f7633990602001612633565b7fffffffffffffffffffffffff11111111111111111111111111111111111111126001600160a01b0384160161284b57610c6582826130aa565b610c658383836130c6565b6000600160801b8311156128d25760405162461bcd60e51b815260206004820152602860248201527f5f612073686f756c64206265206c657373207468616e206f7220657175616c2060448201527f746f20325e3132380000000000000000000000000000000000000000000000006064820152608401610e7f565b600160801b82106129255760405162461bcd60e51b815260206004820152601c60248201527f5f622073686f756c64206265206c657373207468616e20325e313238000000006044820152606401610e7f565b60806f800000000000000000000000000000006129428486613aa5565b61294c9190613a5d565b901c9392505050565b6001600160a01b038116612995576040517fd1f2828800000000000000000000000000000000000000000000000000000000815260040160405180910390fd5b6003546001600160a01b03166129be57604051635df4b1ef60e01b815260040160405180910390fd5b6003546040517fa230c5240000000000000000000000000000000000000000000000000000000081526001600160a01b0383811660048301529091169063a230c52490602401602060405180830381865afa158015612a21573d6000803e3d6000fd5b505050506040513d601f19601f82011682018060405250810190612a459190613c7d565b61178d576040517f6a5cfb6d00000000000000000000000000000000000000000000000000000000815260040160405180910390fd5b6000805b8251811015612b3857828181518110612a9a57612a9a613abc565b60200260200101516000015160000315612b26576000838281518110612ac257612ac2613abc565b6020026020010151600001519050612ad9816124c7565b612af95760405163c1d17bef60e01b815260048101829052602401610e7f565b838281518110612b0b57612b0b613abc565b60200260200101516020015183612b22919061406e565b9250505b80612b3081613ad2565b915050612a7f565b506001600160a01b038316600090815260056020526040812054612b5c9083613115565b600354604051637817ee4f60e01b81526001600160a01b03878116600483015230602483015292935060009290911690637817ee4f90604401602060405180830381865afa158015612bb2573d6000803e3d6000fd5b505050506040513d601f19601f82011682018060405250810190612bd69190613a2e565b905080821115612c1c576040517fd64182fe0000000000000000000000000000000000000000000000000000000081526004810183905260248101829052604401610e7f565b506001600160a01b039093166000908152600560205260409020929092555050565b606060005b82518110156127db576000838281518110612c6057612c60613abc565b60200260200101516000015190508251600003612cbc5760408051600180825281830190925290602080830190803683370190505092508083600081518110612cab57612cab613abc565b602002602001018181525050612e0f565b6000805b8451811015612d3b5782858281518110612cdc57612cdc613abc565b602002602001015103612d29576040517fadebb154000000000000000000000000000000000000000000000000000000008152600481018490526024810182905260019250604401610e7f565b80612d3381613ad2565b915050612cc0565b5080612e0d57600084516001612d519190613a5d565b67ffffffffffffffff811115612d6957612d696133a6565b604051908082528060200260200182016040528015612d92578160200160208202803683370190505b50905060005b8551811015612dea57858181518110612db357612db3613abc565b6020026020010151828281518110612dcd57612dcd613abc565b602090810291909101015280612de281613ad2565b915050612d98565b508281865181518110612dff57612dff613abc565b602090810291909101015293505b505b6000848381518110612e2357612e23613abc565b60209081029190910181015181015160008481526004835260408082206001600160a01b038b16835260098101855281832054600a820190955290822054929450929190612e718386613115565b6001600160a01b038b1660009081526009860160205260408120829055909150612e9a82613170565b6001600160a01b038c166000908152600a870160205260408120829055909150805b6001600160a01b038d16600090815260066020526040902054811015612f335786546001600160a01b038e166000908152600660205260409020805483908110612f0857612f08613abc565b906000526020600020015403612f215760019150612f33565b80612f2b81613ad2565b915050612ebc565b5080612f69576001600160a01b038c16600090815260066020908152604082208854815460018101835591845291909220909101555b818411612fb957612f7a8483613a70565b600c6000828254612f8b9190613a5d565b90915550612f9b90508483613a70565b866002016000828254612fae9190613a5d565b90915550612ffd9050565b612fc38285613a70565b600c6000828254612fd49190613a70565b90915550612fe490508285613a70565b866002016000828254612ff79190613a70565b90915550505b85600701546000036130145743600787015561308f565b61301e8685611eb2565b7f0227f642ddcf2042ceaeafadb9d540f432072c00cd4862881667168dcc14710f8c898489600201548a600301546040516130869594939291906001600160a01b03959095168552602085019390935260408401919091526060830152608082015260a00190565b60405180910390a15b505050505050505080806130a290613ad2565b915050612c43565b60008060008084865af1611a585763b12d13eb6000526004601cfd5b81601452806034526fa9059cbb00000000000000000000000060005260206000604460106000875af13d15600160005114171661310b576390b8ec186000526004601cfd5b6000603452505050565b600080613122838561406e565b905060008112156118d6576040517f3bbc7142000000000000000000000000000000000000000000000000000000008152600481018590526024810184905260448101829052606401610e7f565b600061317f6127106064613aa5565b613187613191565b6116809084613aa5565b600354604080517f0331383c00000000000000000000000000000000000000000000000000000000815290516000926001600160a01b031691630331383c9160048083019260209291908290030181865afa1580156131f4573d6000803e3d6000fd5b505050506040513d601f19601f820116820180604052508101906118aa9190613a2e565b60006020828403121561322a57600080fd5b5035919050565b634e487b7160e01b600052602160045260246000fd5b6005811061325757613257613231565b9052565b60005b8381101561327657818101518382015260200161325e565b50506000910152565b80518252600060208201516040602085015280518060408601526132aa81606087016020850161325b565b601f01601f1916939093016060019392505050565b60006101408c83528b60208401528a60408401528960608401526001600160a01b03808a16608085015280891660a085015280881660c0850152508560e084015261330e610100840186613247565b806101208401526133218184018561327f565b9d9c50505050505050505050505050565b60006020828403121561334457600080fd5b81357fffffffff00000000000000000000000000000000000000000000000000000000811681146118d657600080fd5b6001600160a01b038116811461178d57600080fd5b60006020828403121561339b57600080fd5b81356118d681613374565b634e487b7160e01b600052604160045260246000fd5b6040805190810167ffffffffffffffff811182821017156133df576133df6133a6565b60405290565b60405160e0810167ffffffffffffffff811182821017156133df576133df6133a6565b60405160c0810167ffffffffffffffff811182821017156133df576133df6133a6565b60405160a0810167ffffffffffffffff811182821017156133df576133df6133a6565b604051601f8201601f1916810167ffffffffffffffff81118282101715613477576134776133a6565b604052919050565b600067ffffffffffffffff821115613499576134996133a6565b5060051b60200190565b600082601f8301126134b457600080fd5b813560206134c96134c48361347f565b61344e565b82815260059290921b840181019181810190868411156134e857600080fd5b8286015b8481101561350c5780356134ff81613374565b83529183019183016134ec565b509695505050505050565b600067ffffffffffffffff821115613531576135316133a6565b50601f01601f191660200190565b600082601f83011261355057600080fd5b813561355e6134c482613517565b81815284602083860101111561357357600080fd5b816020850160208301376000918101602001919091529392505050565b6000806000606084860312156135a557600080fd5b833567ffffffffffffffff808211156135bd57600080fd5b6135c9878388016134a3565b945060208601359150808211156135df57600080fd5b506135ec8682870161353f565b92505060408401356135fd81613374565b809150509250925092565b6000806040838503121561361b57600080fd5b823561362681613374565b946020939093013593505050565b6000806040838503121561364757600080fd5b823567ffffffffffffffff81111561365e57600080fd5b61366a8582860161353f565b925050602083013561367b81613374565b809150509250929050565b6004811061325757613257613231565b60208101610e4b8284613686565b6000806000606084860312156136b957600080fd5b505081359360208301359350604090920135919050565b6003811061325757613257613231565b60208101610e4b82846136d0565b6020815260006118d6602083018461327f565b6000806040838503121561371457600080fd5b823567ffffffffffffffff8082111561372c57600080fd5b613738868387016134a3565b935060209150818501358181111561374f57600080fd5b8501601f8101871361376057600080fd5b803561376e6134c48261347f565b81815260059190911b8201840190848101908983111561378d57600080fd5b8584015b838110156137c5578035868111156137a95760008081fd5b6137b78c898389010161353f565b845250918601918601613791565b508096505050505050509250929050565b602080825282518282018190526000919060409081850190868401855b8281101561382157815180516001600160a01b031685528601518685015292840192908501906001016137f3565b5091979650505050505050565b801515811461178d57600080fd5b60006020828403121561384e57600080fd5b81356118d68161382e565b6001600160a01b038b811682528a81166020830152891660408201526060810188905260808101879052610140810161389560a0830188613247565b8560c08301528460e083015283610100830152826101208301529b9a5050505050505050505050565b600080604083850312156138d157600080fd5b82359150602083013561367b81613374565b600060208083850312156138f657600080fd5b823567ffffffffffffffff81111561390d57600080fd5b8301601f8101851361391e57600080fd5b803561392c6134c48261347f565b81815260069190911b8201830190838101908783111561394b57600080fd5b928401925b8284101561398e57604084890312156139695760008081fd5b6139716133bc565b843581528585013586820152825260409093019290840190613950565b979650505050505050565b60208101600783106139ad576139ad613231565b91905290565b600080604083850312156139c657600080fd5b82359150602083013567ffffffffffffffff8111156139e457600080fd5b6139f08582860161353f565b9150509250929050565b600181811c90821680613a0e57607f821691505b602082108103611e9d57634e487b7160e01b600052602260045260246000fd5b600060208284031215613a4057600080fd5b5051919050565b634e487b7160e01b600052601160045260246000fd5b80820180821115610e4b57610e4b613a47565b81810381811115610e4b57610e4b613a47565b600082613aa057634e487b7160e01b600052601260045260246000fd5b500490565b8082028115828204841417610e4b57610e4b613a47565b634e487b7160e01b600052603260045260246000fd5b600060018201613ae457613ae4613a47565b5060010190565b805160048110611ead57600080fd5b600060808284031215613b0c57600080fd5b6040516080810181811067ffffffffffffffff82111715613b2f57613b2f6133a6565b8060405250809150825181526020830151602082015260408301516040820152606083015160608201525092915050565b60006101408284031215613b7357600080fd5b613b7b6133e5565b8251613b8681613374565b80825250602083015160208201526040830151604082015260608301516060820152608083015160038110613bba57600080fd5b6080820152613bcb60a08401613aeb565b60a0820152613bdd8460c08501613afa565b60c08201529392505050565b6000610160820190508382526001600160a01b0383511660208301526020830151604083015260408301516060830152606083015160808301526080830151613c3560a08401826136d0565b5060a0830151613c4860c0840182613686565b5060c09290920151805160e0830152602081015161010083015260408101516101208301526060015161014090910152919050565b600060208284031215613c8f57600080fd5b81516118d68161382e565b600060408284031215613cac57600080fd5b613cb46133bc565b905081518152602082015167ffffffffffffffff811115613cd457600080fd5b8201601f81018413613ce557600080fd5b8051613cf36134c482613517565b818152856020838501011115613d0857600080fd5b613d1982602083016020860161325b565b602084015250909392505050565b600060208284031215613d3957600080fd5b815167ffffffffffffffff80821115613d5157600080fd5b9083019060c08286031215613d6557600080fd5b613d6d613408565b825181526020830151613d7f81613374565b60208201526040830151613d9281613374565b6040820152606083015182811115613da957600080fd5b613db587828601613c9a565b6060830152506080830151608082015260a083015160a082015280935050505092915050565b634e487b7160e01b600052600160045260246000fd5b600060208284031215613e0357600080fd5b815167ffffffffffffffff80821115613e1b57600080fd5b9083019060a08286031215613e2f57600080fd5b613e3761342b565b825181526020830151613e4981613374565b6020820152604083810151908201526060830151613e6681613374565b6060820152608083015182811115613e7d57600080fd5b613e8987828601613c9a565b60808301525095945050505050565b600060208284031215613eaa57600080fd5b81516118d681613374565b601f821115610c6557600081815260208120601f850160051c81016020861015613edc5750805b601f850160051c820191505b81811015613efb57828155600101613ee8565b505050505050565b815167ffffffffffffffff811115613f1d57613f1d6133a6565b613f3181613f2b84546139fa565b84613eb5565b602080601f831160018114613f665760008415613f4e5750858301515b600019600386901b1c1916600185901b178555613efb565b600085815260208120601f198616915b82811015613f9557888601518255948401946001909101908401613f76565b5085821015613fb35787850151600019600388901b60f8161c191681555b5050505050600190811b01905550565b60006020808385031215613fd657600080fd5b825167ffffffffffffffff811115613fed57600080fd5b8301601f81018513613ffe57600080fd5b805161400c6134c48261347f565b81815260069190911b8201830190838101908783111561402b57600080fd5b928401925b8284101561398e57604084890312156140495760008081fd5b6140516133bc565b845181528585015186820152825260409093019290840190614030565b808201828112600083128015821682158216171561249f5761249f613a4756fea2646970667358221220c43d067d4f735672d39a525f1453799952172d77910454bf9ace27f051e7179a64736f6c63430008130033","linkReferences":{}},"methodIdentifiers":{"D()":"0f529ba2","MAX_STAKED_PROPOSALS()":"406244d8","NATIVE()":"a0cf0aea","PRECISION_PERCENTAGE()":"34423641","PRECISION_SCALE()":"d7050f07","activatePoints()":"814516ad","allocate(bytes,address)":"ef2920fc","calculateConviction(uint256,uint256,uint256)":"346db8cb","calculateThreshold(uint256)":"59a5db8b","deactivatePoints(address)":"6453d9c4","decay()":"54fac919","decreasePower(address,uint256)":"2ed04b2b","distribute(address[],bytes,address)":"0a6f0ee9","getAllo()":"15cc481e","getMaxConviction(uint256)":"950559d7","getMetadata(uint256)":"a574cea4","getPayouts(address[],bytes[])":"b2b878d0","getPointsPerMember()":"cbfc1daa","getPointsPerTokenStaked()":"abdceae1","getPoolAmount()":"4ab4ba42","getPoolId()":"38fff2d0","getProposal(uint256)":"c7f758a8","getProposalStakedAmount(uint256)":"dc96ff2d","getProposalVoterStake(uint256,address)":"e0dd2c38","getRecipientStatus(address)":"eb11af93","getStrategyId()":"42fda9c7","getTotalVoterStakePct(address)":"bcc5b93b","increasePoolAmount(uint256)":"f5b0dfb7","increasePower(address,uint256)":"782aadff","increasePowerQuadratic(address,uint256)":"13845d0e","initialize(uint256,bytes)":"edd146cc","isPoolActive()":"df868ed3","isValidAllocator(address)":"4d31d087","maxRatio()":"76365af7","minPointsActivated()":"05d19175","pointConfig()":"a47ff7e5","pointSystem()":"2dbd6fdd","proposalCounter()":"0c0512e9","proposalType()":"351d9f96","proposals(uint256)":"013cf08b","registerRecipient(bytes,address)":"2bbe0cae","registryCommunity()":"6003e414","setDecay(uint256)":"69fa25c4","setMaxRatio(uint256)":"11f22ae3","setPoolActive(bool)":"b5f620ce","setRegistryCommunity(address)":"058aca44","setWeight(uint256)":"fc1711f2","supportProposal((uint256,int256)[])":"e33add93","supportsInterface(bytes4)":"01ffc9a7","totalEffectiveActivePoints()":"d1e36232","totalPointsActivated()":"aba9ffee","totalStaked()":"817b1cd2","totalVoterStakePct(address)":"5db64b99","updateProposalConviction(uint256)":"1aa91a9e","voterStakedProposals(address,uint256)":"868c57b8","weight()":"a1aab33f","withdraw(address)":"51cff8d9"},"id":97}