{"abi":[{"type":"fallback","stateMutability":"payable"},{"type":"receive","stateMutability":"payable"},{"type":"function","name":"DISPUTE_COOLDOWN_SEC","inputs":[],"outputs":[{"name":"","type":"uint256","internalType":"uint256"}],"stateMutability":"view"},{"type":"function","name":"NATIVE","inputs":[],"outputs":[{"name":"","type":"address","internalType":"address"}],"stateMutability":"view"},{"type":"function","name":"RULING_OPTIONS","inputs":[],"outputs":[{"name":"","type":"uint256","internalType":"uint256"}],"stateMutability":"view"},{"type":"function","name":"activatePoints","inputs":[],"outputs":[],"stateMutability":"nonpayable"},{"type":"function","name":"allocate","inputs":[{"name":"_data","type":"bytes","internalType":"bytes"},{"name":"_sender","type":"address","internalType":"address"}],"outputs":[],"stateMutability":"payable"},{"type":"function","name":"arbitrableConfigs","inputs":[{"name":"","type":"uint256","internalType":"uint256"}],"outputs":[{"name":"arbitrator","type":"address","internalType":"contract IArbitrator"},{"name":"tribunalSafe","type":"address","internalType":"address"},{"name":"submitterCollateralAmount","type":"uint256","internalType":"uint256"},{"name":"challengerCollateralAmount","type":"uint256","internalType":"uint256"},{"name":"defaultRuling","type":"uint256","internalType":"uint256"},{"name":"defaultRulingTimeout","type":"uint256","internalType":"uint256"}],"stateMutability":"view"},{"type":"function","name":"calculateProposalConviction","inputs":[{"name":"_proposalId","type":"uint256","internalType":"uint256"}],"outputs":[{"name":"","type":"uint256","internalType":"uint256"}],"stateMutability":"view"},{"type":"function","name":"calculateThreshold","inputs":[{"name":"_requestedAmount","type":"uint256","internalType":"uint256"}],"outputs":[{"name":"","type":"uint256","internalType":"uint256"}],"stateMutability":"view"},{"type":"function","name":"cancelProposal","inputs":[{"name":"proposalId","type":"uint256","internalType":"uint256"}],"outputs":[],"stateMutability":"nonpayable"},{"type":"function","name":"cloneNonce","inputs":[],"outputs":[{"name":"","type":"uint256","internalType":"uint256"}],"stateMutability":"view"},{"type":"function","name":"collateralVault","inputs":[],"outputs":[{"name":"","type":"address","internalType":"contract ICollateralVault"}],"stateMutability":"view"},{"type":"function","name":"connectSuperfluidGDA","inputs":[{"name":"gda","type":"address","internalType":"address"}],"outputs":[],"stateMutability":"nonpayable"},{"type":"function","name":"currentArbitrableConfigVersion","inputs":[],"outputs":[{"name":"","type":"uint256","internalType":"uint256"}],"stateMutability":"view"},{"type":"function","name":"cvParams","inputs":[],"outputs":[{"name":"maxRatio","type":"uint256","internalType":"uint256"},{"name":"weight","type":"uint256","internalType":"uint256"},{"name":"decay","type":"uint256","internalType":"uint256"},{"name":"minThresholdPoints","type":"uint256","internalType":"uint256"}],"stateMutability":"view"},{"type":"function","name":"deactivatePoints","inputs":[],"outputs":[],"stateMutability":"nonpayable"},{"type":"function","name":"deactivatePoints","inputs":[{"name":"_member","type":"address","internalType":"address"}],"outputs":[],"stateMutability":"nonpayable"},{"type":"function","name":"decreasePower","inputs":[{"name":"_member","type":"address","internalType":"address"},{"name":"_amountToUnstake","type":"uint256","internalType":"uint256"}],"outputs":[{"name":"","type":"uint256","internalType":"uint256"}],"stateMutability":"nonpayable"},{"type":"function","name":"diamondCut","inputs":[{"name":"_diamondCut","type":"tuple[]","internalType":"struct IDiamond.FacetCut[]","components":[{"name":"facetAddress","type":"address","internalType":"address"},{"name":"action","type":"uint8","internalType":"enum IDiamond.FacetCutAction"},{"name":"functionSelectors","type":"bytes4[]","internalType":"bytes4[]"}]},{"name":"_init","type":"address","internalType":"address"},{"name":"_calldata","type":"bytes","internalType":"bytes"}],"outputs":[],"stateMutability":"nonpayable"},{"type":"function","name":"disconnectSuperfluidGDA","inputs":[{"name":"gda","type":"address","internalType":"address"}],"outputs":[],"stateMutability":"nonpayable"},{"type":"function","name":"disputeCount","inputs":[],"outputs":[{"name":"","type":"uint64","internalType":"uint64"}],"stateMutability":"view"},{"type":"function","name":"disputeIdToProposalId","inputs":[{"name":"","type":"uint256","internalType":"uint256"}],"outputs":[{"name":"","type":"uint256","internalType":"uint256"}],"stateMutability":"view"},{"type":"function","name":"disputeProposal","inputs":[{"name":"proposalId","type":"uint256","internalType":"uint256"},{"name":"context","type":"string","internalType":"string"},{"name":"_extraData","type":"bytes","internalType":"bytes"}],"outputs":[{"name":"disputeId","type":"uint256","internalType":"uint256"}],"stateMutability":"payable"},{"type":"function","name":"distribute","inputs":[{"name":"","type":"address[]","internalType":"address[]"},{"name":"","type":"bytes","internalType":"bytes"},{"name":"","type":"address","internalType":"address"}],"outputs":[],"stateMutability":"nonpayable"},{"type":"function","name":"getAllo","inputs":[],"outputs":[{"name":"","type":"address","internalType":"contract IAllo"}],"stateMutability":"view"},{"type":"function","name":"getArbitrableConfig","inputs":[],"outputs":[{"name":"arbitrator","type":"address","internalType":"contract IArbitrator"},{"name":"tribunalSafe","type":"address","internalType":"address"},{"name":"submitterCollateralAmount","type":"uint256","internalType":"uint256"},{"name":"challengerCollateralAmount","type":"uint256","internalType":"uint256"},{"name":"defaultRuling","type":"uint256","internalType":"uint256"},{"name":"defaultRulingTimeout","type":"uint256","internalType":"uint256"}],"stateMutability":"view"},{"type":"function","name":"getPointSystem","inputs":[],"outputs":[{"name":"","type":"uint8","internalType":"enum PointSystem"}],"stateMutability":"view"},{"type":"function","name":"getPoolAmount","inputs":[],"outputs":[{"name":"","type":"uint256","internalType":"uint256"}],"stateMutability":"view"},{"type":"function","name":"getPoolId","inputs":[],"outputs":[{"name":"","type":"uint256","internalType":"uint256"}],"stateMutability":"view"},{"type":"function","name":"getProposal","inputs":[{"name":"_proposalId","type":"uint256","internalType":"uint256"}],"outputs":[{"name":"submitter","type":"address","internalType":"address"},{"name":"beneficiary","type":"address","internalType":"address"},{"name":"requestedToken","type":"address","internalType":"address"},{"name":"requestedAmount","type":"uint256","internalType":"uint256"},{"name":"stakedAmount","type":"uint256","internalType":"uint256"},{"name":"proposalStatus","type":"uint8","internalType":"enum ProposalStatus"},{"name":"blockLast","type":"uint256","internalType":"uint256"},{"name":"convictionLast","type":"uint256","internalType":"uint256"},{"name":"threshold","type":"uint256","internalType":"uint256"},{"name":"voterStakedPoints","type":"uint256","internalType":"uint256"},{"name":"arbitrableConfigVersion","type":"uint256","internalType":"uint256"},{"name":"protocol","type":"uint256","internalType":"uint256"}],"stateMutability":"view"},{"type":"function","name":"getProposalStakedAmount","inputs":[{"name":"_proposalId","type":"uint256","internalType":"uint256"}],"outputs":[{"name":"","type":"uint256","internalType":"uint256"}],"stateMutability":"view"},{"type":"function","name":"getProposalVoterStake","inputs":[{"name":"_proposalId","type":"uint256","internalType":"uint256"},{"name":"_voter","type":"address","internalType":"address"}],"outputs":[{"name":"","type":"uint256","internalType":"uint256"}],"stateMutability":"view"},{"type":"function","name":"increasePower","inputs":[{"name":"_member","type":"address","internalType":"address"},{"name":"_amountToStake","type":"uint256","internalType":"uint256"}],"outputs":[{"name":"","type":"uint256","internalType":"uint256"}],"stateMutability":"nonpayable"},{"type":"function","name":"init","inputs":[{"name":"_allo","type":"address","internalType":"address"},{"name":"_collateralVaultTemplate","type":"address","internalType":"address"},{"name":"_owner","type":"address","internalType":"address"}],"outputs":[],"stateMutability":"nonpayable"},{"type":"function","name":"init","inputs":[{"name":"_allo","type":"address","internalType":"address"},{"name":"_name","type":"string","internalType":"string"},{"name":"_owner","type":"address","internalType":"address"}],"outputs":[],"stateMutability":"nonpayable"},{"type":"function","name":"initialize","inputs":[{"name":"initialOwner","type":"address","internalType":"address"}],"outputs":[],"stateMutability":"nonpayable"},{"type":"function","name":"initialize","inputs":[{"name":"_poolId","type":"uint256","internalType":"uint256"},{"name":"_data","type":"bytes","internalType":"bytes"}],"outputs":[],"stateMutability":"nonpayable"},{"type":"function","name":"isPoolActive","inputs":[],"outputs":[{"name":"","type":"bool","internalType":"bool"}],"stateMutability":"view"},{"type":"function","name":"owner","inputs":[],"outputs":[{"name":"","type":"address","internalType":"address"}],"stateMutability":"view"},{"type":"function","name":"pointConfig","inputs":[],"outputs":[{"name":"maxAmount","type":"uint256","internalType":"uint256"}],"stateMutability":"view"},{"type":"function","name":"pointSystem","inputs":[],"outputs":[{"name":"","type":"uint8","internalType":"enum PointSystem"}],"stateMutability":"view"},{"type":"function","name":"proposalCounter","inputs":[],"outputs":[{"name":"","type":"uint256","internalType":"uint256"}],"stateMutability":"view"},{"type":"function","name":"proposalType","inputs":[],"outputs":[{"name":"","type":"uint8","internalType":"enum ProposalType"}],"stateMutability":"view"},{"type":"function","name":"proposals","inputs":[{"name":"","type":"uint256","internalType":"uint256"}],"outputs":[{"name":"proposalId","type":"uint256","internalType":"uint256"},{"name":"requestedAmount","type":"uint256","internalType":"uint256"},{"name":"stakedAmount","type":"uint256","internalType":"uint256"},{"name":"convictionLast","type":"uint256","internalType":"uint256"},{"name":"beneficiary","type":"address","internalType":"address"},{"name":"submitter","type":"address","internalType":"address"},{"name":"requestedToken","type":"address","internalType":"address"},{"name":"blockLast","type":"uint256","internalType":"uint256"},{"name":"proposalStatus","type":"uint8","internalType":"enum ProposalStatus"},{"name":"metadata","type":"tuple","internalType":"struct Metadata","components":[{"name":"protocol","type":"uint256","internalType":"uint256"},{"name":"pointer","type":"string","internalType":"string"}]},{"name":"disputeInfo","type":"tuple","internalType":"struct ProposalDisputeInfo","components":[{"name":"disputeId","type":"uint256","internalType":"uint256"},{"name":"disputeTimestamp","type":"uint256","internalType":"uint256"},{"name":"challenger","type":"address","internalType":"address"}]},{"name":"lastDisputeCompletion","type":"uint256","internalType":"uint256"},{"name":"arbitrableConfigVersion","type":"uint256","internalType":"uint256"}],"stateMutability":"view"},{"type":"function","name":"proxiableUUID","inputs":[],"outputs":[{"name":"","type":"bytes32","internalType":"bytes32"}],"stateMutability":"view"},{"type":"function","name":"proxyOwner","inputs":[],"outputs":[{"name":"","type":"address","internalType":"address"}],"stateMutability":"view"},{"type":"function","name":"registerRecipient","inputs":[{"name":"_data","type":"bytes","internalType":"bytes"},{"name":"_sender","type":"address","internalType":"address"}],"outputs":[{"name":"","type":"address","internalType":"address"}],"stateMutability":"payable"},{"type":"function","name":"registryCommunity","inputs":[],"outputs":[{"name":"","type":"address","internalType":"contract IVotingPowerRegistry"}],"stateMutability":"view"},{"type":"function","name":"renounceOwnership","inputs":[],"outputs":[],"stateMutability":"nonpayable"},{"type":"function","name":"rule","inputs":[{"name":"","type":"uint256","internalType":"uint256"},{"name":"","type":"uint256","internalType":"uint256"}],"outputs":[],"stateMutability":"nonpayable"},{"type":"function","name":"setCollateralVaultTemplate","inputs":[{"name":"template","type":"address","internalType":"address"}],"outputs":[],"stateMutability":"nonpayable"},{"type":"function","name":"setPoolActive","inputs":[{"name":"_active","type":"bool","internalType":"bool"}],"outputs":[],"stateMutability":"nonpayable"},{"type":"function","name":"setPoolParams","inputs":[{"name":"_arbitrableConfig","type":"tuple","internalType":"struct ArbitrableConfig","components":[{"name":"arbitrator","type":"address","internalType":"contract IArbitrator"},{"name":"tribunalSafe","type":"address","internalType":"address"},{"name":"submitterCollateralAmount","type":"uint256","internalType":"uint256"},{"name":"challengerCollateralAmount","type":"uint256","internalType":"uint256"},{"name":"defaultRuling","type":"uint256","internalType":"uint256"},{"name":"defaultRulingTimeout","type":"uint256","internalType":"uint256"}]},{"name":"_cvParams","type":"tuple","internalType":"struct CVParams","components":[{"name":"maxRatio","type":"uint256","internalType":"uint256"},{"name":"weight","type":"uint256","internalType":"uint256"},{"name":"decay","type":"uint256","internalType":"uint256"},{"name":"minThresholdPoints","type":"uint256","internalType":"uint256"}]},{"name":"_sybilScoreThreshold","type":"uint256","internalType":"uint256"},{"name":"_membersToAdd","type":"address[]","internalType":"address[]"},{"name":"_membersToRemove","type":"address[]","internalType":"address[]"},{"name":"_superfluidToken","type":"address","internalType":"address"}],"outputs":[],"stateMutability":"nonpayable"},{"type":"function","name":"superfluidToken","inputs":[],"outputs":[{"name":"","type":"address","internalType":"contract ISuperToken"}],"stateMutability":"view"},{"type":"function","name":"supportsInterface","inputs":[{"name":"interfaceId","type":"bytes4","internalType":"bytes4"}],"outputs":[{"name":"","type":"bool","internalType":"bool"}],"stateMutability":"view"},{"type":"function","name":"sybilScorer","inputs":[],"outputs":[{"name":"","type":"address","internalType":"contract ISybilScorer"}],"stateMutability":"view"},{"type":"function","name":"totalPointsActivated","inputs":[],"outputs":[{"name":"","type":"uint256","internalType":"uint256"}],"stateMutability":"view"},{"type":"function","name":"totalStaked","inputs":[],"outputs":[{"name":"","type":"uint256","internalType":"uint256"}],"stateMutability":"view"},{"type":"function","name":"totalVoterStakePct","inputs":[{"name":"","type":"address","internalType":"address"}],"outputs":[{"name":"","type":"uint256","internalType":"uint256"}],"stateMutability":"view"},{"type":"function","name":"transferOwnership","inputs":[{"name":"newOwner","type":"address","internalType":"address"}],"outputs":[],"stateMutability":"nonpayable"},{"type":"function","name":"updateProposalConviction","inputs":[{"name":"proposalId","type":"uint256","internalType":"uint256"}],"outputs":[{"name":"","type":"uint256","internalType":"uint256"}],"stateMutability":"nonpayable"},{"type":"function","name":"upgradeTo","inputs":[{"name":"newImplementation","type":"address","internalType":"address"}],"outputs":[],"stateMutability":"nonpayable"},{"type":"function","name":"upgradeToAndCall","inputs":[{"name":"newImplementation","type":"address","internalType":"address"},{"name":"data","type":"bytes","internalType":"bytes"}],"outputs":[],"stateMutability":"payable"},{"type":"function","name":"voterStakedProposals","inputs":[{"name":"","type":"address","internalType":"address"},{"name":"","type":"uint256","internalType":"uint256"}],"outputs":[{"name":"","type":"uint256","internalType":"uint256"}],"stateMutability":"view"},{"type":"event","name":"AdminChanged","inputs":[{"name":"previousAdmin","type":"address","indexed":false,"internalType":"address"},{"name":"newAdmin","type":"address","indexed":false,"internalType":"address"}],"anonymous":false},{"type":"event","name":"Allocated","inputs":[{"name":"recipientId","type":"address","indexed":true,"internalType":"address"},{"name":"amount","type":"uint256","indexed":false,"internalType":"uint256"},{"name":"token","type":"address","indexed":false,"internalType":"address"},{"name":"sender","type":"address","indexed":false,"internalType":"address"}],"anonymous":false},{"type":"event","name":"AllowlistMembersAdded","inputs":[{"name":"poolId","type":"uint256","indexed":false,"internalType":"uint256"},{"name":"members","type":"address[]","indexed":false,"internalType":"address[]"}],"anonymous":false},{"type":"event","name":"AllowlistMembersRemoved","inputs":[{"name":"poolId","type":"uint256","indexed":false,"internalType":"uint256"},{"name":"members","type":"address[]","indexed":false,"internalType":"address[]"}],"anonymous":false},{"type":"event","name":"ArbitrableConfigUpdated","inputs":[{"name":"currentArbitrableConfigVersion","type":"uint256","indexed":false,"internalType":"uint256"},{"name":"arbitrator","type":"address","indexed":false,"internalType":"contract IArbitrator"},{"name":"tribunalSafe","type":"address","indexed":false,"internalType":"address"},{"name":"submitterCollateralAmount","type":"uint256","indexed":false,"internalType":"uint256"},{"name":"challengerCollateralAmount","type":"uint256","indexed":false,"internalType":"uint256"},{"name":"defaultRuling","type":"uint256","indexed":false,"internalType":"uint256"},{"name":"defaultRulingTimeout","type":"uint256","indexed":false,"internalType":"uint256"}],"anonymous":false},{"type":"event","name":"BeaconUpgraded","inputs":[{"name":"beacon","type":"address","indexed":true,"internalType":"address"}],"anonymous":false},{"type":"event","name":"CVParamsUpdated","inputs":[{"name":"cvParams","type":"tuple","indexed":false,"internalType":"struct CVParams","components":[{"name":"maxRatio","type":"uint256","internalType":"uint256"},{"name":"weight","type":"uint256","internalType":"uint256"},{"name":"decay","type":"uint256","internalType":"uint256"},{"name":"minThresholdPoints","type":"uint256","internalType":"uint256"}]}],"anonymous":false},{"type":"event","name":"DisputeRequest","inputs":[{"name":"_arbitrator","type":"address","indexed":true,"internalType":"contract IArbitrator"},{"name":"_arbitrableDisputeID","type":"uint256","indexed":true,"internalType":"uint256"},{"name":"_externalDisputeID","type":"uint256","indexed":false,"internalType":"uint256"},{"name":"_templateId","type":"uint256","indexed":false,"internalType":"uint256"},{"name":"_templateUri","type":"string","indexed":false,"internalType":"string"}],"anonymous":false},{"type":"event","name":"Distributed","inputs":[{"name":"proposalId","type":"uint256","indexed":false,"internalType":"uint256"},{"name":"beneficiary","type":"address","indexed":false,"internalType":"address"},{"name":"amount","type":"uint256","indexed":false,"internalType":"uint256"}],"anonymous":false},{"type":"event","name":"Distributed","inputs":[{"name":"recipientId","type":"address","indexed":true,"internalType":"address"},{"name":"recipientAddress","type":"address","indexed":false,"internalType":"address"},{"name":"amount","type":"uint256","indexed":false,"internalType":"uint256"},{"name":"sender","type":"address","indexed":false,"internalType":"address"}],"anonymous":false},{"type":"event","name":"Initialized","inputs":[{"name":"poolId","type":"uint256","indexed":false,"internalType":"uint256"},{"name":"data","type":"bytes","indexed":false,"internalType":"bytes"}],"anonymous":false},{"type":"event","name":"Initialized","inputs":[{"name":"version","type":"uint8","indexed":false,"internalType":"uint8"}],"anonymous":false},{"type":"event","name":"InitializedCV","inputs":[{"name":"poolId","type":"uint256","indexed":false,"internalType":"uint256"},{"name":"data","type":"tuple","indexed":false,"internalType":"struct CVStrategyInitializeParamsV0_0","components":[{"name":"cvParams","type":"tuple","internalType":"struct CVParams","components":[{"name":"maxRatio","type":"uint256","internalType":"uint256"},{"name":"weight","type":"uint256","internalType":"uint256"},{"name":"decay","type":"uint256","internalType":"uint256"},{"name":"minThresholdPoints","type":"uint256","internalType":"uint256"}]},{"name":"proposalType","type":"uint8","internalType":"enum ProposalType"},{"name":"pointSystem","type":"uint8","internalType":"enum PointSystem"},{"name":"pointConfig","type":"tuple","internalType":"struct PointSystemConfig","components":[{"name":"maxAmount","type":"uint256","internalType":"uint256"}]},{"name":"arbitrableConfig","type":"tuple","internalType":"struct ArbitrableConfig","components":[{"name":"arbitrator","type":"address","internalType":"contract IArbitrator"},{"name":"tribunalSafe","type":"address","internalType":"address"},{"name":"submitterCollateralAmount","type":"uint256","internalType":"uint256"},{"name":"challengerCollateralAmount","type":"uint256","internalType":"uint256"},{"name":"defaultRuling","type":"uint256","internalType":"uint256"},{"name":"defaultRulingTimeout","type":"uint256","internalType":"uint256"}]},{"name":"registryCommunity","type":"address","internalType":"address"},{"name":"sybilScorer","type":"address","internalType":"address"}]}],"anonymous":false},{"type":"event","name":"InitializedCV2","inputs":[{"name":"poolId","type":"uint256","indexed":false,"internalType":"uint256"},{"name":"data","type":"tuple","indexed":false,"internalType":"struct CVStrategyInitializeParamsV0_1","components":[{"name":"cvParams","type":"tuple","internalType":"struct CVParams","components":[{"name":"maxRatio","type":"uint256","internalType":"uint256"},{"name":"weight","type":"uint256","internalType":"uint256"},{"name":"decay","type":"uint256","internalType":"uint256"},{"name":"minThresholdPoints","type":"uint256","internalType":"uint256"}]},{"name":"proposalType","type":"uint8","internalType":"enum ProposalType"},{"name":"pointSystem","type":"uint8","internalType":"enum PointSystem"},{"name":"pointConfig","type":"tuple","internalType":"struct PointSystemConfig","components":[{"name":"maxAmount","type":"uint256","internalType":"uint256"}]},{"name":"arbitrableConfig","type":"tuple","internalType":"struct ArbitrableConfig","components":[{"name":"arbitrator","type":"address","internalType":"contract IArbitrator"},{"name":"tribunalSafe","type":"address","internalType":"address"},{"name":"submitterCollateralAmount","type":"uint256","internalType":"uint256"},{"name":"challengerCollateralAmount","type":"uint256","internalType":"uint256"},{"name":"defaultRuling","type":"uint256","internalType":"uint256"},{"name":"defaultRulingTimeout","type":"uint256","internalType":"uint256"}]},{"name":"registryCommunity","type":"address","internalType":"address"},{"name":"sybilScorer","type":"address","internalType":"address"},{"name":"sybilScorerThreshold","type":"uint256","internalType":"uint256"},{"name":"initialAllowlist","type":"address[]","internalType":"address[]"}]}],"anonymous":false},{"type":"event","name":"InitializedCV3","inputs":[{"name":"poolId","type":"uint256","indexed":false,"internalType":"uint256"},{"name":"data","type":"tuple","indexed":false,"internalType":"struct CVStrategyInitializeParamsV0_2","components":[{"name":"cvParams","type":"tuple","internalType":"struct CVParams","components":[{"name":"maxRatio","type":"uint256","internalType":"uint256"},{"name":"weight","type":"uint256","internalType":"uint256"},{"name":"decay","type":"uint256","internalType":"uint256"},{"name":"minThresholdPoints","type":"uint256","internalType":"uint256"}]},{"name":"proposalType","type":"uint8","internalType":"enum ProposalType"},{"name":"pointSystem","type":"uint8","internalType":"enum PointSystem"},{"name":"pointConfig","type":"tuple","internalType":"struct PointSystemConfig","components":[{"name":"maxAmount","type":"uint256","internalType":"uint256"}]},{"name":"arbitrableConfig","type":"tuple","internalType":"struct ArbitrableConfig","components":[{"name":"arbitrator","type":"address","internalType":"contract IArbitrator"},{"name":"tribunalSafe","type":"address","internalType":"address"},{"name":"submitterCollateralAmount","type":"uint256","internalType":"uint256"},{"name":"challengerCollateralAmount","type":"uint256","internalType":"uint256"},{"name":"defaultRuling","type":"uint256","internalType":"uint256"},{"name":"defaultRulingTimeout","type":"uint256","internalType":"uint256"}]},{"name":"registryCommunity","type":"address","internalType":"address"},{"name":"sybilScorer","type":"address","internalType":"address"},{"name":"sybilScorerThreshold","type":"uint256","internalType":"uint256"},{"name":"initialAllowlist","type":"address[]","internalType":"address[]"},{"name":"superfluidToken","type":"address","internalType":"address"}]}],"anonymous":false},{"type":"event","name":"OwnershipTransferred","inputs":[{"name":"previousOwner","type":"address","indexed":true,"internalType":"address"},{"name":"newOwner","type":"address","indexed":true,"internalType":"address"}],"anonymous":false},{"type":"event","name":"PointsDeactivated","inputs":[{"name":"member","type":"address","indexed":false,"internalType":"address"}],"anonymous":false},{"type":"event","name":"PoolActive","inputs":[{"name":"active","type":"bool","indexed":false,"internalType":"bool"}],"anonymous":false},{"type":"event","name":"PowerDecreased","inputs":[{"name":"member","type":"address","indexed":false,"internalType":"address"},{"name":"tokensUnStaked","type":"uint256","indexed":false,"internalType":"uint256"},{"name":"pointsToDecrease","type":"uint256","indexed":false,"internalType":"uint256"}],"anonymous":false},{"type":"event","name":"PowerIncreased","inputs":[{"name":"member","type":"address","indexed":false,"internalType":"address"},{"name":"tokensStaked","type":"uint256","indexed":false,"internalType":"uint256"},{"name":"pointsToIncrease","type":"uint256","indexed":false,"internalType":"uint256"}],"anonymous":false},{"type":"event","name":"ProposalCancelled","inputs":[{"name":"proposalId","type":"uint256","indexed":false,"internalType":"uint256"}],"anonymous":false},{"type":"event","name":"ProposalCreated","inputs":[{"name":"poolId","type":"uint256","indexed":false,"internalType":"uint256"},{"name":"proposalId","type":"uint256","indexed":false,"internalType":"uint256"}],"anonymous":false},{"type":"event","name":"ProposalDisputed","inputs":[{"name":"arbitrator","type":"address","indexed":false,"internalType":"contract IArbitrator"},{"name":"proposalId","type":"uint256","indexed":false,"internalType":"uint256"},{"name":"disputeId","type":"uint256","indexed":false,"internalType":"uint256"},{"name":"challenger","type":"address","indexed":false,"internalType":"address"},{"name":"context","type":"string","indexed":false,"internalType":"string"},{"name":"timestamp","type":"uint256","indexed":false,"internalType":"uint256"}],"anonymous":false},{"type":"event","name":"Registered","inputs":[{"name":"recipientId","type":"address","indexed":true,"internalType":"address"},{"name":"data","type":"bytes","indexed":false,"internalType":"bytes"},{"name":"sender","type":"address","indexed":false,"internalType":"address"}],"anonymous":false},{"type":"event","name":"Ruling","inputs":[{"name":"_arbitrator","type":"address","indexed":true,"internalType":"contract IArbitrator"},{"name":"_disputeID","type":"uint256","indexed":true,"internalType":"uint256"},{"name":"_ruling","type":"uint256","indexed":false,"internalType":"uint256"}],"anonymous":false},{"type":"event","name":"SuperfluidGDAConnected","inputs":[{"name":"gda","type":"address","indexed":true,"internalType":"address"},{"name":"by","type":"address","indexed":true,"internalType":"address"}],"anonymous":false},{"type":"event","name":"SuperfluidGDADisconnected","inputs":[{"name":"gda","type":"address","indexed":true,"internalType":"address"},{"name":"by","type":"address","indexed":true,"internalType":"address"}],"anonymous":false},{"type":"event","name":"SuperfluidTokenUpdated","inputs":[{"name":"superfluidToken","type":"address","indexed":false,"internalType":"address"}],"anonymous":false},{"type":"event","name":"SupportAdded","inputs":[{"name":"from","type":"address","indexed":false,"internalType":"address"},{"name":"proposalId","type":"uint256","indexed":false,"internalType":"uint256"},{"name":"amount","type":"uint256","indexed":false,"internalType":"uint256"},{"name":"totalStakedAmount","type":"uint256","indexed":false,"internalType":"uint256"},{"name":"convictionLast","type":"uint256","indexed":false,"internalType":"uint256"}],"anonymous":false},{"type":"event","name":"SybilScorerUpdated","inputs":[{"name":"sybilScorer","type":"address","indexed":false,"internalType":"address"}],"anonymous":false},{"type":"event","name":"Upgraded","inputs":[{"name":"implementation","type":"address","indexed":true,"internalType":"address"}],"anonymous":false},{"type":"error","name":"ALLOCATION_ACTIVE","inputs":[]},{"type":"error","name":"ALLOCATION_NOT_ACTIVE","inputs":[]},{"type":"error","name":"ALLOCATION_NOT_ENDED","inputs":[]},{"type":"error","name":"ALREADY_INITIALIZED","inputs":[]},{"type":"error","name":"AMOUNT_MISMATCH","inputs":[]},{"type":"error","name":"ANCHOR_ERROR","inputs":[]},{"type":"error","name":"ARRAY_MISMATCH","inputs":[]},{"type":"error","name":"AShouldBeUnderOrEqTwo_128","inputs":[]},{"type":"error","name":"AShouldBeUnderTwo_128","inputs":[]},{"type":"error","name":"AddressCannotBeZero","inputs":[]},{"type":"error","name":"AmountOverMaxRatio","inputs":[]},{"type":"error","name":"ArbitratorCannotBeZero","inputs":[]},{"type":"error","name":"BShouldBeLessTwo_128","inputs":[]},{"type":"error","name":"CallerNotOwner","inputs":[{"name":"_caller","type":"address","internalType":"address"},{"name":"_owner","type":"address","internalType":"address"}]},{"type":"error","name":"CannotAddFunctionToDiamondThatAlreadyExists","inputs":[{"name":"_selector","type":"bytes4","internalType":"bytes4"}]},{"type":"error","name":"CannotAddSelectorsToZeroAddress","inputs":[{"name":"_selectors","type":"bytes4[]","internalType":"bytes4[]"}]},{"type":"error","name":"CannotRemoveFunctionThatDoesNotExist","inputs":[{"name":"_selector","type":"bytes4","internalType":"bytes4"}]},{"type":"error","name":"CannotRemoveImmutableFunction","inputs":[{"name":"_selector","type":"bytes4","internalType":"bytes4"}]},{"type":"error","name":"CannotReplaceFunctionThatDoesNotExists","inputs":[{"name":"_selector","type":"bytes4","internalType":"bytes4"}]},{"type":"error","name":"CannotReplaceFunctionWithTheSameFunctionFromTheSameFacet","inputs":[{"name":"_selector","type":"bytes4","internalType":"bytes4"}]},{"type":"error","name":"CannotReplaceFunctionsFromFacetWithZeroAddress","inputs":[{"name":"_selectors","type":"bytes4[]","internalType":"bytes4[]"}]},{"type":"error","name":"CannotReplaceImmutableFunction","inputs":[{"name":"_selector","type":"bytes4","internalType":"bytes4"}]},{"type":"error","name":"ConvictionUnderMinimumThreshold","inputs":[]},{"type":"error","name":"DefaultRulingNotSet","inputs":[]},{"type":"error","name":"DisputeCooldownNotPassed","inputs":[{"name":"_proposalId","type":"uint256","internalType":"uint256"},{"name":"_remainingSec","type":"uint256","internalType":"uint256"}]},{"type":"error","name":"INVALID","inputs":[]},{"type":"error","name":"INVALID_ADDRESS","inputs":[]},{"type":"error","name":"INVALID_FEE","inputs":[]},{"type":"error","name":"INVALID_METADATA","inputs":[]},{"type":"error","name":"INVALID_REGISTRATION","inputs":[]},{"type":"error","name":"IS_APPROVED_STRATEGY","inputs":[]},{"type":"error","name":"IncorrectFacetCutAction","inputs":[{"name":"_action","type":"uint8","internalType":"uint8"}]},{"type":"error","name":"InitializationFunctionReverted","inputs":[{"name":"_initializationContractAddress","type":"address","internalType":"address"},{"name":"_calldata","type":"bytes","internalType":"bytes"}]},{"type":"error","name":"InsufficientCollateral","inputs":[{"name":"sentAmount","type":"uint256","internalType":"uint256"},{"name":"requiredAmount","type":"uint256","internalType":"uint256"}]},{"type":"error","name":"MISMATCH","inputs":[]},{"type":"error","name":"NONCE_NOT_AVAILABLE","inputs":[]},{"type":"error","name":"NON_ZERO_VALUE","inputs":[]},{"type":"error","name":"NOT_APPROVED_STRATEGY","inputs":[]},{"type":"error","name":"NOT_ENOUGH_FUNDS","inputs":[]},{"type":"error","name":"NOT_IMPLEMENTED","inputs":[]},{"type":"error","name":"NOT_INITIALIZED","inputs":[]},{"type":"error","name":"NOT_PENDING_OWNER","inputs":[]},{"type":"error","name":"NoBytecodeAtAddress","inputs":[{"name":"_contractAddress","type":"address","internalType":"address"},{"name":"_message","type":"string","internalType":"string"}]},{"type":"error","name":"NoSelectorsProvidedForFacetForCut","inputs":[{"name":"_facetAddress","type":"address","internalType":"address"}]},{"type":"error","name":"NotEnoughPointsToSupport","inputs":[{"name":"pointsSupport","type":"uint256","internalType":"uint256"},{"name":"pointsBalance","type":"uint256","internalType":"uint256"}]},{"type":"error","name":"NotImplemented","inputs":[]},{"type":"error","name":"OnlyArbitrator","inputs":[]},{"type":"error","name":"OnlyCommunityAllowed","inputs":[]},{"type":"error","name":"OnlyCouncilSafe","inputs":[]},{"type":"error","name":"OnlySubmitter","inputs":[{"name":"submitter","type":"address","internalType":"address"},{"name":"sender","type":"address","internalType":"address"}]},{"type":"error","name":"POOL_ACTIVE","inputs":[]},{"type":"error","name":"POOL_INACTIVE","inputs":[]},{"type":"error","name":"PoolAmountNotEnough","inputs":[{"name":"_proposalId","type":"uint256","internalType":"uint256"},{"name":"_requestedAmount","type":"uint256","internalType":"uint256"},{"name":"_poolAmount","type":"uint256","internalType":"uint256"}]},{"type":"error","name":"PoolIsEmpty","inputs":[]},{"type":"error","name":"ProposalDataIsEmpty","inputs":[]},{"type":"error","name":"ProposalIdCannotBeZero","inputs":[]},{"type":"error","name":"ProposalInvalidForAllocation","inputs":[{"name":"_proposalId","type":"uint256","internalType":"uint256"},{"name":"_proposalStatus","type":"uint8","internalType":"enum ProposalStatus"}]},{"type":"error","name":"ProposalNotActive","inputs":[{"name":"_proposalId","type":"uint256","internalType":"uint256"}]},{"type":"error","name":"ProposalNotDisputed","inputs":[{"name":"_proposalId","type":"uint256","internalType":"uint256"}]},{"type":"error","name":"ProposalNotInList","inputs":[{"name":"_proposalId","type":"uint256","internalType":"uint256"}]},{"type":"error","name":"ProposalSupportDuplicated","inputs":[{"name":"_proposalId","type":"uint256","internalType":"uint256"},{"name":"index","type":"uint256","internalType":"uint256"}]},{"type":"error","name":"RECIPIENT_ALREADY_ACCEPTED","inputs":[]},{"type":"error","name":"RECIPIENT_ERROR","inputs":[{"name":"recipientId","type":"address","internalType":"address"}]},{"type":"error","name":"RECIPIENT_NOT_ACCEPTED","inputs":[]},{"type":"error","name":"REGISTRATION_ACTIVE","inputs":[]},{"type":"error","name":"REGISTRATION_NOT_ACTIVE","inputs":[]},{"type":"error","name":"RegistryCannotBeZero","inputs":[]},{"type":"error","name":"RemoveFacetAddressMustBeZeroAddress","inputs":[{"name":"_facetAddress","type":"address","internalType":"address"}]},{"type":"error","name":"SupportUnderflow","inputs":[{"name":"_support","type":"uint256","internalType":"uint256"},{"name":"_delta","type":"int256","internalType":"int256"},{"name":"_result","type":"int256","internalType":"int256"}]},{"type":"error","name":"TokenCannotBeZero","inputs":[]},{"type":"error","name":"TokenNotAllowed","inputs":[]},{"type":"error","name":"UNAUTHORIZED","inputs":[]},{"type":"error","name":"UserCannotBeZero","inputs":[]},{"type":"error","name":"UserCannotExecuteAction","inputs":[]},{"type":"error","name":"UserIsInactive","inputs":[]},{"type":"error","name":"UserNotInRegistry","inputs":[]},{"type":"error","name":"ZERO_ADDRESS","inputs":[]}],"bytecode":{"object":"0x60a06040523060805234801561001457600080fd5b5060805161497461004c60003960008181610f6c01528181610fac015281816112c201528181611302015261137a01526149746000f3fe6080604052600436106102cc5760003560e01c8063013cf08b1461038c57806301ffc9a7146103ce578063025313a2146103fe578063059351cd1461042057806305caa7f3146104ad5780630a6f0ee9146104cd5780630bece79c146104ed5780630c0512e91461050d578063125fd1d91461053157806315cc481e14610547578063184b9559146105655780631aa91a9e146105855780631ddf1e23146105a55780631f931c1c146105ba5780632506b870146105da578063255ffb381461060d5780632bbe0cae1461063a5780632dbd6fdd1461064d5780632ed04b2b14610679578063311a6c561461069457806333960459146106b4578063351d9f96146106ca5780633659cfe6146106f157806338fff2d01461071157806341bb7605146107265780634ab4ba42146107835780634f1ef2861461079857806352d1902d146107ab57806359a5db8b146107c05780635db64b99146107e05780636003e4141461080d57806360b0645a1461082d57806360d5dedc1461084d578063626c47e81461086d5780636453d9c414610882578063715018a6146108a2578063782aadff146108b7578063814516ad146108d7578063817b1cd2146108ec578063868c57b8146109025780638da5cb5b14610922578063924e670414610882578063a0cf0aea14610937578063a28889e11461095f578063a47ff7e514610997578063aba9ffee146109ae578063b0d3713a146109c4578063b41596ec146109e4578063b5f620ce146109f7578063b6c61f3114610a17578063c329217114610a37578063c4d66de814610a54578063c69271ec14610882578063c7f758a814610a74578063d5b7cc5414610aac578063dc96ff2d14610acc578063df868ed314610afc578063e0a8f6f514610b11578063e0dd2c3814610b2c578063edd146cc14610b4c578063ef2920fc14610b6c578063f2fde38b14610b7a578063f5be3f7c14610b9a576102d3565b366102d357005b600080356001600160e01b031916815260008051602061486d833981519152602081905260409091205481906001600160a01b0316806103665760405162461bcd60e51b815260206004820152602360248201527f435653747261746567793a2046756e6374696f6e20646f6573206e6f742065786044820152621a5cdd60ea1b60648201526084015b60405180910390fd5b3660008037600080366000845af43d6000803e808015610385573d6000f35b3d6000fd5b005b34801561039857600080fd5b506103ac6103a7366004613292565b610bb0565b6040516103c59d9c9b9a99989796959493929190613332565b60405180910390f35b3480156103da57600080fd5b506103ee6103e9366004613411565b610cfe565b60405190151581526020016103c5565b34801561040a57600080fd5b50610413610d35565b6040516103c5919061342c565b34801561042c57600080fd5b50610475606f546000908152607f60205260409020805460018201546002830154600384015460048501546005909501546001600160a01b039485169694909316949193909290565b604080516001600160a01b039788168152969095166020870152938501929092526060840152608083015260a082015260c0016103c5565b3480156104b957600080fd5b50608054610413906001600160a01b031681565b3480156104d957600080fd5b5061038a6104e836600461366e565b610d4e565b3480156104f957600080fd5b50607954610413906001600160a01b031681565b34801561051957600080fd5b50610523606e5481565b6040519081526020016103c5565b34801561053d57600080fd5b50610523606f5481565b34801561055357600080fd5b506065546001600160a01b0316610413565b34801561057157600080fd5b5061038a6105803660046136e5565b610d5b565b34801561059157600080fd5b506105236105a0366004613292565b610eb6565b3480156105b157600080fd5b5061038a610ee9565b3480156105c657600080fd5b5061038a6105d5366004613766565b610ef3565b3480156105e657600080fd5b506072546073546074546075546105fd9392919084565b6040516103c59493929190613817565b34801561061957600080fd5b50610523610628366004613292565b607e6020526000908152604090205481565b610413610648366004613832565b610f4c565b34801561065957600080fd5b5060765461066c90610100900460ff1681565b6040516103c59190613893565b34801561068557600080fd5b506105236106483660046138a1565b3480156106a057600080fd5b5061038a6106af3660046138cd565b610f56565b3480156106c057600080fd5b50610523606c5481565b3480156106d657600080fd5b506076546106e49060ff1681565b6040516103c59190613908565b3480156106fd57600080fd5b5061038a61070c36600461391b565b610f62565b34801561071d57600080fd5b50606854610523565b34801561073257600080fd5b50610475610741366004613292565b607f602052600090815260409020805460018201546002830154600384015460048501546005909501546001600160a01b039485169593909416939192909186565b34801561078f57600080fd5b5061052361102a565b61038a6107a6366004613938565b6112b8565b3480156107b757600080fd5b5061052361136d565b3480156107cc57600080fd5b506105236107db366004613292565b61141b565b3480156107ec57600080fd5b506105236107fb36600461391b565b607c6020526000908152604090205481565b34801561081957600080fd5b50607854610413906001600160a01b031681565b34801561083957600080fd5b50610523610848366004613292565b6114ca565b34801561085957600080fd5b5061038a610868366004613987565b61157c565b34801561087957600080fd5b50610523600381565b34801561088e57600080fd5b5061038a61089d36600461391b565b6115f8565b3480156108ae57600080fd5b5061038a611600565b3480156108c357600080fd5b506105236108d23660046138a1565b611612565b3480156108e357600080fd5b5061038a6117b5565b3480156108f857600080fd5b5061052360705481565b34801561090e57600080fd5b5061052361091d3660046138a1565b6118b6565b34801561092e57600080fd5b506104136118e7565b34801561094357600080fd5b5061041373eeeeeeeeeeeeeeeeeeeeeeeeeeeeeeeeeeeeeeee81565b34801561096b57600080fd5b50606d5461097f906001600160401b031681565b6040516001600160401b0390911681526020016103c5565b3480156109a357600080fd5b506077546105239081565b3480156109ba57600080fd5b5061052360715481565b3480156109d057600080fd5b5061038a6109df36600461391b565b61197c565b6105236109f23660046139e2565b6119a6565b348015610a0357600080fd5b5061038a610a12366004613a4b565b6119b9565b348015610a2357600080fd5b50607a54610413906001600160a01b031681565b348015610a4357600080fd5b50607654610100900460ff1661066c565b348015610a6057600080fd5b5061038a610a6f36600461391b565b6119c2565b348015610a8057600080fd5b50610a94610a8f366004613292565b6119f2565b6040516103c59c9b9a99989796959493929190613a68565b348015610ab857600080fd5b5061038a610ac7366004613b21565b611b9b565b348015610ad857600080fd5b50610523610ae7366004613292565b6000908152607b602052604090206002015490565b348015610b0857600080fd5b506103ee611bab565b348015610b1d57600080fd5b5061038a61089d366004613292565b348015610b3857600080fd5b50610523610b47366004613c1f565b611bb9565b348015610b5857600080fd5b5061038a610b67366004613c44565b611be4565b61038a6106af366004613832565b348015610b8657600080fd5b5061038a610b9536600461391b565b611fdb565b348015610ba657600080fd5b50610523611c2081565b607b602090815260009182526040918290208054600182015460028301546003840154600485015460058601546006870154600788015460088901548b51808d01909c52600a8a0180548d52600b8b0180549a9d999c989b979a6001600160a01b039788169a968816999790951697939660ff9093169593949192840191610c3790613c74565b80601f0160208091040260200160405190810160405280929190818152602001828054610c6390613c74565b8015610cb05780601f10610c8557610100808354040283529160200191610cb0565b820191906000526020600020905b815481529060010190602001808311610c9357829003601f168201915b50505091909252505060408051606081018252600c8501548152600d8501546020820152600e8501546001600160a01b031691810191909152600f840154601090940154929390929091508d565b60006001600160e01b0319821663188d362b60e11b1480610d2f57506301ffc9a760e01b6001600160e01b03198316145b92915050565b6000610d496033546001600160a01b031690565b905090565b610d566102d3565b505050565b600054610100900460ff1615808015610d7b5750600054600160ff909116105b80610d9c5750610d8a30612048565b158015610d9c575060005460ff166001145b610dff5760405162461bcd60e51b815260206004820152602e60248201527f496e697469616c697a61626c653a20636f6e747261637420697320616c72656160448201526d191e481a5b9a5d1a585b1a5e995960921b606482015260840161035d565b6000805460ff191660011790558015610e22576000805461ff0019166101001790555b610e4f846040518060400160405280600a8152602001694356537472617465677960b01b8152508461157c565b606a80546001600160a01b0319166001600160a01b0385161790558015610eb0576000805461ff0019169055604051600181527f7f26b83ff96e1f2b6a682f133852f6798a09c465da95921460cefb38474024989060200160405180910390a15b50505050565b6000818152607b6020526040812080548314610ed157600080fd5b610edf818260020154612057565b6003015492915050565b610ef16102d3565b565b610efb612092565b610f45610f088587613cbb565b8484848080601f0160208091040260200160405190810160405280939291908181526020018383808284376000920191909152506120f192505050565b5050505050565b6000610d2f6102d3565b610f5e6102d3565b5050565b6001600160a01b037f0000000000000000000000000000000000000000000000000000000000000000163003610faa5760405162461bcd60e51b815260040161035d90613de6565b7f00000000000000000000000000000000000000000000000000000000000000006001600160a01b0316610fdc612293565b6001600160a01b0316146110025760405162461bcd60e51b815260040161035d90613e20565b61100b816122af565b60408051600080825260208201909252611027918391906122ea565b50565b60655460685460405163068bcd8d60e01b815260009283926001600160a01b039091169163068bcd8d916110649160040190815260200190565b600060405180830381865afa158015611081573d6000803e3d6000fd5b505050506040513d6000823e601f3d908101601f191682016040526110a99190810190613e65565b60400151905073eeeeeeeeeeeeeeeeeeeeeeeeeeeeeeeeeeeeeeed196001600160a01b038216016110db574791505090565b6040516370a0823160e01b81526000906001600160a01b038316906370a082319061110a90309060040161342c565b602060405180830381865afa158015611127573d6000803e3d6000fd5b505050506040513d601f19601f8201168201806040525081019061114b9190613f86565b6080549091506000906001600160a01b0316156111d8576080546040516370a0823160e01b81526001600160a01b03909116906370a082319061119290309060040161342c565b602060405180830381865afa1580156111af573d6000803e3d6000fd5b505050506040513d601f19601f820116820180604052508101906111d39190613f86565b6111db565b60005b90506000836001600160a01b031663313ce5676040518163ffffffff1660e01b8152600401602060405180830381865afa15801561121d573d6000803e3d6000fd5b505050506040513d601f19601f820116820180604052508101906112419190613f9f565b905060128160ff1610156112765761125a816012613fd8565b61126590600a6140d5565b61126f90836140e4565b91506112a5565b60128160ff1611156112a55761128d601282613fd8565b61129890600a6140d5565b6112a29083614106565b91505b6112af828461411d565b94505050505090565b6001600160a01b037f00000000000000000000000000000000000000000000000000000000000000001630036113005760405162461bcd60e51b815260040161035d90613de6565b7f00000000000000000000000000000000000000000000000000000000000000006001600160a01b0316611332612293565b6001600160a01b0316146113585760405162461bcd60e51b815260040161035d90613e20565b611361826122af565b610f5e828260016122ea565b6000306001600160a01b037f000000000000000000000000000000000000000000000000000000000000000016146114085760405162461bcd60e51b815260206004820152603860248201527f555550535570677261646561626c653a206d757374206e6f742062652063616c6044820152771b1959081d1a1c9bdd59da0819195b1959d85d1958d85b1b60421b606482015260840161035d565b506000805160206148f983398151915290565b600061142682612455565b1561143057600080fd5b73__$f1b7c69ba751c396eddc93d3bbc5414fd9$__6329dfe5ba8361145361102a565b6071546074546073546072546075546040516001600160e01b031960e08a901b1681526114899796959493929190600401614130565b602060405180830381865af41580156114a6573d6000803e3d6000fd5b505050506040513d601f19601f82011682018060405250810190610d2f9190613f86565b6000818152607b60205260408120600781015473__$f1b7c69ba751c396eddc93d3bbc5414fd9$__9063010dfe64906115039043614160565b600384015460028501546074546040516001600160e01b031960e087901b1681526115349493929190600401613817565b602060405180830381865af4158015611551573d6000803e3d6000fd5b505050506040513d601f19601f820116820180604052508101906115759190613f86565b9392505050565b600054610100900460ff166115a35760405162461bcd60e51b815260040161035d90614173565b6115ac816119c2565b606580546001600160a01b0319166001600160a01b0385161790556040516115d89083906020016141be565b60408051601f198184030181529190528051602090910120606655505050565b6110276102d3565b611608612092565b610ef16000612481565b600061161c6124d3565b611625836124ea565b61162e57600080fd5b607854607654607754604051632c319f1360e11b815260009373__$c032285ca413f3d1dae375e8699dd757fc$__936358633e2693611689936001600160a01b03909316928a928a9261010090910460ff16916004016141d1565b602060405180830381865af41580156116a6573d6000803e3d6000fd5b505050506040513d601f19601f820116820180604052508101906116ca9190613f86565b60785460405163011de97360e61b81529192506000916001600160a01b039091169063477a5cc090611702908890309060040161420d565b602060405180830381865afa15801561171f573d6000803e3d6000fd5b505050506040513d601f19601f820116820180604052508101906117439190614227565b9050801561176357816071600082825461175d919061411d565b90915550505b604080516001600160a01b0387168152602081018690529081018390527f0b9150e1e54346ed3fa36b977cd5d65dca5a649c737c3174a26bddaadd47667a9060600160405180910390a1509392505050565b6117be336124ea565b6117c757600080fd5b607854604051630d4a8b4960e01b81526001600160a01b0390911690630d4a8b49906117f9903390309060040161420d565b600060405180830381600087803b15801561181357600080fd5b505af1158015611827573d6000803e3d6000fd5b5050607854604051637817ee4f60e01b81526001600160a01b039091169250637817ee4f915061185d903390309060040161420d565b602060405180830381865afa15801561187a573d6000803e3d6000fd5b505050506040513d601f19601f8201168201806040525081019061189e9190613f86565b607160008282546118af919061411d565b9091555050565b607d60205281600052604060002081815481106118d257600080fd5b90600052602060002001600091509150505481565b60006118f1610d35565b6001600160a01b03163b60000361190a57610d49610d35565b611912610d35565b6001600160a01b0316638da5cb5b6040518163ffffffff1660e01b8152600401602060405180830381865afa92505050801561196b575060408051601f3d908101601f1916820190925261196891810190614244565b60015b61197757610d49610d35565b919050565b611984612092565b606a80546001600160a01b0319166001600160a01b0392909216919091179055565b60006119b06102d3565b95945050505050565b611027816126a2565b600054610100900460ff166119e95760405162461bcd60e51b815260040161035d90614173565b61102781612481565b6000806000806000806000806000806000806000607b60008f815260200190815260200160002090508060010154600014611aca5773__$f1b7c69ba751c396eddc93d3bbc5414fd9$__6329dfe5ba8260010154611a4e61102a565b6071546074546073546072546075546040516001600160e01b031960e08a901b168152611a849796959493929190600401614130565b602060405180830381865af4158015611aa1573d6000803e3d6000fd5b505050506040513d601f19601f82011682018060405250810190611ac59190613f86565b611acd565b60005b94508060050160009054906101000a90046001600160a01b03168160040160009054906101000a90046001600160a01b03168260060160009054906101000a90046001600160a01b0316836001015484600201548560080160009054906101000a900460ff16866007015487600301548c896009016000336001600160a01b03166001600160a01b03168152602001908152602001600020548a601001548b600a01600001549c509c509c509c509c509c509c509c509c509c509c509c505091939597999b5091939597999b565b611ba36102d3565b505050505050565b6000610d4960675460ff1690565b6000828152607b602090815260408083206001600160a01b0385168452600901909152812054611575565b611bec6126e9565b611bf582612714565b606a54606c8054611c1e926001600160a01b0316916000611c1583614261565b91905055612763565b607980546001600160a01b0319166001600160a01b039290921691821790556040805163204a7f0760e21b81529051638129fc1c9160048082019260009290919082900301818387803b158015611c7457600080fd5b505af1158015611c88573d6000803e3d6000fd5b50505050600081806020019051810190611ca291906143e9565b60a0810151607880546001600160a01b0319166001600160a01b03909216919091179055602081015160768054929350909160ff19166001836002811115611cec57611cec6132b8565b021790555060408101516076805461ff001916610100836003811115611d1457611d146132b8565b021790555060608101515160775560c0810151607a80546001600160a01b039283166001600160a01b031991821617909155610120830151608080549190931691161790556040517f27cddb9d805ad332311bc448d558d9a480ce45ef8b7e99b382ee1f16267e567f90611d8b908590849061455c565b60405180910390a16080810151602001516001600160a01b031615801590611dc057506080810151516001600160a01b031615155b15611f33576080810151805160209091015160405163446adb9960e11b81526001600160a01b03909216916388d5b73291611dfd9160040161342c565b600060405180830381600087803b158015611e1757600080fd5b505af1158015611e2b573d6000803e3d6000fd5b5050606f8054925090506000611e4083614261565b909155505060808181018051606f80546000908152607f6020908152604091829020845181546001600160a01b039182166001600160a01b03199182161783558387015160018401805491841691909216179055838601516002830155606080870151600384015586890151600484015560a096870151600590930192909255935495518051818401518286015183850151848c0151948a015188519b8c52938916968b019690965296168886015291870194909452958501529183015260c082019290925290517fe677e2878aaaaf6a65ecf50f849ad58100c49f6dfd57d055ba4bddd63a175d539181900360e00190a15b805160400151158015611f495750805160200151155b8015611f555750805151155b8015611f645750805160600151155b611fbd578051805160725560208101516073556040808201516074556060820151607555517fec9315d9f4291207475c061feff1e5d7105750ac0ee9534af9444b4ff1dab9bc91611fb491614678565b60405180910390a15b607a546001600160a01b031615610d5657610d568160e001516127b2565b611fe3612092565b6001600160a01b0381166119e95760405162461bcd60e51b815260206004820152602660248201527f4f776e61626c653a206e6577206f776e657220697320746865207a65726f206160448201526564647265737360d01b606482015260840161035d565b6001600160a01b03163b151590565b6000806120648484612896565b91509150816000148015612076575080155b156120815750505050565b600784015560039092019190915550565b3361209b6118e7565b6001600160a01b031614610ef15760405162461bcd60e51b815260206004820181905260248201527f4f776e61626c653a2063616c6c6572206973206e6f7420746865206f776e6572604482015260640161035d565b60005b835181101561224d57600084828151811061211157612111614686565b6020026020010151604001519050600085838151811061213357612133614686565b60200260200101516000015190508151600003612165578060405163e767f91f60e01b815260040161035d919061342c565b600086848151811061217957612179614686565b60200260200101516020015190506000600281111561219a5761219a6132b8565b8160028111156121ac576121ac6132b8565b036121c0576121bb8284612967565b612237565b60018160028111156121d4576121d46132b8565b036121e3576121bb8284612afe565b60028160028111156121f7576121f76132b8565b03612206576121bb8284612c6a565b806002811115612218576122186132b8565b604051633ff4d20f60e11b815260ff909116600482015260240161035d565b505050808061224590614261565b9150506120f4565b507f8faa70878671ccd212d20771b795c50af8fd3ff6cf27f4bde57e5d4de0aeb673838383604051612281939291906146d6565b60405180910390a1610d568282612ec8565b6000805160206148f9833981519152546001600160a01b031690565b336122b86118e7565b6001600160a01b03161461102757336122cf6118e7565b60405163163678e960e01b815260040161035d92919061420d565b7f4910fdfa16fed3260ed0e7147f7cc6da11a60208b5b9406d12a635614ffd91435460ff161561231d57610d5683612f8e565b826001600160a01b03166352d1902d6040518163ffffffff1660e01b8152600401602060405180830381865afa925050508015612377575060408051601f3d908101601f1916820190925261237491810190613f86565b60015b6123da5760405162461bcd60e51b815260206004820152602e60248201527f45524331393637557067726164653a206e657720696d706c656d656e7461746960448201526d6f6e206973206e6f74205555505360901b606482015260840161035d565b6000805160206148f983398151915281146124495760405162461bcd60e51b815260206004820152602960248201527f45524331393637557067726164653a20756e737570706f727465642070726f786044820152681a58589b195555525160ba1b606482015260840161035d565b50610d56838383613028565b60006124646298968083614106565b61246c61102a565b6072546124799190614106565b111592915050565b603380546001600160a01b038381166001600160a01b0319831681179093556040519116919082907f8be0079c531659141344cd1fd0a4f28419497f9722a3daafe3b4186f6b6457e090600090a35050565b6078546001600160a01b03163314610ef157600080fd5b607a546000906001600160a01b031661262f576068546040516810531313d5d31254d560ba1b6020820152602981019190915260009060490160408051601f19818403018152908290528051602090910120607854632474521560e21b83529092506001600160a01b0316906391d148549061256d908490600090600401614789565b602060405180830381865afa15801561258a573d6000803e3d6000fd5b505050506040513d601f19601f820116820180604052508101906125ae9190614227565b156125bc5750600192915050565b607854604051632474521560e21b81526001600160a01b03909116906391d14854906125ee9084908790600401614789565b602060405180830381865afa15801561260b573d6000803e3d6000fd5b505050506040513d601f19601f820116820180604052508101906115759190614227565b607a546040516302154c3d60e51b81526001600160a01b03909116906342a987a090612661908590309060040161420d565b602060405180830381865afa15801561267e573d6000803e3d6000fd5b505050506040513d601f19601f82011682018060405250810190610d2f9190614227565b6067805460ff19168215159081179091556040519081527fd94c9bc4d43c51d8dc345a016d8e3d994432fac68e72832e4cf3a616bd8efae09060200160405180910390a150565b6065546001600160a01b03163314610ef15760405163075fd2b160e01b815260040160405180910390fd5b61271c6126e9565b6068541561273d5760405163439a74c960e01b815260040160405180910390fd5b8060000361275e57604051637fcce2a960e01b815260040160405180910390fd5b606855565b6040516001600160601b03193360601b1660208201526034810182905260009081906054016040516020818303038152906040528051906020012090506127aa848261304d565b949350505050565b607a5460785460408051633629edcd60e11b815290516001600160a01b039384169363fc2ebdd193309387939190921691636c53db9a9160048083019260209291908290030181865afa15801561280d573d6000803e3d6000fd5b505050506040513d601f19601f820116820180604052508101906128319190614244565b60405160e085901b6001600160e01b03191681526001600160a01b03938416600482015260248101929092529091166044820152606401600060405180830381600087803b15801561288257600080fd5b505af1158015610f45573d6000803e3d6000fd5b60008043905080846007015411156128b0576128b06147a0565b808460070154036128c657506000905080612960565b73__$f1b7c69ba751c396eddc93d3bbc5414fd9$__63010dfe648560070154836128f09190614160565b60038701546074546040516001600160e01b031960e086901b16815261291c9392918991600401613817565b602060405180830381865af4158015612939573d6000803e3d6000fd5b505050506040513d601f19601f8201168201806040525081019061295d9190613f86565b91505b9250929050565b6001600160a01b03821661299057806040516302b8da0760e21b815260040161035d91906147b6565b600061299a6130e4565b90506000816001018054905090506129ca8460405180606001604052806024815260200161488d602491396130f6565b60005b8351811015610f455760008482815181106129ea576129ea614686565b6020908102919091018101516001600160e01b031981166000908152918690526040909120549091506001600160a01b03168015612a3d578160405163ebbf5d0760e01b815260040161035d91906147c9565b6040805180820182526001600160a01b03808a16825261ffff80881660208085019182526001600160e01b0319881660009081528b8252958620945185549251909316600160a01b026001600160b01b0319909216929093169190911717909155600180880180549182018155835291206008820401805460e085901c60046007909416939093026101000a92830263ffffffff909302191691909117905583612ae6816147de565b94505050508080612af690614261565b9150506129cd565b6000612b086130e4565b90506001600160a01b038316612b33578160405163cd98a96f60e01b815260040161035d91906147b6565b612b5583604051806060016040528060288152602001614940602891396130f6565b60005b8251811015610eb0576000838281518110612b7557612b75614686565b6020908102919091018101516001600160e01b031981166000908152918590526040909120549091506001600160a01b0316308103612bc95781604051632901806d60e11b815260040161035d91906147c9565b856001600160a01b0316816001600160a01b031603612bfd5781604051631ac6ce8d60e11b815260040161035d91906147c9565b6001600160a01b038116612c265781604051637479f93960e01b815260040161035d91906147c9565b506001600160e01b031916600090815260208390526040902080546001600160a01b0319166001600160a01b03861617905580612c6281614261565b915050612b58565b6000612c746130e4565b60018101549091506001600160a01b03841615612ca6578360405163d091bc8160e01b815260040161035d919061342c565b60005b8351811015610f45576000848281518110612cc657612cc6614686565b6020908102919091018101516001600160e01b0319811660009081528683526040908190208151808301909252546001600160a01b038116808352600160a01b90910461ffff169382019390935290925090612d375781604051637a08a22d60e01b815260040161035d91906147c9565b8051306001600160a01b0390911603612d655781604051630df5fd6160e31b815260040161035d91906147c9565b83612d6f816147ff565b94505083816020015161ffff1614612e4d576000856001018581548110612d9857612d98614686565b90600052602060002090600891828204019190066004029054906101000a900460e01b90508086600101836020015161ffff1681548110612ddb57612ddb614686565b600091825260208083206008830401805463ffffffff60079094166004026101000a938402191660e09590951c92909202939093179055838201516001600160e01b03199390931681529087905260409020805461ffff60a01b1916600160a01b61ffff909316929092029190911790555b84600101805480612e6057612e60614816565b60008281526020808220600860001990940193840401805463ffffffff600460078716026101000a0219169055919092556001600160e01b0319909316815291859052506040902080546001600160b01b031916905580612ec081614261565b915050612ca9565b6001600160a01b038216612eda575050565b612efc826040518060600160405280602881526020016148b1602891396130f6565b600080836001600160a01b031683604051612f17919061482c565b600060405180830381855af49150503d8060008114612f52576040519150601f19603f3d011682016040523d82523d6000602084013e612f57565b606091505b509150915081610eb057805115612f715780518082602001fd5b838360405163192105d760e01b815260040161035d929190614848565b612f9781612048565b612ff95760405162461bcd60e51b815260206004820152602d60248201527f455243313936373a206e657720696d706c656d656e746174696f6e206973206e60448201526c1bdd08184818dbdb9d1c9858dd609a1b606482015260840161035d565b6000805160206148f983398151915280546001600160a01b0319166001600160a01b0392909216919091179055565b6130318361311e565b60008251118061303e5750805b15610d5657610eb0838361315e565b6000763d602d80600a3d3981f3363d3d373d3d3d363d730000008360601b60e81c176000526e5af43d82803e903d91602b57fd5bf38360781b1760205281603760096000f590506001600160a01b038116610d2f5760405162461bcd60e51b8152602060048201526017602482015276115490cc4c4d8dce8818dc99585d194c8819985a5b1959604a1b604482015260640161035d565b60008051602061486d83398151915290565b813b6000819003610d5657828260405163919834b960e01b815260040161035d929190614848565b61312781612f8e565b6040516001600160a01b038216907fbc7cd75a20ee27fd9adebab32041f755214dbc6bffa90cc0225b39da2e5c2d3b90600090a250565b60606115758383604051806060016040528060278152602001614919602791396060600080856001600160a01b03168560405161319b919061482c565b600060405180830381855af49150503d80600081146131d6576040519150601f19603f3d011682016040523d82523d6000602084013e6131db565b606091505b50915091506131ec868383876131f6565b9695505050505050565b6060831561326357825160000361325c5761321085612048565b61325c5760405162461bcd60e51b815260206004820152601d60248201527f416464726573733a2063616c6c20746f206e6f6e2d636f6e7472616374000000604482015260640161035d565b50816127aa565b6127aa83838151156132785781518083602001fd5b8060405162461bcd60e51b815260040161035d91906141be565b6000602082840312156132a457600080fd5b5035919050565b6001600160a01b03169052565b634e487b7160e01b600052602160045260246000fd5b600781106132de576132de6132b8565b9052565b60005b838110156132fd5781810151838201526020016132e5565b50506000910152565b6000815180845261331e8160208601602086016132e2565b601f01601f19169290920160200192915050565b8d8152602081018d9052604081018c9052606081018b90526001600160a01b038a8116608083015289811660a0830152881660c082015260e0810187905260006101e06133836101008401896132ce565b8061012084015286518184015250602086015160406102008401526133ac610220840182613306565b8651610140850152602087015161016085015260408701516001600160a01b031661018085015291506133dc9050565b6101a08201939093526101c001529b9a5050505050505050505050565b80356001600160e01b03198116811461197757600080fd5b60006020828403121561342357600080fd5b611575826133f9565b6001600160a01b0391909116815260200190565b634e487b7160e01b600052604160045260246000fd5b604051608081016001600160401b038111828210171561347857613478613440565b60405290565b60405160c081016001600160401b038111828210171561347857613478613440565b604051606081016001600160401b038111828210171561347857613478613440565b604080519081016001600160401b038111828210171561347857613478613440565b60405161014081016001600160401b038111828210171561347857613478613440565b604051601f8201601f191681016001600160401b038111828210171561352f5761352f613440565b604052919050565b60006001600160401b0382111561355057613550613440565b5060051b60200190565b6001600160a01b038116811461102757600080fd5b80356119778161355a565b600082601f83011261358b57600080fd5b813560206135a061359b83613537565b613507565b82815260059290921b840181019181810190868411156135bf57600080fd5b8286015b848110156135e35780356135d68161355a565b83529183019183016135c3565b509695505050505050565b60006001600160401b0382111561360757613607613440565b50601f01601f191660200190565b600061362361359b846135ee565b905082815283838301111561363757600080fd5b828260208301376000602084830101529392505050565b600082601f83011261365f57600080fd5b61157583833560208501613615565b60008060006060848603121561368357600080fd5b83356001600160401b038082111561369a57600080fd5b6136a68783880161357a565b945060208601359150808211156136bc57600080fd5b506136c98682870161364e565b92505060408401356136da8161355a565b809150509250925092565b6000806000606084860312156136fa57600080fd5b83356137058161355a565b925060208401356137158161355a565b915060408401356136da8161355a565b60008083601f84011261373757600080fd5b5081356001600160401b0381111561374e57600080fd5b60208301915083602082850101111561296057600080fd5b60008060008060006060868803121561377e57600080fd5b85356001600160401b038082111561379557600080fd5b818801915088601f8301126137a957600080fd5b8135818111156137b857600080fd5b8960208260051b85010111156137cd57600080fd5b602083019750809650506137e36020890161356f565b945060408801359150808211156137f957600080fd5b5061380688828901613725565b969995985093965092949392505050565b93845260208401929092526040830152606082015260800190565b6000806040838503121561384557600080fd5b82356001600160401b0381111561385b57600080fd5b6138678582860161364e565b92505060208301356138788161355a565b809150509250929050565b600481106132de576132de6132b8565b60208101610d2f8284613883565b600080604083850312156138b457600080fd5b82356138bf8161355a565b946020939093013593505050565b600080604083850312156138e057600080fd5b50508035926020909101359150565b60038110611027576110276132b8565b6132de816138ef565b60208101613915836138ef565b91905290565b60006020828403121561392d57600080fd5b81356115758161355a565b6000806040838503121561394b57600080fd5b82356139568161355a565b915060208301356001600160401b0381111561397157600080fd5b61397d8582860161364e565b9150509250929050565b60008060006060848603121561399c57600080fd5b83356139a78161355a565b925060208401356001600160401b038111156139c257600080fd5b8401601f810186136139d357600080fd5b6136c986823560208401613615565b6000806000806000606086880312156139fa57600080fd5b8535945060208601356001600160401b0380821115613a1857600080fd5b613a2489838a01613725565b909650945060408801359150808211156137f957600080fd5b801515811461102757600080fd5b600060208284031215613a5d57600080fd5b813561157581613a3d565b6001600160a01b038d811682528c811660208301528b166040820152606081018a9052608081018990526101808101613aa460a083018a6132ce565b8760c08301528660e0830152856101008301528461012083015283610140830152826101608301529d9c50505050505050505050505050565b600060808284031215613aef57600080fd5b613af7613456565b90508135815260208201356020820152604082013560408201526060820135606082015292915050565b6000806000806000808688036101c0811215613b3c57600080fd5b60c0811215613b4a57600080fd5b50613b5361347e565b8735613b5e8161355a565b81526020880135613b6e8161355a565b8060208301525060408801356040820152606088013560608201526080880135608082015260a088013560a082015280965050613bae8860c08901613add565b945061014087013593506101608701356001600160401b0380821115613bd357600080fd5b613bdf8a838b0161357a565b9450610180890135915080821115613bf657600080fd5b50613c0389828a0161357a565b925050613c136101a0880161356f565b90509295509295509295565b60008060408385031215613c3257600080fd5b8235915060208301356138788161355a565b60008060408385031215613c5757600080fd5b8235915060208301356001600160401b0381111561397157600080fd5b600181811c90821680613c8857607f821691505b602082108103613ca857634e487b7160e01b600052602260045260246000fd5b50919050565b6003811061102757600080fd5b6000613cc961359b84613537565b83815260208082019190600586811b860136811115613ce757600080fd5b865b81811015613dd95780356001600160401b0380821115613d095760008081fd5b818a01915060608236031215613d1f5760008081fd5b613d276134a0565b8235613d328161355a565b815282870135613d4181613cae565b8188015260408381013583811115613d595760008081fd5b939093019236601f850112613d7057600092508283fd5b83359250613d8061359b84613537565b83815292871b84018801928881019036851115613d9d5760008081fd5b948901945b84861015613dc257613db3866133f9565b82529489019490890190613da2565b918301919091525088525050948301948301613ce9565b5092979650505050505050565b6020808252602c908201526000805160206148d983398151915260408201526b19195b1959d85d1958d85b1b60a21b606082015260800190565b6020808252602c908201526000805160206148d983398151915260408201526b6163746976652070726f787960a01b606082015260800190565b80516119778161355a565b60006020808385031215613e7857600080fd5b82516001600160401b0380821115613e8f57600080fd5b9084019060c08287031215613ea357600080fd5b613eab61347e565b8251815283830151613ebc8161355a565b818501526040830151613ece8161355a565b6040820152606083015182811115613ee557600080fd5b830160408189031215613ef757600080fd5b613eff6134c2565b815181528582015184811115613f1457600080fd5b82019350601f84018913613f2757600080fd5b83519150613f3761359b836135ee565b8281528987848701011115613f4b57600080fd5b613f5a838883018988016132e2565b95810195909552506060810193909352506080818101519083015260a090810151908201529392505050565b600060208284031215613f9857600080fd5b5051919050565b600060208284031215613fb157600080fd5b815160ff8116811461157557600080fd5b634e487b7160e01b600052601160045260246000fd5b60ff8281168282160390811115610d2f57610d2f613fc2565b600181815b8085111561402c57816000190482111561401257614012613fc2565b8085161561401f57918102915b93841c9390800290613ff6565b509250929050565b60008261404357506001610d2f565b8161405057506000610d2f565b816001811461406657600281146140705761408c565b6001915050610d2f565b60ff84111561408157614081613fc2565b50506001821b610d2f565b5060208310610133831016604e8410600b84101617156140af575081810a610d2f565b6140b98383613ff1565b80600019048211156140cd576140cd613fc2565b029392505050565b600061157560ff841683614034565b60008261410157634e487b7160e01b600052601260045260246000fd5b500490565b8082028115828204841417610d2f57610d2f613fc2565b80820180821115610d2f57610d2f613fc2565b968752602087019590955260408601939093526060850191909152608084015260a083015260c082015260e00190565b81810381811115610d2f57610d2f613fc2565b6020808252602b908201527f496e697469616c697a61626c653a20636f6e7472616374206973206e6f74206960408201526a6e697469616c697a696e6760a81b606082015260800190565b6020815260006115756020830184613306565b6001600160a01b038681168252851660208201526040810184905260a081016141fd6060830185613883565b8260808301529695505050505050565b6001600160a01b0392831681529116602082015260400190565b60006020828403121561423957600080fd5b815161157581613a3d565b60006020828403121561425657600080fd5b81516115758161355a565b60006001820161427357614273613fc2565b5060010190565b60006080828403121561428c57600080fd5b614294613456565b90508151815260208201516020820152604082015160408201526060820151606082015292915050565b805161197781613cae565b80516004811061197757600080fd5b6000602082840312156142ea57600080fd5b604051602081016001600160401b038111828210171561430c5761430c613440565b6040529151825250919050565b600060c0828403121561432b57600080fd5b61433361347e565b905081516143408161355a565b815260208201516143508161355a565b8060208301525060408201516040820152606082015160608201526080820151608082015260a082015160a082015292915050565b600082601f83011261439657600080fd5b815160206143a661359b83613537565b82815260059290921b840181019181810190868411156143c557600080fd5b8286015b848110156135e35780516143dc8161355a565b83529183019183016143c9565b6000602082840312156143fb57600080fd5b81516001600160401b038082111561441257600080fd5b90830190610240828603121561442757600080fd5b61442f6134e4565b614439868461427a565b8152614447608084016142be565b602082015261445860a084016142c9565b604082015261446a8660c085016142d8565b606082015261447c8660e08501614319565b608082015261448e6101a08401613e5a565b60a08201526144a06101c08401613e5a565b60c08201526101e083015160e0820152610200830151828111156144c357600080fd5b6144cf87828601614385565b610100830152506144e36102208401613e5a565b61012082015295945050505050565b805182526020810151602083015260408101516040830152606081015160608301525050565b600081518084526020808501945080840160005b838110156145515781516001600160a01b03168752958201959082019060010161452c565b509495945050505050565b828152604060208201526145746040820183516144f2565b6000602083015161458860c08401826138ff565b50604083015161459b60e0840182613883565b5060608301516101006145b081850183519052565b60808581015180516001600160a01b0390811661012088810191909152602083015190911661014088015260408201516101608801526060820151610180880152918101516101a087015260a0908101516101c0870152860151925061461a6101e08601846132ab565b60c0860151925061462f6102008601846132ab565b60e086015161022086015281860151925061024091508182860152614658610280860184614518565b92508086015191505061466f6102608501826132ab565b50949350505050565b60808101610d2f82846144f2565b634e487b7160e01b600052603260045260246000fd5b600081518084526020808501945080840160005b838110156145515781516001600160e01b031916875295820195908201906001016146b0565b6000606080830181845280875180835260808601915060808160051b87010192506020808a0160005b8381101561475b57888603607f19018552815180516001600160a01b031687528381015161472c816138ef565b878501526040908101519087018890526147488888018261469c565b96505093820193908201906001016146ff565b50506147698188018a6132ab565b505050838103604085015261477e8186613306565b979650505050505050565b9182526001600160a01b0316602082015260400190565b634e487b7160e01b600052600160045260246000fd5b602081526000611575602083018461469c565b6001600160e01b031991909116815260200190565b600061ffff8083168181036147f5576147f5613fc2565b6001019392505050565b60008161480e5761480e613fc2565b506000190190565b634e487b7160e01b600052603160045260246000fd5b6000825161483e8184602087016132e2565b9190910192915050565b6001600160a01b03831681526040602082018190526000906127aa9083018461330656fec8fcad8db84d3cc18b4c41d551ea0ee66dd599cde068d998e57d5e09332c131c4c69624469616d6f6e644375743a2041646420666163657420686173206e6f20636f64654c69624469616d6f6e644375743a205f696e6974206164647265737320686173206e6f20636f646546756e6374696f6e206d7573742062652063616c6c6564207468726f75676820360894a13ba1a3210667c828492db98dca3e2076cc3735a920a3ca505d382bbc416464726573733a206c6f772d6c6576656c2064656c65676174652063616c6c206661696c65644c69624469616d6f6e644375743a205265706c61636520666163657420686173206e6f20636f6465a164736f6c6343000813000a","linkReferences":{"pkg/contracts/src/CVStrategy/ConvictionsUtils.sol":{"ConvictionsUtils":[{"start":5246,"length":20},{"start":5419,"length":20},{"start":6773,"length":20},{"start":10516,"length":20}]},"pkg/contracts/src/CVStrategy/PowerManagementUtils.sol":{"PowerManagementUtils":[{"start":5781,"length":20}]}}},"methodIdentifiers":{"DISPUTE_COOLDOWN_SEC()":"f5be3f7c","NATIVE()":"a0cf0aea","RULING_OPTIONS()":"626c47e8","activatePoints()":"814516ad","allocate(bytes,address)":"ef2920fc","arbitrableConfigs(uint256)":"41bb7605","calculateProposalConviction(uint256)":"60b0645a","calculateThreshold(uint256)":"59a5db8b","cancelProposal(uint256)":"e0a8f6f5","cloneNonce()":"33960459","collateralVault()":"0bece79c","connectSuperfluidGDA(address)":"924e6704","currentArbitrableConfigVersion()":"125fd1d9","cvParams()":"2506b870","deactivatePoints()":"1ddf1e23","deactivatePoints(address)":"6453d9c4","decreasePower(address,uint256)":"2ed04b2b","diamondCut((address,uint8,bytes4[])[],address,bytes)":"1f931c1c","disconnectSuperfluidGDA(address)":"c69271ec","disputeCount()":"a28889e1","disputeIdToProposalId(uint256)":"255ffb38","disputeProposal(uint256,string,bytes)":"b41596ec","distribute(address[],bytes,address)":"0a6f0ee9","getAllo()":"15cc481e","getArbitrableConfig()":"059351cd","getPointSystem()":"c3292171","getPoolAmount()":"4ab4ba42","getPoolId()":"38fff2d0","getProposal(uint256)":"c7f758a8","getProposalStakedAmount(uint256)":"dc96ff2d","getProposalVoterStake(uint256,address)":"e0dd2c38","increasePower(address,uint256)":"782aadff","init(address,address,address)":"184b9559","init(address,string,address)":"60d5dedc","initialize(address)":"c4d66de8","initialize(uint256,bytes)":"edd146cc","isPoolActive()":"df868ed3","owner()":"8da5cb5b","pointConfig()":"a47ff7e5","pointSystem()":"2dbd6fdd","proposalCounter()":"0c0512e9","proposalType()":"351d9f96","proposals(uint256)":"013cf08b","proxiableUUID()":"52d1902d","proxyOwner()":"025313a2","registerRecipient(bytes,address)":"2bbe0cae","registryCommunity()":"6003e414","renounceOwnership()":"715018a6","rule(uint256,uint256)":"311a6c56","setCollateralVaultTemplate(address)":"b0d3713a","setPoolActive(bool)":"b5f620ce","setPoolParams((address,address,uint256,uint256,uint256,uint256),(uint256,uint256,uint256,uint256),uint256,address[],address[],address)":"d5b7cc54","superfluidToken()":"05caa7f3","supportsInterface(bytes4)":"01ffc9a7","sybilScorer()":"b6c61f31","totalPointsActivated()":"aba9ffee","totalStaked()":"817b1cd2","totalVoterStakePct(address)":"5db64b99","transferOwnership(address)":"f2fde38b","updateProposalConviction(uint256)":"1aa91a9e","upgradeTo(address)":"3659cfe6","upgradeToAndCall(address,bytes)":"4f1ef286","voterStakedProposals(address,uint256)":"868c57b8"},"storageLayout":{"storage":[{"astId":52954,"contract":"pkg/contracts/src/CVStrategy/CVStrategy.sol:CVStrategy","label":"_initialized","offset":0,"slot":"0","type":"t_uint8"},{"astId":52957,"contract":"pkg/contracts/src/CVStrategy/CVStrategy.sol:CVStrategy","label":"_initializing","offset":1,"slot":"0","type":"t_bool"},{"astId":53659,"contract":"pkg/contracts/src/CVStrategy/CVStrategy.sol:CVStrategy","label":"__gap","offset":0,"slot":"1","type":"t_array(t_uint256)50_storage"},{"astId":52746,"contract":"pkg/contracts/src/CVStrategy/CVStrategy.sol:CVStrategy","label":"_owner","offset":0,"slot":"51","type":"t_address"},{"astId":52866,"contract":"pkg/contracts/src/CVStrategy/CVStrategy.sol:CVStrategy","label":"__gap","offset":0,"slot":"52","type":"t_array(t_uint256)49_storage"},{"astId":73131,"contract":"pkg/contracts/src/CVStrategy/CVStrategy.sol:CVStrategy","label":"allo","offset":0,"slot":"101","type":"t_contract(IAllo)2629"},{"astId":73133,"contract":"pkg/contracts/src/CVStrategy/CVStrategy.sol:CVStrategy","label":"strategyId","offset":0,"slot":"102","type":"t_bytes32"},{"astId":73135,"contract":"pkg/contracts/src/CVStrategy/CVStrategy.sol:CVStrategy","label":"poolActive","offset":0,"slot":"103","type":"t_bool"},{"astId":73137,"contract":"pkg/contracts/src/CVStrategy/CVStrategy.sol:CVStrategy","label":"poolId","offset":0,"slot":"104","type":"t_uint256"},{"astId":73139,"contract":"pkg/contracts/src/CVStrategy/CVStrategy.sol:CVStrategy","label":"poolAmount","offset":0,"slot":"105","type":"t_uint256"},{"astId":73692,"contract":"pkg/contracts/src/CVStrategy/CVStrategy.sol:CVStrategy","label":"collateralVaultTemplate","offset":0,"slot":"106","type":"t_address"},{"astId":73694,"contract":"pkg/contracts/src/CVStrategy/CVStrategy.sol:CVStrategy","label":"surpressStateMutabilityWarning","offset":0,"slot":"107","type":"t_uint256"},{"astId":73696,"contract":"pkg/contracts/src/CVStrategy/CVStrategy.sol:CVStrategy","label":"cloneNonce","offset":0,"slot":"108","type":"t_uint256"},{"astId":73698,"contract":"pkg/contracts/src/CVStrategy/CVStrategy.sol:CVStrategy","label":"disputeCount","offset":0,"slot":"109","type":"t_uint64"},{"astId":73700,"contract":"pkg/contracts/src/CVStrategy/CVStrategy.sol:CVStrategy","label":"proposalCounter","offset":0,"slot":"110","type":"t_uint256"},{"astId":73702,"contract":"pkg/contracts/src/CVStrategy/CVStrategy.sol:CVStrategy","label":"currentArbitrableConfigVersion","offset":0,"slot":"111","type":"t_uint256"},{"astId":73704,"contract":"pkg/contracts/src/CVStrategy/CVStrategy.sol:CVStrategy","label":"totalStaked","offset":0,"slot":"112","type":"t_uint256"},{"astId":73706,"contract":"pkg/contracts/src/CVStrategy/CVStrategy.sol:CVStrategy","label":"totalPointsActivated","offset":0,"slot":"113","type":"t_uint256"},{"astId":73709,"contract":"pkg/contracts/src/CVStrategy/CVStrategy.sol:CVStrategy","label":"cvParams","offset":0,"slot":"114","type":"t_struct(CVParams)75999_storage"},{"astId":73712,"contract":"pkg/contracts/src/CVStrategy/CVStrategy.sol:CVStrategy","label":"proposalType","offset":0,"slot":"118","type":"t_enum(ProposalType)75902"},{"astId":73715,"contract":"pkg/contracts/src/CVStrategy/CVStrategy.sol:CVStrategy","label":"pointSystem","offset":1,"slot":"118","type":"t_enum(PointSystem)75907"},{"astId":73718,"contract":"pkg/contracts/src/CVStrategy/CVStrategy.sol:CVStrategy","label":"pointConfig","offset":0,"slot":"119","type":"t_struct(PointSystemConfig)75976_storage"},{"astId":73721,"contract":"pkg/contracts/src/CVStrategy/CVStrategy.sol:CVStrategy","label":"registryCommunity","offset":0,"slot":"120","type":"t_contract(IVotingPowerRegistry)85493"},{"astId":73724,"contract":"pkg/contracts/src/CVStrategy/CVStrategy.sol:CVStrategy","label":"collateralVault","offset":0,"slot":"121","type":"t_contract(ICollateralVault)85285"},{"astId":73727,"contract":"pkg/contracts/src/CVStrategy/CVStrategy.sol:CVStrategy","label":"sybilScorer","offset":0,"slot":"122","type":"t_contract(ISybilScorer)80200"},{"astId":73732,"contract":"pkg/contracts/src/CVStrategy/CVStrategy.sol:CVStrategy","label":"proposals","offset":0,"slot":"123","type":"t_mapping(t_uint256,t_struct(Proposal)75968_storage)"},{"astId":73736,"contract":"pkg/contracts/src/CVStrategy/CVStrategy.sol:CVStrategy","label":"totalVoterStakePct","offset":0,"slot":"124","type":"t_mapping(t_address,t_uint256)"},{"astId":73741,"contract":"pkg/contracts/src/CVStrategy/CVStrategy.sol:CVStrategy","label":"voterStakedProposals","offset":0,"slot":"125","type":"t_mapping(t_address,t_array(t_uint256)dyn_storage)"},{"astId":73745,"contract":"pkg/contracts/src/CVStrategy/CVStrategy.sol:CVStrategy","label":"disputeIdToProposalId","offset":0,"slot":"126","type":"t_mapping(t_uint256,t_uint256)"},{"astId":73750,"contract":"pkg/contracts/src/CVStrategy/CVStrategy.sol:CVStrategy","label":"arbitrableConfigs","offset":0,"slot":"127","type":"t_mapping(t_uint256,t_struct(ArbitrableConfig)75990_storage)"},{"astId":73753,"contract":"pkg/contracts/src/CVStrategy/CVStrategy.sol:CVStrategy","label":"superfluidToken","offset":0,"slot":"128","type":"t_contract(ISuperToken)71678"},{"astId":75155,"contract":"pkg/contracts/src/CVStrategy/CVStrategy.sol:CVStrategy","label":"__gap","offset":0,"slot":"129","type":"t_array(t_uint256)49_storage"}],"types":{"t_address":{"encoding":"inplace","label":"address","numberOfBytes":"20"},"t_array(t_uint256)49_storage":{"encoding":"inplace","label":"uint256[49]","numberOfBytes":"1568","base":"t_uint256"},"t_array(t_uint256)50_storage":{"encoding":"inplace","label":"uint256[50]","numberOfBytes":"1600","base":"t_uint256"},"t_array(t_uint256)dyn_storage":{"encoding":"dynamic_array","label":"uint256[]","numberOfBytes":"32","base":"t_uint256"},"t_bool":{"encoding":"inplace","label":"bool","numberOfBytes":"1"},"t_bytes32":{"encoding":"inplace","label":"bytes32","numberOfBytes":"32"},"t_contract(IAllo)2629":{"encoding":"inplace","label":"contract IAllo","numberOfBytes":"20"},"t_contract(IArbitrator)85252":{"encoding":"inplace","label":"contract IArbitrator","numberOfBytes":"20"},"t_contract(ICollateralVault)85285":{"encoding":"inplace","label":"contract ICollateralVault","numberOfBytes":"20"},"t_contract(ISuperToken)71678":{"encoding":"inplace","label":"contract ISuperToken","numberOfBytes":"20"},"t_contract(ISybilScorer)80200":{"encoding":"inplace","label":"contract ISybilScorer","numberOfBytes":"20"},"t_contract(IVotingPowerRegistry)85493":{"encoding":"inplace","label":"contract IVotingPowerRegistry","numberOfBytes":"20"},"t_enum(PointSystem)75907":{"encoding":"inplace","label":"enum PointSystem","numberOfBytes":"1"},"t_enum(ProposalStatus)75927":{"encoding":"inplace","label":"enum ProposalStatus","numberOfBytes":"1"},"t_enum(ProposalType)75902":{"encoding":"inplace","label":"enum ProposalType","numberOfBytes":"1"},"t_mapping(t_address,t_array(t_uint256)dyn_storage)":{"encoding":"mapping","key":"t_address","label":"mapping(address => uint256[])","numberOfBytes":"32","value":"t_array(t_uint256)dyn_storage"},"t_mapping(t_address,t_uint256)":{"encoding":"mapping","key":"t_address","label":"mapping(address => uint256)","numberOfBytes":"32","value":"t_uint256"},"t_mapping(t_uint256,t_struct(ArbitrableConfig)75990_storage)":{"encoding":"mapping","key":"t_uint256","label":"mapping(uint256 => struct ArbitrableConfig)","numberOfBytes":"32","value":"t_struct(ArbitrableConfig)75990_storage"},"t_mapping(t_uint256,t_struct(Proposal)75968_storage)":{"encoding":"mapping","key":"t_uint256","label":"mapping(uint256 => struct Proposal)","numberOfBytes":"32","value":"t_struct(Proposal)75968_storage"},"t_mapping(t_uint256,t_uint256)":{"encoding":"mapping","key":"t_uint256","label":"mapping(uint256 => uint256)","numberOfBytes":"32","value":"t_uint256"},"t_string_storage":{"encoding":"bytes","label":"string","numberOfBytes":"32"},"t_struct(ArbitrableConfig)75990_storage":{"encoding":"inplace","label":"struct ArbitrableConfig","numberOfBytes":"192","members":[{"astId":75979,"contract":"pkg/contracts/src/CVStrategy/CVStrategy.sol:CVStrategy","label":"arbitrator","offset":0,"slot":"0","type":"t_contract(IArbitrator)85252"},{"astId":75981,"contract":"pkg/contracts/src/CVStrategy/CVStrategy.sol:CVStrategy","label":"tribunalSafe","offset":0,"slot":"1","type":"t_address"},{"astId":75983,"contract":"pkg/contracts/src/CVStrategy/CVStrategy.sol:CVStrategy","label":"submitterCollateralAmount","offset":0,"slot":"2","type":"t_uint256"},{"astId":75985,"contract":"pkg/contracts/src/CVStrategy/CVStrategy.sol:CVStrategy","label":"challengerCollateralAmount","offset":0,"slot":"3","type":"t_uint256"},{"astId":75987,"contract":"pkg/contracts/src/CVStrategy/CVStrategy.sol:CVStrategy","label":"defaultRuling","offset":0,"slot":"4","type":"t_uint256"},{"astId":75989,"contract":"pkg/contracts/src/CVStrategy/CVStrategy.sol:CVStrategy","label":"defaultRulingTimeout","offset":0,"slot":"5","type":"t_uint256"}]},"t_struct(CVParams)75999_storage":{"encoding":"inplace","label":"struct CVParams","numberOfBytes":"128","members":[{"astId":75992,"contract":"pkg/contracts/src/CVStrategy/CVStrategy.sol:CVStrategy","label":"maxRatio","offset":0,"slot":"0","type":"t_uint256"},{"astId":75994,"contract":"pkg/contracts/src/CVStrategy/CVStrategy.sol:CVStrategy","label":"weight","offset":0,"slot":"1","type":"t_uint256"},{"astId":75996,"contract":"pkg/contracts/src/CVStrategy/CVStrategy.sol:CVStrategy","label":"decay","offset":0,"slot":"2","type":"t_uint256"},{"astId":75998,"contract":"pkg/contracts/src/CVStrategy/CVStrategy.sol:CVStrategy","label":"minThresholdPoints","offset":0,"slot":"3","type":"t_uint256"}]},"t_struct(Metadata)3080_storage":{"encoding":"inplace","label":"struct Metadata","numberOfBytes":"64","members":[{"astId":3076,"contract":"pkg/contracts/src/CVStrategy/CVStrategy.sol:CVStrategy","label":"protocol","offset":0,"slot":"0","type":"t_uint256"},{"astId":3079,"contract":"pkg/contracts/src/CVStrategy/CVStrategy.sol:CVStrategy","label":"pointer","offset":0,"slot":"1","type":"t_string_storage"}]},"t_struct(PointSystemConfig)75976_storage":{"encoding":"inplace","label":"struct PointSystemConfig","numberOfBytes":"32","members":[{"astId":75975,"contract":"pkg/contracts/src/CVStrategy/CVStrategy.sol:CVStrategy","label":"maxAmount","offset":0,"slot":"0","type":"t_uint256"}]},"t_struct(Proposal)75968_storage":{"encoding":"inplace","label":"struct Proposal","numberOfBytes":"544","members":[{"astId":75936,"contract":"pkg/contracts/src/CVStrategy/CVStrategy.sol:CVStrategy","label":"proposalId","offset":0,"slot":"0","type":"t_uint256"},{"astId":75938,"contract":"pkg/contracts/src/CVStrategy/CVStrategy.sol:CVStrategy","label":"requestedAmount","offset":0,"slot":"1","type":"t_uint256"},{"astId":75940,"contract":"pkg/contracts/src/CVStrategy/CVStrategy.sol:CVStrategy","label":"stakedAmount","offset":0,"slot":"2","type":"t_uint256"},{"astId":75942,"contract":"pkg/contracts/src/CVStrategy/CVStrategy.sol:CVStrategy","label":"convictionLast","offset":0,"slot":"3","type":"t_uint256"},{"astId":75944,"contract":"pkg/contracts/src/CVStrategy/CVStrategy.sol:CVStrategy","label":"beneficiary","offset":0,"slot":"4","type":"t_address"},{"astId":75946,"contract":"pkg/contracts/src/CVStrategy/CVStrategy.sol:CVStrategy","label":"submitter","offset":0,"slot":"5","type":"t_address"},{"astId":75948,"contract":"pkg/contracts/src/CVStrategy/CVStrategy.sol:CVStrategy","label":"requestedToken","offset":0,"slot":"6","type":"t_address"},{"astId":75950,"contract":"pkg/contracts/src/CVStrategy/CVStrategy.sol:CVStrategy","label":"blockLast","offset":0,"slot":"7","type":"t_uint256"},{"astId":75953,"contract":"pkg/contracts/src/CVStrategy/CVStrategy.sol:CVStrategy","label":"proposalStatus","offset":0,"slot":"8","type":"t_enum(ProposalStatus)75927"},{"astId":75957,"contract":"pkg/contracts/src/CVStrategy/CVStrategy.sol:CVStrategy","label":"voterStakedPoints","offset":0,"slot":"9","type":"t_mapping(t_address,t_uint256)"},{"astId":75960,"contract":"pkg/contracts/src/CVStrategy/CVStrategy.sol:CVStrategy","label":"metadata","offset":0,"slot":"10","type":"t_struct(Metadata)3080_storage"},{"astId":75963,"contract":"pkg/contracts/src/CVStrategy/CVStrategy.sol:CVStrategy","label":"disputeInfo","offset":0,"slot":"12","type":"t_struct(ProposalDisputeInfo)75934_storage"},{"astId":75965,"contract":"pkg/contracts/src/CVStrategy/CVStrategy.sol:CVStrategy","label":"lastDisputeCompletion","offset":0,"slot":"15","type":"t_uint256"},{"astId":75967,"contract":"pkg/contracts/src/CVStrategy/CVStrategy.sol:CVStrategy","label":"arbitrableConfigVersion","offset":0,"slot":"16","type":"t_uint256"}]},"t_struct(ProposalDisputeInfo)75934_storage":{"encoding":"inplace","label":"struct ProposalDisputeInfo","numberOfBytes":"96","members":[{"astId":75929,"contract":"pkg/contracts/src/CVStrategy/CVStrategy.sol:CVStrategy","label":"disputeId","offset":0,"slot":"0","type":"t_uint256"},{"astId":75931,"contract":"pkg/contracts/src/CVStrategy/CVStrategy.sol:CVStrategy","label":"disputeTimestamp","offset":0,"slot":"1","type":"t_uint256"},{"astId":75933,"contract":"pkg/contracts/src/CVStrategy/CVStrategy.sol:CVStrategy","label":"challenger","offset":0,"slot":"2","type":"t_address"}]},"t_uint256":{"encoding":"inplace","label":"uint256","numberOfBytes":"32"},"t_uint64":{"encoding":"inplace","label":"uint64","numberOfBytes":"8"},"t_uint8":{"encoding":"inplace","label":"uint8","numberOfBytes":"1"}}},"id":119}