{"abi":[{"type":"constructor","inputs":[{"name":"_allo","type":"address","internalType":"address"}],"stateMutability":"nonpayable"},{"type":"fallback","stateMutability":"payable"},{"type":"receive","stateMutability":"payable"},{"type":"function","name":"D","inputs":[],"outputs":[{"name":"","type":"uint256","internalType":"uint256"}],"stateMutability":"view"},{"type":"function","name":"MAX_STAKED_PROPOSALS","inputs":[],"outputs":[{"name":"","type":"uint256","internalType":"uint256"}],"stateMutability":"view"},{"type":"function","name":"NATIVE","inputs":[],"outputs":[{"name":"","type":"address","internalType":"address"}],"stateMutability":"view"},{"type":"function","name":"PRECISION_SCALE","inputs":[],"outputs":[{"name":"","type":"uint256","internalType":"uint256"}],"stateMutability":"view"},{"type":"function","name":"activatePoints","inputs":[],"outputs":[],"stateMutability":"nonpayable"},{"type":"function","name":"allocate","inputs":[{"name":"_data","type":"bytes","internalType":"bytes"},{"name":"_sender","type":"address","internalType":"address"}],"outputs":[],"stateMutability":"payable"},{"type":"function","name":"calculateConviction","inputs":[{"name":"_timePassed","type":"uint256","internalType":"uint256"},{"name":"_lastConv","type":"uint256","internalType":"uint256"},{"name":"_oldAmount","type":"uint256","internalType":"uint256"}],"outputs":[{"name":"","type":"uint256","internalType":"uint256"}],"stateMutability":"view"},{"type":"function","name":"calculateThreshold","inputs":[{"name":"_requestedAmount","type":"uint256","internalType":"uint256"}],"outputs":[{"name":"_threshold","type":"uint256","internalType":"uint256"}],"stateMutability":"view"},{"type":"function","name":"deactivatePoints","inputs":[{"name":"_member","type":"address","internalType":"address"}],"outputs":[],"stateMutability":"nonpayable"},{"type":"function","name":"decay","inputs":[],"outputs":[{"name":"","type":"uint256","internalType":"uint256"}],"stateMutability":"view"},{"type":"function","name":"decreasePower","inputs":[{"name":"_member","type":"address","internalType":"address"},{"name":"_amountToUnstake","type":"uint256","internalType":"uint256"}],"outputs":[{"name":"","type":"uint256","internalType":"uint256"}],"stateMutability":"nonpayable"},{"type":"function","name":"distribute","inputs":[{"name":"_recipientIds","type":"address[]","internalType":"address[]"},{"name":"_data","type":"bytes","internalType":"bytes"},{"name":"_sender","type":"address","internalType":"address"}],"outputs":[],"stateMutability":"nonpayable"},{"type":"function","name":"getAllo","inputs":[],"outputs":[{"name":"","type":"address","internalType":"contract IAllo"}],"stateMutability":"view"},{"type":"function","name":"getMaxConviction","inputs":[{"name":"amount","type":"uint256","internalType":"uint256"}],"outputs":[{"name":"","type":"uint256","internalType":"uint256"}],"stateMutability":"view"},{"type":"function","name":"getMetadata","inputs":[{"name":"_proposalId","type":"uint256","internalType":"uint256"}],"outputs":[{"name":"","type":"tuple","internalType":"struct Metadata","components":[{"name":"protocol","type":"uint256","internalType":"uint256"},{"name":"pointer","type":"string","internalType":"string"}]}],"stateMutability":"view"},{"type":"function","name":"getPayouts","inputs":[{"name":"","type":"address[]","internalType":"address[]"},{"name":"","type":"bytes[]","internalType":"bytes[]"}],"outputs":[{"name":"","type":"tuple[]","internalType":"struct IStrategy.PayoutSummary[]","components":[{"name":"recipientAddress","type":"address","internalType":"address"},{"name":"amount","type":"uint256","internalType":"uint256"}]}],"stateMutability":"view"},{"type":"function","name":"getPointsPerMember","inputs":[],"outputs":[{"name":"","type":"uint256","internalType":"uint256"}],"stateMutability":"view"},{"type":"function","name":"getPointsPerTokenStaked","inputs":[],"outputs":[{"name":"","type":"uint256","internalType":"uint256"}],"stateMutability":"view"},{"type":"function","name":"getPoolAmount","inputs":[],"outputs":[{"name":"","type":"uint256","internalType":"uint256"}],"stateMutability":"view"},{"type":"function","name":"getPoolId","inputs":[],"outputs":[{"name":"","type":"uint256","internalType":"uint256"}],"stateMutability":"view"},{"type":"function","name":"getProposal","inputs":[{"name":"_proposalId","type":"uint256","internalType":"uint256"}],"outputs":[{"name":"submitter","type":"address","internalType":"address"},{"name":"beneficiary","type":"address","internalType":"address"},{"name":"requestedToken","type":"address","internalType":"address"},{"name":"requestedAmount","type":"uint256","internalType":"uint256"},{"name":"stakedAmount","type":"uint256","internalType":"uint256"},{"name":"proposalStatus","type":"uint8","internalType":"enum StrategyStruct.ProposalStatus"},{"name":"blockLast","type":"uint256","internalType":"uint256"},{"name":"convictionLast","type":"uint256","internalType":"uint256"},{"name":"threshold","type":"uint256","internalType":"uint256"},{"name":"voterStakedPoints","type":"uint256","internalType":"uint256"}],"stateMutability":"view"},{"type":"function","name":"getProposalStakedAmount","inputs":[{"name":"_proposalId","type":"uint256","internalType":"uint256"}],"outputs":[{"name":"","type":"uint256","internalType":"uint256"}],"stateMutability":"view"},{"type":"function","name":"getProposalVoterStake","inputs":[{"name":"_proposalId","type":"uint256","internalType":"uint256"},{"name":"_voter","type":"address","internalType":"address"}],"outputs":[{"name":"","type":"uint256","internalType":"uint256"}],"stateMutability":"view"},{"type":"function","name":"getRecipientStatus","inputs":[{"name":"_recipientId","type":"address","internalType":"address"}],"outputs":[{"name":"","type":"uint8","internalType":"enum IStrategy.Status"}],"stateMutability":"view"},{"type":"function","name":"getStrategyId","inputs":[],"outputs":[{"name":"","type":"bytes32","internalType":"bytes32"}],"stateMutability":"view"},{"type":"function","name":"getTotalVoterStakePct","inputs":[{"name":"_voter","type":"address","internalType":"address"}],"outputs":[{"name":"","type":"uint256","internalType":"uint256"}],"stateMutability":"view"},{"type":"function","name":"increasePoolAmount","inputs":[{"name":"_amount","type":"uint256","internalType":"uint256"}],"outputs":[],"stateMutability":"nonpayable"},{"type":"function","name":"increasePower","inputs":[{"name":"_member","type":"address","internalType":"address"},{"name":"_amountToStake","type":"uint256","internalType":"uint256"}],"outputs":[{"name":"","type":"uint256","internalType":"uint256"}],"stateMutability":"nonpayable"},{"type":"function","name":"increasePowerQuadratic","inputs":[{"name":"_member","type":"address","internalType":"address"},{"name":"_amountToStake","type":"uint256","internalType":"uint256"}],"outputs":[{"name":"","type":"uint256","internalType":"uint256"}],"stateMutability":"view"},{"type":"function","name":"initialize","inputs":[{"name":"_poolId","type":"uint256","internalType":"uint256"},{"name":"_data","type":"bytes","internalType":"bytes"}],"outputs":[],"stateMutability":"nonpayable"},{"type":"function","name":"isPoolActive","inputs":[],"outputs":[{"name":"","type":"bool","internalType":"bool"}],"stateMutability":"view"},{"type":"function","name":"isValidAllocator","inputs":[{"name":"_allocator","type":"address","internalType":"address"}],"outputs":[{"name":"","type":"bool","internalType":"bool"}],"stateMutability":"view"},{"type":"function","name":"maxRatio","inputs":[],"outputs":[{"name":"","type":"uint256","internalType":"uint256"}],"stateMutability":"view"},{"type":"function","name":"minPointsActivated","inputs":[],"outputs":[{"name":"","type":"uint256","internalType":"uint256"}],"stateMutability":"view"},{"type":"function","name":"pointConfig","inputs":[],"outputs":[{"name":"pointsPerTokenStaked","type":"uint256","internalType":"uint256"},{"name":"maxAmount","type":"uint256","internalType":"uint256"},{"name":"pointsPerMember","type":"uint256","internalType":"uint256"},{"name":"tokensPerPoint","type":"uint256","internalType":"uint256"}],"stateMutability":"view"},{"type":"function","name":"pointSystem","inputs":[],"outputs":[{"name":"","type":"uint8","internalType":"enum StrategyStruct.PointSystem"}],"stateMutability":"view"},{"type":"function","name":"proposalCounter","inputs":[],"outputs":[{"name":"","type":"uint256","internalType":"uint256"}],"stateMutability":"view"},{"type":"function","name":"proposalType","inputs":[],"outputs":[{"name":"","type":"uint8","internalType":"enum StrategyStruct.ProposalType"}],"stateMutability":"view"},{"type":"function","name":"proposals","inputs":[{"name":"","type":"uint256","internalType":"uint256"}],"outputs":[{"name":"proposalId","type":"uint256","internalType":"uint256"},{"name":"requestedAmount","type":"uint256","internalType":"uint256"},{"name":"stakedAmount","type":"uint256","internalType":"uint256"},{"name":"convictionLast","type":"uint256","internalType":"uint256"},{"name":"beneficiary","type":"address","internalType":"address"},{"name":"submitter","type":"address","internalType":"address"},{"name":"requestedToken","type":"address","internalType":"address"},{"name":"blockLast","type":"uint256","internalType":"uint256"},{"name":"proposalStatus","type":"uint8","internalType":"enum StrategyStruct.ProposalStatus"},{"name":"metadata","type":"tuple","internalType":"struct Metadata","components":[{"name":"protocol","type":"uint256","internalType":"uint256"},{"name":"pointer","type":"string","internalType":"string"}]}],"stateMutability":"view"},{"type":"function","name":"registerRecipient","inputs":[{"name":"_data","type":"bytes","internalType":"bytes"},{"name":"_sender","type":"address","internalType":"address"}],"outputs":[{"name":"recipientId","type":"address","internalType":"address"}],"stateMutability":"payable"},{"type":"function","name":"registryCommunity","inputs":[],"outputs":[{"name":"","type":"address","internalType":"contract RegistryCommunity"}],"stateMutability":"view"},{"type":"function","name":"setDecay","inputs":[{"name":"_decay","type":"uint256","internalType":"uint256"}],"outputs":[],"stateMutability":"nonpayable"},{"type":"function","name":"setMaxRatio","inputs":[{"name":"_maxRatio","type":"uint256","internalType":"uint256"}],"outputs":[],"stateMutability":"nonpayable"},{"type":"function","name":"setPoolActive","inputs":[{"name":"_active","type":"bool","internalType":"bool"}],"outputs":[],"stateMutability":"nonpayable"},{"type":"function","name":"setRegistryCommunity","inputs":[{"name":"_registryCommunity","type":"address","internalType":"address"}],"outputs":[],"stateMutability":"nonpayable"},{"type":"function","name":"setWeight","inputs":[{"name":"_weight","type":"uint256","internalType":"uint256"}],"outputs":[],"stateMutability":"nonpayable"},{"type":"function","name":"supportProposal","inputs":[{"name":"","type":"tuple[]","internalType":"struct StrategyStruct.ProposalSupport[]","components":[{"name":"proposalId","type":"uint256","internalType":"uint256"},{"name":"deltaSupport","type":"int256","internalType":"int256"}]}],"outputs":[],"stateMutability":"nonpayable"},{"type":"function","name":"supportsInterface","inputs":[{"name":"interfaceId","type":"bytes4","internalType":"bytes4"}],"outputs":[{"name":"","type":"bool","internalType":"bool"}],"stateMutability":"view"},{"type":"function","name":"totalEffectiveActivePoints","inputs":[],"outputs":[{"name":"","type":"uint256","internalType":"uint256"}],"stateMutability":"view"},{"type":"function","name":"totalPointsActivated","inputs":[],"outputs":[{"name":"","type":"uint256","internalType":"uint256"}],"stateMutability":"view"},{"type":"function","name":"totalStaked","inputs":[],"outputs":[{"name":"","type":"uint256","internalType":"uint256"}],"stateMutability":"view"},{"type":"function","name":"totalVoterStakePct","inputs":[{"name":"","type":"address","internalType":"address"}],"outputs":[{"name":"","type":"uint256","internalType":"uint256"}],"stateMutability":"view"},{"type":"function","name":"updateProposalConviction","inputs":[{"name":"proposalId","type":"uint256","internalType":"uint256"}],"outputs":[{"name":"","type":"uint256","internalType":"uint256"}],"stateMutability":"nonpayable"},{"type":"function","name":"voterStakedProposals","inputs":[{"name":"","type":"address","internalType":"address"},{"name":"","type":"uint256","internalType":"uint256"}],"outputs":[{"name":"","type":"uint256","internalType":"uint256"}],"stateMutability":"view"},{"type":"function","name":"weight","inputs":[],"outputs":[{"name":"","type":"uint256","internalType":"uint256"}],"stateMutability":"view"},{"type":"event","name":"Allocated","inputs":[{"name":"recipientId","type":"address","indexed":true,"internalType":"address"},{"name":"amount","type":"uint256","indexed":false,"internalType":"uint256"},{"name":"token","type":"address","indexed":false,"internalType":"address"},{"name":"sender","type":"address","indexed":false,"internalType":"address"}],"anonymous":false},{"type":"event","name":"DecayUpdated","inputs":[{"name":"decay","type":"uint256","indexed":false,"internalType":"uint256"}],"anonymous":false},{"type":"event","name":"Distributed","inputs":[{"name":"proposalId","type":"uint256","indexed":false,"internalType":"uint256"},{"name":"beneficiary","type":"address","indexed":false,"internalType":"address"},{"name":"amount","type":"uint256","indexed":false,"internalType":"uint256"}],"anonymous":false},{"type":"event","name":"Distributed","inputs":[{"name":"recipientId","type":"address","indexed":true,"internalType":"address"},{"name":"recipientAddress","type":"address","indexed":false,"internalType":"address"},{"name":"amount","type":"uint256","indexed":false,"internalType":"uint256"},{"name":"sender","type":"address","indexed":false,"internalType":"address"}],"anonymous":false},{"type":"event","name":"Initialized","inputs":[{"name":"poolId","type":"uint256","indexed":false,"internalType":"uint256"},{"name":"data","type":"bytes","indexed":false,"internalType":"bytes"}],"anonymous":false},{"type":"event","name":"InitializedCV","inputs":[{"name":"poolId","type":"uint256","indexed":false,"internalType":"uint256"},{"name":"data","type":"tuple","indexed":false,"internalType":"struct StrategyStruct.InitializeParams","components":[{"name":"registryCommunity","type":"address","internalType":"address"},{"name":"decay","type":"uint256","internalType":"uint256"},{"name":"maxRatio","type":"uint256","internalType":"uint256"},{"name":"weight","type":"uint256","internalType":"uint256"},{"name":"proposalType","type":"uint8","internalType":"enum StrategyStruct.ProposalType"},{"name":"pointSystem","type":"uint8","internalType":"enum StrategyStruct.PointSystem"},{"name":"pointConfig","type":"tuple","internalType":"struct StrategyStruct.PointSystemConfig","components":[{"name":"pointsPerTokenStaked","type":"uint256","internalType":"uint256"},{"name":"maxAmount","type":"uint256","internalType":"uint256"},{"name":"pointsPerMember","type":"uint256","internalType":"uint256"},{"name":"tokensPerPoint","type":"uint256","internalType":"uint256"}]}]}],"anonymous":false},{"type":"event","name":"MaxRatioUpdated","inputs":[{"name":"maxRatio","type":"uint256","indexed":false,"internalType":"uint256"}],"anonymous":false},{"type":"event","name":"PoolActive","inputs":[{"name":"active","type":"bool","indexed":false,"internalType":"bool"}],"anonymous":false},{"type":"event","name":"PoolAmountIncreased","inputs":[{"name":"amount","type":"uint256","indexed":false,"internalType":"uint256"}],"anonymous":false},{"type":"event","name":"PowerDecreased","inputs":[{"name":"member","type":"address","indexed":false,"internalType":"address"},{"name":"tokensUnStaked","type":"uint256","indexed":false,"internalType":"uint256"},{"name":"pointsToDecrease","type":"uint256","indexed":false,"internalType":"uint256"}],"anonymous":false},{"type":"event","name":"PowerIncreased","inputs":[{"name":"member","type":"address","indexed":false,"internalType":"address"},{"name":"tokensStaked","type":"uint256","indexed":false,"internalType":"uint256"},{"name":"pointsToIncrease","type":"uint256","indexed":false,"internalType":"uint256"}],"anonymous":false},{"type":"event","name":"ProposalCreated","inputs":[{"name":"poolId","type":"uint256","indexed":false,"internalType":"uint256"},{"name":"proposalId","type":"uint256","indexed":false,"internalType":"uint256"}],"anonymous":false},{"type":"event","name":"Registered","inputs":[{"name":"recipientId","type":"address","indexed":true,"internalType":"address"},{"name":"data","type":"bytes","indexed":false,"internalType":"bytes"},{"name":"sender","type":"address","indexed":false,"internalType":"address"}],"anonymous":false},{"type":"event","name":"SupportAdded","inputs":[{"name":"from","type":"address","indexed":false,"internalType":"address"},{"name":"proposalId","type":"uint256","indexed":false,"internalType":"uint256"},{"name":"amount","type":"uint256","indexed":false,"internalType":"uint256"},{"name":"totalStakedAmount","type":"uint256","indexed":false,"internalType":"uint256"},{"name":"convictionLast","type":"uint256","indexed":false,"internalType":"uint256"}],"anonymous":false},{"type":"event","name":"WeightUpdated","inputs":[{"name":"weight","type":"uint256","indexed":false,"internalType":"uint256"}],"anonymous":false},{"type":"error","name":"ALLOCATION_ACTIVE","inputs":[]},{"type":"error","name":"ALLOCATION_NOT_ACTIVE","inputs":[]},{"type":"error","name":"ALLOCATION_NOT_ENDED","inputs":[]},{"type":"error","name":"ALREADY_INITIALIZED","inputs":[]},{"type":"error","name":"AMOUNT_MISMATCH","inputs":[]},{"type":"error","name":"ANCHOR_ERROR","inputs":[]},{"type":"error","name":"ARRAY_MISMATCH","inputs":[]},{"type":"error","name":"AddressCannotBeZero","inputs":[]},{"type":"error","name":"AmountOverMaxRatio","inputs":[]},{"type":"error","name":"CantIncreaseFixedSystem","inputs":[]},{"type":"error","name":"ConvictionUnderMinimumThreshold","inputs":[]},{"type":"error","name":"INVALID","inputs":[]},{"type":"error","name":"INVALID_ADDRESS","inputs":[]},{"type":"error","name":"INVALID_FEE","inputs":[]},{"type":"error","name":"INVALID_METADATA","inputs":[]},{"type":"error","name":"INVALID_REGISTRATION","inputs":[]},{"type":"error","name":"IS_APPROVED_STRATEGY","inputs":[]},{"type":"error","name":"MISMATCH","inputs":[]},{"type":"error","name":"MaxPointsReached","inputs":[]},{"type":"error","name":"NONCE_NOT_AVAILABLE","inputs":[]},{"type":"error","name":"NOT_APPROVED_STRATEGY","inputs":[]},{"type":"error","name":"NOT_ENOUGH_FUNDS","inputs":[]},{"type":"error","name":"NOT_IMPLEMENTED","inputs":[]},{"type":"error","name":"NOT_INITIALIZED","inputs":[]},{"type":"error","name":"NOT_PENDING_OWNER","inputs":[]},{"type":"error","name":"NotEnoughPointsToSupport","inputs":[{"name":"pointsSupport","type":"uint256","internalType":"uint256"},{"name":"pointsBalance","type":"uint256","internalType":"uint256"}]},{"type":"error","name":"NotImplemented","inputs":[]},{"type":"error","name":"OnlyCommunityAllowed","inputs":[]},{"type":"error","name":"POOL_ACTIVE","inputs":[]},{"type":"error","name":"POOL_INACTIVE","inputs":[]},{"type":"error","name":"PoolIdCannotBeZero","inputs":[]},{"type":"error","name":"PoolIsEmpty","inputs":[]},{"type":"error","name":"ProposalDataIsEmpty","inputs":[]},{"type":"error","name":"ProposalIdCannotBeZero","inputs":[]},{"type":"error","name":"ProposalNotActive","inputs":[{"name":"_proposalId","type":"uint256","internalType":"uint256"}]},{"type":"error","name":"ProposalNotInList","inputs":[{"name":"_proposalId","type":"uint256","internalType":"uint256"}]},{"type":"error","name":"ProposalSupportDuplicated","inputs":[{"name":"_proposalId","type":"uint256","internalType":"uint256"},{"name":"index","type":"uint256","internalType":"uint256"}]},{"type":"error","name":"RECIPIENT_ALREADY_ACCEPTED","inputs":[]},{"type":"error","name":"RECIPIENT_ERROR","inputs":[{"name":"recipientId","type":"address","internalType":"address"}]},{"type":"error","name":"RECIPIENT_NOT_ACCEPTED","inputs":[]},{"type":"error","name":"REGISTRATION_NOT_ACTIVE","inputs":[]},{"type":"error","name":"RegistryCannotBeZero","inputs":[]},{"type":"error","name":"SupportUnderflow","inputs":[{"name":"_support","type":"uint256","internalType":"uint256"},{"name":"_delta","type":"int256","internalType":"int256"},{"name":"_result","type":"int256","internalType":"int256"}]},{"type":"error","name":"TokenCannotBeZero","inputs":[]},{"type":"error","name":"TokenNotAllowed","inputs":[]},{"type":"error","name":"UNAUTHORIZED","inputs":[]},{"type":"error","name":"UserCannotBeZero","inputs":[]},{"type":"error","name":"UserIsInactive","inputs":[]},{"type":"error","name":"UserNotInRegistry","inputs":[]},{"type":"error","name":"ZERO_ADDRESS","inputs":[]}],"bytecode":{"object":"0x60c06040526000600b55620000196127106103e8620000b4565b600e553480156200002957600080fd5b5060405162004228380380620042288339810160408190526200004c91620000e0565b604080518082018252600a8152694356537472617465677960b01b6020808301919091526001600160a01b038416608052915183926200008f9183910162000112565b60408051601f19818403018152919052805160209091012060a0525062000162915050565b8082028115828204841417620000da57634e487b7160e01b600052601160045260246000fd5b92915050565b600060208284031215620000f357600080fd5b81516001600160a01b03811681146200010b57600080fd5b9392505050565b600060208083528351808285015260005b81811015620001415785810183015185820160400152820162000123565b506000604082860101526040601f19601f8301168501019250505092915050565b60805160a05161408b6200019d60003960006106000152600081816104ce015281816119a201528181611a350152611c68015261408b6000f3fe6080604052600436106103345760003560e01c806376365af7116101ae578063bcc5b93b116100eb578063e0dd2c381161008f578063edd146cc1161006c578063edd146cc14610a44578063ef2920fc14610a64578063f5b0dfb714610a77578063fc1711f214610a9757005b8063e0dd2c38146109d7578063e33add93146109f7578063eb11af9314610a1757005b8063d1e36232116100c8578063d1e3623214610964578063d7050f0714610979578063dc96ff2d1461098f578063df868ed3146109bf57005b8063bcc5b93b146108e3578063c7f758a814610919578063cbfc1daa1461094f57005b8063a1aab33f11610152578063aba9ffee1161012f578063aba9ffee1461086b578063abdceae114610881578063b2b878d014610896578063b5f620ce146108c357005b8063a1aab33f146107e5578063a47ff7e5146107fb578063a574cea41461083e57005b8063817b1cd21161018b578063817b1cd214610767578063868c57b81461077d578063950559d71461079d578063a0cf0aea146107bd57005b806376365af71461071c578063782aadff14610732578063814516ad1461075257005b80632ed04b2b1161027c5780634d31d087116102205780635db64b99116101fd5780635db64b991461068f5780636003e414146106bc5780636453d9c4146106dc57806369fa25c4146106fc57005b80634d31d0871461063957806354fac9191461065957806359a5db8b1461066f57005b806338fff2d01161025957806338fff2d0146105c7578063406244d8146105dc57806342fda9c7146105f15780634ab4ba421461062457005b80632ed04b2b14610560578063346db8cb14610580578063351d9f96146105a057005b80630f529ba2116102e357806315cc481e116102c057806315cc481e146104bf5780631aa91a9e146105065780632bbe0cae146105265780632dbd6fdd1461053957005b80630f529ba21461046857806311f22ae31461047f57806313845d0e1461049f57005b806305d191751161031157806305d191751461040e5780630a6f0ee9146104325780630c0512e91461045257005b8063013cf08b1461033d57806301ffc9a71461037c578063058aca44146103ee57005b3661033b57005b005b34801561034957600080fd5b5061035d6103583660046131df565b610ab7565b6040516103739a99989796959493929190613286565b60405180910390f35b34801561038857600080fd5b506103de6103973660046132f9565b7fffffffff00000000000000000000000000000000000000000000000000000000167f01ffc9a7000000000000000000000000000000000000000000000000000000001490565b6040519015158152602001610373565b3480156103fa57600080fd5b5061033b610409366004613350565b610bc5565b34801561041a57600080fd5b50610424600e5481565b604051908152602001610373565b34801561043e57600080fd5b5061033b61044d366004613557565b610bff565b34801561045e57600080fd5b50610424600b5481565b34801561047457600080fd5b506104246298968081565b34801561048b57600080fd5b5061033b61049a3660046131df565b610c1f565b3480156104ab57600080fd5b506104246104ba3660046135cf565b610c66565b3480156104cb57600080fd5b507f00000000000000000000000000000000000000000000000000000000000000005b6040516001600160a01b039091168152602001610373565b34801561051257600080fd5b506104246105213660046131df565b610e3d565b6104ee6105343660046135fb565b610ec8565b34801561054557600080fd5b50600f546105539060ff1681565b604051610373919061365d565b34801561056c57600080fd5b5061042461057b3660046135cf565b610eeb565b34801561058c57600080fd5b5061042461059b36600461366b565b610fb5565b3480156105ac57600080fd5b50600a546105ba9060ff1681565b60405161037391906136a7565b3480156105d357600080fd5b50600154610424565b3480156105e857600080fd5b50610424600a81565b3480156105fd57600080fd5b507f0000000000000000000000000000000000000000000000000000000000000000610424565b34801561063057600080fd5b50600254610424565b34801561064557600080fd5b506103de610654366004613350565b61105a565b34801561066557600080fd5b5061042460075481565b34801561067b57600080fd5b5061042461068a3660046131df565b611065565b34801561069b57600080fd5b506104246106aa366004613350565b60056020526000908152604090205481565b3480156106c857600080fd5b506003546104ee906001600160a01b031681565b3480156106e857600080fd5b5061033b6106f7366004613350565b611190565b34801561070857600080fd5b5061033b6107173660046131df565b6112a4565b34801561072857600080fd5b5061042460085481565b34801561073e57600080fd5b5061042461074d3660046135cf565b6112e3565b34801561075e57600080fd5b5061033b6113c5565b34801561077357600080fd5b50610424600c5481565b34801561078957600080fd5b506104246107983660046135cf565b6114cf565b3480156107a957600080fd5b506104246107b83660046131df565b611500565b3480156107c957600080fd5b506104ee73eeeeeeeeeeeeeeeeeeeeeeeeeeeeeeeeeeeeeeee81565b3480156107f157600080fd5b5061042460095481565b34801561080757600080fd5b5060105460115460125460135461081e9392919084565b604080519485526020850193909352918301526060820152608001610373565b34801561084a57600080fd5b5061085e6108593660046131df565b61152a565b60405161037391906136b5565b34801561087757600080fd5b50610424600d5481565b34801561088d57600080fd5b50601054610424565b3480156108a257600080fd5b506108b66108b13660046136c8565b611609565b604051610373919061379d565b3480156108cf57600080fd5b5061033b6108de366004613803565b611624565b3480156108ef57600080fd5b506104246108fe366004613350565b6001600160a01b031660009081526005602052604090205490565b34801561092557600080fd5b506109396109343660046131df565b61162d565b6040516103739a99989796959493929190613820565b34801561095b57600080fd5b50601254610424565b34801561097057600080fd5b5061042461172f565b34801561098557600080fd5b5061042461271081565b34801561099b57600080fd5b506104246109aa3660046131df565b60009081526004602052604090206002015490565b3480156109cb57600080fd5b5060005460ff166103de565b3480156109e357600080fd5b506104246109f2366004613885565b61174a565b348015610a0357600080fd5b5061033b610a123660046138aa565b611778565b348015610a2357600080fd5b50610a37610a32366004613350565b611791565b6040516103739190613960565b348015610a5057600080fd5b5061033b610a5f36600461397a565b61179c565b61033b610a723660046135fb565b6118d9565b348015610a8357600080fd5b5061033b610a923660046131df565b6118f7565b348015610aa357600080fd5b5061033b610ab23660046131df565b611920565b60046020818152600092835260409283902080546001820154600283015460038401549584015460058501546006860154600787015460088801548b51808d01909c52600a890180548d52600b8a018054999d989c979b979a6001600160a01b039788169a968816999790951697939660ff909316959293919291840191610b3e906139c1565b80601f0160208091040260200160405190810160405280929190818152602001828054610b6a906139c1565b8015610bb75780601f10610b8c57610100808354040283529160200191610bb7565b820191906000526020600020905b815481529060010190602001808311610b9a57829003601f168201915b50505050508152505090508a565b33610bcf8161195f565b506003805473ffffffffffffffffffffffffffffffffffffffff19166001600160a01b0392909216919091179055565b610c07611a2a565b610c0f611a75565b610c1a838383611ab1565b505050565b33610c298161195f565b60088290556040518281527f08e39b387d1f739ce0d2553bb31822392e3f67c62c6c0a215120ab4a6841a8ab906020015b60405180910390a15050565b600080600360009054906101000a90046001600160a01b03166001600160a01b03166378a0b8a96040518163ffffffff1660e01b8152600401602060405180830381865afa158015610cbc573d6000803e3d6000fd5b505050506040513d601f19601f82011682018060405250810190610ce091906139f5565b6003546040516316308e2560e11b81526001600160a01b03878116600483015286921690632c611c4a90602401602060405180830381865afa158015610d2a573d6000803e3d6000fd5b505050506040513d601f19601f82011682018060405250810190610d4e91906139f5565b610d589190613a24565b610d629190613a37565b90506000620186a0610d9560106003015484610d7e9190613a4a565b610d9090670de0b6b3a7640000613a6c565b611d77565b610d9f9190613a4a565b600354604051637817ee4f60e01b81526001600160a01b03888116600483015230602483015292935060009290911690637817ee4f90604401602060405180830381865afa158015610df5573d6000803e3d6000fd5b505050506040513d601f19601f82011682018060405250810190610e1991906139f5565b601254610e27908490613a24565b610e319190613a37565b93505050505b92915050565b600081815260046020526040812080548314610e745760405163c1d17bef60e01b8152600481018490526024015b60405180910390fd5b6001600882015460ff166004811115610e8f57610e8f6131f8565b14610eb0576040516344980d8f60e01b815260048101849052602401610e6b565b610ebe818260020154611de7565b6003015492915050565b6000610ed2611a2a565b610eda611a75565b610ee48383611e42565b9050610e37565b6000806002600f5460ff166003811115610f0757610f076131f8565b1480610f2957506001600f5460ff166003811115610f2757610f276131f8565b145b15610f3f57610f3884846121b5565b9050610f4c565b610f4984846121c5565b90505b80600d6000828254610f5e9190613a37565b9091555050604080516001600160a01b0386168152602081018590529081018290527f70b752f3fadb6ac131c0ece847fcbb6994ec56ed6411595710fd9b29c6ac6cc1906060015b60405180910390a19392505050565b6000808490506000610fdb629896806080600754901b610fd59190613a4a565b8361235e565b905060806f80000000000000000000000000000000600754629896806110019190613a37565b61100f84600160801b613a37565b61101c6298968089613a6c565b6110269190613a6c565b6110309190613a4a565b61103a8885613a6c565b6110449190613a24565b61104e9190613a24565b901c9695505050505050565b6000610e3782612407565b600080600254116110a2576040517fed4421ad00000000000000000000000000000000000000000000000000000000815260040160405180910390fd5b6002546110ae83612427565b156110cc57604051630efd728560e21b815260040160405180910390fd5b6000816110e28568010000000000000000613a6c565b6110ec9190613a4a565b62989680600854680100000000000000006111079190613a6c565b6111119190613a4a565b61111b9190613a37565b9050604061112761172f565b6007546111379062989680613a37565b6298968060406111478680613a6c565b901c629896806080600954901b61115e9190613a4a565b6111689190613a4a565b6111729190613a6c565b61117c9190613a4a565b6111869190613a6c565b901c949350505050565b600354604051637817ee4f60e01b81526001600160a01b03838116600483015230602483015290911690637817ee4f90604401602060405180830381865afa1580156111e0573d6000803e3d6000fd5b505050506040513d601f19601f8201168201806040525081019061120491906139f5565b600d60008282546112159190613a37565b90915550506003546040517f22bcf9990000000000000000000000000000000000000000000000000000000081526001600160a01b038381166004830152306024830152909116906322bcf99990604401600060405180830381600087803b15801561128057600080fd5b505af1158015611294573d6000803e3d6000fd5b505050506112a181612453565b50565b336112ae8161195f565b60078290556040518281527f592dcd55d60d892e7fcb3ba105013312e99691cd59f91e15f83cb67cb5a505f290602001610c5a565b6000806002600f5460ff1660038111156112ff576112ff6131f8565b036113145761130d8361257e565b9050611367565b6001600f5460ff16600381111561132d5761132d6131f8565b0361133c5761130d84846125a4565b6003600f5460ff166003811115611355576113556131f8565b03611367576113648484610c66565b90505b80600d60008282546113799190613a24565b9091555050604080516001600160a01b0386168152602081018590529081018290527f0b9150e1e54346ed3fa36b977cd5d65dca5a649c737c3174a26bddaadd47667a90606001610fa6565b6003546040517f0d4a8b490000000000000000000000000000000000000000000000000000000081523360048201819052306024830152916001600160a01b031690630d4a8b4990604401600060405180830381600087803b15801561142a57600080fd5b505af115801561143e573d6000803e3d6000fd5b5050600354604051637817ee4f60e01b81526001600160a01b0385811660048301523060248301529091169250637817ee4f9150604401602060405180830381865afa158015611492573d6000803e3d6000fd5b505050506040513d601f19601f820116820180604052508101906114b691906139f5565b600d60008282546114c79190613a24565b909155505050565b600660205281600052604060002081815481106114eb57600080fd5b90600052602060002001600091509150505481565b6000600754629896806115139190613a37565b6115206298968084613a6c565b610e379190613a4a565b604080518082019091526000815260606020820152600060046000848152602001908152602001600020905080600a016040518060400160405290816000820154815260200160018201805461157f906139c1565b80601f01602080910402602001604051908101604052809291908181526020018280546115ab906139c1565b80156115f85780601f106115cd576101008083540402835291602001916115f8565b820191906000526020600020905b8154815290600101906020018083116115db57829003601f168201915b505050505081525050915050919050565b606060405163d623472560e01b815260040160405180910390fd5b6112a181612674565b6000806000806000806000806000806000600460008d8152602001908152602001600020905080600101546000146116715761166c8160010154611065565b611674565b60005b92508060050160009054906101000a90046001600160a01b03168160040160009054906101000a90046001600160a01b03168260060160009054906101000a90046001600160a01b0316836001015484600201548560080160009054906101000a900460ff16866007015487600301548a896009016000336001600160a01b03166001600160a01b03168152602001908152602001600020549a509a509a509a509a509a509a509a509a509a50509193959799509193959799565b6000600e54600d54116117435750600e5490565b50600d5490565b60008281526004602090815260408083206001600160a01b03851684526009019091528120545b9392505050565b60405163d623472560e01b815260040160405180910390fd5b6000610e37826126bc565b6117a5826126dc565b6000818060200190518101906117bb9190613af8565b80519091506001600160a01b03166117e657604051635df4b1ef60e01b815260040160405180910390fd5b80516003805473ffffffffffffffffffffffffffffffffffffffff19166001600160a01b039092169190911790556020810151600755604081015160085560608101516009556080810151600a805460ff1916600183600281111561184d5761184d6131f8565b021790555060a0810151600f805460ff19166001836003811115611873576118736131f8565b021790555060c081015180516010556020810151601155604080820151601255606090910151601355517f76164f4c577324c2cac6dbb73d6b99b5c05b6894d54aa69bd565b68f9e13bdcf906118cc9085908490613b81565b60405180910390a1505050565b6118e1611a2a565b6118e9611a75565b6118f3828261275d565b5050565b6118ff611a2a565b80600260008282546119119190613a24565b909155506112a190508161285f565b3361192a8161195f565b60098290556040518281527f30ee8206062f283e56a0af2b02138016bf7442ded26ad68a92a18a9dd246fb4990602001610c5a565b6001546040517f29e40d4b00000000000000000000000000000000000000000000000000000000815260048101919091526001600160a01b0382811660248301527f000000000000000000000000000000000000000000000000000000000000000016906329e40d4b90604401602060405180830381865afa1580156119e9573d6000803e3d6000fd5b505050506040513d601f19601f82011682018060405250810190611a0d9190613c15565b6112a15760405163075fd2b160e01b815260040160405180910390fd5b336001600160a01b037f00000000000000000000000000000000000000000000000000000000000000001614611a735760405163075fd2b160e01b815260040160405180910390fd5b565b600154600003611a73576040517f3da3f98c00000000000000000000000000000000000000000000000000000000815260040160405180910390fd5b6000825111611aec576040517fc5f7c4c000000000000000000000000000000000000000000000000000000000815260040160405180910390fd5b600082806020019051810190611b0291906139f5565b905080600003611b3e576040517ff881a10d00000000000000000000000000000000000000000000000000000000815260040160405180910390fd5b60008181526004602052604090206001600a5460ff166002811115611b6557611b656131f8565b03611d705780548214611b8e5760405163c1d17bef60e01b815260048101839052602401610e6b565b6001600882015460ff166004811115611ba957611ba96131f8565b14611bca576040516344980d8f60e01b815260048101839052602401610e6b565b6000611bd583610e3d565b90506000611be68360010154611065565b90508082108015611bfb575060008360010154115b15611c32576040517fcce7930800000000000000000000000000000000000000000000000000000000815260040160405180910390fd5b6001546040517f068bcd8d0000000000000000000000000000000000000000000000000000000081526000916001600160a01b037f0000000000000000000000000000000000000000000000000000000000000000169163068bcd8d91611c9f9160040190815260200190565b600060405180830381865afa158015611cbc573d6000803e3d6000fd5b505050506040513d6000823e601f3d908101601f19168201604052611ce49190810190613cbf565b604081015160048601546001870154929350611d0b926001600160a01b039091169061288f565b60088401805460ff191660049081179091558401546001850154604080518881526001600160a01b0390931660208401528201527fa7932e9c92f31e1ed56b29d00bbe669a97484dc24de28dd9c8c0429df7f358479060600160405180910390a15050505b5050505050565b60006003821115611dd85750806000611d91600283613a4a565b611d9c906001613a24565b90505b81811015611dd257905080600281611db78186613a4a565b611dc19190613a24565b611dcb9190613a4a565b9050611d9f565b50919050565b8115611de2575060015b919050565b60078201544390811015611dfd57611dfd613d73565b80836007015403611e0d57505050565b6000611e2d846007015483611e229190613a37565b856003015485610fb5565b60078501929092555060039092019190915550565b60008083806020019051810190611e599190613d89565b8051909150600003611e97576040517f4e79178600000000000000000000000000000000000000000000000000000000815260040160405180910390fd5b6001600a5460ff166002811115611eb057611eb06131f8565b036120975760208101516001600160a01b0316611ef9576040517fe622e04000000000000000000000000000000000000000000000000000000000815260040160405180910390fd5b60608101516001600160a01b0316611f3d576040517f596a094c00000000000000000000000000000000000000000000000000000000815260040160405180910390fd5b6000306001600160a01b03166315cc481e6040518163ffffffff1660e01b8152600401602060405180830381865afa158015611f7d573d6000803e3d6000fd5b505050506040513d601f19601f82011682018060405250810190611fa19190613e30565b6001600160a01b031663068bcd8d6001546040518263ffffffff1660e01b8152600401611fd091815260200190565b600060405180830381865afa158015611fed573d6000803e3d6000fd5b505050506040513d6000823e601f3d908101601f191682016040526120159190810190613cbf565b604001519050806001600160a01b031682606001516001600160a01b03161461206a576040517fa29c498600000000000000000000000000000000000000000000000000000000815260040160405180910390fd5b6120778260400151612427565b1561209557604051630efd728560e21b815260040160405180910390fd5b505b6000600b600081546120a890613e4d565b9182905550600081815260046020818152604080842085815560058101805473ffffffffffffffffffffffffffffffffffffffff199081166001600160a01b038d811691909117909255898501519583018054821696831696909617909555606089015160068301805490961691161790935586015160018084019190915560088301805460ff19169091179055436007830155600382019290925560808501518051600a8301908155928101519394509092909190600b84019061216d9082613eb4565b505060015460408051918252602082018590527ffcf3b1aa65a464cef2889608f99e8b8c0f680a4be6c2acb9d961c536a5a9294b92500160405180910390a150949350505050565b6010546000906117719083613a6c565b600080601060030154600360009054906101000a90046001600160a01b03166001600160a01b03166378a0b8a96040518163ffffffff1660e01b8152600401602060405180830381865afa158015612221573d6000803e3d6000fd5b505050506040513d601f19601f8201168201806040525081019061224591906139f5565b6003546040516316308e2560e11b81526001600160a01b03888116600483015287921690632c611c4a90602401602060405180830381865afa15801561228f573d6000803e3d6000fd5b505050506040513d601f19601f820116820180604052508101906122b391906139f5565b6122bd9190613a37565b6122c79190613a37565b6122d19190613a4a565b600354604051637817ee4f60e01b81526001600160a01b03878116600483015230602483015292935060009290911690637817ee4f90604401602060405180830381865afa158015612327573d6000803e3d6000fd5b505050506040513d601f19601f8201168201806040525081019061234b91906139f5565b6123559083613a37565b95945050505050565b6000600160801b83106123b35760405162461bcd60e51b815260206004820152601c60248201527f5f612073686f756c64206265206c657373207468616e20325e313238000000006044820152606401610e6b565b50600160801b82825b80156123ff57806001166000036123e1576123d782836128d4565b915060011c6123bc565b6123eb83836128d4565b92506123f8600182613a37565b90506123bc565b505092915050565b60006001600160a01b0382161561241f576001610e37565b600092915050565b60006124366298968083613a6c565b6002546008546124469190613a6c565b1161241f57506001919050565b6001600160a01b0381166000908152600660209081526040808320805482518185028101850190935280835291929091908301828280156124b357602002820191906000526020600020905b81548152602001906001019080831161249f575b5050505050905060005b8151811015610c1a5760008282815181106124da576124da613f74565b602002602001015190506000600460008381526020019081526020016000209050612504826129d3565b15612569576001600160a01b038516600090815260098201602052604081208054908290556002830180549192839261253e908490613a37565b9250508190555080600c60008282546125579190613a37565b9091555061256790508282611de7565b505b5050808061257690613e4d565b9150506124bd565b60105460009081906125909084613a6c565b9050611771670de0b6b3a764000082613a4a565b600080670de0b6b3a7640000601060000154846125c19190613a6c565b6125cb9190613a4a565b600354604051637817ee4f60e01b81526001600160a01b03878116600483015230602483015292935060009290911690637817ee4f90604401602060405180830381865afa158015612621573d6000803e3d6000fd5b505050506040513d601f19601f8201168201806040525081019061264591906139f5565b6011549091506126558383613a24565b111561266c57601154612669908290613a37565b91505b509392505050565b6000805460ff19168215159081179091556040519081527fd94c9bc4d43c51d8dc345a016d8e3d994432fac68e72832e4cf3a616bd8efae0906020015b60405180910390a150565b60006001600160a01b038216156126d4576002610e37565b600392915050565b6126e4611a2a565b6001541561271e576040517f439a74c900000000000000000000000000000000000000000000000000000000815260040160405180910390fd5b80600003612758576040517f7fcce2a900000000000000000000000000000000000000000000000000000000815260040160405180910390fd5b600155565b61276681612a0c565b6003546040517f477a5cc00000000000000000000000000000000000000000000000000000000081526001600160a01b038381166004830152306024830152600092169063477a5cc090604401602060405180830381865afa1580156127d0573d6000803e3d6000fd5b505050506040513d601f19601f820116820180604052508101906127f49190613c15565b90508061282d576040517f5fccb67f00000000000000000000000000000000000000000000000000000000815260040160405180910390fd5b6000838060200190518101906128439190613f8a565b905061284f8382612b32565b6128598382612cf5565b50505050565b6040518181527f46aeb5d8770fc4474bc2dfa118fd2595f7fb33ce2cbce6f4e5a3dabfe0f76339906020016126b1565b7fffffffffffffffffffffffff11111111111111111111111111111111111111126001600160a01b038416016128c957610c1a8282613119565b610c1a838383613135565b6000600160801b8311156129505760405162461bcd60e51b815260206004820152602860248201527f5f612073686f756c64206265206c657373207468616e206f7220657175616c2060448201527f746f20325e3132380000000000000000000000000000000000000000000000006064820152608401610e6b565b600160801b82106129a35760405162461bcd60e51b815260206004820152601c60248201527f5f622073686f756c64206265206c657373207468616e20325e313238000000006044820152606401610e6b565b60806f800000000000000000000000000000006129c08486613a6c565b6129ca9190613a24565b901c9392505050565b60008181526004602052604081205415801590610e375750506000908152600460205260409020600501546001600160a01b0316151590565b6001600160a01b038116612a4c576040517fd1f2828800000000000000000000000000000000000000000000000000000000815260040160405180910390fd5b6003546001600160a01b0316612a7557604051635df4b1ef60e01b815260040160405180910390fd5b6003546040517fa230c5240000000000000000000000000000000000000000000000000000000081526001600160a01b0383811660048301529091169063a230c52490602401602060405180830381865afa158015612ad8573d6000803e3d6000fd5b505050506040513d601f19601f82011682018060405250810190612afc9190613c15565b6112a1576040517f6a5cfb6d00000000000000000000000000000000000000000000000000000000815260040160405180910390fd5b6000805b8251811015612bef57828181518110612b5157612b51613f74565b60200260200101516000015160000315612bdd576000838281518110612b7957612b79613f74565b6020026020010151600001519050612b90816129d3565b612bb05760405163c1d17bef60e01b815260048101829052602401610e6b565b838281518110612bc257612bc2613f74565b60200260200101516020015183612bd99190614035565b9250505b80612be781613e4d565b915050612b36565b506001600160a01b038316600090815260056020526040812054612c139083613184565b600354604051637817ee4f60e01b81526001600160a01b03878116600483015230602483015292935060009290911690637817ee4f90604401602060405180830381865afa158015612c69573d6000803e3d6000fd5b505050506040513d601f19601f82011682018060405250810190612c8d91906139f5565b905080821115612cd3576040517fd64182fe0000000000000000000000000000000000000000000000000000000081526004810183905260248101829052604401610e6b565b506001600160a01b039093166000908152600560205260409020929092555050565b606060005b8251811015612859576000838281518110612d1757612d17613f74565b60200260200101516000015190508251600003612d735760408051600180825281830190925290602080830190803683370190505092508083600081518110612d6257612d62613f74565b602002602001018181525050612ec6565b6000805b8451811015612df25782858281518110612d9357612d93613f74565b602002602001015103612de0576040517fadebb154000000000000000000000000000000000000000000000000000000008152600481018490526024810182905260019250604401610e6b565b80612dea81613e4d565b915050612d77565b5080612ec457600084516001612e089190613a24565b67ffffffffffffffff811115612e2057612e2061336d565b604051908082528060200260200182016040528015612e49578160200160208202803683370190505b50905060005b8551811015612ea157858181518110612e6a57612e6a613f74565b6020026020010151828281518110612e8457612e84613f74565b602090810291909101015280612e9981613e4d565b915050612e4f565b508281865181518110612eb657612eb6613f74565b602090810291909101015293505b505b6000848381518110612eda57612eda613f74565b60209081029190910181015181015160008481526004835260408082206001600160a01b038b16835260098101909452812054919350612f1a8285613184565b6001600160a01b038a1660009081526009850160205260408120829055909150805b6001600160a01b038b16600090815260066020526040902054811015612fb35784546001600160a01b038c166000908152600660205260409020805483908110612f8857612f88613f74565b906000526020600020015403612fa15760019150612fb3565b80612fab81613e4d565b915050612f3c565b5080612fe9576001600160a01b038a16600090815260066020908152604082208654815460018101835591845291909220909101555b81831161303957612ffa8383613a37565b600c600082825461300b9190613a24565b9091555061301b90508383613a37565b84600201600082825461302e9190613a24565b9091555061307d9050565b6130438284613a37565b600c60008282546130549190613a37565b9091555061306490508284613a37565b8460020160008282546130779190613a37565b90915550505b836007015460000361309457436007850155613100565b61309e8484611de7565b60028401546003850154604080516001600160a01b038e168152602081018a9052908101859052606081019290925260808201527f0227f642ddcf2042ceaeafadb9d540f432072c00cd4862881667168dcc14710f9060a00160405180910390a15b505050505050808061311190613e4d565b915050612cfa565b60008060008084865af16118f35763b12d13eb6000526004601cfd5b81601452806034526fa9059cbb00000000000000000000000060005260206000604460106000875af13d15600160005114171661317a576390b8ec186000526004601cfd5b6000603452505050565b6000806131918385614035565b90506000811215611771576040517f3bbc7142000000000000000000000000000000000000000000000000000000008152600481018590526024810184905260448101829052606401610e6b565b6000602082840312156131f157600080fd5b5035919050565b634e487b7160e01b600052602160045260246000fd5b6005811061321e5761321e6131f8565b9052565b60005b8381101561323d578181015183820152602001613225565b50506000910152565b8051825260006020820151604060208501528051806040860152613271816060870160208501613222565b601f01601f1916939093016060019392505050565b60006101408c83528b60208401528a60408401528960608401526001600160a01b03808a16608085015280891660a085015280881660c0850152508560e08401526132d561010084018661320e565b806101208401526132e881840185613246565b9d9c50505050505050505050505050565b60006020828403121561330b57600080fd5b81357fffffffff000000000000000000000000000000000000000000000000000000008116811461177157600080fd5b6001600160a01b03811681146112a157600080fd5b60006020828403121561336257600080fd5b81356117718161333b565b634e487b7160e01b600052604160045260246000fd5b6040805190810167ffffffffffffffff811182821017156133a6576133a661336d565b60405290565b60405160e0810167ffffffffffffffff811182821017156133a6576133a661336d565b60405160c0810167ffffffffffffffff811182821017156133a6576133a661336d565b60405160a0810167ffffffffffffffff811182821017156133a6576133a661336d565b604051601f8201601f1916810167ffffffffffffffff8111828210171561343e5761343e61336d565b604052919050565b600067ffffffffffffffff8211156134605761346061336d565b5060051b60200190565b600082601f83011261347b57600080fd5b8135602061349061348b83613446565b613415565b82815260059290921b840181019181810190868411156134af57600080fd5b8286015b848110156134d35780356134c68161333b565b83529183019183016134b3565b509695505050505050565b600067ffffffffffffffff8211156134f8576134f861336d565b50601f01601f191660200190565b600082601f83011261351757600080fd5b813561352561348b826134de565b81815284602083860101111561353a57600080fd5b816020850160208301376000918101602001919091529392505050565b60008060006060848603121561356c57600080fd5b833567ffffffffffffffff8082111561358457600080fd5b6135908783880161346a565b945060208601359150808211156135a657600080fd5b506135b386828701613506565b92505060408401356135c48161333b565b809150509250925092565b600080604083850312156135e257600080fd5b82356135ed8161333b565b946020939093013593505050565b6000806040838503121561360e57600080fd5b823567ffffffffffffffff81111561362557600080fd5b61363185828601613506565b92505060208301356136428161333b565b809150509250929050565b6004811061321e5761321e6131f8565b60208101610e37828461364d565b60008060006060848603121561368057600080fd5b505081359360208301359350604090920135919050565b6003811061321e5761321e6131f8565b60208101610e378284613697565b6020815260006117716020830184613246565b600080604083850312156136db57600080fd5b823567ffffffffffffffff808211156136f357600080fd5b6136ff8683870161346a565b935060209150818501358181111561371657600080fd5b8501601f8101871361372757600080fd5b803561373561348b82613446565b81815260059190911b8201840190848101908983111561375457600080fd5b8584015b8381101561378c578035868111156137705760008081fd5b61377e8c8983890101613506565b845250918601918601613758565b508096505050505050509250929050565b602080825282518282018190526000919060409081850190868401855b828110156137e857815180516001600160a01b031685528601518685015292840192908501906001016137ba565b5091979650505050505050565b80151581146112a157600080fd5b60006020828403121561381557600080fd5b8135611771816137f5565b6001600160a01b038b811682528a81166020830152891660408201526060810188905260808101879052610140810161385c60a083018861320e565b8560c08301528460e083015283610100830152826101208301529b9a5050505050505050505050565b6000806040838503121561389857600080fd5b8235915060208301356136428161333b565b600060208083850312156138bd57600080fd5b823567ffffffffffffffff8111156138d457600080fd5b8301601f810185136138e557600080fd5b80356138f361348b82613446565b81815260069190911b8201830190838101908783111561391257600080fd5b928401925b8284101561395557604084890312156139305760008081fd5b613938613383565b843581528585013586820152825260409093019290840190613917565b979650505050505050565b6020810160078310613974576139746131f8565b91905290565b6000806040838503121561398d57600080fd5b82359150602083013567ffffffffffffffff8111156139ab57600080fd5b6139b785828601613506565b9150509250929050565b600181811c908216806139d557607f821691505b602082108103611dd257634e487b7160e01b600052602260045260246000fd5b600060208284031215613a0757600080fd5b5051919050565b634e487b7160e01b600052601160045260246000fd5b80820180821115610e3757610e37613a0e565b81810381811115610e3757610e37613a0e565b600082613a6757634e487b7160e01b600052601260045260246000fd5b500490565b8082028115828204841417610e3757610e37613a0e565b805160048110611de257600080fd5b600060808284031215613aa457600080fd5b6040516080810181811067ffffffffffffffff82111715613ac757613ac761336d565b8060405250809150825181526020830151602082015260408301516040820152606083015160608201525092915050565b60006101408284031215613b0b57600080fd5b613b136133ac565b8251613b1e8161333b565b80825250602083015160208201526040830151604082015260608301516060820152608083015160038110613b5257600080fd5b6080820152613b6360a08401613a83565b60a0820152613b758460c08501613a92565b60c08201529392505050565b6000610160820190508382526001600160a01b0383511660208301526020830151604083015260408301516060830152606083015160808301526080830151613bcd60a0840182613697565b5060a0830151613be060c084018261364d565b5060c09290920151805160e0830152602081015161010083015260408101516101208301526060015161014090910152919050565b600060208284031215613c2757600080fd5b8151611771816137f5565b600060408284031215613c4457600080fd5b613c4c613383565b905081518152602082015167ffffffffffffffff811115613c6c57600080fd5b8201601f81018413613c7d57600080fd5b8051613c8b61348b826134de565b818152856020838501011115613ca057600080fd5b613cb1826020830160208601613222565b602084015250909392505050565b600060208284031215613cd157600080fd5b815167ffffffffffffffff80821115613ce957600080fd5b9083019060c08286031215613cfd57600080fd5b613d056133cf565b825181526020830151613d178161333b565b60208201526040830151613d2a8161333b565b6040820152606083015182811115613d4157600080fd5b613d4d87828601613c32565b6060830152506080830151608082015260a083015160a082015280935050505092915050565b634e487b7160e01b600052600160045260246000fd5b600060208284031215613d9b57600080fd5b815167ffffffffffffffff80821115613db357600080fd5b9083019060a08286031215613dc757600080fd5b613dcf6133f2565b825181526020830151613de18161333b565b6020820152604083810151908201526060830151613dfe8161333b565b6060820152608083015182811115613e1557600080fd5b613e2187828601613c32565b60808301525095945050505050565b600060208284031215613e4257600080fd5b81516117718161333b565b600060018201613e5f57613e5f613a0e565b5060010190565b601f821115610c1a57600081815260208120601f850160051c81016020861015613e8d5750805b601f850160051c820191505b81811015613eac57828155600101613e99565b505050505050565b815167ffffffffffffffff811115613ece57613ece61336d565b613ee281613edc84546139c1565b84613e66565b602080601f831160018114613f175760008415613eff5750858301515b600019600386901b1c1916600185901b178555613eac565b600085815260208120601f198616915b82811015613f4657888601518255948401946001909101908401613f27565b5085821015613f645787850151600019600388901b60f8161c191681555b5050505050600190811b01905550565b634e487b7160e01b600052603260045260246000fd5b60006020808385031215613f9d57600080fd5b825167ffffffffffffffff811115613fb457600080fd5b8301601f81018513613fc557600080fd5b8051613fd361348b82613446565b81815260069190911b82018301908381019087831115613ff257600080fd5b928401925b8284101561395557604084890312156140105760008081fd5b614018613383565b845181528585015186820152825260409093019290840190613ff7565b80820182811260008312801582168215821617156123ff576123ff613a0e56fea264697066735822122045799e0efc0d478ce1b86d6e6cca80f472efe5c705f527623f80bcfadedb878a64736f6c63430008130033","linkReferences":{}},"methodIdentifiers":{"D()":"0f529ba2","MAX_STAKED_PROPOSALS()":"406244d8","NATIVE()":"a0cf0aea","PRECISION_SCALE()":"d7050f07","activatePoints()":"814516ad","allocate(bytes,address)":"ef2920fc","calculateConviction(uint256,uint256,uint256)":"346db8cb","calculateThreshold(uint256)":"59a5db8b","deactivatePoints(address)":"6453d9c4","decay()":"54fac919","decreasePower(address,uint256)":"2ed04b2b","distribute(address[],bytes,address)":"0a6f0ee9","getAllo()":"15cc481e","getMaxConviction(uint256)":"950559d7","getMetadata(uint256)":"a574cea4","getPayouts(address[],bytes[])":"b2b878d0","getPointsPerMember()":"cbfc1daa","getPointsPerTokenStaked()":"abdceae1","getPoolAmount()":"4ab4ba42","getPoolId()":"38fff2d0","getProposal(uint256)":"c7f758a8","getProposalStakedAmount(uint256)":"dc96ff2d","getProposalVoterStake(uint256,address)":"e0dd2c38","getRecipientStatus(address)":"eb11af93","getStrategyId()":"42fda9c7","getTotalVoterStakePct(address)":"bcc5b93b","increasePoolAmount(uint256)":"f5b0dfb7","increasePower(address,uint256)":"782aadff","increasePowerQuadratic(address,uint256)":"13845d0e","initialize(uint256,bytes)":"edd146cc","isPoolActive()":"df868ed3","isValidAllocator(address)":"4d31d087","maxRatio()":"76365af7","minPointsActivated()":"05d19175","pointConfig()":"a47ff7e5","pointSystem()":"2dbd6fdd","proposalCounter()":"0c0512e9","proposalType()":"351d9f96","proposals(uint256)":"013cf08b","registerRecipient(bytes,address)":"2bbe0cae","registryCommunity()":"6003e414","setDecay(uint256)":"69fa25c4","setMaxRatio(uint256)":"11f22ae3","setPoolActive(bool)":"b5f620ce","setRegistryCommunity(address)":"058aca44","setWeight(uint256)":"fc1711f2","supportProposal((uint256,int256)[])":"e33add93","supportsInterface(bytes4)":"01ffc9a7","totalEffectiveActivePoints()":"d1e36232","totalPointsActivated()":"aba9ffee","totalStaked()":"817b1cd2","totalVoterStakePct(address)":"5db64b99","updateProposalConviction(uint256)":"1aa91a9e","voterStakedProposals(address,uint256)":"868c57b8","weight()":"a1aab33f"},"id":97}