{"abi":[{"type":"constructor","inputs":[{"name":"_allo","type":"address","internalType":"address"}],"stateMutability":"nonpayable"},{"type":"fallback","stateMutability":"payable"},{"type":"receive","stateMutability":"payable"},{"type":"function","name":"D","inputs":[],"outputs":[{"name":"","type":"uint256","internalType":"uint256"}],"stateMutability":"view"},{"type":"function","name":"MAX_STAKED_PROPOSALS","inputs":[],"outputs":[{"name":"","type":"uint256","internalType":"uint256"}],"stateMutability":"view"},{"type":"function","name":"NATIVE","inputs":[],"outputs":[{"name":"","type":"address","internalType":"address"}],"stateMutability":"view"},{"type":"function","name":"RULING_OPTIONS","inputs":[],"outputs":[{"name":"","type":"uint256","internalType":"uint256"}],"stateMutability":"view"},{"type":"function","name":"_minThresholdPoints","inputs":[],"outputs":[{"name":"","type":"uint256","internalType":"uint256"}],"stateMutability":"view"},{"type":"function","name":"activatePoints","inputs":[],"outputs":[],"stateMutability":"nonpayable"},{"type":"function","name":"allocate","inputs":[{"name":"_data","type":"bytes","internalType":"bytes"},{"name":"_sender","type":"address","internalType":"address"}],"outputs":[],"stateMutability":"payable"},{"type":"function","name":"arbitrableConfig","inputs":[],"outputs":[{"name":"arbitrator","type":"address","internalType":"contract IArbitrator"},{"name":"tribunalSafe","type":"address","internalType":"address"},{"name":"collateralAmount","type":"uint256","internalType":"uint256"},{"name":"defaultRuling","type":"uint256","internalType":"uint256"},{"name":"defaultRulingTimeout","type":"uint256","internalType":"uint256"},{"name":"collateralVaultTemplate","type":"address","internalType":"address"}],"stateMutability":"view"},{"type":"function","name":"calculateConviction","inputs":[{"name":"_timePassed","type":"uint256","internalType":"uint256"},{"name":"_lastConv","type":"uint256","internalType":"uint256"},{"name":"_oldAmount","type":"uint256","internalType":"uint256"}],"outputs":[{"name":"","type":"uint256","internalType":"uint256"}],"stateMutability":"view"},{"type":"function","name":"calculateThreshold","inputs":[{"name":"_requestedAmount","type":"uint256","internalType":"uint256"}],"outputs":[{"name":"_threshold","type":"uint256","internalType":"uint256"}],"stateMutability":"view"},{"type":"function","name":"canExecuteProposal","inputs":[{"name":"proposalId","type":"uint256","internalType":"uint256"}],"outputs":[{"name":"canBeExecuted","type":"bool","internalType":"bool"}],"stateMutability":"view"},{"type":"function","name":"cloneNonce","inputs":[],"outputs":[{"name":"","type":"uint256","internalType":"uint256"}],"stateMutability":"view"},{"type":"function","name":"collateralVault","inputs":[],"outputs":[{"name":"","type":"address","internalType":"address"}],"stateMutability":"view"},{"type":"function","name":"deactivatePoints","inputs":[],"outputs":[],"stateMutability":"nonpayable"},{"type":"function","name":"deactivatePoints","inputs":[{"name":"_member","type":"address","internalType":"address"}],"outputs":[],"stateMutability":"nonpayable"},{"type":"function","name":"decay","inputs":[],"outputs":[{"name":"","type":"uint256","internalType":"uint256"}],"stateMutability":"view"},{"type":"function","name":"decreasePower","inputs":[{"name":"_member","type":"address","internalType":"address"},{"name":"_amountToUnstake","type":"uint256","internalType":"uint256"}],"outputs":[{"name":"","type":"uint256","internalType":"uint256"}],"stateMutability":"nonpayable"},{"type":"function","name":"disputeIdToProposalId","inputs":[{"name":"","type":"uint256","internalType":"uint256"}],"outputs":[{"name":"","type":"uint256","internalType":"uint256"}],"stateMutability":"view"},{"type":"function","name":"disputeProposal","inputs":[{"name":"proposalId","type":"uint256","internalType":"uint256"},{"name":"context","type":"string","internalType":"string"},{"name":"_extraData","type":"bytes","internalType":"bytes"}],"outputs":[],"stateMutability":"payable"},{"type":"function","name":"distribute","inputs":[{"name":"_recipientIds","type":"address[]","internalType":"address[]"},{"name":"_data","type":"bytes","internalType":"bytes"},{"name":"_sender","type":"address","internalType":"address"}],"outputs":[],"stateMutability":"nonpayable"},{"type":"function","name":"getAllo","inputs":[],"outputs":[{"name":"","type":"address","internalType":"contract IAllo"}],"stateMutability":"view"},{"type":"function","name":"getCollateralVault","inputs":[],"outputs":[{"name":"","type":"address","internalType":"address"}],"stateMutability":"view"},{"type":"function","name":"getMaxAmount","inputs":[],"outputs":[{"name":"","type":"uint256","internalType":"uint256"}],"stateMutability":"view"},{"type":"function","name":"getMaxConviction","inputs":[{"name":"amount","type":"uint256","internalType":"uint256"}],"outputs":[{"name":"","type":"uint256","internalType":"uint256"}],"stateMutability":"view"},{"type":"function","name":"getMetadata","inputs":[{"name":"_proposalId","type":"uint256","internalType":"uint256"}],"outputs":[{"name":"","type":"tuple","internalType":"struct Metadata","components":[{"name":"protocol","type":"uint256","internalType":"uint256"},{"name":"pointer","type":"string","internalType":"string"}]}],"stateMutability":"view"},{"type":"function","name":"getPayouts","inputs":[{"name":"","type":"address[]","internalType":"address[]"},{"name":"","type":"bytes[]","internalType":"bytes[]"}],"outputs":[{"name":"","type":"tuple[]","internalType":"struct IStrategy.PayoutSummary[]","components":[{"name":"recipientAddress","type":"address","internalType":"address"},{"name":"amount","type":"uint256","internalType":"uint256"}]}],"stateMutability":"pure"},{"type":"function","name":"getPointSystem","inputs":[],"outputs":[{"name":"","type":"uint8","internalType":"enum StrategyStruct.PointSystem"}],"stateMutability":"view"},{"type":"function","name":"getPoolAmount","inputs":[],"outputs":[{"name":"","type":"uint256","internalType":"uint256"}],"stateMutability":"view"},{"type":"function","name":"getPoolId","inputs":[],"outputs":[{"name":"","type":"uint256","internalType":"uint256"}],"stateMutability":"view"},{"type":"function","name":"getProposal","inputs":[{"name":"_proposalId","type":"uint256","internalType":"uint256"}],"outputs":[{"name":"submitter","type":"address","internalType":"address"},{"name":"beneficiary","type":"address","internalType":"address"},{"name":"requestedToken","type":"address","internalType":"address"},{"name":"requestedAmount","type":"uint256","internalType":"uint256"},{"name":"stakedAmount","type":"uint256","internalType":"uint256"},{"name":"proposalStatus","type":"uint8","internalType":"enum StrategyStruct.ProposalStatus"},{"name":"blockLast","type":"uint256","internalType":"uint256"},{"name":"convictionLast","type":"uint256","internalType":"uint256"},{"name":"threshold","type":"uint256","internalType":"uint256"},{"name":"voterStakedPoints","type":"uint256","internalType":"uint256"}],"stateMutability":"view"},{"type":"function","name":"getProposalStakedAmount","inputs":[{"name":"_proposalId","type":"uint256","internalType":"uint256"}],"outputs":[{"name":"","type":"uint256","internalType":"uint256"}],"stateMutability":"view"},{"type":"function","name":"getProposalVoterStake","inputs":[{"name":"_proposalId","type":"uint256","internalType":"uint256"},{"name":"_voter","type":"address","internalType":"address"}],"outputs":[{"name":"","type":"uint256","internalType":"uint256"}],"stateMutability":"view"},{"type":"function","name":"getRecipientStatus","inputs":[{"name":"_recipientId","type":"address","internalType":"address"}],"outputs":[{"name":"","type":"uint8","internalType":"enum IStrategy.Status"}],"stateMutability":"view"},{"type":"function","name":"getStrategyId","inputs":[],"outputs":[{"name":"","type":"bytes32","internalType":"bytes32"}],"stateMutability":"view"},{"type":"function","name":"getTotalVoterStakePct","inputs":[{"name":"_voter","type":"address","internalType":"address"}],"outputs":[{"name":"","type":"uint256","internalType":"uint256"}],"stateMutability":"view"},{"type":"function","name":"increasePoolAmount","inputs":[{"name":"_amount","type":"uint256","internalType":"uint256"}],"outputs":[],"stateMutability":"nonpayable"},{"type":"function","name":"increasePower","inputs":[{"name":"_member","type":"address","internalType":"address"},{"name":"_amountToStake","type":"uint256","internalType":"uint256"}],"outputs":[{"name":"","type":"uint256","internalType":"uint256"}],"stateMutability":"nonpayable"},{"type":"function","name":"initialize","inputs":[{"name":"_poolId","type":"uint256","internalType":"uint256"},{"name":"_data","type":"bytes","internalType":"bytes"}],"outputs":[],"stateMutability":"nonpayable"},{"type":"function","name":"isPoolActive","inputs":[],"outputs":[{"name":"","type":"bool","internalType":"bool"}],"stateMutability":"view"},{"type":"function","name":"isValidAllocator","inputs":[{"name":"_allocator","type":"address","internalType":"address"}],"outputs":[{"name":"","type":"bool","internalType":"bool"}],"stateMutability":"view"},{"type":"function","name":"maxRatio","inputs":[],"outputs":[{"name":"","type":"uint256","internalType":"uint256"}],"stateMutability":"view"},{"type":"function","name":"pointConfig","inputs":[],"outputs":[{"name":"maxAmount","type":"uint256","internalType":"uint256"}],"stateMutability":"view"},{"type":"function","name":"pointSystem","inputs":[],"outputs":[{"name":"","type":"uint8","internalType":"enum StrategyStruct.PointSystem"}],"stateMutability":"view"},{"type":"function","name":"proposalCounter","inputs":[],"outputs":[{"name":"","type":"uint256","internalType":"uint256"}],"stateMutability":"view"},{"type":"function","name":"proposalType","inputs":[],"outputs":[{"name":"","type":"uint8","internalType":"enum StrategyStruct.ProposalType"}],"stateMutability":"view"},{"type":"function","name":"proposals","inputs":[{"name":"","type":"uint256","internalType":"uint256"}],"outputs":[{"name":"proposalId","type":"uint256","internalType":"uint256"},{"name":"requestedAmount","type":"uint256","internalType":"uint256"},{"name":"stakedAmount","type":"uint256","internalType":"uint256"},{"name":"convictionLast","type":"uint256","internalType":"uint256"},{"name":"beneficiary","type":"address","internalType":"address"},{"name":"submitter","type":"address","internalType":"address"},{"name":"requestedToken","type":"address","internalType":"address"},{"name":"blockLast","type":"uint256","internalType":"uint256"},{"name":"proposalStatus","type":"uint8","internalType":"enum StrategyStruct.ProposalStatus"},{"name":"metadata","type":"tuple","internalType":"struct Metadata","components":[{"name":"protocol","type":"uint256","internalType":"uint256"},{"name":"pointer","type":"string","internalType":"string"}]},{"name":"disputeId","type":"uint256","internalType":"uint256"},{"name":"disputeTimestamp","type":"uint256","internalType":"uint256"},{"name":"challenger","type":"address","internalType":"address"}],"stateMutability":"view"},{"type":"function","name":"registerRecipient","inputs":[{"name":"_data","type":"bytes","internalType":"bytes"},{"name":"_sender","type":"address","internalType":"address"}],"outputs":[{"name":"recipientId","type":"address","internalType":"address"}],"stateMutability":"payable"},{"type":"function","name":"registerTribunalSafe","inputs":[{"name":"_tribunalSafe","type":"address","internalType":"address"}],"outputs":[],"stateMutability":"nonpayable"},{"type":"function","name":"registryCommunity","inputs":[],"outputs":[{"name":"","type":"address","internalType":"contract RegistryCommunity"}],"stateMutability":"view"},{"type":"function","name":"rule","inputs":[{"name":"_disputeID","type":"uint256","internalType":"uint256"},{"name":"_ruling","type":"uint256","internalType":"uint256"}],"outputs":[],"stateMutability":"nonpayable"},{"type":"function","name":"setArbitrationConfig","inputs":[{"name":"_arbitrableConfig","type":"tuple","internalType":"struct StrategyStruct.ArbitrableConfig","components":[{"name":"arbitrator","type":"address","internalType":"contract IArbitrator"},{"name":"tribunalSafe","type":"address","internalType":"address"},{"name":"collateralAmount","type":"uint256","internalType":"uint256"},{"name":"defaultRuling","type":"uint256","internalType":"uint256"},{"name":"defaultRulingTimeout","type":"uint256","internalType":"uint256"},{"name":"collateralVaultTemplate","type":"address","internalType":"address"}]}],"outputs":[],"stateMutability":"nonpayable"},{"type":"function","name":"setCollateralVault","inputs":[{"name":"_collateralVault","type":"address","internalType":"address"}],"outputs":[],"stateMutability":"nonpayable"},{"type":"function","name":"setDecay","inputs":[{"name":"_decay","type":"uint256","internalType":"uint256"}],"outputs":[],"stateMutability":"nonpayable"},{"type":"function","name":"setMaxRatio","inputs":[{"name":"_maxRatio","type":"uint256","internalType":"uint256"}],"outputs":[],"stateMutability":"nonpayable"},{"type":"function","name":"setMinThresholdPoints","inputs":[{"name":"minThresholdPoints_","type":"uint256","internalType":"uint256"}],"outputs":[],"stateMutability":"nonpayable"},{"type":"function","name":"setPoolActive","inputs":[{"name":"_active","type":"bool","internalType":"bool"}],"outputs":[],"stateMutability":"nonpayable"},{"type":"function","name":"setRegistryCommunity","inputs":[{"name":"_registryCommunity","type":"address","internalType":"address"}],"outputs":[],"stateMutability":"nonpayable"},{"type":"function","name":"setSybilScorer","inputs":[{"name":"_sybilScorer","type":"address","internalType":"address"}],"outputs":[],"stateMutability":"nonpayable"},{"type":"function","name":"setWeight","inputs":[{"name":"_weight","type":"uint256","internalType":"uint256"}],"outputs":[],"stateMutability":"nonpayable"},{"type":"function","name":"supportProposal","inputs":[{"name":"","type":"tuple[]","internalType":"struct StrategyStruct.ProposalSupport[]","components":[{"name":"proposalId","type":"uint256","internalType":"uint256"},{"name":"deltaSupport","type":"int256","internalType":"int256"}]}],"outputs":[],"stateMutability":"pure"},{"type":"function","name":"supportsInterface","inputs":[{"name":"interfaceId","type":"bytes4","internalType":"bytes4"}],"outputs":[{"name":"","type":"bool","internalType":"bool"}],"stateMutability":"view"},{"type":"function","name":"sybilScorer","inputs":[],"outputs":[{"name":"","type":"address","internalType":"contract ISybilScorer"}],"stateMutability":"view"},{"type":"function","name":"totalEffectiveActivePoints","inputs":[],"outputs":[{"name":"","type":"uint256","internalType":"uint256"}],"stateMutability":"view"},{"type":"function","name":"totalPointsActivated","inputs":[],"outputs":[{"name":"","type":"uint256","internalType":"uint256"}],"stateMutability":"view"},{"type":"function","name":"totalStaked","inputs":[],"outputs":[{"name":"","type":"uint256","internalType":"uint256"}],"stateMutability":"view"},{"type":"function","name":"totalVoterStakePct","inputs":[{"name":"","type":"address","internalType":"address"}],"outputs":[{"name":"","type":"uint256","internalType":"uint256"}],"stateMutability":"view"},{"type":"function","name":"updateProposalConviction","inputs":[{"name":"proposalId","type":"uint256","internalType":"uint256"}],"outputs":[{"name":"","type":"uint256","internalType":"uint256"}],"stateMutability":"nonpayable"},{"type":"function","name":"voterStakedProposals","inputs":[{"name":"","type":"address","internalType":"address"},{"name":"","type":"uint256","internalType":"uint256"}],"outputs":[{"name":"","type":"uint256","internalType":"uint256"}],"stateMutability":"view"},{"type":"function","name":"weight","inputs":[],"outputs":[{"name":"","type":"uint256","internalType":"uint256"}],"stateMutability":"view"},{"type":"event","name":"Allocated","inputs":[{"name":"recipientId","type":"address","indexed":true,"internalType":"address"},{"name":"amount","type":"uint256","indexed":false,"internalType":"uint256"},{"name":"token","type":"address","indexed":false,"internalType":"address"},{"name":"sender","type":"address","indexed":false,"internalType":"address"}],"anonymous":false},{"type":"event","name":"ArbitrationConfigUpdated","inputs":[{"name":"strategy","type":"address","indexed":false,"internalType":"address"},{"name":"arbitrableConfig","type":"tuple","indexed":false,"internalType":"struct StrategyStruct.ArbitrableConfig","components":[{"name":"arbitrator","type":"address","internalType":"contract IArbitrator"},{"name":"tribunalSafe","type":"address","internalType":"address"},{"name":"collateralAmount","type":"uint256","internalType":"uint256"},{"name":"defaultRuling","type":"uint256","internalType":"uint256"},{"name":"defaultRulingTimeout","type":"uint256","internalType":"uint256"},{"name":"collateralVaultTemplate","type":"address","internalType":"address"}]}],"anonymous":false},{"type":"event","name":"CollateralVaultUpdated","inputs":[{"name":"collateralVault","type":"address","indexed":false,"internalType":"address"}],"anonymous":false},{"type":"event","name":"DecayUpdated","inputs":[{"name":"decay","type":"uint256","indexed":false,"internalType":"uint256"}],"anonymous":false},{"type":"event","name":"DisputeRequest","inputs":[{"name":"_arbitrator","type":"address","indexed":true,"internalType":"contract IArbitrator"},{"name":"_arbitrableDisputeID","type":"uint256","indexed":true,"internalType":"uint256"},{"name":"_externalDisputeID","type":"uint256","indexed":false,"internalType":"uint256"},{"name":"_templateId","type":"uint256","indexed":false,"internalType":"uint256"},{"name":"_templateUri","type":"string","indexed":false,"internalType":"string"}],"anonymous":false},{"type":"event","name":"Distributed","inputs":[{"name":"proposalId","type":"uint256","indexed":false,"internalType":"uint256"},{"name":"beneficiary","type":"address","indexed":false,"internalType":"address"},{"name":"amount","type":"uint256","indexed":false,"internalType":"uint256"}],"anonymous":false},{"type":"event","name":"Distributed","inputs":[{"name":"recipientId","type":"address","indexed":true,"internalType":"address"},{"name":"recipientAddress","type":"address","indexed":false,"internalType":"address"},{"name":"amount","type":"uint256","indexed":false,"internalType":"uint256"},{"name":"sender","type":"address","indexed":false,"internalType":"address"}],"anonymous":false},{"type":"event","name":"Initialized","inputs":[{"name":"poolId","type":"uint256","indexed":false,"internalType":"uint256"},{"name":"data","type":"bytes","indexed":false,"internalType":"bytes"}],"anonymous":false},{"type":"event","name":"InitializedCV","inputs":[{"name":"poolId","type":"uint256","indexed":false,"internalType":"uint256"},{"name":"data","type":"tuple","indexed":false,"internalType":"struct StrategyStruct.InitializeParams","components":[{"name":"registryCommunity","type":"address","internalType":"address"},{"name":"decay","type":"uint256","internalType":"uint256"},{"name":"maxRatio","type":"uint256","internalType":"uint256"},{"name":"weight","type":"uint256","internalType":"uint256"},{"name":"minThresholdPoints","type":"uint256","internalType":"uint256"},{"name":"proposalType","type":"uint8","internalType":"enum StrategyStruct.ProposalType"},{"name":"pointSystem","type":"uint8","internalType":"enum StrategyStruct.PointSystem"},{"name":"pointConfig","type":"tuple","internalType":"struct StrategyStruct.PointSystemConfig","components":[{"name":"maxAmount","type":"uint256","internalType":"uint256"}]},{"name":"arbitrableConfig","type":"tuple","internalType":"struct StrategyStruct.ArbitrableConfig","components":[{"name":"arbitrator","type":"address","internalType":"contract IArbitrator"},{"name":"tribunalSafe","type":"address","internalType":"address"},{"name":"collateralAmount","type":"uint256","internalType":"uint256"},{"name":"defaultRuling","type":"uint256","internalType":"uint256"},{"name":"defaultRulingTimeout","type":"uint256","internalType":"uint256"},{"name":"collateralVaultTemplate","type":"address","internalType":"address"}]},{"name":"sybilScorer","type":"address","internalType":"address"}]}],"anonymous":false},{"type":"event","name":"MaxRatioUpdated","inputs":[{"name":"maxRatio","type":"uint256","indexed":false,"internalType":"uint256"}],"anonymous":false},{"type":"event","name":"MinThresholdPointsUpdated","inputs":[{"name":"before","type":"uint256","indexed":false,"internalType":"uint256"},{"name":"minThresholdPoints","type":"uint256","indexed":false,"internalType":"uint256"}],"anonymous":false},{"type":"event","name":"PointsDeactivated","inputs":[{"name":"member","type":"address","indexed":false,"internalType":"address"}],"anonymous":false},{"type":"event","name":"PoolActive","inputs":[{"name":"active","type":"bool","indexed":false,"internalType":"bool"}],"anonymous":false},{"type":"event","name":"PoolAmountIncreased","inputs":[{"name":"amount","type":"uint256","indexed":false,"internalType":"uint256"}],"anonymous":false},{"type":"event","name":"PowerDecreased","inputs":[{"name":"member","type":"address","indexed":false,"internalType":"address"},{"name":"tokensUnStaked","type":"uint256","indexed":false,"internalType":"uint256"},{"name":"pointsToDecrease","type":"uint256","indexed":false,"internalType":"uint256"}],"anonymous":false},{"type":"event","name":"PowerIncreased","inputs":[{"name":"member","type":"address","indexed":false,"internalType":"address"},{"name":"tokensStaked","type":"uint256","indexed":false,"internalType":"uint256"},{"name":"pointsToIncrease","type":"uint256","indexed":false,"internalType":"uint256"}],"anonymous":false},{"type":"event","name":"ProposalCreated","inputs":[{"name":"poolId","type":"uint256","indexed":false,"internalType":"uint256"},{"name":"proposalId","type":"uint256","indexed":false,"internalType":"uint256"}],"anonymous":false},{"type":"event","name":"ProposalDisputed","inputs":[{"name":"arbitrator","type":"address","indexed":false,"internalType":"contract IArbitrator"},{"name":"proposalId","type":"uint256","indexed":false,"internalType":"uint256"},{"name":"disputeId","type":"uint256","indexed":false,"internalType":"uint256"},{"name":"challenger","type":"address","indexed":false,"internalType":"address"},{"name":"context","type":"string","indexed":false,"internalType":"string"},{"name":"timestamp","type":"uint256","indexed":false,"internalType":"uint256"}],"anonymous":false},{"type":"event","name":"Registered","inputs":[{"name":"recipientId","type":"address","indexed":true,"internalType":"address"},{"name":"data","type":"bytes","indexed":false,"internalType":"bytes"},{"name":"sender","type":"address","indexed":false,"internalType":"address"}],"anonymous":false},{"type":"event","name":"RegistryUpdated","inputs":[{"name":"registryCommunity","type":"address","indexed":false,"internalType":"address"}],"anonymous":false},{"type":"event","name":"Ruling","inputs":[{"name":"_arbitrator","type":"address","indexed":true,"internalType":"contract IArbitrator"},{"name":"_disputeID","type":"uint256","indexed":true,"internalType":"uint256"},{"name":"_ruling","type":"uint256","indexed":false,"internalType":"uint256"}],"anonymous":false},{"type":"event","name":"SupportAdded","inputs":[{"name":"from","type":"address","indexed":false,"internalType":"address"},{"name":"proposalId","type":"uint256","indexed":false,"internalType":"uint256"},{"name":"amount","type":"uint256","indexed":false,"internalType":"uint256"},{"name":"totalStakedAmount","type":"uint256","indexed":false,"internalType":"uint256"},{"name":"convictionLast","type":"uint256","indexed":false,"internalType":"uint256"}],"anonymous":false},{"type":"event","name":"TribunaSafeRegistered","inputs":[{"name":"strategy","type":"address","indexed":false,"internalType":"address"},{"name":"arbitrator","type":"address","indexed":false,"internalType":"address"},{"name":"tribunalSafe","type":"address","indexed":false,"internalType":"address"}],"anonymous":false},{"type":"event","name":"WeightUpdated","inputs":[{"name":"weight","type":"uint256","indexed":false,"internalType":"uint256"}],"anonymous":false},{"type":"error","name":"ALLOCATION_ACTIVE","inputs":[]},{"type":"error","name":"ALLOCATION_NOT_ACTIVE","inputs":[]},{"type":"error","name":"ALLOCATION_NOT_ENDED","inputs":[]},{"type":"error","name":"ALREADY_INITIALIZED","inputs":[]},{"type":"error","name":"AMOUNT_MISMATCH","inputs":[]},{"type":"error","name":"ANCHOR_ERROR","inputs":[]},{"type":"error","name":"ARRAY_MISMATCH","inputs":[]},{"type":"error","name":"AddressCannotBeZero","inputs":[]},{"type":"error","name":"AmountOverMaxRatio","inputs":[]},{"type":"error","name":"ArbitratorCannotBeZero","inputs":[]},{"type":"error","name":"CantIncreaseFixedSystem","inputs":[]},{"type":"error","name":"CollateralVaultCannotBeZero","inputs":[]},{"type":"error","name":"ConvictionUnderMinimumThreshold","inputs":[]},{"type":"error","name":"DefaultRulingNotSet","inputs":[]},{"type":"error","name":"INVALID","inputs":[]},{"type":"error","name":"INVALID_ADDRESS","inputs":[]},{"type":"error","name":"INVALID_FEE","inputs":[]},{"type":"error","name":"INVALID_METADATA","inputs":[]},{"type":"error","name":"INVALID_REGISTRATION","inputs":[]},{"type":"error","name":"IS_APPROVED_STRATEGY","inputs":[]},{"type":"error","name":"InsufficientCollateral","inputs":[{"name":"sentAmount","type":"uint256","internalType":"uint256"},{"name":"requiredAmount","type":"uint256","internalType":"uint256"}]},{"type":"error","name":"MISMATCH","inputs":[]},{"type":"error","name":"MaxPointsReached","inputs":[]},{"type":"error","name":"NONCE_NOT_AVAILABLE","inputs":[]},{"type":"error","name":"NOT_APPROVED_STRATEGY","inputs":[]},{"type":"error","name":"NOT_ENOUGH_FUNDS","inputs":[]},{"type":"error","name":"NOT_IMPLEMENTED","inputs":[]},{"type":"error","name":"NOT_INITIALIZED","inputs":[]},{"type":"error","name":"NOT_PENDING_OWNER","inputs":[]},{"type":"error","name":"NotEnoughPointsToSupport","inputs":[{"name":"pointsSupport","type":"uint256","internalType":"uint256"},{"name":"pointsBalance","type":"uint256","internalType":"uint256"}]},{"type":"error","name":"NotImplemented","inputs":[]},{"type":"error","name":"OnlyArbitrator","inputs":[]},{"type":"error","name":"OnlyCommunityAllowed","inputs":[]},{"type":"error","name":"OnlyCouncilSafe","inputs":[]},{"type":"error","name":"POOL_ACTIVE","inputs":[]},{"type":"error","name":"POOL_INACTIVE","inputs":[]},{"type":"error","name":"PoolAmountNotEnough","inputs":[{"name":"_proposalId","type":"uint256","internalType":"uint256"},{"name":"_requestedAmount","type":"uint256","internalType":"uint256"},{"name":"_poolAmount","type":"uint256","internalType":"uint256"}]},{"type":"error","name":"PoolIdCannotBeZero","inputs":[]},{"type":"error","name":"PoolIsEmpty","inputs":[]},{"type":"error","name":"ProposalDataIsEmpty","inputs":[]},{"type":"error","name":"ProposalIdCannotBeZero","inputs":[]},{"type":"error","name":"ProposalNotActive","inputs":[{"name":"_proposalId","type":"uint256","internalType":"uint256"}]},{"type":"error","name":"ProposalNotDisputed","inputs":[{"name":"_proposalId","type":"uint256","internalType":"uint256"}]},{"type":"error","name":"ProposalNotInList","inputs":[{"name":"_proposalId","type":"uint256","internalType":"uint256"}]},{"type":"error","name":"ProposalSupportDuplicated","inputs":[{"name":"_proposalId","type":"uint256","internalType":"uint256"},{"name":"index","type":"uint256","internalType":"uint256"}]},{"type":"error","name":"RECIPIENT_ALREADY_ACCEPTED","inputs":[]},{"type":"error","name":"RECIPIENT_ERROR","inputs":[{"name":"recipientId","type":"address","internalType":"address"}]},{"type":"error","name":"RECIPIENT_NOT_ACCEPTED","inputs":[]},{"type":"error","name":"REGISTRATION_NOT_ACTIVE","inputs":[]},{"type":"error","name":"RegistryCannotBeZero","inputs":[]},{"type":"error","name":"SupportUnderflow","inputs":[{"name":"_support","type":"uint256","internalType":"uint256"},{"name":"_delta","type":"int256","internalType":"int256"},{"name":"_result","type":"int256","internalType":"int256"}]},{"type":"error","name":"TokenCannotBeZero","inputs":[]},{"type":"error","name":"TokenNotAllowed","inputs":[]},{"type":"error","name":"UNAUTHORIZED","inputs":[]},{"type":"error","name":"UserCannotBeZero","inputs":[]},{"type":"error","name":"UserCannotExecuteAction","inputs":[]},{"type":"error","name":"UserIsInactive","inputs":[]},{"type":"error","name":"UserNotInRegistry","inputs":[]},{"type":"error","name":"ZERO_ADDRESS","inputs":[]}],"bytecode":{"object":"0x60c060405260006007556000600a553480156200001b57600080fd5b5060405162005f8538038062005f858339810160408190526200003e91620000aa565b604080518082018252600a8152694356537472617465677960b01b6020808301919091526001600160a01b038416608052915183926200008191839101620000dc565b60408051601f19818403018152919052805160209091012060a05250506001600355506200012c565b600060208284031215620000bd57600080fd5b81516001600160a01b0381168114620000d557600080fd5b9392505050565b600060208083528351808285015260005b818110156200010b57858101830151858201604001528201620000ed565b506000604082860101526040601f19601f8301168501019250505092915050565b60805160a051615e1e6200016760003960006107cb0152600081816105f2015281816127fa0152818161288d0152612b160152615e1e6000f3fe60806040526004361061040f5760003560e01c80636453d9c411610222578063b2b878d011610131578063df868ed3116100b2578063edd146cc11610084578063f5b0dfb71161006c578063f5b0dfb714610cd1578063f9dd509814610cf1578063fc1711f214610d1157005b8063edd146cc14610c9e578063ef2920fc14610cbe57005b8063df868ed314610c19578063e0dd2c3814610c31578063e33add9314610c51578063eb11af9314610c7157005b8063bcc5b93b11610103578063c7f758a8116100eb578063c7f758a814610b9e578063d1e3623214610bd4578063dc96ff2d14610be957005b8063bcc5b93b14610b4b578063c329217114610b8157005b8063b2b878d014610acb578063b41596ec14610af8578063b5f620ce14610b0b578063b6c61f3114610b2b57005b8063824ea8ed116101bb578063a1aab33f1161018d578063a574cea411610175578063a574cea414610a68578063aba9ffee14610a95578063ac1ed7b914610aab57005b8063a1aab33f14610a3b578063a47ff7e514610a5157005b8063824ea8ed146109b3578063868c57b8146109d3578063950559d7146109f3578063a0cf0aea14610a1357005b8063782aadff116101f4578063782aadff146109525780637c6570ba14610972578063814516ad14610988578063817b1cd21461099d57005b80636453d9c4146108dc57806368a806c4146108fc57806369fa25c41461091c57806376365af71461093c57005b80632dbd6fdd1161031e57806342fda9c7116102b757806354fac919116102895780635db64b99116102715780635db64b991461087a5780636003e414146108a7578063626c47e8146108c757005b806354fac9191461084457806359a5db8b1461085a57005b806342fda9c7146107bc5780634ab4ba42146107ef5780634d31d087146108045780634e2ffa881461082457005b8063346db8cb116102f0578063346db8cb1461074b578063351d9f961461076b57806338fff2d014610792578063406244d8146107a757005b80632dbd6fdd146106c95780632ed04b2b146106f5578063311a6c5614610715578063339604591461073557005b80631073e996116103a85780631ddf1e231161037a578063285a722d11610362578063285a722d146106785780632bbe0cae146106965780632cefadbb146106a957005b80631ddf1e2314610636578063255ffb381461064b57005b80631073e9961461054e57806311f22ae3146105c357806315cc481e146105e35780631aa91a9e1461061657005b80630ba95909116103e15780630ba95909146104ca5780630bece79c146104e95780630c0512e9146105215780630f529ba21461053757005b8063013cf08b1461041857806301ffc9a71461045a578063058aca441461048a5780630a6f0ee9146104aa57005b3661041657005b005b34801561042457600080fd5b50610438610433366004614afb565b610d31565b6040516104519d9c9b9a99989796959493929190614ba9565b60405180910390f35b34801561046657600080fd5b5061047a610475366004614c37565b610e5b565b6040519015158152602001610451565b34801561049657600080fd5b506104166104a5366004614c76565b610ec4565b3480156104b657600080fd5b506104166104c5366004614e7e565b610f24565b3480156104d657600080fd5b50600e545b604051908152602001610451565b3480156104f557600080fd5b50601654610509906001600160a01b031681565b6040516001600160a01b039091168152602001610451565b34801561052d57600080fd5b506104db60075481565b34801561054357600080fd5b506104db6298968081565b34801561055a57600080fd5b50600f54601054601154601254601354601454610587956001600160a01b03908116958116949392911686565b604080516001600160a01b03978816815295871660208701528501939093526060840191909152608083015290911660a082015260c001610451565b3480156105cf57600080fd5b506104166105de366004614afb565b610f44565b3480156105ef57600080fd5b507f0000000000000000000000000000000000000000000000000000000000000000610509565b34801561062257600080fd5b506104db610631366004614afb565b610f83565b34801561064257600080fd5b5061041661100e565b34801561065757600080fd5b506104db610666366004614afb565b601b6020526000908152604090205481565b34801561068457600080fd5b506016546001600160a01b0316610509565b6105096106a4366004614ef6565b611019565b3480156106b557600080fd5b506104166106c4366004614afb565b61103c565b3480156106d557600080fd5b50600d546106e890610100900460ff1681565b6040516104519190614f5c565b34801561070157600080fd5b506104db610710366004614f6a565b611088565b34801561072157600080fd5b50610416610730366004614f96565b61115a565b34801561074157600080fd5b506104db600c5481565b34801561075757600080fd5b506104db610766366004614fb8565b611722565b34801561077757600080fd5b50600d546107859060ff1681565b6040516104519190614ff4565b34801561079e57600080fd5b506001546104db565b3480156107b357600080fd5b506104db600a81565b3480156107c857600080fd5b507f00000000000000000000000000000000000000000000000000000000000000006104db565b3480156107fb57600080fd5b506002546104db565b34801561081057600080fd5b5061047a61081f366004614c76565b6117c7565b34801561083057600080fd5b5061041661083f366004614c76565b6117da565b34801561085057600080fd5b506104db60045481565b34801561086657600080fd5b506104db610875366004614afb565b611894565b34801561088657600080fd5b506104db610895366004614c76565b60196020526000908152604090205481565b3480156108b357600080fd5b50601554610509906001600160a01b031681565b3480156108d357600080fd5b506104db600381565b3480156108e857600080fd5b506104166108f7366004614c76565b6119d1565b34801561090857600080fd5b50610416610917366004614c76565b6119e5565b34801561092857600080fd5b50610416610937366004614afb565b611a3b565b34801561094857600080fd5b506104db60055481565b34801561095e57600080fd5b506104db61096d366004614f6a565b611a7a565b34801561097e57600080fd5b506104db600a5481565b34801561099457600080fd5b50610416611c1c565b3480156109a957600080fd5b506104db60085481565b3480156109bf57600080fd5b5061047a6109ce366004614afb565b611d4e565b3480156109df57600080fd5b506104db6109ee366004614f6a565b611dab565b3480156109ff57600080fd5b506104db610a0e366004614afb565b611ddc565b348015610a1f57600080fd5b5061050973eeeeeeeeeeeeeeeeeeeeeeeeeeeeeeeeeeeeeeee81565b348015610a4757600080fd5b506104db60065481565b348015610a5d57600080fd5b50600e546104db9081565b348015610a7457600080fd5b50610a88610a83366004614afb565b611e06565b6040516104519190615002565b348015610aa157600080fd5b506104db60095481565b348015610ab757600080fd5b50610416610ac6366004614c76565b611ee5565b348015610ad757600080fd5b50610aeb610ae6366004615015565b611f18565b60405161045191906150ea565b610416610b06366004615184565b611f33565b348015610b1757600080fd5b50610416610b2636600461520c565b612219565b348015610b3757600080fd5b50601754610509906001600160a01b031681565b348015610b5757600080fd5b506104db610b66366004614c76565b6001600160a01b031660009081526019602052604090205490565b348015610b8d57600080fd5b50600d54610100900460ff166106e8565b348015610baa57600080fd5b50610bbe610bb9366004614afb565b612222565b6040516104519a99989796959493929190615229565b348015610be057600080fd5b506009546104db565b348015610bf557600080fd5b506104db610c04366004614afb565b60009081526018602052604090206002015490565b348015610c2557600080fd5b5060005460ff1661047a565b348015610c3d57600080fd5b506104db610c4c36600461528f565b612324565b348015610c5d57600080fd5b50610416610c6c3660046152b4565b61234f565b348015610c7d57600080fd5b50610c91610c8c366004614c76565b612368565b604051610451919061535f565b348015610caa57600080fd5b50610416610cb9366004615372565b612373565b610416610ccc366004614ef6565b612697565b348015610cdd57600080fd5b50610416610cec366004614afb565b6126b5565b348015610cfd57600080fd5b50610416610d0c3660046153b9565b6126de565b348015610d1d57600080fd5b50610416610d2c366004614afb565b612778565b6018602090815260009182526040918290208054600182015460028301546003840154600485015460058601546006870154600788015460088901548b51808d01909c52600a8a0180548d52600b8b0180549a9d999c989b979a6001600160a01b039788169a968816999790951697939660ff9093169593949192840191610db89061542d565b80601f0160208091040260200160405190810160405280929190818152602001828054610de49061542d565b8015610e315780601f10610e0657610100808354040283529160200191610e31565b820191906000526020600020905b815481529060010190602001808311610e1457829003601f168201915b50505091909252505050600c820154600d830154600e90930154919290916001600160a01b03168d565b60006001600160e01b031982167ff1801e61000000000000000000000000000000000000000000000000000000001480610ebe57507f01ffc9a7000000000000000000000000000000000000000000000000000000006001600160e01b03198316145b92915050565b33610ece816127b7565b601580546001600160a01b0319166001600160a01b0384169081179091556040519081527fd6ceddf6d2a22f21c7c81675c518004eff43bc5c8a6fc32a0b748e69d58671cd906020015b60405180910390a15050565b610f2c612882565b610f346128cb565b610f3f838383612907565b505050565b33610f4e816127b7565b60058290556040518281527f08e39b387d1f739ce0d2553bb31822392e3f67c62c6c0a215120ab4a6841a8ab90602001610f18565b600081815260186020526040812080548314610fba5760405163c1d17bef60e01b8152600481018490526024015b60405180910390fd5b6001600882015460ff166006811115610fd557610fd5614b14565b14610ff6576040516344980d8f60e01b815260048101849052602401610fb1565b611004818260020154612cb2565b6003015492915050565b61101733612ced565b565b6000611023612882565b61102b6128cb565b6110358383612e37565b9392505050565b33611046816127b7565b600a5460408051918252602082018490527f056aedca4e334b6c4bea48715fb0de644811b740894de57a0380d3eb90f2805b910160405180910390a150600a55565b6000611092613243565b60006002600d54610100900460ff1660038111156110b2576110b2614b14565b14806110d957506001600d54610100900460ff1660038111156110d7576110d7614b14565b145b156110e55750816110f2565b6110ef8484613287565b90505b80600960008282546111049190615477565b9091555050604080516001600160a01b0386168152602081018590529081018290527f70b752f3fadb6ac131c0ece847fcbb6994ec56ed6411595710fd9b29c6ac6cc19060600160405180910390a19392505050565b6000828152601b602090815260408083205480845260189092528220909182900361119b5760405163c1d17bef60e01b815260048101839052602401610fb1565b6005600882015460ff1660068111156111b6576111b6614b14565b146111f0576040517f9602395200000000000000000000000000000000000000000000000000000000815260048101839052602401610fb1565b601354600d8201546000916112049161548a565b421190508015816112205750600f546001600160a01b03163314155b15611257576040517f2eef310a00000000000000000000000000000000000000000000000000000000815260040160405180910390fd5b8080611261575083155b156113c6576012546000036112a2576040517fdd466dd000000000000000000000000000000000000000000000000000000000815260040160405180910390fd5b6012546001036112bc5760088201805460ff191660011790555b6012546002036112d65760088201805460ff191660061790555b601654600e83015460115460405163099ea56b60e41b8152600481018790526001600160a01b03928316602482015260448101919091529116906399ea56b090606401600060405180830381600087803b15801561133357600080fd5b505af1158015611347573d6000803e3d6000fd5b5050601654600585015460115460405163099ea56b60e41b8152600481018990526001600160a01b0392831660248201526044810191909152911692506399ea56b091506064015b600060405180830381600087803b1580156113a957600080fd5b505af11580156113bd573d6000803e3d6000fd5b505050506116d9565b836001036114a55760088201805460ff19166001179055601654600e83015460155460408051633629edcd60e11b815290516001600160a01b0394851694638969ab5394899490821693911691636c53db9a916004808201926020929091908290030181865afa15801561143e573d6000803e3d6000fd5b505050506040513d601f19601f82011682018060405250810190611462919061549d565b60115460405160e086901b6001600160e01b031916815260048101949094526001600160a01b03928316602485015291166044830152606482015260840161138f565b836002036116d95760088201805460ff19166006179055601654600e83015460115460405163099ea56b60e41b8152600481018790526001600160a01b03928316602482015260448101919091529116906399ea56b090606401600060405180830381600087803b15801561151957600080fd5b505af115801561152d573d6000803e3d6000fd5b5050601654600585015460155460408051633629edcd60e11b815290516001600160a01b039485169650638969ab53955089949384169390921691636c53db9a916004808201926020929091908290030181865afa158015611593573d6000803e3d6000fd5b505050506040513d601f19601f820116820180604052508101906115b7919061549d565b6011546115c6906002906154d0565b6040516001600160e01b031960e087901b16815260048101949094526001600160a01b039283166024850152911660448301526064820152608401600060405180830381600087803b15801561161b57600080fd5b505af115801561162f573d6000803e3d6000fd5b50506016546005850154600e8601546011546001600160a01b039384169550638969ab5394508893928316929091169061166b906002906154d0565b6040516001600160e01b031960e087901b16815260048101949094526001600160a01b039283166024850152911660448301526064820152608401600060405180830381600087803b1580156116c057600080fd5b505af11580156116d4573d6000803e3d6000fd5b505050505b600f5460405185815286916001600160a01b0316907f394027a5fa6e098a1191094d1719d6929b9abc535fcc0c8f448d6a4e756222769060200160405180910390a35050505050565b6000808490506000611748629896806080600454901b61174291906154d0565b836134cd565b905060806f800000000000000000000000000000006004546298968061176e9190615477565b61177c84600160801b615477565b61178962989680896154f2565b61179391906154f2565b61179d91906154d0565b6117a788856154f2565b6117b1919061548a565b6117bb919061548a565b901c9695505050505050565b60006001600160a01b0382161515610ebe565b6117e2613576565b600f5460405163446adb9960e11b81526001600160a01b038381166004830152909116906388d5b73290602401600060405180830381600087803b15801561182957600080fd5b505af115801561183d573d6000803e3d6000fd5b5050600f54604080513081526001600160a01b039283166020820152918516908201527fdc20f5c479493aac0cf803ca3b82ebc1964faa557450a37ea0a8121b0e98454f925060600190505b60405180910390a150565b600080600254116118d1576040517fed4421ad00000000000000000000000000000000000000000000000000000000815260040160405180910390fd5b6118da82613637565b156118f857604051630efd728560e21b815260040160405180910390fd5b60025460009061191184680100000000000000006154f2565b61191b91906154d0565b629896806005546801000000000000000061193691906154f2565b61194091906154d0565b61194a9190615477565b9050604061195760095490565b6004546119679062989680615477565b62989680604061197786806154f2565b901c629896806080600654901b61198e91906154d0565b61199891906154d0565b6119a291906154f2565b6119ac91906154d0565b6119b691906154f2565b901c9150600a5482116119cb57600a54611035565b50919050565b6119d9613243565b6119e281612ced565b50565b6119ed613576565b601680546001600160a01b0319166001600160a01b0383169081179091556040519081527f98591b379d0945355df2687e7941177774bf190304dba561b029c0f63fcbc17990602001611889565b33611a45816127b7565b60048290556040518281527f592dcd55d60d892e7fcb3ba105013312e99691cd59f91e15f83cb67cb5a505f290602001610f18565b6000611a84613243565b611a8d8361365e565b611aaa57604051630b72d6b160e31b815260040160405180910390fd5b60006002600d54610100900460ff166003811115611aca57611aca614b14565b03611ad857825b9050611b35565b6001600d54610100900460ff166003811115611af657611af6614b14565b03611b0557611ad18484613706565b6003600d54610100900460ff166003811115611b2357611b23614b14565b03611b3557611b3284846137b0565b90505b60155460405163011de97360e61b81526001600160a01b038681166004830152306024830152600092169063477a5cc090604401602060405180830381865afa158015611b86573d6000803e3d6000fd5b505050506040513d601f19601f82011682018060405250810190611baa9190615509565b90508015611bca578160096000828254611bc4919061548a565b90915550505b604080516001600160a01b0387168152602081018690529081018390527f0b9150e1e54346ed3fa36b977cd5d65dca5a649c737c3174a26bddaadd47667a9060600160405180910390a1509392505050565b33611c268161365e565b611c4357604051630b72d6b160e31b815260040160405180910390fd5b6015546040517f0d4a8b490000000000000000000000000000000000000000000000000000000081526001600160a01b03838116600483015230602483015290911690630d4a8b4990604401600060405180830381600087803b158015611ca957600080fd5b505af1158015611cbd573d6000803e3d6000fd5b5050601554604051637817ee4f60e01b81526001600160a01b0385811660048301523060248301529091169250637817ee4f9150604401602060405180830381865afa158015611d11573d6000803e3d6000fd5b505050506040513d601f19601f82011682018060405250810190611d359190615526565b60096000828254611d46919061548a565b909155505050565b6000818152601860205260408120600281015482908190611d709084906139f7565b91509150816000148015611d82575080155b15611d8f57826003015491505b6000611d9e8460010154611894565b9092101595945050505050565b601a6020528160005260406000208181548110611dc757600080fd5b90600052602060002001600091509150505481565b600060045462989680611def9190615477565b611dfc62989680846154f2565b610ebe91906154d0565b604080518082019091526000815260606020820152600060186000848152602001908152602001600020905080600a0160405180604001604052908160008201548152602001600182018054611e5b9061542d565b80601f0160208091040260200160405190810160405280929190818152602001828054611e879061542d565b8015611ed45780601f10611ea957610100808354040283529160200191611ed4565b820191906000526020600020905b815481529060010190602001808311611eb757829003601f168201915b505050505081525050915050919050565b611eed613576565b611ef681613a4f565b601780546001600160a01b0319166001600160a01b0392909216919091179055565b606060405163d623472560e01b815260040160405180910390fd5b611f3b613a8f565b6000858152601860205260409020600f546001600160a01b0316611f8b576040517f6c291fd300000000000000000000000000000000000000000000000000000000815260040160405180910390fd5b6016546001600160a01b0316611fcd576040517fc4d0cd2f00000000000000000000000000000000000000000000000000000000815260040160405180910390fd5b80548614611ff15760405163c1d17bef60e01b815260048101879052602401610fb1565b6001600882015460ff16600681111561200c5761200c614b14565b1461202d576040516344980d8f60e01b815260048101879052602401610fb1565b601154341161205c57601154604051632c1f8ef160e21b81523460048201526024810191909152604401610fb1565b60115460009061206c9034615477565b60165460115460405163240ff7c560e11b8152600481018b90523360248201529293506001600160a01b039091169163481fef8a91906044016000604051808303818588803b1580156120be57600080fd5b505af11580156120d2573d6000803e3d6000fd5b5050600f546040517fc13517e1000000000000000000000000000000000000000000000000000000008152600094506001600160a01b03909116925063c13517e19150849061212a906003908a908a90600401615568565b60206040518083038185885af1158015612148573d6000803e3d6000fd5b50505050506040513d601f19601f8201168201806040525081019061216d9190615526565b60088401805460ff19166005179055600c840181905542600d8501908155600e85018054336001600160a01b031990911681179091556000838152601b6020526040908190208c9055600f54925490519394507f034f6a48076db1bcaaa311ccdc43d473aff44d3918a76fe0fae27c8b3665016d936121fd936001600160a01b0316928d9287928e918e9161558b565b60405180910390a15050506122126001600355565b5050505050565b6119e281613ae8565b6000806000806000806000806000806000601860008d815260200190815260200160002090508060010154600014612266576122618160010154611894565b612269565b60005b92508060050160009054906101000a90046001600160a01b03168160040160009054906101000a90046001600160a01b03168260060160009054906101000a90046001600160a01b0316836001015484600201548560080160009054906101000a900460ff16866007015487600301548a896009016000336001600160a01b03166001600160a01b03168152602001908152602001600020549a509a509a509a509a509a509a509a509a509a50509193959799509193959799565b60008281526018602090815260408083206001600160a01b0385168452600901909152812054611035565b60405163d623472560e01b815260040160405180910390fd5b6000610ebe82613b29565b61237c82613b49565b60008180602001905181019061239291906156bd565b80519091506001600160a01b03166123bd57604051635df4b1ef60e01b815260040160405180910390fd5b8051601580546001600160a01b0319166001600160a01b0390921691909117905560208101516004556040810151600555606081015160065560a0810151600d805460ff1916600183600281111561241757612417614b14565b021790555060c0810151600d805461ff00191661010083600381111561243f5761243f614b14565b021790555060e081015151600e55608080820151600a556101008201518051600f80546001600160a01b03199081166001600160a01b039384169081179092556020840151601080548316918516919091179055604084015160115560608401516012559383015160135560a09092015160148054909416911617909155156125c357601454600c80546124eb926001600160a01b03169160006124e28361576c565b91905055613bca565b601680546001600160a01b0319166001600160a01b0392831617905560105416156125c357600f5460105460405163446adb9960e11b81526001600160a01b0391821660048201529116906388d5b73290602401600060405180830381600087803b15801561255957600080fd5b505af115801561256d573d6000803e3d6000fd5b5050600f54601054604080513081526001600160a01b0393841660208201529290911682820152517fdc20f5c479493aac0cf803ca3b82ebc1964faa557450a37ea0a8121b0e98454f9350908190036060019150a15b610120810151601780546001600160a01b0319166001600160a01b039092169190911790556040517f32ba479c94ca88ce77fc80c3eedac77aaa0df1ff0c404ec94259df6b8a6c67f39061261a9085908490615785565b60405180910390a160408051308152600f546001600160a01b0390811660208301526010548116828401526011546060830152601254608083015260135460a08301526014541660c082015290517fa2a4391a1b345c1d6d85c57f76c4ccc80f4a5ecbd0d495ecc7060ba2261b36d49181900360e00190a1505050565b61269f612882565b6126a76128cb565b6126b18282613c1e565b5050565b6126bd612882565b80600260008282546126cf919061548a565b909155506119e2905081613d2d565b6126e6613576565b8051600f80546001600160a01b03199081166001600160a01b039384161790915560208301516010805483169184169190911790556040808401516011556060840151601255608084015160135560a0840151601480549093169316929092179055517fa2a4391a1b345c1d6d85c57f76c4ccc80f4a5ecbd0d495ecc7060ba2261b36d4906118899030908490615874565b33612782816127b7565b60068290556040518281527f30ee8206062f283e56a0af2b02138016bf7442ded26ad68a92a18a9dd246fb4990602001610f18565b6001546040517f29e40d4b00000000000000000000000000000000000000000000000000000000815260048101919091526001600160a01b0382811660248301527f000000000000000000000000000000000000000000000000000000000000000016906329e40d4b90604401602060405180830381865afa158015612841573d6000803e3d6000fd5b505050506040513d601f19601f820116820180604052508101906128659190615509565b6119e25760405163075fd2b160e01b815260040160405180910390fd5b336001600160a01b037f000000000000000000000000000000000000000000000000000000000000000016146110175760405163075fd2b160e01b815260040160405180910390fd5b600154600003611017576040517f3da3f98c00000000000000000000000000000000000000000000000000000000815260040160405180910390fd5b6000825111612942576040517fc5f7c4c000000000000000000000000000000000000000000000000000000000815260040160405180910390fd5b6000828060200190518101906129589190615526565b905080600003612994576040517ff881a10d00000000000000000000000000000000000000000000000000000000815260040160405180910390fd5b60008181526018602052604090206001600d5460ff1660028111156129bb576129bb614b14565b0361221257805482146129e45760405163c1d17bef60e01b815260048101839052602401610fb1565b60025481600101541115612a3c5760018101546002546040517f5863b0b60000000000000000000000000000000000000000000000000000000081526004810185905260248101929092526044820152606401610fb1565b6001600882015460ff166006811115612a5757612a57614b14565b14612a78576040516344980d8f60e01b815260048101839052602401610fb1565b6000612a8383610f83565b90506000612a948360010154611894565b90508082108015612aa9575060008360010154115b15612ae0576040517fcce7930800000000000000000000000000000000000000000000000000000000815260040160405180910390fd5b6001546040517f068bcd8d0000000000000000000000000000000000000000000000000000000081526000916001600160a01b037f0000000000000000000000000000000000000000000000000000000000000000169163068bcd8d91612b4d9160040190815260200190565b600060405180830381865afa158015612b6a573d6000803e3d6000fd5b505050506040513d6000823e601f3d908101601f19168201604052612b929190810190615962565b9050836001015460026000828254612baa9190615477565b9091555050604081015160048501546001860154612bd292916001600160a01b031690613d5d565b601654600585015460115460405163099ea56b60e41b8152600481018990526001600160a01b03928316602482015260448101919091529116906399ea56b090606401600060405180830381600087803b158015612c2f57600080fd5b505af1158015612c43573d6000803e3d6000fd5b5050505060088401805460ff191660049081179091558401546001850154604080518881526001600160a01b0390931660208401528201527fa7932e9c92f31e1ed56b29d00bbe669a97484dc24de28dd9c8c0429df7f358479060600160405180910390a15050505050505050565b600080612cbf84846139f7565b91509150816000148015612cd1575080155b15612cdc5750505050565b600784015560039092019190915550565b601554604051637817ee4f60e01b81526001600160a01b03838116600483015230602483015290911690637817ee4f90604401602060405180830381865afa158015612d3d573d6000803e3d6000fd5b505050506040513d601f19601f82011682018060405250810190612d619190615526565b60096000828254612d729190615477565b90915550506015546040517f22bcf9990000000000000000000000000000000000000000000000000000000081526001600160a01b038381166004830152306024830152909116906322bcf99990604401600060405180830381600087803b158015612ddd57600080fd5b505af1158015612df1573d6000803e3d6000fd5b50505050612dfe81613da2565b6040516001600160a01b03821681527f1468da654b37bb3631011c1917d02e0db437d519918858d40b38b5e980ca033b90602001611889565b6000612e428261365e565b612e5f57604051630b72d6b160e31b815260040160405180910390fd5b600083806020019051810190612e759190615a16565b8051909150600003612eb3576040517f4e79178600000000000000000000000000000000000000000000000000000000815260040160405180910390fd5b6001600d5460ff166002811115612ecc57612ecc614b14565b0361307c57612ede8160200151613a4f565b60608101516001600160a01b0316612f22576040517f596a094c00000000000000000000000000000000000000000000000000000000815260040160405180910390fd5b6000306001600160a01b03166315cc481e6040518163ffffffff1660e01b8152600401602060405180830381865afa158015612f62573d6000803e3d6000fd5b505050506040513d601f19601f82011682018060405250810190612f86919061549d565b6001600160a01b031663068bcd8d6001546040518263ffffffff1660e01b8152600401612fb591815260200190565b600060405180830381865afa158015612fd2573d6000803e3d6000fd5b505050506040513d6000823e601f3d908101601f19168201604052612ffa9190810190615962565b604001519050806001600160a01b031682606001516001600160a01b03161461304f576040517fa29c498600000000000000000000000000000000000000000000000000000000815260040160405180910390fd5b61305c8260400151613637565b1561307a57604051630efd728560e21b815260040160405180910390fd5b505b600f546001600160a01b031615801590613097575060115434105b156130c257601154604051632c1f8ef160e21b81523460048201526024810191909152604401610fb1565b60006007600081546130d39061576c565b918290555060008181526018602090815260408083208481556005810180546001600160a01b038b81166001600160a01b0319928316179092558885015160048401805491841691831691909117905560608901516006840180549190931691161790559086015160018083019190915560088201805460ff19169091179055436007820155600381019290925560808501518051600a8401908155918101519394509192600b8401906131879082615b0b565b5050601654600583015460405163240ff7c560e11b8152600481018690526001600160a01b0391821660248201529116915063481fef8a9034906044016000604051808303818588803b1580156131dd57600080fd5b505af11580156131f1573d6000803e3d6000fd5b50505050507ffcf3b1aa65a464cef2889608f99e8b8c0f680a4be6c2acb9d961c536a5a9294b60015483604051613232929190918252602082015260400190565b60405180910390a150949350505050565b6015546001600160a01b03163314611017576040517faf0916a200000000000000000000000000000000000000000000000000000000815260040160405180910390fd5b601554604080516336d8759760e21b815290516000926012926001600160a01b039091169163db61d65c916004808201926020929091908290030181865afa1580156132d7573d6000803e3d6000fd5b505050506040513d601f19601f820116820180604052508101906132fb919061549d565b6001600160a01b031663313ce5676040518163ffffffff1660e01b8152600401602060405180830381865afa925050508015613354575060408051601f3d908101601f1916820190925261335191810190615bcb565b60015b61339b576133966040518060400160405280601581526020017f4572726f722067657474696e6720646563696d616c0000000000000000000000815250613f2f565b6133a1565b60ff1690505b6015546040516316308e2560e11b81526001600160a01b0386811660048301526000928692911690632c611c4a90602401602060405180830381865afa1580156133ef573d6000803e3d6000fd5b505050506040513d601f19601f820116820180604052508101906134139190615526565b61341d9190615477565b9050600061343e61342f84600a615cd2565b61343990846154f2565b613fa0565b601554604051637817ee4f60e01b81526001600160a01b03898116600483015230602483015292935060009284921690637817ee4f90604401602060405180830381865afa158015613494573d6000803e3d6000fd5b505050506040513d601f19601f820116820180604052508101906134b89190615526565b6134c29190615477565b979650505050505050565b6000600160801b83106135225760405162461bcd60e51b815260206004820152601c60248201527f5f612073686f756c64206265206c657373207468616e20325e313238000000006044820152606401610fb1565b50600160801b82825b801561356e5780600116600003613550576135468283614088565b915060011c61352b565b61355a8383614088565b9250613567600182615477565b905061352b565b505092915050565b601560009054906101000a90046001600160a01b03166001600160a01b0316636c53db9a6040518163ffffffff1660e01b8152600401602060405180830381865afa1580156135c9573d6000803e3d6000fd5b505050506040513d601f19601f820116820180604052508101906135ed919061549d565b6001600160a01b0316336001600160a01b031614611017576040517fe860ec7e00000000000000000000000000000000000000000000000000000000815260040160405180910390fd5b600061364662989680836154f2565b60025460055461365691906154f2565b111592915050565b6017546000906001600160a01b031661367957506001919050565b6017546040517f42a987a00000000000000000000000000000000000000000000000000000000081526001600160a01b038481166004830152306024830152909116906342a987a090604401602060405180830381865afa1580156136e2573d6000803e3d6000fd5b505050506040513d601f19601f82011682018060405250810190610ebe9190615509565b601554604051637817ee4f60e01b81526001600160a01b0384811660048301523060248301526000928492849290911690637817ee4f90604401602060405180830381865afa15801561375d573d6000803e3d6000fd5b505050506040513d601f19601f820116820180604052508101906137819190615526565b600e54909150613791838361548a565b11156137a857600e546137a5908290615477565b91505b509392505050565b6015546040516316308e2560e11b81526001600160a01b0384811660048301526000928392859290911690632c611c4a90602401602060405180830381865afa158015613801573d6000803e3d6000fd5b505050506040513d601f19601f820116820180604052508101906138259190615526565b61382f919061548a565b601554604080516336d8759760e21b815290519293506012926001600160a01b039092169163db61d65c916004808201926020929091908290030181865afa15801561387f573d6000803e3d6000fd5b505050506040513d601f19601f820116820180604052508101906138a3919061549d565b6001600160a01b031663313ce5676040518163ffffffff1660e01b8152600401602060405180830381865afa9250505080156138fc575060408051601f3d908101601f191682019092526138f991810190615bcb565b60015b6139435761393e6040518060400160405280601581526020017f4572726f722067657474696e6720646563696d616c0000000000000000000000815250613f2f565b613949565b60ff1690505b600061396361395983600a615cd2565b61343990856154f2565b601554604051637817ee4f60e01b81526001600160a01b03898116600483015230602483015292935060009290911690637817ee4f90604401602060405180830381865afa1580156139b9573d6000803e3d6000fd5b505050506040513d601f19601f820116820180604052508101906139dd9190615526565b905060006139eb8284615477565b98975050505050505050565b6000804390508084600701541115613a1157613a11615cde565b80846007015403613a2757506000905080613a48565b613a45846007015482613a3a9190615477565b856003015485611722565b91505b9250929050565b6001600160a01b0381166119e2576040517fe622e04000000000000000000000000000000000000000000000000000000000815260040160405180910390fd5b600260035403613ae15760405162461bcd60e51b815260206004820152601f60248201527f5265656e7472616e637947756172643a207265656e7472616e742063616c6c006044820152606401610fb1565b6002600355565b6000805460ff19168215159081179091556040519081527fd94c9bc4d43c51d8dc345a016d8e3d994432fac68e72832e4cf3a616bd8efae090602001611889565b60006001600160a01b03821615613b41576002610ebe565b600392915050565b613b51612882565b60015415613b8b576040517f439a74c900000000000000000000000000000000000000000000000000000000815260040160405180910390fd5b80600003613bc5576040517f7fcce2a900000000000000000000000000000000000000000000000000000000815260040160405180910390fd5b600155565b6040516bffffffffffffffffffffffff193360601b166020820152603481018290526000908190605401604051602081830303815290604052805190602001209050613c168482614187565b949350505050565b613c2781614224565b613c308161365e565b613c4d57604051630b72d6b160e31b815260040160405180910390fd5b60155460405163011de97360e61b81526001600160a01b038381166004830152306024830152600092169063477a5cc090604401602060405180830381865afa158015613c9e573d6000803e3d6000fd5b505050506040513d601f19601f82011682018060405250810190613cc29190615509565b905080613cfb576040517f5fccb67f00000000000000000000000000000000000000000000000000000000815260040160405180910390fd5b600083806020019051810190613d119190615cf4565b9050613d1d838261434a565b613d27838261450d565b50505050565b6040518181527f46aeb5d8770fc4474bc2dfa118fd2595f7fb33ce2cbce6f4e5a3dabfe0f7633990602001611889565b7fffffffffffffffffffffffff11111111111111111111111111111111111111126001600160a01b03841601613d9757610f3f8282614931565b610f3f83838361494d565b6001600160a01b0381166000908152601a6020908152604080832080548251818502810185019093528083529192909190830182828015613e0257602002820191906000526020600020905b815481526020019060010190808311613dee575b5050505050905060005b8151811015610f3f576000828281518110613e2957613e29615d9f565b602002602001015190506000601860008381526020019081526020016000209050613e538261499c565b15613f1a576001600160a01b0385166000908152600982016020526040812080549082905560028301805491928392613e8d908490615477565b925050819055508060086000828254613ea69190615477565b90915550613eb690508282612cb2565b60028201546003830154604080516001600160a01b038a1681526020810187905260008183015260608101939093526080830191909152517f0227f642ddcf2042ceaeafadb9d540f432072c00cd4862881667168dcc14710f9181900360a00190a1505b50508080613f279061576c565b915050613e0c565b6119e281604051602401613f439190615db5565b60408051601f198184030181529190526020810180517bffffffffffffffffffffffffffffffffffffffffffffffffffffffff167f41304fac000000000000000000000000000000000000000000000000000000001790526149d5565b600081600003613fb257506000919050565b60006001613fbf846149f6565b901c6001901b90506001818481613fd857613fd86154ba565b048201901c90506001818481613ff057613ff06154ba565b048201901c90506001818481614008576140086154ba565b048201901c90506001818481614020576140206154ba565b048201901c90506001818481614038576140386154ba565b048201901c90506001818481614050576140506154ba565b048201901c90506001818481614068576140686154ba565b048201901c905061103581828581614082576140826154ba565b04614a8a565b6000600160801b8311156141045760405162461bcd60e51b815260206004820152602860248201527f5f612073686f756c64206265206c657373207468616e206f7220657175616c2060448201527f746f20325e3132380000000000000000000000000000000000000000000000006064820152608401610fb1565b600160801b82106141575760405162461bcd60e51b815260206004820152601c60248201527f5f622073686f756c64206265206c657373207468616e20325e313238000000006044820152606401610fb1565b60806f8000000000000000000000000000000061417484866154f2565b61417e919061548a565b901c9392505050565b6000763d602d80600a3d3981f3363d3d373d3d3d363d730000008360601b60e81c176000526e5af43d82803e903d91602b57fd5bf38360781b1760205281603760096000f590506001600160a01b038116610ebe5760405162461bcd60e51b815260206004820152601760248201527f455243313136373a2063726561746532206661696c65640000000000000000006044820152606401610fb1565b6001600160a01b038116614264576040517fd1f2828800000000000000000000000000000000000000000000000000000000815260040160405180910390fd5b6015546001600160a01b031661428d57604051635df4b1ef60e01b815260040160405180910390fd5b6015546040517fa230c5240000000000000000000000000000000000000000000000000000000081526001600160a01b0383811660048301529091169063a230c52490602401602060405180830381865afa1580156142f0573d6000803e3d6000fd5b505050506040513d601f19601f820116820180604052508101906143149190615509565b6119e2576040517f6a5cfb6d00000000000000000000000000000000000000000000000000000000815260040160405180910390fd5b6000805b82518110156144075782818151811061436957614369615d9f565b602002602001015160000151600003156143f557600083828151811061439157614391615d9f565b60200260200101516000015190506143a88161499c565b6143c85760405163c1d17bef60e01b815260048101829052602401610fb1565b8382815181106143da576143da615d9f565b602002602001015160200151836143f19190615dc8565b9250505b806143ff8161576c565b91505061434e565b506001600160a01b03831660009081526019602052604081205461442b9083614aa0565b601554604051637817ee4f60e01b81526001600160a01b03878116600483015230602483015292935060009290911690637817ee4f90604401602060405180830381865afa158015614481573d6000803e3d6000fd5b505050506040513d601f19601f820116820180604052508101906144a59190615526565b9050808211156144eb576040517fd64182fe0000000000000000000000000000000000000000000000000000000081526004810183905260248101829052604401610fb1565b506001600160a01b039093166000908152601960205260409020929092555050565b606060005b8251811015613d2757600083828151811061452f5761452f615d9f565b6020026020010151600001519050825160000361458b576040805160018082528183019092529060208083019080368337019050509250808360008151811061457a5761457a615d9f565b6020026020010181815250506146de565b6000805b845181101561460a57828582815181106145ab576145ab615d9f565b6020026020010151036145f8576040517fadebb154000000000000000000000000000000000000000000000000000000008152600481018490526024810182905260019250604401610fb1565b806146028161576c565b91505061458f565b50806146dc57600084516001614620919061548a565b67ffffffffffffffff81111561463857614638614c93565b604051908082528060200260200182016040528015614661578160200160208202803683370190505b50905060005b85518110156146b95785818151811061468257614682615d9f565b602002602001015182828151811061469c5761469c615d9f565b6020908102919091010152806146b18161576c565b915050614667565b5082818651815181106146ce576146ce615d9f565b602090810291909101015293505b505b60008483815181106146f2576146f2615d9f565b60209081029190910181015181015160008481526018835260408082206001600160a01b038b168352600981019094528120549193506147328285614aa0565b6001600160a01b038a1660009081526009850160205260408120829055909150805b6001600160a01b038b166000908152601a60205260409020548110156147cb5784546001600160a01b038c166000908152601a602052604090208054839081106147a0576147a0615d9f565b9060005260206000200154036147b957600191506147cb565b806147c38161576c565b915050614754565b5080614801576001600160a01b038a166000908152601a6020908152604082208654815460018101835591845291909220909101555b818311614851576148128383615477565b60086000828254614823919061548a565b9091555061483390508383615477565b846002016000828254614846919061548a565b909155506148959050565b61485b8284615477565b6008600082825461486c9190615477565b9091555061487c90508284615477565b84600201600082825461488f9190615477565b90915550505b83600701546000036148ac57436007850155614918565b6148b68484612cb2565b60028401546003850154604080516001600160a01b038e168152602081018a9052908101859052606081019290925260808201527f0227f642ddcf2042ceaeafadb9d540f432072c00cd4862881667168dcc14710f9060a00160405180910390a15b50505050505080806149299061576c565b915050614512565b60008060008084865af16126b15763b12d13eb6000526004601cfd5b81601452806034526fa9059cbb00000000000000000000000060005260206000604460106000875af13d156001600051141716614992576390b8ec186000526004601cfd5b6000603452505050565b60008181526018602052604081205415801590610ebe5750506000908152601860205260409020600501546001600160a01b0316151590565b80516a636f6e736f6c652e6c6f67602083016000808483855afa5050505050565b600080608083901c15614a0b57608092831c92015b604083901c15614a1d57604092831c92015b602083901c15614a2f57602092831c92015b601083901c15614a4157601092831c92015b600883901c15614a5357600892831c92015b600483901c15614a6557600492831c92015b600283901c15614a7757600292831c92015b600183901c15610ebe5760010192915050565b6000818310614a995781611035565b5090919050565b600080614aad8385615dc8565b90506000811215611035576040517f3bbc7142000000000000000000000000000000000000000000000000000000008152600481018590526024810184905260448101829052606401610fb1565b600060208284031215614b0d57600080fd5b5035919050565b634e487b7160e01b600052602160045260246000fd5b600781106119e2576119e2614b14565b60005b83811015614b55578181015183820152602001614b3d565b50506000910152565b60008151808452614b76816020860160208601614b3a565b601f01601f19169290920160200192915050565b805182526000602082015160406020850152613c166040850182614b5e565b60006101a08f83528e60208401528d60408401528c60608401526001600160a01b03808d166080850152808c1660a0850152808b1660c08501528960e0850152614bf289614b2a565b8861010085015281610120850152614c0c82850189614b8a565b61014085019790975261016084019590955250509116610180909101529a9950505050505050505050565b600060208284031215614c4957600080fd5b81356001600160e01b03198116811461103557600080fd5b6001600160a01b03811681146119e257600080fd5b600060208284031215614c8857600080fd5b813561103581614c61565b634e487b7160e01b600052604160045260246000fd5b6040805190810167ffffffffffffffff81118282101715614ccc57614ccc614c93565b60405290565b60405160c0810167ffffffffffffffff81118282101715614ccc57614ccc614c93565b604051610140810167ffffffffffffffff81118282101715614ccc57614ccc614c93565b60405160a0810167ffffffffffffffff81118282101715614ccc57614ccc614c93565b604051601f8201601f1916810167ffffffffffffffff81118282101715614d6557614d65614c93565b604052919050565b600067ffffffffffffffff821115614d8757614d87614c93565b5060051b60200190565b600082601f830112614da257600080fd5b81356020614db7614db283614d6d565b614d3c565b82815260059290921b84018101918181019086841115614dd657600080fd5b8286015b84811015614dfa578035614ded81614c61565b8352918301918301614dda565b509695505050505050565b600067ffffffffffffffff821115614e1f57614e1f614c93565b50601f01601f191660200190565b600082601f830112614e3e57600080fd5b8135614e4c614db282614e05565b818152846020838601011115614e6157600080fd5b816020850160208301376000918101602001919091529392505050565b600080600060608486031215614e9357600080fd5b833567ffffffffffffffff80821115614eab57600080fd5b614eb787838801614d91565b94506020860135915080821115614ecd57600080fd5b50614eda86828701614e2d565b9250506040840135614eeb81614c61565b809150509250925092565b60008060408385031215614f0957600080fd5b823567ffffffffffffffff811115614f2057600080fd5b614f2c85828601614e2d565b9250506020830135614f3d81614c61565b809150509250929050565b60048110614f5857614f58614b14565b9052565b60208101610ebe8284614f48565b60008060408385031215614f7d57600080fd5b8235614f8881614c61565b946020939093013593505050565b60008060408385031215614fa957600080fd5b50508035926020909101359150565b600080600060608486031215614fcd57600080fd5b505081359360208301359350604090920135919050565b60038110614f5857614f58614b14565b60208101610ebe8284614fe4565b6020815260006110356020830184614b8a565b6000806040838503121561502857600080fd5b823567ffffffffffffffff8082111561504057600080fd5b61504c86838701614d91565b935060209150818501358181111561506357600080fd5b8501601f8101871361507457600080fd5b8035615082614db282614d6d565b81815260059190911b820184019084810190898311156150a157600080fd5b8584015b838110156150d9578035868111156150bd5760008081fd5b6150cb8c8983890101614e2d565b8452509186019186016150a5565b508096505050505050509250929050565b602080825282518282018190526000919060409081850190868401855b8281101561513557815180516001600160a01b03168552860151868501529284019290850190600101615107565b5091979650505050505050565b60008083601f84011261515457600080fd5b50813567ffffffffffffffff81111561516c57600080fd5b602083019150836020828501011115613a4857600080fd5b60008060008060006060868803121561519c57600080fd5b85359450602086013567ffffffffffffffff808211156151bb57600080fd5b6151c789838a01615142565b909650945060408801359150808211156151e057600080fd5b506151ed88828901615142565b969995985093965092949392505050565b80151581146119e257600080fd5b60006020828403121561521e57600080fd5b8135611035816151fe565b6001600160a01b038b811682528a81166020830152891660408201526060810188905260808101879052610140810161526187614b2a565b60a082019690965260c081019490945260e08401929092526101008301526101209091015295945050505050565b600080604083850312156152a257600080fd5b823591506020830135614f3d81614c61565b600060208083850312156152c757600080fd5b823567ffffffffffffffff8111156152de57600080fd5b8301601f810185136152ef57600080fd5b80356152fd614db282614d6d565b81815260069190911b8201830190838101908783111561531c57600080fd5b928401925b828410156134c2576040848903121561533a5760008081fd5b615342614ca9565b843581528585013586820152825260409093019290840190615321565b6020810161536c83614b2a565b91905290565b6000806040838503121561538557600080fd5b82359150602083013567ffffffffffffffff8111156153a357600080fd5b6153af85828601614e2d565b9150509250929050565b600060c082840312156153cb57600080fd5b6153d3614cd2565b82356153de81614c61565b815260208301356153ee81614c61565b8060208301525060408301356040820152606083013560608201526080830135608082015260a083013561542181614c61565b60a08201529392505050565b600181811c9082168061544157607f821691505b6020821081036119cb57634e487b7160e01b600052602260045260246000fd5b634e487b7160e01b600052601160045260246000fd5b81810381811115610ebe57610ebe615461565b80820180821115610ebe57610ebe615461565b6000602082840312156154af57600080fd5b815161103581614c61565b634e487b7160e01b600052601260045260246000fd5b6000826154ed57634e487b7160e01b600052601260045260246000fd5b500490565b8082028115828204841417610ebe57610ebe615461565b60006020828403121561551b57600080fd5b8151611035816151fe565b60006020828403121561553857600080fd5b5051919050565b81835281816020850137506000828201602090810191909152601f909101601f19169091010190565b83815260406020820152600061558260408301848661553f565b95945050505050565b60006001600160a01b03808a16835288602084015287604084015280871660608401525060c060808301526155c460c08301858761553f565b90508260a083015298975050505050505050565b80516155e381614c61565b919050565b8051600381106155e357600080fd5b8051600481106155e357600080fd5b60006020828403121561561857600080fd5b6040516020810181811067ffffffffffffffff8211171561563b5761563b614c93565b6040529151825250919050565b600060c0828403121561565a57600080fd5b615662614cd2565b9050815161566f81614c61565b8152602082015161567f81614c61565b8060208301525060408201516040820152606082015160608201526080820151608082015260a08201516156b281614c61565b60a082015292915050565b60006101e082840312156156d057600080fd5b6156d8614cf5565b6156e1836155d8565b81526020830151602082015260408301516040820152606083015160608201526080830151608082015261571760a084016155e8565b60a082015261572860c084016155f7565b60c082015261573a8460e08501615606565b60e082015261010061574e85828601615648565b9082015261575f6101c084016155d8565b6101208201529392505050565b60006001820161577e5761577e615461565b5060010190565b82815281516001600160a01b031660208201526102008101602083015160408301526040830151606083015260608301516080830152608083015160a083015260a08301516157d760c0840182614fe4565b5060c08301516157ea60e0840182614f48565b5060e08301516101006157ff81850183519052565b8401519050610120615857848201836001600160a01b038082511683528060208301511660208401526040820151604084015260608201516060840152608082015160808401528060a08301511660a0840152505050565b8401516001600160a01b0381166101e08501529050509392505050565b6001600160a01b038316815260e0810161103560208301846001600160a01b038082511683528060208301511660208401526040820151604084015260608201516060840152608082015160808401528060a08301511660a0840152505050565b6000604082840312156158e757600080fd5b6158ef614ca9565b905081518152602082015167ffffffffffffffff81111561590f57600080fd5b8201601f8101841361592057600080fd5b805161592e614db282614e05565b81815285602083850101111561594357600080fd5b615954826020830160208601614b3a565b602084015250909392505050565b60006020828403121561597457600080fd5b815167ffffffffffffffff8082111561598c57600080fd5b9083019060c082860312156159a057600080fd5b6159a8614cd2565b8251815260208301516159ba81614c61565b602082015260408301516159cd81614c61565b60408201526060830151828111156159e457600080fd5b6159f0878286016158d5565b6060830152506080830151608082015260a083015160a082015280935050505092915050565b600060208284031215615a2857600080fd5b815167ffffffffffffffff80821115615a4057600080fd5b9083019060a08286031215615a5457600080fd5b615a5c614d19565b825181526020830151615a6e81614c61565b6020820152604083810151908201526060830151615a8b81614c61565b6060820152608083015182811115615aa257600080fd5b615aae878286016158d5565b60808301525095945050505050565b601f821115610f3f57600081815260208120601f850160051c81016020861015615ae45750805b601f850160051c820191505b81811015615b0357828155600101615af0565b505050505050565b815167ffffffffffffffff811115615b2557615b25614c93565b615b3981615b33845461542d565b84615abd565b602080601f831160018114615b6e5760008415615b565750858301515b600019600386901b1c1916600185901b178555615b03565b600085815260208120601f198616915b82811015615b9d57888601518255948401946001909101908401615b7e565b5085821015615bbb5787850151600019600388901b60f8161c191681555b5050505050600190811b01905550565b600060208284031215615bdd57600080fd5b815160ff8116811461103557600080fd5b600181815b80851115615c29578160001904821115615c0f57615c0f615461565b80851615615c1c57918102915b93841c9390800290615bf3565b509250929050565b600082615c4057506001610ebe565b81615c4d57506000610ebe565b8160018114615c635760028114615c6d57615c89565b6001915050610ebe565b60ff841115615c7e57615c7e615461565b50506001821b610ebe565b5060208310610133831016604e8410600b8410161715615cac575081810a610ebe565b615cb68383615bee565b8060001904821115615cca57615cca615461565b029392505050565b60006110358383615c31565b634e487b7160e01b600052600160045260246000fd5b60006020808385031215615d0757600080fd5b825167ffffffffffffffff811115615d1e57600080fd5b8301601f81018513615d2f57600080fd5b8051615d3d614db282614d6d565b81815260069190911b82018301908381019087831115615d5c57600080fd5b928401925b828410156134c25760408489031215615d7a5760008081fd5b615d82614ca9565b845181528585015186820152825260409093019290840190615d61565b634e487b7160e01b600052603260045260246000fd5b6020815260006110356020830184614b5e565b808201828112600083128015821682158216171561356e5761356e61546156fea264697066735822122040c17cdd61be31bcfbb2d3ff462ea4f21dfc64ff4ea271888009b698ffdf1b2964736f6c63430008130033","linkReferences":{}},"methodIdentifiers":{"D()":"0f529ba2","MAX_STAKED_PROPOSALS()":"406244d8","NATIVE()":"a0cf0aea","RULING_OPTIONS()":"626c47e8","_minThresholdPoints()":"7c6570ba","activatePoints()":"814516ad","allocate(bytes,address)":"ef2920fc","arbitrableConfig()":"1073e996","calculateConviction(uint256,uint256,uint256)":"346db8cb","calculateThreshold(uint256)":"59a5db8b","canExecuteProposal(uint256)":"824ea8ed","cloneNonce()":"33960459","collateralVault()":"0bece79c","deactivatePoints()":"1ddf1e23","deactivatePoints(address)":"6453d9c4","decay()":"54fac919","decreasePower(address,uint256)":"2ed04b2b","disputeIdToProposalId(uint256)":"255ffb38","disputeProposal(uint256,string,bytes)":"b41596ec","distribute(address[],bytes,address)":"0a6f0ee9","getAllo()":"15cc481e","getCollateralVault()":"285a722d","getMaxAmount()":"0ba95909","getMaxConviction(uint256)":"950559d7","getMetadata(uint256)":"a574cea4","getPayouts(address[],bytes[])":"b2b878d0","getPointSystem()":"c3292171","getPoolAmount()":"4ab4ba42","getPoolId()":"38fff2d0","getProposal(uint256)":"c7f758a8","getProposalStakedAmount(uint256)":"dc96ff2d","getProposalVoterStake(uint256,address)":"e0dd2c38","getRecipientStatus(address)":"eb11af93","getStrategyId()":"42fda9c7","getTotalVoterStakePct(address)":"bcc5b93b","increasePoolAmount(uint256)":"f5b0dfb7","increasePower(address,uint256)":"782aadff","initialize(uint256,bytes)":"edd146cc","isPoolActive()":"df868ed3","isValidAllocator(address)":"4d31d087","maxRatio()":"76365af7","pointConfig()":"a47ff7e5","pointSystem()":"2dbd6fdd","proposalCounter()":"0c0512e9","proposalType()":"351d9f96","proposals(uint256)":"013cf08b","registerRecipient(bytes,address)":"2bbe0cae","registerTribunalSafe(address)":"4e2ffa88","registryCommunity()":"6003e414","rule(uint256,uint256)":"311a6c56","setArbitrationConfig((address,address,uint256,uint256,uint256,address))":"f9dd5098","setCollateralVault(address)":"68a806c4","setDecay(uint256)":"69fa25c4","setMaxRatio(uint256)":"11f22ae3","setMinThresholdPoints(uint256)":"2cefadbb","setPoolActive(bool)":"b5f620ce","setRegistryCommunity(address)":"058aca44","setSybilScorer(address)":"ac1ed7b9","setWeight(uint256)":"fc1711f2","supportProposal((uint256,int256)[])":"e33add93","supportsInterface(bytes4)":"01ffc9a7","sybilScorer()":"b6c61f31","totalEffectiveActivePoints()":"d1e36232","totalPointsActivated()":"aba9ffee","totalStaked()":"817b1cd2","totalVoterStakePct(address)":"5db64b99","updateProposalConviction(uint256)":"1aa91a9e","voterStakedProposals(address,uint256)":"868c57b8","weight()":"a1aab33f"},"storageLayout":{"storage":[{"astId":3339,"contract":"pkg/contracts/src/CVStrategy.sol:CVStrategy","label":"poolActive","offset":0,"slot":"0","type":"t_bool"},{"astId":3341,"contract":"pkg/contracts/src/CVStrategy.sol:CVStrategy","label":"poolId","offset":0,"slot":"1","type":"t_uint256"},{"astId":3343,"contract":"pkg/contracts/src/CVStrategy.sol:CVStrategy","label":"poolAmount","offset":0,"slot":"2","type":"t_uint256"},{"astId":56224,"contract":"pkg/contracts/src/CVStrategy.sol:CVStrategy","label":"_status","offset":0,"slot":"3","type":"t_uint256"},{"astId":75427,"contract":"pkg/contracts/src/CVStrategy.sol:CVStrategy","label":"decay","offset":0,"slot":"4","type":"t_uint256"},{"astId":75429,"contract":"pkg/contracts/src/CVStrategy.sol:CVStrategy","label":"maxRatio","offset":0,"slot":"5","type":"t_uint256"},{"astId":75431,"contract":"pkg/contracts/src/CVStrategy.sol:CVStrategy","label":"weight","offset":0,"slot":"6","type":"t_uint256"},{"astId":75434,"contract":"pkg/contracts/src/CVStrategy.sol:CVStrategy","label":"proposalCounter","offset":0,"slot":"7","type":"t_uint256"},{"astId":75436,"contract":"pkg/contracts/src/CVStrategy.sol:CVStrategy","label":"totalStaked","offset":0,"slot":"8","type":"t_uint256"},{"astId":75438,"contract":"pkg/contracts/src/CVStrategy.sol:CVStrategy","label":"totalPointsActivated","offset":0,"slot":"9","type":"t_uint256"},{"astId":75441,"contract":"pkg/contracts/src/CVStrategy.sol:CVStrategy","label":"_minThresholdPoints","offset":0,"slot":"10","type":"t_uint256"},{"astId":75443,"contract":"pkg/contracts/src/CVStrategy.sol:CVStrategy","label":"surpressStateMutabilityWarning","offset":0,"slot":"11","type":"t_uint256"},{"astId":75445,"contract":"pkg/contracts/src/CVStrategy.sol:CVStrategy","label":"cloneNonce","offset":0,"slot":"12","type":"t_uint256"},{"astId":75448,"contract":"pkg/contracts/src/CVStrategy.sol:CVStrategy","label":"proposalType","offset":0,"slot":"13","type":"t_enum(ProposalType)75048"},{"astId":75451,"contract":"pkg/contracts/src/CVStrategy.sol:CVStrategy","label":"pointSystem","offset":1,"slot":"13","type":"t_enum(PointSystem)75053"},{"astId":75454,"contract":"pkg/contracts/src/CVStrategy.sol:CVStrategy","label":"pointConfig","offset":0,"slot":"14","type":"t_struct(PointSystemConfig)75114_storage"},{"astId":75457,"contract":"pkg/contracts/src/CVStrategy.sol:CVStrategy","label":"arbitrableConfig","offset":0,"slot":"15","type":"t_struct(ArbitrableConfig)75128_storage"},{"astId":75460,"contract":"pkg/contracts/src/CVStrategy.sol:CVStrategy","label":"registryCommunity","offset":0,"slot":"21","type":"t_contract(RegistryCommunity)84893"},{"astId":75462,"contract":"pkg/contracts/src/CVStrategy.sol:CVStrategy","label":"collateralVault","offset":0,"slot":"22","type":"t_address"},{"astId":75465,"contract":"pkg/contracts/src/CVStrategy.sol:CVStrategy","label":"sybilScorer","offset":0,"slot":"23","type":"t_contract(ISybilScorer)82477"},{"astId":75470,"contract":"pkg/contracts/src/CVStrategy.sol:CVStrategy","label":"proposals","offset":0,"slot":"24","type":"t_mapping(t_uint256,t_struct(Proposal)75106_storage)"},{"astId":75474,"contract":"pkg/contracts/src/CVStrategy.sol:CVStrategy","label":"totalVoterStakePct","offset":0,"slot":"25","type":"t_mapping(t_address,t_uint256)"},{"astId":75479,"contract":"pkg/contracts/src/CVStrategy.sol:CVStrategy","label":"voterStakedProposals","offset":0,"slot":"26","type":"t_mapping(t_address,t_array(t_uint256)dyn_storage)"},{"astId":75483,"contract":"pkg/contracts/src/CVStrategy.sol:CVStrategy","label":"disputeIdToProposalId","offset":0,"slot":"27","type":"t_mapping(t_uint256,t_uint256)"}],"types":{"t_address":{"encoding":"inplace","label":"address","numberOfBytes":"20"},"t_array(t_uint256)dyn_storage":{"encoding":"dynamic_array","label":"uint256[]","numberOfBytes":"32","base":"t_uint256"},"t_bool":{"encoding":"inplace","label":"bool","numberOfBytes":"1"},"t_contract(IArbitrator)87931":{"encoding":"inplace","label":"contract IArbitrator","numberOfBytes":"20"},"t_contract(ISybilScorer)82477":{"encoding":"inplace","label":"contract ISybilScorer","numberOfBytes":"20"},"t_contract(RegistryCommunity)84893":{"encoding":"inplace","label":"contract RegistryCommunity","numberOfBytes":"20"},"t_enum(PointSystem)75053":{"encoding":"inplace","label":"enum StrategyStruct.PointSystem","numberOfBytes":"1"},"t_enum(ProposalStatus)75073":{"encoding":"inplace","label":"enum StrategyStruct.ProposalStatus","numberOfBytes":"1"},"t_enum(ProposalType)75048":{"encoding":"inplace","label":"enum StrategyStruct.ProposalType","numberOfBytes":"1"},"t_mapping(t_address,t_array(t_uint256)dyn_storage)":{"encoding":"mapping","key":"t_address","label":"mapping(address => uint256[])","numberOfBytes":"32","value":"t_array(t_uint256)dyn_storage"},"t_mapping(t_address,t_uint256)":{"encoding":"mapping","key":"t_address","label":"mapping(address => uint256)","numberOfBytes":"32","value":"t_uint256"},"t_mapping(t_uint256,t_struct(Proposal)75106_storage)":{"encoding":"mapping","key":"t_uint256","label":"mapping(uint256 => struct StrategyStruct.Proposal)","numberOfBytes":"32","value":"t_struct(Proposal)75106_storage"},"t_mapping(t_uint256,t_uint256)":{"encoding":"mapping","key":"t_uint256","label":"mapping(uint256 => uint256)","numberOfBytes":"32","value":"t_uint256"},"t_string_storage":{"encoding":"bytes","label":"string","numberOfBytes":"32"},"t_struct(ArbitrableConfig)75128_storage":{"encoding":"inplace","label":"struct StrategyStruct.ArbitrableConfig","numberOfBytes":"192","members":[{"astId":75117,"contract":"pkg/contracts/src/CVStrategy.sol:CVStrategy","label":"arbitrator","offset":0,"slot":"0","type":"t_contract(IArbitrator)87931"},{"astId":75119,"contract":"pkg/contracts/src/CVStrategy.sol:CVStrategy","label":"tribunalSafe","offset":0,"slot":"1","type":"t_address"},{"astId":75121,"contract":"pkg/contracts/src/CVStrategy.sol:CVStrategy","label":"collateralAmount","offset":0,"slot":"2","type":"t_uint256"},{"astId":75123,"contract":"pkg/contracts/src/CVStrategy.sol:CVStrategy","label":"defaultRuling","offset":0,"slot":"3","type":"t_uint256"},{"astId":75125,"contract":"pkg/contracts/src/CVStrategy.sol:CVStrategy","label":"defaultRulingTimeout","offset":0,"slot":"4","type":"t_uint256"},{"astId":75127,"contract":"pkg/contracts/src/CVStrategy.sol:CVStrategy","label":"collateralVaultTemplate","offset":0,"slot":"5","type":"t_address"}]},"t_struct(Metadata)3098_storage":{"encoding":"inplace","label":"struct Metadata","numberOfBytes":"64","members":[{"astId":3094,"contract":"pkg/contracts/src/CVStrategy.sol:CVStrategy","label":"protocol","offset":0,"slot":"0","type":"t_uint256"},{"astId":3097,"contract":"pkg/contracts/src/CVStrategy.sol:CVStrategy","label":"pointer","offset":0,"slot":"1","type":"t_string_storage"}]},"t_struct(PointSystemConfig)75114_storage":{"encoding":"inplace","label":"struct StrategyStruct.PointSystemConfig","numberOfBytes":"32","members":[{"astId":75113,"contract":"pkg/contracts/src/CVStrategy.sol:CVStrategy","label":"maxAmount","offset":0,"slot":"0","type":"t_uint256"}]},"t_struct(Proposal)75106_storage":{"encoding":"inplace","label":"struct StrategyStruct.Proposal","numberOfBytes":"480","members":[{"astId":75075,"contract":"pkg/contracts/src/CVStrategy.sol:CVStrategy","label":"proposalId","offset":0,"slot":"0","type":"t_uint256"},{"astId":75077,"contract":"pkg/contracts/src/CVStrategy.sol:CVStrategy","label":"requestedAmount","offset":0,"slot":"1","type":"t_uint256"},{"astId":75079,"contract":"pkg/contracts/src/CVStrategy.sol:CVStrategy","label":"stakedAmount","offset":0,"slot":"2","type":"t_uint256"},{"astId":75081,"contract":"pkg/contracts/src/CVStrategy.sol:CVStrategy","label":"convictionLast","offset":0,"slot":"3","type":"t_uint256"},{"astId":75083,"contract":"pkg/contracts/src/CVStrategy.sol:CVStrategy","label":"beneficiary","offset":0,"slot":"4","type":"t_address"},{"astId":75085,"contract":"pkg/contracts/src/CVStrategy.sol:CVStrategy","label":"submitter","offset":0,"slot":"5","type":"t_address"},{"astId":75087,"contract":"pkg/contracts/src/CVStrategy.sol:CVStrategy","label":"requestedToken","offset":0,"slot":"6","type":"t_address"},{"astId":75089,"contract":"pkg/contracts/src/CVStrategy.sol:CVStrategy","label":"blockLast","offset":0,"slot":"7","type":"t_uint256"},{"astId":75092,"contract":"pkg/contracts/src/CVStrategy.sol:CVStrategy","label":"proposalStatus","offset":0,"slot":"8","type":"t_enum(ProposalStatus)75073"},{"astId":75096,"contract":"pkg/contracts/src/CVStrategy.sol:CVStrategy","label":"voterStakedPoints","offset":0,"slot":"9","type":"t_mapping(t_address,t_uint256)"},{"astId":75099,"contract":"pkg/contracts/src/CVStrategy.sol:CVStrategy","label":"metadata","offset":0,"slot":"10","type":"t_struct(Metadata)3098_storage"},{"astId":75101,"contract":"pkg/contracts/src/CVStrategy.sol:CVStrategy","label":"disputeId","offset":0,"slot":"12","type":"t_uint256"},{"astId":75103,"contract":"pkg/contracts/src/CVStrategy.sol:CVStrategy","label":"disputeTimestamp","offset":0,"slot":"13","type":"t_uint256"},{"astId":75105,"contract":"pkg/contracts/src/CVStrategy.sol:CVStrategy","label":"challenger","offset":0,"slot":"14","type":"t_address"}]},"t_uint256":{"encoding":"inplace","label":"uint256","numberOfBytes":"32"}}},"id":130}