{"abi":[{"type":"fallback","stateMutability":"payable"},{"type":"receive","stateMutability":"payable"},{"type":"function","name":"DISPUTE_COOLDOWN_SEC","inputs":[],"outputs":[{"name":"","type":"uint256","internalType":"uint256"}],"stateMutability":"view"},{"type":"function","name":"NATIVE","inputs":[],"outputs":[{"name":"","type":"address","internalType":"address"}],"stateMutability":"view"},{"type":"function","name":"RULING_OPTIONS","inputs":[],"outputs":[{"name":"","type":"uint256","internalType":"uint256"}],"stateMutability":"view"},{"type":"function","name":"activatePoints","inputs":[],"outputs":[],"stateMutability":"nonpayable"},{"type":"function","name":"allocate","inputs":[{"name":"","type":"bytes","internalType":"bytes"},{"name":"","type":"address","internalType":"address"}],"outputs":[],"stateMutability":"payable"},{"type":"function","name":"arbitrableConfigs","inputs":[{"name":"","type":"uint256","internalType":"uint256"}],"outputs":[{"name":"arbitrator","type":"address","internalType":"contract IArbitrator"},{"name":"tribunalSafe","type":"address","internalType":"address"},{"name":"submitterCollateralAmount","type":"uint256","internalType":"uint256"},{"name":"challengerCollateralAmount","type":"uint256","internalType":"uint256"},{"name":"defaultRuling","type":"uint256","internalType":"uint256"},{"name":"defaultRulingTimeout","type":"uint256","internalType":"uint256"}],"stateMutability":"view"},{"type":"function","name":"calculateProposalConviction","inputs":[{"name":"_proposalId","type":"uint256","internalType":"uint256"}],"outputs":[{"name":"","type":"uint256","internalType":"uint256"}],"stateMutability":"view"},{"type":"function","name":"calculateThreshold","inputs":[{"name":"_requestedAmount","type":"uint256","internalType":"uint256"}],"outputs":[{"name":"","type":"uint256","internalType":"uint256"}],"stateMutability":"view"},{"type":"function","name":"cancelProposal","inputs":[{"name":"","type":"uint256","internalType":"uint256"}],"outputs":[],"stateMutability":"nonpayable"},{"type":"function","name":"cloneNonce","inputs":[],"outputs":[{"name":"","type":"uint256","internalType":"uint256"}],"stateMutability":"view"},{"type":"function","name":"collateralVault","inputs":[],"outputs":[{"name":"","type":"address","internalType":"contract ICollateralVault"}],"stateMutability":"view"},{"type":"function","name":"connectSuperfluidGDA","inputs":[{"name":"","type":"address","internalType":"address"}],"outputs":[],"stateMutability":"nonpayable"},{"type":"function","name":"currentArbitrableConfigVersion","inputs":[],"outputs":[{"name":"","type":"uint256","internalType":"uint256"}],"stateMutability":"view"},{"type":"function","name":"cvParams","inputs":[],"outputs":[{"name":"maxRatio","type":"uint256","internalType":"uint256"},{"name":"weight","type":"uint256","internalType":"uint256"},{"name":"decay","type":"uint256","internalType":"uint256"},{"name":"minThresholdPoints","type":"uint256","internalType":"uint256"}],"stateMutability":"view"},{"type":"function","name":"deactivatePoints","inputs":[],"outputs":[],"stateMutability":"nonpayable"},{"type":"function","name":"deactivatePoints","inputs":[{"name":"","type":"address","internalType":"address"}],"outputs":[],"stateMutability":"nonpayable"},{"type":"function","name":"decreasePower","inputs":[{"name":"","type":"address","internalType":"address"},{"name":"","type":"uint256","internalType":"uint256"}],"outputs":[{"name":"","type":"uint256","internalType":"uint256"}],"stateMutability":"nonpayable"},{"type":"function","name":"diamondCut","inputs":[{"name":"_diamondCut","type":"tuple[]","internalType":"struct IDiamond.FacetCut[]","components":[{"name":"facetAddress","type":"address","internalType":"address"},{"name":"action","type":"uint8","internalType":"enum IDiamond.FacetCutAction"},{"name":"functionSelectors","type":"bytes4[]","internalType":"bytes4[]"}]},{"name":"_init","type":"address","internalType":"address"},{"name":"_calldata","type":"bytes","internalType":"bytes"}],"outputs":[],"stateMutability":"nonpayable"},{"type":"function","name":"disconnectSuperfluidGDA","inputs":[{"name":"","type":"address","internalType":"address"}],"outputs":[],"stateMutability":"nonpayable"},{"type":"function","name":"disputeCount","inputs":[],"outputs":[{"name":"","type":"uint64","internalType":"uint64"}],"stateMutability":"view"},{"type":"function","name":"disputeIdToProposalId","inputs":[{"name":"","type":"uint256","internalType":"uint256"}],"outputs":[{"name":"","type":"uint256","internalType":"uint256"}],"stateMutability":"view"},{"type":"function","name":"disputeProposal","inputs":[{"name":"proposalId","type":"uint256","internalType":"uint256"},{"name":"context","type":"string","internalType":"string"},{"name":"_extraData","type":"bytes","internalType":"bytes"}],"outputs":[{"name":"","type":"uint256","internalType":"uint256"}],"stateMutability":"payable"},{"type":"function","name":"distribute","inputs":[{"name":"","type":"address[]","internalType":"address[]"},{"name":"","type":"bytes","internalType":"bytes"},{"name":"","type":"address","internalType":"address"}],"outputs":[],"stateMutability":"nonpayable"},{"type":"function","name":"editProposal","inputs":[{"name":"","type":"uint256","internalType":"uint256"},{"name":"","type":"tuple","internalType":"struct Metadata","components":[{"name":"protocol","type":"uint256","internalType":"uint256"},{"name":"pointer","type":"string","internalType":"string"}]},{"name":"","type":"address","internalType":"address"},{"name":"","type":"uint256","internalType":"uint256"}],"outputs":[],"stateMutability":"nonpayable"},{"type":"function","name":"getAllo","inputs":[],"outputs":[{"name":"","type":"address","internalType":"contract IAllo"}],"stateMutability":"view"},{"type":"function","name":"getArbitrableConfig","inputs":[],"outputs":[{"name":"arbitrator","type":"address","internalType":"contract IArbitrator"},{"name":"tribunalSafe","type":"address","internalType":"address"},{"name":"submitterCollateralAmount","type":"uint256","internalType":"uint256"},{"name":"challengerCollateralAmount","type":"uint256","internalType":"uint256"},{"name":"defaultRuling","type":"uint256","internalType":"uint256"},{"name":"defaultRulingTimeout","type":"uint256","internalType":"uint256"}],"stateMutability":"view"},{"type":"function","name":"getFacets","inputs":[],"outputs":[{"name":"facets_","type":"tuple[]","internalType":"struct IDiamondLoupe.Facet[]","components":[{"name":"facetAddress","type":"address","internalType":"address"},{"name":"functionSelectors","type":"bytes4[]","internalType":"bytes4[]"}]}],"stateMutability":"view"},{"type":"function","name":"getMaxAmount","inputs":[],"outputs":[{"name":"","type":"uint256","internalType":"uint256"}],"stateMutability":"view"},{"type":"function","name":"getPointSystem","inputs":[],"outputs":[{"name":"","type":"uint8","internalType":"enum PointSystem"}],"stateMutability":"view"},{"type":"function","name":"getPoolAmount","inputs":[],"outputs":[{"name":"","type":"uint256","internalType":"uint256"}],"stateMutability":"view"},{"type":"function","name":"getPoolId","inputs":[],"outputs":[{"name":"","type":"uint256","internalType":"uint256"}],"stateMutability":"view"},{"type":"function","name":"getProposal","inputs":[{"name":"_proposalId","type":"uint256","internalType":"uint256"}],"outputs":[{"name":"submitter","type":"address","internalType":"address"},{"name":"beneficiary","type":"address","internalType":"address"},{"name":"requestedToken","type":"address","internalType":"address"},{"name":"requestedAmount","type":"uint256","internalType":"uint256"},{"name":"stakedAmount","type":"uint256","internalType":"uint256"},{"name":"proposalStatus","type":"uint8","internalType":"enum ProposalStatus"},{"name":"blockLast","type":"uint256","internalType":"uint256"},{"name":"convictionLast","type":"uint256","internalType":"uint256"},{"name":"threshold","type":"uint256","internalType":"uint256"},{"name":"voterStakedPoints","type":"uint256","internalType":"uint256"},{"name":"arbitrableConfigVersion","type":"uint256","internalType":"uint256"},{"name":"protocol","type":"uint256","internalType":"uint256"}],"stateMutability":"view"},{"type":"function","name":"getProposalStakedAmount","inputs":[{"name":"_proposalId","type":"uint256","internalType":"uint256"}],"outputs":[{"name":"","type":"uint256","internalType":"uint256"}],"stateMutability":"view"},{"type":"function","name":"getProposalVoterStake","inputs":[{"name":"_proposalId","type":"uint256","internalType":"uint256"},{"name":"_voter","type":"address","internalType":"address"}],"outputs":[{"name":"","type":"uint256","internalType":"uint256"}],"stateMutability":"view"},{"type":"function","name":"increasePower","inputs":[{"name":"","type":"address","internalType":"address"},{"name":"","type":"uint256","internalType":"uint256"}],"outputs":[{"name":"","type":"uint256","internalType":"uint256"}],"stateMutability":"nonpayable"},{"type":"function","name":"init","inputs":[{"name":"_allo","type":"address","internalType":"address"},{"name":"_collateralVaultTemplate","type":"address","internalType":"address"},{"name":"_owner","type":"address","internalType":"address"}],"outputs":[],"stateMutability":"nonpayable"},{"type":"function","name":"init","inputs":[{"name":"_allo","type":"address","internalType":"address"},{"name":"_name","type":"string","internalType":"string"},{"name":"_owner","type":"address","internalType":"address"}],"outputs":[],"stateMutability":"nonpayable"},{"type":"function","name":"initialize","inputs":[{"name":"initialOwner","type":"address","internalType":"address"}],"outputs":[],"stateMutability":"nonpayable"},{"type":"function","name":"initialize","inputs":[{"name":"_poolId","type":"uint256","internalType":"uint256"},{"name":"_data","type":"bytes","internalType":"bytes"}],"outputs":[],"stateMutability":"nonpayable"},{"type":"function","name":"isPoolActive","inputs":[],"outputs":[{"name":"","type":"bool","internalType":"bool"}],"stateMutability":"view"},{"type":"function","name":"owner","inputs":[],"outputs":[{"name":"","type":"address","internalType":"address"}],"stateMutability":"view"},{"type":"function","name":"pointConfig","inputs":[],"outputs":[{"name":"maxAmount","type":"uint256","internalType":"uint256"}],"stateMutability":"view"},{"type":"function","name":"pointSystem","inputs":[],"outputs":[{"name":"","type":"uint8","internalType":"enum PointSystem"}],"stateMutability":"view"},{"type":"function","name":"proposalCounter","inputs":[],"outputs":[{"name":"","type":"uint256","internalType":"uint256"}],"stateMutability":"view"},{"type":"function","name":"proposalType","inputs":[],"outputs":[{"name":"","type":"uint8","internalType":"enum ProposalType"}],"stateMutability":"view"},{"type":"function","name":"proposals","inputs":[{"name":"","type":"uint256","internalType":"uint256"}],"outputs":[{"name":"proposalId","type":"uint256","internalType":"uint256"},{"name":"requestedAmount","type":"uint256","internalType":"uint256"},{"name":"stakedAmount","type":"uint256","internalType":"uint256"},{"name":"convictionLast","type":"uint256","internalType":"uint256"},{"name":"beneficiary","type":"address","internalType":"address"},{"name":"submitter","type":"address","internalType":"address"},{"name":"requestedToken","type":"address","internalType":"address"},{"name":"blockLast","type":"uint256","internalType":"uint256"},{"name":"proposalStatus","type":"uint8","internalType":"enum ProposalStatus"},{"name":"metadata","type":"tuple","internalType":"struct Metadata","components":[{"name":"protocol","type":"uint256","internalType":"uint256"},{"name":"pointer","type":"string","internalType":"string"}]},{"name":"disputeInfo","type":"tuple","internalType":"struct ProposalDisputeInfo","components":[{"name":"disputeId","type":"uint256","internalType":"uint256"},{"name":"disputeTimestamp","type":"uint256","internalType":"uint256"},{"name":"challenger","type":"address","internalType":"address"}]},{"name":"lastDisputeCompletion","type":"uint256","internalType":"uint256"},{"name":"arbitrableConfigVersion","type":"uint256","internalType":"uint256"},{"name":"creationTimestamp","type":"uint256","internalType":"uint256"}],"stateMutability":"view"},{"type":"function","name":"proxiableUUID","inputs":[],"outputs":[{"name":"","type":"bytes32","internalType":"bytes32"}],"stateMutability":"view"},{"type":"function","name":"proxyOwner","inputs":[],"outputs":[{"name":"","type":"address","internalType":"address"}],"stateMutability":"view"},{"type":"function","name":"rebalance","inputs":[],"outputs":[],"stateMutability":"nonpayable"},{"type":"function","name":"registerRecipient","inputs":[{"name":"","type":"bytes","internalType":"bytes"},{"name":"","type":"address","internalType":"address"}],"outputs":[{"name":"","type":"address","internalType":"address"}],"stateMutability":"payable"},{"type":"function","name":"registryCommunity","inputs":[],"outputs":[{"name":"","type":"address","internalType":"contract RegistryCommunity"}],"stateMutability":"view"},{"type":"function","name":"renounceOwnership","inputs":[],"outputs":[],"stateMutability":"nonpayable"},{"type":"function","name":"rule","inputs":[{"name":"","type":"uint256","internalType":"uint256"},{"name":"","type":"uint256","internalType":"uint256"}],"outputs":[],"stateMutability":"nonpayable"},{"type":"function","name":"setCollateralVaultTemplate","inputs":[{"name":"template","type":"address","internalType":"address"}],"outputs":[],"stateMutability":"nonpayable"},{"type":"function","name":"setPoolActive","inputs":[{"name":"_active","type":"bool","internalType":"bool"}],"outputs":[],"stateMutability":"nonpayable"},{"type":"function","name":"setPoolParams","inputs":[{"name":"","type":"tuple","internalType":"struct ArbitrableConfig","components":[{"name":"arbitrator","type":"address","internalType":"contract IArbitrator"},{"name":"tribunalSafe","type":"address","internalType":"address"},{"name":"submitterCollateralAmount","type":"uint256","internalType":"uint256"},{"name":"challengerCollateralAmount","type":"uint256","internalType":"uint256"},{"name":"defaultRuling","type":"uint256","internalType":"uint256"},{"name":"defaultRulingTimeout","type":"uint256","internalType":"uint256"}]},{"name":"","type":"tuple","internalType":"struct CVParams","components":[{"name":"maxRatio","type":"uint256","internalType":"uint256"},{"name":"weight","type":"uint256","internalType":"uint256"},{"name":"decay","type":"uint256","internalType":"uint256"},{"name":"minThresholdPoints","type":"uint256","internalType":"uint256"}]},{"name":"","type":"uint256","internalType":"uint256"},{"name":"","type":"address[]","internalType":"address[]"},{"name":"","type":"address[]","internalType":"address[]"},{"name":"","type":"address","internalType":"address"}],"outputs":[],"stateMutability":"nonpayable"},{"type":"function","name":"setSybilScorer","inputs":[{"name":"_sybilScorer","type":"address","internalType":"address"},{"name":"threshold","type":"uint256","internalType":"uint256"}],"outputs":[],"stateMutability":"nonpayable"},{"type":"function","name":"streamingRatePerSecond","inputs":[],"outputs":[{"name":"","type":"uint256","internalType":"uint256"}],"stateMutability":"view"},{"type":"function","name":"superfluidGDA","inputs":[],"outputs":[{"name":"","type":"address","internalType":"contract ISuperfluidPool"}],"stateMutability":"view"},{"type":"function","name":"superfluidToken","inputs":[],"outputs":[{"name":"","type":"address","internalType":"contract ISuperToken"}],"stateMutability":"view"},{"type":"function","name":"supportsInterface","inputs":[{"name":"interfaceId","type":"bytes4","internalType":"bytes4"}],"outputs":[{"name":"","type":"bool","internalType":"bool"}],"stateMutability":"view"},{"type":"function","name":"sybilScorer","inputs":[],"outputs":[{"name":"","type":"address","internalType":"contract ISybilScorer"}],"stateMutability":"view"},{"type":"function","name":"totalPointsActivated","inputs":[],"outputs":[{"name":"","type":"uint256","internalType":"uint256"}],"stateMutability":"view"},{"type":"function","name":"totalStaked","inputs":[],"outputs":[{"name":"","type":"uint256","internalType":"uint256"}],"stateMutability":"view"},{"type":"function","name":"totalVoterStakePct","inputs":[{"name":"","type":"address","internalType":"address"}],"outputs":[{"name":"","type":"uint256","internalType":"uint256"}],"stateMutability":"view"},{"type":"function","name":"transferOwnership","inputs":[{"name":"newOwner","type":"address","internalType":"address"}],"outputs":[],"stateMutability":"nonpayable"},{"type":"function","name":"updateProposalConviction","inputs":[{"name":"proposalId","type":"uint256","internalType":"uint256"}],"outputs":[{"name":"","type":"uint256","internalType":"uint256"}],"stateMutability":"nonpayable"},{"type":"function","name":"upgradeTo","inputs":[{"name":"newImplementation","type":"address","internalType":"address"}],"outputs":[],"stateMutability":"nonpayable"},{"type":"function","name":"upgradeToAndCall","inputs":[{"name":"newImplementation","type":"address","internalType":"address"},{"name":"data","type":"bytes","internalType":"bytes"}],"outputs":[],"stateMutability":"payable"},{"type":"function","name":"voterStakedProposals","inputs":[{"name":"","type":"address","internalType":"address"},{"name":"","type":"uint256","internalType":"uint256"}],"outputs":[{"name":"","type":"uint256","internalType":"uint256"}],"stateMutability":"view"},{"type":"event","name":"AdminChanged","inputs":[{"name":"previousAdmin","type":"address","indexed":false,"internalType":"address"},{"name":"newAdmin","type":"address","indexed":false,"internalType":"address"}],"anonymous":false},{"type":"event","name":"Allocated","inputs":[{"name":"recipientId","type":"address","indexed":true,"internalType":"address"},{"name":"amount","type":"uint256","indexed":false,"internalType":"uint256"},{"name":"token","type":"address","indexed":false,"internalType":"address"},{"name":"sender","type":"address","indexed":false,"internalType":"address"}],"anonymous":false},{"type":"event","name":"AllowlistMembersAdded","inputs":[{"name":"poolId","type":"uint256","indexed":false,"internalType":"uint256"},{"name":"members","type":"address[]","indexed":false,"internalType":"address[]"}],"anonymous":false},{"type":"event","name":"AllowlistMembersRemoved","inputs":[{"name":"poolId","type":"uint256","indexed":false,"internalType":"uint256"},{"name":"members","type":"address[]","indexed":false,"internalType":"address[]"}],"anonymous":false},{"type":"event","name":"ArbitrableConfigUpdated","inputs":[{"name":"currentArbitrableConfigVersion","type":"uint256","indexed":false,"internalType":"uint256"},{"name":"arbitrator","type":"address","indexed":false,"internalType":"contract IArbitrator"},{"name":"tribunalSafe","type":"address","indexed":false,"internalType":"address"},{"name":"submitterCollateralAmount","type":"uint256","indexed":false,"internalType":"uint256"},{"name":"challengerCollateralAmount","type":"uint256","indexed":false,"internalType":"uint256"},{"name":"defaultRuling","type":"uint256","indexed":false,"internalType":"uint256"},{"name":"defaultRulingTimeout","type":"uint256","indexed":false,"internalType":"uint256"}],"anonymous":false},{"type":"event","name":"BeaconUpgraded","inputs":[{"name":"beacon","type":"address","indexed":true,"internalType":"address"}],"anonymous":false},{"type":"event","name":"CVParamsUpdated","inputs":[{"name":"cvParams","type":"tuple","indexed":false,"internalType":"struct CVParams","components":[{"name":"maxRatio","type":"uint256","internalType":"uint256"},{"name":"weight","type":"uint256","internalType":"uint256"},{"name":"decay","type":"uint256","internalType":"uint256"},{"name":"minThresholdPoints","type":"uint256","internalType":"uint256"}]}],"anonymous":false},{"type":"event","name":"DiamondCut","inputs":[{"name":"_diamondCut","type":"tuple[]","indexed":false,"internalType":"struct IDiamond.FacetCut[]","components":[{"name":"facetAddress","type":"address","internalType":"address"},{"name":"action","type":"uint8","internalType":"enum IDiamond.FacetCutAction"},{"name":"functionSelectors","type":"bytes4[]","internalType":"bytes4[]"}]},{"name":"_init","type":"address","indexed":false,"internalType":"address"},{"name":"_calldata","type":"bytes","indexed":false,"internalType":"bytes"}],"anonymous":false},{"type":"event","name":"DisputeRequest","inputs":[{"name":"_arbitrator","type":"address","indexed":true,"internalType":"contract IArbitrator"},{"name":"_arbitrableDisputeID","type":"uint256","indexed":true,"internalType":"uint256"},{"name":"_externalDisputeID","type":"uint256","indexed":false,"internalType":"uint256"},{"name":"_templateId","type":"uint256","indexed":false,"internalType":"uint256"},{"name":"_templateUri","type":"string","indexed":false,"internalType":"string"}],"anonymous":false},{"type":"event","name":"Distributed","inputs":[{"name":"recipientId","type":"address","indexed":true,"internalType":"address"},{"name":"recipientAddress","type":"address","indexed":false,"internalType":"address"},{"name":"amount","type":"uint256","indexed":false,"internalType":"uint256"},{"name":"sender","type":"address","indexed":false,"internalType":"address"}],"anonymous":false},{"type":"event","name":"Distributed","inputs":[{"name":"proposalId","type":"uint256","indexed":false,"internalType":"uint256"},{"name":"beneficiary","type":"address","indexed":false,"internalType":"address"},{"name":"amount","type":"uint256","indexed":false,"internalType":"uint256"}],"anonymous":false},{"type":"event","name":"Initialized","inputs":[{"name":"poolId","type":"uint256","indexed":false,"internalType":"uint256"},{"name":"data","type":"bytes","indexed":false,"internalType":"bytes"}],"anonymous":false},{"type":"event","name":"Initialized","inputs":[{"name":"version","type":"uint8","indexed":false,"internalType":"uint8"}],"anonymous":false},{"type":"event","name":"InitializedCV","inputs":[{"name":"poolId","type":"uint256","indexed":false,"internalType":"uint256"},{"name":"data","type":"tuple","indexed":false,"internalType":"struct CVStrategyInitializeParamsV0_0","components":[{"name":"cvParams","type":"tuple","internalType":"struct CVParams","components":[{"name":"maxRatio","type":"uint256","internalType":"uint256"},{"name":"weight","type":"uint256","internalType":"uint256"},{"name":"decay","type":"uint256","internalType":"uint256"},{"name":"minThresholdPoints","type":"uint256","internalType":"uint256"}]},{"name":"proposalType","type":"uint8","internalType":"enum ProposalType"},{"name":"pointSystem","type":"uint8","internalType":"enum PointSystem"},{"name":"pointConfig","type":"tuple","internalType":"struct PointSystemConfig","components":[{"name":"maxAmount","type":"uint256","internalType":"uint256"}]},{"name":"arbitrableConfig","type":"tuple","internalType":"struct ArbitrableConfig","components":[{"name":"arbitrator","type":"address","internalType":"contract IArbitrator"},{"name":"tribunalSafe","type":"address","internalType":"address"},{"name":"submitterCollateralAmount","type":"uint256","internalType":"uint256"},{"name":"challengerCollateralAmount","type":"uint256","internalType":"uint256"},{"name":"defaultRuling","type":"uint256","internalType":"uint256"},{"name":"defaultRulingTimeout","type":"uint256","internalType":"uint256"}]},{"name":"registryCommunity","type":"address","internalType":"address"},{"name":"sybilScorer","type":"address","internalType":"address"}]}],"anonymous":false},{"type":"event","name":"InitializedCV2","inputs":[{"name":"poolId","type":"uint256","indexed":false,"internalType":"uint256"},{"name":"data","type":"tuple","indexed":false,"internalType":"struct CVStrategyInitializeParamsV0_1","components":[{"name":"cvParams","type":"tuple","internalType":"struct CVParams","components":[{"name":"maxRatio","type":"uint256","internalType":"uint256"},{"name":"weight","type":"uint256","internalType":"uint256"},{"name":"decay","type":"uint256","internalType":"uint256"},{"name":"minThresholdPoints","type":"uint256","internalType":"uint256"}]},{"name":"proposalType","type":"uint8","internalType":"enum ProposalType"},{"name":"pointSystem","type":"uint8","internalType":"enum PointSystem"},{"name":"pointConfig","type":"tuple","internalType":"struct PointSystemConfig","components":[{"name":"maxAmount","type":"uint256","internalType":"uint256"}]},{"name":"arbitrableConfig","type":"tuple","internalType":"struct ArbitrableConfig","components":[{"name":"arbitrator","type":"address","internalType":"contract IArbitrator"},{"name":"tribunalSafe","type":"address","internalType":"address"},{"name":"submitterCollateralAmount","type":"uint256","internalType":"uint256"},{"name":"challengerCollateralAmount","type":"uint256","internalType":"uint256"},{"name":"defaultRuling","type":"uint256","internalType":"uint256"},{"name":"defaultRulingTimeout","type":"uint256","internalType":"uint256"}]},{"name":"registryCommunity","type":"address","internalType":"address"},{"name":"sybilScorer","type":"address","internalType":"address"},{"name":"sybilScorerThreshold","type":"uint256","internalType":"uint256"},{"name":"initialAllowlist","type":"address[]","internalType":"address[]"}]}],"anonymous":false},{"type":"event","name":"InitializedCV3","inputs":[{"name":"poolId","type":"uint256","indexed":false,"internalType":"uint256"},{"name":"data","type":"tuple","indexed":false,"internalType":"struct CVStrategyInitializeParamsV0_2","components":[{"name":"cvParams","type":"tuple","internalType":"struct CVParams","components":[{"name":"maxRatio","type":"uint256","internalType":"uint256"},{"name":"weight","type":"uint256","internalType":"uint256"},{"name":"decay","type":"uint256","internalType":"uint256"},{"name":"minThresholdPoints","type":"uint256","internalType":"uint256"}]},{"name":"proposalType","type":"uint8","internalType":"enum ProposalType"},{"name":"pointSystem","type":"uint8","internalType":"enum PointSystem"},{"name":"pointConfig","type":"tuple","internalType":"struct PointSystemConfig","components":[{"name":"maxAmount","type":"uint256","internalType":"uint256"}]},{"name":"arbitrableConfig","type":"tuple","internalType":"struct ArbitrableConfig","components":[{"name":"arbitrator","type":"address","internalType":"contract IArbitrator"},{"name":"tribunalSafe","type":"address","internalType":"address"},{"name":"submitterCollateralAmount","type":"uint256","internalType":"uint256"},{"name":"challengerCollateralAmount","type":"uint256","internalType":"uint256"},{"name":"defaultRuling","type":"uint256","internalType":"uint256"},{"name":"defaultRulingTimeout","type":"uint256","internalType":"uint256"}]},{"name":"registryCommunity","type":"address","internalType":"address"},{"name":"sybilScorer","type":"address","internalType":"address"},{"name":"sybilScorerThreshold","type":"uint256","internalType":"uint256"},{"name":"initialAllowlist","type":"address[]","internalType":"address[]"},{"name":"superfluidToken","type":"address","internalType":"address"}]}],"anonymous":false},{"type":"event","name":"InitializedCV4","inputs":[{"name":"poolId","type":"uint256","indexed":false,"internalType":"uint256"},{"name":"data","type":"tuple","indexed":false,"internalType":"struct CVStrategyInitializeParamsV0_3","components":[{"name":"cvParams","type":"tuple","internalType":"struct CVParams","components":[{"name":"maxRatio","type":"uint256","internalType":"uint256"},{"name":"weight","type":"uint256","internalType":"uint256"},{"name":"decay","type":"uint256","internalType":"uint256"},{"name":"minThresholdPoints","type":"uint256","internalType":"uint256"}]},{"name":"proposalType","type":"uint8","internalType":"enum ProposalType"},{"name":"pointSystem","type":"uint8","internalType":"enum PointSystem"},{"name":"pointConfig","type":"tuple","internalType":"struct PointSystemConfig","components":[{"name":"maxAmount","type":"uint256","internalType":"uint256"}]},{"name":"arbitrableConfig","type":"tuple","internalType":"struct ArbitrableConfig","components":[{"name":"arbitrator","type":"address","internalType":"contract IArbitrator"},{"name":"tribunalSafe","type":"address","internalType":"address"},{"name":"submitterCollateralAmount","type":"uint256","internalType":"uint256"},{"name":"challengerCollateralAmount","type":"uint256","internalType":"uint256"},{"name":"defaultRuling","type":"uint256","internalType":"uint256"},{"name":"defaultRulingTimeout","type":"uint256","internalType":"uint256"}]},{"name":"registryCommunity","type":"address","internalType":"address"},{"name":"sybilScorer","type":"address","internalType":"address"},{"name":"sybilScorerThreshold","type":"uint256","internalType":"uint256"},{"name":"initialAllowlist","type":"address[]","internalType":"address[]"},{"name":"superfluidToken","type":"address","internalType":"address"},{"name":"streamingRatePerSecond","type":"uint256","internalType":"uint256"}]}],"anonymous":false},{"type":"event","name":"OwnershipTransferred","inputs":[{"name":"previousOwner","type":"address","indexed":true,"internalType":"address"},{"name":"newOwner","type":"address","indexed":true,"internalType":"address"}],"anonymous":false},{"type":"event","name":"OwnershipTransferred","inputs":[{"name":"previousOwner","type":"address","indexed":true,"internalType":"address"},{"name":"newOwner","type":"address","indexed":true,"internalType":"address"}],"anonymous":false},{"type":"event","name":"PointsDeactivated","inputs":[{"name":"member","type":"address","indexed":false,"internalType":"address"}],"anonymous":false},{"type":"event","name":"PoolActive","inputs":[{"name":"active","type":"bool","indexed":false,"internalType":"bool"}],"anonymous":false},{"type":"event","name":"PowerDecreased","inputs":[{"name":"member","type":"address","indexed":false,"internalType":"address"},{"name":"tokensUnStaked","type":"uint256","indexed":false,"internalType":"uint256"},{"name":"pointsToDecrease","type":"uint256","indexed":false,"internalType":"uint256"}],"anonymous":false},{"type":"event","name":"PowerIncreased","inputs":[{"name":"member","type":"address","indexed":false,"internalType":"address"},{"name":"tokensStaked","type":"uint256","indexed":false,"internalType":"uint256"},{"name":"pointsToIncrease","type":"uint256","indexed":false,"internalType":"uint256"}],"anonymous":false},{"type":"event","name":"ProposalCancelled","inputs":[{"name":"proposalId","type":"uint256","indexed":false,"internalType":"uint256"}],"anonymous":false},{"type":"event","name":"ProposalCreated","inputs":[{"name":"poolId","type":"uint256","indexed":false,"internalType":"uint256"},{"name":"proposalId","type":"uint256","indexed":false,"internalType":"uint256"}],"anonymous":false},{"type":"event","name":"ProposalDisputed","inputs":[{"name":"arbitrator","type":"address","indexed":false,"internalType":"contract IArbitrator"},{"name":"proposalId","type":"uint256","indexed":false,"internalType":"uint256"},{"name":"disputeId","type":"uint256","indexed":false,"internalType":"uint256"},{"name":"challenger","type":"address","indexed":false,"internalType":"address"},{"name":"context","type":"string","indexed":false,"internalType":"string"},{"name":"timestamp","type":"uint256","indexed":false,"internalType":"uint256"}],"anonymous":false},{"type":"event","name":"Registered","inputs":[{"name":"recipientId","type":"address","indexed":true,"internalType":"address"},{"name":"data","type":"bytes","indexed":false,"internalType":"bytes"},{"name":"sender","type":"address","indexed":false,"internalType":"address"}],"anonymous":false},{"type":"event","name":"Ruling","inputs":[{"name":"_arbitrator","type":"address","indexed":true,"internalType":"contract IArbitrator"},{"name":"_disputeID","type":"uint256","indexed":true,"internalType":"uint256"},{"name":"_ruling","type":"uint256","indexed":false,"internalType":"uint256"}],"anonymous":false},{"type":"event","name":"SuperfluidGDAConnected","inputs":[{"name":"gda","type":"address","indexed":true,"internalType":"address"},{"name":"by","type":"address","indexed":true,"internalType":"address"}],"anonymous":false},{"type":"event","name":"SuperfluidGDADisconnected","inputs":[{"name":"gda","type":"address","indexed":true,"internalType":"address"},{"name":"by","type":"address","indexed":true,"internalType":"address"}],"anonymous":false},{"type":"event","name":"SuperfluidTokenUpdated","inputs":[{"name":"superfluidToken","type":"address","indexed":false,"internalType":"address"}],"anonymous":false},{"type":"event","name":"SupportAdded","inputs":[{"name":"from","type":"address","indexed":false,"internalType":"address"},{"name":"proposalId","type":"uint256","indexed":false,"internalType":"uint256"},{"name":"amount","type":"uint256","indexed":false,"internalType":"uint256"},{"name":"totalStakedAmount","type":"uint256","indexed":false,"internalType":"uint256"},{"name":"convictionLast","type":"uint256","indexed":false,"internalType":"uint256"}],"anonymous":false},{"type":"event","name":"SybilScorerUpdated","inputs":[{"name":"sybilScorer","type":"address","indexed":false,"internalType":"address"}],"anonymous":false},{"type":"event","name":"Upgraded","inputs":[{"name":"implementation","type":"address","indexed":true,"internalType":"address"}],"anonymous":false},{"type":"error","name":"ALLOCATION_ACTIVE","inputs":[]},{"type":"error","name":"ALLOCATION_NOT_ACTIVE","inputs":[]},{"type":"error","name":"ALLOCATION_NOT_ENDED","inputs":[]},{"type":"error","name":"ALREADY_INITIALIZED","inputs":[]},{"type":"error","name":"AMOUNT_MISMATCH","inputs":[]},{"type":"error","name":"ANCHOR_ERROR","inputs":[]},{"type":"error","name":"ARRAY_MISMATCH","inputs":[]},{"type":"error","name":"AShouldBeUnderOrEqTwo_128","inputs":[]},{"type":"error","name":"AShouldBeUnderTwo_128","inputs":[]},{"type":"error","name":"AddressCannotBeZero","inputs":[{"name":"input","type":"address","internalType":"address"}]},{"type":"error","name":"AmountOverMaxRatio","inputs":[{"name":"requestedAmount","type":"uint256","internalType":"uint256"},{"name":"maxAllowed","type":"uint256","internalType":"uint256"},{"name":"poolAmount","type":"uint256","internalType":"uint256"}]},{"type":"error","name":"ArbitratorCannotBeZero","inputs":[]},{"type":"error","name":"BShouldBeLessTwo_128","inputs":[]},{"type":"error","name":"CallerNotOwner","inputs":[{"name":"_caller","type":"address","internalType":"address"},{"name":"_owner","type":"address","internalType":"address"}]},{"type":"error","name":"CannotAddFunctionToDiamondThatAlreadyExists","inputs":[{"name":"_selector","type":"bytes4","internalType":"bytes4"}]},{"type":"error","name":"CannotAddSelectorsToZeroAddress","inputs":[{"name":"_selectors","type":"bytes4[]","internalType":"bytes4[]"}]},{"type":"error","name":"CannotRemoveFunctionThatDoesNotExist","inputs":[{"name":"_selector","type":"bytes4","internalType":"bytes4"}]},{"type":"error","name":"CannotRemoveImmutableFunction","inputs":[{"name":"_selector","type":"bytes4","internalType":"bytes4"}]},{"type":"error","name":"CannotReplaceFunctionThatDoesNotExists","inputs":[{"name":"_selector","type":"bytes4","internalType":"bytes4"}]},{"type":"error","name":"CannotReplaceFunctionWithTheSameFunctionFromTheSameFacet","inputs":[{"name":"_selector","type":"bytes4","internalType":"bytes4"}]},{"type":"error","name":"CannotReplaceFunctionsFromFacetWithZeroAddress","inputs":[{"name":"_selectors","type":"bytes4[]","internalType":"bytes4[]"}]},{"type":"error","name":"CannotReplaceImmutableFunction","inputs":[{"name":"_selector","type":"bytes4","internalType":"bytes4"}]},{"type":"error","name":"ConvictionUnderMinimumThreshold","inputs":[]},{"type":"error","name":"DefaultRulingNotSet","inputs":[]},{"type":"error","name":"DisputeCooldownNotPassed","inputs":[{"name":"_proposalId","type":"uint256","internalType":"uint256"},{"name":"_remainingSec","type":"uint256","internalType":"uint256"}]},{"type":"error","name":"INVALID","inputs":[]},{"type":"error","name":"INVALID_ADDRESS","inputs":[]},{"type":"error","name":"INVALID_FEE","inputs":[]},{"type":"error","name":"INVALID_METADATA","inputs":[]},{"type":"error","name":"INVALID_REGISTRATION","inputs":[]},{"type":"error","name":"IS_APPROVED_STRATEGY","inputs":[]},{"type":"error","name":"InitializationFunctionReverted","inputs":[{"name":"_initializationContractAddress","type":"address","internalType":"address"},{"name":"_calldata","type":"bytes","internalType":"bytes"}]},{"type":"error","name":"InsufficientCollateral","inputs":[{"name":"sentAmount","type":"uint256","internalType":"uint256"},{"name":"requiredAmount","type":"uint256","internalType":"uint256"}]},{"type":"error","name":"MISMATCH","inputs":[]},{"type":"error","name":"NONCE_NOT_AVAILABLE","inputs":[]},{"type":"error","name":"NON_ZERO_VALUE","inputs":[]},{"type":"error","name":"NOT_APPROVED_STRATEGY","inputs":[]},{"type":"error","name":"NOT_ENOUGH_FUNDS","inputs":[]},{"type":"error","name":"NOT_IMPLEMENTED","inputs":[]},{"type":"error","name":"NOT_INITIALIZED","inputs":[]},{"type":"error","name":"NOT_PENDING_OWNER","inputs":[]},{"type":"error","name":"NoBytecodeAtAddress","inputs":[{"name":"_contractAddress","type":"address","internalType":"address"},{"name":"_message","type":"string","internalType":"string"}]},{"type":"error","name":"NoSelectorsProvidedForFacetForCut","inputs":[{"name":"_facetAddress","type":"address","internalType":"address"}]},{"type":"error","name":"NotEnoughPointsToSupport","inputs":[{"name":"pointsSupport","type":"uint256","internalType":"uint256"},{"name":"pointsBalance","type":"uint256","internalType":"uint256"}]},{"type":"error","name":"NotImplemented","inputs":[{"name":"selector","type":"bytes4","internalType":"bytes4"}]},{"type":"error","name":"OnlyArbitrator","inputs":[{"name":"sender","type":"address","internalType":"address"},{"name":"arbitrator","type":"address","internalType":"address"}]},{"type":"error","name":"OnlyCommunityAllowed","inputs":[{"name":"sender","type":"address","internalType":"address"},{"name":"registryCommunity","type":"address","internalType":"address"}]},{"type":"error","name":"OnlyCouncilSafe","inputs":[{"name":"sender","type":"address","internalType":"address"},{"name":"councilSafe","type":"address","internalType":"address"},{"name":"owner","type":"address","internalType":"address"}]},{"type":"error","name":"OnlyCouncilSafeOrMember","inputs":[{"name":"sender","type":"address","internalType":"address"},{"name":"councilSafe","type":"address","internalType":"address"}]},{"type":"error","name":"POOL_ACTIVE","inputs":[]},{"type":"error","name":"POOL_INACTIVE","inputs":[]},{"type":"error","name":"PoolAmountNotEnough","inputs":[{"name":"_proposalId","type":"uint256","internalType":"uint256"},{"name":"_requestedAmount","type":"uint256","internalType":"uint256"},{"name":"_poolAmount","type":"uint256","internalType":"uint256"}]},{"type":"error","name":"PoolIsEmpty","inputs":[{"name":"poolAmount","type":"uint256","internalType":"uint256"}]},{"type":"error","name":"ProposalDataIsEmpty","inputs":[]},{"type":"error","name":"ProposalIdCannotBeZero","inputs":[]},{"type":"error","name":"ProposalInvalidForAllocation","inputs":[{"name":"_proposalId","type":"uint256","internalType":"uint256"},{"name":"_proposalStatus","type":"uint8","internalType":"enum ProposalStatus"}]},{"type":"error","name":"ProposalNotActive","inputs":[{"name":"_proposalId","type":"uint256","internalType":"uint256"}]},{"type":"error","name":"ProposalNotDisputed","inputs":[{"name":"_proposalId","type":"uint256","internalType":"uint256"}]},{"type":"error","name":"ProposalNotInList","inputs":[{"name":"_proposalId","type":"uint256","internalType":"uint256"}]},{"type":"error","name":"ProposalSupportDuplicated","inputs":[{"name":"_proposalId","type":"uint256","internalType":"uint256"},{"name":"index","type":"uint256","internalType":"uint256"}]},{"type":"error","name":"RECIPIENT_ALREADY_ACCEPTED","inputs":[]},{"type":"error","name":"RECIPIENT_ERROR","inputs":[{"name":"recipientId","type":"address","internalType":"address"}]},{"type":"error","name":"RECIPIENT_NOT_ACCEPTED","inputs":[]},{"type":"error","name":"REGISTRATION_ACTIVE","inputs":[]},{"type":"error","name":"REGISTRATION_NOT_ACTIVE","inputs":[]},{"type":"error","name":"RegistryCannotBeZero","inputs":[{"name":"registry","type":"address","internalType":"address"}]},{"type":"error","name":"RegistryCommunityCannotBeZero","inputs":[{"name":"registry","type":"address","internalType":"address"}]},{"type":"error","name":"RemoveFacetAddressMustBeZeroAddress","inputs":[{"name":"_facetAddress","type":"address","internalType":"address"}]},{"type":"error","name":"StrategyFunctionDoesNotExist","inputs":[{"name":"selector","type":"bytes4","internalType":"bytes4"}]},{"type":"error","name":"StrategyPaused","inputs":[{"name":"controller","type":"address","internalType":"address"}]},{"type":"error","name":"StrategySelectorPaused","inputs":[{"name":"selector","type":"bytes4","internalType":"bytes4"},{"name":"controller","type":"address","internalType":"address"}]},{"type":"error","name":"SupportUnderflow","inputs":[{"name":"_support","type":"uint256","internalType":"uint256"},{"name":"_delta","type":"int256","internalType":"int256"},{"name":"_result","type":"int256","internalType":"int256"}]},{"type":"error","name":"TokenCannotBeZero","inputs":[{"name":"token","type":"address","internalType":"address"}]},{"type":"error","name":"TokenNotAllowed","inputs":[{"name":"token","type":"address","internalType":"address"}]},{"type":"error","name":"UNAUTHORIZED","inputs":[]},{"type":"error","name":"UserCannotBeZero","inputs":[{"name":"user","type":"address","internalType":"address"}]},{"type":"error","name":"UserCannotExecuteAction","inputs":[{"name":"sender","type":"address","internalType":"address"}]},{"type":"error","name":"UserIsInactive","inputs":[{"name":"user","type":"address","internalType":"address"}]},{"type":"error","name":"UserNotInRegistry","inputs":[{"name":"user","type":"address","internalType":"address"},{"name":"registry","type":"address","internalType":"address"}]},{"type":"error","name":"ZERO_ADDRESS","inputs":[]}],"bytecode":{"object":"0x60a0604052306080523480156012575f80fd5b506080516153596100475f395f81816110f701528181611137015281816116000152818161164001526116b701526153595ff3fe608060405260043610610318575f3560e01c8063013cf08b146103ba57806301ffc9a7146103fc578063025313a21461043c578063059351cd1461045d57806305caa7f3146104e85780630a6f0ee9146105075780630ba95909146105265780630bece79c146105445780630c0512e914610563578063125fd1d914610578578063141e3b381461058d57806315cc481e146105ac578063184b9559146105c95780631aa91a9e146105e85780631b36f56f146106075780631ddf1e23146106265780631f931c1c1461063a5780632506b87014610659578063255ffb381461068b5780632bbe0cae146106b65780632dbd6fdd146106c95780632ed04b2b146106f4578063311a6c561461070e578063339604591461072d578063351d9f96146107425780633659cfe6146107685780633864d3661461078757806338fff2d0146107a657806341bb7605146107ba5780634ab4ba42146108155780634f1ef2861461082957806352d1902d1461083c57806359a5db8b146108505780635db64b991461086f5780636003e4141461089a57806360b0645a146108b957806360d5dedc146108d8578063626c47e8146108f75780636453d9c41461090b578063662ea47d1461092a578063715018a61461094b578063782aadff146106f45780637d7c2a1c14610626578063814516ad14610626578063817b1cd21461095f578063868c57b8146109745780638da5cb5b14610993578063924e67041461090b57806394573cbb146109a7578063a0cf0aea146109bc578063a28889e1146109e3578063a47ff7e514610a1a578063aba9ffee14610a30578063b0d3713a14610a45578063b41596ec14610a64578063b5f620ce14610a77578063b6c61f3114610a96578063c329217114610ab5578063c4d66de814610ad1578063c69271ec1461090b578063c7f758a814610af0578063d5b7cc5414610b27578063dc96ff2d14610b46578063df868ed314610b74578063e0a8f6f514610b88578063e0dd2c3814610ba2578063edd146cc14610bc1578063ef2920fc14610be0578063f2fde38b14610bee578063f5be3f7c14610c0d5761031f565b3661031f57005b6103335f356001600160e01b031916610c22565b5f80356001600160e01b03191681525f80516020615212833981519152602081905260409091205481906001600160a01b03168061039a575f356001600160e01b03191660405163335ed20560e11b81526004016103919190613ba0565b60405180910390fd5b365f80375f80365f845af43d5f803e8080156103b4573d5ff35b3d5ffd5b005b3480156103c5575f80fd5b506103d96103d4366004613bb5565b610da5565b6040516103f39e9d9c9b9a99989796959493929190613c4d565b60405180910390f35b348015610407575f80fd5b5061042c610416366004613d1c565b6001600160e01b0319166301ffc9a760e01b1490565b60405190151581526020016103f3565b348015610447575f80fd5b50610450610ef5565b6040516103f39190613d35565b348015610468575f80fd5b506104b0606f545f908152607f60205260409020805460018201546002830154600384015460048501546005909501546001600160a01b039485169694909316949193909290565b604080516001600160a01b039788168152969095166020870152938501929092526060840152608083015260a082015260c0016103f3565b3480156104f3575f80fd5b50608054610450906001600160a01b031681565b348015610512575f80fd5b506103b8610521366004613f67565b610f0d565b348015610531575f80fd5b506077545b6040519081526020016103f3565b34801561054f575f80fd5b50607954610450906001600160a01b031681565b34801561056e575f80fd5b50610536606e5481565b348015610583575f80fd5b50610536606f5481565b348015610598575f80fd5b506103b86105a7366004613fd9565b610f1a565b3480156105b7575f80fd5b506065546001600160a01b0316610450565b3480156105d4575f80fd5b506103b86105e336600461406d565b610f28565b3480156105f3575f80fd5b50610536610602366004613bb5565b61102b565b348015610612575f80fd5b50608154610450906001600160a01b031681565b348015610631575f80fd5b506103b8611074565b348015610645575f80fd5b506103b86106543660046140e7565b61107e565b348015610664575f80fd5b5060725460735460745460755461067b9392919084565b6040516103f3949392919061418f565b348015610696575f80fd5b506105366106a5366004613bb5565b607e6020525f908152604090205481565b6104506106c43660046141aa565b6110d6565b3480156106d4575f80fd5b506076546106e790610100900460ff1681565b6040516103f39190614211565b3480156106ff575f80fd5b506105366106c4366004614224565b348015610719575f80fd5b506103b861072836600461424e565b6110e5565b348015610738575f80fd5b50610536606c5481565b34801561074d575f80fd5b5060765461075b9060ff1681565b6040516103f3919061427e565b348015610773575f80fd5b506103b861078236600461428c565b6110ed565b348015610792575f80fd5b506103b86107a1366004614224565b6111b4565b3480156107b1575f80fd5b50606854610536565b3480156107c5575f80fd5b506104b06107d4366004613bb5565b607f6020525f90815260409020805460018201546002830154600384015460048501546005909501546001600160a01b039485169593909416939192909186565b348015610820575f80fd5b50610536611377565b6103b86108373660046142a7565b6115f6565b348015610847575f80fd5b506105366116ab565b34801561085b575f80fd5b5061053661086a366004613bb5565b611757565b34801561087a575f80fd5b5061053661088936600461428c565b607c6020525f908152604090205481565b3480156108a5575f80fd5b50607854610450906001600160a01b031681565b3480156108c4575f80fd5b506105366108d3366004613bb5565b61181c565b3480156108e3575f80fd5b506103b86108f23660046142f3565b6118cb565b348015610902575f80fd5b50610536600381565b348015610916575f80fd5b506103b861092536600461428c565b61198a565b348015610935575f80fd5b5061093e611992565b6040516103f3919061437a565b348015610956575f80fd5b506103b8611d31565b34801561096a575f80fd5b5061053660705481565b34801561097f575f80fd5b5061053661098e366004614224565b611d42565b34801561099e575f80fd5b50610450611d6d565b3480156109b2575f80fd5b5061053660825481565b3480156109c7575f80fd5b5061045073eeeeeeeeeeeeeeeeeeeeeeeeeeeeeeeeeeeeeeee81565b3480156109ee575f80fd5b50606d54610a02906001600160401b031681565b6040516001600160401b0390911681526020016103f3565b348015610a25575f80fd5b506077546105369081565b348015610a3b575f80fd5b5061053660715481565b348015610a50575f80fd5b506103b8610a5f36600461428c565b611e00565b610536610a723660046143f7565b611e2a565b348015610a82575f80fd5b506103b8610a91366004614459565b611e3c565b348015610aa1575f80fd5b50607a54610450906001600160a01b031681565b348015610ac0575f80fd5b50607654610100900460ff166106e7565b348015610adc575f80fd5b506103b8610aeb36600461428c565b611e45565b348015610afb575f80fd5b50610b0f610b0a366004613bb5565b611ef7565b6040516103f39c9b9a99989796959493929190614474565b348015610b32575f80fd5b506103b8610b4136600461452b565b6120c5565b348015610b51575f80fd5b50610536610b60366004613bb5565b5f908152607b602052604090206002015490565b348015610b7f575f80fd5b5061042c6120d5565b348015610b93575f80fd5b506103b8610925366004613bb5565b348015610bad575f80fd5b50610536610bbc366004614622565b6120e2565b348015610bcc575f80fd5b506103b8610bdb366004614645565b61210c565b6103b86107283660046141aa565b348015610bf9575f80fd5b506103b8610c0836600461428c565b612635565b348015610c18575f80fd5b50610536611c2081565b610c2b816126ab565b15610c335750565b7f12ec43b97389db0cfbdf8d85f200f1b822123856376a9d75d3a6918f27c903bb546001600160a01b031680610c67575050565b604051635b14f18360e01b81526001600160a01b03821690635b14f18390610c93903090600401613d35565b602060405180830381865afa158015610cae573d5f803e3d5ffd5b505050506040513d601f19601f82011682018060405250810190610cd29190614672565b15610cf2578060405163c2897a3760e01b81526004016103919190613d35565b6040516374b896f160e01b81523060048201526001600160e01b0319831660248201526001600160a01b038216906374b896f190604401602060405180830381865afa158015610d44573d5f803e3d5ffd5b505050506040513d601f19601f82011682018060405250810190610d689190614672565b15610da15760405163a9774bf960e01b81526001600160e01b0319831660048201526001600160a01b0382166024820152604401610391565b5050565b607b60209081525f9182526040918290208054600182015460028301546003840154600485015460058601546006870154600788015460088901548b51808d01909c52600a8a0180548d52600b8b0180549a9d999c989b979a6001600160a01b039788169a968816999790951697939660ff9093169593949192840191610e2b9061468d565b80601f0160208091040260200160405190810160405280929190818152602001828054610e579061468d565b8015610ea25780601f10610e7957610100808354040283529160200191610ea2565b820191905f5260205f20905b815481529060010190602001808311610e8557829003601f168201915b50505091909252505060408051606081018252600c8501548152600d8501546020820152600e8501546001600160a01b031691810191909152600f8401546010850154601190950154939491939092508e565b5f610f086033546001600160a01b031690565b905090565b610f1561031f565b505050565b610f2261031f565b50505050565b5f54610100900460ff1615808015610f4657505f54600160ff909116105b80610f665750610f55306127b8565b158015610f6657505f5460ff166001145b610f825760405162461bcd60e51b8152600401610391906146c5565b5f805460ff191660011790558015610fa3575f805461ff0019166101001790555b610fd0846040518060400160405280600a8152602001694356537472617465677960b01b815250846118cb565b610fd9826127c7565b606a80546001600160a01b0319166001600160a01b0385161790558015610f22575f805461ff0019169055604051600181525f805160206152be8339815191529060200160405180910390a150505050565b5f818152607b602052604081208054831461105c5760405163c1d17bef60e01b815260048101849052602401610391565b61106a818260020154612812565b6003015492915050565b61107c61031f565b565b61108661284b565b6110cf611093858761471f565b8484848080601f0160208091040260200160405190810160405280939291908181526020018383808284375f920191909152506128d092505050565b5050505050565b5f6110df61031f565b92915050565b610da161031f565b6001600160a01b037f00000000000000000000000000000000000000000000000000000000000000001630036111355760405162461bcd60e51b81526004016103919061483c565b7f00000000000000000000000000000000000000000000000000000000000000006001600160a01b0316611167612a39565b6001600160a01b03161461118d5760405162461bcd60e51b815260040161039190614875565b61119681612a54565b604080515f808252602082019092526111b191839190612aa0565b50565b60785f9054906101000a90046001600160a01b03166001600160a01b0316636c53db9a6040518163ffffffff1660e01b8152600401602060405180830381865afa158015611204573d5f803e3d5ffd5b505050506040513d601f19601f8201168201806040525081019061122891906148ae565b6001600160a01b0316336001600160a01b031614158015611262575061124c611d6d565b6001600160a01b0316336001600160a01b031614155b1561130f5760785460408051633629edcd60e11b8152905133926001600160a01b031691636c53db9a9160048083019260209291908290030181865afa1580156112ae573d5f803e3d5ffd5b505050506040513d601f19601f820116820180604052508101906112d291906148ae565b6112da611d6d565b60405163e1b9c46960e01b81526001600160a01b03938416600482015291831660248301529091166044820152606401610391565b61131882612c0a565b607a80546001600160a01b0319166001600160a01b03841617905561133c81612c33565b7f2667a0cd99dbc787d1d2596efe938cf43dfe83e8b8ddeb70e28007c09ff334858260405161136b9190613d35565b60405180910390a15050565b60655460685460405163068bcd8d60e01b81525f9283926001600160a01b039091169163068bcd8d916113b09160040190815260200190565b5f60405180830381865afa1580156113ca573d5f803e3d5ffd5b505050506040513d5f823e601f3d908101601f191682016040526113f191908101906148d4565b60400151905073eeeeeeeeeeeeeeeeeeeeeeeeeeeeeeeeeeeeeeed196001600160a01b03821601611423574791505090565b6040516370a0823160e01b81525f906001600160a01b038316906370a0823190611451903090600401613d35565b602060405180830381865afa15801561146c573d5f803e3d5ffd5b505050506040513d601f19601f8201168201806040525081019061149091906149eb565b6080549091505f906001600160a01b03161561151a576080546040516370a0823160e01b81526001600160a01b03909116906370a08231906114d6903090600401613d35565b602060405180830381865afa1580156114f1573d5f803e3d5ffd5b505050506040513d601f19601f8201168201806040525081019061151591906149eb565b61151c565b5f5b90505f836001600160a01b031663313ce5676040518163ffffffff1660e01b8152600401602060405180830381865afa15801561155b573d5f803e3d5ffd5b505050506040513d601f19601f8201168201806040525081019061157f9190614a02565b905060128160ff1610156115b457611598816012614a36565b6115a390600a614b2f565b6115ad9083614b51565b91506115e3565b60128160ff1611156115e3576115cb601282614a36565b6115d690600a614b2f565b6115e09083614b70565b91505b6115ed8284614b87565b94505050505090565b6001600160a01b037f000000000000000000000000000000000000000000000000000000000000000016300361163e5760405162461bcd60e51b81526004016103919061483c565b7f00000000000000000000000000000000000000000000000000000000000000006001600160a01b0316611670612a39565b6001600160a01b0316146116965760405162461bcd60e51b815260040161039190614875565b61169f82612a54565b610da182826001612aa0565b5f306001600160a01b037f000000000000000000000000000000000000000000000000000000000000000016146117455760405162461bcd60e51b815260206004820152603860248201527f555550535570677261646561626c653a206d757374206e6f742062652063616c6044820152771b1959081d1a1c9bdd59da0819195b1959d85d1958d85b1b60421b6064820152608401610391565b505f8051602061529e83398151915290565b5f80611761611377565b90505f629896808260725f01546117789190614b70565b6117829190614b51565b6071546074546073546072546075546040516314eff2dd60e11b815295965073__$f1b7c69ba751c396eddc93d3bbc5414fd9$__956329dfe5ba956117d5958c958b959294919390929190600401614b9a565b602060405180830381865af41580156117f0573d5f803e3d5ffd5b505050506040513d601f19601f8201168201806040525081019061181491906149eb565b949350505050565b5f818152607b60205260408120600781015473__$f1b7c69ba751c396eddc93d3bbc5414fd9$__9063010dfe64906118549043614bca565b600384015460028501546074546040516001600160e01b031960e087901b168152611885949392919060040161418f565b602060405180830381865af41580156118a0573d5f803e3d5ffd5b505050506040513d601f19601f820116820180604052508101906118c491906149eb565b9392505050565b5f54610100900460ff166119355760405162461bcd60e51b815260206004820152602b60248201527f496e697469616c697a61626c653a20636f6e7472616374206973206e6f74206960448201526a6e697469616c697a696e6760a81b6064820152608401610391565b61193e81611e45565b606580546001600160a01b0319166001600160a01b03851617905560405161196a908390602001614bdd565b60408051601f198184030181529190528051602090910120606655505050565b6111b161031f565b60605f61199d612d10565b6001810154909150806001600160401b038111156119bd576119bd613d49565b604051908082528060200260200182016040528015611a0257816020015b604080518082019091525f8152606060208201528152602001906001900390816119db5790505b5092505f816001600160401b03811115611a1e57611a1e613d49565b604051908082528060200260200182016040528015611a47578160200160208202803683370190505b5090505f805b83811015611ccc575f856001018281548110611a6b57611a6b614bef565b5f918252602080832060088304015460079092166004026101000a90910460e01b6001600160e01b0319811683529088905260408220549092506001600160a01b031690805b85811015611b9c57826001600160a01b03168a8281518110611ad557611ad5614bef565b60200260200101515f01516001600160a01b031603611b9457838a8281518110611b0157611b01614bef565b602002602001015160200151888381518110611b1f57611b1f614bef565b602002602001015161ffff1681518110611b3b57611b3b614bef565b60200260200101906001600160e01b03191690816001600160e01b03191681525050868181518110611b6f57611b6f614bef565b602002602001018051809190611b8490614c03565b61ffff1690525060019150611b9c565b600101611ab1565b508015611bac5750611cc4915050565b81898681518110611bbf57611bbf614bef565b60209081029190910101516001600160a01b039091169052866001600160401b03811115611bef57611bef613d49565b604051908082528060200260200182016040528015611c18578160200160208202803683370190505b50898681518110611c2b57611c2b614bef565b60200260200101516020018190525082898681518110611c4d57611c4d614bef565b6020026020010151602001515f81518110611c6a57611c6a614bef565b60200260200101906001600160e01b03191690816001600160e01b031916815250506001868681518110611ca057611ca0614bef565b61ffff9092166020928302919091019091015284611cbd81614c23565b9550505050505b600101611a4d565b505f5b81811015611d26575f868281518110611cea57611cea614bef565b60200260200101516020015190505f848381518110611d0b57611d0b614bef565b602090810291909101015161ffff1690915250600101611ccf565b508085525050505090565b611d3961284b565b61107c5f612d21565b607d602052815f5260405f208181548110611d5b575f80fd5b905f5260205f20015f91509150505481565b5f611d76610ef5565b6001600160a01b03163b5f03611d8e57610f08610ef5565b611d96610ef5565b6001600160a01b0316638da5cb5b6040518163ffffffff1660e01b8152600401602060405180830381865afa925050508015611def575060408051601f3d908101601f19168201909252611dec918101906148ae565b60015b611dfb57610f08610ef5565b919050565b611e0861284b565b606a80546001600160a01b0319166001600160a01b0392909216919091179055565b5f611e3361031f565b95945050505050565b6111b181612d5f565b5f54610100900460ff1615808015611e6357505f54600160ff909116105b80611e835750611e72306127b8565b158015611e8357505f5460ff166001145b611e9f5760405162461bcd60e51b8152600401610391906146c5565b5f805460ff191660011790558015611ec0575f805461ff0019166101001790555b611ec982612d21565b8015610da1575f805461ff0019169055604051600181525f805160206152be8339815191529060200161136b565b5f805f805f805f805f805f805f607b5f8f81526020019081526020015f20905080600101545f03611f2a575f9450612000565b5f611f33611377565b90505f611f488260725f015462989680612da6565b9050801580611f5a5750808360010154115b15611f67575f9650611ffd565b60018301546071546074546073546072546075546040516314eff2dd60e11b815273__$f1b7c69ba751c396eddc93d3bbc5414fd9$__966329dfe5ba96611fbb9691958b9591949293909290600401614b9a565b602060405180830381865af4158015611fd6573d5f803e3d5ffd5b505050506040513d601f19601f82011682018060405250810190611ffa91906149eb565b96505b50505b806005015f9054906101000a90046001600160a01b0316816004015f9054906101000a90046001600160a01b0316826006015f9054906101000a90046001600160a01b031683600101548460020154856008015f9054906101000a900460ff16866007015487600301548c896009015f336001600160a01b03166001600160a01b031681526020019081526020015f20548a601001548b600a015f01549c509c509c509c509c509c509c509c509c509c509c509c505091939597999b5091939597999b565b6120cd61031f565b505050505050565b5f610f0860675460ff1690565b5f828152607b602090815260408083206001600160a01b03851684526009019091528120546118c4565b612114612e8a565b61211d82612eb5565b606a54606c8054612145926001600160a01b0316915f61213c83614c23565b91905055612f03565b607980546001600160a01b0319166001600160a01b039290921691821790556040805163204a7f0760e21b81529051638129fc1c916004808201925f9290919082900301818387803b158015612199575f80fd5b505af11580156121ab573d5f803e3d5ffd5b505050505f818060200190518101906121c49190614da4565b60a0810151607880546001600160a01b0319166001600160a01b03909216919091179055602081015160768054929350909160ff1916600183600281111561220e5761220e613bd9565b021790555060408101516076805461ff00191661010083600381111561223657612236613bd9565b021790555060608101515160775560c0810151607a80546001600160a01b039283166001600160a01b031991821617909155610120830151608080549190931691161790556101408101516082556040517f7fcde2fdfc978beea622208b397eaf9dea8608c4f735701a3aea2262cd8fd7b2906122b69085908490614f13565b60405180910390a16002816020015160028111156122d6576122d6613bd9565b036123f4576080546001600160a01b031615806122fc57506081546001600160a01b0316155b806123075750608254155b1561232557604051630317df1360e61b815260040160405180910390fd5b6080546040805180820182525f808252602082018181529251630779d36560e01b81526001600160a01b039094166004850152306024850152905115156044840152905115156064830152736da13bde224a05a288748d857b9e7ddeffd1de08918290630779d3659060840160408051808303815f875af11580156123ac573d5f803e3d5ffd5b505050506040513d601f19601f820116820180604052508101906123d0919061503c565b608180546001600160a01b0319166001600160a01b03929092169190911790555050505b6080810151602001516001600160a01b03161580159061242157506080810151516001600160a01b031615155b1561258d576080810151805160209091015160405163446adb9960e11b81526001600160a01b03909216916388d5b7329161245e91600401613d35565b5f604051808303815f87803b158015612475575f80fd5b505af1158015612487573d5f803e3d5ffd5b5050606f8054925090505f61249b83614c23565b909155505060808181018051606f80545f908152607f6020908152604091829020845181546001600160a01b039182166001600160a01b03199182161783558387015160018401805491841691909216179055838601516002830155606080870151600384015586890151600484015560a096870151600590930192909255935495518051818401518286015183850151848c0151948a015188519b8c52938916968b019690965296168886015291870194909452958501529183015260c082019290925290517fe677e2878aaaaf6a65ecf50f849ad58100c49f6dfd57d055ba4bddd63a175d539181900360e00190a15b8051604001511580156125a35750805160200151155b80156125af5750805151155b80156125be5750805160600151155b612617578051805160725560208101516073556040808201516074556060820151607555517fec9315d9f4291207475c061feff1e5d7105750ac0ee9534af9444b4ff1dab9bc9161260e91615069565b60405180910390a15b607a546001600160a01b031615610f1557610f158160e00151612c33565b61263d61284b565b6001600160a01b0381166126a25760405162461bcd60e51b815260206004820152602660248201527f4f776e61626c653a206e6577206f776e657220697320746865207a65726f206160448201526564647265737360d01b6064820152608401610391565b6111b181612d21565b5f6001600160e01b03198216631add1a0d60e01b14806126db57506001600160e01b0319821663136439dd60e01b145b806126f657506001600160e01b031982166380c4a65f60e01b145b8061271157506001600160e01b03198216631fa5d41d60e11b145b8061272c57506001600160e01b0319821663bac1e94b60e01b145b8061274757506001600160e01b031982166360b4778960e01b145b8061276257506001600160e01b031982166358c3de9360e11b145b8061277d57506001600160e01b031982166304db2f3360e11b145b8061279857506001600160e01b03198216630da748b160e41b145b806110df57506001600160e01b03198216632d2ebbef60e01b1492915050565b6001600160a01b03163b151590565b5f6127d0612d10565b6003810180546001600160a01b038581166001600160a01b031983168117909355604051939450169182905f805160206152de833981519152905f90a3505050565b5f8061281e8484612f49565b91509150815f14801561282f575080155b1561283a5750505050565b600784015560039092019190915550565b5f612854610ef5565b90505f61285f611d6d565b9050336001600160a01b038316148015906128835750336001600160a01b03821614155b15610da15760405162461bcd60e51b815260206004820181905260248201527f4f776e61626c653a2063616c6c6572206973206e6f7420746865206f776e65726044820152606401610391565b5f5b83518110156129f3575f8482815181106128ee576128ee614bef565b60200260200101516040015190505f85838151811061290f5761290f614bef565b60200260200101515f0151905081515f0361293f578060405163e767f91f60e01b81526004016103919190613d35565b5f86848151811061295257612952614bef565b60200260200101516020015190505f600381111561297257612972613bd9565b81600381111561298457612984613bd9565b03612998576129938284613016565b6129e8565b60018160038111156129ac576129ac613bd9565b036129bb5761299382846131a0565b60028160038111156129cf576129cf613bd9565b036129de5761299382846132fd565b6129e88284613547565b5050506001016128d2565b507f8faa70878671ccd212d20771b795c50af8fd3ff6cf27f4bde57e5d4de0aeb673838383604051612a2793929190615077565b60405180910390a1610f158282613752565b5f8051602061529e833981519152546001600160a01b031690565b33612a5d611d6d565b6001600160a01b0316146111b15733612a74611d6d565b60405163163678e960e01b81526001600160a01b03928316600482015291166024820152604401610391565b7f4910fdfa16fed3260ed0e7147f7cc6da11a60208b5b9406d12a635614ffd91435460ff1615612ad357610f1583613814565b826001600160a01b03166352d1902d6040518163ffffffff1660e01b8152600401602060405180830381865afa925050508015612b2d575060408051601f3d908101601f19168201909252612b2a918101906149eb565b60015b612b905760405162461bcd60e51b815260206004820152602e60248201527f45524331393637557067726164653a206e657720696d706c656d656e7461746960448201526d6f6e206973206e6f74205555505360901b6064820152608401610391565b5f8051602061529e8339815191528114612bfe5760405162461bcd60e51b815260206004820152602960248201527f45524331393637557067726164653a20756e737570706f727465642070726f786044820152681a58589b195555525160ba1b6064820152608401610391565b50610f158383836138ad565b6001600160a01b0381166111b1578060405163084c41ef60e01b81526004016103919190613d35565b607a5460785460408051633629edcd60e11b815290516001600160a01b039384169363fc2ebdd193309387939190921691636c53db9a9160048083019260209291908290030181865afa158015612c8c573d5f803e3d5ffd5b505050506040513d601f19601f82011682018060405250810190612cb091906148ae565b60405160e085901b6001600160e01b03191681526001600160a01b039384166004820152602481019290925290911660448201526064015f604051808303815f87803b158015612cfe575f80fd5b505af11580156110cf573d5f803e3d5ffd5b5f8051602061521283398151915290565b603380546001600160a01b038381166001600160a01b0319831681179093556040519116919082905f805160206152de833981519152905f90a35050565b6067805460ff19168215159081179091556040519081527fd94c9bc4d43c51d8dc345a016d8e3d994432fac68e72832e4cf3a616bd8efae09060200160405180910390a150565b5f80805f19858709858702925082811083820303915050805f03612ddd57838281612dd357612dd3614b3d565b04925050506118c4565b808411612e245760405162461bcd60e51b81526020600482015260156024820152744d6174683a206d756c446976206f766572666c6f7760581b6044820152606401610391565b5f84868809600260036001881981018916988990049182028318808302840302808302840302808302840302808302840302808302840302918202909203025f889003889004909101858311909403939093029303949094049190911702949350505050565b6065546001600160a01b0316331461107c5760405163075fd2b160e01b815260040160405180910390fd5b612ebd612e8a565b60685415612ede5760405163439a74c960e01b815260040160405180910390fd5b805f03612efe57604051637fcce2a960e01b815260040160405180910390fd5b606855565b6040516001600160601b03193360601b166020820152603481018290525f90819060540160405160208183030381529060405280519060200120905061181484826138d1565b5f804390508084600701541115612f6257612f62615129565b80846007015403612f7757505f90508061300f565b73__$f1b7c69ba751c396eddc93d3bbc5414fd9$__63010dfe64856007015483612fa19190614bca565b60038701546074546040516001600160e01b031960e086901b168152612fcd939291899160040161418f565b602060405180830381865af4158015612fe8573d5f803e3d5ffd5b505050506040513d601f19601f8201168201806040525081019061300c91906149eb565b91505b9250929050565b6001600160a01b03821661303f57806040516302b8da0760e21b8152600401610391919061513d565b5f613048612d10565b90505f816001018054905090506130778460405180606001604052806024815260200161523260249139613965565b5f5b83518110156110cf575f84828151811061309557613095614bef565b6020908102919091018101516001600160e01b031981165f908152918690526040909120549091506001600160a01b031680156130e7578160405163ebbf5d0760e01b81526004016103919190613ba0565b6040805180820182526001600160a01b03808a16825261ffff80881660208085019182526001600160e01b031988165f9081528b8252958620945185549251909316600160a01b026001600160b01b0319909216929093169190911717909155600180880180549182018155835291206008820401805460e085901c60046007909416939093026101000a92830263ffffffff90930219169190911790558361318f81614c03565b945050600190920191506130799050565b5f6131a9612d10565b90506001600160a01b0383166131d4578160405163cd98a96f60e01b8152600401610391919061513d565b6131f68360405180606001604052806028815260200161532560289139613965565b5f5b8251811015610f22575f83828151811061321457613214614bef565b6020908102919091018101516001600160e01b031981165f908152918590526040909120549091506001600160a01b03163081036132675781604051632901806d60e11b81526004016103919190613ba0565b856001600160a01b0316816001600160a01b03160361329b5781604051631ac6ce8d60e11b81526004016103919190613ba0565b6001600160a01b0381166132c45781604051637479f93960e01b81526004016103919190613ba0565b506001600160e01b0319165f90815260208390526040902080546001600160a01b0319166001600160a01b0386161790556001016131f8565b5f613306612d10565b60018101549091506001600160a01b03841615613338578360405163d091bc8160e01b81526004016103919190613d35565b5f5b83518110156110cf575f84828151811061335657613356614bef565b6020908102919091018101516001600160e01b031981165f9081528683526040908190208151808301909252546001600160a01b038116808352600160a01b90910461ffff1693820193909352909250906133c65781604051637a08a22d60e01b81526004016103919190613ba0565b8051306001600160a01b03909116036133f45781604051630df5fd6160e31b81526004016103919190613ba0565b836133fe8161518a565b94505083816020015161ffff16146134d8575f85600101858154811061342657613426614bef565b905f5260205f2090600891828204019190066004029054906101000a900460e01b90508086600101836020015161ffff168154811061346757613467614bef565b5f91825260208083206008830401805463ffffffff60079094166004026101000a938402191660e09590951c92909202939093179055838201516001600160e01b03199390931681529087905260409020805461ffff60a01b1916600160a01b61ffff909316929092029190911790555b846001018054806134eb576134eb61519f565b5f828152602080822060085f1990940193840401805463ffffffff600460078716026101000a0219169055919092556001600160e01b0319909316815291859052506040902080546001600160b01b031916905560010161333a565b6001600160a01b03821661357057806040516302b8da0760e21b8152600401610391919061513d565b5f613579612d10565b905061359d836040518060600160405280602581526020016151ed60259139613965565b5f82516001600160401b038111156135b7576135b7613d49565b6040519080825280602002602001820160405280156135e0578160200160208202803683370190505b5090505f8084516001600160401b038111156135fe576135fe613d49565b604051908082528060200260200182016040528015613627578160200160208202803683370190505b5090505f805b8651811015613716575f87828151811061364957613649614bef565b6020908102919091018101516001600160e01b031981165f908152918990526040909120549091506001600160a01b0316806136bb5781878761368b81614c23565b98508151811061369d5761369d614bef565b6001600160e01b03199092166020928302919091019091015261370c565b896001600160a01b0316816001600160a01b03161461370c578185856136e081614c23565b9650815181106136f2576136f2614bef565b6001600160e01b0319909216602092830291909101909101525b505060010161362d565b508215613730576137308761372b868661398c565b613016565b80156137495761374987613744848461398c565b6131a0565b50505050505050565b6001600160a01b038216613764575050565b6137868260405180606001604052806028815260200161525660289139613965565b5f80836001600160a01b0316836040516137a091906151b3565b5f60405180830381855af49150503d805f81146137d8576040519150601f19603f3d011682016040523d82523d5f602084013e6137dd565b606091505b509150915081610f22578051156137f75780518082602001fd5b838360405163192105d760e01b81526004016103919291906151c9565b61381d816127b8565b61387f5760405162461bcd60e51b815260206004820152602d60248201527f455243313936373a206e657720696d706c656d656e746174696f6e206973206e60448201526c1bdd08184818dbdb9d1c9858dd609a1b6064820152608401610391565b5f8051602061529e83398151915280546001600160a01b0319166001600160a01b0392909216919091179055565b6138b683613a32565b5f825111806138c25750805b15610f1557610f228383613a71565b5f763d602d80600a3d3981f3363d3d373d3d3d363d730000008360601b60e81c175f526e5af43d82803e903d91602b57fd5bf38360781b1760205281603760095ff590506001600160a01b0381166110df5760405162461bcd60e51b8152602060048201526017602482015276115490cc4c4d8dce8818dc99585d194c8819985a5b1959604a1b6044820152606401610391565b813b5f819003610f1557828260405163919834b960e01b81526004016103919291906151c9565b60605f826001600160401b038111156139a7576139a7613d49565b6040519080825280602002602001820160405280156139d0578160200160208202803683370190505b5090505f5b83811015613a2a578481815181106139ef576139ef614bef565b6020026020010151828281518110613a0957613a09614bef565b6001600160e01b0319909216602092830291909101909101526001016139d5565b509392505050565b613a3b81613814565b6040516001600160a01b038216907fbc7cd75a20ee27fd9adebab32041f755214dbc6bffa90cc0225b39da2e5c2d3b905f90a250565b60606118c483836040518060600160405280602781526020016152fe6027913960605f80856001600160a01b031685604051613aad91906151b3565b5f60405180830381855af49150503d805f8114613ae5576040519150601f19603f3d011682016040523d82523d5f602084013e613aea565b606091505b5091509150613afb86838387613b05565b9695505050505050565b60608315613b715782515f03613b6a57613b1e856127b8565b613b6a5760405162461bcd60e51b815260206004820152601d60248201527f416464726573733a2063616c6c20746f206e6f6e2d636f6e74726163740000006044820152606401610391565b5081611814565b6118148383815115613b865781518083602001fd5b8060405162461bcd60e51b81526004016103919190614bdd565b6001600160e01b031991909116815260200190565b5f60208284031215613bc5575f80fd5b5035919050565b6001600160a01b03169052565b634e487b7160e01b5f52602160045260245ffd5b60078110613bfd57613bfd613bd9565b9052565b5f81518084528060208401602086015e5f602082860101526020601f19601f83011685010191505092915050565b805182525f6020820151604060208501526118146040850182613c01565b8e8152602081018e9052604081018d9052606081018c90526001600160a01b038b811660808301528a1660a08201525f613c8a60c083018b613bcc565b8860e0830152613c9e610100830189613bed565b610200610120830152613cb5610200830188613c2f565b865161014084015260208701516101608401526040909601516001600160a01b0316610180830152506101a08101939093526101c08301919091526101e0909101529a9950505050505050505050565b80356001600160e01b031981168114611dfb575f80fd5b5f60208284031215613d2c575f80fd5b6118c482613d05565b6001600160a01b0391909116815260200190565b634e487b7160e01b5f52604160045260245ffd5b604080519081016001600160401b0381118282101715613d7f57613d7f613d49565b60405290565b604051608081016001600160401b0381118282101715613d7f57613d7f613d49565b60405160c081016001600160401b0381118282101715613d7f57613d7f613d49565b604051606081016001600160401b0381118282101715613d7f57613d7f613d49565b60405161016081016001600160401b0381118282101715613d7f57613d7f613d49565b604051601f8201601f191681016001600160401b0381118282101715613e3657613e36613d49565b604052919050565b5f6001600160401b03821115613e5657613e56613d49565b5060051b60200190565b6001600160a01b03811681146111b1575f80fd5b8035611dfb81613e60565b5f82601f830112613e8e575f80fd5b81356020613ea3613e9e83613e3e565b613e0e565b8083825260208201915060208460051b870101935086841115613ec4575f80fd5b602086015b84811015613ee9578035613edc81613e60565b8352918301918301613ec9565b509695505050505050565b5f6001600160401b03821115613f0c57613f0c613d49565b50601f01601f191660200190565b5f82601f830112613f29575f80fd5b8135613f37613e9e82613ef4565b818152846020838601011115613f4b575f80fd5b816020850160208301375f918101602001919091529392505050565b5f805f60608486031215613f79575f80fd5b83356001600160401b0380821115613f8f575f80fd5b613f9b87838801613e7f565b94506020860135915080821115613fb0575f80fd5b50613fbd86828701613f1a565b9250506040840135613fce81613e60565b809150509250925092565b5f805f8060808587031215613fec575f80fd5b8435935060208501356001600160401b0380821115614009575f80fd5b908601906040828903121561401c575f80fd5b614024613d5d565b82358152602083013582811115614039575f80fd5b6140458a828601613f1a565b60208301525094505050604085013561405d81613e60565b9396929550929360600135925050565b5f805f6060848603121561407f575f80fd5b833561408a81613e60565b9250602084013561409a81613e60565b91506040840135613fce81613e60565b5f8083601f8401126140ba575f80fd5b5081356001600160401b038111156140d0575f80fd5b60208301915083602082850101111561300f575f80fd5b5f805f805f606086880312156140fb575f80fd5b85356001600160401b0380821115614111575f80fd5b818801915088601f830112614124575f80fd5b813581811115614132575f80fd5b8960208260051b8501011115614146575f80fd5b6020830197508096505061415c60208901613e74565b94506040880135915080821115614171575f80fd5b5061417e888289016140aa565b969995985093965092949392505050565b93845260208401929092526040830152606082015260800190565b5f80604083850312156141bb575f80fd5b82356001600160401b038111156141d0575f80fd5b6141dc85828601613f1a565b92505060208301356141ed81613e60565b809150509250929050565b600481106111b1576111b1613bd9565b613bfd816141f8565b6020810161421e836141f8565b91905290565b5f8060408385031215614235575f80fd5b823561424081613e60565b946020939093013593505050565b5f806040838503121561425f575f80fd5b50508035926020909101359150565b60038110613bfd57613bfd613bd9565b602081016110df828461426e565b5f6020828403121561429c575f80fd5b81356118c481613e60565b5f80604083850312156142b8575f80fd5b82356142c381613e60565b915060208301356001600160401b038111156142dd575f80fd5b6142e985828601613f1a565b9150509250929050565b5f805f60608486031215614305575f80fd5b833561431081613e60565b925060208401356001600160401b0381111561432a575f80fd5b613fbd86828701613f1a565b5f815180845260208085019450602084015f5b8381101561436f5781516001600160e01b03191687529582019590820190600101614349565b509495945050505050565b5f60208083018184528085518083526040925060408601915060408160051b8701018488015f5b838110156143e957888303603f19018552815180516001600160a01b031684528701518784018790526143d687850182614336565b95880195935050908601906001016143a1565b509098975050505050505050565b5f805f805f6060868803121561440b575f80fd5b8535945060208601356001600160401b0380821115614428575f80fd5b61443489838a016140aa565b90965094506040880135915080821115614171575f80fd5b80151581146111b1575f80fd5b5f60208284031215614469575f80fd5b81356118c48161444c565b6001600160a01b038d811682528c811660208301528b166040820152606081018a90526080810189905261018081016144b060a083018a613bed565b8760c08301528660e0830152856101008301528461012083015283610140830152826101608301529d9c50505050505050505050505050565b5f608082840312156144f9575f80fd5b614501613d85565b90508135815260208201356020820152604082013560408201526060820135606082015292915050565b5f805f805f808688036101c0811215614542575f80fd5b60c081121561454f575f80fd5b50614558613da7565b873561456381613e60565b8152602088013561457381613e60565b8060208301525060408801356040820152606088013560608201526080880135608082015260a088013560a0820152809650506145b38860c089016144e9565b945061014087013593506101608701356001600160401b03808211156145d7575f80fd5b6145e38a838b01613e7f565b94506101808901359150808211156145f9575f80fd5b5061460689828a01613e7f565b9250506146166101a08801613e74565b90509295509295509295565b5f8060408385031215614633575f80fd5b8235915060208301356141ed81613e60565b5f8060408385031215614656575f80fd5b8235915060208301356001600160401b038111156142dd575f80fd5b5f60208284031215614682575f80fd5b81516118c48161444c565b600181811c908216806146a157607f821691505b6020821081036146bf57634e487b7160e01b5f52602260045260245ffd5b50919050565b6020808252602e908201527f496e697469616c697a61626c653a20636f6e747261637420697320616c72656160408201526d191e481a5b9a5d1a585b1a5e995960921b606082015260800190565b600481106111b1575f80fd5b5f61472c613e9e84613e3e565b83815260208082019190600586811b860136811115614749575f80fd5b865b8181101561482f5780356001600160401b0380821115614769575f80fd5b818a0191506060823603121561477d575f80fd5b614785613dc9565b823561479081613e60565b81528287013561479f81614713565b81880152604083810135838111156147b5575f80fd5b939093019236601f8501126147c8575f80fd5b833592506147d8613e9e84613e3e565b83815292871b840188019288810190368511156147f3575f80fd5b948901945b848610156148185761480986613d05565b825294890194908901906147f8565b91830191909152508852505094830194830161474b565b5092979650505050505050565b6020808252602c908201525f8051602061527e83398151915260408201526b19195b1959d85d1958d85b1b60a21b606082015260800190565b6020808252602c908201525f8051602061527e83398151915260408201526b6163746976652070726f787960a01b606082015260800190565b5f602082840312156148be575f80fd5b81516118c481613e60565b8051611dfb81613e60565b5f60208083850312156148e5575f80fd5b82516001600160401b03808211156148fb575f80fd5b9084019060c0828703121561490e575f80fd5b614916613da7565b825181528383015161492781613e60565b81850152604083015161493981613e60565b604082015260608301518281111561494f575f80fd5b830160408189031215614960575f80fd5b614968613d5d565b81518152858201518481111561497c575f80fd5b82019350601f8401891361498e575f80fd5b8351915061499e613e9e83613ef4565b82815289878487010111156149b1575f80fd5b828786018883015e5f928101870192909252948501526060810193909352506080818101519083015260a090810151908201529392505050565b5f602082840312156149fb575f80fd5b5051919050565b5f60208284031215614a12575f80fd5b815160ff811681146118c4575f80fd5b634e487b7160e01b5f52601160045260245ffd5b60ff82811682821603908111156110df576110df614a22565b600181815b80851115614a8957815f1904821115614a6f57614a6f614a22565b80851615614a7c57918102915b93841c9390800290614a54565b509250929050565b5f82614a9f575060016110df565b81614aab57505f6110df565b8160018114614ac15760028114614acb57614ae7565b60019150506110df565b60ff841115614adc57614adc614a22565b50506001821b6110df565b5060208310610133831016604e8410600b8410161715614b0a575081810a6110df565b614b148383614a4f565b805f1904821115614b2757614b27614a22565b029392505050565b5f6118c460ff841683614a91565b634e487b7160e01b5f52601260045260245ffd5b5f82614b6b57634e487b7160e01b5f52601260045260245ffd5b500490565b80820281158282048414176110df576110df614a22565b808201808211156110df576110df614a22565b968752602087019590955260408601939093526060850191909152608084015260a083015260c082015260e00190565b818103818111156110df576110df614a22565b602081525f6118c46020830184613c01565b634e487b7160e01b5f52603260045260245ffd5b5f61ffff808316818103614c1957614c19614a22565b6001019392505050565b5f60018201614c3457614c34614a22565b5060010190565b5f60808284031215614c4b575f80fd5b614c53613d85565b90508151815260208201516020820152604082015160408201526060820151606082015292915050565b805160038110611dfb575f80fd5b8051611dfb81614713565b5f60208284031215614ca6575f80fd5b604051602081016001600160401b0381118282101715614cc857614cc8613d49565b6040529151825250919050565b5f60c08284031215614ce5575f80fd5b614ced613da7565b90508151614cfa81613e60565b81526020820151614d0a81613e60565b8060208301525060408201516040820152606082015160608201526080820151608082015260a082015160a082015292915050565b5f82601f830112614d4e575f80fd5b81516020614d5e613e9e83613e3e565b8083825260208201915060208460051b870101935086841115614d7f575f80fd5b602086015b84811015613ee9578051614d9781613e60565b8352918301918301614d84565b5f60208284031215614db4575f80fd5b81516001600160401b0380821115614dca575f80fd5b908301906102608286031215614dde575f80fd5b614de6613deb565b614df08684614c3b565b8152614dfe60808401614c7d565b6020820152614e0f60a08401614c8b565b6040820152614e218660c08501614c96565b6060820152614e338660e08501614cd5565b6080820152614e456101a084016148c9565b60a0820152614e576101c084016148c9565b60c08201526101e083015160e082015261020083015182811115614e79575f80fd5b614e8587828601614d3f565b61010083015250614e9961022084016148c9565b6101208201526102409290920151610140830152509392505050565b805182526020810151602083015260408101516040830152606081015160608301525050565b5f815180845260208085019450602084015f5b8381101561436f5781516001600160a01b031687529582019590820190600101614eee565b82815260406020820152614f2b604082018351614eb5565b5f6020830151614f3e60c084018261426e565b506040830151614f5160e0840182614208565b506060830151610100614f6681850183519052565b60808581015180516001600160a01b0390811661012088810191909152602083015190911661014088015260408201516101608801526060820151610180880152918101516101a087015260a0908101516101c08701528601519250614fd06101e0860184613bcc565b60c08601519250614fe5610200860184613bcc565b60e08601516102208601528186015192506102609150816102408601526150106102a0860184614edb565b9086015190925061502385830182613bcc565b5050610140840151610280840152809150509392505050565b5f806040838503121561504d575f80fd5b82516150588161444c565b60208401519092506141ed81613e60565b608081016110df8284614eb5565b5f60608083016060845280875180835260808601915060808160051b87010192506020808a015f5b838110156150fb57888603607f19018552815180516001600160a01b03168752838101516150cc816141f8565b878501526040908101519087018890526150e888880182614336565b965050938201939082019060010161509f565b50506151098188018a613bcc565b505050838103604085015261511e8186613c01565b979650505050505050565b634e487b7160e01b5f52600160045260245ffd5b602080825282518282018190525f9190848201906040850190845b8181101561517e5783516001600160e01b03191683529284019291840191600101615158565b50909695505050505050565b5f8161519857615198614a22565b505f190190565b634e487b7160e01b5f52603160045260245ffd5b5f82518060208501845e5f920191825250919050565b6001600160a01b03831681526040602082018190525f9061181490830184613c0156fe4c69624469616d6f6e644375743a204175746f20666163657420686173206e6f20636f6465c8fcad8db84d3cc18b4c41d551ea0ee66dd599cde068d998e57d5e09332c131c4c69624469616d6f6e644375743a2041646420666163657420686173206e6f20636f64654c69624469616d6f6e644375743a205f696e6974206164647265737320686173206e6f20636f646546756e6374696f6e206d7573742062652063616c6c6564207468726f75676820360894a13ba1a3210667c828492db98dca3e2076cc3735a920a3ca505d382bbc7f26b83ff96e1f2b6a682f133852f6798a09c465da95921460cefb38474024988be0079c531659141344cd1fd0a4f28419497f9722a3daafe3b4186f6b6457e0416464726573733a206c6f772d6c6576656c2064656c65676174652063616c6c206661696c65644c69624469616d6f6e644375743a205265706c61636520666163657420686173206e6f20636f6465a164736f6c6343000819000a","linkReferences":{"pkg/contracts/src/CVStrategy/ConvictionsUtils.sol":{"ConvictionsUtils":[{"start":6122,"length":20},{"start":6263,"length":20},{"start":8145,"length":20},{"start":12224,"length":20}]}}},"methodIdentifiers":{"DISPUTE_COOLDOWN_SEC()":"f5be3f7c","NATIVE()":"a0cf0aea","RULING_OPTIONS()":"626c47e8","activatePoints()":"814516ad","allocate(bytes,address)":"ef2920fc","arbitrableConfigs(uint256)":"41bb7605","calculateProposalConviction(uint256)":"60b0645a","calculateThreshold(uint256)":"59a5db8b","cancelProposal(uint256)":"e0a8f6f5","cloneNonce()":"33960459","collateralVault()":"0bece79c","connectSuperfluidGDA(address)":"924e6704","currentArbitrableConfigVersion()":"125fd1d9","cvParams()":"2506b870","deactivatePoints()":"1ddf1e23","deactivatePoints(address)":"6453d9c4","decreasePower(address,uint256)":"2ed04b2b","diamondCut((address,uint8,bytes4[])[],address,bytes)":"1f931c1c","disconnectSuperfluidGDA(address)":"c69271ec","disputeCount()":"a28889e1","disputeIdToProposalId(uint256)":"255ffb38","disputeProposal(uint256,string,bytes)":"b41596ec","distribute(address[],bytes,address)":"0a6f0ee9","editProposal(uint256,(uint256,string),address,uint256)":"141e3b38","getAllo()":"15cc481e","getArbitrableConfig()":"059351cd","getFacets()":"662ea47d","getMaxAmount()":"0ba95909","getPointSystem()":"c3292171","getPoolAmount()":"4ab4ba42","getPoolId()":"38fff2d0","getProposal(uint256)":"c7f758a8","getProposalStakedAmount(uint256)":"dc96ff2d","getProposalVoterStake(uint256,address)":"e0dd2c38","increasePower(address,uint256)":"782aadff","init(address,address,address)":"184b9559","init(address,string,address)":"60d5dedc","initialize(address)":"c4d66de8","initialize(uint256,bytes)":"edd146cc","isPoolActive()":"df868ed3","owner()":"8da5cb5b","pointConfig()":"a47ff7e5","pointSystem()":"2dbd6fdd","proposalCounter()":"0c0512e9","proposalType()":"351d9f96","proposals(uint256)":"013cf08b","proxiableUUID()":"52d1902d","proxyOwner()":"025313a2","rebalance()":"7d7c2a1c","registerRecipient(bytes,address)":"2bbe0cae","registryCommunity()":"6003e414","renounceOwnership()":"715018a6","rule(uint256,uint256)":"311a6c56","setCollateralVaultTemplate(address)":"b0d3713a","setPoolActive(bool)":"b5f620ce","setPoolParams((address,address,uint256,uint256,uint256,uint256),(uint256,uint256,uint256,uint256),uint256,address[],address[],address)":"d5b7cc54","setSybilScorer(address,uint256)":"3864d366","streamingRatePerSecond()":"94573cbb","superfluidGDA()":"1b36f56f","superfluidToken()":"05caa7f3","supportsInterface(bytes4)":"01ffc9a7","sybilScorer()":"b6c61f31","totalPointsActivated()":"aba9ffee","totalStaked()":"817b1cd2","totalVoterStakePct(address)":"5db64b99","transferOwnership(address)":"f2fde38b","updateProposalConviction(uint256)":"1aa91a9e","upgradeTo(address)":"3659cfe6","upgradeToAndCall(address,bytes)":"4f1ef286","voterStakedProposals(address,uint256)":"868c57b8"},"storageLayout":{"storage":[{"astId":49373,"contract":"pkg/contracts/src/CVStrategy/CVStrategy.sol:CVStrategy","label":"_initialized","offset":0,"slot":"0","type":"t_uint8"},{"astId":49376,"contract":"pkg/contracts/src/CVStrategy/CVStrategy.sol:CVStrategy","label":"_initializing","offset":1,"slot":"0","type":"t_bool"},{"astId":50000,"contract":"pkg/contracts/src/CVStrategy/CVStrategy.sol:CVStrategy","label":"__gap","offset":0,"slot":"1","type":"t_array(t_uint256)50_storage"},{"astId":49165,"contract":"pkg/contracts/src/CVStrategy/CVStrategy.sol:CVStrategy","label":"_owner","offset":0,"slot":"51","type":"t_address"},{"astId":49285,"contract":"pkg/contracts/src/CVStrategy/CVStrategy.sol:CVStrategy","label":"__gap","offset":0,"slot":"52","type":"t_array(t_uint256)49_storage"},{"astId":81838,"contract":"pkg/contracts/src/CVStrategy/CVStrategy.sol:CVStrategy","label":"allo","offset":0,"slot":"101","type":"t_contract(IAllo)351"},{"astId":81840,"contract":"pkg/contracts/src/CVStrategy/CVStrategy.sol:CVStrategy","label":"strategyId","offset":0,"slot":"102","type":"t_bytes32"},{"astId":81842,"contract":"pkg/contracts/src/CVStrategy/CVStrategy.sol:CVStrategy","label":"poolActive","offset":0,"slot":"103","type":"t_bool"},{"astId":81844,"contract":"pkg/contracts/src/CVStrategy/CVStrategy.sol:CVStrategy","label":"poolId","offset":0,"slot":"104","type":"t_uint256"},{"astId":81846,"contract":"pkg/contracts/src/CVStrategy/CVStrategy.sol:CVStrategy","label":"poolAmount","offset":0,"slot":"105","type":"t_uint256"},{"astId":82477,"contract":"pkg/contracts/src/CVStrategy/CVStrategy.sol:CVStrategy","label":"collateralVaultTemplate","offset":0,"slot":"106","type":"t_address"},{"astId":82479,"contract":"pkg/contracts/src/CVStrategy/CVStrategy.sol:CVStrategy","label":"surpressStateMutabilityWarning","offset":0,"slot":"107","type":"t_uint256"},{"astId":82481,"contract":"pkg/contracts/src/CVStrategy/CVStrategy.sol:CVStrategy","label":"cloneNonce","offset":0,"slot":"108","type":"t_uint256"},{"astId":82483,"contract":"pkg/contracts/src/CVStrategy/CVStrategy.sol:CVStrategy","label":"disputeCount","offset":0,"slot":"109","type":"t_uint64"},{"astId":82485,"contract":"pkg/contracts/src/CVStrategy/CVStrategy.sol:CVStrategy","label":"proposalCounter","offset":0,"slot":"110","type":"t_uint256"},{"astId":82487,"contract":"pkg/contracts/src/CVStrategy/CVStrategy.sol:CVStrategy","label":"currentArbitrableConfigVersion","offset":0,"slot":"111","type":"t_uint256"},{"astId":82489,"contract":"pkg/contracts/src/CVStrategy/CVStrategy.sol:CVStrategy","label":"totalStaked","offset":0,"slot":"112","type":"t_uint256"},{"astId":82491,"contract":"pkg/contracts/src/CVStrategy/CVStrategy.sol:CVStrategy","label":"totalPointsActivated","offset":0,"slot":"113","type":"t_uint256"},{"astId":82494,"contract":"pkg/contracts/src/CVStrategy/CVStrategy.sol:CVStrategy","label":"cvParams","offset":0,"slot":"114","type":"t_struct(CVParams)86006_storage"},{"astId":82497,"contract":"pkg/contracts/src/CVStrategy/CVStrategy.sol:CVStrategy","label":"proposalType","offset":0,"slot":"118","type":"t_enum(ProposalType)85907"},{"astId":82500,"contract":"pkg/contracts/src/CVStrategy/CVStrategy.sol:CVStrategy","label":"pointSystem","offset":1,"slot":"118","type":"t_enum(PointSystem)85912"},{"astId":82503,"contract":"pkg/contracts/src/CVStrategy/CVStrategy.sol:CVStrategy","label":"pointConfig","offset":0,"slot":"119","type":"t_struct(PointSystemConfig)85983_storage"},{"astId":82506,"contract":"pkg/contracts/src/CVStrategy/CVStrategy.sol:CVStrategy","label":"registryCommunity","offset":0,"slot":"120","type":"t_contract(RegistryCommunity)94492"},{"astId":82509,"contract":"pkg/contracts/src/CVStrategy/CVStrategy.sol:CVStrategy","label":"collateralVault","offset":0,"slot":"121","type":"t_contract(ICollateralVault)100213"},{"astId":82512,"contract":"pkg/contracts/src/CVStrategy/CVStrategy.sol:CVStrategy","label":"sybilScorer","offset":0,"slot":"122","type":"t_contract(ISybilScorer)91938"},{"astId":82517,"contract":"pkg/contracts/src/CVStrategy/CVStrategy.sol:CVStrategy","label":"proposals","offset":0,"slot":"123","type":"t_mapping(t_uint256,t_struct(Proposal)85975_storage)"},{"astId":82521,"contract":"pkg/contracts/src/CVStrategy/CVStrategy.sol:CVStrategy","label":"totalVoterStakePct","offset":0,"slot":"124","type":"t_mapping(t_address,t_uint256)"},{"astId":82526,"contract":"pkg/contracts/src/CVStrategy/CVStrategy.sol:CVStrategy","label":"voterStakedProposals","offset":0,"slot":"125","type":"t_mapping(t_address,t_array(t_uint256)dyn_storage)"},{"astId":82530,"contract":"pkg/contracts/src/CVStrategy/CVStrategy.sol:CVStrategy","label":"disputeIdToProposalId","offset":0,"slot":"126","type":"t_mapping(t_uint256,t_uint256)"},{"astId":82535,"contract":"pkg/contracts/src/CVStrategy/CVStrategy.sol:CVStrategy","label":"arbitrableConfigs","offset":0,"slot":"127","type":"t_mapping(t_uint256,t_struct(ArbitrableConfig)85997_storage)"},{"astId":82538,"contract":"pkg/contracts/src/CVStrategy/CVStrategy.sol:CVStrategy","label":"superfluidToken","offset":0,"slot":"128","type":"t_contract(ISuperToken)76210"},{"astId":82541,"contract":"pkg/contracts/src/CVStrategy/CVStrategy.sol:CVStrategy","label":"superfluidGDA","offset":0,"slot":"129","type":"t_contract(ISuperfluidPool)75038"},{"astId":82543,"contract":"pkg/contracts/src/CVStrategy/CVStrategy.sol:CVStrategy","label":"streamingRatePerSecond","offset":0,"slot":"130","type":"t_uint256"},{"astId":84532,"contract":"pkg/contracts/src/CVStrategy/CVStrategy.sol:CVStrategy","label":"__gap","offset":0,"slot":"131","type":"t_array(t_uint256)49_storage"}],"types":{"t_address":{"encoding":"inplace","label":"address","numberOfBytes":"20"},"t_array(t_uint256)49_storage":{"encoding":"inplace","label":"uint256[49]","numberOfBytes":"1568","base":"t_uint256"},"t_array(t_uint256)50_storage":{"encoding":"inplace","label":"uint256[50]","numberOfBytes":"1600","base":"t_uint256"},"t_array(t_uint256)dyn_storage":{"encoding":"dynamic_array","label":"uint256[]","numberOfBytes":"32","base":"t_uint256"},"t_bool":{"encoding":"inplace","label":"bool","numberOfBytes":"1"},"t_bytes32":{"encoding":"inplace","label":"bytes32","numberOfBytes":"32"},"t_contract(IAllo)351":{"encoding":"inplace","label":"contract IAllo","numberOfBytes":"20"},"t_contract(IArbitrator)100180":{"encoding":"inplace","label":"contract IArbitrator","numberOfBytes":"20"},"t_contract(ICollateralVault)100213":{"encoding":"inplace","label":"contract ICollateralVault","numberOfBytes":"20"},"t_contract(ISuperToken)76210":{"encoding":"inplace","label":"contract ISuperToken","numberOfBytes":"20"},"t_contract(ISuperfluidPool)75038":{"encoding":"inplace","label":"contract ISuperfluidPool","numberOfBytes":"20"},"t_contract(ISybilScorer)91938":{"encoding":"inplace","label":"contract ISybilScorer","numberOfBytes":"20"},"t_contract(RegistryCommunity)94492":{"encoding":"inplace","label":"contract RegistryCommunity","numberOfBytes":"20"},"t_enum(PointSystem)85912":{"encoding":"inplace","label":"enum PointSystem","numberOfBytes":"1"},"t_enum(ProposalStatus)85932":{"encoding":"inplace","label":"enum ProposalStatus","numberOfBytes":"1"},"t_enum(ProposalType)85907":{"encoding":"inplace","label":"enum ProposalType","numberOfBytes":"1"},"t_mapping(t_address,t_array(t_uint256)dyn_storage)":{"encoding":"mapping","key":"t_address","label":"mapping(address => uint256[])","numberOfBytes":"32","value":"t_array(t_uint256)dyn_storage"},"t_mapping(t_address,t_uint256)":{"encoding":"mapping","key":"t_address","label":"mapping(address => uint256)","numberOfBytes":"32","value":"t_uint256"},"t_mapping(t_uint256,t_struct(ArbitrableConfig)85997_storage)":{"encoding":"mapping","key":"t_uint256","label":"mapping(uint256 => struct ArbitrableConfig)","numberOfBytes":"32","value":"t_struct(ArbitrableConfig)85997_storage"},"t_mapping(t_uint256,t_struct(Proposal)85975_storage)":{"encoding":"mapping","key":"t_uint256","label":"mapping(uint256 => struct Proposal)","numberOfBytes":"32","value":"t_struct(Proposal)85975_storage"},"t_mapping(t_uint256,t_uint256)":{"encoding":"mapping","key":"t_uint256","label":"mapping(uint256 => uint256)","numberOfBytes":"32","value":"t_uint256"},"t_string_storage":{"encoding":"bytes","label":"string","numberOfBytes":"32"},"t_struct(ArbitrableConfig)85997_storage":{"encoding":"inplace","label":"struct ArbitrableConfig","numberOfBytes":"192","members":[{"astId":85986,"contract":"pkg/contracts/src/CVStrategy/CVStrategy.sol:CVStrategy","label":"arbitrator","offset":0,"slot":"0","type":"t_contract(IArbitrator)100180"},{"astId":85988,"contract":"pkg/contracts/src/CVStrategy/CVStrategy.sol:CVStrategy","label":"tribunalSafe","offset":0,"slot":"1","type":"t_address"},{"astId":85990,"contract":"pkg/contracts/src/CVStrategy/CVStrategy.sol:CVStrategy","label":"submitterCollateralAmount","offset":0,"slot":"2","type":"t_uint256"},{"astId":85992,"contract":"pkg/contracts/src/CVStrategy/CVStrategy.sol:CVStrategy","label":"challengerCollateralAmount","offset":0,"slot":"3","type":"t_uint256"},{"astId":85994,"contract":"pkg/contracts/src/CVStrategy/CVStrategy.sol:CVStrategy","label":"defaultRuling","offset":0,"slot":"4","type":"t_uint256"},{"astId":85996,"contract":"pkg/contracts/src/CVStrategy/CVStrategy.sol:CVStrategy","label":"defaultRulingTimeout","offset":0,"slot":"5","type":"t_uint256"}]},"t_struct(CVParams)86006_storage":{"encoding":"inplace","label":"struct CVParams","numberOfBytes":"128","members":[{"astId":85999,"contract":"pkg/contracts/src/CVStrategy/CVStrategy.sol:CVStrategy","label":"maxRatio","offset":0,"slot":"0","type":"t_uint256"},{"astId":86001,"contract":"pkg/contracts/src/CVStrategy/CVStrategy.sol:CVStrategy","label":"weight","offset":0,"slot":"1","type":"t_uint256"},{"astId":86003,"contract":"pkg/contracts/src/CVStrategy/CVStrategy.sol:CVStrategy","label":"decay","offset":0,"slot":"2","type":"t_uint256"},{"astId":86005,"contract":"pkg/contracts/src/CVStrategy/CVStrategy.sol:CVStrategy","label":"minThresholdPoints","offset":0,"slot":"3","type":"t_uint256"}]},"t_struct(Metadata)806_storage":{"encoding":"inplace","label":"struct Metadata","numberOfBytes":"64","members":[{"astId":802,"contract":"pkg/contracts/src/CVStrategy/CVStrategy.sol:CVStrategy","label":"protocol","offset":0,"slot":"0","type":"t_uint256"},{"astId":805,"contract":"pkg/contracts/src/CVStrategy/CVStrategy.sol:CVStrategy","label":"pointer","offset":0,"slot":"1","type":"t_string_storage"}]},"t_struct(PointSystemConfig)85983_storage":{"encoding":"inplace","label":"struct PointSystemConfig","numberOfBytes":"32","members":[{"astId":85982,"contract":"pkg/contracts/src/CVStrategy/CVStrategy.sol:CVStrategy","label":"maxAmount","offset":0,"slot":"0","type":"t_uint256"}]},"t_struct(Proposal)85975_storage":{"encoding":"inplace","label":"struct Proposal","numberOfBytes":"576","members":[{"astId":85941,"contract":"pkg/contracts/src/CVStrategy/CVStrategy.sol:CVStrategy","label":"proposalId","offset":0,"slot":"0","type":"t_uint256"},{"astId":85943,"contract":"pkg/contracts/src/CVStrategy/CVStrategy.sol:CVStrategy","label":"requestedAmount","offset":0,"slot":"1","type":"t_uint256"},{"astId":85945,"contract":"pkg/contracts/src/CVStrategy/CVStrategy.sol:CVStrategy","label":"stakedAmount","offset":0,"slot":"2","type":"t_uint256"},{"astId":85947,"contract":"pkg/contracts/src/CVStrategy/CVStrategy.sol:CVStrategy","label":"convictionLast","offset":0,"slot":"3","type":"t_uint256"},{"astId":85949,"contract":"pkg/contracts/src/CVStrategy/CVStrategy.sol:CVStrategy","label":"beneficiary","offset":0,"slot":"4","type":"t_address"},{"astId":85951,"contract":"pkg/contracts/src/CVStrategy/CVStrategy.sol:CVStrategy","label":"submitter","offset":0,"slot":"5","type":"t_address"},{"astId":85953,"contract":"pkg/contracts/src/CVStrategy/CVStrategy.sol:CVStrategy","label":"requestedToken","offset":0,"slot":"6","type":"t_address"},{"astId":85955,"contract":"pkg/contracts/src/CVStrategy/CVStrategy.sol:CVStrategy","label":"blockLast","offset":0,"slot":"7","type":"t_uint256"},{"astId":85958,"contract":"pkg/contracts/src/CVStrategy/CVStrategy.sol:CVStrategy","label":"proposalStatus","offset":0,"slot":"8","type":"t_enum(ProposalStatus)85932"},{"astId":85962,"contract":"pkg/contracts/src/CVStrategy/CVStrategy.sol:CVStrategy","label":"voterStakedPoints","offset":0,"slot":"9","type":"t_mapping(t_address,t_uint256)"},{"astId":85965,"contract":"pkg/contracts/src/CVStrategy/CVStrategy.sol:CVStrategy","label":"metadata","offset":0,"slot":"10","type":"t_struct(Metadata)806_storage"},{"astId":85968,"contract":"pkg/contracts/src/CVStrategy/CVStrategy.sol:CVStrategy","label":"disputeInfo","offset":0,"slot":"12","type":"t_struct(ProposalDisputeInfo)85939_storage"},{"astId":85970,"contract":"pkg/contracts/src/CVStrategy/CVStrategy.sol:CVStrategy","label":"lastDisputeCompletion","offset":0,"slot":"15","type":"t_uint256"},{"astId":85972,"contract":"pkg/contracts/src/CVStrategy/CVStrategy.sol:CVStrategy","label":"arbitrableConfigVersion","offset":0,"slot":"16","type":"t_uint256"},{"astId":85974,"contract":"pkg/contracts/src/CVStrategy/CVStrategy.sol:CVStrategy","label":"creationTimestamp","offset":0,"slot":"17","type":"t_uint256"}]},"t_struct(ProposalDisputeInfo)85939_storage":{"encoding":"inplace","label":"struct ProposalDisputeInfo","numberOfBytes":"96","members":[{"astId":85934,"contract":"pkg/contracts/src/CVStrategy/CVStrategy.sol:CVStrategy","label":"disputeId","offset":0,"slot":"0","type":"t_uint256"},{"astId":85936,"contract":"pkg/contracts/src/CVStrategy/CVStrategy.sol:CVStrategy","label":"disputeTimestamp","offset":0,"slot":"1","type":"t_uint256"},{"astId":85938,"contract":"pkg/contracts/src/CVStrategy/CVStrategy.sol:CVStrategy","label":"challenger","offset":0,"slot":"2","type":"t_address"}]},"t_uint256":{"encoding":"inplace","label":"uint256","numberOfBytes":"32"},"t_uint64":{"encoding":"inplace","label":"uint64","numberOfBytes":"8"},"t_uint8":{"encoding":"inplace","label":"uint8","numberOfBytes":"1"}}},"id":125}