{"abi":[{"type":"fallback","stateMutability":"payable"},{"type":"receive","stateMutability":"payable"},{"type":"function","name":"DISPUTE_COOLDOWN_SEC","inputs":[],"outputs":[{"name":"","type":"uint256","internalType":"uint256"}],"stateMutability":"view"},{"type":"function","name":"NATIVE","inputs":[],"outputs":[{"name":"","type":"address","internalType":"address"}],"stateMutability":"view"},{"type":"function","name":"RULING_OPTIONS","inputs":[],"outputs":[{"name":"","type":"uint256","internalType":"uint256"}],"stateMutability":"view"},{"type":"function","name":"activatePoints","inputs":[],"outputs":[],"stateMutability":"nonpayable"},{"type":"function","name":"allocate","inputs":[{"name":"","type":"bytes","internalType":"bytes"},{"name":"","type":"address","internalType":"address"}],"outputs":[],"stateMutability":"payable"},{"type":"function","name":"arbitrableConfigs","inputs":[{"name":"","type":"uint256","internalType":"uint256"}],"outputs":[{"name":"arbitrator","type":"address","internalType":"contract IArbitrator"},{"name":"tribunalSafe","type":"address","internalType":"address"},{"name":"submitterCollateralAmount","type":"uint256","internalType":"uint256"},{"name":"challengerCollateralAmount","type":"uint256","internalType":"uint256"},{"name":"defaultRuling","type":"uint256","internalType":"uint256"},{"name":"defaultRulingTimeout","type":"uint256","internalType":"uint256"}],"stateMutability":"view"},{"type":"function","name":"calculateProposalConviction","inputs":[{"name":"_proposalId","type":"uint256","internalType":"uint256"}],"outputs":[{"name":"","type":"uint256","internalType":"uint256"}],"stateMutability":"view"},{"type":"function","name":"calculateThreshold","inputs":[{"name":"_requestedAmount","type":"uint256","internalType":"uint256"}],"outputs":[{"name":"","type":"uint256","internalType":"uint256"}],"stateMutability":"view"},{"type":"function","name":"cancelProposal","inputs":[{"name":"","type":"uint256","internalType":"uint256"}],"outputs":[],"stateMutability":"nonpayable"},{"type":"function","name":"cloneNonce","inputs":[],"outputs":[{"name":"","type":"uint256","internalType":"uint256"}],"stateMutability":"view"},{"type":"function","name":"collateralVault","inputs":[],"outputs":[{"name":"","type":"address","internalType":"contract ICollateralVault"}],"stateMutability":"view"},{"type":"function","name":"connectSuperfluidGDA","inputs":[{"name":"","type":"address","internalType":"address"}],"outputs":[],"stateMutability":"nonpayable"},{"type":"function","name":"currentArbitrableConfigVersion","inputs":[],"outputs":[{"name":"","type":"uint256","internalType":"uint256"}],"stateMutability":"view"},{"type":"function","name":"cvParams","inputs":[],"outputs":[{"name":"maxRatio","type":"uint256","internalType":"uint256"},{"name":"weight","type":"uint256","internalType":"uint256"},{"name":"decay","type":"uint256","internalType":"uint256"},{"name":"minThresholdPoints","type":"uint256","internalType":"uint256"}],"stateMutability":"view"},{"type":"function","name":"deactivatePoints","inputs":[],"outputs":[],"stateMutability":"nonpayable"},{"type":"function","name":"deactivatePoints","inputs":[{"name":"","type":"address","internalType":"address"}],"outputs":[],"stateMutability":"nonpayable"},{"type":"function","name":"decreasePower","inputs":[{"name":"","type":"address","internalType":"address"},{"name":"","type":"uint256","internalType":"uint256"}],"outputs":[{"name":"","type":"uint256","internalType":"uint256"}],"stateMutability":"nonpayable"},{"type":"function","name":"diamondCut","inputs":[{"name":"_diamondCut","type":"tuple[]","internalType":"struct IDiamond.FacetCut[]","components":[{"name":"facetAddress","type":"address","internalType":"address"},{"name":"action","type":"uint8","internalType":"enum IDiamond.FacetCutAction"},{"name":"functionSelectors","type":"bytes4[]","internalType":"bytes4[]"}]},{"name":"_init","type":"address","internalType":"address"},{"name":"_calldata","type":"bytes","internalType":"bytes"}],"outputs":[],"stateMutability":"nonpayable"},{"type":"function","name":"disconnectSuperfluidGDA","inputs":[{"name":"","type":"address","internalType":"address"}],"outputs":[],"stateMutability":"nonpayable"},{"type":"function","name":"disputeCount","inputs":[],"outputs":[{"name":"","type":"uint64","internalType":"uint64"}],"stateMutability":"view"},{"type":"function","name":"disputeIdToProposalId","inputs":[{"name":"","type":"uint256","internalType":"uint256"}],"outputs":[{"name":"","type":"uint256","internalType":"uint256"}],"stateMutability":"view"},{"type":"function","name":"disputeProposal","inputs":[{"name":"","type":"uint256","internalType":"uint256"},{"name":"","type":"string","internalType":"string"},{"name":"","type":"bytes","internalType":"bytes"}],"outputs":[{"name":"","type":"uint256","internalType":"uint256"}],"stateMutability":"payable"},{"type":"function","name":"distribute","inputs":[{"name":"","type":"address[]","internalType":"address[]"},{"name":"","type":"bytes","internalType":"bytes"},{"name":"","type":"address","internalType":"address"}],"outputs":[],"stateMutability":"nonpayable"},{"type":"function","name":"editProposal","inputs":[{"name":"","type":"uint256","internalType":"uint256"},{"name":"","type":"tuple","internalType":"struct Metadata","components":[{"name":"protocol","type":"uint256","internalType":"uint256"},{"name":"pointer","type":"string","internalType":"string"}]},{"name":"","type":"address","internalType":"address"},{"name":"","type":"uint256","internalType":"uint256"}],"outputs":[],"stateMutability":"nonpayable"},{"type":"function","name":"getAllo","inputs":[],"outputs":[{"name":"","type":"address","internalType":"contract IAllo"}],"stateMutability":"view"},{"type":"function","name":"getArbitrableConfig","inputs":[],"outputs":[{"name":"arbitrator","type":"address","internalType":"contract IArbitrator"},{"name":"tribunalSafe","type":"address","internalType":"address"},{"name":"submitterCollateralAmount","type":"uint256","internalType":"uint256"},{"name":"challengerCollateralAmount","type":"uint256","internalType":"uint256"},{"name":"defaultRuling","type":"uint256","internalType":"uint256"},{"name":"defaultRulingTimeout","type":"uint256","internalType":"uint256"}],"stateMutability":"view"},{"type":"function","name":"getMaxAmount","inputs":[],"outputs":[{"name":"","type":"uint256","internalType":"uint256"}],"stateMutability":"view"},{"type":"function","name":"getPointSystem","inputs":[],"outputs":[{"name":"","type":"uint8","internalType":"enum PointSystem"}],"stateMutability":"view"},{"type":"function","name":"getPoolAmount","inputs":[],"outputs":[{"name":"","type":"uint256","internalType":"uint256"}],"stateMutability":"view"},{"type":"function","name":"getPoolId","inputs":[],"outputs":[{"name":"","type":"uint256","internalType":"uint256"}],"stateMutability":"view"},{"type":"function","name":"getProposal","inputs":[{"name":"_proposalId","type":"uint256","internalType":"uint256"}],"outputs":[{"name":"submitter","type":"address","internalType":"address"},{"name":"beneficiary","type":"address","internalType":"address"},{"name":"requestedToken","type":"address","internalType":"address"},{"name":"requestedAmount","type":"uint256","internalType":"uint256"},{"name":"stakedAmount","type":"uint256","internalType":"uint256"},{"name":"proposalStatus","type":"uint8","internalType":"enum ProposalStatus"},{"name":"blockLast","type":"uint256","internalType":"uint256"},{"name":"convictionLast","type":"uint256","internalType":"uint256"},{"name":"threshold","type":"uint256","internalType":"uint256"},{"name":"voterStakedPoints","type":"uint256","internalType":"uint256"},{"name":"arbitrableConfigVersion","type":"uint256","internalType":"uint256"},{"name":"protocol","type":"uint256","internalType":"uint256"}],"stateMutability":"view"},{"type":"function","name":"getProposalStakedAmount","inputs":[{"name":"_proposalId","type":"uint256","internalType":"uint256"}],"outputs":[{"name":"","type":"uint256","internalType":"uint256"}],"stateMutability":"view"},{"type":"function","name":"getProposalVoterStake","inputs":[{"name":"_proposalId","type":"uint256","internalType":"uint256"},{"name":"_voter","type":"address","internalType":"address"}],"outputs":[{"name":"","type":"uint256","internalType":"uint256"}],"stateMutability":"view"},{"type":"function","name":"increasePower","inputs":[{"name":"","type":"address","internalType":"address"},{"name":"","type":"uint256","internalType":"uint256"}],"outputs":[{"name":"","type":"uint256","internalType":"uint256"}],"stateMutability":"nonpayable"},{"type":"function","name":"init","inputs":[{"name":"_allo","type":"address","internalType":"address"},{"name":"_collateralVaultTemplate","type":"address","internalType":"address"},{"name":"_owner","type":"address","internalType":"address"}],"outputs":[],"stateMutability":"nonpayable"},{"type":"function","name":"init","inputs":[{"name":"_allo","type":"address","internalType":"address"},{"name":"_name","type":"string","internalType":"string"},{"name":"_owner","type":"address","internalType":"address"}],"outputs":[],"stateMutability":"nonpayable"},{"type":"function","name":"initialize","inputs":[{"name":"initialOwner","type":"address","internalType":"address"}],"outputs":[],"stateMutability":"nonpayable"},{"type":"function","name":"initialize","inputs":[{"name":"_poolId","type":"uint256","internalType":"uint256"},{"name":"_data","type":"bytes","internalType":"bytes"}],"outputs":[],"stateMutability":"nonpayable"},{"type":"function","name":"isPoolActive","inputs":[],"outputs":[{"name":"","type":"bool","internalType":"bool"}],"stateMutability":"view"},{"type":"function","name":"owner","inputs":[],"outputs":[{"name":"","type":"address","internalType":"address"}],"stateMutability":"view"},{"type":"function","name":"pointConfig","inputs":[],"outputs":[{"name":"maxAmount","type":"uint256","internalType":"uint256"}],"stateMutability":"view"},{"type":"function","name":"pointSystem","inputs":[],"outputs":[{"name":"","type":"uint8","internalType":"enum PointSystem"}],"stateMutability":"view"},{"type":"function","name":"proposalCounter","inputs":[],"outputs":[{"name":"","type":"uint256","internalType":"uint256"}],"stateMutability":"view"},{"type":"function","name":"proposalType","inputs":[],"outputs":[{"name":"","type":"uint8","internalType":"enum ProposalType"}],"stateMutability":"view"},{"type":"function","name":"proposals","inputs":[{"name":"","type":"uint256","internalType":"uint256"}],"outputs":[{"name":"proposalId","type":"uint256","internalType":"uint256"},{"name":"requestedAmount","type":"uint256","internalType":"uint256"},{"name":"stakedAmount","type":"uint256","internalType":"uint256"},{"name":"convictionLast","type":"uint256","internalType":"uint256"},{"name":"beneficiary","type":"address","internalType":"address"},{"name":"submitter","type":"address","internalType":"address"},{"name":"requestedToken","type":"address","internalType":"address"},{"name":"blockLast","type":"uint256","internalType":"uint256"},{"name":"proposalStatus","type":"uint8","internalType":"enum ProposalStatus"},{"name":"metadata","type":"tuple","internalType":"struct Metadata","components":[{"name":"protocol","type":"uint256","internalType":"uint256"},{"name":"pointer","type":"string","internalType":"string"}]},{"name":"disputeInfo","type":"tuple","internalType":"struct ProposalDisputeInfo","components":[{"name":"disputeId","type":"uint256","internalType":"uint256"},{"name":"disputeTimestamp","type":"uint256","internalType":"uint256"},{"name":"challenger","type":"address","internalType":"address"}]},{"name":"lastDisputeCompletion","type":"uint256","internalType":"uint256"},{"name":"arbitrableConfigVersion","type":"uint256","internalType":"uint256"},{"name":"creationTimestamp","type":"uint256","internalType":"uint256"}],"stateMutability":"view"},{"type":"function","name":"proxiableUUID","inputs":[],"outputs":[{"name":"","type":"bytes32","internalType":"bytes32"}],"stateMutability":"view"},{"type":"function","name":"proxyOwner","inputs":[],"outputs":[{"name":"","type":"address","internalType":"address"}],"stateMutability":"view"},{"type":"function","name":"registerRecipient","inputs":[{"name":"","type":"bytes","internalType":"bytes"},{"name":"","type":"address","internalType":"address"}],"outputs":[{"name":"","type":"address","internalType":"address"}],"stateMutability":"payable"},{"type":"function","name":"registryCommunity","inputs":[],"outputs":[{"name":"","type":"address","internalType":"contract RegistryCommunity"}],"stateMutability":"view"},{"type":"function","name":"renounceOwnership","inputs":[],"outputs":[],"stateMutability":"nonpayable"},{"type":"function","name":"rule","inputs":[{"name":"","type":"uint256","internalType":"uint256"},{"name":"","type":"uint256","internalType":"uint256"}],"outputs":[],"stateMutability":"nonpayable"},{"type":"function","name":"setCollateralVaultTemplate","inputs":[{"name":"template","type":"address","internalType":"address"}],"outputs":[],"stateMutability":"nonpayable"},{"type":"function","name":"setPoolActive","inputs":[{"name":"_active","type":"bool","internalType":"bool"}],"outputs":[],"stateMutability":"nonpayable"},{"type":"function","name":"setPoolParams","inputs":[{"name":"","type":"tuple","internalType":"struct ArbitrableConfig","components":[{"name":"arbitrator","type":"address","internalType":"contract IArbitrator"},{"name":"tribunalSafe","type":"address","internalType":"address"},{"name":"submitterCollateralAmount","type":"uint256","internalType":"uint256"},{"name":"challengerCollateralAmount","type":"uint256","internalType":"uint256"},{"name":"defaultRuling","type":"uint256","internalType":"uint256"},{"name":"defaultRulingTimeout","type":"uint256","internalType":"uint256"}]},{"name":"","type":"tuple","internalType":"struct CVParams","components":[{"name":"maxRatio","type":"uint256","internalType":"uint256"},{"name":"weight","type":"uint256","internalType":"uint256"},{"name":"decay","type":"uint256","internalType":"uint256"},{"name":"minThresholdPoints","type":"uint256","internalType":"uint256"}]},{"name":"","type":"uint256","internalType":"uint256"},{"name":"","type":"address[]","internalType":"address[]"},{"name":"","type":"address[]","internalType":"address[]"},{"name":"","type":"address","internalType":"address"}],"outputs":[],"stateMutability":"nonpayable"},{"type":"function","name":"setSybilScorer","inputs":[{"name":"_sybilScorer","type":"address","internalType":"address"},{"name":"threshold","type":"uint256","internalType":"uint256"}],"outputs":[],"stateMutability":"nonpayable"},{"type":"function","name":"superfluidToken","inputs":[],"outputs":[{"name":"","type":"address","internalType":"contract ISuperToken"}],"stateMutability":"view"},{"type":"function","name":"supportsInterface","inputs":[{"name":"interfaceId","type":"bytes4","internalType":"bytes4"}],"outputs":[{"name":"","type":"bool","internalType":"bool"}],"stateMutability":"view"},{"type":"function","name":"sybilScorer","inputs":[],"outputs":[{"name":"","type":"address","internalType":"contract ISybilScorer"}],"stateMutability":"view"},{"type":"function","name":"totalPointsActivated","inputs":[],"outputs":[{"name":"","type":"uint256","internalType":"uint256"}],"stateMutability":"view"},{"type":"function","name":"totalStaked","inputs":[],"outputs":[{"name":"","type":"uint256","internalType":"uint256"}],"stateMutability":"view"},{"type":"function","name":"totalVoterStakePct","inputs":[{"name":"","type":"address","internalType":"address"}],"outputs":[{"name":"","type":"uint256","internalType":"uint256"}],"stateMutability":"view"},{"type":"function","name":"transferOwnership","inputs":[{"name":"newOwner","type":"address","internalType":"address"}],"outputs":[],"stateMutability":"nonpayable"},{"type":"function","name":"updateProposalConviction","inputs":[{"name":"proposalId","type":"uint256","internalType":"uint256"}],"outputs":[{"name":"","type":"uint256","internalType":"uint256"}],"stateMutability":"nonpayable"},{"type":"function","name":"upgradeTo","inputs":[{"name":"newImplementation","type":"address","internalType":"address"}],"outputs":[],"stateMutability":"nonpayable"},{"type":"function","name":"upgradeToAndCall","inputs":[{"name":"newImplementation","type":"address","internalType":"address"},{"name":"data","type":"bytes","internalType":"bytes"}],"outputs":[],"stateMutability":"payable"},{"type":"function","name":"voterStakedProposals","inputs":[{"name":"","type":"address","internalType":"address"},{"name":"","type":"uint256","internalType":"uint256"}],"outputs":[{"name":"","type":"uint256","internalType":"uint256"}],"stateMutability":"view"},{"type":"event","name":"AdminChanged","inputs":[{"name":"previousAdmin","type":"address","indexed":false,"internalType":"address"},{"name":"newAdmin","type":"address","indexed":false,"internalType":"address"}],"anonymous":false},{"type":"event","name":"Allocated","inputs":[{"name":"recipientId","type":"address","indexed":true,"internalType":"address"},{"name":"amount","type":"uint256","indexed":false,"internalType":"uint256"},{"name":"token","type":"address","indexed":false,"internalType":"address"},{"name":"sender","type":"address","indexed":false,"internalType":"address"}],"anonymous":false},{"type":"event","name":"AllowlistMembersAdded","inputs":[{"name":"poolId","type":"uint256","indexed":false,"internalType":"uint256"},{"name":"members","type":"address[]","indexed":false,"internalType":"address[]"}],"anonymous":false},{"type":"event","name":"AllowlistMembersRemoved","inputs":[{"name":"poolId","type":"uint256","indexed":false,"internalType":"uint256"},{"name":"members","type":"address[]","indexed":false,"internalType":"address[]"}],"anonymous":false},{"type":"event","name":"ArbitrableConfigUpdated","inputs":[{"name":"currentArbitrableConfigVersion","type":"uint256","indexed":false,"internalType":"uint256"},{"name":"arbitrator","type":"address","indexed":false,"internalType":"contract IArbitrator"},{"name":"tribunalSafe","type":"address","indexed":false,"internalType":"address"},{"name":"submitterCollateralAmount","type":"uint256","indexed":false,"internalType":"uint256"},{"name":"challengerCollateralAmount","type":"uint256","indexed":false,"internalType":"uint256"},{"name":"defaultRuling","type":"uint256","indexed":false,"internalType":"uint256"},{"name":"defaultRulingTimeout","type":"uint256","indexed":false,"internalType":"uint256"}],"anonymous":false},{"type":"event","name":"BeaconUpgraded","inputs":[{"name":"beacon","type":"address","indexed":true,"internalType":"address"}],"anonymous":false},{"type":"event","name":"CVParamsUpdated","inputs":[{"name":"cvParams","type":"tuple","indexed":false,"internalType":"struct CVParams","components":[{"name":"maxRatio","type":"uint256","internalType":"uint256"},{"name":"weight","type":"uint256","internalType":"uint256"},{"name":"decay","type":"uint256","internalType":"uint256"},{"name":"minThresholdPoints","type":"uint256","internalType":"uint256"}]}],"anonymous":false},{"type":"event","name":"DisputeRequest","inputs":[{"name":"_arbitrator","type":"address","indexed":true,"internalType":"contract IArbitrator"},{"name":"_arbitrableDisputeID","type":"uint256","indexed":true,"internalType":"uint256"},{"name":"_externalDisputeID","type":"uint256","indexed":false,"internalType":"uint256"},{"name":"_templateId","type":"uint256","indexed":false,"internalType":"uint256"},{"name":"_templateUri","type":"string","indexed":false,"internalType":"string"}],"anonymous":false},{"type":"event","name":"Distributed","inputs":[{"name":"proposalId","type":"uint256","indexed":false,"internalType":"uint256"},{"name":"beneficiary","type":"address","indexed":false,"internalType":"address"},{"name":"amount","type":"uint256","indexed":false,"internalType":"uint256"}],"anonymous":false},{"type":"event","name":"Distributed","inputs":[{"name":"recipientId","type":"address","indexed":true,"internalType":"address"},{"name":"recipientAddress","type":"address","indexed":false,"internalType":"address"},{"name":"amount","type":"uint256","indexed":false,"internalType":"uint256"},{"name":"sender","type":"address","indexed":false,"internalType":"address"}],"anonymous":false},{"type":"event","name":"Initialized","inputs":[{"name":"poolId","type":"uint256","indexed":false,"internalType":"uint256"},{"name":"data","type":"bytes","indexed":false,"internalType":"bytes"}],"anonymous":false},{"type":"event","name":"Initialized","inputs":[{"name":"version","type":"uint8","indexed":false,"internalType":"uint8"}],"anonymous":false},{"type":"event","name":"InitializedCV","inputs":[{"name":"poolId","type":"uint256","indexed":false,"internalType":"uint256"},{"name":"data","type":"tuple","indexed":false,"internalType":"struct CVStrategyInitializeParamsV0_0","components":[{"name":"cvParams","type":"tuple","internalType":"struct CVParams","components":[{"name":"maxRatio","type":"uint256","internalType":"uint256"},{"name":"weight","type":"uint256","internalType":"uint256"},{"name":"decay","type":"uint256","internalType":"uint256"},{"name":"minThresholdPoints","type":"uint256","internalType":"uint256"}]},{"name":"proposalType","type":"uint8","internalType":"enum ProposalType"},{"name":"pointSystem","type":"uint8","internalType":"enum PointSystem"},{"name":"pointConfig","type":"tuple","internalType":"struct PointSystemConfig","components":[{"name":"maxAmount","type":"uint256","internalType":"uint256"}]},{"name":"arbitrableConfig","type":"tuple","internalType":"struct ArbitrableConfig","components":[{"name":"arbitrator","type":"address","internalType":"contract IArbitrator"},{"name":"tribunalSafe","type":"address","internalType":"address"},{"name":"submitterCollateralAmount","type":"uint256","internalType":"uint256"},{"name":"challengerCollateralAmount","type":"uint256","internalType":"uint256"},{"name":"defaultRuling","type":"uint256","internalType":"uint256"},{"name":"defaultRulingTimeout","type":"uint256","internalType":"uint256"}]},{"name":"registryCommunity","type":"address","internalType":"address"},{"name":"sybilScorer","type":"address","internalType":"address"}]}],"anonymous":false},{"type":"event","name":"InitializedCV2","inputs":[{"name":"poolId","type":"uint256","indexed":false,"internalType":"uint256"},{"name":"data","type":"tuple","indexed":false,"internalType":"struct CVStrategyInitializeParamsV0_1","components":[{"name":"cvParams","type":"tuple","internalType":"struct CVParams","components":[{"name":"maxRatio","type":"uint256","internalType":"uint256"},{"name":"weight","type":"uint256","internalType":"uint256"},{"name":"decay","type":"uint256","internalType":"uint256"},{"name":"minThresholdPoints","type":"uint256","internalType":"uint256"}]},{"name":"proposalType","type":"uint8","internalType":"enum ProposalType"},{"name":"pointSystem","type":"uint8","internalType":"enum PointSystem"},{"name":"pointConfig","type":"tuple","internalType":"struct PointSystemConfig","components":[{"name":"maxAmount","type":"uint256","internalType":"uint256"}]},{"name":"arbitrableConfig","type":"tuple","internalType":"struct ArbitrableConfig","components":[{"name":"arbitrator","type":"address","internalType":"contract IArbitrator"},{"name":"tribunalSafe","type":"address","internalType":"address"},{"name":"submitterCollateralAmount","type":"uint256","internalType":"uint256"},{"name":"challengerCollateralAmount","type":"uint256","internalType":"uint256"},{"name":"defaultRuling","type":"uint256","internalType":"uint256"},{"name":"defaultRulingTimeout","type":"uint256","internalType":"uint256"}]},{"name":"registryCommunity","type":"address","internalType":"address"},{"name":"sybilScorer","type":"address","internalType":"address"},{"name":"sybilScorerThreshold","type":"uint256","internalType":"uint256"},{"name":"initialAllowlist","type":"address[]","internalType":"address[]"}]}],"anonymous":false},{"type":"event","name":"InitializedCV3","inputs":[{"name":"poolId","type":"uint256","indexed":false,"internalType":"uint256"},{"name":"data","type":"tuple","indexed":false,"internalType":"struct CVStrategyInitializeParamsV0_2","components":[{"name":"cvParams","type":"tuple","internalType":"struct CVParams","components":[{"name":"maxRatio","type":"uint256","internalType":"uint256"},{"name":"weight","type":"uint256","internalType":"uint256"},{"name":"decay","type":"uint256","internalType":"uint256"},{"name":"minThresholdPoints","type":"uint256","internalType":"uint256"}]},{"name":"proposalType","type":"uint8","internalType":"enum ProposalType"},{"name":"pointSystem","type":"uint8","internalType":"enum PointSystem"},{"name":"pointConfig","type":"tuple","internalType":"struct PointSystemConfig","components":[{"name":"maxAmount","type":"uint256","internalType":"uint256"}]},{"name":"arbitrableConfig","type":"tuple","internalType":"struct ArbitrableConfig","components":[{"name":"arbitrator","type":"address","internalType":"contract IArbitrator"},{"name":"tribunalSafe","type":"address","internalType":"address"},{"name":"submitterCollateralAmount","type":"uint256","internalType":"uint256"},{"name":"challengerCollateralAmount","type":"uint256","internalType":"uint256"},{"name":"defaultRuling","type":"uint256","internalType":"uint256"},{"name":"defaultRulingTimeout","type":"uint256","internalType":"uint256"}]},{"name":"registryCommunity","type":"address","internalType":"address"},{"name":"sybilScorer","type":"address","internalType":"address"},{"name":"sybilScorerThreshold","type":"uint256","internalType":"uint256"},{"name":"initialAllowlist","type":"address[]","internalType":"address[]"},{"name":"superfluidToken","type":"address","internalType":"address"}]}],"anonymous":false},{"type":"event","name":"OwnershipTransferred","inputs":[{"name":"previousOwner","type":"address","indexed":true,"internalType":"address"},{"name":"newOwner","type":"address","indexed":true,"internalType":"address"}],"anonymous":false},{"type":"event","name":"PointsDeactivated","inputs":[{"name":"member","type":"address","indexed":false,"internalType":"address"}],"anonymous":false},{"type":"event","name":"PoolActive","inputs":[{"name":"active","type":"bool","indexed":false,"internalType":"bool"}],"anonymous":false},{"type":"event","name":"PowerDecreased","inputs":[{"name":"member","type":"address","indexed":false,"internalType":"address"},{"name":"tokensUnStaked","type":"uint256","indexed":false,"internalType":"uint256"},{"name":"pointsToDecrease","type":"uint256","indexed":false,"internalType":"uint256"}],"anonymous":false},{"type":"event","name":"PowerIncreased","inputs":[{"name":"member","type":"address","indexed":false,"internalType":"address"},{"name":"tokensStaked","type":"uint256","indexed":false,"internalType":"uint256"},{"name":"pointsToIncrease","type":"uint256","indexed":false,"internalType":"uint256"}],"anonymous":false},{"type":"event","name":"ProposalCancelled","inputs":[{"name":"proposalId","type":"uint256","indexed":false,"internalType":"uint256"}],"anonymous":false},{"type":"event","name":"ProposalCreated","inputs":[{"name":"poolId","type":"uint256","indexed":false,"internalType":"uint256"},{"name":"proposalId","type":"uint256","indexed":false,"internalType":"uint256"}],"anonymous":false},{"type":"event","name":"ProposalDisputed","inputs":[{"name":"arbitrator","type":"address","indexed":false,"internalType":"contract IArbitrator"},{"name":"proposalId","type":"uint256","indexed":false,"internalType":"uint256"},{"name":"disputeId","type":"uint256","indexed":false,"internalType":"uint256"},{"name":"challenger","type":"address","indexed":false,"internalType":"address"},{"name":"context","type":"string","indexed":false,"internalType":"string"},{"name":"timestamp","type":"uint256","indexed":false,"internalType":"uint256"}],"anonymous":false},{"type":"event","name":"Registered","inputs":[{"name":"recipientId","type":"address","indexed":true,"internalType":"address"},{"name":"data","type":"bytes","indexed":false,"internalType":"bytes"},{"name":"sender","type":"address","indexed":false,"internalType":"address"}],"anonymous":false},{"type":"event","name":"Ruling","inputs":[{"name":"_arbitrator","type":"address","indexed":true,"internalType":"contract IArbitrator"},{"name":"_disputeID","type":"uint256","indexed":true,"internalType":"uint256"},{"name":"_ruling","type":"uint256","indexed":false,"internalType":"uint256"}],"anonymous":false},{"type":"event","name":"SuperfluidGDAConnected","inputs":[{"name":"gda","type":"address","indexed":true,"internalType":"address"},{"name":"by","type":"address","indexed":true,"internalType":"address"}],"anonymous":false},{"type":"event","name":"SuperfluidGDADisconnected","inputs":[{"name":"gda","type":"address","indexed":true,"internalType":"address"},{"name":"by","type":"address","indexed":true,"internalType":"address"}],"anonymous":false},{"type":"event","name":"SuperfluidTokenUpdated","inputs":[{"name":"superfluidToken","type":"address","indexed":false,"internalType":"address"}],"anonymous":false},{"type":"event","name":"SupportAdded","inputs":[{"name":"from","type":"address","indexed":false,"internalType":"address"},{"name":"proposalId","type":"uint256","indexed":false,"internalType":"uint256"},{"name":"amount","type":"uint256","indexed":false,"internalType":"uint256"},{"name":"totalStakedAmount","type":"uint256","indexed":false,"internalType":"uint256"},{"name":"convictionLast","type":"uint256","indexed":false,"internalType":"uint256"}],"anonymous":false},{"type":"event","name":"SybilScorerUpdated","inputs":[{"name":"sybilScorer","type":"address","indexed":false,"internalType":"address"}],"anonymous":false},{"type":"event","name":"Upgraded","inputs":[{"name":"implementation","type":"address","indexed":true,"internalType":"address"}],"anonymous":false},{"type":"error","name":"ALLOCATION_ACTIVE","inputs":[]},{"type":"error","name":"ALLOCATION_NOT_ACTIVE","inputs":[]},{"type":"error","name":"ALLOCATION_NOT_ENDED","inputs":[]},{"type":"error","name":"ALREADY_INITIALIZED","inputs":[]},{"type":"error","name":"AMOUNT_MISMATCH","inputs":[]},{"type":"error","name":"ANCHOR_ERROR","inputs":[]},{"type":"error","name":"ARRAY_MISMATCH","inputs":[]},{"type":"error","name":"AShouldBeUnderOrEqTwo_128","inputs":[]},{"type":"error","name":"AShouldBeUnderTwo_128","inputs":[]},{"type":"error","name":"AddressCannotBeZero","inputs":[{"name":"input","type":"address","internalType":"address"}]},{"type":"error","name":"AmountOverMaxRatio","inputs":[{"name":"requestedAmount","type":"uint256","internalType":"uint256"},{"name":"maxAllowed","type":"uint256","internalType":"uint256"},{"name":"poolAmount","type":"uint256","internalType":"uint256"}]},{"type":"error","name":"ArbitratorCannotBeZero","inputs":[]},{"type":"error","name":"BShouldBeLessTwo_128","inputs":[]},{"type":"error","name":"CallerNotOwner","inputs":[{"name":"_caller","type":"address","internalType":"address"},{"name":"_owner","type":"address","internalType":"address"}]},{"type":"error","name":"CannotAddFunctionToDiamondThatAlreadyExists","inputs":[{"name":"_selector","type":"bytes4","internalType":"bytes4"},{"name":"_selectorSignature","type":"string","internalType":"string"}]},{"type":"error","name":"CannotAddSelectorsToZeroAddress","inputs":[{"name":"_selectors","type":"bytes4[]","internalType":"bytes4[]"}]},{"type":"error","name":"CannotRemoveFunctionThatDoesNotExist","inputs":[{"name":"_selector","type":"bytes4","internalType":"bytes4"}]},{"type":"error","name":"CannotRemoveImmutableFunction","inputs":[{"name":"_selector","type":"bytes4","internalType":"bytes4"}]},{"type":"error","name":"CannotReplaceFunctionThatDoesNotExists","inputs":[{"name":"_selector","type":"bytes4","internalType":"bytes4"}]},{"type":"error","name":"CannotReplaceFunctionWithTheSameFunctionFromTheSameFacet","inputs":[{"name":"_selector","type":"bytes4","internalType":"bytes4"}]},{"type":"error","name":"CannotReplaceFunctionsFromFacetWithZeroAddress","inputs":[{"name":"_selectors","type":"bytes4[]","internalType":"bytes4[]"}]},{"type":"error","name":"CannotReplaceImmutableFunction","inputs":[{"name":"_selector","type":"bytes4","internalType":"bytes4"}]},{"type":"error","name":"ConvictionUnderMinimumThreshold","inputs":[]},{"type":"error","name":"DefaultRulingNotSet","inputs":[]},{"type":"error","name":"DisputeCooldownNotPassed","inputs":[{"name":"_proposalId","type":"uint256","internalType":"uint256"},{"name":"_remainingSec","type":"uint256","internalType":"uint256"}]},{"type":"error","name":"INVALID","inputs":[]},{"type":"error","name":"INVALID_ADDRESS","inputs":[]},{"type":"error","name":"INVALID_FEE","inputs":[]},{"type":"error","name":"INVALID_METADATA","inputs":[]},{"type":"error","name":"INVALID_REGISTRATION","inputs":[]},{"type":"error","name":"IS_APPROVED_STRATEGY","inputs":[]},{"type":"error","name":"IncorrectFacetCutAction","inputs":[{"name":"_action","type":"uint8","internalType":"uint8"}]},{"type":"error","name":"InitializationFunctionReverted","inputs":[{"name":"_initializationContractAddress","type":"address","internalType":"address"},{"name":"_calldata","type":"bytes","internalType":"bytes"}]},{"type":"error","name":"InsufficientCollateral","inputs":[{"name":"sentAmount","type":"uint256","internalType":"uint256"},{"name":"requiredAmount","type":"uint256","internalType":"uint256"}]},{"type":"error","name":"MISMATCH","inputs":[]},{"type":"error","name":"NONCE_NOT_AVAILABLE","inputs":[]},{"type":"error","name":"NON_ZERO_VALUE","inputs":[]},{"type":"error","name":"NOT_APPROVED_STRATEGY","inputs":[]},{"type":"error","name":"NOT_ENOUGH_FUNDS","inputs":[]},{"type":"error","name":"NOT_IMPLEMENTED","inputs":[]},{"type":"error","name":"NOT_INITIALIZED","inputs":[]},{"type":"error","name":"NOT_PENDING_OWNER","inputs":[]},{"type":"error","name":"NoBytecodeAtAddress","inputs":[{"name":"_contractAddress","type":"address","internalType":"address"},{"name":"_message","type":"string","internalType":"string"}]},{"type":"error","name":"NoSelectorsProvidedForFacetForCut","inputs":[{"name":"_facetAddress","type":"address","internalType":"address"}]},{"type":"error","name":"NotEnoughPointsToSupport","inputs":[{"name":"pointsSupport","type":"uint256","internalType":"uint256"},{"name":"pointsBalance","type":"uint256","internalType":"uint256"}]},{"type":"error","name":"NotImplemented","inputs":[{"name":"selector","type":"bytes4","internalType":"bytes4"}]},{"type":"error","name":"OnlyArbitrator","inputs":[{"name":"sender","type":"address","internalType":"address"},{"name":"arbitrator","type":"address","internalType":"address"}]},{"type":"error","name":"OnlyCommunityAllowed","inputs":[{"name":"sender","type":"address","internalType":"address"},{"name":"registryCommunity","type":"address","internalType":"address"}]},{"type":"error","name":"OnlyCouncilSafe","inputs":[{"name":"sender","type":"address","internalType":"address"},{"name":"councilSafe","type":"address","internalType":"address"},{"name":"owner","type":"address","internalType":"address"}]},{"type":"error","name":"OnlyCouncilSafeOrMember","inputs":[{"name":"sender","type":"address","internalType":"address"},{"name":"councilSafe","type":"address","internalType":"address"}]},{"type":"error","name":"POOL_ACTIVE","inputs":[]},{"type":"error","name":"POOL_INACTIVE","inputs":[]},{"type":"error","name":"PoolAmountNotEnough","inputs":[{"name":"_proposalId","type":"uint256","internalType":"uint256"},{"name":"_requestedAmount","type":"uint256","internalType":"uint256"},{"name":"_poolAmount","type":"uint256","internalType":"uint256"}]},{"type":"error","name":"PoolIsEmpty","inputs":[{"name":"poolAmount","type":"uint256","internalType":"uint256"}]},{"type":"error","name":"ProposalDataIsEmpty","inputs":[]},{"type":"error","name":"ProposalIdCannotBeZero","inputs":[]},{"type":"error","name":"ProposalInvalidForAllocation","inputs":[{"name":"_proposalId","type":"uint256","internalType":"uint256"},{"name":"_proposalStatus","type":"uint8","internalType":"enum ProposalStatus"}]},{"type":"error","name":"ProposalNotActive","inputs":[{"name":"_proposalId","type":"uint256","internalType":"uint256"}]},{"type":"error","name":"ProposalNotDisputed","inputs":[{"name":"_proposalId","type":"uint256","internalType":"uint256"}]},{"type":"error","name":"ProposalNotInList","inputs":[{"name":"_proposalId","type":"uint256","internalType":"uint256"}]},{"type":"error","name":"ProposalSupportDuplicated","inputs":[{"name":"_proposalId","type":"uint256","internalType":"uint256"},{"name":"index","type":"uint256","internalType":"uint256"}]},{"type":"error","name":"RECIPIENT_ALREADY_ACCEPTED","inputs":[]},{"type":"error","name":"RECIPIENT_ERROR","inputs":[{"name":"recipientId","type":"address","internalType":"address"}]},{"type":"error","name":"RECIPIENT_NOT_ACCEPTED","inputs":[]},{"type":"error","name":"REGISTRATION_ACTIVE","inputs":[]},{"type":"error","name":"REGISTRATION_NOT_ACTIVE","inputs":[]},{"type":"error","name":"RegistryCannotBeZero","inputs":[{"name":"registry","type":"address","internalType":"address"}]},{"type":"error","name":"RegistryCommunityCannotBeZero","inputs":[{"name":"registry","type":"address","internalType":"address"}]},{"type":"error","name":"RemoveFacetAddressMustBeZeroAddress","inputs":[{"name":"_facetAddress","type":"address","internalType":"address"}]},{"type":"error","name":"StrategyFunctionDoesNotExist","inputs":[{"name":"selector","type":"bytes4","internalType":"bytes4"}]},{"type":"error","name":"SupportUnderflow","inputs":[{"name":"_support","type":"uint256","internalType":"uint256"},{"name":"_delta","type":"int256","internalType":"int256"},{"name":"_result","type":"int256","internalType":"int256"}]},{"type":"error","name":"TokenCannotBeZero","inputs":[{"name":"token","type":"address","internalType":"address"}]},{"type":"error","name":"TokenNotAllowed","inputs":[{"name":"token","type":"address","internalType":"address"}]},{"type":"error","name":"UNAUTHORIZED","inputs":[]},{"type":"error","name":"UserCannotBeZero","inputs":[{"name":"user","type":"address","internalType":"address"}]},{"type":"error","name":"UserCannotExecuteAction","inputs":[{"name":"sender","type":"address","internalType":"address"}]},{"type":"error","name":"UserIsInactive","inputs":[{"name":"user","type":"address","internalType":"address"}]},{"type":"error","name":"UserNotInRegistry","inputs":[{"name":"user","type":"address","internalType":"address"},{"name":"registry","type":"address","internalType":"address"}]},{"type":"error","name":"ZERO_ADDRESS","inputs":[]}],"bytecode":{"object":"0x60a06040523060805234801561001457600080fd5b50608051615ba26200004d60003960008181610faa01528181610fea015281816114c80152818161150801526115800152615ba26000f3fe6080604052600436106102ed5760003560e01c8063013cf08b1461038457806301ffc9a7146103c7578063025313a2146103f7578063059351cd1461041957806305caa7f3146104a65780630a6f0ee9146104c65780630ba95909146104e65780630bece79c146105055780630c0512e914610525578063125fd1d91461053b578063141e3b381461055157806315cc481e14610571578063184b95591461058f5780631aa91a9e146105af5780631ddf1e23146105cf5780631f931c1c146105e45780632506b87014610604578063255ffb38146106375780632bbe0cae146106645780632dbd6fdd146106775780632ed04b2b146106a3578063311a6c56146106be57806333960459146106de578063351d9f96146106f45780633659cfe61461071b5780633864d3661461073b57806338fff2d01461075b57806341bb7605146107705780634ab4ba42146107cd5780634f1ef286146107e257806352d1902d146107f557806359a5db8b1461080a5780635db64b991461082a5780636003e4141461085757806360b0645a1461087757806360d5dedc14610897578063626c47e8146108b75780636453d9c4146108cc578063715018a6146108ec578063782aadff146106a3578063814516ad146105cf578063817b1cd214610901578063868c57b8146109175780638da5cb5b14610937578063924e6704146108cc578063a0cf0aea1461094c578063a28889e114610974578063a47ff7e5146109ac578063aba9ffee146109c3578063b0d3713a146109d9578063b41596ec146109f9578063b5f620ce14610a0c578063b6c61f3114610a2c578063c329217114610a4c578063c4d66de814610a69578063c69271ec146108cc578063c7f758a814610a89578063d5b7cc5414610ac1578063dc96ff2d14610ae1578063df868ed314610b11578063e0a8f6f514610b26578063e0dd2c3814610b41578063edd146cc14610b61578063ef2920fc14610b81578063f2fde38b14610b8f578063f5be3f7c14610baf576102f4565b366102f457005b600080356001600160e01b031916815260008051602061573d833981519152602081905260409091205481906001600160a01b03168061035e576000356001600160e01b03191660405163335ed20560e11b815260040161035591906140bb565b60405180910390fd5b3660008037600080366000845af43d6000803e80801561037d573d6000f35b3d6000fd5b005b34801561039057600080fd5b506103a461039f3660046140d0565b610bc5565b6040516103be9e9d9c9b9a9998979695949392919061418f565b60405180910390f35b3480156103d357600080fd5b506103e76103e2366004614260565b610d18565b60405190151581526020016103be565b34801561040357600080fd5b5061040c610d4f565b6040516103be919061427b565b34801561042557600080fd5b5061046e606f546000908152607f60205260409020805460018201546002830154600384015460048501546005909501546001600160a01b039485169694909316949193909290565b604080516001600160a01b039788168152969095166020870152938501929092526060840152608083015260a082015260c0016103be565b3480156104b257600080fd5b5060805461040c906001600160a01b031681565b3480156104d257600080fd5b506103826104e13660046144b5565b610d68565b3480156104f257600080fd5b506077545b6040519081526020016103be565b34801561051157600080fd5b5060795461040c906001600160a01b031681565b34801561053157600080fd5b506104f7606e5481565b34801561054757600080fd5b506104f7606f5481565b34801561055d57600080fd5b5061038261056c36600461452c565b610d75565b34801561057d57600080fd5b506065546001600160a01b031661040c565b34801561059b57600080fd5b506103826105aa3660046145c6565b610d83565b3480156105bb57600080fd5b506104f76105ca3660046140d0565b610edd565b3480156105db57600080fd5b50610382610f27565b3480156105f057600080fd5b506103826105ff366004614647565b610f31565b34801561061057600080fd5b506072546073546074546075546106279392919084565b6040516103be94939291906146f8565b34801561064357600080fd5b506104f76106523660046140d0565b607e6020526000908152604090205481565b61040c610672366004614713565b610f8a565b34801561068357600080fd5b5060765461069690610100900460ff1681565b6040516103be919061477d565b3480156106af57600080fd5b506104f7610672366004614790565b3480156106ca57600080fd5b506103826106d93660046147bc565b610f94565b3480156106ea57600080fd5b506104f7606c5481565b34801561070057600080fd5b5060765461070e9060ff1681565b6040516103be91906147ee565b34801561072757600080fd5b506103826107363660046147fc565b610fa0565b34801561074757600080fd5b50610382610756366004614790565b611068565b34801561076757600080fd5b506068546104f7565b34801561077c57600080fd5b5061046e61078b3660046140d0565b607f602052600090815260409020805460018201546002830154600384015460048501546005909501546001600160a01b039485169593909416939192909186565b3480156107d957600080fd5b506104f7611230565b6103826107f0366004614819565b6114be565b34801561080157600080fd5b506104f7611573565b34801561081657600080fd5b506104f76108253660046140d0565b611621565b34801561083657600080fd5b506104f76108453660046147fc565b607c6020526000908152604090205481565b34801561086357600080fd5b5060785461040c906001600160a01b031681565b34801561088357600080fd5b506104f76108923660046140d0565b611737565b3480156108a357600080fd5b506103826108b2366004614868565b6117e9565b3480156108c357600080fd5b506104f7600381565b3480156108d857600080fd5b506103826108e73660046147fc565b611865565b3480156108f857600080fd5b5061038261186d565b34801561090d57600080fd5b506104f760705481565b34801561092357600080fd5b506104f7610932366004614790565b61187f565b34801561094357600080fd5b5061040c6118b0565b34801561095857600080fd5b5061040c73eeeeeeeeeeeeeeeeeeeeeeeeeeeeeeeeeeeeeeee81565b34801561098057600080fd5b50606d54610994906001600160401b031681565b6040516001600160401b0390911681526020016103be565b3480156109b857600080fd5b506077546104f79081565b3480156109cf57600080fd5b506104f760715481565b3480156109e557600080fd5b506103826109f43660046147fc565b611945565b6104f7610a073660046148af565b61196f565b348015610a1857600080fd5b50610382610a2736600461490a565b611982565b348015610a3857600080fd5b50607a5461040c906001600160a01b031681565b348015610a5857600080fd5b50607654610100900460ff16610696565b348015610a7557600080fd5b50610382610a843660046147fc565b61198b565b348015610a9557600080fd5b50610aa9610aa43660046140d0565b6119bb565b6040516103be9c9b9a9998979695949392919061492c565b348015610acd57600080fd5b50610382610adc3660046149e5565b611b64565b348015610aed57600080fd5b506104f7610afc3660046140d0565b6000908152607b602052604090206002015490565b348015610b1d57600080fd5b506103e7611b74565b348015610b3257600080fd5b506103826108e73660046140d0565b348015610b4d57600080fd5b506104f7610b5c366004614ae3565b611b82565b348015610b6d57600080fd5b50610382610b7c366004614b08565b611bad565b6103826106d9366004614713565b348015610b9b57600080fd5b50610382610baa3660046147fc565b611fa4565b348015610bbb57600080fd5b506104f7611c2081565b607b602090815260009182526040918290208054600182015460028301546003840154600485015460058601546006870154600788015460088901548b51808d01909c52600a8a0180548d52600b8b0180549a9d999c989b979a6001600160a01b039788169a968816999790951697939660ff9093169593949192840191610c4c90614b38565b80601f0160208091040260200160405190810160405280929190818152602001828054610c7890614b38565b8015610cc55780601f10610c9a57610100808354040283529160200191610cc5565b820191906000526020600020905b815481529060010190602001808311610ca857829003601f168201915b50505091909252505060408051606081018252600c8501548152600d8501546020820152600e8501546001600160a01b031691810191909152600f8401546010850154601190950154939491939092508e565b60006001600160e01b0319821663188d362b60e11b1480610d4957506301ffc9a760e01b6001600160e01b03198316145b92915050565b6000610d636033546001600160a01b031690565b905090565b610d706102f4565b505050565b610d7d6102f4565b50505050565b600054610100900460ff1615808015610da35750600054600160ff909116105b80610dc45750610db230612011565b158015610dc4575060005460ff166001145b610e275760405162461bcd60e51b815260206004820152602e60248201527f496e697469616c697a61626c653a20636f6e747261637420697320616c72656160448201526d191e481a5b9a5d1a585b1a5e995960921b6064820152608401610355565b6000805460ff191660011790558015610e4a576000805461ff0019166101001790555b610e77846040518060400160405280600a8152602001694356537472617465677960b01b815250846117e9565b606a80546001600160a01b0319166001600160a01b0385161790558015610d7d576000805461ff0019169055604051600181527f7f26b83ff96e1f2b6a682f133852f6798a09c465da95921460cefb38474024989060200160405180910390a150505050565b6000818152607b6020526040812080548314610f0f5760405163c1d17bef60e01b815260048101849052602401610355565b610f1d818260020154612020565b6003015492915050565b610f2f6102f4565b565b610f3961205b565b610f83610f468587614b7f565b8484848080601f0160208091040260200160405190810160405280939291908181526020018383808284376000920191909152506120ba92505050565b5050505050565b6000610d496102f4565b610f9c6102f4565b5050565b6001600160a01b037f0000000000000000000000000000000000000000000000000000000000000000163003610fe85760405162461bcd60e51b815260040161035590614caa565b7f00000000000000000000000000000000000000000000000000000000000000006001600160a01b031661101a61227f565b6001600160a01b0316146110405760405162461bcd60e51b815260040161035590614ce4565b6110498161229b565b60408051600080825260208201909252611065918391906122e7565b50565b607860009054906101000a90046001600160a01b03166001600160a01b0316636c53db9a6040518163ffffffff1660e01b8152600401602060405180830381865afa1580156110bb573d6000803e3d6000fd5b505050506040513d601f19601f820116820180604052508101906110df9190614d1e565b6001600160a01b0316336001600160a01b03161415801561111957506111036118b0565b6001600160a01b0316336001600160a01b031614155b156111c85760785460408051633629edcd60e11b8152905133926001600160a01b031691636c53db9a9160048083019260209291908290030181865afa158015611167573d6000803e3d6000fd5b505050506040513d601f19601f8201168201806040525081019061118b9190614d1e565b6111936118b0565b60405163e1b9c46960e01b81526001600160a01b03938416600482015291831660248301529091166044820152606401610355565b6111d182612452565b607a80546001600160a01b0319166001600160a01b0384161790556111f58161247b565b7f2667a0cd99dbc787d1d2596efe938cf43dfe83e8b8ddeb70e28007c09ff3348582604051611224919061427b565b60405180910390a15050565b60655460685460405163068bcd8d60e01b815260009283926001600160a01b039091169163068bcd8d9161126a9160040190815260200190565b600060405180830381865afa158015611287573d6000803e3d6000fd5b505050506040513d6000823e601f3d908101601f191682016040526112af9190810190614d46565b60400151905073eeeeeeeeeeeeeeeeeeeeeeeeeeeeeeeeeeeeeeed196001600160a01b038216016112e1574791505090565b6040516370a0823160e01b81526000906001600160a01b038316906370a082319061131090309060040161427b565b602060405180830381865afa15801561132d573d6000803e3d6000fd5b505050506040513d601f19601f820116820180604052508101906113519190614e67565b6080549091506000906001600160a01b0316156113de576080546040516370a0823160e01b81526001600160a01b03909116906370a082319061139890309060040161427b565b602060405180830381865afa1580156113b5573d6000803e3d6000fd5b505050506040513d601f19601f820116820180604052508101906113d99190614e67565b6113e1565b60005b90506000836001600160a01b031663313ce5676040518163ffffffff1660e01b8152600401602060405180830381865afa158015611423573d6000803e3d6000fd5b505050506040513d601f19601f820116820180604052508101906114479190614e80565b905060128160ff16101561147c57611460816012614eb9565b61146b90600a614fb6565b6114759083614fc5565b91506114ab565b60128160ff1611156114ab57611493601282614eb9565b61149e90600a614fb6565b6114a89083614fe7565b91505b6114b58284614ffe565b94505050505090565b6001600160a01b037f00000000000000000000000000000000000000000000000000000000000000001630036115065760405162461bcd60e51b815260040161035590614caa565b7f00000000000000000000000000000000000000000000000000000000000000006001600160a01b031661153861227f565b6001600160a01b03161461155e5760405162461bcd60e51b815260040161035590614ce4565b6115678261229b565b610f9c828260016122e7565b6000306001600160a01b037f0000000000000000000000000000000000000000000000000000000000000000161461160e5760405162461bcd60e51b815260206004820152603860248201527f555550535570677261646561626c653a206d757374206e6f742062652063616c6044820152771b1959081d1a1c9bdd59da0819195b1959d85d1958d85b1b60421b6064820152608401610355565b5060008051602061592c83398151915290565b60008061162c611230565b9050600062989680826072600001546116459190614fe7565b61164f9190614fc5565b607254909150611660908390614fe7565b61166d6298968086614fe7565b111561169d57604051633e4bb86360e01b8152600481018590526024810182905260448101839052606401610355565b6071546074546073546072546075546040516314eff2dd60e11b815273__$f1b7c69ba751c396eddc93d3bbc5414fd9$__956329dfe5ba956116ee958c958b95939492939192909190600401615011565b602060405180830381865af415801561170b573d6000803e3d6000fd5b505050506040513d601f19601f8201168201806040525081019061172f9190614e67565b949350505050565b6000818152607b60205260408120600781015473__$f1b7c69ba751c396eddc93d3bbc5414fd9$__9063010dfe64906117709043615041565b600384015460028501546074546040516001600160e01b031960e087901b1681526117a194939291906004016146f8565b602060405180830381865af41580156117be573d6000803e3d6000fd5b505050506040513d601f19601f820116820180604052508101906117e29190614e67565b9392505050565b600054610100900460ff166118105760405162461bcd60e51b815260040161035590615054565b6118198161198b565b606580546001600160a01b0319166001600160a01b03851617905560405161184590839060200161509f565b60408051601f198184030181529190528051602090910120606655505050565b6110656102f4565b61187561205b565b610f2f600061255f565b607d602052816000526040600020818154811061189b57600080fd5b90600052602060002001600091509150505481565b60006118ba610d4f565b6001600160a01b03163b6000036118d357610d63610d4f565b6118db610d4f565b6001600160a01b0316638da5cb5b6040518163ffffffff1660e01b8152600401602060405180830381865afa925050508015611934575060408051601f3d908101601f1916820190925261193191810190614d1e565b60015b61194057610d63610d4f565b919050565b61194d61205b565b606a80546001600160a01b0319166001600160a01b0392909216919091179055565b60006119796102f4565b95945050505050565b611065816125b1565b600054610100900460ff166119b25760405162461bcd60e51b815260040161035590615054565b6110658161255f565b6000806000806000806000806000806000806000607b60008f815260200190815260200160002090508060010154600014611a935773__$f1b7c69ba751c396eddc93d3bbc5414fd9$__6329dfe5ba8260010154611a17611230565b6071546074546073546072546075546040516001600160e01b031960e08a901b168152611a4d9796959493929190600401615011565b602060405180830381865af4158015611a6a573d6000803e3d6000fd5b505050506040513d601f19601f82011682018060405250810190611a8e9190614e67565b611a96565b60005b94508060050160009054906101000a90046001600160a01b03168160040160009054906101000a90046001600160a01b03168260060160009054906101000a90046001600160a01b0316836001015484600201548560080160009054906101000a900460ff16866007015487600301548c896009016000336001600160a01b03166001600160a01b03168152602001908152602001600020548a601001548b600a01600001549c509c509c509c509c509c509c509c509c509c509c509c505091939597999b5091939597999b565b611b6c6102f4565b505050505050565b6000610d6360675460ff1690565b6000828152607b602090815260408083206001600160a01b03851684526009019091528120546117e2565b611bb56125f8565b611bbe82612623565b606a54606c8054611be7926001600160a01b0316916000611bde836150b2565b91905055612672565b607980546001600160a01b0319166001600160a01b039290921691821790556040805163204a7f0760e21b81529051638129fc1c9160048082019260009290919082900301818387803b158015611c3d57600080fd5b505af1158015611c51573d6000803e3d6000fd5b50505050600081806020019051810190611c6b919061523a565b60a0810151607880546001600160a01b0319166001600160a01b03909216919091179055602081015160768054929350909160ff19166001836002811115611cb557611cb56140f6565b021790555060408101516076805461ff001916610100836003811115611cdd57611cdd6140f6565b021790555060608101515160775560c0810151607a80546001600160a01b039283166001600160a01b031991821617909155610120830151608080549190931691161790556040517f27cddb9d805ad332311bc448d558d9a480ce45ef8b7e99b382ee1f16267e567f90611d5490859084906153ad565b60405180910390a16080810151602001516001600160a01b031615801590611d8957506080810151516001600160a01b031615155b15611efc576080810151805160209091015160405163446adb9960e11b81526001600160a01b03909216916388d5b73291611dc69160040161427b565b600060405180830381600087803b158015611de057600080fd5b505af1158015611df4573d6000803e3d6000fd5b5050606f8054925090506000611e09836150b2565b909155505060808181018051606f80546000908152607f6020908152604091829020845181546001600160a01b039182166001600160a01b03199182161783558387015160018401805491841691909216179055838601516002830155606080870151600384015586890151600484015560a096870151600590930192909255935495518051818401518286015183850151848c0151948a015188519b8c52938916968b019690965296168886015291870194909452958501529183015260c082019290925290517fe677e2878aaaaf6a65ecf50f849ad58100c49f6dfd57d055ba4bddd63a175d539181900360e00190a15b805160400151158015611f125750805160200151155b8015611f1e5750805151155b8015611f2d5750805160600151155b611f86578051805160725560208101516073556040808201516074556060820151607555517fec9315d9f4291207475c061feff1e5d7105750ac0ee9534af9444b4ff1dab9bc91611f7d916154c9565b60405180910390a15b607a546001600160a01b031615610d7057610d708160e0015161247b565b611fac61205b565b6001600160a01b0381166119b25760405162461bcd60e51b815260206004820152602660248201527f4f776e61626c653a206e6577206f776e657220697320746865207a65726f206160448201526564647265737360d01b6064820152608401610355565b6001600160a01b03163b151590565b60008061202d84846126b9565b9150915081600014801561203f575080155b1561204a5750505050565b600784015560039092019190915550565b336120646118b0565b6001600160a01b031614610f2f5760405162461bcd60e51b815260206004820181905260248201527f4f776e61626c653a2063616c6c6572206973206e6f7420746865206f776e65726044820152606401610355565b60005b83518110156122395760008482815181106120da576120da6154d7565b602002602001015160400151905060008583815181106120fc576120fc6154d7565b6020026020010151600001519050815160000361212e578060405163e767f91f60e01b8152600401610355919061427b565b6000868481518110612142576121426154d7565b602002602001015160200151905060006003811115612163576121636140f6565b816003811115612175576121756140f6565b0361218957612184828461278a565b612223565b600181600381111561219d5761219d6140f6565b036121ac57612184828461292b565b60028160038111156121c0576121c06140f6565b036121cf576121848284612a97565b60038160038111156121e3576121e36140f6565b036121f2576121848284612cf5565b806003811115612204576122046140f6565b604051633ff4d20f60e11b815260ff9091166004820152602401610355565b5050508080612231906150b2565b9150506120bd565b507f8faa70878671ccd212d20771b795c50af8fd3ff6cf27f4bde57e5d4de0aeb67383838360405161226d93929190615527565b60405180910390a1610d708282612f11565b60008051602061592c833981519152546001600160a01b031690565b336122a46118b0565b6001600160a01b03161461106557336122bb6118b0565b60405163163678e960e01b81526001600160a01b03928316600482015291166024820152604401610355565b7f4910fdfa16fed3260ed0e7147f7cc6da11a60208b5b9406d12a635614ffd91435460ff161561231a57610d7083612fd7565b826001600160a01b03166352d1902d6040518163ffffffff1660e01b8152600401602060405180830381865afa925050508015612374575060408051601f3d908101601f1916820190925261237191810190614e67565b60015b6123d75760405162461bcd60e51b815260206004820152602e60248201527f45524331393637557067726164653a206e657720696d706c656d656e7461746960448201526d6f6e206973206e6f74205555505360901b6064820152608401610355565b60008051602061592c83398151915281146124465760405162461bcd60e51b815260206004820152602960248201527f45524331393637557067726164653a20756e737570706f727465642070726f786044820152681a58589b195555525160ba1b6064820152608401610355565b50610d70838383613071565b6001600160a01b038116611065578060405163084c41ef60e01b8152600401610355919061427b565b607a5460785460408051633629edcd60e11b815290516001600160a01b039384169363fc2ebdd193309387939190921691636c53db9a9160048083019260209291908290030181865afa1580156124d6573d6000803e3d6000fd5b505050506040513d601f19601f820116820180604052508101906124fa9190614d1e565b60405160e085901b6001600160e01b03191681526001600160a01b03938416600482015260248101929092529091166044820152606401600060405180830381600087803b15801561254b57600080fd5b505af1158015610f83573d6000803e3d6000fd5b603380546001600160a01b038381166001600160a01b0319831681179093556040519116919082907f8be0079c531659141344cd1fd0a4f28419497f9722a3daafe3b4186f6b6457e090600090a35050565b6067805460ff19168215159081179091556040519081527fd94c9bc4d43c51d8dc345a016d8e3d994432fac68e72832e4cf3a616bd8efae09060200160405180910390a150565b6065546001600160a01b03163314610f2f5760405163075fd2b160e01b815260040160405180910390fd5b61262b6125f8565b6068541561264c5760405163439a74c960e01b815260040160405180910390fd5b8060000361266d57604051637fcce2a960e01b815260040160405180910390fd5b606855565b6040516001600160601b03193360601b16602082015260348101829052600090819060540160405160208183030381529060405280519060200120905061172f8482613096565b60008043905080846007015411156126d3576126d36155da565b808460070154036126e957506000905080612783565b73__$f1b7c69ba751c396eddc93d3bbc5414fd9$__63010dfe648560070154836127139190615041565b60038701546074546040516001600160e01b031960e086901b16815261273f93929189916004016146f8565b602060405180830381865af415801561275c573d6000803e3d6000fd5b505050506040513d601f19601f820116820180604052508101906127809190614e67565b91505b9250929050565b6001600160a01b0382166127b357806040516302b8da0760e21b815260040161035591906155f0565b60006127bd61312d565b90506000816001018054905090506127ed846040518060600160405280602481526020016157cb6024913961313f565b60005b8351811015610f8357600084828151811061280d5761280d6154d7565b6020908102919091018101516001600160e01b031981166000908152918690526040909120549091506001600160a01b0316801561286a578161284f83613167565b60405163d4624ab160e01b8152600401610355929190615603565b6040805180820182526001600160a01b03808a16825261ffff80881660208085019182526001600160e01b0319881660009081528b8252958620945185549251909316600160a01b026001600160b01b0319909216929093169190911717909155600180880180549182018155835291206008820401805460e085901c60046007909416939093026101000a92830263ffffffff90930219169190911790558361291381615625565b94505050508080612923906150b2565b9150506127f0565b600061293561312d565b90506001600160a01b038316612960578160405163cd98a96f60e01b815260040161035591906155f0565b61298283604051806060016040528060288152602001615acf6028913961313f565b60005b8251811015610d7d5760008382815181106129a2576129a26154d7565b6020908102919091018101516001600160e01b031981166000908152918590526040909120549091506001600160a01b03163081036129f65781604051632901806d60e11b815260040161035591906140bb565b856001600160a01b0316816001600160a01b031603612a2a5781604051631ac6ce8d60e11b815260040161035591906140bb565b6001600160a01b038116612a535781604051637479f93960e01b815260040161035591906140bb565b506001600160e01b031916600090815260208390526040902080546001600160a01b0319166001600160a01b03861617905580612a8f816150b2565b915050612985565b6000612aa161312d565b60018101549091506001600160a01b03841615612ad3578360405163d091bc8160e01b8152600401610355919061427b565b60005b8351811015610f83576000848281518110612af357612af36154d7565b6020908102919091018101516001600160e01b0319811660009081528683526040908190208151808301909252546001600160a01b038116808352600160a01b90910461ffff169382019390935290925090612b645781604051637a08a22d60e01b815260040161035591906140bb565b8051306001600160a01b0390911603612b925781604051630df5fd6160e31b815260040161035591906140bb565b83612b9c81615646565b94505083816020015161ffff1614612c7a576000856001018581548110612bc557612bc56154d7565b90600052602060002090600891828204019190066004029054906101000a900460e01b90508086600101836020015161ffff1681548110612c0857612c086154d7565b600091825260208083206008830401805463ffffffff60079094166004026101000a938402191660e09590951c92909202939093179055838201516001600160e01b03199390931681529087905260409020805461ffff60a01b1916600160a01b61ffff909316929092029190911790555b84600101805480612c8d57612c8d61565d565b60008281526020808220600860001990940193840401805463ffffffff600460078716026101000a0219169055919092556001600160e01b0319909316815291859052506040902080546001600160b01b031916905580612ced816150b2565b915050612ad6565b6001600160a01b038216612d1e57806040516302b8da0760e21b815260040161035591906155f0565b6000612d2861312d565b9050612d4c836040518060600160405280602581526020016157186025913961313f565b600082516001600160401b03811115612d6757612d6761428f565b604051908082528060200260200182016040528015612d90578160200160208202803683370190505b50905060008084516001600160401b03811115612daf57612daf61428f565b604051908082528060200260200182016040528015612dd8578160200160208202803683370190505b5090506000805b8651811015612ed5576000878281518110612dfc57612dfc6154d7565b6020908102919091018101516001600160e01b031981166000908152918990526040909120549091506001600160a01b031680612e6f57818787612e3f816150b2565b985081518110612e5157612e516154d7565b6001600160e01b031990921660209283029190910190910152612ec0565b896001600160a01b0316816001600160a01b031614612ec057818585612e94816150b2565b965081518110612ea657612ea66154d7565b6001600160e01b0319909216602092830291909101909101525b50508080612ecd906150b2565b915050612ddf565b508215612eef57612eef87612eea868661318d565b61278a565b8015612f0857612f0887612f03848461318d565b61292b565b50505050505050565b6001600160a01b038216612f23575050565b612f45826040518060600160405280602881526020016157ef6028913961313f565b600080836001600160a01b031683604051612f609190615673565b600060405180830381855af49150503d8060008114612f9b576040519150601f19603f3d011682016040523d82523d6000602084013e612fa0565b606091505b509150915081610d7d57805115612fba5780518082602001fd5b838360405163192105d760e01b815260040161035592919061568f565b612fe081612011565b6130425760405162461bcd60e51b815260206004820152602d60248201527f455243313936373a206e657720696d706c656d656e746174696f6e206973206e60448201526c1bdd08184818dbdb9d1c9858dd609a1b6064820152608401610355565b60008051602061592c83398151915280546001600160a01b0319166001600160a01b0392909216919091179055565b61307a8361323f565b6000825111806130875750805b15610d7057610d7d838361327f565b6000763d602d80600a3d3981f3363d3d373d3d3d363d730000008360601b60e81c176000526e5af43d82803e903d91602b57fd5bf38360781b1760205281603760096000f590506001600160a01b038116610d495760405162461bcd60e51b8152602060048201526017602482015276115490cc4c4d8dce8818dc99585d194c8819985a5b1959604a1b6044820152606401610355565b60008051602061573d83398151915290565b813b6000819003610d7057828260405163919834b960e01b815260040161035592919061568f565b60606000613174836132a4565b8051909150156131845792915050565b6117e283613de3565b60606000826001600160401b038111156131a9576131a961428f565b6040519080825280602002602001820160405280156131d2578160200160208202803683370190505b50905060005b83811015613237578481815181106131f2576131f26154d7565b602002602001015182828151811061320c5761320c6154d7565b6001600160e01b0319909216602092830291909101909101528061322f816150b2565b9150506131d8565b509392505050565b61324881612fd7565b6040516001600160a01b038216907fbc7cd75a20ee27fd9adebab32041f755214dbc6bffa90cc0225b39da2e5c2d3b90600090a250565b60606117e28383604051806060016040528060278152602001615a0560279139613fa7565b6060630a920ceb60e21b6001600160e01b03198316016132f457505060408051808201909152601a815279435641646d696e46616365742e736574506f6f6c506172616d7360301b602082015290565b631b6c663f60e21b6001600160e01b031983160161332b576040518060600160405280602181526020016156d66021913992915050565b630e5b638560e21b6001600160e01b03198316016133625760405180606001604052806024815260200161583d6024913992915050565b630435b7c160e21b6001600160e01b03198316016133b057505060408051808201909152601a8152794356416c6c6f636174696f6e46616365742e616c6c6f6361746560301b602082015290565b63f590f11760e01b6001600160e01b031983160161340057505060408051808201909152601c81527b4356416c6c6f636174696f6e46616365742e6469737472696275746560201b602082015290565b6312fa9a4560e21b6001600160e01b031983160161345157505060408051808201909152601e81527f43564469737075746546616365742e6469737075746550726f706f73616c0000602082015290565b636772c9d560e11b6001600160e01b031983160161349857505060408051808201909152601381527243564469737075746546616365742e72756c6560681b602082015290565b63d12fb4d560e01b6001600160e01b03198316016134e657505060408051808201909152601a81527921ab2837bbb2b92330b1b2ba173232b1b932b0b9b2a837bbb2b960311b602082015290565b63e220e1dd60e01b6001600160e01b031983160161353757505060408051808201909152601f81527f4356506f77657246616365742e64656163746976617465506f696e7473282900602082015290565b6326eb098f60e21b6001600160e01b031983160161356e57604051806060016040528060268152602001615a7d6026913992915050565b636a20f9a960e11b6001600160e01b03198316016135a5576040518060600160405280602181526020016156f76021913992915050565b631f57090b60e01b6001600160e01b03198316016135f657505060408051808201909152601e81527f435650726f706f73616c46616365742e63616e63656c50726f706f73616c0000602082015290565b631d7c389960e31b6001600160e01b031983160161364657505060408051808201909152601c81527b10d5941c9bdc1bdcd85b119858d95d0b99591a5d141c9bdc1bdcd85b60221b602082015290565b63392383c760e21b6001600160e01b031983160161367d576040518060600160405280602581526020016159e06025913992915050565b632796476360e11b6001600160e01b03198316016136b4576040518060600160405280602c8152602001615aa3602c913992915050565b63cbe69cab60e01b6001600160e01b031983160161370457505060408051808201909152601c81527b5265676973747279436f6d6d756e6974792e696e697469616c697a6560201b602082015290565b63b6653a8160e01b6001600160e01b031983160161373b57604051806080016040528060518152602001615a2c6051913992915050565b631954d92960e11b6001600160e01b0319831601613772576040518060800160405280605981526020016158616059913992915050565b637a7e223360e11b6001600160e01b03198316016137c357505060408051808201909152601d81527f5265676973747279436f6d6d756e6974792e7365744172636869766564000000602082015290565b63f2b574b760e01b6001600160e01b03198316016137fa576040518060600160405280602a8152602001615af7602a913992915050565b63dd43066760e01b6001600160e01b0319831601613831576040518060600160405280602c81526020016158ba602c913992915050565b63aa621fa360e01b6001600160e01b031983160161388257505060408051808201909152601f81527f5265676973747279436f6d6d756e6974792e696e637265617365506f77657200602082015290565b63a1308e3b60e01b6001600160e01b03198316016138d357505060408051808201909152601f81527f5265676973747279436f6d6d756e6974792e6465637265617365506f77657200602082015290565b6387e811b160e01b6001600160e01b031983160161390a576040518060600160405280602a8152602001615b6c602a913992915050565b6369cf71db60e11b6001600160e01b031983160161394157604051806060016040528060278152602001615b216027913992915050565b637d295e1960e01b6001600160e01b03198316016139785760405180606001604052806025815260200161575d6025913992915050565b63ddc1ab8760e01b6001600160e01b03198316016139c957505060408051808201909152601d81527f5265676973747279436f6d6d756e6974792e6164645374726174656779000000602082015290565b6304e096e960e01b6001600160e01b0319831601613a1957505060408051808201909152601c81527b149959da5cdd1c9e50dbdb5b5d5b9a5d1e4b9c995a9958dd141bdbdb60221b602082015290565b638cd9a3c960e01b6001600160e01b0319831601613a50576040518060600160405280602881526020016159b86028913992915050565b631d15cee360e31b6001600160e01b0319831601613aa15750506040805180820190915260208082527f5265676973747279436f6d6d756e6974792e72656d6f766553747261746567799082015290565b63c681dabd60e01b6001600160e01b0319831601613af25750506040805180820190915260208082527f5265676973747279436f6d6d756e6974792e736574436f756e63696c536166659082015290565b6304afa73b60e41b6001600160e01b0319831601613b29576040518060600160405280602381526020016159746023913992915050565b631773ceb760e21b6001600160e01b0319831601613b7757505060408051808201909152601a8152792932b3b4b9ba393ca1b7b6b6bab734ba3c9734b9a6b2b6b132b960311b602082015290565b6332f05c8f60e11b6001600160e01b0319831601613bae5760405180606001604052806028815260200161594c6028913992915050565b63d73cf61760e01b6001600160e01b0319831601613be5576040518060600160405280602881526020016157826028913992915050565b633f33b1f160e21b6001600160e01b0319831601613c1c576040518060600160405280602681526020016158e66026913992915050565b636704f21b60e11b6001600160e01b0319831601613c53576040518060600160405280602681526020016158176026913992915050565b630d288b1960e01b6001600160e01b0319831601613c8a57604051806060016040528060248152602001615b486024913992915050565b63f2ed442560e01b6001600160e01b0319831601613cc1576040518060600160405280602181526020016157aa6021913992915050565b630a1411d760e11b6001600160e01b0319831601613cf8576040518060600160405280602181526020016159976021913992915050565b6304664bc960e41b6001600160e01b0319831601613d2f576040518060600160405280602281526020016156b46022913992915050565b63978e14b360e01b6001600160e01b0319831601613d7f57505060408051808201909152601c81527b2932b3b4b9ba393ca1b7b6b6bab734ba3c9735b4b1b5a6b2b6b132b960211b602082015290565b63381b38f960e21b6001600160e01b0319831601613dcf57505060408051808201909152601c81527b149959da5cdd1c9e50dbdb5b5d5b9a5d1e4b991a585b5bdb9910dd5d60221b602082015290565b505060408051602081019091526000815290565b604080518082018252601081526f181899199a1a9b1b9c1cb0b131b232b360811b60208201528151600a80825281840190935260609260009190602082018180368337019050509050600360fc1b81600081518110613e4457613e446154d7565b60200101906001600160f81b031916908160001a905350600f60fb1b81600181518110613e7357613e736154d7565b60200101906001600160f81b031916908160001a90535060005b600481101561323757826004868360048110613eab57613eab6154d7565b1a60f81b6001600160f81b031916901c60f81c60ff1681518110613ed157613ed16154d7565b01602001516001600160f81b03191682613eec836002614fe7565b613ef7906002614ffe565b81518110613f0757613f076154d7565b60200101906001600160f81b031916908160001a90535082858260048110613f3157613f316154d7565b825191901a600f16908110613f4857613f486154d7565b01602001516001600160f81b03191682613f63836002614fe7565b613f6e906003614ffe565b81518110613f7e57613f7e6154d7565b60200101906001600160f81b031916908160001a90535080613f9f816150b2565b915050613e8d565b6060600080856001600160a01b031685604051613fc49190615673565b600060405180830381855af49150503d8060008114613fff576040519150601f19603f3d011682016040523d82523d6000602084013e614004565b606091505b50915091506140158683838761401f565b9695505050505050565b6060831561408c5782516000036140855761403985612011565b6140855760405162461bcd60e51b815260206004820152601d60248201527f416464726573733a2063616c6c20746f206e6f6e2d636f6e74726163740000006044820152606401610355565b508161172f565b61172f83838151156140a15781518083602001fd5b8060405162461bcd60e51b8152600401610355919061509f565b6001600160e01b031991909116815260200190565b6000602082840312156140e257600080fd5b5035919050565b6001600160a01b03169052565b634e487b7160e01b600052602160045260246000fd5b6007811061411c5761411c6140f6565b9052565b60005b8381101561413b578181015183820152602001614123565b50506000910152565b6000815180845261415c816020860160208601614120565b601f01601f19169290920160200192915050565b80518252600060208201516040602085015261172f6040850182614144565b8e8152602081018e9052604081018d9052606081018c90526001600160a01b038b811660808301528a1660a082015260006141cd60c083018b6140e9565b8860e08301526141e161010083018961410c565b6102006101208301526141f8610200830188614170565b865161014084015260208701516101608401526040909601516001600160a01b0316610180830152506101a08101939093526101c08301919091526101e0909101529a9950505050505050505050565b80356001600160e01b03198116811461194057600080fd5b60006020828403121561427257600080fd5b6117e282614248565b6001600160a01b0391909116815260200190565b634e487b7160e01b600052604160045260246000fd5b604080519081016001600160401b03811182821017156142c7576142c761428f565b60405290565b604051608081016001600160401b03811182821017156142c7576142c761428f565b60405160c081016001600160401b03811182821017156142c7576142c761428f565b604051606081016001600160401b03811182821017156142c7576142c761428f565b60405161014081016001600160401b03811182821017156142c7576142c761428f565b604051601f8201601f191681016001600160401b038111828210171561437e5761437e61428f565b604052919050565b60006001600160401b0382111561439f5761439f61428f565b5060051b60200190565b6001600160a01b038116811461106557600080fd5b8035611940816143a9565b600082601f8301126143da57600080fd5b813560206143ef6143ea83614386565b614356565b82815260059290921b8401810191818101908684111561440e57600080fd5b8286015b84811015614432578035614425816143a9565b8352918301918301614412565b509695505050505050565b60006001600160401b038211156144565761445661428f565b50601f01601f191660200190565b600082601f83011261447557600080fd5b81356144836143ea8261443d565b81815284602083860101111561449857600080fd5b816020850160208301376000918101602001919091529392505050565b6000806000606084860312156144ca57600080fd5b83356001600160401b03808211156144e157600080fd5b6144ed878388016143c9565b9450602086013591508082111561450357600080fd5b5061451086828701614464565b9250506040840135614521816143a9565b809150509250925092565b6000806000806080858703121561454257600080fd5b8435935060208501356001600160401b038082111561456057600080fd5b908601906040828903121561457457600080fd5b61457c6142a5565b8235815260208301358281111561459257600080fd5b61459e8a828601614464565b6020830152509450505060408501356145b6816143a9565b9396929550929360600135925050565b6000806000606084860312156145db57600080fd5b83356145e6816143a9565b925060208401356145f6816143a9565b91506040840135614521816143a9565b60008083601f84011261461857600080fd5b5081356001600160401b0381111561462f57600080fd5b60208301915083602082850101111561278357600080fd5b60008060008060006060868803121561465f57600080fd5b85356001600160401b038082111561467657600080fd5b818801915088601f83011261468a57600080fd5b81358181111561469957600080fd5b8960208260051b85010111156146ae57600080fd5b602083019750809650506146c4602089016143be565b945060408801359150808211156146da57600080fd5b506146e788828901614606565b969995985093965092949392505050565b93845260208401929092526040830152606082015260800190565b6000806040838503121561472657600080fd5b82356001600160401b0381111561473c57600080fd5b61474885828601614464565b9250506020830135614759816143a9565b809150509250929050565b60048110611065576110656140f6565b61411c81614764565b6020810161478a83614764565b91905290565b600080604083850312156147a357600080fd5b82356147ae816143a9565b946020939093013593505050565b600080604083850312156147cf57600080fd5b50508035926020909101359150565b6003811061411c5761411c6140f6565b60208101610d4982846147de565b60006020828403121561480e57600080fd5b81356117e2816143a9565b6000806040838503121561482c57600080fd5b8235614837816143a9565b915060208301356001600160401b0381111561485257600080fd5b61485e85828601614464565b9150509250929050565b60008060006060848603121561487d57600080fd5b8335614888816143a9565b925060208401356001600160401b038111156148a357600080fd5b61451086828701614464565b6000806000806000606086880312156148c757600080fd5b8535945060208601356001600160401b03808211156148e557600080fd5b6148f189838a01614606565b909650945060408801359150808211156146da57600080fd5b60006020828403121561491c57600080fd5b813580151581146117e257600080fd5b6001600160a01b038d811682528c811660208301528b166040820152606081018a905260808101899052610180810161496860a083018a61410c565b8760c08301528660e0830152856101008301528461012083015283610140830152826101608301529d9c50505050505050505050505050565b6000608082840312156149b357600080fd5b6149bb6142cd565b90508135815260208201356020820152604082013560408201526060820135606082015292915050565b6000806000806000808688036101c0811215614a0057600080fd5b60c0811215614a0e57600080fd5b50614a176142ef565b8735614a22816143a9565b81526020880135614a32816143a9565b8060208301525060408801356040820152606088013560608201526080880135608082015260a088013560a082015280965050614a728860c089016149a1565b945061014087013593506101608701356001600160401b0380821115614a9757600080fd5b614aa38a838b016143c9565b9450610180890135915080821115614aba57600080fd5b50614ac789828a016143c9565b925050614ad76101a088016143be565b90509295509295509295565b60008060408385031215614af657600080fd5b823591506020830135614759816143a9565b60008060408385031215614b1b57600080fd5b8235915060208301356001600160401b0381111561485257600080fd5b600181811c90821680614b4c57607f821691505b602082108103614b6c57634e487b7160e01b600052602260045260246000fd5b50919050565b6004811061106557600080fd5b6000614b8d6143ea84614386565b83815260208082019190600586811b860136811115614bab57600080fd5b865b81811015614c9d5780356001600160401b0380821115614bcd5760008081fd5b818a01915060608236031215614be35760008081fd5b614beb614311565b8235614bf6816143a9565b815282870135614c0581614b72565b8188015260408381013583811115614c1d5760008081fd5b939093019236601f850112614c3457600092508283fd5b83359250614c446143ea84614386565b83815292871b84018801928881019036851115614c615760008081fd5b948901945b84861015614c8657614c7786614248565b82529489019490890190614c66565b918301919091525088525050948301948301614bad565b5092979650505050505050565b6020808252602c9082015260008051602061590c83398151915260408201526b19195b1959d85d1958d85b1b60a21b606082015260800190565b6020808252602c9082015260008051602061590c83398151915260408201526b6163746976652070726f787960a01b606082015260800190565b600060208284031215614d3057600080fd5b81516117e2816143a9565b8051611940816143a9565b60006020808385031215614d5957600080fd5b82516001600160401b0380821115614d7057600080fd5b9084019060c08287031215614d8457600080fd5b614d8c6142ef565b8251815283830151614d9d816143a9565b818501526040830151614daf816143a9565b6040820152606083015182811115614dc657600080fd5b830160408189031215614dd857600080fd5b614de06142a5565b815181528582015184811115614df557600080fd5b82019350601f84018913614e0857600080fd5b83519150614e186143ea8361443d565b8281528987848701011115614e2c57600080fd5b614e3b83888301898801614120565b95810195909552506060810193909352506080818101519083015260a090810151908201529392505050565b600060208284031215614e7957600080fd5b5051919050565b600060208284031215614e9257600080fd5b815160ff811681146117e257600080fd5b634e487b7160e01b600052601160045260246000fd5b60ff8281168282160390811115610d4957610d49614ea3565b600181815b80851115614f0d578160001904821115614ef357614ef3614ea3565b80851615614f0057918102915b93841c9390800290614ed7565b509250929050565b600082614f2457506001610d49565b81614f3157506000610d49565b8160018114614f475760028114614f5157614f6d565b6001915050610d49565b60ff841115614f6257614f62614ea3565b50506001821b610d49565b5060208310610133831016604e8410600b8410161715614f90575081810a610d49565b614f9a8383614ed2565b8060001904821115614fae57614fae614ea3565b029392505050565b60006117e260ff841683614f15565b600082614fe257634e487b7160e01b600052601260045260246000fd5b500490565b8082028115828204841417610d4957610d49614ea3565b80820180821115610d4957610d49614ea3565b968752602087019590955260408601939093526060850191909152608084015260a083015260c082015260e00190565b81810381811115610d4957610d49614ea3565b6020808252602b908201527f496e697469616c697a61626c653a20636f6e7472616374206973206e6f74206960408201526a6e697469616c697a696e6760a81b606082015260800190565b6020815260006117e26020830184614144565b6000600182016150c4576150c4614ea3565b5060010190565b6000608082840312156150dd57600080fd5b6150e56142cd565b90508151815260208201516020820152604082015160408201526060820151606082015292915050565b80516003811061194057600080fd5b805161194081614b72565b60006020828403121561513b57600080fd5b604051602081016001600160401b038111828210171561515d5761515d61428f565b6040529151825250919050565b600060c0828403121561517c57600080fd5b6151846142ef565b90508151615191816143a9565b815260208201516151a1816143a9565b8060208301525060408201516040820152606082015160608201526080820151608082015260a082015160a082015292915050565b600082601f8301126151e757600080fd5b815160206151f76143ea83614386565b82815260059290921b8401810191818101908684111561521657600080fd5b8286015b8481101561443257805161522d816143a9565b835291830191830161521a565b60006020828403121561524c57600080fd5b81516001600160401b038082111561526357600080fd5b90830190610240828603121561527857600080fd5b615280614333565b61528a86846150cb565b81526152986080840161510f565b60208201526152a960a0840161511e565b60408201526152bb8660c08501615129565b60608201526152cd8660e0850161516a565b60808201526152df6101a08401614d3b565b60a08201526152f16101c08401614d3b565b60c08201526101e083015160e08201526102008301518281111561531457600080fd5b615320878286016151d6565b610100830152506153346102208401614d3b565b61012082015295945050505050565b805182526020810151602083015260408101516040830152606081015160608301525050565b600081518084526020808501945080840160005b838110156153a25781516001600160a01b03168752958201959082019060010161537d565b509495945050505050565b828152604060208201526153c5604082018351615343565b600060208301516153d960c08401826147de565b5060408301516153ec60e0840182614774565b50606083015161010061540181850183519052565b60808581015180516001600160a01b0390811661012088810191909152602083015190911661014088015260408201516101608801526060820151610180880152918101516101a087015260a0908101516101c0870152860151925061546b6101e08601846140e9565b60c086015192506154806102008601846140e9565b60e0860151610220860152818601519250610240915081828601526154a9610280860184615369565b9250808601519150506154c06102608501826140e9565b50949350505050565b60808101610d498284615343565b634e487b7160e01b600052603260045260246000fd5b600081518084526020808501945080840160005b838110156153a25781516001600160e01b03191687529582019590820190600101615501565b6000606080830181845280875180835260808601915060808160051b87010192506020808a0160005b838110156155ac57888603607f19018552815180516001600160a01b031687528381015161557d81614764565b87850152604090810151908701889052615599888801826154ed565b9650509382019390820190600101615550565b50506155ba8188018a6140e9565b50505083810360408501526155cf8186614144565b979650505050505050565b634e487b7160e01b600052600160045260246000fd5b6020815260006117e260208301846154ed565b63ffffffff60e01b8316815260406020820152600061172f6040830184614144565b600061ffff80831681810361563c5761563c614ea3565b6001019392505050565b60008161565557615655614ea3565b506000190190565b634e487b7160e01b600052603160045260246000fd5b60008251615685818460208701614120565b9190910192915050565b6001600160a01b038316815260406020820181905260009061172f9083018461414456fe5265676973747279436f6d6d756e6974792e756e72656769737465724d656d626572435641646d696e46616365742e636f6e6e6563745375706572666c756964474441435650726f706f73616c46616365742e7265676973746572526563697069656e744c69624469616d6f6e644375743a204175746f20666163657420686173206e6f20636f6465c8fcad8db84d3cc18b4c41d551ea0ee66dd599cde068d998e57d5e09332c131c5265676973747279436f6d6d756e6974792e61646453747261746567794279506f6f6c49645265676973747279436f6d6d756e6974792e6765745374616b65416d6f756e7457697468466565735265676973747279436f6d6d756e6974792e736574436f6d6d756e6974794665654c69624469616d6f6e644375743a2041646420666163657420686173206e6f20636f64654c69624469616d6f6e644375743a205f696e6974206164647265737320686173206e6f20636f64655265676973747279436f6d6d756e6974792e73657442617369735374616b6564416d6f756e74435641646d696e46616365742e646973636f6e6e6563745375706572666c7569644744415265676973747279436f6d6d756e6974792e637265617465506f6f6c28616464726573732c616464726573732c2843565374726174656779496e697469616c697a65506172616d7356305f32292c284d6574616461746129295265676973747279436f6d6d756e6974792e646561637469766174654d656d626572496e53747261746567795265676973747279436f6d6d756e6974792e67657442617369735374616b6564416d6f756e7446756e6374696f6e206d7573742062652063616c6c6564207468726f75676820360894a13ba1a3210667c828492db98dca3e2076cc3735a920a3ca505d382bbc5265676973747279436f6d6d756e6974792e7374616b65416e6452656769737465724d656d6265725265676973747279436f6d6d756e6974792e616363657074436f756e63696c536166655265676973747279436f6d6d756e6974792e6973436f756e63696c4d656d6265725265676973747279436f6d6d756e6974792e72656d6f766553747261746567794279506f6f6c49645265676973747279436f6d6d756e6974792e736574537472617465677954656d706c617465416464726573733a206c6f772d6c6576656c2064656c65676174652063616c6c206661696c65645265676973747279436f6d6d756e6974792e637265617465506f6f6c28616464726573732c2843565374726174656779496e697469616c697a65506172616d7356305f32292c284d6574616461746129294356506f77657246616365742e64656163746976617465506f696e74732861646472657373295265676973747279436f6d6d756e6974792e736574436f6c6c61746572616c5661756c7454656d706c6174654c69624469616d6f6e644375743a205265706c61636520666163657420686173206e6f20636f64655265676973747279436f6d6d756e6974792e61637469766174654d656d626572496e53747261746567795265676973747279436f6d6d756e6974792e6765744d656d6265725374616b6564416d6f756e745265676973747279436f6d6d756e6974792e736574436f6d6d756e697479506172616d735265676973747279436f6d6d756e6974792e6765744d656d626572506f776572496e5374726174656779a164736f6c6343000813000a","linkReferences":{"pkg/contracts/src/CVStrategy/ConvictionsUtils.sol":{"ConvictionsUtils":[{"start":5896,"length":20},{"start":6041,"length":20},{"start":6719,"length":20},{"start":10040,"length":20}]}}},"methodIdentifiers":{"DISPUTE_COOLDOWN_SEC()":"f5be3f7c","NATIVE()":"a0cf0aea","RULING_OPTIONS()":"626c47e8","activatePoints()":"814516ad","allocate(bytes,address)":"ef2920fc","arbitrableConfigs(uint256)":"41bb7605","calculateProposalConviction(uint256)":"60b0645a","calculateThreshold(uint256)":"59a5db8b","cancelProposal(uint256)":"e0a8f6f5","cloneNonce()":"33960459","collateralVault()":"0bece79c","connectSuperfluidGDA(address)":"924e6704","currentArbitrableConfigVersion()":"125fd1d9","cvParams()":"2506b870","deactivatePoints()":"1ddf1e23","deactivatePoints(address)":"6453d9c4","decreasePower(address,uint256)":"2ed04b2b","diamondCut((address,uint8,bytes4[])[],address,bytes)":"1f931c1c","disconnectSuperfluidGDA(address)":"c69271ec","disputeCount()":"a28889e1","disputeIdToProposalId(uint256)":"255ffb38","disputeProposal(uint256,string,bytes)":"b41596ec","distribute(address[],bytes,address)":"0a6f0ee9","editProposal(uint256,(uint256,string),address,uint256)":"141e3b38","getAllo()":"15cc481e","getArbitrableConfig()":"059351cd","getMaxAmount()":"0ba95909","getPointSystem()":"c3292171","getPoolAmount()":"4ab4ba42","getPoolId()":"38fff2d0","getProposal(uint256)":"c7f758a8","getProposalStakedAmount(uint256)":"dc96ff2d","getProposalVoterStake(uint256,address)":"e0dd2c38","increasePower(address,uint256)":"782aadff","init(address,address,address)":"184b9559","init(address,string,address)":"60d5dedc","initialize(address)":"c4d66de8","initialize(uint256,bytes)":"edd146cc","isPoolActive()":"df868ed3","owner()":"8da5cb5b","pointConfig()":"a47ff7e5","pointSystem()":"2dbd6fdd","proposalCounter()":"0c0512e9","proposalType()":"351d9f96","proposals(uint256)":"013cf08b","proxiableUUID()":"52d1902d","proxyOwner()":"025313a2","registerRecipient(bytes,address)":"2bbe0cae","registryCommunity()":"6003e414","renounceOwnership()":"715018a6","rule(uint256,uint256)":"311a6c56","setCollateralVaultTemplate(address)":"b0d3713a","setPoolActive(bool)":"b5f620ce","setPoolParams((address,address,uint256,uint256,uint256,uint256),(uint256,uint256,uint256,uint256),uint256,address[],address[],address)":"d5b7cc54","setSybilScorer(address,uint256)":"3864d366","superfluidToken()":"05caa7f3","supportsInterface(bytes4)":"01ffc9a7","sybilScorer()":"b6c61f31","totalPointsActivated()":"aba9ffee","totalStaked()":"817b1cd2","totalVoterStakePct(address)":"5db64b99","transferOwnership(address)":"f2fde38b","updateProposalConviction(uint256)":"1aa91a9e","upgradeTo(address)":"3659cfe6","upgradeToAndCall(address,bytes)":"4f1ef286","voterStakedProposals(address,uint256)":"868c57b8"},"storageLayout":{"storage":[{"astId":52222,"contract":"pkg/contracts/src/CVStrategy/CVStrategy.sol:CVStrategy","label":"_initialized","offset":0,"slot":"0","type":"t_uint8"},{"astId":52225,"contract":"pkg/contracts/src/CVStrategy/CVStrategy.sol:CVStrategy","label":"_initializing","offset":1,"slot":"0","type":"t_bool"},{"astId":52927,"contract":"pkg/contracts/src/CVStrategy/CVStrategy.sol:CVStrategy","label":"__gap","offset":0,"slot":"1","type":"t_array(t_uint256)50_storage"},{"astId":52014,"contract":"pkg/contracts/src/CVStrategy/CVStrategy.sol:CVStrategy","label":"_owner","offset":0,"slot":"51","type":"t_address"},{"astId":52134,"contract":"pkg/contracts/src/CVStrategy/CVStrategy.sol:CVStrategy","label":"__gap","offset":0,"slot":"52","type":"t_array(t_uint256)49_storage"},{"astId":74186,"contract":"pkg/contracts/src/CVStrategy/CVStrategy.sol:CVStrategy","label":"allo","offset":0,"slot":"101","type":"t_contract(IAllo)2629"},{"astId":74188,"contract":"pkg/contracts/src/CVStrategy/CVStrategy.sol:CVStrategy","label":"strategyId","offset":0,"slot":"102","type":"t_bytes32"},{"astId":74190,"contract":"pkg/contracts/src/CVStrategy/CVStrategy.sol:CVStrategy","label":"poolActive","offset":0,"slot":"103","type":"t_bool"},{"astId":74192,"contract":"pkg/contracts/src/CVStrategy/CVStrategy.sol:CVStrategy","label":"poolId","offset":0,"slot":"104","type":"t_uint256"},{"astId":74194,"contract":"pkg/contracts/src/CVStrategy/CVStrategy.sol:CVStrategy","label":"poolAmount","offset":0,"slot":"105","type":"t_uint256"},{"astId":74797,"contract":"pkg/contracts/src/CVStrategy/CVStrategy.sol:CVStrategy","label":"collateralVaultTemplate","offset":0,"slot":"106","type":"t_address"},{"astId":74799,"contract":"pkg/contracts/src/CVStrategy/CVStrategy.sol:CVStrategy","label":"surpressStateMutabilityWarning","offset":0,"slot":"107","type":"t_uint256"},{"astId":74801,"contract":"pkg/contracts/src/CVStrategy/CVStrategy.sol:CVStrategy","label":"cloneNonce","offset":0,"slot":"108","type":"t_uint256"},{"astId":74803,"contract":"pkg/contracts/src/CVStrategy/CVStrategy.sol:CVStrategy","label":"disputeCount","offset":0,"slot":"109","type":"t_uint64"},{"astId":74805,"contract":"pkg/contracts/src/CVStrategy/CVStrategy.sol:CVStrategy","label":"proposalCounter","offset":0,"slot":"110","type":"t_uint256"},{"astId":74807,"contract":"pkg/contracts/src/CVStrategy/CVStrategy.sol:CVStrategy","label":"currentArbitrableConfigVersion","offset":0,"slot":"111","type":"t_uint256"},{"astId":74809,"contract":"pkg/contracts/src/CVStrategy/CVStrategy.sol:CVStrategy","label":"totalStaked","offset":0,"slot":"112","type":"t_uint256"},{"astId":74811,"contract":"pkg/contracts/src/CVStrategy/CVStrategy.sol:CVStrategy","label":"totalPointsActivated","offset":0,"slot":"113","type":"t_uint256"},{"astId":74814,"contract":"pkg/contracts/src/CVStrategy/CVStrategy.sol:CVStrategy","label":"cvParams","offset":0,"slot":"114","type":"t_struct(CVParams)77412_storage"},{"astId":74817,"contract":"pkg/contracts/src/CVStrategy/CVStrategy.sol:CVStrategy","label":"proposalType","offset":0,"slot":"118","type":"t_enum(ProposalType)77313"},{"astId":74820,"contract":"pkg/contracts/src/CVStrategy/CVStrategy.sol:CVStrategy","label":"pointSystem","offset":1,"slot":"118","type":"t_enum(PointSystem)77318"},{"astId":74823,"contract":"pkg/contracts/src/CVStrategy/CVStrategy.sol:CVStrategy","label":"pointConfig","offset":0,"slot":"119","type":"t_struct(PointSystemConfig)77389_storage"},{"astId":74826,"contract":"pkg/contracts/src/CVStrategy/CVStrategy.sol:CVStrategy","label":"registryCommunity","offset":0,"slot":"120","type":"t_contract(RegistryCommunity)84022"},{"astId":74829,"contract":"pkg/contracts/src/CVStrategy/CVStrategy.sol:CVStrategy","label":"collateralVault","offset":0,"slot":"121","type":"t_contract(ICollateralVault)89608"},{"astId":74832,"contract":"pkg/contracts/src/CVStrategy/CVStrategy.sol:CVStrategy","label":"sybilScorer","offset":0,"slot":"122","type":"t_contract(ISybilScorer)82034"},{"astId":74837,"contract":"pkg/contracts/src/CVStrategy/CVStrategy.sol:CVStrategy","label":"proposals","offset":0,"slot":"123","type":"t_mapping(t_uint256,t_struct(Proposal)77381_storage)"},{"astId":74841,"contract":"pkg/contracts/src/CVStrategy/CVStrategy.sol:CVStrategy","label":"totalVoterStakePct","offset":0,"slot":"124","type":"t_mapping(t_address,t_uint256)"},{"astId":74846,"contract":"pkg/contracts/src/CVStrategy/CVStrategy.sol:CVStrategy","label":"voterStakedProposals","offset":0,"slot":"125","type":"t_mapping(t_address,t_array(t_uint256)dyn_storage)"},{"astId":74850,"contract":"pkg/contracts/src/CVStrategy/CVStrategy.sol:CVStrategy","label":"disputeIdToProposalId","offset":0,"slot":"126","type":"t_mapping(t_uint256,t_uint256)"},{"astId":74855,"contract":"pkg/contracts/src/CVStrategy/CVStrategy.sol:CVStrategy","label":"arbitrableConfigs","offset":0,"slot":"127","type":"t_mapping(t_uint256,t_struct(ArbitrableConfig)77403_storage)"},{"astId":74858,"contract":"pkg/contracts/src/CVStrategy/CVStrategy.sol:CVStrategy","label":"superfluidToken","offset":0,"slot":"128","type":"t_contract(ISuperToken)70946"},{"astId":76377,"contract":"pkg/contracts/src/CVStrategy/CVStrategy.sol:CVStrategy","label":"__gap","offset":0,"slot":"129","type":"t_array(t_uint256)49_storage"}],"types":{"t_address":{"encoding":"inplace","label":"address","numberOfBytes":"20"},"t_array(t_uint256)49_storage":{"encoding":"inplace","label":"uint256[49]","numberOfBytes":"1568","base":"t_uint256"},"t_array(t_uint256)50_storage":{"encoding":"inplace","label":"uint256[50]","numberOfBytes":"1600","base":"t_uint256"},"t_array(t_uint256)dyn_storage":{"encoding":"dynamic_array","label":"uint256[]","numberOfBytes":"32","base":"t_uint256"},"t_bool":{"encoding":"inplace","label":"bool","numberOfBytes":"1"},"t_bytes32":{"encoding":"inplace","label":"bytes32","numberOfBytes":"32"},"t_contract(IAllo)2629":{"encoding":"inplace","label":"contract IAllo","numberOfBytes":"20"},"t_contract(IArbitrator)89575":{"encoding":"inplace","label":"contract IArbitrator","numberOfBytes":"20"},"t_contract(ICollateralVault)89608":{"encoding":"inplace","label":"contract ICollateralVault","numberOfBytes":"20"},"t_contract(ISuperToken)70946":{"encoding":"inplace","label":"contract ISuperToken","numberOfBytes":"20"},"t_contract(ISybilScorer)82034":{"encoding":"inplace","label":"contract ISybilScorer","numberOfBytes":"20"},"t_contract(RegistryCommunity)84022":{"encoding":"inplace","label":"contract RegistryCommunity","numberOfBytes":"20"},"t_enum(PointSystem)77318":{"encoding":"inplace","label":"enum PointSystem","numberOfBytes":"1"},"t_enum(ProposalStatus)77338":{"encoding":"inplace","label":"enum ProposalStatus","numberOfBytes":"1"},"t_enum(ProposalType)77313":{"encoding":"inplace","label":"enum ProposalType","numberOfBytes":"1"},"t_mapping(t_address,t_array(t_uint256)dyn_storage)":{"encoding":"mapping","key":"t_address","label":"mapping(address => uint256[])","numberOfBytes":"32","value":"t_array(t_uint256)dyn_storage"},"t_mapping(t_address,t_uint256)":{"encoding":"mapping","key":"t_address","label":"mapping(address => uint256)","numberOfBytes":"32","value":"t_uint256"},"t_mapping(t_uint256,t_struct(ArbitrableConfig)77403_storage)":{"encoding":"mapping","key":"t_uint256","label":"mapping(uint256 => struct ArbitrableConfig)","numberOfBytes":"32","value":"t_struct(ArbitrableConfig)77403_storage"},"t_mapping(t_uint256,t_struct(Proposal)77381_storage)":{"encoding":"mapping","key":"t_uint256","label":"mapping(uint256 => struct Proposal)","numberOfBytes":"32","value":"t_struct(Proposal)77381_storage"},"t_mapping(t_uint256,t_uint256)":{"encoding":"mapping","key":"t_uint256","label":"mapping(uint256 => uint256)","numberOfBytes":"32","value":"t_uint256"},"t_string_storage":{"encoding":"bytes","label":"string","numberOfBytes":"32"},"t_struct(ArbitrableConfig)77403_storage":{"encoding":"inplace","label":"struct ArbitrableConfig","numberOfBytes":"192","members":[{"astId":77392,"contract":"pkg/contracts/src/CVStrategy/CVStrategy.sol:CVStrategy","label":"arbitrator","offset":0,"slot":"0","type":"t_contract(IArbitrator)89575"},{"astId":77394,"contract":"pkg/contracts/src/CVStrategy/CVStrategy.sol:CVStrategy","label":"tribunalSafe","offset":0,"slot":"1","type":"t_address"},{"astId":77396,"contract":"pkg/contracts/src/CVStrategy/CVStrategy.sol:CVStrategy","label":"submitterCollateralAmount","offset":0,"slot":"2","type":"t_uint256"},{"astId":77398,"contract":"pkg/contracts/src/CVStrategy/CVStrategy.sol:CVStrategy","label":"challengerCollateralAmount","offset":0,"slot":"3","type":"t_uint256"},{"astId":77400,"contract":"pkg/contracts/src/CVStrategy/CVStrategy.sol:CVStrategy","label":"defaultRuling","offset":0,"slot":"4","type":"t_uint256"},{"astId":77402,"contract":"pkg/contracts/src/CVStrategy/CVStrategy.sol:CVStrategy","label":"defaultRulingTimeout","offset":0,"slot":"5","type":"t_uint256"}]},"t_struct(CVParams)77412_storage":{"encoding":"inplace","label":"struct CVParams","numberOfBytes":"128","members":[{"astId":77405,"contract":"pkg/contracts/src/CVStrategy/CVStrategy.sol:CVStrategy","label":"maxRatio","offset":0,"slot":"0","type":"t_uint256"},{"astId":77407,"contract":"pkg/contracts/src/CVStrategy/CVStrategy.sol:CVStrategy","label":"weight","offset":0,"slot":"1","type":"t_uint256"},{"astId":77409,"contract":"pkg/contracts/src/CVStrategy/CVStrategy.sol:CVStrategy","label":"decay","offset":0,"slot":"2","type":"t_uint256"},{"astId":77411,"contract":"pkg/contracts/src/CVStrategy/CVStrategy.sol:CVStrategy","label":"minThresholdPoints","offset":0,"slot":"3","type":"t_uint256"}]},"t_struct(Metadata)3080_storage":{"encoding":"inplace","label":"struct Metadata","numberOfBytes":"64","members":[{"astId":3076,"contract":"pkg/contracts/src/CVStrategy/CVStrategy.sol:CVStrategy","label":"protocol","offset":0,"slot":"0","type":"t_uint256"},{"astId":3079,"contract":"pkg/contracts/src/CVStrategy/CVStrategy.sol:CVStrategy","label":"pointer","offset":0,"slot":"1","type":"t_string_storage"}]},"t_struct(PointSystemConfig)77389_storage":{"encoding":"inplace","label":"struct PointSystemConfig","numberOfBytes":"32","members":[{"astId":77388,"contract":"pkg/contracts/src/CVStrategy/CVStrategy.sol:CVStrategy","label":"maxAmount","offset":0,"slot":"0","type":"t_uint256"}]},"t_struct(Proposal)77381_storage":{"encoding":"inplace","label":"struct Proposal","numberOfBytes":"576","members":[{"astId":77347,"contract":"pkg/contracts/src/CVStrategy/CVStrategy.sol:CVStrategy","label":"proposalId","offset":0,"slot":"0","type":"t_uint256"},{"astId":77349,"contract":"pkg/contracts/src/CVStrategy/CVStrategy.sol:CVStrategy","label":"requestedAmount","offset":0,"slot":"1","type":"t_uint256"},{"astId":77351,"contract":"pkg/contracts/src/CVStrategy/CVStrategy.sol:CVStrategy","label":"stakedAmount","offset":0,"slot":"2","type":"t_uint256"},{"astId":77353,"contract":"pkg/contracts/src/CVStrategy/CVStrategy.sol:CVStrategy","label":"convictionLast","offset":0,"slot":"3","type":"t_uint256"},{"astId":77355,"contract":"pkg/contracts/src/CVStrategy/CVStrategy.sol:CVStrategy","label":"beneficiary","offset":0,"slot":"4","type":"t_address"},{"astId":77357,"contract":"pkg/contracts/src/CVStrategy/CVStrategy.sol:CVStrategy","label":"submitter","offset":0,"slot":"5","type":"t_address"},{"astId":77359,"contract":"pkg/contracts/src/CVStrategy/CVStrategy.sol:CVStrategy","label":"requestedToken","offset":0,"slot":"6","type":"t_address"},{"astId":77361,"contract":"pkg/contracts/src/CVStrategy/CVStrategy.sol:CVStrategy","label":"blockLast","offset":0,"slot":"7","type":"t_uint256"},{"astId":77364,"contract":"pkg/contracts/src/CVStrategy/CVStrategy.sol:CVStrategy","label":"proposalStatus","offset":0,"slot":"8","type":"t_enum(ProposalStatus)77338"},{"astId":77368,"contract":"pkg/contracts/src/CVStrategy/CVStrategy.sol:CVStrategy","label":"voterStakedPoints","offset":0,"slot":"9","type":"t_mapping(t_address,t_uint256)"},{"astId":77371,"contract":"pkg/contracts/src/CVStrategy/CVStrategy.sol:CVStrategy","label":"metadata","offset":0,"slot":"10","type":"t_struct(Metadata)3080_storage"},{"astId":77374,"contract":"pkg/contracts/src/CVStrategy/CVStrategy.sol:CVStrategy","label":"disputeInfo","offset":0,"slot":"12","type":"t_struct(ProposalDisputeInfo)77345_storage"},{"astId":77376,"contract":"pkg/contracts/src/CVStrategy/CVStrategy.sol:CVStrategy","label":"lastDisputeCompletion","offset":0,"slot":"15","type":"t_uint256"},{"astId":77378,"contract":"pkg/contracts/src/CVStrategy/CVStrategy.sol:CVStrategy","label":"arbitrableConfigVersion","offset":0,"slot":"16","type":"t_uint256"},{"astId":77380,"contract":"pkg/contracts/src/CVStrategy/CVStrategy.sol:CVStrategy","label":"creationTimestamp","offset":0,"slot":"17","type":"t_uint256"}]},"t_struct(ProposalDisputeInfo)77345_storage":{"encoding":"inplace","label":"struct ProposalDisputeInfo","numberOfBytes":"96","members":[{"astId":77340,"contract":"pkg/contracts/src/CVStrategy/CVStrategy.sol:CVStrategy","label":"disputeId","offset":0,"slot":"0","type":"t_uint256"},{"astId":77342,"contract":"pkg/contracts/src/CVStrategy/CVStrategy.sol:CVStrategy","label":"disputeTimestamp","offset":0,"slot":"1","type":"t_uint256"},{"astId":77344,"contract":"pkg/contracts/src/CVStrategy/CVStrategy.sol:CVStrategy","label":"challenger","offset":0,"slot":"2","type":"t_address"}]},"t_uint256":{"encoding":"inplace","label":"uint256","numberOfBytes":"32"},"t_uint64":{"encoding":"inplace","label":"uint64","numberOfBytes":"8"},"t_uint8":{"encoding":"inplace","label":"uint8","numberOfBytes":"1"}}},"id":119}