{"abi":[{"type":"constructor","inputs":[{"name":"_allo","type":"address","internalType":"address"}],"stateMutability":"nonpayable"},{"type":"fallback","stateMutability":"payable"},{"type":"receive","stateMutability":"payable"},{"type":"function","name":"D","inputs":[],"outputs":[{"name":"","type":"uint256","internalType":"uint256"}],"stateMutability":"view"},{"type":"function","name":"MAX_STAKED_PROPOSALS","inputs":[],"outputs":[{"name":"","type":"uint256","internalType":"uint256"}],"stateMutability":"view"},{"type":"function","name":"NATIVE","inputs":[],"outputs":[{"name":"","type":"address","internalType":"address"}],"stateMutability":"view"},{"type":"function","name":"PRECISION_PERCENTAGE","inputs":[],"outputs":[{"name":"","type":"uint256","internalType":"uint256"}],"stateMutability":"view"},{"type":"function","name":"PRECISION_SCALE","inputs":[],"outputs":[{"name":"","type":"uint256","internalType":"uint256"}],"stateMutability":"view"},{"type":"function","name":"activatePoints","inputs":[],"outputs":[],"stateMutability":"nonpayable"},{"type":"function","name":"allocate","inputs":[{"name":"_data","type":"bytes","internalType":"bytes"},{"name":"_sender","type":"address","internalType":"address"}],"outputs":[],"stateMutability":"payable"},{"type":"function","name":"calculateConviction","inputs":[{"name":"_timePassed","type":"uint256","internalType":"uint256"},{"name":"_lastConv","type":"uint256","internalType":"uint256"},{"name":"_oldAmount","type":"uint256","internalType":"uint256"}],"outputs":[{"name":"","type":"uint256","internalType":"uint256"}],"stateMutability":"view"},{"type":"function","name":"calculateThreshold","inputs":[{"name":"_requestedAmount","type":"uint256","internalType":"uint256"}],"outputs":[{"name":"_threshold","type":"uint256","internalType":"uint256"}],"stateMutability":"view"},{"type":"function","name":"deactivatePoints","inputs":[{"name":"_member","type":"address","internalType":"address"}],"outputs":[],"stateMutability":"nonpayable"},{"type":"function","name":"decay","inputs":[],"outputs":[{"name":"","type":"uint256","internalType":"uint256"}],"stateMutability":"view"},{"type":"function","name":"decreasePower","inputs":[{"name":"_member","type":"address","internalType":"address"},{"name":"_amountToUnstake","type":"uint256","internalType":"uint256"}],"outputs":[{"name":"","type":"uint256","internalType":"uint256"}],"stateMutability":"view"},{"type":"function","name":"distribute","inputs":[{"name":"_recipientIds","type":"address[]","internalType":"address[]"},{"name":"_data","type":"bytes","internalType":"bytes"},{"name":"_sender","type":"address","internalType":"address"}],"outputs":[],"stateMutability":"nonpayable"},{"type":"function","name":"getAllo","inputs":[],"outputs":[{"name":"","type":"address","internalType":"contract IAllo"}],"stateMutability":"view"},{"type":"function","name":"getMaxConviction","inputs":[{"name":"amount","type":"uint256","internalType":"uint256"}],"outputs":[{"name":"","type":"uint256","internalType":"uint256"}],"stateMutability":"view"},{"type":"function","name":"getMetadata","inputs":[{"name":"_proposalId","type":"uint256","internalType":"uint256"}],"outputs":[{"name":"","type":"tuple","internalType":"struct Metadata","components":[{"name":"protocol","type":"uint256","internalType":"uint256"},{"name":"pointer","type":"string","internalType":"string"}]}],"stateMutability":"view"},{"type":"function","name":"getPayouts","inputs":[{"name":"","type":"address[]","internalType":"address[]"},{"name":"","type":"bytes[]","internalType":"bytes[]"}],"outputs":[{"name":"","type":"tuple[]","internalType":"struct IStrategy.PayoutSummary[]","components":[{"name":"recipientAddress","type":"address","internalType":"address"},{"name":"amount","type":"uint256","internalType":"uint256"}]}],"stateMutability":"view"},{"type":"function","name":"getPointsPerMember","inputs":[],"outputs":[{"name":"","type":"uint256","internalType":"uint256"}],"stateMutability":"view"},{"type":"function","name":"getPoolAmount","inputs":[],"outputs":[{"name":"","type":"uint256","internalType":"uint256"}],"stateMutability":"view"},{"type":"function","name":"getPoolId","inputs":[],"outputs":[{"name":"","type":"uint256","internalType":"uint256"}],"stateMutability":"view"},{"type":"function","name":"getProposal","inputs":[{"name":"_proposalId","type":"uint256","internalType":"uint256"}],"outputs":[{"name":"submitter","type":"address","internalType":"address"},{"name":"beneficiary","type":"address","internalType":"address"},{"name":"requestedToken","type":"address","internalType":"address"},{"name":"requestedAmount","type":"uint256","internalType":"uint256"},{"name":"stakedTokens","type":"uint256","internalType":"uint256"},{"name":"proposalStatus","type":"uint8","internalType":"enum CVStrategy.ProposalStatus"},{"name":"blockLast","type":"uint256","internalType":"uint256"},{"name":"convictionLast","type":"uint256","internalType":"uint256"},{"name":"threshold","type":"uint256","internalType":"uint256"},{"name":"voterStakedPointsPct","type":"uint256","internalType":"uint256"}],"stateMutability":"view"},{"type":"function","name":"getProposalBeneficiary","inputs":[{"name":"_proposalId","type":"uint256","internalType":"uint256"}],"outputs":[{"name":"","type":"address","internalType":"address"}],"stateMutability":"view"},{"type":"function","name":"getProposalBlockLast","inputs":[{"name":"_proposalId","type":"uint256","internalType":"uint256"}],"outputs":[{"name":"","type":"uint256","internalType":"uint256"}],"stateMutability":"view"},{"type":"function","name":"getProposalConvictionLast","inputs":[{"name":"_proposalId","type":"uint256","internalType":"uint256"}],"outputs":[{"name":"","type":"uint256","internalType":"uint256"}],"stateMutability":"view"},{"type":"function","name":"getProposalRequestedAmount","inputs":[{"name":"_proposalId","type":"uint256","internalType":"uint256"}],"outputs":[{"name":"","type":"uint256","internalType":"uint256"}],"stateMutability":"view"},{"type":"function","name":"getProposalRequestedToken","inputs":[{"name":"_proposalId","type":"uint256","internalType":"uint256"}],"outputs":[{"name":"","type":"address","internalType":"address"}],"stateMutability":"view"},{"type":"function","name":"getProposalStakedAmount","inputs":[{"name":"_proposalId","type":"uint256","internalType":"uint256"}],"outputs":[{"name":"","type":"uint256","internalType":"uint256"}],"stateMutability":"view"},{"type":"function","name":"getProposalStatus","inputs":[{"name":"_proposalId","type":"uint256","internalType":"uint256"}],"outputs":[{"name":"","type":"uint8","internalType":"enum CVStrategy.ProposalStatus"}],"stateMutability":"view"},{"type":"function","name":"getProposalSubmitter","inputs":[{"name":"_proposalId","type":"uint256","internalType":"uint256"}],"outputs":[{"name":"","type":"address","internalType":"address"}],"stateMutability":"view"},{"type":"function","name":"getProposalThreshold","inputs":[{"name":"_proposalId","type":"uint256","internalType":"uint256"}],"outputs":[{"name":"","type":"uint256","internalType":"uint256"}],"stateMutability":"view"},{"type":"function","name":"getProposalVoterStake","inputs":[{"name":"_proposalId","type":"uint256","internalType":"uint256"},{"name":"_voter","type":"address","internalType":"address"}],"outputs":[{"name":"","type":"uint256","internalType":"uint256"}],"stateMutability":"view"},{"type":"function","name":"getProposalVoterStakedAmount","inputs":[{"name":"_proposalId","type":"uint256","internalType":"uint256"},{"name":"_voter","type":"address","internalType":"address"}],"outputs":[{"name":"","type":"uint256","internalType":"uint256"}],"stateMutability":"view"},{"type":"function","name":"getProposalVoterStakedPointsPct","inputs":[{"name":"_proposalId","type":"uint256","internalType":"uint256"},{"name":"_voter","type":"address","internalType":"address"}],"outputs":[{"name":"","type":"uint256","internalType":"uint256"}],"stateMutability":"view"},{"type":"function","name":"getRecipientStatus","inputs":[{"name":"_recipientId","type":"address","internalType":"address"}],"outputs":[{"name":"","type":"uint8","internalType":"enum IStrategy.Status"}],"stateMutability":"view"},{"type":"function","name":"getStrategyId","inputs":[],"outputs":[{"name":"","type":"bytes32","internalType":"bytes32"}],"stateMutability":"view"},{"type":"function","name":"getTotalVoterStakePct","inputs":[{"name":"_voter","type":"address","internalType":"address"}],"outputs":[{"name":"","type":"uint256","internalType":"uint256"}],"stateMutability":"view"},{"type":"function","name":"increasePoolAmount","inputs":[{"name":"_amount","type":"uint256","internalType":"uint256"}],"outputs":[],"stateMutability":"nonpayable"},{"type":"function","name":"increasePower","inputs":[{"name":"_member","type":"address","internalType":"address"},{"name":"_amountToStake","type":"uint256","internalType":"uint256"}],"outputs":[{"name":"","type":"uint256","internalType":"uint256"}],"stateMutability":"view"},{"type":"function","name":"initialize","inputs":[{"name":"_poolId","type":"uint256","internalType":"uint256"},{"name":"_data","type":"bytes","internalType":"bytes"}],"outputs":[],"stateMutability":"nonpayable"},{"type":"function","name":"isPoolActive","inputs":[],"outputs":[{"name":"","type":"bool","internalType":"bool"}],"stateMutability":"view"},{"type":"function","name":"isValidAllocator","inputs":[{"name":"_allocator","type":"address","internalType":"address"}],"outputs":[{"name":"","type":"bool","internalType":"bool"}],"stateMutability":"view"},{"type":"function","name":"maxRatio","inputs":[],"outputs":[{"name":"","type":"uint256","internalType":"uint256"}],"stateMutability":"view"},{"type":"function","name":"minPointsActivated","inputs":[],"outputs":[{"name":"","type":"uint256","internalType":"uint256"}],"stateMutability":"view"},{"type":"function","name":"pointConfig","inputs":[],"outputs":[{"name":"pointsPerTokenStaked","type":"uint256","internalType":"uint256"},{"name":"maxAmount","type":"uint256","internalType":"uint256"},{"name":"pointsPerMember","type":"uint256","internalType":"uint256"},{"name":"tokensPerPoint","type":"uint256","internalType":"uint256"}],"stateMutability":"view"},{"type":"function","name":"pointSystem","inputs":[],"outputs":[{"name":"","type":"uint8","internalType":"enum CVStrategy.PointSystem"}],"stateMutability":"view"},{"type":"function","name":"proposalCounter","inputs":[],"outputs":[{"name":"","type":"uint256","internalType":"uint256"}],"stateMutability":"view"},{"type":"function","name":"proposalType","inputs":[],"outputs":[{"name":"","type":"uint8","internalType":"enum CVStrategy.ProposalType"}],"stateMutability":"view"},{"type":"function","name":"proposals","inputs":[{"name":"","type":"uint256","internalType":"uint256"}],"outputs":[{"name":"proposalId","type":"uint256","internalType":"uint256"},{"name":"requestedAmount","type":"uint256","internalType":"uint256"},{"name":"stakedAmount","type":"uint256","internalType":"uint256"},{"name":"convictionLast","type":"uint256","internalType":"uint256"},{"name":"beneficiary","type":"address","internalType":"address"},{"name":"submitter","type":"address","internalType":"address"},{"name":"requestedToken","type":"address","internalType":"address"},{"name":"blockLast","type":"uint256","internalType":"uint256"},{"name":"proposalStatus","type":"uint8","internalType":"enum CVStrategy.ProposalStatus"},{"name":"metadata","type":"tuple","internalType":"struct Metadata","components":[{"name":"protocol","type":"uint256","internalType":"uint256"},{"name":"pointer","type":"string","internalType":"string"}]}],"stateMutability":"view"},{"type":"function","name":"registerRecipient","inputs":[{"name":"_data","type":"bytes","internalType":"bytes"},{"name":"_sender","type":"address","internalType":"address"}],"outputs":[{"name":"recipientId","type":"address","internalType":"address"}],"stateMutability":"payable"},{"type":"function","name":"registryCommunity","inputs":[],"outputs":[{"name":"","type":"address","internalType":"contract RegistryCommunity"}],"stateMutability":"view"},{"type":"function","name":"setDecay","inputs":[{"name":"_decay","type":"uint256","internalType":"uint256"}],"outputs":[],"stateMutability":"nonpayable"},{"type":"function","name":"setMaxRatio","inputs":[{"name":"_maxRatio","type":"uint256","internalType":"uint256"}],"outputs":[],"stateMutability":"nonpayable"},{"type":"function","name":"setPoolActive","inputs":[{"name":"_active","type":"bool","internalType":"bool"}],"outputs":[],"stateMutability":"nonpayable"},{"type":"function","name":"setRegistryCommunity","inputs":[{"name":"_registryCommunity","type":"address","internalType":"address"}],"outputs":[],"stateMutability":"nonpayable"},{"type":"function","name":"setWeight","inputs":[{"name":"_weight","type":"uint256","internalType":"uint256"}],"outputs":[],"stateMutability":"nonpayable"},{"type":"function","name":"supportProposal","inputs":[{"name":"","type":"tuple[]","internalType":"struct CVStrategy.ProposalSupport[]","components":[{"name":"proposalId","type":"uint256","internalType":"uint256"},{"name":"deltaSupport","type":"int256","internalType":"int256"}]}],"outputs":[],"stateMutability":"nonpayable"},{"type":"function","name":"supportsInterface","inputs":[{"name":"interfaceId","type":"bytes4","internalType":"bytes4"}],"outputs":[{"name":"","type":"bool","internalType":"bool"}],"stateMutability":"view"},{"type":"function","name":"totalEffectiveActivePoints","inputs":[],"outputs":[{"name":"","type":"uint256","internalType":"uint256"}],"stateMutability":"view"},{"type":"function","name":"totalPointsActivated","inputs":[],"outputs":[{"name":"","type":"uint256","internalType":"uint256"}],"stateMutability":"view"},{"type":"function","name":"totalStaked","inputs":[],"outputs":[{"name":"","type":"uint256","internalType":"uint256"}],"stateMutability":"view"},{"type":"function","name":"totalVoterStakePct","inputs":[{"name":"","type":"address","internalType":"address"}],"outputs":[{"name":"","type":"uint256","internalType":"uint256"}],"stateMutability":"view"},{"type":"function","name":"updateProposalConviction","inputs":[{"name":"proposalId","type":"uint256","internalType":"uint256"}],"outputs":[{"name":"","type":"uint256","internalType":"uint256"}],"stateMutability":"nonpayable"},{"type":"function","name":"voterStakedProposals","inputs":[{"name":"","type":"address","internalType":"address"},{"name":"","type":"uint256","internalType":"uint256"}],"outputs":[{"name":"","type":"uint256","internalType":"uint256"}],"stateMutability":"view"},{"type":"function","name":"weight","inputs":[],"outputs":[{"name":"","type":"uint256","internalType":"uint256"}],"stateMutability":"view"},{"type":"function","name":"withdraw","inputs":[{"name":"_member","type":"address","internalType":"address"}],"outputs":[],"stateMutability":"nonpayable"},{"type":"event","name":"Allocated","inputs":[{"name":"recipientId","type":"address","indexed":true,"internalType":"address"},{"name":"amount","type":"uint256","indexed":false,"internalType":"uint256"},{"name":"token","type":"address","indexed":false,"internalType":"address"},{"name":"sender","type":"address","indexed":false,"internalType":"address"}],"anonymous":false},{"type":"event","name":"Distributed","inputs":[{"name":"proposalId","type":"uint256","indexed":false,"internalType":"uint256"},{"name":"beneficiary","type":"address","indexed":false,"internalType":"address"},{"name":"amount","type":"uint256","indexed":false,"internalType":"uint256"}],"anonymous":false},{"type":"event","name":"Distributed","inputs":[{"name":"recipientId","type":"address","indexed":true,"internalType":"address"},{"name":"recipientAddress","type":"address","indexed":false,"internalType":"address"},{"name":"amount","type":"uint256","indexed":false,"internalType":"uint256"},{"name":"sender","type":"address","indexed":false,"internalType":"address"}],"anonymous":false},{"type":"event","name":"Initialized","inputs":[{"name":"poolId","type":"uint256","indexed":false,"internalType":"uint256"},{"name":"data","type":"bytes","indexed":false,"internalType":"bytes"}],"anonymous":false},{"type":"event","name":"InitializedCV","inputs":[{"name":"poolId","type":"uint256","indexed":false,"internalType":"uint256"},{"name":"data","type":"tuple","indexed":false,"internalType":"struct CVStrategy.InitializeParams","components":[{"name":"registryCommunity","type":"address","internalType":"address"},{"name":"decay","type":"uint256","internalType":"uint256"},{"name":"maxRatio","type":"uint256","internalType":"uint256"},{"name":"weight","type":"uint256","internalType":"uint256"},{"name":"proposalType","type":"uint8","internalType":"enum CVStrategy.ProposalType"},{"name":"pointSystem","type":"uint8","internalType":"enum CVStrategy.PointSystem"},{"name":"pointConfig","type":"tuple","internalType":"struct CVStrategy.PointSystemConfig","components":[{"name":"pointsPerTokenStaked","type":"uint256","internalType":"uint256"},{"name":"maxAmount","type":"uint256","internalType":"uint256"},{"name":"pointsPerMember","type":"uint256","internalType":"uint256"},{"name":"tokensPerPoint","type":"uint256","internalType":"uint256"}]}]}],"anonymous":false},{"type":"event","name":"PoolActive","inputs":[{"name":"active","type":"bool","indexed":false,"internalType":"bool"}],"anonymous":false},{"type":"event","name":"PoolAmountIncreased","inputs":[{"name":"amount","type":"uint256","indexed":false,"internalType":"uint256"}],"anonymous":false},{"type":"event","name":"ProposalCreated","inputs":[{"name":"poolId","type":"uint256","indexed":false,"internalType":"uint256"},{"name":"proposalId","type":"uint256","indexed":false,"internalType":"uint256"}],"anonymous":false},{"type":"event","name":"Registered","inputs":[{"name":"recipientId","type":"address","indexed":true,"internalType":"address"},{"name":"data","type":"bytes","indexed":false,"internalType":"bytes"},{"name":"sender","type":"address","indexed":false,"internalType":"address"}],"anonymous":false},{"type":"error","name":"ALLOCATION_ACTIVE","inputs":[]},{"type":"error","name":"ALLOCATION_NOT_ACTIVE","inputs":[]},{"type":"error","name":"ALLOCATION_NOT_ENDED","inputs":[]},{"type":"error","name":"ALREADY_INITIALIZED","inputs":[]},{"type":"error","name":"AMOUNT_MISMATCH","inputs":[]},{"type":"error","name":"ANCHOR_ERROR","inputs":[]},{"type":"error","name":"ARRAY_MISMATCH","inputs":[]},{"type":"error","name":"AddressCannotBeZero","inputs":[]},{"type":"error","name":"AmountOverMaxRatio","inputs":[]},{"type":"error","name":"CantIncreaseFixedSystem","inputs":[]},{"type":"error","name":"INVALID","inputs":[]},{"type":"error","name":"INVALID_ADDRESS","inputs":[]},{"type":"error","name":"INVALID_FEE","inputs":[]},{"type":"error","name":"INVALID_METADATA","inputs":[]},{"type":"error","name":"INVALID_REGISTRATION","inputs":[]},{"type":"error","name":"IS_APPROVED_STRATEGY","inputs":[]},{"type":"error","name":"MISMATCH","inputs":[]},{"type":"error","name":"MaxPointsReached","inputs":[]},{"type":"error","name":"NONCE_NOT_AVAILABLE","inputs":[]},{"type":"error","name":"NOT_APPROVED_STRATEGY","inputs":[]},{"type":"error","name":"NOT_ENOUGH_FUNDS","inputs":[]},{"type":"error","name":"NOT_IMPLEMENTED","inputs":[]},{"type":"error","name":"NOT_INITIALIZED","inputs":[]},{"type":"error","name":"NOT_PENDING_OWNER","inputs":[]},{"type":"error","name":"NotEnoughPointsToSupport","inputs":[{"name":"pointsSupport","type":"uint256","internalType":"uint256"},{"name":"pointsBalance","type":"uint256","internalType":"uint256"}]},{"type":"error","name":"NotImplemented","inputs":[]},{"type":"error","name":"POOL_ACTIVE","inputs":[]},{"type":"error","name":"POOL_INACTIVE","inputs":[]},{"type":"error","name":"PoolIdCannotBeZero","inputs":[]},{"type":"error","name":"PoolIsEmpty","inputs":[]},{"type":"error","name":"ProposalDataIsEmpty","inputs":[]},{"type":"error","name":"ProposalIdCannotBeZero","inputs":[]},{"type":"error","name":"ProposalNotActive","inputs":[{"name":"_proposalId","type":"uint256","internalType":"uint256"}]},{"type":"error","name":"ProposalNotInList","inputs":[{"name":"_proposalId","type":"uint256","internalType":"uint256"}]},{"type":"error","name":"ProposalSupportDuplicated","inputs":[{"name":"_proposalId","type":"uint256","internalType":"uint256"},{"name":"index","type":"uint256","internalType":"uint256"}]},{"type":"error","name":"RECIPIENT_ALREADY_ACCEPTED","inputs":[]},{"type":"error","name":"RECIPIENT_ERROR","inputs":[{"name":"recipientId","type":"address","internalType":"address"}]},{"type":"error","name":"RECIPIENT_NOT_ACCEPTED","inputs":[]},{"type":"error","name":"REGISTRATION_NOT_ACTIVE","inputs":[]},{"type":"error","name":"RegistryCannotBeZero","inputs":[]},{"type":"error","name":"SupportUnderflow","inputs":[{"name":"_support","type":"uint256","internalType":"uint256"},{"name":"_delta","type":"int256","internalType":"int256"},{"name":"_result","type":"int256","internalType":"int256"}]},{"type":"error","name":"TokenCannotBeZero","inputs":[]},{"type":"error","name":"TokenNotAllowed","inputs":[]},{"type":"error","name":"UNAUTHORIZED","inputs":[]},{"type":"error","name":"UserCannotBeZero","inputs":[]},{"type":"error","name":"UserIsInactive","inputs":[]},{"type":"error","name":"UserNotInRegistry","inputs":[]},{"type":"error","name":"ZERO_ADDRESS","inputs":[]}],"bytecode":{"object":"0x60c06040526000600c55620000196127106103e8620000b4565b600f553480156200002957600080fd5b50604051620043d6380380620043d68339810160408190526200004c91620000e0565b604080518082018252600a8152694356537472617465677960b01b6020808301919091526001600160a01b038416608052915183926200008f9183910162000112565b60408051601f19818403018152919052805160209091012060a0525062000162915050565b8082028115828204841417620000da57634e487b7160e01b600052601160045260246000fd5b92915050565b600060208284031215620000f357600080fd5b81516001600160a01b03811681146200010b57600080fd5b9392505050565b600060208083528351808285015260005b81811015620001415785810183015185820160400152820162000123565b506000604082860101526040601f19601f8301168501019250505092915050565b60805160a0516142396200019d600039600061070701526000818161058001528181611c2c01528181611cbf0152611e9f01526142396000f3fe6080604052600436106103e25760003560e01c80637c97eede1161020d578063cbfc1daa11610128578063eb11af93116100bb578063f8b18c4b1161008a578063fc1711f21161006f578063fc1711f214610d29578063fcdf3be114610d49578063fe87876414610d79576103fd565b8063f8b18c4b14610cb2578063f96e3b4c14610ce2576103fd565b8063eb11af9314610c32578063edd146cc14610c5f578063ef2920fc14610c7f578063f5b0dfb714610c92576103fd565b8063dc96ff2d116100f7578063dc96ff2d14610baa578063df868ed314610bda578063e0dd2c3814610bf2578063e33add9314610c12576103fd565b8063cbfc1daa14610b4a578063d1045aa914610b5f578063d1e3623214610b7f578063d7050f0714610b94576103fd565b8063a47ff7e5116101a0578063b2b878d01161016f578063b2b878d014610a91578063b5f620ce14610abe578063bcc5b93b14610ade578063c7f758a814610b14576103fd565b8063a47ff7e5146109d2578063a574cea414610a15578063a656985d14610a42578063aba9ffee14610a7b576103fd565b8063950559d7116101dc578063950559d71461093b5780639a1df7451461095b578063a0cf0aea14610994578063a1aab33f146109bc576103fd565b80637c97eede146108c0578063814516ad146108f0578063817b1cd214610905578063868c57b81461091b576103fd565b806338fff2d0116102fd57806354fac919116102905780636453d9c41161025f5780636453d9c41461084a57806369fa25c41461086a57806376365af71461088a578063782aadff146108a0576103fd565b806354fac919146107c757806359a5db8b146107dd5780635db64b99146107fd5780636003e4141461082a576103fd565b80634ab4ba42116102cc5780634ab4ba421461072b5780634d31d087146107405780635037fed61461076057806351cff8d9146107a7576103fd565b806338fff2d01461068e578063401853b7146106a3578063406244d8146106e357806342fda9c7146106f8576103fd565b806315cc481e116103755780632ed04b2b116103445780632ed04b2b146106125780633442364114610632578063346db8cb14610647578063351d9f9614610667576103fd565b806315cc481e146105715780631aa91a9e146105b85780632bbe0cae146105d85780632dbd6fdd146105eb576103fd565b80630a6f0ee9116103b15780630a6f0ee9146105045780630c0512e9146105245780630f529ba21461053a57806311f22ae314610551576103fd565b8063013cf08b1461040d57806301ffc9a71461044c578063058aca44146104be57806305d19175146104e0576103fd565b366103fd57600380549060006103f78361331f565b91905055005b600380549060006103f78361331f565b34801561041957600080fd5b5061042d610428366004613338565b610db3565b6040516104439a999897969594939291906133ea565b60405180910390f35b34801561045857600080fd5b506104ae61046736600461345d565b7fffffffff00000000000000000000000000000000000000000000000000000000167f01ffc9a7000000000000000000000000000000000000000000000000000000001490565b6040519015158152602001610443565b3480156104ca57600080fd5b506104de6104d93660046134b4565b610ebe565b005b3480156104ec57600080fd5b506104f6600f5481565b604051908152602001610443565b34801561051057600080fd5b506104de61051f3660046136bb565b610ef8565b34801561053057600080fd5b506104f6600c5481565b34801561054657600080fd5b506104f66298968081565b34801561055d57600080fd5b506104de61056c366004613338565b610f18565b34801561057d57600080fd5b507f00000000000000000000000000000000000000000000000000000000000000005b6040516001600160a01b039091168152602001610443565b3480156105c457600080fd5b506104f66105d3366004613338565b610f28565b6105a06105e6366004613733565b610fb3565b3480156105f757600080fd5b506010546106059060ff1681565b6040516104439190613795565b34801561061e57600080fd5b506104f661062d3660046137a3565b610fd8565b34801561063e57600080fd5b506104f661102d565b34801561065357600080fd5b506104f66106623660046137cf565b61103d565b34801561067357600080fd5b50600b546106819060ff1681565b604051610443919061380b565b34801561069a57600080fd5b506001546104f6565b3480156106af57600080fd5b506106d66106be366004613338565b60009081526005602052604090206008015460ff1690565b6040516104439190613819565b3480156106ef57600080fd5b506104f6600a81565b34801561070457600080fd5b507f00000000000000000000000000000000000000000000000000000000000000006104f6565b34801561073757600080fd5b506002546104f6565b34801561074c57600080fd5b506104ae61075b3660046134b4565b6110e2565b34801561076c57600080fd5b506104f661077b366004613827565b60008281526005602090815260408083206001600160a01b038516845260090190915290205492915050565b3480156107b357600080fd5b506104de6107c23660046134b4565b6110ed565b3480156107d357600080fd5b506104f660085481565b3480156107e957600080fd5b506104f66107f8366004613338565b611227565b34801561080957600080fd5b506104f66108183660046134b4565b60066020526000908152604090205481565b34801561083657600080fd5b506004546105a0906001600160a01b031681565b34801561085657600080fd5b506104de6108653660046134b4565b6113c3565b34801561087657600080fd5b506104de610885366004613338565b611544565b34801561089657600080fd5b506104f660095481565b3480156108ac57600080fd5b506104f66108bb3660046137a3565b611554565b3480156108cc57600080fd5b506104f66108db366004613338565b60009081526005602052604090206001015490565b3480156108fc57600080fd5b506104de6115ad565b34801561091157600080fd5b506104f6600d5481565b34801561092757600080fd5b506104f66109363660046137a3565b6116ba565b34801561094757600080fd5b506104f6610956366004613338565b6116eb565b34801561096757600080fd5b506105a0610976366004613338565b6000908152600560205260409020600601546001600160a01b031690565b3480156109a057600080fd5b506105a073eeeeeeeeeeeeeeeeeeeeeeeeeeeeeeeeeeeeeeee81565b3480156109c857600080fd5b506104f6600a5481565b3480156109de57600080fd5b506011546012546013546014546109f59392919084565b604080519485526020850193909352918301526060820152608001610443565b348015610a2157600080fd5b50610a35610a30366004613338565b611715565b604051610443919061384c565b348015610a4e57600080fd5b506105a0610a5d366004613338565b6000908152600560205260409020600401546001600160a01b031690565b348015610a8757600080fd5b506104f6600e5481565b348015610a9d57600080fd5b50610ab1610aac36600461385f565b6117f4565b6040516104439190613934565b348015610aca57600080fd5b506104de610ad936600461399a565b61180f565b348015610aea57600080fd5b506104f6610af93660046134b4565b6001600160a01b031660009081526006602052604090205490565b348015610b2057600080fd5b50610b34610b2f366004613338565b61181b565b6040516104439a999897969594939291906139b7565b348015610b5657600080fd5b506013546104f6565b348015610b6b57600080fd5b506104f6610b7a366004613338565b61191d565b348015610b8b57600080fd5b506104f6611951565b348015610ba057600080fd5b506104f661271081565b348015610bb657600080fd5b506104f6610bc5366004613338565b60009081526005602052604090206002015490565b348015610be657600080fd5b5060005460ff166104ae565b348015610bfe57600080fd5b506104f6610c0d366004613827565b6119f0565b348015610c1e57600080fd5b506104de610c2d366004613a1c565b611a1b565b348015610c3e57600080fd5b50610c52610c4d3660046134b4565b611a49565b6040516104439190613ad2565b348015610c6b57600080fd5b506104de610c7a366004613aec565b611a54565b6104de610c8d366004613733565b611b92565b348015610c9e57600080fd5b506104de610cad366004613338565b611bb0565b348015610cbe57600080fd5b506104f6610ccd366004613338565b60009081526005602052604090206007015490565b348015610cee57600080fd5b506104f6610cfd366004613827565b60008281526005602090815260408083206001600160a01b0385168452600a0190915290205492915050565b348015610d3557600080fd5b506104de610d44366004613338565b611bd9565b348015610d5557600080fd5b506104f6610d64366004613338565b60009081526005602052604090206003015490565b348015610d8557600080fd5b506105a0610d94366004613338565b600090815260056020819052604090912001546001600160a01b031690565b60056020818152600092835260409283902080546001820154600283015460038401546004850154968501546006860154600787015460088801548b51808d01909c52600b890180548d52600c8a018054999d989c979b969a6001600160a01b039889169a968916999890951697939660ff909316959192840191610e3790613b33565b80601f0160208091040260200160405190810160405280929190818152602001828054610e6390613b33565b8015610eb05780601f10610e8557610100808354040283529160200191610eb0565b820191906000526020600020905b815481529060010190602001808311610e9357829003601f168201915b50505050508152505090508a565b33610ec881611be9565b506004805473ffffffffffffffffffffffffffffffffffffffff19166001600160a01b0392909216919091179055565b610f00611cb4565b610f08611cff565b610f13838383611d3b565b505050565b33610f2281611be9565b50600955565b600081815260056020526040812080548314610f5f5760405163c1d17bef60e01b8152600481018490526024015b60405180910390fd5b6001600882015460ff166004811115610f7a57610f7a613351565b14610f9b576040516344980d8f60e01b815260048101849052602401610f56565b610fa9818260020154611f9b565b6003015492915050565b6000610fbd611cb4565b610fc5611cff565b610fcf8383611ff6565b90505b92915050565b600080600260105460ff166003811115610ff457610ff4613351565b14806110165750600160105460ff16600381111561101457611014613351565b145b15610fcf5761102584846123d2565b949350505050565b61103a6127106064613b6d565b81565b6000808490506000611063629896806080600854901b61105d9190613b84565b836123e2565b905060806f80000000000000000000000000000000600854629896806110899190613ba6565b61109784600160801b613ba6565b6110a46298968089613b6d565b6110ae9190613b6d565b6110b89190613b84565b6110c28885613b6d565b6110cc9190613bb9565b6110d69190613bb9565b901c9695505050505050565b6000610fd28261248b565b6001600160a01b03811660009081526007602090815260408083208054825181850281018501909352808352919290919083018282801561114d57602002820191906000526020600020905b815481526020019060010190808311611139575b5050505050905060005b8151811015610f1357600082828151811061117457611174613bcc565b60200260200101519050600060056000838152602001908152602001600020905061119e826124ab565b15611212576001600160a01b0385166000908152600a820160209081526040808320805490849055600985019092528220829055600283018054919283926111e7908490613ba6565b9250508190555080600d60008282546112009190613ba6565b9091555061121090508282611f9b565b505b5050808061121f9061331f565b915050611157565b60008060025411611264576040517fed4421ad00000000000000000000000000000000000000000000000000000000815260040160405180910390fd5b6002546112746298968084613b6d565b816009546112829190613b6d565b116112b9576040517f3bf5ca1400000000000000000000000000000000000000000000000000000000815260040160405180910390fd5b6000816112cf8568010000000000000000613b6d565b6112d99190613b84565b62989680600954680100000000000000006112f49190613b6d565b6112fe9190613b84565b6113089190613ba6565b90506113506040518060400160405280601a81526020017f746f74616c456666656374697665416374697665506f696e747300000000000081525061134b611951565b6124e5565b604061135a611951565b60085461136a9062989680613ba6565b62989680604061137a8680613b6d565b901c629896806080600a54901b6113919190613b84565b61139b9190613b84565b6113a59190613b6d565b6113af9190613b84565b6113b99190613b6d565b901c949350505050565b60048054604051637817ee4f60e01b81526001600160a01b0384811693820193909352306024820152911690637817ee4f90604401602060405180830381865afa158015611415573d6000803e3d6000fd5b505050506040513d601f19601f820116820180604052508101906114399190613be2565b600e600082825461144a9190613ba6565b9091555050600480546040517f22bcf9990000000000000000000000000000000000000000000000000000000081526001600160a01b03848116938201939093523060248201529116906322bcf99990604401600060405180830381600087803b1580156114b757600080fd5b505af11580156114cb573d6000803e3d6000fd5b50506040517f51cff8d90000000000000000000000000000000000000000000000000000000081526001600160a01b03841660048201523092506351cff8d99150602401600060405180830381600087803b15801561152957600080fd5b505af115801561153d573d6000803e3d6000fd5b5050505050565b3361154e81611be9565b50600855565b600080600260105460ff16600381111561157057611570613351565b036115855761157e83612543565b9050610fcf565b600160105460ff16600381111561159e5761159e613351565b03610fcf576110258484612569565b600480546040517f0d4a8b49000000000000000000000000000000000000000000000000000000008152339281018390523060248201526001600160a01b0390911690630d4a8b4990604401600060405180830381600087803b15801561161357600080fd5b505af1158015611627573d6000803e3d6000fd5b505060048054604051637817ee4f60e01b81526001600160a01b038681169382019390935230602482015291169250637817ee4f9150604401602060405180830381865afa15801561167d573d6000803e3d6000fd5b505050506040513d601f19601f820116820180604052508101906116a19190613be2565b600e60008282546116b29190613bb9565b909155505050565b600760205281600052604060002081815481106116d657600080fd5b90600052602060002001600091509150505481565b6000600854629896806116fe9190613ba6565b61170b6298968084613b6d565b610fd29190613b84565b604080518082019091526000815260606020820152600060056000848152602001908152602001600020905080600b016040518060400160405290816000820154815260200160018201805461176a90613b33565b80601f016020809104026020016040519081016040528092919081815260200182805461179690613b33565b80156117e35780601f106117b8576101008083540402835291602001916117e3565b820191906000526020600020905b8154815290600101906020018083116117c657829003601f168201915b505050505081525050915050919050565b606060405163d623472560e01b815260040160405180910390fd5b611818816126a5565b50565b6000806000806000806000806000806000600560008d81526020019081526020016000209050806001015460001461185f5761185a8160010154611227565b611862565b60005b92508060050160009054906101000a90046001600160a01b03168160040160009054906101000a90046001600160a01b03168260060160009054906101000a90046001600160a01b0316836001015484600201548560080160009054906101000a900460ff16866007015487600301548a896009016000336001600160a01b03166001600160a01b03168152602001908152602001600020549a509a509a509a509a509a509a509a509a509a50509193959799509193959799565b6000818152600560205260408120600181015415611947576119428160010154611227565b61194a565b60005b9392505050565b60006119946040518060400160405280601481526020017f746f74616c506f696e7473416374697661746564000000000000000000000000815250600e546124e5565b6119d56040518060400160405280601281526020017f6d696e506f696e74734163746976617465640000000000000000000000000000815250600f546124e5565b600f54600e54116119e75750600f5490565b600e545b905090565b60008281526005602090815260408083206001600160a01b0385168452600a01909152812054610fcf565b60038054906000611a2b8361331f565b919050555060405163d623472560e01b815260040160405180910390fd5b6000610fd2826126ed565b611a5d8261270d565b600081806020019051810190611a739190613c75565b60c08101518151919250906001600160a01b0316611aa457604051635df4b1ef60e01b815260040160405180910390fd5b81516004805473ffffffffffffffffffffffffffffffffffffffff19166001600160a01b03909216919091179055602082015160085560408201516009556060820151600a556080820151600b805460ff19166001836002811115611b0b57611b0b613351565b021790555060a08201516010805460ff19166001836003811115611b3157611b31613351565b0217905550805160115560208101516012556040808201516013556060820151601455517f76164f4c577324c2cac6dbb73d6b99b5c05b6894d54aa69bd565b68f9e13bdcf90611b849086908590613cfe565b60405180910390a150505050565b611b9a611cb4565b611ba2611cff565b611bac828261278e565b5050565b611bb8611cb4565b8060026000828254611bca9190613bb9565b909155506118189050816129c4565b33611be381611be9565b50600a55565b6001546040517f29e40d4b00000000000000000000000000000000000000000000000000000000815260048101919091526001600160a01b0382811660248301527f000000000000000000000000000000000000000000000000000000000000000016906329e40d4b90604401602060405180830381865afa158015611c73573d6000803e3d6000fd5b505050506040513d601f19601f82011682018060405250810190611c979190613d92565b6118185760405163075fd2b160e01b815260040160405180910390fd5b336001600160a01b037f00000000000000000000000000000000000000000000000000000000000000001614611cfd5760405163075fd2b160e01b815260040160405180910390fd5b565b600154600003611cfd576040517f3da3f98c00000000000000000000000000000000000000000000000000000000815260040160405180910390fd5b60038054906000611d4b8361331f565b91905055506000825111611d8b576040517fc5f7c4c000000000000000000000000000000000000000000000000000000000815260040160405180910390fd5b600082806020019051810190611da19190613be2565b905080600003611ddd576040517ff881a10d00000000000000000000000000000000000000000000000000000000815260040160405180910390fd5b60008181526005602052604090206001600b5460ff166002811115611e0457611e04613351565b0361153d5780548214611e2d5760405163c1d17bef60e01b815260048101839052602401610f56565b6001600882015460ff166004811115611e4857611e48613351565b14611e69576040516344980d8f60e01b815260048101839052602401610f56565b6001546040517f068bcd8d0000000000000000000000000000000000000000000000000000000081526000916001600160a01b037f0000000000000000000000000000000000000000000000000000000000000000169163068bcd8d91611ed69160040190815260200190565b600060405180830381865afa158015611ef3573d6000803e3d6000fd5b505050506040513d6000823e601f3d908101601f19168201604052611f1b9190810190613e3c565b604081015160048401546001850154929350611f42926001600160a01b03909116906129f4565b60048201546001830154604080518681526001600160a01b0390931660208401528201527fa7932e9c92f31e1ed56b29d00bbe669a97484dc24de28dd9c8c0429df7f358479060600160405180910390a1505050505050565b60078201544390811015611fb157611fb1613ef0565b80836007015403611fc157505050565b6000611fe1846007015483611fd69190613ba6565b85600301548561103d565b60078501929092555060039092019190915550565b60038054600091826120078361331f565b91905055506000838060200190518101906120229190613f06565b8051909150600003612060576040517f4e79178600000000000000000000000000000000000000000000000000000000815260040160405180910390fd5b6001600b5460ff16600281111561207957612079613351565b036122b75760208101516001600160a01b03166120c2576040517fe622e04000000000000000000000000000000000000000000000000000000000815260040160405180910390fd5b60608101516001600160a01b0316612106576040517f596a094c00000000000000000000000000000000000000000000000000000000815260040160405180910390fd5b6000306001600160a01b03166315cc481e6040518163ffffffff1660e01b8152600401602060405180830381865afa158015612146573d6000803e3d6000fd5b505050506040513d601f19601f8201168201806040525081019061216a9190613fad565b6001600160a01b031663068bcd8d6001546040518263ffffffff1660e01b815260040161219991815260200190565b600060405180830381865afa1580156121b6573d6000803e3d6000fd5b505050506040513d6000823e601f3d908101601f191682016040526121de9190810190613e3c565b604001519050806001600160a01b031682606001516001600160a01b0316146122b5576122446040518060400160405280601081526020017f3a3a726571756573746564546f6b656e000000000000000000000000000000008152508360600151612a39565b6122836040518060400160405280600b81526020017f3a3a506f6f6b546f6b656e00000000000000000000000000000000000000000081525082612a39565b6040517fa29c498600000000000000000000000000000000000000000000000000000000815260040160405180910390fd5b505b6000600c600081546122c89061331f565b9182905550600081815260056020818152604080842085815592830180546001600160a01b038b811673ffffffffffffffffffffffffffffffffffffffff199283161790925588840151600486018054918416918316919091179055606089015160068601805491909316911617905586015160018084019190915560088301805460ff19169091179055436007830155600382019290925560808501518051600b8301908155928101519394509092909190600c84019061238a9082614018565b505060015460408051918252602082018590527ffcf3b1aa65a464cef2889608f99e8b8c0f680a4be6c2acb9d961c536a5a9294b92500160405180910390a150949350505050565b601154600090610fcf9083613b6d565b6000600160801b83106124375760405162461bcd60e51b815260206004820152601c60248201527f5f612073686f756c64206265206c657373207468616e20325e313238000000006044820152606401610f56565b50600160801b82825b801561248357806001166000036124655761245b8283612a97565b915060011c612440565b61246f8383612a97565b925061247c600182613ba6565b9050612440565b505092915050565b60006001600160a01b038216156124a3576001610fd2565b600092915050565b60008181526005602052604081205415801590610fd2575050600090815260056020819052604090912001546001600160a01b0316151590565b611bac82826040516024016124fb9291906140d8565b60408051601f198184030181529190526020810180516001600160e01b03167f9710a9d000000000000000000000000000000000000000000000000000000000179052612b96565b60115460009081906125559084613b6d565b905061194a670de0b6b3a764000082613b84565b600080670de0b6b3a7640000601160000154846125869190613b6d565b6125909190613b84565b60125460048054604051637817ee4f60e01b81526001600160a01b0389811693820193909352306024820152939450919284929190911690637817ee4f90604401602060405180830381865afa1580156125ee573d6000803e3d6000fd5b505050506040513d601f19601f820116820180604052508101906126129190613be2565b61261c9190613bb9565b1115610fcf5760048054604051637817ee4f60e01b81526001600160a01b0387811693820193909352306024820152911690637817ee4f90604401602060405180830381865afa158015612674573d6000803e3d6000fd5b505050506040513d601f19601f820116820180604052508101906126989190613be2565b6012546110259190613ba6565b6000805460ff19168215159081179091556040519081527fd94c9bc4d43c51d8dc345a016d8e3d994432fac68e72832e4cf3a616bd8efae0906020015b60405180910390a150565b60006001600160a01b03821615612705576002610fd2565b600392915050565b612715611cb4565b6001541561274f576040517f439a74c900000000000000000000000000000000000000000000000000000000815260040160405180910390fd5b80600003612789576040517f7fcce2a900000000000000000000000000000000000000000000000000000000815260040160405180910390fd5b600155565b806001600160a01b0381166127cf576040517fd1f2828800000000000000000000000000000000000000000000000000000000815260040160405180910390fd5b6004546001600160a01b03166127f857604051635df4b1ef60e01b815260040160405180910390fd5b600480546040517fa230c5240000000000000000000000000000000000000000000000000000000081526001600160a01b038481169382019390935291169063a230c52490602401602060405180830381865afa15801561285d573d6000803e3d6000fd5b505050506040513d601f19601f820116820180604052508101906128819190613d92565b6128b7576040517f6a5cfb6d00000000000000000000000000000000000000000000000000000000815260040160405180910390fd5b600380549060006128c78361331f565b9091555050600480546040517f477a5cc00000000000000000000000000000000000000000000000000000000081526001600160a01b03858116938201939093523060248201526000929091169063477a5cc090604401602060405180830381865afa15801561293b573d6000803e3d6000fd5b505050506040513d601f19601f8201168201806040525081019061295f9190613d92565b905080612998576040517f5fccb67f00000000000000000000000000000000000000000000000000000000815260040160405180910390fd5b6000848060200190518101906129ae91906140fa565b90506129ba8482612bb7565b61153d8482612dbe565b6040518181527f46aeb5d8770fc4474bc2dfa118fd2595f7fb33ce2cbce6f4e5a3dabfe0f76339906020016126e2565b7fffffffffffffffffffffffff11111111111111111111111111111111111111126001600160a01b03841601612a2e57610f13828261314d565b610f13838383613169565b611bac8282604051602401612a4f9291906141a5565b60408051601f198184030181529190526020810180516001600160e01b03167f319af33300000000000000000000000000000000000000000000000000000000179052612b96565b6000600160801b831115612b135760405162461bcd60e51b815260206004820152602860248201527f5f612073686f756c64206265206c657373207468616e206f7220657175616c2060448201527f746f20325e3132380000000000000000000000000000000000000000000000006064820152608401610f56565b600160801b8210612b665760405162461bcd60e51b815260206004820152601c60248201527f5f622073686f756c64206265206c657373207468616e20325e313238000000006044820152606401610f56565b60806f80000000000000000000000000000000612b838486613b6d565b612b8d9190613bb9565b901c9392505050565b80516a636f6e736f6c652e6c6f67602083016000808483855afa5050505050565b6000805b8251811015612cb657828181518110612bd657612bd6613bcc565b602002602001015160000151600003612c2c57612c276040518060400160405280600f81526020017f70726f706f73616c4964203d3d203000000000000000000000000000000000008152506131b8565b612ca4565b6000838281518110612c4057612c40613bcc565b6020026020010151600001519050612c57816124ab565b612c775760405163c1d17bef60e01b815260048101829052602401610f56565b838281518110612c8957612c89613bcc565b60200260200101516020015183612ca091906141d0565b9250505b80612cae8161331f565b915050612bbb565b506001600160a01b038316600090815260066020526040812054612cda9083613214565b60048054604051637817ee4f60e01b81526001600160a01b0388811693820193909352306024820152929350600092911690637817ee4f90604401602060405180830381865afa158015612d32573d6000803e3d6000fd5b505050506040513d601f19601f82011682018060405250810190612d569190613be2565b905080821115612d9c576040517fd64182fe0000000000000000000000000000000000000000000000000000000081526004810183905260248101829052604401610f56565b506001600160a01b039093166000908152600660205260409020929092555050565b606060005b8251811015613147576000838281518110612de057612de0613bcc565b60200260200101516000015190508251600003612e3c5760408051600180825281830190925290602080830190803683370190505092508083600081518110612e2b57612e2b613bcc565b602002602001018181525050612f8f565b6000805b8451811015612ebb5782858281518110612e5c57612e5c613bcc565b602002602001015103612ea9576040517fadebb154000000000000000000000000000000000000000000000000000000008152600481018490526024810182905260019250604401610f56565b80612eb38161331f565b915050612e40565b5080612f8d57600084516001612ed19190613bb9565b67ffffffffffffffff811115612ee957612ee96134d1565b604051908082528060200260200182016040528015612f12578160200160208202803683370190505b50905060005b8551811015612f6a57858181518110612f3357612f33613bcc565b6020026020010151828281518110612f4d57612f4d613bcc565b602090810291909101015280612f628161331f565b915050612f18565b508281865181518110612f7f57612f7f613bcc565b602090810291909101015293505b505b6000848381518110612fa357612fa3613bcc565b60209081029190910181015181015160008481526005835260408082206001600160a01b038b16835260098101855281832054600a820190955290822054929450929190612ff18386613214565b6001600160a01b038b166000908152600986016020526040812082905590915061301a8261326f565b905061305b6040518060400160405280600c81526020017f7374616b6564416d6f756e740000000000000000000000000000000000000000815250826124e5565b6001600160a01b038b166000908152600a8601602052604090208190558083116130c8576130898382613ba6565b600d600082825461309a9190613bb9565b909155506130aa90508382613ba6565b8560020160008282546130bd9190613bb9565b9091555061310c9050565b6130d28184613ba6565b600d60008282546130e39190613ba6565b909155506130f390508184613ba6565b8560020160008282546131069190613ba6565b90915550505b84600701546000036131235743600786015561312d565b61312d8584611f9b565b50505050505050808061313f9061331f565b915050612dc3565b50505050565b60008060008084865af1611bac5763b12d13eb6000526004601cfd5b81601452806034526fa9059cbb00000000000000000000000060005260206000604460106000875af13d1560016000511417166131ae576390b8ec186000526004601cfd5b6000603452505050565b611818816040516024016131cc91906141f0565b60408051601f198184030181529190526020810180516001600160e01b03167f41304fac00000000000000000000000000000000000000000000000000000000179052612b96565b60008061322183856141d0565b90506000811215610fcf576040517f3bbc7142000000000000000000000000000000000000000000000000000000008152600481018590526024810184905260448101829052606401610f56565b600061327e6127106064613b6d565b613286613290565b61170b9084613b6d565b6000600460009054906101000a90046001600160a01b03166001600160a01b0316630331383c6040518163ffffffff1660e01b8152600401602060405180830381865afa1580156132e5573d6000803e3d6000fd5b505050506040513d601f19601f820116820180604052508101906119eb9190613be2565b634e487b7160e01b600052601160045260246000fd5b60006001820161333157613331613309565b5060010190565b60006020828403121561334a57600080fd5b5035919050565b634e487b7160e01b600052602160045260246000fd5b6005811061337757613377613351565b9052565b60005b8381101561339657818101518382015260200161337e565b50506000910152565b600081518084526133b781602086016020860161337b565b601f01601f19169290920160200192915050565b805182526000602082015160406020850152611025604085018261339f565b60006101408c83528b60208401528a60408401528960608401526001600160a01b03808a16608085015280891660a085015280881660c0850152508560e0840152613439610100840186613367565b8061012084015261344c818401856133cb565b9d9c50505050505050505050505050565b60006020828403121561346f57600080fd5b81357fffffffff0000000000000000000000000000000000000000000000000000000081168114610fcf57600080fd5b6001600160a01b038116811461181857600080fd5b6000602082840312156134c657600080fd5b8135610fcf8161349f565b634e487b7160e01b600052604160045260246000fd5b6040805190810167ffffffffffffffff8111828210171561350a5761350a6134d1565b60405290565b60405160e0810167ffffffffffffffff8111828210171561350a5761350a6134d1565b60405160c0810167ffffffffffffffff8111828210171561350a5761350a6134d1565b60405160a0810167ffffffffffffffff8111828210171561350a5761350a6134d1565b604051601f8201601f1916810167ffffffffffffffff811182821017156135a2576135a26134d1565b604052919050565b600067ffffffffffffffff8211156135c4576135c46134d1565b5060051b60200190565b600082601f8301126135df57600080fd5b813560206135f46135ef836135aa565b613579565b82815260059290921b8401810191818101908684111561361357600080fd5b8286015b8481101561363757803561362a8161349f565b8352918301918301613617565b509695505050505050565b600067ffffffffffffffff82111561365c5761365c6134d1565b50601f01601f191660200190565b600082601f83011261367b57600080fd5b81356136896135ef82613642565b81815284602083860101111561369e57600080fd5b816020850160208301376000918101602001919091529392505050565b6000806000606084860312156136d057600080fd5b833567ffffffffffffffff808211156136e857600080fd5b6136f4878388016135ce565b9450602086013591508082111561370a57600080fd5b506137178682870161366a565b92505060408401356137288161349f565b809150509250925092565b6000806040838503121561374657600080fd5b823567ffffffffffffffff81111561375d57600080fd5b6137698582860161366a565b925050602083013561377a8161349f565b809150509250929050565b6004811061337757613377613351565b60208101610fd28284613785565b600080604083850312156137b657600080fd5b82356137c18161349f565b946020939093013593505050565b6000806000606084860312156137e457600080fd5b505081359360208301359350604090920135919050565b6003811061337757613377613351565b60208101610fd282846137fb565b60208101610fd28284613367565b6000806040838503121561383a57600080fd5b82359150602083013561377a8161349f565b602081526000610fcf60208301846133cb565b6000806040838503121561387257600080fd5b823567ffffffffffffffff8082111561388a57600080fd5b613896868387016135ce565b93506020915081850135818111156138ad57600080fd5b8501601f810187136138be57600080fd5b80356138cc6135ef826135aa565b81815260059190911b820184019084810190898311156138eb57600080fd5b8584015b83811015613923578035868111156139075760008081fd5b6139158c898389010161366a565b8452509186019186016138ef565b508096505050505050509250929050565b602080825282518282018190526000919060409081850190868401855b8281101561397f57815180516001600160a01b03168552860151868501529284019290850190600101613951565b5091979650505050505050565b801515811461181857600080fd5b6000602082840312156139ac57600080fd5b8135610fcf8161398c565b6001600160a01b038b811682528a8116602083015289166040820152606081018890526080810187905261014081016139f360a0830188613367565b8560c08301528460e083015283610100830152826101208301529b9a5050505050505050505050565b60006020808385031215613a2f57600080fd5b823567ffffffffffffffff811115613a4657600080fd5b8301601f81018513613a5757600080fd5b8035613a656135ef826135aa565b81815260069190911b82018301908381019087831115613a8457600080fd5b928401925b82841015613ac75760408489031215613aa25760008081fd5b613aaa6134e7565b843581528585013586820152825260409093019290840190613a89565b979650505050505050565b6020810160078310613ae657613ae6613351565b91905290565b60008060408385031215613aff57600080fd5b82359150602083013567ffffffffffffffff811115613b1d57600080fd5b613b298582860161366a565b9150509250929050565b600181811c90821680613b4757607f821691505b602082108103613b6757634e487b7160e01b600052602260045260246000fd5b50919050565b8082028115828204841417610fd257610fd2613309565b600082613ba157634e487b7160e01b600052601260045260246000fd5b500490565b81810381811115610fd257610fd2613309565b80820180821115610fd257610fd2613309565b634e487b7160e01b600052603260045260246000fd5b600060208284031215613bf457600080fd5b5051919050565b805160048110613c0a57600080fd5b919050565b600060808284031215613c2157600080fd5b6040516080810181811067ffffffffffffffff82111715613c4457613c446134d1565b8060405250809150825181526020830151602082015260408301516040820152606083015160608201525092915050565b60006101408284031215613c8857600080fd5b613c90613510565b8251613c9b8161349f565b80825250602083015160208201526040830151604082015260608301516060820152608083015160038110613ccf57600080fd5b6080820152613ce060a08401613bfb565b60a0820152613cf28460c08501613c0f565b60c08201529392505050565b6000610160820190508382526001600160a01b0383511660208301526020830151604083015260408301516060830152606083015160808301526080830151613d4a60a08401826137fb565b5060a0830151613d5d60c0840182613785565b5060c09290920151805160e0830152602081015161010083015260408101516101208301526060015161014090910152919050565b600060208284031215613da457600080fd5b8151610fcf8161398c565b600060408284031215613dc157600080fd5b613dc96134e7565b905081518152602082015167ffffffffffffffff811115613de957600080fd5b8201601f81018413613dfa57600080fd5b8051613e086135ef82613642565b818152856020838501011115613e1d57600080fd5b613e2e82602083016020860161337b565b602084015250909392505050565b600060208284031215613e4e57600080fd5b815167ffffffffffffffff80821115613e6657600080fd5b9083019060c08286031215613e7a57600080fd5b613e82613533565b825181526020830151613e948161349f565b60208201526040830151613ea78161349f565b6040820152606083015182811115613ebe57600080fd5b613eca87828601613daf565b6060830152506080830151608082015260a083015160a082015280935050505092915050565b634e487b7160e01b600052600160045260246000fd5b600060208284031215613f1857600080fd5b815167ffffffffffffffff80821115613f3057600080fd5b9083019060a08286031215613f4457600080fd5b613f4c613556565b825181526020830151613f5e8161349f565b6020820152604083810151908201526060830151613f7b8161349f565b6060820152608083015182811115613f9257600080fd5b613f9e87828601613daf565b60808301525095945050505050565b600060208284031215613fbf57600080fd5b8151610fcf8161349f565b601f821115610f1357600081815260208120601f850160051c81016020861015613ff15750805b601f850160051c820191505b8181101561401057828155600101613ffd565b505050505050565b815167ffffffffffffffff811115614032576140326134d1565b614046816140408454613b33565b84613fca565b602080601f83116001811461407b57600084156140635750858301515b600019600386901b1c1916600185901b178555614010565b600085815260208120601f198616915b828110156140aa5788860151825594840194600190910190840161408b565b50858210156140c85787850151600019600388901b60f8161c191681555b5050505050600190811b01905550565b6040815260006140eb604083018561339f565b90508260208301529392505050565b6000602080838503121561410d57600080fd5b825167ffffffffffffffff81111561412457600080fd5b8301601f8101851361413557600080fd5b80516141436135ef826135aa565b81815260069190911b8201830190838101908783111561416257600080fd5b928401925b82841015613ac757604084890312156141805760008081fd5b6141886134e7565b845181528585015186820152825260409093019290840190614167565b6040815260006141b8604083018561339f565b90506001600160a01b03831660208301529392505050565b808201828112600083128015821682158216171561248357612483613309565b602081526000610fcf602083018461339f56fea26469706673582212209596ab5587cf59d73be81a5f7d9071dcd724653871065d28dff45d8349e6747164736f6c63430008130033","linkReferences":{}},"methodIdentifiers":{"D()":"0f529ba2","MAX_STAKED_PROPOSALS()":"406244d8","NATIVE()":"a0cf0aea","PRECISION_PERCENTAGE()":"34423641","PRECISION_SCALE()":"d7050f07","activatePoints()":"814516ad","allocate(bytes,address)":"ef2920fc","calculateConviction(uint256,uint256,uint256)":"346db8cb","calculateThreshold(uint256)":"59a5db8b","deactivatePoints(address)":"6453d9c4","decay()":"54fac919","decreasePower(address,uint256)":"2ed04b2b","distribute(address[],bytes,address)":"0a6f0ee9","getAllo()":"15cc481e","getMaxConviction(uint256)":"950559d7","getMetadata(uint256)":"a574cea4","getPayouts(address[],bytes[])":"b2b878d0","getPointsPerMember()":"cbfc1daa","getPoolAmount()":"4ab4ba42","getPoolId()":"38fff2d0","getProposal(uint256)":"c7f758a8","getProposalBeneficiary(uint256)":"a656985d","getProposalBlockLast(uint256)":"f8b18c4b","getProposalConvictionLast(uint256)":"fcdf3be1","getProposalRequestedAmount(uint256)":"7c97eede","getProposalRequestedToken(uint256)":"9a1df745","getProposalStakedAmount(uint256)":"dc96ff2d","getProposalStatus(uint256)":"401853b7","getProposalSubmitter(uint256)":"fe878764","getProposalThreshold(uint256)":"d1045aa9","getProposalVoterStake(uint256,address)":"e0dd2c38","getProposalVoterStakedAmount(uint256,address)":"f96e3b4c","getProposalVoterStakedPointsPct(uint256,address)":"5037fed6","getRecipientStatus(address)":"eb11af93","getStrategyId()":"42fda9c7","getTotalVoterStakePct(address)":"bcc5b93b","increasePoolAmount(uint256)":"f5b0dfb7","increasePower(address,uint256)":"782aadff","initialize(uint256,bytes)":"edd146cc","isPoolActive()":"df868ed3","isValidAllocator(address)":"4d31d087","maxRatio()":"76365af7","minPointsActivated()":"05d19175","pointConfig()":"a47ff7e5","pointSystem()":"2dbd6fdd","proposalCounter()":"0c0512e9","proposalType()":"351d9f96","proposals(uint256)":"013cf08b","registerRecipient(bytes,address)":"2bbe0cae","registryCommunity()":"6003e414","setDecay(uint256)":"69fa25c4","setMaxRatio(uint256)":"11f22ae3","setPoolActive(bool)":"b5f620ce","setRegistryCommunity(address)":"058aca44","setWeight(uint256)":"fc1711f2","supportProposal((uint256,int256)[])":"e33add93","supportsInterface(bytes4)":"01ffc9a7","totalEffectiveActivePoints()":"d1e36232","totalPointsActivated()":"aba9ffee","totalStaked()":"817b1cd2","totalVoterStakePct(address)":"5db64b99","updateProposalConviction(uint256)":"1aa91a9e","voterStakedProposals(address,uint256)":"868c57b8","weight()":"a1aab33f","withdraw(address)":"51cff8d9"},"id":95}