{"abi":[{"type":"function","name":"DISPUTE_COOLDOWN_SEC","inputs":[],"outputs":[{"name":"","type":"uint256","internalType":"uint256"}],"stateMutability":"view"},{"type":"function","name":"MAX_ALLOCATIONS_PER_TX","inputs":[],"outputs":[{"name":"","type":"uint256","internalType":"uint256"}],"stateMutability":"view"},{"type":"function","name":"MAX_PROPOSAL_COUNT","inputs":[],"outputs":[{"name":"","type":"uint256","internalType":"uint256"}],"stateMutability":"view"},{"type":"function","name":"MAX_SYNC_BATCH_MEMBERS","inputs":[],"outputs":[{"name":"","type":"uint256","internalType":"uint256"}],"stateMutability":"view"},{"type":"function","name":"MAX_VOTER_STAKED_PROPOSALS","inputs":[],"outputs":[{"name":"","type":"uint256","internalType":"uint256"}],"stateMutability":"view"},{"type":"function","name":"RULING_OPTIONS","inputs":[],"outputs":[{"name":"","type":"uint256","internalType":"uint256"}],"stateMutability":"view"},{"type":"function","name":"_isStrategyEnabled","inputs":[],"outputs":[{"name":"","type":"bool","internalType":"bool"}],"stateMutability":"view"},{"type":"function","name":"arbitrableConfigs","inputs":[{"name":"","type":"uint256","internalType":"uint256"}],"outputs":[{"name":"arbitrator","type":"address","internalType":"contract IArbitrator"},{"name":"tribunalSafe","type":"address","internalType":"address"},{"name":"submitterCollateralAmount","type":"uint256","internalType":"uint256"},{"name":"challengerCollateralAmount","type":"uint256","internalType":"uint256"},{"name":"defaultRuling","type":"uint256","internalType":"uint256"},{"name":"defaultRulingTimeout","type":"uint256","internalType":"uint256"}],"stateMutability":"view"},{"type":"function","name":"batchSyncPower","inputs":[{"name":"_members","type":"address[]","internalType":"address[]"}],"outputs":[],"stateMutability":"nonpayable"},{"type":"function","name":"calculateProposalConviction","inputs":[{"name":"_proposalId","type":"uint256","internalType":"uint256"}],"outputs":[{"name":"","type":"uint256","internalType":"uint256"}],"stateMutability":"view"},{"type":"function","name":"cloneNonce","inputs":[],"outputs":[{"name":"","type":"uint256","internalType":"uint256"}],"stateMutability":"view"},{"type":"function","name":"collateralVault","inputs":[],"outputs":[{"name":"","type":"address","internalType":"contract ICollateralVault"}],"stateMutability":"view"},{"type":"function","name":"currentArbitrableConfigVersion","inputs":[],"outputs":[{"name":"","type":"uint256","internalType":"uint256"}],"stateMutability":"view"},{"type":"function","name":"cvParams","inputs":[],"outputs":[{"name":"maxRatio","type":"uint256","internalType":"uint256"},{"name":"weight","type":"uint256","internalType":"uint256"},{"name":"decay","type":"uint256","internalType":"uint256"},{"name":"minThresholdPoints","type":"uint256","internalType":"uint256"}],"stateMutability":"view"},{"type":"function","name":"disputeCount","inputs":[],"outputs":[{"name":"","type":"uint64","internalType":"uint64"}],"stateMutability":"view"},{"type":"function","name":"disputeIdToProposalId","inputs":[{"name":"","type":"uint256","internalType":"uint256"}],"outputs":[{"name":"","type":"uint256","internalType":"uint256"}],"stateMutability":"view"},{"type":"function","name":"getPoolAmount","inputs":[],"outputs":[{"name":"","type":"uint256","internalType":"uint256"}],"stateMutability":"view"},{"type":"function","name":"isAuthorizedSyncCaller","inputs":[{"name":"_caller","type":"address","internalType":"address"}],"outputs":[{"name":"","type":"bool","internalType":"bool"}],"stateMutability":"view"},{"type":"function","name":"pointConfig","inputs":[],"outputs":[{"name":"maxAmount","type":"uint256","internalType":"uint256"}],"stateMutability":"view"},{"type":"function","name":"pointSystem","inputs":[],"outputs":[{"name":"","type":"uint8","internalType":"enum PointSystem"}],"stateMutability":"view"},{"type":"function","name":"proposalCounter","inputs":[],"outputs":[{"name":"","type":"uint256","internalType":"uint256"}],"stateMutability":"view"},{"type":"function","name":"proposalExists","inputs":[{"name":"_proposalID","type":"uint256","internalType":"uint256"}],"outputs":[{"name":"","type":"bool","internalType":"bool"}],"stateMutability":"view"},{"type":"function","name":"proposalType","inputs":[],"outputs":[{"name":"","type":"uint8","internalType":"enum ProposalType"}],"stateMutability":"view"},{"type":"function","name":"registryCommunity","inputs":[],"outputs":[{"name":"","type":"address","internalType":"contract RegistryCommunity"}],"stateMutability":"view"},{"type":"function","name":"setAuthorizedSyncCaller","inputs":[{"name":"_caller","type":"address","internalType":"address"},{"name":"_authorized","type":"bool","internalType":"bool"}],"outputs":[],"stateMutability":"nonpayable"},{"type":"function","name":"streamingRatePerSecond","inputs":[],"outputs":[{"name":"","type":"uint256","internalType":"uint256"}],"stateMutability":"view"},{"type":"function","name":"superfluidGDA","inputs":[],"outputs":[{"name":"","type":"address","internalType":"contract ISuperfluidPool"}],"stateMutability":"view"},{"type":"function","name":"superfluidToken","inputs":[],"outputs":[{"name":"","type":"address","internalType":"contract ISuperToken"}],"stateMutability":"view"},{"type":"function","name":"sybilScorer","inputs":[],"outputs":[{"name":"","type":"address","internalType":"contract ISybilScorer"}],"stateMutability":"view"},{"type":"function","name":"syncPower","inputs":[{"name":"_member","type":"address","internalType":"address"}],"outputs":[],"stateMutability":"nonpayable"},{"type":"function","name":"totalPointsActivated","inputs":[],"outputs":[{"name":"","type":"uint256","internalType":"uint256"}],"stateMutability":"view"},{"type":"function","name":"totalStaked","inputs":[],"outputs":[{"name":"","type":"uint256","internalType":"uint256"}],"stateMutability":"view"},{"type":"function","name":"totalVoterStakePct","inputs":[{"name":"","type":"address","internalType":"address"}],"outputs":[{"name":"","type":"uint256","internalType":"uint256"}],"stateMutability":"view"},{"type":"function","name":"voterStakedProposals","inputs":[{"name":"","type":"address","internalType":"address"},{"name":"","type":"uint256","internalType":"uint256"}],"outputs":[{"name":"","type":"uint256","internalType":"uint256"}],"stateMutability":"view"},{"type":"function","name":"votingPowerRegistry","inputs":[],"outputs":[{"name":"","type":"address","internalType":"contract IVotingPowerRegistry"}],"stateMutability":"view"},{"type":"event","name":"AuthorizedSyncCallerUpdated","inputs":[{"name":"caller","type":"address","indexed":true,"internalType":"address"},{"name":"authorized","type":"bool","indexed":false,"internalType":"bool"}],"anonymous":false},{"type":"event","name":"MemberPowerRevoked","inputs":[{"name":"member","type":"address","indexed":true,"internalType":"address"},{"name":"powerRemoved","type":"uint256","indexed":false,"internalType":"uint256"}],"anonymous":false},{"type":"event","name":"PowerSynced","inputs":[{"name":"member","type":"address","indexed":true,"internalType":"address"},{"name":"oldPower","type":"uint256","indexed":false,"internalType":"uint256"},{"name":"newPower","type":"uint256","indexed":false,"internalType":"uint256"}],"anonymous":false},{"type":"event","name":"SupportAdded","inputs":[{"name":"from","type":"address","indexed":false,"internalType":"address"},{"name":"proposalId","type":"uint256","indexed":false,"internalType":"uint256"},{"name":"amount","type":"uint256","indexed":false,"internalType":"uint256"},{"name":"totalStakedAmount","type":"uint256","indexed":false,"internalType":"uint256"},{"name":"convictionLast","type":"uint256","indexed":false,"internalType":"uint256"}],"anonymous":false},{"type":"error","name":"BlockNumberRegression","inputs":[{"name":"recordedBlock","type":"uint256","internalType":"uint256"},{"name":"currentBlock","type":"uint256","internalType":"uint256"}]},{"type":"error","name":"NotAuthorizedSyncCaller","inputs":[{"name":"caller","type":"address","internalType":"address"}]},{"type":"error","name":"OnlyActiveProposal","inputs":[{"name":"proposalId","type":"uint256","internalType":"uint256"}]},{"type":"error","name":"OnlyAllo","inputs":[{"name":"sender","type":"address","internalType":"address"},{"name":"allo","type":"address","internalType":"address"}]},{"type":"error","name":"OnlyCouncilSafe","inputs":[{"name":"sender","type":"address","internalType":"address"},{"name":"councilSafe","type":"address","internalType":"address"},{"name":"owner","type":"address","internalType":"address"}]},{"type":"error","name":"OnlyCouncilSafeOrMember","inputs":[{"name":"sender","type":"address","internalType":"address"},{"name":"councilSafe","type":"address","internalType":"address"}]},{"type":"error","name":"OnlyInitialized","inputs":[{"name":"poolId","type":"uint256","internalType":"uint256"}]},{"type":"error","name":"OnlyMember","inputs":[{"name":"wallet","type":"address","internalType":"address"},{"name":"community","type":"address","internalType":"address"}]},{"type":"error","name":"OnlyOwner","inputs":[{"name":"sender","type":"address","internalType":"address"},{"name":"ownerAddress","type":"address","internalType":"address"}]},{"type":"error","name":"OnlyRegistryCommunity","inputs":[{"name":"sender","type":"address","internalType":"address"},{"name":"registry","type":"address","internalType":"address"}]},{"type":"error","name":"OnlySubmitter","inputs":[{"name":"proposalId","type":"uint256","internalType":"uint256"},{"name":"submitter","type":"address","internalType":"address"},{"name":"sender","type":"address","internalType":"address"}]},{"type":"error","name":"ProposalDoesNotExist","inputs":[{"name":"proposalID","type":"uint256","internalType":"uint256"}]},{"type":"error","name":"StrategyPaused","inputs":[{"name":"controller","type":"address","internalType":"address"}]},{"type":"error","name":"StrategySelectorPaused","inputs":[{"name":"selector","type":"bytes4","internalType":"bytes4"},{"name":"controller","type":"address","internalType":"address"}]},{"type":"error","name":"SyncBatchTooLarge","inputs":[{"name":"provided","type":"uint256","internalType":"uint256"},{"name":"maxAllowed","type":"uint256","internalType":"uint256"}]},{"type":"error","name":"SyncDisabledForInternalRegistry","inputs":[{"name":"registryCommunity","type":"address","internalType":"address"}]}],"bytecode":{"object":"0x608060405234801561000f575f80fd5b50611c098061001d5f395ff3fe608060405234801561000f575f80fd5b506004361061019f575f3560e01c806301cf0869146101a357806305caa7f3146101cb5780630bece79c146101eb5780630c0512e9146101fe578063125fd1d9146102155780631374b22d1461021e5780631b36f56f146102315780632506b87014610244578063255ffb381461026a5780632dbd6fdd1461028957806333960459146102a8578063351d9f96146102b15780633eadbd0f146102cb57806341bb7605146102e05780634ab4ba42146103675780634c3ceb5b1461036f5780635db64b99146103775780636003e4141461039657806360b0645a146103a9578063626c47e8146103bc57806380fd91cd146103c4578063817b1cd2146103d7578063868c57b8146103e05780638dc83094146103f3578063914bdef01461036f57806394573cbb146103fb5780639f00879c14610404578063a28889e114610417578063a47ff7e514610442578063aba9ffee1461044c578063b6c61f3114610455578063c5aab6ed14610468578063dfe9ec581461036f578063ee50ee1b1461047b578063f5be3f7c14610483575b5f80fd5b6101b66101b1366004611648565b61048c565b60405190151581526020015b60405180910390f35b6080546101de906001600160a01b031681565b6040516101c29190611663565b6079546101de906001600160a01b031681565b610207606e5481565b6040519081526020016101c2565b610207606f5481565b6101b661022c366004611677565b6104b6565b6081546101de906001600160a01b031681565b60725460735460745460755461025a9392919084565b6040516101c2949392919061168e565b610207610278366004611677565b607e6020525f908152604090205481565b60765461029b90610100900460ff1681565b6040516101c291906116bd565b610207606c5481565b6076546102be9060ff1681565b6040516101c291906116d7565b6102de6102d93660046116f8565b6104f0565b005b61032f6102ee366004611677565b607f6020525f90815260409020805460018201546002830154600384015460048501546005909501546001600160a01b039485169593909416939192909186565b604080516001600160a01b039788168152969095166020870152938501929092526060840152608083015260a082015260c0016101c2565b610207610568565b610207608081565b610207610385366004611648565b607c6020525f908152604090205481565b6078546101de906001600160a01b031681565b6102076103b7366004611677565b610803565b610207600381565b6083546101de906001600160a01b031681565b61020760705481565b6102076103ee36600461172f565b6108c7565b6101b66108f2565b61020760825481565b6102de610412366004611648565b6109ee565b606d5461042a906001600160401b031681565b6040516001600160401b0390911681526020016101c2565b6077546102079081565b61020760715481565b607a546101de906001600160a01b031681565b6102de610476366004611759565b610a45565b610207604081565b610207611c2081565b5f610495610af9565b6001600160a01b039092165f90815260209290925250604090205460ff1690565b5f818152607b6020526040812054158015906104ea57505f828152607b60205260409020600501546001600160a01b031615155b92915050565b6104f8610b1d565b610500610b5d565b80610509610af9565b6001600160a01b0384165f8181526020928352604090819020805460ff191694151594909417909355915183151581527fdc4bc50c08bb8640c035394efdd158745a6339f90cc1085113665114780405b3910160405180910390a25050565b60655460685460405163068bcd8d60e01b81525f9283926001600160a01b039091169163068bcd8d916105a19160040190815260200190565b5f60405180830381865afa1580156105bb573d5f803e3d5ffd5b505050506040513d5f823e601f3d908101601f191682016040526105e29190810190611877565b60400151905073eeeeeeeeeeeeeeeeeeeeeeeeeeeeeeeeeeeeeeed196001600160a01b03821601610614574791505090565b6040516370a0823160e01b81525f906001600160a01b038316906370a0823190610642903090600401611663565b602060405180830381865afa15801561065d573d5f803e3d5ffd5b505050506040513d601f19601f8201168201806040525081019061068191906119a7565b6080549091506001600160a01b03908116908316036106a05792915050565b6080545f906001600160a01b031615610727576080546040516370a0823160e01b81526001600160a01b03909116906370a08231906106e3903090600401611663565b602060405180830381865afa1580156106fe573d5f803e3d5ffd5b505050506040513d601f19601f8201168201806040525081019061072291906119a7565b610729565b5f5b90505f836001600160a01b031663313ce5676040518163ffffffff1660e01b8152600401602060405180830381865afa158015610768573d5f803e3d5ffd5b505050506040513d601f19601f8201168201806040525081019061078c91906119be565b905060128160ff1610156107c1576107a58160126119f2565b6107b090600a611aeb565b6107ba9083611b0d565b91506107f0565b60128160ff1611156107f0576107d86012826119f2565b6107e390600a611aeb565b6107ed9083611b2c565b91505b6107fa8284611b43565b94505050505090565b5f818152607b602052604081206108186108f2565b610826576003015492915050565b73__$f1b7c69ba751c396eddc93d3bbc5414fd9$__63010dfe648260070154436108509190611b56565b600384015460028501546074546040516001600160e01b031960e087901b168152610881949392919060040161168e565b602060405180830381865af415801561089c573d5f803e3d5ffd5b505050506040513d601f19601f820116820180604052508101906108c091906119a7565b9392505050565b607d602052815f5260405f2081815481106108e0575f80fd5b905f5260205f20015f91509150505481565b6078545f906001600160a01b031661090a5750600190565b6078546040515f9182916001600160a01b0390911690633a871fe160e01b90610937903090602401611663565b60408051601f198184030181529181526020820180516001600160e01b03166001600160e01b03199094169390931790925290516109759190611b69565b5f60405180830381855afa9150503d805f81146109ad576040519150601f19603f3d011682016040523d82523d5f602084013e6109b2565b606091505b50915091508115806109c5575060208151105b156109d35760019250505090565b808060200190518101906109e79190611b84565b9250505090565b6109f6610b1d565b6109fe610af9565b335f908152602091909152604090205460ff16610a395733604051630cc9c3c960e21b8152600401610a309190611663565b60405180910390fd5b610a4281610cb8565b50565b610a4d610b1d565b610a55610af9565b335f908152602091909152604090205460ff16610a875733604051630cc9c3c960e21b8152600401610a309190611663565b6080811115610ab357604051630fe1fbcd60e11b81526004810182905260806024820152604401610a30565b5f5b81811015610af457610aec838383818110610ad257610ad2611b9f565b9050602002016020810190610ae79190611648565b610cb8565b600101610ab5565b505050565b7f097c5f51be6c161c250a24cddb93265814159688a8e402290bbba8f3d8b83b9b90565b6078546083546001600160a01b03918216911603610b5b57607854604051637917024960e11b8152610a30916001600160a01b031690600401611663565b565b60785f9054906101000a90046001600160a01b03166001600160a01b0316636c53db9a6040518163ffffffff1660e01b8152600401602060405180830381865afa158015610bad573d5f803e3d5ffd5b505050506040513d601f19601f82011682018060405250810190610bd19190611bb3565b6001600160a01b0316336001600160a01b031614158015610c0b5750610bf5610f27565b6001600160a01b0316336001600160a01b031614155b15610b5b5760785460408051633629edcd60e11b8152905133926001600160a01b031691636c53db9a9160048083019260209291908290030181865afa158015610c57573d5f803e3d5ffd5b505050506040513d601f19601f82011682018060405250810190610c7b9190611bb3565b610c83610f27565b60405163e1b9c46960e01b81526001600160a01b03938416600482015291831660248301529091166044820152606401610a30565b5f610cc1610af9565b6001600160a01b0383165f9081526002820160205260408120549192509060ff16610d5d57607854604051637817ee4f60e01b81526001600160a01b0390911690637817ee4f90610d189086903090600401611bce565b6020604051808303815f875af1158015610d34573d5f803e3d5ffd5b505050506040513d601f19601f82011682018060405250810190610d5891906119a7565b610d78565b6001600160a01b0383165f9081526001830160205260409020545b608354604051637817ee4f60e01b81529192505f916001600160a01b0390911690637817ee4f90610daf9087903090600401611bce565b602060405180830381865afa158015610dca573d5f803e3d5ffd5b505050506040513d601f19601f82011682018060405250810190610dee91906119a7565b9050818103610e33576001600160a01b039093165f90815260018084016020908152604080842096909655600290940190935292909220805460ff1916909117905550565b81811015610e9c575f610e468284611b56565b9050610e53858285610fd1565b846001600160a01b03167fed6e9ae347ffc36255be883bfbc2418b6ff8f375ffbcb034274d6d0e777796b882604051610e8e91815260200190565b60405180910390a250610eb5565b5f610ea78383611b56565b9050610eb3858261115f565b505b6001600160a01b0384165f81815260018581016020908152604080842086905560028801825292839020805460ff191690921790915581518581529081018490527ffea97331442afdbc594d85581044888f2017b81e8f177087ddfdf14626db15ed910160405180910390a250505050565b5f80610f3b6033546001600160a01b031690565b9050806001600160a01b03163b5f03610f5357919050565b806001600160a01b0316638da5cb5b6040518163ffffffff1660e01b8152600401602060405180830381865afa925050508015610fad575060408051601f3d908101601f19168201909252610faa91810190611bb3565b60015b610fb657919050565b6001600160a01b03811615610fcb57806109e7565b50919050565b6001600160a01b0383165f908152607c6020526040812054908290828211610ff9575f611003565b6110038383611b56565b9050848110801561101357505f83115b15611141575f6110238287611b56565b905080845f5b6001600160a01b038a165f908152607d602052604090205481101561113357821580611053575081155b611133576001600160a01b038a165f908152607d6020526040812080548390811061108057611080611b9f565b905f5260205f20015490505f607b5f8381526020019081526020015f206009015f8d6001600160a01b03166001600160a01b031681526020019081526020015f20549050805f036110d257505061112b565b5f8482106110e457505f9350846110fe565b6110ef8287876111f3565b90506110fb8286611b56565b94505b818111156111095750805b80156111275761111a8d84836112d7565b6111248187611b56565b95505b5050505b600101611029565b5061113d8961140b565b5050505b8460715f8282546111529190611b56565b9091555050505050505050565b60785460405163011de97360e61b81525f916001600160a01b03169063477a5cc0906111919086903090600401611bce565b602060405180830381865afa1580156111ac573d5f803e3d5ffd5b505050506040513d601f19601f820116820180604052508101906111d09190611b84565b90508015610af4578160715f8282546111e99190611b43565b9091555050505050565b5f80805f19858709858702925082811083820303915050805f0361122a5783828161122057611220611af9565b04925050506108c0565b8084116112715760405162461bcd60e51b81526020600482015260156024820152744d6174683a206d756c446976206f766572666c6f7760581b6044820152606401610a30565b5f84868809600260036001881981018916988990049182028318808302840302808302840302808302840302808302840302808302840302918202909203025f889003889004909101858311909403939093029303949094049190911702949350505050565b5f828152607b602090815260408083206001600160a01b038716845260098101909252822054909181841161130c578361130e565b815b90505f61131b8284611b56565b60028501805491925083905f6113318385611b56565b90915550506001600160a01b0388165f908152600986016020526040812083905560708054859290611364908490611b56565b90915550506001600160a01b0388165f908152607c602052604081208054859290611390908490611b56565b909155506113a0905085826114f4565b60028501546003860154604080516001600160a01b038c168152602081018b9052908101859052606081019290925260808201527f0227f642ddcf2042ceaeafadb9d540f432072c00cd4862881667168dcc14710f9060a00160405180910390a15050505050505050565b6001600160a01b0381165f908152607d60205260408120905b8154811015610af4575f82828154811061144057611440611b9f565b5f918252602080832090910154808352607b825260408084206001600160a01b03891685526009019092529082205490925090036114e7578254839061148890600190611b56565b8154811061149857611498611b9f565b905f5260205f2001548383815481106114b3576114b3611b9f565b905f5260205f200181905550828054806114cf576114cf611be8565b600190038181905f5260205f20015f905590556114ee565b8160010191505b50611424565b5f80611500848461152d565b91509150815f148015611511575080155b1561151c5750505050565b600784015560039092019190915550565b5f806115376108f2565b61154857505060038201544361162d565b439050808460070154111561158057600784015460405163102300bd60e01b8152600481019190915260248101829052604401610a30565b8084600701540361159557505f90508061162d565b73__$f1b7c69ba751c396eddc93d3bbc5414fd9$__63010dfe648560070154836115bf9190611b56565b60038701546074546040516001600160e01b031960e086901b1681526115eb939291899160040161168e565b602060405180830381865af4158015611606573d5f803e3d5ffd5b505050506040513d601f19601f8201168201806040525081019061162a91906119a7565b91505b9250929050565b6001600160a01b0381168114610a42575f80fd5b5f60208284031215611658575f80fd5b81356108c081611634565b6001600160a01b0391909116815260200190565b5f60208284031215611687575f80fd5b5035919050565b93845260208401929092526040830152606082015260800190565b634e487b7160e01b5f52602160045260245ffd5b60208101600583106116d1576116d16116a9565b91905290565b60208101600383106116d1576116d16116a9565b8015158114610a42575f80fd5b5f8060408385031215611709575f80fd5b823561171481611634565b91506020830135611724816116eb565b809150509250929050565b5f8060408385031215611740575f80fd5b823561174b81611634565b946020939093013593505050565b5f806020838503121561176a575f80fd5b82356001600160401b0380821115611780575f80fd5b818501915085601f830112611793575f80fd5b8135818111156117a1575f80fd5b8660208260051b85010111156117b5575f80fd5b60209290920196919550909350505050565b634e487b7160e01b5f52604160045260245ffd5b60405160c081016001600160401b03811182821017156117fd576117fd6117c7565b60405290565b604080519081016001600160401b03811182821017156117fd576117fd6117c7565b604051601f8201601f191681016001600160401b038111828210171561184d5761184d6117c7565b604052919050565b5f5b8381101561186f578181015183820152602001611857565b50505f910152565b5f6020808385031215611888575f80fd5b82516001600160401b038082111561189e575f80fd5b9084019060c082870312156118b1575f80fd5b6118b96117db565b82518152838301516118ca81611634565b8185015260408301516118dc81611634565b60408201526060830151828111156118f2575f80fd5b830160408189031215611903575f80fd5b61190b611803565b81518152858201518481111561191f575f80fd5b80830192505088601f830112611933575f80fd5b815184811115611945576119456117c7565b611957601f8201601f19168801611825565b9450808552898782850101111561196c575f80fd5b61197b81888701898601611855565b50948501929092526060810193909352506080818101519083015260a090810151908201529392505050565b5f602082840312156119b7575f80fd5b5051919050565b5f602082840312156119ce575f80fd5b815160ff811681146108c0575f80fd5b634e487b7160e01b5f52601160045260245ffd5b60ff82811682821603908111156104ea576104ea6119de565b600181815b80851115611a4557815f1904821115611a2b57611a2b6119de565b80851615611a3857918102915b93841c9390800290611a10565b509250929050565b5f82611a5b575060016104ea565b81611a6757505f6104ea565b8160018114611a7d5760028114611a8757611aa3565b60019150506104ea565b60ff841115611a9857611a986119de565b50506001821b6104ea565b5060208310610133831016604e8410600b8410161715611ac6575081810a6104ea565b611ad08383611a0b565b805f1904821115611ae357611ae36119de565b029392505050565b5f6108c060ff841683611a4d565b634e487b7160e01b5f52601260045260245ffd5b5f82611b2757634e487b7160e01b5f52601260045260245ffd5b500490565b80820281158282048414176104ea576104ea6119de565b808201808211156104ea576104ea6119de565b818103818111156104ea576104ea6119de565b5f8251611b7a818460208701611855565b9190910192915050565b5f60208284031215611b94575f80fd5b81516108c0816116eb565b634e487b7160e01b5f52603260045260245ffd5b5f60208284031215611bc3575f80fd5b81516108c081611634565b6001600160a01b0392831681529116602082015260400190565b634e487b7160e01b5f52603160045260245ffdfea164736f6c6343000817000a","linkReferences":{"pkg/contracts/src/CVStrategy/ConvictionsUtils.sol":{"ConvictionsUtils":[{"start":2117,"length":20},{"start":5556,"length":20}]}}},"methodIdentifiers":{"DISPUTE_COOLDOWN_SEC()":"f5be3f7c","MAX_ALLOCATIONS_PER_TX()":"ee50ee1b","MAX_PROPOSAL_COUNT()":"dfe9ec58","MAX_SYNC_BATCH_MEMBERS()":"4c3ceb5b","MAX_VOTER_STAKED_PROPOSALS()":"914bdef0","RULING_OPTIONS()":"626c47e8","_isStrategyEnabled()":"8dc83094","arbitrableConfigs(uint256)":"41bb7605","batchSyncPower(address[])":"c5aab6ed","calculateProposalConviction(uint256)":"60b0645a","cloneNonce()":"33960459","collateralVault()":"0bece79c","currentArbitrableConfigVersion()":"125fd1d9","cvParams()":"2506b870","disputeCount()":"a28889e1","disputeIdToProposalId(uint256)":"255ffb38","getPoolAmount()":"4ab4ba42","isAuthorizedSyncCaller(address)":"01cf0869","pointConfig()":"a47ff7e5","pointSystem()":"2dbd6fdd","proposalCounter()":"0c0512e9","proposalExists(uint256)":"1374b22d","proposalType()":"351d9f96","registryCommunity()":"6003e414","setAuthorizedSyncCaller(address,bool)":"3eadbd0f","streamingRatePerSecond()":"94573cbb","superfluidGDA()":"1b36f56f","superfluidToken()":"05caa7f3","sybilScorer()":"b6c61f31","syncPower(address)":"9f00879c","totalPointsActivated()":"aba9ffee","totalStaked()":"817b1cd2","totalVoterStakePct(address)":"5db64b99","voterStakedProposals(address,uint256)":"868c57b8","votingPowerRegistry()":"80fd91cd"},"storageLayout":{"storage":[{"astId":84917,"contract":"pkg/contracts/src/CVStrategy/facets/CVSyncPowerFacet.sol:CVSyncPowerFacet","label":"_initialized","offset":0,"slot":"0","type":"t_uint8"},{"astId":84919,"contract":"pkg/contracts/src/CVStrategy/facets/CVSyncPowerFacet.sol:CVSyncPowerFacet","label":"_initializing","offset":1,"slot":"0","type":"t_bool"},{"astId":84923,"contract":"pkg/contracts/src/CVStrategy/facets/CVSyncPowerFacet.sol:CVSyncPowerFacet","label":"__gap_init","offset":0,"slot":"1","type":"t_array(t_uint256)50_storage"},{"astId":84926,"contract":"pkg/contracts/src/CVStrategy/facets/CVSyncPowerFacet.sol:CVSyncPowerFacet","label":"_owner","offset":0,"slot":"51","type":"t_address"},{"astId":84930,"contract":"pkg/contracts/src/CVStrategy/facets/CVSyncPowerFacet.sol:CVSyncPowerFacet","label":"__gap_ownable","offset":0,"slot":"52","type":"t_array(t_uint256)49_storage"},{"astId":84934,"contract":"pkg/contracts/src/CVStrategy/facets/CVSyncPowerFacet.sol:CVSyncPowerFacet","label":"allo","offset":0,"slot":"101","type":"t_contract(IAllo)351"},{"astId":84936,"contract":"pkg/contracts/src/CVStrategy/facets/CVSyncPowerFacet.sol:CVSyncPowerFacet","label":"strategyId","offset":0,"slot":"102","type":"t_bytes32"},{"astId":84938,"contract":"pkg/contracts/src/CVStrategy/facets/CVSyncPowerFacet.sol:CVSyncPowerFacet","label":"poolActive","offset":0,"slot":"103","type":"t_bool"},{"astId":84940,"contract":"pkg/contracts/src/CVStrategy/facets/CVSyncPowerFacet.sol:CVSyncPowerFacet","label":"poolId","offset":0,"slot":"104","type":"t_uint256"},{"astId":84942,"contract":"pkg/contracts/src/CVStrategy/facets/CVSyncPowerFacet.sol:CVSyncPowerFacet","label":"poolAmount","offset":0,"slot":"105","type":"t_uint256"},{"astId":84945,"contract":"pkg/contracts/src/CVStrategy/facets/CVSyncPowerFacet.sol:CVSyncPowerFacet","label":"collateralVaultTemplate","offset":0,"slot":"106","type":"t_address"},{"astId":84948,"contract":"pkg/contracts/src/CVStrategy/facets/CVSyncPowerFacet.sol:CVSyncPowerFacet","label":"surpressStateMutabilityWarning","offset":0,"slot":"107","type":"t_uint256"},{"astId":84951,"contract":"pkg/contracts/src/CVStrategy/facets/CVSyncPowerFacet.sol:CVSyncPowerFacet","label":"cloneNonce","offset":0,"slot":"108","type":"t_uint256"},{"astId":84954,"contract":"pkg/contracts/src/CVStrategy/facets/CVSyncPowerFacet.sol:CVSyncPowerFacet","label":"disputeCount","offset":0,"slot":"109","type":"t_uint64"},{"astId":84957,"contract":"pkg/contracts/src/CVStrategy/facets/CVSyncPowerFacet.sol:CVSyncPowerFacet","label":"proposalCounter","offset":0,"slot":"110","type":"t_uint256"},{"astId":84960,"contract":"pkg/contracts/src/CVStrategy/facets/CVSyncPowerFacet.sol:CVSyncPowerFacet","label":"currentArbitrableConfigVersion","offset":0,"slot":"111","type":"t_uint256"},{"astId":84963,"contract":"pkg/contracts/src/CVStrategy/facets/CVSyncPowerFacet.sol:CVSyncPowerFacet","label":"totalStaked","offset":0,"slot":"112","type":"t_uint256"},{"astId":84966,"contract":"pkg/contracts/src/CVStrategy/facets/CVSyncPowerFacet.sol:CVSyncPowerFacet","label":"totalPointsActivated","offset":0,"slot":"113","type":"t_uint256"},{"astId":84970,"contract":"pkg/contracts/src/CVStrategy/facets/CVSyncPowerFacet.sol:CVSyncPowerFacet","label":"cvParams","offset":0,"slot":"114","type":"t_struct(CVParams)86654_storage"},{"astId":84974,"contract":"pkg/contracts/src/CVStrategy/facets/CVSyncPowerFacet.sol:CVSyncPowerFacet","label":"proposalType","offset":0,"slot":"118","type":"t_enum(ProposalType)86554"},{"astId":84978,"contract":"pkg/contracts/src/CVStrategy/facets/CVSyncPowerFacet.sol:CVSyncPowerFacet","label":"pointSystem","offset":1,"slot":"118","type":"t_enum(PointSystem)86560"},{"astId":84982,"contract":"pkg/contracts/src/CVStrategy/facets/CVSyncPowerFacet.sol:CVSyncPowerFacet","label":"pointConfig","offset":0,"slot":"119","type":"t_struct(PointSystemConfig)86631_storage"},{"astId":84986,"contract":"pkg/contracts/src/CVStrategy/facets/CVSyncPowerFacet.sol:CVSyncPowerFacet","label":"registryCommunity","offset":0,"slot":"120","type":"t_contract(RegistryCommunity)100054"},{"astId":84990,"contract":"pkg/contracts/src/CVStrategy/facets/CVSyncPowerFacet.sol:CVSyncPowerFacet","label":"collateralVault","offset":0,"slot":"121","type":"t_contract(ICollateralVault)106139"},{"astId":84994,"contract":"pkg/contracts/src/CVStrategy/facets/CVSyncPowerFacet.sol:CVSyncPowerFacet","label":"sybilScorer","offset":0,"slot":"122","type":"t_contract(ISybilScorer)97033"},{"astId":85000,"contract":"pkg/contracts/src/CVStrategy/facets/CVSyncPowerFacet.sol:CVSyncPowerFacet","label":"proposals","offset":0,"slot":"123","type":"t_mapping(t_uint256,t_struct(Proposal)86623_storage)"},{"astId":85005,"contract":"pkg/contracts/src/CVStrategy/facets/CVSyncPowerFacet.sol:CVSyncPowerFacet","label":"totalVoterStakePct","offset":0,"slot":"124","type":"t_mapping(t_address,t_uint256)"},{"astId":85011,"contract":"pkg/contracts/src/CVStrategy/facets/CVSyncPowerFacet.sol:CVSyncPowerFacet","label":"voterStakedProposals","offset":0,"slot":"125","type":"t_mapping(t_address,t_array(t_uint256)dyn_storage)"},{"astId":85016,"contract":"pkg/contracts/src/CVStrategy/facets/CVSyncPowerFacet.sol:CVSyncPowerFacet","label":"disputeIdToProposalId","offset":0,"slot":"126","type":"t_mapping(t_uint256,t_uint256)"},{"astId":85022,"contract":"pkg/contracts/src/CVStrategy/facets/CVSyncPowerFacet.sol:CVSyncPowerFacet","label":"arbitrableConfigs","offset":0,"slot":"127","type":"t_mapping(t_uint256,t_struct(ArbitrableConfig)86645_storage)"},{"astId":85026,"contract":"pkg/contracts/src/CVStrategy/facets/CVSyncPowerFacet.sol:CVSyncPowerFacet","label":"superfluidToken","offset":0,"slot":"128","type":"t_contract(ISuperToken)75936"},{"astId":85030,"contract":"pkg/contracts/src/CVStrategy/facets/CVSyncPowerFacet.sol:CVSyncPowerFacet","label":"superfluidGDA","offset":0,"slot":"129","type":"t_contract(ISuperfluidPool)74764"},{"astId":85033,"contract":"pkg/contracts/src/CVStrategy/facets/CVSyncPowerFacet.sol:CVSyncPowerFacet","label":"streamingRatePerSecond","offset":0,"slot":"130","type":"t_uint256"},{"astId":85037,"contract":"pkg/contracts/src/CVStrategy/facets/CVSyncPowerFacet.sol:CVSyncPowerFacet","label":"votingPowerRegistry","offset":0,"slot":"131","type":"t_contract(IVotingPowerRegistry)106866"},{"astId":85042,"contract":"pkg/contracts/src/CVStrategy/facets/CVSyncPowerFacet.sol:CVSyncPowerFacet","label":"__gap","offset":0,"slot":"132","type":"t_array(t_uint256)46_storage"}],"types":{"t_address":{"encoding":"inplace","label":"address","numberOfBytes":"20"},"t_array(t_uint256)46_storage":{"encoding":"inplace","label":"uint256[46]","numberOfBytes":"1472","base":"t_uint256"},"t_array(t_uint256)49_storage":{"encoding":"inplace","label":"uint256[49]","numberOfBytes":"1568","base":"t_uint256"},"t_array(t_uint256)50_storage":{"encoding":"inplace","label":"uint256[50]","numberOfBytes":"1600","base":"t_uint256"},"t_array(t_uint256)dyn_storage":{"encoding":"dynamic_array","label":"uint256[]","numberOfBytes":"32","base":"t_uint256"},"t_bool":{"encoding":"inplace","label":"bool","numberOfBytes":"1"},"t_bytes32":{"encoding":"inplace","label":"bytes32","numberOfBytes":"32"},"t_contract(IAllo)351":{"encoding":"inplace","label":"contract IAllo","numberOfBytes":"20"},"t_contract(IArbitrator)106106":{"encoding":"inplace","label":"contract IArbitrator","numberOfBytes":"20"},"t_contract(ICollateralVault)106139":{"encoding":"inplace","label":"contract ICollateralVault","numberOfBytes":"20"},"t_contract(ISuperToken)75936":{"encoding":"inplace","label":"contract ISuperToken","numberOfBytes":"20"},"t_contract(ISuperfluidPool)74764":{"encoding":"inplace","label":"contract ISuperfluidPool","numberOfBytes":"20"},"t_contract(ISybilScorer)97033":{"encoding":"inplace","label":"contract ISybilScorer","numberOfBytes":"20"},"t_contract(IVotingPowerRegistry)106866":{"encoding":"inplace","label":"contract IVotingPowerRegistry","numberOfBytes":"20"},"t_contract(RegistryCommunity)100054":{"encoding":"inplace","label":"contract RegistryCommunity","numberOfBytes":"20"},"t_enum(PointSystem)86560":{"encoding":"inplace","label":"enum PointSystem","numberOfBytes":"1"},"t_enum(ProposalStatus)86580":{"encoding":"inplace","label":"enum ProposalStatus","numberOfBytes":"1"},"t_enum(ProposalType)86554":{"encoding":"inplace","label":"enum ProposalType","numberOfBytes":"1"},"t_mapping(t_address,t_array(t_uint256)dyn_storage)":{"encoding":"mapping","key":"t_address","label":"mapping(address => uint256[])","numberOfBytes":"32","value":"t_array(t_uint256)dyn_storage"},"t_mapping(t_address,t_uint256)":{"encoding":"mapping","key":"t_address","label":"mapping(address => uint256)","numberOfBytes":"32","value":"t_uint256"},"t_mapping(t_uint256,t_struct(ArbitrableConfig)86645_storage)":{"encoding":"mapping","key":"t_uint256","label":"mapping(uint256 => struct ArbitrableConfig)","numberOfBytes":"32","value":"t_struct(ArbitrableConfig)86645_storage"},"t_mapping(t_uint256,t_struct(Proposal)86623_storage)":{"encoding":"mapping","key":"t_uint256","label":"mapping(uint256 => struct Proposal)","numberOfBytes":"32","value":"t_struct(Proposal)86623_storage"},"t_mapping(t_uint256,t_uint256)":{"encoding":"mapping","key":"t_uint256","label":"mapping(uint256 => uint256)","numberOfBytes":"32","value":"t_uint256"},"t_string_storage":{"encoding":"bytes","label":"string","numberOfBytes":"32"},"t_struct(ArbitrableConfig)86645_storage":{"encoding":"inplace","label":"struct ArbitrableConfig","numberOfBytes":"192","members":[{"astId":86634,"contract":"pkg/contracts/src/CVStrategy/facets/CVSyncPowerFacet.sol:CVSyncPowerFacet","label":"arbitrator","offset":0,"slot":"0","type":"t_contract(IArbitrator)106106"},{"astId":86636,"contract":"pkg/contracts/src/CVStrategy/facets/CVSyncPowerFacet.sol:CVSyncPowerFacet","label":"tribunalSafe","offset":0,"slot":"1","type":"t_address"},{"astId":86638,"contract":"pkg/contracts/src/CVStrategy/facets/CVSyncPowerFacet.sol:CVSyncPowerFacet","label":"submitterCollateralAmount","offset":0,"slot":"2","type":"t_uint256"},{"astId":86640,"contract":"pkg/contracts/src/CVStrategy/facets/CVSyncPowerFacet.sol:CVSyncPowerFacet","label":"challengerCollateralAmount","offset":0,"slot":"3","type":"t_uint256"},{"astId":86642,"contract":"pkg/contracts/src/CVStrategy/facets/CVSyncPowerFacet.sol:CVSyncPowerFacet","label":"defaultRuling","offset":0,"slot":"4","type":"t_uint256"},{"astId":86644,"contract":"pkg/contracts/src/CVStrategy/facets/CVSyncPowerFacet.sol:CVSyncPowerFacet","label":"defaultRulingTimeout","offset":0,"slot":"5","type":"t_uint256"}]},"t_struct(CVParams)86654_storage":{"encoding":"inplace","label":"struct CVParams","numberOfBytes":"128","members":[{"astId":86647,"contract":"pkg/contracts/src/CVStrategy/facets/CVSyncPowerFacet.sol:CVSyncPowerFacet","label":"maxRatio","offset":0,"slot":"0","type":"t_uint256"},{"astId":86649,"contract":"pkg/contracts/src/CVStrategy/facets/CVSyncPowerFacet.sol:CVSyncPowerFacet","label":"weight","offset":0,"slot":"1","type":"t_uint256"},{"astId":86651,"contract":"pkg/contracts/src/CVStrategy/facets/CVSyncPowerFacet.sol:CVSyncPowerFacet","label":"decay","offset":0,"slot":"2","type":"t_uint256"},{"astId":86653,"contract":"pkg/contracts/src/CVStrategy/facets/CVSyncPowerFacet.sol:CVSyncPowerFacet","label":"minThresholdPoints","offset":0,"slot":"3","type":"t_uint256"}]},"t_struct(Metadata)806_storage":{"encoding":"inplace","label":"struct Metadata","numberOfBytes":"64","members":[{"astId":802,"contract":"pkg/contracts/src/CVStrategy/facets/CVSyncPowerFacet.sol:CVSyncPowerFacet","label":"protocol","offset":0,"slot":"0","type":"t_uint256"},{"astId":805,"contract":"pkg/contracts/src/CVStrategy/facets/CVSyncPowerFacet.sol:CVSyncPowerFacet","label":"pointer","offset":0,"slot":"1","type":"t_string_storage"}]},"t_struct(PointSystemConfig)86631_storage":{"encoding":"inplace","label":"struct PointSystemConfig","numberOfBytes":"32","members":[{"astId":86630,"contract":"pkg/contracts/src/CVStrategy/facets/CVSyncPowerFacet.sol:CVSyncPowerFacet","label":"maxAmount","offset":0,"slot":"0","type":"t_uint256"}]},"t_struct(Proposal)86623_storage":{"encoding":"inplace","label":"struct Proposal","numberOfBytes":"576","members":[{"astId":86589,"contract":"pkg/contracts/src/CVStrategy/facets/CVSyncPowerFacet.sol:CVSyncPowerFacet","label":"proposalId","offset":0,"slot":"0","type":"t_uint256"},{"astId":86591,"contract":"pkg/contracts/src/CVStrategy/facets/CVSyncPowerFacet.sol:CVSyncPowerFacet","label":"requestedAmount","offset":0,"slot":"1","type":"t_uint256"},{"astId":86593,"contract":"pkg/contracts/src/CVStrategy/facets/CVSyncPowerFacet.sol:CVSyncPowerFacet","label":"stakedAmount","offset":0,"slot":"2","type":"t_uint256"},{"astId":86595,"contract":"pkg/contracts/src/CVStrategy/facets/CVSyncPowerFacet.sol:CVSyncPowerFacet","label":"convictionLast","offset":0,"slot":"3","type":"t_uint256"},{"astId":86597,"contract":"pkg/contracts/src/CVStrategy/facets/CVSyncPowerFacet.sol:CVSyncPowerFacet","label":"beneficiary","offset":0,"slot":"4","type":"t_address"},{"astId":86599,"contract":"pkg/contracts/src/CVStrategy/facets/CVSyncPowerFacet.sol:CVSyncPowerFacet","label":"submitter","offset":0,"slot":"5","type":"t_address"},{"astId":86601,"contract":"pkg/contracts/src/CVStrategy/facets/CVSyncPowerFacet.sol:CVSyncPowerFacet","label":"requestedToken","offset":0,"slot":"6","type":"t_address"},{"astId":86603,"contract":"pkg/contracts/src/CVStrategy/facets/CVSyncPowerFacet.sol:CVSyncPowerFacet","label":"blockLast","offset":0,"slot":"7","type":"t_uint256"},{"astId":86606,"contract":"pkg/contracts/src/CVStrategy/facets/CVSyncPowerFacet.sol:CVSyncPowerFacet","label":"proposalStatus","offset":0,"slot":"8","type":"t_enum(ProposalStatus)86580"},{"astId":86610,"contract":"pkg/contracts/src/CVStrategy/facets/CVSyncPowerFacet.sol:CVSyncPowerFacet","label":"voterStakedPoints","offset":0,"slot":"9","type":"t_mapping(t_address,t_uint256)"},{"astId":86613,"contract":"pkg/contracts/src/CVStrategy/facets/CVSyncPowerFacet.sol:CVSyncPowerFacet","label":"metadata","offset":0,"slot":"10","type":"t_struct(Metadata)806_storage"},{"astId":86616,"contract":"pkg/contracts/src/CVStrategy/facets/CVSyncPowerFacet.sol:CVSyncPowerFacet","label":"disputeInfo","offset":0,"slot":"12","type":"t_struct(ProposalDisputeInfo)86587_storage"},{"astId":86618,"contract":"pkg/contracts/src/CVStrategy/facets/CVSyncPowerFacet.sol:CVSyncPowerFacet","label":"lastDisputeCompletion","offset":0,"slot":"15","type":"t_uint256"},{"astId":86620,"contract":"pkg/contracts/src/CVStrategy/facets/CVSyncPowerFacet.sol:CVSyncPowerFacet","label":"arbitrableConfigVersion","offset":0,"slot":"16","type":"t_uint256"},{"astId":86622,"contract":"pkg/contracts/src/CVStrategy/facets/CVSyncPowerFacet.sol:CVSyncPowerFacet","label":"creationTimestamp","offset":0,"slot":"17","type":"t_uint256"}]},"t_struct(ProposalDisputeInfo)86587_storage":{"encoding":"inplace","label":"struct ProposalDisputeInfo","numberOfBytes":"96","members":[{"astId":86582,"contract":"pkg/contracts/src/CVStrategy/facets/CVSyncPowerFacet.sol:CVSyncPowerFacet","label":"disputeId","offset":0,"slot":"0","type":"t_uint256"},{"astId":86584,"contract":"pkg/contracts/src/CVStrategy/facets/CVSyncPowerFacet.sol:CVSyncPowerFacet","label":"disputeTimestamp","offset":0,"slot":"1","type":"t_uint256"},{"astId":86586,"contract":"pkg/contracts/src/CVStrategy/facets/CVSyncPowerFacet.sol:CVSyncPowerFacet","label":"challenger","offset":0,"slot":"2","type":"t_address"}]},"t_uint256":{"encoding":"inplace","label":"uint256","numberOfBytes":"32"},"t_uint64":{"encoding":"inplace","label":"uint64","numberOfBytes":"8"},"t_uint8":{"encoding":"inplace","label":"uint8","numberOfBytes":"1"}}},"id":142}