{"abi":[{"type":"function","name":"DISPUTE_COOLDOWN_SEC","inputs":[],"outputs":[{"name":"","type":"uint256","internalType":"uint256"}],"stateMutability":"view"},{"type":"function","name":"RULING_OPTIONS","inputs":[],"outputs":[{"name":"","type":"uint256","internalType":"uint256"}],"stateMutability":"view"},{"type":"function","name":"_isStrategyEnabled","inputs":[],"outputs":[{"name":"","type":"bool","internalType":"bool"}],"stateMutability":"view"},{"type":"function","name":"arbitrableConfigs","inputs":[{"name":"","type":"uint256","internalType":"uint256"}],"outputs":[{"name":"arbitrator","type":"address","internalType":"contract IArbitrator"},{"name":"tribunalSafe","type":"address","internalType":"address"},{"name":"submitterCollateralAmount","type":"uint256","internalType":"uint256"},{"name":"challengerCollateralAmount","type":"uint256","internalType":"uint256"},{"name":"defaultRuling","type":"uint256","internalType":"uint256"},{"name":"defaultRulingTimeout","type":"uint256","internalType":"uint256"}],"stateMutability":"view"},{"type":"function","name":"batchSyncPower","inputs":[{"name":"_members","type":"address[]","internalType":"address[]"}],"outputs":[],"stateMutability":"nonpayable"},{"type":"function","name":"calculateProposalConviction","inputs":[{"name":"_proposalId","type":"uint256","internalType":"uint256"}],"outputs":[{"name":"","type":"uint256","internalType":"uint256"}],"stateMutability":"view"},{"type":"function","name":"cloneNonce","inputs":[],"outputs":[{"name":"","type":"uint256","internalType":"uint256"}],"stateMutability":"view"},{"type":"function","name":"collateralVault","inputs":[],"outputs":[{"name":"","type":"address","internalType":"contract ICollateralVault"}],"stateMutability":"view"},{"type":"function","name":"currentArbitrableConfigVersion","inputs":[],"outputs":[{"name":"","type":"uint256","internalType":"uint256"}],"stateMutability":"view"},{"type":"function","name":"cvParams","inputs":[],"outputs":[{"name":"maxRatio","type":"uint256","internalType":"uint256"},{"name":"weight","type":"uint256","internalType":"uint256"},{"name":"decay","type":"uint256","internalType":"uint256"},{"name":"minThresholdPoints","type":"uint256","internalType":"uint256"}],"stateMutability":"view"},{"type":"function","name":"disputeCount","inputs":[],"outputs":[{"name":"","type":"uint64","internalType":"uint64"}],"stateMutability":"view"},{"type":"function","name":"disputeIdToProposalId","inputs":[{"name":"","type":"uint256","internalType":"uint256"}],"outputs":[{"name":"","type":"uint256","internalType":"uint256"}],"stateMutability":"view"},{"type":"function","name":"getPoolAmount","inputs":[],"outputs":[{"name":"","type":"uint256","internalType":"uint256"}],"stateMutability":"view"},{"type":"function","name":"isAuthorizedSyncCaller","inputs":[{"name":"_caller","type":"address","internalType":"address"}],"outputs":[{"name":"","type":"bool","internalType":"bool"}],"stateMutability":"view"},{"type":"function","name":"pointConfig","inputs":[],"outputs":[{"name":"maxAmount","type":"uint256","internalType":"uint256"}],"stateMutability":"view"},{"type":"function","name":"pointSystem","inputs":[],"outputs":[{"name":"","type":"uint8","internalType":"enum PointSystem"}],"stateMutability":"view"},{"type":"function","name":"proposalCounter","inputs":[],"outputs":[{"name":"","type":"uint256","internalType":"uint256"}],"stateMutability":"view"},{"type":"function","name":"proposalExists","inputs":[{"name":"_proposalID","type":"uint256","internalType":"uint256"}],"outputs":[{"name":"","type":"bool","internalType":"bool"}],"stateMutability":"view"},{"type":"function","name":"proposalType","inputs":[],"outputs":[{"name":"","type":"uint8","internalType":"enum ProposalType"}],"stateMutability":"view"},{"type":"function","name":"registryCommunity","inputs":[],"outputs":[{"name":"","type":"address","internalType":"contract RegistryCommunity"}],"stateMutability":"view"},{"type":"function","name":"setAuthorizedSyncCaller","inputs":[{"name":"_caller","type":"address","internalType":"address"},{"name":"_authorized","type":"bool","internalType":"bool"}],"outputs":[],"stateMutability":"nonpayable"},{"type":"function","name":"streamingRatePerSecond","inputs":[],"outputs":[{"name":"","type":"uint256","internalType":"uint256"}],"stateMutability":"view"},{"type":"function","name":"superfluidGDA","inputs":[],"outputs":[{"name":"","type":"address","internalType":"contract ISuperfluidPool"}],"stateMutability":"view"},{"type":"function","name":"superfluidToken","inputs":[],"outputs":[{"name":"","type":"address","internalType":"contract ISuperToken"}],"stateMutability":"view"},{"type":"function","name":"sybilScorer","inputs":[],"outputs":[{"name":"","type":"address","internalType":"contract ISybilScorer"}],"stateMutability":"view"},{"type":"function","name":"syncPower","inputs":[{"name":"_member","type":"address","internalType":"address"}],"outputs":[],"stateMutability":"nonpayable"},{"type":"function","name":"totalPointsActivated","inputs":[],"outputs":[{"name":"","type":"uint256","internalType":"uint256"}],"stateMutability":"view"},{"type":"function","name":"totalStaked","inputs":[],"outputs":[{"name":"","type":"uint256","internalType":"uint256"}],"stateMutability":"view"},{"type":"function","name":"totalVoterStakePct","inputs":[{"name":"","type":"address","internalType":"address"}],"outputs":[{"name":"","type":"uint256","internalType":"uint256"}],"stateMutability":"view"},{"type":"function","name":"voterStakedProposals","inputs":[{"name":"","type":"address","internalType":"address"},{"name":"","type":"uint256","internalType":"uint256"}],"outputs":[{"name":"","type":"uint256","internalType":"uint256"}],"stateMutability":"view"},{"type":"function","name":"votingPowerRegistry","inputs":[],"outputs":[{"name":"","type":"address","internalType":"contract IVotingPowerRegistry"}],"stateMutability":"view"},{"type":"event","name":"AuthorizedSyncCallerUpdated","inputs":[{"name":"caller","type":"address","indexed":true,"internalType":"address"},{"name":"authorized","type":"bool","indexed":false,"internalType":"bool"}],"anonymous":false},{"type":"event","name":"MemberPowerRevoked","inputs":[{"name":"member","type":"address","indexed":true,"internalType":"address"},{"name":"powerRemoved","type":"uint256","indexed":false,"internalType":"uint256"}],"anonymous":false},{"type":"event","name":"PowerSynced","inputs":[{"name":"member","type":"address","indexed":true,"internalType":"address"},{"name":"oldPower","type":"uint256","indexed":false,"internalType":"uint256"},{"name":"newPower","type":"uint256","indexed":false,"internalType":"uint256"}],"anonymous":false},{"type":"event","name":"SupportAdded","inputs":[{"name":"from","type":"address","indexed":false,"internalType":"address"},{"name":"proposalId","type":"uint256","indexed":false,"internalType":"uint256"},{"name":"amount","type":"uint256","indexed":false,"internalType":"uint256"},{"name":"totalStakedAmount","type":"uint256","indexed":false,"internalType":"uint256"},{"name":"convictionLast","type":"uint256","indexed":false,"internalType":"uint256"}],"anonymous":false},{"type":"error","name":"NotAuthorizedSyncCaller","inputs":[{"name":"caller","type":"address","internalType":"address"}]},{"type":"error","name":"OnlyActiveProposal","inputs":[{"name":"proposalId","type":"uint256","internalType":"uint256"}]},{"type":"error","name":"OnlyAllo","inputs":[{"name":"sender","type":"address","internalType":"address"},{"name":"allo","type":"address","internalType":"address"}]},{"type":"error","name":"OnlyCouncilSafe","inputs":[{"name":"sender","type":"address","internalType":"address"},{"name":"councilSafe","type":"address","internalType":"address"},{"name":"owner","type":"address","internalType":"address"}]},{"type":"error","name":"OnlyCouncilSafeOrMember","inputs":[{"name":"sender","type":"address","internalType":"address"},{"name":"councilSafe","type":"address","internalType":"address"}]},{"type":"error","name":"OnlyInitialized","inputs":[{"name":"poolId","type":"uint256","internalType":"uint256"}]},{"type":"error","name":"OnlyMember","inputs":[{"name":"wallet","type":"address","internalType":"address"},{"name":"community","type":"address","internalType":"address"}]},{"type":"error","name":"OnlyOwner","inputs":[{"name":"sender","type":"address","internalType":"address"},{"name":"ownerAddress","type":"address","internalType":"address"}]},{"type":"error","name":"OnlyRegistryCommunity","inputs":[{"name":"sender","type":"address","internalType":"address"},{"name":"registry","type":"address","internalType":"address"}]},{"type":"error","name":"OnlySubmitter","inputs":[{"name":"proposalId","type":"uint256","internalType":"uint256"},{"name":"submitter","type":"address","internalType":"address"},{"name":"sender","type":"address","internalType":"address"}]},{"type":"error","name":"ProposalDoesNotExist","inputs":[{"name":"proposalID","type":"uint256","internalType":"uint256"}]},{"type":"error","name":"StrategyPaused","inputs":[{"name":"controller","type":"address","internalType":"address"}]},{"type":"error","name":"StrategySelectorPaused","inputs":[{"name":"selector","type":"bytes4","internalType":"bytes4"},{"name":"controller","type":"address","internalType":"address"}]}],"bytecode":{"object":"0x608060405234801561000f575f80fd5b5061182d8061001d5f395ff3fe608060405234801561000f575f80fd5b5060043610610173575f3560e01c806301cf08691461017757806305caa7f31461019f5780630bece79c146101bf5780630c0512e9146101d2578063125fd1d9146101e95780631374b22d146101f25780631b36f56f146102055780632506b87014610218578063255ffb381461023e5780632dbd6fdd1461025d578063339604591461027c578063351d9f96146102855780633eadbd0f1461029f57806341bb7605146102b45780634ab4ba421461033b5780635db64b99146103435780636003e4141461036257806360b0645a14610375578063626c47e81461038857806380fd91cd14610390578063817b1cd2146103a3578063868c57b8146103ac5780638dc83094146103bf57806394573cbb146103c75780639f00879c146103d0578063a28889e1146103e3578063a47ff7e51461040e578063aba9ffee14610418578063b6c61f3114610421578063c5aab6ed14610434578063f5be3f7c14610447575b5f80fd5b61018a6101853660046112a8565b610450565b60405190151581526020015b60405180910390f35b6080546101b2906001600160a01b031681565b60405161019691906112c3565b6079546101b2906001600160a01b031681565b6101db606e5481565b604051908152602001610196565b6101db606f5481565b61018a6102003660046112d7565b61047a565b6081546101b2906001600160a01b031681565b60725460735460745460755461022e9392919084565b60405161019694939291906112ee565b6101db61024c3660046112d7565b607e6020525f908152604090205481565b60765461026f90610100900460ff1681565b604051610196919061131d565b6101db606c5481565b6076546102929060ff1681565b6040516101969190611337565b6102b26102ad366004611358565b6104b4565b005b6103036102c23660046112d7565b607f6020525f90815260409020805460018201546002830154600384015460048501546005909501546001600160a01b039485169593909416939192909186565b604080516001600160a01b039788168152969095166020870152938501929092526060840152608083015260a082015260c001610196565b6101db610524565b6101db6103513660046112a8565b607c6020525f908152604090205481565b6078546101b2906001600160a01b031681565b6101db6103833660046112d7565b6107a3565b6101db600381565b6083546101b2906001600160a01b031681565b6101db60705481565b6101db6103ba36600461138f565b610867565b61018a610892565b6101db60825481565b6102b26103de3660046112a8565b61091e565b606d546103f6906001600160401b031681565b6040516001600160401b039091168152602001610196565b6077546101db9081565b6101db60715481565b607a546101b2906001600160a01b031681565b6102b26104423660046113b9565b61096d565b6101db611c2081565b5f6104596109ed565b6001600160a01b039092165f90815260209290925250604090205460ff1690565b5f818152607b6020526040812054158015906104ae57505f828152607b60205260409020600501546001600160a01b031615155b92915050565b6104bc610a11565b806104c56109ed565b6001600160a01b0384165f8181526020928352604090819020805460ff191694151594909417909355915183151581527fdc4bc50c08bb8640c035394efdd158745a6339f90cc1085113665114780405b3910160405180910390a25050565b60655460685460405163068bcd8d60e01b81525f9283926001600160a01b039091169163068bcd8d9161055d9160040190815260200190565b5f60405180830381865afa158015610577573d5f803e3d5ffd5b505050506040513d5f823e601f3d908101601f1916820160405261059e91908101906114b5565b60400151905073eeeeeeeeeeeeeeeeeeeeeeeeeeeeeeeeeeeeeeed196001600160a01b038216016105d0574791505090565b6040516370a0823160e01b81525f906001600160a01b038316906370a08231906105fe9030906004016112c3565b602060405180830381865afa158015610619573d5f803e3d5ffd5b505050506040513d601f19601f8201168201806040525081019061063d91906115fa565b6080549091505f906001600160a01b0316156106c7576080546040516370a0823160e01b81526001600160a01b03909116906370a08231906106839030906004016112c3565b602060405180830381865afa15801561069e573d5f803e3d5ffd5b505050506040513d601f19601f820116820180604052508101906106c291906115fa565b6106c9565b5f5b90505f836001600160a01b031663313ce5676040518163ffffffff1660e01b8152600401602060405180830381865afa158015610708573d5f803e3d5ffd5b505050506040513d601f19601f8201168201806040525081019061072c9190611611565b905060128160ff16101561076157610745816012611645565b61075090600a61173e565b61075a908361174c565b9150610790565b60128160ff16111561079057610778601282611645565b61078390600a61173e565b61078d908361176b565b91505b61079a8284611782565b94505050505090565b5f818152607b602052604081206107b8610892565b6107c6576003015492915050565b73__$f1b7c69ba751c396eddc93d3bbc5414fd9$__63010dfe648260070154436107f09190611795565b600384015460028501546074546040516001600160e01b031960e087901b16815261082194939291906004016112ee565b602060405180830381865af415801561083c573d5f803e3d5ffd5b505050506040513d601f19601f8201168201806040525081019061086091906115fa565b9392505050565b607d602052815f5260405f208181548110610880575f80fd5b905f5260205f20015f91509150505481565b6078545f906001600160a01b03166108aa5750600190565b607854604051633a871fe160e01b81526001600160a01b0390911690633a871fe1906108da9030906004016112c3565b602060405180830381865afa1580156108f5573d5f803e3d5ffd5b505050506040513d601f19601f8201168201806040525081019061091991906117a8565b905090565b6109266109ed565b335f908152602091909152604090205460ff166109615733604051630cc9c3c960e21b815260040161095891906112c3565b60405180910390fd5b61096a81610b6e565b50565b6109756109ed565b335f908152602091909152604090205460ff166109a75733604051630cc9c3c960e21b815260040161095891906112c3565b5f5b818110156109e8576109e08383838181106109c6576109c66117c3565b90506020020160208101906109db91906112a8565b610b6e565b6001016109a9565b505050565b7f097c5f51be6c161c250a24cddb93265814159688a8e402290bbba8f3d8b83b9b90565b60785f9054906101000a90046001600160a01b03166001600160a01b0316636c53db9a6040518163ffffffff1660e01b8152600401602060405180830381865afa158015610a61573d5f803e3d5ffd5b505050506040513d601f19601f82011682018060405250810190610a8591906117d7565b6001600160a01b0316336001600160a01b031614158015610abf5750610aa9610ddd565b6001600160a01b0316336001600160a01b031614155b15610b6c5760785460408051633629edcd60e11b8152905133926001600160a01b031691636c53db9a9160048083019260209291908290030181865afa158015610b0b573d5f803e3d5ffd5b505050506040513d601f19601f82011682018060405250810190610b2f91906117d7565b610b37610ddd565b60405163e1b9c46960e01b81526001600160a01b03938416600482015291831660248301529091166044820152606401610958565b565b5f610b776109ed565b6001600160a01b0383165f9081526002820160205260408120549192509060ff16610c1357607854604051637817ee4f60e01b81526001600160a01b0390911690637817ee4f90610bce90869030906004016117f2565b6020604051808303815f875af1158015610bea573d5f803e3d5ffd5b505050506040513d601f19601f82011682018060405250810190610c0e91906115fa565b610c2e565b6001600160a01b0383165f9081526001830160205260409020545b608354604051637817ee4f60e01b81529192505f916001600160a01b0390911690637817ee4f90610c6590879030906004016117f2565b602060405180830381865afa158015610c80573d5f803e3d5ffd5b505050506040513d601f19601f82011682018060405250810190610ca491906115fa565b9050818103610ce9576001600160a01b039093165f90815260018084016020908152604080842096909655600290940190935292909220805460ff1916909117905550565b81811015610d52575f610cfc8284611795565b9050610d09858285610ea9565b846001600160a01b03167fed6e9ae347ffc36255be883bfbc2418b6ff8f375ffbcb034274d6d0e777796b882604051610d4491815260200190565b60405180910390a250610d6b565b5f610d5d8383611795565b9050610d698582610f97565b505b6001600160a01b0384165f81815260018581016020908152604080842086905560028801825292839020805460ff191690921790915581518581529081018490527ffea97331442afdbc594d85581044888f2017b81e8f177087ddfdf14626db15ed910160405180910390a250505050565b5f80610e107fc8fcad8db84d3cc18b4c41d551ea0ee66dd599cde068d998e57d5e09332c131f546001600160a01b031690565b9050806001600160a01b03163b5f03610e2857919050565b806001600160a01b0316638da5cb5b6040518163ffffffff1660e01b8152600401602060405180830381865afa925050508015610e82575060408051601f3d908101601f19168201909252610e7f918101906117d7565b60015b610e8b57919050565b6001600160a01b03811615610ea05780610ea2565b815b9250505090565b6001600160a01b0383165f908152607c6020526040812054908290828211610ed1575f610edb565b610edb8383611795565b90508481108015610eeb57505f83115b15610f79575f610efb8287611795565b90505f610f0c85608084901b61174c565b90505f5b6001600160a01b0389165f908152607d6020526040902054811015610f75576001600160a01b0389165f908152607d602052604090208054610f6d918b9184908110610f5e57610f5e6117c3565b905f5260205f2001548461102b565b600101610f10565b5050505b8460715f828254610f8a9190611795565b9091555050505050505050565b60785460405163011de97360e61b81525f916001600160a01b03169063477a5cc090610fc990869030906004016117f2565b602060405180830381865afa158015610fe4573d5f803e3d5ffd5b505050506040513d601f19601f8201168201806040525081019061100891906117a8565b905080156109e8578160715f8282546110219190611782565b9091555050505050565b5f828152607b602090815260408083206001600160a01b0387168452600981019092528220549091608061105f858461176b565b61106d906001607f1b611782565b611078911c83611795565b90505f6110858284611795565b60028501805491925082905f61109b8385611795565b90915550506001600160a01b0388165f9081526009860160205260408120849055607080548492906110ce908490611795565b90915550506001600160a01b0388165f908152607c6020526040812080548492906110fa908490611795565b9091555061110a90508582611175565b60028501546003860154604080516001600160a01b038c168152602081018b9052908101869052606081019290925260808201527f0227f642ddcf2042ceaeafadb9d540f432072c00cd4862881667168dcc14710f9060a00160405180910390a15050505050505050565b5f8061118184846111ae565b91509150815f148015611192575080155b1561119d5750505050565b600784015560039092019190915550565b5f806111b8610892565b6111c957505060038201544361128d565b43905080846007015411156111e0576111e061180c565b808460070154036111f557505f90508061128d565b73__$f1b7c69ba751c396eddc93d3bbc5414fd9$__63010dfe6485600701548361121f9190611795565b60038701546074546040516001600160e01b031960e086901b16815261124b93929189916004016112ee565b602060405180830381865af4158015611266573d5f803e3d5ffd5b505050506040513d601f19601f8201168201806040525081019061128a91906115fa565b91505b9250929050565b6001600160a01b038116811461096a575f80fd5b5f602082840312156112b8575f80fd5b813561086081611294565b6001600160a01b0391909116815260200190565b5f602082840312156112e7575f80fd5b5035919050565b93845260208401929092526040830152606082015260800190565b634e487b7160e01b5f52602160045260245ffd5b602081016005831061133157611331611309565b91905290565b602081016003831061133157611331611309565b801515811461096a575f80fd5b5f8060408385031215611369575f80fd5b823561137481611294565b915060208301356113848161134b565b809150509250929050565b5f80604083850312156113a0575f80fd5b82356113ab81611294565b946020939093013593505050565b5f80602083850312156113ca575f80fd5b82356001600160401b03808211156113e0575f80fd5b818501915085601f8301126113f3575f80fd5b813581811115611401575f80fd5b8660208260051b8501011115611415575f80fd5b60209290920196919550909350505050565b634e487b7160e01b5f52604160045260245ffd5b60405160c081016001600160401b038111828210171561145d5761145d611427565b60405290565b604080519081016001600160401b038111828210171561145d5761145d611427565b604051601f8201601f191681016001600160401b03811182821017156114ad576114ad611427565b604052919050565b5f60208083850312156114c6575f80fd5b82516001600160401b03808211156114dc575f80fd5b9084019060c082870312156114ef575f80fd5b6114f761143b565b825181528383015161150881611294565b81850152604083015161151a81611294565b6040820152606083015182811115611530575f80fd5b830160408189031215611541575f80fd5b611549611463565b81518152858201518481111561155d575f80fd5b80830192505088601f830112611571575f80fd5b81518481111561158357611583611427565b611595601f8201601f19168801611485565b945080855289878285010111156115aa575f80fd5b5f5b818110156115c75783810188015186820189015287016115ac565b505f908501870152948501929092526060810193909352506080818101519083015260a090810151908201529392505050565b5f6020828403121561160a575f80fd5b5051919050565b5f60208284031215611621575f80fd5b815160ff81168114610860575f80fd5b634e487b7160e01b5f52601160045260245ffd5b60ff82811682821603908111156104ae576104ae611631565b600181815b8085111561169857815f190482111561167e5761167e611631565b8085161561168b57918102915b93841c9390800290611663565b509250929050565b5f826116ae575060016104ae565b816116ba57505f6104ae565b81600181146116d057600281146116da576116f6565b60019150506104ae565b60ff8411156116eb576116eb611631565b50506001821b6104ae565b5060208310610133831016604e8410600b8410161715611719575081810a6104ae565b611723838361165e565b805f190482111561173657611736611631565b029392505050565b5f61086060ff8416836116a0565b5f8261176657634e487b7160e01b5f52601260045260245ffd5b500490565b80820281158282048414176104ae576104ae611631565b808201808211156104ae576104ae611631565b818103818111156104ae576104ae611631565b5f602082840312156117b8575f80fd5b81516108608161134b565b634e487b7160e01b5f52603260045260245ffd5b5f602082840312156117e7575f80fd5b815161086081611294565b6001600160a01b0392831681529116602082015260400190565b634e487b7160e01b5f52600160045260245ffdfea164736f6c6343000817000a","linkReferences":{"pkg/contracts/src/CVStrategy/ConvictionsUtils.sol":{"ConvictionsUtils":[{"start":2021,"length":20},{"start":4628,"length":20}]}}},"methodIdentifiers":{"DISPUTE_COOLDOWN_SEC()":"f5be3f7c","RULING_OPTIONS()":"626c47e8","_isStrategyEnabled()":"8dc83094","arbitrableConfigs(uint256)":"41bb7605","batchSyncPower(address[])":"c5aab6ed","calculateProposalConviction(uint256)":"60b0645a","cloneNonce()":"33960459","collateralVault()":"0bece79c","currentArbitrableConfigVersion()":"125fd1d9","cvParams()":"2506b870","disputeCount()":"a28889e1","disputeIdToProposalId(uint256)":"255ffb38","getPoolAmount()":"4ab4ba42","isAuthorizedSyncCaller(address)":"01cf0869","pointConfig()":"a47ff7e5","pointSystem()":"2dbd6fdd","proposalCounter()":"0c0512e9","proposalExists(uint256)":"1374b22d","proposalType()":"351d9f96","registryCommunity()":"6003e414","setAuthorizedSyncCaller(address,bool)":"3eadbd0f","streamingRatePerSecond()":"94573cbb","superfluidGDA()":"1b36f56f","superfluidToken()":"05caa7f3","sybilScorer()":"b6c61f31","syncPower(address)":"9f00879c","totalPointsActivated()":"aba9ffee","totalStaked()":"817b1cd2","totalVoterStakePct(address)":"5db64b99","voterStakedProposals(address,uint256)":"868c57b8","votingPowerRegistry()":"80fd91cd"},"storageLayout":{"storage":[{"astId":106920,"contract":"pkg/contracts/src/CVStrategy/facets/CVSyncPowerFacet.sol:CVSyncPowerFacet","label":"_initialized","offset":0,"slot":"0","type":"t_uint8"},{"astId":106922,"contract":"pkg/contracts/src/CVStrategy/facets/CVSyncPowerFacet.sol:CVSyncPowerFacet","label":"_initializing","offset":1,"slot":"0","type":"t_bool"},{"astId":106926,"contract":"pkg/contracts/src/CVStrategy/facets/CVSyncPowerFacet.sol:CVSyncPowerFacet","label":"__gap_init","offset":0,"slot":"1","type":"t_array(t_uint256)50_storage"},{"astId":106929,"contract":"pkg/contracts/src/CVStrategy/facets/CVSyncPowerFacet.sol:CVSyncPowerFacet","label":"_owner","offset":0,"slot":"51","type":"t_address"},{"astId":106933,"contract":"pkg/contracts/src/CVStrategy/facets/CVSyncPowerFacet.sol:CVSyncPowerFacet","label":"__gap_ownable","offset":0,"slot":"52","type":"t_array(t_uint256)49_storage"},{"astId":106937,"contract":"pkg/contracts/src/CVStrategy/facets/CVSyncPowerFacet.sol:CVSyncPowerFacet","label":"allo","offset":0,"slot":"101","type":"t_contract(IAllo)2631"},{"astId":106939,"contract":"pkg/contracts/src/CVStrategy/facets/CVSyncPowerFacet.sol:CVSyncPowerFacet","label":"strategyId","offset":0,"slot":"102","type":"t_bytes32"},{"astId":106941,"contract":"pkg/contracts/src/CVStrategy/facets/CVSyncPowerFacet.sol:CVSyncPowerFacet","label":"poolActive","offset":0,"slot":"103","type":"t_bool"},{"astId":106943,"contract":"pkg/contracts/src/CVStrategy/facets/CVSyncPowerFacet.sol:CVSyncPowerFacet","label":"poolId","offset":0,"slot":"104","type":"t_uint256"},{"astId":106945,"contract":"pkg/contracts/src/CVStrategy/facets/CVSyncPowerFacet.sol:CVSyncPowerFacet","label":"poolAmount","offset":0,"slot":"105","type":"t_uint256"},{"astId":106948,"contract":"pkg/contracts/src/CVStrategy/facets/CVSyncPowerFacet.sol:CVSyncPowerFacet","label":"collateralVaultTemplate","offset":0,"slot":"106","type":"t_address"},{"astId":106951,"contract":"pkg/contracts/src/CVStrategy/facets/CVSyncPowerFacet.sol:CVSyncPowerFacet","label":"surpressStateMutabilityWarning","offset":0,"slot":"107","type":"t_uint256"},{"astId":106954,"contract":"pkg/contracts/src/CVStrategy/facets/CVSyncPowerFacet.sol:CVSyncPowerFacet","label":"cloneNonce","offset":0,"slot":"108","type":"t_uint256"},{"astId":106957,"contract":"pkg/contracts/src/CVStrategy/facets/CVSyncPowerFacet.sol:CVSyncPowerFacet","label":"disputeCount","offset":0,"slot":"109","type":"t_uint64"},{"astId":106960,"contract":"pkg/contracts/src/CVStrategy/facets/CVSyncPowerFacet.sol:CVSyncPowerFacet","label":"proposalCounter","offset":0,"slot":"110","type":"t_uint256"},{"astId":106963,"contract":"pkg/contracts/src/CVStrategy/facets/CVSyncPowerFacet.sol:CVSyncPowerFacet","label":"currentArbitrableConfigVersion","offset":0,"slot":"111","type":"t_uint256"},{"astId":106966,"contract":"pkg/contracts/src/CVStrategy/facets/CVSyncPowerFacet.sol:CVSyncPowerFacet","label":"totalStaked","offset":0,"slot":"112","type":"t_uint256"},{"astId":106969,"contract":"pkg/contracts/src/CVStrategy/facets/CVSyncPowerFacet.sol:CVSyncPowerFacet","label":"totalPointsActivated","offset":0,"slot":"113","type":"t_uint256"},{"astId":106973,"contract":"pkg/contracts/src/CVStrategy/facets/CVSyncPowerFacet.sol:CVSyncPowerFacet","label":"cvParams","offset":0,"slot":"114","type":"t_struct(CVParams)108489_storage"},{"astId":106977,"contract":"pkg/contracts/src/CVStrategy/facets/CVSyncPowerFacet.sol:CVSyncPowerFacet","label":"proposalType","offset":0,"slot":"118","type":"t_enum(ProposalType)108389"},{"astId":106981,"contract":"pkg/contracts/src/CVStrategy/facets/CVSyncPowerFacet.sol:CVSyncPowerFacet","label":"pointSystem","offset":1,"slot":"118","type":"t_enum(PointSystem)108395"},{"astId":106985,"contract":"pkg/contracts/src/CVStrategy/facets/CVSyncPowerFacet.sol:CVSyncPowerFacet","label":"pointConfig","offset":0,"slot":"119","type":"t_struct(PointSystemConfig)108466_storage"},{"astId":106989,"contract":"pkg/contracts/src/CVStrategy/facets/CVSyncPowerFacet.sol:CVSyncPowerFacet","label":"registryCommunity","offset":0,"slot":"120","type":"t_contract(RegistryCommunity)118711"},{"astId":106993,"contract":"pkg/contracts/src/CVStrategy/facets/CVSyncPowerFacet.sol:CVSyncPowerFacet","label":"collateralVault","offset":0,"slot":"121","type":"t_contract(ICollateralVault)124469"},{"astId":106997,"contract":"pkg/contracts/src/CVStrategy/facets/CVSyncPowerFacet.sol:CVSyncPowerFacet","label":"sybilScorer","offset":0,"slot":"122","type":"t_contract(ISybilScorer)116128"},{"astId":107003,"contract":"pkg/contracts/src/CVStrategy/facets/CVSyncPowerFacet.sol:CVSyncPowerFacet","label":"proposals","offset":0,"slot":"123","type":"t_mapping(t_uint256,t_struct(Proposal)108458_storage)"},{"astId":107008,"contract":"pkg/contracts/src/CVStrategy/facets/CVSyncPowerFacet.sol:CVSyncPowerFacet","label":"totalVoterStakePct","offset":0,"slot":"124","type":"t_mapping(t_address,t_uint256)"},{"astId":107014,"contract":"pkg/contracts/src/CVStrategy/facets/CVSyncPowerFacet.sol:CVSyncPowerFacet","label":"voterStakedProposals","offset":0,"slot":"125","type":"t_mapping(t_address,t_array(t_uint256)dyn_storage)"},{"astId":107019,"contract":"pkg/contracts/src/CVStrategy/facets/CVSyncPowerFacet.sol:CVSyncPowerFacet","label":"disputeIdToProposalId","offset":0,"slot":"126","type":"t_mapping(t_uint256,t_uint256)"},{"astId":107025,"contract":"pkg/contracts/src/CVStrategy/facets/CVSyncPowerFacet.sol:CVSyncPowerFacet","label":"arbitrableConfigs","offset":0,"slot":"127","type":"t_mapping(t_uint256,t_struct(ArbitrableConfig)108480_storage)"},{"astId":107029,"contract":"pkg/contracts/src/CVStrategy/facets/CVSyncPowerFacet.sol:CVSyncPowerFacet","label":"superfluidToken","offset":0,"slot":"128","type":"t_contract(ISuperToken)80098"},{"astId":107033,"contract":"pkg/contracts/src/CVStrategy/facets/CVSyncPowerFacet.sol:CVSyncPowerFacet","label":"superfluidGDA","offset":0,"slot":"129","type":"t_contract(ISuperfluidPool)78926"},{"astId":107036,"contract":"pkg/contracts/src/CVStrategy/facets/CVSyncPowerFacet.sol:CVSyncPowerFacet","label":"streamingRatePerSecond","offset":0,"slot":"130","type":"t_uint256"},{"astId":107040,"contract":"pkg/contracts/src/CVStrategy/facets/CVSyncPowerFacet.sol:CVSyncPowerFacet","label":"votingPowerRegistry","offset":0,"slot":"131","type":"t_contract(IVotingPowerRegistry)124673"},{"astId":107045,"contract":"pkg/contracts/src/CVStrategy/facets/CVSyncPowerFacet.sol:CVSyncPowerFacet","label":"__gap","offset":0,"slot":"132","type":"t_array(t_uint256)46_storage"}],"types":{"t_address":{"encoding":"inplace","label":"address","numberOfBytes":"20"},"t_array(t_uint256)46_storage":{"encoding":"inplace","label":"uint256[46]","numberOfBytes":"1472","base":"t_uint256"},"t_array(t_uint256)49_storage":{"encoding":"inplace","label":"uint256[49]","numberOfBytes":"1568","base":"t_uint256"},"t_array(t_uint256)50_storage":{"encoding":"inplace","label":"uint256[50]","numberOfBytes":"1600","base":"t_uint256"},"t_array(t_uint256)dyn_storage":{"encoding":"dynamic_array","label":"uint256[]","numberOfBytes":"32","base":"t_uint256"},"t_bool":{"encoding":"inplace","label":"bool","numberOfBytes":"1"},"t_bytes32":{"encoding":"inplace","label":"bytes32","numberOfBytes":"32"},"t_contract(IAllo)2631":{"encoding":"inplace","label":"contract IAllo","numberOfBytes":"20"},"t_contract(IArbitrator)124436":{"encoding":"inplace","label":"contract IArbitrator","numberOfBytes":"20"},"t_contract(ICollateralVault)124469":{"encoding":"inplace","label":"contract ICollateralVault","numberOfBytes":"20"},"t_contract(ISuperToken)80098":{"encoding":"inplace","label":"contract ISuperToken","numberOfBytes":"20"},"t_contract(ISuperfluidPool)78926":{"encoding":"inplace","label":"contract ISuperfluidPool","numberOfBytes":"20"},"t_contract(ISybilScorer)116128":{"encoding":"inplace","label":"contract ISybilScorer","numberOfBytes":"20"},"t_contract(IVotingPowerRegistry)124673":{"encoding":"inplace","label":"contract IVotingPowerRegistry","numberOfBytes":"20"},"t_contract(RegistryCommunity)118711":{"encoding":"inplace","label":"contract RegistryCommunity","numberOfBytes":"20"},"t_enum(PointSystem)108395":{"encoding":"inplace","label":"enum PointSystem","numberOfBytes":"1"},"t_enum(ProposalStatus)108415":{"encoding":"inplace","label":"enum ProposalStatus","numberOfBytes":"1"},"t_enum(ProposalType)108389":{"encoding":"inplace","label":"enum ProposalType","numberOfBytes":"1"},"t_mapping(t_address,t_array(t_uint256)dyn_storage)":{"encoding":"mapping","key":"t_address","label":"mapping(address => uint256[])","numberOfBytes":"32","value":"t_array(t_uint256)dyn_storage"},"t_mapping(t_address,t_uint256)":{"encoding":"mapping","key":"t_address","label":"mapping(address => uint256)","numberOfBytes":"32","value":"t_uint256"},"t_mapping(t_uint256,t_struct(ArbitrableConfig)108480_storage)":{"encoding":"mapping","key":"t_uint256","label":"mapping(uint256 => struct ArbitrableConfig)","numberOfBytes":"32","value":"t_struct(ArbitrableConfig)108480_storage"},"t_mapping(t_uint256,t_struct(Proposal)108458_storage)":{"encoding":"mapping","key":"t_uint256","label":"mapping(uint256 => struct Proposal)","numberOfBytes":"32","value":"t_struct(Proposal)108458_storage"},"t_mapping(t_uint256,t_uint256)":{"encoding":"mapping","key":"t_uint256","label":"mapping(uint256 => uint256)","numberOfBytes":"32","value":"t_uint256"},"t_string_storage":{"encoding":"bytes","label":"string","numberOfBytes":"32"},"t_struct(ArbitrableConfig)108480_storage":{"encoding":"inplace","label":"struct ArbitrableConfig","numberOfBytes":"192","members":[{"astId":108469,"contract":"pkg/contracts/src/CVStrategy/facets/CVSyncPowerFacet.sol:CVSyncPowerFacet","label":"arbitrator","offset":0,"slot":"0","type":"t_contract(IArbitrator)124436"},{"astId":108471,"contract":"pkg/contracts/src/CVStrategy/facets/CVSyncPowerFacet.sol:CVSyncPowerFacet","label":"tribunalSafe","offset":0,"slot":"1","type":"t_address"},{"astId":108473,"contract":"pkg/contracts/src/CVStrategy/facets/CVSyncPowerFacet.sol:CVSyncPowerFacet","label":"submitterCollateralAmount","offset":0,"slot":"2","type":"t_uint256"},{"astId":108475,"contract":"pkg/contracts/src/CVStrategy/facets/CVSyncPowerFacet.sol:CVSyncPowerFacet","label":"challengerCollateralAmount","offset":0,"slot":"3","type":"t_uint256"},{"astId":108477,"contract":"pkg/contracts/src/CVStrategy/facets/CVSyncPowerFacet.sol:CVSyncPowerFacet","label":"defaultRuling","offset":0,"slot":"4","type":"t_uint256"},{"astId":108479,"contract":"pkg/contracts/src/CVStrategy/facets/CVSyncPowerFacet.sol:CVSyncPowerFacet","label":"defaultRulingTimeout","offset":0,"slot":"5","type":"t_uint256"}]},"t_struct(CVParams)108489_storage":{"encoding":"inplace","label":"struct CVParams","numberOfBytes":"128","members":[{"astId":108482,"contract":"pkg/contracts/src/CVStrategy/facets/CVSyncPowerFacet.sol:CVSyncPowerFacet","label":"maxRatio","offset":0,"slot":"0","type":"t_uint256"},{"astId":108484,"contract":"pkg/contracts/src/CVStrategy/facets/CVSyncPowerFacet.sol:CVSyncPowerFacet","label":"weight","offset":0,"slot":"1","type":"t_uint256"},{"astId":108486,"contract":"pkg/contracts/src/CVStrategy/facets/CVSyncPowerFacet.sol:CVSyncPowerFacet","label":"decay","offset":0,"slot":"2","type":"t_uint256"},{"astId":108488,"contract":"pkg/contracts/src/CVStrategy/facets/CVSyncPowerFacet.sol:CVSyncPowerFacet","label":"minThresholdPoints","offset":0,"slot":"3","type":"t_uint256"}]},"t_struct(Metadata)3086_storage":{"encoding":"inplace","label":"struct Metadata","numberOfBytes":"64","members":[{"astId":3082,"contract":"pkg/contracts/src/CVStrategy/facets/CVSyncPowerFacet.sol:CVSyncPowerFacet","label":"protocol","offset":0,"slot":"0","type":"t_uint256"},{"astId":3085,"contract":"pkg/contracts/src/CVStrategy/facets/CVSyncPowerFacet.sol:CVSyncPowerFacet","label":"pointer","offset":0,"slot":"1","type":"t_string_storage"}]},"t_struct(PointSystemConfig)108466_storage":{"encoding":"inplace","label":"struct PointSystemConfig","numberOfBytes":"32","members":[{"astId":108465,"contract":"pkg/contracts/src/CVStrategy/facets/CVSyncPowerFacet.sol:CVSyncPowerFacet","label":"maxAmount","offset":0,"slot":"0","type":"t_uint256"}]},"t_struct(Proposal)108458_storage":{"encoding":"inplace","label":"struct Proposal","numberOfBytes":"576","members":[{"astId":108424,"contract":"pkg/contracts/src/CVStrategy/facets/CVSyncPowerFacet.sol:CVSyncPowerFacet","label":"proposalId","offset":0,"slot":"0","type":"t_uint256"},{"astId":108426,"contract":"pkg/contracts/src/CVStrategy/facets/CVSyncPowerFacet.sol:CVSyncPowerFacet","label":"requestedAmount","offset":0,"slot":"1","type":"t_uint256"},{"astId":108428,"contract":"pkg/contracts/src/CVStrategy/facets/CVSyncPowerFacet.sol:CVSyncPowerFacet","label":"stakedAmount","offset":0,"slot":"2","type":"t_uint256"},{"astId":108430,"contract":"pkg/contracts/src/CVStrategy/facets/CVSyncPowerFacet.sol:CVSyncPowerFacet","label":"convictionLast","offset":0,"slot":"3","type":"t_uint256"},{"astId":108432,"contract":"pkg/contracts/src/CVStrategy/facets/CVSyncPowerFacet.sol:CVSyncPowerFacet","label":"beneficiary","offset":0,"slot":"4","type":"t_address"},{"astId":108434,"contract":"pkg/contracts/src/CVStrategy/facets/CVSyncPowerFacet.sol:CVSyncPowerFacet","label":"submitter","offset":0,"slot":"5","type":"t_address"},{"astId":108436,"contract":"pkg/contracts/src/CVStrategy/facets/CVSyncPowerFacet.sol:CVSyncPowerFacet","label":"requestedToken","offset":0,"slot":"6","type":"t_address"},{"astId":108438,"contract":"pkg/contracts/src/CVStrategy/facets/CVSyncPowerFacet.sol:CVSyncPowerFacet","label":"blockLast","offset":0,"slot":"7","type":"t_uint256"},{"astId":108441,"contract":"pkg/contracts/src/CVStrategy/facets/CVSyncPowerFacet.sol:CVSyncPowerFacet","label":"proposalStatus","offset":0,"slot":"8","type":"t_enum(ProposalStatus)108415"},{"astId":108445,"contract":"pkg/contracts/src/CVStrategy/facets/CVSyncPowerFacet.sol:CVSyncPowerFacet","label":"voterStakedPoints","offset":0,"slot":"9","type":"t_mapping(t_address,t_uint256)"},{"astId":108448,"contract":"pkg/contracts/src/CVStrategy/facets/CVSyncPowerFacet.sol:CVSyncPowerFacet","label":"metadata","offset":0,"slot":"10","type":"t_struct(Metadata)3086_storage"},{"astId":108451,"contract":"pkg/contracts/src/CVStrategy/facets/CVSyncPowerFacet.sol:CVSyncPowerFacet","label":"disputeInfo","offset":0,"slot":"12","type":"t_struct(ProposalDisputeInfo)108422_storage"},{"astId":108453,"contract":"pkg/contracts/src/CVStrategy/facets/CVSyncPowerFacet.sol:CVSyncPowerFacet","label":"lastDisputeCompletion","offset":0,"slot":"15","type":"t_uint256"},{"astId":108455,"contract":"pkg/contracts/src/CVStrategy/facets/CVSyncPowerFacet.sol:CVSyncPowerFacet","label":"arbitrableConfigVersion","offset":0,"slot":"16","type":"t_uint256"},{"astId":108457,"contract":"pkg/contracts/src/CVStrategy/facets/CVSyncPowerFacet.sol:CVSyncPowerFacet","label":"creationTimestamp","offset":0,"slot":"17","type":"t_uint256"}]},"t_struct(ProposalDisputeInfo)108422_storage":{"encoding":"inplace","label":"struct ProposalDisputeInfo","numberOfBytes":"96","members":[{"astId":108417,"contract":"pkg/contracts/src/CVStrategy/facets/CVSyncPowerFacet.sol:CVSyncPowerFacet","label":"disputeId","offset":0,"slot":"0","type":"t_uint256"},{"astId":108419,"contract":"pkg/contracts/src/CVStrategy/facets/CVSyncPowerFacet.sol:CVSyncPowerFacet","label":"disputeTimestamp","offset":0,"slot":"1","type":"t_uint256"},{"astId":108421,"contract":"pkg/contracts/src/CVStrategy/facets/CVSyncPowerFacet.sol:CVSyncPowerFacet","label":"challenger","offset":0,"slot":"2","type":"t_address"}]},"t_uint256":{"encoding":"inplace","label":"uint256","numberOfBytes":"32"},"t_uint64":{"encoding":"inplace","label":"uint64","numberOfBytes":"8"},"t_uint8":{"encoding":"inplace","label":"uint8","numberOfBytes":"1"}}},"id":169}