{"abi":[{"type":"function","name":"globalPaused","inputs":[],"outputs":[{"name":"","type":"bool","internalType":"bool"}],"stateMutability":"view"},{"type":"function","name":"isPaused","inputs":[{"name":"","type":"address","internalType":"address"}],"outputs":[{"name":"","type":"bool","internalType":"bool"}],"stateMutability":"view"},{"type":"function","name":"isPaused","inputs":[{"name":"","type":"address","internalType":"address"},{"name":"selector","type":"bytes4","internalType":"bytes4"}],"outputs":[{"name":"","type":"bool","internalType":"bool"}],"stateMutability":"view"},{"type":"function","name":"pause","inputs":[{"name":"","type":"address","internalType":"address"},{"name":"","type":"uint256","internalType":"uint256"}],"outputs":[],"stateMutability":"nonpayable"},{"type":"function","name":"pauseSelector","inputs":[{"name":"","type":"address","internalType":"address"},{"name":"selector","type":"bytes4","internalType":"bytes4"},{"name":"","type":"uint256","internalType":"uint256"}],"outputs":[],"stateMutability":"nonpayable"},{"type":"function","name":"pausedSelectorUntil","inputs":[{"name":"","type":"address","internalType":"address"},{"name":"selector","type":"bytes4","internalType":"bytes4"}],"outputs":[{"name":"","type":"uint256","internalType":"uint256"}],"stateMutability":"view"},{"type":"function","name":"pausedUntil","inputs":[{"name":"","type":"address","internalType":"address"}],"outputs":[{"name":"","type":"uint256","internalType":"uint256"}],"stateMutability":"view"},{"type":"function","name":"selectorPaused","inputs":[{"name":"","type":"bytes4","internalType":"bytes4"}],"outputs":[{"name":"","type":"bool","internalType":"bool"}],"stateMutability":"view"},{"type":"function","name":"setGlobalPaused","inputs":[{"name":"paused","type":"bool","internalType":"bool"}],"outputs":[],"stateMutability":"nonpayable"},{"type":"function","name":"setSelectorPaused","inputs":[{"name":"selector","type":"bytes4","internalType":"bytes4"},{"name":"paused","type":"bool","internalType":"bool"}],"outputs":[],"stateMutability":"nonpayable"},{"type":"function","name":"unpause","inputs":[{"name":"","type":"address","internalType":"address"}],"outputs":[],"stateMutability":"nonpayable"},{"type":"function","name":"unpauseSelector","inputs":[{"name":"","type":"address","internalType":"address"},{"name":"selector","type":"bytes4","internalType":"bytes4"}],"outputs":[],"stateMutability":"nonpayable"}],"bytecode":{"object":"0x608060405234801561000f575f80fd5b506104138061001d5f395ff3fe608060405234801561000f575f80fd5b50600436106100a2575f3560e01c80631d9ca3ad146100a657806331947ea4146100cc578063439d27ae146100df57806351440dd5146101115780635686c94b1461014a57806357b001f914610181578063591e70a51461019b5780635b14f183146101cd57806361a552dc146101e457806374b896f1146101f057806376cad834146102035780638220368414610223575b5f80fd5b6100b96100b43660046102db565b610241565b6040519081526020015b60405180910390f35b6100b96100da36600461030b565b61025d565b61010f6100ed36600461030b565b6001600160e01b0319165f908152600160205260409020805460ff1916905550565b005b61010f61011f36600461034b565b6001600160e01b0319919091165f908152600160205260409020805460ff1916911515919091179055565b61010f610158366004610373565b506001600160e01b0319165f908152600160208190526040909120805460ff1916909117905550565b61010f61018f3660046102db565b505f805460ff19169055565b6101bd6101a93660046103ac565b60016020525f908152604090205460ff1681565b60405190151581526020016100c3565b6101bd6101db3660046102db565b505f5460ff1690565b5f546101bd9060ff1681565b6101bd6101fe36600461030b565b610290565b61010f6102113660046103c5565b5f805460ff1916911515919091179055565b61010f6102313660046103de565b50505f805460ff19166001179055565b5f805460ff16610251575f610254565b60015b60ff1692915050565b6001600160e01b031981165f9081526001602052604081205460ff16610283575f610286565b60015b60ff169392505050565b5f805460ff16806102b957506001600160e01b031982165f9081526001602052604090205460ff165b9392505050565b80356001600160a01b03811681146102d6575f80fd5b919050565b5f602082840312156102eb575f80fd5b6102b9826102c0565b80356001600160e01b0319811681146102d6575f80fd5b5f806040838503121561031c575f80fd5b610325836102c0565b9150610333602084016102f4565b90509250929050565b803580151581146102d6575f80fd5b5f806040838503121561035c575f80fd5b610365836102f4565b91506103336020840161033c565b5f805f60608486031215610385575f80fd5b61038e846102c0565b925061039c602085016102f4565b9150604084013590509250925092565b5f602082840312156103bc575f80fd5b6102b9826102f4565b5f602082840312156103d5575f80fd5b6102b98261033c565b5f80604083850312156103ef575f80fd5b6103f8836102c0565b94602093909301359350505056fea164736f6c6343000817000a","linkReferences":{}},"methodIdentifiers":{"globalPaused()":"61a552dc","isPaused(address)":"5b14f183","isPaused(address,bytes4)":"74b896f1","pause(address,uint256)":"82203684","pauseSelector(address,bytes4,uint256)":"5686c94b","pausedSelectorUntil(address,bytes4)":"31947ea4","pausedUntil(address)":"1d9ca3ad","selectorPaused(bytes4)":"591e70a5","setGlobalPaused(bool)":"76cad834","setSelectorPaused(bytes4,bool)":"51440dd5","unpause(address)":"57b001f9","unpauseSelector(address,bytes4)":"439d27ae"},"storageLayout":{"storage":[{"astId":187629,"contract":"pkg/contracts/test/helpers/PauseHelpers.sol:MockPauseController","label":"globalPaused","offset":0,"slot":"0","type":"t_bool"},{"astId":187633,"contract":"pkg/contracts/test/helpers/PauseHelpers.sol:MockPauseController","label":"selectorPaused","offset":0,"slot":"1","type":"t_mapping(t_bytes4,t_bool)"}],"types":{"t_bool":{"encoding":"inplace","label":"bool","numberOfBytes":"1"},"t_bytes4":{"encoding":"inplace","label":"bytes4","numberOfBytes":"4"},"t_mapping(t_bytes4,t_bool)":{"encoding":"mapping","key":"t_bytes4","label":"mapping(bytes4 => bool)","numberOfBytes":"32","value":"t_bool"}}},"id":250}