{"abi":[{"type":"function","name":"DISPUTE_COOLDOWN_SEC","inputs":[],"outputs":[{"name":"","type":"uint256","internalType":"uint256"}],"stateMutability":"view"},{"type":"function","name":"MAX_ALLOCATIONS_PER_TX","inputs":[],"outputs":[{"name":"","type":"uint256","internalType":"uint256"}],"stateMutability":"view"},{"type":"function","name":"MAX_PROPOSAL_COUNT","inputs":[],"outputs":[{"name":"","type":"uint256","internalType":"uint256"}],"stateMutability":"view"},{"type":"function","name":"MAX_SYNC_BATCH_MEMBERS","inputs":[],"outputs":[{"name":"","type":"uint256","internalType":"uint256"}],"stateMutability":"view"},{"type":"function","name":"MAX_VOTER_STAKED_PROPOSALS","inputs":[],"outputs":[{"name":"","type":"uint256","internalType":"uint256"}],"stateMutability":"view"},{"type":"function","name":"ONE_HOUR","inputs":[],"outputs":[{"name":"","type":"uint256","internalType":"uint256"}],"stateMutability":"view"},{"type":"function","name":"RULING_OPTIONS","inputs":[],"outputs":[{"name":"","type":"uint256","internalType":"uint256"}],"stateMutability":"view"},{"type":"function","name":"_isStrategyEnabled","inputs":[],"outputs":[{"name":"","type":"bool","internalType":"bool"}],"stateMutability":"view"},{"type":"function","name":"arbitrableConfigs","inputs":[{"name":"","type":"uint256","internalType":"uint256"}],"outputs":[{"name":"arbitrator","type":"address","internalType":"contract IArbitrator"},{"name":"tribunalSafe","type":"address","internalType":"address"},{"name":"submitterCollateralAmount","type":"uint256","internalType":"uint256"},{"name":"challengerCollateralAmount","type":"uint256","internalType":"uint256"},{"name":"defaultRuling","type":"uint256","internalType":"uint256"},{"name":"defaultRulingTimeout","type":"uint256","internalType":"uint256"}],"stateMutability":"view"},{"type":"function","name":"calculateProposalConviction","inputs":[{"name":"_proposalId","type":"uint256","internalType":"uint256"}],"outputs":[{"name":"","type":"uint256","internalType":"uint256"}],"stateMutability":"view"},{"type":"function","name":"cancelProposal","inputs":[{"name":"proposalId","type":"uint256","internalType":"uint256"}],"outputs":[],"stateMutability":"nonpayable"},{"type":"function","name":"cloneNonce","inputs":[],"outputs":[{"name":"","type":"uint256","internalType":"uint256"}],"stateMutability":"view"},{"type":"function","name":"collateralVault","inputs":[],"outputs":[{"name":"","type":"address","internalType":"contract ICollateralVault"}],"stateMutability":"view"},{"type":"function","name":"currentArbitrableConfigVersion","inputs":[],"outputs":[{"name":"","type":"uint256","internalType":"uint256"}],"stateMutability":"view"},{"type":"function","name":"cvParams","inputs":[],"outputs":[{"name":"maxRatio","type":"uint256","internalType":"uint256"},{"name":"weight","type":"uint256","internalType":"uint256"},{"name":"decay","type":"uint256","internalType":"uint256"},{"name":"minThresholdPoints","type":"uint256","internalType":"uint256"}],"stateMutability":"view"},{"type":"function","name":"disputeCount","inputs":[],"outputs":[{"name":"","type":"uint64","internalType":"uint64"}],"stateMutability":"view"},{"type":"function","name":"disputeIdToProposalId","inputs":[{"name":"","type":"uint256","internalType":"uint256"}],"outputs":[{"name":"","type":"uint256","internalType":"uint256"}],"stateMutability":"view"},{"type":"function","name":"editProposal","inputs":[{"name":"_proposalId","type":"uint256","internalType":"uint256"},{"name":"_metadata","type":"tuple","internalType":"struct Metadata","components":[{"name":"protocol","type":"uint256","internalType":"uint256"},{"name":"pointer","type":"string","internalType":"string"}]},{"name":"_beneficiary","type":"address","internalType":"address"},{"name":"_requestedAmount","type":"uint256","internalType":"uint256"}],"outputs":[],"stateMutability":"nonpayable"},{"type":"function","name":"getPoolAmount","inputs":[],"outputs":[{"name":"","type":"uint256","internalType":"uint256"}],"stateMutability":"view"},{"type":"function","name":"getProposalBeneficiary","inputs":[{"name":"proposalId","type":"uint256","internalType":"uint256"}],"outputs":[{"name":"","type":"address","internalType":"address"}],"stateMutability":"view"},{"type":"function","name":"getProposalMetadataPointer","inputs":[{"name":"proposalId","type":"uint256","internalType":"uint256"}],"outputs":[{"name":"","type":"string","internalType":"string"}],"stateMutability":"view"},{"type":"function","name":"getProposalRequestedAmount","inputs":[{"name":"proposalId","type":"uint256","internalType":"uint256"}],"outputs":[{"name":"","type":"uint256","internalType":"uint256"}],"stateMutability":"view"},{"type":"function","name":"getProposalStatus","inputs":[{"name":"proposalId","type":"uint256","internalType":"uint256"}],"outputs":[{"name":"","type":"uint8","internalType":"enum ProposalStatus"}],"stateMutability":"view"},{"type":"function","name":"lastRebalanceAt","inputs":[],"outputs":[{"name":"","type":"uint256","internalType":"uint256"}],"stateMutability":"view"},{"type":"function","name":"pointConfig","inputs":[],"outputs":[{"name":"maxAmount","type":"uint256","internalType":"uint256"}],"stateMutability":"view"},{"type":"function","name":"pointSystem","inputs":[],"outputs":[{"name":"","type":"uint8","internalType":"enum PointSystem"}],"stateMutability":"view"},{"type":"function","name":"proposalCounter","inputs":[],"outputs":[{"name":"","type":"uint256","internalType":"uint256"}],"stateMutability":"view"},{"type":"function","name":"proposalExists","inputs":[{"name":"_proposalID","type":"uint256","internalType":"uint256"}],"outputs":[{"name":"","type":"bool","internalType":"bool"}],"stateMutability":"view"},{"type":"function","name":"proposalType","inputs":[],"outputs":[{"name":"","type":"uint8","internalType":"enum ProposalType"}],"stateMutability":"view"},{"type":"function","name":"rebalanceCooldown","inputs":[],"outputs":[{"name":"","type":"uint256","internalType":"uint256"}],"stateMutability":"view"},{"type":"function","name":"registerRecipient","inputs":[{"name":"_data","type":"bytes","internalType":"bytes"},{"name":"_sender","type":"address","internalType":"address"}],"outputs":[{"name":"","type":"address","internalType":"address"}],"stateMutability":"payable"},{"type":"function","name":"registryCommunity","inputs":[],"outputs":[{"name":"","type":"address","internalType":"contract RegistryCommunity"}],"stateMutability":"view"},{"type":"function","name":"seedProposal","inputs":[{"name":"proposalId","type":"uint256","internalType":"uint256"},{"name":"submitter","type":"address","internalType":"address"},{"name":"beneficiary","type":"address","internalType":"address"},{"name":"requestedToken","type":"address","internalType":"address"},{"name":"requestedAmount","type":"uint256","internalType":"uint256"},{"name":"status","type":"uint8","internalType":"enum ProposalStatus"},{"name":"creationTimestamp","type":"uint256","internalType":"uint256"},{"name":"convictionLast","type":"uint256","internalType":"uint256"}],"outputs":[],"stateMutability":"nonpayable"},{"type":"function","name":"setAllo","inputs":[{"name":"allo_","type":"address","internalType":"address"}],"outputs":[],"stateMutability":"nonpayable"},{"type":"function","name":"setArbitrableConfig","inputs":[{"name":"version","type":"uint256","internalType":"uint256"},{"name":"config","type":"tuple","internalType":"struct ArbitrableConfig","components":[{"name":"arbitrator","type":"address","internalType":"contract IArbitrator"},{"name":"tribunalSafe","type":"address","internalType":"address"},{"name":"submitterCollateralAmount","type":"uint256","internalType":"uint256"},{"name":"challengerCollateralAmount","type":"uint256","internalType":"uint256"},{"name":"defaultRuling","type":"uint256","internalType":"uint256"},{"name":"defaultRulingTimeout","type":"uint256","internalType":"uint256"}]}],"outputs":[],"stateMutability":"nonpayable"},{"type":"function","name":"setCollateralVault","inputs":[{"name":"collateralVault_","type":"address","internalType":"address"}],"outputs":[],"stateMutability":"nonpayable"},{"type":"function","name":"setCollateralVaultTemplateRaw","inputs":[{"name":"template","type":"address","internalType":"address"}],"outputs":[],"stateMutability":"nonpayable"},{"type":"function","name":"setPoolId","inputs":[{"name":"poolId_","type":"uint256","internalType":"uint256"}],"outputs":[],"stateMutability":"nonpayable"},{"type":"function","name":"setProposalType","inputs":[{"name":"proposalType_","type":"uint8","internalType":"enum ProposalType"}],"outputs":[],"stateMutability":"nonpayable"},{"type":"function","name":"setRegistryCommunity","inputs":[{"name":"registryCommunity_","type":"address","internalType":"address"}],"outputs":[],"stateMutability":"nonpayable"},{"type":"function","name":"setVotingPowerRegistry","inputs":[{"name":"registry","type":"address","internalType":"address"}],"outputs":[],"stateMutability":"nonpayable"},{"type":"function","name":"streamingEscrow","inputs":[{"name":"proposalId","type":"uint256","internalType":"uint256"}],"outputs":[{"name":"","type":"address","internalType":"address"}],"stateMutability":"view"},{"type":"function","name":"streamingRatePerSecond","inputs":[],"outputs":[{"name":"","type":"uint256","internalType":"uint256"}],"stateMutability":"view"},{"type":"function","name":"superfluidGDA","inputs":[],"outputs":[{"name":"","type":"address","internalType":"contract ISuperfluidPool"}],"stateMutability":"view"},{"type":"function","name":"superfluidToken","inputs":[],"outputs":[{"name":"","type":"address","internalType":"contract ISuperToken"}],"stateMutability":"view"},{"type":"function","name":"sybilScorer","inputs":[],"outputs":[{"name":"","type":"address","internalType":"contract ISybilScorer"}],"stateMutability":"view"},{"type":"function","name":"totalPointsActivated","inputs":[],"outputs":[{"name":"","type":"uint256","internalType":"uint256"}],"stateMutability":"view"},{"type":"function","name":"totalStaked","inputs":[],"outputs":[{"name":"","type":"uint256","internalType":"uint256"}],"stateMutability":"view"},{"type":"function","name":"totalVoterStakePct","inputs":[{"name":"","type":"address","internalType":"address"}],"outputs":[{"name":"","type":"uint256","internalType":"uint256"}],"stateMutability":"view"},{"type":"function","name":"voterStakedProposals","inputs":[{"name":"","type":"address","internalType":"address"},{"name":"","type":"uint256","internalType":"uint256"}],"outputs":[{"name":"","type":"uint256","internalType":"uint256"}],"stateMutability":"view"},{"type":"function","name":"votingPowerRegistry","inputs":[],"outputs":[{"name":"","type":"address","internalType":"contract IVotingPowerRegistry"}],"stateMutability":"view"},{"type":"event","name":"ProposalCancelled","inputs":[{"name":"proposalId","type":"uint256","indexed":false,"internalType":"uint256"}],"anonymous":false},{"type":"event","name":"ProposalCreated","inputs":[{"name":"poolId","type":"uint256","indexed":false,"internalType":"uint256"},{"name":"proposalId","type":"uint256","indexed":false,"internalType":"uint256"}],"anonymous":false},{"type":"event","name":"ProposalCreated","inputs":[{"name":"poolId","type":"uint256","indexed":false,"internalType":"uint256"},{"name":"proposalId","type":"uint256","indexed":false,"internalType":"uint256"},{"name":"escrow","type":"address","indexed":false,"internalType":"address"}],"anonymous":false},{"type":"event","name":"ProposalEdited","inputs":[{"name":"proposalId","type":"uint256","indexed":false,"internalType":"uint256"},{"name":"metadata","type":"tuple","indexed":false,"internalType":"struct Metadata","components":[{"name":"protocol","type":"uint256","internalType":"uint256"},{"name":"pointer","type":"string","internalType":"string"}]},{"name":"beneficiary","type":"address","indexed":false,"internalType":"address"},{"name":"requestedAmount","type":"uint256","indexed":false,"internalType":"uint256"}],"anonymous":false},{"type":"event","name":"RebalanceCallerAuthorizationUpdated","inputs":[{"name":"caller","type":"address","indexed":true,"internalType":"address"},{"name":"authorized","type":"bool","indexed":false,"internalType":"bool"}],"anonymous":false},{"type":"event","name":"StreamMemberUnitUpdated","inputs":[{"name":"member","type":"address","indexed":true,"internalType":"address"},{"name":"newUnit","type":"int96","indexed":false,"internalType":"int96"}],"anonymous":false},{"type":"event","name":"StreamRateUpdated","inputs":[{"name":"gda","type":"address","indexed":true,"internalType":"address"},{"name":"flowRate","type":"uint256","indexed":false,"internalType":"uint256"}],"anonymous":false},{"type":"event","name":"SupportAdded","inputs":[{"name":"from","type":"address","indexed":false,"internalType":"address"},{"name":"proposalId","type":"uint256","indexed":false,"internalType":"uint256"},{"name":"amount","type":"uint256","indexed":false,"internalType":"uint256"},{"name":"totalStakedAmount","type":"uint256","indexed":false,"internalType":"uint256"},{"name":"convictionLast","type":"uint256","indexed":false,"internalType":"uint256"}],"anonymous":false},{"type":"error","name":"ArbitratorNotSet","inputs":[]},{"type":"error","name":"BeneficiaryEditTimeout","inputs":[{"name":"proposalId","type":"uint256","internalType":"uint256"},{"name":"currentBeneficiary","type":"address","internalType":"address"},{"name":"newBeneficiary","type":"address","internalType":"address"},{"name":"creationTimestamp","type":"uint256","internalType":"uint256"}]},{"type":"error","name":"BlockNumberRegression","inputs":[{"name":"recordedBlock","type":"uint256","internalType":"uint256"},{"name":"currentBlock","type":"uint256","internalType":"uint256"}]},{"type":"error","name":"CannotEditRequestedAmountWithActiveSupport","inputs":[{"name":"proposalId","type":"uint256","internalType":"uint256"},{"name":"currentAmount","type":"uint256","internalType":"uint256"},{"name":"newAmount","type":"uint256","internalType":"uint256"}]},{"type":"error","name":"InsufficientCollateral","inputs":[{"name":"sent","type":"uint256","internalType":"uint256"},{"name":"required","type":"uint256","internalType":"uint256"}]},{"type":"error","name":"MetadataEditTimeout","inputs":[{"name":"proposalId","type":"uint256","internalType":"uint256"},{"name":"currentMetadata","type":"string","internalType":"string"},{"name":"newMetadata","type":"string","internalType":"string"},{"name":"creationTimestamp","type":"uint256","internalType":"uint256"}]},{"type":"error","name":"OnlyActiveProposal","inputs":[{"name":"proposalId","type":"uint256","internalType":"uint256"}]},{"type":"error","name":"OnlyAllo","inputs":[{"name":"sender","type":"address","internalType":"address"},{"name":"allo","type":"address","internalType":"address"}]},{"type":"error","name":"OnlyCouncilSafe","inputs":[{"name":"sender","type":"address","internalType":"address"},{"name":"councilSafe","type":"address","internalType":"address"},{"name":"owner","type":"address","internalType":"address"}]},{"type":"error","name":"OnlyCouncilSafeOrMember","inputs":[{"name":"sender","type":"address","internalType":"address"},{"name":"councilSafe","type":"address","internalType":"address"}]},{"type":"error","name":"OnlyInitialized","inputs":[{"name":"poolId","type":"uint256","internalType":"uint256"}]},{"type":"error","name":"OnlyMember","inputs":[{"name":"wallet","type":"address","internalType":"address"},{"name":"community","type":"address","internalType":"address"}]},{"type":"error","name":"OnlyOwner","inputs":[{"name":"sender","type":"address","internalType":"address"},{"name":"ownerAddress","type":"address","internalType":"address"}]},{"type":"error","name":"OnlyRegistryCommunity","inputs":[{"name":"sender","type":"address","internalType":"address"},{"name":"registry","type":"address","internalType":"address"}]},{"type":"error","name":"OnlySubmitter","inputs":[{"name":"proposalId","type":"uint256","internalType":"uint256"},{"name":"submitter","type":"address","internalType":"address"},{"name":"sender","type":"address","internalType":"address"}]},{"type":"error","name":"ProposalDoesNotExist","inputs":[{"name":"proposalID","type":"uint256","internalType":"uint256"}]},{"type":"error","name":"ProposalLimitReached","inputs":[{"name":"current","type":"uint256","internalType":"uint256"},{"name":"max","type":"uint256","internalType":"uint256"}]},{"type":"error","name":"ProposalNotActive","inputs":[{"name":"proposalId","type":"uint256","internalType":"uint256"},{"name":"currentStatus","type":"uint8","internalType":"uint8"}]},{"type":"error","name":"RebalanceCooldownActive","inputs":[{"name":"secondsRemaining","type":"uint256","internalType":"uint256"}]},{"type":"error","name":"StrategyPaused","inputs":[{"name":"controller","type":"address","internalType":"address"}]},{"type":"error","name":"StrategySelectorPaused","inputs":[{"name":"selector","type":"bytes4","internalType":"bytes4"},{"name":"controller","type":"address","internalType":"address"}]},{"type":"error","name":"StreamingEscrowFactoryNotSet","inputs":[]},{"type":"error","name":"UnexpectedRequestToken","inputs":[{"name":"requestedToken","type":"address","internalType":"address"},{"name":"poolToken","type":"address","internalType":"address"}]},{"type":"error","name":"UpdateMemberUnitsFailed","inputs":[{"name":"member","type":"address","internalType":"address"},{"name":"units","type":"uint128","internalType":"uint128"}]}],"bytecode":{"object":"0x608060405234801561000f575f80fd5b506129728061001d5f395ff3fe608060405260043610610243575f3560e01c8063058aca441461024757806305caa7f3146102855780630bece79c146102ba5780630c0512e9146102d9578063125fd1d9146102fc5780631374b22d14610311578063141e3b3814610340578063165035e21461035f578063170aba0d146103745780631b36f56f146103b05780632506b870146103cf578063255ffb38146104015780632bbe0cae1461042c5780632cea13f91461043f5780632dbd6fdd14610453578063339604591461047e578063351d9f96146104935780633587c79b146104b95780633c092330146104e5578063401853b71461052157806341bb76051461055f5780634ab4ba42146105f25780634c3ceb5b146106065780635db64b991461061a5780636003e4141461064557806360b0645a14610664578063626c47e81461068357806368a806c4146106975780636eeeae93146106d35780637c97eede146106f257806380fd91cd14610720578063817b1cd21461073f578063868c57b8146107545780638dc8309414610773578063914bdef01461060657806394573cbb14610787578063a0449bf31461079c578063a28889e1146107d8578063a47ff7e51461080f578063a656985d14610825578063aba9ffee1461085c578063ac78012c14610871578063b04b5b2614610890578063b3de272d146108af578063b6c61f31146108c3578063c939aa91146108e2578063dfe9ec5814610606578063e0a8f6f514610901578063ee50ee1b14610920578063f5be3f7c14610934578063ff3db2ce14610949575b5f80fd5b348015610252575f80fd5b50610283610261366004611e5e565b607880546001600160a01b0319166001600160a01b0392909216919091179055565b005b348015610290575f80fd5b506080546102a4906001600160a01b031681565b6040516102b19190611e79565b60405180910390f35b3480156102c5575f80fd5b506079546102a4906001600160a01b031681565b3480156102e4575f80fd5b506102ee606e5481565b6040519081526020016102b1565b348015610307575f80fd5b506102ee606f5481565b34801561031c575f80fd5b5061033061032b366004611e8d565b6109d3565b60405190151581526020016102b1565b34801561034b575f80fd5b5061028361035a366004611fb5565b610a0d565b34801561036a575f80fd5b506102ee610e1081565b34801561037f575f80fd5b5061028361038e366004611e5e565b608380546001600160a01b0319166001600160a01b0392909216919091179055565b3480156103bb575f80fd5b506081546102a4906001600160a01b031681565b3480156103da575f80fd5b506072546073546074546075546103f19392919084565b6040516102b1949392919061205e565b34801561040c575f80fd5b506102ee61041b366004611e8d565b607e6020525f908152604090205481565b6102a461043a366004612079565b610dab565b34801561044a575f80fd5b506102ee61142b565b34801561045e575f80fd5b5060765461047190610100900460ff1681565b6040516102b191906120ee565b348015610489575f80fd5b506102ee606c5481565b34801561049e575f80fd5b506076546104ac9060ff1681565b6040516102b19190612108565b3480156104c4575f80fd5b506104d86104d3366004611e8d565b61143a565b6040516102b19190612169565b3480156104f0575f80fd5b506102836104ff366004611e5e565b606580546001600160a01b0319166001600160a01b0392909216919091179055565b34801561052c575f80fd5b5061055261053b366004611e8d565b5f908152607b602052604090206008015460ff1690565b6040516102b1919061217b565b34801561056a575f80fd5b506105ba610579366004611e8d565b607f6020525f90815260409020805460018201546002830154600384015460048501546005909501546001600160a01b039485169593909416939192909186565b604080516001600160a01b039788168152969095166020870152938501929092526060840152608083015260a082015260c0016102b1565b3480156105fd575f80fd5b506102ee6114dc565b348015610611575f80fd5b506102ee608081565b348015610625575f80fd5b506102ee610634366004611e5e565b607c6020525f908152604090205481565b348015610650575f80fd5b506078546102a4906001600160a01b031681565b34801561066f575f80fd5b506102ee61067e366004611e8d565b61175b565b34801561068e575f80fd5b506102ee600381565b3480156106a2575f80fd5b506102836106b1366004611e5e565b607980546001600160a01b0319166001600160a01b0392909216919091179055565b3480156106de575f80fd5b506102836106ed36600461218f565b61181f565b3480156106fd575f80fd5b506102ee61070c366004611e8d565b5f908152607b602052604090206001015490565b34801561072b575f80fd5b506083546102a4906001600160a01b031681565b34801561074a575f80fd5b506102ee60705481565b34801561075f575f80fd5b506102ee61076e3660046121ad565b611846565b34801561077e575f80fd5b50610330611871565b348015610792575f80fd5b506102ee60825481565b3480156107a7575f80fd5b506102836107b6366004611e5e565b606a80546001600160a01b0319166001600160a01b0392909216919091179055565b3480156107e3575f80fd5b50606d546107f7906001600160401b031681565b6040516001600160401b0390911681526020016102b1565b34801561081a575f80fd5b506077546102ee9081565b348015610830575f80fd5b506102a461083f366004611e8d565b5f908152607b60205260409020600401546001600160a01b031690565b348015610867575f80fd5b506102ee60715481565b34801561087c575f80fd5b5061028361088b366004611e8d565b606855565b34801561089b575f80fd5b506102a46108aa366004611e8d565b61196d565b3480156108ba575f80fd5b506102ee611992565b3480156108ce575f80fd5b50607a546102a4906001600160a01b031681565b3480156108ed575f80fd5b506102836108fc3660046121d7565b6119a4565b34801561090c575f80fd5b5061028361091b366004611e8d565b611aaa565b34801561092b575f80fd5b506102ee604081565b34801561093f575f80fd5b506102ee611c2081565b348015610954575f80fd5b50610283610963366004612258565b606f8290555f918252607f6020908152604092839020825181546001600160a01b03199081166001600160a01b0392831617835592840151600183018054909416911617909155918101516002830155606081015160038301556080810151600483015560a00151600590910155565b5f818152607b602052604081205415801590610a0757505f828152607b60205260409020600501546001600160a01b031615155b92915050565b5f848152607b602052604090206001600882015460ff166006811115610a3557610a356120da565b14610a7f576008810154859060ff166006811115610a5557610a556120da565b60405163052d1a7b60e21b8152600481019290925260ff1660248201526044015b60405180910390fd5b60058101546001600160a01b03163314610ac157600581015460405163d46ad8a960e01b8152610a769187916001600160a01b039091169033906004016122e0565b81816001015414610b3257600381015415610b0657600181015460405163b501861760e01b815260048101879052602481019190915260448101839052606401610a76565b600160765460ff166002811115610b1f57610b1f6120da565b14610b2a575f610b2c565b815b60018201555b5f610e10826011015442610b469190612313565b60048401546020880151600b860180549490931194506001600160a01b0388811692169190911415925f92610c099291610b7f90612326565b80601f0160208091040260200160405190810160405280929190818152602001828054610bab90612326565b8015610bf65780601f10610bcd57610100808354040283529160200191610bf6565b820191905f5260205f20905b815481529060010190602001808311610bd957829003601f168201915b5050505050611d2790919063ffffffff16565b1590508115610c79578215610c5b57600484810154601186015460405163d209029d60e01b81529283018b90526001600160a01b03918216602484015290881660448301526064820152608401610a76565b6004840180546001600160a01b0319166001600160a01b0388161790555b8015610cc5578215610caf5760208701516011850154604051637195b4df60e01b8152610a76928b92600b89019260040161235e565b6020870151600b850190610cc39082612457565b505b818015610ce85750600260765460ff166002811115610ce657610ce66120da565b145b15610d64575f610cf78961196d565b90506001600160a01b03811615610d62576040516301c31f7160e41b81526001600160a01b03821690631c31f71090610d34908a90600401611e79565b5f604051808303815f87803b158015610d4b575f80fd5b505af1158015610d5d573d5f803e3d5ffd5b505050505b505b7f9609630cea289ffd759de85c8dc9196b11897c540de741d67239c33751860abe88888888604051610d999493929190612516565b60405180910390a15050505050505050565b6065545f906001600160a01b03163314610de957606554604051636ca3252960e01b8152610a769133916001600160a01b039091169060040161255e565b6068545f03610e115760685460405163243d58fb60e21b8152600401610a7691815260200190565b610e1a82611d3d565b60785460405163208a40f360e11b81526001600160a01b039091169063411481e690610e4a903090600401611e79565b5f6040518083038186803b158015610e60575f80fd5b505afa158015610e72573d5f803e3d5ffd5b505050505f83806020019051810190610e8b9190612600565b9050600160765460ff166002811115610ea657610ea66120da565b03610f6b57606554815160405163068bcd8d60e01b81526001600160a01b03909216915f91839163068bcd8d91610ee39160040190815260200190565b5f60405180830381865afa158015610efd573d5f803e3d5ffd5b505050506040513d5f823e601f3d908101601f19168201604052610f2491908101906126a1565b604001519050806001600160a01b031683606001516001600160a01b031614610f68578260600151816040516304976e1760e31b8152600401610a7692919061255e565b50505b606f545f908152607f60205260409020546001600160a01b0316610fa2576040516303674f9160e41b815260040160405180910390fd5b606f545f908152607f6020526040902060020154341015610ff557606f545f908152607f602052604090819020600201549051632c1f8ef160e21b81523460048201526024810191909152604401610a76565b6080606e541061102657606e546040516302ba22b560e31b8152600481019190915260806024820152604401610a76565b5f606e5f81546110359061274f565b91829055505f818152607b602090815260409091208281556005810180546001600160a01b03199081166001600160a01b038a8116919091179092559286015160048301805485169183169190911790556060860151600683018054909416911617909155909150600160765460ff1660028111156110b6576110b66120da565b146110c1575f6110c7565b82604001515b60018281019190915560088201805460ff191690911790554360078201554260118201555f600382015560808301518051600a83019081556020820151600b8401906111139082612457565b5050606f54601083015550607954600582015460405163240ff7c560e11b8152600481018590526001600160a01b03918216602482015291169063481fef8a9034906044015f604051808303818588803b15801561116f575f80fd5b505af1158015611181573d5f803e3d5ffd5b505f935060029250611191915050565b60765460ff1660028111156111a8576111a86120da565b036113d6576078546040805163f86c5f8960e01b815290515f926001600160a01b03169163f86c5f899160048083019260209291908290030181865afa1580156111f4573d5f803e3d5ffd5b505050506040513d601f19601f820116820180604052508101906112189190612767565b6001600160a01b0316637f7960f36040518163ffffffff1660e01b8152600401602060405180830381865afa158015611253573d5f803e3d5ffd5b505050506040513d601f19601f820116820180604052508101906112779190612767565b90506001600160a01b0381166112a0576040516305d720b760e51b815260040160405180910390fd5b608054608154600485810154604051630543c30760e41b81526001600160a01b0394851692810192909252918316602482015290821660448201523060648201525f9183169063543c3070906084016020604051808303815f875af115801561130b573d5f803e3d5ffd5b505050506040513d601f19601f8201168201806040525081019061132f9190612767565b905061133b8582611ddd565b608154604051631b16777760e01b815291935083916001600160a01b0390911690631b167777906113729084905f90600401612782565b6020604051808303815f875af115801561138e573d5f803e3d5ffd5b505050506040513d601f19601f820116820180604052508101906113b291906127a4565b6113d357805f60405163068bc39960e41b8152600401610a76929190612782565b50505b60685460408051918252602082018590526001600160a01b03831682820152517f2e8c120bfdd294891f6ac45b1d661997690ad24bb51f51e4d357365f25c190239181900360600190a1509095945050505050565b5f611434611e16565b54919050565b5f818152607b60205260409020600b0180546060919061145990612326565b80601f016020809104026020016040519081016040528092919081815260200182805461148590612326565b80156114d05780601f106114a7576101008083540402835291602001916114d0565b820191905f5260205f20905b8154815290600101906020018083116114b357829003601f168201915b50505050509050919050565b60655460685460405163068bcd8d60e01b81525f9283926001600160a01b039091169163068bcd8d916115159160040190815260200190565b5f60405180830381865afa15801561152f573d5f803e3d5ffd5b505050506040513d5f823e601f3d908101601f1916820160405261155691908101906126a1565b60400151905073eeeeeeeeeeeeeeeeeeeeeeeeeeeeeeeeeeeeeeed196001600160a01b03821601611588574791505090565b6040516370a0823160e01b81525f906001600160a01b038316906370a08231906115b6903090600401611e79565b602060405180830381865afa1580156115d1573d5f803e3d5ffd5b505050506040513d601f19601f820116820180604052508101906115f591906127c3565b6080549091505f906001600160a01b03161561167f576080546040516370a0823160e01b81526001600160a01b03909116906370a082319061163b903090600401611e79565b602060405180830381865afa158015611656573d5f803e3d5ffd5b505050506040513d601f19601f8201168201806040525081019061167a91906127c3565b611681565b5f5b90505f836001600160a01b031663313ce5676040518163ffffffff1660e01b8152600401602060405180830381865afa1580156116c0573d5f803e3d5ffd5b505050506040513d601f19601f820116820180604052508101906116e491906127da565b905060128160ff161015611719576116fd8160126127fa565b61170890600a6128f3565b6117129083612901565b9150611748565b60128160ff161115611748576117306012826127fa565b61173b90600a6128f3565b6117459083612920565b91505b6117528284612937565b94505050505090565b5f818152607b60205260408120611770611871565b61177e576003015492915050565b73__$f1b7c69ba751c396eddc93d3bbc5414fd9$__63010dfe648260070154436117a89190612313565b600384015460028501546074546040516001600160e01b031960e087901b1681526117d9949392919060040161205e565b602060405180830381865af41580156117f4573d5f803e3d5ffd5b505050506040513d601f19601f8201168201806040525081019061181891906127c3565b9392505050565b6076805482919060ff1916600183600281111561183e5761183e6120da565b021790555050565b607d602052815f5260405f20818154811061185f575f80fd5b905f5260205f20015f91509150505481565b6078545f906001600160a01b03166118895750600190565b6078546040515f9182916001600160a01b0390911690633a871fe160e01b906118b6903090602401611e79565b60408051601f198184030181529181526020820180516001600160e01b03166001600160e01b03199094169390931790925290516118f4919061294a565b5f60405180830381855afa9150503d805f811461192c576040519150601f19603f3d011682016040523d82523d5f602084013e611931565b606091505b5091509150811580611944575060208151105b156119525760019250505090565b8080602001905181019061196691906127a4565b9250505090565b5f611976611e16565b5f9283526003016020525060409020546001600160a01b031690565b5f61199b611e16565b60010154905090565b5f888152607b602052604090208881556005810180546001600160a01b03808b166001600160a01b0319928316179092556004830180548a841690831617905560068084018054938a169390921692909217905560018083018790556008830180548793919260ff19909116918490811115611a2257611a226120da565b0217905550436007820155601181018390556003810182905560408051808201825260018152815180830190925260048252636d65746160e01b60208381019190915281018290528051600a84019081559091600b840190611a849082612457565b5050606f54601083015550606e54891115611a9f57606e8990555b505050505050505050565b60015f828152607b602052604090206008015460ff166006811115611ad157611ad16120da565b14611afd575f818152607b6020526040902060080154819060ff166006811115610a5557610a556120da565b5f818152607b60205260409020600501546001600160a01b03163314611b58575f818152607b60205260409081902060050154905163d46ad8a960e01b8152610a769183916001600160a01b039091169033906004016122e0565b5f818152607b6020908152604080832060088101805460ff1916600317905560795460058201546010909201548552607f9093529281902060020154905163099ea56b60e41b8152600481018590526001600160a01b03938416602482015260448101919091529116906399ea56b0906064015f604051808303815f87803b158015611be2575f80fd5b505af1158015611bf4573d5f803e3d5ffd5b5060029250611c01915050565b60765460ff166002811115611c1857611c186120da565b03611cf1575f611c278261196d565b90505f6001600160a01b03821615611c3f5781611c5a565b5f838152607b60205260409020600401546001600160a01b03165b608154604051631b16777760e01b81529192506001600160a01b031690631b16777790611c8d9084905f90600401612782565b6020604051808303815f875af1158015611ca9573d5f803e3d5ffd5b505050506040513d601f19601f82011682018060405250810190611ccd91906127a4565b611cee57805f60405163068bc39960e41b8152600401610a76929190612782565b50505b6040518181527f416e669c63d9a3a5e36ee7cc7e2104b8db28ccd286aa18966e98fa230c73b08c9060200160405180910390a150565b8051602091820120825192909101919091201490565b60835460405163288c314960e21b81526001600160a01b039091169063a230c52490611d6d908490600401611e79565b602060405180830381865afa158015611d88573d5f803e3d5ffd5b505050506040513d601f19601f82011682018060405250810190611dac91906127a4565b611dda57607854604051636332657560e11b8152610a769183916001600160a01b039091169060040161255e565b50565b80611de6611e16565b5f938452600301602052604090922080546001600160a01b0319166001600160a01b039093169290921790915550565b7fd5d05b1f29dcb0c0e1698b0261850eb784d1243215a6aa22ea2b8128b2e9497c90565b6001600160a01b0381168114611dda575f80fd5b8035611e5981611e3a565b919050565b5f60208284031215611e6e575f80fd5b813561181881611e3a565b6001600160a01b0391909116815260200190565b5f60208284031215611e9d575f80fd5b5035919050565b634e487b7160e01b5f52604160045260245ffd5b604080519081016001600160401b0381118282101715611eda57611eda611ea4565b60405290565b60405160c081016001600160401b0381118282101715611eda57611eda611ea4565b60405160a081016001600160401b0381118282101715611eda57611eda611ea4565b604051601f8201601f191681016001600160401b0381118282101715611f4c57611f4c611ea4565b604052919050565b5f6001600160401b03821115611f6c57611f6c611ea4565b50601f01601f191660200190565b5f611f8c611f8784611f54565b611f24565b9050828152838383011115611f9f575f80fd5b828260208301375f602084830101529392505050565b5f805f8060808587031215611fc8575f80fd5b8435935060208501356001600160401b0380821115611fe5575f80fd5b9086019060408289031215611ff8575f80fd5b612000611eb8565b82358152602083013582811115612015575f80fd5b80840193505088601f840112612029575f80fd5b61203889843560208601611f7a565b6020820152945061204e91505060408601611e4e565b9396929550929360600135925050565b93845260208401929092526040830152606082015260800190565b5f806040838503121561208a575f80fd5b82356001600160401b0381111561209f575f80fd5b8301601f810185136120af575f80fd5b6120be85823560208401611f7a565b92505060208301356120cf81611e3a565b809150509250929050565b634e487b7160e01b5f52602160045260245ffd5b6020810160058310612102576121026120da565b91905290565b6020810160038310612102576121026120da565b5f5b8381101561213657818101518382015260200161211e565b50505f910152565b5f815180845261215581602086016020860161211c565b601f01601f19169290920160200192915050565b602081525f611818602083018461213e565b6020810160078310612102576121026120da565b5f6020828403121561219f575f80fd5b813560038110611818575f80fd5b5f80604083850312156121be575f80fd5b82356121c981611e3a565b946020939093013593505050565b5f805f805f805f80610100898b0312156121ef575f80fd5b88359750602089013561220181611e3a565b9650604089013561221181611e3a565b9550606089013561222181611e3a565b94506080890135935060a08901356007811061223b575f80fd5b979a969950949793969295929450505060c08201359160e0013590565b5f8082840360e081121561226a575f80fd5b8335925060c0601f198201121561227f575f80fd5b50612288611ee0565b602084013561229681611e3a565b815260408401356122a681611e3a565b80602083015250606084013560408201526080840135606082015260a0840135608082015260c084013560a0820152809150509250929050565b9283526001600160a01b03918216602084015216604082015260600190565b634e487b7160e01b5f52601160045260245ffd5b81810381811115610a0757610a076122ff565b600181811c9082168061233a57607f821691505b60208210810361235857634e487b7160e01b5f52602260045260245ffd5b50919050565b8481525f6020608060208401525f865461237781612326565b80608087015260a060018084165f811461239857600181146123b4576123e1565b60ff19851660a08a015260a084151560051b8a010195506123e1565b8b5f5260205f205f5b858110156123d85781548b82018601529083019088016123bd565b8a0160a0019650505b505050505083810360408501526123f8818761213e565b9250505082606083015295945050505050565b601f82111561245257805f5260205f20601f840160051c810160208510156124305750805b601f840160051c820191505b8181101561244f575f815560010161243c565b50505b505050565b81516001600160401b0381111561247057612470611ea4565b6124848161247e8454612326565b8461240b565b602080601f8311600181146124b7575f84156124a05750858301515b5f19600386901b1c1916600185901b17855561250e565b5f85815260208120601f198616915b828110156124e5578886015182559484019460019091019084016124c6565b508582101561250257878501515f19600388901b60f8161c191681555b505060018460011b0185555b505050505050565b84815260806020820152835160808201525f6020850151604060a084015261254160c084018261213e565b6001600160a01b0395909516604084015250506060015292915050565b6001600160a01b0392831681529116602082015260400190565b5f60408284031215612588575f80fd5b612590611eb8565b8251815260208301519091506001600160401b038111156125af575f80fd5b8201601f810184136125bf575f80fd5b80516125cd611f8782611f54565b8181528560208385010111156125e1575f80fd5b6125f282602083016020860161211c565b602084015250909392505050565b5f60208284031215612610575f80fd5b81516001600160401b0380821115612626575f80fd5b9083019060a08286031215612639575f80fd5b612641611f02565b82518152602083015161265381611e3a565b602082015260408381015190820152606083015161267081611e3a565b6060820152608083015182811115612686575f80fd5b61269287828601612578565b60808301525095945050505050565b5f602082840312156126b1575f80fd5b81516001600160401b03808211156126c7575f80fd5b9083019060c082860312156126da575f80fd5b6126e2611ee0565b8251815260208301516126f481611e3a565b6020820152604083015161270781611e3a565b604082015260608301518281111561271d575f80fd5b61272987828601612578565b6060830152506080830151608082015260a083015160a082015280935050505092915050565b5f60018201612760576127606122ff565b5060010190565b5f60208284031215612777575f80fd5b815161181881611e3a565b6001600160a01b039290921682526001600160801b0316602082015260400190565b5f602082840312156127b4575f80fd5b81518015158114611818575f80fd5b5f602082840312156127d3575f80fd5b5051919050565b5f602082840312156127ea575f80fd5b815160ff81168114611818575f80fd5b60ff8281168282160390811115610a0757610a076122ff565b600181815b8085111561284d57815f1904821115612833576128336122ff565b8085161561284057918102915b93841c9390800290612818565b509250929050565b5f8261286357506001610a07565b8161286f57505f610a07565b8160018114612885576002811461288f576128ab565b6001915050610a07565b60ff8411156128a0576128a06122ff565b50506001821b610a07565b5060208310610133831016604e8410600b84101617156128ce575081810a610a07565b6128d88383612813565b805f19048211156128eb576128eb6122ff565b029392505050565b5f61181860ff841683612855565b5f8261291b57634e487b7160e01b5f52601260045260245ffd5b500490565b8082028115828204841417610a0757610a076122ff565b80820180821115610a0757610a076122ff565b5f825161295b81846020870161211c565b919091019291505056fea164736f6c6343000817000a","linkReferences":{"pkg/contracts/src/CVStrategy/ConvictionsUtils.sol":{"ConvictionsUtils":[{"start":6045,"length":20}]}}},"methodIdentifiers":{"DISPUTE_COOLDOWN_SEC()":"f5be3f7c","MAX_ALLOCATIONS_PER_TX()":"ee50ee1b","MAX_PROPOSAL_COUNT()":"dfe9ec58","MAX_SYNC_BATCH_MEMBERS()":"4c3ceb5b","MAX_VOTER_STAKED_PROPOSALS()":"914bdef0","ONE_HOUR()":"165035e2","RULING_OPTIONS()":"626c47e8","_isStrategyEnabled()":"8dc83094","arbitrableConfigs(uint256)":"41bb7605","calculateProposalConviction(uint256)":"60b0645a","cancelProposal(uint256)":"e0a8f6f5","cloneNonce()":"33960459","collateralVault()":"0bece79c","currentArbitrableConfigVersion()":"125fd1d9","cvParams()":"2506b870","disputeCount()":"a28889e1","disputeIdToProposalId(uint256)":"255ffb38","editProposal(uint256,(uint256,string),address,uint256)":"141e3b38","getPoolAmount()":"4ab4ba42","getProposalBeneficiary(uint256)":"a656985d","getProposalMetadataPointer(uint256)":"3587c79b","getProposalRequestedAmount(uint256)":"7c97eede","getProposalStatus(uint256)":"401853b7","lastRebalanceAt()":"2cea13f9","pointConfig()":"a47ff7e5","pointSystem()":"2dbd6fdd","proposalCounter()":"0c0512e9","proposalExists(uint256)":"1374b22d","proposalType()":"351d9f96","rebalanceCooldown()":"b3de272d","registerRecipient(bytes,address)":"2bbe0cae","registryCommunity()":"6003e414","seedProposal(uint256,address,address,address,uint256,uint8,uint256,uint256)":"c939aa91","setAllo(address)":"3c092330","setArbitrableConfig(uint256,(address,address,uint256,uint256,uint256,uint256))":"ff3db2ce","setCollateralVault(address)":"68a806c4","setCollateralVaultTemplateRaw(address)":"a0449bf3","setPoolId(uint256)":"ac78012c","setProposalType(uint8)":"6eeeae93","setRegistryCommunity(address)":"058aca44","setVotingPowerRegistry(address)":"170aba0d","streamingEscrow(uint256)":"b04b5b26","streamingRatePerSecond()":"94573cbb","superfluidGDA()":"1b36f56f","superfluidToken()":"05caa7f3","sybilScorer()":"b6c61f31","totalPointsActivated()":"aba9ffee","totalStaked()":"817b1cd2","totalVoterStakePct(address)":"5db64b99","voterStakedProposals(address,uint256)":"868c57b8","votingPowerRegistry()":"80fd91cd"},"storageLayout":{"storage":[{"astId":115638,"contract":"pkg/contracts/test/helpers/CVStrategyHelpers.sol:CVProposalFacetHarness","label":"_initialized","offset":0,"slot":"0","type":"t_uint8"},{"astId":115640,"contract":"pkg/contracts/test/helpers/CVStrategyHelpers.sol:CVProposalFacetHarness","label":"_initializing","offset":1,"slot":"0","type":"t_bool"},{"astId":115644,"contract":"pkg/contracts/test/helpers/CVStrategyHelpers.sol:CVProposalFacetHarness","label":"__gap_init","offset":0,"slot":"1","type":"t_array(t_uint256)50_storage"},{"astId":115647,"contract":"pkg/contracts/test/helpers/CVStrategyHelpers.sol:CVProposalFacetHarness","label":"_owner","offset":0,"slot":"51","type":"t_address"},{"astId":115651,"contract":"pkg/contracts/test/helpers/CVStrategyHelpers.sol:CVProposalFacetHarness","label":"__gap_ownable","offset":0,"slot":"52","type":"t_array(t_uint256)49_storage"},{"astId":115655,"contract":"pkg/contracts/test/helpers/CVStrategyHelpers.sol:CVProposalFacetHarness","label":"allo","offset":0,"slot":"101","type":"t_contract(IAllo)2631"},{"astId":115657,"contract":"pkg/contracts/test/helpers/CVStrategyHelpers.sol:CVProposalFacetHarness","label":"strategyId","offset":0,"slot":"102","type":"t_bytes32"},{"astId":115659,"contract":"pkg/contracts/test/helpers/CVStrategyHelpers.sol:CVProposalFacetHarness","label":"poolActive","offset":0,"slot":"103","type":"t_bool"},{"astId":115661,"contract":"pkg/contracts/test/helpers/CVStrategyHelpers.sol:CVProposalFacetHarness","label":"poolId","offset":0,"slot":"104","type":"t_uint256"},{"astId":115663,"contract":"pkg/contracts/test/helpers/CVStrategyHelpers.sol:CVProposalFacetHarness","label":"poolAmount","offset":0,"slot":"105","type":"t_uint256"},{"astId":115666,"contract":"pkg/contracts/test/helpers/CVStrategyHelpers.sol:CVProposalFacetHarness","label":"collateralVaultTemplate","offset":0,"slot":"106","type":"t_address"},{"astId":115669,"contract":"pkg/contracts/test/helpers/CVStrategyHelpers.sol:CVProposalFacetHarness","label":"surpressStateMutabilityWarning","offset":0,"slot":"107","type":"t_uint256"},{"astId":115672,"contract":"pkg/contracts/test/helpers/CVStrategyHelpers.sol:CVProposalFacetHarness","label":"cloneNonce","offset":0,"slot":"108","type":"t_uint256"},{"astId":115675,"contract":"pkg/contracts/test/helpers/CVStrategyHelpers.sol:CVProposalFacetHarness","label":"disputeCount","offset":0,"slot":"109","type":"t_uint64"},{"astId":115678,"contract":"pkg/contracts/test/helpers/CVStrategyHelpers.sol:CVProposalFacetHarness","label":"proposalCounter","offset":0,"slot":"110","type":"t_uint256"},{"astId":115681,"contract":"pkg/contracts/test/helpers/CVStrategyHelpers.sol:CVProposalFacetHarness","label":"currentArbitrableConfigVersion","offset":0,"slot":"111","type":"t_uint256"},{"astId":115684,"contract":"pkg/contracts/test/helpers/CVStrategyHelpers.sol:CVProposalFacetHarness","label":"totalStaked","offset":0,"slot":"112","type":"t_uint256"},{"astId":115687,"contract":"pkg/contracts/test/helpers/CVStrategyHelpers.sol:CVProposalFacetHarness","label":"totalPointsActivated","offset":0,"slot":"113","type":"t_uint256"},{"astId":115691,"contract":"pkg/contracts/test/helpers/CVStrategyHelpers.sol:CVProposalFacetHarness","label":"cvParams","offset":0,"slot":"114","type":"t_struct(CVParams)117365_storage"},{"astId":115695,"contract":"pkg/contracts/test/helpers/CVStrategyHelpers.sol:CVProposalFacetHarness","label":"proposalType","offset":0,"slot":"118","type":"t_enum(ProposalType)117265"},{"astId":115699,"contract":"pkg/contracts/test/helpers/CVStrategyHelpers.sol:CVProposalFacetHarness","label":"pointSystem","offset":1,"slot":"118","type":"t_enum(PointSystem)117271"},{"astId":115703,"contract":"pkg/contracts/test/helpers/CVStrategyHelpers.sol:CVProposalFacetHarness","label":"pointConfig","offset":0,"slot":"119","type":"t_struct(PointSystemConfig)117342_storage"},{"astId":115707,"contract":"pkg/contracts/test/helpers/CVStrategyHelpers.sol:CVProposalFacetHarness","label":"registryCommunity","offset":0,"slot":"120","type":"t_contract(RegistryCommunity)130730"},{"astId":115711,"contract":"pkg/contracts/test/helpers/CVStrategyHelpers.sol:CVProposalFacetHarness","label":"collateralVault","offset":0,"slot":"121","type":"t_contract(ICollateralVault)136815"},{"astId":115715,"contract":"pkg/contracts/test/helpers/CVStrategyHelpers.sol:CVProposalFacetHarness","label":"sybilScorer","offset":0,"slot":"122","type":"t_contract(ISybilScorer)127709"},{"astId":115721,"contract":"pkg/contracts/test/helpers/CVStrategyHelpers.sol:CVProposalFacetHarness","label":"proposals","offset":0,"slot":"123","type":"t_mapping(t_uint256,t_struct(Proposal)117334_storage)"},{"astId":115726,"contract":"pkg/contracts/test/helpers/CVStrategyHelpers.sol:CVProposalFacetHarness","label":"totalVoterStakePct","offset":0,"slot":"124","type":"t_mapping(t_address,t_uint256)"},{"astId":115732,"contract":"pkg/contracts/test/helpers/CVStrategyHelpers.sol:CVProposalFacetHarness","label":"voterStakedProposals","offset":0,"slot":"125","type":"t_mapping(t_address,t_array(t_uint256)dyn_storage)"},{"astId":115737,"contract":"pkg/contracts/test/helpers/CVStrategyHelpers.sol:CVProposalFacetHarness","label":"disputeIdToProposalId","offset":0,"slot":"126","type":"t_mapping(t_uint256,t_uint256)"},{"astId":115743,"contract":"pkg/contracts/test/helpers/CVStrategyHelpers.sol:CVProposalFacetHarness","label":"arbitrableConfigs","offset":0,"slot":"127","type":"t_mapping(t_uint256,t_struct(ArbitrableConfig)117356_storage)"},{"astId":115747,"contract":"pkg/contracts/test/helpers/CVStrategyHelpers.sol:CVProposalFacetHarness","label":"superfluidToken","offset":0,"slot":"128","type":"t_contract(ISuperToken)80262"},{"astId":115751,"contract":"pkg/contracts/test/helpers/CVStrategyHelpers.sol:CVProposalFacetHarness","label":"superfluidGDA","offset":0,"slot":"129","type":"t_contract(ISuperfluidPool)79090"},{"astId":115754,"contract":"pkg/contracts/test/helpers/CVStrategyHelpers.sol:CVProposalFacetHarness","label":"streamingRatePerSecond","offset":0,"slot":"130","type":"t_uint256"},{"astId":115758,"contract":"pkg/contracts/test/helpers/CVStrategyHelpers.sol:CVProposalFacetHarness","label":"votingPowerRegistry","offset":0,"slot":"131","type":"t_contract(IVotingPowerRegistry)137019"},{"astId":115763,"contract":"pkg/contracts/test/helpers/CVStrategyHelpers.sol:CVProposalFacetHarness","label":"__gap","offset":0,"slot":"132","type":"t_array(t_uint256)46_storage"}],"types":{"t_address":{"encoding":"inplace","label":"address","numberOfBytes":"20"},"t_array(t_uint256)46_storage":{"encoding":"inplace","label":"uint256[46]","numberOfBytes":"1472","base":"t_uint256"},"t_array(t_uint256)49_storage":{"encoding":"inplace","label":"uint256[49]","numberOfBytes":"1568","base":"t_uint256"},"t_array(t_uint256)50_storage":{"encoding":"inplace","label":"uint256[50]","numberOfBytes":"1600","base":"t_uint256"},"t_array(t_uint256)dyn_storage":{"encoding":"dynamic_array","label":"uint256[]","numberOfBytes":"32","base":"t_uint256"},"t_bool":{"encoding":"inplace","label":"bool","numberOfBytes":"1"},"t_bytes32":{"encoding":"inplace","label":"bytes32","numberOfBytes":"32"},"t_contract(IAllo)2631":{"encoding":"inplace","label":"contract IAllo","numberOfBytes":"20"},"t_contract(IArbitrator)136782":{"encoding":"inplace","label":"contract IArbitrator","numberOfBytes":"20"},"t_contract(ICollateralVault)136815":{"encoding":"inplace","label":"contract ICollateralVault","numberOfBytes":"20"},"t_contract(ISuperToken)80262":{"encoding":"inplace","label":"contract ISuperToken","numberOfBytes":"20"},"t_contract(ISuperfluidPool)79090":{"encoding":"inplace","label":"contract ISuperfluidPool","numberOfBytes":"20"},"t_contract(ISybilScorer)127709":{"encoding":"inplace","label":"contract ISybilScorer","numberOfBytes":"20"},"t_contract(IVotingPowerRegistry)137019":{"encoding":"inplace","label":"contract IVotingPowerRegistry","numberOfBytes":"20"},"t_contract(RegistryCommunity)130730":{"encoding":"inplace","label":"contract RegistryCommunity","numberOfBytes":"20"},"t_enum(PointSystem)117271":{"encoding":"inplace","label":"enum PointSystem","numberOfBytes":"1"},"t_enum(ProposalStatus)117291":{"encoding":"inplace","label":"enum ProposalStatus","numberOfBytes":"1"},"t_enum(ProposalType)117265":{"encoding":"inplace","label":"enum ProposalType","numberOfBytes":"1"},"t_mapping(t_address,t_array(t_uint256)dyn_storage)":{"encoding":"mapping","key":"t_address","label":"mapping(address => uint256[])","numberOfBytes":"32","value":"t_array(t_uint256)dyn_storage"},"t_mapping(t_address,t_uint256)":{"encoding":"mapping","key":"t_address","label":"mapping(address => uint256)","numberOfBytes":"32","value":"t_uint256"},"t_mapping(t_uint256,t_struct(ArbitrableConfig)117356_storage)":{"encoding":"mapping","key":"t_uint256","label":"mapping(uint256 => struct ArbitrableConfig)","numberOfBytes":"32","value":"t_struct(ArbitrableConfig)117356_storage"},"t_mapping(t_uint256,t_struct(Proposal)117334_storage)":{"encoding":"mapping","key":"t_uint256","label":"mapping(uint256 => struct Proposal)","numberOfBytes":"32","value":"t_struct(Proposal)117334_storage"},"t_mapping(t_uint256,t_uint256)":{"encoding":"mapping","key":"t_uint256","label":"mapping(uint256 => uint256)","numberOfBytes":"32","value":"t_uint256"},"t_string_storage":{"encoding":"bytes","label":"string","numberOfBytes":"32"},"t_struct(ArbitrableConfig)117356_storage":{"encoding":"inplace","label":"struct ArbitrableConfig","numberOfBytes":"192","members":[{"astId":117345,"contract":"pkg/contracts/test/helpers/CVStrategyHelpers.sol:CVProposalFacetHarness","label":"arbitrator","offset":0,"slot":"0","type":"t_contract(IArbitrator)136782"},{"astId":117347,"contract":"pkg/contracts/test/helpers/CVStrategyHelpers.sol:CVProposalFacetHarness","label":"tribunalSafe","offset":0,"slot":"1","type":"t_address"},{"astId":117349,"contract":"pkg/contracts/test/helpers/CVStrategyHelpers.sol:CVProposalFacetHarness","label":"submitterCollateralAmount","offset":0,"slot":"2","type":"t_uint256"},{"astId":117351,"contract":"pkg/contracts/test/helpers/CVStrategyHelpers.sol:CVProposalFacetHarness","label":"challengerCollateralAmount","offset":0,"slot":"3","type":"t_uint256"},{"astId":117353,"contract":"pkg/contracts/test/helpers/CVStrategyHelpers.sol:CVProposalFacetHarness","label":"defaultRuling","offset":0,"slot":"4","type":"t_uint256"},{"astId":117355,"contract":"pkg/contracts/test/helpers/CVStrategyHelpers.sol:CVProposalFacetHarness","label":"defaultRulingTimeout","offset":0,"slot":"5","type":"t_uint256"}]},"t_struct(CVParams)117365_storage":{"encoding":"inplace","label":"struct CVParams","numberOfBytes":"128","members":[{"astId":117358,"contract":"pkg/contracts/test/helpers/CVStrategyHelpers.sol:CVProposalFacetHarness","label":"maxRatio","offset":0,"slot":"0","type":"t_uint256"},{"astId":117360,"contract":"pkg/contracts/test/helpers/CVStrategyHelpers.sol:CVProposalFacetHarness","label":"weight","offset":0,"slot":"1","type":"t_uint256"},{"astId":117362,"contract":"pkg/contracts/test/helpers/CVStrategyHelpers.sol:CVProposalFacetHarness","label":"decay","offset":0,"slot":"2","type":"t_uint256"},{"astId":117364,"contract":"pkg/contracts/test/helpers/CVStrategyHelpers.sol:CVProposalFacetHarness","label":"minThresholdPoints","offset":0,"slot":"3","type":"t_uint256"}]},"t_struct(Metadata)3086_storage":{"encoding":"inplace","label":"struct Metadata","numberOfBytes":"64","members":[{"astId":3082,"contract":"pkg/contracts/test/helpers/CVStrategyHelpers.sol:CVProposalFacetHarness","label":"protocol","offset":0,"slot":"0","type":"t_uint256"},{"astId":3085,"contract":"pkg/contracts/test/helpers/CVStrategyHelpers.sol:CVProposalFacetHarness","label":"pointer","offset":0,"slot":"1","type":"t_string_storage"}]},"t_struct(PointSystemConfig)117342_storage":{"encoding":"inplace","label":"struct PointSystemConfig","numberOfBytes":"32","members":[{"astId":117341,"contract":"pkg/contracts/test/helpers/CVStrategyHelpers.sol:CVProposalFacetHarness","label":"maxAmount","offset":0,"slot":"0","type":"t_uint256"}]},"t_struct(Proposal)117334_storage":{"encoding":"inplace","label":"struct Proposal","numberOfBytes":"576","members":[{"astId":117300,"contract":"pkg/contracts/test/helpers/CVStrategyHelpers.sol:CVProposalFacetHarness","label":"proposalId","offset":0,"slot":"0","type":"t_uint256"},{"astId":117302,"contract":"pkg/contracts/test/helpers/CVStrategyHelpers.sol:CVProposalFacetHarness","label":"requestedAmount","offset":0,"slot":"1","type":"t_uint256"},{"astId":117304,"contract":"pkg/contracts/test/helpers/CVStrategyHelpers.sol:CVProposalFacetHarness","label":"stakedAmount","offset":0,"slot":"2","type":"t_uint256"},{"astId":117306,"contract":"pkg/contracts/test/helpers/CVStrategyHelpers.sol:CVProposalFacetHarness","label":"convictionLast","offset":0,"slot":"3","type":"t_uint256"},{"astId":117308,"contract":"pkg/contracts/test/helpers/CVStrategyHelpers.sol:CVProposalFacetHarness","label":"beneficiary","offset":0,"slot":"4","type":"t_address"},{"astId":117310,"contract":"pkg/contracts/test/helpers/CVStrategyHelpers.sol:CVProposalFacetHarness","label":"submitter","offset":0,"slot":"5","type":"t_address"},{"astId":117312,"contract":"pkg/contracts/test/helpers/CVStrategyHelpers.sol:CVProposalFacetHarness","label":"requestedToken","offset":0,"slot":"6","type":"t_address"},{"astId":117314,"contract":"pkg/contracts/test/helpers/CVStrategyHelpers.sol:CVProposalFacetHarness","label":"blockLast","offset":0,"slot":"7","type":"t_uint256"},{"astId":117317,"contract":"pkg/contracts/test/helpers/CVStrategyHelpers.sol:CVProposalFacetHarness","label":"proposalStatus","offset":0,"slot":"8","type":"t_enum(ProposalStatus)117291"},{"astId":117321,"contract":"pkg/contracts/test/helpers/CVStrategyHelpers.sol:CVProposalFacetHarness","label":"voterStakedPoints","offset":0,"slot":"9","type":"t_mapping(t_address,t_uint256)"},{"astId":117324,"contract":"pkg/contracts/test/helpers/CVStrategyHelpers.sol:CVProposalFacetHarness","label":"metadata","offset":0,"slot":"10","type":"t_struct(Metadata)3086_storage"},{"astId":117327,"contract":"pkg/contracts/test/helpers/CVStrategyHelpers.sol:CVProposalFacetHarness","label":"disputeInfo","offset":0,"slot":"12","type":"t_struct(ProposalDisputeInfo)117298_storage"},{"astId":117329,"contract":"pkg/contracts/test/helpers/CVStrategyHelpers.sol:CVProposalFacetHarness","label":"lastDisputeCompletion","offset":0,"slot":"15","type":"t_uint256"},{"astId":117331,"contract":"pkg/contracts/test/helpers/CVStrategyHelpers.sol:CVProposalFacetHarness","label":"arbitrableConfigVersion","offset":0,"slot":"16","type":"t_uint256"},{"astId":117333,"contract":"pkg/contracts/test/helpers/CVStrategyHelpers.sol:CVProposalFacetHarness","label":"creationTimestamp","offset":0,"slot":"17","type":"t_uint256"}]},"t_struct(ProposalDisputeInfo)117298_storage":{"encoding":"inplace","label":"struct ProposalDisputeInfo","numberOfBytes":"96","members":[{"astId":117293,"contract":"pkg/contracts/test/helpers/CVStrategyHelpers.sol:CVProposalFacetHarness","label":"disputeId","offset":0,"slot":"0","type":"t_uint256"},{"astId":117295,"contract":"pkg/contracts/test/helpers/CVStrategyHelpers.sol:CVProposalFacetHarness","label":"disputeTimestamp","offset":0,"slot":"1","type":"t_uint256"},{"astId":117297,"contract":"pkg/contracts/test/helpers/CVStrategyHelpers.sol:CVProposalFacetHarness","label":"challenger","offset":0,"slot":"2","type":"t_address"}]},"t_uint256":{"encoding":"inplace","label":"uint256","numberOfBytes":"32"},"t_uint64":{"encoding":"inplace","label":"uint64","numberOfBytes":"8"},"t_uint8":{"encoding":"inplace","label":"uint8","numberOfBytes":"1"}}},"id":283}