{"abi":[{"type":"fallback","stateMutability":"payable"},{"type":"receive","stateMutability":"payable"},{"type":"function","name":"DISPUTE_COOLDOWN_SEC","inputs":[],"outputs":[{"name":"","type":"uint256","internalType":"uint256"}],"stateMutability":"view"},{"type":"function","name":"NATIVE","inputs":[],"outputs":[{"name":"","type":"address","internalType":"address"}],"stateMutability":"view"},{"type":"function","name":"RULING_OPTIONS","inputs":[],"outputs":[{"name":"","type":"uint256","internalType":"uint256"}],"stateMutability":"view"},{"type":"function","name":"activatePoints","inputs":[],"outputs":[],"stateMutability":"nonpayable"},{"type":"function","name":"activeProposalCount","inputs":[],"outputs":[{"name":"","type":"uint256","internalType":"uint256"}],"stateMutability":"view"},{"type":"function","name":"activeProposalCountInitialized","inputs":[],"outputs":[{"name":"","type":"bool","internalType":"bool"}],"stateMutability":"view"},{"type":"function","name":"allocate","inputs":[{"name":"","type":"bytes","internalType":"bytes"},{"name":"","type":"address","internalType":"address"}],"outputs":[],"stateMutability":"payable"},{"type":"function","name":"arbitrableConfigs","inputs":[{"name":"","type":"uint256","internalType":"uint256"}],"outputs":[{"name":"arbitrator","type":"address","internalType":"contract IArbitrator"},{"name":"tribunalSafe","type":"address","internalType":"address"},{"name":"submitterCollateralAmount","type":"uint256","internalType":"uint256"},{"name":"challengerCollateralAmount","type":"uint256","internalType":"uint256"},{"name":"defaultRuling","type":"uint256","internalType":"uint256"},{"name":"defaultRulingTimeout","type":"uint256","internalType":"uint256"}],"stateMutability":"view"},{"type":"function","name":"calculateProposalConviction","inputs":[{"name":"_proposalId","type":"uint256","internalType":"uint256"}],"outputs":[{"name":"","type":"uint256","internalType":"uint256"}],"stateMutability":"view"},{"type":"function","name":"calculateThreshold","inputs":[{"name":"_requestedAmount","type":"uint256","internalType":"uint256"}],"outputs":[{"name":"","type":"uint256","internalType":"uint256"}],"stateMutability":"view"},{"type":"function","name":"cancelProposal","inputs":[{"name":"","type":"uint256","internalType":"uint256"}],"outputs":[],"stateMutability":"nonpayable"},{"type":"function","name":"cloneNonce","inputs":[],"outputs":[{"name":"","type":"uint256","internalType":"uint256"}],"stateMutability":"view"},{"type":"function","name":"collateralVault","inputs":[],"outputs":[{"name":"","type":"address","internalType":"contract ICollateralVault"}],"stateMutability":"view"},{"type":"function","name":"connectSuperfluidGDA","inputs":[{"name":"","type":"address","internalType":"address"}],"outputs":[],"stateMutability":"nonpayable"},{"type":"function","name":"currentArbitrableConfigVersion","inputs":[],"outputs":[{"name":"","type":"uint256","internalType":"uint256"}],"stateMutability":"view"},{"type":"function","name":"cvParams","inputs":[],"outputs":[{"name":"maxRatio","type":"uint256","internalType":"uint256"},{"name":"weight","type":"uint256","internalType":"uint256"},{"name":"decay","type":"uint256","internalType":"uint256"},{"name":"minThresholdPoints","type":"uint256","internalType":"uint256"}],"stateMutability":"view"},{"type":"function","name":"deactivatePoints","inputs":[],"outputs":[],"stateMutability":"nonpayable"},{"type":"function","name":"deactivatePoints","inputs":[{"name":"","type":"address","internalType":"address"}],"outputs":[],"stateMutability":"nonpayable"},{"type":"function","name":"decreasePower","inputs":[{"name":"","type":"address","internalType":"address"},{"name":"","type":"uint256","internalType":"uint256"}],"outputs":[{"name":"","type":"uint256","internalType":"uint256"}],"stateMutability":"nonpayable"},{"type":"function","name":"diamondCut","inputs":[{"name":"_diamondCut","type":"tuple[]","internalType":"struct IDiamond.FacetCut[]","components":[{"name":"facetAddress","type":"address","internalType":"address"},{"name":"action","type":"uint8","internalType":"enum IDiamond.FacetCutAction"},{"name":"functionSelectors","type":"bytes4[]","internalType":"bytes4[]"}]},{"name":"_init","type":"address","internalType":"address"},{"name":"_calldata","type":"bytes","internalType":"bytes"}],"outputs":[],"stateMutability":"nonpayable"},{"type":"function","name":"disconnectSuperfluidGDA","inputs":[{"name":"","type":"address","internalType":"address"}],"outputs":[],"stateMutability":"nonpayable"},{"type":"function","name":"disputeCount","inputs":[],"outputs":[{"name":"","type":"uint64","internalType":"uint64"}],"stateMutability":"view"},{"type":"function","name":"disputeIdToProposalId","inputs":[{"name":"","type":"uint256","internalType":"uint256"}],"outputs":[{"name":"","type":"uint256","internalType":"uint256"}],"stateMutability":"view"},{"type":"function","name":"disputeProposal","inputs":[{"name":"proposalId","type":"uint256","internalType":"uint256"},{"name":"context","type":"string","internalType":"string"},{"name":"_extraData","type":"bytes","internalType":"bytes"}],"outputs":[{"name":"","type":"uint256","internalType":"uint256"}],"stateMutability":"payable"},{"type":"function","name":"distribute","inputs":[{"name":"","type":"address[]","internalType":"address[]"},{"name":"","type":"bytes","internalType":"bytes"},{"name":"","type":"address","internalType":"address"}],"outputs":[],"stateMutability":"nonpayable"},{"type":"function","name":"editProposal","inputs":[{"name":"","type":"uint256","internalType":"uint256"},{"name":"","type":"tuple","internalType":"struct Metadata","components":[{"name":"protocol","type":"uint256","internalType":"uint256"},{"name":"pointer","type":"string","internalType":"string"}]},{"name":"","type":"address","internalType":"address"},{"name":"","type":"uint256","internalType":"uint256"}],"outputs":[],"stateMutability":"nonpayable"},{"type":"function","name":"exposedApplyDelta","inputs":[{"name":"support","type":"uint256","internalType":"uint256"},{"name":"delta","type":"int256","internalType":"int256"}],"outputs":[{"name":"","type":"uint256","internalType":"uint256"}],"stateMutability":"pure"},{"type":"function","name":"exposedCalculateAndSetConviction","inputs":[{"name":"proposalId","type":"uint256","internalType":"uint256"},{"name":"oldStaked","type":"uint256","internalType":"uint256"}],"outputs":[],"stateMutability":"nonpayable"},{"type":"function","name":"exposedCanExecuteAction","inputs":[{"name":"user","type":"address","internalType":"address"}],"outputs":[{"name":"","type":"bool","internalType":"bool"}],"stateMutability":"view"},{"type":"function","name":"exposedCheckBlockAndCalculateConviction","inputs":[{"name":"proposalId","type":"uint256","internalType":"uint256"},{"name":"oldStaked","type":"uint256","internalType":"uint256"}],"outputs":[{"name":"conviction","type":"uint256","internalType":"uint256"},{"name":"blockNumber","type":"uint256","internalType":"uint256"}],"stateMutability":"view"},{"type":"function","name":"exposedCheckProposalAllocationValidity","inputs":[{"name":"proposalId","type":"uint256","internalType":"uint256"},{"name":"deltaSupport","type":"int256","internalType":"int256"}],"outputs":[],"stateMutability":"view"},{"type":"function","name":"exposedCheckSenderIsMember","inputs":[{"name":"sender","type":"address","internalType":"address"}],"outputs":[],"stateMutability":"nonpayable"},{"type":"function","name":"exposedIsOverMaxRatio","inputs":[{"name":"requestedAmount","type":"uint256","internalType":"uint256"}],"outputs":[{"name":"","type":"bool","internalType":"bool"}],"stateMutability":"view"},{"type":"function","name":"exposedOnlyCouncilSafe","inputs":[],"outputs":[],"stateMutability":"view"},{"type":"function","name":"exposedOnlyCouncilSafeOrMember","inputs":[],"outputs":[],"stateMutability":"view"},{"type":"function","name":"exposedOnlyRegistryCommunity","inputs":[],"outputs":[],"stateMutability":"view"},{"type":"function","name":"exposedProposalExists","inputs":[{"name":"proposalId","type":"uint256","internalType":"uint256"}],"outputs":[{"name":"","type":"bool","internalType":"bool"}],"stateMutability":"view"},{"type":"function","name":"getAllo","inputs":[],"outputs":[{"name":"","type":"address","internalType":"contract IAllo"}],"stateMutability":"view"},{"type":"function","name":"getArbitrableConfig","inputs":[],"outputs":[{"name":"arbitrator","type":"address","internalType":"contract IArbitrator"},{"name":"tribunalSafe","type":"address","internalType":"address"},{"name":"submitterCollateralAmount","type":"uint256","internalType":"uint256"},{"name":"challengerCollateralAmount","type":"uint256","internalType":"uint256"},{"name":"defaultRuling","type":"uint256","internalType":"uint256"},{"name":"defaultRulingTimeout","type":"uint256","internalType":"uint256"}],"stateMutability":"view"},{"type":"function","name":"getFacets","inputs":[],"outputs":[{"name":"facets_","type":"tuple[]","internalType":"struct IDiamondLoupe.Facet[]","components":[{"name":"facetAddress","type":"address","internalType":"address"},{"name":"functionSelectors","type":"bytes4[]","internalType":"bytes4[]"}]}],"stateMutability":"view"},{"type":"function","name":"getMaxAmount","inputs":[],"outputs":[{"name":"","type":"uint256","internalType":"uint256"}],"stateMutability":"view"},{"type":"function","name":"getPointSystem","inputs":[],"outputs":[{"name":"","type":"uint8","internalType":"enum PointSystem"}],"stateMutability":"view"},{"type":"function","name":"getPoolAmount","inputs":[],"outputs":[{"name":"","type":"uint256","internalType":"uint256"}],"stateMutability":"view"},{"type":"function","name":"getPoolId","inputs":[],"outputs":[{"name":"","type":"uint256","internalType":"uint256"}],"stateMutability":"view"},{"type":"function","name":"getProposal","inputs":[{"name":"_proposalId","type":"uint256","internalType":"uint256"}],"outputs":[{"name":"submitter","type":"address","internalType":"address"},{"name":"beneficiary","type":"address","internalType":"address"},{"name":"requestedToken","type":"address","internalType":"address"},{"name":"requestedAmount","type":"uint256","internalType":"uint256"},{"name":"stakedAmount","type":"uint256","internalType":"uint256"},{"name":"proposalStatus","type":"uint8","internalType":"enum ProposalStatus"},{"name":"blockLast","type":"uint256","internalType":"uint256"},{"name":"convictionLast","type":"uint256","internalType":"uint256"},{"name":"threshold","type":"uint256","internalType":"uint256"},{"name":"voterStakedPoints","type":"uint256","internalType":"uint256"},{"name":"arbitrableConfigVersion","type":"uint256","internalType":"uint256"},{"name":"protocol","type":"uint256","internalType":"uint256"}],"stateMutability":"view"},{"type":"function","name":"getProposalMetadataPointer","inputs":[{"name":"_proposalId","type":"uint256","internalType":"uint256"}],"outputs":[{"name":"","type":"string","internalType":"string"}],"stateMutability":"view"},{"type":"function","name":"getProposalStakedAmount","inputs":[{"name":"_proposalId","type":"uint256","internalType":"uint256"}],"outputs":[{"name":"","type":"uint256","internalType":"uint256"}],"stateMutability":"view"},{"type":"function","name":"getProposalThreshold","inputs":[{"name":"proposalId","type":"uint256","internalType":"uint256"}],"outputs":[{"name":"","type":"uint256","internalType":"uint256"}],"stateMutability":"view"},{"type":"function","name":"getProposalVoterStake","inputs":[{"name":"_proposalId","type":"uint256","internalType":"uint256"},{"name":"_voter","type":"address","internalType":"address"}],"outputs":[{"name":"","type":"uint256","internalType":"uint256"}],"stateMutability":"view"},{"type":"function","name":"increasePower","inputs":[{"name":"","type":"address","internalType":"address"},{"name":"","type":"uint256","internalType":"uint256"}],"outputs":[{"name":"","type":"uint256","internalType":"uint256"}],"stateMutability":"nonpayable"},{"type":"function","name":"init","inputs":[{"name":"_allo","type":"address","internalType":"address"},{"name":"_collateralVaultTemplate","type":"address","internalType":"address"},{"name":"_owner","type":"address","internalType":"address"}],"outputs":[],"stateMutability":"nonpayable"},{"type":"function","name":"init","inputs":[{"name":"_allo","type":"address","internalType":"address"},{"name":"_name","type":"string","internalType":"string"},{"name":"_owner","type":"address","internalType":"address"}],"outputs":[],"stateMutability":"nonpayable"},{"type":"function","name":"initialize","inputs":[{"name":"initialOwner","type":"address","internalType":"address"}],"outputs":[],"stateMutability":"nonpayable"},{"type":"function","name":"initialize","inputs":[{"name":"_poolId","type":"uint256","internalType":"uint256"},{"name":"_data","type":"bytes","internalType":"bytes"}],"outputs":[],"stateMutability":"nonpayable"},{"type":"function","name":"isPaused","inputs":[{"name":"","type":"bytes4","internalType":"bytes4"}],"outputs":[{"name":"","type":"bool","internalType":"bool"}],"stateMutability":"nonpayable"},{"type":"function","name":"isPaused","inputs":[],"outputs":[{"name":"","type":"bool","internalType":"bool"}],"stateMutability":"nonpayable"},{"type":"function","name":"isPoolActive","inputs":[],"outputs":[{"name":"","type":"bool","internalType":"bool"}],"stateMutability":"view"},{"type":"function","name":"lastRebalanceAt","inputs":[],"outputs":[{"name":"","type":"uint256","internalType":"uint256"}],"stateMutability":"view"},{"type":"function","name":"openStreamingProposalIds","inputs":[{"name":"","type":"uint256","internalType":"uint256"}],"outputs":[{"name":"","type":"uint256","internalType":"uint256"}],"stateMutability":"view"},{"type":"function","name":"openStreamingProposalIndex","inputs":[{"name":"","type":"uint256","internalType":"uint256"}],"outputs":[{"name":"","type":"uint256","internalType":"uint256"}],"stateMutability":"view"},{"type":"function","name":"openStreamingProposalsInitialized","inputs":[],"outputs":[{"name":"","type":"bool","internalType":"bool"}],"stateMutability":"view"},{"type":"function","name":"owner","inputs":[],"outputs":[{"name":"","type":"address","internalType":"address"}],"stateMutability":"view"},{"type":"function","name":"pause","inputs":[{"name":"","type":"uint256","internalType":"uint256"}],"outputs":[],"stateMutability":"nonpayable"},{"type":"function","name":"pause","inputs":[{"name":"","type":"bytes4","internalType":"bytes4"},{"name":"","type":"uint256","internalType":"uint256"}],"outputs":[],"stateMutability":"nonpayable"},{"type":"function","name":"pauseController","inputs":[],"outputs":[{"name":"","type":"address","internalType":"address"}],"stateMutability":"nonpayable"},{"type":"function","name":"pauseFacet","inputs":[],"outputs":[{"name":"","type":"address","internalType":"address"}],"stateMutability":"nonpayable"},{"type":"function","name":"pausedSelectorUntil","inputs":[{"name":"","type":"bytes4","internalType":"bytes4"}],"outputs":[{"name":"","type":"uint256","internalType":"uint256"}],"stateMutability":"nonpayable"},{"type":"function","name":"pausedUntil","inputs":[],"outputs":[{"name":"","type":"uint256","internalType":"uint256"}],"stateMutability":"nonpayable"},{"type":"function","name":"pointConfig","inputs":[],"outputs":[{"name":"maxAmount","type":"uint256","internalType":"uint256"}],"stateMutability":"view"},{"type":"function","name":"pointSystem","inputs":[],"outputs":[{"name":"","type":"uint8","internalType":"enum PointSystem"}],"stateMutability":"view"},{"type":"function","name":"proposalCounter","inputs":[],"outputs":[{"name":"","type":"uint256","internalType":"uint256"}],"stateMutability":"view"},{"type":"function","name":"proposalType","inputs":[],"outputs":[{"name":"","type":"uint8","internalType":"enum ProposalType"}],"stateMutability":"view"},{"type":"function","name":"proxiableUUID","inputs":[],"outputs":[{"name":"","type":"bytes32","internalType":"bytes32"}],"stateMutability":"view"},{"type":"function","name":"proxyOwner","inputs":[],"outputs":[{"name":"","type":"address","internalType":"address"}],"stateMutability":"view"},{"type":"function","name":"rebalance","inputs":[],"outputs":[],"stateMutability":"nonpayable"},{"type":"function","name":"rebalanceCooldown","inputs":[],"outputs":[{"name":"","type":"uint256","internalType":"uint256"}],"stateMutability":"view"},{"type":"function","name":"registerRecipient","inputs":[{"name":"","type":"bytes","internalType":"bytes"},{"name":"","type":"address","internalType":"address"}],"outputs":[{"name":"","type":"address","internalType":"address"}],"stateMutability":"payable"},{"type":"function","name":"registryCommunity","inputs":[],"outputs":[{"name":"","type":"address","internalType":"contract RegistryCommunity"}],"stateMutability":"view"},{"type":"function","name":"renounceOwnership","inputs":[],"outputs":[],"stateMutability":"nonpayable"},{"type":"function","name":"rule","inputs":[{"name":"","type":"uint256","internalType":"uint256"},{"name":"","type":"uint256","internalType":"uint256"}],"outputs":[],"stateMutability":"nonpayable"},{"type":"function","name":"setAllo","inputs":[{"name":"allo_","type":"address","internalType":"address"}],"outputs":[],"stateMutability":"nonpayable"},{"type":"function","name":"setArbitrableConfig","inputs":[{"name":"version","type":"uint256","internalType":"uint256"},{"name":"config","type":"tuple","internalType":"struct ArbitrableConfig","components":[{"name":"arbitrator","type":"address","internalType":"contract IArbitrator"},{"name":"tribunalSafe","type":"address","internalType":"address"},{"name":"submitterCollateralAmount","type":"uint256","internalType":"uint256"},{"name":"challengerCollateralAmount","type":"uint256","internalType":"uint256"},{"name":"defaultRuling","type":"uint256","internalType":"uint256"},{"name":"defaultRulingTimeout","type":"uint256","internalType":"uint256"}]}],"outputs":[],"stateMutability":"nonpayable"},{"type":"function","name":"setCollateralVaultTemplate","inputs":[{"name":"template","type":"address","internalType":"address"}],"outputs":[],"stateMutability":"nonpayable"},{"type":"function","name":"setCollateralVaultTemplateRaw","inputs":[{"name":"template","type":"address","internalType":"address"}],"outputs":[],"stateMutability":"nonpayable"},{"type":"function","name":"setCvParams","inputs":[{"name":"params","type":"tuple","internalType":"struct CVParams","components":[{"name":"maxRatio","type":"uint256","internalType":"uint256"},{"name":"weight","type":"uint256","internalType":"uint256"},{"name":"decay","type":"uint256","internalType":"uint256"},{"name":"minThresholdPoints","type":"uint256","internalType":"uint256"}]}],"outputs":[],"stateMutability":"nonpayable"},{"type":"function","name":"setPauseController","inputs":[{"name":"","type":"address","internalType":"address"}],"outputs":[],"stateMutability":"nonpayable"},{"type":"function","name":"setPauseFacet","inputs":[{"name":"","type":"address","internalType":"address"}],"outputs":[],"stateMutability":"nonpayable"},{"type":"function","name":"setPointConfig","inputs":[{"name":"maxAmount","type":"uint256","internalType":"uint256"}],"outputs":[],"stateMutability":"nonpayable"},{"type":"function","name":"setPointSystem","inputs":[{"name":"system","type":"uint8","internalType":"enum PointSystem"}],"outputs":[],"stateMutability":"nonpayable"},{"type":"function","name":"setPoolActive","inputs":[{"name":"_active","type":"bool","internalType":"bool"}],"outputs":[],"stateMutability":"nonpayable"},{"type":"function","name":"setPoolId","inputs":[{"name":"poolId_","type":"uint256","internalType":"uint256"}],"outputs":[],"stateMutability":"nonpayable"},{"type":"function","name":"setPoolParams","inputs":[{"name":"","type":"tuple","internalType":"struct ArbitrableConfig","components":[{"name":"arbitrator","type":"address","internalType":"contract IArbitrator"},{"name":"tribunalSafe","type":"address","internalType":"address"},{"name":"submitterCollateralAmount","type":"uint256","internalType":"uint256"},{"name":"challengerCollateralAmount","type":"uint256","internalType":"uint256"},{"name":"defaultRuling","type":"uint256","internalType":"uint256"},{"name":"defaultRulingTimeout","type":"uint256","internalType":"uint256"}]},{"name":"","type":"tuple","internalType":"struct CVParams","components":[{"name":"maxRatio","type":"uint256","internalType":"uint256"},{"name":"weight","type":"uint256","internalType":"uint256"},{"name":"decay","type":"uint256","internalType":"uint256"},{"name":"minThresholdPoints","type":"uint256","internalType":"uint256"}]},{"name":"","type":"uint256","internalType":"uint256"},{"name":"","type":"address[]","internalType":"address[]"},{"name":"","type":"address[]","internalType":"address[]"},{"name":"","type":"address","internalType":"address"},{"name":"","type":"uint256","internalType":"uint256"}],"outputs":[],"stateMutability":"nonpayable"},{"type":"function","name":"setPoolParams","inputs":[{"name":"","type":"tuple","internalType":"struct ArbitrableConfig","components":[{"name":"arbitrator","type":"address","internalType":"contract IArbitrator"},{"name":"tribunalSafe","type":"address","internalType":"address"},{"name":"submitterCollateralAmount","type":"uint256","internalType":"uint256"},{"name":"challengerCollateralAmount","type":"uint256","internalType":"uint256"},{"name":"defaultRuling","type":"uint256","internalType":"uint256"},{"name":"defaultRulingTimeout","type":"uint256","internalType":"uint256"}]},{"name":"","type":"tuple","internalType":"struct CVParams","components":[{"name":"maxRatio","type":"uint256","internalType":"uint256"},{"name":"weight","type":"uint256","internalType":"uint256"},{"name":"decay","type":"uint256","internalType":"uint256"},{"name":"minThresholdPoints","type":"uint256","internalType":"uint256"}]},{"name":"","type":"uint256","internalType":"uint256"},{"name":"","type":"address[]","internalType":"address[]"},{"name":"","type":"address[]","internalType":"address[]"},{"name":"","type":"address","internalType":"address"}],"outputs":[],"stateMutability":"nonpayable"},{"type":"function","name":"setProposal","inputs":[{"name":"proposalId","type":"uint256","internalType":"uint256"},{"name":"submitter","type":"address","internalType":"address"},{"name":"requestedAmount","type":"uint256","internalType":"uint256"},{"name":"status","type":"uint8","internalType":"enum ProposalStatus"},{"name":"blockLast","type":"uint256","internalType":"uint256"},{"name":"convictionLast","type":"uint256","internalType":"uint256"}],"outputs":[],"stateMutability":"nonpayable"},{"type":"function","name":"setProposalStakedAmount","inputs":[{"name":"proposalId","type":"uint256","internalType":"uint256"},{"name":"amount","type":"uint256","internalType":"uint256"}],"outputs":[],"stateMutability":"nonpayable"},{"type":"function","name":"setProposalType","inputs":[{"name":"proposalType_","type":"uint8","internalType":"enum ProposalType"}],"outputs":[],"stateMutability":"nonpayable"},{"type":"function","name":"setProposalVoterStake","inputs":[{"name":"proposalId","type":"uint256","internalType":"uint256"},{"name":"voter","type":"address","internalType":"address"},{"name":"amount","type":"uint256","internalType":"uint256"}],"outputs":[],"stateMutability":"nonpayable"},{"type":"function","name":"setRegistryCommunity","inputs":[{"name":"registryCommunity_","type":"address","internalType":"address"}],"outputs":[],"stateMutability":"nonpayable"},{"type":"function","name":"setSuperfluidToken","inputs":[{"name":"token","type":"address","internalType":"address"}],"outputs":[],"stateMutability":"nonpayable"},{"type":"function","name":"setSybilScorer","inputs":[{"name":"_sybilScorer","type":"address","internalType":"address"},{"name":"threshold","type":"uint256","internalType":"uint256"}],"outputs":[],"stateMutability":"nonpayable"},{"type":"function","name":"setSybilScorer","inputs":[{"name":"sybilScorer_","type":"address","internalType":"address"}],"outputs":[],"stateMutability":"nonpayable"},{"type":"function","name":"setTotalPointsActivated","inputs":[{"name":"amount","type":"uint256","internalType":"uint256"}],"outputs":[],"stateMutability":"nonpayable"},{"type":"function","name":"setVotingPowerRegistry","inputs":[{"name":"registry","type":"address","internalType":"address"}],"outputs":[],"stateMutability":"nonpayable"},{"type":"function","name":"streamingEscrow","inputs":[{"name":"proposalId","type":"uint256","internalType":"uint256"}],"outputs":[{"name":"","type":"address","internalType":"address"}],"stateMutability":"view"},{"type":"function","name":"streamingRatePerSecond","inputs":[],"outputs":[{"name":"","type":"uint256","internalType":"uint256"}],"stateMutability":"view"},{"type":"function","name":"superfluidGDA","inputs":[],"outputs":[{"name":"","type":"address","internalType":"contract ISuperfluidPool"}],"stateMutability":"view"},{"type":"function","name":"superfluidToken","inputs":[],"outputs":[{"name":"","type":"address","internalType":"contract ISuperToken"}],"stateMutability":"view"},{"type":"function","name":"supportsInterface","inputs":[{"name":"interfaceId","type":"bytes4","internalType":"bytes4"}],"outputs":[{"name":"","type":"bool","internalType":"bool"}],"stateMutability":"view"},{"type":"function","name":"sybilScorer","inputs":[],"outputs":[{"name":"","type":"address","internalType":"contract ISybilScorer"}],"stateMutability":"view"},{"type":"function","name":"totalPointsActivated","inputs":[],"outputs":[{"name":"","type":"uint256","internalType":"uint256"}],"stateMutability":"view"},{"type":"function","name":"totalStaked","inputs":[],"outputs":[{"name":"","type":"uint256","internalType":"uint256"}],"stateMutability":"view"},{"type":"function","name":"totalVoterStakePct","inputs":[{"name":"","type":"address","internalType":"address"}],"outputs":[{"name":"","type":"uint256","internalType":"uint256"}],"stateMutability":"view"},{"type":"function","name":"transferOwnership","inputs":[{"name":"newOwner","type":"address","internalType":"address"}],"outputs":[],"stateMutability":"nonpayable"},{"type":"function","name":"unpause","inputs":[],"outputs":[],"stateMutability":"nonpayable"},{"type":"function","name":"unpause","inputs":[{"name":"","type":"bytes4","internalType":"bytes4"}],"outputs":[],"stateMutability":"nonpayable"},{"type":"function","name":"updateProposalConviction","inputs":[{"name":"proposalId","type":"uint256","internalType":"uint256"}],"outputs":[{"name":"","type":"uint256","internalType":"uint256"}],"stateMutability":"nonpayable"},{"type":"function","name":"upgradeTo","inputs":[{"name":"newImplementation","type":"address","internalType":"address"}],"outputs":[],"stateMutability":"nonpayable"},{"type":"function","name":"upgradeToAndCall","inputs":[{"name":"newImplementation","type":"address","internalType":"address"},{"name":"data","type":"bytes","internalType":"bytes"}],"outputs":[],"stateMutability":"payable"},{"type":"function","name":"voterStakedProposals","inputs":[{"name":"","type":"address","internalType":"address"},{"name":"","type":"uint256","internalType":"uint256"}],"outputs":[{"name":"","type":"uint256","internalType":"uint256"}],"stateMutability":"view"},{"type":"function","name":"votingPowerRegistry","inputs":[],"outputs":[{"name":"","type":"address","internalType":"contract IVotingPowerRegistry"}],"stateMutability":"view"},{"type":"event","name":"AdminChanged","inputs":[{"name":"previousAdmin","type":"address","indexed":false,"internalType":"address"},{"name":"newAdmin","type":"address","indexed":false,"internalType":"address"}],"anonymous":false},{"type":"event","name":"Allocated","inputs":[{"name":"recipientId","type":"address","indexed":true,"internalType":"address"},{"name":"amount","type":"uint256","indexed":false,"internalType":"uint256"},{"name":"token","type":"address","indexed":false,"internalType":"address"},{"name":"sender","type":"address","indexed":false,"internalType":"address"}],"anonymous":false},{"type":"event","name":"AllowlistMembersAdded","inputs":[{"name":"poolId","type":"uint256","indexed":false,"internalType":"uint256"},{"name":"members","type":"address[]","indexed":false,"internalType":"address[]"}],"anonymous":false},{"type":"event","name":"AllowlistMembersRemoved","inputs":[{"name":"poolId","type":"uint256","indexed":false,"internalType":"uint256"},{"name":"members","type":"address[]","indexed":false,"internalType":"address[]"}],"anonymous":false},{"type":"event","name":"ArbitrableConfigUpdated","inputs":[{"name":"currentArbitrableConfigVersion","type":"uint256","indexed":false,"internalType":"uint256"},{"name":"arbitrator","type":"address","indexed":false,"internalType":"contract IArbitrator"},{"name":"tribunalSafe","type":"address","indexed":false,"internalType":"address"},{"name":"submitterCollateralAmount","type":"uint256","indexed":false,"internalType":"uint256"},{"name":"challengerCollateralAmount","type":"uint256","indexed":false,"internalType":"uint256"},{"name":"defaultRuling","type":"uint256","indexed":false,"internalType":"uint256"},{"name":"defaultRulingTimeout","type":"uint256","indexed":false,"internalType":"uint256"}],"anonymous":false},{"type":"event","name":"BeaconUpgraded","inputs":[{"name":"beacon","type":"address","indexed":true,"internalType":"address"}],"anonymous":false},{"type":"event","name":"CVParamsUpdated","inputs":[{"name":"cvParams","type":"tuple","indexed":false,"internalType":"struct CVParams","components":[{"name":"maxRatio","type":"uint256","internalType":"uint256"},{"name":"weight","type":"uint256","internalType":"uint256"},{"name":"decay","type":"uint256","internalType":"uint256"},{"name":"minThresholdPoints","type":"uint256","internalType":"uint256"}]}],"anonymous":false},{"type":"event","name":"DiamondCut","inputs":[{"name":"_diamondCut","type":"tuple[]","indexed":false,"internalType":"struct IDiamond.FacetCut[]","components":[{"name":"facetAddress","type":"address","internalType":"address"},{"name":"action","type":"uint8","internalType":"enum IDiamond.FacetCutAction"},{"name":"functionSelectors","type":"bytes4[]","internalType":"bytes4[]"}]},{"name":"_init","type":"address","indexed":false,"internalType":"address"},{"name":"_calldata","type":"bytes","indexed":false,"internalType":"bytes"}],"anonymous":false},{"type":"event","name":"DisputeRequest","inputs":[{"name":"_arbitrator","type":"address","indexed":true,"internalType":"contract IArbitrator"},{"name":"_arbitrableDisputeID","type":"uint256","indexed":true,"internalType":"uint256"},{"name":"_externalDisputeID","type":"uint256","indexed":false,"internalType":"uint256"},{"name":"_templateId","type":"uint256","indexed":false,"internalType":"uint256"},{"name":"_templateUri","type":"string","indexed":false,"internalType":"string"}],"anonymous":false},{"type":"event","name":"Distributed","inputs":[{"name":"recipientId","type":"address","indexed":true,"internalType":"address"},{"name":"recipientAddress","type":"address","indexed":false,"internalType":"address"},{"name":"amount","type":"uint256","indexed":false,"internalType":"uint256"},{"name":"sender","type":"address","indexed":false,"internalType":"address"}],"anonymous":false},{"type":"event","name":"Distributed","inputs":[{"name":"proposalId","type":"uint256","indexed":false,"internalType":"uint256"},{"name":"beneficiary","type":"address","indexed":false,"internalType":"address"},{"name":"amount","type":"uint256","indexed":false,"internalType":"uint256"}],"anonymous":false},{"type":"event","name":"Initialized","inputs":[{"name":"poolId","type":"uint256","indexed":false,"internalType":"uint256"},{"name":"data","type":"bytes","indexed":false,"internalType":"bytes"}],"anonymous":false},{"type":"event","name":"Initialized","inputs":[{"name":"version","type":"uint8","indexed":false,"internalType":"uint8"}],"anonymous":false},{"type":"event","name":"InitializedCV","inputs":[{"name":"poolId","type":"uint256","indexed":false,"internalType":"uint256"},{"name":"data","type":"tuple","indexed":false,"internalType":"struct CVStrategyInitializeParamsV0_0","components":[{"name":"cvParams","type":"tuple","internalType":"struct CVParams","components":[{"name":"maxRatio","type":"uint256","internalType":"uint256"},{"name":"weight","type":"uint256","internalType":"uint256"},{"name":"decay","type":"uint256","internalType":"uint256"},{"name":"minThresholdPoints","type":"uint256","internalType":"uint256"}]},{"name":"proposalType","type":"uint8","internalType":"enum ProposalType"},{"name":"pointSystem","type":"uint8","internalType":"enum PointSystem"},{"name":"pointConfig","type":"tuple","internalType":"struct PointSystemConfig","components":[{"name":"maxAmount","type":"uint256","internalType":"uint256"}]},{"name":"arbitrableConfig","type":"tuple","internalType":"struct ArbitrableConfig","components":[{"name":"arbitrator","type":"address","internalType":"contract IArbitrator"},{"name":"tribunalSafe","type":"address","internalType":"address"},{"name":"submitterCollateralAmount","type":"uint256","internalType":"uint256"},{"name":"challengerCollateralAmount","type":"uint256","internalType":"uint256"},{"name":"defaultRuling","type":"uint256","internalType":"uint256"},{"name":"defaultRulingTimeout","type":"uint256","internalType":"uint256"}]},{"name":"registryCommunity","type":"address","internalType":"address"},{"name":"sybilScorer","type":"address","internalType":"address"}]}],"anonymous":false},{"type":"event","name":"InitializedCV2","inputs":[{"name":"poolId","type":"uint256","indexed":false,"internalType":"uint256"},{"name":"data","type":"tuple","indexed":false,"internalType":"struct CVStrategyInitializeParamsV0_1","components":[{"name":"cvParams","type":"tuple","internalType":"struct CVParams","components":[{"name":"maxRatio","type":"uint256","internalType":"uint256"},{"name":"weight","type":"uint256","internalType":"uint256"},{"name":"decay","type":"uint256","internalType":"uint256"},{"name":"minThresholdPoints","type":"uint256","internalType":"uint256"}]},{"name":"proposalType","type":"uint8","internalType":"enum ProposalType"},{"name":"pointSystem","type":"uint8","internalType":"enum PointSystem"},{"name":"pointConfig","type":"tuple","internalType":"struct PointSystemConfig","components":[{"name":"maxAmount","type":"uint256","internalType":"uint256"}]},{"name":"arbitrableConfig","type":"tuple","internalType":"struct ArbitrableConfig","components":[{"name":"arbitrator","type":"address","internalType":"contract IArbitrator"},{"name":"tribunalSafe","type":"address","internalType":"address"},{"name":"submitterCollateralAmount","type":"uint256","internalType":"uint256"},{"name":"challengerCollateralAmount","type":"uint256","internalType":"uint256"},{"name":"defaultRuling","type":"uint256","internalType":"uint256"},{"name":"defaultRulingTimeout","type":"uint256","internalType":"uint256"}]},{"name":"registryCommunity","type":"address","internalType":"address"},{"name":"sybilScorer","type":"address","internalType":"address"},{"name":"sybilScorerThreshold","type":"uint256","internalType":"uint256"},{"name":"initialAllowlist","type":"address[]","internalType":"address[]"}]}],"anonymous":false},{"type":"event","name":"InitializedCV3","inputs":[{"name":"poolId","type":"uint256","indexed":false,"internalType":"uint256"},{"name":"data","type":"tuple","indexed":false,"internalType":"struct CVStrategyInitializeParamsV0_2","components":[{"name":"cvParams","type":"tuple","internalType":"struct CVParams","components":[{"name":"maxRatio","type":"uint256","internalType":"uint256"},{"name":"weight","type":"uint256","internalType":"uint256"},{"name":"decay","type":"uint256","internalType":"uint256"},{"name":"minThresholdPoints","type":"uint256","internalType":"uint256"}]},{"name":"proposalType","type":"uint8","internalType":"enum ProposalType"},{"name":"pointSystem","type":"uint8","internalType":"enum PointSystem"},{"name":"pointConfig","type":"tuple","internalType":"struct PointSystemConfig","components":[{"name":"maxAmount","type":"uint256","internalType":"uint256"}]},{"name":"arbitrableConfig","type":"tuple","internalType":"struct ArbitrableConfig","components":[{"name":"arbitrator","type":"address","internalType":"contract IArbitrator"},{"name":"tribunalSafe","type":"address","internalType":"address"},{"name":"submitterCollateralAmount","type":"uint256","internalType":"uint256"},{"name":"challengerCollateralAmount","type":"uint256","internalType":"uint256"},{"name":"defaultRuling","type":"uint256","internalType":"uint256"},{"name":"defaultRulingTimeout","type":"uint256","internalType":"uint256"}]},{"name":"registryCommunity","type":"address","internalType":"address"},{"name":"sybilScorer","type":"address","internalType":"address"},{"name":"sybilScorerThreshold","type":"uint256","internalType":"uint256"},{"name":"initialAllowlist","type":"address[]","internalType":"address[]"},{"name":"superfluidToken","type":"address","internalType":"address"}]}],"anonymous":false},{"type":"event","name":"InitializedCV4","inputs":[{"name":"poolId","type":"uint256","indexed":false,"internalType":"uint256"},{"name":"data","type":"tuple","indexed":false,"internalType":"struct CVStrategyInitializeParamsV0_3","components":[{"name":"cvParams","type":"tuple","internalType":"struct CVParams","components":[{"name":"maxRatio","type":"uint256","internalType":"uint256"},{"name":"weight","type":"uint256","internalType":"uint256"},{"name":"decay","type":"uint256","internalType":"uint256"},{"name":"minThresholdPoints","type":"uint256","internalType":"uint256"}]},{"name":"proposalType","type":"uint8","internalType":"enum ProposalType"},{"name":"pointSystem","type":"uint8","internalType":"enum PointSystem"},{"name":"pointConfig","type":"tuple","internalType":"struct PointSystemConfig","components":[{"name":"maxAmount","type":"uint256","internalType":"uint256"}]},{"name":"arbitrableConfig","type":"tuple","internalType":"struct ArbitrableConfig","components":[{"name":"arbitrator","type":"address","internalType":"contract IArbitrator"},{"name":"tribunalSafe","type":"address","internalType":"address"},{"name":"submitterCollateralAmount","type":"uint256","internalType":"uint256"},{"name":"challengerCollateralAmount","type":"uint256","internalType":"uint256"},{"name":"defaultRuling","type":"uint256","internalType":"uint256"},{"name":"defaultRulingTimeout","type":"uint256","internalType":"uint256"}]},{"name":"registryCommunity","type":"address","internalType":"address"},{"name":"votingPowerRegistry","type":"address","internalType":"address"},{"name":"sybilScorer","type":"address","internalType":"address"},{"name":"sybilScorerThreshold","type":"uint256","internalType":"uint256"},{"name":"initialAllowlist","type":"address[]","internalType":"address[]"},{"name":"superfluidToken","type":"address","internalType":"address"},{"name":"streamingRatePerSecond","type":"uint256","internalType":"uint256"}]}],"anonymous":false},{"type":"event","name":"OwnershipTransferred","inputs":[{"name":"previousOwner","type":"address","indexed":true,"internalType":"address"},{"name":"newOwner","type":"address","indexed":true,"internalType":"address"}],"anonymous":false},{"type":"event","name":"OwnershipTransferred","inputs":[{"name":"previousOwner","type":"address","indexed":true,"internalType":"address"},{"name":"newOwner","type":"address","indexed":true,"internalType":"address"}],"anonymous":false},{"type":"event","name":"PointsDeactivated","inputs":[{"name":"member","type":"address","indexed":false,"internalType":"address"}],"anonymous":false},{"type":"event","name":"PoolActive","inputs":[{"name":"active","type":"bool","indexed":false,"internalType":"bool"}],"anonymous":false},{"type":"event","name":"PowerDecreased","inputs":[{"name":"member","type":"address","indexed":false,"internalType":"address"},{"name":"tokensUnStaked","type":"uint256","indexed":false,"internalType":"uint256"},{"name":"pointsToDecrease","type":"uint256","indexed":false,"internalType":"uint256"}],"anonymous":false},{"type":"event","name":"PowerIncreased","inputs":[{"name":"member","type":"address","indexed":false,"internalType":"address"},{"name":"tokensStaked","type":"uint256","indexed":false,"internalType":"uint256"},{"name":"pointsToIncrease","type":"uint256","indexed":false,"internalType":"uint256"}],"anonymous":false},{"type":"event","name":"ProposalCancelled","inputs":[{"name":"proposalId","type":"uint256","indexed":false,"internalType":"uint256"}],"anonymous":false},{"type":"event","name":"ProposalCreated","inputs":[{"name":"poolId","type":"uint256","indexed":false,"internalType":"uint256"},{"name":"proposalId","type":"uint256","indexed":false,"internalType":"uint256"}],"anonymous":false},{"type":"event","name":"ProposalCreated","inputs":[{"name":"poolId","type":"uint256","indexed":false,"internalType":"uint256"},{"name":"proposalId","type":"uint256","indexed":false,"internalType":"uint256"},{"name":"escrow","type":"address","indexed":false,"internalType":"address"}],"anonymous":false},{"type":"event","name":"ProposalDisputed","inputs":[{"name":"arbitrator","type":"address","indexed":false,"internalType":"contract IArbitrator"},{"name":"proposalId","type":"uint256","indexed":false,"internalType":"uint256"},{"name":"disputeId","type":"uint256","indexed":false,"internalType":"uint256"},{"name":"challenger","type":"address","indexed":false,"internalType":"address"},{"name":"context","type":"string","indexed":false,"internalType":"string"},{"name":"timestamp","type":"uint256","indexed":false,"internalType":"uint256"}],"anonymous":false},{"type":"event","name":"RebalanceCallerAuthorizationUpdated","inputs":[{"name":"caller","type":"address","indexed":true,"internalType":"address"},{"name":"authorized","type":"bool","indexed":false,"internalType":"bool"}],"anonymous":false},{"type":"event","name":"Registered","inputs":[{"name":"recipientId","type":"address","indexed":true,"internalType":"address"},{"name":"data","type":"bytes","indexed":false,"internalType":"bytes"},{"name":"sender","type":"address","indexed":false,"internalType":"address"}],"anonymous":false},{"type":"event","name":"Ruling","inputs":[{"name":"_arbitrator","type":"address","indexed":true,"internalType":"contract IArbitrator"},{"name":"_disputeID","type":"uint256","indexed":true,"internalType":"uint256"},{"name":"_ruling","type":"uint256","indexed":false,"internalType":"uint256"}],"anonymous":false},{"type":"event","name":"StreamMemberUnitUpdated","inputs":[{"name":"member","type":"address","indexed":true,"internalType":"address"},{"name":"newUnit","type":"int96","indexed":false,"internalType":"int96"}],"anonymous":false},{"type":"event","name":"StreamRateUpdated","inputs":[{"name":"gda","type":"address","indexed":true,"internalType":"address"},{"name":"flowRate","type":"uint256","indexed":false,"internalType":"uint256"}],"anonymous":false},{"type":"event","name":"SuperfluidGDAConnected","inputs":[{"name":"gda","type":"address","indexed":true,"internalType":"address"},{"name":"by","type":"address","indexed":true,"internalType":"address"}],"anonymous":false},{"type":"event","name":"SuperfluidGDADisconnected","inputs":[{"name":"gda","type":"address","indexed":true,"internalType":"address"},{"name":"by","type":"address","indexed":true,"internalType":"address"}],"anonymous":false},{"type":"event","name":"SuperfluidPoolCreated","inputs":[{"name":"gda","type":"address","indexed":true,"internalType":"address"},{"name":"superfluidToken","type":"address","indexed":true,"internalType":"address"},{"name":"maxStreamingRate","type":"uint256","indexed":false,"internalType":"uint256"}],"anonymous":false},{"type":"event","name":"SuperfluidTokenUpdated","inputs":[{"name":"superfluidToken","type":"address","indexed":false,"internalType":"address"}],"anonymous":false},{"type":"event","name":"SupportAdded","inputs":[{"name":"from","type":"address","indexed":false,"internalType":"address"},{"name":"proposalId","type":"uint256","indexed":false,"internalType":"uint256"},{"name":"amount","type":"uint256","indexed":false,"internalType":"uint256"},{"name":"totalStakedAmount","type":"uint256","indexed":false,"internalType":"uint256"},{"name":"convictionLast","type":"uint256","indexed":false,"internalType":"uint256"}],"anonymous":false},{"type":"event","name":"SybilScorerUpdated","inputs":[{"name":"sybilScorer","type":"address","indexed":false,"internalType":"address"}],"anonymous":false},{"type":"event","name":"Upgraded","inputs":[{"name":"implementation","type":"address","indexed":true,"internalType":"address"}],"anonymous":false},{"type":"error","name":"ALLOCATION_ACTIVE","inputs":[]},{"type":"error","name":"ALLOCATION_NOT_ACTIVE","inputs":[]},{"type":"error","name":"ALLOCATION_NOT_ENDED","inputs":[]},{"type":"error","name":"ALREADY_INITIALIZED","inputs":[]},{"type":"error","name":"AMOUNT_MISMATCH","inputs":[]},{"type":"error","name":"ANCHOR_ERROR","inputs":[]},{"type":"error","name":"ARRAY_MISMATCH","inputs":[]},{"type":"error","name":"AShouldBeUnderOrEqTwo_128","inputs":[]},{"type":"error","name":"AShouldBeUnderTwo_128","inputs":[]},{"type":"error","name":"AddressCannotBeZero","inputs":[{"name":"input","type":"address","internalType":"address"}]},{"type":"error","name":"AmountOverMaxRatio","inputs":[{"name":"requestedAmount","type":"uint256","internalType":"uint256"},{"name":"maxAllowed","type":"uint256","internalType":"uint256"},{"name":"poolAmount","type":"uint256","internalType":"uint256"}]},{"type":"error","name":"ArbitratorCannotBeZero","inputs":[]},{"type":"error","name":"ArbitratorNotAllowed","inputs":[{"name":"target","type":"address","internalType":"address"}]},{"type":"error","name":"BShouldBeLessTwo_128","inputs":[]},{"type":"error","name":"CallerNotOwner","inputs":[{"name":"_caller","type":"address","internalType":"address"},{"name":"_owner","type":"address","internalType":"address"}]},{"type":"error","name":"CannotAddFunctionToDiamondThatAlreadyExists","inputs":[{"name":"_selector","type":"bytes4","internalType":"bytes4"}]},{"type":"error","name":"CannotAddSelectorsToZeroAddress","inputs":[{"name":"_selectors","type":"bytes4[]","internalType":"bytes4[]"}]},{"type":"error","name":"CannotRemoveFunctionThatDoesNotExist","inputs":[{"name":"_selector","type":"bytes4","internalType":"bytes4"}]},{"type":"error","name":"CannotRemoveImmutableFunction","inputs":[{"name":"_selector","type":"bytes4","internalType":"bytes4"}]},{"type":"error","name":"CannotReplaceFunctionThatDoesNotExists","inputs":[{"name":"_selector","type":"bytes4","internalType":"bytes4"}]},{"type":"error","name":"CannotReplaceFunctionWithTheSameFunctionFromTheSameFacet","inputs":[{"name":"_selector","type":"bytes4","internalType":"bytes4"}]},{"type":"error","name":"CannotReplaceFunctionsFromFacetWithZeroAddress","inputs":[{"name":"_selectors","type":"bytes4[]","internalType":"bytes4[]"}]},{"type":"error","name":"CannotReplaceImmutableFunction","inputs":[{"name":"_selector","type":"bytes4","internalType":"bytes4"}]},{"type":"error","name":"ConvictionUnderMinimumThreshold","inputs":[]},{"type":"error","name":"DefaultRulingNotSet","inputs":[]},{"type":"error","name":"DisputeCooldownNotPassed","inputs":[{"name":"_proposalId","type":"uint256","internalType":"uint256"},{"name":"_remainingSec","type":"uint256","internalType":"uint256"}]},{"type":"error","name":"INVALID","inputs":[]},{"type":"error","name":"INVALID_ADDRESS","inputs":[]},{"type":"error","name":"INVALID_FEE","inputs":[]},{"type":"error","name":"INVALID_METADATA","inputs":[]},{"type":"error","name":"INVALID_REGISTRATION","inputs":[]},{"type":"error","name":"IS_APPROVED_STRATEGY","inputs":[]},{"type":"error","name":"InitializationFunctionReverted","inputs":[{"name":"_initializationContractAddress","type":"address","internalType":"address"},{"name":"_calldata","type":"bytes","internalType":"bytes"}]},{"type":"error","name":"InsufficientCollateral","inputs":[{"name":"sentAmount","type":"uint256","internalType":"uint256"},{"name":"requiredAmount","type":"uint256","internalType":"uint256"}]},{"type":"error","name":"MISMATCH","inputs":[]},{"type":"error","name":"NONCE_NOT_AVAILABLE","inputs":[]},{"type":"error","name":"NON_ZERO_VALUE","inputs":[]},{"type":"error","name":"NOT_APPROVED_STRATEGY","inputs":[]},{"type":"error","name":"NOT_ENOUGH_FUNDS","inputs":[]},{"type":"error","name":"NOT_IMPLEMENTED","inputs":[]},{"type":"error","name":"NOT_INITIALIZED","inputs":[]},{"type":"error","name":"NOT_PENDING_OWNER","inputs":[]},{"type":"error","name":"NoBytecodeAtAddress","inputs":[{"name":"_contractAddress","type":"address","internalType":"address"},{"name":"_message","type":"string","internalType":"string"}]},{"type":"error","name":"NoSelectorsProvidedForFacetForCut","inputs":[{"name":"_facetAddress","type":"address","internalType":"address"}]},{"type":"error","name":"NotEnoughPointsToSupport","inputs":[{"name":"pointsSupport","type":"uint256","internalType":"uint256"},{"name":"pointsBalance","type":"uint256","internalType":"uint256"}]},{"type":"error","name":"NotImplemented","inputs":[{"name":"selector","type":"bytes4","internalType":"bytes4"}]},{"type":"error","name":"OnlyArbitrator","inputs":[{"name":"sender","type":"address","internalType":"address"},{"name":"arbitrator","type":"address","internalType":"address"}]},{"type":"error","name":"OnlyCommunityAllowed","inputs":[{"name":"sender","type":"address","internalType":"address"},{"name":"registryCommunity","type":"address","internalType":"address"}]},{"type":"error","name":"OnlyCouncilSafe","inputs":[{"name":"sender","type":"address","internalType":"address"},{"name":"councilSafe","type":"address","internalType":"address"},{"name":"owner","type":"address","internalType":"address"}]},{"type":"error","name":"OnlyCouncilSafeOrMember","inputs":[{"name":"sender","type":"address","internalType":"address"},{"name":"councilSafe","type":"address","internalType":"address"}]},{"type":"error","name":"POOL_ACTIVE","inputs":[]},{"type":"error","name":"POOL_INACTIVE","inputs":[]},{"type":"error","name":"PoolAmountNotEnough","inputs":[{"name":"_proposalId","type":"uint256","internalType":"uint256"},{"name":"_requestedAmount","type":"uint256","internalType":"uint256"},{"name":"_poolAmount","type":"uint256","internalType":"uint256"}]},{"type":"error","name":"PoolIsEmpty","inputs":[{"name":"poolAmount","type":"uint256","internalType":"uint256"}]},{"type":"error","name":"ProposalDataIsEmpty","inputs":[]},{"type":"error","name":"ProposalIdCannotBeZero","inputs":[]},{"type":"error","name":"ProposalInvalidForAllocation","inputs":[{"name":"_proposalId","type":"uint256","internalType":"uint256"},{"name":"_proposalStatus","type":"uint8","internalType":"enum ProposalStatus"}]},{"type":"error","name":"ProposalNotActive","inputs":[{"name":"_proposalId","type":"uint256","internalType":"uint256"}]},{"type":"error","name":"ProposalNotDisputed","inputs":[{"name":"_proposalId","type":"uint256","internalType":"uint256"}]},{"type":"error","name":"ProposalNotInList","inputs":[{"name":"_proposalId","type":"uint256","internalType":"uint256"}]},{"type":"error","name":"ProposalSupportDuplicated","inputs":[{"name":"_proposalId","type":"uint256","internalType":"uint256"},{"name":"index","type":"uint256","internalType":"uint256"}]},{"type":"error","name":"RECIPIENT_ALREADY_ACCEPTED","inputs":[]},{"type":"error","name":"RECIPIENT_ERROR","inputs":[{"name":"recipientId","type":"address","internalType":"address"}]},{"type":"error","name":"RECIPIENT_NOT_ACCEPTED","inputs":[]},{"type":"error","name":"REGISTRATION_ACTIVE","inputs":[]},{"type":"error","name":"REGISTRATION_NOT_ACTIVE","inputs":[]},{"type":"error","name":"RebalanceCooldownActive","inputs":[{"name":"secondsRemaining","type":"uint256","internalType":"uint256"}]},{"type":"error","name":"RegistryCannotBeZero","inputs":[{"name":"registry","type":"address","internalType":"address"}]},{"type":"error","name":"RegistryCommunityCannotBeZero","inputs":[{"name":"registry","type":"address","internalType":"address"}]},{"type":"error","name":"RemoveFacetAddressMustBeZeroAddress","inputs":[{"name":"_facetAddress","type":"address","internalType":"address"}]},{"type":"error","name":"StrategyFunctionDoesNotExist","inputs":[{"name":"selector","type":"bytes4","internalType":"bytes4"}]},{"type":"error","name":"StrategyPaused","inputs":[{"name":"controller","type":"address","internalType":"address"}]},{"type":"error","name":"StrategySelectorPaused","inputs":[{"name":"selector","type":"bytes4","internalType":"bytes4"},{"name":"controller","type":"address","internalType":"address"}]},{"type":"error","name":"SuperfluidPoolCreationFailed","inputs":[]},{"type":"error","name":"SupportUnderflow","inputs":[{"name":"_support","type":"uint256","internalType":"uint256"},{"name":"_delta","type":"int256","internalType":"int256"},{"name":"_result","type":"int256","internalType":"int256"}]},{"type":"error","name":"SybilScorerNotAllowed","inputs":[{"name":"target","type":"address","internalType":"address"}]},{"type":"error","name":"TokenCannotBeZero","inputs":[{"name":"token","type":"address","internalType":"address"}]},{"type":"error","name":"TokenNotAllowed","inputs":[{"name":"token","type":"address","internalType":"address"}]},{"type":"error","name":"UNAUTHORIZED","inputs":[]},{"type":"error","name":"UserCannotBeZero","inputs":[{"name":"user","type":"address","internalType":"address"}]},{"type":"error","name":"UserCannotExecuteAction","inputs":[{"name":"sender","type":"address","internalType":"address"}]},{"type":"error","name":"UserIsInactive","inputs":[{"name":"user","type":"address","internalType":"address"}]},{"type":"error","name":"UserNotInRegistry","inputs":[{"name":"user","type":"address","internalType":"address"},{"name":"registry","type":"address","internalType":"address"}]},{"type":"error","name":"ZERO_ADDRESS","inputs":[]}],"bytecode":{"object":"0x60a06040523060805234801562000014575f80fd5b506200001f62000025565b620000e3565b5f54610100900460ff1615620000915760405162461bcd60e51b815260206004820152602760248201527f496e697469616c697a61626c653a20636f6e747261637420697320696e697469604482015266616c697a696e6760c81b606482015260840160405180910390fd5b5f5460ff90811614620000e1575f805460ff191660ff9081179091556040519081527f7f26b83ff96e1f2b6a682f133852f6798a09c465da95921460cefb38474024989060200160405180910390a15b565b608051616c23620001185f395f81816119390152818161197901528181611dfd01528181611e3d0152611ebc0152616c235ff3fe60806040526004361061053e575f3560e01c806301ffc9a7146105e1578063025313a214610626578063058aca4414610647578063059351cd1461068357806305caa7f31461070e578063096d28701461072d57806309b65e661461074c5780630a6f0ee91461076b5780630ba959091461078a5780630bece79c146107a85780630c0512e9146107c7578063125fd1d9146107dc578063136439dd146107f1578063141e3b381461081057806315cc481e1461082f578063170aba0d1461084c578063184b9559146108885780631aa91a9e146108a75780631add1a0d146108c65780631b36f56f146108e05780631ddf1e23146108ff5780631f931c1c14610913578063222a3a04146108c65780632506b87014610932578063255ffb3814610964578063291e51231461098f5780632bbe0cae146109ae5780632cea13f9146109c15780632d2ebbef146109d55780632dbd6fdd146109ef5780632ed04b2b14610a1a578063311a6c5614610a345780633396045914610a53578063351d9f9614610a685780633587c79b14610a8e5780633659cfe614610aba5780633864d36614610ad957806338fff2d014610af85780633c09233014610b0c5780633f4ba83a146108ff57806341bb760514610b4857806346de35c814610ba357806349b2577814610bc25780634ab4ba4214610be15780634d33f6c914610bf55780634e899d5f14610c205780634f1ef28614610c3f57806352b2005014610c5257806352d1902d14610c6657806353ca476c14610c7a57806356c7869914610c9957806359a5db8b14610cd15780635bee0ec814610cf05780635db64b9914610d1e5780636003e41414610d4957806360b0645a14610d6857806360b4778914610d8757806360d5dedc14610d9b57806360ec51aa14610dba578063626c47e814610de75780636453d9c4146108c6578063662ea47d14610dfb5780636eeeae9314610e1c578063715018a614610e3b57806376e4309914610e4f578063782aadff14610a1a5780637d7c2a1c146108ff57806380c4a65f14610e6457806380fd91cd14610e7e578063814516ad146108ff578063817b1cd214610e9d57806385c504dd14610eb2578063868c57b814610ee65780638b83075e14610f055780638da5cb5b14610f4157806391bfd37b14610f55578063924e6704146108c657806394573cbb14610f74578063962896f614610f89578063a0449bf314610fa2578063a0cf0aea14610fc1578063a28889e114610fe8578063a385ea641461101f578063a47ff7e514611062578063ab7716d814611078578063aba9ffee14611097578063ac1ed7b9146110ac578063ac78012c146110e8578063adaf157b14610d87578063b04b5b2614611107578063b0d3713a14611126578063b187bd2614611145578063b3de272d14611159578063b41596ec1461116d578063b5f620ce14611180578063b6c61f311461119f578063bac1e94b146111be578063c3292171146111d8578063c4d66de8146111f4578063c69271ec146108c6578063c6cdc98014611213578063c7f758a814611232578063cb22c4e414611269578063cf7ae90c14611288578063d1045aa9146112a1578063d5b7cc54146112c0578063da748b10146112df578063db711460146112f3578063dc96ff2d14611312578063dd439bd314611340578063df868ed314611354578063e0a8f6f5146107f1578063e0dd2c3814611368578063ec9f5f3d14611387578063edd146cc146113a6578063ef2920fc146113c5578063f01a809c146113d3578063f2fde38b146113e7578063f5be3f7c14611406578063ff3db2ce1461141b57610545565b3661054557005b5f80356001600160e01b03191681525f80516020616adc833981519152602081905260409091205481906001600160a01b0316806105ac575f356001600160e01b03191660405163335ed20560e11b81526004016105a391906150fd565b60405180910390fd5b6105c15f356001600160e01b031916826114a5565b365f80375f80365f845af43d5f803e8080156105db573d5ff35b3d5ffd5b005b3480156105ec575f80fd5b506106116105fb366004615129565b6001600160e01b0319166301ffc9a760e01b1490565b60405190151581526020015b60405180910390f35b348015610631575f80fd5b5061063a61164e565b60405161061d919061514f565b348015610652575f80fd5b506105df610661366004615182565b607880546001600160a01b0319166001600160a01b0392909216919091179055565b34801561068e575f80fd5b506106d6606f545f908152607f60205260409020805460018201546002830154600384015460048501546005909501546001600160a01b039485169694909316949193909290565b604080516001600160a01b039788168152969095166020870152938501929092526060840152608083015260a082015260c00161061d565b348015610719575f80fd5b5060805461063a906001600160a01b031681565b348015610738575f80fd5b506105df61074736600461519d565b611666565b348015610757575f80fd5b50610611610766366004615129565b611681565b348015610776575f80fd5b506105df6107853660046153bc565b61168f565b348015610795575f80fd5b506077545b60405190815260200161061d565b3480156107b3575f80fd5b5060795461063a906001600160a01b031681565b3480156107d2575f80fd5b5061079a606e5481565b3480156107e7575f80fd5b5061079a606f5481565b3480156107fc575f80fd5b506105df61080b36600461542e565b611697565b34801561081b575f80fd5b506105df61082a366004615445565b6116a2565b34801561083a575f80fd5b506065546001600160a01b031661063a565b348015610857575f80fd5b506105df610866366004615182565b608380546001600160a01b0319166001600160a01b0392909216919091179055565b348015610893575f80fd5b506105df6108a23660046154d9565b6116b0565b3480156108b2575f80fd5b5061079a6108c136600461542e565b6117b3565b3480156108d1575f80fd5b506105df61080b366004615182565b3480156108eb575f80fd5b5060815461063a906001600160a01b031681565b34801561090a575f80fd5b506105df6117fc565b34801561091e575f80fd5b506105df61092d366004615553565b611806565b34801561093d575f80fd5b506072546073546074546075546109549392919084565b60405161061d94939291906155fb565b34801561096f575f80fd5b5061079a61097e36600461542e565b607e6020525f908152604090205481565b34801561099a575f80fd5b506105df6109a9366004615182565b61185e565b61063a6109bc366004615616565b611867565b3480156109cc575f80fd5b5061079a611876565b3480156109e0575f80fd5b5061079a610766366004615129565b3480156109fa575f80fd5b50607654610a0d90610100900460ff1681565b60405161061d919061568c565b348015610a25575f80fd5b5061079a6109bc36600461569a565b348015610a3f575f80fd5b506105df610a4e36600461519d565b611885565b348015610a5e575f80fd5b5061079a606c5481565b348015610a73575f80fd5b50607654610a819060ff1681565b60405161061d91906156d4565b348015610a99575f80fd5b50610aad610aa836600461542e565b61188d565b60405161061d919061572f565b348015610ac5575f80fd5b506105df610ad4366004615182565b61192f565b348015610ae4575f80fd5b506105df610af336600461569a565b6119f3565b348015610b03575f80fd5b5060685461079a565b348015610b17575f80fd5b506105df610b26366004615182565b606580546001600160a01b0319166001600160a01b0392909216919091179055565b348015610b53575f80fd5b506106d6610b6236600461542e565b607f6020525f90815260409020805460018201546002830154600384015460048501546005909501546001600160a01b039485169593909416939192909186565b348015610bae575f80fd5b506105df610bbd36600461574d565b611bbf565b348015610bcd575f80fd5b5061079a610bdc36600461519d565b611be8565b348015610bec575f80fd5b5061079a611bfa565b348015610c00575f80fd5b5061079a610c0f36600461542e565b60876020525f908152604090205481565b348015610c2b575f80fd5b50610611610c3a366004615182565b611de9565b6105df610c4d366004615768565b611df3565b348015610c5d575f80fd5b506105df611ea8565b348015610c71575f80fd5b5061079a611eb0565b348015610c85575f80fd5b5061079a610c9436600461542e565b611f5d565b348015610ca4575f80fd5b506105df610cb33660046157f6565b80516072556020810151607355604081015160745560600151607555565b348015610cdc575f80fd5b5061079a610ceb36600461542e565b611f7c565b348015610cfb575f80fd5b506105df610d0a36600461519d565b5f918252607b602052604090912060020155565b348015610d29575f80fd5b5061079a610d38366004615182565b607c6020525f908152604090205481565b348015610d54575f80fd5b5060785461063a906001600160a01b031681565b348015610d73575f80fd5b5061079a610d8236600461542e565b612018565b348015610d92575f80fd5b5061063a612096565b348015610da6575f80fd5b506105df610db5366004615810565b61209f565b348015610dc5575f80fd5b506105df610dd436600461542e565b6040805160208101909152819052607755565b348015610df2575f80fd5b5061079a600381565b348015610e06575f80fd5b50610e0f61215e565b60405161061d9190615897565b348015610e27575f80fd5b506105df610e36366004615920565b6124fd565b348015610e46575f80fd5b506105df61251c565b348015610e5a575f80fd5b5061079a60845481565b348015610e6f575f80fd5b506105df610a4e36600461593b565b348015610e89575f80fd5b5060835461063a906001600160a01b031681565b348015610ea8575f80fd5b5061079a60705481565b348015610ebd575f80fd5b50610ed1610ecc36600461519d565b61252d565b6040805192835260208301919091520161061d565b348015610ef1575f80fd5b5061079a610f0036600461569a565b612552565b348015610f10575f80fd5b506105df610f1f366004615182565b608080546001600160a01b0319166001600160a01b0392909216919091179055565b348015610f4c575f80fd5b5061063a61257d565b348015610f60575f80fd5b50610611610f6f36600461542e565b61260b565b348015610f7f575f80fd5b5061079a60825481565b348015610f94575f80fd5b506085546106119060ff1681565b348015610fad575f80fd5b506105df610fbc366004615182565b612615565b348015610fcc575f80fd5b5061063a73eeeeeeeeeeeeeeeeeeeeeeeeeeeeeeeeeeeeeeee81565b348015610ff3575f80fd5b50606d54611007906001600160401b031681565b6040516001600160401b03909116815260200161061d565b34801561102a575f80fd5b506105df611039366004615955565b5f928352607b602090815260408085206001600160a01b03909416855260099093019052912055565b34801561106d575f80fd5b5060775461079a9081565b348015611083575f80fd5b506105df61109236600461519d565b612637565b3480156110a2575f80fd5b5061079a60715481565b3480156110b7575f80fd5b506105df6110c6366004615182565b607a80546001600160a01b0319166001600160a01b0392909216919091179055565b3480156110f3575f80fd5b506105df61110236600461542e565b606855565b348015611112575f80fd5b5061063a61112136600461542e565b612641565b348015611131575f80fd5b506105df611140366004615182565b612666565b348015611150575f80fd5b50610611612096565b348015611164575f80fd5b5061079a61266e565b61079a61117b36600461598a565b612680565b34801561118b575f80fd5b506105df61119a3660046159ec565b612692565b3480156111aa575f80fd5b50607a5461063a906001600160a01b031681565b3480156111c9575f80fd5b506105df61080b366004615129565b3480156111e3575f80fd5b50607654610100900460ff16610a0d565b3480156111ff575f80fd5b506105df61120e366004615182565b61269b565b34801561121e575f80fd5b506105df61122d366004615a71565b61274d565b34801561123d575f80fd5b5061125161124c36600461542e565b61275e565b60405161061d9c9b9a99989796959493929190615b2e565b348015611274575f80fd5b506105df61128336600461542e565b607155565b348015611293575f80fd5b506088546106119060ff1681565b3480156112ac575f80fd5b5061079a6112bb36600461542e565b6128ec565b3480156112cb575f80fd5b506105df6112da366004615ba3565b612962565b3480156112ea575f80fd5b5061079a612096565b3480156112fe575f80fd5b506105df61130d366004615c51565b612972565b34801561131d575f80fd5b5061079a61132c36600461542e565b5f908152607b602052604090206002015490565b34801561134b575f80fd5b506105df612a30565b34801561135f575f80fd5b50610611612a38565b348015611373575f80fd5b5061079a611382366004615ca9565b612a45565b348015611392575f80fd5b506106116113a136600461542e565b612a6f565b3480156113b1575f80fd5b506105df6113c0366004615ccc565b612a79565b6105df610a4e366004615616565b3480156113de575f80fd5b506105df61306f565b3480156113f2575f80fd5b506105df611401366004615182565b613077565b348015611411575f80fd5b5061079a611c2081565b348015611426575f80fd5b506105df611435366004615cf9565b606f8290555f918252607f6020908152604092839020825181546001600160a01b03199081166001600160a01b0392831617835592840151600183018054909416911617909155918101516002830155606081015160038301556080810151600483015560a00151600590910155565b6114ad6130ed565b600101546001600160a01b03908116908216036114c8575050565b6114d182613111565b156114da575050565b5f6114e36130ed565b546001600160a01b03169050806114f957505050565b806001600160a01b03163b5f0361150f57505050565b604051635b14f18360e01b81526001600160a01b03821690635b14f1839061153b90309060040161514f565b602060405180830381865afa158015611556573d5f803e3d5ffd5b505050506040513d601f19601f8201168201806040525081019061157a9190615d24565b1561159a578060405163c2897a3760e01b81526004016105a3919061514f565b6040516374b896f160e01b81523060048201526001600160e01b0319841660248201526001600160a01b038216906374b896f190604401602060405180830381865afa1580156115ec573d5f803e3d5ffd5b505050506040513d601f19601f820116820180604052508101906116109190615d24565b156116495760405163a9774bf960e01b81526001600160e01b0319841660048201526001600160a01b03821660248201526044016105a3565b505050565b5f6116616033546001600160a01b031690565b905090565b5f828152607b6020526040902061167d9082613254565b5050565b5f61168a610545565b919050565b611649610545565b61169f610545565b50565b6116aa610545565b50505050565b5f54610100900460ff16158080156116ce57505f54600160ff909116105b806116ee57506116dd30613293565b1580156116ee57505f5460ff166001145b61170a5760405162461bcd60e51b81526004016105a390615d3f565b5f805460ff19166001179055801561172b575f805461ff0019166101001790555b611758846040518060400160405280600a8152602001694356537472617465677960b01b8152508461209f565b611761826132a2565b606a80546001600160a01b0319166001600160a01b03851617905580156116aa575f805461ff0019169055604051600181525f80516020616b888339815191529060200160405180910390a150505050565b5f818152607b60205260408120805483146117e45760405163c1d17bef60e01b8152600481018490526024016105a3565b6117f2818260020154613254565b6003015492915050565b611804610545565b565b61180e6132ed565b61185761181b8587615d8d565b8484848080601f0160208091040260200160405190810160405280939291908181526020018383808284375f9201919091525061336e92505050565b5050505050565b61169f816134d7565b5f611870610545565b92915050565b5f61187f6135d3565b54919050565b61167d610545565b5f818152607b60205260409020600b018054606091906118ac90615ead565b80601f01602080910402602001604051908101604052809291908181526020018280546118d890615ead565b80156119235780601f106118fa57610100808354040283529160200191611923565b820191905f5260205f20905b81548152906001019060200180831161190657829003601f168201915b50505050509050919050565b6001600160a01b037f00000000000000000000000000000000000000000000000000000000000000001630036119775760405162461bcd60e51b81526004016105a390615ee5565b7f00000000000000000000000000000000000000000000000000000000000000006001600160a01b03166119a96135f7565b6001600160a01b0316146119cf5760405162461bcd60e51b81526004016105a390615f1e565b6119d881613612565b604080515f8082526020820190925261169f9183919061364d565b60785f9054906101000a90046001600160a01b03166001600160a01b0316636c53db9a6040518163ffffffff1660e01b8152600401602060405180830381865afa158015611a43573d5f803e3d5ffd5b505050506040513d601f19601f82011682018060405250810190611a679190615f57565b6001600160a01b0316336001600160a01b031614158015611aa15750611a8b61257d565b6001600160a01b0316336001600160a01b031614155b15611b4e5760785460408051633629edcd60e11b8152905133926001600160a01b031691636c53db9a9160048083019260209291908290030181865afa158015611aed573d5f803e3d5ffd5b505050506040513d601f19601f82011682018060405250810190611b119190615f57565b611b1961257d565b60405163e1b9c46960e01b81526001600160a01b039384166004820152918316602483015290911660448201526064016105a3565b611b57826137b7565b611b60826137e0565b607a80546001600160a01b0319166001600160a01b038416179055611b84816138ee565b7f2667a0cd99dbc787d1d2596efe938cf43dfe83e8b8ddeb70e28007c09ff3348582604051611bb3919061514f565b60405180910390a15050565b6076805482919061ff001916610100836004811115611be057611be0615664565b021790555050565b5f611bf383836139cb565b9392505050565b60655460685460405163068bcd8d60e01b81525f9283926001600160a01b039091169163068bcd8d91611c339160040190815260200190565b5f60405180830381865afa158015611c4d573d5f803e3d5ffd5b505050506040513d5f823e601f3d908101601f19168201604052611c749190810190615f7d565b60400151905073eeeeeeeeeeeeeeeeeeeeeeeeeeeeeeeeeeeeeeed196001600160a01b03821601611ca6574791505090565b6040516370a0823160e01b81525f906001600160a01b038316906370a0823190611cd490309060040161514f565b602060405180830381865afa158015611cef573d5f803e3d5ffd5b505050506040513d601f19601f82011682018060405250810190611d139190616095565b6080549091506001600160a01b0390811690831603611d325792915050565b6080545f906001600160a01b031615611db9576080546040516370a0823160e01b81526001600160a01b03909116906370a0823190611d7590309060040161514f565b602060405180830381865afa158015611d90573d5f803e3d5ffd5b505050506040513d601f19601f82011682018060405250810190611db49190616095565b611dbb565b5f5b608054909150611dd790829085906001600160a01b0316613a0b565b611de190836160c0565b935050505090565b5f61187082613a6b565b6001600160a01b037f0000000000000000000000000000000000000000000000000000000000000000163003611e3b5760405162461bcd60e51b81526004016105a390615ee5565b7f00000000000000000000000000000000000000000000000000000000000000006001600160a01b0316611e6d6135f7565b6001600160a01b031614611e935760405162461bcd60e51b81526004016105a390615f1e565b611e9c82613612565b61167d8282600161364d565b611804613c84565b5f306001600160a01b037f00000000000000000000000000000000000000000000000000000000000000001614611f4a5760405162461bcd60e51b815260206004820152603860248201527f555550535570677261646561626c653a206d757374206e6f742062652063616c6044820152771b1959081d1a1c9bdd59da0819195b1959d85d1958d85b1b60421b60648201526084016105a3565b505f80516020616b688339815191525b90565b60868181548110611f6c575f80fd5b5f91825260209091200154905081565b5f80611f86611bfa565b6071546074546073546072546075546040516314eff2dd60e11b815295965073__$f1b7c69ba751c396eddc93d3bbc5414fd9$__956329dfe5ba95611fd9958b958a9592949193909291906004016160d3565b602060405180830381865af4158015611ff4573d5f803e3d5ffd5b505050506040513d601f19601f82011682018060405250810190611bf39190616095565b5f818152607b6020526040812061202d613daa565b61203b576003015492915050565b73__$f1b7c69ba751c396eddc93d3bbc5414fd9$__63010dfe648260070154436120659190616103565b600384015460028501546074546040516001600160e01b031960e087901b168152611fd994939291906004016155fb565b5f611f5a610545565b5f54610100900460ff166121095760405162461bcd60e51b815260206004820152602b60248201527f496e697469616c697a61626c653a20636f6e7472616374206973206e6f74206960448201526a6e697469616c697a696e6760a81b60648201526084016105a3565b6121128161269b565b606580546001600160a01b0319166001600160a01b03851617905560405161213e90839060200161572f565b60408051601f198184030181529190528051602090910120606655505050565b60605f612169613ea6565b6001810154909150806001600160401b03811115612189576121896151bd565b6040519080825280602002602001820160405280156121ce57816020015b604080518082019091525f8152606060208201528152602001906001900390816121a75790505b5092505f816001600160401b038111156121ea576121ea6151bd565b604051908082528060200260200182016040528015612213578160200160208202803683370190505b5090505f805b83811015612498575f85600101828154811061223757612237616116565b5f918252602080832060088304015460079092166004026101000a90910460e01b6001600160e01b0319811683529088905260408220549092506001600160a01b031690805b8581101561236857826001600160a01b03168a82815181106122a1576122a1616116565b60200260200101515f01516001600160a01b03160361236057838a82815181106122cd576122cd616116565b6020026020010151602001518883815181106122eb576122eb616116565b602002602001015161ffff168151811061230757612307616116565b60200260200101906001600160e01b03191690816001600160e01b0319168152505086818151811061233b5761233b616116565b6020026020010180518091906123509061612a565b61ffff1690525060019150612368565b60010161227d565b5080156123785750612490915050565b8189868151811061238b5761238b616116565b60209081029190910101516001600160a01b039091169052866001600160401b038111156123bb576123bb6151bd565b6040519080825280602002602001820160405280156123e4578160200160208202803683370190505b508986815181106123f7576123f7616116565b6020026020010151602001819052508289868151811061241957612419616116565b6020026020010151602001515f8151811061243657612436616116565b60200260200101906001600160e01b03191690816001600160e01b03191681525050600186868151811061246c5761246c616116565b61ffff90921660209283029190910190910152846124898161614a565b9550505050505b600101612219565b505f5b818110156124f2575f8682815181106124b6576124b6616116565b60200260200101516020015190505f8483815181106124d7576124d7616116565b602090810291909101015161ffff169091525060010161249b565b508085525050505090565b6076805482919060ff19166001836002811115611be057611be0615664565b6125246132ed565b6118045f613eb7565b5f828152607b6020526040812081906125469084613ef5565b915091505b9250929050565b607d602052815f5260405f20818154811061256b575f80fd5b905f5260205f20015f91509150505481565b5f61258661164e565b6001600160a01b03163b5f0361259e5761166161164e565b6125a661164e565b6001600160a01b0316638da5cb5b6040518163ffffffff1660e01b8152600401602060405180830381865afa9250505080156125ff575060408051601f3d908101601f191682019092526125fc91810190615f57565b60015b61168a5761166161164e565b5f61187082613fda565b606a80546001600160a01b0319166001600160a01b0392909216919091179055565b61167d8282614011565b5f61264a6135d3565b5f9283526002016020525060409020546001600160a01b031690565b6126156132ed565b5f6126776135d3565b60010154905090565b5f612689610545565b95945050505050565b61169f816140d7565b5f54610100900460ff16158080156126b957505f54600160ff909116105b806126d957506126c830613293565b1580156126d957505f5460ff166001145b6126f55760405162461bcd60e51b81526004016105a390615d3f565b5f805460ff191660011790558015612716575f805461ff0019166101001790555b61271f82613eb7565b801561167d575f805461ff0019169055604051600181525f80516020616b8883398151915290602001611bb3565b612755610545565b50505050505050565b5f805f805f805f805f805f805f607b5f8f81526020019081526020015f2090505f612787611bfa565b905073__$f1b7c69ba751c396eddc93d3bbc5414fd9$__6329dfe5ba8360010154836127b28661411e565b6074546073546072546075546040516001600160e01b031960e08a901b1681526127e597969594939291906004016160d3565b602060405180830381865af4158015612800573d5f803e3d5ffd5b505050506040513d601f19601f820116820180604052508101906128249190616095565b9550816005015f9054906101000a90046001600160a01b0316826004015f9054906101000a90046001600160a01b0316836006015f9054906101000a90046001600160a01b031684600101548560020154866008015f9054906101000a900460ff16876007015488600301548d8a6009015f336001600160a01b03166001600160a01b031681526020019081526020015f20548b601001548c600a015f01549d509d509d509d509d509d509d509d509d509d509d509d50505091939597999b5091939597999b565b6040516318feeb1560e31b8152600481018290525f908190309063c7f758a89060240161018060405180830381865afa15801561292b573d5f803e3d5ffd5b505050506040513d601f19601f8201168201806040525081019061294f9190616162565b50919d9c50505050505050505050505050565b61296a610545565b505050505050565b5f868152607b602052604090208681556005810180546001600160a01b0319166001600160a01b0388161790556001808201869055600882018054869260ff19909116908360068111156129c8576129c8615664565b0217905550600781018390556003810182905560408051808201825260018152815180830190925260048252636d65746160e01b60208381019190915281018290528051600a84019081559091600b840190612a249082616251565b50505050505050505050565b611804614142565b5f61166160675460ff1690565b5f828152607b602090815260408083206001600160a01b0385168452600901909152812054611bf3565b5f6118708261417e565b612a816141a9565b612a8a826141d4565b606a54606c8054612ab2926001600160a01b0316915f612aa98361614a565b91905055614231565b607980546001600160a01b0319166001600160a01b039290921691821790556040805163204a7f0760e21b81529051638129fc1c916004808201925f9290919082900301818387803b158015612b06575f80fd5b505af1158015612b18573d5f803e3d5ffd5b505050505f81806020019051810190612b319190616472565b60a0810151607880546001600160a01b0319166001600160a01b0392831617905560c08201519192501615612b6a578060c00151612b70565b8060a001515b608380546001600160a01b0319166001600160a01b0392909216919091179055608081015151612b9f90614277565b612bac8160e001516137e0565b60208101516076805460ff19166001836002811115612bcd57612bcd615664565b021790555060408101516076805461ff001916610100836004811115612bf557612bf5615664565b021790555060608101515160775560e0810151607a80546001600160a01b039283166001600160a01b031991821617909155610140830151608080549190931691161790556101608101516082556040517ff5eb09d0087c79c1d71dcda48cad7b075c9cf56c9354addb6cab6cde6194bc6f90612c7590859084906165f4565b60405180910390a1600281602001516002811115612c9557612c95615664565b03612de1576080546001600160a01b03161580612cb25750608254155b15612cdd576080546040516330d466e760e11b81526105a3916001600160a01b03169060040161514f565b6080546040805180820182525f808252602082018181529251630779d36560e01b81526001600160a01b039094166004850152306024850152905115156044840152905115156064830152908190736da13bde224a05a288748d857b9e7ddeffd1de0890630779d3659060840160408051808303815f875af1158015612d65573d5f803e3d5ffd5b505050506040513d601f19601f82011682018060405250810190612d899190616731565b91509150811580612da157506001600160a01b038116155b15612dbf5760405163946c56ed60e01b815260040160405180910390fd5b608180546001600160a01b0319166001600160a01b0392909216919091179055505b6080546081546082546040519081526001600160a01b0392831692909116907f40b1b33a11a0c5522c7983a68e1af5f98f6a1cedd1aa8b4235c1ddfd006223549060200160405180910390a36080810151602001516001600160a01b031615801590612e5a57506080810151516001600160a01b031615155b15612fc6576080810151805160209091015160405163446adb9960e11b81526001600160a01b03909216916388d5b73291612e979160040161514f565b5f604051808303815f87803b158015612eae575f80fd5b505af1158015612ec0573d5f803e3d5ffd5b5050606f8054925090505f612ed48361614a565b909155505060808181018051606f80545f908152607f6020908152604091829020845181546001600160a01b039182166001600160a01b03199182161783558387015160018401805491841691909216179055838601516002830155606080870151600384015586890151600484015560a096870151600590930192909255935495518051818401518286015183850151848c0151948a015188519b8c52938916968b019690965296168886015291870194909452958501529183015260c082019290925290517fe677e2878aaaaf6a65ecf50f849ad58100c49f6dfd57d055ba4bddd63a175d539181900360e00190a15b805160400151158015612fdc5750805160200151155b8015612fe85750805151155b8015612ff75750805160600151155b613050578051805160725560208101516073556040808201516074556060820151607555517fec9315d9f4291207475c061feff1e5d7105750ac0ee9534af9444b4ff1dab9bc916130479161675e565b60405180910390a15b607a546001600160a01b031615611649576116498161010001516138ee565b611804614385565b61307f6132ed565b6001600160a01b0381166130e45760405162461bcd60e51b815260206004820152602660248201527f4f776e61626c653a206e6577206f776e657220697320746865207a65726f206160448201526564647265737360d01b60648201526084016105a3565b61169f81613eb7565b7f12ec43b97389db0cfbdf8d85f200f1b822123856376a9d75d3a6918f27c903bb90565b5f6001600160e01b03198216631add1a0d60e01b148061314157506001600160e01b0319821663088a8e8160e21b145b8061315c57506001600160e01b0319821663136439dd60e01b145b8061317757506001600160e01b031982166380c4a65f60e01b145b8061319257506001600160e01b03198216631fa5d41d60e11b145b806131ad57506001600160e01b0319821663bac1e94b60e01b145b806131c857506001600160e01b0319821663adaf157b60e01b145b806131e357506001600160e01b031982166360b4778960e01b145b806131fe57506001600160e01b031982166358c3de9360e11b145b8061321957506001600160e01b031982166304db2f3360e11b145b8061323457506001600160e01b03198216630da748b160e41b145b8061187057506001600160e01b03198216632d2ebbef60e01b1492915050565b5f806132608484613ef5565b91509150815f148015613271575080155b1561327c5750505050565b60078401819055600384018290556116aa8461447f565b6001600160a01b03163b151590565b5f6132ab613ea6565b6003810180546001600160a01b038581166001600160a01b031983168117909355604051939450169182905f80516020616ba8833981519152905f90a3505050565b5f6132f661164e565b90506001600160a01b038116330361330b5750565b5f61331461257d565b9050336001600160a01b0382161461167d5760405162461bcd60e51b815260206004820181905260248201527f4f776e61626c653a2063616c6c6572206973206e6f7420746865206f776e657260448201526064016105a3565b5f5b8351811015613491575f84828151811061338c5761338c616116565b60200260200101516040015190505f8583815181106133ad576133ad616116565b60200260200101515f0151905081515f036133dd578060405163e767f91f60e01b81526004016105a3919061514f565b5f8684815181106133f0576133f0616116565b60200260200101516020015190505f600381111561341057613410615664565b81600381111561342257613422615664565b036134365761343182846144a3565b613486565b600181600381111561344a5761344a615664565b0361345957613431828461462d565b600281600381111561346d5761346d615664565b0361347c57613431828461478a565b61348682846149d4565b505050600101613370565b507f8faa70878671ccd212d20771b795c50af8fd3ff6cf27f4bde57e5d4de0aeb6738383836040516134c59392919061676c565b60405180910390a16116498282614bd6565b6001600160a01b038116613500578060405163538cffa360e01b81526004016105a3919061514f565b6078546001600160a01b031661353657607854604051632294771360e01b81526105a3916001600160a01b03169060040161514f565b60835460405163288c314960e21b81526001600160a01b039091169063a230c5249061356690849060040161514f565b602060405180830381865afa158015613581573d5f803e3d5ffd5b505050506040513d601f19601f820116820180604052508101906135a59190615d24565b61169f57607854604051634abc464160e11b81526105a39183916001600160a01b0390911690600401616825565b7fd5d05b1f29dcb0c0e1698b0261850eb784d1243215a6aa22ea2b8128b2e9497c90565b5f80516020616b68833981519152546001600160a01b031690565b3361361b61257d565b6001600160a01b03161461169f573361363261257d565b60405163163678e960e01b81526004016105a3929190616825565b7f4910fdfa16fed3260ed0e7147f7cc6da11a60208b5b9406d12a635614ffd91435460ff16156136805761164983614c98565b826001600160a01b03166352d1902d6040518163ffffffff1660e01b8152600401602060405180830381865afa9250505080156136da575060408051601f3d908101601f191682019092526136d791810190616095565b60015b61373d5760405162461bcd60e51b815260206004820152602e60248201527f45524331393637557067726164653a206e657720696d706c656d656e7461746960448201526d6f6e206973206e6f74205555505360901b60648201526084016105a3565b5f80516020616b6883398151915281146137ab5760405162461bcd60e51b815260206004820152602960248201527f45524331393637557067726164653a20756e737570706f727465642070726f786044820152681a58589b195555525160ba1b60648201526084016105a3565b50611649838383614d31565b6001600160a01b03811661169f578060405163084c41ef60e01b81526004016105a3919061514f565b6001600160a01b0381166137f15750565b60785f9054906101000a90046001600160a01b03166001600160a01b031663f86c5f896040518163ffffffff1660e01b8152600401602060405180830381865afa158015613841573d5f803e3d5ffd5b505050506040513d601f19601f820116820180604052508101906138659190615f57565b6001600160a01b031663f9f6b49b826040518263ffffffff1660e01b8152600401613890919061514f565b602060405180830381865afa1580156138ab573d5f803e3d5ffd5b505050506040513d601f19601f820116820180604052508101906138cf9190615d24565b61169f57806040516310c4c2c360e31b81526004016105a3919061514f565b607a5460785460408051633629edcd60e11b815290516001600160a01b039384169363fc2ebdd193309387939190921691636c53db9a9160048083019260209291908290030181865afa158015613947573d5f803e3d5ffd5b505050506040513d601f19601f8201168201806040525081019061396b9190615f57565b60405160e085901b6001600160e01b03191681526001600160a01b039384166004820152602481019290925290911660448201526064015f604051808303815f87803b1580156139b9575f80fd5b505af1158015611857573d5f803e3d5ffd5b5f806139d7838561683f565b90505f811215611bf357604051631dde38a160e11b81526004810185905260248101849052604481018290526064016105a3565b5f831580613a2057506001600160a01b038216155b80613a3c5750816001600160a01b0316836001600160a01b0316145b15613a48575082611bf3565b613a6384613a5584614d55565b613a5e86614d55565b614dbc565b949350505050565b607a545f906001600160a01b031615613aef57607a546040516302154c3d60e51b81526001600160a01b03909116906342a987a090613ab09085903090600401616825565b602060405180830381865afa158015613acb573d5f803e3d5ffd5b505050506040513d601f19601f820116820180604052508101906118709190615d24565b6004607654610100900460ff166004811115613b0d57613b0d615664565b148015613b2b57506078546083546001600160a01b03908116911614155b15613b605760835460405163288c314960e21b81526001600160a01b039091169063a230c52490613ab090859060040161514f565b6068546040516810531313d5d31254d560ba1b602082015260298101919091525f9060490160408051601f19818403018152908290528051602090910120607854632474521560e21b83529092506001600160a01b0316906391d1485490613bce9084905f90600401616866565b602060405180830381865afa158015613be9573d5f803e3d5ffd5b505050506040513d601f19601f82011682018060405250810190613c0d9190615d24565b80611bf35750607854604051632474521560e21b81526001600160a01b03909116906391d1485490613c459084908790600401616866565b602060405180830381865afa158015613c60573d5f803e3d5ffd5b505050506040513d601f19601f82011682018060405250810190611bf39190615d24565b60785f9054906101000a90046001600160a01b03166001600160a01b0316636c53db9a6040518163ffffffff1660e01b8152600401602060405180830381865afa158015613cd4573d5f803e3d5ffd5b505050506040513d601f19601f82011682018060405250810190613cf89190615f57565b6001600160a01b0316336001600160a01b031614158015613d1f5750613d1d33613a6b565b155b156118045760785460408051633629edcd60e11b8152905133926001600160a01b031691636c53db9a9160048083019260209291908290030181865afa158015613d6b573d5f803e3d5ffd5b505050506040513d601f19601f82011682018060405250810190613d8f9190615f57565b604051637d19bac760e11b81526004016105a3929190616825565b6078545f906001600160a01b0316613dc25750600190565b6078546040515f9182916001600160a01b0390911690633a871fe160e01b90613def90309060240161514f565b60408051601f198184030181529181526020820180516001600160e01b03166001600160e01b0319909416939093179092529051613e2d919061687d565b5f60405180830381855afa9150503d805f8114613e65576040519150601f19603f3d011682016040523d82523d5f602084013e613e6a565b606091505b5091509150811580613e7d575060208151105b15613e8b5760019250505090565b80806020019051810190613e9f9190615d24565b9250505090565b5f80516020616adc83398151915290565b603380546001600160a01b038381166001600160a01b0319831681179093556040519116919082905f80516020616ba8833981519152905f90a35050565b5f80613eff613daa565b613f1057505060038201544361254b565b4390508084600701541115613f2757613f27616898565b80846007015403613f3c57505f90508061254b565b73__$f1b7c69ba751c396eddc93d3bbc5414fd9$__63010dfe64856007015483613f669190616103565b60038701546074546040516001600160e01b031960e086901b168152613f9293929189916004016155fb565b602060405180830381865af4158015613fad573d5f803e3d5ffd5b505050506040513d601f19601f82011682018060405250810190613fd19190616095565b91509250929050565b5f818152607b6020526040812054158015906118705750505f908152607b60205260409020600501546001600160a01b0316151590565b5f828152607b6020526040812090821380156140ac57505f600882015460ff16600681111561404257614042615664565b148061406657506003600882015460ff16600681111561406457614064615664565b145b8061408957506004600882015460ff16600681111561408757614087615664565b145b806140ac57506006600882015460ff1660068111156140aa576140aa615664565b145b156116495760088101546040516394d57ead60e01b81526105a391859160ff909116906004016168ac565b6067805460ff19168215159081179091556040519081527fd94c9bc4d43c51d8dc345a016d8e3d994432fac68e72832e4cf3a616bd8efae09060200160405180910390a150565b60128101545f90801580614133575080607154115b15611870575050607154919050565b6078546001600160a01b03163314611804576078546040516317d39bcb60e21b81526105a39133916001600160a01b0390911690600401616825565b5f61418c62989680836168c0565b614194611bfa565b6072546141a191906168c0565b111592915050565b6065546001600160a01b031633146118045760405163075fd2b160e01b815260040160405180910390fd5b5f356001600160e01b0319166141e8575f80fd5b6141f06141a9565b606854156142115760405163439a74c960e01b815260040160405180910390fd5b805f0361110257604051637fcce2a960e01b815260040160405180910390fd5b6040516001600160601b03193360601b166020820152603481018290525f908190605401604051602081830303815290604052805190602001209050613a638482614e2e565b6001600160a01b0381166142885750565b60785f9054906101000a90046001600160a01b03166001600160a01b031663f86c5f896040518163ffffffff1660e01b8152600401602060405180830381865afa1580156142d8573d5f803e3d5ffd5b505050506040513d601f19601f820116820180604052508101906142fc9190615f57565b6001600160a01b031663f9f6b49b826040518263ffffffff1660e01b8152600401614327919061514f565b602060405180830381865afa158015614342573d5f803e3d5ffd5b505050506040513d601f19601f820116820180604052508101906143669190615d24565b61169f57806040516302bc866560e61b81526004016105a3919061514f565b60785f9054906101000a90046001600160a01b03166001600160a01b0316636c53db9a6040518163ffffffff1660e01b8152600401602060405180830381865afa1580156143d5573d5f803e3d5ffd5b505050506040513d601f19601f820116820180604052508101906143f99190615f57565b6001600160a01b0316336001600160a01b031614158015614433575061441d61257d565b6001600160a01b0316336001600160a01b031614155b156118045760785460408051633629edcd60e11b8152905133926001600160a01b031691636c53db9a9160048083019260209291908290030181865afa158015611aed573d5f803e3d5ffd5b6012810154801580614492575080607154115b1561167d5760715460128301555050565b6001600160a01b0382166144cc57806040516302b8da0760e21b81526004016105a391906168d7565b5f6144d5613ea6565b90505f8160010180549050905061450484604051806060016040528060248152602001616afc60249139614ec2565b5f5b8351811015611857575f84828151811061452257614522616116565b6020908102919091018101516001600160e01b031981165f908152918690526040909120549091506001600160a01b03168015614574578160405163ebbf5d0760e01b81526004016105a391906150fd565b6040805180820182526001600160a01b03808a16825261ffff80881660208085019182526001600160e01b031988165f9081528b8252958620945185549251909316600160a01b026001600160b01b0319909216929093169190911717909155600180880180549182018155835291206008820401805460e085901c60046007909416939093026101000a92830263ffffffff90930219169190911790558361461c8161612a565b945050600190920191506145069050565b5f614636613ea6565b90506001600160a01b038316614661578160405163cd98a96f60e01b81526004016105a391906168d7565b61468383604051806060016040528060288152602001616bef60289139614ec2565b5f5b82518110156116aa575f8382815181106146a1576146a1616116565b6020908102919091018101516001600160e01b031981165f908152918590526040909120549091506001600160a01b03163081036146f45781604051632901806d60e11b81526004016105a391906150fd565b856001600160a01b0316816001600160a01b0316036147285781604051631ac6ce8d60e11b81526004016105a391906150fd565b6001600160a01b0381166147515781604051637479f93960e01b81526004016105a391906150fd565b506001600160e01b0319165f90815260208390526040902080546001600160a01b0319166001600160a01b038616179055600101614685565b5f614793613ea6565b60018101549091506001600160a01b038416156147c5578360405163d091bc8160e01b81526004016105a3919061514f565b5f5b8351811015611857575f8482815181106147e3576147e3616116565b6020908102919091018101516001600160e01b031981165f9081528683526040908190208151808301909252546001600160a01b038116808352600160a01b90910461ffff1693820193909352909250906148535781604051637a08a22d60e01b81526004016105a391906150fd565b8051306001600160a01b03909116036148815781604051630df5fd6160e31b81526004016105a391906150fd565b8361488b81616924565b94505083816020015161ffff1614614965575f8560010185815481106148b3576148b3616116565b905f5260205f2090600891828204019190066004029054906101000a900460e01b90508086600101836020015161ffff16815481106148f4576148f4616116565b5f91825260208083206008830401805463ffffffff60079094166004026101000a938402191660e09590951c92909202939093179055838201516001600160e01b03199390931681529087905260409020805461ffff60a01b1916600160a01b61ffff909316929092029190911790555b8460010180548061497857614978616939565b5f828152602080822060085f1990940193840401805463ffffffff600460078716026101000a0219169055919092556001600160e01b0319909316815291859052506040902080546001600160b01b03191690556001016147c7565b6001600160a01b0382166149fd57806040516302b8da0760e21b81526004016105a391906168d7565b5f614a06613ea6565b9050614a2a83604051806060016040528060258152602001616ab760259139614ec2565b5f82516001600160401b03811115614a4457614a446151bd565b604051908082528060200260200182016040528015614a6d578160200160208202803683370190505b5090505f8084516001600160401b03811115614a8b57614a8b6151bd565b604051908082528060200260200182016040528015614ab4578160200160208202803683370190505b5090505f805b8651811015614ba3575f878281518110614ad657614ad6616116565b6020908102919091018101516001600160e01b031981165f908152918990526040909120549091506001600160a01b031680614b4857818787614b188161614a565b985081518110614b2a57614b2a616116565b6001600160e01b031990921660209283029190910190910152614b99565b896001600160a01b0316816001600160a01b031614614b9957818585614b6d8161614a565b965081518110614b7f57614b7f616116565b6001600160e01b0319909216602092830291909101909101525b5050600101614aba565b508215614bbd57614bbd87614bb88686614ee9565b6144a3565b80156127555761275587614bd18484614ee9565b61462d565b6001600160a01b038216614be8575050565b614c0a82604051806060016040528060288152602001616b2060289139614ec2565b5f80836001600160a01b031683604051614c24919061687d565b5f60405180830381855af49150503d805f8114614c5c576040519150601f19603f3d011682016040523d82523d5f602084013e614c61565b606091505b5091509150816116aa57805115614c7b5780518082602001fd5b838360405163192105d760e01b81526004016105a392919061694d565b614ca181613293565b614d035760405162461bcd60e51b815260206004820152602d60248201527f455243313936373a206e657720696d706c656d656e746174696f6e206973206e60448201526c1bdd08184818dbdb9d1c9858dd609a1b60648201526084016105a3565b5f80516020616b6883398151915280546001600160a01b0319166001600160a01b0392909216919091179055565b614d3a83614f8f565b5f82511180614d465750805b15611649576116aa8383614fce565b5f816001600160a01b031663313ce5676040518163ffffffff1660e01b8152600401602060405180830381865afa925050508015614db0575060408051601f3d908101601f19168201909252614dad91810190616970565b60015b61187057506012919050565b5f831580614dcf57508160ff168360ff16145b15614ddb575082611bf3565b8160ff168360ff161015614e0f57614df38383616990565b614dfe90600a616a89565b614e0890856168c0565b9050611bf3565b614e198284616990565b614e2490600a616a89565b613a639085616a97565b5f763d602d80600a3d3981f3363d3d373d3d3d363d730000008360601b60e81c175f526e5af43d82803e903d91602b57fd5bf38360781b1760205281603760095ff590506001600160a01b0381166118705760405162461bcd60e51b8152602060048201526017602482015276115490cc4c4d8dce8818dc99585d194c8819985a5b1959604a1b60448201526064016105a3565b813b5f81900361164957828260405163919834b960e01b81526004016105a392919061694d565b60605f826001600160401b03811115614f0457614f046151bd565b604051908082528060200260200182016040528015614f2d578160200160208202803683370190505b5090505f5b83811015614f8757848181518110614f4c57614f4c616116565b6020026020010151828281518110614f6657614f66616116565b6001600160e01b031990921660209283029190910190910152600101614f32565b509392505050565b614f9881614c98565b6040516001600160a01b038216907fbc7cd75a20ee27fd9adebab32041f755214dbc6bffa90cc0225b39da2e5c2d3b905f90a250565b6060611bf38383604051806060016040528060278152602001616bc86027913960605f80856001600160a01b03168560405161500a919061687d565b5f60405180830381855af49150503d805f8114615042576040519150601f19603f3d011682016040523d82523d5f602084013e615047565b606091505b509150915061505886838387615062565b9695505050505050565b606083156150ce5782515f036150c75761507b85613293565b6150c75760405162461bcd60e51b815260206004820152601d60248201527f416464726573733a2063616c6c20746f206e6f6e2d636f6e747261637400000060448201526064016105a3565b5081613a63565b613a6383838151156150e35781518083602001fd5b8060405162461bcd60e51b81526004016105a3919061572f565b6001600160e01b031991909116815260200190565b80356001600160e01b03198116811461168a575f80fd5b5f60208284031215615139575f80fd5b611bf382615112565b6001600160a01b03169052565b6001600160a01b0391909116815260200190565b6001600160a01b038116811461169f575f80fd5b803561168a81615163565b5f60208284031215615192575f80fd5b8135611bf381615163565b5f80604083850312156151ae575f80fd5b50508035926020909101359150565b634e487b7160e01b5f52604160045260245ffd5b604080519081016001600160401b03811182821017156151f3576151f36151bd565b60405290565b604051608081016001600160401b03811182821017156151f3576151f36151bd565b60405160c081016001600160401b03811182821017156151f3576151f36151bd565b604051606081016001600160401b03811182821017156151f3576151f36151bd565b60405161018081016001600160401b03811182821017156151f3576151f36151bd565b604051601f8201601f191681016001600160401b03811182821017156152aa576152aa6151bd565b604052919050565b5f6001600160401b038211156152ca576152ca6151bd565b5060051b60200190565b5f82601f8301126152e3575f80fd5b813560206152f86152f3836152b2565b615282565b8083825260208201915060208460051b870101935086841115615319575f80fd5b602086015b8481101561533e57803561533181615163565b835291830191830161531e565b509695505050505050565b5f6001600160401b03821115615361576153616151bd565b50601f01601f191660200190565b5f82601f83011261537e575f80fd5b813561538c6152f382615349565b8181528460208386010111156153a0575f80fd5b816020850160208301375f918101602001919091529392505050565b5f805f606084860312156153ce575f80fd5b83356001600160401b03808211156153e4575f80fd5b6153f0878388016152d4565b94506020860135915080821115615405575f80fd5b506154128682870161536f565b925050604084013561542381615163565b809150509250925092565b5f6020828403121561543e575f80fd5b5035919050565b5f805f8060808587031215615458575f80fd5b8435935060208501356001600160401b0380821115615475575f80fd5b9086019060408289031215615488575f80fd5b6154906151d1565b823581526020830135828111156154a5575f80fd5b6154b18a82860161536f565b6020830152509450505060408501356154c981615163565b9396929550929360600135925050565b5f805f606084860312156154eb575f80fd5b83356154f681615163565b9250602084013561550681615163565b9150604084013561542381615163565b5f8083601f840112615526575f80fd5b5081356001600160401b0381111561553c575f80fd5b60208301915083602082850101111561254b575f80fd5b5f805f805f60608688031215615567575f80fd5b85356001600160401b038082111561557d575f80fd5b818801915088601f830112615590575f80fd5b81358181111561559e575f80fd5b8960208260051b85010111156155b2575f80fd5b602083019750809650506155c860208901615177565b945060408801359150808211156155dd575f80fd5b506155ea88828901615516565b969995985093965092949392505050565b93845260208401929092526040830152606082015260800190565b5f8060408385031215615627575f80fd5b82356001600160401b0381111561563c575f80fd5b6156488582860161536f565b925050602083013561565981615163565b809150509250929050565b634e487b7160e01b5f52602160045260245ffd5b6005811061568857615688615664565b9052565b602081016118708284615678565b5f80604083850312156156ab575f80fd5b82356156b681615163565b946020939093013593505050565b6003811061568857615688615664565b6020810161187082846156c4565b5f5b838110156156fc5781810151838201526020016156e4565b50505f910152565b5f815180845261571b8160208601602086016156e2565b601f01601f19169290920160200192915050565b602081525f611bf36020830184615704565b6005811061169f575f80fd5b5f6020828403121561575d575f80fd5b8135611bf381615741565b5f8060408385031215615779575f80fd5b823561578481615163565b915060208301356001600160401b0381111561579e575f80fd5b6157aa8582860161536f565b9150509250929050565b5f608082840312156157c4575f80fd5b6157cc6151f9565b90508135815260208201356020820152604082013560408201526060820135606082015292915050565b5f60808284031215615806575f80fd5b611bf383836157b4565b5f805f60608486031215615822575f80fd5b833561582d81615163565b925060208401356001600160401b03811115615847575f80fd5b6154128682870161536f565b5f815180845260208085019450602084015f5b8381101561588c5781516001600160e01b03191687529582019590820190600101615866565b509495945050505050565b5f60208083018184528085518083526040925060408601915060408160051b8701018488015f5b8381101561590657888303603f19018552815180516001600160a01b031684528701518784018790526158f387850182615853565b95880195935050908601906001016158be565b509098975050505050505050565b6003811061169f575f80fd5b5f60208284031215615930575f80fd5b8135611bf381615914565b5f806040838503121561594c575f80fd5b6156b683615112565b5f805f60608486031215615967575f80fd5b83359250602084013561597981615163565b929592945050506040919091013590565b5f805f805f6060868803121561599e575f80fd5b8535945060208601356001600160401b03808211156159bb575f80fd5b6159c789838a01615516565b909650945060408801359150808211156155dd575f80fd5b801515811461169f575f80fd5b5f602082840312156159fc575f80fd5b8135611bf3816159df565b5f60c08284031215615a17575f80fd5b615a1f61521b565b90508135615a2c81615163565b81526020820135615a3c81615163565b8060208301525060408201356040820152606082013560608201526080820135608082015260a082013560a082015292915050565b5f805f805f805f6101e0888a031215615a88575f80fd5b615a928989615a07565b9650615aa18960c08a016157b4565b955061014088013594506101608801356001600160401b0380821115615ac5575f80fd5b615ad18b838c016152d4565b95506101808a0135915080821115615ae7575f80fd5b50615af48a828b016152d4565b9350506101a0880135615b0681615163565b809250506101c0880135905092959891949750929550565b6007811061568857615688615664565b6001600160a01b038d811682528c811660208301528b166040820152606081018a9052608081018990526101808101615b6a60a083018a615b1e565b8760c08301528660e0830152856101008301528461012083015283610140830152826101608301529d9c50505050505050505050505050565b5f805f805f806101c08789031215615bb9575f80fd5b615bc38888615a07565b9550615bd28860c089016157b4565b945061014087013593506101608701356001600160401b0380821115615bf6575f80fd5b615c028a838b016152d4565b9450610180890135915080821115615c18575f80fd5b50615c2589828a016152d4565b9250506101a0870135615c3781615163565b809150509295509295509295565b6007811061169f575f80fd5b5f805f805f8060c08789031215615c66575f80fd5b863595506020870135615c7881615163565b9450604087013593506060870135615c8f81615c45565b9598949750929560808101359460a0909101359350915050565b5f8060408385031215615cba575f80fd5b82359150602083013561565981615163565b5f8060408385031215615cdd575f80fd5b8235915060208301356001600160401b0381111561579e575f80fd5b5f8060e08385031215615d0a575f80fd5b82359150615d1b8460208501615a07565b90509250929050565b5f60208284031215615d34575f80fd5b8151611bf3816159df565b6020808252602e908201527f496e697469616c697a61626c653a20636f6e747261637420697320616c72656160408201526d191e481a5b9a5d1a585b1a5e995960921b606082015260800190565b5f615d9a6152f3846152b2565b83815260208082019190600586811b860136811115615db7575f80fd5b865b81811015615ea05780356001600160401b0380821115615dd7575f80fd5b818a01915060608236031215615deb575f80fd5b615df361523d565b8235615dfe81615163565b81528287013560048110615e10575f80fd5b8188015260408381013583811115615e26575f80fd5b939093019236601f850112615e39575f80fd5b83359250615e496152f3846152b2565b83815292871b84018801928881019036851115615e64575f80fd5b948901945b84861015615e8957615e7a86615112565b82529489019490890190615e69565b918301919091525088525050948301948301615db9565b5092979650505050505050565b600181811c90821680615ec157607f821691505b602082108103615edf57634e487b7160e01b5f52602260045260245ffd5b50919050565b6020808252602c908201525f80516020616b4883398151915260408201526b19195b1959d85d1958d85b1b60a21b606082015260800190565b6020808252602c908201525f80516020616b4883398151915260408201526b6163746976652070726f787960a01b606082015260800190565b5f60208284031215615f67575f80fd5b8151611bf381615163565b805161168a81615163565b5f6020808385031215615f8e575f80fd5b82516001600160401b0380821115615fa4575f80fd5b9084019060c08287031215615fb7575f80fd5b615fbf61521b565b8251815283830151615fd081615163565b818501526040830151615fe281615163565b6040820152606083015182811115615ff8575f80fd5b830160408189031215616009575f80fd5b6160116151d1565b815181528582015184811115616025575f80fd5b82019350601f84018913616037575f80fd5b835191506160476152f383615349565b828152898784870101111561605a575f80fd5b616069838883018988016156e2565b95810195909552506060810193909352506080818101519083015260a090810151908201529392505050565b5f602082840312156160a5575f80fd5b5051919050565b634e487b7160e01b5f52601160045260245ffd5b80820180821115611870576118706160ac565b968752602087019590955260408601939093526060850191909152608084015260a083015260c082015260e00190565b81810381811115611870576118706160ac565b634e487b7160e01b5f52603260045260245ffd5b5f61ffff808316818103616140576161406160ac565b6001019392505050565b5f6001820161615b5761615b6160ac565b5060010190565b5f805f805f805f805f805f806101808d8f03121561617e575f80fd5b8c5161618981615163565b60208e0151909c5061619a81615163565b60408e0151909b506161ab81615163565b809a505060608d0151985060808d0151975060a08d01516161cb81615c45565b8097505060c08d0151955060e08d015194506101008d015193506101208d015192506101408d015191506101608d015190509295989b509295989b509295989b565b601f82111561164957805f5260205f20601f840160051c810160208510156162325750805b601f840160051c820191505b81811015611857575f815560010161623e565b81516001600160401b0381111561626a5761626a6151bd565b61627e816162788454615ead565b8461620d565b602080601f8311600181146162b1575f841561629a5750858301515b5f19600386901b1c1916600185901b17855561296a565b5f85815260208120601f198616915b828110156162df578886015182559484019460019091019084016162c0565b50858210156162fc57878501515f19600388901b60f8161c191681555b5050505050600190811b01905550565b5f6080828403121561631c575f80fd5b6163246151f9565b90508151815260208201516020820152604082015160408201526060820151606082015292915050565b805161168a81615914565b805161168a81615741565b5f60208284031215616374575f80fd5b604051602081016001600160401b0381118282101715616396576163966151bd565b6040529151825250919050565b5f60c082840312156163b3575f80fd5b6163bb61521b565b905081516163c881615163565b815260208201516163d881615163565b8060208301525060408201516040820152606082015160608201526080820151608082015260a082015160a082015292915050565b5f82601f83011261641c575f80fd5b8151602061642c6152f3836152b2565b8083825260208201915060208460051b87010193508684111561644d575f80fd5b602086015b8481101561533e57805161646581615163565b8352918301918301616452565b5f60208284031215616482575f80fd5b81516001600160401b0380821115616498575f80fd5b9083019061028082860312156164ac575f80fd5b6164b461525f565b6164be868461630c565b81526164cc6080840161634e565b60208201526164dd60a08401616359565b60408201526164ef8660c08501616364565b60608201526165018660e085016163a3565b60808201526165136101a08401615f72565b60a08201526165256101c08401615f72565b60c08201526165376101e08401615f72565b60e08201526102008301516101008201526102208301518281111561655a575f80fd5b6165668782860161640d565b6101208301525061657a6102408401615f72565b6101408201526102609290920151610160830152509392505050565b805182526020810151602083015260408101516040830152606081015160608301525050565b5f815180845260208085019450602084015f5b8381101561588c5781516001600160a01b0316875295820195908201906001016165cf565b8281526040602082015261660c604082018351616596565b5f602083015161661f60c08401826156c4565b50604083015161663260e0840182615678565b50606083015161010061664781850183519052565b60808581015180516001600160a01b0390811661012088810191909152602083015190911661014088015260408201516101608801526060820151610180880152918101516101a087015260a0908101516101c087015286015192506166b16101e0860184615142565b60c086015192506166c6610200860184615142565b60e086015192506166db610220860184615142565b9085015161024085015284015161028061026085018190529091506167046102c08501836165bc565b915061014085015161671882860182615142565b50506101608401516102a0840152809150509392505050565b5f8060408385031215616742575f80fd5b825161674d816159df565b602084015190925061565981615163565b608081016118708284616596565b5f60608083016060845280875180835260808601915060808160051b87010192506020808a015f5b838110156167f757888603607f19018552815180516001600160a01b0316875283810151600481106167c8576167c8615664565b878501526040908101519087018890526167e488880182615853565b9650509382019390820190600101616794565b50506168058188018a615142565b505050838103604085015261681a8186615704565b979650505050505050565b6001600160a01b0392831681529116602082015260400190565b8082018281125f83128015821682158216171561685e5761685e6160ac565b505092915050565b9182526001600160a01b0316602082015260400190565b5f825161688e8184602087016156e2565b9190910192915050565b634e487b7160e01b5f52600160045260245ffd5b82815260408101611bf36020830184615b1e565b8082028115828204841417611870576118706160ac565b602080825282518282018190525f9190848201906040850190845b818110156169185783516001600160e01b031916835292840192918401916001016168f2565b50909695505050505050565b5f81616932576169326160ac565b505f190190565b634e487b7160e01b5f52603160045260245ffd5b6001600160a01b03831681526040602082018190525f90613a6390830184615704565b5f60208284031215616980575f80fd5b815160ff81168114611bf3575f80fd5b60ff8281168282160390811115611870576118706160ac565b600181815b808511156169e357815f19048211156169c9576169c96160ac565b808516156169d657918102915b93841c93908002906169ae565b509250929050565b5f826169f957506001611870565b81616a0557505f611870565b8160018114616a1b5760028114616a2557616a41565b6001915050611870565b60ff841115616a3657616a366160ac565b50506001821b611870565b5060208310610133831016604e8410600b8410161715616a64575081810a611870565b616a6e83836169a9565b805f1904821115616a8157616a816160ac565b029392505050565b5f611bf360ff8416836169eb565b5f82616ab157634e487b7160e01b5f52601260045260245ffd5b50049056fe4c69624469616d6f6e644375743a204175746f20666163657420686173206e6f20636f6465c8fcad8db84d3cc18b4c41d551ea0ee66dd599cde068d998e57d5e09332c131c4c69624469616d6f6e644375743a2041646420666163657420686173206e6f20636f64654c69624469616d6f6e644375743a205f696e6974206164647265737320686173206e6f20636f646546756e6374696f6e206d7573742062652063616c6c6564207468726f75676820360894a13ba1a3210667c828492db98dca3e2076cc3735a920a3ca505d382bbc7f26b83ff96e1f2b6a682f133852f6798a09c465da95921460cefb38474024988be0079c531659141344cd1fd0a4f28419497f9722a3daafe3b4186f6b6457e0416464726573733a206c6f772d6c6576656c2064656c65676174652063616c6c206661696c65644c69624469616d6f6e644375743a205265706c61636520666163657420686173206e6f20636f6465a164736f6c6343000817000a","linkReferences":{"pkg/contracts/src/CVStrategy/ConvictionsUtils.sol":{"ConvictionsUtils":[{"start":8383,"length":20},{"start":8533,"length":20},{"start":10403,"length":20},{"start":16470,"length":20}]}}},"methodIdentifiers":{"DISPUTE_COOLDOWN_SEC()":"f5be3f7c","NATIVE()":"a0cf0aea","RULING_OPTIONS()":"626c47e8","activatePoints()":"814516ad","activeProposalCount()":"76e43099","activeProposalCountInitialized()":"962896f6","allocate(bytes,address)":"ef2920fc","arbitrableConfigs(uint256)":"41bb7605","calculateProposalConviction(uint256)":"60b0645a","calculateThreshold(uint256)":"59a5db8b","cancelProposal(uint256)":"e0a8f6f5","cloneNonce()":"33960459","collateralVault()":"0bece79c","connectSuperfluidGDA(address)":"924e6704","currentArbitrableConfigVersion()":"125fd1d9","cvParams()":"2506b870","deactivatePoints()":"1ddf1e23","deactivatePoints(address)":"6453d9c4","decreasePower(address,uint256)":"2ed04b2b","diamondCut((address,uint8,bytes4[])[],address,bytes)":"1f931c1c","disconnectSuperfluidGDA(address)":"c69271ec","disputeCount()":"a28889e1","disputeIdToProposalId(uint256)":"255ffb38","disputeProposal(uint256,string,bytes)":"b41596ec","distribute(address[],bytes,address)":"0a6f0ee9","editProposal(uint256,(uint256,string),address,uint256)":"141e3b38","exposedApplyDelta(uint256,int256)":"49b25778","exposedCalculateAndSetConviction(uint256,uint256)":"096d2870","exposedCanExecuteAction(address)":"4e899d5f","exposedCheckBlockAndCalculateConviction(uint256,uint256)":"85c504dd","exposedCheckProposalAllocationValidity(uint256,int256)":"ab7716d8","exposedCheckSenderIsMember(address)":"291e5123","exposedIsOverMaxRatio(uint256)":"ec9f5f3d","exposedOnlyCouncilSafe()":"f01a809c","exposedOnlyCouncilSafeOrMember()":"52b20050","exposedOnlyRegistryCommunity()":"dd439bd3","exposedProposalExists(uint256)":"91bfd37b","getAllo()":"15cc481e","getArbitrableConfig()":"059351cd","getFacets()":"662ea47d","getMaxAmount()":"0ba95909","getPointSystem()":"c3292171","getPoolAmount()":"4ab4ba42","getPoolId()":"38fff2d0","getProposal(uint256)":"c7f758a8","getProposalMetadataPointer(uint256)":"3587c79b","getProposalStakedAmount(uint256)":"dc96ff2d","getProposalThreshold(uint256)":"d1045aa9","getProposalVoterStake(uint256,address)":"e0dd2c38","increasePower(address,uint256)":"782aadff","init(address,address,address)":"184b9559","init(address,string,address)":"60d5dedc","initialize(address)":"c4d66de8","initialize(uint256,bytes)":"edd146cc","isPaused()":"b187bd26","isPaused(bytes4)":"09b65e66","isPoolActive()":"df868ed3","lastRebalanceAt()":"2cea13f9","openStreamingProposalIds(uint256)":"53ca476c","openStreamingProposalIndex(uint256)":"4d33f6c9","openStreamingProposalsInitialized()":"cf7ae90c","owner()":"8da5cb5b","pause(bytes4,uint256)":"80c4a65f","pause(uint256)":"136439dd","pauseController()":"60b47789","pauseFacet()":"adaf157b","pausedSelectorUntil(bytes4)":"2d2ebbef","pausedUntil()":"da748b10","pointConfig()":"a47ff7e5","pointSystem()":"2dbd6fdd","proposalCounter()":"0c0512e9","proposalType()":"351d9f96","proxiableUUID()":"52d1902d","proxyOwner()":"025313a2","rebalance()":"7d7c2a1c","rebalanceCooldown()":"b3de272d","registerRecipient(bytes,address)":"2bbe0cae","registryCommunity()":"6003e414","renounceOwnership()":"715018a6","rule(uint256,uint256)":"311a6c56","setAllo(address)":"3c092330","setArbitrableConfig(uint256,(address,address,uint256,uint256,uint256,uint256))":"ff3db2ce","setCollateralVaultTemplate(address)":"b0d3713a","setCollateralVaultTemplateRaw(address)":"a0449bf3","setCvParams((uint256,uint256,uint256,uint256))":"56c78699","setPauseController(address)":"1add1a0d","setPauseFacet(address)":"222a3a04","setPointConfig(uint256)":"60ec51aa","setPointSystem(uint8)":"46de35c8","setPoolActive(bool)":"b5f620ce","setPoolId(uint256)":"ac78012c","setPoolParams((address,address,uint256,uint256,uint256,uint256),(uint256,uint256,uint256,uint256),uint256,address[],address[],address)":"d5b7cc54","setPoolParams((address,address,uint256,uint256,uint256,uint256),(uint256,uint256,uint256,uint256),uint256,address[],address[],address,uint256)":"c6cdc980","setProposal(uint256,address,uint256,uint8,uint256,uint256)":"db711460","setProposalStakedAmount(uint256,uint256)":"5bee0ec8","setProposalType(uint8)":"6eeeae93","setProposalVoterStake(uint256,address,uint256)":"a385ea64","setRegistryCommunity(address)":"058aca44","setSuperfluidToken(address)":"8b83075e","setSybilScorer(address)":"ac1ed7b9","setSybilScorer(address,uint256)":"3864d366","setTotalPointsActivated(uint256)":"cb22c4e4","setVotingPowerRegistry(address)":"170aba0d","streamingEscrow(uint256)":"b04b5b26","streamingRatePerSecond()":"94573cbb","superfluidGDA()":"1b36f56f","superfluidToken()":"05caa7f3","supportsInterface(bytes4)":"01ffc9a7","sybilScorer()":"b6c61f31","totalPointsActivated()":"aba9ffee","totalStaked()":"817b1cd2","totalVoterStakePct(address)":"5db64b99","transferOwnership(address)":"f2fde38b","unpause()":"3f4ba83a","unpause(bytes4)":"bac1e94b","updateProposalConviction(uint256)":"1aa91a9e","upgradeTo(address)":"3659cfe6","upgradeToAndCall(address,bytes)":"4f1ef286","voterStakedProposals(address,uint256)":"868c57b8","votingPowerRegistry()":"80fd91cd"},"storageLayout":{"storage":[{"astId":48977,"contract":"pkg/contracts/test/helpers/CVStrategyHelpers.sol:CVStrategyHarness","label":"_initialized","offset":0,"slot":"0","type":"t_uint8"},{"astId":48980,"contract":"pkg/contracts/test/helpers/CVStrategyHelpers.sol:CVStrategyHarness","label":"_initializing","offset":1,"slot":"0","type":"t_bool"},{"astId":49604,"contract":"pkg/contracts/test/helpers/CVStrategyHelpers.sol:CVStrategyHarness","label":"__gap","offset":0,"slot":"1","type":"t_array(t_uint256)50_storage"},{"astId":48769,"contract":"pkg/contracts/test/helpers/CVStrategyHelpers.sol:CVStrategyHarness","label":"_owner","offset":0,"slot":"51","type":"t_address"},{"astId":48889,"contract":"pkg/contracts/test/helpers/CVStrategyHelpers.sol:CVStrategyHarness","label":"__gap","offset":0,"slot":"52","type":"t_array(t_uint256)49_storage"},{"astId":81377,"contract":"pkg/contracts/test/helpers/CVStrategyHelpers.sol:CVStrategyHarness","label":"allo","offset":0,"slot":"101","type":"t_contract(IAllo)351"},{"astId":81379,"contract":"pkg/contracts/test/helpers/CVStrategyHelpers.sol:CVStrategyHarness","label":"strategyId","offset":0,"slot":"102","type":"t_bytes32"},{"astId":81381,"contract":"pkg/contracts/test/helpers/CVStrategyHelpers.sol:CVStrategyHarness","label":"poolActive","offset":0,"slot":"103","type":"t_bool"},{"astId":81383,"contract":"pkg/contracts/test/helpers/CVStrategyHelpers.sol:CVStrategyHarness","label":"poolId","offset":0,"slot":"104","type":"t_uint256"},{"astId":81385,"contract":"pkg/contracts/test/helpers/CVStrategyHelpers.sol:CVStrategyHarness","label":"poolAmount","offset":0,"slot":"105","type":"t_uint256"},{"astId":82121,"contract":"pkg/contracts/test/helpers/CVStrategyHelpers.sol:CVStrategyHarness","label":"collateralVaultTemplate","offset":0,"slot":"106","type":"t_address"},{"astId":82123,"contract":"pkg/contracts/test/helpers/CVStrategyHelpers.sol:CVStrategyHarness","label":"surpressStateMutabilityWarning","offset":0,"slot":"107","type":"t_uint256"},{"astId":82125,"contract":"pkg/contracts/test/helpers/CVStrategyHelpers.sol:CVStrategyHarness","label":"cloneNonce","offset":0,"slot":"108","type":"t_uint256"},{"astId":82127,"contract":"pkg/contracts/test/helpers/CVStrategyHelpers.sol:CVStrategyHarness","label":"disputeCount","offset":0,"slot":"109","type":"t_uint64"},{"astId":82129,"contract":"pkg/contracts/test/helpers/CVStrategyHelpers.sol:CVStrategyHarness","label":"proposalCounter","offset":0,"slot":"110","type":"t_uint256"},{"astId":82131,"contract":"pkg/contracts/test/helpers/CVStrategyHelpers.sol:CVStrategyHarness","label":"currentArbitrableConfigVersion","offset":0,"slot":"111","type":"t_uint256"},{"astId":82133,"contract":"pkg/contracts/test/helpers/CVStrategyHelpers.sol:CVStrategyHarness","label":"totalStaked","offset":0,"slot":"112","type":"t_uint256"},{"astId":82135,"contract":"pkg/contracts/test/helpers/CVStrategyHelpers.sol:CVStrategyHarness","label":"totalPointsActivated","offset":0,"slot":"113","type":"t_uint256"},{"astId":82138,"contract":"pkg/contracts/test/helpers/CVStrategyHelpers.sol:CVStrategyHarness","label":"cvParams","offset":0,"slot":"114","type":"t_struct(CVParams)86847_storage"},{"astId":82141,"contract":"pkg/contracts/test/helpers/CVStrategyHelpers.sol:CVStrategyHarness","label":"proposalType","offset":0,"slot":"118","type":"t_enum(ProposalType)86745"},{"astId":82144,"contract":"pkg/contracts/test/helpers/CVStrategyHelpers.sol:CVStrategyHarness","label":"pointSystem","offset":1,"slot":"118","type":"t_enum(PointSystem)86751"},{"astId":82147,"contract":"pkg/contracts/test/helpers/CVStrategyHelpers.sol:CVStrategyHarness","label":"pointConfig","offset":0,"slot":"119","type":"t_struct(PointSystemConfig)86824_storage"},{"astId":82150,"contract":"pkg/contracts/test/helpers/CVStrategyHelpers.sol:CVStrategyHarness","label":"registryCommunity","offset":0,"slot":"120","type":"t_contract(RegistryCommunity)91754"},{"astId":82153,"contract":"pkg/contracts/test/helpers/CVStrategyHelpers.sol:CVStrategyHarness","label":"collateralVault","offset":0,"slot":"121","type":"t_contract(ICollateralVault)92950"},{"astId":82156,"contract":"pkg/contracts/test/helpers/CVStrategyHelpers.sol:CVStrategyHarness","label":"sybilScorer","offset":0,"slot":"122","type":"t_contract(ISybilScorer)89667"},{"astId":82161,"contract":"pkg/contracts/test/helpers/CVStrategyHelpers.sol:CVStrategyHarness","label":"proposals","offset":0,"slot":"123","type":"t_mapping(t_uint256,t_struct(Proposal)86816_storage)"},{"astId":82165,"contract":"pkg/contracts/test/helpers/CVStrategyHelpers.sol:CVStrategyHarness","label":"totalVoterStakePct","offset":0,"slot":"124","type":"t_mapping(t_address,t_uint256)"},{"astId":82170,"contract":"pkg/contracts/test/helpers/CVStrategyHelpers.sol:CVStrategyHarness","label":"voterStakedProposals","offset":0,"slot":"125","type":"t_mapping(t_address,t_array(t_uint256)dyn_storage)"},{"astId":82174,"contract":"pkg/contracts/test/helpers/CVStrategyHelpers.sol:CVStrategyHarness","label":"disputeIdToProposalId","offset":0,"slot":"126","type":"t_mapping(t_uint256,t_uint256)"},{"astId":82179,"contract":"pkg/contracts/test/helpers/CVStrategyHelpers.sol:CVStrategyHarness","label":"arbitrableConfigs","offset":0,"slot":"127","type":"t_mapping(t_uint256,t_struct(ArbitrableConfig)86838_storage)"},{"astId":82182,"contract":"pkg/contracts/test/helpers/CVStrategyHelpers.sol:CVStrategyHarness","label":"superfluidToken","offset":0,"slot":"128","type":"t_contract(ISuperToken)75749"},{"astId":82185,"contract":"pkg/contracts/test/helpers/CVStrategyHelpers.sol:CVStrategyHarness","label":"superfluidGDA","offset":0,"slot":"129","type":"t_contract(ISuperfluidPool)74577"},{"astId":82187,"contract":"pkg/contracts/test/helpers/CVStrategyHelpers.sol:CVStrategyHarness","label":"streamingRatePerSecond","offset":0,"slot":"130","type":"t_uint256"},{"astId":82190,"contract":"pkg/contracts/test/helpers/CVStrategyHelpers.sol:CVStrategyHarness","label":"votingPowerRegistry","offset":0,"slot":"131","type":"t_contract(IVotingPowerRegistry)93154"},{"astId":82192,"contract":"pkg/contracts/test/helpers/CVStrategyHelpers.sol:CVStrategyHarness","label":"activeProposalCount","offset":0,"slot":"132","type":"t_uint256"},{"astId":82194,"contract":"pkg/contracts/test/helpers/CVStrategyHelpers.sol:CVStrategyHarness","label":"activeProposalCountInitialized","offset":0,"slot":"133","type":"t_bool"},{"astId":82197,"contract":"pkg/contracts/test/helpers/CVStrategyHelpers.sol:CVStrategyHarness","label":"openStreamingProposalIds","offset":0,"slot":"134","type":"t_array(t_uint256)dyn_storage"},{"astId":82201,"contract":"pkg/contracts/test/helpers/CVStrategyHelpers.sol:CVStrategyHarness","label":"openStreamingProposalIndex","offset":0,"slot":"135","type":"t_mapping(t_uint256,t_uint256)"},{"astId":82203,"contract":"pkg/contracts/test/helpers/CVStrategyHelpers.sol:CVStrategyHarness","label":"openStreamingProposalsInitialized","offset":0,"slot":"136","type":"t_bool"},{"astId":82207,"contract":"pkg/contracts/test/helpers/CVStrategyHelpers.sol:CVStrategyHarness","label":"__gap","offset":0,"slot":"137","type":"t_array(t_uint256)41_storage"}],"types":{"t_address":{"encoding":"inplace","label":"address","numberOfBytes":"20"},"t_array(t_uint256)41_storage":{"encoding":"inplace","label":"uint256[41]","numberOfBytes":"1312","base":"t_uint256"},"t_array(t_uint256)49_storage":{"encoding":"inplace","label":"uint256[49]","numberOfBytes":"1568","base":"t_uint256"},"t_array(t_uint256)50_storage":{"encoding":"inplace","label":"uint256[50]","numberOfBytes":"1600","base":"t_uint256"},"t_array(t_uint256)dyn_storage":{"encoding":"dynamic_array","label":"uint256[]","numberOfBytes":"32","base":"t_uint256"},"t_bool":{"encoding":"inplace","label":"bool","numberOfBytes":"1"},"t_bytes32":{"encoding":"inplace","label":"bytes32","numberOfBytes":"32"},"t_contract(IAllo)351":{"encoding":"inplace","label":"contract IAllo","numberOfBytes":"20"},"t_contract(IArbitrator)92917":{"encoding":"inplace","label":"contract IArbitrator","numberOfBytes":"20"},"t_contract(ICollateralVault)92950":{"encoding":"inplace","label":"contract ICollateralVault","numberOfBytes":"20"},"t_contract(ISuperToken)75749":{"encoding":"inplace","label":"contract ISuperToken","numberOfBytes":"20"},"t_contract(ISuperfluidPool)74577":{"encoding":"inplace","label":"contract ISuperfluidPool","numberOfBytes":"20"},"t_contract(ISybilScorer)89667":{"encoding":"inplace","label":"contract ISybilScorer","numberOfBytes":"20"},"t_contract(IVotingPowerRegistry)93154":{"encoding":"inplace","label":"contract IVotingPowerRegistry","numberOfBytes":"20"},"t_contract(RegistryCommunity)91754":{"encoding":"inplace","label":"contract RegistryCommunity","numberOfBytes":"20"},"t_enum(PointSystem)86751":{"encoding":"inplace","label":"enum PointSystem","numberOfBytes":"1"},"t_enum(ProposalStatus)86771":{"encoding":"inplace","label":"enum ProposalStatus","numberOfBytes":"1"},"t_enum(ProposalType)86745":{"encoding":"inplace","label":"enum ProposalType","numberOfBytes":"1"},"t_mapping(t_address,t_array(t_uint256)dyn_storage)":{"encoding":"mapping","key":"t_address","label":"mapping(address => uint256[])","numberOfBytes":"32","value":"t_array(t_uint256)dyn_storage"},"t_mapping(t_address,t_uint256)":{"encoding":"mapping","key":"t_address","label":"mapping(address => uint256)","numberOfBytes":"32","value":"t_uint256"},"t_mapping(t_uint256,t_struct(ArbitrableConfig)86838_storage)":{"encoding":"mapping","key":"t_uint256","label":"mapping(uint256 => struct ArbitrableConfig)","numberOfBytes":"32","value":"t_struct(ArbitrableConfig)86838_storage"},"t_mapping(t_uint256,t_struct(Proposal)86816_storage)":{"encoding":"mapping","key":"t_uint256","label":"mapping(uint256 => struct Proposal)","numberOfBytes":"32","value":"t_struct(Proposal)86816_storage"},"t_mapping(t_uint256,t_uint256)":{"encoding":"mapping","key":"t_uint256","label":"mapping(uint256 => uint256)","numberOfBytes":"32","value":"t_uint256"},"t_string_storage":{"encoding":"bytes","label":"string","numberOfBytes":"32"},"t_struct(ArbitrableConfig)86838_storage":{"encoding":"inplace","label":"struct ArbitrableConfig","numberOfBytes":"192","members":[{"astId":86827,"contract":"pkg/contracts/test/helpers/CVStrategyHelpers.sol:CVStrategyHarness","label":"arbitrator","offset":0,"slot":"0","type":"t_contract(IArbitrator)92917"},{"astId":86829,"contract":"pkg/contracts/test/helpers/CVStrategyHelpers.sol:CVStrategyHarness","label":"tribunalSafe","offset":0,"slot":"1","type":"t_address"},{"astId":86831,"contract":"pkg/contracts/test/helpers/CVStrategyHelpers.sol:CVStrategyHarness","label":"submitterCollateralAmount","offset":0,"slot":"2","type":"t_uint256"},{"astId":86833,"contract":"pkg/contracts/test/helpers/CVStrategyHelpers.sol:CVStrategyHarness","label":"challengerCollateralAmount","offset":0,"slot":"3","type":"t_uint256"},{"astId":86835,"contract":"pkg/contracts/test/helpers/CVStrategyHelpers.sol:CVStrategyHarness","label":"defaultRuling","offset":0,"slot":"4","type":"t_uint256"},{"astId":86837,"contract":"pkg/contracts/test/helpers/CVStrategyHelpers.sol:CVStrategyHarness","label":"defaultRulingTimeout","offset":0,"slot":"5","type":"t_uint256"}]},"t_struct(CVParams)86847_storage":{"encoding":"inplace","label":"struct CVParams","numberOfBytes":"128","members":[{"astId":86840,"contract":"pkg/contracts/test/helpers/CVStrategyHelpers.sol:CVStrategyHarness","label":"maxRatio","offset":0,"slot":"0","type":"t_uint256"},{"astId":86842,"contract":"pkg/contracts/test/helpers/CVStrategyHelpers.sol:CVStrategyHarness","label":"weight","offset":0,"slot":"1","type":"t_uint256"},{"astId":86844,"contract":"pkg/contracts/test/helpers/CVStrategyHelpers.sol:CVStrategyHarness","label":"decay","offset":0,"slot":"2","type":"t_uint256"},{"astId":86846,"contract":"pkg/contracts/test/helpers/CVStrategyHelpers.sol:CVStrategyHarness","label":"minThresholdPoints","offset":0,"slot":"3","type":"t_uint256"}]},"t_struct(Metadata)806_storage":{"encoding":"inplace","label":"struct Metadata","numberOfBytes":"64","members":[{"astId":802,"contract":"pkg/contracts/test/helpers/CVStrategyHelpers.sol:CVStrategyHarness","label":"protocol","offset":0,"slot":"0","type":"t_uint256"},{"astId":805,"contract":"pkg/contracts/test/helpers/CVStrategyHelpers.sol:CVStrategyHarness","label":"pointer","offset":0,"slot":"1","type":"t_string_storage"}]},"t_struct(PointSystemConfig)86824_storage":{"encoding":"inplace","label":"struct PointSystemConfig","numberOfBytes":"32","members":[{"astId":86823,"contract":"pkg/contracts/test/helpers/CVStrategyHelpers.sol:CVStrategyHarness","label":"maxAmount","offset":0,"slot":"0","type":"t_uint256"}]},"t_struct(Proposal)86816_storage":{"encoding":"inplace","label":"struct Proposal","numberOfBytes":"608","members":[{"astId":86780,"contract":"pkg/contracts/test/helpers/CVStrategyHelpers.sol:CVStrategyHarness","label":"proposalId","offset":0,"slot":"0","type":"t_uint256"},{"astId":86782,"contract":"pkg/contracts/test/helpers/CVStrategyHelpers.sol:CVStrategyHarness","label":"requestedAmount","offset":0,"slot":"1","type":"t_uint256"},{"astId":86784,"contract":"pkg/contracts/test/helpers/CVStrategyHelpers.sol:CVStrategyHarness","label":"stakedAmount","offset":0,"slot":"2","type":"t_uint256"},{"astId":86786,"contract":"pkg/contracts/test/helpers/CVStrategyHelpers.sol:CVStrategyHarness","label":"convictionLast","offset":0,"slot":"3","type":"t_uint256"},{"astId":86788,"contract":"pkg/contracts/test/helpers/CVStrategyHelpers.sol:CVStrategyHarness","label":"beneficiary","offset":0,"slot":"4","type":"t_address"},{"astId":86790,"contract":"pkg/contracts/test/helpers/CVStrategyHelpers.sol:CVStrategyHarness","label":"submitter","offset":0,"slot":"5","type":"t_address"},{"astId":86792,"contract":"pkg/contracts/test/helpers/CVStrategyHelpers.sol:CVStrategyHarness","label":"requestedToken","offset":0,"slot":"6","type":"t_address"},{"astId":86794,"contract":"pkg/contracts/test/helpers/CVStrategyHelpers.sol:CVStrategyHarness","label":"blockLast","offset":0,"slot":"7","type":"t_uint256"},{"astId":86797,"contract":"pkg/contracts/test/helpers/CVStrategyHelpers.sol:CVStrategyHarness","label":"proposalStatus","offset":0,"slot":"8","type":"t_enum(ProposalStatus)86771"},{"astId":86801,"contract":"pkg/contracts/test/helpers/CVStrategyHelpers.sol:CVStrategyHarness","label":"voterStakedPoints","offset":0,"slot":"9","type":"t_mapping(t_address,t_uint256)"},{"astId":86804,"contract":"pkg/contracts/test/helpers/CVStrategyHelpers.sol:CVStrategyHarness","label":"metadata","offset":0,"slot":"10","type":"t_struct(Metadata)806_storage"},{"astId":86807,"contract":"pkg/contracts/test/helpers/CVStrategyHelpers.sol:CVStrategyHarness","label":"disputeInfo","offset":0,"slot":"12","type":"t_struct(ProposalDisputeInfo)86778_storage"},{"astId":86809,"contract":"pkg/contracts/test/helpers/CVStrategyHelpers.sol:CVStrategyHarness","label":"lastDisputeCompletion","offset":0,"slot":"15","type":"t_uint256"},{"astId":86811,"contract":"pkg/contracts/test/helpers/CVStrategyHelpers.sol:CVStrategyHarness","label":"arbitrableConfigVersion","offset":0,"slot":"16","type":"t_uint256"},{"astId":86813,"contract":"pkg/contracts/test/helpers/CVStrategyHelpers.sol:CVStrategyHarness","label":"creationTimestamp","offset":0,"slot":"17","type":"t_uint256"},{"astId":86815,"contract":"pkg/contracts/test/helpers/CVStrategyHelpers.sol:CVStrategyHarness","label":"thresholdSnapshot","offset":0,"slot":"18","type":"t_uint256"}]},"t_struct(ProposalDisputeInfo)86778_storage":{"encoding":"inplace","label":"struct ProposalDisputeInfo","numberOfBytes":"96","members":[{"astId":86773,"contract":"pkg/contracts/test/helpers/CVStrategyHelpers.sol:CVStrategyHarness","label":"disputeId","offset":0,"slot":"0","type":"t_uint256"},{"astId":86775,"contract":"pkg/contracts/test/helpers/CVStrategyHelpers.sol:CVStrategyHarness","label":"disputeTimestamp","offset":0,"slot":"1","type":"t_uint256"},{"astId":86777,"contract":"pkg/contracts/test/helpers/CVStrategyHelpers.sol:CVStrategyHarness","label":"challenger","offset":0,"slot":"2","type":"t_address"}]},"t_uint256":{"encoding":"inplace","label":"uint256","numberOfBytes":"32"},"t_uint64":{"encoding":"inplace","label":"uint64","numberOfBytes":"8"},"t_uint8":{"encoding":"inplace","label":"uint8","numberOfBytes":"1"}}},"id":151}