{"abi":[{"type":"function","name":"DISPUTE_COOLDOWN_SEC","inputs":[],"outputs":[{"name":"","type":"uint256","internalType":"uint256"}],"stateMutability":"view"},{"type":"function","name":"RULING_OPTIONS","inputs":[],"outputs":[{"name":"","type":"uint256","internalType":"uint256"}],"stateMutability":"view"},{"type":"function","name":"arbitrableConfigs","inputs":[{"name":"","type":"uint256","internalType":"uint256"}],"outputs":[{"name":"arbitrator","type":"address","internalType":"contract IArbitrator"},{"name":"tribunalSafe","type":"address","internalType":"address"},{"name":"submitterCollateralAmount","type":"uint256","internalType":"uint256"},{"name":"challengerCollateralAmount","type":"uint256","internalType":"uint256"},{"name":"defaultRuling","type":"uint256","internalType":"uint256"},{"name":"defaultRulingTimeout","type":"uint256","internalType":"uint256"}],"stateMutability":"view"},{"type":"function","name":"cloneNonce","inputs":[],"outputs":[{"name":"","type":"uint256","internalType":"uint256"}],"stateMutability":"view"},{"type":"function","name":"collateralVault","inputs":[],"outputs":[{"name":"","type":"address","internalType":"contract ICollateralVault"}],"stateMutability":"view"},{"type":"function","name":"currentArbitrableConfigVersion","inputs":[],"outputs":[{"name":"","type":"uint256","internalType":"uint256"}],"stateMutability":"view"},{"type":"function","name":"cvParams","inputs":[],"outputs":[{"name":"maxRatio","type":"uint256","internalType":"uint256"},{"name":"weight","type":"uint256","internalType":"uint256"},{"name":"decay","type":"uint256","internalType":"uint256"},{"name":"minThresholdPoints","type":"uint256","internalType":"uint256"}],"stateMutability":"view"},{"type":"function","name":"disputeCount","inputs":[],"outputs":[{"name":"","type":"uint64","internalType":"uint64"}],"stateMutability":"view"},{"type":"function","name":"disputeIdToProposalId","inputs":[{"name":"","type":"uint256","internalType":"uint256"}],"outputs":[{"name":"","type":"uint256","internalType":"uint256"}],"stateMutability":"view"},{"type":"function","name":"exposedCalculateAndSetConviction","inputs":[{"name":"proposalId","type":"uint256","internalType":"uint256"},{"name":"oldStaked","type":"uint256","internalType":"uint256"}],"outputs":[],"stateMutability":"nonpayable"},{"type":"function","name":"exposedCanExecuteAction","inputs":[{"name":"user","type":"address","internalType":"address"}],"outputs":[{"name":"","type":"bool","internalType":"bool"}],"stateMutability":"view"},{"type":"function","name":"exposedCheckBlockAndCalculateConviction","inputs":[{"name":"proposalId","type":"uint256","internalType":"uint256"},{"name":"oldStaked","type":"uint256","internalType":"uint256"}],"outputs":[{"name":"conviction","type":"uint256","internalType":"uint256"},{"name":"blockNumber","type":"uint256","internalType":"uint256"}],"stateMutability":"view"},{"type":"function","name":"exposedCheckSenderIsMember","inputs":[{"name":"sender","type":"address","internalType":"address"}],"outputs":[],"stateMutability":"nonpayable"},{"type":"function","name":"exposedEnforceNotPaused","inputs":[{"name":"selector","type":"bytes4","internalType":"bytes4"}],"outputs":[],"stateMutability":"view"},{"type":"function","name":"exposedEnforceSelectorNotPaused","inputs":[{"name":"selector","type":"bytes4","internalType":"bytes4"}],"outputs":[],"stateMutability":"view"},{"type":"function","name":"exposedGetPoolAmount","inputs":[],"outputs":[{"name":"","type":"uint256","internalType":"uint256"}],"stateMutability":"view"},{"type":"function","name":"exposedIsPauseSelector","inputs":[{"name":"selector","type":"bytes4","internalType":"bytes4"}],"outputs":[{"name":"","type":"bool","internalType":"bool"}],"stateMutability":"pure"},{"type":"function","name":"exposedOnlyAllo","inputs":[],"outputs":[],"stateMutability":"nonpayable"},{"type":"function","name":"exposedOnlyCouncilSafe","inputs":[],"outputs":[],"stateMutability":"nonpayable"},{"type":"function","name":"exposedOnlyCouncilSafeOrMember","inputs":[],"outputs":[],"stateMutability":"nonpayable"},{"type":"function","name":"exposedOnlyInitialized","inputs":[],"outputs":[],"stateMutability":"nonpayable"},{"type":"function","name":"exposedOnlyRegistryCommunity","inputs":[],"outputs":[],"stateMutability":"nonpayable"},{"type":"function","name":"exposedProposalExists","inputs":[{"name":"proposalId","type":"uint256","internalType":"uint256"}],"outputs":[{"name":"","type":"bool","internalType":"bool"}],"stateMutability":"view"},{"type":"function","name":"guardedWhenNotPaused","inputs":[],"outputs":[],"stateMutability":"nonpayable"},{"type":"function","name":"guardedWhenSelectorNotPaused","inputs":[{"name":"selector","type":"bytes4","internalType":"bytes4"}],"outputs":[],"stateMutability":"nonpayable"},{"type":"function","name":"pointConfig","inputs":[],"outputs":[{"name":"maxAmount","type":"uint256","internalType":"uint256"}],"stateMutability":"view"},{"type":"function","name":"pointSystem","inputs":[],"outputs":[{"name":"","type":"uint8","internalType":"enum PointSystem"}],"stateMutability":"view"},{"type":"function","name":"proposalCounter","inputs":[],"outputs":[{"name":"","type":"uint256","internalType":"uint256"}],"stateMutability":"view"},{"type":"function","name":"proposalType","inputs":[],"outputs":[{"name":"","type":"uint8","internalType":"enum ProposalType"}],"stateMutability":"view"},{"type":"function","name":"proposals","inputs":[{"name":"","type":"uint256","internalType":"uint256"}],"outputs":[{"name":"proposalId","type":"uint256","internalType":"uint256"},{"name":"requestedAmount","type":"uint256","internalType":"uint256"},{"name":"stakedAmount","type":"uint256","internalType":"uint256"},{"name":"convictionLast","type":"uint256","internalType":"uint256"},{"name":"beneficiary","type":"address","internalType":"address"},{"name":"submitter","type":"address","internalType":"address"},{"name":"requestedToken","type":"address","internalType":"address"},{"name":"blockLast","type":"uint256","internalType":"uint256"},{"name":"proposalStatus","type":"uint8","internalType":"enum ProposalStatus"},{"name":"metadata","type":"tuple","internalType":"struct Metadata","components":[{"name":"protocol","type":"uint256","internalType":"uint256"},{"name":"pointer","type":"string","internalType":"string"}]},{"name":"disputeInfo","type":"tuple","internalType":"struct ProposalDisputeInfo","components":[{"name":"disputeId","type":"uint256","internalType":"uint256"},{"name":"disputeTimestamp","type":"uint256","internalType":"uint256"},{"name":"challenger","type":"address","internalType":"address"}]},{"name":"lastDisputeCompletion","type":"uint256","internalType":"uint256"},{"name":"arbitrableConfigVersion","type":"uint256","internalType":"uint256"},{"name":"creationTimestamp","type":"uint256","internalType":"uint256"}],"stateMutability":"view"},{"type":"function","name":"registryCommunity","inputs":[],"outputs":[{"name":"","type":"address","internalType":"contract RegistryCommunity"}],"stateMutability":"view"},{"type":"function","name":"setAllo","inputs":[{"name":"allo_","type":"address","internalType":"address"}],"outputs":[],"stateMutability":"nonpayable"},{"type":"function","name":"setContractOwner","inputs":[{"name":"owner_","type":"address","internalType":"address"}],"outputs":[],"stateMutability":"nonpayable"},{"type":"function","name":"setCvParams","inputs":[{"name":"params","type":"tuple","internalType":"struct CVParams","components":[{"name":"maxRatio","type":"uint256","internalType":"uint256"},{"name":"weight","type":"uint256","internalType":"uint256"},{"name":"decay","type":"uint256","internalType":"uint256"},{"name":"minThresholdPoints","type":"uint256","internalType":"uint256"}]}],"outputs":[],"stateMutability":"nonpayable"},{"type":"function","name":"setPauseController","inputs":[{"name":"controller","type":"address","internalType":"address"}],"outputs":[],"stateMutability":"nonpayable"},{"type":"function","name":"setPointSystem","inputs":[{"name":"system","type":"uint8","internalType":"enum PointSystem"}],"outputs":[],"stateMutability":"nonpayable"},{"type":"function","name":"setPoolId","inputs":[{"name":"poolId_","type":"uint256","internalType":"uint256"}],"outputs":[],"stateMutability":"nonpayable"},{"type":"function","name":"setProposal","inputs":[{"name":"proposalId","type":"uint256","internalType":"uint256"},{"name":"submitter","type":"address","internalType":"address"},{"name":"blockLast","type":"uint256","internalType":"uint256"},{"name":"convictionLast","type":"uint256","internalType":"uint256"}],"outputs":[],"stateMutability":"nonpayable"},{"type":"function","name":"setRegistryCommunity","inputs":[{"name":"registryCommunity_","type":"address","internalType":"address"}],"outputs":[],"stateMutability":"nonpayable"},{"type":"function","name":"setSuperfluidToken","inputs":[{"name":"token","type":"address","internalType":"address"}],"outputs":[],"stateMutability":"nonpayable"},{"type":"function","name":"setSybilScorer","inputs":[{"name":"sybilScorer_","type":"address","internalType":"address"}],"outputs":[],"stateMutability":"nonpayable"},{"type":"function","name":"setVotingPowerRegistry","inputs":[{"name":"registry","type":"address","internalType":"address"}],"outputs":[],"stateMutability":"nonpayable"},{"type":"function","name":"streamingRatePerSecond","inputs":[],"outputs":[{"name":"","type":"uint256","internalType":"uint256"}],"stateMutability":"view"},{"type":"function","name":"superfluidGDA","inputs":[],"outputs":[{"name":"","type":"address","internalType":"contract ISuperfluidPool"}],"stateMutability":"view"},{"type":"function","name":"superfluidToken","inputs":[],"outputs":[{"name":"","type":"address","internalType":"contract ISuperToken"}],"stateMutability":"view"},{"type":"function","name":"sybilScorer","inputs":[],"outputs":[{"name":"","type":"address","internalType":"contract ISybilScorer"}],"stateMutability":"view"},{"type":"function","name":"totalPointsActivated","inputs":[],"outputs":[{"name":"","type":"uint256","internalType":"uint256"}],"stateMutability":"view"},{"type":"function","name":"totalStaked","inputs":[],"outputs":[{"name":"","type":"uint256","internalType":"uint256"}],"stateMutability":"view"},{"type":"function","name":"totalVoterStakePct","inputs":[{"name":"","type":"address","internalType":"address"}],"outputs":[{"name":"","type":"uint256","internalType":"uint256"}],"stateMutability":"view"},{"type":"function","name":"voterStakedProposals","inputs":[{"name":"","type":"address","internalType":"address"},{"name":"","type":"uint256","internalType":"uint256"}],"outputs":[{"name":"","type":"uint256","internalType":"uint256"}],"stateMutability":"view"},{"type":"function","name":"votingPowerRegistry","inputs":[],"outputs":[{"name":"","type":"address","internalType":"contract IVotingPowerRegistry"}],"stateMutability":"view"},{"type":"event","name":"OwnershipTransferred","inputs":[{"name":"previousOwner","type":"address","indexed":true,"internalType":"address"},{"name":"newOwner","type":"address","indexed":true,"internalType":"address"}],"anonymous":false},{"type":"error","name":"OnlyActiveProposal","inputs":[{"name":"proposalId","type":"uint256","internalType":"uint256"}]},{"type":"error","name":"OnlyAllo","inputs":[{"name":"sender","type":"address","internalType":"address"},{"name":"allo","type":"address","internalType":"address"}]},{"type":"error","name":"OnlyCouncilSafe","inputs":[{"name":"sender","type":"address","internalType":"address"},{"name":"councilSafe","type":"address","internalType":"address"},{"name":"owner","type":"address","internalType":"address"}]},{"type":"error","name":"OnlyCouncilSafeOrMember","inputs":[{"name":"sender","type":"address","internalType":"address"},{"name":"councilSafe","type":"address","internalType":"address"}]},{"type":"error","name":"OnlyInitialized","inputs":[{"name":"poolId","type":"uint256","internalType":"uint256"}]},{"type":"error","name":"OnlyMember","inputs":[{"name":"wallet","type":"address","internalType":"address"},{"name":"community","type":"address","internalType":"address"}]},{"type":"error","name":"OnlyRegistryCommunity","inputs":[{"name":"sender","type":"address","internalType":"address"},{"name":"registry","type":"address","internalType":"address"}]},{"type":"error","name":"OnlySubmitter","inputs":[{"name":"proposalId","type":"uint256","internalType":"uint256"},{"name":"submitter","type":"address","internalType":"address"},{"name":"sender","type":"address","internalType":"address"}]},{"type":"error","name":"ProposalDoesNotExist","inputs":[{"name":"proposalID","type":"uint256","internalType":"uint256"}]},{"type":"error","name":"StrategyPaused","inputs":[{"name":"controller","type":"address","internalType":"address"}]},{"type":"error","name":"StrategySelectorPaused","inputs":[{"name":"selector","type":"bytes4","internalType":"bytes4"},{"name":"controller","type":"address","internalType":"address"}]}],"bytecode":{"object":"0x608060405234801561000f575f80fd5b50611e698061001d5f395ff3fe608060405234801561000f575f80fd5b506004361061024f575f3560e01c8063013cf08b14610253578063058aca441461028957806305caa7f3146102bb578063096d2870146102db5780630bece79c146102ee5780630c0512e914610301578063125fd1d914610318578063170aba0d146103215780631add1a0d146103515780631b36f56f146103645780632506b87014610377578063255ffb381461039d578063263c4064146103bc578063291e51231461040a5780632dbd6fdd1461041d578063339604591461043c578063351d9f96146104455780633c0923301461045f5780633cfc004b1461048f5780633e66188e146104975780633ea6dd9f146104aa57806341bb7605146104cd57806346de35c8146105545780634e899d5f1461056757806352b200501461057a578063530b08a31461058257806356c786991461058a5780635db64b99146105b65780636003e414146105d5578063626c47e8146105e857806373bfa56c146105f057806380fd91cd14610603578063817b1cd21461061657806385c504dd1461061f578063868c57b8146106475780638b83075e1461065a57806391bfd37b1461068a57806394573cbb1461069d578063996a63c8146106a65780639bb8bcec146106b9578063a28889e1146106c1578063a34d42b8146106ec578063a47ff7e5146106ff578063aba9ffee14610709578063ac1ed7b914610712578063ac78012c14610742578063b6c61f3114610755578063dd439bd314610768578063ef3a73f214610770578063f01a809c14610778578063f5be3f7c14610780575b5f80fd5b61026661026136600461172e565b610789565b6040516102809e9d9c9b9a999897969594939291906117ce565b60405180910390f35b6102b9610297366004611895565b607880546001600160a01b0319166001600160a01b0392909216919091179055565b005b6080546102ce906001600160a01b031681565b60405161028091906118b0565b6102b96102e93660046118c4565b6108d9565b6079546102ce906001600160a01b031681565b61030a606e5481565b604051908152602001610280565b61030a606f5481565b6102b961032f366004611895565b608380546001600160a01b0319166001600160a01b0392909216919091179055565b6102b961035f366004611895565b6108f4565b6081546102ce906001600160a01b031681565b60725460735460745460755461038d9392919084565b60405161028094939291906118e4565b61030a6103ab36600461172e565b607e6020525f908152604090205481565b6102b96103ca3660046118ff565b5f848152607b602052604090209384556005840180546001600160a01b0319166001600160a01b0394909416939093179092556007830155600390910155565b6102b9610418366004611895565b61091e565b60765461042f90610100900460ff1681565b6040516102809190611939565b61030a606c5481565b6076546104529060ff1681565b6040516102809190611953565b6102b961046d366004611895565b606580546001600160a01b0319166001600160a01b0392909216919091179055565b6102b961092a565b6102b96104a5366004611967565b610971565b6104bd6104b8366004611967565b61097b565b6040519015158152602001610280565b61051c6104db36600461172e565b607f6020525f90815260409020805460018201546002830154600384015460048501546005909501546001600160a01b039485169593909416939192909186565b604080516001600160a01b039788168152969095166020870152938501929092526060840152608083015260a082015260c001610280565b6102b961056236600461198e565b61098b565b6104bd610575366004611895565b6109b4565b6102b96109be565b61030a6109c6565b6102b9610598366004611a3a565b80516072556020810151607355604081015160745560600151607555565b61030a6105c4366004611895565b607c6020525f908152604090205481565b6078546102ce906001600160a01b031681565b61030a600381565b6102b96105fe366004611967565b6109d4565b6083546102ce906001600160a01b031681565b61030a60705481565b61063261062d3660046118c4565b6109dd565b60408051928352602083019190915201610280565b61030a610655366004611a9d565b610a02565b6102b9610668366004611895565b608080546001600160a01b0319166001600160a01b0392909216919091179055565b6104bd61069836600461172e565b610a2d565b61030a60825481565b6102b96106b4366004611967565b610a37565b6102b9610a40565b606d546106d4906001600160401b031681565b6040516001600160401b039091168152602001610280565b6102b96106fa366004611895565b610a54565b60775461030a9081565b61030a60715481565b6102b9610720366004611895565b607a80546001600160a01b0319166001600160a01b0392909216919091179055565b6102b961075036600461172e565b606855565b607a546102ce906001600160a01b031681565b6102b9610a5d565b6102b9610a99565b6102b9610ac1565b61030a611c2081565b607b60209081525f9182526040918290208054600182015460028301546003840154600485015460058601546006870154600788015460088901548b51808d01909c52600a8a0180548d52600b8b0180549a9d999c989b979a6001600160a01b039788169a968816999790951697939660ff909316959394919284019161080f90611ac7565b80601f016020809104026020016040519081016040528092919081815260200182805461083b90611ac7565b80156108865780601f1061085d57610100808354040283529160200191610886565b820191905f5260205f20905b81548152906001019060200180831161086957829003601f168201915b50505091909252505060408051606081018252600c8501548152600d8501546020820152600e8501546001600160a01b031691810191909152600f8401546010850154601190950154939491939092508e565b5f828152607b602052604090206108f09082610ac9565b5050565b806108fd610b02565b80546001600160a01b0319166001600160a01b039290921691909117905550565b61092781610b26565b50565b6065546001600160a01b0316331461096f57606554604051636ca3252960e01b81526109669133916001600160a01b0390911690600401611aff565b60405180910390fd5b565b806108f081610bc3565b5f61098582610ca2565b92915050565b6076805482919061ff0019166101008360048111156109ac576109ac611745565b021790555050565b5f61098582610daf565b61096f610fcf565b5f6109cf6110f5565b905090565b61092781610bc3565b5f828152607b6020526040812081906109f69084611374565b915091505b9250929050565b607d602052815f5260405f208181548110610a1b575f80fd5b905f5260205f20015f91509150505481565b5f61098582611440565b61092781611477565b61096f5f356001600160e01b031916611477565b61092781611532565b6078546001600160a01b0316331461096f5760785460405163894215cf60e01b81526109669133916001600160a01b0390911690600401611aff565b6068545f0361096f5760685460405163243d58fb60e21b815260040161096691815260200190565b61096f611590565b5f80610ad58484611374565b91509150815f148015610ae6575080155b15610af15750505050565b600784015560039092019190915550565b7f12ec43b97389db0cfbdf8d85f200f1b822123856376a9d75d3a6918f27c903bb90565b60835460405163288c314960e21b81526001600160a01b039091169063a230c52490610b569084906004016118b0565b602060405180830381865afa158015610b71573d5f803e3d5ffd5b505050506040513d601f19601f82011682018060405250810190610b959190611b19565b61092757607854604051636332657560e11b81526109669183916001600160a01b0390911690600401611aff565b610bcc81610ca2565b15610bd45750565b5f610bdd610b02565b546001600160a01b031690508015801590610c6957506040516374b896f160e01b81523060048201526001600160e01b0319831660248201526001600160a01b038216906374b896f190604401602060405180830381865afa158015610c45573d5f803e3d5ffd5b505050506040513d601f19601f82011682018060405250810190610c699190611b19565b156108f05760405163a9774bf960e01b81526001600160e01b0319831660048201526001600160a01b0382166024820152604401610966565b5f6001600160e01b03198216631add1a0d60e01b1480610cd257506001600160e01b0319821663136439dd60e01b145b80610ced57506001600160e01b031982166380c4a65f60e01b145b80610d0857506001600160e01b03198216631fa5d41d60e11b145b80610d2357506001600160e01b0319821663bac1e94b60e01b145b80610d3e57506001600160e01b031982166360b4778960e01b145b80610d5957506001600160e01b031982166358c3de9360e11b145b80610d7457506001600160e01b031982166304db2f3360e11b145b80610d8f57506001600160e01b03198216630da748b160e41b145b8061098557506001600160e01b03198216632d2ebbef60e01b1492915050565b607a545f906001600160a01b031615610e3357607a546040516302154c3d60e51b81526001600160a01b03909116906342a987a090610df49085903090600401611aff565b602060405180830381865afa158015610e0f573d5f803e3d5ffd5b505050506040513d601f19601f820116820180604052508101906109859190611b19565b6004607654610100900460ff166004811115610e5157610e51611745565b148015610e6f57506078546083546001600160a01b03908116911614155b15610ea45760835460405163288c314960e21b81526001600160a01b039091169063a230c52490610df49085906004016118b0565b6068546040516810531313d5d31254d560ba1b602082015260298101919091525f9060490160408051601f19818403018152908290528051602090910120607854632474521560e21b83529092506001600160a01b0316906391d1485490610f129084905f90600401611b38565b602060405180830381865afa158015610f2d573d5f803e3d5ffd5b505050506040513d601f19601f82011682018060405250810190610f519190611b19565b80610fc85750607854604051632474521560e21b81526001600160a01b03909116906391d1485490610f899084908790600401611b38565b602060405180830381865afa158015610fa4573d5f803e3d5ffd5b505050506040513d601f19601f82011682018060405250810190610fc89190611b19565b9392505050565b60785f9054906101000a90046001600160a01b03166001600160a01b0316636c53db9a6040518163ffffffff1660e01b8152600401602060405180830381865afa15801561101f573d5f803e3d5ffd5b505050506040513d601f19601f820116820180604052508101906110439190611b4f565b6001600160a01b0316336001600160a01b03161415801561106a575061106833610daf565b155b1561096f5760785460408051633629edcd60e11b8152905133926001600160a01b031691636c53db9a9160048083019260209291908290030181865afa1580156110b6573d5f803e3d5ffd5b505050506040513d601f19601f820116820180604052508101906110da9190611b4f565b604051637d19bac760e11b8152600401610966929190611aff565b60655460685460405163068bcd8d60e01b81525f9283926001600160a01b039091169163068bcd8d9161112e9160040190815260200190565b5f60405180830381865afa158015611148573d5f803e3d5ffd5b505050506040513d5f823e601f3d908101601f1916820160405261116f9190810190611b6a565b60400151905073eeeeeeeeeeeeeeeeeeeeeeeeeeeeeeeeeeeeeeed196001600160a01b038216016111a1574791505090565b6040516370a0823160e01b81525f906001600160a01b038316906370a08231906111cf9030906004016118b0565b602060405180830381865afa1580156111ea573d5f803e3d5ffd5b505050506040513d601f19601f8201168201806040525081019061120e9190611c9a565b6080549091505f906001600160a01b031615611298576080546040516370a0823160e01b81526001600160a01b03909116906370a08231906112549030906004016118b0565b602060405180830381865afa15801561126f573d5f803e3d5ffd5b505050506040513d601f19601f820116820180604052508101906112939190611c9a565b61129a565b5f5b90505f836001600160a01b031663313ce5676040518163ffffffff1660e01b8152600401602060405180830381865afa1580156112d9573d5f803e3d5ffd5b505050506040513d601f19601f820116820180604052508101906112fd9190611cb1565b905060128160ff16101561133257611316816012611ce5565b61132190600a611dde565b61132b9083611dec565b9150611361565b60128160ff16111561136157611349601282611ce5565b61135490600a611dde565b61135e9083611e0b565b91505b61136b8284611e22565b94505050505090565b5f80439050808460070154111561138d5761138d611e35565b808460070154036113a257505f9050806109fb565b73__$f1b7c69ba751c396eddc93d3bbc5414fd9$__63010dfe648560070154836113cc9190611e49565b60038701546074546040516001600160e01b031960e086901b1681526113f893929189916004016118e4565b602060405180830381865af4158015611413573d5f803e3d5ffd5b505050506040513d601f19601f820116820180604052508101906114379190611c9a565b91509250929050565b5f818152607b6020526040812054158015906109855750505f908152607b60205260409020600501546001600160a01b0316151590565b61148081610ca2565b156114885750565b5f611491610b02565b546001600160a01b0316905080158015906115125750604051635b14f18360e01b81526001600160a01b03821690635b14f183906114d39030906004016118b0565b602060405180830381865afa1580156114ee573d5f803e3d5ffd5b505050506040513d601f19601f820116820180604052508101906115129190611b19565b156108f0578060405163c2897a3760e01b815260040161096691906118b0565b5f61153b6116eb565b6003810180546001600160a01b038581166001600160a01b031983168117909355604051939450169182907f8be0079c531659141344cd1fd0a4f28419497f9722a3daafe3b4186f6b6457e0905f90a3505050565b60785f9054906101000a90046001600160a01b03166001600160a01b0316636c53db9a6040518163ffffffff1660e01b8152600401602060405180830381865afa1580156115e0573d5f803e3d5ffd5b505050506040513d601f19601f820116820180604052508101906116049190611b4f565b6001600160a01b0316336001600160a01b03161415801561163e575061162861170f565b6001600160a01b0316336001600160a01b031614155b1561096f5760785460408051633629edcd60e11b8152905133926001600160a01b031691636c53db9a9160048083019260209291908290030181865afa15801561168a573d5f803e3d5ffd5b505050506040513d601f19601f820116820180604052508101906116ae9190611b4f565b6116b661170f565b60405163e1b9c46960e01b81526001600160a01b03938416600482015291831660248301529091166044820152606401610966565b7fc8fcad8db84d3cc18b4c41d551ea0ee66dd599cde068d998e57d5e09332c131c90565b5f6109cf5f61171c6116eb565b600301546001600160a01b0316919050565b5f6020828403121561173e575f80fd5b5035919050565b634e487b7160e01b5f52602160045260245ffd5b6007811061176957611769611745565b9052565b5f5b8381101561178757818101518382015260200161176f565b50505f910152565b805182525f60208201516040602085015280518060408601526117b981606087016020850161176d565b601f01601f1916939093016060019392505050565b8e8152602081018e9052604081018d9052606081018c90526001600160a01b038b811660808301528a811660a0830152891660c08201525f8860e083015261181a610100830189611759565b61020061012083015261183161020083018861178f565b865161014084015260208701516101608401526040909601516001600160a01b0316610180830152506101a08101939093526101c08301919091526101e0909101529a9950505050505050505050565b6001600160a01b0381168114610927575f80fd5b5f602082840312156118a5575f80fd5b8135610fc881611881565b6001600160a01b0391909116815260200190565b5f80604083850312156118d5575f80fd5b50508035926020909101359150565b93845260208401929092526040830152606082015260800190565b5f805f8060808587031215611912575f80fd5b84359350602085013561192481611881565b93969395505050506040820135916060013590565b602081016005831061194d5761194d611745565b91905290565b602081016003831061194d5761194d611745565b5f60208284031215611977575f80fd5b81356001600160e01b031981168114610fc8575f80fd5b5f6020828403121561199e575f80fd5b813560058110610fc8575f80fd5b634e487b7160e01b5f52604160045260245ffd5b60405160c081016001600160401b03811182821017156119e2576119e26119ac565b60405290565b604080519081016001600160401b03811182821017156119e2576119e26119ac565b604051601f8201601f191681016001600160401b0381118282101715611a3257611a326119ac565b604052919050565b5f60808284031215611a4a575f80fd5b604051608081016001600160401b0381118282101715611a6c57611a6c6119ac565b8060405250823581526020830135602082015260408301356040820152606083013560608201528091505092915050565b5f8060408385031215611aae575f80fd5b8235611ab981611881565b946020939093013593505050565b600181811c90821680611adb57607f821691505b602082108103611af957634e487b7160e01b5f52602260045260245ffd5b50919050565b6001600160a01b0392831681529116602082015260400190565b5f60208284031215611b29575f80fd5b81518015158114610fc8575f80fd5b9182526001600160a01b0316602082015260400190565b5f60208284031215611b5f575f80fd5b8151610fc881611881565b5f6020808385031215611b7b575f80fd5b82516001600160401b0380821115611b91575f80fd5b9084019060c08287031215611ba4575f80fd5b611bac6119c0565b8251815283830151611bbd81611881565b818501526040830151611bcf81611881565b6040820152606083015182811115611be5575f80fd5b830160408189031215611bf6575f80fd5b611bfe6119e8565b815181528582015184811115611c12575f80fd5b80830192505088601f830112611c26575f80fd5b815184811115611c3857611c386119ac565b611c4a601f8201601f19168801611a0a565b94508085528987828501011115611c5f575f80fd5b611c6e8188870189860161176d565b50948501929092526060810193909352506080818101519083015260a090810151908201529392505050565b5f60208284031215611caa575f80fd5b5051919050565b5f60208284031215611cc1575f80fd5b815160ff81168114610fc8575f80fd5b634e487b7160e01b5f52601160045260245ffd5b60ff828116828216039081111561098557610985611cd1565b600181815b80851115611d3857815f1904821115611d1e57611d1e611cd1565b80851615611d2b57918102915b93841c9390800290611d03565b509250929050565b5f82611d4e57506001610985565b81611d5a57505f610985565b8160018114611d705760028114611d7a57611d96565b6001915050610985565b60ff841115611d8b57611d8b611cd1565b50506001821b610985565b5060208310610133831016604e8410600b8410161715611db9575081810a610985565b611dc38383611cfe565b805f1904821115611dd657611dd6611cd1565b029392505050565b5f610fc860ff841683611d40565b5f82611e0657634e487b7160e01b5f52601260045260245ffd5b500490565b808202811582820484141761098557610985611cd1565b8082018082111561098557610985611cd1565b634e487b7160e01b5f52600160045260245ffd5b8181038181111561098557610985611cd156fea164736f6c6343000817000a","linkReferences":{"pkg/contracts/src/CVStrategy/ConvictionsUtils.sol":{"ConvictionsUtils":[{"start":5057,"length":20}]}}},"methodIdentifiers":{"DISPUTE_COOLDOWN_SEC()":"f5be3f7c","RULING_OPTIONS()":"626c47e8","arbitrableConfigs(uint256)":"41bb7605","cloneNonce()":"33960459","collateralVault()":"0bece79c","currentArbitrableConfigVersion()":"125fd1d9","cvParams()":"2506b870","disputeCount()":"a28889e1","disputeIdToProposalId(uint256)":"255ffb38","exposedCalculateAndSetConviction(uint256,uint256)":"096d2870","exposedCanExecuteAction(address)":"4e899d5f","exposedCheckBlockAndCalculateConviction(uint256,uint256)":"85c504dd","exposedCheckSenderIsMember(address)":"291e5123","exposedEnforceNotPaused(bytes4)":"996a63c8","exposedEnforceSelectorNotPaused(bytes4)":"73bfa56c","exposedGetPoolAmount()":"530b08a3","exposedIsPauseSelector(bytes4)":"3ea6dd9f","exposedOnlyAllo()":"3cfc004b","exposedOnlyCouncilSafe()":"f01a809c","exposedOnlyCouncilSafeOrMember()":"52b20050","exposedOnlyInitialized()":"ef3a73f2","exposedOnlyRegistryCommunity()":"dd439bd3","exposedProposalExists(uint256)":"91bfd37b","guardedWhenNotPaused()":"9bb8bcec","guardedWhenSelectorNotPaused(bytes4)":"3e66188e","pointConfig()":"a47ff7e5","pointSystem()":"2dbd6fdd","proposalCounter()":"0c0512e9","proposalType()":"351d9f96","proposals(uint256)":"013cf08b","registryCommunity()":"6003e414","setAllo(address)":"3c092330","setContractOwner(address)":"a34d42b8","setCvParams((uint256,uint256,uint256,uint256))":"56c78699","setPauseController(address)":"1add1a0d","setPointSystem(uint8)":"46de35c8","setPoolId(uint256)":"ac78012c","setProposal(uint256,address,uint256,uint256)":"263c4064","setRegistryCommunity(address)":"058aca44","setSuperfluidToken(address)":"8b83075e","setSybilScorer(address)":"ac1ed7b9","setVotingPowerRegistry(address)":"170aba0d","streamingRatePerSecond()":"94573cbb","superfluidGDA()":"1b36f56f","superfluidToken()":"05caa7f3","sybilScorer()":"b6c61f31","totalPointsActivated()":"aba9ffee","totalStaked()":"817b1cd2","totalVoterStakePct(address)":"5db64b99","voterStakedProposals(address,uint256)":"868c57b8","votingPowerRegistry()":"80fd91cd"},"storageLayout":{"storage":[{"astId":108072,"contract":"pkg/contracts/test/helpers/CVStrategyHelpers.sol:CVStrategyBaseFacetHarness","label":"_initialized","offset":0,"slot":"0","type":"t_uint8"},{"astId":108074,"contract":"pkg/contracts/test/helpers/CVStrategyHelpers.sol:CVStrategyBaseFacetHarness","label":"_initializing","offset":1,"slot":"0","type":"t_bool"},{"astId":108078,"contract":"pkg/contracts/test/helpers/CVStrategyHelpers.sol:CVStrategyBaseFacetHarness","label":"__gap_init","offset":0,"slot":"1","type":"t_array(t_uint256)50_storage"},{"astId":108081,"contract":"pkg/contracts/test/helpers/CVStrategyHelpers.sol:CVStrategyBaseFacetHarness","label":"_owner","offset":0,"slot":"51","type":"t_address"},{"astId":108085,"contract":"pkg/contracts/test/helpers/CVStrategyHelpers.sol:CVStrategyBaseFacetHarness","label":"__gap_ownable","offset":0,"slot":"52","type":"t_array(t_uint256)49_storage"},{"astId":108089,"contract":"pkg/contracts/test/helpers/CVStrategyHelpers.sol:CVStrategyBaseFacetHarness","label":"allo","offset":0,"slot":"101","type":"t_contract(IAllo)2631"},{"astId":108091,"contract":"pkg/contracts/test/helpers/CVStrategyHelpers.sol:CVStrategyBaseFacetHarness","label":"strategyId","offset":0,"slot":"102","type":"t_bytes32"},{"astId":108093,"contract":"pkg/contracts/test/helpers/CVStrategyHelpers.sol:CVStrategyBaseFacetHarness","label":"poolActive","offset":0,"slot":"103","type":"t_bool"},{"astId":108095,"contract":"pkg/contracts/test/helpers/CVStrategyHelpers.sol:CVStrategyBaseFacetHarness","label":"poolId","offset":0,"slot":"104","type":"t_uint256"},{"astId":108097,"contract":"pkg/contracts/test/helpers/CVStrategyHelpers.sol:CVStrategyBaseFacetHarness","label":"poolAmount","offset":0,"slot":"105","type":"t_uint256"},{"astId":108100,"contract":"pkg/contracts/test/helpers/CVStrategyHelpers.sol:CVStrategyBaseFacetHarness","label":"collateralVaultTemplate","offset":0,"slot":"106","type":"t_address"},{"astId":108103,"contract":"pkg/contracts/test/helpers/CVStrategyHelpers.sol:CVStrategyBaseFacetHarness","label":"surpressStateMutabilityWarning","offset":0,"slot":"107","type":"t_uint256"},{"astId":108106,"contract":"pkg/contracts/test/helpers/CVStrategyHelpers.sol:CVStrategyBaseFacetHarness","label":"cloneNonce","offset":0,"slot":"108","type":"t_uint256"},{"astId":108109,"contract":"pkg/contracts/test/helpers/CVStrategyHelpers.sol:CVStrategyBaseFacetHarness","label":"disputeCount","offset":0,"slot":"109","type":"t_uint64"},{"astId":108112,"contract":"pkg/contracts/test/helpers/CVStrategyHelpers.sol:CVStrategyBaseFacetHarness","label":"proposalCounter","offset":0,"slot":"110","type":"t_uint256"},{"astId":108115,"contract":"pkg/contracts/test/helpers/CVStrategyHelpers.sol:CVStrategyBaseFacetHarness","label":"currentArbitrableConfigVersion","offset":0,"slot":"111","type":"t_uint256"},{"astId":108118,"contract":"pkg/contracts/test/helpers/CVStrategyHelpers.sol:CVStrategyBaseFacetHarness","label":"totalStaked","offset":0,"slot":"112","type":"t_uint256"},{"astId":108121,"contract":"pkg/contracts/test/helpers/CVStrategyHelpers.sol:CVStrategyBaseFacetHarness","label":"totalPointsActivated","offset":0,"slot":"113","type":"t_uint256"},{"astId":108125,"contract":"pkg/contracts/test/helpers/CVStrategyHelpers.sol:CVStrategyBaseFacetHarness","label":"cvParams","offset":0,"slot":"114","type":"t_struct(CVParams)109492_storage"},{"astId":108129,"contract":"pkg/contracts/test/helpers/CVStrategyHelpers.sol:CVStrategyBaseFacetHarness","label":"proposalType","offset":0,"slot":"118","type":"t_enum(ProposalType)109392"},{"astId":108133,"contract":"pkg/contracts/test/helpers/CVStrategyHelpers.sol:CVStrategyBaseFacetHarness","label":"pointSystem","offset":1,"slot":"118","type":"t_enum(PointSystem)109398"},{"astId":108137,"contract":"pkg/contracts/test/helpers/CVStrategyHelpers.sol:CVStrategyBaseFacetHarness","label":"pointConfig","offset":0,"slot":"119","type":"t_struct(PointSystemConfig)109469_storage"},{"astId":108141,"contract":"pkg/contracts/test/helpers/CVStrategyHelpers.sol:CVStrategyBaseFacetHarness","label":"registryCommunity","offset":0,"slot":"120","type":"t_contract(RegistryCommunity)118788"},{"astId":108145,"contract":"pkg/contracts/test/helpers/CVStrategyHelpers.sol:CVStrategyBaseFacetHarness","label":"collateralVault","offset":0,"slot":"121","type":"t_contract(ICollateralVault)124527"},{"astId":108149,"contract":"pkg/contracts/test/helpers/CVStrategyHelpers.sol:CVStrategyBaseFacetHarness","label":"sybilScorer","offset":0,"slot":"122","type":"t_contract(ISybilScorer)116219"},{"astId":108155,"contract":"pkg/contracts/test/helpers/CVStrategyHelpers.sol:CVStrategyBaseFacetHarness","label":"proposals","offset":0,"slot":"123","type":"t_mapping(t_uint256,t_struct(Proposal)109461_storage)"},{"astId":108160,"contract":"pkg/contracts/test/helpers/CVStrategyHelpers.sol:CVStrategyBaseFacetHarness","label":"totalVoterStakePct","offset":0,"slot":"124","type":"t_mapping(t_address,t_uint256)"},{"astId":108166,"contract":"pkg/contracts/test/helpers/CVStrategyHelpers.sol:CVStrategyBaseFacetHarness","label":"voterStakedProposals","offset":0,"slot":"125","type":"t_mapping(t_address,t_array(t_uint256)dyn_storage)"},{"astId":108171,"contract":"pkg/contracts/test/helpers/CVStrategyHelpers.sol:CVStrategyBaseFacetHarness","label":"disputeIdToProposalId","offset":0,"slot":"126","type":"t_mapping(t_uint256,t_uint256)"},{"astId":108177,"contract":"pkg/contracts/test/helpers/CVStrategyHelpers.sol:CVStrategyBaseFacetHarness","label":"arbitrableConfigs","offset":0,"slot":"127","type":"t_mapping(t_uint256,t_struct(ArbitrableConfig)109483_storage)"},{"astId":108181,"contract":"pkg/contracts/test/helpers/CVStrategyHelpers.sol:CVStrategyBaseFacetHarness","label":"superfluidToken","offset":0,"slot":"128","type":"t_contract(ISuperToken)80140"},{"astId":108185,"contract":"pkg/contracts/test/helpers/CVStrategyHelpers.sol:CVStrategyBaseFacetHarness","label":"superfluidGDA","offset":0,"slot":"129","type":"t_contract(ISuperfluidPool)78968"},{"astId":108188,"contract":"pkg/contracts/test/helpers/CVStrategyHelpers.sol:CVStrategyBaseFacetHarness","label":"streamingRatePerSecond","offset":0,"slot":"130","type":"t_uint256"},{"astId":108192,"contract":"pkg/contracts/test/helpers/CVStrategyHelpers.sol:CVStrategyBaseFacetHarness","label":"votingPowerRegistry","offset":0,"slot":"131","type":"t_contract(IVotingPowerRegistry)124731"},{"astId":108197,"contract":"pkg/contracts/test/helpers/CVStrategyHelpers.sol:CVStrategyBaseFacetHarness","label":"__gap","offset":0,"slot":"132","type":"t_array(t_uint256)46_storage"}],"types":{"t_address":{"encoding":"inplace","label":"address","numberOfBytes":"20"},"t_array(t_uint256)46_storage":{"encoding":"inplace","label":"uint256[46]","numberOfBytes":"1472","base":"t_uint256"},"t_array(t_uint256)49_storage":{"encoding":"inplace","label":"uint256[49]","numberOfBytes":"1568","base":"t_uint256"},"t_array(t_uint256)50_storage":{"encoding":"inplace","label":"uint256[50]","numberOfBytes":"1600","base":"t_uint256"},"t_array(t_uint256)dyn_storage":{"encoding":"dynamic_array","label":"uint256[]","numberOfBytes":"32","base":"t_uint256"},"t_bool":{"encoding":"inplace","label":"bool","numberOfBytes":"1"},"t_bytes32":{"encoding":"inplace","label":"bytes32","numberOfBytes":"32"},"t_contract(IAllo)2631":{"encoding":"inplace","label":"contract IAllo","numberOfBytes":"20"},"t_contract(IArbitrator)124494":{"encoding":"inplace","label":"contract IArbitrator","numberOfBytes":"20"},"t_contract(ICollateralVault)124527":{"encoding":"inplace","label":"contract ICollateralVault","numberOfBytes":"20"},"t_contract(ISuperToken)80140":{"encoding":"inplace","label":"contract ISuperToken","numberOfBytes":"20"},"t_contract(ISuperfluidPool)78968":{"encoding":"inplace","label":"contract ISuperfluidPool","numberOfBytes":"20"},"t_contract(ISybilScorer)116219":{"encoding":"inplace","label":"contract ISybilScorer","numberOfBytes":"20"},"t_contract(IVotingPowerRegistry)124731":{"encoding":"inplace","label":"contract IVotingPowerRegistry","numberOfBytes":"20"},"t_contract(RegistryCommunity)118788":{"encoding":"inplace","label":"contract RegistryCommunity","numberOfBytes":"20"},"t_enum(PointSystem)109398":{"encoding":"inplace","label":"enum PointSystem","numberOfBytes":"1"},"t_enum(ProposalStatus)109418":{"encoding":"inplace","label":"enum ProposalStatus","numberOfBytes":"1"},"t_enum(ProposalType)109392":{"encoding":"inplace","label":"enum ProposalType","numberOfBytes":"1"},"t_mapping(t_address,t_array(t_uint256)dyn_storage)":{"encoding":"mapping","key":"t_address","label":"mapping(address => uint256[])","numberOfBytes":"32","value":"t_array(t_uint256)dyn_storage"},"t_mapping(t_address,t_uint256)":{"encoding":"mapping","key":"t_address","label":"mapping(address => uint256)","numberOfBytes":"32","value":"t_uint256"},"t_mapping(t_uint256,t_struct(ArbitrableConfig)109483_storage)":{"encoding":"mapping","key":"t_uint256","label":"mapping(uint256 => struct ArbitrableConfig)","numberOfBytes":"32","value":"t_struct(ArbitrableConfig)109483_storage"},"t_mapping(t_uint256,t_struct(Proposal)109461_storage)":{"encoding":"mapping","key":"t_uint256","label":"mapping(uint256 => struct Proposal)","numberOfBytes":"32","value":"t_struct(Proposal)109461_storage"},"t_mapping(t_uint256,t_uint256)":{"encoding":"mapping","key":"t_uint256","label":"mapping(uint256 => uint256)","numberOfBytes":"32","value":"t_uint256"},"t_string_storage":{"encoding":"bytes","label":"string","numberOfBytes":"32"},"t_struct(ArbitrableConfig)109483_storage":{"encoding":"inplace","label":"struct ArbitrableConfig","numberOfBytes":"192","members":[{"astId":109472,"contract":"pkg/contracts/test/helpers/CVStrategyHelpers.sol:CVStrategyBaseFacetHarness","label":"arbitrator","offset":0,"slot":"0","type":"t_contract(IArbitrator)124494"},{"astId":109474,"contract":"pkg/contracts/test/helpers/CVStrategyHelpers.sol:CVStrategyBaseFacetHarness","label":"tribunalSafe","offset":0,"slot":"1","type":"t_address"},{"astId":109476,"contract":"pkg/contracts/test/helpers/CVStrategyHelpers.sol:CVStrategyBaseFacetHarness","label":"submitterCollateralAmount","offset":0,"slot":"2","type":"t_uint256"},{"astId":109478,"contract":"pkg/contracts/test/helpers/CVStrategyHelpers.sol:CVStrategyBaseFacetHarness","label":"challengerCollateralAmount","offset":0,"slot":"3","type":"t_uint256"},{"astId":109480,"contract":"pkg/contracts/test/helpers/CVStrategyHelpers.sol:CVStrategyBaseFacetHarness","label":"defaultRuling","offset":0,"slot":"4","type":"t_uint256"},{"astId":109482,"contract":"pkg/contracts/test/helpers/CVStrategyHelpers.sol:CVStrategyBaseFacetHarness","label":"defaultRulingTimeout","offset":0,"slot":"5","type":"t_uint256"}]},"t_struct(CVParams)109492_storage":{"encoding":"inplace","label":"struct CVParams","numberOfBytes":"128","members":[{"astId":109485,"contract":"pkg/contracts/test/helpers/CVStrategyHelpers.sol:CVStrategyBaseFacetHarness","label":"maxRatio","offset":0,"slot":"0","type":"t_uint256"},{"astId":109487,"contract":"pkg/contracts/test/helpers/CVStrategyHelpers.sol:CVStrategyBaseFacetHarness","label":"weight","offset":0,"slot":"1","type":"t_uint256"},{"astId":109489,"contract":"pkg/contracts/test/helpers/CVStrategyHelpers.sol:CVStrategyBaseFacetHarness","label":"decay","offset":0,"slot":"2","type":"t_uint256"},{"astId":109491,"contract":"pkg/contracts/test/helpers/CVStrategyHelpers.sol:CVStrategyBaseFacetHarness","label":"minThresholdPoints","offset":0,"slot":"3","type":"t_uint256"}]},"t_struct(Metadata)3086_storage":{"encoding":"inplace","label":"struct Metadata","numberOfBytes":"64","members":[{"astId":3082,"contract":"pkg/contracts/test/helpers/CVStrategyHelpers.sol:CVStrategyBaseFacetHarness","label":"protocol","offset":0,"slot":"0","type":"t_uint256"},{"astId":3085,"contract":"pkg/contracts/test/helpers/CVStrategyHelpers.sol:CVStrategyBaseFacetHarness","label":"pointer","offset":0,"slot":"1","type":"t_string_storage"}]},"t_struct(PointSystemConfig)109469_storage":{"encoding":"inplace","label":"struct PointSystemConfig","numberOfBytes":"32","members":[{"astId":109468,"contract":"pkg/contracts/test/helpers/CVStrategyHelpers.sol:CVStrategyBaseFacetHarness","label":"maxAmount","offset":0,"slot":"0","type":"t_uint256"}]},"t_struct(Proposal)109461_storage":{"encoding":"inplace","label":"struct Proposal","numberOfBytes":"576","members":[{"astId":109427,"contract":"pkg/contracts/test/helpers/CVStrategyHelpers.sol:CVStrategyBaseFacetHarness","label":"proposalId","offset":0,"slot":"0","type":"t_uint256"},{"astId":109429,"contract":"pkg/contracts/test/helpers/CVStrategyHelpers.sol:CVStrategyBaseFacetHarness","label":"requestedAmount","offset":0,"slot":"1","type":"t_uint256"},{"astId":109431,"contract":"pkg/contracts/test/helpers/CVStrategyHelpers.sol:CVStrategyBaseFacetHarness","label":"stakedAmount","offset":0,"slot":"2","type":"t_uint256"},{"astId":109433,"contract":"pkg/contracts/test/helpers/CVStrategyHelpers.sol:CVStrategyBaseFacetHarness","label":"convictionLast","offset":0,"slot":"3","type":"t_uint256"},{"astId":109435,"contract":"pkg/contracts/test/helpers/CVStrategyHelpers.sol:CVStrategyBaseFacetHarness","label":"beneficiary","offset":0,"slot":"4","type":"t_address"},{"astId":109437,"contract":"pkg/contracts/test/helpers/CVStrategyHelpers.sol:CVStrategyBaseFacetHarness","label":"submitter","offset":0,"slot":"5","type":"t_address"},{"astId":109439,"contract":"pkg/contracts/test/helpers/CVStrategyHelpers.sol:CVStrategyBaseFacetHarness","label":"requestedToken","offset":0,"slot":"6","type":"t_address"},{"astId":109441,"contract":"pkg/contracts/test/helpers/CVStrategyHelpers.sol:CVStrategyBaseFacetHarness","label":"blockLast","offset":0,"slot":"7","type":"t_uint256"},{"astId":109444,"contract":"pkg/contracts/test/helpers/CVStrategyHelpers.sol:CVStrategyBaseFacetHarness","label":"proposalStatus","offset":0,"slot":"8","type":"t_enum(ProposalStatus)109418"},{"astId":109448,"contract":"pkg/contracts/test/helpers/CVStrategyHelpers.sol:CVStrategyBaseFacetHarness","label":"voterStakedPoints","offset":0,"slot":"9","type":"t_mapping(t_address,t_uint256)"},{"astId":109451,"contract":"pkg/contracts/test/helpers/CVStrategyHelpers.sol:CVStrategyBaseFacetHarness","label":"metadata","offset":0,"slot":"10","type":"t_struct(Metadata)3086_storage"},{"astId":109454,"contract":"pkg/contracts/test/helpers/CVStrategyHelpers.sol:CVStrategyBaseFacetHarness","label":"disputeInfo","offset":0,"slot":"12","type":"t_struct(ProposalDisputeInfo)109425_storage"},{"astId":109456,"contract":"pkg/contracts/test/helpers/CVStrategyHelpers.sol:CVStrategyBaseFacetHarness","label":"lastDisputeCompletion","offset":0,"slot":"15","type":"t_uint256"},{"astId":109458,"contract":"pkg/contracts/test/helpers/CVStrategyHelpers.sol:CVStrategyBaseFacetHarness","label":"arbitrableConfigVersion","offset":0,"slot":"16","type":"t_uint256"},{"astId":109460,"contract":"pkg/contracts/test/helpers/CVStrategyHelpers.sol:CVStrategyBaseFacetHarness","label":"creationTimestamp","offset":0,"slot":"17","type":"t_uint256"}]},"t_struct(ProposalDisputeInfo)109425_storage":{"encoding":"inplace","label":"struct ProposalDisputeInfo","numberOfBytes":"96","members":[{"astId":109420,"contract":"pkg/contracts/test/helpers/CVStrategyHelpers.sol:CVStrategyBaseFacetHarness","label":"disputeId","offset":0,"slot":"0","type":"t_uint256"},{"astId":109422,"contract":"pkg/contracts/test/helpers/CVStrategyHelpers.sol:CVStrategyBaseFacetHarness","label":"disputeTimestamp","offset":0,"slot":"1","type":"t_uint256"},{"astId":109424,"contract":"pkg/contracts/test/helpers/CVStrategyHelpers.sol:CVStrategyBaseFacetHarness","label":"challenger","offset":0,"slot":"2","type":"t_address"}]},"t_uint256":{"encoding":"inplace","label":"uint256","numberOfBytes":"32"},"t_uint64":{"encoding":"inplace","label":"uint64","numberOfBytes":"8"},"t_uint8":{"encoding":"inplace","label":"uint8","numberOfBytes":"1"}}},"id":248}