{"abi":[{"type":"fallback","stateMutability":"payable"},{"type":"receive","stateMutability":"payable"},{"type":"function","name":"DISPUTE_COOLDOWN_SEC","inputs":[],"outputs":[{"name":"","type":"uint256","internalType":"uint256"}],"stateMutability":"view"},{"type":"function","name":"NATIVE","inputs":[],"outputs":[{"name":"","type":"address","internalType":"address"}],"stateMutability":"view"},{"type":"function","name":"RULING_OPTIONS","inputs":[],"outputs":[{"name":"","type":"uint256","internalType":"uint256"}],"stateMutability":"view"},{"type":"function","name":"activatePoints","inputs":[],"outputs":[],"stateMutability":"nonpayable"},{"type":"function","name":"allocate","inputs":[{"name":"","type":"bytes","internalType":"bytes"},{"name":"","type":"address","internalType":"address"}],"outputs":[],"stateMutability":"payable"},{"type":"function","name":"arbitrableConfigs","inputs":[{"name":"","type":"uint256","internalType":"uint256"}],"outputs":[{"name":"arbitrator","type":"address","internalType":"contract IArbitrator"},{"name":"tribunalSafe","type":"address","internalType":"address"},{"name":"submitterCollateralAmount","type":"uint256","internalType":"uint256"},{"name":"challengerCollateralAmount","type":"uint256","internalType":"uint256"},{"name":"defaultRuling","type":"uint256","internalType":"uint256"},{"name":"defaultRulingTimeout","type":"uint256","internalType":"uint256"}],"stateMutability":"view"},{"type":"function","name":"calculateProposalConviction","inputs":[{"name":"_proposalId","type":"uint256","internalType":"uint256"}],"outputs":[{"name":"","type":"uint256","internalType":"uint256"}],"stateMutability":"view"},{"type":"function","name":"calculateThreshold","inputs":[{"name":"_requestedAmount","type":"uint256","internalType":"uint256"}],"outputs":[{"name":"","type":"uint256","internalType":"uint256"}],"stateMutability":"view"},{"type":"function","name":"cancelProposal","inputs":[{"name":"","type":"uint256","internalType":"uint256"}],"outputs":[],"stateMutability":"nonpayable"},{"type":"function","name":"cloneNonce","inputs":[],"outputs":[{"name":"","type":"uint256","internalType":"uint256"}],"stateMutability":"view"},{"type":"function","name":"collateralVault","inputs":[],"outputs":[{"name":"","type":"address","internalType":"contract ICollateralVault"}],"stateMutability":"view"},{"type":"function","name":"connectSuperfluidGDA","inputs":[{"name":"","type":"address","internalType":"address"}],"outputs":[],"stateMutability":"nonpayable"},{"type":"function","name":"currentArbitrableConfigVersion","inputs":[],"outputs":[{"name":"","type":"uint256","internalType":"uint256"}],"stateMutability":"view"},{"type":"function","name":"cvParams","inputs":[],"outputs":[{"name":"maxRatio","type":"uint256","internalType":"uint256"},{"name":"weight","type":"uint256","internalType":"uint256"},{"name":"decay","type":"uint256","internalType":"uint256"},{"name":"minThresholdPoints","type":"uint256","internalType":"uint256"}],"stateMutability":"view"},{"type":"function","name":"deactivatePoints","inputs":[],"outputs":[],"stateMutability":"nonpayable"},{"type":"function","name":"deactivatePoints","inputs":[{"name":"","type":"address","internalType":"address"}],"outputs":[],"stateMutability":"nonpayable"},{"type":"function","name":"decreasePower","inputs":[{"name":"","type":"address","internalType":"address"},{"name":"","type":"uint256","internalType":"uint256"}],"outputs":[{"name":"","type":"uint256","internalType":"uint256"}],"stateMutability":"nonpayable"},{"type":"function","name":"diamondCut","inputs":[{"name":"_diamondCut","type":"tuple[]","internalType":"struct IDiamond.FacetCut[]","components":[{"name":"facetAddress","type":"address","internalType":"address"},{"name":"action","type":"uint8","internalType":"enum IDiamond.FacetCutAction"},{"name":"functionSelectors","type":"bytes4[]","internalType":"bytes4[]"}]},{"name":"_init","type":"address","internalType":"address"},{"name":"_calldata","type":"bytes","internalType":"bytes"}],"outputs":[],"stateMutability":"nonpayable"},{"type":"function","name":"disconnectSuperfluidGDA","inputs":[{"name":"","type":"address","internalType":"address"}],"outputs":[],"stateMutability":"nonpayable"},{"type":"function","name":"disputeCount","inputs":[],"outputs":[{"name":"","type":"uint64","internalType":"uint64"}],"stateMutability":"view"},{"type":"function","name":"disputeIdToProposalId","inputs":[{"name":"","type":"uint256","internalType":"uint256"}],"outputs":[{"name":"","type":"uint256","internalType":"uint256"}],"stateMutability":"view"},{"type":"function","name":"disputeProposal","inputs":[{"name":"proposalId","type":"uint256","internalType":"uint256"},{"name":"context","type":"string","internalType":"string"},{"name":"_extraData","type":"bytes","internalType":"bytes"}],"outputs":[{"name":"","type":"uint256","internalType":"uint256"}],"stateMutability":"payable"},{"type":"function","name":"distribute","inputs":[{"name":"","type":"address[]","internalType":"address[]"},{"name":"","type":"bytes","internalType":"bytes"},{"name":"","type":"address","internalType":"address"}],"outputs":[],"stateMutability":"nonpayable"},{"type":"function","name":"editProposal","inputs":[{"name":"","type":"uint256","internalType":"uint256"},{"name":"","type":"tuple","internalType":"struct Metadata","components":[{"name":"protocol","type":"uint256","internalType":"uint256"},{"name":"pointer","type":"string","internalType":"string"}]},{"name":"","type":"address","internalType":"address"},{"name":"","type":"uint256","internalType":"uint256"}],"outputs":[],"stateMutability":"nonpayable"},{"type":"function","name":"exposedApplyDelta","inputs":[{"name":"support","type":"uint256","internalType":"uint256"},{"name":"delta","type":"int256","internalType":"int256"}],"outputs":[{"name":"","type":"uint256","internalType":"uint256"}],"stateMutability":"pure"},{"type":"function","name":"exposedCalculateAndSetConviction","inputs":[{"name":"proposalId","type":"uint256","internalType":"uint256"},{"name":"oldStaked","type":"uint256","internalType":"uint256"}],"outputs":[],"stateMutability":"nonpayable"},{"type":"function","name":"exposedCanExecuteAction","inputs":[{"name":"user","type":"address","internalType":"address"}],"outputs":[{"name":"","type":"bool","internalType":"bool"}],"stateMutability":"view"},{"type":"function","name":"exposedCheckBlockAndCalculateConviction","inputs":[{"name":"proposalId","type":"uint256","internalType":"uint256"},{"name":"oldStaked","type":"uint256","internalType":"uint256"}],"outputs":[{"name":"conviction","type":"uint256","internalType":"uint256"},{"name":"blockNumber","type":"uint256","internalType":"uint256"}],"stateMutability":"view"},{"type":"function","name":"exposedCheckProposalAllocationValidity","inputs":[{"name":"proposalId","type":"uint256","internalType":"uint256"},{"name":"deltaSupport","type":"int256","internalType":"int256"}],"outputs":[],"stateMutability":"view"},{"type":"function","name":"exposedCheckSenderIsMember","inputs":[{"name":"sender","type":"address","internalType":"address"}],"outputs":[],"stateMutability":"nonpayable"},{"type":"function","name":"exposedIsOverMaxRatio","inputs":[{"name":"requestedAmount","type":"uint256","internalType":"uint256"}],"outputs":[{"name":"","type":"bool","internalType":"bool"}],"stateMutability":"view"},{"type":"function","name":"exposedOnlyCouncilSafe","inputs":[],"outputs":[],"stateMutability":"view"},{"type":"function","name":"exposedOnlyCouncilSafeOrMember","inputs":[],"outputs":[],"stateMutability":"view"},{"type":"function","name":"exposedOnlyRegistryCommunity","inputs":[],"outputs":[],"stateMutability":"view"},{"type":"function","name":"exposedProposalExists","inputs":[{"name":"proposalId","type":"uint256","internalType":"uint256"}],"outputs":[{"name":"","type":"bool","internalType":"bool"}],"stateMutability":"view"},{"type":"function","name":"getAllo","inputs":[],"outputs":[{"name":"","type":"address","internalType":"contract IAllo"}],"stateMutability":"view"},{"type":"function","name":"getArbitrableConfig","inputs":[],"outputs":[{"name":"arbitrator","type":"address","internalType":"contract IArbitrator"},{"name":"tribunalSafe","type":"address","internalType":"address"},{"name":"submitterCollateralAmount","type":"uint256","internalType":"uint256"},{"name":"challengerCollateralAmount","type":"uint256","internalType":"uint256"},{"name":"defaultRuling","type":"uint256","internalType":"uint256"},{"name":"defaultRulingTimeout","type":"uint256","internalType":"uint256"}],"stateMutability":"view"},{"type":"function","name":"getFacets","inputs":[],"outputs":[{"name":"facets_","type":"tuple[]","internalType":"struct IDiamondLoupe.Facet[]","components":[{"name":"facetAddress","type":"address","internalType":"address"},{"name":"functionSelectors","type":"bytes4[]","internalType":"bytes4[]"}]}],"stateMutability":"view"},{"type":"function","name":"getMaxAmount","inputs":[],"outputs":[{"name":"","type":"uint256","internalType":"uint256"}],"stateMutability":"view"},{"type":"function","name":"getPointSystem","inputs":[],"outputs":[{"name":"","type":"uint8","internalType":"enum PointSystem"}],"stateMutability":"view"},{"type":"function","name":"getPoolAmount","inputs":[],"outputs":[{"name":"","type":"uint256","internalType":"uint256"}],"stateMutability":"view"},{"type":"function","name":"getPoolId","inputs":[],"outputs":[{"name":"","type":"uint256","internalType":"uint256"}],"stateMutability":"view"},{"type":"function","name":"getProposal","inputs":[{"name":"_proposalId","type":"uint256","internalType":"uint256"}],"outputs":[{"name":"submitter","type":"address","internalType":"address"},{"name":"beneficiary","type":"address","internalType":"address"},{"name":"requestedToken","type":"address","internalType":"address"},{"name":"requestedAmount","type":"uint256","internalType":"uint256"},{"name":"stakedAmount","type":"uint256","internalType":"uint256"},{"name":"proposalStatus","type":"uint8","internalType":"enum ProposalStatus"},{"name":"blockLast","type":"uint256","internalType":"uint256"},{"name":"convictionLast","type":"uint256","internalType":"uint256"},{"name":"threshold","type":"uint256","internalType":"uint256"},{"name":"voterStakedPoints","type":"uint256","internalType":"uint256"},{"name":"arbitrableConfigVersion","type":"uint256","internalType":"uint256"},{"name":"protocol","type":"uint256","internalType":"uint256"}],"stateMutability":"view"},{"type":"function","name":"getProposalMetadataPointer","inputs":[{"name":"_proposalId","type":"uint256","internalType":"uint256"}],"outputs":[{"name":"","type":"string","internalType":"string"}],"stateMutability":"view"},{"type":"function","name":"getProposalStakedAmount","inputs":[{"name":"_proposalId","type":"uint256","internalType":"uint256"}],"outputs":[{"name":"","type":"uint256","internalType":"uint256"}],"stateMutability":"view"},{"type":"function","name":"getProposalThreshold","inputs":[{"name":"proposalId","type":"uint256","internalType":"uint256"}],"outputs":[{"name":"","type":"uint256","internalType":"uint256"}],"stateMutability":"view"},{"type":"function","name":"getProposalVoterStake","inputs":[{"name":"_proposalId","type":"uint256","internalType":"uint256"},{"name":"_voter","type":"address","internalType":"address"}],"outputs":[{"name":"","type":"uint256","internalType":"uint256"}],"stateMutability":"view"},{"type":"function","name":"increasePower","inputs":[{"name":"","type":"address","internalType":"address"},{"name":"","type":"uint256","internalType":"uint256"}],"outputs":[{"name":"","type":"uint256","internalType":"uint256"}],"stateMutability":"nonpayable"},{"type":"function","name":"init","inputs":[{"name":"_allo","type":"address","internalType":"address"},{"name":"_collateralVaultTemplate","type":"address","internalType":"address"},{"name":"_owner","type":"address","internalType":"address"}],"outputs":[],"stateMutability":"nonpayable"},{"type":"function","name":"init","inputs":[{"name":"_allo","type":"address","internalType":"address"},{"name":"_name","type":"string","internalType":"string"},{"name":"_owner","type":"address","internalType":"address"}],"outputs":[],"stateMutability":"nonpayable"},{"type":"function","name":"initialize","inputs":[{"name":"initialOwner","type":"address","internalType":"address"}],"outputs":[],"stateMutability":"nonpayable"},{"type":"function","name":"initialize","inputs":[{"name":"_poolId","type":"uint256","internalType":"uint256"},{"name":"_data","type":"bytes","internalType":"bytes"}],"outputs":[],"stateMutability":"nonpayable"},{"type":"function","name":"isPaused","inputs":[{"name":"","type":"bytes4","internalType":"bytes4"}],"outputs":[{"name":"","type":"bool","internalType":"bool"}],"stateMutability":"nonpayable"},{"type":"function","name":"isPaused","inputs":[],"outputs":[{"name":"","type":"bool","internalType":"bool"}],"stateMutability":"nonpayable"},{"type":"function","name":"isPoolActive","inputs":[],"outputs":[{"name":"","type":"bool","internalType":"bool"}],"stateMutability":"view"},{"type":"function","name":"lastRebalanceAt","inputs":[],"outputs":[{"name":"","type":"uint256","internalType":"uint256"}],"stateMutability":"view"},{"type":"function","name":"owner","inputs":[],"outputs":[{"name":"","type":"address","internalType":"address"}],"stateMutability":"view"},{"type":"function","name":"pause","inputs":[{"name":"","type":"uint256","internalType":"uint256"}],"outputs":[],"stateMutability":"nonpayable"},{"type":"function","name":"pause","inputs":[{"name":"","type":"bytes4","internalType":"bytes4"},{"name":"","type":"uint256","internalType":"uint256"}],"outputs":[],"stateMutability":"nonpayable"},{"type":"function","name":"pauseController","inputs":[],"outputs":[{"name":"","type":"address","internalType":"address"}],"stateMutability":"nonpayable"},{"type":"function","name":"pauseFacet","inputs":[],"outputs":[{"name":"","type":"address","internalType":"address"}],"stateMutability":"nonpayable"},{"type":"function","name":"pausedSelectorUntil","inputs":[{"name":"","type":"bytes4","internalType":"bytes4"}],"outputs":[{"name":"","type":"uint256","internalType":"uint256"}],"stateMutability":"nonpayable"},{"type":"function","name":"pausedUntil","inputs":[],"outputs":[{"name":"","type":"uint256","internalType":"uint256"}],"stateMutability":"nonpayable"},{"type":"function","name":"pointConfig","inputs":[],"outputs":[{"name":"maxAmount","type":"uint256","internalType":"uint256"}],"stateMutability":"view"},{"type":"function","name":"pointSystem","inputs":[],"outputs":[{"name":"","type":"uint8","internalType":"enum PointSystem"}],"stateMutability":"view"},{"type":"function","name":"proposalCounter","inputs":[],"outputs":[{"name":"","type":"uint256","internalType":"uint256"}],"stateMutability":"view"},{"type":"function","name":"proposalType","inputs":[],"outputs":[{"name":"","type":"uint8","internalType":"enum ProposalType"}],"stateMutability":"view"},{"type":"function","name":"proxiableUUID","inputs":[],"outputs":[{"name":"","type":"bytes32","internalType":"bytes32"}],"stateMutability":"view"},{"type":"function","name":"proxyOwner","inputs":[],"outputs":[{"name":"","type":"address","internalType":"address"}],"stateMutability":"view"},{"type":"function","name":"rebalance","inputs":[],"outputs":[],"stateMutability":"nonpayable"},{"type":"function","name":"rebalanceCooldown","inputs":[],"outputs":[{"name":"","type":"uint256","internalType":"uint256"}],"stateMutability":"view"},{"type":"function","name":"registerRecipient","inputs":[{"name":"","type":"bytes","internalType":"bytes"},{"name":"","type":"address","internalType":"address"}],"outputs":[{"name":"","type":"address","internalType":"address"}],"stateMutability":"payable"},{"type":"function","name":"registryCommunity","inputs":[],"outputs":[{"name":"","type":"address","internalType":"contract RegistryCommunity"}],"stateMutability":"view"},{"type":"function","name":"renounceOwnership","inputs":[],"outputs":[],"stateMutability":"nonpayable"},{"type":"function","name":"rule","inputs":[{"name":"","type":"uint256","internalType":"uint256"},{"name":"","type":"uint256","internalType":"uint256"}],"outputs":[],"stateMutability":"nonpayable"},{"type":"function","name":"setAllo","inputs":[{"name":"allo_","type":"address","internalType":"address"}],"outputs":[],"stateMutability":"nonpayable"},{"type":"function","name":"setArbitrableConfig","inputs":[{"name":"version","type":"uint256","internalType":"uint256"},{"name":"config","type":"tuple","internalType":"struct ArbitrableConfig","components":[{"name":"arbitrator","type":"address","internalType":"contract IArbitrator"},{"name":"tribunalSafe","type":"address","internalType":"address"},{"name":"submitterCollateralAmount","type":"uint256","internalType":"uint256"},{"name":"challengerCollateralAmount","type":"uint256","internalType":"uint256"},{"name":"defaultRuling","type":"uint256","internalType":"uint256"},{"name":"defaultRulingTimeout","type":"uint256","internalType":"uint256"}]}],"outputs":[],"stateMutability":"nonpayable"},{"type":"function","name":"setCollateralVaultTemplate","inputs":[{"name":"template","type":"address","internalType":"address"}],"outputs":[],"stateMutability":"nonpayable"},{"type":"function","name":"setCollateralVaultTemplateRaw","inputs":[{"name":"template","type":"address","internalType":"address"}],"outputs":[],"stateMutability":"nonpayable"},{"type":"function","name":"setCvParams","inputs":[{"name":"params","type":"tuple","internalType":"struct CVParams","components":[{"name":"maxRatio","type":"uint256","internalType":"uint256"},{"name":"weight","type":"uint256","internalType":"uint256"},{"name":"decay","type":"uint256","internalType":"uint256"},{"name":"minThresholdPoints","type":"uint256","internalType":"uint256"}]}],"outputs":[],"stateMutability":"nonpayable"},{"type":"function","name":"setPauseController","inputs":[{"name":"","type":"address","internalType":"address"}],"outputs":[],"stateMutability":"nonpayable"},{"type":"function","name":"setPauseFacet","inputs":[{"name":"","type":"address","internalType":"address"}],"outputs":[],"stateMutability":"nonpayable"},{"type":"function","name":"setPointConfig","inputs":[{"name":"maxAmount","type":"uint256","internalType":"uint256"}],"outputs":[],"stateMutability":"nonpayable"},{"type":"function","name":"setPointSystem","inputs":[{"name":"system","type":"uint8","internalType":"enum PointSystem"}],"outputs":[],"stateMutability":"nonpayable"},{"type":"function","name":"setPoolActive","inputs":[{"name":"_active","type":"bool","internalType":"bool"}],"outputs":[],"stateMutability":"nonpayable"},{"type":"function","name":"setPoolId","inputs":[{"name":"poolId_","type":"uint256","internalType":"uint256"}],"outputs":[],"stateMutability":"nonpayable"},{"type":"function","name":"setPoolParams","inputs":[{"name":"","type":"tuple","internalType":"struct ArbitrableConfig","components":[{"name":"arbitrator","type":"address","internalType":"contract IArbitrator"},{"name":"tribunalSafe","type":"address","internalType":"address"},{"name":"submitterCollateralAmount","type":"uint256","internalType":"uint256"},{"name":"challengerCollateralAmount","type":"uint256","internalType":"uint256"},{"name":"defaultRuling","type":"uint256","internalType":"uint256"},{"name":"defaultRulingTimeout","type":"uint256","internalType":"uint256"}]},{"name":"","type":"tuple","internalType":"struct CVParams","components":[{"name":"maxRatio","type":"uint256","internalType":"uint256"},{"name":"weight","type":"uint256","internalType":"uint256"},{"name":"decay","type":"uint256","internalType":"uint256"},{"name":"minThresholdPoints","type":"uint256","internalType":"uint256"}]},{"name":"","type":"uint256","internalType":"uint256"},{"name":"","type":"address[]","internalType":"address[]"},{"name":"","type":"address[]","internalType":"address[]"},{"name":"","type":"address","internalType":"address"},{"name":"","type":"uint256","internalType":"uint256"}],"outputs":[],"stateMutability":"nonpayable"},{"type":"function","name":"setPoolParams","inputs":[{"name":"","type":"tuple","internalType":"struct ArbitrableConfig","components":[{"name":"arbitrator","type":"address","internalType":"contract IArbitrator"},{"name":"tribunalSafe","type":"address","internalType":"address"},{"name":"submitterCollateralAmount","type":"uint256","internalType":"uint256"},{"name":"challengerCollateralAmount","type":"uint256","internalType":"uint256"},{"name":"defaultRuling","type":"uint256","internalType":"uint256"},{"name":"defaultRulingTimeout","type":"uint256","internalType":"uint256"}]},{"name":"","type":"tuple","internalType":"struct CVParams","components":[{"name":"maxRatio","type":"uint256","internalType":"uint256"},{"name":"weight","type":"uint256","internalType":"uint256"},{"name":"decay","type":"uint256","internalType":"uint256"},{"name":"minThresholdPoints","type":"uint256","internalType":"uint256"}]},{"name":"","type":"uint256","internalType":"uint256"},{"name":"","type":"address[]","internalType":"address[]"},{"name":"","type":"address[]","internalType":"address[]"},{"name":"","type":"address","internalType":"address"}],"outputs":[],"stateMutability":"nonpayable"},{"type":"function","name":"setProposal","inputs":[{"name":"proposalId","type":"uint256","internalType":"uint256"},{"name":"submitter","type":"address","internalType":"address"},{"name":"requestedAmount","type":"uint256","internalType":"uint256"},{"name":"status","type":"uint8","internalType":"enum ProposalStatus"},{"name":"blockLast","type":"uint256","internalType":"uint256"},{"name":"convictionLast","type":"uint256","internalType":"uint256"}],"outputs":[],"stateMutability":"nonpayable"},{"type":"function","name":"setProposalStakedAmount","inputs":[{"name":"proposalId","type":"uint256","internalType":"uint256"},{"name":"amount","type":"uint256","internalType":"uint256"}],"outputs":[],"stateMutability":"nonpayable"},{"type":"function","name":"setProposalVoterStake","inputs":[{"name":"proposalId","type":"uint256","internalType":"uint256"},{"name":"voter","type":"address","internalType":"address"},{"name":"amount","type":"uint256","internalType":"uint256"}],"outputs":[],"stateMutability":"nonpayable"},{"type":"function","name":"setRegistryCommunity","inputs":[{"name":"registryCommunity_","type":"address","internalType":"address"}],"outputs":[],"stateMutability":"nonpayable"},{"type":"function","name":"setSuperfluidToken","inputs":[{"name":"token","type":"address","internalType":"address"}],"outputs":[],"stateMutability":"nonpayable"},{"type":"function","name":"setSybilScorer","inputs":[{"name":"_sybilScorer","type":"address","internalType":"address"},{"name":"threshold","type":"uint256","internalType":"uint256"}],"outputs":[],"stateMutability":"nonpayable"},{"type":"function","name":"setSybilScorer","inputs":[{"name":"sybilScorer_","type":"address","internalType":"address"}],"outputs":[],"stateMutability":"nonpayable"},{"type":"function","name":"setTotalPointsActivated","inputs":[{"name":"amount","type":"uint256","internalType":"uint256"}],"outputs":[],"stateMutability":"nonpayable"},{"type":"function","name":"setVotingPowerRegistry","inputs":[{"name":"registry","type":"address","internalType":"address"}],"outputs":[],"stateMutability":"nonpayable"},{"type":"function","name":"streamingEscrow","inputs":[{"name":"proposalId","type":"uint256","internalType":"uint256"}],"outputs":[{"name":"","type":"address","internalType":"address"}],"stateMutability":"view"},{"type":"function","name":"streamingRatePerSecond","inputs":[],"outputs":[{"name":"","type":"uint256","internalType":"uint256"}],"stateMutability":"view"},{"type":"function","name":"superfluidGDA","inputs":[],"outputs":[{"name":"","type":"address","internalType":"contract ISuperfluidPool"}],"stateMutability":"view"},{"type":"function","name":"superfluidToken","inputs":[],"outputs":[{"name":"","type":"address","internalType":"contract ISuperToken"}],"stateMutability":"view"},{"type":"function","name":"supportsInterface","inputs":[{"name":"interfaceId","type":"bytes4","internalType":"bytes4"}],"outputs":[{"name":"","type":"bool","internalType":"bool"}],"stateMutability":"view"},{"type":"function","name":"sybilScorer","inputs":[],"outputs":[{"name":"","type":"address","internalType":"contract ISybilScorer"}],"stateMutability":"view"},{"type":"function","name":"totalPointsActivated","inputs":[],"outputs":[{"name":"","type":"uint256","internalType":"uint256"}],"stateMutability":"view"},{"type":"function","name":"totalStaked","inputs":[],"outputs":[{"name":"","type":"uint256","internalType":"uint256"}],"stateMutability":"view"},{"type":"function","name":"totalVoterStakePct","inputs":[{"name":"","type":"address","internalType":"address"}],"outputs":[{"name":"","type":"uint256","internalType":"uint256"}],"stateMutability":"view"},{"type":"function","name":"transferOwnership","inputs":[{"name":"newOwner","type":"address","internalType":"address"}],"outputs":[],"stateMutability":"nonpayable"},{"type":"function","name":"unpause","inputs":[],"outputs":[],"stateMutability":"nonpayable"},{"type":"function","name":"unpause","inputs":[{"name":"","type":"bytes4","internalType":"bytes4"}],"outputs":[],"stateMutability":"nonpayable"},{"type":"function","name":"updateProposalConviction","inputs":[{"name":"proposalId","type":"uint256","internalType":"uint256"}],"outputs":[{"name":"","type":"uint256","internalType":"uint256"}],"stateMutability":"nonpayable"},{"type":"function","name":"upgradeTo","inputs":[{"name":"newImplementation","type":"address","internalType":"address"}],"outputs":[],"stateMutability":"nonpayable"},{"type":"function","name":"upgradeToAndCall","inputs":[{"name":"newImplementation","type":"address","internalType":"address"},{"name":"data","type":"bytes","internalType":"bytes"}],"outputs":[],"stateMutability":"payable"},{"type":"function","name":"voterStakedProposals","inputs":[{"name":"","type":"address","internalType":"address"},{"name":"","type":"uint256","internalType":"uint256"}],"outputs":[{"name":"","type":"uint256","internalType":"uint256"}],"stateMutability":"view"},{"type":"function","name":"votingPowerRegistry","inputs":[],"outputs":[{"name":"","type":"address","internalType":"contract IVotingPowerRegistry"}],"stateMutability":"view"},{"type":"event","name":"AdminChanged","inputs":[{"name":"previousAdmin","type":"address","indexed":false,"internalType":"address"},{"name":"newAdmin","type":"address","indexed":false,"internalType":"address"}],"anonymous":false},{"type":"event","name":"Allocated","inputs":[{"name":"recipientId","type":"address","indexed":true,"internalType":"address"},{"name":"amount","type":"uint256","indexed":false,"internalType":"uint256"},{"name":"token","type":"address","indexed":false,"internalType":"address"},{"name":"sender","type":"address","indexed":false,"internalType":"address"}],"anonymous":false},{"type":"event","name":"AllowlistMembersAdded","inputs":[{"name":"poolId","type":"uint256","indexed":false,"internalType":"uint256"},{"name":"members","type":"address[]","indexed":false,"internalType":"address[]"}],"anonymous":false},{"type":"event","name":"AllowlistMembersRemoved","inputs":[{"name":"poolId","type":"uint256","indexed":false,"internalType":"uint256"},{"name":"members","type":"address[]","indexed":false,"internalType":"address[]"}],"anonymous":false},{"type":"event","name":"ArbitrableConfigUpdated","inputs":[{"name":"currentArbitrableConfigVersion","type":"uint256","indexed":false,"internalType":"uint256"},{"name":"arbitrator","type":"address","indexed":false,"internalType":"contract IArbitrator"},{"name":"tribunalSafe","type":"address","indexed":false,"internalType":"address"},{"name":"submitterCollateralAmount","type":"uint256","indexed":false,"internalType":"uint256"},{"name":"challengerCollateralAmount","type":"uint256","indexed":false,"internalType":"uint256"},{"name":"defaultRuling","type":"uint256","indexed":false,"internalType":"uint256"},{"name":"defaultRulingTimeout","type":"uint256","indexed":false,"internalType":"uint256"}],"anonymous":false},{"type":"event","name":"BeaconUpgraded","inputs":[{"name":"beacon","type":"address","indexed":true,"internalType":"address"}],"anonymous":false},{"type":"event","name":"CVParamsUpdated","inputs":[{"name":"cvParams","type":"tuple","indexed":false,"internalType":"struct CVParams","components":[{"name":"maxRatio","type":"uint256","internalType":"uint256"},{"name":"weight","type":"uint256","internalType":"uint256"},{"name":"decay","type":"uint256","internalType":"uint256"},{"name":"minThresholdPoints","type":"uint256","internalType":"uint256"}]}],"anonymous":false},{"type":"event","name":"DiamondCut","inputs":[{"name":"_diamondCut","type":"tuple[]","indexed":false,"internalType":"struct IDiamond.FacetCut[]","components":[{"name":"facetAddress","type":"address","internalType":"address"},{"name":"action","type":"uint8","internalType":"enum IDiamond.FacetCutAction"},{"name":"functionSelectors","type":"bytes4[]","internalType":"bytes4[]"}]},{"name":"_init","type":"address","indexed":false,"internalType":"address"},{"name":"_calldata","type":"bytes","indexed":false,"internalType":"bytes"}],"anonymous":false},{"type":"event","name":"DisputeRequest","inputs":[{"name":"_arbitrator","type":"address","indexed":true,"internalType":"contract IArbitrator"},{"name":"_arbitrableDisputeID","type":"uint256","indexed":true,"internalType":"uint256"},{"name":"_externalDisputeID","type":"uint256","indexed":false,"internalType":"uint256"},{"name":"_templateId","type":"uint256","indexed":false,"internalType":"uint256"},{"name":"_templateUri","type":"string","indexed":false,"internalType":"string"}],"anonymous":false},{"type":"event","name":"Distributed","inputs":[{"name":"recipientId","type":"address","indexed":true,"internalType":"address"},{"name":"recipientAddress","type":"address","indexed":false,"internalType":"address"},{"name":"amount","type":"uint256","indexed":false,"internalType":"uint256"},{"name":"sender","type":"address","indexed":false,"internalType":"address"}],"anonymous":false},{"type":"event","name":"Distributed","inputs":[{"name":"proposalId","type":"uint256","indexed":false,"internalType":"uint256"},{"name":"beneficiary","type":"address","indexed":false,"internalType":"address"},{"name":"amount","type":"uint256","indexed":false,"internalType":"uint256"}],"anonymous":false},{"type":"event","name":"Initialized","inputs":[{"name":"poolId","type":"uint256","indexed":false,"internalType":"uint256"},{"name":"data","type":"bytes","indexed":false,"internalType":"bytes"}],"anonymous":false},{"type":"event","name":"Initialized","inputs":[{"name":"version","type":"uint8","indexed":false,"internalType":"uint8"}],"anonymous":false},{"type":"event","name":"InitializedCV","inputs":[{"name":"poolId","type":"uint256","indexed":false,"internalType":"uint256"},{"name":"data","type":"tuple","indexed":false,"internalType":"struct CVStrategyInitializeParamsV0_0","components":[{"name":"cvParams","type":"tuple","internalType":"struct CVParams","components":[{"name":"maxRatio","type":"uint256","internalType":"uint256"},{"name":"weight","type":"uint256","internalType":"uint256"},{"name":"decay","type":"uint256","internalType":"uint256"},{"name":"minThresholdPoints","type":"uint256","internalType":"uint256"}]},{"name":"proposalType","type":"uint8","internalType":"enum ProposalType"},{"name":"pointSystem","type":"uint8","internalType":"enum PointSystem"},{"name":"pointConfig","type":"tuple","internalType":"struct PointSystemConfig","components":[{"name":"maxAmount","type":"uint256","internalType":"uint256"}]},{"name":"arbitrableConfig","type":"tuple","internalType":"struct ArbitrableConfig","components":[{"name":"arbitrator","type":"address","internalType":"contract IArbitrator"},{"name":"tribunalSafe","type":"address","internalType":"address"},{"name":"submitterCollateralAmount","type":"uint256","internalType":"uint256"},{"name":"challengerCollateralAmount","type":"uint256","internalType":"uint256"},{"name":"defaultRuling","type":"uint256","internalType":"uint256"},{"name":"defaultRulingTimeout","type":"uint256","internalType":"uint256"}]},{"name":"registryCommunity","type":"address","internalType":"address"},{"name":"sybilScorer","type":"address","internalType":"address"}]}],"anonymous":false},{"type":"event","name":"InitializedCV2","inputs":[{"name":"poolId","type":"uint256","indexed":false,"internalType":"uint256"},{"name":"data","type":"tuple","indexed":false,"internalType":"struct CVStrategyInitializeParamsV0_1","components":[{"name":"cvParams","type":"tuple","internalType":"struct CVParams","components":[{"name":"maxRatio","type":"uint256","internalType":"uint256"},{"name":"weight","type":"uint256","internalType":"uint256"},{"name":"decay","type":"uint256","internalType":"uint256"},{"name":"minThresholdPoints","type":"uint256","internalType":"uint256"}]},{"name":"proposalType","type":"uint8","internalType":"enum ProposalType"},{"name":"pointSystem","type":"uint8","internalType":"enum PointSystem"},{"name":"pointConfig","type":"tuple","internalType":"struct PointSystemConfig","components":[{"name":"maxAmount","type":"uint256","internalType":"uint256"}]},{"name":"arbitrableConfig","type":"tuple","internalType":"struct ArbitrableConfig","components":[{"name":"arbitrator","type":"address","internalType":"contract IArbitrator"},{"name":"tribunalSafe","type":"address","internalType":"address"},{"name":"submitterCollateralAmount","type":"uint256","internalType":"uint256"},{"name":"challengerCollateralAmount","type":"uint256","internalType":"uint256"},{"name":"defaultRuling","type":"uint256","internalType":"uint256"},{"name":"defaultRulingTimeout","type":"uint256","internalType":"uint256"}]},{"name":"registryCommunity","type":"address","internalType":"address"},{"name":"sybilScorer","type":"address","internalType":"address"},{"name":"sybilScorerThreshold","type":"uint256","internalType":"uint256"},{"name":"initialAllowlist","type":"address[]","internalType":"address[]"}]}],"anonymous":false},{"type":"event","name":"InitializedCV3","inputs":[{"name":"poolId","type":"uint256","indexed":false,"internalType":"uint256"},{"name":"data","type":"tuple","indexed":false,"internalType":"struct CVStrategyInitializeParamsV0_2","components":[{"name":"cvParams","type":"tuple","internalType":"struct CVParams","components":[{"name":"maxRatio","type":"uint256","internalType":"uint256"},{"name":"weight","type":"uint256","internalType":"uint256"},{"name":"decay","type":"uint256","internalType":"uint256"},{"name":"minThresholdPoints","type":"uint256","internalType":"uint256"}]},{"name":"proposalType","type":"uint8","internalType":"enum ProposalType"},{"name":"pointSystem","type":"uint8","internalType":"enum PointSystem"},{"name":"pointConfig","type":"tuple","internalType":"struct PointSystemConfig","components":[{"name":"maxAmount","type":"uint256","internalType":"uint256"}]},{"name":"arbitrableConfig","type":"tuple","internalType":"struct ArbitrableConfig","components":[{"name":"arbitrator","type":"address","internalType":"contract IArbitrator"},{"name":"tribunalSafe","type":"address","internalType":"address"},{"name":"submitterCollateralAmount","type":"uint256","internalType":"uint256"},{"name":"challengerCollateralAmount","type":"uint256","internalType":"uint256"},{"name":"defaultRuling","type":"uint256","internalType":"uint256"},{"name":"defaultRulingTimeout","type":"uint256","internalType":"uint256"}]},{"name":"registryCommunity","type":"address","internalType":"address"},{"name":"sybilScorer","type":"address","internalType":"address"},{"name":"sybilScorerThreshold","type":"uint256","internalType":"uint256"},{"name":"initialAllowlist","type":"address[]","internalType":"address[]"},{"name":"superfluidToken","type":"address","internalType":"address"}]}],"anonymous":false},{"type":"event","name":"InitializedCV4","inputs":[{"name":"poolId","type":"uint256","indexed":false,"internalType":"uint256"},{"name":"data","type":"tuple","indexed":false,"internalType":"struct CVStrategyInitializeParamsV0_3","components":[{"name":"cvParams","type":"tuple","internalType":"struct CVParams","components":[{"name":"maxRatio","type":"uint256","internalType":"uint256"},{"name":"weight","type":"uint256","internalType":"uint256"},{"name":"decay","type":"uint256","internalType":"uint256"},{"name":"minThresholdPoints","type":"uint256","internalType":"uint256"}]},{"name":"proposalType","type":"uint8","internalType":"enum ProposalType"},{"name":"pointSystem","type":"uint8","internalType":"enum PointSystem"},{"name":"pointConfig","type":"tuple","internalType":"struct PointSystemConfig","components":[{"name":"maxAmount","type":"uint256","internalType":"uint256"}]},{"name":"arbitrableConfig","type":"tuple","internalType":"struct ArbitrableConfig","components":[{"name":"arbitrator","type":"address","internalType":"contract IArbitrator"},{"name":"tribunalSafe","type":"address","internalType":"address"},{"name":"submitterCollateralAmount","type":"uint256","internalType":"uint256"},{"name":"challengerCollateralAmount","type":"uint256","internalType":"uint256"},{"name":"defaultRuling","type":"uint256","internalType":"uint256"},{"name":"defaultRulingTimeout","type":"uint256","internalType":"uint256"}]},{"name":"registryCommunity","type":"address","internalType":"address"},{"name":"votingPowerRegistry","type":"address","internalType":"address"},{"name":"sybilScorer","type":"address","internalType":"address"},{"name":"sybilScorerThreshold","type":"uint256","internalType":"uint256"},{"name":"initialAllowlist","type":"address[]","internalType":"address[]"},{"name":"superfluidToken","type":"address","internalType":"address"},{"name":"streamingRatePerSecond","type":"uint256","internalType":"uint256"}]}],"anonymous":false},{"type":"event","name":"OwnershipTransferred","inputs":[{"name":"previousOwner","type":"address","indexed":true,"internalType":"address"},{"name":"newOwner","type":"address","indexed":true,"internalType":"address"}],"anonymous":false},{"type":"event","name":"OwnershipTransferred","inputs":[{"name":"previousOwner","type":"address","indexed":true,"internalType":"address"},{"name":"newOwner","type":"address","indexed":true,"internalType":"address"}],"anonymous":false},{"type":"event","name":"PointsDeactivated","inputs":[{"name":"member","type":"address","indexed":false,"internalType":"address"}],"anonymous":false},{"type":"event","name":"PoolActive","inputs":[{"name":"active","type":"bool","indexed":false,"internalType":"bool"}],"anonymous":false},{"type":"event","name":"PowerDecreased","inputs":[{"name":"member","type":"address","indexed":false,"internalType":"address"},{"name":"tokensUnStaked","type":"uint256","indexed":false,"internalType":"uint256"},{"name":"pointsToDecrease","type":"uint256","indexed":false,"internalType":"uint256"}],"anonymous":false},{"type":"event","name":"PowerIncreased","inputs":[{"name":"member","type":"address","indexed":false,"internalType":"address"},{"name":"tokensStaked","type":"uint256","indexed":false,"internalType":"uint256"},{"name":"pointsToIncrease","type":"uint256","indexed":false,"internalType":"uint256"}],"anonymous":false},{"type":"event","name":"ProposalCancelled","inputs":[{"name":"proposalId","type":"uint256","indexed":false,"internalType":"uint256"}],"anonymous":false},{"type":"event","name":"ProposalCreated","inputs":[{"name":"poolId","type":"uint256","indexed":false,"internalType":"uint256"},{"name":"proposalId","type":"uint256","indexed":false,"internalType":"uint256"}],"anonymous":false},{"type":"event","name":"ProposalCreated","inputs":[{"name":"poolId","type":"uint256","indexed":false,"internalType":"uint256"},{"name":"proposalId","type":"uint256","indexed":false,"internalType":"uint256"},{"name":"escrow","type":"address","indexed":false,"internalType":"address"}],"anonymous":false},{"type":"event","name":"ProposalDisputed","inputs":[{"name":"arbitrator","type":"address","indexed":false,"internalType":"contract IArbitrator"},{"name":"proposalId","type":"uint256","indexed":false,"internalType":"uint256"},{"name":"disputeId","type":"uint256","indexed":false,"internalType":"uint256"},{"name":"challenger","type":"address","indexed":false,"internalType":"address"},{"name":"context","type":"string","indexed":false,"internalType":"string"},{"name":"timestamp","type":"uint256","indexed":false,"internalType":"uint256"}],"anonymous":false},{"type":"event","name":"RebalanceCallerAuthorizationUpdated","inputs":[{"name":"caller","type":"address","indexed":true,"internalType":"address"},{"name":"authorized","type":"bool","indexed":false,"internalType":"bool"}],"anonymous":false},{"type":"event","name":"Registered","inputs":[{"name":"recipientId","type":"address","indexed":true,"internalType":"address"},{"name":"data","type":"bytes","indexed":false,"internalType":"bytes"},{"name":"sender","type":"address","indexed":false,"internalType":"address"}],"anonymous":false},{"type":"event","name":"Ruling","inputs":[{"name":"_arbitrator","type":"address","indexed":true,"internalType":"contract IArbitrator"},{"name":"_disputeID","type":"uint256","indexed":true,"internalType":"uint256"},{"name":"_ruling","type":"uint256","indexed":false,"internalType":"uint256"}],"anonymous":false},{"type":"event","name":"StreamMemberUnitUpdated","inputs":[{"name":"member","type":"address","indexed":true,"internalType":"address"},{"name":"newUnit","type":"int96","indexed":false,"internalType":"int96"}],"anonymous":false},{"type":"event","name":"StreamRateUpdated","inputs":[{"name":"gda","type":"address","indexed":true,"internalType":"address"},{"name":"flowRate","type":"uint256","indexed":false,"internalType":"uint256"}],"anonymous":false},{"type":"event","name":"SuperfluidGDAConnected","inputs":[{"name":"gda","type":"address","indexed":true,"internalType":"address"},{"name":"by","type":"address","indexed":true,"internalType":"address"}],"anonymous":false},{"type":"event","name":"SuperfluidGDADisconnected","inputs":[{"name":"gda","type":"address","indexed":true,"internalType":"address"},{"name":"by","type":"address","indexed":true,"internalType":"address"}],"anonymous":false},{"type":"event","name":"SuperfluidPoolCreated","inputs":[{"name":"gda","type":"address","indexed":true,"internalType":"address"},{"name":"superfluidToken","type":"address","indexed":true,"internalType":"address"},{"name":"maxStreamingRate","type":"uint256","indexed":false,"internalType":"uint256"}],"anonymous":false},{"type":"event","name":"SuperfluidTokenUpdated","inputs":[{"name":"superfluidToken","type":"address","indexed":false,"internalType":"address"}],"anonymous":false},{"type":"event","name":"SupportAdded","inputs":[{"name":"from","type":"address","indexed":false,"internalType":"address"},{"name":"proposalId","type":"uint256","indexed":false,"internalType":"uint256"},{"name":"amount","type":"uint256","indexed":false,"internalType":"uint256"},{"name":"totalStakedAmount","type":"uint256","indexed":false,"internalType":"uint256"},{"name":"convictionLast","type":"uint256","indexed":false,"internalType":"uint256"}],"anonymous":false},{"type":"event","name":"SybilScorerUpdated","inputs":[{"name":"sybilScorer","type":"address","indexed":false,"internalType":"address"}],"anonymous":false},{"type":"event","name":"Upgraded","inputs":[{"name":"implementation","type":"address","indexed":true,"internalType":"address"}],"anonymous":false},{"type":"error","name":"ALLOCATION_ACTIVE","inputs":[]},{"type":"error","name":"ALLOCATION_NOT_ACTIVE","inputs":[]},{"type":"error","name":"ALLOCATION_NOT_ENDED","inputs":[]},{"type":"error","name":"ALREADY_INITIALIZED","inputs":[]},{"type":"error","name":"AMOUNT_MISMATCH","inputs":[]},{"type":"error","name":"ANCHOR_ERROR","inputs":[]},{"type":"error","name":"ARRAY_MISMATCH","inputs":[]},{"type":"error","name":"AShouldBeUnderOrEqTwo_128","inputs":[]},{"type":"error","name":"AShouldBeUnderTwo_128","inputs":[]},{"type":"error","name":"AddressCannotBeZero","inputs":[{"name":"input","type":"address","internalType":"address"}]},{"type":"error","name":"AmountOverMaxRatio","inputs":[{"name":"requestedAmount","type":"uint256","internalType":"uint256"},{"name":"maxAllowed","type":"uint256","internalType":"uint256"},{"name":"poolAmount","type":"uint256","internalType":"uint256"}]},{"type":"error","name":"ArbitratorCannotBeZero","inputs":[]},{"type":"error","name":"ArbitratorNotAllowed","inputs":[{"name":"target","type":"address","internalType":"address"}]},{"type":"error","name":"BShouldBeLessTwo_128","inputs":[]},{"type":"error","name":"CallerNotOwner","inputs":[{"name":"_caller","type":"address","internalType":"address"},{"name":"_owner","type":"address","internalType":"address"}]},{"type":"error","name":"CannotAddFunctionToDiamondThatAlreadyExists","inputs":[{"name":"_selector","type":"bytes4","internalType":"bytes4"}]},{"type":"error","name":"CannotAddSelectorsToZeroAddress","inputs":[{"name":"_selectors","type":"bytes4[]","internalType":"bytes4[]"}]},{"type":"error","name":"CannotRemoveFunctionThatDoesNotExist","inputs":[{"name":"_selector","type":"bytes4","internalType":"bytes4"}]},{"type":"error","name":"CannotRemoveImmutableFunction","inputs":[{"name":"_selector","type":"bytes4","internalType":"bytes4"}]},{"type":"error","name":"CannotReplaceFunctionThatDoesNotExists","inputs":[{"name":"_selector","type":"bytes4","internalType":"bytes4"}]},{"type":"error","name":"CannotReplaceFunctionWithTheSameFunctionFromTheSameFacet","inputs":[{"name":"_selector","type":"bytes4","internalType":"bytes4"}]},{"type":"error","name":"CannotReplaceFunctionsFromFacetWithZeroAddress","inputs":[{"name":"_selectors","type":"bytes4[]","internalType":"bytes4[]"}]},{"type":"error","name":"CannotReplaceImmutableFunction","inputs":[{"name":"_selector","type":"bytes4","internalType":"bytes4"}]},{"type":"error","name":"ConvictionUnderMinimumThreshold","inputs":[]},{"type":"error","name":"DefaultRulingNotSet","inputs":[]},{"type":"error","name":"DisputeCooldownNotPassed","inputs":[{"name":"_proposalId","type":"uint256","internalType":"uint256"},{"name":"_remainingSec","type":"uint256","internalType":"uint256"}]},{"type":"error","name":"INVALID","inputs":[]},{"type":"error","name":"INVALID_ADDRESS","inputs":[]},{"type":"error","name":"INVALID_FEE","inputs":[]},{"type":"error","name":"INVALID_METADATA","inputs":[]},{"type":"error","name":"INVALID_REGISTRATION","inputs":[]},{"type":"error","name":"IS_APPROVED_STRATEGY","inputs":[]},{"type":"error","name":"InitializationFunctionReverted","inputs":[{"name":"_initializationContractAddress","type":"address","internalType":"address"},{"name":"_calldata","type":"bytes","internalType":"bytes"}]},{"type":"error","name":"InsufficientCollateral","inputs":[{"name":"sentAmount","type":"uint256","internalType":"uint256"},{"name":"requiredAmount","type":"uint256","internalType":"uint256"}]},{"type":"error","name":"MISMATCH","inputs":[]},{"type":"error","name":"NONCE_NOT_AVAILABLE","inputs":[]},{"type":"error","name":"NON_ZERO_VALUE","inputs":[]},{"type":"error","name":"NOT_APPROVED_STRATEGY","inputs":[]},{"type":"error","name":"NOT_ENOUGH_FUNDS","inputs":[]},{"type":"error","name":"NOT_IMPLEMENTED","inputs":[]},{"type":"error","name":"NOT_INITIALIZED","inputs":[]},{"type":"error","name":"NOT_PENDING_OWNER","inputs":[]},{"type":"error","name":"NoBytecodeAtAddress","inputs":[{"name":"_contractAddress","type":"address","internalType":"address"},{"name":"_message","type":"string","internalType":"string"}]},{"type":"error","name":"NoSelectorsProvidedForFacetForCut","inputs":[{"name":"_facetAddress","type":"address","internalType":"address"}]},{"type":"error","name":"NotEnoughPointsToSupport","inputs":[{"name":"pointsSupport","type":"uint256","internalType":"uint256"},{"name":"pointsBalance","type":"uint256","internalType":"uint256"}]},{"type":"error","name":"NotImplemented","inputs":[{"name":"selector","type":"bytes4","internalType":"bytes4"}]},{"type":"error","name":"OnlyArbitrator","inputs":[{"name":"sender","type":"address","internalType":"address"},{"name":"arbitrator","type":"address","internalType":"address"}]},{"type":"error","name":"OnlyCommunityAllowed","inputs":[{"name":"sender","type":"address","internalType":"address"},{"name":"registryCommunity","type":"address","internalType":"address"}]},{"type":"error","name":"OnlyCouncilSafe","inputs":[{"name":"sender","type":"address","internalType":"address"},{"name":"councilSafe","type":"address","internalType":"address"},{"name":"owner","type":"address","internalType":"address"}]},{"type":"error","name":"OnlyCouncilSafeOrMember","inputs":[{"name":"sender","type":"address","internalType":"address"},{"name":"councilSafe","type":"address","internalType":"address"}]},{"type":"error","name":"POOL_ACTIVE","inputs":[]},{"type":"error","name":"POOL_INACTIVE","inputs":[]},{"type":"error","name":"PoolAmountNotEnough","inputs":[{"name":"_proposalId","type":"uint256","internalType":"uint256"},{"name":"_requestedAmount","type":"uint256","internalType":"uint256"},{"name":"_poolAmount","type":"uint256","internalType":"uint256"}]},{"type":"error","name":"PoolIsEmpty","inputs":[{"name":"poolAmount","type":"uint256","internalType":"uint256"}]},{"type":"error","name":"ProposalDataIsEmpty","inputs":[]},{"type":"error","name":"ProposalIdCannotBeZero","inputs":[]},{"type":"error","name":"ProposalInvalidForAllocation","inputs":[{"name":"_proposalId","type":"uint256","internalType":"uint256"},{"name":"_proposalStatus","type":"uint8","internalType":"enum ProposalStatus"}]},{"type":"error","name":"ProposalNotActive","inputs":[{"name":"_proposalId","type":"uint256","internalType":"uint256"}]},{"type":"error","name":"ProposalNotDisputed","inputs":[{"name":"_proposalId","type":"uint256","internalType":"uint256"}]},{"type":"error","name":"ProposalNotInList","inputs":[{"name":"_proposalId","type":"uint256","internalType":"uint256"}]},{"type":"error","name":"ProposalSupportDuplicated","inputs":[{"name":"_proposalId","type":"uint256","internalType":"uint256"},{"name":"index","type":"uint256","internalType":"uint256"}]},{"type":"error","name":"RECIPIENT_ALREADY_ACCEPTED","inputs":[]},{"type":"error","name":"RECIPIENT_ERROR","inputs":[{"name":"recipientId","type":"address","internalType":"address"}]},{"type":"error","name":"RECIPIENT_NOT_ACCEPTED","inputs":[]},{"type":"error","name":"REGISTRATION_ACTIVE","inputs":[]},{"type":"error","name":"REGISTRATION_NOT_ACTIVE","inputs":[]},{"type":"error","name":"RebalanceCooldownActive","inputs":[{"name":"secondsRemaining","type":"uint256","internalType":"uint256"}]},{"type":"error","name":"RegistryCannotBeZero","inputs":[{"name":"registry","type":"address","internalType":"address"}]},{"type":"error","name":"RegistryCommunityCannotBeZero","inputs":[{"name":"registry","type":"address","internalType":"address"}]},{"type":"error","name":"RemoveFacetAddressMustBeZeroAddress","inputs":[{"name":"_facetAddress","type":"address","internalType":"address"}]},{"type":"error","name":"StrategyFunctionDoesNotExist","inputs":[{"name":"selector","type":"bytes4","internalType":"bytes4"}]},{"type":"error","name":"StrategyPaused","inputs":[{"name":"controller","type":"address","internalType":"address"}]},{"type":"error","name":"StrategySelectorPaused","inputs":[{"name":"selector","type":"bytes4","internalType":"bytes4"},{"name":"controller","type":"address","internalType":"address"}]},{"type":"error","name":"SuperfluidPoolCreationFailed","inputs":[]},{"type":"error","name":"SupportUnderflow","inputs":[{"name":"_support","type":"uint256","internalType":"uint256"},{"name":"_delta","type":"int256","internalType":"int256"},{"name":"_result","type":"int256","internalType":"int256"}]},{"type":"error","name":"SybilScorerNotAllowed","inputs":[{"name":"target","type":"address","internalType":"address"}]},{"type":"error","name":"TokenCannotBeZero","inputs":[{"name":"token","type":"address","internalType":"address"}]},{"type":"error","name":"TokenNotAllowed","inputs":[{"name":"token","type":"address","internalType":"address"}]},{"type":"error","name":"UNAUTHORIZED","inputs":[]},{"type":"error","name":"UserCannotBeZero","inputs":[{"name":"user","type":"address","internalType":"address"}]},{"type":"error","name":"UserCannotExecuteAction","inputs":[{"name":"sender","type":"address","internalType":"address"}]},{"type":"error","name":"UserIsInactive","inputs":[{"name":"user","type":"address","internalType":"address"}]},{"type":"error","name":"UserNotInRegistry","inputs":[{"name":"user","type":"address","internalType":"address"},{"name":"registry","type":"address","internalType":"address"}]},{"type":"error","name":"ZERO_ADDRESS","inputs":[]}],"bytecode":{"object":"0x60a06040523060805234801562000014575f80fd5b506200001f62000025565b620000e3565b5f54610100900460ff1615620000915760405162461bcd60e51b815260206004820152602760248201527f496e697469616c697a61626c653a20636f6e747261637420697320696e697469604482015266616c697a696e6760c81b606482015260840160405180910390fd5b5f5460ff90811614620000e1575f805460ff191660ff9081179091556040519081527f7f26b83ff96e1f2b6a682f133852f6798a09c465da95921460cefb38474024989060200160405180910390a15b565b608051616b7c620001185f395f81816118470152818161188701528181611d9b01528181611ddb0152611e5a0152616b7c5ff3fe6080604052600436106104fc575f3560e01c806301ffc9a71461059f578063025313a2146105e4578063058aca4414610605578063059351cd1461064157806305caa7f3146106cc578063096d2870146106eb57806309b65e661461070a5780630a6f0ee9146107295780630ba95909146107485780630bece79c146107665780630c0512e914610785578063125fd1d91461079a578063136439dd146107af578063141e3b38146107ce57806315cc481e146107ed578063170aba0d1461080a578063184b9559146108465780631aa91a9e146108655780631add1a0d146108845780631b36f56f1461089e5780631ddf1e23146108bd5780631f931c1c146108d1578063222a3a04146108845780632506b870146108f0578063255ffb3814610922578063291e51231461094d5780632bbe0cae1461096c5780632cea13f91461097f5780632d2ebbef146109935780632dbd6fdd146109ad5780632ed04b2b146109d8578063311a6c56146109f25780633396045914610a11578063351d9f9614610a265780633587c79b14610a4c5780633659cfe614610a785780633864d36614610a9757806338fff2d014610ab65780633c09233014610aca5780633f4ba83a146108bd57806341bb760514610b0657806346de35c814610b6157806349b2577814610b805780634ab4ba4214610b9f5780634e899d5f14610bb35780634f1ef28614610bd257806352b2005014610be557806352d1902d14610bf957806356c7869914610c0d57806359a5db8b14610c455780635bee0ec814610c645780635db64b9914610c925780636003e41414610cbd57806360b0645a14610cdc57806360b4778914610cfb57806360d5dedc14610d0f57806360ec51aa14610d2e578063626c47e814610d5b5780636453d9c414610884578063662ea47d14610d6f578063715018a614610d90578063782aadff146109d85780637d7c2a1c146108bd57806380c4a65f14610da457806380fd91cd14610dbe578063814516ad146108bd578063817b1cd214610ddd57806385c504dd14610df2578063868c57b814610e265780638b83075e14610e455780638da5cb5b14610e8157806391bfd37b14610e95578063924e67041461088457806394573cbb14610eb4578063a0449bf314610ec9578063a0cf0aea14610ee8578063a28889e114610f0f578063a385ea6414610f46578063a47ff7e514610f89578063ab7716d814610f9f578063aba9ffee14610fbe578063ac1ed7b914610fd3578063ac78012c1461100f578063adaf157b14610cfb578063b04b5b261461102e578063b0d3713a1461104d578063b187bd261461106c578063b3de272d14611080578063b41596ec14611094578063b5f620ce146110a7578063b6c61f31146110c6578063bac1e94b146110e5578063c3292171146110ff578063c4d66de81461111b578063c69271ec14610884578063c6cdc9801461113a578063c7f758a814611159578063cb22c4e414611190578063d1045aa9146111af578063d5b7cc54146111ce578063da748b10146111ed578063db71146014611201578063dc96ff2d14611220578063dd439bd31461124e578063df868ed314611262578063e0a8f6f5146107af578063e0dd2c3814611276578063ec9f5f3d14611295578063edd146cc146112b4578063ef2920fc146112d3578063f01a809c146112e1578063f2fde38b146112f5578063f5be3f7c14611314578063ff3db2ce1461132957610503565b3661050357005b5f80356001600160e01b03191681525f80516020616a35833981519152602081905260409091205481906001600160a01b03168061056a575f356001600160e01b03191660405163335ed20560e11b81526004016105619190615066565b60405180910390fd5b61057f5f356001600160e01b031916826113b3565b365f80375f80365f845af43d5f803e808015610599573d5ff35b3d5ffd5b005b3480156105aa575f80fd5b506105cf6105b9366004615092565b6001600160e01b0319166301ffc9a760e01b1490565b60405190151581526020015b60405180910390f35b3480156105ef575f80fd5b506105f861155c565b6040516105db91906150b8565b348015610610575f80fd5b5061059d61061f3660046150eb565b607880546001600160a01b0319166001600160a01b0392909216919091179055565b34801561064c575f80fd5b50610694606f545f908152607f60205260409020805460018201546002830154600384015460048501546005909501546001600160a01b039485169694909316949193909290565b604080516001600160a01b039788168152969095166020870152938501929092526060840152608083015260a082015260c0016105db565b3480156106d7575f80fd5b506080546105f8906001600160a01b031681565b3480156106f6575f80fd5b5061059d610705366004615106565b611574565b348015610715575f80fd5b506105cf610724366004615092565b61158f565b348015610734575f80fd5b5061059d610743366004615325565b61159d565b348015610753575f80fd5b506077545b6040519081526020016105db565b348015610771575f80fd5b506079546105f8906001600160a01b031681565b348015610790575f80fd5b50610758606e5481565b3480156107a5575f80fd5b50610758606f5481565b3480156107ba575f80fd5b5061059d6107c9366004615397565b6115a5565b3480156107d9575f80fd5b5061059d6107e83660046153ae565b6115b0565b3480156107f8575f80fd5b506065546001600160a01b03166105f8565b348015610815575f80fd5b5061059d6108243660046150eb565b608380546001600160a01b0319166001600160a01b0392909216919091179055565b348015610851575f80fd5b5061059d610860366004615442565b6115be565b348015610870575f80fd5b5061075861087f366004615397565b6116c1565b34801561088f575f80fd5b5061059d6107c93660046150eb565b3480156108a9575f80fd5b506081546105f8906001600160a01b031681565b3480156108c8575f80fd5b5061059d61170a565b3480156108dc575f80fd5b5061059d6108eb3660046154bc565b611714565b3480156108fb575f80fd5b506072546073546074546075546109129392919084565b6040516105db9493929190615564565b34801561092d575f80fd5b5061075861093c366004615397565b607e6020525f908152604090205481565b348015610958575f80fd5b5061059d6109673660046150eb565b61176c565b6105f861097a36600461557f565b611775565b34801561098a575f80fd5b50610758611784565b34801561099e575f80fd5b50610758610724366004615092565b3480156109b8575f80fd5b506076546109cb90610100900460ff1681565b6040516105db91906155f5565b3480156109e3575f80fd5b5061075861097a366004615603565b3480156109fd575f80fd5b5061059d610a0c366004615106565b611793565b348015610a1c575f80fd5b50610758606c5481565b348015610a31575f80fd5b50607654610a3f9060ff1681565b6040516105db919061563d565b348015610a57575f80fd5b50610a6b610a66366004615397565b61179b565b6040516105db9190615698565b348015610a83575f80fd5b5061059d610a923660046150eb565b61183d565b348015610aa2575f80fd5b5061059d610ab1366004615603565b611901565b348015610ac1575f80fd5b50606854610758565b348015610ad5575f80fd5b5061059d610ae43660046150eb565b606580546001600160a01b0319166001600160a01b0392909216919091179055565b348015610b11575f80fd5b50610694610b20366004615397565b607f6020525f90815260409020805460018201546002830154600384015460048501546005909501546001600160a01b039485169593909416939192909186565b348015610b6c575f80fd5b5061059d610b7b3660046156b6565b611acd565b348015610b8b575f80fd5b50610758610b9a366004615106565b611af6565b348015610baa575f80fd5b50610758611b08565b348015610bbe575f80fd5b506105cf610bcd3660046150eb565b611d87565b61059d610be03660046156d1565b611d91565b348015610bf0575f80fd5b5061059d611e46565b348015610c04575f80fd5b50610758611e4e565b348015610c18575f80fd5b5061059d610c2736600461575f565b80516072556020810151607355604081015160745560600151607555565b348015610c50575f80fd5b50610758610c5f366004615397565b611efb565b348015610c6f575f80fd5b5061059d610c7e366004615106565b5f918252607b602052604090912060020155565b348015610c9d575f80fd5b50610758610cac3660046150eb565b607c6020525f908152604090205481565b348015610cc8575f80fd5b506078546105f8906001600160a01b031681565b348015610ce7575f80fd5b50610758610cf6366004615397565b611fc0565b348015610d06575f80fd5b506105f861207d565b348015610d1a575f80fd5b5061059d610d29366004615779565b612086565b348015610d39575f80fd5b5061059d610d48366004615397565b6040805160208101909152819052607755565b348015610d66575f80fd5b50610758600381565b348015610d7a575f80fd5b50610d83612145565b6040516105db9190615800565b348015610d9b575f80fd5b5061059d6124e4565b348015610daf575f80fd5b5061059d610a0c36600461587d565b348015610dc9575f80fd5b506083546105f8906001600160a01b031681565b348015610de8575f80fd5b5061075860705481565b348015610dfd575f80fd5b50610e11610e0c366004615106565b6124f5565b604080519283526020830191909152016105db565b348015610e31575f80fd5b50610758610e40366004615603565b61251a565b348015610e50575f80fd5b5061059d610e5f3660046150eb565b608080546001600160a01b0319166001600160a01b0392909216919091179055565b348015610e8c575f80fd5b506105f8612545565b348015610ea0575f80fd5b506105cf610eaf366004615397565b6125d3565b348015610ebf575f80fd5b5061075860825481565b348015610ed4575f80fd5b5061059d610ee33660046150eb565b6125dd565b348015610ef3575f80fd5b506105f873eeeeeeeeeeeeeeeeeeeeeeeeeeeeeeeeeeeeeeee81565b348015610f1a575f80fd5b50606d54610f2e906001600160401b031681565b6040516001600160401b0390911681526020016105db565b348015610f51575f80fd5b5061059d610f60366004615897565b5f928352607b602090815260408085206001600160a01b03909416855260099093019052912055565b348015610f94575f80fd5b506077546107589081565b348015610faa575f80fd5b5061059d610fb9366004615106565b6125ff565b348015610fc9575f80fd5b5061075860715481565b348015610fde575f80fd5b5061059d610fed3660046150eb565b607a80546001600160a01b0319166001600160a01b0392909216919091179055565b34801561101a575f80fd5b5061059d611029366004615397565b606855565b348015611039575f80fd5b506105f8611048366004615397565b612609565b348015611058575f80fd5b5061059d6110673660046150eb565b61262e565b348015611077575f80fd5b506105cf61207d565b34801561108b575f80fd5b50610758612636565b6107586110a23660046158cc565b612648565b3480156110b2575f80fd5b5061059d6110c136600461592e565b61265a565b3480156110d1575f80fd5b50607a546105f8906001600160a01b031681565b3480156110f0575f80fd5b5061059d6107c9366004615092565b34801561110a575f80fd5b50607654610100900460ff166109cb565b348015611126575f80fd5b5061059d6111353660046150eb565b612663565b348015611145575f80fd5b5061059d6111543660046159b3565b612715565b348015611164575f80fd5b50611178611173366004615397565b612726565b6040516105db9c9b9a99989796959493929190615a70565b34801561119b575f80fd5b5061059d6111aa366004615397565b607155565b3480156111ba575f80fd5b506107586111c9366004615397565b6128f4565b3480156111d9575f80fd5b5061059d6111e8366004615ae5565b61296a565b3480156111f8575f80fd5b5061075861207d565b34801561120c575f80fd5b5061059d61121b366004615b93565b61297a565b34801561122b575f80fd5b5061075861123a366004615397565b5f908152607b602052604090206002015490565b348015611259575f80fd5b5061059d612a38565b34801561126d575f80fd5b506105cf612a40565b348015611281575f80fd5b50610758611290366004615beb565b612a4d565b3480156112a0575f80fd5b506105cf6112af366004615397565b612a77565b3480156112bf575f80fd5b5061059d6112ce366004615c0e565b612a81565b61059d610a0c36600461557f565b3480156112ec575f80fd5b5061059d613077565b348015611300575f80fd5b5061059d61130f3660046150eb565b61307f565b34801561131f575f80fd5b50610758611c2081565b348015611334575f80fd5b5061059d611343366004615c3b565b606f8290555f918252607f6020908152604092839020825181546001600160a01b03199081166001600160a01b0392831617835592840151600183018054909416911617909155918101516002830155606081015160038301556080810151600483015560a00151600590910155565b6113bb6130f5565b600101546001600160a01b03908116908216036113d6575050565b6113df82613119565b156113e8575050565b5f6113f16130f5565b546001600160a01b031690508061140757505050565b806001600160a01b03163b5f0361141d57505050565b604051635b14f18360e01b81526001600160a01b03821690635b14f183906114499030906004016150b8565b602060405180830381865afa158015611464573d5f803e3d5ffd5b505050506040513d601f19601f820116820180604052508101906114889190615c66565b156114a8578060405163c2897a3760e01b815260040161056191906150b8565b6040516374b896f160e01b81523060048201526001600160e01b0319841660248201526001600160a01b038216906374b896f190604401602060405180830381865afa1580156114fa573d5f803e3d5ffd5b505050506040513d601f19601f8201168201806040525081019061151e9190615c66565b156115575760405163a9774bf960e01b81526001600160e01b0319841660048201526001600160a01b0382166024820152604401610561565b505050565b5f61156f6033546001600160a01b031690565b905090565b5f828152607b6020526040902061158b908261325c565b5050565b5f611598610503565b919050565b611557610503565b6115ad610503565b50565b6115b8610503565b50505050565b5f54610100900460ff16158080156115dc57505f54600160ff909116105b806115fc57506115eb30613295565b1580156115fc57505f5460ff166001145b6116185760405162461bcd60e51b815260040161056190615c81565b5f805460ff191660011790558015611639575f805461ff0019166101001790555b611666846040518060400160405280600a8152602001694356537472617465677960b01b81525084612086565b61166f826132a4565b606a80546001600160a01b0319166001600160a01b03851617905580156115b8575f805461ff0019169055604051600181525f80516020616ae18339815191529060200160405180910390a150505050565b5f818152607b60205260408120805483146116f25760405163c1d17bef60e01b815260048101849052602401610561565b61170081826002015461325c565b6003015492915050565b611712610503565b565b61171c6132ef565b6117656117298587615ccf565b8484848080601f0160208091040260200160405190810160405280939291908181526020018383808284375f9201919091525061337492505050565b5050505050565b6115ad816134dd565b5f61177e610503565b92915050565b5f61178d6135d9565b54919050565b61158b610503565b5f818152607b60205260409020600b018054606091906117ba90615def565b80601f01602080910402602001604051908101604052809291908181526020018280546117e690615def565b80156118315780601f1061180857610100808354040283529160200191611831565b820191905f5260205f20905b81548152906001019060200180831161181457829003601f168201915b50505050509050919050565b6001600160a01b037f00000000000000000000000000000000000000000000000000000000000000001630036118855760405162461bcd60e51b815260040161056190615e27565b7f00000000000000000000000000000000000000000000000000000000000000006001600160a01b03166118b76135fd565b6001600160a01b0316146118dd5760405162461bcd60e51b815260040161056190615e60565b6118e681613618565b604080515f808252602082019092526115ad91839190613653565b60785f9054906101000a90046001600160a01b03166001600160a01b0316636c53db9a6040518163ffffffff1660e01b8152600401602060405180830381865afa158015611951573d5f803e3d5ffd5b505050506040513d601f19601f820116820180604052508101906119759190615e99565b6001600160a01b0316336001600160a01b0316141580156119af5750611999612545565b6001600160a01b0316336001600160a01b031614155b15611a5c5760785460408051633629edcd60e11b8152905133926001600160a01b031691636c53db9a9160048083019260209291908290030181865afa1580156119fb573d5f803e3d5ffd5b505050506040513d601f19601f82011682018060405250810190611a1f9190615e99565b611a27612545565b60405163e1b9c46960e01b81526001600160a01b03938416600482015291831660248301529091166044820152606401610561565b611a65826137bd565b611a6e826137e6565b607a80546001600160a01b0319166001600160a01b038416179055611a92816138f4565b7f2667a0cd99dbc787d1d2596efe938cf43dfe83e8b8ddeb70e28007c09ff3348582604051611ac191906150b8565b60405180910390a15050565b6076805482919061ff001916610100836004811115611aee57611aee6155cd565b021790555050565b5f611b0183836139d1565b9392505050565b60655460685460405163068bcd8d60e01b81525f9283926001600160a01b039091169163068bcd8d91611b419160040190815260200190565b5f60405180830381865afa158015611b5b573d5f803e3d5ffd5b505050506040513d5f823e601f3d908101601f19168201604052611b829190810190615ebf565b60400151905073eeeeeeeeeeeeeeeeeeeeeeeeeeeeeeeeeeeeeeed196001600160a01b03821601611bb4574791505090565b6040516370a0823160e01b81525f906001600160a01b038316906370a0823190611be29030906004016150b8565b602060405180830381865afa158015611bfd573d5f803e3d5ffd5b505050506040513d601f19601f82011682018060405250810190611c219190615fd7565b6080549091505f906001600160a01b031615611cab576080546040516370a0823160e01b81526001600160a01b03909116906370a0823190611c679030906004016150b8565b602060405180830381865afa158015611c82573d5f803e3d5ffd5b505050506040513d601f19601f82011682018060405250810190611ca69190615fd7565b611cad565b5f5b90505f836001600160a01b031663313ce5676040518163ffffffff1660e01b8152600401602060405180830381865afa158015611cec573d5f803e3d5ffd5b505050506040513d601f19601f82011682018060405250810190611d109190615fee565b905060128160ff161015611d4557611d29816012616022565b611d3490600a61611b565b611d3e908361613d565b9150611d74565b60128160ff161115611d7457611d5c601282616022565b611d6790600a61611b565b611d71908361615c565b91505b611d7e8284616173565b94505050505090565b5f61177e82613a11565b6001600160a01b037f0000000000000000000000000000000000000000000000000000000000000000163003611dd95760405162461bcd60e51b815260040161056190615e27565b7f00000000000000000000000000000000000000000000000000000000000000006001600160a01b0316611e0b6135fd565b6001600160a01b031614611e315760405162461bcd60e51b815260040161056190615e60565b611e3a82613618565b61158b82826001613653565b611712613c2a565b5f306001600160a01b037f00000000000000000000000000000000000000000000000000000000000000001614611ee85760405162461bcd60e51b815260206004820152603860248201527f555550535570677261646561626c653a206d757374206e6f742062652063616c6044820152771b1959081d1a1c9bdd59da0819195b1959d85d1958d85b1b60421b6064820152608401610561565b505f80516020616ac18339815191525b90565b5f80611f05611b08565b90505f629896808260725f0154611f1c919061615c565b611f26919061613d565b6071546074546073546072546075546040516314eff2dd60e11b815295965073__$f1b7c69ba751c396eddc93d3bbc5414fd9$__956329dfe5ba95611f79958c958b959294919390929190600401616186565b602060405180830381865af4158015611f94573d5f803e3d5ffd5b505050506040513d601f19601f82011682018060405250810190611fb89190615fd7565b949350505050565b5f818152607b60205260408120611fd5613d50565b611fe3576003015492915050565b73__$f1b7c69ba751c396eddc93d3bbc5414fd9$__63010dfe6482600701544361200d91906161b6565b600384015460028501546074546040516001600160e01b031960e087901b16815261203e9493929190600401615564565b602060405180830381865af4158015612059573d5f803e3d5ffd5b505050506040513d601f19601f82011682018060405250810190611b019190615fd7565b5f611ef8610503565b5f54610100900460ff166120f05760405162461bcd60e51b815260206004820152602b60248201527f496e697469616c697a61626c653a20636f6e7472616374206973206e6f74206960448201526a6e697469616c697a696e6760a81b6064820152608401610561565b6120f981612663565b606580546001600160a01b0319166001600160a01b038516179055604051612125908390602001615698565b60408051601f198184030181529190528051602090910120606655505050565b60605f612150613e4c565b6001810154909150806001600160401b0381111561217057612170615126565b6040519080825280602002602001820160405280156121b557816020015b604080518082019091525f81526060602082015281526020019060019003908161218e5790505b5092505f816001600160401b038111156121d1576121d1615126565b6040519080825280602002602001820160405280156121fa578160200160208202803683370190505b5090505f805b8381101561247f575f85600101828154811061221e5761221e6161c9565b5f918252602080832060088304015460079092166004026101000a90910460e01b6001600160e01b0319811683529088905260408220549092506001600160a01b031690805b8581101561234f57826001600160a01b03168a8281518110612288576122886161c9565b60200260200101515f01516001600160a01b03160361234757838a82815181106122b4576122b46161c9565b6020026020010151602001518883815181106122d2576122d26161c9565b602002602001015161ffff16815181106122ee576122ee6161c9565b60200260200101906001600160e01b03191690816001600160e01b03191681525050868181518110612322576123226161c9565b602002602001018051809190612337906161dd565b61ffff169052506001915061234f565b600101612264565b50801561235f5750612477915050565b81898681518110612372576123726161c9565b60209081029190910101516001600160a01b039091169052866001600160401b038111156123a2576123a2615126565b6040519080825280602002602001820160405280156123cb578160200160208202803683370190505b508986815181106123de576123de6161c9565b60200260200101516020018190525082898681518110612400576124006161c9565b6020026020010151602001515f8151811061241d5761241d6161c9565b60200260200101906001600160e01b03191690816001600160e01b031916815250506001868681518110612453576124536161c9565b61ffff9092166020928302919091019091015284612470816161fd565b9550505050505b600101612200565b505f5b818110156124d9575f86828151811061249d5761249d6161c9565b60200260200101516020015190505f8483815181106124be576124be6161c9565b602090810291909101015161ffff1690915250600101612482565b508085525050505090565b6124ec6132ef565b6117125f613e5d565b5f828152607b60205260408120819061250e9084613e9b565b915091505b9250929050565b607d602052815f5260405f208181548110612533575f80fd5b905f5260205f20015f91509150505481565b5f61254e61155c565b6001600160a01b03163b5f036125665761156f61155c565b61256e61155c565b6001600160a01b0316638da5cb5b6040518163ffffffff1660e01b8152600401602060405180830381865afa9250505080156125c7575060408051601f3d908101601f191682019092526125c491810190615e99565b60015b6115985761156f61155c565b5f61177e82613f80565b606a80546001600160a01b0319166001600160a01b0392909216919091179055565b61158b8282613fb7565b5f6126126135d9565b5f9283526003016020525060409020546001600160a01b031690565b6125dd6132ef565b5f61263f6135d9565b60010154905090565b5f612651610503565b95945050505050565b6115ad8161407d565b5f54610100900460ff161580801561268157505f54600160ff909116105b806126a1575061269030613295565b1580156126a157505f5460ff166001145b6126bd5760405162461bcd60e51b815260040161056190615c81565b5f805460ff1916600117905580156126de575f805461ff0019166101001790555b6126e782613e5d565b801561158b575f805461ff0019169055604051600181525f80516020616ae183398151915290602001611ac1565b61271d610503565b50505050505050565b5f805f805f805f805f805f805f607b5f8f81526020019081526020015f20905080600101545f03612759575f945061282f565b5f612762611b08565b90505f6127778260725f0154629896806140c4565b90508015806127895750808360010154115b15612796575f965061282c565b60018301546071546074546073546072546075546040516314eff2dd60e11b815273__$f1b7c69ba751c396eddc93d3bbc5414fd9$__966329dfe5ba966127ea9691958b9591949293909290600401616186565b602060405180830381865af4158015612805573d5f803e3d5ffd5b505050506040513d601f19601f820116820180604052508101906128299190615fd7565b96505b50505b806005015f9054906101000a90046001600160a01b0316816004015f9054906101000a90046001600160a01b0316826006015f9054906101000a90046001600160a01b031683600101548460020154856008015f9054906101000a900460ff16866007015487600301548c896009015f336001600160a01b03166001600160a01b031681526020019081526020015f20548a601001548b600a015f01549c509c509c509c509c509c509c509c509c509c509c509c505091939597999b5091939597999b565b6040516318feeb1560e31b8152600481018290525f908190309063c7f758a89060240161018060405180830381865afa158015612933573d5f803e3d5ffd5b505050506040513d601f19601f820116820180604052508101906129579190616215565b50919d9c50505050505050505050505050565b612972610503565b505050505050565b5f868152607b602052604090208681556005810180546001600160a01b0319166001600160a01b0388161790556001808201869055600882018054869260ff19909116908360068111156129d0576129d06155cd565b0217905550600781018390556003810182905560408051808201825260018152815180830190925260048252636d65746160e01b60208381019190915281018290528051600a84019081559091600b840190612a2c9082616304565b50505050505050505050565b6117126141a8565b5f61156f60675460ff1690565b5f828152607b602090815260408083206001600160a01b0385168452600901909152812054611b01565b5f61177e826141e4565b612a8961420f565b612a928261423a565b606a54606c8054612aba926001600160a01b0316915f612ab1836161fd565b91905055614297565b607980546001600160a01b0319166001600160a01b039290921691821790556040805163204a7f0760e21b81529051638129fc1c916004808201925f9290919082900301818387803b158015612b0e575f80fd5b505af1158015612b20573d5f803e3d5ffd5b505050505f81806020019051810190612b399190616528565b60a0810151607880546001600160a01b0319166001600160a01b0392831617905560c08201519192501615612b72578060c00151612b78565b8060a001515b608380546001600160a01b0319166001600160a01b0392909216919091179055608081015151612ba7906142dd565b612bb48160e001516137e6565b60208101516076805460ff19166001836002811115612bd557612bd56155cd565b021790555060408101516076805461ff001916610100836004811115612bfd57612bfd6155cd565b021790555060608101515160775560e0810151607a80546001600160a01b039283166001600160a01b031991821617909155610140830151608080549190931691161790556101608101516082556040517ff5eb09d0087c79c1d71dcda48cad7b075c9cf56c9354addb6cab6cde6194bc6f90612c7d90859084906166aa565b60405180910390a1600281602001516002811115612c9d57612c9d6155cd565b03612de9576080546001600160a01b03161580612cba5750608254155b15612ce5576080546040516330d466e760e11b8152610561916001600160a01b0316906004016150b8565b6080546040805180820182525f808252602082018181529251630779d36560e01b81526001600160a01b039094166004850152306024850152905115156044840152905115156064830152908190736da13bde224a05a288748d857b9e7ddeffd1de0890630779d3659060840160408051808303815f875af1158015612d6d573d5f803e3d5ffd5b505050506040513d601f19601f82011682018060405250810190612d9191906167e7565b91509150811580612da957506001600160a01b038116155b15612dc75760405163946c56ed60e01b815260040160405180910390fd5b608180546001600160a01b0319166001600160a01b0392909216919091179055505b6080546081546082546040519081526001600160a01b0392831692909116907f40b1b33a11a0c5522c7983a68e1af5f98f6a1cedd1aa8b4235c1ddfd006223549060200160405180910390a36080810151602001516001600160a01b031615801590612e6257506080810151516001600160a01b031615155b15612fce576080810151805160209091015160405163446adb9960e11b81526001600160a01b03909216916388d5b73291612e9f916004016150b8565b5f604051808303815f87803b158015612eb6575f80fd5b505af1158015612ec8573d5f803e3d5ffd5b5050606f8054925090505f612edc836161fd565b909155505060808181018051606f80545f908152607f6020908152604091829020845181546001600160a01b039182166001600160a01b03199182161783558387015160018401805491841691909216179055838601516002830155606080870151600384015586890151600484015560a096870151600590930192909255935495518051818401518286015183850151848c0151948a015188519b8c52938916968b019690965296168886015291870194909452958501529183015260c082019290925290517fe677e2878aaaaf6a65ecf50f849ad58100c49f6dfd57d055ba4bddd63a175d539181900360e00190a15b805160400151158015612fe45750805160200151155b8015612ff05750805151155b8015612fff5750805160600151155b613058578051805160725560208101516073556040808201516074556060820151607555517fec9315d9f4291207475c061feff1e5d7105750ac0ee9534af9444b4ff1dab9bc9161304f91616814565b60405180910390a15b607a546001600160a01b031615611557576115578161010001516138f4565b6117126143eb565b6130876132ef565b6001600160a01b0381166130ec5760405162461bcd60e51b815260206004820152602660248201527f4f776e61626c653a206e6577206f776e657220697320746865207a65726f206160448201526564647265737360d01b6064820152608401610561565b6115ad81613e5d565b7f12ec43b97389db0cfbdf8d85f200f1b822123856376a9d75d3a6918f27c903bb90565b5f6001600160e01b03198216631add1a0d60e01b148061314957506001600160e01b0319821663088a8e8160e21b145b8061316457506001600160e01b0319821663136439dd60e01b145b8061317f57506001600160e01b031982166380c4a65f60e01b145b8061319a57506001600160e01b03198216631fa5d41d60e11b145b806131b557506001600160e01b0319821663bac1e94b60e01b145b806131d057506001600160e01b0319821663adaf157b60e01b145b806131eb57506001600160e01b031982166360b4778960e01b145b8061320657506001600160e01b031982166358c3de9360e11b145b8061322157506001600160e01b031982166304db2f3360e11b145b8061323c57506001600160e01b03198216630da748b160e41b145b8061177e57506001600160e01b03198216632d2ebbef60e01b1492915050565b5f806132688484613e9b565b91509150815f148015613279575080155b156132845750505050565b600784015560039092019190915550565b6001600160a01b03163b151590565b5f6132ad613e4c565b6003810180546001600160a01b038581166001600160a01b031983168117909355604051939450169182905f80516020616b01833981519152905f90a3505050565b5f6132f861155c565b90505f613303612545565b9050336001600160a01b038316148015906133275750336001600160a01b03821614155b1561158b5760405162461bcd60e51b815260206004820181905260248201527f4f776e61626c653a2063616c6c6572206973206e6f7420746865206f776e65726044820152606401610561565b5f5b8351811015613497575f848281518110613392576133926161c9565b60200260200101516040015190505f8583815181106133b3576133b36161c9565b60200260200101515f0151905081515f036133e3578060405163e767f91f60e01b815260040161056191906150b8565b5f8684815181106133f6576133f66161c9565b60200260200101516020015190505f6003811115613416576134166155cd565b816003811115613428576134286155cd565b0361343c5761343782846144e5565b61348c565b6001816003811115613450576134506155cd565b0361345f57613437828461466f565b6002816003811115613473576134736155cd565b036134825761343782846147cc565b61348c8284614a16565b505050600101613376565b507f8faa70878671ccd212d20771b795c50af8fd3ff6cf27f4bde57e5d4de0aeb6738383836040516134cb93929190616822565b60405180910390a16115578282614c18565b6001600160a01b038116613506578060405163538cffa360e01b815260040161056191906150b8565b6078546001600160a01b031661353c57607854604051632294771360e01b8152610561916001600160a01b0316906004016150b8565b60835460405163288c314960e21b81526001600160a01b039091169063a230c5249061356c9084906004016150b8565b602060405180830381865afa158015613587573d5f803e3d5ffd5b505050506040513d601f19601f820116820180604052508101906135ab9190615c66565b6115ad57607854604051634abc464160e11b81526105619183916001600160a01b03909116906004016168db565b7fd5d05b1f29dcb0c0e1698b0261850eb784d1243215a6aa22ea2b8128b2e9497c90565b5f80516020616ac1833981519152546001600160a01b031690565b33613621612545565b6001600160a01b0316146115ad5733613638612545565b60405163163678e960e01b81526004016105619291906168db565b7f4910fdfa16fed3260ed0e7147f7cc6da11a60208b5b9406d12a635614ffd91435460ff16156136865761155783614cda565b826001600160a01b03166352d1902d6040518163ffffffff1660e01b8152600401602060405180830381865afa9250505080156136e0575060408051601f3d908101601f191682019092526136dd91810190615fd7565b60015b6137435760405162461bcd60e51b815260206004820152602e60248201527f45524331393637557067726164653a206e657720696d706c656d656e7461746960448201526d6f6e206973206e6f74205555505360901b6064820152608401610561565b5f80516020616ac183398151915281146137b15760405162461bcd60e51b815260206004820152602960248201527f45524331393637557067726164653a20756e737570706f727465642070726f786044820152681a58589b195555525160ba1b6064820152608401610561565b50611557838383614d73565b6001600160a01b0381166115ad578060405163084c41ef60e01b815260040161056191906150b8565b6001600160a01b0381166137f75750565b60785f9054906101000a90046001600160a01b03166001600160a01b031663f86c5f896040518163ffffffff1660e01b8152600401602060405180830381865afa158015613847573d5f803e3d5ffd5b505050506040513d601f19601f8201168201806040525081019061386b9190615e99565b6001600160a01b031663f9f6b49b826040518263ffffffff1660e01b815260040161389691906150b8565b602060405180830381865afa1580156138b1573d5f803e3d5ffd5b505050506040513d601f19601f820116820180604052508101906138d59190615c66565b6115ad57806040516310c4c2c360e31b815260040161056191906150b8565b607a5460785460408051633629edcd60e11b815290516001600160a01b039384169363fc2ebdd193309387939190921691636c53db9a9160048083019260209291908290030181865afa15801561394d573d5f803e3d5ffd5b505050506040513d601f19601f820116820180604052508101906139719190615e99565b60405160e085901b6001600160e01b03191681526001600160a01b039384166004820152602481019290925290911660448201526064015f604051808303815f87803b1580156139bf575f80fd5b505af1158015611765573d5f803e3d5ffd5b5f806139dd83856168f5565b90505f811215611b0157604051631dde38a160e11b8152600481018590526024810184905260448101829052606401610561565b607a545f906001600160a01b031615613a9557607a546040516302154c3d60e51b81526001600160a01b03909116906342a987a090613a5690859030906004016168db565b602060405180830381865afa158015613a71573d5f803e3d5ffd5b505050506040513d601f19601f8201168201806040525081019061177e9190615c66565b6004607654610100900460ff166004811115613ab357613ab36155cd565b148015613ad157506078546083546001600160a01b03908116911614155b15613b065760835460405163288c314960e21b81526001600160a01b039091169063a230c52490613a569085906004016150b8565b6068546040516810531313d5d31254d560ba1b602082015260298101919091525f9060490160408051601f19818403018152908290528051602090910120607854632474521560e21b83529092506001600160a01b0316906391d1485490613b749084905f9060040161691c565b602060405180830381865afa158015613b8f573d5f803e3d5ffd5b505050506040513d601f19601f82011682018060405250810190613bb39190615c66565b80611b015750607854604051632474521560e21b81526001600160a01b03909116906391d1485490613beb908490879060040161691c565b602060405180830381865afa158015613c06573d5f803e3d5ffd5b505050506040513d601f19601f82011682018060405250810190611b019190615c66565b60785f9054906101000a90046001600160a01b03166001600160a01b0316636c53db9a6040518163ffffffff1660e01b8152600401602060405180830381865afa158015613c7a573d5f803e3d5ffd5b505050506040513d601f19601f82011682018060405250810190613c9e9190615e99565b6001600160a01b0316336001600160a01b031614158015613cc55750613cc333613a11565b155b156117125760785460408051633629edcd60e11b8152905133926001600160a01b031691636c53db9a9160048083019260209291908290030181865afa158015613d11573d5f803e3d5ffd5b505050506040513d601f19601f82011682018060405250810190613d359190615e99565b604051637d19bac760e11b81526004016105619291906168db565b6078545f906001600160a01b0316613d685750600190565b6078546040515f9182916001600160a01b0390911690633a871fe160e01b90613d959030906024016150b8565b60408051601f198184030181529181526020820180516001600160e01b03166001600160e01b0319909416939093179092529051613dd39190616933565b5f60405180830381855afa9150503d805f8114613e0b576040519150601f19603f3d011682016040523d82523d5f602084013e613e10565b606091505b5091509150811580613e23575060208151105b15613e315760019250505090565b80806020019051810190613e459190615c66565b9250505090565b5f80516020616a3583398151915290565b603380546001600160a01b038381166001600160a01b0319831681179093556040519116919082905f80516020616b01833981519152905f90a35050565b5f80613ea5613d50565b613eb6575050600382015443612513565b4390508084600701541115613ecd57613ecd61694e565b80846007015403613ee257505f905080612513565b73__$f1b7c69ba751c396eddc93d3bbc5414fd9$__63010dfe64856007015483613f0c91906161b6565b60038701546074546040516001600160e01b031960e086901b168152613f389392918991600401615564565b602060405180830381865af4158015613f53573d5f803e3d5ffd5b505050506040513d601f19601f82011682018060405250810190613f779190615fd7565b91509250929050565b5f818152607b60205260408120541580159061177e5750505f908152607b60205260409020600501546001600160a01b0316151590565b5f828152607b60205260408120908213801561405257505f600882015460ff166006811115613fe857613fe86155cd565b148061400c57506003600882015460ff16600681111561400a5761400a6155cd565b145b8061402f57506004600882015460ff16600681111561402d5761402d6155cd565b145b8061405257506006600882015460ff166006811115614050576140506155cd565b145b156115575760088101546040516394d57ead60e01b815261056191859160ff90911690600401616962565b6067805460ff19168215159081179091556040519081527fd94c9bc4d43c51d8dc345a016d8e3d994432fac68e72832e4cf3a616bd8efae09060200160405180910390a150565b5f80805f19858709858702925082811083820303915050805f036140fb578382816140f1576140f1616129565b0492505050611b01565b8084116141425760405162461bcd60e51b81526020600482015260156024820152744d6174683a206d756c446976206f766572666c6f7760581b6044820152606401610561565b5f84868809600260036001881981018916988990049182028318808302840302808302840302808302840302808302840302808302840302918202909203025f889003889004909101858311909403939093029303949094049190911702949350505050565b6078546001600160a01b03163314611712576078546040516317d39bcb60e21b81526105619133916001600160a01b03909116906004016168db565b5f6141f2629896808361615c565b6141fa611b08565b607254614207919061615c565b111592915050565b6065546001600160a01b031633146117125760405163075fd2b160e01b815260040160405180910390fd5b5f356001600160e01b03191661424e575f80fd5b61425661420f565b606854156142775760405163439a74c960e01b815260040160405180910390fd5b805f0361102957604051637fcce2a960e01b815260040160405180910390fd5b6040516001600160601b03193360601b166020820152603481018290525f908190605401604051602081830303815290604052805190602001209050611fb88482614d97565b6001600160a01b0381166142ee5750565b60785f9054906101000a90046001600160a01b03166001600160a01b031663f86c5f896040518163ffffffff1660e01b8152600401602060405180830381865afa15801561433e573d5f803e3d5ffd5b505050506040513d601f19601f820116820180604052508101906143629190615e99565b6001600160a01b031663f9f6b49b826040518263ffffffff1660e01b815260040161438d91906150b8565b602060405180830381865afa1580156143a8573d5f803e3d5ffd5b505050506040513d601f19601f820116820180604052508101906143cc9190615c66565b6115ad57806040516302bc866560e61b815260040161056191906150b8565b60785f9054906101000a90046001600160a01b03166001600160a01b0316636c53db9a6040518163ffffffff1660e01b8152600401602060405180830381865afa15801561443b573d5f803e3d5ffd5b505050506040513d601f19601f8201168201806040525081019061445f9190615e99565b6001600160a01b0316336001600160a01b0316141580156144995750614483612545565b6001600160a01b0316336001600160a01b031614155b156117125760785460408051633629edcd60e11b8152905133926001600160a01b031691636c53db9a9160048083019260209291908290030181865afa1580156119fb573d5f803e3d5ffd5b6001600160a01b03821661450e57806040516302b8da0760e21b81526004016105619190616976565b5f614517613e4c565b90505f8160010180549050905061454684604051806060016040528060248152602001616a5560249139614e2b565b5f5b8351811015611765575f848281518110614564576145646161c9565b6020908102919091018101516001600160e01b031981165f908152918690526040909120549091506001600160a01b031680156145b6578160405163ebbf5d0760e01b81526004016105619190615066565b6040805180820182526001600160a01b03808a16825261ffff80881660208085019182526001600160e01b031988165f9081528b8252958620945185549251909316600160a01b026001600160b01b0319909216929093169190911717909155600180880180549182018155835291206008820401805460e085901c60046007909416939093026101000a92830263ffffffff90930219169190911790558361465e816161dd565b945050600190920191506145489050565b5f614678613e4c565b90506001600160a01b0383166146a3578160405163cd98a96f60e01b81526004016105619190616976565b6146c583604051806060016040528060288152602001616b4860289139614e2b565b5f5b82518110156115b8575f8382815181106146e3576146e36161c9565b6020908102919091018101516001600160e01b031981165f908152918590526040909120549091506001600160a01b03163081036147365781604051632901806d60e11b81526004016105619190615066565b856001600160a01b0316816001600160a01b03160361476a5781604051631ac6ce8d60e11b81526004016105619190615066565b6001600160a01b0381166147935781604051637479f93960e01b81526004016105619190615066565b506001600160e01b0319165f90815260208390526040902080546001600160a01b0319166001600160a01b0386161790556001016146c7565b5f6147d5613e4c565b60018101549091506001600160a01b03841615614807578360405163d091bc8160e01b815260040161056191906150b8565b5f5b8351811015611765575f848281518110614825576148256161c9565b6020908102919091018101516001600160e01b031981165f9081528683526040908190208151808301909252546001600160a01b038116808352600160a01b90910461ffff1693820193909352909250906148955781604051637a08a22d60e01b81526004016105619190615066565b8051306001600160a01b03909116036148c35781604051630df5fd6160e31b81526004016105619190615066565b836148cd816169c3565b94505083816020015161ffff16146149a7575f8560010185815481106148f5576148f56161c9565b905f5260205f2090600891828204019190066004029054906101000a900460e01b90508086600101836020015161ffff1681548110614936576149366161c9565b5f91825260208083206008830401805463ffffffff60079094166004026101000a938402191660e09590951c92909202939093179055838201516001600160e01b03199390931681529087905260409020805461ffff60a01b1916600160a01b61ffff909316929092029190911790555b846001018054806149ba576149ba6169d8565b5f828152602080822060085f1990940193840401805463ffffffff600460078716026101000a0219169055919092556001600160e01b0319909316815291859052506040902080546001600160b01b0319169055600101614809565b6001600160a01b038216614a3f57806040516302b8da0760e21b81526004016105619190616976565b5f614a48613e4c565b9050614a6c83604051806060016040528060258152602001616a1060259139614e2b565b5f82516001600160401b03811115614a8657614a86615126565b604051908082528060200260200182016040528015614aaf578160200160208202803683370190505b5090505f8084516001600160401b03811115614acd57614acd615126565b604051908082528060200260200182016040528015614af6578160200160208202803683370190505b5090505f805b8651811015614be5575f878281518110614b1857614b186161c9565b6020908102919091018101516001600160e01b031981165f908152918990526040909120549091506001600160a01b031680614b8a57818787614b5a816161fd565b985081518110614b6c57614b6c6161c9565b6001600160e01b031990921660209283029190910190910152614bdb565b896001600160a01b0316816001600160a01b031614614bdb57818585614baf816161fd565b965081518110614bc157614bc16161c9565b6001600160e01b0319909216602092830291909101909101525b5050600101614afc565b508215614bff57614bff87614bfa8686614e52565b6144e5565b801561271d5761271d87614c138484614e52565b61466f565b6001600160a01b038216614c2a575050565b614c4c82604051806060016040528060288152602001616a7960289139614e2b565b5f80836001600160a01b031683604051614c669190616933565b5f60405180830381855af49150503d805f8114614c9e576040519150601f19603f3d011682016040523d82523d5f602084013e614ca3565b606091505b5091509150816115b857805115614cbd5780518082602001fd5b838360405163192105d760e01b81526004016105619291906169ec565b614ce381613295565b614d455760405162461bcd60e51b815260206004820152602d60248201527f455243313936373a206e657720696d706c656d656e746174696f6e206973206e60448201526c1bdd08184818dbdb9d1c9858dd609a1b6064820152608401610561565b5f80516020616ac183398151915280546001600160a01b0319166001600160a01b0392909216919091179055565b614d7c83614ef8565b5f82511180614d885750805b15611557576115b88383614f37565b5f763d602d80600a3d3981f3363d3d373d3d3d363d730000008360601b60e81c175f526e5af43d82803e903d91602b57fd5bf38360781b1760205281603760095ff590506001600160a01b03811661177e5760405162461bcd60e51b8152602060048201526017602482015276115490cc4c4d8dce8818dc99585d194c8819985a5b1959604a1b6044820152606401610561565b813b5f81900361155757828260405163919834b960e01b81526004016105619291906169ec565b60605f826001600160401b03811115614e6d57614e6d615126565b604051908082528060200260200182016040528015614e96578160200160208202803683370190505b5090505f5b83811015614ef057848181518110614eb557614eb56161c9565b6020026020010151828281518110614ecf57614ecf6161c9565b6001600160e01b031990921660209283029190910190910152600101614e9b565b509392505050565b614f0181614cda565b6040516001600160a01b038216907fbc7cd75a20ee27fd9adebab32041f755214dbc6bffa90cc0225b39da2e5c2d3b905f90a250565b6060611b018383604051806060016040528060278152602001616b216027913960605f80856001600160a01b031685604051614f739190616933565b5f60405180830381855af49150503d805f8114614fab576040519150601f19603f3d011682016040523d82523d5f602084013e614fb0565b606091505b5091509150614fc186838387614fcb565b9695505050505050565b606083156150375782515f0361503057614fe485613295565b6150305760405162461bcd60e51b815260206004820152601d60248201527f416464726573733a2063616c6c20746f206e6f6e2d636f6e74726163740000006044820152606401610561565b5081611fb8565b611fb8838381511561504c5781518083602001fd5b8060405162461bcd60e51b81526004016105619190615698565b6001600160e01b031991909116815260200190565b80356001600160e01b031981168114611598575f80fd5b5f602082840312156150a2575f80fd5b611b018261507b565b6001600160a01b03169052565b6001600160a01b0391909116815260200190565b6001600160a01b03811681146115ad575f80fd5b8035611598816150cc565b5f602082840312156150fb575f80fd5b8135611b01816150cc565b5f8060408385031215615117575f80fd5b50508035926020909101359150565b634e487b7160e01b5f52604160045260245ffd5b604080519081016001600160401b038111828210171561515c5761515c615126565b60405290565b604051608081016001600160401b038111828210171561515c5761515c615126565b60405160c081016001600160401b038111828210171561515c5761515c615126565b604051606081016001600160401b038111828210171561515c5761515c615126565b60405161018081016001600160401b038111828210171561515c5761515c615126565b604051601f8201601f191681016001600160401b038111828210171561521357615213615126565b604052919050565b5f6001600160401b0382111561523357615233615126565b5060051b60200190565b5f82601f83011261524c575f80fd5b8135602061526161525c8361521b565b6151eb565b8083825260208201915060208460051b870101935086841115615282575f80fd5b602086015b848110156152a757803561529a816150cc565b8352918301918301615287565b509695505050505050565b5f6001600160401b038211156152ca576152ca615126565b50601f01601f191660200190565b5f82601f8301126152e7575f80fd5b81356152f561525c826152b2565b818152846020838601011115615309575f80fd5b816020850160208301375f918101602001919091529392505050565b5f805f60608486031215615337575f80fd5b83356001600160401b038082111561534d575f80fd5b6153598783880161523d565b9450602086013591508082111561536e575f80fd5b5061537b868287016152d8565b925050604084013561538c816150cc565b809150509250925092565b5f602082840312156153a7575f80fd5b5035919050565b5f805f80608085870312156153c1575f80fd5b8435935060208501356001600160401b03808211156153de575f80fd5b90860190604082890312156153f1575f80fd5b6153f961513a565b8235815260208301358281111561540e575f80fd5b61541a8a8286016152d8565b602083015250945050506040850135615432816150cc565b9396929550929360600135925050565b5f805f60608486031215615454575f80fd5b833561545f816150cc565b9250602084013561546f816150cc565b9150604084013561538c816150cc565b5f8083601f84011261548f575f80fd5b5081356001600160401b038111156154a5575f80fd5b602083019150836020828501011115612513575f80fd5b5f805f805f606086880312156154d0575f80fd5b85356001600160401b03808211156154e6575f80fd5b818801915088601f8301126154f9575f80fd5b813581811115615507575f80fd5b8960208260051b850101111561551b575f80fd5b60208301975080965050615531602089016150e0565b94506040880135915080821115615546575f80fd5b506155538882890161547f565b969995985093965092949392505050565b93845260208401929092526040830152606082015260800190565b5f8060408385031215615590575f80fd5b82356001600160401b038111156155a5575f80fd5b6155b1858286016152d8565b92505060208301356155c2816150cc565b809150509250929050565b634e487b7160e01b5f52602160045260245ffd5b600581106155f1576155f16155cd565b9052565b6020810161177e82846155e1565b5f8060408385031215615614575f80fd5b823561561f816150cc565b946020939093013593505050565b600381106155f1576155f16155cd565b6020810161177e828461562d565b5f5b8381101561566557818101518382015260200161564d565b50505f910152565b5f815180845261568481602086016020860161564b565b601f01601f19169290920160200192915050565b602081525f611b01602083018461566d565b600581106115ad575f80fd5b5f602082840312156156c6575f80fd5b8135611b01816156aa565b5f80604083850312156156e2575f80fd5b82356156ed816150cc565b915060208301356001600160401b03811115615707575f80fd5b615713858286016152d8565b9150509250929050565b5f6080828403121561572d575f80fd5b615735615162565b90508135815260208201356020820152604082013560408201526060820135606082015292915050565b5f6080828403121561576f575f80fd5b611b01838361571d565b5f805f6060848603121561578b575f80fd5b8335615796816150cc565b925060208401356001600160401b038111156157b0575f80fd5b61537b868287016152d8565b5f815180845260208085019450602084015f5b838110156157f55781516001600160e01b031916875295820195908201906001016157cf565b509495945050505050565b5f60208083018184528085518083526040925060408601915060408160051b8701018488015f5b8381101561586f57888303603f19018552815180516001600160a01b0316845287015187840187905261585c878501826157bc565b9588019593505090860190600101615827565b509098975050505050505050565b5f806040838503121561588e575f80fd5b61561f8361507b565b5f805f606084860312156158a9575f80fd5b8335925060208401356158bb816150cc565b929592945050506040919091013590565b5f805f805f606086880312156158e0575f80fd5b8535945060208601356001600160401b03808211156158fd575f80fd5b61590989838a0161547f565b90965094506040880135915080821115615546575f80fd5b80151581146115ad575f80fd5b5f6020828403121561593e575f80fd5b8135611b0181615921565b5f60c08284031215615959575f80fd5b615961615184565b9050813561596e816150cc565b8152602082013561597e816150cc565b8060208301525060408201356040820152606082013560608201526080820135608082015260a082013560a082015292915050565b5f805f805f805f6101e0888a0312156159ca575f80fd5b6159d48989615949565b96506159e38960c08a0161571d565b955061014088013594506101608801356001600160401b0380821115615a07575f80fd5b615a138b838c0161523d565b95506101808a0135915080821115615a29575f80fd5b50615a368a828b0161523d565b9350506101a0880135615a48816150cc565b809250506101c0880135905092959891949750929550565b600781106155f1576155f16155cd565b6001600160a01b038d811682528c811660208301528b166040820152606081018a9052608081018990526101808101615aac60a083018a615a60565b8760c08301528660e0830152856101008301528461012083015283610140830152826101608301529d9c50505050505050505050505050565b5f805f805f806101c08789031215615afb575f80fd5b615b058888615949565b9550615b148860c0890161571d565b945061014087013593506101608701356001600160401b0380821115615b38575f80fd5b615b448a838b0161523d565b9450610180890135915080821115615b5a575f80fd5b50615b6789828a0161523d565b9250506101a0870135615b79816150cc565b809150509295509295509295565b600781106115ad575f80fd5b5f805f805f8060c08789031215615ba8575f80fd5b863595506020870135615bba816150cc565b9450604087013593506060870135615bd181615b87565b9598949750929560808101359460a0909101359350915050565b5f8060408385031215615bfc575f80fd5b8235915060208301356155c2816150cc565b5f8060408385031215615c1f575f80fd5b8235915060208301356001600160401b03811115615707575f80fd5b5f8060e08385031215615c4c575f80fd5b82359150615c5d8460208501615949565b90509250929050565b5f60208284031215615c76575f80fd5b8151611b0181615921565b6020808252602e908201527f496e697469616c697a61626c653a20636f6e747261637420697320616c72656160408201526d191e481a5b9a5d1a585b1a5e995960921b606082015260800190565b5f615cdc61525c8461521b565b83815260208082019190600586811b860136811115615cf9575f80fd5b865b81811015615de25780356001600160401b0380821115615d19575f80fd5b818a01915060608236031215615d2d575f80fd5b615d356151a6565b8235615d40816150cc565b81528287013560048110615d52575f80fd5b8188015260408381013583811115615d68575f80fd5b939093019236601f850112615d7b575f80fd5b83359250615d8b61525c8461521b565b83815292871b84018801928881019036851115615da6575f80fd5b948901945b84861015615dcb57615dbc8661507b565b82529489019490890190615dab565b918301919091525088525050948301948301615cfb565b5092979650505050505050565b600181811c90821680615e0357607f821691505b602082108103615e2157634e487b7160e01b5f52602260045260245ffd5b50919050565b6020808252602c908201525f80516020616aa183398151915260408201526b19195b1959d85d1958d85b1b60a21b606082015260800190565b6020808252602c908201525f80516020616aa183398151915260408201526b6163746976652070726f787960a01b606082015260800190565b5f60208284031215615ea9575f80fd5b8151611b01816150cc565b8051611598816150cc565b5f6020808385031215615ed0575f80fd5b82516001600160401b0380821115615ee6575f80fd5b9084019060c08287031215615ef9575f80fd5b615f01615184565b8251815283830151615f12816150cc565b818501526040830151615f24816150cc565b6040820152606083015182811115615f3a575f80fd5b830160408189031215615f4b575f80fd5b615f5361513a565b815181528582015184811115615f67575f80fd5b82019350601f84018913615f79575f80fd5b83519150615f8961525c836152b2565b8281528987848701011115615f9c575f80fd5b615fab8388830189880161564b565b95810195909552506060810193909352506080818101519083015260a090810151908201529392505050565b5f60208284031215615fe7575f80fd5b5051919050565b5f60208284031215615ffe575f80fd5b815160ff81168114611b01575f80fd5b634e487b7160e01b5f52601160045260245ffd5b60ff828116828216039081111561177e5761177e61600e565b600181815b8085111561607557815f190482111561605b5761605b61600e565b8085161561606857918102915b93841c9390800290616040565b509250929050565b5f8261608b5750600161177e565b8161609757505f61177e565b81600181146160ad57600281146160b7576160d3565b600191505061177e565b60ff8411156160c8576160c861600e565b50506001821b61177e565b5060208310610133831016604e8410600b84101617156160f6575081810a61177e565b616100838361603b565b805f19048211156161135761611361600e565b029392505050565b5f611b0160ff84168361607d565b634e487b7160e01b5f52601260045260245ffd5b5f8261615757634e487b7160e01b5f52601260045260245ffd5b500490565b808202811582820484141761177e5761177e61600e565b8082018082111561177e5761177e61600e565b968752602087019590955260408601939093526060850191909152608084015260a083015260c082015260e00190565b8181038181111561177e5761177e61600e565b634e487b7160e01b5f52603260045260245ffd5b5f61ffff8083168181036161f3576161f361600e565b6001019392505050565b5f6001820161620e5761620e61600e565b5060010190565b5f805f805f805f805f805f806101808d8f031215616231575f80fd5b8c5161623c816150cc565b60208e0151909c5061624d816150cc565b60408e0151909b5061625e816150cc565b809a505060608d0151985060808d0151975060a08d015161627e81615b87565b8097505060c08d0151955060e08d015194506101008d015193506101208d015192506101408d015191506101608d015190509295989b509295989b509295989b565b601f82111561155757805f5260205f20601f840160051c810160208510156162e55750805b601f840160051c820191505b81811015611765575f81556001016162f1565b81516001600160401b0381111561631d5761631d615126565b6163318161632b8454615def565b846162c0565b602080601f831160018114616364575f841561634d5750858301515b5f19600386901b1c1916600185901b178555612972565b5f85815260208120601f198616915b8281101561639257888601518255948401946001909101908401616373565b50858210156163af57878501515f19600388901b60f8161c191681555b5050505050600190811b01905550565b5f608082840312156163cf575f80fd5b6163d7615162565b90508151815260208201516020820152604082015160408201526060820151606082015292915050565b805160038110611598575f80fd5b8051611598816156aa565b5f6020828403121561642a575f80fd5b604051602081016001600160401b038111828210171561644c5761644c615126565b6040529151825250919050565b5f60c08284031215616469575f80fd5b616471615184565b9050815161647e816150cc565b8152602082015161648e816150cc565b8060208301525060408201516040820152606082015160608201526080820151608082015260a082015160a082015292915050565b5f82601f8301126164d2575f80fd5b815160206164e261525c8361521b565b8083825260208201915060208460051b870101935086841115616503575f80fd5b602086015b848110156152a757805161651b816150cc565b8352918301918301616508565b5f60208284031215616538575f80fd5b81516001600160401b038082111561654e575f80fd5b908301906102808286031215616562575f80fd5b61656a6151c8565b61657486846163bf565b815261658260808401616401565b602082015261659360a0840161640f565b60408201526165a58660c0850161641a565b60608201526165b78660e08501616459565b60808201526165c96101a08401615eb4565b60a08201526165db6101c08401615eb4565b60c08201526165ed6101e08401615eb4565b60e082015261020083015161010082015261022083015182811115616610575f80fd5b61661c878286016164c3565b610120830152506166306102408401615eb4565b6101408201526102609290920151610160830152509392505050565b805182526020810151602083015260408101516040830152606081015160608301525050565b5f815180845260208085019450602084015f5b838110156157f55781516001600160a01b031687529582019590820190600101616685565b828152604060208201526166c260408201835161664c565b5f60208301516166d560c084018261562d565b5060408301516166e860e08401826155e1565b5060608301516101006166fd81850183519052565b60808581015180516001600160a01b0390811661012088810191909152602083015190911661014088015260408201516101608801526060820151610180880152918101516101a087015260a0908101516101c087015286015192506167676101e08601846150ab565b60c0860151925061677c6102008601846150ab565b60e086015192506167916102208601846150ab565b9085015161024085015284015161028061026085018190529091506167ba6102c0850183616672565b91506101408501516167ce828601826150ab565b50506101608401516102a0840152809150509392505050565b5f80604083850312156167f8575f80fd5b825161680381615921565b60208401519092506155c2816150cc565b6080810161177e828461664c565b5f60608083016060845280875180835260808601915060808160051b87010192506020808a015f5b838110156168ad57888603607f19018552815180516001600160a01b03168752838101516004811061687e5761687e6155cd565b8785015260409081015190870188905261689a888801826157bc565b965050938201939082019060010161684a565b50506168bb8188018a6150ab565b50505083810360408501526168d0818661566d565b979650505050505050565b6001600160a01b0392831681529116602082015260400190565b8082018281125f8312801582168215821617156169145761691461600e565b505092915050565b9182526001600160a01b0316602082015260400190565b5f825161694481846020870161564b565b9190910192915050565b634e487b7160e01b5f52600160045260245ffd5b82815260408101611b016020830184615a60565b602080825282518282018190525f9190848201906040850190845b818110156169b75783516001600160e01b03191683529284019291840191600101616991565b50909695505050505050565b5f816169d1576169d161600e565b505f190190565b634e487b7160e01b5f52603160045260245ffd5b6001600160a01b03831681526040602082018190525f90611fb89083018461566d56fe4c69624469616d6f6e644375743a204175746f20666163657420686173206e6f20636f6465c8fcad8db84d3cc18b4c41d551ea0ee66dd599cde068d998e57d5e09332c131c4c69624469616d6f6e644375743a2041646420666163657420686173206e6f20636f64654c69624469616d6f6e644375743a205f696e6974206164647265737320686173206e6f20636f646546756e6374696f6e206d7573742062652063616c6c6564207468726f75676820360894a13ba1a3210667c828492db98dca3e2076cc3735a920a3ca505d382bbc7f26b83ff96e1f2b6a682f133852f6798a09c465da95921460cefb38474024988be0079c531659141344cd1fd0a4f28419497f9722a3daafe3b4186f6b6457e0416464726573733a206c6f772d6c6576656c2064656c65676174652063616c6c206661696c65644c69624469616d6f6e644375743a205265706c61636520666163657420686173206e6f20636f6465a164736f6c6343000817000a","linkReferences":{"pkg/contracts/src/CVStrategy/ConvictionsUtils.sol":{"ConvictionsUtils":[{"start":8287,"length":20},{"start":8445,"length":20},{"start":10449,"length":20},{"start":16380,"length":20}]}}},"methodIdentifiers":{"DISPUTE_COOLDOWN_SEC()":"f5be3f7c","NATIVE()":"a0cf0aea","RULING_OPTIONS()":"626c47e8","activatePoints()":"814516ad","allocate(bytes,address)":"ef2920fc","arbitrableConfigs(uint256)":"41bb7605","calculateProposalConviction(uint256)":"60b0645a","calculateThreshold(uint256)":"59a5db8b","cancelProposal(uint256)":"e0a8f6f5","cloneNonce()":"33960459","collateralVault()":"0bece79c","connectSuperfluidGDA(address)":"924e6704","currentArbitrableConfigVersion()":"125fd1d9","cvParams()":"2506b870","deactivatePoints()":"1ddf1e23","deactivatePoints(address)":"6453d9c4","decreasePower(address,uint256)":"2ed04b2b","diamondCut((address,uint8,bytes4[])[],address,bytes)":"1f931c1c","disconnectSuperfluidGDA(address)":"c69271ec","disputeCount()":"a28889e1","disputeIdToProposalId(uint256)":"255ffb38","disputeProposal(uint256,string,bytes)":"b41596ec","distribute(address[],bytes,address)":"0a6f0ee9","editProposal(uint256,(uint256,string),address,uint256)":"141e3b38","exposedApplyDelta(uint256,int256)":"49b25778","exposedCalculateAndSetConviction(uint256,uint256)":"096d2870","exposedCanExecuteAction(address)":"4e899d5f","exposedCheckBlockAndCalculateConviction(uint256,uint256)":"85c504dd","exposedCheckProposalAllocationValidity(uint256,int256)":"ab7716d8","exposedCheckSenderIsMember(address)":"291e5123","exposedIsOverMaxRatio(uint256)":"ec9f5f3d","exposedOnlyCouncilSafe()":"f01a809c","exposedOnlyCouncilSafeOrMember()":"52b20050","exposedOnlyRegistryCommunity()":"dd439bd3","exposedProposalExists(uint256)":"91bfd37b","getAllo()":"15cc481e","getArbitrableConfig()":"059351cd","getFacets()":"662ea47d","getMaxAmount()":"0ba95909","getPointSystem()":"c3292171","getPoolAmount()":"4ab4ba42","getPoolId()":"38fff2d0","getProposal(uint256)":"c7f758a8","getProposalMetadataPointer(uint256)":"3587c79b","getProposalStakedAmount(uint256)":"dc96ff2d","getProposalThreshold(uint256)":"d1045aa9","getProposalVoterStake(uint256,address)":"e0dd2c38","increasePower(address,uint256)":"782aadff","init(address,address,address)":"184b9559","init(address,string,address)":"60d5dedc","initialize(address)":"c4d66de8","initialize(uint256,bytes)":"edd146cc","isPaused()":"b187bd26","isPaused(bytes4)":"09b65e66","isPoolActive()":"df868ed3","lastRebalanceAt()":"2cea13f9","owner()":"8da5cb5b","pause(bytes4,uint256)":"80c4a65f","pause(uint256)":"136439dd","pauseController()":"60b47789","pauseFacet()":"adaf157b","pausedSelectorUntil(bytes4)":"2d2ebbef","pausedUntil()":"da748b10","pointConfig()":"a47ff7e5","pointSystem()":"2dbd6fdd","proposalCounter()":"0c0512e9","proposalType()":"351d9f96","proxiableUUID()":"52d1902d","proxyOwner()":"025313a2","rebalance()":"7d7c2a1c","rebalanceCooldown()":"b3de272d","registerRecipient(bytes,address)":"2bbe0cae","registryCommunity()":"6003e414","renounceOwnership()":"715018a6","rule(uint256,uint256)":"311a6c56","setAllo(address)":"3c092330","setArbitrableConfig(uint256,(address,address,uint256,uint256,uint256,uint256))":"ff3db2ce","setCollateralVaultTemplate(address)":"b0d3713a","setCollateralVaultTemplateRaw(address)":"a0449bf3","setCvParams((uint256,uint256,uint256,uint256))":"56c78699","setPauseController(address)":"1add1a0d","setPauseFacet(address)":"222a3a04","setPointConfig(uint256)":"60ec51aa","setPointSystem(uint8)":"46de35c8","setPoolActive(bool)":"b5f620ce","setPoolId(uint256)":"ac78012c","setPoolParams((address,address,uint256,uint256,uint256,uint256),(uint256,uint256,uint256,uint256),uint256,address[],address[],address)":"d5b7cc54","setPoolParams((address,address,uint256,uint256,uint256,uint256),(uint256,uint256,uint256,uint256),uint256,address[],address[],address,uint256)":"c6cdc980","setProposal(uint256,address,uint256,uint8,uint256,uint256)":"db711460","setProposalStakedAmount(uint256,uint256)":"5bee0ec8","setProposalVoterStake(uint256,address,uint256)":"a385ea64","setRegistryCommunity(address)":"058aca44","setSuperfluidToken(address)":"8b83075e","setSybilScorer(address)":"ac1ed7b9","setSybilScorer(address,uint256)":"3864d366","setTotalPointsActivated(uint256)":"cb22c4e4","setVotingPowerRegistry(address)":"170aba0d","streamingEscrow(uint256)":"b04b5b26","streamingRatePerSecond()":"94573cbb","superfluidGDA()":"1b36f56f","superfluidToken()":"05caa7f3","supportsInterface(bytes4)":"01ffc9a7","sybilScorer()":"b6c61f31","totalPointsActivated()":"aba9ffee","totalStaked()":"817b1cd2","totalVoterStakePct(address)":"5db64b99","transferOwnership(address)":"f2fde38b","unpause()":"3f4ba83a","unpause(bytes4)":"bac1e94b","updateProposalConviction(uint256)":"1aa91a9e","upgradeTo(address)":"3659cfe6","upgradeToAndCall(address,bytes)":"4f1ef286","voterStakedProposals(address,uint256)":"868c57b8","votingPowerRegistry()":"80fd91cd"},"storageLayout":{"storage":[{"astId":53054,"contract":"pkg/contracts/test/helpers/CVStrategyHelpers.sol:CVStrategyHarness","label":"_initialized","offset":0,"slot":"0","type":"t_uint8"},{"astId":53057,"contract":"pkg/contracts/test/helpers/CVStrategyHelpers.sol:CVStrategyHarness","label":"_initializing","offset":1,"slot":"0","type":"t_bool"},{"astId":53759,"contract":"pkg/contracts/test/helpers/CVStrategyHelpers.sol:CVStrategyHarness","label":"__gap","offset":0,"slot":"1","type":"t_array(t_uint256)50_storage"},{"astId":52846,"contract":"pkg/contracts/test/helpers/CVStrategyHelpers.sol:CVStrategyHarness","label":"_owner","offset":0,"slot":"51","type":"t_address"},{"astId":52966,"contract":"pkg/contracts/test/helpers/CVStrategyHelpers.sol:CVStrategyHarness","label":"__gap","offset":0,"slot":"52","type":"t_array(t_uint256)49_storage"},{"astId":110279,"contract":"pkg/contracts/test/helpers/CVStrategyHelpers.sol:CVStrategyHarness","label":"allo","offset":0,"slot":"101","type":"t_contract(IAllo)2631"},{"astId":110281,"contract":"pkg/contracts/test/helpers/CVStrategyHelpers.sol:CVStrategyHarness","label":"strategyId","offset":0,"slot":"102","type":"t_bytes32"},{"astId":110283,"contract":"pkg/contracts/test/helpers/CVStrategyHelpers.sol:CVStrategyHarness","label":"poolActive","offset":0,"slot":"103","type":"t_bool"},{"astId":110285,"contract":"pkg/contracts/test/helpers/CVStrategyHelpers.sol:CVStrategyHarness","label":"poolId","offset":0,"slot":"104","type":"t_uint256"},{"astId":110287,"contract":"pkg/contracts/test/helpers/CVStrategyHelpers.sol:CVStrategyHarness","label":"poolAmount","offset":0,"slot":"105","type":"t_uint256"},{"astId":111021,"contract":"pkg/contracts/test/helpers/CVStrategyHelpers.sol:CVStrategyHarness","label":"collateralVaultTemplate","offset":0,"slot":"106","type":"t_address"},{"astId":111023,"contract":"pkg/contracts/test/helpers/CVStrategyHelpers.sol:CVStrategyHarness","label":"surpressStateMutabilityWarning","offset":0,"slot":"107","type":"t_uint256"},{"astId":111025,"contract":"pkg/contracts/test/helpers/CVStrategyHelpers.sol:CVStrategyHarness","label":"cloneNonce","offset":0,"slot":"108","type":"t_uint256"},{"astId":111027,"contract":"pkg/contracts/test/helpers/CVStrategyHelpers.sol:CVStrategyHarness","label":"disputeCount","offset":0,"slot":"109","type":"t_uint64"},{"astId":111029,"contract":"pkg/contracts/test/helpers/CVStrategyHelpers.sol:CVStrategyHarness","label":"proposalCounter","offset":0,"slot":"110","type":"t_uint256"},{"astId":111031,"contract":"pkg/contracts/test/helpers/CVStrategyHelpers.sol:CVStrategyHarness","label":"currentArbitrableConfigVersion","offset":0,"slot":"111","type":"t_uint256"},{"astId":111033,"contract":"pkg/contracts/test/helpers/CVStrategyHelpers.sol:CVStrategyHarness","label":"totalStaked","offset":0,"slot":"112","type":"t_uint256"},{"astId":111035,"contract":"pkg/contracts/test/helpers/CVStrategyHelpers.sol:CVStrategyHarness","label":"totalPointsActivated","offset":0,"slot":"113","type":"t_uint256"},{"astId":111038,"contract":"pkg/contracts/test/helpers/CVStrategyHelpers.sol:CVStrategyHarness","label":"cvParams","offset":0,"slot":"114","type":"t_struct(CVParams)115347_storage"},{"astId":111041,"contract":"pkg/contracts/test/helpers/CVStrategyHelpers.sol:CVStrategyHarness","label":"proposalType","offset":0,"slot":"118","type":"t_enum(ProposalType)115247"},{"astId":111044,"contract":"pkg/contracts/test/helpers/CVStrategyHelpers.sol:CVStrategyHarness","label":"pointSystem","offset":1,"slot":"118","type":"t_enum(PointSystem)115253"},{"astId":111047,"contract":"pkg/contracts/test/helpers/CVStrategyHelpers.sol:CVStrategyHarness","label":"pointConfig","offset":0,"slot":"119","type":"t_struct(PointSystemConfig)115324_storage"},{"astId":111050,"contract":"pkg/contracts/test/helpers/CVStrategyHelpers.sol:CVStrategyHarness","label":"registryCommunity","offset":0,"slot":"120","type":"t_contract(RegistryCommunity)128146"},{"astId":111053,"contract":"pkg/contracts/test/helpers/CVStrategyHelpers.sol:CVStrategyHarness","label":"collateralVault","offset":0,"slot":"121","type":"t_contract(ICollateralVault)134109"},{"astId":111056,"contract":"pkg/contracts/test/helpers/CVStrategyHelpers.sol:CVStrategyHarness","label":"sybilScorer","offset":0,"slot":"122","type":"t_contract(ISybilScorer)125264"},{"astId":111061,"contract":"pkg/contracts/test/helpers/CVStrategyHelpers.sol:CVStrategyHarness","label":"proposals","offset":0,"slot":"123","type":"t_mapping(t_uint256,t_struct(Proposal)115316_storage)"},{"astId":111065,"contract":"pkg/contracts/test/helpers/CVStrategyHelpers.sol:CVStrategyHarness","label":"totalVoterStakePct","offset":0,"slot":"124","type":"t_mapping(t_address,t_uint256)"},{"astId":111070,"contract":"pkg/contracts/test/helpers/CVStrategyHelpers.sol:CVStrategyHarness","label":"voterStakedProposals","offset":0,"slot":"125","type":"t_mapping(t_address,t_array(t_uint256)dyn_storage)"},{"astId":111074,"contract":"pkg/contracts/test/helpers/CVStrategyHelpers.sol:CVStrategyHarness","label":"disputeIdToProposalId","offset":0,"slot":"126","type":"t_mapping(t_uint256,t_uint256)"},{"astId":111079,"contract":"pkg/contracts/test/helpers/CVStrategyHelpers.sol:CVStrategyHarness","label":"arbitrableConfigs","offset":0,"slot":"127","type":"t_mapping(t_uint256,t_struct(ArbitrableConfig)115338_storage)"},{"astId":111082,"contract":"pkg/contracts/test/helpers/CVStrategyHelpers.sol:CVStrategyHarness","label":"superfluidToken","offset":0,"slot":"128","type":"t_contract(ISuperToken)80262"},{"astId":111085,"contract":"pkg/contracts/test/helpers/CVStrategyHelpers.sol:CVStrategyHarness","label":"superfluidGDA","offset":0,"slot":"129","type":"t_contract(ISuperfluidPool)79090"},{"astId":111087,"contract":"pkg/contracts/test/helpers/CVStrategyHelpers.sol:CVStrategyHarness","label":"streamingRatePerSecond","offset":0,"slot":"130","type":"t_uint256"},{"astId":111090,"contract":"pkg/contracts/test/helpers/CVStrategyHelpers.sol:CVStrategyHarness","label":"votingPowerRegistry","offset":0,"slot":"131","type":"t_contract(IVotingPowerRegistry)134836"},{"astId":111094,"contract":"pkg/contracts/test/helpers/CVStrategyHelpers.sol:CVStrategyHarness","label":"__gap","offset":0,"slot":"132","type":"t_array(t_uint256)46_storage"}],"types":{"t_address":{"encoding":"inplace","label":"address","numberOfBytes":"20"},"t_array(t_uint256)46_storage":{"encoding":"inplace","label":"uint256[46]","numberOfBytes":"1472","base":"t_uint256"},"t_array(t_uint256)49_storage":{"encoding":"inplace","label":"uint256[49]","numberOfBytes":"1568","base":"t_uint256"},"t_array(t_uint256)50_storage":{"encoding":"inplace","label":"uint256[50]","numberOfBytes":"1600","base":"t_uint256"},"t_array(t_uint256)dyn_storage":{"encoding":"dynamic_array","label":"uint256[]","numberOfBytes":"32","base":"t_uint256"},"t_bool":{"encoding":"inplace","label":"bool","numberOfBytes":"1"},"t_bytes32":{"encoding":"inplace","label":"bytes32","numberOfBytes":"32"},"t_contract(IAllo)2631":{"encoding":"inplace","label":"contract IAllo","numberOfBytes":"20"},"t_contract(IArbitrator)134076":{"encoding":"inplace","label":"contract IArbitrator","numberOfBytes":"20"},"t_contract(ICollateralVault)134109":{"encoding":"inplace","label":"contract ICollateralVault","numberOfBytes":"20"},"t_contract(ISuperToken)80262":{"encoding":"inplace","label":"contract ISuperToken","numberOfBytes":"20"},"t_contract(ISuperfluidPool)79090":{"encoding":"inplace","label":"contract ISuperfluidPool","numberOfBytes":"20"},"t_contract(ISybilScorer)125264":{"encoding":"inplace","label":"contract ISybilScorer","numberOfBytes":"20"},"t_contract(IVotingPowerRegistry)134836":{"encoding":"inplace","label":"contract IVotingPowerRegistry","numberOfBytes":"20"},"t_contract(RegistryCommunity)128146":{"encoding":"inplace","label":"contract RegistryCommunity","numberOfBytes":"20"},"t_enum(PointSystem)115253":{"encoding":"inplace","label":"enum PointSystem","numberOfBytes":"1"},"t_enum(ProposalStatus)115273":{"encoding":"inplace","label":"enum ProposalStatus","numberOfBytes":"1"},"t_enum(ProposalType)115247":{"encoding":"inplace","label":"enum ProposalType","numberOfBytes":"1"},"t_mapping(t_address,t_array(t_uint256)dyn_storage)":{"encoding":"mapping","key":"t_address","label":"mapping(address => uint256[])","numberOfBytes":"32","value":"t_array(t_uint256)dyn_storage"},"t_mapping(t_address,t_uint256)":{"encoding":"mapping","key":"t_address","label":"mapping(address => uint256)","numberOfBytes":"32","value":"t_uint256"},"t_mapping(t_uint256,t_struct(ArbitrableConfig)115338_storage)":{"encoding":"mapping","key":"t_uint256","label":"mapping(uint256 => struct ArbitrableConfig)","numberOfBytes":"32","value":"t_struct(ArbitrableConfig)115338_storage"},"t_mapping(t_uint256,t_struct(Proposal)115316_storage)":{"encoding":"mapping","key":"t_uint256","label":"mapping(uint256 => struct Proposal)","numberOfBytes":"32","value":"t_struct(Proposal)115316_storage"},"t_mapping(t_uint256,t_uint256)":{"encoding":"mapping","key":"t_uint256","label":"mapping(uint256 => uint256)","numberOfBytes":"32","value":"t_uint256"},"t_string_storage":{"encoding":"bytes","label":"string","numberOfBytes":"32"},"t_struct(ArbitrableConfig)115338_storage":{"encoding":"inplace","label":"struct ArbitrableConfig","numberOfBytes":"192","members":[{"astId":115327,"contract":"pkg/contracts/test/helpers/CVStrategyHelpers.sol:CVStrategyHarness","label":"arbitrator","offset":0,"slot":"0","type":"t_contract(IArbitrator)134076"},{"astId":115329,"contract":"pkg/contracts/test/helpers/CVStrategyHelpers.sol:CVStrategyHarness","label":"tribunalSafe","offset":0,"slot":"1","type":"t_address"},{"astId":115331,"contract":"pkg/contracts/test/helpers/CVStrategyHelpers.sol:CVStrategyHarness","label":"submitterCollateralAmount","offset":0,"slot":"2","type":"t_uint256"},{"astId":115333,"contract":"pkg/contracts/test/helpers/CVStrategyHelpers.sol:CVStrategyHarness","label":"challengerCollateralAmount","offset":0,"slot":"3","type":"t_uint256"},{"astId":115335,"contract":"pkg/contracts/test/helpers/CVStrategyHelpers.sol:CVStrategyHarness","label":"defaultRuling","offset":0,"slot":"4","type":"t_uint256"},{"astId":115337,"contract":"pkg/contracts/test/helpers/CVStrategyHelpers.sol:CVStrategyHarness","label":"defaultRulingTimeout","offset":0,"slot":"5","type":"t_uint256"}]},"t_struct(CVParams)115347_storage":{"encoding":"inplace","label":"struct CVParams","numberOfBytes":"128","members":[{"astId":115340,"contract":"pkg/contracts/test/helpers/CVStrategyHelpers.sol:CVStrategyHarness","label":"maxRatio","offset":0,"slot":"0","type":"t_uint256"},{"astId":115342,"contract":"pkg/contracts/test/helpers/CVStrategyHelpers.sol:CVStrategyHarness","label":"weight","offset":0,"slot":"1","type":"t_uint256"},{"astId":115344,"contract":"pkg/contracts/test/helpers/CVStrategyHelpers.sol:CVStrategyHarness","label":"decay","offset":0,"slot":"2","type":"t_uint256"},{"astId":115346,"contract":"pkg/contracts/test/helpers/CVStrategyHelpers.sol:CVStrategyHarness","label":"minThresholdPoints","offset":0,"slot":"3","type":"t_uint256"}]},"t_struct(Metadata)3086_storage":{"encoding":"inplace","label":"struct Metadata","numberOfBytes":"64","members":[{"astId":3082,"contract":"pkg/contracts/test/helpers/CVStrategyHelpers.sol:CVStrategyHarness","label":"protocol","offset":0,"slot":"0","type":"t_uint256"},{"astId":3085,"contract":"pkg/contracts/test/helpers/CVStrategyHelpers.sol:CVStrategyHarness","label":"pointer","offset":0,"slot":"1","type":"t_string_storage"}]},"t_struct(PointSystemConfig)115324_storage":{"encoding":"inplace","label":"struct PointSystemConfig","numberOfBytes":"32","members":[{"astId":115323,"contract":"pkg/contracts/test/helpers/CVStrategyHelpers.sol:CVStrategyHarness","label":"maxAmount","offset":0,"slot":"0","type":"t_uint256"}]},"t_struct(Proposal)115316_storage":{"encoding":"inplace","label":"struct Proposal","numberOfBytes":"576","members":[{"astId":115282,"contract":"pkg/contracts/test/helpers/CVStrategyHelpers.sol:CVStrategyHarness","label":"proposalId","offset":0,"slot":"0","type":"t_uint256"},{"astId":115284,"contract":"pkg/contracts/test/helpers/CVStrategyHelpers.sol:CVStrategyHarness","label":"requestedAmount","offset":0,"slot":"1","type":"t_uint256"},{"astId":115286,"contract":"pkg/contracts/test/helpers/CVStrategyHelpers.sol:CVStrategyHarness","label":"stakedAmount","offset":0,"slot":"2","type":"t_uint256"},{"astId":115288,"contract":"pkg/contracts/test/helpers/CVStrategyHelpers.sol:CVStrategyHarness","label":"convictionLast","offset":0,"slot":"3","type":"t_uint256"},{"astId":115290,"contract":"pkg/contracts/test/helpers/CVStrategyHelpers.sol:CVStrategyHarness","label":"beneficiary","offset":0,"slot":"4","type":"t_address"},{"astId":115292,"contract":"pkg/contracts/test/helpers/CVStrategyHelpers.sol:CVStrategyHarness","label":"submitter","offset":0,"slot":"5","type":"t_address"},{"astId":115294,"contract":"pkg/contracts/test/helpers/CVStrategyHelpers.sol:CVStrategyHarness","label":"requestedToken","offset":0,"slot":"6","type":"t_address"},{"astId":115296,"contract":"pkg/contracts/test/helpers/CVStrategyHelpers.sol:CVStrategyHarness","label":"blockLast","offset":0,"slot":"7","type":"t_uint256"},{"astId":115299,"contract":"pkg/contracts/test/helpers/CVStrategyHelpers.sol:CVStrategyHarness","label":"proposalStatus","offset":0,"slot":"8","type":"t_enum(ProposalStatus)115273"},{"astId":115303,"contract":"pkg/contracts/test/helpers/CVStrategyHelpers.sol:CVStrategyHarness","label":"voterStakedPoints","offset":0,"slot":"9","type":"t_mapping(t_address,t_uint256)"},{"astId":115306,"contract":"pkg/contracts/test/helpers/CVStrategyHelpers.sol:CVStrategyHarness","label":"metadata","offset":0,"slot":"10","type":"t_struct(Metadata)3086_storage"},{"astId":115309,"contract":"pkg/contracts/test/helpers/CVStrategyHelpers.sol:CVStrategyHarness","label":"disputeInfo","offset":0,"slot":"12","type":"t_struct(ProposalDisputeInfo)115280_storage"},{"astId":115311,"contract":"pkg/contracts/test/helpers/CVStrategyHelpers.sol:CVStrategyHarness","label":"lastDisputeCompletion","offset":0,"slot":"15","type":"t_uint256"},{"astId":115313,"contract":"pkg/contracts/test/helpers/CVStrategyHelpers.sol:CVStrategyHarness","label":"arbitrableConfigVersion","offset":0,"slot":"16","type":"t_uint256"},{"astId":115315,"contract":"pkg/contracts/test/helpers/CVStrategyHelpers.sol:CVStrategyHarness","label":"creationTimestamp","offset":0,"slot":"17","type":"t_uint256"}]},"t_struct(ProposalDisputeInfo)115280_storage":{"encoding":"inplace","label":"struct ProposalDisputeInfo","numberOfBytes":"96","members":[{"astId":115275,"contract":"pkg/contracts/test/helpers/CVStrategyHelpers.sol:CVStrategyHarness","label":"disputeId","offset":0,"slot":"0","type":"t_uint256"},{"astId":115277,"contract":"pkg/contracts/test/helpers/CVStrategyHelpers.sol:CVStrategyHarness","label":"disputeTimestamp","offset":0,"slot":"1","type":"t_uint256"},{"astId":115279,"contract":"pkg/contracts/test/helpers/CVStrategyHelpers.sol:CVStrategyHarness","label":"challenger","offset":0,"slot":"2","type":"t_address"}]},"t_uint256":{"encoding":"inplace","label":"uint256","numberOfBytes":"32"},"t_uint64":{"encoding":"inplace","label":"uint64","numberOfBytes":"8"},"t_uint8":{"encoding":"inplace","label":"uint8","numberOfBytes":"1"}}},"id":282}