{"abi":[{"type":"fallback","stateMutability":"payable"},{"type":"receive","stateMutability":"payable"},{"type":"function","name":"DISPUTE_COOLDOWN_SEC","inputs":[],"outputs":[{"name":"","type":"uint256","internalType":"uint256"}],"stateMutability":"view"},{"type":"function","name":"NATIVE","inputs":[],"outputs":[{"name":"","type":"address","internalType":"address"}],"stateMutability":"view"},{"type":"function","name":"RULING_OPTIONS","inputs":[],"outputs":[{"name":"","type":"uint256","internalType":"uint256"}],"stateMutability":"view"},{"type":"function","name":"activatePoints","inputs":[],"outputs":[],"stateMutability":"nonpayable"},{"type":"function","name":"allocate","inputs":[{"name":"","type":"bytes","internalType":"bytes"},{"name":"","type":"address","internalType":"address"}],"outputs":[],"stateMutability":"payable"},{"type":"function","name":"arbitrableConfigs","inputs":[{"name":"","type":"uint256","internalType":"uint256"}],"outputs":[{"name":"arbitrator","type":"address","internalType":"contract IArbitrator"},{"name":"tribunalSafe","type":"address","internalType":"address"},{"name":"submitterCollateralAmount","type":"uint256","internalType":"uint256"},{"name":"challengerCollateralAmount","type":"uint256","internalType":"uint256"},{"name":"defaultRuling","type":"uint256","internalType":"uint256"},{"name":"defaultRulingTimeout","type":"uint256","internalType":"uint256"}],"stateMutability":"view"},{"type":"function","name":"calculateProposalConviction","inputs":[{"name":"_proposalId","type":"uint256","internalType":"uint256"}],"outputs":[{"name":"","type":"uint256","internalType":"uint256"}],"stateMutability":"view"},{"type":"function","name":"calculateThreshold","inputs":[{"name":"_requestedAmount","type":"uint256","internalType":"uint256"}],"outputs":[{"name":"","type":"uint256","internalType":"uint256"}],"stateMutability":"view"},{"type":"function","name":"cancelProposal","inputs":[{"name":"","type":"uint256","internalType":"uint256"}],"outputs":[],"stateMutability":"nonpayable"},{"type":"function","name":"cloneNonce","inputs":[],"outputs":[{"name":"","type":"uint256","internalType":"uint256"}],"stateMutability":"view"},{"type":"function","name":"collateralVault","inputs":[],"outputs":[{"name":"","type":"address","internalType":"contract ICollateralVault"}],"stateMutability":"view"},{"type":"function","name":"connectSuperfluidGDA","inputs":[{"name":"","type":"address","internalType":"address"}],"outputs":[],"stateMutability":"nonpayable"},{"type":"function","name":"currentArbitrableConfigVersion","inputs":[],"outputs":[{"name":"","type":"uint256","internalType":"uint256"}],"stateMutability":"view"},{"type":"function","name":"cvParams","inputs":[],"outputs":[{"name":"maxRatio","type":"uint256","internalType":"uint256"},{"name":"weight","type":"uint256","internalType":"uint256"},{"name":"decay","type":"uint256","internalType":"uint256"},{"name":"minThresholdPoints","type":"uint256","internalType":"uint256"}],"stateMutability":"view"},{"type":"function","name":"deactivatePoints","inputs":[],"outputs":[],"stateMutability":"nonpayable"},{"type":"function","name":"deactivatePoints","inputs":[{"name":"","type":"address","internalType":"address"}],"outputs":[],"stateMutability":"nonpayable"},{"type":"function","name":"decreasePower","inputs":[{"name":"","type":"address","internalType":"address"},{"name":"","type":"uint256","internalType":"uint256"}],"outputs":[{"name":"","type":"uint256","internalType":"uint256"}],"stateMutability":"nonpayable"},{"type":"function","name":"diamondCut","inputs":[{"name":"_diamondCut","type":"tuple[]","internalType":"struct IDiamond.FacetCut[]","components":[{"name":"facetAddress","type":"address","internalType":"address"},{"name":"action","type":"uint8","internalType":"enum IDiamond.FacetCutAction"},{"name":"functionSelectors","type":"bytes4[]","internalType":"bytes4[]"}]},{"name":"_init","type":"address","internalType":"address"},{"name":"_calldata","type":"bytes","internalType":"bytes"}],"outputs":[],"stateMutability":"nonpayable"},{"type":"function","name":"disconnectSuperfluidGDA","inputs":[{"name":"","type":"address","internalType":"address"}],"outputs":[],"stateMutability":"nonpayable"},{"type":"function","name":"disputeCount","inputs":[],"outputs":[{"name":"","type":"uint64","internalType":"uint64"}],"stateMutability":"view"},{"type":"function","name":"disputeIdToProposalId","inputs":[{"name":"","type":"uint256","internalType":"uint256"}],"outputs":[{"name":"","type":"uint256","internalType":"uint256"}],"stateMutability":"view"},{"type":"function","name":"disputeProposal","inputs":[{"name":"proposalId","type":"uint256","internalType":"uint256"},{"name":"context","type":"string","internalType":"string"},{"name":"_extraData","type":"bytes","internalType":"bytes"}],"outputs":[{"name":"","type":"uint256","internalType":"uint256"}],"stateMutability":"payable"},{"type":"function","name":"distribute","inputs":[{"name":"","type":"address[]","internalType":"address[]"},{"name":"","type":"bytes","internalType":"bytes"},{"name":"","type":"address","internalType":"address"}],"outputs":[],"stateMutability":"nonpayable"},{"type":"function","name":"editProposal","inputs":[{"name":"","type":"uint256","internalType":"uint256"},{"name":"","type":"tuple","internalType":"struct Metadata","components":[{"name":"protocol","type":"uint256","internalType":"uint256"},{"name":"pointer","type":"string","internalType":"string"}]},{"name":"","type":"address","internalType":"address"},{"name":"","type":"uint256","internalType":"uint256"}],"outputs":[],"stateMutability":"nonpayable"},{"type":"function","name":"exposedApplyDelta","inputs":[{"name":"support","type":"uint256","internalType":"uint256"},{"name":"delta","type":"int256","internalType":"int256"}],"outputs":[{"name":"","type":"uint256","internalType":"uint256"}],"stateMutability":"pure"},{"type":"function","name":"exposedCalculateAndSetConviction","inputs":[{"name":"proposalId","type":"uint256","internalType":"uint256"},{"name":"oldStaked","type":"uint256","internalType":"uint256"}],"outputs":[],"stateMutability":"nonpayable"},{"type":"function","name":"exposedCanExecuteAction","inputs":[{"name":"user","type":"address","internalType":"address"}],"outputs":[{"name":"","type":"bool","internalType":"bool"}],"stateMutability":"view"},{"type":"function","name":"exposedCheckBlockAndCalculateConviction","inputs":[{"name":"proposalId","type":"uint256","internalType":"uint256"},{"name":"oldStaked","type":"uint256","internalType":"uint256"}],"outputs":[{"name":"conviction","type":"uint256","internalType":"uint256"},{"name":"blockNumber","type":"uint256","internalType":"uint256"}],"stateMutability":"view"},{"type":"function","name":"exposedCheckProposalAllocationValidity","inputs":[{"name":"proposalId","type":"uint256","internalType":"uint256"},{"name":"deltaSupport","type":"int256","internalType":"int256"}],"outputs":[],"stateMutability":"view"},{"type":"function","name":"exposedCheckSenderIsMember","inputs":[{"name":"sender","type":"address","internalType":"address"}],"outputs":[],"stateMutability":"nonpayable"},{"type":"function","name":"exposedIsOverMaxRatio","inputs":[{"name":"requestedAmount","type":"uint256","internalType":"uint256"}],"outputs":[{"name":"","type":"bool","internalType":"bool"}],"stateMutability":"view"},{"type":"function","name":"exposedOnlyCouncilSafe","inputs":[],"outputs":[],"stateMutability":"view"},{"type":"function","name":"exposedOnlyCouncilSafeOrMember","inputs":[],"outputs":[],"stateMutability":"view"},{"type":"function","name":"exposedOnlyRegistryCommunity","inputs":[],"outputs":[],"stateMutability":"view"},{"type":"function","name":"exposedProposalExists","inputs":[{"name":"proposalId","type":"uint256","internalType":"uint256"}],"outputs":[{"name":"","type":"bool","internalType":"bool"}],"stateMutability":"view"},{"type":"function","name":"getAllo","inputs":[],"outputs":[{"name":"","type":"address","internalType":"contract IAllo"}],"stateMutability":"view"},{"type":"function","name":"getArbitrableConfig","inputs":[],"outputs":[{"name":"arbitrator","type":"address","internalType":"contract IArbitrator"},{"name":"tribunalSafe","type":"address","internalType":"address"},{"name":"submitterCollateralAmount","type":"uint256","internalType":"uint256"},{"name":"challengerCollateralAmount","type":"uint256","internalType":"uint256"},{"name":"defaultRuling","type":"uint256","internalType":"uint256"},{"name":"defaultRulingTimeout","type":"uint256","internalType":"uint256"}],"stateMutability":"view"},{"type":"function","name":"getFacets","inputs":[],"outputs":[{"name":"facets_","type":"tuple[]","internalType":"struct IDiamondLoupe.Facet[]","components":[{"name":"facetAddress","type":"address","internalType":"address"},{"name":"functionSelectors","type":"bytes4[]","internalType":"bytes4[]"}]}],"stateMutability":"view"},{"type":"function","name":"getMaxAmount","inputs":[],"outputs":[{"name":"","type":"uint256","internalType":"uint256"}],"stateMutability":"view"},{"type":"function","name":"getPointSystem","inputs":[],"outputs":[{"name":"","type":"uint8","internalType":"enum PointSystem"}],"stateMutability":"view"},{"type":"function","name":"getPoolAmount","inputs":[],"outputs":[{"name":"","type":"uint256","internalType":"uint256"}],"stateMutability":"view"},{"type":"function","name":"getPoolId","inputs":[],"outputs":[{"name":"","type":"uint256","internalType":"uint256"}],"stateMutability":"view"},{"type":"function","name":"getProposal","inputs":[{"name":"_proposalId","type":"uint256","internalType":"uint256"}],"outputs":[{"name":"submitter","type":"address","internalType":"address"},{"name":"beneficiary","type":"address","internalType":"address"},{"name":"requestedToken","type":"address","internalType":"address"},{"name":"requestedAmount","type":"uint256","internalType":"uint256"},{"name":"stakedAmount","type":"uint256","internalType":"uint256"},{"name":"proposalStatus","type":"uint8","internalType":"enum ProposalStatus"},{"name":"blockLast","type":"uint256","internalType":"uint256"},{"name":"convictionLast","type":"uint256","internalType":"uint256"},{"name":"threshold","type":"uint256","internalType":"uint256"},{"name":"voterStakedPoints","type":"uint256","internalType":"uint256"},{"name":"arbitrableConfigVersion","type":"uint256","internalType":"uint256"},{"name":"protocol","type":"uint256","internalType":"uint256"}],"stateMutability":"view"},{"type":"function","name":"getProposalMetadataPointer","inputs":[{"name":"_proposalId","type":"uint256","internalType":"uint256"}],"outputs":[{"name":"","type":"string","internalType":"string"}],"stateMutability":"view"},{"type":"function","name":"getProposalStakedAmount","inputs":[{"name":"_proposalId","type":"uint256","internalType":"uint256"}],"outputs":[{"name":"","type":"uint256","internalType":"uint256"}],"stateMutability":"view"},{"type":"function","name":"getProposalThreshold","inputs":[{"name":"proposalId","type":"uint256","internalType":"uint256"}],"outputs":[{"name":"","type":"uint256","internalType":"uint256"}],"stateMutability":"view"},{"type":"function","name":"getProposalVoterStake","inputs":[{"name":"_proposalId","type":"uint256","internalType":"uint256"},{"name":"_voter","type":"address","internalType":"address"}],"outputs":[{"name":"","type":"uint256","internalType":"uint256"}],"stateMutability":"view"},{"type":"function","name":"increasePower","inputs":[{"name":"","type":"address","internalType":"address"},{"name":"","type":"uint256","internalType":"uint256"}],"outputs":[{"name":"","type":"uint256","internalType":"uint256"}],"stateMutability":"nonpayable"},{"type":"function","name":"init","inputs":[{"name":"_allo","type":"address","internalType":"address"},{"name":"_collateralVaultTemplate","type":"address","internalType":"address"},{"name":"_owner","type":"address","internalType":"address"}],"outputs":[],"stateMutability":"nonpayable"},{"type":"function","name":"init","inputs":[{"name":"_allo","type":"address","internalType":"address"},{"name":"_name","type":"string","internalType":"string"},{"name":"_owner","type":"address","internalType":"address"}],"outputs":[],"stateMutability":"nonpayable"},{"type":"function","name":"initialize","inputs":[{"name":"initialOwner","type":"address","internalType":"address"}],"outputs":[],"stateMutability":"nonpayable"},{"type":"function","name":"initialize","inputs":[{"name":"_poolId","type":"uint256","internalType":"uint256"},{"name":"_data","type":"bytes","internalType":"bytes"}],"outputs":[],"stateMutability":"nonpayable"},{"type":"function","name":"isPaused","inputs":[{"name":"","type":"bytes4","internalType":"bytes4"}],"outputs":[{"name":"","type":"bool","internalType":"bool"}],"stateMutability":"nonpayable"},{"type":"function","name":"isPaused","inputs":[],"outputs":[{"name":"","type":"bool","internalType":"bool"}],"stateMutability":"nonpayable"},{"type":"function","name":"isPoolActive","inputs":[],"outputs":[{"name":"","type":"bool","internalType":"bool"}],"stateMutability":"view"},{"type":"function","name":"lastRebalanceAt","inputs":[],"outputs":[{"name":"","type":"uint256","internalType":"uint256"}],"stateMutability":"view"},{"type":"function","name":"owner","inputs":[],"outputs":[{"name":"","type":"address","internalType":"address"}],"stateMutability":"view"},{"type":"function","name":"pause","inputs":[{"name":"","type":"uint256","internalType":"uint256"}],"outputs":[],"stateMutability":"nonpayable"},{"type":"function","name":"pause","inputs":[{"name":"","type":"bytes4","internalType":"bytes4"},{"name":"","type":"uint256","internalType":"uint256"}],"outputs":[],"stateMutability":"nonpayable"},{"type":"function","name":"pauseController","inputs":[],"outputs":[{"name":"","type":"address","internalType":"address"}],"stateMutability":"nonpayable"},{"type":"function","name":"pauseFacet","inputs":[],"outputs":[{"name":"","type":"address","internalType":"address"}],"stateMutability":"nonpayable"},{"type":"function","name":"pausedSelectorUntil","inputs":[{"name":"","type":"bytes4","internalType":"bytes4"}],"outputs":[{"name":"","type":"uint256","internalType":"uint256"}],"stateMutability":"nonpayable"},{"type":"function","name":"pausedUntil","inputs":[],"outputs":[{"name":"","type":"uint256","internalType":"uint256"}],"stateMutability":"nonpayable"},{"type":"function","name":"pointConfig","inputs":[],"outputs":[{"name":"maxAmount","type":"uint256","internalType":"uint256"}],"stateMutability":"view"},{"type":"function","name":"pointSystem","inputs":[],"outputs":[{"name":"","type":"uint8","internalType":"enum PointSystem"}],"stateMutability":"view"},{"type":"function","name":"proposalCounter","inputs":[],"outputs":[{"name":"","type":"uint256","internalType":"uint256"}],"stateMutability":"view"},{"type":"function","name":"proposalType","inputs":[],"outputs":[{"name":"","type":"uint8","internalType":"enum ProposalType"}],"stateMutability":"view"},{"type":"function","name":"proxiableUUID","inputs":[],"outputs":[{"name":"","type":"bytes32","internalType":"bytes32"}],"stateMutability":"view"},{"type":"function","name":"proxyOwner","inputs":[],"outputs":[{"name":"","type":"address","internalType":"address"}],"stateMutability":"view"},{"type":"function","name":"rebalance","inputs":[],"outputs":[],"stateMutability":"nonpayable"},{"type":"function","name":"rebalanceCooldown","inputs":[],"outputs":[{"name":"","type":"uint256","internalType":"uint256"}],"stateMutability":"view"},{"type":"function","name":"registerRecipient","inputs":[{"name":"","type":"bytes","internalType":"bytes"},{"name":"","type":"address","internalType":"address"}],"outputs":[{"name":"","type":"address","internalType":"address"}],"stateMutability":"payable"},{"type":"function","name":"registryCommunity","inputs":[],"outputs":[{"name":"","type":"address","internalType":"contract RegistryCommunity"}],"stateMutability":"view"},{"type":"function","name":"renounceOwnership","inputs":[],"outputs":[],"stateMutability":"nonpayable"},{"type":"function","name":"rule","inputs":[{"name":"","type":"uint256","internalType":"uint256"},{"name":"","type":"uint256","internalType":"uint256"}],"outputs":[],"stateMutability":"nonpayable"},{"type":"function","name":"setAllo","inputs":[{"name":"allo_","type":"address","internalType":"address"}],"outputs":[],"stateMutability":"nonpayable"},{"type":"function","name":"setArbitrableConfig","inputs":[{"name":"version","type":"uint256","internalType":"uint256"},{"name":"config","type":"tuple","internalType":"struct ArbitrableConfig","components":[{"name":"arbitrator","type":"address","internalType":"contract IArbitrator"},{"name":"tribunalSafe","type":"address","internalType":"address"},{"name":"submitterCollateralAmount","type":"uint256","internalType":"uint256"},{"name":"challengerCollateralAmount","type":"uint256","internalType":"uint256"},{"name":"defaultRuling","type":"uint256","internalType":"uint256"},{"name":"defaultRulingTimeout","type":"uint256","internalType":"uint256"}]}],"outputs":[],"stateMutability":"nonpayable"},{"type":"function","name":"setCollateralVaultTemplate","inputs":[{"name":"template","type":"address","internalType":"address"}],"outputs":[],"stateMutability":"nonpayable"},{"type":"function","name":"setCollateralVaultTemplateRaw","inputs":[{"name":"template","type":"address","internalType":"address"}],"outputs":[],"stateMutability":"nonpayable"},{"type":"function","name":"setCvParams","inputs":[{"name":"params","type":"tuple","internalType":"struct CVParams","components":[{"name":"maxRatio","type":"uint256","internalType":"uint256"},{"name":"weight","type":"uint256","internalType":"uint256"},{"name":"decay","type":"uint256","internalType":"uint256"},{"name":"minThresholdPoints","type":"uint256","internalType":"uint256"}]}],"outputs":[],"stateMutability":"nonpayable"},{"type":"function","name":"setPauseController","inputs":[{"name":"","type":"address","internalType":"address"}],"outputs":[],"stateMutability":"nonpayable"},{"type":"function","name":"setPauseFacet","inputs":[{"name":"","type":"address","internalType":"address"}],"outputs":[],"stateMutability":"nonpayable"},{"type":"function","name":"setPointConfig","inputs":[{"name":"maxAmount","type":"uint256","internalType":"uint256"}],"outputs":[],"stateMutability":"nonpayable"},{"type":"function","name":"setPointSystem","inputs":[{"name":"system","type":"uint8","internalType":"enum PointSystem"}],"outputs":[],"stateMutability":"nonpayable"},{"type":"function","name":"setPoolActive","inputs":[{"name":"_active","type":"bool","internalType":"bool"}],"outputs":[],"stateMutability":"nonpayable"},{"type":"function","name":"setPoolId","inputs":[{"name":"poolId_","type":"uint256","internalType":"uint256"}],"outputs":[],"stateMutability":"nonpayable"},{"type":"function","name":"setPoolParams","inputs":[{"name":"","type":"tuple","internalType":"struct ArbitrableConfig","components":[{"name":"arbitrator","type":"address","internalType":"contract IArbitrator"},{"name":"tribunalSafe","type":"address","internalType":"address"},{"name":"submitterCollateralAmount","type":"uint256","internalType":"uint256"},{"name":"challengerCollateralAmount","type":"uint256","internalType":"uint256"},{"name":"defaultRuling","type":"uint256","internalType":"uint256"},{"name":"defaultRulingTimeout","type":"uint256","internalType":"uint256"}]},{"name":"","type":"tuple","internalType":"struct CVParams","components":[{"name":"maxRatio","type":"uint256","internalType":"uint256"},{"name":"weight","type":"uint256","internalType":"uint256"},{"name":"decay","type":"uint256","internalType":"uint256"},{"name":"minThresholdPoints","type":"uint256","internalType":"uint256"}]},{"name":"","type":"uint256","internalType":"uint256"},{"name":"","type":"address[]","internalType":"address[]"},{"name":"","type":"address[]","internalType":"address[]"},{"name":"","type":"address","internalType":"address"},{"name":"","type":"uint256","internalType":"uint256"}],"outputs":[],"stateMutability":"nonpayable"},{"type":"function","name":"setPoolParams","inputs":[{"name":"","type":"tuple","internalType":"struct ArbitrableConfig","components":[{"name":"arbitrator","type":"address","internalType":"contract IArbitrator"},{"name":"tribunalSafe","type":"address","internalType":"address"},{"name":"submitterCollateralAmount","type":"uint256","internalType":"uint256"},{"name":"challengerCollateralAmount","type":"uint256","internalType":"uint256"},{"name":"defaultRuling","type":"uint256","internalType":"uint256"},{"name":"defaultRulingTimeout","type":"uint256","internalType":"uint256"}]},{"name":"","type":"tuple","internalType":"struct CVParams","components":[{"name":"maxRatio","type":"uint256","internalType":"uint256"},{"name":"weight","type":"uint256","internalType":"uint256"},{"name":"decay","type":"uint256","internalType":"uint256"},{"name":"minThresholdPoints","type":"uint256","internalType":"uint256"}]},{"name":"","type":"uint256","internalType":"uint256"},{"name":"","type":"address[]","internalType":"address[]"},{"name":"","type":"address[]","internalType":"address[]"},{"name":"","type":"address","internalType":"address"}],"outputs":[],"stateMutability":"nonpayable"},{"type":"function","name":"setProposal","inputs":[{"name":"proposalId","type":"uint256","internalType":"uint256"},{"name":"submitter","type":"address","internalType":"address"},{"name":"requestedAmount","type":"uint256","internalType":"uint256"},{"name":"status","type":"uint8","internalType":"enum ProposalStatus"},{"name":"blockLast","type":"uint256","internalType":"uint256"},{"name":"convictionLast","type":"uint256","internalType":"uint256"}],"outputs":[],"stateMutability":"nonpayable"},{"type":"function","name":"setProposalStakedAmount","inputs":[{"name":"proposalId","type":"uint256","internalType":"uint256"},{"name":"amount","type":"uint256","internalType":"uint256"}],"outputs":[],"stateMutability":"nonpayable"},{"type":"function","name":"setProposalType","inputs":[{"name":"proposalType_","type":"uint8","internalType":"enum ProposalType"}],"outputs":[],"stateMutability":"nonpayable"},{"type":"function","name":"setProposalVoterStake","inputs":[{"name":"proposalId","type":"uint256","internalType":"uint256"},{"name":"voter","type":"address","internalType":"address"},{"name":"amount","type":"uint256","internalType":"uint256"}],"outputs":[],"stateMutability":"nonpayable"},{"type":"function","name":"setRegistryCommunity","inputs":[{"name":"registryCommunity_","type":"address","internalType":"address"}],"outputs":[],"stateMutability":"nonpayable"},{"type":"function","name":"setSuperfluidToken","inputs":[{"name":"token","type":"address","internalType":"address"}],"outputs":[],"stateMutability":"nonpayable"},{"type":"function","name":"setSybilScorer","inputs":[{"name":"_sybilScorer","type":"address","internalType":"address"},{"name":"threshold","type":"uint256","internalType":"uint256"}],"outputs":[],"stateMutability":"nonpayable"},{"type":"function","name":"setSybilScorer","inputs":[{"name":"sybilScorer_","type":"address","internalType":"address"}],"outputs":[],"stateMutability":"nonpayable"},{"type":"function","name":"setTotalPointsActivated","inputs":[{"name":"amount","type":"uint256","internalType":"uint256"}],"outputs":[],"stateMutability":"nonpayable"},{"type":"function","name":"setVotingPowerRegistry","inputs":[{"name":"registry","type":"address","internalType":"address"}],"outputs":[],"stateMutability":"nonpayable"},{"type":"function","name":"streamingEscrow","inputs":[{"name":"proposalId","type":"uint256","internalType":"uint256"}],"outputs":[{"name":"","type":"address","internalType":"address"}],"stateMutability":"view"},{"type":"function","name":"streamingRatePerSecond","inputs":[],"outputs":[{"name":"","type":"uint256","internalType":"uint256"}],"stateMutability":"view"},{"type":"function","name":"superfluidGDA","inputs":[],"outputs":[{"name":"","type":"address","internalType":"contract ISuperfluidPool"}],"stateMutability":"view"},{"type":"function","name":"superfluidToken","inputs":[],"outputs":[{"name":"","type":"address","internalType":"contract ISuperToken"}],"stateMutability":"view"},{"type":"function","name":"supportsInterface","inputs":[{"name":"interfaceId","type":"bytes4","internalType":"bytes4"}],"outputs":[{"name":"","type":"bool","internalType":"bool"}],"stateMutability":"view"},{"type":"function","name":"sybilScorer","inputs":[],"outputs":[{"name":"","type":"address","internalType":"contract ISybilScorer"}],"stateMutability":"view"},{"type":"function","name":"totalPointsActivated","inputs":[],"outputs":[{"name":"","type":"uint256","internalType":"uint256"}],"stateMutability":"view"},{"type":"function","name":"totalStaked","inputs":[],"outputs":[{"name":"","type":"uint256","internalType":"uint256"}],"stateMutability":"view"},{"type":"function","name":"totalVoterStakePct","inputs":[{"name":"","type":"address","internalType":"address"}],"outputs":[{"name":"","type":"uint256","internalType":"uint256"}],"stateMutability":"view"},{"type":"function","name":"transferOwnership","inputs":[{"name":"newOwner","type":"address","internalType":"address"}],"outputs":[],"stateMutability":"nonpayable"},{"type":"function","name":"unpause","inputs":[],"outputs":[],"stateMutability":"nonpayable"},{"type":"function","name":"unpause","inputs":[{"name":"","type":"bytes4","internalType":"bytes4"}],"outputs":[],"stateMutability":"nonpayable"},{"type":"function","name":"updateProposalConviction","inputs":[{"name":"proposalId","type":"uint256","internalType":"uint256"}],"outputs":[{"name":"","type":"uint256","internalType":"uint256"}],"stateMutability":"nonpayable"},{"type":"function","name":"upgradeTo","inputs":[{"name":"newImplementation","type":"address","internalType":"address"}],"outputs":[],"stateMutability":"nonpayable"},{"type":"function","name":"upgradeToAndCall","inputs":[{"name":"newImplementation","type":"address","internalType":"address"},{"name":"data","type":"bytes","internalType":"bytes"}],"outputs":[],"stateMutability":"payable"},{"type":"function","name":"voterStakedProposals","inputs":[{"name":"","type":"address","internalType":"address"},{"name":"","type":"uint256","internalType":"uint256"}],"outputs":[{"name":"","type":"uint256","internalType":"uint256"}],"stateMutability":"view"},{"type":"function","name":"votingPowerRegistry","inputs":[],"outputs":[{"name":"","type":"address","internalType":"contract IVotingPowerRegistry"}],"stateMutability":"view"},{"type":"event","name":"AdminChanged","inputs":[{"name":"previousAdmin","type":"address","indexed":false,"internalType":"address"},{"name":"newAdmin","type":"address","indexed":false,"internalType":"address"}],"anonymous":false},{"type":"event","name":"Allocated","inputs":[{"name":"recipientId","type":"address","indexed":true,"internalType":"address"},{"name":"amount","type":"uint256","indexed":false,"internalType":"uint256"},{"name":"token","type":"address","indexed":false,"internalType":"address"},{"name":"sender","type":"address","indexed":false,"internalType":"address"}],"anonymous":false},{"type":"event","name":"AllowlistMembersAdded","inputs":[{"name":"poolId","type":"uint256","indexed":false,"internalType":"uint256"},{"name":"members","type":"address[]","indexed":false,"internalType":"address[]"}],"anonymous":false},{"type":"event","name":"AllowlistMembersRemoved","inputs":[{"name":"poolId","type":"uint256","indexed":false,"internalType":"uint256"},{"name":"members","type":"address[]","indexed":false,"internalType":"address[]"}],"anonymous":false},{"type":"event","name":"ArbitrableConfigUpdated","inputs":[{"name":"currentArbitrableConfigVersion","type":"uint256","indexed":false,"internalType":"uint256"},{"name":"arbitrator","type":"address","indexed":false,"internalType":"contract IArbitrator"},{"name":"tribunalSafe","type":"address","indexed":false,"internalType":"address"},{"name":"submitterCollateralAmount","type":"uint256","indexed":false,"internalType":"uint256"},{"name":"challengerCollateralAmount","type":"uint256","indexed":false,"internalType":"uint256"},{"name":"defaultRuling","type":"uint256","indexed":false,"internalType":"uint256"},{"name":"defaultRulingTimeout","type":"uint256","indexed":false,"internalType":"uint256"}],"anonymous":false},{"type":"event","name":"BeaconUpgraded","inputs":[{"name":"beacon","type":"address","indexed":true,"internalType":"address"}],"anonymous":false},{"type":"event","name":"CVParamsUpdated","inputs":[{"name":"cvParams","type":"tuple","indexed":false,"internalType":"struct CVParams","components":[{"name":"maxRatio","type":"uint256","internalType":"uint256"},{"name":"weight","type":"uint256","internalType":"uint256"},{"name":"decay","type":"uint256","internalType":"uint256"},{"name":"minThresholdPoints","type":"uint256","internalType":"uint256"}]}],"anonymous":false},{"type":"event","name":"DiamondCut","inputs":[{"name":"_diamondCut","type":"tuple[]","indexed":false,"internalType":"struct IDiamond.FacetCut[]","components":[{"name":"facetAddress","type":"address","internalType":"address"},{"name":"action","type":"uint8","internalType":"enum IDiamond.FacetCutAction"},{"name":"functionSelectors","type":"bytes4[]","internalType":"bytes4[]"}]},{"name":"_init","type":"address","indexed":false,"internalType":"address"},{"name":"_calldata","type":"bytes","indexed":false,"internalType":"bytes"}],"anonymous":false},{"type":"event","name":"DisputeRequest","inputs":[{"name":"_arbitrator","type":"address","indexed":true,"internalType":"contract IArbitrator"},{"name":"_arbitrableDisputeID","type":"uint256","indexed":true,"internalType":"uint256"},{"name":"_externalDisputeID","type":"uint256","indexed":false,"internalType":"uint256"},{"name":"_templateId","type":"uint256","indexed":false,"internalType":"uint256"},{"name":"_templateUri","type":"string","indexed":false,"internalType":"string"}],"anonymous":false},{"type":"event","name":"Distributed","inputs":[{"name":"recipientId","type":"address","indexed":true,"internalType":"address"},{"name":"recipientAddress","type":"address","indexed":false,"internalType":"address"},{"name":"amount","type":"uint256","indexed":false,"internalType":"uint256"},{"name":"sender","type":"address","indexed":false,"internalType":"address"}],"anonymous":false},{"type":"event","name":"Distributed","inputs":[{"name":"proposalId","type":"uint256","indexed":false,"internalType":"uint256"},{"name":"beneficiary","type":"address","indexed":false,"internalType":"address"},{"name":"amount","type":"uint256","indexed":false,"internalType":"uint256"}],"anonymous":false},{"type":"event","name":"Initialized","inputs":[{"name":"poolId","type":"uint256","indexed":false,"internalType":"uint256"},{"name":"data","type":"bytes","indexed":false,"internalType":"bytes"}],"anonymous":false},{"type":"event","name":"Initialized","inputs":[{"name":"version","type":"uint8","indexed":false,"internalType":"uint8"}],"anonymous":false},{"type":"event","name":"InitializedCV","inputs":[{"name":"poolId","type":"uint256","indexed":false,"internalType":"uint256"},{"name":"data","type":"tuple","indexed":false,"internalType":"struct CVStrategyInitializeParamsV0_0","components":[{"name":"cvParams","type":"tuple","internalType":"struct CVParams","components":[{"name":"maxRatio","type":"uint256","internalType":"uint256"},{"name":"weight","type":"uint256","internalType":"uint256"},{"name":"decay","type":"uint256","internalType":"uint256"},{"name":"minThresholdPoints","type":"uint256","internalType":"uint256"}]},{"name":"proposalType","type":"uint8","internalType":"enum ProposalType"},{"name":"pointSystem","type":"uint8","internalType":"enum PointSystem"},{"name":"pointConfig","type":"tuple","internalType":"struct PointSystemConfig","components":[{"name":"maxAmount","type":"uint256","internalType":"uint256"}]},{"name":"arbitrableConfig","type":"tuple","internalType":"struct ArbitrableConfig","components":[{"name":"arbitrator","type":"address","internalType":"contract IArbitrator"},{"name":"tribunalSafe","type":"address","internalType":"address"},{"name":"submitterCollateralAmount","type":"uint256","internalType":"uint256"},{"name":"challengerCollateralAmount","type":"uint256","internalType":"uint256"},{"name":"defaultRuling","type":"uint256","internalType":"uint256"},{"name":"defaultRulingTimeout","type":"uint256","internalType":"uint256"}]},{"name":"registryCommunity","type":"address","internalType":"address"},{"name":"sybilScorer","type":"address","internalType":"address"}]}],"anonymous":false},{"type":"event","name":"InitializedCV2","inputs":[{"name":"poolId","type":"uint256","indexed":false,"internalType":"uint256"},{"name":"data","type":"tuple","indexed":false,"internalType":"struct CVStrategyInitializeParamsV0_1","components":[{"name":"cvParams","type":"tuple","internalType":"struct CVParams","components":[{"name":"maxRatio","type":"uint256","internalType":"uint256"},{"name":"weight","type":"uint256","internalType":"uint256"},{"name":"decay","type":"uint256","internalType":"uint256"},{"name":"minThresholdPoints","type":"uint256","internalType":"uint256"}]},{"name":"proposalType","type":"uint8","internalType":"enum ProposalType"},{"name":"pointSystem","type":"uint8","internalType":"enum PointSystem"},{"name":"pointConfig","type":"tuple","internalType":"struct PointSystemConfig","components":[{"name":"maxAmount","type":"uint256","internalType":"uint256"}]},{"name":"arbitrableConfig","type":"tuple","internalType":"struct ArbitrableConfig","components":[{"name":"arbitrator","type":"address","internalType":"contract IArbitrator"},{"name":"tribunalSafe","type":"address","internalType":"address"},{"name":"submitterCollateralAmount","type":"uint256","internalType":"uint256"},{"name":"challengerCollateralAmount","type":"uint256","internalType":"uint256"},{"name":"defaultRuling","type":"uint256","internalType":"uint256"},{"name":"defaultRulingTimeout","type":"uint256","internalType":"uint256"}]},{"name":"registryCommunity","type":"address","internalType":"address"},{"name":"sybilScorer","type":"address","internalType":"address"},{"name":"sybilScorerThreshold","type":"uint256","internalType":"uint256"},{"name":"initialAllowlist","type":"address[]","internalType":"address[]"}]}],"anonymous":false},{"type":"event","name":"InitializedCV3","inputs":[{"name":"poolId","type":"uint256","indexed":false,"internalType":"uint256"},{"name":"data","type":"tuple","indexed":false,"internalType":"struct CVStrategyInitializeParamsV0_2","components":[{"name":"cvParams","type":"tuple","internalType":"struct CVParams","components":[{"name":"maxRatio","type":"uint256","internalType":"uint256"},{"name":"weight","type":"uint256","internalType":"uint256"},{"name":"decay","type":"uint256","internalType":"uint256"},{"name":"minThresholdPoints","type":"uint256","internalType":"uint256"}]},{"name":"proposalType","type":"uint8","internalType":"enum ProposalType"},{"name":"pointSystem","type":"uint8","internalType":"enum PointSystem"},{"name":"pointConfig","type":"tuple","internalType":"struct PointSystemConfig","components":[{"name":"maxAmount","type":"uint256","internalType":"uint256"}]},{"name":"arbitrableConfig","type":"tuple","internalType":"struct ArbitrableConfig","components":[{"name":"arbitrator","type":"address","internalType":"contract IArbitrator"},{"name":"tribunalSafe","type":"address","internalType":"address"},{"name":"submitterCollateralAmount","type":"uint256","internalType":"uint256"},{"name":"challengerCollateralAmount","type":"uint256","internalType":"uint256"},{"name":"defaultRuling","type":"uint256","internalType":"uint256"},{"name":"defaultRulingTimeout","type":"uint256","internalType":"uint256"}]},{"name":"registryCommunity","type":"address","internalType":"address"},{"name":"sybilScorer","type":"address","internalType":"address"},{"name":"sybilScorerThreshold","type":"uint256","internalType":"uint256"},{"name":"initialAllowlist","type":"address[]","internalType":"address[]"},{"name":"superfluidToken","type":"address","internalType":"address"}]}],"anonymous":false},{"type":"event","name":"InitializedCV4","inputs":[{"name":"poolId","type":"uint256","indexed":false,"internalType":"uint256"},{"name":"data","type":"tuple","indexed":false,"internalType":"struct CVStrategyInitializeParamsV0_3","components":[{"name":"cvParams","type":"tuple","internalType":"struct CVParams","components":[{"name":"maxRatio","type":"uint256","internalType":"uint256"},{"name":"weight","type":"uint256","internalType":"uint256"},{"name":"decay","type":"uint256","internalType":"uint256"},{"name":"minThresholdPoints","type":"uint256","internalType":"uint256"}]},{"name":"proposalType","type":"uint8","internalType":"enum ProposalType"},{"name":"pointSystem","type":"uint8","internalType":"enum PointSystem"},{"name":"pointConfig","type":"tuple","internalType":"struct PointSystemConfig","components":[{"name":"maxAmount","type":"uint256","internalType":"uint256"}]},{"name":"arbitrableConfig","type":"tuple","internalType":"struct ArbitrableConfig","components":[{"name":"arbitrator","type":"address","internalType":"contract IArbitrator"},{"name":"tribunalSafe","type":"address","internalType":"address"},{"name":"submitterCollateralAmount","type":"uint256","internalType":"uint256"},{"name":"challengerCollateralAmount","type":"uint256","internalType":"uint256"},{"name":"defaultRuling","type":"uint256","internalType":"uint256"},{"name":"defaultRulingTimeout","type":"uint256","internalType":"uint256"}]},{"name":"registryCommunity","type":"address","internalType":"address"},{"name":"votingPowerRegistry","type":"address","internalType":"address"},{"name":"sybilScorer","type":"address","internalType":"address"},{"name":"sybilScorerThreshold","type":"uint256","internalType":"uint256"},{"name":"initialAllowlist","type":"address[]","internalType":"address[]"},{"name":"superfluidToken","type":"address","internalType":"address"},{"name":"streamingRatePerSecond","type":"uint256","internalType":"uint256"}]}],"anonymous":false},{"type":"event","name":"OwnershipTransferred","inputs":[{"name":"previousOwner","type":"address","indexed":true,"internalType":"address"},{"name":"newOwner","type":"address","indexed":true,"internalType":"address"}],"anonymous":false},{"type":"event","name":"OwnershipTransferred","inputs":[{"name":"previousOwner","type":"address","indexed":true,"internalType":"address"},{"name":"newOwner","type":"address","indexed":true,"internalType":"address"}],"anonymous":false},{"type":"event","name":"PointsDeactivated","inputs":[{"name":"member","type":"address","indexed":false,"internalType":"address"}],"anonymous":false},{"type":"event","name":"PoolActive","inputs":[{"name":"active","type":"bool","indexed":false,"internalType":"bool"}],"anonymous":false},{"type":"event","name":"PowerDecreased","inputs":[{"name":"member","type":"address","indexed":false,"internalType":"address"},{"name":"tokensUnStaked","type":"uint256","indexed":false,"internalType":"uint256"},{"name":"pointsToDecrease","type":"uint256","indexed":false,"internalType":"uint256"}],"anonymous":false},{"type":"event","name":"PowerIncreased","inputs":[{"name":"member","type":"address","indexed":false,"internalType":"address"},{"name":"tokensStaked","type":"uint256","indexed":false,"internalType":"uint256"},{"name":"pointsToIncrease","type":"uint256","indexed":false,"internalType":"uint256"}],"anonymous":false},{"type":"event","name":"ProposalCancelled","inputs":[{"name":"proposalId","type":"uint256","indexed":false,"internalType":"uint256"}],"anonymous":false},{"type":"event","name":"ProposalCreated","inputs":[{"name":"poolId","type":"uint256","indexed":false,"internalType":"uint256"},{"name":"proposalId","type":"uint256","indexed":false,"internalType":"uint256"}],"anonymous":false},{"type":"event","name":"ProposalCreated","inputs":[{"name":"poolId","type":"uint256","indexed":false,"internalType":"uint256"},{"name":"proposalId","type":"uint256","indexed":false,"internalType":"uint256"},{"name":"escrow","type":"address","indexed":false,"internalType":"address"}],"anonymous":false},{"type":"event","name":"ProposalDisputed","inputs":[{"name":"arbitrator","type":"address","indexed":false,"internalType":"contract IArbitrator"},{"name":"proposalId","type":"uint256","indexed":false,"internalType":"uint256"},{"name":"disputeId","type":"uint256","indexed":false,"internalType":"uint256"},{"name":"challenger","type":"address","indexed":false,"internalType":"address"},{"name":"context","type":"string","indexed":false,"internalType":"string"},{"name":"timestamp","type":"uint256","indexed":false,"internalType":"uint256"}],"anonymous":false},{"type":"event","name":"RebalanceCallerAuthorizationUpdated","inputs":[{"name":"caller","type":"address","indexed":true,"internalType":"address"},{"name":"authorized","type":"bool","indexed":false,"internalType":"bool"}],"anonymous":false},{"type":"event","name":"Registered","inputs":[{"name":"recipientId","type":"address","indexed":true,"internalType":"address"},{"name":"data","type":"bytes","indexed":false,"internalType":"bytes"},{"name":"sender","type":"address","indexed":false,"internalType":"address"}],"anonymous":false},{"type":"event","name":"Ruling","inputs":[{"name":"_arbitrator","type":"address","indexed":true,"internalType":"contract IArbitrator"},{"name":"_disputeID","type":"uint256","indexed":true,"internalType":"uint256"},{"name":"_ruling","type":"uint256","indexed":false,"internalType":"uint256"}],"anonymous":false},{"type":"event","name":"StreamMemberUnitUpdated","inputs":[{"name":"member","type":"address","indexed":true,"internalType":"address"},{"name":"newUnit","type":"int96","indexed":false,"internalType":"int96"}],"anonymous":false},{"type":"event","name":"StreamRateUpdated","inputs":[{"name":"gda","type":"address","indexed":true,"internalType":"address"},{"name":"flowRate","type":"uint256","indexed":false,"internalType":"uint256"}],"anonymous":false},{"type":"event","name":"SuperfluidGDAConnected","inputs":[{"name":"gda","type":"address","indexed":true,"internalType":"address"},{"name":"by","type":"address","indexed":true,"internalType":"address"}],"anonymous":false},{"type":"event","name":"SuperfluidGDADisconnected","inputs":[{"name":"gda","type":"address","indexed":true,"internalType":"address"},{"name":"by","type":"address","indexed":true,"internalType":"address"}],"anonymous":false},{"type":"event","name":"SuperfluidPoolCreated","inputs":[{"name":"gda","type":"address","indexed":true,"internalType":"address"},{"name":"superfluidToken","type":"address","indexed":true,"internalType":"address"},{"name":"maxStreamingRate","type":"uint256","indexed":false,"internalType":"uint256"}],"anonymous":false},{"type":"event","name":"SuperfluidTokenUpdated","inputs":[{"name":"superfluidToken","type":"address","indexed":false,"internalType":"address"}],"anonymous":false},{"type":"event","name":"SupportAdded","inputs":[{"name":"from","type":"address","indexed":false,"internalType":"address"},{"name":"proposalId","type":"uint256","indexed":false,"internalType":"uint256"},{"name":"amount","type":"uint256","indexed":false,"internalType":"uint256"},{"name":"totalStakedAmount","type":"uint256","indexed":false,"internalType":"uint256"},{"name":"convictionLast","type":"uint256","indexed":false,"internalType":"uint256"}],"anonymous":false},{"type":"event","name":"SybilScorerUpdated","inputs":[{"name":"sybilScorer","type":"address","indexed":false,"internalType":"address"}],"anonymous":false},{"type":"event","name":"Upgraded","inputs":[{"name":"implementation","type":"address","indexed":true,"internalType":"address"}],"anonymous":false},{"type":"error","name":"ALLOCATION_ACTIVE","inputs":[]},{"type":"error","name":"ALLOCATION_NOT_ACTIVE","inputs":[]},{"type":"error","name":"ALLOCATION_NOT_ENDED","inputs":[]},{"type":"error","name":"ALREADY_INITIALIZED","inputs":[]},{"type":"error","name":"AMOUNT_MISMATCH","inputs":[]},{"type":"error","name":"ANCHOR_ERROR","inputs":[]},{"type":"error","name":"ARRAY_MISMATCH","inputs":[]},{"type":"error","name":"AShouldBeUnderOrEqTwo_128","inputs":[]},{"type":"error","name":"AShouldBeUnderTwo_128","inputs":[]},{"type":"error","name":"AddressCannotBeZero","inputs":[{"name":"input","type":"address","internalType":"address"}]},{"type":"error","name":"AmountOverMaxRatio","inputs":[{"name":"requestedAmount","type":"uint256","internalType":"uint256"},{"name":"maxAllowed","type":"uint256","internalType":"uint256"},{"name":"poolAmount","type":"uint256","internalType":"uint256"}]},{"type":"error","name":"ArbitratorCannotBeZero","inputs":[]},{"type":"error","name":"ArbitratorNotAllowed","inputs":[{"name":"target","type":"address","internalType":"address"}]},{"type":"error","name":"BShouldBeLessTwo_128","inputs":[]},{"type":"error","name":"CallerNotOwner","inputs":[{"name":"_caller","type":"address","internalType":"address"},{"name":"_owner","type":"address","internalType":"address"}]},{"type":"error","name":"CannotAddFunctionToDiamondThatAlreadyExists","inputs":[{"name":"_selector","type":"bytes4","internalType":"bytes4"}]},{"type":"error","name":"CannotAddSelectorsToZeroAddress","inputs":[{"name":"_selectors","type":"bytes4[]","internalType":"bytes4[]"}]},{"type":"error","name":"CannotRemoveFunctionThatDoesNotExist","inputs":[{"name":"_selector","type":"bytes4","internalType":"bytes4"}]},{"type":"error","name":"CannotRemoveImmutableFunction","inputs":[{"name":"_selector","type":"bytes4","internalType":"bytes4"}]},{"type":"error","name":"CannotReplaceFunctionThatDoesNotExists","inputs":[{"name":"_selector","type":"bytes4","internalType":"bytes4"}]},{"type":"error","name":"CannotReplaceFunctionWithTheSameFunctionFromTheSameFacet","inputs":[{"name":"_selector","type":"bytes4","internalType":"bytes4"}]},{"type":"error","name":"CannotReplaceFunctionsFromFacetWithZeroAddress","inputs":[{"name":"_selectors","type":"bytes4[]","internalType":"bytes4[]"}]},{"type":"error","name":"CannotReplaceImmutableFunction","inputs":[{"name":"_selector","type":"bytes4","internalType":"bytes4"}]},{"type":"error","name":"ConvictionUnderMinimumThreshold","inputs":[]},{"type":"error","name":"DefaultRulingNotSet","inputs":[]},{"type":"error","name":"DisputeCooldownNotPassed","inputs":[{"name":"_proposalId","type":"uint256","internalType":"uint256"},{"name":"_remainingSec","type":"uint256","internalType":"uint256"}]},{"type":"error","name":"INVALID","inputs":[]},{"type":"error","name":"INVALID_ADDRESS","inputs":[]},{"type":"error","name":"INVALID_FEE","inputs":[]},{"type":"error","name":"INVALID_METADATA","inputs":[]},{"type":"error","name":"INVALID_REGISTRATION","inputs":[]},{"type":"error","name":"IS_APPROVED_STRATEGY","inputs":[]},{"type":"error","name":"InitializationFunctionReverted","inputs":[{"name":"_initializationContractAddress","type":"address","internalType":"address"},{"name":"_calldata","type":"bytes","internalType":"bytes"}]},{"type":"error","name":"InsufficientCollateral","inputs":[{"name":"sentAmount","type":"uint256","internalType":"uint256"},{"name":"requiredAmount","type":"uint256","internalType":"uint256"}]},{"type":"error","name":"MISMATCH","inputs":[]},{"type":"error","name":"NONCE_NOT_AVAILABLE","inputs":[]},{"type":"error","name":"NON_ZERO_VALUE","inputs":[]},{"type":"error","name":"NOT_APPROVED_STRATEGY","inputs":[]},{"type":"error","name":"NOT_ENOUGH_FUNDS","inputs":[]},{"type":"error","name":"NOT_IMPLEMENTED","inputs":[]},{"type":"error","name":"NOT_INITIALIZED","inputs":[]},{"type":"error","name":"NOT_PENDING_OWNER","inputs":[]},{"type":"error","name":"NoBytecodeAtAddress","inputs":[{"name":"_contractAddress","type":"address","internalType":"address"},{"name":"_message","type":"string","internalType":"string"}]},{"type":"error","name":"NoSelectorsProvidedForFacetForCut","inputs":[{"name":"_facetAddress","type":"address","internalType":"address"}]},{"type":"error","name":"NotEnoughPointsToSupport","inputs":[{"name":"pointsSupport","type":"uint256","internalType":"uint256"},{"name":"pointsBalance","type":"uint256","internalType":"uint256"}]},{"type":"error","name":"NotImplemented","inputs":[{"name":"selector","type":"bytes4","internalType":"bytes4"}]},{"type":"error","name":"OnlyArbitrator","inputs":[{"name":"sender","type":"address","internalType":"address"},{"name":"arbitrator","type":"address","internalType":"address"}]},{"type":"error","name":"OnlyCommunityAllowed","inputs":[{"name":"sender","type":"address","internalType":"address"},{"name":"registryCommunity","type":"address","internalType":"address"}]},{"type":"error","name":"OnlyCouncilSafe","inputs":[{"name":"sender","type":"address","internalType":"address"},{"name":"councilSafe","type":"address","internalType":"address"},{"name":"owner","type":"address","internalType":"address"}]},{"type":"error","name":"OnlyCouncilSafeOrMember","inputs":[{"name":"sender","type":"address","internalType":"address"},{"name":"councilSafe","type":"address","internalType":"address"}]},{"type":"error","name":"POOL_ACTIVE","inputs":[]},{"type":"error","name":"POOL_INACTIVE","inputs":[]},{"type":"error","name":"PoolAmountNotEnough","inputs":[{"name":"_proposalId","type":"uint256","internalType":"uint256"},{"name":"_requestedAmount","type":"uint256","internalType":"uint256"},{"name":"_poolAmount","type":"uint256","internalType":"uint256"}]},{"type":"error","name":"PoolIsEmpty","inputs":[{"name":"poolAmount","type":"uint256","internalType":"uint256"}]},{"type":"error","name":"ProposalDataIsEmpty","inputs":[]},{"type":"error","name":"ProposalIdCannotBeZero","inputs":[]},{"type":"error","name":"ProposalInvalidForAllocation","inputs":[{"name":"_proposalId","type":"uint256","internalType":"uint256"},{"name":"_proposalStatus","type":"uint8","internalType":"enum ProposalStatus"}]},{"type":"error","name":"ProposalNotActive","inputs":[{"name":"_proposalId","type":"uint256","internalType":"uint256"}]},{"type":"error","name":"ProposalNotDisputed","inputs":[{"name":"_proposalId","type":"uint256","internalType":"uint256"}]},{"type":"error","name":"ProposalNotInList","inputs":[{"name":"_proposalId","type":"uint256","internalType":"uint256"}]},{"type":"error","name":"ProposalSupportDuplicated","inputs":[{"name":"_proposalId","type":"uint256","internalType":"uint256"},{"name":"index","type":"uint256","internalType":"uint256"}]},{"type":"error","name":"RECIPIENT_ALREADY_ACCEPTED","inputs":[]},{"type":"error","name":"RECIPIENT_ERROR","inputs":[{"name":"recipientId","type":"address","internalType":"address"}]},{"type":"error","name":"RECIPIENT_NOT_ACCEPTED","inputs":[]},{"type":"error","name":"REGISTRATION_ACTIVE","inputs":[]},{"type":"error","name":"REGISTRATION_NOT_ACTIVE","inputs":[]},{"type":"error","name":"RebalanceCooldownActive","inputs":[{"name":"secondsRemaining","type":"uint256","internalType":"uint256"}]},{"type":"error","name":"RegistryCannotBeZero","inputs":[{"name":"registry","type":"address","internalType":"address"}]},{"type":"error","name":"RegistryCommunityCannotBeZero","inputs":[{"name":"registry","type":"address","internalType":"address"}]},{"type":"error","name":"RemoveFacetAddressMustBeZeroAddress","inputs":[{"name":"_facetAddress","type":"address","internalType":"address"}]},{"type":"error","name":"StrategyFunctionDoesNotExist","inputs":[{"name":"selector","type":"bytes4","internalType":"bytes4"}]},{"type":"error","name":"StrategyPaused","inputs":[{"name":"controller","type":"address","internalType":"address"}]},{"type":"error","name":"StrategySelectorPaused","inputs":[{"name":"selector","type":"bytes4","internalType":"bytes4"},{"name":"controller","type":"address","internalType":"address"}]},{"type":"error","name":"SuperfluidPoolCreationFailed","inputs":[]},{"type":"error","name":"SupportUnderflow","inputs":[{"name":"_support","type":"uint256","internalType":"uint256"},{"name":"_delta","type":"int256","internalType":"int256"},{"name":"_result","type":"int256","internalType":"int256"}]},{"type":"error","name":"SybilScorerNotAllowed","inputs":[{"name":"target","type":"address","internalType":"address"}]},{"type":"error","name":"TokenCannotBeZero","inputs":[{"name":"token","type":"address","internalType":"address"}]},{"type":"error","name":"TokenNotAllowed","inputs":[{"name":"token","type":"address","internalType":"address"}]},{"type":"error","name":"UNAUTHORIZED","inputs":[]},{"type":"error","name":"UserCannotBeZero","inputs":[{"name":"user","type":"address","internalType":"address"}]},{"type":"error","name":"UserCannotExecuteAction","inputs":[{"name":"sender","type":"address","internalType":"address"}]},{"type":"error","name":"UserIsInactive","inputs":[{"name":"user","type":"address","internalType":"address"}]},{"type":"error","name":"UserNotInRegistry","inputs":[{"name":"user","type":"address","internalType":"address"},{"name":"registry","type":"address","internalType":"address"}]},{"type":"error","name":"ZERO_ADDRESS","inputs":[]}],"bytecode":{"object":"0x60a06040523060805234801562000014575f80fd5b506200001f62000025565b620000e3565b5f54610100900460ff1615620000915760405162461bcd60e51b815260206004820152602760248201527f496e697469616c697a61626c653a20636f6e747261637420697320696e697469604482015266616c697a696e6760c81b606482015260840160405180910390fd5b5f5460ff90811614620000e1575f805460ff191660ff9081179091556040519081527f7f26b83ff96e1f2b6a682f133852f6798a09c465da95921460cefb38474024989060200160405180910390a15b565b608051616d37620001185f395f8181611871015281816118b101528181611de101528181611e210152611ea00152616d375ff3fe608060405260043610610507575f3560e01c806301ffc9a7146105aa578063025313a2146105ef578063058aca4414610610578063059351cd1461064c57806305caa7f3146106d7578063096d2870146106f657806309b65e66146107155780630a6f0ee9146107345780630ba95909146107535780630bece79c146107715780630c0512e914610790578063125fd1d9146107a5578063136439dd146107ba578063141e3b38146107d957806315cc481e146107f8578063170aba0d14610815578063184b9559146108515780631aa91a9e146108705780631add1a0d1461088f5780631b36f56f146108a95780631ddf1e23146108c85780631f931c1c146108dc578063222a3a041461088f5780632506b870146108fb578063255ffb381461092d578063291e5123146109585780632bbe0cae146109775780632cea13f91461098a5780632d2ebbef1461099e5780632dbd6fdd146109b85780632ed04b2b146109e3578063311a6c56146109fd5780633396045914610a1c578063351d9f9614610a315780633587c79b14610a575780633659cfe614610a835780633864d36614610aa257806338fff2d014610ac15780633c09233014610ad55780633f4ba83a146108c857806341bb760514610b1157806346de35c814610b6c57806349b2577814610b8b5780634ab4ba4214610baa5780634e899d5f14610bbe5780634f1ef28614610bdd57806352b2005014610bf057806352d1902d14610c0457806356c7869914610c1857806359a5db8b14610c505780635bee0ec814610c6f5780635db64b9914610c9d5780636003e41414610cc857806360b0645a14610ce757806360b4778914610d0657806360d5dedc14610d1a57806360ec51aa14610d39578063626c47e814610d665780636453d9c41461088f578063662ea47d14610d7a5780636eeeae9314610d9b578063715018a614610dba578063782aadff146109e35780637d7c2a1c146108c857806380c4a65f14610dce57806380fd91cd14610de8578063814516ad146108c8578063817b1cd214610e0757806385c504dd14610e1c578063868c57b814610e505780638b83075e14610e6f5780638da5cb5b14610eab57806391bfd37b14610ebf578063924e67041461088f57806394573cbb14610ede578063a0449bf314610ef3578063a0cf0aea14610f12578063a28889e114610f39578063a385ea6414610f70578063a47ff7e514610fb3578063ab7716d814610fc9578063aba9ffee14610fe8578063ac1ed7b914610ffd578063ac78012c14611039578063adaf157b14610d06578063b04b5b2614611058578063b0d3713a14611077578063b187bd2614611096578063b3de272d146110aa578063b41596ec146110be578063b5f620ce146110d1578063b6c61f31146110f0578063bac1e94b1461110f578063c329217114611129578063c4d66de814611145578063c69271ec1461088f578063c6cdc98014611164578063c7f758a814611183578063cb22c4e4146111ba578063d1045aa9146111d9578063d5b7cc54146111f8578063da748b1014611217578063db7114601461122b578063dc96ff2d1461124a578063dd439bd314611278578063df868ed31461128c578063e0a8f6f5146107ba578063e0dd2c38146112a0578063ec9f5f3d146112bf578063edd146cc146112de578063ef2920fc146112fd578063f01a809c1461130b578063f2fde38b1461131f578063f5be3f7c1461133e578063ff3db2ce146113535761050e565b3661050e57005b5f80356001600160e01b03191681525f80516020616bf0833981519152602081905260409091205481906001600160a01b031680610575575f356001600160e01b03191660405163335ed20560e11b815260040161056c91906151fd565b60405180910390fd5b61058a5f356001600160e01b031916826113dd565b365f80375f80365f845af43d5f803e8080156105a4573d5ff35b3d5ffd5b005b3480156105b5575f80fd5b506105da6105c4366004615229565b6001600160e01b0319166301ffc9a760e01b1490565b60405190151581526020015b60405180910390f35b3480156105fa575f80fd5b50610603611586565b6040516105e6919061524f565b34801561061b575f80fd5b506105a861062a366004615282565b607880546001600160a01b0319166001600160a01b0392909216919091179055565b348015610657575f80fd5b5061069f606f545f908152607f60205260409020805460018201546002830154600384015460048501546005909501546001600160a01b039485169694909316949193909290565b604080516001600160a01b039788168152969095166020870152938501929092526060840152608083015260a082015260c0016105e6565b3480156106e2575f80fd5b50608054610603906001600160a01b031681565b348015610701575f80fd5b506105a861071036600461529d565b61159e565b348015610720575f80fd5b506105da61072f366004615229565b6115b9565b34801561073f575f80fd5b506105a861074e3660046154bc565b6115c7565b34801561075e575f80fd5b506077545b6040519081526020016105e6565b34801561077c575f80fd5b50607954610603906001600160a01b031681565b34801561079b575f80fd5b50610763606e5481565b3480156107b0575f80fd5b50610763606f5481565b3480156107c5575f80fd5b506105a86107d436600461552e565b6115cf565b3480156107e4575f80fd5b506105a86107f3366004615545565b6115da565b348015610803575f80fd5b506065546001600160a01b0316610603565b348015610820575f80fd5b506105a861082f366004615282565b608380546001600160a01b0319166001600160a01b0392909216919091179055565b34801561085c575f80fd5b506105a861086b3660046155d9565b6115e8565b34801561087b575f80fd5b5061076361088a36600461552e565b6116eb565b34801561089a575f80fd5b506105a86107d4366004615282565b3480156108b4575f80fd5b50608154610603906001600160a01b031681565b3480156108d3575f80fd5b506105a8611734565b3480156108e7575f80fd5b506105a86108f6366004615653565b61173e565b348015610906575f80fd5b5060725460735460745460755461091d9392919084565b6040516105e694939291906156fb565b348015610938575f80fd5b5061076361094736600461552e565b607e6020525f908152604090205481565b348015610963575f80fd5b506105a8610972366004615282565b611796565b610603610985366004615716565b61179f565b348015610995575f80fd5b506107636117ae565b3480156109a9575f80fd5b5061076361072f366004615229565b3480156109c3575f80fd5b506076546109d690610100900460ff1681565b6040516105e6919061578c565b3480156109ee575f80fd5b5061076361098536600461579a565b348015610a08575f80fd5b506105a8610a1736600461529d565b6117bd565b348015610a27575f80fd5b50610763606c5481565b348015610a3c575f80fd5b50607654610a4a9060ff1681565b6040516105e691906157d4565b348015610a62575f80fd5b50610a76610a7136600461552e565b6117c5565b6040516105e6919061582f565b348015610a8e575f80fd5b506105a8610a9d366004615282565b611867565b348015610aad575f80fd5b506105a8610abc36600461579a565b61192b565b348015610acc575f80fd5b50606854610763565b348015610ae0575f80fd5b506105a8610aef366004615282565b606580546001600160a01b0319166001600160a01b0392909216919091179055565b348015610b1c575f80fd5b5061069f610b2b36600461552e565b607f6020525f90815260409020805460018201546002830154600384015460048501546005909501546001600160a01b039485169593909416939192909186565b348015610b77575f80fd5b506105a8610b8636600461584d565b611af7565b348015610b96575f80fd5b50610763610ba536600461529d565b611b20565b348015610bb5575f80fd5b50610763611b32565b348015610bc9575f80fd5b506105da610bd8366004615282565b611dcd565b6105a8610beb366004615868565b611dd7565b348015610bfb575f80fd5b506105a8611e8c565b348015610c0f575f80fd5b50610763611e94565b348015610c23575f80fd5b506105a8610c323660046158f6565b80516072556020810151607355604081015160745560600151607555565b348015610c5b575f80fd5b50610763610c6a36600461552e565b611f41565b348015610c7a575f80fd5b506105a8610c8936600461529d565b5f918252607b602052604090912060020155565b348015610ca8575f80fd5b50610763610cb7366004615282565b607c6020525f908152604090205481565b348015610cd3575f80fd5b50607854610603906001600160a01b031681565b348015610cf2575f80fd5b50610763610d0136600461552e565b612057565b348015610d11575f80fd5b50610603612114565b348015610d25575f80fd5b506105a8610d34366004615910565b61211d565b348015610d44575f80fd5b506105a8610d5336600461552e565b6040805160208101909152819052607755565b348015610d71575f80fd5b50610763600381565b348015610d85575f80fd5b50610d8e6121dc565b6040516105e69190615997565b348015610da6575f80fd5b506105a8610db5366004615a20565b61257b565b348015610dc5575f80fd5b506105a861259a565b348015610dd9575f80fd5b506105a8610a17366004615a3b565b348015610df3575f80fd5b50608354610603906001600160a01b031681565b348015610e12575f80fd5b5061076360705481565b348015610e27575f80fd5b50610e3b610e3636600461529d565b6125ab565b604080519283526020830191909152016105e6565b348015610e5b575f80fd5b50610763610e6a36600461579a565b6125d0565b348015610e7a575f80fd5b506105a8610e89366004615282565b608080546001600160a01b0319166001600160a01b0392909216919091179055565b348015610eb6575f80fd5b506106036125fb565b348015610eca575f80fd5b506105da610ed936600461552e565b612689565b348015610ee9575f80fd5b5061076360825481565b348015610efe575f80fd5b506105a8610f0d366004615282565b612693565b348015610f1d575f80fd5b5061060373eeeeeeeeeeeeeeeeeeeeeeeeeeeeeeeeeeeeeeee81565b348015610f44575f80fd5b50606d54610f58906001600160401b031681565b6040516001600160401b0390911681526020016105e6565b348015610f7b575f80fd5b506105a8610f8a366004615a55565b5f928352607b602090815260408085206001600160a01b03909416855260099093019052912055565b348015610fbe575f80fd5b506077546107639081565b348015610fd4575f80fd5b506105a8610fe336600461529d565b6126b5565b348015610ff3575f80fd5b5061076360715481565b348015611008575f80fd5b506105a8611017366004615282565b607a80546001600160a01b0319166001600160a01b0392909216919091179055565b348015611044575f80fd5b506105a861105336600461552e565b606855565b348015611063575f80fd5b5061060361107236600461552e565b6126bf565b348015611082575f80fd5b506105a8611091366004615282565b6126e4565b3480156110a1575f80fd5b506105da612114565b3480156110b5575f80fd5b506107636126ec565b6107636110cc366004615a8a565b6126fe565b3480156110dc575f80fd5b506105a86110eb366004615aec565b612710565b3480156110fb575f80fd5b50607a54610603906001600160a01b031681565b34801561111a575f80fd5b506105a86107d4366004615229565b348015611134575f80fd5b50607654610100900460ff166109d6565b348015611150575f80fd5b506105a861115f366004615282565b612719565b34801561116f575f80fd5b506105a861117e366004615b71565b6127cb565b34801561118e575f80fd5b506111a261119d36600461552e565b6127dc565b6040516105e69c9b9a99989796959493929190615c2e565b3480156111c5575f80fd5b506105a86111d436600461552e565b607155565b3480156111e4575f80fd5b506107636111f336600461552e565b6129db565b348015611203575f80fd5b506105a8611212366004615ca3565b612a51565b348015611222575f80fd5b50610763612114565b348015611236575f80fd5b506105a8611245366004615d51565b612a61565b348015611255575f80fd5b5061076361126436600461552e565b5f908152607b602052604090206002015490565b348015611283575f80fd5b506105a8612b1f565b348015611297575f80fd5b506105da612b27565b3480156112ab575f80fd5b506107636112ba366004615da9565b612b34565b3480156112ca575f80fd5b506105da6112d936600461552e565b612b5e565b3480156112e9575f80fd5b506105a86112f8366004615dcc565b612b68565b6105a8610a17366004615716565b348015611316575f80fd5b506105a861315e565b34801561132a575f80fd5b506105a8611339366004615282565b613166565b348015611349575f80fd5b50610763611c2081565b34801561135e575f80fd5b506105a861136d366004615df9565b606f8290555f918252607f6020908152604092839020825181546001600160a01b03199081166001600160a01b0392831617835592840151600183018054909416911617909155918101516002830155606081015160038301556080810151600483015560a00151600590910155565b6113e56131dc565b600101546001600160a01b0390811690821603611400575050565b61140982613200565b15611412575050565b5f61141b6131dc565b546001600160a01b031690508061143157505050565b806001600160a01b03163b5f0361144757505050565b604051635b14f18360e01b81526001600160a01b03821690635b14f1839061147390309060040161524f565b602060405180830381865afa15801561148e573d5f803e3d5ffd5b505050506040513d601f19601f820116820180604052508101906114b29190615e24565b156114d2578060405163c2897a3760e01b815260040161056c919061524f565b6040516374b896f160e01b81523060048201526001600160e01b0319841660248201526001600160a01b038216906374b896f190604401602060405180830381865afa158015611524573d5f803e3d5ffd5b505050506040513d601f19601f820116820180604052508101906115489190615e24565b156115815760405163a9774bf960e01b81526001600160e01b0319841660048201526001600160a01b038216602482015260440161056c565b505050565b5f6115996033546001600160a01b031690565b905090565b5f828152607b602052604090206115b59082613343565b5050565b5f6115c261050e565b919050565b61158161050e565b6115d761050e565b50565b6115e261050e565b50505050565b5f54610100900460ff161580801561160657505f54600160ff909116105b8061162657506116153061337c565b15801561162657505f5460ff166001145b6116425760405162461bcd60e51b815260040161056c90615e3f565b5f805460ff191660011790558015611663575f805461ff0019166101001790555b611690846040518060400160405280600a8152602001694356537472617465677960b01b8152508461211d565b6116998261338b565b606a80546001600160a01b0319166001600160a01b03851617905580156115e2575f805461ff0019169055604051600181525f80516020616c9c8339815191529060200160405180910390a150505050565b5f818152607b602052604081208054831461171c5760405163c1d17bef60e01b81526004810184905260240161056c565b61172a818260020154613343565b6003015492915050565b61173c61050e565b565b6117466133d6565b61178f6117538587615e8d565b8484848080601f0160208091040260200160405190810160405280939291908181526020018383808284375f9201919091525061345792505050565b5050505050565b6115d7816135c0565b5f6117a861050e565b92915050565b5f6117b76136bc565b54919050565b6115b561050e565b5f818152607b60205260409020600b018054606091906117e490615fad565b80601f016020809104026020016040519081016040528092919081815260200182805461181090615fad565b801561185b5780601f106118325761010080835404028352916020019161185b565b820191905f5260205f20905b81548152906001019060200180831161183e57829003601f168201915b50505050509050919050565b6001600160a01b037f00000000000000000000000000000000000000000000000000000000000000001630036118af5760405162461bcd60e51b815260040161056c90615fe5565b7f00000000000000000000000000000000000000000000000000000000000000006001600160a01b03166118e16136e0565b6001600160a01b0316146119075760405162461bcd60e51b815260040161056c9061601e565b611910816136fb565b604080515f808252602082019092526115d791839190613736565b60785f9054906101000a90046001600160a01b03166001600160a01b0316636c53db9a6040518163ffffffff1660e01b8152600401602060405180830381865afa15801561197b573d5f803e3d5ffd5b505050506040513d601f19601f8201168201806040525081019061199f9190616057565b6001600160a01b0316336001600160a01b0316141580156119d957506119c36125fb565b6001600160a01b0316336001600160a01b031614155b15611a865760785460408051633629edcd60e11b8152905133926001600160a01b031691636c53db9a9160048083019260209291908290030181865afa158015611a25573d5f803e3d5ffd5b505050506040513d601f19601f82011682018060405250810190611a499190616057565b611a516125fb565b60405163e1b9c46960e01b81526001600160a01b0393841660048201529183166024830152909116604482015260640161056c565b611a8f826138a0565b611a98826138c9565b607a80546001600160a01b0319166001600160a01b038416179055611abc816139d7565b7f2667a0cd99dbc787d1d2596efe938cf43dfe83e8b8ddeb70e28007c09ff3348582604051611aeb919061524f565b60405180910390a15050565b6076805482919061ff001916610100836004811115611b1857611b18615764565b021790555050565b5f611b2b8383613ab4565b9392505050565b60655460685460405163068bcd8d60e01b81525f9283926001600160a01b039091169163068bcd8d91611b6b9160040190815260200190565b5f60405180830381865afa158015611b85573d5f803e3d5ffd5b505050506040513d5f823e601f3d908101601f19168201604052611bac919081019061607d565b60400151905073eeeeeeeeeeeeeeeeeeeeeeeeeeeeeeeeeeeeeeed196001600160a01b03821601611bde574791505090565b6040516370a0823160e01b81525f906001600160a01b038316906370a0823190611c0c90309060040161524f565b602060405180830381865afa158015611c27573d5f803e3d5ffd5b505050506040513d601f19601f82011682018060405250810190611c4b9190616195565b6080549091506001600160a01b0390811690831603611c6a5792915050565b6080545f906001600160a01b031615611cf1576080546040516370a0823160e01b81526001600160a01b03909116906370a0823190611cad90309060040161524f565b602060405180830381865afa158015611cc8573d5f803e3d5ffd5b505050506040513d601f19601f82011682018060405250810190611cec9190616195565b611cf3565b5f5b90505f836001600160a01b031663313ce5676040518163ffffffff1660e01b8152600401602060405180830381865afa158015611d32573d5f803e3d5ffd5b505050506040513d601f19601f82011682018060405250810190611d5691906161ac565b905060128160ff161015611d8b57611d6f8160126161e0565b611d7a90600a6162d9565b611d8490836162fb565b9150611dba565b60128160ff161115611dba57611da26012826161e0565b611dad90600a6162d9565b611db7908361631a565b91505b611dc48284616331565b94505050505090565b5f6117a882613af4565b6001600160a01b037f0000000000000000000000000000000000000000000000000000000000000000163003611e1f5760405162461bcd60e51b815260040161056c90615fe5565b7f00000000000000000000000000000000000000000000000000000000000000006001600160a01b0316611e516136e0565b6001600160a01b031614611e775760405162461bcd60e51b815260040161056c9061601e565b611e80826136fb565b6115b582826001613736565b61173c613d0d565b5f306001600160a01b037f00000000000000000000000000000000000000000000000000000000000000001614611f2e5760405162461bcd60e51b815260206004820152603860248201527f555550535570677261646561626c653a206d757374206e6f742062652063616c6044820152771b1959081d1a1c9bdd59da0819195b1959d85d1958d85b1b60421b606482015260840161056c565b505f80516020616c7c8339815191525b90565b5f81158015611f675750600260765460ff166002811115611f6457611f64615764565b14155b15611f7357505f919050565b5f611f7c611b32565b9050805f03611f8d57611b2b613e33565b5f629896808260725f0154611fa2919061631a565b611fac91906162fb565b905080841115611fbf57505f9392505050565b6071546074546073546072546075546040516314eff2dd60e11b815273__$f1b7c69ba751c396eddc93d3bbc5414fd9$__956329dfe5ba95612010958c958b95939492939192909190600401616344565b602060405180830381865af415801561202b573d5f803e3d5ffd5b505050506040513d601f19601f8201168201806040525081019061204f9190616195565b949350505050565b5f818152607b6020526040812061206c613ee7565b61207a576003015492915050565b73__$f1b7c69ba751c396eddc93d3bbc5414fd9$__63010dfe648260070154436120a49190616374565b600384015460028501546074546040516001600160e01b031960e087901b1681526120d594939291906004016156fb565b602060405180830381865af41580156120f0573d5f803e3d5ffd5b505050506040513d601f19601f82011682018060405250810190611b2b9190616195565b5f611f3e61050e565b5f54610100900460ff166121875760405162461bcd60e51b815260206004820152602b60248201527f496e697469616c697a61626c653a20636f6e7472616374206973206e6f74206960448201526a6e697469616c697a696e6760a81b606482015260840161056c565b61219081612719565b606580546001600160a01b0319166001600160a01b0385161790556040516121bc90839060200161582f565b60408051601f198184030181529190528051602090910120606655505050565b60605f6121e7613fe3565b6001810154909150806001600160401b03811115612207576122076152bd565b60405190808252806020026020018201604052801561224c57816020015b604080518082019091525f8152606060208201528152602001906001900390816122255790505b5092505f816001600160401b03811115612268576122686152bd565b604051908082528060200260200182016040528015612291578160200160208202803683370190505b5090505f805b83811015612516575f8560010182815481106122b5576122b5616387565b5f918252602080832060088304015460079092166004026101000a90910460e01b6001600160e01b0319811683529088905260408220549092506001600160a01b031690805b858110156123e657826001600160a01b03168a828151811061231f5761231f616387565b60200260200101515f01516001600160a01b0316036123de57838a828151811061234b5761234b616387565b60200260200101516020015188838151811061236957612369616387565b602002602001015161ffff168151811061238557612385616387565b60200260200101906001600160e01b03191690816001600160e01b031916815250508681815181106123b9576123b9616387565b6020026020010180518091906123ce9061639b565b61ffff16905250600191506123e6565b6001016122fb565b5080156123f6575061250e915050565b8189868151811061240957612409616387565b60209081029190910101516001600160a01b039091169052866001600160401b03811115612439576124396152bd565b604051908082528060200260200182016040528015612462578160200160208202803683370190505b5089868151811061247557612475616387565b6020026020010151602001819052508289868151811061249757612497616387565b6020026020010151602001515f815181106124b4576124b4616387565b60200260200101906001600160e01b03191690816001600160e01b0319168152505060018686815181106124ea576124ea616387565b61ffff9092166020928302919091019091015284612507816163bb565b9550505050505b600101612297565b505f5b81811015612570575f86828151811061253457612534616387565b60200260200101516020015190505f84838151811061255557612555616387565b602090810291909101015161ffff1690915250600101612519565b508085525050505090565b6076805482919060ff19166001836002811115611b1857611b18615764565b6125a26133d6565b61173c5f613ff4565b5f828152607b6020526040812081906125c49084614032565b915091505b9250929050565b607d602052815f5260405f2081815481106125e9575f80fd5b905f5260205f20015f91509150505481565b5f612604611586565b6001600160a01b03163b5f0361261c57611599611586565b612624611586565b6001600160a01b0316638da5cb5b6040518163ffffffff1660e01b8152600401602060405180830381865afa92505050801561267d575060408051601f3d908101601f1916820190925261267a91810190616057565b60015b6115c257611599611586565b5f6117a882614117565b606a80546001600160a01b0319166001600160a01b0392909216919091179055565b6115b5828261414e565b5f6126c86136bc565b5f9283526003016020525060409020546001600160a01b031690565b6126936133d6565b5f6126f56136bc565b60010154905090565b5f61270761050e565b95945050505050565b6115d781614214565b5f54610100900460ff161580801561273757505f54600160ff909116105b8061275757506127463061337c565b15801561275757505f5460ff166001145b6127735760405162461bcd60e51b815260040161056c90615e3f565b5f805460ff191660011790558015612794575f805461ff0019166101001790555b61279d82613ff4565b80156115b5575f805461ff0019169055604051600181525f80516020616c9c83398151915290602001611aeb565b6127d361050e565b50505050505050565b5f805f805f805f805f805f805f607b5f8f81526020019081526020015f20905080600101545f1480156128265750600260765460ff16600281111561282357612823615764565b14155b15612833575f9450612916565b5f61283c611b32565b90505f6128518260725f01546298968061425b565b9050815f0361286957612862613e33565b9650612913565b808360010154111561287d575f9650612913565b60018301546071546074546073546072546075546040516314eff2dd60e11b815273__$f1b7c69ba751c396eddc93d3bbc5414fd9$__966329dfe5ba966128d19691958b9591949293909290600401616344565b602060405180830381865af41580156128ec573d5f803e3d5ffd5b505050506040513d601f19601f820116820180604052508101906129109190616195565b96505b50505b806005015f9054906101000a90046001600160a01b0316816004015f9054906101000a90046001600160a01b0316826006015f9054906101000a90046001600160a01b031683600101548460020154856008015f9054906101000a900460ff16866007015487600301548c896009015f336001600160a01b03166001600160a01b031681526020019081526020015f20548a601001548b600a015f01549c509c509c509c509c509c509c509c509c509c509c509c505091939597999b5091939597999b565b6040516318feeb1560e31b8152600481018290525f908190309063c7f758a89060240161018060405180830381865afa158015612a1a573d5f803e3d5ffd5b505050506040513d601f19601f82011682018060405250810190612a3e91906163d3565b50919d9c50505050505050505050505050565b612a5961050e565b505050505050565b5f868152607b602052604090208681556005810180546001600160a01b0319166001600160a01b0388161790556001808201869055600882018054869260ff1990911690836006811115612ab757612ab7615764565b0217905550600781018390556003810182905560408051808201825260018152815180830190925260048252636d65746160e01b60208381019190915281018290528051600a84019081559091600b840190612b1390826164c2565b50505050505050505050565b61173c61433f565b5f61159960675460ff1690565b5f828152607b602090815260408083206001600160a01b0385168452600901909152812054611b2b565b5f6117a88261437b565b612b706143a6565b612b79826143d1565b606a54606c8054612ba1926001600160a01b0316915f612b98836163bb565b9190505561442e565b607980546001600160a01b0319166001600160a01b039290921691821790556040805163204a7f0760e21b81529051638129fc1c916004808201925f9290919082900301818387803b158015612bf5575f80fd5b505af1158015612c07573d5f803e3d5ffd5b505050505f81806020019051810190612c2091906166e3565b60a0810151607880546001600160a01b0319166001600160a01b0392831617905560c08201519192501615612c59578060c00151612c5f565b8060a001515b608380546001600160a01b0319166001600160a01b0392909216919091179055608081015151612c8e90614474565b612c9b8160e001516138c9565b60208101516076805460ff19166001836002811115612cbc57612cbc615764565b021790555060408101516076805461ff001916610100836004811115612ce457612ce4615764565b021790555060608101515160775560e0810151607a80546001600160a01b039283166001600160a01b031991821617909155610140830151608080549190931691161790556101608101516082556040517ff5eb09d0087c79c1d71dcda48cad7b075c9cf56c9354addb6cab6cde6194bc6f90612d649085908490616865565b60405180910390a1600281602001516002811115612d8457612d84615764565b03612ed0576080546001600160a01b03161580612da15750608254155b15612dcc576080546040516330d466e760e11b815261056c916001600160a01b03169060040161524f565b6080546040805180820182525f808252602082018181529251630779d36560e01b81526001600160a01b039094166004850152306024850152905115156044840152905115156064830152908190736da13bde224a05a288748d857b9e7ddeffd1de0890630779d3659060840160408051808303815f875af1158015612e54573d5f803e3d5ffd5b505050506040513d601f19601f82011682018060405250810190612e7891906169a2565b91509150811580612e9057506001600160a01b038116155b15612eae5760405163946c56ed60e01b815260040160405180910390fd5b608180546001600160a01b0319166001600160a01b0392909216919091179055505b6080546081546082546040519081526001600160a01b0392831692909116907f40b1b33a11a0c5522c7983a68e1af5f98f6a1cedd1aa8b4235c1ddfd006223549060200160405180910390a36080810151602001516001600160a01b031615801590612f4957506080810151516001600160a01b031615155b156130b5576080810151805160209091015160405163446adb9960e11b81526001600160a01b03909216916388d5b73291612f869160040161524f565b5f604051808303815f87803b158015612f9d575f80fd5b505af1158015612faf573d5f803e3d5ffd5b5050606f8054925090505f612fc3836163bb565b909155505060808181018051606f80545f908152607f6020908152604091829020845181546001600160a01b039182166001600160a01b03199182161783558387015160018401805491841691909216179055838601516002830155606080870151600384015586890151600484015560a096870151600590930192909255935495518051818401518286015183850151848c0151948a015188519b8c52938916968b019690965296168886015291870194909452958501529183015260c082019290925290517fe677e2878aaaaf6a65ecf50f849ad58100c49f6dfd57d055ba4bddd63a175d539181900360e00190a15b8051604001511580156130cb5750805160200151155b80156130d75750805151155b80156130e65750805160600151155b61313f578051805160725560208101516073556040808201516074556060820151607555517fec9315d9f4291207475c061feff1e5d7105750ac0ee9534af9444b4ff1dab9bc91613136916169cf565b60405180910390a15b607a546001600160a01b031615611581576115818161010001516139d7565b61173c614582565b61316e6133d6565b6001600160a01b0381166131d35760405162461bcd60e51b815260206004820152602660248201527f4f776e61626c653a206e6577206f776e657220697320746865207a65726f206160448201526564647265737360d01b606482015260840161056c565b6115d781613ff4565b7f12ec43b97389db0cfbdf8d85f200f1b822123856376a9d75d3a6918f27c903bb90565b5f6001600160e01b03198216631add1a0d60e01b148061323057506001600160e01b0319821663088a8e8160e21b145b8061324b57506001600160e01b0319821663136439dd60e01b145b8061326657506001600160e01b031982166380c4a65f60e01b145b8061328157506001600160e01b03198216631fa5d41d60e11b145b8061329c57506001600160e01b0319821663bac1e94b60e01b145b806132b757506001600160e01b0319821663adaf157b60e01b145b806132d257506001600160e01b031982166360b4778960e01b145b806132ed57506001600160e01b031982166358c3de9360e11b145b8061330857506001600160e01b031982166304db2f3360e11b145b8061332357506001600160e01b03198216630da748b160e41b145b806117a857506001600160e01b03198216632d2ebbef60e01b1492915050565b5f8061334f8484614032565b91509150815f148015613360575080155b1561336b5750505050565b600784015560039092019190915550565b6001600160a01b03163b151590565b5f613394613fe3565b6003810180546001600160a01b038581166001600160a01b031983168117909355604051939450169182905f80516020616cbc833981519152905f90a3505050565b5f6133df611586565b90506001600160a01b03811633036133f45750565b5f6133fd6125fb565b9050336001600160a01b038216146115b55760405162461bcd60e51b815260206004820181905260248201527f4f776e61626c653a2063616c6c6572206973206e6f7420746865206f776e6572604482015260640161056c565b5f5b835181101561357a575f84828151811061347557613475616387565b60200260200101516040015190505f85838151811061349657613496616387565b60200260200101515f0151905081515f036134c6578060405163e767f91f60e01b815260040161056c919061524f565b5f8684815181106134d9576134d9616387565b60200260200101516020015190505f60038111156134f9576134f9615764565b81600381111561350b5761350b615764565b0361351f5761351a828461467c565b61356f565b600181600381111561353357613533615764565b036135425761351a8284614806565b600281600381111561355657613556615764565b036135655761351a8284614963565b61356f8284614bad565b505050600101613459565b507f8faa70878671ccd212d20771b795c50af8fd3ff6cf27f4bde57e5d4de0aeb6738383836040516135ae939291906169dd565b60405180910390a16115818282614daf565b6001600160a01b0381166135e9578060405163538cffa360e01b815260040161056c919061524f565b6078546001600160a01b031661361f57607854604051632294771360e01b815261056c916001600160a01b03169060040161524f565b60835460405163288c314960e21b81526001600160a01b039091169063a230c5249061364f90849060040161524f565b602060405180830381865afa15801561366a573d5f803e3d5ffd5b505050506040513d601f19601f8201168201806040525081019061368e9190615e24565b6115d757607854604051634abc464160e11b815261056c9183916001600160a01b0390911690600401616a96565b7fd5d05b1f29dcb0c0e1698b0261850eb784d1243215a6aa22ea2b8128b2e9497c90565b5f80516020616c7c833981519152546001600160a01b031690565b336137046125fb565b6001600160a01b0316146115d7573361371b6125fb565b60405163163678e960e01b815260040161056c929190616a96565b7f4910fdfa16fed3260ed0e7147f7cc6da11a60208b5b9406d12a635614ffd91435460ff16156137695761158183614e71565b826001600160a01b03166352d1902d6040518163ffffffff1660e01b8152600401602060405180830381865afa9250505080156137c3575060408051601f3d908101601f191682019092526137c091810190616195565b60015b6138265760405162461bcd60e51b815260206004820152602e60248201527f45524331393637557067726164653a206e657720696d706c656d656e7461746960448201526d6f6e206973206e6f74205555505360901b606482015260840161056c565b5f80516020616c7c83398151915281146138945760405162461bcd60e51b815260206004820152602960248201527f45524331393637557067726164653a20756e737570706f727465642070726f786044820152681a58589b195555525160ba1b606482015260840161056c565b50611581838383614f0a565b6001600160a01b0381166115d7578060405163084c41ef60e01b815260040161056c919061524f565b6001600160a01b0381166138da5750565b60785f9054906101000a90046001600160a01b03166001600160a01b031663f86c5f896040518163ffffffff1660e01b8152600401602060405180830381865afa15801561392a573d5f803e3d5ffd5b505050506040513d601f19601f8201168201806040525081019061394e9190616057565b6001600160a01b031663f9f6b49b826040518263ffffffff1660e01b8152600401613979919061524f565b602060405180830381865afa158015613994573d5f803e3d5ffd5b505050506040513d601f19601f820116820180604052508101906139b89190615e24565b6115d757806040516310c4c2c360e31b815260040161056c919061524f565b607a5460785460408051633629edcd60e11b815290516001600160a01b039384169363fc2ebdd193309387939190921691636c53db9a9160048083019260209291908290030181865afa158015613a30573d5f803e3d5ffd5b505050506040513d601f19601f82011682018060405250810190613a549190616057565b60405160e085901b6001600160e01b03191681526001600160a01b039384166004820152602481019290925290911660448201526064015f604051808303815f87803b158015613aa2575f80fd5b505af115801561178f573d5f803e3d5ffd5b5f80613ac08385616ab0565b90505f811215611b2b57604051631dde38a160e11b815260048101859052602481018490526044810182905260640161056c565b607a545f906001600160a01b031615613b7857607a546040516302154c3d60e51b81526001600160a01b03909116906342a987a090613b399085903090600401616a96565b602060405180830381865afa158015613b54573d5f803e3d5ffd5b505050506040513d601f19601f820116820180604052508101906117a89190615e24565b6004607654610100900460ff166004811115613b9657613b96615764565b148015613bb457506078546083546001600160a01b03908116911614155b15613be95760835460405163288c314960e21b81526001600160a01b039091169063a230c52490613b3990859060040161524f565b6068546040516810531313d5d31254d560ba1b602082015260298101919091525f9060490160408051601f19818403018152908290528051602090910120607854632474521560e21b83529092506001600160a01b0316906391d1485490613c579084905f90600401616ad7565b602060405180830381865afa158015613c72573d5f803e3d5ffd5b505050506040513d601f19601f82011682018060405250810190613c969190615e24565b80611b2b5750607854604051632474521560e21b81526001600160a01b03909116906391d1485490613cce9084908790600401616ad7565b602060405180830381865afa158015613ce9573d5f803e3d5ffd5b505050506040513d601f19601f82011682018060405250810190611b2b9190615e24565b60785f9054906101000a90046001600160a01b03166001600160a01b0316636c53db9a6040518163ffffffff1660e01b8152600401602060405180830381865afa158015613d5d573d5f803e3d5ffd5b505050506040513d601f19601f82011682018060405250810190613d819190616057565b6001600160a01b0316336001600160a01b031614158015613da85750613da633613af4565b155b1561173c5760785460408051633629edcd60e11b8152905133926001600160a01b031691636c53db9a9160048083019260209291908290030181865afa158015613df4573d5f803e3d5ffd5b505050506040513d601f19601f82011682018060405250810190613e189190616057565b604051637d19bac760e11b815260040161056c929190616a96565b5f600260765460ff166002811115613e4d57613e4d615764565b14613e5757505f90565b6071546074546073546072546075546040516314eff2dd60e11b815273__$f1b7c69ba751c396eddc93d3bbc5414fd9$__956329dfe5ba95613ea8955f958695939492939192909190600401616344565b602060405180830381865af4158015613ec3573d5f803e3d5ffd5b505050506040513d601f19601f820116820180604052508101906115999190616195565b6078545f906001600160a01b0316613eff5750600190565b6078546040515f9182916001600160a01b0390911690633a871fe160e01b90613f2c90309060240161524f565b60408051601f198184030181529181526020820180516001600160e01b03166001600160e01b0319909416939093179092529051613f6a9190616aee565b5f60405180830381855afa9150503d805f8114613fa2576040519150601f19603f3d011682016040523d82523d5f602084013e613fa7565b606091505b5091509150811580613fba575060208151105b15613fc85760019250505090565b80806020019051810190613fdc9190615e24565b9250505090565b5f80516020616bf083398151915290565b603380546001600160a01b038381166001600160a01b0319831681179093556040519116919082905f80516020616cbc833981519152905f90a35050565b5f8061403c613ee7565b61404d5750506003820154436125c9565b439050808460070154111561406457614064616b09565b8084600701540361407957505f9050806125c9565b73__$f1b7c69ba751c396eddc93d3bbc5414fd9$__63010dfe648560070154836140a39190616374565b60038701546074546040516001600160e01b031960e086901b1681526140cf93929189916004016156fb565b602060405180830381865af41580156140ea573d5f803e3d5ffd5b505050506040513d601f19601f8201168201806040525081019061410e9190616195565b91509250929050565b5f818152607b6020526040812054158015906117a85750505f908152607b60205260409020600501546001600160a01b0316151590565b5f828152607b6020526040812090821380156141e957505f600882015460ff16600681111561417f5761417f615764565b14806141a357506003600882015460ff1660068111156141a1576141a1615764565b145b806141c657506004600882015460ff1660068111156141c4576141c4615764565b145b806141e957506006600882015460ff1660068111156141e7576141e7615764565b145b156115815760088101546040516394d57ead60e01b815261056c91859160ff90911690600401616b1d565b6067805460ff19168215159081179091556040519081527fd94c9bc4d43c51d8dc345a016d8e3d994432fac68e72832e4cf3a616bd8efae09060200160405180910390a150565b5f80805f19858709858702925082811083820303915050805f0361429257838281614288576142886162e7565b0492505050611b2b565b8084116142d95760405162461bcd60e51b81526020600482015260156024820152744d6174683a206d756c446976206f766572666c6f7760581b604482015260640161056c565b5f84868809600260036001881981018916988990049182028318808302840302808302840302808302840302808302840302808302840302918202909203025f889003889004909101858311909403939093029303949094049190911702949350505050565b6078546001600160a01b0316331461173c576078546040516317d39bcb60e21b815261056c9133916001600160a01b0390911690600401616a96565b5f614389629896808361631a565b614391611b32565b60725461439e919061631a565b111592915050565b6065546001600160a01b0316331461173c5760405163075fd2b160e01b815260040160405180910390fd5b5f356001600160e01b0319166143e5575f80fd5b6143ed6143a6565b6068541561440e5760405163439a74c960e01b815260040160405180910390fd5b805f0361105357604051637fcce2a960e01b815260040160405180910390fd5b6040516001600160601b03193360601b166020820152603481018290525f90819060540160405160208183030381529060405280519060200120905061204f8482614f2e565b6001600160a01b0381166144855750565b60785f9054906101000a90046001600160a01b03166001600160a01b031663f86c5f896040518163ffffffff1660e01b8152600401602060405180830381865afa1580156144d5573d5f803e3d5ffd5b505050506040513d601f19601f820116820180604052508101906144f99190616057565b6001600160a01b031663f9f6b49b826040518263ffffffff1660e01b8152600401614524919061524f565b602060405180830381865afa15801561453f573d5f803e3d5ffd5b505050506040513d601f19601f820116820180604052508101906145639190615e24565b6115d757806040516302bc866560e61b815260040161056c919061524f565b60785f9054906101000a90046001600160a01b03166001600160a01b0316636c53db9a6040518163ffffffff1660e01b8152600401602060405180830381865afa1580156145d2573d5f803e3d5ffd5b505050506040513d601f19601f820116820180604052508101906145f69190616057565b6001600160a01b0316336001600160a01b031614158015614630575061461a6125fb565b6001600160a01b0316336001600160a01b031614155b1561173c5760785460408051633629edcd60e11b8152905133926001600160a01b031691636c53db9a9160048083019260209291908290030181865afa158015611a25573d5f803e3d5ffd5b6001600160a01b0382166146a557806040516302b8da0760e21b815260040161056c9190616b31565b5f6146ae613fe3565b90505f816001018054905090506146dd84604051806060016040528060248152602001616c1060249139614fc2565b5f5b835181101561178f575f8482815181106146fb576146fb616387565b6020908102919091018101516001600160e01b031981165f908152918690526040909120549091506001600160a01b0316801561474d578160405163ebbf5d0760e01b815260040161056c91906151fd565b6040805180820182526001600160a01b03808a16825261ffff80881660208085019182526001600160e01b031988165f9081528b8252958620945185549251909316600160a01b026001600160b01b0319909216929093169190911717909155600180880180549182018155835291206008820401805460e085901c60046007909416939093026101000a92830263ffffffff9093021916919091179055836147f58161639b565b945050600190920191506146df9050565b5f61480f613fe3565b90506001600160a01b03831661483a578160405163cd98a96f60e01b815260040161056c9190616b31565b61485c83604051806060016040528060288152602001616d0360289139614fc2565b5f5b82518110156115e2575f83828151811061487a5761487a616387565b6020908102919091018101516001600160e01b031981165f908152918590526040909120549091506001600160a01b03163081036148cd5781604051632901806d60e11b815260040161056c91906151fd565b856001600160a01b0316816001600160a01b0316036149015781604051631ac6ce8d60e11b815260040161056c91906151fd565b6001600160a01b03811661492a5781604051637479f93960e01b815260040161056c91906151fd565b506001600160e01b0319165f90815260208390526040902080546001600160a01b0319166001600160a01b03861617905560010161485e565b5f61496c613fe3565b60018101549091506001600160a01b0384161561499e578360405163d091bc8160e01b815260040161056c919061524f565b5f5b835181101561178f575f8482815181106149bc576149bc616387565b6020908102919091018101516001600160e01b031981165f9081528683526040908190208151808301909252546001600160a01b038116808352600160a01b90910461ffff169382019390935290925090614a2c5781604051637a08a22d60e01b815260040161056c91906151fd565b8051306001600160a01b0390911603614a5a5781604051630df5fd6160e31b815260040161056c91906151fd565b83614a6481616b7e565b94505083816020015161ffff1614614b3e575f856001018581548110614a8c57614a8c616387565b905f5260205f2090600891828204019190066004029054906101000a900460e01b90508086600101836020015161ffff1681548110614acd57614acd616387565b5f91825260208083206008830401805463ffffffff60079094166004026101000a938402191660e09590951c92909202939093179055838201516001600160e01b03199390931681529087905260409020805461ffff60a01b1916600160a01b61ffff909316929092029190911790555b84600101805480614b5157614b51616b93565b5f828152602080822060085f1990940193840401805463ffffffff600460078716026101000a0219169055919092556001600160e01b0319909316815291859052506040902080546001600160b01b03191690556001016149a0565b6001600160a01b038216614bd657806040516302b8da0760e21b815260040161056c9190616b31565b5f614bdf613fe3565b9050614c0383604051806060016040528060258152602001616bcb60259139614fc2565b5f82516001600160401b03811115614c1d57614c1d6152bd565b604051908082528060200260200182016040528015614c46578160200160208202803683370190505b5090505f8084516001600160401b03811115614c6457614c646152bd565b604051908082528060200260200182016040528015614c8d578160200160208202803683370190505b5090505f805b8651811015614d7c575f878281518110614caf57614caf616387565b6020908102919091018101516001600160e01b031981165f908152918990526040909120549091506001600160a01b031680614d2157818787614cf1816163bb565b985081518110614d0357614d03616387565b6001600160e01b031990921660209283029190910190910152614d72565b896001600160a01b0316816001600160a01b031614614d7257818585614d46816163bb565b965081518110614d5857614d58616387565b6001600160e01b0319909216602092830291909101909101525b5050600101614c93565b508215614d9657614d9687614d918686614fe9565b61467c565b80156127d3576127d387614daa8484614fe9565b614806565b6001600160a01b038216614dc1575050565b614de382604051806060016040528060288152602001616c3460289139614fc2565b5f80836001600160a01b031683604051614dfd9190616aee565b5f60405180830381855af49150503d805f8114614e35576040519150601f19603f3d011682016040523d82523d5f602084013e614e3a565b606091505b5091509150816115e257805115614e545780518082602001fd5b838360405163192105d760e01b815260040161056c929190616ba7565b614e7a8161337c565b614edc5760405162461bcd60e51b815260206004820152602d60248201527f455243313936373a206e657720696d706c656d656e746174696f6e206973206e60448201526c1bdd08184818dbdb9d1c9858dd609a1b606482015260840161056c565b5f80516020616c7c83398151915280546001600160a01b0319166001600160a01b0392909216919091179055565b614f138361508f565b5f82511180614f1f5750805b15611581576115e283836150ce565b5f763d602d80600a3d3981f3363d3d373d3d3d363d730000008360601b60e81c175f526e5af43d82803e903d91602b57fd5bf38360781b1760205281603760095ff590506001600160a01b0381166117a85760405162461bcd60e51b8152602060048201526017602482015276115490cc4c4d8dce8818dc99585d194c8819985a5b1959604a1b604482015260640161056c565b813b5f81900361158157828260405163919834b960e01b815260040161056c929190616ba7565b60605f826001600160401b03811115615004576150046152bd565b60405190808252806020026020018201604052801561502d578160200160208202803683370190505b5090505f5b838110156150875784818151811061504c5761504c616387565b602002602001015182828151811061506657615066616387565b6001600160e01b031990921660209283029190910190910152600101615032565b509392505050565b61509881614e71565b6040516001600160a01b038216907fbc7cd75a20ee27fd9adebab32041f755214dbc6bffa90cc0225b39da2e5c2d3b905f90a250565b6060611b2b8383604051806060016040528060278152602001616cdc6027913960605f80856001600160a01b03168560405161510a9190616aee565b5f60405180830381855af49150503d805f8114615142576040519150601f19603f3d011682016040523d82523d5f602084013e615147565b606091505b509150915061515886838387615162565b9695505050505050565b606083156151ce5782515f036151c75761517b8561337c565b6151c75760405162461bcd60e51b815260206004820152601d60248201527f416464726573733a2063616c6c20746f206e6f6e2d636f6e7472616374000000604482015260640161056c565b508161204f565b61204f83838151156151e35781518083602001fd5b8060405162461bcd60e51b815260040161056c919061582f565b6001600160e01b031991909116815260200190565b80356001600160e01b0319811681146115c2575f80fd5b5f60208284031215615239575f80fd5b611b2b82615212565b6001600160a01b03169052565b6001600160a01b0391909116815260200190565b6001600160a01b03811681146115d7575f80fd5b80356115c281615263565b5f60208284031215615292575f80fd5b8135611b2b81615263565b5f80604083850312156152ae575f80fd5b50508035926020909101359150565b634e487b7160e01b5f52604160045260245ffd5b604080519081016001600160401b03811182821017156152f3576152f36152bd565b60405290565b604051608081016001600160401b03811182821017156152f3576152f36152bd565b60405160c081016001600160401b03811182821017156152f3576152f36152bd565b604051606081016001600160401b03811182821017156152f3576152f36152bd565b60405161018081016001600160401b03811182821017156152f3576152f36152bd565b604051601f8201601f191681016001600160401b03811182821017156153aa576153aa6152bd565b604052919050565b5f6001600160401b038211156153ca576153ca6152bd565b5060051b60200190565b5f82601f8301126153e3575f80fd5b813560206153f86153f3836153b2565b615382565b8083825260208201915060208460051b870101935086841115615419575f80fd5b602086015b8481101561543e57803561543181615263565b835291830191830161541e565b509695505050505050565b5f6001600160401b03821115615461576154616152bd565b50601f01601f191660200190565b5f82601f83011261547e575f80fd5b813561548c6153f382615449565b8181528460208386010111156154a0575f80fd5b816020850160208301375f918101602001919091529392505050565b5f805f606084860312156154ce575f80fd5b83356001600160401b03808211156154e4575f80fd5b6154f0878388016153d4565b94506020860135915080821115615505575f80fd5b506155128682870161546f565b925050604084013561552381615263565b809150509250925092565b5f6020828403121561553e575f80fd5b5035919050565b5f805f8060808587031215615558575f80fd5b8435935060208501356001600160401b0380821115615575575f80fd5b9086019060408289031215615588575f80fd5b6155906152d1565b823581526020830135828111156155a5575f80fd5b6155b18a82860161546f565b6020830152509450505060408501356155c981615263565b9396929550929360600135925050565b5f805f606084860312156155eb575f80fd5b83356155f681615263565b9250602084013561560681615263565b9150604084013561552381615263565b5f8083601f840112615626575f80fd5b5081356001600160401b0381111561563c575f80fd5b6020830191508360208285010111156125c9575f80fd5b5f805f805f60608688031215615667575f80fd5b85356001600160401b038082111561567d575f80fd5b818801915088601f830112615690575f80fd5b81358181111561569e575f80fd5b8960208260051b85010111156156b2575f80fd5b602083019750809650506156c860208901615277565b945060408801359150808211156156dd575f80fd5b506156ea88828901615616565b969995985093965092949392505050565b93845260208401929092526040830152606082015260800190565b5f8060408385031215615727575f80fd5b82356001600160401b0381111561573c575f80fd5b6157488582860161546f565b925050602083013561575981615263565b809150509250929050565b634e487b7160e01b5f52602160045260245ffd5b6005811061578857615788615764565b9052565b602081016117a88284615778565b5f80604083850312156157ab575f80fd5b82356157b681615263565b946020939093013593505050565b6003811061578857615788615764565b602081016117a882846157c4565b5f5b838110156157fc5781810151838201526020016157e4565b50505f910152565b5f815180845261581b8160208601602086016157e2565b601f01601f19169290920160200192915050565b602081525f611b2b6020830184615804565b600581106115d7575f80fd5b5f6020828403121561585d575f80fd5b8135611b2b81615841565b5f8060408385031215615879575f80fd5b823561588481615263565b915060208301356001600160401b0381111561589e575f80fd5b6158aa8582860161546f565b9150509250929050565b5f608082840312156158c4575f80fd5b6158cc6152f9565b90508135815260208201356020820152604082013560408201526060820135606082015292915050565b5f60808284031215615906575f80fd5b611b2b83836158b4565b5f805f60608486031215615922575f80fd5b833561592d81615263565b925060208401356001600160401b03811115615947575f80fd5b6155128682870161546f565b5f815180845260208085019450602084015f5b8381101561598c5781516001600160e01b03191687529582019590820190600101615966565b509495945050505050565b5f60208083018184528085518083526040925060408601915060408160051b8701018488015f5b83811015615a0657888303603f19018552815180516001600160a01b031684528701518784018790526159f387850182615953565b95880195935050908601906001016159be565b509098975050505050505050565b600381106115d7575f80fd5b5f60208284031215615a30575f80fd5b8135611b2b81615a14565b5f8060408385031215615a4c575f80fd5b6157b683615212565b5f805f60608486031215615a67575f80fd5b833592506020840135615a7981615263565b929592945050506040919091013590565b5f805f805f60608688031215615a9e575f80fd5b8535945060208601356001600160401b0380821115615abb575f80fd5b615ac789838a01615616565b909650945060408801359150808211156156dd575f80fd5b80151581146115d7575f80fd5b5f60208284031215615afc575f80fd5b8135611b2b81615adf565b5f60c08284031215615b17575f80fd5b615b1f61531b565b90508135615b2c81615263565b81526020820135615b3c81615263565b8060208301525060408201356040820152606082013560608201526080820135608082015260a082013560a082015292915050565b5f805f805f805f6101e0888a031215615b88575f80fd5b615b928989615b07565b9650615ba18960c08a016158b4565b955061014088013594506101608801356001600160401b0380821115615bc5575f80fd5b615bd18b838c016153d4565b95506101808a0135915080821115615be7575f80fd5b50615bf48a828b016153d4565b9350506101a0880135615c0681615263565b809250506101c0880135905092959891949750929550565b6007811061578857615788615764565b6001600160a01b038d811682528c811660208301528b166040820152606081018a9052608081018990526101808101615c6a60a083018a615c1e565b8760c08301528660e0830152856101008301528461012083015283610140830152826101608301529d9c50505050505050505050505050565b5f805f805f806101c08789031215615cb9575f80fd5b615cc38888615b07565b9550615cd28860c089016158b4565b945061014087013593506101608701356001600160401b0380821115615cf6575f80fd5b615d028a838b016153d4565b9450610180890135915080821115615d18575f80fd5b50615d2589828a016153d4565b9250506101a0870135615d3781615263565b809150509295509295509295565b600781106115d7575f80fd5b5f805f805f8060c08789031215615d66575f80fd5b863595506020870135615d7881615263565b9450604087013593506060870135615d8f81615d45565b9598949750929560808101359460a0909101359350915050565b5f8060408385031215615dba575f80fd5b82359150602083013561575981615263565b5f8060408385031215615ddd575f80fd5b8235915060208301356001600160401b0381111561589e575f80fd5b5f8060e08385031215615e0a575f80fd5b82359150615e1b8460208501615b07565b90509250929050565b5f60208284031215615e34575f80fd5b8151611b2b81615adf565b6020808252602e908201527f496e697469616c697a61626c653a20636f6e747261637420697320616c72656160408201526d191e481a5b9a5d1a585b1a5e995960921b606082015260800190565b5f615e9a6153f3846153b2565b83815260208082019190600586811b860136811115615eb7575f80fd5b865b81811015615fa05780356001600160401b0380821115615ed7575f80fd5b818a01915060608236031215615eeb575f80fd5b615ef361533d565b8235615efe81615263565b81528287013560048110615f10575f80fd5b8188015260408381013583811115615f26575f80fd5b939093019236601f850112615f39575f80fd5b83359250615f496153f3846153b2565b83815292871b84018801928881019036851115615f64575f80fd5b948901945b84861015615f8957615f7a86615212565b82529489019490890190615f69565b918301919091525088525050948301948301615eb9565b5092979650505050505050565b600181811c90821680615fc157607f821691505b602082108103615fdf57634e487b7160e01b5f52602260045260245ffd5b50919050565b6020808252602c908201525f80516020616c5c83398151915260408201526b19195b1959d85d1958d85b1b60a21b606082015260800190565b6020808252602c908201525f80516020616c5c83398151915260408201526b6163746976652070726f787960a01b606082015260800190565b5f60208284031215616067575f80fd5b8151611b2b81615263565b80516115c281615263565b5f602080838503121561608e575f80fd5b82516001600160401b03808211156160a4575f80fd5b9084019060c082870312156160b7575f80fd5b6160bf61531b565b82518152838301516160d081615263565b8185015260408301516160e281615263565b60408201526060830151828111156160f8575f80fd5b830160408189031215616109575f80fd5b6161116152d1565b815181528582015184811115616125575f80fd5b82019350601f84018913616137575f80fd5b835191506161476153f383615449565b828152898784870101111561615a575f80fd5b616169838883018988016157e2565b95810195909552506060810193909352506080818101519083015260a090810151908201529392505050565b5f602082840312156161a5575f80fd5b5051919050565b5f602082840312156161bc575f80fd5b815160ff81168114611b2b575f80fd5b634e487b7160e01b5f52601160045260245ffd5b60ff82811682821603908111156117a8576117a86161cc565b600181815b8085111561623357815f1904821115616219576162196161cc565b8085161561622657918102915b93841c93908002906161fe565b509250929050565b5f82616249575060016117a8565b8161625557505f6117a8565b816001811461626b576002811461627557616291565b60019150506117a8565b60ff841115616286576162866161cc565b50506001821b6117a8565b5060208310610133831016604e8410600b84101617156162b4575081810a6117a8565b6162be83836161f9565b805f19048211156162d1576162d16161cc565b029392505050565b5f611b2b60ff84168361623b565b634e487b7160e01b5f52601260045260245ffd5b5f8261631557634e487b7160e01b5f52601260045260245ffd5b500490565b80820281158282048414176117a8576117a86161cc565b808201808211156117a8576117a86161cc565b968752602087019590955260408601939093526060850191909152608084015260a083015260c082015260e00190565b818103818111156117a8576117a86161cc565b634e487b7160e01b5f52603260045260245ffd5b5f61ffff8083168181036163b1576163b16161cc565b6001019392505050565b5f600182016163cc576163cc6161cc565b5060010190565b5f805f805f805f805f805f806101808d8f0312156163ef575f80fd5b8c516163fa81615263565b60208e0151909c5061640b81615263565b60408e0151909b5061641c81615263565b809a505060608d0151985060808d0151975060a08d015161643c81615d45565b8097505060c08d0151955060e08d015194506101008d015193506101208d015192506101408d015191506101608d015190509295989b509295989b509295989b565b601f82111561158157805f5260205f20601f840160051c810160208510156164a35750805b601f840160051c820191505b8181101561178f575f81556001016164af565b81516001600160401b038111156164db576164db6152bd565b6164ef816164e98454615fad565b8461647e565b602080601f831160018114616522575f841561650b5750858301515b5f19600386901b1c1916600185901b178555612a59565b5f85815260208120601f198616915b8281101561655057888601518255948401946001909101908401616531565b508582101561656d57878501515f19600388901b60f8161c191681555b5050505050600190811b01905550565b5f6080828403121561658d575f80fd5b6165956152f9565b90508151815260208201516020820152604082015160408201526060820151606082015292915050565b80516115c281615a14565b80516115c281615841565b5f602082840312156165e5575f80fd5b604051602081016001600160401b0381118282101715616607576166076152bd565b6040529151825250919050565b5f60c08284031215616624575f80fd5b61662c61531b565b9050815161663981615263565b8152602082015161664981615263565b8060208301525060408201516040820152606082015160608201526080820151608082015260a082015160a082015292915050565b5f82601f83011261668d575f80fd5b8151602061669d6153f3836153b2565b8083825260208201915060208460051b8701019350868411156166be575f80fd5b602086015b8481101561543e5780516166d681615263565b83529183019183016166c3565b5f602082840312156166f3575f80fd5b81516001600160401b0380821115616709575f80fd5b90830190610280828603121561671d575f80fd5b61672561535f565b61672f868461657d565b815261673d608084016165bf565b602082015261674e60a084016165ca565b60408201526167608660c085016165d5565b60608201526167728660e08501616614565b60808201526167846101a08401616072565b60a08201526167966101c08401616072565b60c08201526167a86101e08401616072565b60e0820152610200830151610100820152610220830151828111156167cb575f80fd5b6167d78782860161667e565b610120830152506167eb6102408401616072565b6101408201526102609290920151610160830152509392505050565b805182526020810151602083015260408101516040830152606081015160608301525050565b5f815180845260208085019450602084015f5b8381101561598c5781516001600160a01b031687529582019590820190600101616840565b8281526040602082015261687d604082018351616807565b5f602083015161689060c08401826157c4565b5060408301516168a360e0840182615778565b5060608301516101006168b881850183519052565b60808581015180516001600160a01b0390811661012088810191909152602083015190911661014088015260408201516101608801526060820151610180880152918101516101a087015260a0908101516101c087015286015192506169226101e0860184615242565b60c08601519250616937610200860184615242565b60e0860151925061694c610220860184615242565b9085015161024085015284015161028061026085018190529091506169756102c085018361682d565b915061014085015161698982860182615242565b50506101608401516102a0840152809150509392505050565b5f80604083850312156169b3575f80fd5b82516169be81615adf565b602084015190925061575981615263565b608081016117a88284616807565b5f60608083016060845280875180835260808601915060808160051b87010192506020808a015f5b83811015616a6857888603607f19018552815180516001600160a01b031687528381015160048110616a3957616a39615764565b87850152604090810151908701889052616a5588880182615953565b9650509382019390820190600101616a05565b5050616a768188018a615242565b5050508381036040850152616a8b8186615804565b979650505050505050565b6001600160a01b0392831681529116602082015260400190565b8082018281125f831280158216821582161715616acf57616acf6161cc565b505092915050565b9182526001600160a01b0316602082015260400190565b5f8251616aff8184602087016157e2565b9190910192915050565b634e487b7160e01b5f52600160045260245ffd5b82815260408101611b2b6020830184615c1e565b602080825282518282018190525f9190848201906040850190845b81811015616b725783516001600160e01b03191683529284019291840191600101616b4c565b50909695505050505050565b5f81616b8c57616b8c6161cc565b505f190190565b634e487b7160e01b5f52603160045260245ffd5b6001600160a01b03831681526040602082018190525f9061204f9083018461580456fe4c69624469616d6f6e644375743a204175746f20666163657420686173206e6f20636f6465c8fcad8db84d3cc18b4c41d551ea0ee66dd599cde068d998e57d5e09332c131c4c69624469616d6f6e644375743a2041646420666163657420686173206e6f20636f64654c69624469616d6f6e644375743a205f696e6974206164647265737320686173206e6f20636f646546756e6374696f6e206d7573742062652063616c6c6564207468726f75676820360894a13ba1a3210667c828492db98dca3e2076cc3735a920a3ca505d382bbc7f26b83ff96e1f2b6a682f133852f6798a09c465da95921460cefb38474024988be0079c531659141344cd1fd0a4f28419497f9722a3daafe3b4186f6b6457e0416464726573733a206c6f772d6c6576656c2064656c65676174652063616c6c206661696c65644c69624469616d6f6e644375743a205265706c61636520666163657420686173206e6f20636f6465a164736f6c6343000817000a","linkReferences":{"pkg/contracts/src/CVStrategy/ConvictionsUtils.sol":{"ConvictionsUtils":[{"start":8437,"length":20},{"start":8596,"length":20},{"start":10680,"length":20},{"start":16269,"length":20},{"start":16787,"length":20}]}}},"methodIdentifiers":{"DISPUTE_COOLDOWN_SEC()":"f5be3f7c","NATIVE()":"a0cf0aea","RULING_OPTIONS()":"626c47e8","activatePoints()":"814516ad","allocate(bytes,address)":"ef2920fc","arbitrableConfigs(uint256)":"41bb7605","calculateProposalConviction(uint256)":"60b0645a","calculateThreshold(uint256)":"59a5db8b","cancelProposal(uint256)":"e0a8f6f5","cloneNonce()":"33960459","collateralVault()":"0bece79c","connectSuperfluidGDA(address)":"924e6704","currentArbitrableConfigVersion()":"125fd1d9","cvParams()":"2506b870","deactivatePoints()":"1ddf1e23","deactivatePoints(address)":"6453d9c4","decreasePower(address,uint256)":"2ed04b2b","diamondCut((address,uint8,bytes4[])[],address,bytes)":"1f931c1c","disconnectSuperfluidGDA(address)":"c69271ec","disputeCount()":"a28889e1","disputeIdToProposalId(uint256)":"255ffb38","disputeProposal(uint256,string,bytes)":"b41596ec","distribute(address[],bytes,address)":"0a6f0ee9","editProposal(uint256,(uint256,string),address,uint256)":"141e3b38","exposedApplyDelta(uint256,int256)":"49b25778","exposedCalculateAndSetConviction(uint256,uint256)":"096d2870","exposedCanExecuteAction(address)":"4e899d5f","exposedCheckBlockAndCalculateConviction(uint256,uint256)":"85c504dd","exposedCheckProposalAllocationValidity(uint256,int256)":"ab7716d8","exposedCheckSenderIsMember(address)":"291e5123","exposedIsOverMaxRatio(uint256)":"ec9f5f3d","exposedOnlyCouncilSafe()":"f01a809c","exposedOnlyCouncilSafeOrMember()":"52b20050","exposedOnlyRegistryCommunity()":"dd439bd3","exposedProposalExists(uint256)":"91bfd37b","getAllo()":"15cc481e","getArbitrableConfig()":"059351cd","getFacets()":"662ea47d","getMaxAmount()":"0ba95909","getPointSystem()":"c3292171","getPoolAmount()":"4ab4ba42","getPoolId()":"38fff2d0","getProposal(uint256)":"c7f758a8","getProposalMetadataPointer(uint256)":"3587c79b","getProposalStakedAmount(uint256)":"dc96ff2d","getProposalThreshold(uint256)":"d1045aa9","getProposalVoterStake(uint256,address)":"e0dd2c38","increasePower(address,uint256)":"782aadff","init(address,address,address)":"184b9559","init(address,string,address)":"60d5dedc","initialize(address)":"c4d66de8","initialize(uint256,bytes)":"edd146cc","isPaused()":"b187bd26","isPaused(bytes4)":"09b65e66","isPoolActive()":"df868ed3","lastRebalanceAt()":"2cea13f9","owner()":"8da5cb5b","pause(bytes4,uint256)":"80c4a65f","pause(uint256)":"136439dd","pauseController()":"60b47789","pauseFacet()":"adaf157b","pausedSelectorUntil(bytes4)":"2d2ebbef","pausedUntil()":"da748b10","pointConfig()":"a47ff7e5","pointSystem()":"2dbd6fdd","proposalCounter()":"0c0512e9","proposalType()":"351d9f96","proxiableUUID()":"52d1902d","proxyOwner()":"025313a2","rebalance()":"7d7c2a1c","rebalanceCooldown()":"b3de272d","registerRecipient(bytes,address)":"2bbe0cae","registryCommunity()":"6003e414","renounceOwnership()":"715018a6","rule(uint256,uint256)":"311a6c56","setAllo(address)":"3c092330","setArbitrableConfig(uint256,(address,address,uint256,uint256,uint256,uint256))":"ff3db2ce","setCollateralVaultTemplate(address)":"b0d3713a","setCollateralVaultTemplateRaw(address)":"a0449bf3","setCvParams((uint256,uint256,uint256,uint256))":"56c78699","setPauseController(address)":"1add1a0d","setPauseFacet(address)":"222a3a04","setPointConfig(uint256)":"60ec51aa","setPointSystem(uint8)":"46de35c8","setPoolActive(bool)":"b5f620ce","setPoolId(uint256)":"ac78012c","setPoolParams((address,address,uint256,uint256,uint256,uint256),(uint256,uint256,uint256,uint256),uint256,address[],address[],address)":"d5b7cc54","setPoolParams((address,address,uint256,uint256,uint256,uint256),(uint256,uint256,uint256,uint256),uint256,address[],address[],address,uint256)":"c6cdc980","setProposal(uint256,address,uint256,uint8,uint256,uint256)":"db711460","setProposalStakedAmount(uint256,uint256)":"5bee0ec8","setProposalType(uint8)":"6eeeae93","setProposalVoterStake(uint256,address,uint256)":"a385ea64","setRegistryCommunity(address)":"058aca44","setSuperfluidToken(address)":"8b83075e","setSybilScorer(address)":"ac1ed7b9","setSybilScorer(address,uint256)":"3864d366","setTotalPointsActivated(uint256)":"cb22c4e4","setVotingPowerRegistry(address)":"170aba0d","streamingEscrow(uint256)":"b04b5b26","streamingRatePerSecond()":"94573cbb","superfluidGDA()":"1b36f56f","superfluidToken()":"05caa7f3","supportsInterface(bytes4)":"01ffc9a7","sybilScorer()":"b6c61f31","totalPointsActivated()":"aba9ffee","totalStaked()":"817b1cd2","totalVoterStakePct(address)":"5db64b99","transferOwnership(address)":"f2fde38b","unpause()":"3f4ba83a","unpause(bytes4)":"bac1e94b","updateProposalConviction(uint256)":"1aa91a9e","upgradeTo(address)":"3659cfe6","upgradeToAndCall(address,bytes)":"4f1ef286","voterStakedProposals(address,uint256)":"868c57b8","votingPowerRegistry()":"80fd91cd"},"storageLayout":{"storage":[{"astId":49373,"contract":"pkg/contracts/test/helpers/CVStrategyHelpers.sol:CVStrategyHarness","label":"_initialized","offset":0,"slot":"0","type":"t_uint8"},{"astId":49376,"contract":"pkg/contracts/test/helpers/CVStrategyHelpers.sol:CVStrategyHarness","label":"_initializing","offset":1,"slot":"0","type":"t_bool"},{"astId":50000,"contract":"pkg/contracts/test/helpers/CVStrategyHelpers.sol:CVStrategyHarness","label":"__gap","offset":0,"slot":"1","type":"t_array(t_uint256)50_storage"},{"astId":49165,"contract":"pkg/contracts/test/helpers/CVStrategyHelpers.sol:CVStrategyHarness","label":"_owner","offset":0,"slot":"51","type":"t_address"},{"astId":49285,"contract":"pkg/contracts/test/helpers/CVStrategyHelpers.sol:CVStrategyHarness","label":"__gap","offset":0,"slot":"52","type":"t_array(t_uint256)49_storage"},{"astId":81773,"contract":"pkg/contracts/test/helpers/CVStrategyHelpers.sol:CVStrategyHarness","label":"allo","offset":0,"slot":"101","type":"t_contract(IAllo)351"},{"astId":81775,"contract":"pkg/contracts/test/helpers/CVStrategyHelpers.sol:CVStrategyHarness","label":"strategyId","offset":0,"slot":"102","type":"t_bytes32"},{"astId":81777,"contract":"pkg/contracts/test/helpers/CVStrategyHelpers.sol:CVStrategyHarness","label":"poolActive","offset":0,"slot":"103","type":"t_bool"},{"astId":81779,"contract":"pkg/contracts/test/helpers/CVStrategyHelpers.sol:CVStrategyHarness","label":"poolId","offset":0,"slot":"104","type":"t_uint256"},{"astId":81781,"contract":"pkg/contracts/test/helpers/CVStrategyHelpers.sol:CVStrategyHarness","label":"poolAmount","offset":0,"slot":"105","type":"t_uint256"},{"astId":82515,"contract":"pkg/contracts/test/helpers/CVStrategyHelpers.sol:CVStrategyHarness","label":"collateralVaultTemplate","offset":0,"slot":"106","type":"t_address"},{"astId":82517,"contract":"pkg/contracts/test/helpers/CVStrategyHelpers.sol:CVStrategyHarness","label":"surpressStateMutabilityWarning","offset":0,"slot":"107","type":"t_uint256"},{"astId":82519,"contract":"pkg/contracts/test/helpers/CVStrategyHelpers.sol:CVStrategyHarness","label":"cloneNonce","offset":0,"slot":"108","type":"t_uint256"},{"astId":82521,"contract":"pkg/contracts/test/helpers/CVStrategyHelpers.sol:CVStrategyHarness","label":"disputeCount","offset":0,"slot":"109","type":"t_uint64"},{"astId":82523,"contract":"pkg/contracts/test/helpers/CVStrategyHelpers.sol:CVStrategyHarness","label":"proposalCounter","offset":0,"slot":"110","type":"t_uint256"},{"astId":82525,"contract":"pkg/contracts/test/helpers/CVStrategyHelpers.sol:CVStrategyHarness","label":"currentArbitrableConfigVersion","offset":0,"slot":"111","type":"t_uint256"},{"astId":82527,"contract":"pkg/contracts/test/helpers/CVStrategyHelpers.sol:CVStrategyHarness","label":"totalStaked","offset":0,"slot":"112","type":"t_uint256"},{"astId":82529,"contract":"pkg/contracts/test/helpers/CVStrategyHelpers.sol:CVStrategyHarness","label":"totalPointsActivated","offset":0,"slot":"113","type":"t_uint256"},{"astId":82532,"contract":"pkg/contracts/test/helpers/CVStrategyHelpers.sol:CVStrategyHarness","label":"cvParams","offset":0,"slot":"114","type":"t_struct(CVParams)86830_storage"},{"astId":82535,"contract":"pkg/contracts/test/helpers/CVStrategyHelpers.sol:CVStrategyHarness","label":"proposalType","offset":0,"slot":"118","type":"t_enum(ProposalType)86730"},{"astId":82538,"contract":"pkg/contracts/test/helpers/CVStrategyHelpers.sol:CVStrategyHarness","label":"pointSystem","offset":1,"slot":"118","type":"t_enum(PointSystem)86736"},{"astId":82541,"contract":"pkg/contracts/test/helpers/CVStrategyHelpers.sol:CVStrategyHarness","label":"pointConfig","offset":0,"slot":"119","type":"t_struct(PointSystemConfig)86807_storage"},{"astId":82544,"contract":"pkg/contracts/test/helpers/CVStrategyHelpers.sol:CVStrategyHarness","label":"registryCommunity","offset":0,"slot":"120","type":"t_contract(RegistryCommunity)91640"},{"astId":82547,"contract":"pkg/contracts/test/helpers/CVStrategyHelpers.sol:CVStrategyHarness","label":"collateralVault","offset":0,"slot":"121","type":"t_contract(ICollateralVault)92836"},{"astId":82550,"contract":"pkg/contracts/test/helpers/CVStrategyHelpers.sol:CVStrategyHarness","label":"sybilScorer","offset":0,"slot":"122","type":"t_contract(ISybilScorer)89553"},{"astId":82555,"contract":"pkg/contracts/test/helpers/CVStrategyHelpers.sol:CVStrategyHarness","label":"proposals","offset":0,"slot":"123","type":"t_mapping(t_uint256,t_struct(Proposal)86799_storage)"},{"astId":82559,"contract":"pkg/contracts/test/helpers/CVStrategyHelpers.sol:CVStrategyHarness","label":"totalVoterStakePct","offset":0,"slot":"124","type":"t_mapping(t_address,t_uint256)"},{"astId":82564,"contract":"pkg/contracts/test/helpers/CVStrategyHelpers.sol:CVStrategyHarness","label":"voterStakedProposals","offset":0,"slot":"125","type":"t_mapping(t_address,t_array(t_uint256)dyn_storage)"},{"astId":82568,"contract":"pkg/contracts/test/helpers/CVStrategyHelpers.sol:CVStrategyHarness","label":"disputeIdToProposalId","offset":0,"slot":"126","type":"t_mapping(t_uint256,t_uint256)"},{"astId":82573,"contract":"pkg/contracts/test/helpers/CVStrategyHelpers.sol:CVStrategyHarness","label":"arbitrableConfigs","offset":0,"slot":"127","type":"t_mapping(t_uint256,t_struct(ArbitrableConfig)86821_storage)"},{"astId":82576,"contract":"pkg/contracts/test/helpers/CVStrategyHelpers.sol:CVStrategyHarness","label":"superfluidToken","offset":0,"slot":"128","type":"t_contract(ISuperToken)76145"},{"astId":82579,"contract":"pkg/contracts/test/helpers/CVStrategyHelpers.sol:CVStrategyHarness","label":"superfluidGDA","offset":0,"slot":"129","type":"t_contract(ISuperfluidPool)74973"},{"astId":82581,"contract":"pkg/contracts/test/helpers/CVStrategyHelpers.sol:CVStrategyHarness","label":"streamingRatePerSecond","offset":0,"slot":"130","type":"t_uint256"},{"astId":82584,"contract":"pkg/contracts/test/helpers/CVStrategyHelpers.sol:CVStrategyHarness","label":"votingPowerRegistry","offset":0,"slot":"131","type":"t_contract(IVotingPowerRegistry)93040"},{"astId":82588,"contract":"pkg/contracts/test/helpers/CVStrategyHelpers.sol:CVStrategyHarness","label":"__gap","offset":0,"slot":"132","type":"t_array(t_uint256)46_storage"}],"types":{"t_address":{"encoding":"inplace","label":"address","numberOfBytes":"20"},"t_array(t_uint256)46_storage":{"encoding":"inplace","label":"uint256[46]","numberOfBytes":"1472","base":"t_uint256"},"t_array(t_uint256)49_storage":{"encoding":"inplace","label":"uint256[49]","numberOfBytes":"1568","base":"t_uint256"},"t_array(t_uint256)50_storage":{"encoding":"inplace","label":"uint256[50]","numberOfBytes":"1600","base":"t_uint256"},"t_array(t_uint256)dyn_storage":{"encoding":"dynamic_array","label":"uint256[]","numberOfBytes":"32","base":"t_uint256"},"t_bool":{"encoding":"inplace","label":"bool","numberOfBytes":"1"},"t_bytes32":{"encoding":"inplace","label":"bytes32","numberOfBytes":"32"},"t_contract(IAllo)351":{"encoding":"inplace","label":"contract IAllo","numberOfBytes":"20"},"t_contract(IArbitrator)92803":{"encoding":"inplace","label":"contract IArbitrator","numberOfBytes":"20"},"t_contract(ICollateralVault)92836":{"encoding":"inplace","label":"contract ICollateralVault","numberOfBytes":"20"},"t_contract(ISuperToken)76145":{"encoding":"inplace","label":"contract ISuperToken","numberOfBytes":"20"},"t_contract(ISuperfluidPool)74973":{"encoding":"inplace","label":"contract ISuperfluidPool","numberOfBytes":"20"},"t_contract(ISybilScorer)89553":{"encoding":"inplace","label":"contract ISybilScorer","numberOfBytes":"20"},"t_contract(IVotingPowerRegistry)93040":{"encoding":"inplace","label":"contract IVotingPowerRegistry","numberOfBytes":"20"},"t_contract(RegistryCommunity)91640":{"encoding":"inplace","label":"contract RegistryCommunity","numberOfBytes":"20"},"t_enum(PointSystem)86736":{"encoding":"inplace","label":"enum PointSystem","numberOfBytes":"1"},"t_enum(ProposalStatus)86756":{"encoding":"inplace","label":"enum ProposalStatus","numberOfBytes":"1"},"t_enum(ProposalType)86730":{"encoding":"inplace","label":"enum ProposalType","numberOfBytes":"1"},"t_mapping(t_address,t_array(t_uint256)dyn_storage)":{"encoding":"mapping","key":"t_address","label":"mapping(address => uint256[])","numberOfBytes":"32","value":"t_array(t_uint256)dyn_storage"},"t_mapping(t_address,t_uint256)":{"encoding":"mapping","key":"t_address","label":"mapping(address => uint256)","numberOfBytes":"32","value":"t_uint256"},"t_mapping(t_uint256,t_struct(ArbitrableConfig)86821_storage)":{"encoding":"mapping","key":"t_uint256","label":"mapping(uint256 => struct ArbitrableConfig)","numberOfBytes":"32","value":"t_struct(ArbitrableConfig)86821_storage"},"t_mapping(t_uint256,t_struct(Proposal)86799_storage)":{"encoding":"mapping","key":"t_uint256","label":"mapping(uint256 => struct Proposal)","numberOfBytes":"32","value":"t_struct(Proposal)86799_storage"},"t_mapping(t_uint256,t_uint256)":{"encoding":"mapping","key":"t_uint256","label":"mapping(uint256 => uint256)","numberOfBytes":"32","value":"t_uint256"},"t_string_storage":{"encoding":"bytes","label":"string","numberOfBytes":"32"},"t_struct(ArbitrableConfig)86821_storage":{"encoding":"inplace","label":"struct ArbitrableConfig","numberOfBytes":"192","members":[{"astId":86810,"contract":"pkg/contracts/test/helpers/CVStrategyHelpers.sol:CVStrategyHarness","label":"arbitrator","offset":0,"slot":"0","type":"t_contract(IArbitrator)92803"},{"astId":86812,"contract":"pkg/contracts/test/helpers/CVStrategyHelpers.sol:CVStrategyHarness","label":"tribunalSafe","offset":0,"slot":"1","type":"t_address"},{"astId":86814,"contract":"pkg/contracts/test/helpers/CVStrategyHelpers.sol:CVStrategyHarness","label":"submitterCollateralAmount","offset":0,"slot":"2","type":"t_uint256"},{"astId":86816,"contract":"pkg/contracts/test/helpers/CVStrategyHelpers.sol:CVStrategyHarness","label":"challengerCollateralAmount","offset":0,"slot":"3","type":"t_uint256"},{"astId":86818,"contract":"pkg/contracts/test/helpers/CVStrategyHelpers.sol:CVStrategyHarness","label":"defaultRuling","offset":0,"slot":"4","type":"t_uint256"},{"astId":86820,"contract":"pkg/contracts/test/helpers/CVStrategyHelpers.sol:CVStrategyHarness","label":"defaultRulingTimeout","offset":0,"slot":"5","type":"t_uint256"}]},"t_struct(CVParams)86830_storage":{"encoding":"inplace","label":"struct CVParams","numberOfBytes":"128","members":[{"astId":86823,"contract":"pkg/contracts/test/helpers/CVStrategyHelpers.sol:CVStrategyHarness","label":"maxRatio","offset":0,"slot":"0","type":"t_uint256"},{"astId":86825,"contract":"pkg/contracts/test/helpers/CVStrategyHelpers.sol:CVStrategyHarness","label":"weight","offset":0,"slot":"1","type":"t_uint256"},{"astId":86827,"contract":"pkg/contracts/test/helpers/CVStrategyHelpers.sol:CVStrategyHarness","label":"decay","offset":0,"slot":"2","type":"t_uint256"},{"astId":86829,"contract":"pkg/contracts/test/helpers/CVStrategyHelpers.sol:CVStrategyHarness","label":"minThresholdPoints","offset":0,"slot":"3","type":"t_uint256"}]},"t_struct(Metadata)806_storage":{"encoding":"inplace","label":"struct Metadata","numberOfBytes":"64","members":[{"astId":802,"contract":"pkg/contracts/test/helpers/CVStrategyHelpers.sol:CVStrategyHarness","label":"protocol","offset":0,"slot":"0","type":"t_uint256"},{"astId":805,"contract":"pkg/contracts/test/helpers/CVStrategyHelpers.sol:CVStrategyHarness","label":"pointer","offset":0,"slot":"1","type":"t_string_storage"}]},"t_struct(PointSystemConfig)86807_storage":{"encoding":"inplace","label":"struct PointSystemConfig","numberOfBytes":"32","members":[{"astId":86806,"contract":"pkg/contracts/test/helpers/CVStrategyHelpers.sol:CVStrategyHarness","label":"maxAmount","offset":0,"slot":"0","type":"t_uint256"}]},"t_struct(Proposal)86799_storage":{"encoding":"inplace","label":"struct Proposal","numberOfBytes":"576","members":[{"astId":86765,"contract":"pkg/contracts/test/helpers/CVStrategyHelpers.sol:CVStrategyHarness","label":"proposalId","offset":0,"slot":"0","type":"t_uint256"},{"astId":86767,"contract":"pkg/contracts/test/helpers/CVStrategyHelpers.sol:CVStrategyHarness","label":"requestedAmount","offset":0,"slot":"1","type":"t_uint256"},{"astId":86769,"contract":"pkg/contracts/test/helpers/CVStrategyHelpers.sol:CVStrategyHarness","label":"stakedAmount","offset":0,"slot":"2","type":"t_uint256"},{"astId":86771,"contract":"pkg/contracts/test/helpers/CVStrategyHelpers.sol:CVStrategyHarness","label":"convictionLast","offset":0,"slot":"3","type":"t_uint256"},{"astId":86773,"contract":"pkg/contracts/test/helpers/CVStrategyHelpers.sol:CVStrategyHarness","label":"beneficiary","offset":0,"slot":"4","type":"t_address"},{"astId":86775,"contract":"pkg/contracts/test/helpers/CVStrategyHelpers.sol:CVStrategyHarness","label":"submitter","offset":0,"slot":"5","type":"t_address"},{"astId":86777,"contract":"pkg/contracts/test/helpers/CVStrategyHelpers.sol:CVStrategyHarness","label":"requestedToken","offset":0,"slot":"6","type":"t_address"},{"astId":86779,"contract":"pkg/contracts/test/helpers/CVStrategyHelpers.sol:CVStrategyHarness","label":"blockLast","offset":0,"slot":"7","type":"t_uint256"},{"astId":86782,"contract":"pkg/contracts/test/helpers/CVStrategyHelpers.sol:CVStrategyHarness","label":"proposalStatus","offset":0,"slot":"8","type":"t_enum(ProposalStatus)86756"},{"astId":86786,"contract":"pkg/contracts/test/helpers/CVStrategyHelpers.sol:CVStrategyHarness","label":"voterStakedPoints","offset":0,"slot":"9","type":"t_mapping(t_address,t_uint256)"},{"astId":86789,"contract":"pkg/contracts/test/helpers/CVStrategyHelpers.sol:CVStrategyHarness","label":"metadata","offset":0,"slot":"10","type":"t_struct(Metadata)806_storage"},{"astId":86792,"contract":"pkg/contracts/test/helpers/CVStrategyHelpers.sol:CVStrategyHarness","label":"disputeInfo","offset":0,"slot":"12","type":"t_struct(ProposalDisputeInfo)86763_storage"},{"astId":86794,"contract":"pkg/contracts/test/helpers/CVStrategyHelpers.sol:CVStrategyHarness","label":"lastDisputeCompletion","offset":0,"slot":"15","type":"t_uint256"},{"astId":86796,"contract":"pkg/contracts/test/helpers/CVStrategyHelpers.sol:CVStrategyHarness","label":"arbitrableConfigVersion","offset":0,"slot":"16","type":"t_uint256"},{"astId":86798,"contract":"pkg/contracts/test/helpers/CVStrategyHelpers.sol:CVStrategyHarness","label":"creationTimestamp","offset":0,"slot":"17","type":"t_uint256"}]},"t_struct(ProposalDisputeInfo)86763_storage":{"encoding":"inplace","label":"struct ProposalDisputeInfo","numberOfBytes":"96","members":[{"astId":86758,"contract":"pkg/contracts/test/helpers/CVStrategyHelpers.sol:CVStrategyHarness","label":"disputeId","offset":0,"slot":"0","type":"t_uint256"},{"astId":86760,"contract":"pkg/contracts/test/helpers/CVStrategyHelpers.sol:CVStrategyHarness","label":"disputeTimestamp","offset":0,"slot":"1","type":"t_uint256"},{"astId":86762,"contract":"pkg/contracts/test/helpers/CVStrategyHelpers.sol:CVStrategyHarness","label":"challenger","offset":0,"slot":"2","type":"t_address"}]},"t_uint256":{"encoding":"inplace","label":"uint256","numberOfBytes":"32"},"t_uint64":{"encoding":"inplace","label":"uint64","numberOfBytes":"8"},"t_uint8":{"encoding":"inplace","label":"uint8","numberOfBytes":"1"}}},"id":154}