{"abi":[{"type":"function","name":"DISPUTE_COOLDOWN_SEC","inputs":[],"outputs":[{"name":"","type":"uint256","internalType":"uint256"}],"stateMutability":"view"},{"type":"function","name":"MAX_ALLOCATIONS_PER_TX","inputs":[],"outputs":[{"name":"","type":"uint256","internalType":"uint256"}],"stateMutability":"view"},{"type":"function","name":"MAX_PROPOSAL_COUNT","inputs":[],"outputs":[{"name":"","type":"uint256","internalType":"uint256"}],"stateMutability":"view"},{"type":"function","name":"MAX_SYNC_BATCH_MEMBERS","inputs":[],"outputs":[{"name":"","type":"uint256","internalType":"uint256"}],"stateMutability":"view"},{"type":"function","name":"MAX_VOTER_STAKED_PROPOSALS","inputs":[],"outputs":[{"name":"","type":"uint256","internalType":"uint256"}],"stateMutability":"view"},{"type":"function","name":"RULING_OPTIONS","inputs":[],"outputs":[{"name":"","type":"uint256","internalType":"uint256"}],"stateMutability":"view"},{"type":"function","name":"_isStrategyEnabled","inputs":[],"outputs":[{"name":"","type":"bool","internalType":"bool"}],"stateMutability":"view"},{"type":"function","name":"arbitrableConfigs","inputs":[{"name":"","type":"uint256","internalType":"uint256"}],"outputs":[{"name":"arbitrator","type":"address","internalType":"contract IArbitrator"},{"name":"tribunalSafe","type":"address","internalType":"address"},{"name":"submitterCollateralAmount","type":"uint256","internalType":"uint256"},{"name":"challengerCollateralAmount","type":"uint256","internalType":"uint256"},{"name":"defaultRuling","type":"uint256","internalType":"uint256"},{"name":"defaultRulingTimeout","type":"uint256","internalType":"uint256"}],"stateMutability":"view"},{"type":"function","name":"calculateProposalConviction","inputs":[{"name":"_proposalId","type":"uint256","internalType":"uint256"}],"outputs":[{"name":"","type":"uint256","internalType":"uint256"}],"stateMutability":"view"},{"type":"function","name":"cloneNonce","inputs":[],"outputs":[{"name":"","type":"uint256","internalType":"uint256"}],"stateMutability":"view"},{"type":"function","name":"collateralVault","inputs":[],"outputs":[{"name":"","type":"address","internalType":"contract ICollateralVault"}],"stateMutability":"view"},{"type":"function","name":"currentArbitrableConfigVersion","inputs":[],"outputs":[{"name":"","type":"uint256","internalType":"uint256"}],"stateMutability":"view"},{"type":"function","name":"cvParams","inputs":[],"outputs":[{"name":"maxRatio","type":"uint256","internalType":"uint256"},{"name":"weight","type":"uint256","internalType":"uint256"},{"name":"decay","type":"uint256","internalType":"uint256"},{"name":"minThresholdPoints","type":"uint256","internalType":"uint256"}],"stateMutability":"view"},{"type":"function","name":"disputeCount","inputs":[],"outputs":[{"name":"","type":"uint64","internalType":"uint64"}],"stateMutability":"view"},{"type":"function","name":"disputeIdToProposalId","inputs":[{"name":"","type":"uint256","internalType":"uint256"}],"outputs":[{"name":"","type":"uint256","internalType":"uint256"}],"stateMutability":"view"},{"type":"function","name":"exposedCalculateAndSetConviction","inputs":[{"name":"proposalId","type":"uint256","internalType":"uint256"},{"name":"oldStaked","type":"uint256","internalType":"uint256"}],"outputs":[],"stateMutability":"nonpayable"},{"type":"function","name":"exposedCanExecuteAction","inputs":[{"name":"user","type":"address","internalType":"address"}],"outputs":[{"name":"","type":"bool","internalType":"bool"}],"stateMutability":"view"},{"type":"function","name":"exposedCheckBlockAndCalculateConviction","inputs":[{"name":"proposalId","type":"uint256","internalType":"uint256"},{"name":"oldStaked","type":"uint256","internalType":"uint256"}],"outputs":[{"name":"conviction","type":"uint256","internalType":"uint256"},{"name":"blockNumber","type":"uint256","internalType":"uint256"}],"stateMutability":"view"},{"type":"function","name":"exposedCheckSenderIsMember","inputs":[{"name":"sender","type":"address","internalType":"address"}],"outputs":[],"stateMutability":"nonpayable"},{"type":"function","name":"exposedEnforceNotPaused","inputs":[{"name":"selector","type":"bytes4","internalType":"bytes4"}],"outputs":[],"stateMutability":"view"},{"type":"function","name":"exposedEnforceSelectorNotPaused","inputs":[{"name":"selector","type":"bytes4","internalType":"bytes4"}],"outputs":[],"stateMutability":"view"},{"type":"function","name":"exposedGetPoolAmount","inputs":[],"outputs":[{"name":"","type":"uint256","internalType":"uint256"}],"stateMutability":"view"},{"type":"function","name":"exposedIsPauseSelector","inputs":[{"name":"selector","type":"bytes4","internalType":"bytes4"}],"outputs":[{"name":"","type":"bool","internalType":"bool"}],"stateMutability":"pure"},{"type":"function","name":"exposedOnlyAllo","inputs":[],"outputs":[],"stateMutability":"nonpayable"},{"type":"function","name":"exposedOnlyCouncilSafe","inputs":[],"outputs":[],"stateMutability":"nonpayable"},{"type":"function","name":"exposedOnlyCouncilSafeOrMember","inputs":[],"outputs":[],"stateMutability":"nonpayable"},{"type":"function","name":"exposedOnlyInitialized","inputs":[],"outputs":[],"stateMutability":"nonpayable"},{"type":"function","name":"exposedOnlyRegistryCommunity","inputs":[],"outputs":[],"stateMutability":"nonpayable"},{"type":"function","name":"exposedProposalExists","inputs":[{"name":"proposalId","type":"uint256","internalType":"uint256"}],"outputs":[{"name":"","type":"bool","internalType":"bool"}],"stateMutability":"view"},{"type":"function","name":"getPoolAmount","inputs":[],"outputs":[{"name":"","type":"uint256","internalType":"uint256"}],"stateMutability":"view"},{"type":"function","name":"getProposalSnapshot","inputs":[{"name":"proposalId","type":"uint256","internalType":"uint256"}],"outputs":[{"name":"blockLast","type":"uint256","internalType":"uint256"},{"name":"convictionLast","type":"uint256","internalType":"uint256"}],"stateMutability":"view"},{"type":"function","name":"guardedWhenNotPaused","inputs":[],"outputs":[],"stateMutability":"nonpayable"},{"type":"function","name":"guardedWhenSelectorNotPaused","inputs":[{"name":"selector","type":"bytes4","internalType":"bytes4"}],"outputs":[],"stateMutability":"nonpayable"},{"type":"function","name":"pointConfig","inputs":[],"outputs":[{"name":"maxAmount","type":"uint256","internalType":"uint256"}],"stateMutability":"view"},{"type":"function","name":"pointSystem","inputs":[],"outputs":[{"name":"","type":"uint8","internalType":"enum PointSystem"}],"stateMutability":"view"},{"type":"function","name":"proposalCounter","inputs":[],"outputs":[{"name":"","type":"uint256","internalType":"uint256"}],"stateMutability":"view"},{"type":"function","name":"proposalExists","inputs":[{"name":"_proposalID","type":"uint256","internalType":"uint256"}],"outputs":[{"name":"","type":"bool","internalType":"bool"}],"stateMutability":"view"},{"type":"function","name":"proposalType","inputs":[],"outputs":[{"name":"","type":"uint8","internalType":"enum ProposalType"}],"stateMutability":"view"},{"type":"function","name":"registryCommunity","inputs":[],"outputs":[{"name":"","type":"address","internalType":"contract RegistryCommunity"}],"stateMutability":"view"},{"type":"function","name":"setAllo","inputs":[{"name":"allo_","type":"address","internalType":"address"}],"outputs":[],"stateMutability":"nonpayable"},{"type":"function","name":"setContractOwner","inputs":[{"name":"owner_","type":"address","internalType":"address"}],"outputs":[],"stateMutability":"nonpayable"},{"type":"function","name":"setCvParams","inputs":[{"name":"params","type":"tuple","internalType":"struct CVParams","components":[{"name":"maxRatio","type":"uint256","internalType":"uint256"},{"name":"weight","type":"uint256","internalType":"uint256"},{"name":"decay","type":"uint256","internalType":"uint256"},{"name":"minThresholdPoints","type":"uint256","internalType":"uint256"}]}],"outputs":[],"stateMutability":"nonpayable"},{"type":"function","name":"setPauseController","inputs":[{"name":"controller","type":"address","internalType":"address"}],"outputs":[],"stateMutability":"nonpayable"},{"type":"function","name":"setPointSystem","inputs":[{"name":"system","type":"uint8","internalType":"enum PointSystem"}],"outputs":[],"stateMutability":"nonpayable"},{"type":"function","name":"setPoolId","inputs":[{"name":"poolId_","type":"uint256","internalType":"uint256"}],"outputs":[],"stateMutability":"nonpayable"},{"type":"function","name":"setProposal","inputs":[{"name":"proposalId","type":"uint256","internalType":"uint256"},{"name":"submitter","type":"address","internalType":"address"},{"name":"blockLast","type":"uint256","internalType":"uint256"},{"name":"convictionLast","type":"uint256","internalType":"uint256"}],"outputs":[],"stateMutability":"nonpayable"},{"type":"function","name":"setRegistryCommunity","inputs":[{"name":"registryCommunity_","type":"address","internalType":"address"}],"outputs":[],"stateMutability":"nonpayable"},{"type":"function","name":"setSuperfluidToken","inputs":[{"name":"token","type":"address","internalType":"address"}],"outputs":[],"stateMutability":"nonpayable"},{"type":"function","name":"setSybilScorer","inputs":[{"name":"sybilScorer_","type":"address","internalType":"address"}],"outputs":[],"stateMutability":"nonpayable"},{"type":"function","name":"setVotingPowerRegistry","inputs":[{"name":"registry","type":"address","internalType":"address"}],"outputs":[],"stateMutability":"nonpayable"},{"type":"function","name":"streamingRatePerSecond","inputs":[],"outputs":[{"name":"","type":"uint256","internalType":"uint256"}],"stateMutability":"view"},{"type":"function","name":"superfluidGDA","inputs":[],"outputs":[{"name":"","type":"address","internalType":"contract ISuperfluidPool"}],"stateMutability":"view"},{"type":"function","name":"superfluidToken","inputs":[],"outputs":[{"name":"","type":"address","internalType":"contract ISuperToken"}],"stateMutability":"view"},{"type":"function","name":"sybilScorer","inputs":[],"outputs":[{"name":"","type":"address","internalType":"contract ISybilScorer"}],"stateMutability":"view"},{"type":"function","name":"totalPointsActivated","inputs":[],"outputs":[{"name":"","type":"uint256","internalType":"uint256"}],"stateMutability":"view"},{"type":"function","name":"totalStaked","inputs":[],"outputs":[{"name":"","type":"uint256","internalType":"uint256"}],"stateMutability":"view"},{"type":"function","name":"totalVoterStakePct","inputs":[{"name":"","type":"address","internalType":"address"}],"outputs":[{"name":"","type":"uint256","internalType":"uint256"}],"stateMutability":"view"},{"type":"function","name":"voterStakedProposals","inputs":[{"name":"","type":"address","internalType":"address"},{"name":"","type":"uint256","internalType":"uint256"}],"outputs":[{"name":"","type":"uint256","internalType":"uint256"}],"stateMutability":"view"},{"type":"function","name":"votingPowerRegistry","inputs":[],"outputs":[{"name":"","type":"address","internalType":"contract IVotingPowerRegistry"}],"stateMutability":"view"},{"type":"event","name":"OwnershipTransferred","inputs":[{"name":"previousOwner","type":"address","indexed":true,"internalType":"address"},{"name":"newOwner","type":"address","indexed":true,"internalType":"address"}],"anonymous":false},{"type":"error","name":"BlockNumberRegression","inputs":[{"name":"recordedBlock","type":"uint256","internalType":"uint256"},{"name":"currentBlock","type":"uint256","internalType":"uint256"}]},{"type":"error","name":"OnlyActiveProposal","inputs":[{"name":"proposalId","type":"uint256","internalType":"uint256"}]},{"type":"error","name":"OnlyAllo","inputs":[{"name":"sender","type":"address","internalType":"address"},{"name":"allo","type":"address","internalType":"address"}]},{"type":"error","name":"OnlyCouncilSafe","inputs":[{"name":"sender","type":"address","internalType":"address"},{"name":"councilSafe","type":"address","internalType":"address"},{"name":"owner","type":"address","internalType":"address"}]},{"type":"error","name":"OnlyCouncilSafeOrMember","inputs":[{"name":"sender","type":"address","internalType":"address"},{"name":"councilSafe","type":"address","internalType":"address"}]},{"type":"error","name":"OnlyInitialized","inputs":[{"name":"poolId","type":"uint256","internalType":"uint256"}]},{"type":"error","name":"OnlyMember","inputs":[{"name":"wallet","type":"address","internalType":"address"},{"name":"community","type":"address","internalType":"address"}]},{"type":"error","name":"OnlyOwner","inputs":[{"name":"sender","type":"address","internalType":"address"},{"name":"ownerAddress","type":"address","internalType":"address"}]},{"type":"error","name":"OnlyRegistryCommunity","inputs":[{"name":"sender","type":"address","internalType":"address"},{"name":"registry","type":"address","internalType":"address"}]},{"type":"error","name":"OnlySubmitter","inputs":[{"name":"proposalId","type":"uint256","internalType":"uint256"},{"name":"submitter","type":"address","internalType":"address"},{"name":"sender","type":"address","internalType":"address"}]},{"type":"error","name":"ProposalDoesNotExist","inputs":[{"name":"proposalID","type":"uint256","internalType":"uint256"}]},{"type":"error","name":"StrategyPaused","inputs":[{"name":"controller","type":"address","internalType":"address"}]},{"type":"error","name":"StrategySelectorPaused","inputs":[{"name":"selector","type":"bytes4","internalType":"bytes4"},{"name":"controller","type":"address","internalType":"address"}]}],"bytecode":{"object":"0x608060405234801561000f575f80fd5b50611f728061001d5f395ff3fe608060405234801561000f575f80fd5b50600436106102a7575f3560e01c8063058aca44146102ab57806305caa7f3146102dd578063096d2870146103065780630bece79c146103195780630c0512e91461032c578063125fd1d9146103435780631374b22d1461034c578063170aba0d1461036f5780631add1a0d1461039f5780631b36f56f146103b25780632506b870146103c5578063255ffb38146103eb578063263c40641461040a578063291e5123146104585780632dbd6fdd1461046b578063339604591461048a578063351d9f96146104935780633c092330146104ad5780633cfc004b146104dd5780633e66188e146104e55780633ea6dd9f146104f857806341bb76051461050b57806346de35c8146105925780634ab4ba42146105a55780634c3ceb5b146105ad5780634e899d5f146105b557806352b20050146105c8578063530b08a3146105d057806356c78699146105d85780635db64b99146106045780636003e4141461062357806360b0645a14610636578063626c47e81461064957806373bfa56c1461065157806380fd91cd14610664578063817b1cd21461067757806385c504dd14610680578063868c57b8146106a8578063899e6fb1146106bb5780638b83075e146106e55780638dc8309414610715578063914bdef0146105ad57806391bfd37b1461071d57806394573cbb14610730578063996a63c8146107395780639bb8bcec1461074c578063a28889e114610754578063a34d42b81461077f578063a47ff7e514610792578063aba9ffee1461079c578063ac1ed7b9146107a5578063ac78012c146107d5578063b6c61f31146107e8578063dd439bd3146107fb578063dfe9ec58146105ad578063ee50ee1b14610803578063ef3a73f21461080b578063f01a809c14610813578063f5be3f7c1461081b575b5f80fd5b6102db6102b9366004611982565b607880546001600160a01b0319166001600160a01b0392909216919091179055565b005b6080546102f0906001600160a01b031681565b6040516102fd919061199d565b60405180910390f35b6102db6103143660046119b1565b610824565b6079546102f0906001600160a01b031681565b610335606e5481565b6040519081526020016102fd565b610335606f5481565b61035f61035a3660046119d1565b61083f565b60405190151581526020016102fd565b6102db61037d366004611982565b608380546001600160a01b0319166001600160a01b0392909216919091179055565b6102db6103ad366004611982565b610879565b6081546102f0906001600160a01b031681565b6072546073546074546075546103db9392919084565b6040516102fd94939291906119e8565b6103356103f93660046119d1565b607e6020525f908152604090205481565b6102db610418366004611a03565b5f848152607b602052604090209384556005840180546001600160a01b0319166001600160a01b0394909416939093179092556007830155600390910155565b6102db610466366004611982565b6108a3565b60765461047d90610100900460ff1681565b6040516102fd9190611a51565b610335606c5481565b6076546104a09060ff1681565b6040516102fd9190611a6b565b6102db6104bb366004611982565b606580546001600160a01b0319166001600160a01b0392909216919091179055565b6102db6108af565b6102db6104f3366004611a7f565b6108f6565b61035f610506366004611a7f565b610900565b61055a6105193660046119d1565b607f6020525f90815260409020805460018201546002830154600384015460048501546005909501546001600160a01b039485169593909416939192909186565b604080516001600160a01b039788168152969095166020870152938501929092526060840152608083015260a082015260c0016102fd565b6102db6105a0366004611aa6565b61090a565b610335610933565b610335608081565b61035f6105c3366004611982565b610bce565b6102db610bd8565b610335610be0565b6102db6105e6366004611b52565b80516072556020810151607355604081015160745560600151607555565b610335610612366004611982565b607c6020525f908152604090205481565b6078546102f0906001600160a01b031681565b6103356106443660046119d1565b610bee565b610335600381565b6102db61065f366004611a7f565b610cb2565b6083546102f0906001600160a01b031681565b61033560705481565b61069361068e3660046119b1565b610cbb565b604080519283526020830191909152016102fd565b6103356106b6366004611bb5565b610ce0565b6106936106c93660046119d1565b5f908152607b6020526040902060078101546003909101549091565b6102db6106f3366004611982565b608080546001600160a01b0319166001600160a01b0392909216919091179055565b61035f610d0b565b61035f61072b3660046119d1565b610e07565b61033560825481565b6102db610747366004611a7f565b610e11565b6102db610e1a565b606d54610767906001600160401b031681565b6040516001600160401b0390911681526020016102fd565b6102db61078d366004611982565b610e2e565b6077546103359081565b61033560715481565b6102db6107b3366004611982565b607a80546001600160a01b0319166001600160a01b0392909216919091179055565b6102db6107e33660046119d1565b606855565b607a546102f0906001600160a01b031681565b6102db610e59565b610335604081565b6102db610e95565b6102db610ebd565b610335611c2081565b5f828152607b6020526040902061083b9082610ec5565b5050565b5f818152607b60205260408120541580159061087357505f828152607b60205260409020600501546001600160a01b031615155b92915050565b80610882610efe565b80546001600160a01b0319166001600160a01b039290921691909117905550565b6108ac81610f22565b50565b6065546001600160a01b031633146108f457606554604051636ca3252960e01b81526108eb9133916001600160a01b0390911690600401611bdf565b60405180910390fd5b565b8061083b81610fbf565b5f610873826110b3565b6076805482919061ff00191661010083600481111561092b5761092b611a3d565b021790555050565b60655460685460405163068bcd8d60e01b81525f9283926001600160a01b039091169163068bcd8d9161096c9160040190815260200190565b5f60405180830381865afa158015610986573d5f803e3d5ffd5b505050506040513d5f823e601f3d908101601f191682016040526109ad9190810190611c1b565b60400151905073eeeeeeeeeeeeeeeeeeeeeeeeeeeeeeeeeeeeeeed196001600160a01b038216016109df574791505090565b6040516370a0823160e01b81525f906001600160a01b038316906370a0823190610a0d90309060040161199d565b602060405180830381865afa158015610a28573d5f803e3d5ffd5b505050506040513d601f19601f82011682018060405250810190610a4c9190611d4b565b6080549091506001600160a01b0390811690831603610a6b5792915050565b6080545f906001600160a01b031615610af2576080546040516370a0823160e01b81526001600160a01b03909116906370a0823190610aae90309060040161199d565b602060405180830381865afa158015610ac9573d5f803e3d5ffd5b505050506040513d601f19601f82011682018060405250810190610aed9190611d4b565b610af4565b5f5b90505f836001600160a01b031663313ce5676040518163ffffffff1660e01b8152600401602060405180830381865afa158015610b33573d5f803e3d5ffd5b505050506040513d601f19601f82011682018060405250810190610b579190611d62565b905060128160ff161015610b8c57610b70816012611d96565b610b7b90600a611e8f565b610b859083611e9d565b9150610bbb565b60128160ff161115610bbb57610ba3601282611d96565b610bae90600a611e8f565b610bb89083611ebc565b91505b610bc58284611ed3565b94505050505090565b5f610873826111c0565b6108f46113d9565b5f610be9610933565b905090565b5f818152607b60205260408120610c03610d0b565b610c11576003015492915050565b73__$f1b7c69ba751c396eddc93d3bbc5414fd9$__63010dfe64826007015443610c3b9190611ee6565b600384015460028501546074546040516001600160e01b031960e087901b168152610c6c94939291906004016119e8565b602060405180830381865af4158015610c87573d5f803e3d5ffd5b505050506040513d601f19601f82011682018060405250810190610cab9190611d4b565b9392505050565b6108ac81610fbf565b5f828152607b602052604081208190610cd490846114ff565b915091505b9250929050565b607d602052815f5260405f208181548110610cf9575f80fd5b905f5260205f20015f91509150505481565b6078545f906001600160a01b0316610d235750600190565b6078546040515f9182916001600160a01b0390911690633a871fe160e01b90610d5090309060240161199d565b60408051601f198184030181529181526020820180516001600160e01b03166001600160e01b0319909416939093179092529051610d8e9190611ef9565b5f60405180830381855afa9150503d805f8114610dc6576040519150601f19603f3d011682016040523d82523d5f602084013e610dcb565b606091505b5091509150811580610dde575060208151105b15610dec5760019250505090565b80806020019051810190610e009190611f14565b9250505090565b5f6108738261083f565b6108ac81611605565b6108f45f356001600160e01b031916611605565b610e37816116d5565b603380546001600160a01b0319166001600160a01b0392909216919091179055565b6078546001600160a01b031633146108f45760785460405163894215cf60e01b81526108eb9133916001600160a01b0390911690600401611bdf565b6068545f036108f45760685460405163243d58fb60e21b81526004016108eb91815260200190565b6108f4611769565b5f80610ed184846114ff565b91509150815f148015610ee2575080155b15610eed5750505050565b600784015560039092019190915550565b7f12ec43b97389db0cfbdf8d85f200f1b822123856376a9d75d3a6918f27c903bb90565b60835460405163288c314960e21b81526001600160a01b039091169063a230c52490610f5290849060040161199d565b602060405180830381865afa158015610f6d573d5f803e3d5ffd5b505050506040513d601f19601f82011682018060405250810190610f919190611f14565b6108ac57607854604051636332657560e11b81526108eb9183916001600160a01b0390911690600401611bdf565b610fc8816110b3565b15610fd05750565b5f610fd9610efe565b546001600160a01b031690508015801590610ffd57506001600160a01b0381163b15155b801561107a57506040516374b896f160e01b81523060048201526001600160e01b0319831660248201526001600160a01b038216906374b896f190604401602060405180830381865afa158015611056573d5f803e3d5ffd5b505050506040513d601f19601f8201168201806040525081019061107a9190611f14565b1561083b5760405163a9774bf960e01b81526001600160e01b0319831660048201526001600160a01b03821660248201526044016108eb565b5f6001600160e01b03198216631add1a0d60e01b14806110e357506001600160e01b0319821663136439dd60e01b145b806110fe57506001600160e01b031982166380c4a65f60e01b145b8061111957506001600160e01b03198216631fa5d41d60e11b145b8061113457506001600160e01b0319821663bac1e94b60e01b145b8061114f57506001600160e01b031982166360b4778960e01b145b8061116a57506001600160e01b031982166358c3de9360e11b145b8061118557506001600160e01b031982166304db2f3360e11b145b806111a057506001600160e01b03198216630da748b160e41b145b8061087357506001600160e01b03198216632d2ebbef60e01b1492915050565b607a545f906001600160a01b03161561124457607a546040516302154c3d60e51b81526001600160a01b03909116906342a987a0906112059085903090600401611bdf565b602060405180830381865afa158015611220573d5f803e3d5ffd5b505050506040513d601f19601f820116820180604052508101906108739190611f14565b6004607654610100900460ff16600481111561126257611262611a3d565b14801561128057506078546083546001600160a01b03908116911614155b156112b55760835460405163288c314960e21b81526001600160a01b039091169063a230c5249061120590859060040161199d565b6068546040516810531313d5d31254d560ba1b602082015260298101919091525f9060490160408051601f19818403018152908290528051602090910120607854632474521560e21b83529092506001600160a01b0316906391d14854906113239084905f90600401611f33565b602060405180830381865afa15801561133e573d5f803e3d5ffd5b505050506040513d601f19601f820116820180604052508101906113629190611f14565b80610cab5750607854604051632474521560e21b81526001600160a01b03909116906391d148549061139a9084908790600401611f33565b602060405180830381865afa1580156113b5573d5f803e3d5ffd5b505050506040513d601f19601f82011682018060405250810190610cab9190611f14565b60785f9054906101000a90046001600160a01b03166001600160a01b0316636c53db9a6040518163ffffffff1660e01b8152600401602060405180830381865afa158015611429573d5f803e3d5ffd5b505050506040513d601f19601f8201168201806040525081019061144d9190611f4a565b6001600160a01b0316336001600160a01b0316141580156114745750611472336111c0565b155b156108f45760785460408051633629edcd60e11b8152905133926001600160a01b031691636c53db9a9160048083019260209291908290030181865afa1580156114c0573d5f803e3d5ffd5b505050506040513d601f19601f820116820180604052508101906114e49190611f4a565b604051637d19bac760e11b81526004016108eb929190611bdf565b5f80611509610d0b565b61151a575050600382015443610cd9565b439050808460070154111561155257600784015460405163102300bd60e01b81526004810191909152602481018290526044016108eb565b8084600701540361156757505f905080610cd9565b73__$f1b7c69ba751c396eddc93d3bbc5414fd9$__63010dfe648560070154836115919190611ee6565b60038701546074546040516001600160e01b031960e086901b1681526115bd93929189916004016119e8565b602060405180830381865af41580156115d8573d5f803e3d5ffd5b505050506040513d601f19601f820116820180604052508101906115fc9190611d4b565b91509250929050565b61160e816110b3565b156116165750565b5f61161f610efe565b546001600160a01b03169050801580159061164357506001600160a01b0381163b15155b80156116b55750604051635b14f18360e01b81526001600160a01b03821690635b14f1839061167690309060040161199d565b602060405180830381865afa158015611691573d5f803e3d5ffd5b505050506040513d601f19601f820116820180604052508101906116b59190611f14565b1561083b578060405163c2897a3760e01b81526004016108eb919061199d565b7fc8fcad8db84d3cc18b4c41d551ea0ee66dd599cde068d998e57d5e09332c131f80546001600160a01b031981166001600160a01b038481169182179093556040517fc8fcad8db84d3cc18b4c41d551ea0ee66dd599cde068d998e57d5e09332c131c939092169182907f8be0079c531659141344cd1fd0a4f28419497f9722a3daafe3b4186f6b6457e0905f90a3505050565b60785f9054906101000a90046001600160a01b03166001600160a01b0316636c53db9a6040518163ffffffff1660e01b8152600401602060405180830381865afa1580156117b9573d5f803e3d5ffd5b505050506040513d601f19601f820116820180604052508101906117dd9190611f4a565b6001600160a01b0316336001600160a01b03161415801561181757506118016118c4565b6001600160a01b0316336001600160a01b031614155b156108f45760785460408051633629edcd60e11b8152905133926001600160a01b031691636c53db9a9160048083019260209291908290030181865afa158015611863573d5f803e3d5ffd5b505050506040513d601f19601f820116820180604052508101906118879190611f4a565b61188f6118c4565b60405163e1b9c46960e01b81526001600160a01b039384166004820152918316602483015290911660448201526064016108eb565b5f806118d86033546001600160a01b031690565b9050806001600160a01b03163b5f036118f057919050565b806001600160a01b0316638da5cb5b6040518163ffffffff1660e01b8152600401602060405180830381865afa92505050801561194a575060408051601f3d908101601f1916820190925261194791810190611f4a565b60015b61195357919050565b6001600160a01b038116156119685780610e00565b50919050565b6001600160a01b03811681146108ac575f80fd5b5f60208284031215611992575f80fd5b8135610cab8161196e565b6001600160a01b0391909116815260200190565b5f80604083850312156119c2575f80fd5b50508035926020909101359150565b5f602082840312156119e1575f80fd5b5035919050565b93845260208401929092526040830152606082015260800190565b5f805f8060808587031215611a16575f80fd5b843593506020850135611a288161196e565b93969395505050506040820135916060013590565b634e487b7160e01b5f52602160045260245ffd5b6020810160058310611a6557611a65611a3d565b91905290565b6020810160038310611a6557611a65611a3d565b5f60208284031215611a8f575f80fd5b81356001600160e01b031981168114610cab575f80fd5b5f60208284031215611ab6575f80fd5b813560058110610cab575f80fd5b634e487b7160e01b5f52604160045260245ffd5b60405160c081016001600160401b0381118282101715611afa57611afa611ac4565b60405290565b604080519081016001600160401b0381118282101715611afa57611afa611ac4565b604051601f8201601f191681016001600160401b0381118282101715611b4a57611b4a611ac4565b604052919050565b5f60808284031215611b62575f80fd5b604051608081016001600160401b0381118282101715611b8457611b84611ac4565b8060405250823581526020830135602082015260408301356040820152606083013560608201528091505092915050565b5f8060408385031215611bc6575f80fd5b8235611bd18161196e565b946020939093013593505050565b6001600160a01b0392831681529116602082015260400190565b5f5b83811015611c13578181015183820152602001611bfb565b50505f910152565b5f6020808385031215611c2c575f80fd5b82516001600160401b0380821115611c42575f80fd5b9084019060c08287031215611c55575f80fd5b611c5d611ad8565b8251815283830151611c6e8161196e565b818501526040830151611c808161196e565b6040820152606083015182811115611c96575f80fd5b830160408189031215611ca7575f80fd5b611caf611b00565b815181528582015184811115611cc3575f80fd5b80830192505088601f830112611cd7575f80fd5b815184811115611ce957611ce9611ac4565b611cfb601f8201601f19168801611b22565b94508085528987828501011115611d10575f80fd5b611d1f81888701898601611bf9565b50948501929092526060810193909352506080818101519083015260a090810151908201529392505050565b5f60208284031215611d5b575f80fd5b5051919050565b5f60208284031215611d72575f80fd5b815160ff81168114610cab575f80fd5b634e487b7160e01b5f52601160045260245ffd5b60ff828116828216039081111561087357610873611d82565b600181815b80851115611de957815f1904821115611dcf57611dcf611d82565b80851615611ddc57918102915b93841c9390800290611db4565b509250929050565b5f82611dff57506001610873565b81611e0b57505f610873565b8160018114611e215760028114611e2b57611e47565b6001915050610873565b60ff841115611e3c57611e3c611d82565b50506001821b610873565b5060208310610133831016604e8410600b8410161715611e6a575081810a610873565b611e748383611daf565b805f1904821115611e8757611e87611d82565b029392505050565b5f610cab60ff841683611df1565b5f82611eb757634e487b7160e01b5f52601260045260245ffd5b500490565b808202811582820484141761087357610873611d82565b8082018082111561087357610873611d82565b8181038181111561087357610873611d82565b5f8251611f0a818460208701611bf9565b9190910192915050565b5f60208284031215611f24575f80fd5b81518015158114610cab575f80fd5b9182526001600160a01b0316602082015260400190565b5f60208284031215611f5a575f80fd5b8151610cab8161196e56fea164736f6c6343000817000a","linkReferences":{"pkg/contracts/src/CVStrategy/ConvictionsUtils.sol":{"ConvictionsUtils":[{"start":3120,"length":20},{"start":5510,"length":20}]}}},"methodIdentifiers":{"DISPUTE_COOLDOWN_SEC()":"f5be3f7c","MAX_ALLOCATIONS_PER_TX()":"ee50ee1b","MAX_PROPOSAL_COUNT()":"dfe9ec58","MAX_SYNC_BATCH_MEMBERS()":"4c3ceb5b","MAX_VOTER_STAKED_PROPOSALS()":"914bdef0","RULING_OPTIONS()":"626c47e8","_isStrategyEnabled()":"8dc83094","arbitrableConfigs(uint256)":"41bb7605","calculateProposalConviction(uint256)":"60b0645a","cloneNonce()":"33960459","collateralVault()":"0bece79c","currentArbitrableConfigVersion()":"125fd1d9","cvParams()":"2506b870","disputeCount()":"a28889e1","disputeIdToProposalId(uint256)":"255ffb38","exposedCalculateAndSetConviction(uint256,uint256)":"096d2870","exposedCanExecuteAction(address)":"4e899d5f","exposedCheckBlockAndCalculateConviction(uint256,uint256)":"85c504dd","exposedCheckSenderIsMember(address)":"291e5123","exposedEnforceNotPaused(bytes4)":"996a63c8","exposedEnforceSelectorNotPaused(bytes4)":"73bfa56c","exposedGetPoolAmount()":"530b08a3","exposedIsPauseSelector(bytes4)":"3ea6dd9f","exposedOnlyAllo()":"3cfc004b","exposedOnlyCouncilSafe()":"f01a809c","exposedOnlyCouncilSafeOrMember()":"52b20050","exposedOnlyInitialized()":"ef3a73f2","exposedOnlyRegistryCommunity()":"dd439bd3","exposedProposalExists(uint256)":"91bfd37b","getPoolAmount()":"4ab4ba42","getProposalSnapshot(uint256)":"899e6fb1","guardedWhenNotPaused()":"9bb8bcec","guardedWhenSelectorNotPaused(bytes4)":"3e66188e","pointConfig()":"a47ff7e5","pointSystem()":"2dbd6fdd","proposalCounter()":"0c0512e9","proposalExists(uint256)":"1374b22d","proposalType()":"351d9f96","registryCommunity()":"6003e414","setAllo(address)":"3c092330","setContractOwner(address)":"a34d42b8","setCvParams((uint256,uint256,uint256,uint256))":"56c78699","setPauseController(address)":"1add1a0d","setPointSystem(uint8)":"46de35c8","setPoolId(uint256)":"ac78012c","setProposal(uint256,address,uint256,uint256)":"263c4064","setRegistryCommunity(address)":"058aca44","setSuperfluidToken(address)":"8b83075e","setSybilScorer(address)":"ac1ed7b9","setVotingPowerRegistry(address)":"170aba0d","streamingRatePerSecond()":"94573cbb","superfluidGDA()":"1b36f56f","superfluidToken()":"05caa7f3","sybilScorer()":"b6c61f31","totalPointsActivated()":"aba9ffee","totalStaked()":"817b1cd2","totalVoterStakePct(address)":"5db64b99","voterStakedProposals(address,uint256)":"868c57b8","votingPowerRegistry()":"80fd91cd"},"storageLayout":{"storage":[{"astId":85193,"contract":"pkg/contracts/test/helpers/CVStrategyHelpers.sol:CVStrategyBaseFacetHarness","label":"_initialized","offset":0,"slot":"0","type":"t_uint8"},{"astId":85195,"contract":"pkg/contracts/test/helpers/CVStrategyHelpers.sol:CVStrategyBaseFacetHarness","label":"_initializing","offset":1,"slot":"0","type":"t_bool"},{"astId":85199,"contract":"pkg/contracts/test/helpers/CVStrategyHelpers.sol:CVStrategyBaseFacetHarness","label":"__gap_init","offset":0,"slot":"1","type":"t_array(t_uint256)50_storage"},{"astId":85202,"contract":"pkg/contracts/test/helpers/CVStrategyHelpers.sol:CVStrategyBaseFacetHarness","label":"_owner","offset":0,"slot":"51","type":"t_address"},{"astId":85206,"contract":"pkg/contracts/test/helpers/CVStrategyHelpers.sol:CVStrategyBaseFacetHarness","label":"__gap_ownable","offset":0,"slot":"52","type":"t_array(t_uint256)49_storage"},{"astId":85210,"contract":"pkg/contracts/test/helpers/CVStrategyHelpers.sol:CVStrategyBaseFacetHarness","label":"allo","offset":0,"slot":"101","type":"t_contract(IAllo)351"},{"astId":85212,"contract":"pkg/contracts/test/helpers/CVStrategyHelpers.sol:CVStrategyBaseFacetHarness","label":"strategyId","offset":0,"slot":"102","type":"t_bytes32"},{"astId":85214,"contract":"pkg/contracts/test/helpers/CVStrategyHelpers.sol:CVStrategyBaseFacetHarness","label":"poolActive","offset":0,"slot":"103","type":"t_bool"},{"astId":85216,"contract":"pkg/contracts/test/helpers/CVStrategyHelpers.sol:CVStrategyBaseFacetHarness","label":"poolId","offset":0,"slot":"104","type":"t_uint256"},{"astId":85218,"contract":"pkg/contracts/test/helpers/CVStrategyHelpers.sol:CVStrategyBaseFacetHarness","label":"poolAmount","offset":0,"slot":"105","type":"t_uint256"},{"astId":85221,"contract":"pkg/contracts/test/helpers/CVStrategyHelpers.sol:CVStrategyBaseFacetHarness","label":"collateralVaultTemplate","offset":0,"slot":"106","type":"t_address"},{"astId":85224,"contract":"pkg/contracts/test/helpers/CVStrategyHelpers.sol:CVStrategyBaseFacetHarness","label":"surpressStateMutabilityWarning","offset":0,"slot":"107","type":"t_uint256"},{"astId":85227,"contract":"pkg/contracts/test/helpers/CVStrategyHelpers.sol:CVStrategyBaseFacetHarness","label":"cloneNonce","offset":0,"slot":"108","type":"t_uint256"},{"astId":85230,"contract":"pkg/contracts/test/helpers/CVStrategyHelpers.sol:CVStrategyBaseFacetHarness","label":"disputeCount","offset":0,"slot":"109","type":"t_uint64"},{"astId":85233,"contract":"pkg/contracts/test/helpers/CVStrategyHelpers.sol:CVStrategyBaseFacetHarness","label":"proposalCounter","offset":0,"slot":"110","type":"t_uint256"},{"astId":85236,"contract":"pkg/contracts/test/helpers/CVStrategyHelpers.sol:CVStrategyBaseFacetHarness","label":"currentArbitrableConfigVersion","offset":0,"slot":"111","type":"t_uint256"},{"astId":85239,"contract":"pkg/contracts/test/helpers/CVStrategyHelpers.sol:CVStrategyBaseFacetHarness","label":"totalStaked","offset":0,"slot":"112","type":"t_uint256"},{"astId":85242,"contract":"pkg/contracts/test/helpers/CVStrategyHelpers.sol:CVStrategyBaseFacetHarness","label":"totalPointsActivated","offset":0,"slot":"113","type":"t_uint256"},{"astId":85246,"contract":"pkg/contracts/test/helpers/CVStrategyHelpers.sol:CVStrategyBaseFacetHarness","label":"cvParams","offset":0,"slot":"114","type":"t_struct(CVParams)86830_storage"},{"astId":85250,"contract":"pkg/contracts/test/helpers/CVStrategyHelpers.sol:CVStrategyBaseFacetHarness","label":"proposalType","offset":0,"slot":"118","type":"t_enum(ProposalType)86730"},{"astId":85254,"contract":"pkg/contracts/test/helpers/CVStrategyHelpers.sol:CVStrategyBaseFacetHarness","label":"pointSystem","offset":1,"slot":"118","type":"t_enum(PointSystem)86736"},{"astId":85258,"contract":"pkg/contracts/test/helpers/CVStrategyHelpers.sol:CVStrategyBaseFacetHarness","label":"pointConfig","offset":0,"slot":"119","type":"t_struct(PointSystemConfig)86807_storage"},{"astId":85262,"contract":"pkg/contracts/test/helpers/CVStrategyHelpers.sol:CVStrategyBaseFacetHarness","label":"registryCommunity","offset":0,"slot":"120","type":"t_contract(RegistryCommunity)91640"},{"astId":85266,"contract":"pkg/contracts/test/helpers/CVStrategyHelpers.sol:CVStrategyBaseFacetHarness","label":"collateralVault","offset":0,"slot":"121","type":"t_contract(ICollateralVault)92836"},{"astId":85270,"contract":"pkg/contracts/test/helpers/CVStrategyHelpers.sol:CVStrategyBaseFacetHarness","label":"sybilScorer","offset":0,"slot":"122","type":"t_contract(ISybilScorer)89553"},{"astId":85276,"contract":"pkg/contracts/test/helpers/CVStrategyHelpers.sol:CVStrategyBaseFacetHarness","label":"proposals","offset":0,"slot":"123","type":"t_mapping(t_uint256,t_struct(Proposal)86799_storage)"},{"astId":85281,"contract":"pkg/contracts/test/helpers/CVStrategyHelpers.sol:CVStrategyBaseFacetHarness","label":"totalVoterStakePct","offset":0,"slot":"124","type":"t_mapping(t_address,t_uint256)"},{"astId":85287,"contract":"pkg/contracts/test/helpers/CVStrategyHelpers.sol:CVStrategyBaseFacetHarness","label":"voterStakedProposals","offset":0,"slot":"125","type":"t_mapping(t_address,t_array(t_uint256)dyn_storage)"},{"astId":85292,"contract":"pkg/contracts/test/helpers/CVStrategyHelpers.sol:CVStrategyBaseFacetHarness","label":"disputeIdToProposalId","offset":0,"slot":"126","type":"t_mapping(t_uint256,t_uint256)"},{"astId":85298,"contract":"pkg/contracts/test/helpers/CVStrategyHelpers.sol:CVStrategyBaseFacetHarness","label":"arbitrableConfigs","offset":0,"slot":"127","type":"t_mapping(t_uint256,t_struct(ArbitrableConfig)86821_storage)"},{"astId":85302,"contract":"pkg/contracts/test/helpers/CVStrategyHelpers.sol:CVStrategyBaseFacetHarness","label":"superfluidToken","offset":0,"slot":"128","type":"t_contract(ISuperToken)76145"},{"astId":85306,"contract":"pkg/contracts/test/helpers/CVStrategyHelpers.sol:CVStrategyBaseFacetHarness","label":"superfluidGDA","offset":0,"slot":"129","type":"t_contract(ISuperfluidPool)74973"},{"astId":85309,"contract":"pkg/contracts/test/helpers/CVStrategyHelpers.sol:CVStrategyBaseFacetHarness","label":"streamingRatePerSecond","offset":0,"slot":"130","type":"t_uint256"},{"astId":85313,"contract":"pkg/contracts/test/helpers/CVStrategyHelpers.sol:CVStrategyBaseFacetHarness","label":"votingPowerRegistry","offset":0,"slot":"131","type":"t_contract(IVotingPowerRegistry)93040"},{"astId":85318,"contract":"pkg/contracts/test/helpers/CVStrategyHelpers.sol:CVStrategyBaseFacetHarness","label":"__gap","offset":0,"slot":"132","type":"t_array(t_uint256)46_storage"}],"types":{"t_address":{"encoding":"inplace","label":"address","numberOfBytes":"20"},"t_array(t_uint256)46_storage":{"encoding":"inplace","label":"uint256[46]","numberOfBytes":"1472","base":"t_uint256"},"t_array(t_uint256)49_storage":{"encoding":"inplace","label":"uint256[49]","numberOfBytes":"1568","base":"t_uint256"},"t_array(t_uint256)50_storage":{"encoding":"inplace","label":"uint256[50]","numberOfBytes":"1600","base":"t_uint256"},"t_array(t_uint256)dyn_storage":{"encoding":"dynamic_array","label":"uint256[]","numberOfBytes":"32","base":"t_uint256"},"t_bool":{"encoding":"inplace","label":"bool","numberOfBytes":"1"},"t_bytes32":{"encoding":"inplace","label":"bytes32","numberOfBytes":"32"},"t_contract(IAllo)351":{"encoding":"inplace","label":"contract IAllo","numberOfBytes":"20"},"t_contract(IArbitrator)92803":{"encoding":"inplace","label":"contract IArbitrator","numberOfBytes":"20"},"t_contract(ICollateralVault)92836":{"encoding":"inplace","label":"contract ICollateralVault","numberOfBytes":"20"},"t_contract(ISuperToken)76145":{"encoding":"inplace","label":"contract ISuperToken","numberOfBytes":"20"},"t_contract(ISuperfluidPool)74973":{"encoding":"inplace","label":"contract ISuperfluidPool","numberOfBytes":"20"},"t_contract(ISybilScorer)89553":{"encoding":"inplace","label":"contract ISybilScorer","numberOfBytes":"20"},"t_contract(IVotingPowerRegistry)93040":{"encoding":"inplace","label":"contract IVotingPowerRegistry","numberOfBytes":"20"},"t_contract(RegistryCommunity)91640":{"encoding":"inplace","label":"contract RegistryCommunity","numberOfBytes":"20"},"t_enum(PointSystem)86736":{"encoding":"inplace","label":"enum PointSystem","numberOfBytes":"1"},"t_enum(ProposalStatus)86756":{"encoding":"inplace","label":"enum ProposalStatus","numberOfBytes":"1"},"t_enum(ProposalType)86730":{"encoding":"inplace","label":"enum ProposalType","numberOfBytes":"1"},"t_mapping(t_address,t_array(t_uint256)dyn_storage)":{"encoding":"mapping","key":"t_address","label":"mapping(address => uint256[])","numberOfBytes":"32","value":"t_array(t_uint256)dyn_storage"},"t_mapping(t_address,t_uint256)":{"encoding":"mapping","key":"t_address","label":"mapping(address => uint256)","numberOfBytes":"32","value":"t_uint256"},"t_mapping(t_uint256,t_struct(ArbitrableConfig)86821_storage)":{"encoding":"mapping","key":"t_uint256","label":"mapping(uint256 => struct ArbitrableConfig)","numberOfBytes":"32","value":"t_struct(ArbitrableConfig)86821_storage"},"t_mapping(t_uint256,t_struct(Proposal)86799_storage)":{"encoding":"mapping","key":"t_uint256","label":"mapping(uint256 => struct Proposal)","numberOfBytes":"32","value":"t_struct(Proposal)86799_storage"},"t_mapping(t_uint256,t_uint256)":{"encoding":"mapping","key":"t_uint256","label":"mapping(uint256 => uint256)","numberOfBytes":"32","value":"t_uint256"},"t_string_storage":{"encoding":"bytes","label":"string","numberOfBytes":"32"},"t_struct(ArbitrableConfig)86821_storage":{"encoding":"inplace","label":"struct ArbitrableConfig","numberOfBytes":"192","members":[{"astId":86810,"contract":"pkg/contracts/test/helpers/CVStrategyHelpers.sol:CVStrategyBaseFacetHarness","label":"arbitrator","offset":0,"slot":"0","type":"t_contract(IArbitrator)92803"},{"astId":86812,"contract":"pkg/contracts/test/helpers/CVStrategyHelpers.sol:CVStrategyBaseFacetHarness","label":"tribunalSafe","offset":0,"slot":"1","type":"t_address"},{"astId":86814,"contract":"pkg/contracts/test/helpers/CVStrategyHelpers.sol:CVStrategyBaseFacetHarness","label":"submitterCollateralAmount","offset":0,"slot":"2","type":"t_uint256"},{"astId":86816,"contract":"pkg/contracts/test/helpers/CVStrategyHelpers.sol:CVStrategyBaseFacetHarness","label":"challengerCollateralAmount","offset":0,"slot":"3","type":"t_uint256"},{"astId":86818,"contract":"pkg/contracts/test/helpers/CVStrategyHelpers.sol:CVStrategyBaseFacetHarness","label":"defaultRuling","offset":0,"slot":"4","type":"t_uint256"},{"astId":86820,"contract":"pkg/contracts/test/helpers/CVStrategyHelpers.sol:CVStrategyBaseFacetHarness","label":"defaultRulingTimeout","offset":0,"slot":"5","type":"t_uint256"}]},"t_struct(CVParams)86830_storage":{"encoding":"inplace","label":"struct CVParams","numberOfBytes":"128","members":[{"astId":86823,"contract":"pkg/contracts/test/helpers/CVStrategyHelpers.sol:CVStrategyBaseFacetHarness","label":"maxRatio","offset":0,"slot":"0","type":"t_uint256"},{"astId":86825,"contract":"pkg/contracts/test/helpers/CVStrategyHelpers.sol:CVStrategyBaseFacetHarness","label":"weight","offset":0,"slot":"1","type":"t_uint256"},{"astId":86827,"contract":"pkg/contracts/test/helpers/CVStrategyHelpers.sol:CVStrategyBaseFacetHarness","label":"decay","offset":0,"slot":"2","type":"t_uint256"},{"astId":86829,"contract":"pkg/contracts/test/helpers/CVStrategyHelpers.sol:CVStrategyBaseFacetHarness","label":"minThresholdPoints","offset":0,"slot":"3","type":"t_uint256"}]},"t_struct(Metadata)806_storage":{"encoding":"inplace","label":"struct Metadata","numberOfBytes":"64","members":[{"astId":802,"contract":"pkg/contracts/test/helpers/CVStrategyHelpers.sol:CVStrategyBaseFacetHarness","label":"protocol","offset":0,"slot":"0","type":"t_uint256"},{"astId":805,"contract":"pkg/contracts/test/helpers/CVStrategyHelpers.sol:CVStrategyBaseFacetHarness","label":"pointer","offset":0,"slot":"1","type":"t_string_storage"}]},"t_struct(PointSystemConfig)86807_storage":{"encoding":"inplace","label":"struct PointSystemConfig","numberOfBytes":"32","members":[{"astId":86806,"contract":"pkg/contracts/test/helpers/CVStrategyHelpers.sol:CVStrategyBaseFacetHarness","label":"maxAmount","offset":0,"slot":"0","type":"t_uint256"}]},"t_struct(Proposal)86799_storage":{"encoding":"inplace","label":"struct Proposal","numberOfBytes":"576","members":[{"astId":86765,"contract":"pkg/contracts/test/helpers/CVStrategyHelpers.sol:CVStrategyBaseFacetHarness","label":"proposalId","offset":0,"slot":"0","type":"t_uint256"},{"astId":86767,"contract":"pkg/contracts/test/helpers/CVStrategyHelpers.sol:CVStrategyBaseFacetHarness","label":"requestedAmount","offset":0,"slot":"1","type":"t_uint256"},{"astId":86769,"contract":"pkg/contracts/test/helpers/CVStrategyHelpers.sol:CVStrategyBaseFacetHarness","label":"stakedAmount","offset":0,"slot":"2","type":"t_uint256"},{"astId":86771,"contract":"pkg/contracts/test/helpers/CVStrategyHelpers.sol:CVStrategyBaseFacetHarness","label":"convictionLast","offset":0,"slot":"3","type":"t_uint256"},{"astId":86773,"contract":"pkg/contracts/test/helpers/CVStrategyHelpers.sol:CVStrategyBaseFacetHarness","label":"beneficiary","offset":0,"slot":"4","type":"t_address"},{"astId":86775,"contract":"pkg/contracts/test/helpers/CVStrategyHelpers.sol:CVStrategyBaseFacetHarness","label":"submitter","offset":0,"slot":"5","type":"t_address"},{"astId":86777,"contract":"pkg/contracts/test/helpers/CVStrategyHelpers.sol:CVStrategyBaseFacetHarness","label":"requestedToken","offset":0,"slot":"6","type":"t_address"},{"astId":86779,"contract":"pkg/contracts/test/helpers/CVStrategyHelpers.sol:CVStrategyBaseFacetHarness","label":"blockLast","offset":0,"slot":"7","type":"t_uint256"},{"astId":86782,"contract":"pkg/contracts/test/helpers/CVStrategyHelpers.sol:CVStrategyBaseFacetHarness","label":"proposalStatus","offset":0,"slot":"8","type":"t_enum(ProposalStatus)86756"},{"astId":86786,"contract":"pkg/contracts/test/helpers/CVStrategyHelpers.sol:CVStrategyBaseFacetHarness","label":"voterStakedPoints","offset":0,"slot":"9","type":"t_mapping(t_address,t_uint256)"},{"astId":86789,"contract":"pkg/contracts/test/helpers/CVStrategyHelpers.sol:CVStrategyBaseFacetHarness","label":"metadata","offset":0,"slot":"10","type":"t_struct(Metadata)806_storage"},{"astId":86792,"contract":"pkg/contracts/test/helpers/CVStrategyHelpers.sol:CVStrategyBaseFacetHarness","label":"disputeInfo","offset":0,"slot":"12","type":"t_struct(ProposalDisputeInfo)86763_storage"},{"astId":86794,"contract":"pkg/contracts/test/helpers/CVStrategyHelpers.sol:CVStrategyBaseFacetHarness","label":"lastDisputeCompletion","offset":0,"slot":"15","type":"t_uint256"},{"astId":86796,"contract":"pkg/contracts/test/helpers/CVStrategyHelpers.sol:CVStrategyBaseFacetHarness","label":"arbitrableConfigVersion","offset":0,"slot":"16","type":"t_uint256"},{"astId":86798,"contract":"pkg/contracts/test/helpers/CVStrategyHelpers.sol:CVStrategyBaseFacetHarness","label":"creationTimestamp","offset":0,"slot":"17","type":"t_uint256"}]},"t_struct(ProposalDisputeInfo)86763_storage":{"encoding":"inplace","label":"struct ProposalDisputeInfo","numberOfBytes":"96","members":[{"astId":86758,"contract":"pkg/contracts/test/helpers/CVStrategyHelpers.sol:CVStrategyBaseFacetHarness","label":"disputeId","offset":0,"slot":"0","type":"t_uint256"},{"astId":86760,"contract":"pkg/contracts/test/helpers/CVStrategyHelpers.sol:CVStrategyBaseFacetHarness","label":"disputeTimestamp","offset":0,"slot":"1","type":"t_uint256"},{"astId":86762,"contract":"pkg/contracts/test/helpers/CVStrategyHelpers.sol:CVStrategyBaseFacetHarness","label":"challenger","offset":0,"slot":"2","type":"t_address"}]},"t_uint256":{"encoding":"inplace","label":"uint256","numberOfBytes":"32"},"t_uint64":{"encoding":"inplace","label":"uint64","numberOfBytes":"8"},"t_uint8":{"encoding":"inplace","label":"uint8","numberOfBytes":"1"}}},"id":154}