{"abi":[{"type":"function","name":"arbitrationCost","inputs":[{"name":"","type":"bytes","internalType":"bytes"},{"name":"","type":"address","internalType":"contract IERC20"}],"outputs":[{"name":"","type":"uint256","internalType":"uint256"}],"stateMutability":"view"},{"type":"function","name":"arbitrationCost","inputs":[{"name":"","type":"bytes","internalType":"bytes"}],"outputs":[{"name":"","type":"uint256","internalType":"uint256"}],"stateMutability":"view"},{"type":"function","name":"createDispute","inputs":[{"name":"","type":"uint256","internalType":"uint256"},{"name":"","type":"bytes","internalType":"bytes"}],"outputs":[{"name":"","type":"uint256","internalType":"uint256"}],"stateMutability":"payable"},{"type":"function","name":"createDispute","inputs":[{"name":"","type":"uint256","internalType":"uint256"},{"name":"","type":"bytes","internalType":"bytes"},{"name":"","type":"address","internalType":"contract IERC20"},{"name":"","type":"uint256","internalType":"uint256"}],"outputs":[{"name":"","type":"uint256","internalType":"uint256"}],"stateMutability":"nonpayable"},{"type":"function","name":"currentRuling","inputs":[{"name":"","type":"uint256","internalType":"uint256"}],"outputs":[{"name":"","type":"uint256","internalType":"uint256"},{"name":"","type":"bool","internalType":"bool"},{"name":"","type":"bool","internalType":"bool"}],"stateMutability":"view"},{"type":"function","name":"lastSafe","inputs":[],"outputs":[{"name":"","type":"address","internalType":"address"}],"stateMutability":"view"},{"type":"function","name":"registerSafe","inputs":[{"name":"safe","type":"address","internalType":"address"}],"outputs":[],"stateMutability":"nonpayable"},{"type":"event","name":"AcceptedFeeToken","inputs":[{"name":"_token","type":"address","indexed":true,"internalType":"contract IERC20"},{"name":"_accepted","type":"bool","indexed":true,"internalType":"bool"}],"anonymous":false},{"type":"event","name":"DisputeCreation","inputs":[{"name":"_disputeID","type":"uint256","indexed":true,"internalType":"uint256"},{"name":"_arbitrable","type":"address","indexed":true,"internalType":"contract IArbitrable"}],"anonymous":false},{"type":"event","name":"NewCurrencyRate","inputs":[{"name":"_feeToken","type":"address","indexed":true,"internalType":"contract IERC20"},{"name":"_rateInEth","type":"uint64","indexed":false,"internalType":"uint64"},{"name":"_rateDecimals","type":"uint8","indexed":false,"internalType":"uint8"}],"anonymous":false},{"type":"event","name":"Ruling","inputs":[{"name":"_arbitrable","type":"address","indexed":true,"internalType":"contract IArbitrable"},{"name":"_disputeID","type":"uint256","indexed":true,"internalType":"uint256"},{"name":"_ruling","type":"uint256","indexed":false,"internalType":"uint256"}],"anonymous":false}],"bytecode":{"object":"0x608060405234801561000f575f80fd5b506103778061001d5f395ff3fe60806040526004361061005f575f3560e01c80631c3db16d1461006357806388d5b732146100a85780638ea33071146100e5578063c13517e11461011b578063d98493f61461013f578063f6506db414610159578063f7434ea91461017d575b5f80fd5b34801561006e575f80fd5b5061008661007d36600461019e565b505f9081908190565b6040805193845291151560208401521515908201526060015b60405180910390f35b3480156100b3575f80fd5b506100e36100c23660046101cc565b5f80546001600160a01b0319166001600160a01b0392909216919091179055565b005b3480156100f0575f80fd5b505f54610103906001600160a01b031681565b6040516001600160a01b03909116815260200161009f565b610131610129366004610232565b5f9392505050565b60405190815260200161009f565b34801561014a575f80fd5b50610131610129366004610279565b348015610164575f80fd5b506101316101733660046102cb565b5f95945050505050565b348015610188575f80fd5b5061013161019736600461032c565b5f92915050565b5f602082840312156101ae575f80fd5b5035919050565b6001600160a01b03811681146101c9575f80fd5b50565b5f602082840312156101dc575f80fd5b81356101e7816101b5565b9392505050565b5f8083601f8401126101fe575f80fd5b5081356001600160401b03811115610214575f80fd5b60208301915083602082850101111561022b575f80fd5b9250929050565b5f805f60408486031215610244575f80fd5b8335925060208401356001600160401b03811115610260575f80fd5b61026c868287016101ee565b9497909650939450505050565b5f805f6040848603121561028b575f80fd5b83356001600160401b038111156102a0575f80fd5b6102ac868287016101ee565b90945092505060208401356102c0816101b5565b809150509250925092565b5f805f805f608086880312156102df575f80fd5b8535945060208601356001600160401b038111156102fb575f80fd5b610307888289016101ee565b909550935050604086013561031b816101b5565b949793965091946060013592915050565b5f806020838503121561033d575f80fd5b82356001600160401b03811115610352575f80fd5b61035e858286016101ee565b9096909550935050505056fea164736f6c6343000817000a","linkReferences":{}},"methodIdentifiers":{"arbitrationCost(bytes)":"f7434ea9","arbitrationCost(bytes,address)":"d98493f6","createDispute(uint256,bytes)":"c13517e1","createDispute(uint256,bytes,address,uint256)":"f6506db4","currentRuling(uint256)":"1c3db16d","lastSafe()":"8ea33071","registerSafe(address)":"88d5b732"},"storageLayout":{"storage":[{"astId":169820,"contract":"pkg/contracts/test/helpers/CVStrategyHelpers.sol:MockArbitrator","label":"lastSafe","offset":0,"slot":"0","type":"t_address"}],"types":{"t_address":{"encoding":"inplace","label":"address","numberOfBytes":"20"}}},"id":242}