{"abi":[{"type":"constructor","inputs":[],"stateMutability":"nonpayable"},{"type":"function","name":"depositCollateral","inputs":[{"name":"proposalId","type":"uint256","internalType":"uint256"},{"name":"user","type":"address","internalType":"address"}],"outputs":[],"stateMutability":"payable"},{"type":"function","name":"initialize","inputs":[],"outputs":[],"stateMutability":"nonpayable"},{"type":"function","name":"owner","inputs":[],"outputs":[{"name":"","type":"address","internalType":"address"}],"stateMutability":"view"},{"type":"function","name":"proposalCollateral","inputs":[{"name":"proposalId","type":"uint256","internalType":"uint256"},{"name":"user","type":"address","internalType":"address"}],"outputs":[{"name":"amount","type":"uint256","internalType":"uint256"}],"stateMutability":"view"},{"type":"function","name":"withdrawCollateral","inputs":[{"name":"_proposalId","type":"uint256","internalType":"uint256"},{"name":"_user","type":"address","internalType":"address"},{"name":"_amount","type":"uint256","internalType":"uint256"}],"outputs":[],"stateMutability":"nonpayable"},{"type":"function","name":"withdrawCollateralFor","inputs":[{"name":"_proposalId","type":"uint256","internalType":"uint256"},{"name":"_fromUser","type":"address","internalType":"address"},{"name":"_toUser","type":"address","internalType":"address"},{"name":"_amount","type":"uint256","internalType":"uint256"}],"outputs":[],"stateMutability":"nonpayable"},{"type":"event","name":"CollateralDeposited","inputs":[{"name":"proposalId","type":"uint256","indexed":false,"internalType":"uint256"},{"name":"user","type":"address","indexed":true,"internalType":"address"},{"name":"amount","type":"uint256","indexed":false,"internalType":"uint256"}],"anonymous":false},{"type":"event","name":"CollateralWithdrawn","inputs":[{"name":"proposalId","type":"uint256","indexed":false,"internalType":"uint256"},{"name":"user","type":"address","indexed":true,"internalType":"address"},{"name":"amount","type":"uint256","indexed":false,"internalType":"uint256"},{"name":"isInsufficientAvailableAmount","type":"bool","indexed":false,"internalType":"bool"}],"anonymous":false},{"type":"event","name":"CollateralWithdrawn","inputs":[{"name":"proposalId","type":"uint256","indexed":false,"internalType":"uint256"},{"name":"fromUser","type":"address","indexed":true,"internalType":"address"},{"name":"toUser","type":"address","indexed":true,"internalType":"address"},{"name":"amount","type":"uint256","indexed":false,"internalType":"uint256"},{"name":"isInsufficientAvailableAmount","type":"bool","indexed":false,"internalType":"bool"}],"anonymous":false},{"type":"error","name":"AlreadyInitialized","inputs":[]},{"type":"error","name":"InsufficientCollateral","inputs":[{"name":"requested","type":"uint256","internalType":"uint256"},{"name":"available","type":"uint256","internalType":"uint256"}]},{"type":"error","name":"InvalidAddress","inputs":[]},{"type":"error","name":"NotAuthorized","inputs":[]},{"type":"error","name":"TransferFailed","inputs":[]}],"bytecode":{"object":"0x608060405234801561000f575f80fd5b5060015f55610678806100215f395ff3fe608060405260043610610054575f3560e01c8063481fef8a146100585780638129fc1c1461006d5780638630da1d146100815780638969ab53146100ca5780638da5cb5b146100e957806399ea56b014610120575b5f80fd5b61006b610066366004610576565b61013f565b005b348015610078575f80fd5b5061006b6101f8565b34801561008c575f80fd5b506100b761009b366004610576565b600160209081525f928352604080842090915290825290205481565b6040519081526020015b60405180910390f35b3480156100d5575f80fd5b5061006b6100e43660046105a0565b610235565b3480156100f4575f80fd5b50600254610108906001600160a01b031681565b6040516001600160a01b0390911681526020016100c1565b34801561012b575f80fd5b5061006b61013a3660046105e1565b6103a0565b6002546001600160a01b0316331461016a5760405163ea8e4eb560e01b815260040160405180910390fd5b610172610500565b5f8281526001602090815260408083206001600160a01b0385168452909152812080543492906101a3908490610627565b9091555050604080518381523460208201526001600160a01b038316917feec2f3feb835e2f2fd44281034b04700a1ddda63dd402949d470a25a7c40b36c910160405180910390a26101f460015f55565b5050565b6002546001600160a01b0316156102215760405162dc149f60e41b815260040160405180910390fd5b600280546001600160a01b03191633179055565b6002546001600160a01b031633146102605760405163ea8e4eb560e01b815260040160405180910390fd5b610268610500565b5f8481526001602090815260408083206001600160a01b0387168452909152812054908183111561029a575090508060015b5f8681526001602090815260408083206001600160a01b0389168452909152812080548592906102cb908490610640565b90915550506040515f906001600160a01b0386169085908381818185875af1925050503d805f8114610318576040519150601f19603f3d011682016040523d82523d5f602084013e61031d565b606091505b505090508061033f576040516312171d8360e31b815260040160405180910390fd5b846001600160a01b0316866001600160a01b03167f86b742620d95ff25811b118a7f2dbca2f5f4c869adf0b0d94660965f51c8d76989878660405161038693929190610653565b60405180910390a350505061039a60015f55565b50505050565b6002546001600160a01b031633146103cb5760405163ea8e4eb560e01b815260040160405180910390fd5b6103d3610500565b5f8381526001602090815260408083206001600160a01b03861684529091528120549081831115610405575090508060015b5f8581526001602090815260408083206001600160a01b038816845290915281208054859290610436908490610640565b90915550506040515f906001600160a01b0386169085908381818185875af1925050503d805f8114610483576040519150601f19603f3d011682016040523d82523d5f602084013e610488565b606091505b50509050806104aa576040516312171d8360e31b815260040160405180910390fd5b846001600160a01b03167fc512525fc7952c6edf42100f0853e94fb1c1f6daf93780cac22b690a36e037248786856040516104e793929190610653565b60405180910390a25050506104fb60015f55565b505050565b60025f54036105555760405162461bcd60e51b815260206004820152601f60248201527f5265656e7472616e637947756172643a207265656e7472616e742063616c6c00604482015260640160405180910390fd5b60025f55565b80356001600160a01b0381168114610571575f80fd5b919050565b5f8060408385031215610587575f80fd5b823591506105976020840161055b565b90509250929050565b5f805f80608085870312156105b3575f80fd5b843593506105c36020860161055b565b92506105d16040860161055b565b9396929550929360600135925050565b5f805f606084860312156105f3575f80fd5b833592506106036020850161055b565b9150604084013590509250925092565b634e487b7160e01b5f52601160045260245ffd5b8082018082111561063a5761063a610613565b92915050565b8181038181111561063a5761063a610613565b9283526020830191909152151560408201526060019056fea164736f6c6343000817000a","linkReferences":{}},"methodIdentifiers":{"depositCollateral(uint256,address)":"481fef8a","initialize()":"8129fc1c","owner()":"8da5cb5b","proposalCollateral(uint256,address)":"8630da1d","withdrawCollateral(uint256,address,uint256)":"99ea56b0","withdrawCollateralFor(uint256,address,address,uint256)":"8969ab53"},"storageLayout":{"storage":[{"astId":56099,"contract":"pkg/contracts/src/CollateralVault.sol:CollateralVault","label":"_status","offset":0,"slot":"0","type":"t_uint256"},{"astId":108202,"contract":"pkg/contracts/src/CollateralVault.sol:CollateralVault","label":"proposalCollateral","offset":0,"slot":"1","type":"t_mapping(t_uint256,t_mapping(t_address,t_uint256))"},{"astId":108204,"contract":"pkg/contracts/src/CollateralVault.sol:CollateralVault","label":"owner","offset":0,"slot":"2","type":"t_address"}],"types":{"t_address":{"encoding":"inplace","label":"address","numberOfBytes":"20"},"t_mapping(t_address,t_uint256)":{"encoding":"mapping","key":"t_address","label":"mapping(address => uint256)","numberOfBytes":"32","value":"t_uint256"},"t_mapping(t_uint256,t_mapping(t_address,t_uint256))":{"encoding":"mapping","key":"t_uint256","label":"mapping(uint256 => mapping(address => uint256))","numberOfBytes":"32","value":"t_mapping(t_address,t_uint256)"},"t_uint256":{"encoding":"inplace","label":"uint256","numberOfBytes":"32"}}},"id":179}