{"abi":[{"type":"function","name":"arbitrableTribunalSafe","inputs":[{"name":"arbitrable","type":"address","internalType":"address"}],"outputs":[{"name":"safe","type":"address","internalType":"address"}],"stateMutability":"view"},{"type":"function","name":"arbitrationCost","inputs":[{"name":"","type":"bytes","internalType":"bytes"},{"name":"","type":"address","internalType":"contract IERC20"}],"outputs":[{"name":"","type":"uint256","internalType":"uint256"}],"stateMutability":"pure"},{"type":"function","name":"arbitrationCost","inputs":[{"name":"","type":"bytes","internalType":"bytes"}],"outputs":[{"name":"fee","type":"uint256","internalType":"uint256"}],"stateMutability":"view"},{"type":"function","name":"createDispute","inputs":[{"name":"_choices","type":"uint256","internalType":"uint256"},{"name":"_extraData","type":"bytes","internalType":"bytes"}],"outputs":[{"name":"disputeID","type":"uint256","internalType":"uint256"}],"stateMutability":"payable"},{"type":"function","name":"createDispute","inputs":[{"name":"","type":"uint256","internalType":"uint256"},{"name":"","type":"bytes","internalType":"bytes"},{"name":"","type":"address","internalType":"contract IERC20"},{"name":"","type":"uint256","internalType":"uint256"}],"outputs":[{"name":"","type":"uint256","internalType":"uint256"}],"stateMutability":"pure"},{"type":"function","name":"currentRuling","inputs":[{"name":"_disputeID","type":"uint256","internalType":"uint256"}],"outputs":[{"name":"ruling","type":"uint256","internalType":"uint256"},{"name":"tied","type":"bool","internalType":"bool"},{"name":"overridden","type":"bool","internalType":"bool"}],"stateMutability":"view"},{"type":"function","name":"disputes","inputs":[{"name":"","type":"uint256","internalType":"uint256"}],"outputs":[{"name":"arbitrated","type":"address","internalType":"contract IArbitrable"},{"name":"arbitratorExtraData","type":"bytes","internalType":"bytes"},{"name":"choices","type":"uint256","internalType":"uint256"},{"name":"arbitrationFee","type":"uint256","internalType":"uint256"},{"name":"ruling","type":"uint256","internalType":"uint256"},{"name":"status","type":"uint8","internalType":"enum SafeArbitrator.DisputeStatus"}],"stateMutability":"view"},{"type":"function","name":"executeRuling","inputs":[{"name":"_disputeID","type":"uint256","internalType":"uint256"},{"name":"_ruling","type":"uint256","internalType":"uint256"},{"name":"_arbitrable","type":"address","internalType":"address"}],"outputs":[],"stateMutability":"nonpayable"},{"type":"function","name":"initialize","inputs":[{"name":"_arbitrationFee","type":"uint256","internalType":"uint256"}],"outputs":[],"stateMutability":"nonpayable"},{"type":"function","name":"owner","inputs":[],"outputs":[{"name":"","type":"address","internalType":"address"}],"stateMutability":"view"},{"type":"function","name":"proxiableUUID","inputs":[],"outputs":[{"name":"","type":"bytes32","internalType":"bytes32"}],"stateMutability":"view"},{"type":"function","name":"registerSafe","inputs":[{"name":"_safe","type":"address","internalType":"address"}],"outputs":[],"stateMutability":"nonpayable"},{"type":"function","name":"renounceOwnership","inputs":[],"outputs":[],"stateMutability":"nonpayable"},{"type":"function","name":"setArbitrationFee","inputs":[{"name":"_arbitrationFee","type":"uint256","internalType":"uint256"}],"outputs":[],"stateMutability":"nonpayable"},{"type":"function","name":"transferOwnership","inputs":[{"name":"newOwner","type":"address","internalType":"address"}],"outputs":[],"stateMutability":"nonpayable"},{"type":"function","name":"upgradeTo","inputs":[{"name":"newImplementation","type":"address","internalType":"address"}],"outputs":[],"stateMutability":"nonpayable"},{"type":"function","name":"upgradeToAndCall","inputs":[{"name":"newImplementation","type":"address","internalType":"address"},{"name":"data","type":"bytes","internalType":"bytes"}],"outputs":[],"stateMutability":"payable"},{"type":"event","name":"AcceptedFeeToken","inputs":[{"name":"_token","type":"address","indexed":true,"internalType":"contract IERC20"},{"name":"_accepted","type":"bool","indexed":true,"internalType":"bool"}],"anonymous":false},{"type":"event","name":"AdminChanged","inputs":[{"name":"previousAdmin","type":"address","indexed":false,"internalType":"address"},{"name":"newAdmin","type":"address","indexed":false,"internalType":"address"}],"anonymous":false},{"type":"event","name":"BeaconUpgraded","inputs":[{"name":"beacon","type":"address","indexed":true,"internalType":"address"}],"anonymous":false},{"type":"event","name":"DisputeCreation","inputs":[{"name":"_disputeID","type":"uint256","indexed":true,"internalType":"uint256"},{"name":"_arbitrable","type":"address","indexed":true,"internalType":"contract IArbitrable"}],"anonymous":false},{"type":"event","name":"Initialized","inputs":[{"name":"version","type":"uint8","indexed":false,"internalType":"uint8"}],"anonymous":false},{"type":"event","name":"NewCurrencyRate","inputs":[{"name":"_feeToken","type":"address","indexed":true,"internalType":"contract IERC20"},{"name":"_rateInEth","type":"uint64","indexed":false,"internalType":"uint64"},{"name":"_rateDecimals","type":"uint8","indexed":false,"internalType":"uint8"}],"anonymous":false},{"type":"event","name":"OwnershipTransferred","inputs":[{"name":"previousOwner","type":"address","indexed":true,"internalType":"address"},{"name":"newOwner","type":"address","indexed":true,"internalType":"address"}],"anonymous":false},{"type":"event","name":"Ruling","inputs":[{"name":"_arbitrable","type":"address","indexed":true,"internalType":"contract IArbitrable"},{"name":"_disputeID","type":"uint256","indexed":true,"internalType":"uint256"},{"name":"_ruling","type":"uint256","indexed":false,"internalType":"uint256"}],"anonymous":false},{"type":"event","name":"Upgraded","inputs":[{"name":"implementation","type":"address","indexed":true,"internalType":"address"}],"anonymous":false},{"type":"error","name":"OnlySafe","inputs":[{"name":"sender","type":"address","internalType":"address"},{"name":"safe","type":"address","internalType":"address"}]}],"bytecode":{"object":"0x60a08060405234610031573060805261169390816100378239608051818181610ac201528181610bbd0152610de20152f35b600080fdfe6080604052600436101561001257600080fd5b6000803560e01c80631c3db16d1461104e57806326a0754c146110125780633659cfe614610dbd5780634f1ef28614610b6e57806352d1902d14610aaf578063564a565d1461096b5780635ea7b4fc14610948578063715018a6146108fd5780637a1d3756146106d057806388d5b7321461068a5780638da5cb5b14610661578063c13517e114610374578063d98493f614610329578063f2fde38b14610298578063f6506db414610257578063f7434ea9146102135763fe4b84df146100d857600080fd5b3461021057602036600319011261021057805460ff8160081c161590818092610203575b80156101ec575b156101905760ff19811660011783558161017f575b5061013260ff835460081c1661012d816114a8565b6114a8565b61013b33611276565b6004356065556101485780f35b61ff001981541681557f7f26b83ff96e1f2b6a682f133852f6798a09c465da95921460cefb3847402498602060405160018152a180f35b61ffff191661010117825538610118565b60405162461bcd60e51b815260206004820152602e60248201527f496e697469616c697a61626c653a20636f6e747261637420697320616c72656160448201526d191e481a5b9a5d1a585b1a5e995960921b6064820152608490fd5b50303b1580156101035750600160ff821614610103565b50600160ff8216106100fc565b80fd5b5034610210576020366003190112610210576004356001600160401b038111610253576102449036906004016111f1565b50506020606554604051908152f35b5080fd5b5034610210576080366003190112610210576024356001600160401b038111610253576102889036906004016111f1565b505061029261109c565b50611508565b5034610210576020366003190112610210576102b2611086565b6102ba61121e565b6001600160a01b038116156102d5576102d290611276565b80f35b60405162461bcd60e51b815260206004820152602660248201527f4f776e61626c653a206e6577206f776e657220697320746865207a65726f206160448201526564647265737360d01b6064820152608490fd5b5034610210576040366003190112610210576004356001600160401b0381116102535761035a9036906004016111f1565b50506024356001600160a01b03811614611508575b600080fd5b506040366003190112610210576001600160401b0390602435828111610253576103a29036906004016111f1565b9092606554341061061c57606654916040519460c086019186831084841117610606576103d692604052338752369161110b565b906020850191825260043560408601523460608601528360808601528360a0860152600160401b8310156105f2576001830160665561041483611142565b9290926105de57855183546001600160a01b0319166001600160a01b03919091161783555180519182116105ca5761044f6001840154611177565b601f8111610586575b50602090601f831160011461051757918060a09492600594889261050c575b50508160011b916000199060031b1c19161760018201555b604086015160028201556060860151600382015560808601516004820155019301519260028410156104f85760209360ff8019835416911617905560405191817f141dfc18aa6a56fc816f44f0e9e2f1ebc92b15ab167770e17db5b084c10ed995339280a38152f35b634e487b7160e01b83526021600452602483fd5b015190503880610477565b600184018652602086209190601f198416875b81811061056e575092600192859260059660a0989610610555575b505050811b01600182015561048f565b015160001960f88460031b161c19169055388080610545565b9293602060018192878601518155019501930161052a565b60018401865260208620601f840160051c8101602085106105c3575b601f830160051c820181106105b8575050610458565b8781556001016105a2565b50806105a2565b634e487b7160e01b85526041600452602485fd5b634e487b7160e01b85526004859052602485fd5b634e487b7160e01b84526041600452602484fd5b634e487b7160e01b600052604160045260246000fd5b60405162461bcd60e51b815260206004820152601d60248201527f4172626974726174696f6e20666565733a206e6f7420656e6f7567682e0000006044820152606490fd5b50346102105780600319360112610210576033546040516001600160a01b039091168152602090f35b5034610210576020366003190112610210576106a4611086565b33825260676020526040822080546001600160a01b0319166001600160a01b0390921691909117905580f35b5034610210576060366003190112610210576004356001600160a01b036024803590826106fb61109c565b16928386526067602052806040872054168033146000146108e0575061072085611142565b509060028201548410156108aa57600582019182549260ff8416600281101561089757600114610853576001600483019487865560ff1916179055878080806003850154335af161076f6113db565b501561081d57549154879392909116803b156108195760448492604051958693849263188d362b60e11b84528b6004850152878401525af1801561080e576107d0575b5050602060008051602061161e83398151915291604051908152a380f35b9194916001600160401b0382116107fc575060405292602060008051602061161e8339815191526107b2565b634e487b7160e01b8352604160045282fd5b6040513d88823e3d90fd5b8380fd5b60405162461bcd60e51b815260206004820152600f818601526e151c985b9cd9995c8819985a5b1959608a1b6044820152606490fd5b60405162461bcd60e51b815260206004820152601f818701527f5468652064697370757465206d757374206e6f7420626520736f6c7665642e006044820152606490fd5b634e487b7160e01b8a526021600452858afd5b60405162461bcd60e51b815260206004820152600f818501526e24b73b30b634b210393ab634b7339760891b6044820152606490fd5b826044916040519163d0774c9960e01b8352336004840152820152fd5b503461021057806003193601126102105761091661121e565b603380546001600160a01b0319811690915581906001600160a01b031660008051602061159e8339815191528280a380f35b50346102105760203660031901126102105761096261121e565b60043560655580f35b50346102105760208060031936011261025357600435606654811015610aab5761099490611142565b5060018060a01b0381541691600191828101604051809487908354936109b985611177565b94858552878382169182600014610a89575050600114610a4d575b50506109e2925003846110cd565b600281015492610a1460038301549160c060ff60056004870154960154169560405198895288015260c08701906111b1565b936040860152606085015260808401526002811015610a395782935060a08301520390f35b634e487b7160e01b84526021600452602484fd5b86925089528189209089915b858310610a715750506109e2935082010138806109d4565b8054838a018501528894508793909201918101610a59565b92509350506109e294915060ff191682840152151560051b82010138806109d4565b8280fd5b50346102105780600319360112610210577f00000000000000000000000000000000000000000000000000000000000000006001600160a01b03163003610b0857602060405160008051602061157e8339815191528152f35b60405162461bcd60e51b815260206004820152603860248201527f555550535570677261646561626c653a206d757374206e6f742062652063616c6044820152771b1959081d1a1c9bdd59da0819195b1959d85d1958d85b1b60421b6064820152608490fd5b50604036600319011261021057610b83611086565b6024356001600160401b038111610aab5736602382011215610aab57610bb390369060248160040135910161110b565b6001600160a01b037f00000000000000000000000000000000000000000000000000000000000000008116929190610bed308514156112ad565b610c0a60008051602061157e8339815191529482865416146112fc565b610c1261121e565b60008051602061153e8339815191525460ff1615610c365750506102d2915061134b565b82919216604051936352d1902d60e01b85526020948581600481865afa879181610d8a575b50610caa5760405162461bcd60e51b815260048101879052602e602482015260008051602061163e83398151915260448201526d6f6e206973206e6f74205555505360901b6064820152608490fd5b94939403610d4557610cbb8261134b565b6000805160206115be8339815191528580a283835115801590610d3d575b610ce5575b5050505080f35b80610d339460405194610cf7866110b2565b602786526000805160206115fe83398151915281870152660819985a5b195960ca1b604087015281519101845af4610d2d6113db565b9161140b565b5038808083610cde565b506001610cd9565b60405162461bcd60e51b815260048101849052602960248201526000805160206115de8339815191526044820152681a58589b195555525160ba1b6064820152608490fd5b9091508681813d8311610db6575b610da281836110cd565b81010312610db257519038610c5b565b8780fd5b503d610d98565b50346102105760208060031936011261025357610dd8611086565b6001600160a01b037f00000000000000000000000000000000000000000000000000000000000000008116610e0f308214156112ad565b610e2c60008051602061157e8339815191529183835416146112fc565b610e3461121e565b604051848101929091906001600160401b03841183851017610ffe578360405286835260ff60008051602061153e8339815191525416600014610e7f57505050506102d2915061134b565b84939416906040516352d1902d60e01b81528681600481865afa889181610fcb575b50610ef05760405162461bcd60e51b815260048101889052602e602482015260008051602061163e83398151915260448201526d6f6e206973206e6f74205555505360901b6064820152608490fd5b95949503610f8657908591610f048461134b565b6000805160206115be8339815191528380a2805115801590610f7f575b610f2e575b505050505080f35b610f749482916000805160206115fe83398151915260405196610f50886110b2565b60278852870152660819985a5b195960ca1b60408701525190845af4610d2d6113db565b503880808381610f26565b5081610f21565b60405162461bcd60e51b815260048101859052602960248201526000805160206115de8339815191526044820152681a58589b195555525160ba1b6064820152608490fd5b9091508781813d8311610ff7575b610fe381836110cd565b81010312610ff357519038610ea1565b8880fd5b503d610fd9565b634e487b7160e01b87526041600452602487fd5b5034610210576020366003190112610210576020906001600160a01b03906040908261103c611086565b16815260678452205416604051908152f35b503461021057602036600319011261021057606090600461106f8135611142565b500154906040519182528060208301526040820152f35b600435906001600160a01b038216820361036f57565b604435906001600160a01b038216820361036f57565b606081019081106001600160401b0382111761060657604052565b601f909101601f19168101906001600160401b0382119082101761060657604052565b6001600160401b03811161060657601f01601f191660200190565b929192611117826110f0565b9161112560405193846110cd565b82948184528183011161036f578281602093846000960137010152565b6066548110156111615760666000526006602060002091020190600090565b634e487b7160e01b600052603260045260246000fd5b90600182811c921680156111a7575b602083101461119157565b634e487b7160e01b600052602260045260246000fd5b91607f1691611186565b919082519283825260005b8481106111dd575050826000602080949584010152601f8019910116010190565b6020818301810151848301820152016111bc565b9181601f8401121561036f578235916001600160401b03831161036f576020838186019501011161036f57565b6033546001600160a01b0316330361123257565b606460405162461bcd60e51b815260206004820152602060248201527f4f776e61626c653a2063616c6c6572206973206e6f7420746865206f776e65726044820152fd5b603380546001600160a01b039283166001600160a01b03198216811790925590911660008051602061159e833981519152600080a3565b156112b457565b60405162461bcd60e51b815260206004820152602c602482015260008051602061155e83398151915260448201526b19195b1959d85d1958d85b1b60a21b6064820152608490fd5b1561130357565b60405162461bcd60e51b815260206004820152602c602482015260008051602061155e83398151915260448201526b6163746976652070726f787960a01b6064820152608490fd5b803b156113805760008051602061157e83398151915280546001600160a01b0319166001600160a01b03909216919091179055565b60405162461bcd60e51b815260206004820152602d60248201527f455243313936373a206e657720696d706c656d656e746174696f6e206973206e60448201526c1bdd08184818dbdb9d1c9858dd609a1b6064820152608490fd5b3d15611406573d906113ec826110f0565b916113fa60405193846110cd565b82523d6000602084013e565b606090565b9192901561146d575081511561141f575090565b3b156114285790565b60405162461bcd60e51b815260206004820152601d60248201527f416464726573733a2063616c6c20746f206e6f6e2d636f6e74726163740000006044820152606490fd5b8251909150156114805750805190602001fd5b60405162461bcd60e51b8152602060048201529081906114a49060248301906111b1565b0390fd5b156114af57565b60405162461bcd60e51b815260206004820152602b60248201527f496e697469616c697a61626c653a20636f6e7472616374206973206e6f74206960448201526a6e697469616c697a696e6760a81b6064820152608490fd5b60405162461bcd60e51b815260206004820152600d60248201526c139bdd081cdd5c1c1bdc9d1959609a1b6044820152606490fdfe4910fdfa16fed3260ed0e7147f7cc6da11a60208b5b9406d12a635614ffd914346756e6374696f6e206d7573742062652063616c6c6564207468726f75676820360894a13ba1a3210667c828492db98dca3e2076cc3735a920a3ca505d382bbc8be0079c531659141344cd1fd0a4f28419497f9722a3daafe3b4186f6b6457e0bc7cd75a20ee27fd9adebab32041f755214dbc6bffa90cc0225b39da2e5c2d3b45524331393637557067726164653a20756e737570706f727465642070726f78416464726573733a206c6f772d6c6576656c2064656c65676174652063616c6c394027a5fa6e098a1191094d1719d6929b9abc535fcc0c8f448d6a4e7562227645524331393637557067726164653a206e657720696d706c656d656e74617469a2646970667358221220472d05ebe26f6073c8c90df86bdd72372984531abc071f97fee4a0d8626be71c64736f6c63430008130033","linkReferences":{}},"methodIdentifiers":{"arbitrableTribunalSafe(address)":"26a0754c","arbitrationCost(bytes)":"f7434ea9","arbitrationCost(bytes,address)":"d98493f6","createDispute(uint256,bytes)":"c13517e1","createDispute(uint256,bytes,address,uint256)":"f6506db4","currentRuling(uint256)":"1c3db16d","disputes(uint256)":"564a565d","executeRuling(uint256,uint256,address)":"7a1d3756","initialize(uint256)":"fe4b84df","owner()":"8da5cb5b","proxiableUUID()":"52d1902d","registerSafe(address)":"88d5b732","renounceOwnership()":"715018a6","setArbitrationFee(uint256)":"5ea7b4fc","transferOwnership(address)":"f2fde38b","upgradeTo(address)":"3659cfe6","upgradeToAndCall(address,bytes)":"4f1ef286"},"storageLayout":{"storage":[{"astId":53071,"contract":"pkg/contracts/src/SafeArbitrator.sol:SafeArbitrator","label":"_initialized","offset":0,"slot":"0","type":"t_uint8"},{"astId":53074,"contract":"pkg/contracts/src/SafeArbitrator.sol:SafeArbitrator","label":"_initializing","offset":1,"slot":"0","type":"t_bool"},{"astId":53776,"contract":"pkg/contracts/src/SafeArbitrator.sol:SafeArbitrator","label":"__gap","offset":0,"slot":"1","type":"t_array(t_uint256)50_storage"},{"astId":52863,"contract":"pkg/contracts/src/SafeArbitrator.sol:SafeArbitrator","label":"_owner","offset":0,"slot":"51","type":"t_address"},{"astId":52983,"contract":"pkg/contracts/src/SafeArbitrator.sol:SafeArbitrator","label":"__gap","offset":0,"slot":"52","type":"t_array(t_uint256)49_storage"},{"astId":80257,"contract":"pkg/contracts/src/SafeArbitrator.sol:SafeArbitrator","label":"arbitrationFee","offset":0,"slot":"101","type":"t_uint256"},{"astId":80261,"contract":"pkg/contracts/src/SafeArbitrator.sol:SafeArbitrator","label":"disputes","offset":0,"slot":"102","type":"t_array(t_struct(DisputeStruct)80255_storage)dyn_storage"},{"astId":80265,"contract":"pkg/contracts/src/SafeArbitrator.sol:SafeArbitrator","label":"arbitrableTribunalSafe","offset":0,"slot":"103","type":"t_mapping(t_address,t_address)"},{"astId":80571,"contract":"pkg/contracts/src/SafeArbitrator.sol:SafeArbitrator","label":"__gap","offset":0,"slot":"104","type":"t_array(t_uint256)50_storage"}],"types":{"t_address":{"encoding":"inplace","label":"address","numberOfBytes":"20"},"t_array(t_struct(DisputeStruct)80255_storage)dyn_storage":{"encoding":"dynamic_array","label":"struct SafeArbitrator.DisputeStruct[]","numberOfBytes":"32","base":"t_struct(DisputeStruct)80255_storage"},"t_array(t_uint256)49_storage":{"encoding":"inplace","label":"uint256[49]","numberOfBytes":"1568","base":"t_uint256"},"t_array(t_uint256)50_storage":{"encoding":"inplace","label":"uint256[50]","numberOfBytes":"1600","base":"t_uint256"},"t_bool":{"encoding":"inplace","label":"bool","numberOfBytes":"1"},"t_bytes_storage":{"encoding":"bytes","label":"bytes","numberOfBytes":"32"},"t_contract(IArbitrable)80650":{"encoding":"inplace","label":"contract IArbitrable","numberOfBytes":"20"},"t_enum(DisputeStatus)80240":{"encoding":"inplace","label":"enum SafeArbitrator.DisputeStatus","numberOfBytes":"1"},"t_mapping(t_address,t_address)":{"encoding":"mapping","key":"t_address","label":"mapping(address => address)","numberOfBytes":"32","value":"t_address"},"t_struct(DisputeStruct)80255_storage":{"encoding":"inplace","label":"struct SafeArbitrator.DisputeStruct","numberOfBytes":"192","members":[{"astId":80243,"contract":"pkg/contracts/src/SafeArbitrator.sol:SafeArbitrator","label":"arbitrated","offset":0,"slot":"0","type":"t_contract(IArbitrable)80650"},{"astId":80245,"contract":"pkg/contracts/src/SafeArbitrator.sol:SafeArbitrator","label":"arbitratorExtraData","offset":0,"slot":"1","type":"t_bytes_storage"},{"astId":80247,"contract":"pkg/contracts/src/SafeArbitrator.sol:SafeArbitrator","label":"choices","offset":0,"slot":"2","type":"t_uint256"},{"astId":80249,"contract":"pkg/contracts/src/SafeArbitrator.sol:SafeArbitrator","label":"arbitrationFee","offset":0,"slot":"3","type":"t_uint256"},{"astId":80251,"contract":"pkg/contracts/src/SafeArbitrator.sol:SafeArbitrator","label":"ruling","offset":0,"slot":"4","type":"t_uint256"},{"astId":80254,"contract":"pkg/contracts/src/SafeArbitrator.sol:SafeArbitrator","label":"status","offset":0,"slot":"5","type":"t_enum(DisputeStatus)80240"}]},"t_uint256":{"encoding":"inplace","label":"uint256","numberOfBytes":"32"},"t_uint8":{"encoding":"inplace","label":"uint8","numberOfBytes":"1"}}},"id":122}