{"abi":[{"type":"function","name":"arbitrableTribunalSafe","inputs":[{"name":"arbitrable","type":"address","internalType":"address"}],"outputs":[{"name":"safe","type":"address","internalType":"address"}],"stateMutability":"view"},{"type":"function","name":"arbitrationCost","inputs":[{"name":"","type":"bytes","internalType":"bytes"},{"name":"","type":"address","internalType":"contract IERC20"}],"outputs":[{"name":"","type":"uint256","internalType":"uint256"}],"stateMutability":"pure"},{"type":"function","name":"arbitrationCost","inputs":[{"name":"","type":"bytes","internalType":"bytes"}],"outputs":[{"name":"fee","type":"uint256","internalType":"uint256"}],"stateMutability":"view"},{"type":"function","name":"createDispute","inputs":[{"name":"_choices","type":"uint256","internalType":"uint256"},{"name":"_extraData","type":"bytes","internalType":"bytes"}],"outputs":[{"name":"disputeID","type":"uint256","internalType":"uint256"}],"stateMutability":"payable"},{"type":"function","name":"createDispute","inputs":[{"name":"","type":"uint256","internalType":"uint256"},{"name":"","type":"bytes","internalType":"bytes"},{"name":"","type":"address","internalType":"contract IERC20"},{"name":"","type":"uint256","internalType":"uint256"}],"outputs":[{"name":"","type":"uint256","internalType":"uint256"}],"stateMutability":"pure"},{"type":"function","name":"currentRuling","inputs":[{"name":"_disputeID","type":"uint256","internalType":"uint256"}],"outputs":[{"name":"ruling","type":"uint256","internalType":"uint256"},{"name":"tied","type":"bool","internalType":"bool"},{"name":"overridden","type":"bool","internalType":"bool"}],"stateMutability":"view"},{"type":"function","name":"disputes","inputs":[{"name":"","type":"uint256","internalType":"uint256"}],"outputs":[{"name":"arbitrated","type":"address","internalType":"contract IArbitrable"},{"name":"arbitratorExtraData","type":"bytes","internalType":"bytes"},{"name":"choices","type":"uint256","internalType":"uint256"},{"name":"arbitrationFee","type":"uint256","internalType":"uint256"},{"name":"ruling","type":"uint256","internalType":"uint256"},{"name":"status","type":"uint8","internalType":"enum SafeArbitrator.DisputeStatus"},{"name":"tribunalSafe","type":"address","internalType":"address"}],"stateMutability":"view"},{"type":"function","name":"executeRuling","inputs":[{"name":"_disputeID","type":"uint256","internalType":"uint256"},{"name":"_ruling","type":"uint256","internalType":"uint256"},{"name":"_arbitrable","type":"address","internalType":"address"}],"outputs":[],"stateMutability":"nonpayable"},{"type":"function","name":"initialize","inputs":[{"name":"initialOwner","type":"address","internalType":"address"}],"outputs":[],"stateMutability":"nonpayable"},{"type":"function","name":"initialize","inputs":[{"name":"_arbitrationFee","type":"uint256","internalType":"uint256"},{"name":"_owner","type":"address","internalType":"address"}],"outputs":[],"stateMutability":"nonpayable"},{"type":"function","name":"owner","inputs":[],"outputs":[{"name":"","type":"address","internalType":"address"}],"stateMutability":"view"},{"type":"function","name":"proxiableUUID","inputs":[],"outputs":[{"name":"","type":"bytes32","internalType":"bytes32"}],"stateMutability":"view"},{"type":"function","name":"proxyOwner","inputs":[],"outputs":[{"name":"","type":"address","internalType":"address"}],"stateMutability":"view"},{"type":"function","name":"registerSafe","inputs":[{"name":"_safe","type":"address","internalType":"address"}],"outputs":[],"stateMutability":"nonpayable"},{"type":"function","name":"renounceOwnership","inputs":[],"outputs":[],"stateMutability":"nonpayable"},{"type":"function","name":"setArbitrationFee","inputs":[{"name":"_arbitrationFee","type":"uint256","internalType":"uint256"}],"outputs":[],"stateMutability":"nonpayable"},{"type":"function","name":"transferOwnership","inputs":[{"name":"newOwner","type":"address","internalType":"address"}],"outputs":[],"stateMutability":"nonpayable"},{"type":"function","name":"upgradeTo","inputs":[{"name":"newImplementation","type":"address","internalType":"address"}],"outputs":[],"stateMutability":"nonpayable"},{"type":"function","name":"upgradeToAndCall","inputs":[{"name":"newImplementation","type":"address","internalType":"address"},{"name":"data","type":"bytes","internalType":"bytes"}],"outputs":[],"stateMutability":"payable"},{"type":"event","name":"AcceptedFeeToken","inputs":[{"name":"_token","type":"address","indexed":true,"internalType":"contract IERC20"},{"name":"_accepted","type":"bool","indexed":true,"internalType":"bool"}],"anonymous":false},{"type":"event","name":"AdminChanged","inputs":[{"name":"previousAdmin","type":"address","indexed":false,"internalType":"address"},{"name":"newAdmin","type":"address","indexed":false,"internalType":"address"}],"anonymous":false},{"type":"event","name":"ArbitrationFeeUpdated","inputs":[{"name":"_newArbitrationFee","type":"uint256","indexed":false,"internalType":"uint256"}],"anonymous":false},{"type":"event","name":"BeaconUpgraded","inputs":[{"name":"beacon","type":"address","indexed":true,"internalType":"address"}],"anonymous":false},{"type":"event","name":"DisputeCreation","inputs":[{"name":"_disputeID","type":"uint256","indexed":true,"internalType":"uint256"},{"name":"_arbitrable","type":"address","indexed":true,"internalType":"contract IArbitrable"}],"anonymous":false},{"type":"event","name":"Initialized","inputs":[{"name":"version","type":"uint8","indexed":false,"internalType":"uint8"}],"anonymous":false},{"type":"event","name":"NewCurrencyRate","inputs":[{"name":"_feeToken","type":"address","indexed":true,"internalType":"contract IERC20"},{"name":"_rateInEth","type":"uint64","indexed":false,"internalType":"uint64"},{"name":"_rateDecimals","type":"uint8","indexed":false,"internalType":"uint8"}],"anonymous":false},{"type":"event","name":"OwnershipTransferred","inputs":[{"name":"previousOwner","type":"address","indexed":true,"internalType":"address"},{"name":"newOwner","type":"address","indexed":true,"internalType":"address"}],"anonymous":false},{"type":"event","name":"Ruling","inputs":[{"name":"_arbitrable","type":"address","indexed":true,"internalType":"contract IArbitrable"},{"name":"_disputeID","type":"uint256","indexed":true,"internalType":"uint256"},{"name":"_ruling","type":"uint256","indexed":false,"internalType":"uint256"}],"anonymous":false},{"type":"event","name":"SafeArbitratorInitialized","inputs":[{"name":"_arbitrationFee","type":"uint256","indexed":false,"internalType":"uint256"}],"anonymous":false},{"type":"event","name":"SafeRegistered","inputs":[{"name":"_arbitrable","type":"address","indexed":true,"internalType":"address"},{"name":"_safe","type":"address","indexed":false,"internalType":"address"}],"anonymous":false},{"type":"event","name":"Upgraded","inputs":[{"name":"implementation","type":"address","indexed":true,"internalType":"address"}],"anonymous":false},{"type":"error","name":"CallerNotOwner","inputs":[{"name":"_caller","type":"address","internalType":"address"},{"name":"_owner","type":"address","internalType":"address"}]},{"type":"error","name":"DisputeAlreadySolved","inputs":[]},{"type":"error","name":"InvalidRuling","inputs":[]},{"type":"error","name":"NotEnoughArbitrationFees","inputs":[]},{"type":"error","name":"OnlySafe","inputs":[{"name":"sender","type":"address","internalType":"address"},{"name":"safe","type":"address","internalType":"address"}]}],"bytecode":{"object":"0x60a06040523060805234801561001457600080fd5b50608051611b5161004c600039600081816103c9015281816104120152818161049a015281816104da01526105560152611b516000f3fe6080604052600436106100e45760003560e01c8063025313a2146100e95780631c3db16d1461011457806326a0754c146101515780633659cfe6146101875780634f1ef286146101a957806352d1902d146101bc578063564a565d146101df5780635ea7b4fc14610212578063715018a6146102325780637a1d37561461024757806388d5b732146102675780638da5cb5b14610287578063c13517e11461029c578063c4d66de8146102af578063d98493f6146102cf578063da35a26f146102ef578063f2fde38b1461030f578063f6506db41461032f578063f7434ea91461034a575b600080fd5b3480156100f557600080fd5b506100fe61036d565b60405161010b91906113f7565b60405180910390f35b34801561012057600080fd5b5061013461012f36600461140b565b610386565b60408051938452911515602084015215159082015260600161010b565b34801561015d57600080fd5b506100fe61016c366004611439565b609a602052600090815260409020546001600160a01b031681565b34801561019357600080fd5b506101a76101a2366004611439565b6103bf565b005b6101a76101b736600461146c565b610490565b3480156101c857600080fd5b506101d1610549565b60405190815260200161010b565b3480156101eb57600080fd5b506101ff6101fa36600461140b565b6105f7565b60405161010b9796959493929190611595565b34801561021e57600080fd5b506101a761022d36600461140b565b6106e5565b34801561023e57600080fd5b506101a7610728565b34801561025357600080fd5b506101a7610262366004611604565b61073c565b34801561027357600080fd5b506101a7610282366004611439565b61097a565b34801561029357600080fd5b506100fe6109dd565b6101d16102aa366004611685565b610a72565b3480156102bb57600080fd5b506101a76102ca366004611439565b610c44565b3480156102db57600080fd5b506101d16102ea3660046116d0565b610c74565b3480156102fb57600080fd5b506101a761030a36600461171b565b610caf565b34801561031b57600080fd5b506101a761032a366004611439565b610e0a565b34801561033b57600080fd5b506101d16102ea36600461174b565b34801561035657600080fd5b506101d16103653660046117b1565b505060975490565b60006103816033546001600160a01b031690565b905090565b6000806000806098858154811061039f5761039f6117f2565b600091825260208220600460069092020101549690955085945092505050565b6001600160a01b037f00000000000000000000000000000000000000000000000000000000000000001630036104105760405162461bcd60e51b815260040161040790611808565b60405180910390fd5b7f00000000000000000000000000000000000000000000000000000000000000006001600160a01b0316610442610e77565b6001600160a01b0316146104685760405162461bcd60e51b815260040161040790611842565b61047181610e93565b6040805160008082526020820190925261048d91839190610ece565b50565b6001600160a01b037f00000000000000000000000000000000000000000000000000000000000000001630036104d85760405162461bcd60e51b815260040161040790611808565b7f00000000000000000000000000000000000000000000000000000000000000006001600160a01b031661050a610e77565b6001600160a01b0316146105305760405162461bcd60e51b815260040161040790611842565b61053982610e93565b61054582826001610ece565b5050565b6000306001600160a01b037f000000000000000000000000000000000000000000000000000000000000000016146105e45760405162461bcd60e51b815260206004820152603860248201527f555550535570677261646561626c653a206d757374206e6f742062652063616c6044820152771b1959081d1a1c9bdd59da0819195b1959d85d1958d85b1b60421b6064820152608401610407565b50600080516020611ad583398151915290565b6098818154811061060757600080fd5b6000918252602090912060069091020180546001820180546001600160a01b039092169350906106369061187c565b80601f01602080910402602001604051908101604052809291908181526020018280546106629061187c565b80156106af5780601f10610684576101008083540402835291602001916106af565b820191906000526020600020905b81548152906001019060200180831161069257829003601f168201915b505050506002830154600384015460048501546005909501549394919390925060ff81169061010090046001600160a01b031687565b6106ed611039565b60978190556040518181527fb1484c2bf00d94a00783b6081ebc5f5d02be4675f6eb8cf4c0c95bfe5a3f06ed9060200160405180910390a150565b610730611039565b61073a6000611098565b565b82600060988281548110610752576107526117f2565b600091825260209091206006909102016005015461010090046001600160a01b031690503381900361095657600060988681548110610793576107936117f2565b9060005260206000209060060201905080600201548511156107c8576040516309efd47960e41b815260040160405180910390fd5b6001600582015460ff1660018111156107e3576107e361157f565b036108015760405163bda17d9560e01b815260040160405180910390fd5b6004810185905560058101805460ff19166001179055600381015460405160009133918381818185875af1925050503d806000811461085c576040519150601f19603f3d011682016040523d82523d6000602084013e610861565b606091505b50509050806108a45760405162461bcd60e51b815260206004820152600f60248201526e151c985b9cd9995c8819985a5b1959608a1b6044820152606401610407565b815460048084015460405163188d362b60e11b81529182018a905260248201526001600160a01b039091169063311a6c5690604401600060405180830381600087803b1580156108f357600080fd5b505af1158015610907573d6000803e3d6000fd5b5050505086856001600160a01b03167f394027a5fa6e098a1191094d1719d6929b9abc535fcc0c8f448d6a4e756222768860405161094791815260200190565b60405180910390a35050610973565b338160405163d0774c9960e01b81526004016104079291906118b6565b5050505050565b336000818152609a60205260409081902080546001600160a01b0319166001600160a01b038516179055517f2b87bb26d58aa2d56b59c2b23a53a6959f68d4547492bda44fb5e68b0fa38b3f906109d29084906113f7565b60405180910390a250565b60006109e761036d565b6001600160a01b03163b600003610a005761038161036d565b610a0861036d565b6001600160a01b0316638da5cb5b6040518163ffffffff1660e01b8152600401602060405180830381865afa925050508015610a61575060408051601f3d908101601f19168201909252610a5e918101906118d0565b60015b610a6d5761038161036d565b919050565b6000610a7c6110ea565b609754341015610a9f5760405163e4216b3160e01b815260040160405180910390fd5b60998054906000610aaf836118ed565b9190505550609954905060986040518060e00160405280336001600160a01b0316815260200185858080601f016020809104026020016040519081016040528093929190818152602001838380828437600092018290525093855250505060208201889052346040830152606082018190526080909101908152336000908152609a602090815260408220546001600160a01b039081169382019390935284546001808201875595835291819020845160069093020180546001600160a01b031916929093169190911782558201519192909190820190610b909082611962565b5060408201516002820155606082015160038201556080820151600482015560a082015160058201805460ff191660018381811115610bd157610bd161157f565b021790555060c09190910151600590910180546001600160a01b0390921661010002610100600160a81b0319909216919091179055604051339082907f141dfc18aa6a56fc816f44f0e9e2f1ebc92b15ab167770e17db5b084c10ed99590600090a3610c3d6001606555565b9392505050565b600054610100900460ff16610c6b5760405162461bcd60e51b815260040161040790611a21565b61048d81611098565b60405162461bcd60e51b815260206004820152600d60248201526c139bdd081cdd5c1c1bdc9d1959609a1b6044820152600090606401610407565b600054610100900460ff1615808015610ccf5750600054600160ff909116105b80610cf05750610cde30611143565b158015610cf0575060005460ff166001145b610d535760405162461bcd60e51b815260206004820152602e60248201527f496e697469616c697a61626c653a20636f6e747261637420697320616c72656160448201526d191e481a5b9a5d1a585b1a5e995960921b6064820152608401610407565b6000805460ff191660011790558015610d76576000805461ff0019166101001790555b610d7f82610c44565b610d87611152565b60978390556040518381527fc05490fc8f8e095831ea3823f005dd0661528380328aa5c3b7348a45244223be9060200160405180910390a18015610e05576000805461ff0019169055604051600181527f7f26b83ff96e1f2b6a682f133852f6798a09c465da95921460cefb38474024989060200160405180910390a15b505050565b610e12611039565b6001600160a01b038116610c6b5760405162461bcd60e51b815260206004820152602660248201527f4f776e61626c653a206e6577206f776e657220697320746865207a65726f206160448201526564647265737360d01b6064820152608401610407565b600080516020611ad5833981519152546001600160a01b031690565b33610e9c6109dd565b6001600160a01b03161461048d5733610eb36109dd565b60405163163678e960e01b81526004016104079291906118b6565b7f4910fdfa16fed3260ed0e7147f7cc6da11a60208b5b9406d12a635614ffd91435460ff1615610f0157610e0583611181565b826001600160a01b03166352d1902d6040518163ffffffff1660e01b8152600401602060405180830381865afa925050508015610f5b575060408051601f3d908101601f19168201909252610f5891810190611a6c565b60015b610fbe5760405162461bcd60e51b815260206004820152602e60248201527f45524331393637557067726164653a206e657720696d706c656d656e7461746960448201526d6f6e206973206e6f74205555505360901b6064820152608401610407565b600080516020611ad5833981519152811461102d5760405162461bcd60e51b815260206004820152602960248201527f45524331393637557067726164653a20756e737570706f727465642070726f786044820152681a58589b195555525160ba1b6064820152608401610407565b50610e0583838361121b565b336110426109dd565b6001600160a01b03161461073a5760405162461bcd60e51b815260206004820181905260248201527f4f776e61626c653a2063616c6c6572206973206e6f7420746865206f776e65726044820152606401610407565b603380546001600160a01b038381166001600160a01b0319831681179093556040519116919082907f8be0079c531659141344cd1fd0a4f28419497f9722a3daafe3b4186f6b6457e090600090a35050565b60026065540361113c5760405162461bcd60e51b815260206004820152601f60248201527f5265656e7472616e637947756172643a207265656e7472616e742063616c6c006044820152606401610407565b6002606555565b6001600160a01b03163b151590565b600054610100900460ff166111795760405162461bcd60e51b815260040161040790611a21565b61073a611246565b61118a81611143565b6111ec5760405162461bcd60e51b815260206004820152602d60248201527f455243313936373a206e657720696d706c656d656e746174696f6e206973206e60448201526c1bdd08184818dbdb9d1c9858dd609a1b6064820152608401610407565b600080516020611ad583398151915280546001600160a01b0319166001600160a01b0392909216919091179055565b61122483611276565b6000825111806112315750805b15610e055761124083836112b6565b50505050565b600054610100900460ff1661126d5760405162461bcd60e51b815260040161040790611a21565b61073a33611098565b61127f81611181565b6040516001600160a01b038216907fbc7cd75a20ee27fd9adebab32041f755214dbc6bffa90cc0225b39da2e5c2d3b90600090a250565b6060610c3d8383604051806060016040528060278152602001611af5602791396060600080856001600160a01b0316856040516112f39190611a85565b600060405180830381855af49150503d806000811461132e576040519150601f19603f3d011682016040523d82523d6000602084013e611333565b606091505b50915091506113448683838761134e565b9695505050505050565b606083156113bb5782516000036113b45761136885611143565b6113b45760405162461bcd60e51b815260206004820152601d60248201527f416464726573733a2063616c6c20746f206e6f6e2d636f6e74726163740000006044820152606401610407565b50816113c5565b6113c583836113cd565b949350505050565b8151156113dd5781518083602001fd5b8060405162461bcd60e51b81526004016104079190611aa1565b6001600160a01b0391909116815260200190565b60006020828403121561141d57600080fd5b5035919050565b6001600160a01b038116811461048d57600080fd5b60006020828403121561144b57600080fd5b8135610c3d81611424565b634e487b7160e01b600052604160045260246000fd5b6000806040838503121561147f57600080fd5b823561148a81611424565b915060208301356001600160401b03808211156114a657600080fd5b818501915085601f8301126114ba57600080fd5b8135818111156114cc576114cc611456565b604051601f8201601f19908116603f011681019083821181831017156114f4576114f4611456565b8160405282815288602084870101111561150d57600080fd5b8260208601602083013760006020848301015280955050505050509250929050565b60005b8381101561154a578181015183820152602001611532565b50506000910152565b6000815180845261156b81602086016020860161152f565b601f01601f19169290920160200192915050565b634e487b7160e01b600052602160045260246000fd5b600060018060a01b03808a16835260e060208401526115b760e084018a611553565b9150876040840152866060840152856080840152600285106115e957634e487b7160e01b600052602160045260246000fd5b8460a084015280841660c08401525098975050505050505050565b60008060006060848603121561161957600080fd5b8335925060208401359150604084013561163281611424565b809150509250925092565b60008083601f84011261164f57600080fd5b5081356001600160401b0381111561166657600080fd5b60208301915083602082850101111561167e57600080fd5b9250929050565b60008060006040848603121561169a57600080fd5b8335925060208401356001600160401b038111156116b757600080fd5b6116c38682870161163d565b9497909650939450505050565b6000806000604084860312156116e557600080fd5b83356001600160401b038111156116fb57600080fd5b6117078682870161163d565b909450925050602084013561163281611424565b6000806040838503121561172e57600080fd5b82359150602083013561174081611424565b809150509250929050565b60008060008060006080868803121561176357600080fd5b8535945060208601356001600160401b0381111561178057600080fd5b61178c8882890161163d565b90955093505060408601356117a081611424565b949793965091946060013592915050565b600080602083850312156117c457600080fd5b82356001600160401b038111156117da57600080fd5b6117e68582860161163d565b90969095509350505050565b634e487b7160e01b600052603260045260246000fd5b6020808252602c90820152600080516020611ab583398151915260408201526b19195b1959d85d1958d85b1b60a21b606082015260800190565b6020808252602c90820152600080516020611ab583398151915260408201526b6163746976652070726f787960a01b606082015260800190565b600181811c9082168061189057607f821691505b6020821081036118b057634e487b7160e01b600052602260045260246000fd5b50919050565b6001600160a01b0392831681529116602082015260400190565b6000602082840312156118e257600080fd5b8151610c3d81611424565b60006001820161190d57634e487b7160e01b600052601160045260246000fd5b5060010190565b601f821115610e0557600081815260208120601f850160051c8101602086101561193b5750805b601f850160051c820191505b8181101561195a57828155600101611947565b505050505050565b81516001600160401b0381111561197b5761197b611456565b61198f81611989845461187c565b84611914565b602080601f8311600181146119c457600084156119ac5750858301515b600019600386901b1c1916600185901b17855561195a565b600085815260208120601f198616915b828110156119f3578886015182559484019460019091019084016119d4565b5085821015611a115787850151600019600388901b60f8161c191681555b5050505050600190811b01905550565b6020808252602b908201527f496e697469616c697a61626c653a20636f6e7472616374206973206e6f74206960408201526a6e697469616c697a696e6760a81b606082015260800190565b600060208284031215611a7e57600080fd5b5051919050565b60008251611a9781846020870161152f565b9190910192915050565b602081526000610c3d602083018461155356fe46756e6374696f6e206d7573742062652063616c6c6564207468726f75676820360894a13ba1a3210667c828492db98dca3e2076cc3735a920a3ca505d382bbc416464726573733a206c6f772d6c6576656c2064656c65676174652063616c6c206661696c6564a264697066735822122071ea2d0da2560aed1aa7b10942ecd37241a97a0cf9fd480534cd6069f7730ed164736f6c63430008130033","linkReferences":{}},"methodIdentifiers":{"arbitrableTribunalSafe(address)":"26a0754c","arbitrationCost(bytes)":"f7434ea9","arbitrationCost(bytes,address)":"d98493f6","createDispute(uint256,bytes)":"c13517e1","createDispute(uint256,bytes,address,uint256)":"f6506db4","currentRuling(uint256)":"1c3db16d","disputes(uint256)":"564a565d","executeRuling(uint256,uint256,address)":"7a1d3756","initialize(address)":"c4d66de8","initialize(uint256,address)":"da35a26f","owner()":"8da5cb5b","proxiableUUID()":"52d1902d","proxyOwner()":"025313a2","registerSafe(address)":"88d5b732","renounceOwnership()":"715018a6","setArbitrationFee(uint256)":"5ea7b4fc","transferOwnership(address)":"f2fde38b","upgradeTo(address)":"3659cfe6","upgradeToAndCall(address,bytes)":"4f1ef286"},"storageLayout":{"storage":[{"astId":53071,"contract":"pkg/contracts/src/SafeArbitrator.sol:SafeArbitrator","label":"_initialized","offset":0,"slot":"0","type":"t_uint8"},{"astId":53074,"contract":"pkg/contracts/src/SafeArbitrator.sol:SafeArbitrator","label":"_initializing","offset":1,"slot":"0","type":"t_bool"},{"astId":53776,"contract":"pkg/contracts/src/SafeArbitrator.sol:SafeArbitrator","label":"__gap","offset":0,"slot":"1","type":"t_array(t_uint256)50_storage"},{"astId":52863,"contract":"pkg/contracts/src/SafeArbitrator.sol:SafeArbitrator","label":"_owner","offset":0,"slot":"51","type":"t_address"},{"astId":52983,"contract":"pkg/contracts/src/SafeArbitrator.sol:SafeArbitrator","label":"__gap","offset":0,"slot":"52","type":"t_array(t_uint256)49_storage"},{"astId":53248,"contract":"pkg/contracts/src/SafeArbitrator.sol:SafeArbitrator","label":"_status","offset":0,"slot":"101","type":"t_uint256"},{"astId":53317,"contract":"pkg/contracts/src/SafeArbitrator.sol:SafeArbitrator","label":"__gap","offset":0,"slot":"102","type":"t_array(t_uint256)49_storage"},{"astId":79249,"contract":"pkg/contracts/src/SafeArbitrator.sol:SafeArbitrator","label":"arbitrationFee","offset":0,"slot":"151","type":"t_uint256"},{"astId":79253,"contract":"pkg/contracts/src/SafeArbitrator.sol:SafeArbitrator","label":"disputes","offset":0,"slot":"152","type":"t_array(t_struct(DisputeStruct)79247_storage)dyn_storage"},{"astId":79255,"contract":"pkg/contracts/src/SafeArbitrator.sol:SafeArbitrator","label":"lastDisputeID","offset":0,"slot":"153","type":"t_uint256"},{"astId":79259,"contract":"pkg/contracts/src/SafeArbitrator.sol:SafeArbitrator","label":"arbitrableTribunalSafe","offset":0,"slot":"154","type":"t_mapping(t_address,t_address)"},{"astId":79598,"contract":"pkg/contracts/src/SafeArbitrator.sol:SafeArbitrator","label":"__gap","offset":0,"slot":"155","type":"t_array(t_uint256)50_storage"}],"types":{"t_address":{"encoding":"inplace","label":"address","numberOfBytes":"20"},"t_array(t_struct(DisputeStruct)79247_storage)dyn_storage":{"encoding":"dynamic_array","label":"struct SafeArbitrator.DisputeStruct[]","numberOfBytes":"32","base":"t_struct(DisputeStruct)79247_storage"},"t_array(t_uint256)49_storage":{"encoding":"inplace","label":"uint256[49]","numberOfBytes":"1568","base":"t_uint256"},"t_array(t_uint256)50_storage":{"encoding":"inplace","label":"uint256[50]","numberOfBytes":"1600","base":"t_uint256"},"t_bool":{"encoding":"inplace","label":"bool","numberOfBytes":"1"},"t_bytes_storage":{"encoding":"bytes","label":"bytes","numberOfBytes":"32"},"t_contract(IArbitrable)82017":{"encoding":"inplace","label":"contract IArbitrable","numberOfBytes":"20"},"t_enum(DisputeStatus)79230":{"encoding":"inplace","label":"enum SafeArbitrator.DisputeStatus","numberOfBytes":"1"},"t_mapping(t_address,t_address)":{"encoding":"mapping","key":"t_address","label":"mapping(address => address)","numberOfBytes":"32","value":"t_address"},"t_struct(DisputeStruct)79247_storage":{"encoding":"inplace","label":"struct SafeArbitrator.DisputeStruct","numberOfBytes":"192","members":[{"astId":79233,"contract":"pkg/contracts/src/SafeArbitrator.sol:SafeArbitrator","label":"arbitrated","offset":0,"slot":"0","type":"t_contract(IArbitrable)82017"},{"astId":79235,"contract":"pkg/contracts/src/SafeArbitrator.sol:SafeArbitrator","label":"arbitratorExtraData","offset":0,"slot":"1","type":"t_bytes_storage"},{"astId":79237,"contract":"pkg/contracts/src/SafeArbitrator.sol:SafeArbitrator","label":"choices","offset":0,"slot":"2","type":"t_uint256"},{"astId":79239,"contract":"pkg/contracts/src/SafeArbitrator.sol:SafeArbitrator","label":"arbitrationFee","offset":0,"slot":"3","type":"t_uint256"},{"astId":79241,"contract":"pkg/contracts/src/SafeArbitrator.sol:SafeArbitrator","label":"ruling","offset":0,"slot":"4","type":"t_uint256"},{"astId":79244,"contract":"pkg/contracts/src/SafeArbitrator.sol:SafeArbitrator","label":"status","offset":0,"slot":"5","type":"t_enum(DisputeStatus)79230"},{"astId":79246,"contract":"pkg/contracts/src/SafeArbitrator.sol:SafeArbitrator","label":"tribunalSafe","offset":1,"slot":"5","type":"t_address"}]},"t_uint256":{"encoding":"inplace","label":"uint256","numberOfBytes":"32"},"t_uint8":{"encoding":"inplace","label":"uint8","numberOfBytes":"1"}}},"id":127}