{"abi":[{"type":"function","name":"arbitrableTribunalSafe","inputs":[{"name":"arbitrable","type":"address","internalType":"address"}],"outputs":[{"name":"safe","type":"address","internalType":"address"}],"stateMutability":"view"},{"type":"function","name":"arbitrationCost","inputs":[{"name":"","type":"bytes","internalType":"bytes"},{"name":"","type":"address","internalType":"contract IERC20"}],"outputs":[{"name":"","type":"uint256","internalType":"uint256"}],"stateMutability":"pure"},{"type":"function","name":"arbitrationCost","inputs":[{"name":"","type":"bytes","internalType":"bytes"}],"outputs":[{"name":"fee","type":"uint256","internalType":"uint256"}],"stateMutability":"view"},{"type":"function","name":"createDispute","inputs":[{"name":"_choices","type":"uint256","internalType":"uint256"},{"name":"_extraData","type":"bytes","internalType":"bytes"}],"outputs":[{"name":"disputeID","type":"uint256","internalType":"uint256"}],"stateMutability":"payable"},{"type":"function","name":"createDispute","inputs":[{"name":"","type":"uint256","internalType":"uint256"},{"name":"","type":"bytes","internalType":"bytes"},{"name":"","type":"address","internalType":"contract IERC20"},{"name":"","type":"uint256","internalType":"uint256"}],"outputs":[{"name":"","type":"uint256","internalType":"uint256"}],"stateMutability":"pure"},{"type":"function","name":"currentRuling","inputs":[{"name":"_disputeID","type":"uint256","internalType":"uint256"}],"outputs":[{"name":"ruling","type":"uint256","internalType":"uint256"},{"name":"tied","type":"bool","internalType":"bool"},{"name":"overridden","type":"bool","internalType":"bool"}],"stateMutability":"view"},{"type":"function","name":"disputes","inputs":[{"name":"","type":"uint256","internalType":"uint256"}],"outputs":[{"name":"arbitrated","type":"address","internalType":"contract IArbitrable"},{"name":"arbitratorExtraData","type":"bytes","internalType":"bytes"},{"name":"choices","type":"uint256","internalType":"uint256"},{"name":"arbitrationFee","type":"uint256","internalType":"uint256"},{"name":"ruling","type":"uint256","internalType":"uint256"},{"name":"status","type":"uint8","internalType":"enum SafeArbitrator.DisputeStatus"},{"name":"tribunalSafe","type":"address","internalType":"address"}],"stateMutability":"view"},{"type":"function","name":"executeRuling","inputs":[{"name":"_disputeID","type":"uint256","internalType":"uint256"},{"name":"_ruling","type":"uint256","internalType":"uint256"},{"name":"_arbitrable","type":"address","internalType":"address"}],"outputs":[],"stateMutability":"nonpayable"},{"type":"function","name":"initialize","inputs":[{"name":"initialOwner","type":"address","internalType":"address"}],"outputs":[],"stateMutability":"nonpayable"},{"type":"function","name":"initialize","inputs":[{"name":"_arbitrationFee","type":"uint256","internalType":"uint256"},{"name":"_owner","type":"address","internalType":"address"}],"outputs":[],"stateMutability":"nonpayable"},{"type":"function","name":"owner","inputs":[],"outputs":[{"name":"","type":"address","internalType":"address"}],"stateMutability":"view"},{"type":"function","name":"proxiableUUID","inputs":[],"outputs":[{"name":"","type":"bytes32","internalType":"bytes32"}],"stateMutability":"view"},{"type":"function","name":"proxyOwner","inputs":[],"outputs":[{"name":"","type":"address","internalType":"address"}],"stateMutability":"view"},{"type":"function","name":"registerSafe","inputs":[{"name":"_safe","type":"address","internalType":"address"}],"outputs":[],"stateMutability":"nonpayable"},{"type":"function","name":"renounceOwnership","inputs":[],"outputs":[],"stateMutability":"nonpayable"},{"type":"function","name":"setArbitrationFee","inputs":[{"name":"_arbitrationFee","type":"uint256","internalType":"uint256"}],"outputs":[],"stateMutability":"nonpayable"},{"type":"function","name":"transferOwnership","inputs":[{"name":"newOwner","type":"address","internalType":"address"}],"outputs":[],"stateMutability":"nonpayable"},{"type":"function","name":"upgradeTo","inputs":[{"name":"newImplementation","type":"address","internalType":"address"}],"outputs":[],"stateMutability":"nonpayable"},{"type":"function","name":"upgradeToAndCall","inputs":[{"name":"newImplementation","type":"address","internalType":"address"},{"name":"data","type":"bytes","internalType":"bytes"}],"outputs":[],"stateMutability":"payable"},{"type":"event","name":"AcceptedFeeToken","inputs":[{"name":"_token","type":"address","indexed":true,"internalType":"contract IERC20"},{"name":"_accepted","type":"bool","indexed":true,"internalType":"bool"}],"anonymous":false},{"type":"event","name":"AdminChanged","inputs":[{"name":"previousAdmin","type":"address","indexed":false,"internalType":"address"},{"name":"newAdmin","type":"address","indexed":false,"internalType":"address"}],"anonymous":false},{"type":"event","name":"ArbitrationFeeUpdated","inputs":[{"name":"_newArbitrationFee","type":"uint256","indexed":false,"internalType":"uint256"}],"anonymous":false},{"type":"event","name":"BeaconUpgraded","inputs":[{"name":"beacon","type":"address","indexed":true,"internalType":"address"}],"anonymous":false},{"type":"event","name":"DisputeCreation","inputs":[{"name":"_disputeID","type":"uint256","indexed":true,"internalType":"uint256"},{"name":"_arbitrable","type":"address","indexed":true,"internalType":"contract IArbitrable"}],"anonymous":false},{"type":"event","name":"Initialized","inputs":[{"name":"version","type":"uint8","indexed":false,"internalType":"uint8"}],"anonymous":false},{"type":"event","name":"NewCurrencyRate","inputs":[{"name":"_feeToken","type":"address","indexed":true,"internalType":"contract IERC20"},{"name":"_rateInEth","type":"uint64","indexed":false,"internalType":"uint64"},{"name":"_rateDecimals","type":"uint8","indexed":false,"internalType":"uint8"}],"anonymous":false},{"type":"event","name":"OwnershipTransferred","inputs":[{"name":"previousOwner","type":"address","indexed":true,"internalType":"address"},{"name":"newOwner","type":"address","indexed":true,"internalType":"address"}],"anonymous":false},{"type":"event","name":"Ruling","inputs":[{"name":"_arbitrable","type":"address","indexed":true,"internalType":"contract IArbitrable"},{"name":"_disputeID","type":"uint256","indexed":true,"internalType":"uint256"},{"name":"_ruling","type":"uint256","indexed":false,"internalType":"uint256"}],"anonymous":false},{"type":"event","name":"SafeArbitratorInitialized","inputs":[{"name":"_arbitrationFee","type":"uint256","indexed":false,"internalType":"uint256"}],"anonymous":false},{"type":"event","name":"SafeRegistered","inputs":[{"name":"_arbitrable","type":"address","indexed":true,"internalType":"address"},{"name":"_safe","type":"address","indexed":false,"internalType":"address"}],"anonymous":false},{"type":"event","name":"Upgraded","inputs":[{"name":"implementation","type":"address","indexed":true,"internalType":"address"}],"anonymous":false},{"type":"error","name":"CallerNotOwner","inputs":[{"name":"_caller","type":"address","internalType":"address"},{"name":"_owner","type":"address","internalType":"address"}]},{"type":"error","name":"DisputeAlreadySolved","inputs":[]},{"type":"error","name":"InvalidRuling","inputs":[]},{"type":"error","name":"NotEnoughArbitrationFees","inputs":[]},{"type":"error","name":"OnlySafe","inputs":[{"name":"sender","type":"address","internalType":"address"},{"name":"safe","type":"address","internalType":"address"}]}],"bytecode":{"object":"0x60a0806040523461003157306080526118d990816100378239608051818181610c0c01528181610d070152610f5a0152f35b600080fdfe608080604052600436101561001357600080fd5b600090813560e01c908163025313a214611207575080631c3db16d146111cf57806326a0754c146111935780633659cfe614610f355780634f1ef28614610cb857806352d1902d14610bf9578063564a565d14610aa75780635ea7b4fc14610a59578063715018a614610a0e5780637a1d37561461080957806388d5b732146107965780638da5cb5b14610769578063c13517e1146103f9578063c4d66de8146103cc578063d98493f614610391578063da35a26f1461020a578063f2fde38b14610179578063f6506db4146101385763f7434ea9146100f257600080fd5b34610135576020366003190112610135576004356001600160401b038111610131576101229036906004016113b2565b50506020609754604051908152f35b5080fd5b80fd5b5034610135576080366003190112610135576024356001600160401b038111610131576101699036906004016113b2565b5050610173611247565b5061176e565b50346101355760203660031901126101355761019361122c565b61019b6113df565b6001600160a01b038116156101b6576101b39061143e565b80f35b60405162461bcd60e51b815260206004820152602660248201527f4f776e61626c653a206e6577206f776e657220697320746865207a65726f206160448201526564647265737360d01b6064820152608490fd5b50346101355760403660031901126101355760043561022761125d565b82549060ff8260081c161592838094610384575b801561036d575b15610311576102956020927fc05490fc8f8e095831ea3823f005dd0661528380328aa5c3b7348a45244223be9486600160ff198316178955610300575b5061029060ff885460081c1661166c565b61143e565b6102ae60ff865460081c166102a98161166c565b61166c565b6102b73361143e565b80609755604051908152a16102c95780f35b61ff001981541681557f7f26b83ff96e1f2b6a682f133852f6798a09c465da95921460cefb3847402498602060405160018152a180f35b61ffff19166101011787553861027f565b60405162461bcd60e51b815260206004820152602e60248201527f496e697469616c697a61626c653a20636f6e747261637420697320616c72656160448201526d191e481a5b9a5d1a585b1a5e995960921b6064820152608490fd5b50303b1580156102425750600160ff841614610242565b50600160ff84161061023b565b5034610135576040366003190112610135576004356001600160401b038111610131576103c29036906004016113b2565b505061017361125d565b5034610135576020366003190112610135576101b36103e961122c565b61029060ff845460081c1661166c565b506040366003190112610135576001600160401b0390602435828111610131576104279036906004016113b2565b6002606554146107245760026065556097543410610712576099549360001985146106fe5760018501609955338452609a6020526040808520549051936001600160a01b03939184169160e086019190848311878410176106e8576104939260405233875236916112cc565b906020850191825260043560408601523460608601528560808601528560a086015260c0850152609854600160401b8110156106d4578060016104d99201609855611303565b9390936106c057845184546001600160a01b03191691161783555180519182116106ac5761050a6001840154611338565b601f8111610668575b50602090601f83116001146105f85760059392918691836105ed575b50508160011b916000199060031b1c19161760018201555b604083015160028201556060830151600382015560808301516004820155019060a08101519060028210156105d957916020949160019360ff83549160c06101008860a81b0391015160081b16921690858060a81b031916171790556040519233907f141dfc18aa6a56fc816f44f0e9e2f1ebc92b15ab167770e17db5b084c10ed9958484019180a381606555018152f35b634e487b7160e01b84526021600452602484fd5b01519050388061052f565b906001840186526020862091865b601f1985168110610650575091839160019360059695601f19811610610637575b505050811b016001820155610547565b015160001960f88460031b161c19169055388080610627565b91926020600181928685015181550194019201610606565b60018401865260208620601f840160051c8101602085106106a5575b601f830160051c8201811061069a575050610513565b878155600101610684565b5080610684565b634e487b7160e01b85526041600452602485fd5b634e487b7160e01b86526004869052602486fd5b634e487b7160e01b86526041600452602486fd5b634e487b7160e01b600052604160045260246000fd5b634e487b7160e01b84526011600452602484fd5b60405163e4216b3160e01b8152600490fd5b60405162461bcd60e51b815260206004820152601f60248201527f5265656e7472616e637947756172643a207265656e7472616e742063616c6c006044820152606490fd5b503461013557806003193601126101355760206107846116cc565b6040516001600160a01b039091168152f35b5034610135576020366003190112610135576107b061122c565b33808352609a6020908152604080852080546001600160a01b0319166001600160a01b0390951694851790555192835290917f2b87bb26d58aa2d56b59c2b23a53a6959f68d4547492bda44fb5e68b0fa38b3f9190a280f35b503461013557606036600319011261013557600435602480359061082b611247565b9060001984018481116109fb57908161084660059493611303565b50909301546001600160a01b03939060081c84163381036109d9575061086b90611303565b50600281015485116109c757600581019081549160ff831660028110156109b4576001146109a2576001600483019388855560ff1916179055878080806003850154335af16108b86115a3565b501561096c575490548792918516803b156109685760448492604051958693849263188d362b60e11b84528c6004850152878401525af1801561095d5761092d575b50507f394027a5fa6e098a1191094d1719d6929b9abc535fcc0c8f448d6a4e75622276916020916040519485521692a380f35b9195916001600160401b03821161094b5750604052938160206108fa565b634e487b7160e01b8352604160045282fd5b6040513d89823e3d90fd5b8380fd5b60405162461bcd60e51b815260206004820152600f818501526e151c985b9cd9995c8819985a5b1959608a1b6044820152606490fd5b60405163bda17d9560e01b8152600490fd5b634e487b7160e01b8a526021600452848afd5b6040516309efd47960e41b8152600490fd5b60405163d0774c9960e01b81529081906109f7903360048401611754565b0390fd5b50634e487b7160e01b8552601160045284fd5b5034610135578060031936011261013557610a276113df565b603380546001600160a01b0319811690915581906001600160a01b03166000805160206118048339815191528280a380f35b5034610135576020366003190112610135577fb1484c2bf00d94a00783b6081ebc5f5d02be4675f6eb8cf4c0c95bfe5a3f06ed6020600435610a996113df565b80609755604051908152a180f35b50346101355760208060031936011261013157600435609854811015610bf557610ad090611303565b508054604051600183810180546001600160a01b039485169692909184918991610af985611338565b94858552868382169182600014610bd3575050600114610b97575b5050610b229250038361128e565b6002840154936003810154610b55600560048401549301549460e060ff8716956040519a8b528a015260e0890190611372565b956040880152606087015260808601526002811015610b835784955060a085015260081c1660c08301520390f35b634e487b7160e01b86526021600452602486fd5b8592508a52818a20908a915b858310610bbb575050610b2293508201013880610b14565b80548389018501528794508693909201918101610ba3565b9250935050610b2294915060ff191682840152151560051b8201013880610b14565b8280fd5b50346101355780600319360112610135577f00000000000000000000000000000000000000000000000000000000000000006001600160a01b03163003610c525760206040516000805160206117e48339815191528152f35b60405162461bcd60e51b815260206004820152603860248201527f555550535570677261646561626c653a206d757374206e6f742062652063616c6044820152771b1959081d1a1c9bdd59da0819195b1959d85d1958d85b1b60421b6064820152608490fd5b50604036600319011261013557610ccd61122c565b6024356001600160401b038111610bf55736602382011215610bf557610cfd9036906024816004013591016112cc565b6001600160a01b037f00000000000000000000000000000000000000000000000000000000000000008116929190610d3730851415611475565b610d546000805160206117e48339815191529482865416146114c4565b610d5c6116cc565b8133911603610f10576000805160206117a48339815191525460ff1615610d895750506101b39150611513565b82919216604051936352d1902d60e01b85526020948581600481865afa879181610edd575b50610dfd5760405162461bcd60e51b815260048101879052602e602482015260008051602061188483398151915260448201526d6f6e206973206e6f74205555505360901b6064820152608490fd5b94939403610e9857610e0e82611513565b6000805160206118248339815191528580a283835115801590610e90575b610e38575b5050505080f35b80610e869460405194610e4a86611273565b6027865260008051602061186483398151915281870152660819985a5b195960ca1b604087015281519101845af4610e806115a3565b916115d3565b5038808083610e31565b506001610e2c565b60405162461bcd60e51b815260048101849052602960248201526000805160206118448339815191526044820152681a58589b195555525160ba1b6064820152608490fd5b9091508681813d8311610f09575b610ef5818361128e565b81010312610f0557519038610dae565b8780fd5b503d610eeb565b6109f7610f1b6116cc565b60405163163678e960e01b81529182913360048401611754565b50346101355760208060031936011261013157610f5061122c565b6001600160a01b037f00000000000000000000000000000000000000000000000000000000000000008116610f8730821415611475565b610fa46000805160206117e48339815191529183835416146114c4565b610fac6116cc565b8233911603610f1057604051848101929091906001600160401b0384118385101761117f578360405286835260ff6000805160206117a4833981519152541660001461100057505050506101b39150611513565b84939416906040516352d1902d60e01b81528681600481865afa88918161114c575b506110715760405162461bcd60e51b815260048101889052602e602482015260008051602061188483398151915260448201526d6f6e206973206e6f74205555505360901b6064820152608490fd5b959495036111075790859161108584611513565b6000805160206118248339815191528380a2805115801590611100575b6110af575b505050505080f35b6110f5948291600080516020611864833981519152604051966110d188611273565b60278852870152660819985a5b195960ca1b60408701525190845af4610e806115a3565b5038808083816110a7565b50816110a2565b60405162461bcd60e51b815260048101859052602960248201526000805160206118448339815191526044820152681a58589b195555525160ba1b6064820152608490fd5b9091508781813d8311611178575b611164818361128e565b8101031261117457519038611022565b8880fd5b503d61115a565b634e487b7160e01b87526041600452602487fd5b5034610135576020366003190112610135576020906001600160a01b0390604090826111bd61122c565b168152609a8452205416604051908152f35b50346101355760203660031901126101355760609060046111f08135611303565b500154906040519182528060208301526040820152f35b9050346101315781600319360112610131576033546001600160a01b03168152602090f35b600435906001600160a01b038216820361124257565b600080fd5b604435906001600160a01b038216820361124257565b602435906001600160a01b038216820361124257565b606081019081106001600160401b038211176106e857604052565b601f909101601f19168101906001600160401b038211908210176106e857604052565b6001600160401b0381116106e857601f01601f191660200190565b9291926112d8826112b1565b916112e6604051938461128e565b829481845281830111611242578281602093846000960137010152565b6098548110156113225760986000526006602060002091020190600090565b634e487b7160e01b600052603260045260246000fd5b90600182811c92168015611368575b602083101461135257565b634e487b7160e01b600052602260045260246000fd5b91607f1691611347565b919082519283825260005b84811061139e575050826000602080949584010152601f8019910116010190565b60208183018101518483018201520161137d565b9181601f84011215611242578235916001600160401b038311611242576020838186019501011161124257565b6113e76116cc565b336001600160a01b03909116036113fa57565b606460405162461bcd60e51b815260206004820152602060248201527f4f776e61626c653a2063616c6c6572206973206e6f7420746865206f776e65726044820152fd5b603380546001600160a01b039283166001600160a01b031982168117909255909116600080516020611804833981519152600080a3565b1561147c57565b60405162461bcd60e51b815260206004820152602c60248201526000805160206117c483398151915260448201526b19195b1959d85d1958d85b1b60a21b6064820152608490fd5b156114cb57565b60405162461bcd60e51b815260206004820152602c60248201526000805160206117c483398151915260448201526b6163746976652070726f787960a01b6064820152608490fd5b803b15611548576000805160206117e483398151915280546001600160a01b0319166001600160a01b03909216919091179055565b60405162461bcd60e51b815260206004820152602d60248201527f455243313936373a206e657720696d706c656d656e746174696f6e206973206e60448201526c1bdd08184818dbdb9d1c9858dd609a1b6064820152608490fd5b3d156115ce573d906115b4826112b1565b916115c2604051938461128e565b82523d6000602084013e565b606090565b9192901561163557508151156115e7575090565b3b156115f05790565b60405162461bcd60e51b815260206004820152601d60248201527f416464726573733a2063616c6c20746f206e6f6e2d636f6e74726163740000006044820152606490fd5b8251909150156116485750805190602001fd5b60405162461bcd60e51b8152602060048201529081906109f7906024830190611372565b1561167357565b60405162461bcd60e51b815260206004820152602b60248201527f496e697469616c697a61626c653a20636f6e7472616374206973206e6f74206960448201526a6e697469616c697a696e6760a81b6064820152608490fd5b6033546001600160a01b0390811690813b6116e5575090565b604051638da5cb5b60e01b8152602081600481865afa918291600093611715575b5050611710575090565b905090565b602093919293813d821161174c575b816117316020938361128e565b81010312610131575191821682036101355750903880611706565b3d9150611724565b6001600160a01b0391821681529116602082015260400190565b60405162461bcd60e51b815260206004820152600d60248201526c139bdd081cdd5c1c1bdc9d1959609a1b6044820152606490fdfe4910fdfa16fed3260ed0e7147f7cc6da11a60208b5b9406d12a635614ffd914346756e6374696f6e206d7573742062652063616c6c6564207468726f75676820360894a13ba1a3210667c828492db98dca3e2076cc3735a920a3ca505d382bbc8be0079c531659141344cd1fd0a4f28419497f9722a3daafe3b4186f6b6457e0bc7cd75a20ee27fd9adebab32041f755214dbc6bffa90cc0225b39da2e5c2d3b45524331393637557067726164653a20756e737570706f727465642070726f78416464726573733a206c6f772d6c6576656c2064656c65676174652063616c6c45524331393637557067726164653a206e657720696d706c656d656e74617469a2646970667358221220322e22de6762957888e1d77e129f62142778b1384fabbd53e8c9a8586365225c64736f6c63430008130033","linkReferences":{}},"methodIdentifiers":{"arbitrableTribunalSafe(address)":"26a0754c","arbitrationCost(bytes)":"f7434ea9","arbitrationCost(bytes,address)":"d98493f6","createDispute(uint256,bytes)":"c13517e1","createDispute(uint256,bytes,address,uint256)":"f6506db4","currentRuling(uint256)":"1c3db16d","disputes(uint256)":"564a565d","executeRuling(uint256,uint256,address)":"7a1d3756","initialize(address)":"c4d66de8","initialize(uint256,address)":"da35a26f","owner()":"8da5cb5b","proxiableUUID()":"52d1902d","proxyOwner()":"025313a2","registerSafe(address)":"88d5b732","renounceOwnership()":"715018a6","setArbitrationFee(uint256)":"5ea7b4fc","transferOwnership(address)":"f2fde38b","upgradeTo(address)":"3659cfe6","upgradeToAndCall(address,bytes)":"4f1ef286"},"storageLayout":{"storage":[{"astId":52287,"contract":"pkg/contracts/src/SafeArbitrator.sol:SafeArbitrator","label":"_initialized","offset":0,"slot":"0","type":"t_uint8"},{"astId":52290,"contract":"pkg/contracts/src/SafeArbitrator.sol:SafeArbitrator","label":"_initializing","offset":1,"slot":"0","type":"t_bool"},{"astId":52992,"contract":"pkg/contracts/src/SafeArbitrator.sol:SafeArbitrator","label":"__gap","offset":0,"slot":"1","type":"t_array(t_uint256)50_storage"},{"astId":52079,"contract":"pkg/contracts/src/SafeArbitrator.sol:SafeArbitrator","label":"_owner","offset":0,"slot":"51","type":"t_address"},{"astId":52199,"contract":"pkg/contracts/src/SafeArbitrator.sol:SafeArbitrator","label":"__gap","offset":0,"slot":"52","type":"t_array(t_uint256)49_storage"},{"astId":52464,"contract":"pkg/contracts/src/SafeArbitrator.sol:SafeArbitrator","label":"_status","offset":0,"slot":"101","type":"t_uint256"},{"astId":52533,"contract":"pkg/contracts/src/SafeArbitrator.sol:SafeArbitrator","label":"__gap","offset":0,"slot":"102","type":"t_array(t_uint256)49_storage"},{"astId":73086,"contract":"pkg/contracts/src/SafeArbitrator.sol:SafeArbitrator","label":"arbitrationFee","offset":0,"slot":"151","type":"t_uint256"},{"astId":73090,"contract":"pkg/contracts/src/SafeArbitrator.sol:SafeArbitrator","label":"disputes","offset":0,"slot":"152","type":"t_array(t_struct(DisputeStruct)73084_storage)dyn_storage"},{"astId":73092,"contract":"pkg/contracts/src/SafeArbitrator.sol:SafeArbitrator","label":"lastDisputeID","offset":0,"slot":"153","type":"t_uint256"},{"astId":73096,"contract":"pkg/contracts/src/SafeArbitrator.sol:SafeArbitrator","label":"arbitrableTribunalSafe","offset":0,"slot":"154","type":"t_mapping(t_address,t_address)"},{"astId":73439,"contract":"pkg/contracts/src/SafeArbitrator.sol:SafeArbitrator","label":"__gap","offset":0,"slot":"155","type":"t_array(t_uint256)50_storage"}],"types":{"t_address":{"encoding":"inplace","label":"address","numberOfBytes":"20"},"t_array(t_struct(DisputeStruct)73084_storage)dyn_storage":{"encoding":"dynamic_array","label":"struct SafeArbitrator.DisputeStruct[]","numberOfBytes":"32","base":"t_struct(DisputeStruct)73084_storage"},"t_array(t_uint256)49_storage":{"encoding":"inplace","label":"uint256[49]","numberOfBytes":"1568","base":"t_uint256"},"t_array(t_uint256)50_storage":{"encoding":"inplace","label":"uint256[50]","numberOfBytes":"1600","base":"t_uint256"},"t_bool":{"encoding":"inplace","label":"bool","numberOfBytes":"1"},"t_bytes_storage":{"encoding":"bytes","label":"bytes","numberOfBytes":"32"},"t_contract(IArbitrable)73518":{"encoding":"inplace","label":"contract IArbitrable","numberOfBytes":"20"},"t_enum(DisputeStatus)73067":{"encoding":"inplace","label":"enum SafeArbitrator.DisputeStatus","numberOfBytes":"1"},"t_mapping(t_address,t_address)":{"encoding":"mapping","key":"t_address","label":"mapping(address => address)","numberOfBytes":"32","value":"t_address"},"t_struct(DisputeStruct)73084_storage":{"encoding":"inplace","label":"struct SafeArbitrator.DisputeStruct","numberOfBytes":"192","members":[{"astId":73070,"contract":"pkg/contracts/src/SafeArbitrator.sol:SafeArbitrator","label":"arbitrated","offset":0,"slot":"0","type":"t_contract(IArbitrable)73518"},{"astId":73072,"contract":"pkg/contracts/src/SafeArbitrator.sol:SafeArbitrator","label":"arbitratorExtraData","offset":0,"slot":"1","type":"t_bytes_storage"},{"astId":73074,"contract":"pkg/contracts/src/SafeArbitrator.sol:SafeArbitrator","label":"choices","offset":0,"slot":"2","type":"t_uint256"},{"astId":73076,"contract":"pkg/contracts/src/SafeArbitrator.sol:SafeArbitrator","label":"arbitrationFee","offset":0,"slot":"3","type":"t_uint256"},{"astId":73078,"contract":"pkg/contracts/src/SafeArbitrator.sol:SafeArbitrator","label":"ruling","offset":0,"slot":"4","type":"t_uint256"},{"astId":73081,"contract":"pkg/contracts/src/SafeArbitrator.sol:SafeArbitrator","label":"status","offset":0,"slot":"5","type":"t_enum(DisputeStatus)73067"},{"astId":73083,"contract":"pkg/contracts/src/SafeArbitrator.sol:SafeArbitrator","label":"tribunalSafe","offset":1,"slot":"5","type":"t_address"}]},"t_uint256":{"encoding":"inplace","label":"uint256","numberOfBytes":"32"},"t_uint8":{"encoding":"inplace","label":"uint8","numberOfBytes":"1"}}},"id":105}