{"abi":[{"type":"function","name":"arbitrableTribunalSafe","inputs":[{"name":"arbitrable","type":"address","internalType":"address"}],"outputs":[{"name":"safe","type":"address","internalType":"address"}],"stateMutability":"view"},{"type":"function","name":"arbitrationCost","inputs":[{"name":"","type":"bytes","internalType":"bytes"},{"name":"","type":"address","internalType":"contract IERC20"}],"outputs":[{"name":"","type":"uint256","internalType":"uint256"}],"stateMutability":"pure"},{"type":"function","name":"arbitrationCost","inputs":[{"name":"","type":"bytes","internalType":"bytes"}],"outputs":[{"name":"fee","type":"uint256","internalType":"uint256"}],"stateMutability":"view"},{"type":"function","name":"createDispute","inputs":[{"name":"_choices","type":"uint256","internalType":"uint256"},{"name":"_extraData","type":"bytes","internalType":"bytes"}],"outputs":[{"name":"disputeID","type":"uint256","internalType":"uint256"}],"stateMutability":"payable"},{"type":"function","name":"createDispute","inputs":[{"name":"","type":"uint256","internalType":"uint256"},{"name":"","type":"bytes","internalType":"bytes"},{"name":"","type":"address","internalType":"contract IERC20"},{"name":"","type":"uint256","internalType":"uint256"}],"outputs":[{"name":"","type":"uint256","internalType":"uint256"}],"stateMutability":"pure"},{"type":"function","name":"currentRuling","inputs":[{"name":"_disputeID","type":"uint256","internalType":"uint256"}],"outputs":[{"name":"ruling","type":"uint256","internalType":"uint256"},{"name":"tied","type":"bool","internalType":"bool"},{"name":"overridden","type":"bool","internalType":"bool"}],"stateMutability":"view"},{"type":"function","name":"disputes","inputs":[{"name":"","type":"uint256","internalType":"uint256"}],"outputs":[{"name":"arbitrated","type":"address","internalType":"contract IArbitrable"},{"name":"arbitratorExtraData","type":"bytes","internalType":"bytes"},{"name":"choices","type":"uint256","internalType":"uint256"},{"name":"arbitrationFee","type":"uint256","internalType":"uint256"},{"name":"ruling","type":"uint256","internalType":"uint256"},{"name":"status","type":"uint8","internalType":"enum SafeArbitrator.DisputeStatus"}],"stateMutability":"view"},{"type":"function","name":"executeRuling","inputs":[{"name":"_disputeID","type":"uint256","internalType":"uint256"},{"name":"_ruling","type":"uint256","internalType":"uint256"},{"name":"_arbitrable","type":"address","internalType":"address"}],"outputs":[],"stateMutability":"nonpayable"},{"type":"function","name":"initialize","inputs":[{"name":"_arbitrationFee","type":"uint256","internalType":"uint256"}],"outputs":[],"stateMutability":"nonpayable"},{"type":"function","name":"owner","inputs":[],"outputs":[{"name":"","type":"address","internalType":"address"}],"stateMutability":"view"},{"type":"function","name":"proxiableUUID","inputs":[],"outputs":[{"name":"","type":"bytes32","internalType":"bytes32"}],"stateMutability":"view"},{"type":"function","name":"registerSafe","inputs":[{"name":"_safe","type":"address","internalType":"address"}],"outputs":[],"stateMutability":"nonpayable"},{"type":"function","name":"renounceOwnership","inputs":[],"outputs":[],"stateMutability":"nonpayable"},{"type":"function","name":"setArbitrationFee","inputs":[{"name":"_arbitrationFee","type":"uint256","internalType":"uint256"}],"outputs":[],"stateMutability":"nonpayable"},{"type":"function","name":"transferOwnership","inputs":[{"name":"newOwner","type":"address","internalType":"address"}],"outputs":[],"stateMutability":"nonpayable"},{"type":"function","name":"upgradeTo","inputs":[{"name":"newImplementation","type":"address","internalType":"address"}],"outputs":[],"stateMutability":"nonpayable"},{"type":"function","name":"upgradeToAndCall","inputs":[{"name":"newImplementation","type":"address","internalType":"address"},{"name":"data","type":"bytes","internalType":"bytes"}],"outputs":[],"stateMutability":"payable"},{"type":"event","name":"AcceptedFeeToken","inputs":[{"name":"_token","type":"address","indexed":true,"internalType":"contract IERC20"},{"name":"_accepted","type":"bool","indexed":true,"internalType":"bool"}],"anonymous":false},{"type":"event","name":"AdminChanged","inputs":[{"name":"previousAdmin","type":"address","indexed":false,"internalType":"address"},{"name":"newAdmin","type":"address","indexed":false,"internalType":"address"}],"anonymous":false},{"type":"event","name":"ArbitrationFeeUpdated","inputs":[{"name":"_newArbitrationFee","type":"uint256","indexed":false,"internalType":"uint256"}],"anonymous":false},{"type":"event","name":"BeaconUpgraded","inputs":[{"name":"beacon","type":"address","indexed":true,"internalType":"address"}],"anonymous":false},{"type":"event","name":"DisputeCreation","inputs":[{"name":"_disputeID","type":"uint256","indexed":true,"internalType":"uint256"},{"name":"_arbitrable","type":"address","indexed":true,"internalType":"contract IArbitrable"}],"anonymous":false},{"type":"event","name":"Initialized","inputs":[{"name":"version","type":"uint8","indexed":false,"internalType":"uint8"}],"anonymous":false},{"type":"event","name":"NewCurrencyRate","inputs":[{"name":"_feeToken","type":"address","indexed":true,"internalType":"contract IERC20"},{"name":"_rateInEth","type":"uint64","indexed":false,"internalType":"uint64"},{"name":"_rateDecimals","type":"uint8","indexed":false,"internalType":"uint8"}],"anonymous":false},{"type":"event","name":"OwnershipTransferred","inputs":[{"name":"previousOwner","type":"address","indexed":true,"internalType":"address"},{"name":"newOwner","type":"address","indexed":true,"internalType":"address"}],"anonymous":false},{"type":"event","name":"Ruling","inputs":[{"name":"_arbitrable","type":"address","indexed":true,"internalType":"contract IArbitrable"},{"name":"_disputeID","type":"uint256","indexed":true,"internalType":"uint256"},{"name":"_ruling","type":"uint256","indexed":false,"internalType":"uint256"}],"anonymous":false},{"type":"event","name":"SafeArbitratorInitialized","inputs":[{"name":"_arbitrationFee","type":"uint256","indexed":false,"internalType":"uint256"}],"anonymous":false},{"type":"event","name":"SafeRegistered","inputs":[{"name":"_arbitrable","type":"address","indexed":true,"internalType":"address"},{"name":"_safe","type":"address","indexed":false,"internalType":"address"}],"anonymous":false},{"type":"event","name":"Upgraded","inputs":[{"name":"implementation","type":"address","indexed":true,"internalType":"address"}],"anonymous":false},{"type":"error","name":"DisputeAlreadySolved","inputs":[]},{"type":"error","name":"InvalidRuling","inputs":[]},{"type":"error","name":"NotEnoughArbitrationFees","inputs":[]},{"type":"error","name":"OnlySafe","inputs":[{"name":"sender","type":"address","internalType":"address"},{"name":"safe","type":"address","internalType":"address"}]}],"bytecode":{"object":"0x60a06040523060805234801561001457600080fd5b506080516118fc61004c60003960008181610360015281816103a9015281816104310152818161047101526104ed01526118fc6000f3fe6080604052600436106100ce5760003560e01c80631c3db16d146100d357806326a0754c146101155780633659cfe6146101585780634f1ef2861461017a57806352d1902d1461018d578063564a565d146101b05780635ea7b4fc146101e2578063715018a6146102025780637a1d37561461021757806388d5b732146102375780638da5cb5b14610257578063c13517e11461026c578063d98493f61461027f578063f2fde38b1461029f578063f6506db4146102bf578063f7434ea9146102da578063fe4b84df146102fd575b600080fd5b3480156100df57600080fd5b506100f36100ee366004611238565b61031d565b6040805193845291151560208401521515908201526060015b60405180910390f35b34801561012157600080fd5b5061014b610130366004611266565b6099602052600090815260409020546001600160a01b031681565b60405161010c9190611283565b34801561016457600080fd5b50610178610173366004611266565b610356565b005b6101786101883660046112ad565b610427565b34801561019957600080fd5b506101a26104e0565b60405190815260200161010c565b3480156101bc57600080fd5b506101d06101cb366004611238565b61058e565b60405161010c969594939291906113d6565b3480156101ee57600080fd5b506101786101fd366004611238565b61066c565b34801561020e57600080fd5b506101786106af565b34801561022357600080fd5b5061017861023236600461143d565b6106c3565b34801561024357600080fd5b50610178610252366004611266565b610901565b34801561026357600080fd5b5061014b610964565b6101a261027a3660046114be565b610973565b34801561028b57600080fd5b506101a261029a366004611509565b610aeb565b3480156102ab57600080fd5b506101786102ba366004611266565b610b26565b3480156102cb57600080fd5b506101a261029a366004611554565b3480156102e657600080fd5b506101a26102f53660046115ba565b505060975490565b34801561030957600080fd5b50610178610318366004611238565b610b9c565b60008060008060988581548110610336576103366115fb565b600091825260208220600460069092020101549690955085945092505050565b6001600160a01b037f00000000000000000000000000000000000000000000000000000000000000001630036103a75760405162461bcd60e51b815260040161039e90611611565b60405180910390fd5b7f00000000000000000000000000000000000000000000000000000000000000006001600160a01b03166103d9610cec565b6001600160a01b0316146103ff5760405162461bcd60e51b815260040161039e9061164b565b61040881610d08565b6040805160008082526020820190925261042491839190610d10565b50565b6001600160a01b037f000000000000000000000000000000000000000000000000000000000000000016300361046f5760405162461bcd60e51b815260040161039e90611611565b7f00000000000000000000000000000000000000000000000000000000000000006001600160a01b03166104a1610cec565b6001600160a01b0316146104c75760405162461bcd60e51b815260040161039e9061164b565b6104d082610d08565b6104dc82826001610d10565b5050565b6000306001600160a01b037f0000000000000000000000000000000000000000000000000000000000000000161461057b5760405162461bcd60e51b815260206004820152603860248201527f555550535570677261646561626c653a206d757374206e6f742062652063616c6044820152771b1959081d1a1c9bdd59da0819195b1959d85d1958d85b1b60421b606482015260840161039e565b5060008051602061188083398151915290565b6098818154811061059e57600080fd5b6000918252602090912060069091020180546001820180546001600160a01b039092169350906105cd90611685565b80601f01602080910402602001604051908101604052809291908181526020018280546105f990611685565b80156106465780601f1061061b57610100808354040283529160200191610646565b820191906000526020600020905b81548152906001019060200180831161062957829003601f168201915b505050506002830154600384015460048501546005909501549394919390925060ff1686565b610674610e80565b60978190556040518181527fb1484c2bf00d94a00783b6081ebc5f5d02be4675f6eb8cf4c0c95bfe5a3f06ed9060200160405180910390a150565b6106b7610e80565b6106c16000610edf565b565b6001600160a01b0380821660009081526099602052604090205482911633036108be576000609885815481106106fb576106fb6115fb565b906000526020600020906006020190508060020154841115610730576040516309efd47960e41b815260040160405180910390fd5b6001600582015460ff16600181111561074b5761074b6113c0565b036107695760405163bda17d9560e01b815260040160405180910390fd5b6004810184905560058101805460ff19166001179055600381015460405160009133918381818185875af1925050503d80600081146107c4576040519150601f19603f3d011682016040523d82523d6000602084013e6107c9565b606091505b505090508061080c5760405162461bcd60e51b815260206004820152600f60248201526e151c985b9cd9995c8819985a5b1959608a1b604482015260640161039e565b815460048084015460405163188d362b60e11b815291820189905260248201526001600160a01b039091169063311a6c5690604401600060405180830381600087803b15801561085b57600080fd5b505af115801561086f573d6000803e3d6000fd5b5050505085846001600160a01b03167f394027a5fa6e098a1191094d1719d6929b9abc535fcc0c8f448d6a4e75622276876040516108af91815260200190565b60405180910390a350506108fb565b6001600160a01b038181166000908152609960205260409081902054905163d0774c9960e01b81523360048201529116602482015260440161039e565b50505050565b336000818152609960205260409081902080546001600160a01b0319166001600160a01b038516179055517f2b87bb26d58aa2d56b59c2b23a53a6959f68d4547492bda44fb5e68b0fa38b3f90610959908490611283565b60405180910390a250565b6033546001600160a01b031690565b600061097d610f31565b6097543410156109a05760405163e4216b3160e01b815260040160405180910390fd5b609880549050905060986040518060c00160405280336001600160a01b0316815260200185858080601f016020809104026020016040519081016040528093929190818152602001838380828437600092018290525093855250505060208201889052346040830152606082018190526080909101528154600180820184556000938452602093849020835160069093020180546001600160a01b0319166001600160a01b03909316929092178255928201519192909190820190610a65908261170d565b5060408201516002820155606082015160038201556080820151600482015560a082015160058201805460ff191660018381811115610aa657610aa66113c0565b02179055505060405133915082907f141dfc18aa6a56fc816f44f0e9e2f1ebc92b15ab167770e17db5b084c10ed99590600090a3610ae46001606555565b9392505050565b60405162461bcd60e51b815260206004820152600d60248201526c139bdd081cdd5c1c1bdc9d1959609a1b604482015260009060640161039e565b610b2e610e80565b6001600160a01b038116610b935760405162461bcd60e51b815260206004820152602660248201527f4f776e61626c653a206e6577206f776e657220697320746865207a65726f206160448201526564647265737360d01b606482015260840161039e565b61042481610edf565b600054610100900460ff1615808015610bbc5750600054600160ff909116105b80610bdd5750610bcb30610f8a565b158015610bdd575060005460ff166001145b610c405760405162461bcd60e51b815260206004820152602e60248201527f496e697469616c697a61626c653a20636f6e747261637420697320616c72656160448201526d191e481a5b9a5d1a585b1a5e995960921b606482015260840161039e565b6000805460ff191660011790558015610c63576000805461ff0019166101001790555b610c6b610f99565b60978290556040518281527fc05490fc8f8e095831ea3823f005dd0661528380328aa5c3b7348a45244223be9060200160405180910390a180156104dc576000805461ff0019169055604051600181527f7f26b83ff96e1f2b6a682f133852f6798a09c465da95921460cefb38474024989060200160405180910390a15050565b600080516020611880833981519152546001600160a01b031690565b610424610e80565b7f4910fdfa16fed3260ed0e7147f7cc6da11a60208b5b9406d12a635614ffd91435460ff1615610d4857610d4383610fc8565b505050565b826001600160a01b03166352d1902d6040518163ffffffff1660e01b8152600401602060405180830381865afa925050508015610da2575060408051601f3d908101601f19168201909252610d9f918101906117cc565b60015b610e055760405162461bcd60e51b815260206004820152602e60248201527f45524331393637557067726164653a206e657720696d706c656d656e7461746960448201526d6f6e206973206e6f74205555505360901b606482015260840161039e565b6000805160206118808339815191528114610e745760405162461bcd60e51b815260206004820152602960248201527f45524331393637557067726164653a20756e737570706f727465642070726f786044820152681a58589b195555525160ba1b606482015260840161039e565b50610d43838383611062565b33610e89610964565b6001600160a01b0316146106c15760405162461bcd60e51b815260206004820181905260248201527f4f776e61626c653a2063616c6c6572206973206e6f7420746865206f776e6572604482015260640161039e565b603380546001600160a01b038381166001600160a01b0319831681179093556040519116919082907f8be0079c531659141344cd1fd0a4f28419497f9722a3daafe3b4186f6b6457e090600090a35050565b600260655403610f835760405162461bcd60e51b815260206004820152601f60248201527f5265656e7472616e637947756172643a207265656e7472616e742063616c6c00604482015260640161039e565b6002606555565b6001600160a01b03163b151590565b600054610100900460ff16610fc05760405162461bcd60e51b815260040161039e906117e5565b6106c1611087565b610fd181610f8a565b6110335760405162461bcd60e51b815260206004820152602d60248201527f455243313936373a206e657720696d706c656d656e746174696f6e206973206e60448201526c1bdd08184818dbdb9d1c9858dd609a1b606482015260840161039e565b60008051602061188083398151915280546001600160a01b0319166001600160a01b0392909216919091179055565b61106b836110b7565b6000825111806110785750805b15610d43576108fb83836110f7565b600054610100900460ff166110ae5760405162461bcd60e51b815260040161039e906117e5565b6106c133610edf565b6110c081610fc8565b6040516001600160a01b038216907fbc7cd75a20ee27fd9adebab32041f755214dbc6bffa90cc0225b39da2e5c2d3b90600090a250565b6060610ae483836040518060600160405280602781526020016118a0602791396060600080856001600160a01b0316856040516111349190611830565b600060405180830381855af49150503d806000811461116f576040519150601f19603f3d011682016040523d82523d6000602084013e611174565b606091505b50915091506111858683838761118f565b9695505050505050565b606083156111fc5782516000036111f5576111a985610f8a565b6111f55760405162461bcd60e51b815260206004820152601d60248201527f416464726573733a2063616c6c20746f206e6f6e2d636f6e7472616374000000604482015260640161039e565b5081611206565b611206838361120e565b949350505050565b81511561121e5781518083602001fd5b8060405162461bcd60e51b815260040161039e919061184c565b60006020828403121561124a57600080fd5b5035919050565b6001600160a01b038116811461042457600080fd5b60006020828403121561127857600080fd5b8135610ae481611251565b6001600160a01b0391909116815260200190565b634e487b7160e01b600052604160045260246000fd5b600080604083850312156112c057600080fd5b82356112cb81611251565b915060208301356001600160401b03808211156112e757600080fd5b818501915085601f8301126112fb57600080fd5b81358181111561130d5761130d611297565b604051601f8201601f19908116603f0116810190838211818310171561133557611335611297565b8160405282815288602084870101111561134e57600080fd5b8260208601602083013760006020848301015280955050505050509250929050565b60005b8381101561138b578181015183820152602001611373565b50506000910152565b600081518084526113ac816020860160208601611370565b601f01601f19169290920160200192915050565b634e487b7160e01b600052602160045260246000fd5b6001600160a01b038716815260c0602082018190526000906113fa90830188611394565b90508560408301528460608301528360808301526002831061142c57634e487b7160e01b600052602160045260246000fd5b8260a0830152979650505050505050565b60008060006060848603121561145257600080fd5b8335925060208401359150604084013561146b81611251565b809150509250925092565b60008083601f84011261148857600080fd5b5081356001600160401b0381111561149f57600080fd5b6020830191508360208285010111156114b757600080fd5b9250929050565b6000806000604084860312156114d357600080fd5b8335925060208401356001600160401b038111156114f057600080fd5b6114fc86828701611476565b9497909650939450505050565b60008060006040848603121561151e57600080fd5b83356001600160401b0381111561153457600080fd5b61154086828701611476565b909450925050602084013561146b81611251565b60008060008060006080868803121561156c57600080fd5b8535945060208601356001600160401b0381111561158957600080fd5b61159588828901611476565b90955093505060408601356115a981611251565b949793965091946060013592915050565b600080602083850312156115cd57600080fd5b82356001600160401b038111156115e357600080fd5b6115ef85828601611476565b90969095509350505050565b634e487b7160e01b600052603260045260246000fd5b6020808252602c9082015260008051602061186083398151915260408201526b19195b1959d85d1958d85b1b60a21b606082015260800190565b6020808252602c9082015260008051602061186083398151915260408201526b6163746976652070726f787960a01b606082015260800190565b600181811c9082168061169957607f821691505b6020821081036116b957634e487b7160e01b600052602260045260246000fd5b50919050565b601f821115610d4357600081815260208120601f850160051c810160208610156116e65750805b601f850160051c820191505b81811015611705578281556001016116f2565b505050505050565b81516001600160401b0381111561172657611726611297565b61173a816117348454611685565b846116bf565b602080601f83116001811461176f57600084156117575750858301515b600019600386901b1c1916600185901b178555611705565b600085815260208120601f198616915b8281101561179e5788860151825594840194600190910190840161177f565b50858210156117bc5787850151600019600388901b60f8161c191681555b5050505050600190811b01905550565b6000602082840312156117de57600080fd5b5051919050565b6020808252602b908201527f496e697469616c697a61626c653a20636f6e7472616374206973206e6f74206960408201526a6e697469616c697a696e6760a81b606082015260800190565b60008251611842818460208701611370565b9190910192915050565b602081526000610ae4602083018461139456fe46756e6374696f6e206d7573742062652063616c6c6564207468726f75676820360894a13ba1a3210667c828492db98dca3e2076cc3735a920a3ca505d382bbc416464726573733a206c6f772d6c6576656c2064656c65676174652063616c6c206661696c6564a26469706673582212209e812ac4bdf846d4087c7926815fe1acf703e60d37f2ca752fcb49ebd31f237a64736f6c63430008130033","linkReferences":{}},"methodIdentifiers":{"arbitrableTribunalSafe(address)":"26a0754c","arbitrationCost(bytes)":"f7434ea9","arbitrationCost(bytes,address)":"d98493f6","createDispute(uint256,bytes)":"c13517e1","createDispute(uint256,bytes,address,uint256)":"f6506db4","currentRuling(uint256)":"1c3db16d","disputes(uint256)":"564a565d","executeRuling(uint256,uint256,address)":"7a1d3756","initialize(uint256)":"fe4b84df","owner()":"8da5cb5b","proxiableUUID()":"52d1902d","registerSafe(address)":"88d5b732","renounceOwnership()":"715018a6","setArbitrationFee(uint256)":"5ea7b4fc","transferOwnership(address)":"f2fde38b","upgradeTo(address)":"3659cfe6","upgradeToAndCall(address,bytes)":"4f1ef286"},"storageLayout":{"storage":[{"astId":52990,"contract":"pkg/contracts/src/SafeArbitrator.sol:SafeArbitrator","label":"_initialized","offset":0,"slot":"0","type":"t_uint8"},{"astId":52993,"contract":"pkg/contracts/src/SafeArbitrator.sol:SafeArbitrator","label":"_initializing","offset":1,"slot":"0","type":"t_bool"},{"astId":53695,"contract":"pkg/contracts/src/SafeArbitrator.sol:SafeArbitrator","label":"__gap","offset":0,"slot":"1","type":"t_array(t_uint256)50_storage"},{"astId":52782,"contract":"pkg/contracts/src/SafeArbitrator.sol:SafeArbitrator","label":"_owner","offset":0,"slot":"51","type":"t_address"},{"astId":52902,"contract":"pkg/contracts/src/SafeArbitrator.sol:SafeArbitrator","label":"__gap","offset":0,"slot":"52","type":"t_array(t_uint256)49_storage"},{"astId":53167,"contract":"pkg/contracts/src/SafeArbitrator.sol:SafeArbitrator","label":"_status","offset":0,"slot":"101","type":"t_uint256"},{"astId":53236,"contract":"pkg/contracts/src/SafeArbitrator.sol:SafeArbitrator","label":"__gap","offset":0,"slot":"102","type":"t_array(t_uint256)49_storage"},{"astId":73522,"contract":"pkg/contracts/src/SafeArbitrator.sol:SafeArbitrator","label":"arbitrationFee","offset":0,"slot":"151","type":"t_uint256"},{"astId":73526,"contract":"pkg/contracts/src/SafeArbitrator.sol:SafeArbitrator","label":"disputes","offset":0,"slot":"152","type":"t_array(t_struct(DisputeStruct)73520_storage)dyn_storage"},{"astId":73530,"contract":"pkg/contracts/src/SafeArbitrator.sol:SafeArbitrator","label":"arbitrableTribunalSafe","offset":0,"slot":"153","type":"t_mapping(t_address,t_address)"},{"astId":73861,"contract":"pkg/contracts/src/SafeArbitrator.sol:SafeArbitrator","label":"__gap","offset":0,"slot":"154","type":"t_array(t_uint256)50_storage"}],"types":{"t_address":{"encoding":"inplace","label":"address","numberOfBytes":"20"},"t_array(t_struct(DisputeStruct)73520_storage)dyn_storage":{"encoding":"dynamic_array","label":"struct SafeArbitrator.DisputeStruct[]","numberOfBytes":"32","base":"t_struct(DisputeStruct)73520_storage"},"t_array(t_uint256)49_storage":{"encoding":"inplace","label":"uint256[49]","numberOfBytes":"1568","base":"t_uint256"},"t_array(t_uint256)50_storage":{"encoding":"inplace","label":"uint256[50]","numberOfBytes":"1600","base":"t_uint256"},"t_bool":{"encoding":"inplace","label":"bool","numberOfBytes":"1"},"t_bytes_storage":{"encoding":"bytes","label":"bytes","numberOfBytes":"32"},"t_contract(IArbitrable)73940":{"encoding":"inplace","label":"contract IArbitrable","numberOfBytes":"20"},"t_enum(DisputeStatus)73505":{"encoding":"inplace","label":"enum SafeArbitrator.DisputeStatus","numberOfBytes":"1"},"t_mapping(t_address,t_address)":{"encoding":"mapping","key":"t_address","label":"mapping(address => address)","numberOfBytes":"32","value":"t_address"},"t_struct(DisputeStruct)73520_storage":{"encoding":"inplace","label":"struct SafeArbitrator.DisputeStruct","numberOfBytes":"192","members":[{"astId":73508,"contract":"pkg/contracts/src/SafeArbitrator.sol:SafeArbitrator","label":"arbitrated","offset":0,"slot":"0","type":"t_contract(IArbitrable)73940"},{"astId":73510,"contract":"pkg/contracts/src/SafeArbitrator.sol:SafeArbitrator","label":"arbitratorExtraData","offset":0,"slot":"1","type":"t_bytes_storage"},{"astId":73512,"contract":"pkg/contracts/src/SafeArbitrator.sol:SafeArbitrator","label":"choices","offset":0,"slot":"2","type":"t_uint256"},{"astId":73514,"contract":"pkg/contracts/src/SafeArbitrator.sol:SafeArbitrator","label":"arbitrationFee","offset":0,"slot":"3","type":"t_uint256"},{"astId":73516,"contract":"pkg/contracts/src/SafeArbitrator.sol:SafeArbitrator","label":"ruling","offset":0,"slot":"4","type":"t_uint256"},{"astId":73519,"contract":"pkg/contracts/src/SafeArbitrator.sol:SafeArbitrator","label":"status","offset":0,"slot":"5","type":"t_enum(DisputeStatus)73505"}]},"t_uint256":{"encoding":"inplace","label":"uint256","numberOfBytes":"32"},"t_uint8":{"encoding":"inplace","label":"uint8","numberOfBytes":"1"}}},"id":111}