{"abi":[{"type":"function","name":"ALLO_OWNER","inputs":[],"outputs":[{"name":"","type":"bytes32","internalType":"bytes32"}],"stateMutability":"view"},{"type":"function","name":"DEFAULT_ADMIN_ROLE","inputs":[],"outputs":[{"name":"","type":"bytes32","internalType":"bytes32"}],"stateMutability":"view"},{"type":"function","name":"NATIVE","inputs":[],"outputs":[{"name":"","type":"address","internalType":"address"}],"stateMutability":"view"},{"type":"function","name":"acceptProfileOwnership","inputs":[{"name":"_profileId","type":"bytes32","internalType":"bytes32"}],"outputs":[],"stateMutability":"nonpayable"},{"type":"function","name":"addMembers","inputs":[{"name":"_profileId","type":"bytes32","internalType":"bytes32"},{"name":"_members","type":"address[]","internalType":"address[]"}],"outputs":[],"stateMutability":"nonpayable"},{"type":"function","name":"anchorToProfileId","inputs":[{"name":"","type":"address","internalType":"address"}],"outputs":[{"name":"","type":"bytes32","internalType":"bytes32"}],"stateMutability":"view"},{"type":"function","name":"createProfile","inputs":[{"name":"_nonce","type":"uint256","internalType":"uint256"},{"name":"_name","type":"string","internalType":"string"},{"name":"_metadata","type":"tuple","internalType":"struct Metadata","components":[{"name":"protocol","type":"uint256","internalType":"uint256"},{"name":"pointer","type":"string","internalType":"string"}]},{"name":"_owner","type":"address","internalType":"address"},{"name":"_members","type":"address[]","internalType":"address[]"}],"outputs":[{"name":"","type":"bytes32","internalType":"bytes32"}],"stateMutability":"nonpayable"},{"type":"function","name":"getProfileByAnchor","inputs":[{"name":"_anchor","type":"address","internalType":"address"}],"outputs":[{"name":"","type":"tuple","internalType":"struct IRegistry.Profile","components":[{"name":"id","type":"bytes32","internalType":"bytes32"},{"name":"nonce","type":"uint256","internalType":"uint256"},{"name":"name","type":"string","internalType":"string"},{"name":"metadata","type":"tuple","internalType":"struct Metadata","components":[{"name":"protocol","type":"uint256","internalType":"uint256"},{"name":"pointer","type":"string","internalType":"string"}]},{"name":"owner","type":"address","internalType":"address"},{"name":"anchor","type":"address","internalType":"address"}]}],"stateMutability":"view"},{"type":"function","name":"getProfileById","inputs":[{"name":"_profileId","type":"bytes32","internalType":"bytes32"}],"outputs":[{"name":"","type":"tuple","internalType":"struct IRegistry.Profile","components":[{"name":"id","type":"bytes32","internalType":"bytes32"},{"name":"nonce","type":"uint256","internalType":"uint256"},{"name":"name","type":"string","internalType":"string"},{"name":"metadata","type":"tuple","internalType":"struct Metadata","components":[{"name":"protocol","type":"uint256","internalType":"uint256"},{"name":"pointer","type":"string","internalType":"string"}]},{"name":"owner","type":"address","internalType":"address"},{"name":"anchor","type":"address","internalType":"address"}]}],"stateMutability":"view"},{"type":"function","name":"getRoleAdmin","inputs":[{"name":"role","type":"bytes32","internalType":"bytes32"}],"outputs":[{"name":"","type":"bytes32","internalType":"bytes32"}],"stateMutability":"view"},{"type":"function","name":"grantRole","inputs":[{"name":"role","type":"bytes32","internalType":"bytes32"},{"name":"account","type":"address","internalType":"address"}],"outputs":[],"stateMutability":"nonpayable"},{"type":"function","name":"hasRole","inputs":[{"name":"role","type":"bytes32","internalType":"bytes32"},{"name":"account","type":"address","internalType":"address"}],"outputs":[{"name":"","type":"bool","internalType":"bool"}],"stateMutability":"view"},{"type":"function","name":"initialize","inputs":[{"name":"_owner","type":"address","internalType":"address"}],"outputs":[],"stateMutability":"nonpayable"},{"type":"function","name":"isMemberOfProfile","inputs":[{"name":"_profileId","type":"bytes32","internalType":"bytes32"},{"name":"_member","type":"address","internalType":"address"}],"outputs":[{"name":"","type":"bool","internalType":"bool"}],"stateMutability":"view"},{"type":"function","name":"isOwnerOfProfile","inputs":[{"name":"_profileId","type":"bytes32","internalType":"bytes32"},{"name":"_owner","type":"address","internalType":"address"}],"outputs":[{"name":"","type":"bool","internalType":"bool"}],"stateMutability":"view"},{"type":"function","name":"isOwnerOrMemberOfProfile","inputs":[{"name":"_profileId","type":"bytes32","internalType":"bytes32"},{"name":"_account","type":"address","internalType":"address"}],"outputs":[{"name":"","type":"bool","internalType":"bool"}],"stateMutability":"view"},{"type":"function","name":"profileIdToPendingOwner","inputs":[{"name":"","type":"bytes32","internalType":"bytes32"}],"outputs":[{"name":"","type":"address","internalType":"address"}],"stateMutability":"view"},{"type":"function","name":"profilesById","inputs":[{"name":"","type":"bytes32","internalType":"bytes32"}],"outputs":[{"name":"id","type":"bytes32","internalType":"bytes32"},{"name":"nonce","type":"uint256","internalType":"uint256"},{"name":"name","type":"string","internalType":"string"},{"name":"metadata","type":"tuple","internalType":"struct Metadata","components":[{"name":"protocol","type":"uint256","internalType":"uint256"},{"name":"pointer","type":"string","internalType":"string"}]},{"name":"owner","type":"address","internalType":"address"},{"name":"anchor","type":"address","internalType":"address"}],"stateMutability":"view"},{"type":"function","name":"recoverFunds","inputs":[{"name":"_token","type":"address","internalType":"address"},{"name":"_recipient","type":"address","internalType":"address"}],"outputs":[],"stateMutability":"nonpayable"},{"type":"function","name":"removeMembers","inputs":[{"name":"_profileId","type":"bytes32","internalType":"bytes32"},{"name":"_members","type":"address[]","internalType":"address[]"}],"outputs":[],"stateMutability":"nonpayable"},{"type":"function","name":"renounceRole","inputs":[{"name":"role","type":"bytes32","internalType":"bytes32"},{"name":"account","type":"address","internalType":"address"}],"outputs":[],"stateMutability":"nonpayable"},{"type":"function","name":"revokeRole","inputs":[{"name":"role","type":"bytes32","internalType":"bytes32"},{"name":"account","type":"address","internalType":"address"}],"outputs":[],"stateMutability":"nonpayable"},{"type":"function","name":"supportsInterface","inputs":[{"name":"interfaceId","type":"bytes4","internalType":"bytes4"}],"outputs":[{"name":"","type":"bool","internalType":"bool"}],"stateMutability":"view"},{"type":"function","name":"updateProfileMetadata","inputs":[{"name":"_profileId","type":"bytes32","internalType":"bytes32"},{"name":"_metadata","type":"tuple","internalType":"struct Metadata","components":[{"name":"protocol","type":"uint256","internalType":"uint256"},{"name":"pointer","type":"string","internalType":"string"}]}],"outputs":[],"stateMutability":"nonpayable"},{"type":"function","name":"updateProfileName","inputs":[{"name":"_profileId","type":"bytes32","internalType":"bytes32"},{"name":"_name","type":"string","internalType":"string"}],"outputs":[{"name":"anchor","type":"address","internalType":"address"}],"stateMutability":"nonpayable"},{"type":"function","name":"updateProfilePendingOwner","inputs":[{"name":"_profileId","type":"bytes32","internalType":"bytes32"},{"name":"_pendingOwner","type":"address","internalType":"address"}],"outputs":[],"stateMutability":"nonpayable"},{"type":"event","name":"Initialized","inputs":[{"name":"version","type":"uint8","indexed":false,"internalType":"uint8"}],"anonymous":false},{"type":"event","name":"ProfileCreated","inputs":[{"name":"profileId","type":"bytes32","indexed":true,"internalType":"bytes32"},{"name":"nonce","type":"uint256","indexed":false,"internalType":"uint256"},{"name":"name","type":"string","indexed":false,"internalType":"string"},{"name":"metadata","type":"tuple","indexed":false,"internalType":"struct Metadata","components":[{"name":"protocol","type":"uint256","internalType":"uint256"},{"name":"pointer","type":"string","internalType":"string"}]},{"name":"owner","type":"address","indexed":false,"internalType":"address"},{"name":"anchor","type":"address","indexed":false,"internalType":"address"}],"anonymous":false},{"type":"event","name":"ProfileMetadataUpdated","inputs":[{"name":"profileId","type":"bytes32","indexed":true,"internalType":"bytes32"},{"name":"metadata","type":"tuple","indexed":false,"internalType":"struct Metadata","components":[{"name":"protocol","type":"uint256","internalType":"uint256"},{"name":"pointer","type":"string","internalType":"string"}]}],"anonymous":false},{"type":"event","name":"ProfileNameUpdated","inputs":[{"name":"profileId","type":"bytes32","indexed":true,"internalType":"bytes32"},{"name":"name","type":"string","indexed":false,"internalType":"string"},{"name":"anchor","type":"address","indexed":false,"internalType":"address"}],"anonymous":false},{"type":"event","name":"ProfileOwnerUpdated","inputs":[{"name":"profileId","type":"bytes32","indexed":true,"internalType":"bytes32"},{"name":"owner","type":"address","indexed":false,"internalType":"address"}],"anonymous":false},{"type":"event","name":"ProfilePendingOwnerUpdated","inputs":[{"name":"profileId","type":"bytes32","indexed":true,"internalType":"bytes32"},{"name":"pendingOwner","type":"address","indexed":false,"internalType":"address"}],"anonymous":false},{"type":"event","name":"RoleAdminChanged","inputs":[{"name":"role","type":"bytes32","indexed":true,"internalType":"bytes32"},{"name":"previousAdminRole","type":"bytes32","indexed":true,"internalType":"bytes32"},{"name":"newAdminRole","type":"bytes32","indexed":true,"internalType":"bytes32"}],"anonymous":false},{"type":"event","name":"RoleGranted","inputs":[{"name":"role","type":"bytes32","indexed":true,"internalType":"bytes32"},{"name":"account","type":"address","indexed":true,"internalType":"address"},{"name":"sender","type":"address","indexed":true,"internalType":"address"}],"anonymous":false},{"type":"event","name":"RoleRevoked","inputs":[{"name":"role","type":"bytes32","indexed":true,"internalType":"bytes32"},{"name":"account","type":"address","indexed":true,"internalType":"address"},{"name":"sender","type":"address","indexed":true,"internalType":"address"}],"anonymous":false},{"type":"error","name":"ALLOCATION_ACTIVE","inputs":[]},{"type":"error","name":"ALLOCATION_NOT_ACTIVE","inputs":[]},{"type":"error","name":"ALLOCATION_NOT_ENDED","inputs":[]},{"type":"error","name":"ALREADY_INITIALIZED","inputs":[]},{"type":"error","name":"AMOUNT_MISMATCH","inputs":[]},{"type":"error","name":"ANCHOR_ERROR","inputs":[]},{"type":"error","name":"ARRAY_MISMATCH","inputs":[]},{"type":"error","name":"INVALID","inputs":[]},{"type":"error","name":"INVALID_ADDRESS","inputs":[]},{"type":"error","name":"INVALID_FEE","inputs":[]},{"type":"error","name":"INVALID_METADATA","inputs":[]},{"type":"error","name":"INVALID_REGISTRATION","inputs":[]},{"type":"error","name":"IS_APPROVED_STRATEGY","inputs":[]},{"type":"error","name":"MISMATCH","inputs":[]},{"type":"error","name":"NONCE_NOT_AVAILABLE","inputs":[]},{"type":"error","name":"NOT_APPROVED_STRATEGY","inputs":[]},{"type":"error","name":"NOT_ENOUGH_FUNDS","inputs":[]},{"type":"error","name":"NOT_IMPLEMENTED","inputs":[]},{"type":"error","name":"NOT_INITIALIZED","inputs":[]},{"type":"error","name":"NOT_PENDING_OWNER","inputs":[]},{"type":"error","name":"POOL_ACTIVE","inputs":[]},{"type":"error","name":"POOL_INACTIVE","inputs":[]},{"type":"error","name":"RECIPIENT_ALREADY_ACCEPTED","inputs":[]},{"type":"error","name":"RECIPIENT_ERROR","inputs":[{"name":"recipientId","type":"address","internalType":"address"}]},{"type":"error","name":"RECIPIENT_NOT_ACCEPTED","inputs":[]},{"type":"error","name":"REGISTRATION_NOT_ACTIVE","inputs":[]},{"type":"error","name":"UNAUTHORIZED","inputs":[]},{"type":"error","name":"ZERO_ADDRESS","inputs":[]}],"bytecode":{"object":"0x608060405234801561001057600080fd5b50612e96806100206000396000f3fe60806040523480156200001157600080fd5b5060043610620001d15760003560e01c806350d005e01162000101578063c4d66de811620000a3578063d547741f116200007a578063d547741f1462000480578063dd93da431462000497578063e0cf1e4c14620004ae578063ee88819614620004c557600080fd5b8063c4d66de8146200042a578063cf189ff21462000441578063cfda7e0a146200045857600080fd5b8063a0cf0aea11620000d8578063a0cf0aea14620003ee578063a217fddf146200040a578063ac402839146200041357600080fd5b806350d005e014620003565780635e8a7915146200039b57806391d1485414620003b257600080fd5b80632f2ff15d11620001775780633a92f65f116200014e5780633a92f65f14620002ee5780633b66dacd14620003055780634756487f146200031c5780635063f361146200033f57600080fd5b80632f2ff15d14620002a957806336568abe14620002c057806339b86b8c14620002d757600080fd5b8063248a9ca311620001ac578063248a9ca314620002445780632497f3c6146200027957806324ae6a27146200029257600080fd5b80630114cf0a14620001d657806301ffc9a714620002055780630ec1fbac146200022d575b600080fd5b620001ed620001e736600462001c07565b620004f0565b604051620001fc919062001c9e565b60405180910390f35b6200021c6200021636600462001d1f565b620006a7565b6040519015158152602001620001fc565b6200021c6200023e36600462001d80565b62000741565b6200026a6200025536600462001c07565b60009081526065602052604090206001015490565b604051908152602001620001fc565b620002906200028a36600462001c07565b62000756565b005b62000290620002a336600462001daf565b62000835565b62000290620002ba36600462001d80565b62000951565b62000290620002d136600462001d80565b6200097f565b6200021c620002e836600462001d80565b62000a13565b6200026a620002ff36600462001fa7565b62000a39565b620002906200031636600462001d80565b62000cea565b6200026a6200032d36600462002056565b60976020526000908152604090205481565b620002906200035036600462002074565b62000d61565b620003826200036736600462001c07565b6099602052600090815260409020546001600160a01b031681565b6040516001600160a01b039091168152602001620001fc565b6200021c620003ac36600462001d80565b62000ded565b6200021c620003c336600462001d80565b60009182526065602090815260408084206001600160a01b0393909316845291905290205460ff1690565b6200038273eeeeeeeeeeeeeeeeeeeeeeeeeeeeeeeeeeeeeeee81565b6200026a600081565b6200029062000424366004620020bf565b62000e20565b620002906200043b36600462002056565b62000e93565b620003826200045236600462002100565b62000fd7565b6200026a7f815b5a78dc333d344c7df9da23c04dbd432015cc701876ddb9ffe850e688274781565b620002906200049136600462001d80565b620010a5565b620001ed620004a836600462002056565b620010ce565b62000290620004bf36600462002074565b62001297565b620004dc620004d636600462001c07565b620012e2565b604051620001fc9695949392919062002141565b620004fa62001ba4565b609860008381526020019081526020016000206040518060c001604052908160008201548152602001600182015481526020016002820180546200053e906200219d565b80601f01602080910402602001604051908101604052809291908181526020018280546200056c906200219d565b8015620005bd5780601f106200059157610100808354040283529160200191620005bd565b820191906000526020600020905b8154815290600101906020018083116200059f57829003601f168201915b505050505081526020016003820160405180604001604052908160008201548152602001600182018054620005f2906200219d565b80601f016020809104026020016040519081016040528092919081815260200182805462000620906200219d565b8015620006715780601f10620006455761010080835404028352916020019162000671565b820191906000526020600020905b8154815290600101906020018083116200065357829003601f168201915b50505091909252505050815260058201546001600160a01b03908116602083015260069092015490911660409091015292915050565b60007fffffffff0000000000000000000000000000000000000000000000000000000082167f7965db0b0000000000000000000000000000000000000000000000000000000014806200073b57507f01ffc9a7000000000000000000000000000000000000000000000000000000007fffffffff000000000000000000000000000000000000000000000000000000008316145b92915050565b60006200074f838362001462565b9392505050565b60008181526098602090815260408083206099909252909120546001600160a01b0316338114620007b3576040517fb4d48c1000000000000000000000000000000000000000000000000000000000815260040160405180910390fd5b6005820180546001600160a01b0383811673ffffffffffffffffffffffffffffffffffffffff199283161783556000868152609960209081526040918290208054909416909355925492519216825284917ffd9ad63830df7bdf1586c8293dc88a30864cb43e9037e7afdb2c7210facf217d91015b60405180910390a2505050565b7f815b5a78dc333d344c7df9da23c04dbd432015cc701876ddb9ffe850e688274762000861816200148e565b6001600160a01b038216620008895760405163538ba4f960e01b815260040160405180910390fd5b60006001600160a01b03841673eeeeeeeeeeeeeeeeeeeeeeeeeeeeeeeeeeeeeeee146200093a576040517f70a082310000000000000000000000000000000000000000000000000000000081523060048201526001600160a01b038516906370a0823190602401602060405180830381865afa1580156200090e573d6000803e3d6000fd5b505050506040513d601f19601f82011682018060405250810190620009349190620021d9565b6200093c565b475b90506200094b8484836200149d565b50505050565b6000828152606560205260409020600101546200096e816200148e565b6200097a8383620014e7565b505050565b6001600160a01b038116331462000a035760405162461bcd60e51b815260206004820152602f60248201527f416363657373436f6e74726f6c3a2063616e206f6e6c792072656e6f756e636560448201527f20726f6c657320666f722073656c66000000000000000000000000000000000060648201526084015b60405180910390fd5b62000a0f82826200158b565b5050565b6000828152609860205260408120600501546001600160a01b038381169116146200074f565b60008062000a4887856200160f565b6000818152609860205260409020600601549091506001600160a01b03161562000a9e576040517f527e059000000000000000000000000000000000000000000000000000000000815260040160405180910390fd5b6001600160a01b03841662000ac65760405163538ba4f960e01b815260040160405180910390fd5b60006040518060c00160405280838152602001898152602001888152602001878152602001866001600160a01b0316815260200162000b06848a6200165e565b6001600160a01b0316905260008381526098602090815260409182902083518155908301516001820155908201519192508291600282019062000b4a908262002245565b5060608201518051600383019081556020820151600484019062000b6f908262002245565b505050608082015160058201805473ffffffffffffffffffffffffffffffffffffffff199081166001600160a01b039384161790915560a0938401516006909301805490911692821692909217909155908201511660009081526097602052604090208290558351801580159062000bf057506001600160a01b0386163314155b1562000c0f5760405163075fd2b160e01b815260040160405180910390fd5b60005b8181101562000c8657600086828151811062000c325762000c3262002312565b6020026020010151905060006001600160a01b0316816001600160a01b03160362000c705760405163538ba4f960e01b815260040160405180910390fd5b62000c7c8582620014e7565b5060010162000c12565b50827f1e28352ff00d67474b59b87e6817d6ba65daa0130446266db8640214d8b8060983602001518460400151856060015186608001518760a0015160405162000cd595949392919062002328565b60405180910390a25090979650505050505050565b8162000cf6816200186c565b600083815260996020908152604091829020805473ffffffffffffffffffffffffffffffffffffffff19166001600160a01b038616908117909155915191825284917f21fe5cd61055ef88f636a264885b927f3ec2b380b6053a6b4a7495a6336a95c8910162000828565b8162000d6d816200186c565b815160005b8181101562000de657600084828151811062000d925762000d9262002312565b6020026020010151905060006001600160a01b0316816001600160a01b03160362000dd05760405163538ba4f960e01b815260040160405180910390fd5b62000ddc8682620014e7565b5060010162000d72565b5050505050565b6000828152609860205260408120600501546001600160a01b03838116911614806200074f57506200074f838362001462565b8162000e2c816200186c565b6000838152609860209081526040909120835160038201908155918401518492916004019062000e5d908262002245565b50905050827fa366054a574e4f861cb295fd23b5440c5119c1ba329c36f5dfeb5643537cb0f3836040516200082891906200237d565b600054600190610100900460ff1615801562000eb6575060005460ff8083169116105b62000f2a5760405162461bcd60e51b815260206004820152602e60248201527f496e697469616c697a61626c653a20636f6e747261637420697320616c72656160448201527f647920696e697469616c697a65640000000000000000000000000000000000006064820152608401620009fa565b6000805461ffff191660ff8316176101001790556001600160a01b03821662000f665760405163538ba4f960e01b815260040160405180910390fd5b62000f927f815b5a78dc333d344c7df9da23c04dbd432015cc701876ddb9ffe850e688274783620014e7565b6000805461ff001916905560405160ff821681527f7f26b83ff96e1f2b6a682f133852f6798a09c465da95921460cefb38474024989060200160405180910390a15050565b60008262000fe5816200186c565b62000ff184846200165e565b60008581526098602052604090209092506002810162001012858262002245565b506006810180546001600160a01b03908116600090815260976020526040808220829055835473ffffffffffffffffffffffffffffffffffffffff19169287169283179093559081528190208690555185907f54cd733148631b9ff1cb945f2d0dcd33c0692e154763bfa2f35e2d10a76c432f9062001095908790879062002392565b60405180910390a2505092915050565b600082815260656020526040902060010154620010c2816200148e565b6200097a83836200158b565b620010d862001ba4565b6001600160a01b0382166000908152609760209081526040808320548084526098835292819020815160c0810183528154815260018201549381019390935260028101805491928401916200112d906200219d565b80601f01602080910402602001604051908101604052809291908181526020018280546200115b906200219d565b8015620011ac5780601f106200118057610100808354040283529160200191620011ac565b820191906000526020600020905b8154815290600101906020018083116200118e57829003601f168201915b505050505081526020016003820160405180604001604052908160008201548152602001600182018054620011e1906200219d565b80601f01602080910402602001604051908101604052809291908181526020018280546200120f906200219d565b8015620012605780601f10620012345761010080835404028352916020019162001260565b820191906000526020600020905b8154815290600101906020018083116200124257829003601f168201915b50505091909252505050815260058201546001600160a01b0390811660208301526006909201549091166040909101529392505050565b81620012a3816200186c565b815160005b8181101562000de657620012d985858381518110620012cb57620012cb62002312565b60200260200101516200158b565b600101620012a8565b609860205260009081526040902080546001820154600283018054929391926200130c906200219d565b80601f01602080910402602001604051908101604052809291908181526020018280546200133a906200219d565b80156200138b5780601f106200135f576101008083540402835291602001916200138b565b820191906000526020600020905b8154815290600101906020018083116200136d57829003601f168201915b5050505050908060030160405180604001604052908160008201548152602001600182018054620013bc906200219d565b80601f0160208091040260200160405190810160405280929190818152602001828054620013ea906200219d565b80156200143b5780601f106200140f576101008083540402835291602001916200143b565b820191906000526020600020905b8154815290600101906020018083116200141d57829003601f168201915b50505091909252505050600582015460069092015490916001600160a01b03908116911686565b60008281526065602090815260408083206001600160a01b038516845290915281205460ff166200074f565b6200149a8133620018a7565b50565b7fffffffffffffffffffffffff11111111111111111111111111111111111111126001600160a01b03841601620014da576200097a828262001925565b6200097a83838362001942565b60008281526065602090815260408083206001600160a01b038516845290915290205460ff1662000a0f5760008281526065602090815260408083206001600160a01b03851684529091529020805460ff19166001179055620015473390565b6001600160a01b0316816001600160a01b0316837f2f8788117e7eff1d82e926ec794901d17c78024a50270940304540a733656f0d60405160405180910390a45050565b60008281526065602090815260408083206001600160a01b038516845290915290205460ff161562000a0f5760008281526065602090815260408083206001600160a01b0385168085529252808320805460ff1916905551339285917ff6391f5c32d9c69d2a47ea670b442974b53935d1edc7fd64eb21e047a839171b9190a45050565b600082826040516020016200164092919091825260601b6bffffffffffffffffffffffff1916602082015260340190565b60405160208183030381529060405280519060200120905092915050565b600080838360405160200162001676929190620023bf565b60408051808303601f1901815282825260208301879052308383015281518084038301815260608401928390529093509160009190620016b99060800162001bf9565b601f1982820381018352601f909101166040819052620016df91908490602001620023da565b60408051601f198184030181529082905284516020868101919091208251828401207fff00000000000000000000000000000000000000000000000000000000000000928501929092526bffffffffffffffffffffffff193060601b166021850152603584018190526055840191909152909250906000906075016040516020818303038152906040528051906020012060001c9050818830604051620017869062001bf9565b9182526001600160a01b031660208201526040018190604051809103906000f590508015620017b25760015b6200185e5787816001600160a01b03166308386eba6040518163ffffffff1660e01b8152600401602060405180830381865afa158015620017f7573d6000803e3d6000fd5b505050506040513d601f19601f820116820180604052508101906200181d9190620021d9565b1462001855576040517f113b81f000000000000000000000000000000000000000000000000000000000815260040160405180910390fd5b80955062001861565b95505b505050505092915050565b6000818152609860205260409020600501546001600160a01b031633146200149a5760405163075fd2b160e01b815260040160405180910390fd5b60008281526065602090815260408083206001600160a01b038516845290915290205460ff1662000a0f57620018dd8162001992565b620018ea836020620019a5565b604051602001620018fd9291906200240d565b60408051601f198184030181529082905262461bcd60e51b8252620009fa9160040162002492565b60008060008084865af162000a0f5763b12d13eb6000526004601cfd5b81601452806034526fa9059cbb00000000000000000000000060005260206000604460106000875af13d15600160005114171662001988576390b8ec186000526004601cfd5b6000603452505050565b60606200073b6001600160a01b03831660145b60606000620019b6836002620024bd565b620019c3906002620024d7565b67ffffffffffffffff811115620019de57620019de62001dde565b6040519080825280601f01601f19166020018201604052801562001a09576020820181803683370190505b5090507f30000000000000000000000000000000000000000000000000000000000000008160008151811062001a435762001a4362002312565b60200101906001600160f81b031916908160001a9053507f78000000000000000000000000000000000000000000000000000000000000008160018151811062001a915762001a9162002312565b60200101906001600160f81b031916908160001a905350600062001ab7846002620024bd565b62001ac4906001620024d7565b90505b600181111562001b53577f303132333435363738396162636465660000000000000000000000000000000085600f166010811062001b095762001b0962002312565b1a60f81b82828151811062001b225762001b2262002312565b60200101906001600160f81b031916908160001a90535060049490941c9362001b4b81620024ed565b905062001ac7565b5083156200074f5760405162461bcd60e51b815260206004820181905260248201527f537472696e67733a20686578206c656e67746820696e73756666696369656e746044820152606401620009fa565b6040518060c0016040528060008019168152602001600081526020016060815260200162001be5604051806040016040528060008152602001606081525090565b815260006020820181905260409091015290565b610959806200250883390190565b60006020828403121562001c1a57600080fd5b5035919050565b60005b8381101562001c3e57818101518382015260200162001c24565b50506000910152565b6000815180845262001c6181602086016020860162001c21565b601f01601f19169290920160200192915050565b80518252600060208201516040602085015262001c96604085018262001c47565b949350505050565b6020815281516020820152602082015160408201526000604083015160c0606084015262001cd060e084018262001c47565b90506060840151601f1984830301608085015262001cef828262001c75565b91505060808401516001600160a01b0380821660a08601528060a08701511660c086015250508091505092915050565b60006020828403121562001d3257600080fd5b81357fffffffff00000000000000000000000000000000000000000000000000000000811681146200074f57600080fd5b80356001600160a01b038116811462001d7b57600080fd5b919050565b6000806040838503121562001d9457600080fd5b8235915062001da66020840162001d63565b90509250929050565b6000806040838503121562001dc357600080fd5b62001dce8362001d63565b915062001da66020840162001d63565b634e487b7160e01b600052604160045260246000fd5b604051601f8201601f1916810167ffffffffffffffff8111828210171562001e205762001e2062001dde565b604052919050565b600082601f83011262001e3a57600080fd5b813567ffffffffffffffff81111562001e575762001e5762001dde565b62001e6c601f8201601f191660200162001df4565b81815284602083860101111562001e8257600080fd5b816020850160208301376000918101602001919091529392505050565b60006040828403121562001eb257600080fd5b6040516040810167ffffffffffffffff828210818311171562001ed95762001ed962001dde565b8160405282935084358352602085013591508082111562001ef957600080fd5b5062001f088582860162001e28565b6020830152505092915050565b600082601f83011262001f2757600080fd5b8135602067ffffffffffffffff82111562001f465762001f4662001dde565b8160051b62001f5782820162001df4565b928352848101820192828101908785111562001f7257600080fd5b83870192505b8483101562001f9c5762001f8c8362001d63565b8252918301919083019062001f78565b979650505050505050565b600080600080600060a0868803121562001fc057600080fd5b85359450602086013567ffffffffffffffff8082111562001fe057600080fd5b62001fee89838a0162001e28565b955060408801359150808211156200200557600080fd5b6200201389838a0162001e9f565b9450620020236060890162001d63565b935060808801359150808211156200203a57600080fd5b50620020498882890162001f15565b9150509295509295909350565b6000602082840312156200206957600080fd5b6200074f8262001d63565b600080604083850312156200208857600080fd5b82359150602083013567ffffffffffffffff811115620020a757600080fd5b620020b58582860162001f15565b9150509250929050565b60008060408385031215620020d357600080fd5b82359150602083013567ffffffffffffffff811115620020f257600080fd5b620020b58582860162001e9f565b600080604083850312156200211457600080fd5b82359150602083013567ffffffffffffffff8111156200213357600080fd5b620020b58582860162001e28565b86815285602082015260c0604082015260006200216260c083018762001c47565b828103606084015262002176818762001c75565b9150506001600160a01b03808516608084015280841660a084015250979650505050505050565b600181811c90821680620021b257607f821691505b602082108103620021d357634e487b7160e01b600052602260045260246000fd5b50919050565b600060208284031215620021ec57600080fd5b5051919050565b601f8211156200097a57600081815260208120601f850160051c810160208610156200221c5750805b601f850160051c820191505b818110156200223d5782815560010162002228565b505050505050565b815167ffffffffffffffff81111562002262576200226262001dde565b6200227a816200227384546200219d565b84620021f3565b602080601f831160018114620022b25760008415620022995750858301515b600019600386901b1c1916600185901b1785556200223d565b600085815260208120601f198616915b82811015620022e357888601518255948401946001909101908401620022c2565b5085821015620023025787850151600019600388901b60f8161c191681555b5050505050600190811b01905550565b634e487b7160e01b600052603260045260246000fd5b85815260a0602082015260006200234360a083018762001c47565b828103604084015262002357818762001c75565b9150506001600160a01b0380851660608401528084166080840152509695505050505050565b6020815260006200074f602083018462001c75565b604081526000620023a7604083018562001c47565b90506001600160a01b03831660208301529392505050565b82815260406020820152600062001c96604083018462001c47565b60008351620023ee81846020880162001c21565b8351908301906200240481836020880162001c21565b01949350505050565b7f416363657373436f6e74726f6c3a206163636f756e74200000000000000000008152600083516200244781601785016020880162001c21565b7f206973206d697373696e6720726f6c652000000000000000000000000000000060179184019182015283516200248681602884016020880162001c21565b01602801949350505050565b6020815260006200074f602083018462001c47565b634e487b7160e01b600052601160045260246000fd5b80820281158282048414176200073b576200073b620024a7565b808201808211156200073b576200073b620024a7565b600081620024ff57620024ff620024a7565b50600019019056fe60c060405234801561001057600080fd5b5060405161095938038061095983398101604081905261002f91610043565b6001600160a01b031660805260a052610080565b6000806040838503121561005657600080fd5b825160208401519092506001600160a01b038116811461007557600080fd5b809150509250929050565b60805160a0516108a76100b26000396000818160c701526102e8015260008181610166015261031701526108a76000f3fe6080604052600436106100745760003560e01c80637b1039991161004e5780637b10399914610154578063b61d27f6146101a0578063bc197c81146101cd578063f23a6e611461021257600080fd5b806301ffc9a71461008057806308386eba146100b5578063150b7a02146100f757600080fd5b3661007b57005b600080fd5b34801561008c57600080fd5b506100a061009b366004610471565b610257565b60405190151581526020015b60405180910390f35b3480156100c157600080fd5b506100e97f000000000000000000000000000000000000000000000000000000000000000081565b6040519081526020016100ac565b34801561010357600080fd5b5061013b61011236600461058e565b7f150b7a0200000000000000000000000000000000000000000000000000000000949350505050565b6040516001600160e01b031990911681526020016100ac565b34801561016057600080fd5b506101887f000000000000000000000000000000000000000000000000000000000000000081565b6040516001600160a01b0390911681526020016100ac565b3480156101ac57600080fd5b506101c06101bb3660046105f6565b6102c0565b6040516100ac9190610671565b3480156101d957600080fd5b5061013b6101e8366004610724565b7fbc197c810000000000000000000000000000000000000000000000000000000095945050505050565b34801561021e57600080fd5b5061013b61022d3660046107ce565b7ff23a6e610000000000000000000000000000000000000000000000000000000095945050505050565b60006001600160e01b031982167f4e2312e00000000000000000000000000000000000000000000000000000000014806102ba57507f01ffc9a7000000000000000000000000000000000000000000000000000000006001600160e01b03198316145b92915050565b6040517f39b86b8c0000000000000000000000000000000000000000000000000000000081527f000000000000000000000000000000000000000000000000000000000000000060048201523360248201526060907f00000000000000000000000000000000000000000000000000000000000000006001600160a01b0316906339b86b8c90604401602060405180830381865afa158015610366573d6000803e3d6000fd5b505050506040513d601f19601f8201168201806040525081019061038a9190610833565b6103c0576040517f075fd2b100000000000000000000000000000000000000000000000000000000815260040160405180910390fd5b6001600160a01b0384166103e7576040516384aed38d60e01b815260040160405180910390fd5b600080856001600160a01b031685856040516104039190610855565b60006040518083038185875af1925050503d8060008114610440576040519150601f19603f3d011682016040523d82523d6000602084013e610445565b606091505b509150915081610468576040516384aed38d60e01b815260040160405180910390fd5b95945050505050565b60006020828403121561048357600080fd5b81356001600160e01b03198116811461049b57600080fd5b9392505050565b80356001600160a01b03811681146104b957600080fd5b919050565b7f4e487b7100000000000000000000000000000000000000000000000000000000600052604160045260246000fd5b604051601f8201601f1916810167ffffffffffffffff81118282101715610516576105166104be565b604052919050565b600082601f83011261052f57600080fd5b813567ffffffffffffffff811115610549576105496104be565b61055c601f8201601f19166020016104ed565b81815284602083860101111561057157600080fd5b816020850160208301376000918101602001919091529392505050565b600080600080608085870312156105a457600080fd5b6105ad856104a2565b93506105bb602086016104a2565b925060408501359150606085013567ffffffffffffffff8111156105de57600080fd5b6105ea8782880161051e565b91505092959194509250565b60008060006060848603121561060b57600080fd5b610614846104a2565b925060208401359150604084013567ffffffffffffffff81111561063757600080fd5b6106438682870161051e565b9150509250925092565b60005b83811015610668578181015183820152602001610650565b50506000910152565b602081526000825180602084015261069081604085016020870161064d565b601f01601f19169190910160400192915050565b600082601f8301126106b557600080fd5b8135602067ffffffffffffffff8211156106d1576106d16104be565b8160051b6106e08282016104ed565b92835284810182019282810190878511156106fa57600080fd5b83870192505b8483101561071957823582529183019190830190610700565b979650505050505050565b600080600080600060a0868803121561073c57600080fd5b610745866104a2565b9450610753602087016104a2565b9350604086013567ffffffffffffffff8082111561077057600080fd5b61077c89838a016106a4565b9450606088013591508082111561079257600080fd5b61079e89838a016106a4565b935060808801359150808211156107b457600080fd5b506107c18882890161051e565b9150509295509295909350565b600080600080600060a086880312156107e657600080fd5b6107ef866104a2565b94506107fd602087016104a2565b93506040860135925060608601359150608086013567ffffffffffffffff81111561082757600080fd5b6107c18882890161051e565b60006020828403121561084557600080fd5b8151801515811461049b57600080fd5b6000825161086781846020870161064d565b919091019291505056fea264697066735822122001ed55c5497b4f21ebcc53dc09c8345788990de00d4fed233d5e70d2c121c9aa64736f6c63430008130033a2646970667358221220d788251c7a3683faa5b84a0db3736d4d6f83f1035a79f333120bf47ffb11c29064736f6c63430008130033","linkReferences":{}},"methodIdentifiers":{"ALLO_OWNER()":"cfda7e0a","DEFAULT_ADMIN_ROLE()":"a217fddf","NATIVE()":"a0cf0aea","acceptProfileOwnership(bytes32)":"2497f3c6","addMembers(bytes32,address[])":"5063f361","anchorToProfileId(address)":"4756487f","createProfile(uint256,string,(uint256,string),address,address[])":"3a92f65f","getProfileByAnchor(address)":"dd93da43","getProfileById(bytes32)":"0114cf0a","getRoleAdmin(bytes32)":"248a9ca3","grantRole(bytes32,address)":"2f2ff15d","hasRole(bytes32,address)":"91d14854","initialize(address)":"c4d66de8","isMemberOfProfile(bytes32,address)":"0ec1fbac","isOwnerOfProfile(bytes32,address)":"39b86b8c","isOwnerOrMemberOfProfile(bytes32,address)":"5e8a7915","profileIdToPendingOwner(bytes32)":"50d005e0","profilesById(bytes32)":"ee888196","recoverFunds(address,address)":"24ae6a27","removeMembers(bytes32,address[])":"e0cf1e4c","renounceRole(bytes32,address)":"36568abe","revokeRole(bytes32,address)":"d547741f","supportsInterface(bytes4)":"01ffc9a7","updateProfileMetadata(bytes32,(uint256,string))":"ac402839","updateProfileName(bytes32,string)":"cf189ff2","updateProfilePendingOwner(bytes32,address)":"3b66dacd"},"id":2}