{"abi":[{"type":"function","name":"ALLO_OWNER","inputs":[],"outputs":[{"name":"","type":"bytes32","internalType":"bytes32"}],"stateMutability":"view"},{"type":"function","name":"DEFAULT_ADMIN_ROLE","inputs":[],"outputs":[{"name":"","type":"bytes32","internalType":"bytes32"}],"stateMutability":"view"},{"type":"function","name":"NATIVE","inputs":[],"outputs":[{"name":"","type":"address","internalType":"address"}],"stateMutability":"view"},{"type":"function","name":"acceptProfileOwnership","inputs":[{"name":"_profileId","type":"bytes32","internalType":"bytes32"}],"outputs":[],"stateMutability":"nonpayable"},{"type":"function","name":"addMembers","inputs":[{"name":"_profileId","type":"bytes32","internalType":"bytes32"},{"name":"_members","type":"address[]","internalType":"address[]"}],"outputs":[],"stateMutability":"nonpayable"},{"type":"function","name":"anchorToProfileId","inputs":[{"name":"","type":"address","internalType":"address"}],"outputs":[{"name":"","type":"bytes32","internalType":"bytes32"}],"stateMutability":"view"},{"type":"function","name":"createProfile","inputs":[{"name":"_nonce","type":"uint256","internalType":"uint256"},{"name":"_name","type":"string","internalType":"string"},{"name":"_metadata","type":"tuple","internalType":"struct Metadata","components":[{"name":"protocol","type":"uint256","internalType":"uint256"},{"name":"pointer","type":"string","internalType":"string"}]},{"name":"_owner","type":"address","internalType":"address"},{"name":"_members","type":"address[]","internalType":"address[]"}],"outputs":[{"name":"","type":"bytes32","internalType":"bytes32"}],"stateMutability":"nonpayable"},{"type":"function","name":"getProfileByAnchor","inputs":[{"name":"_anchor","type":"address","internalType":"address"}],"outputs":[{"name":"","type":"tuple","internalType":"struct IRegistry.Profile","components":[{"name":"id","type":"bytes32","internalType":"bytes32"},{"name":"nonce","type":"uint256","internalType":"uint256"},{"name":"name","type":"string","internalType":"string"},{"name":"metadata","type":"tuple","internalType":"struct Metadata","components":[{"name":"protocol","type":"uint256","internalType":"uint256"},{"name":"pointer","type":"string","internalType":"string"}]},{"name":"owner","type":"address","internalType":"address"},{"name":"anchor","type":"address","internalType":"address"}]}],"stateMutability":"view"},{"type":"function","name":"getProfileById","inputs":[{"name":"_profileId","type":"bytes32","internalType":"bytes32"}],"outputs":[{"name":"","type":"tuple","internalType":"struct IRegistry.Profile","components":[{"name":"id","type":"bytes32","internalType":"bytes32"},{"name":"nonce","type":"uint256","internalType":"uint256"},{"name":"name","type":"string","internalType":"string"},{"name":"metadata","type":"tuple","internalType":"struct Metadata","components":[{"name":"protocol","type":"uint256","internalType":"uint256"},{"name":"pointer","type":"string","internalType":"string"}]},{"name":"owner","type":"address","internalType":"address"},{"name":"anchor","type":"address","internalType":"address"}]}],"stateMutability":"view"},{"type":"function","name":"getRoleAdmin","inputs":[{"name":"role","type":"bytes32","internalType":"bytes32"}],"outputs":[{"name":"","type":"bytes32","internalType":"bytes32"}],"stateMutability":"view"},{"type":"function","name":"grantRole","inputs":[{"name":"role","type":"bytes32","internalType":"bytes32"},{"name":"account","type":"address","internalType":"address"}],"outputs":[],"stateMutability":"nonpayable"},{"type":"function","name":"hasRole","inputs":[{"name":"role","type":"bytes32","internalType":"bytes32"},{"name":"account","type":"address","internalType":"address"}],"outputs":[{"name":"","type":"bool","internalType":"bool"}],"stateMutability":"view"},{"type":"function","name":"initialize","inputs":[{"name":"_owner","type":"address","internalType":"address"}],"outputs":[],"stateMutability":"nonpayable"},{"type":"function","name":"isMemberOfProfile","inputs":[{"name":"_profileId","type":"bytes32","internalType":"bytes32"},{"name":"_member","type":"address","internalType":"address"}],"outputs":[{"name":"","type":"bool","internalType":"bool"}],"stateMutability":"view"},{"type":"function","name":"isOwnerOfProfile","inputs":[{"name":"_profileId","type":"bytes32","internalType":"bytes32"},{"name":"_owner","type":"address","internalType":"address"}],"outputs":[{"name":"","type":"bool","internalType":"bool"}],"stateMutability":"view"},{"type":"function","name":"isOwnerOrMemberOfProfile","inputs":[{"name":"_profileId","type":"bytes32","internalType":"bytes32"},{"name":"_account","type":"address","internalType":"address"}],"outputs":[{"name":"","type":"bool","internalType":"bool"}],"stateMutability":"view"},{"type":"function","name":"profileIdToPendingOwner","inputs":[{"name":"","type":"bytes32","internalType":"bytes32"}],"outputs":[{"name":"","type":"address","internalType":"address"}],"stateMutability":"view"},{"type":"function","name":"profilesById","inputs":[{"name":"","type":"bytes32","internalType":"bytes32"}],"outputs":[{"name":"id","type":"bytes32","internalType":"bytes32"},{"name":"nonce","type":"uint256","internalType":"uint256"},{"name":"name","type":"string","internalType":"string"},{"name":"metadata","type":"tuple","internalType":"struct Metadata","components":[{"name":"protocol","type":"uint256","internalType":"uint256"},{"name":"pointer","type":"string","internalType":"string"}]},{"name":"owner","type":"address","internalType":"address"},{"name":"anchor","type":"address","internalType":"address"}],"stateMutability":"view"},{"type":"function","name":"recoverFunds","inputs":[{"name":"_token","type":"address","internalType":"address"},{"name":"_recipient","type":"address","internalType":"address"}],"outputs":[],"stateMutability":"nonpayable"},{"type":"function","name":"removeMembers","inputs":[{"name":"_profileId","type":"bytes32","internalType":"bytes32"},{"name":"_members","type":"address[]","internalType":"address[]"}],"outputs":[],"stateMutability":"nonpayable"},{"type":"function","name":"renounceRole","inputs":[{"name":"role","type":"bytes32","internalType":"bytes32"},{"name":"account","type":"address","internalType":"address"}],"outputs":[],"stateMutability":"nonpayable"},{"type":"function","name":"revokeRole","inputs":[{"name":"role","type":"bytes32","internalType":"bytes32"},{"name":"account","type":"address","internalType":"address"}],"outputs":[],"stateMutability":"nonpayable"},{"type":"function","name":"supportsInterface","inputs":[{"name":"interfaceId","type":"bytes4","internalType":"bytes4"}],"outputs":[{"name":"","type":"bool","internalType":"bool"}],"stateMutability":"view"},{"type":"function","name":"updateProfileMetadata","inputs":[{"name":"_profileId","type":"bytes32","internalType":"bytes32"},{"name":"_metadata","type":"tuple","internalType":"struct Metadata","components":[{"name":"protocol","type":"uint256","internalType":"uint256"},{"name":"pointer","type":"string","internalType":"string"}]}],"outputs":[],"stateMutability":"nonpayable"},{"type":"function","name":"updateProfileName","inputs":[{"name":"_profileId","type":"bytes32","internalType":"bytes32"},{"name":"_name","type":"string","internalType":"string"}],"outputs":[{"name":"anchor","type":"address","internalType":"address"}],"stateMutability":"nonpayable"},{"type":"function","name":"updateProfilePendingOwner","inputs":[{"name":"_profileId","type":"bytes32","internalType":"bytes32"},{"name":"_pendingOwner","type":"address","internalType":"address"}],"outputs":[],"stateMutability":"nonpayable"},{"type":"event","name":"Initialized","inputs":[{"name":"version","type":"uint8","indexed":false,"internalType":"uint8"}],"anonymous":false},{"type":"event","name":"ProfileCreated","inputs":[{"name":"profileId","type":"bytes32","indexed":true,"internalType":"bytes32"},{"name":"nonce","type":"uint256","indexed":false,"internalType":"uint256"},{"name":"name","type":"string","indexed":false,"internalType":"string"},{"name":"metadata","type":"tuple","indexed":false,"internalType":"struct Metadata","components":[{"name":"protocol","type":"uint256","internalType":"uint256"},{"name":"pointer","type":"string","internalType":"string"}]},{"name":"owner","type":"address","indexed":false,"internalType":"address"},{"name":"anchor","type":"address","indexed":false,"internalType":"address"}],"anonymous":false},{"type":"event","name":"ProfileMetadataUpdated","inputs":[{"name":"profileId","type":"bytes32","indexed":true,"internalType":"bytes32"},{"name":"metadata","type":"tuple","indexed":false,"internalType":"struct Metadata","components":[{"name":"protocol","type":"uint256","internalType":"uint256"},{"name":"pointer","type":"string","internalType":"string"}]}],"anonymous":false},{"type":"event","name":"ProfileNameUpdated","inputs":[{"name":"profileId","type":"bytes32","indexed":true,"internalType":"bytes32"},{"name":"name","type":"string","indexed":false,"internalType":"string"},{"name":"anchor","type":"address","indexed":false,"internalType":"address"}],"anonymous":false},{"type":"event","name":"ProfileOwnerUpdated","inputs":[{"name":"profileId","type":"bytes32","indexed":true,"internalType":"bytes32"},{"name":"owner","type":"address","indexed":false,"internalType":"address"}],"anonymous":false},{"type":"event","name":"ProfilePendingOwnerUpdated","inputs":[{"name":"profileId","type":"bytes32","indexed":true,"internalType":"bytes32"},{"name":"pendingOwner","type":"address","indexed":false,"internalType":"address"}],"anonymous":false},{"type":"event","name":"RoleAdminChanged","inputs":[{"name":"role","type":"bytes32","indexed":true,"internalType":"bytes32"},{"name":"previousAdminRole","type":"bytes32","indexed":true,"internalType":"bytes32"},{"name":"newAdminRole","type":"bytes32","indexed":true,"internalType":"bytes32"}],"anonymous":false},{"type":"event","name":"RoleGranted","inputs":[{"name":"role","type":"bytes32","indexed":true,"internalType":"bytes32"},{"name":"account","type":"address","indexed":true,"internalType":"address"},{"name":"sender","type":"address","indexed":true,"internalType":"address"}],"anonymous":false},{"type":"event","name":"RoleRevoked","inputs":[{"name":"role","type":"bytes32","indexed":true,"internalType":"bytes32"},{"name":"account","type":"address","indexed":true,"internalType":"address"},{"name":"sender","type":"address","indexed":true,"internalType":"address"}],"anonymous":false},{"type":"error","name":"ALLOCATION_ACTIVE","inputs":[]},{"type":"error","name":"ALLOCATION_NOT_ACTIVE","inputs":[]},{"type":"error","name":"ALLOCATION_NOT_ENDED","inputs":[]},{"type":"error","name":"ALREADY_INITIALIZED","inputs":[]},{"type":"error","name":"AMOUNT_MISMATCH","inputs":[]},{"type":"error","name":"ANCHOR_ERROR","inputs":[]},{"type":"error","name":"ARRAY_MISMATCH","inputs":[]},{"type":"error","name":"INVALID","inputs":[]},{"type":"error","name":"INVALID_ADDRESS","inputs":[]},{"type":"error","name":"INVALID_FEE","inputs":[]},{"type":"error","name":"INVALID_METADATA","inputs":[]},{"type":"error","name":"INVALID_REGISTRATION","inputs":[]},{"type":"error","name":"IS_APPROVED_STRATEGY","inputs":[]},{"type":"error","name":"MISMATCH","inputs":[]},{"type":"error","name":"NONCE_NOT_AVAILABLE","inputs":[]},{"type":"error","name":"NON_ZERO_VALUE","inputs":[]},{"type":"error","name":"NOT_APPROVED_STRATEGY","inputs":[]},{"type":"error","name":"NOT_ENOUGH_FUNDS","inputs":[]},{"type":"error","name":"NOT_IMPLEMENTED","inputs":[]},{"type":"error","name":"NOT_INITIALIZED","inputs":[]},{"type":"error","name":"NOT_PENDING_OWNER","inputs":[]},{"type":"error","name":"POOL_ACTIVE","inputs":[]},{"type":"error","name":"POOL_INACTIVE","inputs":[]},{"type":"error","name":"RECIPIENT_ALREADY_ACCEPTED","inputs":[]},{"type":"error","name":"RECIPIENT_ERROR","inputs":[{"name":"recipientId","type":"address","internalType":"address"}]},{"type":"error","name":"RECIPIENT_NOT_ACCEPTED","inputs":[]},{"type":"error","name":"REGISTRATION_ACTIVE","inputs":[]},{"type":"error","name":"REGISTRATION_NOT_ACTIVE","inputs":[]},{"type":"error","name":"UNAUTHORIZED","inputs":[]},{"type":"error","name":"ZERO_ADDRESS","inputs":[]}],"bytecode":{"object":"0x60808060405234610016576127f7908161001c8239f35b600080fdfe608060405260043610156200001357600080fd5b60003560e01c80630114cf0a146200162057806301ffc9a714620015c55780630ec1fbac1462001599578063248a9ca314620015685780632497f3c614620014bd57806324ae6a27146200118b5780632f2ff15d146200114457806336568abe14620010ab57806339b86b8c14620010755780633a92f65f1462000b165780633b66dacd1462000a965780634756487f1462000a585780635063f36114620009f957806350d005e014620009c35780635e8a7915146200096c57806391d14854146200091b578063a0cf0aea14620008ea578063a217fddf14620008cc578063ac402839146200071b578063c4d66de8146200059e578063cf189ff21462000383578063cfda7e0a1462000357578063d547741f146200030e578063dd93da431462000252578063e0cf1e4c14620001fb5763ee888196146200015557600080fd5b34620001f6576020366003190112620001f6576004356000526098602052604060002080546001820154916200018e60028201620019d8565b620001e7620001a06003840162001a8a565b620001d860018060a01b0360068160058801541696015416936040519788978852602088015260c0604088015260c0870190620016e8565b9085820360608701526200170f565b91608084015260a08301520390f35b600080fd5b34620001f6576200020c3662001968565b620002178262001b0e565b80519060005b8281106200022757005b6001906200024b6001600160a01b0362000242838662001af9565b51168662001f8e565b016200021d565b34620001f6576020366003190112620001f6576200030a62000273620017b2565b6200027d62001aae565b5060018060a01b0380911660005260976020526040600020546000526098602052604060002090600660405192620002b584620017c9565b8054845260018101546020850152620002d160028201620019d8565b6040850152620002e46003820162001a8a565b606085015282600582015416608085015201541660a08201526040519182918262001731565b0390f35b34620001f6576040366003190112620001f65762000355600435620003326200179b565b908060005260656020526200034f60016040600020015462001d6c565b62001f8e565b005b34620001f6576000366003190112620001f6576020604051600080516020620027ab8339815191528152f35b34620001f6576040366003190112620001f6576001600160401b03600435602435828111620001f657620003bc90369060040162001841565b90620003c88162001b0e565b620003d4828262001b3c565b9181600052602093609885526040600020906002820190835190811162000588576200040182546200199b565b601f81116200053d575b5086601f8211600114620004bb57926000805160206200278b8339815191529492826006936200049f96600091620004af575b508160011b916000199060031b1c19161790555b019460018060a01b039081875416600052609788526000604081205516948560018060a01b03198254161790558460005283604060002055604051918291604083526040830190620016e8565b85878301520390a2604051908152f35b90508501518b6200043e565b601f1982169083600052886000209160005b8a82821062000526575050836200049f96936000805160206200278b833981519152989693600696600194106200050c575b5050811b01905562000452565b87015160001960f88460031b161c191690558b80620004ff565b600184958293958b015181550194019201620004cd565b8260005287600020601f830160051c8101918984106200057d575b601f0160051c01905b8181106200057057506200040b565b6000815560010162000561565b909150819062000558565b634e487b7160e01b600052604160045260246000fd5b34620001f657602080600319360112620001f657620005bc620017b2565b60005460ff8160081c1615806200070d575b15620006b15761ffff1916610101176000556001600160a01b03169081156200069f577f7f26b83ff96e1f2b6a682f133852f6798a09c465da95921460cefb384740249891600080516020620027ab833981519152908160005260658352604060002081600052835260ff60406000205416156200065e575b505061ff00196000541660005560405160018152a1005b816000526065835260406000208160005283526040600020600160ff1982541617905533916000805160206200274b833981519152600080a4828062000647565b60405163538ba4f960e01b8152600490fd5b60405162461bcd60e51b815260048101849052602e60248201527f496e697469616c697a61626c653a20636f6e747261637420697320616c72656160448201526d191e481a5b9a5d1a585b1a5e995960921b6064820152608490fd5b50600160ff821610620005ce565b34620001f6576040366003190112620001f6576001600160401b03600435602435828111620001f657620007549036906004016200189c565b6200075f8262001b0e565b8160005260206098815260046040600020835160038201550181830151805195861162000588576200079282546200199b565b601f811162000881575b508290601f87116001146200080557958091600080516020620027cb8339815191529697600092620007f9575b50508160011b916000199060031b1c19161790555b620007f46040519282849384528301906200170f565b0390a2005b015190508780620007c9565b90601f1987169183600052846000209260005b818110620008695750916001939189600080516020620027cb833981519152999a94106200084f575b505050811b019055620007de565b015160001960f88460031b161c1916905587808062000841565b92938660018192878601518155019501930162000818565b8260005283600020601f880160051c810191858910620008c1575b601f0160051c01905b818110620008b457506200079c565b60008155600101620008a5565b90915081906200089c565b34620001f6576000366003190112620001f657602060405160008152f35b34620001f6576000366003190112620001f657602060405173eeeeeeeeeeeeeeeeeeeeeeeeeeeeeeeeeeeeeeee8152f35b34620001f6576040366003190112620001f657620009386200179b565b600435600052606560205260406000209060018060a01b0316600052602052602060ff604060002054166040519015158152f35b34620001f6576040366003190112620001f65760206004356200098e6200179b565b6200099a818362001d21565b918215620009af575b50506040519015158152f35b620009bb925062001d44565b8280620009a3565b34620001f6576020366003190112620001f6576004356000526099602052602060018060a01b0360406000205416604051908152f35b34620001f65762000a0a3662001968565b62000a158262001b0e565b80519060005b82811062000a2557005b6001600160a01b0362000a39828462001af9565b51169081156200069f5762000a516001928662001f24565b0162000a1b565b34620001f6576020366003190112620001f6576001600160a01b0362000a7d620017b2565b1660005260976020526020604060002054604051908152f35b34620001f6576040366003190112620001f6576004357f21fe5cd61055ef88f636a264885b927f3ec2b380b6053a6b4a7495a6336a95c8602062000ad96200179b565b62000ae48462001b0e565b60008481526099835260409081902080546001600160a01b0319166001600160a01b03909316928317905551908152a2005b34620001f65760a0366003190112620001f6576004356024356001600160401b038111620001f65762000b4e90369060040162001841565b906044356001600160401b038111620001f65762000b719036906004016200189c565b91606435906001600160a01b0382168203620001f6576084356001600160401b038111620001f65762000ba9903690600401620018ea565b6040805160208101868152606086811b6001600160601b03191693830193909352603482529181019692939291906001600160401b038811818910176200058857876040525190209586600052609860205260018060a01b03600660406000200154166200106657506001600160a01b038416156200069f5762000c2e828762001b3c565b916040519562000c3e87620017c9565b8787526020808801918252604080890193845260608901949094526001600160a01b0387811660808a01529490941660a08801526000888152609890945291909220855181559051600182015590518051906001600160401b0382116200058857819062000cb060028501546200199b565b601f81116200100e575b50602090601f831160011462000f975760009262000f8b575b50508160011b916000199060031b1c19161760028201555b606084015180516003830155602001518051906001600160401b0382116200058857819062000d1e60048501546200199b565b601f811162000f33575b50602090601f831160011462000ec15760009262000eb5575b50508160011b916000199060031b1c19161760048201555b60808401516005820180546001600160a01b039283166001600160a01b03199182161790915560a086015160069093018054939092169216821790556000908152609760205260409020849055805191821515908162000ea0575b5062000e8e5760005b82811062000e5b57602085807f1e28352ff00d67474b59b87e6817d6ba65daa0130446266db8640214d8b806098784810151604082015191606081015162000e4560018060a01b036080840151169260a0600180821b03910151169162000e36604051968796875260a08c88015260a0870190620016e8565b9085820360408701526200170f565b91606084015260808301520390a2604051908152f35b6001600160a01b0362000e6f828462001af9565b51169081156200069f5762000e876001928762001f24565b0162000dbd565b60405163075fd2b160e01b8152600490fd5b6001600160a01b031633141590508562000db4565b01519050878062000d41565b600485016000908152602081209350601f198516905b81811062000f1a575090846001959493921062000f00575b505050811b01600482015562000d59565b015160001960f88460031b161c1916905587808062000eef565b9293602060018192878601518155019501930162000ed7565b909150600484016000526020600020601f840160051c81016020851062000f83575b90849392915b601f830160051c8201811062000f7357505062000d28565b6000815585945060010162000f5b565b508062000f55565b01519050878062000cd3565b9250600284016000526020600020906000935b601f198416851062000ff2576001945083601f1981161062000fd8575b505050811b01600282015562000ceb565b015160001960f88460031b161c1916905587808062000fc7565b8181015183556020948501946001909301929091019062000faa565b909150600284016000526020600020601f840160051c8101602085106200105e575b90849392915b601f830160051c820181106200104e57505062000cba565b6000815585945060010162001036565b508062001030565b630527e05960e41b8152600490fd5b34620001f6576040366003190112620001f6576020620010a1620010986200179b565b60043562001d21565b6040519015158152f35b34620001f6576040366003190112620001f657620010c86200179b565b336001600160a01b03821603620010e757620003559060043562001f8e565b60405162461bcd60e51b815260206004820152602f60248201527f416363657373436f6e74726f6c3a2063616e206f6e6c792072656e6f756e636560448201526e103937b632b9903337b91039b2b63360891b6064820152608490fd5b34620001f6576040366003190112620001f65762000355600435620011686200179b565b908060005260656020526200118560016040600020015462001d6c565b62001f24565b34620001f6576040366003190112620001f657620011a8620017b2565b620011b26200179b565b3360009081527f4b3829d867e62b811a7a862bbf8afb7a8eb18e86c071c1039bdebff5606d62536020908152604090912054600080516020620027ab8339815191529060ff16156200131357506001600160a01b03828116156200069f5783169273eeeeeeeeeeeeeeeeeeeeeeeeeeeeeeeeeeeeeeee84149382856000146200129e57505047935b1562001261575050600080809381935af1156200125357005b63b12d13eb6000526004601cfd5b600060109160449395829560145260345263a9059cbb60601b82525af13d156001600051141716156200129057005b6390b8ec186000526004601cfd5b6040516370a0823160e01b815230600482015291829060249082905afa9081156200130757600091620012d4575b50936200123a565b90508281813d8311620012ff575b620012ee81836200181d565b81010312620001f6575185620012cc565b503d620012e2565b6040513d6000823e3d90fd5b906200131f3362002017565b916040516200132e8162001801565b60428152828101916060368437815115620014a757603083538151600190811015620014a757607860218401536041905b808211620014485750506200141657620013df93620013ef9260489260405196879376020b1b1b2b9b9a1b7b73a3937b61d1030b1b1b7bab73a1604d1b88860152620013b5815180928a603789019101620016c3565b8401917001034b99036b4b9b9b4b733903937b6329607d1b603784015251809386840190620016c3565b010360288101855201836200181d565b6200141260405192839262461bcd60e51b845260048401526024830190620016e8565b0390fd5b6064836040519062461bcd60e51b825280600483015260248201526000805160206200276b8339815191526044820152fd5b9091600f81166010811015620014a7576f181899199a1a9b1b9c1cb0b131b232b360811b901a6200147a848662002005565b5360041c918015620014915760001901906200135f565b634e487b7160e01b600052601160045260246000fd5b634e487b7160e01b600052603260045260246000fd5b34620001f6576020366003190112620001f6576004358060005260986020526040600020609960205260018060a01b039081604060002054169182330362001556577ffd9ad63830df7bdf1586c8293dc88a30864cb43e9037e7afdb2c7210facf217d926005602093019060018060a01b03199081835416178255856000526099845260406000209081541690555416604051908152a2005b604051630b4d48c160e41b8152600490fd5b34620001f6576020366003190112620001f65760043560005260656020526020600160406000200154604051908152f35b34620001f6576040366003190112620001f6576020620010a1620015bc6200179b565b60043562001d44565b34620001f6576020366003190112620001f65760043563ffffffff60e01b8116809103620001f657602090637965db0b60e01b81149081156200160e575b506040519015158152f35b6301ffc9a760e01b1490508262001603565b34620001f6576020366003190112620001f6576200163d62001aae565b5060043560005260986020526200030a6040600020604051906200166182620017c9565b80548252600181015460208301526200167d60028201620019d8565b6040830152620016906003820162001a8a565b606083015260058101546001600160a01b0390811660808401526006909101541660a08201526040519182918262001731565b60005b838110620016d75750506000910152565b8181015183820152602001620016c6565b906020916200170381518092818552858086019101620016c3565b601f01601f1916010190565b90604060206200172e93805184520151918160208201520190620016e8565b90565b60208152815160208201526020820151604082015260c06200177d62001766604085015183606086015260e0850190620016e8565b6060850151848203601f190160808601526200170f565b9260a0600180821b0391826080820151168286015201511691015290565b602435906001600160a01b0382168203620001f657565b600435906001600160a01b0382168203620001f657565b60c081019081106001600160401b038211176200058857604052565b604081019081106001600160401b038211176200058857604052565b608081019081106001600160401b038211176200058857604052565b601f909101601f19168101906001600160401b038211908210176200058857604052565b81601f82011215620001f6578035906001600160401b03821162000588576040519262001879601f8401601f1916602001856200181d565b82845260208383010111620001f657816000926020809301838601378301015290565b9190604083820312620001f65760405190620018b882620017e5565b8335825290928391602082013591906001600160401b038311620001f657602092620018e5920162001841565b910152565b9080601f83011215620001f6578135906001600160401b03821162000588578160051b6040519360209362001922858401876200181d565b85528380860192820101928311620001f6578301905b82821062001947575050505090565b81356001600160a01b0381168103620001f657815290830190830162001938565b906040600319830112620001f65760043591602435906001600160401b038211620001f6576200172e91600401620018ea565b90600182811c92168015620019cd575b6020831014620019b757565b634e487b7160e01b600052602260045260246000fd5b91607f1691620019ab565b9060405191826000825492620019ee846200199b565b90818452600194858116908160001462001a65575060011462001a1e575b505062001a1c925003836200181d565b565b9093915060005260209081600020936000915b81831062001a4c57505062001a1c9350820101388062001a0c565b8554888401850152948501948794509183019162001a31565b91505062001a1c94506020925060ff191682840152151560051b820101388062001a0c565b9060405162001a9981620017e5565b6020620018e5600183958054855201620019d8565b6040519062001abd82620017c9565b600060a0838281528260208201526060604082015260405162001ae081620017e5565b8381526060602082015260608201528260808201520152565b8051821015620014a75760209160051b010190565b62001b1b90339062001d21565b1562000e8e57565b9081526001600160a01b03909116602082015260400190565b604090815160209062001bf28162001b648482019786895287808401526060830190620016e8565b039562001b7a601f19978881018552846200181d565b85519062001ba0858301988362001b93308a8d62001b23565b039081018452836200181d565b61062c9362001bff86895162001bb9828901826200181d565b8781526200211f9b82820196898e89398c5198899362001be28686019a8b9251928391620016c3565b84019151809386840190620016c3565b010380875201856200181d565b5190209151902085516001600160f81b03198582019081523060601b602183015260358201849052605580830193909352918152909260808201916001600160401b039182841182851017620005885783895260018060a01b03809683519020169960808284010193858510908511176200058857843962001c87607f199288309162001b23565b0301906000f58062001d18575050825163041c375d60e11b8152908082600481885afa90811562001d0d5760009162001cd8575b5090500362001cc8575090565b51630113b81f60e41b8152600490fd5b82813d831162001d05575b62001cef81836200181d565b8101031262001d02575051803862001cbb565b80fd5b503d62001ce3565b84513d6000823e3d90fd5b16949350505050565b6000908152609860205260409020600501546001600160a01b0391821691161490565b600052606560205260406000209060018060a01b031660005260205260ff6040600020541690565b60009080825260209060658252604092838120338252835260ff84822054161562001d975750505050565b62001da23362002017565b9184519062001db18262001801565b6042825284820192606036853782511562001f10576030845382519060019182101562001f105790607860218501536041915b81831162001e9d5750505062001e6c5760486200141293869362001e4f9362001e3f985198899376020b1b1b2b9b9a1b7b73a3937b61d1030b1b1b7bab73a1604d1b8a860152620013b5815180928c603789019101620016c3565b010360288101875201856200181d565b5192839262461bcd60e51b845260048401526024830190620016e8565b60648486519062461bcd60e51b825280600483015260248201526000805160206200276b8339815191526044820152fd5b909192600f8116601081101562001efc576f181899199a1a9b1b9c1cb0b131b232b360811b901a62001ed0858762002005565b5360041c92801562001ee85760001901919062001de4565b634e487b7160e01b82526011600452602482fd5b634e487b7160e01b83526032600452602483fd5b634e487b7160e01b81526032600452602490fd5b906000918083526065602052604083209160018060a01b03169182845260205260ff6040842054161562001f5757505050565b80835260656020526040832082845260205260408320600160ff198254161790556000805160206200274b833981519152339380a4565b906000918083526065602052604083209160018060a01b03169182845260205260ff60408420541662001fc057505050565b8083526065602052604083208284526020526040832060ff1981541690557ff6391f5c32d9c69d2a47ea670b442974b53935d1edc7fd64eb21e047a839171b339380a4565b908151811015620014a7570160200190565b60405190606082016001600160401b038111838210176200058857604052602a8252602082016040368237825115620014a757603090538151600190811015620014a757607860218401536029905b808211620020ab575050620020785790565b606460405162461bcd60e51b815260206004820152602060248201526000805160206200276b8339815191526044820152fd5b9091600f8116601081101562002109576f181899199a1a9b1b9c1cb0b131b232b360811b901a620020dd848662002005565b5360041c918015620020f457600019019062002066565b60246000634e487b7160e01b81526011600452fd5b60246000634e487b7160e01b81526032600452fdfe60c03461008c57601f61062c38819003918201601f19168301916001600160401b0383118484101761009157808492604094855283398101031261008c5780516020909101516001600160a01b0381169081900361008c5760805260a05260405161058490816100a882396080518181816101dc0152610333015260a05181818161019f01526103ce0152f35b600080fd5b634e487b7160e01b600052604160045260246000fdfe6080604081815260049182361015610022575b505050361561002057600080fd5b005b600090813560e01c90816301ffc9a7146103f15750806308386eba146103b6578063150b7a02146103625780637b1039991461031e578063b61d27f614610157578063bc197c81146100ce5763f23a6e610361001257346100cb5760a03660031901126100cb57610091610445565b5061009a610460565b50608435906001600160401b0382116100cb57506020926100bd913691016104ca565b505163f23a6e6160e01b8152f35b80fd5b50346100cb5760a03660031901126100cb576100e8610445565b506100f1610460565b506001600160401b0390604435828111610153576101129036908601610511565b506064358281116101535761012a9036908601610511565b506084359182116100cb5750602092610145913691016104ca565b505163bc197c8160e01b8152f35b5080fd5b50913461031a57606036600319011261031a57610172610445565b926044356001600160401b0381116101535761019190369084016104ca565b8351630e6e1ae360e21b81527f000000000000000000000000000000000000000000000000000000000000000084820152336024820152602095906001600160a01b039087816044817f000000000000000000000000000000000000000000000000000000000000000086165afa9081156103105785916102d6575b50156102c6578116156102b65781518392839290880190602435905af1913d156102ae573d9261023c846104af565b9361024986519586610476565b84523d838786013e5b156102a05750929082519382859384528251928382860152825b84811061028a57505050828201840152601f01601f19168101030190f35b818101830151888201880152879550820161026c565b83516384aed38d60e01b8152fd5b606092610252565b84516384aed38d60e01b81528490fd5b855163075fd2b160e01b81528590fd5b90508781813d8311610309575b6102ed8183610476565b8101031261030557518015158103610305573861020d565b8480fd5b503d6102e3565b87513d87823e3d90fd5b8280fd5b509034610153578160031936011261015357517f00000000000000000000000000000000000000000000000000000000000000006001600160a01b03168152602090f35b50346100cb5760803660031901126100cb5761037c610445565b50610385610460565b50606435906001600160401b0382116100cb57506020926103a8913691016104ca565b5051630a85bd0160e11b8152f35b509034610153578160031936011261015357602090517f00000000000000000000000000000000000000000000000000000000000000008152f35b9050833461031a57602036600319011261031a573563ffffffff60e01b811680910361031a5760209250630271189760e51b8114908115610434575b5015158152f35b6301ffc9a760e01b1490508361042d565b600435906001600160a01b038216820361045b57565b600080fd5b602435906001600160a01b038216820361045b57565b601f909101601f19168101906001600160401b0382119082101761049957604052565b634e487b7160e01b600052604160045260246000fd5b6001600160401b03811161049957601f01601f191660200190565b81601f8201121561045b578035906104e1826104af565b926104ef6040519485610476565b8284526020838301011161045b57816000926020809301838601378301015290565b9080601f8301121561045b578135906001600160401b038211610499578160051b6040519360209361054585840187610476565b8552838086019282010192831161045b578301905b828210610568575050505090565b8135815290830190830161055a56fea164736f6c6343000813000a2f8788117e7eff1d82e926ec794901d17c78024a50270940304540a733656f0d537472696e67733a20686578206c656e67746820696e73756666696369656e7454cd733148631b9ff1cb945f2d0dcd33c0692e154763bfa2f35e2d10a76c432f815b5a78dc333d344c7df9da23c04dbd432015cc701876ddb9ffe850e6882747a366054a574e4f861cb295fd23b5440c5119c1ba329c36f5dfeb5643537cb0f3a164736f6c6343000813000a","linkReferences":{}},"methodIdentifiers":{"ALLO_OWNER()":"cfda7e0a","DEFAULT_ADMIN_ROLE()":"a217fddf","NATIVE()":"a0cf0aea","acceptProfileOwnership(bytes32)":"2497f3c6","addMembers(bytes32,address[])":"5063f361","anchorToProfileId(address)":"4756487f","createProfile(uint256,string,(uint256,string),address,address[])":"3a92f65f","getProfileByAnchor(address)":"dd93da43","getProfileById(bytes32)":"0114cf0a","getRoleAdmin(bytes32)":"248a9ca3","grantRole(bytes32,address)":"2f2ff15d","hasRole(bytes32,address)":"91d14854","initialize(address)":"c4d66de8","isMemberOfProfile(bytes32,address)":"0ec1fbac","isOwnerOfProfile(bytes32,address)":"39b86b8c","isOwnerOrMemberOfProfile(bytes32,address)":"5e8a7915","profileIdToPendingOwner(bytes32)":"50d005e0","profilesById(bytes32)":"ee888196","recoverFunds(address,address)":"24ae6a27","removeMembers(bytes32,address[])":"e0cf1e4c","renounceRole(bytes32,address)":"36568abe","revokeRole(bytes32,address)":"d547741f","supportsInterface(bytes4)":"01ffc9a7","updateProfileMetadata(bytes32,(uint256,string))":"ac402839","updateProfileName(bytes32,string)":"cf189ff2","updateProfilePendingOwner(bytes32,address)":"3b66dacd"},"storageLayout":{"storage":[{"astId":53035,"contract":"lib/allo-v2/contracts/core/Registry.sol:Registry","label":"_initialized","offset":0,"slot":"0","type":"t_uint8"},{"astId":53038,"contract":"lib/allo-v2/contracts/core/Registry.sol:Registry","label":"_initializing","offset":1,"slot":"0","type":"t_bool"},{"astId":53740,"contract":"lib/allo-v2/contracts/core/Registry.sol:Registry","label":"__gap","offset":0,"slot":"1","type":"t_array(t_uint256)50_storage"},{"astId":54014,"contract":"lib/allo-v2/contracts/core/Registry.sol:Registry","label":"__gap","offset":0,"slot":"51","type":"t_array(t_uint256)50_storage"},{"astId":52434,"contract":"lib/allo-v2/contracts/core/Registry.sol:Registry","label":"_roles","offset":0,"slot":"101","type":"t_mapping(t_bytes32,t_struct(RoleData)52429_storage)"},{"astId":52741,"contract":"lib/allo-v2/contracts/core/Registry.sol:Registry","label":"__gap","offset":0,"slot":"102","type":"t_array(t_uint256)49_storage"},{"astId":1508,"contract":"lib/allo-v2/contracts/core/Registry.sol:Registry","label":"anchorToProfileId","offset":0,"slot":"151","type":"t_mapping(t_address,t_bytes32)"},{"astId":1514,"contract":"lib/allo-v2/contracts/core/Registry.sol:Registry","label":"profilesById","offset":0,"slot":"152","type":"t_mapping(t_bytes32,t_struct(Profile)2648_storage)"},{"astId":1519,"contract":"lib/allo-v2/contracts/core/Registry.sol:Registry","label":"profileIdToPendingOwner","offset":0,"slot":"153","type":"t_mapping(t_bytes32,t_address)"}],"types":{"t_address":{"encoding":"inplace","label":"address","numberOfBytes":"20"},"t_array(t_uint256)49_storage":{"encoding":"inplace","label":"uint256[49]","numberOfBytes":"1568","base":"t_uint256"},"t_array(t_uint256)50_storage":{"encoding":"inplace","label":"uint256[50]","numberOfBytes":"1600","base":"t_uint256"},"t_bool":{"encoding":"inplace","label":"bool","numberOfBytes":"1"},"t_bytes32":{"encoding":"inplace","label":"bytes32","numberOfBytes":"32"},"t_mapping(t_address,t_bool)":{"encoding":"mapping","key":"t_address","label":"mapping(address => bool)","numberOfBytes":"32","value":"t_bool"},"t_mapping(t_address,t_bytes32)":{"encoding":"mapping","key":"t_address","label":"mapping(address => bytes32)","numberOfBytes":"32","value":"t_bytes32"},"t_mapping(t_bytes32,t_address)":{"encoding":"mapping","key":"t_bytes32","label":"mapping(bytes32 => address)","numberOfBytes":"32","value":"t_address"},"t_mapping(t_bytes32,t_struct(Profile)2648_storage)":{"encoding":"mapping","key":"t_bytes32","label":"mapping(bytes32 => struct IRegistry.Profile)","numberOfBytes":"32","value":"t_struct(Profile)2648_storage"},"t_mapping(t_bytes32,t_struct(RoleData)52429_storage)":{"encoding":"mapping","key":"t_bytes32","label":"mapping(bytes32 => struct AccessControlUpgradeable.RoleData)","numberOfBytes":"32","value":"t_struct(RoleData)52429_storage"},"t_string_storage":{"encoding":"bytes","label":"string","numberOfBytes":"32"},"t_struct(Metadata)3080_storage":{"encoding":"inplace","label":"struct Metadata","numberOfBytes":"64","members":[{"astId":3076,"contract":"lib/allo-v2/contracts/core/Registry.sol:Registry","label":"protocol","offset":0,"slot":"0","type":"t_uint256"},{"astId":3079,"contract":"lib/allo-v2/contracts/core/Registry.sol:Registry","label":"pointer","offset":0,"slot":"1","type":"t_string_storage"}]},"t_struct(Profile)2648_storage":{"encoding":"inplace","label":"struct IRegistry.Profile","numberOfBytes":"224","members":[{"astId":2636,"contract":"lib/allo-v2/contracts/core/Registry.sol:Registry","label":"id","offset":0,"slot":"0","type":"t_bytes32"},{"astId":2638,"contract":"lib/allo-v2/contracts/core/Registry.sol:Registry","label":"nonce","offset":0,"slot":"1","type":"t_uint256"},{"astId":2640,"contract":"lib/allo-v2/contracts/core/Registry.sol:Registry","label":"name","offset":0,"slot":"2","type":"t_string_storage"},{"astId":2643,"contract":"lib/allo-v2/contracts/core/Registry.sol:Registry","label":"metadata","offset":0,"slot":"3","type":"t_struct(Metadata)3080_storage"},{"astId":2645,"contract":"lib/allo-v2/contracts/core/Registry.sol:Registry","label":"owner","offset":0,"slot":"5","type":"t_address"},{"astId":2647,"contract":"lib/allo-v2/contracts/core/Registry.sol:Registry","label":"anchor","offset":0,"slot":"6","type":"t_address"}]},"t_struct(RoleData)52429_storage":{"encoding":"inplace","label":"struct AccessControlUpgradeable.RoleData","numberOfBytes":"64","members":[{"astId":52426,"contract":"lib/allo-v2/contracts/core/Registry.sol:Registry","label":"members","offset":0,"slot":"0","type":"t_mapping(t_address,t_bool)"},{"astId":52428,"contract":"lib/allo-v2/contracts/core/Registry.sol:Registry","label":"adminRole","offset":0,"slot":"1","type":"t_bytes32"}]},"t_uint256":{"encoding":"inplace","label":"uint256","numberOfBytes":"32"},"t_uint8":{"encoding":"inplace","label":"uint8","numberOfBytes":"1"}}},"id":2}