{"abi":[{"type":"function","name":"DEFAULT_FUNDING_UNITS","inputs":[],"outputs":[{"name":"","type":"uint128","internalType":"uint128"}],"stateMutability":"view"},{"type":"function","name":"DISPUTE_COOLDOWN_SEC","inputs":[],"outputs":[{"name":"","type":"uint256","internalType":"uint256"}],"stateMutability":"view"},{"type":"function","name":"RULING_OPTIONS","inputs":[],"outputs":[{"name":"","type":"uint256","internalType":"uint256"}],"stateMutability":"view"},{"type":"function","name":"TOTAL_GDA_UNITS","inputs":[],"outputs":[{"name":"","type":"uint128","internalType":"uint128"}],"stateMutability":"view"},{"type":"function","name":"arbitrableConfigs","inputs":[{"name":"","type":"uint256","internalType":"uint256"}],"outputs":[{"name":"arbitrator","type":"address","internalType":"contract IArbitrator"},{"name":"tribunalSafe","type":"address","internalType":"address"},{"name":"submitterCollateralAmount","type":"uint256","internalType":"uint256"},{"name":"challengerCollateralAmount","type":"uint256","internalType":"uint256"},{"name":"defaultRuling","type":"uint256","internalType":"uint256"},{"name":"defaultRulingTimeout","type":"uint256","internalType":"uint256"}],"stateMutability":"view"},{"type":"function","name":"cloneNonce","inputs":[],"outputs":[{"name":"","type":"uint256","internalType":"uint256"}],"stateMutability":"view"},{"type":"function","name":"collateralVault","inputs":[],"outputs":[{"name":"","type":"address","internalType":"contract ICollateralVault"}],"stateMutability":"view"},{"type":"function","name":"currentArbitrableConfigVersion","inputs":[],"outputs":[{"name":"","type":"uint256","internalType":"uint256"}],"stateMutability":"view"},{"type":"function","name":"cvParams","inputs":[],"outputs":[{"name":"maxRatio","type":"uint256","internalType":"uint256"},{"name":"weight","type":"uint256","internalType":"uint256"},{"name":"decay","type":"uint256","internalType":"uint256"},{"name":"minThresholdPoints","type":"uint256","internalType":"uint256"}],"stateMutability":"view"},{"type":"function","name":"cvVault","inputs":[],"outputs":[{"name":"","type":"address","internalType":"contract ICVVault"}],"stateMutability":"view"},{"type":"function","name":"disputeCount","inputs":[],"outputs":[{"name":"","type":"uint64","internalType":"uint64"}],"stateMutability":"view"},{"type":"function","name":"disputeIdToProposalId","inputs":[{"name":"","type":"uint256","internalType":"uint256"}],"outputs":[{"name":"","type":"uint256","internalType":"uint256"}],"stateMutability":"view"},{"type":"function","name":"getAvailableYield","inputs":[],"outputs":[{"name":"","type":"uint256","internalType":"uint256"}],"stateMutability":"view"},{"type":"function","name":"getProjectedUnitAllocation","inputs":[],"outputs":[{"name":"proposalIds","type":"uint256[]","internalType":"uint256[]"},{"name":"units","type":"uint128[]","internalType":"uint128[]"},{"name":"shareBps","type":"uint256[]","internalType":"uint256[]"}],"stateMutability":"view"},{"type":"function","name":"pointConfig","inputs":[],"outputs":[{"name":"maxAmount","type":"uint256","internalType":"uint256"}],"stateMutability":"view"},{"type":"function","name":"pointSystem","inputs":[],"outputs":[{"name":"","type":"uint8","internalType":"enum PointSystem"}],"stateMutability":"view"},{"type":"function","name":"proposalCounter","inputs":[],"outputs":[{"name":"","type":"uint256","internalType":"uint256"}],"stateMutability":"view"},{"type":"function","name":"proposalType","inputs":[],"outputs":[{"name":"","type":"uint8","internalType":"enum ProposalType"}],"stateMutability":"view"},{"type":"function","name":"proposals","inputs":[{"name":"","type":"uint256","internalType":"uint256"}],"outputs":[{"name":"proposalId","type":"uint256","internalType":"uint256"},{"name":"requestedAmount","type":"uint256","internalType":"uint256"},{"name":"stakedAmount","type":"uint256","internalType":"uint256"},{"name":"convictionLast","type":"uint256","internalType":"uint256"},{"name":"beneficiary","type":"address","internalType":"address"},{"name":"submitter","type":"address","internalType":"address"},{"name":"requestedToken","type":"address","internalType":"address"},{"name":"blockLast","type":"uint256","internalType":"uint256"},{"name":"proposalStatus","type":"uint8","internalType":"enum ProposalStatus"},{"name":"metadata","type":"tuple","internalType":"struct Metadata","components":[{"name":"protocol","type":"uint256","internalType":"uint256"},{"name":"pointer","type":"string","internalType":"string"}]},{"name":"disputeInfo","type":"tuple","internalType":"struct ProposalDisputeInfo","components":[{"name":"disputeId","type":"uint256","internalType":"uint256"},{"name":"disputeTimestamp","type":"uint256","internalType":"uint256"},{"name":"challenger","type":"address","internalType":"address"}]},{"name":"lastDisputeCompletion","type":"uint256","internalType":"uint256"},{"name":"arbitrableConfigVersion","type":"uint256","internalType":"uint256"}],"stateMutability":"view"},{"type":"function","name":"rebalanceProposalYieldStream","inputs":[{"name":"proposalId","type":"uint256","internalType":"uint256"}],"outputs":[],"stateMutability":"nonpayable"},{"type":"function","name":"rebalanceYieldStreams","inputs":[],"outputs":[],"stateMutability":"nonpayable"},{"type":"function","name":"registryCommunity","inputs":[],"outputs":[{"name":"","type":"address","internalType":"contract IVotingPowerRegistry"}],"stateMutability":"view"},{"type":"function","name":"streamingEnabled","inputs":[],"outputs":[{"name":"","type":"bool","internalType":"bool"}],"stateMutability":"view"},{"type":"function","name":"superfluidToken","inputs":[],"outputs":[{"name":"","type":"address","internalType":"contract ISuperToken"}],"stateMutability":"view"},{"type":"function","name":"sybilScorer","inputs":[],"outputs":[{"name":"","type":"address","internalType":"contract ISybilScorer"}],"stateMutability":"view"},{"type":"function","name":"totalPointsActivated","inputs":[],"outputs":[{"name":"","type":"uint256","internalType":"uint256"}],"stateMutability":"view"},{"type":"function","name":"totalStaked","inputs":[],"outputs":[{"name":"","type":"uint256","internalType":"uint256"}],"stateMutability":"view"},{"type":"function","name":"totalVoterStakePct","inputs":[{"name":"","type":"address","internalType":"address"}],"outputs":[{"name":"","type":"uint256","internalType":"uint256"}],"stateMutability":"view"},{"type":"function","name":"voterStakedProposals","inputs":[{"name":"","type":"address","internalType":"address"},{"name":"","type":"uint256","internalType":"uint256"}],"outputs":[{"name":"","type":"uint256","internalType":"uint256"}],"stateMutability":"view"},{"type":"function","name":"ydsStrategy","inputs":[],"outputs":[{"name":"","type":"address","internalType":"contract IYDSStrategy"}],"stateMutability":"view"},{"type":"event","name":"DonationSharesRedeemed","inputs":[{"name":"ydsStrategy","type":"address","indexed":true,"internalType":"address"},{"name":"shares","type":"uint256","indexed":false,"internalType":"uint256"},{"name":"assets","type":"uint256","indexed":false,"internalType":"uint256"},{"name":"recipient","type":"address","indexed":false,"internalType":"address"}],"anonymous":false},{"type":"event","name":"ProposalYieldShare","inputs":[{"name":"proposalId","type":"uint256","indexed":true,"internalType":"uint256"},{"name":"conviction","type":"uint256","indexed":false,"internalType":"uint256"},{"name":"units","type":"uint128","indexed":false,"internalType":"uint128"},{"name":"shareBps","type":"uint256","indexed":false,"internalType":"uint256"}],"anonymous":false},{"type":"event","name":"YieldStreamsRebalanced","inputs":[{"name":"poolId","type":"uint256","indexed":true,"internalType":"uint256"},{"name":"activeProposals","type":"uint256","indexed":false,"internalType":"uint256"},{"name":"totalConviction","type":"uint256","indexed":false,"internalType":"uint256"},{"name":"timestamp","type":"uint256","indexed":false,"internalType":"uint256"}],"anonymous":false},{"type":"error","name":"GDANotConfigured","inputs":[]},{"type":"error","name":"InvalidUnits","inputs":[]},{"type":"error","name":"NoVaultConfigured","inputs":[]},{"type":"error","name":"NoYDSStrategy","inputs":[]},{"type":"error","name":"OnlyPendingRecipient","inputs":[]},{"type":"error","name":"ProposalNotFoundStream","inputs":[]},{"type":"error","name":"StreamAlreadyActive","inputs":[{"name":"proposalId","type":"uint256","internalType":"uint256"}]},{"type":"error","name":"StreamNotActive","inputs":[{"name":"proposalId","type":"uint256","internalType":"uint256"}]},{"type":"error","name":"StreamingNotEnabled","inputs":[]},{"type":"error","name":"SuperfluidOperationFailed","inputs":[{"name":"operation","type":"string","internalType":"string"}]},{"type":"error","name":"WrongProposalType","inputs":[]}],"bytecode":{"object":"0x608060405234801561001057600080fd5b506118c3806100206000396000f3fe608060405234801561001057600080fd5b506004361061016a5760003560e01c8063013cf08b1461016f57806305caa7f3146101a45780630bece79c146101c45780630c0512e9146101d7578063125fd1d9146101ee5780632506b870146101f7578063255ffb381461021d5780632843594f1461023d5780632dbd6fdd146102455780633396045914610264578063351d9f961461026d57806341bb76051461027a5780635db64b99146103025780636003e41414610322578063626c47e81461033557806379b165e01461033d5780637a3c8b3814610352578063817b1cd214610373578063868c57b81461037c5780638a05105a1461038f578063a28889e1146103b3578063a47ff7e5146103de578063aba9ffee146103e8578063b4b9a107146103f1578063b6c61f31146103fa578063c5d59e8e1461040d578063c778884f14610424578063d4ec78791461042c578063f5be3f7c1461043f578063f846782114610448575b600080fd5b61018261017d36600461148c565b61045b565b60405161019b9d9c9b9a9998979695949392919061151f565b60405180910390f35b6082546101b7906001600160a01b031681565b60405161019b91906115d9565b607a546101b7906001600160a01b031681565b6101e0606f5481565b60405190815260200161019b565b6101e060705481565b60735460745460755460765461020d9392919084565b60405161019b94939291906115ed565b6101e061022b36600461148c565b60806020526000908152604090205481565b6101e06105a9565b60775461025790610100900460ff1681565b60405161019b9190611618565b6101e0606d5481565b6077546102579060ff1681565b6102ca61028836600461148c565b6081602052600090815260409020805460018201546002830154600384015460048501546005909501546001600160a01b039485169593909416939192909186565b604080516001600160a01b039788168152969095166020870152938501929092526060840152608083015260a082015260c00161019b565b6101e0610310366004611647565b607e6020526000908152604090205481565b6079546101b7906001600160a01b031681565b6101e0600381565b61035061034b36600461148c565b61063d565b005b61035b61271081565b6040516001600160801b03909116815260200161019b565b6101e060715481565b6101e061038a366004611669565b61070e565b6085546103a390600160a01b900460ff1681565b604051901515815260200161019b565b606e546103c6906001600160401b031681565b6040516001600160401b03909116815260200161019b565b6078546101e09081565b6101e060725481565b61035b6103e881565b607c546101b7906001600160a01b031681565b61041561073f565b60405161019b939291906116ce565b6103506109f1565b607b546101b7906001600160a01b031681565b6101e0611c2081565b6083546101b7906001600160a01b031681565b607d602090815260009182526040918290208054600182015460028301546003840154600485015460058601546006870154600788015460088901548b51808d01909c52600a8a0180548d52600b8b0180549a9d999c989b979a6001600160a01b039788169a968816999790951697939660ff90931695939491928401916104e290611741565b80601f016020809104026020016040519081016040528092919081815260200182805461050e90611741565b801561055b5780601f106105305761010080835404028352916020019161055b565b820191906000526020600020905b81548152906001019060200180831161053e57829003601f168201915b50505091909252505060408051606081018252600c8501548152600d8501546020820152600e8501546001600160a01b031691810191909152600f840154601090940154929390929091508d565b6083546000906001600160a01b031615610637576083546085546040516370a0823160e01b81526001600160a01b03928316926370a08231926105f1929116906004016115d9565b602060405180830381865afa15801561060e573d6000803e3d6000fd5b505050506040513d601f19601f82011682018060405250810190610632919061177b565b905090565b50600090565b610645610b5d565b61064e81610b6e565b61065757600080fd5b6000818152607d602052604090206001600882015460ff166006811115610680576106806114a5565b146106a95760008281526084602052604090205460ff16156106a5576106a582610baa565b5050565b6106b7818260020154610c38565b306001600160a01b031663c778884f6040518163ffffffff1660e01b8152600401600060405180830381600087803b1580156106f257600080fd5b505af1158015610706573d6000803e3d6000fd5b505050505050565b607f602052816000526040600020818154811061072a57600080fd5b90600052602060002001600091509150505481565b6060808060008060015b606f5481116107c3576000818152607d602052604090206001600882015460ff16600681111561077b5761077b6114a5565b14801561078c575060008160030154115b156107b05760038101546107a090856117aa565b9350826107ac816117bd565b9350505b50806107bb816117bd565b915050610749565b50816000036107f65750506040805160008082526020820181815282840191825260608301909352909591945092509050565b806001600160401b0381111561080e5761080e6117d6565b604051908082528060200260200182016040528015610837578160200160208202803683370190505b509450806001600160401b03811115610852576108526117d6565b60405190808252806020026020018201604052801561087b578160200160208202803683370190505b509350806001600160401b03811115610896576108966117d6565b6040519080825280602002602001820160405280156108bf578160200160208202803683370190505b509250600060015b606f5481116109e8576000818152607d602052604090206001600882015460ff1660068111156108f9576108f96114a5565b14801561090a575060008160030154115b156109d55781888481518110610922576109226117ec565b6020026020010181815250508481600301546127106109419190611802565b61094b9190611819565b86848151811061095d5761095d6117ec565b60200260200101818152505061271086848151811061097e5761097e6117ec565b60200260200101516127106109939190611802565b61099d9190611819565b8784815181106109af576109af6117ec565b6001600160801b0390921660209283029190910190910152826109d1816117bd565b9350505b50806109e0816117bd565b9150506108c7565b50505050909192565b6109f9610b5d565b600360775460ff166003811115610a1257610a126114a5565b14610a3057604051635cd3202560e01b815260040160405180910390fd5b608554600160a01b900460ff16610a5a57604051634a4d18c960e01b815260040160405180910390fd5b6085546001600160a01b0316610a8357604051631e6ead2f60e31b815260040160405180910390fd5b6083546001600160a01b031615610aa157610a9c610c73565b610aca565b607b546001600160a01b0316610aca576040516375d3beeb60e01b815260040160405180910390fd5b600080600080610ad8610dd7565b93509350935093508360001480610aed575082155b15610b2d57610afa610f82565b60685460008051602061189783398151915260008042604051610b1f9392919061183b565b60405180910390a250505050565b610b3984848484610fc3565b606854600080516020611897833981519152848642604051610b1f9392919061183b565b606854600003610b6c57600080fd5b565b6000818152607d602052604081205415801590610ba457506000828152607d60205260409020600501546001600160a01b031615155b92915050565b60405160248101829052600090309060440160408051601f198184030181529181526020820180516001600160e01b03166342ea844f60e11b17905251610bf19190611851565b600060405180830381855af49150503d8060008114610c2c576040519150601f19603f3d011682016040523d82523d6000602084013e610c31565b606091505b5050505050565b600080610c458484611162565b91509150816000148015610c57575080155b15610c625750505050565b600784015560039092019190915550565b6083546085546040516370a0823160e01b81526000926001600160a01b03908116926370a0823192610cab92909116906004016115d9565b602060405180830381865afa158015610cc8573d6000803e3d6000fd5b505050506040513d601f19601f82011682018060405250810190610cec919061177b565b905080600003610cf95750565b608354608554604051635d043b2960e11b8152600481018490526001600160a01b03918216602482018190526044820152600092919091169063ba087652906064016020604051808303816000875af1158015610d5a573d6000803e3d6000fd5b505050506040513d601f19601f82011682018060405250810190610d7e919061177b565b60835460855460408051868152602081018590526001600160a01b039283168183015290519394509116917f7d0942ed0b44dc16eddba70b76fe052d91092cdd7421aa8b6ee0472347709f7c9181900360600190a25050565b6000806060806000606f549050806001600160401b03811115610dfc57610dfc6117d6565b604051908082528060200260200182016040528015610e25578160200160208202803683370190505b509250806001600160401b03811115610e4057610e406117d6565b604051908082528060200260200182016040528015610e69578160200160208202803683370190505b50915060015b818111610f7a576000818152607d602052604090206001600882015460ff166006811115610e9f57610e9f6114a5565b14610eca5760008281526084602052604090205460ff1615610ec457610ec482610baa565b50610f68565b610ed8818260020154610c38565b600381015415610f465781858781518110610ef557610ef56117ec565b6020026020010181815250508060030154848781518110610f1857610f186117ec565b60209081029190910101526003810154610f3290886117aa565b965085610f3e816117bd565b965050610f66565b60008281526084602052604090205460ff1615610f6657610f6682610baa565b505b80610f72816117bd565b915050610e6f565b505090919293565b60015b606f548111610fc05760008181526084602052604090205460ff1615610fae57610fae81610baa565b80610fb8816117bd565b915050610f85565b50565b61271060005b84811015611157576000848281518110610fe557610fe56117ec565b602002602001015190506000848381518110611003576110036117ec565b6020908102919091018101516000848152607d90925260408220909250908961102e84612710611802565b6110389190611819565b90506000612710611052836001600160801b038a16611802565b61105c9190611819565b9050806001600160801b03166000036110995760008581526084602052604090205460ff161561108f5761108f85610baa565b5050505050611145565b6000858152608460205260409020805460ff16156110d95780546001600160801b0383811661010090920416146110d4576110d48683611233565b6110f3565b60048401546110f39087906001600160a01b031684611314565b604080518681526001600160801b038416602082015290810184905286907fd78c29db572b61148b354880dc58abe85e895ce39959d7cd71d5b253659be7a59060600160405180910390a25050505050505b8061114f816117bd565b915050610fc9565b50610c3184846113ff565b600080439050808460070154111561117c5761117c61186d565b808460070154036111925750600090508061122c565b73__$f1b7c69ba751c396eddc93d3bbc5414fd9$__63010dfe648560070154836111bc9190611883565b60038701546075546040516001600160e01b031960e086901b1681526111e893929189916004016115ed565b602060405180830381865af4158015611205573d6000803e3d6000fd5b505050506040513d601f19601f82011682018060405250810190611229919061177b565b91505b9250929050565b604051602481018390526001600160801b0382166044820152600090309060640160408051601f198184030181529181526020820180516001600160e01b03166326b1ee1960e21b179052516112899190611851565b600060405180830381855af49150503d80600081146112c4576040519150601f19603f3d011682016040523d82523d6000602084013e6112c9565b606091505b505090508061130f57604051631938612760e11b815260206004820152600c60248201526b75706461746553747265616d60a01b60448201526064015b60405180910390fd5b505050565b604051602481018490526001600160a01b03831660448201526001600160801b0382166064820152600090309060840160408051601f198184030181529181526020820180516001600160e01b031663e1f1235560e01b179052516113799190611851565b600060405180830381855af49150503d80600081146113b4576040519150601f19603f3d011682016040523d82523d6000602084013e6113b9565b606091505b50509050806113f957604051631938612760e11b815260206004820152600b60248201526a737461727453747265616d60a81b6044820152606401611306565b50505050565b60015b606f54811161130f5760008181526084602052604090205460ff161561147a576000805b848110156114695782848281518110611441576114416117ec565b6020026020010151036114575760019150611469565b80611461816117bd565b915050611426565b50806114785761147882610baa565b505b80611484816117bd565b915050611402565b60006020828403121561149e57600080fd5b5035919050565b634e487b7160e01b600052602160045260246000fd5b60005b838110156114d65781810151838201526020016114be565b50506000910152565b805182526000602082015160406020850152805180604086015261150a8160608701602085016114bb565b601f01601f1916939093016060019392505050565b8d8152602081018d9052604081018c9052606081018b90526001600160a01b038a8116608083015289811660a0830152881660c082015260e0810187905260006101e060078810611572576115726114a5565b876101008401528061012084015261158c818401886114df565b8651610140850152602087015161016085015260408701516001600160a01b031661018085015291506115bc9050565b6101a08201939093526101c001529b9a5050505050505050505050565b6001600160a01b0391909116815260200190565b93845260208401929092526040830152606082015260800190565b60048110610fc057610fc06114a5565b6020810161162583611608565b91905290565b80356001600160a01b038116811461164257600080fd5b919050565b60006020828403121561165957600080fd5b6116628261162b565b9392505050565b6000806040838503121561167c57600080fd5b6116858361162b565b946020939093013593505050565b600081518084526020808501945080840160005b838110156116c3578151875295820195908201906001016116a7565b509495945050505050565b6060815260006116e16060830186611693565b82810360208481019190915285518083528682019282019060005b818110156117215784516001600160801b0316835293830193918301916001016116fc565b505084810360408601526117358187611693565b98975050505050505050565b600181811c9082168061175557607f821691505b60208210810361177557634e487b7160e01b600052602260045260246000fd5b50919050565b60006020828403121561178d57600080fd5b5051919050565b634e487b7160e01b600052601160045260246000fd5b80820180821115610ba457610ba4611794565b6000600182016117cf576117cf611794565b5060010190565b634e487b7160e01b600052604160045260246000fd5b634e487b7160e01b600052603260045260246000fd5b8082028115828204841417610ba457610ba4611794565b60008261183657634e487b7160e01b600052601260045260246000fd5b500490565b9283526020830191909152604082015260600190565b600082516118638184602087016114bb565b9190910192915050565b634e487b7160e01b600052600160045260246000fd5b81810381811115610ba457610ba461179456fec0f2cacfb000f19d047e72a98e8fda297b1149671093cce761b2c7174d15caaba164736f6c6343000813000a","linkReferences":{"pkg/contracts/src/CVStrategy/ConvictionsUtils.sol":{"ConvictionsUtils":[{"start":4532,"length":20}]}}},"methodIdentifiers":{"DEFAULT_FUNDING_UNITS()":"b4b9a107","DISPUTE_COOLDOWN_SEC()":"f5be3f7c","RULING_OPTIONS()":"626c47e8","TOTAL_GDA_UNITS()":"7a3c8b38","arbitrableConfigs(uint256)":"41bb7605","cloneNonce()":"33960459","collateralVault()":"0bece79c","currentArbitrableConfigVersion()":"125fd1d9","cvParams()":"2506b870","cvVault()":"d4ec7879","disputeCount()":"a28889e1","disputeIdToProposalId(uint256)":"255ffb38","getAvailableYield()":"2843594f","getProjectedUnitAllocation()":"c5d59e8e","pointConfig()":"a47ff7e5","pointSystem()":"2dbd6fdd","proposalCounter()":"0c0512e9","proposalType()":"351d9f96","proposals(uint256)":"013cf08b","rebalanceProposalYieldStream(uint256)":"79b165e0","rebalanceYieldStreams()":"c778884f","registryCommunity()":"6003e414","streamingEnabled()":"8a05105a","superfluidToken()":"05caa7f3","sybilScorer()":"b6c61f31","totalPointsActivated()":"aba9ffee","totalStaked()":"817b1cd2","totalVoterStakePct(address)":"5db64b99","voterStakedProposals(address,uint256)":"868c57b8","ydsStrategy()":"f8467821"},"storageLayout":{"storage":[{"astId":87054,"contract":"pkg/contracts/src/CVStrategy/facets/CVStreamingYieldFacet.sol:CVStreamingYieldFacet","label":"_initialized","offset":0,"slot":"0","type":"t_uint8"},{"astId":87056,"contract":"pkg/contracts/src/CVStrategy/facets/CVStreamingYieldFacet.sol:CVStreamingYieldFacet","label":"_initializing","offset":1,"slot":"0","type":"t_bool"},{"astId":87060,"contract":"pkg/contracts/src/CVStrategy/facets/CVStreamingYieldFacet.sol:CVStreamingYieldFacet","label":"__gap_init","offset":0,"slot":"1","type":"t_array(t_uint256)50_storage"},{"astId":87063,"contract":"pkg/contracts/src/CVStrategy/facets/CVStreamingYieldFacet.sol:CVStreamingYieldFacet","label":"_owner","offset":0,"slot":"51","type":"t_address"},{"astId":87067,"contract":"pkg/contracts/src/CVStrategy/facets/CVStreamingYieldFacet.sol:CVStreamingYieldFacet","label":"__gap_ownable","offset":0,"slot":"52","type":"t_array(t_uint256)49_storage"},{"astId":87071,"contract":"pkg/contracts/src/CVStrategy/facets/CVStreamingYieldFacet.sol:CVStreamingYieldFacet","label":"allo","offset":0,"slot":"101","type":"t_contract(IAllo)2629"},{"astId":87073,"contract":"pkg/contracts/src/CVStrategy/facets/CVStreamingYieldFacet.sol:CVStreamingYieldFacet","label":"strategyId","offset":0,"slot":"102","type":"t_bytes32"},{"astId":87075,"contract":"pkg/contracts/src/CVStrategy/facets/CVStreamingYieldFacet.sol:CVStreamingYieldFacet","label":"poolActive","offset":0,"slot":"103","type":"t_bool"},{"astId":87077,"contract":"pkg/contracts/src/CVStrategy/facets/CVStreamingYieldFacet.sol:CVStreamingYieldFacet","label":"poolId","offset":0,"slot":"104","type":"t_uint256"},{"astId":87079,"contract":"pkg/contracts/src/CVStrategy/facets/CVStreamingYieldFacet.sol:CVStreamingYieldFacet","label":"poolAmount","offset":0,"slot":"105","type":"t_uint256"},{"astId":87082,"contract":"pkg/contracts/src/CVStrategy/facets/CVStreamingYieldFacet.sol:CVStreamingYieldFacet","label":"collateralVaultTemplate","offset":0,"slot":"106","type":"t_address"},{"astId":87085,"contract":"pkg/contracts/src/CVStrategy/facets/CVStreamingYieldFacet.sol:CVStreamingYieldFacet","label":"cvVaultTemplate","offset":0,"slot":"107","type":"t_address"},{"astId":87088,"contract":"pkg/contracts/src/CVStrategy/facets/CVStreamingYieldFacet.sol:CVStreamingYieldFacet","label":"surpressStateMutabilityWarning","offset":0,"slot":"108","type":"t_uint256"},{"astId":87091,"contract":"pkg/contracts/src/CVStrategy/facets/CVStreamingYieldFacet.sol:CVStreamingYieldFacet","label":"cloneNonce","offset":0,"slot":"109","type":"t_uint256"},{"astId":87094,"contract":"pkg/contracts/src/CVStrategy/facets/CVStreamingYieldFacet.sol:CVStreamingYieldFacet","label":"disputeCount","offset":0,"slot":"110","type":"t_uint64"},{"astId":87097,"contract":"pkg/contracts/src/CVStrategy/facets/CVStreamingYieldFacet.sol:CVStreamingYieldFacet","label":"proposalCounter","offset":0,"slot":"111","type":"t_uint256"},{"astId":87100,"contract":"pkg/contracts/src/CVStrategy/facets/CVStreamingYieldFacet.sol:CVStreamingYieldFacet","label":"currentArbitrableConfigVersion","offset":0,"slot":"112","type":"t_uint256"},{"astId":87103,"contract":"pkg/contracts/src/CVStrategy/facets/CVStreamingYieldFacet.sol:CVStreamingYieldFacet","label":"totalStaked","offset":0,"slot":"113","type":"t_uint256"},{"astId":87106,"contract":"pkg/contracts/src/CVStrategy/facets/CVStreamingYieldFacet.sol:CVStreamingYieldFacet","label":"totalPointsActivated","offset":0,"slot":"114","type":"t_uint256"},{"astId":87110,"contract":"pkg/contracts/src/CVStrategy/facets/CVStreamingYieldFacet.sol:CVStreamingYieldFacet","label":"cvParams","offset":0,"slot":"115","type":"t_struct(CVParams)87988_storage"},{"astId":87114,"contract":"pkg/contracts/src/CVStrategy/facets/CVStreamingYieldFacet.sol:CVStreamingYieldFacet","label":"proposalType","offset":0,"slot":"119","type":"t_enum(ProposalType)87891"},{"astId":87118,"contract":"pkg/contracts/src/CVStrategy/facets/CVStreamingYieldFacet.sol:CVStreamingYieldFacet","label":"pointSystem","offset":1,"slot":"119","type":"t_enum(PointSystem)87896"},{"astId":87122,"contract":"pkg/contracts/src/CVStrategy/facets/CVStreamingYieldFacet.sol:CVStreamingYieldFacet","label":"pointConfig","offset":0,"slot":"120","type":"t_struct(PointSystemConfig)87965_storage"},{"astId":87126,"contract":"pkg/contracts/src/CVStrategy/facets/CVStreamingYieldFacet.sol:CVStreamingYieldFacet","label":"registryCommunity","offset":0,"slot":"121","type":"t_contract(IVotingPowerRegistry)103839"},{"astId":87130,"contract":"pkg/contracts/src/CVStrategy/facets/CVStreamingYieldFacet.sol:CVStreamingYieldFacet","label":"collateralVault","offset":0,"slot":"122","type":"t_contract(ICollateralVault)103118"},{"astId":87134,"contract":"pkg/contracts/src/CVStrategy/facets/CVStreamingYieldFacet.sol:CVStreamingYieldFacet","label":"cvVault","offset":0,"slot":"123","type":"t_contract(ICVVault)103085"},{"astId":87138,"contract":"pkg/contracts/src/CVStrategy/facets/CVStreamingYieldFacet.sol:CVStreamingYieldFacet","label":"sybilScorer","offset":0,"slot":"124","type":"t_contract(ISybilScorer)95622"},{"astId":87144,"contract":"pkg/contracts/src/CVStrategy/facets/CVStreamingYieldFacet.sol:CVStreamingYieldFacet","label":"proposals","offset":0,"slot":"125","type":"t_mapping(t_uint256,t_struct(Proposal)87957_storage)"},{"astId":87149,"contract":"pkg/contracts/src/CVStrategy/facets/CVStreamingYieldFacet.sol:CVStreamingYieldFacet","label":"totalVoterStakePct","offset":0,"slot":"126","type":"t_mapping(t_address,t_uint256)"},{"astId":87155,"contract":"pkg/contracts/src/CVStrategy/facets/CVStreamingYieldFacet.sol:CVStreamingYieldFacet","label":"voterStakedProposals","offset":0,"slot":"127","type":"t_mapping(t_address,t_array(t_uint256)dyn_storage)"},{"astId":87160,"contract":"pkg/contracts/src/CVStrategy/facets/CVStreamingYieldFacet.sol:CVStreamingYieldFacet","label":"disputeIdToProposalId","offset":0,"slot":"128","type":"t_mapping(t_uint256,t_uint256)"},{"astId":87166,"contract":"pkg/contracts/src/CVStrategy/facets/CVStreamingYieldFacet.sol:CVStreamingYieldFacet","label":"arbitrableConfigs","offset":0,"slot":"129","type":"t_mapping(t_uint256,t_struct(ArbitrableConfig)87979_storage)"},{"astId":87170,"contract":"pkg/contracts/src/CVStrategy/facets/CVStreamingYieldFacet.sol:CVStreamingYieldFacet","label":"superfluidToken","offset":0,"slot":"130","type":"t_contract(ISuperToken)74423"},{"astId":87174,"contract":"pkg/contracts/src/CVStrategy/facets/CVStreamingYieldFacet.sol:CVStreamingYieldFacet","label":"ydsStrategy","offset":0,"slot":"131","type":"t_contract(IYDSStrategy)103965"},{"astId":87189,"contract":"pkg/contracts/src/CVStrategy/facets/CVStreamingYieldFacet.sol:CVStreamingYieldFacet","label":"proposalStreams","offset":0,"slot":"132","type":"t_mapping(t_uint256,t_struct(StreamState)87183_storage)"},{"astId":87192,"contract":"pkg/contracts/src/CVStrategy/facets/CVStreamingYieldFacet.sol:CVStreamingYieldFacet","label":"superfluidGDA","offset":0,"slot":"133","type":"t_address"},{"astId":87195,"contract":"pkg/contracts/src/CVStrategy/facets/CVStreamingYieldFacet.sol:CVStreamingYieldFacet","label":"streamingEnabled","offset":20,"slot":"133","type":"t_bool"},{"astId":87200,"contract":"pkg/contracts/src/CVStrategy/facets/CVStreamingYieldFacet.sol:CVStreamingYieldFacet","label":"__gap","offset":0,"slot":"134","type":"t_array(t_uint256)45_storage"}],"types":{"t_address":{"encoding":"inplace","label":"address","numberOfBytes":"20"},"t_array(t_uint256)45_storage":{"encoding":"inplace","label":"uint256[45]","numberOfBytes":"1440","base":"t_uint256"},"t_array(t_uint256)49_storage":{"encoding":"inplace","label":"uint256[49]","numberOfBytes":"1568","base":"t_uint256"},"t_array(t_uint256)50_storage":{"encoding":"inplace","label":"uint256[50]","numberOfBytes":"1600","base":"t_uint256"},"t_array(t_uint256)dyn_storage":{"encoding":"dynamic_array","label":"uint256[]","numberOfBytes":"32","base":"t_uint256"},"t_bool":{"encoding":"inplace","label":"bool","numberOfBytes":"1"},"t_bytes32":{"encoding":"inplace","label":"bytes32","numberOfBytes":"32"},"t_contract(IAllo)2629":{"encoding":"inplace","label":"contract IAllo","numberOfBytes":"20"},"t_contract(IArbitrator)103001":{"encoding":"inplace","label":"contract IArbitrator","numberOfBytes":"20"},"t_contract(ICVVault)103085":{"encoding":"inplace","label":"contract ICVVault","numberOfBytes":"20"},"t_contract(ICollateralVault)103118":{"encoding":"inplace","label":"contract ICollateralVault","numberOfBytes":"20"},"t_contract(ISuperToken)74423":{"encoding":"inplace","label":"contract ISuperToken","numberOfBytes":"20"},"t_contract(ISybilScorer)95622":{"encoding":"inplace","label":"contract ISybilScorer","numberOfBytes":"20"},"t_contract(IVotingPowerRegistry)103839":{"encoding":"inplace","label":"contract IVotingPowerRegistry","numberOfBytes":"20"},"t_contract(IYDSStrategy)103965":{"encoding":"inplace","label":"contract IYDSStrategy","numberOfBytes":"20"},"t_enum(PointSystem)87896":{"encoding":"inplace","label":"enum PointSystem","numberOfBytes":"1"},"t_enum(ProposalStatus)87916":{"encoding":"inplace","label":"enum ProposalStatus","numberOfBytes":"1"},"t_enum(ProposalType)87891":{"encoding":"inplace","label":"enum ProposalType","numberOfBytes":"1"},"t_mapping(t_address,t_array(t_uint256)dyn_storage)":{"encoding":"mapping","key":"t_address","label":"mapping(address => uint256[])","numberOfBytes":"32","value":"t_array(t_uint256)dyn_storage"},"t_mapping(t_address,t_uint256)":{"encoding":"mapping","key":"t_address","label":"mapping(address => uint256)","numberOfBytes":"32","value":"t_uint256"},"t_mapping(t_uint256,t_struct(ArbitrableConfig)87979_storage)":{"encoding":"mapping","key":"t_uint256","label":"mapping(uint256 => struct ArbitrableConfig)","numberOfBytes":"32","value":"t_struct(ArbitrableConfig)87979_storage"},"t_mapping(t_uint256,t_struct(Proposal)87957_storage)":{"encoding":"mapping","key":"t_uint256","label":"mapping(uint256 => struct Proposal)","numberOfBytes":"32","value":"t_struct(Proposal)87957_storage"},"t_mapping(t_uint256,t_struct(StreamState)87183_storage)":{"encoding":"mapping","key":"t_uint256","label":"mapping(uint256 => struct CVStrategyBaseFacet.StreamState)","numberOfBytes":"32","value":"t_struct(StreamState)87183_storage"},"t_mapping(t_uint256,t_uint256)":{"encoding":"mapping","key":"t_uint256","label":"mapping(uint256 => uint256)","numberOfBytes":"32","value":"t_uint256"},"t_string_storage":{"encoding":"bytes","label":"string","numberOfBytes":"32"},"t_struct(ArbitrableConfig)87979_storage":{"encoding":"inplace","label":"struct ArbitrableConfig","numberOfBytes":"192","members":[{"astId":87968,"contract":"pkg/contracts/src/CVStrategy/facets/CVStreamingYieldFacet.sol:CVStreamingYieldFacet","label":"arbitrator","offset":0,"slot":"0","type":"t_contract(IArbitrator)103001"},{"astId":87970,"contract":"pkg/contracts/src/CVStrategy/facets/CVStreamingYieldFacet.sol:CVStreamingYieldFacet","label":"tribunalSafe","offset":0,"slot":"1","type":"t_address"},{"astId":87972,"contract":"pkg/contracts/src/CVStrategy/facets/CVStreamingYieldFacet.sol:CVStreamingYieldFacet","label":"submitterCollateralAmount","offset":0,"slot":"2","type":"t_uint256"},{"astId":87974,"contract":"pkg/contracts/src/CVStrategy/facets/CVStreamingYieldFacet.sol:CVStreamingYieldFacet","label":"challengerCollateralAmount","offset":0,"slot":"3","type":"t_uint256"},{"astId":87976,"contract":"pkg/contracts/src/CVStrategy/facets/CVStreamingYieldFacet.sol:CVStreamingYieldFacet","label":"defaultRuling","offset":0,"slot":"4","type":"t_uint256"},{"astId":87978,"contract":"pkg/contracts/src/CVStrategy/facets/CVStreamingYieldFacet.sol:CVStreamingYieldFacet","label":"defaultRulingTimeout","offset":0,"slot":"5","type":"t_uint256"}]},"t_struct(CVParams)87988_storage":{"encoding":"inplace","label":"struct CVParams","numberOfBytes":"128","members":[{"astId":87981,"contract":"pkg/contracts/src/CVStrategy/facets/CVStreamingYieldFacet.sol:CVStreamingYieldFacet","label":"maxRatio","offset":0,"slot":"0","type":"t_uint256"},{"astId":87983,"contract":"pkg/contracts/src/CVStrategy/facets/CVStreamingYieldFacet.sol:CVStreamingYieldFacet","label":"weight","offset":0,"slot":"1","type":"t_uint256"},{"astId":87985,"contract":"pkg/contracts/src/CVStrategy/facets/CVStreamingYieldFacet.sol:CVStreamingYieldFacet","label":"decay","offset":0,"slot":"2","type":"t_uint256"},{"astId":87987,"contract":"pkg/contracts/src/CVStrategy/facets/CVStreamingYieldFacet.sol:CVStreamingYieldFacet","label":"minThresholdPoints","offset":0,"slot":"3","type":"t_uint256"}]},"t_struct(Metadata)3080_storage":{"encoding":"inplace","label":"struct Metadata","numberOfBytes":"64","members":[{"astId":3076,"contract":"pkg/contracts/src/CVStrategy/facets/CVStreamingYieldFacet.sol:CVStreamingYieldFacet","label":"protocol","offset":0,"slot":"0","type":"t_uint256"},{"astId":3079,"contract":"pkg/contracts/src/CVStrategy/facets/CVStreamingYieldFacet.sol:CVStreamingYieldFacet","label":"pointer","offset":0,"slot":"1","type":"t_string_storage"}]},"t_struct(PointSystemConfig)87965_storage":{"encoding":"inplace","label":"struct PointSystemConfig","numberOfBytes":"32","members":[{"astId":87964,"contract":"pkg/contracts/src/CVStrategy/facets/CVStreamingYieldFacet.sol:CVStreamingYieldFacet","label":"maxAmount","offset":0,"slot":"0","type":"t_uint256"}]},"t_struct(Proposal)87957_storage":{"encoding":"inplace","label":"struct Proposal","numberOfBytes":"544","members":[{"astId":87925,"contract":"pkg/contracts/src/CVStrategy/facets/CVStreamingYieldFacet.sol:CVStreamingYieldFacet","label":"proposalId","offset":0,"slot":"0","type":"t_uint256"},{"astId":87927,"contract":"pkg/contracts/src/CVStrategy/facets/CVStreamingYieldFacet.sol:CVStreamingYieldFacet","label":"requestedAmount","offset":0,"slot":"1","type":"t_uint256"},{"astId":87929,"contract":"pkg/contracts/src/CVStrategy/facets/CVStreamingYieldFacet.sol:CVStreamingYieldFacet","label":"stakedAmount","offset":0,"slot":"2","type":"t_uint256"},{"astId":87931,"contract":"pkg/contracts/src/CVStrategy/facets/CVStreamingYieldFacet.sol:CVStreamingYieldFacet","label":"convictionLast","offset":0,"slot":"3","type":"t_uint256"},{"astId":87933,"contract":"pkg/contracts/src/CVStrategy/facets/CVStreamingYieldFacet.sol:CVStreamingYieldFacet","label":"beneficiary","offset":0,"slot":"4","type":"t_address"},{"astId":87935,"contract":"pkg/contracts/src/CVStrategy/facets/CVStreamingYieldFacet.sol:CVStreamingYieldFacet","label":"submitter","offset":0,"slot":"5","type":"t_address"},{"astId":87937,"contract":"pkg/contracts/src/CVStrategy/facets/CVStreamingYieldFacet.sol:CVStreamingYieldFacet","label":"requestedToken","offset":0,"slot":"6","type":"t_address"},{"astId":87939,"contract":"pkg/contracts/src/CVStrategy/facets/CVStreamingYieldFacet.sol:CVStreamingYieldFacet","label":"blockLast","offset":0,"slot":"7","type":"t_uint256"},{"astId":87942,"contract":"pkg/contracts/src/CVStrategy/facets/CVStreamingYieldFacet.sol:CVStreamingYieldFacet","label":"proposalStatus","offset":0,"slot":"8","type":"t_enum(ProposalStatus)87916"},{"astId":87946,"contract":"pkg/contracts/src/CVStrategy/facets/CVStreamingYieldFacet.sol:CVStreamingYieldFacet","label":"voterStakedPoints","offset":0,"slot":"9","type":"t_mapping(t_address,t_uint256)"},{"astId":87949,"contract":"pkg/contracts/src/CVStrategy/facets/CVStreamingYieldFacet.sol:CVStreamingYieldFacet","label":"metadata","offset":0,"slot":"10","type":"t_struct(Metadata)3080_storage"},{"astId":87952,"contract":"pkg/contracts/src/CVStrategy/facets/CVStreamingYieldFacet.sol:CVStreamingYieldFacet","label":"disputeInfo","offset":0,"slot":"12","type":"t_struct(ProposalDisputeInfo)87923_storage"},{"astId":87954,"contract":"pkg/contracts/src/CVStrategy/facets/CVStreamingYieldFacet.sol:CVStreamingYieldFacet","label":"lastDisputeCompletion","offset":0,"slot":"15","type":"t_uint256"},{"astId":87956,"contract":"pkg/contracts/src/CVStrategy/facets/CVStreamingYieldFacet.sol:CVStreamingYieldFacet","label":"arbitrableConfigVersion","offset":0,"slot":"16","type":"t_uint256"}]},"t_struct(ProposalDisputeInfo)87923_storage":{"encoding":"inplace","label":"struct ProposalDisputeInfo","numberOfBytes":"96","members":[{"astId":87918,"contract":"pkg/contracts/src/CVStrategy/facets/CVStreamingYieldFacet.sol:CVStreamingYieldFacet","label":"disputeId","offset":0,"slot":"0","type":"t_uint256"},{"astId":87920,"contract":"pkg/contracts/src/CVStrategy/facets/CVStreamingYieldFacet.sol:CVStreamingYieldFacet","label":"disputeTimestamp","offset":0,"slot":"1","type":"t_uint256"},{"astId":87922,"contract":"pkg/contracts/src/CVStrategy/facets/CVStreamingYieldFacet.sol:CVStreamingYieldFacet","label":"challenger","offset":0,"slot":"2","type":"t_address"}]},"t_struct(StreamState)87183_storage":{"encoding":"inplace","label":"struct CVStrategyBaseFacet.StreamState","numberOfBytes":"96","members":[{"astId":87176,"contract":"pkg/contracts/src/CVStrategy/facets/CVStreamingYieldFacet.sol:CVStreamingYieldFacet","label":"isActive","offset":0,"slot":"0","type":"t_bool"},{"astId":87178,"contract":"pkg/contracts/src/CVStrategy/facets/CVStreamingYieldFacet.sol:CVStreamingYieldFacet","label":"flowUnits","offset":1,"slot":"0","type":"t_uint128"},{"astId":87180,"contract":"pkg/contracts/src/CVStrategy/facets/CVStreamingYieldFacet.sol:CVStreamingYieldFacet","label":"lastUpdateBlock","offset":0,"slot":"1","type":"t_uint256"},{"astId":87182,"contract":"pkg/contracts/src/CVStrategy/facets/CVStreamingYieldFacet.sol:CVStreamingYieldFacet","label":"beneficiary","offset":0,"slot":"2","type":"t_address"}]},"t_uint128":{"encoding":"inplace","label":"uint128","numberOfBytes":"16"},"t_uint256":{"encoding":"inplace","label":"uint256","numberOfBytes":"32"},"t_uint64":{"encoding":"inplace","label":"uint64","numberOfBytes":"8"},"t_uint8":{"encoding":"inplace","label":"uint8","numberOfBytes":"1"}}},"id":160}