{"abi":[{"type":"function","name":"DISPUTE_COOLDOWN_SEC","inputs":[],"outputs":[{"name":"","type":"uint256","internalType":"uint256"}],"stateMutability":"view"},{"type":"function","name":"MAX_ALLOCATIONS_PER_TX","inputs":[],"outputs":[{"name":"","type":"uint256","internalType":"uint256"}],"stateMutability":"view"},{"type":"function","name":"MAX_PROPOSAL_COUNT","inputs":[],"outputs":[{"name":"","type":"uint256","internalType":"uint256"}],"stateMutability":"view"},{"type":"function","name":"MAX_SYNC_BATCH_MEMBERS","inputs":[],"outputs":[{"name":"","type":"uint256","internalType":"uint256"}],"stateMutability":"view"},{"type":"function","name":"MAX_VOTER_STAKED_PROPOSALS","inputs":[],"outputs":[{"name":"","type":"uint256","internalType":"uint256"}],"stateMutability":"view"},{"type":"function","name":"RULING_OPTIONS","inputs":[],"outputs":[{"name":"","type":"uint256","internalType":"uint256"}],"stateMutability":"view"},{"type":"function","name":"_isStrategyEnabled","inputs":[],"outputs":[{"name":"","type":"bool","internalType":"bool"}],"stateMutability":"view"},{"type":"function","name":"allocate","inputs":[{"name":"_data","type":"bytes","internalType":"bytes"},{"name":"_sender","type":"address","internalType":"address"}],"outputs":[],"stateMutability":"payable"},{"type":"function","name":"arbitrableConfigs","inputs":[{"name":"","type":"uint256","internalType":"uint256"}],"outputs":[{"name":"arbitrator","type":"address","internalType":"contract IArbitrator"},{"name":"tribunalSafe","type":"address","internalType":"address"},{"name":"submitterCollateralAmount","type":"uint256","internalType":"uint256"},{"name":"challengerCollateralAmount","type":"uint256","internalType":"uint256"},{"name":"defaultRuling","type":"uint256","internalType":"uint256"},{"name":"defaultRulingTimeout","type":"uint256","internalType":"uint256"}],"stateMutability":"view"},{"type":"function","name":"calculateProposalConviction","inputs":[{"name":"_proposalId","type":"uint256","internalType":"uint256"}],"outputs":[{"name":"","type":"uint256","internalType":"uint256"}],"stateMutability":"view"},{"type":"function","name":"cloneNonce","inputs":[],"outputs":[{"name":"","type":"uint256","internalType":"uint256"}],"stateMutability":"view"},{"type":"function","name":"collateralVault","inputs":[],"outputs":[{"name":"","type":"address","internalType":"contract ICollateralVault"}],"stateMutability":"view"},{"type":"function","name":"currentArbitrableConfigVersion","inputs":[],"outputs":[{"name":"","type":"uint256","internalType":"uint256"}],"stateMutability":"view"},{"type":"function","name":"cvParams","inputs":[],"outputs":[{"name":"maxRatio","type":"uint256","internalType":"uint256"},{"name":"weight","type":"uint256","internalType":"uint256"},{"name":"decay","type":"uint256","internalType":"uint256"},{"name":"minThresholdPoints","type":"uint256","internalType":"uint256"}],"stateMutability":"view"},{"type":"function","name":"disputeCount","inputs":[],"outputs":[{"name":"","type":"uint64","internalType":"uint64"}],"stateMutability":"view"},{"type":"function","name":"disputeIdToProposalId","inputs":[{"name":"","type":"uint256","internalType":"uint256"}],"outputs":[{"name":"","type":"uint256","internalType":"uint256"}],"stateMutability":"view"},{"type":"function","name":"distribute","inputs":[{"name":"","type":"address[]","internalType":"address[]"},{"name":"_data","type":"bytes","internalType":"bytes"},{"name":"","type":"address","internalType":"address"}],"outputs":[],"stateMutability":"nonpayable"},{"type":"function","name":"getPoolAmount","inputs":[],"outputs":[{"name":"","type":"uint256","internalType":"uint256"}],"stateMutability":"view"},{"type":"function","name":"pointConfig","inputs":[],"outputs":[{"name":"maxAmount","type":"uint256","internalType":"uint256"}],"stateMutability":"view"},{"type":"function","name":"pointSystem","inputs":[],"outputs":[{"name":"","type":"uint8","internalType":"enum PointSystem"}],"stateMutability":"view"},{"type":"function","name":"proposalCounter","inputs":[],"outputs":[{"name":"","type":"uint256","internalType":"uint256"}],"stateMutability":"view"},{"type":"function","name":"proposalExists","inputs":[{"name":"_proposalID","type":"uint256","internalType":"uint256"}],"outputs":[{"name":"","type":"bool","internalType":"bool"}],"stateMutability":"view"},{"type":"function","name":"proposalType","inputs":[],"outputs":[{"name":"","type":"uint8","internalType":"enum ProposalType"}],"stateMutability":"view"},{"type":"function","name":"registryCommunity","inputs":[],"outputs":[{"name":"","type":"address","internalType":"contract RegistryCommunity"}],"stateMutability":"view"},{"type":"function","name":"streamingRatePerSecond","inputs":[],"outputs":[{"name":"","type":"uint256","internalType":"uint256"}],"stateMutability":"view"},{"type":"function","name":"superfluidGDA","inputs":[],"outputs":[{"name":"","type":"address","internalType":"contract ISuperfluidPool"}],"stateMutability":"view"},{"type":"function","name":"superfluidToken","inputs":[],"outputs":[{"name":"","type":"address","internalType":"contract ISuperToken"}],"stateMutability":"view"},{"type":"function","name":"sybilScorer","inputs":[],"outputs":[{"name":"","type":"address","internalType":"contract ISybilScorer"}],"stateMutability":"view"},{"type":"function","name":"totalPointsActivated","inputs":[],"outputs":[{"name":"","type":"uint256","internalType":"uint256"}],"stateMutability":"view"},{"type":"function","name":"totalStaked","inputs":[],"outputs":[{"name":"","type":"uint256","internalType":"uint256"}],"stateMutability":"view"},{"type":"function","name":"totalVoterStakePct","inputs":[{"name":"","type":"address","internalType":"address"}],"outputs":[{"name":"","type":"uint256","internalType":"uint256"}],"stateMutability":"view"},{"type":"function","name":"voterStakedProposals","inputs":[{"name":"","type":"address","internalType":"address"},{"name":"","type":"uint256","internalType":"uint256"}],"outputs":[{"name":"","type":"uint256","internalType":"uint256"}],"stateMutability":"view"},{"type":"function","name":"votingPowerRegistry","inputs":[],"outputs":[{"name":"","type":"address","internalType":"contract IVotingPowerRegistry"}],"stateMutability":"view"},{"type":"event","name":"Distributed","inputs":[{"name":"proposalId","type":"uint256","indexed":false,"internalType":"uint256"},{"name":"beneficiary","type":"address","indexed":false,"internalType":"address"},{"name":"amount","type":"uint256","indexed":false,"internalType":"uint256"}],"anonymous":false},{"type":"event","name":"SupportAdded","inputs":[{"name":"from","type":"address","indexed":false,"internalType":"address"},{"name":"proposalId","type":"uint256","indexed":false,"internalType":"uint256"},{"name":"amount","type":"uint256","indexed":false,"internalType":"uint256"},{"name":"totalStakedAmount","type":"uint256","indexed":false,"internalType":"uint256"},{"name":"convictionLast","type":"uint256","indexed":false,"internalType":"uint256"}],"anonymous":false},{"type":"error","name":"AmountOverMaxRatio","inputs":[{"name":"requestedAmount","type":"uint256","internalType":"uint256"},{"name":"maxAllowed","type":"uint256","internalType":"uint256"},{"name":"poolAmount","type":"uint256","internalType":"uint256"}]},{"type":"error","name":"BlockNumberRegression","inputs":[{"name":"recordedBlock","type":"uint256","internalType":"uint256"},{"name":"currentBlock","type":"uint256","internalType":"uint256"}]},{"type":"error","name":"ConvictionUnderMinimumThreshold","inputs":[{"name":"conviction","type":"uint256","internalType":"uint256"},{"name":"threshold","type":"uint256","internalType":"uint256"},{"name":"requestedAmount","type":"uint256","internalType":"uint256"}]},{"type":"error","name":"NativeTransferFailed","inputs":[{"name":"recipient","type":"address","internalType":"address"},{"name":"amount","type":"uint256","internalType":"uint256"}]},{"type":"error","name":"NotEnoughPointsToSupport","inputs":[{"name":"pointsSupport","type":"uint256","internalType":"uint256"},{"name":"pointsBalance","type":"uint256","internalType":"uint256"}]},{"type":"error","name":"OnlyActiveProposal","inputs":[{"name":"proposalId","type":"uint256","internalType":"uint256"}]},{"type":"error","name":"OnlyAllo","inputs":[{"name":"sender","type":"address","internalType":"address"},{"name":"allo","type":"address","internalType":"address"}]},{"type":"error","name":"OnlyCouncilSafe","inputs":[{"name":"sender","type":"address","internalType":"address"},{"name":"councilSafe","type":"address","internalType":"address"},{"name":"owner","type":"address","internalType":"address"}]},{"type":"error","name":"OnlyCouncilSafeOrMember","inputs":[{"name":"sender","type":"address","internalType":"address"},{"name":"councilSafe","type":"address","internalType":"address"}]},{"type":"error","name":"OnlyInitialized","inputs":[{"name":"poolId","type":"uint256","internalType":"uint256"}]},{"type":"error","name":"OnlyMember","inputs":[{"name":"wallet","type":"address","internalType":"address"},{"name":"community","type":"address","internalType":"address"}]},{"type":"error","name":"OnlyOwner","inputs":[{"name":"sender","type":"address","internalType":"address"},{"name":"ownerAddress","type":"address","internalType":"address"}]},{"type":"error","name":"OnlyRegistryCommunity","inputs":[{"name":"sender","type":"address","internalType":"address"},{"name":"registry","type":"address","internalType":"address"}]},{"type":"error","name":"OnlySubmitter","inputs":[{"name":"proposalId","type":"uint256","internalType":"uint256"},{"name":"submitter","type":"address","internalType":"address"},{"name":"sender","type":"address","internalType":"address"}]},{"type":"error","name":"PoolAmountNotEnough","inputs":[{"name":"proposalId","type":"uint256","internalType":"uint256"},{"name":"requestedAmount","type":"uint256","internalType":"uint256"},{"name":"poolAmount","type":"uint256","internalType":"uint256"}]},{"type":"error","name":"PoolIsEmpty","inputs":[{"name":"poolAmount","type":"uint256","internalType":"uint256"}]},{"type":"error","name":"ProposalDataIsEmpty","inputs":[{"name":"inputLength","type":"uint256","internalType":"uint256"}]},{"type":"error","name":"ProposalDoesNotExist","inputs":[{"name":"proposalID","type":"uint256","internalType":"uint256"}]},{"type":"error","name":"ProposalInvalidForAllocation","inputs":[{"name":"_proposalId","type":"uint256","internalType":"uint256"},{"name":"_proposalStatus","type":"uint8","internalType":"enum ProposalStatus"}]},{"type":"error","name":"ProposalNotActive","inputs":[{"name":"proposalId","type":"uint256","internalType":"uint256"},{"name":"currentStatus","type":"uint8","internalType":"uint8"}]},{"type":"error","name":"ProposalNotInList","inputs":[{"name":"proposalId","type":"uint256","internalType":"uint256"}]},{"type":"error","name":"ProposalSupportDuplicated","inputs":[{"name":"_proposalId","type":"uint256","internalType":"uint256"},{"name":"index","type":"uint256","internalType":"uint256"}]},{"type":"error","name":"StrategyPaused","inputs":[{"name":"controller","type":"address","internalType":"address"}]},{"type":"error","name":"StrategySelectorPaused","inputs":[{"name":"selector","type":"bytes4","internalType":"bytes4"},{"name":"controller","type":"address","internalType":"address"}]},{"type":"error","name":"SupportUnderflow","inputs":[{"name":"_support","type":"uint256","internalType":"uint256"},{"name":"_delta","type":"int256","internalType":"int256"},{"name":"_result","type":"int256","internalType":"int256"}]},{"type":"error","name":"TooManyAllocations","inputs":[{"name":"provided","type":"uint256","internalType":"uint256"},{"name":"maxAllowed","type":"uint256","internalType":"uint256"}]},{"type":"error","name":"TooManyVoterStakedProposals","inputs":[{"name":"voter","type":"address","internalType":"address"},{"name":"current","type":"uint256","internalType":"uint256"},{"name":"maxAllowed","type":"uint256","internalType":"uint256"}]},{"type":"error","name":"UserCannotExecuteAction","inputs":[{"name":"user","type":"address","internalType":"address"}]},{"type":"error","name":"UserIsInactive","inputs":[{"name":"user","type":"address","internalType":"address"}]}],"bytecode":{"object":"0x608060405234801561000f575f80fd5b5061294d8061001d5f395ff3fe60806040526004361061017d575f3560e01c806305caa7f3146101815780630a6f0ee9146101b65780630bece79c146101d75780630c0512e9146101f6578063125fd1d9146102195780631374b22d1461022e5780631b36f56f1461025d5780632506b8701461027c578063255ffb38146102ae5780632dbd6fdd146102d95780633396045914610304578063351d9f961461031957806341bb76051461033f5780634ab4ba42146103d25780634c3ceb5b146103e65780635db64b99146103fa5780636003e4141461042557806360b0645a14610444578063626c47e81461046357806380fd91cd14610477578063817b1cd214610496578063868c57b8146104ab5780638dc83094146104ca578063914bdef0146103e657806394573cbb146104de578063a28889e1146104f3578063a47ff7e51461052a578063aba9ffee14610540578063b6c61f3114610555578063dfe9ec58146103e6578063ee50ee1b14610574578063ef2920fc14610588578063f5be3f7c1461059b575b5f80fd5b34801561018c575f80fd5b506080546101a0906001600160a01b031681565b6040516101ad919061212c565b60405180910390f35b3480156101c1575f80fd5b506101d56101d036600461228c565b6105b0565b005b3480156101e2575f80fd5b506079546101a0906001600160a01b031681565b348015610201575f80fd5b5061020b606e5481565b6040519081526020016101ad565b348015610224575f80fd5b5061020b606f5481565b348015610239575f80fd5b5061024d610248366004612356565b610c3c565b60405190151581526020016101ad565b348015610268575f80fd5b506081546101a0906001600160a01b031681565b348015610287575f80fd5b5060725460735460745460755461029e9392919084565b6040516101ad949392919061236d565b3480156102b9575f80fd5b5061020b6102c8366004612356565b607e6020525f908152604090205481565b3480156102e4575f80fd5b506076546102f790610100900460ff1681565b6040516101ad919061239c565b34801561030f575f80fd5b5061020b606c5481565b348015610324575f80fd5b506076546103329060ff1681565b6040516101ad91906123b6565b34801561034a575f80fd5b5061039a610359366004612356565b607f6020525f90815260409020805460018201546002830154600384015460048501546005909501546001600160a01b039485169593909416939192909186565b604080516001600160a01b039788168152969095166020870152938501929092526060840152608083015260a082015260c0016101ad565b3480156103dd575f80fd5b5061020b610c76565b3480156103f1575f80fd5b5061020b608081565b348015610405575f80fd5b5061020b6104143660046123ca565b607c6020525f908152604090205481565b348015610430575f80fd5b506078546101a0906001600160a01b031681565b34801561044f575f80fd5b5061020b61045e366004612356565b610ef5565b34801561046e575f80fd5b5061020b600381565b348015610482575f80fd5b506083546101a0906001600160a01b031681565b3480156104a1575f80fd5b5061020b60705481565b3480156104b6575f80fd5b5061020b6104c53660046123e5565b610fb9565b3480156104d5575f80fd5b5061024d610fe4565b3480156104e9575f80fd5b5061020b60825481565b3480156104fe575f80fd5b50606d54610512906001600160401b031681565b6040516001600160401b0390911681526020016101ad565b348015610535575f80fd5b5060775461020b9081565b34801561054b575f80fd5b5061020b60715481565b348015610560575f80fd5b50607a546101a0906001600160a01b031681565b34801561057f575f80fd5b5061020b604081565b6101d561059636600461240f565b6110e0565b3480156105a6575f80fd5b5061020b611c2081565b6065546001600160a01b031633146105f557606554604051636ca3252960e01b81526105ec9133916001600160a01b039091169060040161245d565b60405180910390fd5b6068545f0361061d5760685460405163243d58fb60e21b81526004016105ec91815260200190565b5f8251116106435781516040516307ab773f60e01b81526004016105ec91815260200190565b5f61064c610c76565b9050805f0361067157604051633d16389f60e21b8152600481018290526024016105ec565b5f838060200190518101906106869190612477565b6080549091506001600160a01b0316156107e8575f818152607b602052604090819020600181015460069091015491516370a0823160e01b815290916001600160a01b0316906370a08231906106e090309060040161212c565b602060405180830381865afa1580156106fb573d5f803e3d5ffd5b505050506040513d601f19601f8201168201806040525081019061071f9190612477565b10156107e8576080546040516370a0823160e01b81526001600160a01b03909116906311bcc81e9082906370a082319061075d90309060040161212c565b602060405180830381865afa158015610778573d5f803e3d5ffd5b505050506040513d601f19601f8201168201806040525081019061079c9190612477565b6040518263ffffffff1660e01b81526004016107ba91815260200190565b5f604051808303815f87803b1580156107d1575f80fd5b505af11580156107e3573d5f803e3d5ffd5b505050505b600160765460ff16600281111561080157610801612388565b03610c35575f818152607b6020526040902054811480159061082257508015155b156108435760405163c1d17bef60e01b8152600481018290526024016105ec565b60015f828152607b602052604090206008015460ff16600681111561086a5761086a612388565b146108bb575f818152607b6020526040902060080154819060ff16600681111561089657610896612388565b60405163052d1a7b60e21b8152600481019290925260ff1660248201526044016105ec565b5f818152607b6020526040902060010154821015610902575f818152607b602052604090819020600101549051632c31d85b60e11b81526105ec918391859060040161248e565b5f818152607b602052604090206001015461091c9061186a565b15610972575f629896808360725f015461093691906124b8565b61094091906124cf565b5f838152607b602052604090819020600101549051633e4bb86360e01b81529192506105ec918390869060040161248e565b5f61097c82611895565b5f838152607b60205260408082206001015460715460745460735460725460755495516314eff2dd60e11b81526004810195909552602485018b905260448501939093526064840191909152608483015260a482015260c48101919091529192509073__$f1b7c69ba751c396eddc93d3bbc5414fd9$__906329dfe5ba9060e401602060405180830381865af4158015610a18573d5f803e3d5ffd5b505050506040513d601f19601f82011682018060405250810190610a3c9190612477565b9050808211158015610a5d57505f838152607b602052604090206001015415155b15610a92575f838152607b602052604090819020600101549051637ac83e3d60e01b81526105ec91849184919060040161248e565b5f838152607b602052604090819020600801805460ff19166004908117909155606554606854925163068bcd8d60e01b815291820192909252610b52916001600160a01b03169063068bcd8d906024015f60405180830381865afa158015610afc573d5f803e3d5ffd5b505050506040513d5f823e601f3d908101601f19168201604052610b239190810190612510565b6040908101515f868152607b6020529190912060048101546001909101546001600160a01b03909116906118de565b6079545f848152607b6020908152604080832060050154606f548452607f9092529182902060020154915163099ea56b60e41b81526001600160a01b03938416936399ea56b093610baa938993921691600401612628565b5f604051808303815f87803b158015610bc1575f80fd5b505af1158015610bd3573d5f803e3d5ffd5b5050505f848152607b602052604090819020600481015460019091015491517fa7932e9c92f31e1ed56b29d00bbe669a97484dc24de28dd9c8c0429df7f358479350610c2a9287926001600160a01b031691612628565b60405180910390a150505b5050505050565b5f818152607b602052604081205415801590610c7057505f828152607b60205260409020600501546001600160a01b031615155b92915050565b60655460685460405163068bcd8d60e01b81525f9283926001600160a01b039091169163068bcd8d91610caf9160040190815260200190565b5f60405180830381865afa158015610cc9573d5f803e3d5ffd5b505050506040513d5f823e601f3d908101601f19168201604052610cf09190810190612510565b60400151905073eeeeeeeeeeeeeeeeeeeeeeeeeeeeeeeeeeeeeeed196001600160a01b03821601610d22574791505090565b6040516370a0823160e01b81525f906001600160a01b038316906370a0823190610d5090309060040161212c565b602060405180830381865afa158015610d6b573d5f803e3d5ffd5b505050506040513d601f19601f82011682018060405250810190610d8f9190612477565b6080549091505f906001600160a01b031615610e19576080546040516370a0823160e01b81526001600160a01b03909116906370a0823190610dd590309060040161212c565b602060405180830381865afa158015610df0573d5f803e3d5ffd5b505050506040513d601f19601f82011682018060405250810190610e149190612477565b610e1b565b5f5b90505f836001600160a01b031663313ce5676040518163ffffffff1660e01b8152600401602060405180830381865afa158015610e5a573d5f803e3d5ffd5b505050506040513d601f19601f82011682018060405250810190610e7e9190612647565b905060128160ff161015610eb357610e97816012612667565b610ea290600a612760565b610eac90836124cf565b9150610ee2565b60128160ff161115610ee257610eca601282612667565b610ed590600a612760565b610edf90836124b8565b91505b610eec828461276e565b94505050505090565b5f818152607b60205260408120610f0a610fe4565b610f18576003015492915050565b73__$f1b7c69ba751c396eddc93d3bbc5414fd9$__63010dfe64826007015443610f429190612781565b600384015460028501546074546040516001600160e01b031960e087901b168152610f73949392919060040161236d565b602060405180830381865af4158015610f8e573d5f803e3d5ffd5b505050506040513d601f19601f82011682018060405250810190610fb29190612477565b9392505050565b607d602052815f5260405f208181548110610fd2575f80fd5b905f5260205f20015f91509150505481565b6078545f906001600160a01b0316610ffc5750600190565b6078546040515f9182916001600160a01b0390911690633a871fe160e01b9061102990309060240161212c565b60408051601f198184030181529181526020820180516001600160e01b03166001600160e01b03199094169390931790925290516110679190612794565b5f60405180830381855afa9150503d805f811461109f576040519150601f19603f3d011682016040523d82523d5f602084013e6110a4565b606091505b50915091508115806110b7575060208151105b156110c55760019250505090565b808060200190518101906110d991906127af565b9250505090565b6065546001600160a01b0316331461111c57606554604051636ca3252960e01b81526105ec9133916001600160a01b039091169060040161245d565b6068545f036111445760685460405163243d58fb60e21b81526004016105ec91815260200190565b60785460405163208a40f360e11b81526001600160a01b039091169063411481e69061117490309060040161212c565b5f6040518083038186803b15801561118a575f80fd5b505afa15801561119c573d5f803e3d5ffd5b505050505f828060200190518101906111b591906127ce565b90506040815111156111df57805160408051633d4057c560e11b81526004016105ec929190612871565b5f5b81518110156112355761122d8282815181106111ff576111ff61287f565b60200260200101515f015183838151811061121c5761121c61287f565b60200260200101516020015161198d565b6001016111e1565b5061123f82611a53565b60785460405163011de97360e61b81526001600160a01b039091169063477a5cc090611271908590309060040161245d565b602060405180830381865afa15801561128c573d5f803e3d5ffd5b505050506040513d601f19601f820116820180604052508101906112b091906127af565b6112cf5781604051634f6fcf7360e11b81526004016105ec919061212c565b5f806112da84611af3565b90505f5b8351811015611364578115801561131157505f8482815181106113035761130361287f565b602002602001015160200151135b1561133157846040516307772b5360e51b81526004016105ec919061212c565b8381815181106113435761134361287f565b6020026020010151602001518361135a9190612893565b92506001016112de565b506001600160a01b0384165f908152607c60205260408120546113879084611d0c565b608354604051637817ee4f60e01b81529192505f916001600160a01b0390911690637817ee4f906113be908990309060040161245d565b602060405180830381865afa1580156113d9573d5f803e3d5ffd5b505050506040513d601f19601f820116820180604052508101906113fd9190612477565b905080821115611424578181604051636b20c17f60e11b81526004016105ec929190612871565b506001600160a01b0385165f908152607c60205260408120919091556060925090505b8251811015610c35575f8382815181106114635761146361287f565b60200260200101515f0151905082515f036114bc57604080516001808252818301909252906020808301908036833701905050925080835f815181106114ab576114ab61287f565b6020026020010181815250506115d8565b5f805b845181101561151157828582815181106114db576114db61287f565b60200260200101510361150957600191508281604051632b7aec5560e21b81526004016105ec929190612871565b6001016114bf565b50806115d6575f84516001611526919061276e565b6001600160401b0381111561153d5761153d612140565b604051908082528060200260200182016040528015611566578160200160208202803683370190505b5090505f5b85518110156115b3578581815181106115865761158661287f565b60200260200101518282815181106115a0576115a061287f565b602090810291909101015260010161156b565b5082818651815181106115c8576115c861287f565b602090810291909101015293505b505b5f8483815181106115eb576115eb61287f565b6020908102919091018101518101515f848152607b8352604080822060028101546001600160a01b038c16845260098201909552908220549294509291906116338286611d0c565b6001600160a01b038b165f9081526009860160205260408120829055909150805b6001600160a01b038c165f908152607d60205260409020548110156116bd5785546001600160a01b038d165f908152607d6020526040902080548390811061169e5761169e61287f565b905f5260205f200154036116b557600191506116bd565b600101611654565b5080611745576001600160a01b038b165f908152607d60205260409020546080811061171557604051637ebba14d60e11b81526001600160a01b038d16600482015260248101829052608060448201526064016105ec565b506001600160a01b038b165f908152607d6020908152604082208754815460018101835591845291909220909101555b818311611793576117568383612781565b60705f828254611766919061276e565b9091555061177690508383612781565b856002015f828254611788919061276e565b909155506117d59050565b61179d8284612781565b60705f8282546117ad9190612781565b909155506117bd90508284612781565b856002015f8282546117cf9190612781565b90915550505b84600701545f036117eb57436007860155611857565b6117f58585611d41565b60028501546003860154604080516001600160a01b038f168152602081018b9052908101859052606081019290925260808201527f0227f642ddcf2042ceaeafadb9d540f432072c00cd4862881667168dcc14710f9060a00160405180910390a15b5050600190950194506114479350505050565b5f61187862989680836124b8565b611880610c76565b60725461188d91906124b8565b111592915050565b5f818152607b60205260408120805483146118c65760405163c1d17bef60e01b8152600481018490526024016105ec565b6118d4818260020154611d41565b6003015492915050565b73eeeeeeeeeeeeeeeeeeeeeeeeeeeeeeeeeeeeeeed196001600160a01b0384160161197d575f826001600160a01b0316826040515f6040518083038185875af1925050503d805f811461194c576040519150601f19603f3d011682016040523d82523d5f602084013e611951565b606091505b505090508061197757828260405163296c17bb60e21b81526004016105ec9291906128ba565b50505050565b611988838383611d7a565b505050565b5f828152607b602052604081209082138015611a2857505f600882015460ff1660068111156119be576119be612388565b14806119e257506003600882015460ff1660068111156119e0576119e0612388565b145b80611a0557506004600882015460ff166006811115611a0357611a03612388565b145b80611a2857506006600882015460ff166006811115611a2657611a26612388565b145b156119885760088101546040516394d57ead60e01b81526105ec91859160ff909116906004016128d3565b60835460405163288c314960e21b81526001600160a01b039091169063a230c52490611a8390849060040161212c565b602060405180830381865afa158015611a9e573d5f803e3d5ffd5b505050506040513d601f19601f82011682018060405250810190611ac291906127af565b611af057607854604051636332657560e11b81526105ec9183916001600160a01b039091169060040161245d565b50565b607a545f906001600160a01b031615611b7757607a546040516302154c3d60e51b81526001600160a01b03909116906342a987a090611b38908590309060040161245d565b602060405180830381865afa158015611b53573d5f803e3d5ffd5b505050506040513d601f19601f82011682018060405250810190610c7091906127af565b6004607654610100900460ff166004811115611b9557611b95612388565b148015611bb357506078546083546001600160a01b03908116911614155b15611be85760835460405163288c314960e21b81526001600160a01b039091169063a230c52490611b3890859060040161212c565b6068546040516810531313d5d31254d560ba1b602082015260298101919091525f9060490160408051601f19818403018152908290528051602090910120607854632474521560e21b83529092506001600160a01b0316906391d1485490611c569084905f906004016128f7565b602060405180830381865afa158015611c71573d5f803e3d5ffd5b505050506040513d601f19601f82011682018060405250810190611c9591906127af565b80610fb25750607854604051632474521560e21b81526001600160a01b03909116906391d1485490611ccd90849087906004016128f7565b602060405180830381865afa158015611ce8573d5f803e3d5ffd5b505050506040513d601f19601f82011682018060405250810190610fb291906127af565b5f80611d188385612893565b90505f811215610fb257838382604051631dde38a160e11b81526004016105ec9392919061248e565b5f80611d4d8484611dd0565b91509150815f148015611d5e575080155b15611d695750505050565b600784015560039092019190915550565b6119888363a9059cbb60e01b8484604051602401611d999291906128ba565b60408051601f198184030181529190526020810180516001600160e01b03166001600160e01b031990931692909217909152611ecf565b5f80611dda610fe4565b611deb575050600382015443611ec8565b4390508084600701541115611e1b5783600701548160405163102300bd60e01b81526004016105ec929190612871565b80846007015403611e3057505f905080611ec8565b73__$f1b7c69ba751c396eddc93d3bbc5414fd9$__63010dfe64856007015483611e5a9190612781565b60038701546074546040516001600160e01b031960e086901b168152611e86939291899160040161236d565b602060405180830381865af4158015611ea1573d5f803e3d5ffd5b505050506040513d601f19601f82011682018060405250810190611ec59190612477565b91505b9250929050565b5f611f23826040518060400160405280602081526020017f5361666545524332303a206c6f772d6c6576656c2063616c6c206661696c6564815250856001600160a01b0316611fa29092919063ffffffff16565b905080515f1480611f43575080806020019051810190611f4391906127af565b6119885760405162461bcd60e51b815260206004820152602a60248201527f5361666545524332303a204552433230206f7065726174696f6e20646964206e6044820152691bdd081cdd58d8d9595960b21b60648201526084016105ec565b6060611fb084845f85611fb8565b949350505050565b6060824710156120195760405162461bcd60e51b815260206004820152602660248201527f416464726573733a20696e73756666696369656e742062616c616e636520666f6044820152651c8818d85b1b60d21b60648201526084016105ec565b5f80866001600160a01b031685876040516120349190612794565b5f6040518083038185875af1925050503d805f811461206e576040519150601f19603f3d011682016040523d82523d5f602084013e612073565b606091505b50915091506120848783838761208f565b979650505050505050565b606083156120fd5782515f036120f6576001600160a01b0385163b6120f65760405162461bcd60e51b815260206004820152601d60248201527f416464726573733a2063616c6c20746f206e6f6e2d636f6e747261637400000060448201526064016105ec565b5081611fb0565b611fb083838151156121125781518083602001fd5b8060405162461bcd60e51b81526004016105ec919061290e565b6001600160a01b0391909116815260200190565b634e487b7160e01b5f52604160045260245ffd5b60405160c081016001600160401b038111828210171561217657612176612140565b60405290565b604080519081016001600160401b038111828210171561217657612176612140565b604051601f8201601f191681016001600160401b03811182821017156121c6576121c6612140565b604052919050565b5f6001600160401b038211156121e6576121e6612140565b5060051b60200190565b6001600160a01b0381168114611af0575f80fd5b803561220f816121f0565b919050565b5f6001600160401b0382111561222c5761222c612140565b50601f01601f191660200190565b5f82601f830112612249575f80fd5b813561225c61225782612214565b61219e565b818152846020838601011115612270575f80fd5b816020850160208301375f918101602001919091529392505050565b5f805f6060848603121561229e575f80fd5b83356001600160401b03808211156122b4575f80fd5b818601915086601f8301126122c7575f80fd5b813560206122d7612257836121ce565b82815260059290921b8401810191818101908a8411156122f5575f80fd5b948201945b8386101561231c57853561230d816121f0565b825294820194908201906122fa565b97505087013592505080821115612331575f80fd5b5061233e8682870161223a565b92505061234d60408501612204565b90509250925092565b5f60208284031215612366575f80fd5b5035919050565b93845260208401929092526040830152606082015260800190565b634e487b7160e01b5f52602160045260245ffd5b60208101600583106123b0576123b0612388565b91905290565b60208101600383106123b0576123b0612388565b5f602082840312156123da575f80fd5b8135610fb2816121f0565b5f80604083850312156123f6575f80fd5b8235612401816121f0565b946020939093013593505050565b5f8060408385031215612420575f80fd5b82356001600160401b03811115612435575f80fd5b6124418582860161223a565b9250506020830135612452816121f0565b809150509250929050565b6001600160a01b0392831681529116602082015260400190565b5f60208284031215612487575f80fd5b5051919050565b9283526020830191909152604082015260600190565b634e487b7160e01b5f52601160045260245ffd5b8082028115828204841417610c7057610c706124a4565b5f826124e957634e487b7160e01b5f52601260045260245ffd5b500490565b5f5b838110156125085781810151838201526020016124f0565b50505f910152565b5f6020808385031215612521575f80fd5b82516001600160401b0380821115612537575f80fd5b9084019060c0828703121561254a575f80fd5b612552612154565b8251815283830151612563816121f0565b818501526040830151612575816121f0565b604082015260608301518281111561258b575f80fd5b83016040818903121561259c575f80fd5b6125a461217c565b8151815285820151848111156125b8575f80fd5b82019350601f840189136125ca575f80fd5b835191506125da61225783612214565b82815289878487010111156125ed575f80fd5b6125fc838883018988016124ee565b95810195909552506060810193909352506080818101519083015260a090810151908201529392505050565b9283526001600160a01b03919091166020830152604082015260600190565b5f60208284031215612657575f80fd5b815160ff81168114610fb2575f80fd5b60ff8281168282160390811115610c7057610c706124a4565b600181815b808511156126ba57815f19048211156126a0576126a06124a4565b808516156126ad57918102915b93841c9390800290612685565b509250929050565b5f826126d057506001610c70565b816126dc57505f610c70565b81600181146126f257600281146126fc57612718565b6001915050610c70565b60ff84111561270d5761270d6124a4565b50506001821b610c70565b5060208310610133831016604e8410600b841016171561273b575081810a610c70565b6127458383612680565b805f1904821115612758576127586124a4565b029392505050565b5f610fb260ff8416836126c2565b80820180821115610c7057610c706124a4565b81810381811115610c7057610c706124a4565b5f82516127a58184602087016124ee565b9190910192915050565b5f602082840312156127bf575f80fd5b81518015158114610fb2575f80fd5b5f60208083850312156127df575f80fd5b82516001600160401b038111156127f4575f80fd5b8301601f81018513612804575f80fd5b8051612812612257826121ce565b81815260069190911b82018301908381019087831115612830575f80fd5b928401925b82841015612084576040848903121561284c575f80fd5b61285461217c565b845181528585015186820152825260409093019290840190612835565b918252602082015260400190565b634e487b7160e01b5f52603260045260245ffd5b8082018281125f8312801582168215821617156128b2576128b26124a4565b505092915050565b6001600160a01b03929092168252602082015260400190565b82815260408101600783106128ea576128ea612388565b8260208301529392505050565b9182526001600160a01b0316602082015260400190565b602081525f825180602084015261292c8160408501602087016124ee565b601f01601f1916919091016040019291505056fea164736f6c6343000817000a","linkReferences":{"pkg/contracts/src/CVStrategy/ConvictionsUtils.sol":{"ConvictionsUtils":[{"start":2557,"length":20},{"start":3895,"length":20},{"start":7759,"length":20}]}}},"methodIdentifiers":{"DISPUTE_COOLDOWN_SEC()":"f5be3f7c","MAX_ALLOCATIONS_PER_TX()":"ee50ee1b","MAX_PROPOSAL_COUNT()":"dfe9ec58","MAX_SYNC_BATCH_MEMBERS()":"4c3ceb5b","MAX_VOTER_STAKED_PROPOSALS()":"914bdef0","RULING_OPTIONS()":"626c47e8","_isStrategyEnabled()":"8dc83094","allocate(bytes,address)":"ef2920fc","arbitrableConfigs(uint256)":"41bb7605","calculateProposalConviction(uint256)":"60b0645a","cloneNonce()":"33960459","collateralVault()":"0bece79c","currentArbitrableConfigVersion()":"125fd1d9","cvParams()":"2506b870","disputeCount()":"a28889e1","disputeIdToProposalId(uint256)":"255ffb38","distribute(address[],bytes,address)":"0a6f0ee9","getPoolAmount()":"4ab4ba42","pointConfig()":"a47ff7e5","pointSystem()":"2dbd6fdd","proposalCounter()":"0c0512e9","proposalExists(uint256)":"1374b22d","proposalType()":"351d9f96","registryCommunity()":"6003e414","streamingRatePerSecond()":"94573cbb","superfluidGDA()":"1b36f56f","superfluidToken()":"05caa7f3","sybilScorer()":"b6c61f31","totalPointsActivated()":"aba9ffee","totalStaked()":"817b1cd2","totalVoterStakePct(address)":"5db64b99","voterStakedProposals(address,uint256)":"868c57b8","votingPowerRegistry()":"80fd91cd"},"storageLayout":{"storage":[{"astId":111623,"contract":"pkg/contracts/src/CVStrategy/facets/CVAllocationFacet.sol:CVAllocationFacet","label":"_initialized","offset":0,"slot":"0","type":"t_uint8"},{"astId":111625,"contract":"pkg/contracts/src/CVStrategy/facets/CVAllocationFacet.sol:CVAllocationFacet","label":"_initializing","offset":1,"slot":"0","type":"t_bool"},{"astId":111629,"contract":"pkg/contracts/src/CVStrategy/facets/CVAllocationFacet.sol:CVAllocationFacet","label":"__gap_init","offset":0,"slot":"1","type":"t_array(t_uint256)50_storage"},{"astId":111632,"contract":"pkg/contracts/src/CVStrategy/facets/CVAllocationFacet.sol:CVAllocationFacet","label":"_owner","offset":0,"slot":"51","type":"t_address"},{"astId":111636,"contract":"pkg/contracts/src/CVStrategy/facets/CVAllocationFacet.sol:CVAllocationFacet","label":"__gap_ownable","offset":0,"slot":"52","type":"t_array(t_uint256)49_storage"},{"astId":111640,"contract":"pkg/contracts/src/CVStrategy/facets/CVAllocationFacet.sol:CVAllocationFacet","label":"allo","offset":0,"slot":"101","type":"t_contract(IAllo)2631"},{"astId":111642,"contract":"pkg/contracts/src/CVStrategy/facets/CVAllocationFacet.sol:CVAllocationFacet","label":"strategyId","offset":0,"slot":"102","type":"t_bytes32"},{"astId":111644,"contract":"pkg/contracts/src/CVStrategy/facets/CVAllocationFacet.sol:CVAllocationFacet","label":"poolActive","offset":0,"slot":"103","type":"t_bool"},{"astId":111646,"contract":"pkg/contracts/src/CVStrategy/facets/CVAllocationFacet.sol:CVAllocationFacet","label":"poolId","offset":0,"slot":"104","type":"t_uint256"},{"astId":111648,"contract":"pkg/contracts/src/CVStrategy/facets/CVAllocationFacet.sol:CVAllocationFacet","label":"poolAmount","offset":0,"slot":"105","type":"t_uint256"},{"astId":111651,"contract":"pkg/contracts/src/CVStrategy/facets/CVAllocationFacet.sol:CVAllocationFacet","label":"collateralVaultTemplate","offset":0,"slot":"106","type":"t_address"},{"astId":111654,"contract":"pkg/contracts/src/CVStrategy/facets/CVAllocationFacet.sol:CVAllocationFacet","label":"surpressStateMutabilityWarning","offset":0,"slot":"107","type":"t_uint256"},{"astId":111657,"contract":"pkg/contracts/src/CVStrategy/facets/CVAllocationFacet.sol:CVAllocationFacet","label":"cloneNonce","offset":0,"slot":"108","type":"t_uint256"},{"astId":111660,"contract":"pkg/contracts/src/CVStrategy/facets/CVAllocationFacet.sol:CVAllocationFacet","label":"disputeCount","offset":0,"slot":"109","type":"t_uint64"},{"astId":111663,"contract":"pkg/contracts/src/CVStrategy/facets/CVAllocationFacet.sol:CVAllocationFacet","label":"proposalCounter","offset":0,"slot":"110","type":"t_uint256"},{"astId":111666,"contract":"pkg/contracts/src/CVStrategy/facets/CVAllocationFacet.sol:CVAllocationFacet","label":"currentArbitrableConfigVersion","offset":0,"slot":"111","type":"t_uint256"},{"astId":111669,"contract":"pkg/contracts/src/CVStrategy/facets/CVAllocationFacet.sol:CVAllocationFacet","label":"totalStaked","offset":0,"slot":"112","type":"t_uint256"},{"astId":111672,"contract":"pkg/contracts/src/CVStrategy/facets/CVAllocationFacet.sol:CVAllocationFacet","label":"totalPointsActivated","offset":0,"slot":"113","type":"t_uint256"},{"astId":111676,"contract":"pkg/contracts/src/CVStrategy/facets/CVAllocationFacet.sol:CVAllocationFacet","label":"cvParams","offset":0,"slot":"114","type":"t_struct(CVParams)113350_storage"},{"astId":111680,"contract":"pkg/contracts/src/CVStrategy/facets/CVAllocationFacet.sol:CVAllocationFacet","label":"proposalType","offset":0,"slot":"118","type":"t_enum(ProposalType)113250"},{"astId":111684,"contract":"pkg/contracts/src/CVStrategy/facets/CVAllocationFacet.sol:CVAllocationFacet","label":"pointSystem","offset":1,"slot":"118","type":"t_enum(PointSystem)113256"},{"astId":111688,"contract":"pkg/contracts/src/CVStrategy/facets/CVAllocationFacet.sol:CVAllocationFacet","label":"pointConfig","offset":0,"slot":"119","type":"t_struct(PointSystemConfig)113327_storage"},{"astId":111692,"contract":"pkg/contracts/src/CVStrategy/facets/CVAllocationFacet.sol:CVAllocationFacet","label":"registryCommunity","offset":0,"slot":"120","type":"t_contract(RegistryCommunity)124473"},{"astId":111696,"contract":"pkg/contracts/src/CVStrategy/facets/CVAllocationFacet.sol:CVAllocationFacet","label":"collateralVault","offset":0,"slot":"121","type":"t_contract(ICollateralVault)130345"},{"astId":111700,"contract":"pkg/contracts/src/CVStrategy/facets/CVAllocationFacet.sol:CVAllocationFacet","label":"sybilScorer","offset":0,"slot":"122","type":"t_contract(ISybilScorer)121878"},{"astId":111706,"contract":"pkg/contracts/src/CVStrategy/facets/CVAllocationFacet.sol:CVAllocationFacet","label":"proposals","offset":0,"slot":"123","type":"t_mapping(t_uint256,t_struct(Proposal)113319_storage)"},{"astId":111711,"contract":"pkg/contracts/src/CVStrategy/facets/CVAllocationFacet.sol:CVAllocationFacet","label":"totalVoterStakePct","offset":0,"slot":"124","type":"t_mapping(t_address,t_uint256)"},{"astId":111717,"contract":"pkg/contracts/src/CVStrategy/facets/CVAllocationFacet.sol:CVAllocationFacet","label":"voterStakedProposals","offset":0,"slot":"125","type":"t_mapping(t_address,t_array(t_uint256)dyn_storage)"},{"astId":111722,"contract":"pkg/contracts/src/CVStrategy/facets/CVAllocationFacet.sol:CVAllocationFacet","label":"disputeIdToProposalId","offset":0,"slot":"126","type":"t_mapping(t_uint256,t_uint256)"},{"astId":111728,"contract":"pkg/contracts/src/CVStrategy/facets/CVAllocationFacet.sol:CVAllocationFacet","label":"arbitrableConfigs","offset":0,"slot":"127","type":"t_mapping(t_uint256,t_struct(ArbitrableConfig)113341_storage)"},{"astId":111732,"contract":"pkg/contracts/src/CVStrategy/facets/CVAllocationFacet.sol:CVAllocationFacet","label":"superfluidToken","offset":0,"slot":"128","type":"t_contract(ISuperToken)80140"},{"astId":111736,"contract":"pkg/contracts/src/CVStrategy/facets/CVAllocationFacet.sol:CVAllocationFacet","label":"superfluidGDA","offset":0,"slot":"129","type":"t_contract(ISuperfluidPool)78968"},{"astId":111739,"contract":"pkg/contracts/src/CVStrategy/facets/CVAllocationFacet.sol:CVAllocationFacet","label":"streamingRatePerSecond","offset":0,"slot":"130","type":"t_uint256"},{"astId":111743,"contract":"pkg/contracts/src/CVStrategy/facets/CVAllocationFacet.sol:CVAllocationFacet","label":"votingPowerRegistry","offset":0,"slot":"131","type":"t_contract(IVotingPowerRegistry)130549"},{"astId":111748,"contract":"pkg/contracts/src/CVStrategy/facets/CVAllocationFacet.sol:CVAllocationFacet","label":"__gap","offset":0,"slot":"132","type":"t_array(t_uint256)46_storage"}],"types":{"t_address":{"encoding":"inplace","label":"address","numberOfBytes":"20"},"t_array(t_uint256)46_storage":{"encoding":"inplace","label":"uint256[46]","numberOfBytes":"1472","base":"t_uint256"},"t_array(t_uint256)49_storage":{"encoding":"inplace","label":"uint256[49]","numberOfBytes":"1568","base":"t_uint256"},"t_array(t_uint256)50_storage":{"encoding":"inplace","label":"uint256[50]","numberOfBytes":"1600","base":"t_uint256"},"t_array(t_uint256)dyn_storage":{"encoding":"dynamic_array","label":"uint256[]","numberOfBytes":"32","base":"t_uint256"},"t_bool":{"encoding":"inplace","label":"bool","numberOfBytes":"1"},"t_bytes32":{"encoding":"inplace","label":"bytes32","numberOfBytes":"32"},"t_contract(IAllo)2631":{"encoding":"inplace","label":"contract IAllo","numberOfBytes":"20"},"t_contract(IArbitrator)130312":{"encoding":"inplace","label":"contract IArbitrator","numberOfBytes":"20"},"t_contract(ICollateralVault)130345":{"encoding":"inplace","label":"contract ICollateralVault","numberOfBytes":"20"},"t_contract(ISuperToken)80140":{"encoding":"inplace","label":"contract ISuperToken","numberOfBytes":"20"},"t_contract(ISuperfluidPool)78968":{"encoding":"inplace","label":"contract ISuperfluidPool","numberOfBytes":"20"},"t_contract(ISybilScorer)121878":{"encoding":"inplace","label":"contract ISybilScorer","numberOfBytes":"20"},"t_contract(IVotingPowerRegistry)130549":{"encoding":"inplace","label":"contract IVotingPowerRegistry","numberOfBytes":"20"},"t_contract(RegistryCommunity)124473":{"encoding":"inplace","label":"contract RegistryCommunity","numberOfBytes":"20"},"t_enum(PointSystem)113256":{"encoding":"inplace","label":"enum PointSystem","numberOfBytes":"1"},"t_enum(ProposalStatus)113276":{"encoding":"inplace","label":"enum ProposalStatus","numberOfBytes":"1"},"t_enum(ProposalType)113250":{"encoding":"inplace","label":"enum ProposalType","numberOfBytes":"1"},"t_mapping(t_address,t_array(t_uint256)dyn_storage)":{"encoding":"mapping","key":"t_address","label":"mapping(address => uint256[])","numberOfBytes":"32","value":"t_array(t_uint256)dyn_storage"},"t_mapping(t_address,t_uint256)":{"encoding":"mapping","key":"t_address","label":"mapping(address => uint256)","numberOfBytes":"32","value":"t_uint256"},"t_mapping(t_uint256,t_struct(ArbitrableConfig)113341_storage)":{"encoding":"mapping","key":"t_uint256","label":"mapping(uint256 => struct ArbitrableConfig)","numberOfBytes":"32","value":"t_struct(ArbitrableConfig)113341_storage"},"t_mapping(t_uint256,t_struct(Proposal)113319_storage)":{"encoding":"mapping","key":"t_uint256","label":"mapping(uint256 => struct Proposal)","numberOfBytes":"32","value":"t_struct(Proposal)113319_storage"},"t_mapping(t_uint256,t_uint256)":{"encoding":"mapping","key":"t_uint256","label":"mapping(uint256 => uint256)","numberOfBytes":"32","value":"t_uint256"},"t_string_storage":{"encoding":"bytes","label":"string","numberOfBytes":"32"},"t_struct(ArbitrableConfig)113341_storage":{"encoding":"inplace","label":"struct ArbitrableConfig","numberOfBytes":"192","members":[{"astId":113330,"contract":"pkg/contracts/src/CVStrategy/facets/CVAllocationFacet.sol:CVAllocationFacet","label":"arbitrator","offset":0,"slot":"0","type":"t_contract(IArbitrator)130312"},{"astId":113332,"contract":"pkg/contracts/src/CVStrategy/facets/CVAllocationFacet.sol:CVAllocationFacet","label":"tribunalSafe","offset":0,"slot":"1","type":"t_address"},{"astId":113334,"contract":"pkg/contracts/src/CVStrategy/facets/CVAllocationFacet.sol:CVAllocationFacet","label":"submitterCollateralAmount","offset":0,"slot":"2","type":"t_uint256"},{"astId":113336,"contract":"pkg/contracts/src/CVStrategy/facets/CVAllocationFacet.sol:CVAllocationFacet","label":"challengerCollateralAmount","offset":0,"slot":"3","type":"t_uint256"},{"astId":113338,"contract":"pkg/contracts/src/CVStrategy/facets/CVAllocationFacet.sol:CVAllocationFacet","label":"defaultRuling","offset":0,"slot":"4","type":"t_uint256"},{"astId":113340,"contract":"pkg/contracts/src/CVStrategy/facets/CVAllocationFacet.sol:CVAllocationFacet","label":"defaultRulingTimeout","offset":0,"slot":"5","type":"t_uint256"}]},"t_struct(CVParams)113350_storage":{"encoding":"inplace","label":"struct CVParams","numberOfBytes":"128","members":[{"astId":113343,"contract":"pkg/contracts/src/CVStrategy/facets/CVAllocationFacet.sol:CVAllocationFacet","label":"maxRatio","offset":0,"slot":"0","type":"t_uint256"},{"astId":113345,"contract":"pkg/contracts/src/CVStrategy/facets/CVAllocationFacet.sol:CVAllocationFacet","label":"weight","offset":0,"slot":"1","type":"t_uint256"},{"astId":113347,"contract":"pkg/contracts/src/CVStrategy/facets/CVAllocationFacet.sol:CVAllocationFacet","label":"decay","offset":0,"slot":"2","type":"t_uint256"},{"astId":113349,"contract":"pkg/contracts/src/CVStrategy/facets/CVAllocationFacet.sol:CVAllocationFacet","label":"minThresholdPoints","offset":0,"slot":"3","type":"t_uint256"}]},"t_struct(Metadata)3086_storage":{"encoding":"inplace","label":"struct Metadata","numberOfBytes":"64","members":[{"astId":3082,"contract":"pkg/contracts/src/CVStrategy/facets/CVAllocationFacet.sol:CVAllocationFacet","label":"protocol","offset":0,"slot":"0","type":"t_uint256"},{"astId":3085,"contract":"pkg/contracts/src/CVStrategy/facets/CVAllocationFacet.sol:CVAllocationFacet","label":"pointer","offset":0,"slot":"1","type":"t_string_storage"}]},"t_struct(PointSystemConfig)113327_storage":{"encoding":"inplace","label":"struct PointSystemConfig","numberOfBytes":"32","members":[{"astId":113326,"contract":"pkg/contracts/src/CVStrategy/facets/CVAllocationFacet.sol:CVAllocationFacet","label":"maxAmount","offset":0,"slot":"0","type":"t_uint256"}]},"t_struct(Proposal)113319_storage":{"encoding":"inplace","label":"struct Proposal","numberOfBytes":"576","members":[{"astId":113285,"contract":"pkg/contracts/src/CVStrategy/facets/CVAllocationFacet.sol:CVAllocationFacet","label":"proposalId","offset":0,"slot":"0","type":"t_uint256"},{"astId":113287,"contract":"pkg/contracts/src/CVStrategy/facets/CVAllocationFacet.sol:CVAllocationFacet","label":"requestedAmount","offset":0,"slot":"1","type":"t_uint256"},{"astId":113289,"contract":"pkg/contracts/src/CVStrategy/facets/CVAllocationFacet.sol:CVAllocationFacet","label":"stakedAmount","offset":0,"slot":"2","type":"t_uint256"},{"astId":113291,"contract":"pkg/contracts/src/CVStrategy/facets/CVAllocationFacet.sol:CVAllocationFacet","label":"convictionLast","offset":0,"slot":"3","type":"t_uint256"},{"astId":113293,"contract":"pkg/contracts/src/CVStrategy/facets/CVAllocationFacet.sol:CVAllocationFacet","label":"beneficiary","offset":0,"slot":"4","type":"t_address"},{"astId":113295,"contract":"pkg/contracts/src/CVStrategy/facets/CVAllocationFacet.sol:CVAllocationFacet","label":"submitter","offset":0,"slot":"5","type":"t_address"},{"astId":113297,"contract":"pkg/contracts/src/CVStrategy/facets/CVAllocationFacet.sol:CVAllocationFacet","label":"requestedToken","offset":0,"slot":"6","type":"t_address"},{"astId":113299,"contract":"pkg/contracts/src/CVStrategy/facets/CVAllocationFacet.sol:CVAllocationFacet","label":"blockLast","offset":0,"slot":"7","type":"t_uint256"},{"astId":113302,"contract":"pkg/contracts/src/CVStrategy/facets/CVAllocationFacet.sol:CVAllocationFacet","label":"proposalStatus","offset":0,"slot":"8","type":"t_enum(ProposalStatus)113276"},{"astId":113306,"contract":"pkg/contracts/src/CVStrategy/facets/CVAllocationFacet.sol:CVAllocationFacet","label":"voterStakedPoints","offset":0,"slot":"9","type":"t_mapping(t_address,t_uint256)"},{"astId":113309,"contract":"pkg/contracts/src/CVStrategy/facets/CVAllocationFacet.sol:CVAllocationFacet","label":"metadata","offset":0,"slot":"10","type":"t_struct(Metadata)3086_storage"},{"astId":113312,"contract":"pkg/contracts/src/CVStrategy/facets/CVAllocationFacet.sol:CVAllocationFacet","label":"disputeInfo","offset":0,"slot":"12","type":"t_struct(ProposalDisputeInfo)113283_storage"},{"astId":113314,"contract":"pkg/contracts/src/CVStrategy/facets/CVAllocationFacet.sol:CVAllocationFacet","label":"lastDisputeCompletion","offset":0,"slot":"15","type":"t_uint256"},{"astId":113316,"contract":"pkg/contracts/src/CVStrategy/facets/CVAllocationFacet.sol:CVAllocationFacet","label":"arbitrableConfigVersion","offset":0,"slot":"16","type":"t_uint256"},{"astId":113318,"contract":"pkg/contracts/src/CVStrategy/facets/CVAllocationFacet.sol:CVAllocationFacet","label":"creationTimestamp","offset":0,"slot":"17","type":"t_uint256"}]},"t_struct(ProposalDisputeInfo)113283_storage":{"encoding":"inplace","label":"struct ProposalDisputeInfo","numberOfBytes":"96","members":[{"astId":113278,"contract":"pkg/contracts/src/CVStrategy/facets/CVAllocationFacet.sol:CVAllocationFacet","label":"disputeId","offset":0,"slot":"0","type":"t_uint256"},{"astId":113280,"contract":"pkg/contracts/src/CVStrategy/facets/CVAllocationFacet.sol:CVAllocationFacet","label":"disputeTimestamp","offset":0,"slot":"1","type":"t_uint256"},{"astId":113282,"contract":"pkg/contracts/src/CVStrategy/facets/CVAllocationFacet.sol:CVAllocationFacet","label":"challenger","offset":0,"slot":"2","type":"t_address"}]},"t_uint256":{"encoding":"inplace","label":"uint256","numberOfBytes":"32"},"t_uint64":{"encoding":"inplace","label":"uint64","numberOfBytes":"8"},"t_uint8":{"encoding":"inplace","label":"uint8","numberOfBytes":"1"}}},"id":181}