{"abi":[{"type":"function","name":"DISPUTE_COOLDOWN_SEC","inputs":[],"outputs":[{"name":"","type":"uint256","internalType":"uint256"}],"stateMutability":"view"},{"type":"function","name":"RULING_OPTIONS","inputs":[],"outputs":[{"name":"","type":"uint256","internalType":"uint256"}],"stateMutability":"view"},{"type":"function","name":"allocate","inputs":[{"name":"_data","type":"bytes","internalType":"bytes"},{"name":"_sender","type":"address","internalType":"address"}],"outputs":[],"stateMutability":"payable"},{"type":"function","name":"arbitrableConfigs","inputs":[{"name":"","type":"uint256","internalType":"uint256"}],"outputs":[{"name":"arbitrator","type":"address","internalType":"contract IArbitrator"},{"name":"tribunalSafe","type":"address","internalType":"address"},{"name":"submitterCollateralAmount","type":"uint256","internalType":"uint256"},{"name":"challengerCollateralAmount","type":"uint256","internalType":"uint256"},{"name":"defaultRuling","type":"uint256","internalType":"uint256"},{"name":"defaultRulingTimeout","type":"uint256","internalType":"uint256"}],"stateMutability":"view"},{"type":"function","name":"cloneNonce","inputs":[],"outputs":[{"name":"","type":"uint256","internalType":"uint256"}],"stateMutability":"view"},{"type":"function","name":"collateralVault","inputs":[],"outputs":[{"name":"","type":"address","internalType":"contract ICollateralVault"}],"stateMutability":"view"},{"type":"function","name":"currentArbitrableConfigVersion","inputs":[],"outputs":[{"name":"","type":"uint256","internalType":"uint256"}],"stateMutability":"view"},{"type":"function","name":"cvParams","inputs":[],"outputs":[{"name":"maxRatio","type":"uint256","internalType":"uint256"},{"name":"weight","type":"uint256","internalType":"uint256"},{"name":"decay","type":"uint256","internalType":"uint256"},{"name":"minThresholdPoints","type":"uint256","internalType":"uint256"}],"stateMutability":"view"},{"type":"function","name":"disputeCount","inputs":[],"outputs":[{"name":"","type":"uint64","internalType":"uint64"}],"stateMutability":"view"},{"type":"function","name":"disputeIdToProposalId","inputs":[{"name":"","type":"uint256","internalType":"uint256"}],"outputs":[{"name":"","type":"uint256","internalType":"uint256"}],"stateMutability":"view"},{"type":"function","name":"distribute","inputs":[{"name":"","type":"address[]","internalType":"address[]"},{"name":"_data","type":"bytes","internalType":"bytes"},{"name":"","type":"address","internalType":"address"}],"outputs":[],"stateMutability":"nonpayable"},{"type":"function","name":"pointConfig","inputs":[],"outputs":[{"name":"maxAmount","type":"uint256","internalType":"uint256"}],"stateMutability":"view"},{"type":"function","name":"pointSystem","inputs":[],"outputs":[{"name":"","type":"uint8","internalType":"enum PointSystem"}],"stateMutability":"view"},{"type":"function","name":"proposalCounter","inputs":[],"outputs":[{"name":"","type":"uint256","internalType":"uint256"}],"stateMutability":"view"},{"type":"function","name":"proposalType","inputs":[],"outputs":[{"name":"","type":"uint8","internalType":"enum ProposalType"}],"stateMutability":"view"},{"type":"function","name":"proposals","inputs":[{"name":"","type":"uint256","internalType":"uint256"}],"outputs":[{"name":"proposalId","type":"uint256","internalType":"uint256"},{"name":"requestedAmount","type":"uint256","internalType":"uint256"},{"name":"stakedAmount","type":"uint256","internalType":"uint256"},{"name":"convictionLast","type":"uint256","internalType":"uint256"},{"name":"beneficiary","type":"address","internalType":"address"},{"name":"submitter","type":"address","internalType":"address"},{"name":"requestedToken","type":"address","internalType":"address"},{"name":"blockLast","type":"uint256","internalType":"uint256"},{"name":"proposalStatus","type":"uint8","internalType":"enum ProposalStatus"},{"name":"metadata","type":"tuple","internalType":"struct Metadata","components":[{"name":"protocol","type":"uint256","internalType":"uint256"},{"name":"pointer","type":"string","internalType":"string"}]},{"name":"disputeInfo","type":"tuple","internalType":"struct ProposalDisputeInfo","components":[{"name":"disputeId","type":"uint256","internalType":"uint256"},{"name":"disputeTimestamp","type":"uint256","internalType":"uint256"},{"name":"challenger","type":"address","internalType":"address"}]},{"name":"lastDisputeCompletion","type":"uint256","internalType":"uint256"},{"name":"arbitrableConfigVersion","type":"uint256","internalType":"uint256"},{"name":"creationTimestamp","type":"uint256","internalType":"uint256"}],"stateMutability":"view"},{"type":"function","name":"registryCommunity","inputs":[],"outputs":[{"name":"","type":"address","internalType":"contract RegistryCommunity"}],"stateMutability":"view"},{"type":"function","name":"streamingRatePerSecond","inputs":[],"outputs":[{"name":"","type":"uint256","internalType":"uint256"}],"stateMutability":"view"},{"type":"function","name":"superfluidGDA","inputs":[],"outputs":[{"name":"","type":"address","internalType":"contract ISuperfluidPool"}],"stateMutability":"view"},{"type":"function","name":"superfluidToken","inputs":[],"outputs":[{"name":"","type":"address","internalType":"contract ISuperToken"}],"stateMutability":"view"},{"type":"function","name":"sybilScorer","inputs":[],"outputs":[{"name":"","type":"address","internalType":"contract ISybilScorer"}],"stateMutability":"view"},{"type":"function","name":"totalPointsActivated","inputs":[],"outputs":[{"name":"","type":"uint256","internalType":"uint256"}],"stateMutability":"view"},{"type":"function","name":"totalStaked","inputs":[],"outputs":[{"name":"","type":"uint256","internalType":"uint256"}],"stateMutability":"view"},{"type":"function","name":"totalVoterStakePct","inputs":[{"name":"","type":"address","internalType":"address"}],"outputs":[{"name":"","type":"uint256","internalType":"uint256"}],"stateMutability":"view"},{"type":"function","name":"voterStakedProposals","inputs":[{"name":"","type":"address","internalType":"address"},{"name":"","type":"uint256","internalType":"uint256"}],"outputs":[{"name":"","type":"uint256","internalType":"uint256"}],"stateMutability":"view"},{"type":"function","name":"votingPowerRegistry","inputs":[],"outputs":[{"name":"","type":"address","internalType":"contract IVotingPowerRegistry"}],"stateMutability":"view"},{"type":"event","name":"Distributed","inputs":[{"name":"proposalId","type":"uint256","indexed":false,"internalType":"uint256"},{"name":"beneficiary","type":"address","indexed":false,"internalType":"address"},{"name":"amount","type":"uint256","indexed":false,"internalType":"uint256"}],"anonymous":false},{"type":"event","name":"SupportAdded","inputs":[{"name":"from","type":"address","indexed":false,"internalType":"address"},{"name":"proposalId","type":"uint256","indexed":false,"internalType":"uint256"},{"name":"amount","type":"uint256","indexed":false,"internalType":"uint256"},{"name":"totalStakedAmount","type":"uint256","indexed":false,"internalType":"uint256"},{"name":"convictionLast","type":"uint256","indexed":false,"internalType":"uint256"}],"anonymous":false},{"type":"error","name":"AmountOverMaxRatio","inputs":[{"name":"requestedAmount","type":"uint256","internalType":"uint256"},{"name":"maxAllowed","type":"uint256","internalType":"uint256"},{"name":"poolAmount","type":"uint256","internalType":"uint256"}]},{"type":"error","name":"ConvictionUnderMinimumThreshold","inputs":[{"name":"conviction","type":"uint256","internalType":"uint256"},{"name":"threshold","type":"uint256","internalType":"uint256"},{"name":"requestedAmount","type":"uint256","internalType":"uint256"}]},{"type":"error","name":"NativeTransferFailed","inputs":[{"name":"recipient","type":"address","internalType":"address"},{"name":"amount","type":"uint256","internalType":"uint256"}]},{"type":"error","name":"NotEnoughPointsToSupport","inputs":[{"name":"pointsSupport","type":"uint256","internalType":"uint256"},{"name":"pointsBalance","type":"uint256","internalType":"uint256"}]},{"type":"error","name":"OnlyActiveProposal","inputs":[{"name":"proposalId","type":"uint256","internalType":"uint256"}]},{"type":"error","name":"OnlyAllo","inputs":[{"name":"sender","type":"address","internalType":"address"},{"name":"allo","type":"address","internalType":"address"}]},{"type":"error","name":"OnlyCouncilSafe","inputs":[{"name":"sender","type":"address","internalType":"address"},{"name":"councilSafe","type":"address","internalType":"address"},{"name":"owner","type":"address","internalType":"address"}]},{"type":"error","name":"OnlyCouncilSafeOrMember","inputs":[{"name":"sender","type":"address","internalType":"address"},{"name":"councilSafe","type":"address","internalType":"address"}]},{"type":"error","name":"OnlyInitialized","inputs":[{"name":"poolId","type":"uint256","internalType":"uint256"}]},{"type":"error","name":"OnlyMember","inputs":[{"name":"wallet","type":"address","internalType":"address"},{"name":"community","type":"address","internalType":"address"}]},{"type":"error","name":"OnlyRegistryCommunity","inputs":[{"name":"sender","type":"address","internalType":"address"},{"name":"registry","type":"address","internalType":"address"}]},{"type":"error","name":"OnlySubmitter","inputs":[{"name":"proposalId","type":"uint256","internalType":"uint256"},{"name":"submitter","type":"address","internalType":"address"},{"name":"sender","type":"address","internalType":"address"}]},{"type":"error","name":"PoolAmountNotEnough","inputs":[{"name":"proposalId","type":"uint256","internalType":"uint256"},{"name":"requestedAmount","type":"uint256","internalType":"uint256"},{"name":"poolAmount","type":"uint256","internalType":"uint256"}]},{"type":"error","name":"PoolIsEmpty","inputs":[{"name":"poolAmount","type":"uint256","internalType":"uint256"}]},{"type":"error","name":"ProposalDataIsEmpty","inputs":[{"name":"inputLength","type":"uint256","internalType":"uint256"}]},{"type":"error","name":"ProposalDoesNotExist","inputs":[{"name":"proposalID","type":"uint256","internalType":"uint256"}]},{"type":"error","name":"ProposalInvalidForAllocation","inputs":[{"name":"_proposalId","type":"uint256","internalType":"uint256"},{"name":"_proposalStatus","type":"uint8","internalType":"enum ProposalStatus"}]},{"type":"error","name":"ProposalNotActive","inputs":[{"name":"proposalId","type":"uint256","internalType":"uint256"},{"name":"currentStatus","type":"uint8","internalType":"uint8"}]},{"type":"error","name":"ProposalNotInList","inputs":[{"name":"proposalId","type":"uint256","internalType":"uint256"}]},{"type":"error","name":"ProposalSupportDuplicated","inputs":[{"name":"_proposalId","type":"uint256","internalType":"uint256"},{"name":"index","type":"uint256","internalType":"uint256"}]},{"type":"error","name":"StrategyPaused","inputs":[{"name":"controller","type":"address","internalType":"address"}]},{"type":"error","name":"StrategySelectorPaused","inputs":[{"name":"selector","type":"bytes4","internalType":"bytes4"},{"name":"controller","type":"address","internalType":"address"}]},{"type":"error","name":"SupportUnderflow","inputs":[{"name":"_support","type":"uint256","internalType":"uint256"},{"name":"_delta","type":"int256","internalType":"int256"},{"name":"_result","type":"int256","internalType":"int256"}]},{"type":"error","name":"UserCannotExecuteAction","inputs":[{"name":"user","type":"address","internalType":"address"}]},{"type":"error","name":"UserIsInactive","inputs":[{"name":"user","type":"address","internalType":"address"}]}],"bytecode":{"object":"0x608060405234801561000f575f80fd5b506128168061001d5f395ff3fe608060405260043610610130575f3560e01c8063013cf08b1461013457806305caa7f3146101765780630a6f0ee9146101a25780630bece79c146101c35780630c0512e9146101e2578063125fd1d9146102055780631b36f56f1461021a5780632506b87014610239578063255ffb381461026b5780632dbd6fdd1461029657806333960459146102c1578063351d9f96146102d657806341bb7605146102fc5780635db64b991461038f5780636003e414146103ba578063626c47e8146103d957806380fd91cd146103ed578063817b1cd21461040c578063868c57b81461042157806394573cbb14610440578063a28889e114610455578063a47ff7e51461048c578063aba9ffee146104a2578063b6c61f31146104b7578063ef2920fc146104d6578063f5be3f7c146104e9575b5f80fd5b34801561013f575f80fd5b5061015361014e366004611ed7565b6104fe565b60405161016d9e9d9c9b9a99989796959493929190611f81565b60405180910390f35b348015610181575f80fd5b50608054610195906001600160a01b031681565b60405161016d9190612034565b3480156101ad575f80fd5b506101c16101bc366004612194565b61064e565b005b3480156101ce575f80fd5b50607954610195906001600160a01b031681565b3480156101ed575f80fd5b506101f7606e5481565b60405190815260200161016d565b348015610210575f80fd5b506101f7606f5481565b348015610225575f80fd5b50608154610195906001600160a01b031681565b348015610244575f80fd5b5060725460735460745460755461025b9392919084565b60405161016d949392919061225e565b348015610276575f80fd5b506101f7610285366004611ed7565b607e6020525f908152604090205481565b3480156102a1575f80fd5b506076546102b490610100900460ff1681565b60405161016d9190612279565b3480156102cc575f80fd5b506101f7606c5481565b3480156102e1575f80fd5b506076546102ef9060ff1681565b60405161016d9190612293565b348015610307575f80fd5b50610357610316366004611ed7565b607f6020525f90815260409020805460018201546002830154600384015460048501546005909501546001600160a01b039485169593909416939192909186565b604080516001600160a01b039788168152969095166020870152938501929092526060840152608083015260a082015260c00161016d565b34801561039a575f80fd5b506101f76103a93660046122a7565b607c6020525f908152604090205481565b3480156103c5575f80fd5b50607854610195906001600160a01b031681565b3480156103e4575f80fd5b506101f7600381565b3480156103f8575f80fd5b50608354610195906001600160a01b031681565b348015610417575f80fd5b506101f760705481565b34801561042c575f80fd5b506101f761043b3660046122c2565b610cd1565b34801561044b575f80fd5b506101f760825481565b348015610460575f80fd5b50606d54610474906001600160401b031681565b6040516001600160401b03909116815260200161016d565b348015610497575f80fd5b506077546101f79081565b3480156104ad575f80fd5b506101f760715481565b3480156104c2575f80fd5b50607a54610195906001600160a01b031681565b6101c16104e43660046122ec565b610cfc565b3480156104f4575f80fd5b506101f7611c2081565b607b60209081525f9182526040918290208054600182015460028301546003840154600485015460058601546006870154600788015460088901548b51808d01909c52600a8a0180548d52600b8b0180549a9d999c989b979a6001600160a01b039788169a968816999790951697939660ff90931695939491928401916105849061233a565b80601f01602080910402602001604051908101604052809291908181526020018280546105b09061233a565b80156105fb5780601f106105d2576101008083540402835291602001916105fb565b820191905f5260205f20905b8154815290600101906020018083116105de57829003601f168201915b50505091909252505060408051606081018252600c8501548152600d8501546020820152600e8501546001600160a01b031691810191909152600f8401546010850154601190950154939491939092508e565b6065546001600160a01b0316331461069357606554604051636ca3252960e01b815261068a9133916001600160a01b0390911690600401612372565b60405180910390fd5b6068545f036106bb5760685460405163243d58fb60e21b815260040161068a91815260200190565b5f8251116106e15781516040516307ab773f60e01b815260040161068a91815260200190565b5f6106ea6113bb565b9050805f0361070f57604051633d16389f60e21b81526004810182905260240161068a565b5f83806020019051810190610724919061238c565b6080549091506001600160a01b031615610886575f818152607b602052604090819020600181015460069091015491516370a0823160e01b815290916001600160a01b0316906370a082319061077e903090600401612034565b602060405180830381865afa158015610799573d5f803e3d5ffd5b505050506040513d601f19601f820116820180604052508101906107bd919061238c565b1015610886576080546040516370a0823160e01b81526001600160a01b03909116906311bcc81e9082906370a08231906107fb903090600401612034565b602060405180830381865afa158015610816573d5f803e3d5ffd5b505050506040513d601f19601f8201168201806040525081019061083a919061238c565b6040518263ffffffff1660e01b815260040161085891815260200190565b5f604051808303815f87803b15801561086f575f80fd5b505af1158015610881573d5f803e3d5ffd5b505050505b600160765460ff16600281111561089f5761089f611eee565b03610cca575f818152607b602052604090205481148015906108c057508015155b156108e15760405163c1d17bef60e01b81526004810182905260240161068a565b60015f828152607b602052604090206008015460ff16600681111561090857610908611eee565b14610959575f818152607b6020526040902060080154819060ff16600681111561093457610934611eee565b60405163052d1a7b60e21b8152600481019290925260ff16602482015260440161068a565b5f818152607b60205260409020600101548210156109a0575f818152607b602052604090819020600101549051632c31d85b60e11b815261068a91839185906004016123a3565b5f818152607b60205260409020600101546109ba9061163a565b15610a10575f629896808360725f01546109d491906123cd565b6109de91906123e4565b5f838152607b602052604090819020600101549051633e4bb86360e01b815291925061068a91839086906004016123a3565b5f610a1a82611665565b5f838152607b60205260408082206001015460715460745460735460725460755495516314eff2dd60e11b81526004810195909552602485018b905260448501939093526064840191909152608483015260a482015260c48101919091529192509073__$f1b7c69ba751c396eddc93d3bbc5414fd9$__906329dfe5ba9060e401602060405180830381865af4158015610ab6573d5f803e3d5ffd5b505050506040513d601f19601f82011682018060405250810190610ada919061238c565b9050808211158015610afb57505f838152607b602052604090206001015415155b15610b30575f838152607b602052604090819020600101549051637ac83e3d60e01b815261068a9184918491906004016123a3565b60655460685460405163068bcd8d60e01b81526004810191909152610bd2916001600160a01b03169063068bcd8d906024015f60405180830381865afa158015610b7c573d5f803e3d5ffd5b505050506040513d5f823e601f3d908101601f19168201604052610ba39190810190612403565b6040908101515f868152607b6020529190912060048101546001909101546001600160a01b03909116906116ae565b5f838152607b6020908152604080832060088101805460ff19166004908117909155607954600590920154606f548652607f9094529382902060020154915163099ea56b60e41b81526001600160a01b03918216946399ea56b094610c3f948a949091169290910161251b565b5f604051808303815f87803b158015610c56575f80fd5b505af1158015610c68573d5f803e3d5ffd5b5050505f848152607b602052604090819020600481015460019091015491517fa7932e9c92f31e1ed56b29d00bbe669a97484dc24de28dd9c8c0429df7f358479350610cbf9287926001600160a01b03169161251b565b60405180910390a150505b5050505050565b607d602052815f5260405f208181548110610cea575f80fd5b905f5260205f20015f91509150505481565b6065546001600160a01b03163314610d3857606554604051636ca3252960e01b815261068a9133916001600160a01b0390911690600401612372565b6068545f03610d605760685460405163243d58fb60e21b815260040161068a91815260200190565b5f82806020019051810190610d75919061253a565b90505f5b8151811015610dcd57610dc5828281518110610d9757610d976125dd565b60200260200101515f0151838381518110610db457610db46125dd565b60200260200101516020015161175d565b600101610d79565b50610dd782611823565b60785460405163011de97360e61b81526001600160a01b039091169063477a5cc090610e099085903090600401612372565b602060405180830381865afa158015610e24573d5f803e3d5ffd5b505050506040513d601f19601f82011682018060405250810190610e4891906125f1565b610e675781604051634f6fcf7360e11b815260040161068a9190612034565b5f80610e72846118c3565b90505f5b8351811015610efc5781158015610ea957505f848281518110610e9b57610e9b6125dd565b602002602001015160200151135b15610ec957846040516307772b5360e51b815260040161068a9190612034565b838181518110610edb57610edb6125dd565b60200260200101516020015183610ef29190612610565b9250600101610e76565b506001600160a01b0384165f908152607c6020526040812054610f1f9084611ae9565b608354604051637817ee4f60e01b81529192505f916001600160a01b0390911690637817ee4f90610f569089903090600401612372565b602060405180830381865afa158015610f71573d5f803e3d5ffd5b505050506040513d601f19601f82011682018060405250810190610f95919061238c565b905080821115610fc257604051636b20c17f60e11b8152600481018390526024810182905260440161068a565b506001600160a01b0385165f908152607c60205260408120919091556060925090505b8251811015610cca575f838281518110611001576110016125dd565b60200260200101515f0151905082515f0361105a57604080516001808252818301909252906020808301908036833701905050925080835f81518110611049576110496125dd565b60200260200101818152505061117c565b5f805b84518110156110b55782858281518110611079576110796125dd565b6020026020010151036110ad57604051632b7aec5560e21b815260048101849052602481018290526001925060440161068a565b60010161105d565b508061117a575f845160016110ca9190612637565b6001600160401b038111156110e1576110e1612048565b60405190808252806020026020018201604052801561110a578160200160208202803683370190505b5090505f5b85518110156111575785818151811061112a5761112a6125dd565b6020026020010151828281518110611144576111446125dd565b602090810291909101015260010161110f565b50828186518151811061116c5761116c6125dd565b602090810291909101015293505b505b5f84838151811061118f5761118f6125dd565b6020908102919091018101518101515f848152607b8352604080822060028101546001600160a01b038c16845260098201909552908220549294509291906111d78286611ae9565b6001600160a01b038b165f9081526009860160205260408120829055909150805b6001600160a01b038c165f908152607d60205260409020548110156112615785546001600160a01b038d165f908152607d60205260409020805483908110611242576112426125dd565b905f5260205f200154036112595760019150611261565b6001016111f8565b5080611296576001600160a01b038b165f908152607d6020908152604082208754815460018101835591845291909220909101555b8183116112e4576112a7838361264a565b60705f8282546112b79190612637565b909155506112c79050838361264a565b856002015f8282546112d99190612637565b909155506113269050565b6112ee828461264a565b60705f8282546112fe919061264a565b9091555061130e9050828461264a565b856002015f828254611320919061264a565b90915550505b84600701545f0361133c574360078601556113a8565b6113468585611b1e565b60028501546003860154604080516001600160a01b038f168152602081018b9052908101859052606081019290925260808201527f0227f642ddcf2042ceaeafadb9d540f432072c00cd4862881667168dcc14710f9060a00160405180910390a15b505060019095019450610fe59350505050565b60655460685460405163068bcd8d60e01b81525f9283926001600160a01b039091169163068bcd8d916113f49160040190815260200190565b5f60405180830381865afa15801561140e573d5f803e3d5ffd5b505050506040513d5f823e601f3d908101601f191682016040526114359190810190612403565b60400151905073eeeeeeeeeeeeeeeeeeeeeeeeeeeeeeeeeeeeeeed196001600160a01b03821601611467574791505090565b6040516370a0823160e01b81525f906001600160a01b038316906370a0823190611495903090600401612034565b602060405180830381865afa1580156114b0573d5f803e3d5ffd5b505050506040513d601f19601f820116820180604052508101906114d4919061238c565b6080549091505f906001600160a01b03161561155e576080546040516370a0823160e01b81526001600160a01b03909116906370a082319061151a903090600401612034565b602060405180830381865afa158015611535573d5f803e3d5ffd5b505050506040513d601f19601f82011682018060405250810190611559919061238c565b611560565b5f5b90505f836001600160a01b031663313ce5676040518163ffffffff1660e01b8152600401602060405180830381865afa15801561159f573d5f803e3d5ffd5b505050506040513d601f19601f820116820180604052508101906115c3919061265d565b905060128160ff1610156115f8576115dc81601261267d565b6115e790600a612776565b6115f190836123e4565b9150611627565b60128160ff1611156116275761160f60128261267d565b61161a90600a612776565b61162490836123cd565b91505b6116318284612637565b94505050505090565b5f61164862989680836123cd565b6116506113bb565b60725461165d91906123cd565b111592915050565b5f818152607b60205260408120805483146116965760405163c1d17bef60e01b81526004810184905260240161068a565b6116a4818260020154611b1e565b6003015492915050565b73eeeeeeeeeeeeeeeeeeeeeeeeeeeeeeeeeeeeeeed196001600160a01b0384160161174d575f826001600160a01b0316826040515f6040518083038185875af1925050503d805f811461171c576040519150601f19603f3d011682016040523d82523d5f602084013e611721565b606091505b505090508061174757828260405163296c17bb60e21b815260040161068a929190612784565b50505050565b611758838383611b57565b505050565b5f828152607b6020526040812090821380156117f857505f600882015460ff16600681111561178e5761178e611eee565b14806117b257506003600882015460ff1660068111156117b0576117b0611eee565b145b806117d557506004600882015460ff1660068111156117d3576117d3611eee565b145b806117f857506006600882015460ff1660068111156117f6576117f6611eee565b145b156117585760088101546040516394d57ead60e01b815261068a91859160ff9091169060040161279d565b60835460405163288c314960e21b81526001600160a01b039091169063a230c52490611853908490600401612034565b602060405180830381865afa15801561186e573d5f803e3d5ffd5b505050506040513d601f19601f8201168201806040525081019061189291906125f1565b6118c057607854604051636332657560e11b815261068a9183916001600160a01b0390911690600401612372565b50565b607a545f906001600160a01b03161561194d57607a546040516302154c3d60e51b81526001600160a01b03909116906342a987a0906119089085903090600401612372565b602060405180830381865afa158015611923573d5f803e3d5ffd5b505050506040513d601f19601f8201168201806040525081019061194791906125f1565b92915050565b6004607654610100900460ff16600481111561196b5761196b611eee565b14801561198957506078546083546001600160a01b03908116911614155b156119be5760835460405163288c314960e21b81526001600160a01b039091169063a230c52490611908908590600401612034565b6068546040516810531313d5d31254d560ba1b602082015260298101919091525f9060490160408051601f19818403018152908290528051602090910120607854632474521560e21b83529092506001600160a01b0316906391d1485490611a2c9084905f906004016127b1565b602060405180830381865afa158015611a47573d5f803e3d5ffd5b505050506040513d601f19601f82011682018060405250810190611a6b91906125f1565b80611ae25750607854604051632474521560e21b81526001600160a01b03909116906391d1485490611aa390849087906004016127b1565b602060405180830381865afa158015611abe573d5f803e3d5ffd5b505050506040513d601f19601f82011682018060405250810190611ae291906125f1565b9392505050565b5f80611af58385612610565b90505f811215611ae257838382604051631dde38a160e11b815260040161068a939291906123a3565b5f80611b2a8484611bad565b91509150815f148015611b3b575080155b15611b465750505050565b600784015560039092019190915550565b6117588363a9059cbb60e01b8484604051602401611b76929190612784565b60408051601f198184030181529190526020810180516001600160e01b03166001600160e01b031990931692909217909152611c7a565b5f804390508084600701541115611bc657611bc66127c8565b80846007015403611bdb57505f905080611c73565b73__$f1b7c69ba751c396eddc93d3bbc5414fd9$__63010dfe64856007015483611c05919061264a565b60038701546074546040516001600160e01b031960e086901b168152611c31939291899160040161225e565b602060405180830381865af4158015611c4c573d5f803e3d5ffd5b505050506040513d601f19601f82011682018060405250810190611c70919061238c565b91505b9250929050565b5f611cce826040518060400160405280602081526020017f5361666545524332303a206c6f772d6c6576656c2063616c6c206661696c6564815250856001600160a01b0316611d4d9092919063ffffffff16565b905080515f1480611cee575080806020019051810190611cee91906125f1565b6117585760405162461bcd60e51b815260206004820152602a60248201527f5361666545524332303a204552433230206f7065726174696f6e20646964206e6044820152691bdd081cdd58d8d9595960b21b606482015260840161068a565b6060611d5b84845f85611d63565b949350505050565b606082471015611dc45760405162461bcd60e51b815260206004820152602660248201527f416464726573733a20696e73756666696369656e742062616c616e636520666f6044820152651c8818d85b1b60d21b606482015260840161068a565b5f80866001600160a01b03168587604051611ddf91906127dc565b5f6040518083038185875af1925050503d805f8114611e19576040519150601f19603f3d011682016040523d82523d5f602084013e611e1e565b606091505b5091509150611e2f87838387611e3a565b979650505050505050565b60608315611ea85782515f03611ea1576001600160a01b0385163b611ea15760405162461bcd60e51b815260206004820152601d60248201527f416464726573733a2063616c6c20746f206e6f6e2d636f6e7472616374000000604482015260640161068a565b5081611d5b565b611d5b8383815115611ebd5781518083602001fd5b8060405162461bcd60e51b815260040161068a91906127f7565b5f60208284031215611ee7575f80fd5b5035919050565b634e487b7160e01b5f52602160045260245ffd5b60078110611f1257611f12611eee565b9052565b5f5b83811015611f30578181015183820152602001611f18565b50505f910152565b5f8151808452611f4f816020860160208601611f16565b601f01601f19169290920160200192915050565b805182525f602082015160406020850152611d5b6040850182611f38565b8e8152602081018e9052604081018d9052606081018c90526001600160a01b038b811660808301528a811660a0830152891660c08201525f8860e0830152611fcd610100830189611f02565b610200610120830152611fe4610200830188611f63565b865161014084015260208701516101608401526040909601516001600160a01b0316610180830152506101a08101939093526101c08301919091526101e0909101529a9950505050505050505050565b6001600160a01b0391909116815260200190565b634e487b7160e01b5f52604160045260245ffd5b60405160c081016001600160401b038111828210171561207e5761207e612048565b60405290565b604080519081016001600160401b038111828210171561207e5761207e612048565b604051601f8201601f191681016001600160401b03811182821017156120ce576120ce612048565b604052919050565b5f6001600160401b038211156120ee576120ee612048565b5060051b60200190565b6001600160a01b03811681146118c0575f80fd5b8035612117816120f8565b919050565b5f6001600160401b0382111561213457612134612048565b50601f01601f191660200190565b5f82601f830112612151575f80fd5b813561216461215f8261211c565b6120a6565b818152846020838601011115612178575f80fd5b816020850160208301375f918101602001919091529392505050565b5f805f606084860312156121a6575f80fd5b83356001600160401b03808211156121bc575f80fd5b818601915086601f8301126121cf575f80fd5b813560206121df61215f836120d6565b82815260059290921b8401810191818101908a8411156121fd575f80fd5b948201945b83861015612224578535612215816120f8565b82529482019490820190612202565b97505087013592505080821115612239575f80fd5b5061224686828701612142565b9250506122556040850161210c565b90509250925092565b93845260208401929092526040830152606082015260800190565b602081016005831061228d5761228d611eee565b91905290565b602081016003831061228d5761228d611eee565b5f602082840312156122b7575f80fd5b8135611ae2816120f8565b5f80604083850312156122d3575f80fd5b82356122de816120f8565b946020939093013593505050565b5f80604083850312156122fd575f80fd5b82356001600160401b03811115612312575f80fd5b61231e85828601612142565b925050602083013561232f816120f8565b809150509250929050565b600181811c9082168061234e57607f821691505b60208210810361236c57634e487b7160e01b5f52602260045260245ffd5b50919050565b6001600160a01b0392831681529116602082015260400190565b5f6020828403121561239c575f80fd5b5051919050565b9283526020830191909152604082015260600190565b634e487b7160e01b5f52601160045260245ffd5b8082028115828204841417611947576119476123b9565b5f826123fe57634e487b7160e01b5f52601260045260245ffd5b500490565b5f6020808385031215612414575f80fd5b82516001600160401b038082111561242a575f80fd5b9084019060c0828703121561243d575f80fd5b61244561205c565b8251815283830151612456816120f8565b818501526040830151612468816120f8565b604082015260608301518281111561247e575f80fd5b83016040818903121561248f575f80fd5b612497612084565b8151815285820151848111156124ab575f80fd5b82019350601f840189136124bd575f80fd5b835191506124cd61215f8361211c565b82815289878487010111156124e0575f80fd5b6124ef83888301898801611f16565b95810195909552506060810193909352506080818101519083015260a090810151908201529392505050565b9283526001600160a01b03919091166020830152604082015260600190565b5f602080838503121561254b575f80fd5b82516001600160401b03811115612560575f80fd5b8301601f81018513612570575f80fd5b805161257e61215f826120d6565b81815260069190911b8201830190838101908783111561259c575f80fd5b928401925b82841015611e2f57604084890312156125b8575f80fd5b6125c0612084565b8451815285850151868201528252604090930192908401906125a1565b634e487b7160e01b5f52603260045260245ffd5b5f60208284031215612601575f80fd5b81518015158114611ae2575f80fd5b8082018281125f83128015821682158216171561262f5761262f6123b9565b505092915050565b80820180821115611947576119476123b9565b81810381811115611947576119476123b9565b5f6020828403121561266d575f80fd5b815160ff81168114611ae2575f80fd5b60ff8281168282160390811115611947576119476123b9565b600181815b808511156126d057815f19048211156126b6576126b66123b9565b808516156126c357918102915b93841c939080029061269b565b509250929050565b5f826126e657506001611947565b816126f257505f611947565b816001811461270857600281146127125761272e565b6001915050611947565b60ff841115612723576127236123b9565b50506001821b611947565b5060208310610133831016604e8410600b8410161715612751575081810a611947565b61275b8383612696565b805f190482111561276e5761276e6123b9565b029392505050565b5f611ae260ff8416836126d8565b6001600160a01b03929092168252602082015260400190565b82815260408101611ae26020830184611f02565b9182526001600160a01b0316602082015260400190565b634e487b7160e01b5f52600160045260245ffd5b5f82516127ed818460208701611f16565b9190910192915050565b602081525f611ae26020830184611f3856fea164736f6c6343000817000a","linkReferences":{"pkg/contracts/src/CVStrategy/ConvictionsUtils.sol":{"ConvictionsUtils":[{"start":2715,"length":20},{"start":7162,"length":20}]}}},"methodIdentifiers":{"DISPUTE_COOLDOWN_SEC()":"f5be3f7c","RULING_OPTIONS()":"626c47e8","allocate(bytes,address)":"ef2920fc","arbitrableConfigs(uint256)":"41bb7605","cloneNonce()":"33960459","collateralVault()":"0bece79c","currentArbitrableConfigVersion()":"125fd1d9","cvParams()":"2506b870","disputeCount()":"a28889e1","disputeIdToProposalId(uint256)":"255ffb38","distribute(address[],bytes,address)":"0a6f0ee9","pointConfig()":"a47ff7e5","pointSystem()":"2dbd6fdd","proposalCounter()":"0c0512e9","proposalType()":"351d9f96","proposals(uint256)":"013cf08b","registryCommunity()":"6003e414","streamingRatePerSecond()":"94573cbb","superfluidGDA()":"1b36f56f","superfluidToken()":"05caa7f3","sybilScorer()":"b6c61f31","totalPointsActivated()":"aba9ffee","totalStaked()":"817b1cd2","totalVoterStakePct(address)":"5db64b99","voterStakedProposals(address,uint256)":"868c57b8","votingPowerRegistry()":"80fd91cd"},"storageLayout":{"storage":[{"astId":108072,"contract":"pkg/contracts/src/CVStrategy/facets/CVAllocationFacet.sol:CVAllocationFacet","label":"_initialized","offset":0,"slot":"0","type":"t_uint8"},{"astId":108074,"contract":"pkg/contracts/src/CVStrategy/facets/CVAllocationFacet.sol:CVAllocationFacet","label":"_initializing","offset":1,"slot":"0","type":"t_bool"},{"astId":108078,"contract":"pkg/contracts/src/CVStrategy/facets/CVAllocationFacet.sol:CVAllocationFacet","label":"__gap_init","offset":0,"slot":"1","type":"t_array(t_uint256)50_storage"},{"astId":108081,"contract":"pkg/contracts/src/CVStrategy/facets/CVAllocationFacet.sol:CVAllocationFacet","label":"_owner","offset":0,"slot":"51","type":"t_address"},{"astId":108085,"contract":"pkg/contracts/src/CVStrategy/facets/CVAllocationFacet.sol:CVAllocationFacet","label":"__gap_ownable","offset":0,"slot":"52","type":"t_array(t_uint256)49_storage"},{"astId":108089,"contract":"pkg/contracts/src/CVStrategy/facets/CVAllocationFacet.sol:CVAllocationFacet","label":"allo","offset":0,"slot":"101","type":"t_contract(IAllo)2631"},{"astId":108091,"contract":"pkg/contracts/src/CVStrategy/facets/CVAllocationFacet.sol:CVAllocationFacet","label":"strategyId","offset":0,"slot":"102","type":"t_bytes32"},{"astId":108093,"contract":"pkg/contracts/src/CVStrategy/facets/CVAllocationFacet.sol:CVAllocationFacet","label":"poolActive","offset":0,"slot":"103","type":"t_bool"},{"astId":108095,"contract":"pkg/contracts/src/CVStrategy/facets/CVAllocationFacet.sol:CVAllocationFacet","label":"poolId","offset":0,"slot":"104","type":"t_uint256"},{"astId":108097,"contract":"pkg/contracts/src/CVStrategy/facets/CVAllocationFacet.sol:CVAllocationFacet","label":"poolAmount","offset":0,"slot":"105","type":"t_uint256"},{"astId":108100,"contract":"pkg/contracts/src/CVStrategy/facets/CVAllocationFacet.sol:CVAllocationFacet","label":"collateralVaultTemplate","offset":0,"slot":"106","type":"t_address"},{"astId":108103,"contract":"pkg/contracts/src/CVStrategy/facets/CVAllocationFacet.sol:CVAllocationFacet","label":"surpressStateMutabilityWarning","offset":0,"slot":"107","type":"t_uint256"},{"astId":108106,"contract":"pkg/contracts/src/CVStrategy/facets/CVAllocationFacet.sol:CVAllocationFacet","label":"cloneNonce","offset":0,"slot":"108","type":"t_uint256"},{"astId":108109,"contract":"pkg/contracts/src/CVStrategy/facets/CVAllocationFacet.sol:CVAllocationFacet","label":"disputeCount","offset":0,"slot":"109","type":"t_uint64"},{"astId":108112,"contract":"pkg/contracts/src/CVStrategy/facets/CVAllocationFacet.sol:CVAllocationFacet","label":"proposalCounter","offset":0,"slot":"110","type":"t_uint256"},{"astId":108115,"contract":"pkg/contracts/src/CVStrategy/facets/CVAllocationFacet.sol:CVAllocationFacet","label":"currentArbitrableConfigVersion","offset":0,"slot":"111","type":"t_uint256"},{"astId":108118,"contract":"pkg/contracts/src/CVStrategy/facets/CVAllocationFacet.sol:CVAllocationFacet","label":"totalStaked","offset":0,"slot":"112","type":"t_uint256"},{"astId":108121,"contract":"pkg/contracts/src/CVStrategy/facets/CVAllocationFacet.sol:CVAllocationFacet","label":"totalPointsActivated","offset":0,"slot":"113","type":"t_uint256"},{"astId":108125,"contract":"pkg/contracts/src/CVStrategy/facets/CVAllocationFacet.sol:CVAllocationFacet","label":"cvParams","offset":0,"slot":"114","type":"t_struct(CVParams)109492_storage"},{"astId":108129,"contract":"pkg/contracts/src/CVStrategy/facets/CVAllocationFacet.sol:CVAllocationFacet","label":"proposalType","offset":0,"slot":"118","type":"t_enum(ProposalType)109392"},{"astId":108133,"contract":"pkg/contracts/src/CVStrategy/facets/CVAllocationFacet.sol:CVAllocationFacet","label":"pointSystem","offset":1,"slot":"118","type":"t_enum(PointSystem)109398"},{"astId":108137,"contract":"pkg/contracts/src/CVStrategy/facets/CVAllocationFacet.sol:CVAllocationFacet","label":"pointConfig","offset":0,"slot":"119","type":"t_struct(PointSystemConfig)109469_storage"},{"astId":108141,"contract":"pkg/contracts/src/CVStrategy/facets/CVAllocationFacet.sol:CVAllocationFacet","label":"registryCommunity","offset":0,"slot":"120","type":"t_contract(RegistryCommunity)118788"},{"astId":108145,"contract":"pkg/contracts/src/CVStrategy/facets/CVAllocationFacet.sol:CVAllocationFacet","label":"collateralVault","offset":0,"slot":"121","type":"t_contract(ICollateralVault)124527"},{"astId":108149,"contract":"pkg/contracts/src/CVStrategy/facets/CVAllocationFacet.sol:CVAllocationFacet","label":"sybilScorer","offset":0,"slot":"122","type":"t_contract(ISybilScorer)116219"},{"astId":108155,"contract":"pkg/contracts/src/CVStrategy/facets/CVAllocationFacet.sol:CVAllocationFacet","label":"proposals","offset":0,"slot":"123","type":"t_mapping(t_uint256,t_struct(Proposal)109461_storage)"},{"astId":108160,"contract":"pkg/contracts/src/CVStrategy/facets/CVAllocationFacet.sol:CVAllocationFacet","label":"totalVoterStakePct","offset":0,"slot":"124","type":"t_mapping(t_address,t_uint256)"},{"astId":108166,"contract":"pkg/contracts/src/CVStrategy/facets/CVAllocationFacet.sol:CVAllocationFacet","label":"voterStakedProposals","offset":0,"slot":"125","type":"t_mapping(t_address,t_array(t_uint256)dyn_storage)"},{"astId":108171,"contract":"pkg/contracts/src/CVStrategy/facets/CVAllocationFacet.sol:CVAllocationFacet","label":"disputeIdToProposalId","offset":0,"slot":"126","type":"t_mapping(t_uint256,t_uint256)"},{"astId":108177,"contract":"pkg/contracts/src/CVStrategy/facets/CVAllocationFacet.sol:CVAllocationFacet","label":"arbitrableConfigs","offset":0,"slot":"127","type":"t_mapping(t_uint256,t_struct(ArbitrableConfig)109483_storage)"},{"astId":108181,"contract":"pkg/contracts/src/CVStrategy/facets/CVAllocationFacet.sol:CVAllocationFacet","label":"superfluidToken","offset":0,"slot":"128","type":"t_contract(ISuperToken)80140"},{"astId":108185,"contract":"pkg/contracts/src/CVStrategy/facets/CVAllocationFacet.sol:CVAllocationFacet","label":"superfluidGDA","offset":0,"slot":"129","type":"t_contract(ISuperfluidPool)78968"},{"astId":108188,"contract":"pkg/contracts/src/CVStrategy/facets/CVAllocationFacet.sol:CVAllocationFacet","label":"streamingRatePerSecond","offset":0,"slot":"130","type":"t_uint256"},{"astId":108192,"contract":"pkg/contracts/src/CVStrategy/facets/CVAllocationFacet.sol:CVAllocationFacet","label":"votingPowerRegistry","offset":0,"slot":"131","type":"t_contract(IVotingPowerRegistry)124731"},{"astId":108197,"contract":"pkg/contracts/src/CVStrategy/facets/CVAllocationFacet.sol:CVAllocationFacet","label":"__gap","offset":0,"slot":"132","type":"t_array(t_uint256)46_storage"}],"types":{"t_address":{"encoding":"inplace","label":"address","numberOfBytes":"20"},"t_array(t_uint256)46_storage":{"encoding":"inplace","label":"uint256[46]","numberOfBytes":"1472","base":"t_uint256"},"t_array(t_uint256)49_storage":{"encoding":"inplace","label":"uint256[49]","numberOfBytes":"1568","base":"t_uint256"},"t_array(t_uint256)50_storage":{"encoding":"inplace","label":"uint256[50]","numberOfBytes":"1600","base":"t_uint256"},"t_array(t_uint256)dyn_storage":{"encoding":"dynamic_array","label":"uint256[]","numberOfBytes":"32","base":"t_uint256"},"t_bool":{"encoding":"inplace","label":"bool","numberOfBytes":"1"},"t_bytes32":{"encoding":"inplace","label":"bytes32","numberOfBytes":"32"},"t_contract(IAllo)2631":{"encoding":"inplace","label":"contract IAllo","numberOfBytes":"20"},"t_contract(IArbitrator)124494":{"encoding":"inplace","label":"contract IArbitrator","numberOfBytes":"20"},"t_contract(ICollateralVault)124527":{"encoding":"inplace","label":"contract ICollateralVault","numberOfBytes":"20"},"t_contract(ISuperToken)80140":{"encoding":"inplace","label":"contract ISuperToken","numberOfBytes":"20"},"t_contract(ISuperfluidPool)78968":{"encoding":"inplace","label":"contract ISuperfluidPool","numberOfBytes":"20"},"t_contract(ISybilScorer)116219":{"encoding":"inplace","label":"contract ISybilScorer","numberOfBytes":"20"},"t_contract(IVotingPowerRegistry)124731":{"encoding":"inplace","label":"contract IVotingPowerRegistry","numberOfBytes":"20"},"t_contract(RegistryCommunity)118788":{"encoding":"inplace","label":"contract RegistryCommunity","numberOfBytes":"20"},"t_enum(PointSystem)109398":{"encoding":"inplace","label":"enum PointSystem","numberOfBytes":"1"},"t_enum(ProposalStatus)109418":{"encoding":"inplace","label":"enum ProposalStatus","numberOfBytes":"1"},"t_enum(ProposalType)109392":{"encoding":"inplace","label":"enum ProposalType","numberOfBytes":"1"},"t_mapping(t_address,t_array(t_uint256)dyn_storage)":{"encoding":"mapping","key":"t_address","label":"mapping(address => uint256[])","numberOfBytes":"32","value":"t_array(t_uint256)dyn_storage"},"t_mapping(t_address,t_uint256)":{"encoding":"mapping","key":"t_address","label":"mapping(address => uint256)","numberOfBytes":"32","value":"t_uint256"},"t_mapping(t_uint256,t_struct(ArbitrableConfig)109483_storage)":{"encoding":"mapping","key":"t_uint256","label":"mapping(uint256 => struct ArbitrableConfig)","numberOfBytes":"32","value":"t_struct(ArbitrableConfig)109483_storage"},"t_mapping(t_uint256,t_struct(Proposal)109461_storage)":{"encoding":"mapping","key":"t_uint256","label":"mapping(uint256 => struct Proposal)","numberOfBytes":"32","value":"t_struct(Proposal)109461_storage"},"t_mapping(t_uint256,t_uint256)":{"encoding":"mapping","key":"t_uint256","label":"mapping(uint256 => uint256)","numberOfBytes":"32","value":"t_uint256"},"t_string_storage":{"encoding":"bytes","label":"string","numberOfBytes":"32"},"t_struct(ArbitrableConfig)109483_storage":{"encoding":"inplace","label":"struct ArbitrableConfig","numberOfBytes":"192","members":[{"astId":109472,"contract":"pkg/contracts/src/CVStrategy/facets/CVAllocationFacet.sol:CVAllocationFacet","label":"arbitrator","offset":0,"slot":"0","type":"t_contract(IArbitrator)124494"},{"astId":109474,"contract":"pkg/contracts/src/CVStrategy/facets/CVAllocationFacet.sol:CVAllocationFacet","label":"tribunalSafe","offset":0,"slot":"1","type":"t_address"},{"astId":109476,"contract":"pkg/contracts/src/CVStrategy/facets/CVAllocationFacet.sol:CVAllocationFacet","label":"submitterCollateralAmount","offset":0,"slot":"2","type":"t_uint256"},{"astId":109478,"contract":"pkg/contracts/src/CVStrategy/facets/CVAllocationFacet.sol:CVAllocationFacet","label":"challengerCollateralAmount","offset":0,"slot":"3","type":"t_uint256"},{"astId":109480,"contract":"pkg/contracts/src/CVStrategy/facets/CVAllocationFacet.sol:CVAllocationFacet","label":"defaultRuling","offset":0,"slot":"4","type":"t_uint256"},{"astId":109482,"contract":"pkg/contracts/src/CVStrategy/facets/CVAllocationFacet.sol:CVAllocationFacet","label":"defaultRulingTimeout","offset":0,"slot":"5","type":"t_uint256"}]},"t_struct(CVParams)109492_storage":{"encoding":"inplace","label":"struct CVParams","numberOfBytes":"128","members":[{"astId":109485,"contract":"pkg/contracts/src/CVStrategy/facets/CVAllocationFacet.sol:CVAllocationFacet","label":"maxRatio","offset":0,"slot":"0","type":"t_uint256"},{"astId":109487,"contract":"pkg/contracts/src/CVStrategy/facets/CVAllocationFacet.sol:CVAllocationFacet","label":"weight","offset":0,"slot":"1","type":"t_uint256"},{"astId":109489,"contract":"pkg/contracts/src/CVStrategy/facets/CVAllocationFacet.sol:CVAllocationFacet","label":"decay","offset":0,"slot":"2","type":"t_uint256"},{"astId":109491,"contract":"pkg/contracts/src/CVStrategy/facets/CVAllocationFacet.sol:CVAllocationFacet","label":"minThresholdPoints","offset":0,"slot":"3","type":"t_uint256"}]},"t_struct(Metadata)3086_storage":{"encoding":"inplace","label":"struct Metadata","numberOfBytes":"64","members":[{"astId":3082,"contract":"pkg/contracts/src/CVStrategy/facets/CVAllocationFacet.sol:CVAllocationFacet","label":"protocol","offset":0,"slot":"0","type":"t_uint256"},{"astId":3085,"contract":"pkg/contracts/src/CVStrategy/facets/CVAllocationFacet.sol:CVAllocationFacet","label":"pointer","offset":0,"slot":"1","type":"t_string_storage"}]},"t_struct(PointSystemConfig)109469_storage":{"encoding":"inplace","label":"struct PointSystemConfig","numberOfBytes":"32","members":[{"astId":109468,"contract":"pkg/contracts/src/CVStrategy/facets/CVAllocationFacet.sol:CVAllocationFacet","label":"maxAmount","offset":0,"slot":"0","type":"t_uint256"}]},"t_struct(Proposal)109461_storage":{"encoding":"inplace","label":"struct Proposal","numberOfBytes":"576","members":[{"astId":109427,"contract":"pkg/contracts/src/CVStrategy/facets/CVAllocationFacet.sol:CVAllocationFacet","label":"proposalId","offset":0,"slot":"0","type":"t_uint256"},{"astId":109429,"contract":"pkg/contracts/src/CVStrategy/facets/CVAllocationFacet.sol:CVAllocationFacet","label":"requestedAmount","offset":0,"slot":"1","type":"t_uint256"},{"astId":109431,"contract":"pkg/contracts/src/CVStrategy/facets/CVAllocationFacet.sol:CVAllocationFacet","label":"stakedAmount","offset":0,"slot":"2","type":"t_uint256"},{"astId":109433,"contract":"pkg/contracts/src/CVStrategy/facets/CVAllocationFacet.sol:CVAllocationFacet","label":"convictionLast","offset":0,"slot":"3","type":"t_uint256"},{"astId":109435,"contract":"pkg/contracts/src/CVStrategy/facets/CVAllocationFacet.sol:CVAllocationFacet","label":"beneficiary","offset":0,"slot":"4","type":"t_address"},{"astId":109437,"contract":"pkg/contracts/src/CVStrategy/facets/CVAllocationFacet.sol:CVAllocationFacet","label":"submitter","offset":0,"slot":"5","type":"t_address"},{"astId":109439,"contract":"pkg/contracts/src/CVStrategy/facets/CVAllocationFacet.sol:CVAllocationFacet","label":"requestedToken","offset":0,"slot":"6","type":"t_address"},{"astId":109441,"contract":"pkg/contracts/src/CVStrategy/facets/CVAllocationFacet.sol:CVAllocationFacet","label":"blockLast","offset":0,"slot":"7","type":"t_uint256"},{"astId":109444,"contract":"pkg/contracts/src/CVStrategy/facets/CVAllocationFacet.sol:CVAllocationFacet","label":"proposalStatus","offset":0,"slot":"8","type":"t_enum(ProposalStatus)109418"},{"astId":109448,"contract":"pkg/contracts/src/CVStrategy/facets/CVAllocationFacet.sol:CVAllocationFacet","label":"voterStakedPoints","offset":0,"slot":"9","type":"t_mapping(t_address,t_uint256)"},{"astId":109451,"contract":"pkg/contracts/src/CVStrategy/facets/CVAllocationFacet.sol:CVAllocationFacet","label":"metadata","offset":0,"slot":"10","type":"t_struct(Metadata)3086_storage"},{"astId":109454,"contract":"pkg/contracts/src/CVStrategy/facets/CVAllocationFacet.sol:CVAllocationFacet","label":"disputeInfo","offset":0,"slot":"12","type":"t_struct(ProposalDisputeInfo)109425_storage"},{"astId":109456,"contract":"pkg/contracts/src/CVStrategy/facets/CVAllocationFacet.sol:CVAllocationFacet","label":"lastDisputeCompletion","offset":0,"slot":"15","type":"t_uint256"},{"astId":109458,"contract":"pkg/contracts/src/CVStrategy/facets/CVAllocationFacet.sol:CVAllocationFacet","label":"arbitrableConfigVersion","offset":0,"slot":"16","type":"t_uint256"},{"astId":109460,"contract":"pkg/contracts/src/CVStrategy/facets/CVAllocationFacet.sol:CVAllocationFacet","label":"creationTimestamp","offset":0,"slot":"17","type":"t_uint256"}]},"t_struct(ProposalDisputeInfo)109425_storage":{"encoding":"inplace","label":"struct ProposalDisputeInfo","numberOfBytes":"96","members":[{"astId":109420,"contract":"pkg/contracts/src/CVStrategy/facets/CVAllocationFacet.sol:CVAllocationFacet","label":"disputeId","offset":0,"slot":"0","type":"t_uint256"},{"astId":109422,"contract":"pkg/contracts/src/CVStrategy/facets/CVAllocationFacet.sol:CVAllocationFacet","label":"disputeTimestamp","offset":0,"slot":"1","type":"t_uint256"},{"astId":109424,"contract":"pkg/contracts/src/CVStrategy/facets/CVAllocationFacet.sol:CVAllocationFacet","label":"challenger","offset":0,"slot":"2","type":"t_address"}]},"t_uint256":{"encoding":"inplace","label":"uint256","numberOfBytes":"32"},"t_uint64":{"encoding":"inplace","label":"uint64","numberOfBytes":"8"},"t_uint8":{"encoding":"inplace","label":"uint8","numberOfBytes":"1"}}},"id":177}