{"abi":[{"type":"function","name":"DISPUTE_COOLDOWN_SEC","inputs":[],"outputs":[{"name":"","type":"uint256","internalType":"uint256"}],"stateMutability":"view"},{"type":"function","name":"MAX_ALLOCATIONS_PER_TX","inputs":[],"outputs":[{"name":"","type":"uint256","internalType":"uint256"}],"stateMutability":"view"},{"type":"function","name":"MAX_PROPOSAL_COUNT","inputs":[],"outputs":[{"name":"","type":"uint256","internalType":"uint256"}],"stateMutability":"view"},{"type":"function","name":"MAX_SYNC_BATCH_MEMBERS","inputs":[],"outputs":[{"name":"","type":"uint256","internalType":"uint256"}],"stateMutability":"view"},{"type":"function","name":"MAX_VOTER_STAKED_PROPOSALS","inputs":[],"outputs":[{"name":"","type":"uint256","internalType":"uint256"}],"stateMutability":"view"},{"type":"function","name":"RULING_OPTIONS","inputs":[],"outputs":[{"name":"","type":"uint256","internalType":"uint256"}],"stateMutability":"view"},{"type":"function","name":"_isStrategyEnabled","inputs":[],"outputs":[{"name":"","type":"bool","internalType":"bool"}],"stateMutability":"view"},{"type":"function","name":"allocate","inputs":[{"name":"_data","type":"bytes","internalType":"bytes"},{"name":"_sender","type":"address","internalType":"address"}],"outputs":[],"stateMutability":"payable"},{"type":"function","name":"arbitrableConfigs","inputs":[{"name":"","type":"uint256","internalType":"uint256"}],"outputs":[{"name":"arbitrator","type":"address","internalType":"contract IArbitrator"},{"name":"tribunalSafe","type":"address","internalType":"address"},{"name":"submitterCollateralAmount","type":"uint256","internalType":"uint256"},{"name":"challengerCollateralAmount","type":"uint256","internalType":"uint256"},{"name":"defaultRuling","type":"uint256","internalType":"uint256"},{"name":"defaultRulingTimeout","type":"uint256","internalType":"uint256"}],"stateMutability":"view"},{"type":"function","name":"calculateProposalConviction","inputs":[{"name":"_proposalId","type":"uint256","internalType":"uint256"}],"outputs":[{"name":"","type":"uint256","internalType":"uint256"}],"stateMutability":"view"},{"type":"function","name":"cloneNonce","inputs":[],"outputs":[{"name":"","type":"uint256","internalType":"uint256"}],"stateMutability":"view"},{"type":"function","name":"collateralVault","inputs":[],"outputs":[{"name":"","type":"address","internalType":"contract ICollateralVault"}],"stateMutability":"view"},{"type":"function","name":"currentArbitrableConfigVersion","inputs":[],"outputs":[{"name":"","type":"uint256","internalType":"uint256"}],"stateMutability":"view"},{"type":"function","name":"cvParams","inputs":[],"outputs":[{"name":"maxRatio","type":"uint256","internalType":"uint256"},{"name":"weight","type":"uint256","internalType":"uint256"},{"name":"decay","type":"uint256","internalType":"uint256"},{"name":"minThresholdPoints","type":"uint256","internalType":"uint256"}],"stateMutability":"view"},{"type":"function","name":"disputeCount","inputs":[],"outputs":[{"name":"","type":"uint64","internalType":"uint64"}],"stateMutability":"view"},{"type":"function","name":"disputeIdToProposalId","inputs":[{"name":"","type":"uint256","internalType":"uint256"}],"outputs":[{"name":"","type":"uint256","internalType":"uint256"}],"stateMutability":"view"},{"type":"function","name":"distribute","inputs":[{"name":"","type":"address[]","internalType":"address[]"},{"name":"_data","type":"bytes","internalType":"bytes"},{"name":"","type":"address","internalType":"address"}],"outputs":[],"stateMutability":"nonpayable"},{"type":"function","name":"getPoolAmount","inputs":[],"outputs":[{"name":"","type":"uint256","internalType":"uint256"}],"stateMutability":"view"},{"type":"function","name":"pointConfig","inputs":[],"outputs":[{"name":"maxAmount","type":"uint256","internalType":"uint256"}],"stateMutability":"view"},{"type":"function","name":"pointSystem","inputs":[],"outputs":[{"name":"","type":"uint8","internalType":"enum PointSystem"}],"stateMutability":"view"},{"type":"function","name":"proposalCounter","inputs":[],"outputs":[{"name":"","type":"uint256","internalType":"uint256"}],"stateMutability":"view"},{"type":"function","name":"proposalExists","inputs":[{"name":"_proposalID","type":"uint256","internalType":"uint256"}],"outputs":[{"name":"","type":"bool","internalType":"bool"}],"stateMutability":"view"},{"type":"function","name":"proposalType","inputs":[],"outputs":[{"name":"","type":"uint8","internalType":"enum ProposalType"}],"stateMutability":"view"},{"type":"function","name":"registryCommunity","inputs":[],"outputs":[{"name":"","type":"address","internalType":"contract RegistryCommunity"}],"stateMutability":"view"},{"type":"function","name":"streamingRatePerSecond","inputs":[],"outputs":[{"name":"","type":"uint256","internalType":"uint256"}],"stateMutability":"view"},{"type":"function","name":"superfluidGDA","inputs":[],"outputs":[{"name":"","type":"address","internalType":"contract ISuperfluidPool"}],"stateMutability":"view"},{"type":"function","name":"superfluidToken","inputs":[],"outputs":[{"name":"","type":"address","internalType":"contract ISuperToken"}],"stateMutability":"view"},{"type":"function","name":"sybilScorer","inputs":[],"outputs":[{"name":"","type":"address","internalType":"contract ISybilScorer"}],"stateMutability":"view"},{"type":"function","name":"totalPointsActivated","inputs":[],"outputs":[{"name":"","type":"uint256","internalType":"uint256"}],"stateMutability":"view"},{"type":"function","name":"totalStaked","inputs":[],"outputs":[{"name":"","type":"uint256","internalType":"uint256"}],"stateMutability":"view"},{"type":"function","name":"totalVoterStakePct","inputs":[{"name":"","type":"address","internalType":"address"}],"outputs":[{"name":"","type":"uint256","internalType":"uint256"}],"stateMutability":"view"},{"type":"function","name":"voterStakedProposals","inputs":[{"name":"","type":"address","internalType":"address"},{"name":"","type":"uint256","internalType":"uint256"}],"outputs":[{"name":"","type":"uint256","internalType":"uint256"}],"stateMutability":"view"},{"type":"function","name":"votingPowerRegistry","inputs":[],"outputs":[{"name":"","type":"address","internalType":"contract IVotingPowerRegistry"}],"stateMutability":"view"},{"type":"event","name":"Distributed","inputs":[{"name":"proposalId","type":"uint256","indexed":false,"internalType":"uint256"},{"name":"beneficiary","type":"address","indexed":false,"internalType":"address"},{"name":"amount","type":"uint256","indexed":false,"internalType":"uint256"}],"anonymous":false},{"type":"event","name":"SupportAdded","inputs":[{"name":"from","type":"address","indexed":false,"internalType":"address"},{"name":"proposalId","type":"uint256","indexed":false,"internalType":"uint256"},{"name":"amount","type":"uint256","indexed":false,"internalType":"uint256"},{"name":"totalStakedAmount","type":"uint256","indexed":false,"internalType":"uint256"},{"name":"convictionLast","type":"uint256","indexed":false,"internalType":"uint256"}],"anonymous":false},{"type":"error","name":"AmountOverMaxRatio","inputs":[{"name":"requestedAmount","type":"uint256","internalType":"uint256"},{"name":"maxAllowed","type":"uint256","internalType":"uint256"},{"name":"poolAmount","type":"uint256","internalType":"uint256"}]},{"type":"error","name":"BlockNumberRegression","inputs":[{"name":"recordedBlock","type":"uint256","internalType":"uint256"},{"name":"currentBlock","type":"uint256","internalType":"uint256"}]},{"type":"error","name":"ConvictionUnderMinimumThreshold","inputs":[{"name":"conviction","type":"uint256","internalType":"uint256"},{"name":"threshold","type":"uint256","internalType":"uint256"},{"name":"requestedAmount","type":"uint256","internalType":"uint256"}]},{"type":"error","name":"NativeTransferFailed","inputs":[{"name":"recipient","type":"address","internalType":"address"},{"name":"amount","type":"uint256","internalType":"uint256"}]},{"type":"error","name":"NotEnoughPointsToSupport","inputs":[{"name":"pointsSupport","type":"uint256","internalType":"uint256"},{"name":"pointsBalance","type":"uint256","internalType":"uint256"}]},{"type":"error","name":"OnlyActiveProposal","inputs":[{"name":"proposalId","type":"uint256","internalType":"uint256"}]},{"type":"error","name":"OnlyAllo","inputs":[{"name":"sender","type":"address","internalType":"address"},{"name":"allo","type":"address","internalType":"address"}]},{"type":"error","name":"OnlyCouncilSafe","inputs":[{"name":"sender","type":"address","internalType":"address"},{"name":"councilSafe","type":"address","internalType":"address"},{"name":"owner","type":"address","internalType":"address"}]},{"type":"error","name":"OnlyCouncilSafeOrMember","inputs":[{"name":"sender","type":"address","internalType":"address"},{"name":"councilSafe","type":"address","internalType":"address"}]},{"type":"error","name":"OnlyInitialized","inputs":[{"name":"poolId","type":"uint256","internalType":"uint256"}]},{"type":"error","name":"OnlyMember","inputs":[{"name":"wallet","type":"address","internalType":"address"},{"name":"community","type":"address","internalType":"address"}]},{"type":"error","name":"OnlyOwner","inputs":[{"name":"sender","type":"address","internalType":"address"},{"name":"ownerAddress","type":"address","internalType":"address"}]},{"type":"error","name":"OnlyRegistryCommunity","inputs":[{"name":"sender","type":"address","internalType":"address"},{"name":"registry","type":"address","internalType":"address"}]},{"type":"error","name":"OnlySubmitter","inputs":[{"name":"proposalId","type":"uint256","internalType":"uint256"},{"name":"submitter","type":"address","internalType":"address"},{"name":"sender","type":"address","internalType":"address"}]},{"type":"error","name":"PoolAmountNotEnough","inputs":[{"name":"proposalId","type":"uint256","internalType":"uint256"},{"name":"requestedAmount","type":"uint256","internalType":"uint256"},{"name":"poolAmount","type":"uint256","internalType":"uint256"}]},{"type":"error","name":"PoolIsEmpty","inputs":[{"name":"poolAmount","type":"uint256","internalType":"uint256"}]},{"type":"error","name":"ProposalDataIsEmpty","inputs":[{"name":"inputLength","type":"uint256","internalType":"uint256"}]},{"type":"error","name":"ProposalDoesNotExist","inputs":[{"name":"proposalID","type":"uint256","internalType":"uint256"}]},{"type":"error","name":"ProposalInvalidForAllocation","inputs":[{"name":"_proposalId","type":"uint256","internalType":"uint256"},{"name":"_proposalStatus","type":"uint8","internalType":"enum ProposalStatus"}]},{"type":"error","name":"ProposalNotActive","inputs":[{"name":"proposalId","type":"uint256","internalType":"uint256"},{"name":"currentStatus","type":"uint8","internalType":"uint8"}]},{"type":"error","name":"ProposalNotInList","inputs":[{"name":"proposalId","type":"uint256","internalType":"uint256"}]},{"type":"error","name":"ProposalSupportDuplicated","inputs":[{"name":"_proposalId","type":"uint256","internalType":"uint256"},{"name":"index","type":"uint256","internalType":"uint256"}]},{"type":"error","name":"StrategyPaused","inputs":[{"name":"controller","type":"address","internalType":"address"}]},{"type":"error","name":"StrategySelectorPaused","inputs":[{"name":"selector","type":"bytes4","internalType":"bytes4"},{"name":"controller","type":"address","internalType":"address"}]},{"type":"error","name":"SupportUnderflow","inputs":[{"name":"_support","type":"uint256","internalType":"uint256"},{"name":"_delta","type":"int256","internalType":"int256"},{"name":"_result","type":"int256","internalType":"int256"}]},{"type":"error","name":"TooManyAllocations","inputs":[{"name":"provided","type":"uint256","internalType":"uint256"},{"name":"maxAllowed","type":"uint256","internalType":"uint256"}]},{"type":"error","name":"TooManyVoterStakedProposals","inputs":[{"name":"voter","type":"address","internalType":"address"},{"name":"current","type":"uint256","internalType":"uint256"},{"name":"maxAllowed","type":"uint256","internalType":"uint256"}]},{"type":"error","name":"UserCannotExecuteAction","inputs":[{"name":"user","type":"address","internalType":"address"}]},{"type":"error","name":"UserIsInactive","inputs":[{"name":"user","type":"address","internalType":"address"}]}],"bytecode":{"object":"0x608060405234801561000f575f80fd5b506129b58061001d5f395ff3fe60806040526004361061017d575f3560e01c806305caa7f3146101815780630a6f0ee9146101b65780630bece79c146101d75780630c0512e9146101f6578063125fd1d9146102195780631374b22d1461022e5780631b36f56f1461025d5780632506b8701461027c578063255ffb38146102ae5780632dbd6fdd146102d95780633396045914610304578063351d9f961461031957806341bb76051461033f5780634ab4ba42146103d25780634c3ceb5b146103e65780635db64b99146103fa5780636003e4141461042557806360b0645a14610444578063626c47e81461046357806380fd91cd14610477578063817b1cd214610496578063868c57b8146104ab5780638dc83094146104ca578063914bdef0146103e657806394573cbb146104de578063a28889e1146104f3578063a47ff7e51461052a578063aba9ffee14610540578063b6c61f3114610555578063dfe9ec58146103e6578063ee50ee1b14610574578063ef2920fc14610588578063f5be3f7c1461059b575b5f80fd5b34801561018c575f80fd5b506080546101a0906001600160a01b031681565b6040516101ad9190612194565b60405180910390f35b3480156101c1575f80fd5b506101d56101d03660046122f4565b6105b0565b005b3480156101e2575f80fd5b506079546101a0906001600160a01b031681565b348015610201575f80fd5b5061020b606e5481565b6040519081526020016101ad565b348015610224575f80fd5b5061020b606f5481565b348015610239575f80fd5b5061024d6102483660046123be565b610c88565b60405190151581526020016101ad565b348015610268575f80fd5b506081546101a0906001600160a01b031681565b348015610287575f80fd5b5060725460735460745460755461029e9392919084565b6040516101ad94939291906123d5565b3480156102b9575f80fd5b5061020b6102c83660046123be565b607e6020525f908152604090205481565b3480156102e4575f80fd5b506076546102f790610100900460ff1681565b6040516101ad9190612404565b34801561030f575f80fd5b5061020b606c5481565b348015610324575f80fd5b506076546103329060ff1681565b6040516101ad919061241e565b34801561034a575f80fd5b5061039a6103593660046123be565b607f6020525f90815260409020805460018201546002830154600384015460048501546005909501546001600160a01b039485169593909416939192909186565b604080516001600160a01b039788168152969095166020870152938501929092526060840152608083015260a082015260c0016101ad565b3480156103dd575f80fd5b5061020b610cc2565b3480156103f1575f80fd5b5061020b608081565b348015610405575f80fd5b5061020b610414366004612432565b607c6020525f908152604090205481565b348015610430575f80fd5b506078546101a0906001600160a01b031681565b34801561044f575f80fd5b5061020b61045e3660046123be565b610f5d565b34801561046e575f80fd5b5061020b600381565b348015610482575f80fd5b506083546101a0906001600160a01b031681565b3480156104a1575f80fd5b5061020b60705481565b3480156104b6575f80fd5b5061020b6104c536600461244d565b611021565b3480156104d5575f80fd5b5061024d61104c565b3480156104e9575f80fd5b5061020b60825481565b3480156104fe575f80fd5b50606d54610512906001600160401b031681565b6040516001600160401b0390911681526020016101ad565b348015610535575f80fd5b5060775461020b9081565b34801561054b575f80fd5b5061020b60715481565b348015610560575f80fd5b50607a546101a0906001600160a01b031681565b34801561057f575f80fd5b5061020b604081565b6101d5610596366004612477565b611148565b3480156105a6575f80fd5b5061020b611c2081565b6065546001600160a01b031633146105f557606554604051636ca3252960e01b81526105ec9133916001600160a01b03909116906004016124c5565b60405180910390fd5b6068545f0361061d5760685460405163243d58fb60e21b81526004016105ec91815260200190565b5f8251116106435781516040516307ab773f60e01b81526004016105ec91815260200190565b5f8280602001905181019061065891906124df565b90505f610663610cc2565b90508015801561068257505f828152607b602052604090206001015415155b156106a357604051633d16389f60e21b8152600481018290526024016105ec565b6080546001600160a01b031615610802575f828152607b602052604090819020600181015460069091015491516370a0823160e01b815290916001600160a01b0316906370a08231906106fa903090600401612194565b602060405180830381865afa158015610715573d5f803e3d5ffd5b505050506040513d601f19601f8201168201806040525081019061073991906124df565b1015610802576080546040516370a0823160e01b81526001600160a01b03909116906311bcc81e9082906370a0823190610777903090600401612194565b602060405180830381865afa158015610792573d5f803e3d5ffd5b505050506040513d601f19601f820116820180604052508101906107b691906124df565b6040518263ffffffff1660e01b81526004016107d491815260200190565b5f604051808303815f87803b1580156107eb575f80fd5b505af11580156107fd573d5f803e3d5ffd5b505050505b600160765460ff16600281111561081b5761081b6123f0565b03610c81575f828152607b6020526040902054821480159061083c57508115155b1561085d5760405163c1d17bef60e01b8152600481018390526024016105ec565b60015f838152607b602052604090206008015460ff166006811115610884576108846123f0565b146108d5575f828152607b6020526040902060080154829060ff1660068111156108b0576108b06123f0565b60405163052d1a7b60e21b8152600481019290925260ff1660248201526044016105ec565b5f828152607b602052604090206001015481101561091c575f828152607b602052604090819020600101549051632c31d85b60e11b81526105ec91849184906004016124f6565b5f828152607b60205260409020600101541580159061095057505f828152607b6020526040902060010154610950906118d2565b156109a6575f629896808260725f015461096a9190612520565b6109749190612537565b5f848152607b602052604090819020600101549051633e4bb86360e01b81529192506105ec91839085906004016124f6565b5f6109b0836118fd565b5f848152607b60205260408120600101549192509015610a8a575f848152607b6020526040908190206001015460715460745460735460725460755495516314eff2dd60e11b815260048101959095526024850189905260448501939093526064840191909152608483015260a482015260c481019190915273__$f1b7c69ba751c396eddc93d3bbc5414fd9$__906329dfe5ba9060e401602060405180830381865af4158015610a63573d5f803e3d5ffd5b505050506040513d601f19601f82011682018060405250810190610a8791906124df565b90505b808211158015610aa957505f848152607b602052604090206001015415155b15610ade575f848152607b602052604090819020600101549051637ac83e3d60e01b81526105ec9184918491906004016124f6565b5f848152607b602052604090819020600801805460ff19166004908117909155606554606854925163068bcd8d60e01b815291820192909252610b9e916001600160a01b03169063068bcd8d906024015f60405180830381865afa158015610b48573d5f803e3d5ffd5b505050506040513d5f823e601f3d908101601f19168201604052610b6f9190810190612578565b6040908101515f878152607b6020529190912060048101546001909101546001600160a01b0390911690611946565b6079545f858152607b6020908152604080832060050154606f548452607f9092529182902060020154915163099ea56b60e41b81526001600160a01b03938416936399ea56b093610bf6938a93921691600401612690565b5f604051808303815f87803b158015610c0d575f80fd5b505af1158015610c1f573d5f803e3d5ffd5b5050505f858152607b602052604090819020600481015460019091015491517fa7932e9c92f31e1ed56b29d00bbe669a97484dc24de28dd9c8c0429df7f358479350610c769288926001600160a01b031691612690565b60405180910390a150505b5050505050565b5f818152607b602052604081205415801590610cbc57505f828152607b60205260409020600501546001600160a01b031615155b92915050565b60655460685460405163068bcd8d60e01b81525f9283926001600160a01b039091169163068bcd8d91610cfb9160040190815260200190565b5f60405180830381865afa158015610d15573d5f803e3d5ffd5b505050506040513d5f823e601f3d908101601f19168201604052610d3c9190810190612578565b60400151905073eeeeeeeeeeeeeeeeeeeeeeeeeeeeeeeeeeeeeeed196001600160a01b03821601610d6e574791505090565b6040516370a0823160e01b81525f906001600160a01b038316906370a0823190610d9c903090600401612194565b602060405180830381865afa158015610db7573d5f803e3d5ffd5b505050506040513d601f19601f82011682018060405250810190610ddb91906124df565b6080549091506001600160a01b0390811690831603610dfa5792915050565b6080545f906001600160a01b031615610e81576080546040516370a0823160e01b81526001600160a01b03909116906370a0823190610e3d903090600401612194565b602060405180830381865afa158015610e58573d5f803e3d5ffd5b505050506040513d601f19601f82011682018060405250810190610e7c91906124df565b610e83565b5f5b90505f836001600160a01b031663313ce5676040518163ffffffff1660e01b8152600401602060405180830381865afa158015610ec2573d5f803e3d5ffd5b505050506040513d601f19601f82011682018060405250810190610ee691906126af565b905060128160ff161015610f1b57610eff8160126126cf565b610f0a90600a6127c8565b610f149083612537565b9150610f4a565b60128160ff161115610f4a57610f326012826126cf565b610f3d90600a6127c8565b610f479083612520565b91505b610f5482846127d6565b94505050505090565b5f818152607b60205260408120610f7261104c565b610f80576003015492915050565b73__$f1b7c69ba751c396eddc93d3bbc5414fd9$__63010dfe64826007015443610faa91906127e9565b600384015460028501546074546040516001600160e01b031960e087901b168152610fdb94939291906004016123d5565b602060405180830381865af4158015610ff6573d5f803e3d5ffd5b505050506040513d601f19601f8201168201806040525081019061101a91906124df565b9392505050565b607d602052815f5260405f20818154811061103a575f80fd5b905f5260205f20015f91509150505481565b6078545f906001600160a01b03166110645750600190565b6078546040515f9182916001600160a01b0390911690633a871fe160e01b90611091903090602401612194565b60408051601f198184030181529181526020820180516001600160e01b03166001600160e01b03199094169390931790925290516110cf91906127fc565b5f60405180830381855afa9150503d805f8114611107576040519150601f19603f3d011682016040523d82523d5f602084013e61110c565b606091505b509150915081158061111f575060208151105b1561112d5760019250505090565b808060200190518101906111419190612817565b9250505090565b6065546001600160a01b0316331461118457606554604051636ca3252960e01b81526105ec9133916001600160a01b03909116906004016124c5565b6068545f036111ac5760685460405163243d58fb60e21b81526004016105ec91815260200190565b60785460405163208a40f360e11b81526001600160a01b039091169063411481e6906111dc903090600401612194565b5f6040518083038186803b1580156111f2575f80fd5b505afa158015611204573d5f803e3d5ffd5b505050505f8280602001905181019061121d9190612836565b905060408151111561124757805160408051633d4057c560e11b81526004016105ec9291906128d9565b5f5b815181101561129d57611295828281518110611267576112676128e7565b60200260200101515f0151838381518110611284576112846128e7565b6020026020010151602001516119f5565b600101611249565b506112a782611abb565b60785460405163011de97360e61b81526001600160a01b039091169063477a5cc0906112d990859030906004016124c5565b602060405180830381865afa1580156112f4573d5f803e3d5ffd5b505050506040513d601f19601f820116820180604052508101906113189190612817565b6113375781604051634f6fcf7360e11b81526004016105ec9190612194565b5f8061134284611b5b565b90505f5b83518110156113cc578115801561137957505f84828151811061136b5761136b6128e7565b602002602001015160200151135b1561139957846040516307772b5360e51b81526004016105ec9190612194565b8381815181106113ab576113ab6128e7565b602002602001015160200151836113c291906128fb565b9250600101611346565b506001600160a01b0384165f908152607c60205260408120546113ef9084611d74565b608354604051637817ee4f60e01b81529192505f916001600160a01b0390911690637817ee4f9061142690899030906004016124c5565b602060405180830381865afa158015611441573d5f803e3d5ffd5b505050506040513d601f19601f8201168201806040525081019061146591906124df565b90508082111561148c578181604051636b20c17f60e11b81526004016105ec9291906128d9565b506001600160a01b0385165f908152607c60205260408120919091556060925090505b8251811015610c81575f8382815181106114cb576114cb6128e7565b60200260200101515f0151905082515f0361152457604080516001808252818301909252906020808301908036833701905050925080835f81518110611513576115136128e7565b602002602001018181525050611640565b5f805b84518110156115795782858281518110611543576115436128e7565b60200260200101510361157157600191508281604051632b7aec5560e21b81526004016105ec9291906128d9565b600101611527565b508061163e575f8451600161158e91906127d6565b6001600160401b038111156115a5576115a56121a8565b6040519080825280602002602001820160405280156115ce578160200160208202803683370190505b5090505f5b855181101561161b578581815181106115ee576115ee6128e7565b6020026020010151828281518110611608576116086128e7565b60209081029190910101526001016115d3565b508281865181518110611630576116306128e7565b602090810291909101015293505b505b5f848381518110611653576116536128e7565b6020908102919091018101518101515f848152607b8352604080822060028101546001600160a01b038c168452600982019095529082205492945092919061169b8286611d74565b6001600160a01b038b165f9081526009860160205260408120829055909150805b6001600160a01b038c165f908152607d60205260409020548110156117255785546001600160a01b038d165f908152607d60205260409020805483908110611706576117066128e7565b905f5260205f2001540361171d5760019150611725565b6001016116bc565b50806117ad576001600160a01b038b165f908152607d60205260409020546080811061177d57604051637ebba14d60e11b81526001600160a01b038d16600482015260248101829052608060448201526064016105ec565b506001600160a01b038b165f908152607d6020908152604082208754815460018101835591845291909220909101555b8183116117fb576117be83836127e9565b60705f8282546117ce91906127d6565b909155506117de905083836127e9565b856002015f8282546117f091906127d6565b9091555061183d9050565b61180582846127e9565b60705f82825461181591906127e9565b90915550611825905082846127e9565b856002015f82825461183791906127e9565b90915550505b84600701545f03611853574360078601556118bf565b61185d8585611da9565b60028501546003860154604080516001600160a01b038f168152602081018b9052908101859052606081019290925260808201527f0227f642ddcf2042ceaeafadb9d540f432072c00cd4862881667168dcc14710f9060a00160405180910390a15b5050600190950194506114af9350505050565b5f6118e06298968083612520565b6118e8610cc2565b6072546118f59190612520565b111592915050565b5f818152607b602052604081208054831461192e5760405163c1d17bef60e01b8152600481018490526024016105ec565b61193c818260020154611da9565b6003015492915050565b73eeeeeeeeeeeeeeeeeeeeeeeeeeeeeeeeeeeeeeed196001600160a01b038416016119e5575f826001600160a01b0316826040515f6040518083038185875af1925050503d805f81146119b4576040519150601f19603f3d011682016040523d82523d5f602084013e6119b9565b606091505b50509050806119df57828260405163296c17bb60e21b81526004016105ec929190612922565b50505050565b6119f0838383611de2565b505050565b5f828152607b602052604081209082138015611a9057505f600882015460ff166006811115611a2657611a266123f0565b1480611a4a57506003600882015460ff166006811115611a4857611a486123f0565b145b80611a6d57506004600882015460ff166006811115611a6b57611a6b6123f0565b145b80611a9057506006600882015460ff166006811115611a8e57611a8e6123f0565b145b156119f05760088101546040516394d57ead60e01b81526105ec91859160ff9091169060040161293b565b60835460405163288c314960e21b81526001600160a01b039091169063a230c52490611aeb908490600401612194565b602060405180830381865afa158015611b06573d5f803e3d5ffd5b505050506040513d601f19601f82011682018060405250810190611b2a9190612817565b611b5857607854604051636332657560e11b81526105ec9183916001600160a01b03909116906004016124c5565b50565b607a545f906001600160a01b031615611bdf57607a546040516302154c3d60e51b81526001600160a01b03909116906342a987a090611ba090859030906004016124c5565b602060405180830381865afa158015611bbb573d5f803e3d5ffd5b505050506040513d601f19601f82011682018060405250810190610cbc9190612817565b6004607654610100900460ff166004811115611bfd57611bfd6123f0565b148015611c1b57506078546083546001600160a01b03908116911614155b15611c505760835460405163288c314960e21b81526001600160a01b039091169063a230c52490611ba0908590600401612194565b6068546040516810531313d5d31254d560ba1b602082015260298101919091525f9060490160408051601f19818403018152908290528051602090910120607854632474521560e21b83529092506001600160a01b0316906391d1485490611cbe9084905f9060040161295f565b602060405180830381865afa158015611cd9573d5f803e3d5ffd5b505050506040513d601f19601f82011682018060405250810190611cfd9190612817565b8061101a5750607854604051632474521560e21b81526001600160a01b03909116906391d1485490611d35908490879060040161295f565b602060405180830381865afa158015611d50573d5f803e3d5ffd5b505050506040513d601f19601f8201168201806040525081019061101a9190612817565b5f80611d8083856128fb565b90505f81121561101a57838382604051631dde38a160e11b81526004016105ec939291906124f6565b5f80611db58484611e38565b91509150815f148015611dc6575080155b15611dd15750505050565b600784015560039092019190915550565b6119f08363a9059cbb60e01b8484604051602401611e01929190612922565b60408051601f198184030181529190526020810180516001600160e01b03166001600160e01b031990931692909217909152611f37565b5f80611e4261104c565b611e53575050600382015443611f30565b4390508084600701541115611e835783600701548160405163102300bd60e01b81526004016105ec9291906128d9565b80846007015403611e9857505f905080611f30565b73__$f1b7c69ba751c396eddc93d3bbc5414fd9$__63010dfe64856007015483611ec291906127e9565b60038701546074546040516001600160e01b031960e086901b168152611eee93929189916004016123d5565b602060405180830381865af4158015611f09573d5f803e3d5ffd5b505050506040513d601f19601f82011682018060405250810190611f2d91906124df565b91505b9250929050565b5f611f8b826040518060400160405280602081526020017f5361666545524332303a206c6f772d6c6576656c2063616c6c206661696c6564815250856001600160a01b031661200a9092919063ffffffff16565b905080515f1480611fab575080806020019051810190611fab9190612817565b6119f05760405162461bcd60e51b815260206004820152602a60248201527f5361666545524332303a204552433230206f7065726174696f6e20646964206e6044820152691bdd081cdd58d8d9595960b21b60648201526084016105ec565b606061201884845f85612020565b949350505050565b6060824710156120815760405162461bcd60e51b815260206004820152602660248201527f416464726573733a20696e73756666696369656e742062616c616e636520666f6044820152651c8818d85b1b60d21b60648201526084016105ec565b5f80866001600160a01b0316858760405161209c91906127fc565b5f6040518083038185875af1925050503d805f81146120d6576040519150601f19603f3d011682016040523d82523d5f602084013e6120db565b606091505b50915091506120ec878383876120f7565b979650505050505050565b606083156121655782515f0361215e576001600160a01b0385163b61215e5760405162461bcd60e51b815260206004820152601d60248201527f416464726573733a2063616c6c20746f206e6f6e2d636f6e747261637400000060448201526064016105ec565b5081612018565b612018838381511561217a5781518083602001fd5b8060405162461bcd60e51b81526004016105ec9190612976565b6001600160a01b0391909116815260200190565b634e487b7160e01b5f52604160045260245ffd5b60405160c081016001600160401b03811182821017156121de576121de6121a8565b60405290565b604080519081016001600160401b03811182821017156121de576121de6121a8565b604051601f8201601f191681016001600160401b038111828210171561222e5761222e6121a8565b604052919050565b5f6001600160401b0382111561224e5761224e6121a8565b5060051b60200190565b6001600160a01b0381168114611b58575f80fd5b803561227781612258565b919050565b5f6001600160401b03821115612294576122946121a8565b50601f01601f191660200190565b5f82601f8301126122b1575f80fd5b81356122c46122bf8261227c565b612206565b8181528460208386010111156122d8575f80fd5b816020850160208301375f918101602001919091529392505050565b5f805f60608486031215612306575f80fd5b83356001600160401b038082111561231c575f80fd5b818601915086601f83011261232f575f80fd5b8135602061233f6122bf83612236565b82815260059290921b8401810191818101908a84111561235d575f80fd5b948201945b8386101561238457853561237581612258565b82529482019490820190612362565b97505087013592505080821115612399575f80fd5b506123a6868287016122a2565b9250506123b56040850161226c565b90509250925092565b5f602082840312156123ce575f80fd5b5035919050565b93845260208401929092526040830152606082015260800190565b634e487b7160e01b5f52602160045260245ffd5b6020810160058310612418576124186123f0565b91905290565b6020810160038310612418576124186123f0565b5f60208284031215612442575f80fd5b813561101a81612258565b5f806040838503121561245e575f80fd5b823561246981612258565b946020939093013593505050565b5f8060408385031215612488575f80fd5b82356001600160401b0381111561249d575f80fd5b6124a9858286016122a2565b92505060208301356124ba81612258565b809150509250929050565b6001600160a01b0392831681529116602082015260400190565b5f602082840312156124ef575f80fd5b5051919050565b9283526020830191909152604082015260600190565b634e487b7160e01b5f52601160045260245ffd5b8082028115828204841417610cbc57610cbc61250c565b5f8261255157634e487b7160e01b5f52601260045260245ffd5b500490565b5f5b83811015612570578181015183820152602001612558565b50505f910152565b5f6020808385031215612589575f80fd5b82516001600160401b038082111561259f575f80fd5b9084019060c082870312156125b2575f80fd5b6125ba6121bc565b82518152838301516125cb81612258565b8185015260408301516125dd81612258565b60408201526060830151828111156125f3575f80fd5b830160408189031215612604575f80fd5b61260c6121e4565b815181528582015184811115612620575f80fd5b82019350601f84018913612632575f80fd5b835191506126426122bf8361227c565b8281528987848701011115612655575f80fd5b61266483888301898801612556565b95810195909552506060810193909352506080818101519083015260a090810151908201529392505050565b9283526001600160a01b03919091166020830152604082015260600190565b5f602082840312156126bf575f80fd5b815160ff8116811461101a575f80fd5b60ff8281168282160390811115610cbc57610cbc61250c565b600181815b8085111561272257815f19048211156127085761270861250c565b8085161561271557918102915b93841c93908002906126ed565b509250929050565b5f8261273857506001610cbc565b8161274457505f610cbc565b816001811461275a576002811461276457612780565b6001915050610cbc565b60ff8411156127755761277561250c565b50506001821b610cbc565b5060208310610133831016604e8410600b84101617156127a3575081810a610cbc565b6127ad83836126e8565b805f19048211156127c0576127c061250c565b029392505050565b5f61101a60ff84168361272a565b80820180821115610cbc57610cbc61250c565b81810381811115610cbc57610cbc61250c565b5f825161280d818460208701612556565b9190910192915050565b5f60208284031215612827575f80fd5b8151801515811461101a575f80fd5b5f6020808385031215612847575f80fd5b82516001600160401b0381111561285c575f80fd5b8301601f8101851361286c575f80fd5b805161287a6122bf82612236565b81815260069190911b82018301908381019087831115612898575f80fd5b928401925b828410156120ec57604084890312156128b4575f80fd5b6128bc6121e4565b84518152858501518682015282526040909301929084019061289d565b918252602082015260400190565b634e487b7160e01b5f52603260045260245ffd5b8082018281125f83128015821682158216171561291a5761291a61250c565b505092915050565b6001600160a01b03929092168252602082015260400190565b8281526040810160078310612952576129526123f0565b8260208301529392505050565b9182526001600160a01b0316602082015260400190565b602081525f8251806020840152612994816040850160208701612556565b601f01601f1916919091016040019291505056fea164736f6c6343000817000a","linkReferences":{"pkg/contracts/src/CVStrategy/ConvictionsUtils.sol":{"ConvictionsUtils":[{"start":2632,"length":20},{"start":3999,"length":20},{"start":7863,"length":20}]}}},"methodIdentifiers":{"DISPUTE_COOLDOWN_SEC()":"f5be3f7c","MAX_ALLOCATIONS_PER_TX()":"ee50ee1b","MAX_PROPOSAL_COUNT()":"dfe9ec58","MAX_SYNC_BATCH_MEMBERS()":"4c3ceb5b","MAX_VOTER_STAKED_PROPOSALS()":"914bdef0","RULING_OPTIONS()":"626c47e8","_isStrategyEnabled()":"8dc83094","allocate(bytes,address)":"ef2920fc","arbitrableConfigs(uint256)":"41bb7605","calculateProposalConviction(uint256)":"60b0645a","cloneNonce()":"33960459","collateralVault()":"0bece79c","currentArbitrableConfigVersion()":"125fd1d9","cvParams()":"2506b870","disputeCount()":"a28889e1","disputeIdToProposalId(uint256)":"255ffb38","distribute(address[],bytes,address)":"0a6f0ee9","getPoolAmount()":"4ab4ba42","pointConfig()":"a47ff7e5","pointSystem()":"2dbd6fdd","proposalCounter()":"0c0512e9","proposalExists(uint256)":"1374b22d","proposalType()":"351d9f96","registryCommunity()":"6003e414","streamingRatePerSecond()":"94573cbb","superfluidGDA()":"1b36f56f","superfluidToken()":"05caa7f3","sybilScorer()":"b6c61f31","totalPointsActivated()":"aba9ffee","totalStaked()":"817b1cd2","totalVoterStakePct(address)":"5db64b99","voterStakedProposals(address,uint256)":"868c57b8","votingPowerRegistry()":"80fd91cd"},"storageLayout":{"storage":[{"astId":84797,"contract":"pkg/contracts/src/CVStrategy/facets/CVAllocationFacet.sol:CVAllocationFacet","label":"_initialized","offset":0,"slot":"0","type":"t_uint8"},{"astId":84799,"contract":"pkg/contracts/src/CVStrategy/facets/CVAllocationFacet.sol:CVAllocationFacet","label":"_initializing","offset":1,"slot":"0","type":"t_bool"},{"astId":84803,"contract":"pkg/contracts/src/CVStrategy/facets/CVAllocationFacet.sol:CVAllocationFacet","label":"__gap_init","offset":0,"slot":"1","type":"t_array(t_uint256)50_storage"},{"astId":84806,"contract":"pkg/contracts/src/CVStrategy/facets/CVAllocationFacet.sol:CVAllocationFacet","label":"_owner","offset":0,"slot":"51","type":"t_address"},{"astId":84810,"contract":"pkg/contracts/src/CVStrategy/facets/CVAllocationFacet.sol:CVAllocationFacet","label":"__gap_ownable","offset":0,"slot":"52","type":"t_array(t_uint256)49_storage"},{"astId":84814,"contract":"pkg/contracts/src/CVStrategy/facets/CVAllocationFacet.sol:CVAllocationFacet","label":"allo","offset":0,"slot":"101","type":"t_contract(IAllo)351"},{"astId":84816,"contract":"pkg/contracts/src/CVStrategy/facets/CVAllocationFacet.sol:CVAllocationFacet","label":"strategyId","offset":0,"slot":"102","type":"t_bytes32"},{"astId":84818,"contract":"pkg/contracts/src/CVStrategy/facets/CVAllocationFacet.sol:CVAllocationFacet","label":"poolActive","offset":0,"slot":"103","type":"t_bool"},{"astId":84820,"contract":"pkg/contracts/src/CVStrategy/facets/CVAllocationFacet.sol:CVAllocationFacet","label":"poolId","offset":0,"slot":"104","type":"t_uint256"},{"astId":84822,"contract":"pkg/contracts/src/CVStrategy/facets/CVAllocationFacet.sol:CVAllocationFacet","label":"poolAmount","offset":0,"slot":"105","type":"t_uint256"},{"astId":84825,"contract":"pkg/contracts/src/CVStrategy/facets/CVAllocationFacet.sol:CVAllocationFacet","label":"collateralVaultTemplate","offset":0,"slot":"106","type":"t_address"},{"astId":84828,"contract":"pkg/contracts/src/CVStrategy/facets/CVAllocationFacet.sol:CVAllocationFacet","label":"surpressStateMutabilityWarning","offset":0,"slot":"107","type":"t_uint256"},{"astId":84831,"contract":"pkg/contracts/src/CVStrategy/facets/CVAllocationFacet.sol:CVAllocationFacet","label":"cloneNonce","offset":0,"slot":"108","type":"t_uint256"},{"astId":84834,"contract":"pkg/contracts/src/CVStrategy/facets/CVAllocationFacet.sol:CVAllocationFacet","label":"disputeCount","offset":0,"slot":"109","type":"t_uint64"},{"astId":84837,"contract":"pkg/contracts/src/CVStrategy/facets/CVAllocationFacet.sol:CVAllocationFacet","label":"proposalCounter","offset":0,"slot":"110","type":"t_uint256"},{"astId":84840,"contract":"pkg/contracts/src/CVStrategy/facets/CVAllocationFacet.sol:CVAllocationFacet","label":"currentArbitrableConfigVersion","offset":0,"slot":"111","type":"t_uint256"},{"astId":84843,"contract":"pkg/contracts/src/CVStrategy/facets/CVAllocationFacet.sol:CVAllocationFacet","label":"totalStaked","offset":0,"slot":"112","type":"t_uint256"},{"astId":84846,"contract":"pkg/contracts/src/CVStrategy/facets/CVAllocationFacet.sol:CVAllocationFacet","label":"totalPointsActivated","offset":0,"slot":"113","type":"t_uint256"},{"astId":84850,"contract":"pkg/contracts/src/CVStrategy/facets/CVAllocationFacet.sol:CVAllocationFacet","label":"cvParams","offset":0,"slot":"114","type":"t_struct(CVParams)86471_storage"},{"astId":84854,"contract":"pkg/contracts/src/CVStrategy/facets/CVAllocationFacet.sol:CVAllocationFacet","label":"proposalType","offset":0,"slot":"118","type":"t_enum(ProposalType)86371"},{"astId":84858,"contract":"pkg/contracts/src/CVStrategy/facets/CVAllocationFacet.sol:CVAllocationFacet","label":"pointSystem","offset":1,"slot":"118","type":"t_enum(PointSystem)86377"},{"astId":84862,"contract":"pkg/contracts/src/CVStrategy/facets/CVAllocationFacet.sol:CVAllocationFacet","label":"pointConfig","offset":0,"slot":"119","type":"t_struct(PointSystemConfig)86448_storage"},{"astId":84866,"contract":"pkg/contracts/src/CVStrategy/facets/CVAllocationFacet.sol:CVAllocationFacet","label":"registryCommunity","offset":0,"slot":"120","type":"t_contract(RegistryCommunity)99279"},{"astId":84870,"contract":"pkg/contracts/src/CVStrategy/facets/CVAllocationFacet.sol:CVAllocationFacet","label":"collateralVault","offset":0,"slot":"121","type":"t_contract(ICollateralVault)103913"},{"astId":84874,"contract":"pkg/contracts/src/CVStrategy/facets/CVAllocationFacet.sol:CVAllocationFacet","label":"sybilScorer","offset":0,"slot":"122","type":"t_contract(ISybilScorer)96795"},{"astId":84880,"contract":"pkg/contracts/src/CVStrategy/facets/CVAllocationFacet.sol:CVAllocationFacet","label":"proposals","offset":0,"slot":"123","type":"t_mapping(t_uint256,t_struct(Proposal)86440_storage)"},{"astId":84885,"contract":"pkg/contracts/src/CVStrategy/facets/CVAllocationFacet.sol:CVAllocationFacet","label":"totalVoterStakePct","offset":0,"slot":"124","type":"t_mapping(t_address,t_uint256)"},{"astId":84891,"contract":"pkg/contracts/src/CVStrategy/facets/CVAllocationFacet.sol:CVAllocationFacet","label":"voterStakedProposals","offset":0,"slot":"125","type":"t_mapping(t_address,t_array(t_uint256)dyn_storage)"},{"astId":84896,"contract":"pkg/contracts/src/CVStrategy/facets/CVAllocationFacet.sol:CVAllocationFacet","label":"disputeIdToProposalId","offset":0,"slot":"126","type":"t_mapping(t_uint256,t_uint256)"},{"astId":84902,"contract":"pkg/contracts/src/CVStrategy/facets/CVAllocationFacet.sol:CVAllocationFacet","label":"arbitrableConfigs","offset":0,"slot":"127","type":"t_mapping(t_uint256,t_struct(ArbitrableConfig)86462_storage)"},{"astId":84906,"contract":"pkg/contracts/src/CVStrategy/facets/CVAllocationFacet.sol:CVAllocationFacet","label":"superfluidToken","offset":0,"slot":"128","type":"t_contract(ISuperToken)75749"},{"astId":84910,"contract":"pkg/contracts/src/CVStrategy/facets/CVAllocationFacet.sol:CVAllocationFacet","label":"superfluidGDA","offset":0,"slot":"129","type":"t_contract(ISuperfluidPool)74577"},{"astId":84913,"contract":"pkg/contracts/src/CVStrategy/facets/CVAllocationFacet.sol:CVAllocationFacet","label":"streamingRatePerSecond","offset":0,"slot":"130","type":"t_uint256"},{"astId":84917,"contract":"pkg/contracts/src/CVStrategy/facets/CVAllocationFacet.sol:CVAllocationFacet","label":"votingPowerRegistry","offset":0,"slot":"131","type":"t_contract(IVotingPowerRegistry)104117"},{"astId":84922,"contract":"pkg/contracts/src/CVStrategy/facets/CVAllocationFacet.sol:CVAllocationFacet","label":"__gap","offset":0,"slot":"132","type":"t_array(t_uint256)46_storage"}],"types":{"t_address":{"encoding":"inplace","label":"address","numberOfBytes":"20"},"t_array(t_uint256)46_storage":{"encoding":"inplace","label":"uint256[46]","numberOfBytes":"1472","base":"t_uint256"},"t_array(t_uint256)49_storage":{"encoding":"inplace","label":"uint256[49]","numberOfBytes":"1568","base":"t_uint256"},"t_array(t_uint256)50_storage":{"encoding":"inplace","label":"uint256[50]","numberOfBytes":"1600","base":"t_uint256"},"t_array(t_uint256)dyn_storage":{"encoding":"dynamic_array","label":"uint256[]","numberOfBytes":"32","base":"t_uint256"},"t_bool":{"encoding":"inplace","label":"bool","numberOfBytes":"1"},"t_bytes32":{"encoding":"inplace","label":"bytes32","numberOfBytes":"32"},"t_contract(IAllo)351":{"encoding":"inplace","label":"contract IAllo","numberOfBytes":"20"},"t_contract(IArbitrator)103880":{"encoding":"inplace","label":"contract IArbitrator","numberOfBytes":"20"},"t_contract(ICollateralVault)103913":{"encoding":"inplace","label":"contract ICollateralVault","numberOfBytes":"20"},"t_contract(ISuperToken)75749":{"encoding":"inplace","label":"contract ISuperToken","numberOfBytes":"20"},"t_contract(ISuperfluidPool)74577":{"encoding":"inplace","label":"contract ISuperfluidPool","numberOfBytes":"20"},"t_contract(ISybilScorer)96795":{"encoding":"inplace","label":"contract ISybilScorer","numberOfBytes":"20"},"t_contract(IVotingPowerRegistry)104117":{"encoding":"inplace","label":"contract IVotingPowerRegistry","numberOfBytes":"20"},"t_contract(RegistryCommunity)99279":{"encoding":"inplace","label":"contract RegistryCommunity","numberOfBytes":"20"},"t_enum(PointSystem)86377":{"encoding":"inplace","label":"enum PointSystem","numberOfBytes":"1"},"t_enum(ProposalStatus)86397":{"encoding":"inplace","label":"enum ProposalStatus","numberOfBytes":"1"},"t_enum(ProposalType)86371":{"encoding":"inplace","label":"enum ProposalType","numberOfBytes":"1"},"t_mapping(t_address,t_array(t_uint256)dyn_storage)":{"encoding":"mapping","key":"t_address","label":"mapping(address => uint256[])","numberOfBytes":"32","value":"t_array(t_uint256)dyn_storage"},"t_mapping(t_address,t_uint256)":{"encoding":"mapping","key":"t_address","label":"mapping(address => uint256)","numberOfBytes":"32","value":"t_uint256"},"t_mapping(t_uint256,t_struct(ArbitrableConfig)86462_storage)":{"encoding":"mapping","key":"t_uint256","label":"mapping(uint256 => struct ArbitrableConfig)","numberOfBytes":"32","value":"t_struct(ArbitrableConfig)86462_storage"},"t_mapping(t_uint256,t_struct(Proposal)86440_storage)":{"encoding":"mapping","key":"t_uint256","label":"mapping(uint256 => struct Proposal)","numberOfBytes":"32","value":"t_struct(Proposal)86440_storage"},"t_mapping(t_uint256,t_uint256)":{"encoding":"mapping","key":"t_uint256","label":"mapping(uint256 => uint256)","numberOfBytes":"32","value":"t_uint256"},"t_string_storage":{"encoding":"bytes","label":"string","numberOfBytes":"32"},"t_struct(ArbitrableConfig)86462_storage":{"encoding":"inplace","label":"struct ArbitrableConfig","numberOfBytes":"192","members":[{"astId":86451,"contract":"pkg/contracts/src/CVStrategy/facets/CVAllocationFacet.sol:CVAllocationFacet","label":"arbitrator","offset":0,"slot":"0","type":"t_contract(IArbitrator)103880"},{"astId":86453,"contract":"pkg/contracts/src/CVStrategy/facets/CVAllocationFacet.sol:CVAllocationFacet","label":"tribunalSafe","offset":0,"slot":"1","type":"t_address"},{"astId":86455,"contract":"pkg/contracts/src/CVStrategy/facets/CVAllocationFacet.sol:CVAllocationFacet","label":"submitterCollateralAmount","offset":0,"slot":"2","type":"t_uint256"},{"astId":86457,"contract":"pkg/contracts/src/CVStrategy/facets/CVAllocationFacet.sol:CVAllocationFacet","label":"challengerCollateralAmount","offset":0,"slot":"3","type":"t_uint256"},{"astId":86459,"contract":"pkg/contracts/src/CVStrategy/facets/CVAllocationFacet.sol:CVAllocationFacet","label":"defaultRuling","offset":0,"slot":"4","type":"t_uint256"},{"astId":86461,"contract":"pkg/contracts/src/CVStrategy/facets/CVAllocationFacet.sol:CVAllocationFacet","label":"defaultRulingTimeout","offset":0,"slot":"5","type":"t_uint256"}]},"t_struct(CVParams)86471_storage":{"encoding":"inplace","label":"struct CVParams","numberOfBytes":"128","members":[{"astId":86464,"contract":"pkg/contracts/src/CVStrategy/facets/CVAllocationFacet.sol:CVAllocationFacet","label":"maxRatio","offset":0,"slot":"0","type":"t_uint256"},{"astId":86466,"contract":"pkg/contracts/src/CVStrategy/facets/CVAllocationFacet.sol:CVAllocationFacet","label":"weight","offset":0,"slot":"1","type":"t_uint256"},{"astId":86468,"contract":"pkg/contracts/src/CVStrategy/facets/CVAllocationFacet.sol:CVAllocationFacet","label":"decay","offset":0,"slot":"2","type":"t_uint256"},{"astId":86470,"contract":"pkg/contracts/src/CVStrategy/facets/CVAllocationFacet.sol:CVAllocationFacet","label":"minThresholdPoints","offset":0,"slot":"3","type":"t_uint256"}]},"t_struct(Metadata)806_storage":{"encoding":"inplace","label":"struct Metadata","numberOfBytes":"64","members":[{"astId":802,"contract":"pkg/contracts/src/CVStrategy/facets/CVAllocationFacet.sol:CVAllocationFacet","label":"protocol","offset":0,"slot":"0","type":"t_uint256"},{"astId":805,"contract":"pkg/contracts/src/CVStrategy/facets/CVAllocationFacet.sol:CVAllocationFacet","label":"pointer","offset":0,"slot":"1","type":"t_string_storage"}]},"t_struct(PointSystemConfig)86448_storage":{"encoding":"inplace","label":"struct PointSystemConfig","numberOfBytes":"32","members":[{"astId":86447,"contract":"pkg/contracts/src/CVStrategy/facets/CVAllocationFacet.sol:CVAllocationFacet","label":"maxAmount","offset":0,"slot":"0","type":"t_uint256"}]},"t_struct(Proposal)86440_storage":{"encoding":"inplace","label":"struct Proposal","numberOfBytes":"576","members":[{"astId":86406,"contract":"pkg/contracts/src/CVStrategy/facets/CVAllocationFacet.sol:CVAllocationFacet","label":"proposalId","offset":0,"slot":"0","type":"t_uint256"},{"astId":86408,"contract":"pkg/contracts/src/CVStrategy/facets/CVAllocationFacet.sol:CVAllocationFacet","label":"requestedAmount","offset":0,"slot":"1","type":"t_uint256"},{"astId":86410,"contract":"pkg/contracts/src/CVStrategy/facets/CVAllocationFacet.sol:CVAllocationFacet","label":"stakedAmount","offset":0,"slot":"2","type":"t_uint256"},{"astId":86412,"contract":"pkg/contracts/src/CVStrategy/facets/CVAllocationFacet.sol:CVAllocationFacet","label":"convictionLast","offset":0,"slot":"3","type":"t_uint256"},{"astId":86414,"contract":"pkg/contracts/src/CVStrategy/facets/CVAllocationFacet.sol:CVAllocationFacet","label":"beneficiary","offset":0,"slot":"4","type":"t_address"},{"astId":86416,"contract":"pkg/contracts/src/CVStrategy/facets/CVAllocationFacet.sol:CVAllocationFacet","label":"submitter","offset":0,"slot":"5","type":"t_address"},{"astId":86418,"contract":"pkg/contracts/src/CVStrategy/facets/CVAllocationFacet.sol:CVAllocationFacet","label":"requestedToken","offset":0,"slot":"6","type":"t_address"},{"astId":86420,"contract":"pkg/contracts/src/CVStrategy/facets/CVAllocationFacet.sol:CVAllocationFacet","label":"blockLast","offset":0,"slot":"7","type":"t_uint256"},{"astId":86423,"contract":"pkg/contracts/src/CVStrategy/facets/CVAllocationFacet.sol:CVAllocationFacet","label":"proposalStatus","offset":0,"slot":"8","type":"t_enum(ProposalStatus)86397"},{"astId":86427,"contract":"pkg/contracts/src/CVStrategy/facets/CVAllocationFacet.sol:CVAllocationFacet","label":"voterStakedPoints","offset":0,"slot":"9","type":"t_mapping(t_address,t_uint256)"},{"astId":86430,"contract":"pkg/contracts/src/CVStrategy/facets/CVAllocationFacet.sol:CVAllocationFacet","label":"metadata","offset":0,"slot":"10","type":"t_struct(Metadata)806_storage"},{"astId":86433,"contract":"pkg/contracts/src/CVStrategy/facets/CVAllocationFacet.sol:CVAllocationFacet","label":"disputeInfo","offset":0,"slot":"12","type":"t_struct(ProposalDisputeInfo)86404_storage"},{"astId":86435,"contract":"pkg/contracts/src/CVStrategy/facets/CVAllocationFacet.sol:CVAllocationFacet","label":"lastDisputeCompletion","offset":0,"slot":"15","type":"t_uint256"},{"astId":86437,"contract":"pkg/contracts/src/CVStrategy/facets/CVAllocationFacet.sol:CVAllocationFacet","label":"arbitrableConfigVersion","offset":0,"slot":"16","type":"t_uint256"},{"astId":86439,"contract":"pkg/contracts/src/CVStrategy/facets/CVAllocationFacet.sol:CVAllocationFacet","label":"creationTimestamp","offset":0,"slot":"17","type":"t_uint256"}]},"t_struct(ProposalDisputeInfo)86404_storage":{"encoding":"inplace","label":"struct ProposalDisputeInfo","numberOfBytes":"96","members":[{"astId":86399,"contract":"pkg/contracts/src/CVStrategy/facets/CVAllocationFacet.sol:CVAllocationFacet","label":"disputeId","offset":0,"slot":"0","type":"t_uint256"},{"astId":86401,"contract":"pkg/contracts/src/CVStrategy/facets/CVAllocationFacet.sol:CVAllocationFacet","label":"disputeTimestamp","offset":0,"slot":"1","type":"t_uint256"},{"astId":86403,"contract":"pkg/contracts/src/CVStrategy/facets/CVAllocationFacet.sol:CVAllocationFacet","label":"challenger","offset":0,"slot":"2","type":"t_address"}]},"t_uint256":{"encoding":"inplace","label":"uint256","numberOfBytes":"32"},"t_uint64":{"encoding":"inplace","label":"uint64","numberOfBytes":"8"},"t_uint8":{"encoding":"inplace","label":"uint8","numberOfBytes":"1"}}},"id":133}