{"abi":[{"type":"function","name":"DEFAULT_FUNDING_UNITS","inputs":[],"outputs":[{"name":"","type":"uint128","internalType":"uint128"}],"stateMutability":"view"},{"type":"function","name":"DISPUTE_COOLDOWN_SEC","inputs":[],"outputs":[{"name":"","type":"uint256","internalType":"uint256"}],"stateMutability":"view"},{"type":"function","name":"RULING_OPTIONS","inputs":[],"outputs":[{"name":"","type":"uint256","internalType":"uint256"}],"stateMutability":"view"},{"type":"function","name":"TOTAL_GDA_UNITS","inputs":[],"outputs":[{"name":"","type":"uint128","internalType":"uint128"}],"stateMutability":"view"},{"type":"function","name":"arbitrableConfigs","inputs":[{"name":"","type":"uint256","internalType":"uint256"}],"outputs":[{"name":"arbitrator","type":"address","internalType":"contract IArbitrator"},{"name":"tribunalSafe","type":"address","internalType":"address"},{"name":"submitterCollateralAmount","type":"uint256","internalType":"uint256"},{"name":"challengerCollateralAmount","type":"uint256","internalType":"uint256"},{"name":"defaultRuling","type":"uint256","internalType":"uint256"},{"name":"defaultRulingTimeout","type":"uint256","internalType":"uint256"}],"stateMutability":"view"},{"type":"function","name":"batchEvaluateStreams","inputs":[],"outputs":[],"stateMutability":"nonpayable"},{"type":"function","name":"cloneNonce","inputs":[],"outputs":[{"name":"","type":"uint256","internalType":"uint256"}],"stateMutability":"view"},{"type":"function","name":"collateralVault","inputs":[],"outputs":[{"name":"","type":"address","internalType":"contract ICollateralVault"}],"stateMutability":"view"},{"type":"function","name":"currentArbitrableConfigVersion","inputs":[],"outputs":[{"name":"","type":"uint256","internalType":"uint256"}],"stateMutability":"view"},{"type":"function","name":"cvParams","inputs":[],"outputs":[{"name":"maxRatio","type":"uint256","internalType":"uint256"},{"name":"weight","type":"uint256","internalType":"uint256"},{"name":"decay","type":"uint256","internalType":"uint256"},{"name":"minThresholdPoints","type":"uint256","internalType":"uint256"}],"stateMutability":"view"},{"type":"function","name":"cvVault","inputs":[],"outputs":[{"name":"","type":"address","internalType":"contract ICVVault"}],"stateMutability":"view"},{"type":"function","name":"disputeCount","inputs":[],"outputs":[{"name":"","type":"uint64","internalType":"uint64"}],"stateMutability":"view"},{"type":"function","name":"disputeIdToProposalId","inputs":[{"name":"","type":"uint256","internalType":"uint256"}],"outputs":[{"name":"","type":"uint256","internalType":"uint256"}],"stateMutability":"view"},{"type":"function","name":"evaluateProposalStream","inputs":[{"name":"proposalId","type":"uint256","internalType":"uint256"}],"outputs":[],"stateMutability":"nonpayable"},{"type":"function","name":"getThresholdStatus","inputs":[],"outputs":[{"name":"proposalIds","type":"uint256[]","internalType":"uint256[]"},{"name":"convictions","type":"uint256[]","internalType":"uint256[]"},{"name":"thresholds","type":"uint256[]","internalType":"uint256[]"},{"name":"meets","type":"bool[]","internalType":"bool[]"}],"stateMutability":"view"},{"type":"function","name":"meetsThreshold","inputs":[{"name":"proposalId","type":"uint256","internalType":"uint256"}],"outputs":[{"name":"","type":"bool","internalType":"bool"}],"stateMutability":"view"},{"type":"function","name":"pointConfig","inputs":[],"outputs":[{"name":"maxAmount","type":"uint256","internalType":"uint256"}],"stateMutability":"view"},{"type":"function","name":"pointSystem","inputs":[],"outputs":[{"name":"","type":"uint8","internalType":"enum PointSystem"}],"stateMutability":"view"},{"type":"function","name":"proposalCounter","inputs":[],"outputs":[{"name":"","type":"uint256","internalType":"uint256"}],"stateMutability":"view"},{"type":"function","name":"proposalType","inputs":[],"outputs":[{"name":"","type":"uint8","internalType":"enum ProposalType"}],"stateMutability":"view"},{"type":"function","name":"proposals","inputs":[{"name":"","type":"uint256","internalType":"uint256"}],"outputs":[{"name":"proposalId","type":"uint256","internalType":"uint256"},{"name":"requestedAmount","type":"uint256","internalType":"uint256"},{"name":"stakedAmount","type":"uint256","internalType":"uint256"},{"name":"convictionLast","type":"uint256","internalType":"uint256"},{"name":"beneficiary","type":"address","internalType":"address"},{"name":"submitter","type":"address","internalType":"address"},{"name":"requestedToken","type":"address","internalType":"address"},{"name":"blockLast","type":"uint256","internalType":"uint256"},{"name":"proposalStatus","type":"uint8","internalType":"enum ProposalStatus"},{"name":"metadata","type":"tuple","internalType":"struct Metadata","components":[{"name":"protocol","type":"uint256","internalType":"uint256"},{"name":"pointer","type":"string","internalType":"string"}]},{"name":"disputeInfo","type":"tuple","internalType":"struct ProposalDisputeInfo","components":[{"name":"disputeId","type":"uint256","internalType":"uint256"},{"name":"disputeTimestamp","type":"uint256","internalType":"uint256"},{"name":"challenger","type":"address","internalType":"address"}]},{"name":"lastDisputeCompletion","type":"uint256","internalType":"uint256"},{"name":"arbitrableConfigVersion","type":"uint256","internalType":"uint256"}],"stateMutability":"view"},{"type":"function","name":"registryCommunity","inputs":[],"outputs":[{"name":"","type":"address","internalType":"contract IVotingPowerRegistry"}],"stateMutability":"view"},{"type":"function","name":"streamingEnabled","inputs":[],"outputs":[{"name":"","type":"bool","internalType":"bool"}],"stateMutability":"view"},{"type":"function","name":"superfluidToken","inputs":[],"outputs":[{"name":"","type":"address","internalType":"contract ISuperToken"}],"stateMutability":"view"},{"type":"function","name":"sybilScorer","inputs":[],"outputs":[{"name":"","type":"address","internalType":"contract ISybilScorer"}],"stateMutability":"view"},{"type":"function","name":"totalPointsActivated","inputs":[],"outputs":[{"name":"","type":"uint256","internalType":"uint256"}],"stateMutability":"view"},{"type":"function","name":"totalStaked","inputs":[],"outputs":[{"name":"","type":"uint256","internalType":"uint256"}],"stateMutability":"view"},{"type":"function","name":"totalVoterStakePct","inputs":[{"name":"","type":"address","internalType":"address"}],"outputs":[{"name":"","type":"uint256","internalType":"uint256"}],"stateMutability":"view"},{"type":"function","name":"voterStakedProposals","inputs":[{"name":"","type":"address","internalType":"address"},{"name":"","type":"uint256","internalType":"uint256"}],"outputs":[{"name":"","type":"uint256","internalType":"uint256"}],"stateMutability":"view"},{"type":"function","name":"ydsStrategy","inputs":[],"outputs":[{"name":"","type":"address","internalType":"contract IYDSStrategy"}],"stateMutability":"view"},{"type":"event","name":"ProposalStreamEvaluated","inputs":[{"name":"proposalId","type":"uint256","indexed":true,"internalType":"uint256"},{"name":"conviction","type":"uint256","indexed":true,"internalType":"uint256"},{"name":"threshold","type":"uint256","indexed":true,"internalType":"uint256"},{"name":"meetsThreshold","type":"bool","indexed":false,"internalType":"bool"},{"name":"streamActive","type":"bool","indexed":false,"internalType":"bool"}],"anonymous":false},{"type":"event","name":"ThresholdCrossed","inputs":[{"name":"proposalId","type":"uint256","indexed":true,"internalType":"uint256"},{"name":"conviction","type":"uint256","indexed":true,"internalType":"uint256"},{"name":"threshold","type":"uint256","indexed":true,"internalType":"uint256"},{"name":"crossed","type":"bool","indexed":false,"internalType":"bool"}],"anonymous":false},{"type":"error","name":"GDANotConfigured","inputs":[]},{"type":"error","name":"InvalidUnits","inputs":[]},{"type":"error","name":"NoVaultConfigured","inputs":[]},{"type":"error","name":"NoYDSStrategy","inputs":[]},{"type":"error","name":"OnlyPendingRecipient","inputs":[]},{"type":"error","name":"ProposalNotFoundStream","inputs":[]},{"type":"error","name":"StreamAlreadyActive","inputs":[{"name":"proposalId","type":"uint256","internalType":"uint256"}]},{"type":"error","name":"StreamNotActive","inputs":[{"name":"proposalId","type":"uint256","internalType":"uint256"}]},{"type":"error","name":"StreamingNotEnabled","inputs":[]},{"type":"error","name":"SuperfluidOperationFailed","inputs":[{"name":"operation","type":"string","internalType":"string"}]},{"type":"error","name":"WrongProposalType","inputs":[]}],"bytecode":{"object":"0x608060405234801561001057600080fd5b50611c74806100206000396000f3fe608060405234801561001057600080fd5b506004361061016a5760003560e01c8063013cf08b1461016f57806305caa7f3146101a45780630bece79c146101c45780630c0512e9146101d7578063125fd1d9146101ee57806321704668146101f75780632506b8701461020c578063255ffb38146102325780632dbd6fdd146102525780633396045914610271578063351d9f961461027a57806341bb7605146102875780635db64b991461030f5780636003e4141461032f578063626c47e81461034257806371d013ee1461034a5780637a3c8b381461036d578063817b1cd21461038e578063868c57b8146103975780638a05105a146103aa578063a28889e1146103be578063a47ff7e5146103e9578063aba9ffee146103f3578063b4b9a107146103fc578063b6c61f3114610405578063d3fdd3c714610418578063d4ec787914610430578063f5be3f7c14610443578063f84678211461044c578063fc4896c81461045f575b600080fd5b61018261017d36600461156e565b610467565b60405161019b9d9c9b9a99989796959493929190611601565b60405180910390f35b6082546101b7906001600160a01b031681565b60405161019b91906116bb565b607a546101b7906001600160a01b031681565b6101e0606f5481565b60405190815260200161019b565b6101e060705481565b61020a61020536600461156e565b6105b5565b005b6073546074546075546076546102229392919084565b60405161019b94939291906116cf565b6101e061024036600461156e565b60806020526000908152604090205481565b60775461026490610100900460ff1681565b60405161019b91906116fa565b6101e0606d5481565b6077546102649060ff1681565b6102d761029536600461156e565b6081602052600090815260409020805460018201546002830154600384015460048501546005909501546001600160a01b039485169593909416939192909186565b604080516001600160a01b039788168152969095166020870152938501929092526060840152608083015260a082015260c00161019b565b6101e061031d366004611722565b607e6020526000908152604090205481565b6079546101b7906001600160a01b031681565b6101e0600381565b61035d61035836600461156e565b6105c3565b604051901515815260200161019b565b61037661271081565b6040516001600160801b03909116815260200161019b565b6101e060715481565b6101e06103a536600461173f565b6106b2565b60855461035d90600160a01b900460ff1681565b606e546103d1906001600160401b031681565b6040516001600160401b03909116815260200161019b565b6078546101e09081565b6101e060725481565b6103766103e881565b607c546101b7906001600160a01b031681565b6104206106e3565b60405161019b94939291906117a6565b607b546101b7906001600160a01b031681565b6101e0611c2081565b6083546101b7906001600160a01b031681565b61020a610a12565b607d602090815260009182526040918290208054600182015460028301546003840154600485015460058601546006870154600788015460088901548b51808d01909c52600a8a0180548d52600b8b0180549a9d999c989b979a6001600160a01b039788169a968816999790951697939660ff90931695939491928401916104ee90611826565b80601f016020809104026020016040519081016040528092919081815260200182805461051a90611826565b80156105675780601f1061053c57610100808354040283529160200191610567565b820191906000526020600020905b81548152906001019060200180831161054a57829003601f168201915b50505091909252505060408051606081018252600c8501548152600d8501546020820152600e8501546001600160a01b031691810191909152600f840154601090940154929390929091508d565b6105c0816001610b13565b50565b6000818152607d602052604081206001600882015460ff1660068111156105ec576105ec611587565b146105fa5750600092915050565b600061060584610d5d565b9050600073__$f1b7c69ba751c396eddc93d3bbc5414fd9$__63010dfe648460070154436106339190611876565b600386015460028701546075546040516001600160e01b031960e087901b16815261066494939291906004016116cf565b602060405180830381865af4158015610681573d6000803e3d6000fd5b505050506040513d601f19601f820116820180604052508101906106a59190611889565b9190911015949350505050565b607f60205281600052604060002081815481106106ce57600080fd5b90600052602060002001600091509150505481565b6060808080600060015b606f5481116107435760016000828152607d602052604090206008015460ff16600681111561071e5761071e611587565b03610731578161072d816118a2565b9250505b8061073b816118a2565b9150506106ed565b50806001600160401b0381111561075c5761075c6118bb565b604051908082528060200260200182016040528015610785578160200160208202803683370190505b509450806001600160401b038111156107a0576107a06118bb565b6040519080825280602002602001820160405280156107c9578160200160208202803683370190505b509350806001600160401b038111156107e4576107e46118bb565b60405190808252806020026020018201604052801561080d578160200160208202803683370190505b509250806001600160401b03811115610828576108286118bb565b604051908082528060200260200182016040528015610851578160200160208202803683370190505b509150600060015b606f548111610a09576000818152607d602052604090206001600882015460ff16600681111561088b5761088b611587565b036109f657818884815181106108a3576108a36118d1565b60200260200101818152505073__$f1b7c69ba751c396eddc93d3bbc5414fd9$__63010dfe648260070154436108d99190611876565b600384015460028501546075546040516001600160e01b031960e087901b16815261090a94939291906004016116cf565b602060405180830381865af4158015610927573d6000803e3d6000fd5b505050506040513d601f19601f8201168201806040525081019061094b9190611889565b87848151811061095d5761095d6118d1565b60200260200101818152505061097282610d5d565b868481518110610984576109846118d1565b6020026020010181815250508583815181106109a2576109a26118d1565b60200260200101518784815181106109bc576109bc6118d1565b602002602001015110158584815181106109d8576109d86118d1565b91151560209283029190910190910152826109f2816118a2565b9350505b5080610a01816118a2565b915050610859565b50505090919293565b610a1a610e43565b600160775460ff166003811115610a3357610a33611587565b14158015610a585750600260775460ff166003811115610a5557610a55611587565b14155b15610a7657604051635cd3202560e01b815260040160405180910390fd5b60015b606f5481116105c05760016000828152607d602052604090206008015460ff166006811115610aaa57610aaa611587565b03610b015760405163042e08cd60e31b8152600481018290523090632170466890602401600060405180830381600087803b158015610ae857600080fd5b505af1158015610afc573d6000803e3d6000fd5b505050505b80610b0b816118a2565b915050610a79565b610b1b610e43565b600160775460ff166003811115610b3457610b34611587565b14158015610b595750600260775460ff166003811115610b5657610b56611587565b14155b15610b7757604051635cd3202560e01b815260040160405180910390fd5b608554600160a01b900460ff16610ba157604051634a4d18c960e01b815260040160405180910390fd5b610baa82610e54565b610bc75760405163c0222c4760e01b815260040160405180910390fd5b6000828152607d602052604090206001600882015460ff166006811115610bf057610bf0611587565b14610c1a5760008381526084602052604090205460ff1615610c1557610c1583610e90565b505050565b8115610c2e57610c2e818260020154610f1e565b6000610c3984610d5d565b6003830154600086815260846020526040902054919250821180159160ff16908290610c63575080155b15610ca757610c7186610fbb565b82846003015487600080516020611c488339815191526001604051610c9a911515815260200190565b60405180910390a4610cf2565b81158015610cb25750805b15610cf257610cc086610e90565b82846003015487600080516020611c488339815191526000604051610ce9911515815260200190565b60405180910390a45b60038401546000878152608460205260409081902054905185929189917fc94b38a2d06805334af57d959eb2c26fbdb319368767087d2c39dd91f22d043791610d4d91889160ff169091151582521515602082015260400190565b60405180910390a4505050505050565b6000818152607d6020526040812060018101548203610d7f5750600092915050565b73__$f1b7c69ba751c396eddc93d3bbc5414fd9$__6329dfe5ba8260010154610da6610ffe565b60725460755460745460735460765460405160e089901b6001600160e01b03191681526004810197909752602487019590955260448601939093526064850191909152608484015260a483015260c482015260e401602060405180830381865af4158015610e18573d6000803e3d6000fd5b505050506040513d601f19601f82011682018060405250810190610e3c9190611889565b9392505050565b606854600003610e5257600080fd5b565b6000818152607d602052604081205415801590610e8a57506000828152607d60205260409020600501546001600160a01b031615155b92915050565b60405160248101829052600090309060440160408051601f198184030181529181526020820180516001600160e01b03166342ea844f60e11b17905251610ed791906118e7565b600060405180830381855af49150503d8060008114610f12576040519150601f19603f3d011682016040523d82523d6000602084013e610f17565b606091505b5050505050565b600080610f2b848461128c565b91509150816000148015610f3d575080155b15610f485750505050565b6007840181905560038401829055608554600160a01b900460ff168015610fa55750600160775460ff166003811115610f8357610f83611587565b1480610fa55750600260775460ff166003811115610fa357610fa3611587565b145b15610fb5578354610fb59061135d565b50505050565b6000818152607d6020526040812090610fd383611422565b90506001600160801b03811615610c15576004820154610c159084906001600160a01b031683611485565b60655460685460405163068bcd8d60e01b815260009283926001600160a01b039091169163068bcd8d916110389160040190815260200190565b600060405180830381865afa158015611055573d6000803e3d6000fd5b505050506040513d6000823e601f3d908101601f1916820160405261107d919081019061197d565b60400151905073eeeeeeeeeeeeeeeeeeeeeeeeeeeeeeeeeeeeeeed196001600160a01b038216016110af574791505090565b6040516370a0823160e01b81526000906001600160a01b038316906370a08231906110de9030906004016116bb565b602060405180830381865afa1580156110fb573d6000803e3d6000fd5b505050506040513d601f19601f8201168201806040525081019061111f9190611889565b6082549091506000906001600160a01b0316156111ac576082546040516370a0823160e01b81526001600160a01b03909116906370a08231906111669030906004016116bb565b602060405180830381865afa158015611183573d6000803e3d6000fd5b505050506040513d601f19601f820116820180604052508101906111a79190611889565b6111af565b60005b90506000836001600160a01b031663313ce5676040518163ffffffff1660e01b8152600401602060405180830381865afa1580156111f1573d6000803e3d6000fd5b505050506040513d601f19601f820116820180604052508101906112159190611ab6565b905060128160ff16101561124a5761122e816012611ad9565b61123990600a611bd6565b6112439083611be5565b9150611279565b60128160ff16111561127957611261601282611ad9565b61126c90600a611bd6565b6112769083611c07565b91505b6112838284611c1e565b94505050505090565b60008043905080846007015411156112a6576112a6611c31565b808460070154036112bc57506000905080611356565b73__$f1b7c69ba751c396eddc93d3bbc5414fd9$__63010dfe648560070154836112e69190611876565b60038701546075546040516001600160e01b031960e086901b16815261131293929189916004016116cf565b602060405180830381865af415801561132f573d6000803e3d6000fd5b505050506040513d601f19601f820116820180604052508101906113539190611889565b91505b9250929050565b6000818152608460205260409020600281015461137b90600a611c1e565b431015611386575050565b4360028201556040516024810183905260006044820181905290309060640160408051601f198184030181529181526020820180516001600160e01b031663020dc1f960e01b179052516113da91906118e7565b600060405180830381855af49150503d8060008114611415576040519150601f19603f3d011682016040523d82523d6000602084013e61141a565b606091505b505050505050565b6000818152607d6020526040812081611439610ffe565b90508060000361144d575060009392505050565b60008183600101546127106114629190611c07565b61146c9190611be5565b905061138881111561147d57506113885b949350505050565b604051602481018490526001600160a01b03831660448201526001600160801b0382166064820152600090309060840160408051601f198184030181529181526020820180516001600160e01b031663e1f1235560e01b179052516114ea91906118e7565b600060405180830381855af49150503d8060008114611525576040519150601f19603f3d011682016040523d82523d6000602084013e61152a565b606091505b5050905080610fb557604051631938612760e11b815260206004820152600b60248201526a737461727453747265616d60a81b604482015260640160405180910390fd5b60006020828403121561158057600080fd5b5035919050565b634e487b7160e01b600052602160045260246000fd5b60005b838110156115b85781810151838201526020016115a0565b50506000910152565b80518252600060208201516040602085015280518060408601526115ec81606087016020850161159d565b601f01601f1916939093016060019392505050565b8d8152602081018d9052604081018c9052606081018b90526001600160a01b038a8116608083015289811660a0830152881660c082015260e0810187905260006101e06007881061165457611654611587565b876101008401528061012084015261166e818401886115c1565b8651610140850152602087015161016085015260408701516001600160a01b0316610180850152915061169e9050565b6101a08201939093526101c001529b9a5050505050505050505050565b6001600160a01b0391909116815260200190565b93845260208401929092526040830152606082015260800190565b600481106105c0576105c0611587565b60208101611707836116ea565b91905290565b6001600160a01b03811681146105c057600080fd5b60006020828403121561173457600080fd5b8135610e3c8161170d565b6000806040838503121561175257600080fd5b823561175d8161170d565b946020939093013593505050565b600081518084526020808501945080840160005b8381101561179b5781518752958201959082019060010161177f565b509495945050505050565b6080815260006117b9608083018761176b565b6020838203818501526117cc828861176b565b915083820360408501526117e0828761176b565b8481036060860152855180825282870193509082019060005b818110156118175784511515835293830193918301916001016117f9565b50909998505050505050505050565b600181811c9082168061183a57607f821691505b60208210810361185a57634e487b7160e01b600052602260045260246000fd5b50919050565b634e487b7160e01b600052601160045260246000fd5b81810381811115610e8a57610e8a611860565b60006020828403121561189b57600080fd5b5051919050565b6000600182016118b4576118b4611860565b5060010190565b634e487b7160e01b600052604160045260246000fd5b634e487b7160e01b600052603260045260246000fd5b600082516118f981846020870161159d565b9190910192915050565b60405160c081016001600160401b0381118282101715611925576119256118bb565b60405290565b604080519081016001600160401b0381118282101715611925576119256118bb565b604051601f8201601f191681016001600160401b0381118282101715611975576119756118bb565b604052919050565b6000602080838503121561199057600080fd5b82516001600160401b03808211156119a757600080fd5b9084019060c082870312156119bb57600080fd5b6119c3611903565b82518152838301516119d48161170d565b8185015260408301516119e68161170d565b60408201526060830151828111156119fd57600080fd5b830160408189031215611a0f57600080fd5b611a1761192b565b815181528582015184811115611a2c57600080fd5b80830192505088601f830112611a4157600080fd5b815184811115611a5357611a536118bb565b611a65601f8201601f1916880161194d565b94508085528987828501011115611a7b57600080fd5b611a8a8188870189860161159d565b50948501929092526060810193909352506080818101519083015260a090810151908201529392505050565b600060208284031215611ac857600080fd5b815160ff81168114610e3c57600080fd5b60ff8281168282160390811115610e8a57610e8a611860565b600181815b80851115611b2d578160001904821115611b1357611b13611860565b80851615611b2057918102915b93841c9390800290611af7565b509250929050565b600082611b4457506001610e8a565b81611b5157506000610e8a565b8160018114611b675760028114611b7157611b8d565b6001915050610e8a565b60ff841115611b8257611b82611860565b50506001821b610e8a565b5060208310610133831016604e8410600b8410161715611bb0575081810a610e8a565b611bba8383611af2565b8060001904821115611bce57611bce611860565b029392505050565b6000610e3c60ff841683611b35565b600082611c0257634e487b7160e01b600052601260045260246000fd5b500490565b8082028115828204841417610e8a57610e8a611860565b80820180821115610e8a57610e8a611860565b634e487b7160e01b600052600160045260246000fdfead8d567c7ac20833d9a553ed1c0446706e1121b726081a6e69f3c388b7935061a164736f6c6343000813000a","linkReferences":{"pkg/contracts/src/CVStrategy/ConvictionsUtils.sol":{"ConvictionsUtils":[{"start":1579,"length":20},{"start":2257,"length":20},{"start":3489,"length":20},{"start":4830,"length":20}]}}},"methodIdentifiers":{"DEFAULT_FUNDING_UNITS()":"b4b9a107","DISPUTE_COOLDOWN_SEC()":"f5be3f7c","RULING_OPTIONS()":"626c47e8","TOTAL_GDA_UNITS()":"7a3c8b38","arbitrableConfigs(uint256)":"41bb7605","batchEvaluateStreams()":"fc4896c8","cloneNonce()":"33960459","collateralVault()":"0bece79c","currentArbitrableConfigVersion()":"125fd1d9","cvParams()":"2506b870","cvVault()":"d4ec7879","disputeCount()":"a28889e1","disputeIdToProposalId(uint256)":"255ffb38","evaluateProposalStream(uint256)":"21704668","getThresholdStatus()":"d3fdd3c7","meetsThreshold(uint256)":"71d013ee","pointConfig()":"a47ff7e5","pointSystem()":"2dbd6fdd","proposalCounter()":"0c0512e9","proposalType()":"351d9f96","proposals(uint256)":"013cf08b","registryCommunity()":"6003e414","streamingEnabled()":"8a05105a","superfluidToken()":"05caa7f3","sybilScorer()":"b6c61f31","totalPointsActivated()":"aba9ffee","totalStaked()":"817b1cd2","totalVoterStakePct(address)":"5db64b99","voterStakedProposals(address,uint256)":"868c57b8","ydsStrategy()":"f8467821"},"storageLayout":{"storage":[{"astId":87054,"contract":"pkg/contracts/src/CVStrategy/facets/CVStreamingFundingFacet.sol:CVStreamingFundingFacet","label":"_initialized","offset":0,"slot":"0","type":"t_uint8"},{"astId":87056,"contract":"pkg/contracts/src/CVStrategy/facets/CVStreamingFundingFacet.sol:CVStreamingFundingFacet","label":"_initializing","offset":1,"slot":"0","type":"t_bool"},{"astId":87060,"contract":"pkg/contracts/src/CVStrategy/facets/CVStreamingFundingFacet.sol:CVStreamingFundingFacet","label":"__gap_init","offset":0,"slot":"1","type":"t_array(t_uint256)50_storage"},{"astId":87063,"contract":"pkg/contracts/src/CVStrategy/facets/CVStreamingFundingFacet.sol:CVStreamingFundingFacet","label":"_owner","offset":0,"slot":"51","type":"t_address"},{"astId":87067,"contract":"pkg/contracts/src/CVStrategy/facets/CVStreamingFundingFacet.sol:CVStreamingFundingFacet","label":"__gap_ownable","offset":0,"slot":"52","type":"t_array(t_uint256)49_storage"},{"astId":87071,"contract":"pkg/contracts/src/CVStrategy/facets/CVStreamingFundingFacet.sol:CVStreamingFundingFacet","label":"allo","offset":0,"slot":"101","type":"t_contract(IAllo)2629"},{"astId":87073,"contract":"pkg/contracts/src/CVStrategy/facets/CVStreamingFundingFacet.sol:CVStreamingFundingFacet","label":"strategyId","offset":0,"slot":"102","type":"t_bytes32"},{"astId":87075,"contract":"pkg/contracts/src/CVStrategy/facets/CVStreamingFundingFacet.sol:CVStreamingFundingFacet","label":"poolActive","offset":0,"slot":"103","type":"t_bool"},{"astId":87077,"contract":"pkg/contracts/src/CVStrategy/facets/CVStreamingFundingFacet.sol:CVStreamingFundingFacet","label":"poolId","offset":0,"slot":"104","type":"t_uint256"},{"astId":87079,"contract":"pkg/contracts/src/CVStrategy/facets/CVStreamingFundingFacet.sol:CVStreamingFundingFacet","label":"poolAmount","offset":0,"slot":"105","type":"t_uint256"},{"astId":87082,"contract":"pkg/contracts/src/CVStrategy/facets/CVStreamingFundingFacet.sol:CVStreamingFundingFacet","label":"collateralVaultTemplate","offset":0,"slot":"106","type":"t_address"},{"astId":87085,"contract":"pkg/contracts/src/CVStrategy/facets/CVStreamingFundingFacet.sol:CVStreamingFundingFacet","label":"cvVaultTemplate","offset":0,"slot":"107","type":"t_address"},{"astId":87088,"contract":"pkg/contracts/src/CVStrategy/facets/CVStreamingFundingFacet.sol:CVStreamingFundingFacet","label":"surpressStateMutabilityWarning","offset":0,"slot":"108","type":"t_uint256"},{"astId":87091,"contract":"pkg/contracts/src/CVStrategy/facets/CVStreamingFundingFacet.sol:CVStreamingFundingFacet","label":"cloneNonce","offset":0,"slot":"109","type":"t_uint256"},{"astId":87094,"contract":"pkg/contracts/src/CVStrategy/facets/CVStreamingFundingFacet.sol:CVStreamingFundingFacet","label":"disputeCount","offset":0,"slot":"110","type":"t_uint64"},{"astId":87097,"contract":"pkg/contracts/src/CVStrategy/facets/CVStreamingFundingFacet.sol:CVStreamingFundingFacet","label":"proposalCounter","offset":0,"slot":"111","type":"t_uint256"},{"astId":87100,"contract":"pkg/contracts/src/CVStrategy/facets/CVStreamingFundingFacet.sol:CVStreamingFundingFacet","label":"currentArbitrableConfigVersion","offset":0,"slot":"112","type":"t_uint256"},{"astId":87103,"contract":"pkg/contracts/src/CVStrategy/facets/CVStreamingFundingFacet.sol:CVStreamingFundingFacet","label":"totalStaked","offset":0,"slot":"113","type":"t_uint256"},{"astId":87106,"contract":"pkg/contracts/src/CVStrategy/facets/CVStreamingFundingFacet.sol:CVStreamingFundingFacet","label":"totalPointsActivated","offset":0,"slot":"114","type":"t_uint256"},{"astId":87110,"contract":"pkg/contracts/src/CVStrategy/facets/CVStreamingFundingFacet.sol:CVStreamingFundingFacet","label":"cvParams","offset":0,"slot":"115","type":"t_struct(CVParams)88147_storage"},{"astId":87114,"contract":"pkg/contracts/src/CVStrategy/facets/CVStreamingFundingFacet.sol:CVStreamingFundingFacet","label":"proposalType","offset":0,"slot":"119","type":"t_enum(ProposalType)88050"},{"astId":87118,"contract":"pkg/contracts/src/CVStrategy/facets/CVStreamingFundingFacet.sol:CVStreamingFundingFacet","label":"pointSystem","offset":1,"slot":"119","type":"t_enum(PointSystem)88055"},{"astId":87122,"contract":"pkg/contracts/src/CVStrategy/facets/CVStreamingFundingFacet.sol:CVStreamingFundingFacet","label":"pointConfig","offset":0,"slot":"120","type":"t_struct(PointSystemConfig)88124_storage"},{"astId":87126,"contract":"pkg/contracts/src/CVStrategy/facets/CVStreamingFundingFacet.sol:CVStreamingFundingFacet","label":"registryCommunity","offset":0,"slot":"121","type":"t_contract(IVotingPowerRegistry)104333"},{"astId":87130,"contract":"pkg/contracts/src/CVStrategy/facets/CVStreamingFundingFacet.sol:CVStreamingFundingFacet","label":"collateralVault","offset":0,"slot":"122","type":"t_contract(ICollateralVault)103612"},{"astId":87134,"contract":"pkg/contracts/src/CVStrategy/facets/CVStreamingFundingFacet.sol:CVStreamingFundingFacet","label":"cvVault","offset":0,"slot":"123","type":"t_contract(ICVVault)103579"},{"astId":87138,"contract":"pkg/contracts/src/CVStrategy/facets/CVStreamingFundingFacet.sol:CVStreamingFundingFacet","label":"sybilScorer","offset":0,"slot":"124","type":"t_contract(ISybilScorer)95778"},{"astId":87144,"contract":"pkg/contracts/src/CVStrategy/facets/CVStreamingFundingFacet.sol:CVStreamingFundingFacet","label":"proposals","offset":0,"slot":"125","type":"t_mapping(t_uint256,t_struct(Proposal)88116_storage)"},{"astId":87149,"contract":"pkg/contracts/src/CVStrategy/facets/CVStreamingFundingFacet.sol:CVStreamingFundingFacet","label":"totalVoterStakePct","offset":0,"slot":"126","type":"t_mapping(t_address,t_uint256)"},{"astId":87155,"contract":"pkg/contracts/src/CVStrategy/facets/CVStreamingFundingFacet.sol:CVStreamingFundingFacet","label":"voterStakedProposals","offset":0,"slot":"127","type":"t_mapping(t_address,t_array(t_uint256)dyn_storage)"},{"astId":87160,"contract":"pkg/contracts/src/CVStrategy/facets/CVStreamingFundingFacet.sol:CVStreamingFundingFacet","label":"disputeIdToProposalId","offset":0,"slot":"128","type":"t_mapping(t_uint256,t_uint256)"},{"astId":87166,"contract":"pkg/contracts/src/CVStrategy/facets/CVStreamingFundingFacet.sol:CVStreamingFundingFacet","label":"arbitrableConfigs","offset":0,"slot":"129","type":"t_mapping(t_uint256,t_struct(ArbitrableConfig)88138_storage)"},{"astId":87170,"contract":"pkg/contracts/src/CVStrategy/facets/CVStreamingFundingFacet.sol:CVStreamingFundingFacet","label":"superfluidToken","offset":0,"slot":"130","type":"t_contract(ISuperToken)74423"},{"astId":87174,"contract":"pkg/contracts/src/CVStrategy/facets/CVStreamingFundingFacet.sol:CVStreamingFundingFacet","label":"ydsStrategy","offset":0,"slot":"131","type":"t_contract(IYDSStrategy)104459"},{"astId":87191,"contract":"pkg/contracts/src/CVStrategy/facets/CVStreamingFundingFacet.sol:CVStreamingFundingFacet","label":"proposalStreams","offset":0,"slot":"132","type":"t_mapping(t_uint256,t_struct(StreamState)87185_storage)"},{"astId":87194,"contract":"pkg/contracts/src/CVStrategy/facets/CVStreamingFundingFacet.sol:CVStreamingFundingFacet","label":"superfluidGDA","offset":0,"slot":"133","type":"t_address"},{"astId":87197,"contract":"pkg/contracts/src/CVStrategy/facets/CVStreamingFundingFacet.sol:CVStreamingFundingFacet","label":"streamingEnabled","offset":20,"slot":"133","type":"t_bool"},{"astId":87202,"contract":"pkg/contracts/src/CVStrategy/facets/CVStreamingFundingFacet.sol:CVStreamingFundingFacet","label":"__gap","offset":0,"slot":"134","type":"t_array(t_uint256)45_storage"}],"types":{"t_address":{"encoding":"inplace","label":"address","numberOfBytes":"20"},"t_array(t_uint256)45_storage":{"encoding":"inplace","label":"uint256[45]","numberOfBytes":"1440","base":"t_uint256"},"t_array(t_uint256)49_storage":{"encoding":"inplace","label":"uint256[49]","numberOfBytes":"1568","base":"t_uint256"},"t_array(t_uint256)50_storage":{"encoding":"inplace","label":"uint256[50]","numberOfBytes":"1600","base":"t_uint256"},"t_array(t_uint256)dyn_storage":{"encoding":"dynamic_array","label":"uint256[]","numberOfBytes":"32","base":"t_uint256"},"t_bool":{"encoding":"inplace","label":"bool","numberOfBytes":"1"},"t_bytes32":{"encoding":"inplace","label":"bytes32","numberOfBytes":"32"},"t_contract(IAllo)2629":{"encoding":"inplace","label":"contract IAllo","numberOfBytes":"20"},"t_contract(IArbitrator)103495":{"encoding":"inplace","label":"contract IArbitrator","numberOfBytes":"20"},"t_contract(ICVVault)103579":{"encoding":"inplace","label":"contract ICVVault","numberOfBytes":"20"},"t_contract(ICollateralVault)103612":{"encoding":"inplace","label":"contract ICollateralVault","numberOfBytes":"20"},"t_contract(ISuperToken)74423":{"encoding":"inplace","label":"contract ISuperToken","numberOfBytes":"20"},"t_contract(ISybilScorer)95778":{"encoding":"inplace","label":"contract ISybilScorer","numberOfBytes":"20"},"t_contract(IVotingPowerRegistry)104333":{"encoding":"inplace","label":"contract IVotingPowerRegistry","numberOfBytes":"20"},"t_contract(IYDSStrategy)104459":{"encoding":"inplace","label":"contract IYDSStrategy","numberOfBytes":"20"},"t_enum(PointSystem)88055":{"encoding":"inplace","label":"enum PointSystem","numberOfBytes":"1"},"t_enum(ProposalStatus)88075":{"encoding":"inplace","label":"enum ProposalStatus","numberOfBytes":"1"},"t_enum(ProposalType)88050":{"encoding":"inplace","label":"enum ProposalType","numberOfBytes":"1"},"t_mapping(t_address,t_array(t_uint256)dyn_storage)":{"encoding":"mapping","key":"t_address","label":"mapping(address => uint256[])","numberOfBytes":"32","value":"t_array(t_uint256)dyn_storage"},"t_mapping(t_address,t_uint256)":{"encoding":"mapping","key":"t_address","label":"mapping(address => uint256)","numberOfBytes":"32","value":"t_uint256"},"t_mapping(t_uint256,t_struct(ArbitrableConfig)88138_storage)":{"encoding":"mapping","key":"t_uint256","label":"mapping(uint256 => struct ArbitrableConfig)","numberOfBytes":"32","value":"t_struct(ArbitrableConfig)88138_storage"},"t_mapping(t_uint256,t_struct(Proposal)88116_storage)":{"encoding":"mapping","key":"t_uint256","label":"mapping(uint256 => struct Proposal)","numberOfBytes":"32","value":"t_struct(Proposal)88116_storage"},"t_mapping(t_uint256,t_struct(StreamState)87185_storage)":{"encoding":"mapping","key":"t_uint256","label":"mapping(uint256 => struct CVStrategyBaseFacet.StreamState)","numberOfBytes":"32","value":"t_struct(StreamState)87185_storage"},"t_mapping(t_uint256,t_uint256)":{"encoding":"mapping","key":"t_uint256","label":"mapping(uint256 => uint256)","numberOfBytes":"32","value":"t_uint256"},"t_string_storage":{"encoding":"bytes","label":"string","numberOfBytes":"32"},"t_struct(ArbitrableConfig)88138_storage":{"encoding":"inplace","label":"struct ArbitrableConfig","numberOfBytes":"192","members":[{"astId":88127,"contract":"pkg/contracts/src/CVStrategy/facets/CVStreamingFundingFacet.sol:CVStreamingFundingFacet","label":"arbitrator","offset":0,"slot":"0","type":"t_contract(IArbitrator)103495"},{"astId":88129,"contract":"pkg/contracts/src/CVStrategy/facets/CVStreamingFundingFacet.sol:CVStreamingFundingFacet","label":"tribunalSafe","offset":0,"slot":"1","type":"t_address"},{"astId":88131,"contract":"pkg/contracts/src/CVStrategy/facets/CVStreamingFundingFacet.sol:CVStreamingFundingFacet","label":"submitterCollateralAmount","offset":0,"slot":"2","type":"t_uint256"},{"astId":88133,"contract":"pkg/contracts/src/CVStrategy/facets/CVStreamingFundingFacet.sol:CVStreamingFundingFacet","label":"challengerCollateralAmount","offset":0,"slot":"3","type":"t_uint256"},{"astId":88135,"contract":"pkg/contracts/src/CVStrategy/facets/CVStreamingFundingFacet.sol:CVStreamingFundingFacet","label":"defaultRuling","offset":0,"slot":"4","type":"t_uint256"},{"astId":88137,"contract":"pkg/contracts/src/CVStrategy/facets/CVStreamingFundingFacet.sol:CVStreamingFundingFacet","label":"defaultRulingTimeout","offset":0,"slot":"5","type":"t_uint256"}]},"t_struct(CVParams)88147_storage":{"encoding":"inplace","label":"struct CVParams","numberOfBytes":"128","members":[{"astId":88140,"contract":"pkg/contracts/src/CVStrategy/facets/CVStreamingFundingFacet.sol:CVStreamingFundingFacet","label":"maxRatio","offset":0,"slot":"0","type":"t_uint256"},{"astId":88142,"contract":"pkg/contracts/src/CVStrategy/facets/CVStreamingFundingFacet.sol:CVStreamingFundingFacet","label":"weight","offset":0,"slot":"1","type":"t_uint256"},{"astId":88144,"contract":"pkg/contracts/src/CVStrategy/facets/CVStreamingFundingFacet.sol:CVStreamingFundingFacet","label":"decay","offset":0,"slot":"2","type":"t_uint256"},{"astId":88146,"contract":"pkg/contracts/src/CVStrategy/facets/CVStreamingFundingFacet.sol:CVStreamingFundingFacet","label":"minThresholdPoints","offset":0,"slot":"3","type":"t_uint256"}]},"t_struct(Metadata)3080_storage":{"encoding":"inplace","label":"struct Metadata","numberOfBytes":"64","members":[{"astId":3076,"contract":"pkg/contracts/src/CVStrategy/facets/CVStreamingFundingFacet.sol:CVStreamingFundingFacet","label":"protocol","offset":0,"slot":"0","type":"t_uint256"},{"astId":3079,"contract":"pkg/contracts/src/CVStrategy/facets/CVStreamingFundingFacet.sol:CVStreamingFundingFacet","label":"pointer","offset":0,"slot":"1","type":"t_string_storage"}]},"t_struct(PointSystemConfig)88124_storage":{"encoding":"inplace","label":"struct PointSystemConfig","numberOfBytes":"32","members":[{"astId":88123,"contract":"pkg/contracts/src/CVStrategy/facets/CVStreamingFundingFacet.sol:CVStreamingFundingFacet","label":"maxAmount","offset":0,"slot":"0","type":"t_uint256"}]},"t_struct(Proposal)88116_storage":{"encoding":"inplace","label":"struct Proposal","numberOfBytes":"544","members":[{"astId":88084,"contract":"pkg/contracts/src/CVStrategy/facets/CVStreamingFundingFacet.sol:CVStreamingFundingFacet","label":"proposalId","offset":0,"slot":"0","type":"t_uint256"},{"astId":88086,"contract":"pkg/contracts/src/CVStrategy/facets/CVStreamingFundingFacet.sol:CVStreamingFundingFacet","label":"requestedAmount","offset":0,"slot":"1","type":"t_uint256"},{"astId":88088,"contract":"pkg/contracts/src/CVStrategy/facets/CVStreamingFundingFacet.sol:CVStreamingFundingFacet","label":"stakedAmount","offset":0,"slot":"2","type":"t_uint256"},{"astId":88090,"contract":"pkg/contracts/src/CVStrategy/facets/CVStreamingFundingFacet.sol:CVStreamingFundingFacet","label":"convictionLast","offset":0,"slot":"3","type":"t_uint256"},{"astId":88092,"contract":"pkg/contracts/src/CVStrategy/facets/CVStreamingFundingFacet.sol:CVStreamingFundingFacet","label":"beneficiary","offset":0,"slot":"4","type":"t_address"},{"astId":88094,"contract":"pkg/contracts/src/CVStrategy/facets/CVStreamingFundingFacet.sol:CVStreamingFundingFacet","label":"submitter","offset":0,"slot":"5","type":"t_address"},{"astId":88096,"contract":"pkg/contracts/src/CVStrategy/facets/CVStreamingFundingFacet.sol:CVStreamingFundingFacet","label":"requestedToken","offset":0,"slot":"6","type":"t_address"},{"astId":88098,"contract":"pkg/contracts/src/CVStrategy/facets/CVStreamingFundingFacet.sol:CVStreamingFundingFacet","label":"blockLast","offset":0,"slot":"7","type":"t_uint256"},{"astId":88101,"contract":"pkg/contracts/src/CVStrategy/facets/CVStreamingFundingFacet.sol:CVStreamingFundingFacet","label":"proposalStatus","offset":0,"slot":"8","type":"t_enum(ProposalStatus)88075"},{"astId":88105,"contract":"pkg/contracts/src/CVStrategy/facets/CVStreamingFundingFacet.sol:CVStreamingFundingFacet","label":"voterStakedPoints","offset":0,"slot":"9","type":"t_mapping(t_address,t_uint256)"},{"astId":88108,"contract":"pkg/contracts/src/CVStrategy/facets/CVStreamingFundingFacet.sol:CVStreamingFundingFacet","label":"metadata","offset":0,"slot":"10","type":"t_struct(Metadata)3080_storage"},{"astId":88111,"contract":"pkg/contracts/src/CVStrategy/facets/CVStreamingFundingFacet.sol:CVStreamingFundingFacet","label":"disputeInfo","offset":0,"slot":"12","type":"t_struct(ProposalDisputeInfo)88082_storage"},{"astId":88113,"contract":"pkg/contracts/src/CVStrategy/facets/CVStreamingFundingFacet.sol:CVStreamingFundingFacet","label":"lastDisputeCompletion","offset":0,"slot":"15","type":"t_uint256"},{"astId":88115,"contract":"pkg/contracts/src/CVStrategy/facets/CVStreamingFundingFacet.sol:CVStreamingFundingFacet","label":"arbitrableConfigVersion","offset":0,"slot":"16","type":"t_uint256"}]},"t_struct(ProposalDisputeInfo)88082_storage":{"encoding":"inplace","label":"struct ProposalDisputeInfo","numberOfBytes":"96","members":[{"astId":88077,"contract":"pkg/contracts/src/CVStrategy/facets/CVStreamingFundingFacet.sol:CVStreamingFundingFacet","label":"disputeId","offset":0,"slot":"0","type":"t_uint256"},{"astId":88079,"contract":"pkg/contracts/src/CVStrategy/facets/CVStreamingFundingFacet.sol:CVStreamingFundingFacet","label":"disputeTimestamp","offset":0,"slot":"1","type":"t_uint256"},{"astId":88081,"contract":"pkg/contracts/src/CVStrategy/facets/CVStreamingFundingFacet.sol:CVStreamingFundingFacet","label":"challenger","offset":0,"slot":"2","type":"t_address"}]},"t_struct(StreamState)87185_storage":{"encoding":"inplace","label":"struct CVStrategyBaseFacet.StreamState","numberOfBytes":"128","members":[{"astId":87176,"contract":"pkg/contracts/src/CVStrategy/facets/CVStreamingFundingFacet.sol:CVStreamingFundingFacet","label":"isActive","offset":0,"slot":"0","type":"t_bool"},{"astId":87178,"contract":"pkg/contracts/src/CVStrategy/facets/CVStreamingFundingFacet.sol:CVStreamingFundingFacet","label":"flowUnits","offset":1,"slot":"0","type":"t_uint128"},{"astId":87180,"contract":"pkg/contracts/src/CVStrategy/facets/CVStreamingFundingFacet.sol:CVStreamingFundingFacet","label":"lastUpdateBlock","offset":0,"slot":"1","type":"t_uint256"},{"astId":87182,"contract":"pkg/contracts/src/CVStrategy/facets/CVStreamingFundingFacet.sol:CVStreamingFundingFacet","label":"lastEvalBlock","offset":0,"slot":"2","type":"t_uint256"},{"astId":87184,"contract":"pkg/contracts/src/CVStrategy/facets/CVStreamingFundingFacet.sol:CVStreamingFundingFacet","label":"beneficiary","offset":0,"slot":"3","type":"t_address"}]},"t_uint128":{"encoding":"inplace","label":"uint128","numberOfBytes":"16"},"t_uint256":{"encoding":"inplace","label":"uint256","numberOfBytes":"32"},"t_uint64":{"encoding":"inplace","label":"uint64","numberOfBytes":"8"},"t_uint8":{"encoding":"inplace","label":"uint8","numberOfBytes":"1"}}},"id":159}