{"abi":[{"type":"function","name":"DISPUTE_COOLDOWN_SEC","inputs":[],"outputs":[{"name":"","type":"uint256","internalType":"uint256"}],"stateMutability":"view"},{"type":"function","name":"ONE_HOUR","inputs":[],"outputs":[{"name":"","type":"uint256","internalType":"uint256"}],"stateMutability":"view"},{"type":"function","name":"RULING_OPTIONS","inputs":[],"outputs":[{"name":"","type":"uint256","internalType":"uint256"}],"stateMutability":"view"},{"type":"function","name":"arbitrableConfigs","inputs":[{"name":"","type":"uint256","internalType":"uint256"}],"outputs":[{"name":"arbitrator","type":"address","internalType":"contract IArbitrator"},{"name":"tribunalSafe","type":"address","internalType":"address"},{"name":"submitterCollateralAmount","type":"uint256","internalType":"uint256"},{"name":"challengerCollateralAmount","type":"uint256","internalType":"uint256"},{"name":"defaultRuling","type":"uint256","internalType":"uint256"},{"name":"defaultRulingTimeout","type":"uint256","internalType":"uint256"}],"stateMutability":"view"},{"type":"function","name":"cancelProposal","inputs":[{"name":"proposalId","type":"uint256","internalType":"uint256"}],"outputs":[],"stateMutability":"nonpayable"},{"type":"function","name":"cloneNonce","inputs":[],"outputs":[{"name":"","type":"uint256","internalType":"uint256"}],"stateMutability":"view"},{"type":"function","name":"collateralVault","inputs":[],"outputs":[{"name":"","type":"address","internalType":"contract ICollateralVault"}],"stateMutability":"view"},{"type":"function","name":"currentArbitrableConfigVersion","inputs":[],"outputs":[{"name":"","type":"uint256","internalType":"uint256"}],"stateMutability":"view"},{"type":"function","name":"cvParams","inputs":[],"outputs":[{"name":"maxRatio","type":"uint256","internalType":"uint256"},{"name":"weight","type":"uint256","internalType":"uint256"},{"name":"decay","type":"uint256","internalType":"uint256"},{"name":"minThresholdPoints","type":"uint256","internalType":"uint256"}],"stateMutability":"view"},{"type":"function","name":"disputeCount","inputs":[],"outputs":[{"name":"","type":"uint64","internalType":"uint64"}],"stateMutability":"view"},{"type":"function","name":"disputeIdToProposalId","inputs":[{"name":"","type":"uint256","internalType":"uint256"}],"outputs":[{"name":"","type":"uint256","internalType":"uint256"}],"stateMutability":"view"},{"type":"function","name":"editProposal","inputs":[{"name":"_proposalId","type":"uint256","internalType":"uint256"},{"name":"_metadata","type":"tuple","internalType":"struct Metadata","components":[{"name":"protocol","type":"uint256","internalType":"uint256"},{"name":"pointer","type":"string","internalType":"string"}]},{"name":"_beneficiary","type":"address","internalType":"address"},{"name":"_requestedAmount","type":"uint256","internalType":"uint256"}],"outputs":[],"stateMutability":"nonpayable"},{"type":"function","name":"pointConfig","inputs":[],"outputs":[{"name":"maxAmount","type":"uint256","internalType":"uint256"}],"stateMutability":"view"},{"type":"function","name":"pointSystem","inputs":[],"outputs":[{"name":"","type":"uint8","internalType":"enum PointSystem"}],"stateMutability":"view"},{"type":"function","name":"proposalCounter","inputs":[],"outputs":[{"name":"","type":"uint256","internalType":"uint256"}],"stateMutability":"view"},{"type":"function","name":"proposalType","inputs":[],"outputs":[{"name":"","type":"uint8","internalType":"enum ProposalType"}],"stateMutability":"view"},{"type":"function","name":"proposals","inputs":[{"name":"","type":"uint256","internalType":"uint256"}],"outputs":[{"name":"proposalId","type":"uint256","internalType":"uint256"},{"name":"requestedAmount","type":"uint256","internalType":"uint256"},{"name":"stakedAmount","type":"uint256","internalType":"uint256"},{"name":"convictionLast","type":"uint256","internalType":"uint256"},{"name":"beneficiary","type":"address","internalType":"address"},{"name":"submitter","type":"address","internalType":"address"},{"name":"requestedToken","type":"address","internalType":"address"},{"name":"blockLast","type":"uint256","internalType":"uint256"},{"name":"proposalStatus","type":"uint8","internalType":"enum ProposalStatus"},{"name":"metadata","type":"tuple","internalType":"struct Metadata","components":[{"name":"protocol","type":"uint256","internalType":"uint256"},{"name":"pointer","type":"string","internalType":"string"}]},{"name":"disputeInfo","type":"tuple","internalType":"struct ProposalDisputeInfo","components":[{"name":"disputeId","type":"uint256","internalType":"uint256"},{"name":"disputeTimestamp","type":"uint256","internalType":"uint256"},{"name":"challenger","type":"address","internalType":"address"}]},{"name":"lastDisputeCompletion","type":"uint256","internalType":"uint256"},{"name":"arbitrableConfigVersion","type":"uint256","internalType":"uint256"},{"name":"creationTimestamp","type":"uint256","internalType":"uint256"}],"stateMutability":"view"},{"type":"function","name":"registerRecipient","inputs":[{"name":"_data","type":"bytes","internalType":"bytes"},{"name":"_sender","type":"address","internalType":"address"}],"outputs":[{"name":"","type":"address","internalType":"address"}],"stateMutability":"payable"},{"type":"function","name":"registryCommunity","inputs":[],"outputs":[{"name":"","type":"address","internalType":"contract RegistryCommunity"}],"stateMutability":"view"},{"type":"function","name":"superfluidToken","inputs":[],"outputs":[{"name":"","type":"address","internalType":"contract ISuperToken"}],"stateMutability":"view"},{"type":"function","name":"sybilScorer","inputs":[],"outputs":[{"name":"","type":"address","internalType":"contract ISybilScorer"}],"stateMutability":"view"},{"type":"function","name":"totalPointsActivated","inputs":[],"outputs":[{"name":"","type":"uint256","internalType":"uint256"}],"stateMutability":"view"},{"type":"function","name":"totalStaked","inputs":[],"outputs":[{"name":"","type":"uint256","internalType":"uint256"}],"stateMutability":"view"},{"type":"function","name":"totalVoterStakePct","inputs":[{"name":"","type":"address","internalType":"address"}],"outputs":[{"name":"","type":"uint256","internalType":"uint256"}],"stateMutability":"view"},{"type":"function","name":"voterStakedProposals","inputs":[{"name":"","type":"address","internalType":"address"},{"name":"","type":"uint256","internalType":"uint256"}],"outputs":[{"name":"","type":"uint256","internalType":"uint256"}],"stateMutability":"view"},{"type":"event","name":"ProposalCancelled","inputs":[{"name":"proposalId","type":"uint256","indexed":false,"internalType":"uint256"}],"anonymous":false},{"type":"event","name":"ProposalCreated","inputs":[{"name":"poolId","type":"uint256","indexed":false,"internalType":"uint256"},{"name":"proposalId","type":"uint256","indexed":false,"internalType":"uint256"}],"anonymous":false},{"type":"event","name":"ProposalEdited","inputs":[{"name":"proposalId","type":"uint256","indexed":false,"internalType":"uint256"},{"name":"metadata","type":"tuple","indexed":false,"internalType":"struct Metadata","components":[{"name":"protocol","type":"uint256","internalType":"uint256"},{"name":"pointer","type":"string","internalType":"string"}]},{"name":"beneficiary","type":"address","indexed":false,"internalType":"address"},{"name":"requestedAmount","type":"uint256","indexed":false,"internalType":"uint256"}],"anonymous":false},{"type":"event","name":"SupportAdded","inputs":[{"name":"from","type":"address","indexed":false,"internalType":"address"},{"name":"proposalId","type":"uint256","indexed":false,"internalType":"uint256"},{"name":"amount","type":"uint256","indexed":false,"internalType":"uint256"},{"name":"totalStakedAmount","type":"uint256","indexed":false,"internalType":"uint256"},{"name":"convictionLast","type":"uint256","indexed":false,"internalType":"uint256"}],"anonymous":false},{"type":"error","name":"ArbitratorNotSet","inputs":[]},{"type":"error","name":"BeneficiaryEditTimeout","inputs":[{"name":"proposalId","type":"uint256","internalType":"uint256"},{"name":"currentBeneficiary","type":"address","internalType":"address"},{"name":"newBeneficiary","type":"address","internalType":"address"},{"name":"creationTimestamp","type":"uint256","internalType":"uint256"}]},{"type":"error","name":"CannotEditRequestedAmountWithActiveSupport","inputs":[{"name":"proposalId","type":"uint256","internalType":"uint256"},{"name":"currentAmount","type":"uint256","internalType":"uint256"},{"name":"newAmount","type":"uint256","internalType":"uint256"}]},{"type":"error","name":"InsufficientCollateral","inputs":[{"name":"sent","type":"uint256","internalType":"uint256"},{"name":"required","type":"uint256","internalType":"uint256"}]},{"type":"error","name":"MetadataEditTimeout","inputs":[{"name":"proposalId","type":"uint256","internalType":"uint256"},{"name":"currentMetadata","type":"string","internalType":"string"},{"name":"newMetadata","type":"string","internalType":"string"},{"name":"creationTimestamp","type":"uint256","internalType":"uint256"}]},{"type":"error","name":"OnlyActiveProposal","inputs":[{"name":"proposalId","type":"uint256","internalType":"uint256"}]},{"type":"error","name":"OnlyAllo","inputs":[{"name":"sender","type":"address","internalType":"address"},{"name":"allo","type":"address","internalType":"address"}]},{"type":"error","name":"OnlyCouncilSafe","inputs":[{"name":"sender","type":"address","internalType":"address"},{"name":"councilSafe","type":"address","internalType":"address"},{"name":"owner","type":"address","internalType":"address"}]},{"type":"error","name":"OnlyCouncilSafeOrMember","inputs":[{"name":"sender","type":"address","internalType":"address"},{"name":"councilSafe","type":"address","internalType":"address"}]},{"type":"error","name":"OnlyInitialized","inputs":[{"name":"poolId","type":"uint256","internalType":"uint256"}]},{"type":"error","name":"OnlyMember","inputs":[{"name":"wallet","type":"address","internalType":"address"},{"name":"community","type":"address","internalType":"address"}]},{"type":"error","name":"OnlyRegistryCommunity","inputs":[{"name":"sender","type":"address","internalType":"address"},{"name":"registry","type":"address","internalType":"address"}]},{"type":"error","name":"OnlySubmitter","inputs":[{"name":"proposalId","type":"uint256","internalType":"uint256"},{"name":"submitter","type":"address","internalType":"address"},{"name":"sender","type":"address","internalType":"address"}]},{"type":"error","name":"ProposalDoesNotExist","inputs":[{"name":"proposalID","type":"uint256","internalType":"uint256"}]},{"type":"error","name":"ProposalNotActive","inputs":[{"name":"proposalId","type":"uint256","internalType":"uint256"},{"name":"currentStatus","type":"uint8","internalType":"uint8"}]},{"type":"error","name":"UnexpectedRequestToken","inputs":[{"name":"requestedToken","type":"address","internalType":"address"},{"name":"poolToken","type":"address","internalType":"address"}]}],"bytecode":{"object":"0x608060405234801561001057600080fd5b506118b1806100206000396000f3fe6080604052600436106101265760003560e01c8063013cf08b1461012b57806305caa7f31461016e5780630bece79c1461019b5780630c0512e9146101bb578063125fd1d9146101df578063141e3b38146101f5578063165035e2146102175780632506b8701461022d578063255ffb38146102705780632bbe0cae1461029d5780632dbd6fdd146102b057806333960459146102dc578063351d9f96146102f257806341bb7605146103195780635db64b99146103ae5780636003e414146103db578063626c47e8146103fb578063817b1cd214610410578063868c57b814610426578063a28889e114610446578063a47ff7e51461047e578063aba9ffee14610495578063b6c61f31146104ab578063e0a8f6f5146104cb578063f5be3f7c146104eb575b600080fd5b34801561013757600080fd5b5061014b610146366004610fa5565b610501565b6040516101659e9d9c9b9a9998979695949392919061105f565b60405180910390f35b34801561017a57600080fd5b5060805461018e906001600160a01b031681565b6040516101659190611113565b3480156101a757600080fd5b5060795461018e906001600160a01b031681565b3480156101c757600080fd5b506101d1606e5481565b604051908152602001610165565b3480156101eb57600080fd5b506101d1606f5481565b34801561020157600080fd5b50610215610210366004611263565b610654565b005b34801561022357600080fd5b506101d1610e1081565b34801561023957600080fd5b506072546073546074546075546102509392919084565b604080519485526020850193909352918301526060820152608001610165565b34801561027c57600080fd5b506101d161028b366004610fa5565b607e6020526000908152604090205481565b61018e6102ab366004611313565b610922565b3480156102bc57600080fd5b506076546102cf90610100900460ff1681565b6040516101659190611378565b3480156102e857600080fd5b506101d1606c5481565b3480156102fe57600080fd5b5060765461030c9060ff1681565b6040516101659190611392565b34801561032557600080fd5b50610376610334366004610fa5565b607f602052600090815260409020805460018201546002830154600384015460048501546005909501546001600160a01b039485169593909416939192909186565b604080516001600160a01b039788168152969095166020870152938501929092526060840152608083015260a082015260c001610165565b3480156103ba57600080fd5b506101d16103c93660046113a6565b607c6020526000908152604090205481565b3480156103e757600080fd5b5060785461018e906001600160a01b031681565b34801561040757600080fd5b506101d1600381565b34801561041c57600080fd5b506101d160705481565b34801561043257600080fd5b506101d16104413660046113ca565b610cb6565b34801561045257600080fd5b50606d54610466906001600160401b031681565b6040516001600160401b039091168152602001610165565b34801561048a57600080fd5b506077546101d19081565b3480156104a157600080fd5b506101d160715481565b3480156104b757600080fd5b50607a5461018e906001600160a01b031681565b3480156104d757600080fd5b506102156104e6366004610fa5565b610ce7565b3480156104f757600080fd5b506101d1611c2081565b607b602090815260009182526040918290208054600182015460028301546003840154600485015460058601546006870154600788015460088901548b51808d01909c52600a8a0180548d52600b8b0180549a9d999c989b979a6001600160a01b039788169a968816999790951697939660ff9093169593949192840191610588906113f6565b80601f01602080910402602001604051908101604052809291908181526020018280546105b4906113f6565b80156106015780601f106105d657610100808354040283529160200191610601565b820191906000526020600020905b8154815290600101906020018083116105e457829003601f168201915b50505091909252505060408051606081018252600c8501548152600d8501546020820152600e8501546001600160a01b031691810191909152600f8401546010850154601190950154939491939092508e565b6000848152607b602052604090206001600882015460ff16600681111561067d5761067d610fbe565b146106c7576008810154859060ff16600681111561069d5761069d610fbe565b60405163052d1a7b60e21b8152600481019290925260ff1660248201526044015b60405180910390fd5b60058101546001600160a01b0316331461070957600581015460405163d46ad8a960e01b81526106be9187916001600160a01b03909116903390600401611430565b818160010154146107565760038101541561074e57600181015460405163b501861760e01b8152600481018790526024810191909152604481018390526064016106be565b600181018290555b6000610e1082601101544261076b9190611465565b6004840154911091506001600160a01b038581169116146107ed5780156107cf57600482810154601184015460405163d209029d60e01b81529283018990526001600160a01b039182166024840152908616604483015260648201526084016106be565b6004820180546001600160a01b0319166001600160a01b0386161790555b610893856020015183600a016001018054610807906113f6565b80601f0160208091040260200160405190810160405280929190818152602001828054610833906113f6565b80156108805780601f1061085557610100808354040283529160200191610880565b820191906000526020600020905b81548152906001019060200180831161086357829003601f168201915b5050505050610e8490919063ffffffff16565b6108dd5780156108c75760208501516011830154604051637195b4df60e01b81526106be928992600b870192600401611478565b6020850151600b8301906108db9082611575565b505b7f9609630cea289ffd759de85c8dc9196b11897c540de741d67239c33751860abe868686866040516109129493929190611634565b60405180910390a1505050505050565b600061092c610e9a565b610934610ed8565b61093d82610f01565b60785460405163208a40f360e11b81526001600160a01b039091169063411481e69061096d903090600401611113565b60006040518083038186803b15801561098557600080fd5b505afa158015610999573d6000803e3d6000fd5b505050506000838060200190518101906109b391906116f6565b9050600160765460ff1660028111156109ce576109ce610fbe565b03610a9857606554815160405163068bcd8d60e01b81526001600160a01b0390921691600091839163068bcd8d91610a0c9160040190815260200190565b600060405180830381865afa158015610a29573d6000803e3d6000fd5b505050506040513d6000823e601f3d908101601f19168201604052610a51919081019061179c565b604001519050806001600160a01b031683606001516001600160a01b031614610a95578260600151816040516304976e1760e31b81526004016106be92919061184f565b50505b606f546000908152607f60205260409020546001600160a01b0316610ad0576040516303674f9160e41b815260040160405180910390fd5b606f546000908152607f6020526040902060020154341015610b2557606f546000908152607f602052604090819020600201549051632c1f8ef160e21b815234600482015260248101919091526044016106be565b6000606e60008154610b3690611869565b91829055506000818152607b602090815260408083208481556005810180546001600160a01b038b81166001600160a01b0319928316179092558885015160048401805491841691831691909117905560608901516006840180549190931691161790559086015160018083019190915560088201805460ff19169091179055436007820155426011820155600381019290925560808501518051600a8401908155918101519394509192600b840190610bf09082611575565b5050606f54601083015550607954600582015460405163240ff7c560e11b8152600481018590526001600160a01b03918216602482015291169063481fef8a9034906044016000604051808303818588803b158015610c4e57600080fd5b505af1158015610c62573d6000803e3d6000fd5b50505050507ffcf3b1aa65a464cef2889608f99e8b8c0f680a4be6c2acb9d961c536a5a9294b60685483604051610ca3929190918252602082015260400190565b60405180910390a1509150505b92915050565b607d6020528160005260406000208181548110610cd257600080fd5b90600052602060002001600091509150505481565b60016000828152607b602052604090206008015460ff166006811115610d0f57610d0f610fbe565b14610d3c576000818152607b6020526040902060080154819060ff16600681111561069d5761069d610fbe565b6000818152607b60205260409020600501546001600160a01b03163314610d99576000818152607b60205260409081902060050154905163d46ad8a960e01b81526106be9183916001600160a01b03909116903390600401611430565b6079546000828152607b6020908152604080832060058101546010909101548452607f9092529182902060020154915163099ea56b60e41b8152600481018590526001600160a01b0391821660248201526044810192909252909116906399ea56b090606401600060405180830381600087803b158015610e1957600080fd5b505af1158015610e2d573d6000803e3d6000fd5b5050506000828152607b6020908152604091829020600801805460ff1916600317905590518381527f416e669c63d9a3a5e36ee7cc7e2104b8db28ccd286aa18966e98fa230c73b08c92500160405180910390a150565b8051602091820120825192909101919091201490565b6065546001600160a01b03163314610ed657606554604051636ca3252960e01b81526106be9133916001600160a01b039091169060040161184f565b565b606854600003610ed65760685460405163243d58fb60e21b81526004016106be91815260200190565b60785460405163288c314960e21b81526001600160a01b039091169063a230c52490610f31908490600401611113565b6020604051808303816000875af1158015610f50573d6000803e3d6000fd5b505050506040513d601f19601f82011682018060405250810190610f749190611882565b610fa257607854604051636332657560e11b81526106be9183916001600160a01b039091169060040161184f565b50565b600060208284031215610fb757600080fd5b5035919050565b634e487b7160e01b600052602160045260246000fd5b60078110610fe457610fe4610fbe565b9052565b60005b83811015611003578181015183820152602001610feb565b50506000910152565b60008151808452611024816020860160208601610fe8565b601f01601f19169290920160200192915050565b805182526000602082015160406020850152611057604085018261100c565b949350505050565b8e8152602081018e9052604081018d9052606081018c90526001600160a01b038b811660808301528a811660a0830152891660c082015260008860e08301526110ac610100830189610fd4565b6102006101208301526110c3610200830188611038565b865161014084015260208701516101608401526040909601516001600160a01b0316610180830152506101a08101939093526101c08301919091526101e0909101529a9950505050505050505050565b6001600160a01b0391909116815260200190565b634e487b7160e01b600052604160045260246000fd5b604080519081016001600160401b038111828210171561115f5761115f611127565b60405290565b60405160a081016001600160401b038111828210171561115f5761115f611127565b60405160c081016001600160401b038111828210171561115f5761115f611127565b604051601f8201601f191681016001600160401b03811182821017156111d1576111d1611127565b604052919050565b60006001600160401b038211156111f2576111f2611127565b50601f01601f191660200190565b600061121361120e846111d9565b6111a9565b905082815283838301111561122757600080fd5b828260208301376000602084830101529392505050565b6001600160a01b0381168114610fa257600080fd5b803561125e8161123e565b919050565b6000806000806080858703121561127957600080fd5b8435935060208501356001600160401b038082111561129757600080fd5b90860190604082890312156112ab57600080fd5b6112b361113d565b823581526020830135828111156112c957600080fd5b80840193505088601f8401126112de57600080fd5b6112ed89843560208601611200565b6020820152945061130391505060408601611253565b9396929550929360600135925050565b6000806040838503121561132657600080fd5b82356001600160401b0381111561133c57600080fd5b8301601f8101851361134d57600080fd5b61135c85823560208401611200565b925050602083013561136d8161123e565b809150509250929050565b602081016004831061138c5761138c610fbe565b91905290565b602081016003831061138c5761138c610fbe565b6000602082840312156113b857600080fd5b81356113c38161123e565b9392505050565b600080604083850312156113dd57600080fd5b82356113e88161123e565b946020939093013593505050565b600181811c9082168061140a57607f821691505b60208210810361142a57634e487b7160e01b600052602260045260246000fd5b50919050565b9283526001600160a01b03918216602084015216604082015260600190565b634e487b7160e01b600052601160045260246000fd5b81810381811115610cb057610cb061144f565b8481526000602060808184015260008654611492816113f6565b80608087015260a06001808416600081146114b457600181146114ce576114fc565b60ff1985168984015283151560051b8901830195506114fc565b8b6000528660002060005b858110156114f45781548b82018601529083019088016114d9565b8a0184019650505b50505050508381036040850152611513818761100c565b9250505082606083015295945050505050565b601f82111561157057600081815260208120601f850160051c8101602086101561154d5750805b601f850160051c820191505b8181101561156c57828155600101611559565b5050505b505050565b81516001600160401b0381111561158e5761158e611127565b6115a28161159c84546113f6565b84611526565b602080601f8311600181146115d757600084156115bf5750858301515b600019600386901b1c1916600185901b17855561156c565b600085815260208120601f198616915b82811015611606578886015182559484019460019091019084016115e7565b50858210156116245787850151600019600388901b60f8161c191681555b5050505050600190811b01905550565b84815260806020820152600061164d6080830186611038565b6001600160a01b03949094166040830152506060015292915050565b60006040828403121561167b57600080fd5b61168361113d565b8251815260208301519091506001600160401b038111156116a357600080fd5b8201601f810184136116b457600080fd5b80516116c261120e826111d9565b8181528560208385010111156116d757600080fd5b6116e8826020830160208601610fe8565b602084015250909392505050565b60006020828403121561170857600080fd5b81516001600160401b038082111561171f57600080fd5b9083019060a0828603121561173357600080fd5b61173b611165565b82518152602083015161174d8161123e565b602082015260408381015190820152606083015161176a8161123e565b606082015260808301518281111561178157600080fd5b61178d87828601611669565b60808301525095945050505050565b6000602082840312156117ae57600080fd5b81516001600160401b03808211156117c557600080fd5b9083019060c082860312156117d957600080fd5b6117e1611187565b8251815260208301516117f38161123e565b602082015260408301516118068161123e565b604082015260608301518281111561181d57600080fd5b61182987828601611669565b6060830152506080830151608082015260a083015160a082015280935050505092915050565b6001600160a01b0392831681529116602082015260400190565b60006001820161187b5761187b61144f565b5060010190565b60006020828403121561189457600080fd5b815180151581146113c357600080fdfea164736f6c6343000813000a","linkReferences":{}},"methodIdentifiers":{"DISPUTE_COOLDOWN_SEC()":"f5be3f7c","ONE_HOUR()":"165035e2","RULING_OPTIONS()":"626c47e8","arbitrableConfigs(uint256)":"41bb7605","cancelProposal(uint256)":"e0a8f6f5","cloneNonce()":"33960459","collateralVault()":"0bece79c","currentArbitrableConfigVersion()":"125fd1d9","cvParams()":"2506b870","disputeCount()":"a28889e1","disputeIdToProposalId(uint256)":"255ffb38","editProposal(uint256,(uint256,string),address,uint256)":"141e3b38","pointConfig()":"a47ff7e5","pointSystem()":"2dbd6fdd","proposalCounter()":"0c0512e9","proposalType()":"351d9f96","proposals(uint256)":"013cf08b","registerRecipient(bytes,address)":"2bbe0cae","registryCommunity()":"6003e414","superfluidToken()":"05caa7f3","sybilScorer()":"b6c61f31","totalPointsActivated()":"aba9ffee","totalStaked()":"817b1cd2","totalVoterStakePct(address)":"5db64b99","voterStakedProposals(address,uint256)":"868c57b8"},"storageLayout":{"storage":[{"astId":84156,"contract":"pkg/contracts/src/CVStrategy/facets/CVProposalFacet.sol:CVProposalFacet","label":"_initialized","offset":0,"slot":"0","type":"t_uint8"},{"astId":84158,"contract":"pkg/contracts/src/CVStrategy/facets/CVProposalFacet.sol:CVProposalFacet","label":"_initializing","offset":1,"slot":"0","type":"t_bool"},{"astId":84162,"contract":"pkg/contracts/src/CVStrategy/facets/CVProposalFacet.sol:CVProposalFacet","label":"__gap_init","offset":0,"slot":"1","type":"t_array(t_uint256)50_storage"},{"astId":84165,"contract":"pkg/contracts/src/CVStrategy/facets/CVProposalFacet.sol:CVProposalFacet","label":"_owner","offset":0,"slot":"51","type":"t_address"},{"astId":84169,"contract":"pkg/contracts/src/CVStrategy/facets/CVProposalFacet.sol:CVProposalFacet","label":"__gap_ownable","offset":0,"slot":"52","type":"t_array(t_uint256)49_storage"},{"astId":84173,"contract":"pkg/contracts/src/CVStrategy/facets/CVProposalFacet.sol:CVProposalFacet","label":"allo","offset":0,"slot":"101","type":"t_contract(IAllo)2629"},{"astId":84175,"contract":"pkg/contracts/src/CVStrategy/facets/CVProposalFacet.sol:CVProposalFacet","label":"strategyId","offset":0,"slot":"102","type":"t_bytes32"},{"astId":84177,"contract":"pkg/contracts/src/CVStrategy/facets/CVProposalFacet.sol:CVProposalFacet","label":"poolActive","offset":0,"slot":"103","type":"t_bool"},{"astId":84179,"contract":"pkg/contracts/src/CVStrategy/facets/CVProposalFacet.sol:CVProposalFacet","label":"poolId","offset":0,"slot":"104","type":"t_uint256"},{"astId":84181,"contract":"pkg/contracts/src/CVStrategy/facets/CVProposalFacet.sol:CVProposalFacet","label":"poolAmount","offset":0,"slot":"105","type":"t_uint256"},{"astId":84184,"contract":"pkg/contracts/src/CVStrategy/facets/CVProposalFacet.sol:CVProposalFacet","label":"collateralVaultTemplate","offset":0,"slot":"106","type":"t_address"},{"astId":84187,"contract":"pkg/contracts/src/CVStrategy/facets/CVProposalFacet.sol:CVProposalFacet","label":"surpressStateMutabilityWarning","offset":0,"slot":"107","type":"t_uint256"},{"astId":84190,"contract":"pkg/contracts/src/CVStrategy/facets/CVProposalFacet.sol:CVProposalFacet","label":"cloneNonce","offset":0,"slot":"108","type":"t_uint256"},{"astId":84193,"contract":"pkg/contracts/src/CVStrategy/facets/CVProposalFacet.sol:CVProposalFacet","label":"disputeCount","offset":0,"slot":"109","type":"t_uint64"},{"astId":84196,"contract":"pkg/contracts/src/CVStrategy/facets/CVProposalFacet.sol:CVProposalFacet","label":"proposalCounter","offset":0,"slot":"110","type":"t_uint256"},{"astId":84199,"contract":"pkg/contracts/src/CVStrategy/facets/CVProposalFacet.sol:CVProposalFacet","label":"currentArbitrableConfigVersion","offset":0,"slot":"111","type":"t_uint256"},{"astId":84202,"contract":"pkg/contracts/src/CVStrategy/facets/CVProposalFacet.sol:CVProposalFacet","label":"totalStaked","offset":0,"slot":"112","type":"t_uint256"},{"astId":84205,"contract":"pkg/contracts/src/CVStrategy/facets/CVProposalFacet.sol:CVProposalFacet","label":"totalPointsActivated","offset":0,"slot":"113","type":"t_uint256"},{"astId":84209,"contract":"pkg/contracts/src/CVStrategy/facets/CVProposalFacet.sol:CVProposalFacet","label":"cvParams","offset":0,"slot":"114","type":"t_struct(CVParams)85178_storage"},{"astId":84213,"contract":"pkg/contracts/src/CVStrategy/facets/CVProposalFacet.sol:CVProposalFacet","label":"proposalType","offset":0,"slot":"118","type":"t_enum(ProposalType)85079"},{"astId":84217,"contract":"pkg/contracts/src/CVStrategy/facets/CVProposalFacet.sol:CVProposalFacet","label":"pointSystem","offset":1,"slot":"118","type":"t_enum(PointSystem)85084"},{"astId":84221,"contract":"pkg/contracts/src/CVStrategy/facets/CVProposalFacet.sol:CVProposalFacet","label":"pointConfig","offset":0,"slot":"119","type":"t_struct(PointSystemConfig)85155_storage"},{"astId":84225,"contract":"pkg/contracts/src/CVStrategy/facets/CVProposalFacet.sol:CVProposalFacet","label":"registryCommunity","offset":0,"slot":"120","type":"t_contract(RegistryCommunity)91815"},{"astId":84229,"contract":"pkg/contracts/src/CVStrategy/facets/CVProposalFacet.sol:CVProposalFacet","label":"collateralVault","offset":0,"slot":"121","type":"t_contract(ICollateralVault)97101"},{"astId":84233,"contract":"pkg/contracts/src/CVStrategy/facets/CVProposalFacet.sol:CVProposalFacet","label":"sybilScorer","offset":0,"slot":"122","type":"t_contract(ISybilScorer)89827"},{"astId":84239,"contract":"pkg/contracts/src/CVStrategy/facets/CVProposalFacet.sol:CVProposalFacet","label":"proposals","offset":0,"slot":"123","type":"t_mapping(t_uint256,t_struct(Proposal)85147_storage)"},{"astId":84244,"contract":"pkg/contracts/src/CVStrategy/facets/CVProposalFacet.sol:CVProposalFacet","label":"totalVoterStakePct","offset":0,"slot":"124","type":"t_mapping(t_address,t_uint256)"},{"astId":84250,"contract":"pkg/contracts/src/CVStrategy/facets/CVProposalFacet.sol:CVProposalFacet","label":"voterStakedProposals","offset":0,"slot":"125","type":"t_mapping(t_address,t_array(t_uint256)dyn_storage)"},{"astId":84255,"contract":"pkg/contracts/src/CVStrategy/facets/CVProposalFacet.sol:CVProposalFacet","label":"disputeIdToProposalId","offset":0,"slot":"126","type":"t_mapping(t_uint256,t_uint256)"},{"astId":84261,"contract":"pkg/contracts/src/CVStrategy/facets/CVProposalFacet.sol:CVProposalFacet","label":"arbitrableConfigs","offset":0,"slot":"127","type":"t_mapping(t_uint256,t_struct(ArbitrableConfig)85169_storage)"},{"astId":84265,"contract":"pkg/contracts/src/CVStrategy/facets/CVProposalFacet.sol:CVProposalFacet","label":"superfluidToken","offset":0,"slot":"128","type":"t_contract(ISuperToken)71759"},{"astId":84270,"contract":"pkg/contracts/src/CVStrategy/facets/CVProposalFacet.sol:CVProposalFacet","label":"__gap","offset":0,"slot":"129","type":"t_array(t_uint256)49_storage"}],"types":{"t_address":{"encoding":"inplace","label":"address","numberOfBytes":"20"},"t_array(t_uint256)49_storage":{"encoding":"inplace","label":"uint256[49]","numberOfBytes":"1568","base":"t_uint256"},"t_array(t_uint256)50_storage":{"encoding":"inplace","label":"uint256[50]","numberOfBytes":"1600","base":"t_uint256"},"t_array(t_uint256)dyn_storage":{"encoding":"dynamic_array","label":"uint256[]","numberOfBytes":"32","base":"t_uint256"},"t_bool":{"encoding":"inplace","label":"bool","numberOfBytes":"1"},"t_bytes32":{"encoding":"inplace","label":"bytes32","numberOfBytes":"32"},"t_contract(IAllo)2629":{"encoding":"inplace","label":"contract IAllo","numberOfBytes":"20"},"t_contract(IArbitrator)97068":{"encoding":"inplace","label":"contract IArbitrator","numberOfBytes":"20"},"t_contract(ICollateralVault)97101":{"encoding":"inplace","label":"contract ICollateralVault","numberOfBytes":"20"},"t_contract(ISuperToken)71759":{"encoding":"inplace","label":"contract ISuperToken","numberOfBytes":"20"},"t_contract(ISybilScorer)89827":{"encoding":"inplace","label":"contract ISybilScorer","numberOfBytes":"20"},"t_contract(RegistryCommunity)91815":{"encoding":"inplace","label":"contract RegistryCommunity","numberOfBytes":"20"},"t_enum(PointSystem)85084":{"encoding":"inplace","label":"enum PointSystem","numberOfBytes":"1"},"t_enum(ProposalStatus)85104":{"encoding":"inplace","label":"enum ProposalStatus","numberOfBytes":"1"},"t_enum(ProposalType)85079":{"encoding":"inplace","label":"enum ProposalType","numberOfBytes":"1"},"t_mapping(t_address,t_array(t_uint256)dyn_storage)":{"encoding":"mapping","key":"t_address","label":"mapping(address => uint256[])","numberOfBytes":"32","value":"t_array(t_uint256)dyn_storage"},"t_mapping(t_address,t_uint256)":{"encoding":"mapping","key":"t_address","label":"mapping(address => uint256)","numberOfBytes":"32","value":"t_uint256"},"t_mapping(t_uint256,t_struct(ArbitrableConfig)85169_storage)":{"encoding":"mapping","key":"t_uint256","label":"mapping(uint256 => struct ArbitrableConfig)","numberOfBytes":"32","value":"t_struct(ArbitrableConfig)85169_storage"},"t_mapping(t_uint256,t_struct(Proposal)85147_storage)":{"encoding":"mapping","key":"t_uint256","label":"mapping(uint256 => struct Proposal)","numberOfBytes":"32","value":"t_struct(Proposal)85147_storage"},"t_mapping(t_uint256,t_uint256)":{"encoding":"mapping","key":"t_uint256","label":"mapping(uint256 => uint256)","numberOfBytes":"32","value":"t_uint256"},"t_string_storage":{"encoding":"bytes","label":"string","numberOfBytes":"32"},"t_struct(ArbitrableConfig)85169_storage":{"encoding":"inplace","label":"struct ArbitrableConfig","numberOfBytes":"192","members":[{"astId":85158,"contract":"pkg/contracts/src/CVStrategy/facets/CVProposalFacet.sol:CVProposalFacet","label":"arbitrator","offset":0,"slot":"0","type":"t_contract(IArbitrator)97068"},{"astId":85160,"contract":"pkg/contracts/src/CVStrategy/facets/CVProposalFacet.sol:CVProposalFacet","label":"tribunalSafe","offset":0,"slot":"1","type":"t_address"},{"astId":85162,"contract":"pkg/contracts/src/CVStrategy/facets/CVProposalFacet.sol:CVProposalFacet","label":"submitterCollateralAmount","offset":0,"slot":"2","type":"t_uint256"},{"astId":85164,"contract":"pkg/contracts/src/CVStrategy/facets/CVProposalFacet.sol:CVProposalFacet","label":"challengerCollateralAmount","offset":0,"slot":"3","type":"t_uint256"},{"astId":85166,"contract":"pkg/contracts/src/CVStrategy/facets/CVProposalFacet.sol:CVProposalFacet","label":"defaultRuling","offset":0,"slot":"4","type":"t_uint256"},{"astId":85168,"contract":"pkg/contracts/src/CVStrategy/facets/CVProposalFacet.sol:CVProposalFacet","label":"defaultRulingTimeout","offset":0,"slot":"5","type":"t_uint256"}]},"t_struct(CVParams)85178_storage":{"encoding":"inplace","label":"struct CVParams","numberOfBytes":"128","members":[{"astId":85171,"contract":"pkg/contracts/src/CVStrategy/facets/CVProposalFacet.sol:CVProposalFacet","label":"maxRatio","offset":0,"slot":"0","type":"t_uint256"},{"astId":85173,"contract":"pkg/contracts/src/CVStrategy/facets/CVProposalFacet.sol:CVProposalFacet","label":"weight","offset":0,"slot":"1","type":"t_uint256"},{"astId":85175,"contract":"pkg/contracts/src/CVStrategy/facets/CVProposalFacet.sol:CVProposalFacet","label":"decay","offset":0,"slot":"2","type":"t_uint256"},{"astId":85177,"contract":"pkg/contracts/src/CVStrategy/facets/CVProposalFacet.sol:CVProposalFacet","label":"minThresholdPoints","offset":0,"slot":"3","type":"t_uint256"}]},"t_struct(Metadata)3080_storage":{"encoding":"inplace","label":"struct Metadata","numberOfBytes":"64","members":[{"astId":3076,"contract":"pkg/contracts/src/CVStrategy/facets/CVProposalFacet.sol:CVProposalFacet","label":"protocol","offset":0,"slot":"0","type":"t_uint256"},{"astId":3079,"contract":"pkg/contracts/src/CVStrategy/facets/CVProposalFacet.sol:CVProposalFacet","label":"pointer","offset":0,"slot":"1","type":"t_string_storage"}]},"t_struct(PointSystemConfig)85155_storage":{"encoding":"inplace","label":"struct PointSystemConfig","numberOfBytes":"32","members":[{"astId":85154,"contract":"pkg/contracts/src/CVStrategy/facets/CVProposalFacet.sol:CVProposalFacet","label":"maxAmount","offset":0,"slot":"0","type":"t_uint256"}]},"t_struct(Proposal)85147_storage":{"encoding":"inplace","label":"struct Proposal","numberOfBytes":"576","members":[{"astId":85113,"contract":"pkg/contracts/src/CVStrategy/facets/CVProposalFacet.sol:CVProposalFacet","label":"proposalId","offset":0,"slot":"0","type":"t_uint256"},{"astId":85115,"contract":"pkg/contracts/src/CVStrategy/facets/CVProposalFacet.sol:CVProposalFacet","label":"requestedAmount","offset":0,"slot":"1","type":"t_uint256"},{"astId":85117,"contract":"pkg/contracts/src/CVStrategy/facets/CVProposalFacet.sol:CVProposalFacet","label":"stakedAmount","offset":0,"slot":"2","type":"t_uint256"},{"astId":85119,"contract":"pkg/contracts/src/CVStrategy/facets/CVProposalFacet.sol:CVProposalFacet","label":"convictionLast","offset":0,"slot":"3","type":"t_uint256"},{"astId":85121,"contract":"pkg/contracts/src/CVStrategy/facets/CVProposalFacet.sol:CVProposalFacet","label":"beneficiary","offset":0,"slot":"4","type":"t_address"},{"astId":85123,"contract":"pkg/contracts/src/CVStrategy/facets/CVProposalFacet.sol:CVProposalFacet","label":"submitter","offset":0,"slot":"5","type":"t_address"},{"astId":85125,"contract":"pkg/contracts/src/CVStrategy/facets/CVProposalFacet.sol:CVProposalFacet","label":"requestedToken","offset":0,"slot":"6","type":"t_address"},{"astId":85127,"contract":"pkg/contracts/src/CVStrategy/facets/CVProposalFacet.sol:CVProposalFacet","label":"blockLast","offset":0,"slot":"7","type":"t_uint256"},{"astId":85130,"contract":"pkg/contracts/src/CVStrategy/facets/CVProposalFacet.sol:CVProposalFacet","label":"proposalStatus","offset":0,"slot":"8","type":"t_enum(ProposalStatus)85104"},{"astId":85134,"contract":"pkg/contracts/src/CVStrategy/facets/CVProposalFacet.sol:CVProposalFacet","label":"voterStakedPoints","offset":0,"slot":"9","type":"t_mapping(t_address,t_uint256)"},{"astId":85137,"contract":"pkg/contracts/src/CVStrategy/facets/CVProposalFacet.sol:CVProposalFacet","label":"metadata","offset":0,"slot":"10","type":"t_struct(Metadata)3080_storage"},{"astId":85140,"contract":"pkg/contracts/src/CVStrategy/facets/CVProposalFacet.sol:CVProposalFacet","label":"disputeInfo","offset":0,"slot":"12","type":"t_struct(ProposalDisputeInfo)85111_storage"},{"astId":85142,"contract":"pkg/contracts/src/CVStrategy/facets/CVProposalFacet.sol:CVProposalFacet","label":"lastDisputeCompletion","offset":0,"slot":"15","type":"t_uint256"},{"astId":85144,"contract":"pkg/contracts/src/CVStrategy/facets/CVProposalFacet.sol:CVProposalFacet","label":"arbitrableConfigVersion","offset":0,"slot":"16","type":"t_uint256"},{"astId":85146,"contract":"pkg/contracts/src/CVStrategy/facets/CVProposalFacet.sol:CVProposalFacet","label":"creationTimestamp","offset":0,"slot":"17","type":"t_uint256"}]},"t_struct(ProposalDisputeInfo)85111_storage":{"encoding":"inplace","label":"struct ProposalDisputeInfo","numberOfBytes":"96","members":[{"astId":85106,"contract":"pkg/contracts/src/CVStrategy/facets/CVProposalFacet.sol:CVProposalFacet","label":"disputeId","offset":0,"slot":"0","type":"t_uint256"},{"astId":85108,"contract":"pkg/contracts/src/CVStrategy/facets/CVProposalFacet.sol:CVProposalFacet","label":"disputeTimestamp","offset":0,"slot":"1","type":"t_uint256"},{"astId":85110,"contract":"pkg/contracts/src/CVStrategy/facets/CVProposalFacet.sol:CVProposalFacet","label":"challenger","offset":0,"slot":"2","type":"t_address"}]},"t_uint256":{"encoding":"inplace","label":"uint256","numberOfBytes":"32"},"t_uint64":{"encoding":"inplace","label":"uint64","numberOfBytes":"8"},"t_uint8":{"encoding":"inplace","label":"uint8","numberOfBytes":"1"}}},"id":149}