{"abi":[{"type":"function","name":"DISPUTE_COOLDOWN_SEC","inputs":[],"outputs":[{"name":"","type":"uint256","internalType":"uint256"}],"stateMutability":"view"},{"type":"function","name":"RULING_OPTIONS","inputs":[],"outputs":[{"name":"","type":"uint256","internalType":"uint256"}],"stateMutability":"view"},{"type":"function","name":"arbitrableConfigs","inputs":[{"name":"","type":"uint256","internalType":"uint256"}],"outputs":[{"name":"arbitrator","type":"address","internalType":"contract IArbitrator"},{"name":"tribunalSafe","type":"address","internalType":"address"},{"name":"submitterCollateralAmount","type":"uint256","internalType":"uint256"},{"name":"challengerCollateralAmount","type":"uint256","internalType":"uint256"},{"name":"defaultRuling","type":"uint256","internalType":"uint256"},{"name":"defaultRulingTimeout","type":"uint256","internalType":"uint256"}],"stateMutability":"view"},{"type":"function","name":"cancelProposal","inputs":[{"name":"proposalId","type":"uint256","internalType":"uint256"}],"outputs":[],"stateMutability":"nonpayable"},{"type":"function","name":"cloneNonce","inputs":[],"outputs":[{"name":"","type":"uint256","internalType":"uint256"}],"stateMutability":"view"},{"type":"function","name":"collateralVault","inputs":[],"outputs":[{"name":"","type":"address","internalType":"contract ICollateralVault"}],"stateMutability":"view"},{"type":"function","name":"currentArbitrableConfigVersion","inputs":[],"outputs":[{"name":"","type":"uint256","internalType":"uint256"}],"stateMutability":"view"},{"type":"function","name":"cvParams","inputs":[],"outputs":[{"name":"maxRatio","type":"uint256","internalType":"uint256"},{"name":"weight","type":"uint256","internalType":"uint256"},{"name":"decay","type":"uint256","internalType":"uint256"},{"name":"minThresholdPoints","type":"uint256","internalType":"uint256"}],"stateMutability":"view"},{"type":"function","name":"cvVault","inputs":[],"outputs":[{"name":"","type":"address","internalType":"contract ICVVault"}],"stateMutability":"view"},{"type":"function","name":"disputeCount","inputs":[],"outputs":[{"name":"","type":"uint64","internalType":"uint64"}],"stateMutability":"view"},{"type":"function","name":"disputeIdToProposalId","inputs":[{"name":"","type":"uint256","internalType":"uint256"}],"outputs":[{"name":"","type":"uint256","internalType":"uint256"}],"stateMutability":"view"},{"type":"function","name":"pointConfig","inputs":[],"outputs":[{"name":"maxAmount","type":"uint256","internalType":"uint256"}],"stateMutability":"view"},{"type":"function","name":"pointSystem","inputs":[],"outputs":[{"name":"","type":"uint8","internalType":"enum PointSystem"}],"stateMutability":"view"},{"type":"function","name":"proposalCounter","inputs":[],"outputs":[{"name":"","type":"uint256","internalType":"uint256"}],"stateMutability":"view"},{"type":"function","name":"proposalType","inputs":[],"outputs":[{"name":"","type":"uint8","internalType":"enum ProposalType"}],"stateMutability":"view"},{"type":"function","name":"proposals","inputs":[{"name":"","type":"uint256","internalType":"uint256"}],"outputs":[{"name":"proposalId","type":"uint256","internalType":"uint256"},{"name":"requestedAmount","type":"uint256","internalType":"uint256"},{"name":"stakedAmount","type":"uint256","internalType":"uint256"},{"name":"convictionLast","type":"uint256","internalType":"uint256"},{"name":"beneficiary","type":"address","internalType":"address"},{"name":"submitter","type":"address","internalType":"address"},{"name":"requestedToken","type":"address","internalType":"address"},{"name":"blockLast","type":"uint256","internalType":"uint256"},{"name":"proposalStatus","type":"uint8","internalType":"enum ProposalStatus"},{"name":"metadata","type":"tuple","internalType":"struct Metadata","components":[{"name":"protocol","type":"uint256","internalType":"uint256"},{"name":"pointer","type":"string","internalType":"string"}]},{"name":"disputeInfo","type":"tuple","internalType":"struct ProposalDisputeInfo","components":[{"name":"disputeId","type":"uint256","internalType":"uint256"},{"name":"disputeTimestamp","type":"uint256","internalType":"uint256"},{"name":"challenger","type":"address","internalType":"address"}]},{"name":"lastDisputeCompletion","type":"uint256","internalType":"uint256"},{"name":"arbitrableConfigVersion","type":"uint256","internalType":"uint256"}],"stateMutability":"view"},{"type":"function","name":"registerRecipient","inputs":[{"name":"_data","type":"bytes","internalType":"bytes"},{"name":"_sender","type":"address","internalType":"address"}],"outputs":[{"name":"","type":"address","internalType":"address"}],"stateMutability":"payable"},{"type":"function","name":"registryCommunity","inputs":[],"outputs":[{"name":"","type":"address","internalType":"contract IVotingPowerRegistry"}],"stateMutability":"view"},{"type":"function","name":"superfluidToken","inputs":[],"outputs":[{"name":"","type":"address","internalType":"contract ISuperToken"}],"stateMutability":"view"},{"type":"function","name":"sybilScorer","inputs":[],"outputs":[{"name":"","type":"address","internalType":"contract ISybilScorer"}],"stateMutability":"view"},{"type":"function","name":"totalPointsActivated","inputs":[],"outputs":[{"name":"","type":"uint256","internalType":"uint256"}],"stateMutability":"view"},{"type":"function","name":"totalStaked","inputs":[],"outputs":[{"name":"","type":"uint256","internalType":"uint256"}],"stateMutability":"view"},{"type":"function","name":"totalVoterStakePct","inputs":[{"name":"","type":"address","internalType":"address"}],"outputs":[{"name":"","type":"uint256","internalType":"uint256"}],"stateMutability":"view"},{"type":"function","name":"voterStakedProposals","inputs":[{"name":"","type":"address","internalType":"address"},{"name":"","type":"uint256","internalType":"uint256"}],"outputs":[{"name":"","type":"uint256","internalType":"uint256"}],"stateMutability":"view"},{"type":"event","name":"ProposalCancelled","inputs":[{"name":"proposalId","type":"uint256","indexed":false,"internalType":"uint256"}],"anonymous":false},{"type":"event","name":"ProposalCreated","inputs":[{"name":"poolId","type":"uint256","indexed":false,"internalType":"uint256"},{"name":"proposalId","type":"uint256","indexed":false,"internalType":"uint256"}],"anonymous":false},{"type":"event","name":"SupportAdded","inputs":[{"name":"from","type":"address","indexed":false,"internalType":"address"},{"name":"proposalId","type":"uint256","indexed":false,"internalType":"uint256"},{"name":"amount","type":"uint256","indexed":false,"internalType":"uint256"},{"name":"totalStakedAmount","type":"uint256","indexed":false,"internalType":"uint256"},{"name":"convictionLast","type":"uint256","indexed":false,"internalType":"uint256"}],"anonymous":false}],"bytecode":{"object":"0x608060405234801561001057600080fd5b506112e8806100206000396000f3fe60806040526004361061011b5760003560e01c8063013cf08b1461012057806305caa7f3146101625780630bece79c1461018f5780630c0512e9146101af578063125fd1d9146101d35780632506b870146101e9578063255ffb381461022c5780632bbe0cae146102595780632dbd6fdd1461026c5780633396045914610298578063351d9f96146102ae57806341bb7605146102c85780635db64b991461035d5780636003e4141461038a578063626c47e8146103aa578063817b1cd2146103bf578063868c57b8146103d5578063a28889e1146103f5578063a47ff7e51461042d578063aba9ffee14610444578063b6c61f311461045a578063d4ec78791461047a578063e0a8f6f51461049a578063f5be3f7c146104bc575b600080fd5b34801561012c57600080fd5b5061014061013b366004610c13565b6104d2565b6040516101599d9c9b9a99989796959493929190610ca6565b60405180910390f35b34801561016e57600080fd5b50608254610182906001600160a01b031681565b6040516101599190610d60565b34801561019b57600080fd5b50607a54610182906001600160a01b031681565b3480156101bb57600080fd5b506101c5606f5481565b604051908152602001610159565b3480156101df57600080fd5b506101c560705481565b3480156101f557600080fd5b5060735460745460755460765461020c9392919084565b604080519485526020850193909352918301526060820152608001610159565b34801561023857600080fd5b506101c5610247366004610c13565b60806020526000908152604090205481565b610182610267366004610e40565b610620565b34801561027857600080fd5b5060775461028b90610100900460ff1681565b6040516101599190610ee4565b3480156102a457600080fd5b506101c5606d5481565b3480156102ba57600080fd5b5060775461028b9060ff1681565b3480156102d457600080fd5b506103256102e3366004610c13565b6081602052600090815260409020805460018201546002830154600384015460048501546005909501546001600160a01b039485169593909416939192909186565b604080516001600160a01b039788168152969095166020870152938501929092526060840152608083015260a082015260c001610159565b34801561036957600080fd5b506101c5610378366004610ef7565b607e6020526000908152604090205481565b34801561039657600080fd5b50607954610182906001600160a01b031681565b3480156103b657600080fd5b506101c5600381565b3480156103cb57600080fd5b506101c560715481565b3480156103e157600080fd5b506101c56103f0366004610f1b565b6109fa565b34801561040157600080fd5b50606e54610415906001600160401b031681565b6040516001600160401b039091168152602001610159565b34801561043957600080fd5b506078546101c59081565b34801561045057600080fd5b506101c560725481565b34801561046657600080fd5b50607c54610182906001600160a01b031681565b34801561048657600080fd5b50607b54610182906001600160a01b031681565b3480156104a657600080fd5b506104ba6104b5366004610c13565b610a2b565b005b3480156104c857600080fd5b506101c5611c2081565b607d602090815260009182526040918290208054600182015460028301546003840154600485015460058601546006870154600788015460088901548b51808d01909c52600a8a0180548d52600b8b0180549a9d999c989b979a6001600160a01b039788169a968816999790951697939660ff909316959394919284019161055990610f47565b80601f016020809104026020016040519081016040528092919081815260200182805461058590610f47565b80156105d25780601f106105a7576101008083540402835291602001916105d2565b820191906000526020600020905b8154815290600101906020018083116105b557829003601f168201915b50505091909252505060408051606081018252600c8501548152600d8501546020820152600e8501546001600160a01b031691810191909152600f840154601090940154929390929091508d565b600061062a610b6e565b610632610b87565b61063b82610b96565b60795460405163208a40f360e11b81526001600160a01b039091169063411481e69061066b903090600401610d60565b60006040518083038186803b15801561068357600080fd5b505afa158015610697573d6000803e3d6000fd5b505050506000838060200190518101906106b1919061102b565b9050600160775460ff1660038111156106cc576106cc610c2c565b0361077257606554815160405163068bcd8d60e01b815260048101919091526001600160a01b0390911690819063068bcd8d90602401600060405180830381865afa15801561071f573d6000803e3d6000fd5b505050506040513d6000823e601f3d908101601f1916820160405261074791908101906110d1565b604001516001600160a01b031682606001516001600160a01b03161461076c57600080fd5b5061082b565b600360775460ff16600381111561078b5761078b610c2c565b0361082b5760408101511561079f57600080fd5b606554815160405163068bcd8d60e01b81526001600160a01b039092169163068bcd8d916107d39160040190815260200190565b600060405180830381865afa1580156107f0573d6000803e3d6000fd5b505050506040513d6000823e601f3d908101601f1916820160405261081891908101906110d1565b604001516001600160a01b031660608201525b6070546000908152608160205260409020546001600160a01b031615801590610867575060705460009081526081602052604090206002015434105b1561087157600080fd5b6000606f6000815461088290611184565b91829055506000818152607d602090815260408083208481556005810180546001600160a01b038b81166001600160a01b0319928316179092558885015160048401805491841691831691909117905560608901516006840180549190931691161790559086015160018083019190915560088201805460ff19169091179055436007820155600381019290925560808501518051600a8401908155918101519394509192600b84019061093690826111fa565b5050607054601083015550607a54600582015460405163240ff7c560e11b8152600481018590526001600160a01b03918216602482015291169063481fef8a9034906044016000604051808303818588803b15801561099457600080fd5b505af11580156109a8573d6000803e3d6000fd5b50505050507ffcf3b1aa65a464cef2889608f99e8b8c0f680a4be6c2acb9d961c536a5a9294b606854836040516109e9929190918252602082015260400190565b60405180910390a150949350505050565b607f6020528160005260406000208181548110610a1657600080fd5b90600052602060002001600091509150505481565b60016000828152607d602052604090206008015460ff166006811115610a5357610a53610c2c565b14610a5d57600080fd5b6000818152607d60205260409020600501546001600160a01b03163314610a8357600080fd5b607a546000828152607d602090815260408083206005810154601090910154845260819092529182902060020154915163099ea56b60e41b8152600481018590526001600160a01b0391821660248201526044810192909252909116906399ea56b090606401600060405180830381600087803b158015610b0357600080fd5b505af1158015610b17573d6000803e3d6000fd5b5050506000828152607d6020908152604091829020600801805460ff1916600317905590518381527f416e669c63d9a3a5e36ee7cc7e2104b8db28ccd286aa18966e98fa230c73b08c92500160405180910390a150565b6065546001600160a01b03163314610b8557600080fd5b565b606854600003610b8557600080fd5b60795460405163288c314960e21b81526001600160a01b039091169063a230c52490610bc6908490600401610d60565b602060405180830381865afa158015610be3573d6000803e3d6000fd5b505050506040513d601f19601f82011682018060405250810190610c0791906112b9565b610c1057600080fd5b50565b600060208284031215610c2557600080fd5b5035919050565b634e487b7160e01b600052602160045260246000fd5b60005b83811015610c5d578181015183820152602001610c45565b50506000910152565b8051825260006020820151604060208501528051806040860152610c91816060870160208501610c42565b601f01601f1916939093016060019392505050565b8d8152602081018d9052604081018c9052606081018b90526001600160a01b038a8116608083015289811660a0830152881660c082015260e0810187905260006101e060078810610cf957610cf9610c2c565b8761010084015280610120840152610d1381840188610c66565b8651610140850152602087015161016085015260408701516001600160a01b03166101808501529150610d439050565b6101a08201939093526101c001529b9a5050505050505050505050565b6001600160a01b0391909116815260200190565b634e487b7160e01b600052604160045260246000fd5b60405160a081016001600160401b0381118282101715610dac57610dac610d74565b60405290565b60405160c081016001600160401b0381118282101715610dac57610dac610d74565b604051601f8201601f191681016001600160401b0381118282101715610dfc57610dfc610d74565b604052919050565b60006001600160401b03821115610e1d57610e1d610d74565b50601f01601f191660200190565b6001600160a01b0381168114610c1057600080fd5b60008060408385031215610e5357600080fd5b82356001600160401b03811115610e6957600080fd5b8301601f81018513610e7a57600080fd5b8035610e8d610e8882610e04565b610dd4565b818152866020838501011115610ea257600080fd5b816020840160208301376000602083830101528094505050506020830135610ec981610e2b565b809150509250929050565b60048110610c1057610c10610c2c565b60208101610ef183610ed4565b91905290565b600060208284031215610f0957600080fd5b8135610f1481610e2b565b9392505050565b60008060408385031215610f2e57600080fd5b8235610f3981610e2b565b946020939093013593505050565b600181811c90821680610f5b57607f821691505b602082108103610f7b57634e487b7160e01b600052602260045260246000fd5b50919050565b600060408284031215610f9357600080fd5b604080519081016001600160401b038082118383101715610fb657610fb6610d74565b81604052829350845183526020850151915080821115610fd557600080fd5b508301601f81018513610fe757600080fd5b8051610ff5610e8882610e04565b81815286602083850101111561100a57600080fd5b61101b826020830160208601610c42565b8060208501525050505092915050565b60006020828403121561103d57600080fd5b81516001600160401b038082111561105457600080fd5b9083019060a0828603121561106857600080fd5b611070610d8a565b82518152602083015161108281610e2b565b602082015260408381015190820152606083015161109f81610e2b565b60608201526080830151828111156110b657600080fd5b6110c287828601610f81565b60808301525095945050505050565b6000602082840312156110e357600080fd5b81516001600160401b03808211156110fa57600080fd5b9083019060c0828603121561110e57600080fd5b611116610db2565b82518152602083015161112881610e2b565b6020820152604083015161113b81610e2b565b604082015260608301518281111561115257600080fd5b61115e87828601610f81565b6060830152506080830151608082015260a083015160a082015280935050505092915050565b6000600182016111a457634e487b7160e01b600052601160045260246000fd5b5060010190565b601f8211156111f557600081815260208120601f850160051c810160208610156111d25750805b601f850160051c820191505b818110156111f1578281556001016111de565b5050505b505050565b81516001600160401b0381111561121357611213610d74565b611227816112218454610f47565b846111ab565b602080601f83116001811461125c57600084156112445750858301515b600019600386901b1c1916600185901b1785556111f1565b600085815260208120601f198616915b8281101561128b5788860151825594840194600190910190840161126c565b50858210156112a95787850151600019600388901b60f8161c191681555b5050505050600190811b01905550565b6000602082840312156112cb57600080fd5b81518015158114610f1457600080fdfea164736f6c6343000813000a","linkReferences":{}},"methodIdentifiers":{"DISPUTE_COOLDOWN_SEC()":"f5be3f7c","RULING_OPTIONS()":"626c47e8","arbitrableConfigs(uint256)":"41bb7605","cancelProposal(uint256)":"e0a8f6f5","cloneNonce()":"33960459","collateralVault()":"0bece79c","currentArbitrableConfigVersion()":"125fd1d9","cvParams()":"2506b870","cvVault()":"d4ec7879","disputeCount()":"a28889e1","disputeIdToProposalId(uint256)":"255ffb38","pointConfig()":"a47ff7e5","pointSystem()":"2dbd6fdd","proposalCounter()":"0c0512e9","proposalType()":"351d9f96","proposals(uint256)":"013cf08b","registerRecipient(bytes,address)":"2bbe0cae","registryCommunity()":"6003e414","superfluidToken()":"05caa7f3","sybilScorer()":"b6c61f31","totalPointsActivated()":"aba9ffee","totalStaked()":"817b1cd2","totalVoterStakePct(address)":"5db64b99","voterStakedProposals(address,uint256)":"868c57b8"},"storageLayout":{"storage":[{"astId":85385,"contract":"pkg/contracts/src/CVStrategy/facets/CVProposalFacet.sol:CVProposalFacet","label":"_initialized","offset":0,"slot":"0","type":"t_uint8"},{"astId":85387,"contract":"pkg/contracts/src/CVStrategy/facets/CVProposalFacet.sol:CVProposalFacet","label":"_initializing","offset":1,"slot":"0","type":"t_bool"},{"astId":85391,"contract":"pkg/contracts/src/CVStrategy/facets/CVProposalFacet.sol:CVProposalFacet","label":"__gap_init","offset":0,"slot":"1","type":"t_array(t_uint256)50_storage"},{"astId":85394,"contract":"pkg/contracts/src/CVStrategy/facets/CVProposalFacet.sol:CVProposalFacet","label":"_owner","offset":0,"slot":"51","type":"t_address"},{"astId":85398,"contract":"pkg/contracts/src/CVStrategy/facets/CVProposalFacet.sol:CVProposalFacet","label":"__gap_ownable","offset":0,"slot":"52","type":"t_array(t_uint256)49_storage"},{"astId":85402,"contract":"pkg/contracts/src/CVStrategy/facets/CVProposalFacet.sol:CVProposalFacet","label":"allo","offset":0,"slot":"101","type":"t_contract(IAllo)2629"},{"astId":85404,"contract":"pkg/contracts/src/CVStrategy/facets/CVProposalFacet.sol:CVProposalFacet","label":"strategyId","offset":0,"slot":"102","type":"t_bytes32"},{"astId":85406,"contract":"pkg/contracts/src/CVStrategy/facets/CVProposalFacet.sol:CVProposalFacet","label":"poolActive","offset":0,"slot":"103","type":"t_bool"},{"astId":85408,"contract":"pkg/contracts/src/CVStrategy/facets/CVProposalFacet.sol:CVProposalFacet","label":"poolId","offset":0,"slot":"104","type":"t_uint256"},{"astId":85410,"contract":"pkg/contracts/src/CVStrategy/facets/CVProposalFacet.sol:CVProposalFacet","label":"poolAmount","offset":0,"slot":"105","type":"t_uint256"},{"astId":85413,"contract":"pkg/contracts/src/CVStrategy/facets/CVProposalFacet.sol:CVProposalFacet","label":"collateralVaultTemplate","offset":0,"slot":"106","type":"t_address"},{"astId":85416,"contract":"pkg/contracts/src/CVStrategy/facets/CVProposalFacet.sol:CVProposalFacet","label":"cvVaultTemplate","offset":0,"slot":"107","type":"t_address"},{"astId":85419,"contract":"pkg/contracts/src/CVStrategy/facets/CVProposalFacet.sol:CVProposalFacet","label":"surpressStateMutabilityWarning","offset":0,"slot":"108","type":"t_uint256"},{"astId":85422,"contract":"pkg/contracts/src/CVStrategy/facets/CVProposalFacet.sol:CVProposalFacet","label":"cloneNonce","offset":0,"slot":"109","type":"t_uint256"},{"astId":85425,"contract":"pkg/contracts/src/CVStrategy/facets/CVProposalFacet.sol:CVProposalFacet","label":"disputeCount","offset":0,"slot":"110","type":"t_uint64"},{"astId":85428,"contract":"pkg/contracts/src/CVStrategy/facets/CVProposalFacet.sol:CVProposalFacet","label":"proposalCounter","offset":0,"slot":"111","type":"t_uint256"},{"astId":85431,"contract":"pkg/contracts/src/CVStrategy/facets/CVProposalFacet.sol:CVProposalFacet","label":"currentArbitrableConfigVersion","offset":0,"slot":"112","type":"t_uint256"},{"astId":85434,"contract":"pkg/contracts/src/CVStrategy/facets/CVProposalFacet.sol:CVProposalFacet","label":"totalStaked","offset":0,"slot":"113","type":"t_uint256"},{"astId":85437,"contract":"pkg/contracts/src/CVStrategy/facets/CVProposalFacet.sol:CVProposalFacet","label":"totalPointsActivated","offset":0,"slot":"114","type":"t_uint256"},{"astId":85441,"contract":"pkg/contracts/src/CVStrategy/facets/CVProposalFacet.sol:CVProposalFacet","label":"cvParams","offset":0,"slot":"115","type":"t_struct(CVParams)86195_storage"},{"astId":85445,"contract":"pkg/contracts/src/CVStrategy/facets/CVProposalFacet.sol:CVProposalFacet","label":"proposalType","offset":0,"slot":"119","type":"t_enum(ProposalType)86098"},{"astId":85449,"contract":"pkg/contracts/src/CVStrategy/facets/CVProposalFacet.sol:CVProposalFacet","label":"pointSystem","offset":1,"slot":"119","type":"t_enum(PointSystem)86103"},{"astId":85453,"contract":"pkg/contracts/src/CVStrategy/facets/CVProposalFacet.sol:CVProposalFacet","label":"pointConfig","offset":0,"slot":"120","type":"t_struct(PointSystemConfig)86172_storage"},{"astId":85457,"contract":"pkg/contracts/src/CVStrategy/facets/CVProposalFacet.sol:CVProposalFacet","label":"registryCommunity","offset":0,"slot":"121","type":"t_contract(IVotingPowerRegistry)97143"},{"astId":85461,"contract":"pkg/contracts/src/CVStrategy/facets/CVProposalFacet.sol:CVProposalFacet","label":"collateralVault","offset":0,"slot":"122","type":"t_contract(ICollateralVault)96935"},{"astId":85465,"contract":"pkg/contracts/src/CVStrategy/facets/CVProposalFacet.sol:CVProposalFacet","label":"cvVault","offset":0,"slot":"123","type":"t_contract(ICVVault)96902"},{"astId":85469,"contract":"pkg/contracts/src/CVStrategy/facets/CVProposalFacet.sol:CVProposalFacet","label":"sybilScorer","offset":0,"slot":"124","type":"t_contract(ISybilScorer)91572"},{"astId":85475,"contract":"pkg/contracts/src/CVStrategy/facets/CVProposalFacet.sol:CVProposalFacet","label":"proposals","offset":0,"slot":"125","type":"t_mapping(t_uint256,t_struct(Proposal)86164_storage)"},{"astId":85480,"contract":"pkg/contracts/src/CVStrategy/facets/CVProposalFacet.sol:CVProposalFacet","label":"totalVoterStakePct","offset":0,"slot":"126","type":"t_mapping(t_address,t_uint256)"},{"astId":85486,"contract":"pkg/contracts/src/CVStrategy/facets/CVProposalFacet.sol:CVProposalFacet","label":"voterStakedProposals","offset":0,"slot":"127","type":"t_mapping(t_address,t_array(t_uint256)dyn_storage)"},{"astId":85491,"contract":"pkg/contracts/src/CVStrategy/facets/CVProposalFacet.sol:CVProposalFacet","label":"disputeIdToProposalId","offset":0,"slot":"128","type":"t_mapping(t_uint256,t_uint256)"},{"astId":85497,"contract":"pkg/contracts/src/CVStrategy/facets/CVProposalFacet.sol:CVProposalFacet","label":"arbitrableConfigs","offset":0,"slot":"129","type":"t_mapping(t_uint256,t_struct(ArbitrableConfig)86186_storage)"},{"astId":85501,"contract":"pkg/contracts/src/CVStrategy/facets/CVProposalFacet.sol:CVProposalFacet","label":"superfluidToken","offset":0,"slot":"130","type":"t_contract(ISuperToken)73628"},{"astId":85506,"contract":"pkg/contracts/src/CVStrategy/facets/CVProposalFacet.sol:CVProposalFacet","label":"__gap","offset":0,"slot":"131","type":"t_array(t_uint256)49_storage"}],"types":{"t_address":{"encoding":"inplace","label":"address","numberOfBytes":"20"},"t_array(t_uint256)49_storage":{"encoding":"inplace","label":"uint256[49]","numberOfBytes":"1568","base":"t_uint256"},"t_array(t_uint256)50_storage":{"encoding":"inplace","label":"uint256[50]","numberOfBytes":"1600","base":"t_uint256"},"t_array(t_uint256)dyn_storage":{"encoding":"dynamic_array","label":"uint256[]","numberOfBytes":"32","base":"t_uint256"},"t_bool":{"encoding":"inplace","label":"bool","numberOfBytes":"1"},"t_bytes32":{"encoding":"inplace","label":"bytes32","numberOfBytes":"32"},"t_contract(IAllo)2629":{"encoding":"inplace","label":"contract IAllo","numberOfBytes":"20"},"t_contract(IArbitrator)96838":{"encoding":"inplace","label":"contract IArbitrator","numberOfBytes":"20"},"t_contract(ICVVault)96902":{"encoding":"inplace","label":"contract ICVVault","numberOfBytes":"20"},"t_contract(ICollateralVault)96935":{"encoding":"inplace","label":"contract ICollateralVault","numberOfBytes":"20"},"t_contract(ISuperToken)73628":{"encoding":"inplace","label":"contract ISuperToken","numberOfBytes":"20"},"t_contract(ISybilScorer)91572":{"encoding":"inplace","label":"contract ISybilScorer","numberOfBytes":"20"},"t_contract(IVotingPowerRegistry)97143":{"encoding":"inplace","label":"contract IVotingPowerRegistry","numberOfBytes":"20"},"t_enum(PointSystem)86103":{"encoding":"inplace","label":"enum PointSystem","numberOfBytes":"1"},"t_enum(ProposalStatus)86123":{"encoding":"inplace","label":"enum ProposalStatus","numberOfBytes":"1"},"t_enum(ProposalType)86098":{"encoding":"inplace","label":"enum ProposalType","numberOfBytes":"1"},"t_mapping(t_address,t_array(t_uint256)dyn_storage)":{"encoding":"mapping","key":"t_address","label":"mapping(address => uint256[])","numberOfBytes":"32","value":"t_array(t_uint256)dyn_storage"},"t_mapping(t_address,t_uint256)":{"encoding":"mapping","key":"t_address","label":"mapping(address => uint256)","numberOfBytes":"32","value":"t_uint256"},"t_mapping(t_uint256,t_struct(ArbitrableConfig)86186_storage)":{"encoding":"mapping","key":"t_uint256","label":"mapping(uint256 => struct ArbitrableConfig)","numberOfBytes":"32","value":"t_struct(ArbitrableConfig)86186_storage"},"t_mapping(t_uint256,t_struct(Proposal)86164_storage)":{"encoding":"mapping","key":"t_uint256","label":"mapping(uint256 => struct Proposal)","numberOfBytes":"32","value":"t_struct(Proposal)86164_storage"},"t_mapping(t_uint256,t_uint256)":{"encoding":"mapping","key":"t_uint256","label":"mapping(uint256 => uint256)","numberOfBytes":"32","value":"t_uint256"},"t_string_storage":{"encoding":"bytes","label":"string","numberOfBytes":"32"},"t_struct(ArbitrableConfig)86186_storage":{"encoding":"inplace","label":"struct ArbitrableConfig","numberOfBytes":"192","members":[{"astId":86175,"contract":"pkg/contracts/src/CVStrategy/facets/CVProposalFacet.sol:CVProposalFacet","label":"arbitrator","offset":0,"slot":"0","type":"t_contract(IArbitrator)96838"},{"astId":86177,"contract":"pkg/contracts/src/CVStrategy/facets/CVProposalFacet.sol:CVProposalFacet","label":"tribunalSafe","offset":0,"slot":"1","type":"t_address"},{"astId":86179,"contract":"pkg/contracts/src/CVStrategy/facets/CVProposalFacet.sol:CVProposalFacet","label":"submitterCollateralAmount","offset":0,"slot":"2","type":"t_uint256"},{"astId":86181,"contract":"pkg/contracts/src/CVStrategy/facets/CVProposalFacet.sol:CVProposalFacet","label":"challengerCollateralAmount","offset":0,"slot":"3","type":"t_uint256"},{"astId":86183,"contract":"pkg/contracts/src/CVStrategy/facets/CVProposalFacet.sol:CVProposalFacet","label":"defaultRuling","offset":0,"slot":"4","type":"t_uint256"},{"astId":86185,"contract":"pkg/contracts/src/CVStrategy/facets/CVProposalFacet.sol:CVProposalFacet","label":"defaultRulingTimeout","offset":0,"slot":"5","type":"t_uint256"}]},"t_struct(CVParams)86195_storage":{"encoding":"inplace","label":"struct CVParams","numberOfBytes":"128","members":[{"astId":86188,"contract":"pkg/contracts/src/CVStrategy/facets/CVProposalFacet.sol:CVProposalFacet","label":"maxRatio","offset":0,"slot":"0","type":"t_uint256"},{"astId":86190,"contract":"pkg/contracts/src/CVStrategy/facets/CVProposalFacet.sol:CVProposalFacet","label":"weight","offset":0,"slot":"1","type":"t_uint256"},{"astId":86192,"contract":"pkg/contracts/src/CVStrategy/facets/CVProposalFacet.sol:CVProposalFacet","label":"decay","offset":0,"slot":"2","type":"t_uint256"},{"astId":86194,"contract":"pkg/contracts/src/CVStrategy/facets/CVProposalFacet.sol:CVProposalFacet","label":"minThresholdPoints","offset":0,"slot":"3","type":"t_uint256"}]},"t_struct(Metadata)3080_storage":{"encoding":"inplace","label":"struct Metadata","numberOfBytes":"64","members":[{"astId":3076,"contract":"pkg/contracts/src/CVStrategy/facets/CVProposalFacet.sol:CVProposalFacet","label":"protocol","offset":0,"slot":"0","type":"t_uint256"},{"astId":3079,"contract":"pkg/contracts/src/CVStrategy/facets/CVProposalFacet.sol:CVProposalFacet","label":"pointer","offset":0,"slot":"1","type":"t_string_storage"}]},"t_struct(PointSystemConfig)86172_storage":{"encoding":"inplace","label":"struct PointSystemConfig","numberOfBytes":"32","members":[{"astId":86171,"contract":"pkg/contracts/src/CVStrategy/facets/CVProposalFacet.sol:CVProposalFacet","label":"maxAmount","offset":0,"slot":"0","type":"t_uint256"}]},"t_struct(Proposal)86164_storage":{"encoding":"inplace","label":"struct Proposal","numberOfBytes":"544","members":[{"astId":86132,"contract":"pkg/contracts/src/CVStrategy/facets/CVProposalFacet.sol:CVProposalFacet","label":"proposalId","offset":0,"slot":"0","type":"t_uint256"},{"astId":86134,"contract":"pkg/contracts/src/CVStrategy/facets/CVProposalFacet.sol:CVProposalFacet","label":"requestedAmount","offset":0,"slot":"1","type":"t_uint256"},{"astId":86136,"contract":"pkg/contracts/src/CVStrategy/facets/CVProposalFacet.sol:CVProposalFacet","label":"stakedAmount","offset":0,"slot":"2","type":"t_uint256"},{"astId":86138,"contract":"pkg/contracts/src/CVStrategy/facets/CVProposalFacet.sol:CVProposalFacet","label":"convictionLast","offset":0,"slot":"3","type":"t_uint256"},{"astId":86140,"contract":"pkg/contracts/src/CVStrategy/facets/CVProposalFacet.sol:CVProposalFacet","label":"beneficiary","offset":0,"slot":"4","type":"t_address"},{"astId":86142,"contract":"pkg/contracts/src/CVStrategy/facets/CVProposalFacet.sol:CVProposalFacet","label":"submitter","offset":0,"slot":"5","type":"t_address"},{"astId":86144,"contract":"pkg/contracts/src/CVStrategy/facets/CVProposalFacet.sol:CVProposalFacet","label":"requestedToken","offset":0,"slot":"6","type":"t_address"},{"astId":86146,"contract":"pkg/contracts/src/CVStrategy/facets/CVProposalFacet.sol:CVProposalFacet","label":"blockLast","offset":0,"slot":"7","type":"t_uint256"},{"astId":86149,"contract":"pkg/contracts/src/CVStrategy/facets/CVProposalFacet.sol:CVProposalFacet","label":"proposalStatus","offset":0,"slot":"8","type":"t_enum(ProposalStatus)86123"},{"astId":86153,"contract":"pkg/contracts/src/CVStrategy/facets/CVProposalFacet.sol:CVProposalFacet","label":"voterStakedPoints","offset":0,"slot":"9","type":"t_mapping(t_address,t_uint256)"},{"astId":86156,"contract":"pkg/contracts/src/CVStrategy/facets/CVProposalFacet.sol:CVProposalFacet","label":"metadata","offset":0,"slot":"10","type":"t_struct(Metadata)3080_storage"},{"astId":86159,"contract":"pkg/contracts/src/CVStrategy/facets/CVProposalFacet.sol:CVProposalFacet","label":"disputeInfo","offset":0,"slot":"12","type":"t_struct(ProposalDisputeInfo)86130_storage"},{"astId":86161,"contract":"pkg/contracts/src/CVStrategy/facets/CVProposalFacet.sol:CVProposalFacet","label":"lastDisputeCompletion","offset":0,"slot":"15","type":"t_uint256"},{"astId":86163,"contract":"pkg/contracts/src/CVStrategy/facets/CVProposalFacet.sol:CVProposalFacet","label":"arbitrableConfigVersion","offset":0,"slot":"16","type":"t_uint256"}]},"t_struct(ProposalDisputeInfo)86130_storage":{"encoding":"inplace","label":"struct ProposalDisputeInfo","numberOfBytes":"96","members":[{"astId":86125,"contract":"pkg/contracts/src/CVStrategy/facets/CVProposalFacet.sol:CVProposalFacet","label":"disputeId","offset":0,"slot":"0","type":"t_uint256"},{"astId":86127,"contract":"pkg/contracts/src/CVStrategy/facets/CVProposalFacet.sol:CVProposalFacet","label":"disputeTimestamp","offset":0,"slot":"1","type":"t_uint256"},{"astId":86129,"contract":"pkg/contracts/src/CVStrategy/facets/CVProposalFacet.sol:CVProposalFacet","label":"challenger","offset":0,"slot":"2","type":"t_address"}]},"t_uint256":{"encoding":"inplace","label":"uint256","numberOfBytes":"32"},"t_uint64":{"encoding":"inplace","label":"uint64","numberOfBytes":"8"},"t_uint8":{"encoding":"inplace","label":"uint8","numberOfBytes":"1"}}},"id":154}