{"abi":[{"type":"function","name":"DISPUTE_COOLDOWN_SEC","inputs":[],"outputs":[{"name":"","type":"uint256","internalType":"uint256"}],"stateMutability":"view"},{"type":"function","name":"ONE_HOUR","inputs":[],"outputs":[{"name":"","type":"uint256","internalType":"uint256"}],"stateMutability":"view"},{"type":"function","name":"RULING_OPTIONS","inputs":[],"outputs":[{"name":"","type":"uint256","internalType":"uint256"}],"stateMutability":"view"},{"type":"function","name":"arbitrableConfigs","inputs":[{"name":"","type":"uint256","internalType":"uint256"}],"outputs":[{"name":"arbitrator","type":"address","internalType":"contract IArbitrator"},{"name":"tribunalSafe","type":"address","internalType":"address"},{"name":"submitterCollateralAmount","type":"uint256","internalType":"uint256"},{"name":"challengerCollateralAmount","type":"uint256","internalType":"uint256"},{"name":"defaultRuling","type":"uint256","internalType":"uint256"},{"name":"defaultRulingTimeout","type":"uint256","internalType":"uint256"}],"stateMutability":"view"},{"type":"function","name":"cancelProposal","inputs":[{"name":"proposalId","type":"uint256","internalType":"uint256"}],"outputs":[],"stateMutability":"nonpayable"},{"type":"function","name":"cloneNonce","inputs":[],"outputs":[{"name":"","type":"uint256","internalType":"uint256"}],"stateMutability":"view"},{"type":"function","name":"collateralVault","inputs":[],"outputs":[{"name":"","type":"address","internalType":"contract ICollateralVault"}],"stateMutability":"view"},{"type":"function","name":"currentArbitrableConfigVersion","inputs":[],"outputs":[{"name":"","type":"uint256","internalType":"uint256"}],"stateMutability":"view"},{"type":"function","name":"cvParams","inputs":[],"outputs":[{"name":"maxRatio","type":"uint256","internalType":"uint256"},{"name":"weight","type":"uint256","internalType":"uint256"},{"name":"decay","type":"uint256","internalType":"uint256"},{"name":"minThresholdPoints","type":"uint256","internalType":"uint256"}],"stateMutability":"view"},{"type":"function","name":"disputeCount","inputs":[],"outputs":[{"name":"","type":"uint64","internalType":"uint64"}],"stateMutability":"view"},{"type":"function","name":"disputeIdToProposalId","inputs":[{"name":"","type":"uint256","internalType":"uint256"}],"outputs":[{"name":"","type":"uint256","internalType":"uint256"}],"stateMutability":"view"},{"type":"function","name":"editProposal","inputs":[{"name":"_proposalId","type":"uint256","internalType":"uint256"},{"name":"_metadata","type":"tuple","internalType":"struct Metadata","components":[{"name":"protocol","type":"uint256","internalType":"uint256"},{"name":"pointer","type":"string","internalType":"string"}]},{"name":"_beneficiary","type":"address","internalType":"address"},{"name":"_requestedAmount","type":"uint256","internalType":"uint256"}],"outputs":[],"stateMutability":"nonpayable"},{"type":"function","name":"pointConfig","inputs":[],"outputs":[{"name":"maxAmount","type":"uint256","internalType":"uint256"}],"stateMutability":"view"},{"type":"function","name":"pointSystem","inputs":[],"outputs":[{"name":"","type":"uint8","internalType":"enum PointSystem"}],"stateMutability":"view"},{"type":"function","name":"proposalCounter","inputs":[],"outputs":[{"name":"","type":"uint256","internalType":"uint256"}],"stateMutability":"view"},{"type":"function","name":"proposalType","inputs":[],"outputs":[{"name":"","type":"uint8","internalType":"enum ProposalType"}],"stateMutability":"view"},{"type":"function","name":"proposals","inputs":[{"name":"","type":"uint256","internalType":"uint256"}],"outputs":[{"name":"proposalId","type":"uint256","internalType":"uint256"},{"name":"requestedAmount","type":"uint256","internalType":"uint256"},{"name":"stakedAmount","type":"uint256","internalType":"uint256"},{"name":"convictionLast","type":"uint256","internalType":"uint256"},{"name":"beneficiary","type":"address","internalType":"address"},{"name":"submitter","type":"address","internalType":"address"},{"name":"requestedToken","type":"address","internalType":"address"},{"name":"blockLast","type":"uint256","internalType":"uint256"},{"name":"proposalStatus","type":"uint8","internalType":"enum ProposalStatus"},{"name":"metadata","type":"tuple","internalType":"struct Metadata","components":[{"name":"protocol","type":"uint256","internalType":"uint256"},{"name":"pointer","type":"string","internalType":"string"}]},{"name":"disputeInfo","type":"tuple","internalType":"struct ProposalDisputeInfo","components":[{"name":"disputeId","type":"uint256","internalType":"uint256"},{"name":"disputeTimestamp","type":"uint256","internalType":"uint256"},{"name":"challenger","type":"address","internalType":"address"}]},{"name":"lastDisputeCompletion","type":"uint256","internalType":"uint256"},{"name":"arbitrableConfigVersion","type":"uint256","internalType":"uint256"},{"name":"creationTimestamp","type":"uint256","internalType":"uint256"}],"stateMutability":"view"},{"type":"function","name":"registerRecipient","inputs":[{"name":"_data","type":"bytes","internalType":"bytes"},{"name":"_sender","type":"address","internalType":"address"}],"outputs":[{"name":"","type":"address","internalType":"address"}],"stateMutability":"payable"},{"type":"function","name":"registryCommunity","inputs":[],"outputs":[{"name":"","type":"address","internalType":"contract RegistryCommunity"}],"stateMutability":"view"},{"type":"function","name":"streamingRatePerSecond","inputs":[],"outputs":[{"name":"","type":"uint256","internalType":"uint256"}],"stateMutability":"view"},{"type":"function","name":"superfluidGDA","inputs":[],"outputs":[{"name":"","type":"address","internalType":"contract ISuperfluidPool"}],"stateMutability":"view"},{"type":"function","name":"superfluidToken","inputs":[],"outputs":[{"name":"","type":"address","internalType":"contract ISuperToken"}],"stateMutability":"view"},{"type":"function","name":"sybilScorer","inputs":[],"outputs":[{"name":"","type":"address","internalType":"contract ISybilScorer"}],"stateMutability":"view"},{"type":"function","name":"totalPointsActivated","inputs":[],"outputs":[{"name":"","type":"uint256","internalType":"uint256"}],"stateMutability":"view"},{"type":"function","name":"totalStaked","inputs":[],"outputs":[{"name":"","type":"uint256","internalType":"uint256"}],"stateMutability":"view"},{"type":"function","name":"totalVoterStakePct","inputs":[{"name":"","type":"address","internalType":"address"}],"outputs":[{"name":"","type":"uint256","internalType":"uint256"}],"stateMutability":"view"},{"type":"function","name":"voterStakedProposals","inputs":[{"name":"","type":"address","internalType":"address"},{"name":"","type":"uint256","internalType":"uint256"}],"outputs":[{"name":"","type":"uint256","internalType":"uint256"}],"stateMutability":"view"},{"type":"event","name":"ProposalCancelled","inputs":[{"name":"proposalId","type":"uint256","indexed":false,"internalType":"uint256"}],"anonymous":false},{"type":"event","name":"ProposalCreated","inputs":[{"name":"poolId","type":"uint256","indexed":false,"internalType":"uint256"},{"name":"proposalId","type":"uint256","indexed":false,"internalType":"uint256"}],"anonymous":false},{"type":"event","name":"ProposalEdited","inputs":[{"name":"proposalId","type":"uint256","indexed":false,"internalType":"uint256"},{"name":"metadata","type":"tuple","indexed":false,"internalType":"struct Metadata","components":[{"name":"protocol","type":"uint256","internalType":"uint256"},{"name":"pointer","type":"string","internalType":"string"}]},{"name":"beneficiary","type":"address","indexed":false,"internalType":"address"},{"name":"requestedAmount","type":"uint256","indexed":false,"internalType":"uint256"}],"anonymous":false},{"type":"event","name":"StreamMemberUnitUpdated","inputs":[{"name":"member","type":"address","indexed":true,"internalType":"address"},{"name":"newUnit","type":"int96","indexed":false,"internalType":"int96"}],"anonymous":false},{"type":"event","name":"StreamStarted","inputs":[{"name":"gda","type":"address","indexed":true,"internalType":"address"},{"name":"flowRate","type":"uint256","indexed":false,"internalType":"uint256"}],"anonymous":false},{"type":"event","name":"SupportAdded","inputs":[{"name":"from","type":"address","indexed":false,"internalType":"address"},{"name":"proposalId","type":"uint256","indexed":false,"internalType":"uint256"},{"name":"amount","type":"uint256","indexed":false,"internalType":"uint256"},{"name":"totalStakedAmount","type":"uint256","indexed":false,"internalType":"uint256"},{"name":"convictionLast","type":"uint256","indexed":false,"internalType":"uint256"}],"anonymous":false},{"type":"error","name":"ArbitratorNotSet","inputs":[]},{"type":"error","name":"BeneficiaryEditTimeout","inputs":[{"name":"proposalId","type":"uint256","internalType":"uint256"},{"name":"currentBeneficiary","type":"address","internalType":"address"},{"name":"newBeneficiary","type":"address","internalType":"address"},{"name":"creationTimestamp","type":"uint256","internalType":"uint256"}]},{"type":"error","name":"CannotEditRequestedAmountWithActiveSupport","inputs":[{"name":"proposalId","type":"uint256","internalType":"uint256"},{"name":"currentAmount","type":"uint256","internalType":"uint256"},{"name":"newAmount","type":"uint256","internalType":"uint256"}]},{"type":"error","name":"InsufficientCollateral","inputs":[{"name":"sent","type":"uint256","internalType":"uint256"},{"name":"required","type":"uint256","internalType":"uint256"}]},{"type":"error","name":"MetadataEditTimeout","inputs":[{"name":"proposalId","type":"uint256","internalType":"uint256"},{"name":"currentMetadata","type":"string","internalType":"string"},{"name":"newMetadata","type":"string","internalType":"string"},{"name":"creationTimestamp","type":"uint256","internalType":"uint256"}]},{"type":"error","name":"OnlyActiveProposal","inputs":[{"name":"proposalId","type":"uint256","internalType":"uint256"}]},{"type":"error","name":"OnlyAllo","inputs":[{"name":"sender","type":"address","internalType":"address"},{"name":"allo","type":"address","internalType":"address"}]},{"type":"error","name":"OnlyCouncilSafe","inputs":[{"name":"sender","type":"address","internalType":"address"},{"name":"councilSafe","type":"address","internalType":"address"},{"name":"owner","type":"address","internalType":"address"}]},{"type":"error","name":"OnlyCouncilSafeOrMember","inputs":[{"name":"sender","type":"address","internalType":"address"},{"name":"councilSafe","type":"address","internalType":"address"}]},{"type":"error","name":"OnlyInitialized","inputs":[{"name":"poolId","type":"uint256","internalType":"uint256"}]},{"type":"error","name":"OnlyMember","inputs":[{"name":"wallet","type":"address","internalType":"address"},{"name":"community","type":"address","internalType":"address"}]},{"type":"error","name":"OnlyRegistryCommunity","inputs":[{"name":"sender","type":"address","internalType":"address"},{"name":"registry","type":"address","internalType":"address"}]},{"type":"error","name":"OnlySubmitter","inputs":[{"name":"proposalId","type":"uint256","internalType":"uint256"},{"name":"submitter","type":"address","internalType":"address"},{"name":"sender","type":"address","internalType":"address"}]},{"type":"error","name":"ProposalDoesNotExist","inputs":[{"name":"proposalID","type":"uint256","internalType":"uint256"}]},{"type":"error","name":"ProposalNotActive","inputs":[{"name":"proposalId","type":"uint256","internalType":"uint256"},{"name":"currentStatus","type":"uint8","internalType":"uint8"}]},{"type":"error","name":"RebalanceCooldownActive","inputs":[{"name":"secondsRemaining","type":"uint256","internalType":"uint256"}]},{"type":"error","name":"StrategyPaused","inputs":[{"name":"controller","type":"address","internalType":"address"}]},{"type":"error","name":"StrategySelectorPaused","inputs":[{"name":"selector","type":"bytes4","internalType":"bytes4"},{"name":"controller","type":"address","internalType":"address"}]},{"type":"error","name":"StreamingEscrowFactoryNotSet","inputs":[]},{"type":"error","name":"UnexpectedRequestToken","inputs":[{"name":"requestedToken","type":"address","internalType":"address"},{"name":"poolToken","type":"address","internalType":"address"}]}],"bytecode":{"object":"0x608060405234801561000f575f80fd5b50611cb68061001d5f395ff3fe60806040526004361061013b575f3560e01c8063013cf08b1461013f57806305caa7f3146101815780630bece79c146101ad5780630c0512e9146101cc578063125fd1d9146101ef578063141e3b3814610204578063165035e2146102255780631b36f56f1461023a5780632506b87014610259578063255ffb381461029b5780632bbe0cae146102c65780632dbd6fdd146102d95780633396045914610304578063351d9f961461031957806341bb76051461033f5780635db64b99146103d25780636003e414146103fd578063626c47e81461041c578063817b1cd214610430578063868c57b81461044557806394573cbb14610464578063a28889e114610479578063a47ff7e5146104b0578063aba9ffee146104c6578063b6c61f31146104db578063e0a8f6f5146104fa578063f5be3f7c14610519575b5f80fd5b34801561014a575f80fd5b5061015e6101593660046113a8565b61052e565b6040516101789e9d9c9b9a9998979695949392919061145a565b60405180910390f35b34801561018c575f80fd5b506080546101a0906001600160a01b031681565b604051610178919061150d565b3480156101b8575f80fd5b506079546101a0906001600160a01b031681565b3480156101d7575f80fd5b506101e1606e5481565b604051908152602001610178565b3480156101fa575f80fd5b506101e1606f5481565b34801561020f575f80fd5b5061022361021e366004611656565b61067e565b005b348015610230575f80fd5b506101e1610e1081565b348015610245575f80fd5b506081546101a0906001600160a01b031681565b348015610264575f80fd5b5060725460735460745460755461027b9392919084565b604080519485526020850193909352918301526060820152608001610178565b3480156102a6575f80fd5b506101e16102b53660046113a8565b607e6020525f908152604090205481565b6101a06102d43660046116ff565b6109dc565b3480156102e4575f80fd5b506076546102f790610100900460ff1681565b6040516101789190611760565b34801561030f575f80fd5b506101e1606c5481565b348015610324575f80fd5b506076546103329060ff1681565b604051610178919061177a565b34801561034a575f80fd5b5061039a6103593660046113a8565b607f6020525f90815260409020805460018201546002830154600384015460048501546005909501546001600160a01b039485169593909416939192909186565b604080516001600160a01b039788168152969095166020870152938501929092526060840152608083015260a082015260c001610178565b3480156103dd575f80fd5b506101e16103ec36600461178e565b607c6020525f908152604090205481565b348015610408575f80fd5b506078546101a0906001600160a01b031681565b348015610427575f80fd5b506101e1600381565b34801561043b575f80fd5b506101e160705481565b348015610450575f80fd5b506101e161045f3660046117b0565b610fd1565b34801561046f575f80fd5b506101e160825481565b348015610484575f80fd5b50606d54610498906001600160401b031681565b6040516001600160401b039091168152602001610178565b3480156104bb575f80fd5b506077546101e19081565b3480156104d1575f80fd5b506101e160715481565b3480156104e6575f80fd5b50607a546101a0906001600160a01b031681565b348015610505575f80fd5b506102236105143660046113a8565b610ffc565b348015610524575f80fd5b506101e1611c2081565b607b60209081525f9182526040918290208054600182015460028301546003840154600485015460058601546006870154600788015460088901548b51808d01909c52600a8a0180548d52600b8b0180549a9d999c989b979a6001600160a01b039788169a968816999790951697939660ff90931695939491928401916105b4906117da565b80601f01602080910402602001604051908101604052809291908181526020018280546105e0906117da565b801561062b5780601f106106025761010080835404028352916020019161062b565b820191905f5260205f20905b81548152906001019060200180831161060e57829003601f168201915b50505091909252505060408051606081018252600c8501548152600d8501546020820152600e8501546001600160a01b031691810191909152600f8401546010850154601190950154939491939092508e565b5f848152607b602052604090206001600882015460ff1660068111156106a6576106a66113bf565b146106f0576008810154859060ff1660068111156106c6576106c66113bf565b60405163052d1a7b60e21b8152600481019290925260ff1660248201526044015b60405180910390fd5b60058101546001600160a01b0316331461073257600581015460405163d46ad8a960e01b81526106e79187916001600160a01b03909116903390600401611812565b8181600101541461077f5760038101541561077757600181015460405163b501861760e01b8152600481018790526024810191909152604481018390526064016106e7565b600181018290555b5f610e108260110154426107939190611845565b6004840154911091506001600160a01b038581169116146108a95780156107f757600482810154601184015460405163d209029d60e01b81529283018990526001600160a01b039182166024840152908616604483015260648201526084016106e7565b6004820180546001600160a01b0319166001600160a01b038616179055600260765460ff16600281111561082d5761082d6113bf565b036108a9575f61083c8761126f565b90506001600160a01b038116156108a7576040516301c31f7160e41b81526001600160a01b03821690631c31f7109061087990889060040161150d565b5f604051808303815f87803b158015610890575f80fd5b505af11580156108a2573d5f803e3d5ffd5b505050505b505b61094d856020015183600a0160010180546108c3906117da565b80601f01602080910402602001604051908101604052809291908181526020018280546108ef906117da565b801561093a5780601f106109115761010080835404028352916020019161093a565b820191905f5260205f20905b81548152906001019060200180831161091d57829003601f168201915b505050505061129490919063ffffffff16565b6109975780156109815760208501516011830154604051637195b4df60e01b81526106e7928992600b870192600401611858565b6020850151600b8301906109959082611951565b505b7f9609630cea289ffd759de85c8dc9196b11897c540de741d67239c33751860abe868686866040516109cc9493929190611a10565b60405180910390a1505050505050565b6065545f906001600160a01b03163314610a1a57606554604051636ca3252960e01b81526106e79133916001600160a01b0390911690600401611a44565b6068545f03610a425760685460405163243d58fb60e21b81526004016106e791815260200190565b610a4b826112aa565b60785460405163208a40f360e11b81526001600160a01b039091169063411481e690610a7b90309060040161150d565b5f6040518083038186803b158015610a91575f80fd5b505afa158015610aa3573d5f803e3d5ffd5b505050505f83806020019051810190610abc9190611ae6565b9050600160765460ff166002811115610ad757610ad76113bf565b03610b9c57606554815160405163068bcd8d60e01b81526001600160a01b03909216915f91839163068bcd8d91610b149160040190815260200190565b5f60405180830381865afa158015610b2e573d5f803e3d5ffd5b505050506040513d5f823e601f3d908101601f19168201604052610b559190810190611b87565b604001519050806001600160a01b031683606001516001600160a01b031614610b99578260600151816040516304976e1760e31b81526004016106e7929190611a44565b50505b606f545f908152607f60205260409020546001600160a01b0316610bd3576040516303674f9160e41b815260040160405180910390fd5b606f545f908152607f6020526040902060020154341015610c2657606f545f908152607f602052604090819020600201549051632c1f8ef160e21b815234600482015260248101919091526044016106e7565b5f606e5f8154610c3590611c35565b91829055505f818152607b602090815260408083208481556005810180546001600160a01b038b81166001600160a01b0319928316179092558885015160048401805491841691831691909117905560608901516006840180549190931691161790559086015160018083019190915560088201805460ff19169091179055436007820155426011820155600381019290925560808501518051600a8401908155918101519394509192600b840190610cee9082611951565b5050606f54601083015550607954600582015460405163240ff7c560e11b8152600481018590526001600160a01b03918216602482015291169063481fef8a9034906044015f604051808303818588803b158015610d4a575f80fd5b505af1158015610d5c573d5f803e3d5ffd5b5060029350610d6a92505050565b60765460ff166002811115610d8157610d816113bf565b03610f8a576078546040805163f86c5f8960e01b815290515f926001600160a01b03169163f86c5f899160048083019260209291908290030181865afa158015610dcd573d5f803e3d5ffd5b505050506040513d601f19601f82011682018060405250810190610df19190611c4d565b6001600160a01b0316637f7960f36040518163ffffffff1660e01b8152600401602060405180830381865afa158015610e2c573d5f803e3d5ffd5b505050506040513d601f19601f82011682018060405250810190610e509190611c4d565b90506001600160a01b038116610e79576040516305d720b760e51b815260040160405180910390fd5b608054608154600484810154604051630543c30760e41b81526001600160a01b0394851692810192909252918316602482015290821660448201523060648201525f9183169063543c3070906084016020604051808303815f875af1158015610ee4573d5f803e3d5ffd5b505050506040513d601f19601f82011682018060405250810190610f089190611c4d565b9050610f14848261134b565b608154604051631b16777760e01b81526001600160a01b0390911690631b16777790610f469084905f90600401611c68565b6020604051808303815f875af1158015610f62573d5f803e3d5ffd5b505050506040513d601f19601f82011682018060405250810190610f869190611c8a565b5050505b60685460408051918252602082018490527ffcf3b1aa65a464cef2889608f99e8b8c0f680a4be6c2acb9d961c536a5a9294b910160405180910390a1509150505b92915050565b607d602052815f5260405f208181548110610fea575f80fd5b905f5260205f20015f91509150505481565b60015f828152607b602052604090206008015460ff166006811115611023576110236113bf565b1461104f575f818152607b6020526040902060080154819060ff1660068111156106c6576106c66113bf565b5f818152607b60205260409020600501546001600160a01b031633146110aa575f818152607b60205260409081902060050154905163d46ad8a960e01b81526106e79183916001600160a01b03909116903390600401611812565b6079545f828152607b6020908152604080832060058101546010909101548452607f9092529182902060020154915163099ea56b60e41b8152600481018590526001600160a01b0391821660248201526044810192909252909116906399ea56b0906064015f604051808303815f87803b158015611126575f80fd5b505af1158015611138573d5f803e3d5ffd5b5050505f828152607b60205260409020600801805460ff191660031790555060765460029060ff1681811115611170576111706113bf565b03611239575f61117f8261126f565b6081549091506001600160a01b0390811690631b167777908316156111a457826111bf565b5f848152607b60205260409020600401546001600160a01b03165b5f6040518363ffffffff1660e01b81526004016111dd929190611c68565b6020604051808303815f875af11580156111f9573d5f803e3d5ffd5b505050506040513d601f19601f8201168201806040525081019061121d9190611c8a565b506001600160a01b0381161561123757611237825f61134b565b505b6040518181527f416e669c63d9a3a5e36ee7cc7e2104b8db28ccd286aa18966e98fa230c73b08c9060200160405180910390a150565b5f611278611384565b5f9283526002016020525060409020546001600160a01b031690565b8051602091820120825192909101919091201490565b60785460405163288c314960e21b81526001600160a01b039091169063a230c524906112da90849060040161150d565b6020604051808303815f875af11580156112f6573d5f803e3d5ffd5b505050506040513d601f19601f8201168201806040525081019061131a9190611c8a565b61134857607854604051636332657560e11b81526106e79183916001600160a01b0390911690600401611a44565b50565b80611354611384565b5f938452600201602052604090922080546001600160a01b0319166001600160a01b039093169290921790915550565b7fd5d05b1f29dcb0c0e1698b0261850eb784d1243215a6aa22ea2b8128b2e9497c90565b5f602082840312156113b8575f80fd5b5035919050565b634e487b7160e01b5f52602160045260245ffd5b600781106113e3576113e36113bf565b9052565b5f5b838110156114015781810151838201526020016113e9565b50505f910152565b5f81518084526114208160208601602086016113e7565b601f01601f19169290920160200192915050565b805182525f6020820151604060208501526114526040850182611409565b949350505050565b8e8152602081018e9052604081018d9052606081018c90526001600160a01b038b811660808301528a811660a0830152891660c08201525f8860e08301526114a66101008301896113d3565b6102006101208301526114bd610200830188611434565b865161014084015260208701516101608401526040909601516001600160a01b0316610180830152506101a08101939093526101c08301919091526101e0909101529a9950505050505050505050565b6001600160a01b0391909116815260200190565b634e487b7160e01b5f52604160045260245ffd5b604080519081016001600160401b038111828210171561155757611557611521565b60405290565b60405160a081016001600160401b038111828210171561155757611557611521565b60405160c081016001600160401b038111828210171561155757611557611521565b604051601f8201601f191681016001600160401b03811182821017156115c9576115c9611521565b604052919050565b5f6001600160401b038211156115e9576115e9611521565b50601f01601f191660200190565b5f611609611604846115d1565b6115a1565b905082815283838301111561161c575f80fd5b828260208301375f602084830101529392505050565b6001600160a01b0381168114611348575f80fd5b803561165181611632565b919050565b5f805f8060808587031215611669575f80fd5b8435935060208501356001600160401b0380821115611686575f80fd5b9086019060408289031215611699575f80fd5b6116a1611535565b823581526020830135828111156116b6575f80fd5b80840193505088601f8401126116ca575f80fd5b6116d9898435602086016115f7565b602082015294506116ef91505060408601611646565b9396929550929360600135925050565b5f8060408385031215611710575f80fd5b82356001600160401b03811115611725575f80fd5b8301601f81018513611735575f80fd5b611744858235602084016115f7565b925050602083013561175581611632565b809150509250929050565b6020810160048310611774576117746113bf565b91905290565b6020810160038310611774576117746113bf565b5f6020828403121561179e575f80fd5b81356117a981611632565b9392505050565b5f80604083850312156117c1575f80fd5b82356117cc81611632565b946020939093013593505050565b600181811c908216806117ee57607f821691505b60208210810361180c57634e487b7160e01b5f52602260045260245ffd5b50919050565b9283526001600160a01b03918216602084015216604082015260600190565b634e487b7160e01b5f52601160045260245ffd5b81810381811115610fcb57610fcb611831565b8481525f6020608060208401525f8654611871816117da565b80608087015260a060018084165f811461189257600181146118ae576118db565b60ff19851660a08a015260a084151560051b8a010195506118db565b8b5f5260205f205f5b858110156118d25781548b82018601529083019088016118b7565b8a0160a0019650505b505050505083810360408501526118f28187611409565b9250505082606083015295945050505050565b601f82111561194c57805f5260205f20601f840160051c8101602085101561192a5750805b601f840160051c820191505b81811015611949575f8155600101611936565b50505b505050565b81516001600160401b0381111561196a5761196a611521565b61197e8161197884546117da565b84611905565b602080601f8311600181146119b1575f841561199a5750858301515b5f19600386901b1c1916600185901b178555611a08565b5f85815260208120601f198616915b828110156119df578886015182559484019460019091019084016119c0565b50858210156119fc57878501515f19600388901b60f8161c191681555b505060018460011b0185555b505050505050565b848152608060208201525f611a286080830186611434565b6001600160a01b03949094166040830152506060015292915050565b6001600160a01b0392831681529116602082015260400190565b5f60408284031215611a6e575f80fd5b611a76611535565b8251815260208301519091506001600160401b03811115611a95575f80fd5b8201601f81018413611aa5575f80fd5b8051611ab3611604826115d1565b818152856020838501011115611ac7575f80fd5b611ad88260208301602086016113e7565b602084015250909392505050565b5f60208284031215611af6575f80fd5b81516001600160401b0380821115611b0c575f80fd5b9083019060a08286031215611b1f575f80fd5b611b2761155d565b825181526020830151611b3981611632565b6020820152604083810151908201526060830151611b5681611632565b6060820152608083015182811115611b6c575f80fd5b611b7887828601611a5e565b60808301525095945050505050565b5f60208284031215611b97575f80fd5b81516001600160401b0380821115611bad575f80fd5b9083019060c08286031215611bc0575f80fd5b611bc861157f565b825181526020830151611bda81611632565b60208201526040830151611bed81611632565b6040820152606083015182811115611c03575f80fd5b611c0f87828601611a5e565b6060830152506080830151608082015260a083015160a082015280935050505092915050565b5f60018201611c4657611c46611831565b5060010190565b5f60208284031215611c5d575f80fd5b81516117a981611632565b6001600160a01b039290921682526001600160801b0316602082015260400190565b5f60208284031215611c9a575f80fd5b815180151581146117a9575f80fdfea164736f6c6343000817000a","linkReferences":{}},"methodIdentifiers":{"DISPUTE_COOLDOWN_SEC()":"f5be3f7c","ONE_HOUR()":"165035e2","RULING_OPTIONS()":"626c47e8","arbitrableConfigs(uint256)":"41bb7605","cancelProposal(uint256)":"e0a8f6f5","cloneNonce()":"33960459","collateralVault()":"0bece79c","currentArbitrableConfigVersion()":"125fd1d9","cvParams()":"2506b870","disputeCount()":"a28889e1","disputeIdToProposalId(uint256)":"255ffb38","editProposal(uint256,(uint256,string),address,uint256)":"141e3b38","pointConfig()":"a47ff7e5","pointSystem()":"2dbd6fdd","proposalCounter()":"0c0512e9","proposalType()":"351d9f96","proposals(uint256)":"013cf08b","registerRecipient(bytes,address)":"2bbe0cae","registryCommunity()":"6003e414","streamingRatePerSecond()":"94573cbb","superfluidGDA()":"1b36f56f","superfluidToken()":"05caa7f3","sybilScorer()":"b6c61f31","totalPointsActivated()":"aba9ffee","totalStaked()":"817b1cd2","totalVoterStakePct(address)":"5db64b99","voterStakedProposals(address,uint256)":"868c57b8"},"storageLayout":{"storage":[{"astId":101819,"contract":"pkg/contracts/src/CVStrategy/facets/CVProposalFacet.sol:CVProposalFacet","label":"_initialized","offset":0,"slot":"0","type":"t_uint8"},{"astId":101821,"contract":"pkg/contracts/src/CVStrategy/facets/CVProposalFacet.sol:CVProposalFacet","label":"_initializing","offset":1,"slot":"0","type":"t_bool"},{"astId":101825,"contract":"pkg/contracts/src/CVStrategy/facets/CVProposalFacet.sol:CVProposalFacet","label":"__gap_init","offset":0,"slot":"1","type":"t_array(t_uint256)50_storage"},{"astId":101828,"contract":"pkg/contracts/src/CVStrategy/facets/CVProposalFacet.sol:CVProposalFacet","label":"_owner","offset":0,"slot":"51","type":"t_address"},{"astId":101832,"contract":"pkg/contracts/src/CVStrategy/facets/CVProposalFacet.sol:CVProposalFacet","label":"__gap_ownable","offset":0,"slot":"52","type":"t_array(t_uint256)49_storage"},{"astId":101836,"contract":"pkg/contracts/src/CVStrategy/facets/CVProposalFacet.sol:CVProposalFacet","label":"allo","offset":0,"slot":"101","type":"t_contract(IAllo)2631"},{"astId":101838,"contract":"pkg/contracts/src/CVStrategy/facets/CVProposalFacet.sol:CVProposalFacet","label":"strategyId","offset":0,"slot":"102","type":"t_bytes32"},{"astId":101840,"contract":"pkg/contracts/src/CVStrategy/facets/CVProposalFacet.sol:CVProposalFacet","label":"poolActive","offset":0,"slot":"103","type":"t_bool"},{"astId":101842,"contract":"pkg/contracts/src/CVStrategy/facets/CVProposalFacet.sol:CVProposalFacet","label":"poolId","offset":0,"slot":"104","type":"t_uint256"},{"astId":101844,"contract":"pkg/contracts/src/CVStrategy/facets/CVProposalFacet.sol:CVProposalFacet","label":"poolAmount","offset":0,"slot":"105","type":"t_uint256"},{"astId":101847,"contract":"pkg/contracts/src/CVStrategy/facets/CVProposalFacet.sol:CVProposalFacet","label":"collateralVaultTemplate","offset":0,"slot":"106","type":"t_address"},{"astId":101850,"contract":"pkg/contracts/src/CVStrategy/facets/CVProposalFacet.sol:CVProposalFacet","label":"surpressStateMutabilityWarning","offset":0,"slot":"107","type":"t_uint256"},{"astId":101853,"contract":"pkg/contracts/src/CVStrategy/facets/CVProposalFacet.sol:CVProposalFacet","label":"cloneNonce","offset":0,"slot":"108","type":"t_uint256"},{"astId":101856,"contract":"pkg/contracts/src/CVStrategy/facets/CVProposalFacet.sol:CVProposalFacet","label":"disputeCount","offset":0,"slot":"109","type":"t_uint64"},{"astId":101859,"contract":"pkg/contracts/src/CVStrategy/facets/CVProposalFacet.sol:CVProposalFacet","label":"proposalCounter","offset":0,"slot":"110","type":"t_uint256"},{"astId":101862,"contract":"pkg/contracts/src/CVStrategy/facets/CVProposalFacet.sol:CVProposalFacet","label":"currentArbitrableConfigVersion","offset":0,"slot":"111","type":"t_uint256"},{"astId":101865,"contract":"pkg/contracts/src/CVStrategy/facets/CVProposalFacet.sol:CVProposalFacet","label":"totalStaked","offset":0,"slot":"112","type":"t_uint256"},{"astId":101868,"contract":"pkg/contracts/src/CVStrategy/facets/CVProposalFacet.sol:CVProposalFacet","label":"totalPointsActivated","offset":0,"slot":"113","type":"t_uint256"},{"astId":101872,"contract":"pkg/contracts/src/CVStrategy/facets/CVProposalFacet.sol:CVProposalFacet","label":"cvParams","offset":0,"slot":"114","type":"t_struct(CVParams)103180_storage"},{"astId":101876,"contract":"pkg/contracts/src/CVStrategy/facets/CVProposalFacet.sol:CVProposalFacet","label":"proposalType","offset":0,"slot":"118","type":"t_enum(ProposalType)103081"},{"astId":101880,"contract":"pkg/contracts/src/CVStrategy/facets/CVProposalFacet.sol:CVProposalFacet","label":"pointSystem","offset":1,"slot":"118","type":"t_enum(PointSystem)103086"},{"astId":101884,"contract":"pkg/contracts/src/CVStrategy/facets/CVProposalFacet.sol:CVProposalFacet","label":"pointConfig","offset":0,"slot":"119","type":"t_struct(PointSystemConfig)103157_storage"},{"astId":101888,"contract":"pkg/contracts/src/CVStrategy/facets/CVProposalFacet.sol:CVProposalFacet","label":"registryCommunity","offset":0,"slot":"120","type":"t_contract(RegistryCommunity)111435"},{"astId":101892,"contract":"pkg/contracts/src/CVStrategy/facets/CVProposalFacet.sol:CVProposalFacet","label":"collateralVault","offset":0,"slot":"121","type":"t_contract(ICollateralVault)116894"},{"astId":101896,"contract":"pkg/contracts/src/CVStrategy/facets/CVProposalFacet.sol:CVProposalFacet","label":"sybilScorer","offset":0,"slot":"122","type":"t_contract(ISybilScorer)108850"},{"astId":101902,"contract":"pkg/contracts/src/CVStrategy/facets/CVProposalFacet.sol:CVProposalFacet","label":"proposals","offset":0,"slot":"123","type":"t_mapping(t_uint256,t_struct(Proposal)103149_storage)"},{"astId":101907,"contract":"pkg/contracts/src/CVStrategy/facets/CVProposalFacet.sol:CVProposalFacet","label":"totalVoterStakePct","offset":0,"slot":"124","type":"t_mapping(t_address,t_uint256)"},{"astId":101913,"contract":"pkg/contracts/src/CVStrategy/facets/CVProposalFacet.sol:CVProposalFacet","label":"voterStakedProposals","offset":0,"slot":"125","type":"t_mapping(t_address,t_array(t_uint256)dyn_storage)"},{"astId":101918,"contract":"pkg/contracts/src/CVStrategy/facets/CVProposalFacet.sol:CVProposalFacet","label":"disputeIdToProposalId","offset":0,"slot":"126","type":"t_mapping(t_uint256,t_uint256)"},{"astId":101924,"contract":"pkg/contracts/src/CVStrategy/facets/CVProposalFacet.sol:CVProposalFacet","label":"arbitrableConfigs","offset":0,"slot":"127","type":"t_mapping(t_uint256,t_struct(ArbitrableConfig)103171_storage)"},{"astId":101928,"contract":"pkg/contracts/src/CVStrategy/facets/CVProposalFacet.sol:CVProposalFacet","label":"superfluidToken","offset":0,"slot":"128","type":"t_contract(ISuperToken)80140"},{"astId":101932,"contract":"pkg/contracts/src/CVStrategy/facets/CVProposalFacet.sol:CVProposalFacet","label":"superfluidGDA","offset":0,"slot":"129","type":"t_contract(ISuperfluidPool)78968"},{"astId":101935,"contract":"pkg/contracts/src/CVStrategy/facets/CVProposalFacet.sol:CVProposalFacet","label":"streamingRatePerSecond","offset":0,"slot":"130","type":"t_uint256"},{"astId":101940,"contract":"pkg/contracts/src/CVStrategy/facets/CVProposalFacet.sol:CVProposalFacet","label":"__gap","offset":0,"slot":"131","type":"t_array(t_uint256)47_storage"}],"types":{"t_address":{"encoding":"inplace","label":"address","numberOfBytes":"20"},"t_array(t_uint256)47_storage":{"encoding":"inplace","label":"uint256[47]","numberOfBytes":"1504","base":"t_uint256"},"t_array(t_uint256)49_storage":{"encoding":"inplace","label":"uint256[49]","numberOfBytes":"1568","base":"t_uint256"},"t_array(t_uint256)50_storage":{"encoding":"inplace","label":"uint256[50]","numberOfBytes":"1600","base":"t_uint256"},"t_array(t_uint256)dyn_storage":{"encoding":"dynamic_array","label":"uint256[]","numberOfBytes":"32","base":"t_uint256"},"t_bool":{"encoding":"inplace","label":"bool","numberOfBytes":"1"},"t_bytes32":{"encoding":"inplace","label":"bytes32","numberOfBytes":"32"},"t_contract(IAllo)2631":{"encoding":"inplace","label":"contract IAllo","numberOfBytes":"20"},"t_contract(IArbitrator)116861":{"encoding":"inplace","label":"contract IArbitrator","numberOfBytes":"20"},"t_contract(ICollateralVault)116894":{"encoding":"inplace","label":"contract ICollateralVault","numberOfBytes":"20"},"t_contract(ISuperToken)80140":{"encoding":"inplace","label":"contract ISuperToken","numberOfBytes":"20"},"t_contract(ISuperfluidPool)78968":{"encoding":"inplace","label":"contract ISuperfluidPool","numberOfBytes":"20"},"t_contract(ISybilScorer)108850":{"encoding":"inplace","label":"contract ISybilScorer","numberOfBytes":"20"},"t_contract(RegistryCommunity)111435":{"encoding":"inplace","label":"contract RegistryCommunity","numberOfBytes":"20"},"t_enum(PointSystem)103086":{"encoding":"inplace","label":"enum PointSystem","numberOfBytes":"1"},"t_enum(ProposalStatus)103106":{"encoding":"inplace","label":"enum ProposalStatus","numberOfBytes":"1"},"t_enum(ProposalType)103081":{"encoding":"inplace","label":"enum ProposalType","numberOfBytes":"1"},"t_mapping(t_address,t_array(t_uint256)dyn_storage)":{"encoding":"mapping","key":"t_address","label":"mapping(address => uint256[])","numberOfBytes":"32","value":"t_array(t_uint256)dyn_storage"},"t_mapping(t_address,t_uint256)":{"encoding":"mapping","key":"t_address","label":"mapping(address => uint256)","numberOfBytes":"32","value":"t_uint256"},"t_mapping(t_uint256,t_struct(ArbitrableConfig)103171_storage)":{"encoding":"mapping","key":"t_uint256","label":"mapping(uint256 => struct ArbitrableConfig)","numberOfBytes":"32","value":"t_struct(ArbitrableConfig)103171_storage"},"t_mapping(t_uint256,t_struct(Proposal)103149_storage)":{"encoding":"mapping","key":"t_uint256","label":"mapping(uint256 => struct Proposal)","numberOfBytes":"32","value":"t_struct(Proposal)103149_storage"},"t_mapping(t_uint256,t_uint256)":{"encoding":"mapping","key":"t_uint256","label":"mapping(uint256 => uint256)","numberOfBytes":"32","value":"t_uint256"},"t_string_storage":{"encoding":"bytes","label":"string","numberOfBytes":"32"},"t_struct(ArbitrableConfig)103171_storage":{"encoding":"inplace","label":"struct ArbitrableConfig","numberOfBytes":"192","members":[{"astId":103160,"contract":"pkg/contracts/src/CVStrategy/facets/CVProposalFacet.sol:CVProposalFacet","label":"arbitrator","offset":0,"slot":"0","type":"t_contract(IArbitrator)116861"},{"astId":103162,"contract":"pkg/contracts/src/CVStrategy/facets/CVProposalFacet.sol:CVProposalFacet","label":"tribunalSafe","offset":0,"slot":"1","type":"t_address"},{"astId":103164,"contract":"pkg/contracts/src/CVStrategy/facets/CVProposalFacet.sol:CVProposalFacet","label":"submitterCollateralAmount","offset":0,"slot":"2","type":"t_uint256"},{"astId":103166,"contract":"pkg/contracts/src/CVStrategy/facets/CVProposalFacet.sol:CVProposalFacet","label":"challengerCollateralAmount","offset":0,"slot":"3","type":"t_uint256"},{"astId":103168,"contract":"pkg/contracts/src/CVStrategy/facets/CVProposalFacet.sol:CVProposalFacet","label":"defaultRuling","offset":0,"slot":"4","type":"t_uint256"},{"astId":103170,"contract":"pkg/contracts/src/CVStrategy/facets/CVProposalFacet.sol:CVProposalFacet","label":"defaultRulingTimeout","offset":0,"slot":"5","type":"t_uint256"}]},"t_struct(CVParams)103180_storage":{"encoding":"inplace","label":"struct CVParams","numberOfBytes":"128","members":[{"astId":103173,"contract":"pkg/contracts/src/CVStrategy/facets/CVProposalFacet.sol:CVProposalFacet","label":"maxRatio","offset":0,"slot":"0","type":"t_uint256"},{"astId":103175,"contract":"pkg/contracts/src/CVStrategy/facets/CVProposalFacet.sol:CVProposalFacet","label":"weight","offset":0,"slot":"1","type":"t_uint256"},{"astId":103177,"contract":"pkg/contracts/src/CVStrategy/facets/CVProposalFacet.sol:CVProposalFacet","label":"decay","offset":0,"slot":"2","type":"t_uint256"},{"astId":103179,"contract":"pkg/contracts/src/CVStrategy/facets/CVProposalFacet.sol:CVProposalFacet","label":"minThresholdPoints","offset":0,"slot":"3","type":"t_uint256"}]},"t_struct(Metadata)3086_storage":{"encoding":"inplace","label":"struct Metadata","numberOfBytes":"64","members":[{"astId":3082,"contract":"pkg/contracts/src/CVStrategy/facets/CVProposalFacet.sol:CVProposalFacet","label":"protocol","offset":0,"slot":"0","type":"t_uint256"},{"astId":3085,"contract":"pkg/contracts/src/CVStrategy/facets/CVProposalFacet.sol:CVProposalFacet","label":"pointer","offset":0,"slot":"1","type":"t_string_storage"}]},"t_struct(PointSystemConfig)103157_storage":{"encoding":"inplace","label":"struct PointSystemConfig","numberOfBytes":"32","members":[{"astId":103156,"contract":"pkg/contracts/src/CVStrategy/facets/CVProposalFacet.sol:CVProposalFacet","label":"maxAmount","offset":0,"slot":"0","type":"t_uint256"}]},"t_struct(Proposal)103149_storage":{"encoding":"inplace","label":"struct Proposal","numberOfBytes":"576","members":[{"astId":103115,"contract":"pkg/contracts/src/CVStrategy/facets/CVProposalFacet.sol:CVProposalFacet","label":"proposalId","offset":0,"slot":"0","type":"t_uint256"},{"astId":103117,"contract":"pkg/contracts/src/CVStrategy/facets/CVProposalFacet.sol:CVProposalFacet","label":"requestedAmount","offset":0,"slot":"1","type":"t_uint256"},{"astId":103119,"contract":"pkg/contracts/src/CVStrategy/facets/CVProposalFacet.sol:CVProposalFacet","label":"stakedAmount","offset":0,"slot":"2","type":"t_uint256"},{"astId":103121,"contract":"pkg/contracts/src/CVStrategy/facets/CVProposalFacet.sol:CVProposalFacet","label":"convictionLast","offset":0,"slot":"3","type":"t_uint256"},{"astId":103123,"contract":"pkg/contracts/src/CVStrategy/facets/CVProposalFacet.sol:CVProposalFacet","label":"beneficiary","offset":0,"slot":"4","type":"t_address"},{"astId":103125,"contract":"pkg/contracts/src/CVStrategy/facets/CVProposalFacet.sol:CVProposalFacet","label":"submitter","offset":0,"slot":"5","type":"t_address"},{"astId":103127,"contract":"pkg/contracts/src/CVStrategy/facets/CVProposalFacet.sol:CVProposalFacet","label":"requestedToken","offset":0,"slot":"6","type":"t_address"},{"astId":103129,"contract":"pkg/contracts/src/CVStrategy/facets/CVProposalFacet.sol:CVProposalFacet","label":"blockLast","offset":0,"slot":"7","type":"t_uint256"},{"astId":103132,"contract":"pkg/contracts/src/CVStrategy/facets/CVProposalFacet.sol:CVProposalFacet","label":"proposalStatus","offset":0,"slot":"8","type":"t_enum(ProposalStatus)103106"},{"astId":103136,"contract":"pkg/contracts/src/CVStrategy/facets/CVProposalFacet.sol:CVProposalFacet","label":"voterStakedPoints","offset":0,"slot":"9","type":"t_mapping(t_address,t_uint256)"},{"astId":103139,"contract":"pkg/contracts/src/CVStrategy/facets/CVProposalFacet.sol:CVProposalFacet","label":"metadata","offset":0,"slot":"10","type":"t_struct(Metadata)3086_storage"},{"astId":103142,"contract":"pkg/contracts/src/CVStrategy/facets/CVProposalFacet.sol:CVProposalFacet","label":"disputeInfo","offset":0,"slot":"12","type":"t_struct(ProposalDisputeInfo)103113_storage"},{"astId":103144,"contract":"pkg/contracts/src/CVStrategy/facets/CVProposalFacet.sol:CVProposalFacet","label":"lastDisputeCompletion","offset":0,"slot":"15","type":"t_uint256"},{"astId":103146,"contract":"pkg/contracts/src/CVStrategy/facets/CVProposalFacet.sol:CVProposalFacet","label":"arbitrableConfigVersion","offset":0,"slot":"16","type":"t_uint256"},{"astId":103148,"contract":"pkg/contracts/src/CVStrategy/facets/CVProposalFacet.sol:CVProposalFacet","label":"creationTimestamp","offset":0,"slot":"17","type":"t_uint256"}]},"t_struct(ProposalDisputeInfo)103113_storage":{"encoding":"inplace","label":"struct ProposalDisputeInfo","numberOfBytes":"96","members":[{"astId":103108,"contract":"pkg/contracts/src/CVStrategy/facets/CVProposalFacet.sol:CVProposalFacet","label":"disputeId","offset":0,"slot":"0","type":"t_uint256"},{"astId":103110,"contract":"pkg/contracts/src/CVStrategy/facets/CVProposalFacet.sol:CVProposalFacet","label":"disputeTimestamp","offset":0,"slot":"1","type":"t_uint256"},{"astId":103112,"contract":"pkg/contracts/src/CVStrategy/facets/CVProposalFacet.sol:CVProposalFacet","label":"challenger","offset":0,"slot":"2","type":"t_address"}]},"t_uint256":{"encoding":"inplace","label":"uint256","numberOfBytes":"32"},"t_uint64":{"encoding":"inplace","label":"uint64","numberOfBytes":"8"},"t_uint8":{"encoding":"inplace","label":"uint8","numberOfBytes":"1"}}},"id":177}