{"abi":[{"type":"fallback","stateMutability":"payable"},{"type":"receive","stateMutability":"payable"},{"type":"function","name":"D","inputs":[],"outputs":[{"name":"","type":"uint256","internalType":"uint256"}],"stateMutability":"view"},{"type":"function","name":"DISPUTE_COOLDOWN_SEC","inputs":[],"outputs":[{"name":"","type":"uint256","internalType":"uint256"}],"stateMutability":"view"},{"type":"function","name":"MAX_STAKED_PROPOSALS","inputs":[],"outputs":[{"name":"","type":"uint256","internalType":"uint256"}],"stateMutability":"view"},{"type":"function","name":"NATIVE","inputs":[],"outputs":[{"name":"","type":"address","internalType":"address"}],"stateMutability":"view"},{"type":"function","name":"RULING_OPTIONS","inputs":[],"outputs":[{"name":"","type":"uint256","internalType":"uint256"}],"stateMutability":"view"},{"type":"function","name":"VERSION","inputs":[],"outputs":[{"name":"","type":"string","internalType":"string"}],"stateMutability":"view"},{"type":"function","name":"activatePoints","inputs":[],"outputs":[],"stateMutability":"nonpayable"},{"type":"function","name":"addToAllowList","inputs":[{"name":"members","type":"address[]","internalType":"address[]"}],"outputs":[],"stateMutability":"nonpayable"},{"type":"function","name":"allocate","inputs":[{"name":"_data","type":"bytes","internalType":"bytes"},{"name":"_sender","type":"address","internalType":"address"}],"outputs":[],"stateMutability":"payable"},{"type":"function","name":"arbitrableConfigs","inputs":[{"name":"","type":"uint256","internalType":"uint256"}],"outputs":[{"name":"arbitrator","type":"address","internalType":"contract IArbitrator"},{"name":"tribunalSafe","type":"address","internalType":"address"},{"name":"submitterCollateralAmount","type":"uint256","internalType":"uint256"},{"name":"challengerCollateralAmount","type":"uint256","internalType":"uint256"},{"name":"defaultRuling","type":"uint256","internalType":"uint256"},{"name":"defaultRulingTimeout","type":"uint256","internalType":"uint256"}],"stateMutability":"view"},{"type":"function","name":"calculateConviction","inputs":[{"name":"_timePassed","type":"uint256","internalType":"uint256"},{"name":"_lastConv","type":"uint256","internalType":"uint256"},{"name":"_oldAmount","type":"uint256","internalType":"uint256"}],"outputs":[{"name":"","type":"uint256","internalType":"uint256"}],"stateMutability":"view"},{"type":"function","name":"calculateThreshold","inputs":[{"name":"_requestedAmount","type":"uint256","internalType":"uint256"}],"outputs":[{"name":"_threshold","type":"uint256","internalType":"uint256"}],"stateMutability":"view"},{"type":"function","name":"canExecuteProposal","inputs":[{"name":"proposalId","type":"uint256","internalType":"uint256"}],"outputs":[{"name":"canBeExecuted","type":"bool","internalType":"bool"}],"stateMutability":"view"},{"type":"function","name":"cancelProposal","inputs":[{"name":"proposalId","type":"uint256","internalType":"uint256"}],"outputs":[],"stateMutability":"nonpayable"},{"type":"function","name":"cloneNonce","inputs":[],"outputs":[{"name":"","type":"uint256","internalType":"uint256"}],"stateMutability":"view"},{"type":"function","name":"collateralVault","inputs":[],"outputs":[{"name":"","type":"address","internalType":"contract ICollateralVault"}],"stateMutability":"view"},{"type":"function","name":"currentArbitrableConfigVersion","inputs":[],"outputs":[{"name":"","type":"uint256","internalType":"uint256"}],"stateMutability":"view"},{"type":"function","name":"cvParams","inputs":[],"outputs":[{"name":"maxRatio","type":"uint256","internalType":"uint256"},{"name":"weight","type":"uint256","internalType":"uint256"},{"name":"decay","type":"uint256","internalType":"uint256"},{"name":"minThresholdPoints","type":"uint256","internalType":"uint256"}],"stateMutability":"view"},{"type":"function","name":"deactivatePoints","inputs":[],"outputs":[],"stateMutability":"nonpayable"},{"type":"function","name":"deactivatePoints","inputs":[{"name":"_member","type":"address","internalType":"address"}],"outputs":[],"stateMutability":"nonpayable"},{"type":"function","name":"decreasePower","inputs":[{"name":"_member","type":"address","internalType":"address"},{"name":"_amountToUnstake","type":"uint256","internalType":"uint256"}],"outputs":[{"name":"","type":"uint256","internalType":"uint256"}],"stateMutability":"nonpayable"},{"type":"function","name":"disputeCount","inputs":[],"outputs":[{"name":"","type":"uint64","internalType":"uint64"}],"stateMutability":"view"},{"type":"function","name":"disputeIdToProposalId","inputs":[{"name":"","type":"uint256","internalType":"uint256"}],"outputs":[{"name":"","type":"uint256","internalType":"uint256"}],"stateMutability":"view"},{"type":"function","name":"disputeProposal","inputs":[{"name":"proposalId","type":"uint256","internalType":"uint256"},{"name":"context","type":"string","internalType":"string"},{"name":"_extraData","type":"bytes","internalType":"bytes"}],"outputs":[{"name":"disputeId","type":"uint256","internalType":"uint256"}],"stateMutability":"payable"},{"type":"function","name":"distribute","inputs":[{"name":"_recipientIds","type":"address[]","internalType":"address[]"},{"name":"_data","type":"bytes","internalType":"bytes"},{"name":"_sender","type":"address","internalType":"address"}],"outputs":[],"stateMutability":"nonpayable"},{"type":"function","name":"getAllo","inputs":[],"outputs":[{"name":"","type":"address","internalType":"contract IAllo"}],"stateMutability":"view"},{"type":"function","name":"getArbitrableConfig","inputs":[],"outputs":[{"name":"arbitrator","type":"address","internalType":"contract IArbitrator"},{"name":"tribunalSafe","type":"address","internalType":"address"},{"name":"submitterCollateralAmount","type":"uint256","internalType":"uint256"},{"name":"challengerCollateralAmount","type":"uint256","internalType":"uint256"},{"name":"defaultRuling","type":"uint256","internalType":"uint256"},{"name":"defaultRulingTimeout","type":"uint256","internalType":"uint256"}],"stateMutability":"view"},{"type":"function","name":"getMaxAmount","inputs":[],"outputs":[{"name":"","type":"uint256","internalType":"uint256"}],"stateMutability":"view"},{"type":"function","name":"getMaxConviction","inputs":[{"name":"amount","type":"uint256","internalType":"uint256"}],"outputs":[{"name":"","type":"uint256","internalType":"uint256"}],"stateMutability":"view"},{"type":"function","name":"getMetadata","inputs":[{"name":"_proposalId","type":"uint256","internalType":"uint256"}],"outputs":[{"name":"","type":"tuple","internalType":"struct Metadata","components":[{"name":"protocol","type":"uint256","internalType":"uint256"},{"name":"pointer","type":"string","internalType":"string"}]}],"stateMutability":"view"},{"type":"function","name":"getPayouts","inputs":[{"name":"","type":"address[]","internalType":"address[]"},{"name":"","type":"bytes[]","internalType":"bytes[]"}],"outputs":[{"name":"","type":"tuple[]","internalType":"struct IStrategy.PayoutSummary[]","components":[{"name":"recipientAddress","type":"address","internalType":"address"},{"name":"amount","type":"uint256","internalType":"uint256"}]}],"stateMutability":"pure"},{"type":"function","name":"getPointSystem","inputs":[],"outputs":[{"name":"","type":"uint8","internalType":"enum PointSystem"}],"stateMutability":"view"},{"type":"function","name":"getPoolAmount","inputs":[],"outputs":[{"name":"","type":"uint256","internalType":"uint256"}],"stateMutability":"view"},{"type":"function","name":"getPoolId","inputs":[],"outputs":[{"name":"","type":"uint256","internalType":"uint256"}],"stateMutability":"view"},{"type":"function","name":"getProposal","inputs":[{"name":"_proposalId","type":"uint256","internalType":"uint256"}],"outputs":[{"name":"submitter","type":"address","internalType":"address"},{"name":"beneficiary","type":"address","internalType":"address"},{"name":"requestedToken","type":"address","internalType":"address"},{"name":"requestedAmount","type":"uint256","internalType":"uint256"},{"name":"stakedAmount","type":"uint256","internalType":"uint256"},{"name":"proposalStatus","type":"uint8","internalType":"enum ProposalStatus"},{"name":"blockLast","type":"uint256","internalType":"uint256"},{"name":"convictionLast","type":"uint256","internalType":"uint256"},{"name":"threshold","type":"uint256","internalType":"uint256"},{"name":"voterStakedPoints","type":"uint256","internalType":"uint256"},{"name":"arbitrableConfigVersion","type":"uint256","internalType":"uint256"}],"stateMutability":"view"},{"type":"function","name":"getProposalStakedAmount","inputs":[{"name":"_proposalId","type":"uint256","internalType":"uint256"}],"outputs":[{"name":"","type":"uint256","internalType":"uint256"}],"stateMutability":"view"},{"type":"function","name":"getProposalVoterStake","inputs":[{"name":"_proposalId","type":"uint256","internalType":"uint256"},{"name":"_voter","type":"address","internalType":"address"}],"outputs":[{"name":"","type":"uint256","internalType":"uint256"}],"stateMutability":"view"},{"type":"function","name":"getRecipientStatus","inputs":[{"name":"_recipientId","type":"address","internalType":"address"}],"outputs":[{"name":"","type":"uint8","internalType":"enum IStrategy.Status"}],"stateMutability":"view"},{"type":"function","name":"getStrategyId","inputs":[],"outputs":[{"name":"","type":"bytes32","internalType":"bytes32"}],"stateMutability":"view"},{"type":"function","name":"getTotalVoterStakePct","inputs":[{"name":"_voter","type":"address","internalType":"address"}],"outputs":[{"name":"","type":"uint256","internalType":"uint256"}],"stateMutability":"view"},{"type":"function","name":"increasePoolAmount","inputs":[{"name":"_amount","type":"uint256","internalType":"uint256"}],"outputs":[],"stateMutability":"nonpayable"},{"type":"function","name":"increasePower","inputs":[{"name":"_member","type":"address","internalType":"address"},{"name":"_amountToStake","type":"uint256","internalType":"uint256"}],"outputs":[{"name":"","type":"uint256","internalType":"uint256"}],"stateMutability":"nonpayable"},{"type":"function","name":"init","inputs":[{"name":"_allo","type":"address","internalType":"address"},{"name":"_collateralVaultTemplate","type":"address","internalType":"address"},{"name":"owner","type":"address","internalType":"address"}],"outputs":[],"stateMutability":"nonpayable"},{"type":"function","name":"init","inputs":[{"name":"_allo","type":"address","internalType":"address"},{"name":"_name","type":"string","internalType":"string"},{"name":"owner","type":"address","internalType":"address"}],"outputs":[],"stateMutability":"nonpayable"},{"type":"function","name":"initialize","inputs":[{"name":"initialOwner","type":"address","internalType":"address"}],"outputs":[],"stateMutability":"nonpayable"},{"type":"function","name":"initialize","inputs":[{"name":"_poolId","type":"uint256","internalType":"uint256"},{"name":"_data","type":"bytes","internalType":"bytes"}],"outputs":[],"stateMutability":"nonpayable"},{"type":"function","name":"isPoolActive","inputs":[],"outputs":[{"name":"","type":"bool","internalType":"bool"}],"stateMutability":"view"},{"type":"function","name":"isValidAllocator","inputs":[{"name":"_allocator","type":"address","internalType":"address"}],"outputs":[{"name":"","type":"bool","internalType":"bool"}],"stateMutability":"view"},{"type":"function","name":"owner","inputs":[],"outputs":[{"name":"","type":"address","internalType":"address"}],"stateMutability":"view"},{"type":"function","name":"pointConfig","inputs":[],"outputs":[{"name":"maxAmount","type":"uint256","internalType":"uint256"}],"stateMutability":"view"},{"type":"function","name":"pointSystem","inputs":[],"outputs":[{"name":"","type":"uint8","internalType":"enum PointSystem"}],"stateMutability":"view"},{"type":"function","name":"proposalCounter","inputs":[],"outputs":[{"name":"","type":"uint256","internalType":"uint256"}],"stateMutability":"view"},{"type":"function","name":"proposalType","inputs":[],"outputs":[{"name":"","type":"uint8","internalType":"enum ProposalType"}],"stateMutability":"view"},{"type":"function","name":"proposals","inputs":[{"name":"","type":"uint256","internalType":"uint256"}],"outputs":[{"name":"proposalId","type":"uint256","internalType":"uint256"},{"name":"requestedAmount","type":"uint256","internalType":"uint256"},{"name":"stakedAmount","type":"uint256","internalType":"uint256"},{"name":"convictionLast","type":"uint256","internalType":"uint256"},{"name":"beneficiary","type":"address","internalType":"address"},{"name":"submitter","type":"address","internalType":"address"},{"name":"requestedToken","type":"address","internalType":"address"},{"name":"blockLast","type":"uint256","internalType":"uint256"},{"name":"proposalStatus","type":"uint8","internalType":"enum ProposalStatus"},{"name":"metadata","type":"tuple","internalType":"struct Metadata","components":[{"name":"protocol","type":"uint256","internalType":"uint256"},{"name":"pointer","type":"string","internalType":"string"}]},{"name":"disputeInfo","type":"tuple","internalType":"struct ProposalDisputeInfo","components":[{"name":"disputeId","type":"uint256","internalType":"uint256"},{"name":"disputeTimestamp","type":"uint256","internalType":"uint256"},{"name":"challenger","type":"address","internalType":"address"}]},{"name":"lastDisputeCompletion","type":"uint256","internalType":"uint256"},{"name":"arbitrableConfigVersion","type":"uint256","internalType":"uint256"}],"stateMutability":"view"},{"type":"function","name":"proxiableUUID","inputs":[],"outputs":[{"name":"","type":"bytes32","internalType":"bytes32"}],"stateMutability":"view"},{"type":"function","name":"registerRecipient","inputs":[{"name":"_data","type":"bytes","internalType":"bytes"},{"name":"_sender","type":"address","internalType":"address"}],"outputs":[{"name":"recipientId","type":"address","internalType":"address"}],"stateMutability":"payable"},{"type":"function","name":"registryCommunity","inputs":[],"outputs":[{"name":"","type":"address","internalType":"contract RegistryCommunityV0_0"}],"stateMutability":"view"},{"type":"function","name":"removeFromAllowList","inputs":[{"name":"members","type":"address[]","internalType":"address[]"}],"outputs":[],"stateMutability":"nonpayable"},{"type":"function","name":"renounceOwnership","inputs":[],"outputs":[],"stateMutability":"nonpayable"},{"type":"function","name":"rule","inputs":[{"name":"_disputeID","type":"uint256","internalType":"uint256"},{"name":"_ruling","type":"uint256","internalType":"uint256"}],"outputs":[],"stateMutability":"nonpayable"},{"type":"function","name":"setCollateralVaultTemplate","inputs":[{"name":"template","type":"address","internalType":"address"}],"outputs":[],"stateMutability":"nonpayable"},{"type":"function","name":"setPoolActive","inputs":[{"name":"_active","type":"bool","internalType":"bool"}],"outputs":[],"stateMutability":"nonpayable"},{"type":"function","name":"setPoolParams","inputs":[{"name":"_arbitrableConfig","type":"tuple","internalType":"struct ArbitrableConfig","components":[{"name":"arbitrator","type":"address","internalType":"contract IArbitrator"},{"name":"tribunalSafe","type":"address","internalType":"address"},{"name":"submitterCollateralAmount","type":"uint256","internalType":"uint256"},{"name":"challengerCollateralAmount","type":"uint256","internalType":"uint256"},{"name":"defaultRuling","type":"uint256","internalType":"uint256"},{"name":"defaultRulingTimeout","type":"uint256","internalType":"uint256"}]},{"name":"_cvParams","type":"tuple","internalType":"struct CVParams","components":[{"name":"maxRatio","type":"uint256","internalType":"uint256"},{"name":"weight","type":"uint256","internalType":"uint256"},{"name":"decay","type":"uint256","internalType":"uint256"},{"name":"minThresholdPoints","type":"uint256","internalType":"uint256"}]},{"name":"membersToAdd","type":"address[]","internalType":"address[]"},{"name":"membersToRemove","type":"address[]","internalType":"address[]"}],"outputs":[],"stateMutability":"nonpayable"},{"type":"function","name":"setPoolParams","inputs":[{"name":"_arbitrableConfig","type":"tuple","internalType":"struct ArbitrableConfig","components":[{"name":"arbitrator","type":"address","internalType":"contract IArbitrator"},{"name":"tribunalSafe","type":"address","internalType":"address"},{"name":"submitterCollateralAmount","type":"uint256","internalType":"uint256"},{"name":"challengerCollateralAmount","type":"uint256","internalType":"uint256"},{"name":"defaultRuling","type":"uint256","internalType":"uint256"},{"name":"defaultRulingTimeout","type":"uint256","internalType":"uint256"}]},{"name":"_cvParams","type":"tuple","internalType":"struct CVParams","components":[{"name":"maxRatio","type":"uint256","internalType":"uint256"},{"name":"weight","type":"uint256","internalType":"uint256"},{"name":"decay","type":"uint256","internalType":"uint256"},{"name":"minThresholdPoints","type":"uint256","internalType":"uint256"}]},{"name":"sybilScoreThreshold","type":"uint256","internalType":"uint256"}],"outputs":[],"stateMutability":"nonpayable"},{"type":"function","name":"setSybilScorer","inputs":[{"name":"_sybilScorer","type":"address","internalType":"address"},{"name":"threshold","type":"uint256","internalType":"uint256"}],"outputs":[],"stateMutability":"nonpayable"},{"type":"function","name":"supportsInterface","inputs":[{"name":"interfaceId","type":"bytes4","internalType":"bytes4"}],"outputs":[{"name":"","type":"bool","internalType":"bool"}],"stateMutability":"view"},{"type":"function","name":"sybilScorer","inputs":[],"outputs":[{"name":"","type":"address","internalType":"contract ISybilScorer"}],"stateMutability":"view"},{"type":"function","name":"totalEffectiveActivePoints","inputs":[],"outputs":[{"name":"","type":"uint256","internalType":"uint256"}],"stateMutability":"view"},{"type":"function","name":"totalPointsActivated","inputs":[],"outputs":[{"name":"","type":"uint256","internalType":"uint256"}],"stateMutability":"view"},{"type":"function","name":"totalStaked","inputs":[],"outputs":[{"name":"","type":"uint256","internalType":"uint256"}],"stateMutability":"view"},{"type":"function","name":"totalVoterStakePct","inputs":[{"name":"","type":"address","internalType":"address"}],"outputs":[{"name":"","type":"uint256","internalType":"uint256"}],"stateMutability":"view"},{"type":"function","name":"transferOwnership","inputs":[{"name":"newOwner","type":"address","internalType":"address"}],"outputs":[],"stateMutability":"nonpayable"},{"type":"function","name":"updateProposalConviction","inputs":[{"name":"proposalId","type":"uint256","internalType":"uint256"}],"outputs":[{"name":"","type":"uint256","internalType":"uint256"}],"stateMutability":"nonpayable"},{"type":"function","name":"upgradeTo","inputs":[{"name":"newImplementation","type":"address","internalType":"address"}],"outputs":[],"stateMutability":"nonpayable"},{"type":"function","name":"upgradeToAndCall","inputs":[{"name":"newImplementation","type":"address","internalType":"address"},{"name":"data","type":"bytes","internalType":"bytes"}],"outputs":[],"stateMutability":"payable"},{"type":"function","name":"voterStakedProposals","inputs":[{"name":"","type":"address","internalType":"address"},{"name":"","type":"uint256","internalType":"uint256"}],"outputs":[{"name":"","type":"uint256","internalType":"uint256"}],"stateMutability":"view"},{"type":"event","name":"AdminChanged","inputs":[{"name":"previousAdmin","type":"address","indexed":false,"internalType":"address"},{"name":"newAdmin","type":"address","indexed":false,"internalType":"address"}],"anonymous":false},{"type":"event","name":"Allocated","inputs":[{"name":"recipientId","type":"address","indexed":true,"internalType":"address"},{"name":"amount","type":"uint256","indexed":false,"internalType":"uint256"},{"name":"token","type":"address","indexed":false,"internalType":"address"},{"name":"sender","type":"address","indexed":false,"internalType":"address"}],"anonymous":false},{"type":"event","name":"AllowlistMembersAdded","inputs":[{"name":"poolId","type":"uint256","indexed":false,"internalType":"uint256"},{"name":"members","type":"address[]","indexed":false,"internalType":"address[]"}],"anonymous":false},{"type":"event","name":"AllowlistMembersRemoved","inputs":[{"name":"poolId","type":"uint256","indexed":false,"internalType":"uint256"},{"name":"members","type":"address[]","indexed":false,"internalType":"address[]"}],"anonymous":false},{"type":"event","name":"ArbitrableConfigUpdated","inputs":[{"name":"currentArbitrableConfigVersion","type":"uint256","indexed":false,"internalType":"uint256"},{"name":"arbitrator","type":"address","indexed":false,"internalType":"contract IArbitrator"},{"name":"tribunalSafe","type":"address","indexed":false,"internalType":"address"},{"name":"submitterCollateralAmount","type":"uint256","indexed":false,"internalType":"uint256"},{"name":"challengerCollateralAmount","type":"uint256","indexed":false,"internalType":"uint256"},{"name":"defaultRuling","type":"uint256","indexed":false,"internalType":"uint256"},{"name":"defaultRulingTimeout","type":"uint256","indexed":false,"internalType":"uint256"}],"anonymous":false},{"type":"event","name":"BeaconUpgraded","inputs":[{"name":"beacon","type":"address","indexed":true,"internalType":"address"}],"anonymous":false},{"type":"event","name":"CVParamsUpdated","inputs":[{"name":"cvParams","type":"tuple","indexed":false,"internalType":"struct CVParams","components":[{"name":"maxRatio","type":"uint256","internalType":"uint256"},{"name":"weight","type":"uint256","internalType":"uint256"},{"name":"decay","type":"uint256","internalType":"uint256"},{"name":"minThresholdPoints","type":"uint256","internalType":"uint256"}]}],"anonymous":false},{"type":"event","name":"DisputeRequest","inputs":[{"name":"_arbitrator","type":"address","indexed":true,"internalType":"contract IArbitrator"},{"name":"_arbitrableDisputeID","type":"uint256","indexed":true,"internalType":"uint256"},{"name":"_externalDisputeID","type":"uint256","indexed":false,"internalType":"uint256"},{"name":"_templateId","type":"uint256","indexed":false,"internalType":"uint256"},{"name":"_templateUri","type":"string","indexed":false,"internalType":"string"}],"anonymous":false},{"type":"event","name":"Distributed","inputs":[{"name":"proposalId","type":"uint256","indexed":false,"internalType":"uint256"},{"name":"beneficiary","type":"address","indexed":false,"internalType":"address"},{"name":"amount","type":"uint256","indexed":false,"internalType":"uint256"}],"anonymous":false},{"type":"event","name":"Distributed","inputs":[{"name":"recipientId","type":"address","indexed":true,"internalType":"address"},{"name":"recipientAddress","type":"address","indexed":false,"internalType":"address"},{"name":"amount","type":"uint256","indexed":false,"internalType":"uint256"},{"name":"sender","type":"address","indexed":false,"internalType":"address"}],"anonymous":false},{"type":"event","name":"Initialized","inputs":[{"name":"poolId","type":"uint256","indexed":false,"internalType":"uint256"},{"name":"data","type":"bytes","indexed":false,"internalType":"bytes"}],"anonymous":false},{"type":"event","name":"Initialized","inputs":[{"name":"version","type":"uint8","indexed":false,"internalType":"uint8"}],"anonymous":false},{"type":"event","name":"InitializedCV","inputs":[{"name":"poolId","type":"uint256","indexed":false,"internalType":"uint256"},{"name":"data","type":"tuple","indexed":false,"internalType":"struct CVStrategyInitializeParamsV0_0","components":[{"name":"cvParams","type":"tuple","internalType":"struct CVParams","components":[{"name":"maxRatio","type":"uint256","internalType":"uint256"},{"name":"weight","type":"uint256","internalType":"uint256"},{"name":"decay","type":"uint256","internalType":"uint256"},{"name":"minThresholdPoints","type":"uint256","internalType":"uint256"}]},{"name":"proposalType","type":"uint8","internalType":"enum ProposalType"},{"name":"pointSystem","type":"uint8","internalType":"enum PointSystem"},{"name":"pointConfig","type":"tuple","internalType":"struct PointSystemConfig","components":[{"name":"maxAmount","type":"uint256","internalType":"uint256"}]},{"name":"arbitrableConfig","type":"tuple","internalType":"struct ArbitrableConfig","components":[{"name":"arbitrator","type":"address","internalType":"contract IArbitrator"},{"name":"tribunalSafe","type":"address","internalType":"address"},{"name":"submitterCollateralAmount","type":"uint256","internalType":"uint256"},{"name":"challengerCollateralAmount","type":"uint256","internalType":"uint256"},{"name":"defaultRuling","type":"uint256","internalType":"uint256"},{"name":"defaultRulingTimeout","type":"uint256","internalType":"uint256"}]},{"name":"registryCommunity","type":"address","internalType":"address"},{"name":"sybilScorer","type":"address","internalType":"address"}]}],"anonymous":false},{"type":"event","name":"InitializedCV2","inputs":[{"name":"poolId","type":"uint256","indexed":false,"internalType":"uint256"},{"name":"data","type":"tuple","indexed":false,"internalType":"struct CVStrategyInitializeParamsV0_1","components":[{"name":"cvParams","type":"tuple","internalType":"struct CVParams","components":[{"name":"maxRatio","type":"uint256","internalType":"uint256"},{"name":"weight","type":"uint256","internalType":"uint256"},{"name":"decay","type":"uint256","internalType":"uint256"},{"name":"minThresholdPoints","type":"uint256","internalType":"uint256"}]},{"name":"proposalType","type":"uint8","internalType":"enum ProposalType"},{"name":"pointSystem","type":"uint8","internalType":"enum PointSystem"},{"name":"pointConfig","type":"tuple","internalType":"struct PointSystemConfig","components":[{"name":"maxAmount","type":"uint256","internalType":"uint256"}]},{"name":"arbitrableConfig","type":"tuple","internalType":"struct ArbitrableConfig","components":[{"name":"arbitrator","type":"address","internalType":"contract IArbitrator"},{"name":"tribunalSafe","type":"address","internalType":"address"},{"name":"submitterCollateralAmount","type":"uint256","internalType":"uint256"},{"name":"challengerCollateralAmount","type":"uint256","internalType":"uint256"},{"name":"defaultRuling","type":"uint256","internalType":"uint256"},{"name":"defaultRulingTimeout","type":"uint256","internalType":"uint256"}]},{"name":"registryCommunity","type":"address","internalType":"address"},{"name":"sybilScorer","type":"address","internalType":"address"},{"name":"sybilScorerThreshold","type":"uint256","internalType":"uint256"},{"name":"initialAllowlist","type":"address[]","internalType":"address[]"}]}],"anonymous":false},{"type":"event","name":"OwnershipTransferred","inputs":[{"name":"previousOwner","type":"address","indexed":true,"internalType":"address"},{"name":"newOwner","type":"address","indexed":true,"internalType":"address"}],"anonymous":false},{"type":"event","name":"PointsDeactivated","inputs":[{"name":"member","type":"address","indexed":false,"internalType":"address"}],"anonymous":false},{"type":"event","name":"PoolActive","inputs":[{"name":"active","type":"bool","indexed":false,"internalType":"bool"}],"anonymous":false},{"type":"event","name":"PoolAmountIncreased","inputs":[{"name":"amount","type":"uint256","indexed":false,"internalType":"uint256"}],"anonymous":false},{"type":"event","name":"PowerDecreased","inputs":[{"name":"member","type":"address","indexed":false,"internalType":"address"},{"name":"tokensUnStaked","type":"uint256","indexed":false,"internalType":"uint256"},{"name":"pointsToDecrease","type":"uint256","indexed":false,"internalType":"uint256"}],"anonymous":false},{"type":"event","name":"PowerIncreased","inputs":[{"name":"member","type":"address","indexed":false,"internalType":"address"},{"name":"tokensStaked","type":"uint256","indexed":false,"internalType":"uint256"},{"name":"pointsToIncrease","type":"uint256","indexed":false,"internalType":"uint256"}],"anonymous":false},{"type":"event","name":"ProposalCancelled","inputs":[{"name":"proposalId","type":"uint256","indexed":false,"internalType":"uint256"}],"anonymous":false},{"type":"event","name":"ProposalCreated","inputs":[{"name":"poolId","type":"uint256","indexed":false,"internalType":"uint256"},{"name":"proposalId","type":"uint256","indexed":false,"internalType":"uint256"}],"anonymous":false},{"type":"event","name":"ProposalDisputed","inputs":[{"name":"arbitrator","type":"address","indexed":false,"internalType":"contract IArbitrator"},{"name":"proposalId","type":"uint256","indexed":false,"internalType":"uint256"},{"name":"disputeId","type":"uint256","indexed":false,"internalType":"uint256"},{"name":"challenger","type":"address","indexed":false,"internalType":"address"},{"name":"context","type":"string","indexed":false,"internalType":"string"},{"name":"timestamp","type":"uint256","indexed":false,"internalType":"uint256"}],"anonymous":false},{"type":"event","name":"Registered","inputs":[{"name":"recipientId","type":"address","indexed":true,"internalType":"address"},{"name":"data","type":"bytes","indexed":false,"internalType":"bytes"},{"name":"sender","type":"address","indexed":false,"internalType":"address"}],"anonymous":false},{"type":"event","name":"RegistryUpdated","inputs":[{"name":"registryCommunity","type":"address","indexed":false,"internalType":"address"}],"anonymous":false},{"type":"event","name":"Ruling","inputs":[{"name":"_arbitrator","type":"address","indexed":true,"internalType":"contract IArbitrator"},{"name":"_disputeID","type":"uint256","indexed":true,"internalType":"uint256"},{"name":"_ruling","type":"uint256","indexed":false,"internalType":"uint256"}],"anonymous":false},{"type":"event","name":"SupportAdded","inputs":[{"name":"from","type":"address","indexed":false,"internalType":"address"},{"name":"proposalId","type":"uint256","indexed":false,"internalType":"uint256"},{"name":"amount","type":"uint256","indexed":false,"internalType":"uint256"},{"name":"totalStakedAmount","type":"uint256","indexed":false,"internalType":"uint256"},{"name":"convictionLast","type":"uint256","indexed":false,"internalType":"uint256"}],"anonymous":false},{"type":"event","name":"SybilScorerUpdated","inputs":[{"name":"sybilScorer","type":"address","indexed":false,"internalType":"address"}],"anonymous":false},{"type":"event","name":"TribunaSafeRegistered","inputs":[{"name":"strategy","type":"address","indexed":false,"internalType":"address"},{"name":"arbitrator","type":"address","indexed":false,"internalType":"address"},{"name":"tribunalSafe","type":"address","indexed":false,"internalType":"address"}],"anonymous":false},{"type":"event","name":"Upgraded","inputs":[{"name":"implementation","type":"address","indexed":true,"internalType":"address"}],"anonymous":false},{"type":"error","name":"ALLOCATION_ACTIVE","inputs":[]},{"type":"error","name":"ALLOCATION_NOT_ACTIVE","inputs":[]},{"type":"error","name":"ALLOCATION_NOT_ENDED","inputs":[]},{"type":"error","name":"ALREADY_INITIALIZED","inputs":[]},{"type":"error","name":"AMOUNT_MISMATCH","inputs":[]},{"type":"error","name":"ANCHOR_ERROR","inputs":[]},{"type":"error","name":"ARRAY_MISMATCH","inputs":[]},{"type":"error","name":"AShouldBeUnderOrEqTwo_128","inputs":[]},{"type":"error","name":"AShouldBeUnderTwo_128","inputs":[]},{"type":"error","name":"AddressCannotBeZero","inputs":[]},{"type":"error","name":"AmountOverMaxRatio","inputs":[]},{"type":"error","name":"ArbitratorCannotBeZero","inputs":[]},{"type":"error","name":"BShouldBeLessTwo_128","inputs":[]},{"type":"error","name":"CallerNotOwner","inputs":[{"name":"_caller","type":"address","internalType":"address"},{"name":"_owner","type":"address","internalType":"address"}]},{"type":"error","name":"ConvictionUnderMinimumThreshold","inputs":[]},{"type":"error","name":"DefaultRulingNotSet","inputs":[]},{"type":"error","name":"DisputeCooldownNotPassed","inputs":[{"name":"_proposalId","type":"uint256","internalType":"uint256"},{"name":"_remainingSec","type":"uint256","internalType":"uint256"}]},{"type":"error","name":"INVALID","inputs":[]},{"type":"error","name":"INVALID_ADDRESS","inputs":[]},{"type":"error","name":"INVALID_FEE","inputs":[]},{"type":"error","name":"INVALID_METADATA","inputs":[]},{"type":"error","name":"INVALID_REGISTRATION","inputs":[]},{"type":"error","name":"IS_APPROVED_STRATEGY","inputs":[]},{"type":"error","name":"InsufficientCollateral","inputs":[{"name":"sentAmount","type":"uint256","internalType":"uint256"},{"name":"requiredAmount","type":"uint256","internalType":"uint256"}]},{"type":"error","name":"MISMATCH","inputs":[]},{"type":"error","name":"NONCE_NOT_AVAILABLE","inputs":[]},{"type":"error","name":"NOT_APPROVED_STRATEGY","inputs":[]},{"type":"error","name":"NOT_ENOUGH_FUNDS","inputs":[]},{"type":"error","name":"NOT_IMPLEMENTED","inputs":[]},{"type":"error","name":"NOT_INITIALIZED","inputs":[]},{"type":"error","name":"NOT_PENDING_OWNER","inputs":[]},{"type":"error","name":"NotEnoughPointsToSupport","inputs":[{"name":"pointsSupport","type":"uint256","internalType":"uint256"},{"name":"pointsBalance","type":"uint256","internalType":"uint256"}]},{"type":"error","name":"NotImplemented","inputs":[]},{"type":"error","name":"OnlyArbitrator","inputs":[]},{"type":"error","name":"OnlyCommunityAllowed","inputs":[]},{"type":"error","name":"OnlyCouncilSafe","inputs":[]},{"type":"error","name":"OnlySubmitter","inputs":[{"name":"submitter","type":"address","internalType":"address"},{"name":"sender","type":"address","internalType":"address"}]},{"type":"error","name":"POOL_ACTIVE","inputs":[]},{"type":"error","name":"POOL_INACTIVE","inputs":[]},{"type":"error","name":"PoolAmountNotEnough","inputs":[{"name":"_proposalId","type":"uint256","internalType":"uint256"},{"name":"_requestedAmount","type":"uint256","internalType":"uint256"},{"name":"_poolAmount","type":"uint256","internalType":"uint256"}]},{"type":"error","name":"PoolIsEmpty","inputs":[]},{"type":"error","name":"ProposalDataIsEmpty","inputs":[]},{"type":"error","name":"ProposalIdCannotBeZero","inputs":[]},{"type":"error","name":"ProposalInvalidForAllocation","inputs":[{"name":"_proposalId","type":"uint256","internalType":"uint256"},{"name":"_proposalStatus","type":"uint8","internalType":"enum ProposalStatus"}]},{"type":"error","name":"ProposalNotActive","inputs":[{"name":"_proposalId","type":"uint256","internalType":"uint256"}]},{"type":"error","name":"ProposalNotDisputed","inputs":[{"name":"_proposalId","type":"uint256","internalType":"uint256"}]},{"type":"error","name":"ProposalNotInList","inputs":[{"name":"_proposalId","type":"uint256","internalType":"uint256"}]},{"type":"error","name":"ProposalSupportDuplicated","inputs":[{"name":"_proposalId","type":"uint256","internalType":"uint256"},{"name":"index","type":"uint256","internalType":"uint256"}]},{"type":"error","name":"RECIPIENT_ALREADY_ACCEPTED","inputs":[]},{"type":"error","name":"RECIPIENT_ERROR","inputs":[{"name":"recipientId","type":"address","internalType":"address"}]},{"type":"error","name":"RECIPIENT_NOT_ACCEPTED","inputs":[]},{"type":"error","name":"REGISTRATION_NOT_ACTIVE","inputs":[]},{"type":"error","name":"RegistryCannotBeZero","inputs":[]},{"type":"error","name":"SupportUnderflow","inputs":[{"name":"_support","type":"uint256","internalType":"uint256"},{"name":"_delta","type":"int256","internalType":"int256"},{"name":"_result","type":"int256","internalType":"int256"}]},{"type":"error","name":"TokenCannotBeZero","inputs":[]},{"type":"error","name":"TokenNotAllowed","inputs":[]},{"type":"error","name":"UNAUTHORIZED","inputs":[]},{"type":"error","name":"UserCannotBeZero","inputs":[]},{"type":"error","name":"UserCannotExecuteAction","inputs":[]},{"type":"error","name":"UserIsInactive","inputs":[]},{"type":"error","name":"UserNotInRegistry","inputs":[]},{"type":"error","name":"ZERO_ADDRESS","inputs":[]}],"bytecode":{"object":"0x60a080604052346100325730608052615fef90816200003882396080518181816124c9015281816125b301526129a00152f35b600080fdfe60806040526004361015610018575b361561001657005b005b6000803560e01c8063013cf08b14613f3357806301ffc9a714613edc578063059351cd14613e855780630a6f0ee914613b2e5780630ba9590914611c245780630bece79c14613b055780630c0512e914613ae75780630f529ba214613ac9578063125fd1d914613aab57806315cc481e14613a82578063184b9559146138d35780631aa91a9e146138b45780631ddf1e231461389a5780632506b87014613863578063255ffb38146138395780632bbe0cae146133875780632dbd6fdd146115655780632ed04b2b14613115578063311a6c5614612b795780633396045914612b5b578063346db8cb14612b36578063351d9f9614612b105780633659cfe61461297b5780633864d366146128f957806338fff2d0146128db578063406244d8146128bf57806341bb76051461286757806342fda9c7146128495780634ab4ba421461282b5780634d31d087146112235780634f1ef2861461257557806352d1902d146124b657806359a5db8b146124975780635db64b99146115905780636003e4141461246e57806360d5dedc146123b3578063626c47e8146123975780636453d9c41461236d578063715018a6146123215780637263cfe2146122e0578063782aadff14611f3a578063814516ad14611e42578063817b1cd214611e24578063824ea8ed14611db7578063868c57b814611d615780638da5cb5b14611d34578063948e7a5914611cc1578063950559d714611c9a578063a0cf0aea14611c6b578063a28889e114611c42578063a47ff7e514611c24578063a51312c814611be3578063a574cea414611b8d578063aba9ffee1461143a578063ad56fd5d14611af3578063b0d3713a14611aae578063b2b878d0146119eb578063b41596ec1461164e578063b5f620ce146115f2578063b6c61f31146115c9578063bcc5b93b14611590578063c329217114611565578063c4d66de814611533578063c7f758a814611458578063d1e362321461143a578063dc96ff2d1461140d578063df868ed3146113ea578063e0a8f6f514611293578063e0dd2c3814611249578063eb11af9314611223578063edd146cc14610bc3578063ef2920fc146104b9578063f2fde38b14610428578063f5b0dfb7146103cf578063f5be3f7c146103b25763ffa1ad7414610368575061000e565b346103af57806003193601126103af576103ab60405161038781614106565b60038152620302e360ec1b60208201526040519182916020835260208301906142a5565b0390f35b80fd5b50346103af57806003193601126103af576020604051611c208152f35b50346103af5760203660031901126103af577f46aeb5d8770fc4474bc2dfa118fd2595f7fb33ce2cbce6f4e5a3dabfe0f76339602060043561040f61486e565b61041b8160695461484b565b606955604051908152a180f35b50346103af5760203660031901126103af5761044261434a565b61044a61458e565b6001600160a01b0381161561046557610462906145ed565b80f35b60405162461bcd60e51b815260206004820152602660248201527f4f776e61626c653a206e6577206f776e657220697320746865207a65726f206160448201526564647265737360d01b6064820152608490fd5b506104c336614451565b6104ce92919261486e565b6104d6614894565b8251916020916104ed8380870195870101856150d1565b93825b85518110156105d757610503818761516f565b515185610510838961516f565b510151818652607b87528560408120911380610569575b61053b575050610536906148b0565b6104f0565b9060ff6008604493015416604051916394d57ead60e01b8352600483015261056281614262565b6024820152fd5b5060ff60088201541661057b81614262565b80159081156105c2575b81156105ad575b8115610599575b50610527565b600691506105a681614262565b1438610593565b90506105b881614262565b600481149061058c565b90506105cd81614262565b6003811490610585565b506105f2849182886105e886614a76565b80510101906150d1565b6105fb83614b51565b15610b8b575b60785460405163011de97360e61b81526001600160a01b03918216959084818061062f308a60048401614b37565b03818a5afa908115610b80578291610b53575b5015610b415780959194959161065787614b51565b96829715935b855189101561070e5784806106f8575b6106e65761067b898761516f565b5151156106dc5761068c898761516f565b5151610697816151a4565b156106c457506106b86106be91886106af8c8a61516f565b510151906151fc565b986148b0565b9761065d565b6024906040519063c1d17bef60e01b82526004820152fd5b976106be906148b0565b604051630b72d6b160e31b8152600490fd5b5083876107058b8961516f565b5101511361066d565b91869061074d82889461072f8c821697888a52607c845260408a2054615218565b936040518080958194637817ee4f60e01b8352309060048401614b37565b03915afa908115610b36578691610b04575b50808211610ae65750838552607c825260408520558392839160609182915b8551851015610ae257610791858761516f565b5151928051156000146109da57506040516107ab81614106565b60018152818101823682378151156109c4578490525b816107cc878961516f565b51015194848952607b835260408920916009830190856000528185526107f86040600020549889615218565b91866000528552816040600020558a809a81928654935b898452607d89526040842080548210156109b25761082e8287926144ac565b90549060031b1c1461084c576108456040916148b0565b905061080f565b50989392915099959894939a5060015b1561094b575b506108c394939291908084116109125761087c8482614cc3565b610889607091825461484b565b90556108958482614cc3565b6108a46002850191825461484b565b90555b60078301928354156000146108cb5750505090504390556148b0565b93949261077e565b60a093506108e8600080516020615efa833981519152958261547d565b6003600282015491015491604051938985528b85015260408401528b8301526080820152a16148b0565b61091c8185614cc3565b6109296070918254614cc3565b90556109358185614cc3565b61094460028501918254614cc3565b90556108a7565b868c52607d895260408c20805490600160401b82101561099e578161097e9160016108c39a9998979695940181556144ac565b819291549060031b91821b91600019901b19161790559091929394610862565b634e487b7160e01b8e52604160045260248efd5b5050989392915099959894939a61085c565b634e487b7160e01b600052603260045260246000fd5b939195969294908396845b8651811015610a2b57876109f9828961516f565b5114610a0d57610a08906148b0565b6109e5565b8760449160405191632b7aec5560e21b835260048301526024820152fd5b5092949091959397966107c1578051906001808301809311610ace57610a508361431d565b92610a5e6040519485614172565b808452610a6d601f199161431d565b01368585013789815b610a8f575b5050610a898591518361516f565b526107c1565b829994979951811015610ac55780610aaa610abb928561516f565b51610ab5828761516f565b526148b0565b8199979499610a76565b98969398610a7b565b634e487b7160e01b8a52601160045260248afd5b8680f35b6044925060405191636b20c17f60e11b835260048301526024820152fd5b90508281813d8311610b2f575b610b1b8183614172565b81010312610b2a57518661075f565b600080fd5b503d610b11565b6040513d88823e3d90fd5b604051635fccb67f60e01b8152600490fd5b610b739150853d8711610b79575b610b6b8183614172565b810190614a5e565b87610642565b503d610b61565b6040513d84823e3d90fd5b8392935b8151811015610bba578383610ba4838561516f565b510151136106e657610bb5906148b0565b610b8f565b50929192610601565b50346103af5760403660031901126103af576024356001600160401b0381116111bc57610bf4903690600401614436565b610bfc61486e565b610c0461486e565b60685461121157600435156111ff57600435606855606a546e5af43d82803e903d91602b57fd5bf3606c54610c38816148b0565b606c5560405160208101913360601b8352603482015260348152610c5b81614157565b519020608883901c62ffffff16763d602d80600a3d3981f3363d3d373d3d3d363d7300000017855260789290921b6001600160781b031916176020526001600160a01b03906037600985f51680156111c057607980546001600160a01b031981168317909155839190821617803b156111bc5781809160046040518094819363204a7f0760e21b83525af18015610b80576111a8575b505080518101906020818303126111a4576020810151906001600160401b0382116111a0576102208282018403126111a0576040519261012084016001600160401b0381118582101761118a5780604052608084840183031261117e57610d5781614121565b8284016020810151825260408101516101408701526060810151610160870152608081015161018087015290855260a00151600381101561117e57602085015260c08383010151600481101561117e5760408501526020828401820360bf190112611186576040516001600160401b03602082019081119082111761118a576020810160405260e084840101518152606085015260c060df198484018303011261118657604051610e07816140eb565b82840161010001516001600160a01b0381168103611182578152610e30610120858501016148bf565b6020820152828401610140810151604083015261016081015160608301526101808101516080808401919091526101a082015160a0840152860191909152610e7b906101c0016148bf565b60a0850152610e8f6101e0848401016148bf565b60c085015281830161020081015160e08601526102200151926001600160401b03841161117e5760208201603f858386010101121561117e5760208482850101015192610edb8461431d565b94610ee96040519687614172565b8486526020808701940160408660051b838686010101011161117a57818301810160400193925b60408660051b83838601010101851061115e57610100880187905260a0880151899089906001600160a01b03161561114c5760a0810151607880546001600160a01b0319166001600160a01b03929092169190911790556020810151600381101561113857607654604083015160048110156111245761ff0060ff9160081b1692169061ffff1916171760765560608101515160775560018060a01b0360c08201511660018060a01b0319607a541617607a557fb6a062fc5f19aa17637bf61ab001ce3e5ceb67a5bd51d9753281e41df94f3fd36040516004358152604060208201526110016040820184516148d3565b611013602084015160c083019061449f565b611025604084015160e0830190614492565b60608301515161010082015260a06080840151600180831b03815116610120840152600180831b036020820151166101408401526040810151610160840152606081015161018084015260808101516101a084015201516101c082015260018060a01b0360a0840151166101e082015260018060a01b0360c08401511661020082015260e0830151610220820152806110d16101008501516102206102408401526102608301906148f6565b0390a161110360808201518251604051906110eb8261413c565b858252604051926110fb8461413c565b8684526155ca565b607a546001600160a01b0316611117575080f35b60e0610462910151615d3f565b634e487b7160e01b85526021600452602485fd5b634e487b7160e01b83526021600452602483fd5b604051635df4b1ef60e01b8152600490fd5b60208060409561116d886148bf565b8152019501949350610f10565b8780fd5b8580fd5b8680fd5b8480fd5b634e487b7160e01b600052604160045260246000fd5b8380fd5b8280fd5b6111b1906140d8565b6111bc578138610cf1565b5080fd5b60405162461bcd60e51b8152602060048201526017602482015276115490cc4c4d8dce8818dc99585d194c8819985a5b1959604a1b6044820152606490fd5b604051637fcce2a960e01b8152600490fd5b60405163439a74c960e01b8152600490fd5b50346103af5760203660031901126103af5760209061124061434a565b50604051908152f35b50346103af5760403660031901126103af5760096040611267614360565b926004358152607b60205220019060018060a01b03166000526020526020604060002054604051908152f35b50346103af576020806003193601126111bc5760043590818352607b8152600160ff6008604086200154166112c781614262565b036113d157818352607b815260408320600501546001600160a01b039081163381036113ae57508084916079541690848352607b8452601060408420916005830154169101548352607f84526002604084200154823b156111a0576113469284928360405180968195829463099ea56b60e41b84528c60048501615183565b03925af18015610b805761139a575b50829052607b81526040808420600801805460ff19166003179055519182527f416e669c63d9a3a5e36ee7cc7e2104b8db28ccd286aa18966e98fa230c73b08c91a180f35b6113a3906140d8565b6111a4578238611355565b604051634544dc9160e11b81529081906113cd90339060048401614b37565b0390fd5b6040516344980d8f60e01b815260048101839052602490fd5b50346103af57806003193601126103af57602060ff606754166040519015158152f35b50346103af5760203660031901126103af57600260406020926004358152607b8452200154604051908152f35b50346103af57806003193601126103af576020607154604051908152f35b50346103af5760203660031901126103af57610160906004358152607b60205260408120600181015491821560001461152357905b60018060a01b03918260058301541693836004840154169360068401541690600284015460ff6008860154169060078601549260038701549433600052600988016020526010604060002054980154986040519a8b5260208b015260408a01526060890152608088015261150081614262565b60a087015260c086015260e0850152610100840152610120830152610140820152f35b5061152d8261532f565b9061148d565b50346103af5760203660031901126103af5761046261155061434a565b61156060ff845460081c166147eb565b6145ed565b50346103af57806003193601126103af57602060ff60765460081c1661158e6040518092614492565bf35b50346103af5760203660031901126103af576020906040906001600160a01b036115b861434a565b168152607c83522054604051908152f35b50346103af57806003193601126103af57607a546040516001600160a01b039091168152602090f35b50346103af5760203660031901126103af576004358015158091036111bc5760207fd94c9bc4d43c51d8dc345a016d8e3d994432fac68e72832e4cf3a616bd8efae09160ff196067541660ff821617606755604051908152a180f35b5060603660031901126103af576001600160401b03906024358281116111bc5761167c903690600401614561565b6044929192358481116111a457611697903690600401614561565b9390946116a333614a76565b60043594858552607b602052604085209460108601548152607f6020526040812092604051926116d2846140eb565b60018060a01b0394858154168086528660018301541660208701526002820154604087015260056003830154926060880193845260048101546080890152015460a0870152156119d957898954036119c0576008890191600160ff84541661173981614262565b036119a75781518034106119895750600f8a015480151580611961575b61192b5750611766825134614cc3565b918760795416905190803b156111825761179a87918e60405194858094819363240ff7c560e11b8352339060048401614a45565b03925af18015610b3657611917575b509a6020916117e39b9c8888511691604051809e8195829463c13517e160e01b8452600360048501526040602485015260448401916158ea565b03925af198891561190c5783996118d8575b50805460ff19166005179055600c870188905542600d8801908155600e90970180546001600160a01b03191633179055878252607e60205260408220899055606d5491818316908183146118c45750927f034f6a48076db1bcaaa311ccdc43d473aff44d3918a76fe0fae27c8b3665016d97959260209a97959260016118b39601169060018060401b03191617606d55511693549260405195869586528986015287604086015233606086015260c0608086015260c08501916158ea565b9060a08301520390a1604051908152f35b634e487b7160e01b81526011600452602490fd5b9098506020813d602011611904575b816118f460209383614172565b81010312610b2a575197386117f5565b3d91506118e7565b6040513d85823e3d90fd5b61192186916140d8565b61118657386117a9565b8b86611c2083018093116118c457506119476044924290614cc3565b60405191638d2f6c3160e01b835260048301526024820152fd5b50611c208101808211611975574210611756565b634e487b7160e01b87526011600452602487fd5b60449060405190632c1f8ef160e21b82523460048301526024820152fd5b6040516344980d8f60e01b8152600481018c9052602490fd5b60405163c1d17bef60e01b8152600481018b9052602490fd5b604051636c291fd360e01b8152600490fd5b50346103af5760403660031901126103af576001600160401b03906004358281116111bc57611a1e903690600401614376565b50602480358381116111a457366023820112156111a457806004013591611a448361431d565b94611a526040519687614172565b8386528160208097019460051b840101943686116103af57828401945b868610611a885760405163d623472560e01b8152600490fd5b85358381116111a4578891611aa383928736918a0101614436565b815201950194611a6f565b50346103af5760203660031901126103af57611ac861434a565b611ad061458e565b606a80546001600160a01b0319166001600160a01b039290921691909117905580f35b50346103af576101603660031901126103af57611b29611b12366144c4565b611b1b36614527565b90611b2461555a565b6155ff565b607a5481906001600160a01b031680611b3f5750f35b803b15611b8a5781809160446040518094819363642ce76b60e01b83523060048401526101443560248401525af18015610b8057611b7a5750f35b611b83906140d8565b6103af5780f35b50fd5b50346103af5760203660031901126103af57611bcf600a60406103ab93606060208351611bb981614106565b83815201526004358152607b6020522001614195565b6040519182916020835260208301906142ca565b50346103af5760203660031901126103af576004356001600160401b0381116111bc57611c17610462913690600401614376565b611c1f61555a565b615b92565b50346103af57806003193601126103af576020607754604051908152f35b50346103af57806003193601126103af57606d546040516001600160401b039091168152602090f35b50346103af57806003193601126103af57602060405173eeeeeeeeeeeeeeeeeeeeeeeeeeeeeeeeeeeeeeee8152f35b50346103af5760203660031901126103af576020611cb9600435615530565b604051908152f35b50346103af576101803660031901126103af57611cdd366144c4565b611ce636614527565b6001600160401b0391906101443583811161118657611d09903690600401614376565b906101643593841161118657611d26610462943690600401614376565b92611d2f61555a565b6155ca565b50346103af57806003193601126103af576020611d4f615de1565b6040516001600160a01b039091168152f35b50346103af5760403660031901126103af57611d7b61434a565b6001600160a01b03168152607d60205260408120805460243592908310156103af576020611da984846144ac565b90546040519160031b1c8152f35b50346103af5760203660031901126103af5760406020916004358152607b835220611de66002820154826154af565b81929192159081611e1b575b50611e0f575b6001611e0591015461532f565b1115604051908152f35b60038101549150611df8565b90501538611df2565b50346103af57806003193601126103af576020607054604051908152f35b50346103af57806003193601126103af57611e5c33614b51565b156106e6576078546001600160a01b039082908216803b156111bc57816040518092630d4a8b4960e01b8252818381611e99303360048401614b37565b03925af18015610b8057611f26575b50506078541660206040518092637817ee4f60e01b82528180611ecf303360048401614b37565b03915afa8015610b80578290611ef3575b611eed915060715461484b565b60715580f35b506020813d8211611f1e575b81611f0c60209383614172565b81010312610b2a57611eed9051611ee0565b3d9150611eff565b611f2f906140d8565b6111bc578138611ea8565b50346103af5760403660031901126103af57611f5461434a565b602435611f5f614c9d565b611f6882614b51565b156106e6578260ff60765460081c166004811015611124576002810361205257505080915b60785460405163011de97360e61b81529060209082906001600160a01b03168180611fbc308860048401614b37565b03915afa90811561204757907f0b9150e1e54346ed3fa36b977cd5d65dca5a649c737c3174a26bddaadd47667a9392916020969161202a575b50612016575b61200b8460405193849384614ef7565b0390a1604051908152f35b6120228460715461484b565b607155611ffb565b6120419150863d8111610b7957610b6b8183614172565b38611ff5565b6040513d87823e3d90fd5b600181036120fe575050607854604051637817ee4f60e01b8152829160209082906001600160a01b0316818061208c308a60048401614b37565b03915afa9081156120475785916120cd575b506120a9838261484b565b6077548091116120bc575b505091611f8d565b6120c69250614cc3565b38806120b4565b90506020813d82116120f6575b816120e760209383614172565b81010312610b2a57513861209e565b3d91506120da565b90929060021901611f8d576078546040516316308e2560e11b81526001600160a01b038084166004830152929450908216916020918281602481875afa80156122d557859088906122a4575b612154925061484b565b6040516336d8759760e21b81529060128483600481895afa908115612299576121bd94866121b2936121b8968d9161226c575b5060046040518094819363313ce56760e01b8352165afa8b918161223d575b50612232575b50614f4d565b90614f5b565b614f8e565b816040518094637817ee4f60e01b825281806121dd308b60048401614b37565b03915afa918215610b36578692612200575b506121fa9250614cc3565b91611f8d565b90915082813d831161222b575b6122178183614172565b81010312610b2a576121fa915190386121ef565b503d61220d565b60ff915016386121ac565b61225e919250883d8a11612265575b6122568183614172565b810190614f34565b90386121a6565b503d61224c565b61228c9150823d8411612292575b6122848183614172565b810190614f15565b38612187565b503d61227a565b6040513d8b823e3d90fd5b50508281813d83116122ce575b6122bb8183614172565b81010312610b2a5784612154915161214a565b503d6122b1565b6040513d89823e3d90fd5b50346103af5760203660031901126103af576004356001600160401b0381116111bc57612314610462913690600401614376565b61231c61555a565b615933565b50346103af57806003193601126103af5761233a61458e565b603380546001600160a01b031981169091556000906001600160a01b0316600080516020615f1a8339815191528280a380f35b50346103af5760203660031901126103af5761046261238a61434a565b612392614c9d565b614cd0565b50346103af57806003193601126103af57602060405160038152f35b50346103af5760603660031901126103af576123cd61434a565b6024356001600160401b0381116111a457366023820112156111a4576123fd9036906024816004013591016143ff565b90612422612409614334565b61156060ff865460081c1661241d816147eb565b6147eb565b60018060a01b031660018060a01b031960655416176065556040516124658161245760208201946020865260408301906142a5565b03601f198101835282614172565b51902060665580f35b50346103af57806003193601126103af576078546040516001600160a01b039091168152602090f35b50346103af5760203660031901126103af576020611cb960043561532f565b50346103af57806003193601126103af577f00000000000000000000000000000000000000000000000000000000000000006001600160a01b0316300361250f576020604051600080516020615eda8339815191528152f35b60405162461bcd60e51b815260206004820152603860248201527f555550535570677261646561626c653a206d757374206e6f742062652063616c6044820152771b1959081d1a1c9bdd59da0819195b1959d85d1958d85b1b60421b6064820152608490fd5b5060403660031901126103af5761258a61434a565b6024356001600160401b0381116111a4576125a9903690600401614436565b6001600160a01b037f000000000000000000000000000000000000000000000000000000000000000081169291906125e330851415614624565b612600600080516020615eda833981519152948286541614614673565b612608615de1565b813391160361280657600080516020615e7a8339815191525460ff161561263557505061046291506146c2565b8216604051936352d1902d60e01b85526020948581600481865afa600091816127d7575b506126a85760405162461bcd60e51b815260048101879052602e6024820152600080516020615f7a83398151915260448201526d6f6e206973206e6f74205555505360901b6064820152608490fd5b9492939403612780576126ba846146c2565b600080516020615f3a833981519152600080a2815115801590612778575b6126e3575b50505080f35b61276692600080604051946126f786614157565b602786527f416464726573733a206c6f772d6c6576656c2064656c65676174652063616c6c85870152660819985a5b195960ca1b60408701528481519101845af4903d1561276f573d612749816143e4565b906127576040519283614172565b8152600081943d92013e614752565b503880806126dd565b60609250614752565b5060016126d8565b60405162461bcd60e51b815260048101839052602960248201527f45524331393637557067726164653a20756e737570706f727465642070726f786044820152681a58589b195555525160ba1b6064820152608490fd5b90918782813d83116127ff575b6127ee8183614172565b810103126103af5750519038612659565b503d6127e4565b6113cd612811615de1565b60405163163678e960e01b81529182913360048401614b37565b50346103af57806003193601126103af576020606954604051908152f35b50346103af57806003193601126103af576020606654604051908152f35b50346103af5760203660031901126103af576040906004358152607f6020522060018060a01b036103ab81835416916001840154169260028101549060038101546005600483015492015492604051968796876142ea565b50346103af57806003193601126103af576020604051600a8152f35b50346103af57806003193601126103af576020606854604051908152f35b50346103af5760403660031901126103af577f2667a0cd99dbc787d1d2596efe938cf43dfe83e8b8ddeb70e28007c09ff33485602061293661434a565b61293e61555a565b61294781614b15565b607a80546001600160a01b0319166001600160a01b03929092169182179055612971602435615d3f565b604051908152a180f35b50346103af576020806003193601126111bc5761299661434a565b6001600160a01b037f000000000000000000000000000000000000000000000000000000000000000081166129cd30821415614624565b6129ea600080516020615eda833981519152918383541614614673565b6129f2615de1565b82339116036128065760405191612a088361413c565b858352600080516020615e7a8339815191525460ff1615612a305750505061046291506146c2565b8316906040516352d1902d60e01b81528581600481865afa60009181612ae1575b50612aa05760405162461bcd60e51b815260048101879052602e6024820152600080516020615f7a83398151915260448201526d6f6e206973206e6f74205555505360901b6064820152608490fd5b949293940361278057612ab2846146c2565b600080516020615f3a833981519152600080a2815115801590612ad9576126e35750505080f35b5060006126d8565b90918782813d8311612b09575b612af88183614172565b810103126103af5750519038612a51565b503d612aee565b50346103af57806003193601126103af57602060ff6076541661158e604051809261449f565b50346103af5760603660031901126103af576020611cb9604435602435600435615253565b50346103af57806003193601126103af576020606c54604051908152f35b50346103af5760403660031901126103af5760043590818152602091607e8352604082205492838352607b8152604083209360108501548452607f8252604084209060405190612bc8826140eb565b60018060a01b0392838154168352600184818301541686850152600282015490604085019182526003830154926060860193845260056004820154916080880192835201549160a0870192835285156130fc5760088c0192835490600560ff8316612c3281614262565b036130e357600d8e01549051612c479161484b565b421180159081806130d6575b6130c457906130ba575b15612dfe5750815115612dec576002915190808214612ddd575b5014612d62575b505083607954169084600e8a015416905192823b15612d5e5791612cbd93918980946040519687958694859363099ea56b60e41b855260048501615183565b03925af18015610b3657908691612d4a575b50505b606d546001600160401b038082169791908815612d36577f394027a5fa6e098a1191094d1719d6929b9abc535fcc0c8f448d6a4e756222769596979860001901169060018060401b03191617606d55600f429101555116916040516024358152a380f35b634e487b7160e01b88526011600452602488fd5b612d53906140d8565b611186578438612ccf565b8880fd5b600660ff1982541617905584607954168560058b015416915191813b15612dd957918991612da8938360405180968195829463099ea56b60e41b84528b60048501615183565b03925af18015612dce5790889115612c7e57612dc3906140d8565b611182578638612c7e565b6040513d8a823e3d90fd5b8980fd5b835460ff191617835538612c77565b604051630dd466dd60e41b8152600490fd5b9150919250602435828114600014612eda57505060ff198254161790558360795416600485600e8b0154169287876078541660405193848092633629edcd60e11b82525afa918215612ecf578a92612eb0575b5051823b15612dd957604051638969ab5360e01b8152948a94869493859387938593612e83938d16916004860161590b565b03925af18015610b3657908691612e9c575b5050612cd2565b612ea5906140d8565b611186578438612e95565b612ec8919250883d8a11612292576122848183614172565b9038612e51565b6040513d8c823e3d90fd5b91949291600214612ef0575b5050505050612cd2565b60069060ff1916179055846079541691600e8a019286845416915191813b1561305557918a91612f38938360405180968195829463099ea56b60e41b84528a60048501615183565b03925af18015612299579089916130a6575b5050846079541690600460058b0192878454169089896078541660405194858092633629edcd60e11b82525afa92831561309b578c9361307c575b50606f548c52607f8a52600260408d200154871c91813b1561307857918c91612fcc93838c60405196879586948593638969ab5360e01b9b8c865216908c6004860161590b565b03925af1801561306d57908b91613059575b50508680806079541694541694541694606f548b52607f8952600260408c200154901c833b15613055578a9493929161302786926040519889978896879586526004860161590b565b03925af18015610b3657908691613041575b808080612ee6565b61304a906140d8565b611186578438613039565b8a80fd5b613062906140d8565b612dd9578938612fde565b6040513d8d823e3d90fd5b8c80fd5b6130949193508a3d8c11612292576122848183614172565b9138612f85565b6040513d8e823e3d90fd5b6130af906140d8565b61117a578738612f4a565b5060243515612c5d565b604051631777988560e11b8152600490fd5b508a8a5116331415612c53565b604051634b011ca960e11b815260048101899052602490fd5b60405163c1d17bef60e01b815260048101879052602490fd5b50346103af5760403660031901126103af5761312f61434a565b6024359161313b614c9d565b60ff60765460081c1660048110156133735760028114908115613368575b50156131945750600080516020615e9a83398151915282602093925b61318184607154614cc3565b60715561200b8460405193849384614ef7565b6078546040516336d8759760e21b8152602092916001600160a01b0390811691601291908581600481875afa9081156120475782918791879161334b575b5060046040518094819363313ce56760e01b8352165afa85918161332c575b50613321575b506040516316308e2560e11b815290861660048201528481602481865afa9081156133165790879185916132e3575b50916121b261323b6121b89361324195614cc3565b91614f4d565b92806040518093637817ee4f60e01b82528180613262308b60048401614b37565b03915afa9283156132d75792613297575b505092613291600080516020615e9a83398151915292602095614cc3565b92613175565b9080959250813d83116132d0575b6132af8183614172565b81010312610b2a579251613291600080516020615e9a833981519152613273565b503d6132a5565b604051903d90823e3d90fd5b809250868092503d831161330f575b6132fc8183614172565b81010312610b2a575186906121b2613226565b503d6132f2565b6040513d86823e3d90fd5b60ff169150386131f7565b613344919250873d8911612265576122568183614172565b90386131f1565b6133629150823d8411612292576122848183614172565b386131d2565b600191501438613159565b634e487b7160e01b82526021600452602482fd5b5061339136614451565b909161339b61486e565b6133a3614894565b6133ac82614a76565b825183019060209384818403126111bc57808501516001600160401b03918282116111a057019260a0848203126111a4576040519160a083018381108282111761118a57604052868501518352613405604086016148bf565b9287810193845260608601519560408201968752613425608082016148bf565b936060830194855260a08201519084821161117a5761344a92908b0191018a01614933565b6080820190815260ff607654169160038310156138255760018093146136f2575b50606f548652607f89526040862080546001600160a01b0398919089161515806136e5575b6136c357506134a0606e546148b0565b9889606e55898852607b8b528860408920968b88558160058901998160018060a01b03199516858c5416178b555116600489019084825416179055511660068701918254161790555182850155600884018260ff1982541617905543600785015585600385015551918251600a85015588600b850193015180519182116136af5761352b845461409e565b601f8111613668575b508990601f83116001146136085792829391839289946135fd575b50501b916000199060031b1c19161790555b6010606f5491015582806079541691541690803b156111a45761359c918391604051808095819463240ff7c560e11b83528a60048401614a45565b039134905af18015610b80576135e9575b50507ffcf3b1aa65a464cef2889608f99e8b8c0f680a4be6c2acb9d961c536a5a9294b604060685481519081528486820152a160405191168152f35b6135f382916140d8565b6103af57806135ad565b01519250388061354f565b8488528a8820919083601f1981168a8e5b888383106136505750505010613637575b505050811b019055613561565b015160001960f88460031b161c1916905538808061362a565b8686015188559096019594850194879350018e613619565b8488528a8820601f840160051c8101918c85106136a5575b601f0160051c019084905b828110613699575050613534565b6000815501849061368b565b9091508190613680565b634e487b7160e01b87526041600452602487fd5b6002604491015460405190632c1f8ef160e21b82523460048301526024820152fd5b5060028101543410613490565b85516001600160a01b039190613709908316614b15565b818651161561381357604051630ae6240f60e11b8152908b82600481305afa91821561229957918991849383926137d4575b5060249051604051958693849263068bcd8d60e01b84526004840152165afa918215612dce5788926137b0575b50604081875116920151160361379e5761378287516151d3565b61378c573861346b565b604051630efd728560e21b8152600490fd5b60405163514e24c360e11b8152600490fd5b6137cd9192503d808a833e6137c58183614172565b8101906149ae565b9038613768565b92509250508b81813d831161380c575b6137ee8183614172565b81010312612d5e57518281168103612d5e578291899190602461373b565b503d6137e4565b60405163165a825360e21b8152600490fd5b634e487b7160e01b87526021600452602487fd5b50346103af5760203660031901126103af5760406020916004358152607e83522054604051908152f35b50346103af57806003193601126103af57608060725460735460745460755491604051938452602084015260408301526060820152f35b50346103af57806003193601126103af5761046233614cd0565b50346103af5760203660031901126103af576020611cb9600435615502565b50346103af5760603660031901126103af576138ed61434a565b6138f5614360565b906138fe614334565b83549260ff8460081c161593848095613a75575b8015613a5e575b15613a025760ff1981166001178655846139f1575b5061396a6040519261393f84614106565b600a8452694356537472617465677960b01b602085015261156060ff885460081c1661241d816147eb565b60018060a01b03918260018060a01b031994168460655416176065556040516139a38161245760208201946020865260408301906142a5565b5190206066551690606a541617606a556139ba5780f35b61ff001981541681557f7f26b83ff96e1f2b6a682f133852f6798a09c465da95921460cefb3847402498602060405160018152a180f35b61ffff19166101011785553861392e565b60405162461bcd60e51b815260206004820152602e60248201527f496e697469616c697a61626c653a20636f6e747261637420697320616c72656160448201526d191e481a5b9a5d1a585b1a5e995960921b6064820152608490fd5b50303b1580156139195750600160ff821614613919565b50600160ff821610613912565b50346103af57806003193601126103af576065546040516001600160a01b039091168152602090f35b50346103af57806003193601126103af576020606f54604051908152f35b50346103af57806003193601126103af576020604051629896808152f35b50346103af57806003193601126103af576020606e54604051908152f35b50346103af57806003193601126103af576079546040516001600160a01b039091168152602090f35b50346103af5760603660031901126103af576001600160401b03906004358281116111bc57613b61903690600401614376565b5060249182359081116111bc57613b7c903690600401614436565b613b84614334565b50613b8d61486e565b613b95614894565b805115613e73576020818051810103126111bc5760200151918215613e6157828252607b602052604082209260ff607654166003811015613e4e57600114613bdb578280f35b80845403613e39576001840191825460695490818111613e185750506008850194600160ff875416613c0c81614262565b03613e0157613c1a83615502565b91845492613c278461532f565b1180613df8575b613de65760018060a01b039286846065541692606854906040518095819363068bcd8d60e01b835260048301525afa9182156122d5579160409185938992613dc6575b50613c7e90606954614cc3565b606955015116956004820196868489541687549273eeeeeeeeeeeeeeeeeeeeeeeeeeeeeeeeeeeeeeee8114600014613d86575081809381925af115613d79575b600460ff1982541617905581600581607954169201541690606f548652607f602052600260408720015491813b1561118257918691613d15938360405180968195829463099ea56b60e41b84528b60048501615183565b03925af1801561204757613d54575b50613d4a90600080516020615f9a83398151915294955416925460405193849384615183565b0390a18038808280f35b90600080516020615f9a83398151915294613d71613d4a936140d8565b945090613d24565b63b12d13eb86526004601cfd5b8260109160209560449460145260345263a9059cbb60601b82525af13d156001885114171615613db95785603452613cbe565b6390b8ec1886526004601cfd5b613c7e919250613ddf903d808c833e6137c58183614172565b9190613c71565b60405163199cf26160e31b8152600490fd5b50821515613c2e565b5090604051906344980d8f60e01b82526004820152fd5b6064939260405193632c31d85b60e11b855260048501528301526044820152fd5b6040519063c1d17bef60e01b82526004820152fd5b634e487b7160e01b845260216004528284fd5b60405163f881a10d60e01b8152600490fd5b604051630317df1360e61b8152600490fd5b50346103af57806003193601126103af57604090606f548152607f6020522060018060a01b036103ab81835416916001840154169260028101549060038101546005600483015492015492604051968796876142ea565b50346103af5760203660031901126103af5760043563ffffffff60e01b81168091036111bc5760209063f1801e6160e01b8114908115613f22575b506040519015158152f35b6301ffc9a760e01b14905082613f17565b50346103af5760203660031901126103af576004358152607b60205260408120908154906001830154600284015493600381015460018060a01b0360048301541660018060a01b0360058401541660018060a01b036006850154169060078501549260ff60088701541694613faa600a8801614195565b604051909b909960608b01906001600160401b0382118c83101761408a57506040908152600c8901548b52600d89015460208c810191909152600e8a01546001600160a01b03168c830152600f8a01546010909a015482519d8e52908d019a909a528b015260608a0152608089015260a088015260c087015260e086015293948594614052919061403a81614262565b6101008701526101e0806101208801528601906142ca565b835161014086015260208401516101608601526040909301516001600160a01b03166101808501526101a08401526101c08301520390f35b634e487b7160e01b81526041600452602490fd5b90600182811c921680156140ce575b60208310146140b857565b634e487b7160e01b600052602260045260246000fd5b91607f16916140ad565b6001600160401b03811161118a57604052565b60c081019081106001600160401b0382111761118a57604052565b604081019081106001600160401b0382111761118a57604052565b608081019081106001600160401b0382111761118a57604052565b602081019081106001600160401b0382111761118a57604052565b606081019081106001600160401b0382111761118a57604052565b601f909101601f19168101906001600160401b0382119082101761118a57604052565b90604051916141a383614106565b82815481526001809201916040519283916000918054906141c38261409e565b8086529183811690811561423957506001146141f0575b505050602092916141ec910384614172565b0152565b909493925060005260209081600020946000915b818310614221575093945091925090820101816141ec60206141da565b86548884018501529586019587945091830191614204565b60ff191660208781019190915292151560051b8601830194508593506141ec9291506141da9050565b6007111561426c57565b634e487b7160e01b600052602160045260246000fd5b60005b8381106142955750506000910152565b8181015183820152602001614285565b906020916142be81518092818552858086019101614282565b601f01601f1916010190565b90604060206142e7938051845201519181602082015201906142a5565b90565b9260a09491979695929760c0850198600180881b0380921686521660208501526040840152606083015260808201520152565b6001600160401b03811161118a5760051b60200190565b604435906001600160a01b0382168203610b2a57565b600435906001600160a01b0382168203610b2a57565b602435906001600160a01b0382168203610b2a57565b81601f82011215610b2a5780359161438d8361431d565b9261439b6040519485614172565b808452602092838086019260051b820101928311610b2a578301905b8282106143c5575050505090565b81356001600160a01b0381168103610b2a5781529083019083016143b7565b6001600160401b03811161118a57601f01601f191660200190565b92919261440b826143e4565b916144196040519384614172565b829481845281830111610b2a578281602093846000960137010152565b9080601f83011215610b2a578160206142e7933591016143ff565b6040600319820112610b2a57600435906001600160401b038211610b2a5761447b91600401614436565b906024356001600160a01b0381168103610b2a5790565b90600482101561426c5752565b90600382101561426c5752565b80548210156109c45760005260206000200190600090565b60c0906003190112610b2a57604051906144dd826140eb565b816001600160a01b036004358181168103610b2a5782526024359081168103610b2a57602082015260443560408201526064356060820152608435608082015260a060a435910152565b60809060c3190112610b2a576040519061454082614121565b60c435825260e4356020830152610104356040830152610124356060830152565b9181601f84011215610b2a578235916001600160401b038311610b2a5760208381860195010111610b2a57565b614596615de1565b336001600160a01b03909116036145a957565b606460405162461bcd60e51b815260206004820152602060248201527f4f776e61626c653a2063616c6c6572206973206e6f7420746865206f776e65726044820152fd5b603380546001600160a01b039283166001600160a01b031982168117909255909116600080516020615f1a833981519152600080a3565b1561462b57565b60405162461bcd60e51b815260206004820152602c6024820152600080516020615eba83398151915260448201526b19195b1959d85d1958d85b1b60a21b6064820152608490fd5b1561467a57565b60405162461bcd60e51b815260206004820152602c6024820152600080516020615eba83398151915260448201526b6163746976652070726f787960a01b6064820152608490fd5b803b156146f757600080516020615eda83398151915280546001600160a01b0319166001600160a01b03909216919091179055565b60405162461bcd60e51b815260206004820152602d60248201527f455243313936373a206e657720696d706c656d656e746174696f6e206973206e60448201526c1bdd08184818dbdb9d1c9858dd609a1b6064820152608490fd5b919290156147b45750815115614766575090565b3b1561476f5790565b60405162461bcd60e51b815260206004820152601d60248201527f416464726573733a2063616c6c20746f206e6f6e2d636f6e74726163740000006044820152606490fd5b8251909150156147c75750805190602001fd5b60405162461bcd60e51b8152602060048201529081906113cd9060248301906142a5565b156147f257565b60405162461bcd60e51b815260206004820152602b60248201527f496e697469616c697a61626c653a20636f6e7472616374206973206e6f74206960448201526a6e697469616c697a696e6760a81b6064820152608490fd5b9190820180921161485857565b634e487b7160e01b600052601160045260246000fd5b6065546001600160a01b0316330361488257565b60405163075fd2b160e01b8152600490fd5b6068541561489e57565b604051630f68fe6360e21b8152600490fd5b60001981146148585760010190565b51906001600160a01b0382168203610b2a57565b606080918051845260208101516020850152604081015160408501520151910152565b90815180825260208080930193019160005b828110614916575050505090565b83516001600160a01b031685529381019392810192600101614908565b9190604083820312610b2a5760405161494b81614106565b83518152602084015190938491906001600160401b038211610b2a57019082601f83011215610b2a57815191614980836143e4565b9361498e6040519586614172565b83855260208483010111610b2a576020926141ec91848087019101614282565b90602082820312610b2a5781516001600160401b0392838211610b2a570160c081830312610b2a57604051926149e3846140eb565b8151845260208201516001600160a01b0381168103610b2a576020850152614a0d604083016148bf565b60408501526060820151908111610b2a5760a092614a2c918301614933565b606084015260808101516080840152015160a082015290565b9081526001600160a01b03909116602082015260400190565b90816020910312610b2a57518015158103610b2a5790565b6001600160a01b03908116908115614b03576078541690811561114c5760209060246040518094819363288c314960e21b835260048301525afa908115614af757600091614ad9575b5015614ac757565b604051636a5cfb6d60e01b8152600490fd5b614af1915060203d8111610b7957610b6b8183614172565b38614abf565b6040513d6000823e3d90fd5b604051631a3e505160e31b8152600490fd5b6001600160a01b031615614b2557565b6040516303988b8160e61b8152600490fd5b6001600160a01b0391821681529116602082015260400190565b607a546001600160a01b03908116908115614bb95750614b8b9160209160405180809581946302154c3d60e51b8352309060048401614b37565b03915afa908115614af757600091614ba1575090565b6142e7915060203d8111610b7957610b6b8183614172565b90506068549160405192602093848101916810531313d5d31254d560ba1b8352602982015260298152614beb81614157565b51902091607854169060405191632474521560e21b92838152846004820152600060248201528581604481855afa908115614af757600091614c80575b5015614c38575050505050600190565b614c5393859360405195869485938493845260048401614a45565b03915afa918215614af757600092614c6a57505090565b6142e79250803d10610b7957610b6b8183614172565b614c979150863d8811610b7957610b6b8183614172565b38614c28565b6078546001600160a01b03163303614cb157565b6040516357848b5160e11b8152600490fd5b9190820391821161485857565b60785460408051637817ee4f60e01b81526020949391926000926001600160a01b03929091831690878180614d09308760048401614b37565b0381855afa8015614eed578590614ebe575b614d289150607154614cc3565b607155803b156111a05783855180926322bcf99960e01b8252818381614d52308960048401614b37565b03925af18015614eb457614ea1575b5016808252607d8552828220948351808783829954938481520190865283862092865b85828210614e8b57505050614d9b92500387614172565b825b8651811015614e515780614db4614dd4928961516f565b51808652607b8452868620614dc8826151a4565b614dd9575b50506148b0565b614d9d565b600080516020615efa8339815191529160a0918760005260098101875260038a6000208a81549155614e2b6002840191614e14818454614cc3565b83556070614e23828254614cc3565b90558461547d565b54910154908a519289845288840152898b84015260608301526080820152a13880614dcd565b509290917f1468da654b37bb3631011c1917d02e0db437d519918858d40b38b5e980ca033b949550828152607c84528181205551908152a1565b855484526001958601958c955093019201614d84565b614ead909391936140d8565b9138614d61565b85513d86823e3d90fd5b508781813d8311614ee6575b614ed48183614172565b8101031261118657614d289051614d1b565b503d614eca565b86513d87823e3d90fd5b604091949392606082019560018060a01b0316825260208201520152565b90816020910312610b2a57516001600160a01b0381168103610b2a5790565b90816020910312610b2a575160ff81168103610b2a5790565b604d811161485857600a0a90565b8181029291811591840414171561485857565b8115614f78570490565b634e487b7160e01b600052601260045260246000fd5b80156150cb57615059816000908360801c806150bf575b508060401c806150b2575b508060201c806150a5575b508060101c80615098575b508060081c8061508b575b508060041c8061507e575b508060021c80615071575b50600191828092811c61506a575b1c1b6150018185614f6e565b01811c61500e8185614f6e565b01811c61501b8185614f6e565b01811c6150288185614f6e565b01811c6150358185614f6e565b01811c6150428185614f6e565b01811c61504f8185614f6e565b01901c8092614f6e565b80821015615065575090565b905090565b0181614ff5565b6002915091019038614fe7565b6004915091019038614fdc565b6008915091019038614fd1565b6010915091019038614fc6565b6020915091019038614fbb565b6040915091019038614fb0565b91505060809038614fa5565b50600090565b906020918281830312610b2a578051906001600160401b038211610b2a570181601f82011215610b2a578051926151078461431d565b9360409361511785519687614172565b818652828087019260061b85010193818511610b2a578301915b8483106151415750505050505090565b8583830312610b2a57838691825161515881614106565b855181528286015183820152815201920191615131565b80518210156109c45760209160051b010190565b9081526001600160a01b039091166020820152604081019190915260600190565b600052607b60205260406000208054151590816151bf575090565b600501546001600160a01b03161515919050565b6151e260725460695490614f5b565b629896809182810292818404149015171561485857111590565b9190916000838201938412911290801582169115161761485857565b61522282826151fc565b916000831261523057505090565b9160649260405192631dde38a160e11b8452600484015260248301526044820152fd5b9091607454906298968093848360801b0490600160801b918281101561531d578583965b6152dc5750506152879085614f5b565b9385830292808404871490151715614858578103908111614858576152ab91614f5b565b908303928311614858576152c8926152c291614f6e565b9061484b565b6001607f1b81019081106148585760801c90565b6001918183166152fc57806152f09161543a565b911c90815b9091615277565b809250615309919761543a565b9560001981019081116148585790816152f5565b604051633e668d0360e01b8152600490fd5b606954801561542857615341826151d3565b61378c57607254604081901b92600160401b9291801590850484141715614858578060401b9281840414901517156148585761538361538f916153aa93614f6e565b62989680809404614cc3565b6153a18360735460801b049180614f5b565b60401c90614f6e565b81810290808204831490151715614858576074548203828111614858576153d091614f6e565b906153de6071548093614f5b565b60401c91806153ec57505090565b6153f881607554614f6e565b8281029281840414901517156148585764174876e800916121b261541b92615530565b0480821115615065575090565b60405163ed4421ad60e01b8152600490fd5b90600160801b808311615468578111615456576152c891614f5b565b6040516370b7a2d960e01b8152600490fd5b604051600162a4c31160e01b03198152600490fd5b9061548890826154af565b90918215806154a7575b6154a25760039160078201550155565b505050565b508115615492565b43916007820154918383116154ec578383146154e05760036154d46154dd9486614cc3565b91015490615253565b91565b50505050600090600090565b634e487b7160e01b600052600160045260246000fd5b80600052607b602052604060002090808254036106c457508061552b600260039301548261547d565b015490565b6298968080820291808304821490151715614858576074548103908111614858576142e791614f6e565b607854604051633629edcd60e11b81526001600160a01b03916020908290600490829086165afa908115614af7576000916155ac575b5016330361559a57565b604051637430763f60e11b8152600490fd5b6155c4915060203d8111612292576122848183614172565b38615590565b906155d4916155ff565b80516155f0575b5080516155e55750565b6155ee90615b92565b565b6155f990615933565b386155db565b60208181018051919290916001600160a01b0390600090821680151590816158dd575b8161583b575b50615670575b5050505081608091600080516020615e5a83398151915293516072558101516073556040810151607455606081015160755561566d60405180926148d3565ba1565b606f548152607f85526040908181208360018201541690848088511680931491821592615829575b5050615760575b5093600560809694600080516020615f5a833981519152948460e095600080516020615e5a8339815191529b996156d7606f546148b0565b80606f558152607f8a522091808451169560018060a01b0319918783865416178555600185019151168092825416179055818401519182600285015560608501519384600382015560a08d8701519687600484015501519687910155606f549681519788528a88015286015260608501528884015260a083015260c0820152a19181933861562e565b8385511690813b156111a4578291602483928651948593849263446adb9960e11b845260048401525af1801561581f5794600080516020615f5a833981519152948460e095600080516020615e5a8339815191529b999560059560809c9a615810575b507fdc20f5c479493aac0cf803ca3b82ebc1964faa557450a37ea0a8121b0e98454f60608b86885116878b51169086519230845283015285820152a195999b50509450945094965061569f565b615819906140d8565b386157c3565b83513d84823e3d90fd5b90915054168486511614158438615698565b606f548352607f87526040832060018101548516909114801592506158cb575b81156158b8575b81156158a5575b8115615892575b811561587e575b5038615628565b9050600560a0850151910154141538615877565b6080850151600482015414159150615870565b6060850151600382015414159150615869565b6040850151600282015414159150615862565b9050828451168382541614159061585b565b8451841615159150615622565b908060209392818452848401376000828201840152601f01601f1916010190565b9081526001600160a01b03918216602082015291166040820152606081019190915260800190565b6068918254926000926040908151956020968781016810531313d5d31254d560ba1b918282526029938482015283815261596c81614157565b5190209760018060a01b0392607896848854169a875198632474521560e21b9c8d8b5260049a838c8201528d60248201528681604481855afa908115615a9e578e91615b75575b50615b24575b508b5b8851811015615ad75788838f8d89916159f08f8e6159de89828c54169961516f565b51169051958694859485528401614a45565b0381855afa908115615acb578f91615aae575b5015615a19575b50615a14906148b0565b6159bc565b84548b51888101918a835288820152878152615a3481614157565b5190209089615a43848d61516f565b511691813b15615aaa57918f91615a72938f8f9085915196879586948593632f2ff15d60e01b85528401614a45565b03925af18015615a9e57908e91615a8a575b50615a0a565b615a93906140d8565b613078578c38615a84565b8e8c51903d90823e3d90fd5b8f80fd5b615ac59150883d8a11610b7957610b6b8183614172565b38615a03565b8f8d51903d90823e3d90fd5b505050935050959750507f7a2e396a5614184c0af2c60827c206595126faa1238b94e19823192de52e728a9550615b1f929350549280805195869586528501528301906148f6565b0390a1565b803b15613078578c8360448d838e51958694859363d547741f60e01b85528401528160248401525af18015615b6b57156159b957615b64909c919c6140d8565b9a386159b9565b8a513d8f823e3d90fd5b615b8c9150873d8911610b7957610b6b8183614172565b386159b3565b6000915b8151831015615cfc5760018060a01b03928360785416938360685495604096875160209081810192615c128388615bf58b6810531313d5d31254d560ba1b988981526029978789820152888152615bec81614157565b5190209a61516f565b51168d5180938192632474521560e21b835260049b8c8401614a45565b0381895afa908115615cf157600091615cd4575b50615c46575b50505050505050615c3f919293506148b0565b9190615b96565b8a51928301938452818301528152615c5d81614157565b51902092615c6b858861516f565b511690803b15610b2a57615c9793600080948a519687958694859363d547741f60e01b85528401614a45565b03925af18015615cc957615c3f93949550615cba575b8493928180808080615c2c565b615cc3906140d8565b38615cad565b85513d6000823e3d90fd5b615ceb9150843d8611610b7957610b6b8183614172565b38615c26565b8c513d6000823e3d90fd5b91507fd418c93b6b78d828a87ee1909e6fcdbbf2f8d8f540ad7b232bb3e221e6d7cc1e90606854615b1f60405192839283526040602084015260408301906148f6565b60018060a01b0390600482607a54166020846078541660405193848092633629edcd60e11b82525afa918215614af757600092615dc1575b50803b15610b2a5760009283606492604051968795869463fc2ebdd160e01b865230600487015260248601521660448401525af18015614af757615db85750565b6155ee906140d8565b615dda91925060203d8111612292576122848183614172565b9038615d77565b6033546001600160a01b0316803b615df65790565b604051638da5cb5b60e01b8152602081600481855afa60009181615e1e575b50615065575090565b90916020823d8211615e51575b81615e3860209383614172565b810103126103af5750615e4a906148bf565b9038615e15565b3d9150615e2b56feec9315d9f4291207475c061feff1e5d7105750ac0ee9534af9444b4ff1dab9bc4910fdfa16fed3260ed0e7147f7cc6da11a60208b5b9406d12a635614ffd914370b752f3fadb6ac131c0ece847fcbb6994ec56ed6411595710fd9b29c6ac6cc146756e6374696f6e206d7573742062652063616c6c6564207468726f75676820360894a13ba1a3210667c828492db98dca3e2076cc3735a920a3ca505d382bbc0227f642ddcf2042ceaeafadb9d540f432072c00cd4862881667168dcc14710f8be0079c531659141344cd1fd0a4f28419497f9722a3daafe3b4186f6b6457e0bc7cd75a20ee27fd9adebab32041f755214dbc6bffa90cc0225b39da2e5c2d3be677e2878aaaaf6a65ecf50f849ad58100c49f6dfd57d055ba4bddd63a175d5345524331393637557067726164653a206e657720696d706c656d656e74617469a7932e9c92f31e1ed56b29d00bbe669a97484dc24de28dd9c8c0429df7f35847a26469706673582212201c48606b63d6d3605feb611103affb2045bfa0a139788b459a7531e270ae0ea264736f6c63430008130033","linkReferences":{}},"methodIdentifiers":{"D()":"0f529ba2","DISPUTE_COOLDOWN_SEC()":"f5be3f7c","MAX_STAKED_PROPOSALS()":"406244d8","NATIVE()":"a0cf0aea","RULING_OPTIONS()":"626c47e8","VERSION()":"ffa1ad74","activatePoints()":"814516ad","addToAllowList(address[])":"7263cfe2","allocate(bytes,address)":"ef2920fc","arbitrableConfigs(uint256)":"41bb7605","calculateConviction(uint256,uint256,uint256)":"346db8cb","calculateThreshold(uint256)":"59a5db8b","canExecuteProposal(uint256)":"824ea8ed","cancelProposal(uint256)":"e0a8f6f5","cloneNonce()":"33960459","collateralVault()":"0bece79c","currentArbitrableConfigVersion()":"125fd1d9","cvParams()":"2506b870","deactivatePoints()":"1ddf1e23","deactivatePoints(address)":"6453d9c4","decreasePower(address,uint256)":"2ed04b2b","disputeCount()":"a28889e1","disputeIdToProposalId(uint256)":"255ffb38","disputeProposal(uint256,string,bytes)":"b41596ec","distribute(address[],bytes,address)":"0a6f0ee9","getAllo()":"15cc481e","getArbitrableConfig()":"059351cd","getMaxAmount()":"0ba95909","getMaxConviction(uint256)":"950559d7","getMetadata(uint256)":"a574cea4","getPayouts(address[],bytes[])":"b2b878d0","getPointSystem()":"c3292171","getPoolAmount()":"4ab4ba42","getPoolId()":"38fff2d0","getProposal(uint256)":"c7f758a8","getProposalStakedAmount(uint256)":"dc96ff2d","getProposalVoterStake(uint256,address)":"e0dd2c38","getRecipientStatus(address)":"eb11af93","getStrategyId()":"42fda9c7","getTotalVoterStakePct(address)":"bcc5b93b","increasePoolAmount(uint256)":"f5b0dfb7","increasePower(address,uint256)":"782aadff","init(address,address,address)":"184b9559","init(address,string,address)":"60d5dedc","initialize(address)":"c4d66de8","initialize(uint256,bytes)":"edd146cc","isPoolActive()":"df868ed3","isValidAllocator(address)":"4d31d087","owner()":"8da5cb5b","pointConfig()":"a47ff7e5","pointSystem()":"2dbd6fdd","proposalCounter()":"0c0512e9","proposalType()":"351d9f96","proposals(uint256)":"013cf08b","proxiableUUID()":"52d1902d","registerRecipient(bytes,address)":"2bbe0cae","registryCommunity()":"6003e414","removeFromAllowList(address[])":"a51312c8","renounceOwnership()":"715018a6","rule(uint256,uint256)":"311a6c56","setCollateralVaultTemplate(address)":"b0d3713a","setPoolActive(bool)":"b5f620ce","setPoolParams((address,address,uint256,uint256,uint256,uint256),(uint256,uint256,uint256,uint256),address[],address[])":"948e7a59","setPoolParams((address,address,uint256,uint256,uint256,uint256),(uint256,uint256,uint256,uint256),uint256)":"ad56fd5d","setSybilScorer(address,uint256)":"3864d366","supportsInterface(bytes4)":"01ffc9a7","sybilScorer()":"b6c61f31","totalEffectiveActivePoints()":"d1e36232","totalPointsActivated()":"aba9ffee","totalStaked()":"817b1cd2","totalVoterStakePct(address)":"5db64b99","transferOwnership(address)":"f2fde38b","updateProposalConviction(uint256)":"1aa91a9e","upgradeTo(address)":"3659cfe6","upgradeToAndCall(address,bytes)":"4f1ef286","voterStakedProposals(address,uint256)":"868c57b8"},"storageLayout":{"storage":[{"astId":52287,"contract":"pkg/contracts/src/CVStrategy/CVStrategyV0_0.sol:CVStrategyV0_0","label":"_initialized","offset":0,"slot":"0","type":"t_uint8"},{"astId":52290,"contract":"pkg/contracts/src/CVStrategy/CVStrategyV0_0.sol:CVStrategyV0_0","label":"_initializing","offset":1,"slot":"0","type":"t_bool"},{"astId":52992,"contract":"pkg/contracts/src/CVStrategy/CVStrategyV0_0.sol:CVStrategyV0_0","label":"__gap","offset":0,"slot":"1","type":"t_array(t_uint256)50_storage"},{"astId":52079,"contract":"pkg/contracts/src/CVStrategy/CVStrategyV0_0.sol:CVStrategyV0_0","label":"_owner","offset":0,"slot":"51","type":"t_address"},{"astId":52199,"contract":"pkg/contracts/src/CVStrategy/CVStrategyV0_0.sol:CVStrategyV0_0","label":"__gap","offset":0,"slot":"52","type":"t_array(t_uint256)49_storage"},{"astId":64743,"contract":"pkg/contracts/src/CVStrategy/CVStrategyV0_0.sol:CVStrategyV0_0","label":"allo","offset":0,"slot":"101","type":"t_contract(IAllo)2610"},{"astId":64745,"contract":"pkg/contracts/src/CVStrategy/CVStrategyV0_0.sol:CVStrategyV0_0","label":"strategyId","offset":0,"slot":"102","type":"t_bytes32"},{"astId":64747,"contract":"pkg/contracts/src/CVStrategy/CVStrategyV0_0.sol:CVStrategyV0_0","label":"poolActive","offset":0,"slot":"103","type":"t_bool"},{"astId":64749,"contract":"pkg/contracts/src/CVStrategy/CVStrategyV0_0.sol:CVStrategyV0_0","label":"poolId","offset":0,"slot":"104","type":"t_uint256"},{"astId":64751,"contract":"pkg/contracts/src/CVStrategy/CVStrategyV0_0.sol:CVStrategyV0_0","label":"poolAmount","offset":0,"slot":"105","type":"t_uint256"},{"astId":65830,"contract":"pkg/contracts/src/CVStrategy/CVStrategyV0_0.sol:CVStrategyV0_0","label":"collateralVaultTemplate","offset":0,"slot":"106","type":"t_address"},{"astId":65832,"contract":"pkg/contracts/src/CVStrategy/CVStrategyV0_0.sol:CVStrategyV0_0","label":"surpressStateMutabilityWarning","offset":0,"slot":"107","type":"t_uint256"},{"astId":65834,"contract":"pkg/contracts/src/CVStrategy/CVStrategyV0_0.sol:CVStrategyV0_0","label":"cloneNonce","offset":0,"slot":"108","type":"t_uint256"},{"astId":65836,"contract":"pkg/contracts/src/CVStrategy/CVStrategyV0_0.sol:CVStrategyV0_0","label":"disputeCount","offset":0,"slot":"109","type":"t_uint64"},{"astId":65838,"contract":"pkg/contracts/src/CVStrategy/CVStrategyV0_0.sol:CVStrategyV0_0","label":"proposalCounter","offset":0,"slot":"110","type":"t_uint256"},{"astId":65840,"contract":"pkg/contracts/src/CVStrategy/CVStrategyV0_0.sol:CVStrategyV0_0","label":"currentArbitrableConfigVersion","offset":0,"slot":"111","type":"t_uint256"},{"astId":65842,"contract":"pkg/contracts/src/CVStrategy/CVStrategyV0_0.sol:CVStrategyV0_0","label":"totalStaked","offset":0,"slot":"112","type":"t_uint256"},{"astId":65844,"contract":"pkg/contracts/src/CVStrategy/CVStrategyV0_0.sol:CVStrategyV0_0","label":"totalPointsActivated","offset":0,"slot":"113","type":"t_uint256"},{"astId":65847,"contract":"pkg/contracts/src/CVStrategy/CVStrategyV0_0.sol:CVStrategyV0_0","label":"cvParams","offset":0,"slot":"114","type":"t_struct(CVParams)65506_storage"},{"astId":65850,"contract":"pkg/contracts/src/CVStrategy/CVStrategyV0_0.sol:CVStrategyV0_0","label":"proposalType","offset":0,"slot":"118","type":"t_enum(ProposalType)65409"},{"astId":65853,"contract":"pkg/contracts/src/CVStrategy/CVStrategyV0_0.sol:CVStrategyV0_0","label":"pointSystem","offset":1,"slot":"118","type":"t_enum(PointSystem)65414"},{"astId":65856,"contract":"pkg/contracts/src/CVStrategy/CVStrategyV0_0.sol:CVStrategyV0_0","label":"pointConfig","offset":0,"slot":"119","type":"t_struct(PointSystemConfig)65483_storage"},{"astId":65859,"contract":"pkg/contracts/src/CVStrategy/CVStrategyV0_0.sol:CVStrategyV0_0","label":"registryCommunity","offset":0,"slot":"120","type":"t_contract(RegistryCommunityV0_0)72866"},{"astId":65862,"contract":"pkg/contracts/src/CVStrategy/CVStrategyV0_0.sol:CVStrategyV0_0","label":"collateralVault","offset":0,"slot":"121","type":"t_contract(ICollateralVault)76293"},{"astId":65865,"contract":"pkg/contracts/src/CVStrategy/CVStrategyV0_0.sol:CVStrategyV0_0","label":"sybilScorer","offset":0,"slot":"122","type":"t_contract(ISybilScorer)69932"},{"astId":65870,"contract":"pkg/contracts/src/CVStrategy/CVStrategyV0_0.sol:CVStrategyV0_0","label":"proposals","offset":0,"slot":"123","type":"t_mapping(t_uint256,t_struct(Proposal)65475_storage)"},{"astId":65874,"contract":"pkg/contracts/src/CVStrategy/CVStrategyV0_0.sol:CVStrategyV0_0","label":"totalVoterStakePct","offset":0,"slot":"124","type":"t_mapping(t_address,t_uint256)"},{"astId":65879,"contract":"pkg/contracts/src/CVStrategy/CVStrategyV0_0.sol:CVStrategyV0_0","label":"voterStakedProposals","offset":0,"slot":"125","type":"t_mapping(t_address,t_array(t_uint256)dyn_storage)"},{"astId":65883,"contract":"pkg/contracts/src/CVStrategy/CVStrategyV0_0.sol:CVStrategyV0_0","label":"disputeIdToProposalId","offset":0,"slot":"126","type":"t_mapping(t_uint256,t_uint256)"},{"astId":65888,"contract":"pkg/contracts/src/CVStrategy/CVStrategyV0_0.sol:CVStrategyV0_0","label":"arbitrableConfigs","offset":0,"slot":"127","type":"t_mapping(t_uint256,t_struct(ArbitrableConfig)65497_storage)"},{"astId":69567,"contract":"pkg/contracts/src/CVStrategy/CVStrategyV0_0.sol:CVStrategyV0_0","label":"__gap","offset":0,"slot":"128","type":"t_array(t_uint256)50_storage"}],"types":{"t_address":{"encoding":"inplace","label":"address","numberOfBytes":"20"},"t_array(t_uint256)49_storage":{"encoding":"inplace","label":"uint256[49]","numberOfBytes":"1568","base":"t_uint256"},"t_array(t_uint256)50_storage":{"encoding":"inplace","label":"uint256[50]","numberOfBytes":"1600","base":"t_uint256"},"t_array(t_uint256)dyn_storage":{"encoding":"dynamic_array","label":"uint256[]","numberOfBytes":"32","base":"t_uint256"},"t_bool":{"encoding":"inplace","label":"bool","numberOfBytes":"1"},"t_bytes32":{"encoding":"inplace","label":"bytes32","numberOfBytes":"32"},"t_contract(IAllo)2610":{"encoding":"inplace","label":"contract IAllo","numberOfBytes":"20"},"t_contract(IArbitrator)76260":{"encoding":"inplace","label":"contract IArbitrator","numberOfBytes":"20"},"t_contract(ICollateralVault)76293":{"encoding":"inplace","label":"contract ICollateralVault","numberOfBytes":"20"},"t_contract(ISybilScorer)69932":{"encoding":"inplace","label":"contract ISybilScorer","numberOfBytes":"20"},"t_contract(RegistryCommunityV0_0)72866":{"encoding":"inplace","label":"contract RegistryCommunityV0_0","numberOfBytes":"20"},"t_enum(PointSystem)65414":{"encoding":"inplace","label":"enum PointSystem","numberOfBytes":"1"},"t_enum(ProposalStatus)65434":{"encoding":"inplace","label":"enum ProposalStatus","numberOfBytes":"1"},"t_enum(ProposalType)65409":{"encoding":"inplace","label":"enum ProposalType","numberOfBytes":"1"},"t_mapping(t_address,t_array(t_uint256)dyn_storage)":{"encoding":"mapping","key":"t_address","label":"mapping(address => uint256[])","numberOfBytes":"32","value":"t_array(t_uint256)dyn_storage"},"t_mapping(t_address,t_uint256)":{"encoding":"mapping","key":"t_address","label":"mapping(address => uint256)","numberOfBytes":"32","value":"t_uint256"},"t_mapping(t_uint256,t_struct(ArbitrableConfig)65497_storage)":{"encoding":"mapping","key":"t_uint256","label":"mapping(uint256 => struct ArbitrableConfig)","numberOfBytes":"32","value":"t_struct(ArbitrableConfig)65497_storage"},"t_mapping(t_uint256,t_struct(Proposal)65475_storage)":{"encoding":"mapping","key":"t_uint256","label":"mapping(uint256 => struct Proposal)","numberOfBytes":"32","value":"t_struct(Proposal)65475_storage"},"t_mapping(t_uint256,t_uint256)":{"encoding":"mapping","key":"t_uint256","label":"mapping(uint256 => uint256)","numberOfBytes":"32","value":"t_uint256"},"t_string_storage":{"encoding":"bytes","label":"string","numberOfBytes":"32"},"t_struct(ArbitrableConfig)65497_storage":{"encoding":"inplace","label":"struct ArbitrableConfig","numberOfBytes":"192","members":[{"astId":65486,"contract":"pkg/contracts/src/CVStrategy/CVStrategyV0_0.sol:CVStrategyV0_0","label":"arbitrator","offset":0,"slot":"0","type":"t_contract(IArbitrator)76260"},{"astId":65488,"contract":"pkg/contracts/src/CVStrategy/CVStrategyV0_0.sol:CVStrategyV0_0","label":"tribunalSafe","offset":0,"slot":"1","type":"t_address"},{"astId":65490,"contract":"pkg/contracts/src/CVStrategy/CVStrategyV0_0.sol:CVStrategyV0_0","label":"submitterCollateralAmount","offset":0,"slot":"2","type":"t_uint256"},{"astId":65492,"contract":"pkg/contracts/src/CVStrategy/CVStrategyV0_0.sol:CVStrategyV0_0","label":"challengerCollateralAmount","offset":0,"slot":"3","type":"t_uint256"},{"astId":65494,"contract":"pkg/contracts/src/CVStrategy/CVStrategyV0_0.sol:CVStrategyV0_0","label":"defaultRuling","offset":0,"slot":"4","type":"t_uint256"},{"astId":65496,"contract":"pkg/contracts/src/CVStrategy/CVStrategyV0_0.sol:CVStrategyV0_0","label":"defaultRulingTimeout","offset":0,"slot":"5","type":"t_uint256"}]},"t_struct(CVParams)65506_storage":{"encoding":"inplace","label":"struct CVParams","numberOfBytes":"128","members":[{"astId":65499,"contract":"pkg/contracts/src/CVStrategy/CVStrategyV0_0.sol:CVStrategyV0_0","label":"maxRatio","offset":0,"slot":"0","type":"t_uint256"},{"astId":65501,"contract":"pkg/contracts/src/CVStrategy/CVStrategyV0_0.sol:CVStrategyV0_0","label":"weight","offset":0,"slot":"1","type":"t_uint256"},{"astId":65503,"contract":"pkg/contracts/src/CVStrategy/CVStrategyV0_0.sol:CVStrategyV0_0","label":"decay","offset":0,"slot":"2","type":"t_uint256"},{"astId":65505,"contract":"pkg/contracts/src/CVStrategy/CVStrategyV0_0.sol:CVStrategyV0_0","label":"minThresholdPoints","offset":0,"slot":"3","type":"t_uint256"}]},"t_struct(Metadata)3098_storage":{"encoding":"inplace","label":"struct Metadata","numberOfBytes":"64","members":[{"astId":3094,"contract":"pkg/contracts/src/CVStrategy/CVStrategyV0_0.sol:CVStrategyV0_0","label":"protocol","offset":0,"slot":"0","type":"t_uint256"},{"astId":3097,"contract":"pkg/contracts/src/CVStrategy/CVStrategyV0_0.sol:CVStrategyV0_0","label":"pointer","offset":0,"slot":"1","type":"t_string_storage"}]},"t_struct(PointSystemConfig)65483_storage":{"encoding":"inplace","label":"struct PointSystemConfig","numberOfBytes":"32","members":[{"astId":65482,"contract":"pkg/contracts/src/CVStrategy/CVStrategyV0_0.sol:CVStrategyV0_0","label":"maxAmount","offset":0,"slot":"0","type":"t_uint256"}]},"t_struct(Proposal)65475_storage":{"encoding":"inplace","label":"struct Proposal","numberOfBytes":"544","members":[{"astId":65443,"contract":"pkg/contracts/src/CVStrategy/CVStrategyV0_0.sol:CVStrategyV0_0","label":"proposalId","offset":0,"slot":"0","type":"t_uint256"},{"astId":65445,"contract":"pkg/contracts/src/CVStrategy/CVStrategyV0_0.sol:CVStrategyV0_0","label":"requestedAmount","offset":0,"slot":"1","type":"t_uint256"},{"astId":65447,"contract":"pkg/contracts/src/CVStrategy/CVStrategyV0_0.sol:CVStrategyV0_0","label":"stakedAmount","offset":0,"slot":"2","type":"t_uint256"},{"astId":65449,"contract":"pkg/contracts/src/CVStrategy/CVStrategyV0_0.sol:CVStrategyV0_0","label":"convictionLast","offset":0,"slot":"3","type":"t_uint256"},{"astId":65451,"contract":"pkg/contracts/src/CVStrategy/CVStrategyV0_0.sol:CVStrategyV0_0","label":"beneficiary","offset":0,"slot":"4","type":"t_address"},{"astId":65453,"contract":"pkg/contracts/src/CVStrategy/CVStrategyV0_0.sol:CVStrategyV0_0","label":"submitter","offset":0,"slot":"5","type":"t_address"},{"astId":65455,"contract":"pkg/contracts/src/CVStrategy/CVStrategyV0_0.sol:CVStrategyV0_0","label":"requestedToken","offset":0,"slot":"6","type":"t_address"},{"astId":65457,"contract":"pkg/contracts/src/CVStrategy/CVStrategyV0_0.sol:CVStrategyV0_0","label":"blockLast","offset":0,"slot":"7","type":"t_uint256"},{"astId":65460,"contract":"pkg/contracts/src/CVStrategy/CVStrategyV0_0.sol:CVStrategyV0_0","label":"proposalStatus","offset":0,"slot":"8","type":"t_enum(ProposalStatus)65434"},{"astId":65464,"contract":"pkg/contracts/src/CVStrategy/CVStrategyV0_0.sol:CVStrategyV0_0","label":"voterStakedPoints","offset":0,"slot":"9","type":"t_mapping(t_address,t_uint256)"},{"astId":65467,"contract":"pkg/contracts/src/CVStrategy/CVStrategyV0_0.sol:CVStrategyV0_0","label":"metadata","offset":0,"slot":"10","type":"t_struct(Metadata)3098_storage"},{"astId":65470,"contract":"pkg/contracts/src/CVStrategy/CVStrategyV0_0.sol:CVStrategyV0_0","label":"disputeInfo","offset":0,"slot":"12","type":"t_struct(ProposalDisputeInfo)65441_storage"},{"astId":65472,"contract":"pkg/contracts/src/CVStrategy/CVStrategyV0_0.sol:CVStrategyV0_0","label":"lastDisputeCompletion","offset":0,"slot":"15","type":"t_uint256"},{"astId":65474,"contract":"pkg/contracts/src/CVStrategy/CVStrategyV0_0.sol:CVStrategyV0_0","label":"arbitrableConfigVersion","offset":0,"slot":"16","type":"t_uint256"}]},"t_struct(ProposalDisputeInfo)65441_storage":{"encoding":"inplace","label":"struct ProposalDisputeInfo","numberOfBytes":"96","members":[{"astId":65436,"contract":"pkg/contracts/src/CVStrategy/CVStrategyV0_0.sol:CVStrategyV0_0","label":"disputeId","offset":0,"slot":"0","type":"t_uint256"},{"astId":65438,"contract":"pkg/contracts/src/CVStrategy/CVStrategyV0_0.sol:CVStrategyV0_0","label":"disputeTimestamp","offset":0,"slot":"1","type":"t_uint256"},{"astId":65440,"contract":"pkg/contracts/src/CVStrategy/CVStrategyV0_0.sol:CVStrategyV0_0","label":"challenger","offset":0,"slot":"2","type":"t_address"}]},"t_uint256":{"encoding":"inplace","label":"uint256","numberOfBytes":"32"},"t_uint64":{"encoding":"inplace","label":"uint64","numberOfBytes":"8"},"t_uint8":{"encoding":"inplace","label":"uint8","numberOfBytes":"1"}}},"id":97}