{"abi":[{"type":"receive","stateMutability":"payable"},{"type":"function","name":"DISPUTE_COOLDOWN_SEC","inputs":[],"outputs":[{"name":"","type":"uint256","internalType":"uint256"}],"stateMutability":"view"},{"type":"function","name":"NATIVE","inputs":[],"outputs":[{"name":"","type":"address","internalType":"address"}],"stateMutability":"view"},{"type":"function","name":"RULING_OPTIONS","inputs":[],"outputs":[{"name":"","type":"uint256","internalType":"uint256"}],"stateMutability":"view"},{"type":"function","name":"activatePoints","inputs":[],"outputs":[],"stateMutability":"nonpayable"},{"type":"function","name":"allocate","inputs":[{"name":"_data","type":"bytes","internalType":"bytes"},{"name":"_sender","type":"address","internalType":"address"}],"outputs":[],"stateMutability":"payable"},{"type":"function","name":"arbitrableConfigs","inputs":[{"name":"","type":"uint256","internalType":"uint256"}],"outputs":[{"name":"arbitrator","type":"address","internalType":"contract IArbitrator"},{"name":"tribunalSafe","type":"address","internalType":"address"},{"name":"submitterCollateralAmount","type":"uint256","internalType":"uint256"},{"name":"challengerCollateralAmount","type":"uint256","internalType":"uint256"},{"name":"defaultRuling","type":"uint256","internalType":"uint256"},{"name":"defaultRulingTimeout","type":"uint256","internalType":"uint256"}],"stateMutability":"view"},{"type":"function","name":"calculateProposalConviction","inputs":[{"name":"_proposalId","type":"uint256","internalType":"uint256"}],"outputs":[{"name":"","type":"uint256","internalType":"uint256"}],"stateMutability":"view"},{"type":"function","name":"calculateThreshold","inputs":[{"name":"_requestedAmount","type":"uint256","internalType":"uint256"}],"outputs":[{"name":"","type":"uint256","internalType":"uint256"}],"stateMutability":"view"},{"type":"function","name":"cancelProposal","inputs":[{"name":"proposalId","type":"uint256","internalType":"uint256"}],"outputs":[],"stateMutability":"nonpayable"},{"type":"function","name":"cloneNonce","inputs":[],"outputs":[{"name":"","type":"uint256","internalType":"uint256"}],"stateMutability":"view"},{"type":"function","name":"collateralVault","inputs":[],"outputs":[{"name":"","type":"address","internalType":"contract ICollateralVault"}],"stateMutability":"view"},{"type":"function","name":"connectSuperfluidGDA","inputs":[{"name":"gda","type":"address","internalType":"address"}],"outputs":[],"stateMutability":"nonpayable"},{"type":"function","name":"currentArbitrableConfigVersion","inputs":[],"outputs":[{"name":"","type":"uint256","internalType":"uint256"}],"stateMutability":"view"},{"type":"function","name":"cvParams","inputs":[],"outputs":[{"name":"maxRatio","type":"uint256","internalType":"uint256"},{"name":"weight","type":"uint256","internalType":"uint256"},{"name":"decay","type":"uint256","internalType":"uint256"},{"name":"minThresholdPoints","type":"uint256","internalType":"uint256"}],"stateMutability":"view"},{"type":"function","name":"deactivatePoints","inputs":[],"outputs":[],"stateMutability":"nonpayable"},{"type":"function","name":"deactivatePoints","inputs":[{"name":"_member","type":"address","internalType":"address"}],"outputs":[],"stateMutability":"nonpayable"},{"type":"function","name":"decreasePower","inputs":[{"name":"_member","type":"address","internalType":"address"},{"name":"_amountToUnstake","type":"uint256","internalType":"uint256"}],"outputs":[{"name":"","type":"uint256","internalType":"uint256"}],"stateMutability":"nonpayable"},{"type":"function","name":"disconnectSuperfluidGDA","inputs":[{"name":"gda","type":"address","internalType":"address"}],"outputs":[],"stateMutability":"nonpayable"},{"type":"function","name":"disputeCount","inputs":[],"outputs":[{"name":"","type":"uint64","internalType":"uint64"}],"stateMutability":"view"},{"type":"function","name":"disputeIdToProposalId","inputs":[{"name":"","type":"uint256","internalType":"uint256"}],"outputs":[{"name":"","type":"uint256","internalType":"uint256"}],"stateMutability":"view"},{"type":"function","name":"disputeProposal","inputs":[{"name":"proposalId","type":"uint256","internalType":"uint256"},{"name":"context","type":"string","internalType":"string"},{"name":"_extraData","type":"bytes","internalType":"bytes"}],"outputs":[{"name":"disputeId","type":"uint256","internalType":"uint256"}],"stateMutability":"payable"},{"type":"function","name":"distribute","inputs":[{"name":"_recipientIds","type":"address[]","internalType":"address[]"},{"name":"_data","type":"bytes","internalType":"bytes"},{"name":"_sender","type":"address","internalType":"address"}],"outputs":[],"stateMutability":"nonpayable"},{"type":"function","name":"getAllo","inputs":[],"outputs":[{"name":"","type":"address","internalType":"contract IAllo"}],"stateMutability":"view"},{"type":"function","name":"getArbitrableConfig","inputs":[],"outputs":[{"name":"arbitrator","type":"address","internalType":"contract IArbitrator"},{"name":"tribunalSafe","type":"address","internalType":"address"},{"name":"submitterCollateralAmount","type":"uint256","internalType":"uint256"},{"name":"challengerCollateralAmount","type":"uint256","internalType":"uint256"},{"name":"defaultRuling","type":"uint256","internalType":"uint256"},{"name":"defaultRulingTimeout","type":"uint256","internalType":"uint256"}],"stateMutability":"view"},{"type":"function","name":"getPointSystem","inputs":[],"outputs":[{"name":"","type":"uint8","internalType":"enum PointSystem"}],"stateMutability":"view"},{"type":"function","name":"getPoolAmount","inputs":[],"outputs":[{"name":"","type":"uint256","internalType":"uint256"}],"stateMutability":"view"},{"type":"function","name":"getPoolId","inputs":[],"outputs":[{"name":"","type":"uint256","internalType":"uint256"}],"stateMutability":"view"},{"type":"function","name":"getProposal","inputs":[{"name":"_proposalId","type":"uint256","internalType":"uint256"}],"outputs":[{"name":"submitter","type":"address","internalType":"address"},{"name":"beneficiary","type":"address","internalType":"address"},{"name":"requestedToken","type":"address","internalType":"address"},{"name":"requestedAmount","type":"uint256","internalType":"uint256"},{"name":"stakedAmount","type":"uint256","internalType":"uint256"},{"name":"proposalStatus","type":"uint8","internalType":"enum ProposalStatus"},{"name":"blockLast","type":"uint256","internalType":"uint256"},{"name":"convictionLast","type":"uint256","internalType":"uint256"},{"name":"threshold","type":"uint256","internalType":"uint256"},{"name":"voterStakedPoints","type":"uint256","internalType":"uint256"},{"name":"arbitrableConfigVersion","type":"uint256","internalType":"uint256"},{"name":"protocol","type":"uint256","internalType":"uint256"}],"stateMutability":"view"},{"type":"function","name":"getProposalStakedAmount","inputs":[{"name":"_proposalId","type":"uint256","internalType":"uint256"}],"outputs":[{"name":"","type":"uint256","internalType":"uint256"}],"stateMutability":"view"},{"type":"function","name":"getProposalVoterStake","inputs":[{"name":"_proposalId","type":"uint256","internalType":"uint256"},{"name":"_voter","type":"address","internalType":"address"}],"outputs":[{"name":"","type":"uint256","internalType":"uint256"}],"stateMutability":"view"},{"type":"function","name":"increasePower","inputs":[{"name":"_member","type":"address","internalType":"address"},{"name":"_amountToStake","type":"uint256","internalType":"uint256"}],"outputs":[{"name":"","type":"uint256","internalType":"uint256"}],"stateMutability":"nonpayable"},{"type":"function","name":"init","inputs":[{"name":"_allo","type":"address","internalType":"address"},{"name":"_collateralVaultTemplate","type":"address","internalType":"address"},{"name":"_owner","type":"address","internalType":"address"}],"outputs":[],"stateMutability":"nonpayable"},{"type":"function","name":"init","inputs":[{"name":"_allo","type":"address","internalType":"address"},{"name":"_name","type":"string","internalType":"string"},{"name":"_owner","type":"address","internalType":"address"}],"outputs":[],"stateMutability":"nonpayable"},{"type":"function","name":"initialize","inputs":[{"name":"initialOwner","type":"address","internalType":"address"}],"outputs":[],"stateMutability":"nonpayable"},{"type":"function","name":"initialize","inputs":[{"name":"_poolId","type":"uint256","internalType":"uint256"},{"name":"_data","type":"bytes","internalType":"bytes"}],"outputs":[],"stateMutability":"nonpayable"},{"type":"function","name":"isPoolActive","inputs":[],"outputs":[{"name":"","type":"bool","internalType":"bool"}],"stateMutability":"view"},{"type":"function","name":"owner","inputs":[],"outputs":[{"name":"","type":"address","internalType":"address"}],"stateMutability":"view"},{"type":"function","name":"pointConfig","inputs":[],"outputs":[{"name":"maxAmount","type":"uint256","internalType":"uint256"}],"stateMutability":"view"},{"type":"function","name":"pointSystem","inputs":[],"outputs":[{"name":"","type":"uint8","internalType":"enum PointSystem"}],"stateMutability":"view"},{"type":"function","name":"proposalCounter","inputs":[],"outputs":[{"name":"","type":"uint256","internalType":"uint256"}],"stateMutability":"view"},{"type":"function","name":"proposalType","inputs":[],"outputs":[{"name":"","type":"uint8","internalType":"enum ProposalType"}],"stateMutability":"view"},{"type":"function","name":"proposals","inputs":[{"name":"","type":"uint256","internalType":"uint256"}],"outputs":[{"name":"proposalId","type":"uint256","internalType":"uint256"},{"name":"requestedAmount","type":"uint256","internalType":"uint256"},{"name":"stakedAmount","type":"uint256","internalType":"uint256"},{"name":"convictionLast","type":"uint256","internalType":"uint256"},{"name":"beneficiary","type":"address","internalType":"address"},{"name":"submitter","type":"address","internalType":"address"},{"name":"requestedToken","type":"address","internalType":"address"},{"name":"blockLast","type":"uint256","internalType":"uint256"},{"name":"proposalStatus","type":"uint8","internalType":"enum ProposalStatus"},{"name":"metadata","type":"tuple","internalType":"struct Metadata","components":[{"name":"protocol","type":"uint256","internalType":"uint256"},{"name":"pointer","type":"string","internalType":"string"}]},{"name":"disputeInfo","type":"tuple","internalType":"struct ProposalDisputeInfo","components":[{"name":"disputeId","type":"uint256","internalType":"uint256"},{"name":"disputeTimestamp","type":"uint256","internalType":"uint256"},{"name":"challenger","type":"address","internalType":"address"}]},{"name":"lastDisputeCompletion","type":"uint256","internalType":"uint256"},{"name":"arbitrableConfigVersion","type":"uint256","internalType":"uint256"}],"stateMutability":"view"},{"type":"function","name":"proxiableUUID","inputs":[],"outputs":[{"name":"","type":"bytes32","internalType":"bytes32"}],"stateMutability":"view"},{"type":"function","name":"proxyOwner","inputs":[],"outputs":[{"name":"","type":"address","internalType":"address"}],"stateMutability":"view"},{"type":"function","name":"registerRecipient","inputs":[{"name":"_data","type":"bytes","internalType":"bytes"},{"name":"_sender","type":"address","internalType":"address"}],"outputs":[{"name":"","type":"address","internalType":"address"}],"stateMutability":"payable"},{"type":"function","name":"registryCommunity","inputs":[],"outputs":[{"name":"","type":"address","internalType":"contract RegistryCommunityV0_0"}],"stateMutability":"view"},{"type":"function","name":"renounceOwnership","inputs":[],"outputs":[],"stateMutability":"nonpayable"},{"type":"function","name":"rule","inputs":[{"name":"_disputeID","type":"uint256","internalType":"uint256"},{"name":"_ruling","type":"uint256","internalType":"uint256"}],"outputs":[],"stateMutability":"nonpayable"},{"type":"function","name":"setCollateralVaultTemplate","inputs":[{"name":"template","type":"address","internalType":"address"}],"outputs":[],"stateMutability":"nonpayable"},{"type":"function","name":"setPoolActive","inputs":[{"name":"_active","type":"bool","internalType":"bool"}],"outputs":[],"stateMutability":"nonpayable"},{"type":"function","name":"setPoolParams","inputs":[{"name":"_arbitrableConfig","type":"tuple","internalType":"struct ArbitrableConfig","components":[{"name":"arbitrator","type":"address","internalType":"contract IArbitrator"},{"name":"tribunalSafe","type":"address","internalType":"address"},{"name":"submitterCollateralAmount","type":"uint256","internalType":"uint256"},{"name":"challengerCollateralAmount","type":"uint256","internalType":"uint256"},{"name":"defaultRuling","type":"uint256","internalType":"uint256"},{"name":"defaultRulingTimeout","type":"uint256","internalType":"uint256"}]},{"name":"_cvParams","type":"tuple","internalType":"struct CVParams","components":[{"name":"maxRatio","type":"uint256","internalType":"uint256"},{"name":"weight","type":"uint256","internalType":"uint256"},{"name":"decay","type":"uint256","internalType":"uint256"},{"name":"minThresholdPoints","type":"uint256","internalType":"uint256"}]},{"name":"_sybilScoreThreshold","type":"uint256","internalType":"uint256"},{"name":"_membersToAdd","type":"address[]","internalType":"address[]"},{"name":"_membersToRemove","type":"address[]","internalType":"address[]"},{"name":"_superfluidToken","type":"address","internalType":"address"}],"outputs":[],"stateMutability":"nonpayable"},{"type":"function","name":"superfluidToken","inputs":[],"outputs":[{"name":"","type":"address","internalType":"contract ISuperToken"}],"stateMutability":"view"},{"type":"function","name":"supportsInterface","inputs":[{"name":"interfaceId","type":"bytes4","internalType":"bytes4"}],"outputs":[{"name":"","type":"bool","internalType":"bool"}],"stateMutability":"view"},{"type":"function","name":"sybilScorer","inputs":[],"outputs":[{"name":"","type":"address","internalType":"contract ISybilScorer"}],"stateMutability":"view"},{"type":"function","name":"totalPointsActivated","inputs":[],"outputs":[{"name":"","type":"uint256","internalType":"uint256"}],"stateMutability":"view"},{"type":"function","name":"totalStaked","inputs":[],"outputs":[{"name":"","type":"uint256","internalType":"uint256"}],"stateMutability":"view"},{"type":"function","name":"totalVoterStakePct","inputs":[{"name":"","type":"address","internalType":"address"}],"outputs":[{"name":"","type":"uint256","internalType":"uint256"}],"stateMutability":"view"},{"type":"function","name":"transferOwnership","inputs":[{"name":"newOwner","type":"address","internalType":"address"}],"outputs":[],"stateMutability":"nonpayable"},{"type":"function","name":"updateProposalConviction","inputs":[{"name":"proposalId","type":"uint256","internalType":"uint256"}],"outputs":[{"name":"","type":"uint256","internalType":"uint256"}],"stateMutability":"nonpayable"},{"type":"function","name":"upgradeTo","inputs":[{"name":"newImplementation","type":"address","internalType":"address"}],"outputs":[],"stateMutability":"nonpayable"},{"type":"function","name":"upgradeToAndCall","inputs":[{"name":"newImplementation","type":"address","internalType":"address"},{"name":"data","type":"bytes","internalType":"bytes"}],"outputs":[],"stateMutability":"payable"},{"type":"function","name":"voterStakedProposals","inputs":[{"name":"","type":"address","internalType":"address"},{"name":"","type":"uint256","internalType":"uint256"}],"outputs":[{"name":"","type":"uint256","internalType":"uint256"}],"stateMutability":"view"},{"type":"event","name":"AdminChanged","inputs":[{"name":"previousAdmin","type":"address","indexed":false,"internalType":"address"},{"name":"newAdmin","type":"address","indexed":false,"internalType":"address"}],"anonymous":false},{"type":"event","name":"Allocated","inputs":[{"name":"recipientId","type":"address","indexed":true,"internalType":"address"},{"name":"amount","type":"uint256","indexed":false,"internalType":"uint256"},{"name":"token","type":"address","indexed":false,"internalType":"address"},{"name":"sender","type":"address","indexed":false,"internalType":"address"}],"anonymous":false},{"type":"event","name":"AllowlistMembersAdded","inputs":[{"name":"poolId","type":"uint256","indexed":false,"internalType":"uint256"},{"name":"members","type":"address[]","indexed":false,"internalType":"address[]"}],"anonymous":false},{"type":"event","name":"AllowlistMembersRemoved","inputs":[{"name":"poolId","type":"uint256","indexed":false,"internalType":"uint256"},{"name":"members","type":"address[]","indexed":false,"internalType":"address[]"}],"anonymous":false},{"type":"event","name":"ArbitrableConfigUpdated","inputs":[{"name":"currentArbitrableConfigVersion","type":"uint256","indexed":false,"internalType":"uint256"},{"name":"arbitrator","type":"address","indexed":false,"internalType":"contract IArbitrator"},{"name":"tribunalSafe","type":"address","indexed":false,"internalType":"address"},{"name":"submitterCollateralAmount","type":"uint256","indexed":false,"internalType":"uint256"},{"name":"challengerCollateralAmount","type":"uint256","indexed":false,"internalType":"uint256"},{"name":"defaultRuling","type":"uint256","indexed":false,"internalType":"uint256"},{"name":"defaultRulingTimeout","type":"uint256","indexed":false,"internalType":"uint256"}],"anonymous":false},{"type":"event","name":"BeaconUpgraded","inputs":[{"name":"beacon","type":"address","indexed":true,"internalType":"address"}],"anonymous":false},{"type":"event","name":"CVParamsUpdated","inputs":[{"name":"cvParams","type":"tuple","indexed":false,"internalType":"struct CVParams","components":[{"name":"maxRatio","type":"uint256","internalType":"uint256"},{"name":"weight","type":"uint256","internalType":"uint256"},{"name":"decay","type":"uint256","internalType":"uint256"},{"name":"minThresholdPoints","type":"uint256","internalType":"uint256"}]}],"anonymous":false},{"type":"event","name":"DisputeRequest","inputs":[{"name":"_arbitrator","type":"address","indexed":true,"internalType":"contract IArbitrator"},{"name":"_arbitrableDisputeID","type":"uint256","indexed":true,"internalType":"uint256"},{"name":"_externalDisputeID","type":"uint256","indexed":false,"internalType":"uint256"},{"name":"_templateId","type":"uint256","indexed":false,"internalType":"uint256"},{"name":"_templateUri","type":"string","indexed":false,"internalType":"string"}],"anonymous":false},{"type":"event","name":"Distributed","inputs":[{"name":"proposalId","type":"uint256","indexed":false,"internalType":"uint256"},{"name":"beneficiary","type":"address","indexed":false,"internalType":"address"},{"name":"amount","type":"uint256","indexed":false,"internalType":"uint256"}],"anonymous":false},{"type":"event","name":"Distributed","inputs":[{"name":"recipientId","type":"address","indexed":true,"internalType":"address"},{"name":"recipientAddress","type":"address","indexed":false,"internalType":"address"},{"name":"amount","type":"uint256","indexed":false,"internalType":"uint256"},{"name":"sender","type":"address","indexed":false,"internalType":"address"}],"anonymous":false},{"type":"event","name":"Initialized","inputs":[{"name":"poolId","type":"uint256","indexed":false,"internalType":"uint256"},{"name":"data","type":"bytes","indexed":false,"internalType":"bytes"}],"anonymous":false},{"type":"event","name":"Initialized","inputs":[{"name":"version","type":"uint8","indexed":false,"internalType":"uint8"}],"anonymous":false},{"type":"event","name":"InitializedCV","inputs":[{"name":"poolId","type":"uint256","indexed":false,"internalType":"uint256"},{"name":"data","type":"tuple","indexed":false,"internalType":"struct CVStrategyInitializeParamsV0_0","components":[{"name":"cvParams","type":"tuple","internalType":"struct CVParams","components":[{"name":"maxRatio","type":"uint256","internalType":"uint256"},{"name":"weight","type":"uint256","internalType":"uint256"},{"name":"decay","type":"uint256","internalType":"uint256"},{"name":"minThresholdPoints","type":"uint256","internalType":"uint256"}]},{"name":"proposalType","type":"uint8","internalType":"enum ProposalType"},{"name":"pointSystem","type":"uint8","internalType":"enum PointSystem"},{"name":"pointConfig","type":"tuple","internalType":"struct PointSystemConfig","components":[{"name":"maxAmount","type":"uint256","internalType":"uint256"}]},{"name":"arbitrableConfig","type":"tuple","internalType":"struct ArbitrableConfig","components":[{"name":"arbitrator","type":"address","internalType":"contract IArbitrator"},{"name":"tribunalSafe","type":"address","internalType":"address"},{"name":"submitterCollateralAmount","type":"uint256","internalType":"uint256"},{"name":"challengerCollateralAmount","type":"uint256","internalType":"uint256"},{"name":"defaultRuling","type":"uint256","internalType":"uint256"},{"name":"defaultRulingTimeout","type":"uint256","internalType":"uint256"}]},{"name":"registryCommunity","type":"address","internalType":"address"},{"name":"sybilScorer","type":"address","internalType":"address"}]}],"anonymous":false},{"type":"event","name":"InitializedCV2","inputs":[{"name":"poolId","type":"uint256","indexed":false,"internalType":"uint256"},{"name":"data","type":"tuple","indexed":false,"internalType":"struct CVStrategyInitializeParamsV0_1","components":[{"name":"cvParams","type":"tuple","internalType":"struct CVParams","components":[{"name":"maxRatio","type":"uint256","internalType":"uint256"},{"name":"weight","type":"uint256","internalType":"uint256"},{"name":"decay","type":"uint256","internalType":"uint256"},{"name":"minThresholdPoints","type":"uint256","internalType":"uint256"}]},{"name":"proposalType","type":"uint8","internalType":"enum ProposalType"},{"name":"pointSystem","type":"uint8","internalType":"enum PointSystem"},{"name":"pointConfig","type":"tuple","internalType":"struct PointSystemConfig","components":[{"name":"maxAmount","type":"uint256","internalType":"uint256"}]},{"name":"arbitrableConfig","type":"tuple","internalType":"struct ArbitrableConfig","components":[{"name":"arbitrator","type":"address","internalType":"contract IArbitrator"},{"name":"tribunalSafe","type":"address","internalType":"address"},{"name":"submitterCollateralAmount","type":"uint256","internalType":"uint256"},{"name":"challengerCollateralAmount","type":"uint256","internalType":"uint256"},{"name":"defaultRuling","type":"uint256","internalType":"uint256"},{"name":"defaultRulingTimeout","type":"uint256","internalType":"uint256"}]},{"name":"registryCommunity","type":"address","internalType":"address"},{"name":"sybilScorer","type":"address","internalType":"address"},{"name":"sybilScorerThreshold","type":"uint256","internalType":"uint256"},{"name":"initialAllowlist","type":"address[]","internalType":"address[]"}]}],"anonymous":false},{"type":"event","name":"InitializedCV3","inputs":[{"name":"poolId","type":"uint256","indexed":false,"internalType":"uint256"},{"name":"data","type":"tuple","indexed":false,"internalType":"struct CVStrategyInitializeParamsV0_2","components":[{"name":"cvParams","type":"tuple","internalType":"struct CVParams","components":[{"name":"maxRatio","type":"uint256","internalType":"uint256"},{"name":"weight","type":"uint256","internalType":"uint256"},{"name":"decay","type":"uint256","internalType":"uint256"},{"name":"minThresholdPoints","type":"uint256","internalType":"uint256"}]},{"name":"proposalType","type":"uint8","internalType":"enum ProposalType"},{"name":"pointSystem","type":"uint8","internalType":"enum PointSystem"},{"name":"pointConfig","type":"tuple","internalType":"struct PointSystemConfig","components":[{"name":"maxAmount","type":"uint256","internalType":"uint256"}]},{"name":"arbitrableConfig","type":"tuple","internalType":"struct ArbitrableConfig","components":[{"name":"arbitrator","type":"address","internalType":"contract IArbitrator"},{"name":"tribunalSafe","type":"address","internalType":"address"},{"name":"submitterCollateralAmount","type":"uint256","internalType":"uint256"},{"name":"challengerCollateralAmount","type":"uint256","internalType":"uint256"},{"name":"defaultRuling","type":"uint256","internalType":"uint256"},{"name":"defaultRulingTimeout","type":"uint256","internalType":"uint256"}]},{"name":"registryCommunity","type":"address","internalType":"address"},{"name":"sybilScorer","type":"address","internalType":"address"},{"name":"sybilScorerThreshold","type":"uint256","internalType":"uint256"},{"name":"initialAllowlist","type":"address[]","internalType":"address[]"},{"name":"superfluidToken","type":"address","internalType":"address"}]}],"anonymous":false},{"type":"event","name":"OwnershipTransferred","inputs":[{"name":"previousOwner","type":"address","indexed":true,"internalType":"address"},{"name":"newOwner","type":"address","indexed":true,"internalType":"address"}],"anonymous":false},{"type":"event","name":"PointsDeactivated","inputs":[{"name":"member","type":"address","indexed":false,"internalType":"address"}],"anonymous":false},{"type":"event","name":"PoolActive","inputs":[{"name":"active","type":"bool","indexed":false,"internalType":"bool"}],"anonymous":false},{"type":"event","name":"PowerDecreased","inputs":[{"name":"member","type":"address","indexed":false,"internalType":"address"},{"name":"tokensUnStaked","type":"uint256","indexed":false,"internalType":"uint256"},{"name":"pointsToDecrease","type":"uint256","indexed":false,"internalType":"uint256"}],"anonymous":false},{"type":"event","name":"PowerIncreased","inputs":[{"name":"member","type":"address","indexed":false,"internalType":"address"},{"name":"tokensStaked","type":"uint256","indexed":false,"internalType":"uint256"},{"name":"pointsToIncrease","type":"uint256","indexed":false,"internalType":"uint256"}],"anonymous":false},{"type":"event","name":"ProposalCancelled","inputs":[{"name":"proposalId","type":"uint256","indexed":false,"internalType":"uint256"}],"anonymous":false},{"type":"event","name":"ProposalCreated","inputs":[{"name":"poolId","type":"uint256","indexed":false,"internalType":"uint256"},{"name":"proposalId","type":"uint256","indexed":false,"internalType":"uint256"}],"anonymous":false},{"type":"event","name":"ProposalDisputed","inputs":[{"name":"arbitrator","type":"address","indexed":false,"internalType":"contract IArbitrator"},{"name":"proposalId","type":"uint256","indexed":false,"internalType":"uint256"},{"name":"disputeId","type":"uint256","indexed":false,"internalType":"uint256"},{"name":"challenger","type":"address","indexed":false,"internalType":"address"},{"name":"context","type":"string","indexed":false,"internalType":"string"},{"name":"timestamp","type":"uint256","indexed":false,"internalType":"uint256"}],"anonymous":false},{"type":"event","name":"Registered","inputs":[{"name":"recipientId","type":"address","indexed":true,"internalType":"address"},{"name":"data","type":"bytes","indexed":false,"internalType":"bytes"},{"name":"sender","type":"address","indexed":false,"internalType":"address"}],"anonymous":false},{"type":"event","name":"Ruling","inputs":[{"name":"_arbitrator","type":"address","indexed":true,"internalType":"contract IArbitrator"},{"name":"_disputeID","type":"uint256","indexed":true,"internalType":"uint256"},{"name":"_ruling","type":"uint256","indexed":false,"internalType":"uint256"}],"anonymous":false},{"type":"event","name":"SuperfluidGDAConnected","inputs":[{"name":"gda","type":"address","indexed":true,"internalType":"address"},{"name":"by","type":"address","indexed":true,"internalType":"address"}],"anonymous":false},{"type":"event","name":"SuperfluidGDADisconnected","inputs":[{"name":"gda","type":"address","indexed":true,"internalType":"address"},{"name":"by","type":"address","indexed":true,"internalType":"address"}],"anonymous":false},{"type":"event","name":"SuperfluidTokenUpdated","inputs":[{"name":"superfluidToken","type":"address","indexed":false,"internalType":"address"}],"anonymous":false},{"type":"event","name":"SupportAdded","inputs":[{"name":"from","type":"address","indexed":false,"internalType":"address"},{"name":"proposalId","type":"uint256","indexed":false,"internalType":"uint256"},{"name":"amount","type":"uint256","indexed":false,"internalType":"uint256"},{"name":"totalStakedAmount","type":"uint256","indexed":false,"internalType":"uint256"},{"name":"convictionLast","type":"uint256","indexed":false,"internalType":"uint256"}],"anonymous":false},{"type":"event","name":"SybilScorerUpdated","inputs":[{"name":"sybilScorer","type":"address","indexed":false,"internalType":"address"}],"anonymous":false},{"type":"event","name":"Upgraded","inputs":[{"name":"implementation","type":"address","indexed":true,"internalType":"address"}],"anonymous":false},{"type":"error","name":"ALLOCATION_ACTIVE","inputs":[]},{"type":"error","name":"ALLOCATION_NOT_ACTIVE","inputs":[]},{"type":"error","name":"ALLOCATION_NOT_ENDED","inputs":[]},{"type":"error","name":"ALREADY_INITIALIZED","inputs":[]},{"type":"error","name":"AMOUNT_MISMATCH","inputs":[]},{"type":"error","name":"ANCHOR_ERROR","inputs":[]},{"type":"error","name":"ARRAY_MISMATCH","inputs":[]},{"type":"error","name":"AShouldBeUnderOrEqTwo_128","inputs":[]},{"type":"error","name":"AShouldBeUnderTwo_128","inputs":[]},{"type":"error","name":"AddressCannotBeZero","inputs":[]},{"type":"error","name":"AmountOverMaxRatio","inputs":[]},{"type":"error","name":"ArbitratorCannotBeZero","inputs":[]},{"type":"error","name":"BShouldBeLessTwo_128","inputs":[]},{"type":"error","name":"CallerNotOwner","inputs":[{"name":"_caller","type":"address","internalType":"address"},{"name":"_owner","type":"address","internalType":"address"}]},{"type":"error","name":"ConvictionUnderMinimumThreshold","inputs":[]},{"type":"error","name":"DefaultRulingNotSet","inputs":[]},{"type":"error","name":"DisputeCooldownNotPassed","inputs":[{"name":"_proposalId","type":"uint256","internalType":"uint256"},{"name":"_remainingSec","type":"uint256","internalType":"uint256"}]},{"type":"error","name":"INVALID","inputs":[]},{"type":"error","name":"INVALID_ADDRESS","inputs":[]},{"type":"error","name":"INVALID_FEE","inputs":[]},{"type":"error","name":"INVALID_METADATA","inputs":[]},{"type":"error","name":"INVALID_REGISTRATION","inputs":[]},{"type":"error","name":"IS_APPROVED_STRATEGY","inputs":[]},{"type":"error","name":"InsufficientCollateral","inputs":[{"name":"sentAmount","type":"uint256","internalType":"uint256"},{"name":"requiredAmount","type":"uint256","internalType":"uint256"}]},{"type":"error","name":"MISMATCH","inputs":[]},{"type":"error","name":"NONCE_NOT_AVAILABLE","inputs":[]},{"type":"error","name":"NON_ZERO_VALUE","inputs":[]},{"type":"error","name":"NOT_APPROVED_STRATEGY","inputs":[]},{"type":"error","name":"NOT_ENOUGH_FUNDS","inputs":[]},{"type":"error","name":"NOT_IMPLEMENTED","inputs":[]},{"type":"error","name":"NOT_INITIALIZED","inputs":[]},{"type":"error","name":"NOT_PENDING_OWNER","inputs":[]},{"type":"error","name":"NotEnoughPointsToSupport","inputs":[{"name":"pointsSupport","type":"uint256","internalType":"uint256"},{"name":"pointsBalance","type":"uint256","internalType":"uint256"}]},{"type":"error","name":"NotImplemented","inputs":[]},{"type":"error","name":"OnlyArbitrator","inputs":[]},{"type":"error","name":"OnlyCommunityAllowed","inputs":[]},{"type":"error","name":"OnlyCouncilSafe","inputs":[]},{"type":"error","name":"OnlySubmitter","inputs":[{"name":"submitter","type":"address","internalType":"address"},{"name":"sender","type":"address","internalType":"address"}]},{"type":"error","name":"POOL_ACTIVE","inputs":[]},{"type":"error","name":"POOL_INACTIVE","inputs":[]},{"type":"error","name":"PoolAmountNotEnough","inputs":[{"name":"_proposalId","type":"uint256","internalType":"uint256"},{"name":"_requestedAmount","type":"uint256","internalType":"uint256"},{"name":"_poolAmount","type":"uint256","internalType":"uint256"}]},{"type":"error","name":"PoolIsEmpty","inputs":[]},{"type":"error","name":"ProposalDataIsEmpty","inputs":[]},{"type":"error","name":"ProposalIdCannotBeZero","inputs":[]},{"type":"error","name":"ProposalInvalidForAllocation","inputs":[{"name":"_proposalId","type":"uint256","internalType":"uint256"},{"name":"_proposalStatus","type":"uint8","internalType":"enum ProposalStatus"}]},{"type":"error","name":"ProposalNotActive","inputs":[{"name":"_proposalId","type":"uint256","internalType":"uint256"}]},{"type":"error","name":"ProposalNotDisputed","inputs":[{"name":"_proposalId","type":"uint256","internalType":"uint256"}]},{"type":"error","name":"ProposalNotInList","inputs":[{"name":"_proposalId","type":"uint256","internalType":"uint256"}]},{"type":"error","name":"ProposalSupportDuplicated","inputs":[{"name":"_proposalId","type":"uint256","internalType":"uint256"},{"name":"index","type":"uint256","internalType":"uint256"}]},{"type":"error","name":"RECIPIENT_ALREADY_ACCEPTED","inputs":[]},{"type":"error","name":"RECIPIENT_ERROR","inputs":[{"name":"recipientId","type":"address","internalType":"address"}]},{"type":"error","name":"RECIPIENT_NOT_ACCEPTED","inputs":[]},{"type":"error","name":"REGISTRATION_ACTIVE","inputs":[]},{"type":"error","name":"REGISTRATION_NOT_ACTIVE","inputs":[]},{"type":"error","name":"RegistryCannotBeZero","inputs":[]},{"type":"error","name":"SupportUnderflow","inputs":[{"name":"_support","type":"uint256","internalType":"uint256"},{"name":"_delta","type":"int256","internalType":"int256"},{"name":"_result","type":"int256","internalType":"int256"}]},{"type":"error","name":"TokenCannotBeZero","inputs":[]},{"type":"error","name":"TokenNotAllowed","inputs":[]},{"type":"error","name":"UNAUTHORIZED","inputs":[]},{"type":"error","name":"UserCannotBeZero","inputs":[]},{"type":"error","name":"UserCannotExecuteAction","inputs":[]},{"type":"error","name":"UserIsInactive","inputs":[]},{"type":"error","name":"UserNotInRegistry","inputs":[]},{"type":"error","name":"ZERO_ADDRESS","inputs":[]}],"bytecode":{"object":"0x60a080604052346100325730608052615e2d908162000038823960805181818161249b0152818161258501526128c30152f35b600080fdfe60a0604052600436101561001b575b361561001957600080fd5b005b6000803560e01c8063013cf08b14613ff457806301ffc9a714613fb9578063025313a214613f90578063059351cd14613f3957806305caa7f314613f105780630a6f0ee914613a025780630bece79c146139d95780630c0512e9146139bb578063125fd1d91461399d57806315cc481e14613974578063184b9559146137c55780631aa91a9e146137a65780631ddf1e231461378c5780632506b8701461375e578063255ffb38146137345780632bbe0cae146132ba5780632dbd6fdd146118ba5780632ed04b2b14612fc1578063311a6c5614612a775780633396045914612a59578063351d9f9614612a335780633659cfe61461289e57806338fff2d01461288057806341bb7605146128245780634ab4ba42146128015780634f1ef2861461254757806352d1902d1461248857806359a5db8b1461242b5780635db64b99146123f25780636003e414146123c957806360b0645a1461231157806360d5dedc14612256578063626c47e81461223a5780636453d9c414612210578063715018a6146121c4578063782aadff14612050578063814516ad14611f58578063817b1cd214611f3a578063868c57b814611ee45780638da5cb5b14611eb7578063924e670414611d7e578063a0cf0aea14611d4f578063a28889e114611d26578063a47ff7e514611d08578063aba9ffee14611cea578063b0d3713a14611ca5578063b41596ec1461196a578063b5f620ce1461190e578063b6c61f31146118e5578063c3292171146118ba578063c4d66de814611888578063c69271ec14611709578063c7f758a81461158e578063d5b7cc5414611380578063dc96ff2d14611353578063df868ed314611330578063e0a8f6f514611226578063e0dd2c38146111dc578063edd146cc14610a90578063ef2920fc14610381578063f2fde38b146102f05763f5be3f7c146102d1575061000e565b346102ed57806003193601126102ed576020604051611c208152f35b80fd5b50346102ed5760203660031901126102ed5761030a6143d8565b61031261459e565b6001600160a01b0381161561032d5761032a906145fd565b80f35b60405162461bcd60e51b815260206004820152602660248201527f4f776e61626c653a206e6577206f776e657220697320746865207a65726f206160448201526564647265737360d01b6064820152608490fd5b5061038b366144fe565b906103946148f4565b61039c614a58565b80518101906020820190602081840312610465576020810151906001600160401b038211610a16570181603f82011215610465576020810151916103df836143ab565b936103ed60405195866142ea565b83855260208501926040600695861b820101928311610a8c57604001925b828410610a585750505050835b82518110156104f45761042b8184614f10565b515160206104398386614f10565b510151908652607b602052856040812091139081610469575b50610465576104609061485b565b610418565b8480fd5b60ff91506008015416600781101590816104d25780159182156104e6575b82156104c1575b821561049d575b505038610452565b9091506104ad5782143880610495565b634e487b7160e01b86526021600452602486fd5b8092506104d257600481149161048e565b634e487b7160e01b87526021600452602487fd5b506003811491506000610487565b50506104ff82614a8c565b60785460405163011de97360e61b81526001600160a01b0394918516906020818061052e308960048401614afb565b0381855afa908115610a4d578391610a1e575b5015610a1a579293819061055486614b22565b95839615925b85518810156105e15783806105ca575b610465576105788887614f10565b5151156105c05761059361058c8988614f10565b5151614f8f565b15610465576105b46105ba9160206105ab8b8a614f10565b51015190614f24565b9761485b565b9661055a565b966105ba9061485b565b508460206105d88a89614f10565b5101511361056a565b8593506105fd87918484168752607c6020526040872054614f24565b90858212610a165760206040518092637817ee4f60e01b82528180610626308960048401614afb565b03915afa908115610a0b5786916109d4575b508111610465578282168552607c602052604085205560609084935b80518510156109d0576106678582614f10565b5151928051156000146108d9575060405161068181614250565b600181526020810160203682378151156108c3578490525b60206106a58784614f10565b510151848852607b60205260408820916002830154966009840194818716600052856020526106da6040600020549485614f24565b958b87126108bf57828816600052602052856040600020558a908b6080528554935b8389168d52607d60205260408d20805490608051918210156108aa57869161072391614559565b90549060031b1c146107425761073a60805161485b565b6080526106fc565b9796939b9a959150989360019892985b1561083e575b6107bf969798999a9b508380821115600014610804578161077f61079e9361079493614c82565b61078c6070918254614b15565b905585614c82565b6002830154614b15565b60028201555b60078101938454156000146107c5575050505043905561485b565b93610654565b600080516020615da18339815191529450906107e46107fc9282614fec565b60036002820154910154906040519485948a86614ee4565b0390a161485b565b808261081661082a9361083495614c82565b6108236070918254614c82565b9055614c82565b6002830154614c82565b60028201556107a4565b8689168b52607d60205260408b2080549c90600160401b8e1015610896578d610874916107bf9a9b9c9d9e9f6001018155614559565b819291549060031b91821b91600019901b19161790558b9a9998979650610758565b634e487b7160e01b8d52604160045260248dfd5b50509796939b9a959199949099989298610752565b8b80fd5b634e487b7160e01b600052603260045260246000fd5b94939291908695875b81518110156109c457846108f68284614f10565b511461090a576109059061485b565b6108e2565b509091929394955060015b6106995780519060018083018093116109b057908591610934846143ab565b9361094260405195866142ea565b808552610951601f19916143ab565b0136602086013789815b610973575b505061096d905183614f10565b52610699565b90919283518210156109a957508061098e61099f9285614f10565b516109998287614f10565b5261485b565b908692918161095b565b9291610960565b634e487b7160e01b89526011600452602489fd5b50909192939495610915565b8580f35b90506020813d602011610a03575b816109ef602093836142ea565b810103126109fe575186610638565b600080fd5b3d91506109e2565b6040513d88823e3d90fd5b8580fd5b5080fd5b610a40915060203d602011610a46575b610a3881836142ea565b810190614a74565b38610541565b503d610a2e565b6040513d85823e3d90fd5b604060208584030112610a8c5760206040918251610a7581614250565b86518152828701518382015281520193019261040b565b8780fd5b50346102ed5760403660031901126102ed576024356001600160401b038111610a1a57610ac19036906004016144c4565b90610aca6148f4565b610ad26148f4565b6068546111ca57600435156111b857600435606855606a546e5af43d82803e903d91602b57fd5bf3606c54610b068161485b565b606c5560405160208101913360601b8352603482015260348152610b29816142cf565b519020608883901c62ffffff16763d602d80600a3d3981f3363d3d373d3d3d363d7300000017845260789290921b6001600160781b031916176020526001600160a01b03906037600984f516801561117957607980546001600160a01b031981168317909155821617803b15610a1a5781809160046040518094819363204a7f0760e21b83525af180156110b357908291611165575b50508151820191602081840312610a1a576020810151906001600160401b0382116111615761024082820185031261116157604051936001600160401b0361014086019081119086111761114b576101408501604052608083830182031261114757610c2e6101408601614299565b818301602081015161014087019081526040820151610160880152606082015161018088015260808201516101a0880152865260a00151600381101561046557602086015260c0838301015160048110156104655760408601526020828401820360bf190112611147576040516001600160401b03602082019081119082111761114b576020810160405260e084840101518152606086015260c060df198484018303011261114757604051610ce38161427e565b82840161010001516001600160a01b0381168103610a16578152610d0c61012085850101614880565b6020820152828401610140810151604083015261016081015160608301526101808101516080808401919091526101a082015160a0840152870191909152610d57906101c001614880565b60a0860152610d6b6101e084840101614880565b60c086015281830161020081015160e08701526102200151906001600160401b0382116104655760208101603f83868601010112156104655760208285850101015190610db7826143ab565b92610dc560405194856142ea565b8284526020808501920160408460051b8389890101010111611143576040818787010101915b60408460051b838989010101018310611125578888610e166102408a8a8a6101008701520101614880565b61012083015260a0820151607880546001600160a01b0319166001600160a01b03929092169190911790556020820151916003831015611111576076549260408201519360048510156110fd5760ff61ff00859660081b1692169061ffff1916171760765560608101515160775560018060a01b0360c08201511660018060a01b0319607a541617607a5560018060a01b036101208201511660018060a01b031960805416176080557f27cddb9d805ad332311bc448d558d9a480ce45ef8b7e99b382ee1f16267e567f604051600435815260406020820152610efd604082018451614894565b610f0f602084015160c083019061454c565b610f21604084015160e083019061453f565b606083810151516101008381019190915260808086015180516001600160a01b0390811661012087015260208201518116610140870152604082015161016087015293810151610180860152908101516101a085015260a0908101516101c085015285015182166101e084015260c085015190911661020083015260e0840151610220830152830151610240808301528190610fc2906102808301906148b7565b6101208501516001600160a01b03166102608301520390a16110096080820151825160405190610ff1826142b4565b85825260405192611001846142b4565b8684526150ed565b607a546001600160a01b0316908161101f575050f35b60e00151607854604051633629edcd60e11b815290602090829060049082906001600160a01b03165afa9081156110f25784916110c3575b50823b156110be5760405163fc2ebdd160e01b815230600482015260248101929092526001600160a01b031660448201529082908290606490829084905af180156110b3576110a35750f35b6110ac9061426b565b6102ed5780f35b6040513d84823e3d90fd5b505050fd5b6110e5915060203d6020116110eb575b6110dd81836142ea565b810190615817565b85611057565b503d6110d3565b6040513d86823e3d90fd5b634e487b7160e01b84526021600452602484fd5b634e487b7160e01b82526021600452602482fd5b9060208060409361113586614880565b815201930192909150610deb565b8680fd5b8380fd5b634e487b7160e01b600052604160045260246000fd5b8280fd5b61116e9061426b565b6102ed578038610bbf565b60405162461bcd60e51b8152602060048201526017602482015276115490cc4c4d8dce8818dc99585d194c8819985a5b1959604a1b6044820152606490fd5b604051637fcce2a960e01b8152600490fd5b60405163439a74c960e01b8152600490fd5b50346102ed5760403660031901126102ed57600960406111fa6143ee565b926004358152607b60205220019060018060a01b03166000526020526020604060002054604051908152f35b50346102ed57602080600319360112610a1a5760043590818352607b815260ff60086040852001541660078110156110fd5760010361116157818352607b81526040832060058101548491906001600160a01b039081169033820361114757601090607954169201548352607f84526002604084200154823b15611147576112c89284928360405180968195829463099ea56b60e41b84528c60048501614f6e565b03925af180156110b35761131c575b50829052607b81526040808420600801805460ff19166003179055519182527f416e669c63d9a3a5e36ee7cc7e2104b8db28ccd286aa18966e98fa230c73b08c91a180f35b6113259061426b565b6111615782386112d7565b50346102ed57806003193601126102ed57602060ff606754166040519015158152f35b50346102ed5760203660031901126102ed57600260406020926004358152607b8452200154604051908152f35b50346102ed5736600319016101c08112610a1a5760c0136102ed576040516113a78161427e565b6001600160a01b0360043581811681036111475782526113c56143ee565b906020918284015260443560408401526064356060840152608435608084015260a43560a0840152608060c319360112611147576040519161140683614299565b60c435835260e4358184015261010435604084015261012435606084015261014435926001600160401b0361016435818111610a8c5761144a903690600401614404565b9061018435908111610a8c57611464903690600401614404565b916101a435968588168098036109fe578897600486886078541660405192838092633629edcd60e11b82525afa80156115835788918b91611566575b501633141580611553575b61154f57608080546001600160a01b031916821790556040519081526114f3957fd386b229b28c71d6819c5b8cd43d22f3b28607ab0ac101e82c783e1addb5e01f91a16150ed565b607a54169081151580611546575b611509575050f35b813b1561154257829160448392604051948593849263642ce76b60e01b845230600485015260248401525af180156110b3576110a35750f35b5050fd5b50801515611501565b8880fd5b508661155d615ca3565b163314156114ab565b61157d9150883d8a116110eb576110dd81836142ea565b386114a0565b6040513d8c823e3d90fd5b50346102ed57602080600319360112610a1a576004358252607b81526040822090600182019182549384156000146116655761018094505b60018060a01b0390816005840154169482600485015416926006850154169054611641600286015460ff600888015416906007880154936003890154953360005260098a018b5260406000205498600a60108c01549b01549b6040519d8e528d015260408c015260608b015260808a015260a089019061430d565b60c087015260e0860152610100850152610120840152610140830152610160820152f35b8261166e615b1f565b6071549661169e60745460735460725490607554926040519c8d9788976314eff2dd60e11b895260048901614f40565b038173__$f1b7c69ba751c396eddc93d3bbc5414fd9$__5af49081156116fd57906116ce575b61018094506115c6565b508184813d83116116f6575b6116e481836142ea565b810103126109fe5761018093516116c4565b503d6116da565b604051903d90823e3d90fd5b50346102ed5760203660031901126102ed576117236143d8565b61172b615a61565b6080546001600160a01b03919083908316801561182257916117c692935b61179b83611769836040519561175e876142b4565b6000875216976158c4565b6117a960409592955161177b816142b4565b8481526040516330925b7960e01b60208201529586918c60248401615836565b03601f1981018652856142ea565b6040516339255d5b60e01b8152978896879586936004850161588e565b0393165af18015610a4d57611800575b5033907f5ae956f5060a976a6df3810c70d24e4d7b6987e1bfc9b1be2c9e43adfea8f3018380a380f35b61181b903d8085833e61181381836142ea565b810190615858565b50386117d6565b508260655416918160685460246040518096819363068bcd8d60e01b835260048301525afa80156110b357604085916117c6958591611866575b5001511693611749565b61188291503d8087833e61187a81836142ea565b8101906149a8565b3861185c565b50346102ed5760203660031901126102ed5761032a6118a56143d8565b6118b560ff845460081c166147fb565b6145fd565b50346102ed57806003193601126102ed57602060ff60765460081c166118e3604051809261453f565bf35b50346102ed57806003193601126102ed57607a546040516001600160a01b039091168152602090f35b50346102ed5760203660031901126102ed57600435801515809103610a1a5760207fd94c9bc4d43c51d8dc345a016d8e3d994432fac68e72832e4cf3a616bd8efae09160ff196067541660ff821617606755604051908152a180f35b5060603660031901126102ed576024356001600160401b038111610a1a57611996903690600401614571565b906044356001600160401b038111611147576119b6903690600401614571565b6119c292919233614a8c565b6004358552607b602052604085209260108401548652607f60205260408620604051926119ee8461427e565b81546001600160a01b0390811685526001830154166020850152600282015460408501526003820154606085019081526004830154608086015260059092015460a0850152600886015460ff166007811015611c9157600103610a8c5781513410610a8c57600f8601548015159081611c7b575b50610a8c57611a72825134614c82565b607954925190926001600160a01b0316908990823b15610a1a576040519283809263240ff7c560e11b825281611aae3360043560048401614a3f565b03925af18015611c7057611c5c575b5091602091611afe97989360018060a01b0386511691604051809a8195829463c13517e160e01b845260036004850152604060248501526044840191615ad6565b03925af1948515611c4f578195611c1b575b5060088401805460ff19166005179055600c840185905542600d8501908155600e90940180546001600160a01b03191633179055848152607e602052604081206004359055606d54906001600160401b0380831691908214611c0757506001600160401b031990911660019091016001600160401b031617606d55519154604080516001600160a01b0394909416845260043560208581019190915290840185905233606085015260c06080850181905290957f034f6a48076db1bcaaa311ccdc43d473aff44d3918a76fe0fae27c8b3665016d9493849392611bf69290850191615ad6565b9060a08301520390a1604051908152f35b634e487b7160e01b81526011600452602490fd5b9094506020813d602011611c47575b81611c37602093836142ea565b810103126109fe57519338611b10565b3d9150611c2a565b50604051903d90823e3d90fd5b611c66899161426b565b610a8c5738611abd565b6040513d8b823e3d90fd5b9050611c2081018091116109b057421038611a62565b634e487b7160e01b89526021600452602489fd5b50346102ed5760203660031901126102ed57611cbf6143d8565b611cc761459e565b606a80546001600160a01b0319166001600160a01b039290921691909117905580f35b50346102ed57806003193601126102ed576020607154604051908152f35b50346102ed57806003193601126102ed576020607754604051908152f35b50346102ed57806003193601126102ed57606d546040516001600160401b039091168152602090f35b50346102ed57806003193601126102ed57602060405173eeeeeeeeeeeeeeeeeeeeeeeeeeeeeeeeeeeeeeee8152f35b50346102ed5760203660031901126102ed57611d986143d8565b611da0615a61565b6080546001600160a01b039190839083168015611e595791611e0592935b61179b83611dd3836040519561175e876142b4565b6117a9604095929551611de5816142b4565b84815260405163f0b7b91560e01b60208201529586918c60248401615836565b0393165af18015610a4d57611e3f575b5033907f1f9d364ce9d858d45443edba44a22a2f561d96a90f9772e2457056f4ed98ed0f8380a380f35b611e52903d8085833e61181381836142ea565b5038611e15565b508260655416918160685460246040518096819363068bcd8d60e01b835260048301525afa80156110b35760408591611e05958591611e9d575b5001511693611dbe565b611eb191503d8087833e61187a81836142ea565b38611e93565b50346102ed57806003193601126102ed576020611ed2615ca3565b6040516001600160a01b039091168152f35b50346102ed5760403660031901126102ed57611efe6143d8565b6001600160a01b03168152607d60205260408120805460243592908310156102ed576020611f2c8484614559565b90546040519160031b1c8152f35b50346102ed57806003193601126102ed576020607054604051908152f35b50346102ed57806003193601126102ed57611f7233614b22565b156102ed576078546001600160a01b039082908216803b15610a1a57816040518092630d4a8b4960e01b8252818381611faf303360048401614afb565b03925af180156110b35761203c575b50506078541660206040518092637817ee4f60e01b82528180611fe5303360048401614afb565b03915afa80156110b3578290612009575b6120039150607154614b15565b60715580f35b506020813d8211612034575b81612022602093836142ea565b810103126109fe576120039051611ff6565b3d9150612015565b6120459061426b565b610a1a578138611fbe565b50346102ed5760403660031901126102ed5761206a6143d8565b602435612075614c6e565b61207e82614b22565b15611161576120c2908260018060a01b03806078541660ff60765460081c16607754906040519687928392632f335bab60e21b84528860209b8c9760048701614e7a565b038173__$c032285ca413f3d1dae375e8699dd757fc$__5af4938415610a0b578694612195575b506078541684604051809263011de97360e61b8252818061210e308860048401614afb565b03915afa908115610a0b577f0b9150e1e54346ed3fa36b977cd5d65dca5a649c737c3174a26bddaadd47667a94959691612178575b50612164575b6121598460405193849384614eb3565b0390a1604051908152f35b61217084607154614b15565b607155612149565b61218f9150863d8811610a4657610a3881836142ea565b38612143565b9093508481813d83116121bd575b6121ad81836142ea565b810103126109fe575192386120e9565b503d6121a3565b50346102ed57806003193601126102ed576121dd61459e565b603380546001600160a01b031981169091556000906001600160a01b0316600080516020615dc18339815191528280a380f35b50346102ed5760203660031901126102ed5761032a61222d6143d8565b612235614c6e565b614c8f565b50346102ed57806003193601126102ed57602060405160038152f35b50346102ed5760603660031901126102ed576122706143d8565b6024356001600160401b0381116111615736602382011215611161576122a090369060248160040135910161448d565b906122c56122ac6143c2565b6118b560ff865460081c166122c0816147fb565b6147fb565b60018060a01b031660018060a01b03196065541617606555604051612308816122fa6020820194602086526040830190614353565b03601f1981018352826142ea565b51902060665580f35b50346102ed57602090816003193601126102ed576004358152607b82526040812082612341600783015443614c82565b91600260038201549101549261236d607454604051958694859462437f9960e21b8652600486016144e2565b038173__$f1b7c69ba751c396eddc93d3bbc5414fd9$__5af49182156116fd579161239c575b50604051908152f35b90508181813d83116123c2575b6123b381836142ea565b810103126109fe575138612393565b503d6123a9565b50346102ed57806003193601126102ed576078546040516001600160a01b039091168152602090f35b50346102ed5760203660031901126102ed576020906040906001600160a01b0361241a6143d8565b168152607c83522054604051908152f35b50346102ed57602090816003193601126102ed5760043561244b81614fbe565b610a1a5782612458615b1f565b6071549261236d607454607354607254906075549260405198899788976314eff2dd60e11b895260048901614f40565b50346102ed57806003193601126102ed577f00000000000000000000000000000000000000000000000000000000000000006001600160a01b031630036124e1576020604051600080516020615d818339815191528152f35b60405162461bcd60e51b815260206004820152603860248201527f555550535570677261646561626c653a206d757374206e6f742062652063616c6044820152771b1959081d1a1c9bdd59da0819195b1959d85d1958d85b1b60421b6064820152608490fd5b5060403660031901126102ed5761255c6143d8565b6024356001600160401b0381116111615761257b9036906004016144c4565b6001600160a01b037f000000000000000000000000000000000000000000000000000000000000000081169291906125b530851415614634565b6125d2600080516020615d81833981519152948286541614614683565b6125da615ca3565b81339116036127d857600080516020615d218339815191525460ff161561260757505061032a91506146d2565b8216604051936352d1902d60e01b85526020948581600481865afa600091816127a9575b5061267a5760405162461bcd60e51b815260048101879052602e6024820152600080516020615e0183398151915260448201526d6f6e206973206e6f74205555505360901b6064820152608490fd5b94929394036127525761268c846146d2565b600080516020615de1833981519152600080a281511580159061274a575b6126b5575b50505080f35b61273892600080604051946126c9866142cf565b602786527f416464726573733a206c6f772d6c6576656c2064656c65676174652063616c6c85870152660819985a5b195960ca1b60408701528481519101845af4903d15612741573d61271b81614472565b9061272960405192836142ea565b8152600081943d92013e614762565b503880806126af565b60609250614762565b5060016126aa565b60405162461bcd60e51b815260048101839052602960248201527f45524331393637557067726164653a20756e737570706f727465642070726f786044820152681a58589b195555525160ba1b6064820152608490fd5b90918782813d83116127d1575b6127c081836142ea565b810103126102ed575051903861262b565b503d6127b6565b6127fd6127e3615ca3565b60405163163678e960e01b81529182913360048401614afb565b0390fd5b50346102ed57806003193601126102ed57602061281c615b1f565b604051908152f35b50346102ed5760203660031901126102ed576040906004358152607f6020522060018060a01b0361287c8183541691600184015416926002810154906003810154600560048301549201549260405196879687614378565b0390f35b50346102ed57806003193601126102ed576020606854604051908152f35b50346102ed57602080600319360112610a1a576128b96143d8565b6001600160a01b037f000000000000000000000000000000000000000000000000000000000000000081166128f030821415614634565b61290d600080516020615d81833981519152918383541614614683565b612915615ca3565b82339116036127d8576040519161292b836142b4565b858352600080516020615d218339815191525460ff16156129535750505061032a91506146d2565b8316906040516352d1902d60e01b81528581600481865afa60009181612a04575b506129c35760405162461bcd60e51b815260048101879052602e6024820152600080516020615e0183398151915260448201526d6f6e206973206e6f74205555505360901b6064820152608490fd5b9492939403612752576129d5846146d2565b600080516020615de1833981519152600080a28151158015906129fc576126b55750505080f35b5060006126aa565b90918782813d8311612a2c575b612a1b81836142ea565b810103126102ed5750519038612974565b503d612a11565b50346102ed57806003193601126102ed57602060ff607654166118e3604051809261454c565b50346102ed57806003193601126102ed576020606c54604051908152f35b50346102ed5760403660031901126102ed5760043590818152602091607e8352604082205492838352607b8152604083209360108501548452607f8252604084209060405190612ac68261427e565b60018060a01b039283815416835260019084828201541686850152600281015490604085019182526003810154926060860193845260056004830154926080880193845201549160a0870192835260088c019283549060ff82166007811015612fad57600503612f5057600d8e01549051612b4091614b15565b42118015908180612fa0575b612f9c5790612f92575b15612ce5575051908115612ce15790816002928214612cd2575b5014612c57575b505083607954169084600e8a015416905192823b1561154f5791612bb693918980946040519687958694859363099ea56b60e41b855260048501614f6e565b03925af18015610a0b57908691612c43575b50505b606d546001600160401b038082169791908815612c2f577f394027a5fa6e098a1191094d1719d6929b9abc535fcc0c8f448d6a4e756222769596979860001901169060018060401b03191617606d55600f429101555116916040516024358152a380f35b634e487b7160e01b88526011600452602488fd5b612c4c9061426b565b610465578438612bc8565b600660ff1982541617905584607954168560058b015416915191813b15612cce57918991612c9d938360405180968195829463099ea56b60e41b84528b60048501614f6e565b03925af18015612cc35790889115612b7757612cb89061426b565b611143578638612b77565b6040513d8a823e3d90fd5b8980fd5b835460ff191617835538612b70565b8a80fd5b9192935050602435828114600014612db657505060ff198254161790558360795416600485600e8b0154169287876078541660405193848092633629edcd60e11b82525afa918215611583578a92612d97575b5051823b15612cce57604051638969ab5360e01b8152948a94869493859387938593612d6a938d169160048601615af7565b03925af18015610a0b57908691612d83575b5050612bcb565b612d8c9061426b565b610465578438612d7c565b612daf919250883d8a116110eb576110dd81836142ea565b9038612d38565b91949291600214612dcc575b5050505050612bcb565b60069060ff1916179055846079541691600e8a019286845416915191813b15612ce157918a91612e14938360405180968195829463099ea56b60e41b84528a60048501614f6e565b03925af18015611c7057908991612f7e575b5050846079541690600460058b0192878454169089896078541660405194858092633629edcd60e11b82525afa928315612f73578c93612f54575b50606f548c52607f8a52600260408d200154871c91813b15612f5057918c91612ea893838c60405196879586948593638969ab5360e01b9b8c865216908c60048601615af7565b03925af18015612f4557908b91612f31575b50508680806079541694541694541694606f548b52607f8952600260408c200154901c833b15612ce1578a94939291612f03869260405198899788968795865260048601615af7565b03925af18015610a0b57908691612f1d575b808080612dc2565b612f269061426b565b610465578438612f15565b612f3a9061426b565b612cce578938612eba565b6040513d8d823e3d90fd5b8c80fd5b612f6c9193508a3d8c116110eb576110dd81836142ea565b9138612e61565b6040513d8e823e3d90fd5b612f879061426b565b610a8c578738612e26565b5060243515612b56565b8d80fd5b508a8a5116331415612b4c565b634e487b7160e01b8e52602160045260248efd5b50346102ed5760403660031901126102ed57612fdb6143d8565b90612fe4614c6e565b60018060a01b03806078541691602060ff60765460081c1660775494613023604051968793849363241344fd60e01b85528a6024359160048701614e7a565b038173__$c032285ca413f3d1dae375e8699dd757fc$__5af4928315611c4f578193613286575b508184168152607c6020526040812054826078541660206040518092637817ee4f60e01b82528180613080308c60048401614afb565b03915afa8015610a4d5782908490613250575b61309d9250614c82565b8481106130db575b602085600080516020615d4183398151915281896130c582607154614c82565b6071556121596040519283926024359084614eb3565b6130e9908596939496614c82565b92811561323a57805b8684168252607d602052604082208054821015613218578161311391614559565b905490818160031b1c8452607b6020526040842089871660005260098101602052604060002054613149878a60801b0482614ed1565b6001607f1b8101811161320457866131ff96959360038e6131e9600080516020615da183398151915298968e6131e160406131906107fc9a6001607f1b0160801c85614c82565b9860028901966131cf8b8954976131b06131aa8383614c82565b8a614c82565b8b5583881660005260098d016020528186600020556108168282614c82565b94168152607c60205220918254614c82565b905584614fec565b549101549160405195869560031b1c8c86614ee4565b6130f2565b634e487b7160e01b87526011600452602487fd5b5050505060209350600080516020615d418339815191529150829093386130a5565b634e487b7160e01b600052601260045260246000fd5b50506020813d60201161327e575b8161326b602093836142ea565b810103126109fe578161309d9151613093565b3d915061325e565b9092506020813d6020116132b2575b816132a2602093836142ea565b810103126109fe5751913861304a565b3d9150613295565b506132c4366144fe565b90916132ce6148f4565b6132d6614a58565b6132df82614a8c565b6078546001600160a01b0391908216803b15610a1a57816024916040519283809263208a40f360e11b82523060048301525afa80156110b357908291613720575b50508351840193602094858282031261116157818601516001600160401b039283821161046557019160a0838303126111475760405160a081018181108382111761114b5760405287840151815261337a60408501614880565b938882019485526060810151906040830191825261339a60808201614880565b946060840195865260a08201519085821161154f576133bf92908c0191018b01614951565b906080830191825260ff6076541692600384101561370c57600180941461363d575b50606f548752607f8a5260408720888154161515908161362f575b506111435761340c606e5461485b565b9889606e55898852607b8b528860408920968b88558160058901998160018060a01b03199516858c5416178b555116600489019084825416179055511660068701918254161790555182850155600884018260ff1982541617905543600785015585600385015551918251600a85015588600b8501930151805191821161361b576134978454614216565b601f81116135d4575b508990601f8311600114613574579282939183928994613569575b50501b916000199060031b1c19161790555b6010606f5491015582806079541691541690803b1561116157613508918391604051808095819463240ff7c560e11b83528a60048401614a3f565b039134905af180156110b357613555575b50507ffcf3b1aa65a464cef2889608f99e8b8c0f680a4be6c2acb9d961c536a5a9294b604060685481519081528486820152a160405191168152f35b61355f829161426b565b6102ed5780613519565b0151925038806134bb565b8488528a8820919083601f1981168a8e5b888383106135bc57505050106135a3575b505050811b0190556134cd565b015160001960f88460031b161c19169055388080613596565b8686015188559096019594850194879350018e613585565b8488528a8820601f840160051c8101918c8510613611575b601f0160051c019084905b8281106136055750506134a0565b600081550184906135f7565b90915081906135ec565b634e487b7160e01b87526041600452602487fd5b6002915001543410386133fc565b604051630ae6240f60e11b81528b81600481305afa908115611c70578a918a9182916136d1575b506024838a51169451604051948593849263068bcd8d60e01b84526004840152165afa908115611c70578a916040918b916136b7575b5001511603611143576136ad8151614fbe565b61114357386133e1565b6136cb91503d808d833e61187a81836142ea565b3861369a565b925050508b81813d8311613705575b6136ea81836142ea565b8101031261154f5751898116810361154f57888a9138613664565b503d6136e0565b634e487b7160e01b88526021600452602488fd5b6137299061426b565b6102ed578038613320565b50346102ed5760203660031901126102ed5760406020916004358152607e83522054604051908152f35b50346102ed57806003193601126102ed576072546073549061287c60745460755490604051948594856144e2565b50346102ed57806003193601126102ed5761032a33614c8f565b50346102ed5760203660031901126102ed57602061281c6004356157eb565b50346102ed5760603660031901126102ed576137df6143d8565b6137e76143ee565b906137f06143c2565b83549260ff8460081c161593848095613967575b8015613950575b156138f45760ff1981166001178655846138e3575b5061385c6040519261383184614250565b600a8452694356537472617465677960b01b60208501526118b560ff885460081c166122c0816147fb565b60018060a01b03918260018060a01b03199416846065541617606555604051613895816122fa6020820194602086526040830190614353565b5190206066551690606a541617606a556138ac5780f35b61ff001981541681557f7f26b83ff96e1f2b6a682f133852f6798a09c465da95921460cefb3847402498602060405160018152a180f35b61ffff191661010117855538613820565b60405162461bcd60e51b815260206004820152602e60248201527f496e697469616c697a61626c653a20636f6e747261637420697320616c72656160448201526d191e481a5b9a5d1a585b1a5e995960921b6064820152608490fd5b50303b15801561380b5750600160ff82161461380b565b50600160ff821610613804565b50346102ed57806003193601126102ed576065546040516001600160a01b039091168152602090f35b50346102ed57806003193601126102ed576020606f54604051908152f35b50346102ed57806003193601126102ed576020606e54604051908152f35b50346102ed57806003193601126102ed576079546040516001600160a01b039091168152602090f35b50346102ed5760603660031901126102ed576001600160401b0360043581811161116157613a34903690600401614404565b50602490813590811161116157613a4f9036906004016144c4565b613a576143c2565b50613a606148f4565b613a68614a58565b80511561116157613a77615b1f565b15611161576020908181805181010312611147578101516080546001600160a01b0392908590841680613df2575b505060ff60765416906003821015613ddf576001809214613ac4578580f35b828652607b9485825260408720848154141580613dd6575b610a8c576008015460ff166007811015613dc35783036111435783875285825282604088200154613b0b615b1f565b1061114357838752858252613b2583604089200154614fbe565b61114357613b32846157eb565b848852868352836040892001549083613b49615b1f565b60715493613b796074546073546072549060755492604051998a9788976314eff2dd60e11b895260048901614f40565b038173__$f1b7c69ba751c396eddc93d3bbc5414fd9$__5af4918215611c70578992613d94575b50111580613d7f575b6111435786856065541691606854906040518094819363068bcd8d60e01b835260048301525afa908115613d745785916040918991613d5a575b5001511683875285825286604081208385886004840154169201549373eeeeeeeeeeeeeeeeeeeeeeeeeeeeeeeeeeeeeeee8114600014613d1c57505081809381925af115613d0f575b82865284815260086040872001600460ff1982541617905585846079541684825286835285600560408420015416606f548352607f84526002604084200154823b1561114757613c969284928360405180968195829463099ea56b60e41b84528d60048501614f6e565b03925af180156110b357613cf7575b5094613ceb9291847fa7932e9c92f31e1ed56b29d00bbe669a97484dc24de28dd9c8c0429df7f35847975252604086209360048501541693015460405193849384614f6e565b0390a138808080808580f35b613d039093929361426b565b610a1657908538613ca5565b63b12d13eb86526004601cfd5b83906010929560449460145260345263a9059cbb60601b82525af13d1583885114171615613d4d5785603452613c2c565b6390b8ec1886526004601cfd5b613d6e91503d808b833e61187a81836142ea565b38613be3565b6040513d89823e3d90fd5b50838752858252826040882001541515613ba9565b9091508381813d8311613dbc575b613dac81836142ea565b810103126109fe57519038613ba0565b503d613da2565b50634e487b7160e01b8752602160045286fd5b50841515613adc565b634e487b7160e01b865260216004528486fd5b838252607b83528460066040842001541690604051848189816370a0823160e01b968782523060048301525afa9081156110f2578491613ee3575b50858452607b8552600160408520015411613e49575b50613aa5565b60405191825230600483015283828881845afa918215610a4d578392613eb4575b50803b156111615786839260405194859384926308de640f60e11b845260048401525af18015610a0b57613ea1575b808691613e43565b613ead9095919561426b565b9338613e99565b9091508381813d8311613edc575b613ecc81836142ea565b8101031261116157519038613e6a565b503d613ec2565b90508481813d8311613f09575b613efa81836142ea565b81010312611147575138613e2d565b503d613ef0565b50346102ed57806003193601126102ed576080546040516001600160a01b039091168152602090f35b50346102ed57806003193601126102ed57604090606f548152607f6020522060018060a01b0361287c8183541691600184015416926002810154906003810154600560048301549201549260405196879687614378565b50346102ed57806003193601126102ed576033546040516001600160a01b039091168152602090f35b50346102ed5760203660031901126102ed5760043563ffffffff60e01b8116809103610a1a576040516301ffc9a760e01b9091148152602090f35b50346102ed5760203660031901126102ed57600480358252607b60205260408220805460018201546002830154600384015494840154600585015460068601546007870154600888015495989697949560ff169390926001600160a01b0392831692908116911661406560a0614250565b600a86015460a052600b860160405190818d82549261408384614216565b80845293600181169081156141f457506001146141b3575b506140a8925003826142ea565b60c052604051976001600160401b0360608a01908111908a111761419f579061413a959493929160608a01604052600c8801548a52600d88015460208b015260018060a01b03600e8901541660408b01526010600f890154980154986040519c8d9c8d5260208d015260408c015260608b015260808a015260a089015260c088015260e087015261010086019061430d565b6101e08061012086015260a05190850152614167602060a001516040610200870152610220860190614353565b835161014086015260208401516101608601526040909301516001600160a01b03166101808501526101a08401526101c08301520390f35b634e487b7160e01b8c52604160045260248cfd5b8f809394925052602082205b8183106141d85750509060206140a8928201013861409b565b60209193508060019154838588010152019101909183926141bf565b9050602092506140a894915060ff191682840152151560051b8201013861409b565b90600182811c92168015614246575b602083101461423057565b634e487b7160e01b600052602260045260246000fd5b91607f1691614225565b604081019081106001600160401b0382111761114b57604052565b6001600160401b03811161114b57604052565b60c081019081106001600160401b0382111761114b57604052565b608081019081106001600160401b0382111761114b57604052565b602081019081106001600160401b0382111761114b57604052565b606081019081106001600160401b0382111761114b57604052565b601f909101601f19168101906001600160401b0382119082101761114b57604052565b90600782101561431a5752565b634e487b7160e01b600052602160045260246000fd5b60005b8381106143435750506000910152565b8181015183820152602001614333565b9060209161436c81518092818552858086019101614330565b601f01601f1916010190565b9260a09491979695929760c0850198600180881b0380921686521660208501526040840152606083015260808201520152565b6001600160401b03811161114b5760051b60200190565b604435906001600160a01b03821682036109fe57565b600435906001600160a01b03821682036109fe57565b602435906001600160a01b03821682036109fe57565b81601f820112156109fe5780359161441b836143ab565b9261442960405194856142ea565b808452602092838086019260051b8201019283116109fe578301905b828210614453575050505090565b81356001600160a01b03811681036109fe578152908301908301614445565b6001600160401b03811161114b57601f01601f191660200190565b92919261449982614472565b916144a760405193846142ea565b8294818452818301116109fe578281602093846000960137010152565b9080601f830112156109fe578160206144df9335910161448d565b90565b9094939260609260808301968352602083015260408201520152565b60406003198201126109fe57600435906001600160401b0382116109fe57614528916004016144c4565b906024356001600160a01b03811681036109fe5790565b90600482101561431a5752565b90600382101561431a5752565b80548210156108c35760005260206000200190600090565b9181601f840112156109fe578235916001600160401b0383116109fe57602083818601950101116109fe57565b6145a6615ca3565b336001600160a01b03909116036145b957565b606460405162461bcd60e51b815260206004820152602060248201527f4f776e61626c653a2063616c6c6572206973206e6f7420746865206f776e65726044820152fd5b603380546001600160a01b039283166001600160a01b031982168117909255909116600080516020615dc1833981519152600080a3565b1561463b57565b60405162461bcd60e51b815260206004820152602c6024820152600080516020615d6183398151915260448201526b19195b1959d85d1958d85b1b60a21b6064820152608490fd5b1561468a57565b60405162461bcd60e51b815260206004820152602c6024820152600080516020615d6183398151915260448201526b6163746976652070726f787960a01b6064820152608490fd5b803b1561470757600080516020615d8183398151915280546001600160a01b0319166001600160a01b03909216919091179055565b60405162461bcd60e51b815260206004820152602d60248201527f455243313936373a206e657720696d706c656d656e746174696f6e206973206e60448201526c1bdd08184818dbdb9d1c9858dd609a1b6064820152608490fd5b919290156147c45750815115614776575090565b3b1561477f5790565b60405162461bcd60e51b815260206004820152601d60248201527f416464726573733a2063616c6c20746f206e6f6e2d636f6e74726163740000006044820152606490fd5b8251909150156147d75750805190602001fd5b60405162461bcd60e51b8152602060048201529081906127fd906024830190614353565b1561480257565b60405162461bcd60e51b815260206004820152602b60248201527f496e697469616c697a61626c653a20636f6e7472616374206973206e6f74206960448201526a6e697469616c697a696e6760a81b6064820152608490fd5b600019811461486a5760010190565b634e487b7160e01b600052601160045260246000fd5b51906001600160a01b03821682036109fe57565b606080918051845260208101516020850152604081015160408501520151910152565b90815180825260208080930193019160005b8281106148d7575050505090565b83516001600160a01b0316855293810193928101926001016148c9565b6065546001600160a01b0316330361490857565b60405163075fd2b160e01b8152600490fd5b9092919261492781614472565b9161493560405193846142ea565b8294828452828201116109fe57602061494f930190614330565b565b91906040838203126109fe576040519061496a82614250565b83518252602084015191938492906001600160401b0382116109fe570181601f820112156109fe5760209181836149a39351910161491a565b910152565b906020828203126109fe5781516001600160401b03928382116109fe570160c0818303126109fe57604051926149dd8461427e565b8151845260208201516001600160a01b03811681036109fe576020850152614a0760408301614880565b604085015260608201519081116109fe5760a092614a26918301614951565b606084015260808101516080840152015160a082015290565b9081526001600160a01b03909116602082015260400190565b60685415614a6257565b604051630f68fe6360e21b8152600490fd5b908160209103126109fe575180151581036109fe5790565b60785460405163288c314960e21b81526001600160a01b0392831660048201529160209183916024918391165afa908115614aef57600091614ad1575b50156109fe57565b614ae9915060203d8111610a4657610a3881836142ea565b38614ac9565b6040513d6000823e3d90fd5b6001600160a01b0391821681529116602082015260400190565b9190820180921161486a57565b607a546001600160a01b03908116908115614b8a5750614b5c9160209160405180809581946302154c3d60e51b8352309060048401614afb565b03915afa908115614aef57600091614b72575090565b6144df915060203d8111610a4657610a3881836142ea565b90506068549160405192602093848101916810531313d5d31254d560ba1b8352602982015260298152614bbc816142cf565b51902091607854169060405191632474521560e21b92838152846004820152600060248201528581604481855afa908115614aef57600091614c51575b5015614c09575050505050600190565b614c2493859360405195869485938493845260048401614a3f565b03915afa918215614aef57600092614c3b57505090565b6144df9250803d10610a4657610a3881836142ea565b614c689150863d8811610a4657610a3881836142ea565b38614bf9565b6078546001600160a01b031633036109fe57565b9190820391821161486a57565b60785460408051637817ee4f60e01b81529293926000926001600160a01b0391602091831690828180614cc6308c60048401614afb565b0381855afa8015614e70578690614e41575b614ce59150607154614c82565b607155803b156104655783516322bcf99960e01b81529085908290818381614d11308e60048401614afb565b03925af18015614e3757614e24575b50835b828716808652607d83528486208054831015614de75790614d4883614d739493614559565b9054600391821b1c91828952607b865287892092614d6581614f8f565b614d78575b5050505061485b565b614d23565b600080516020615da18339815191529360a093836000526009820189528a6000208c81549155614dc06002840191614db1818454614c82565b835560706131e1828254614c82565b54910154918a51938452888401528a8a84015260608301526080820152a138808080614d6a565b5050509291907f1468da654b37bb3631011c1917d02e0db437d519918858d40b38b5e980ca033b94951691828152607c84528181205551908152a1565b614e309094919461426b565b9238614d20565b84513d87823e3d90fd5b508281813d8311614e69575b614e5781836142ea565b81010312610a1657614ce59051614cd8565b503d614e4d565b85513d88823e3d90fd5b6001600160a01b03918216815291166020820152604081019190915260a0810193929160809190614eaf90606083019061453f565b0152565b604091949392606082019560018060a01b0316825260208201520152565b8181029291811591840414171561486a57565b9192608093969594919660a084019760018060a01b031684526020840152604083015260608201520152565b80518210156108c35760209160051b010190565b9190916000838201938412911290801582169115161761486a57565b93909796959260c0959260e08601998652602086015260408501526060840152608083015260a08201520152565b9081526001600160a01b039091166020820152604081019190915260600190565b600052607b6020526040600020805415159081614faa575090565b600501546001600160a01b03161515919050565b614fd2607254614fcc615b1f565b90614ed1565b629896809182810292818404149015171561486a57111590565b90614ff7908261503b565b9091821580615016575b6150115760039160078201550155565b505050565b508115615001565b1561502557565b634e487b7160e01b600052600160045260246000fd5b600781015443929161504f8483111561501e565b8382146150e157600361506460209386614c82565b91015490615088607454604051958694859462437f9960e21b8652600486016144e2565b038173__$f1b7c69ba751c396eddc93d3bbc5414fd9$__5af4908115614aef576000916150b3575091565b906020823d82116150d9575b816150cc602093836142ea565b810103126102ed57505191565b3d91506150bf565b50505050600090600090565b9190928151916000926155a4575b5080516153c5575b506020918281019160018060a01b03908184511680151590816153b8575b81615316575b506151c0575b505050506040820151918215806151b5575b806151ac575b806151a0575b1561515557505050565b7fec9315d9f4291207475c061feff1e5d7105750ac0ee9534af9444b4ff1dab9bc926080928251607255820151607355607455606081015160755561519d6040518092614894565ba1565b5060608101511561514b565b50805115615145565b50818101511561513f565b606f548152607f85526040908181208360018201541690848088511680931491821592615304575b50506152b1575b50927fe677e2878aaaaf6a65ecf50f849ad58100c49f6dfd57d055ba4bddd63a175d5394928260059360e096615226606f5461485b565b80606f558152607f8a522091808451169560018060a01b0319918783865416178555600185019151168092825416179055818401519182600285015560608501519384600382015560a060808701519687600484015501519687910155606f549681519788528a8801528601526060850152608084015260a083015260c0820152a13880808061512d565b8385511690813b15611161578291602483928651948593849263446adb9960e11b845260048401525af180156152fa57156151ef576152f0829161426b565b6102ed57386151ef565b83513d84823e3d90fd5b909150541684865116141584386151e8565b606f548352607f87526040832060018101548516909114801592506153a6575b8115615393575b8115615380575b811561536d575b8115615359575b5038615127565b9050600560a0850151910154141538615352565b608085015160048201541415915061534b565b6060850151600382015414159150615344565b604085015160028201541415915061533d565b90508284511683825416141590615336565b8451841615159150615121565b91928194915b83518110156155545760018060a01b039086826078541660685487604091825160209081810192615446838b6154298c6810531313d5d31254d560ba1b988981526029978789820152888152615420816142cf565b51902099614f10565b5116885180938192632474521560e21b835260049a8b8401614a3f565b03818b5afa90811561554a57899161552d575b506154a3575b505050505050505081615483926154768388614f10565b5116615488575b5061485b565b6153cb565b61549d906154968388614f10565b5116614c8f565b3861547d565b85519283019384528183015281526154ba816142cf565b51902092866154c9878c614f10565b511690803b15610a16576154f49486809486519788958694859363d547741f60e01b85528401614a3f565b03925af19081156155245750615510575b80808080808061545f565b6155199061426b565b611143578638615505565b513d84823e3d90fd5b6155449150843d8611610a4657610a3881836142ea565b38615459565b87513d8b823e3d90fd5b5092917fd418c93b6b78d828a87ee1909e6fcdbbf2f8d8f540ad7b232bb3e221e6d7cc1e9094919460685461559b60405192839283526040602084015260408301906148b7565b0390a138615103565b91949260689491945493604093845195602096878101916810531313d5d31254d560ba1b83526029820152602981526155dc816142cf565b51902095869460018060a01b039360789185835416968951978d632474521560e21b998a815260049d8e8201528160248201528781604481865afa9182156157e057916157c3575b50615770575b508c5b865181101561571c578d878b888f8f6156638f918f6156518a8f8390541699614f10565b51169051958694859485528401614a3f565b0381855afa9081156157125783916156f5575b501561568d575b50506156889061485b565b61562d565b89615698848b614f10565b511690803b15611161576156c8918f918f8f90869485915196879586948593632f2ff15d60e01b85528401614a3f565b03925af180156156eb571561567d576156e09061426b565b612f9c578d3861567d565b8d513d84823e3d90fd5b61570c9150893d8b11610a4657610a3881836142ea565b38615676565b8e513d85823e3d90fd5b50995099965099969290507f7a2e396a5614184c0af2c60827c206595126faa1238b94e19823192de52e728a94506157679193506068549280805195869586528501528301906148b7565b0390a1386150fb565b8d813b156102ed578a60448e838f51958694859363d547741f60e01b85528401528160248401525af180156157b7571561562a576157b0909d919d61426b565b9b3861562a565b8e8c51903d90823e3d90fd5b6157da9150873d8911610a4657610a3881836142ea565b38615624565b8d51903d90823e3d90fd5b80600052607b6020526040600020908154036109fe57806158126002600393015482614fec565b015490565b908160209103126109fe57516001600160a01b03811681036109fe5790565b6001600160a01b0390911681526040602082018190526144df92910190614353565b6020818303126109fe578051906001600160401b0382116109fe57019080601f830112156109fe5781516144df9260200161491a565b6001600160a01b0390911681526060602082018190526144df9391926158b691840190614353565b916040818403910152614353565b907f65599bf746e17a00ea62e3610586992d88101b78eec3cf380706621fb97ea837908154927fc36f6c05164a669ecb6da53e218d77ae44d51cfc99f91e5a125a18de0949bee49283549360018060a01b03928386161561593d575b5050508061593461494f928616151561501e565b8316151561501e565b8695508380979492939416156159ef575b5050604051635b69006f60e11b81527fdfd8ece9bfbcb8c5c540edb935641f63d67686490a1ab97f000288759f30a9466004820152602081602481888a165afa908115614aef576000916159b5575b50918591859661494f94169586925555903880615920565b6020813d82116159e7575b816159cd602093836142ea565b81010312610a1a57519086821682036102ed57508461599d565b3d91506159c0565b6040516320bc442560e01b815292955060209183916004918391165afa8015614aef578591600091615a26575b501692843861594e565b91506020823d8211615a59575b81615a40602093836142ea565b810103126102ed5750615a538591614880565b38615a1c565b3d9150615a33565b607854604051633629edcd60e11b81526001600160a01b03916020908290600490829086165afa908115614aef57600091615ab8575b501633141580615aa8575b6109fe57565b50615ab233614b22565b15615aa2565b615ad0915060203d81116110eb576110dd81836142ea565b38615a97565b908060209392818452848401376000828201840152601f01601f1916010190565b9081526001600160a01b03918216602082015291166040820152606081019190915260800190565b6065546068546040805163068bcd8d60e01b81526004810192909252600093926001600160a01b03929085908290602490829087165afa908115615c7757839183918791615c89575b5001511673eeeeeeeeeeeeeeeeeeeeeeeeeeeeeeeeeeeeeeee8114615c815784926080541680615c0d575b5060206024918351928380926370a0823160e01b82523060048301525afa918215615c0457508491615bcc575b506144df929350614b15565b90506020813d8211615bfc575b81615be6602093836142ea565b81010312611147576144df929350518392615bc0565b3d9150615bd9565b513d86823e3d90fd5b82516370a0823160e01b8152306004820152919350602090829060249082905afa908115615c77578591615c45575b50916020615b93565b90506020813d8211615c6f575b81615c5f602093836142ea565b8101031261046557516020615c3c565b3d9150615c52565b82513d87823e3d90fd5b504793505050565b615c9d91503d8089833e61187a81836142ea565b38615b68565b6033546001600160a01b0316803b615cb85790565b604051638da5cb5b60e01b8152602081600481855afa60009181615ce5575b50615ce0575090565b905090565b90916020823d8211615d18575b81615cff602093836142ea565b810103126102ed5750615d1190614880565b9038615cd7565b3d9150615cf256fe4910fdfa16fed3260ed0e7147f7cc6da11a60208b5b9406d12a635614ffd914370b752f3fadb6ac131c0ece847fcbb6994ec56ed6411595710fd9b29c6ac6cc146756e6374696f6e206d7573742062652063616c6c6564207468726f75676820360894a13ba1a3210667c828492db98dca3e2076cc3735a920a3ca505d382bbc0227f642ddcf2042ceaeafadb9d540f432072c00cd4862881667168dcc14710f8be0079c531659141344cd1fd0a4f28419497f9722a3daafe3b4186f6b6457e0bc7cd75a20ee27fd9adebab32041f755214dbc6bffa90cc0225b39da2e5c2d3b45524331393637557067726164653a206e657720696d706c656d656e74617469a164736f6c6343000813000a","linkReferences":{"pkg/contracts/src/CVStrategy/ConvictionsUtils.sol":{"ConvictionsUtils":[{"start":5850,"length":20},{"start":9129,"length":20},{"start":15285,"length":20},{"start":20676,"length":20}]},"pkg/contracts/src/CVStrategy/PowerManagementUtils.sol":{"PowerManagementUtils":[{"start":8446,"length":20},{"start":12383,"length":20}]}}},"methodIdentifiers":{"DISPUTE_COOLDOWN_SEC()":"f5be3f7c","NATIVE()":"a0cf0aea","RULING_OPTIONS()":"626c47e8","activatePoints()":"814516ad","allocate(bytes,address)":"ef2920fc","arbitrableConfigs(uint256)":"41bb7605","calculateProposalConviction(uint256)":"60b0645a","calculateThreshold(uint256)":"59a5db8b","cancelProposal(uint256)":"e0a8f6f5","cloneNonce()":"33960459","collateralVault()":"0bece79c","connectSuperfluidGDA(address)":"924e6704","currentArbitrableConfigVersion()":"125fd1d9","cvParams()":"2506b870","deactivatePoints()":"1ddf1e23","deactivatePoints(address)":"6453d9c4","decreasePower(address,uint256)":"2ed04b2b","disconnectSuperfluidGDA(address)":"c69271ec","disputeCount()":"a28889e1","disputeIdToProposalId(uint256)":"255ffb38","disputeProposal(uint256,string,bytes)":"b41596ec","distribute(address[],bytes,address)":"0a6f0ee9","getAllo()":"15cc481e","getArbitrableConfig()":"059351cd","getPointSystem()":"c3292171","getPoolAmount()":"4ab4ba42","getPoolId()":"38fff2d0","getProposal(uint256)":"c7f758a8","getProposalStakedAmount(uint256)":"dc96ff2d","getProposalVoterStake(uint256,address)":"e0dd2c38","increasePower(address,uint256)":"782aadff","init(address,address,address)":"184b9559","init(address,string,address)":"60d5dedc","initialize(address)":"c4d66de8","initialize(uint256,bytes)":"edd146cc","isPoolActive()":"df868ed3","owner()":"8da5cb5b","pointConfig()":"a47ff7e5","pointSystem()":"2dbd6fdd","proposalCounter()":"0c0512e9","proposalType()":"351d9f96","proposals(uint256)":"013cf08b","proxiableUUID()":"52d1902d","proxyOwner()":"025313a2","registerRecipient(bytes,address)":"2bbe0cae","registryCommunity()":"6003e414","renounceOwnership()":"715018a6","rule(uint256,uint256)":"311a6c56","setCollateralVaultTemplate(address)":"b0d3713a","setPoolActive(bool)":"b5f620ce","setPoolParams((address,address,uint256,uint256,uint256,uint256),(uint256,uint256,uint256,uint256),uint256,address[],address[],address)":"d5b7cc54","superfluidToken()":"05caa7f3","supportsInterface(bytes4)":"01ffc9a7","sybilScorer()":"b6c61f31","totalPointsActivated()":"aba9ffee","totalStaked()":"817b1cd2","totalVoterStakePct(address)":"5db64b99","transferOwnership(address)":"f2fde38b","updateProposalConviction(uint256)":"1aa91a9e","upgradeTo(address)":"3659cfe6","upgradeToAndCall(address,bytes)":"4f1ef286","voterStakedProposals(address,uint256)":"868c57b8"},"storageLayout":{"storage":[{"astId":52222,"contract":"pkg/contracts/src/CVStrategy/CVStrategyV0_0.sol:CVStrategyV0_0","label":"_initialized","offset":0,"slot":"0","type":"t_uint8"},{"astId":52225,"contract":"pkg/contracts/src/CVStrategy/CVStrategyV0_0.sol:CVStrategyV0_0","label":"_initializing","offset":1,"slot":"0","type":"t_bool"},{"astId":52927,"contract":"pkg/contracts/src/CVStrategy/CVStrategyV0_0.sol:CVStrategyV0_0","label":"__gap","offset":0,"slot":"1","type":"t_array(t_uint256)50_storage"},{"astId":52014,"contract":"pkg/contracts/src/CVStrategy/CVStrategyV0_0.sol:CVStrategyV0_0","label":"_owner","offset":0,"slot":"51","type":"t_address"},{"astId":52134,"contract":"pkg/contracts/src/CVStrategy/CVStrategyV0_0.sol:CVStrategyV0_0","label":"__gap","offset":0,"slot":"52","type":"t_array(t_uint256)49_storage"},{"astId":72954,"contract":"pkg/contracts/src/CVStrategy/CVStrategyV0_0.sol:CVStrategyV0_0","label":"allo","offset":0,"slot":"101","type":"t_contract(IAllo)2629"},{"astId":72956,"contract":"pkg/contracts/src/CVStrategy/CVStrategyV0_0.sol:CVStrategyV0_0","label":"strategyId","offset":0,"slot":"102","type":"t_bytes32"},{"astId":72958,"contract":"pkg/contracts/src/CVStrategy/CVStrategyV0_0.sol:CVStrategyV0_0","label":"poolActive","offset":0,"slot":"103","type":"t_bool"},{"astId":72960,"contract":"pkg/contracts/src/CVStrategy/CVStrategyV0_0.sol:CVStrategyV0_0","label":"poolId","offset":0,"slot":"104","type":"t_uint256"},{"astId":72962,"contract":"pkg/contracts/src/CVStrategy/CVStrategyV0_0.sol:CVStrategyV0_0","label":"poolAmount","offset":0,"slot":"105","type":"t_uint256"},{"astId":73517,"contract":"pkg/contracts/src/CVStrategy/CVStrategyV0_0.sol:CVStrategyV0_0","label":"collateralVaultTemplate","offset":0,"slot":"106","type":"t_address"},{"astId":73519,"contract":"pkg/contracts/src/CVStrategy/CVStrategyV0_0.sol:CVStrategyV0_0","label":"surpressStateMutabilityWarning","offset":0,"slot":"107","type":"t_uint256"},{"astId":73521,"contract":"pkg/contracts/src/CVStrategy/CVStrategyV0_0.sol:CVStrategyV0_0","label":"cloneNonce","offset":0,"slot":"108","type":"t_uint256"},{"astId":73523,"contract":"pkg/contracts/src/CVStrategy/CVStrategyV0_0.sol:CVStrategyV0_0","label":"disputeCount","offset":0,"slot":"109","type":"t_uint64"},{"astId":73525,"contract":"pkg/contracts/src/CVStrategy/CVStrategyV0_0.sol:CVStrategyV0_0","label":"proposalCounter","offset":0,"slot":"110","type":"t_uint256"},{"astId":73527,"contract":"pkg/contracts/src/CVStrategy/CVStrategyV0_0.sol:CVStrategyV0_0","label":"currentArbitrableConfigVersion","offset":0,"slot":"111","type":"t_uint256"},{"astId":73529,"contract":"pkg/contracts/src/CVStrategy/CVStrategyV0_0.sol:CVStrategyV0_0","label":"totalStaked","offset":0,"slot":"112","type":"t_uint256"},{"astId":73531,"contract":"pkg/contracts/src/CVStrategy/CVStrategyV0_0.sol:CVStrategyV0_0","label":"totalPointsActivated","offset":0,"slot":"113","type":"t_uint256"},{"astId":73534,"contract":"pkg/contracts/src/CVStrategy/CVStrategyV0_0.sol:CVStrategyV0_0","label":"cvParams","offset":0,"slot":"114","type":"t_struct(CVParams)77132_storage"},{"astId":73537,"contract":"pkg/contracts/src/CVStrategy/CVStrategyV0_0.sol:CVStrategyV0_0","label":"proposalType","offset":0,"slot":"118","type":"t_enum(ProposalType)77035"},{"astId":73540,"contract":"pkg/contracts/src/CVStrategy/CVStrategyV0_0.sol:CVStrategyV0_0","label":"pointSystem","offset":1,"slot":"118","type":"t_enum(PointSystem)77040"},{"astId":73543,"contract":"pkg/contracts/src/CVStrategy/CVStrategyV0_0.sol:CVStrategyV0_0","label":"pointConfig","offset":0,"slot":"119","type":"t_struct(PointSystemConfig)77109_storage"},{"astId":73546,"contract":"pkg/contracts/src/CVStrategy/CVStrategyV0_0.sol:CVStrategyV0_0","label":"registryCommunity","offset":0,"slot":"120","type":"t_contract(RegistryCommunityV0_0)80755"},{"astId":73549,"contract":"pkg/contracts/src/CVStrategy/CVStrategyV0_0.sol:CVStrategyV0_0","label":"collateralVault","offset":0,"slot":"121","type":"t_contract(ICollateralVault)82458"},{"astId":73552,"contract":"pkg/contracts/src/CVStrategy/CVStrategyV0_0.sol:CVStrategyV0_0","label":"sybilScorer","offset":0,"slot":"122","type":"t_contract(ISybilScorer)77920"},{"astId":73557,"contract":"pkg/contracts/src/CVStrategy/CVStrategyV0_0.sol:CVStrategyV0_0","label":"proposals","offset":0,"slot":"123","type":"t_mapping(t_uint256,t_struct(Proposal)77101_storage)"},{"astId":73561,"contract":"pkg/contracts/src/CVStrategy/CVStrategyV0_0.sol:CVStrategyV0_0","label":"totalVoterStakePct","offset":0,"slot":"124","type":"t_mapping(t_address,t_uint256)"},{"astId":73566,"contract":"pkg/contracts/src/CVStrategy/CVStrategyV0_0.sol:CVStrategyV0_0","label":"voterStakedProposals","offset":0,"slot":"125","type":"t_mapping(t_address,t_array(t_uint256)dyn_storage)"},{"astId":73570,"contract":"pkg/contracts/src/CVStrategy/CVStrategyV0_0.sol:CVStrategyV0_0","label":"disputeIdToProposalId","offset":0,"slot":"126","type":"t_mapping(t_uint256,t_uint256)"},{"astId":73575,"contract":"pkg/contracts/src/CVStrategy/CVStrategyV0_0.sol:CVStrategyV0_0","label":"arbitrableConfigs","offset":0,"slot":"127","type":"t_mapping(t_uint256,t_struct(ArbitrableConfig)77123_storage)"},{"astId":73578,"contract":"pkg/contracts/src/CVStrategy/CVStrategyV0_0.sol:CVStrategyV0_0","label":"superfluidToken","offset":0,"slot":"128","type":"t_contract(ISuperToken)70946"},{"astId":76744,"contract":"pkg/contracts/src/CVStrategy/CVStrategyV0_0.sol:CVStrategyV0_0","label":"__gap","offset":0,"slot":"129","type":"t_array(t_uint256)49_storage"}],"types":{"t_address":{"encoding":"inplace","label":"address","numberOfBytes":"20"},"t_array(t_uint256)49_storage":{"encoding":"inplace","label":"uint256[49]","numberOfBytes":"1568","base":"t_uint256"},"t_array(t_uint256)50_storage":{"encoding":"inplace","label":"uint256[50]","numberOfBytes":"1600","base":"t_uint256"},"t_array(t_uint256)dyn_storage":{"encoding":"dynamic_array","label":"uint256[]","numberOfBytes":"32","base":"t_uint256"},"t_bool":{"encoding":"inplace","label":"bool","numberOfBytes":"1"},"t_bytes32":{"encoding":"inplace","label":"bytes32","numberOfBytes":"32"},"t_contract(IAllo)2629":{"encoding":"inplace","label":"contract IAllo","numberOfBytes":"20"},"t_contract(IArbitrator)82425":{"encoding":"inplace","label":"contract IArbitrator","numberOfBytes":"20"},"t_contract(ICollateralVault)82458":{"encoding":"inplace","label":"contract ICollateralVault","numberOfBytes":"20"},"t_contract(ISuperToken)70946":{"encoding":"inplace","label":"contract ISuperToken","numberOfBytes":"20"},"t_contract(ISybilScorer)77920":{"encoding":"inplace","label":"contract ISybilScorer","numberOfBytes":"20"},"t_contract(RegistryCommunityV0_0)80755":{"encoding":"inplace","label":"contract RegistryCommunityV0_0","numberOfBytes":"20"},"t_enum(PointSystem)77040":{"encoding":"inplace","label":"enum PointSystem","numberOfBytes":"1"},"t_enum(ProposalStatus)77060":{"encoding":"inplace","label":"enum ProposalStatus","numberOfBytes":"1"},"t_enum(ProposalType)77035":{"encoding":"inplace","label":"enum ProposalType","numberOfBytes":"1"},"t_mapping(t_address,t_array(t_uint256)dyn_storage)":{"encoding":"mapping","key":"t_address","label":"mapping(address => uint256[])","numberOfBytes":"32","value":"t_array(t_uint256)dyn_storage"},"t_mapping(t_address,t_uint256)":{"encoding":"mapping","key":"t_address","label":"mapping(address => uint256)","numberOfBytes":"32","value":"t_uint256"},"t_mapping(t_uint256,t_struct(ArbitrableConfig)77123_storage)":{"encoding":"mapping","key":"t_uint256","label":"mapping(uint256 => struct ArbitrableConfig)","numberOfBytes":"32","value":"t_struct(ArbitrableConfig)77123_storage"},"t_mapping(t_uint256,t_struct(Proposal)77101_storage)":{"encoding":"mapping","key":"t_uint256","label":"mapping(uint256 => struct Proposal)","numberOfBytes":"32","value":"t_struct(Proposal)77101_storage"},"t_mapping(t_uint256,t_uint256)":{"encoding":"mapping","key":"t_uint256","label":"mapping(uint256 => uint256)","numberOfBytes":"32","value":"t_uint256"},"t_string_storage":{"encoding":"bytes","label":"string","numberOfBytes":"32"},"t_struct(ArbitrableConfig)77123_storage":{"encoding":"inplace","label":"struct ArbitrableConfig","numberOfBytes":"192","members":[{"astId":77112,"contract":"pkg/contracts/src/CVStrategy/CVStrategyV0_0.sol:CVStrategyV0_0","label":"arbitrator","offset":0,"slot":"0","type":"t_contract(IArbitrator)82425"},{"astId":77114,"contract":"pkg/contracts/src/CVStrategy/CVStrategyV0_0.sol:CVStrategyV0_0","label":"tribunalSafe","offset":0,"slot":"1","type":"t_address"},{"astId":77116,"contract":"pkg/contracts/src/CVStrategy/CVStrategyV0_0.sol:CVStrategyV0_0","label":"submitterCollateralAmount","offset":0,"slot":"2","type":"t_uint256"},{"astId":77118,"contract":"pkg/contracts/src/CVStrategy/CVStrategyV0_0.sol:CVStrategyV0_0","label":"challengerCollateralAmount","offset":0,"slot":"3","type":"t_uint256"},{"astId":77120,"contract":"pkg/contracts/src/CVStrategy/CVStrategyV0_0.sol:CVStrategyV0_0","label":"defaultRuling","offset":0,"slot":"4","type":"t_uint256"},{"astId":77122,"contract":"pkg/contracts/src/CVStrategy/CVStrategyV0_0.sol:CVStrategyV0_0","label":"defaultRulingTimeout","offset":0,"slot":"5","type":"t_uint256"}]},"t_struct(CVParams)77132_storage":{"encoding":"inplace","label":"struct CVParams","numberOfBytes":"128","members":[{"astId":77125,"contract":"pkg/contracts/src/CVStrategy/CVStrategyV0_0.sol:CVStrategyV0_0","label":"maxRatio","offset":0,"slot":"0","type":"t_uint256"},{"astId":77127,"contract":"pkg/contracts/src/CVStrategy/CVStrategyV0_0.sol:CVStrategyV0_0","label":"weight","offset":0,"slot":"1","type":"t_uint256"},{"astId":77129,"contract":"pkg/contracts/src/CVStrategy/CVStrategyV0_0.sol:CVStrategyV0_0","label":"decay","offset":0,"slot":"2","type":"t_uint256"},{"astId":77131,"contract":"pkg/contracts/src/CVStrategy/CVStrategyV0_0.sol:CVStrategyV0_0","label":"minThresholdPoints","offset":0,"slot":"3","type":"t_uint256"}]},"t_struct(Metadata)3080_storage":{"encoding":"inplace","label":"struct Metadata","numberOfBytes":"64","members":[{"astId":3076,"contract":"pkg/contracts/src/CVStrategy/CVStrategyV0_0.sol:CVStrategyV0_0","label":"protocol","offset":0,"slot":"0","type":"t_uint256"},{"astId":3079,"contract":"pkg/contracts/src/CVStrategy/CVStrategyV0_0.sol:CVStrategyV0_0","label":"pointer","offset":0,"slot":"1","type":"t_string_storage"}]},"t_struct(PointSystemConfig)77109_storage":{"encoding":"inplace","label":"struct PointSystemConfig","numberOfBytes":"32","members":[{"astId":77108,"contract":"pkg/contracts/src/CVStrategy/CVStrategyV0_0.sol:CVStrategyV0_0","label":"maxAmount","offset":0,"slot":"0","type":"t_uint256"}]},"t_struct(Proposal)77101_storage":{"encoding":"inplace","label":"struct Proposal","numberOfBytes":"544","members":[{"astId":77069,"contract":"pkg/contracts/src/CVStrategy/CVStrategyV0_0.sol:CVStrategyV0_0","label":"proposalId","offset":0,"slot":"0","type":"t_uint256"},{"astId":77071,"contract":"pkg/contracts/src/CVStrategy/CVStrategyV0_0.sol:CVStrategyV0_0","label":"requestedAmount","offset":0,"slot":"1","type":"t_uint256"},{"astId":77073,"contract":"pkg/contracts/src/CVStrategy/CVStrategyV0_0.sol:CVStrategyV0_0","label":"stakedAmount","offset":0,"slot":"2","type":"t_uint256"},{"astId":77075,"contract":"pkg/contracts/src/CVStrategy/CVStrategyV0_0.sol:CVStrategyV0_0","label":"convictionLast","offset":0,"slot":"3","type":"t_uint256"},{"astId":77077,"contract":"pkg/contracts/src/CVStrategy/CVStrategyV0_0.sol:CVStrategyV0_0","label":"beneficiary","offset":0,"slot":"4","type":"t_address"},{"astId":77079,"contract":"pkg/contracts/src/CVStrategy/CVStrategyV0_0.sol:CVStrategyV0_0","label":"submitter","offset":0,"slot":"5","type":"t_address"},{"astId":77081,"contract":"pkg/contracts/src/CVStrategy/CVStrategyV0_0.sol:CVStrategyV0_0","label":"requestedToken","offset":0,"slot":"6","type":"t_address"},{"astId":77083,"contract":"pkg/contracts/src/CVStrategy/CVStrategyV0_0.sol:CVStrategyV0_0","label":"blockLast","offset":0,"slot":"7","type":"t_uint256"},{"astId":77086,"contract":"pkg/contracts/src/CVStrategy/CVStrategyV0_0.sol:CVStrategyV0_0","label":"proposalStatus","offset":0,"slot":"8","type":"t_enum(ProposalStatus)77060"},{"astId":77090,"contract":"pkg/contracts/src/CVStrategy/CVStrategyV0_0.sol:CVStrategyV0_0","label":"voterStakedPoints","offset":0,"slot":"9","type":"t_mapping(t_address,t_uint256)"},{"astId":77093,"contract":"pkg/contracts/src/CVStrategy/CVStrategyV0_0.sol:CVStrategyV0_0","label":"metadata","offset":0,"slot":"10","type":"t_struct(Metadata)3080_storage"},{"astId":77096,"contract":"pkg/contracts/src/CVStrategy/CVStrategyV0_0.sol:CVStrategyV0_0","label":"disputeInfo","offset":0,"slot":"12","type":"t_struct(ProposalDisputeInfo)77067_storage"},{"astId":77098,"contract":"pkg/contracts/src/CVStrategy/CVStrategyV0_0.sol:CVStrategyV0_0","label":"lastDisputeCompletion","offset":0,"slot":"15","type":"t_uint256"},{"astId":77100,"contract":"pkg/contracts/src/CVStrategy/CVStrategyV0_0.sol:CVStrategyV0_0","label":"arbitrableConfigVersion","offset":0,"slot":"16","type":"t_uint256"}]},"t_struct(ProposalDisputeInfo)77067_storage":{"encoding":"inplace","label":"struct ProposalDisputeInfo","numberOfBytes":"96","members":[{"astId":77062,"contract":"pkg/contracts/src/CVStrategy/CVStrategyV0_0.sol:CVStrategyV0_0","label":"disputeId","offset":0,"slot":"0","type":"t_uint256"},{"astId":77064,"contract":"pkg/contracts/src/CVStrategy/CVStrategyV0_0.sol:CVStrategyV0_0","label":"disputeTimestamp","offset":0,"slot":"1","type":"t_uint256"},{"astId":77066,"contract":"pkg/contracts/src/CVStrategy/CVStrategyV0_0.sol:CVStrategyV0_0","label":"challenger","offset":0,"slot":"2","type":"t_address"}]},"t_uint256":{"encoding":"inplace","label":"uint256","numberOfBytes":"32"},"t_uint64":{"encoding":"inplace","label":"uint64","numberOfBytes":"8"},"t_uint8":{"encoding":"inplace","label":"uint8","numberOfBytes":"1"}}},"id":118}