{"abi":[{"type":"fallback","stateMutability":"payable"},{"type":"receive","stateMutability":"payable"},{"type":"function","name":"D","inputs":[],"outputs":[{"name":"","type":"uint256","internalType":"uint256"}],"stateMutability":"view"},{"type":"function","name":"MAX_STAKED_PROPOSALS","inputs":[],"outputs":[{"name":"","type":"uint256","internalType":"uint256"}],"stateMutability":"view"},{"type":"function","name":"NATIVE","inputs":[],"outputs":[{"name":"","type":"address","internalType":"address"}],"stateMutability":"view"},{"type":"function","name":"_minThresholdPoints","inputs":[],"outputs":[{"name":"","type":"uint256","internalType":"uint256"}],"stateMutability":"view"},{"type":"function","name":"activatePoints","inputs":[],"outputs":[],"stateMutability":"nonpayable"},{"type":"function","name":"allocate","inputs":[{"name":"_data","type":"bytes","internalType":"bytes"},{"name":"_sender","type":"address","internalType":"address"}],"outputs":[],"stateMutability":"payable"},{"type":"function","name":"calculateConviction","inputs":[{"name":"_timePassed","type":"uint256","internalType":"uint256"},{"name":"_lastConv","type":"uint256","internalType":"uint256"},{"name":"_oldAmount","type":"uint256","internalType":"uint256"}],"outputs":[{"name":"","type":"uint256","internalType":"uint256"}],"stateMutability":"view"},{"type":"function","name":"calculateThreshold","inputs":[{"name":"_requestedAmount","type":"uint256","internalType":"uint256"}],"outputs":[{"name":"_threshold","type":"uint256","internalType":"uint256"}],"stateMutability":"view"},{"type":"function","name":"canExecuteProposal","inputs":[{"name":"proposalId","type":"uint256","internalType":"uint256"}],"outputs":[{"name":"canBeExecuted","type":"bool","internalType":"bool"}],"stateMutability":"view"},{"type":"function","name":"deactivatePoints","inputs":[],"outputs":[],"stateMutability":"nonpayable"},{"type":"function","name":"deactivatePoints","inputs":[{"name":"_member","type":"address","internalType":"address"}],"outputs":[],"stateMutability":"nonpayable"},{"type":"function","name":"decay","inputs":[],"outputs":[{"name":"","type":"uint256","internalType":"uint256"}],"stateMutability":"view"},{"type":"function","name":"decreasePower","inputs":[{"name":"_member","type":"address","internalType":"address"},{"name":"_amountToUnstake","type":"uint256","internalType":"uint256"}],"outputs":[{"name":"","type":"uint256","internalType":"uint256"}],"stateMutability":"nonpayable"},{"type":"function","name":"distribute","inputs":[{"name":"_recipientIds","type":"address[]","internalType":"address[]"},{"name":"_data","type":"bytes","internalType":"bytes"},{"name":"_sender","type":"address","internalType":"address"}],"outputs":[],"stateMutability":"nonpayable"},{"type":"function","name":"getAllo","inputs":[],"outputs":[{"name":"","type":"address","internalType":"contract IAllo"}],"stateMutability":"view"},{"type":"function","name":"getMaxAmount","inputs":[],"outputs":[{"name":"","type":"uint256","internalType":"uint256"}],"stateMutability":"view"},{"type":"function","name":"getMaxConviction","inputs":[{"name":"amount","type":"uint256","internalType":"uint256"}],"outputs":[{"name":"","type":"uint256","internalType":"uint256"}],"stateMutability":"view"},{"type":"function","name":"getMetadata","inputs":[{"name":"_proposalId","type":"uint256","internalType":"uint256"}],"outputs":[{"name":"","type":"tuple","internalType":"struct Metadata","components":[{"name":"protocol","type":"uint256","internalType":"uint256"},{"name":"pointer","type":"string","internalType":"string"}]}],"stateMutability":"view"},{"type":"function","name":"getPayouts","inputs":[{"name":"","type":"address[]","internalType":"address[]"},{"name":"","type":"bytes[]","internalType":"bytes[]"}],"outputs":[{"name":"","type":"tuple[]","internalType":"struct IStrategy.PayoutSummary[]","components":[{"name":"recipientAddress","type":"address","internalType":"address"},{"name":"amount","type":"uint256","internalType":"uint256"}]}],"stateMutability":"pure"},{"type":"function","name":"getPointSystem","inputs":[],"outputs":[{"name":"","type":"uint8","internalType":"enum StrategyStruct.PointSystem"}],"stateMutability":"view"},{"type":"function","name":"getPoolAmount","inputs":[],"outputs":[{"name":"","type":"uint256","internalType":"uint256"}],"stateMutability":"view"},{"type":"function","name":"getPoolId","inputs":[],"outputs":[{"name":"","type":"uint256","internalType":"uint256"}],"stateMutability":"view"},{"type":"function","name":"getProposal","inputs":[{"name":"_proposalId","type":"uint256","internalType":"uint256"}],"outputs":[{"name":"submitter","type":"address","internalType":"address"},{"name":"beneficiary","type":"address","internalType":"address"},{"name":"requestedToken","type":"address","internalType":"address"},{"name":"requestedAmount","type":"uint256","internalType":"uint256"},{"name":"stakedAmount","type":"uint256","internalType":"uint256"},{"name":"proposalStatus","type":"uint8","internalType":"enum StrategyStruct.ProposalStatus"},{"name":"blockLast","type":"uint256","internalType":"uint256"},{"name":"convictionLast","type":"uint256","internalType":"uint256"},{"name":"threshold","type":"uint256","internalType":"uint256"},{"name":"voterStakedPoints","type":"uint256","internalType":"uint256"}],"stateMutability":"view"},{"type":"function","name":"getProposalStakedAmount","inputs":[{"name":"_proposalId","type":"uint256","internalType":"uint256"}],"outputs":[{"name":"","type":"uint256","internalType":"uint256"}],"stateMutability":"view"},{"type":"function","name":"getProposalVoterStake","inputs":[{"name":"_proposalId","type":"uint256","internalType":"uint256"},{"name":"_voter","type":"address","internalType":"address"}],"outputs":[{"name":"","type":"uint256","internalType":"uint256"}],"stateMutability":"view"},{"type":"function","name":"getRecipientStatus","inputs":[{"name":"_recipientId","type":"address","internalType":"address"}],"outputs":[{"name":"","type":"uint8","internalType":"enum IStrategy.Status"}],"stateMutability":"view"},{"type":"function","name":"getStrategyId","inputs":[],"outputs":[{"name":"","type":"bytes32","internalType":"bytes32"}],"stateMutability":"view"},{"type":"function","name":"getTotalVoterStakePct","inputs":[{"name":"_voter","type":"address","internalType":"address"}],"outputs":[{"name":"","type":"uint256","internalType":"uint256"}],"stateMutability":"view"},{"type":"function","name":"increasePoolAmount","inputs":[{"name":"_amount","type":"uint256","internalType":"uint256"}],"outputs":[],"stateMutability":"nonpayable"},{"type":"function","name":"increasePower","inputs":[{"name":"_member","type":"address","internalType":"address"},{"name":"_amountToStake","type":"uint256","internalType":"uint256"}],"outputs":[{"name":"","type":"uint256","internalType":"uint256"}],"stateMutability":"nonpayable"},{"type":"function","name":"initialize","inputs":[{"name":"_poolId","type":"uint256","internalType":"uint256"},{"name":"_data","type":"bytes","internalType":"bytes"}],"outputs":[],"stateMutability":"nonpayable"},{"type":"function","name":"initialize","inputs":[{"name":"_allo","type":"address","internalType":"address"},{"name":"_name","type":"string","internalType":"string"}],"outputs":[],"stateMutability":"nonpayable"},{"type":"function","name":"isPoolActive","inputs":[],"outputs":[{"name":"","type":"bool","internalType":"bool"}],"stateMutability":"view"},{"type":"function","name":"isValidAllocator","inputs":[{"name":"_allocator","type":"address","internalType":"address"}],"outputs":[{"name":"","type":"bool","internalType":"bool"}],"stateMutability":"view"},{"type":"function","name":"maxRatio","inputs":[],"outputs":[{"name":"","type":"uint256","internalType":"uint256"}],"stateMutability":"view"},{"type":"function","name":"owner","inputs":[],"outputs":[{"name":"","type":"address","internalType":"address"}],"stateMutability":"view"},{"type":"function","name":"pointConfig","inputs":[],"outputs":[{"name":"maxAmount","type":"uint256","internalType":"uint256"}],"stateMutability":"view"},{"type":"function","name":"pointSystem","inputs":[],"outputs":[{"name":"","type":"uint8","internalType":"enum StrategyStruct.PointSystem"}],"stateMutability":"view"},{"type":"function","name":"proposalCounter","inputs":[],"outputs":[{"name":"","type":"uint256","internalType":"uint256"}],"stateMutability":"view"},{"type":"function","name":"proposalType","inputs":[],"outputs":[{"name":"","type":"uint8","internalType":"enum StrategyStruct.ProposalType"}],"stateMutability":"view"},{"type":"function","name":"proposals","inputs":[{"name":"","type":"uint256","internalType":"uint256"}],"outputs":[{"name":"proposalId","type":"uint256","internalType":"uint256"},{"name":"requestedAmount","type":"uint256","internalType":"uint256"},{"name":"stakedAmount","type":"uint256","internalType":"uint256"},{"name":"convictionLast","type":"uint256","internalType":"uint256"},{"name":"beneficiary","type":"address","internalType":"address"},{"name":"submitter","type":"address","internalType":"address"},{"name":"requestedToken","type":"address","internalType":"address"},{"name":"blockLast","type":"uint256","internalType":"uint256"},{"name":"proposalStatus","type":"uint8","internalType":"enum StrategyStruct.ProposalStatus"},{"name":"metadata","type":"tuple","internalType":"struct Metadata","components":[{"name":"protocol","type":"uint256","internalType":"uint256"},{"name":"pointer","type":"string","internalType":"string"}]}],"stateMutability":"view"},{"type":"function","name":"proxiableUUID","inputs":[],"outputs":[{"name":"","type":"bytes32","internalType":"bytes32"}],"stateMutability":"view"},{"type":"function","name":"registerRecipient","inputs":[{"name":"_data","type":"bytes","internalType":"bytes"},{"name":"_sender","type":"address","internalType":"address"}],"outputs":[{"name":"recipientId","type":"address","internalType":"address"}],"stateMutability":"payable"},{"type":"function","name":"registryCommunity","inputs":[],"outputs":[{"name":"","type":"address","internalType":"contract RegistryCommunity"}],"stateMutability":"view"},{"type":"function","name":"renounceOwnership","inputs":[],"outputs":[],"stateMutability":"nonpayable"},{"type":"function","name":"setDecay","inputs":[{"name":"_decay","type":"uint256","internalType":"uint256"}],"outputs":[],"stateMutability":"nonpayable"},{"type":"function","name":"setMaxRatio","inputs":[{"name":"_maxRatio","type":"uint256","internalType":"uint256"}],"outputs":[],"stateMutability":"nonpayable"},{"type":"function","name":"setMinThresholdPoints","inputs":[{"name":"minThresholdPoints_","type":"uint256","internalType":"uint256"}],"outputs":[],"stateMutability":"nonpayable"},{"type":"function","name":"setPoolActive","inputs":[{"name":"_active","type":"bool","internalType":"bool"}],"outputs":[],"stateMutability":"nonpayable"},{"type":"function","name":"setRegistryCommunity","inputs":[{"name":"_registryCommunity","type":"address","internalType":"address"}],"outputs":[],"stateMutability":"nonpayable"},{"type":"function","name":"setWeight","inputs":[{"name":"_weight","type":"uint256","internalType":"uint256"}],"outputs":[],"stateMutability":"nonpayable"},{"type":"function","name":"supportProposal","inputs":[{"name":"","type":"tuple[]","internalType":"struct StrategyStruct.ProposalSupport[]","components":[{"name":"proposalId","type":"uint256","internalType":"uint256"},{"name":"deltaSupport","type":"int256","internalType":"int256"}]}],"outputs":[],"stateMutability":"pure"},{"type":"function","name":"supportsInterface","inputs":[{"name":"interfaceId","type":"bytes4","internalType":"bytes4"}],"outputs":[{"name":"","type":"bool","internalType":"bool"}],"stateMutability":"view"},{"type":"function","name":"totalEffectiveActivePoints","inputs":[],"outputs":[{"name":"","type":"uint256","internalType":"uint256"}],"stateMutability":"view"},{"type":"function","name":"totalPointsActivated","inputs":[],"outputs":[{"name":"","type":"uint256","internalType":"uint256"}],"stateMutability":"view"},{"type":"function","name":"totalStaked","inputs":[],"outputs":[{"name":"","type":"uint256","internalType":"uint256"}],"stateMutability":"view"},{"type":"function","name":"totalVoterStakePct","inputs":[{"name":"","type":"address","internalType":"address"}],"outputs":[{"name":"","type":"uint256","internalType":"uint256"}],"stateMutability":"view"},{"type":"function","name":"transferOwnership","inputs":[{"name":"newOwner","type":"address","internalType":"address"}],"outputs":[],"stateMutability":"nonpayable"},{"type":"function","name":"updateProposalConviction","inputs":[{"name":"proposalId","type":"uint256","internalType":"uint256"}],"outputs":[{"name":"","type":"uint256","internalType":"uint256"}],"stateMutability":"nonpayable"},{"type":"function","name":"upgradeTo","inputs":[{"name":"newImplementation","type":"address","internalType":"address"}],"outputs":[],"stateMutability":"nonpayable"},{"type":"function","name":"upgradeToAndCall","inputs":[{"name":"newImplementation","type":"address","internalType":"address"},{"name":"data","type":"bytes","internalType":"bytes"}],"outputs":[],"stateMutability":"payable"},{"type":"function","name":"voterStakedProposals","inputs":[{"name":"","type":"address","internalType":"address"},{"name":"","type":"uint256","internalType":"uint256"}],"outputs":[{"name":"","type":"uint256","internalType":"uint256"}],"stateMutability":"view"},{"type":"function","name":"weight","inputs":[],"outputs":[{"name":"","type":"uint256","internalType":"uint256"}],"stateMutability":"view"},{"type":"event","name":"AdminChanged","inputs":[{"name":"previousAdmin","type":"address","indexed":false,"internalType":"address"},{"name":"newAdmin","type":"address","indexed":false,"internalType":"address"}],"anonymous":false},{"type":"event","name":"Allocated","inputs":[{"name":"recipientId","type":"address","indexed":true,"internalType":"address"},{"name":"amount","type":"uint256","indexed":false,"internalType":"uint256"},{"name":"token","type":"address","indexed":false,"internalType":"address"},{"name":"sender","type":"address","indexed":false,"internalType":"address"}],"anonymous":false},{"type":"event","name":"BeaconUpgraded","inputs":[{"name":"beacon","type":"address","indexed":true,"internalType":"address"}],"anonymous":false},{"type":"event","name":"DecayUpdated","inputs":[{"name":"decay","type":"uint256","indexed":false,"internalType":"uint256"}],"anonymous":false},{"type":"event","name":"Distributed","inputs":[{"name":"proposalId","type":"uint256","indexed":false,"internalType":"uint256"},{"name":"beneficiary","type":"address","indexed":false,"internalType":"address"},{"name":"amount","type":"uint256","indexed":false,"internalType":"uint256"}],"anonymous":false},{"type":"event","name":"Distributed","inputs":[{"name":"recipientId","type":"address","indexed":true,"internalType":"address"},{"name":"recipientAddress","type":"address","indexed":false,"internalType":"address"},{"name":"amount","type":"uint256","indexed":false,"internalType":"uint256"},{"name":"sender","type":"address","indexed":false,"internalType":"address"}],"anonymous":false},{"type":"event","name":"Initialized","inputs":[{"name":"poolId","type":"uint256","indexed":false,"internalType":"uint256"},{"name":"data","type":"bytes","indexed":false,"internalType":"bytes"}],"anonymous":false},{"type":"event","name":"Initialized","inputs":[{"name":"version","type":"uint8","indexed":false,"internalType":"uint8"}],"anonymous":false},{"type":"event","name":"InitializedCV","inputs":[{"name":"poolId","type":"uint256","indexed":false,"internalType":"uint256"},{"name":"data","type":"tuple","indexed":false,"internalType":"struct StrategyStruct.InitializeParams","components":[{"name":"registryCommunity","type":"address","internalType":"address"},{"name":"decay","type":"uint256","internalType":"uint256"},{"name":"maxRatio","type":"uint256","internalType":"uint256"},{"name":"weight","type":"uint256","internalType":"uint256"},{"name":"minThresholdPoints","type":"uint256","internalType":"uint256"},{"name":"proposalType","type":"uint8","internalType":"enum StrategyStruct.ProposalType"},{"name":"pointSystem","type":"uint8","internalType":"enum StrategyStruct.PointSystem"},{"name":"pointConfig","type":"tuple","internalType":"struct StrategyStruct.PointSystemConfig","components":[{"name":"maxAmount","type":"uint256","internalType":"uint256"}]},{"name":"sybilConfig","type":"tuple","internalType":"struct StrategyStruct.SybilConfig","components":[{"name":"sybilOracleScorer","type":"address","internalType":"address"},{"name":"threshold","type":"uint256","internalType":"uint256"}]}]}],"anonymous":false},{"type":"event","name":"MaxRatioUpdated","inputs":[{"name":"maxRatio","type":"uint256","indexed":false,"internalType":"uint256"}],"anonymous":false},{"type":"event","name":"MinThresholdPointsUpdated","inputs":[{"name":"before","type":"uint256","indexed":false,"internalType":"uint256"},{"name":"minThresholdPoints","type":"uint256","indexed":false,"internalType":"uint256"}],"anonymous":false},{"type":"event","name":"OwnershipTransferred","inputs":[{"name":"previousOwner","type":"address","indexed":true,"internalType":"address"},{"name":"newOwner","type":"address","indexed":true,"internalType":"address"}],"anonymous":false},{"type":"event","name":"PointsDeactivated","inputs":[{"name":"member","type":"address","indexed":false,"internalType":"address"}],"anonymous":false},{"type":"event","name":"PoolActive","inputs":[{"name":"active","type":"bool","indexed":false,"internalType":"bool"}],"anonymous":false},{"type":"event","name":"PoolAmountIncreased","inputs":[{"name":"amount","type":"uint256","indexed":false,"internalType":"uint256"}],"anonymous":false},{"type":"event","name":"PowerDecreased","inputs":[{"name":"member","type":"address","indexed":false,"internalType":"address"},{"name":"tokensUnStaked","type":"uint256","indexed":false,"internalType":"uint256"},{"name":"pointsToDecrease","type":"uint256","indexed":false,"internalType":"uint256"}],"anonymous":false},{"type":"event","name":"PowerIncreased","inputs":[{"name":"member","type":"address","indexed":false,"internalType":"address"},{"name":"tokensStaked","type":"uint256","indexed":false,"internalType":"uint256"},{"name":"pointsToIncrease","type":"uint256","indexed":false,"internalType":"uint256"}],"anonymous":false},{"type":"event","name":"ProposalCreated","inputs":[{"name":"poolId","type":"uint256","indexed":false,"internalType":"uint256"},{"name":"proposalId","type":"uint256","indexed":false,"internalType":"uint256"}],"anonymous":false},{"type":"event","name":"Registered","inputs":[{"name":"recipientId","type":"address","indexed":true,"internalType":"address"},{"name":"data","type":"bytes","indexed":false,"internalType":"bytes"},{"name":"sender","type":"address","indexed":false,"internalType":"address"}],"anonymous":false},{"type":"event","name":"RegistryUpdated","inputs":[{"name":"registryCommunity","type":"address","indexed":false,"internalType":"address"}],"anonymous":false},{"type":"event","name":"SupportAdded","inputs":[{"name":"from","type":"address","indexed":false,"internalType":"address"},{"name":"proposalId","type":"uint256","indexed":false,"internalType":"uint256"},{"name":"amount","type":"uint256","indexed":false,"internalType":"uint256"},{"name":"totalStakedAmount","type":"uint256","indexed":false,"internalType":"uint256"},{"name":"convictionLast","type":"uint256","indexed":false,"internalType":"uint256"}],"anonymous":false},{"type":"event","name":"Upgraded","inputs":[{"name":"implementation","type":"address","indexed":true,"internalType":"address"}],"anonymous":false},{"type":"event","name":"WeightUpdated","inputs":[{"name":"weight","type":"uint256","indexed":false,"internalType":"uint256"}],"anonymous":false},{"type":"error","name":"ALLOCATION_ACTIVE","inputs":[]},{"type":"error","name":"ALLOCATION_NOT_ACTIVE","inputs":[]},{"type":"error","name":"ALLOCATION_NOT_ENDED","inputs":[]},{"type":"error","name":"ALREADY_INITIALIZED","inputs":[]},{"type":"error","name":"AMOUNT_MISMATCH","inputs":[]},{"type":"error","name":"ANCHOR_ERROR","inputs":[]},{"type":"error","name":"ARRAY_MISMATCH","inputs":[]},{"type":"error","name":"AddressCannotBeZero","inputs":[]},{"type":"error","name":"AmountOverMaxRatio","inputs":[]},{"type":"error","name":"CantIncreaseFixedSystem","inputs":[]},{"type":"error","name":"ConvictionUnderMinimumThreshold","inputs":[]},{"type":"error","name":"INVALID","inputs":[]},{"type":"error","name":"INVALID_ADDRESS","inputs":[]},{"type":"error","name":"INVALID_FEE","inputs":[]},{"type":"error","name":"INVALID_METADATA","inputs":[]},{"type":"error","name":"INVALID_REGISTRATION","inputs":[]},{"type":"error","name":"IS_APPROVED_STRATEGY","inputs":[]},{"type":"error","name":"MISMATCH","inputs":[]},{"type":"error","name":"MaxPointsReached","inputs":[]},{"type":"error","name":"NONCE_NOT_AVAILABLE","inputs":[]},{"type":"error","name":"NOT_APPROVED_STRATEGY","inputs":[]},{"type":"error","name":"NOT_ENOUGH_FUNDS","inputs":[]},{"type":"error","name":"NOT_IMPLEMENTED","inputs":[]},{"type":"error","name":"NOT_INITIALIZED","inputs":[]},{"type":"error","name":"NOT_PENDING_OWNER","inputs":[]},{"type":"error","name":"NotEnoughPointsToSupport","inputs":[{"name":"pointsSupport","type":"uint256","internalType":"uint256"},{"name":"pointsBalance","type":"uint256","internalType":"uint256"}]},{"type":"error","name":"NotImplemented","inputs":[]},{"type":"error","name":"OnlyCommunityAllowed","inputs":[]},{"type":"error","name":"POOL_ACTIVE","inputs":[]},{"type":"error","name":"POOL_INACTIVE","inputs":[]},{"type":"error","name":"PoolAmountNotEnough","inputs":[{"name":"_proposalId","type":"uint256","internalType":"uint256"},{"name":"_requestedAmount","type":"uint256","internalType":"uint256"},{"name":"_poolAmount","type":"uint256","internalType":"uint256"}]},{"type":"error","name":"PoolIdCannotBeZero","inputs":[]},{"type":"error","name":"PoolIsEmpty","inputs":[]},{"type":"error","name":"ProposalDataIsEmpty","inputs":[]},{"type":"error","name":"ProposalIdCannotBeZero","inputs":[]},{"type":"error","name":"ProposalNotActive","inputs":[{"name":"_proposalId","type":"uint256","internalType":"uint256"}]},{"type":"error","name":"ProposalNotInList","inputs":[{"name":"_proposalId","type":"uint256","internalType":"uint256"}]},{"type":"error","name":"ProposalSupportDuplicated","inputs":[{"name":"_proposalId","type":"uint256","internalType":"uint256"},{"name":"index","type":"uint256","internalType":"uint256"}]},{"type":"error","name":"RECIPIENT_ALREADY_ACCEPTED","inputs":[]},{"type":"error","name":"RECIPIENT_ERROR","inputs":[{"name":"recipientId","type":"address","internalType":"address"}]},{"type":"error","name":"RECIPIENT_NOT_ACCEPTED","inputs":[]},{"type":"error","name":"REGISTRATION_NOT_ACTIVE","inputs":[]},{"type":"error","name":"RegistryCannotBeZero","inputs":[]},{"type":"error","name":"SupportUnderflow","inputs":[{"name":"_support","type":"uint256","internalType":"uint256"},{"name":"_delta","type":"int256","internalType":"int256"},{"name":"_result","type":"int256","internalType":"int256"}]},{"type":"error","name":"TokenCannotBeZero","inputs":[]},{"type":"error","name":"TokenNotAllowed","inputs":[]},{"type":"error","name":"UNAUTHORIZED","inputs":[]},{"type":"error","name":"UserCannotBeZero","inputs":[]},{"type":"error","name":"UserIsInactive","inputs":[]},{"type":"error","name":"UserNotInRegistry","inputs":[]},{"type":"error","name":"ZERO_ADDRESS","inputs":[]}],"bytecode":{"object":"0x60a0604052306080526000606d81905560705534801561001e57600080fd5b506080516155ea620000576000396000818161103a015281816110bf015281816111c001528181611245015261132f01526155ea6000f3fe60806040526004361061038c5760003560e01c8063715018a6116101da578063b5f620ce11610101578063e33add931161009a578063f2fde38b1161006c578063f2fde38b14610ace578063f399e22e14610aee578063f5b0dfb714610b0e578063fc1711f214610b2e57005b8063e33add9314610a4e578063eb11af9314610a6e578063edd146cc14610a9b578063ef2920fc14610abb57005b8063d1e36232116100d3578063d1e36232146109d4578063dc96ff2d146109e9578063df868ed314610a19578063e0dd2c3814610a2e57005b8063b5f620ce1461092b578063bcc5b93b1461094b578063c329217114610981578063c7f758a81461099e57005b80638da5cb5b11610173578063a47ff7e511610145578063a47ff7e5146108a4578063a574cea4146108bb578063aba9ffee146108e8578063b2b878d0146108fe57005b80638da5cb5b14610828578063950559d714610846578063a0cf0aea14610866578063a1aab33f1461088e57005b8063814516ad116101ac578063814516ad146107bd578063817b1cd2146107d2578063824ea8ed146107e8578063868c57b81461080857005b8063715018a61461075c57806376365af714610771578063782aadff146107875780637c6570ba146107a757005b8063346db8cb116102be5780634f1ef286116102575780635db64b99116102295780635db64b99146106cf5780636003e414146106fc5780636453d9c41461071c57806369fa25c41461073c57005b80634f1ef2861461067157806352d1902d1461068457806354fac9191461069957806359a5db8b146106af57005b8063406244d811610290578063406244d81461061257806342fda9c7146106275780634ab4ba421461063c5780634d31d0871461065157005b8063346db8cb14610596578063351d9f96146105b65780633659cfe6146105dd57806338fff2d0146105fd57005b806311f22ae3116103305780632bbe0cae116103025780632bbe0cae146105175780632cefadbb1461052a5780632dbd6fdd1461054a5780632ed04b2b1461057657005b806311f22ae31461049057806315cc481e146104b05780631aa91a9e146104e25780631ddf1e231461050257005b80630a6f0ee9116103695780630a6f0ee9146104245780630ba95909146104445780630c0512e9146104635780630f529ba21461047957005b8063013cf08b1461039557806301ffc9a7146103d4578063058aca441461040457005b3661039357005b005b3480156103a157600080fd5b506103b56103b03660046144a4565b610b4e565b6040516103cb9a99989796959493929190614556565b60405180910390f35b3480156103e057600080fd5b506103f46103ef3660046145c9565b610c5c565b60405190151581526020016103cb565b34801561041057600080fd5b5061039361041f366004614620565b610cf5565b34801561043057600080fd5b5061039361043f366004614830565b610d55565b34801561045057600080fd5b506073545b6040519081526020016103cb565b34801561046f57600080fd5b50610455606d5481565b34801561048557600080fd5b506104556298968081565b34801561049c57600080fd5b506103936104ab3660046144a4565b610d75565b3480156104bc57600080fd5b506065546001600160a01b03165b6040516001600160a01b0390911681526020016103cb565b3480156104ee57600080fd5b506104556104fd3660046144a4565b610db4565b34801561050e57600080fd5b50610393610e3f565b6104ca6105253660046148a8565b610e4a565b34801561053657600080fd5b506103936105453660046144a4565b610e6d565b34801561055657600080fd5b5060725461056990610100900460ff1681565b6040516103cb919061490a565b34801561058257600080fd5b50610455610591366004614918565b610eb9565b3480156105a257600080fd5b506104556105b1366004614944565b610f8b565b3480156105c257600080fd5b506072546105d09060ff1681565b6040516103cb9190614980565b3480156105e957600080fd5b506103936105f8366004614620565b611030565b34801561060957600080fd5b50606854610455565b34801561061e57600080fd5b50610455600a81565b34801561063357600080fd5b50606654610455565b34801561064857600080fd5b50606954610455565b34801561065d57600080fd5b506103f461066c366004614620565b6111ab565b61039361067f36600461498e565b6111b6565b34801561069057600080fd5b50610455611322565b3480156106a557600080fd5b50610455606a5481565b3480156106bb57600080fd5b506104556106ca3660046144a4565b6113e7565b3480156106db57600080fd5b506104556106ea366004614620565b60766020526000908152604090205481565b34801561070857600080fd5b506074546104ca906001600160a01b031681565b34801561072857600080fd5b50610393610737366004614620565b611524565b34801561074857600080fd5b506103936107573660046144a4565b611535565b34801561076857600080fd5b50610393611574565b34801561077d57600080fd5b50610455606b5481565b34801561079357600080fd5b506104556107a2366004614918565b611586565b3480156107b357600080fd5b5061045560705481565b3480156107c957600080fd5b50610393611702565b3480156107de57600080fd5b50610455606e5481565b3480156107f457600080fd5b506103f46108033660046144a4565b61180c565b34801561081457600080fd5b50610455610823366004614918565b611869565b34801561083457600080fd5b506033546001600160a01b03166104ca565b34801561085257600080fd5b506104556108613660046144a4565b61189a565b34801561087257600080fd5b506104ca73eeeeeeeeeeeeeeeeeeeeeeeeeeeeeeeeeeeeeeee81565b34801561089a57600080fd5b50610455606c5481565b3480156108b057600080fd5b506073546104559081565b3480156108c757600080fd5b506108db6108d63660046144a4565b6118c4565b6040516103cb91906149de565b3480156108f457600080fd5b50610455606f5481565b34801561090a57600080fd5b5061091e6109193660046149f1565b6119a3565b6040516103cb9190614ac6565b34801561093757600080fd5b50610393610946366004614b34565b6119be565b34801561095757600080fd5b50610455610966366004614620565b6001600160a01b031660009081526076602052604090205490565b34801561098d57600080fd5b50607254610100900460ff16610569565b3480156109aa57600080fd5b506109be6109b93660046144a4565b6119c7565b6040516103cb9a99989796959493929190614b51565b3480156109e057600080fd5b50606f54610455565b3480156109f557600080fd5b50610455610a043660046144a4565b60009081526075602052604090206002015490565b348015610a2557600080fd5b506103f4611ac9565b348015610a3a57600080fd5b50610455610a49366004614bb6565b611adc565b348015610a5a57600080fd5b50610393610a69366004614bdb565b611b07565b348015610a7a57600080fd5b50610a8e610a89366004614620565b611b20565b6040516103cb9190614c86565b348015610aa757600080fd5b50610393610ab6366004614ca0565b611b2b565b610393610ac93660046148a8565b611d71565b348015610ada57600080fd5b50610393610ae9366004614620565b611d8b565b348015610afa57600080fd5b50610393610b09366004614cd1565b611e18565b348015610b1a57600080fd5b50610393610b293660046144a4565b611e6b565b348015610b3a57600080fd5b50610393610b493660046144a4565b611e94565b6075602090815260009182526040918290208054600182015460028301546003840154600485015460058601546006870154600788015460088901548b51808d01909c52600a8a0180548d52600b8b0180549a9d999c989b979a6001600160a01b039788169a968816999790951697939660ff9093169593949192840191610bd590614d2b565b80601f0160208091040260200160405190810160405280929190818152602001828054610c0190614d2b565b8015610c4e5780601f10610c2357610100808354040283529160200191610c4e565b820191906000526020600020905b815481529060010190602001808311610c3157829003601f168201915b50505050508152505090508a565b60007fffffffff0000000000000000000000000000000000000000000000000000000082167ff1801e61000000000000000000000000000000000000000000000000000000001480610cef57507f01ffc9a7000000000000000000000000000000000000000000000000000000007fffffffff000000000000000000000000000000000000000000000000000000008316145b92915050565b33610cff81611ed3565b607480546001600160a01b0319166001600160a01b0384169081179091556040519081527fd6ceddf6d2a22f21c7c81675c518004eff43bc5c8a6fc32a0b748e69d58671cd906020015b60405180910390a15050565b610d5d611f82565b610d65611fad565b610d70838383611fe9565b505050565b33610d7f81611ed3565b606b8290556040518281527f08e39b387d1f739ce0d2553bb31822392e3f67c62c6c0a215120ab4a6841a8ab90602001610d49565b600081815260756020526040812080548314610deb5760405163c1d17bef60e01b8152600481018490526024015b60405180910390fd5b6001600882015460ff166004811115610e0657610e066144bd565b14610e27576040516344980d8f60e01b815260048101849052602401610de2565b610e358182600201546122fd565b6003015492915050565b610e4833612338565b565b6000610e54611f82565b610e5c611fad565b610e668383612489565b9392505050565b33610e7781611ed3565b60705460408051918252602082018490527f056aedca4e334b6c4bea48715fb0de644811b740894de57a0380d3eb90f2805b910160405180910390a150607055565b6000610ec36127b4565b60006002607254610100900460ff166003811115610ee357610ee36144bd565b1480610f0a57506001607254610100900460ff166003811115610f0857610f086144bd565b145b15610f16575081610f23565b610f2084846127f8565b90505b80606f6000828254610f359190614d75565b9091555050604080516001600160a01b0386168152602081018590529081018290527f70b752f3fadb6ac131c0ece847fcbb6994ec56ed6411595710fd9b29c6ac6cc19060600160405180910390a19392505050565b6000808490506000610fb1629896806080606a54901b610fab9190614d9e565b83612abc565b905060806f80000000000000000000000000000000606a5462989680610fd79190614d75565b610fe584600160801b614d75565b610ff26298968089614dc0565b610ffc9190614dc0565b6110069190614d9e565b6110108885614dc0565b61101a9190614dd7565b6110249190614dd7565b901c9695505050505050565b6001600160a01b037f00000000000000000000000000000000000000000000000000000000000000001630036110bd5760405162461bcd60e51b815260206004820152602c60248201527f46756e6374696f6e206d7573742062652063616c6c6564207468726f7567682060448201526b19195b1959d85d1958d85b1b60a21b6064820152608401610de2565b7f00000000000000000000000000000000000000000000000000000000000000006001600160a01b03166111187f360894a13ba1a3210667c828492db98dca3e2076cc3735a920a3ca505d382bbc546001600160a01b031690565b6001600160a01b0316146111835760405162461bcd60e51b815260206004820152602c60248201527f46756e6374696f6e206d7573742062652063616c6c6564207468726f7567682060448201526b6163746976652070726f787960a01b6064820152608401610de2565b61118c81612b65565b604080516000808252602082019092526111a891839190612b6d565b50565b6000610cef82612d0d565b6001600160a01b037f00000000000000000000000000000000000000000000000000000000000000001630036112435760405162461bcd60e51b815260206004820152602c60248201527f46756e6374696f6e206d7573742062652063616c6c6564207468726f7567682060448201526b19195b1959d85d1958d85b1b60a21b6064820152608401610de2565b7f00000000000000000000000000000000000000000000000000000000000000006001600160a01b031661129e7f360894a13ba1a3210667c828492db98dca3e2076cc3735a920a3ca505d382bbc546001600160a01b031690565b6001600160a01b0316146113095760405162461bcd60e51b815260206004820152602c60248201527f46756e6374696f6e206d7573742062652063616c6c6564207468726f7567682060448201526b6163746976652070726f787960a01b6064820152608401610de2565b61131282612b65565b61131e82826001612b6d565b5050565b6000306001600160a01b037f000000000000000000000000000000000000000000000000000000000000000016146113c25760405162461bcd60e51b815260206004820152603860248201527f555550535570677261646561626c653a206d757374206e6f742062652063616c60448201527f6c6564207468726f7567682064656c656761746563616c6c00000000000000006064820152608401610de2565b507f360894a13ba1a3210667c828492db98dca3e2076cc3735a920a3ca505d382bbc90565b60008060695411611424576040517fed4421ad00000000000000000000000000000000000000000000000000000000815260040160405180910390fd5b61142d82612d2d565b1561144b57604051630efd728560e21b815260040160405180910390fd5b6069546000906114648468010000000000000000614dc0565b61146e9190614d9e565b62989680606b54680100000000000000006114899190614dc0565b6114939190614d9e565b61149d9190614d75565b905060406114aa606f5490565b606a546114ba9062989680614d75565b6298968060406114ca8680614dc0565b901c629896806080606c54901b6114e19190614d9e565b6114eb9190614d9e565b6114f59190614dc0565b6114ff9190614d9e565b6115099190614dc0565b901c9150607054821161151e57607054610e66565b50919050565b61152c6127b4565b6111a881612338565b3361153f81611ed3565b606a8290556040518281527f592dcd55d60d892e7fcb3ba105013312e99691cd59f91e15f83cb67cb5a505f290602001610d49565b61157c612d54565b610e486000612dae565b60006115906127b4565b60006002607254610100900460ff1660038111156115b0576115b06144bd565b036115be57825b905061161b565b6001607254610100900460ff1660038111156115dc576115dc6144bd565b036115eb576115b78484612e00565b6003607254610100900460ff166003811115611609576116096144bd565b0361161b576116188484612f66565b90505b60745460405163011de97360e61b81526001600160a01b038681166004830152306024830152600092169063477a5cc090604401602060405180830381865afa15801561166c573d6000803e3d6000fd5b505050506040513d601f19601f820116820180604052508101906116909190614dea565b905080156116b05781606f60008282546116aa9190614dd7565b90915550505b604080516001600160a01b0387168152602081018690529081018390527f0b9150e1e54346ed3fa36b977cd5d65dca5a649c737c3174a26bddaadd47667a9060600160405180910390a1509392505050565b6074546040517f0d4a8b490000000000000000000000000000000000000000000000000000000081523360048201819052306024830152916001600160a01b031690630d4a8b4990604401600060405180830381600087803b15801561176757600080fd5b505af115801561177b573d6000803e3d6000fd5b5050607454604051637817ee4f60e01b81526001600160a01b0385811660048301523060248301529091169250637817ee4f9150604401602060405180830381865afa1580156117cf573d6000803e3d6000fd5b505050506040513d601f19601f820116820180604052508101906117f39190614e07565b606f60008282546118049190614dd7565b909155505050565b600081815260756020526040812060028101548290819061182e9084906131ad565b91509150816000148015611840575080155b1561184d57826003015491505b600061185c84600101546113e7565b9092101595945050505050565b6077602052816000526040600020818154811061188557600080fd5b90600052602060002001600091509150505481565b6000606a54629896806118ad9190614d75565b6118ba6298968084614dc0565b610cef9190614d9e565b604080518082019091526000815260606020820152600060756000848152602001908152602001600020905080600a016040518060400160405290816000820154815260200160018201805461191990614d2b565b80601f016020809104026020016040519081016040528092919081815260200182805461194590614d2b565b80156119925780601f1061196757610100808354040283529160200191611992565b820191906000526020600020905b81548152906001019060200180831161197557829003601f168201915b505050505081525050915050919050565b606060405163d623472560e01b815260040160405180910390fd5b6111a881613205565b6000806000806000806000806000806000607560008d815260200190815260200160002090508060010154600014611a0b57611a0681600101546113e7565b611a0e565b60005b92508060050160009054906101000a90046001600160a01b03168160040160009054906101000a90046001600160a01b03168260060160009054906101000a90046001600160a01b0316836001015484600201548560080160009054906101000a900460ff16866007015487600301548a896009016000336001600160a01b03166001600160a01b03168152602001908152602001600020549a509a509a509a509a509a509a509a509a509a50509193959799509193959799565b6000611ad760675460ff1690565b905090565b60008281526075602090815260408083206001600160a01b0385168452600901909152812054610e66565b60405163d623472560e01b815260040160405180910390fd5b6000610cef82613246565b600054610100900460ff1615808015611b4b5750600054600160ff909116105b80611b655750303b158015611b65575060005460ff166001145b611bd75760405162461bcd60e51b815260206004820152602e60248201527f496e697469616c697a61626c653a20636f6e747261637420697320616c72656160448201527f647920696e697469616c697a65640000000000000000000000000000000000006064820152608401610de2565b6000805460ff191660011790558015611bfa576000805461ff0019166101001790555b611c02611f82565b611c0a613266565b611c13836132d9565b600082806020019051810190611c299190614ecb565b80519091506001600160a01b0316611c5457604051635df4b1ef60e01b815260040160405180910390fd5b8051607480546001600160a01b0319166001600160a01b039092169190911790556020810151606a556040810151606b556060810151606c5560a08101516072805460ff19166001836002811115611cae57611cae6144bd565b021790555060c08101516072805461ff001916610100836003811115611cd657611cd66144bd565b021790555060e08101515160735560808101516070556040517f8de50bebef1bd84245c2bf562892194bb7f5f441c7f848c1aa181f1e4e191e4290611d1e9086908490614f67565b60405180910390a1508015610d70576000805461ff0019169055604051600181527f7f26b83ff96e1f2b6a682f133852f6798a09c465da95921460cefb38474024989060200160405180910390a1505050565b611d79611f82565b611d81611fad565b61131e828261335a565b611d93612d54565b6001600160a01b038116611e0f5760405162461bcd60e51b815260206004820152602660248201527f4f776e61626c653a206e6577206f776e657220697320746865207a65726f206160448201527f64647265737300000000000000000000000000000000000000000000000000006064820152608401610de2565b6111a881612dae565b611e20611f82565b606580546001600160a01b0319166001600160a01b038416179055604051611e4c908290602001615006565b60408051601f1981840301815291905280516020909101206066555050565b611e73611f82565b8060696000828254611e859190614dd7565b909155506111a8905081613443565b33611e9e81611ed3565b606c8290556040518281527f30ee8206062f283e56a0af2b02138016bf7442ded26ad68a92a18a9dd246fb4990602001610d49565b6065546068546040517f29e40d4b00000000000000000000000000000000000000000000000000000000815260048101919091526001600160a01b038381166024830152909116906329e40d4b90604401602060405180830381865afa158015611f41573d6000803e3d6000fd5b505050506040513d601f19601f82011682018060405250810190611f659190614dea565b6111a85760405163075fd2b160e01b815260040160405180910390fd5b6065546001600160a01b03163314610e485760405163075fd2b160e01b815260040160405180910390fd5b606854600003610e48576040517f3da3f98c00000000000000000000000000000000000000000000000000000000815260040160405180910390fd5b6000825111612024576040517fc5f7c4c000000000000000000000000000000000000000000000000000000000815260040160405180910390fd5b60008280602001905181019061203a9190614e07565b905080600003612076576040517ff881a10d00000000000000000000000000000000000000000000000000000000815260040160405180910390fd5b6000818152607560205260409020600160725460ff16600281111561209d5761209d6144bd565b036122f657805482146120c65760405163c1d17bef60e01b815260048101839052602401610de2565b6069548160010154111561211e5760018101546069546040517f5863b0b60000000000000000000000000000000000000000000000000000000081526004810185905260248101929092526044820152606401610de2565b6001600882015460ff166004811115612139576121396144bd565b1461215a576040516344980d8f60e01b815260048101839052602401610de2565b600061216583610db4565b9050600061217683600101546113e7565b9050808210801561218b575060008360010154115b156121c2576040517fcce7930800000000000000000000000000000000000000000000000000000000815260040160405180910390fd5b6065546068546040517f068bcd8d00000000000000000000000000000000000000000000000000000000815260048101919091526000916001600160a01b03169063068bcd8d90602401600060405180830381865afa158015612229573d6000803e3d6000fd5b505050506040513d6000823e601f3d908101601f1916820160405261225191908101906150a6565b90508360010154606960008282546122699190614d75565b909155505060408101516004850154600186015461229192916001600160a01b031690613473565b60088401805460ff191660049081179091558401546001850154604080518881526001600160a01b0390931660208401528201527fa7932e9c92f31e1ed56b29d00bbe669a97484dc24de28dd9c8c0429df7f358479060600160405180910390a15050505b5050505050565b60008061230a84846131ad565b9150915081600014801561231c575080155b156123275750505050565b600784015560039092019190915550565b607454604051637817ee4f60e01b81526001600160a01b03838116600483015230602483015290911690637817ee4f90604401602060405180830381865afa158015612388573d6000803e3d6000fd5b505050506040513d601f19601f820116820180604052508101906123ac9190614e07565b606f60008282546123bd9190614d75565b90915550506074546040517f22bcf9990000000000000000000000000000000000000000000000000000000081526001600160a01b038381166004830152306024830152909116906322bcf99990604401600060405180830381600087803b15801561242857600080fd5b505af115801561243c573d6000803e3d6000fd5b50505050612449816134b8565b6040516001600160a01b03821681527f1468da654b37bb3631011c1917d02e0db437d519918858d40b38b5e980ca033b906020015b60405180910390a150565b600080838060200190518101906124a0919061515a565b80519091506000036124de576040517f4e79178600000000000000000000000000000000000000000000000000000000815260040160405180910390fd5b600160725460ff1660028111156124f7576124f76144bd565b036126a75761250981602001516135e3565b60608101516001600160a01b031661254d576040517f596a094c00000000000000000000000000000000000000000000000000000000815260040160405180910390fd5b6000306001600160a01b03166315cc481e6040518163ffffffff1660e01b8152600401602060405180830381865afa15801561258d573d6000803e3d6000fd5b505050506040513d601f19601f820116820180604052508101906125b19190615201565b6001600160a01b031663068bcd8d6068546040518263ffffffff1660e01b81526004016125e091815260200190565b600060405180830381865afa1580156125fd573d6000803e3d6000fd5b505050506040513d6000823e601f3d908101601f1916820160405261262591908101906150a6565b604001519050806001600160a01b031682606001516001600160a01b03161461267a576040517fa29c498600000000000000000000000000000000000000000000000000000000815260040160405180910390fd5b6126878260400151612d2d565b156126a557604051630efd728560e21b815260040160405180910390fd5b505b6000606d600081546126b89061521e565b918290555060008181526075602090815260408083208481556005810180546001600160a01b038b81166001600160a01b0319928316179092558885015160048401805491841691831691909117905560608901516006840180549190931691161790559086015160018083019190915560088201805460ff19169091179055436007820155600381019290925560808501518051600a8401908155918101519394509192600b84019061276c9082615285565b505060685460408051918252602082018590527ffcf3b1aa65a464cef2889608f99e8b8c0f680a4be6c2acb9d961c536a5a9294b92500160405180910390a150949350505050565b6074546001600160a01b03163314610e48576040517faf0916a200000000000000000000000000000000000000000000000000000000815260040160405180910390fd5b607454604080516336d8759760e21b815290516000926012926001600160a01b039091169163db61d65c916004808201926020929091908290030181865afa158015612848573d6000803e3d6000fd5b505050506040513d601f19601f8201168201806040525081019061286c9190615201565b6001600160a01b031663313ce5676040518163ffffffff1660e01b8152600401602060405180830381865afa9250505080156128c5575060408051601f3d908101601f191682019092526128c291810190615345565b60015b61290c576129076040518060400160405280601581526020017f4572726f722067657474696e6720646563696d616c0000000000000000000000815250613623565b612912565b60ff1690505b6129516040518060400160405280601081526020017f5f616d6f756e74546f556e7374616b650000000000000000000000000000000081525084613694565b6074546040516316308e2560e11b81526001600160a01b0386811660048301526000928692911690632c611c4a90602401602060405180830381865afa15801561299f573d6000803e3d6000fd5b505050506040513d601f19601f820116820180604052508101906129c39190614e07565b6129cd9190614d75565b9050612a0e6040518060400160405280600d81526020017f6e6577546f74616c5374616b650000000000000000000000000000000000000081525082613694565b6000612a2d612a1e84600a61544c565b612a289084614dc0565b613707565b607454604051637817ee4f60e01b81526001600160a01b03898116600483015230602483015292935060009284921690637817ee4f90604401602060405180830381865afa158015612a83573d6000803e3d6000fd5b505050506040513d601f19601f82011682018060405250810190612aa79190614e07565b612ab19190614d75565b979650505050505050565b6000600160801b8310612b115760405162461bcd60e51b815260206004820152601c60248201527f5f612073686f756c64206265206c657373207468616e20325e313238000000006044820152606401610de2565b50600160801b82825b8015612b5d5780600116600003612b3f57612b3582836137ef565b915060011c612b1a565b612b4983836137ef565b9250612b56600182614d75565b9050612b1a565b505092915050565b6111a8612d54565b7f4910fdfa16fed3260ed0e7147f7cc6da11a60208b5b9406d12a635614ffd91435460ff1615612ba057610d70836138ee565b826001600160a01b03166352d1902d6040518163ffffffff1660e01b8152600401602060405180830381865afa925050508015612bfa575060408051601f3d908101601f19168201909252612bf791810190614e07565b60015b612c6c5760405162461bcd60e51b815260206004820152602e60248201527f45524331393637557067726164653a206e657720696d706c656d656e7461746960448201527f6f6e206973206e6f7420555550530000000000000000000000000000000000006064820152608401610de2565b7f360894a13ba1a3210667c828492db98dca3e2076cc3735a920a3ca505d382bbc8114612d015760405162461bcd60e51b815260206004820152602960248201527f45524331393637557067726164653a20756e737570706f727465642070726f7860448201527f6961626c655555494400000000000000000000000000000000000000000000006064820152608401610de2565b50610d708383836139ac565b60006001600160a01b03821615612d25576001610cef565b600092915050565b6000612d3c6298968083614dc0565b606954606b54612d4c9190614dc0565b111592915050565b6033546001600160a01b03163314610e485760405162461bcd60e51b815260206004820181905260248201527f4f776e61626c653a2063616c6c6572206973206e6f7420746865206f776e65726044820152606401610de2565b603380546001600160a01b038381166001600160a01b0319831681179093556040519116919082907f8be0079c531659141344cd1fd0a4f28419497f9722a3daafe3b4186f6b6457e090600090a35050565b600080829050612e456040518060400160405280601281526020017f504f494e545320544f20494e435245415345000000000000000000000000000081525082613694565b607454604051637817ee4f60e01b81526001600160a01b0386811660048301523060248301526000921690637817ee4f90604401602060405180830381865afa158015612e96573d6000803e3d6000fd5b505050506040513d601f19601f82011682018060405250810190612eba9190614e07565b9050612efb6040518060400160405280600b81526020017f4d454d424552504f57455200000000000000000000000000000000000000000081525082613694565b607354612f088383614dd7565b1115612f1f57607354612f1c908290614d75565b91505b612f5e6040518060400160405280601681526020017f504f494e545320544f20494e43524541534520454e440000000000000000000081525083613694565b509392505050565b6074546040516316308e2560e11b81526001600160a01b0384811660048301526000928392859290911690632c611c4a90602401602060405180830381865afa158015612fb7573d6000803e3d6000fd5b505050506040513d601f19601f82011682018060405250810190612fdb9190614e07565b612fe59190614dd7565b607454604080516336d8759760e21b815290519293506012926001600160a01b039092169163db61d65c916004808201926020929091908290030181865afa158015613035573d6000803e3d6000fd5b505050506040513d601f19601f820116820180604052508101906130599190615201565b6001600160a01b031663313ce5676040518163ffffffff1660e01b8152600401602060405180830381865afa9250505080156130b2575060408051601f3d908101601f191682019092526130af91810190615345565b60015b6130f9576130f46040518060400160405280601581526020017f4572726f722067657474696e6720646563696d616c0000000000000000000000815250613623565b6130ff565b60ff1690505b600061311961310f83600a61544c565b612a289085614dc0565b607454604051637817ee4f60e01b81526001600160a01b03898116600483015230602483015292935060009290911690637817ee4f90604401602060405180830381865afa15801561316f573d6000803e3d6000fd5b505050506040513d601f19601f820116820180604052508101906131939190614e07565b905060006131a18284614d75565b98975050505050505050565b60008043905080846007015411156131c7576131c7615458565b808460070154036131dd575060009050806131fe565b6131fb8460070154826131f09190614d75565b856003015485610f8b565b91505b9250929050565b6067805460ff19168215159081179091556040519081527fd94c9bc4d43c51d8dc345a016d8e3d994432fac68e72832e4cf3a616bd8efae09060200161247e565b60006001600160a01b0382161561325e576002610cef565b600392915050565b600054610100900460ff166132d15760405162461bcd60e51b815260206004820152602b60248201527f496e697469616c697a61626c653a20636f6e7472616374206973206e6f74206960448201526a6e697469616c697a696e6760a81b6064820152608401610de2565b610e486139d1565b6132e1611f82565b6068541561331b576040517f439a74c900000000000000000000000000000000000000000000000000000000815260040160405180910390fd5b80600003613355576040517f7fcce2a900000000000000000000000000000000000000000000000000000000815260040160405180910390fd5b606855565b61336381613a45565b60745460405163011de97360e61b81526001600160a01b038381166004830152306024830152600092169063477a5cc090604401602060405180830381865afa1580156133b4573d6000803e3d6000fd5b505050506040513d601f19601f820116820180604052508101906133d89190614dea565b905080613411576040517f5fccb67f00000000000000000000000000000000000000000000000000000000815260040160405180910390fd5b600083806020019051810190613427919061546e565b90506134338382613b6b565b61343d8382613d2e565b50505050565b6040518181527f46aeb5d8770fc4474bc2dfa118fd2595f7fb33ce2cbce6f4e5a3dabfe0f763399060200161247e565b7fffffffffffffffffffffffff11111111111111111111111111111111111111126001600160a01b038416016134ad57610d708282614152565b610d7083838361416e565b6001600160a01b03811660009081526077602090815260408083208054825181850281018501909352808352919290919083018282801561351857602002820191906000526020600020905b815481526020019060010190808311613504575b5050505050905060005b8151811015610d7057600082828151811061353f5761353f615519565b602002602001015190506000607560008381526020019081526020016000209050613569826141bd565b156135ce576001600160a01b03851660009081526009820160205260408120805490829055600283018054919283926135a3908490614d75565b9250508190555080606e60008282546135bc9190614d75565b909155506135cc905082826122fd565b505b505080806135db9061521e565b915050613522565b6001600160a01b0381166111a8576040517fe622e04000000000000000000000000000000000000000000000000000000000815260040160405180910390fd5b6111a8816040516024016136379190615006565b60408051601f198184030181529190526020810180517bffffffffffffffffffffffffffffffffffffffffffffffffffffffff167f41304fac000000000000000000000000000000000000000000000000000000001790526141f6565b61131e82826040516024016136aa92919061552f565b60408051601f198184030181529190526020810180517bffffffffffffffffffffffffffffffffffffffffffffffffffffffff167f9710a9d0000000000000000000000000000000000000000000000000000000001790526141f6565b60008160000361371957506000919050565b6000600161372684614217565b901c6001901b9050600181848161373f5761373f614d88565b048201901c9050600181848161375757613757614d88565b048201901c9050600181848161376f5761376f614d88565b048201901c9050600181848161378757613787614d88565b048201901c9050600181848161379f5761379f614d88565b048201901c905060018184816137b7576137b7614d88565b048201901c905060018184816137cf576137cf614d88565b048201901c9050610e66818285816137e9576137e9614d88565b046142ab565b6000600160801b83111561386b5760405162461bcd60e51b815260206004820152602860248201527f5f612073686f756c64206265206c657373207468616e206f7220657175616c2060448201527f746f20325e3132380000000000000000000000000000000000000000000000006064820152608401610de2565b600160801b82106138be5760405162461bcd60e51b815260206004820152601c60248201527f5f622073686f756c64206265206c657373207468616e20325e313238000000006044820152606401610de2565b60806f800000000000000000000000000000006138db8486614dc0565b6138e59190614dd7565b901c9392505050565b6001600160a01b0381163b61396b5760405162461bcd60e51b815260206004820152602d60248201527f455243313936373a206e657720696d706c656d656e746174696f6e206973206e60448201527f6f74206120636f6e7472616374000000000000000000000000000000000000006064820152608401610de2565b7f360894a13ba1a3210667c828492db98dca3e2076cc3735a920a3ca505d382bbc80546001600160a01b0319166001600160a01b0392909216919091179055565b6139b5836142c1565b6000825111806139c25750805b15610d705761343d8383614301565b600054610100900460ff16613a3c5760405162461bcd60e51b815260206004820152602b60248201527f496e697469616c697a61626c653a20636f6e7472616374206973206e6f74206960448201526a6e697469616c697a696e6760a81b6064820152608401610de2565b610e4833612dae565b6001600160a01b038116613a85576040517fd1f2828800000000000000000000000000000000000000000000000000000000815260040160405180910390fd5b6074546001600160a01b0316613aae57604051635df4b1ef60e01b815260040160405180910390fd5b6074546040517fa230c5240000000000000000000000000000000000000000000000000000000081526001600160a01b0383811660048301529091169063a230c52490602401602060405180830381865afa158015613b11573d6000803e3d6000fd5b505050506040513d601f19601f82011682018060405250810190613b359190614dea565b6111a8576040517f6a5cfb6d00000000000000000000000000000000000000000000000000000000815260040160405180910390fd5b6000805b8251811015613c2857828181518110613b8a57613b8a615519565b60200260200101516000015160000315613c16576000838281518110613bb257613bb2615519565b6020026020010151600001519050613bc9816141bd565b613be95760405163c1d17bef60e01b815260048101829052602401610de2565b838281518110613bfb57613bfb615519565b60200260200101516020015183613c129190615551565b9250505b80613c208161521e565b915050613b6f565b506001600160a01b038316600090815260766020526040812054613c4c9083614326565b607454604051637817ee4f60e01b81526001600160a01b03878116600483015230602483015292935060009290911690637817ee4f90604401602060405180830381865afa158015613ca2573d6000803e3d6000fd5b505050506040513d601f19601f82011682018060405250810190613cc69190614e07565b905080821115613d0c576040517fd64182fe0000000000000000000000000000000000000000000000000000000081526004810183905260248101829052604401610de2565b506001600160a01b039093166000908152607660205260409020929092555050565b606060005b825181101561343d576000838281518110613d5057613d50615519565b60200260200101516000015190508251600003613dac5760408051600180825281830190925290602080830190803683370190505092508083600081518110613d9b57613d9b615519565b602002602001018181525050613eff565b6000805b8451811015613e2b5782858281518110613dcc57613dcc615519565b602002602001015103613e19576040517fadebb154000000000000000000000000000000000000000000000000000000008152600481018490526024810182905260019250604401610de2565b80613e238161521e565b915050613db0565b5080613efd57600084516001613e419190614dd7565b67ffffffffffffffff811115613e5957613e5961463d565b604051908082528060200260200182016040528015613e82578160200160208202803683370190505b50905060005b8551811015613eda57858181518110613ea357613ea3615519565b6020026020010151828281518110613ebd57613ebd615519565b602090810291909101015280613ed28161521e565b915050613e88565b508281865181518110613eef57613eef615519565b602090810291909101015293505b505b6000848381518110613f1357613f13615519565b60209081029190910181015181015160008481526075835260408082206001600160a01b038b16835260098101909452812054919350613f538285614326565b6001600160a01b038a1660009081526009850160205260408120829055909150805b6001600160a01b038b16600090815260776020526040902054811015613fec5784546001600160a01b038c166000908152607760205260409020805483908110613fc157613fc1615519565b906000526020600020015403613fda5760019150613fec565b80613fe48161521e565b915050613f75565b5080614022576001600160a01b038a16600090815260776020908152604082208654815460018101835591845291909220909101555b818311614072576140338383614d75565b606e60008282546140449190614dd7565b9091555061405490508383614d75565b8460020160008282546140679190614dd7565b909155506140b69050565b61407c8284614d75565b606e600082825461408d9190614d75565b9091555061409d90508284614d75565b8460020160008282546140b09190614d75565b90915550505b83600701546000036140cd57436007850155614139565b6140d784846122fd565b60028401546003850154604080516001600160a01b038e168152602081018a9052908101859052606081019290925260808201527f0227f642ddcf2042ceaeafadb9d540f432072c00cd4862881667168dcc14710f9060a00160405180910390a15b505050505050808061414a9061521e565b915050613d33565b60008060008084865af161131e5763b12d13eb6000526004601cfd5b81601452806034526fa9059cbb00000000000000000000000060005260206000604460106000875af13d1560016000511417166141b3576390b8ec186000526004601cfd5b6000603452505050565b60008181526075602052604081205415801590610cef5750506000908152607560205260409020600501546001600160a01b0316151590565b80516a636f6e736f6c652e6c6f67602083016000808483855afa5050505050565b600080608083901c1561422c57608092831c92015b604083901c1561423e57604092831c92015b602083901c1561425057602092831c92015b601083901c1561426257601092831c92015b600883901c1561427457600892831c92015b600483901c1561428657600492831c92015b600283901c1561429857600292831c92015b600183901c15610cef5760010192915050565b60008183106142ba5781610e66565b5090919050565b6142ca816138ee565b6040516001600160a01b038216907fbc7cd75a20ee27fd9adebab32041f755214dbc6bffa90cc0225b39da2e5c2d3b90600090a250565b6060610e66838360405180606001604052806027815260200161558e60279139614381565b6000806143338385615551565b90506000811215610e66576040517f3bbc7142000000000000000000000000000000000000000000000000000000008152600481018590526024810184905260448101829052606401610de2565b6060600080856001600160a01b03168560405161439e9190615571565b600060405180830381855af49150503d80600081146143d9576040519150601f19603f3d011682016040523d82523d6000602084013e6143de565b606091505b50915091506143ef868383876143f9565b9695505050505050565b60608315614468578251600003614461576001600160a01b0385163b6144615760405162461bcd60e51b815260206004820152601d60248201527f416464726573733a2063616c6c20746f206e6f6e2d636f6e74726163740000006044820152606401610de2565b5081614472565b614472838361447a565b949350505050565b81511561448a5781518083602001fd5b8060405162461bcd60e51b8152600401610de29190615006565b6000602082840312156144b657600080fd5b5035919050565b634e487b7160e01b600052602160045260246000fd5b600581106144e3576144e36144bd565b9052565b60005b838110156145025781810151838201526020016144ea565b50506000910152565b600081518084526145238160208601602086016144e7565b601f01601f19169290920160200192915050565b805182526000602082015160406020850152614472604085018261450b565b60006101408c83528b60208401528a60408401528960608401526001600160a01b03808a16608085015280891660a085015280881660c0850152508560e08401526145a56101008401866144d3565b806101208401526145b881840185614537565b9d9c50505050505050505050505050565b6000602082840312156145db57600080fd5b81357fffffffff0000000000000000000000000000000000000000000000000000000081168114610e6657600080fd5b6001600160a01b03811681146111a857600080fd5b60006020828403121561463257600080fd5b8135610e668161460b565b634e487b7160e01b600052604160045260246000fd5b6040805190810167ffffffffffffffff811182821017156146765761467661463d565b60405290565b604051610120810167ffffffffffffffff811182821017156146765761467661463d565b60405160c0810167ffffffffffffffff811182821017156146765761467661463d565b60405160a0810167ffffffffffffffff811182821017156146765761467661463d565b604051601f8201601f1916810167ffffffffffffffff8111828210171561470f5761470f61463d565b604052919050565b600067ffffffffffffffff8211156147315761473161463d565b5060051b60200190565b600082601f83011261474c57600080fd5b8135602061476161475c83614717565b6146e6565b82815260059290921b8401810191818101908684111561478057600080fd5b8286015b848110156147a45780356147978161460b565b8352918301918301614784565b509695505050505050565b600067ffffffffffffffff8211156147c9576147c961463d565b50601f01601f191660200190565b60006147e561475c846147af565b90508281528383830111156147f957600080fd5b828260208301376000602084830101529392505050565b600082601f83011261482157600080fd5b610e66838335602085016147d7565b60008060006060848603121561484557600080fd5b833567ffffffffffffffff8082111561485d57600080fd5b6148698783880161473b565b9450602086013591508082111561487f57600080fd5b5061488c86828701614810565b925050604084013561489d8161460b565b809150509250925092565b600080604083850312156148bb57600080fd5b823567ffffffffffffffff8111156148d257600080fd5b6148de85828601614810565b92505060208301356148ef8161460b565b809150509250929050565b600481106144e3576144e36144bd565b60208101610cef82846148fa565b6000806040838503121561492b57600080fd5b82356149368161460b565b946020939093013593505050565b60008060006060848603121561495957600080fd5b505081359360208301359350604090920135919050565b600381106144e3576144e36144bd565b60208101610cef8284614970565b600080604083850312156149a157600080fd5b82356149ac8161460b565b9150602083013567ffffffffffffffff8111156149c857600080fd5b6149d485828601614810565b9150509250929050565b602081526000610e666020830184614537565b60008060408385031215614a0457600080fd5b823567ffffffffffffffff80821115614a1c57600080fd5b614a288683870161473b565b9350602091508185013581811115614a3f57600080fd5b8501601f81018713614a5057600080fd5b8035614a5e61475c82614717565b81815260059190911b82018401908481019089831115614a7d57600080fd5b8584015b83811015614ab557803586811115614a995760008081fd5b614aa78c8983890101614810565b845250918601918601614a81565b508096505050505050509250929050565b602080825282518282018190526000919060409081850190868401855b82811015614b1957614b0984835180516001600160a01b03168252602090810151910152565b9284019290850190600101614ae3565b5091979650505050505050565b80151581146111a857600080fd5b600060208284031215614b4657600080fd5b8135610e6681614b26565b6001600160a01b038b811682528a811660208301528916604082015260608101889052608081018790526101408101614b8d60a08301886144d3565b8560c08301528460e083015283610100830152826101208301529b9a5050505050505050505050565b60008060408385031215614bc957600080fd5b8235915060208301356148ef8161460b565b60006020808385031215614bee57600080fd5b823567ffffffffffffffff811115614c0557600080fd5b8301601f81018513614c1657600080fd5b8035614c2461475c82614717565b81815260069190911b82018301908381019087831115614c4357600080fd5b928401925b82841015612ab15760408489031215614c615760008081fd5b614c69614653565b843581528585013586820152825260409093019290840190614c48565b6020810160078310614c9a57614c9a6144bd565b91905290565b60008060408385031215614cb357600080fd5b82359150602083013567ffffffffffffffff8111156149c857600080fd5b60008060408385031215614ce457600080fd5b8235614cef8161460b565b9150602083013567ffffffffffffffff811115614d0b57600080fd5b8301601f81018513614d1c57600080fd5b6149d4858235602084016147d7565b600181811c90821680614d3f57607f821691505b60208210810361151e57634e487b7160e01b600052602260045260246000fd5b634e487b7160e01b600052601160045260246000fd5b81810381811115610cef57610cef614d5f565b634e487b7160e01b600052601260045260246000fd5b600082614dbb57634e487b7160e01b600052601260045260246000fd5b500490565b8082028115828204841417610cef57610cef614d5f565b80820180821115610cef57610cef614d5f565b600060208284031215614dfc57600080fd5b8151610e6681614b26565b600060208284031215614e1957600080fd5b5051919050565b8051614e2b8161460b565b919050565b805160038110614e2b57600080fd5b805160048110614e2b57600080fd5b600060208284031215614e6057600080fd5b6040516020810181811067ffffffffffffffff82111715614e8357614e8361463d565b6040529151825250919050565b600060408284031215614ea257600080fd5b614eaa614653565b90508151614eb78161460b565b808252506020820151602082015292915050565b60006101408284031215614ede57600080fd5b614ee661467c565b614eef83614e20565b815260208301516020820152604083015160408201526060830151606082015260808301516080820152614f2560a08401614e30565b60a0820152614f3660c08401614e3f565b60c0820152614f488460e08501614e4e565b60e0820152610100614f5c85828601614e90565b908201529392505050565b6000610160820190508382526001600160a01b038351166020830152602083015160408301526040830151606083015260608301516080830152608083015160a083015260a0830151614fbd60c0840182614970565b5060c0830151614fd060e08401826148fa565b5060e083015151610100838101919091529092015180516001600160a01b03166101208301526020015161014090910152919050565b602081526000610e66602083018461450b565b60006040828403121561502b57600080fd5b615033614653565b905081518152602082015167ffffffffffffffff81111561505357600080fd5b8201601f8101841361506457600080fd5b805161507261475c826147af565b81815285602083850101111561508757600080fd5b6150988260208301602086016144e7565b602084015250909392505050565b6000602082840312156150b857600080fd5b815167ffffffffffffffff808211156150d057600080fd5b9083019060c082860312156150e457600080fd5b6150ec6146a0565b8251815260208301516150fe8161460b565b602082015260408301516151118161460b565b604082015260608301518281111561512857600080fd5b61513487828601615019565b6060830152506080830151608082015260a083015160a082015280935050505092915050565b60006020828403121561516c57600080fd5b815167ffffffffffffffff8082111561518457600080fd5b9083019060a0828603121561519857600080fd5b6151a06146c3565b8251815260208301516151b28161460b565b60208201526040838101519082015260608301516151cf8161460b565b60608201526080830151828111156151e657600080fd5b6151f287828601615019565b60808301525095945050505050565b60006020828403121561521357600080fd5b8151610e668161460b565b60006001820161523057615230614d5f565b5060010190565b601f821115610d7057600081815260208120601f850160051c8101602086101561525e5750805b601f850160051c820191505b8181101561527d5782815560010161526a565b505050505050565b815167ffffffffffffffff81111561529f5761529f61463d565b6152b3816152ad8454614d2b565b84615237565b602080601f8311600181146152e857600084156152d05750858301515b600019600386901b1c1916600185901b17855561527d565b600085815260208120601f198616915b82811015615317578886015182559484019460019091019084016152f8565b50858210156153355787850151600019600388901b60f8161c191681555b5050505050600190811b01905550565b60006020828403121561535757600080fd5b815160ff81168114610e6657600080fd5b600181815b808511156153a357816000190482111561538957615389614d5f565b8085161561539657918102915b93841c939080029061536d565b509250929050565b6000826153ba57506001610cef565b816153c757506000610cef565b81600181146153dd57600281146153e757615403565b6001915050610cef565b60ff8411156153f8576153f8614d5f565b50506001821b610cef565b5060208310610133831016604e8410600b8410161715615426575081810a610cef565b6154308383615368565b806000190482111561544457615444614d5f565b029392505050565b6000610e6683836153ab565b634e487b7160e01b600052600160045260246000fd5b6000602080838503121561548157600080fd5b825167ffffffffffffffff81111561549857600080fd5b8301601f810185136154a957600080fd5b80516154b761475c82614717565b81815260069190911b820183019083810190878311156154d657600080fd5b928401925b82841015612ab157604084890312156154f45760008081fd5b6154fc614653565b8451815285850151868201528252604090930192908401906154db565b634e487b7160e01b600052603260045260246000fd5b604081526000615542604083018561450b565b90508260208301529392505050565b8082018281126000831280158216821582161715612b5d57612b5d614d5f565b600082516155838184602087016144e7565b919091019291505056fe416464726573733a206c6f772d6c6576656c2064656c65676174652063616c6c206661696c6564a264697066735822122008cbc542371bbcdd97d2b396fd30fb2937781bc05558b9d029d047c1c3e4a91b64736f6c63430008130033","linkReferences":{}},"methodIdentifiers":{"D()":"0f529ba2","MAX_STAKED_PROPOSALS()":"406244d8","NATIVE()":"a0cf0aea","_minThresholdPoints()":"7c6570ba","activatePoints()":"814516ad","allocate(bytes,address)":"ef2920fc","calculateConviction(uint256,uint256,uint256)":"346db8cb","calculateThreshold(uint256)":"59a5db8b","canExecuteProposal(uint256)":"824ea8ed","deactivatePoints()":"1ddf1e23","deactivatePoints(address)":"6453d9c4","decay()":"54fac919","decreasePower(address,uint256)":"2ed04b2b","distribute(address[],bytes,address)":"0a6f0ee9","getAllo()":"15cc481e","getMaxAmount()":"0ba95909","getMaxConviction(uint256)":"950559d7","getMetadata(uint256)":"a574cea4","getPayouts(address[],bytes[])":"b2b878d0","getPointSystem()":"c3292171","getPoolAmount()":"4ab4ba42","getPoolId()":"38fff2d0","getProposal(uint256)":"c7f758a8","getProposalStakedAmount(uint256)":"dc96ff2d","getProposalVoterStake(uint256,address)":"e0dd2c38","getRecipientStatus(address)":"eb11af93","getStrategyId()":"42fda9c7","getTotalVoterStakePct(address)":"bcc5b93b","increasePoolAmount(uint256)":"f5b0dfb7","increasePower(address,uint256)":"782aadff","initialize(address,string)":"f399e22e","initialize(uint256,bytes)":"edd146cc","isPoolActive()":"df868ed3","isValidAllocator(address)":"4d31d087","maxRatio()":"76365af7","owner()":"8da5cb5b","pointConfig()":"a47ff7e5","pointSystem()":"2dbd6fdd","proposalCounter()":"0c0512e9","proposalType()":"351d9f96","proposals(uint256)":"013cf08b","proxiableUUID()":"52d1902d","registerRecipient(bytes,address)":"2bbe0cae","registryCommunity()":"6003e414","renounceOwnership()":"715018a6","setDecay(uint256)":"69fa25c4","setMaxRatio(uint256)":"11f22ae3","setMinThresholdPoints(uint256)":"2cefadbb","setPoolActive(bool)":"b5f620ce","setRegistryCommunity(address)":"058aca44","setWeight(uint256)":"fc1711f2","supportProposal((uint256,int256)[])":"e33add93","supportsInterface(bytes4)":"01ffc9a7","totalEffectiveActivePoints()":"d1e36232","totalPointsActivated()":"aba9ffee","totalStaked()":"817b1cd2","totalVoterStakePct(address)":"5db64b99","transferOwnership(address)":"f2fde38b","updateProposalConviction(uint256)":"1aa91a9e","upgradeTo(address)":"3659cfe6","upgradeToAndCall(address,bytes)":"4f1ef286","voterStakedProposals(address,uint256)":"868c57b8","weight()":"a1aab33f"},"storageLayout":{"storage":[{"astId":4551,"contract":"pkg/contracts/src/CVStrategyV0_0.sol:CVStrategyV0_0","label":"_initialized","offset":0,"slot":"0","type":"t_uint8"},{"astId":4554,"contract":"pkg/contracts/src/CVStrategyV0_0.sol:CVStrategyV0_0","label":"_initializing","offset":1,"slot":"0","type":"t_bool"},{"astId":5246,"contract":"pkg/contracts/src/CVStrategyV0_0.sol:CVStrategyV0_0","label":"__gap","offset":0,"slot":"1","type":"t_array(t_uint256)50_storage"},{"astId":4343,"contract":"pkg/contracts/src/CVStrategyV0_0.sol:CVStrategyV0_0","label":"_owner","offset":0,"slot":"51","type":"t_address"},{"astId":4463,"contract":"pkg/contracts/src/CVStrategyV0_0.sol:CVStrategyV0_0","label":"__gap","offset":0,"slot":"52","type":"t_array(t_uint256)49_storage"},{"astId":74253,"contract":"pkg/contracts/src/CVStrategyV0_0.sol:CVStrategyV0_0","label":"allo","offset":0,"slot":"101","type":"t_contract(IAllo)2610"},{"astId":74255,"contract":"pkg/contracts/src/CVStrategyV0_0.sol:CVStrategyV0_0","label":"strategyId","offset":0,"slot":"102","type":"t_bytes32"},{"astId":74257,"contract":"pkg/contracts/src/CVStrategyV0_0.sol:CVStrategyV0_0","label":"poolActive","offset":0,"slot":"103","type":"t_bool"},{"astId":74259,"contract":"pkg/contracts/src/CVStrategyV0_0.sol:CVStrategyV0_0","label":"poolId","offset":0,"slot":"104","type":"t_uint256"},{"astId":74261,"contract":"pkg/contracts/src/CVStrategyV0_0.sol:CVStrategyV0_0","label":"poolAmount","offset":0,"slot":"105","type":"t_uint256"},{"astId":78093,"contract":"pkg/contracts/src/CVStrategyV0_0.sol:CVStrategyV0_0","label":"decay","offset":0,"slot":"106","type":"t_uint256"},{"astId":78095,"contract":"pkg/contracts/src/CVStrategyV0_0.sol:CVStrategyV0_0","label":"maxRatio","offset":0,"slot":"107","type":"t_uint256"},{"astId":78097,"contract":"pkg/contracts/src/CVStrategyV0_0.sol:CVStrategyV0_0","label":"weight","offset":0,"slot":"108","type":"t_uint256"},{"astId":78100,"contract":"pkg/contracts/src/CVStrategyV0_0.sol:CVStrategyV0_0","label":"proposalCounter","offset":0,"slot":"109","type":"t_uint256"},{"astId":78102,"contract":"pkg/contracts/src/CVStrategyV0_0.sol:CVStrategyV0_0","label":"totalStaked","offset":0,"slot":"110","type":"t_uint256"},{"astId":78104,"contract":"pkg/contracts/src/CVStrategyV0_0.sol:CVStrategyV0_0","label":"totalPointsActivated","offset":0,"slot":"111","type":"t_uint256"},{"astId":78107,"contract":"pkg/contracts/src/CVStrategyV0_0.sol:CVStrategyV0_0","label":"_minThresholdPoints","offset":0,"slot":"112","type":"t_uint256"},{"astId":78109,"contract":"pkg/contracts/src/CVStrategyV0_0.sol:CVStrategyV0_0","label":"surpressStateMutabilityWarning","offset":0,"slot":"113","type":"t_uint256"},{"astId":78112,"contract":"pkg/contracts/src/CVStrategyV0_0.sol:CVStrategyV0_0","label":"proposalType","offset":0,"slot":"114","type":"t_enum(ProposalType)77829"},{"astId":78115,"contract":"pkg/contracts/src/CVStrategyV0_0.sol:CVStrategyV0_0","label":"pointSystem","offset":1,"slot":"114","type":"t_enum(PointSystem)77834"},{"astId":78118,"contract":"pkg/contracts/src/CVStrategyV0_0.sol:CVStrategyV0_0","label":"pointConfig","offset":0,"slot":"115","type":"t_struct(PointSystemConfig)77887_storage"},{"astId":78121,"contract":"pkg/contracts/src/CVStrategyV0_0.sol:CVStrategyV0_0","label":"registryCommunity","offset":0,"slot":"116","type":"t_contract(RegistryCommunity)83059"},{"astId":78126,"contract":"pkg/contracts/src/CVStrategyV0_0.sol:CVStrategyV0_0","label":"proposals","offset":0,"slot":"117","type":"t_mapping(t_uint256,t_struct(Proposal)77879_storage)"},{"astId":78130,"contract":"pkg/contracts/src/CVStrategyV0_0.sol:CVStrategyV0_0","label":"totalVoterStakePct","offset":0,"slot":"118","type":"t_mapping(t_address,t_uint256)"},{"astId":78135,"contract":"pkg/contracts/src/CVStrategyV0_0.sol:CVStrategyV0_0","label":"voterStakedProposals","offset":0,"slot":"119","type":"t_mapping(t_address,t_array(t_uint256)dyn_storage)"},{"astId":80602,"contract":"pkg/contracts/src/CVStrategyV0_0.sol:CVStrategyV0_0","label":"__gap","offset":0,"slot":"120","type":"t_array(t_uint256)50_storage"}],"types":{"t_address":{"encoding":"inplace","label":"address","numberOfBytes":"20"},"t_array(t_uint256)49_storage":{"encoding":"inplace","label":"uint256[49]","numberOfBytes":"1568","base":"t_uint256"},"t_array(t_uint256)50_storage":{"encoding":"inplace","label":"uint256[50]","numberOfBytes":"1600","base":"t_uint256"},"t_array(t_uint256)dyn_storage":{"encoding":"dynamic_array","label":"uint256[]","numberOfBytes":"32","base":"t_uint256"},"t_bool":{"encoding":"inplace","label":"bool","numberOfBytes":"1"},"t_bytes32":{"encoding":"inplace","label":"bytes32","numberOfBytes":"32"},"t_contract(IAllo)2610":{"encoding":"inplace","label":"contract IAllo","numberOfBytes":"20"},"t_contract(RegistryCommunity)83059":{"encoding":"inplace","label":"contract RegistryCommunity","numberOfBytes":"20"},"t_enum(PointSystem)77834":{"encoding":"inplace","label":"enum StrategyStruct.PointSystem","numberOfBytes":"1"},"t_enum(ProposalStatus)77852":{"encoding":"inplace","label":"enum StrategyStruct.ProposalStatus","numberOfBytes":"1"},"t_enum(ProposalType)77829":{"encoding":"inplace","label":"enum StrategyStruct.ProposalType","numberOfBytes":"1"},"t_mapping(t_address,t_array(t_uint256)dyn_storage)":{"encoding":"mapping","key":"t_address","label":"mapping(address => uint256[])","numberOfBytes":"32","value":"t_array(t_uint256)dyn_storage"},"t_mapping(t_address,t_uint256)":{"encoding":"mapping","key":"t_address","label":"mapping(address => uint256)","numberOfBytes":"32","value":"t_uint256"},"t_mapping(t_uint256,t_struct(Proposal)77879_storage)":{"encoding":"mapping","key":"t_uint256","label":"mapping(uint256 => struct StrategyStruct.Proposal)","numberOfBytes":"32","value":"t_struct(Proposal)77879_storage"},"t_string_storage":{"encoding":"bytes","label":"string","numberOfBytes":"32"},"t_struct(Metadata)3098_storage":{"encoding":"inplace","label":"struct Metadata","numberOfBytes":"64","members":[{"astId":3094,"contract":"pkg/contracts/src/CVStrategyV0_0.sol:CVStrategyV0_0","label":"protocol","offset":0,"slot":"0","type":"t_uint256"},{"astId":3097,"contract":"pkg/contracts/src/CVStrategyV0_0.sol:CVStrategyV0_0","label":"pointer","offset":0,"slot":"1","type":"t_string_storage"}]},"t_struct(PointSystemConfig)77887_storage":{"encoding":"inplace","label":"struct StrategyStruct.PointSystemConfig","numberOfBytes":"32","members":[{"astId":77886,"contract":"pkg/contracts/src/CVStrategyV0_0.sol:CVStrategyV0_0","label":"maxAmount","offset":0,"slot":"0","type":"t_uint256"}]},"t_struct(Proposal)77879_storage":{"encoding":"inplace","label":"struct StrategyStruct.Proposal","numberOfBytes":"384","members":[{"astId":77854,"contract":"pkg/contracts/src/CVStrategyV0_0.sol:CVStrategyV0_0","label":"proposalId","offset":0,"slot":"0","type":"t_uint256"},{"astId":77856,"contract":"pkg/contracts/src/CVStrategyV0_0.sol:CVStrategyV0_0","label":"requestedAmount","offset":0,"slot":"1","type":"t_uint256"},{"astId":77858,"contract":"pkg/contracts/src/CVStrategyV0_0.sol:CVStrategyV0_0","label":"stakedAmount","offset":0,"slot":"2","type":"t_uint256"},{"astId":77860,"contract":"pkg/contracts/src/CVStrategyV0_0.sol:CVStrategyV0_0","label":"convictionLast","offset":0,"slot":"3","type":"t_uint256"},{"astId":77862,"contract":"pkg/contracts/src/CVStrategyV0_0.sol:CVStrategyV0_0","label":"beneficiary","offset":0,"slot":"4","type":"t_address"},{"astId":77864,"contract":"pkg/contracts/src/CVStrategyV0_0.sol:CVStrategyV0_0","label":"submitter","offset":0,"slot":"5","type":"t_address"},{"astId":77866,"contract":"pkg/contracts/src/CVStrategyV0_0.sol:CVStrategyV0_0","label":"requestedToken","offset":0,"slot":"6","type":"t_address"},{"astId":77868,"contract":"pkg/contracts/src/CVStrategyV0_0.sol:CVStrategyV0_0","label":"blockLast","offset":0,"slot":"7","type":"t_uint256"},{"astId":77871,"contract":"pkg/contracts/src/CVStrategyV0_0.sol:CVStrategyV0_0","label":"proposalStatus","offset":0,"slot":"8","type":"t_enum(ProposalStatus)77852"},{"astId":77875,"contract":"pkg/contracts/src/CVStrategyV0_0.sol:CVStrategyV0_0","label":"voterStakedPoints","offset":0,"slot":"9","type":"t_mapping(t_address,t_uint256)"},{"astId":77878,"contract":"pkg/contracts/src/CVStrategyV0_0.sol:CVStrategyV0_0","label":"metadata","offset":0,"slot":"10","type":"t_struct(Metadata)3098_storage"}]},"t_uint256":{"encoding":"inplace","label":"uint256","numberOfBytes":"32"},"t_uint8":{"encoding":"inplace","label":"uint8","numberOfBytes":"1"}}},"id":134}