{"abi":[{"type":"fallback","stateMutability":"payable"},{"type":"receive","stateMutability":"payable"},{"type":"function","name":"D","inputs":[],"outputs":[{"name":"","type":"uint256","internalType":"uint256"}],"stateMutability":"view"},{"type":"function","name":"DISPUTE_COOLDOWN_SEC","inputs":[],"outputs":[{"name":"","type":"uint256","internalType":"uint256"}],"stateMutability":"view"},{"type":"function","name":"MAX_STAKED_PROPOSALS","inputs":[],"outputs":[{"name":"","type":"uint256","internalType":"uint256"}],"stateMutability":"view"},{"type":"function","name":"NATIVE","inputs":[],"outputs":[{"name":"","type":"address","internalType":"address"}],"stateMutability":"view"},{"type":"function","name":"RULING_OPTIONS","inputs":[],"outputs":[{"name":"","type":"uint256","internalType":"uint256"}],"stateMutability":"view"},{"type":"function","name":"VERSION","inputs":[],"outputs":[{"name":"","type":"string","internalType":"string"}],"stateMutability":"view"},{"type":"function","name":"activatePoints","inputs":[],"outputs":[],"stateMutability":"nonpayable"},{"type":"function","name":"addToAllowList","inputs":[{"name":"members","type":"address[]","internalType":"address[]"}],"outputs":[],"stateMutability":"nonpayable"},{"type":"function","name":"allocate","inputs":[{"name":"_data","type":"bytes","internalType":"bytes"},{"name":"_sender","type":"address","internalType":"address"}],"outputs":[],"stateMutability":"payable"},{"type":"function","name":"arbitrableConfigs","inputs":[{"name":"","type":"uint256","internalType":"uint256"}],"outputs":[{"name":"arbitrator","type":"address","internalType":"contract IArbitrator"},{"name":"tribunalSafe","type":"address","internalType":"address"},{"name":"submitterCollateralAmount","type":"uint256","internalType":"uint256"},{"name":"challengerCollateralAmount","type":"uint256","internalType":"uint256"},{"name":"defaultRuling","type":"uint256","internalType":"uint256"},{"name":"defaultRulingTimeout","type":"uint256","internalType":"uint256"}],"stateMutability":"view"},{"type":"function","name":"calculateConviction","inputs":[{"name":"_timePassed","type":"uint256","internalType":"uint256"},{"name":"_lastConv","type":"uint256","internalType":"uint256"},{"name":"_oldAmount","type":"uint256","internalType":"uint256"}],"outputs":[{"name":"","type":"uint256","internalType":"uint256"}],"stateMutability":"view"},{"type":"function","name":"calculateThreshold","inputs":[{"name":"_requestedAmount","type":"uint256","internalType":"uint256"}],"outputs":[{"name":"_threshold","type":"uint256","internalType":"uint256"}],"stateMutability":"view"},{"type":"function","name":"canExecuteProposal","inputs":[{"name":"proposalId","type":"uint256","internalType":"uint256"}],"outputs":[{"name":"canBeExecuted","type":"bool","internalType":"bool"}],"stateMutability":"view"},{"type":"function","name":"cancelProposal","inputs":[{"name":"proposalId","type":"uint256","internalType":"uint256"}],"outputs":[],"stateMutability":"nonpayable"},{"type":"function","name":"cloneNonce","inputs":[],"outputs":[{"name":"","type":"uint256","internalType":"uint256"}],"stateMutability":"view"},{"type":"function","name":"collateralVault","inputs":[],"outputs":[{"name":"","type":"address","internalType":"contract ICollateralVault"}],"stateMutability":"view"},{"type":"function","name":"currentArbitrableConfigVersion","inputs":[],"outputs":[{"name":"","type":"uint256","internalType":"uint256"}],"stateMutability":"view"},{"type":"function","name":"cvParams","inputs":[],"outputs":[{"name":"maxRatio","type":"uint256","internalType":"uint256"},{"name":"weight","type":"uint256","internalType":"uint256"},{"name":"decay","type":"uint256","internalType":"uint256"},{"name":"minThresholdPoints","type":"uint256","internalType":"uint256"}],"stateMutability":"view"},{"type":"function","name":"deactivatePoints","inputs":[],"outputs":[],"stateMutability":"nonpayable"},{"type":"function","name":"deactivatePoints","inputs":[{"name":"_member","type":"address","internalType":"address"}],"outputs":[],"stateMutability":"nonpayable"},{"type":"function","name":"decreasePower","inputs":[{"name":"_member","type":"address","internalType":"address"},{"name":"_amountToUnstake","type":"uint256","internalType":"uint256"}],"outputs":[{"name":"","type":"uint256","internalType":"uint256"}],"stateMutability":"nonpayable"},{"type":"function","name":"disputeCount","inputs":[],"outputs":[{"name":"","type":"uint64","internalType":"uint64"}],"stateMutability":"view"},{"type":"function","name":"disputeIdToProposalId","inputs":[{"name":"","type":"uint256","internalType":"uint256"}],"outputs":[{"name":"","type":"uint256","internalType":"uint256"}],"stateMutability":"view"},{"type":"function","name":"disputeProposal","inputs":[{"name":"proposalId","type":"uint256","internalType":"uint256"},{"name":"context","type":"string","internalType":"string"},{"name":"_extraData","type":"bytes","internalType":"bytes"}],"outputs":[{"name":"disputeId","type":"uint256","internalType":"uint256"}],"stateMutability":"payable"},{"type":"function","name":"distribute","inputs":[{"name":"_recipientIds","type":"address[]","internalType":"address[]"},{"name":"_data","type":"bytes","internalType":"bytes"},{"name":"_sender","type":"address","internalType":"address"}],"outputs":[],"stateMutability":"nonpayable"},{"type":"function","name":"getAllo","inputs":[],"outputs":[{"name":"","type":"address","internalType":"contract IAllo"}],"stateMutability":"view"},{"type":"function","name":"getArbitrableConfig","inputs":[],"outputs":[{"name":"arbitrator","type":"address","internalType":"contract IArbitrator"},{"name":"tribunalSafe","type":"address","internalType":"address"},{"name":"submitterCollateralAmount","type":"uint256","internalType":"uint256"},{"name":"challengerCollateralAmount","type":"uint256","internalType":"uint256"},{"name":"defaultRuling","type":"uint256","internalType":"uint256"},{"name":"defaultRulingTimeout","type":"uint256","internalType":"uint256"}],"stateMutability":"view"},{"type":"function","name":"getMaxAmount","inputs":[],"outputs":[{"name":"","type":"uint256","internalType":"uint256"}],"stateMutability":"view"},{"type":"function","name":"getMaxConviction","inputs":[{"name":"amount","type":"uint256","internalType":"uint256"}],"outputs":[{"name":"","type":"uint256","internalType":"uint256"}],"stateMutability":"view"},{"type":"function","name":"getMetadata","inputs":[{"name":"_proposalId","type":"uint256","internalType":"uint256"}],"outputs":[{"name":"","type":"tuple","internalType":"struct Metadata","components":[{"name":"protocol","type":"uint256","internalType":"uint256"},{"name":"pointer","type":"string","internalType":"string"}]}],"stateMutability":"view"},{"type":"function","name":"getPayouts","inputs":[{"name":"","type":"address[]","internalType":"address[]"},{"name":"","type":"bytes[]","internalType":"bytes[]"}],"outputs":[{"name":"","type":"tuple[]","internalType":"struct IStrategy.PayoutSummary[]","components":[{"name":"recipientAddress","type":"address","internalType":"address"},{"name":"amount","type":"uint256","internalType":"uint256"}]}],"stateMutability":"pure"},{"type":"function","name":"getPointSystem","inputs":[],"outputs":[{"name":"","type":"uint8","internalType":"enum PointSystem"}],"stateMutability":"view"},{"type":"function","name":"getPoolAmount","inputs":[],"outputs":[{"name":"","type":"uint256","internalType":"uint256"}],"stateMutability":"view"},{"type":"function","name":"getPoolId","inputs":[],"outputs":[{"name":"","type":"uint256","internalType":"uint256"}],"stateMutability":"view"},{"type":"function","name":"getProposal","inputs":[{"name":"_proposalId","type":"uint256","internalType":"uint256"}],"outputs":[{"name":"submitter","type":"address","internalType":"address"},{"name":"beneficiary","type":"address","internalType":"address"},{"name":"requestedToken","type":"address","internalType":"address"},{"name":"requestedAmount","type":"uint256","internalType":"uint256"},{"name":"stakedAmount","type":"uint256","internalType":"uint256"},{"name":"proposalStatus","type":"uint8","internalType":"enum ProposalStatus"},{"name":"blockLast","type":"uint256","internalType":"uint256"},{"name":"convictionLast","type":"uint256","internalType":"uint256"},{"name":"threshold","type":"uint256","internalType":"uint256"},{"name":"voterStakedPoints","type":"uint256","internalType":"uint256"},{"name":"arbitrableConfigVersion","type":"uint256","internalType":"uint256"}],"stateMutability":"view"},{"type":"function","name":"getProposalStakedAmount","inputs":[{"name":"_proposalId","type":"uint256","internalType":"uint256"}],"outputs":[{"name":"","type":"uint256","internalType":"uint256"}],"stateMutability":"view"},{"type":"function","name":"getProposalVoterStake","inputs":[{"name":"_proposalId","type":"uint256","internalType":"uint256"},{"name":"_voter","type":"address","internalType":"address"}],"outputs":[{"name":"","type":"uint256","internalType":"uint256"}],"stateMutability":"view"},{"type":"function","name":"getRecipientStatus","inputs":[{"name":"_recipientId","type":"address","internalType":"address"}],"outputs":[{"name":"","type":"uint8","internalType":"enum IStrategy.Status"}],"stateMutability":"view"},{"type":"function","name":"getStrategyId","inputs":[],"outputs":[{"name":"","type":"bytes32","internalType":"bytes32"}],"stateMutability":"view"},{"type":"function","name":"getTotalVoterStakePct","inputs":[{"name":"_voter","type":"address","internalType":"address"}],"outputs":[{"name":"","type":"uint256","internalType":"uint256"}],"stateMutability":"view"},{"type":"function","name":"increasePoolAmount","inputs":[{"name":"_amount","type":"uint256","internalType":"uint256"}],"outputs":[],"stateMutability":"nonpayable"},{"type":"function","name":"increasePower","inputs":[{"name":"_member","type":"address","internalType":"address"},{"name":"_amountToStake","type":"uint256","internalType":"uint256"}],"outputs":[{"name":"","type":"uint256","internalType":"uint256"}],"stateMutability":"nonpayable"},{"type":"function","name":"init","inputs":[{"name":"_allo","type":"address","internalType":"address"},{"name":"_collateralVaultTemplate","type":"address","internalType":"address"},{"name":"owner","type":"address","internalType":"address"}],"outputs":[],"stateMutability":"nonpayable"},{"type":"function","name":"init","inputs":[{"name":"_allo","type":"address","internalType":"address"},{"name":"_name","type":"string","internalType":"string"},{"name":"owner","type":"address","internalType":"address"}],"outputs":[],"stateMutability":"nonpayable"},{"type":"function","name":"initialize","inputs":[{"name":"initialOwner","type":"address","internalType":"address"}],"outputs":[],"stateMutability":"nonpayable"},{"type":"function","name":"initialize","inputs":[{"name":"_poolId","type":"uint256","internalType":"uint256"},{"name":"_data","type":"bytes","internalType":"bytes"}],"outputs":[],"stateMutability":"nonpayable"},{"type":"function","name":"isPoolActive","inputs":[],"outputs":[{"name":"","type":"bool","internalType":"bool"}],"stateMutability":"view"},{"type":"function","name":"isValidAllocator","inputs":[{"name":"_allocator","type":"address","internalType":"address"}],"outputs":[{"name":"","type":"bool","internalType":"bool"}],"stateMutability":"view"},{"type":"function","name":"owner","inputs":[],"outputs":[{"name":"","type":"address","internalType":"address"}],"stateMutability":"view"},{"type":"function","name":"pointConfig","inputs":[],"outputs":[{"name":"maxAmount","type":"uint256","internalType":"uint256"}],"stateMutability":"view"},{"type":"function","name":"pointSystem","inputs":[],"outputs":[{"name":"","type":"uint8","internalType":"enum PointSystem"}],"stateMutability":"view"},{"type":"function","name":"proposalCounter","inputs":[],"outputs":[{"name":"","type":"uint256","internalType":"uint256"}],"stateMutability":"view"},{"type":"function","name":"proposalType","inputs":[],"outputs":[{"name":"","type":"uint8","internalType":"enum ProposalType"}],"stateMutability":"view"},{"type":"function","name":"proposals","inputs":[{"name":"","type":"uint256","internalType":"uint256"}],"outputs":[{"name":"proposalId","type":"uint256","internalType":"uint256"},{"name":"requestedAmount","type":"uint256","internalType":"uint256"},{"name":"stakedAmount","type":"uint256","internalType":"uint256"},{"name":"convictionLast","type":"uint256","internalType":"uint256"},{"name":"beneficiary","type":"address","internalType":"address"},{"name":"submitter","type":"address","internalType":"address"},{"name":"requestedToken","type":"address","internalType":"address"},{"name":"blockLast","type":"uint256","internalType":"uint256"},{"name":"proposalStatus","type":"uint8","internalType":"enum ProposalStatus"},{"name":"metadata","type":"tuple","internalType":"struct Metadata","components":[{"name":"protocol","type":"uint256","internalType":"uint256"},{"name":"pointer","type":"string","internalType":"string"}]},{"name":"disputeInfo","type":"tuple","internalType":"struct ProposalDisputeInfo","components":[{"name":"disputeId","type":"uint256","internalType":"uint256"},{"name":"disputeTimestamp","type":"uint256","internalType":"uint256"},{"name":"challenger","type":"address","internalType":"address"}]},{"name":"lastDisputeCompletion","type":"uint256","internalType":"uint256"},{"name":"arbitrableConfigVersion","type":"uint256","internalType":"uint256"}],"stateMutability":"view"},{"type":"function","name":"proxiableUUID","inputs":[],"outputs":[{"name":"","type":"bytes32","internalType":"bytes32"}],"stateMutability":"view"},{"type":"function","name":"registerRecipient","inputs":[{"name":"_data","type":"bytes","internalType":"bytes"},{"name":"_sender","type":"address","internalType":"address"}],"outputs":[{"name":"recipientId","type":"address","internalType":"address"}],"stateMutability":"payable"},{"type":"function","name":"registryCommunity","inputs":[],"outputs":[{"name":"","type":"address","internalType":"contract RegistryCommunityV0_0"}],"stateMutability":"view"},{"type":"function","name":"removeFromAllowList","inputs":[{"name":"members","type":"address[]","internalType":"address[]"}],"outputs":[],"stateMutability":"nonpayable"},{"type":"function","name":"renounceOwnership","inputs":[],"outputs":[],"stateMutability":"nonpayable"},{"type":"function","name":"rule","inputs":[{"name":"_disputeID","type":"uint256","internalType":"uint256"},{"name":"_ruling","type":"uint256","internalType":"uint256"}],"outputs":[],"stateMutability":"nonpayable"},{"type":"function","name":"setCollateralVaultTemplate","inputs":[{"name":"template","type":"address","internalType":"address"}],"outputs":[],"stateMutability":"nonpayable"},{"type":"function","name":"setPoolActive","inputs":[{"name":"_active","type":"bool","internalType":"bool"}],"outputs":[],"stateMutability":"nonpayable"},{"type":"function","name":"setPoolParams","inputs":[{"name":"_arbitrableConfig","type":"tuple","internalType":"struct ArbitrableConfig","components":[{"name":"arbitrator","type":"address","internalType":"contract IArbitrator"},{"name":"tribunalSafe","type":"address","internalType":"address"},{"name":"submitterCollateralAmount","type":"uint256","internalType":"uint256"},{"name":"challengerCollateralAmount","type":"uint256","internalType":"uint256"},{"name":"defaultRuling","type":"uint256","internalType":"uint256"},{"name":"defaultRulingTimeout","type":"uint256","internalType":"uint256"}]},{"name":"_cvParams","type":"tuple","internalType":"struct CVParams","components":[{"name":"maxRatio","type":"uint256","internalType":"uint256"},{"name":"weight","type":"uint256","internalType":"uint256"},{"name":"decay","type":"uint256","internalType":"uint256"},{"name":"minThresholdPoints","type":"uint256","internalType":"uint256"}]},{"name":"membersToAdd","type":"address[]","internalType":"address[]"},{"name":"membersToRemove","type":"address[]","internalType":"address[]"}],"outputs":[],"stateMutability":"nonpayable"},{"type":"function","name":"setPoolParams","inputs":[{"name":"_arbitrableConfig","type":"tuple","internalType":"struct ArbitrableConfig","components":[{"name":"arbitrator","type":"address","internalType":"contract IArbitrator"},{"name":"tribunalSafe","type":"address","internalType":"address"},{"name":"submitterCollateralAmount","type":"uint256","internalType":"uint256"},{"name":"challengerCollateralAmount","type":"uint256","internalType":"uint256"},{"name":"defaultRuling","type":"uint256","internalType":"uint256"},{"name":"defaultRulingTimeout","type":"uint256","internalType":"uint256"}]},{"name":"_cvParams","type":"tuple","internalType":"struct CVParams","components":[{"name":"maxRatio","type":"uint256","internalType":"uint256"},{"name":"weight","type":"uint256","internalType":"uint256"},{"name":"decay","type":"uint256","internalType":"uint256"},{"name":"minThresholdPoints","type":"uint256","internalType":"uint256"}]},{"name":"sybilScoreThreshold","type":"uint256","internalType":"uint256"}],"outputs":[],"stateMutability":"nonpayable"},{"type":"function","name":"setSybilScorer","inputs":[{"name":"_sybilScorer","type":"address","internalType":"address"},{"name":"threshold","type":"uint256","internalType":"uint256"}],"outputs":[],"stateMutability":"nonpayable"},{"type":"function","name":"supportsInterface","inputs":[{"name":"interfaceId","type":"bytes4","internalType":"bytes4"}],"outputs":[{"name":"","type":"bool","internalType":"bool"}],"stateMutability":"view"},{"type":"function","name":"sybilScorer","inputs":[],"outputs":[{"name":"","type":"address","internalType":"contract ISybilScorer"}],"stateMutability":"view"},{"type":"function","name":"totalEffectiveActivePoints","inputs":[],"outputs":[{"name":"","type":"uint256","internalType":"uint256"}],"stateMutability":"view"},{"type":"function","name":"totalPointsActivated","inputs":[],"outputs":[{"name":"","type":"uint256","internalType":"uint256"}],"stateMutability":"view"},{"type":"function","name":"totalStaked","inputs":[],"outputs":[{"name":"","type":"uint256","internalType":"uint256"}],"stateMutability":"view"},{"type":"function","name":"totalVoterStakePct","inputs":[{"name":"","type":"address","internalType":"address"}],"outputs":[{"name":"","type":"uint256","internalType":"uint256"}],"stateMutability":"view"},{"type":"function","name":"transferOwnership","inputs":[{"name":"newOwner","type":"address","internalType":"address"}],"outputs":[],"stateMutability":"nonpayable"},{"type":"function","name":"updateProposalConviction","inputs":[{"name":"proposalId","type":"uint256","internalType":"uint256"}],"outputs":[{"name":"","type":"uint256","internalType":"uint256"}],"stateMutability":"nonpayable"},{"type":"function","name":"upgradeTo","inputs":[{"name":"newImplementation","type":"address","internalType":"address"}],"outputs":[],"stateMutability":"nonpayable"},{"type":"function","name":"upgradeToAndCall","inputs":[{"name":"newImplementation","type":"address","internalType":"address"},{"name":"data","type":"bytes","internalType":"bytes"}],"outputs":[],"stateMutability":"payable"},{"type":"function","name":"voterStakedProposals","inputs":[{"name":"","type":"address","internalType":"address"},{"name":"","type":"uint256","internalType":"uint256"}],"outputs":[{"name":"","type":"uint256","internalType":"uint256"}],"stateMutability":"view"},{"type":"event","name":"AdminChanged","inputs":[{"name":"previousAdmin","type":"address","indexed":false,"internalType":"address"},{"name":"newAdmin","type":"address","indexed":false,"internalType":"address"}],"anonymous":false},{"type":"event","name":"Allocated","inputs":[{"name":"recipientId","type":"address","indexed":true,"internalType":"address"},{"name":"amount","type":"uint256","indexed":false,"internalType":"uint256"},{"name":"token","type":"address","indexed":false,"internalType":"address"},{"name":"sender","type":"address","indexed":false,"internalType":"address"}],"anonymous":false},{"type":"event","name":"AllowlistMembersAdded","inputs":[{"name":"poolId","type":"uint256","indexed":false,"internalType":"uint256"},{"name":"members","type":"address[]","indexed":false,"internalType":"address[]"}],"anonymous":false},{"type":"event","name":"AllowlistMembersRemoved","inputs":[{"name":"poolId","type":"uint256","indexed":false,"internalType":"uint256"},{"name":"members","type":"address[]","indexed":false,"internalType":"address[]"}],"anonymous":false},{"type":"event","name":"ArbitrableConfigUpdated","inputs":[{"name":"currentArbitrableConfigVersion","type":"uint256","indexed":false,"internalType":"uint256"},{"name":"arbitrator","type":"address","indexed":false,"internalType":"contract IArbitrator"},{"name":"tribunalSafe","type":"address","indexed":false,"internalType":"address"},{"name":"submitterCollateralAmount","type":"uint256","indexed":false,"internalType":"uint256"},{"name":"challengerCollateralAmount","type":"uint256","indexed":false,"internalType":"uint256"},{"name":"defaultRuling","type":"uint256","indexed":false,"internalType":"uint256"},{"name":"defaultRulingTimeout","type":"uint256","indexed":false,"internalType":"uint256"}],"anonymous":false},{"type":"event","name":"BeaconUpgraded","inputs":[{"name":"beacon","type":"address","indexed":true,"internalType":"address"}],"anonymous":false},{"type":"event","name":"CVParamsUpdated","inputs":[{"name":"cvParams","type":"tuple","indexed":false,"internalType":"struct CVParams","components":[{"name":"maxRatio","type":"uint256","internalType":"uint256"},{"name":"weight","type":"uint256","internalType":"uint256"},{"name":"decay","type":"uint256","internalType":"uint256"},{"name":"minThresholdPoints","type":"uint256","internalType":"uint256"}]}],"anonymous":false},{"type":"event","name":"DisputeRequest","inputs":[{"name":"_arbitrator","type":"address","indexed":true,"internalType":"contract IArbitrator"},{"name":"_arbitrableDisputeID","type":"uint256","indexed":true,"internalType":"uint256"},{"name":"_externalDisputeID","type":"uint256","indexed":false,"internalType":"uint256"},{"name":"_templateId","type":"uint256","indexed":false,"internalType":"uint256"},{"name":"_templateUri","type":"string","indexed":false,"internalType":"string"}],"anonymous":false},{"type":"event","name":"Distributed","inputs":[{"name":"proposalId","type":"uint256","indexed":false,"internalType":"uint256"},{"name":"beneficiary","type":"address","indexed":false,"internalType":"address"},{"name":"amount","type":"uint256","indexed":false,"internalType":"uint256"}],"anonymous":false},{"type":"event","name":"Distributed","inputs":[{"name":"recipientId","type":"address","indexed":true,"internalType":"address"},{"name":"recipientAddress","type":"address","indexed":false,"internalType":"address"},{"name":"amount","type":"uint256","indexed":false,"internalType":"uint256"},{"name":"sender","type":"address","indexed":false,"internalType":"address"}],"anonymous":false},{"type":"event","name":"Initialized","inputs":[{"name":"poolId","type":"uint256","indexed":false,"internalType":"uint256"},{"name":"data","type":"bytes","indexed":false,"internalType":"bytes"}],"anonymous":false},{"type":"event","name":"Initialized","inputs":[{"name":"version","type":"uint8","indexed":false,"internalType":"uint8"}],"anonymous":false},{"type":"event","name":"InitializedCV","inputs":[{"name":"poolId","type":"uint256","indexed":false,"internalType":"uint256"},{"name":"data","type":"tuple","indexed":false,"internalType":"struct CVStrategyInitializeParamsV0_0","components":[{"name":"cvParams","type":"tuple","internalType":"struct CVParams","components":[{"name":"maxRatio","type":"uint256","internalType":"uint256"},{"name":"weight","type":"uint256","internalType":"uint256"},{"name":"decay","type":"uint256","internalType":"uint256"},{"name":"minThresholdPoints","type":"uint256","internalType":"uint256"}]},{"name":"proposalType","type":"uint8","internalType":"enum ProposalType"},{"name":"pointSystem","type":"uint8","internalType":"enum PointSystem"},{"name":"pointConfig","type":"tuple","internalType":"struct PointSystemConfig","components":[{"name":"maxAmount","type":"uint256","internalType":"uint256"}]},{"name":"arbitrableConfig","type":"tuple","internalType":"struct ArbitrableConfig","components":[{"name":"arbitrator","type":"address","internalType":"contract IArbitrator"},{"name":"tribunalSafe","type":"address","internalType":"address"},{"name":"submitterCollateralAmount","type":"uint256","internalType":"uint256"},{"name":"challengerCollateralAmount","type":"uint256","internalType":"uint256"},{"name":"defaultRuling","type":"uint256","internalType":"uint256"},{"name":"defaultRulingTimeout","type":"uint256","internalType":"uint256"}]},{"name":"registryCommunity","type":"address","internalType":"address"},{"name":"sybilScorer","type":"address","internalType":"address"}]}],"anonymous":false},{"type":"event","name":"InitializedCV2","inputs":[{"name":"poolId","type":"uint256","indexed":false,"internalType":"uint256"},{"name":"data","type":"tuple","indexed":false,"internalType":"struct CVStrategyInitializeParamsV0_1","components":[{"name":"cvParams","type":"tuple","internalType":"struct CVParams","components":[{"name":"maxRatio","type":"uint256","internalType":"uint256"},{"name":"weight","type":"uint256","internalType":"uint256"},{"name":"decay","type":"uint256","internalType":"uint256"},{"name":"minThresholdPoints","type":"uint256","internalType":"uint256"}]},{"name":"proposalType","type":"uint8","internalType":"enum ProposalType"},{"name":"pointSystem","type":"uint8","internalType":"enum PointSystem"},{"name":"pointConfig","type":"tuple","internalType":"struct PointSystemConfig","components":[{"name":"maxAmount","type":"uint256","internalType":"uint256"}]},{"name":"arbitrableConfig","type":"tuple","internalType":"struct ArbitrableConfig","components":[{"name":"arbitrator","type":"address","internalType":"contract IArbitrator"},{"name":"tribunalSafe","type":"address","internalType":"address"},{"name":"submitterCollateralAmount","type":"uint256","internalType":"uint256"},{"name":"challengerCollateralAmount","type":"uint256","internalType":"uint256"},{"name":"defaultRuling","type":"uint256","internalType":"uint256"},{"name":"defaultRulingTimeout","type":"uint256","internalType":"uint256"}]},{"name":"registryCommunity","type":"address","internalType":"address"},{"name":"sybilScorer","type":"address","internalType":"address"},{"name":"sybilScorerThreshold","type":"uint256","internalType":"uint256"},{"name":"initialAllowlist","type":"address[]","internalType":"address[]"}]}],"anonymous":false},{"type":"event","name":"MinThresholdPointsUpdated","inputs":[{"name":"before","type":"uint256","indexed":false,"internalType":"uint256"},{"name":"minThresholdPoints","type":"uint256","indexed":false,"internalType":"uint256"}],"anonymous":false},{"type":"event","name":"OwnershipTransferred","inputs":[{"name":"previousOwner","type":"address","indexed":true,"internalType":"address"},{"name":"newOwner","type":"address","indexed":true,"internalType":"address"}],"anonymous":false},{"type":"event","name":"PointsDeactivated","inputs":[{"name":"member","type":"address","indexed":false,"internalType":"address"}],"anonymous":false},{"type":"event","name":"PoolActive","inputs":[{"name":"active","type":"bool","indexed":false,"internalType":"bool"}],"anonymous":false},{"type":"event","name":"PoolAmountIncreased","inputs":[{"name":"amount","type":"uint256","indexed":false,"internalType":"uint256"}],"anonymous":false},{"type":"event","name":"PowerDecreased","inputs":[{"name":"member","type":"address","indexed":false,"internalType":"address"},{"name":"tokensUnStaked","type":"uint256","indexed":false,"internalType":"uint256"},{"name":"pointsToDecrease","type":"uint256","indexed":false,"internalType":"uint256"}],"anonymous":false},{"type":"event","name":"PowerIncreased","inputs":[{"name":"member","type":"address","indexed":false,"internalType":"address"},{"name":"tokensStaked","type":"uint256","indexed":false,"internalType":"uint256"},{"name":"pointsToIncrease","type":"uint256","indexed":false,"internalType":"uint256"}],"anonymous":false},{"type":"event","name":"ProposalCancelled","inputs":[{"name":"proposalId","type":"uint256","indexed":false,"internalType":"uint256"}],"anonymous":false},{"type":"event","name":"ProposalCreated","inputs":[{"name":"poolId","type":"uint256","indexed":false,"internalType":"uint256"},{"name":"proposalId","type":"uint256","indexed":false,"internalType":"uint256"}],"anonymous":false},{"type":"event","name":"ProposalDisputed","inputs":[{"name":"arbitrator","type":"address","indexed":false,"internalType":"contract IArbitrator"},{"name":"proposalId","type":"uint256","indexed":false,"internalType":"uint256"},{"name":"disputeId","type":"uint256","indexed":false,"internalType":"uint256"},{"name":"challenger","type":"address","indexed":false,"internalType":"address"},{"name":"context","type":"string","indexed":false,"internalType":"string"},{"name":"timestamp","type":"uint256","indexed":false,"internalType":"uint256"}],"anonymous":false},{"type":"event","name":"Registered","inputs":[{"name":"recipientId","type":"address","indexed":true,"internalType":"address"},{"name":"data","type":"bytes","indexed":false,"internalType":"bytes"},{"name":"sender","type":"address","indexed":false,"internalType":"address"}],"anonymous":false},{"type":"event","name":"RegistryUpdated","inputs":[{"name":"registryCommunity","type":"address","indexed":false,"internalType":"address"}],"anonymous":false},{"type":"event","name":"Ruling","inputs":[{"name":"_arbitrator","type":"address","indexed":true,"internalType":"contract IArbitrator"},{"name":"_disputeID","type":"uint256","indexed":true,"internalType":"uint256"},{"name":"_ruling","type":"uint256","indexed":false,"internalType":"uint256"}],"anonymous":false},{"type":"event","name":"SupportAdded","inputs":[{"name":"from","type":"address","indexed":false,"internalType":"address"},{"name":"proposalId","type":"uint256","indexed":false,"internalType":"uint256"},{"name":"amount","type":"uint256","indexed":false,"internalType":"uint256"},{"name":"totalStakedAmount","type":"uint256","indexed":false,"internalType":"uint256"},{"name":"convictionLast","type":"uint256","indexed":false,"internalType":"uint256"}],"anonymous":false},{"type":"event","name":"SybilScorerUpdated","inputs":[{"name":"sybilScorer","type":"address","indexed":false,"internalType":"address"}],"anonymous":false},{"type":"event","name":"TribunaSafeRegistered","inputs":[{"name":"strategy","type":"address","indexed":false,"internalType":"address"},{"name":"arbitrator","type":"address","indexed":false,"internalType":"address"},{"name":"tribunalSafe","type":"address","indexed":false,"internalType":"address"}],"anonymous":false},{"type":"event","name":"Upgraded","inputs":[{"name":"implementation","type":"address","indexed":true,"internalType":"address"}],"anonymous":false},{"type":"error","name":"ALLOCATION_ACTIVE","inputs":[]},{"type":"error","name":"ALLOCATION_NOT_ACTIVE","inputs":[]},{"type":"error","name":"ALLOCATION_NOT_ENDED","inputs":[]},{"type":"error","name":"ALREADY_INITIALIZED","inputs":[]},{"type":"error","name":"AMOUNT_MISMATCH","inputs":[]},{"type":"error","name":"ANCHOR_ERROR","inputs":[]},{"type":"error","name":"ARRAY_MISMATCH","inputs":[]},{"type":"error","name":"AShouldBeUnderOrEqTwo_128","inputs":[]},{"type":"error","name":"AShouldBeUnderTwo_128","inputs":[]},{"type":"error","name":"AddressCannotBeZero","inputs":[]},{"type":"error","name":"AmountOverMaxRatio","inputs":[]},{"type":"error","name":"ArbitratorCannotBeZero","inputs":[]},{"type":"error","name":"BShouldBeLessTwo_128","inputs":[]},{"type":"error","name":"CallerNotOwner","inputs":[{"name":"_caller","type":"address","internalType":"address"},{"name":"_owner","type":"address","internalType":"address"}]},{"type":"error","name":"CantIncreaseFixedSystem","inputs":[]},{"type":"error","name":"ConvictionUnderMinimumThreshold","inputs":[]},{"type":"error","name":"DefaultRulingNotSet","inputs":[]},{"type":"error","name":"DisputeCooldownNotPassed","inputs":[{"name":"_proposalId","type":"uint256","internalType":"uint256"},{"name":"_remainingSec","type":"uint256","internalType":"uint256"}]},{"type":"error","name":"INVALID","inputs":[]},{"type":"error","name":"INVALID_ADDRESS","inputs":[]},{"type":"error","name":"INVALID_FEE","inputs":[]},{"type":"error","name":"INVALID_METADATA","inputs":[]},{"type":"error","name":"INVALID_REGISTRATION","inputs":[]},{"type":"error","name":"IS_APPROVED_STRATEGY","inputs":[]},{"type":"error","name":"InsufficientCollateral","inputs":[{"name":"sentAmount","type":"uint256","internalType":"uint256"},{"name":"requiredAmount","type":"uint256","internalType":"uint256"}]},{"type":"error","name":"MISMATCH","inputs":[]},{"type":"error","name":"MaxPointsReached","inputs":[]},{"type":"error","name":"NONCE_NOT_AVAILABLE","inputs":[]},{"type":"error","name":"NOT_APPROVED_STRATEGY","inputs":[]},{"type":"error","name":"NOT_ENOUGH_FUNDS","inputs":[]},{"type":"error","name":"NOT_IMPLEMENTED","inputs":[]},{"type":"error","name":"NOT_INITIALIZED","inputs":[]},{"type":"error","name":"NOT_PENDING_OWNER","inputs":[]},{"type":"error","name":"NotEnoughPointsToSupport","inputs":[{"name":"pointsSupport","type":"uint256","internalType":"uint256"},{"name":"pointsBalance","type":"uint256","internalType":"uint256"}]},{"type":"error","name":"NotImplemented","inputs":[]},{"type":"error","name":"OnlyArbitrator","inputs":[]},{"type":"error","name":"OnlyCommunityAllowed","inputs":[]},{"type":"error","name":"OnlyCouncilSafe","inputs":[]},{"type":"error","name":"OnlySubmitter","inputs":[{"name":"submitter","type":"address","internalType":"address"},{"name":"sender","type":"address","internalType":"address"}]},{"type":"error","name":"POOL_ACTIVE","inputs":[]},{"type":"error","name":"POOL_INACTIVE","inputs":[]},{"type":"error","name":"PoolAmountNotEnough","inputs":[{"name":"_proposalId","type":"uint256","internalType":"uint256"},{"name":"_requestedAmount","type":"uint256","internalType":"uint256"},{"name":"_poolAmount","type":"uint256","internalType":"uint256"}]},{"type":"error","name":"PoolIdCannotBeZero","inputs":[]},{"type":"error","name":"PoolIsEmpty","inputs":[]},{"type":"error","name":"ProposalDataIsEmpty","inputs":[]},{"type":"error","name":"ProposalIdCannotBeZero","inputs":[]},{"type":"error","name":"ProposalInvalidForAllocation","inputs":[{"name":"_proposalId","type":"uint256","internalType":"uint256"},{"name":"_proposalStatus","type":"uint8","internalType":"enum ProposalStatus"}]},{"type":"error","name":"ProposalNotActive","inputs":[{"name":"_proposalId","type":"uint256","internalType":"uint256"}]},{"type":"error","name":"ProposalNotDisputed","inputs":[{"name":"_proposalId","type":"uint256","internalType":"uint256"}]},{"type":"error","name":"ProposalNotInList","inputs":[{"name":"_proposalId","type":"uint256","internalType":"uint256"}]},{"type":"error","name":"ProposalSupportDuplicated","inputs":[{"name":"_proposalId","type":"uint256","internalType":"uint256"},{"name":"index","type":"uint256","internalType":"uint256"}]},{"type":"error","name":"RECIPIENT_ALREADY_ACCEPTED","inputs":[]},{"type":"error","name":"RECIPIENT_ERROR","inputs":[{"name":"recipientId","type":"address","internalType":"address"}]},{"type":"error","name":"RECIPIENT_NOT_ACCEPTED","inputs":[]},{"type":"error","name":"REGISTRATION_NOT_ACTIVE","inputs":[]},{"type":"error","name":"RegistryCannotBeZero","inputs":[]},{"type":"error","name":"SupportUnderflow","inputs":[{"name":"_support","type":"uint256","internalType":"uint256"},{"name":"_delta","type":"int256","internalType":"int256"},{"name":"_result","type":"int256","internalType":"int256"}]},{"type":"error","name":"TokenCannotBeZero","inputs":[]},{"type":"error","name":"TokenNotAllowed","inputs":[]},{"type":"error","name":"UNAUTHORIZED","inputs":[]},{"type":"error","name":"UserCannotBeZero","inputs":[]},{"type":"error","name":"UserCannotExecuteAction","inputs":[]},{"type":"error","name":"UserIsInactive","inputs":[]},{"type":"error","name":"UserNotInRegistry","inputs":[]},{"type":"error","name":"ZERO_ADDRESS","inputs":[]}],"bytecode":{"object":"0x60a080604052346100325730608052615fe0908162000038823960805181818161256c015281816126560152612a430152f35b600080fdfe60806040526004361015610018575b361561001657005b005b6000803560e01c8063013cf08b14613ff457806301ffc9a714613f9d578063059351cd14613f465780630a6f0ee914613bef5780630ba9590914611cae5780630bece79c14613bc65780630c0512e914613ba85780630f529ba214613b8a578063125fd1d914613b6c57806315cc481e14613b43578063184b9559146139945780631aa91a9e146139755780631ddf1e231461395b5780632506b87014613924578063255ffb38146138fa5780632bbe0cae1461342a5780632dbd6fdd146115f85780632ed04b2b146131b8578063311a6c5614612c1c5780633396045914612bfe578063346db8cb14612bd9578063351d9f9614612bb35780633659cfe614612a1e5780633864d3661461299c57806338fff2d01461297e578063406244d81461296257806341bb76051461290a57806342fda9c7146128ec5780634ab4ba42146128ce5780634d31d087146112b65780634f1ef2861461261857806352d1902d1461255957806359a5db8b1461253a5780635db64b99146116235780636003e4141461251157806360d5dedc14612456578063626c47e81461243a5780636453d9c414612410578063715018a6146123c45780637263cfe214612383578063782aadff14611fe8578063814516ad14611ef0578063817b1cd214611ed2578063824ea8ed14611e65578063868c57b814611e0f5780638da5cb5b14611de2578063948e7a5914611d6f578063950559d714611d24578063a0cf0aea14611cf5578063a28889e114611ccc578063a47ff7e514611cae578063a51312c814611c6d578063a574cea414611c17578063aba9ffee146114cd578063ad56fd5d14611b7d578063b0d3713a14611b38578063b2b878d014611a75578063b41596ec146116e1578063b5f620ce14611685578063b6c61f311461165c578063bcc5b93b14611623578063c3292171146115f8578063c4d66de8146115c6578063c7f758a8146114eb578063d1e36232146114cd578063dc96ff2d146114a0578063df868ed31461147d578063e0a8f6f514611326578063e0dd2c38146112dc578063eb11af93146112b6578063edd146cc14610c68578063ef2920fc146104b9578063f2fde38b14610428578063f5b0dfb7146103cf578063f5be3f7c146103b25763ffa1ad7414610368575061000e565b346103af57806003193601126103af576103ab604051610387816141c7565b60038152620302e360ec1b6020820152604051918291602083526020830190614366565b0390f35b80fd5b50346103af57806003193601126103af576020604051611c208152f35b50346103af5760203660031901126103af577f46aeb5d8770fc4474bc2dfa118fd2595f7fb33ce2cbce6f4e5a3dabfe0f76339602060043561040f614945565b61041b81606954614922565b606955604051908152a180f35b50346103af5760203660031901126103af5761044261440b565b61044a614665565b6001600160a01b0381161561046557610462906146c4565b80f35b60405162461bcd60e51b815260206004820152602660248201527f4f776e61626c653a206e6577206f776e657220697320746865207a65726f206160448201526564647265737360d01b6064820152608490fd5b506104c336614512565b6104cb614945565b6104d361496b565b8151926020916104ea83808601968601018661510b565b93825b85518110156105d45761050081876151a9565b51518561050d83896151a9565b510151818652607b87528560408120911380610566575b61053857505061053390614987565b6104ed565b9060ff6008604493015416604051916394d57ead60e01b8352600483015261055f81614323565b6024820152fd5b5060ff60088201541661057881614323565b80159081156105bf575b81156105aa575b8115610596575b50610524565b600691506105a381614323565b1438610590565b90506105b581614323565b6004811490610589565b90506105ca81614323565b6003811490610582565b506001600160a01b03808316969195509091908615610c565760785416948515610c445760405163288c314960e21b81526004810188905260249390868186818b5afa908115610c39578691610c1c575b5015610c0a57858261063a935101019061510b565b9261064482614b89565b15610bcf575b60405163011de97360e61b8152858180610668308760048401614b6f565b03818a5afa908115610bc4578291610b97575b5015610b855780969195969161069087614b89565b97829815935b86518a1015610746578480610730575b61071e576106b48a886151a9565b515115610714576106c58a886151a9565b51516106d0816151de565b156106fd57506106f16106f791896106e88d8b6151a9565b51015190615236565b99614987565b98610696565b86906040519063c1d17bef60e01b82526004820152fd5b986106f790614987565b604051630b72d6b160e31b8152600490fd5b50838861073d8c8a6151a9565b510151136106a6565b91878792610783828c6107658b98878b52607c845260408b2054615252565b936040518080958194637817ee4f60e01b8352309060048401614b6f565b03915afa908115610b7a578791610b48575b50808211610b2b5750828695949552607c82526040862055606091829186945b8651861015610b27576107c886886151a9565b515193805115600014610a145750604051946107e3866141c7565b60018652828601833682378651156109ff578590529490945b82610807888a6151a9565b51015195858a52607b845260408a2092600984019186600052828652610833604060002054998a615252565b92876000528652826040600020558b809b81938754945b8a8452607d8a526040842080548210156109ec5761086982889261456d565b90549060031b1c1461088757610880604091614987565b905061084a565b50999391509a9593919b5060019994995b15610986575b506108ff949392919080841161094d576108b88482614d07565b6108c56070918254614922565b90556108d18482614d07565b6108e060028501918254614922565b90555b6007830192835415600014610906575050509050439055614987565b94956107b5565b60a09350610923600080516020615eeb8339815191529582615480565b6003600282015491015491604051938a85528985015260408401528a8301526080820152a1614987565b6109578185614d07565b6109646070918254614d07565b90556109708185614d07565b61097f60028501918254614d07565b90556108e3565b878d52607d875260408d20805490600160401b8210156109d957816109b99160016108ff9a99989796959401815561456d565b819291549060031b91821b91600019901b1916179055909192939461089e565b634e487b7160e01b8f5260416004528d8ffd5b5050999391509a9593919b999499610898565b82634e487b7160e01b60005260326004526000fd5b9491889497989693919698855b8751811015610a665789610a35828a6151a9565b5114610a4957610a4490614987565b610a21565b896044918a60405192632b7aec5560e21b84526004840152820152fd5b509794989691939692909215610a7f575b9490946107fc565b948051906001808301809311610b1457610a98836143de565b92610aa66040519485614233565b808452610ab5601f19916143de565b0136868501378a815b610ad8575b5050610ad1869151836151a9565b5294610a77565b829a949a51811015610b0c5780610af2610b0392856151a9565b51610afd82876151a9565b52614987565b819a949a610abe565b999399610ac3565b634e487b7160e01b8b526011600452838bfd5b8780f35b604492508560405192636b20c17f60e11b84526004840152820152fd5b90508281813d8311610b73575b610b5f8183614233565b81010312610b6e575187610795565b600080fd5b503d610b55565b6040513d89823e3d90fd5b604051635fccb67f60e01b8152600490fd5b610bb79150863d8811610bbd575b610baf8183614233565b810190614b57565b3861067b565b503d610ba5565b6040513d84823e3d90fd5b94909591855b8451811015610c00578686610bea83886151a9565b5101511361071e57610bfb90614987565b610bd5565b509195909461064a565b604051636a5cfb6d60e01b8152600490fd5b610c339150873d8911610bbd57610baf8183614233565b38610625565b6040513d88823e3d90fd5b604051635df4b1ef60e01b8152600490fd5b604051631a3e505160e31b8152600490fd5b50346103af5760403660031901126103af576024356001600160401b03811161124f57610c999036906004016144f7565b610ca1614945565b610ca9614945565b6068546112a4576004351561129257600435606855606a546e5af43d82803e903d91602b57fd5bf3606c54610cdd81614987565b606c5560405160208101913360601b8352603482015260348152610d0081614218565b519020608883901c62ffffff16763d602d80600a3d3981f3363d3d373d3d3d363d7300000017855260789290921b6001600160781b031916176020526001600160a01b03906037600985f516801561125357607980546001600160a01b031981168317909155839190821617803b1561124f5781809160046040518094819363204a7f0760e21b83525af18015610bc45761123b575b50508051810190602081830312611237576020810151906001600160401b03821161123357610220828201840312611233576040519261012084016001600160401b0381118582101761121d5780604052608084840183031261121157610dfc816141e2565b8284016020810151825260408101516101408701526060810151610160870152608081015161018087015290855260a00151600381101561121157602085015260c0838301015160048110156112115760408501526020828401820360bf190112611219576040516001600160401b03602082019081119082111761121d576020810160405260e084840101518152606085015260c060df198484018303011261121957604051610eac816141ac565b82840161010001516001600160a01b0381168103611215578152610ed561012085850101614996565b6020820152828401610140810151604083015261016081015160608301526101808101516080808401919091526101a082015160a0840152860191909152610f20906101c001614996565b60a0850152610f346101e084840101614996565b60c085015281830161020081015160e08601526102200151926001600160401b0384116112115760208201603f85838601010112156112115760208482850101015192610f80846143de565b94610f8e6040519687614233565b8486526020808701940160408660051b838686010101011161120d57818301810160400193925b60408660051b8383860101010185106111f157610100880187905260a0880151899089906001600160a01b031615610c445760a0810151607880546001600160a01b0319166001600160a01b0392909216919091179055602081015160038110156111dd57607654604083015160048110156111c95761ff0060ff9160081b1692169061ffff1916171760765560608101515160775560018060a01b0360c08201511660018060a01b0319607a541617607a557fb6a062fc5f19aa17637bf61ab001ce3e5ceb67a5bd51d9753281e41df94f3fd36040516004358152604060208201526110a66040820184516149aa565b6110b8602084015160c0830190614560565b6110ca604084015160e0830190614553565b60608301515161010082015260a06080840151600180831b03815116610120840152600180831b036020820151166101408401526040810151610160840152606081015161018084015260808101516101a084015201516101c082015260018060a01b0360a0840151166101e082015260018060a01b0360c08401511661020082015260e0830151610220820152806111766101008501516102206102408401526102608301906149cd565b0390a16111a86080820151825160405190611190826141fd565b858252604051926111a0846141fd565b8684526155bb565b607a546001600160a01b03166111bc575080f35b60e0610462910151615d30565b634e487b7160e01b85526021600452602485fd5b634e487b7160e01b83526021600452602483fd5b60208060409561120088614996565b8152019501949350610fb5565b8780fd5b8580fd5b8680fd5b8480fd5b634e487b7160e01b600052604160045260246000fd5b8380fd5b8280fd5b61124490614199565b61124f578138610d96565b5080fd5b60405162461bcd60e51b8152602060048201526017602482015276115490cc4c4d8dce8818dc99585d194c8819985a5b1959604a1b6044820152606490fd5b604051637fcce2a960e01b8152600490fd5b60405163439a74c960e01b8152600490fd5b50346103af5760203660031901126103af576020906112d361440b565b50604051908152f35b50346103af5760403660031901126103af57600960406112fa614421565b926004358152607b60205220019060018060a01b03166000526020526020604060002054604051908152f35b50346103af5760208060031936011261124f5760043590818352607b8152600160ff60086040862001541661135a81614323565b0361146457818352607b815260408320600501546001600160a01b0390811633810361144157508084916079541690848352607b8452601060408420916005830154169101548352607f84526002604084200154823b15611233576113d99284928360405180968195829463099ea56b60e41b84528c600485016151bd565b03925af18015610bc45761142d575b50829052607b81526040808420600801805460ff19166003179055519182527f416e669c63d9a3a5e36ee7cc7e2104b8db28ccd286aa18966e98fa230c73b08c91a180f35b61143690614199565b6112375782386113e8565b604051634544dc9160e11b815290819061146090339060048401614b6f565b0390fd5b6040516344980d8f60e01b815260048101839052602490fd5b50346103af57806003193601126103af57602060ff606754166040519015158152f35b50346103af5760203660031901126103af57600260406020926004358152607b8452200154604051908152f35b50346103af57806003193601126103af576020607154604051908152f35b50346103af5760203660031901126103af57610160906004358152607b6020526040812060018101549182156000146115b657905b60018060a01b03918260058301541693836004840154169360068401541690600284015460ff6008860154169060078601549260038701549433600052600988016020526010604060002054980154986040519a8b5260208b015260408a01526060890152608088015261159381614323565b60a087015260c086015260e0850152610100840152610120830152610140820152f35b506115c082615369565b90611520565b50346103af5760203660031901126103af576104626115e361440b565b6115f360ff845460081c166148c2565b6146c4565b50346103af57806003193601126103af57602060ff60765460081c166116216040518092614553565bf35b50346103af5760203660031901126103af576020906040906001600160a01b0361164b61440b565b168152607c83522054604051908152f35b50346103af57806003193601126103af57607a546040516001600160a01b039091168152602090f35b50346103af5760203660031901126103af5760043580151580910361124f5760207fd94c9bc4d43c51d8dc345a016d8e3d994432fac68e72832e4cf3a616bd8efae09160ff196067541660ff821617606755604051908152a180f35b5060603660031901126103af576001600160401b039060243582811161124f5761170f903690600401614638565b6044929192358481116112375761172a903690600401614638565b93909460043594858552607b602052604085209460108601548152607f60205260408120926040519261175c846141ac565b60018060a01b0394858154168086528660018301541660208701526002820154604087015260056003830154926060880193845260048101546080890152015460a087015215611a635789895403611a4a576008890191600160ff8454166117c381614323565b03611a31578151803410611a135750600f8a0154801515806119eb575b6119b557506117f0825134614d07565b918760795416905190803b156112155761182487918e60405194858094819363240ff7c560e11b8352339060048401614b1c565b03925af18015610c39576119a1575b509a60209161186d9b9c8888511691604051809e8195829463c13517e160e01b8452600360048501526040602485015260448401916158db565b03925af1988915611996578399611962575b50805460ff19166005179055600c870188905542600d8801908155600e90970180546001600160a01b03191633179055878252607e60205260408220899055606d54918183169081831461194e5750927f034f6a48076db1bcaaa311ccdc43d473aff44d3918a76fe0fae27c8b3665016d97959260209a979592600161193d9601169060018060401b03191617606d55511693549260405195869586528986015287604086015233606086015260c0608086015260c08501916158db565b9060a08301520390a1604051908152f35b634e487b7160e01b81526011600452602490fd5b9098506020813d60201161198e575b8161197e60209383614233565b81010312610b6e5751973861187f565b3d9150611971565b6040513d85823e3d90fd5b6119ab8691614199565b6112195738611833565b8b86611c20830180931161194e57506119d16044924290614d07565b60405191638d2f6c3160e01b835260048301526024820152fd5b50611c2081018082116119ff5742106117e0565b634e487b7160e01b87526011600452602487fd5b60449060405190632c1f8ef160e21b82523460048301526024820152fd5b6040516344980d8f60e01b8152600481018c9052602490fd5b60405163c1d17bef60e01b8152600481018b9052602490fd5b604051636c291fd360e01b8152600490fd5b50346103af5760403660031901126103af576001600160401b039060043582811161124f57611aa8903690600401614437565b5060248035838111611237573660238201121561123757806004013591611ace836143de565b94611adc6040519687614233565b8386528160208097019460051b840101943686116103af57828401945b868610611b125760405163d623472560e01b8152600490fd5b8535838111611237578891611b2d83928736918a01016144f7565b815201950194611af9565b50346103af5760203660031901126103af57611b5261440b565b611b5a614665565b606a80546001600160a01b0319166001600160a01b039290921691909117905580f35b50346103af576101603660031901126103af57611bb3611b9c3661459b565b611ba5366145fe565b90611bae61554b565b6155f0565b607a5481906001600160a01b031680611bc95750f35b803b15611c145781809160446040518094819363642ce76b60e01b83523060048401526101443560248401525af18015610bc457611c045750f35b611c0d90614199565b6103af5780f35b50fd5b50346103af5760203660031901126103af57611c59600a60406103ab93606060208351611c43816141c7565b83815201526004358152607b6020522001614256565b60405191829160208352602083019061438b565b50346103af5760203660031901126103af576004356001600160401b03811161124f57611ca1610462913690600401614437565b611ca961554b565b615b83565b50346103af57806003193601126103af576020607754604051908152f35b50346103af57806003193601126103af57606d546040516001600160401b039091168152602090f35b50346103af57806003193601126103af57602060405173eeeeeeeeeeeeeeeeeeeeeeeeeeeeeeeeeeeeeeee8152f35b50346103af5760203660031901126103af5760043562989680918282029180830484149015171561194e57607454830392831161194e576020611d678484614fa8565b604051908152f35b50346103af576101803660031901126103af57611d8b3661459b565b611d94366145fe565b6001600160401b0391906101443583811161121957611db7903690600401614437565b906101643593841161121957611dd4610462943690600401614437565b92611ddd61554b565b6155bb565b50346103af57806003193601126103af576020611dfd615dd2565b6040516001600160a01b039091168152f35b50346103af5760403660031901126103af57611e2961440b565b6001600160a01b03168152607d60205260408120805460243592908310156103af576020611e57848461456d565b90546040519160031b1c8152f35b50346103af5760203660031901126103af5760406020916004358152607b835220611e946002820154826154b2565b81929192159081611ec9575b50611ebd575b6001611eb3910154615369565b1115604051908152f35b60038101549150611ea6565b90501538611ea0565b50346103af57806003193601126103af576020607054604051908152f35b50346103af57806003193601126103af57611f0a33614b89565b1561071e576078546001600160a01b039082908216803b1561124f57816040518092630d4a8b4960e01b8252818381611f47303360048401614b6f565b03925af18015610bc457611fd4575b50506078541660206040518092637817ee4f60e01b82528180611f7d303360048401614b6f565b03915afa8015610bc4578290611fa1575b611f9b9150607154614922565b60715580f35b506020813d8211611fcc575b81611fba60209383614233565b81010312610b6e57611f9b9051611f8e565b3d9150611fad565b611fdd90614199565b61124f578138611f56565b50346103af5760403660031901126103af5761200261440b565b60243561200d614ce1565b61201682614b89565b1561071e578260ff60765460081c1660048110156111c9576002810361210057505080915b60785460405163011de97360e61b81529060209082906001600160a01b0316818061206a308860048401614b6f565b03915afa9081156120f557907f0b9150e1e54346ed3fa36b977cd5d65dca5a649c737c3174a26bddaadd47667a939291602096916120d8575b506120c4575b6120b98460405193849384614f31565b0390a1604051908152f35b6120d084607154614922565b6071556120a9565b6120ef9150863d8111610bbd57610baf8183614233565b386120a3565b6040513d87823e3d90fd5b600181036121ac575050607854604051637817ee4f60e01b8152829160209082906001600160a01b0316818061213a308a60048401614b6f565b03915afa9081156120f557859161217b575b506121578382614922565b60775480911161216a575b50509161203b565b6121749250614d07565b3880612162565b90506020813d82116121a4575b8161219560209383614233565b81010312610b6e57513861214c565b3d9150612188565b9092906002190161203b576078546040516316308e2560e11b81526001600160a01b038084166004830152929450908216916020918281602481875afa8015610b7a5785908890612352575b6122029250614922565b6040516336d8759760e21b81529060128483600481895afa9081156123475761226b948661226093612266968d9161231a575b5060046040518094819363313ce56760e01b8352165afa8b91816122eb575b506122e0575b50614f87565b90614f95565b614fc8565b816040518094637817ee4f60e01b8252818061228b308b60048401614b6f565b03915afa918215610c395786926122ae575b506122a89250614d07565b9161203b565b90915082813d83116122d9575b6122c58183614233565b81010312610b6e576122a89151903861229d565b503d6122bb565b60ff9150163861225a565b61230c919250883d8a11612313575b6123048183614233565b810190614f6e565b9038612254565b503d6122fa565b61233a9150823d8411612340575b6123328183614233565b810190614f4f565b38612235565b503d612328565b6040513d8b823e3d90fd5b50508281813d831161237c575b6123698183614233565b81010312610b6e578461220291516121f8565b503d61235f565b50346103af5760203660031901126103af576004356001600160401b03811161124f576123b7610462913690600401614437565b6123bf61554b565b615924565b50346103af57806003193601126103af576123dd614665565b603380546001600160a01b031981169091556000906001600160a01b0316600080516020615f0b8339815191528280a380f35b50346103af5760203660031901126103af5761046261242d61440b565b612435614ce1565b614d14565b50346103af57806003193601126103af57602060405160038152f35b50346103af5760603660031901126103af5761247061440b565b6024356001600160401b0381116112375736602382011215611237576124a09036906024816004013591016144c0565b906124c56124ac6143f5565b6115f360ff865460081c166124c0816148c2565b6148c2565b60018060a01b031660018060a01b03196065541617606555604051612508816124fa6020820194602086526040830190614366565b03601f198101835282614233565b51902060665580f35b50346103af57806003193601126103af576078546040516001600160a01b039091168152602090f35b50346103af5760203660031901126103af576020611d67600435615369565b50346103af57806003193601126103af577f00000000000000000000000000000000000000000000000000000000000000006001600160a01b031630036125b2576020604051600080516020615ecb8339815191528152f35b60405162461bcd60e51b815260206004820152603860248201527f555550535570677261646561626c653a206d757374206e6f742062652063616c6044820152771b1959081d1a1c9bdd59da0819195b1959d85d1958d85b1b60421b6064820152608490fd5b5060403660031901126103af5761262d61440b565b6024356001600160401b0381116112375761264c9036906004016144f7565b6001600160a01b037f00000000000000000000000000000000000000000000000000000000000000008116929190612686308514156146fb565b6126a3600080516020615ecb83398151915294828654161461474a565b6126ab615dd2565b81339116036128a957600080516020615e6b8339815191525460ff16156126d85750506104629150614799565b8216604051936352d1902d60e01b85526020948581600481865afa6000918161287a575b5061274b5760405162461bcd60e51b815260048101879052602e6024820152600080516020615f6b83398151915260448201526d6f6e206973206e6f74205555505360901b6064820152608490fd5b94929394036128235761275d84614799565b600080516020615f2b833981519152600080a281511580159061281b575b612786575b50505080f35b612809926000806040519461279a86614218565b602786527f416464726573733a206c6f772d6c6576656c2064656c65676174652063616c6c85870152660819985a5b195960ca1b60408701528481519101845af4903d15612812573d6127ec816144a5565b906127fa6040519283614233565b8152600081943d92013e614829565b50388080612780565b60609250614829565b50600161277b565b60405162461bcd60e51b815260048101839052602960248201527f45524331393637557067726164653a20756e737570706f727465642070726f786044820152681a58589b195555525160ba1b6064820152608490fd5b90918782813d83116128a2575b6128918183614233565b810103126103af57505190386126fc565b503d612887565b6114606128b4615dd2565b60405163163678e960e01b81529182913360048401614b6f565b50346103af57806003193601126103af576020606954604051908152f35b50346103af57806003193601126103af576020606654604051908152f35b50346103af5760203660031901126103af576040906004358152607f6020522060018060a01b036103ab81835416916001840154169260028101549060038101546005600483015492015492604051968796876143ab565b50346103af57806003193601126103af576020604051600a8152f35b50346103af57806003193601126103af576020606854604051908152f35b50346103af5760403660031901126103af577f2667a0cd99dbc787d1d2596efe938cf43dfe83e8b8ddeb70e28007c09ff3348560206129d961440b565b6129e161554b565b6129ea81614b35565b607a80546001600160a01b0319166001600160a01b03929092169182179055612a14602435615d30565b604051908152a180f35b50346103af5760208060031936011261124f57612a3961440b565b6001600160a01b037f00000000000000000000000000000000000000000000000000000000000000008116612a70308214156146fb565b612a8d600080516020615ecb83398151915291838354161461474a565b612a95615dd2565b82339116036128a95760405191612aab836141fd565b858352600080516020615e6b8339815191525460ff1615612ad3575050506104629150614799565b8316906040516352d1902d60e01b81528581600481865afa60009181612b84575b50612b435760405162461bcd60e51b815260048101879052602e6024820152600080516020615f6b83398151915260448201526d6f6e206973206e6f74205555505360901b6064820152608490fd5b949293940361282357612b5584614799565b600080516020615f2b833981519152600080a2815115801590612b7c576127865750505080f35b50600061277b565b90918782813d8311612bac575b612b9b8183614233565b810103126103af5750519038612af4565b503d612b91565b50346103af57806003193601126103af57602060ff607654166116216040518092614560565b50346103af5760603660031901126103af576020611d6760443560243560043561528d565b50346103af57806003193601126103af576020606c54604051908152f35b50346103af5760403660031901126103af5760043590818152602091607e8352604082205492838352607b8152604083209360108501548452607f8252604084209060405190612c6b826141ac565b60018060a01b0392838154168352600184818301541686850152600282015490604085019182526003830154926060860193845260056004820154916080880192835201549160a08701928352851561319f5760088c0192835490600560ff8316612cd581614323565b0361318657600d8e01549051612cea91614922565b42118015908180613179575b613167579061315d575b15612ea15750815115612e8f576002915190808214612e80575b5014612e05575b505083607954169084600e8a015416905192823b15612e015791612d6093918980946040519687958694859363099ea56b60e41b8552600485016151bd565b03925af18015610c3957908691612ded575b50505b606d546001600160401b038082169791908815612dd9577f394027a5fa6e098a1191094d1719d6929b9abc535fcc0c8f448d6a4e756222769596979860001901169060018060401b03191617606d55600f429101555116916040516024358152a380f35b634e487b7160e01b88526011600452602488fd5b612df690614199565b611219578438612d72565b8880fd5b600660ff1982541617905584607954168560058b015416915191813b15612e7c57918991612e4b938360405180968195829463099ea56b60e41b84528b600485016151bd565b03925af18015612e715790889115612d2157612e6690614199565b611215578638612d21565b6040513d8a823e3d90fd5b8980fd5b835460ff191617835538612d1a565b604051630dd466dd60e41b8152600490fd5b9150919250602435828114600014612f7d57505060ff198254161790558360795416600485600e8b0154169287876078541660405193848092633629edcd60e11b82525afa918215612f72578a92612f53575b5051823b15612e7c57604051638969ab5360e01b8152948a94869493859387938593612f26938d1691600486016158fc565b03925af18015610c3957908691612f3f575b5050612d75565b612f4890614199565b611219578438612f38565b612f6b919250883d8a11612340576123328183614233565b9038612ef4565b6040513d8c823e3d90fd5b91949291600214612f93575b5050505050612d75565b60069060ff1916179055846079541691600e8a019286845416915191813b156130f857918a91612fdb938360405180968195829463099ea56b60e41b84528a600485016151bd565b03925af1801561234757908991613149575b5050846079541690600460058b0192878454169089896078541660405194858092633629edcd60e11b82525afa92831561313e578c9361311f575b50606f548c52607f8a52600260408d200154871c91813b1561311b57918c9161306f93838c60405196879586948593638969ab5360e01b9b8c865216908c600486016158fc565b03925af1801561311057908b916130fc575b50508680806079541694541694541694606f548b52607f8952600260408c200154901c833b156130f8578a949392916130ca8692604051988997889687958652600486016158fc565b03925af18015610c39579086916130e4575b808080612f89565b6130ed90614199565b6112195784386130dc565b8a80fd5b61310590614199565b612e7c578938613081565b6040513d8d823e3d90fd5b8c80fd5b6131379193508a3d8c11612340576123328183614233565b9138613028565b6040513d8e823e3d90fd5b61315290614199565b61120d578738612fed565b5060243515612d00565b604051631777988560e11b8152600490fd5b508a8a5116331415612cf6565b604051634b011ca960e11b815260048101899052602490fd5b60405163c1d17bef60e01b815260048101879052602490fd5b50346103af5760403660031901126103af576131d261440b565b602435916131de614ce1565b60ff60765460081c166004811015613416576002811490811561340b575b50156132375750600080516020615e8b83398151915282602093925b61322484607154614d07565b6071556120b98460405193849384614f31565b6078546040516336d8759760e21b8152602092916001600160a01b0390811691601291908581600481875afa9081156120f5578291879187916133ee575b5060046040518094819363313ce56760e01b8352165afa8591816133cf575b506133c4575b506040516316308e2560e11b815290861660048201528481602481865afa9081156133b9579087918591613386575b50916122606132de612266936132e495614d07565b91614f87565b92806040518093637817ee4f60e01b82528180613305308b60048401614b6f565b03915afa92831561337a579261333a575b505092613334600080516020615e8b83398151915292602095614d07565b92613218565b9080959250813d8311613373575b6133528183614233565b81010312610b6e579251613334600080516020615e8b833981519152613316565b503d613348565b604051903d90823e3d90fd5b809250868092503d83116133b2575b61339f8183614233565b81010312610b6e575186906122606132c9565b503d613395565b6040513d86823e3d90fd5b60ff1691503861329a565b6133e7919250873d8911612313576123048183614233565b9038613294565b6134059150823d8411612340576123328183614233565b38613275565b6001915014386131fc565b634e487b7160e01b82526021600452602482fd5b5061343436614512565b909161343e614945565b61344661496b565b61344f82614b89565b1561071e578251830190602093848184031261124f57808501516001600160401b039182821161123357019260a084820312611237576040519160a083018381108282111761121d576040528685015183526134ad60408601614996565b92878101938452606086015195604082019687526134cd60808201614996565b936060830194855260a08201519084821161120d576134f292908b0191018a01614a0a565b608082019081528151156138e85760ff607654169160038310156138d45760018093146137a1575b50606f548652607f89526040862080546001600160a01b039891908916151580613794575b613772575061354f606e54614987565b9889606e55898852607b8b528860408920968b88558160058901998160018060a01b03199516858c5416178b555116600489019084825416179055511660068701918254161790555182850155600884018260ff1982541617905543600785015585600385015551918251600a85015588600b8501930151805191821161375e576135da845461415f565b601f8111613717575b508990601f83116001146136b75792829391839289946136ac575b50501b916000199060031b1c19161790555b6010606f5491015582806079541691541690803b156112375761364b918391604051808095819463240ff7c560e11b83528a60048401614b1c565b039134905af18015610bc457613698575b50507ffcf3b1aa65a464cef2889608f99e8b8c0f680a4be6c2acb9d961c536a5a9294b604060685481519081528486820152a160405191168152f35b6136a28291614199565b6103af578061365c565b0151925038806135fe565b8488528a8820919083601f1981168a8e5b888383106136ff57505050106136e6575b505050811b019055613610565b015160001960f88460031b161c191690553880806136d9565b8686015188559096019594850194879350018e6136c8565b8488528a8820601f840160051c8101918c8510613754575b601f0160051c019084905b8281106137485750506135e3565b6000815501849061373a565b909150819061372f565b634e487b7160e01b87526041600452602487fd5b6002604491015460405190632c1f8ef160e21b82523460048301526024820152fd5b506002810154341061353f565b85516001600160a01b0391906137b8908316614b35565b81865116156138c257604051630ae6240f60e11b8152908b82600481305afa9182156123475791899184938392613883575b5060249051604051958693849263068bcd8d60e01b84526004840152165afa918215612e7157889261385f575b50604081875116920151160361384d57613831875161520d565b61383b573861351a565b604051630efd728560e21b8152600490fd5b60405163514e24c360e11b8152600490fd5b61387c9192503d808a833e6138748183614233565b810190614a85565b9038613817565b92509250508b81813d83116138bb575b61389d8183614233565b81010312612e0157518281168103612e0157829189919060246137ea565b503d613893565b60405163165a825360e21b8152600490fd5b634e487b7160e01b87526021600452602487fd5b60405163273c8bc360e11b8152600490fd5b50346103af5760203660031901126103af5760406020916004358152607e83522054604051908152f35b50346103af57806003193601126103af57608060725460735460745460755491604051938452602084015260408301526060820152f35b50346103af57806003193601126103af5761046233614d14565b50346103af5760203660031901126103af576020611d67600435615505565b50346103af5760603660031901126103af576139ae61440b565b6139b6614421565b906139bf6143f5565b83549260ff8460081c161593848095613b36575b8015613b1f575b15613ac35760ff198116600117865584613ab2575b50613a2b60405192613a00846141c7565b600a8452694356537472617465677960b01b60208501526115f360ff885460081c166124c0816148c2565b60018060a01b03918260018060a01b03199416846065541617606555604051613a64816124fa6020820194602086526040830190614366565b5190206066551690606a541617606a55613a7b5780f35b61ff001981541681557f7f26b83ff96e1f2b6a682f133852f6798a09c465da95921460cefb3847402498602060405160018152a180f35b61ffff1916610101178555386139ef565b60405162461bcd60e51b815260206004820152602e60248201527f496e697469616c697a61626c653a20636f6e747261637420697320616c72656160448201526d191e481a5b9a5d1a585b1a5e995960921b6064820152608490fd5b50303b1580156139da5750600160ff8216146139da565b50600160ff8216106139d3565b50346103af57806003193601126103af576065546040516001600160a01b039091168152602090f35b50346103af57806003193601126103af576020606f54604051908152f35b50346103af57806003193601126103af576020604051629896808152f35b50346103af57806003193601126103af576020606e54604051908152f35b50346103af57806003193601126103af576079546040516001600160a01b039091168152602090f35b50346103af5760603660031901126103af576001600160401b039060043582811161124f57613c22903690600401614437565b50602491823590811161124f57613c3d9036906004016144f7565b613c456143f5565b50613c4e614945565b613c5661496b565b805115613f345760208180518101031261124f5760200151918215613f2257828252607b602052604082209260ff607654166003811015613f0f57600114613c9c578280f35b80845403613efa576001840191825460695490818111613ed95750506008850194600160ff875416613ccd81614323565b03613ec257613cdb83615505565b91845492613ce884615369565b1180613eb9575b613ea75760018060a01b039286846065541692606854906040518095819363068bcd8d60e01b835260048301525afa918215610b7a579160409185938992613e87575b50613d3f90606954614d07565b606955015116956004820196868489541687549273eeeeeeeeeeeeeeeeeeeeeeeeeeeeeeeeeeeeeeee8114600014613e47575081809381925af115613e3a575b600460ff1982541617905581600581607954169201541690606f548652607f602052600260408720015491813b1561121557918691613dd6938360405180968195829463099ea56b60e41b84528b600485016151bd565b03925af180156120f557613e15575b50613e0b90600080516020615f8b833981519152949554169254604051938493846151bd565b0390a18038808280f35b90600080516020615f8b83398151915294613e32613e0b93614199565b945090613de5565b63b12d13eb86526004601cfd5b8260109160209560449460145260345263a9059cbb60601b82525af13d156001885114171615613e7a5785603452613d7f565b6390b8ec1886526004601cfd5b613d3f919250613ea0903d808c833e6138748183614233565b9190613d32565b60405163199cf26160e31b8152600490fd5b50821515613cef565b5090604051906344980d8f60e01b82526004820152fd5b6064939260405193632c31d85b60e11b855260048501528301526044820152fd5b6040519063c1d17bef60e01b82526004820152fd5b634e487b7160e01b845260216004528284fd5b60405163f881a10d60e01b8152600490fd5b604051630317df1360e61b8152600490fd5b50346103af57806003193601126103af57604090606f548152607f6020522060018060a01b036103ab81835416916001840154169260028101549060038101546005600483015492015492604051968796876143ab565b50346103af5760203660031901126103af5760043563ffffffff60e01b811680910361124f5760209063f1801e6160e01b8114908115613fe3575b506040519015158152f35b6301ffc9a760e01b14905082613fd8565b50346103af5760203660031901126103af576004358152607b60205260408120908154906001830154600284015493600381015460018060a01b0360048301541660018060a01b0360058401541660018060a01b036006850154169060078501549260ff6008870154169461406b600a8801614256565b604051909b909960608b01906001600160401b0382118c83101761414b57506040908152600c8901548b52600d89015460208c810191909152600e8a01546001600160a01b03168c830152600f8a01546010909a015482519d8e52908d019a909a528b015260608a0152608089015260a088015260c087015260e08601529394859461411391906140fb81614323565b6101008701526101e08061012088015286019061438b565b835161014086015260208401516101608601526040909301516001600160a01b03166101808501526101a08401526101c08301520390f35b634e487b7160e01b81526041600452602490fd5b90600182811c9216801561418f575b602083101461417957565b634e487b7160e01b600052602260045260246000fd5b91607f169161416e565b6001600160401b03811161121d57604052565b60c081019081106001600160401b0382111761121d57604052565b604081019081106001600160401b0382111761121d57604052565b608081019081106001600160401b0382111761121d57604052565b602081019081106001600160401b0382111761121d57604052565b606081019081106001600160401b0382111761121d57604052565b601f909101601f19168101906001600160401b0382119082101761121d57604052565b9060405191614264836141c7565b82815481526001809201916040519283916000918054906142848261415f565b808652918381169081156142fa57506001146142b1575b505050602092916142ad910384614233565b0152565b909493925060005260209081600020946000915b8183106142e2575093945091925090820101816142ad602061429b565b865488840185015295860195879450918301916142c5565b60ff191660208781019190915292151560051b8601830194508593506142ad92915061429b9050565b6007111561432d57565b634e487b7160e01b600052602160045260246000fd5b60005b8381106143565750506000910152565b8181015183820152602001614346565b9060209161437f81518092818552858086019101614343565b601f01601f1916010190565b90604060206143a893805184520151918160208201520190614366565b90565b9260a09491979695929760c0850198600180881b0380921686521660208501526040840152606083015260808201520152565b6001600160401b03811161121d5760051b60200190565b604435906001600160a01b0382168203610b6e57565b600435906001600160a01b0382168203610b6e57565b602435906001600160a01b0382168203610b6e57565b81601f82011215610b6e5780359161444e836143de565b9261445c6040519485614233565b808452602092838086019260051b820101928311610b6e578301905b828210614486575050505090565b81356001600160a01b0381168103610b6e578152908301908301614478565b6001600160401b03811161121d57601f01601f191660200190565b9291926144cc826144a5565b916144da6040519384614233565b829481845281830111610b6e578281602093846000960137010152565b9080601f83011215610b6e578160206143a8933591016144c0565b6040600319820112610b6e57600435906001600160401b038211610b6e5761453c916004016144f7565b906024356001600160a01b0381168103610b6e5790565b90600482101561432d5752565b90600382101561432d5752565b80548210156145855760005260206000200190600090565b634e487b7160e01b600052603260045260246000fd5b60c0906003190112610b6e57604051906145b4826141ac565b816001600160a01b036004358181168103610b6e5782526024359081168103610b6e57602082015260443560408201526064356060820152608435608082015260a060a435910152565b60809060c3190112610b6e5760405190614617826141e2565b60c435825260e4356020830152610104356040830152610124356060830152565b9181601f84011215610b6e578235916001600160401b038311610b6e5760208381860195010111610b6e57565b61466d615dd2565b336001600160a01b039091160361468057565b606460405162461bcd60e51b815260206004820152602060248201527f4f776e61626c653a2063616c6c6572206973206e6f7420746865206f776e65726044820152fd5b603380546001600160a01b039283166001600160a01b031982168117909255909116600080516020615f0b833981519152600080a3565b1561470257565b60405162461bcd60e51b815260206004820152602c6024820152600080516020615eab83398151915260448201526b19195b1959d85d1958d85b1b60a21b6064820152608490fd5b1561475157565b60405162461bcd60e51b815260206004820152602c6024820152600080516020615eab83398151915260448201526b6163746976652070726f787960a01b6064820152608490fd5b803b156147ce57600080516020615ecb83398151915280546001600160a01b0319166001600160a01b03909216919091179055565b60405162461bcd60e51b815260206004820152602d60248201527f455243313936373a206e657720696d706c656d656e746174696f6e206973206e60448201526c1bdd08184818dbdb9d1c9858dd609a1b6064820152608490fd5b9192901561488b575081511561483d575090565b3b156148465790565b60405162461bcd60e51b815260206004820152601d60248201527f416464726573733a2063616c6c20746f206e6f6e2d636f6e74726163740000006044820152606490fd5b82519091501561489e5750805190602001fd5b60405162461bcd60e51b815260206004820152908190611460906024830190614366565b156148c957565b60405162461bcd60e51b815260206004820152602b60248201527f496e697469616c697a61626c653a20636f6e7472616374206973206e6f74206960448201526a6e697469616c697a696e6760a81b6064820152608490fd5b9190820180921161492f57565b634e487b7160e01b600052601160045260246000fd5b6065546001600160a01b0316330361495957565b60405163075fd2b160e01b8152600490fd5b6068541561497557565b604051630f68fe6360e21b8152600490fd5b600019811461492f5760010190565b51906001600160a01b0382168203610b6e57565b606080918051845260208101516020850152604081015160408501520151910152565b90815180825260208080930193019160005b8281106149ed575050505090565b83516001600160a01b0316855293810193928101926001016149df565b9190604083820312610b6e57604051614a22816141c7565b83518152602084015190938491906001600160401b038211610b6e57019082601f83011215610b6e57815191614a57836144a5565b93614a656040519586614233565b83855260208483010111610b6e576020926142ad91848087019101614343565b90602082820312610b6e5781516001600160401b0392838211610b6e570160c081830312610b6e5760405192614aba846141ac565b8151845260208201516001600160a01b0381168103610b6e576020850152614ae460408301614996565b60408501526060820151908111610b6e5760a092614b03918301614a0a565b606084015260808101516080840152015160a082015290565b9081526001600160a01b03909116602082015260400190565b6001600160a01b031615614b4557565b6040516303988b8160e61b8152600490fd5b90816020910312610b6e57518015158103610b6e5790565b6001600160a01b0391821681529116602082015260400190565b607a546001600160a01b03908116908115614bfd5750614bc39160209160405180809581946302154c3d60e51b8352309060048401614b6f565b03915afa908115614bf157600091614bd9575090565b6143a8915060203d8111610bbd57610baf8183614233565b6040513d6000823e3d90fd5b90506068549160405192602093848101916810531313d5d31254d560ba1b8352602982015260298152614c2f81614218565b51902091607854169060405191632474521560e21b92838152846004820152600060248201528581604481855afa908115614bf157600091614cc4575b5015614c7c575050505050600190565b614c9793859360405195869485938493845260048401614b1c565b03915afa918215614bf157600092614cae57505090565b6143a89250803d10610bbd57610baf8183614233565b614cdb9150863d8811610bbd57610baf8183614233565b38614c6c565b6078546001600160a01b03163303614cf557565b6040516357848b5160e11b8152600490fd5b9190820391821161492f57565b60785460408051637817ee4f60e01b81526020949391926000926001600160a01b03929091831690878180614d4d308760048401614b6f565b0381855afa8015614f27578590614ef8575b614d6c9150607154614d07565b607155803b156112335783855180926322bcf99960e01b8252818381614d96308960048401614b6f565b03925af18015614eee57614edb575b5016808252607d8552828220948351808783829954938481520190865283862092865b85828210614ec557505050614ddf92500387614233565b825b8651811015614e955780614df8614e1892896151a9565b51808652607b8452868620614e0c826151de565b614e1d575b5050614987565b614de1565b600080516020615eeb8339815191529160a0918760005260098101875260038a6000208a81549155614e6f6002840191614e58818454614d07565b83556070614e67828254614d07565b905584615480565b54910154908a519289845288840152898b84015260608301526080820152a13880614e11565b50929091507f1468da654b37bb3631011c1917d02e0db437d519918858d40b38b5e980ca033b93945051908152a1565b855484526001958601958c955093019201614dc8565b614ee790939193614199565b9138614da5565b85513d86823e3d90fd5b508781813d8311614f20575b614f0e8183614233565b8101031261121957614d6c9051614d5f565b503d614f04565b86513d87823e3d90fd5b604091949392606082019560018060a01b0316825260208201520152565b90816020910312610b6e57516001600160a01b0381168103610b6e5790565b90816020910312610b6e575160ff81168103610b6e5790565b604d811161492f57600a0a90565b8181029291811591840414171561492f57565b8115614fb2570490565b634e487b7160e01b600052601260045260246000fd5b801561510557615093816000908360801c806150f9575b508060401c806150ec575b508060201c806150df575b508060101c806150d2575b508060081c806150c5575b508060041c806150b8575b508060021c806150ab575b50600191828092811c6150a4575b1c1b61503b8185614fa8565b01811c6150488185614fa8565b01811c6150558185614fa8565b01811c6150628185614fa8565b01811c61506f8185614fa8565b01811c61507c8185614fa8565b01811c6150898185614fa8565b01901c8092614fa8565b8082101561509f575090565b905090565b018161502f565b6002915091019038615021565b6004915091019038615016565b600891509101903861500b565b6010915091019038615000565b6020915091019038614ff5565b6040915091019038614fea565b91505060809038614fdf565b50600090565b906020918281830312610b6e578051906001600160401b038211610b6e570181601f82011215610b6e57805192615141846143de565b9360409361515185519687614233565b818652828087019260061b85010193818511610b6e578301915b84831061517b5750505050505090565b8583830312610b6e578386918251615192816141c7565b85518152828601518382015281520192019161516b565b80518210156145855760209160051b010190565b9081526001600160a01b039091166020820152604081019190915260600190565b600052607b60205260406000208054151590816151f9575090565b600501546001600160a01b03161515919050565b61521c60725460695490614f95565b629896809182810292818404149015171561492f57111590565b9190916000838201938412911290801582169115161761492f57565b61525c8282615236565b916000831261526a57505090565b9160649260405192631dde38a160e11b8452600484015260248301526044820152fd5b9091607454906298968093848360801b0490600160801b9182811015615357578583965b6153165750506152c19085614f95565b938583029280840487149015171561492f57810390811161492f576152e591614f95565b90830392831161492f57615302926152fc91614fa8565b90614922565b6001607f1b810190811061492f5760801c90565b600191818316615336578061532a9161543d565b911c90815b90916152b1565b809250615343919761543d565b95600019810190811161492f57908161532f565b604051633e668d0360e01b8152600490fd5b606954801561542b5761537b8261520d565b61383b57607254604081901b92600160401b929180159085048414171561492f578060401b92818404149015171561492f576153bd6153c9916153e493614fa8565b62989680809404614d07565b6153db8360735460801b049180614f95565b60401c90614fa8565b8181029080820483149015171561492f57607454820391821161492f576154179161540e91614fa8565b60715490614f95565b60401c60755480821160001461509f575090565b60405163ed4421ad60e01b8152600490fd5b90600160801b80831161546b5781116154595761530291614f95565b6040516370b7a2d960e01b8152600490fd5b604051600162a4c31160e01b03198152600490fd5b9061548b90826154b2565b90918215806154aa575b6154a55760039160078201550155565b505050565b508115615495565b43916007820154918383116154ef578383146154e35760036154d76154e09486614d07565b9101549061528d565b91565b50505050600090600090565b634e487b7160e01b600052600160045260246000fd5b80600052607b6020526040600020908082540361553357508061552e6002600393015482615480565b015490565b6024906040519063c1d17bef60e01b82526004820152fd5b607854604051633629edcd60e11b81526001600160a01b03916020908290600490829086165afa908115614bf15760009161559d575b5016330361558b57565b604051637430763f60e11b8152600490fd5b6155b5915060203d8111612340576123328183614233565b38615581565b906155c5916155f0565b80516155e1575b5080516155d65750565b6155df90615b83565b565b6155ea90615924565b386155cc565b60208181018051919290916001600160a01b0390600090821680151590816158ce575b8161582c575b50615661575b5050505081608091600080516020615e4b83398151915293516072558101516073556040810151607455606081015160755561565e60405180926149aa565ba1565b606f548152607f8552604090818120836001820154169084808851168093149182159261581a575b5050615751575b5093600560809694600080516020615f4b833981519152948460e095600080516020615e4b8339815191529b996156c8606f54614987565b80606f558152607f8a522091808451169560018060a01b0319918783865416178555600185019151168092825416179055818401519182600285015560608501519384600382015560a08d8701519687600484015501519687910155606f549681519788528a88015286015260608501528884015260a083015260c0820152a19181933861561f565b8385511690813b15611237578291602483928651948593849263446adb9960e11b845260048401525af180156158105794600080516020615f4b833981519152948460e095600080516020615e4b8339815191529b999560059560809c9a615801575b507fdc20f5c479493aac0cf803ca3b82ebc1964faa557450a37ea0a8121b0e98454f60608b86885116878b51169086519230845283015285820152a195999b505094509450949650615690565b61580a90614199565b386157b4565b83513d84823e3d90fd5b90915054168486511614158438615689565b606f548352607f87526040832060018101548516909114801592506158bc575b81156158a9575b8115615896575b8115615883575b811561586f575b5038615619565b9050600560a0850151910154141538615868565b6080850151600482015414159150615861565b606085015160038201541415915061585a565b6040850151600282015414159150615853565b9050828451168382541614159061584c565b8451841615159150615613565b908060209392818452848401376000828201840152601f01601f1916010190565b9081526001600160a01b03918216602082015291166040820152606081019190915260800190565b6068918254926000926040908151956020968781016810531313d5d31254d560ba1b918282526029938482015283815261595d81614218565b5190209760018060a01b0392607896848854169a875198632474521560e21b9c8d8b5260049a838c8201528d60248201528681604481855afa908115615a8f578e91615b66575b50615b15575b508b5b8851811015615ac85788838f8d89916159e18f8e6159cf89828c5416996151a9565b51169051958694859485528401614b1c565b0381855afa908115615abc578f91615a9f575b5015615a0a575b50615a0590614987565b6159ad565b84548b51888101918a835288820152878152615a2581614218565b5190209089615a34848d6151a9565b511691813b15615a9b57918f91615a63938f8f9085915196879586948593632f2ff15d60e01b85528401614b1c565b03925af18015615a8f57908e91615a7b575b506159fb565b615a8490614199565b61311b578c38615a75565b8e8c51903d90823e3d90fd5b8f80fd5b615ab69150883d8a11610bbd57610baf8183614233565b386159f4565b8f8d51903d90823e3d90fd5b505050935050959750507f7a2e396a5614184c0af2c60827c206595126faa1238b94e19823192de52e728a9550615b10929350549280805195869586528501528301906149cd565b0390a1565b803b1561311b578c8360448d838e51958694859363d547741f60e01b85528401528160248401525af18015615b5c57156159aa57615b55909c919c614199565b9a386159aa565b8a513d8f823e3d90fd5b615b7d9150873d8911610bbd57610baf8183614233565b386159a4565b6000915b8151831015615ced5760018060a01b03928360785416938360685495604096875160209081810192615c038388615be68b6810531313d5d31254d560ba1b988981526029978789820152888152615bdd81614218565b5190209a6151a9565b51168d5180938192632474521560e21b835260049b8c8401614b1c565b0381895afa908115615ce257600091615cc5575b50615c37575b50505050505050615c3091929350614987565b9190615b87565b8a51928301938452818301528152615c4e81614218565b51902092615c5c85886151a9565b511690803b15610b6e57615c8893600080948a519687958694859363d547741f60e01b85528401614b1c565b03925af18015615cba57615c3093949550615cab575b8493928180808080615c1d565b615cb490614199565b38615c9e565b85513d6000823e3d90fd5b615cdc9150843d8611610bbd57610baf8183614233565b38615c17565b8c513d6000823e3d90fd5b91507fd418c93b6b78d828a87ee1909e6fcdbbf2f8d8f540ad7b232bb3e221e6d7cc1e90606854615b1060405192839283526040602084015260408301906149cd565b60018060a01b0390600482607a54166020846078541660405193848092633629edcd60e11b82525afa918215614bf157600092615db2575b50803b15610b6e5760009283606492604051968795869463fc2ebdd160e01b865230600487015260248601521660448401525af18015614bf157615da95750565b6155df90614199565b615dcb91925060203d8111612340576123328183614233565b9038615d68565b6033546001600160a01b0316803b615de75790565b604051638da5cb5b60e01b8152602081600481855afa60009181615e0f575b5061509f575090565b90916020823d8211615e42575b81615e2960209383614233565b810103126103af5750615e3b90614996565b9038615e06565b3d9150615e1c56feec9315d9f4291207475c061feff1e5d7105750ac0ee9534af9444b4ff1dab9bc4910fdfa16fed3260ed0e7147f7cc6da11a60208b5b9406d12a635614ffd914370b752f3fadb6ac131c0ece847fcbb6994ec56ed6411595710fd9b29c6ac6cc146756e6374696f6e206d7573742062652063616c6c6564207468726f75676820360894a13ba1a3210667c828492db98dca3e2076cc3735a920a3ca505d382bbc0227f642ddcf2042ceaeafadb9d540f432072c00cd4862881667168dcc14710f8be0079c531659141344cd1fd0a4f28419497f9722a3daafe3b4186f6b6457e0bc7cd75a20ee27fd9adebab32041f755214dbc6bffa90cc0225b39da2e5c2d3be677e2878aaaaf6a65ecf50f849ad58100c49f6dfd57d055ba4bddd63a175d5345524331393637557067726164653a206e657720696d706c656d656e74617469a7932e9c92f31e1ed56b29d00bbe669a97484dc24de28dd9c8c0429df7f35847a2646970667358221220c9b06e06a1d28a9cfae8f4f3f1ff87dc88caeab2518707efe9b64aaa4c2ee7b564736f6c63430008130033","linkReferences":{}},"methodIdentifiers":{"D()":"0f529ba2","DISPUTE_COOLDOWN_SEC()":"f5be3f7c","MAX_STAKED_PROPOSALS()":"406244d8","NATIVE()":"a0cf0aea","RULING_OPTIONS()":"626c47e8","VERSION()":"ffa1ad74","activatePoints()":"814516ad","addToAllowList(address[])":"7263cfe2","allocate(bytes,address)":"ef2920fc","arbitrableConfigs(uint256)":"41bb7605","calculateConviction(uint256,uint256,uint256)":"346db8cb","calculateThreshold(uint256)":"59a5db8b","canExecuteProposal(uint256)":"824ea8ed","cancelProposal(uint256)":"e0a8f6f5","cloneNonce()":"33960459","collateralVault()":"0bece79c","currentArbitrableConfigVersion()":"125fd1d9","cvParams()":"2506b870","deactivatePoints()":"1ddf1e23","deactivatePoints(address)":"6453d9c4","decreasePower(address,uint256)":"2ed04b2b","disputeCount()":"a28889e1","disputeIdToProposalId(uint256)":"255ffb38","disputeProposal(uint256,string,bytes)":"b41596ec","distribute(address[],bytes,address)":"0a6f0ee9","getAllo()":"15cc481e","getArbitrableConfig()":"059351cd","getMaxAmount()":"0ba95909","getMaxConviction(uint256)":"950559d7","getMetadata(uint256)":"a574cea4","getPayouts(address[],bytes[])":"b2b878d0","getPointSystem()":"c3292171","getPoolAmount()":"4ab4ba42","getPoolId()":"38fff2d0","getProposal(uint256)":"c7f758a8","getProposalStakedAmount(uint256)":"dc96ff2d","getProposalVoterStake(uint256,address)":"e0dd2c38","getRecipientStatus(address)":"eb11af93","getStrategyId()":"42fda9c7","getTotalVoterStakePct(address)":"bcc5b93b","increasePoolAmount(uint256)":"f5b0dfb7","increasePower(address,uint256)":"782aadff","init(address,address,address)":"184b9559","init(address,string,address)":"60d5dedc","initialize(address)":"c4d66de8","initialize(uint256,bytes)":"edd146cc","isPoolActive()":"df868ed3","isValidAllocator(address)":"4d31d087","owner()":"8da5cb5b","pointConfig()":"a47ff7e5","pointSystem()":"2dbd6fdd","proposalCounter()":"0c0512e9","proposalType()":"351d9f96","proposals(uint256)":"013cf08b","proxiableUUID()":"52d1902d","registerRecipient(bytes,address)":"2bbe0cae","registryCommunity()":"6003e414","removeFromAllowList(address[])":"a51312c8","renounceOwnership()":"715018a6","rule(uint256,uint256)":"311a6c56","setCollateralVaultTemplate(address)":"b0d3713a","setPoolActive(bool)":"b5f620ce","setPoolParams((address,address,uint256,uint256,uint256,uint256),(uint256,uint256,uint256,uint256),address[],address[])":"948e7a59","setPoolParams((address,address,uint256,uint256,uint256,uint256),(uint256,uint256,uint256,uint256),uint256)":"ad56fd5d","setSybilScorer(address,uint256)":"3864d366","supportsInterface(bytes4)":"01ffc9a7","sybilScorer()":"b6c61f31","totalEffectiveActivePoints()":"d1e36232","totalPointsActivated()":"aba9ffee","totalStaked()":"817b1cd2","totalVoterStakePct(address)":"5db64b99","transferOwnership(address)":"f2fde38b","updateProposalConviction(uint256)":"1aa91a9e","upgradeTo(address)":"3659cfe6","upgradeToAndCall(address,bytes)":"4f1ef286","voterStakedProposals(address,uint256)":"868c57b8"},"storageLayout":{"storage":[{"astId":52287,"contract":"pkg/contracts/src/CVStrategy/CVStrategyV0_0.sol:CVStrategyV0_0","label":"_initialized","offset":0,"slot":"0","type":"t_uint8"},{"astId":52290,"contract":"pkg/contracts/src/CVStrategy/CVStrategyV0_0.sol:CVStrategyV0_0","label":"_initializing","offset":1,"slot":"0","type":"t_bool"},{"astId":52992,"contract":"pkg/contracts/src/CVStrategy/CVStrategyV0_0.sol:CVStrategyV0_0","label":"__gap","offset":0,"slot":"1","type":"t_array(t_uint256)50_storage"},{"astId":52079,"contract":"pkg/contracts/src/CVStrategy/CVStrategyV0_0.sol:CVStrategyV0_0","label":"_owner","offset":0,"slot":"51","type":"t_address"},{"astId":52199,"contract":"pkg/contracts/src/CVStrategy/CVStrategyV0_0.sol:CVStrategyV0_0","label":"__gap","offset":0,"slot":"52","type":"t_array(t_uint256)49_storage"},{"astId":64725,"contract":"pkg/contracts/src/CVStrategy/CVStrategyV0_0.sol:CVStrategyV0_0","label":"allo","offset":0,"slot":"101","type":"t_contract(IAllo)2610"},{"astId":64727,"contract":"pkg/contracts/src/CVStrategy/CVStrategyV0_0.sol:CVStrategyV0_0","label":"strategyId","offset":0,"slot":"102","type":"t_bytes32"},{"astId":64729,"contract":"pkg/contracts/src/CVStrategy/CVStrategyV0_0.sol:CVStrategyV0_0","label":"poolActive","offset":0,"slot":"103","type":"t_bool"},{"astId":64731,"contract":"pkg/contracts/src/CVStrategy/CVStrategyV0_0.sol:CVStrategyV0_0","label":"poolId","offset":0,"slot":"104","type":"t_uint256"},{"astId":64733,"contract":"pkg/contracts/src/CVStrategy/CVStrategyV0_0.sol:CVStrategyV0_0","label":"poolAmount","offset":0,"slot":"105","type":"t_uint256"},{"astId":65824,"contract":"pkg/contracts/src/CVStrategy/CVStrategyV0_0.sol:CVStrategyV0_0","label":"collateralVaultTemplate","offset":0,"slot":"106","type":"t_address"},{"astId":65826,"contract":"pkg/contracts/src/CVStrategy/CVStrategyV0_0.sol:CVStrategyV0_0","label":"surpressStateMutabilityWarning","offset":0,"slot":"107","type":"t_uint256"},{"astId":65828,"contract":"pkg/contracts/src/CVStrategy/CVStrategyV0_0.sol:CVStrategyV0_0","label":"cloneNonce","offset":0,"slot":"108","type":"t_uint256"},{"astId":65830,"contract":"pkg/contracts/src/CVStrategy/CVStrategyV0_0.sol:CVStrategyV0_0","label":"disputeCount","offset":0,"slot":"109","type":"t_uint64"},{"astId":65832,"contract":"pkg/contracts/src/CVStrategy/CVStrategyV0_0.sol:CVStrategyV0_0","label":"proposalCounter","offset":0,"slot":"110","type":"t_uint256"},{"astId":65834,"contract":"pkg/contracts/src/CVStrategy/CVStrategyV0_0.sol:CVStrategyV0_0","label":"currentArbitrableConfigVersion","offset":0,"slot":"111","type":"t_uint256"},{"astId":65836,"contract":"pkg/contracts/src/CVStrategy/CVStrategyV0_0.sol:CVStrategyV0_0","label":"totalStaked","offset":0,"slot":"112","type":"t_uint256"},{"astId":65838,"contract":"pkg/contracts/src/CVStrategy/CVStrategyV0_0.sol:CVStrategyV0_0","label":"totalPointsActivated","offset":0,"slot":"113","type":"t_uint256"},{"astId":65841,"contract":"pkg/contracts/src/CVStrategy/CVStrategyV0_0.sol:CVStrategyV0_0","label":"cvParams","offset":0,"slot":"114","type":"t_struct(CVParams)65488_storage"},{"astId":65844,"contract":"pkg/contracts/src/CVStrategy/CVStrategyV0_0.sol:CVStrategyV0_0","label":"proposalType","offset":0,"slot":"118","type":"t_enum(ProposalType)65391"},{"astId":65847,"contract":"pkg/contracts/src/CVStrategy/CVStrategyV0_0.sol:CVStrategyV0_0","label":"pointSystem","offset":1,"slot":"118","type":"t_enum(PointSystem)65396"},{"astId":65850,"contract":"pkg/contracts/src/CVStrategy/CVStrategyV0_0.sol:CVStrategyV0_0","label":"pointConfig","offset":0,"slot":"119","type":"t_struct(PointSystemConfig)65465_storage"},{"astId":65853,"contract":"pkg/contracts/src/CVStrategy/CVStrategyV0_0.sol:CVStrategyV0_0","label":"registryCommunity","offset":0,"slot":"120","type":"t_contract(RegistryCommunityV0_0)72559"},{"astId":65856,"contract":"pkg/contracts/src/CVStrategy/CVStrategyV0_0.sol:CVStrategyV0_0","label":"collateralVault","offset":0,"slot":"121","type":"t_contract(ICollateralVault)74043"},{"astId":65859,"contract":"pkg/contracts/src/CVStrategy/CVStrategyV0_0.sol:CVStrategyV0_0","label":"sybilScorer","offset":0,"slot":"122","type":"t_contract(ISybilScorer)69886"},{"astId":65864,"contract":"pkg/contracts/src/CVStrategy/CVStrategyV0_0.sol:CVStrategyV0_0","label":"proposals","offset":0,"slot":"123","type":"t_mapping(t_uint256,t_struct(Proposal)65457_storage)"},{"astId":65868,"contract":"pkg/contracts/src/CVStrategy/CVStrategyV0_0.sol:CVStrategyV0_0","label":"totalVoterStakePct","offset":0,"slot":"124","type":"t_mapping(t_address,t_uint256)"},{"astId":65873,"contract":"pkg/contracts/src/CVStrategy/CVStrategyV0_0.sol:CVStrategyV0_0","label":"voterStakedProposals","offset":0,"slot":"125","type":"t_mapping(t_address,t_array(t_uint256)dyn_storage)"},{"astId":65877,"contract":"pkg/contracts/src/CVStrategy/CVStrategyV0_0.sol:CVStrategyV0_0","label":"disputeIdToProposalId","offset":0,"slot":"126","type":"t_mapping(t_uint256,t_uint256)"},{"astId":65882,"contract":"pkg/contracts/src/CVStrategy/CVStrategyV0_0.sol:CVStrategyV0_0","label":"arbitrableConfigs","offset":0,"slot":"127","type":"t_mapping(t_uint256,t_struct(ArbitrableConfig)65479_storage)"},{"astId":69537,"contract":"pkg/contracts/src/CVStrategy/CVStrategyV0_0.sol:CVStrategyV0_0","label":"__gap","offset":0,"slot":"128","type":"t_array(t_uint256)50_storage"}],"types":{"t_address":{"encoding":"inplace","label":"address","numberOfBytes":"20"},"t_array(t_uint256)49_storage":{"encoding":"inplace","label":"uint256[49]","numberOfBytes":"1568","base":"t_uint256"},"t_array(t_uint256)50_storage":{"encoding":"inplace","label":"uint256[50]","numberOfBytes":"1600","base":"t_uint256"},"t_array(t_uint256)dyn_storage":{"encoding":"dynamic_array","label":"uint256[]","numberOfBytes":"32","base":"t_uint256"},"t_bool":{"encoding":"inplace","label":"bool","numberOfBytes":"1"},"t_bytes32":{"encoding":"inplace","label":"bytes32","numberOfBytes":"32"},"t_contract(IAllo)2610":{"encoding":"inplace","label":"contract IAllo","numberOfBytes":"20"},"t_contract(IArbitrator)74010":{"encoding":"inplace","label":"contract IArbitrator","numberOfBytes":"20"},"t_contract(ICollateralVault)74043":{"encoding":"inplace","label":"contract ICollateralVault","numberOfBytes":"20"},"t_contract(ISybilScorer)69886":{"encoding":"inplace","label":"contract ISybilScorer","numberOfBytes":"20"},"t_contract(RegistryCommunityV0_0)72559":{"encoding":"inplace","label":"contract RegistryCommunityV0_0","numberOfBytes":"20"},"t_enum(PointSystem)65396":{"encoding":"inplace","label":"enum PointSystem","numberOfBytes":"1"},"t_enum(ProposalStatus)65416":{"encoding":"inplace","label":"enum ProposalStatus","numberOfBytes":"1"},"t_enum(ProposalType)65391":{"encoding":"inplace","label":"enum ProposalType","numberOfBytes":"1"},"t_mapping(t_address,t_array(t_uint256)dyn_storage)":{"encoding":"mapping","key":"t_address","label":"mapping(address => uint256[])","numberOfBytes":"32","value":"t_array(t_uint256)dyn_storage"},"t_mapping(t_address,t_uint256)":{"encoding":"mapping","key":"t_address","label":"mapping(address => uint256)","numberOfBytes":"32","value":"t_uint256"},"t_mapping(t_uint256,t_struct(ArbitrableConfig)65479_storage)":{"encoding":"mapping","key":"t_uint256","label":"mapping(uint256 => struct ArbitrableConfig)","numberOfBytes":"32","value":"t_struct(ArbitrableConfig)65479_storage"},"t_mapping(t_uint256,t_struct(Proposal)65457_storage)":{"encoding":"mapping","key":"t_uint256","label":"mapping(uint256 => struct Proposal)","numberOfBytes":"32","value":"t_struct(Proposal)65457_storage"},"t_mapping(t_uint256,t_uint256)":{"encoding":"mapping","key":"t_uint256","label":"mapping(uint256 => uint256)","numberOfBytes":"32","value":"t_uint256"},"t_string_storage":{"encoding":"bytes","label":"string","numberOfBytes":"32"},"t_struct(ArbitrableConfig)65479_storage":{"encoding":"inplace","label":"struct ArbitrableConfig","numberOfBytes":"192","members":[{"astId":65468,"contract":"pkg/contracts/src/CVStrategy/CVStrategyV0_0.sol:CVStrategyV0_0","label":"arbitrator","offset":0,"slot":"0","type":"t_contract(IArbitrator)74010"},{"astId":65470,"contract":"pkg/contracts/src/CVStrategy/CVStrategyV0_0.sol:CVStrategyV0_0","label":"tribunalSafe","offset":0,"slot":"1","type":"t_address"},{"astId":65472,"contract":"pkg/contracts/src/CVStrategy/CVStrategyV0_0.sol:CVStrategyV0_0","label":"submitterCollateralAmount","offset":0,"slot":"2","type":"t_uint256"},{"astId":65474,"contract":"pkg/contracts/src/CVStrategy/CVStrategyV0_0.sol:CVStrategyV0_0","label":"challengerCollateralAmount","offset":0,"slot":"3","type":"t_uint256"},{"astId":65476,"contract":"pkg/contracts/src/CVStrategy/CVStrategyV0_0.sol:CVStrategyV0_0","label":"defaultRuling","offset":0,"slot":"4","type":"t_uint256"},{"astId":65478,"contract":"pkg/contracts/src/CVStrategy/CVStrategyV0_0.sol:CVStrategyV0_0","label":"defaultRulingTimeout","offset":0,"slot":"5","type":"t_uint256"}]},"t_struct(CVParams)65488_storage":{"encoding":"inplace","label":"struct CVParams","numberOfBytes":"128","members":[{"astId":65481,"contract":"pkg/contracts/src/CVStrategy/CVStrategyV0_0.sol:CVStrategyV0_0","label":"maxRatio","offset":0,"slot":"0","type":"t_uint256"},{"astId":65483,"contract":"pkg/contracts/src/CVStrategy/CVStrategyV0_0.sol:CVStrategyV0_0","label":"weight","offset":0,"slot":"1","type":"t_uint256"},{"astId":65485,"contract":"pkg/contracts/src/CVStrategy/CVStrategyV0_0.sol:CVStrategyV0_0","label":"decay","offset":0,"slot":"2","type":"t_uint256"},{"astId":65487,"contract":"pkg/contracts/src/CVStrategy/CVStrategyV0_0.sol:CVStrategyV0_0","label":"minThresholdPoints","offset":0,"slot":"3","type":"t_uint256"}]},"t_struct(Metadata)3098_storage":{"encoding":"inplace","label":"struct Metadata","numberOfBytes":"64","members":[{"astId":3094,"contract":"pkg/contracts/src/CVStrategy/CVStrategyV0_0.sol:CVStrategyV0_0","label":"protocol","offset":0,"slot":"0","type":"t_uint256"},{"astId":3097,"contract":"pkg/contracts/src/CVStrategy/CVStrategyV0_0.sol:CVStrategyV0_0","label":"pointer","offset":0,"slot":"1","type":"t_string_storage"}]},"t_struct(PointSystemConfig)65465_storage":{"encoding":"inplace","label":"struct PointSystemConfig","numberOfBytes":"32","members":[{"astId":65464,"contract":"pkg/contracts/src/CVStrategy/CVStrategyV0_0.sol:CVStrategyV0_0","label":"maxAmount","offset":0,"slot":"0","type":"t_uint256"}]},"t_struct(Proposal)65457_storage":{"encoding":"inplace","label":"struct Proposal","numberOfBytes":"544","members":[{"astId":65425,"contract":"pkg/contracts/src/CVStrategy/CVStrategyV0_0.sol:CVStrategyV0_0","label":"proposalId","offset":0,"slot":"0","type":"t_uint256"},{"astId":65427,"contract":"pkg/contracts/src/CVStrategy/CVStrategyV0_0.sol:CVStrategyV0_0","label":"requestedAmount","offset":0,"slot":"1","type":"t_uint256"},{"astId":65429,"contract":"pkg/contracts/src/CVStrategy/CVStrategyV0_0.sol:CVStrategyV0_0","label":"stakedAmount","offset":0,"slot":"2","type":"t_uint256"},{"astId":65431,"contract":"pkg/contracts/src/CVStrategy/CVStrategyV0_0.sol:CVStrategyV0_0","label":"convictionLast","offset":0,"slot":"3","type":"t_uint256"},{"astId":65433,"contract":"pkg/contracts/src/CVStrategy/CVStrategyV0_0.sol:CVStrategyV0_0","label":"beneficiary","offset":0,"slot":"4","type":"t_address"},{"astId":65435,"contract":"pkg/contracts/src/CVStrategy/CVStrategyV0_0.sol:CVStrategyV0_0","label":"submitter","offset":0,"slot":"5","type":"t_address"},{"astId":65437,"contract":"pkg/contracts/src/CVStrategy/CVStrategyV0_0.sol:CVStrategyV0_0","label":"requestedToken","offset":0,"slot":"6","type":"t_address"},{"astId":65439,"contract":"pkg/contracts/src/CVStrategy/CVStrategyV0_0.sol:CVStrategyV0_0","label":"blockLast","offset":0,"slot":"7","type":"t_uint256"},{"astId":65442,"contract":"pkg/contracts/src/CVStrategy/CVStrategyV0_0.sol:CVStrategyV0_0","label":"proposalStatus","offset":0,"slot":"8","type":"t_enum(ProposalStatus)65416"},{"astId":65446,"contract":"pkg/contracts/src/CVStrategy/CVStrategyV0_0.sol:CVStrategyV0_0","label":"voterStakedPoints","offset":0,"slot":"9","type":"t_mapping(t_address,t_uint256)"},{"astId":65449,"contract":"pkg/contracts/src/CVStrategy/CVStrategyV0_0.sol:CVStrategyV0_0","label":"metadata","offset":0,"slot":"10","type":"t_struct(Metadata)3098_storage"},{"astId":65452,"contract":"pkg/contracts/src/CVStrategy/CVStrategyV0_0.sol:CVStrategyV0_0","label":"disputeInfo","offset":0,"slot":"12","type":"t_struct(ProposalDisputeInfo)65423_storage"},{"astId":65454,"contract":"pkg/contracts/src/CVStrategy/CVStrategyV0_0.sol:CVStrategyV0_0","label":"lastDisputeCompletion","offset":0,"slot":"15","type":"t_uint256"},{"astId":65456,"contract":"pkg/contracts/src/CVStrategy/CVStrategyV0_0.sol:CVStrategyV0_0","label":"arbitrableConfigVersion","offset":0,"slot":"16","type":"t_uint256"}]},"t_struct(ProposalDisputeInfo)65423_storage":{"encoding":"inplace","label":"struct ProposalDisputeInfo","numberOfBytes":"96","members":[{"astId":65418,"contract":"pkg/contracts/src/CVStrategy/CVStrategyV0_0.sol:CVStrategyV0_0","label":"disputeId","offset":0,"slot":"0","type":"t_uint256"},{"astId":65420,"contract":"pkg/contracts/src/CVStrategy/CVStrategyV0_0.sol:CVStrategyV0_0","label":"disputeTimestamp","offset":0,"slot":"1","type":"t_uint256"},{"astId":65422,"contract":"pkg/contracts/src/CVStrategy/CVStrategyV0_0.sol:CVStrategyV0_0","label":"challenger","offset":0,"slot":"2","type":"t_address"}]},"t_uint256":{"encoding":"inplace","label":"uint256","numberOfBytes":"32"},"t_uint64":{"encoding":"inplace","label":"uint64","numberOfBytes":"8"},"t_uint8":{"encoding":"inplace","label":"uint8","numberOfBytes":"1"}}},"id":97}