{"abi":[{"type":"fallback","stateMutability":"payable"},{"type":"receive","stateMutability":"payable"},{"type":"function","name":"D","inputs":[],"outputs":[{"name":"","type":"uint256","internalType":"uint256"}],"stateMutability":"view"},{"type":"function","name":"DISPUTE_COOLDOWN_SEC","inputs":[],"outputs":[{"name":"","type":"uint256","internalType":"uint256"}],"stateMutability":"view"},{"type":"function","name":"MAX_STAKED_PROPOSALS","inputs":[],"outputs":[{"name":"","type":"uint256","internalType":"uint256"}],"stateMutability":"view"},{"type":"function","name":"NATIVE","inputs":[],"outputs":[{"name":"","type":"address","internalType":"address"}],"stateMutability":"view"},{"type":"function","name":"RULING_OPTIONS","inputs":[],"outputs":[{"name":"","type":"uint256","internalType":"uint256"}],"stateMutability":"view"},{"type":"function","name":"VERSION","inputs":[],"outputs":[{"name":"","type":"string","internalType":"string"}],"stateMutability":"view"},{"type":"function","name":"activatePoints","inputs":[],"outputs":[],"stateMutability":"nonpayable"},{"type":"function","name":"addToAllowList","inputs":[{"name":"members","type":"address[]","internalType":"address[]"}],"outputs":[],"stateMutability":"nonpayable"},{"type":"function","name":"allocate","inputs":[{"name":"_data","type":"bytes","internalType":"bytes"},{"name":"_sender","type":"address","internalType":"address"}],"outputs":[],"stateMutability":"payable"},{"type":"function","name":"arbitrableConfigs","inputs":[{"name":"","type":"uint256","internalType":"uint256"}],"outputs":[{"name":"arbitrator","type":"address","internalType":"contract IArbitrator"},{"name":"tribunalSafe","type":"address","internalType":"address"},{"name":"submitterCollateralAmount","type":"uint256","internalType":"uint256"},{"name":"challengerCollateralAmount","type":"uint256","internalType":"uint256"},{"name":"defaultRuling","type":"uint256","internalType":"uint256"},{"name":"defaultRulingTimeout","type":"uint256","internalType":"uint256"}],"stateMutability":"view"},{"type":"function","name":"calculateConviction","inputs":[{"name":"_timePassed","type":"uint256","internalType":"uint256"},{"name":"_lastConv","type":"uint256","internalType":"uint256"},{"name":"_oldAmount","type":"uint256","internalType":"uint256"}],"outputs":[{"name":"","type":"uint256","internalType":"uint256"}],"stateMutability":"view"},{"type":"function","name":"calculateProposalConviction","inputs":[{"name":"_proposalId","type":"uint256","internalType":"uint256"}],"outputs":[{"name":"","type":"uint256","internalType":"uint256"}],"stateMutability":"view"},{"type":"function","name":"calculateThreshold","inputs":[{"name":"_requestedAmount","type":"uint256","internalType":"uint256"}],"outputs":[{"name":"_threshold","type":"uint256","internalType":"uint256"}],"stateMutability":"view"},{"type":"function","name":"calculateThresholdOverride","inputs":[],"outputs":[{"name":"","type":"uint256","internalType":"uint256"}],"stateMutability":"view"},{"type":"function","name":"canExecuteProposal","inputs":[{"name":"proposalId","type":"uint256","internalType":"uint256"}],"outputs":[{"name":"canBeExecuted","type":"bool","internalType":"bool"}],"stateMutability":"view"},{"type":"function","name":"cancelProposal","inputs":[{"name":"proposalId","type":"uint256","internalType":"uint256"}],"outputs":[],"stateMutability":"nonpayable"},{"type":"function","name":"cloneNonce","inputs":[],"outputs":[{"name":"","type":"uint256","internalType":"uint256"}],"stateMutability":"view"},{"type":"function","name":"collateralVault","inputs":[],"outputs":[{"name":"","type":"address","internalType":"contract ICollateralVault"}],"stateMutability":"view"},{"type":"function","name":"currentArbitrableConfigVersion","inputs":[],"outputs":[{"name":"","type":"uint256","internalType":"uint256"}],"stateMutability":"view"},{"type":"function","name":"cvParams","inputs":[],"outputs":[{"name":"maxRatio","type":"uint256","internalType":"uint256"},{"name":"weight","type":"uint256","internalType":"uint256"},{"name":"decay","type":"uint256","internalType":"uint256"},{"name":"minThresholdPoints","type":"uint256","internalType":"uint256"}],"stateMutability":"view"},{"type":"function","name":"deactivatePoints","inputs":[],"outputs":[],"stateMutability":"nonpayable"},{"type":"function","name":"deactivatePoints","inputs":[{"name":"_member","type":"address","internalType":"address"}],"outputs":[],"stateMutability":"nonpayable"},{"type":"function","name":"decreasePower","inputs":[{"name":"_member","type":"address","internalType":"address"},{"name":"_amountToUnstake","type":"uint256","internalType":"uint256"}],"outputs":[{"name":"","type":"uint256","internalType":"uint256"}],"stateMutability":"nonpayable"},{"type":"function","name":"disputeCount","inputs":[],"outputs":[{"name":"","type":"uint64","internalType":"uint64"}],"stateMutability":"view"},{"type":"function","name":"disputeIdToProposalId","inputs":[{"name":"","type":"uint256","internalType":"uint256"}],"outputs":[{"name":"","type":"uint256","internalType":"uint256"}],"stateMutability":"view"},{"type":"function","name":"disputeProposal","inputs":[{"name":"proposalId","type":"uint256","internalType":"uint256"},{"name":"context","type":"string","internalType":"string"},{"name":"_extraData","type":"bytes","internalType":"bytes"}],"outputs":[{"name":"disputeId","type":"uint256","internalType":"uint256"}],"stateMutability":"payable"},{"type":"function","name":"distribute","inputs":[{"name":"_recipientIds","type":"address[]","internalType":"address[]"},{"name":"_data","type":"bytes","internalType":"bytes"},{"name":"_sender","type":"address","internalType":"address"}],"outputs":[],"stateMutability":"nonpayable"},{"type":"function","name":"getAllo","inputs":[],"outputs":[{"name":"","type":"address","internalType":"contract IAllo"}],"stateMutability":"view"},{"type":"function","name":"getArbitrableConfig","inputs":[],"outputs":[{"name":"arbitrator","type":"address","internalType":"contract IArbitrator"},{"name":"tribunalSafe","type":"address","internalType":"address"},{"name":"submitterCollateralAmount","type":"uint256","internalType":"uint256"},{"name":"challengerCollateralAmount","type":"uint256","internalType":"uint256"},{"name":"defaultRuling","type":"uint256","internalType":"uint256"},{"name":"defaultRulingTimeout","type":"uint256","internalType":"uint256"}],"stateMutability":"view"},{"type":"function","name":"getMaxConviction","inputs":[{"name":"amount","type":"uint256","internalType":"uint256"}],"outputs":[{"name":"","type":"uint256","internalType":"uint256"}],"stateMutability":"view"},{"type":"function","name":"getPayouts","inputs":[{"name":"","type":"address[]","internalType":"address[]"},{"name":"","type":"bytes[]","internalType":"bytes[]"}],"outputs":[{"name":"","type":"tuple[]","internalType":"struct IStrategy.PayoutSummary[]","components":[{"name":"recipientAddress","type":"address","internalType":"address"},{"name":"amount","type":"uint256","internalType":"uint256"}]}],"stateMutability":"pure"},{"type":"function","name":"getPointSystem","inputs":[],"outputs":[{"name":"","type":"uint8","internalType":"enum PointSystem"}],"stateMutability":"view"},{"type":"function","name":"getPoolAmount","inputs":[],"outputs":[{"name":"","type":"uint256","internalType":"uint256"}],"stateMutability":"view"},{"type":"function","name":"getPoolId","inputs":[],"outputs":[{"name":"","type":"uint256","internalType":"uint256"}],"stateMutability":"view"},{"type":"function","name":"getProposal","inputs":[{"name":"_proposalId","type":"uint256","internalType":"uint256"}],"outputs":[{"name":"submitter","type":"address","internalType":"address"},{"name":"beneficiary","type":"address","internalType":"address"},{"name":"requestedToken","type":"address","internalType":"address"},{"name":"requestedAmount","type":"uint256","internalType":"uint256"},{"name":"stakedAmount","type":"uint256","internalType":"uint256"},{"name":"proposalStatus","type":"uint8","internalType":"enum ProposalStatus"},{"name":"blockLast","type":"uint256","internalType":"uint256"},{"name":"convictionLast","type":"uint256","internalType":"uint256"},{"name":"threshold","type":"uint256","internalType":"uint256"},{"name":"voterStakedPoints","type":"uint256","internalType":"uint256"},{"name":"arbitrableConfigVersion","type":"uint256","internalType":"uint256"}],"stateMutability":"view"},{"type":"function","name":"getProposalStakedAmount","inputs":[{"name":"_proposalId","type":"uint256","internalType":"uint256"}],"outputs":[{"name":"","type":"uint256","internalType":"uint256"}],"stateMutability":"view"},{"type":"function","name":"getProposalVoterStake","inputs":[{"name":"_proposalId","type":"uint256","internalType":"uint256"},{"name":"_voter","type":"address","internalType":"address"}],"outputs":[{"name":"","type":"uint256","internalType":"uint256"}],"stateMutability":"view"},{"type":"function","name":"getRecipientStatus","inputs":[{"name":"_recipientId","type":"address","internalType":"address"}],"outputs":[{"name":"","type":"uint8","internalType":"enum IStrategy.Status"}],"stateMutability":"view"},{"type":"function","name":"getStrategyId","inputs":[],"outputs":[{"name":"","type":"bytes32","internalType":"bytes32"}],"stateMutability":"view"},{"type":"function","name":"increasePoolAmount","inputs":[{"name":"_amount","type":"uint256","internalType":"uint256"}],"outputs":[],"stateMutability":"nonpayable"},{"type":"function","name":"increasePower","inputs":[{"name":"_member","type":"address","internalType":"address"},{"name":"_amountToStake","type":"uint256","internalType":"uint256"}],"outputs":[{"name":"","type":"uint256","internalType":"uint256"}],"stateMutability":"nonpayable"},{"type":"function","name":"init","inputs":[{"name":"_allo","type":"address","internalType":"address"},{"name":"_collateralVaultTemplate","type":"address","internalType":"address"},{"name":"_owner","type":"address","internalType":"address"}],"outputs":[],"stateMutability":"nonpayable"},{"type":"function","name":"init","inputs":[{"name":"_allo","type":"address","internalType":"address"},{"name":"_name","type":"string","internalType":"string"},{"name":"owner","type":"address","internalType":"address"}],"outputs":[],"stateMutability":"nonpayable"},{"type":"function","name":"initialize","inputs":[{"name":"initialOwner","type":"address","internalType":"address"}],"outputs":[],"stateMutability":"nonpayable"},{"type":"function","name":"initialize","inputs":[{"name":"_poolId","type":"uint256","internalType":"uint256"},{"name":"_data","type":"bytes","internalType":"bytes"}],"outputs":[],"stateMutability":"nonpayable"},{"type":"function","name":"isPoolActive","inputs":[],"outputs":[{"name":"","type":"bool","internalType":"bool"}],"stateMutability":"view"},{"type":"function","name":"isValidAllocator","inputs":[{"name":"_allocator","type":"address","internalType":"address"}],"outputs":[{"name":"","type":"bool","internalType":"bool"}],"stateMutability":"view"},{"type":"function","name":"owner","inputs":[],"outputs":[{"name":"","type":"address","internalType":"address"}],"stateMutability":"view"},{"type":"function","name":"pointConfig","inputs":[],"outputs":[{"name":"maxAmount","type":"uint256","internalType":"uint256"}],"stateMutability":"view"},{"type":"function","name":"pointSystem","inputs":[],"outputs":[{"name":"","type":"uint8","internalType":"enum PointSystem"}],"stateMutability":"view"},{"type":"function","name":"proposalCounter","inputs":[],"outputs":[{"name":"","type":"uint256","internalType":"uint256"}],"stateMutability":"view"},{"type":"function","name":"proposalType","inputs":[],"outputs":[{"name":"","type":"uint8","internalType":"enum ProposalType"}],"stateMutability":"view"},{"type":"function","name":"proposals","inputs":[{"name":"","type":"uint256","internalType":"uint256"}],"outputs":[{"name":"proposalId","type":"uint256","internalType":"uint256"},{"name":"requestedAmount","type":"uint256","internalType":"uint256"},{"name":"stakedAmount","type":"uint256","internalType":"uint256"},{"name":"convictionLast","type":"uint256","internalType":"uint256"},{"name":"beneficiary","type":"address","internalType":"address"},{"name":"submitter","type":"address","internalType":"address"},{"name":"requestedToken","type":"address","internalType":"address"},{"name":"blockLast","type":"uint256","internalType":"uint256"},{"name":"proposalStatus","type":"uint8","internalType":"enum ProposalStatus"},{"name":"metadata","type":"tuple","internalType":"struct Metadata","components":[{"name":"protocol","type":"uint256","internalType":"uint256"},{"name":"pointer","type":"string","internalType":"string"}]},{"name":"disputeInfo","type":"tuple","internalType":"struct ProposalDisputeInfo","components":[{"name":"disputeId","type":"uint256","internalType":"uint256"},{"name":"disputeTimestamp","type":"uint256","internalType":"uint256"},{"name":"challenger","type":"address","internalType":"address"}]},{"name":"lastDisputeCompletion","type":"uint256","internalType":"uint256"},{"name":"arbitrableConfigVersion","type":"uint256","internalType":"uint256"}],"stateMutability":"view"},{"type":"function","name":"proxiableUUID","inputs":[],"outputs":[{"name":"","type":"bytes32","internalType":"bytes32"}],"stateMutability":"view"},{"type":"function","name":"proxyOwner","inputs":[],"outputs":[{"name":"","type":"address","internalType":"address"}],"stateMutability":"view"},{"type":"function","name":"registerRecipient","inputs":[{"name":"_data","type":"bytes","internalType":"bytes"},{"name":"_sender","type":"address","internalType":"address"}],"outputs":[{"name":"recipientId","type":"address","internalType":"address"}],"stateMutability":"payable"},{"type":"function","name":"registryCommunity","inputs":[],"outputs":[{"name":"","type":"address","internalType":"contract RegistryCommunityV0_0"}],"stateMutability":"view"},{"type":"function","name":"removeFromAllowList","inputs":[{"name":"members","type":"address[]","internalType":"address[]"}],"outputs":[],"stateMutability":"nonpayable"},{"type":"function","name":"renounceOwnership","inputs":[],"outputs":[],"stateMutability":"nonpayable"},{"type":"function","name":"rule","inputs":[{"name":"_disputeID","type":"uint256","internalType":"uint256"},{"name":"_ruling","type":"uint256","internalType":"uint256"}],"outputs":[],"stateMutability":"nonpayable"},{"type":"function","name":"setCollateralVaultTemplate","inputs":[{"name":"template","type":"address","internalType":"address"}],"outputs":[],"stateMutability":"nonpayable"},{"type":"function","name":"setPoolActive","inputs":[{"name":"_active","type":"bool","internalType":"bool"}],"outputs":[],"stateMutability":"nonpayable"},{"type":"function","name":"setPoolParams","inputs":[{"name":"_arbitrableConfig","type":"tuple","internalType":"struct ArbitrableConfig","components":[{"name":"arbitrator","type":"address","internalType":"contract IArbitrator"},{"name":"tribunalSafe","type":"address","internalType":"address"},{"name":"submitterCollateralAmount","type":"uint256","internalType":"uint256"},{"name":"challengerCollateralAmount","type":"uint256","internalType":"uint256"},{"name":"defaultRuling","type":"uint256","internalType":"uint256"},{"name":"defaultRulingTimeout","type":"uint256","internalType":"uint256"}]},{"name":"_cvParams","type":"tuple","internalType":"struct CVParams","components":[{"name":"maxRatio","type":"uint256","internalType":"uint256"},{"name":"weight","type":"uint256","internalType":"uint256"},{"name":"decay","type":"uint256","internalType":"uint256"},{"name":"minThresholdPoints","type":"uint256","internalType":"uint256"}]}],"outputs":[],"stateMutability":"nonpayable"},{"type":"function","name":"setPoolParams","inputs":[{"name":"_arbitrableConfig","type":"tuple","internalType":"struct ArbitrableConfig","components":[{"name":"arbitrator","type":"address","internalType":"contract IArbitrator"},{"name":"tribunalSafe","type":"address","internalType":"address"},{"name":"submitterCollateralAmount","type":"uint256","internalType":"uint256"},{"name":"challengerCollateralAmount","type":"uint256","internalType":"uint256"},{"name":"defaultRuling","type":"uint256","internalType":"uint256"},{"name":"defaultRulingTimeout","type":"uint256","internalType":"uint256"}]},{"name":"_cvParams","type":"tuple","internalType":"struct CVParams","components":[{"name":"maxRatio","type":"uint256","internalType":"uint256"},{"name":"weight","type":"uint256","internalType":"uint256"},{"name":"decay","type":"uint256","internalType":"uint256"},{"name":"minThresholdPoints","type":"uint256","internalType":"uint256"}]},{"name":"membersToAdd","type":"address[]","internalType":"address[]"},{"name":"membersToRemove","type":"address[]","internalType":"address[]"}],"outputs":[],"stateMutability":"nonpayable"},{"type":"function","name":"setPoolParams","inputs":[{"name":"_arbitrableConfig","type":"tuple","internalType":"struct ArbitrableConfig","components":[{"name":"arbitrator","type":"address","internalType":"contract IArbitrator"},{"name":"tribunalSafe","type":"address","internalType":"address"},{"name":"submitterCollateralAmount","type":"uint256","internalType":"uint256"},{"name":"challengerCollateralAmount","type":"uint256","internalType":"uint256"},{"name":"defaultRuling","type":"uint256","internalType":"uint256"},{"name":"defaultRulingTimeout","type":"uint256","internalType":"uint256"}]},{"name":"_cvParams","type":"tuple","internalType":"struct CVParams","components":[{"name":"maxRatio","type":"uint256","internalType":"uint256"},{"name":"weight","type":"uint256","internalType":"uint256"},{"name":"decay","type":"uint256","internalType":"uint256"},{"name":"minThresholdPoints","type":"uint256","internalType":"uint256"}]},{"name":"sybilScoreThreshold","type":"uint256","internalType":"uint256"}],"outputs":[],"stateMutability":"nonpayable"},{"type":"function","name":"setSybilScorer","inputs":[{"name":"_sybilScorer","type":"address","internalType":"address"},{"name":"threshold","type":"uint256","internalType":"uint256"}],"outputs":[],"stateMutability":"nonpayable"},{"type":"function","name":"supportsInterface","inputs":[{"name":"interfaceId","type":"bytes4","internalType":"bytes4"}],"outputs":[{"name":"","type":"bool","internalType":"bool"}],"stateMutability":"view"},{"type":"function","name":"sybilScorer","inputs":[],"outputs":[{"name":"","type":"address","internalType":"contract ISybilScorer"}],"stateMutability":"view"},{"type":"function","name":"totalPointsActivated","inputs":[],"outputs":[{"name":"","type":"uint256","internalType":"uint256"}],"stateMutability":"view"},{"type":"function","name":"totalStaked","inputs":[],"outputs":[{"name":"","type":"uint256","internalType":"uint256"}],"stateMutability":"view"},{"type":"function","name":"totalVoterStakePct","inputs":[{"name":"","type":"address","internalType":"address"}],"outputs":[{"name":"","type":"uint256","internalType":"uint256"}],"stateMutability":"view"},{"type":"function","name":"transferOwnership","inputs":[{"name":"newOwner","type":"address","internalType":"address"}],"outputs":[],"stateMutability":"nonpayable"},{"type":"function","name":"updateProposalConviction","inputs":[{"name":"proposalId","type":"uint256","internalType":"uint256"}],"outputs":[{"name":"","type":"uint256","internalType":"uint256"}],"stateMutability":"nonpayable"},{"type":"function","name":"upgradeTo","inputs":[{"name":"newImplementation","type":"address","internalType":"address"}],"outputs":[],"stateMutability":"nonpayable"},{"type":"function","name":"upgradeToAndCall","inputs":[{"name":"newImplementation","type":"address","internalType":"address"},{"name":"data","type":"bytes","internalType":"bytes"}],"outputs":[],"stateMutability":"payable"},{"type":"function","name":"voterStakedProposals","inputs":[{"name":"","type":"address","internalType":"address"},{"name":"","type":"uint256","internalType":"uint256"}],"outputs":[{"name":"","type":"uint256","internalType":"uint256"}],"stateMutability":"view"},{"type":"event","name":"AdminChanged","inputs":[{"name":"previousAdmin","type":"address","indexed":false,"internalType":"address"},{"name":"newAdmin","type":"address","indexed":false,"internalType":"address"}],"anonymous":false},{"type":"event","name":"Allocated","inputs":[{"name":"recipientId","type":"address","indexed":true,"internalType":"address"},{"name":"amount","type":"uint256","indexed":false,"internalType":"uint256"},{"name":"token","type":"address","indexed":false,"internalType":"address"},{"name":"sender","type":"address","indexed":false,"internalType":"address"}],"anonymous":false},{"type":"event","name":"AllowlistMembersAdded","inputs":[{"name":"poolId","type":"uint256","indexed":false,"internalType":"uint256"},{"name":"members","type":"address[]","indexed":false,"internalType":"address[]"}],"anonymous":false},{"type":"event","name":"AllowlistMembersRemoved","inputs":[{"name":"poolId","type":"uint256","indexed":false,"internalType":"uint256"},{"name":"members","type":"address[]","indexed":false,"internalType":"address[]"}],"anonymous":false},{"type":"event","name":"ArbitrableConfigUpdated","inputs":[{"name":"currentArbitrableConfigVersion","type":"uint256","indexed":false,"internalType":"uint256"},{"name":"arbitrator","type":"address","indexed":false,"internalType":"contract IArbitrator"},{"name":"tribunalSafe","type":"address","indexed":false,"internalType":"address"},{"name":"submitterCollateralAmount","type":"uint256","indexed":false,"internalType":"uint256"},{"name":"challengerCollateralAmount","type":"uint256","indexed":false,"internalType":"uint256"},{"name":"defaultRuling","type":"uint256","indexed":false,"internalType":"uint256"},{"name":"defaultRulingTimeout","type":"uint256","indexed":false,"internalType":"uint256"}],"anonymous":false},{"type":"event","name":"BeaconUpgraded","inputs":[{"name":"beacon","type":"address","indexed":true,"internalType":"address"}],"anonymous":false},{"type":"event","name":"CVParamsUpdated","inputs":[{"name":"cvParams","type":"tuple","indexed":false,"internalType":"struct CVParams","components":[{"name":"maxRatio","type":"uint256","internalType":"uint256"},{"name":"weight","type":"uint256","internalType":"uint256"},{"name":"decay","type":"uint256","internalType":"uint256"},{"name":"minThresholdPoints","type":"uint256","internalType":"uint256"}]}],"anonymous":false},{"type":"event","name":"DisputeRequest","inputs":[{"name":"_arbitrator","type":"address","indexed":true,"internalType":"contract IArbitrator"},{"name":"_arbitrableDisputeID","type":"uint256","indexed":true,"internalType":"uint256"},{"name":"_externalDisputeID","type":"uint256","indexed":false,"internalType":"uint256"},{"name":"_templateId","type":"uint256","indexed":false,"internalType":"uint256"},{"name":"_templateUri","type":"string","indexed":false,"internalType":"string"}],"anonymous":false},{"type":"event","name":"Distributed","inputs":[{"name":"proposalId","type":"uint256","indexed":false,"internalType":"uint256"},{"name":"beneficiary","type":"address","indexed":false,"internalType":"address"},{"name":"amount","type":"uint256","indexed":false,"internalType":"uint256"}],"anonymous":false},{"type":"event","name":"Distributed","inputs":[{"name":"recipientId","type":"address","indexed":true,"internalType":"address"},{"name":"recipientAddress","type":"address","indexed":false,"internalType":"address"},{"name":"amount","type":"uint256","indexed":false,"internalType":"uint256"},{"name":"sender","type":"address","indexed":false,"internalType":"address"}],"anonymous":false},{"type":"event","name":"Initialized","inputs":[{"name":"poolId","type":"uint256","indexed":false,"internalType":"uint256"},{"name":"data","type":"bytes","indexed":false,"internalType":"bytes"}],"anonymous":false},{"type":"event","name":"Initialized","inputs":[{"name":"version","type":"uint8","indexed":false,"internalType":"uint8"}],"anonymous":false},{"type":"event","name":"InitializedCV","inputs":[{"name":"poolId","type":"uint256","indexed":false,"internalType":"uint256"},{"name":"data","type":"tuple","indexed":false,"internalType":"struct CVStrategyInitializeParamsV0_0","components":[{"name":"cvParams","type":"tuple","internalType":"struct CVParams","components":[{"name":"maxRatio","type":"uint256","internalType":"uint256"},{"name":"weight","type":"uint256","internalType":"uint256"},{"name":"decay","type":"uint256","internalType":"uint256"},{"name":"minThresholdPoints","type":"uint256","internalType":"uint256"}]},{"name":"proposalType","type":"uint8","internalType":"enum ProposalType"},{"name":"pointSystem","type":"uint8","internalType":"enum PointSystem"},{"name":"pointConfig","type":"tuple","internalType":"struct PointSystemConfig","components":[{"name":"maxAmount","type":"uint256","internalType":"uint256"}]},{"name":"arbitrableConfig","type":"tuple","internalType":"struct ArbitrableConfig","components":[{"name":"arbitrator","type":"address","internalType":"contract IArbitrator"},{"name":"tribunalSafe","type":"address","internalType":"address"},{"name":"submitterCollateralAmount","type":"uint256","internalType":"uint256"},{"name":"challengerCollateralAmount","type":"uint256","internalType":"uint256"},{"name":"defaultRuling","type":"uint256","internalType":"uint256"},{"name":"defaultRulingTimeout","type":"uint256","internalType":"uint256"}]},{"name":"registryCommunity","type":"address","internalType":"address"},{"name":"sybilScorer","type":"address","internalType":"address"}]}],"anonymous":false},{"type":"event","name":"InitializedCV2","inputs":[{"name":"poolId","type":"uint256","indexed":false,"internalType":"uint256"},{"name":"data","type":"tuple","indexed":false,"internalType":"struct CVStrategyInitializeParamsV0_1","components":[{"name":"cvParams","type":"tuple","internalType":"struct CVParams","components":[{"name":"maxRatio","type":"uint256","internalType":"uint256"},{"name":"weight","type":"uint256","internalType":"uint256"},{"name":"decay","type":"uint256","internalType":"uint256"},{"name":"minThresholdPoints","type":"uint256","internalType":"uint256"}]},{"name":"proposalType","type":"uint8","internalType":"enum ProposalType"},{"name":"pointSystem","type":"uint8","internalType":"enum PointSystem"},{"name":"pointConfig","type":"tuple","internalType":"struct PointSystemConfig","components":[{"name":"maxAmount","type":"uint256","internalType":"uint256"}]},{"name":"arbitrableConfig","type":"tuple","internalType":"struct ArbitrableConfig","components":[{"name":"arbitrator","type":"address","internalType":"contract IArbitrator"},{"name":"tribunalSafe","type":"address","internalType":"address"},{"name":"submitterCollateralAmount","type":"uint256","internalType":"uint256"},{"name":"challengerCollateralAmount","type":"uint256","internalType":"uint256"},{"name":"defaultRuling","type":"uint256","internalType":"uint256"},{"name":"defaultRulingTimeout","type":"uint256","internalType":"uint256"}]},{"name":"registryCommunity","type":"address","internalType":"address"},{"name":"sybilScorer","type":"address","internalType":"address"},{"name":"sybilScorerThreshold","type":"uint256","internalType":"uint256"},{"name":"initialAllowlist","type":"address[]","internalType":"address[]"}]}],"anonymous":false},{"type":"event","name":"OwnershipTransferred","inputs":[{"name":"previousOwner","type":"address","indexed":true,"internalType":"address"},{"name":"newOwner","type":"address","indexed":true,"internalType":"address"}],"anonymous":false},{"type":"event","name":"PointsDeactivated","inputs":[{"name":"member","type":"address","indexed":false,"internalType":"address"}],"anonymous":false},{"type":"event","name":"PoolActive","inputs":[{"name":"active","type":"bool","indexed":false,"internalType":"bool"}],"anonymous":false},{"type":"event","name":"PoolAmountIncreased","inputs":[{"name":"amount","type":"uint256","indexed":false,"internalType":"uint256"}],"anonymous":false},{"type":"event","name":"PowerDecreased","inputs":[{"name":"member","type":"address","indexed":false,"internalType":"address"},{"name":"tokensUnStaked","type":"uint256","indexed":false,"internalType":"uint256"},{"name":"pointsToDecrease","type":"uint256","indexed":false,"internalType":"uint256"}],"anonymous":false},{"type":"event","name":"PowerIncreased","inputs":[{"name":"member","type":"address","indexed":false,"internalType":"address"},{"name":"tokensStaked","type":"uint256","indexed":false,"internalType":"uint256"},{"name":"pointsToIncrease","type":"uint256","indexed":false,"internalType":"uint256"}],"anonymous":false},{"type":"event","name":"ProposalCancelled","inputs":[{"name":"proposalId","type":"uint256","indexed":false,"internalType":"uint256"}],"anonymous":false},{"type":"event","name":"ProposalCreated","inputs":[{"name":"poolId","type":"uint256","indexed":false,"internalType":"uint256"},{"name":"proposalId","type":"uint256","indexed":false,"internalType":"uint256"}],"anonymous":false},{"type":"event","name":"ProposalDisputed","inputs":[{"name":"arbitrator","type":"address","indexed":false,"internalType":"contract IArbitrator"},{"name":"proposalId","type":"uint256","indexed":false,"internalType":"uint256"},{"name":"disputeId","type":"uint256","indexed":false,"internalType":"uint256"},{"name":"challenger","type":"address","indexed":false,"internalType":"address"},{"name":"context","type":"string","indexed":false,"internalType":"string"},{"name":"timestamp","type":"uint256","indexed":false,"internalType":"uint256"}],"anonymous":false},{"type":"event","name":"Registered","inputs":[{"name":"recipientId","type":"address","indexed":true,"internalType":"address"},{"name":"data","type":"bytes","indexed":false,"internalType":"bytes"},{"name":"sender","type":"address","indexed":false,"internalType":"address"}],"anonymous":false},{"type":"event","name":"RegistryUpdated","inputs":[{"name":"registryCommunity","type":"address","indexed":false,"internalType":"address"}],"anonymous":false},{"type":"event","name":"Ruling","inputs":[{"name":"_arbitrator","type":"address","indexed":true,"internalType":"contract IArbitrator"},{"name":"_disputeID","type":"uint256","indexed":true,"internalType":"uint256"},{"name":"_ruling","type":"uint256","indexed":false,"internalType":"uint256"}],"anonymous":false},{"type":"event","name":"SupportAdded","inputs":[{"name":"from","type":"address","indexed":false,"internalType":"address"},{"name":"proposalId","type":"uint256","indexed":false,"internalType":"uint256"},{"name":"amount","type":"uint256","indexed":false,"internalType":"uint256"},{"name":"totalStakedAmount","type":"uint256","indexed":false,"internalType":"uint256"},{"name":"convictionLast","type":"uint256","indexed":false,"internalType":"uint256"}],"anonymous":false},{"type":"event","name":"SybilScorerUpdated","inputs":[{"name":"sybilScorer","type":"address","indexed":false,"internalType":"address"}],"anonymous":false},{"type":"event","name":"TribunaSafeRegistered","inputs":[{"name":"strategy","type":"address","indexed":false,"internalType":"address"},{"name":"arbitrator","type":"address","indexed":false,"internalType":"address"},{"name":"tribunalSafe","type":"address","indexed":false,"internalType":"address"}],"anonymous":false},{"type":"event","name":"Upgraded","inputs":[{"name":"implementation","type":"address","indexed":true,"internalType":"address"}],"anonymous":false},{"type":"error","name":"ALLOCATION_ACTIVE","inputs":[]},{"type":"error","name":"ALLOCATION_NOT_ACTIVE","inputs":[]},{"type":"error","name":"ALLOCATION_NOT_ENDED","inputs":[]},{"type":"error","name":"ALREADY_INITIALIZED","inputs":[]},{"type":"error","name":"AMOUNT_MISMATCH","inputs":[]},{"type":"error","name":"ANCHOR_ERROR","inputs":[]},{"type":"error","name":"ARRAY_MISMATCH","inputs":[]},{"type":"error","name":"CallerNotOwner","inputs":[{"name":"_caller","type":"address","internalType":"address"},{"name":"_owner","type":"address","internalType":"address"}]},{"type":"error","name":"ConvictionUnderMinimumThreshold","inputs":[]},{"type":"error","name":"INVALID","inputs":[]},{"type":"error","name":"INVALID_ADDRESS","inputs":[]},{"type":"error","name":"INVALID_FEE","inputs":[]},{"type":"error","name":"INVALID_METADATA","inputs":[]},{"type":"error","name":"INVALID_REGISTRATION","inputs":[]},{"type":"error","name":"IS_APPROVED_STRATEGY","inputs":[]},{"type":"error","name":"MISMATCH","inputs":[]},{"type":"error","name":"NONCE_NOT_AVAILABLE","inputs":[]},{"type":"error","name":"NOT_APPROVED_STRATEGY","inputs":[]},{"type":"error","name":"NOT_ENOUGH_FUNDS","inputs":[]},{"type":"error","name":"NOT_IMPLEMENTED","inputs":[]},{"type":"error","name":"NOT_INITIALIZED","inputs":[]},{"type":"error","name":"NOT_PENDING_OWNER","inputs":[]},{"type":"error","name":"NotEnoughPointsToSupport","inputs":[{"name":"pointsSupport","type":"uint256","internalType":"uint256"},{"name":"pointsBalance","type":"uint256","internalType":"uint256"}]},{"type":"error","name":"OnlyArbitrator","inputs":[]},{"type":"error","name":"OnlyCommunityAllowed","inputs":[]},{"type":"error","name":"OnlyCouncilSafe","inputs":[]},{"type":"error","name":"OnlySubmitter","inputs":[{"name":"submitter","type":"address","internalType":"address"},{"name":"sender","type":"address","internalType":"address"}]},{"type":"error","name":"POOL_ACTIVE","inputs":[]},{"type":"error","name":"POOL_INACTIVE","inputs":[]},{"type":"error","name":"PoolIsEmpty","inputs":[]},{"type":"error","name":"ProposalNotActive","inputs":[{"name":"_proposalId","type":"uint256","internalType":"uint256"}]},{"type":"error","name":"ProposalNotDisputed","inputs":[{"name":"_proposalId","type":"uint256","internalType":"uint256"}]},{"type":"error","name":"RECIPIENT_ALREADY_ACCEPTED","inputs":[]},{"type":"error","name":"RECIPIENT_ERROR","inputs":[{"name":"recipientId","type":"address","internalType":"address"}]},{"type":"error","name":"RECIPIENT_NOT_ACCEPTED","inputs":[]},{"type":"error","name":"REGISTRATION_NOT_ACTIVE","inputs":[]},{"type":"error","name":"UNAUTHORIZED","inputs":[]},{"type":"error","name":"UserCannotExecuteAction","inputs":[]},{"type":"error","name":"UserIsInactive","inputs":[]},{"type":"error","name":"ZERO_ADDRESS","inputs":[]}],"bytecode":{"object":"0x60a06040523060805234801561001457600080fd5b506080516173b86200004d60003960008181611c4501528181611c8501528181611e5701528181611e970152611f0f01526173b86000f3fe6080604052600436106103585760003560e01c8063013cf08b1461036157806301ffc9a7146103a3578063025313a2146103d3578063059351cd146103f5578063062f9ece146104825780630a6f0ee9146104a25780630bece79c146104c25780630c0512e9146104e25780630f529ba214610506578063125fd1d91461051d57806315cc481e14610533578063184b9559146105515780631aa91a9e146105715780631ddf1e23146105915780632506b870146105a6578063255ffb38146105e95780632bbe0cae146106165780632dbd6fdd146106295780632ed04b2b14610655578063311a6c56146106755780633396045914610695578063346db8cb146106ab578063351d9f96146106cb5780633659cfe6146106f25780633864d3661461071257806338fff2d014610732578063406244d81461074757806341bb76051461075c57806342fda9c7146107b95780634ab4ba42146107ce5780634d31d087146107e35780634f1ef2861461080357806352d1902d1461081657806359a5db8b1461082b5780635db64b991461084b5780636003e4141461087857806360b0645a1461089857806360d5dedc146108b8578063626c47e8146108d85780636453d9c4146108ed578063715018a61461090d5780637263cfe214610922578063782aadff14610942578063814516ad14610962578063817b1cd214610977578063824ea8ed1461098d578063868c57b8146109ad5780638da5cb5b146109cd578063948e7a59146109e2578063950559d714610a02578063a0cf0aea14610a22578063a28889e114610a4a578063a47ff7e514610a82578063a51312c814610a99578063aba9ffee14610ab9578063ad56fd5d14610acf578063b0d3713a14610aef578063b2b878d014610b0f578063b41596ec14610b3c578063b5f620ce14610b4f578063b6c61f3114610b6f578063c329217114610b8f578063c4d66de814610bac578063c7f758a814610bcc578063d5cc68a614610c03578063dc96ff2d14610c18578063df868ed314610c48578063e0a8f6f514610c5d578063e0dd2c3814610c7d578063eb11af9314610c9d578063edd146cc14610cc5578063ef2920fc14610ce5578063f2fde38b14610cf8578063f5b0dfb714610d18578063f5be3f7c14610d38578063ffa1ad7414610d4e57005b3661035f57005b005b34801561036d57600080fd5b5061038161037c366004615b01565b610d8a565b60405161039a9d9c9b9a99989796959493929190615b9d565b60405180910390f35b3480156103af57600080fd5b506103c36103be366004615c66565b610ed8565b604051901515815260200161039a565b3480156103df57600080fd5b506103e8610f0f565b60405161039a9190615c90565b34801561040157600080fd5b5061044a606f546000908152607f60205260409020805460018201546002830154600384015460048501546005909501546001600160a01b039485169694909316949193909290565b604080516001600160a01b039788168152969095166020870152938501929092526060840152608083015260a082015260c00161039a565b34801561048e57600080fd5b5061035f61049d366004615e60565b610f28565b3480156104ae57600080fd5b5061035f6104bd366004615fad565b610f3e565b3480156104ce57600080fd5b506079546103e8906001600160a01b031681565b3480156104ee57600080fd5b506104f8606e5481565b60405190815260200161039a565b34801561051257600080fd5b506104f86298968081565b34801561052957600080fd5b506104f8606f5481565b34801561053f57600080fd5b506065546001600160a01b03166103e8565b34801561055d57600080fd5b5061035f61056c366004616024565b610f5e565b34801561057d57600080fd5b506104f861058c366004615b01565b6110be565b34801561059d57600080fd5b5061035f611108565b3480156105b257600080fd5b506072546073546074546075546105c99392919084565b60408051948552602085019390935291830152606082015260800161039a565b3480156105f557600080fd5b506104f8610604366004615b01565b607e6020526000908152604090205481565b6103e8610624366004616064565b611113565b34801561063557600080fd5b5060765461064890610100900460ff1681565b60405161039a91906160c9565b34801561066157600080fd5b506104f86106703660046160d7565b611136565b34801561068157600080fd5b5061035f610690366004616103565b6115e8565b3480156106a157600080fd5b506104f8606c5481565b3480156106b757600080fd5b506104f86106c6366004616125565b611ba0565b3480156106d757600080fd5b506076546106e59060ff1681565b60405161039a9190616161565b3480156106fe57600080fd5b5061035f61070d36600461616f565b611c3b565b34801561071e57600080fd5b5061035f61072d3660046160d7565b611d03565b34801561073e57600080fd5b506068546104f8565b34801561075357600080fd5b506104f8600a81565b34801561076857600080fd5b5061044a610777366004615b01565b607f602052600090815260409020805460018201546002830154600384015460048501546005909501546001600160a01b039485169593909416939192909186565b3480156107c557600080fd5b506066546104f8565b3480156107da57600080fd5b506069546104f8565b3480156107ef57600080fd5b506103c36107fe36600461616f565b611e45565b61035f61081136600461618c565b611e4d565b34801561082257600080fd5b506104f8611f02565b34801561083757600080fd5b506104f8610846366004615b01565b611fb0565b34801561085757600080fd5b506104f861086636600461616f565b607c6020526000908152604090205481565b34801561088457600080fd5b506078546103e8906001600160a01b031681565b3480156108a457600080fd5b506104f86108b3366004615b01565b6120c8565b3480156108c457600080fd5b5061035f6108d33660046161db565b6120f8565b3480156108e457600080fd5b506104f8600381565b3480156108f957600080fd5b5061035f61090836600461616f565b612174565b34801561091957600080fd5b5061035f612185565b34801561092e57600080fd5b5061035f61093d366004616236565b612197565b34801561094e57600080fd5b506104f861095d3660046160d7565b6121a8565b34801561096e57600080fd5b5061035f61233f565b34801561098357600080fd5b506104f860705481565b34801561099957600080fd5b506103c36109a8366004615b01565b612454565b3480156109b957600080fd5b506104f86109c83660046160d7565b6124b1565b3480156109d957600080fd5b506103e86124e2565b3480156109ee57600080fd5b5061035f6109fd36600461626a565b612577565b348015610a0e57600080fd5b506104f8610a1d366004615b01565b61258b565b348015610a2e57600080fd5b506103e873eeeeeeeeeeeeeeeeeeeeeeeeeeeeeeeeeeeeeeee81565b348015610a5657600080fd5b50606d54610a6a906001600160401b031681565b6040516001600160401b03909116815260200161039a565b348015610a8e57600080fd5b506077546104f89081565b348015610aa557600080fd5b5061035f610ab4366004616236565b6125b5565b348015610ac557600080fd5b506104f860715481565b348015610adb57600080fd5b5061035f610aea3660046162f3565b6125c6565b348015610afb57600080fd5b5061035f610b0a36600461616f565b6125d9565b348015610b1b57600080fd5b50610b2f610b2a366004616333565b600080fd5b60405161039a9190616407565b6104f8610b4a3660046164a0565b612603565b348015610b5b57600080fd5b5061035f610b6a366004616527565b6128cf565b348015610b7b57600080fd5b50607a546103e8906001600160a01b031681565b348015610b9b57600080fd5b50607654610100900460ff16610648565b348015610bb857600080fd5b5061035f610bc736600461616f565b6128d8565b348015610bd857600080fd5b50610bec610be7366004615b01565b612908565b60405161039a9b9a99989796959493929190616544565b348015610c0f57600080fd5b506104f8612a14565b348015610c2457600080fd5b506104f8610c33366004615b01565b6000908152607b602052604090206002015490565b348015610c5457600080fd5b506103c3612a57565b348015610c6957600080fd5b5061035f610c78366004615b01565b612a65565b348015610c8957600080fd5b506104f8610c983660046165b3565b612bea565b348015610ca957600080fd5b50610cb86107fe36600461616f565b60405161039a91906165d8565b348015610cd157600080fd5b5061035f610ce03660046165eb565b612c15565b61035f610cf3366004616064565b612df7565b348015610d0457600080fd5b5061035f610d1336600461616f565b612e1b565b348015610d2457600080fd5b5061035f610d33366004615b01565b612e88565b348015610d4457600080fd5b506104f8611c2081565b348015610d5a57600080fd5b50610d7d604051806040016040528060038152602001620302e360ec1b81525081565b60405161039a919061661b565b607b602090815260009182526040918290208054600182015460028301546003840154600485015460058601546006870154600788015460088901548b51808d01909c52600a8a0180548d52600b8b0180549a9d999c989b979a6001600160a01b039788169a968816999790951697939660ff9093169593949192840191610e119061662e565b80601f0160208091040260200160405190810160405280929190818152602001828054610e3d9061662e565b8015610e8a5780601f10610e5f57610100808354040283529160200191610e8a565b820191906000526020600020905b815481529060010190602001808311610e6d57829003601f168201915b50505091909252505060408051606081018252600c8501548152600d8501546020820152600e8501546001600160a01b031691810191909152600f840154601090940154929390929091508d565b60006001600160e01b0319821663f1801e6160e01b1480610f0957506301ffc9a760e01b6001600160e01b03198316145b92915050565b6000610f236033546001600160a01b031690565b905090565b610f30612eb1565b610f3a8282612f59565b5050565b610f466132c2565b610f4e6132ed565b610f59838383613310565b505050565b600054610100900460ff1615808015610f7e5750600054600160ff909116105b80610f9f5750610f8d306135ed565b158015610f9f575060005460ff166001145b6110075760405162461bcd60e51b815260206004820152602e60248201527f496e697469616c697a61626c653a20636f6e747261637420697320616c72656160448201526d191e481a5b9a5d1a585b1a5e995960921b60648201526084015b60405180910390fd5b6000805460ff19166001179055801561102a576000805461ff0019166101001790555b611057846040518060400160405280600a8152602001694356537472617465677960b01b815250846120f8565b606a80546001600160a01b0319166001600160a01b03851617905580156110b8576000805461ff0019169055604051600181527f7f26b83ff96e1f2b6a682f133852f6798a09c465da95921460cefb38474024989060200160405180910390a15b50505050565b6000818152607b60205260408120805483146110f0576040516344980d8f60e01b815260048101849052602401610ffe565b6110fe8182600201546135fc565b6003015492915050565b61111133613637565b565b600061111d6132c2565b6111256132ed565b61112f838361375c565b9392505050565b6000611140613ae5565b60006002607654610100900460ff16600381111561116057611160615b27565b0361116c575081611333565b6003607654610100900460ff16600381111561118a5761118a615b27565b036111a0576111998484613b10565b9050611333565b607754607854604051637817ee4f60e01b81526001600160a01b0390911690637817ee4f906111d59088903090600401616662565b602060405180830381865afa1580156111f2573d6000803e3d6000fd5b505050506040513d601f19601f82011682018060405250810190611216919061667c565b1015611223575081611333565b6077546078546040516316308e2560e11b815285916001600160a01b031690632c611c4a90611256908990600401615c90565b602060405180830381865afa158015611273573d6000803e3d6000fd5b505050506040513d601f19601f82011682018060405250810190611297919061667c565b6112a191906166ab565b101561132f576078546040516316308e2560e11b815284916001600160a01b031690632c611c4a906112d7908890600401615c90565b602060405180830381865afa1580156112f4573d6000803e3d6000fd5b505050506040513d601f19601f82011682018060405250810190611318919061667c565b61132291906166ab565b60775461119991906166ab565b5060005b6001600160a01b038085166000908152607c6020526040808220546078549151637817ee4f60e01b8152909384921690637817ee4f90611379908a903090600401616662565b602060405180830381865afa158015611396573d6000803e3d6000fd5b505050506040513d601f19601f820116820180604052508101906113ba919061667c565b6113c491906166ab565b90508281101561158b5760008260806113dd84876166ab565b6113e892911b6166d4565b905060005b6001600160a01b0388166000908152607d6020526040902054811015611588576001600160a01b0388166000908152607d60205260408120805483908110611437576114376166f6565b6000918252602080832090910154808352607b825260408084206001600160a01b038e1685526009810190935283205490935090916080611478878461670c565b611486906001607f1b616723565b611491911c836166ab565b60028401549091506114a382846166ab565b8460020160008282546114b691906166ab565b90915550506001600160a01b038d16600090815260098501602052604090208290556114e282846166ab565b607060008282546114f391906166ab565b90915550611503905082846166ab565b6001600160a01b038e166000908152607c60205260408120805490919061152b9084906166ab565b9091555061153b905084826135fc565b60008051602061733c8339815191528d868487600201548860030154604051611568959493929190616736565b60405180910390a15050505050808061158090616764565b9150506113ed565b50505b826071600082825461159d91906166ab565b90915550506040517f70b752f3fadb6ac131c0ece847fcbb6994ec56ed6411595710fd9b29c6ac6cc1906115d69088908890879061677d565b60405180910390a15090949350505050565b6000828152607e6020908152604080832054808452607b835281842060108101548552607f845293829020825160c08101845281546001600160a01b03908116825260018301541694810194909452600281015492840192909252600382015460608401526004820154608084015260059182015460a0840152929190600883015460ff16600681111561167e5761167e615b27565b1461169f57604051634b011ca960e11b815260048101849052602401610ffe565b60a0810151600d8301546000916116b591616723565b421190508015816116d0575081516001600160a01b03163314155b156116ee57604051631777988560e11b815260040160405180910390fd5b80806116f8575084155b1561182d57816080015160000361170e57600080fd5b816080015160010361172a5760088301805460ff191660011790555b81608001516002036117b75760088301805460ff191660061790556079546005840154604084810151905163099ea56b60e41b81526001600160a01b03938416936399ea56b093611784938a93929091169160040161679e565b600060405180830381600087803b15801561179e57600080fd5b505af11580156117b2573d6000803e3d6000fd5b505050505b607954600e840154606084015160405163099ea56b60e41b81526001600160a01b03938416936399ea56b0936117f6938a93929091169160040161679e565b600060405180830381600087803b15801561181057600080fd5b505af1158015611824573d6000803e3d6000fd5b50505050611b09565b846001036118ed5760088301805460ff19166001179055607954600e84015460785460408051633629edcd60e11b815290516001600160a01b0394851694638969ab53948a9490821693911691636c53db9a916004808201926020929091908290030181865afa1580156118a5573d6000803e3d6000fd5b505050506040513d601f19601f820116820180604052508101906118c991906167bd565b86606001516040518563ffffffff1660e01b81526004016117f694939291906167da565b84600203611b095760088301805460ff19166006179055607954600e840154606084015160405163099ea56b60e41b81526001600160a01b03938416936399ea56b093611943938a93929091169160040161679e565b600060405180830381600087803b15801561195d57600080fd5b505af1158015611971573d6000803e3d6000fd5b5050607954600586015460785460408051633629edcd60e11b815290516001600160a01b039485169650638969ab5395508a949384169390921691636c53db9a916004808201926020929091908290030181865afa1580156119d7573d6000803e3d6000fd5b505050506040513d601f19601f820116820180604052508101906119fb91906167bd565b606f546000908152607f60205260409020600290810154611a1c91906166d4565b6040518563ffffffff1660e01b8152600401611a3b94939291906167da565b600060405180830381600087803b158015611a5557600080fd5b505af1158015611a69573d6000803e3d6000fd5b50506079546005860154600e870154606f546000908152607f602052604090206002908101546001600160a01b039485169650638969ab5395508a949384169390921691611ab791906166d4565b6040518563ffffffff1660e01b8152600401611ad694939291906167da565b600060405180830381600087803b158015611af057600080fd5b505af1158015611b04573d6000803e3d6000fd5b505050505b606d80546001600160401b0316906000611b22836167ff565b91906101000a8154816001600160401b0302191690836001600160401b03160217905550504283600f01819055508582600001516001600160a01b03167f394027a5fa6e098a1191094d1719d6929b9abc535fcc0c8f448d6a4e7562227687604051611b9091815260200190565b60405180910390a3505050505050565b60745460009084908290611bc590611bbf90629896809060801b6166d4565b83613d17565b905060806001607f1b60726002015462989680611be291906166ab565b611bf084600160801b6166ab565b611bfd629896808961670c565b611c07919061670c565b611c1191906166d4565b611c1b888561670c565b611c259190616723565b611c2f9190616723565b901c9695505050505050565b6001600160a01b037f0000000000000000000000000000000000000000000000000000000000000000163003611c835760405162461bcd60e51b8152600401610ffe90616822565b7f00000000000000000000000000000000000000000000000000000000000000006001600160a01b0316611cb5613d6a565b6001600160a01b031614611cdb5760405162461bcd60e51b8152600401610ffe9061685c565b611ce481613d86565b60408051600080825260208201909252611d0091839190613dc1565b50565b607860009054906101000a90046001600160a01b03166001600160a01b0316636c53db9a6040518163ffffffff1660e01b8152600401602060405180830381865afa158015611d56573d6000803e3d6000fd5b505050506040513d601f19601f82011682018060405250810190611d7a91906167bd565b6001600160a01b0316336001600160a01b031614158015611db45750611d9e6124e2565b6001600160a01b0316336001600160a01b031614155b15611dd257604051637430763f60e11b815260040160405180910390fd5b6001600160a01b03821615611de657600080fd5b607a80546001600160a01b0319166001600160a01b038416179055611e0a81613f2c565b7f2667a0cd99dbc787d1d2596efe938cf43dfe83e8b8ddeb70e28007c09ff3348582604051611e399190615c90565b60405180910390a15050565b600080610f09565b6001600160a01b037f0000000000000000000000000000000000000000000000000000000000000000163003611e955760405162461bcd60e51b8152600401610ffe90616822565b7f00000000000000000000000000000000000000000000000000000000000000006001600160a01b0316611ec7613d6a565b6001600160a01b031614611eed5760405162461bcd60e51b8152600401610ffe9061685c565b611ef682613d86565b610f3a82826001613dc1565b6000306001600160a01b037f00000000000000000000000000000000000000000000000000000000000000001614611f9d5760405162461bcd60e51b815260206004820152603860248201527f555550535570677261646561626c653a206d757374206e6f742062652063616c6044820152771b1959081d1a1c9bdd59da0819195b1959d85d1958d85b1b60421b6064820152608401610ffe565b5060008051602061731c83398151915290565b60008060695411611fd45760405163ed4421ad60e01b815260040160405180910390fd5b611fdd82614017565b15611fe757600080fd5b606954600090611ffb84600160401b61670c565b61200591906166d4565b607254629896809061201b90600160401b61670c565b61202591906166d4565b61202f91906166ab565b60715460745491925060409161204890629896806166ab565b629896806040612058868061670c565b607354911c9061206f90629896809060801b6166d4565b61207991906166d4565b612083919061670c565b61208d91906166d4565b612097919061670c565b607154911c9250156120c25760006120ad612a14565b90508083116120bc57806120be565b825b9250505b50919050565b6000818152607b60205260408120600781015461112f906120e990436166ab565b82600301548360020154611ba0565b600054610100900460ff1661211f5760405162461bcd60e51b8152600401610ffe90616896565b612128816128d8565b606580546001600160a01b0319166001600160a01b03851617905560405161215490839060200161661b565b60408051601f198184030181529190528051602090910120606655505050565b61217c613ae5565b611d0081613637565b61218d61403e565b611111600061409d565b61219f612eb1565b611d00816140ef565b60006121b2613ae5565b6121bb83614388565b6121d857604051630b72d6b160e31b815260040160405180910390fd5b60006002607654610100900460ff1660038111156121f8576121f8615b27565b03612204575081612268565b6001607654610100900460ff16600381111561222257612222615b27565b0361223857612231848461452f565b9050612268565b6003607654610100900460ff16600381111561225657612256615b27565b036122685761226584846145d6565b90505b60785460405163011de97360e61b81526000916001600160a01b03169063477a5cc09061229b9088903090600401616662565b602060405180830381865afa1580156122b8573d6000803e3d6000fd5b505050506040513d601f19601f820116820180604052508101906122dc91906168e1565b905080156122fc5781607160008282546122f69190616723565b90915550505b7f0b9150e1e54346ed3fa36b977cd5d65dca5a649c737c3174a26bddaadd47667a85858460405161232f9392919061677d565b60405180910390a1509392505050565b61234833614388565b61236557604051630b72d6b160e31b815260040160405180910390fd5b607854604051630d4a8b4960e01b81526001600160a01b0390911690630d4a8b49906123979033903090600401616662565b600060405180830381600087803b1580156123b157600080fd5b505af11580156123c5573d6000803e3d6000fd5b5050607854604051637817ee4f60e01b81526001600160a01b039091169250637817ee4f91506123fb9033903090600401616662565b602060405180830381865afa158015612418573d6000803e3d6000fd5b505050506040513d601f19601f8201168201806040525081019061243c919061667c565b6071600082825461244d9190616723565b9091555050565b6000818152607b602052604081206002810154829081906124769084906147db565b91509150816000148015612488575080155b1561249557826003015491505b60006124a48460010154611fb0565b9092101595945050505050565b607d60205281600052604060002081815481106124cd57600080fd5b90600052602060002001600091509150505481565b60006124ec610f0f565b6001600160a01b03163b60000361250557610f23610f0f565b61250d610f0f565b6001600160a01b0316638da5cb5b6040518163ffffffff1660e01b8152600401602060405180830381865afa925050508015612566575060408051601f3d908101601f19168201909252612563918101906167bd565b60015b61257257610f23610f0f565b919050565b61257f612eb1565b6110b884848484614833565b60745460009061259e90629896806166ab565b6125ab629896808461670c565b610f0991906166d4565b6125bd612eb1565b611d0081614859565b6125ce612eb1565b610f59838383614a0c565b6125e161403e565b606a80546001600160a01b0319166001600160a01b0392909216919091179055565b600061260e33614a90565b6000868152607b6020908152604080832060108101548452607f835292819020815160c08101835281546001600160a01b0390811682526001808401549091169482019490945260028201549281019290925260038101546060830152600481015460808301526005015460a082015290600883015460ff16600681111561269857612698615b27565b146126b9576040516344980d8f60e01b815260048101899052602401610ffe565b80606001513410156126ca57600080fd5b600f820154158015906126ed575042611c2083600f01546126eb9190616723565b115b156126f757600080fd5b600081606001513461270991906166ab565b607954606084015160405163240ff7c560e11b81529293506001600160a01b039091169163481fef8a9190612744908d903390600401616909565b6000604051808303818588803b15801561275d57600080fd5b505af1158015612771573d6000803e3d6000fd5b5050845160405163c13517e160e01b81526001600160a01b03909116935063c13517e192508491506127ac906003908b908b90600401616949565b60206040518083038185885af11580156127ca573d6000803e3d6000fd5b50505050506040513d601f19601f820116820180604052508101906127ef919061667c565b60088401805491955060059160ff19166001830217905550600c830184905542600d840155600e830180546001600160a01b031916331790556000848152607e602052604081208a9055606d80546001600160401b0316916128508361696c565b91906101000a8154816001600160401b0302191690836001600160401b03160217905550507f034f6a48076db1bcaaa311ccdc43d473aff44d3918a76fe0fae27c8b3665016d82600001518a86338c8c89600c01600101546040516128bb979695949392919061699a565b60405180910390a150505095945050505050565b611d0081614b1e565b600054610100900460ff166128ff5760405162461bcd60e51b8152600401610ffe90616896565b611d008161409d565b600080600080600080600080600080600080607b60008e81526020019081526020016000209050806001015460001461294d576129488160010154611fb0565b612950565b60005b93508060050160009054906101000a90046001600160a01b03168160040160009054906101000a90046001600160a01b03168260060160009054906101000a90046001600160a01b0316836001015484600201548560080160009054906101000a900460ff16866007015487600301548b896009016000336001600160a01b03166001600160a01b03168152602001908152602001600020548a601001549b509b509b509b509b509b509b509b509b509b509b505091939597999b90929496989a50565b600062989680607154612a2860715461258b565b607554612a3990629896809061670c565b612a43919061670c565b612a4d91906166d4565b610f2391906166d4565b6000610f2360675460ff1690565b60016000828152607b602052604090206008015460ff166006811115612a8d57612a8d615b27565b14612aae576040516344980d8f60e01b815260048101829052602401610ffe565b6000818152607b60205260409020600501546001600160a01b03163314612b07576000818152607b602052604090819020600501549051634544dc9160e11b8152610ffe916001600160a01b0316903390600401616662565b6079546000828152607b6020908152604080832060058101546010909101548452607f9092529182902060020154915163099ea56b60e41b81526001600160a01b03938416936399ea56b093612b6493879392169160040161679e565b600060405180830381600087803b158015612b7e57600080fd5b505af1158015612b92573d6000803e3d6000fd5b5050506000828152607b6020908152604091829020600801805460ff1916600317905590518381527f416e669c63d9a3a5e36ee7cc7e2104b8db28ccd286aa18966e98fa230c73b08c9250015b60405180910390a150565b6000828152607b602090815260408083206001600160a01b038516845260090190915281205461112f565b612c1d6132c2565b612c2682614b5f565b606a54606c8054612c4f926001600160a01b0316916000612c4683616764565b91905055614bae565b607980546001600160a01b0319166001600160a01b039290921691821790556040805163204a7f0760e21b81529051638129fc1c9160048082019260009290919082900301818387803b158015612ca557600080fd5b505af1158015612cb9573d6000803e3d6000fd5b50505050600081806020019051810190612cd39190616b5c565b60a0810151607880546001600160a01b0319166001600160a01b03909216919091179055602081015160768054929350909160ff19166001836002811115612d1d57612d1d615b27565b021790555060408101516076805461ff001916610100836003811115612d4557612d45615b27565b021790555060608101515160775560c0810151607a80546001600160a01b0319166001600160a01b039092169190911790556040517fb6a062fc5f19aa17637bf61ab001ce3e5ceb67a5bd51d9753281e41df94f3fd390612da99085908490616cbc565b60405180910390a16080810151815160408051600080825260208201908152818301909252612dd9939291614833565b607a546001600160a01b031615610f5957610f598160e00151613f2c565b612dff6132c2565b612e076132ed565b612e118282614bfd565b610f3a8282614c77565b612e2361403e565b6001600160a01b0381166128ff5760405162461bcd60e51b815260206004820152602660248201527f4f776e61626c653a206e6577206f776e657220697320746865207a65726f206160448201526564647265737360d01b6064820152608401610ffe565b612e906132c2565b8060696000828254612ea29190616723565b90915550611d00905081614da8565b607860009054906101000a90046001600160a01b03166001600160a01b0316636c53db9a6040518163ffffffff1660e01b8152600401602060405180830381865afa158015612f04573d6000803e3d6000fd5b505050506040513d601f19601f82011682018060405250810190612f2891906167bd565b6001600160a01b0316336001600160a01b03161461111157604051637430763f60e11b815260040160405180910390fd5b60208201516001600160a01b031615801590612f7e575081516001600160a01b031615155b80156130675750606f546000908152607f6020908152604090912060010154908301516001600160a01b039081169116141580612fda5750606f546000908152607f602052604090205482516001600160a01b03908116911614155b80612ffe5750606f546000908152607f602052604090819020600201549083015114155b806130215750606f546000908152607f6020526040902060030154606083015114155b806130445750606f546000908152607f6020526040902060040154608083015114155b806130675750606f546000908152607f602052604090206005015460a083015114155b1561327657602080830151606f546000908152607f9092526040909120600101546001600160a01b0390811691161415806130c157508151606f546000908152607f60205260409020546001600160a01b03908116911614155b1561318a578151602083015160405163446adb9960e11b81526001600160a01b03909216916388d5b732916130f891600401615c90565b600060405180830381600087803b15801561311257600080fd5b505af1158015613126573d6000803e3d6000fd5b5050835160208501516040517fdc20f5c479493aac0cf803ca3b82ebc1964faa557450a37ea0a8121b0e98454f94506131819350309291906001600160a01b0393841681529183166020830152909116604082015260600190565b60405180910390a15b606f805490600061319a83616764565b9091555050606f80546000908152607f6020908152604091829020855181546001600160a01b03199081166001600160a01b03928316908117845588850151600185018054909316931692831790915587850151600284018190556060808a0151600386018190556080808c01516004880181905560a0808e015160059099018990559a548a519081529889019590955297870194909452850152938301529281019190915260c08101919091527fe677e2878aaaaf6a65ecf50f849ad58100c49f6dfd57d055ba4bddd63a175d539060e00160405180910390a15b805160725560208101516073556040808201516074556060820151607555517fec9315d9f4291207475c061feff1e5d7105750ac0ee9534af9444b4ff1dab9bc90611e39908390616db5565b6065546001600160a01b031633146111115760405163075fd2b160e01b815260040160405180910390fd5b60685460000361111157604051630f68fe6360e21b815260040160405180910390fd5b600082806020019051810190613326919061667c565b9050600160765460ff16600281111561334157613341615b27565b036110b85760016000828152607b602052604090206008015460ff16600681111561336e5761336e615b27565b1461338f576040516344980d8f60e01b815260048101829052602401610ffe565b6069546000828152607b602052604090206001015411156133af57600080fd5b60006133ba826110be565b6000838152607b6020526040812060010154919250906133d990611fb0565b905080821080156133fa57506000838152607b602052604090206001015415155b156134185760405163199cf26160e31b815260040160405180910390fd5b6000838152607b6020526040812060010154606980549192909161343d9084906166ab565b909155505060655460685460405163068bcd8d60e01b815260048101919091526134e9916001600160a01b03169063068bcd8d90602401600060405180830381865afa158015613491573d6000803e3d6000fd5b505050506040513d6000823e601f3d908101601f191682016040526134b99190810190616e50565b6040908101516000868152607b6020529190912060048101546001909101546001600160a01b0390911690614dd8565b6000838152607b6020908152604080832060088101805460ff19166004908117909155607954600590920154606f548652607f9094529382902060020154915163099ea56b60e41b81526001600160a01b03918216946399ea56b094613557948a949091169290910161679e565b600060405180830381600087803b15801561357157600080fd5b505af1158015613585573d6000803e3d6000fd5b5050506000848152607b602052604090819020600481015460019091015491517fa7932e9c92f31e1ed56b29d00bbe669a97484dc24de28dd9c8c0429df7f3584793506135dd9287926001600160a01b03169161679e565b60405180910390a1505050505050565b6001600160a01b03163b151590565b60008061360984846147db565b9150915081600014801561361b575080155b156136265750505050565b600784015560039092019190915550565b607854604051637817ee4f60e01b81526001600160a01b0390911690637817ee4f906136699084903090600401616662565b602060405180830381865afa158015613686573d6000803e3d6000fd5b505050506040513d601f19601f820116820180604052508101906136aa919061667c565b607160008282546136bb91906166ab565b90915550506078546040516322bcf99960e01b81526001600160a01b03909116906322bcf999906136f29084903090600401616662565b600060405180830381600087803b15801561370c57600080fd5b505af1158015613720573d6000803e3d6000fd5b5050505061372d81614e12565b7f1468da654b37bb3631011c1917d02e0db437d519918858d40b38b5e980ca033b81604051612bdf9190615c90565b600061376782614a90565b60785460405163208a40f360e11b81526001600160a01b039091169063411481e690613797903090600401615c90565b60006040518083038186803b1580156137af57600080fd5b505afa1580156137c3573d6000803e3d6000fd5b505050506000838060200190518101906137dd9190616f03565b9050600160765460ff1660028111156137f8576137f8615b27565b03613917576000306001600160a01b03166315cc481e6040518163ffffffff1660e01b8152600401602060405180830381865afa15801561383d573d6000803e3d6000fd5b505050506040513d601f19601f8201168201806040525081019061386191906167bd565b825160405163068bcd8d60e01b81529192506001600160a01b0383169163068bcd8d916138949160040190815260200190565b600060405180830381865afa1580156138b1573d6000803e3d6000fd5b505050506040513d6000823e601f3d908101601f191682016040526138d99190810190616e50565b604001516001600160a01b031682606001516001600160a01b0316146138fe57600080fd5b61390b8260400151614017565b1561391557600080fd5b505b606f546000908152607f60205260409020546001600160a01b0316158015906139535750606f546000908152607f602052604090206002015434105b1561395d57600080fd5b6000606e6000815461396e90616764565b91829055506000818152607b602090815260408083208481556005810180546001600160a01b038b81166001600160a01b0319928316179092558885015160048401805491841691831691909117905560608901516006840180549190931691161790559086015160018083019190915560088201805460ff19169091179055436007820155600381019290925560808501518051600a8401908155918101519394509192600b840190613a229082616ff7565b5050606f54601083015550607954600582015460405163240ff7c560e11b81526001600160a01b039283169263481fef8a923492613a669288921690600401616909565b6000604051808303818588803b158015613a7f57600080fd5b505af1158015613a93573d6000803e3d6000fd5b50505050507ffcf3b1aa65a464cef2889608f99e8b8c0f680a4be6c2acb9d961c536a5a9294b60685483604051613ad4929190918252602082015260400190565b60405180910390a150949350505050565b6078546001600160a01b03163314611111576040516357848b5160e11b815260040160405180910390fd5b607854604080516336d8759760e21b815290516000926012926001600160a01b039091169163db61d65c916004808201926020929091908290030181865afa158015613b60573d6000803e3d6000fd5b505050506040513d601f19601f82011682018060405250810190613b8491906167bd565b6001600160a01b031663313ce5676040518163ffffffff1660e01b8152600401602060405180830381865afa925050508015613bdd575060408051601f3d908101601f19168201909252613bda918101906170b6565b60015b15613be85760ff1690505b6078546040516316308e2560e11b815260009185916001600160a01b0390911690632c611c4a90613c1d908990600401615c90565b602060405180830381865afa158015613c3a573d6000803e3d6000fd5b505050506040513d601f19601f82011682018060405250810190613c5e919061667c565b613c6891906166ab565b90506000613c89613c7a84600a6171bd565b613c84908461670c565b614f51565b607854604051637817ee4f60e01b815291925060009183916001600160a01b031690637817ee4f90613cc1908b903090600401616662565b602060405180830381865afa158015613cde573d6000803e3d6000fd5b505050506040513d601f19601f82011682018060405250810190613d02919061667c565b613d0c91906166ab565b979650505050505050565b600160801b82825b8015613d625780600116600003613d4457613d3a8283615039565b915060011c613d1f565b613d4e8383615039565b9250613d5b6001826166ab565b9050613d1f565b505092915050565b60008051602061731c833981519152546001600160a01b031690565b33613d8f6124e2565b6001600160a01b031614611d005733613da66124e2565b60405163163678e960e01b8152600401610ffe929190616662565b7f4910fdfa16fed3260ed0e7147f7cc6da11a60208b5b9406d12a635614ffd91435460ff1615613df457610f598361505f565b826001600160a01b03166352d1902d6040518163ffffffff1660e01b8152600401602060405180830381865afa925050508015613e4e575060408051601f3d908101601f19168201909252613e4b9181019061667c565b60015b613eb15760405162461bcd60e51b815260206004820152602e60248201527f45524331393637557067726164653a206e657720696d706c656d656e7461746960448201526d6f6e206973206e6f74205555505360901b6064820152608401610ffe565b60008051602061731c8339815191528114613f205760405162461bcd60e51b815260206004820152602960248201527f45524331393637557067726164653a20756e737570706f727465642070726f786044820152681a58589b195555525160ba1b6064820152608401610ffe565b50610f598383836150f9565b607a5460785460408051633629edcd60e11b815290516001600160a01b039384169363fc2ebdd193309387939190921691636c53db9a9160048083019260209291908290030181865afa158015613f87573d6000803e3d6000fd5b505050506040513d601f19601f82011682018060405250810190613fab91906167bd565b60405160e085901b6001600160e01b03191681526001600160a01b03938416600482015260248101929092529091166044820152606401600060405180830381600087803b158015613ffc57600080fd5b505af1158015614010573d6000803e3d6000fd5b5050505050565b6000614026629896808361670c565b606954607254614036919061670c565b111592915050565b336140476124e2565b6001600160a01b0316146111115760405162461bcd60e51b815260206004820181905260248201527f4f776e61626c653a2063616c6c6572206973206e6f7420746865206f776e65726044820152606401610ffe565b603380546001600160a01b038381166001600160a01b0319831681179093556040519116919082907f8be0079c531659141344cd1fd0a4f28419497f9722a3daafe3b4186f6b6457e090600090a35050565b600060685460405160200161410491906171c9565b60408051601f19818403018152908290528051602090910120607854632474521560e21b83529092506001600160a01b0316906391d148549061414e908490600090600401616909565b602060405180830381865afa15801561416b573d6000803e3d6000fd5b505050506040513d601f19601f8201168201806040525081019061418f91906168e1565b156141fa5760785460405163d547741f60e01b81526001600160a01b039091169063d547741f906141c7908490600090600401616909565b600060405180830381600087803b1580156141e157600080fd5b505af11580156141f5573d6000803e3d6000fd5b505050505b60005b82518110156143545760785483516001600160a01b03909116906391d14854908490869085908110614231576142316166f6565b60200260200101516040518363ffffffff1660e01b8152600401614256929190616909565b602060405180830381865afa158015614273573d6000803e3d6000fd5b505050506040513d601f19601f8201168201806040525081019061429791906168e1565b614342576078546068546040516001600160a01b0390921691632f2ff15d916142c2916020016171c9565b604051602081830303815290604052805190602001208584815181106142ea576142ea6166f6565b60200260200101516040518363ffffffff1660e01b815260040161430f929190616909565b600060405180830381600087803b15801561432957600080fd5b505af115801561433d573d6000803e3d6000fd5b505050505b8061434c81616764565b9150506141fd565b507f7a2e396a5614184c0af2c60827c206595126faa1238b94e19823192de52e728a60685483604051611e399291906171e6565b607a546000906001600160a01b03166144bc5760006068546040516020016143b091906171c9565b60408051601f19818403018152908290528051602090910120607854632474521560e21b83529092506001600160a01b0316906391d14854906143fa908490600090600401616909565b602060405180830381865afa158015614417573d6000803e3d6000fd5b505050506040513d601f19601f8201168201806040525081019061443b91906168e1565b156144495750600192915050565b607854604051632474521560e21b81526001600160a01b03909116906391d148549061447b9084908790600401616909565b602060405180830381865afa158015614498573d6000803e3d6000fd5b505050506040513d601f19601f8201168201806040525081019061112f91906168e1565b607a546040516302154c3d60e51b81526001600160a01b03909116906342a987a0906144ee9085903090600401616662565b602060405180830381865afa15801561450b573d6000803e3d6000fd5b505050506040513d601f19601f82011682018060405250810190610f0991906168e1565b607854604051637817ee4f60e01b815260009182916001600160a01b0390911690637817ee4f906145669087903090600401616662565b602060405180830381865afa158015614583573d6000803e3d6000fd5b505050506040513d601f19601f820116820180604052508101906145a7919061667c565b6077549091506145b78483616723565b11156145ce576077546145cb9082906166ab565b92505b509092915050565b6078546040516316308e2560e11b8152600091829184916001600160a01b031690632c611c4a9061460b908890600401615c90565b602060405180830381865afa158015614628573d6000803e3d6000fd5b505050506040513d601f19601f8201168201806040525081019061464c919061667c565b6146569190616723565b607854604080516336d8759760e21b815290519293506012926001600160a01b039092169163db61d65c916004808201926020929091908290030181865afa1580156146a6573d6000803e3d6000fd5b505050506040513d601f19601f820116820180604052508101906146ca91906167bd565b6001600160a01b031663313ce5676040518163ffffffff1660e01b8152600401602060405180830381865afa925050508015614723575060408051601f3d908101601f19168201909252614720918101906170b6565b60015b1561472e5760ff1690505b600061474861473e83600a6171bd565b613c84908561670c565b607854604051637817ee4f60e01b81529192506000916001600160a01b0390911690637817ee4f90614780908a903090600401616662565b602060405180830381865afa15801561479d573d6000803e3d6000fd5b505050506040513d601f19601f820116820180604052508101906147c1919061667c565b905060006147cf82846166ab565b98975050505050505050565b60008043905080846007015411156147f5576147f56171ff565b8084600701540361480b5750600090508061482c565b61482984600701548261481e91906166ab565b856003015485611ba0565b91505b9250929050565b61483d8484612f59565b81511561484d5761484d826140ef565b8051156110b8576110b8815b60005b81518110156149d8576078546068546040516001600160a01b03909216916391d148549161488c916020016171c9565b604051602081830303815290604052805190602001208484815181106148b4576148b46166f6565b60200260200101516040518363ffffffff1660e01b81526004016148d9929190616909565b602060405180830381865afa1580156148f6573d6000803e3d6000fd5b505050506040513d601f19601f8201168201806040525081019061491a91906168e1565b156149c6576078546068546040516001600160a01b039092169163d547741f91614946916020016171c9565b6040516020818303038152906040528051906020012084848151811061496e5761496e6166f6565b60200260200101516040518363ffffffff1660e01b8152600401614993929190616909565b600060405180830381600087803b1580156149ad57600080fd5b505af11580156149c1573d6000803e3d6000fd5b505050505b806149d081616764565b91505061485c565b507fd418c93b6b78d828a87ee1909e6fcdbbf2f8d8f540ad7b232bb3e221e6d7cc1e60685482604051612bdf9291906171e6565b614a168383612f59565b607a546001600160a01b031615610f5957607a5460405163642ce76b60e01b8152306004820152602481018390526001600160a01b039091169063642ce76b90604401600060405180830381600087803b158015614a7357600080fd5b505af1158015614a87573d6000803e3d6000fd5b50505050505050565b60785460405163288c314960e21b81526001600160a01b039091169063a230c52490614ac0908490600401615c90565b602060405180830381865afa158015614add573d6000803e3d6000fd5b505050506040513d601f19601f82011682018060405250810190614b0191906168e1565b611d0057604051635fccb67f60e01b815260040160405180910390fd5b6067805460ff19168215159081179091556040519081527fd94c9bc4d43c51d8dc345a016d8e3d994432fac68e72832e4cf3a616bd8efae090602001612bdf565b614b676132c2565b60685415614b885760405163439a74c960e01b815260040160405180910390fd5b80600003614ba957604051637fcce2a960e01b815260040160405180910390fd5b606855565b6040516001600160601b03193360601b166020820152603481018290526000908190605401604051602081830303815290604052805190602001209050614bf5848261511e565b949350505050565b600082806020019051810190614c139190617215565b905060005b81518110156110b857614c65828281518110614c3657614c366166f6565b602002602001015160000151838381518110614c5457614c546166f6565b6020026020010151602001516151b5565b80614c6f81616764565b915050614c18565b614c8081614a90565b600082806020019051810190614c969190617215565b9050614ca182614388565b614d045760005b8151811015614d02576000828281518110614cc557614cc56166f6565b6020026020010151602001511315614cf057604051630b72d6b160e31b815260040160405180910390fd5b80614cfa81616764565b915050614ca8565b505b60785460405163011de97360e61b81526001600160a01b039091169063477a5cc090614d369085903090600401616662565b602060405180830381865afa158015614d53573d6000803e3d6000fd5b505050506040513d601f19601f82011682018060405250810190614d7791906168e1565b614d9457604051635fccb67f60e01b815260040160405180910390fd5b614d9e828261525c565b610f59828261545c565b6040518181527f46aeb5d8770fc4474bc2dfa118fd2595f7fb33ce2cbce6f4e5a3dabfe0f7633990602001612bdf565b73eeeeeeeeeeeeeeeeeeeeeeeeeeeeeeeeeeeeeeed196001600160a01b03841601614e0757610f598282615826565b610f59838383615842565b60005b6001600160a01b0382166000908152607d6020526040902054811015614f36576001600160a01b0382166000908152607d60205260408120805483908110614e5f57614e5f6166f6565b6000918252602080832090910154808352607b9091526040909120909150614e8682615888565b15614f21576001600160a01b0384166000908152600982016020526040812080549082905560028301805491928392614ec09084906166ab565b925050819055508060706000828254614ed991906166ab565b90915550614ee9905082826135fc565b60008051602061733c8339815191528584600085600201548660030154604051614f17959493929190616736565b60405180910390a1505b50508080614f2e90616764565b915050614e15565b506001600160a01b03166000908152607c6020526040812055565b600081600003614f6357506000919050565b60006001614f70846158c1565b901c6001901b90506001818481614f8957614f896166be565b048201901c90506001818481614fa157614fa16166be565b048201901c90506001818481614fb957614fb96166be565b048201901c90506001818481614fd157614fd16166be565b048201901c90506001818481614fe957614fe96166be565b048201901c90506001818481615001576150016166be565b048201901c90506001818481615019576150196166be565b048201901c905061112f81828581615033576150336166be565b04615955565b600060806001607f1b61504c848661670c565b6150569190616723565b901c9392505050565b615068816135ed565b6150ca5760405162461bcd60e51b815260206004820152602d60248201527f455243313936373a206e657720696d706c656d656e746174696f6e206973206e60448201526c1bdd08184818dbdb9d1c9858dd609a1b6064820152608401610ffe565b60008051602061731c83398151915280546001600160a01b0319166001600160a01b0392909216919091179055565b6151028361596b565b60008251118061510f5750805b15610f59576110b883836159ab565b6000763d602d80600a3d3981f3363d3d373d3d3d363d730000008360601b60e81c176000526e5af43d82803e903d91602b57fd5bf38360781b1760205281603760096000f590506001600160a01b038116610f095760405162461bcd60e51b8152602060048201526017602482015276115490cc4c4d8dce8818dc99585d194c8819985a5b1959604a1b6044820152606401610ffe565b6000828152607b60205260408120908213801561525257506000600882015460ff1660068111156151e8576151e8615b27565b148061520c57506003600882015460ff16600681111561520a5761520a615b27565b145b8061522f57506004600882015460ff16600681111561522d5761522d615b27565b145b8061525257506006600882015460ff16600681111561525057615250615b27565b145b15610f5957600080fd5b60008061526884614388565b905060005b835181101561536f57811580156152a157506000848281518110615293576152936166f6565b602002602001015160200151135b156152bf57604051630b72d6b160e31b815260040160405180910390fd5b8381815181106152d1576152d16166f6565b6020026020010151600001516000031561535d5760008482815181106152f9576152f96166f6565b602002602001015160000151905061531081615888565b615330576040516344980d8f60e01b815260048101829052602401610ffe565b848281518110615342576153426166f6565b6020026020010151602001518461535991906172bf565b9350505b8061536781616764565b91505061526d565b506001600160a01b0384166000908152607c602052604081205461539390846159d0565b607854604051637817ee4f60e01b81529192506000916001600160a01b0390911690637817ee4f906153cb9089903090600401616662565b602060405180830381865afa1580156153e8573d6000803e3d6000fd5b505050506040513d601f19601f8201168201806040525081019061540c919061667c565b90508082111561543957604051636b20c17f60e11b81526004810183905260248101829052604401610ffe565b506001600160a01b039094166000908152607c6020526040902093909355505050565b606060005b82518110156110b857600083828151811061547e5761547e6166f6565b602002602001015160000151905082516000036154da57604080516001808252818301909252906020808301908036833701905050925080836000815181106154c9576154c96166f6565b6020026020010181815250506155f5565b6000805b845181101561552257828582815181106154fa576154fa6166f6565b6020026020010151036155105760019150615522565b8061551a81616764565b9150506154de565b50806155f3576000845160016155389190616723565b6001600160401b0381111561554f5761554f615ca4565b604051908082528060200260200182016040528015615578578160200160208202803683370190505b50905060005b85518110156155d057858181518110615599576155996166f6565b60200260200101518282815181106155b3576155b36166f6565b6020908102919091010152806155c881616764565b91505061557e565b5082818651815181106155e5576155e56166f6565b602090810291909101015293505b505b6000848381518110615609576156096166f6565b6020908102919091018101518101516000848152607b8352604080822060028101546001600160a01b038c168452600982019095529082205492945092919061565282866159d0565b6001600160a01b038b1660009081526009860160205260408120829055909150805b6001600160a01b038c166000908152607d60205260409020548110156156eb5785546001600160a01b038d166000908152607d602052604090208054839081106156c0576156c06166f6565b9060005260206000200154036156d957600191506156eb565b806156e381616764565b915050615674565b5080615721576001600160a01b038b166000908152607d6020908152604082208754815460018101835591845291909220909101555b8183116157715761573283836166ab565b607060008282546157439190616723565b90915550615753905083836166ab565b8560020160008282546157669190616723565b909155506157b59050565b61577b82846166ab565b6070600082825461578c91906166ab565b9091555061579c905082846166ab565b8560020160008282546157af91906166ab565b90915550505b84600701546000036157cc5743600786015561580c565b6157d685856135fc565b60008051602061733c8339815191528b888488600201548960030154604051615803959493929190616736565b60405180910390a15b50505050505050808061581e90616764565b915050615461565b60008060008084865af1610f3a5763b12d13eb6000526004601cfd5b816014528060345263a9059cbb60601b60005260206000604460106000875af13d15600160005114171661587e576390b8ec186000526004601cfd5b6000603452505050565b6000818152607b602052604081205415801590610f095750506000908152607b60205260409020600501546001600160a01b0316151590565b600080608083901c156158d657608092831c92015b604083901c156158e857604092831c92015b602083901c156158fa57602092831c92015b601083901c1561590c57601092831c92015b600883901c1561591e57600892831c92015b600483901c1561593057600492831c92015b600283901c1561594257600292831c92015b600183901c15610f095760010192915050565b6000818310615964578161112f565b5090919050565b6159748161505f565b6040516001600160a01b038216907fbc7cd75a20ee27fd9adebab32041f755214dbc6bffa90cc0225b39da2e5c2d3b90600090a250565b606061112f838360405180606001604052806027815260200161735c602791396159ed565b6000806159dd83856172bf565b9050600081121561112f57600080fd5b6060600080856001600160a01b031685604051615a0a91906172df565b600060405180830381855af49150503d8060008114615a45576040519150601f19603f3d011682016040523d82523d6000602084013e615a4a565b606091505b5091509150615a5b86838387615a65565b9695505050505050565b60608315615ad2578251600003615acb57615a7f856135ed565b615acb5760405162461bcd60e51b815260206004820152601d60248201527f416464726573733a2063616c6c20746f206e6f6e2d636f6e74726163740000006044820152606401610ffe565b5081614bf5565b614bf58383815115615ae75781518083602001fd5b8060405162461bcd60e51b8152600401610ffe919061661b565b600060208284031215615b1357600080fd5b5035919050565b6001600160a01b03169052565b634e487b7160e01b600052602160045260246000fd5b60078110611d0057611d00615b27565b60005b83811015615b68578181015183820152602001615b50565b50506000910152565b60008151808452615b89816020860160208601615b4d565b601f01601f19169290920160200192915050565b8d8152602081018d9052604081018c9052606081018b90526001600160a01b038a8116608083015289811660a0830152881660c082015260e0810187905260006101e0615be988615b3d565b87610100840152806101208401528651818401525060208601516040610200840152615c19610220840182615b71565b8651610140850152602087015161016085015260408701516001600160a01b03166101808501529150615c499050565b6101a08201939093526101c001529b9a5050505050505050505050565b600060208284031215615c7857600080fd5b81356001600160e01b03198116811461112f57600080fd5b6001600160a01b0391909116815260200190565b634e487b7160e01b600052604160045260246000fd5b60405160c081016001600160401b0381118282101715615cdc57615cdc615ca4565b60405290565b604051608081016001600160401b0381118282101715615cdc57615cdc615ca4565b60405161012081016001600160401b0381118282101715615cdc57615cdc615ca4565b604080519081016001600160401b0381118282101715615cdc57615cdc615ca4565b60405160a081016001600160401b0381118282101715615cdc57615cdc615ca4565b604051601f8201601f191681016001600160401b0381118282101715615d9357615d93615ca4565b604052919050565b6001600160a01b0381168114611d0057600080fd5b600060c08284031215615dc257600080fd5b615dca615cba565b90508135615dd781615d9b565b81526020820135615de781615d9b565b8060208301525060408201356040820152606082013560608201526080820135608082015260a082013560a082015292915050565b600060808284031215615e2e57600080fd5b615e36615ce2565b90508135815260208201356020820152604082013560408201526060820135606082015292915050565b6000806101408385031215615e7457600080fd5b615e7e8484615db0565b9150615e8d8460c08501615e1c565b90509250929050565b60006001600160401b03821115615eaf57615eaf615ca4565b5060051b60200190565b600082601f830112615eca57600080fd5b81356020615edf615eda83615e96565b615d6b565b82815260059290921b84018101918181019086841115615efe57600080fd5b8286015b84811015615f22578035615f1581615d9b565b8352918301918301615f02565b509695505050505050565b60006001600160401b03821115615f4657615f46615ca4565b50601f01601f191660200190565b6000615f62615eda84615f2d565b9050828152838383011115615f7657600080fd5b828260208301376000602084830101529392505050565b600082601f830112615f9e57600080fd5b61112f83833560208501615f54565b600080600060608486031215615fc257600080fd5b83356001600160401b0380821115615fd957600080fd5b615fe587838801615eb9565b94506020860135915080821115615ffb57600080fd5b5061600886828701615f8d565b925050604084013561601981615d9b565b809150509250925092565b60008060006060848603121561603957600080fd5b833561604481615d9b565b9250602084013561605481615d9b565b9150604084013561601981615d9b565b6000806040838503121561607757600080fd5b82356001600160401b0381111561608d57600080fd5b61609985828601615f8d565b92505060208301356160aa81615d9b565b809150509250929050565b600481106160c5576160c5615b27565b9052565b60208101610f0982846160b5565b600080604083850312156160ea57600080fd5b82356160f581615d9b565b946020939093013593505050565b6000806040838503121561611657600080fd5b50508035926020909101359150565b60008060006060848603121561613a57600080fd5b505081359360208301359350604090920135919050565b600381106160c5576160c5615b27565b60208101610f098284616151565b60006020828403121561618157600080fd5b813561112f81615d9b565b6000806040838503121561619f57600080fd5b82356161aa81615d9b565b915060208301356001600160401b038111156161c557600080fd5b6161d185828601615f8d565b9150509250929050565b6000806000606084860312156161f057600080fd5b83356161fb81615d9b565b925060208401356001600160401b0381111561621657600080fd5b8401601f8101861361622757600080fd5b61600886823560208401615f54565b60006020828403121561624857600080fd5b81356001600160401b0381111561625e57600080fd5b614bf584828501615eb9565b600080600080610180858703121561628157600080fd5b61628b8686615db0565b935061629a8660c08701615e1c565b92506101408501356001600160401b03808211156162b757600080fd5b6162c388838901615eb9565b93506101608701359150808211156162da57600080fd5b506162e787828801615eb9565b91505092959194509250565b6000806000610160848603121561630957600080fd5b6163138585615db0565b92506163228560c08601615e1c565b915061014084013590509250925092565b6000806040838503121561634657600080fd5b82356001600160401b038082111561635d57600080fd5b61636986838701615eb9565b935060209150818501358181111561638057600080fd5b8501601f8101871361639157600080fd5b803561639f615eda82615e96565b81815260059190911b820184019084810190898311156163be57600080fd5b8584015b838110156163f6578035868111156163da5760008081fd5b6163e88c8983890101615f8d565b8452509186019186016163c2565b508096505050505050509250929050565b602080825282518282018190526000919060409081850190868401855b8281101561645257815180516001600160a01b03168552860151868501529284019290850190600101616424565b5091979650505050505050565b60008083601f84011261647157600080fd5b5081356001600160401b0381111561648857600080fd5b60208301915083602082850101111561482c57600080fd5b6000806000806000606086880312156164b857600080fd5b8535945060208601356001600160401b03808211156164d657600080fd5b6164e289838a0161645f565b909650945060408801359150808211156164fb57600080fd5b506165088882890161645f565b969995985093965092949392505050565b8015158114611d0057600080fd5b60006020828403121561653957600080fd5b813561112f81616519565b6001600160a01b038c811682528b811660208301528a1660408201526060810189905260808101889052610160810161657c88615b3d565b8760a08301528660c08301528560e08301528461010083015283610120830152826101408301529c9b505050505050505050505050565b600080604083850312156165c657600080fd5b8235915060208301356160aa81615d9b565b602081016165e583615b3d565b91905290565b600080604083850312156165fe57600080fd5b8235915060208301356001600160401b038111156161c557600080fd5b60208152600061112f6020830184615b71565b600181811c9082168061664257607f821691505b6020821081036120c257634e487b7160e01b600052602260045260246000fd5b6001600160a01b0392831681529116602082015260400190565b60006020828403121561668e57600080fd5b5051919050565b634e487b7160e01b600052601160045260246000fd5b81810381811115610f0957610f09616695565b634e487b7160e01b600052601260045260246000fd5b6000826166f157634e487b7160e01b600052601260045260246000fd5b500490565b634e487b7160e01b600052603260045260246000fd5b8082028115828204841417610f0957610f09616695565b80820180821115610f0957610f09616695565b6001600160a01b03959095168552602085019390935260408401919091526060830152608082015260a00190565b60006001820161677657616776616695565b5060010190565b6001600160a01b039390931683526020830191909152604082015260600190565b9283526001600160a01b03919091166020830152604082015260600190565b6000602082840312156167cf57600080fd5b815161112f81615d9b565b9384526001600160a01b03928316602085015291166040830152606082015260800190565b60006001600160401b0382168061681857616818616695565b6000190192915050565b6020808252602c908201526000805160206172fc83398151915260408201526b19195b1959d85d1958d85b1b60a21b606082015260800190565b6020808252602c908201526000805160206172fc83398151915260408201526b6163746976652070726f787960a01b606082015260800190565b6020808252602b908201527f496e697469616c697a61626c653a20636f6e7472616374206973206e6f74206960408201526a6e697469616c697a696e6760a81b606082015260800190565b6000602082840312156168f357600080fd5b815161112f81616519565b805161257281615d9b565b9182526001600160a01b0316602082015260400190565b81835281816020850137506000828201602090810191909152601f909101601f19169091010190565b838152604060208201526000616963604083018486616920565b95945050505050565b60006001600160401b038281166002600160401b0319810161699057616990616695565b6001019392505050565b6001600160a01b03888116825260208201889052604082018790528516606082015260c0608082018190526000906169d59083018587616920565b90508260a083015298975050505050505050565b6000608082840312156169fb57600080fd5b616a03615ce2565b90508151815260208201516020820152604082015160408201526060820151606082015292915050565b80516003811061257257600080fd5b80516004811061257257600080fd5b600060208284031215616a5d57600080fd5b604051602081016001600160401b0381118282101715616a7f57616a7f615ca4565b6040529151825250919050565b600060c08284031215616a9e57600080fd5b616aa6615cba565b90508151616ab381615d9b565b81526020820151616ac381615d9b565b8060208301525060408201516040820152606082015160608201526080820151608082015260a082015160a082015292915050565b600082601f830112616b0957600080fd5b81516020616b19615eda83615e96565b82815260059290921b84018101918181019086841115616b3857600080fd5b8286015b84811015615f22578051616b4f81615d9b565b8352918301918301616b3c565b600060208284031215616b6e57600080fd5b81516001600160401b0380821115616b8557600080fd5b908301906102208286031215616b9a57600080fd5b616ba2615d04565b616bac86846169e9565b8152616bba60808401616a2d565b6020820152616bcb60a08401616a3c565b6040820152616bdd8660c08501616a4b565b6060820152616bef8660e08501616a8c565b6080820152616c016101a084016168fe565b60a0820152616c136101c084016168fe565b60c08201526101e083015160e082015261020083015182811115616c3657600080fd5b616c4287828601616af8565b6101008301525095945050505050565b805182526020810151602083015260408101516040830152606081015160608301525050565b600081518084526020808501945080840160005b83811015616cb15781516001600160a01b031687529582019590820190600101616c8c565b509495945050505050565b82815260406020820152616cd4604082018351616c52565b60006020830151616ce860c0840182616151565b506040830151616cfb60e08401826160b5565b506060830151610100616d1081850183519052565b60808581015180516001600160a01b0390811661012088015260208201511661014087015260408101516101608701526060810151610180870152908101516101a086015260a0908101516101c08601528501519150616d746101e0850183615b1a565b60c08501519150616d89610200850183615b1a565b60e085015191506102208281860152818601519250806102408601525050616963610260840182616c78565b60808101610f098284616c52565b600060408284031215616dd557600080fd5b616ddd615d27565b8251815260208301519091506001600160401b03811115616dfd57600080fd5b8201601f81018413616e0e57600080fd5b8051616e1c615eda82615f2d565b818152856020838501011115616e3157600080fd5b616e42826020830160208601615b4d565b602084015250909392505050565b600060208284031215616e6257600080fd5b81516001600160401b0380821115616e7957600080fd5b9083019060c08286031215616e8d57600080fd5b616e95615cba565b825181526020830151616ea781615d9b565b60208201526040830151616eba81615d9b565b6040820152606083015182811115616ed157600080fd5b616edd87828601616dc3565b6060830152506080830151608082015260a083015160a082015280935050505092915050565b600060208284031215616f1557600080fd5b81516001600160401b0380821115616f2c57600080fd5b9083019060a08286031215616f4057600080fd5b616f48615d49565b825181526020830151616f5a81615d9b565b6020820152604083810151908201526060830151616f7781615d9b565b6060820152608083015182811115616f8e57600080fd5b616f9a87828601616dc3565b60808301525095945050505050565b601f821115610f5957600081815260208120601f850160051c81016020861015616fd05750805b601f850160051c820191505b81811015616fef57828155600101616fdc565b505050505050565b81516001600160401b0381111561701057617010615ca4565b6170248161701e845461662e565b84616fa9565b602080601f83116001811461705957600084156170415750858301515b600019600386901b1c1916600185901b178555616fef565b600085815260208120601f198616915b8281101561708857888601518255948401946001909101908401617069565b50858210156170a65787850151600019600388901b60f8161c191681555b5050505050600190811b01905550565b6000602082840312156170c857600080fd5b815160ff8116811461112f57600080fd5b600181815b808511156171145781600019048211156170fa576170fa616695565b8085161561710757918102915b93841c93908002906170de565b509250929050565b60008261712b57506001610f09565b8161713857506000610f09565b816001811461714e576002811461715857617174565b6001915050610f09565b60ff84111561716957617169616695565b50506001821b610f09565b5060208310610133831016604e8410600b8410161715617197575081810a610f09565b6171a183836170d9565b80600019048211156171b5576171b5616695565b029392505050565b600061112f838361711c565b6810531313d5d31254d560ba1b8152600981019190915260290190565b828152604060208201526000614bf56040830184616c78565b634e487b7160e01b600052600160045260246000fd5b6000602080838503121561722857600080fd5b82516001600160401b0381111561723e57600080fd5b8301601f8101851361724f57600080fd5b805161725d615eda82615e96565b81815260069190911b8201830190838101908783111561727c57600080fd5b928401925b82841015613d0c576040848903121561729a5760008081fd5b6172a2615d27565b845181528585015186820152825260409093019290840190617281565b8082018281126000831280158216821582161715613d6257613d62616695565b600082516172f1818460208701615b4d565b919091019291505056fe46756e6374696f6e206d7573742062652063616c6c6564207468726f75676820360894a13ba1a3210667c828492db98dca3e2076cc3735a920a3ca505d382bbc0227f642ddcf2042ceaeafadb9d540f432072c00cd4862881667168dcc14710f416464726573733a206c6f772d6c6576656c2064656c65676174652063616c6c206661696c6564a264697066735822122098094c3c2b841043fb7736981ffa8983eadf8c305f7e6a05f6ce4b428219101d64736f6c63430008130033","linkReferences":{}},"methodIdentifiers":{"D()":"0f529ba2","DISPUTE_COOLDOWN_SEC()":"f5be3f7c","MAX_STAKED_PROPOSALS()":"406244d8","NATIVE()":"a0cf0aea","RULING_OPTIONS()":"626c47e8","VERSION()":"ffa1ad74","activatePoints()":"814516ad","addToAllowList(address[])":"7263cfe2","allocate(bytes,address)":"ef2920fc","arbitrableConfigs(uint256)":"41bb7605","calculateConviction(uint256,uint256,uint256)":"346db8cb","calculateProposalConviction(uint256)":"60b0645a","calculateThreshold(uint256)":"59a5db8b","calculateThresholdOverride()":"d5cc68a6","canExecuteProposal(uint256)":"824ea8ed","cancelProposal(uint256)":"e0a8f6f5","cloneNonce()":"33960459","collateralVault()":"0bece79c","currentArbitrableConfigVersion()":"125fd1d9","cvParams()":"2506b870","deactivatePoints()":"1ddf1e23","deactivatePoints(address)":"6453d9c4","decreasePower(address,uint256)":"2ed04b2b","disputeCount()":"a28889e1","disputeIdToProposalId(uint256)":"255ffb38","disputeProposal(uint256,string,bytes)":"b41596ec","distribute(address[],bytes,address)":"0a6f0ee9","getAllo()":"15cc481e","getArbitrableConfig()":"059351cd","getMaxConviction(uint256)":"950559d7","getPayouts(address[],bytes[])":"b2b878d0","getPointSystem()":"c3292171","getPoolAmount()":"4ab4ba42","getPoolId()":"38fff2d0","getProposal(uint256)":"c7f758a8","getProposalStakedAmount(uint256)":"dc96ff2d","getProposalVoterStake(uint256,address)":"e0dd2c38","getRecipientStatus(address)":"eb11af93","getStrategyId()":"42fda9c7","increasePoolAmount(uint256)":"f5b0dfb7","increasePower(address,uint256)":"782aadff","init(address,address,address)":"184b9559","init(address,string,address)":"60d5dedc","initialize(address)":"c4d66de8","initialize(uint256,bytes)":"edd146cc","isPoolActive()":"df868ed3","isValidAllocator(address)":"4d31d087","owner()":"8da5cb5b","pointConfig()":"a47ff7e5","pointSystem()":"2dbd6fdd","proposalCounter()":"0c0512e9","proposalType()":"351d9f96","proposals(uint256)":"013cf08b","proxiableUUID()":"52d1902d","proxyOwner()":"025313a2","registerRecipient(bytes,address)":"2bbe0cae","registryCommunity()":"6003e414","removeFromAllowList(address[])":"a51312c8","renounceOwnership()":"715018a6","rule(uint256,uint256)":"311a6c56","setCollateralVaultTemplate(address)":"b0d3713a","setPoolActive(bool)":"b5f620ce","setPoolParams((address,address,uint256,uint256,uint256,uint256),(uint256,uint256,uint256,uint256))":"062f9ece","setPoolParams((address,address,uint256,uint256,uint256,uint256),(uint256,uint256,uint256,uint256),address[],address[])":"948e7a59","setPoolParams((address,address,uint256,uint256,uint256,uint256),(uint256,uint256,uint256,uint256),uint256)":"ad56fd5d","setSybilScorer(address,uint256)":"3864d366","supportsInterface(bytes4)":"01ffc9a7","sybilScorer()":"b6c61f31","totalPointsActivated()":"aba9ffee","totalStaked()":"817b1cd2","totalVoterStakePct(address)":"5db64b99","transferOwnership(address)":"f2fde38b","updateProposalConviction(uint256)":"1aa91a9e","upgradeTo(address)":"3659cfe6","upgradeToAndCall(address,bytes)":"4f1ef286","voterStakedProposals(address,uint256)":"868c57b8"},"storageLayout":{"storage":[{"astId":52990,"contract":"pkg/contracts/src/CVStrategy/CVStrategyV0_0.sol:CVStrategyV0_0","label":"_initialized","offset":0,"slot":"0","type":"t_uint8"},{"astId":52993,"contract":"pkg/contracts/src/CVStrategy/CVStrategyV0_0.sol:CVStrategyV0_0","label":"_initializing","offset":1,"slot":"0","type":"t_bool"},{"astId":53695,"contract":"pkg/contracts/src/CVStrategy/CVStrategyV0_0.sol:CVStrategyV0_0","label":"__gap","offset":0,"slot":"1","type":"t_array(t_uint256)50_storage"},{"astId":52782,"contract":"pkg/contracts/src/CVStrategy/CVStrategyV0_0.sol:CVStrategyV0_0","label":"_owner","offset":0,"slot":"51","type":"t_address"},{"astId":52902,"contract":"pkg/contracts/src/CVStrategy/CVStrategyV0_0.sol:CVStrategyV0_0","label":"__gap","offset":0,"slot":"52","type":"t_array(t_uint256)49_storage"},{"astId":64873,"contract":"pkg/contracts/src/CVStrategy/CVStrategyV0_0.sol:CVStrategyV0_0","label":"allo","offset":0,"slot":"101","type":"t_contract(IAllo)2610"},{"astId":64875,"contract":"pkg/contracts/src/CVStrategy/CVStrategyV0_0.sol:CVStrategyV0_0","label":"strategyId","offset":0,"slot":"102","type":"t_bytes32"},{"astId":64877,"contract":"pkg/contracts/src/CVStrategy/CVStrategyV0_0.sol:CVStrategyV0_0","label":"poolActive","offset":0,"slot":"103","type":"t_bool"},{"astId":64879,"contract":"pkg/contracts/src/CVStrategy/CVStrategyV0_0.sol:CVStrategyV0_0","label":"poolId","offset":0,"slot":"104","type":"t_uint256"},{"astId":64881,"contract":"pkg/contracts/src/CVStrategy/CVStrategyV0_0.sol:CVStrategyV0_0","label":"poolAmount","offset":0,"slot":"105","type":"t_uint256"},{"astId":65882,"contract":"pkg/contracts/src/CVStrategy/CVStrategyV0_0.sol:CVStrategyV0_0","label":"collateralVaultTemplate","offset":0,"slot":"106","type":"t_address"},{"astId":65884,"contract":"pkg/contracts/src/CVStrategy/CVStrategyV0_0.sol:CVStrategyV0_0","label":"surpressStateMutabilityWarning","offset":0,"slot":"107","type":"t_uint256"},{"astId":65886,"contract":"pkg/contracts/src/CVStrategy/CVStrategyV0_0.sol:CVStrategyV0_0","label":"cloneNonce","offset":0,"slot":"108","type":"t_uint256"},{"astId":65888,"contract":"pkg/contracts/src/CVStrategy/CVStrategyV0_0.sol:CVStrategyV0_0","label":"disputeCount","offset":0,"slot":"109","type":"t_uint64"},{"astId":65890,"contract":"pkg/contracts/src/CVStrategy/CVStrategyV0_0.sol:CVStrategyV0_0","label":"proposalCounter","offset":0,"slot":"110","type":"t_uint256"},{"astId":65892,"contract":"pkg/contracts/src/CVStrategy/CVStrategyV0_0.sol:CVStrategyV0_0","label":"currentArbitrableConfigVersion","offset":0,"slot":"111","type":"t_uint256"},{"astId":65894,"contract":"pkg/contracts/src/CVStrategy/CVStrategyV0_0.sol:CVStrategyV0_0","label":"totalStaked","offset":0,"slot":"112","type":"t_uint256"},{"astId":65896,"contract":"pkg/contracts/src/CVStrategy/CVStrategyV0_0.sol:CVStrategyV0_0","label":"totalPointsActivated","offset":0,"slot":"113","type":"t_uint256"},{"astId":65899,"contract":"pkg/contracts/src/CVStrategy/CVStrategyV0_0.sol:CVStrategyV0_0","label":"cvParams","offset":0,"slot":"114","type":"t_struct(CVParams)65633_storage"},{"astId":65902,"contract":"pkg/contracts/src/CVStrategy/CVStrategyV0_0.sol:CVStrategyV0_0","label":"proposalType","offset":0,"slot":"118","type":"t_enum(ProposalType)65536"},{"astId":65905,"contract":"pkg/contracts/src/CVStrategy/CVStrategyV0_0.sol:CVStrategyV0_0","label":"pointSystem","offset":1,"slot":"118","type":"t_enum(PointSystem)65541"},{"astId":65908,"contract":"pkg/contracts/src/CVStrategy/CVStrategyV0_0.sol:CVStrategyV0_0","label":"pointConfig","offset":0,"slot":"119","type":"t_struct(PointSystemConfig)65610_storage"},{"astId":65911,"contract":"pkg/contracts/src/CVStrategy/CVStrategyV0_0.sol:CVStrategyV0_0","label":"registryCommunity","offset":0,"slot":"120","type":"t_contract(RegistryCommunityV0_0)72952"},{"astId":65914,"contract":"pkg/contracts/src/CVStrategy/CVStrategyV0_0.sol:CVStrategyV0_0","label":"collateralVault","offset":0,"slot":"121","type":"t_contract(ICollateralVault)76378"},{"astId":65917,"contract":"pkg/contracts/src/CVStrategy/CVStrategyV0_0.sol:CVStrategyV0_0","label":"sybilScorer","offset":0,"slot":"122","type":"t_contract(ISybilScorer)70004"},{"astId":65922,"contract":"pkg/contracts/src/CVStrategy/CVStrategyV0_0.sol:CVStrategyV0_0","label":"proposals","offset":0,"slot":"123","type":"t_mapping(t_uint256,t_struct(Proposal)65602_storage)"},{"astId":65926,"contract":"pkg/contracts/src/CVStrategy/CVStrategyV0_0.sol:CVStrategyV0_0","label":"totalVoterStakePct","offset":0,"slot":"124","type":"t_mapping(t_address,t_uint256)"},{"astId":65931,"contract":"pkg/contracts/src/CVStrategy/CVStrategyV0_0.sol:CVStrategyV0_0","label":"voterStakedProposals","offset":0,"slot":"125","type":"t_mapping(t_address,t_array(t_uint256)dyn_storage)"},{"astId":65935,"contract":"pkg/contracts/src/CVStrategy/CVStrategyV0_0.sol:CVStrategyV0_0","label":"disputeIdToProposalId","offset":0,"slot":"126","type":"t_mapping(t_uint256,t_uint256)"},{"astId":65940,"contract":"pkg/contracts/src/CVStrategy/CVStrategyV0_0.sol:CVStrategyV0_0","label":"arbitrableConfigs","offset":0,"slot":"127","type":"t_mapping(t_uint256,t_struct(ArbitrableConfig)65624_storage)"},{"astId":69644,"contract":"pkg/contracts/src/CVStrategy/CVStrategyV0_0.sol:CVStrategyV0_0","label":"__gap","offset":0,"slot":"128","type":"t_array(t_uint256)50_storage"}],"types":{"t_address":{"encoding":"inplace","label":"address","numberOfBytes":"20"},"t_array(t_uint256)49_storage":{"encoding":"inplace","label":"uint256[49]","numberOfBytes":"1568","base":"t_uint256"},"t_array(t_uint256)50_storage":{"encoding":"inplace","label":"uint256[50]","numberOfBytes":"1600","base":"t_uint256"},"t_array(t_uint256)dyn_storage":{"encoding":"dynamic_array","label":"uint256[]","numberOfBytes":"32","base":"t_uint256"},"t_bool":{"encoding":"inplace","label":"bool","numberOfBytes":"1"},"t_bytes32":{"encoding":"inplace","label":"bytes32","numberOfBytes":"32"},"t_contract(IAllo)2610":{"encoding":"inplace","label":"contract IAllo","numberOfBytes":"20"},"t_contract(IArbitrator)76345":{"encoding":"inplace","label":"contract IArbitrator","numberOfBytes":"20"},"t_contract(ICollateralVault)76378":{"encoding":"inplace","label":"contract ICollateralVault","numberOfBytes":"20"},"t_contract(ISybilScorer)70004":{"encoding":"inplace","label":"contract ISybilScorer","numberOfBytes":"20"},"t_contract(RegistryCommunityV0_0)72952":{"encoding":"inplace","label":"contract RegistryCommunityV0_0","numberOfBytes":"20"},"t_enum(PointSystem)65541":{"encoding":"inplace","label":"enum PointSystem","numberOfBytes":"1"},"t_enum(ProposalStatus)65561":{"encoding":"inplace","label":"enum ProposalStatus","numberOfBytes":"1"},"t_enum(ProposalType)65536":{"encoding":"inplace","label":"enum ProposalType","numberOfBytes":"1"},"t_mapping(t_address,t_array(t_uint256)dyn_storage)":{"encoding":"mapping","key":"t_address","label":"mapping(address => uint256[])","numberOfBytes":"32","value":"t_array(t_uint256)dyn_storage"},"t_mapping(t_address,t_uint256)":{"encoding":"mapping","key":"t_address","label":"mapping(address => uint256)","numberOfBytes":"32","value":"t_uint256"},"t_mapping(t_uint256,t_struct(ArbitrableConfig)65624_storage)":{"encoding":"mapping","key":"t_uint256","label":"mapping(uint256 => struct ArbitrableConfig)","numberOfBytes":"32","value":"t_struct(ArbitrableConfig)65624_storage"},"t_mapping(t_uint256,t_struct(Proposal)65602_storage)":{"encoding":"mapping","key":"t_uint256","label":"mapping(uint256 => struct Proposal)","numberOfBytes":"32","value":"t_struct(Proposal)65602_storage"},"t_mapping(t_uint256,t_uint256)":{"encoding":"mapping","key":"t_uint256","label":"mapping(uint256 => uint256)","numberOfBytes":"32","value":"t_uint256"},"t_string_storage":{"encoding":"bytes","label":"string","numberOfBytes":"32"},"t_struct(ArbitrableConfig)65624_storage":{"encoding":"inplace","label":"struct ArbitrableConfig","numberOfBytes":"192","members":[{"astId":65613,"contract":"pkg/contracts/src/CVStrategy/CVStrategyV0_0.sol:CVStrategyV0_0","label":"arbitrator","offset":0,"slot":"0","type":"t_contract(IArbitrator)76345"},{"astId":65615,"contract":"pkg/contracts/src/CVStrategy/CVStrategyV0_0.sol:CVStrategyV0_0","label":"tribunalSafe","offset":0,"slot":"1","type":"t_address"},{"astId":65617,"contract":"pkg/contracts/src/CVStrategy/CVStrategyV0_0.sol:CVStrategyV0_0","label":"submitterCollateralAmount","offset":0,"slot":"2","type":"t_uint256"},{"astId":65619,"contract":"pkg/contracts/src/CVStrategy/CVStrategyV0_0.sol:CVStrategyV0_0","label":"challengerCollateralAmount","offset":0,"slot":"3","type":"t_uint256"},{"astId":65621,"contract":"pkg/contracts/src/CVStrategy/CVStrategyV0_0.sol:CVStrategyV0_0","label":"defaultRuling","offset":0,"slot":"4","type":"t_uint256"},{"astId":65623,"contract":"pkg/contracts/src/CVStrategy/CVStrategyV0_0.sol:CVStrategyV0_0","label":"defaultRulingTimeout","offset":0,"slot":"5","type":"t_uint256"}]},"t_struct(CVParams)65633_storage":{"encoding":"inplace","label":"struct CVParams","numberOfBytes":"128","members":[{"astId":65626,"contract":"pkg/contracts/src/CVStrategy/CVStrategyV0_0.sol:CVStrategyV0_0","label":"maxRatio","offset":0,"slot":"0","type":"t_uint256"},{"astId":65628,"contract":"pkg/contracts/src/CVStrategy/CVStrategyV0_0.sol:CVStrategyV0_0","label":"weight","offset":0,"slot":"1","type":"t_uint256"},{"astId":65630,"contract":"pkg/contracts/src/CVStrategy/CVStrategyV0_0.sol:CVStrategyV0_0","label":"decay","offset":0,"slot":"2","type":"t_uint256"},{"astId":65632,"contract":"pkg/contracts/src/CVStrategy/CVStrategyV0_0.sol:CVStrategyV0_0","label":"minThresholdPoints","offset":0,"slot":"3","type":"t_uint256"}]},"t_struct(Metadata)3098_storage":{"encoding":"inplace","label":"struct Metadata","numberOfBytes":"64","members":[{"astId":3094,"contract":"pkg/contracts/src/CVStrategy/CVStrategyV0_0.sol:CVStrategyV0_0","label":"protocol","offset":0,"slot":"0","type":"t_uint256"},{"astId":3097,"contract":"pkg/contracts/src/CVStrategy/CVStrategyV0_0.sol:CVStrategyV0_0","label":"pointer","offset":0,"slot":"1","type":"t_string_storage"}]},"t_struct(PointSystemConfig)65610_storage":{"encoding":"inplace","label":"struct PointSystemConfig","numberOfBytes":"32","members":[{"astId":65609,"contract":"pkg/contracts/src/CVStrategy/CVStrategyV0_0.sol:CVStrategyV0_0","label":"maxAmount","offset":0,"slot":"0","type":"t_uint256"}]},"t_struct(Proposal)65602_storage":{"encoding":"inplace","label":"struct Proposal","numberOfBytes":"544","members":[{"astId":65570,"contract":"pkg/contracts/src/CVStrategy/CVStrategyV0_0.sol:CVStrategyV0_0","label":"proposalId","offset":0,"slot":"0","type":"t_uint256"},{"astId":65572,"contract":"pkg/contracts/src/CVStrategy/CVStrategyV0_0.sol:CVStrategyV0_0","label":"requestedAmount","offset":0,"slot":"1","type":"t_uint256"},{"astId":65574,"contract":"pkg/contracts/src/CVStrategy/CVStrategyV0_0.sol:CVStrategyV0_0","label":"stakedAmount","offset":0,"slot":"2","type":"t_uint256"},{"astId":65576,"contract":"pkg/contracts/src/CVStrategy/CVStrategyV0_0.sol:CVStrategyV0_0","label":"convictionLast","offset":0,"slot":"3","type":"t_uint256"},{"astId":65578,"contract":"pkg/contracts/src/CVStrategy/CVStrategyV0_0.sol:CVStrategyV0_0","label":"beneficiary","offset":0,"slot":"4","type":"t_address"},{"astId":65580,"contract":"pkg/contracts/src/CVStrategy/CVStrategyV0_0.sol:CVStrategyV0_0","label":"submitter","offset":0,"slot":"5","type":"t_address"},{"astId":65582,"contract":"pkg/contracts/src/CVStrategy/CVStrategyV0_0.sol:CVStrategyV0_0","label":"requestedToken","offset":0,"slot":"6","type":"t_address"},{"astId":65584,"contract":"pkg/contracts/src/CVStrategy/CVStrategyV0_0.sol:CVStrategyV0_0","label":"blockLast","offset":0,"slot":"7","type":"t_uint256"},{"astId":65587,"contract":"pkg/contracts/src/CVStrategy/CVStrategyV0_0.sol:CVStrategyV0_0","label":"proposalStatus","offset":0,"slot":"8","type":"t_enum(ProposalStatus)65561"},{"astId":65591,"contract":"pkg/contracts/src/CVStrategy/CVStrategyV0_0.sol:CVStrategyV0_0","label":"voterStakedPoints","offset":0,"slot":"9","type":"t_mapping(t_address,t_uint256)"},{"astId":65594,"contract":"pkg/contracts/src/CVStrategy/CVStrategyV0_0.sol:CVStrategyV0_0","label":"metadata","offset":0,"slot":"10","type":"t_struct(Metadata)3098_storage"},{"astId":65597,"contract":"pkg/contracts/src/CVStrategy/CVStrategyV0_0.sol:CVStrategyV0_0","label":"disputeInfo","offset":0,"slot":"12","type":"t_struct(ProposalDisputeInfo)65568_storage"},{"astId":65599,"contract":"pkg/contracts/src/CVStrategy/CVStrategyV0_0.sol:CVStrategyV0_0","label":"lastDisputeCompletion","offset":0,"slot":"15","type":"t_uint256"},{"astId":65601,"contract":"pkg/contracts/src/CVStrategy/CVStrategyV0_0.sol:CVStrategyV0_0","label":"arbitrableConfigVersion","offset":0,"slot":"16","type":"t_uint256"}]},"t_struct(ProposalDisputeInfo)65568_storage":{"encoding":"inplace","label":"struct ProposalDisputeInfo","numberOfBytes":"96","members":[{"astId":65563,"contract":"pkg/contracts/src/CVStrategy/CVStrategyV0_0.sol:CVStrategyV0_0","label":"disputeId","offset":0,"slot":"0","type":"t_uint256"},{"astId":65565,"contract":"pkg/contracts/src/CVStrategy/CVStrategyV0_0.sol:CVStrategyV0_0","label":"disputeTimestamp","offset":0,"slot":"1","type":"t_uint256"},{"astId":65567,"contract":"pkg/contracts/src/CVStrategy/CVStrategyV0_0.sol:CVStrategyV0_0","label":"challenger","offset":0,"slot":"2","type":"t_address"}]},"t_uint256":{"encoding":"inplace","label":"uint256","numberOfBytes":"32"},"t_uint64":{"encoding":"inplace","label":"uint64","numberOfBytes":"8"},"t_uint8":{"encoding":"inplace","label":"uint8","numberOfBytes":"1"}}},"id":98}