{"abi":[{"type":"fallback","stateMutability":"payable"},{"type":"receive","stateMutability":"payable"},{"type":"function","name":"D","inputs":[],"outputs":[{"name":"","type":"uint256","internalType":"uint256"}],"stateMutability":"view"},{"type":"function","name":"DISPUTE_COOLDOWN_SEC","inputs":[],"outputs":[{"name":"","type":"uint256","internalType":"uint256"}],"stateMutability":"view"},{"type":"function","name":"MAX_STAKED_PROPOSALS","inputs":[],"outputs":[{"name":"","type":"uint256","internalType":"uint256"}],"stateMutability":"view"},{"type":"function","name":"NATIVE","inputs":[],"outputs":[{"name":"","type":"address","internalType":"address"}],"stateMutability":"view"},{"type":"function","name":"RULING_OPTIONS","inputs":[],"outputs":[{"name":"","type":"uint256","internalType":"uint256"}],"stateMutability":"view"},{"type":"function","name":"activatePoints","inputs":[],"outputs":[],"stateMutability":"nonpayable"},{"type":"function","name":"allocate","inputs":[{"name":"_data","type":"bytes","internalType":"bytes"},{"name":"_sender","type":"address","internalType":"address"}],"outputs":[],"stateMutability":"payable"},{"type":"function","name":"arbitrableConfig","inputs":[],"outputs":[{"name":"arbitrator","type":"address","internalType":"contract IArbitrator"},{"name":"tribunalSafe","type":"address","internalType":"address"},{"name":"submitterCollateralAmount","type":"uint256","internalType":"uint256"},{"name":"challengerCollateralAmount","type":"uint256","internalType":"uint256"},{"name":"defaultRuling","type":"uint256","internalType":"uint256"},{"name":"defaultRulingTimeout","type":"uint256","internalType":"uint256"},{"name":"collateralVaultTemplate","type":"address","internalType":"address"}],"stateMutability":"view"},{"type":"function","name":"calculateConviction","inputs":[{"name":"_timePassed","type":"uint256","internalType":"uint256"},{"name":"_lastConv","type":"uint256","internalType":"uint256"},{"name":"_oldAmount","type":"uint256","internalType":"uint256"}],"outputs":[{"name":"","type":"uint256","internalType":"uint256"}],"stateMutability":"view"},{"type":"function","name":"calculateThreshold","inputs":[{"name":"_requestedAmount","type":"uint256","internalType":"uint256"}],"outputs":[{"name":"_threshold","type":"uint256","internalType":"uint256"}],"stateMutability":"view"},{"type":"function","name":"canExecuteProposal","inputs":[{"name":"proposalId","type":"uint256","internalType":"uint256"}],"outputs":[{"name":"canBeExecuted","type":"bool","internalType":"bool"}],"stateMutability":"view"},{"type":"function","name":"cloneNonce","inputs":[],"outputs":[{"name":"","type":"uint256","internalType":"uint256"}],"stateMutability":"view"},{"type":"function","name":"collateralVault","inputs":[],"outputs":[{"name":"","type":"address","internalType":"contract CollateralVault"}],"stateMutability":"view"},{"type":"function","name":"cvParams","inputs":[],"outputs":[{"name":"maxRatio","type":"uint256","internalType":"uint256"},{"name":"weight","type":"uint256","internalType":"uint256"},{"name":"decay","type":"uint256","internalType":"uint256"},{"name":"minThresholdPoints","type":"uint256","internalType":"uint256"}],"stateMutability":"view"},{"type":"function","name":"deactivatePoints","inputs":[],"outputs":[],"stateMutability":"nonpayable"},{"type":"function","name":"deactivatePoints","inputs":[{"name":"_member","type":"address","internalType":"address"}],"outputs":[],"stateMutability":"nonpayable"},{"type":"function","name":"decreasePower","inputs":[{"name":"_member","type":"address","internalType":"address"},{"name":"_amountToUnstake","type":"uint256","internalType":"uint256"}],"outputs":[{"name":"","type":"uint256","internalType":"uint256"}],"stateMutability":"nonpayable"},{"type":"function","name":"disputeCount","inputs":[],"outputs":[{"name":"","type":"uint64","internalType":"uint64"}],"stateMutability":"view"},{"type":"function","name":"disputeIdToProposalId","inputs":[{"name":"","type":"uint256","internalType":"uint256"}],"outputs":[{"name":"","type":"uint256","internalType":"uint256"}],"stateMutability":"view"},{"type":"function","name":"disputeProposal","inputs":[{"name":"proposalId","type":"uint256","internalType":"uint256"},{"name":"context","type":"string","internalType":"string"},{"name":"_extraData","type":"bytes","internalType":"bytes"}],"outputs":[],"stateMutability":"payable"},{"type":"function","name":"distribute","inputs":[{"name":"_recipientIds","type":"address[]","internalType":"address[]"},{"name":"_data","type":"bytes","internalType":"bytes"},{"name":"_sender","type":"address","internalType":"address"}],"outputs":[],"stateMutability":"nonpayable"},{"type":"function","name":"getAllo","inputs":[],"outputs":[{"name":"","type":"address","internalType":"contract IAllo"}],"stateMutability":"view"},{"type":"function","name":"getCollateralAmounts","inputs":[],"outputs":[{"name":"","type":"uint256","internalType":"uint256"},{"name":"","type":"uint256","internalType":"uint256"}],"stateMutability":"view"},{"type":"function","name":"getMaxAmount","inputs":[],"outputs":[{"name":"","type":"uint256","internalType":"uint256"}],"stateMutability":"view"},{"type":"function","name":"getMaxConviction","inputs":[{"name":"amount","type":"uint256","internalType":"uint256"}],"outputs":[{"name":"","type":"uint256","internalType":"uint256"}],"stateMutability":"view"},{"type":"function","name":"getMetadata","inputs":[{"name":"_proposalId","type":"uint256","internalType":"uint256"}],"outputs":[{"name":"","type":"tuple","internalType":"struct Metadata","components":[{"name":"protocol","type":"uint256","internalType":"uint256"},{"name":"pointer","type":"string","internalType":"string"}]}],"stateMutability":"view"},{"type":"function","name":"getPayouts","inputs":[{"name":"","type":"address[]","internalType":"address[]"},{"name":"","type":"bytes[]","internalType":"bytes[]"}],"outputs":[{"name":"","type":"tuple[]","internalType":"struct IStrategy.PayoutSummary[]","components":[{"name":"recipientAddress","type":"address","internalType":"address"},{"name":"amount","type":"uint256","internalType":"uint256"}]}],"stateMutability":"pure"},{"type":"function","name":"getPointSystem","inputs":[],"outputs":[{"name":"","type":"uint8","internalType":"enum StrategyStruct.PointSystem"}],"stateMutability":"view"},{"type":"function","name":"getPoolAmount","inputs":[],"outputs":[{"name":"","type":"uint256","internalType":"uint256"}],"stateMutability":"view"},{"type":"function","name":"getPoolId","inputs":[],"outputs":[{"name":"","type":"uint256","internalType":"uint256"}],"stateMutability":"view"},{"type":"function","name":"getProposal","inputs":[{"name":"_proposalId","type":"uint256","internalType":"uint256"}],"outputs":[{"name":"submitter","type":"address","internalType":"address"},{"name":"beneficiary","type":"address","internalType":"address"},{"name":"requestedToken","type":"address","internalType":"address"},{"name":"requestedAmount","type":"uint256","internalType":"uint256"},{"name":"stakedAmount","type":"uint256","internalType":"uint256"},{"name":"proposalStatus","type":"uint8","internalType":"enum StrategyStruct.ProposalStatus"},{"name":"blockLast","type":"uint256","internalType":"uint256"},{"name":"convictionLast","type":"uint256","internalType":"uint256"},{"name":"threshold","type":"uint256","internalType":"uint256"},{"name":"voterStakedPoints","type":"uint256","internalType":"uint256"}],"stateMutability":"view"},{"type":"function","name":"getProposalStakedAmount","inputs":[{"name":"_proposalId","type":"uint256","internalType":"uint256"}],"outputs":[{"name":"","type":"uint256","internalType":"uint256"}],"stateMutability":"view"},{"type":"function","name":"getProposalVoterStake","inputs":[{"name":"_proposalId","type":"uint256","internalType":"uint256"},{"name":"_voter","type":"address","internalType":"address"}],"outputs":[{"name":"","type":"uint256","internalType":"uint256"}],"stateMutability":"view"},{"type":"function","name":"getRecipientStatus","inputs":[{"name":"_recipientId","type":"address","internalType":"address"}],"outputs":[{"name":"","type":"uint8","internalType":"enum IStrategy.Status"}],"stateMutability":"view"},{"type":"function","name":"getStrategyId","inputs":[],"outputs":[{"name":"","type":"bytes32","internalType":"bytes32"}],"stateMutability":"view"},{"type":"function","name":"getTotalVoterStakePct","inputs":[{"name":"_voter","type":"address","internalType":"address"}],"outputs":[{"name":"","type":"uint256","internalType":"uint256"}],"stateMutability":"view"},{"type":"function","name":"increasePoolAmount","inputs":[{"name":"_amount","type":"uint256","internalType":"uint256"}],"outputs":[],"stateMutability":"nonpayable"},{"type":"function","name":"increasePower","inputs":[{"name":"_member","type":"address","internalType":"address"},{"name":"_amountToStake","type":"uint256","internalType":"uint256"}],"outputs":[{"name":"","type":"uint256","internalType":"uint256"}],"stateMutability":"nonpayable"},{"type":"function","name":"init","inputs":[{"name":"_allo","type":"address","internalType":"address"}],"outputs":[],"stateMutability":"nonpayable"},{"type":"function","name":"init","inputs":[{"name":"_allo","type":"address","internalType":"address"},{"name":"_name","type":"string","internalType":"string"}],"outputs":[],"stateMutability":"nonpayable"},{"type":"function","name":"initialize","inputs":[{"name":"_poolId","type":"uint256","internalType":"uint256"},{"name":"_data","type":"bytes","internalType":"bytes"}],"outputs":[],"stateMutability":"nonpayable"},{"type":"function","name":"isPoolActive","inputs":[],"outputs":[{"name":"","type":"bool","internalType":"bool"}],"stateMutability":"view"},{"type":"function","name":"isValidAllocator","inputs":[{"name":"_allocator","type":"address","internalType":"address"}],"outputs":[{"name":"","type":"bool","internalType":"bool"}],"stateMutability":"view"},{"type":"function","name":"owner","inputs":[],"outputs":[{"name":"","type":"address","internalType":"address"}],"stateMutability":"view"},{"type":"function","name":"pointConfig","inputs":[],"outputs":[{"name":"maxAmount","type":"uint256","internalType":"uint256"}],"stateMutability":"view"},{"type":"function","name":"pointSystem","inputs":[],"outputs":[{"name":"","type":"uint8","internalType":"enum StrategyStruct.PointSystem"}],"stateMutability":"view"},{"type":"function","name":"proposalCounter","inputs":[],"outputs":[{"name":"","type":"uint256","internalType":"uint256"}],"stateMutability":"view"},{"type":"function","name":"proposalType","inputs":[],"outputs":[{"name":"","type":"uint8","internalType":"enum StrategyStruct.ProposalType"}],"stateMutability":"view"},{"type":"function","name":"proposals","inputs":[{"name":"","type":"uint256","internalType":"uint256"}],"outputs":[{"name":"proposalId","type":"uint256","internalType":"uint256"},{"name":"requestedAmount","type":"uint256","internalType":"uint256"},{"name":"stakedAmount","type":"uint256","internalType":"uint256"},{"name":"convictionLast","type":"uint256","internalType":"uint256"},{"name":"beneficiary","type":"address","internalType":"address"},{"name":"submitter","type":"address","internalType":"address"},{"name":"requestedToken","type":"address","internalType":"address"},{"name":"blockLast","type":"uint256","internalType":"uint256"},{"name":"proposalStatus","type":"uint8","internalType":"enum StrategyStruct.ProposalStatus"},{"name":"metadata","type":"tuple","internalType":"struct Metadata","components":[{"name":"protocol","type":"uint256","internalType":"uint256"},{"name":"pointer","type":"string","internalType":"string"}]},{"name":"disputeId","type":"uint256","internalType":"uint256"},{"name":"disputeTimestamp","type":"uint256","internalType":"uint256"},{"name":"challenger","type":"address","internalType":"address"},{"name":"lastDisputeCompletion","type":"uint256","internalType":"uint256"}],"stateMutability":"view"},{"type":"function","name":"proxiableUUID","inputs":[],"outputs":[{"name":"","type":"bytes32","internalType":"bytes32"}],"stateMutability":"view"},{"type":"function","name":"registerRecipient","inputs":[{"name":"_data","type":"bytes","internalType":"bytes"},{"name":"_sender","type":"address","internalType":"address"}],"outputs":[{"name":"recipientId","type":"address","internalType":"address"}],"stateMutability":"payable"},{"type":"function","name":"registryCommunity","inputs":[],"outputs":[{"name":"","type":"address","internalType":"contract RegistryCommunityV0_0"}],"stateMutability":"view"},{"type":"function","name":"renounceOwnership","inputs":[],"outputs":[],"stateMutability":"nonpayable"},{"type":"function","name":"rule","inputs":[{"name":"_disputeID","type":"uint256","internalType":"uint256"},{"name":"_ruling","type":"uint256","internalType":"uint256"}],"outputs":[],"stateMutability":"nonpayable"},{"type":"function","name":"setPoolActive","inputs":[{"name":"_active","type":"bool","internalType":"bool"}],"outputs":[],"stateMutability":"nonpayable"},{"type":"function","name":"setPoolParams","inputs":[{"name":"_arbitrableConfig","type":"tuple","internalType":"struct StrategyStruct.ArbitrableConfig","components":[{"name":"arbitrator","type":"address","internalType":"contract IArbitrator"},{"name":"tribunalSafe","type":"address","internalType":"address"},{"name":"submitterCollateralAmount","type":"uint256","internalType":"uint256"},{"name":"challengerCollateralAmount","type":"uint256","internalType":"uint256"},{"name":"defaultRuling","type":"uint256","internalType":"uint256"},{"name":"defaultRulingTimeout","type":"uint256","internalType":"uint256"},{"name":"collateralVaultTemplate","type":"address","internalType":"address"}]},{"name":"_cvParams","type":"tuple","internalType":"struct StrategyStruct.CVParams","components":[{"name":"maxRatio","type":"uint256","internalType":"uint256"},{"name":"weight","type":"uint256","internalType":"uint256"},{"name":"decay","type":"uint256","internalType":"uint256"},{"name":"minThresholdPoints","type":"uint256","internalType":"uint256"}]}],"outputs":[],"stateMutability":"nonpayable"},{"type":"function","name":"setRegistryCommunity","inputs":[{"name":"_registryCommunity","type":"address","internalType":"address"}],"outputs":[],"stateMutability":"nonpayable"},{"type":"function","name":"setSybilScorer","inputs":[{"name":"_sybilScorer","type":"address","internalType":"address"}],"outputs":[],"stateMutability":"nonpayable"},{"type":"function","name":"supportProposal","inputs":[{"name":"","type":"tuple[]","internalType":"struct StrategyStruct.ProposalSupport[]","components":[{"name":"proposalId","type":"uint256","internalType":"uint256"},{"name":"deltaSupport","type":"int256","internalType":"int256"}]}],"outputs":[],"stateMutability":"pure"},{"type":"function","name":"supportsInterface","inputs":[{"name":"interfaceId","type":"bytes4","internalType":"bytes4"}],"outputs":[{"name":"","type":"bool","internalType":"bool"}],"stateMutability":"view"},{"type":"function","name":"sybilScorer","inputs":[],"outputs":[{"name":"","type":"address","internalType":"contract ISybilScorer"}],"stateMutability":"view"},{"type":"function","name":"totalEffectiveActivePoints","inputs":[],"outputs":[{"name":"","type":"uint256","internalType":"uint256"}],"stateMutability":"view"},{"type":"function","name":"totalPointsActivated","inputs":[],"outputs":[{"name":"","type":"uint256","internalType":"uint256"}],"stateMutability":"view"},{"type":"function","name":"totalStaked","inputs":[],"outputs":[{"name":"","type":"uint256","internalType":"uint256"}],"stateMutability":"view"},{"type":"function","name":"totalVoterStakePct","inputs":[{"name":"","type":"address","internalType":"address"}],"outputs":[{"name":"","type":"uint256","internalType":"uint256"}],"stateMutability":"view"},{"type":"function","name":"transferOwnership","inputs":[{"name":"newOwner","type":"address","internalType":"address"}],"outputs":[],"stateMutability":"nonpayable"},{"type":"function","name":"updateProposalConviction","inputs":[{"name":"proposalId","type":"uint256","internalType":"uint256"}],"outputs":[{"name":"","type":"uint256","internalType":"uint256"}],"stateMutability":"nonpayable"},{"type":"function","name":"upgradeTo","inputs":[{"name":"newImplementation","type":"address","internalType":"address"}],"outputs":[],"stateMutability":"nonpayable"},{"type":"function","name":"upgradeToAndCall","inputs":[{"name":"newImplementation","type":"address","internalType":"address"},{"name":"data","type":"bytes","internalType":"bytes"}],"outputs":[],"stateMutability":"payable"},{"type":"function","name":"voterStakedProposals","inputs":[{"name":"","type":"address","internalType":"address"},{"name":"","type":"uint256","internalType":"uint256"}],"outputs":[{"name":"","type":"uint256","internalType":"uint256"}],"stateMutability":"view"},{"type":"event","name":"AdminChanged","inputs":[{"name":"previousAdmin","type":"address","indexed":false,"internalType":"address"},{"name":"newAdmin","type":"address","indexed":false,"internalType":"address"}],"anonymous":false},{"type":"event","name":"Allocated","inputs":[{"name":"recipientId","type":"address","indexed":true,"internalType":"address"},{"name":"amount","type":"uint256","indexed":false,"internalType":"uint256"},{"name":"token","type":"address","indexed":false,"internalType":"address"},{"name":"sender","type":"address","indexed":false,"internalType":"address"}],"anonymous":false},{"type":"event","name":"BeaconUpgraded","inputs":[{"name":"beacon","type":"address","indexed":true,"internalType":"address"}],"anonymous":false},{"type":"event","name":"DisputeRequest","inputs":[{"name":"_arbitrator","type":"address","indexed":true,"internalType":"contract IArbitrator"},{"name":"_arbitrableDisputeID","type":"uint256","indexed":true,"internalType":"uint256"},{"name":"_externalDisputeID","type":"uint256","indexed":false,"internalType":"uint256"},{"name":"_templateId","type":"uint256","indexed":false,"internalType":"uint256"},{"name":"_templateUri","type":"string","indexed":false,"internalType":"string"}],"anonymous":false},{"type":"event","name":"Distributed","inputs":[{"name":"proposalId","type":"uint256","indexed":false,"internalType":"uint256"},{"name":"beneficiary","type":"address","indexed":false,"internalType":"address"},{"name":"amount","type":"uint256","indexed":false,"internalType":"uint256"}],"anonymous":false},{"type":"event","name":"Distributed","inputs":[{"name":"recipientId","type":"address","indexed":true,"internalType":"address"},{"name":"recipientAddress","type":"address","indexed":false,"internalType":"address"},{"name":"amount","type":"uint256","indexed":false,"internalType":"uint256"},{"name":"sender","type":"address","indexed":false,"internalType":"address"}],"anonymous":false},{"type":"event","name":"Initialized","inputs":[{"name":"poolId","type":"uint256","indexed":false,"internalType":"uint256"},{"name":"data","type":"bytes","indexed":false,"internalType":"bytes"}],"anonymous":false},{"type":"event","name":"Initialized","inputs":[{"name":"version","type":"uint8","indexed":false,"internalType":"uint8"}],"anonymous":false},{"type":"event","name":"InitializedCV","inputs":[{"name":"poolId","type":"uint256","indexed":false,"internalType":"uint256"},{"name":"data","type":"tuple","indexed":false,"internalType":"struct StrategyStruct.InitializeParams","components":[{"name":"cvParams","type":"tuple","internalType":"struct StrategyStruct.CVParams","components":[{"name":"maxRatio","type":"uint256","internalType":"uint256"},{"name":"weight","type":"uint256","internalType":"uint256"},{"name":"decay","type":"uint256","internalType":"uint256"},{"name":"minThresholdPoints","type":"uint256","internalType":"uint256"}]},{"name":"proposalType","type":"uint8","internalType":"enum StrategyStruct.ProposalType"},{"name":"pointSystem","type":"uint8","internalType":"enum StrategyStruct.PointSystem"},{"name":"pointConfig","type":"tuple","internalType":"struct StrategyStruct.PointSystemConfig","components":[{"name":"maxAmount","type":"uint256","internalType":"uint256"}]},{"name":"arbitrableConfig","type":"tuple","internalType":"struct StrategyStruct.ArbitrableConfig","components":[{"name":"arbitrator","type":"address","internalType":"contract IArbitrator"},{"name":"tribunalSafe","type":"address","internalType":"address"},{"name":"submitterCollateralAmount","type":"uint256","internalType":"uint256"},{"name":"challengerCollateralAmount","type":"uint256","internalType":"uint256"},{"name":"defaultRuling","type":"uint256","internalType":"uint256"},{"name":"defaultRulingTimeout","type":"uint256","internalType":"uint256"},{"name":"collateralVaultTemplate","type":"address","internalType":"address"}]},{"name":"registryCommunity","type":"address","internalType":"address"},{"name":"sybilScorer","type":"address","internalType":"address"}]}],"anonymous":false},{"type":"event","name":"MinThresholdPointsUpdated","inputs":[{"name":"before","type":"uint256","indexed":false,"internalType":"uint256"},{"name":"minThresholdPoints","type":"uint256","indexed":false,"internalType":"uint256"}],"anonymous":false},{"type":"event","name":"OwnershipTransferred","inputs":[{"name":"previousOwner","type":"address","indexed":true,"internalType":"address"},{"name":"newOwner","type":"address","indexed":true,"internalType":"address"}],"anonymous":false},{"type":"event","name":"PointsDeactivated","inputs":[{"name":"member","type":"address","indexed":false,"internalType":"address"}],"anonymous":false},{"type":"event","name":"PoolActive","inputs":[{"name":"active","type":"bool","indexed":false,"internalType":"bool"}],"anonymous":false},{"type":"event","name":"PoolAmountIncreased","inputs":[{"name":"amount","type":"uint256","indexed":false,"internalType":"uint256"}],"anonymous":false},{"type":"event","name":"PoolParamsUpdated","inputs":[{"name":"cvParams","type":"tuple","indexed":false,"internalType":"struct StrategyStruct.CVParams","components":[{"name":"maxRatio","type":"uint256","internalType":"uint256"},{"name":"weight","type":"uint256","internalType":"uint256"},{"name":"decay","type":"uint256","internalType":"uint256"},{"name":"minThresholdPoints","type":"uint256","internalType":"uint256"}]},{"name":"arbitrableConfig","type":"tuple","indexed":false,"internalType":"struct StrategyStruct.ArbitrableConfig","components":[{"name":"arbitrator","type":"address","internalType":"contract IArbitrator"},{"name":"tribunalSafe","type":"address","internalType":"address"},{"name":"submitterCollateralAmount","type":"uint256","internalType":"uint256"},{"name":"challengerCollateralAmount","type":"uint256","internalType":"uint256"},{"name":"defaultRuling","type":"uint256","internalType":"uint256"},{"name":"defaultRulingTimeout","type":"uint256","internalType":"uint256"},{"name":"collateralVaultTemplate","type":"address","internalType":"address"}]}],"anonymous":false},{"type":"event","name":"PowerDecreased","inputs":[{"name":"member","type":"address","indexed":false,"internalType":"address"},{"name":"tokensUnStaked","type":"uint256","indexed":false,"internalType":"uint256"},{"name":"pointsToDecrease","type":"uint256","indexed":false,"internalType":"uint256"}],"anonymous":false},{"type":"event","name":"PowerIncreased","inputs":[{"name":"member","type":"address","indexed":false,"internalType":"address"},{"name":"tokensStaked","type":"uint256","indexed":false,"internalType":"uint256"},{"name":"pointsToIncrease","type":"uint256","indexed":false,"internalType":"uint256"}],"anonymous":false},{"type":"event","name":"ProposalCreated","inputs":[{"name":"poolId","type":"uint256","indexed":false,"internalType":"uint256"},{"name":"proposalId","type":"uint256","indexed":false,"internalType":"uint256"}],"anonymous":false},{"type":"event","name":"ProposalDisputed","inputs":[{"name":"arbitrator","type":"address","indexed":false,"internalType":"contract IArbitrator"},{"name":"proposalId","type":"uint256","indexed":false,"internalType":"uint256"},{"name":"disputeId","type":"uint256","indexed":false,"internalType":"uint256"},{"name":"challenger","type":"address","indexed":false,"internalType":"address"},{"name":"context","type":"string","indexed":false,"internalType":"string"},{"name":"timestamp","type":"uint256","indexed":false,"internalType":"uint256"}],"anonymous":false},{"type":"event","name":"Registered","inputs":[{"name":"recipientId","type":"address","indexed":true,"internalType":"address"},{"name":"data","type":"bytes","indexed":false,"internalType":"bytes"},{"name":"sender","type":"address","indexed":false,"internalType":"address"}],"anonymous":false},{"type":"event","name":"RegistryUpdated","inputs":[{"name":"registryCommunity","type":"address","indexed":false,"internalType":"address"}],"anonymous":false},{"type":"event","name":"Ruling","inputs":[{"name":"_arbitrator","type":"address","indexed":true,"internalType":"contract IArbitrator"},{"name":"_disputeID","type":"uint256","indexed":true,"internalType":"uint256"},{"name":"_ruling","type":"uint256","indexed":false,"internalType":"uint256"}],"anonymous":false},{"type":"event","name":"SupportAdded","inputs":[{"name":"from","type":"address","indexed":false,"internalType":"address"},{"name":"proposalId","type":"uint256","indexed":false,"internalType":"uint256"},{"name":"amount","type":"uint256","indexed":false,"internalType":"uint256"},{"name":"totalStakedAmount","type":"uint256","indexed":false,"internalType":"uint256"},{"name":"convictionLast","type":"uint256","indexed":false,"internalType":"uint256"}],"anonymous":false},{"type":"event","name":"TribunaSafeRegistered","inputs":[{"name":"strategy","type":"address","indexed":false,"internalType":"address"},{"name":"arbitrator","type":"address","indexed":false,"internalType":"address"},{"name":"tribunalSafe","type":"address","indexed":false,"internalType":"address"}],"anonymous":false},{"type":"event","name":"Upgraded","inputs":[{"name":"implementation","type":"address","indexed":true,"internalType":"address"}],"anonymous":false},{"type":"error","name":"ALLOCATION_ACTIVE","inputs":[]},{"type":"error","name":"ALLOCATION_NOT_ACTIVE","inputs":[]},{"type":"error","name":"ALLOCATION_NOT_ENDED","inputs":[]},{"type":"error","name":"ALREADY_INITIALIZED","inputs":[]},{"type":"error","name":"AMOUNT_MISMATCH","inputs":[]},{"type":"error","name":"ANCHOR_ERROR","inputs":[]},{"type":"error","name":"ARRAY_MISMATCH","inputs":[]},{"type":"error","name":"AddressCannotBeZero","inputs":[]},{"type":"error","name":"AmountOverMaxRatio","inputs":[]},{"type":"error","name":"ArbitrationConfigCannotBeChangedDuringDispute","inputs":[]},{"type":"error","name":"ArbitratorCannotBeZero","inputs":[]},{"type":"error","name":"CantIncreaseFixedSystem","inputs":[]},{"type":"error","name":"CollateralVaultCannotBeZero","inputs":[]},{"type":"error","name":"ConvictionUnderMinimumThreshold","inputs":[]},{"type":"error","name":"DefaultRulingNotSet","inputs":[]},{"type":"error","name":"DisputeCooldownNotPassed","inputs":[{"name":"_proposalId","type":"uint256","internalType":"uint256"}]},{"type":"error","name":"INVALID","inputs":[]},{"type":"error","name":"INVALID_ADDRESS","inputs":[]},{"type":"error","name":"INVALID_FEE","inputs":[]},{"type":"error","name":"INVALID_METADATA","inputs":[]},{"type":"error","name":"INVALID_REGISTRATION","inputs":[]},{"type":"error","name":"IS_APPROVED_STRATEGY","inputs":[]},{"type":"error","name":"InsufficientCollateral","inputs":[{"name":"sentAmount","type":"uint256","internalType":"uint256"},{"name":"requiredAmount","type":"uint256","internalType":"uint256"}]},{"type":"error","name":"MISMATCH","inputs":[]},{"type":"error","name":"MaxPointsReached","inputs":[]},{"type":"error","name":"NONCE_NOT_AVAILABLE","inputs":[]},{"type":"error","name":"NOT_APPROVED_STRATEGY","inputs":[]},{"type":"error","name":"NOT_ENOUGH_FUNDS","inputs":[]},{"type":"error","name":"NOT_IMPLEMENTED","inputs":[]},{"type":"error","name":"NOT_INITIALIZED","inputs":[]},{"type":"error","name":"NOT_PENDING_OWNER","inputs":[]},{"type":"error","name":"NotEnoughPointsToSupport","inputs":[{"name":"pointsSupport","type":"uint256","internalType":"uint256"},{"name":"pointsBalance","type":"uint256","internalType":"uint256"}]},{"type":"error","name":"NotImplemented","inputs":[]},{"type":"error","name":"OnlyArbitrator","inputs":[]},{"type":"error","name":"OnlyCommunityAllowed","inputs":[]},{"type":"error","name":"OnlyCouncilSafe","inputs":[]},{"type":"error","name":"POOL_ACTIVE","inputs":[]},{"type":"error","name":"POOL_INACTIVE","inputs":[]},{"type":"error","name":"PoolAmountNotEnough","inputs":[{"name":"_proposalId","type":"uint256","internalType":"uint256"},{"name":"_requestedAmount","type":"uint256","internalType":"uint256"},{"name":"_poolAmount","type":"uint256","internalType":"uint256"}]},{"type":"error","name":"PoolIdCannotBeZero","inputs":[]},{"type":"error","name":"PoolIsEmpty","inputs":[]},{"type":"error","name":"ProposalDataIsEmpty","inputs":[]},{"type":"error","name":"ProposalIdCannotBeZero","inputs":[]},{"type":"error","name":"ProposalNotActive","inputs":[{"name":"_proposalId","type":"uint256","internalType":"uint256"}]},{"type":"error","name":"ProposalNotDisputed","inputs":[{"name":"_proposalId","type":"uint256","internalType":"uint256"}]},{"type":"error","name":"ProposalNotInList","inputs":[{"name":"_proposalId","type":"uint256","internalType":"uint256"}]},{"type":"error","name":"ProposalSupportDuplicated","inputs":[{"name":"_proposalId","type":"uint256","internalType":"uint256"},{"name":"index","type":"uint256","internalType":"uint256"}]},{"type":"error","name":"RECIPIENT_ALREADY_ACCEPTED","inputs":[]},{"type":"error","name":"RECIPIENT_ERROR","inputs":[{"name":"recipientId","type":"address","internalType":"address"}]},{"type":"error","name":"RECIPIENT_NOT_ACCEPTED","inputs":[]},{"type":"error","name":"REGISTRATION_NOT_ACTIVE","inputs":[]},{"type":"error","name":"RegistryCannotBeZero","inputs":[]},{"type":"error","name":"SupportUnderflow","inputs":[{"name":"_support","type":"uint256","internalType":"uint256"},{"name":"_delta","type":"int256","internalType":"int256"},{"name":"_result","type":"int256","internalType":"int256"}]},{"type":"error","name":"TokenCannotBeZero","inputs":[]},{"type":"error","name":"TokenNotAllowed","inputs":[]},{"type":"error","name":"UNAUTHORIZED","inputs":[]},{"type":"error","name":"UserCannotBeZero","inputs":[]},{"type":"error","name":"UserCannotExecuteAction","inputs":[]},{"type":"error","name":"UserIsInactive","inputs":[]},{"type":"error","name":"UserNotInRegistry","inputs":[]},{"type":"error","name":"ZERO_ADDRESS","inputs":[]}],"bytecode":{"object":"0x60a060405230608052609e80546001600160401b03191690556000609f5534801561002957600080fd5b50608051616bc2620000626000396000818161199201528181611a1701528181611b1801528181611b9d0152611c830152616bc26000f3fe6080604052600436106104275760003560e01c8063715018a611610222578063b5f620ce11610131578063e0dd2c38116100b2578063ef2920fc11610084578063f321b3051161006c578063f321b30514610d27578063f5b0dfb714610d47578063f5be3f7c14610d6757005b8063ef2920fc14610cf4578063f2fde38b14610d0757005b8063e0dd2c3814610c67578063e33add9314610c87578063eb11af9314610ca7578063edd146cc14610cd457005b8063c46dac0e11610103578063d1e36232116100eb578063d1e3623214610c0d578063dc96ff2d14610c22578063df868ed314610c5257005b8063c46dac0e14610baf578063c7f758a814610bd757005b8063b5f620ce14610b1c578063b6c61f3114610b3c578063bcc5b93b14610b5c578063c329217114610b9257005b80639e7febaf116101bb578063a574cea41161018d578063ac1ed7b911610175578063ac1ed7b914610abc578063b2b878d014610adc578063b41596ec14610b0957005b8063a574cea414610a79578063aba9ffee14610aa657005b80639e7febaf146109e0578063a0cf0aea14610a00578063a28889e114610a28578063a47ff7e514610a6257005b8063824ea8ed116101f4578063824ea8ed14610962578063868c57b8146109825780638da5cb5b146109a2578063950559d7146109c057005b8063715018a614610902578063782aadff14610917578063814516ad14610937578063817b1cd21461094c57005b80632ed04b2b116103365780634ab4ba42116102b757806359a5db8b116102895780636003e414116102715780636003e414146108ad578063626c47e8146108cd5780636453d9c4146108e257005b806359a5db8b146108605780635db64b991461088057005b80634ab4ba42146108035780634d31d087146108185780634f1ef2861461083857806352d1902d1461084b57005b8063351d9f961161030857806338fff2d0116102f057806338fff2d0146107c4578063406244d8146107d957806342fda9c7146107ee57005b8063351d9f961461077d5780633659cfe6146107a457005b80632ed04b2b14610707578063311a6c56146107275780633396045914610747578063346db8cb1461075d57005b80631073e996116103c05780631ddf1e2311610392578063255ffb381161037a578063255ffb381461069b5780632bbe0cae146106c85780632dbd6fdd146106db57005b80631ddf1e23146106435780632506b8701461065857005b80631073e9961461056757806315cc481e146105e557806319ab453c146106035780631aa91a9e1461062357005b80630ba95909116103f95780630ba95909146104e35780630bece79c146105025780630c0512e91461053a5780630f529ba21461055057005b8063013cf08b1461043057806301ffc9a714610473578063058aca44146104a35780630a6f0ee9146104c357005b3661042e57005b005b34801561043c57600080fd5b5061045061044b366004615653565b610d7d565b60405161046a9e9d9c9b9a9998979695949392919061570e565b60405180910390f35b34801561047f57600080fd5b5061049361048e3660046157be565b610eaf565b604051901515815260200161046a565b3480156104af57600080fd5b5061042e6104be3660046157fd565b610f18565b3480156104cf57600080fd5b5061042e6104de366004615a2f565b610f78565b3480156104ef57600080fd5b5060a7545b60405190815260200161046a565b34801561050e57600080fd5b5060b054610522906001600160a01b031681565b6040516001600160a01b03909116815260200161046a565b34801561054657600080fd5b506104f4609f5481565b34801561055c57600080fd5b506104f46298968081565b34801561057357600080fd5b5060a85460a95460aa5460ab5460ac5460ad5460ae546105a4966001600160a01b0390811696811695949392911687565b604080516001600160a01b03988916815296881660208801528601949094526060850192909252608084015260a083015290911660c082015260e00161046a565b3480156105f157600080fd5b506065546001600160a01b0316610522565b34801561060f57600080fd5b5061042e61061e3660046157fd565b610f98565b34801561062f57600080fd5b506104f461063e366004615653565b611101565b34801561064f57600080fd5b5061042e611187565b34801561066457600080fd5b5060a25460a35460a45460a55461067b9392919084565b60408051948552602085019390935291830152606082015260800161046a565b3480156106a757600080fd5b506104f46106b6366004615653565b60b56020526000908152604090205481565b6105226106d6366004615aa7565b611192565b3480156106e757600080fd5b5060a6546106fa90610100900460ff1681565b60405161046a9190615b09565b34801561071357600080fd5b506104f4610722366004615b17565b6111b5565b34801561073357600080fd5b5061042e610742366004615b43565b611287565b34801561075357600080fd5b506104f4609d5481565b34801561076957600080fd5b506104f4610778366004615b65565b6118e1565b34801561078957600080fd5b5060a6546107979060ff1681565b60405161046a9190615ba1565b3480156107b057600080fd5b5061042e6107bf3660046157fd565b611988565b3480156107d057600080fd5b506068546104f4565b3480156107e557600080fd5b506104f4600a81565b3480156107fa57600080fd5b506066546104f4565b34801561080f57600080fd5b506069546104f4565b34801561082457600080fd5b506104936108333660046157fd565b611b03565b61042e610846366004615baf565b611b0e565b34801561085757600080fd5b506104f4611c76565b34801561086c57600080fd5b506104f461087b366004615653565b611d3b565b34801561088c57600080fd5b506104f461089b3660046157fd565b60b36020526000908152604090205481565b3480156108b957600080fd5b5060af54610522906001600160a01b031681565b3480156108d957600080fd5b506104f4600381565b3480156108ee57600080fd5b5061042e6108fd3660046157fd565b611e78565b34801561090e57600080fd5b5061042e611e89565b34801561092357600080fd5b506104f4610932366004615b17565b611e9b565b34801561094357600080fd5b5061042e61203d565b34801561095857600080fd5b506104f460a05481565b34801561096e57600080fd5b5061049361097d366004615653565b61216f565b34801561098e57600080fd5b506104f461099d366004615b17565b6121cc565b3480156109ae57600080fd5b506033546001600160a01b0316610522565b3480156109cc57600080fd5b506104f46109db366004615653565b6121fd565b3480156109ec57600080fd5b5061042e6109fb366004615c43565b612227565b348015610a0c57600080fd5b5061052273eeeeeeeeeeeeeeeeeeeeeeeeeeeeeeeeeeeeeeee81565b348015610a3457600080fd5b50609e54610a499067ffffffffffffffff1681565b60405167ffffffffffffffff909116815260200161046a565b348015610a6e57600080fd5b5060a7546104f49081565b348015610a8557600080fd5b50610a99610a94366004615653565b612397565b60405161046a9190615ce4565b348015610ab257600080fd5b506104f460a15481565b348015610ac857600080fd5b5061042e610ad73660046157fd565b612476565b348015610ae857600080fd5b50610afc610af7366004615cf7565b6124a9565b60405161046a9190615dcc565b61042e610b17366004615e66565b6124c4565b348015610b2857600080fd5b5061042e610b37366004615eee565b6127ed565b348015610b4857600080fd5b5060b154610522906001600160a01b031681565b348015610b6857600080fd5b506104f4610b773660046157fd565b6001600160a01b0316600090815260b3602052604090205490565b348015610b9e57600080fd5b5060a654610100900460ff166106fa565b348015610bbb57600080fd5b5060aa5460ab546040805192835260208301919091520161046a565b348015610be357600080fd5b50610bf7610bf2366004615653565b6127f6565b60405161046a9a99989796959493929190615f0b565b348015610c1957600080fd5b5060a1546104f4565b348015610c2e57600080fd5b506104f4610c3d366004615653565b600090815260b2602052604090206002015490565b348015610c5e57600080fd5b506104936128f8565b348015610c7357600080fd5b506104f4610c82366004615f71565b61290b565b348015610c9357600080fd5b5061042e610ca2366004615f96565b612936565b348015610cb357600080fd5b50610cc7610cc23660046157fd565b61294f565b60405161046a9190616041565b348015610ce057600080fd5b5061042e610cef366004616054565b61295a565b61042e610d02366004615aa7565b612ac2565b348015610d1357600080fd5b5061042e610d223660046157fd565b612adc565b348015610d3357600080fd5b5061042e610d42366004616085565b612b69565b348015610d5357600080fd5b5061042e610d62366004615653565b612bb4565b348015610d7357600080fd5b506104f4611c2081565b60b2602090815260009182526040918290208054600182015460028301546003840154600485015460058601546006870154600788015460088901548b51808d01909c52600a8a0180548d52600b8b0180549a9d999c989b979a6001600160a01b039788169a968816999790951697939660ff9093169593949192840191610e04906160df565b80601f0160208091040260200160405190810160405280929190818152602001828054610e30906160df565b8015610e7d5780601f10610e5257610100808354040283529160200191610e7d565b820191906000526020600020905b815481529060010190602001808311610e6057829003601f168201915b50505091909252505050600c820154600d830154600e840154600f909401549293919290916001600160a01b0316908e565b60006001600160e01b031982167ff1801e61000000000000000000000000000000000000000000000000000000001480610f1257507f01ffc9a7000000000000000000000000000000000000000000000000000000006001600160e01b03198316145b92915050565b33610f2281612bdd565b60af80546001600160a01b0319166001600160a01b0384169081179091556040519081527fd6ceddf6d2a22f21c7c81675c518004eff43bc5c8a6fc32a0b748e69d58671cd906020015b60405180910390a15050565b610f80612c8c565b610f88612cb7565b610f93838383612cf3565b505050565b600054610100900460ff1615808015610fb85750600054600160ff909116105b80610fd25750303b158015610fd2575060005460ff166001145b6110495760405162461bcd60e51b815260206004820152602e60248201527f496e697469616c697a61626c653a20636f6e747261637420697320616c72656160448201527f647920696e697469616c697a656400000000000000000000000000000000000060648201526084015b60405180910390fd5b6000805460ff19166001179055801561106c576000805461ff0019166101001790555b6110ab826040518060400160405280600a81526020017f4356537472617465677900000000000000000000000000000000000000000000815250612b69565b6110b361305f565b6110bb6130d2565b80156110fd576000805461ff0019169055604051600181527f7f26b83ff96e1f2b6a682f133852f6798a09c465da95921460cefb384740249890602001610f6c565b5050565b600081815260b260205260408120805483146111335760405163c1d17bef60e01b815260048101849052602401611040565b6001600882015460ff16600681111561114e5761114e61566c565b1461116f576040516344980d8f60e01b815260048101849052602401611040565b61117d818260020154613145565b6003015492915050565b61119033613180565b565b600061119c612c8c565b6111a4612cb7565b6111ae83836132d1565b9392505050565b60006111bf61371f565b6000600260a654610100900460ff1660038111156111df576111df61566c565b14806112065750600160a654610100900460ff1660038111156112045761120461566c565b145b1561121257508161121f565b61121c8484613763565b90505b8060a160008282546112319190616129565b9091555050604080516001600160a01b0386168152602081018590529081018290527f70b752f3fadb6ac131c0ece847fcbb6994ec56ed6411595710fd9b29c6ac6cc19060600160405180910390a19392505050565b600082815260b5602090815260408083205480845260b2909252822090918290036112c85760405163c1d17bef60e01b815260048101839052602401611040565b6005600882015460ff1660068111156112e3576112e361566c565b1461131d576040517f9602395200000000000000000000000000000000000000000000000000000000815260048101839052602401611040565b42611c2082600f0154611330919061613c565b111561136b576040517f1a8c8d1300000000000000000000000000000000000000000000000000000000815260048101839052602401611040565b60ad54600d82015460009161137f9161613c565b4211905080158161139b575060a8546001600160a01b03163314155b156113d2576040517f2eef310a00000000000000000000000000000000000000000000000000000000815260040160405180910390fd5b80806113dc575083155b156115415760ac5460000361141d576040517fdd466dd000000000000000000000000000000000000000000000000000000000815260040160405180910390fd5b60ac546001036114375760088201805460ff191660011790555b60ac546002036114515760088201805460ff191660061790555b60b054600e83015460ab5460405163099ea56b60e41b8152600481018790526001600160a01b03928316602482015260448101919091529116906399ea56b090606401600060405180830381600087803b1580156114ae57600080fd5b505af11580156114c2573d6000803e3d6000fd5b505060b054600585015460aa5460405163099ea56b60e41b8152600481018990526001600160a01b0392831660248201526044810191909152911692506399ea56b091506064015b600060405180830381600087803b15801561152457600080fd5b505af1158015611538573d6000803e3d6000fd5b50505050611854565b836001036116205760088201805460ff1916600117905560b054600e83015460af5460408051633629edcd60e11b815290516001600160a01b0394851694638969ab5394899490821693911691636c53db9a916004808201926020929091908290030181865afa1580156115b9573d6000803e3d6000fd5b505050506040513d601f19601f820116820180604052508101906115dd919061614f565b60ab5460405160e086901b6001600160e01b031916815260048101949094526001600160a01b03928316602485015291166044830152606482015260840161150a565b836002036118545760088201805460ff1916600617905560b054600e83015460ab5460405163099ea56b60e41b8152600481018790526001600160a01b03928316602482015260448101919091529116906399ea56b090606401600060405180830381600087803b15801561169457600080fd5b505af11580156116a8573d6000803e3d6000fd5b505060b054600585015460af5460408051633629edcd60e11b815290516001600160a01b039485169650638969ab53955089949384169390921691636c53db9a916004808201926020929091908290030181865afa15801561170e573d6000803e3d6000fd5b505050506040513d601f19601f82011682018060405250810190611732919061614f565b60aa5461174190600290616182565b6040516001600160e01b031960e087901b16815260048101949094526001600160a01b039283166024850152911660448301526064820152608401600060405180830381600087803b15801561179657600080fd5b505af11580156117aa573d6000803e3d6000fd5b505060b0546005850154600e86015460aa546001600160a01b039384169550638969ab539450889392831692909116906117e690600290616182565b6040516001600160e01b031960e087901b16815260048101949094526001600160a01b039283166024850152911660448301526064820152608401600060405180830381600087803b15801561183b57600080fd5b505af115801561184f573d6000803e3d6000fd5b505050505b609e805467ffffffffffffffff1690600061186e836161a4565b825467ffffffffffffffff9182166101009390930a92830291909202199091161790555042600f83015560a85460405185815286916001600160a01b0316907f394027a5fa6e098a1191094d1719d6929b9abc535fcc0c8f448d6a4e756222769060200160405180910390a35050505050565b60a454600090849082906119069061190090629896809060801b616182565b83613a27565b905060806f8000000000000000000000000000000060a2600201546298968061192f9190616129565b61193d84600160801b616129565b61194a62989680896161c8565b61195491906161c8565b61195e9190616182565b61196888856161c8565b611972919061613c565b61197c919061613c565b901c9695505050505050565b6001600160a01b037f0000000000000000000000000000000000000000000000000000000000000000163003611a155760405162461bcd60e51b815260206004820152602c60248201527f46756e6374696f6e206d7573742062652063616c6c6564207468726f7567682060448201526b19195b1959d85d1958d85b1b60a21b6064820152608401611040565b7f00000000000000000000000000000000000000000000000000000000000000006001600160a01b0316611a707f360894a13ba1a3210667c828492db98dca3e2076cc3735a920a3ca505d382bbc546001600160a01b031690565b6001600160a01b031614611adb5760405162461bcd60e51b815260206004820152602c60248201527f46756e6374696f6e206d7573742062652063616c6c6564207468726f7567682060448201526b6163746976652070726f787960a01b6064820152608401611040565b611ae481613ad0565b60408051600080825260208201909252611b0091839190613ad8565b50565b6000610f1282613c78565b6001600160a01b037f0000000000000000000000000000000000000000000000000000000000000000163003611b9b5760405162461bcd60e51b815260206004820152602c60248201527f46756e6374696f6e206d7573742062652063616c6c6564207468726f7567682060448201526b19195b1959d85d1958d85b1b60a21b6064820152608401611040565b7f00000000000000000000000000000000000000000000000000000000000000006001600160a01b0316611bf67f360894a13ba1a3210667c828492db98dca3e2076cc3735a920a3ca505d382bbc546001600160a01b031690565b6001600160a01b031614611c615760405162461bcd60e51b815260206004820152602c60248201527f46756e6374696f6e206d7573742062652063616c6c6564207468726f7567682060448201526b6163746976652070726f787960a01b6064820152608401611040565b611c6a82613ad0565b6110fd82826001613ad8565b6000306001600160a01b037f00000000000000000000000000000000000000000000000000000000000000001614611d165760405162461bcd60e51b815260206004820152603860248201527f555550535570677261646561626c653a206d757374206e6f742062652063616c60448201527f6c6564207468726f7567682064656c656761746563616c6c00000000000000006064820152608401611040565b507f360894a13ba1a3210667c828492db98dca3e2076cc3735a920a3ca505d382bbc90565b60008060695411611d78576040517fed4421ad00000000000000000000000000000000000000000000000000000000815260040160405180910390fd5b611d8182613c98565b15611d9f57604051630efd728560e21b815260040160405180910390fd5b606954600090611db884680100000000000000006161c8565b611dc29190616182565b60a2546298968090611ddd90680100000000000000006161c8565b611de79190616182565b611df19190616129565b90506040611dfe60a15490565b60a454611e0e9062989680616129565b629896806040611e1e86806161c8565b60a354911c90611e3590629896809060801b616182565b611e3f9190616182565b611e4991906161c8565b611e539190616182565b611e5d91906161c8565b60a554911c92508211611e725760a5546111ae565b50919050565b611e8061371f565b611b0081613180565b611e91613cbf565b6111906000613d19565b6000611ea561371f565b611eae83613d6b565b611ecb57604051630b72d6b160e31b815260040160405180910390fd5b6000600260a654610100900460ff166003811115611eeb57611eeb61566c565b03611ef957825b9050611f56565b600160a654610100900460ff166003811115611f1757611f1761566c565b03611f2657611ef28484613e13565b600360a654610100900460ff166003811115611f4457611f4461566c565b03611f5657611f538484613f79565b90505b60af5460405163011de97360e61b81526001600160a01b038681166004830152306024830152600092169063477a5cc090604401602060405180830381865afa158015611fa7573d6000803e3d6000fd5b505050506040513d601f19601f82011682018060405250810190611fcb91906161df565b90508015611feb578160a16000828254611fe5919061613c565b90915550505b604080516001600160a01b0387168152602081018690529081018390527f0b9150e1e54346ed3fa36b977cd5d65dca5a649c737c3174a26bddaadd47667a9060600160405180910390a1509392505050565b3361204781613d6b565b61206457604051630b72d6b160e31b815260040160405180910390fd5b60af546040517f0d4a8b490000000000000000000000000000000000000000000000000000000081526001600160a01b03838116600483015230602483015290911690630d4a8b4990604401600060405180830381600087803b1580156120ca57600080fd5b505af11580156120de573d6000803e3d6000fd5b505060af54604051637817ee4f60e01b81526001600160a01b0385811660048301523060248301529091169250637817ee4f9150604401602060405180830381865afa158015612132573d6000803e3d6000fd5b505050506040513d601f19601f8201168201806040525081019061215691906161fc565b60a16000828254612167919061613c565b909155505050565b600081815260b2602052604081206002810154829081906121919084906141c0565b915091508160001480156121a3575080155b156121b057826003015491505b60006121bf8460010154611d3b565b9092101595945050505050565b60b460205281600052604060002081815481106121e857600080fd5b90600052602060002001600091509150505481565b60a4546000906122109062989680616129565b61221d62989680846161c8565b610f129190616182565b61222f614218565b60a95460208301516001600160a01b039081169116141580612257575060aa54604083015114155b80612268575060ab54606083015114155b80612279575060ac54608083015114155b80612297575060ae5460c08301516001600160a01b03908116911614155b1561234957609e5467ffffffffffffffff16156122e0576040517ffcc12b5b00000000000000000000000000000000000000000000000000000000815260040160405180910390fd5b815160a880546001600160a01b039283166001600160a01b031991821617909155602084015160a98054918416918316919091179055604084015160aa55606084015160ab55608084015160ac5560a084015160ad5560c084015160ae80549190931691161790555b805160a255602081015160a35560408082015160a455606082015160a555517f136f64731f7b6e6ece76c6aa2c9714cde8ca933a0407f0ff618d4abc13fd2af490610f6c908390859061622e565b604080518082019091526000815260606020820152600060b26000848152602001908152602001600020905080600a01604051806040016040529081600082015481526020016001820180546123ec906160df565b80601f0160208091040260200160405190810160405280929190818152602001828054612418906160df565b80156124655780601f1061243a57610100808354040283529160200191612465565b820191906000526020600020905b81548152906001019060200180831161244857829003601f168201915b505050505081525050915050919050565b61247e614218565b612487816142e1565b60b180546001600160a01b0319166001600160a01b0392909216919091179055565b606060405163d623472560e01b815260040160405180910390fd5b6124cc614321565b600085815260b26020526040902060a8546001600160a01b031661251c576040517f6c291fd300000000000000000000000000000000000000000000000000000000815260040160405180910390fd5b60b0546001600160a01b031661255e576040517fc4d0cd2f00000000000000000000000000000000000000000000000000000000815260040160405180910390fd5b805486146125825760405163c1d17bef60e01b815260048101879052602401611040565b6001600882015460ff16600681111561259d5761259d61566c565b146125be576040516344980d8f60e01b815260048101879052602401611040565b60ab5434116125ed5760ab54604051632c1f8ef160e21b81523460048201526024810191909152604401611040565b60ab546000906125fd9034616129565b60b05460ab5460405163240ff7c560e11b8152600481018b90523360248201529293506001600160a01b039091169163481fef8a91906044016000604051808303818588803b15801561264f57600080fd5b505af1158015612663573d6000803e3d6000fd5b505060a8546040517fc13517e1000000000000000000000000000000000000000000000000000000008152600094506001600160a01b03909116925063c13517e1915084906126bb906003908a908a906004016162d9565b60206040518083038185885af11580156126d9573d6000803e3d6000fd5b50505050506040513d601f19601f820116820180604052508101906126fe91906161fc565b60088401805491925060059160ff19166001830217905550600c830181905542600d840155600e830180546001600160a01b03191633179055600081815260b560205260408120899055609e805467ffffffffffffffff1691612760836162fc565b825467ffffffffffffffff9182166101009390930a92830291909202199091161790555060a854600d8401546040517f034f6a48076db1bcaaa311ccdc43d473aff44d3918a76fe0fae27c8b3665016d926127d1926001600160a01b03909116918c91869133918e918e9190616323565b60405180910390a15050506127e66001606a55565b5050505050565b611b0081614381565b600080600080600080600080600080600060b260008d81526020019081526020016000209050806001015460001461283a576128358160010154611d3b565b61283d565b60005b92508060050160009054906101000a90046001600160a01b03168160040160009054906101000a90046001600160a01b03168260060160009054906101000a90046001600160a01b0316836001015484600201548560080160009054906101000a900460ff16866007015487600301548a896009016000336001600160a01b03166001600160a01b03168152602001908152602001600020549a509a509a509a509a509a509a509a509a509a50509193959799509193959799565b600061290660675460ff1690565b905090565b600082815260b2602090815260408083206001600160a01b03851684526009019091528120546111ae565b60405163d623472560e01b815260040160405180910390fd5b6000610f12826143c2565b612962612c8c565b61296b826143e2565b600081806020019051810190612981919061645f565b60a08101519091506001600160a01b03166129af57604051635df4b1ef60e01b815260040160405180910390fd5b60a081015160af80546001600160a01b0319166001600160a01b03909216919091179055602081015160a6805460ff191660018360028111156129f4576129f461566c565b0217905550604081015160a6805461ff001916610100836003811115612a1c57612a1c61566c565b021790555060608101515160a75560c081015160b180546001600160a01b0319166001600160a01b0390921691909117905560808101518151612a5f9190612227565b60c081015160b180546001600160a01b0319166001600160a01b039092169190911790556040517fd60ad4a24ef513149a287a64b27fc58340d743c12e8c25bbc08bb040354be8c590612ab5908590849061652a565b60405180910390a1505050565b612aca612c8c565b612ad2612cb7565b6110fd8282614463565b612ae4613cbf565b6001600160a01b038116612b605760405162461bcd60e51b815260206004820152602660248201527f4f776e61626c653a206e6577206f776e657220697320746865207a65726f206160448201527f64647265737300000000000000000000000000000000000000000000000000006064820152608401611040565b611b0081613d19565b606580546001600160a01b0319166001600160a01b038416179055604051612b95908290602001616614565b60408051601f1981840301815291905280516020909101206066555050565b612bbc612c8c565b8060696000828254612bce919061613c565b90915550611b00905081614572565b6065546068546040517f29e40d4b00000000000000000000000000000000000000000000000000000000815260048101919091526001600160a01b038381166024830152909116906329e40d4b90604401602060405180830381865afa158015612c4b573d6000803e3d6000fd5b505050506040513d601f19601f82011682018060405250810190612c6f91906161df565b611b005760405163075fd2b160e01b815260040160405180910390fd5b6065546001600160a01b031633146111905760405163075fd2b160e01b815260040160405180910390fd5b606854600003611190576040517f3da3f98c00000000000000000000000000000000000000000000000000000000815260040160405180910390fd5b6000825111612d2e576040517fc5f7c4c000000000000000000000000000000000000000000000000000000000815260040160405180910390fd5b600082806020019051810190612d4491906161fc565b905080600003612d80576040517ff881a10d00000000000000000000000000000000000000000000000000000000815260040160405180910390fd5b600081815260b260205260409020600160a65460ff166002811115612da757612da761566c565b036127e65780548214612dd05760405163c1d17bef60e01b815260048101839052602401611040565b60695481600101541115612e285760018101546069546040517f5863b0b60000000000000000000000000000000000000000000000000000000081526004810185905260248101929092526044820152606401611040565b6001600882015460ff166006811115612e4357612e4361566c565b14612e64576040516344980d8f60e01b815260048101839052602401611040565b6000612e6f83611101565b90506000612e808360010154611d3b565b90508082108015612e95575060008360010154115b15612ecc576040517fcce7930800000000000000000000000000000000000000000000000000000000815260040160405180910390fd5b60655460685460405163068bcd8d60e01b815260048101919091526000916001600160a01b03169063068bcd8d90602401600060405180830381865afa158015612f1a573d6000803e3d6000fd5b505050506040513d6000823e601f3d908101601f19168201604052612f4291908101906166b4565b9050836001015460696000828254612f5a9190616129565b9091555050604081015160048501546001860154612f8292916001600160a01b0316906145a2565b60088401805460ff1916600490811790915560b054600586015460aa5460405163099ea56b60e41b81529384018990526001600160a01b039182166024850152604484015216906399ea56b090606401600060405180830381600087803b158015612fec57600080fd5b505af1158015613000573d6000803e3d6000fd5b5050505060048401546001850154604080518881526001600160a01b0390931660208401528201527fa7932e9c92f31e1ed56b29d00bbe669a97484dc24de28dd9c8c0429df7f358479060600160405180910390a15050505050505050565b600054610100900460ff166130ca5760405162461bcd60e51b815260206004820152602b60248201527f496e697469616c697a61626c653a20636f6e7472616374206973206e6f74206960448201526a6e697469616c697a696e6760a81b6064820152608401611040565b6111906145e7565b600054610100900460ff1661313d5760405162461bcd60e51b815260206004820152602b60248201527f496e697469616c697a61626c653a20636f6e7472616374206973206e6f74206960448201526a6e697469616c697a696e6760a81b6064820152608401611040565b61119061465b565b60008061315284846141c0565b91509150816000148015613164575080155b1561316f5750505050565b600784015560039092019190915550565b60af54604051637817ee4f60e01b81526001600160a01b03838116600483015230602483015290911690637817ee4f90604401602060405180830381865afa1580156131d0573d6000803e3d6000fd5b505050506040513d601f19601f820116820180604052508101906131f491906161fc565b60a160008282546132059190616129565b909155505060af546040517f22bcf9990000000000000000000000000000000000000000000000000000000081526001600160a01b038381166004830152306024830152909116906322bcf99990604401600060405180830381600087803b15801561327057600080fd5b505af1158015613284573d6000803e3d6000fd5b50505050613291816146c6565b6040516001600160a01b03821681527f1468da654b37bb3631011c1917d02e0db437d519918858d40b38b5e980ca033b906020015b60405180910390a150565b60006132dc82613d6b565b6132f957604051630b72d6b160e31b815260040160405180910390fd5b60008380602001905181019061330f9190616768565b805190915060000361334d576040517f4e79178600000000000000000000000000000000000000000000000000000000815260040160405180910390fd5b600160a65460ff1660028111156133665761336661566c565b036135195761337881602001516142e1565b60608101516001600160a01b03166133bc576040517f596a094c00000000000000000000000000000000000000000000000000000000815260040160405180910390fd5b6000306001600160a01b03166315cc481e6040518163ffffffff1660e01b8152600401602060405180830381865afa1580156133fc573d6000803e3d6000fd5b505050506040513d601f19601f82011682018060405250810190613420919061614f565b825160405163068bcd8d60e01b815260048101919091529091506000906001600160a01b0383169063068bcd8d90602401600060405180830381865afa15801561346e573d6000803e3d6000fd5b505050506040513d6000823e601f3d908101601f1916820160405261349691908101906166b4565b905080604001516001600160a01b031683606001516001600160a01b0316146134eb576040517fa29c498600000000000000000000000000000000000000000000000000000000815260040160405180910390fd5b6134f88360400151613c98565b1561351657604051630efd728560e21b815260040160405180910390fd5b50505b60a8546001600160a01b031615801590613534575060aa5434105b1561355f5760aa54604051632c1f8ef160e21b81523460048201526024810191909152604401611040565b6000609f6000815461357090616215565b9182905550600081815260b2602090815260408083208481556005810180546001600160a01b038b81166001600160a01b0319928316179092558885015160048401805491841691831691909117905560608901516006840180549190931691161790559086015160018083019190915560088201805460ff19169091179055436007820155600381019290925560808501518051600a8401908155918101519394509192600b840190613624908261685d565b505060b054600583015460405163240ff7c560e11b8152600481018690526001600160a01b0391821660248201529116915063481fef8a9034906044016000604051808303818588803b15801561367a57600080fd5b505af115801561368e573d6000803e3d6000fd5b50505050507ffcf3b1aa65a464cef2889608f99e8b8c0f680a4be6c2acb9d961c536a5a9294b606854836040516136cf929190918252602082015260400190565b60405180910390a16137166040518060400160405280600a81526020017f47617a206c6566743a20000000000000000000000000000000000000000000008152505a614853565b50949350505050565b60af546001600160a01b03163314611190576040517faf0916a200000000000000000000000000000000000000000000000000000000815260040160405180910390fd5b60af54604080516336d8759760e21b815290516000926012926001600160a01b039091169163db61d65c916004808201926020929091908290030181865afa1580156137b3573d6000803e3d6000fd5b505050506040513d601f19601f820116820180604052508101906137d7919061614f565b6001600160a01b031663313ce5676040518163ffffffff1660e01b8152600401602060405180830381865afa925050508015613830575060408051601f3d908101601f1916820190925261382d9181019061691d565b60015b613877576138726040518060400160405280601581526020017f4572726f722067657474696e6720646563696d616c00000000000000000000008152506148c6565b61387d565b60ff1690505b6138bc6040518060400160405280601081526020017f5f616d6f756e74546f556e7374616b650000000000000000000000000000000081525084614853565b60af546040516316308e2560e11b81526001600160a01b0386811660048301526000928692911690632c611c4a90602401602060405180830381865afa15801561390a573d6000803e3d6000fd5b505050506040513d601f19601f8201168201806040525081019061392e91906161fc565b6139389190616129565b90506139796040518060400160405280600d81526020017f6e6577546f74616c5374616b650000000000000000000000000000000000000081525082614853565b600061399861398984600a616a24565b61399390846161c8565b614937565b60af54604051637817ee4f60e01b81526001600160a01b03898116600483015230602483015292935060009284921690637817ee4f90604401602060405180830381865afa1580156139ee573d6000803e3d6000fd5b505050506040513d601f19601f82011682018060405250810190613a1291906161fc565b613a1c9190616129565b979650505050505050565b6000600160801b8310613a7c5760405162461bcd60e51b815260206004820152601c60248201527f5f612073686f756c64206265206c657373207468616e20325e313238000000006044820152606401611040565b50600160801b82825b8015613ac85780600116600003613aaa57613aa08283614a1f565b915060011c613a85565b613ab48383614a1f565b9250613ac1600182616129565b9050613a85565b505092915050565b611b00613cbf565b7f4910fdfa16fed3260ed0e7147f7cc6da11a60208b5b9406d12a635614ffd91435460ff1615613b0b57610f9383614b1e565b826001600160a01b03166352d1902d6040518163ffffffff1660e01b8152600401602060405180830381865afa925050508015613b65575060408051601f3d908101601f19168201909252613b62918101906161fc565b60015b613bd75760405162461bcd60e51b815260206004820152602e60248201527f45524331393637557067726164653a206e657720696d706c656d656e7461746960448201527f6f6e206973206e6f7420555550530000000000000000000000000000000000006064820152608401611040565b7f360894a13ba1a3210667c828492db98dca3e2076cc3735a920a3ca505d382bbc8114613c6c5760405162461bcd60e51b815260206004820152602960248201527f45524331393637557067726164653a20756e737570706f727465642070726f7860448201527f6961626c655555494400000000000000000000000000000000000000000000006064820152608401611040565b50610f93838383614bdc565b60006001600160a01b03821615613c90576001610f12565b600092915050565b6000613ca762989680836161c8565b60695460a254613cb791906161c8565b111592915050565b6033546001600160a01b031633146111905760405162461bcd60e51b815260206004820181905260248201527f4f776e61626c653a2063616c6c6572206973206e6f7420746865206f776e65726044820152606401611040565b603380546001600160a01b038381166001600160a01b0319831681179093556040519116919082907f8be0079c531659141344cd1fd0a4f28419497f9722a3daafe3b4186f6b6457e090600090a35050565b60b1546000906001600160a01b0316613d8657506001919050565b60b1546040517f42a987a00000000000000000000000000000000000000000000000000000000081526001600160a01b038481166004830152306024830152909116906342a987a090604401602060405180830381865afa158015613def573d6000803e3d6000fd5b505050506040513d601f19601f82011682018060405250810190610f1291906161df565b600080829050613e586040518060400160405280601281526020017f504f494e545320544f20494e435245415345000000000000000000000000000081525082614853565b60af54604051637817ee4f60e01b81526001600160a01b0386811660048301523060248301526000921690637817ee4f90604401602060405180830381865afa158015613ea9573d6000803e3d6000fd5b505050506040513d601f19601f82011682018060405250810190613ecd91906161fc565b9050613f0e6040518060400160405280600b81526020017f4d454d424552504f57455200000000000000000000000000000000000000000081525082614853565b60a754613f1b838361613c565b1115613f325760a754613f2f908290616129565b91505b613f716040518060400160405280601681526020017f504f494e545320544f20494e43524541534520454e440000000000000000000081525083614853565b509392505050565b60af546040516316308e2560e11b81526001600160a01b0384811660048301526000928392859290911690632c611c4a90602401602060405180830381865afa158015613fca573d6000803e3d6000fd5b505050506040513d601f19601f82011682018060405250810190613fee91906161fc565b613ff8919061613c565b60af54604080516336d8759760e21b815290519293506012926001600160a01b039092169163db61d65c916004808201926020929091908290030181865afa158015614048573d6000803e3d6000fd5b505050506040513d601f19601f8201168201806040525081019061406c919061614f565b6001600160a01b031663313ce5676040518163ffffffff1660e01b8152600401602060405180830381865afa9250505080156140c5575060408051601f3d908101601f191682019092526140c29181019061691d565b60015b61410c576141076040518060400160405280601581526020017f4572726f722067657474696e6720646563696d616c00000000000000000000008152506148c6565b614112565b60ff1690505b600061412c61412283600a616a24565b61399390856161c8565b60af54604051637817ee4f60e01b81526001600160a01b03898116600483015230602483015292935060009290911690637817ee4f90604401602060405180830381865afa158015614182573d6000803e3d6000fd5b505050506040513d601f19601f820116820180604052508101906141a691906161fc565b905060006141b48284616129565b98975050505050505050565b60008043905080846007015411156141da576141da616a30565b808460070154036141f057506000905080614211565b61420e8460070154826142039190616129565b8560030154856118e1565b91505b9250929050565b60af60009054906101000a90046001600160a01b03166001600160a01b0316636c53db9a6040518163ffffffff1660e01b8152600401602060405180830381865afa15801561426b573d6000803e3d6000fd5b505050506040513d601f19601f8201168201806040525081019061428f919061614f565b6001600160a01b0316336001600160a01b031614611190576040517fe860ec7e00000000000000000000000000000000000000000000000000000000815260040160405180910390fd5b949350505050565b6001600160a01b038116611b00576040517fe622e04000000000000000000000000000000000000000000000000000000000815260040160405180910390fd5b6002606a54036143735760405162461bcd60e51b815260206004820152601f60248201527f5265656e7472616e637947756172643a207265656e7472616e742063616c6c006044820152606401611040565b6002606a55565b6001606a55565b6067805460ff19168215159081179091556040519081527fd94c9bc4d43c51d8dc345a016d8e3d994432fac68e72832e4cf3a616bd8efae0906020016132c6565b60006001600160a01b038216156143da576002610f12565b600392915050565b6143ea612c8c565b60685415614424576040517f439a74c900000000000000000000000000000000000000000000000000000000815260040160405180910390fd5b8060000361445e576040517f7fcce2a900000000000000000000000000000000000000000000000000000000815260040160405180910390fd5b606855565b61446c81614c01565b61447581613d6b565b61449257604051630b72d6b160e31b815260040160405180910390fd5b60af5460405163011de97360e61b81526001600160a01b038381166004830152306024830152600092169063477a5cc090604401602060405180830381865afa1580156144e3573d6000803e3d6000fd5b505050506040513d601f19601f8201168201806040525081019061450791906161df565b905080614540576040517f5fccb67f00000000000000000000000000000000000000000000000000000000815260040160405180910390fd5b6000838060200190518101906145569190616a46565b90506145628382614d27565b61456c8382614eea565b50505050565b6040518181527f46aeb5d8770fc4474bc2dfa118fd2595f7fb33ce2cbce6f4e5a3dabfe0f76339906020016132c6565b7fffffffffffffffffffffffff11111111111111111111111111111111111111126001600160a01b038416016145dc57610f93828261530e565b610f9383838361532a565b600054610100900460ff166146525760405162461bcd60e51b815260206004820152602b60248201527f496e697469616c697a61626c653a20636f6e7472616374206973206e6f74206960448201526a6e697469616c697a696e6760a81b6064820152608401611040565b61119033613d19565b600054610100900460ff1661437a5760405162461bcd60e51b815260206004820152602b60248201527f496e697469616c697a61626c653a20636f6e7472616374206973206e6f74206960448201526a6e697469616c697a696e6760a81b6064820152608401611040565b6001600160a01b038116600090815260b4602090815260408083208054825181850281018501909352808352919290919083018282801561472657602002820191906000526020600020905b815481526020019060010190808311614712575b5050505050905060005b8151811015610f9357600082828151811061474d5761474d616af1565b60200260200101519050600060b26000838152602001908152602001600020905061477782615379565b1561483e576001600160a01b03851660009081526009820160205260408120805490829055600283018054919283926147b1908490616129565b925050819055508060a060008282546147ca9190616129565b909155506147da90508282613145565b60028201546003830154604080516001600160a01b038a1681526020810187905260008183015260608101939093526080830191909152517f0227f642ddcf2042ceaeafadb9d540f432072c00cd4862881667168dcc14710f9181900360a00190a1505b5050808061484b90616215565b915050614730565b6110fd8282604051602401614869929190616b07565b60408051601f198184030181529190526020810180517bffffffffffffffffffffffffffffffffffffffffffffffffffffffff167f9710a9d0000000000000000000000000000000000000000000000000000000001790526153b2565b611b00816040516024016148da9190616614565b60408051601f198184030181529190526020810180517bffffffffffffffffffffffffffffffffffffffffffffffffffffffff167f41304fac000000000000000000000000000000000000000000000000000000001790526153b2565b60008160000361494957506000919050565b60006001614956846153d3565b901c6001901b9050600181848161496f5761496f61616c565b048201901c905060018184816149875761498761616c565b048201901c9050600181848161499f5761499f61616c565b048201901c905060018184816149b7576149b761616c565b048201901c905060018184816149cf576149cf61616c565b048201901c905060018184816149e7576149e761616c565b048201901c905060018184816149ff576149ff61616c565b048201901c90506111ae81828581614a1957614a1961616c565b04615467565b6000600160801b831115614a9b5760405162461bcd60e51b815260206004820152602860248201527f5f612073686f756c64206265206c657373207468616e206f7220657175616c2060448201527f746f20325e3132380000000000000000000000000000000000000000000000006064820152608401611040565b600160801b8210614aee5760405162461bcd60e51b815260206004820152601c60248201527f5f622073686f756c64206265206c657373207468616e20325e313238000000006044820152606401611040565b60806f80000000000000000000000000000000614b0b84866161c8565b614b15919061613c565b901c9392505050565b6001600160a01b0381163b614b9b5760405162461bcd60e51b815260206004820152602d60248201527f455243313936373a206e657720696d706c656d656e746174696f6e206973206e60448201527f6f74206120636f6e7472616374000000000000000000000000000000000000006064820152608401611040565b7f360894a13ba1a3210667c828492db98dca3e2076cc3735a920a3ca505d382bbc80546001600160a01b0319166001600160a01b0392909216919091179055565b614be58361547d565b600082511180614bf25750805b15610f935761456c83836154bd565b6001600160a01b038116614c41576040517fd1f2828800000000000000000000000000000000000000000000000000000000815260040160405180910390fd5b60af546001600160a01b0316614c6a57604051635df4b1ef60e01b815260040160405180910390fd5b60af546040517fa230c5240000000000000000000000000000000000000000000000000000000081526001600160a01b0383811660048301529091169063a230c52490602401602060405180830381865afa158015614ccd573d6000803e3d6000fd5b505050506040513d601f19601f82011682018060405250810190614cf191906161df565b611b00576040517f6a5cfb6d00000000000000000000000000000000000000000000000000000000815260040160405180910390fd5b6000805b8251811015614de457828181518110614d4657614d46616af1565b60200260200101516000015160000315614dd2576000838281518110614d6e57614d6e616af1565b6020026020010151600001519050614d8581615379565b614da55760405163c1d17bef60e01b815260048101829052602401611040565b838281518110614db757614db7616af1565b60200260200101516020015183614dce9190616b29565b9250505b80614ddc81616215565b915050614d2b565b506001600160a01b038316600090815260b36020526040812054614e0890836154e2565b60af54604051637817ee4f60e01b81526001600160a01b03878116600483015230602483015292935060009290911690637817ee4f90604401602060405180830381865afa158015614e5e573d6000803e3d6000fd5b505050506040513d601f19601f82011682018060405250810190614e8291906161fc565b905080821115614ec8576040517fd64182fe0000000000000000000000000000000000000000000000000000000081526004810183905260248101829052604401611040565b506001600160a01b03909316600090815260b360205260409020929092555050565b606060005b825181101561456c576000838281518110614f0c57614f0c616af1565b60200260200101516000015190508251600003614f685760408051600180825281830190925290602080830190803683370190505092508083600081518110614f5757614f57616af1565b6020026020010181815250506150bb565b6000805b8451811015614fe75782858281518110614f8857614f88616af1565b602002602001015103614fd5576040517fadebb154000000000000000000000000000000000000000000000000000000008152600481018490526024810182905260019250604401611040565b80614fdf81616215565b915050614f6c565b50806150b957600084516001614ffd919061613c565b67ffffffffffffffff8111156150155761501561581a565b60405190808252806020026020018201604052801561503e578160200160208202803683370190505b50905060005b85518110156150965785818151811061505f5761505f616af1565b602002602001015182828151811061507957615079616af1565b60209081029190910101528061508e81616215565b915050615044565b5082818651815181106150ab576150ab616af1565b602090810291909101015293505b505b60008483815181106150cf576150cf616af1565b602090810291909101810151810151600084815260b2835260408082206001600160a01b038b1683526009810190945281205491935061510f82856154e2565b6001600160a01b038a1660009081526009850160205260408120829055909150805b6001600160a01b038b16600090815260b460205260409020548110156151a85784546001600160a01b038c16600090815260b46020526040902080548390811061517d5761517d616af1565b90600052602060002001540361519657600191506151a8565b806151a081616215565b915050615131565b50806151de576001600160a01b038a16600090815260b46020908152604082208654815460018101835591845291909220909101555b81831161522e576151ef8383616129565b60a06000828254615200919061613c565b9091555061521090508383616129565b846002016000828254615223919061613c565b909155506152729050565b6152388284616129565b60a060008282546152499190616129565b9091555061525990508284616129565b84600201600082825461526c9190616129565b90915550505b8360070154600003615289574360078501556152f5565b6152938484613145565b60028401546003850154604080516001600160a01b038e168152602081018a9052908101859052606081019290925260808201527f0227f642ddcf2042ceaeafadb9d540f432072c00cd4862881667168dcc14710f9060a00160405180910390a15b505050505050808061530690616215565b915050614eef565b60008060008084865af16110fd5763b12d13eb6000526004601cfd5b81601452806034526fa9059cbb00000000000000000000000060005260206000604460106000875af13d15600160005114171661536f576390b8ec186000526004601cfd5b6000603452505050565b600081815260b2602052604081205415801590610f12575050600090815260b260205260409020600501546001600160a01b0316151590565b80516a636f6e736f6c652e6c6f67602083016000808483855afa5050505050565b600080608083901c156153e857608092831c92015b604083901c156153fa57604092831c92015b602083901c1561540c57602092831c92015b601083901c1561541e57601092831c92015b600883901c1561543057600892831c92015b600483901c1561544257600492831c92015b600283901c1561545457600292831c92015b600183901c15610f125760010192915050565b600081831061547657816111ae565b5090919050565b61548681614b1e565b6040516001600160a01b038216907fbc7cd75a20ee27fd9adebab32041f755214dbc6bffa90cc0225b39da2e5c2d3b90600090a250565b60606111ae8383604051806060016040528060278152602001616b666027913961553d565b6000806154ef8385616b29565b905060008112156111ae576040517f3bbc7142000000000000000000000000000000000000000000000000000000008152600481018590526024810184905260448101829052606401611040565b6060600080856001600160a01b03168560405161555a9190616b49565b600060405180830381855af49150503d8060008114615595576040519150601f19603f3d011682016040523d82523d6000602084013e61559a565b606091505b50915091506155ab868383876155b5565b9695505050505050565b6060831561562457825160000361561d576001600160a01b0385163b61561d5760405162461bcd60e51b815260206004820152601d60248201527f416464726573733a2063616c6c20746f206e6f6e2d636f6e74726163740000006044820152606401611040565b50816142d9565b6142d983838151156156395781518083602001fd5b8060405162461bcd60e51b81526004016110409190616614565b60006020828403121561566557600080fd5b5035919050565b634e487b7160e01b600052602160045260246000fd5b60078110611b0057611b0061566c565b61569b81615682565b9052565b60005b838110156156ba5781810151838201526020016156a2565b50506000910152565b600081518084526156db81602086016020860161569f565b601f01601f19169290920160200192915050565b8051825260006020820151604060208501526142d960408501826156c3565b8e81528d60208201528c60408201528b606082015260006001600160a01b03808d166080840152808c1660a08401525061575360c083018b6001600160a01b03169052565b8860e0830152615767610100830189615692565b6101c061012083015261577e6101c08301886156ef565b905085610140830152846101608301526157a46101808301856001600160a01b03169052565b826101a08301529f9e505050505050505050505050505050565b6000602082840312156157d057600080fd5b81356001600160e01b0319811681146111ae57600080fd5b6001600160a01b0381168114611b0057600080fd5b60006020828403121561580f57600080fd5b81356111ae816157e8565b634e487b7160e01b600052604160045260246000fd5b6040516080810167ffffffffffffffff811182821017156158535761585361581a565b60405290565b60405160e0810167ffffffffffffffff811182821017156158535761585361581a565b6040805190810167ffffffffffffffff811182821017156158535761585361581a565b60405160c0810167ffffffffffffffff811182821017156158535761585361581a565b60405160a0810167ffffffffffffffff811182821017156158535761585361581a565b604051601f8201601f1916810167ffffffffffffffff8111828210171561590e5761590e61581a565b604052919050565b600067ffffffffffffffff8211156159305761593061581a565b5060051b60200190565b600082601f83011261594b57600080fd5b8135602061596061595b83615916565b6158e5565b82815260059290921b8401810191818101908684111561597f57600080fd5b8286015b848110156159a3578035615996816157e8565b8352918301918301615983565b509695505050505050565b600067ffffffffffffffff8211156159c8576159c861581a565b50601f01601f191660200190565b60006159e461595b846159ae565b90508281528383830111156159f857600080fd5b828260208301376000602084830101529392505050565b600082601f830112615a2057600080fd5b6111ae838335602085016159d6565b600080600060608486031215615a4457600080fd5b833567ffffffffffffffff80821115615a5c57600080fd5b615a688783880161593a565b94506020860135915080821115615a7e57600080fd5b50615a8b86828701615a0f565b9250506040840135615a9c816157e8565b809150509250925092565b60008060408385031215615aba57600080fd5b823567ffffffffffffffff811115615ad157600080fd5b615add85828601615a0f565b9250506020830135615aee816157e8565b809150509250929050565b6004811061569b5761569b61566c565b60208101610f128284615af9565b60008060408385031215615b2a57600080fd5b8235615b35816157e8565b946020939093013593505050565b60008060408385031215615b5657600080fd5b50508035926020909101359150565b600080600060608486031215615b7a57600080fd5b505081359360208301359350604090920135919050565b6003811061569b5761569b61566c565b60208101610f128284615b91565b60008060408385031215615bc257600080fd5b8235615bcd816157e8565b9150602083013567ffffffffffffffff811115615be957600080fd5b615bf585828601615a0f565b9150509250929050565b600060808284031215615c1157600080fd5b615c19615830565b90508135815260208201356020820152604082013560408201526060820135606082015292915050565b600080828403610160811215615c5857600080fd5b60e0811215615c6657600080fd5b50615c6f615859565b8335615c7a816157e8565b81526020840135615c8a816157e8565b8060208301525060408401356040820152606084013560608201526080840135608082015260a084013560a082015260c0840135615cc7816157e8565b60c08201529150615cdb8460e08501615bff565b90509250929050565b6020815260006111ae60208301846156ef565b60008060408385031215615d0a57600080fd5b823567ffffffffffffffff80821115615d2257600080fd5b615d2e8683870161593a565b9350602091508185013581811115615d4557600080fd5b8501601f81018713615d5657600080fd5b8035615d6461595b82615916565b81815260059190911b82018401908481019089831115615d8357600080fd5b8584015b83811015615dbb57803586811115615d9f5760008081fd5b615dad8c8983890101615a0f565b845250918601918601615d87565b508096505050505050509250929050565b602080825282518282018190526000919060409081850190868401855b82811015615e1757815180516001600160a01b03168552860151868501529284019290850190600101615de9565b5091979650505050505050565b60008083601f840112615e3657600080fd5b50813567ffffffffffffffff811115615e4e57600080fd5b60208301915083602082850101111561421157600080fd5b600080600080600060608688031215615e7e57600080fd5b85359450602086013567ffffffffffffffff80821115615e9d57600080fd5b615ea989838a01615e24565b90965094506040880135915080821115615ec257600080fd5b50615ecf88828901615e24565b969995985093965092949392505050565b8015158114611b0057600080fd5b600060208284031215615f0057600080fd5b81356111ae81615ee0565b6001600160a01b038b811682528a811660208301528916604082015260608101889052608081018790526101408101615f4387615682565b60a082019690965260c081019490945260e08401929092526101008301526101209091015295945050505050565b60008060408385031215615f8457600080fd5b823591506020830135615aee816157e8565b60006020808385031215615fa957600080fd5b823567ffffffffffffffff811115615fc057600080fd5b8301601f81018513615fd157600080fd5b8035615fdf61595b82615916565b81815260069190911b82018301908381019087831115615ffe57600080fd5b928401925b82841015613a1c576040848903121561601c5760008081fd5b61602461587c565b843581528585013586820152825260409093019290840190616003565b6020810161604e83615682565b91905290565b6000806040838503121561606757600080fd5b82359150602083013567ffffffffffffffff811115615be957600080fd5b6000806040838503121561609857600080fd5b82356160a3816157e8565b9150602083013567ffffffffffffffff8111156160bf57600080fd5b8301601f810185136160d057600080fd5b615bf5858235602084016159d6565b600181811c908216806160f357607f821691505b602082108103611e7257634e487b7160e01b600052602260045260246000fd5b634e487b7160e01b600052601160045260246000fd5b81810381811115610f1257610f12616113565b80820180821115610f1257610f12616113565b60006020828403121561616157600080fd5b81516111ae816157e8565b634e487b7160e01b600052601260045260246000fd5b60008261619f57634e487b7160e01b600052601260045260246000fd5b500490565b600067ffffffffffffffff8216806161be576161be616113565b6000190192915050565b8082028115828204841417610f1257610f12616113565b6000602082840312156161f157600080fd5b81516111ae81615ee0565b60006020828403121561620e57600080fd5b5051919050565b60006001820161622757616227616113565b5060010190565b8251815260208084015190820152604080840151908201526060808401519082015261016081016111ae60808301846001600160a01b0380825116835280602083015116602084015260408201516040840152606082015160608401526080820151608084015260a082015160a08401528060c08301511660c0840152505050565b81835281816020850137506000828201602090810191909152601f909101601f19169091010190565b8381526040602082015260006162f36040830184866162b0565b95945050505050565b600067ffffffffffffffff80831681810361631957616319616113565b6001019392505050565b60006001600160a01b03808a16835288602084015287604084015280871660608401525060c0608083015261635c60c0830185876162b0565b90508260a083015298975050505050505050565b80516003811061637f57600080fd5b919050565b80516004811061637f57600080fd5b6000602082840312156163a557600080fd5b6040516020810181811067ffffffffffffffff821117156163c8576163c861581a565b6040529151825250919050565b805161637f816157e8565b600060e082840312156163f257600080fd5b6163fa615859565b90508151616407816157e8565b81526020820151616417816157e8565b8060208301525060408201516040820152606082015160608201526080820151608082015260a082015160a082015260c0820151616454816157e8565b60c082015292915050565b600081830361020081121561647357600080fd5b61647b615859565b608082121561648957600080fd5b616491615830565b9150835182526020840151602083015260408401516040830152606084015160608301528181526164c460808501616370565b60208201526164d560a08501616384565b60408201526164e78560c08601616393565b60608201526164f98560e086016163e0565b608082015261650b6101c085016163d5565b60a082015261651d6101e085016163d5565b60c0820152949350505050565b600061022082019050838252616565602083018451805182526020810151602083015260408101516040830152606081015160608301525050565b602083015161657760a0840182615b91565b50604083015161658a60c0840182615af9565b506060838101515160e084015260808085015180516001600160a01b03908116610100870152602082015181166101208701526040820151610140870152928101516101608601529081015161018085015260a0808201516101a086015260c09182015183166101c086015285015182166101e08501529093015190921661020090910152919050565b6020815260006111ae60208301846156c3565b60006040828403121561663957600080fd5b61664161587c565b905081518152602082015167ffffffffffffffff81111561666157600080fd5b8201601f8101841361667257600080fd5b805161668061595b826159ae565b81815285602083850101111561669557600080fd5b6166a682602083016020860161569f565b602084015250909392505050565b6000602082840312156166c657600080fd5b815167ffffffffffffffff808211156166de57600080fd5b9083019060c082860312156166f257600080fd5b6166fa61589f565b82518152602083015161670c816157e8565b6020820152604083015161671f816157e8565b604082015260608301518281111561673657600080fd5b61674287828601616627565b6060830152506080830151608082015260a083015160a082015280935050505092915050565b60006020828403121561677a57600080fd5b815167ffffffffffffffff8082111561679257600080fd5b9083019060a082860312156167a657600080fd5b6167ae6158c2565b8251815260208301516167c0816157e8565b60208201526040838101519082015260608301516167dd816157e8565b60608201526080830151828111156167f457600080fd5b61680087828601616627565b60808301525095945050505050565b601f821115610f9357600081815260208120601f850160051c810160208610156168365750805b601f850160051c820191505b8181101561685557828155600101616842565b505050505050565b815167ffffffffffffffff8111156168775761687761581a565b61688b8161688584546160df565b8461680f565b602080601f8311600181146168c057600084156168a85750858301515b600019600386901b1c1916600185901b178555616855565b600085815260208120601f198616915b828110156168ef578886015182559484019460019091019084016168d0565b508582101561690d5787850151600019600388901b60f8161c191681555b5050505050600190811b01905550565b60006020828403121561692f57600080fd5b815160ff811681146111ae57600080fd5b600181815b8085111561697b57816000190482111561696157616961616113565b8085161561696e57918102915b93841c9390800290616945565b509250929050565b60008261699257506001610f12565b8161699f57506000610f12565b81600181146169b557600281146169bf576169db565b6001915050610f12565b60ff8411156169d0576169d0616113565b50506001821b610f12565b5060208310610133831016604e8410600b84101617156169fe575081810a610f12565b616a088383616940565b8060001904821115616a1c57616a1c616113565b029392505050565b60006111ae8383616983565b634e487b7160e01b600052600160045260246000fd5b60006020808385031215616a5957600080fd5b825167ffffffffffffffff811115616a7057600080fd5b8301601f81018513616a8157600080fd5b8051616a8f61595b82615916565b81815260069190911b82018301908381019087831115616aae57600080fd5b928401925b82841015613a1c5760408489031215616acc5760008081fd5b616ad461587c565b845181528585015186820152825260409093019290840190616ab3565b634e487b7160e01b600052603260045260246000fd5b604081526000616b1a60408301856156c3565b90508260208301529392505050565b8082018281126000831280158216821582161715613ac857613ac8616113565b60008251616b5b81846020870161569f565b919091019291505056fe416464726573733a206c6f772d6c6576656c2064656c65676174652063616c6c206661696c6564a2646970667358221220859dce44ba8c4366cce44b20458a361b03df48b4cee740e1ce0effbf7a0e09b164736f6c63430008130033","linkReferences":{}},"methodIdentifiers":{"D()":"0f529ba2","DISPUTE_COOLDOWN_SEC()":"f5be3f7c","MAX_STAKED_PROPOSALS()":"406244d8","NATIVE()":"a0cf0aea","RULING_OPTIONS()":"626c47e8","activatePoints()":"814516ad","allocate(bytes,address)":"ef2920fc","arbitrableConfig()":"1073e996","calculateConviction(uint256,uint256,uint256)":"346db8cb","calculateThreshold(uint256)":"59a5db8b","canExecuteProposal(uint256)":"824ea8ed","cloneNonce()":"33960459","collateralVault()":"0bece79c","cvParams()":"2506b870","deactivatePoints()":"1ddf1e23","deactivatePoints(address)":"6453d9c4","decreasePower(address,uint256)":"2ed04b2b","disputeCount()":"a28889e1","disputeIdToProposalId(uint256)":"255ffb38","disputeProposal(uint256,string,bytes)":"b41596ec","distribute(address[],bytes,address)":"0a6f0ee9","getAllo()":"15cc481e","getCollateralAmounts()":"c46dac0e","getMaxAmount()":"0ba95909","getMaxConviction(uint256)":"950559d7","getMetadata(uint256)":"a574cea4","getPayouts(address[],bytes[])":"b2b878d0","getPointSystem()":"c3292171","getPoolAmount()":"4ab4ba42","getPoolId()":"38fff2d0","getProposal(uint256)":"c7f758a8","getProposalStakedAmount(uint256)":"dc96ff2d","getProposalVoterStake(uint256,address)":"e0dd2c38","getRecipientStatus(address)":"eb11af93","getStrategyId()":"42fda9c7","getTotalVoterStakePct(address)":"bcc5b93b","increasePoolAmount(uint256)":"f5b0dfb7","increasePower(address,uint256)":"782aadff","init(address)":"19ab453c","init(address,string)":"f321b305","initialize(uint256,bytes)":"edd146cc","isPoolActive()":"df868ed3","isValidAllocator(address)":"4d31d087","owner()":"8da5cb5b","pointConfig()":"a47ff7e5","pointSystem()":"2dbd6fdd","proposalCounter()":"0c0512e9","proposalType()":"351d9f96","proposals(uint256)":"013cf08b","proxiableUUID()":"52d1902d","registerRecipient(bytes,address)":"2bbe0cae","registryCommunity()":"6003e414","renounceOwnership()":"715018a6","rule(uint256,uint256)":"311a6c56","setPoolActive(bool)":"b5f620ce","setPoolParams((address,address,uint256,uint256,uint256,uint256,address),(uint256,uint256,uint256,uint256))":"9e7febaf","setRegistryCommunity(address)":"058aca44","setSybilScorer(address)":"ac1ed7b9","supportProposal((uint256,int256)[])":"e33add93","supportsInterface(bytes4)":"01ffc9a7","sybilScorer()":"b6c61f31","totalEffectiveActivePoints()":"d1e36232","totalPointsActivated()":"aba9ffee","totalStaked()":"817b1cd2","totalVoterStakePct(address)":"5db64b99","transferOwnership(address)":"f2fde38b","updateProposalConviction(uint256)":"1aa91a9e","upgradeTo(address)":"3659cfe6","upgradeToAndCall(address,bytes)":"4f1ef286","voterStakedProposals(address,uint256)":"868c57b8"},"storageLayout":{"storage":[{"astId":14129,"contract":"src/CVStrategyV0_0.sol:CVStrategyV0_0","label":"_initialized","offset":0,"slot":"0","type":"t_uint8"},{"astId":14132,"contract":"src/CVStrategyV0_0.sol:CVStrategyV0_0","label":"_initializing","offset":1,"slot":"0","type":"t_bool"},{"astId":14756,"contract":"src/CVStrategyV0_0.sol:CVStrategyV0_0","label":"__gap","offset":0,"slot":"1","type":"t_array(t_uint256)50_storage"},{"astId":13921,"contract":"src/CVStrategyV0_0.sol:CVStrategyV0_0","label":"_owner","offset":0,"slot":"51","type":"t_address"},{"astId":14041,"contract":"src/CVStrategyV0_0.sol:CVStrategyV0_0","label":"__gap","offset":0,"slot":"52","type":"t_array(t_uint256)49_storage"},{"astId":25547,"contract":"src/CVStrategyV0_0.sol:CVStrategyV0_0","label":"allo","offset":0,"slot":"101","type":"t_contract(IAllo)314"},{"astId":25549,"contract":"src/CVStrategyV0_0.sol:CVStrategyV0_0","label":"strategyId","offset":0,"slot":"102","type":"t_bytes32"},{"astId":25551,"contract":"src/CVStrategyV0_0.sol:CVStrategyV0_0","label":"poolActive","offset":0,"slot":"103","type":"t_bool"},{"astId":25553,"contract":"src/CVStrategyV0_0.sol:CVStrategyV0_0","label":"poolId","offset":0,"slot":"104","type":"t_uint256"},{"astId":25555,"contract":"src/CVStrategyV0_0.sol:CVStrategyV0_0","label":"poolAmount","offset":0,"slot":"105","type":"t_uint256"},{"astId":14306,"contract":"src/CVStrategyV0_0.sol:CVStrategyV0_0","label":"_status","offset":0,"slot":"106","type":"t_uint256"},{"astId":14375,"contract":"src/CVStrategyV0_0.sol:CVStrategyV0_0","label":"__gap","offset":0,"slot":"107","type":"t_array(t_uint256)49_storage"},{"astId":26558,"contract":"src/CVStrategyV0_0.sol:CVStrategyV0_0","label":"surpressStateMutabilityWarning","offset":0,"slot":"156","type":"t_uint256"},{"astId":26560,"contract":"src/CVStrategyV0_0.sol:CVStrategyV0_0","label":"cloneNonce","offset":0,"slot":"157","type":"t_uint256"},{"astId":26563,"contract":"src/CVStrategyV0_0.sol:CVStrategyV0_0","label":"disputeCount","offset":0,"slot":"158","type":"t_uint64"},{"astId":26566,"contract":"src/CVStrategyV0_0.sol:CVStrategyV0_0","label":"proposalCounter","offset":0,"slot":"159","type":"t_uint256"},{"astId":26568,"contract":"src/CVStrategyV0_0.sol:CVStrategyV0_0","label":"totalStaked","offset":0,"slot":"160","type":"t_uint256"},{"astId":26570,"contract":"src/CVStrategyV0_0.sol:CVStrategyV0_0","label":"totalPointsActivated","offset":0,"slot":"161","type":"t_uint256"},{"astId":26573,"contract":"src/CVStrategyV0_0.sol:CVStrategyV0_0","label":"cvParams","offset":0,"slot":"162","type":"t_struct(CVParams)26303_storage"},{"astId":26576,"contract":"src/CVStrategyV0_0.sol:CVStrategyV0_0","label":"proposalType","offset":0,"slot":"166","type":"t_enum(ProposalType)26210"},{"astId":26579,"contract":"src/CVStrategyV0_0.sol:CVStrategyV0_0","label":"pointSystem","offset":1,"slot":"166","type":"t_enum(PointSystem)26215"},{"astId":26582,"contract":"src/CVStrategyV0_0.sol:CVStrategyV0_0","label":"pointConfig","offset":0,"slot":"167","type":"t_struct(PointSystemConfig)26278_storage"},{"astId":26585,"contract":"src/CVStrategyV0_0.sol:CVStrategyV0_0","label":"arbitrableConfig","offset":0,"slot":"168","type":"t_struct(ArbitrableConfig)26294_storage"},{"astId":26588,"contract":"src/CVStrategyV0_0.sol:CVStrategyV0_0","label":"registryCommunity","offset":0,"slot":"175","type":"t_contract(RegistryCommunityV0_0)32624"},{"astId":26591,"contract":"src/CVStrategyV0_0.sol:CVStrategyV0_0","label":"collateralVault","offset":0,"slot":"176","type":"t_contract(CollateralVault)30038"},{"astId":26594,"contract":"src/CVStrategyV0_0.sol:CVStrategyV0_0","label":"sybilScorer","offset":0,"slot":"177","type":"t_contract(ISybilScorer)30151"},{"astId":26599,"contract":"src/CVStrategyV0_0.sol:CVStrategyV0_0","label":"proposals","offset":0,"slot":"178","type":"t_mapping(t_uint256,t_struct(Proposal)26270_storage)"},{"astId":26603,"contract":"src/CVStrategyV0_0.sol:CVStrategyV0_0","label":"totalVoterStakePct","offset":0,"slot":"179","type":"t_mapping(t_address,t_uint256)"},{"astId":26608,"contract":"src/CVStrategyV0_0.sol:CVStrategyV0_0","label":"voterStakedProposals","offset":0,"slot":"180","type":"t_mapping(t_address,t_array(t_uint256)dyn_storage)"},{"astId":26612,"contract":"src/CVStrategyV0_0.sol:CVStrategyV0_0","label":"disputeIdToProposalId","offset":0,"slot":"181","type":"t_mapping(t_uint256,t_uint256)"},{"astId":29775,"contract":"src/CVStrategyV0_0.sol:CVStrategyV0_0","label":"__gap","offset":0,"slot":"182","type":"t_array(t_uint256)50_storage"}],"types":{"t_address":{"encoding":"inplace","label":"address","numberOfBytes":"20"},"t_array(t_uint256)49_storage":{"encoding":"inplace","label":"uint256[49]","numberOfBytes":"1568","base":"t_uint256"},"t_array(t_uint256)50_storage":{"encoding":"inplace","label":"uint256[50]","numberOfBytes":"1600","base":"t_uint256"},"t_array(t_uint256)dyn_storage":{"encoding":"dynamic_array","label":"uint256[]","numberOfBytes":"32","base":"t_uint256"},"t_bool":{"encoding":"inplace","label":"bool","numberOfBytes":"1"},"t_bytes32":{"encoding":"inplace","label":"bytes32","numberOfBytes":"32"},"t_contract(CollateralVault)30038":{"encoding":"inplace","label":"contract CollateralVault","numberOfBytes":"20"},"t_contract(IAllo)314":{"encoding":"inplace","label":"contract IAllo","numberOfBytes":"20"},"t_contract(IArbitrator)33482":{"encoding":"inplace","label":"contract IArbitrator","numberOfBytes":"20"},"t_contract(ISybilScorer)30151":{"encoding":"inplace","label":"contract ISybilScorer","numberOfBytes":"20"},"t_contract(RegistryCommunityV0_0)32624":{"encoding":"inplace","label":"contract RegistryCommunityV0_0","numberOfBytes":"20"},"t_enum(PointSystem)26215":{"encoding":"inplace","label":"enum StrategyStruct.PointSystem","numberOfBytes":"1"},"t_enum(ProposalStatus)26235":{"encoding":"inplace","label":"enum StrategyStruct.ProposalStatus","numberOfBytes":"1"},"t_enum(ProposalType)26210":{"encoding":"inplace","label":"enum StrategyStruct.ProposalType","numberOfBytes":"1"},"t_mapping(t_address,t_array(t_uint256)dyn_storage)":{"encoding":"mapping","key":"t_address","label":"mapping(address => uint256[])","numberOfBytes":"32","value":"t_array(t_uint256)dyn_storage"},"t_mapping(t_address,t_uint256)":{"encoding":"mapping","key":"t_address","label":"mapping(address => uint256)","numberOfBytes":"32","value":"t_uint256"},"t_mapping(t_uint256,t_struct(Proposal)26270_storage)":{"encoding":"mapping","key":"t_uint256","label":"mapping(uint256 => struct StrategyStruct.Proposal)","numberOfBytes":"32","value":"t_struct(Proposal)26270_storage"},"t_mapping(t_uint256,t_uint256)":{"encoding":"mapping","key":"t_uint256","label":"mapping(uint256 => uint256)","numberOfBytes":"32","value":"t_uint256"},"t_string_storage":{"encoding":"bytes","label":"string","numberOfBytes":"32"},"t_struct(ArbitrableConfig)26294_storage":{"encoding":"inplace","label":"struct StrategyStruct.ArbitrableConfig","numberOfBytes":"224","members":[{"astId":26281,"contract":"src/CVStrategyV0_0.sol:CVStrategyV0_0","label":"arbitrator","offset":0,"slot":"0","type":"t_contract(IArbitrator)33482"},{"astId":26283,"contract":"src/CVStrategyV0_0.sol:CVStrategyV0_0","label":"tribunalSafe","offset":0,"slot":"1","type":"t_address"},{"astId":26285,"contract":"src/CVStrategyV0_0.sol:CVStrategyV0_0","label":"submitterCollateralAmount","offset":0,"slot":"2","type":"t_uint256"},{"astId":26287,"contract":"src/CVStrategyV0_0.sol:CVStrategyV0_0","label":"challengerCollateralAmount","offset":0,"slot":"3","type":"t_uint256"},{"astId":26289,"contract":"src/CVStrategyV0_0.sol:CVStrategyV0_0","label":"defaultRuling","offset":0,"slot":"4","type":"t_uint256"},{"astId":26291,"contract":"src/CVStrategyV0_0.sol:CVStrategyV0_0","label":"defaultRulingTimeout","offset":0,"slot":"5","type":"t_uint256"},{"astId":26293,"contract":"src/CVStrategyV0_0.sol:CVStrategyV0_0","label":"collateralVaultTemplate","offset":0,"slot":"6","type":"t_address"}]},"t_struct(CVParams)26303_storage":{"encoding":"inplace","label":"struct StrategyStruct.CVParams","numberOfBytes":"128","members":[{"astId":26296,"contract":"src/CVStrategyV0_0.sol:CVStrategyV0_0","label":"maxRatio","offset":0,"slot":"0","type":"t_uint256"},{"astId":26298,"contract":"src/CVStrategyV0_0.sol:CVStrategyV0_0","label":"weight","offset":0,"slot":"1","type":"t_uint256"},{"astId":26300,"contract":"src/CVStrategyV0_0.sol:CVStrategyV0_0","label":"decay","offset":0,"slot":"2","type":"t_uint256"},{"astId":26302,"contract":"src/CVStrategyV0_0.sol:CVStrategyV0_0","label":"minThresholdPoints","offset":0,"slot":"3","type":"t_uint256"}]},"t_struct(Metadata)802_storage":{"encoding":"inplace","label":"struct Metadata","numberOfBytes":"64","members":[{"astId":798,"contract":"src/CVStrategyV0_0.sol:CVStrategyV0_0","label":"protocol","offset":0,"slot":"0","type":"t_uint256"},{"astId":801,"contract":"src/CVStrategyV0_0.sol:CVStrategyV0_0","label":"pointer","offset":0,"slot":"1","type":"t_string_storage"}]},"t_struct(PointSystemConfig)26278_storage":{"encoding":"inplace","label":"struct StrategyStruct.PointSystemConfig","numberOfBytes":"32","members":[{"astId":26277,"contract":"src/CVStrategyV0_0.sol:CVStrategyV0_0","label":"maxAmount","offset":0,"slot":"0","type":"t_uint256"}]},"t_struct(Proposal)26270_storage":{"encoding":"inplace","label":"struct StrategyStruct.Proposal","numberOfBytes":"512","members":[{"astId":26237,"contract":"src/CVStrategyV0_0.sol:CVStrategyV0_0","label":"proposalId","offset":0,"slot":"0","type":"t_uint256"},{"astId":26239,"contract":"src/CVStrategyV0_0.sol:CVStrategyV0_0","label":"requestedAmount","offset":0,"slot":"1","type":"t_uint256"},{"astId":26241,"contract":"src/CVStrategyV0_0.sol:CVStrategyV0_0","label":"stakedAmount","offset":0,"slot":"2","type":"t_uint256"},{"astId":26243,"contract":"src/CVStrategyV0_0.sol:CVStrategyV0_0","label":"convictionLast","offset":0,"slot":"3","type":"t_uint256"},{"astId":26245,"contract":"src/CVStrategyV0_0.sol:CVStrategyV0_0","label":"beneficiary","offset":0,"slot":"4","type":"t_address"},{"astId":26247,"contract":"src/CVStrategyV0_0.sol:CVStrategyV0_0","label":"submitter","offset":0,"slot":"5","type":"t_address"},{"astId":26249,"contract":"src/CVStrategyV0_0.sol:CVStrategyV0_0","label":"requestedToken","offset":0,"slot":"6","type":"t_address"},{"astId":26251,"contract":"src/CVStrategyV0_0.sol:CVStrategyV0_0","label":"blockLast","offset":0,"slot":"7","type":"t_uint256"},{"astId":26254,"contract":"src/CVStrategyV0_0.sol:CVStrategyV0_0","label":"proposalStatus","offset":0,"slot":"8","type":"t_enum(ProposalStatus)26235"},{"astId":26258,"contract":"src/CVStrategyV0_0.sol:CVStrategyV0_0","label":"voterStakedPoints","offset":0,"slot":"9","type":"t_mapping(t_address,t_uint256)"},{"astId":26261,"contract":"src/CVStrategyV0_0.sol:CVStrategyV0_0","label":"metadata","offset":0,"slot":"10","type":"t_struct(Metadata)802_storage"},{"astId":26263,"contract":"src/CVStrategyV0_0.sol:CVStrategyV0_0","label":"disputeId","offset":0,"slot":"12","type":"t_uint256"},{"astId":26265,"contract":"src/CVStrategyV0_0.sol:CVStrategyV0_0","label":"disputeTimestamp","offset":0,"slot":"13","type":"t_uint256"},{"astId":26267,"contract":"src/CVStrategyV0_0.sol:CVStrategyV0_0","label":"challenger","offset":0,"slot":"14","type":"t_address"},{"astId":26269,"contract":"src/CVStrategyV0_0.sol:CVStrategyV0_0","label":"lastDisputeCompletion","offset":0,"slot":"15","type":"t_uint256"}]},"t_uint256":{"encoding":"inplace","label":"uint256","numberOfBytes":"32"},"t_uint64":{"encoding":"inplace","label":"uint64","numberOfBytes":"8"},"t_uint8":{"encoding":"inplace","label":"uint8","numberOfBytes":"1"}}},"id":60}