{"abi":[{"type":"fallback","stateMutability":"payable"},{"type":"receive","stateMutability":"payable"},{"type":"function","name":"D","inputs":[],"outputs":[{"name":"","type":"uint256","internalType":"uint256"}],"stateMutability":"view"},{"type":"function","name":"DISPUTE_COOLDOWN_SEC","inputs":[],"outputs":[{"name":"","type":"uint256","internalType":"uint256"}],"stateMutability":"view"},{"type":"function","name":"MAX_STAKED_PROPOSALS","inputs":[],"outputs":[{"name":"","type":"uint256","internalType":"uint256"}],"stateMutability":"view"},{"type":"function","name":"NATIVE","inputs":[],"outputs":[{"name":"","type":"address","internalType":"address"}],"stateMutability":"view"},{"type":"function","name":"RULING_OPTIONS","inputs":[],"outputs":[{"name":"","type":"uint256","internalType":"uint256"}],"stateMutability":"view"},{"type":"function","name":"activatePoints","inputs":[],"outputs":[],"stateMutability":"nonpayable"},{"type":"function","name":"allocate","inputs":[{"name":"_data","type":"bytes","internalType":"bytes"},{"name":"_sender","type":"address","internalType":"address"}],"outputs":[],"stateMutability":"payable"},{"type":"function","name":"arbitrableConfigs","inputs":[{"name":"","type":"uint256","internalType":"uint256"}],"outputs":[{"name":"arbitrator","type":"address","internalType":"contract IArbitrator"},{"name":"tribunalSafe","type":"address","internalType":"address"},{"name":"submitterCollateralAmount","type":"uint256","internalType":"uint256"},{"name":"challengerCollateralAmount","type":"uint256","internalType":"uint256"},{"name":"defaultRuling","type":"uint256","internalType":"uint256"},{"name":"defaultRulingTimeout","type":"uint256","internalType":"uint256"}],"stateMutability":"view"},{"type":"function","name":"calculateConviction","inputs":[{"name":"_timePassed","type":"uint256","internalType":"uint256"},{"name":"_lastConv","type":"uint256","internalType":"uint256"},{"name":"_oldAmount","type":"uint256","internalType":"uint256"}],"outputs":[{"name":"","type":"uint256","internalType":"uint256"}],"stateMutability":"view"},{"type":"function","name":"calculateThreshold","inputs":[{"name":"_requestedAmount","type":"uint256","internalType":"uint256"}],"outputs":[{"name":"_threshold","type":"uint256","internalType":"uint256"}],"stateMutability":"view"},{"type":"function","name":"canExecuteProposal","inputs":[{"name":"proposalId","type":"uint256","internalType":"uint256"}],"outputs":[{"name":"canBeExecuted","type":"bool","internalType":"bool"}],"stateMutability":"view"},{"type":"function","name":"cancelProposal","inputs":[{"name":"proposalId","type":"uint256","internalType":"uint256"}],"outputs":[],"stateMutability":"nonpayable"},{"type":"function","name":"cloneNonce","inputs":[],"outputs":[{"name":"","type":"uint256","internalType":"uint256"}],"stateMutability":"view"},{"type":"function","name":"collateralVault","inputs":[],"outputs":[{"name":"","type":"address","internalType":"contract ICollateralVault"}],"stateMutability":"view"},{"type":"function","name":"currentArbitrableConfigVersion","inputs":[],"outputs":[{"name":"","type":"uint256","internalType":"uint256"}],"stateMutability":"view"},{"type":"function","name":"cvParams","inputs":[],"outputs":[{"name":"maxRatio","type":"uint256","internalType":"uint256"},{"name":"weight","type":"uint256","internalType":"uint256"},{"name":"decay","type":"uint256","internalType":"uint256"},{"name":"minThresholdPoints","type":"uint256","internalType":"uint256"}],"stateMutability":"view"},{"type":"function","name":"deactivatePoints","inputs":[],"outputs":[],"stateMutability":"nonpayable"},{"type":"function","name":"deactivatePoints","inputs":[{"name":"_member","type":"address","internalType":"address"}],"outputs":[],"stateMutability":"nonpayable"},{"type":"function","name":"decreasePower","inputs":[{"name":"_member","type":"address","internalType":"address"},{"name":"_amountToUnstake","type":"uint256","internalType":"uint256"}],"outputs":[{"name":"","type":"uint256","internalType":"uint256"}],"stateMutability":"nonpayable"},{"type":"function","name":"disputeCount","inputs":[],"outputs":[{"name":"","type":"uint64","internalType":"uint64"}],"stateMutability":"view"},{"type":"function","name":"disputeIdToProposalId","inputs":[{"name":"","type":"uint256","internalType":"uint256"}],"outputs":[{"name":"","type":"uint256","internalType":"uint256"}],"stateMutability":"view"},{"type":"function","name":"disputeProposal","inputs":[{"name":"proposalId","type":"uint256","internalType":"uint256"},{"name":"context","type":"string","internalType":"string"},{"name":"_extraData","type":"bytes","internalType":"bytes"}],"outputs":[{"name":"disputeId","type":"uint256","internalType":"uint256"}],"stateMutability":"payable"},{"type":"function","name":"distribute","inputs":[{"name":"_recipientIds","type":"address[]","internalType":"address[]"},{"name":"_data","type":"bytes","internalType":"bytes"},{"name":"_sender","type":"address","internalType":"address"}],"outputs":[],"stateMutability":"nonpayable"},{"type":"function","name":"getAllo","inputs":[],"outputs":[{"name":"","type":"address","internalType":"contract IAllo"}],"stateMutability":"view"},{"type":"function","name":"getArbitrableConfig","inputs":[],"outputs":[{"name":"arbitrator","type":"address","internalType":"contract IArbitrator"},{"name":"tribunalSafe","type":"address","internalType":"address"},{"name":"submitterCollateralAmount","type":"uint256","internalType":"uint256"},{"name":"challengerCollateralAmount","type":"uint256","internalType":"uint256"},{"name":"defaultRuling","type":"uint256","internalType":"uint256"},{"name":"defaultRulingTimeout","type":"uint256","internalType":"uint256"}],"stateMutability":"view"},{"type":"function","name":"getDecay","inputs":[],"outputs":[{"name":"","type":"uint256","internalType":"uint256"}],"stateMutability":"view"},{"type":"function","name":"getMaxAmount","inputs":[],"outputs":[{"name":"","type":"uint256","internalType":"uint256"}],"stateMutability":"view"},{"type":"function","name":"getMaxConviction","inputs":[{"name":"amount","type":"uint256","internalType":"uint256"}],"outputs":[{"name":"","type":"uint256","internalType":"uint256"}],"stateMutability":"view"},{"type":"function","name":"getMetadata","inputs":[{"name":"_proposalId","type":"uint256","internalType":"uint256"}],"outputs":[{"name":"","type":"tuple","internalType":"struct Metadata","components":[{"name":"protocol","type":"uint256","internalType":"uint256"},{"name":"pointer","type":"string","internalType":"string"}]}],"stateMutability":"view"},{"type":"function","name":"getPayouts","inputs":[{"name":"","type":"address[]","internalType":"address[]"},{"name":"","type":"bytes[]","internalType":"bytes[]"}],"outputs":[{"name":"","type":"tuple[]","internalType":"struct IStrategy.PayoutSummary[]","components":[{"name":"recipientAddress","type":"address","internalType":"address"},{"name":"amount","type":"uint256","internalType":"uint256"}]}],"stateMutability":"pure"},{"type":"function","name":"getPointSystem","inputs":[],"outputs":[{"name":"","type":"uint8","internalType":"enum StrategyStruct.PointSystem"}],"stateMutability":"view"},{"type":"function","name":"getPoolAmount","inputs":[],"outputs":[{"name":"","type":"uint256","internalType":"uint256"}],"stateMutability":"view"},{"type":"function","name":"getPoolId","inputs":[],"outputs":[{"name":"","type":"uint256","internalType":"uint256"}],"stateMutability":"view"},{"type":"function","name":"getProposal","inputs":[{"name":"_proposalId","type":"uint256","internalType":"uint256"}],"outputs":[{"name":"submitter","type":"address","internalType":"address"},{"name":"beneficiary","type":"address","internalType":"address"},{"name":"requestedToken","type":"address","internalType":"address"},{"name":"requestedAmount","type":"uint256","internalType":"uint256"},{"name":"stakedAmount","type":"uint256","internalType":"uint256"},{"name":"proposalStatus","type":"uint8","internalType":"enum StrategyStruct.ProposalStatus"},{"name":"blockLast","type":"uint256","internalType":"uint256"},{"name":"convictionLast","type":"uint256","internalType":"uint256"},{"name":"threshold","type":"uint256","internalType":"uint256"},{"name":"voterStakedPoints","type":"uint256","internalType":"uint256"},{"name":"arbitrableConfigId","type":"uint256","internalType":"uint256"}],"stateMutability":"view"},{"type":"function","name":"getProposalStakedAmount","inputs":[{"name":"_proposalId","type":"uint256","internalType":"uint256"}],"outputs":[{"name":"","type":"uint256","internalType":"uint256"}],"stateMutability":"view"},{"type":"function","name":"getProposalVoterStake","inputs":[{"name":"_proposalId","type":"uint256","internalType":"uint256"},{"name":"_voter","type":"address","internalType":"address"}],"outputs":[{"name":"","type":"uint256","internalType":"uint256"}],"stateMutability":"view"},{"type":"function","name":"getRecipientStatus","inputs":[{"name":"_recipientId","type":"address","internalType":"address"}],"outputs":[{"name":"","type":"uint8","internalType":"enum IStrategy.Status"}],"stateMutability":"view"},{"type":"function","name":"getStrategyId","inputs":[],"outputs":[{"name":"","type":"bytes32","internalType":"bytes32"}],"stateMutability":"view"},{"type":"function","name":"getTotalVoterStakePct","inputs":[{"name":"_voter","type":"address","internalType":"address"}],"outputs":[{"name":"","type":"uint256","internalType":"uint256"}],"stateMutability":"view"},{"type":"function","name":"increasePoolAmount","inputs":[{"name":"_amount","type":"uint256","internalType":"uint256"}],"outputs":[],"stateMutability":"nonpayable"},{"type":"function","name":"increasePower","inputs":[{"name":"_member","type":"address","internalType":"address"},{"name":"_amountToStake","type":"uint256","internalType":"uint256"}],"outputs":[{"name":"","type":"uint256","internalType":"uint256"}],"stateMutability":"nonpayable"},{"type":"function","name":"init","inputs":[{"name":"_allo","type":"address","internalType":"address"},{"name":"_collateralVaultTemplate","type":"address","internalType":"address"},{"name":"owner","type":"address","internalType":"address"}],"outputs":[],"stateMutability":"nonpayable"},{"type":"function","name":"init","inputs":[{"name":"_allo","type":"address","internalType":"address"},{"name":"_name","type":"string","internalType":"string"},{"name":"owner","type":"address","internalType":"address"}],"outputs":[],"stateMutability":"nonpayable"},{"type":"function","name":"initialize","inputs":[{"name":"initialOwner","type":"address","internalType":"address"}],"outputs":[],"stateMutability":"nonpayable"},{"type":"function","name":"initialize","inputs":[{"name":"_poolId","type":"uint256","internalType":"uint256"},{"name":"_data","type":"bytes","internalType":"bytes"}],"outputs":[],"stateMutability":"nonpayable"},{"type":"function","name":"isPoolActive","inputs":[],"outputs":[{"name":"","type":"bool","internalType":"bool"}],"stateMutability":"view"},{"type":"function","name":"isValidAllocator","inputs":[{"name":"_allocator","type":"address","internalType":"address"}],"outputs":[{"name":"","type":"bool","internalType":"bool"}],"stateMutability":"view"},{"type":"function","name":"owner","inputs":[],"outputs":[{"name":"","type":"address","internalType":"address"}],"stateMutability":"view"},{"type":"function","name":"pointConfig","inputs":[],"outputs":[{"name":"maxAmount","type":"uint256","internalType":"uint256"}],"stateMutability":"view"},{"type":"function","name":"pointSystem","inputs":[],"outputs":[{"name":"","type":"uint8","internalType":"enum StrategyStruct.PointSystem"}],"stateMutability":"view"},{"type":"function","name":"proposalCounter","inputs":[],"outputs":[{"name":"","type":"uint256","internalType":"uint256"}],"stateMutability":"view"},{"type":"function","name":"proposalType","inputs":[],"outputs":[{"name":"","type":"uint8","internalType":"enum StrategyStruct.ProposalType"}],"stateMutability":"view"},{"type":"function","name":"proposals","inputs":[{"name":"","type":"uint256","internalType":"uint256"}],"outputs":[{"name":"proposalId","type":"uint256","internalType":"uint256"},{"name":"requestedAmount","type":"uint256","internalType":"uint256"},{"name":"stakedAmount","type":"uint256","internalType":"uint256"},{"name":"convictionLast","type":"uint256","internalType":"uint256"},{"name":"beneficiary","type":"address","internalType":"address"},{"name":"submitter","type":"address","internalType":"address"},{"name":"requestedToken","type":"address","internalType":"address"},{"name":"blockLast","type":"uint256","internalType":"uint256"},{"name":"proposalStatus","type":"uint8","internalType":"enum StrategyStruct.ProposalStatus"},{"name":"metadata","type":"tuple","internalType":"struct Metadata","components":[{"name":"protocol","type":"uint256","internalType":"uint256"},{"name":"pointer","type":"string","internalType":"string"}]},{"name":"disputeInfo","type":"tuple","internalType":"struct StrategyStruct.ProposalDisputeInfo","components":[{"name":"disputeId","type":"uint256","internalType":"uint256"},{"name":"disputeTimestamp","type":"uint256","internalType":"uint256"},{"name":"challenger","type":"address","internalType":"address"}]},{"name":"lastDisputeCompletion","type":"uint256","internalType":"uint256"},{"name":"arbitrableConfigId","type":"uint256","internalType":"uint256"}],"stateMutability":"view"},{"type":"function","name":"proxiableUUID","inputs":[],"outputs":[{"name":"","type":"bytes32","internalType":"bytes32"}],"stateMutability":"view"},{"type":"function","name":"registerRecipient","inputs":[{"name":"_data","type":"bytes","internalType":"bytes"},{"name":"_sender","type":"address","internalType":"address"}],"outputs":[{"name":"recipientId","type":"address","internalType":"address"}],"stateMutability":"payable"},{"type":"function","name":"registryCommunity","inputs":[],"outputs":[{"name":"","type":"address","internalType":"contract RegistryCommunityV0_0"}],"stateMutability":"view"},{"type":"function","name":"renounceOwnership","inputs":[],"outputs":[],"stateMutability":"nonpayable"},{"type":"function","name":"rule","inputs":[{"name":"_disputeID","type":"uint256","internalType":"uint256"},{"name":"_ruling","type":"uint256","internalType":"uint256"}],"outputs":[],"stateMutability":"nonpayable"},{"type":"function","name":"setCollateralVaultTemplate","inputs":[{"name":"template","type":"address","internalType":"address"}],"outputs":[],"stateMutability":"nonpayable"},{"type":"function","name":"setPoolActive","inputs":[{"name":"_active","type":"bool","internalType":"bool"}],"outputs":[],"stateMutability":"nonpayable"},{"type":"function","name":"setPoolParams","inputs":[{"name":"_arbitrableConfig","type":"tuple","internalType":"struct StrategyStruct.ArbitrableConfig","components":[{"name":"arbitrator","type":"address","internalType":"contract IArbitrator"},{"name":"tribunalSafe","type":"address","internalType":"address"},{"name":"submitterCollateralAmount","type":"uint256","internalType":"uint256"},{"name":"challengerCollateralAmount","type":"uint256","internalType":"uint256"},{"name":"defaultRuling","type":"uint256","internalType":"uint256"},{"name":"defaultRulingTimeout","type":"uint256","internalType":"uint256"}]},{"name":"_cvParams","type":"tuple","internalType":"struct StrategyStruct.CVParams","components":[{"name":"maxRatio","type":"uint256","internalType":"uint256"},{"name":"weight","type":"uint256","internalType":"uint256"},{"name":"decay","type":"uint256","internalType":"uint256"},{"name":"minThresholdPoints","type":"uint256","internalType":"uint256"}]}],"outputs":[],"stateMutability":"nonpayable"},{"type":"function","name":"setSybilScorer","inputs":[{"name":"_sybilScorer","type":"address","internalType":"address"}],"outputs":[],"stateMutability":"nonpayable"},{"type":"function","name":"supportsInterface","inputs":[{"name":"interfaceId","type":"bytes4","internalType":"bytes4"}],"outputs":[{"name":"","type":"bool","internalType":"bool"}],"stateMutability":"view"},{"type":"function","name":"sybilScorer","inputs":[],"outputs":[{"name":"","type":"address","internalType":"contract ISybilScorer"}],"stateMutability":"view"},{"type":"function","name":"totalEffectiveActivePoints","inputs":[],"outputs":[{"name":"","type":"uint256","internalType":"uint256"}],"stateMutability":"view"},{"type":"function","name":"totalPointsActivated","inputs":[],"outputs":[{"name":"","type":"uint256","internalType":"uint256"}],"stateMutability":"view"},{"type":"function","name":"totalStaked","inputs":[],"outputs":[{"name":"","type":"uint256","internalType":"uint256"}],"stateMutability":"view"},{"type":"function","name":"totalVoterStakePct","inputs":[{"name":"","type":"address","internalType":"address"}],"outputs":[{"name":"","type":"uint256","internalType":"uint256"}],"stateMutability":"view"},{"type":"function","name":"transferOwnership","inputs":[{"name":"newOwner","type":"address","internalType":"address"}],"outputs":[],"stateMutability":"nonpayable"},{"type":"function","name":"updateProposalConviction","inputs":[{"name":"proposalId","type":"uint256","internalType":"uint256"}],"outputs":[{"name":"","type":"uint256","internalType":"uint256"}],"stateMutability":"nonpayable"},{"type":"function","name":"upgradeTo","inputs":[{"name":"newImplementation","type":"address","internalType":"address"}],"outputs":[],"stateMutability":"nonpayable"},{"type":"function","name":"upgradeToAndCall","inputs":[{"name":"newImplementation","type":"address","internalType":"address"},{"name":"data","type":"bytes","internalType":"bytes"}],"outputs":[],"stateMutability":"payable"},{"type":"function","name":"voterStakedProposals","inputs":[{"name":"","type":"address","internalType":"address"},{"name":"","type":"uint256","internalType":"uint256"}],"outputs":[{"name":"","type":"uint256","internalType":"uint256"}],"stateMutability":"view"},{"type":"event","name":"AdminChanged","inputs":[{"name":"previousAdmin","type":"address","indexed":false,"internalType":"address"},{"name":"newAdmin","type":"address","indexed":false,"internalType":"address"}],"anonymous":false},{"type":"event","name":"Allocated","inputs":[{"name":"recipientId","type":"address","indexed":true,"internalType":"address"},{"name":"amount","type":"uint256","indexed":false,"internalType":"uint256"},{"name":"token","type":"address","indexed":false,"internalType":"address"},{"name":"sender","type":"address","indexed":false,"internalType":"address"}],"anonymous":false},{"type":"event","name":"ArbitrableConfigUpdated","inputs":[{"name":"currentArbitrableConfigVersion","type":"uint256","indexed":false,"internalType":"uint256"},{"name":"arbitrator","type":"address","indexed":false,"internalType":"contract IArbitrator"},{"name":"tribunalSafe","type":"address","indexed":false,"internalType":"address"},{"name":"submitterCollateralAmount","type":"uint256","indexed":false,"internalType":"uint256"},{"name":"challengerCollateralAmount","type":"uint256","indexed":false,"internalType":"uint256"},{"name":"defaultRuling","type":"uint256","indexed":false,"internalType":"uint256"},{"name":"defaultRulingTimeout","type":"uint256","indexed":false,"internalType":"uint256"}],"anonymous":false},{"type":"event","name":"BeaconUpgraded","inputs":[{"name":"beacon","type":"address","indexed":true,"internalType":"address"}],"anonymous":false},{"type":"event","name":"CVParamsUpdated","inputs":[{"name":"cvParams","type":"tuple","indexed":false,"internalType":"struct StrategyStruct.CVParams","components":[{"name":"maxRatio","type":"uint256","internalType":"uint256"},{"name":"weight","type":"uint256","internalType":"uint256"},{"name":"decay","type":"uint256","internalType":"uint256"},{"name":"minThresholdPoints","type":"uint256","internalType":"uint256"}]}],"anonymous":false},{"type":"event","name":"DisputeRequest","inputs":[{"name":"_arbitrator","type":"address","indexed":true,"internalType":"contract IArbitrator"},{"name":"_arbitrableDisputeID","type":"uint256","indexed":true,"internalType":"uint256"},{"name":"_externalDisputeID","type":"uint256","indexed":false,"internalType":"uint256"},{"name":"_templateId","type":"uint256","indexed":false,"internalType":"uint256"},{"name":"_templateUri","type":"string","indexed":false,"internalType":"string"}],"anonymous":false},{"type":"event","name":"Distributed","inputs":[{"name":"proposalId","type":"uint256","indexed":false,"internalType":"uint256"},{"name":"beneficiary","type":"address","indexed":false,"internalType":"address"},{"name":"amount","type":"uint256","indexed":false,"internalType":"uint256"}],"anonymous":false},{"type":"event","name":"Distributed","inputs":[{"name":"recipientId","type":"address","indexed":true,"internalType":"address"},{"name":"recipientAddress","type":"address","indexed":false,"internalType":"address"},{"name":"amount","type":"uint256","indexed":false,"internalType":"uint256"},{"name":"sender","type":"address","indexed":false,"internalType":"address"}],"anonymous":false},{"type":"event","name":"Initialized","inputs":[{"name":"poolId","type":"uint256","indexed":false,"internalType":"uint256"},{"name":"data","type":"bytes","indexed":false,"internalType":"bytes"}],"anonymous":false},{"type":"event","name":"Initialized","inputs":[{"name":"version","type":"uint8","indexed":false,"internalType":"uint8"}],"anonymous":false},{"type":"event","name":"InitializedCV","inputs":[{"name":"poolId","type":"uint256","indexed":false,"internalType":"uint256"},{"name":"data","type":"tuple","indexed":false,"internalType":"struct StrategyStruct.InitializeParams","components":[{"name":"cvParams","type":"tuple","internalType":"struct StrategyStruct.CVParams","components":[{"name":"maxRatio","type":"uint256","internalType":"uint256"},{"name":"weight","type":"uint256","internalType":"uint256"},{"name":"decay","type":"uint256","internalType":"uint256"},{"name":"minThresholdPoints","type":"uint256","internalType":"uint256"}]},{"name":"proposalType","type":"uint8","internalType":"enum StrategyStruct.ProposalType"},{"name":"pointSystem","type":"uint8","internalType":"enum StrategyStruct.PointSystem"},{"name":"pointConfig","type":"tuple","internalType":"struct StrategyStruct.PointSystemConfig","components":[{"name":"maxAmount","type":"uint256","internalType":"uint256"}]},{"name":"arbitrableConfig","type":"tuple","internalType":"struct StrategyStruct.ArbitrableConfig","components":[{"name":"arbitrator","type":"address","internalType":"contract IArbitrator"},{"name":"tribunalSafe","type":"address","internalType":"address"},{"name":"submitterCollateralAmount","type":"uint256","internalType":"uint256"},{"name":"challengerCollateralAmount","type":"uint256","internalType":"uint256"},{"name":"defaultRuling","type":"uint256","internalType":"uint256"},{"name":"defaultRulingTimeout","type":"uint256","internalType":"uint256"}]},{"name":"registryCommunity","type":"address","internalType":"address"},{"name":"sybilScorer","type":"address","internalType":"address"}]}],"anonymous":false},{"type":"event","name":"MinThresholdPointsUpdated","inputs":[{"name":"before","type":"uint256","indexed":false,"internalType":"uint256"},{"name":"minThresholdPoints","type":"uint256","indexed":false,"internalType":"uint256"}],"anonymous":false},{"type":"event","name":"OwnershipTransferred","inputs":[{"name":"previousOwner","type":"address","indexed":true,"internalType":"address"},{"name":"newOwner","type":"address","indexed":true,"internalType":"address"}],"anonymous":false},{"type":"event","name":"PointsDeactivated","inputs":[{"name":"member","type":"address","indexed":false,"internalType":"address"}],"anonymous":false},{"type":"event","name":"PoolActive","inputs":[{"name":"active","type":"bool","indexed":false,"internalType":"bool"}],"anonymous":false},{"type":"event","name":"PoolAmountIncreased","inputs":[{"name":"amount","type":"uint256","indexed":false,"internalType":"uint256"}],"anonymous":false},{"type":"event","name":"PowerDecreased","inputs":[{"name":"member","type":"address","indexed":false,"internalType":"address"},{"name":"tokensUnStaked","type":"uint256","indexed":false,"internalType":"uint256"},{"name":"pointsToDecrease","type":"uint256","indexed":false,"internalType":"uint256"}],"anonymous":false},{"type":"event","name":"PowerIncreased","inputs":[{"name":"member","type":"address","indexed":false,"internalType":"address"},{"name":"tokensStaked","type":"uint256","indexed":false,"internalType":"uint256"},{"name":"pointsToIncrease","type":"uint256","indexed":false,"internalType":"uint256"}],"anonymous":false},{"type":"event","name":"ProposalCancelled","inputs":[{"name":"proposalId","type":"uint256","indexed":false,"internalType":"uint256"}],"anonymous":false},{"type":"event","name":"ProposalCreated","inputs":[{"name":"poolId","type":"uint256","indexed":false,"internalType":"uint256"},{"name":"proposalId","type":"uint256","indexed":false,"internalType":"uint256"}],"anonymous":false},{"type":"event","name":"ProposalDisputed","inputs":[{"name":"arbitrator","type":"address","indexed":false,"internalType":"contract IArbitrator"},{"name":"proposalId","type":"uint256","indexed":false,"internalType":"uint256"},{"name":"disputeId","type":"uint256","indexed":false,"internalType":"uint256"},{"name":"challenger","type":"address","indexed":false,"internalType":"address"},{"name":"context","type":"string","indexed":false,"internalType":"string"},{"name":"timestamp","type":"uint256","indexed":false,"internalType":"uint256"}],"anonymous":false},{"type":"event","name":"Registered","inputs":[{"name":"recipientId","type":"address","indexed":true,"internalType":"address"},{"name":"data","type":"bytes","indexed":false,"internalType":"bytes"},{"name":"sender","type":"address","indexed":false,"internalType":"address"}],"anonymous":false},{"type":"event","name":"RegistryUpdated","inputs":[{"name":"registryCommunity","type":"address","indexed":false,"internalType":"address"}],"anonymous":false},{"type":"event","name":"Ruling","inputs":[{"name":"_arbitrator","type":"address","indexed":true,"internalType":"contract IArbitrator"},{"name":"_disputeID","type":"uint256","indexed":true,"internalType":"uint256"},{"name":"_ruling","type":"uint256","indexed":false,"internalType":"uint256"}],"anonymous":false},{"type":"event","name":"SupportAdded","inputs":[{"name":"from","type":"address","indexed":false,"internalType":"address"},{"name":"proposalId","type":"uint256","indexed":false,"internalType":"uint256"},{"name":"amount","type":"uint256","indexed":false,"internalType":"uint256"},{"name":"totalStakedAmount","type":"uint256","indexed":false,"internalType":"uint256"},{"name":"convictionLast","type":"uint256","indexed":false,"internalType":"uint256"}],"anonymous":false},{"type":"event","name":"TribunaSafeRegistered","inputs":[{"name":"strategy","type":"address","indexed":false,"internalType":"address"},{"name":"arbitrator","type":"address","indexed":false,"internalType":"address"},{"name":"tribunalSafe","type":"address","indexed":false,"internalType":"address"}],"anonymous":false},{"type":"event","name":"Upgraded","inputs":[{"name":"implementation","type":"address","indexed":true,"internalType":"address"}],"anonymous":false},{"type":"error","name":"ALLOCATION_ACTIVE","inputs":[]},{"type":"error","name":"ALLOCATION_NOT_ACTIVE","inputs":[]},{"type":"error","name":"ALLOCATION_NOT_ENDED","inputs":[]},{"type":"error","name":"ALREADY_INITIALIZED","inputs":[]},{"type":"error","name":"AMOUNT_MISMATCH","inputs":[]},{"type":"error","name":"ANCHOR_ERROR","inputs":[]},{"type":"error","name":"ARRAY_MISMATCH","inputs":[]},{"type":"error","name":"AddressCannotBeZero","inputs":[]},{"type":"error","name":"AmountOverMaxRatio","inputs":[]},{"type":"error","name":"ArbitratorCannotBeZero","inputs":[]},{"type":"error","name":"CallerNotOwner","inputs":[{"name":"_caller","type":"address","internalType":"address"},{"name":"_owner","type":"address","internalType":"address"}]},{"type":"error","name":"CantIncreaseFixedSystem","inputs":[]},{"type":"error","name":"ConvictionUnderMinimumThreshold","inputs":[]},{"type":"error","name":"DefaultRulingNotSet","inputs":[]},{"type":"error","name":"DisputeCooldownNotPassed","inputs":[{"name":"_proposalId","type":"uint256","internalType":"uint256"},{"name":"_remainingSec","type":"uint256","internalType":"uint256"}]},{"type":"error","name":"INVALID","inputs":[]},{"type":"error","name":"INVALID_ADDRESS","inputs":[]},{"type":"error","name":"INVALID_FEE","inputs":[]},{"type":"error","name":"INVALID_METADATA","inputs":[]},{"type":"error","name":"INVALID_REGISTRATION","inputs":[]},{"type":"error","name":"IS_APPROVED_STRATEGY","inputs":[]},{"type":"error","name":"InsufficientCollateral","inputs":[{"name":"sentAmount","type":"uint256","internalType":"uint256"},{"name":"requiredAmount","type":"uint256","internalType":"uint256"}]},{"type":"error","name":"MISMATCH","inputs":[]},{"type":"error","name":"MaxPointsReached","inputs":[]},{"type":"error","name":"NONCE_NOT_AVAILABLE","inputs":[]},{"type":"error","name":"NOT_APPROVED_STRATEGY","inputs":[]},{"type":"error","name":"NOT_ENOUGH_FUNDS","inputs":[]},{"type":"error","name":"NOT_IMPLEMENTED","inputs":[]},{"type":"error","name":"NOT_INITIALIZED","inputs":[]},{"type":"error","name":"NOT_PENDING_OWNER","inputs":[]},{"type":"error","name":"NotEnoughPointsToSupport","inputs":[{"name":"pointsSupport","type":"uint256","internalType":"uint256"},{"name":"pointsBalance","type":"uint256","internalType":"uint256"}]},{"type":"error","name":"NotImplemented","inputs":[]},{"type":"error","name":"OnlyArbitrator","inputs":[]},{"type":"error","name":"OnlyCommunityAllowed","inputs":[]},{"type":"error","name":"OnlyCouncilSafe","inputs":[]},{"type":"error","name":"OnlySubmitter","inputs":[{"name":"submitter","type":"address","internalType":"address"},{"name":"sender","type":"address","internalType":"address"}]},{"type":"error","name":"POOL_ACTIVE","inputs":[]},{"type":"error","name":"POOL_INACTIVE","inputs":[]},{"type":"error","name":"PoolAmountNotEnough","inputs":[{"name":"_proposalId","type":"uint256","internalType":"uint256"},{"name":"_requestedAmount","type":"uint256","internalType":"uint256"},{"name":"_poolAmount","type":"uint256","internalType":"uint256"}]},{"type":"error","name":"PoolIdCannotBeZero","inputs":[]},{"type":"error","name":"PoolIsEmpty","inputs":[]},{"type":"error","name":"ProposalDataIsEmpty","inputs":[]},{"type":"error","name":"ProposalIdCannotBeZero","inputs":[]},{"type":"error","name":"ProposalNotActive","inputs":[{"name":"_proposalId","type":"uint256","internalType":"uint256"}]},{"type":"error","name":"ProposalNotDisputed","inputs":[{"name":"_proposalId","type":"uint256","internalType":"uint256"}]},{"type":"error","name":"ProposalNotInList","inputs":[{"name":"_proposalId","type":"uint256","internalType":"uint256"}]},{"type":"error","name":"ProposalSupportDuplicated","inputs":[{"name":"_proposalId","type":"uint256","internalType":"uint256"},{"name":"index","type":"uint256","internalType":"uint256"}]},{"type":"error","name":"RECIPIENT_ALREADY_ACCEPTED","inputs":[]},{"type":"error","name":"RECIPIENT_ERROR","inputs":[{"name":"recipientId","type":"address","internalType":"address"}]},{"type":"error","name":"RECIPIENT_NOT_ACCEPTED","inputs":[]},{"type":"error","name":"REGISTRATION_NOT_ACTIVE","inputs":[]},{"type":"error","name":"RegistryCannotBeZero","inputs":[]},{"type":"error","name":"SupportUnderflow","inputs":[{"name":"_support","type":"uint256","internalType":"uint256"},{"name":"_delta","type":"int256","internalType":"int256"},{"name":"_result","type":"int256","internalType":"int256"}]},{"type":"error","name":"TokenCannotBeZero","inputs":[]},{"type":"error","name":"TokenNotAllowed","inputs":[]},{"type":"error","name":"UNAUTHORIZED","inputs":[]},{"type":"error","name":"UserCannotBeZero","inputs":[]},{"type":"error","name":"UserCannotExecuteAction","inputs":[]},{"type":"error","name":"UserIsInactive","inputs":[]},{"type":"error","name":"UserNotInRegistry","inputs":[]},{"type":"error","name":"ZERO_ADDRESS","inputs":[]}],"bytecode":{"object":"0x60a0806040523461004b5730608052606d80546001600160401b03191690556000606e819055606f55615662908161005182396080518181816121940152818161227e01526125c50152f35b600080fdfe60806040526004361015610018575b361561001657005b005b6000803560e01c8063013cf08b14613ce757806301ffc9a714613c90578063059351cd14613c39578063062f9ece14613b885780630a6f0ee9146138315780630ba959091461196c5780630bece79c146138085780630c0512e9146137ea5780630f529ba2146137cc578063125fd1d9146137ae57806315cc481e14613785578063184b9559146135d65780631aa91a9e146135b75780631ddf1e231461359d5780632506b87014613566578063255ffb381461353c5780632bbe0cae1461306c5780632dbd6fdd1461133b5780632ed04b2b14612dfa578063311a6c561461285a578063339604591461283c578063346db8cb14612817578063351d9f96146127f15780633659cfe6146125a057806338fff2d014612582578063406244d81461256657806341bb76051461250e57806342fda9c7146124f05780634ab4ba42146124d25780634d31d08714610ff95780634f1ef2861461224057806352d1902d1461218157806359a5db8b146121625780635db64b99146113665780636003e4141461213957806360d5dedc1461207e578063626c47e8146120625780636453d9c414612038578063715018a614611fec578063782aadff14611c51578063814516ad14611b59578063817b1cd214611b3b578063824ea8ed14611ace578063868c57b814611a785780638da5cb5b14611a4b578063950559d714611a005780639a1c157c146119e2578063a0cf0aea146119b3578063a28889e11461198a578063a47ff7e51461196c578063a574cea414611912578063aba9ffee14611210578063ac1ed7b9146118c4578063b0d3713a1461187f578063b2b878d0146117bc578063b41596ec14611424578063b5f620ce146113c8578063b6c61f311461139f578063bcc5b93b14611366578063c32921711461133b578063c4d66de814611309578063c7f758a81461122e578063d1e3623214611210578063dc96ff2d146111e3578063df868ed3146111c0578063e0a8f6f514611069578063e0dd2c381461101f578063eb11af9314610ff9578063edd146cc14610b26578063ef2920fc14610450578063f2fde38b146103bf578063f5b0dfb7146103665763f5be3f7c14610347575061000e565b346103635780600319360112610363576020604051611c208152f35b80fd5b5034610363576020366003190112610363577f46aeb5d8770fc4474bc2dfa118fd2595f7fb33ce2cbce6f4e5a3dabfe0f7633960206004356103a6614580565b6103b28160695461455d565b606955604051908152a180f35b5034610363576020366003190112610363576103d96140e2565b6103e16142a0565b6001600160a01b038116156103fc576103f9906142ff565b80f35b60405162461bcd60e51b815260206004820152602660248201527f4f776e61626c653a206e6577206f776e657220697320746865207a65726f206160448201526564647265737360d01b6064820152608490fd5b5061045a366141ea565b90610463614580565b61046b6145a6565b6001600160a01b0382811691908215610b145760785416938415610b025760405163288c314960e21b81526004810184905260209360249291858185818b5afa908115610ab6578391610ae5575b5015610ad3576104c886614787565b15610ac15760405163011de97360e61b81528581806104eb308b6004840161476d565b03818b5afa908115610ab6578391610a89575b5015610a77578351840193858501908681870312610a6f5780870151906001600160401b038211610a7357019481603f87011215610a6f578686015190610544826140f8565b966105526040519889613f0b565b82885260408989019360061b820101938411610a6b57604001915b838310610a395750505050819682975b85518910156105fa576105908987614c49565b5151156105f0576105a18987614c49565b51516105ac81614c5d565b156105d957506105cd6105d391886105c48c8a614c49565b51015190614cb5565b986145c2565b9761057d565b85906040519063c1d17bef60e01b82526004820152fd5b976105d3906145c2565b9580939761061961063793949698878b52607c845260408b2054614cd1565b936040518080958194637817ee4f60e01b835230906004840161476d565b03915afa908115610a2e5787916109fc575b508082116109df5750828695949552607c82526040862055606091829186945b86518610156109db5761067c8688614c49565b5151938051156000146108c857506040519461069786613ed5565b60018652828601833682378651156108b3578590529490945b826106bb888a614c49565b51015195858a52607b845260408a20926009840191866000528286526106e7604060002054998a614cd1565b92876000528652826040600020558b809b81938754945b8a8452607d8a526040842080548210156108a05761071d828892614245565b90549060031b1c1461073b576107346040916145c2565b90506106fe565b50999391509a9593919b5060019994995b1561083a575b506107b394939291908084116108015761076c8482614824565b610779607091825461455d565b90556107858482614824565b6107946002850191825461455d565b90555b60078301928354156000146107ba5750505090504390556145c2565b9495610669565b60a093506107d760008051602061552d8339815191529582614fa5565b6003600282015491015491604051938a85528985015260408401528a8301526080820152a16145c2565b61080b8185614824565b6108186070918254614824565b90556108248185614824565b61083360028501918254614824565b9055610797565b878d52607d875260408d20805490600160401b82101561088d578161086d9160016107b39a999897969594018155614245565b819291549060031b91821b91600019901b19161790559091929394610752565b634e487b7160e01b8f5260416004528d8ffd5b5050999391509a9593919b99949961074c565b82634e487b7160e01b60005260326004526000fd5b9491889497989693919698855b875181101561091a57896108e9828a614c49565b51146108fd576108f8906145c2565b6108d5565b896044918a60405192632b7aec5560e21b84526004840152820152fd5b509794989691939692909215610933575b9490946106b0565b9480519060018083018093116109c85761094c836140f8565b9261095a6040519485613f0b565b808452610969601f19916140f8565b0136868501378a815b61098c575b505061098586915183614c49565b529461092b565b829a949a518110156109c057806109a66109b79285614c49565b516109b18287614c49565b526145c2565b819a949a610972565b999399610977565b634e487b7160e01b8b526011600452838bfd5b8780f35b604492508560405192636b20c17f60e11b84526004840152820152fd5b90508281813d8311610a27575b610a138183613f0b565b81010312610a22575187610649565b600080fd5b503d610a09565b6040513d89823e3d90fd5b6040898484030112610a6b57886040918251610a5481613ed5565b85518152828601518382015281520192019161056d565b8580fd5b8380fd5b8480fd5b604051635fccb67f60e01b8152600490fd5b610aa99150863d8811610aaf575b610aa18183613f0b565b810190614755565b386104fe565b503d610a97565b6040513d85823e3d90fd5b604051630b72d6b160e31b8152600490fd5b604051636a5cfb6d60e01b8152600490fd5b610afc9150863d8811610aaf57610aa18183613f0b565b386104b9565b604051635df4b1ef60e01b8152600490fd5b604051631a3e505160e31b8152600490fd5b5034610363576040366003190112610363576024356001600160401b038111610f8757610b579036906004016141cf565b610b5f614580565b610b67614580565b606854610fe75760043515610fd557600435606855606a546e5af43d82803e903d91602b57fd5bf3606c54610b9b816145c2565b606c5560405160208101913360601b8352603482015260348152610bbe81613ef0565b519020608883901c62ffffff16763d602d80600a3d3981f3363d3d373d3d3d363d7300000017855260789290921b6001600160781b031916176020526001600160a01b03906037600985f5168015610f9657607980546001600160a01b031981168317909155839190821617803b15610f875781809160046040518094819363204a7f0760e21b83525af18015610f8b57610f73575b5050808051810103906101e08212610f59576040519160e083016001600160401b03811184821017610f5d578060405260808212610a7357610c9581613ea7565b60208301518152604083015161010085015260608301516101208501526080830151610140850152835260a08201516003811015610a7357602084015260c08201516004811015610a73576040840152602060bf19820112610a6f57604051906001600160401b036020830190811190831117610f5d5781602060c0930160405260e08401518152606085015260df190112610f5957604051610d3781613e8c565b6101008201516001600160a01b0381168103610a73578152610d5c61012083016145d1565b60208201526101408201516040820152610160820151606082015261018082015160808201526101a082015160a08201526080830152610db26101e0610da56101c084016145d1565b928360a0860152016145d1565b60c08301526001600160a01b031615610b025760a0810151607880546001600160a01b0319166001600160a01b039290921691909117905560208101516003811015610f455760765460408301516004811015610f3157917fe5315be7b0ab27f8044fa25213ec2851fa61dd47203db658cf77f45f39ffc37b939160ff61ff006102009560081b1692169061ffff1916171760765560608101515160775560018060a01b0360c08201511660018060a01b0319607a541617607a55610e7d608082015182519061502a565b604051906004358252610e946020830182516145e5565b610ea6602082015160a0840190614238565b610eb8604082015160c084019061422b565b6060818101515160e084015260808083015180516001600160a01b03908116610100870152602082015181166101208701526040820151610140870152928101516101608601529081015161018085015260a0908101516101a085015282015181166101c084015260c090910151166101e0820152a180f35b634e487b7160e01b85526021600452602485fd5b634e487b7160e01b83526021600452602483fd5b8280fd5b634e487b7160e01b600052604160045260246000fd5b610f7c90613ec2565b610f87578138610c54565b5080fd5b6040513d84823e3d90fd5b60405162461bcd60e51b8152602060048201526017602482015276115490cc4c4d8dce8818dc99585d194c8819985a5b1959604a1b6044820152606490fd5b604051637fcce2a960e01b8152600490fd5b60405163439a74c960e01b8152600490fd5b5034610363576020366003190112610363576020906110166140e2565b50604051908152f35b5034610363576040366003190112610363576009604061103d6140b6565b926004358152607b60205220019060018060a01b03166000526020526020604060002054604051908152f35b503461036357602080600319360112610f875760043590818352607b8152600160ff60086040862001541661109d81613ffb565b036111a757818352607b815260408320600501546001600160a01b0390811633810361118457508084916079541690848352607b8452601060408420916005830154169101548352607f84526002604084200154823b15610a6f5761111c9284928360405180968195829463099ea56b60e41b84528c60048501614c28565b03925af18015610f8b57611170575b50829052607b81526040808420600801805460ff19166003179055519182527f416e669c63d9a3a5e36ee7cc7e2104b8db28ccd286aa18966e98fa230c73b08c91a180f35b61117990613ec2565b610f5957823861112b565b604051634544dc9160e11b81529081906111a39033906004840161476d565b0390fd5b6040516344980d8f60e01b815260048101839052602490fd5b5034610363578060031936011261036357602060ff606754166040519015158152f35b503461036357602036600319011261036357600260406020926004358152607b8452200154604051908152f35b50346103635780600319360112610363576020607154604051908152f35b503461036357602036600319011261036357610160906004358152607b6020526040812060018101549182156000146112f957905b60018060a01b03918260058301541693836004840154169360068401541690600284015460ff6008860154169060078601549260038701549433600052600988016020526010604060002054980154986040519a8b5260208b015260408a0152606089015260808801526112d681613ffb565b60a087015260c086015260e0850152610100840152610120830152610140820152f35b5061130382614e1a565b90611263565b5034610363576020366003190112610363576103f96113266140e2565b61133660ff845460081c166144fd565b6142ff565b5034610363578060031936011261036357602060ff60765460081c16611364604051809261422b565bf35b5034610363576020366003190112610363576020906040906001600160a01b0361138e6140e2565b168152607c83522054604051908152f35b5034610363578060031936011261036357607a546040516001600160a01b039091168152602090f35b503461036357602036600319011261036357600435801515809103610f875760207fd94c9bc4d43c51d8dc345a016d8e3d994432fac68e72832e4cf3a616bd8efae09160ff196067541660ff821617606755604051908152a180f35b506060366003190112610363576001600160401b0390602435828111610f8757611452903690600401614273565b604492919235848111610f595761146d903690600401614273565b93909460043594858552607b602052604085209460108601548152607f60205260408120926040519261149f84613e8c565b60018060a01b0394858154168086528660018301541660208701526002820154604087015260056003830154926060880193845260048101546080890152015460a0870152156117aa5789895403611791576008890191600160ff84541661150681613ffb565b0361177857815180341061175a5750600f8a015480151580611732575b6116fc5750611533825134614824565b918760795416905190803b156116f85761156787918e60405194858094819363240ff7c560e11b835233906004840161471a565b03925af180156116ed576116d9575b509a6020916115b09b9c8888511691604051809e8195829463c13517e160e01b8452600360048501526040602485015260448401916153cb565b03925af1988915610ab65783996116a5575b50805460ff19166005179055600c870188905542600d8801908155600e90970180546001600160a01b03191633179055878252607e60205260408220899055606d5491818316908183146116915750927f034f6a48076db1bcaaa311ccdc43d473aff44d3918a76fe0fae27c8b3665016d97959260209a97959260016116809601169060018060401b03191617606d55511693549260405195869586528986015287604086015233606086015260c0608086015260c08501916153cb565b9060a08301520390a1604051908152f35b634e487b7160e01b81526011600452602490fd5b9098506020813d6020116116d1575b816116c160209383613f0b565b81010312610a22575197386115c2565b3d91506116b4565b6116e38691613ec2565b610a735738611576565b6040513d88823e3d90fd5b8680fd5b8b86611c20830180931161169157506117186044924290614824565b60405191638d2f6c3160e01b835260048301526024820152fd5b50611c208101808211611746574210611523565b634e487b7160e01b87526011600452602487fd5b60449060405190632c1f8ef160e21b82523460048301526024820152fd5b6040516344980d8f60e01b8152600481018c9052602490fd5b60405163c1d17bef60e01b8152600481018b9052602490fd5b604051636c291fd360e01b8152600490fd5b5034610363576040366003190112610363576001600160401b0390600435828111610f87576117ef90369060040161410f565b5060248035838111610f595736602382011215610f5957806004013591611815836140f8565b946118236040519687613f0b565b8386528160208097019460051b8401019436861161036357828401945b8686106118595760405163d623472560e01b8152600490fd5b8535838111610f5957889161187483928736918a01016141cf565b815201950194611840565b5034610363576020366003190112610363576118996140e2565b6118a16142a0565b606a80546001600160a01b0319166001600160a01b039290921691909117905580f35b5034610363576020366003190112610363576118de6140e2565b6118e661535b565b6118ef81614733565b607a80546001600160a01b0319166001600160a01b039290921691909117905580f35b503461036357602036600319011261036357611954600a60406119689360606020835161193e81613ed5565b83815201526004358152607b6020522001613f2e565b604051918291602083526020830190614063565b0390f35b50346103635780600319360112610363576020607754604051908152f35b5034610363578060031936011261036357606d546040516001600160401b039091168152602090f35b5034610363578060031936011261036357602060405173eeeeeeeeeeeeeeeeeeeeeeeeeeeeeeeeeeeeeeee8152f35b50346103635780600319360112610363576020607454604051908152f35b503461036357602036600319011261036357600435629896809182820291808304841490151715611691576074548303928311611691576020611a438484614ac5565b604051908152f35b50346103635780600319360112610363576020611a66615414565b6040516001600160a01b039091168152f35b503461036357604036600319011261036357611a926140e2565b6001600160a01b03168152607d6020526040812080546024359290831015610363576020611ac08484614245565b90546040519160031b1c8152f35b50346103635760203660031901126103635760406020916004358152607b835220611afd600282015482614fd7565b81929192159081611b32575b50611b26575b6001611b1c910154614e1a565b1115604051908152f35b60038101549150611b0f565b90501538611b09565b50346103635780600319360112610363576020607054604051908152f35b5034610363578060031936011261036357611b7333614787565b15610ac1576078546001600160a01b039082908216803b15610f8757816040518092630d4a8b4960e01b8252818381611bb030336004840161476d565b03925af18015610f8b57611c3d575b50506078541660206040518092637817ee4f60e01b82528180611be630336004840161476d565b03915afa8015610f8b578290611c0a575b611c04915060715461455d565b60715580f35b506020813d8211611c35575b81611c2360209383613f0b565b81010312610a2257611c049051611bf7565b3d9150611c16565b611c4690613ec2565b610f87578138611bbf565b503461036357604036600319011261036357611c6b6140e2565b602435611c766147fe565b611c7f82614787565b15610ac1578260ff60765460081c166004811015610f315760028103611d6957505080915b60785460405163011de97360e61b81529060209082906001600160a01b03168180611cd330886004840161476d565b03915afa908115611d5e57907f0b9150e1e54346ed3fa36b977cd5d65dca5a649c737c3174a26bddaadd47667a93929160209691611d41575b50611d2d575b611d228460405193849384614a4e565b0390a1604051908152f35b611d398460715461455d565b607155611d12565b611d589150863d8111610aaf57610aa18183613f0b565b38611d0c565b6040513d87823e3d90fd5b60018103611e15575050607854604051637817ee4f60e01b8152829160209082906001600160a01b03168180611da3308a6004840161476d565b03915afa908115611d5e578591611de4575b50611dc0838261455d565b607754809111611dd3575b505091611ca4565b611ddd9250614824565b3880611dcb565b90506020813d8211611e0d575b81611dfe60209383613f0b565b81010312610a22575138611db5565b3d9150611df1565b90929060021901611ca4576078546040516316308e2560e11b81526001600160a01b038084166004830152929450908216916020918281602481875afa8015610a2e5785908890611fbb575b611e6b925061455d565b6040516336d8759760e21b81529060128483600481895afa908115611fb057611ed49486611ec993611ecf968d91611f83575b5060046040518094819363313ce56760e01b8352165afa8b9181611f54575b50611f49575b50614aa4565b90614ab2565b614ae5565b816040518094637817ee4f60e01b82528180611ef4308b6004840161476d565b03915afa9182156116ed578692611f17575b50611f119250614824565b91611ca4565b90915082813d8311611f42575b611f2e8183613f0b565b81010312610a2257611f1191519038611f06565b503d611f24565b60ff91501638611ec3565b611f75919250883d8a11611f7c575b611f6d8183613f0b565b810190614a8b565b9038611ebd565b503d611f63565b611fa39150823d8411611fa9575b611f9b8183613f0b565b810190614a6c565b38611e9e565b503d611f91565b6040513d8b823e3d90fd5b50508281813d8311611fe5575b611fd28183613f0b565b81010312610a225784611e6b9151611e61565b503d611fc8565b50346103635780600319360112610363576120056142a0565b603380546001600160a01b031981169091556000906001600160a01b031660008051602061554d8339815191528280a380f35b5034610363576020366003190112610363576103f96120556140e2565b61205d6147fe565b614831565b5034610363578060031936011261036357602060405160038152f35b5034610363576060366003190112610363576120986140e2565b6024356001600160401b038111610f595736602382011215610f59576120c8903690602481600401359101614198565b906120ed6120d46140cc565b61133660ff865460081c166120e8816144fd565b6144fd565b60018060a01b031660018060a01b0319606554161760655560405161213081612122602082019460208652604083019061403e565b03601f198101835282613f0b565b51902060665580f35b50346103635780600319360112610363576078546040516001600160a01b039091168152602090f35b5034610363576020366003190112610363576020611a43600435614e1a565b50346103635780600319360112610363577f00000000000000000000000000000000000000000000000000000000000000006001600160a01b031630036121da57602060405160008051602061550d8339815191528152f35b60405162461bcd60e51b815260206004820152603860248201527f555550535570677261646561626c653a206d757374206e6f742062652063616c6044820152771b1959081d1a1c9bdd59da0819195b1959d85d1958d85b1b60421b6064820152608490fd5b506040366003190112610363576122556140e2565b6024356001600160401b038111610f59576122749036906004016141cf565b6001600160a01b037f000000000000000000000000000000000000000000000000000000000000000081169291906122ae30851415614336565b6122cb60008051602061550d833981519152948286541614614385565b6122d3615414565b81339116036124ad576000805160206154ad8339815191525460ff16156123005750506103f991506143d4565b8216604051936352d1902d60e01b85526020948581600481865afa6000918161247e575b506123735760405162461bcd60e51b815260048101879052602e60248201526000805160206155ed83398151915260448201526d6f6e206973206e6f74205555505360901b6064820152608490fd5b949293940361243957612385846143d4565b60008051602061556d833981519152600080a2815115801590612431575b6123ae575b50505080f35b61241f92600080604051946123c286613ef0565b602786526000805160206155cd83398151915285870152660819985a5b195960ca1b60408701528481519101845af4903d15612428573d6124028161417d565b906124106040519283613f0b565b8152600081943d92013e614464565b503880806123a8565b60609250614464565b5060016123a3565b60405162461bcd60e51b815260048101839052602960248201526000805160206155ad8339815191526044820152681a58589b195555525160ba1b6064820152608490fd5b90918782813d83116124a6575b6124958183613f0b565b810103126103635750519038612324565b503d61248b565b6111a36124b8615414565b60405163163678e960e01b8152918291336004840161476d565b50346103635780600319360112610363576020606954604051908152f35b50346103635780600319360112610363576020606654604051908152f35b5034610363576020366003190112610363576040906004358152607f6020522060018060a01b036119688183541691600184015416926002810154906003810154600560048301549201549260405196879687614083565b50346103635780600319360112610363576020604051600a8152f35b50346103635780600319360112610363576020606854604051908152f35b503461036357602080600319360112610f87576125bb6140e2565b6001600160a01b037f000000000000000000000000000000000000000000000000000000000000000081166125f230821415614336565b61260f60008051602061550d833981519152918383541614614385565b612617615414565b82339116036124ad57604051848101929091906001600160401b03841183851017610f5d578360405286835260ff6000805160206154ad833981519152541660001461266b57505050506103f991506143d4565b8492939416906040516352d1902d60e01b81528681600481865afa600091816127c2575b506126de5760405162461bcd60e51b815260048101889052602e60248201526000805160206155ed83398151915260448201526d6f6e206973206e6f74205555505360901b6064820152608490fd5b959394950361277d576126f0826143d4565b60008051602061556d833981519152600080a2825115801590612775575b61271a575b5050505080f35b60008061276b956040519561272e87613ef0565b602787526000805160206155cd83398151915286880152660819985a5b195960ca1b60408801525190845af4903d15612428573d6124028161417d565b5038808080612713565b50600061270e565b60405162461bcd60e51b815260048101849052602960248201526000805160206155ad8339815191526044820152681a58589b195555525160ba1b6064820152608490fd5b90918882813d83116127ea575b6127d98183613f0b565b81010312610363575051903861268f565b503d6127cf565b5034610363578060031936011261036357602060ff607654166113646040518092614238565b5034610363576060366003190112610363576020611a43604435602435600435614d0c565b50346103635780600319360112610363576020606c54604051908152f35b50346103635760403660031901126103635760043590818152602091607e8352604082205492838352607b8152604083209360108501548452607f82526040842090604051906128a982613e8c565b60018060a01b0392838154168352600184818301541686850152600282015490604085019182526003830154926060860193845260056004820154916080880192835201549160a087019283528515612de15760088c0192835490600560ff831661291381613ffb565b03612dc857600d8e015490516129289161455d565b42118015908180612dbb575b612da95790612d9f575b15612adf5750815115612acd576002915190808214612abe575b5014612a43575b505083607954169084600e8a015416905192823b15612a3f579161299e93918980946040519687958694859363099ea56b60e41b855260048501614c28565b03925af180156116ed57908691612a2b575b50505b606d546001600160401b038082169791908815612a17577f394027a5fa6e098a1191094d1719d6929b9abc535fcc0c8f448d6a4e756222769596979860001901169060018060401b03191617606d55600f429101555116916040516024358152a380f35b634e487b7160e01b88526011600452602488fd5b612a3490613ec2565b610a735784386129b0565b8880fd5b600660ff1982541617905584607954168560058b015416915191813b15612aba57918991612a89938360405180968195829463099ea56b60e41b84528b60048501614c28565b03925af18015612aaf579088911561295f57612aa490613ec2565b6116f857863861295f565b6040513d8a823e3d90fd5b8980fd5b835460ff191617835538612958565b604051630dd466dd60e41b8152600490fd5b9150919250602435828114600014612bbb57505060ff198254161790558360795416600485600e8b0154169287876078541660405193848092633629edcd60e11b82525afa918215612bb0578a92612b91575b5051823b15612aba57604051638969ab5360e01b8152948a94869493859387938593612b64938d1691600486016153ec565b03925af180156116ed57908691612b7d575b50506129b3565b612b8690613ec2565b610a73578438612b76565b612ba9919250883d8a11611fa957611f9b8183613f0b565b9038612b32565b6040513d8c823e3d90fd5b91949291600214612bd1575b50505050506129b3565b60069060ff1916179055846079541691600e8a019286845416915191813b15612d3657918a91612c19938360405180968195829463099ea56b60e41b84528a60048501614c28565b03925af18015611fb057908991612d87575b5050846079541690600460058b0192878454169089896078541660405194858092633629edcd60e11b82525afa928315612d7c578c93612d5d575b50606f548c52607f8a52600260408d200154871c91813b15612d5957918c91612cad93838c60405196879586948593638969ab5360e01b9b8c865216908c600486016153ec565b03925af18015612d4e57908b91612d3a575b50508680806079541694541694541694606f548b52607f8952600260408c200154901c833b15612d36578a94939291612d088692604051988997889687958652600486016153ec565b03925af180156116ed57908691612d22575b808080612bc7565b612d2b90613ec2565b610a73578438612d1a565b8a80fd5b612d4390613ec2565b612aba578938612cbf565b6040513d8d823e3d90fd5b8c80fd5b612d759193508a3d8c11611fa957611f9b8183613f0b565b9138612c66565b6040513d8e823e3d90fd5b612d9090613ec2565b612d9b578738612c2b565b8780fd5b506024351561293e565b604051631777988560e11b8152600490fd5b508a8a5116331415612934565b604051634b011ca960e11b815260048101899052602490fd5b60405163c1d17bef60e01b815260048101879052602490fd5b503461036357604036600319011261036357612e146140e2565b60243591612e206147fe565b60ff60765460081c166004811015613058576002811490811561304d575b5015612e7957506000805160206154cd83398151915282602093925b612e6684607154614824565b607155611d228460405193849384614a4e565b6078546040516336d8759760e21b8152602092916001600160a01b0390811691601291908581600481875afa908115611d5e57829187918791613030575b5060046040518094819363313ce56760e01b8352165afa859181613011575b50613006575b506040516316308e2560e11b815290861660048201528481602481865afa908115612ffb579087918591612fc8575b5091611ec9612f20611ecf93612f2695614824565b91614aa4565b92806040518093637817ee4f60e01b82528180612f47308b6004840161476d565b03915afa928315612fbc5792612f7c575b505092612f766000805160206154cd83398151915292602095614824565b92612e5a565b9080959250813d8311612fb5575b612f948183613f0b565b81010312610a22579251612f766000805160206154cd833981519152612f58565b503d612f8a565b604051903d90823e3d90fd5b809250868092503d8311612ff4575b612fe18183613f0b565b81010312610a2257518690611ec9612f0b565b503d612fd7565b6040513d86823e3d90fd5b60ff16915038612edc565b613029919250873d8911611f7c57611f6d8183613f0b565b9038612ed6565b6130479150823d8411611fa957611f9b8183613f0b565b38612eb7565b600191501438612e3e565b634e487b7160e01b82526021600452602482fd5b50613076366141ea565b9091613080614580565b6130886145a6565b61309182614787565b15610ac15782518301906020938481840312610f8757808501516001600160401b0391828211610a6f57019260a084820312610f59576040519160a0830183811082821117610f5d576040528685015183526130ef604086016145d1565b928781019384526060860151956040820196875261310f608082016145d1565b936060830194855260a082015190848211612d9b5761313492908b0191018a01614608565b6080820190815281511561352a5760ff607654169160038310156135165760018093146133e3575b50606f548652607f89526040862080546001600160a01b0398919089161515806133d6575b6133b45750613191606e546145c2565b9889606e55898852607b8b528860408920968b88558160058901998160018060a01b03199516858c5416178b555116600489019084825416179055511660068701918254161790555182850155600884018260ff1982541617905543600785015585600385015551918251600a85015588600b850193015180519182116133a05761321c8454613e52565b601f8111613359575b508990601f83116001146132f95792829391839289946132ee575b50501b916000199060031b1c19161790555b6010606f5491015582806079541691541690803b15610f595761328d918391604051808095819463240ff7c560e11b83528a6004840161471a565b039134905af18015610f8b576132da575b50507ffcf3b1aa65a464cef2889608f99e8b8c0f680a4be6c2acb9d961c536a5a9294b604060685481519081528486820152a160405191168152f35b6132e48291613ec2565b610363578061329e565b015192503880613240565b8488528a8820919083601f1981168a8e5b888383106133415750505010613328575b505050811b019055613252565b015160001960f88460031b161c1916905538808061331b565b8686015188559096019594850194879350018e61330a565b8488528a8820601f840160051c8101918c8510613396575b601f0160051c019084905b82811061338a575050613225565b6000815501849061337c565b9091508190613371565b634e487b7160e01b87526041600452602487fd5b6002604491015460405190632c1f8ef160e21b82523460048301526024820152fd5b5060028101543410613181565b85516001600160a01b0391906133fa908316614733565b818651161561350457604051630ae6240f60e11b8152908b82600481305afa918215611fb057918991849383926134c5575b5060249051604051958693849263068bcd8d60e01b84526004840152165afa918215612aaf5788926134a1575b50604081875116920151160361348f576134738751614c8c565b61347d573861315c565b604051630efd728560e21b8152600490fd5b60405163514e24c360e11b8152600490fd5b6134be9192503d808a833e6134b68183613f0b565b810190614683565b9038613459565b92509250508b81813d83116134fd575b6134df8183613f0b565b81010312612a3f57518281168103612a3f578291899190602461342c565b503d6134d5565b60405163165a825360e21b8152600490fd5b634e487b7160e01b87526021600452602487fd5b60405163273c8bc360e11b8152600490fd5b50346103635760203660031901126103635760406020916004358152607e83522054604051908152f35b5034610363578060031936011261036357608060725460735460745460755491604051938452602084015260408301526060820152f35b50346103635780600319360112610363576103f933614831565b5034610363576020366003190112610363576020611a43600435615315565b5034610363576060366003190112610363576135f06140e2565b6135f86140b6565b906136016140cc565b83549260ff8460081c161593848095613778575b8015613761575b156137055760ff1981166001178655846136f4575b5061366d6040519261364284613ed5565b600a8452694356537472617465677960b01b602085015261133660ff885460081c166120e8816144fd565b60018060a01b03918260018060a01b031994168460655416176065556040516136a681612122602082019460208652604083019061403e565b5190206066551690606a541617606a556136bd5780f35b61ff001981541681557f7f26b83ff96e1f2b6a682f133852f6798a09c465da95921460cefb3847402498602060405160018152a180f35b61ffff191661010117855538613631565b60405162461bcd60e51b815260206004820152602e60248201527f496e697469616c697a61626c653a20636f6e747261637420697320616c72656160448201526d191e481a5b9a5d1a585b1a5e995960921b6064820152608490fd5b50303b15801561361c5750600160ff82161461361c565b50600160ff821610613615565b50346103635780600319360112610363576065546040516001600160a01b039091168152602090f35b50346103635780600319360112610363576020606f54604051908152f35b50346103635780600319360112610363576020604051629896808152f35b50346103635780600319360112610363576020606e54604051908152f35b50346103635780600319360112610363576079546040516001600160a01b039091168152602090f35b5034610363576060366003190112610363576001600160401b0390600435828111610f875761386490369060040161410f565b506024918235908111610f875761387f9036906004016141cf565b6138876140cc565b50613890614580565b6138986145a6565b805115613b7657602081805181010312610f875760200151918215613b6457828252607b602052604082209260ff607654166003811015613b51576001146138de578280f35b80845403613b3c576001840191825460695490818111613b1b5750506008850194600160ff87541661390f81613ffb565b03613b045761391d83615315565b9184549261392a84614e1a565b1180613afb575b613ae95760018060a01b039286846065541692606854906040518095819363068bcd8d60e01b835260048301525afa918215610a2e579160409185938992613ac9575b5061398190606954614824565b606955015116956004820196868489541687549273eeeeeeeeeeeeeeeeeeeeeeeeeeeeeeeeeeeeeeee8114600014613a89575081809381925af115613a7c575b600460ff1982541617905581600581607954169201541690606f548652607f602052600260408720015491813b156116f857918691613a18938360405180968195829463099ea56b60e41b84528b60048501614c28565b03925af18015611d5e57613a57575b50613a4d9060008051602061560d83398151915294955416925460405193849384614c28565b0390a18038808280f35b9060008051602061560d83398151915294613a74613a4d93613ec2565b945090613a27565b63b12d13eb86526004601cfd5b8260109160209560449460145260345263a9059cbb60601b82525af13d156001885114171615613abc57856034526139c1565b6390b8ec1886526004601cfd5b613981919250613ae2903d808c833e6134b68183613f0b565b9190613974565b60405163199cf26160e31b8152600490fd5b50821515613931565b5090604051906344980d8f60e01b82526004820152fd5b6064939260405193632c31d85b60e11b855260048501528301526044820152fd5b6040519063c1d17bef60e01b82526004820152fd5b634e487b7160e01b845260216004528284fd5b60405163f881a10d60e01b8152600490fd5b604051630317df1360e61b8152600490fd5b50346103635736600319016101408112610f875760c01361036357604051613baf81613e8c565b6004356001600160a01b0381168103610f59578152613bcc6140b6565b602082015260443560408201526064356060820152608435608082015260a43560a0820152608060c319360112610f87576040516103f991613c0d82613ea7565b60c435825260e4356020830152610104356040830152610124356060830152613c3461535b565b61502a565b5034610363578060031936011261036357604090606f548152607f6020522060018060a01b036119688183541691600184015416926002810154906003810154600560048301549201549260405196879687614083565b50346103635760203660031901126103635760043563ffffffff60e01b8116809103610f875760209063f1801e6160e01b8114908115613cd6575b506040519015158152f35b6301ffc9a760e01b14905082613ccb565b5034610363576020366003190112610363576004358152607b60205260408120908154906001830154600284015493600381015460018060a01b0360048301541660018060a01b0360058401541660018060a01b036006850154169060078501549260ff60088701541694613d5e600a8801613f2e565b604051909b909960608b01906001600160401b0382118c831017613e3e57506040908152600c8901548b52600d89015460208c810191909152600e8a01546001600160a01b03168c830152600f8a01546010909a015482519d8e52908d019a909a528b015260608a0152608089015260a088015260c087015260e086015293948594613e069190613dee81613ffb565b6101008701526101e080610120880152860190614063565b835161014086015260208401516101608601526040909301516001600160a01b03166101808501526101a08401526101c08301520390f35b634e487b7160e01b81526041600452602490fd5b90600182811c92168015613e82575b6020831014613e6c57565b634e487b7160e01b600052602260045260246000fd5b91607f1691613e61565b60c081019081106001600160401b03821117610f5d57604052565b608081019081106001600160401b03821117610f5d57604052565b6001600160401b038111610f5d57604052565b604081019081106001600160401b03821117610f5d57604052565b606081019081106001600160401b03821117610f5d57604052565b601f909101601f19168101906001600160401b03821190821017610f5d57604052565b9060405191613f3c83613ed5565b8281548152600180920191604051928391600091805490613f5c82613e52565b80865291838116908115613fd25750600114613f89575b50505060209291613f85910384613f0b565b0152565b909493925060005260209081600020946000915b818310613fba57509394509192509082010181613f856020613f73565b86548884018501529586019587945091830191613f9d565b60ff191660208781019190915292151560051b860183019450859350613f85929150613f739050565b6007111561400557565b634e487b7160e01b600052602160045260246000fd5b60005b83811061402e5750506000910152565b818101518382015260200161401e565b906020916140578151809281855285808601910161401b565b601f01601f1916010190565b90604060206140809380518452015191816020820152019061403e565b90565b9260a09491979695929760c0850198600180881b0380921686521660208501526040840152606083015260808201520152565b602435906001600160a01b0382168203610a2257565b604435906001600160a01b0382168203610a2257565b600435906001600160a01b0382168203610a2257565b6001600160401b038111610f5d5760051b60200190565b81601f82011215610a2257803591614126836140f8565b926141346040519485613f0b565b808452602092838086019260051b820101928311610a22578301905b82821061415e575050505090565b81356001600160a01b0381168103610a22578152908301908301614150565b6001600160401b038111610f5d57601f01601f191660200190565b9291926141a48261417d565b916141b26040519384613f0b565b829481845281830111610a22578281602093846000960137010152565b9080601f83011215610a225781602061408093359101614198565b6040600319820112610a2257600435906001600160401b038211610a2257614214916004016141cf565b906024356001600160a01b0381168103610a225790565b9060048210156140055752565b9060038210156140055752565b805482101561425d5760005260206000200190600090565b634e487b7160e01b600052603260045260246000fd5b9181601f84011215610a22578235916001600160401b038311610a225760208381860195010111610a2257565b6142a8615414565b336001600160a01b03909116036142bb57565b606460405162461bcd60e51b815260206004820152602060248201527f4f776e61626c653a2063616c6c6572206973206e6f7420746865206f776e65726044820152fd5b603380546001600160a01b039283166001600160a01b03198216811790925590911660008051602061554d833981519152600080a3565b1561433d57565b60405162461bcd60e51b815260206004820152602c60248201526000805160206154ed83398151915260448201526b19195b1959d85d1958d85b1b60a21b6064820152608490fd5b1561438c57565b60405162461bcd60e51b815260206004820152602c60248201526000805160206154ed83398151915260448201526b6163746976652070726f787960a01b6064820152608490fd5b803b156144095760008051602061550d83398151915280546001600160a01b0319166001600160a01b03909216919091179055565b60405162461bcd60e51b815260206004820152602d60248201527f455243313936373a206e657720696d706c656d656e746174696f6e206973206e60448201526c1bdd08184818dbdb9d1c9858dd609a1b6064820152608490fd5b919290156144c65750815115614478575090565b3b156144815790565b60405162461bcd60e51b815260206004820152601d60248201527f416464726573733a2063616c6c20746f206e6f6e2d636f6e74726163740000006044820152606490fd5b8251909150156144d95750805190602001fd5b60405162461bcd60e51b8152602060048201529081906111a390602483019061403e565b1561450457565b60405162461bcd60e51b815260206004820152602b60248201527f496e697469616c697a61626c653a20636f6e7472616374206973206e6f74206960448201526a6e697469616c697a696e6760a81b6064820152608490fd5b9190820180921161456a57565b634e487b7160e01b600052601160045260246000fd5b6065546001600160a01b0316330361459457565b60405163075fd2b160e01b8152600490fd5b606854156145b057565b604051630f68fe6360e21b8152600490fd5b600019811461456a5760010190565b51906001600160a01b0382168203610a2257565b606080918051845260208101516020850152604081015160408501520151910152565b9190604083820312610a225760405161462081613ed5565b83518152602084015190938491906001600160401b038211610a2257019082601f83011215610a22578151916146558361417d565b936146636040519586613f0b565b83855260208483010111610a2257602092613f859184808701910161401b565b90602082820312610a225781516001600160401b0392838211610a22570160c081830312610a2257604051926146b884613e8c565b8151845260208201516001600160a01b0381168103610a225760208501526146e2604083016145d1565b60408501526060820151908111610a225760a092614701918301614608565b606084015260808101516080840152015160a082015290565b9081526001600160a01b03909116602082015260400190565b6001600160a01b03161561474357565b6040516303988b8160e61b8152600490fd5b90816020910312610a2257518015158103610a225790565b6001600160a01b0391821681529116602082015260400190565b607a546001600160a01b031680156147f7576147bd9160209160405180809581946302154c3d60e51b835230906004840161476d565b03915afa9081156147eb576000916147d3575090565b614080915060203d8111610aaf57610aa18183613f0b565b6040513d6000823e3d90fd5b5050600190565b6078546001600160a01b0316330361481257565b6040516357848b5160e11b8152600490fd5b9190820391821161456a57565b60785460408051637817ee4f60e01b81526020949391926000926001600160a01b0392909183169087818061486a30876004840161476d565b0381855afa8015614a44578590614a15575b6148899150607154614824565b607155803b15610a6f5783855180926322bcf99960e01b82528183816148b330896004840161476d565b03925af18015614a0b576149f8575b5016808252607d8552828220948351808783829954938481520190865283862092865b858282106149e2575050506148fc92500387613f0b565b825b86518110156149b257806149156149359289614c49565b51808652607b845286862061492982614c5d565b61493a575b50506145c2565b6148fe565b60008051602061552d8339815191529160a0918760005260098101875260038a6000208a8154915561498c6002840191614975818454614824565b83556070614984828254614824565b905584614fa5565b54910154908a519289845288840152898b84015260608301526080820152a1388061492e565b50929091507f1468da654b37bb3631011c1917d02e0db437d519918858d40b38b5e980ca033b93945051908152a1565b855484526001958601958c9550930192016148e5565b614a0490939193613ec2565b91386148c2565b85513d86823e3d90fd5b508781813d8311614a3d575b614a2b8183613f0b565b81010312610a7357614889905161487c565b503d614a21565b86513d87823e3d90fd5b604091949392606082019560018060a01b0316825260208201520152565b90816020910312610a2257516001600160a01b0381168103610a225790565b90816020910312610a22575160ff81168103610a225790565b604d811161456a57600a0a90565b8181029291811591840414171561456a57565b8115614acf570490565b634e487b7160e01b600052601260045260246000fd5b8015614c2257614bb0816000908360801c80614c16575b508060401c80614c09575b508060201c80614bfc575b508060101c80614bef575b508060081c80614be2575b508060041c80614bd5575b508060021c80614bc8575b50600191828092811c614bc1575b1c1b614b588185614ac5565b01811c614b658185614ac5565b01811c614b728185614ac5565b01811c614b7f8185614ac5565b01811c614b8c8185614ac5565b01811c614b998185614ac5565b01811c614ba68185614ac5565b01901c8092614ac5565b80821015614bbc575090565b905090565b0181614b4c565b6002915091019038614b3e565b6004915091019038614b33565b6008915091019038614b28565b6010915091019038614b1d565b6020915091019038614b12565b6040915091019038614b07565b91505060809038614afc565b50600090565b9081526001600160a01b039091166020820152604081019190915260600190565b805182101561425d5760209160051b010190565b600052607b6020526040600020805415159081614c78575090565b600501546001600160a01b03161515919050565b614c9b60725460695490614ab2565b629896809182810292818404149015171561456a57111590565b9190916000838201938412911290801582169115161761456a57565b614cdb8282614cb5565b9160008312614ce957505090565b9160649260405192631dde38a160e11b8452600484015260248301526044820152fd5b9091607454906298968093848360801b0490600160801b9182811015614dd6578583965b614d95575050614d409085614ab2565b938583029280840487149015171561456a57810390811161456a57614d6491614ab2565b90830392831161456a57614d8192614d7b91614ac5565b9061455d565b6001607f1b810190811061456a5760801c90565b600191818316614db55780614da991614eee565b911c90815b9091614d30565b809250614dc29197614eee565b95600019810190811161456a579081614dae565b60405162461bcd60e51b815260206004820152601c60248201527b0bec240e6d0deead8c840c4ca40d8cae6e640e8d0c2dc4064bc6264760231b6044820152606490fd5b6069548015614edc57614e2c82614c8c565b61347d57607254604081901b92600160401b929180159085048414171561456a578060401b92818404149015171561456a57614e6e614e7a91614e9593614ac5565b62989680809404614824565b614e8c8360735460801b049180614ab2565b60401c90614ac5565b8181029080820483149015171561456a57607454820391821161456a57614ec891614ebf91614ac5565b60715490614ab2565b60401c607554808211600014614bbc575090565b60405163ed4421ad60e01b8152600490fd5b90600160801b808311614f4f57811015614f0b57614d8191614ab2565b60405162461bcd60e51b815260206004820152601c60248201527b0bec440e6d0deead8c840c4ca40d8cae6e640e8d0c2dc4064bc6264760231b6044820152606490fd5b60405162461bcd60e51b815260206004820152602860248201527f5f612073686f756c64206265206c657373207468616e206f7220657175616c206044820152670e8de4064bc6264760c31b6064820152608490fd5b90614fb09082614fd7565b9091821580614fcf575b614fca5760039160078201550155565b505050565b508115614fba565b439160078201549183831161501457838314615008576003614ffc6150059486614824565b91015490614d0c565b91565b50505050600090600090565b634e487b7160e01b600052600160045260246000fd5b60208181018051919290916001600160a01b039060009082168015159081615308575b81615266575b5061509b575b505050508160809160008051602061548d83398151915293516072558101516073556040810151607455606081015160755561509860405180926145e5565ba1565b606f548152607f85526040908181208360018201541690848088511680931491821592615254575b505061518b575b509360056080969460008051602061558d833981519152948460e09560008051602061548d8339815191529b99615102606f546145c2565b80606f558152607f8a522091808451169560018060a01b0319918783865416178555600185019151168092825416179055818401519182600285015560608501519384600382015560a08d8701519687600484015501519687910155606f549681519788528a88015286015260608501528884015260a083015260c0820152a191819338615059565b8385511690813b15610f59578291602483928651948593849263446adb9960e11b845260048401525af1801561524a579460008051602061558d833981519152948460e09560008051602061548d8339815191529b999560059560809c9a61523b575b507fdc20f5c479493aac0cf803ca3b82ebc1964faa557450a37ea0a8121b0e98454f60608b86885116878b51169086519230845283015285820152a195999b5050945094509496506150ca565b61524490613ec2565b386151ee565b83513d84823e3d90fd5b909150541684865116141584386150c3565b606f548352607f87526040832060018101548516909114801592506152f6575b81156152e3575b81156152d0575b81156152bd575b81156152a9575b5038615053565b9050600560a08501519101541415386152a2565b608085015160048201541415915061529b565b6060850151600382015414159150615294565b604085015160028201541415915061528d565b90508284511683825416141590615286565b845184161515915061504d565b80600052607b6020526040600020908082540361534357508061533e6002600393015482614fa5565b015490565b6024906040519063c1d17bef60e01b82526004820152fd5b607854604051633629edcd60e11b81526001600160a01b03916020908290600490829086165afa9081156147eb576000916153ad575b5016330361539b57565b604051637430763f60e11b8152600490fd5b6153c5915060203d8111611fa957611f9b8183613f0b565b38615391565b908060209392818452848401376000828201840152601f01601f1916010190565b9081526001600160a01b03918216602082015291166040820152606081019190915260800190565b6033546001600160a01b0316803b6154295790565b604051638da5cb5b60e01b8152602081600481855afa60009181615451575b50614bbc575090565b90916020823d8211615484575b8161546b60209383613f0b565b81010312610363575061547d906145d1565b9038615448565b3d915061545e56feec9315d9f4291207475c061feff1e5d7105750ac0ee9534af9444b4ff1dab9bc4910fdfa16fed3260ed0e7147f7cc6da11a60208b5b9406d12a635614ffd914370b752f3fadb6ac131c0ece847fcbb6994ec56ed6411595710fd9b29c6ac6cc146756e6374696f6e206d7573742062652063616c6c6564207468726f75676820360894a13ba1a3210667c828492db98dca3e2076cc3735a920a3ca505d382bbc0227f642ddcf2042ceaeafadb9d540f432072c00cd4862881667168dcc14710f8be0079c531659141344cd1fd0a4f28419497f9722a3daafe3b4186f6b6457e0bc7cd75a20ee27fd9adebab32041f755214dbc6bffa90cc0225b39da2e5c2d3be677e2878aaaaf6a65ecf50f849ad58100c49f6dfd57d055ba4bddd63a175d5345524331393637557067726164653a20756e737570706f727465642070726f78416464726573733a206c6f772d6c6576656c2064656c65676174652063616c6c45524331393637557067726164653a206e657720696d706c656d656e74617469a7932e9c92f31e1ed56b29d00bbe669a97484dc24de28dd9c8c0429df7f35847a26469706673582212205cbf43f13373663eb718faae944826c67ba35ea36848db78ce5a3e42183d84de64736f6c63430008130033","linkReferences":{}},"methodIdentifiers":{"D()":"0f529ba2","DISPUTE_COOLDOWN_SEC()":"f5be3f7c","MAX_STAKED_PROPOSALS()":"406244d8","NATIVE()":"a0cf0aea","RULING_OPTIONS()":"626c47e8","activatePoints()":"814516ad","allocate(bytes,address)":"ef2920fc","arbitrableConfigs(uint256)":"41bb7605","calculateConviction(uint256,uint256,uint256)":"346db8cb","calculateThreshold(uint256)":"59a5db8b","canExecuteProposal(uint256)":"824ea8ed","cancelProposal(uint256)":"e0a8f6f5","cloneNonce()":"33960459","collateralVault()":"0bece79c","currentArbitrableConfigVersion()":"125fd1d9","cvParams()":"2506b870","deactivatePoints()":"1ddf1e23","deactivatePoints(address)":"6453d9c4","decreasePower(address,uint256)":"2ed04b2b","disputeCount()":"a28889e1","disputeIdToProposalId(uint256)":"255ffb38","disputeProposal(uint256,string,bytes)":"b41596ec","distribute(address[],bytes,address)":"0a6f0ee9","getAllo()":"15cc481e","getArbitrableConfig()":"059351cd","getDecay()":"9a1c157c","getMaxAmount()":"0ba95909","getMaxConviction(uint256)":"950559d7","getMetadata(uint256)":"a574cea4","getPayouts(address[],bytes[])":"b2b878d0","getPointSystem()":"c3292171","getPoolAmount()":"4ab4ba42","getPoolId()":"38fff2d0","getProposal(uint256)":"c7f758a8","getProposalStakedAmount(uint256)":"dc96ff2d","getProposalVoterStake(uint256,address)":"e0dd2c38","getRecipientStatus(address)":"eb11af93","getStrategyId()":"42fda9c7","getTotalVoterStakePct(address)":"bcc5b93b","increasePoolAmount(uint256)":"f5b0dfb7","increasePower(address,uint256)":"782aadff","init(address,address,address)":"184b9559","init(address,string,address)":"60d5dedc","initialize(address)":"c4d66de8","initialize(uint256,bytes)":"edd146cc","isPoolActive()":"df868ed3","isValidAllocator(address)":"4d31d087","owner()":"8da5cb5b","pointConfig()":"a47ff7e5","pointSystem()":"2dbd6fdd","proposalCounter()":"0c0512e9","proposalType()":"351d9f96","proposals(uint256)":"013cf08b","proxiableUUID()":"52d1902d","registerRecipient(bytes,address)":"2bbe0cae","registryCommunity()":"6003e414","renounceOwnership()":"715018a6","rule(uint256,uint256)":"311a6c56","setCollateralVaultTemplate(address)":"b0d3713a","setPoolActive(bool)":"b5f620ce","setPoolParams((address,address,uint256,uint256,uint256,uint256),(uint256,uint256,uint256,uint256))":"062f9ece","setSybilScorer(address)":"ac1ed7b9","supportsInterface(bytes4)":"01ffc9a7","sybilScorer()":"b6c61f31","totalEffectiveActivePoints()":"d1e36232","totalPointsActivated()":"aba9ffee","totalStaked()":"817b1cd2","totalVoterStakePct(address)":"5db64b99","transferOwnership(address)":"f2fde38b","updateProposalConviction(uint256)":"1aa91a9e","upgradeTo(address)":"3659cfe6","upgradeToAndCall(address,bytes)":"4f1ef286","voterStakedProposals(address,uint256)":"868c57b8"},"storageLayout":{"storage":[{"astId":52287,"contract":"pkg/contracts/src/CVStrategy/CVStrategyV0_0.sol:CVStrategyV0_0","label":"_initialized","offset":0,"slot":"0","type":"t_uint8"},{"astId":52290,"contract":"pkg/contracts/src/CVStrategy/CVStrategyV0_0.sol:CVStrategyV0_0","label":"_initializing","offset":1,"slot":"0","type":"t_bool"},{"astId":52992,"contract":"pkg/contracts/src/CVStrategy/CVStrategyV0_0.sol:CVStrategyV0_0","label":"__gap","offset":0,"slot":"1","type":"t_array(t_uint256)50_storage"},{"astId":52079,"contract":"pkg/contracts/src/CVStrategy/CVStrategyV0_0.sol:CVStrategyV0_0","label":"_owner","offset":0,"slot":"51","type":"t_address"},{"astId":52199,"contract":"pkg/contracts/src/CVStrategy/CVStrategyV0_0.sol:CVStrategyV0_0","label":"__gap","offset":0,"slot":"52","type":"t_array(t_uint256)49_storage"},{"astId":65833,"contract":"pkg/contracts/src/CVStrategy/CVStrategyV0_0.sol:CVStrategyV0_0","label":"allo","offset":0,"slot":"101","type":"t_contract(IAllo)2610"},{"astId":65835,"contract":"pkg/contracts/src/CVStrategy/CVStrategyV0_0.sol:CVStrategyV0_0","label":"strategyId","offset":0,"slot":"102","type":"t_bytes32"},{"astId":65837,"contract":"pkg/contracts/src/CVStrategy/CVStrategyV0_0.sol:CVStrategyV0_0","label":"poolActive","offset":0,"slot":"103","type":"t_bool"},{"astId":65839,"contract":"pkg/contracts/src/CVStrategy/CVStrategyV0_0.sol:CVStrategyV0_0","label":"poolId","offset":0,"slot":"104","type":"t_uint256"},{"astId":65841,"contract":"pkg/contracts/src/CVStrategy/CVStrategyV0_0.sol:CVStrategyV0_0","label":"poolAmount","offset":0,"slot":"105","type":"t_uint256"},{"astId":66865,"contract":"pkg/contracts/src/CVStrategy/CVStrategyV0_0.sol:CVStrategyV0_0","label":"collateralVaultTemplate","offset":0,"slot":"106","type":"t_address"},{"astId":66867,"contract":"pkg/contracts/src/CVStrategy/CVStrategyV0_0.sol:CVStrategyV0_0","label":"surpressStateMutabilityWarning","offset":0,"slot":"107","type":"t_uint256"},{"astId":66869,"contract":"pkg/contracts/src/CVStrategy/CVStrategyV0_0.sol:CVStrategyV0_0","label":"cloneNonce","offset":0,"slot":"108","type":"t_uint256"},{"astId":66872,"contract":"pkg/contracts/src/CVStrategy/CVStrategyV0_0.sol:CVStrategyV0_0","label":"disputeCount","offset":0,"slot":"109","type":"t_uint64"},{"astId":66875,"contract":"pkg/contracts/src/CVStrategy/CVStrategyV0_0.sol:CVStrategyV0_0","label":"proposalCounter","offset":0,"slot":"110","type":"t_uint256"},{"astId":66878,"contract":"pkg/contracts/src/CVStrategy/CVStrategyV0_0.sol:CVStrategyV0_0","label":"currentArbitrableConfigVersion","offset":0,"slot":"111","type":"t_uint256"},{"astId":66880,"contract":"pkg/contracts/src/CVStrategy/CVStrategyV0_0.sol:CVStrategyV0_0","label":"totalStaked","offset":0,"slot":"112","type":"t_uint256"},{"astId":66882,"contract":"pkg/contracts/src/CVStrategy/CVStrategyV0_0.sol:CVStrategyV0_0","label":"totalPointsActivated","offset":0,"slot":"113","type":"t_uint256"},{"astId":66885,"contract":"pkg/contracts/src/CVStrategy/CVStrategyV0_0.sol:CVStrategyV0_0","label":"cvParams","offset":0,"slot":"114","type":"t_struct(CVParams)66595_storage"},{"astId":66888,"contract":"pkg/contracts/src/CVStrategy/CVStrategyV0_0.sol:CVStrategyV0_0","label":"proposalType","offset":0,"slot":"118","type":"t_enum(ProposalType)66498"},{"astId":66891,"contract":"pkg/contracts/src/CVStrategy/CVStrategyV0_0.sol:CVStrategyV0_0","label":"pointSystem","offset":1,"slot":"118","type":"t_enum(PointSystem)66503"},{"astId":66894,"contract":"pkg/contracts/src/CVStrategy/CVStrategyV0_0.sol:CVStrategyV0_0","label":"pointConfig","offset":0,"slot":"119","type":"t_struct(PointSystemConfig)66572_storage"},{"astId":66897,"contract":"pkg/contracts/src/CVStrategy/CVStrategyV0_0.sol:CVStrategyV0_0","label":"registryCommunity","offset":0,"slot":"120","type":"t_contract(RegistryCommunityV0_0)73108"},{"astId":66900,"contract":"pkg/contracts/src/CVStrategy/CVStrategyV0_0.sol:CVStrategyV0_0","label":"collateralVault","offset":0,"slot":"121","type":"t_contract(ICollateralVault)74095"},{"astId":66903,"contract":"pkg/contracts/src/CVStrategy/CVStrategyV0_0.sol:CVStrategyV0_0","label":"sybilScorer","offset":0,"slot":"122","type":"t_contract(ISybilScorer)70535"},{"astId":66908,"contract":"pkg/contracts/src/CVStrategy/CVStrategyV0_0.sol:CVStrategyV0_0","label":"proposals","offset":0,"slot":"123","type":"t_mapping(t_uint256,t_struct(Proposal)66564_storage)"},{"astId":66912,"contract":"pkg/contracts/src/CVStrategy/CVStrategyV0_0.sol:CVStrategyV0_0","label":"totalVoterStakePct","offset":0,"slot":"124","type":"t_mapping(t_address,t_uint256)"},{"astId":66917,"contract":"pkg/contracts/src/CVStrategy/CVStrategyV0_0.sol:CVStrategyV0_0","label":"voterStakedProposals","offset":0,"slot":"125","type":"t_mapping(t_address,t_array(t_uint256)dyn_storage)"},{"astId":66921,"contract":"pkg/contracts/src/CVStrategy/CVStrategyV0_0.sol:CVStrategyV0_0","label":"disputeIdToProposalId","offset":0,"slot":"126","type":"t_mapping(t_uint256,t_uint256)"},{"astId":66926,"contract":"pkg/contracts/src/CVStrategy/CVStrategyV0_0.sol:CVStrategyV0_0","label":"arbitrableConfigs","offset":0,"slot":"127","type":"t_mapping(t_uint256,t_struct(ArbitrableConfig)66586_storage)"},{"astId":70166,"contract":"pkg/contracts/src/CVStrategy/CVStrategyV0_0.sol:CVStrategyV0_0","label":"__gap","offset":0,"slot":"128","type":"t_array(t_uint256)50_storage"}],"types":{"t_address":{"encoding":"inplace","label":"address","numberOfBytes":"20"},"t_array(t_uint256)49_storage":{"encoding":"inplace","label":"uint256[49]","numberOfBytes":"1568","base":"t_uint256"},"t_array(t_uint256)50_storage":{"encoding":"inplace","label":"uint256[50]","numberOfBytes":"1600","base":"t_uint256"},"t_array(t_uint256)dyn_storage":{"encoding":"dynamic_array","label":"uint256[]","numberOfBytes":"32","base":"t_uint256"},"t_bool":{"encoding":"inplace","label":"bool","numberOfBytes":"1"},"t_bytes32":{"encoding":"inplace","label":"bytes32","numberOfBytes":"32"},"t_contract(IAllo)2610":{"encoding":"inplace","label":"contract IAllo","numberOfBytes":"20"},"t_contract(IArbitrator)74062":{"encoding":"inplace","label":"contract IArbitrator","numberOfBytes":"20"},"t_contract(ICollateralVault)74095":{"encoding":"inplace","label":"contract ICollateralVault","numberOfBytes":"20"},"t_contract(ISybilScorer)70535":{"encoding":"inplace","label":"contract ISybilScorer","numberOfBytes":"20"},"t_contract(RegistryCommunityV0_0)73108":{"encoding":"inplace","label":"contract RegistryCommunityV0_0","numberOfBytes":"20"},"t_enum(PointSystem)66503":{"encoding":"inplace","label":"enum StrategyStruct.PointSystem","numberOfBytes":"1"},"t_enum(ProposalStatus)66523":{"encoding":"inplace","label":"enum StrategyStruct.ProposalStatus","numberOfBytes":"1"},"t_enum(ProposalType)66498":{"encoding":"inplace","label":"enum StrategyStruct.ProposalType","numberOfBytes":"1"},"t_mapping(t_address,t_array(t_uint256)dyn_storage)":{"encoding":"mapping","key":"t_address","label":"mapping(address => uint256[])","numberOfBytes":"32","value":"t_array(t_uint256)dyn_storage"},"t_mapping(t_address,t_uint256)":{"encoding":"mapping","key":"t_address","label":"mapping(address => uint256)","numberOfBytes":"32","value":"t_uint256"},"t_mapping(t_uint256,t_struct(ArbitrableConfig)66586_storage)":{"encoding":"mapping","key":"t_uint256","label":"mapping(uint256 => struct StrategyStruct.ArbitrableConfig)","numberOfBytes":"32","value":"t_struct(ArbitrableConfig)66586_storage"},"t_mapping(t_uint256,t_struct(Proposal)66564_storage)":{"encoding":"mapping","key":"t_uint256","label":"mapping(uint256 => struct StrategyStruct.Proposal)","numberOfBytes":"32","value":"t_struct(Proposal)66564_storage"},"t_mapping(t_uint256,t_uint256)":{"encoding":"mapping","key":"t_uint256","label":"mapping(uint256 => uint256)","numberOfBytes":"32","value":"t_uint256"},"t_string_storage":{"encoding":"bytes","label":"string","numberOfBytes":"32"},"t_struct(ArbitrableConfig)66586_storage":{"encoding":"inplace","label":"struct StrategyStruct.ArbitrableConfig","numberOfBytes":"192","members":[{"astId":66575,"contract":"pkg/contracts/src/CVStrategy/CVStrategyV0_0.sol:CVStrategyV0_0","label":"arbitrator","offset":0,"slot":"0","type":"t_contract(IArbitrator)74062"},{"astId":66577,"contract":"pkg/contracts/src/CVStrategy/CVStrategyV0_0.sol:CVStrategyV0_0","label":"tribunalSafe","offset":0,"slot":"1","type":"t_address"},{"astId":66579,"contract":"pkg/contracts/src/CVStrategy/CVStrategyV0_0.sol:CVStrategyV0_0","label":"submitterCollateralAmount","offset":0,"slot":"2","type":"t_uint256"},{"astId":66581,"contract":"pkg/contracts/src/CVStrategy/CVStrategyV0_0.sol:CVStrategyV0_0","label":"challengerCollateralAmount","offset":0,"slot":"3","type":"t_uint256"},{"astId":66583,"contract":"pkg/contracts/src/CVStrategy/CVStrategyV0_0.sol:CVStrategyV0_0","label":"defaultRuling","offset":0,"slot":"4","type":"t_uint256"},{"astId":66585,"contract":"pkg/contracts/src/CVStrategy/CVStrategyV0_0.sol:CVStrategyV0_0","label":"defaultRulingTimeout","offset":0,"slot":"5","type":"t_uint256"}]},"t_struct(CVParams)66595_storage":{"encoding":"inplace","label":"struct StrategyStruct.CVParams","numberOfBytes":"128","members":[{"astId":66588,"contract":"pkg/contracts/src/CVStrategy/CVStrategyV0_0.sol:CVStrategyV0_0","label":"maxRatio","offset":0,"slot":"0","type":"t_uint256"},{"astId":66590,"contract":"pkg/contracts/src/CVStrategy/CVStrategyV0_0.sol:CVStrategyV0_0","label":"weight","offset":0,"slot":"1","type":"t_uint256"},{"astId":66592,"contract":"pkg/contracts/src/CVStrategy/CVStrategyV0_0.sol:CVStrategyV0_0","label":"decay","offset":0,"slot":"2","type":"t_uint256"},{"astId":66594,"contract":"pkg/contracts/src/CVStrategy/CVStrategyV0_0.sol:CVStrategyV0_0","label":"minThresholdPoints","offset":0,"slot":"3","type":"t_uint256"}]},"t_struct(Metadata)3098_storage":{"encoding":"inplace","label":"struct Metadata","numberOfBytes":"64","members":[{"astId":3094,"contract":"pkg/contracts/src/CVStrategy/CVStrategyV0_0.sol:CVStrategyV0_0","label":"protocol","offset":0,"slot":"0","type":"t_uint256"},{"astId":3097,"contract":"pkg/contracts/src/CVStrategy/CVStrategyV0_0.sol:CVStrategyV0_0","label":"pointer","offset":0,"slot":"1","type":"t_string_storage"}]},"t_struct(PointSystemConfig)66572_storage":{"encoding":"inplace","label":"struct StrategyStruct.PointSystemConfig","numberOfBytes":"32","members":[{"astId":66571,"contract":"pkg/contracts/src/CVStrategy/CVStrategyV0_0.sol:CVStrategyV0_0","label":"maxAmount","offset":0,"slot":"0","type":"t_uint256"}]},"t_struct(Proposal)66564_storage":{"encoding":"inplace","label":"struct StrategyStruct.Proposal","numberOfBytes":"544","members":[{"astId":66532,"contract":"pkg/contracts/src/CVStrategy/CVStrategyV0_0.sol:CVStrategyV0_0","label":"proposalId","offset":0,"slot":"0","type":"t_uint256"},{"astId":66534,"contract":"pkg/contracts/src/CVStrategy/CVStrategyV0_0.sol:CVStrategyV0_0","label":"requestedAmount","offset":0,"slot":"1","type":"t_uint256"},{"astId":66536,"contract":"pkg/contracts/src/CVStrategy/CVStrategyV0_0.sol:CVStrategyV0_0","label":"stakedAmount","offset":0,"slot":"2","type":"t_uint256"},{"astId":66538,"contract":"pkg/contracts/src/CVStrategy/CVStrategyV0_0.sol:CVStrategyV0_0","label":"convictionLast","offset":0,"slot":"3","type":"t_uint256"},{"astId":66540,"contract":"pkg/contracts/src/CVStrategy/CVStrategyV0_0.sol:CVStrategyV0_0","label":"beneficiary","offset":0,"slot":"4","type":"t_address"},{"astId":66542,"contract":"pkg/contracts/src/CVStrategy/CVStrategyV0_0.sol:CVStrategyV0_0","label":"submitter","offset":0,"slot":"5","type":"t_address"},{"astId":66544,"contract":"pkg/contracts/src/CVStrategy/CVStrategyV0_0.sol:CVStrategyV0_0","label":"requestedToken","offset":0,"slot":"6","type":"t_address"},{"astId":66546,"contract":"pkg/contracts/src/CVStrategy/CVStrategyV0_0.sol:CVStrategyV0_0","label":"blockLast","offset":0,"slot":"7","type":"t_uint256"},{"astId":66549,"contract":"pkg/contracts/src/CVStrategy/CVStrategyV0_0.sol:CVStrategyV0_0","label":"proposalStatus","offset":0,"slot":"8","type":"t_enum(ProposalStatus)66523"},{"astId":66553,"contract":"pkg/contracts/src/CVStrategy/CVStrategyV0_0.sol:CVStrategyV0_0","label":"voterStakedPoints","offset":0,"slot":"9","type":"t_mapping(t_address,t_uint256)"},{"astId":66556,"contract":"pkg/contracts/src/CVStrategy/CVStrategyV0_0.sol:CVStrategyV0_0","label":"metadata","offset":0,"slot":"10","type":"t_struct(Metadata)3098_storage"},{"astId":66559,"contract":"pkg/contracts/src/CVStrategy/CVStrategyV0_0.sol:CVStrategyV0_0","label":"disputeInfo","offset":0,"slot":"12","type":"t_struct(ProposalDisputeInfo)66530_storage"},{"astId":66561,"contract":"pkg/contracts/src/CVStrategy/CVStrategyV0_0.sol:CVStrategyV0_0","label":"lastDisputeCompletion","offset":0,"slot":"15","type":"t_uint256"},{"astId":66563,"contract":"pkg/contracts/src/CVStrategy/CVStrategyV0_0.sol:CVStrategyV0_0","label":"arbitrableConfigId","offset":0,"slot":"16","type":"t_uint256"}]},"t_struct(ProposalDisputeInfo)66530_storage":{"encoding":"inplace","label":"struct StrategyStruct.ProposalDisputeInfo","numberOfBytes":"96","members":[{"astId":66525,"contract":"pkg/contracts/src/CVStrategy/CVStrategyV0_0.sol:CVStrategyV0_0","label":"disputeId","offset":0,"slot":"0","type":"t_uint256"},{"astId":66527,"contract":"pkg/contracts/src/CVStrategy/CVStrategyV0_0.sol:CVStrategyV0_0","label":"disputeTimestamp","offset":0,"slot":"1","type":"t_uint256"},{"astId":66529,"contract":"pkg/contracts/src/CVStrategy/CVStrategyV0_0.sol:CVStrategyV0_0","label":"challenger","offset":0,"slot":"2","type":"t_address"}]},"t_uint256":{"encoding":"inplace","label":"uint256","numberOfBytes":"32"},"t_uint64":{"encoding":"inplace","label":"uint64","numberOfBytes":"8"},"t_uint8":{"encoding":"inplace","label":"uint8","numberOfBytes":"1"}}},"id":95}