{"abi":[{"type":"fallback","stateMutability":"payable"},{"type":"receive","stateMutability":"payable"},{"type":"function","name":"D","inputs":[],"outputs":[{"name":"","type":"uint256","internalType":"uint256"}],"stateMutability":"view"},{"type":"function","name":"DISPUTE_COOLDOWN_SEC","inputs":[],"outputs":[{"name":"","type":"uint256","internalType":"uint256"}],"stateMutability":"view"},{"type":"function","name":"MAX_STAKED_PROPOSALS","inputs":[],"outputs":[{"name":"","type":"uint256","internalType":"uint256"}],"stateMutability":"view"},{"type":"function","name":"NATIVE","inputs":[],"outputs":[{"name":"","type":"address","internalType":"address"}],"stateMutability":"view"},{"type":"function","name":"RULING_OPTIONS","inputs":[],"outputs":[{"name":"","type":"uint256","internalType":"uint256"}],"stateMutability":"view"},{"type":"function","name":"activatePoints","inputs":[],"outputs":[],"stateMutability":"nonpayable"},{"type":"function","name":"allocate","inputs":[{"name":"_data","type":"bytes","internalType":"bytes"},{"name":"_sender","type":"address","internalType":"address"}],"outputs":[],"stateMutability":"payable"},{"type":"function","name":"arbitrableConfig","inputs":[],"outputs":[{"name":"arbitrator","type":"address","internalType":"contract IArbitrator"},{"name":"tribunalSafe","type":"address","internalType":"address"},{"name":"submitterCollateralAmount","type":"uint256","internalType":"uint256"},{"name":"challengerCollateralAmount","type":"uint256","internalType":"uint256"},{"name":"defaultRuling","type":"uint256","internalType":"uint256"},{"name":"defaultRulingTimeout","type":"uint256","internalType":"uint256"}],"stateMutability":"view"},{"type":"function","name":"calculateConviction","inputs":[{"name":"_timePassed","type":"uint256","internalType":"uint256"},{"name":"_lastConv","type":"uint256","internalType":"uint256"},{"name":"_oldAmount","type":"uint256","internalType":"uint256"}],"outputs":[{"name":"","type":"uint256","internalType":"uint256"}],"stateMutability":"view"},{"type":"function","name":"calculateThreshold","inputs":[{"name":"_requestedAmount","type":"uint256","internalType":"uint256"}],"outputs":[{"name":"_threshold","type":"uint256","internalType":"uint256"}],"stateMutability":"view"},{"type":"function","name":"canExecuteProposal","inputs":[{"name":"proposalId","type":"uint256","internalType":"uint256"}],"outputs":[{"name":"canBeExecuted","type":"bool","internalType":"bool"}],"stateMutability":"view"},{"type":"function","name":"cloneNonce","inputs":[],"outputs":[{"name":"","type":"uint256","internalType":"uint256"}],"stateMutability":"view"},{"type":"function","name":"collateralVault","inputs":[],"outputs":[{"name":"","type":"address","internalType":"contract ICollateralVault"}],"stateMutability":"view"},{"type":"function","name":"cvParams","inputs":[],"outputs":[{"name":"maxRatio","type":"uint256","internalType":"uint256"},{"name":"weight","type":"uint256","internalType":"uint256"},{"name":"decay","type":"uint256","internalType":"uint256"},{"name":"minThresholdPoints","type":"uint256","internalType":"uint256"}],"stateMutability":"view"},{"type":"function","name":"deactivatePoints","inputs":[],"outputs":[],"stateMutability":"nonpayable"},{"type":"function","name":"deactivatePoints","inputs":[{"name":"_member","type":"address","internalType":"address"}],"outputs":[],"stateMutability":"nonpayable"},{"type":"function","name":"decreasePower","inputs":[{"name":"_member","type":"address","internalType":"address"},{"name":"_amountToUnstake","type":"uint256","internalType":"uint256"}],"outputs":[{"name":"","type":"uint256","internalType":"uint256"}],"stateMutability":"nonpayable"},{"type":"function","name":"disputeCount","inputs":[],"outputs":[{"name":"","type":"uint64","internalType":"uint64"}],"stateMutability":"view"},{"type":"function","name":"disputeIdToProposalId","inputs":[{"name":"","type":"uint256","internalType":"uint256"}],"outputs":[{"name":"","type":"uint256","internalType":"uint256"}],"stateMutability":"view"},{"type":"function","name":"disputeProposal","inputs":[{"name":"proposalId","type":"uint256","internalType":"uint256"},{"name":"context","type":"string","internalType":"string"},{"name":"_extraData","type":"bytes","internalType":"bytes"}],"outputs":[{"name":"disputeId","type":"uint256","internalType":"uint256"}],"stateMutability":"payable"},{"type":"function","name":"distribute","inputs":[{"name":"_recipientIds","type":"address[]","internalType":"address[]"},{"name":"_data","type":"bytes","internalType":"bytes"},{"name":"_sender","type":"address","internalType":"address"}],"outputs":[],"stateMutability":"nonpayable"},{"type":"function","name":"getAllo","inputs":[],"outputs":[{"name":"","type":"address","internalType":"contract IAllo"}],"stateMutability":"view"},{"type":"function","name":"getDecay","inputs":[],"outputs":[{"name":"","type":"uint256","internalType":"uint256"}],"stateMutability":"view"},{"type":"function","name":"getMaxAmount","inputs":[],"outputs":[{"name":"","type":"uint256","internalType":"uint256"}],"stateMutability":"view"},{"type":"function","name":"getMaxConviction","inputs":[{"name":"amount","type":"uint256","internalType":"uint256"}],"outputs":[{"name":"","type":"uint256","internalType":"uint256"}],"stateMutability":"view"},{"type":"function","name":"getMetadata","inputs":[{"name":"_proposalId","type":"uint256","internalType":"uint256"}],"outputs":[{"name":"","type":"tuple","internalType":"struct Metadata","components":[{"name":"protocol","type":"uint256","internalType":"uint256"},{"name":"pointer","type":"string","internalType":"string"}]}],"stateMutability":"view"},{"type":"function","name":"getPayouts","inputs":[{"name":"","type":"address[]","internalType":"address[]"},{"name":"","type":"bytes[]","internalType":"bytes[]"}],"outputs":[{"name":"","type":"tuple[]","internalType":"struct IStrategy.PayoutSummary[]","components":[{"name":"recipientAddress","type":"address","internalType":"address"},{"name":"amount","type":"uint256","internalType":"uint256"}]}],"stateMutability":"pure"},{"type":"function","name":"getPointSystem","inputs":[],"outputs":[{"name":"","type":"uint8","internalType":"enum StrategyStruct.PointSystem"}],"stateMutability":"view"},{"type":"function","name":"getPoolAmount","inputs":[],"outputs":[{"name":"","type":"uint256","internalType":"uint256"}],"stateMutability":"view"},{"type":"function","name":"getPoolId","inputs":[],"outputs":[{"name":"","type":"uint256","internalType":"uint256"}],"stateMutability":"view"},{"type":"function","name":"getProposal","inputs":[{"name":"_proposalId","type":"uint256","internalType":"uint256"}],"outputs":[{"name":"submitter","type":"address","internalType":"address"},{"name":"beneficiary","type":"address","internalType":"address"},{"name":"requestedToken","type":"address","internalType":"address"},{"name":"requestedAmount","type":"uint256","internalType":"uint256"},{"name":"stakedAmount","type":"uint256","internalType":"uint256"},{"name":"proposalStatus","type":"uint8","internalType":"enum StrategyStruct.ProposalStatus"},{"name":"blockLast","type":"uint256","internalType":"uint256"},{"name":"convictionLast","type":"uint256","internalType":"uint256"},{"name":"threshold","type":"uint256","internalType":"uint256"},{"name":"voterStakedPoints","type":"uint256","internalType":"uint256"}],"stateMutability":"view"},{"type":"function","name":"getProposalStakedAmount","inputs":[{"name":"_proposalId","type":"uint256","internalType":"uint256"}],"outputs":[{"name":"","type":"uint256","internalType":"uint256"}],"stateMutability":"view"},{"type":"function","name":"getProposalVoterStake","inputs":[{"name":"_proposalId","type":"uint256","internalType":"uint256"},{"name":"_voter","type":"address","internalType":"address"}],"outputs":[{"name":"","type":"uint256","internalType":"uint256"}],"stateMutability":"view"},{"type":"function","name":"getRecipientStatus","inputs":[{"name":"_recipientId","type":"address","internalType":"address"}],"outputs":[{"name":"","type":"uint8","internalType":"enum IStrategy.Status"}],"stateMutability":"view"},{"type":"function","name":"getStrategyId","inputs":[],"outputs":[{"name":"","type":"bytes32","internalType":"bytes32"}],"stateMutability":"view"},{"type":"function","name":"getTotalVoterStakePct","inputs":[{"name":"_voter","type":"address","internalType":"address"}],"outputs":[{"name":"","type":"uint256","internalType":"uint256"}],"stateMutability":"view"},{"type":"function","name":"increasePoolAmount","inputs":[{"name":"_amount","type":"uint256","internalType":"uint256"}],"outputs":[],"stateMutability":"nonpayable"},{"type":"function","name":"increasePower","inputs":[{"name":"_member","type":"address","internalType":"address"},{"name":"_amountToStake","type":"uint256","internalType":"uint256"}],"outputs":[{"name":"","type":"uint256","internalType":"uint256"}],"stateMutability":"nonpayable"},{"type":"function","name":"init","inputs":[{"name":"_allo","type":"address","internalType":"address"},{"name":"_collateralVaultTemplate","type":"address","internalType":"address"}],"outputs":[],"stateMutability":"nonpayable"},{"type":"function","name":"init","inputs":[{"name":"_allo","type":"address","internalType":"address"},{"name":"_name","type":"string","internalType":"string"}],"outputs":[],"stateMutability":"nonpayable"},{"type":"function","name":"initialize","inputs":[{"name":"_poolId","type":"uint256","internalType":"uint256"},{"name":"_data","type":"bytes","internalType":"bytes"}],"outputs":[],"stateMutability":"nonpayable"},{"type":"function","name":"isPoolActive","inputs":[],"outputs":[{"name":"","type":"bool","internalType":"bool"}],"stateMutability":"view"},{"type":"function","name":"isValidAllocator","inputs":[{"name":"_allocator","type":"address","internalType":"address"}],"outputs":[{"name":"","type":"bool","internalType":"bool"}],"stateMutability":"view"},{"type":"function","name":"owner","inputs":[],"outputs":[{"name":"","type":"address","internalType":"address"}],"stateMutability":"view"},{"type":"function","name":"pointConfig","inputs":[],"outputs":[{"name":"maxAmount","type":"uint256","internalType":"uint256"}],"stateMutability":"view"},{"type":"function","name":"pointSystem","inputs":[],"outputs":[{"name":"","type":"uint8","internalType":"enum StrategyStruct.PointSystem"}],"stateMutability":"view"},{"type":"function","name":"proposalCounter","inputs":[],"outputs":[{"name":"","type":"uint256","internalType":"uint256"}],"stateMutability":"view"},{"type":"function","name":"proposalType","inputs":[],"outputs":[{"name":"","type":"uint8","internalType":"enum StrategyStruct.ProposalType"}],"stateMutability":"view"},{"type":"function","name":"proposals","inputs":[{"name":"","type":"uint256","internalType":"uint256"}],"outputs":[{"name":"proposalId","type":"uint256","internalType":"uint256"},{"name":"requestedAmount","type":"uint256","internalType":"uint256"},{"name":"stakedAmount","type":"uint256","internalType":"uint256"},{"name":"convictionLast","type":"uint256","internalType":"uint256"},{"name":"beneficiary","type":"address","internalType":"address"},{"name":"submitter","type":"address","internalType":"address"},{"name":"requestedToken","type":"address","internalType":"address"},{"name":"blockLast","type":"uint256","internalType":"uint256"},{"name":"proposalStatus","type":"uint8","internalType":"enum StrategyStruct.ProposalStatus"},{"name":"metadata","type":"tuple","internalType":"struct Metadata","components":[{"name":"protocol","type":"uint256","internalType":"uint256"},{"name":"pointer","type":"string","internalType":"string"}]},{"name":"disputeInfo","type":"tuple","internalType":"struct StrategyStruct.ProposalDisputeInfo","components":[{"name":"disputeId","type":"uint256","internalType":"uint256"},{"name":"disputeTimestamp","type":"uint256","internalType":"uint256"},{"name":"challenger","type":"address","internalType":"address"},{"name":"submitterCollateralVault","type":"uint256","internalType":"uint256"}]},{"name":"lastDisputeCompletion","type":"uint256","internalType":"uint256"}],"stateMutability":"view"},{"type":"function","name":"proxiableUUID","inputs":[],"outputs":[{"name":"","type":"bytes32","internalType":"bytes32"}],"stateMutability":"view"},{"type":"function","name":"registerRecipient","inputs":[{"name":"_data","type":"bytes","internalType":"bytes"},{"name":"_sender","type":"address","internalType":"address"}],"outputs":[{"name":"recipientId","type":"address","internalType":"address"}],"stateMutability":"payable"},{"type":"function","name":"registryCommunity","inputs":[],"outputs":[{"name":"","type":"address","internalType":"contract RegistryCommunityV0_0"}],"stateMutability":"view"},{"type":"function","name":"renounceOwnership","inputs":[],"outputs":[],"stateMutability":"nonpayable"},{"type":"function","name":"rule","inputs":[{"name":"_disputeID","type":"uint256","internalType":"uint256"},{"name":"_ruling","type":"uint256","internalType":"uint256"}],"outputs":[],"stateMutability":"nonpayable"},{"type":"function","name":"setPoolActive","inputs":[{"name":"_active","type":"bool","internalType":"bool"}],"outputs":[],"stateMutability":"nonpayable"},{"type":"function","name":"setPoolParams","inputs":[{"name":"_arbitrableConfig","type":"tuple","internalType":"struct StrategyStruct.ArbitrableConfig","components":[{"name":"arbitrator","type":"address","internalType":"contract IArbitrator"},{"name":"tribunalSafe","type":"address","internalType":"address"},{"name":"submitterCollateralAmount","type":"uint256","internalType":"uint256"},{"name":"challengerCollateralAmount","type":"uint256","internalType":"uint256"},{"name":"defaultRuling","type":"uint256","internalType":"uint256"},{"name":"defaultRulingTimeout","type":"uint256","internalType":"uint256"}]},{"name":"_cvParams","type":"tuple","internalType":"struct StrategyStruct.CVParams","components":[{"name":"maxRatio","type":"uint256","internalType":"uint256"},{"name":"weight","type":"uint256","internalType":"uint256"},{"name":"decay","type":"uint256","internalType":"uint256"},{"name":"minThresholdPoints","type":"uint256","internalType":"uint256"}]}],"outputs":[],"stateMutability":"nonpayable"},{"type":"function","name":"setRegistryCommunity","inputs":[{"name":"_registryCommunity","type":"address","internalType":"address"}],"outputs":[],"stateMutability":"nonpayable"},{"type":"function","name":"setSybilScorer","inputs":[{"name":"_sybilScorer","type":"address","internalType":"address"}],"outputs":[],"stateMutability":"nonpayable"},{"type":"function","name":"supportProposal","inputs":[{"name":"","type":"tuple[]","internalType":"struct StrategyStruct.ProposalSupport[]","components":[{"name":"proposalId","type":"uint256","internalType":"uint256"},{"name":"deltaSupport","type":"int256","internalType":"int256"}]}],"outputs":[],"stateMutability":"pure"},{"type":"function","name":"supportsInterface","inputs":[{"name":"interfaceId","type":"bytes4","internalType":"bytes4"}],"outputs":[{"name":"","type":"bool","internalType":"bool"}],"stateMutability":"view"},{"type":"function","name":"sybilScorer","inputs":[],"outputs":[{"name":"","type":"address","internalType":"contract ISybilScorer"}],"stateMutability":"view"},{"type":"function","name":"totalEffectiveActivePoints","inputs":[],"outputs":[{"name":"","type":"uint256","internalType":"uint256"}],"stateMutability":"view"},{"type":"function","name":"totalPointsActivated","inputs":[],"outputs":[{"name":"","type":"uint256","internalType":"uint256"}],"stateMutability":"view"},{"type":"function","name":"totalStaked","inputs":[],"outputs":[{"name":"","type":"uint256","internalType":"uint256"}],"stateMutability":"view"},{"type":"function","name":"totalVoterStakePct","inputs":[{"name":"","type":"address","internalType":"address"}],"outputs":[{"name":"","type":"uint256","internalType":"uint256"}],"stateMutability":"view"},{"type":"function","name":"transferOwnership","inputs":[{"name":"newOwner","type":"address","internalType":"address"}],"outputs":[],"stateMutability":"nonpayable"},{"type":"function","name":"updateProposalConviction","inputs":[{"name":"proposalId","type":"uint256","internalType":"uint256"}],"outputs":[{"name":"","type":"uint256","internalType":"uint256"}],"stateMutability":"nonpayable"},{"type":"function","name":"upgradeTo","inputs":[{"name":"newImplementation","type":"address","internalType":"address"}],"outputs":[],"stateMutability":"nonpayable"},{"type":"function","name":"upgradeToAndCall","inputs":[{"name":"newImplementation","type":"address","internalType":"address"},{"name":"data","type":"bytes","internalType":"bytes"}],"outputs":[],"stateMutability":"payable"},{"type":"function","name":"voterStakedProposals","inputs":[{"name":"","type":"address","internalType":"address"},{"name":"","type":"uint256","internalType":"uint256"}],"outputs":[{"name":"","type":"uint256","internalType":"uint256"}],"stateMutability":"view"},{"type":"event","name":"AdminChanged","inputs":[{"name":"previousAdmin","type":"address","indexed":false,"internalType":"address"},{"name":"newAdmin","type":"address","indexed":false,"internalType":"address"}],"anonymous":false},{"type":"event","name":"Allocated","inputs":[{"name":"recipientId","type":"address","indexed":true,"internalType":"address"},{"name":"amount","type":"uint256","indexed":false,"internalType":"uint256"},{"name":"token","type":"address","indexed":false,"internalType":"address"},{"name":"sender","type":"address","indexed":false,"internalType":"address"}],"anonymous":false},{"type":"event","name":"BeaconUpgraded","inputs":[{"name":"beacon","type":"address","indexed":true,"internalType":"address"}],"anonymous":false},{"type":"event","name":"DisputeRequest","inputs":[{"name":"_arbitrator","type":"address","indexed":true,"internalType":"contract IArbitrator"},{"name":"_arbitrableDisputeID","type":"uint256","indexed":true,"internalType":"uint256"},{"name":"_externalDisputeID","type":"uint256","indexed":false,"internalType":"uint256"},{"name":"_templateId","type":"uint256","indexed":false,"internalType":"uint256"},{"name":"_templateUri","type":"string","indexed":false,"internalType":"string"}],"anonymous":false},{"type":"event","name":"Distributed","inputs":[{"name":"proposalId","type":"uint256","indexed":false,"internalType":"uint256"},{"name":"beneficiary","type":"address","indexed":false,"internalType":"address"},{"name":"amount","type":"uint256","indexed":false,"internalType":"uint256"}],"anonymous":false},{"type":"event","name":"Distributed","inputs":[{"name":"recipientId","type":"address","indexed":true,"internalType":"address"},{"name":"recipientAddress","type":"address","indexed":false,"internalType":"address"},{"name":"amount","type":"uint256","indexed":false,"internalType":"uint256"},{"name":"sender","type":"address","indexed":false,"internalType":"address"}],"anonymous":false},{"type":"event","name":"Initialized","inputs":[{"name":"poolId","type":"uint256","indexed":false,"internalType":"uint256"},{"name":"data","type":"bytes","indexed":false,"internalType":"bytes"}],"anonymous":false},{"type":"event","name":"Initialized","inputs":[{"name":"version","type":"uint8","indexed":false,"internalType":"uint8"}],"anonymous":false},{"type":"event","name":"InitializedCV","inputs":[{"name":"poolId","type":"uint256","indexed":false,"internalType":"uint256"},{"name":"data","type":"tuple","indexed":false,"internalType":"struct StrategyStruct.InitializeParams","components":[{"name":"cvParams","type":"tuple","internalType":"struct StrategyStruct.CVParams","components":[{"name":"maxRatio","type":"uint256","internalType":"uint256"},{"name":"weight","type":"uint256","internalType":"uint256"},{"name":"decay","type":"uint256","internalType":"uint256"},{"name":"minThresholdPoints","type":"uint256","internalType":"uint256"}]},{"name":"proposalType","type":"uint8","internalType":"enum StrategyStruct.ProposalType"},{"name":"pointSystem","type":"uint8","internalType":"enum StrategyStruct.PointSystem"},{"name":"pointConfig","type":"tuple","internalType":"struct StrategyStruct.PointSystemConfig","components":[{"name":"maxAmount","type":"uint256","internalType":"uint256"}]},{"name":"arbitrableConfig","type":"tuple","internalType":"struct StrategyStruct.ArbitrableConfig","components":[{"name":"arbitrator","type":"address","internalType":"contract IArbitrator"},{"name":"tribunalSafe","type":"address","internalType":"address"},{"name":"submitterCollateralAmount","type":"uint256","internalType":"uint256"},{"name":"challengerCollateralAmount","type":"uint256","internalType":"uint256"},{"name":"defaultRuling","type":"uint256","internalType":"uint256"},{"name":"defaultRulingTimeout","type":"uint256","internalType":"uint256"}]},{"name":"registryCommunity","type":"address","internalType":"address"},{"name":"sybilScorer","type":"address","internalType":"address"}]}],"anonymous":false},{"type":"event","name":"MinThresholdPointsUpdated","inputs":[{"name":"before","type":"uint256","indexed":false,"internalType":"uint256"},{"name":"minThresholdPoints","type":"uint256","indexed":false,"internalType":"uint256"}],"anonymous":false},{"type":"event","name":"OwnershipTransferred","inputs":[{"name":"previousOwner","type":"address","indexed":true,"internalType":"address"},{"name":"newOwner","type":"address","indexed":true,"internalType":"address"}],"anonymous":false},{"type":"event","name":"PointsDeactivated","inputs":[{"name":"member","type":"address","indexed":false,"internalType":"address"}],"anonymous":false},{"type":"event","name":"PoolActive","inputs":[{"name":"active","type":"bool","indexed":false,"internalType":"bool"}],"anonymous":false},{"type":"event","name":"PoolAmountIncreased","inputs":[{"name":"amount","type":"uint256","indexed":false,"internalType":"uint256"}],"anonymous":false},{"type":"event","name":"PoolParamsUpdated","inputs":[{"name":"cvParams","type":"tuple","indexed":false,"internalType":"struct StrategyStruct.CVParams","components":[{"name":"maxRatio","type":"uint256","internalType":"uint256"},{"name":"weight","type":"uint256","internalType":"uint256"},{"name":"decay","type":"uint256","internalType":"uint256"},{"name":"minThresholdPoints","type":"uint256","internalType":"uint256"}]},{"name":"arbitrableConfig","type":"tuple","indexed":false,"internalType":"struct StrategyStruct.ArbitrableConfig","components":[{"name":"arbitrator","type":"address","internalType":"contract IArbitrator"},{"name":"tribunalSafe","type":"address","internalType":"address"},{"name":"submitterCollateralAmount","type":"uint256","internalType":"uint256"},{"name":"challengerCollateralAmount","type":"uint256","internalType":"uint256"},{"name":"defaultRuling","type":"uint256","internalType":"uint256"},{"name":"defaultRulingTimeout","type":"uint256","internalType":"uint256"}]}],"anonymous":false},{"type":"event","name":"PowerDecreased","inputs":[{"name":"member","type":"address","indexed":false,"internalType":"address"},{"name":"tokensUnStaked","type":"uint256","indexed":false,"internalType":"uint256"},{"name":"pointsToDecrease","type":"uint256","indexed":false,"internalType":"uint256"}],"anonymous":false},{"type":"event","name":"PowerIncreased","inputs":[{"name":"member","type":"address","indexed":false,"internalType":"address"},{"name":"tokensStaked","type":"uint256","indexed":false,"internalType":"uint256"},{"name":"pointsToIncrease","type":"uint256","indexed":false,"internalType":"uint256"}],"anonymous":false},{"type":"event","name":"ProposalCreated","inputs":[{"name":"poolId","type":"uint256","indexed":false,"internalType":"uint256"},{"name":"proposalId","type":"uint256","indexed":false,"internalType":"uint256"}],"anonymous":false},{"type":"event","name":"ProposalDisputed","inputs":[{"name":"arbitrator","type":"address","indexed":false,"internalType":"contract IArbitrator"},{"name":"proposalId","type":"uint256","indexed":false,"internalType":"uint256"},{"name":"disputeId","type":"uint256","indexed":false,"internalType":"uint256"},{"name":"challenger","type":"address","indexed":false,"internalType":"address"},{"name":"context","type":"string","indexed":false,"internalType":"string"},{"name":"timestamp","type":"uint256","indexed":false,"internalType":"uint256"}],"anonymous":false},{"type":"event","name":"Registered","inputs":[{"name":"recipientId","type":"address","indexed":true,"internalType":"address"},{"name":"data","type":"bytes","indexed":false,"internalType":"bytes"},{"name":"sender","type":"address","indexed":false,"internalType":"address"}],"anonymous":false},{"type":"event","name":"RegistryUpdated","inputs":[{"name":"registryCommunity","type":"address","indexed":false,"internalType":"address"}],"anonymous":false},{"type":"event","name":"Ruling","inputs":[{"name":"_arbitrator","type":"address","indexed":true,"internalType":"contract IArbitrator"},{"name":"_disputeID","type":"uint256","indexed":true,"internalType":"uint256"},{"name":"_ruling","type":"uint256","indexed":false,"internalType":"uint256"}],"anonymous":false},{"type":"event","name":"SupportAdded","inputs":[{"name":"from","type":"address","indexed":false,"internalType":"address"},{"name":"proposalId","type":"uint256","indexed":false,"internalType":"uint256"},{"name":"amount","type":"uint256","indexed":false,"internalType":"uint256"},{"name":"totalStakedAmount","type":"uint256","indexed":false,"internalType":"uint256"},{"name":"convictionLast","type":"uint256","indexed":false,"internalType":"uint256"}],"anonymous":false},{"type":"event","name":"TribunaSafeRegistered","inputs":[{"name":"strategy","type":"address","indexed":false,"internalType":"address"},{"name":"arbitrator","type":"address","indexed":false,"internalType":"address"},{"name":"tribunalSafe","type":"address","indexed":false,"internalType":"address"}],"anonymous":false},{"type":"event","name":"Upgraded","inputs":[{"name":"implementation","type":"address","indexed":true,"internalType":"address"}],"anonymous":false},{"type":"error","name":"ALLOCATION_ACTIVE","inputs":[]},{"type":"error","name":"ALLOCATION_NOT_ACTIVE","inputs":[]},{"type":"error","name":"ALLOCATION_NOT_ENDED","inputs":[]},{"type":"error","name":"ALREADY_INITIALIZED","inputs":[]},{"type":"error","name":"AMOUNT_MISMATCH","inputs":[]},{"type":"error","name":"ANCHOR_ERROR","inputs":[]},{"type":"error","name":"ARRAY_MISMATCH","inputs":[]},{"type":"error","name":"AddressCannotBeZero","inputs":[]},{"type":"error","name":"AmountOverMaxRatio","inputs":[]},{"type":"error","name":"ArbitrationConfigCannotBeChangedDuringDispute","inputs":[]},{"type":"error","name":"ArbitratorCannotBeZero","inputs":[]},{"type":"error","name":"CantIncreaseFixedSystem","inputs":[]},{"type":"error","name":"ConvictionUnderMinimumThreshold","inputs":[]},{"type":"error","name":"DefaultRulingNotSet","inputs":[]},{"type":"error","name":"DisputeCooldownNotPassed","inputs":[{"name":"_proposalId","type":"uint256","internalType":"uint256"},{"name":"_remainingSec","type":"uint256","internalType":"uint256"}]},{"type":"error","name":"INVALID","inputs":[]},{"type":"error","name":"INVALID_ADDRESS","inputs":[]},{"type":"error","name":"INVALID_FEE","inputs":[]},{"type":"error","name":"INVALID_METADATA","inputs":[]},{"type":"error","name":"INVALID_REGISTRATION","inputs":[]},{"type":"error","name":"IS_APPROVED_STRATEGY","inputs":[]},{"type":"error","name":"InsufficientCollateral","inputs":[{"name":"sentAmount","type":"uint256","internalType":"uint256"},{"name":"requiredAmount","type":"uint256","internalType":"uint256"}]},{"type":"error","name":"MISMATCH","inputs":[]},{"type":"error","name":"MaxPointsReached","inputs":[]},{"type":"error","name":"NONCE_NOT_AVAILABLE","inputs":[]},{"type":"error","name":"NOT_APPROVED_STRATEGY","inputs":[]},{"type":"error","name":"NOT_ENOUGH_FUNDS","inputs":[]},{"type":"error","name":"NOT_IMPLEMENTED","inputs":[]},{"type":"error","name":"NOT_INITIALIZED","inputs":[]},{"type":"error","name":"NOT_PENDING_OWNER","inputs":[]},{"type":"error","name":"NotEnoughPointsToSupport","inputs":[{"name":"pointsSupport","type":"uint256","internalType":"uint256"},{"name":"pointsBalance","type":"uint256","internalType":"uint256"}]},{"type":"error","name":"NotImplemented","inputs":[]},{"type":"error","name":"OnlyArbitrator","inputs":[]},{"type":"error","name":"OnlyCommunityAllowed","inputs":[]},{"type":"error","name":"OnlyCouncilSafe","inputs":[]},{"type":"error","name":"POOL_ACTIVE","inputs":[]},{"type":"error","name":"POOL_INACTIVE","inputs":[]},{"type":"error","name":"PoolAmountNotEnough","inputs":[{"name":"_proposalId","type":"uint256","internalType":"uint256"},{"name":"_requestedAmount","type":"uint256","internalType":"uint256"},{"name":"_poolAmount","type":"uint256","internalType":"uint256"}]},{"type":"error","name":"PoolIdCannotBeZero","inputs":[]},{"type":"error","name":"PoolIsEmpty","inputs":[]},{"type":"error","name":"ProposalDataIsEmpty","inputs":[]},{"type":"error","name":"ProposalIdCannotBeZero","inputs":[]},{"type":"error","name":"ProposalNotActive","inputs":[{"name":"_proposalId","type":"uint256","internalType":"uint256"}]},{"type":"error","name":"ProposalNotDisputed","inputs":[{"name":"_proposalId","type":"uint256","internalType":"uint256"}]},{"type":"error","name":"ProposalNotInList","inputs":[{"name":"_proposalId","type":"uint256","internalType":"uint256"}]},{"type":"error","name":"ProposalSupportDuplicated","inputs":[{"name":"_proposalId","type":"uint256","internalType":"uint256"},{"name":"index","type":"uint256","internalType":"uint256"}]},{"type":"error","name":"RECIPIENT_ALREADY_ACCEPTED","inputs":[]},{"type":"error","name":"RECIPIENT_ERROR","inputs":[{"name":"recipientId","type":"address","internalType":"address"}]},{"type":"error","name":"RECIPIENT_NOT_ACCEPTED","inputs":[]},{"type":"error","name":"REGISTRATION_NOT_ACTIVE","inputs":[]},{"type":"error","name":"RegistryCannotBeZero","inputs":[]},{"type":"error","name":"SupportUnderflow","inputs":[{"name":"_support","type":"uint256","internalType":"uint256"},{"name":"_delta","type":"int256","internalType":"int256"},{"name":"_result","type":"int256","internalType":"int256"}]},{"type":"error","name":"TokenCannotBeZero","inputs":[]},{"type":"error","name":"TokenNotAllowed","inputs":[]},{"type":"error","name":"UNAUTHORIZED","inputs":[]},{"type":"error","name":"UserCannotBeZero","inputs":[]},{"type":"error","name":"UserCannotExecuteAction","inputs":[]},{"type":"error","name":"UserIsInactive","inputs":[]},{"type":"error","name":"UserNotInRegistry","inputs":[]},{"type":"error","name":"ZERO_ADDRESS","inputs":[]}],"bytecode":{"object":"0x60a0806040523461006c5730608052606a80546001600160a01b031916733b1fbfb04db3585920b2eadbb8839fc9680fe8cd179055606d80546001600160401b03191690556000606e556152e0908161007282396080518181816121760152818161226001526125600152f35b600080fdfe60806040526004361015610018575b361561001657005b005b6000803560e01c8063013cf08b14613ae257806301ffc9a714613a8b578063058aca44146139b5578063062f9ece146139045780630a6f0ee9146135b55780630ba95909146119ee5780630bece79c1461358c5780630c0512e91461356e5780630f529ba2146135505780631073e996146134fd57806315cc481e146134d45780631aa91a9e146134b55780631ddf1e231461349b5780632506b87014613464578063255ffb381461343a5780632bbe0cae14612f785780632dbd6fdd146114185780632ed04b2b14612d06578063311a6c56146127ec57806333960459146127ce578063346db8cb146127a9578063351d9f96146127835780633659cfe61461253b57806338fff2d01461251d578063406244d81461250157806342fda9c7146124e35780634ab4ba42146124c55780634d31d087146124865780634f1ef2861461222257806352d1902d1461216357806359a5db8b146121445780635db64b99146114435780636003e4141461211b578063626c47e8146120ff5780636453d9c4146120d5578063715018a614612089578063782aadff14611ccf578063814516ad14611bd7578063817b1cd214611bb9578063824ea8ed14611b4c578063868c57b814611af65780638da5cb5b14611acd578063950559d714611a825780639a1c157c14611a64578063a0cf0aea14611a35578063a28889e114611a0c578063a47ff7e5146119ee578063a574cea414611994578063aba9ffee1461132d578063ac1ed7b914611946578063b2b878d014611883578063b41596ec14611501578063b5f620ce146114a5578063b6c61f311461147c578063bcc5b93b14611443578063c329217114611418578063c7f758a81461134b578063d1e362321461132d578063dc96ff2d14611300578063df868ed3146112dd578063e0dd2c3814611293578063e33add93146111e4578063eb11af931461119a578063edd146cc14610d11578063ef2920fc14610617578063f09a401614610487578063f2fde38b146103f9578063f321b3051461039e578063f5b0dfb7146103455763f5be3f7c14610326575061000e565b346103425780600319360112610342576020604051611c208152f35b80fd5b5034610342576020366003190112610342577f46aeb5d8770fc4474bc2dfa118fd2595f7fb33ce2cbce6f4e5a3dabfe0f7633960206004356103856142f2565b610391816069546142cf565b606955604051908152a180f35b5034610342576040366003190112610342576103b8613e56565b602435906001600160401b0382116103f557366023830112156103f5576103ec6103f2923690602481600401359101613f22565b90614284565b80f35b8280fd5b503461034257602036600319011261034257610413613e56565b61041b61402a565b6001600160a01b03811615610433576103f290614082565b60405162461bcd60e51b815260206004820152602660248201527f4f776e61626c653a206e6577206f776e657220697320746865207a65726f206160448201526564647265737360d01b6064820152608490fd5b5034610342576040366003190112610342576104a1613e56565b6104a9613e6c565b825460ff8160081c16159283809461060a575b80156105f3575b156105975760ff19821660011785556105069184610586575b50604051906104ea82613ca8565b600a8252694356537472617465677960b01b6020830152614284565b61051f60ff845460081c1661051a81614322565b614322565b61052833614082565b606a80546001600160a01b0319166001600160a01b039290921691909117905561054f5780f35b61ff001981541681557f7f26b83ff96e1f2b6a682f133852f6798a09c465da95921460cefb3847402498602060405160018152a180f35b61ffff1916610101178555386104dc565b60405162461bcd60e51b815260206004820152602e60248201527f496e697469616c697a61626c653a20636f6e747261637420697320616c72656160448201526d191e481a5b9a5d1a585b1a5e995960921b6064820152608490fd5b50303b1580156104c35750600160ff8316146104c3565b50600160ff8316106104bc565b5061062136613f74565b9061062a6142f2565b610632614306565b6001600160a01b0382811691908215610cff57607d5416938415610ced5760405163288c314960e21b81526004810184905260209360249291858185818b5afa908115610ca1578391610cd0575b5015610cbe5761068f86614587565b15610cac5760405163011de97360e61b81528581806106b2308b6004840161456d565b03818b5afa908115610ca1578391610c74575b5015610c62578351840193858501908681870312610c5a5780870151906001600160401b038211610c5e57019481603f87011215610c5a57868601519061070b82613e82565b966107196040519889613cde565b82885260408989019360061b820101938411610c5657604001915b838310610c245750505050819682975b85518910156107c1576107578987614a4b565b5151156107b7576107688987614a4b565b515161077381614a5f565b156107a0575061079461079a918861078b8c8a614a4b565b51015190614ab7565b98614382565b97610744565b85906040519063c1d17bef60e01b82526004820152fd5b9761079a90614382565b958093976107e06107fe93949698878b526081845260408b2054614ad3565b936040518080958194637817ee4f60e01b835230906004840161456d565b03915afa908115610c19578791610be7575b50808211610bca575082869594939652608182526040852055606094859185945b8451861015610bc6576108448686614a4b565b515193805115600014610aa157506040519461085f86613ca8565b600186528286019883368b37865115610a8c5785899a529590955b836108858989614a4b565b51015196868a528960809485875260408220946009860193896000528489526108b46040600020549c8d614ad3565b948a60005289528460406000205583918460408954965b8d815260828d52208054821015610a77576108e7828892613fcf565b90549060031b1c1461090a57908f9291610902604091614382565b9192936108cb565b509a949391509b96919c60019b96959b5b15610a0d575b5061098696959493929190508185116109d45761093e8583614624565b61094b606f9182546142cf565b90556109578583614624565b610966600286019182546142cf565b90555b600784019384541560001461098f57505050509050439055614382565b94939695610831565b60a094506109ac6000805160206151ab8339815191529682614da7565b6003600282015491015492604051948b86528a86015260408501528b840152820152a1614382565b6109de8286614624565b6109eb606f918254614624565b90556109f78286614624565b610a0660028601918254614624565b9055610969565b8981526082895260409020805490600160401b821015610a635781610a419160016109869b9a999897969594018155613fcf565b819291549060031b91821b91600019901b19161790559091929394958d610921565b50634e487b7160e01b8f5260416004528d8ffd5b50509a9493919d909c97929d9b96959b61091b565b82634e487b7160e01b60005260326004526000fd5b9497918794979693919698855b8751811015610af35789610ac2828a614a4b565b5114610ad657610ad190614382565b610aae565b896044918a60405192632b7aec5560e21b84526004840152820152fd5b50989794979691939692909215610b0e575b9487989561087a565b949788516001998a8201809211610bb357899a610b2a83613e82565b92610b386040519485613cde565b808452610b47601f1991613e82565b0136878501378a815b610b6d575b5050610b6387915183614a4b565b5295909850610b05565b90919293949a8351821015610ba9575080610b8b610b9c9285614a4b565b51610b968287614a4b565b52614382565b908b9a9493929181610b50565b9a94939291610b55565b634e487b7160e01b8a526011600452838afd5b8680f35b604492508560405192636b20c17f60e11b84526004840152820152fd5b90508281813d8311610c12575b610bfe8183613cde565b81010312610c0d575187610810565b600080fd5b503d610bf4565b6040513d89823e3d90fd5b6040898484030112610c5657886040918251610c3f81613ca8565b855181528286015183820152815201920191610734565b8580fd5b8380fd5b8480fd5b604051635fccb67f60e01b8152600490fd5b610c949150863d8811610c9a575b610c8c8183613cde565b810190614555565b386106c5565b503d610c82565b6040513d85823e3d90fd5b604051630b72d6b160e31b8152600490fd5b604051636a5cfb6d60e01b8152600490fd5b610ce79150863d8811610c9a57610c8c8183613cde565b38610680565b604051635df4b1ef60e01b8152600490fd5b604051631a3e505160e31b8152600490fd5b5034610342576040366003190112610342576004356001600160401b03602435818111610c5a57610d46903690600401613f59565b610d4e6142f2565b610d566142f2565b6068546111885782156111765782606855606a546e5af43d82803e903d91602b57fd5bf3606c54610d8681614382565b606c5560405160208101913360601b8352603482015260348152610da981613cc3565b519020608883901c62ffffff16763d602d80600a3d3981f3363d3d373d3d3d363d7300000017875260789290921b6001600160781b031916176020526001600160a01b03906037600987f516801561113757607e80546001600160a01b031981168317909155859190821617803b156111335781809160046040518094819363204a7f0760e21b83525af1801561112857611114575b5050808051810103916101e08312610c5e576040519260e08401848110838211176110fa57806040526080821261111057610e7981613c5f565b60208401518152604084015161010086015260608401516101208601526080840151610140860152845260a0830151600381101561111057602085015260c08301516004811015611110576040850152602060bf19820112610c565760405160208101928311818410176110fa5760c09260405260e08401518152606085015260df190112610c5a57604051610f0e81613c7a565b6101008201516001600160a01b0381168103610c56578152610f336101208301614391565b60208201526101408201516040820152610160820151606082015261018082015160808201526101a082015160a08201526080830152610f896101e0610f7c6101c08401614391565b928360a086015201614391565b60c08301526001600160a01b031615610ced5760a0810151607d80546001600160a01b0319166001600160a01b0392909216919091179055602081015160038110156110e657607554604083015160048110156110d25791610200939160ff61ff007fe5315be7b0ab27f8044fa25213ec2851fa61dd47203db658cf77f45f39ffc37b979560081b1692169061ffff1916171760755560608101515160765560018060a01b0360c08201511660018060a01b0319607f541617607f556110556080820151825190614e2c565b6040519182526110696020830182516143a5565b61107b602082015160a0840190613fc2565b61108d604082015160c0840190613fb5565b60608101515160e08301526110ab60808201516101008401906143c8565b60a08101516001600160a01b039081166101c084015260c090910151166101e0820152a180f35b634e487b7160e01b86526021600452602486fd5b634e487b7160e01b84526021600452602484fd5b634e487b7160e01b600052604160045260246000fd5b8680fd5b61111d90613c95565b610c5a578338610e3f565b6040513d84823e3d90fd5b5080fd5b60405162461bcd60e51b8152602060048201526017602482015276115490cc4c4d8dce8818dc99585d194c8819985a5b1959604a1b6044820152606490fd5b604051637fcce2a960e01b8152600490fd5b60405163439a74c960e01b8152600490fd5b5034610342576020366003190112610342576001600160a01b036111bc613e56565b16151590506111db57602060035b604051906111d781613dce565b8152f35b602060026111ca565b50346103425760208060031936011261113357600435906001600160401b0382116103f557366023830112156103f557816004013560248261122583613e82565b6112326040519182613cde565b838152019160061b84010192368411610c5e57602401905b8382106112635760405163d623472560e01b8152600490fd5b604082360312610c5e5782604091825161127c81613ca8565b84358152828501358382015281520191019061124a565b503461034257604036600319011261034257600960406112b1613e6c565b926004358152608060205220019060018060a01b03166000526020526020604060002054604051908152f35b5034610342578060031936011261034257602060ff606754166040519015158152f35b50346103425760203660031901126103425760026040602092600435815260808452200154604051908152f35b50346103425780600319360112610342576020607054604051908152f35b5034610342576020366003190112610342576101409060043581526080602052604081206001810154918215600014611409575b60018060a01b03918260058201541693836004830154169360068301541690600283015460ff600885015416916007850154936009600387015496336000520160205260406000205497604051998a5260208a01526040890152606088015260808701526113ec81613dce565b60a086015260c085015260e0840152610100830152610120820152f35b5061141382614c1c565b61137f565b5034610342578060031936011261034257602060ff60755460081c166114416040518092613fb5565bf35b5034610342576020366003190112610342576020906040906001600160a01b0361146b613e56565b168152608183522054604051908152f35b5034610342578060031936011261034257607f546040516001600160a01b039091168152602090f35b5034610342576020366003190112610342576004358015158091036111335760207fd94c9bc4d43c51d8dc345a016d8e3d994432fac68e72832e4cf3a616bd8efae09160ff196067541660ff821617606755604051908152a180f35b506060366003190112610342576024356001600160401b0381116111335761152d903690600401613ffd565b906044356001600160401b038111610c5a5761154d903690600401613ffd565b600435855260806020526040852060775490939291906001600160a01b0316156118715760043584540361185857600160ff60088601541661158e81613dce565b0361183f57607a5490813410611820576010850154801515806117f8575b6117c257506115bb8234614624565b918760018060a01b03607e541691823b15611133576040519283809263240ff7c560e11b8252816115f2336004356004840161451a565b03925af180156117b7576117a3575b509160209161164396979360018060a01b03607754169160405180998195829463c13517e160e01b8452600360048501526040602485015260448401916150e1565b03925af1938415611796578194611762575b5060088301805460ff19166005179055600c830184905542600d8401908155600e90930180546001600160a01b031916331790558381526083602052604081206004359055606d54906001600160401b038083169190821461174e57506001600160401b031990911660019091016001600160401b031617606d556077549154604080516001600160a01b0394909416845260043560208581019190915290840185905233606085015260c06080850181905290957f034f6a48076db1bcaaa311ccdc43d473aff44d3918a76fe0fae27c8b3665016d949384939261173d92908501916150e1565b9060a08301520390a1604051908152f35b634e487b7160e01b81526011600452602490fd5b9093506020813d60201161178e575b8161177e60209383613cde565b81010312610c0d57519238611655565b3d9150611771565b50604051903d90823e3d90fd5b6117ad8891613c95565b6111105738611601565b6040513d8a823e3d90fd5b87611c20820180921161174e5760446117db4284614624565b60405190638d2f6c3160e01b825260043560048301526024820152fd5b50611c20810180821161180c5742106115ac565b634e487b7160e01b89526011600452602489fd5b604051632c1f8ef160e21b815234600482015260248101839052604490fd5b60246040516344980d8f60e01b81526004356004820152fd5b602460405163c1d17bef60e01b81526004356004820152fd5b604051636c291fd360e01b8152600490fd5b5034610342576040366003190112610342576001600160401b0390600435828111611133576118b6903690600401613e99565b50602480358381116103f557366023820112156103f5578060040135916118dc83613e82565b946118ea6040519687613cde565b8386528160208097019460051b8401019436861161034257828401945b8686106119205760405163d623472560e01b8152600490fd5b85358381116103f557889161193b83928736918a0101613f59565b815201950194611907565b503461034257602036600319011261034257611960613e56565b611968615071565b61197181614533565b607f80546001600160a01b0319166001600160a01b039290921691909117905580f35b5034610342576020366003190112610342576119d6600a60406119ea936060602083516119c081613ca8565b8381520152600435815260806020522001613d01565b604051918291602083526020830190613e36565b0390f35b50346103425780600319360112610342576020607654604051908152f35b5034610342578060031936011261034257606d546040516001600160401b039091168152602090f35b5034610342578060031936011261034257602060405173eeeeeeeeeeeeeeeeeeeeeeeeeeeeeeeeeeeeeeee8152f35b50346103425780600319360112610342576020607354604051908152f35b50346103425760203660031901126103425760043562989680918282029180830484149015171561174e57607354830392831161174e576020611ac584846148c7565b604051908152f35b50346103425780600319360112610342576033546040516001600160a01b039091168152602090f35b503461034257604036600319011261034257611b10613e56565b6001600160a01b0316815260826020526040812080546024359290831015610342576020611b3e8484613fcf565b90546040519160031b1c8152f35b503461034257602036600319011261034257604060209160043581526080835220611b7b600282015482614dd9565b81929192159081611bb0575b50611ba4575b6001611b9a910154614c1c565b1115604051908152f35b60038101549150611b8d565b90501538611b87565b50346103425780600319360112610342576020606f54604051908152f35b5034610342578060031936011261034257611bf133614587565b15610cac57607d546001600160a01b039082908216803b1561113357816040518092630d4a8b4960e01b8252818381611c2e30336004840161456d565b03925af1801561112857611cbb575b5050607d541660206040518092637817ee4f60e01b82528180611c6430336004840161456d565b03915afa8015611128578290611c88575b611c8291506070546142cf565b60705580f35b506020813d8211611cb3575b81611ca160209383613cde565b81010312610c0d57611c829051611c75565b3d9150611c94565b611cc490613c95565b611133578138611c3d565b503461034257604036600319011261034257611ce9613e56565b602435611cf46145fe565b611cfd82614587565b15610cac578260ff60755460081c1660048110156120755760028103611de757505080915b607d5460405163011de97360e61b81529060209082906001600160a01b03168180611d5130886004840161456d565b03915afa908115611ddc57907f0b9150e1e54346ed3fa36b977cd5d65dca5a649c737c3174a26bddaadd47667a93929160209691611dbf575b50611dab575b611da08460405193849384614850565b0390a1604051908152f35b611db7846070546142cf565b607055611d90565b611dd69150863d8111610c9a57610c8c8183613cde565b38611d8a565b6040513d87823e3d90fd5b60018103611e93575050607d54604051637817ee4f60e01b8152829160209082906001600160a01b03168180611e21308a6004840161456d565b03915afa908115611ddc578591611e62575b50611e3e83826142cf565b607654809111611e51575b505091611d22565b611e5b9250614624565b3880611e49565b90506020813d8211611e8b575b81611e7c60209383613cde565b81010312610c0d575138611e33565b3d9150611e6f565b90929060021901611d2257607d546040516316308e2560e11b81526001600160a01b038084166004830152929450908216916020918281602481875afa8015610c195785908890612044575b611ee992506142cf565b6040516336d8759760e21b81529060128483600481895afa90811561203957611f529486611f4793611f4d968d9161200c575b5060046040518094819363313ce56760e01b8352165afa8b9181611fdd575b50611fd2575b506148a6565b906148b4565b6148e7565b816040518094637817ee4f60e01b82528180611f72308b6004840161456d565b03915afa918215611fc7578692611f95575b50611f8f9250614624565b91611d22565b90915082813d8311611fc0575b611fac8183613cde565b81010312610c0d57611f8f91519038611f84565b503d611fa2565b6040513d88823e3d90fd5b60ff91501638611f41565b611ffe919250883d8a11612005575b611ff68183613cde565b81019061488d565b9038611f3b565b503d611fec565b61202c9150823d8411612032575b6120248183613cde565b81019061486e565b38611f1c565b503d61201a565b6040513d8b823e3d90fd5b50508281813d831161206e575b61205b8183613cde565b81010312610c0d5784611ee99151611edf565b503d612051565b634e487b7160e01b85526021600452602485fd5b50346103425780600319360112610342576120a261402a565b603380546001600160a01b031981169091556000906001600160a01b03166000805160206151cb8339815191528280a380f35b5034610342576020366003190112610342576103f26120f2613e56565b6120fa6145fe565b614631565b5034610342578060031936011261034257602060405160038152f35b5034610342578060031936011261034257607d546040516001600160a01b039091168152602090f35b5034610342576020366003190112610342576020611ac5600435614c1c565b50346103425780600319360112610342577f00000000000000000000000000000000000000000000000000000000000000006001600160a01b031630036121bc57602060405160008051602061518b8339815191528152f35b60405162461bcd60e51b815260206004820152603860248201527f555550535570677261646561626c653a206d757374206e6f742062652063616c6044820152771b1959081d1a1c9bdd59da0819195b1959d85d1958d85b1b60421b6064820152608490fd5b50604036600319011261034257612237613e56565b6024356001600160401b0381116103f557612256903690600401613f59565b6001600160a01b037f00000000000000000000000000000000000000000000000000000000000000008116929190612290308514156140b9565b6122ad60008051602061518b833981519152948286541614614108565b6122b561402a565b60008051602061512b8339815191525460ff16156122d95750506103f29150614157565b8216604051936352d1902d60e01b85526020948581600481865afa60009181612457575b5061234c5760405162461bcd60e51b815260048101879052602e602482015260008051602061526b83398151915260448201526d6f6e206973206e6f74205555505360901b6064820152608490fd5b94929394036124125761235e84614157565b6000805160206151eb833981519152600080a281511580159061240a575b612387575b50505080f35b6123f8926000806040519461239b86613cc3565b6027865260008051602061524b83398151915285870152660819985a5b195960ca1b60408701528481519101845af4903d15612401573d6123db81613f07565b906123e96040519283613cde565b8152600081943d92013e6141e7565b50388080612381565b606092506141e7565b50600161237c565b60405162461bcd60e51b8152600481018390526029602482015260008051602061522b8339815191526044820152681a58589b195555525160ba1b6064820152608490fd5b90918782813d831161247f575b61246e8183613cde565b8101031261034257505190386122fd565b503d612464565b5034610342576020366003190112610342576001600160a01b036124a8613e56565b166124bb576020905b6040519015158152f35b50602060016124b1565b50346103425780600319360112610342576020606954604051908152f35b50346103425780600319360112610342576020606654604051908152f35b50346103425780600319360112610342576020604051600a8152f35b50346103425780600319360112610342576020606854604051908152f35b50346103425760208060031936011261113357612556613e56565b6001600160a01b037f0000000000000000000000000000000000000000000000000000000000000000811661258d308214156140b9565b6125aa60008051602061518b833981519152918383541614614108565b6125b261402a565b604051848101929091906001600160401b038411838510176110fa578360405286835260ff60008051602061512b83398151915254166000146125fd57505050506103f29150614157565b8492939416906040516352d1902d60e01b81528681600481865afa60009181612754575b506126705760405162461bcd60e51b815260048101889052602e602482015260008051602061526b83398151915260448201526d6f6e206973206e6f74205555505360901b6064820152608490fd5b959394950361270f5761268282614157565b6000805160206151eb833981519152600080a2825115801590612707575b6126ac575b5050505080f35b6000806126fd95604051956126c087613cc3565b6027875260008051602061524b83398151915286880152660819985a5b195960ca1b60408801525190845af4903d15612401573d6123db81613f07565b50388080806126a5565b5060006126a0565b60405162461bcd60e51b8152600481018490526029602482015260008051602061522b8339815191526044820152681a58589b195555525160ba1b6064820152608490fd5b90918882813d831161277c575b61276b8183613cde565b810103126103425750519038612621565b503d612761565b5034610342578060031936011261034257602060ff607554166114416040518092613fc2565b5034610342576060366003190112610342576020611ac5604435602435600435614b0e565b50346103425780600319360112610342576020606c54604051908152f35b5034610342576040366003190112610342576004359060243591808252602092608384526040832054938484526080815260408420948015612cee57600886018054600560ff821661283d81613dce565b03612cd557612853600d890154607c54906142cf565b42118015908180612cc0575b612cae5790612ca6575b15612a135750607b548015612a01576001146129f1575b6002607b54146129e0575b50607e54600e870154607a546001600160a01b039182169392821690813b156129c8576128d48992839260405194858094819363099ea56b60e41b9b8c84528b60048501614a2a565b03925af180156117b7579088916129cc575b505080607e54169060058901541691600f89015493823b156129c85790888094939261292060405197889687958694855260048501614a2a565b03925af18015611ddc579085916129b4575b50505b606d546001600160401b0380821696919087156129a0577f394027a5fa6e098a1191094d1719d6929b9abc535fcc0c8f448d6a4e756222769495969760001901169060018060401b03191617606d5560104291015560018060a01b036077541692604051908152a380f35b634e487b7160e01b87526011600452602487fd5b6129bd90613c95565b610c5a578338612932565b8880fd5b6129d590613c95565b6111105786386128e6565b805460ff191660061790553861288b565b805460ff19166001178155612880565b604051630dd466dd60e41b8152600490fd5b60018503612aec5750805460ff19166001179055607e54600e870154607d54604051633629edcd60e11b81526001600160a01b03928316938316929186908290600490829086165afa908115612039578991612acf575b50607a54833b15612acb578994939291612a9e869260405198899788968795638969ab5360e01b8752169160048601615102565b03925af18015611ddc57908591612ab7575b5050612935565b612ac090613c95565b610c5a578338612ab0565b8980fd5b612ae69150863d8811612032576120248183613cde565b38612a6a565b60028514612afd575b505050612935565b60ff19166006179055607e54600e87018054607a5491926001600160a01b039291908316908316813b15612acb57918991612b50938360405180968195829463099ea56b60e41b84528c60048501614a2a565b03925af180156117b757908891612c92575b505080607e541692600460058a0192808454168782607d541660405194858092633629edcd60e11b82525afa928315612c64578b93612c73575b50600f8c0196875460011c91813b15612c6f57918c91612bd993836040518096819582948a638969ab5360e01b9c8d865216908d60048601615102565b03925af18015612c6457908b91612c50575b50508080607e5416945416945416945460011c833b15612acb578994939291612c24869260405198899788968795865260048601615102565b03925af18015611ddc57908591612c3c575b80612af5565b612c4590613c95565b610c5a578338612c36565b612c5990613c95565b612acb578938612beb565b6040513d8d823e3d90fd5b8c80fd5b612c8b919350883d8a11612032576120248183613cde565b9138612b9c565b612c9b90613c95565b611110578638612b62565b508415612869565b604051631777988560e11b8152600490fd5b506077546001600160a01b031633141561285f565b604051634b011ca960e11b815260048101849052602490fd5b6024906040519063c1d17bef60e01b82526004820152fd5b503461034257604036600319011261034257612d20613e56565b60243591612d2c6145fe565b60ff60755460081c166004811015612f645760028114908115612f59575b5015612d85575060008051602061514b83398151915282602093925b612d7284607054614624565b607055611da08460405193849384614850565b607d546040516336d8759760e21b8152602092916001600160a01b0390811691601291908581600481875afa908115611ddc57829187918791612f3c575b5060046040518094819363313ce56760e01b8352165afa859181612f1d575b50612f12575b506040516316308e2560e11b815290861660048201528481602481865afa908115612f07579087918591612ed4575b5091611f47612e2c611f4d93612e3295614624565b916148a6565b92806040518093637817ee4f60e01b82528180612e53308b6004840161456d565b03915afa928315612ec85792612e88575b505092612e8260008051602061514b83398151915292602095614624565b92612d66565b9080959250813d8311612ec1575b612ea08183613cde565b81010312610c0d579251612e8260008051602061514b833981519152612e64565b503d612e96565b604051903d90823e3d90fd5b809250868092503d8311612f00575b612eed8183613cde565b81010312610c0d57518690611f47612e17565b503d612ee3565b6040513d86823e3d90fd5b60ff16915038612de8565b612f35919250873d891161200557611ff68183613cde565b9038612de2565b612f539150823d8411612032576120248183613cde565b38612dc3565b600191501438612d4a565b634e487b7160e01b82526021600452602482fd5b50612f8236613f74565b9091612f8c6142f2565b612f94614306565b612f9d82614587565b15610cac578251830190602093848184031261113357808501516001600160401b0391828211610c5a57019260a0848203126103f5576040519160a08301838110828211176110fa57604052868501518352612ffb60408601614391565b928781019384526060860151956040820196875261301b60808201614391565b936060830194855260a0820151908482116134365761304092908b0191018a01614408565b608082019081528151156134245760ff607554169160038310156134105760018093146132dd575b506077546001600160a01b03979088161515806132d2575b6132b25761308f606e54614382565b9889606e5589885260808b528860408920968b88558160058901998160018060a01b03199516858c5416178b555116600489019084825416179055511660068701918254161790555182850155600884018260ff1982541617905543600785015585600385015551918251600a85015588600b8501930151805191821161329e5761311a8454613c25565b601f8111613257575b508990601f83116001146131f75792829391839289946131ec575b50501b916000199060031b1c19161790555b600f6079549101558280607e541691541690803b156103f55761318b918391604051808095819463240ff7c560e11b83528a6004840161451a565b039134905af18015611128576131d8575b50507ffcf3b1aa65a464cef2889608f99e8b8c0f680a4be6c2acb9d961c536a5a9294b604060685481519081528486820152a160405191168152f35b6131e28291613c95565b610342578061319c565b01519250388061313e565b8488528a8820919083601f1981168a8e5b8883831061323f5750505010613226575b505050811b019055613150565b015160001960f88460031b161c19169055388080613219565b8686015188559096019594850194879350018e613208565b8488528a8820601f840160051c8101918c8510613294575b601f0160051c019084905b828110613288575050613123565b6000815501849061327a565b909150819061326f565b634e487b7160e01b87526041600452602487fd5b604460795460405190632c1f8ef160e21b82523460048301526024820152fd5b506079543410613080565b85516001600160a01b0391906132f4908316614533565b81865116156133fe57604051630ae6240f60e11b8152908b82600481305afa91821561203957918991849383926133bf575b5060249051604051958693849263068bcd8d60e01b84526004840152165afa9182156117b757889261339b575b5060408187511692015116036133895761336d8751614a8e565b6133775738613068565b604051630efd728560e21b8152600490fd5b60405163514e24c360e11b8152600490fd5b6133b89192503d808a833e6133b08183613cde565b810190614483565b9038613353565b92509250508b81813d83116133f7575b6133d98183613cde565b810103126129c8575182811681036129c85782918991906024613326565b503d6133cf565b60405163165a825360e21b8152600490fd5b634e487b7160e01b87526021600452602487fd5b60405163273c8bc360e11b8152600490fd5b8780fd5b50346103425760203660031901126103425760406020916004358152608383522054604051908152f35b5034610342578060031936011261034257608060715460725460735460745491604051938452602084015260408301526060820152f35b50346103425780600319360112610342576103f233614631565b5034610342576020366003190112610342576020611ac5600435615043565b50346103425780600319360112610342576065546040516001600160a01b039091168152602090f35b503461034257806003193601126103425760c060018060a01b0380607754169060785416607954607a54607b5491607c5493604051958652602086015260408501526060840152608083015260a0820152f35b50346103425780600319360112610342576020604051629896808152f35b50346103425780600319360112610342576020606e54604051908152f35b5034610342578060031936011261034257607e546040516001600160a01b039091168152602090f35b5034610342576060366003190112610342576001600160401b0390600435828111611133576135e8903690600401613e99565b50602491823590811161113357613603903690600401613f59565b6001600160a01b0390604435828116036103f55761361f6142f2565b613627614306565b8051156138f2576020818051810103126103f5576020015180156138e0578083526080602052604083209160ff6075541660038110156138cd5760011461366c578380f35b818354036138b55760018301928354606954908181116138925750506008810195600160ff88541661369d81613dce565b0361387c576136ab84615043565b8554906136b782614c1c565b1180613873575b6138615786846065541692606854906040518095819363068bcd8d60e01b835260048301525afa918215610c19579160409185938992613841575b5061370690606954614624565b606955015116956004820196868489541687549273eeeeeeeeeeeeeeeeeeeeeeeeeeeeeeeeeeeeeeee8114600014613801575081809381925af1156137f4575b600460ff1982541617905581607e5416600f8360058401541692015491813b156111105791869161378f938360405180968195829463099ea56b60e41b84528b60048501614a2a565b03925af18015611ddc576137cf575b506137c49060008051602061528b83398151915294955416925460405193849384614a2a565b0390a1803880808380f35b9060008051602061528b833981519152946137ec6137c493613c95565b94509061379e565b63b12d13eb86526004601cfd5b8260109160209560449460145260345263a9059cbb60601b82525af13d1560018851141716156138345785603452613746565b6390b8ec1886526004601cfd5b61370691925061385a903d808c833e6133b08183613cde565b91906136f9565b60405163199cf26160e31b8152600490fd5b508015156136be565b6040516344980d8f60e01b815260048101859052fd5b60649185918960405193632c31d85b60e11b855260048501528301526044820152fd5b60405163c1d17bef60e01b8152600481018390528590fd5b634e487b7160e01b855260216004528585fd5b60405163f881a10d60e01b8152600490fd5b604051630317df1360e61b8152600490fd5b503461034257366003190161014081126111335760c0136103425760405161392b81613c7a565b6004356001600160a01b03811681036103f5578152613948613e6c565b602082015260443560408201526064356060820152608435608082015260a43560a0820152608060c319360112611133576040516103f29161398982613c5f565b60c435825260e43560208301526101043560408301526101243560608301526139b0615071565b614e2c565b5034610342576020366003190112610342576139cf613e56565b60018060a01b0390613a02602083606554166068549060405180809581946329e40d4b60e01b835233906004840161451a565b03915afa908115612f07578491613a6d575b5015613a5b577fd6ceddf6d2a22f21c7c81675c518004eff43bc5c8a6fc32a0b748e69d58671cd91602091168060018060a01b0319607d541617607d55604051908152a180f35b60405163075fd2b160e01b8152600490fd5b613a85915060203d8111610c9a57610c8c8183613cde565b38613a14565b50346103425760203660031901126103425760043563ffffffff60e01b81168091036111335760209063f1801e6160e01b8114908115613ad1575b506040519015158152f35b6301ffc9a760e01b14905082613ac6565b503461034257602036600319011261034257604060209160043581526080835220613b6e8154916060613beb6001830154926002810154600382015460018060a01b0360048401541660018060a01b0360058501541660018060a01b036006860154169160078601549360ff600888015416956010613b63600a8a01613d01565b986040519d8e613c5f565b8d600c82015490528f8e90600d8301549101528d604060018060a01b03600e840154169101528d8c600f83015491015201549a6040519e8f9e8f908152015260408d0152888c015260808b015260a08a015260c089015260e0880152613bd381613dce565b6101008701526101e080610120880152860190613e36565b8351610140860152602084015161016086015260408401516001600160a01b03166101808601529201516101a08401526101c08301520390f35b90600182811c92168015613c55575b6020831014613c3f57565b634e487b7160e01b600052602260045260246000fd5b91607f1691613c34565b608081019081106001600160401b038211176110fa57604052565b60c081019081106001600160401b038211176110fa57604052565b6001600160401b0381116110fa57604052565b604081019081106001600160401b038211176110fa57604052565b606081019081106001600160401b038211176110fa57604052565b601f909101601f19168101906001600160401b038211908210176110fa57604052565b9060405191613d0f83613ca8565b8281548152600180920191604051928391600091805490613d2f82613c25565b80865291838116908115613da55750600114613d5c575b50505060209291613d58910384613cde565b0152565b909493925060005260209081600020946000915b818310613d8d57509394509192509082010181613d586020613d46565b86548884018501529586019587945091830191613d70565b60ff191660208781019190915292151560051b860183019450859350613d58929150613d469050565b60071115613dd857565b634e487b7160e01b600052602160045260246000fd5b60005b838110613e015750506000910152565b8181015183820152602001613df1565b90602091613e2a81518092818552858086019101613dee565b601f01601f1916010190565b9060406020613e5393805184520151918160208201520190613e11565b90565b600435906001600160a01b0382168203610c0d57565b602435906001600160a01b0382168203610c0d57565b6001600160401b0381116110fa5760051b60200190565b81601f82011215610c0d57803591613eb083613e82565b92613ebe6040519485613cde565b808452602092838086019260051b820101928311610c0d578301905b828210613ee8575050505090565b81356001600160a01b0381168103610c0d578152908301908301613eda565b6001600160401b0381116110fa57601f01601f191660200190565b929192613f2e82613f07565b91613f3c6040519384613cde565b829481845281830111610c0d578281602093846000960137010152565b9080601f83011215610c0d57816020613e5393359101613f22565b6040600319820112610c0d57600435906001600160401b038211610c0d57613f9e91600401613f59565b906024356001600160a01b0381168103610c0d5790565b906004821015613dd85752565b906003821015613dd85752565b8054821015613fe75760005260206000200190600090565b634e487b7160e01b600052603260045260246000fd5b9181601f84011215610c0d578235916001600160401b038311610c0d5760208381860195010111610c0d57565b6033546001600160a01b0316330361403e57565b606460405162461bcd60e51b815260206004820152602060248201527f4f776e61626c653a2063616c6c6572206973206e6f7420746865206f776e65726044820152fd5b603380546001600160a01b039283166001600160a01b0319821681179092559091166000805160206151cb833981519152600080a3565b156140c057565b60405162461bcd60e51b815260206004820152602c602482015260008051602061516b83398151915260448201526b19195b1959d85d1958d85b1b60a21b6064820152608490fd5b1561410f57565b60405162461bcd60e51b815260206004820152602c602482015260008051602061516b83398151915260448201526b6163746976652070726f787960a01b6064820152608490fd5b803b1561418c5760008051602061518b83398151915280546001600160a01b0319166001600160a01b03909216919091179055565b60405162461bcd60e51b815260206004820152602d60248201527f455243313936373a206e657720696d706c656d656e746174696f6e206973206e60448201526c1bdd08184818dbdb9d1c9858dd609a1b6064820152608490fd5b9192901561424957508151156141fb575090565b3b156142045790565b60405162461bcd60e51b815260206004820152601d60248201527f416464726573733a2063616c6c20746f206e6f6e2d636f6e74726163740000006044820152606490fd5b82519091501561425c5750805190602001fd5b60405162461bcd60e51b815260206004820152908190614280906024830190613e11565b0390fd5b60018060a01b031660018060a01b031960655416176065556040516142c7816142b96020820194602086526040830190613e11565b03601f198101835282613cde565b519020606655565b919082018092116142dc57565b634e487b7160e01b600052601160045260246000fd5b6065546001600160a01b03163303613a5b57565b6068541561431057565b604051630f68fe6360e21b8152600490fd5b1561432957565b60405162461bcd60e51b815260206004820152602b60248201527f496e697469616c697a61626c653a20636f6e7472616374206973206e6f74206960448201526a6e697469616c697a696e6760a81b6064820152608490fd5b60001981146142dc5760010190565b51906001600160a01b0382168203610c0d57565b606080918051845260208101516020850152604081015160408501520151910152565b60a08091600180831b0380825116855260208201511660208501526040810151604085015260608101516060850152608081015160808501520151910152565b9190604083820312610c0d5760405161442081613ca8565b83518152602084015190938491906001600160401b038211610c0d57019082601f83011215610c0d5781519161445583613f07565b936144636040519586613cde565b83855260208483010111610c0d57602092613d5891848087019101613dee565b90602082820312610c0d5781516001600160401b0392838211610c0d570160c081830312610c0d57604051926144b884613c7a565b8151845260208201516001600160a01b0381168103610c0d5760208501526144e260408301614391565b60408501526060820151908111610c0d5760a092614501918301614408565b606084015260808101516080840152015160a082015290565b9081526001600160a01b03909116602082015260400190565b6001600160a01b03161561454357565b6040516303988b8160e61b8152600490fd5b90816020910312610c0d57518015158103610c0d5790565b6001600160a01b0391821681529116602082015260400190565b607f546001600160a01b031680156145f7576145bd9160209160405180809581946302154c3d60e51b835230906004840161456d565b03915afa9081156145eb576000916145d3575090565b613e53915060203d8111610c9a57610c8c8183613cde565b6040513d6000823e3d90fd5b5050600190565b607d546001600160a01b0316330361461257565b6040516357848b5160e11b8152600490fd5b919082039182116142dc57565b607d5460408051637817ee4f60e01b81526020949391926000926001600160a01b0392909183169087818061466a30876004840161456d565b0381855afa8015614846578590614817575b6146899150607054614624565b607055803b15610c5a5783855180926322bcf99960e01b82528183816146b330896004840161456d565b03925af1801561480d576147fa575b501680825260828552828220948351808783829954938481520190865283862092865b858282106147e4575050506146fc92500387613cde565b825b86518110156147b457806147156147389289614a4b565b5180865260808085528787209161472b81614a5f565b61473d575b505050614382565b6146fe565b6000805160206151ab8339815191529260a0928860005260098201885260038b6000208b8154915561478f6002850191614778818454614624565b8355606f614787828254614624565b905585614da7565b54920154918b51938a8552898501528a8c8501526060840152820152a1388080614730565b50929091507f1468da654b37bb3631011c1917d02e0db437d519918858d40b38b5e980ca033b93945051908152a1565b855484526001958601958c9550930192016146e5565b61480690939193613c95565b91386146c2565b85513d86823e3d90fd5b508781813d831161483f575b61482d8183613cde565b81010312610c5e57614689905161467c565b503d614823565b86513d87823e3d90fd5b604091949392606082019560018060a01b0316825260208201520152565b90816020910312610c0d57516001600160a01b0381168103610c0d5790565b90816020910312610c0d575160ff81168103610c0d5790565b604d81116142dc57600a0a90565b818102929181159184041417156142dc57565b81156148d1570490565b634e487b7160e01b600052601260045260246000fd5b8015614a24576149b2816000908360801c80614a18575b508060401c80614a0b575b508060201c806149fe575b508060101c806149f1575b508060081c806149e4575b508060041c806149d7575b508060021c806149ca575b50600191828092811c6149c3575b1c1b61495a81856148c7565b01811c61496781856148c7565b01811c61497481856148c7565b01811c61498181856148c7565b01811c61498e81856148c7565b01811c61499b81856148c7565b01811c6149a881856148c7565b01901c80926148c7565b808210156149be575090565b905090565b018161494e565b6002915091019038614940565b6004915091019038614935565b600891509101903861492a565b601091509101903861491f565b6020915091019038614914565b6040915091019038614909565b915050608090386148fe565b50600090565b9081526001600160a01b039091166020820152604081019190915260600190565b8051821015613fe75760209160051b010190565b60005260806020526040600020805415159081614a7a575090565b600501546001600160a01b03161515919050565b614a9d607154606954906148b4565b62989680918281029281840414901517156142dc57111590565b919091600083820193841291129080158216911516176142dc57565b614add8282614ab7565b9160008312614aeb57505090565b9160649260405192631dde38a160e11b8452600484015260248301526044820152fd5b9091607354906298968093848360801b0490600160801b9182811015614bd8578583965b614b97575050614b4290856148b4565b93858302928084048714901517156142dc5781039081116142dc57614b66916148b4565b9083039283116142dc57614b8392614b7d916148c7565b906142cf565b6001607f1b81019081106142dc5760801c90565b600191818316614bb75780614bab91614cf0565b911c90815b9091614b32565b809250614bc49197614cf0565b9560001981019081116142dc579081614bb0565b60405162461bcd60e51b815260206004820152601c60248201527b0bec240e6d0deead8c840c4ca40d8cae6e640e8d0c2dc4064bc6264760231b6044820152606490fd5b6069548015614cde57614c2e82614a8e565b61337757607154604081901b92600160401b92918015908504841417156142dc578060401b9281840414901517156142dc57614c70614c7c91614c97936148c7565b62989680809404614624565b614c8e8360725460801b0491806148b4565b60401c906148c7565b818102908082048314901517156142dc5760735482039182116142dc57614cca91614cc1916148c7565b607054906148b4565b60401c6074548082116000146149be575090565b60405163ed4421ad60e01b8152600490fd5b90600160801b808311614d5157811015614d0d57614b83916148b4565b60405162461bcd60e51b815260206004820152601c60248201527b0bec440e6d0deead8c840c4ca40d8cae6e640e8d0c2dc4064bc6264760231b6044820152606490fd5b60405162461bcd60e51b815260206004820152602860248201527f5f612073686f756c64206265206c657373207468616e206f7220657175616c206044820152670e8de4064bc6264760c31b6064820152608490fd5b90614db29082614dd9565b9091821580614dd1575b614dcc5760039160078201550155565b505050565b508115614dbc565b4391600782015491838311614e1657838314614e0a576003614dfe614e079486614624565b91015490614b0e565b91565b50505050600090600090565b634e487b7160e01b600052600160045260246000fd5b6020810180516001600160a01b03919082168015159081615036575b81614fb4575b50614ea4575b505081614ea16101409260008051602061520b8339815191529451607155602083015160725560408301516073556060830151607455614e9760405180946143a5565b60808301906143c8565ba1565b606d549193916001600160401b0316614fa257838351169284825116843b15610c0d5760009460248692604051978893849263446adb9960e11b845260048401525af19182156145eb5760008051602061520b8339815191529561014095614ea194614f93575b5060775490607854927fdc20f5c479493aac0cf803ca3b82ebc1964faa557450a37ea0a8121b0e98454f606060405130815284861660208201528487166040820152a18185511660018060a01b031980941617607755511691161760785560408101516079556060810151607a556080810151607b5560a0810151607c559250819350614e54565b614f9c90613c95565b38614f0b565b60405163fcc12b5b60e01b8152600490fd5b60785484161480159150615025575b8015615015575b8015615005575b8015614ff5575b8015614fe5575b38614e4e565b5060a0830151607c541415614fdf565b506080830151607b541415614fd8565b506060830151607a541415614fd1565b5060408301516079541415614fca565b508183511682607754161415614fc3565b8451841615159150614e48565b80600052608060205260406000209080825403612cee57508061506c6002600393015482614da7565b015490565b607d54604051633629edcd60e11b81526001600160a01b03916020908290600490829086165afa9081156145eb576000916150c3575b501633036150b157565b604051637430763f60e11b8152600490fd5b6150db915060203d8111612032576120248183613cde565b386150a7565b908060209392818452848401376000828201840152601f01601f1916010190565b9081526001600160a01b0391821660208201529116604082015260608101919091526080019056fe4910fdfa16fed3260ed0e7147f7cc6da11a60208b5b9406d12a635614ffd914370b752f3fadb6ac131c0ece847fcbb6994ec56ed6411595710fd9b29c6ac6cc146756e6374696f6e206d7573742062652063616c6c6564207468726f75676820360894a13ba1a3210667c828492db98dca3e2076cc3735a920a3ca505d382bbc0227f642ddcf2042ceaeafadb9d540f432072c00cd4862881667168dcc14710f8be0079c531659141344cd1fd0a4f28419497f9722a3daafe3b4186f6b6457e0bc7cd75a20ee27fd9adebab32041f755214dbc6bffa90cc0225b39da2e5c2d3bb47aac82f31da18600e28bcf208952b653a703f7eb216def6198ee31280b955d45524331393637557067726164653a20756e737570706f727465642070726f78416464726573733a206c6f772d6c6576656c2064656c65676174652063616c6c45524331393637557067726164653a206e657720696d706c656d656e74617469a7932e9c92f31e1ed56b29d00bbe669a97484dc24de28dd9c8c0429df7f35847a2646970667358221220637e2f85b9547f42a5ec7349b99466417003874d0612be19e5c0661f18cba89764736f6c63430008130033","linkReferences":{}},"methodIdentifiers":{"D()":"0f529ba2","DISPUTE_COOLDOWN_SEC()":"f5be3f7c","MAX_STAKED_PROPOSALS()":"406244d8","NATIVE()":"a0cf0aea","RULING_OPTIONS()":"626c47e8","activatePoints()":"814516ad","allocate(bytes,address)":"ef2920fc","arbitrableConfig()":"1073e996","calculateConviction(uint256,uint256,uint256)":"346db8cb","calculateThreshold(uint256)":"59a5db8b","canExecuteProposal(uint256)":"824ea8ed","cloneNonce()":"33960459","collateralVault()":"0bece79c","cvParams()":"2506b870","deactivatePoints()":"1ddf1e23","deactivatePoints(address)":"6453d9c4","decreasePower(address,uint256)":"2ed04b2b","disputeCount()":"a28889e1","disputeIdToProposalId(uint256)":"255ffb38","disputeProposal(uint256,string,bytes)":"b41596ec","distribute(address[],bytes,address)":"0a6f0ee9","getAllo()":"15cc481e","getDecay()":"9a1c157c","getMaxAmount()":"0ba95909","getMaxConviction(uint256)":"950559d7","getMetadata(uint256)":"a574cea4","getPayouts(address[],bytes[])":"b2b878d0","getPointSystem()":"c3292171","getPoolAmount()":"4ab4ba42","getPoolId()":"38fff2d0","getProposal(uint256)":"c7f758a8","getProposalStakedAmount(uint256)":"dc96ff2d","getProposalVoterStake(uint256,address)":"e0dd2c38","getRecipientStatus(address)":"eb11af93","getStrategyId()":"42fda9c7","getTotalVoterStakePct(address)":"bcc5b93b","increasePoolAmount(uint256)":"f5b0dfb7","increasePower(address,uint256)":"782aadff","init(address,address)":"f09a4016","init(address,string)":"f321b305","initialize(uint256,bytes)":"edd146cc","isPoolActive()":"df868ed3","isValidAllocator(address)":"4d31d087","owner()":"8da5cb5b","pointConfig()":"a47ff7e5","pointSystem()":"2dbd6fdd","proposalCounter()":"0c0512e9","proposalType()":"351d9f96","proposals(uint256)":"013cf08b","proxiableUUID()":"52d1902d","registerRecipient(bytes,address)":"2bbe0cae","registryCommunity()":"6003e414","renounceOwnership()":"715018a6","rule(uint256,uint256)":"311a6c56","setPoolActive(bool)":"b5f620ce","setPoolParams((address,address,uint256,uint256,uint256,uint256),(uint256,uint256,uint256,uint256))":"062f9ece","setRegistryCommunity(address)":"058aca44","setSybilScorer(address)":"ac1ed7b9","supportProposal((uint256,int256)[])":"e33add93","supportsInterface(bytes4)":"01ffc9a7","sybilScorer()":"b6c61f31","totalEffectiveActivePoints()":"d1e36232","totalPointsActivated()":"aba9ffee","totalStaked()":"817b1cd2","totalVoterStakePct(address)":"5db64b99","transferOwnership(address)":"f2fde38b","updateProposalConviction(uint256)":"1aa91a9e","upgradeTo(address)":"3659cfe6","upgradeToAndCall(address,bytes)":"4f1ef286","voterStakedProposals(address,uint256)":"868c57b8"},"storageLayout":{"storage":[{"astId":53071,"contract":"pkg/contracts/src/CVStrategyV0_0.sol:CVStrategyV0_0","label":"_initialized","offset":0,"slot":"0","type":"t_uint8"},{"astId":53074,"contract":"pkg/contracts/src/CVStrategyV0_0.sol:CVStrategyV0_0","label":"_initializing","offset":1,"slot":"0","type":"t_bool"},{"astId":53776,"contract":"pkg/contracts/src/CVStrategyV0_0.sol:CVStrategyV0_0","label":"__gap","offset":0,"slot":"1","type":"t_array(t_uint256)50_storage"},{"astId":52863,"contract":"pkg/contracts/src/CVStrategyV0_0.sol:CVStrategyV0_0","label":"_owner","offset":0,"slot":"51","type":"t_address"},{"astId":52983,"contract":"pkg/contracts/src/CVStrategyV0_0.sol:CVStrategyV0_0","label":"__gap","offset":0,"slot":"52","type":"t_array(t_uint256)49_storage"},{"astId":71786,"contract":"pkg/contracts/src/CVStrategyV0_0.sol:CVStrategyV0_0","label":"allo","offset":0,"slot":"101","type":"t_contract(IAllo)2610"},{"astId":71788,"contract":"pkg/contracts/src/CVStrategyV0_0.sol:CVStrategyV0_0","label":"strategyId","offset":0,"slot":"102","type":"t_bytes32"},{"astId":71790,"contract":"pkg/contracts/src/CVStrategyV0_0.sol:CVStrategyV0_0","label":"poolActive","offset":0,"slot":"103","type":"t_bool"},{"astId":71792,"contract":"pkg/contracts/src/CVStrategyV0_0.sol:CVStrategyV0_0","label":"poolId","offset":0,"slot":"104","type":"t_uint256"},{"astId":71794,"contract":"pkg/contracts/src/CVStrategyV0_0.sol:CVStrategyV0_0","label":"poolAmount","offset":0,"slot":"105","type":"t_uint256"},{"astId":72796,"contract":"pkg/contracts/src/CVStrategyV0_0.sol:CVStrategyV0_0","label":"collateralVaultTemplate","offset":0,"slot":"106","type":"t_address"},{"astId":72798,"contract":"pkg/contracts/src/CVStrategyV0_0.sol:CVStrategyV0_0","label":"surpressStateMutabilityWarning","offset":0,"slot":"107","type":"t_uint256"},{"astId":72800,"contract":"pkg/contracts/src/CVStrategyV0_0.sol:CVStrategyV0_0","label":"cloneNonce","offset":0,"slot":"108","type":"t_uint256"},{"astId":72803,"contract":"pkg/contracts/src/CVStrategyV0_0.sol:CVStrategyV0_0","label":"disputeCount","offset":0,"slot":"109","type":"t_uint64"},{"astId":72806,"contract":"pkg/contracts/src/CVStrategyV0_0.sol:CVStrategyV0_0","label":"proposalCounter","offset":0,"slot":"110","type":"t_uint256"},{"astId":72808,"contract":"pkg/contracts/src/CVStrategyV0_0.sol:CVStrategyV0_0","label":"totalStaked","offset":0,"slot":"111","type":"t_uint256"},{"astId":72810,"contract":"pkg/contracts/src/CVStrategyV0_0.sol:CVStrategyV0_0","label":"totalPointsActivated","offset":0,"slot":"112","type":"t_uint256"},{"astId":72813,"contract":"pkg/contracts/src/CVStrategyV0_0.sol:CVStrategyV0_0","label":"cvParams","offset":0,"slot":"113","type":"t_struct(CVParams)72542_storage"},{"astId":72816,"contract":"pkg/contracts/src/CVStrategyV0_0.sol:CVStrategyV0_0","label":"proposalType","offset":0,"slot":"117","type":"t_enum(ProposalType)72445"},{"astId":72819,"contract":"pkg/contracts/src/CVStrategyV0_0.sol:CVStrategyV0_0","label":"pointSystem","offset":1,"slot":"117","type":"t_enum(PointSystem)72450"},{"astId":72822,"contract":"pkg/contracts/src/CVStrategyV0_0.sol:CVStrategyV0_0","label":"pointConfig","offset":0,"slot":"118","type":"t_struct(PointSystemConfig)72519_storage"},{"astId":72825,"contract":"pkg/contracts/src/CVStrategyV0_0.sol:CVStrategyV0_0","label":"arbitrableConfig","offset":0,"slot":"119","type":"t_struct(ArbitrableConfig)72533_storage"},{"astId":72828,"contract":"pkg/contracts/src/CVStrategyV0_0.sol:CVStrategyV0_0","label":"registryCommunity","offset":0,"slot":"125","type":"t_contract(RegistryCommunityV0_0)78776"},{"astId":72831,"contract":"pkg/contracts/src/CVStrategyV0_0.sol:CVStrategyV0_0","label":"collateralVault","offset":0,"slot":"126","type":"t_contract(ICollateralVault)79699"},{"astId":72834,"contract":"pkg/contracts/src/CVStrategyV0_0.sol:CVStrategyV0_0","label":"sybilScorer","offset":0,"slot":"127","type":"t_contract(ISybilScorer)76330"},{"astId":72839,"contract":"pkg/contracts/src/CVStrategyV0_0.sol:CVStrategyV0_0","label":"proposals","offset":0,"slot":"128","type":"t_mapping(t_uint256,t_struct(Proposal)72511_storage)"},{"astId":72843,"contract":"pkg/contracts/src/CVStrategyV0_0.sol:CVStrategyV0_0","label":"totalVoterStakePct","offset":0,"slot":"129","type":"t_mapping(t_address,t_uint256)"},{"astId":72848,"contract":"pkg/contracts/src/CVStrategyV0_0.sol:CVStrategyV0_0","label":"voterStakedProposals","offset":0,"slot":"130","type":"t_mapping(t_address,t_array(t_uint256)dyn_storage)"},{"astId":72852,"contract":"pkg/contracts/src/CVStrategyV0_0.sol:CVStrategyV0_0","label":"disputeIdToProposalId","offset":0,"slot":"131","type":"t_mapping(t_uint256,t_uint256)"},{"astId":75968,"contract":"pkg/contracts/src/CVStrategyV0_0.sol:CVStrategyV0_0","label":"__gap","offset":0,"slot":"132","type":"t_array(t_uint256)50_storage"}],"types":{"t_address":{"encoding":"inplace","label":"address","numberOfBytes":"20"},"t_array(t_uint256)49_storage":{"encoding":"inplace","label":"uint256[49]","numberOfBytes":"1568","base":"t_uint256"},"t_array(t_uint256)50_storage":{"encoding":"inplace","label":"uint256[50]","numberOfBytes":"1600","base":"t_uint256"},"t_array(t_uint256)dyn_storage":{"encoding":"dynamic_array","label":"uint256[]","numberOfBytes":"32","base":"t_uint256"},"t_bool":{"encoding":"inplace","label":"bool","numberOfBytes":"1"},"t_bytes32":{"encoding":"inplace","label":"bytes32","numberOfBytes":"32"},"t_contract(IAllo)2610":{"encoding":"inplace","label":"contract IAllo","numberOfBytes":"20"},"t_contract(IArbitrator)79666":{"encoding":"inplace","label":"contract IArbitrator","numberOfBytes":"20"},"t_contract(ICollateralVault)79699":{"encoding":"inplace","label":"contract ICollateralVault","numberOfBytes":"20"},"t_contract(ISybilScorer)76330":{"encoding":"inplace","label":"contract ISybilScorer","numberOfBytes":"20"},"t_contract(RegistryCommunityV0_0)78776":{"encoding":"inplace","label":"contract RegistryCommunityV0_0","numberOfBytes":"20"},"t_enum(PointSystem)72450":{"encoding":"inplace","label":"enum StrategyStruct.PointSystem","numberOfBytes":"1"},"t_enum(ProposalStatus)72470":{"encoding":"inplace","label":"enum StrategyStruct.ProposalStatus","numberOfBytes":"1"},"t_enum(ProposalType)72445":{"encoding":"inplace","label":"enum StrategyStruct.ProposalType","numberOfBytes":"1"},"t_mapping(t_address,t_array(t_uint256)dyn_storage)":{"encoding":"mapping","key":"t_address","label":"mapping(address => uint256[])","numberOfBytes":"32","value":"t_array(t_uint256)dyn_storage"},"t_mapping(t_address,t_uint256)":{"encoding":"mapping","key":"t_address","label":"mapping(address => uint256)","numberOfBytes":"32","value":"t_uint256"},"t_mapping(t_uint256,t_struct(Proposal)72511_storage)":{"encoding":"mapping","key":"t_uint256","label":"mapping(uint256 => struct StrategyStruct.Proposal)","numberOfBytes":"32","value":"t_struct(Proposal)72511_storage"},"t_mapping(t_uint256,t_uint256)":{"encoding":"mapping","key":"t_uint256","label":"mapping(uint256 => uint256)","numberOfBytes":"32","value":"t_uint256"},"t_string_storage":{"encoding":"bytes","label":"string","numberOfBytes":"32"},"t_struct(ArbitrableConfig)72533_storage":{"encoding":"inplace","label":"struct StrategyStruct.ArbitrableConfig","numberOfBytes":"192","members":[{"astId":72522,"contract":"pkg/contracts/src/CVStrategyV0_0.sol:CVStrategyV0_0","label":"arbitrator","offset":0,"slot":"0","type":"t_contract(IArbitrator)79666"},{"astId":72524,"contract":"pkg/contracts/src/CVStrategyV0_0.sol:CVStrategyV0_0","label":"tribunalSafe","offset":0,"slot":"1","type":"t_address"},{"astId":72526,"contract":"pkg/contracts/src/CVStrategyV0_0.sol:CVStrategyV0_0","label":"submitterCollateralAmount","offset":0,"slot":"2","type":"t_uint256"},{"astId":72528,"contract":"pkg/contracts/src/CVStrategyV0_0.sol:CVStrategyV0_0","label":"challengerCollateralAmount","offset":0,"slot":"3","type":"t_uint256"},{"astId":72530,"contract":"pkg/contracts/src/CVStrategyV0_0.sol:CVStrategyV0_0","label":"defaultRuling","offset":0,"slot":"4","type":"t_uint256"},{"astId":72532,"contract":"pkg/contracts/src/CVStrategyV0_0.sol:CVStrategyV0_0","label":"defaultRulingTimeout","offset":0,"slot":"5","type":"t_uint256"}]},"t_struct(CVParams)72542_storage":{"encoding":"inplace","label":"struct StrategyStruct.CVParams","numberOfBytes":"128","members":[{"astId":72535,"contract":"pkg/contracts/src/CVStrategyV0_0.sol:CVStrategyV0_0","label":"maxRatio","offset":0,"slot":"0","type":"t_uint256"},{"astId":72537,"contract":"pkg/contracts/src/CVStrategyV0_0.sol:CVStrategyV0_0","label":"weight","offset":0,"slot":"1","type":"t_uint256"},{"astId":72539,"contract":"pkg/contracts/src/CVStrategyV0_0.sol:CVStrategyV0_0","label":"decay","offset":0,"slot":"2","type":"t_uint256"},{"astId":72541,"contract":"pkg/contracts/src/CVStrategyV0_0.sol:CVStrategyV0_0","label":"minThresholdPoints","offset":0,"slot":"3","type":"t_uint256"}]},"t_struct(Metadata)3098_storage":{"encoding":"inplace","label":"struct Metadata","numberOfBytes":"64","members":[{"astId":3094,"contract":"pkg/contracts/src/CVStrategyV0_0.sol:CVStrategyV0_0","label":"protocol","offset":0,"slot":"0","type":"t_uint256"},{"astId":3097,"contract":"pkg/contracts/src/CVStrategyV0_0.sol:CVStrategyV0_0","label":"pointer","offset":0,"slot":"1","type":"t_string_storage"}]},"t_struct(PointSystemConfig)72519_storage":{"encoding":"inplace","label":"struct StrategyStruct.PointSystemConfig","numberOfBytes":"32","members":[{"astId":72518,"contract":"pkg/contracts/src/CVStrategyV0_0.sol:CVStrategyV0_0","label":"maxAmount","offset":0,"slot":"0","type":"t_uint256"}]},"t_struct(Proposal)72511_storage":{"encoding":"inplace","label":"struct StrategyStruct.Proposal","numberOfBytes":"544","members":[{"astId":72481,"contract":"pkg/contracts/src/CVStrategyV0_0.sol:CVStrategyV0_0","label":"proposalId","offset":0,"slot":"0","type":"t_uint256"},{"astId":72483,"contract":"pkg/contracts/src/CVStrategyV0_0.sol:CVStrategyV0_0","label":"requestedAmount","offset":0,"slot":"1","type":"t_uint256"},{"astId":72485,"contract":"pkg/contracts/src/CVStrategyV0_0.sol:CVStrategyV0_0","label":"stakedAmount","offset":0,"slot":"2","type":"t_uint256"},{"astId":72487,"contract":"pkg/contracts/src/CVStrategyV0_0.sol:CVStrategyV0_0","label":"convictionLast","offset":0,"slot":"3","type":"t_uint256"},{"astId":72489,"contract":"pkg/contracts/src/CVStrategyV0_0.sol:CVStrategyV0_0","label":"beneficiary","offset":0,"slot":"4","type":"t_address"},{"astId":72491,"contract":"pkg/contracts/src/CVStrategyV0_0.sol:CVStrategyV0_0","label":"submitter","offset":0,"slot":"5","type":"t_address"},{"astId":72493,"contract":"pkg/contracts/src/CVStrategyV0_0.sol:CVStrategyV0_0","label":"requestedToken","offset":0,"slot":"6","type":"t_address"},{"astId":72495,"contract":"pkg/contracts/src/CVStrategyV0_0.sol:CVStrategyV0_0","label":"blockLast","offset":0,"slot":"7","type":"t_uint256"},{"astId":72498,"contract":"pkg/contracts/src/CVStrategyV0_0.sol:CVStrategyV0_0","label":"proposalStatus","offset":0,"slot":"8","type":"t_enum(ProposalStatus)72470"},{"astId":72502,"contract":"pkg/contracts/src/CVStrategyV0_0.sol:CVStrategyV0_0","label":"voterStakedPoints","offset":0,"slot":"9","type":"t_mapping(t_address,t_uint256)"},{"astId":72505,"contract":"pkg/contracts/src/CVStrategyV0_0.sol:CVStrategyV0_0","label":"metadata","offset":0,"slot":"10","type":"t_struct(Metadata)3098_storage"},{"astId":72508,"contract":"pkg/contracts/src/CVStrategyV0_0.sol:CVStrategyV0_0","label":"disputeInfo","offset":0,"slot":"12","type":"t_struct(ProposalDisputeInfo)72479_storage"},{"astId":72510,"contract":"pkg/contracts/src/CVStrategyV0_0.sol:CVStrategyV0_0","label":"lastDisputeCompletion","offset":0,"slot":"16","type":"t_uint256"}]},"t_struct(ProposalDisputeInfo)72479_storage":{"encoding":"inplace","label":"struct StrategyStruct.ProposalDisputeInfo","numberOfBytes":"128","members":[{"astId":72472,"contract":"pkg/contracts/src/CVStrategyV0_0.sol:CVStrategyV0_0","label":"disputeId","offset":0,"slot":"0","type":"t_uint256"},{"astId":72474,"contract":"pkg/contracts/src/CVStrategyV0_0.sol:CVStrategyV0_0","label":"disputeTimestamp","offset":0,"slot":"1","type":"t_uint256"},{"astId":72476,"contract":"pkg/contracts/src/CVStrategyV0_0.sol:CVStrategyV0_0","label":"challenger","offset":0,"slot":"2","type":"t_address"},{"astId":72478,"contract":"pkg/contracts/src/CVStrategyV0_0.sol:CVStrategyV0_0","label":"submitterCollateralVault","offset":0,"slot":"3","type":"t_uint256"}]},"t_uint256":{"encoding":"inplace","label":"uint256","numberOfBytes":"32"},"t_uint64":{"encoding":"inplace","label":"uint64","numberOfBytes":"8"},"t_uint8":{"encoding":"inplace","label":"uint8","numberOfBytes":"1"}}},"id":111}