{"abi":[{"type":"fallback","stateMutability":"payable"},{"type":"receive","stateMutability":"payable"},{"type":"function","name":"D","inputs":[],"outputs":[{"name":"","type":"uint64","internalType":"uint64"}],"stateMutability":"view"},{"type":"function","name":"DISPUTE_COOLDOWN_SEC","inputs":[],"outputs":[{"name":"","type":"uint32","internalType":"uint32"}],"stateMutability":"view"},{"type":"function","name":"NATIVE","inputs":[],"outputs":[{"name":"","type":"address","internalType":"address"}],"stateMutability":"view"},{"type":"function","name":"RULING_OPTIONS","inputs":[],"outputs":[{"name":"","type":"uint8","internalType":"uint8"}],"stateMutability":"view"},{"type":"function","name":"activatePoints","inputs":[],"outputs":[],"stateMutability":"nonpayable"},{"type":"function","name":"allocate","inputs":[{"name":"_data","type":"bytes","internalType":"bytes"},{"name":"_sender","type":"address","internalType":"address"}],"outputs":[],"stateMutability":"payable"},{"type":"function","name":"arbitrableConfig","inputs":[],"outputs":[{"name":"arbitrator","type":"address","internalType":"contract IArbitrator"},{"name":"tribunalSafe","type":"address","internalType":"address"},{"name":"submitterCollateralAmount","type":"uint256","internalType":"uint256"},{"name":"challengerCollateralAmount","type":"uint256","internalType":"uint256"},{"name":"defaultRuling","type":"uint256","internalType":"uint256"},{"name":"defaultRulingTimeout","type":"uint256","internalType":"uint256"}],"stateMutability":"view"},{"type":"function","name":"calculateConviction","inputs":[{"name":"_timePassed","type":"uint256","internalType":"uint256"},{"name":"_lastConv","type":"uint256","internalType":"uint256"},{"name":"_oldAmount","type":"uint256","internalType":"uint256"}],"outputs":[{"name":"","type":"uint256","internalType":"uint256"}],"stateMutability":"view"},{"type":"function","name":"calculateThreshold","inputs":[{"name":"_requestedAmount","type":"uint256","internalType":"uint256"}],"outputs":[{"name":"_threshold","type":"uint256","internalType":"uint256"}],"stateMutability":"view"},{"type":"function","name":"canExecuteProposal","inputs":[{"name":"proposalId","type":"uint256","internalType":"uint256"}],"outputs":[{"name":"canBeExecuted","type":"bool","internalType":"bool"}],"stateMutability":"view"},{"type":"function","name":"cloneNonce","inputs":[],"outputs":[{"name":"","type":"uint256","internalType":"uint256"}],"stateMutability":"view"},{"type":"function","name":"collateralVault","inputs":[],"outputs":[{"name":"","type":"address","internalType":"contract ICollateralVault"}],"stateMutability":"view"},{"type":"function","name":"cvParams","inputs":[],"outputs":[{"name":"maxRatio","type":"uint256","internalType":"uint256"},{"name":"weight","type":"uint256","internalType":"uint256"},{"name":"decay","type":"uint256","internalType":"uint256"},{"name":"minThresholdPoints","type":"uint256","internalType":"uint256"}],"stateMutability":"view"},{"type":"function","name":"deactivatePoints","inputs":[],"outputs":[],"stateMutability":"nonpayable"},{"type":"function","name":"deactivatePoints","inputs":[{"name":"_member","type":"address","internalType":"address"}],"outputs":[],"stateMutability":"nonpayable"},{"type":"function","name":"decreasePower","inputs":[{"name":"_member","type":"address","internalType":"address"},{"name":"_amountToUnstake","type":"uint256","internalType":"uint256"}],"outputs":[{"name":"","type":"uint256","internalType":"uint256"}],"stateMutability":"nonpayable"},{"type":"function","name":"disputeCount","inputs":[],"outputs":[{"name":"","type":"uint64","internalType":"uint64"}],"stateMutability":"view"},{"type":"function","name":"disputeIdToProposalId","inputs":[{"name":"","type":"uint256","internalType":"uint256"}],"outputs":[{"name":"","type":"uint256","internalType":"uint256"}],"stateMutability":"view"},{"type":"function","name":"disputeProposal","inputs":[{"name":"proposalId","type":"uint256","internalType":"uint256"},{"name":"context","type":"string","internalType":"string"},{"name":"_extraData","type":"bytes","internalType":"bytes"}],"outputs":[],"stateMutability":"payable"},{"type":"function","name":"distribute","inputs":[{"name":"_recipientIds","type":"address[]","internalType":"address[]"},{"name":"_data","type":"bytes","internalType":"bytes"},{"name":"_sender","type":"address","internalType":"address"}],"outputs":[],"stateMutability":"nonpayable"},{"type":"function","name":"getAllo","inputs":[],"outputs":[{"name":"","type":"address","internalType":"contract IAllo"}],"stateMutability":"view"},{"type":"function","name":"getCollateralAmounts","inputs":[],"outputs":[{"name":"","type":"uint256","internalType":"uint256"},{"name":"","type":"uint256","internalType":"uint256"}],"stateMutability":"view"},{"type":"function","name":"getMaxAmount","inputs":[],"outputs":[{"name":"","type":"uint256","internalType":"uint256"}],"stateMutability":"view"},{"type":"function","name":"getMaxConviction","inputs":[{"name":"amount","type":"uint256","internalType":"uint256"}],"outputs":[{"name":"","type":"uint256","internalType":"uint256"}],"stateMutability":"view"},{"type":"function","name":"getMetadata","inputs":[{"name":"_proposalId","type":"uint256","internalType":"uint256"}],"outputs":[{"name":"","type":"tuple","internalType":"struct Metadata","components":[{"name":"protocol","type":"uint256","internalType":"uint256"},{"name":"pointer","type":"string","internalType":"string"}]}],"stateMutability":"view"},{"type":"function","name":"getPayouts","inputs":[{"name":"","type":"address[]","internalType":"address[]"},{"name":"","type":"bytes[]","internalType":"bytes[]"}],"outputs":[{"name":"","type":"tuple[]","internalType":"struct IStrategy.PayoutSummary[]","components":[{"name":"recipientAddress","type":"address","internalType":"address"},{"name":"amount","type":"uint256","internalType":"uint256"}]}],"stateMutability":"pure"},{"type":"function","name":"getPointSystem","inputs":[],"outputs":[{"name":"","type":"uint8","internalType":"enum StrategyStruct.PointSystem"}],"stateMutability":"view"},{"type":"function","name":"getPoolAmount","inputs":[],"outputs":[{"name":"","type":"uint256","internalType":"uint256"}],"stateMutability":"view"},{"type":"function","name":"getPoolId","inputs":[],"outputs":[{"name":"","type":"uint256","internalType":"uint256"}],"stateMutability":"view"},{"type":"function","name":"getProposal","inputs":[{"name":"_proposalId","type":"uint256","internalType":"uint256"}],"outputs":[{"name":"submitter","type":"address","internalType":"address"},{"name":"beneficiary","type":"address","internalType":"address"},{"name":"requestedToken","type":"address","internalType":"address"},{"name":"requestedAmount","type":"uint256","internalType":"uint256"},{"name":"stakedAmount","type":"uint256","internalType":"uint256"},{"name":"proposalStatus","type":"uint8","internalType":"enum StrategyStruct.ProposalStatus"},{"name":"blockLast","type":"uint256","internalType":"uint256"},{"name":"convictionLast","type":"uint256","internalType":"uint256"},{"name":"threshold","type":"uint256","internalType":"uint256"},{"name":"voterStakedPoints","type":"uint256","internalType":"uint256"}],"stateMutability":"view"},{"type":"function","name":"getProposalStakedAmount","inputs":[{"name":"_proposalId","type":"uint256","internalType":"uint256"}],"outputs":[{"name":"","type":"uint256","internalType":"uint256"}],"stateMutability":"view"},{"type":"function","name":"getProposalVoterStake","inputs":[{"name":"_proposalId","type":"uint256","internalType":"uint256"},{"name":"_voter","type":"address","internalType":"address"}],"outputs":[{"name":"","type":"uint256","internalType":"uint256"}],"stateMutability":"view"},{"type":"function","name":"getRecipientStatus","inputs":[{"name":"_recipientId","type":"address","internalType":"address"}],"outputs":[{"name":"","type":"uint8","internalType":"enum IStrategy.Status"}],"stateMutability":"view"},{"type":"function","name":"getStrategyId","inputs":[],"outputs":[{"name":"","type":"bytes32","internalType":"bytes32"}],"stateMutability":"view"},{"type":"function","name":"getTotalVoterStakePct","inputs":[{"name":"_voter","type":"address","internalType":"address"}],"outputs":[{"name":"","type":"uint256","internalType":"uint256"}],"stateMutability":"view"},{"type":"function","name":"increasePoolAmount","inputs":[{"name":"_amount","type":"uint256","internalType":"uint256"}],"outputs":[],"stateMutability":"nonpayable"},{"type":"function","name":"increasePower","inputs":[{"name":"_member","type":"address","internalType":"address"},{"name":"_amountToStake","type":"uint256","internalType":"uint256"}],"outputs":[{"name":"","type":"uint256","internalType":"uint256"}],"stateMutability":"nonpayable"},{"type":"function","name":"init","inputs":[{"name":"_allo","type":"address","internalType":"address"}],"outputs":[],"stateMutability":"nonpayable"},{"type":"function","name":"init","inputs":[{"name":"_allo","type":"address","internalType":"address"},{"name":"_name","type":"string","internalType":"string"}],"outputs":[],"stateMutability":"nonpayable"},{"type":"function","name":"initialize","inputs":[{"name":"_poolId","type":"uint256","internalType":"uint256"},{"name":"_data","type":"bytes","internalType":"bytes"}],"outputs":[],"stateMutability":"nonpayable"},{"type":"function","name":"isPoolActive","inputs":[],"outputs":[{"name":"","type":"bool","internalType":"bool"}],"stateMutability":"view"},{"type":"function","name":"isValidAllocator","inputs":[{"name":"_allocator","type":"address","internalType":"address"}],"outputs":[{"name":"","type":"bool","internalType":"bool"}],"stateMutability":"view"},{"type":"function","name":"owner","inputs":[],"outputs":[{"name":"","type":"address","internalType":"address"}],"stateMutability":"view"},{"type":"function","name":"pointConfig","inputs":[],"outputs":[{"name":"maxAmount","type":"uint256","internalType":"uint256"}],"stateMutability":"view"},{"type":"function","name":"pointSystem","inputs":[],"outputs":[{"name":"","type":"uint8","internalType":"enum StrategyStruct.PointSystem"}],"stateMutability":"view"},{"type":"function","name":"proposalCounter","inputs":[],"outputs":[{"name":"","type":"uint256","internalType":"uint256"}],"stateMutability":"view"},{"type":"function","name":"proposalType","inputs":[],"outputs":[{"name":"","type":"uint8","internalType":"enum StrategyStruct.ProposalType"}],"stateMutability":"view"},{"type":"function","name":"proposals","inputs":[{"name":"","type":"uint256","internalType":"uint256"}],"outputs":[{"name":"proposalId","type":"uint256","internalType":"uint256"},{"name":"requestedAmount","type":"uint256","internalType":"uint256"},{"name":"stakedAmount","type":"uint256","internalType":"uint256"},{"name":"convictionLast","type":"uint256","internalType":"uint256"},{"name":"beneficiary","type":"address","internalType":"address"},{"name":"submitter","type":"address","internalType":"address"},{"name":"requestedToken","type":"address","internalType":"address"},{"name":"blockLast","type":"uint256","internalType":"uint256"},{"name":"proposalStatus","type":"uint8","internalType":"enum StrategyStruct.ProposalStatus"},{"name":"metadata","type":"tuple","internalType":"struct Metadata","components":[{"name":"protocol","type":"uint256","internalType":"uint256"},{"name":"pointer","type":"string","internalType":"string"}]},{"name":"disputeId","type":"uint256","internalType":"uint256"},{"name":"disputeTimestamp","type":"uint256","internalType":"uint256"},{"name":"challenger","type":"address","internalType":"address"}],"stateMutability":"view"},{"type":"function","name":"proxiableUUID","inputs":[],"outputs":[{"name":"","type":"bytes32","internalType":"bytes32"}],"stateMutability":"view"},{"type":"function","name":"registerRecipient","inputs":[{"name":"_data","type":"bytes","internalType":"bytes"},{"name":"_sender","type":"address","internalType":"address"}],"outputs":[{"name":"recipientId","type":"address","internalType":"address"}],"stateMutability":"payable"},{"type":"function","name":"registryCommunity","inputs":[],"outputs":[{"name":"","type":"address","internalType":"contract RegistryCommunityV0_0"}],"stateMutability":"view"},{"type":"function","name":"renounceOwnership","inputs":[],"outputs":[],"stateMutability":"nonpayable"},{"type":"function","name":"rule","inputs":[{"name":"_disputeID","type":"uint256","internalType":"uint256"},{"name":"_ruling","type":"uint256","internalType":"uint256"}],"outputs":[],"stateMutability":"nonpayable"},{"type":"function","name":"setPoolActive","inputs":[{"name":"_active","type":"bool","internalType":"bool"}],"outputs":[],"stateMutability":"nonpayable"},{"type":"function","name":"setPoolParams","inputs":[{"name":"_arbitrableConfig","type":"tuple","internalType":"struct StrategyStruct.ArbitrableConfig","components":[{"name":"arbitrator","type":"address","internalType":"contract IArbitrator"},{"name":"tribunalSafe","type":"address","internalType":"address"},{"name":"submitterCollateralAmount","type":"uint256","internalType":"uint256"},{"name":"challengerCollateralAmount","type":"uint256","internalType":"uint256"},{"name":"defaultRuling","type":"uint256","internalType":"uint256"},{"name":"defaultRulingTimeout","type":"uint256","internalType":"uint256"}]},{"name":"_cvParams","type":"tuple","internalType":"struct StrategyStruct.CVParams","components":[{"name":"maxRatio","type":"uint256","internalType":"uint256"},{"name":"weight","type":"uint256","internalType":"uint256"},{"name":"decay","type":"uint256","internalType":"uint256"},{"name":"minThresholdPoints","type":"uint256","internalType":"uint256"}]}],"outputs":[],"stateMutability":"nonpayable"},{"type":"function","name":"setRegistryCommunity","inputs":[{"name":"_registryCommunity","type":"address","internalType":"address"}],"outputs":[],"stateMutability":"nonpayable"},{"type":"function","name":"setSybilScorer","inputs":[{"name":"_sybilScorer","type":"address","internalType":"address"}],"outputs":[],"stateMutability":"nonpayable"},{"type":"function","name":"supportProposal","inputs":[{"name":"","type":"tuple[]","internalType":"struct StrategyStruct.ProposalSupport[]","components":[{"name":"proposalId","type":"uint256","internalType":"uint256"},{"name":"deltaSupport","type":"int256","internalType":"int256"}]}],"outputs":[],"stateMutability":"pure"},{"type":"function","name":"supportsInterface","inputs":[{"name":"interfaceId","type":"bytes4","internalType":"bytes4"}],"outputs":[{"name":"","type":"bool","internalType":"bool"}],"stateMutability":"view"},{"type":"function","name":"sybilScorer","inputs":[],"outputs":[{"name":"","type":"address","internalType":"contract ISybilScorer"}],"stateMutability":"view"},{"type":"function","name":"totalEffectiveActivePoints","inputs":[],"outputs":[{"name":"","type":"uint256","internalType":"uint256"}],"stateMutability":"view"},{"type":"function","name":"totalPointsActivated","inputs":[],"outputs":[{"name":"","type":"uint256","internalType":"uint256"}],"stateMutability":"view"},{"type":"function","name":"totalStaked","inputs":[],"outputs":[{"name":"","type":"uint256","internalType":"uint256"}],"stateMutability":"view"},{"type":"function","name":"totalVoterStakePct","inputs":[{"name":"","type":"address","internalType":"address"}],"outputs":[{"name":"","type":"uint256","internalType":"uint256"}],"stateMutability":"view"},{"type":"function","name":"transferOwnership","inputs":[{"name":"newOwner","type":"address","internalType":"address"}],"outputs":[],"stateMutability":"nonpayable"},{"type":"function","name":"updateProposalConviction","inputs":[{"name":"proposalId","type":"uint256","internalType":"uint256"}],"outputs":[{"name":"","type":"uint256","internalType":"uint256"}],"stateMutability":"nonpayable"},{"type":"function","name":"upgradeTo","inputs":[{"name":"newImplementation","type":"address","internalType":"address"}],"outputs":[],"stateMutability":"nonpayable"},{"type":"function","name":"upgradeToAndCall","inputs":[{"name":"newImplementation","type":"address","internalType":"address"},{"name":"data","type":"bytes","internalType":"bytes"}],"outputs":[],"stateMutability":"payable"},{"type":"function","name":"voterStakedProposals","inputs":[{"name":"","type":"address","internalType":"address"},{"name":"","type":"uint256","internalType":"uint256"}],"outputs":[{"name":"","type":"uint256","internalType":"uint256"}],"stateMutability":"view"},{"type":"event","name":"AdminChanged","inputs":[{"name":"previousAdmin","type":"address","indexed":false,"internalType":"address"},{"name":"newAdmin","type":"address","indexed":false,"internalType":"address"}],"anonymous":false},{"type":"event","name":"Allocated","inputs":[{"name":"recipientId","type":"address","indexed":true,"internalType":"address"},{"name":"amount","type":"uint256","indexed":false,"internalType":"uint256"},{"name":"token","type":"address","indexed":false,"internalType":"address"},{"name":"sender","type":"address","indexed":false,"internalType":"address"}],"anonymous":false},{"type":"event","name":"BeaconUpgraded","inputs":[{"name":"beacon","type":"address","indexed":true,"internalType":"address"}],"anonymous":false},{"type":"event","name":"DisputeRequest","inputs":[{"name":"_arbitrator","type":"address","indexed":true,"internalType":"contract IArbitrator"},{"name":"_arbitrableDisputeID","type":"uint256","indexed":true,"internalType":"uint256"},{"name":"_externalDisputeID","type":"uint256","indexed":false,"internalType":"uint256"},{"name":"_templateId","type":"uint256","indexed":false,"internalType":"uint256"},{"name":"_templateUri","type":"string","indexed":false,"internalType":"string"}],"anonymous":false},{"type":"event","name":"Distributed","inputs":[{"name":"proposalId","type":"uint256","indexed":false,"internalType":"uint256"},{"name":"beneficiary","type":"address","indexed":false,"internalType":"address"},{"name":"amount","type":"uint256","indexed":false,"internalType":"uint256"}],"anonymous":false},{"type":"event","name":"Distributed","inputs":[{"name":"recipientId","type":"address","indexed":true,"internalType":"address"},{"name":"recipientAddress","type":"address","indexed":false,"internalType":"address"},{"name":"amount","type":"uint256","indexed":false,"internalType":"uint256"},{"name":"sender","type":"address","indexed":false,"internalType":"address"}],"anonymous":false},{"type":"event","name":"Initialized","inputs":[{"name":"poolId","type":"uint256","indexed":false,"internalType":"uint256"},{"name":"data","type":"bytes","indexed":false,"internalType":"bytes"}],"anonymous":false},{"type":"event","name":"Initialized","inputs":[{"name":"version","type":"uint8","indexed":false,"internalType":"uint8"}],"anonymous":false},{"type":"event","name":"InitializedCV","inputs":[{"name":"poolId","type":"uint256","indexed":false,"internalType":"uint256"},{"name":"data","type":"tuple","indexed":false,"internalType":"struct StrategyStruct.InitializeParams","components":[{"name":"cvParams","type":"tuple","internalType":"struct StrategyStruct.CVParams","components":[{"name":"maxRatio","type":"uint256","internalType":"uint256"},{"name":"weight","type":"uint256","internalType":"uint256"},{"name":"decay","type":"uint256","internalType":"uint256"},{"name":"minThresholdPoints","type":"uint256","internalType":"uint256"}]},{"name":"proposalType","type":"uint8","internalType":"enum StrategyStruct.ProposalType"},{"name":"pointSystem","type":"uint8","internalType":"enum StrategyStruct.PointSystem"},{"name":"pointConfig","type":"tuple","internalType":"struct StrategyStruct.PointSystemConfig","components":[{"name":"maxAmount","type":"uint256","internalType":"uint256"}]},{"name":"arbitrableConfig","type":"tuple","internalType":"struct StrategyStruct.ArbitrableConfig","components":[{"name":"arbitrator","type":"address","internalType":"contract IArbitrator"},{"name":"tribunalSafe","type":"address","internalType":"address"},{"name":"submitterCollateralAmount","type":"uint256","internalType":"uint256"},{"name":"challengerCollateralAmount","type":"uint256","internalType":"uint256"},{"name":"defaultRuling","type":"uint256","internalType":"uint256"},{"name":"defaultRulingTimeout","type":"uint256","internalType":"uint256"}]},{"name":"registryCommunity","type":"address","internalType":"address"},{"name":"sybilScorer","type":"address","internalType":"address"}]}],"anonymous":false},{"type":"event","name":"MinThresholdPointsUpdated","inputs":[{"name":"before","type":"uint256","indexed":false,"internalType":"uint256"},{"name":"minThresholdPoints","type":"uint256","indexed":false,"internalType":"uint256"}],"anonymous":false},{"type":"event","name":"OwnershipTransferred","inputs":[{"name":"previousOwner","type":"address","indexed":true,"internalType":"address"},{"name":"newOwner","type":"address","indexed":true,"internalType":"address"}],"anonymous":false},{"type":"event","name":"PointsDeactivated","inputs":[{"name":"member","type":"address","indexed":false,"internalType":"address"}],"anonymous":false},{"type":"event","name":"PoolActive","inputs":[{"name":"active","type":"bool","indexed":false,"internalType":"bool"}],"anonymous":false},{"type":"event","name":"PoolAmountIncreased","inputs":[{"name":"amount","type":"uint256","indexed":false,"internalType":"uint256"}],"anonymous":false},{"type":"event","name":"PoolParamsUpdated","inputs":[{"name":"cvParams","type":"tuple","indexed":false,"internalType":"struct StrategyStruct.CVParams","components":[{"name":"maxRatio","type":"uint256","internalType":"uint256"},{"name":"weight","type":"uint256","internalType":"uint256"},{"name":"decay","type":"uint256","internalType":"uint256"},{"name":"minThresholdPoints","type":"uint256","internalType":"uint256"}]},{"name":"arbitrableConfig","type":"tuple","indexed":false,"internalType":"struct StrategyStruct.ArbitrableConfig","components":[{"name":"arbitrator","type":"address","internalType":"contract IArbitrator"},{"name":"tribunalSafe","type":"address","internalType":"address"},{"name":"submitterCollateralAmount","type":"uint256","internalType":"uint256"},{"name":"challengerCollateralAmount","type":"uint256","internalType":"uint256"},{"name":"defaultRuling","type":"uint256","internalType":"uint256"},{"name":"defaultRulingTimeout","type":"uint256","internalType":"uint256"}]}],"anonymous":false},{"type":"event","name":"PowerDecreased","inputs":[{"name":"member","type":"address","indexed":false,"internalType":"address"},{"name":"tokensUnStaked","type":"uint256","indexed":false,"internalType":"uint256"},{"name":"pointsToDecrease","type":"uint256","indexed":false,"internalType":"uint256"}],"anonymous":false},{"type":"event","name":"PowerIncreased","inputs":[{"name":"member","type":"address","indexed":false,"internalType":"address"},{"name":"tokensStaked","type":"uint256","indexed":false,"internalType":"uint256"},{"name":"pointsToIncrease","type":"uint256","indexed":false,"internalType":"uint256"}],"anonymous":false},{"type":"event","name":"ProposalCreated","inputs":[{"name":"poolId","type":"uint256","indexed":false,"internalType":"uint256"},{"name":"proposalId","type":"uint256","indexed":false,"internalType":"uint256"}],"anonymous":false},{"type":"event","name":"ProposalDisputed","inputs":[{"name":"arbitrator","type":"address","indexed":false,"internalType":"contract IArbitrator"},{"name":"proposalId","type":"uint256","indexed":false,"internalType":"uint256"},{"name":"disputeId","type":"uint256","indexed":false,"internalType":"uint256"},{"name":"challenger","type":"address","indexed":false,"internalType":"address"},{"name":"context","type":"string","indexed":false,"internalType":"string"},{"name":"timestamp","type":"uint256","indexed":false,"internalType":"uint256"}],"anonymous":false},{"type":"event","name":"Registered","inputs":[{"name":"recipientId","type":"address","indexed":true,"internalType":"address"},{"name":"data","type":"bytes","indexed":false,"internalType":"bytes"},{"name":"sender","type":"address","indexed":false,"internalType":"address"}],"anonymous":false},{"type":"event","name":"RegistryUpdated","inputs":[{"name":"registryCommunity","type":"address","indexed":false,"internalType":"address"}],"anonymous":false},{"type":"event","name":"Ruling","inputs":[{"name":"_arbitrator","type":"address","indexed":true,"internalType":"contract IArbitrator"},{"name":"_disputeID","type":"uint256","indexed":true,"internalType":"uint256"},{"name":"_ruling","type":"uint256","indexed":false,"internalType":"uint256"}],"anonymous":false},{"type":"event","name":"SupportAdded","inputs":[{"name":"from","type":"address","indexed":false,"internalType":"address"},{"name":"proposalId","type":"uint256","indexed":false,"internalType":"uint256"},{"name":"amount","type":"uint256","indexed":false,"internalType":"uint256"},{"name":"totalStakedAmount","type":"uint256","indexed":false,"internalType":"uint256"},{"name":"convictionLast","type":"uint256","indexed":false,"internalType":"uint256"}],"anonymous":false},{"type":"event","name":"TribunaSafeRegistered","inputs":[{"name":"strategy","type":"address","indexed":false,"internalType":"address"},{"name":"arbitrator","type":"address","indexed":false,"internalType":"address"},{"name":"tribunalSafe","type":"address","indexed":false,"internalType":"address"}],"anonymous":false},{"type":"event","name":"Upgraded","inputs":[{"name":"implementation","type":"address","indexed":true,"internalType":"address"}],"anonymous":false},{"type":"error","name":"ALLOCATION_ACTIVE","inputs":[]},{"type":"error","name":"ALLOCATION_NOT_ACTIVE","inputs":[]},{"type":"error","name":"ALLOCATION_NOT_ENDED","inputs":[]},{"type":"error","name":"ALREADY_INITIALIZED","inputs":[]},{"type":"error","name":"AMOUNT_MISMATCH","inputs":[]},{"type":"error","name":"ANCHOR_ERROR","inputs":[]},{"type":"error","name":"ARRAY_MISMATCH","inputs":[]},{"type":"error","name":"AmountOverMaxRatio","inputs":[]},{"type":"error","name":"ArbitrationConfigCannotBeChangedDuringDispute","inputs":[]},{"type":"error","name":"CantIncreaseFixedSystem","inputs":[]},{"type":"error","name":"ConvictionUnderMinimumThreshold","inputs":[]},{"type":"error","name":"DefaultRulingNotSet","inputs":[]},{"type":"error","name":"INVALID","inputs":[]},{"type":"error","name":"INVALID_ADDRESS","inputs":[]},{"type":"error","name":"INVALID_FEE","inputs":[]},{"type":"error","name":"INVALID_METADATA","inputs":[]},{"type":"error","name":"INVALID_REGISTRATION","inputs":[]},{"type":"error","name":"IS_APPROVED_STRATEGY","inputs":[]},{"type":"error","name":"InsufficientCollateral","inputs":[{"name":"sentAmount","type":"uint256","internalType":"uint256"},{"name":"requiredAmount","type":"uint256","internalType":"uint256"}]},{"type":"error","name":"MISMATCH","inputs":[]},{"type":"error","name":"MaxPointsReached","inputs":[]},{"type":"error","name":"NONCE_NOT_AVAILABLE","inputs":[]},{"type":"error","name":"NOT_APPROVED_STRATEGY","inputs":[]},{"type":"error","name":"NOT_ENOUGH_FUNDS","inputs":[]},{"type":"error","name":"NOT_IMPLEMENTED","inputs":[]},{"type":"error","name":"NOT_INITIALIZED","inputs":[]},{"type":"error","name":"NOT_PENDING_OWNER","inputs":[]},{"type":"error","name":"NotEnoughPointsToSupport","inputs":[{"name":"pointsSupport","type":"uint256","internalType":"uint256"},{"name":"pointsBalance","type":"uint256","internalType":"uint256"}]},{"type":"error","name":"NotImplemented","inputs":[]},{"type":"error","name":"OnlyArbitrator","inputs":[]},{"type":"error","name":"OnlyCommunityAllowed","inputs":[]},{"type":"error","name":"OnlyCouncilSafe","inputs":[]},{"type":"error","name":"POOL_ACTIVE","inputs":[]},{"type":"error","name":"POOL_INACTIVE","inputs":[]},{"type":"error","name":"PoolAmountNotEnough","inputs":[{"name":"_proposalId","type":"uint256","internalType":"uint256"},{"name":"_requestedAmount","type":"uint256","internalType":"uint256"},{"name":"_poolAmount","type":"uint256","internalType":"uint256"}]},{"type":"error","name":"PoolIsEmpty","inputs":[]},{"type":"error","name":"ProposalDataIsEmpty","inputs":[]},{"type":"error","name":"ProposalIdCannotBeZero","inputs":[]},{"type":"error","name":"ProposalNotActive","inputs":[{"name":"_proposalId","type":"uint256","internalType":"uint256"}]},{"type":"error","name":"ProposalNotDisputed","inputs":[{"name":"_proposalId","type":"uint256","internalType":"uint256"}]},{"type":"error","name":"ProposalNotInList","inputs":[{"name":"_proposalId","type":"uint256","internalType":"uint256"}]},{"type":"error","name":"ProposalSupportDuplicated","inputs":[{"name":"_proposalId","type":"uint256","internalType":"uint256"},{"name":"index","type":"uint256","internalType":"uint256"}]},{"type":"error","name":"RECIPIENT_ALREADY_ACCEPTED","inputs":[]},{"type":"error","name":"RECIPIENT_ERROR","inputs":[{"name":"recipientId","type":"address","internalType":"address"}]},{"type":"error","name":"RECIPIENT_NOT_ACCEPTED","inputs":[]},{"type":"error","name":"REGISTRATION_NOT_ACTIVE","inputs":[]},{"type":"error","name":"SupportUnderflow","inputs":[{"name":"_support","type":"uint256","internalType":"uint256"},{"name":"_delta","type":"int256","internalType":"int256"},{"name":"_result","type":"int256","internalType":"int256"}]},{"type":"error","name":"TokenNotAllowed","inputs":[]},{"type":"error","name":"UNAUTHORIZED","inputs":[]},{"type":"error","name":"UserCannotExecuteAction","inputs":[]},{"type":"error","name":"UserIsInactive","inputs":[]},{"type":"error","name":"UserNotInRegistry","inputs":[]},{"type":"error","name":"ZERO_ADDRESS","inputs":[]}],"bytecode":{"object":"0x60a060405230608052606a80546001600160a01b031916733b1fbfb04db3585920b2eadbb8839fc9680fe8cd179055606c80546001600160401b03191690556000606d5534801561004f57600080fd5b50608051615fe662000088600039600081816116b6015281816116f601528181611789015281816117c901526118410152615fe66000f3fe60806040526004361061030b5760003560e01c8063013cf08b1461031457806301ffc9a714610356578063058aca4414610386578063062f9ece146103a65780630a6f0ee9146103c65780630ba95909146103e65780630bece79c146104055780630c0512e9146104325780630f529ba2146104485780631073e9961461047757806315cc481e146104e657806319ab453c146105045780631aa91a9e146105245780631ddf1e23146105445780632506b87014610559578063255ffb381461059c5780632bbe0cae146105c95780632dbd6fdd146105dc5780632ed04b2b14610608578063311a6c56146106285780633396045914610648578063346db8cb1461065e578063351d9f961461067e5780633659cfe6146106a557806338fff2d0146106c557806342fda9c7146106da5780634ab4ba42146106ef5780634d31d087146107045780634f1ef2861461072457806352d1902d1461073757806359a5db8b1461074c5780635db64b991461076c5780636003e41414610799578063626c47e8146107b95780636453d9c4146107e0578063715018a614610800578063782aadff14610815578063814516ad14610835578063817b1cd21461084a578063824ea8ed14610860578063868c57b8146108805780638da5cb5b146108a0578063950559d7146108b5578063a0cf0aea146108d5578063a28889e1146108fd578063a47ff7e51461091d578063a574cea414610934578063aba9ffee14610961578063ac1ed7b914610977578063b2b878d014610997578063b41596ec146109c4578063b5f620ce146109d7578063b6c61f31146109f7578063bcc5b93b14610a17578063c329217114610a37578063c46dac0e14610a54578063c7f758a814610a75578063d1e3623214610aab578063dc96ff2d14610ac0578063df868ed314610af0578063e0dd2c3814610b05578063e33add9314610b25578063eb11af9314610b45578063edd146cc14610b72578063ef2920fc14610b92578063f2fde38b14610ba5578063f321b30514610bc5578063f5b0dfb714610be5578063f5be3f7c14610c0557005b3661031257005b005b34801561032057600080fd5b5061033461032f36600461492a565b610c30565b60405161034d9d9c9b9a999897969594939291906149d8565b60405180910390f35b34801561036257600080fd5b50610376610371366004614a65565b610d5a565b604051901515815260200161034d565b34801561039257600080fd5b506103126103a1366004614aa4565b610d91565b3480156103b257600080fd5b506103126103c1366004614bb7565b610df2565b3480156103d257600080fd5b506103126103e1366004614d8c565b610e08565b3480156103f257600080fd5b506075545b60405190815260200161034d565b34801561041157600080fd5b50607d54610425906001600160a01b031681565b60405161034d9190614e03565b34801561043e57600080fd5b506103f7606d5481565b34801561045457600080fd5b5061045f6298968081565b6040516001600160401b03909116815260200161034d565b34801561048357600080fd5b50607654607754607854607954607a54607b546104ae956001600160a01b0390811695169392919086565b604080516001600160a01b039788168152969095166020870152938501929092526060840152608083015260a082015260c00161034d565b3480156104f257600080fd5b506065546001600160a01b0316610425565b34801561051057600080fd5b5061031261051f366004614aa4565b610e28565b34801561053057600080fd5b506103f761053f36600461492a565b610f6a565b34801561055057600080fd5b50610312610ff0565b34801561056557600080fd5b5060705460715460725460735461057c9392919084565b60408051948552602085019390935291830152606082015260800161034d565b3480156105a857600080fd5b506103f76105b736600461492a565b60826020526000908152604090205481565b6104256105d7366004614e17565b610ffb565b3480156105e857600080fd5b506074546105fb90610100900460ff1681565b60405161034d9190614e7c565b34801561061457600080fd5b506103f7610623366004614e8a565b61101e565b34801561063457600080fd5b50610312610643366004614eb6565b6110e2565b34801561065457600080fd5b506103f7606b5481565b34801561066a57600080fd5b506103f7610679366004614ed8565b611612565b34801561068a57600080fd5b506074546106989060ff1681565b60405161034d9190614f14565b3480156106b157600080fd5b506103126106c0366004614aa4565b6116ac565b3480156106d157600080fd5b506068546103f7565b3480156106e657600080fd5b506066546103f7565b3480156106fb57600080fd5b506069546103f7565b34801561071057600080fd5b5061037661071f366004614aa4565b611774565b610312610732366004614f22565b61177f565b34801561074357600080fd5b506103f7611834565b34801561075857600080fd5b506103f761076736600461492a565b6118e2565b34801561077857600080fd5b506103f7610787366004614aa4565b60806020526000908152604090205481565b3480156107a557600080fd5b50607c54610425906001600160a01b031681565b3480156107c557600080fd5b506107ce600381565b60405160ff909116815260200161034d565b3480156107ec57600080fd5b506103126107fb366004614aa4565b6119eb565b34801561080c57600080fd5b506103126119fc565b34801561082157600080fd5b506103f7610830366004614e8a565b611a0e565b34801561084157600080fd5b50610312611ba0565b34801561085657600080fd5b506103f7606e5481565b34801561086c57600080fd5b5061037661087b36600461492a565b611cb7565b34801561088c57600080fd5b506103f761089b366004614e8a565b611d14565b3480156108ac57600080fd5b50610425611d45565b3480156108c157600080fd5b506103f76108d036600461492a565b611d54565b3480156108e157600080fd5b5061042573eeeeeeeeeeeeeeeeeeeeeeeeeeeeeeeeeeeeeeee81565b34801561090957600080fd5b50606c5461045f906001600160401b031681565b34801561092957600080fd5b506075546103f79081565b34801561094057600080fd5b5061095461094f36600461492a565b611d7e565b60405161034d9190614f71565b34801561096d57600080fd5b506103f7606f5481565b34801561098357600080fd5b50610312610992366004614aa4565b611e5d565b3480156109a357600080fd5b506109b76109b2366004614f84565b611e87565b60405161034d9190615058565b6103126109d23660046150f1565b611ea2565b3480156109e357600080fd5b506103126109f2366004615178565b612112565b348015610a0357600080fd5b50607e54610425906001600160a01b031681565b348015610a2357600080fd5b506103f7610a32366004614aa4565b61211b565b348015610a4357600080fd5b50607454610100900460ff166105fb565b348015610a6057600080fd5b5060785460795460405161034d929190615195565b348015610a8157600080fd5b50610a95610a9036600461492a565b612136565b60405161034d9a999897969594939291906151a3565b348015610ab757600080fd5b50606f546103f7565b348015610acc57600080fd5b506103f7610adb36600461492a565b6000908152607f602052604090206002015490565b348015610afc57600080fd5b50610376612238565b348015610b1157600080fd5b506103f7610b20366004615209565b61224b565b348015610b3157600080fd5b50610312610b4036600461522e565b612276565b348015610b5157600080fd5b50610b65610b60366004614aa4565b61228f565b60405161034d91906152d8565b348015610b7e57600080fd5b50610312610b8d3660046152eb565b61229a565b610312610ba0366004614e17565b612470565b348015610bb157600080fd5b50610312610bc0366004614aa4565b61248a565b348015610bd157600080fd5b50610312610be036600461531b565b612500565b348015610bf157600080fd5b50610312610c0036600461492a565b61254b565b348015610c1157600080fd5b50610c1b611c2081565b60405163ffffffff909116815260200161034d565b607f602090815260009182526040918290208054600182015460028301546003840154600485015460058601546006870154600788015460088901548b51808d01909c52600a8a0180548d52600b8b0180549a9d999c989b979a6001600160a01b039788169a968816999790951697939660ff9093169593949192840191610cb790615374565b80601f0160208091040260200160405190810160405280929190818152602001828054610ce390615374565b8015610d305780601f10610d0557610100808354040283529160200191610d30565b820191906000526020600020905b815481529060010190602001808311610d1357829003601f168201915b50505091909252505050600c820154600d830154600e90930154919290916001600160a01b03168d565b60006001600160e01b0319821663f1801e6160e01b1480610d8b57506301ffc9a760e01b6001600160e01b03198316145b92915050565b33610d9b81612574565b607c80546001600160a01b0319166001600160a01b0384161790556040517fd6ceddf6d2a22f21c7c81675c518004eff43bc5c8a6fc32a0b748e69d58671cd90610de6908490614e03565b60405180910390a15050565b610dfa612605565b610e0482826126ad565b5050565b610e106127b6565b610e186127e1565b610e23838383612804565b505050565b600054610100900460ff1615808015610e485750600054600160ff909116105b80610e695750610e5730612b3c565b158015610e69575060005460ff166001145b610ed15760405162461bcd60e51b815260206004820152602e60248201527f496e697469616c697a61626c653a20636f6e747261637420697320616c72656160448201526d191e481a5b9a5d1a585b1a5e995960921b60648201526084015b60405180910390fd5b6000805460ff191660011790558015610ef4576000805461ff0019166101001790555b610f20826040518060400160405280600a8152602001694356537472617465677960b01b815250612500565b610f28612b4b565b8015610e04576000805461ff0019169055604051600181527f7f26b83ff96e1f2b6a682f133852f6798a09c465da95921460cefb384740249890602001610de6565b6000818152607f6020526040812080548314610f9c5760405163c1d17bef60e01b815260048101849052602401610ec8565b6001600882015460ff166006811115610fb757610fb7614943565b14610fd8576040516344980d8f60e01b815260048101849052602401610ec8565b610fe6818260020154612b7a565b6003015492915050565b610ff933612bb5565b565b60006110056127b6565b61100d6127e1565b6110178383612ce5565b9392505050565b600061102861303e565b60006002607454610100900460ff16600381111561104857611048614943565b148061106f57506001607454610100900460ff16600381111561106d5761106d614943565b145b1561107b575081611088565b6110858484613069565b90505b80606f600082825461109a91906153be565b90915550506040517f70b752f3fadb6ac131c0ece847fcbb6994ec56ed6411595710fd9b29c6ac6cc1906110d3908690869085906153d1565b60405180910390a19392505050565b600082815260826020908152604080832054808452607f9092529091206005600882015460ff16600681111561111a5761111a614943565b1461113b57604051634b011ca960e11b815260048101839052602401610ec8565b607b54600d82015460009161114f916153f2565b4211905080158161116b57506076546001600160a01b03163314155b1561118957604051631777988560e11b815260040160405180910390fd5b8080611193575083155b156112d457607a546000036111bb57604051630dd466dd60e41b815260040160405180910390fd5b607a546001036111d95760088201805460ff191660011790556111f3565b607a546002036111f35760088201805460ff191660061790555b607d54600e83015460795460405163099ea56b60e41b81526001600160a01b03938416936399ea56b0936112309389939290911691600401615405565b600060405180830381600087803b15801561124a57600080fd5b505af115801561125e573d6000803e3d6000fd5b5050607d54600585015460785460405163099ea56b60e41b81526001600160a01b0393841695506399ea56b0945061129d938993169190600401615405565b600060405180830381600087803b1580156112b757600080fd5b505af11580156112cb573d6000803e3d6000fd5b5050505061158d565b836001036113975760088201805460ff19166001179055607d54600e830154607c5460408051633629edcd60e11b815290516001600160a01b0394851694638969ab5394899490821693911691636c53db9a916004808201926020929091908290030181865afa15801561134c573d6000803e3d6000fd5b505050506040513d601f19601f820116820180604052508101906113709190615424565b6079546040516001600160e01b031960e087901b16815261129d9493929190600401615441565b8360020361158d5760088201805460ff19166006179055607d54600e83015460795460405163099ea56b60e41b81526001600160a01b03938416936399ea56b0936113eb9389939290911691600401615405565b600060405180830381600087803b15801561140557600080fd5b505af1158015611419573d6000803e3d6000fd5b5050607d546005850154607c5460408051633629edcd60e11b815290516001600160a01b039485169650638969ab53955089949384169390921691636c53db9a916004808201926020929091908290030181865afa15801561147f573d6000803e3d6000fd5b505050506040513d601f19601f820116820180604052508101906114a39190615424565b6078546114b29060029061547c565b6040518563ffffffff1660e01b81526004016114d19493929190615441565b600060405180830381600087803b1580156114eb57600080fd5b505af11580156114ff573d6000803e3d6000fd5b5050607d546005850154600e8601546078546001600160a01b039384169550638969ab5394508893928316929091169061153b9060029061547c565b6040518563ffffffff1660e01b815260040161155a9493929190615441565b600060405180830381600087803b15801561157457600080fd5b505af1158015611588573d6000803e3d6000fd5b505050505b606c80546001600160401b03169060006115a68361549e565b82546001600160401b039182166101009390930a92830291909202199091161790555060765460405185815286916001600160a01b0316907f394027a5fa6e098a1191094d1719d6929b9abc535fcc0c8f448d6a4e756222769060200160405180910390a35050505050565b607254600090849082906116379061163190629896809060801b61547c565b83613270565b6072549091506080906001607f1b9061165390629896806153be565b61166184600160801b6153be565b61166e62989680896154c1565b61167891906154c1565b611682919061547c565b61168c88856154c1565b61169691906153f2565b6116a091906153f2565b901c9695505050505050565b6001600160a01b037f00000000000000000000000000000000000000000000000000000000000000001630036116f45760405162461bcd60e51b8152600401610ec8906154d8565b7f00000000000000000000000000000000000000000000000000000000000000006001600160a01b0316611726613318565b6001600160a01b03161461174c5760405162461bcd60e51b8152600401610ec890615512565b61175581613334565b604080516000808252602082019092526117719183919061333c565b50565b6000610d8b826134a7565b6001600160a01b037f00000000000000000000000000000000000000000000000000000000000000001630036117c75760405162461bcd60e51b8152600401610ec8906154d8565b7f00000000000000000000000000000000000000000000000000000000000000006001600160a01b03166117f9613318565b6001600160a01b03161461181f5760405162461bcd60e51b8152600401610ec890615512565b61182882613334565b610e048282600161333c565b6000306001600160a01b037f000000000000000000000000000000000000000000000000000000000000000016146118cf5760405162461bcd60e51b815260206004820152603860248201527f555550535570677261646561626c653a206d757374206e6f742062652063616c6044820152771b1959081d1a1c9bdd59da0819195b1959d85d1958d85b1b60421b6064820152608401610ec8565b50600080516020615f2a83398151915290565b600080606954116118f557506000919050565b6118fe826134c7565b1561191c57604051630efd728560e21b815260040160405180910390fd5b60695460009061193084600160401b6154c1565b61193a919061547c565b607054629896809061195090600160401b6154c1565b61195a919061547c565b61196491906153be565b90506040611971606f5490565b60725461198190629896806153be565b62989680604061199186806154c1565b607154911c906119a890629896809060801b61547c565b6119b2919061547c565b6119bc91906154c1565b6119c6919061547c565b6119d091906154c1565b607354911c925082116119e557607354611017565b50919050565b6119f361303e565b61177181612bb5565b611a046134ee565b610ff9600061354d565b6000611a1861303e565b611a218361359f565b611a3e57604051630b72d6b160e31b815260040160405180910390fd5b60006002607454610100900460ff166003811115611a5e57611a5e614943565b03611a6c57825b9050611ac9565b6001607454610100900460ff166003811115611a8a57611a8a614943565b03611a9957611a65848461362d565b6003607454610100900460ff166003811115611ab757611ab7614943565b03611ac957611ac684846136d4565b90505b607c5460405163011de97360e61b81526000916001600160a01b03169063477a5cc090611afc908890309060040161554c565b602060405180830381865afa158015611b19573d6000803e3d6000fd5b505050506040513d601f19601f82011682018060405250810190611b3d9190615566565b90508015611b5d5781606f6000828254611b5791906153f2565b90915550505b7f0b9150e1e54346ed3fa36b977cd5d65dca5a649c737c3174a26bddaadd47667a858584604051611b90939291906153d1565b60405180910390a1509392505050565b33611baa8161359f565b611bc757604051630b72d6b160e31b815260040160405180910390fd5b607c54604051630d4a8b4960e01b81526001600160a01b0390911690630d4a8b4990611bf9908490309060040161554c565b600060405180830381600087803b158015611c1357600080fd5b505af1158015611c27573d6000803e3d6000fd5b5050607c54604051637817ee4f60e01b81526001600160a01b039091169250637817ee4f9150611c5d908490309060040161554c565b602060405180830381865afa158015611c7a573d6000803e3d6000fd5b505050506040513d601f19601f82011682018060405250810190611c9e9190615583565b606f6000828254611caf91906153f2565b909155505050565b6000818152607f60205260408120600281015482908190611cd99084906138d9565b91509150816000148015611ceb575080155b15611cf857826003015491505b6000611d0784600101546118e2565b9092101595945050505050565b60816020528160005260406000208181548110611d3057600080fd5b90600052602060002001600091509150505481565b6033546001600160a01b031690565b607254600090611d6790629896806153be565b611d7462989680846154c1565b610d8b919061547c565b6040805180820190915260008152606060208201526000607f6000848152602001908152602001600020905080600a0160405180604001604052908160008201548152602001600182018054611dd390615374565b80601f0160208091040260200160405190810160405280929190818152602001828054611dff90615374565b8015611e4c5780601f10611e2157610100808354040283529160200191611e4c565b820191906000526020600020905b815481529060010190602001808311611e2f57829003601f168201915b505050505081525050915050919050565b611e65612605565b607e80546001600160a01b0319166001600160a01b0392909216919091179055565b606060405163d623472560e01b815260040160405180910390fd5b6000858152607f6020526040902080548614611ed45760405163c1d17bef60e01b815260048101879052602401610ec8565b6001600882015460ff166006811115611eef57611eef614943565b14611f10576040516344980d8f60e01b815260048101879052602401610ec8565b6079543411611f3757607954604051632c1f8ef160e21b8152610ec8913491600401615195565b607954600090611f4790346153be565b607d5460795460405163240ff7c560e11b81529293506001600160a01b039091169163481fef8a9190611f80908b90339060040161559c565b6000604051808303818588803b158015611f9957600080fd5b505af1158015611fad573d6000803e3d6000fd5b505060765460405163c13517e160e01b8152600094506001600160a01b03909116925063c13517e191508490611fec906003908a908a906004016155dc565b60206040518083038185885af115801561200a573d6000803e3d6000fd5b50505050506040513d601f19601f8201168201806040525081019061202f9190615583565b60088401805491925060059160ff19166001830217905550600c830181905542600d840155600e830180546001600160a01b031916331790556000818152608260205260408120899055606c80546001600160401b03169161209083615602565b82546001600160401b039182166101009390930a928302919092021990911617905550607654600d8401546040517f034f6a48076db1bcaaa311ccdc43d473aff44d3918a76fe0fae27c8b3665016d92612100926001600160a01b03909116918c91869133918e918e9190615630565b60405180910390a15050505050505050565b61177181613931565b6001600160a01b031660009081526080602052604090205490565b6000806000806000806000806000806000607f60008d81526020019081526020016000209050806001015460001461217a5761217581600101546118e2565b61217d565b60005b92508060050160009054906101000a90046001600160a01b03168160040160009054906101000a90046001600160a01b03168260060160009054906101000a90046001600160a01b0316836001015484600201548560080160009054906101000a900460ff16866007015487600301548a896009016000336001600160a01b03166001600160a01b03168152602001908152602001600020549a509a509a509a509a509a509a509a509a509a50509193959799509193959799565b600061224660675460ff1690565b905090565b6000828152607f602090815260408083206001600160a01b0385168452600901909152812054611017565b60405163d623472560e01b815260040160405180910390fd5b6000610d8b82613972565b6122a26127b6565b6122ab82613992565b606a54606b80546122d4926001600160a01b03169160006122cb8361567f565b919050556139e1565b607d80546001600160a01b0319166001600160a01b039290921691821790556040805163204a7f0760e21b81529051638129fc1c9160048082019260009290919082900301818387803b15801561232a57600080fd5b505af115801561233e573d6000803e3d6000fd5b505050506000818060200190518101906123589190615773565b60a0810151607c80546001600160a01b0319166001600160a01b03909216919091179055602081015160748054929350909160ff191660018360028111156123a2576123a2614943565b021790555060408101516074805461ff0019166101008360038111156123ca576123ca614943565b021790555060608101515160755560c0810151607e80546001600160a01b0319166001600160a01b039092169190911790556080810151815161240d91906126ad565b60c0810151607e80546001600160a01b0319166001600160a01b039092169190911790556040517fe5315be7b0ab27f8044fa25213ec2851fa61dd47203db658cf77f45f39ffc37b9061246390859084906158a9565b60405180910390a1505050565b6124786127b6565b6124806127e1565b610e048282613a30565b6124926134ee565b6001600160a01b0381166124f75760405162461bcd60e51b815260206004820152602660248201527f4f776e61626c653a206e6577206f776e657220697320746865207a65726f206160448201526564647265737360d01b6064820152608401610ec8565b6117718161354d565b606580546001600160a01b0319166001600160a01b03841617905560405161252c908290602001615933565b60408051601f1981840301815291905280516020909101206066555050565b6125536127b6565b806069600082825461256591906153f2565b90915550611771905081613b25565b6065546068546040516329e40d4b60e01b81526001600160a01b03909216916329e40d4b916125a791859060040161559c565b602060405180830381865afa1580156125c4573d6000803e3d6000fd5b505050506040513d601f19601f820116820180604052508101906125e89190615566565b6117715760405163075fd2b160e01b815260040160405180910390fd5b607c60009054906101000a90046001600160a01b03166001600160a01b0316636c53db9a6040518163ffffffff1660e01b8152600401602060405180830381865afa158015612658573d6000803e3d6000fd5b505050506040513d601f19601f8201168201806040525081019061267c9190615424565b6001600160a01b0316336001600160a01b031614610ff957604051637430763f60e11b815260040160405180910390fd5b60775460208301516001600160a01b0390811691161415806126d55750607854604083015114155b806126e65750607954606083015114155b806126f75750607a54608083015114155b1561276857606c546001600160401b031660000361271457600080fd5b8151607680546001600160a01b039283166001600160a01b031991821617909155602084015160778054919093169116179055604082015160785560608201516079556080820151607a5560a0820151607b555b805160705560208101516071556040808201516072556060820151607355517fb47aac82f31da18600e28bcf208952b653a703f7eb216def6198ee31280b955d90610de69083908590615946565b6065546001600160a01b03163314610ff95760405163075fd2b160e01b815260040160405180910390fd5b606854600003610ff957604051630f68fe6360e21b815260040160405180910390fd5b600082511161282657604051630317df1360e61b815260040160405180910390fd5b60008280602001905181019061283c9190615583565b90508060000361285f5760405163f881a10d60e01b815260040160405180910390fd5b6000818152607f60205260409020600160745460ff16600281111561288657612886614943565b03612b3557805482146128af5760405163c1d17bef60e01b815260048101839052602401610ec8565b606954816001015411156128e257818160010154606954604051632c31d85b60e11b8152600401610ec893929190615962565b6001600882015460ff1660068111156128fd576128fd614943565b1461291e576040516344980d8f60e01b815260048101839052602401610ec8565b600061292983610f6a565b9050600061293a83600101546118e2565b9050808210801561294f575060008360010154115b1561296d5760405163199cf26160e31b815260040160405180910390fd5b60655460685460405163068bcd8d60e01b815260048101919091526000916001600160a01b03169063068bcd8d90602401600060405180830381865afa1580156129bb573d6000803e3d6000fd5b505050506040513d6000823e601f3d908101601f191682016040526129e39190810190615a05565b90508360010154606960008282546129fb91906153be565b9091555050604081015160048501546001860154612a2392916001600160a01b031690613b55565b604081015160048501546001860154612a4692916001600160a01b031690613b55565b60088401805460ff19166004908117909155607d54600586015460785460405163099ea56b60e41b81526001600160a01b03938416946399ea56b094612a93948c94911692909101615405565b600060405180830381600087803b158015612aad57600080fd5b505af1158015612ac1573d6000803e3d6000fd5b50505060048501546001860154604051600080516020615f918339815191529350612af99289926001600160a01b0390911691615405565b60405180910390a160048401546001850154604051600080516020615f91833981519152926121009289926001600160a01b0390921691615405565b5050505050565b6001600160a01b03163b151590565b600054610100900460ff16612b725760405162461bcd60e51b8152600401610ec890615ab8565b610ff9613b8f565b600080612b8784846138d9565b91509150816000148015612b99575080155b15612ba45750505050565b600784015560039092019190915550565b607c54604051637817ee4f60e01b81526001600160a01b0390911690637817ee4f90612be7908490309060040161554c565b602060405180830381865afa158015612c04573d6000803e3d6000fd5b505050506040513d601f19601f82011682018060405250810190612c289190615583565b606f6000828254612c3991906153be565b9091555050607c546040516322bcf99960e01b81526001600160a01b03909116906322bcf99990612c70908490309060040161554c565b600060405180830381600087803b158015612c8a57600080fd5b505af1158015612c9e573d6000803e3d6000fd5b50505050612cab81613bbf565b7f1468da654b37bb3631011c1917d02e0db437d519918858d40b38b5e980ca033b81604051612cda9190614e03565b60405180910390a150565b6000612cf08261359f565b612d0d57604051630b72d6b160e31b815260040160405180910390fd5b600083806020019051810190612d239190615b03565b9050600160745460ff166002811115612d3e57612d3e614943565b03612e87576000306001600160a01b03166315cc481e6040518163ffffffff1660e01b8152600401602060405180830381865afa158015612d83573d6000803e3d6000fd5b505050506040513d601f19601f82011682018060405250810190612da79190615424565b825160405163068bcd8d60e01b815260048101919091529091506000906001600160a01b0383169063068bcd8d90602401600060405180830381865afa158015612df5573d6000803e3d6000fd5b505050506040513d6000823e601f3d908101601f19168201604052612e1d9190810190615a05565b905080604001516001600160a01b031683606001516001600160a01b031614612e595760405163514e24c360e11b815260040160405180910390fd5b612e6683604001516134c7565b15612e8457604051630efd728560e21b815260040160405180910390fd5b50505b6076546001600160a01b031615801590612ea2575060785434105b15612ec557607854604051632c1f8ef160e21b8152610ec8913491600401615195565b6000606d60008154612ed69061567f565b91829055506000818152607f602090815260408083208481556005810180546001600160a01b038b81166001600160a01b0319928316179092558885015160048401805491841691831691909117905560608901516006840180549190931691161790559086015160018083019190915560088201805460ff19169091179055436007820155600381019290925560808501518051600a8401908155918101519394509192600b840190612f8a9082615bf7565b5050607d54600583015460405163240ff7c560e11b81526001600160a01b03928316935063481fef8a923492612fc89288929091169060040161559c565b6000604051808303818588803b158015612fe157600080fd5b505af1158015612ff5573d6000803e3d6000fd5b50505050507ffcf3b1aa65a464cef2889608f99e8b8c0f680a4be6c2acb9d961c536a5a9294b6068548360405161302d929190615195565b60405180910390a150949350505050565b607c546001600160a01b03163314610ff9576040516357848b5160e11b815260040160405180910390fd5b607c54604080516336d8759760e21b815290516000926012926001600160a01b039091169163db61d65c916004808201926020929091908290030181865afa1580156130b9573d6000803e3d6000fd5b505050506040513d601f19601f820116820180604052508101906130dd9190615424565b6001600160a01b031663313ce5676040518163ffffffff1660e01b8152600401602060405180830381865afa925050508015613136575060408051601f3d908101601f1916820190925261313391810190615cb6565b60015b156131415760ff1690505b607c546040516316308e2560e11b815260009185916001600160a01b0390911690632c611c4a90613176908990600401614e03565b602060405180830381865afa158015613193573d6000803e3d6000fd5b505050506040513d601f19601f820116820180604052508101906131b79190615583565b6131c191906153be565b905060006131e26131d384600a615dbd565b6131dd90846154c1565b613d20565b607c54604051637817ee4f60e01b815291925060009183916001600160a01b031690637817ee4f9061321a908b90309060040161554c565b602060405180830381865afa158015613237573d6000803e3d6000fd5b505050506040513d601f19601f8201168201806040525081019061325b9190615583565b61326591906153be565b979650505050505050565b6000600160801b83106132c45760405162461bcd60e51b815260206004820152601c60248201527b0bec240e6d0deead8c840c4ca40d8cae6e640e8d0c2dc4064bc6264760231b6044820152606401610ec8565b50600160801b82825b801561331057806001166000036132f2576132e88283613e08565b915060011c6132cd565b6132fc8383613e08565b92506133096001826153be565b90506132cd565b505092915050565b600080516020615f2a833981519152546001600160a01b031690565b6117716134ee565b7f4910fdfa16fed3260ed0e7147f7cc6da11a60208b5b9406d12a635614ffd91435460ff161561336f57610e2383613ee5565b826001600160a01b03166352d1902d6040518163ffffffff1660e01b8152600401602060405180830381865afa9250505080156133c9575060408051601f3d908101601f191682019092526133c691810190615583565b60015b61342c5760405162461bcd60e51b815260206004820152602e60248201527f45524331393637557067726164653a206e657720696d706c656d656e7461746960448201526d6f6e206973206e6f74205555505360901b6064820152608401610ec8565b600080516020615f2a833981519152811461349b5760405162461bcd60e51b815260206004820152602960248201527f45524331393637557067726164653a20756e737570706f727465642070726f786044820152681a58589b195555525160ba1b6064820152608401610ec8565b50610e23838383613f7f565b60006001600160a01b038216156134bf576001610d8b565b600092915050565b60006134d662989680836154c1565b6069546070546134e691906154c1565b111592915050565b336134f7611d45565b6001600160a01b031614610ff95760405162461bcd60e51b815260206004820181905260248201527f4f776e61626c653a2063616c6c6572206973206e6f7420746865206f776e65726044820152606401610ec8565b603380546001600160a01b038381166001600160a01b0319831681179093556040519116919082907f8be0079c531659141344cd1fd0a4f28419497f9722a3daafe3b4186f6b6457e090600090a35050565b607e546000906001600160a01b03166135ba57506001919050565b607e546040516302154c3d60e51b81526001600160a01b03909116906342a987a0906135ec908590309060040161554c565b602060405180830381865afa158015613609573d6000803e3d6000fd5b505050506040513d601f19601f82011682018060405250810190610d8b9190615566565b607c54604051637817ee4f60e01b8152600091839183916001600160a01b031690637817ee4f90613664908890309060040161554c565b602060405180830381865afa158015613681573d6000803e3d6000fd5b505050506040513d601f19601f820116820180604052508101906136a59190615583565b6075549091506136b583836153f2565b11156136cc576075546136c99082906153be565b91505b509392505050565b607c546040516316308e2560e11b8152600091829184916001600160a01b031690632c611c4a90613709908890600401614e03565b602060405180830381865afa158015613726573d6000803e3d6000fd5b505050506040513d601f19601f8201168201806040525081019061374a9190615583565b61375491906153f2565b607c54604080516336d8759760e21b815290519293506012926001600160a01b039092169163db61d65c916004808201926020929091908290030181865afa1580156137a4573d6000803e3d6000fd5b505050506040513d601f19601f820116820180604052508101906137c89190615424565b6001600160a01b031663313ce5676040518163ffffffff1660e01b8152600401602060405180830381865afa925050508015613821575060408051601f3d908101601f1916820190925261381e91810190615cb6565b60015b1561382c5760ff1690505b600061384661383c83600a615dbd565b6131dd90856154c1565b607c54604051637817ee4f60e01b81529192506000916001600160a01b0390911690637817ee4f9061387e908a90309060040161554c565b602060405180830381865afa15801561389b573d6000803e3d6000fd5b505050506040513d601f19601f820116820180604052508101906138bf9190615583565b905060006138cd82846153be565b98975050505050505050565b60008043905080846007015411156138f3576138f3615dc9565b808460070154036139095750600090508061392a565b61392784600701548261391c91906153be565b856003015485611612565b91505b9250929050565b6067805460ff19168215159081179091556040519081527fd94c9bc4d43c51d8dc345a016d8e3d994432fac68e72832e4cf3a616bd8efae090602001612cda565b60006001600160a01b0382161561398a576002610d8b565b600392915050565b61399a6127b6565b606854156139bb5760405163439a74c960e01b815260040160405180910390fd5b806000036139dc57604051637fcce2a960e01b815260040160405180910390fd5b606855565b6040516001600160601b03193360601b166020820152603481018290526000908190605401604051602081830303815290604052805190602001209050613a288482613fa4565b949350505050565b613a398161403b565b613a428161359f565b613a5f57604051630b72d6b160e31b815260040160405180910390fd5b607c5460405163011de97360e61b81526000916001600160a01b03169063477a5cc090613a92908590309060040161554c565b602060405180830381865afa158015613aaf573d6000803e3d6000fd5b505050506040513d601f19601f82011682018060405250810190613ad39190615566565b905080613af357604051635fccb67f60e01b815260040160405180910390fd5b600083806020019051810190613b099190615ddf565b9050613b1583826140c9565b613b1f838261425d565b50505050565b6040518181527f46aeb5d8770fc4474bc2dfa118fd2595f7fb33ce2cbce6f4e5a3dabfe0f7633990602001612cda565b73eeeeeeeeeeeeeeeeeeeeeeeeeeeeeeeeeeeeeeed196001600160a01b03841601613b8457610e238282614635565b610e23838383614651565b600054610100900460ff16613bb65760405162461bcd60e51b8152600401610ec890615ab8565b610ff93361354d565b6001600160a01b038116600090815260816020908152604080832080548251818502810185019093528083529192909190830182828015613c1f57602002820191906000526020600020905b815481526020019060010190808311613c0b575b5050505050905060005b8151811015610e23576000828281518110613c4657613c46615e89565b602002602001015190506000607f60008381526020019081526020016000209050613c7082614697565b15613d0b576001600160a01b0385166000908152600982016020526040812080549082905560028301805491928392613caa9084906153be565b9250508190555080606e6000828254613cc391906153be565b90915550613cd390508282612b7a565b600080516020615f4a8339815191528684600085600201548660030154604051613d01959493929190615e9f565b60405180910390a1505b50508080613d189061567f565b915050613c29565b600081600003613d3257506000919050565b60006001613d3f846146d0565b901c6001901b90506001818481613d5857613d58615466565b048201901c90506001818481613d7057613d70615466565b048201901c90506001818481613d8857613d88615466565b048201901c90506001818481613da057613da0615466565b048201901c90506001818481613db857613db8615466565b048201901c90506001818481613dd057613dd0615466565b048201901c90506001818481613de857613de8615466565b048201901c905061101781828581613e0257613e02615466565b04614764565b6000600160801b831115613e6f5760405162461bcd60e51b815260206004820152602860248201527f5f612073686f756c64206265206c657373207468616e206f7220657175616c206044820152670e8de4064bc6264760c31b6064820152608401610ec8565b600160801b8210613ec15760405162461bcd60e51b815260206004820152601c60248201527b0bec440e6d0deead8c840c4ca40d8cae6e640e8d0c2dc4064bc6264760231b6044820152606401610ec8565b60806001607f1b613ed284866154c1565b613edc91906153f2565b901c9392505050565b613eee81612b3c565b613f505760405162461bcd60e51b815260206004820152602d60248201527f455243313936373a206e657720696d706c656d656e746174696f6e206973206e60448201526c1bdd08184818dbdb9d1c9858dd609a1b6064820152608401610ec8565b600080516020615f2a83398151915280546001600160a01b0319166001600160a01b0392909216919091179055565b613f888361477a565b600082511180613f955750805b15610e2357613b1f83836147ba565b6000763d602d80600a3d3981f3363d3d373d3d3d363d730000008360601b60e81c176000526e5af43d82803e903d91602b57fd5bf38360781b1760205281603760096000f590506001600160a01b038116610d8b5760405162461bcd60e51b8152602060048201526017602482015276115490cc4c4d8dce8818dc99585d194c8819985a5b1959604a1b6044820152606401610ec8565b607c5460405163288c314960e21b81526001600160a01b039091169063a230c5249061406b908490600401614e03565b602060405180830381865afa158015614088573d6000803e3d6000fd5b505050506040513d601f19601f820116820180604052508101906140ac9190615566565b61177157604051636a5cfb6d60e01b815260040160405180910390fd5b6000805b8251811015614186578281815181106140e8576140e8615e89565b6020026020010151600001516000031561417457600083828151811061411057614110615e89565b602002602001015160000151905061412781614697565b6141475760405163c1d17bef60e01b815260048101829052602401610ec8565b83828151811061415957614159615e89565b602002602001015160200151836141709190615ecd565b9250505b8061417e8161567f565b9150506140cd565b50600061419b6141958561211b565b836147df565b607c54604051637817ee4f60e01b81529192506000916001600160a01b0390911690637817ee4f906141d3908890309060040161554c565b602060405180830381865afa1580156141f0573d6000803e3d6000fd5b505050506040513d601f19601f820116820180604052508101906142149190615583565b90508082111561423b578181604051636b20c17f60e11b8152600401610ec8929190615195565b506001600160a01b039093166000908152608060205260409020929092555050565b606060005b8251811015613b1f57600083828151811061427f5761427f615e89565b602002602001015160000151905082516000036142db57604080516001808252818301909252906020808301908036833701905050925080836000815181106142ca576142ca615e89565b60200260200101818152505061440e565b6000805b845181101561433b57828582815181106142fb576142fb615e89565b60200260200101510361432957600191508281604051632b7aec5560e21b8152600401610ec8929190615195565b806143338161567f565b9150506142df565b508061440c5760008451600161435191906153f2565b6001600160401b0381111561436857614368614ac1565b604051908082528060200260200182016040528015614391578160200160208202803683370190505b50905060005b85518110156143e9578581815181106143b2576143b2615e89565b60200260200101518282815181106143cc576143cc615e89565b6020908102919091010152806143e18161567f565b915050614397565b5082818651815181106143fe576143fe615e89565b602090810291909101015293505b505b600084838151811061442257614422615e89565b6020908102919091018101518101516000848152607f835260408082206001600160a01b038b1683526009810190945281205491935061446282856147df565b6001600160a01b038a1660009081526009850160205260408120829055909150805b6001600160a01b038b166000908152608160205260409020548110156144fb5784546001600160a01b038c1660009081526081602052604090208054839081106144d0576144d0615e89565b9060005260206000200154036144e957600191506144fb565b806144f38161567f565b915050614484565b5080614531576001600160a01b038a16600090815260816020908152604082208654815460018101835591845291909220909101555b8183116145815761454283836153be565b606e600082825461455391906153f2565b90915550614563905083836153be565b84600201600082825461457691906153f2565b909155506145c59050565b61458b82846153be565b606e600082825461459c91906153be565b909155506145ac905082846153be565b8460020160008282546145bf91906153be565b90915550505b83600701546000036145dc5743600785015561461c565b6145e68484612b7a565b600080516020615f4a8339815191528a878487600201548860030154604051614613959493929190615e9f565b60405180910390a15b505050505050808061462d9061567f565b915050614262565b60008060008084865af1610e045763b12d13eb6000526004601cfd5b816014528060345263a9059cbb60601b60005260206000604460106000875af13d15600160005114171661468d576390b8ec186000526004601cfd5b6000603452505050565b6000818152607f602052604081205415801590610d8b5750506000908152607f60205260409020600501546001600160a01b0316151590565b600080608083901c156146e557608092831c92015b604083901c156146f757604092831c92015b602083901c1561470957602092831c92015b601083901c1561471b57601092831c92015b600883901c1561472d57600892831c92015b600483901c1561473f57600492831c92015b600283901c1561475157600292831c92015b600183901c15610d8b5760010192915050565b60008183106147735781611017565b5090919050565b61478381613ee5565b6040516001600160a01b038216907fbc7cd75a20ee27fd9adebab32041f755214dbc6bffa90cc0225b39da2e5c2d3b90600090a250565b60606110178383604051806060016040528060278152602001615f6a60279139614816565b6000806147ec8385615ecd565b9050600081121561101757838382604051631dde38a160e11b8152600401610ec893929190615962565b6060600080856001600160a01b0316856040516148339190615eed565b600060405180830381855af49150503d806000811461486e576040519150601f19603f3d011682016040523d82523d6000602084013e614873565b606091505b50915091506148848683838761488e565b9695505050505050565b606083156148fb5782516000036148f4576148a885612b3c565b6148f45760405162461bcd60e51b815260206004820152601d60248201527f416464726573733a2063616c6c20746f206e6f6e2d636f6e74726163740000006044820152606401610ec8565b5081613a28565b613a2883838151156149105781518083602001fd5b8060405162461bcd60e51b8152600401610ec89190615933565b60006020828403121561493c57600080fd5b5035919050565b634e487b7160e01b600052602160045260246000fd5b6007811061177157611771614943565b60005b8381101561498457818101518382015260200161496c565b50506000910152565b600081518084526149a5816020860160208601614969565b601f01601f19169290920160200192915050565b805182526000602082015160406020850152613a28604085018261498d565b60006101a08f83528e60208401528d60408401528c606084015260018060a01b03808d166080850152808c1660a0850152808b1660c08501528960e0850152614a2089614959565b8861010085015281610120850152614a3a828501896149b9565b61014085019790975261016084019590955250509116610180909101529a9950505050505050505050565b600060208284031215614a7757600080fd5b81356001600160e01b03198116811461101757600080fd5b6001600160a01b038116811461177157600080fd5b600060208284031215614ab657600080fd5b813561101781614a8f565b634e487b7160e01b600052604160045260246000fd5b604051608081016001600160401b0381118282101715614af957614af9614ac1565b60405290565b60405160c081016001600160401b0381118282101715614af957614af9614ac1565b604080519081016001600160401b0381118282101715614af957614af9614ac1565b60405160e081016001600160401b0381118282101715614af957614af9614ac1565b60405160a081016001600160401b0381118282101715614af957614af9614ac1565b604051601f8201601f191681016001600160401b0381118282101715614baf57614baf614ac1565b604052919050565b600080828403610140811215614bcc57600080fd5b60c0811215614bda57600080fd5b614be2614aff565b8435614bed81614a8f565b81526020850135614bfd81614a8f565b602082015260408581013590820152606080860135908201526080808601358183015260a0808701359083015290935060bf1982011215614c3d57600080fd5b50614c46614ad7565b60c0840135815260e0840135602082015261010084013560408201526101209093013560608401525092909150565b60006001600160401b03821115614c8e57614c8e614ac1565b5060051b60200190565b600082601f830112614ca957600080fd5b81356020614cbe614cb983614c75565b614b87565b82815260059290921b84018101918181019086841115614cdd57600080fd5b8286015b84811015614d01578035614cf481614a8f565b8352918301918301614ce1565b509695505050505050565b60006001600160401b03821115614d2557614d25614ac1565b50601f01601f191660200190565b6000614d41614cb984614d0c565b9050828152838383011115614d5557600080fd5b828260208301376000602084830101529392505050565b600082601f830112614d7d57600080fd5b61101783833560208501614d33565b600080600060608486031215614da157600080fd5b83356001600160401b0380821115614db857600080fd5b614dc487838801614c98565b94506020860135915080821115614dda57600080fd5b50614de786828701614d6c565b9250506040840135614df881614a8f565b809150509250925092565b6001600160a01b0391909116815260200190565b60008060408385031215614e2a57600080fd5b82356001600160401b03811115614e4057600080fd5b614e4c85828601614d6c565b9250506020830135614e5d81614a8f565b809150509250929050565b60048110614e7857614e78614943565b9052565b60208101610d8b8284614e68565b60008060408385031215614e9d57600080fd5b8235614ea881614a8f565b946020939093013593505050565b60008060408385031215614ec957600080fd5b50508035926020909101359150565b600080600060608486031215614eed57600080fd5b505081359360208301359350604090920135919050565b60038110614e7857614e78614943565b60208101610d8b8284614f04565b60008060408385031215614f3557600080fd5b8235614f4081614a8f565b915060208301356001600160401b03811115614f5b57600080fd5b614f6785828601614d6c565b9150509250929050565b60208152600061101760208301846149b9565b60008060408385031215614f9757600080fd5b82356001600160401b0380821115614fae57600080fd5b614fba86838701614c98565b9350602091508185013581811115614fd157600080fd5b8501601f81018713614fe257600080fd5b8035614ff0614cb982614c75565b81815260059190911b8201840190848101908983111561500f57600080fd5b8584015b838110156150475780358681111561502b5760008081fd5b6150398c8983890101614d6c565b845250918601918601615013565b508096505050505050509250929050565b602080825282518282018190526000919060409081850190868401855b828110156150a357815180516001600160a01b03168552860151868501529284019290850190600101615075565b5091979650505050505050565b60008083601f8401126150c257600080fd5b5081356001600160401b038111156150d957600080fd5b60208301915083602082850101111561392a57600080fd5b60008060008060006060868803121561510957600080fd5b8535945060208601356001600160401b038082111561512757600080fd5b61513389838a016150b0565b9096509450604088013591508082111561514c57600080fd5b50615159888289016150b0565b969995985093965092949392505050565b801515811461177157600080fd5b60006020828403121561518a57600080fd5b81356110178161516a565b918252602082015260400190565b6001600160a01b038b811682528a8116602083015289166040820152606081018890526080810187905261014081016151db87614959565b60a082019690965260c081019490945260e08401929092526101008301526101209091015295945050505050565b6000806040838503121561521c57600080fd5b823591506020830135614e5d81614a8f565b6000602080838503121561524157600080fd5b82356001600160401b0381111561525757600080fd5b8301601f8101851361526857600080fd5b8035615276614cb982614c75565b81815260069190911b8201830190838101908783111561529557600080fd5b928401925b8284101561326557604084890312156152b35760008081fd5b6152bb614b21565b84358152858501358682015282526040909301929084019061529a565b602081016152e583614959565b91905290565b600080604083850312156152fe57600080fd5b8235915060208301356001600160401b03811115614f5b57600080fd5b6000806040838503121561532e57600080fd5b823561533981614a8f565b915060208301356001600160401b0381111561535457600080fd5b8301601f8101851361536557600080fd5b614f6785823560208401614d33565b600181811c9082168061538857607f821691505b6020821081036119e557634e487b7160e01b600052602260045260246000fd5b634e487b7160e01b600052601160045260246000fd5b81810381811115610d8b57610d8b6153a8565b6001600160a01b039390931683526020830191909152604082015260600190565b80820180821115610d8b57610d8b6153a8565b9283526001600160a01b03919091166020830152604082015260600190565b60006020828403121561543657600080fd5b815161101781614a8f565b9384526001600160a01b03928316602085015291166040830152606082015260800190565b634e487b7160e01b600052601260045260246000fd5b60008261549957634e487b7160e01b600052601260045260246000fd5b500490565b60006001600160401b038216806154b7576154b76153a8565b6000190192915050565b8082028115828204841417610d8b57610d8b6153a8565b6020808252602c90820152600080516020615f0a83398151915260408201526b19195b1959d85d1958d85b1b60a21b606082015260800190565b6020808252602c90820152600080516020615f0a83398151915260408201526b6163746976652070726f787960a01b606082015260800190565b6001600160a01b0392831681529116602082015260400190565b60006020828403121561557857600080fd5b81516110178161516a565b60006020828403121561559557600080fd5b5051919050565b9182526001600160a01b0316602082015260400190565b81835281816020850137506000828201602090810191909152601f909101601f19169091010190565b60ff841681526040602082015260006155f96040830184866155b3565b95945050505050565b60006001600160401b038281166002600160401b03198101615626576156266153a8565b6001019392505050565b6001600160a01b03888116825260208201889052604082018790528516606082015260c06080820181905260009061566b90830185876155b3565b90508260a083015298975050505050505050565b600060018201615691576156916153a8565b5060010190565b8051600381106156a757600080fd5b919050565b8051600481106156a757600080fd5b6000602082840312156156cd57600080fd5b604051602081016001600160401b03811182821017156156ef576156ef614ac1565b6040529151825250919050565b80516156a781614a8f565b600060c0828403121561571957600080fd5b615721614aff565b9050815161572e81614a8f565b8152602082015161573e81614a8f565b8060208301525060408201516040820152606082015160608201526080820151608082015260a082015160a082015292915050565b60008183036101e081121561578757600080fd5b61578f614b43565b608082121561579d57600080fd5b6157a5614ad7565b9150835182526020840151602083015260408401516040830152606084015160608301528181526157d860808501615698565b60208201526157e960a085016156ac565b60408201526157fb8560c086016156bb565b606082015261580d8560e08601615707565b608082015261581f6101a085016156fc565b60a08201526158316101c085016156fc565b60c0820152949350505050565b805182526020810151602083015260408101516040830152606081015160608301525050565b80516001600160a01b0390811683526020808301519091169083015260408082015190830152606080820151908301526080808201519083015260a090810151910152565b6000610200820190508382526158c360208301845161583e565b60208301516158d560a0840182614f04565b5060408301516158e860c0840182614e68565b5060608301515160e08301526080830151615907610100840182615864565b5060a08301516001600160a01b039081166101c084015260c0909301519092166101e090910152919050565b602081526000611017602083018461498d565b6101408101615955828561583e565b6110176080830184615864565b9283526020830191909152604082015260600190565b60006040828403121561598a57600080fd5b615992614b21565b8251815260208301519091506001600160401b038111156159b257600080fd5b8201601f810184136159c357600080fd5b80516159d1614cb982614d0c565b8181528560208385010111156159e657600080fd5b6159f7826020830160208601614969565b602084015250909392505050565b600060208284031215615a1757600080fd5b81516001600160401b0380821115615a2e57600080fd5b9083019060c08286031215615a4257600080fd5b615a4a614aff565b825181526020830151615a5c81614a8f565b60208201526040830151615a6f81614a8f565b6040820152606083015182811115615a8657600080fd5b615a9287828601615978565b6060830152506080830151608082015260a083015160a082015280935050505092915050565b6020808252602b908201527f496e697469616c697a61626c653a20636f6e7472616374206973206e6f74206960408201526a6e697469616c697a696e6760a81b606082015260800190565b600060208284031215615b1557600080fd5b81516001600160401b0380821115615b2c57600080fd5b9083019060a08286031215615b4057600080fd5b615b48614b65565b825181526020830151615b5a81614a8f565b6020820152604083810151908201526060830151615b7781614a8f565b6060820152608083015182811115615b8e57600080fd5b615b9a87828601615978565b60808301525095945050505050565b601f821115610e2357600081815260208120601f850160051c81016020861015615bd05750805b601f850160051c820191505b81811015615bef57828155600101615bdc565b505050505050565b81516001600160401b03811115615c1057615c10614ac1565b615c2481615c1e8454615374565b84615ba9565b602080601f831160018114615c595760008415615c415750858301515b600019600386901b1c1916600185901b178555615bef565b600085815260208120601f198616915b82811015615c8857888601518255948401946001909101908401615c69565b5085821015615ca65787850151600019600388901b60f8161c191681555b5050505050600190811b01905550565b600060208284031215615cc857600080fd5b815160ff8116811461101757600080fd5b600181815b80851115615d14578160001904821115615cfa57615cfa6153a8565b80851615615d0757918102915b93841c9390800290615cde565b509250929050565b600082615d2b57506001610d8b565b81615d3857506000610d8b565b8160018114615d4e5760028114615d5857615d74565b6001915050610d8b565b60ff841115615d6957615d696153a8565b50506001821b610d8b565b5060208310610133831016604e8410600b8410161715615d97575081810a610d8b565b615da18383615cd9565b8060001904821115615db557615db56153a8565b029392505050565b60006110178383615d1c565b634e487b7160e01b600052600160045260246000fd5b60006020808385031215615df257600080fd5b82516001600160401b03811115615e0857600080fd5b8301601f81018513615e1957600080fd5b8051615e27614cb982614c75565b81815260069190911b82018301908381019087831115615e4657600080fd5b928401925b828410156132655760408489031215615e645760008081fd5b615e6c614b21565b845181528585015186820152825260409093019290840190615e4b565b634e487b7160e01b600052603260045260246000fd5b6001600160a01b03959095168552602085019390935260408401919091526060830152608082015260a00190565b8082018281126000831280158216821582161715613310576133106153a8565b60008251615eff818460208701614969565b919091019291505056fe46756e6374696f6e206d7573742062652063616c6c6564207468726f75676820360894a13ba1a3210667c828492db98dca3e2076cc3735a920a3ca505d382bbc0227f642ddcf2042ceaeafadb9d540f432072c00cd4862881667168dcc14710f416464726573733a206c6f772d6c6576656c2064656c65676174652063616c6c206661696c6564a7932e9c92f31e1ed56b29d00bbe669a97484dc24de28dd9c8c0429df7f35847a2646970667358221220ef82b874f8d3f562329403baf10b246e82f7d809c5df382ed3aeb4792f8b9f0764736f6c63430008130033","linkReferences":{}},"methodIdentifiers":{"D()":"0f529ba2","DISPUTE_COOLDOWN_SEC()":"f5be3f7c","NATIVE()":"a0cf0aea","RULING_OPTIONS()":"626c47e8","activatePoints()":"814516ad","allocate(bytes,address)":"ef2920fc","arbitrableConfig()":"1073e996","calculateConviction(uint256,uint256,uint256)":"346db8cb","calculateThreshold(uint256)":"59a5db8b","canExecuteProposal(uint256)":"824ea8ed","cloneNonce()":"33960459","collateralVault()":"0bece79c","cvParams()":"2506b870","deactivatePoints()":"1ddf1e23","deactivatePoints(address)":"6453d9c4","decreasePower(address,uint256)":"2ed04b2b","disputeCount()":"a28889e1","disputeIdToProposalId(uint256)":"255ffb38","disputeProposal(uint256,string,bytes)":"b41596ec","distribute(address[],bytes,address)":"0a6f0ee9","getAllo()":"15cc481e","getCollateralAmounts()":"c46dac0e","getMaxAmount()":"0ba95909","getMaxConviction(uint256)":"950559d7","getMetadata(uint256)":"a574cea4","getPayouts(address[],bytes[])":"b2b878d0","getPointSystem()":"c3292171","getPoolAmount()":"4ab4ba42","getPoolId()":"38fff2d0","getProposal(uint256)":"c7f758a8","getProposalStakedAmount(uint256)":"dc96ff2d","getProposalVoterStake(uint256,address)":"e0dd2c38","getRecipientStatus(address)":"eb11af93","getStrategyId()":"42fda9c7","getTotalVoterStakePct(address)":"bcc5b93b","increasePoolAmount(uint256)":"f5b0dfb7","increasePower(address,uint256)":"782aadff","init(address)":"19ab453c","init(address,string)":"f321b305","initialize(uint256,bytes)":"edd146cc","isPoolActive()":"df868ed3","isValidAllocator(address)":"4d31d087","owner()":"8da5cb5b","pointConfig()":"a47ff7e5","pointSystem()":"2dbd6fdd","proposalCounter()":"0c0512e9","proposalType()":"351d9f96","proposals(uint256)":"013cf08b","proxiableUUID()":"52d1902d","registerRecipient(bytes,address)":"2bbe0cae","registryCommunity()":"6003e414","renounceOwnership()":"715018a6","rule(uint256,uint256)":"311a6c56","setPoolActive(bool)":"b5f620ce","setPoolParams((address,address,uint256,uint256,uint256,uint256),(uint256,uint256,uint256,uint256))":"062f9ece","setRegistryCommunity(address)":"058aca44","setSybilScorer(address)":"ac1ed7b9","supportProposal((uint256,int256)[])":"e33add93","supportsInterface(bytes4)":"01ffc9a7","sybilScorer()":"b6c61f31","totalEffectiveActivePoints()":"d1e36232","totalPointsActivated()":"aba9ffee","totalStaked()":"817b1cd2","totalVoterStakePct(address)":"5db64b99","transferOwnership(address)":"f2fde38b","updateProposalConviction(uint256)":"1aa91a9e","upgradeTo(address)":"3659cfe6","upgradeToAndCall(address,bytes)":"4f1ef286","voterStakedProposals(address,uint256)":"868c57b8"},"storageLayout":{"storage":[{"astId":53071,"contract":"pkg/contracts/src/CVStrategyV0_0.sol:CVStrategyV0_0","label":"_initialized","offset":0,"slot":"0","type":"t_uint8"},{"astId":53074,"contract":"pkg/contracts/src/CVStrategyV0_0.sol:CVStrategyV0_0","label":"_initializing","offset":1,"slot":"0","type":"t_bool"},{"astId":53776,"contract":"pkg/contracts/src/CVStrategyV0_0.sol:CVStrategyV0_0","label":"__gap","offset":0,"slot":"1","type":"t_array(t_uint256)50_storage"},{"astId":52863,"contract":"pkg/contracts/src/CVStrategyV0_0.sol:CVStrategyV0_0","label":"_owner","offset":0,"slot":"51","type":"t_address"},{"astId":52983,"contract":"pkg/contracts/src/CVStrategyV0_0.sol:CVStrategyV0_0","label":"__gap","offset":0,"slot":"52","type":"t_array(t_uint256)49_storage"},{"astId":71232,"contract":"pkg/contracts/src/CVStrategyV0_0.sol:CVStrategyV0_0","label":"allo","offset":0,"slot":"101","type":"t_contract(IAllo)2610"},{"astId":71234,"contract":"pkg/contracts/src/CVStrategyV0_0.sol:CVStrategyV0_0","label":"strategyId","offset":0,"slot":"102","type":"t_bytes32"},{"astId":71236,"contract":"pkg/contracts/src/CVStrategyV0_0.sol:CVStrategyV0_0","label":"poolActive","offset":0,"slot":"103","type":"t_bool"},{"astId":71238,"contract":"pkg/contracts/src/CVStrategyV0_0.sol:CVStrategyV0_0","label":"poolId","offset":0,"slot":"104","type":"t_uint256"},{"astId":71240,"contract":"pkg/contracts/src/CVStrategyV0_0.sol:CVStrategyV0_0","label":"poolAmount","offset":0,"slot":"105","type":"t_uint256"},{"astId":72214,"contract":"pkg/contracts/src/CVStrategyV0_0.sol:CVStrategyV0_0","label":"collateralVaultTemplate","offset":0,"slot":"106","type":"t_address"},{"astId":72216,"contract":"pkg/contracts/src/CVStrategyV0_0.sol:CVStrategyV0_0","label":"cloneNonce","offset":0,"slot":"107","type":"t_uint256"},{"astId":72219,"contract":"pkg/contracts/src/CVStrategyV0_0.sol:CVStrategyV0_0","label":"disputeCount","offset":0,"slot":"108","type":"t_uint64"},{"astId":72222,"contract":"pkg/contracts/src/CVStrategyV0_0.sol:CVStrategyV0_0","label":"proposalCounter","offset":0,"slot":"109","type":"t_uint256"},{"astId":72224,"contract":"pkg/contracts/src/CVStrategyV0_0.sol:CVStrategyV0_0","label":"totalStaked","offset":0,"slot":"110","type":"t_uint256"},{"astId":72226,"contract":"pkg/contracts/src/CVStrategyV0_0.sol:CVStrategyV0_0","label":"totalPointsActivated","offset":0,"slot":"111","type":"t_uint256"},{"astId":72229,"contract":"pkg/contracts/src/CVStrategyV0_0.sol:CVStrategyV0_0","label":"cvParams","offset":0,"slot":"112","type":"t_struct(CVParams)71978_storage"},{"astId":72232,"contract":"pkg/contracts/src/CVStrategyV0_0.sol:CVStrategyV0_0","label":"proposalType","offset":0,"slot":"116","type":"t_enum(ProposalType)71889"},{"astId":72235,"contract":"pkg/contracts/src/CVStrategyV0_0.sol:CVStrategyV0_0","label":"pointSystem","offset":1,"slot":"116","type":"t_enum(PointSystem)71894"},{"astId":72238,"contract":"pkg/contracts/src/CVStrategyV0_0.sol:CVStrategyV0_0","label":"pointConfig","offset":0,"slot":"117","type":"t_struct(PointSystemConfig)71955_storage"},{"astId":72241,"contract":"pkg/contracts/src/CVStrategyV0_0.sol:CVStrategyV0_0","label":"arbitrableConfig","offset":0,"slot":"118","type":"t_struct(ArbitrableConfig)71969_storage"},{"astId":72244,"contract":"pkg/contracts/src/CVStrategyV0_0.sol:CVStrategyV0_0","label":"registryCommunity","offset":0,"slot":"124","type":"t_contract(RegistryCommunityV0_0)77862"},{"astId":72247,"contract":"pkg/contracts/src/CVStrategyV0_0.sol:CVStrategyV0_0","label":"collateralVault","offset":0,"slot":"125","type":"t_contract(ICollateralVault)78759"},{"astId":72250,"contract":"pkg/contracts/src/CVStrategyV0_0.sol:CVStrategyV0_0","label":"sybilScorer","offset":0,"slot":"126","type":"t_contract(ISybilScorer)75621"},{"astId":72255,"contract":"pkg/contracts/src/CVStrategyV0_0.sol:CVStrategyV0_0","label":"proposals","offset":0,"slot":"127","type":"t_mapping(t_uint256,t_struct(Proposal)71947_storage)"},{"astId":72259,"contract":"pkg/contracts/src/CVStrategyV0_0.sol:CVStrategyV0_0","label":"totalVoterStakePct","offset":0,"slot":"128","type":"t_mapping(t_address,t_uint256)"},{"astId":72264,"contract":"pkg/contracts/src/CVStrategyV0_0.sol:CVStrategyV0_0","label":"voterStakedProposals","offset":0,"slot":"129","type":"t_mapping(t_address,t_array(t_uint256)dyn_storage)"},{"astId":72268,"contract":"pkg/contracts/src/CVStrategyV0_0.sol:CVStrategyV0_0","label":"disputeIdToProposalId","offset":0,"slot":"130","type":"t_mapping(t_uint256,t_uint256)"},{"astId":75241,"contract":"pkg/contracts/src/CVStrategyV0_0.sol:CVStrategyV0_0","label":"__gap","offset":0,"slot":"131","type":"t_array(t_uint256)50_storage"}],"types":{"t_address":{"encoding":"inplace","label":"address","numberOfBytes":"20"},"t_array(t_uint256)49_storage":{"encoding":"inplace","label":"uint256[49]","numberOfBytes":"1568","base":"t_uint256"},"t_array(t_uint256)50_storage":{"encoding":"inplace","label":"uint256[50]","numberOfBytes":"1600","base":"t_uint256"},"t_array(t_uint256)dyn_storage":{"encoding":"dynamic_array","label":"uint256[]","numberOfBytes":"32","base":"t_uint256"},"t_bool":{"encoding":"inplace","label":"bool","numberOfBytes":"1"},"t_bytes32":{"encoding":"inplace","label":"bytes32","numberOfBytes":"32"},"t_contract(IAllo)2610":{"encoding":"inplace","label":"contract IAllo","numberOfBytes":"20"},"t_contract(IArbitrator)78726":{"encoding":"inplace","label":"contract IArbitrator","numberOfBytes":"20"},"t_contract(ICollateralVault)78759":{"encoding":"inplace","label":"contract ICollateralVault","numberOfBytes":"20"},"t_contract(ISybilScorer)75621":{"encoding":"inplace","label":"contract ISybilScorer","numberOfBytes":"20"},"t_contract(RegistryCommunityV0_0)77862":{"encoding":"inplace","label":"contract RegistryCommunityV0_0","numberOfBytes":"20"},"t_enum(PointSystem)71894":{"encoding":"inplace","label":"enum StrategyStruct.PointSystem","numberOfBytes":"1"},"t_enum(ProposalStatus)71914":{"encoding":"inplace","label":"enum StrategyStruct.ProposalStatus","numberOfBytes":"1"},"t_enum(ProposalType)71889":{"encoding":"inplace","label":"enum StrategyStruct.ProposalType","numberOfBytes":"1"},"t_mapping(t_address,t_array(t_uint256)dyn_storage)":{"encoding":"mapping","key":"t_address","label":"mapping(address => uint256[])","numberOfBytes":"32","value":"t_array(t_uint256)dyn_storage"},"t_mapping(t_address,t_uint256)":{"encoding":"mapping","key":"t_address","label":"mapping(address => uint256)","numberOfBytes":"32","value":"t_uint256"},"t_mapping(t_uint256,t_struct(Proposal)71947_storage)":{"encoding":"mapping","key":"t_uint256","label":"mapping(uint256 => struct StrategyStruct.Proposal)","numberOfBytes":"32","value":"t_struct(Proposal)71947_storage"},"t_mapping(t_uint256,t_uint256)":{"encoding":"mapping","key":"t_uint256","label":"mapping(uint256 => uint256)","numberOfBytes":"32","value":"t_uint256"},"t_string_storage":{"encoding":"bytes","label":"string","numberOfBytes":"32"},"t_struct(ArbitrableConfig)71969_storage":{"encoding":"inplace","label":"struct StrategyStruct.ArbitrableConfig","numberOfBytes":"192","members":[{"astId":71958,"contract":"pkg/contracts/src/CVStrategyV0_0.sol:CVStrategyV0_0","label":"arbitrator","offset":0,"slot":"0","type":"t_contract(IArbitrator)78726"},{"astId":71960,"contract":"pkg/contracts/src/CVStrategyV0_0.sol:CVStrategyV0_0","label":"tribunalSafe","offset":0,"slot":"1","type":"t_address"},{"astId":71962,"contract":"pkg/contracts/src/CVStrategyV0_0.sol:CVStrategyV0_0","label":"submitterCollateralAmount","offset":0,"slot":"2","type":"t_uint256"},{"astId":71964,"contract":"pkg/contracts/src/CVStrategyV0_0.sol:CVStrategyV0_0","label":"challengerCollateralAmount","offset":0,"slot":"3","type":"t_uint256"},{"astId":71966,"contract":"pkg/contracts/src/CVStrategyV0_0.sol:CVStrategyV0_0","label":"defaultRuling","offset":0,"slot":"4","type":"t_uint256"},{"astId":71968,"contract":"pkg/contracts/src/CVStrategyV0_0.sol:CVStrategyV0_0","label":"defaultRulingTimeout","offset":0,"slot":"5","type":"t_uint256"}]},"t_struct(CVParams)71978_storage":{"encoding":"inplace","label":"struct StrategyStruct.CVParams","numberOfBytes":"128","members":[{"astId":71971,"contract":"pkg/contracts/src/CVStrategyV0_0.sol:CVStrategyV0_0","label":"maxRatio","offset":0,"slot":"0","type":"t_uint256"},{"astId":71973,"contract":"pkg/contracts/src/CVStrategyV0_0.sol:CVStrategyV0_0","label":"weight","offset":0,"slot":"1","type":"t_uint256"},{"astId":71975,"contract":"pkg/contracts/src/CVStrategyV0_0.sol:CVStrategyV0_0","label":"decay","offset":0,"slot":"2","type":"t_uint256"},{"astId":71977,"contract":"pkg/contracts/src/CVStrategyV0_0.sol:CVStrategyV0_0","label":"minThresholdPoints","offset":0,"slot":"3","type":"t_uint256"}]},"t_struct(Metadata)3098_storage":{"encoding":"inplace","label":"struct Metadata","numberOfBytes":"64","members":[{"astId":3094,"contract":"pkg/contracts/src/CVStrategyV0_0.sol:CVStrategyV0_0","label":"protocol","offset":0,"slot":"0","type":"t_uint256"},{"astId":3097,"contract":"pkg/contracts/src/CVStrategyV0_0.sol:CVStrategyV0_0","label":"pointer","offset":0,"slot":"1","type":"t_string_storage"}]},"t_struct(PointSystemConfig)71955_storage":{"encoding":"inplace","label":"struct StrategyStruct.PointSystemConfig","numberOfBytes":"32","members":[{"astId":71954,"contract":"pkg/contracts/src/CVStrategyV0_0.sol:CVStrategyV0_0","label":"maxAmount","offset":0,"slot":"0","type":"t_uint256"}]},"t_struct(Proposal)71947_storage":{"encoding":"inplace","label":"struct StrategyStruct.Proposal","numberOfBytes":"480","members":[{"astId":71916,"contract":"pkg/contracts/src/CVStrategyV0_0.sol:CVStrategyV0_0","label":"proposalId","offset":0,"slot":"0","type":"t_uint256"},{"astId":71918,"contract":"pkg/contracts/src/CVStrategyV0_0.sol:CVStrategyV0_0","label":"requestedAmount","offset":0,"slot":"1","type":"t_uint256"},{"astId":71920,"contract":"pkg/contracts/src/CVStrategyV0_0.sol:CVStrategyV0_0","label":"stakedAmount","offset":0,"slot":"2","type":"t_uint256"},{"astId":71922,"contract":"pkg/contracts/src/CVStrategyV0_0.sol:CVStrategyV0_0","label":"convictionLast","offset":0,"slot":"3","type":"t_uint256"},{"astId":71924,"contract":"pkg/contracts/src/CVStrategyV0_0.sol:CVStrategyV0_0","label":"beneficiary","offset":0,"slot":"4","type":"t_address"},{"astId":71926,"contract":"pkg/contracts/src/CVStrategyV0_0.sol:CVStrategyV0_0","label":"submitter","offset":0,"slot":"5","type":"t_address"},{"astId":71928,"contract":"pkg/contracts/src/CVStrategyV0_0.sol:CVStrategyV0_0","label":"requestedToken","offset":0,"slot":"6","type":"t_address"},{"astId":71930,"contract":"pkg/contracts/src/CVStrategyV0_0.sol:CVStrategyV0_0","label":"blockLast","offset":0,"slot":"7","type":"t_uint256"},{"astId":71933,"contract":"pkg/contracts/src/CVStrategyV0_0.sol:CVStrategyV0_0","label":"proposalStatus","offset":0,"slot":"8","type":"t_enum(ProposalStatus)71914"},{"astId":71937,"contract":"pkg/contracts/src/CVStrategyV0_0.sol:CVStrategyV0_0","label":"voterStakedPoints","offset":0,"slot":"9","type":"t_mapping(t_address,t_uint256)"},{"astId":71940,"contract":"pkg/contracts/src/CVStrategyV0_0.sol:CVStrategyV0_0","label":"metadata","offset":0,"slot":"10","type":"t_struct(Metadata)3098_storage"},{"astId":71942,"contract":"pkg/contracts/src/CVStrategyV0_0.sol:CVStrategyV0_0","label":"disputeId","offset":0,"slot":"12","type":"t_uint256"},{"astId":71944,"contract":"pkg/contracts/src/CVStrategyV0_0.sol:CVStrategyV0_0","label":"disputeTimestamp","offset":0,"slot":"13","type":"t_uint256"},{"astId":71946,"contract":"pkg/contracts/src/CVStrategyV0_0.sol:CVStrategyV0_0","label":"challenger","offset":0,"slot":"14","type":"t_address"}]},"t_uint256":{"encoding":"inplace","label":"uint256","numberOfBytes":"32"},"t_uint64":{"encoding":"inplace","label":"uint64","numberOfBytes":"8"},"t_uint8":{"encoding":"inplace","label":"uint8","numberOfBytes":"1"}}},"id":109}