{"abi":[{"type":"fallback","stateMutability":"payable"},{"type":"receive","stateMutability":"payable"},{"type":"function","name":"D","inputs":[],"outputs":[{"name":"","type":"uint256","internalType":"uint256"}],"stateMutability":"view"},{"type":"function","name":"DISPUTE_COOLDOWN_SEC","inputs":[],"outputs":[{"name":"","type":"uint256","internalType":"uint256"}],"stateMutability":"view"},{"type":"function","name":"MAX_STAKED_PROPOSALS","inputs":[],"outputs":[{"name":"","type":"uint256","internalType":"uint256"}],"stateMutability":"view"},{"type":"function","name":"NATIVE","inputs":[],"outputs":[{"name":"","type":"address","internalType":"address"}],"stateMutability":"view"},{"type":"function","name":"RULING_OPTIONS","inputs":[],"outputs":[{"name":"","type":"uint256","internalType":"uint256"}],"stateMutability":"view"},{"type":"function","name":"activatePoints","inputs":[],"outputs":[],"stateMutability":"nonpayable"},{"type":"function","name":"allocate","inputs":[{"name":"_data","type":"bytes","internalType":"bytes"},{"name":"_sender","type":"address","internalType":"address"}],"outputs":[],"stateMutability":"payable"},{"type":"function","name":"arbitrableConfig","inputs":[],"outputs":[{"name":"arbitrator","type":"address","internalType":"contract IArbitrator"},{"name":"tribunalSafe","type":"address","internalType":"address"},{"name":"submitterCollateralAmount","type":"uint256","internalType":"uint256"},{"name":"challengerCollateralAmount","type":"uint256","internalType":"uint256"},{"name":"defaultRuling","type":"uint256","internalType":"uint256"},{"name":"defaultRulingTimeout","type":"uint256","internalType":"uint256"}],"stateMutability":"view"},{"type":"function","name":"calculateConviction","inputs":[{"name":"_timePassed","type":"uint256","internalType":"uint256"},{"name":"_lastConv","type":"uint256","internalType":"uint256"},{"name":"_oldAmount","type":"uint256","internalType":"uint256"}],"outputs":[{"name":"","type":"uint256","internalType":"uint256"}],"stateMutability":"view"},{"type":"function","name":"calculateThreshold","inputs":[{"name":"_requestedAmount","type":"uint256","internalType":"uint256"}],"outputs":[{"name":"_threshold","type":"uint256","internalType":"uint256"}],"stateMutability":"view"},{"type":"function","name":"canExecuteProposal","inputs":[{"name":"proposalId","type":"uint256","internalType":"uint256"}],"outputs":[{"name":"canBeExecuted","type":"bool","internalType":"bool"}],"stateMutability":"view"},{"type":"function","name":"cancelProposal","inputs":[{"name":"proposalId","type":"uint256","internalType":"uint256"}],"outputs":[],"stateMutability":"nonpayable"},{"type":"function","name":"cloneNonce","inputs":[],"outputs":[{"name":"","type":"uint256","internalType":"uint256"}],"stateMutability":"view"},{"type":"function","name":"collateralVault","inputs":[],"outputs":[{"name":"","type":"address","internalType":"contract ICollateralVault"}],"stateMutability":"view"},{"type":"function","name":"cvParams","inputs":[],"outputs":[{"name":"maxRatio","type":"uint256","internalType":"uint256"},{"name":"weight","type":"uint256","internalType":"uint256"},{"name":"decay","type":"uint256","internalType":"uint256"},{"name":"minThresholdPoints","type":"uint256","internalType":"uint256"}],"stateMutability":"view"},{"type":"function","name":"deactivatePoints","inputs":[],"outputs":[],"stateMutability":"nonpayable"},{"type":"function","name":"deactivatePoints","inputs":[{"name":"_member","type":"address","internalType":"address"}],"outputs":[],"stateMutability":"nonpayable"},{"type":"function","name":"decreasePower","inputs":[{"name":"_member","type":"address","internalType":"address"},{"name":"_amountToUnstake","type":"uint256","internalType":"uint256"}],"outputs":[{"name":"","type":"uint256","internalType":"uint256"}],"stateMutability":"nonpayable"},{"type":"function","name":"disputeCount","inputs":[],"outputs":[{"name":"","type":"uint64","internalType":"uint64"}],"stateMutability":"view"},{"type":"function","name":"disputeIdToProposalId","inputs":[{"name":"","type":"uint256","internalType":"uint256"}],"outputs":[{"name":"","type":"uint256","internalType":"uint256"}],"stateMutability":"view"},{"type":"function","name":"disputeProposal","inputs":[{"name":"proposalId","type":"uint256","internalType":"uint256"},{"name":"context","type":"string","internalType":"string"},{"name":"_extraData","type":"bytes","internalType":"bytes"}],"outputs":[{"name":"disputeId","type":"uint256","internalType":"uint256"}],"stateMutability":"payable"},{"type":"function","name":"distribute","inputs":[{"name":"_recipientIds","type":"address[]","internalType":"address[]"},{"name":"_data","type":"bytes","internalType":"bytes"},{"name":"_sender","type":"address","internalType":"address"}],"outputs":[],"stateMutability":"nonpayable"},{"type":"function","name":"getAllo","inputs":[],"outputs":[{"name":"","type":"address","internalType":"contract IAllo"}],"stateMutability":"view"},{"type":"function","name":"getDecay","inputs":[],"outputs":[{"name":"","type":"uint256","internalType":"uint256"}],"stateMutability":"view"},{"type":"function","name":"getMaxAmount","inputs":[],"outputs":[{"name":"","type":"uint256","internalType":"uint256"}],"stateMutability":"view"},{"type":"function","name":"getMaxConviction","inputs":[{"name":"amount","type":"uint256","internalType":"uint256"}],"outputs":[{"name":"","type":"uint256","internalType":"uint256"}],"stateMutability":"view"},{"type":"function","name":"getMetadata","inputs":[{"name":"_proposalId","type":"uint256","internalType":"uint256"}],"outputs":[{"name":"","type":"tuple","internalType":"struct Metadata","components":[{"name":"protocol","type":"uint256","internalType":"uint256"},{"name":"pointer","type":"string","internalType":"string"}]}],"stateMutability":"view"},{"type":"function","name":"getPayouts","inputs":[{"name":"","type":"address[]","internalType":"address[]"},{"name":"","type":"bytes[]","internalType":"bytes[]"}],"outputs":[{"name":"","type":"tuple[]","internalType":"struct IStrategy.PayoutSummary[]","components":[{"name":"recipientAddress","type":"address","internalType":"address"},{"name":"amount","type":"uint256","internalType":"uint256"}]}],"stateMutability":"pure"},{"type":"function","name":"getPointSystem","inputs":[],"outputs":[{"name":"","type":"uint8","internalType":"enum StrategyStruct.PointSystem"}],"stateMutability":"view"},{"type":"function","name":"getPoolAmount","inputs":[],"outputs":[{"name":"","type":"uint256","internalType":"uint256"}],"stateMutability":"view"},{"type":"function","name":"getPoolId","inputs":[],"outputs":[{"name":"","type":"uint256","internalType":"uint256"}],"stateMutability":"view"},{"type":"function","name":"getProposal","inputs":[{"name":"_proposalId","type":"uint256","internalType":"uint256"}],"outputs":[{"name":"submitter","type":"address","internalType":"address"},{"name":"beneficiary","type":"address","internalType":"address"},{"name":"requestedToken","type":"address","internalType":"address"},{"name":"requestedAmount","type":"uint256","internalType":"uint256"},{"name":"stakedAmount","type":"uint256","internalType":"uint256"},{"name":"proposalStatus","type":"uint8","internalType":"enum StrategyStruct.ProposalStatus"},{"name":"blockLast","type":"uint256","internalType":"uint256"},{"name":"convictionLast","type":"uint256","internalType":"uint256"},{"name":"threshold","type":"uint256","internalType":"uint256"},{"name":"voterStakedPoints","type":"uint256","internalType":"uint256"}],"stateMutability":"view"},{"type":"function","name":"getProposalStakedAmount","inputs":[{"name":"_proposalId","type":"uint256","internalType":"uint256"}],"outputs":[{"name":"","type":"uint256","internalType":"uint256"}],"stateMutability":"view"},{"type":"function","name":"getProposalVoterStake","inputs":[{"name":"_proposalId","type":"uint256","internalType":"uint256"},{"name":"_voter","type":"address","internalType":"address"}],"outputs":[{"name":"","type":"uint256","internalType":"uint256"}],"stateMutability":"view"},{"type":"function","name":"getRecipientStatus","inputs":[{"name":"_recipientId","type":"address","internalType":"address"}],"outputs":[{"name":"","type":"uint8","internalType":"enum IStrategy.Status"}],"stateMutability":"view"},{"type":"function","name":"getStrategyId","inputs":[],"outputs":[{"name":"","type":"bytes32","internalType":"bytes32"}],"stateMutability":"view"},{"type":"function","name":"getTotalVoterStakePct","inputs":[{"name":"_voter","type":"address","internalType":"address"}],"outputs":[{"name":"","type":"uint256","internalType":"uint256"}],"stateMutability":"view"},{"type":"function","name":"increasePoolAmount","inputs":[{"name":"_amount","type":"uint256","internalType":"uint256"}],"outputs":[],"stateMutability":"nonpayable"},{"type":"function","name":"increasePower","inputs":[{"name":"_member","type":"address","internalType":"address"},{"name":"_amountToStake","type":"uint256","internalType":"uint256"}],"outputs":[{"name":"","type":"uint256","internalType":"uint256"}],"stateMutability":"nonpayable"},{"type":"function","name":"init","inputs":[{"name":"_allo","type":"address","internalType":"address"},{"name":"_collateralVaultTemplate","type":"address","internalType":"address"},{"name":"owner","type":"address","internalType":"address"}],"outputs":[],"stateMutability":"nonpayable"},{"type":"function","name":"init","inputs":[{"name":"_allo","type":"address","internalType":"address"},{"name":"_name","type":"string","internalType":"string"},{"name":"owner","type":"address","internalType":"address"}],"outputs":[],"stateMutability":"nonpayable"},{"type":"function","name":"initialize","inputs":[{"name":"initialOwner","type":"address","internalType":"address"}],"outputs":[],"stateMutability":"nonpayable"},{"type":"function","name":"initialize","inputs":[{"name":"_poolId","type":"uint256","internalType":"uint256"},{"name":"_data","type":"bytes","internalType":"bytes"}],"outputs":[],"stateMutability":"nonpayable"},{"type":"function","name":"isPoolActive","inputs":[],"outputs":[{"name":"","type":"bool","internalType":"bool"}],"stateMutability":"view"},{"type":"function","name":"isValidAllocator","inputs":[{"name":"_allocator","type":"address","internalType":"address"}],"outputs":[{"name":"","type":"bool","internalType":"bool"}],"stateMutability":"view"},{"type":"function","name":"owner","inputs":[],"outputs":[{"name":"","type":"address","internalType":"address"}],"stateMutability":"view"},{"type":"function","name":"pointConfig","inputs":[],"outputs":[{"name":"maxAmount","type":"uint256","internalType":"uint256"}],"stateMutability":"view"},{"type":"function","name":"pointSystem","inputs":[],"outputs":[{"name":"","type":"uint8","internalType":"enum StrategyStruct.PointSystem"}],"stateMutability":"view"},{"type":"function","name":"proposalCounter","inputs":[],"outputs":[{"name":"","type":"uint256","internalType":"uint256"}],"stateMutability":"view"},{"type":"function","name":"proposalType","inputs":[],"outputs":[{"name":"","type":"uint8","internalType":"enum StrategyStruct.ProposalType"}],"stateMutability":"view"},{"type":"function","name":"proposals","inputs":[{"name":"","type":"uint256","internalType":"uint256"}],"outputs":[{"name":"proposalId","type":"uint256","internalType":"uint256"},{"name":"requestedAmount","type":"uint256","internalType":"uint256"},{"name":"stakedAmount","type":"uint256","internalType":"uint256"},{"name":"convictionLast","type":"uint256","internalType":"uint256"},{"name":"beneficiary","type":"address","internalType":"address"},{"name":"submitter","type":"address","internalType":"address"},{"name":"requestedToken","type":"address","internalType":"address"},{"name":"blockLast","type":"uint256","internalType":"uint256"},{"name":"proposalStatus","type":"uint8","internalType":"enum StrategyStruct.ProposalStatus"},{"name":"metadata","type":"tuple","internalType":"struct Metadata","components":[{"name":"protocol","type":"uint256","internalType":"uint256"},{"name":"pointer","type":"string","internalType":"string"}]},{"name":"disputeInfo","type":"tuple","internalType":"struct StrategyStruct.ProposalDisputeInfo","components":[{"name":"disputeId","type":"uint256","internalType":"uint256"},{"name":"disputeTimestamp","type":"uint256","internalType":"uint256"},{"name":"challenger","type":"address","internalType":"address"},{"name":"submitterCollateralVault","type":"uint256","internalType":"uint256"}]},{"name":"lastDisputeCompletion","type":"uint256","internalType":"uint256"}],"stateMutability":"view"},{"type":"function","name":"proxiableUUID","inputs":[],"outputs":[{"name":"","type":"bytes32","internalType":"bytes32"}],"stateMutability":"view"},{"type":"function","name":"registerRecipient","inputs":[{"name":"_data","type":"bytes","internalType":"bytes"},{"name":"_sender","type":"address","internalType":"address"}],"outputs":[{"name":"recipientId","type":"address","internalType":"address"}],"stateMutability":"payable"},{"type":"function","name":"registryCommunity","inputs":[],"outputs":[{"name":"","type":"address","internalType":"contract RegistryCommunityV0_0"}],"stateMutability":"view"},{"type":"function","name":"renounceOwnership","inputs":[],"outputs":[],"stateMutability":"nonpayable"},{"type":"function","name":"rule","inputs":[{"name":"_disputeID","type":"uint256","internalType":"uint256"},{"name":"_ruling","type":"uint256","internalType":"uint256"}],"outputs":[],"stateMutability":"nonpayable"},{"type":"function","name":"setCollateralVaultTemplate","inputs":[{"name":"template","type":"address","internalType":"address"}],"outputs":[],"stateMutability":"nonpayable"},{"type":"function","name":"setPoolActive","inputs":[{"name":"_active","type":"bool","internalType":"bool"}],"outputs":[],"stateMutability":"nonpayable"},{"type":"function","name":"setPoolParams","inputs":[{"name":"_arbitrableConfig","type":"tuple","internalType":"struct StrategyStruct.ArbitrableConfig","components":[{"name":"arbitrator","type":"address","internalType":"contract IArbitrator"},{"name":"tribunalSafe","type":"address","internalType":"address"},{"name":"submitterCollateralAmount","type":"uint256","internalType":"uint256"},{"name":"challengerCollateralAmount","type":"uint256","internalType":"uint256"},{"name":"defaultRuling","type":"uint256","internalType":"uint256"},{"name":"defaultRulingTimeout","type":"uint256","internalType":"uint256"}]},{"name":"_cvParams","type":"tuple","internalType":"struct StrategyStruct.CVParams","components":[{"name":"maxRatio","type":"uint256","internalType":"uint256"},{"name":"weight","type":"uint256","internalType":"uint256"},{"name":"decay","type":"uint256","internalType":"uint256"},{"name":"minThresholdPoints","type":"uint256","internalType":"uint256"}]}],"outputs":[],"stateMutability":"nonpayable"},{"type":"function","name":"setSybilScorer","inputs":[{"name":"_sybilScorer","type":"address","internalType":"address"}],"outputs":[],"stateMutability":"nonpayable"},{"type":"function","name":"supportsInterface","inputs":[{"name":"interfaceId","type":"bytes4","internalType":"bytes4"}],"outputs":[{"name":"","type":"bool","internalType":"bool"}],"stateMutability":"view"},{"type":"function","name":"sybilScorer","inputs":[],"outputs":[{"name":"","type":"address","internalType":"contract ISybilScorer"}],"stateMutability":"view"},{"type":"function","name":"totalEffectiveActivePoints","inputs":[],"outputs":[{"name":"","type":"uint256","internalType":"uint256"}],"stateMutability":"view"},{"type":"function","name":"totalPointsActivated","inputs":[],"outputs":[{"name":"","type":"uint256","internalType":"uint256"}],"stateMutability":"view"},{"type":"function","name":"totalStaked","inputs":[],"outputs":[{"name":"","type":"uint256","internalType":"uint256"}],"stateMutability":"view"},{"type":"function","name":"totalVoterStakePct","inputs":[{"name":"","type":"address","internalType":"address"}],"outputs":[{"name":"","type":"uint256","internalType":"uint256"}],"stateMutability":"view"},{"type":"function","name":"transferOwnership","inputs":[{"name":"newOwner","type":"address","internalType":"address"}],"outputs":[],"stateMutability":"nonpayable"},{"type":"function","name":"updateProposalConviction","inputs":[{"name":"proposalId","type":"uint256","internalType":"uint256"}],"outputs":[{"name":"","type":"uint256","internalType":"uint256"}],"stateMutability":"nonpayable"},{"type":"function","name":"upgradeTo","inputs":[{"name":"newImplementation","type":"address","internalType":"address"}],"outputs":[],"stateMutability":"nonpayable"},{"type":"function","name":"upgradeToAndCall","inputs":[{"name":"newImplementation","type":"address","internalType":"address"},{"name":"data","type":"bytes","internalType":"bytes"}],"outputs":[],"stateMutability":"payable"},{"type":"function","name":"voterStakedProposals","inputs":[{"name":"","type":"address","internalType":"address"},{"name":"","type":"uint256","internalType":"uint256"}],"outputs":[{"name":"","type":"uint256","internalType":"uint256"}],"stateMutability":"view"},{"type":"event","name":"AdminChanged","inputs":[{"name":"previousAdmin","type":"address","indexed":false,"internalType":"address"},{"name":"newAdmin","type":"address","indexed":false,"internalType":"address"}],"anonymous":false},{"type":"event","name":"Allocated","inputs":[{"name":"recipientId","type":"address","indexed":true,"internalType":"address"},{"name":"amount","type":"uint256","indexed":false,"internalType":"uint256"},{"name":"token","type":"address","indexed":false,"internalType":"address"},{"name":"sender","type":"address","indexed":false,"internalType":"address"}],"anonymous":false},{"type":"event","name":"BeaconUpgraded","inputs":[{"name":"beacon","type":"address","indexed":true,"internalType":"address"}],"anonymous":false},{"type":"event","name":"DisputeRequest","inputs":[{"name":"_arbitrator","type":"address","indexed":true,"internalType":"contract IArbitrator"},{"name":"_arbitrableDisputeID","type":"uint256","indexed":true,"internalType":"uint256"},{"name":"_externalDisputeID","type":"uint256","indexed":false,"internalType":"uint256"},{"name":"_templateId","type":"uint256","indexed":false,"internalType":"uint256"},{"name":"_templateUri","type":"string","indexed":false,"internalType":"string"}],"anonymous":false},{"type":"event","name":"Distributed","inputs":[{"name":"proposalId","type":"uint256","indexed":false,"internalType":"uint256"},{"name":"beneficiary","type":"address","indexed":false,"internalType":"address"},{"name":"amount","type":"uint256","indexed":false,"internalType":"uint256"}],"anonymous":false},{"type":"event","name":"Distributed","inputs":[{"name":"recipientId","type":"address","indexed":true,"internalType":"address"},{"name":"recipientAddress","type":"address","indexed":false,"internalType":"address"},{"name":"amount","type":"uint256","indexed":false,"internalType":"uint256"},{"name":"sender","type":"address","indexed":false,"internalType":"address"}],"anonymous":false},{"type":"event","name":"Initialized","inputs":[{"name":"poolId","type":"uint256","indexed":false,"internalType":"uint256"},{"name":"data","type":"bytes","indexed":false,"internalType":"bytes"}],"anonymous":false},{"type":"event","name":"Initialized","inputs":[{"name":"version","type":"uint8","indexed":false,"internalType":"uint8"}],"anonymous":false},{"type":"event","name":"InitializedCV","inputs":[{"name":"poolId","type":"uint256","indexed":false,"internalType":"uint256"},{"name":"data","type":"tuple","indexed":false,"internalType":"struct StrategyStruct.InitializeParams","components":[{"name":"cvParams","type":"tuple","internalType":"struct StrategyStruct.CVParams","components":[{"name":"maxRatio","type":"uint256","internalType":"uint256"},{"name":"weight","type":"uint256","internalType":"uint256"},{"name":"decay","type":"uint256","internalType":"uint256"},{"name":"minThresholdPoints","type":"uint256","internalType":"uint256"}]},{"name":"proposalType","type":"uint8","internalType":"enum StrategyStruct.ProposalType"},{"name":"pointSystem","type":"uint8","internalType":"enum StrategyStruct.PointSystem"},{"name":"pointConfig","type":"tuple","internalType":"struct StrategyStruct.PointSystemConfig","components":[{"name":"maxAmount","type":"uint256","internalType":"uint256"}]},{"name":"arbitrableConfig","type":"tuple","internalType":"struct StrategyStruct.ArbitrableConfig","components":[{"name":"arbitrator","type":"address","internalType":"contract IArbitrator"},{"name":"tribunalSafe","type":"address","internalType":"address"},{"name":"submitterCollateralAmount","type":"uint256","internalType":"uint256"},{"name":"challengerCollateralAmount","type":"uint256","internalType":"uint256"},{"name":"defaultRuling","type":"uint256","internalType":"uint256"},{"name":"defaultRulingTimeout","type":"uint256","internalType":"uint256"}]},{"name":"registryCommunity","type":"address","internalType":"address"},{"name":"sybilScorer","type":"address","internalType":"address"}]}],"anonymous":false},{"type":"event","name":"MinThresholdPointsUpdated","inputs":[{"name":"before","type":"uint256","indexed":false,"internalType":"uint256"},{"name":"minThresholdPoints","type":"uint256","indexed":false,"internalType":"uint256"}],"anonymous":false},{"type":"event","name":"OwnershipTransferred","inputs":[{"name":"previousOwner","type":"address","indexed":true,"internalType":"address"},{"name":"newOwner","type":"address","indexed":true,"internalType":"address"}],"anonymous":false},{"type":"event","name":"PointsDeactivated","inputs":[{"name":"member","type":"address","indexed":false,"internalType":"address"}],"anonymous":false},{"type":"event","name":"PoolActive","inputs":[{"name":"active","type":"bool","indexed":false,"internalType":"bool"}],"anonymous":false},{"type":"event","name":"PoolAmountIncreased","inputs":[{"name":"amount","type":"uint256","indexed":false,"internalType":"uint256"}],"anonymous":false},{"type":"event","name":"PoolParamsUpdated","inputs":[{"name":"cvParams","type":"tuple","indexed":false,"internalType":"struct StrategyStruct.CVParams","components":[{"name":"maxRatio","type":"uint256","internalType":"uint256"},{"name":"weight","type":"uint256","internalType":"uint256"},{"name":"decay","type":"uint256","internalType":"uint256"},{"name":"minThresholdPoints","type":"uint256","internalType":"uint256"}]},{"name":"arbitrableConfig","type":"tuple","indexed":false,"internalType":"struct StrategyStruct.ArbitrableConfig","components":[{"name":"arbitrator","type":"address","internalType":"contract IArbitrator"},{"name":"tribunalSafe","type":"address","internalType":"address"},{"name":"submitterCollateralAmount","type":"uint256","internalType":"uint256"},{"name":"challengerCollateralAmount","type":"uint256","internalType":"uint256"},{"name":"defaultRuling","type":"uint256","internalType":"uint256"},{"name":"defaultRulingTimeout","type":"uint256","internalType":"uint256"}]}],"anonymous":false},{"type":"event","name":"PowerDecreased","inputs":[{"name":"member","type":"address","indexed":false,"internalType":"address"},{"name":"tokensUnStaked","type":"uint256","indexed":false,"internalType":"uint256"},{"name":"pointsToDecrease","type":"uint256","indexed":false,"internalType":"uint256"}],"anonymous":false},{"type":"event","name":"PowerIncreased","inputs":[{"name":"member","type":"address","indexed":false,"internalType":"address"},{"name":"tokensStaked","type":"uint256","indexed":false,"internalType":"uint256"},{"name":"pointsToIncrease","type":"uint256","indexed":false,"internalType":"uint256"}],"anonymous":false},{"type":"event","name":"ProposalCancelled","inputs":[{"name":"proposalId","type":"uint256","indexed":false,"internalType":"uint256"}],"anonymous":false},{"type":"event","name":"ProposalCreated","inputs":[{"name":"poolId","type":"uint256","indexed":false,"internalType":"uint256"},{"name":"proposalId","type":"uint256","indexed":false,"internalType":"uint256"}],"anonymous":false},{"type":"event","name":"ProposalDisputed","inputs":[{"name":"arbitrator","type":"address","indexed":false,"internalType":"contract IArbitrator"},{"name":"proposalId","type":"uint256","indexed":false,"internalType":"uint256"},{"name":"disputeId","type":"uint256","indexed":false,"internalType":"uint256"},{"name":"challenger","type":"address","indexed":false,"internalType":"address"},{"name":"context","type":"string","indexed":false,"internalType":"string"},{"name":"timestamp","type":"uint256","indexed":false,"internalType":"uint256"}],"anonymous":false},{"type":"event","name":"Registered","inputs":[{"name":"recipientId","type":"address","indexed":true,"internalType":"address"},{"name":"data","type":"bytes","indexed":false,"internalType":"bytes"},{"name":"sender","type":"address","indexed":false,"internalType":"address"}],"anonymous":false},{"type":"event","name":"RegistryUpdated","inputs":[{"name":"registryCommunity","type":"address","indexed":false,"internalType":"address"}],"anonymous":false},{"type":"event","name":"Ruling","inputs":[{"name":"_arbitrator","type":"address","indexed":true,"internalType":"contract IArbitrator"},{"name":"_disputeID","type":"uint256","indexed":true,"internalType":"uint256"},{"name":"_ruling","type":"uint256","indexed":false,"internalType":"uint256"}],"anonymous":false},{"type":"event","name":"SupportAdded","inputs":[{"name":"from","type":"address","indexed":false,"internalType":"address"},{"name":"proposalId","type":"uint256","indexed":false,"internalType":"uint256"},{"name":"amount","type":"uint256","indexed":false,"internalType":"uint256"},{"name":"totalStakedAmount","type":"uint256","indexed":false,"internalType":"uint256"},{"name":"convictionLast","type":"uint256","indexed":false,"internalType":"uint256"}],"anonymous":false},{"type":"event","name":"TribunaSafeRegistered","inputs":[{"name":"strategy","type":"address","indexed":false,"internalType":"address"},{"name":"arbitrator","type":"address","indexed":false,"internalType":"address"},{"name":"tribunalSafe","type":"address","indexed":false,"internalType":"address"}],"anonymous":false},{"type":"event","name":"Upgraded","inputs":[{"name":"implementation","type":"address","indexed":true,"internalType":"address"}],"anonymous":false},{"type":"error","name":"ALLOCATION_ACTIVE","inputs":[]},{"type":"error","name":"ALLOCATION_NOT_ACTIVE","inputs":[]},{"type":"error","name":"ALLOCATION_NOT_ENDED","inputs":[]},{"type":"error","name":"ALREADY_INITIALIZED","inputs":[]},{"type":"error","name":"AMOUNT_MISMATCH","inputs":[]},{"type":"error","name":"ANCHOR_ERROR","inputs":[]},{"type":"error","name":"ARRAY_MISMATCH","inputs":[]},{"type":"error","name":"AddressCannotBeZero","inputs":[]},{"type":"error","name":"AmountOverMaxRatio","inputs":[]},{"type":"error","name":"ArbitrationConfigCannotBeChangedDuringDispute","inputs":[]},{"type":"error","name":"ArbitratorCannotBeZero","inputs":[]},{"type":"error","name":"CallerNotOwner","inputs":[{"name":"_caller","type":"address","internalType":"address"},{"name":"_owner","type":"address","internalType":"address"}]},{"type":"error","name":"CantIncreaseFixedSystem","inputs":[]},{"type":"error","name":"ConvictionUnderMinimumThreshold","inputs":[]},{"type":"error","name":"DefaultRulingNotSet","inputs":[]},{"type":"error","name":"DisputeCooldownNotPassed","inputs":[{"name":"_proposalId","type":"uint256","internalType":"uint256"},{"name":"_remainingSec","type":"uint256","internalType":"uint256"}]},{"type":"error","name":"INVALID","inputs":[]},{"type":"error","name":"INVALID_ADDRESS","inputs":[]},{"type":"error","name":"INVALID_FEE","inputs":[]},{"type":"error","name":"INVALID_METADATA","inputs":[]},{"type":"error","name":"INVALID_REGISTRATION","inputs":[]},{"type":"error","name":"IS_APPROVED_STRATEGY","inputs":[]},{"type":"error","name":"InsufficientCollateral","inputs":[{"name":"sentAmount","type":"uint256","internalType":"uint256"},{"name":"requiredAmount","type":"uint256","internalType":"uint256"}]},{"type":"error","name":"MISMATCH","inputs":[]},{"type":"error","name":"MaxPointsReached","inputs":[]},{"type":"error","name":"NONCE_NOT_AVAILABLE","inputs":[]},{"type":"error","name":"NOT_APPROVED_STRATEGY","inputs":[]},{"type":"error","name":"NOT_ENOUGH_FUNDS","inputs":[]},{"type":"error","name":"NOT_IMPLEMENTED","inputs":[]},{"type":"error","name":"NOT_INITIALIZED","inputs":[]},{"type":"error","name":"NOT_PENDING_OWNER","inputs":[]},{"type":"error","name":"NotEnoughPointsToSupport","inputs":[{"name":"pointsSupport","type":"uint256","internalType":"uint256"},{"name":"pointsBalance","type":"uint256","internalType":"uint256"}]},{"type":"error","name":"NotImplemented","inputs":[]},{"type":"error","name":"OnlyArbitrator","inputs":[]},{"type":"error","name":"OnlyCommunityAllowed","inputs":[]},{"type":"error","name":"OnlyCouncilSafe","inputs":[]},{"type":"error","name":"OnlySubmitter","inputs":[{"name":"submitter","type":"address","internalType":"address"},{"name":"sender","type":"address","internalType":"address"}]},{"type":"error","name":"POOL_ACTIVE","inputs":[]},{"type":"error","name":"POOL_INACTIVE","inputs":[]},{"type":"error","name":"PoolAmountNotEnough","inputs":[{"name":"_proposalId","type":"uint256","internalType":"uint256"},{"name":"_requestedAmount","type":"uint256","internalType":"uint256"},{"name":"_poolAmount","type":"uint256","internalType":"uint256"}]},{"type":"error","name":"PoolIdCannotBeZero","inputs":[]},{"type":"error","name":"PoolIsEmpty","inputs":[]},{"type":"error","name":"ProposalDataIsEmpty","inputs":[]},{"type":"error","name":"ProposalIdCannotBeZero","inputs":[]},{"type":"error","name":"ProposalNotActive","inputs":[{"name":"_proposalId","type":"uint256","internalType":"uint256"}]},{"type":"error","name":"ProposalNotDisputed","inputs":[{"name":"_proposalId","type":"uint256","internalType":"uint256"}]},{"type":"error","name":"ProposalNotInList","inputs":[{"name":"_proposalId","type":"uint256","internalType":"uint256"}]},{"type":"error","name":"ProposalSupportDuplicated","inputs":[{"name":"_proposalId","type":"uint256","internalType":"uint256"},{"name":"index","type":"uint256","internalType":"uint256"}]},{"type":"error","name":"RECIPIENT_ALREADY_ACCEPTED","inputs":[]},{"type":"error","name":"RECIPIENT_ERROR","inputs":[{"name":"recipientId","type":"address","internalType":"address"}]},{"type":"error","name":"RECIPIENT_NOT_ACCEPTED","inputs":[]},{"type":"error","name":"REGISTRATION_NOT_ACTIVE","inputs":[]},{"type":"error","name":"RegistryCannotBeZero","inputs":[]},{"type":"error","name":"SupportUnderflow","inputs":[{"name":"_support","type":"uint256","internalType":"uint256"},{"name":"_delta","type":"int256","internalType":"int256"},{"name":"_result","type":"int256","internalType":"int256"}]},{"type":"error","name":"TokenCannotBeZero","inputs":[]},{"type":"error","name":"TokenNotAllowed","inputs":[]},{"type":"error","name":"UNAUTHORIZED","inputs":[]},{"type":"error","name":"UserCannotBeZero","inputs":[]},{"type":"error","name":"UserCannotExecuteAction","inputs":[]},{"type":"error","name":"UserIsInactive","inputs":[]},{"type":"error","name":"UserNotInRegistry","inputs":[]},{"type":"error","name":"ZERO_ADDRESS","inputs":[]}],"bytecode":{"object":"0x60a060405230608052606d80546001600160401b03191690556000606e5534801561002957600080fd5b50608051616309620000626000396000818161169f015281816116df0152818161176f015281816117af015261182701526163096000f3fe6080604052600436106103215760003560e01c8063013cf08b1461032a57806301ffc9a71461036b578063062f9ece1461039b5780630a6f0ee9146103bb5780630ba95909146103db5780630bece79c146103fa5780630c0512e9146104275780630f529ba21461043d5780631073e9961461045457806315cc481e146104c3578063184b9559146104e15780631aa91a9e146105015780631ddf1e23146105215780632506b87014610536578063255ffb38146105795780632bbe0cae146105a65780632dbd6fdd146105b95780632ed04b2b146105e5578063311a6c56146106055780633396045914610625578063346db8cb1461063b578063351d9f961461065b5780633659cfe61461068257806338fff2d0146106a2578063406244d8146106b757806342fda9c7146106cc5780634ab4ba42146106e15780634d31d087146106f65780634f1ef2861461071657806352d1902d1461072957806359a5db8b1461073e5780635db64b991461075e5780636003e4141461078b57806360d5dedc146107ab578063626c47e8146107cb5780636453d9c4146107e0578063715018a614610800578063782aadff14610815578063814516ad14610835578063817b1cd21461084a578063824ea8ed14610860578063868c57b8146108805780638da5cb5b146108a0578063950559d7146108b55780639a1c157c146108d5578063a0cf0aea146108ea578063a28889e114610912578063a47ff7e51461094a578063a574cea414610961578063aba9ffee1461098e578063ac1ed7b9146109a4578063b0d3713a146109c4578063b2b878d0146109e4578063b41596ec14610a11578063b5f620ce14610a24578063b6c61f3114610a44578063bcc5b93b14610a64578063c329217114610a84578063c4d66de814610aa1578063c7f758a814610ac1578063d1e3623214610af7578063dc96ff2d14610b0c578063df868ed314610b3c578063e0a8f6f514610b51578063e0dd2c3814610b71578063eb11af9314610b91578063edd146cc14610bb9578063ef2920fc14610bd9578063f2fde38b14610bec578063f5b0dfb714610c0c578063f5be3f7c14610c2c57005b3661032857005b005b34801561033657600080fd5b5061034a610345366004614cc1565b610c42565b6040516103629c9b9a99989796959493929190614d6f565b60405180910390f35b34801561037757600080fd5b5061038b610386366004614e13565b610d93565b6040519015158152602001610362565b3480156103a757600080fd5b506103286103b6366004614f48565b610dca565b3480156103c757600080fd5b506103286103d636600461511d565b610de0565b3480156103e757600080fd5b506076545b604051908152602001610362565b34801561040657600080fd5b50607e5461041a906001600160a01b031681565b6040516103629190615194565b34801561043357600080fd5b506103ec606e5481565b34801561044957600080fd5b506103ec6298968081565b34801561046057600080fd5b50607754607854607954607a54607b54607c5461048b956001600160a01b0390811695169392919086565b604080516001600160a01b039788168152969095166020870152938501929092526060840152608083015260a082015260c001610362565b3480156104cf57600080fd5b506065546001600160a01b031661041a565b3480156104ed57600080fd5b506103286104fc3660046151a8565b610e00565b34801561050d57600080fd5b506103ec61051c366004614cc1565b610f60565b34801561052d57600080fd5b50610328610faa565b34801561054257600080fd5b506071546072546073546074546105599392919084565b604080519485526020850193909352918301526060820152608001610362565b34801561058557600080fd5b506103ec610594366004614cc1565b60836020526000908152604090205481565b61041a6105b43660046151e8565b610fb5565b3480156105c557600080fd5b506075546105d890610100900460ff1681565b604051610362919061524d565b3480156105f157600080fd5b506103ec61060036600461525b565b610fd8565b34801561061157600080fd5b50610328610620366004615287565b61109c565b34801561063157600080fd5b506103ec606c5481565b34801561064757600080fd5b506103ec6106563660046152a9565b6115fa565b34801561066757600080fd5b506075546106759060ff1681565b60405161036291906152e5565b34801561068e57600080fd5b5061032861069d3660046152f3565b611695565b3480156106ae57600080fd5b506068546103ec565b3480156106c357600080fd5b506103ec600a81565b3480156106d857600080fd5b506066546103ec565b3480156106ed57600080fd5b506069546103ec565b34801561070257600080fd5b5061038b6107113660046152f3565b61175d565b610328610724366004615310565b611765565b34801561073557600080fd5b506103ec61181a565b34801561074a57600080fd5b506103ec610759366004614cc1565b6118c8565b34801561076a57600080fd5b506103ec6107793660046152f3565b60816020526000908152604090205481565b34801561079757600080fd5b50607d5461041a906001600160a01b031681565b3480156107b757600080fd5b506103286107c636600461535f565b6119e2565b3480156107d757600080fd5b506103ec600381565b3480156107ec57600080fd5b506103286107fb3660046152f3565b611a5e565b34801561080c57600080fd5b50610328611a6f565b34801561082157600080fd5b506103ec61083036600461525b565b611a81565b34801561084157600080fd5b50610328611c13565b34801561085657600080fd5b506103ec606f5481565b34801561086c57600080fd5b5061038b61087b366004614cc1565b611d2a565b34801561088c57600080fd5b506103ec61089b36600461525b565b611d87565b3480156108ac57600080fd5b5061041a611db8565b3480156108c157600080fd5b506103ec6108d0366004614cc1565b611e49565b3480156108e157600080fd5b506073546103ec565b3480156108f657600080fd5b5061041a73eeeeeeeeeeeeeeeeeeeeeeeeeeeeeeeeeeeeeeee81565b34801561091e57600080fd5b50606d54610932906001600160401b031681565b6040516001600160401b039091168152602001610362565b34801561095657600080fd5b506076546103ec9081565b34801561096d57600080fd5b5061098161097c366004614cc1565b611e73565b60405161036291906153ba565b34801561099a57600080fd5b506103ec60705481565b3480156109b057600080fd5b506103286109bf3660046152f3565b611f52565b3480156109d057600080fd5b506103286109df3660046152f3565b611f85565b3480156109f057600080fd5b50610a046109ff3660046153cd565b611faf565b60405161036291906154a1565b6103ec610a1f36600461553a565b611fca565b348015610a3057600080fd5b50610328610a3f3660046155c1565b6122c3565b348015610a5057600080fd5b50607f5461041a906001600160a01b031681565b348015610a7057600080fd5b506103ec610a7f3660046152f3565b6122cc565b348015610a9057600080fd5b50607554610100900460ff166105d8565b348015610aad57600080fd5b50610328610abc3660046152f3565b6122e7565b348015610acd57600080fd5b50610ae1610adc366004614cc1565b612317565b6040516103629a999897969594939291906155de565b348015610b0357600080fd5b506070546103ec565b348015610b1857600080fd5b506103ec610b27366004614cc1565b60009081526080602052604090206002015490565b348015610b4857600080fd5b5061038b612419565b348015610b5d57600080fd5b50610328610b6c366004614cc1565b61242c565b348015610b7d57600080fd5b506103ec610b8c366004615644565b6125a1565b348015610b9d57600080fd5b50610bac6107113660046152f3565b6040516103629190615669565b348015610bc557600080fd5b50610328610bd436600461567c565b6125cc565b610328610be73660046151e8565b6127a6565b348015610bf857600080fd5b50610328610c073660046152f3565b6127c0565b348015610c1857600080fd5b50610328610c27366004614cc1565b61282d565b348015610c3857600080fd5b506103ec611c2081565b6080602090815260009182526040918290208054600182015460028301546003840154600485015460058601546006870154600788015460088901548b51808d01909c52600a8a0180548d52600b8b0180549a9d999c989b979a6001600160a01b039788169a968816999790951697939660ff9093169593949192840191610cc9906156ac565b80601f0160208091040260200160405190810160405280929190818152602001828054610cf5906156ac565b8015610d425780601f10610d1757610100808354040283529160200191610d42565b820191906000526020600020905b815481529060010190602001808311610d2557829003601f168201915b50505091909252505060408051608081018252600c8501548152600d8501546020820152600e8501546001600160a01b031691810191909152600f840154606082015260109093015491929190508c565b60006001600160e01b0319821663f1801e6160e01b1480610dc457506301ffc9a760e01b6001600160e01b03198316145b92915050565b610dd2612856565b610ddc82826128fe565b5050565b610de8612b32565b610df0612b5d565b610dfb838383612b80565b505050565b600054610100900460ff1615808015610e205750600054600160ff909116105b80610e415750610e2f30612e79565b158015610e41575060005460ff166001145b610ea95760405162461bcd60e51b815260206004820152602e60248201527f496e697469616c697a61626c653a20636f6e747261637420697320616c72656160448201526d191e481a5b9a5d1a585b1a5e995960921b60648201526084015b60405180910390fd5b6000805460ff191660011790558015610ecc576000805461ff0019166101001790555b610ef9846040518060400160405280600a8152602001694356537472617465677960b01b815250846119e2565b606a80546001600160a01b0319166001600160a01b0385161790558015610f5a576000805461ff0019169055604051600181527f7f26b83ff96e1f2b6a682f133852f6798a09c465da95921460cefb38474024989060200160405180910390a15b50505050565b600081815260806020526040812080548314610f925760405163c1d17bef60e01b815260048101849052602401610ea0565b610fa0818260020154612e88565b6003015492915050565b610fb333612ec3565b565b6000610fbf612b32565b610fc7612b5d565b610fd18383612fe8565b9392505050565b6000610fe26133a1565b60006002607554610100900460ff16600381111561100257611002614cda565b148061102957506001607554610100900460ff16600381111561102757611027614cda565b145b15611035575081611042565b61103f84846133cc565b90505b806070600082825461105491906156f6565b90915550506040517f70b752f3fadb6ac131c0ece847fcbb6994ec56ed6411595710fd9b29c6ac6cc19061108d90869086908590615709565b60405180910390a19392505050565b6000828152608360209081526040808320548084526080909252822090918290036110dd5760405163c1d17bef60e01b815260048101839052602401610ea0565b6005600882015460ff1660068111156110f8576110f8614cda565b1461111957604051634b011ca960e11b815260048101839052602401610ea0565b607c54600d82015460009161112d9161572a565b4211905080158161114957506077546001600160a01b03163314155b1561116757604051631777988560e11b815260040160405180910390fd5b8080611171575083155b156112b257607b5460000361119957604051630dd466dd60e41b815260040160405180910390fd5b607b546001036111b35760088201805460ff191660011790555b607b5460020361123e5760088201805460ff19166006179055607e546005830154600f84015460405163099ea56b60e41b81526001600160a01b03938416936399ea56b09361120b938993929091169160040161573d565b600060405180830381600087803b15801561122557600080fd5b505af1158015611239573d6000803e3d6000fd5b505050505b607e54600e830154607a5460405163099ea56b60e41b81526001600160a01b03938416936399ea56b09361127b938993929091169160040161573d565b600060405180830381600087803b15801561129557600080fd5b505af11580156112a9573d6000803e3d6000fd5b5050505061156f565b836001036113755760088201805460ff19166001179055607e54600e830154607d5460408051633629edcd60e11b815290516001600160a01b0394851694638969ab5394899490821693911691636c53db9a916004808201926020929091908290030181865afa15801561132a573d6000803e3d6000fd5b505050506040513d601f19601f8201168201806040525081019061134e919061575c565b607a546040516001600160e01b031960e087901b16815261127b9493929190600401615779565b8360020361156f5760088201805460ff19166006179055607e54600e830154607a5460405163099ea56b60e41b81526001600160a01b03938416936399ea56b0936113c9938993929091169160040161573d565b600060405180830381600087803b1580156113e357600080fd5b505af11580156113f7573d6000803e3d6000fd5b5050607e546005850154607d5460408051633629edcd60e11b815290516001600160a01b039485169650638969ab53955089949384169390921691636c53db9a916004808201926020929091908290030181865afa15801561145d573d6000803e3d6000fd5b505050506040513d601f19601f82011682018060405250810190611481919061575c565b600f870154611492906002906157b4565b6040518563ffffffff1660e01b81526004016114b19493929190615779565b600060405180830381600087803b1580156114cb57600080fd5b505af11580156114df573d6000803e3d6000fd5b5050607e546005850154600e860154600f8701546001600160a01b039384169550638969ab5394508893928316929091169061151d906002906157b4565b6040518563ffffffff1660e01b815260040161153c9493929190615779565b600060405180830381600087803b15801561155657600080fd5b505af115801561156a573d6000803e3d6000fd5b505050505b606d80546001600160401b0316906000611588836157d6565b82546001600160401b039182166101009390930a92830291909202199091161790555042601083015560775460405185815286916001600160a01b0316907f394027a5fa6e098a1191094d1719d6929b9abc535fcc0c8f448d6a4e756222769060200160405180910390a35050505050565b6073546000908490829061161f9061161990629896809060801b6157b4565b836135d3565b905060806001607f1b6071600201546298968061163c91906156f6565b61164a84600160801b6156f6565b61165762989680896157f9565b61166191906157f9565b61166b91906157b4565b61167588856157f9565b61167f919061572a565b611689919061572a565b901c9695505050505050565b6001600160a01b037f00000000000000000000000000000000000000000000000000000000000000001630036116dd5760405162461bcd60e51b8152600401610ea090615810565b7f00000000000000000000000000000000000000000000000000000000000000006001600160a01b031661170f61367b565b6001600160a01b0316146117355760405162461bcd60e51b8152600401610ea09061584a565b61173e81613697565b6040805160008082526020820190925261175a918391906136d2565b50565b600080610dc4565b6001600160a01b037f00000000000000000000000000000000000000000000000000000000000000001630036117ad5760405162461bcd60e51b8152600401610ea090615810565b7f00000000000000000000000000000000000000000000000000000000000000006001600160a01b03166117df61367b565b6001600160a01b0316146118055760405162461bcd60e51b8152600401610ea09061584a565b61180e82613697565b610ddc828260016136d2565b6000306001600160a01b037f000000000000000000000000000000000000000000000000000000000000000016146118b55760405162461bcd60e51b815260206004820152603860248201527f555550535570677261646561626c653a206d757374206e6f742062652063616c6044820152771b1959081d1a1c9bdd59da0819195b1959d85d1958d85b1b60421b6064820152608401610ea0565b5060008051602061626d83398151915290565b600080606954116118ec5760405163ed4421ad60e01b815260040160405180910390fd5b6118f58261383d565b1561191357604051630efd728560e21b815260040160405180910390fd5b60695460009061192784600160401b6157f9565b61193191906157b4565b607154629896809061194790600160401b6157f9565b61195191906157b4565b61195b91906156f6565b9050604061196860705490565b60735461197890629896806156f6565b62989680604061198886806157f9565b607254911c9061199f90629896809060801b6157b4565b6119a991906157b4565b6119b391906157f9565b6119bd91906157b4565b6119c791906157f9565b607454911c925082116119dc57607454610fd1565b50919050565b600054610100900460ff16611a095760405162461bcd60e51b8152600401610ea090615884565b611a12816122e7565b606580546001600160a01b0319166001600160a01b038516179055604051611a3e9083906020016158cf565b60408051601f198184030181529190528051602090910120606655505050565b611a666133a1565b61175a81612ec3565b611a77613864565b610fb360006138c3565b6000611a8b6133a1565b611a9483613915565b611ab157604051630b72d6b160e31b815260040160405180910390fd5b60006002607554610100900460ff166003811115611ad157611ad1614cda565b03611adf57825b9050611b3c565b6001607554610100900460ff166003811115611afd57611afd614cda565b03611b0c57611ad884846139a3565b6003607554610100900460ff166003811115611b2a57611b2a614cda565b03611b3c57611b398484613a4a565b90505b607d5460405163011de97360e61b81526000916001600160a01b03169063477a5cc090611b6f90889030906004016158e2565b602060405180830381865afa158015611b8c573d6000803e3d6000fd5b505050506040513d601f19601f82011682018060405250810190611bb091906158fc565b90508015611bd0578160706000828254611bca919061572a565b90915550505b7f0b9150e1e54346ed3fa36b977cd5d65dca5a649c737c3174a26bddaadd47667a858584604051611c0393929190615709565b60405180910390a1509392505050565b33611c1d81613915565b611c3a57604051630b72d6b160e31b815260040160405180910390fd5b607d54604051630d4a8b4960e01b81526001600160a01b0390911690630d4a8b4990611c6c90849030906004016158e2565b600060405180830381600087803b158015611c8657600080fd5b505af1158015611c9a573d6000803e3d6000fd5b5050607d54604051637817ee4f60e01b81526001600160a01b039091169250637817ee4f9150611cd090849030906004016158e2565b602060405180830381865afa158015611ced573d6000803e3d6000fd5b505050506040513d601f19601f82011682018060405250810190611d119190615919565b60706000828254611d22919061572a565b909155505050565b6000818152608060205260408120600281015482908190611d4c908490613c4f565b91509150816000148015611d5e575080155b15611d6b57826003015491505b6000611d7a84600101546118c8565b9092101595945050505050565b60826020528160005260406000208181548110611da357600080fd5b90600052602060002001600091509150505481565b600080611dcd6033546001600160a01b031690565b9050806001600160a01b03163b600003611de657919050565b806001600160a01b0316638da5cb5b6040518163ffffffff1660e01b8152600401602060405180830381865afa925050508015611e40575060408051601f3d908101601f19168201909252611e3d9181019061575c565b60015b610dc457919050565b607354600090611e5c90629896806156f6565b611e6962989680846157f9565b610dc491906157b4565b604080518082019091526000815260606020820152600060806000848152602001908152602001600020905080600a0160405180604001604052908160008201548152602001600182018054611ec8906156ac565b80601f0160208091040260200160405190810160405280929190818152602001828054611ef4906156ac565b8015611f415780601f10611f1657610100808354040283529160200191611f41565b820191906000526020600020905b815481529060010190602001808311611f2457829003601f168201915b505050505081525050915050919050565b611f5a612856565b611f6381613ca7565b607f80546001600160a01b0319166001600160a01b0392909216919091179055565b611f8d613864565b606a80546001600160a01b0319166001600160a01b0392909216919091179055565b606060405163d623472560e01b815260040160405180910390fd5b60008581526080602052604081206077546001600160a01b031661200157604051636c291fd360e01b815260040160405180910390fd5b805487146120255760405163c1d17bef60e01b815260048101889052602401610ea0565b6001600882015460ff16600681111561204057612040614cda565b14612061576040516344980d8f60e01b815260048101889052602401610ea0565b607a5434101561208957607a54604051632c1f8ef160e21b8152610ea0913491600401615942565b6010810154158015906120ac575042611c2082601001546120aa919061572a565b115b156120ea578642611c2083601001546120c5919061572a565b6120cf91906156f6565b604051638d2f6c3160e01b8152600401610ea0929190615942565b607a546000906120fa90346156f6565b607e54607a5460405163240ff7c560e11b81529293506001600160a01b039091169163481fef8a9190612133908c903390600401615950565b6000604051808303818588803b15801561214c57600080fd5b505af1158015612160573d6000803e3d6000fd5b505060775460405163c13517e160e01b81526001600160a01b03909116935063c13517e1925084915061219c906003908a908a90600401615990565b60206040518083038185885af11580156121ba573d6000803e3d6000fd5b50505050506040513d601f19601f820116820180604052508101906121df9190615919565b60088301805491945060059160ff19166001830217905550600c820183905542600d830155600e820180546001600160a01b031916331790556000838152608360205260408120899055606d80546001600160401b031691612240836159b3565b82546001600160401b039182166101009390930a928302919092021990911617905550607754600d8301546040517f034f6a48076db1bcaaa311ccdc43d473aff44d3918a76fe0fae27c8b3665016d926122b0926001600160a01b03909116918c91889133918e918e91906159e1565b60405180910390a1505095945050505050565b61175a81613cce565b6001600160a01b031660009081526081602052604090205490565b600054610100900460ff1661230e5760405162461bcd60e51b8152600401610ea090615884565b61175a816138c3565b6000806000806000806000806000806000608060008d81526020019081526020016000209050806001015460001461235b5761235681600101546118c8565b61235e565b60005b92508060050160009054906101000a90046001600160a01b03168160040160009054906101000a90046001600160a01b03168260060160009054906101000a90046001600160a01b0316836001015484600201548560080160009054906101000a900460ff16866007015487600301548a896009016000336001600160a01b03166001600160a01b03168152602001908152602001600020549a509a509a509a509a509a509a509a509a509a50509193959799509193959799565b600061242760675460ff1690565b905090565b600160008281526080602052604090206008015460ff16600681111561245457612454614cda565b14612475576040516344980d8f60e01b815260048101829052602401610ea0565b6000818152608060205260409020600501546001600160a01b031633146124ce5760008181526080602052604090819020600501549051634544dc9160e11b8152610ea0916001600160a01b03169033906004016158e2565b607e54600082815260806020526040908190206005810154600f90910154915163099ea56b60e41b81526001600160a01b03938416936399ea56b09361251b93879392169160040161573d565b600060405180830381600087803b15801561253557600080fd5b505af1158015612549573d6000803e3d6000fd5b505050600082815260806020908152604091829020600801805460ff1916600317905590518381527f416e669c63d9a3a5e36ee7cc7e2104b8db28ccd286aa18966e98fa230c73b08c9250015b60405180910390a150565b60008281526080602090815260408083206001600160a01b0385168452600901909152812054610fd1565b6125d4612b32565b6125dd82613d0f565b606a54606c8054612606926001600160a01b03169160006125fd83615a30565b91905055613d5e565b607e80546001600160a01b0319166001600160a01b039290921691821790556040805163204a7f0760e21b81529051638129fc1c9160048082019260009290919082900301818387803b15801561265c57600080fd5b505af1158015612670573d6000803e3d6000fd5b5050505060008180602001905181019061268a9190615b14565b60a08101519091506001600160a01b03166126b857604051635df4b1ef60e01b815260040160405180910390fd5b60a0810151607d80546001600160a01b0319166001600160a01b0390921691909117905560208101516075805460ff191660018360028111156126fd576126fd614cda565b021790555060408101516075805461ff00191661010083600381111561272557612725614cda565b021790555060608101515160765560c0810151607f80546001600160a01b0319166001600160a01b039092169190911790556080810151815161276891906128fe565b7fe5315be7b0ab27f8044fa25213ec2851fa61dd47203db658cf77f45f39ffc37b8382604051612799929190615c4a565b60405180910390a1505050565b6127ae612b32565b6127b6612b5d565b610ddc8282613dad565b6127c8613864565b6001600160a01b03811661230e5760405162461bcd60e51b815260206004820152602660248201527f4f776e61626c653a206e6577206f776e657220697320746865207a65726f206160448201526564647265737360d01b6064820152608401610ea0565b612835612b32565b8060696000828254612847919061572a565b9091555061175a905081613e9c565b607d60009054906101000a90046001600160a01b03166001600160a01b0316636c53db9a6040518163ffffffff1660e01b8152600401602060405180830381865afa1580156128a9573d6000803e3d6000fd5b505050506040513d601f19601f820116820180604052508101906128cd919061575c565b6001600160a01b0316336001600160a01b031614610fb357604051637430763f60e11b815260040160405180910390fd5b60208201516001600160a01b031615801590612923575081516001600160a01b031615155b80156129a0575060785460208301516001600160a01b03908116911614158061295c575060775482516001600160a01b03908116911614155b8061296d5750607954604083015114155b8061297e5750607a54606083015114155b8061298f5750607b54608083015114155b806129a05750607c5460a083015114155b15612ad857606d546001600160401b0316156129cf5760405163fcc12b5b60e01b815260040160405180910390fd5b8151602083015160405163446adb9960e11b81526001600160a01b03909216916388d5b73291612a0191600401615194565b600060405180830381600087803b158015612a1b57600080fd5b505af1158015612a2f573d6000803e3d6000fd5b5050607754607854604080513081526001600160a01b0393841660208201529290911682820152517fdc20f5c479493aac0cf803ca3b82ebc1964faa557450a37ea0a8121b0e98454f9350908190036060019150a18151607780546001600160a01b039283166001600160a01b03199182161790915560208401516078805491909316911617905560408201516079556060820151607a556080820151607b5560a0820151607c555b805160715560208101516072556040808201516073556060820151607455517fb47aac82f31da18600e28bcf208952b653a703f7eb216def6198ee31280b955d90612b269083908590615cd4565b60405180910390a15050565b6065546001600160a01b03163314610fb35760405163075fd2b160e01b815260040160405180910390fd5b606854600003610fb357604051630f68fe6360e21b815260040160405180910390fd5b6000825111612ba257604051630317df1360e61b815260040160405180910390fd5b600082806020019051810190612bb89190615919565b905080600003612bdb5760405163f881a10d60e01b815260040160405180910390fd5b6000818152608060205260409020600160755460ff166002811115612c0257612c02614cda565b03612e725780548214612c2b5760405163c1d17bef60e01b815260048101839052602401610ea0565b60695481600101541115612c5e57818160010154606954604051632c31d85b60e11b8152600401610ea093929190615cf0565b6001600882015460ff166006811115612c7957612c79614cda565b14612c9a576040516344980d8f60e01b815260048101839052602401610ea0565b6000612ca583610f60565b90506000612cb683600101546118c8565b90508082108015612ccb575060008360010154115b15612ce95760405163199cf26160e31b815260040160405180910390fd5b60655460685460405163068bcd8d60e01b815260048101919091526000916001600160a01b03169063068bcd8d90602401600060405180830381865afa158015612d37573d6000803e3d6000fd5b505050506040513d6000823e601f3d908101601f19168201604052612d5f9190810190615d93565b9050836001015460696000828254612d7791906156f6565b9091555050604081015160048501546001860154612d9f92916001600160a01b031690613ecc565b60088401805460ff19166004908117909155607e546005860154600f87015460405163099ea56b60e41b81526001600160a01b03938416946399ea56b094612dee948c9491169290910161573d565b600060405180830381600087803b158015612e0857600080fd5b505af1158015612e1c573d6000803e3d6000fd5b505050600485015460018601546040517fa7932e9c92f31e1ed56b29d00bbe669a97484dc24de28dd9c8c0429df7f358479350612e669289926001600160a01b039091169161573d565b60405180910390a15050505b5050505050565b6001600160a01b03163b151590565b600080612e958484613c4f565b91509150816000148015612ea7575080155b15612eb25750505050565b600784015560039092019190915550565b607d54604051637817ee4f60e01b81526001600160a01b0390911690637817ee4f90612ef590849030906004016158e2565b602060405180830381865afa158015612f12573d6000803e3d6000fd5b505050506040513d601f19601f82011682018060405250810190612f369190615919565b60706000828254612f4791906156f6565b9091555050607d546040516322bcf99960e01b81526001600160a01b03909116906322bcf99990612f7e90849030906004016158e2565b600060405180830381600087803b158015612f9857600080fd5b505af1158015612fac573d6000803e3d6000fd5b50505050612fb981613f06565b7f1468da654b37bb3631011c1917d02e0db437d519918858d40b38b5e980ca033b816040516125969190615194565b6000612ff382613915565b61301057604051630b72d6b160e31b815260040160405180910390fd5b6000838060200190518101906130269190615e46565b805190915060000361304b5760405163273c8bc360e11b815260040160405180910390fd5b600160755460ff16600281111561306457613064614cda565b036131e5576130768160200151613ca7565b60608101516001600160a01b03166130a15760405163165a825360e21b815260040160405180910390fd5b6000306001600160a01b03166315cc481e6040518163ffffffff1660e01b8152600401602060405180830381865afa1580156130e1573d6000803e3d6000fd5b505050506040513d601f19601f82011682018060405250810190613105919061575c565b825160405163068bcd8d60e01b815260048101919091529091506000906001600160a01b0383169063068bcd8d90602401600060405180830381865afa158015613153573d6000803e3d6000fd5b505050506040513d6000823e601f3d908101601f1916820160405261317b9190810190615d93565b905080604001516001600160a01b031683606001516001600160a01b0316146131b75760405163514e24c360e11b815260040160405180910390fd5b6131c4836040015161383d565b156131e257604051630efd728560e21b815260040160405180910390fd5b50505b6077546001600160a01b031615801590613200575060795434105b1561322357607954604051632c1f8ef160e21b8152610ea0913491600401615942565b6000606e6000815461323490615a30565b918290555060008181526080602081815260408084208581556005810180546001600160a01b038c81166001600160a01b0319928316179092558985015160048401805491841691831691909117905560608a01516006840180549190931691161790559087015160018083019190915560088201805460ff191690911790554360078201556003810193909355908501518051600a8401908155918101519394509192600b8401906132e79082615f3a565b5050607954600f83015550607e54600582015460405163240ff7c560e11b81526001600160a01b039283169263481fef8a92349261332b9288921690600401615950565b6000604051808303818588803b15801561334457600080fd5b505af1158015613358573d6000803e3d6000fd5b50505050507ffcf3b1aa65a464cef2889608f99e8b8c0f680a4be6c2acb9d961c536a5a9294b60685483604051613390929190615942565b60405180910390a150949350505050565b607d546001600160a01b03163314610fb3576040516357848b5160e11b815260040160405180910390fd5b607d54604080516336d8759760e21b815290516000926012926001600160a01b039091169163db61d65c916004808201926020929091908290030181865afa15801561341c573d6000803e3d6000fd5b505050506040513d601f19601f82011682018060405250810190613440919061575c565b6001600160a01b031663313ce5676040518163ffffffff1660e01b8152600401602060405180830381865afa925050508015613499575060408051601f3d908101601f1916820190925261349691810190615ff9565b60015b156134a45760ff1690505b607d546040516316308e2560e11b815260009185916001600160a01b0390911690632c611c4a906134d9908990600401615194565b602060405180830381865afa1580156134f6573d6000803e3d6000fd5b505050506040513d601f19601f8201168201806040525081019061351a9190615919565b61352491906156f6565b9050600061354561353684600a616100565b61354090846157f9565b614067565b607d54604051637817ee4f60e01b815291925060009183916001600160a01b031690637817ee4f9061357d908b9030906004016158e2565b602060405180830381865afa15801561359a573d6000803e3d6000fd5b505050506040513d601f19601f820116820180604052508101906135be9190615919565b6135c891906156f6565b979650505050505050565b6000600160801b83106136275760405162461bcd60e51b815260206004820152601c60248201527b0bec240e6d0deead8c840c4ca40d8cae6e640e8d0c2dc4064bc6264760231b6044820152606401610ea0565b50600160801b82825b801561367357806001166000036136555761364b828361414f565b915060011c613630565b61365f838361414f565b925061366c6001826156f6565b9050613630565b505092915050565b60008051602061626d833981519152546001600160a01b031690565b336136a0611db8565b6001600160a01b03161461175a57336136b7611db8565b60405163163678e960e01b8152600401610ea09291906158e2565b7f4910fdfa16fed3260ed0e7147f7cc6da11a60208b5b9406d12a635614ffd91435460ff161561370557610dfb8361422c565b826001600160a01b03166352d1902d6040518163ffffffff1660e01b8152600401602060405180830381865afa92505050801561375f575060408051601f3d908101601f1916820190925261375c91810190615919565b60015b6137c25760405162461bcd60e51b815260206004820152602e60248201527f45524331393637557067726164653a206e657720696d706c656d656e7461746960448201526d6f6e206973206e6f74205555505360901b6064820152608401610ea0565b60008051602061626d83398151915281146138315760405162461bcd60e51b815260206004820152602960248201527f45524331393637557067726164653a20756e737570706f727465642070726f786044820152681a58589b195555525160ba1b6064820152608401610ea0565b50610dfb8383836142c6565b600061384c62989680836157f9565b60695460715461385c91906157f9565b111592915050565b3361386d611db8565b6001600160a01b031614610fb35760405162461bcd60e51b815260206004820181905260248201527f4f776e61626c653a2063616c6c6572206973206e6f7420746865206f776e65726044820152606401610ea0565b603380546001600160a01b038381166001600160a01b0319831681179093556040519116919082907f8be0079c531659141344cd1fd0a4f28419497f9722a3daafe3b4186f6b6457e090600090a35050565b607f546000906001600160a01b031661393057506001919050565b607f546040516302154c3d60e51b81526001600160a01b03909116906342a987a09061396290859030906004016158e2565b602060405180830381865afa15801561397f573d6000803e3d6000fd5b505050506040513d601f19601f82011682018060405250810190610dc491906158fc565b607d54604051637817ee4f60e01b8152600091839183916001600160a01b031690637817ee4f906139da90889030906004016158e2565b602060405180830381865afa1580156139f7573d6000803e3d6000fd5b505050506040513d601f19601f82011682018060405250810190613a1b9190615919565b607654909150613a2b838361572a565b1115613a4257607654613a3f9082906156f6565b91505b509392505050565b607d546040516316308e2560e11b8152600091829184916001600160a01b031690632c611c4a90613a7f908890600401615194565b602060405180830381865afa158015613a9c573d6000803e3d6000fd5b505050506040513d601f19601f82011682018060405250810190613ac09190615919565b613aca919061572a565b607d54604080516336d8759760e21b815290519293506012926001600160a01b039092169163db61d65c916004808201926020929091908290030181865afa158015613b1a573d6000803e3d6000fd5b505050506040513d601f19601f82011682018060405250810190613b3e919061575c565b6001600160a01b031663313ce5676040518163ffffffff1660e01b8152600401602060405180830381865afa925050508015613b97575060408051601f3d908101601f19168201909252613b9491810190615ff9565b60015b15613ba25760ff1690505b6000613bbc613bb283600a616100565b61354090856157f9565b607d54604051637817ee4f60e01b81529192506000916001600160a01b0390911690637817ee4f90613bf4908a9030906004016158e2565b602060405180830381865afa158015613c11573d6000803e3d6000fd5b505050506040513d601f19601f82011682018060405250810190613c359190615919565b90506000613c4382846156f6565b98975050505050505050565b6000804390508084600701541115613c6957613c6961610c565b80846007015403613c7f57506000905080613ca0565b613c9d846007015482613c9291906156f6565b8560030154856115fa565b91505b9250929050565b6001600160a01b03811661175a576040516303988b8160e61b815260040160405180910390fd5b6067805460ff19168215159081179091556040519081527fd94c9bc4d43c51d8dc345a016d8e3d994432fac68e72832e4cf3a616bd8efae090602001612596565b613d17612b32565b60685415613d385760405163439a74c960e01b815260040160405180910390fd5b80600003613d5957604051637fcce2a960e01b815260040160405180910390fd5b606855565b6040516001600160601b03193360601b166020820152603481018290526000908190605401604051602081830303815290604052805190602001209050613da584826142eb565b949350505050565b613db681614382565b613dbf81613915565b613ddc57604051630b72d6b160e31b815260040160405180910390fd5b607d5460405163011de97360e61b81526000916001600160a01b03169063477a5cc090613e0f90859030906004016158e2565b602060405180830381865afa158015613e2c573d6000803e3d6000fd5b505050506040513d601f19601f82011682018060405250810190613e5091906158fc565b905080613e7057604051635fccb67f60e01b815260040160405180910390fd5b600083806020019051810190613e869190616122565b9050613e928382614460565b610f5a83826145f4565b6040518181527f46aeb5d8770fc4474bc2dfa118fd2595f7fb33ce2cbce6f4e5a3dabfe0f7633990602001612596565b73eeeeeeeeeeeeeeeeeeeeeeeeeeeeeeeeeeeeeeed196001600160a01b03841601613efb57610dfb82826149cc565b610dfb8383836149e8565b6001600160a01b038116600090815260826020908152604080832080548251818502810185019093528083529192909190830182828015613f6657602002820191906000526020600020905b815481526020019060010190808311613f52575b5050505050905060005b8151811015610dfb576000828281518110613f8d57613f8d6161cc565b602002602001015190506000608060008381526020019081526020016000209050613fb782614a2e565b15614052576001600160a01b0385166000908152600982016020526040812080549082905560028301805491928392613ff19084906156f6565b9250508190555080606f600082825461400a91906156f6565b9091555061401a90508282612e88565b60008051602061628d83398151915286846000856002015486600301546040516140489594939291906161e2565b60405180910390a1505b5050808061405f90615a30565b915050613f70565b60008160000361407957506000919050565b6000600161408684614a67565b901c6001901b9050600181848161409f5761409f61579e565b048201901c905060018184816140b7576140b761579e565b048201901c905060018184816140cf576140cf61579e565b048201901c905060018184816140e7576140e761579e565b048201901c905060018184816140ff576140ff61579e565b048201901c905060018184816141175761411761579e565b048201901c9050600181848161412f5761412f61579e565b048201901c9050610fd1818285816141495761414961579e565b04614afb565b6000600160801b8311156141b65760405162461bcd60e51b815260206004820152602860248201527f5f612073686f756c64206265206c657373207468616e206f7220657175616c206044820152670e8de4064bc6264760c31b6064820152608401610ea0565b600160801b82106142085760405162461bcd60e51b815260206004820152601c60248201527b0bec440e6d0deead8c840c4ca40d8cae6e640e8d0c2dc4064bc6264760231b6044820152606401610ea0565b60806001607f1b61421984866157f9565b614223919061572a565b901c9392505050565b61423581612e79565b6142975760405162461bcd60e51b815260206004820152602d60248201527f455243313936373a206e657720696d706c656d656e746174696f6e206973206e60448201526c1bdd08184818dbdb9d1c9858dd609a1b6064820152608401610ea0565b60008051602061626d83398151915280546001600160a01b0319166001600160a01b0392909216919091179055565b6142cf83614b11565b6000825111806142dc5750805b15610dfb57610f5a8383614b51565b6000763d602d80600a3d3981f3363d3d373d3d3d363d730000008360601b60e81c176000526e5af43d82803e903d91602b57fd5bf38360781b1760205281603760096000f590506001600160a01b038116610dc45760405162461bcd60e51b8152602060048201526017602482015276115490cc4c4d8dce8818dc99585d194c8819985a5b1959604a1b6044820152606401610ea0565b6001600160a01b0381166143a957604051631a3e505160e31b815260040160405180910390fd5b607d546001600160a01b03166143d257604051635df4b1ef60e01b815260040160405180910390fd5b607d5460405163288c314960e21b81526001600160a01b039091169063a230c52490614402908490600401615194565b602060405180830381865afa15801561441f573d6000803e3d6000fd5b505050506040513d601f19601f8201168201806040525081019061444391906158fc565b61175a57604051636a5cfb6d60e01b815260040160405180910390fd5b6000805b825181101561451d5782818151811061447f5761447f6161cc565b6020026020010151600001516000031561450b5760008382815181106144a7576144a76161cc565b60200260200101516000015190506144be81614a2e565b6144de5760405163c1d17bef60e01b815260048101829052602401610ea0565b8382815181106144f0576144f06161cc565b602002602001015160200151836145079190616210565b9250505b8061451581615a30565b915050614464565b50600061453261452c856122cc565b83614b76565b607d54604051637817ee4f60e01b81529192506000916001600160a01b0390911690637817ee4f9061456a90889030906004016158e2565b602060405180830381865afa158015614587573d6000803e3d6000fd5b505050506040513d601f19601f820116820180604052508101906145ab9190615919565b9050808211156145d2578181604051636b20c17f60e11b8152600401610ea0929190615942565b506001600160a01b039093166000908152608160205260409020929092555050565b606060005b8251811015610f5a576000838281518110614616576146166161cc565b602002602001015160000151905082516000036146725760408051600180825281830190925290602080830190803683370190505092508083600081518110614661576146616161cc565b6020026020010181815250506147a5565b6000805b84518110156146d25782858281518110614692576146926161cc565b6020026020010151036146c057600191508281604051632b7aec5560e21b8152600401610ea0929190615942565b806146ca81615a30565b915050614676565b50806147a3576000845160016146e8919061572a565b6001600160401b038111156146ff576146ff614e3d565b604051908082528060200260200182016040528015614728578160200160208202803683370190505b50905060005b855181101561478057858181518110614749576147496161cc565b6020026020010151828281518110614763576147636161cc565b60209081029190910101528061477881615a30565b91505061472e565b508281865181518110614795576147956161cc565b602090810291909101015293505b505b60008483815181106147b9576147b96161cc565b60209081029190910181015181015160008481526080835260408082206001600160a01b038b168352600981019094528120549193506147f98285614b76565b6001600160a01b038a1660009081526009850160205260408120829055909150805b6001600160a01b038b166000908152608260205260409020548110156148925784546001600160a01b038c166000908152608260205260409020805483908110614867576148676161cc565b9060005260206000200154036148805760019150614892565b8061488a81615a30565b91505061481b565b50806148c8576001600160a01b038a16600090815260826020908152604082208654815460018101835591845291909220909101555b818311614918576148d983836156f6565b606f60008282546148ea919061572a565b909155506148fa905083836156f6565b84600201600082825461490d919061572a565b9091555061495c9050565b61492282846156f6565b606f600082825461493391906156f6565b90915550614943905082846156f6565b84600201600082825461495691906156f6565b90915550505b8360070154600003614973574360078501556149b3565b61497d8484612e88565b60008051602061628d8339815191528a8784876002015488600301546040516149aa9594939291906161e2565b60405180910390a15b50505050505080806149c490615a30565b9150506145f9565b60008060008084865af1610ddc5763b12d13eb6000526004601cfd5b816014528060345263a9059cbb60601b60005260206000604460106000875af13d156001600051141716614a24576390b8ec186000526004601cfd5b6000603452505050565b60008181526080602052604081205415801590610dc45750506000908152608060205260409020600501546001600160a01b0316151590565b600080608083901c15614a7c57608092831c92015b604083901c15614a8e57604092831c92015b602083901c15614aa057602092831c92015b601083901c15614ab257601092831c92015b600883901c15614ac457600892831c92015b600483901c15614ad657600492831c92015b600283901c15614ae857600292831c92015b600183901c15610dc45760010192915050565b6000818310614b0a5781610fd1565b5090919050565b614b1a8161422c565b6040516001600160a01b038216907fbc7cd75a20ee27fd9adebab32041f755214dbc6bffa90cc0225b39da2e5c2d3b90600090a250565b6060610fd183836040518060600160405280602781526020016162ad60279139614bad565b600080614b838385616210565b90506000811215610fd157838382604051631dde38a160e11b8152600401610ea093929190615cf0565b6060600080856001600160a01b031685604051614bca9190616230565b600060405180830381855af49150503d8060008114614c05576040519150601f19603f3d011682016040523d82523d6000602084013e614c0a565b606091505b5091509150614c1b86838387614c25565b9695505050505050565b60608315614c92578251600003614c8b57614c3f85612e79565b614c8b5760405162461bcd60e51b815260206004820152601d60248201527f416464726573733a2063616c6c20746f206e6f6e2d636f6e74726163740000006044820152606401610ea0565b5081613da5565b613da58383815115614ca75781518083602001fd5b8060405162461bcd60e51b8152600401610ea091906158cf565b600060208284031215614cd357600080fd5b5035919050565b634e487b7160e01b600052602160045260246000fd5b6007811061175a5761175a614cda565b60005b83811015614d1b578181015183820152602001614d03565b50506000910152565b60008151808452614d3c816020860160208601614d00565b601f01601f19169290920160200192915050565b805182526000602082015160406020850152613da56040850182614d24565b60006101e08e83528d60208401528c60408401528b606084015260018060a01b03808c166080850152808b1660a0850152808a1660c08501528860e0850152614db788614cf0565b8761010085015281610120850152614dd182850188614d50565b8651610140860152602087015161016086015260408701519091166101808501526060909501516101a084015250506101c001529a9950505050505050505050565b600060208284031215614e2557600080fd5b81356001600160e01b031981168114610fd157600080fd5b634e487b7160e01b600052604160045260246000fd5b604051608081016001600160401b0381118282101715614e7557614e75614e3d565b60405290565b60405160c081016001600160401b0381118282101715614e7557614e75614e3d565b60405160e081016001600160401b0381118282101715614e7557614e75614e3d565b604080519081016001600160401b0381118282101715614e7557614e75614e3d565b60405160a081016001600160401b0381118282101715614e7557614e75614e3d565b604051601f8201601f191681016001600160401b0381118282101715614f2b57614f2b614e3d565b604052919050565b6001600160a01b038116811461175a57600080fd5b600080828403610140811215614f5d57600080fd5b60c0811215614f6b57600080fd5b614f73614e7b565b8435614f7e81614f33565b81526020850135614f8e81614f33565b602082015260408581013590820152606080860135908201526080808601358183015260a0808701359083015290935060bf1982011215614fce57600080fd5b50614fd7614e53565b60c0840135815260e0840135602082015261010084013560408201526101209093013560608401525092909150565b60006001600160401b0382111561501f5761501f614e3d565b5060051b60200190565b600082601f83011261503a57600080fd5b8135602061504f61504a83615006565b614f03565b82815260059290921b8401810191818101908684111561506e57600080fd5b8286015b8481101561509257803561508581614f33565b8352918301918301615072565b509695505050505050565b60006001600160401b038211156150b6576150b6614e3d565b50601f01601f191660200190565b60006150d261504a8461509d565b90508281528383830111156150e657600080fd5b828260208301376000602084830101529392505050565b600082601f83011261510e57600080fd5b610fd1838335602085016150c4565b60008060006060848603121561513257600080fd5b83356001600160401b038082111561514957600080fd5b61515587838801615029565b9450602086013591508082111561516b57600080fd5b50615178868287016150fd565b925050604084013561518981614f33565b809150509250925092565b6001600160a01b0391909116815260200190565b6000806000606084860312156151bd57600080fd5b83356151c881614f33565b925060208401356151d881614f33565b9150604084013561518981614f33565b600080604083850312156151fb57600080fd5b82356001600160401b0381111561521157600080fd5b61521d858286016150fd565b925050602083013561522e81614f33565b809150509250929050565b6004811061524957615249614cda565b9052565b60208101610dc48284615239565b6000806040838503121561526e57600080fd5b823561527981614f33565b946020939093013593505050565b6000806040838503121561529a57600080fd5b50508035926020909101359150565b6000806000606084860312156152be57600080fd5b505081359360208301359350604090920135919050565b6003811061524957615249614cda565b60208101610dc482846152d5565b60006020828403121561530557600080fd5b8135610fd181614f33565b6000806040838503121561532357600080fd5b823561532e81614f33565b915060208301356001600160401b0381111561534957600080fd5b615355858286016150fd565b9150509250929050565b60008060006060848603121561537457600080fd5b833561537f81614f33565b925060208401356001600160401b0381111561539a57600080fd5b8401601f810186136153ab57600080fd5b615178868235602084016150c4565b602081526000610fd16020830184614d50565b600080604083850312156153e057600080fd5b82356001600160401b03808211156153f757600080fd5b61540386838701615029565b935060209150818501358181111561541a57600080fd5b8501601f8101871361542b57600080fd5b803561543961504a82615006565b81815260059190911b8201840190848101908983111561545857600080fd5b8584015b83811015615490578035868111156154745760008081fd5b6154828c89838901016150fd565b84525091860191860161545c565b508096505050505050509250929050565b602080825282518282018190526000919060409081850190868401855b828110156154ec57815180516001600160a01b031685528601518685015292840192908501906001016154be565b5091979650505050505050565b60008083601f84011261550b57600080fd5b5081356001600160401b0381111561552257600080fd5b602083019150836020828501011115613ca057600080fd5b60008060008060006060868803121561555257600080fd5b8535945060208601356001600160401b038082111561557057600080fd5b61557c89838a016154f9565b9096509450604088013591508082111561559557600080fd5b506155a2888289016154f9565b969995985093965092949392505050565b801515811461175a57600080fd5b6000602082840312156155d357600080fd5b8135610fd1816155b3565b6001600160a01b038b811682528a81166020830152891660408201526060810188905260808101879052610140810161561687614cf0565b60a082019690965260c081019490945260e08401929092526101008301526101209091015295945050505050565b6000806040838503121561565757600080fd5b82359150602083013561522e81614f33565b6020810161567683614cf0565b91905290565b6000806040838503121561568f57600080fd5b8235915060208301356001600160401b0381111561534957600080fd5b600181811c908216806156c057607f821691505b6020821081036119dc57634e487b7160e01b600052602260045260246000fd5b634e487b7160e01b600052601160045260246000fd5b81810381811115610dc457610dc46156e0565b6001600160a01b039390931683526020830191909152604082015260600190565b80820180821115610dc457610dc46156e0565b9283526001600160a01b03919091166020830152604082015260600190565b60006020828403121561576e57600080fd5b8151610fd181614f33565b9384526001600160a01b03928316602085015291166040830152606082015260800190565b634e487b7160e01b600052601260045260246000fd5b6000826157d157634e487b7160e01b600052601260045260246000fd5b500490565b60006001600160401b038216806157ef576157ef6156e0565b6000190192915050565b8082028115828204841417610dc457610dc46156e0565b6020808252602c9082015260008051602061624d83398151915260408201526b19195b1959d85d1958d85b1b60a21b606082015260800190565b6020808252602c9082015260008051602061624d83398151915260408201526b6163746976652070726f787960a01b606082015260800190565b6020808252602b908201527f496e697469616c697a61626c653a20636f6e7472616374206973206e6f74206960408201526a6e697469616c697a696e6760a81b606082015260800190565b602081526000610fd16020830184614d24565b6001600160a01b0392831681529116602082015260400190565b60006020828403121561590e57600080fd5b8151610fd1816155b3565b60006020828403121561592b57600080fd5b5051919050565b805161593d81614f33565b919050565b918252602082015260400190565b9182526001600160a01b0316602082015260400190565b81835281816020850137506000828201602090810191909152601f909101601f19169091010190565b8381526040602082015260006159aa604083018486615967565b95945050505050565b60006001600160401b038281166002600160401b031981016159d7576159d76156e0565b6001019392505050565b6001600160a01b03888116825260208201889052604082018790528516606082015260c060808201819052600090615a1c9083018587615967565b90508260a083015298975050505050505050565b600060018201615a4257615a426156e0565b5060010190565b80516003811061593d57600080fd5b80516004811061593d57600080fd5b600060208284031215615a7957600080fd5b604051602081016001600160401b0381118282101715615a9b57615a9b614e3d565b6040529151825250919050565b600060c08284031215615aba57600080fd5b615ac2614e7b565b90508151615acf81614f33565b81526020820151615adf81614f33565b8060208301525060408201516040820152606082015160608201526080820151608082015260a082015160a082015292915050565b60008183036101e0811215615b2857600080fd5b615b30614e9d565b6080821215615b3e57600080fd5b615b46614e53565b915083518252602084015160208301526040840151604083015260608401516060830152818152615b7960808501615a49565b6020820152615b8a60a08501615a58565b6040820152615b9c8560c08601615a67565b6060820152615bae8560e08601615aa8565b6080820152615bc06101a08501615932565b60a0820152615bd26101c08501615932565b60c0820152949350505050565b805182526020810151602083015260408101516040830152606081015160608301525050565b80516001600160a01b0390811683526020808301519091169083015260408082015190830152606080820151908301526080808201519083015260a090810151910152565b600061020082019050838252615c64602083018451615bdf565b6020830151615c7660a08401826152d5565b506040830151615c8960c0840182615239565b5060608301515160e08301526080830151615ca8610100840182615c05565b5060a08301516001600160a01b039081166101c084015260c0909301519092166101e090910152919050565b6101408101615ce38285615bdf565b610fd16080830184615c05565b9283526020830191909152604082015260600190565b600060408284031215615d1857600080fd5b615d20614ebf565b8251815260208301519091506001600160401b03811115615d4057600080fd5b8201601f81018413615d5157600080fd5b8051615d5f61504a8261509d565b818152856020838501011115615d7457600080fd5b615d85826020830160208601614d00565b602084015250909392505050565b600060208284031215615da557600080fd5b81516001600160401b0380821115615dbc57600080fd5b9083019060c08286031215615dd057600080fd5b615dd8614e7b565b825181526020830151615dea81614f33565b60208201526040830151615dfd81614f33565b6040820152606083015182811115615e1457600080fd5b615e2087828601615d06565b6060830152506080830151608082015260a083015160a082015280935050505092915050565b600060208284031215615e5857600080fd5b81516001600160401b0380821115615e6f57600080fd5b9083019060a08286031215615e8357600080fd5b615e8b614ee1565b825181526020830151615e9d81614f33565b6020820152604083810151908201526060830151615eba81614f33565b6060820152608083015182811115615ed157600080fd5b615edd87828601615d06565b60808301525095945050505050565b601f821115610dfb57600081815260208120601f850160051c81016020861015615f135750805b601f850160051c820191505b81811015615f3257828155600101615f1f565b505050505050565b81516001600160401b03811115615f5357615f53614e3d565b615f6781615f6184546156ac565b84615eec565b602080601f831160018114615f9c5760008415615f845750858301515b600019600386901b1c1916600185901b178555615f32565b600085815260208120601f198616915b82811015615fcb57888601518255948401946001909101908401615fac565b5085821015615fe95787850151600019600388901b60f8161c191681555b5050505050600190811b01905550565b60006020828403121561600b57600080fd5b815160ff81168114610fd157600080fd5b600181815b8085111561605757816000190482111561603d5761603d6156e0565b8085161561604a57918102915b93841c9390800290616021565b509250929050565b60008261606e57506001610dc4565b8161607b57506000610dc4565b8160018114616091576002811461609b576160b7565b6001915050610dc4565b60ff8411156160ac576160ac6156e0565b50506001821b610dc4565b5060208310610133831016604e8410600b84101617156160da575081810a610dc4565b6160e4838361601c565b80600019048211156160f8576160f86156e0565b029392505050565b6000610fd1838361605f565b634e487b7160e01b600052600160045260246000fd5b6000602080838503121561613557600080fd5b82516001600160401b0381111561614b57600080fd5b8301601f8101851361615c57600080fd5b805161616a61504a82615006565b81815260069190911b8201830190838101908783111561618957600080fd5b928401925b828410156135c857604084890312156161a75760008081fd5b6161af614ebf565b84518152858501518682015282526040909301929084019061618e565b634e487b7160e01b600052603260045260246000fd5b6001600160a01b03959095168552602085019390935260408401919091526060830152608082015260a00190565b8082018281126000831280158216821582161715613673576136736156e0565b60008251616242818460208701614d00565b919091019291505056fe46756e6374696f6e206d7573742062652063616c6c6564207468726f75676820360894a13ba1a3210667c828492db98dca3e2076cc3735a920a3ca505d382bbc0227f642ddcf2042ceaeafadb9d540f432072c00cd4862881667168dcc14710f416464726573733a206c6f772d6c6576656c2064656c65676174652063616c6c206661696c6564a2646970667358221220f189510af0f67a6bdf4249ba768d650010f5cd9b768d66ba81175fb017ce059b64736f6c63430008130033","linkReferences":{}},"methodIdentifiers":{"D()":"0f529ba2","DISPUTE_COOLDOWN_SEC()":"f5be3f7c","MAX_STAKED_PROPOSALS()":"406244d8","NATIVE()":"a0cf0aea","RULING_OPTIONS()":"626c47e8","activatePoints()":"814516ad","allocate(bytes,address)":"ef2920fc","arbitrableConfig()":"1073e996","calculateConviction(uint256,uint256,uint256)":"346db8cb","calculateThreshold(uint256)":"59a5db8b","canExecuteProposal(uint256)":"824ea8ed","cancelProposal(uint256)":"e0a8f6f5","cloneNonce()":"33960459","collateralVault()":"0bece79c","cvParams()":"2506b870","deactivatePoints()":"1ddf1e23","deactivatePoints(address)":"6453d9c4","decreasePower(address,uint256)":"2ed04b2b","disputeCount()":"a28889e1","disputeIdToProposalId(uint256)":"255ffb38","disputeProposal(uint256,string,bytes)":"b41596ec","distribute(address[],bytes,address)":"0a6f0ee9","getAllo()":"15cc481e","getDecay()":"9a1c157c","getMaxAmount()":"0ba95909","getMaxConviction(uint256)":"950559d7","getMetadata(uint256)":"a574cea4","getPayouts(address[],bytes[])":"b2b878d0","getPointSystem()":"c3292171","getPoolAmount()":"4ab4ba42","getPoolId()":"38fff2d0","getProposal(uint256)":"c7f758a8","getProposalStakedAmount(uint256)":"dc96ff2d","getProposalVoterStake(uint256,address)":"e0dd2c38","getRecipientStatus(address)":"eb11af93","getStrategyId()":"42fda9c7","getTotalVoterStakePct(address)":"bcc5b93b","increasePoolAmount(uint256)":"f5b0dfb7","increasePower(address,uint256)":"782aadff","init(address,address,address)":"184b9559","init(address,string,address)":"60d5dedc","initialize(address)":"c4d66de8","initialize(uint256,bytes)":"edd146cc","isPoolActive()":"df868ed3","isValidAllocator(address)":"4d31d087","owner()":"8da5cb5b","pointConfig()":"a47ff7e5","pointSystem()":"2dbd6fdd","proposalCounter()":"0c0512e9","proposalType()":"351d9f96","proposals(uint256)":"013cf08b","proxiableUUID()":"52d1902d","registerRecipient(bytes,address)":"2bbe0cae","registryCommunity()":"6003e414","renounceOwnership()":"715018a6","rule(uint256,uint256)":"311a6c56","setCollateralVaultTemplate(address)":"b0d3713a","setPoolActive(bool)":"b5f620ce","setPoolParams((address,address,uint256,uint256,uint256,uint256),(uint256,uint256,uint256,uint256))":"062f9ece","setSybilScorer(address)":"ac1ed7b9","supportsInterface(bytes4)":"01ffc9a7","sybilScorer()":"b6c61f31","totalEffectiveActivePoints()":"d1e36232","totalPointsActivated()":"aba9ffee","totalStaked()":"817b1cd2","totalVoterStakePct(address)":"5db64b99","transferOwnership(address)":"f2fde38b","updateProposalConviction(uint256)":"1aa91a9e","upgradeTo(address)":"3659cfe6","upgradeToAndCall(address,bytes)":"4f1ef286","voterStakedProposals(address,uint256)":"868c57b8"},"storageLayout":{"storage":[{"astId":52990,"contract":"pkg/contracts/src/CVStrategy/CVStrategyV0_0.sol:CVStrategyV0_0","label":"_initialized","offset":0,"slot":"0","type":"t_uint8"},{"astId":52993,"contract":"pkg/contracts/src/CVStrategy/CVStrategyV0_0.sol:CVStrategyV0_0","label":"_initializing","offset":1,"slot":"0","type":"t_bool"},{"astId":53695,"contract":"pkg/contracts/src/CVStrategy/CVStrategyV0_0.sol:CVStrategyV0_0","label":"__gap","offset":0,"slot":"1","type":"t_array(t_uint256)50_storage"},{"astId":52782,"contract":"pkg/contracts/src/CVStrategy/CVStrategyV0_0.sol:CVStrategyV0_0","label":"_owner","offset":0,"slot":"51","type":"t_address"},{"astId":52902,"contract":"pkg/contracts/src/CVStrategy/CVStrategyV0_0.sol:CVStrategyV0_0","label":"__gap","offset":0,"slot":"52","type":"t_array(t_uint256)49_storage"},{"astId":64873,"contract":"pkg/contracts/src/CVStrategy/CVStrategyV0_0.sol:CVStrategyV0_0","label":"allo","offset":0,"slot":"101","type":"t_contract(IAllo)2610"},{"astId":64875,"contract":"pkg/contracts/src/CVStrategy/CVStrategyV0_0.sol:CVStrategyV0_0","label":"strategyId","offset":0,"slot":"102","type":"t_bytes32"},{"astId":64877,"contract":"pkg/contracts/src/CVStrategy/CVStrategyV0_0.sol:CVStrategyV0_0","label":"poolActive","offset":0,"slot":"103","type":"t_bool"},{"astId":64879,"contract":"pkg/contracts/src/CVStrategy/CVStrategyV0_0.sol:CVStrategyV0_0","label":"poolId","offset":0,"slot":"104","type":"t_uint256"},{"astId":64881,"contract":"pkg/contracts/src/CVStrategy/CVStrategyV0_0.sol:CVStrategyV0_0","label":"poolAmount","offset":0,"slot":"105","type":"t_uint256"},{"astId":65893,"contract":"pkg/contracts/src/CVStrategy/CVStrategyV0_0.sol:CVStrategyV0_0","label":"collateralVaultTemplate","offset":0,"slot":"106","type":"t_address"},{"astId":65895,"contract":"pkg/contracts/src/CVStrategy/CVStrategyV0_0.sol:CVStrategyV0_0","label":"surpressStateMutabilityWarning","offset":0,"slot":"107","type":"t_uint256"},{"astId":65897,"contract":"pkg/contracts/src/CVStrategy/CVStrategyV0_0.sol:CVStrategyV0_0","label":"cloneNonce","offset":0,"slot":"108","type":"t_uint256"},{"astId":65900,"contract":"pkg/contracts/src/CVStrategy/CVStrategyV0_0.sol:CVStrategyV0_0","label":"disputeCount","offset":0,"slot":"109","type":"t_uint64"},{"astId":65903,"contract":"pkg/contracts/src/CVStrategy/CVStrategyV0_0.sol:CVStrategyV0_0","label":"proposalCounter","offset":0,"slot":"110","type":"t_uint256"},{"astId":65905,"contract":"pkg/contracts/src/CVStrategy/CVStrategyV0_0.sol:CVStrategyV0_0","label":"totalStaked","offset":0,"slot":"111","type":"t_uint256"},{"astId":65907,"contract":"pkg/contracts/src/CVStrategy/CVStrategyV0_0.sol:CVStrategyV0_0","label":"totalPointsActivated","offset":0,"slot":"112","type":"t_uint256"},{"astId":65910,"contract":"pkg/contracts/src/CVStrategy/CVStrategyV0_0.sol:CVStrategyV0_0","label":"cvParams","offset":0,"slot":"113","type":"t_struct(CVParams)65635_storage"},{"astId":65913,"contract":"pkg/contracts/src/CVStrategy/CVStrategyV0_0.sol:CVStrategyV0_0","label":"proposalType","offset":0,"slot":"117","type":"t_enum(ProposalType)65538"},{"astId":65916,"contract":"pkg/contracts/src/CVStrategy/CVStrategyV0_0.sol:CVStrategyV0_0","label":"pointSystem","offset":1,"slot":"117","type":"t_enum(PointSystem)65543"},{"astId":65919,"contract":"pkg/contracts/src/CVStrategy/CVStrategyV0_0.sol:CVStrategyV0_0","label":"pointConfig","offset":0,"slot":"118","type":"t_struct(PointSystemConfig)65612_storage"},{"astId":65922,"contract":"pkg/contracts/src/CVStrategy/CVStrategyV0_0.sol:CVStrategyV0_0","label":"arbitrableConfig","offset":0,"slot":"119","type":"t_struct(ArbitrableConfig)65626_storage"},{"astId":65925,"contract":"pkg/contracts/src/CVStrategy/CVStrategyV0_0.sol:CVStrategyV0_0","label":"registryCommunity","offset":0,"slot":"125","type":"t_contract(RegistryCommunityV0_0)72012"},{"astId":65928,"contract":"pkg/contracts/src/CVStrategy/CVStrategyV0_0.sol:CVStrategyV0_0","label":"collateralVault","offset":0,"slot":"126","type":"t_contract(ICollateralVault)72999"},{"astId":65931,"contract":"pkg/contracts/src/CVStrategy/CVStrategyV0_0.sol:CVStrategyV0_0","label":"sybilScorer","offset":0,"slot":"127","type":"t_contract(ISybilScorer)69443"},{"astId":65936,"contract":"pkg/contracts/src/CVStrategy/CVStrategyV0_0.sol:CVStrategyV0_0","label":"proposals","offset":0,"slot":"128","type":"t_mapping(t_uint256,t_struct(Proposal)65604_storage)"},{"astId":65940,"contract":"pkg/contracts/src/CVStrategy/CVStrategyV0_0.sol:CVStrategyV0_0","label":"totalVoterStakePct","offset":0,"slot":"129","type":"t_mapping(t_address,t_uint256)"},{"astId":65945,"contract":"pkg/contracts/src/CVStrategy/CVStrategyV0_0.sol:CVStrategyV0_0","label":"voterStakedProposals","offset":0,"slot":"130","type":"t_mapping(t_address,t_array(t_uint256)dyn_storage)"},{"astId":65949,"contract":"pkg/contracts/src/CVStrategy/CVStrategyV0_0.sol:CVStrategyV0_0","label":"disputeIdToProposalId","offset":0,"slot":"131","type":"t_mapping(t_uint256,t_uint256)"},{"astId":69074,"contract":"pkg/contracts/src/CVStrategy/CVStrategyV0_0.sol:CVStrategyV0_0","label":"__gap","offset":0,"slot":"132","type":"t_array(t_uint256)50_storage"}],"types":{"t_address":{"encoding":"inplace","label":"address","numberOfBytes":"20"},"t_array(t_uint256)49_storage":{"encoding":"inplace","label":"uint256[49]","numberOfBytes":"1568","base":"t_uint256"},"t_array(t_uint256)50_storage":{"encoding":"inplace","label":"uint256[50]","numberOfBytes":"1600","base":"t_uint256"},"t_array(t_uint256)dyn_storage":{"encoding":"dynamic_array","label":"uint256[]","numberOfBytes":"32","base":"t_uint256"},"t_bool":{"encoding":"inplace","label":"bool","numberOfBytes":"1"},"t_bytes32":{"encoding":"inplace","label":"bytes32","numberOfBytes":"32"},"t_contract(IAllo)2610":{"encoding":"inplace","label":"contract IAllo","numberOfBytes":"20"},"t_contract(IArbitrator)72966":{"encoding":"inplace","label":"contract IArbitrator","numberOfBytes":"20"},"t_contract(ICollateralVault)72999":{"encoding":"inplace","label":"contract ICollateralVault","numberOfBytes":"20"},"t_contract(ISybilScorer)69443":{"encoding":"inplace","label":"contract ISybilScorer","numberOfBytes":"20"},"t_contract(RegistryCommunityV0_0)72012":{"encoding":"inplace","label":"contract RegistryCommunityV0_0","numberOfBytes":"20"},"t_enum(PointSystem)65543":{"encoding":"inplace","label":"enum StrategyStruct.PointSystem","numberOfBytes":"1"},"t_enum(ProposalStatus)65563":{"encoding":"inplace","label":"enum StrategyStruct.ProposalStatus","numberOfBytes":"1"},"t_enum(ProposalType)65538":{"encoding":"inplace","label":"enum StrategyStruct.ProposalType","numberOfBytes":"1"},"t_mapping(t_address,t_array(t_uint256)dyn_storage)":{"encoding":"mapping","key":"t_address","label":"mapping(address => uint256[])","numberOfBytes":"32","value":"t_array(t_uint256)dyn_storage"},"t_mapping(t_address,t_uint256)":{"encoding":"mapping","key":"t_address","label":"mapping(address => uint256)","numberOfBytes":"32","value":"t_uint256"},"t_mapping(t_uint256,t_struct(Proposal)65604_storage)":{"encoding":"mapping","key":"t_uint256","label":"mapping(uint256 => struct StrategyStruct.Proposal)","numberOfBytes":"32","value":"t_struct(Proposal)65604_storage"},"t_mapping(t_uint256,t_uint256)":{"encoding":"mapping","key":"t_uint256","label":"mapping(uint256 => uint256)","numberOfBytes":"32","value":"t_uint256"},"t_string_storage":{"encoding":"bytes","label":"string","numberOfBytes":"32"},"t_struct(ArbitrableConfig)65626_storage":{"encoding":"inplace","label":"struct StrategyStruct.ArbitrableConfig","numberOfBytes":"192","members":[{"astId":65615,"contract":"pkg/contracts/src/CVStrategy/CVStrategyV0_0.sol:CVStrategyV0_0","label":"arbitrator","offset":0,"slot":"0","type":"t_contract(IArbitrator)72966"},{"astId":65617,"contract":"pkg/contracts/src/CVStrategy/CVStrategyV0_0.sol:CVStrategyV0_0","label":"tribunalSafe","offset":0,"slot":"1","type":"t_address"},{"astId":65619,"contract":"pkg/contracts/src/CVStrategy/CVStrategyV0_0.sol:CVStrategyV0_0","label":"submitterCollateralAmount","offset":0,"slot":"2","type":"t_uint256"},{"astId":65621,"contract":"pkg/contracts/src/CVStrategy/CVStrategyV0_0.sol:CVStrategyV0_0","label":"challengerCollateralAmount","offset":0,"slot":"3","type":"t_uint256"},{"astId":65623,"contract":"pkg/contracts/src/CVStrategy/CVStrategyV0_0.sol:CVStrategyV0_0","label":"defaultRuling","offset":0,"slot":"4","type":"t_uint256"},{"astId":65625,"contract":"pkg/contracts/src/CVStrategy/CVStrategyV0_0.sol:CVStrategyV0_0","label":"defaultRulingTimeout","offset":0,"slot":"5","type":"t_uint256"}]},"t_struct(CVParams)65635_storage":{"encoding":"inplace","label":"struct StrategyStruct.CVParams","numberOfBytes":"128","members":[{"astId":65628,"contract":"pkg/contracts/src/CVStrategy/CVStrategyV0_0.sol:CVStrategyV0_0","label":"maxRatio","offset":0,"slot":"0","type":"t_uint256"},{"astId":65630,"contract":"pkg/contracts/src/CVStrategy/CVStrategyV0_0.sol:CVStrategyV0_0","label":"weight","offset":0,"slot":"1","type":"t_uint256"},{"astId":65632,"contract":"pkg/contracts/src/CVStrategy/CVStrategyV0_0.sol:CVStrategyV0_0","label":"decay","offset":0,"slot":"2","type":"t_uint256"},{"astId":65634,"contract":"pkg/contracts/src/CVStrategy/CVStrategyV0_0.sol:CVStrategyV0_0","label":"minThresholdPoints","offset":0,"slot":"3","type":"t_uint256"}]},"t_struct(Metadata)3098_storage":{"encoding":"inplace","label":"struct Metadata","numberOfBytes":"64","members":[{"astId":3094,"contract":"pkg/contracts/src/CVStrategy/CVStrategyV0_0.sol:CVStrategyV0_0","label":"protocol","offset":0,"slot":"0","type":"t_uint256"},{"astId":3097,"contract":"pkg/contracts/src/CVStrategy/CVStrategyV0_0.sol:CVStrategyV0_0","label":"pointer","offset":0,"slot":"1","type":"t_string_storage"}]},"t_struct(PointSystemConfig)65612_storage":{"encoding":"inplace","label":"struct StrategyStruct.PointSystemConfig","numberOfBytes":"32","members":[{"astId":65611,"contract":"pkg/contracts/src/CVStrategy/CVStrategyV0_0.sol:CVStrategyV0_0","label":"maxAmount","offset":0,"slot":"0","type":"t_uint256"}]},"t_struct(Proposal)65604_storage":{"encoding":"inplace","label":"struct StrategyStruct.Proposal","numberOfBytes":"544","members":[{"astId":65574,"contract":"pkg/contracts/src/CVStrategy/CVStrategyV0_0.sol:CVStrategyV0_0","label":"proposalId","offset":0,"slot":"0","type":"t_uint256"},{"astId":65576,"contract":"pkg/contracts/src/CVStrategy/CVStrategyV0_0.sol:CVStrategyV0_0","label":"requestedAmount","offset":0,"slot":"1","type":"t_uint256"},{"astId":65578,"contract":"pkg/contracts/src/CVStrategy/CVStrategyV0_0.sol:CVStrategyV0_0","label":"stakedAmount","offset":0,"slot":"2","type":"t_uint256"},{"astId":65580,"contract":"pkg/contracts/src/CVStrategy/CVStrategyV0_0.sol:CVStrategyV0_0","label":"convictionLast","offset":0,"slot":"3","type":"t_uint256"},{"astId":65582,"contract":"pkg/contracts/src/CVStrategy/CVStrategyV0_0.sol:CVStrategyV0_0","label":"beneficiary","offset":0,"slot":"4","type":"t_address"},{"astId":65584,"contract":"pkg/contracts/src/CVStrategy/CVStrategyV0_0.sol:CVStrategyV0_0","label":"submitter","offset":0,"slot":"5","type":"t_address"},{"astId":65586,"contract":"pkg/contracts/src/CVStrategy/CVStrategyV0_0.sol:CVStrategyV0_0","label":"requestedToken","offset":0,"slot":"6","type":"t_address"},{"astId":65588,"contract":"pkg/contracts/src/CVStrategy/CVStrategyV0_0.sol:CVStrategyV0_0","label":"blockLast","offset":0,"slot":"7","type":"t_uint256"},{"astId":65591,"contract":"pkg/contracts/src/CVStrategy/CVStrategyV0_0.sol:CVStrategyV0_0","label":"proposalStatus","offset":0,"slot":"8","type":"t_enum(ProposalStatus)65563"},{"astId":65595,"contract":"pkg/contracts/src/CVStrategy/CVStrategyV0_0.sol:CVStrategyV0_0","label":"voterStakedPoints","offset":0,"slot":"9","type":"t_mapping(t_address,t_uint256)"},{"astId":65598,"contract":"pkg/contracts/src/CVStrategy/CVStrategyV0_0.sol:CVStrategyV0_0","label":"metadata","offset":0,"slot":"10","type":"t_struct(Metadata)3098_storage"},{"astId":65601,"contract":"pkg/contracts/src/CVStrategy/CVStrategyV0_0.sol:CVStrategyV0_0","label":"disputeInfo","offset":0,"slot":"12","type":"t_struct(ProposalDisputeInfo)65572_storage"},{"astId":65603,"contract":"pkg/contracts/src/CVStrategy/CVStrategyV0_0.sol:CVStrategyV0_0","label":"lastDisputeCompletion","offset":0,"slot":"16","type":"t_uint256"}]},"t_struct(ProposalDisputeInfo)65572_storage":{"encoding":"inplace","label":"struct StrategyStruct.ProposalDisputeInfo","numberOfBytes":"128","members":[{"astId":65565,"contract":"pkg/contracts/src/CVStrategy/CVStrategyV0_0.sol:CVStrategyV0_0","label":"disputeId","offset":0,"slot":"0","type":"t_uint256"},{"astId":65567,"contract":"pkg/contracts/src/CVStrategy/CVStrategyV0_0.sol:CVStrategyV0_0","label":"disputeTimestamp","offset":0,"slot":"1","type":"t_uint256"},{"astId":65569,"contract":"pkg/contracts/src/CVStrategy/CVStrategyV0_0.sol:CVStrategyV0_0","label":"challenger","offset":0,"slot":"2","type":"t_address"},{"astId":65571,"contract":"pkg/contracts/src/CVStrategy/CVStrategyV0_0.sol:CVStrategyV0_0","label":"submitterCollateralVault","offset":0,"slot":"3","type":"t_uint256"}]},"t_uint256":{"encoding":"inplace","label":"uint256","numberOfBytes":"32"},"t_uint64":{"encoding":"inplace","label":"uint64","numberOfBytes":"8"},"t_uint8":{"encoding":"inplace","label":"uint8","numberOfBytes":"1"}}},"id":98}