{"abi":[{"type":"fallback","stateMutability":"payable"},{"type":"receive","stateMutability":"payable"},{"type":"function","name":"D","inputs":[],"outputs":[{"name":"","type":"uint256","internalType":"uint256"}],"stateMutability":"view"},{"type":"function","name":"DISPUTE_COOLDOWN_SEC","inputs":[],"outputs":[{"name":"","type":"uint256","internalType":"uint256"}],"stateMutability":"view"},{"type":"function","name":"MAX_STAKED_PROPOSALS","inputs":[],"outputs":[{"name":"","type":"uint256","internalType":"uint256"}],"stateMutability":"view"},{"type":"function","name":"NATIVE","inputs":[],"outputs":[{"name":"","type":"address","internalType":"address"}],"stateMutability":"view"},{"type":"function","name":"RULING_OPTIONS","inputs":[],"outputs":[{"name":"","type":"uint256","internalType":"uint256"}],"stateMutability":"view"},{"type":"function","name":"activatePoints","inputs":[],"outputs":[],"stateMutability":"nonpayable"},{"type":"function","name":"allocate","inputs":[{"name":"_data","type":"bytes","internalType":"bytes"},{"name":"_sender","type":"address","internalType":"address"}],"outputs":[],"stateMutability":"payable"},{"type":"function","name":"arbitrableConfig","inputs":[],"outputs":[{"name":"arbitrator","type":"address","internalType":"contract IArbitrator"},{"name":"tribunalSafe","type":"address","internalType":"address"},{"name":"submitterCollateralAmount","type":"uint256","internalType":"uint256"},{"name":"challengerCollateralAmount","type":"uint256","internalType":"uint256"},{"name":"defaultRuling","type":"uint256","internalType":"uint256"},{"name":"defaultRulingTimeout","type":"uint256","internalType":"uint256"}],"stateMutability":"view"},{"type":"function","name":"calculateConviction","inputs":[{"name":"_timePassed","type":"uint256","internalType":"uint256"},{"name":"_lastConv","type":"uint256","internalType":"uint256"},{"name":"_oldAmount","type":"uint256","internalType":"uint256"}],"outputs":[{"name":"","type":"uint256","internalType":"uint256"}],"stateMutability":"view"},{"type":"function","name":"calculateThreshold","inputs":[{"name":"_requestedAmount","type":"uint256","internalType":"uint256"}],"outputs":[{"name":"_threshold","type":"uint256","internalType":"uint256"}],"stateMutability":"view"},{"type":"function","name":"canExecuteProposal","inputs":[{"name":"proposalId","type":"uint256","internalType":"uint256"}],"outputs":[{"name":"canBeExecuted","type":"bool","internalType":"bool"}],"stateMutability":"view"},{"type":"function","name":"cloneNonce","inputs":[],"outputs":[{"name":"","type":"uint256","internalType":"uint256"}],"stateMutability":"view"},{"type":"function","name":"collateralVault","inputs":[],"outputs":[{"name":"","type":"address","internalType":"contract ICollateralVault"}],"stateMutability":"view"},{"type":"function","name":"cvParams","inputs":[],"outputs":[{"name":"maxRatio","type":"uint256","internalType":"uint256"},{"name":"weight","type":"uint256","internalType":"uint256"},{"name":"decay","type":"uint256","internalType":"uint256"},{"name":"minThresholdPoints","type":"uint256","internalType":"uint256"}],"stateMutability":"view"},{"type":"function","name":"deactivatePoints","inputs":[],"outputs":[],"stateMutability":"nonpayable"},{"type":"function","name":"deactivatePoints","inputs":[{"name":"_member","type":"address","internalType":"address"}],"outputs":[],"stateMutability":"nonpayable"},{"type":"function","name":"decreasePower","inputs":[{"name":"_member","type":"address","internalType":"address"},{"name":"_amountToUnstake","type":"uint256","internalType":"uint256"}],"outputs":[{"name":"","type":"uint256","internalType":"uint256"}],"stateMutability":"nonpayable"},{"type":"function","name":"disputeCount","inputs":[],"outputs":[{"name":"","type":"uint64","internalType":"uint64"}],"stateMutability":"view"},{"type":"function","name":"disputeIdToProposalId","inputs":[{"name":"","type":"uint256","internalType":"uint256"}],"outputs":[{"name":"","type":"uint256","internalType":"uint256"}],"stateMutability":"view"},{"type":"function","name":"disputeProposal","inputs":[{"name":"proposalId","type":"uint256","internalType":"uint256"},{"name":"context","type":"string","internalType":"string"},{"name":"_extraData","type":"bytes","internalType":"bytes"}],"outputs":[],"stateMutability":"payable"},{"type":"function","name":"distribute","inputs":[{"name":"_recipientIds","type":"address[]","internalType":"address[]"},{"name":"_data","type":"bytes","internalType":"bytes"},{"name":"_sender","type":"address","internalType":"address"}],"outputs":[],"stateMutability":"nonpayable"},{"type":"function","name":"getAllo","inputs":[],"outputs":[{"name":"","type":"address","internalType":"contract IAllo"}],"stateMutability":"view"},{"type":"function","name":"getCollateralAmounts","inputs":[],"outputs":[{"name":"","type":"uint256","internalType":"uint256"},{"name":"","type":"uint256","internalType":"uint256"}],"stateMutability":"view"},{"type":"function","name":"getMaxAmount","inputs":[],"outputs":[{"name":"","type":"uint256","internalType":"uint256"}],"stateMutability":"view"},{"type":"function","name":"getMaxConviction","inputs":[{"name":"amount","type":"uint256","internalType":"uint256"}],"outputs":[{"name":"","type":"uint256","internalType":"uint256"}],"stateMutability":"view"},{"type":"function","name":"getMetadata","inputs":[{"name":"_proposalId","type":"uint256","internalType":"uint256"}],"outputs":[{"name":"","type":"tuple","internalType":"struct Metadata","components":[{"name":"protocol","type":"uint256","internalType":"uint256"},{"name":"pointer","type":"string","internalType":"string"}]}],"stateMutability":"view"},{"type":"function","name":"getPayouts","inputs":[{"name":"","type":"address[]","internalType":"address[]"},{"name":"","type":"bytes[]","internalType":"bytes[]"}],"outputs":[{"name":"","type":"tuple[]","internalType":"struct IStrategy.PayoutSummary[]","components":[{"name":"recipientAddress","type":"address","internalType":"address"},{"name":"amount","type":"uint256","internalType":"uint256"}]}],"stateMutability":"pure"},{"type":"function","name":"getPointSystem","inputs":[],"outputs":[{"name":"","type":"uint8","internalType":"enum StrategyStruct.PointSystem"}],"stateMutability":"view"},{"type":"function","name":"getPoolAmount","inputs":[],"outputs":[{"name":"","type":"uint256","internalType":"uint256"}],"stateMutability":"view"},{"type":"function","name":"getPoolId","inputs":[],"outputs":[{"name":"","type":"uint256","internalType":"uint256"}],"stateMutability":"view"},{"type":"function","name":"getProposal","inputs":[{"name":"_proposalId","type":"uint256","internalType":"uint256"}],"outputs":[{"name":"submitter","type":"address","internalType":"address"},{"name":"beneficiary","type":"address","internalType":"address"},{"name":"requestedToken","type":"address","internalType":"address"},{"name":"requestedAmount","type":"uint256","internalType":"uint256"},{"name":"stakedAmount","type":"uint256","internalType":"uint256"},{"name":"proposalStatus","type":"uint8","internalType":"enum StrategyStruct.ProposalStatus"},{"name":"blockLast","type":"uint256","internalType":"uint256"},{"name":"convictionLast","type":"uint256","internalType":"uint256"},{"name":"threshold","type":"uint256","internalType":"uint256"},{"name":"voterStakedPoints","type":"uint256","internalType":"uint256"}],"stateMutability":"view"},{"type":"function","name":"getProposalStakedAmount","inputs":[{"name":"_proposalId","type":"uint256","internalType":"uint256"}],"outputs":[{"name":"","type":"uint256","internalType":"uint256"}],"stateMutability":"view"},{"type":"function","name":"getProposalVoterStake","inputs":[{"name":"_proposalId","type":"uint256","internalType":"uint256"},{"name":"_voter","type":"address","internalType":"address"}],"outputs":[{"name":"","type":"uint256","internalType":"uint256"}],"stateMutability":"view"},{"type":"function","name":"getRecipientStatus","inputs":[{"name":"_recipientId","type":"address","internalType":"address"}],"outputs":[{"name":"","type":"uint8","internalType":"enum IStrategy.Status"}],"stateMutability":"view"},{"type":"function","name":"getStrategyId","inputs":[],"outputs":[{"name":"","type":"bytes32","internalType":"bytes32"}],"stateMutability":"view"},{"type":"function","name":"getTotalVoterStakePct","inputs":[{"name":"_voter","type":"address","internalType":"address"}],"outputs":[{"name":"","type":"uint256","internalType":"uint256"}],"stateMutability":"view"},{"type":"function","name":"increasePoolAmount","inputs":[{"name":"_amount","type":"uint256","internalType":"uint256"}],"outputs":[],"stateMutability":"nonpayable"},{"type":"function","name":"increasePower","inputs":[{"name":"_member","type":"address","internalType":"address"},{"name":"_amountToStake","type":"uint256","internalType":"uint256"}],"outputs":[{"name":"","type":"uint256","internalType":"uint256"}],"stateMutability":"nonpayable"},{"type":"function","name":"init","inputs":[{"name":"_allo","type":"address","internalType":"address"},{"name":"_collateralVaultTemplate","type":"address","internalType":"address"}],"outputs":[],"stateMutability":"nonpayable"},{"type":"function","name":"init","inputs":[{"name":"_allo","type":"address","internalType":"address"},{"name":"_name","type":"string","internalType":"string"}],"outputs":[],"stateMutability":"nonpayable"},{"type":"function","name":"initialize","inputs":[{"name":"_poolId","type":"uint256","internalType":"uint256"},{"name":"_data","type":"bytes","internalType":"bytes"}],"outputs":[],"stateMutability":"nonpayable"},{"type":"function","name":"isPoolActive","inputs":[],"outputs":[{"name":"","type":"bool","internalType":"bool"}],"stateMutability":"view"},{"type":"function","name":"isValidAllocator","inputs":[{"name":"_allocator","type":"address","internalType":"address"}],"outputs":[{"name":"","type":"bool","internalType":"bool"}],"stateMutability":"view"},{"type":"function","name":"owner","inputs":[],"outputs":[{"name":"","type":"address","internalType":"address"}],"stateMutability":"view"},{"type":"function","name":"pointConfig","inputs":[],"outputs":[{"name":"maxAmount","type":"uint256","internalType":"uint256"}],"stateMutability":"view"},{"type":"function","name":"pointSystem","inputs":[],"outputs":[{"name":"","type":"uint8","internalType":"enum StrategyStruct.PointSystem"}],"stateMutability":"view"},{"type":"function","name":"proposalCounter","inputs":[],"outputs":[{"name":"","type":"uint256","internalType":"uint256"}],"stateMutability":"view"},{"type":"function","name":"proposalType","inputs":[],"outputs":[{"name":"","type":"uint8","internalType":"enum StrategyStruct.ProposalType"}],"stateMutability":"view"},{"type":"function","name":"proposals","inputs":[{"name":"","type":"uint256","internalType":"uint256"}],"outputs":[{"name":"proposalId","type":"uint256","internalType":"uint256"},{"name":"requestedAmount","type":"uint256","internalType":"uint256"},{"name":"stakedAmount","type":"uint256","internalType":"uint256"},{"name":"convictionLast","type":"uint256","internalType":"uint256"},{"name":"beneficiary","type":"address","internalType":"address"},{"name":"submitter","type":"address","internalType":"address"},{"name":"requestedToken","type":"address","internalType":"address"},{"name":"blockLast","type":"uint256","internalType":"uint256"},{"name":"proposalStatus","type":"uint8","internalType":"enum StrategyStruct.ProposalStatus"},{"name":"metadata","type":"tuple","internalType":"struct Metadata","components":[{"name":"protocol","type":"uint256","internalType":"uint256"},{"name":"pointer","type":"string","internalType":"string"}]},{"name":"disputeId","type":"uint256","internalType":"uint256"},{"name":"disputeTimestamp","type":"uint256","internalType":"uint256"},{"name":"challenger","type":"address","internalType":"address"},{"name":"lastDisputeCompletion","type":"uint256","internalType":"uint256"},{"name":"creationCollateralAmount","type":"uint256","internalType":"uint256"}],"stateMutability":"view"},{"type":"function","name":"proxiableUUID","inputs":[],"outputs":[{"name":"","type":"bytes32","internalType":"bytes32"}],"stateMutability":"view"},{"type":"function","name":"registerRecipient","inputs":[{"name":"_data","type":"bytes","internalType":"bytes"},{"name":"_sender","type":"address","internalType":"address"}],"outputs":[{"name":"recipientId","type":"address","internalType":"address"}],"stateMutability":"payable"},{"type":"function","name":"registryCommunity","inputs":[],"outputs":[{"name":"","type":"address","internalType":"contract RegistryCommunityV0_0"}],"stateMutability":"view"},{"type":"function","name":"renounceOwnership","inputs":[],"outputs":[],"stateMutability":"nonpayable"},{"type":"function","name":"rule","inputs":[{"name":"_disputeID","type":"uint256","internalType":"uint256"},{"name":"_ruling","type":"uint256","internalType":"uint256"}],"outputs":[],"stateMutability":"nonpayable"},{"type":"function","name":"setPoolActive","inputs":[{"name":"_active","type":"bool","internalType":"bool"}],"outputs":[],"stateMutability":"nonpayable"},{"type":"function","name":"setPoolParams","inputs":[{"name":"_arbitrableConfig","type":"tuple","internalType":"struct StrategyStruct.ArbitrableConfig","components":[{"name":"arbitrator","type":"address","internalType":"contract IArbitrator"},{"name":"tribunalSafe","type":"address","internalType":"address"},{"name":"submitterCollateralAmount","type":"uint256","internalType":"uint256"},{"name":"challengerCollateralAmount","type":"uint256","internalType":"uint256"},{"name":"defaultRuling","type":"uint256","internalType":"uint256"},{"name":"defaultRulingTimeout","type":"uint256","internalType":"uint256"}]},{"name":"_cvParams","type":"tuple","internalType":"struct StrategyStruct.CVParams","components":[{"name":"maxRatio","type":"uint256","internalType":"uint256"},{"name":"weight","type":"uint256","internalType":"uint256"},{"name":"decay","type":"uint256","internalType":"uint256"},{"name":"minThresholdPoints","type":"uint256","internalType":"uint256"}]}],"outputs":[],"stateMutability":"nonpayable"},{"type":"function","name":"setRegistryCommunity","inputs":[{"name":"_registryCommunity","type":"address","internalType":"address"}],"outputs":[],"stateMutability":"nonpayable"},{"type":"function","name":"setSybilScorer","inputs":[{"name":"_sybilScorer","type":"address","internalType":"address"}],"outputs":[],"stateMutability":"nonpayable"},{"type":"function","name":"supportProposal","inputs":[{"name":"","type":"tuple[]","internalType":"struct StrategyStruct.ProposalSupport[]","components":[{"name":"proposalId","type":"uint256","internalType":"uint256"},{"name":"deltaSupport","type":"int256","internalType":"int256"}]}],"outputs":[],"stateMutability":"pure"},{"type":"function","name":"supportsInterface","inputs":[{"name":"interfaceId","type":"bytes4","internalType":"bytes4"}],"outputs":[{"name":"","type":"bool","internalType":"bool"}],"stateMutability":"view"},{"type":"function","name":"sybilScorer","inputs":[],"outputs":[{"name":"","type":"address","internalType":"contract ISybilScorer"}],"stateMutability":"view"},{"type":"function","name":"totalEffectiveActivePoints","inputs":[],"outputs":[{"name":"","type":"uint256","internalType":"uint256"}],"stateMutability":"view"},{"type":"function","name":"totalPointsActivated","inputs":[],"outputs":[{"name":"","type":"uint256","internalType":"uint256"}],"stateMutability":"view"},{"type":"function","name":"totalStaked","inputs":[],"outputs":[{"name":"","type":"uint256","internalType":"uint256"}],"stateMutability":"view"},{"type":"function","name":"totalVoterStakePct","inputs":[{"name":"","type":"address","internalType":"address"}],"outputs":[{"name":"","type":"uint256","internalType":"uint256"}],"stateMutability":"view"},{"type":"function","name":"transferOwnership","inputs":[{"name":"newOwner","type":"address","internalType":"address"}],"outputs":[],"stateMutability":"nonpayable"},{"type":"function","name":"updateProposalConviction","inputs":[{"name":"proposalId","type":"uint256","internalType":"uint256"}],"outputs":[{"name":"","type":"uint256","internalType":"uint256"}],"stateMutability":"nonpayable"},{"type":"function","name":"upgradeTo","inputs":[{"name":"newImplementation","type":"address","internalType":"address"}],"outputs":[],"stateMutability":"nonpayable"},{"type":"function","name":"upgradeToAndCall","inputs":[{"name":"newImplementation","type":"address","internalType":"address"},{"name":"data","type":"bytes","internalType":"bytes"}],"outputs":[],"stateMutability":"payable"},{"type":"function","name":"voterStakedProposals","inputs":[{"name":"","type":"address","internalType":"address"},{"name":"","type":"uint256","internalType":"uint256"}],"outputs":[{"name":"","type":"uint256","internalType":"uint256"}],"stateMutability":"view"},{"type":"event","name":"AdminChanged","inputs":[{"name":"previousAdmin","type":"address","indexed":false,"internalType":"address"},{"name":"newAdmin","type":"address","indexed":false,"internalType":"address"}],"anonymous":false},{"type":"event","name":"Allocated","inputs":[{"name":"recipientId","type":"address","indexed":true,"internalType":"address"},{"name":"amount","type":"uint256","indexed":false,"internalType":"uint256"},{"name":"token","type":"address","indexed":false,"internalType":"address"},{"name":"sender","type":"address","indexed":false,"internalType":"address"}],"anonymous":false},{"type":"event","name":"BeaconUpgraded","inputs":[{"name":"beacon","type":"address","indexed":true,"internalType":"address"}],"anonymous":false},{"type":"event","name":"DisputeRequest","inputs":[{"name":"_arbitrator","type":"address","indexed":true,"internalType":"contract IArbitrator"},{"name":"_arbitrableDisputeID","type":"uint256","indexed":true,"internalType":"uint256"},{"name":"_externalDisputeID","type":"uint256","indexed":false,"internalType":"uint256"},{"name":"_templateId","type":"uint256","indexed":false,"internalType":"uint256"},{"name":"_templateUri","type":"string","indexed":false,"internalType":"string"}],"anonymous":false},{"type":"event","name":"Distributed","inputs":[{"name":"proposalId","type":"uint256","indexed":false,"internalType":"uint256"},{"name":"beneficiary","type":"address","indexed":false,"internalType":"address"},{"name":"amount","type":"uint256","indexed":false,"internalType":"uint256"}],"anonymous":false},{"type":"event","name":"Distributed","inputs":[{"name":"recipientId","type":"address","indexed":true,"internalType":"address"},{"name":"recipientAddress","type":"address","indexed":false,"internalType":"address"},{"name":"amount","type":"uint256","indexed":false,"internalType":"uint256"},{"name":"sender","type":"address","indexed":false,"internalType":"address"}],"anonymous":false},{"type":"event","name":"Initialized","inputs":[{"name":"poolId","type":"uint256","indexed":false,"internalType":"uint256"},{"name":"data","type":"bytes","indexed":false,"internalType":"bytes"}],"anonymous":false},{"type":"event","name":"Initialized","inputs":[{"name":"version","type":"uint8","indexed":false,"internalType":"uint8"}],"anonymous":false},{"type":"event","name":"InitializedCV","inputs":[{"name":"poolId","type":"uint256","indexed":false,"internalType":"uint256"},{"name":"data","type":"tuple","indexed":false,"internalType":"struct StrategyStruct.InitializeParams","components":[{"name":"cvParams","type":"tuple","internalType":"struct StrategyStruct.CVParams","components":[{"name":"maxRatio","type":"uint256","internalType":"uint256"},{"name":"weight","type":"uint256","internalType":"uint256"},{"name":"decay","type":"uint256","internalType":"uint256"},{"name":"minThresholdPoints","type":"uint256","internalType":"uint256"}]},{"name":"proposalType","type":"uint8","internalType":"enum StrategyStruct.ProposalType"},{"name":"pointSystem","type":"uint8","internalType":"enum StrategyStruct.PointSystem"},{"name":"pointConfig","type":"tuple","internalType":"struct StrategyStruct.PointSystemConfig","components":[{"name":"maxAmount","type":"uint256","internalType":"uint256"}]},{"name":"arbitrableConfig","type":"tuple","internalType":"struct StrategyStruct.ArbitrableConfig","components":[{"name":"arbitrator","type":"address","internalType":"contract IArbitrator"},{"name":"tribunalSafe","type":"address","internalType":"address"},{"name":"submitterCollateralAmount","type":"uint256","internalType":"uint256"},{"name":"challengerCollateralAmount","type":"uint256","internalType":"uint256"},{"name":"defaultRuling","type":"uint256","internalType":"uint256"},{"name":"defaultRulingTimeout","type":"uint256","internalType":"uint256"}]},{"name":"registryCommunity","type":"address","internalType":"address"},{"name":"sybilScorer","type":"address","internalType":"address"}]}],"anonymous":false},{"type":"event","name":"MinThresholdPointsUpdated","inputs":[{"name":"before","type":"uint256","indexed":false,"internalType":"uint256"},{"name":"minThresholdPoints","type":"uint256","indexed":false,"internalType":"uint256"}],"anonymous":false},{"type":"event","name":"OwnershipTransferred","inputs":[{"name":"previousOwner","type":"address","indexed":true,"internalType":"address"},{"name":"newOwner","type":"address","indexed":true,"internalType":"address"}],"anonymous":false},{"type":"event","name":"PointsDeactivated","inputs":[{"name":"member","type":"address","indexed":false,"internalType":"address"}],"anonymous":false},{"type":"event","name":"PoolActive","inputs":[{"name":"active","type":"bool","indexed":false,"internalType":"bool"}],"anonymous":false},{"type":"event","name":"PoolAmountIncreased","inputs":[{"name":"amount","type":"uint256","indexed":false,"internalType":"uint256"}],"anonymous":false},{"type":"event","name":"PoolParamsUpdated","inputs":[{"name":"cvParams","type":"tuple","indexed":false,"internalType":"struct StrategyStruct.CVParams","components":[{"name":"maxRatio","type":"uint256","internalType":"uint256"},{"name":"weight","type":"uint256","internalType":"uint256"},{"name":"decay","type":"uint256","internalType":"uint256"},{"name":"minThresholdPoints","type":"uint256","internalType":"uint256"}]},{"name":"arbitrableConfig","type":"tuple","indexed":false,"internalType":"struct StrategyStruct.ArbitrableConfig","components":[{"name":"arbitrator","type":"address","internalType":"contract IArbitrator"},{"name":"tribunalSafe","type":"address","internalType":"address"},{"name":"submitterCollateralAmount","type":"uint256","internalType":"uint256"},{"name":"challengerCollateralAmount","type":"uint256","internalType":"uint256"},{"name":"defaultRuling","type":"uint256","internalType":"uint256"},{"name":"defaultRulingTimeout","type":"uint256","internalType":"uint256"}]}],"anonymous":false},{"type":"event","name":"PowerDecreased","inputs":[{"name":"member","type":"address","indexed":false,"internalType":"address"},{"name":"tokensUnStaked","type":"uint256","indexed":false,"internalType":"uint256"},{"name":"pointsToDecrease","type":"uint256","indexed":false,"internalType":"uint256"}],"anonymous":false},{"type":"event","name":"PowerIncreased","inputs":[{"name":"member","type":"address","indexed":false,"internalType":"address"},{"name":"tokensStaked","type":"uint256","indexed":false,"internalType":"uint256"},{"name":"pointsToIncrease","type":"uint256","indexed":false,"internalType":"uint256"}],"anonymous":false},{"type":"event","name":"ProposalCreated","inputs":[{"name":"poolId","type":"uint256","indexed":false,"internalType":"uint256"},{"name":"proposalId","type":"uint256","indexed":false,"internalType":"uint256"}],"anonymous":false},{"type":"event","name":"ProposalDisputed","inputs":[{"name":"arbitrator","type":"address","indexed":false,"internalType":"contract IArbitrator"},{"name":"proposalId","type":"uint256","indexed":false,"internalType":"uint256"},{"name":"disputeId","type":"uint256","indexed":false,"internalType":"uint256"},{"name":"challenger","type":"address","indexed":false,"internalType":"address"},{"name":"context","type":"string","indexed":false,"internalType":"string"},{"name":"timestamp","type":"uint256","indexed":false,"internalType":"uint256"}],"anonymous":false},{"type":"event","name":"Registered","inputs":[{"name":"recipientId","type":"address","indexed":true,"internalType":"address"},{"name":"data","type":"bytes","indexed":false,"internalType":"bytes"},{"name":"sender","type":"address","indexed":false,"internalType":"address"}],"anonymous":false},{"type":"event","name":"RegistryUpdated","inputs":[{"name":"registryCommunity","type":"address","indexed":false,"internalType":"address"}],"anonymous":false},{"type":"event","name":"Ruling","inputs":[{"name":"_arbitrator","type":"address","indexed":true,"internalType":"contract IArbitrator"},{"name":"_disputeID","type":"uint256","indexed":true,"internalType":"uint256"},{"name":"_ruling","type":"uint256","indexed":false,"internalType":"uint256"}],"anonymous":false},{"type":"event","name":"SupportAdded","inputs":[{"name":"from","type":"address","indexed":false,"internalType":"address"},{"name":"proposalId","type":"uint256","indexed":false,"internalType":"uint256"},{"name":"amount","type":"uint256","indexed":false,"internalType":"uint256"},{"name":"totalStakedAmount","type":"uint256","indexed":false,"internalType":"uint256"},{"name":"convictionLast","type":"uint256","indexed":false,"internalType":"uint256"}],"anonymous":false},{"type":"event","name":"TribunaSafeRegistered","inputs":[{"name":"strategy","type":"address","indexed":false,"internalType":"address"},{"name":"arbitrator","type":"address","indexed":false,"internalType":"address"},{"name":"tribunalSafe","type":"address","indexed":false,"internalType":"address"}],"anonymous":false},{"type":"event","name":"Upgraded","inputs":[{"name":"implementation","type":"address","indexed":true,"internalType":"address"}],"anonymous":false},{"type":"error","name":"ALLOCATION_ACTIVE","inputs":[]},{"type":"error","name":"ALLOCATION_NOT_ACTIVE","inputs":[]},{"type":"error","name":"ALLOCATION_NOT_ENDED","inputs":[]},{"type":"error","name":"ALREADY_INITIALIZED","inputs":[]},{"type":"error","name":"AMOUNT_MISMATCH","inputs":[]},{"type":"error","name":"ANCHOR_ERROR","inputs":[]},{"type":"error","name":"ARRAY_MISMATCH","inputs":[]},{"type":"error","name":"AddressCannotBeZero","inputs":[]},{"type":"error","name":"AmountOverMaxRatio","inputs":[]},{"type":"error","name":"ArbitrationConfigCannotBeChangedDuringDispute","inputs":[]},{"type":"error","name":"ArbitratorCannotBeZero","inputs":[]},{"type":"error","name":"CantIncreaseFixedSystem","inputs":[]},{"type":"error","name":"CollateralVaultCannotBeZero","inputs":[]},{"type":"error","name":"ConvictionUnderMinimumThreshold","inputs":[]},{"type":"error","name":"DefaultRulingNotSet","inputs":[]},{"type":"error","name":"DisputeCooldownNotPassed","inputs":[{"name":"_proposalId","type":"uint256","internalType":"uint256"}]},{"type":"error","name":"INVALID","inputs":[]},{"type":"error","name":"INVALID_ADDRESS","inputs":[]},{"type":"error","name":"INVALID_FEE","inputs":[]},{"type":"error","name":"INVALID_METADATA","inputs":[]},{"type":"error","name":"INVALID_REGISTRATION","inputs":[]},{"type":"error","name":"IS_APPROVED_STRATEGY","inputs":[]},{"type":"error","name":"InsufficientCollateral","inputs":[{"name":"sentAmount","type":"uint256","internalType":"uint256"},{"name":"requiredAmount","type":"uint256","internalType":"uint256"}]},{"type":"error","name":"MISMATCH","inputs":[]},{"type":"error","name":"MaxPointsReached","inputs":[]},{"type":"error","name":"NONCE_NOT_AVAILABLE","inputs":[]},{"type":"error","name":"NOT_APPROVED_STRATEGY","inputs":[]},{"type":"error","name":"NOT_ENOUGH_FUNDS","inputs":[]},{"type":"error","name":"NOT_IMPLEMENTED","inputs":[]},{"type":"error","name":"NOT_INITIALIZED","inputs":[]},{"type":"error","name":"NOT_PENDING_OWNER","inputs":[]},{"type":"error","name":"NotEnoughPointsToSupport","inputs":[{"name":"pointsSupport","type":"uint256","internalType":"uint256"},{"name":"pointsBalance","type":"uint256","internalType":"uint256"}]},{"type":"error","name":"NotImplemented","inputs":[]},{"type":"error","name":"OnlyArbitrator","inputs":[]},{"type":"error","name":"OnlyCommunityAllowed","inputs":[]},{"type":"error","name":"OnlyCouncilSafe","inputs":[]},{"type":"error","name":"POOL_ACTIVE","inputs":[]},{"type":"error","name":"POOL_INACTIVE","inputs":[]},{"type":"error","name":"PoolAmountNotEnough","inputs":[{"name":"_proposalId","type":"uint256","internalType":"uint256"},{"name":"_requestedAmount","type":"uint256","internalType":"uint256"},{"name":"_poolAmount","type":"uint256","internalType":"uint256"}]},{"type":"error","name":"PoolIdCannotBeZero","inputs":[]},{"type":"error","name":"PoolIsEmpty","inputs":[]},{"type":"error","name":"ProposalDataIsEmpty","inputs":[]},{"type":"error","name":"ProposalIdCannotBeZero","inputs":[]},{"type":"error","name":"ProposalNotActive","inputs":[{"name":"_proposalId","type":"uint256","internalType":"uint256"}]},{"type":"error","name":"ProposalNotDisputed","inputs":[{"name":"_proposalId","type":"uint256","internalType":"uint256"}]},{"type":"error","name":"ProposalNotInList","inputs":[{"name":"_proposalId","type":"uint256","internalType":"uint256"}]},{"type":"error","name":"ProposalSupportDuplicated","inputs":[{"name":"_proposalId","type":"uint256","internalType":"uint256"},{"name":"index","type":"uint256","internalType":"uint256"}]},{"type":"error","name":"RECIPIENT_ALREADY_ACCEPTED","inputs":[]},{"type":"error","name":"RECIPIENT_ERROR","inputs":[{"name":"recipientId","type":"address","internalType":"address"}]},{"type":"error","name":"RECIPIENT_NOT_ACCEPTED","inputs":[]},{"type":"error","name":"REGISTRATION_NOT_ACTIVE","inputs":[]},{"type":"error","name":"RegistryCannotBeZero","inputs":[]},{"type":"error","name":"SupportUnderflow","inputs":[{"name":"_support","type":"uint256","internalType":"uint256"},{"name":"_delta","type":"int256","internalType":"int256"},{"name":"_result","type":"int256","internalType":"int256"}]},{"type":"error","name":"TokenCannotBeZero","inputs":[]},{"type":"error","name":"TokenNotAllowed","inputs":[]},{"type":"error","name":"UNAUTHORIZED","inputs":[]},{"type":"error","name":"UserCannotBeZero","inputs":[]},{"type":"error","name":"UserCannotExecuteAction","inputs":[]},{"type":"error","name":"UserIsInactive","inputs":[]},{"type":"error","name":"UserNotInRegistry","inputs":[]},{"type":"error","name":"ZERO_ADDRESS","inputs":[]}],"bytecode":{"object":"0x60a0806040523461006c5730608052606a80546001600160a01b031916733b1fbfb04db3585920b2eadbb8839fc9680fe8cd179055606d80546001600160401b03191690556000606e556151fa908161007282396080518181816121260152818161221001526125100152f35b600080fdfe60806040526004361015610018575b361561001657005b005b6000803560e01c8063013cf08b14613a9b57806301ffc9a714613a44578063058aca441461396e578063062f9ece146138bd5780630a6f0ee9146135be5780630ba95909146119a85780630bece79c146135955780630c0512e9146135775780630f529ba2146135595780631073e9961461350657806315cc481e146134dd5780631aa91a9e146134be5780631ddf1e23146134a45780632506b8701461346d578063255ffb38146134435780632bbe0cae14612f765780632dbd6fdd1461145a5780632ed04b2b14612d04578063311a6c561461279c578063339604591461277e578063346db8cb14612759578063351d9f96146127335780633659cfe6146124eb57806338fff2d0146124cd578063406244d8146124b157806342fda9c7146124935780634ab4ba42146124755780634d31d087146124365780634f1ef286146121d257806352d1902d1461211357806359a5db8b146120f45780635db64b99146114855780636003e414146120cb578063626c47e8146120af5780636453d9c414612085578063715018a614612039578063782aadff14611c7f578063814516ad14611b87578063817b1cd214611b69578063824ea8ed14611afc578063868c57b814611aa65780638da5cb5b14611a7d578063950559d714611a1e578063a0cf0aea146119ef578063a28889e1146119c6578063a47ff7e5146119a8578063a574cea41461194e578063aba9ffee1461134a578063ac1ed7b914611900578063b2b878d01461183d578063b41596ec14611543578063b5f620ce146114e7578063b6c61f31146114be578063bcc5b93b14611485578063c32921711461145a578063c46dac0e14611435578063c7f758a814611368578063d1e362321461134a578063dc96ff2d1461131d578063df868ed3146112fa578063e0dd2c38146112b0578063e33add9314611201578063eb11af93146111b7578063edd146cc14610d11578063ef2920fc14610617578063f09a401614610487578063f2fde38b146103f9578063f321b3051461039e578063f5b0dfb7146103455763f5be3f7c14610326575061000e565b346103425780600319360112610342576020604051611c208152f35b80fd5b5034610342576020366003190112610342577f46aeb5d8770fc4474bc2dfa118fd2595f7fb33ce2cbce6f4e5a3dabfe0f763396020600435610385614269565b61039181606954614246565b606955604051908152a180f35b5034610342576040366003190112610342576103b8613dcd565b602435906001600160401b0382116103f557366023830112156103f5576103ec6103f2923690602481600401359101613e99565b906141fb565b80f35b8280fd5b503461034257602036600319011261034257610413613dcd565b61041b613fa1565b6001600160a01b03811615610433576103f290613ff9565b60405162461bcd60e51b815260206004820152602660248201527f4f776e61626c653a206e6577206f776e657220697320746865207a65726f206160448201526564647265737360d01b6064820152608490fd5b5034610342576040366003190112610342576104a1613dcd565b6104a9613de3565b825460ff8160081c16159283809461060a575b80156105f3575b156105975760ff19821660011785556105069184610586575b50604051906104ea82613c1f565b600a8252694356537472617465677960b01b60208301526141fb565b61051f60ff845460081c1661051a81614299565b614299565b61052833613ff9565b606a80546001600160a01b0319166001600160a01b039290921691909117905561054f5780f35b61ff001981541681557f7f26b83ff96e1f2b6a682f133852f6798a09c465da95921460cefb3847402498602060405160018152a180f35b61ffff1916610101178555386104dc565b60405162461bcd60e51b815260206004820152602e60248201527f496e697469616c697a61626c653a20636f6e747261637420697320616c72656160448201526d191e481a5b9a5d1a585b1a5e995960921b6064820152608490fd5b50303b1580156104c35750600160ff8316146104c3565b50600160ff8316106104bc565b5061062136613eeb565b9061062a614269565b61063261427d565b6001600160a01b0382811691908215610cff57607d5416938415610ced5760405163288c314960e21b81526004810184905260209360249291858185818b5afa908115610ca1578391610cd0575b5015610cbe5761068f866144fe565b15610cac5760405163011de97360e61b81528581806106b2308b600484016144e4565b03818b5afa908115610ca1578391610c74575b5015610c62578351840193858501908681870312610c5a5780870151906001600160401b038211610c5e57019481603f87011215610c5a57868601519061070b82613df9565b966107196040519889613c55565b82885260408989019360061b820101938411610c5657604001915b838310610c245750505050819682975b85518910156107c1576107578987614a45565b5151156107b7576107688987614a45565b515161077381614a59565b156107a0575061079461079a918861078b8c8a614a45565b51015190614ab1565b986142f9565b97610744565b85906040519063c1d17bef60e01b82526004820152fd5b9761079a906142f9565b958093976107e06107fe93949698878b526081845260408b2054614acd565b936040518080958194637817ee4f60e01b83523090600484016144e4565b03915afa908115610c19578791610be7575b50808211610bca575082869594939652608182526040852055606094859185945b8451861015610bc6576108448686614a45565b515193805115600014610aa157506040519461085f86613c1f565b600186528286019883368b37865115610a8c5785899a529590955b836108858989614a45565b51015196868a528960809485875260408220946009860193896000528489526108b46040600020549c8d614acd565b948a60005289528460406000205583918460408954965b8d815260828d52208054821015610a77576108e7828892613f46565b90549060031b1c1461090a57908f92916109026040916142f9565b9192936108cb565b509a949391509b96919c60019b96959b5b15610a0d575b5061098696959493929190508185116109d45761093e858361459b565b61094b606f918254614246565b9055610957858361459b565b61096660028601918254614246565b90555b600784019384541560001461098f575050505090504390556142f9565b94939695610831565b60a094506109ac6000805160206150e58339815191529682614da1565b6003600282015491015492604051948b86528a86015260408501528b840152820152a16142f9565b6109de828661459b565b6109eb606f91825461459b565b90556109f7828661459b565b610a066002860191825461459b565b9055610969565b8981526082895260409020805490600160401b821015610a635781610a419160016109869b9a999897969594018155613f46565b819291549060031b91821b91600019901b19161790559091929394958d610921565b50634e487b7160e01b8f5260416004528d8ffd5b50509a9493919d909c97929d9b96959b61091b565b82634e487b7160e01b60005260326004526000fd5b9497918794979693919698855b8751811015610af35789610ac2828a614a45565b5114610ad657610ad1906142f9565b610aae565b896044918a60405192632b7aec5560e21b84526004840152820152fd5b50989794979691939692909215610b0e575b9487989561087a565b949788516001998a8201809211610bb357899a610b2a83613df9565b92610b386040519485613c55565b808452610b47601f1991613df9565b0136878501378a815b610b6d575b5050610b6387915183614a45565b5295909850610b05565b90919293949a8351821015610ba9575080610b8b610b9c9285614a45565b51610b968287614a45565b526142f9565b908b9a9493929181610b50565b9a94939291610b55565b634e487b7160e01b8a526011600452838afd5b8680f35b604492508560405192636b20c17f60e11b84526004840152820152fd5b90508281813d8311610c12575b610bfe8183613c55565b81010312610c0d575187610810565b600080fd5b503d610bf4565b6040513d89823e3d90fd5b6040898484030112610c5657886040918251610c3f81613c1f565b855181528286015183820152815201920191610734565b8580fd5b8380fd5b8480fd5b604051635fccb67f60e01b8152600490fd5b610c949150863d8811610c9a575b610c8c8183613c55565b8101906144cc565b386106c5565b503d610c82565b6040513d85823e3d90fd5b604051630b72d6b160e31b8152600490fd5b604051636a5cfb6d60e01b8152600490fd5b610ce79150863d8811610c9a57610c8c8183613c55565b38610680565b604051635df4b1ef60e01b8152600490fd5b604051631a3e505160e31b8152600490fd5b5034610342576040366003190112610342576004356001600160401b03602435818111610c5a57610d46903690600401613ed0565b610d4e614269565b610d56614269565b6068546111a55782156111935782606855606a546e5af43d82803e903d91602b57fd5bf3606c54610d86816142f9565b606c5560405160208101913360601b8352603482015260348152610da981613c3a565b519020608883901c62ffffff16763d602d80600a3d3981f3363d3d373d3d3d363d7300000017875260789290921b6001600160781b031916176020526001600160a01b03906037600987f516801561115457607e80546001600160a01b031981168317909155859190821617803b156111505781809160046040518094819363204a7f0760e21b83525af1801561114557611131575b5050808051810103916101e08312610c5e576040519260e084018481108382111761111757806040526080821261112d57610e7981613bf1565b60208401518152604084015161010086015260608401516101208601526080840151610140860152845260a0830151600381101561112d57602085015260c0830151600481101561112d576040850152602060bf19820112610c565760405160208101928311818410176111175760c09260405260e08401518152606085015260df190112610c5a57604051610f0e81613bd6565b6101008201516001600160a01b0381168103610c56578152610f336101208301614308565b60208201526101408201516040820152610160820151606082015261018082015160808201526101a082015160a08201526080830152610f896101e0610f7c6101c08401614308565b928360a086015201614308565b60c08301526001600160a01b031615610ced5760a0810151607d80546001600160a01b0319166001600160a01b03929092169190911790556020810151600381101561110357607554604083015160048110156110ef5791610200939160ff61ff007fe5315be7b0ab27f8044fa25213ec2851fa61dd47203db658cf77f45f39ffc37b979560081b1692169061ffff1916171760755560608101515160765560018060a01b0360c08201511660018060a01b0319607f541617607f556110556080820151825190614e26565b60018060a01b0360c08201511660018060a01b0319607f541617607f5560405191825261108660208301825161431c565b611098602082015160a0840190613f39565b6110aa604082015160c0840190613f2c565b60608101515160e08301526110c8608082015161010084019061433f565b60a08101516001600160a01b039081166101c084015260c090910151166101e0820152a180f35b634e487b7160e01b86526021600452602486fd5b634e487b7160e01b84526021600452602484fd5b634e487b7160e01b600052604160045260246000fd5b8680fd5b61113a90613c0c565b610c5a578338610e3f565b6040513d84823e3d90fd5b5080fd5b60405162461bcd60e51b8152602060048201526017602482015276115490cc4c4d8dce8818dc99585d194c8819985a5b1959604a1b6044820152606490fd5b604051637fcce2a960e01b8152600490fd5b60405163439a74c960e01b8152600490fd5b5034610342576020366003190112610342576001600160a01b036111d9613dcd565b16151590506111f857602060035b604051906111f481613d45565b8152f35b602060026111e7565b50346103425760208060031936011261115057600435906001600160401b0382116103f557366023830112156103f557816004013560248261124283613df9565b61124f6040519182613c55565b838152019160061b84010192368411610c5e57602401905b8382106112805760405163d623472560e01b8152600490fd5b604082360312610c5e5782604091825161129981613c1f565b843581528285013583820152815201910190611267565b503461034257604036600319011261034257600960406112ce613de3565b926004358152608060205220019060018060a01b03166000526020526020604060002054604051908152f35b5034610342578060031936011261034257602060ff606754166040519015158152f35b50346103425760203660031901126103425760026040602092600435815260808452200154604051908152f35b50346103425780600319360112610342576020607054604051908152f35b5034610342576020366003190112610342576101409060043581526080602052604081206001810154918215600014611426575b60018060a01b03918260058201541693836004830154169360068301541690600283015460ff600885015416916007850154936009600387015496336000520160205260406000205497604051998a5260208a015260408901526060880152608087015261140981613d45565b60a086015260c085015260e0840152610100830152610120820152f35b5061143082614c16565b61139c565b50346103425780600319360112610342576040607954607a5482519182526020820152f35b5034610342578060031936011261034257602060ff60755460081c166114836040518092613f2c565bf35b5034610342576020366003190112610342576020906040906001600160a01b036114ad613dcd565b168152608183522054604051908152f35b5034610342578060031936011261034257607f546040516001600160a01b039091168152602090f35b5034610342576020366003190112610342576004358015158091036111505760207fd94c9bc4d43c51d8dc345a016d8e3d994432fac68e72832e4cf3a616bd8efae09160ff196067541660ff821617606755604051908152a180f35b50606036600319011261034257600435906001600160401b0360248035828111610c5a57611575903690600401613f74565b604495919535848111610c5657611590903690600401613f74565b9383875260209560808752604088209560018060a01b039384607754161561182b5784607e541680156118195787895403611801576008890192600160ff8554166115da81613d45565b036117e957607a54803411156117cc576115f4813461459b565b92803b156117c8576116208e918c60405194858094819363240ff7c560e11b8352339060048401614491565b03925af180156117bd57918c93918e999897969593611794575b506116709850876077541691604051809a8195829463c13517e160e01b84526003600485015260408c850152604484019161501b565b03925af1948515611789578a9561175a575b50805460ff19166005179055600c870184905542600d8801908155600e90970180546001600160a01b031916331790558389526083885260408920869055606d54918183169081831461174857509161173c95939160017f034f6a48076db1bcaaa311ccdc43d473aff44d3918a76fe0fae27c8b3665016d9b9c969401169060018060401b03191617606d55607754169554946040519788978852870152604086015233606086015260c0608086015260c085019161501b565b9060a08301520390a180f35b634e487b7160e01b8b5260116004528afd5b9094508881813d8311611782575b6117728183613c55565b81010312610c0d57519338611682565b503d611768565b6040513d8c823e3d90fd5b6117a691939596979899929450613c0c565b6117b957918a918c97969594933861163a565b8b80fd5b6040513d8f823e3d90fd5b8d80fd5b8660449160405191632c1f8ef160e21b8352346004840152820152fd5b6040516344980d8f60e01b8152600481018a90528690fd5b60405163c1d17bef60e01b8152600481018990528590fd5b60405163c4d0cd2f60e01b8152600490fd5b604051636c291fd360e01b8152600490fd5b5034610342576040366003190112610342576001600160401b039060043582811161115057611870903690600401613e10565b50602480358381116103f557366023820112156103f55780600401359161189683613df9565b946118a46040519687613c55565b8386528160208097019460051b8401019436861161034257828401945b8686106118da5760405163d623472560e01b8152600490fd5b85358381116103f55788916118f583928736918a0101613ed0565b8152019501946118c1565b50346103425760203660031901126103425761191a613dcd565b611922614fab565b61192b816144aa565b607f80546001600160a01b0319166001600160a01b039290921691909117905580f35b503461034257602036600319011261034257611990600a60406119a49360606020835161197a81613c1f565b8381520152600435815260806020522001613c78565b604051918291602083526020830190613dad565b0390f35b50346103425780600319360112610342576020607654604051908152f35b5034610342578060031936011261034257606d546040516001600160401b039091168152602090f35b5034610342578060031936011261034257602060405173eeeeeeeeeeeeeeeeeeeeeeeeeeeeeeeeeeeeeeee8152f35b503461034257602036600319011261034257600435629896809182820291808304841490151715611a69576073548303928311611a69576020611a61848461483e565b604051908152f35b634e487b7160e01b81526011600452602490fd5b50346103425780600319360112610342576033546040516001600160a01b039091168152602090f35b503461034257604036600319011261034257611ac0613dcd565b6001600160a01b0316815260826020526040812080546024359290831015610342576020611aee8484613f46565b90546040519160031b1c8152f35b503461034257602036600319011261034257604060209160043581526080835220611b2b600282015482614dd3565b81929192159081611b60575b50611b54575b6001611b4a910154614c16565b1115604051908152f35b60038101549150611b3d565b90501538611b37565b50346103425780600319360112610342576020606f54604051908152f35b5034610342578060031936011261034257611ba1336144fe565b15610cac57607d546001600160a01b039082908216803b1561115057816040518092630d4a8b4960e01b8252818381611bde3033600484016144e4565b03925af1801561114557611c6b575b5050607d541660206040518092637817ee4f60e01b82528180611c143033600484016144e4565b03915afa8015611145578290611c38575b611c329150607054614246565b60705580f35b506020813d8211611c63575b81611c5160209383613c55565b81010312610c0d57611c329051611c25565b3d9150611c44565b611c7490613c0c565b611150578138611bed565b503461034257604036600319011261034257611c99613dcd565b602435611ca4614575565b611cad826144fe565b15610cac578260ff60755460081c1660048110156120255760028103611d9757505080915b607d5460405163011de97360e61b81529060209082906001600160a01b03168180611d013088600484016144e4565b03915afa908115611d8c57907f0b9150e1e54346ed3fa36b977cd5d65dca5a649c737c3174a26bddaadd47667a93929160209691611d6f575b50611d5b575b611d5084604051938493846147c7565b0390a1604051908152f35b611d6784607054614246565b607055611d40565b611d869150863d8111610c9a57610c8c8183613c55565b38611d3a565b6040513d87823e3d90fd5b60018103611e43575050607d54604051637817ee4f60e01b8152829160209082906001600160a01b03168180611dd1308a600484016144e4565b03915afa908115611d8c578591611e12575b50611dee8382614246565b607654809111611e01575b505091611cd2565b611e0b925061459b565b3880611df9565b90506020813d8211611e3b575b81611e2c60209383613c55565b81010312610c0d575138611de3565b3d9150611e1f565b90929060021901611cd257607d546040516316308e2560e11b81526001600160a01b038084166004830152929450908216916020918281602481875afa8015610c195785908890611ff4575b611e999250614246565b6040516336d8759760e21b81529060128483600481895afa908115611fe957611f029486611ef793611efd968d91611fbc575b5060046040518094819363313ce56760e01b8352165afa8b9181611f8d575b50611f82575b5061481d565b9061482b565b61485e565b816040518094637817ee4f60e01b82528180611f22308b600484016144e4565b03915afa918215611f77578692611f45575b50611f3f925061459b565b91611cd2565b90915082813d8311611f70575b611f5c8183613c55565b81010312610c0d57611f3f91519038611f34565b503d611f52565b6040513d88823e3d90fd5b60ff91501638611ef1565b611fae919250883d8a11611fb5575b611fa68183613c55565b810190614804565b9038611eeb565b503d611f9c565b611fdc9150823d8411611fe2575b611fd48183613c55565b8101906147e5565b38611ecc565b503d611fca565b6040513d8b823e3d90fd5b50508281813d831161201e575b61200b8183613c55565b81010312610c0d5784611e999151611e8f565b503d612001565b634e487b7160e01b85526021600452602485fd5b5034610342578060031936011261034257612052613fa1565b603380546001600160a01b031981169091556000906001600160a01b03166000805160206151058339815191528280a380f35b5034610342576020366003190112610342576103f26120a2613dcd565b6120aa614575565b6145a8565b5034610342578060031936011261034257602060405160038152f35b5034610342578060031936011261034257607d546040516001600160a01b039091168152602090f35b5034610342576020366003190112610342576020611a61600435614c16565b50346103425780600319360112610342577f00000000000000000000000000000000000000000000000000000000000000006001600160a01b0316300361216c5760206040516000805160206150c58339815191528152f35b60405162461bcd60e51b815260206004820152603860248201527f555550535570677261646561626c653a206d757374206e6f742062652063616c6044820152771b1959081d1a1c9bdd59da0819195b1959d85d1958d85b1b60421b6064820152608490fd5b506040366003190112610342576121e7613dcd565b6024356001600160401b0381116103f557612206903690600401613ed0565b6001600160a01b037f0000000000000000000000000000000000000000000000000000000000000000811692919061224030851415614030565b61225d6000805160206150c583398151915294828654161461407f565b612265613fa1565b6000805160206150658339815191525460ff16156122895750506103f291506140ce565b8216604051936352d1902d60e01b85526020948581600481865afa60009181612407575b506122fc5760405162461bcd60e51b815260048101879052602e60248201526000805160206151a583398151915260448201526d6f6e206973206e6f74205555505360901b6064820152608490fd5b94929394036123c25761230e846140ce565b600080516020615125833981519152600080a28151158015906123ba575b612337575b50505080f35b6123a8926000806040519461234b86613c3a565b6027865260008051602061518583398151915285870152660819985a5b195960ca1b60408701528481519101845af4903d156123b1573d61238b81613e7e565b906123996040519283613c55565b8152600081943d92013e61415e565b50388080612331565b6060925061415e565b50600161232c565b60405162461bcd60e51b815260048101839052602960248201526000805160206151658339815191526044820152681a58589b195555525160ba1b6064820152608490fd5b90918782813d831161242f575b61241e8183613c55565b8101031261034257505190386122ad565b503d612414565b5034610342576020366003190112610342576001600160a01b03612458613dcd565b1661246b576020905b6040519015158152f35b5060206001612461565b50346103425780600319360112610342576020606954604051908152f35b50346103425780600319360112610342576020606654604051908152f35b50346103425780600319360112610342576020604051600a8152f35b50346103425780600319360112610342576020606854604051908152f35b50346103425760208060031936011261115057612506613dcd565b6001600160a01b037f0000000000000000000000000000000000000000000000000000000000000000811661253d30821415614030565b61255a6000805160206150c583398151915291838354161461407f565b612562613fa1565b604051848101929091906001600160401b03841183851017611117578360405286835260ff60008051602061506583398151915254166000146125ad57505050506103f291506140ce565b8492939416906040516352d1902d60e01b81528681600481865afa60009181612704575b506126205760405162461bcd60e51b815260048101889052602e60248201526000805160206151a583398151915260448201526d6f6e206973206e6f74205555505360901b6064820152608490fd5b95939495036126bf57612632826140ce565b600080516020615125833981519152600080a28251158015906126b7575b61265c575b5050505080f35b6000806126ad956040519561267087613c3a565b6027875260008051602061518583398151915286880152660819985a5b195960ca1b60408801525190845af4903d156123b1573d61238b81613e7e565b5038808080612655565b506000612650565b60405162461bcd60e51b815260048101849052602960248201526000805160206151658339815191526044820152681a58589b195555525160ba1b6064820152608490fd5b90918882813d831161272c575b61271b8183613c55565b8101031261034257505190386125d1565b503d612711565b5034610342578060031936011261034257602060ff607554166114836040518092613f39565b5034610342576060366003190112610342576020611a61604435602435600435614b08565b50346103425780600319360112610342576020606c54604051908152f35b50346103425760403660031901126103425760043590602491823581835260206083815260408420548085526080825260408520908015612ced576008820191825492600560ff85166127ee81613d45565b03612cd557600f8201938454611c208101809111612cc2574210612caa5761281d600d840154607c5490614246565b42118015908180612c95575b612c835790612c7b575b156129e45750607b5480156129d2576001146129c2575b6002607b54146129b1575b50607e54600e820154607a546001600160a01b03918216949192831690813b156129ad5761289f8b92839260405194858094819363099ea56b60e41b9c8d84528a600485016149a1565b03925af1801561178957908a91612995575b5050601082607e54169260058501541693015493823b15612991579089809493926128ea604051978896879586948552600485016149a1565b03925af18015611f775790869161297d575b50505b606d546001600160401b03808216801561296a5760001901166001600160401b03199190911617606d5542905560775460405192835293945091926001600160a01b0316917f394027a5fa6e098a1191094d1719d6929b9abc535fcc0c8f448d6a4e7562227691a380f35b634e487b7160e01b885260116004528888fd5b61298690613c0c565b610c5e5784386128fc565b8980fd5b61299e90613c0c565b6129a95788386128b1565b8880fd5b8a80fd5b805460ff1916600617905538612855565b805460ff1916600117815561284a565b604051630dd466dd60e41b8152600490fd5b60018703612aba5750805460ff19166001179055607e54600e90910154607d54604051633629edcd60e11b81526001600160a01b03928316938316929187908290600490829086165afa908115611789578a91612a9d575b50607a54833b156129ad578a94939291612a70869260405198899788968795638969ab5360e01b875216916004860161503c565b03925af18015611f7757908691612a89575b50506128ff565b612a9290613c0c565b610c5e578438612a82565b612ab49150873d8911611fe257611fd48183613c55565b38612a3c565b60028794939414612acf575b505050506128ff565b60ff19166006179055607e54600e83018054607a546001600160a01b0395929492939091908616908616813b156117b957918b91612b25938360405180968195829463099ea56b60e41b84528a600485016149a1565b03925af1801561178957908a91612c67575b5050600484607e541694600584019381855416908983607d541660405195868092633629edcd60e11b82525afa9384156117bd578d94612c45575b5060100196875460011c91813b156117c857918d91612bae93836040518096819582948a638969ab5360e01b9c8d865216908d6004860161503c565b03925af18015612c3a57908c91612c26575b50508080607e5416945416945416945460011c833b156129ad578a94939291612bf986926040519889978896879586526004860161503c565b03925af18015611f7757908691612c12575b8080612ac6565b612c1b90613c0c565b610c5e578438612c0b565b612c2f90613c0c565b6129ad578a38612bc0565b6040513d8e823e3d90fd5b6010919450612c60908b3d8d11611fe257611fd48183613c55565b9390612b72565b612c7090613c0c565b6129a9578838612b37565b508615612833565b604051631777988560e11b8152600490fd5b506077546001600160a01b0316331415612829565b604051631a8c8d1360e01b8152600481018590528a90fd5b634e487b7160e01b8a5260116004528a8afd5b604051634b011ca960e11b8152600481018490528990fd5b86906040519063c1d17bef60e01b82526004820152fd5b503461034257604036600319011261034257612d1e613dcd565b60243591612d2a614575565b60ff60755460081c166004811015612f625760028114908115612f57575b5015612d83575060008051602061508583398151915282602093925b612d708460705461459b565b607055611d5084604051938493846147c7565b607d546040516336d8759760e21b8152602092916001600160a01b0390811691601291908581600481875afa908115611d8c57829187918791612f3a575b5060046040518094819363313ce56760e01b8352165afa859181612f1b575b50612f10575b506040516316308e2560e11b815290861660048201528481602481865afa908115612f05579087918591612ed2575b5091611ef7612e2a611efd93612e309561459b565b9161481d565b92806040518093637817ee4f60e01b82528180612e51308b600484016144e4565b03915afa928315612ec65792612e86575b505092612e806000805160206150858339815191529260209561459b565b92612d64565b9080959250813d8311612ebf575b612e9e8183613c55565b81010312610c0d579251612e80600080516020615085833981519152612e62565b503d612e94565b604051903d90823e3d90fd5b809250868092503d8311612efe575b612eeb8183613c55565b81010312610c0d57518690611ef7612e15565b503d612ee1565b6040513d86823e3d90fd5b60ff16915038612de6565b612f33919250873d8911611fb557611fa68183613c55565b9038612de0565b612f519150823d8411611fe257611fd48183613c55565b38612dc1565b600191501438612d48565b634e487b7160e01b82526021600452602482fd5b50612f8036613eeb565b9091612f8a614269565b612f9261427d565b612f9b826144fe565b15610cac578251830190602093848184031261115057808501516001600160401b0391828211610c5a57019260a0848203126103f5576040519160a083018381108282111761111757604052868501518352612ff960408601614308565b928781019384526060860151956040820196875261301960808201614308565b936060830194855260a08201519084821161343f5761303e92908b0191018a0161437f565b6080820190815281511561342d5760ff607554169160038310156134195760018093146132db575b506077546001600160a01b03979088161515806132d0575b6132b05761308d606e546142f9565b9889606e5589885260808b528860408920968b88558160058901998160018060a01b03199516858c5416178b555116600489019084825416179055511660068701918254161790555182850155600884018260ff1982541617905543600785015585600385015551918251600a85015588600b8501930151805191821161329c576131188454613b9c565b601f8111613255575b508990601f83116001146131f55792829391839289946131ea575b50501b916000199060031b1c19161790555b60106079549101558280607e541691541690803b156103f557613189918391604051808095819463240ff7c560e11b83528a60048401614491565b039134905af18015611145576131d6575b50507ffcf3b1aa65a464cef2889608f99e8b8c0f680a4be6c2acb9d961c536a5a9294b604060685481519081528486820152a160405191168152f35b6131e08291613c0c565b610342578061319a565b01519250388061313c565b8488528a8820919083601f1981168a8e5b8883831061323d5750505010613224575b505050811b01905561314e565b015160001960f88460031b161c19169055388080613217565b8686015188559096019594850194879350018e613206565b8488528a8820601f840160051c8101918c8510613292575b601f0160051c019084905b828110613286575050613121565b60008155018490613278565b909150819061326d565b634e487b7160e01b87526041600452602487fd5b604460795460405190632c1f8ef160e21b82523460048301526024820152fd5b50607954341061307e565b85516001600160a01b0391906132f29083166144aa565b818651161561340757604051630ae6240f60e11b8152908b82600481305afa918215611fe957918991849383926133c8575b5060249051604051958693849263068bcd8d60e01b84526004840152165afa9182156133bd578892613399575b5060408187511692015116036133875761336b8751614a88565b6133755738613066565b604051630efd728560e21b8152600490fd5b60405163514e24c360e11b8152600490fd5b6133b69192503d808a833e6133ae8183613c55565b8101906143fa565b9038613351565b6040513d8a823e3d90fd5b92509250508b81813d8311613400575b6133e28183613c55565b810103126129a9575182811681036129a95782918991906024613324565b503d6133d8565b60405163165a825360e21b8152600490fd5b634e487b7160e01b87526021600452602487fd5b60405163273c8bc360e11b8152600490fd5b8780fd5b50346103425760203660031901126103425760406020916004358152608383522054604051908152f35b5034610342578060031936011261034257608060715460725460735460745491604051938452602084015260408301526060820152f35b50346103425780600319360112610342576103f2336145a8565b5034610342576020366003190112610342576020611a61600435614f65565b50346103425780600319360112610342576065546040516001600160a01b039091168152602090f35b503461034257806003193601126103425760c060018060a01b0380607754169060785416607954607a54607b5491607c5493604051958652602086015260408501526060840152608083015260a0820152f35b50346103425780600319360112610342576020604051629896808152f35b50346103425780600319360112610342576020606e54604051908152f35b5034610342578060031936011261034257607e546040516001600160a01b039091168152602090f35b5034610342576060366003190112610342576001600160401b036004358181116103f5576135f0903690600401613e10565b5060249081359081116103f55761360b903690600401613ed0565b6001600160a01b03919060443583811603610c5a57613628614269565b61363061427d565b8051156138ab57602081805181010312610c5a5760200151918215613899578284526080602052604084209160ff60755416600381101561388657600114613676578480f35b8383540361387057600183019283546069549081811161384d5750506008810191600160ff8454166136a781613d45565b03613837576136b586614f65565b8554906136c182614c16565b118061382e575b61381c5787856065541692606854906040518095819363068bcd8d60e01b835260048301525afa9081156133bd5760409289926137fc575b5061370d9060695461459b565b606955019161373d84808551169461372f6004860196838854168a54916149c2565b5116858554168754916149c2565b600460ff198254161790558583600581607e5416930154169160795490803b156103f557613783938360405180968195829463099ea56b60e41b84528d600485016149a1565b03925af18015611f77576137e9575b5054169054916137de604051937fa7932e9c92f31e1ed56b29d00bbe669a97484dc24de28dd9c8c0429df7f3584785806137cf848888869b6149a1565b0390a1604051938493846149a1565b0390a1388080808480f35b6137f590959195613c0c565b9338613792565b61370d919250613815903d808c833e6133ae8183613c55565b9190613700565b60405163199cf26160e31b8152600490fd5b508015156136c8565b6040516344980d8f60e01b815260048101879052fd5b604051632c31d85b60e11b81526004810188905293840152604483015250606490fd5b60405163c1d17bef60e01b815260048101859052fd5b50634e487b7160e01b8552602160045284fd5b60405163f881a10d60e01b8152600490fd5b604051630317df1360e61b8152600490fd5b503461034257366003190161014081126111505760c013610342576040516138e481613bd6565b6004356001600160a01b03811681036103f5578152613901613de3565b602082015260443560408201526064356060820152608435608082015260a43560a0820152608060c319360112611150576040516103f29161394282613bf1565b60c435825260e4356020830152610104356040830152610124356060830152613969614fab565b614e26565b503461034257602036600319011261034257613988613dcd565b60018060a01b03906139bb602083606554166068549060405180809581946329e40d4b60e01b8352339060048401614491565b03915afa908115612f05578491613a26575b5015613a14577fd6ceddf6d2a22f21c7c81675c518004eff43bc5c8a6fc32a0b748e69d58671cd91602091168060018060a01b0319607d541617607d55604051908152a180f35b60405163075fd2b160e01b8152600490fd5b613a3e915060203d8111610c9a57610c8c8183613c55565b386139cd565b50346103425760203660031901126103425760043563ffffffff60e01b81168091036111505760209063f1801e6160e01b8114908115613a8a575b506040519015158152f35b6301ffc9a760e01b14905082613a7f565b50346103425760203660031901126103425760043581526080602052604090208054906001810154906002810154600382015491600160a01b6001900392836004830154169380600584015416816006850154166007850154600886015460ff1691600a8701613b0a90613c78565b93600c88015499600d89015496600e8a01541697600f8a015499601001549a6040519e8f9e8f91825260208201526040015260608d015260808c015260a08b015260c08a015260e0890152613b5e81613d45565b6101008801526101e0806101208901528701613b7991613dad565b946101408701526101608601526101808501526101a08401526101c08301520390f35b90600182811c92168015613bcc575b6020831014613bb657565b634e487b7160e01b600052602260045260246000fd5b91607f1691613bab565b60c081019081106001600160401b0382111761111757604052565b608081019081106001600160401b0382111761111757604052565b6001600160401b03811161111757604052565b604081019081106001600160401b0382111761111757604052565b606081019081106001600160401b0382111761111757604052565b601f909101601f19168101906001600160401b0382119082101761111757604052565b9060405191613c8683613c1f565b8281548152600180920191604051928391600091805490613ca682613b9c565b80865291838116908115613d1c5750600114613cd3575b50505060209291613ccf910384613c55565b0152565b909493925060005260209081600020946000915b818310613d0457509394509192509082010181613ccf6020613cbd565b86548884018501529586019587945091830191613ce7565b60ff191660208781019190915292151560051b860183019450859350613ccf929150613cbd9050565b60071115613d4f57565b634e487b7160e01b600052602160045260246000fd5b60005b838110613d785750506000910152565b8181015183820152602001613d68565b90602091613da181518092818552858086019101613d65565b601f01601f1916010190565b9060406020613dca93805184520151918160208201520190613d88565b90565b600435906001600160a01b0382168203610c0d57565b602435906001600160a01b0382168203610c0d57565b6001600160401b0381116111175760051b60200190565b81601f82011215610c0d57803591613e2783613df9565b92613e356040519485613c55565b808452602092838086019260051b820101928311610c0d578301905b828210613e5f575050505090565b81356001600160a01b0381168103610c0d578152908301908301613e51565b6001600160401b03811161111757601f01601f191660200190565b929192613ea582613e7e565b91613eb36040519384613c55565b829481845281830111610c0d578281602093846000960137010152565b9080601f83011215610c0d57816020613dca93359101613e99565b6040600319820112610c0d57600435906001600160401b038211610c0d57613f1591600401613ed0565b906024356001600160a01b0381168103610c0d5790565b906004821015613d4f5752565b906003821015613d4f5752565b8054821015613f5e5760005260206000200190600090565b634e487b7160e01b600052603260045260246000fd5b9181601f84011215610c0d578235916001600160401b038311610c0d5760208381860195010111610c0d57565b6033546001600160a01b03163303613fb557565b606460405162461bcd60e51b815260206004820152602060248201527f4f776e61626c653a2063616c6c6572206973206e6f7420746865206f776e65726044820152fd5b603380546001600160a01b039283166001600160a01b031982168117909255909116600080516020615105833981519152600080a3565b1561403757565b60405162461bcd60e51b815260206004820152602c60248201526000805160206150a583398151915260448201526b19195b1959d85d1958d85b1b60a21b6064820152608490fd5b1561408657565b60405162461bcd60e51b815260206004820152602c60248201526000805160206150a583398151915260448201526b6163746976652070726f787960a01b6064820152608490fd5b803b15614103576000805160206150c583398151915280546001600160a01b0319166001600160a01b03909216919091179055565b60405162461bcd60e51b815260206004820152602d60248201527f455243313936373a206e657720696d706c656d656e746174696f6e206973206e60448201526c1bdd08184818dbdb9d1c9858dd609a1b6064820152608490fd5b919290156141c05750815115614172575090565b3b1561417b5790565b60405162461bcd60e51b815260206004820152601d60248201527f416464726573733a2063616c6c20746f206e6f6e2d636f6e74726163740000006044820152606490fd5b8251909150156141d35750805190602001fd5b60405162461bcd60e51b8152602060048201529081906141f7906024830190613d88565b0390fd5b60018060a01b031660018060a01b0319606554161760655560405161423e816142306020820194602086526040830190613d88565b03601f198101835282613c55565b519020606655565b9190820180921161425357565b634e487b7160e01b600052601160045260246000fd5b6065546001600160a01b03163303613a1457565b6068541561428757565b604051630f68fe6360e21b8152600490fd5b156142a057565b60405162461bcd60e51b815260206004820152602b60248201527f496e697469616c697a61626c653a20636f6e7472616374206973206e6f74206960448201526a6e697469616c697a696e6760a81b6064820152608490fd5b60001981146142535760010190565b51906001600160a01b0382168203610c0d57565b606080918051845260208101516020850152604081015160408501520151910152565b60a08091600180831b0380825116855260208201511660208501526040810151604085015260608101516060850152608081015160808501520151910152565b9190604083820312610c0d5760405161439781613c1f565b83518152602084015190938491906001600160401b038211610c0d57019082601f83011215610c0d578151916143cc83613e7e565b936143da6040519586613c55565b83855260208483010111610c0d57602092613ccf91848087019101613d65565b90602082820312610c0d5781516001600160401b0392838211610c0d570160c081830312610c0d576040519261442f84613bd6565b8151845260208201516001600160a01b0381168103610c0d57602085015261445960408301614308565b60408501526060820151908111610c0d5760a09261447891830161437f565b606084015260808101516080840152015160a082015290565b9081526001600160a01b03909116602082015260400190565b6001600160a01b0316156144ba57565b6040516303988b8160e61b8152600490fd5b90816020910312610c0d57518015158103610c0d5790565b6001600160a01b0391821681529116602082015260400190565b607f546001600160a01b0316801561456e576145349160209160405180809581946302154c3d60e51b83523090600484016144e4565b03915afa9081156145625760009161454a575090565b613dca915060203d8111610c9a57610c8c8183613c55565b6040513d6000823e3d90fd5b5050600190565b607d546001600160a01b0316330361458957565b6040516357848b5160e11b8152600490fd5b9190820391821161425357565b607d5460408051637817ee4f60e01b81526020949391926000926001600160a01b039290918316908781806145e13087600484016144e4565b0381855afa80156147bd57859061478e575b614600915060705461459b565b607055803b15610c5a5783855180926322bcf99960e01b825281838161462a3089600484016144e4565b03925af1801561478457614771575b501680825260828552828220948351808783829954938481520190865283862092865b8582821061475b5750505061467392500387613c55565b825b865181101561472b578061468c6146af9289614a45565b518086526080808552878720916146a281614a59565b6146b4575b5050506142f9565b614675565b6000805160206150e58339815191529260a0928860005260098201885260038b6000208b8154915561470660028501916146ef81845461459b565b8355606f6146fe82825461459b565b905585614da1565b54920154918b51938a8552898501528a8c8501526060840152820152a13880806146a7565b50929091507f1468da654b37bb3631011c1917d02e0db437d519918858d40b38b5e980ca033b93945051908152a1565b855484526001958601958c95509301920161465c565b61477d90939193613c0c565b9138614639565b85513d86823e3d90fd5b508781813d83116147b6575b6147a48183613c55565b81010312610c5e5761460090516145f3565b503d61479a565b86513d87823e3d90fd5b604091949392606082019560018060a01b0316825260208201520152565b90816020910312610c0d57516001600160a01b0381168103610c0d5790565b90816020910312610c0d575160ff81168103610c0d5790565b604d811161425357600a0a90565b8181029291811591840414171561425357565b8115614848570490565b634e487b7160e01b600052601260045260246000fd5b801561499b57614929816000908360801c8061498f575b508060401c80614982575b508060201c80614975575b508060101c80614968575b508060081c8061495b575b508060041c8061494e575b508060021c80614941575b50600191828092811c61493a575b1c1b6148d1818561483e565b01811c6148de818561483e565b01811c6148eb818561483e565b01811c6148f8818561483e565b01811c614905818561483e565b01811c614912818561483e565b01811c61491f818561483e565b01901c809261483e565b80821015614935575090565b905090565b01816148c5565b60029150910190386148b7565b60049150910190386148ac565b60089150910190386148a1565b6010915091019038614896565b602091509101903861488b565b6040915091019038614880565b91505060809038614875565b50600090565b9081526001600160a01b039091166020820152604081019190915260600190565b6001600160a01b03811673eeeeeeeeeeeeeeeeeeeeeeeeeeeeeeeeeeeeeeee03614a055750600080809381935af1156149f757565b63b12d13eb6000526004601cfd5b601092602092601452603452604460009384809363a9059cbb60601b82525af13d156001835114171615614a3857603452565b6390b8ec1890526004601cfd5b8051821015613f5e5760209160051b010190565b60005260806020526040600020805415159081614a74575090565b600501546001600160a01b03161515919050565b614a976071546069549061482b565b629896809182810292818404149015171561425357111590565b9190916000838201938412911290801582169115161761425357565b614ad78282614ab1565b9160008312614ae557505090565b9160649260405192631dde38a160e11b8452600484015260248301526044820152fd5b9091607354906298968093848360801b0490600160801b9182811015614bd2578583965b614b91575050614b3c908561482b565b938583029280840487149015171561425357810390811161425357614b609161482b565b90830392831161425357614b7d92614b779161483e565b90614246565b6001607f1b81019081106142535760801c90565b600191818316614bb15780614ba591614cea565b911c90815b9091614b2c565b809250614bbe9197614cea565b956000198101908111614253579081614baa565b60405162461bcd60e51b815260206004820152601c60248201527b0bec240e6d0deead8c840c4ca40d8cae6e640e8d0c2dc4064bc6264760231b6044820152606490fd5b6069548015614cd857614c2882614a88565b61337557607154604081901b92600160401b9291801590850484141715614253578060401b92818404149015171561425357614c6a614c7691614c919361483e565b6298968080940461459b565b614c888360725460801b04918061482b565b60401c9061483e565b8181029080820483149015171561425357607354820391821161425357614cc491614cbb9161483e565b6070549061482b565b60401c607454808211600014614935575090565b60405163ed4421ad60e01b8152600490fd5b90600160801b808311614d4b57811015614d0757614b7d9161482b565b60405162461bcd60e51b815260206004820152601c60248201527b0bec440e6d0deead8c840c4ca40d8cae6e640e8d0c2dc4064bc6264760231b6044820152606490fd5b60405162461bcd60e51b815260206004820152602860248201527f5f612073686f756c64206265206c657373207468616e206f7220657175616c206044820152670e8de4064bc6264760c31b6064820152608490fd5b90614dac9082614dd3565b9091821580614dcb575b614dc65760039160078201550155565b505050565b508115614db6565b4391600782015491838311614e1057838314614e04576003614df8614e01948661459b565b91015490614b08565b91565b50505050600090600090565b634e487b7160e01b600052600160045260246000fd5b60208101805160785492939291906001600160a01b0390811681841614801590614f55575b8015614f45575b8015614f35575b614eaf575b50505080614eac600080516020615145833981519152936101409351607155602083015160725560408301516073556060830151607455614ea2604051809461431c565b608083019061433f565ba1565b9092919360018060401b03606d5416614f23578051607780549184166001600160a01b03199283161790559351909116939092169290921760785560408101516079556060810151607a556080810151607b5560a0810151607c559080614eac600080516020615145833981519152614e5e565b60405163fcc12b5b60e01b8152600490fd5b506080850151607b541415614e59565b506060850151607a541415614e52565b5060408501516079541415614e4b565b80600052608060205260406000209080825403614f93575080614f8e6002600393015482614da1565b015490565b6024906040519063c1d17bef60e01b82526004820152fd5b607d54604051633629edcd60e11b81526001600160a01b03916020908290600490829086165afa90811561456257600091614ffd575b50163303614feb57565b604051637430763f60e11b8152600490fd5b615015915060203d8111611fe257611fd48183613c55565b38614fe1565b908060209392818452848401376000828201840152601f01601f1916010190565b9081526001600160a01b0391821660208201529116604082015260608101919091526080019056fe4910fdfa16fed3260ed0e7147f7cc6da11a60208b5b9406d12a635614ffd914370b752f3fadb6ac131c0ece847fcbb6994ec56ed6411595710fd9b29c6ac6cc146756e6374696f6e206d7573742062652063616c6c6564207468726f75676820360894a13ba1a3210667c828492db98dca3e2076cc3735a920a3ca505d382bbc0227f642ddcf2042ceaeafadb9d540f432072c00cd4862881667168dcc14710f8be0079c531659141344cd1fd0a4f28419497f9722a3daafe3b4186f6b6457e0bc7cd75a20ee27fd9adebab32041f755214dbc6bffa90cc0225b39da2e5c2d3bb47aac82f31da18600e28bcf208952b653a703f7eb216def6198ee31280b955d45524331393637557067726164653a20756e737570706f727465642070726f78416464726573733a206c6f772d6c6576656c2064656c65676174652063616c6c45524331393637557067726164653a206e657720696d706c656d656e74617469a2646970667358221220c743cab408bcdfa9ab9f8e2de241c4db8299b215b46e05c68d81d717cb6df42b64736f6c63430008130033","linkReferences":{}},"methodIdentifiers":{"D()":"0f529ba2","DISPUTE_COOLDOWN_SEC()":"f5be3f7c","MAX_STAKED_PROPOSALS()":"406244d8","NATIVE()":"a0cf0aea","RULING_OPTIONS()":"626c47e8","activatePoints()":"814516ad","allocate(bytes,address)":"ef2920fc","arbitrableConfig()":"1073e996","calculateConviction(uint256,uint256,uint256)":"346db8cb","calculateThreshold(uint256)":"59a5db8b","canExecuteProposal(uint256)":"824ea8ed","cloneNonce()":"33960459","collateralVault()":"0bece79c","cvParams()":"2506b870","deactivatePoints()":"1ddf1e23","deactivatePoints(address)":"6453d9c4","decreasePower(address,uint256)":"2ed04b2b","disputeCount()":"a28889e1","disputeIdToProposalId(uint256)":"255ffb38","disputeProposal(uint256,string,bytes)":"b41596ec","distribute(address[],bytes,address)":"0a6f0ee9","getAllo()":"15cc481e","getCollateralAmounts()":"c46dac0e","getMaxAmount()":"0ba95909","getMaxConviction(uint256)":"950559d7","getMetadata(uint256)":"a574cea4","getPayouts(address[],bytes[])":"b2b878d0","getPointSystem()":"c3292171","getPoolAmount()":"4ab4ba42","getPoolId()":"38fff2d0","getProposal(uint256)":"c7f758a8","getProposalStakedAmount(uint256)":"dc96ff2d","getProposalVoterStake(uint256,address)":"e0dd2c38","getRecipientStatus(address)":"eb11af93","getStrategyId()":"42fda9c7","getTotalVoterStakePct(address)":"bcc5b93b","increasePoolAmount(uint256)":"f5b0dfb7","increasePower(address,uint256)":"782aadff","init(address,address)":"f09a4016","init(address,string)":"f321b305","initialize(uint256,bytes)":"edd146cc","isPoolActive()":"df868ed3","isValidAllocator(address)":"4d31d087","owner()":"8da5cb5b","pointConfig()":"a47ff7e5","pointSystem()":"2dbd6fdd","proposalCounter()":"0c0512e9","proposalType()":"351d9f96","proposals(uint256)":"013cf08b","proxiableUUID()":"52d1902d","registerRecipient(bytes,address)":"2bbe0cae","registryCommunity()":"6003e414","renounceOwnership()":"715018a6","rule(uint256,uint256)":"311a6c56","setPoolActive(bool)":"b5f620ce","setPoolParams((address,address,uint256,uint256,uint256,uint256),(uint256,uint256,uint256,uint256))":"062f9ece","setRegistryCommunity(address)":"058aca44","setSybilScorer(address)":"ac1ed7b9","supportProposal((uint256,int256)[])":"e33add93","supportsInterface(bytes4)":"01ffc9a7","sybilScorer()":"b6c61f31","totalEffectiveActivePoints()":"d1e36232","totalPointsActivated()":"aba9ffee","totalStaked()":"817b1cd2","totalVoterStakePct(address)":"5db64b99","transferOwnership(address)":"f2fde38b","updateProposalConviction(uint256)":"1aa91a9e","upgradeTo(address)":"3659cfe6","upgradeToAndCall(address,bytes)":"4f1ef286","voterStakedProposals(address,uint256)":"868c57b8"},"storageLayout":{"storage":[{"astId":53071,"contract":"pkg/contracts/src/CVStrategyV0_0.sol:CVStrategyV0_0","label":"_initialized","offset":0,"slot":"0","type":"t_uint8"},{"astId":53074,"contract":"pkg/contracts/src/CVStrategyV0_0.sol:CVStrategyV0_0","label":"_initializing","offset":1,"slot":"0","type":"t_bool"},{"astId":53776,"contract":"pkg/contracts/src/CVStrategyV0_0.sol:CVStrategyV0_0","label":"__gap","offset":0,"slot":"1","type":"t_array(t_uint256)50_storage"},{"astId":52863,"contract":"pkg/contracts/src/CVStrategyV0_0.sol:CVStrategyV0_0","label":"_owner","offset":0,"slot":"51","type":"t_address"},{"astId":52983,"contract":"pkg/contracts/src/CVStrategyV0_0.sol:CVStrategyV0_0","label":"__gap","offset":0,"slot":"52","type":"t_array(t_uint256)49_storage"},{"astId":71561,"contract":"pkg/contracts/src/CVStrategyV0_0.sol:CVStrategyV0_0","label":"allo","offset":0,"slot":"101","type":"t_contract(IAllo)2610"},{"astId":71563,"contract":"pkg/contracts/src/CVStrategyV0_0.sol:CVStrategyV0_0","label":"strategyId","offset":0,"slot":"102","type":"t_bytes32"},{"astId":71565,"contract":"pkg/contracts/src/CVStrategyV0_0.sol:CVStrategyV0_0","label":"poolActive","offset":0,"slot":"103","type":"t_bool"},{"astId":71567,"contract":"pkg/contracts/src/CVStrategyV0_0.sol:CVStrategyV0_0","label":"poolId","offset":0,"slot":"104","type":"t_uint256"},{"astId":71569,"contract":"pkg/contracts/src/CVStrategyV0_0.sol:CVStrategyV0_0","label":"poolAmount","offset":0,"slot":"105","type":"t_uint256"},{"astId":72565,"contract":"pkg/contracts/src/CVStrategyV0_0.sol:CVStrategyV0_0","label":"collateralVaultTemplate","offset":0,"slot":"106","type":"t_address"},{"astId":72567,"contract":"pkg/contracts/src/CVStrategyV0_0.sol:CVStrategyV0_0","label":"surpressStateMutabilityWarning","offset":0,"slot":"107","type":"t_uint256"},{"astId":72569,"contract":"pkg/contracts/src/CVStrategyV0_0.sol:CVStrategyV0_0","label":"cloneNonce","offset":0,"slot":"108","type":"t_uint256"},{"astId":72572,"contract":"pkg/contracts/src/CVStrategyV0_0.sol:CVStrategyV0_0","label":"disputeCount","offset":0,"slot":"109","type":"t_uint64"},{"astId":72575,"contract":"pkg/contracts/src/CVStrategyV0_0.sol:CVStrategyV0_0","label":"proposalCounter","offset":0,"slot":"110","type":"t_uint256"},{"astId":72577,"contract":"pkg/contracts/src/CVStrategyV0_0.sol:CVStrategyV0_0","label":"totalStaked","offset":0,"slot":"111","type":"t_uint256"},{"astId":72579,"contract":"pkg/contracts/src/CVStrategyV0_0.sol:CVStrategyV0_0","label":"totalPointsActivated","offset":0,"slot":"112","type":"t_uint256"},{"astId":72582,"contract":"pkg/contracts/src/CVStrategyV0_0.sol:CVStrategyV0_0","label":"cvParams","offset":0,"slot":"113","type":"t_struct(CVParams)72311_storage"},{"astId":72585,"contract":"pkg/contracts/src/CVStrategyV0_0.sol:CVStrategyV0_0","label":"proposalType","offset":0,"slot":"117","type":"t_enum(ProposalType)72218"},{"astId":72588,"contract":"pkg/contracts/src/CVStrategyV0_0.sol:CVStrategyV0_0","label":"pointSystem","offset":1,"slot":"117","type":"t_enum(PointSystem)72223"},{"astId":72591,"contract":"pkg/contracts/src/CVStrategyV0_0.sol:CVStrategyV0_0","label":"pointConfig","offset":0,"slot":"118","type":"t_struct(PointSystemConfig)72288_storage"},{"astId":72594,"contract":"pkg/contracts/src/CVStrategyV0_0.sol:CVStrategyV0_0","label":"arbitrableConfig","offset":0,"slot":"119","type":"t_struct(ArbitrableConfig)72302_storage"},{"astId":72597,"contract":"pkg/contracts/src/CVStrategyV0_0.sol:CVStrategyV0_0","label":"registryCommunity","offset":0,"slot":"125","type":"t_contract(RegistryCommunityV0_0)78369"},{"astId":72600,"contract":"pkg/contracts/src/CVStrategyV0_0.sol:CVStrategyV0_0","label":"collateralVault","offset":0,"slot":"126","type":"t_contract(ICollateralVault)79283"},{"astId":72603,"contract":"pkg/contracts/src/CVStrategyV0_0.sol:CVStrategyV0_0","label":"sybilScorer","offset":0,"slot":"127","type":"t_contract(ISybilScorer)76119"},{"astId":72608,"contract":"pkg/contracts/src/CVStrategyV0_0.sol:CVStrategyV0_0","label":"proposals","offset":0,"slot":"128","type":"t_mapping(t_uint256,t_struct(Proposal)72280_storage)"},{"astId":72612,"contract":"pkg/contracts/src/CVStrategyV0_0.sol:CVStrategyV0_0","label":"totalVoterStakePct","offset":0,"slot":"129","type":"t_mapping(t_address,t_uint256)"},{"astId":72617,"contract":"pkg/contracts/src/CVStrategyV0_0.sol:CVStrategyV0_0","label":"voterStakedProposals","offset":0,"slot":"130","type":"t_mapping(t_address,t_array(t_uint256)dyn_storage)"},{"astId":72621,"contract":"pkg/contracts/src/CVStrategyV0_0.sol:CVStrategyV0_0","label":"disputeIdToProposalId","offset":0,"slot":"131","type":"t_mapping(t_uint256,t_uint256)"},{"astId":75739,"contract":"pkg/contracts/src/CVStrategyV0_0.sol:CVStrategyV0_0","label":"__gap","offset":0,"slot":"132","type":"t_array(t_uint256)50_storage"}],"types":{"t_address":{"encoding":"inplace","label":"address","numberOfBytes":"20"},"t_array(t_uint256)49_storage":{"encoding":"inplace","label":"uint256[49]","numberOfBytes":"1568","base":"t_uint256"},"t_array(t_uint256)50_storage":{"encoding":"inplace","label":"uint256[50]","numberOfBytes":"1600","base":"t_uint256"},"t_array(t_uint256)dyn_storage":{"encoding":"dynamic_array","label":"uint256[]","numberOfBytes":"32","base":"t_uint256"},"t_bool":{"encoding":"inplace","label":"bool","numberOfBytes":"1"},"t_bytes32":{"encoding":"inplace","label":"bytes32","numberOfBytes":"32"},"t_contract(IAllo)2610":{"encoding":"inplace","label":"contract IAllo","numberOfBytes":"20"},"t_contract(IArbitrator)79250":{"encoding":"inplace","label":"contract IArbitrator","numberOfBytes":"20"},"t_contract(ICollateralVault)79283":{"encoding":"inplace","label":"contract ICollateralVault","numberOfBytes":"20"},"t_contract(ISybilScorer)76119":{"encoding":"inplace","label":"contract ISybilScorer","numberOfBytes":"20"},"t_contract(RegistryCommunityV0_0)78369":{"encoding":"inplace","label":"contract RegistryCommunityV0_0","numberOfBytes":"20"},"t_enum(PointSystem)72223":{"encoding":"inplace","label":"enum StrategyStruct.PointSystem","numberOfBytes":"1"},"t_enum(ProposalStatus)72243":{"encoding":"inplace","label":"enum StrategyStruct.ProposalStatus","numberOfBytes":"1"},"t_enum(ProposalType)72218":{"encoding":"inplace","label":"enum StrategyStruct.ProposalType","numberOfBytes":"1"},"t_mapping(t_address,t_array(t_uint256)dyn_storage)":{"encoding":"mapping","key":"t_address","label":"mapping(address => uint256[])","numberOfBytes":"32","value":"t_array(t_uint256)dyn_storage"},"t_mapping(t_address,t_uint256)":{"encoding":"mapping","key":"t_address","label":"mapping(address => uint256)","numberOfBytes":"32","value":"t_uint256"},"t_mapping(t_uint256,t_struct(Proposal)72280_storage)":{"encoding":"mapping","key":"t_uint256","label":"mapping(uint256 => struct StrategyStruct.Proposal)","numberOfBytes":"32","value":"t_struct(Proposal)72280_storage"},"t_mapping(t_uint256,t_uint256)":{"encoding":"mapping","key":"t_uint256","label":"mapping(uint256 => uint256)","numberOfBytes":"32","value":"t_uint256"},"t_string_storage":{"encoding":"bytes","label":"string","numberOfBytes":"32"},"t_struct(ArbitrableConfig)72302_storage":{"encoding":"inplace","label":"struct StrategyStruct.ArbitrableConfig","numberOfBytes":"192","members":[{"astId":72291,"contract":"pkg/contracts/src/CVStrategyV0_0.sol:CVStrategyV0_0","label":"arbitrator","offset":0,"slot":"0","type":"t_contract(IArbitrator)79250"},{"astId":72293,"contract":"pkg/contracts/src/CVStrategyV0_0.sol:CVStrategyV0_0","label":"tribunalSafe","offset":0,"slot":"1","type":"t_address"},{"astId":72295,"contract":"pkg/contracts/src/CVStrategyV0_0.sol:CVStrategyV0_0","label":"submitterCollateralAmount","offset":0,"slot":"2","type":"t_uint256"},{"astId":72297,"contract":"pkg/contracts/src/CVStrategyV0_0.sol:CVStrategyV0_0","label":"challengerCollateralAmount","offset":0,"slot":"3","type":"t_uint256"},{"astId":72299,"contract":"pkg/contracts/src/CVStrategyV0_0.sol:CVStrategyV0_0","label":"defaultRuling","offset":0,"slot":"4","type":"t_uint256"},{"astId":72301,"contract":"pkg/contracts/src/CVStrategyV0_0.sol:CVStrategyV0_0","label":"defaultRulingTimeout","offset":0,"slot":"5","type":"t_uint256"}]},"t_struct(CVParams)72311_storage":{"encoding":"inplace","label":"struct StrategyStruct.CVParams","numberOfBytes":"128","members":[{"astId":72304,"contract":"pkg/contracts/src/CVStrategyV0_0.sol:CVStrategyV0_0","label":"maxRatio","offset":0,"slot":"0","type":"t_uint256"},{"astId":72306,"contract":"pkg/contracts/src/CVStrategyV0_0.sol:CVStrategyV0_0","label":"weight","offset":0,"slot":"1","type":"t_uint256"},{"astId":72308,"contract":"pkg/contracts/src/CVStrategyV0_0.sol:CVStrategyV0_0","label":"decay","offset":0,"slot":"2","type":"t_uint256"},{"astId":72310,"contract":"pkg/contracts/src/CVStrategyV0_0.sol:CVStrategyV0_0","label":"minThresholdPoints","offset":0,"slot":"3","type":"t_uint256"}]},"t_struct(Metadata)3098_storage":{"encoding":"inplace","label":"struct Metadata","numberOfBytes":"64","members":[{"astId":3094,"contract":"pkg/contracts/src/CVStrategyV0_0.sol:CVStrategyV0_0","label":"protocol","offset":0,"slot":"0","type":"t_uint256"},{"astId":3097,"contract":"pkg/contracts/src/CVStrategyV0_0.sol:CVStrategyV0_0","label":"pointer","offset":0,"slot":"1","type":"t_string_storage"}]},"t_struct(PointSystemConfig)72288_storage":{"encoding":"inplace","label":"struct StrategyStruct.PointSystemConfig","numberOfBytes":"32","members":[{"astId":72287,"contract":"pkg/contracts/src/CVStrategyV0_0.sol:CVStrategyV0_0","label":"maxAmount","offset":0,"slot":"0","type":"t_uint256"}]},"t_struct(Proposal)72280_storage":{"encoding":"inplace","label":"struct StrategyStruct.Proposal","numberOfBytes":"544","members":[{"astId":72245,"contract":"pkg/contracts/src/CVStrategyV0_0.sol:CVStrategyV0_0","label":"proposalId","offset":0,"slot":"0","type":"t_uint256"},{"astId":72247,"contract":"pkg/contracts/src/CVStrategyV0_0.sol:CVStrategyV0_0","label":"requestedAmount","offset":0,"slot":"1","type":"t_uint256"},{"astId":72249,"contract":"pkg/contracts/src/CVStrategyV0_0.sol:CVStrategyV0_0","label":"stakedAmount","offset":0,"slot":"2","type":"t_uint256"},{"astId":72251,"contract":"pkg/contracts/src/CVStrategyV0_0.sol:CVStrategyV0_0","label":"convictionLast","offset":0,"slot":"3","type":"t_uint256"},{"astId":72253,"contract":"pkg/contracts/src/CVStrategyV0_0.sol:CVStrategyV0_0","label":"beneficiary","offset":0,"slot":"4","type":"t_address"},{"astId":72255,"contract":"pkg/contracts/src/CVStrategyV0_0.sol:CVStrategyV0_0","label":"submitter","offset":0,"slot":"5","type":"t_address"},{"astId":72257,"contract":"pkg/contracts/src/CVStrategyV0_0.sol:CVStrategyV0_0","label":"requestedToken","offset":0,"slot":"6","type":"t_address"},{"astId":72259,"contract":"pkg/contracts/src/CVStrategyV0_0.sol:CVStrategyV0_0","label":"blockLast","offset":0,"slot":"7","type":"t_uint256"},{"astId":72262,"contract":"pkg/contracts/src/CVStrategyV0_0.sol:CVStrategyV0_0","label":"proposalStatus","offset":0,"slot":"8","type":"t_enum(ProposalStatus)72243"},{"astId":72266,"contract":"pkg/contracts/src/CVStrategyV0_0.sol:CVStrategyV0_0","label":"voterStakedPoints","offset":0,"slot":"9","type":"t_mapping(t_address,t_uint256)"},{"astId":72269,"contract":"pkg/contracts/src/CVStrategyV0_0.sol:CVStrategyV0_0","label":"metadata","offset":0,"slot":"10","type":"t_struct(Metadata)3098_storage"},{"astId":72271,"contract":"pkg/contracts/src/CVStrategyV0_0.sol:CVStrategyV0_0","label":"disputeId","offset":0,"slot":"12","type":"t_uint256"},{"astId":72273,"contract":"pkg/contracts/src/CVStrategyV0_0.sol:CVStrategyV0_0","label":"disputeTimestamp","offset":0,"slot":"13","type":"t_uint256"},{"astId":72275,"contract":"pkg/contracts/src/CVStrategyV0_0.sol:CVStrategyV0_0","label":"challenger","offset":0,"slot":"14","type":"t_address"},{"astId":72277,"contract":"pkg/contracts/src/CVStrategyV0_0.sol:CVStrategyV0_0","label":"lastDisputeCompletion","offset":0,"slot":"15","type":"t_uint256"},{"astId":72279,"contract":"pkg/contracts/src/CVStrategyV0_0.sol:CVStrategyV0_0","label":"creationCollateralAmount","offset":0,"slot":"16","type":"t_uint256"}]},"t_uint256":{"encoding":"inplace","label":"uint256","numberOfBytes":"32"},"t_uint64":{"encoding":"inplace","label":"uint64","numberOfBytes":"8"},"t_uint8":{"encoding":"inplace","label":"uint8","numberOfBytes":"1"}}},"id":110}