{"abi":[{"type":"fallback","stateMutability":"payable"},{"type":"receive","stateMutability":"payable"},{"type":"function","name":"D","inputs":[],"outputs":[{"name":"","type":"uint256","internalType":"uint256"}],"stateMutability":"view"},{"type":"function","name":"DISPUTE_COOLDOWN_SEC","inputs":[],"outputs":[{"name":"","type":"uint256","internalType":"uint256"}],"stateMutability":"view"},{"type":"function","name":"MAX_STAKED_PROPOSALS","inputs":[],"outputs":[{"name":"","type":"uint256","internalType":"uint256"}],"stateMutability":"view"},{"type":"function","name":"NATIVE","inputs":[],"outputs":[{"name":"","type":"address","internalType":"address"}],"stateMutability":"view"},{"type":"function","name":"RULING_OPTIONS","inputs":[],"outputs":[{"name":"","type":"uint256","internalType":"uint256"}],"stateMutability":"view"},{"type":"function","name":"activatePoints","inputs":[],"outputs":[],"stateMutability":"nonpayable"},{"type":"function","name":"allocate","inputs":[{"name":"_data","type":"bytes","internalType":"bytes"},{"name":"_sender","type":"address","internalType":"address"}],"outputs":[],"stateMutability":"payable"},{"type":"function","name":"arbitrableConfig","inputs":[],"outputs":[{"name":"arbitrator","type":"address","internalType":"contract IArbitrator"},{"name":"tribunalSafe","type":"address","internalType":"address"},{"name":"submitterCollateralAmount","type":"uint256","internalType":"uint256"},{"name":"challengerCollateralAmount","type":"uint256","internalType":"uint256"},{"name":"defaultRuling","type":"uint256","internalType":"uint256"},{"name":"defaultRulingTimeout","type":"uint256","internalType":"uint256"}],"stateMutability":"view"},{"type":"function","name":"calculateConviction","inputs":[{"name":"_timePassed","type":"uint256","internalType":"uint256"},{"name":"_lastConv","type":"uint256","internalType":"uint256"},{"name":"_oldAmount","type":"uint256","internalType":"uint256"}],"outputs":[{"name":"","type":"uint256","internalType":"uint256"}],"stateMutability":"view"},{"type":"function","name":"calculateThreshold","inputs":[{"name":"_requestedAmount","type":"uint256","internalType":"uint256"}],"outputs":[{"name":"_threshold","type":"uint256","internalType":"uint256"}],"stateMutability":"view"},{"type":"function","name":"canExecuteProposal","inputs":[{"name":"proposalId","type":"uint256","internalType":"uint256"}],"outputs":[{"name":"canBeExecuted","type":"bool","internalType":"bool"}],"stateMutability":"view"},{"type":"function","name":"cloneNonce","inputs":[],"outputs":[{"name":"","type":"uint256","internalType":"uint256"}],"stateMutability":"view"},{"type":"function","name":"collateralVault","inputs":[],"outputs":[{"name":"","type":"address","internalType":"contract ICollateralVault"}],"stateMutability":"view"},{"type":"function","name":"cvParams","inputs":[],"outputs":[{"name":"maxRatio","type":"uint256","internalType":"uint256"},{"name":"weight","type":"uint256","internalType":"uint256"},{"name":"decay","type":"uint256","internalType":"uint256"},{"name":"minThresholdPoints","type":"uint256","internalType":"uint256"}],"stateMutability":"view"},{"type":"function","name":"deactivatePoints","inputs":[],"outputs":[],"stateMutability":"nonpayable"},{"type":"function","name":"deactivatePoints","inputs":[{"name":"_member","type":"address","internalType":"address"}],"outputs":[],"stateMutability":"nonpayable"},{"type":"function","name":"decreasePower","inputs":[{"name":"_member","type":"address","internalType":"address"},{"name":"_amountToUnstake","type":"uint256","internalType":"uint256"}],"outputs":[{"name":"","type":"uint256","internalType":"uint256"}],"stateMutability":"nonpayable"},{"type":"function","name":"disputeCount","inputs":[],"outputs":[{"name":"","type":"uint64","internalType":"uint64"}],"stateMutability":"view"},{"type":"function","name":"disputeIdToProposalId","inputs":[{"name":"","type":"uint256","internalType":"uint256"}],"outputs":[{"name":"","type":"uint256","internalType":"uint256"}],"stateMutability":"view"},{"type":"function","name":"disputeProposal","inputs":[{"name":"proposalId","type":"uint256","internalType":"uint256"},{"name":"context","type":"string","internalType":"string"},{"name":"_extraData","type":"bytes","internalType":"bytes"}],"outputs":[],"stateMutability":"payable"},{"type":"function","name":"distribute","inputs":[{"name":"_recipientIds","type":"address[]","internalType":"address[]"},{"name":"_data","type":"bytes","internalType":"bytes"},{"name":"_sender","type":"address","internalType":"address"}],"outputs":[],"stateMutability":"nonpayable"},{"type":"function","name":"getAllo","inputs":[],"outputs":[{"name":"","type":"address","internalType":"contract IAllo"}],"stateMutability":"view"},{"type":"function","name":"getCollateralAmounts","inputs":[],"outputs":[{"name":"","type":"uint256","internalType":"uint256"},{"name":"","type":"uint256","internalType":"uint256"}],"stateMutability":"view"},{"type":"function","name":"getMaxAmount","inputs":[],"outputs":[{"name":"","type":"uint256","internalType":"uint256"}],"stateMutability":"view"},{"type":"function","name":"getMaxConviction","inputs":[{"name":"amount","type":"uint256","internalType":"uint256"}],"outputs":[{"name":"","type":"uint256","internalType":"uint256"}],"stateMutability":"view"},{"type":"function","name":"getMetadata","inputs":[{"name":"_proposalId","type":"uint256","internalType":"uint256"}],"outputs":[{"name":"","type":"tuple","internalType":"struct Metadata","components":[{"name":"protocol","type":"uint256","internalType":"uint256"},{"name":"pointer","type":"string","internalType":"string"}]}],"stateMutability":"view"},{"type":"function","name":"getPayouts","inputs":[{"name":"","type":"address[]","internalType":"address[]"},{"name":"","type":"bytes[]","internalType":"bytes[]"}],"outputs":[{"name":"","type":"tuple[]","internalType":"struct IStrategy.PayoutSummary[]","components":[{"name":"recipientAddress","type":"address","internalType":"address"},{"name":"amount","type":"uint256","internalType":"uint256"}]}],"stateMutability":"pure"},{"type":"function","name":"getPointSystem","inputs":[],"outputs":[{"name":"","type":"uint8","internalType":"enum StrategyStruct.PointSystem"}],"stateMutability":"view"},{"type":"function","name":"getPoolAmount","inputs":[],"outputs":[{"name":"","type":"uint256","internalType":"uint256"}],"stateMutability":"view"},{"type":"function","name":"getPoolId","inputs":[],"outputs":[{"name":"","type":"uint256","internalType":"uint256"}],"stateMutability":"view"},{"type":"function","name":"getProposal","inputs":[{"name":"_proposalId","type":"uint256","internalType":"uint256"}],"outputs":[{"name":"submitter","type":"address","internalType":"address"},{"name":"beneficiary","type":"address","internalType":"address"},{"name":"requestedToken","type":"address","internalType":"address"},{"name":"requestedAmount","type":"uint256","internalType":"uint256"},{"name":"stakedAmount","type":"uint256","internalType":"uint256"},{"name":"proposalStatus","type":"uint8","internalType":"enum StrategyStruct.ProposalStatus"},{"name":"blockLast","type":"uint256","internalType":"uint256"},{"name":"convictionLast","type":"uint256","internalType":"uint256"},{"name":"threshold","type":"uint256","internalType":"uint256"},{"name":"voterStakedPoints","type":"uint256","internalType":"uint256"}],"stateMutability":"view"},{"type":"function","name":"getProposalStakedAmount","inputs":[{"name":"_proposalId","type":"uint256","internalType":"uint256"}],"outputs":[{"name":"","type":"uint256","internalType":"uint256"}],"stateMutability":"view"},{"type":"function","name":"getProposalVoterStake","inputs":[{"name":"_proposalId","type":"uint256","internalType":"uint256"},{"name":"_voter","type":"address","internalType":"address"}],"outputs":[{"name":"","type":"uint256","internalType":"uint256"}],"stateMutability":"view"},{"type":"function","name":"getRecipientStatus","inputs":[{"name":"_recipientId","type":"address","internalType":"address"}],"outputs":[{"name":"","type":"uint8","internalType":"enum IStrategy.Status"}],"stateMutability":"view"},{"type":"function","name":"getStrategyId","inputs":[],"outputs":[{"name":"","type":"bytes32","internalType":"bytes32"}],"stateMutability":"view"},{"type":"function","name":"getTotalVoterStakePct","inputs":[{"name":"_voter","type":"address","internalType":"address"}],"outputs":[{"name":"","type":"uint256","internalType":"uint256"}],"stateMutability":"view"},{"type":"function","name":"increasePoolAmount","inputs":[{"name":"_amount","type":"uint256","internalType":"uint256"}],"outputs":[],"stateMutability":"nonpayable"},{"type":"function","name":"increasePower","inputs":[{"name":"_member","type":"address","internalType":"address"},{"name":"_amountToStake","type":"uint256","internalType":"uint256"}],"outputs":[{"name":"","type":"uint256","internalType":"uint256"}],"stateMutability":"nonpayable"},{"type":"function","name":"init","inputs":[{"name":"_allo","type":"address","internalType":"address"}],"outputs":[],"stateMutability":"nonpayable"},{"type":"function","name":"init","inputs":[{"name":"_allo","type":"address","internalType":"address"},{"name":"_name","type":"string","internalType":"string"}],"outputs":[],"stateMutability":"nonpayable"},{"type":"function","name":"initialize","inputs":[{"name":"_poolId","type":"uint256","internalType":"uint256"},{"name":"_data","type":"bytes","internalType":"bytes"}],"outputs":[],"stateMutability":"nonpayable"},{"type":"function","name":"isPoolActive","inputs":[],"outputs":[{"name":"","type":"bool","internalType":"bool"}],"stateMutability":"view"},{"type":"function","name":"isValidAllocator","inputs":[{"name":"_allocator","type":"address","internalType":"address"}],"outputs":[{"name":"","type":"bool","internalType":"bool"}],"stateMutability":"view"},{"type":"function","name":"owner","inputs":[],"outputs":[{"name":"","type":"address","internalType":"address"}],"stateMutability":"view"},{"type":"function","name":"pointConfig","inputs":[],"outputs":[{"name":"maxAmount","type":"uint256","internalType":"uint256"}],"stateMutability":"view"},{"type":"function","name":"pointSystem","inputs":[],"outputs":[{"name":"","type":"uint8","internalType":"enum StrategyStruct.PointSystem"}],"stateMutability":"view"},{"type":"function","name":"proposalCounter","inputs":[],"outputs":[{"name":"","type":"uint256","internalType":"uint256"}],"stateMutability":"view"},{"type":"function","name":"proposalType","inputs":[],"outputs":[{"name":"","type":"uint8","internalType":"enum StrategyStruct.ProposalType"}],"stateMutability":"view"},{"type":"function","name":"proposals","inputs":[{"name":"","type":"uint256","internalType":"uint256"}],"outputs":[{"name":"proposalId","type":"uint256","internalType":"uint256"},{"name":"requestedAmount","type":"uint256","internalType":"uint256"},{"name":"stakedAmount","type":"uint256","internalType":"uint256"},{"name":"convictionLast","type":"uint256","internalType":"uint256"},{"name":"beneficiary","type":"address","internalType":"address"},{"name":"submitter","type":"address","internalType":"address"},{"name":"requestedToken","type":"address","internalType":"address"},{"name":"blockLast","type":"uint256","internalType":"uint256"},{"name":"proposalStatus","type":"uint8","internalType":"enum StrategyStruct.ProposalStatus"},{"name":"metadata","type":"tuple","internalType":"struct Metadata","components":[{"name":"protocol","type":"uint256","internalType":"uint256"},{"name":"pointer","type":"string","internalType":"string"}]},{"name":"disputeId","type":"uint256","internalType":"uint256"},{"name":"disputeTimestamp","type":"uint256","internalType":"uint256"},{"name":"challenger","type":"address","internalType":"address"},{"name":"lastDisputeCompletion","type":"uint256","internalType":"uint256"}],"stateMutability":"view"},{"type":"function","name":"proxiableUUID","inputs":[],"outputs":[{"name":"","type":"bytes32","internalType":"bytes32"}],"stateMutability":"view"},{"type":"function","name":"registerRecipient","inputs":[{"name":"_data","type":"bytes","internalType":"bytes"},{"name":"_sender","type":"address","internalType":"address"}],"outputs":[{"name":"recipientId","type":"address","internalType":"address"}],"stateMutability":"payable"},{"type":"function","name":"registryCommunity","inputs":[],"outputs":[{"name":"","type":"address","internalType":"contract RegistryCommunityV0_0"}],"stateMutability":"view"},{"type":"function","name":"renounceOwnership","inputs":[],"outputs":[],"stateMutability":"nonpayable"},{"type":"function","name":"rule","inputs":[{"name":"_disputeID","type":"uint256","internalType":"uint256"},{"name":"_ruling","type":"uint256","internalType":"uint256"}],"outputs":[],"stateMutability":"nonpayable"},{"type":"function","name":"setPoolActive","inputs":[{"name":"_active","type":"bool","internalType":"bool"}],"outputs":[],"stateMutability":"nonpayable"},{"type":"function","name":"setPoolParams","inputs":[{"name":"_arbitrableConfig","type":"tuple","internalType":"struct StrategyStruct.ArbitrableConfig","components":[{"name":"arbitrator","type":"address","internalType":"contract IArbitrator"},{"name":"tribunalSafe","type":"address","internalType":"address"},{"name":"submitterCollateralAmount","type":"uint256","internalType":"uint256"},{"name":"challengerCollateralAmount","type":"uint256","internalType":"uint256"},{"name":"defaultRuling","type":"uint256","internalType":"uint256"},{"name":"defaultRulingTimeout","type":"uint256","internalType":"uint256"}]},{"name":"_cvParams","type":"tuple","internalType":"struct StrategyStruct.CVParams","components":[{"name":"maxRatio","type":"uint256","internalType":"uint256"},{"name":"weight","type":"uint256","internalType":"uint256"},{"name":"decay","type":"uint256","internalType":"uint256"},{"name":"minThresholdPoints","type":"uint256","internalType":"uint256"}]}],"outputs":[],"stateMutability":"nonpayable"},{"type":"function","name":"setRegistryCommunity","inputs":[{"name":"_registryCommunity","type":"address","internalType":"address"}],"outputs":[],"stateMutability":"nonpayable"},{"type":"function","name":"setSybilScorer","inputs":[{"name":"_sybilScorer","type":"address","internalType":"address"}],"outputs":[],"stateMutability":"nonpayable"},{"type":"function","name":"supportProposal","inputs":[{"name":"","type":"tuple[]","internalType":"struct StrategyStruct.ProposalSupport[]","components":[{"name":"proposalId","type":"uint256","internalType":"uint256"},{"name":"deltaSupport","type":"int256","internalType":"int256"}]}],"outputs":[],"stateMutability":"pure"},{"type":"function","name":"supportsInterface","inputs":[{"name":"interfaceId","type":"bytes4","internalType":"bytes4"}],"outputs":[{"name":"","type":"bool","internalType":"bool"}],"stateMutability":"view"},{"type":"function","name":"sybilScorer","inputs":[],"outputs":[{"name":"","type":"address","internalType":"contract ISybilScorer"}],"stateMutability":"view"},{"type":"function","name":"totalEffectiveActivePoints","inputs":[],"outputs":[{"name":"","type":"uint256","internalType":"uint256"}],"stateMutability":"view"},{"type":"function","name":"totalPointsActivated","inputs":[],"outputs":[{"name":"","type":"uint256","internalType":"uint256"}],"stateMutability":"view"},{"type":"function","name":"totalStaked","inputs":[],"outputs":[{"name":"","type":"uint256","internalType":"uint256"}],"stateMutability":"view"},{"type":"function","name":"totalVoterStakePct","inputs":[{"name":"","type":"address","internalType":"address"}],"outputs":[{"name":"","type":"uint256","internalType":"uint256"}],"stateMutability":"view"},{"type":"function","name":"transferOwnership","inputs":[{"name":"newOwner","type":"address","internalType":"address"}],"outputs":[],"stateMutability":"nonpayable"},{"type":"function","name":"updateProposalConviction","inputs":[{"name":"proposalId","type":"uint256","internalType":"uint256"}],"outputs":[{"name":"","type":"uint256","internalType":"uint256"}],"stateMutability":"nonpayable"},{"type":"function","name":"upgradeTo","inputs":[{"name":"newImplementation","type":"address","internalType":"address"}],"outputs":[],"stateMutability":"nonpayable"},{"type":"function","name":"upgradeToAndCall","inputs":[{"name":"newImplementation","type":"address","internalType":"address"},{"name":"data","type":"bytes","internalType":"bytes"}],"outputs":[],"stateMutability":"payable"},{"type":"function","name":"voterStakedProposals","inputs":[{"name":"","type":"address","internalType":"address"},{"name":"","type":"uint256","internalType":"uint256"}],"outputs":[{"name":"","type":"uint256","internalType":"uint256"}],"stateMutability":"view"},{"type":"event","name":"AdminChanged","inputs":[{"name":"previousAdmin","type":"address","indexed":false,"internalType":"address"},{"name":"newAdmin","type":"address","indexed":false,"internalType":"address"}],"anonymous":false},{"type":"event","name":"Allocated","inputs":[{"name":"recipientId","type":"address","indexed":true,"internalType":"address"},{"name":"amount","type":"uint256","indexed":false,"internalType":"uint256"},{"name":"token","type":"address","indexed":false,"internalType":"address"},{"name":"sender","type":"address","indexed":false,"internalType":"address"}],"anonymous":false},{"type":"event","name":"BeaconUpgraded","inputs":[{"name":"beacon","type":"address","indexed":true,"internalType":"address"}],"anonymous":false},{"type":"event","name":"DisputeRequest","inputs":[{"name":"_arbitrator","type":"address","indexed":true,"internalType":"contract IArbitrator"},{"name":"_arbitrableDisputeID","type":"uint256","indexed":true,"internalType":"uint256"},{"name":"_externalDisputeID","type":"uint256","indexed":false,"internalType":"uint256"},{"name":"_templateId","type":"uint256","indexed":false,"internalType":"uint256"},{"name":"_templateUri","type":"string","indexed":false,"internalType":"string"}],"anonymous":false},{"type":"event","name":"Distributed","inputs":[{"name":"proposalId","type":"uint256","indexed":false,"internalType":"uint256"},{"name":"beneficiary","type":"address","indexed":false,"internalType":"address"},{"name":"amount","type":"uint256","indexed":false,"internalType":"uint256"}],"anonymous":false},{"type":"event","name":"Distributed","inputs":[{"name":"recipientId","type":"address","indexed":true,"internalType":"address"},{"name":"recipientAddress","type":"address","indexed":false,"internalType":"address"},{"name":"amount","type":"uint256","indexed":false,"internalType":"uint256"},{"name":"sender","type":"address","indexed":false,"internalType":"address"}],"anonymous":false},{"type":"event","name":"Initialized","inputs":[{"name":"poolId","type":"uint256","indexed":false,"internalType":"uint256"},{"name":"data","type":"bytes","indexed":false,"internalType":"bytes"}],"anonymous":false},{"type":"event","name":"Initialized","inputs":[{"name":"version","type":"uint8","indexed":false,"internalType":"uint8"}],"anonymous":false},{"type":"event","name":"InitializedCV","inputs":[{"name":"poolId","type":"uint256","indexed":false,"internalType":"uint256"},{"name":"data","type":"tuple","indexed":false,"internalType":"struct StrategyStruct.InitializeParams","components":[{"name":"cvParams","type":"tuple","internalType":"struct StrategyStruct.CVParams","components":[{"name":"maxRatio","type":"uint256","internalType":"uint256"},{"name":"weight","type":"uint256","internalType":"uint256"},{"name":"decay","type":"uint256","internalType":"uint256"},{"name":"minThresholdPoints","type":"uint256","internalType":"uint256"}]},{"name":"proposalType","type":"uint8","internalType":"enum StrategyStruct.ProposalType"},{"name":"pointSystem","type":"uint8","internalType":"enum StrategyStruct.PointSystem"},{"name":"pointConfig","type":"tuple","internalType":"struct StrategyStruct.PointSystemConfig","components":[{"name":"maxAmount","type":"uint256","internalType":"uint256"}]},{"name":"arbitrableConfig","type":"tuple","internalType":"struct StrategyStruct.ArbitrableConfig","components":[{"name":"arbitrator","type":"address","internalType":"contract IArbitrator"},{"name":"tribunalSafe","type":"address","internalType":"address"},{"name":"submitterCollateralAmount","type":"uint256","internalType":"uint256"},{"name":"challengerCollateralAmount","type":"uint256","internalType":"uint256"},{"name":"defaultRuling","type":"uint256","internalType":"uint256"},{"name":"defaultRulingTimeout","type":"uint256","internalType":"uint256"}]},{"name":"registryCommunity","type":"address","internalType":"address"},{"name":"sybilScorer","type":"address","internalType":"address"}]}],"anonymous":false},{"type":"event","name":"MinThresholdPointsUpdated","inputs":[{"name":"before","type":"uint256","indexed":false,"internalType":"uint256"},{"name":"minThresholdPoints","type":"uint256","indexed":false,"internalType":"uint256"}],"anonymous":false},{"type":"event","name":"OwnershipTransferred","inputs":[{"name":"previousOwner","type":"address","indexed":true,"internalType":"address"},{"name":"newOwner","type":"address","indexed":true,"internalType":"address"}],"anonymous":false},{"type":"event","name":"PointsDeactivated","inputs":[{"name":"member","type":"address","indexed":false,"internalType":"address"}],"anonymous":false},{"type":"event","name":"PoolActive","inputs":[{"name":"active","type":"bool","indexed":false,"internalType":"bool"}],"anonymous":false},{"type":"event","name":"PoolAmountIncreased","inputs":[{"name":"amount","type":"uint256","indexed":false,"internalType":"uint256"}],"anonymous":false},{"type":"event","name":"PoolParamsUpdated","inputs":[{"name":"cvParams","type":"tuple","indexed":false,"internalType":"struct StrategyStruct.CVParams","components":[{"name":"maxRatio","type":"uint256","internalType":"uint256"},{"name":"weight","type":"uint256","internalType":"uint256"},{"name":"decay","type":"uint256","internalType":"uint256"},{"name":"minThresholdPoints","type":"uint256","internalType":"uint256"}]},{"name":"arbitrableConfig","type":"tuple","indexed":false,"internalType":"struct StrategyStruct.ArbitrableConfig","components":[{"name":"arbitrator","type":"address","internalType":"contract IArbitrator"},{"name":"tribunalSafe","type":"address","internalType":"address"},{"name":"submitterCollateralAmount","type":"uint256","internalType":"uint256"},{"name":"challengerCollateralAmount","type":"uint256","internalType":"uint256"},{"name":"defaultRuling","type":"uint256","internalType":"uint256"},{"name":"defaultRulingTimeout","type":"uint256","internalType":"uint256"}]}],"anonymous":false},{"type":"event","name":"PowerDecreased","inputs":[{"name":"member","type":"address","indexed":false,"internalType":"address"},{"name":"tokensUnStaked","type":"uint256","indexed":false,"internalType":"uint256"},{"name":"pointsToDecrease","type":"uint256","indexed":false,"internalType":"uint256"}],"anonymous":false},{"type":"event","name":"PowerIncreased","inputs":[{"name":"member","type":"address","indexed":false,"internalType":"address"},{"name":"tokensStaked","type":"uint256","indexed":false,"internalType":"uint256"},{"name":"pointsToIncrease","type":"uint256","indexed":false,"internalType":"uint256"}],"anonymous":false},{"type":"event","name":"ProposalCreated","inputs":[{"name":"poolId","type":"uint256","indexed":false,"internalType":"uint256"},{"name":"proposalId","type":"uint256","indexed":false,"internalType":"uint256"}],"anonymous":false},{"type":"event","name":"ProposalDisputed","inputs":[{"name":"arbitrator","type":"address","indexed":false,"internalType":"contract IArbitrator"},{"name":"proposalId","type":"uint256","indexed":false,"internalType":"uint256"},{"name":"disputeId","type":"uint256","indexed":false,"internalType":"uint256"},{"name":"challenger","type":"address","indexed":false,"internalType":"address"},{"name":"context","type":"string","indexed":false,"internalType":"string"},{"name":"timestamp","type":"uint256","indexed":false,"internalType":"uint256"}],"anonymous":false},{"type":"event","name":"Registered","inputs":[{"name":"recipientId","type":"address","indexed":true,"internalType":"address"},{"name":"data","type":"bytes","indexed":false,"internalType":"bytes"},{"name":"sender","type":"address","indexed":false,"internalType":"address"}],"anonymous":false},{"type":"event","name":"RegistryUpdated","inputs":[{"name":"registryCommunity","type":"address","indexed":false,"internalType":"address"}],"anonymous":false},{"type":"event","name":"Ruling","inputs":[{"name":"_arbitrator","type":"address","indexed":true,"internalType":"contract IArbitrator"},{"name":"_disputeID","type":"uint256","indexed":true,"internalType":"uint256"},{"name":"_ruling","type":"uint256","indexed":false,"internalType":"uint256"}],"anonymous":false},{"type":"event","name":"SupportAdded","inputs":[{"name":"from","type":"address","indexed":false,"internalType":"address"},{"name":"proposalId","type":"uint256","indexed":false,"internalType":"uint256"},{"name":"amount","type":"uint256","indexed":false,"internalType":"uint256"},{"name":"totalStakedAmount","type":"uint256","indexed":false,"internalType":"uint256"},{"name":"convictionLast","type":"uint256","indexed":false,"internalType":"uint256"}],"anonymous":false},{"type":"event","name":"TribunaSafeRegistered","inputs":[{"name":"strategy","type":"address","indexed":false,"internalType":"address"},{"name":"arbitrator","type":"address","indexed":false,"internalType":"address"},{"name":"tribunalSafe","type":"address","indexed":false,"internalType":"address"}],"anonymous":false},{"type":"event","name":"Upgraded","inputs":[{"name":"implementation","type":"address","indexed":true,"internalType":"address"}],"anonymous":false},{"type":"error","name":"ALLOCATION_ACTIVE","inputs":[]},{"type":"error","name":"ALLOCATION_NOT_ACTIVE","inputs":[]},{"type":"error","name":"ALLOCATION_NOT_ENDED","inputs":[]},{"type":"error","name":"ALREADY_INITIALIZED","inputs":[]},{"type":"error","name":"AMOUNT_MISMATCH","inputs":[]},{"type":"error","name":"ANCHOR_ERROR","inputs":[]},{"type":"error","name":"ARRAY_MISMATCH","inputs":[]},{"type":"error","name":"AddressCannotBeZero","inputs":[]},{"type":"error","name":"AmountOverMaxRatio","inputs":[]},{"type":"error","name":"ArbitrationConfigCannotBeChangedDuringDispute","inputs":[]},{"type":"error","name":"ArbitratorCannotBeZero","inputs":[]},{"type":"error","name":"CantIncreaseFixedSystem","inputs":[]},{"type":"error","name":"CollateralVaultCannotBeZero","inputs":[]},{"type":"error","name":"ConvictionUnderMinimumThreshold","inputs":[]},{"type":"error","name":"DefaultRulingNotSet","inputs":[]},{"type":"error","name":"DisputeCooldownNotPassed","inputs":[{"name":"_proposalId","type":"uint256","internalType":"uint256"}]},{"type":"error","name":"INVALID","inputs":[]},{"type":"error","name":"INVALID_ADDRESS","inputs":[]},{"type":"error","name":"INVALID_FEE","inputs":[]},{"type":"error","name":"INVALID_METADATA","inputs":[]},{"type":"error","name":"INVALID_REGISTRATION","inputs":[]},{"type":"error","name":"IS_APPROVED_STRATEGY","inputs":[]},{"type":"error","name":"InsufficientCollateral","inputs":[{"name":"sentAmount","type":"uint256","internalType":"uint256"},{"name":"requiredAmount","type":"uint256","internalType":"uint256"}]},{"type":"error","name":"MISMATCH","inputs":[]},{"type":"error","name":"MaxPointsReached","inputs":[]},{"type":"error","name":"NONCE_NOT_AVAILABLE","inputs":[]},{"type":"error","name":"NOT_APPROVED_STRATEGY","inputs":[]},{"type":"error","name":"NOT_ENOUGH_FUNDS","inputs":[]},{"type":"error","name":"NOT_IMPLEMENTED","inputs":[]},{"type":"error","name":"NOT_INITIALIZED","inputs":[]},{"type":"error","name":"NOT_PENDING_OWNER","inputs":[]},{"type":"error","name":"NotEnoughPointsToSupport","inputs":[{"name":"pointsSupport","type":"uint256","internalType":"uint256"},{"name":"pointsBalance","type":"uint256","internalType":"uint256"}]},{"type":"error","name":"NotImplemented","inputs":[]},{"type":"error","name":"OnlyArbitrator","inputs":[]},{"type":"error","name":"OnlyCommunityAllowed","inputs":[]},{"type":"error","name":"OnlyCouncilSafe","inputs":[]},{"type":"error","name":"POOL_ACTIVE","inputs":[]},{"type":"error","name":"POOL_INACTIVE","inputs":[]},{"type":"error","name":"PoolAmountNotEnough","inputs":[{"name":"_proposalId","type":"uint256","internalType":"uint256"},{"name":"_requestedAmount","type":"uint256","internalType":"uint256"},{"name":"_poolAmount","type":"uint256","internalType":"uint256"}]},{"type":"error","name":"PoolIdCannotBeZero","inputs":[]},{"type":"error","name":"PoolIsEmpty","inputs":[]},{"type":"error","name":"ProposalDataIsEmpty","inputs":[]},{"type":"error","name":"ProposalIdCannotBeZero","inputs":[]},{"type":"error","name":"ProposalNotActive","inputs":[{"name":"_proposalId","type":"uint256","internalType":"uint256"}]},{"type":"error","name":"ProposalNotDisputed","inputs":[{"name":"_proposalId","type":"uint256","internalType":"uint256"}]},{"type":"error","name":"ProposalNotInList","inputs":[{"name":"_proposalId","type":"uint256","internalType":"uint256"}]},{"type":"error","name":"ProposalSupportDuplicated","inputs":[{"name":"_proposalId","type":"uint256","internalType":"uint256"},{"name":"index","type":"uint256","internalType":"uint256"}]},{"type":"error","name":"RECIPIENT_ALREADY_ACCEPTED","inputs":[]},{"type":"error","name":"RECIPIENT_ERROR","inputs":[{"name":"recipientId","type":"address","internalType":"address"}]},{"type":"error","name":"RECIPIENT_NOT_ACCEPTED","inputs":[]},{"type":"error","name":"REGISTRATION_NOT_ACTIVE","inputs":[]},{"type":"error","name":"RegistryCannotBeZero","inputs":[]},{"type":"error","name":"SupportUnderflow","inputs":[{"name":"_support","type":"uint256","internalType":"uint256"},{"name":"_delta","type":"int256","internalType":"int256"},{"name":"_result","type":"int256","internalType":"int256"}]},{"type":"error","name":"TokenCannotBeZero","inputs":[]},{"type":"error","name":"TokenNotAllowed","inputs":[]},{"type":"error","name":"UNAUTHORIZED","inputs":[]},{"type":"error","name":"UserCannotBeZero","inputs":[]},{"type":"error","name":"UserCannotExecuteAction","inputs":[]},{"type":"error","name":"UserIsInactive","inputs":[]},{"type":"error","name":"UserNotInRegistry","inputs":[]},{"type":"error","name":"ZERO_ADDRESS","inputs":[]}],"bytecode":{"object":"0x60a0806040523461006c5730608052606a80546001600160a01b031916733b1fbfb04db3585920b2eadbb8839fc9680fe8cd179055606d80546001600160401b03191690556000606e556152f19081610072823960805181818161201601528181612105015261245f0152f35b600080fdfe60806040526004361015610018575b361561001657005b005b6000803560e01c8063013cf08b14613cd357806301ffc9a714613c7c578063058aca4414613ba1578063062f9ece14613af05780630a6f0ee9146137b15780630ba95909146118635780630bece79c146137885780630c0512e91461376a5780630f529ba21461374c5780631073e996146136f957806315cc481e146136d057806319ab453c146135685780631aa91a9e146135495780631ddf1e231461352f5780632506b870146134f8578063255ffb38146134ce5780632bbe0cae146130075780632dbd6fdd1461131c5780632ed04b2b14612d3a578063311a6c56146127435780633396045914612725578063346db8cb14612700578063351d9f96146126da5780633659cfe61461243a57806338fff2d01461241c578063406244d81461240057806342fda9c7146123e25780634ab4ba42146123c45780634d31d087146123855780634f1ef286146120c757806352d1902d1461200357806359a5db8b14611fe45780635db64b99146113475780636003e41414611fbb578063626c47e814611f9f5780636453d9c414611f75578063715018a614611f17578063782aadff14611b3b578063814516ad14611a40578063817b1cd214611a22578063824ea8ed146119b5578063868c57b81461195f5780638da5cb5b14611936578063950559d7146118d7578063a0cf0aea146118a8578063a28889e114611881578063a47ff7e514611863578063a574cea414611809578063aba9ffee1461120c578063ac1ed7b9146117c0578063b2b878d0146116fd578063b41596ec14611405578063b5f620ce146113a9578063b6c61f3114611380578063bcc5b93b14611347578063c32921711461131c578063c46dac0e146112f7578063c7f758a81461122a578063d1e362321461120c578063dc96ff2d146111df578063df868ed3146111bc578063e0dd2c3814611172578063e33add93146110c3578063eb11af9314611079578063edd146cc14610b6b578063ef2920fc14610487578063f2fde38b146103f9578063f321b3051461039e578063f5b0dfb7146103455763f5be3f7c14610326575061000e565b346103425780600319360112610342576020604051611c208152f35b80fd5b5034610342576020366003190112610342577f46aeb5d8770fc4474bc2dfa118fd2595f7fb33ce2cbce6f4e5a3dabfe0f7633960206004356103856144c9565b610391816069546144a6565b606955604051908152a180f35b5034610342576040366003190112610342576103b8613ff4565b602435906001600160401b0382116103f557366023830112156103f5576103ec6103f29236906024816004013591016140c0565b90614458565b80f35b8280fd5b503461034257602036600319011261034257610413613ff4565b61041b6141c8565b6001600160a01b03811615610433576103f290614220565b60405162461bcd60e51b815260206004820152602660248201527f4f776e61626c653a206e6577206f776e657220697320746865207a65726f206160448201526564647265737360d01b6064820152608490fd5b5061049136614112565b9061049a6144c9565b6104a26144dd565b6001600160a01b0382811691908215610b5957607d5416938415610b475760405163288c314960e21b81526004810184905260209360249291858185818b5afa908115610afb578391610b2a575b5015610b18576104ff866146c6565b15610b065760405163011de97360e61b81526001600160a01b038716600482015230602482015285816044818b5afa908115610afb578391610ace575b5015610abc578351840193858501908681870312610ab45786810151906001600160401b038211610ab857019481603f87011215610ab457868601519061058282614020565b966105906040519889613e7e565b82885260408989019360061b820101938411610ab057604001915b838310610a7e5750505050819682975b8551891015610638576105ce8987614bf3565b51511561062e576105df8987614bf3565b51516105ea81614c07565b15610617575061060b61061191886106028c8a614bf3565b51015190614c5f565b98614559565b976105bb565b85906040519063c1d17bef60e01b82526004820152fd5b9761061190614559565b85929161068a888a6106568295878a526081845260408a2054614c7b565b604051637817ee4f60e01b81526001600160a01b039092166004830152306024830152939092839190829081906044820190565b03915afa908115610a73578691610a41575b50808211610a24575082859495526081825260408420556060918291845b86518610156103f2576106cd8688614bf3565b51519380511560001461091657506040516106e781613e48565b600181528281018336823781511561090157859052965b826107098883614bf3565b5101519585835260809283855260408120926009840191876000528287526107376040600020549a8b614c7b565b9288600052875282604060002055809b81928654935b8a845260828a526040842080548210156108ed5761076c82879261416d565b90549060031b1c146107865761078190614559565b61074d565b509b9593919c5098919560019a949a5b15610891575b6107fa9650818511610858576107b2858361476b565b6107bf606f9182546144a6565b90556107cb858361476b565b6107da600286019182546144a6565b90555b600784019384541560001461080157505050509050439055614559565b94956106ba565b60a094506108307f0227f642ddcf2042ceaeafadb9d540f432072c00cd4862881667168dcc14710f9682614f50565b6003600282015491015492604051948b86528a86015260408501528b840152820152a1614559565b610862828661476b565b61086f606f91825461476b565b905561087b828661476b565b61088a6002860191825461476b565b90556107dd565b888d526082885260408d2096875497600160401b8910156108da57886108bf9160016107fa9b01815561416d565b819291549060031b91821b91600019901b191617905561079c565b634e487b7160e01b8f5260416004528f8ffd5b50509b9593919c9a949a9992969099610796565b89634e487b7160e01b60005260326004526000fd5b94918194979896939198855b87518110156109675789610936828a614bf3565b511461094a5761094590614559565b610922565b896044918a60405192632b7aec5560e21b84526004840152820152fd5b50979491939698959092951561097e575b966106fe565b8051906001808301809311610a115761099683614020565b926109a46040519485613e7e565b8084526109b3601f1991614020565b01368685013783815b6109d5575b50506109cf86915183614bf3565b52610978565b829a949a51811015610a0957806109ef610a009285614bf3565b516109fa8287614bf3565b52614559565b819a949a6109bc565b9993996109c1565b634e487b7160e01b845260116004528a84fd5b604492508660405192636b20c17f60e11b84526004840152820152fd5b90508281813d8311610a6c575b610a588183613e7e565b81010312610a6757518761069c565b600080fd5b503d610a4e565b6040513d88823e3d90fd5b6040898484030112610ab057886040918251610a9981613e48565b8551815282860151838201528152019201916105ab565b8580fd5b8380fd5b8480fd5b604051635fccb67f60e01b8152600490fd5b610aee9150863d8811610af4575b610ae68183613e7e565b8101906146ae565b3861053c565b503d610adc565b6040513d85823e3d90fd5b604051630b72d6b160e31b8152600490fd5b604051636a5cfb6d60e01b8152600490fd5b610b419150863d8811610af457610ae68183613e7e565b386104f0565b604051635df4b1ef60e01b8152600490fd5b604051631a3e505160e31b8152600490fd5b5034610342576040366003190112610342576004356001600160401b03602435818111610ab457610ba09036906004016140f7565b610ba86144c9565b610bb06144c9565b6068546110675782156110555782606855606a546e5af43d82803e903d91602b57fd5bf3606c54610be081614559565b606c5560405160208101913360601b8352603482015260348152610c0381613e63565b519020608883901c62ffffff16763d602d80600a3d3981f3363d3d373d3d3d363d7300000017875260789290921b6effffffffffffffffffffffffffffff1916176020526001600160a01b03906037600987f516801561101057849081607e54826001600160601b0360a01b821617607e551617803b1561100c5781809160046040518094819363204a7f0760e21b83525af1801561100157610fed575b5050808051810103916101e08312610ab8576040519260e0840184811083821117610fd3578060405260808212610fe957610cdb81613e1a565b60208401518152604084015161010086015260608401516101208601526080840151610140860152845260a08301516003811015610fe957602085015260c08301516004811015610fe9576040850152602060bf19820112610ab0576040516020810192831181841017610fd35760c09260405260e08401518152606085015260df190112610ab457604051610d7081613dff565b6101008201516001600160a01b0381168103610ab0578152610d956101208301614568565b60208201526101408201516040820152610160820151606082015261018082015160808201526101a082015160a08201526080830152610deb6101e0610dde6101c08401614568565b928360a086015201614568565b60c08301526001600160a01b031615610b475760018060a01b0360a0820151166001600160601b0360a01b607d541617607d5560208101516003811015610fbf5760755460408301516004811015610fab5791610200939160ff61ff007fe5315be7b0ab27f8044fa25213ec2851fa61dd47203db658cf77f45f39ffc37b979560081b1692169061ffff1916171760755560608101515160765560018060a01b0360c0820151166001600160601b0360a01b607f541617607f55610eb56080820151825190614fd5565b60018060a01b0360c0820151166001600160601b0360a01b607f541617607f55604051918252610f07602083018251606080918051845260208101516020850152604081015160408501520151910152565b610f19602082015160a0840190614160565b610f2b604082015160c0840190614153565b6060818101515160e084015260808083015180516001600160a01b0390811661010087015260208201511661012086015260408101516101408601529182015161016085015281015161018084015260a001516101a083015260a08101516001600160a01b039081166101c084015260c090910151166101e0820152a180f35b634e487b7160e01b86526021600452602486fd5b634e487b7160e01b84526021600452602484fd5b634e487b7160e01b600052604160045260246000fd5b8680fd5b610ff690613e35565b610ab4578338610ca1565b6040513d84823e3d90fd5b5080fd5b60405162461bcd60e51b815260206004820152601760248201527f455243313136373a2063726561746532206661696c65640000000000000000006044820152606490fd5b604051637fcce2a960e01b8152600490fd5b60405163439a74c960e01b8152600490fd5b5034610342576020366003190112610342576001600160a01b0361109b613ff4565b16151590506110ba57602060035b604051906110b681613f6c565b8152f35b602060026110a9565b50346103425760208060031936011261100c57600435906001600160401b0382116103f557366023830112156103f557816004013560248261110483614020565b6111116040519182613e7e565b838152019160061b84010192368411610ab857602401905b8382106111425760405163d623472560e01b8152600490fd5b604082360312610ab85782604091825161115b81613e48565b843581528285013583820152815201910190611129565b5034610342576040366003190112610342576009604061119061400a565b926004358152608060205220019060018060a01b03166000526020526020604060002054604051908152f35b5034610342578060031936011261034257602060ff606754166040519015158152f35b50346103425760203660031901126103425760026040602092600435815260808452200154604051908152f35b50346103425780600319360112610342576020607054604051908152f35b50346103425760203660031901126103425761014090600435815260806020526040812060018101549182156000146112e8575b60018060a01b03918260058201541693836004830154169360068301541690600283015460ff600885015416916007850154936009600387015496336000520160205260406000205497604051998a5260208a01526040890152606088015260808701526112cb81613f6c565b60a086015260c085015260e0840152610100830152610120820152f35b506112f282614dc5565b61125e565b50346103425780600319360112610342576040607954607a5482519182526020820152f35b5034610342578060031936011261034257602060ff60755460081c166113456040518092614153565bf35b5034610342576020366003190112610342576020906040906001600160a01b0361136f613ff4565b168152608183522054604051908152f35b5034610342578060031936011261034257607f546040516001600160a01b039091168152602090f35b50346103425760203660031901126103425760043580151580910361100c5760207fd94c9bc4d43c51d8dc345a016d8e3d994432fac68e72832e4cf3a616bd8efae09160ff196067541660ff821617606755604051908152a180f35b50606036600319011261034257600435906001600160401b0360248035828111610ab45761143790369060040161419b565b604495919535848111610ab05761145290369060040161419b565b9383875260209560808752604088209560018060a01b03938460775416156116eb5784607e541680156116d957878954036116c1576008890192600160ff85541661149c81613f6c565b036116a957607a548034111561168c576114b6813461476b565b92803b156116885760405163240ff7c560e11b8152600481018c9052336024820152918e9183916044918391905af1801561167d57918c93918e999897969593611654575b506115319850876077541691604051809a8195829463c13517e160e01b84526003600485015260408c850152604484019161527a565b03925af1948515611649578a9561161a575b50600560ff1982541617905583600c880155600e600d88019742895501336001600160601b0360a01b825416179055838952608388528560408a2055606d5491818316908282146116085750916115fc95939160017f034f6a48076db1bcaaa311ccdc43d473aff44d3918a76fe0fae27c8b3665016d9b9c96940116906001600160401b03191617606d55607754169554946040519788978852870152604086015233606086015260c0608086015260c085019161527a565b9060a08301520390a180f35b634e487b7160e01b8b5260116004528afd5b9094508881813d8311611642575b6116328183613e7e565b81010312610a6757519338611543565b503d611628565b6040513d8c823e3d90fd5b61166691939596979899929450613e35565b61167957918a918c9796959493386114fb565b8b80fd5b6040513d8f823e3d90fd5b8d80fd5b8660449160405191632c1f8ef160e21b8352346004840152820152fd5b6040516344980d8f60e01b8152600481018a90528690fd5b60405163c1d17bef60e01b8152600481018990528590fd5b60405163c4d0cd2f60e01b8152600490fd5b604051636c291fd360e01b8152600490fd5b5034610342576040366003190112610342576001600160401b039060043582811161100c57611730903690600401614037565b50602480358381116103f557366023820112156103f55780600401359161175683614020565b946117646040519687613e7e565b8386528160208097019460051b8401019436861161034257828401945b86861061179a5760405163d623472560e01b8152600490fd5b85358381116103f55788916117b583928736918a01016140f7565b815201950194611781565b5034610342576020366003190112610342576117da613ff4565b6117e261520a565b6117eb8161468c565b60018060a01b03166001600160601b0360a01b607f541617607f5580f35b50346103425760203660031901126103425761184b600a604061185f9360606020835161183581613e48565b8381520152600435815260806020522001613e9f565b604051918291602083526020830190613fd4565b0390f35b50346103425780600319360112610342576020607654604051908152f35b503461034257806003193601126103425760206001600160401b03606d5416604051908152f35b5034610342578060031936011261034257602060405173eeeeeeeeeeeeeeeeeeeeeeeeeeeeeeeeeeeeeeee8152f35b50346103425760203660031901126103425760043562989680918282029180830484149015171561192257607354830392831161192257602061191a8484614a0d565b604051908152f35b634e487b7160e01b81526011600452602490fd5b50346103425780600319360112610342576033546040516001600160a01b039091168152602090f35b503461034257604036600319011261034257611979613ff4565b6001600160a01b03168152608260205260408120805460243592908310156103425760206119a7848461416d565b90546040519160031b1c8152f35b5034610342576020366003190112610342576040602091600435815260808352206119e4600282015482614f82565b81929192159081611a19575b50611a0d575b6001611a03910154614dc5565b1115604051908152f35b600381015491506119f6565b905015386119f0565b50346103425780600319360112610342576020606f54604051908152f35b5034610342578060031936011261034257611a5a336146c6565b15610b0657607d546001600160a01b039082908216803b1561100c57604051630d4a8b4960e01b81523360048201523060248201529082908290604490829084905af1801561100157611b27575b5050607d54604051637817ee4f60e01b81523360048201523060248201529160209183916044918391165afa8015611001578290611af4575b611aee91506070546144a6565b60705580f35b506020813d8211611b1f575b81611b0d60209383613e7e565b81010312610a6757611aee9051611ae1565b3d9150611b00565b611b3090613e35565b61100c578138611aa8565b503461034257604036600319011261034257611b55613ff4565b602435611b60614745565b611b69826146c6565b15610b06578260ff60755460081c166004811015611f035760028103611c6a57505080915b607d5460405163011de97360e61b81526001600160a01b038381166004830152306024830152909160209183916044918391165afa908115611c5f57907f0b9150e1e54346ed3fa36b977cd5d65dca5a649c737c3174a26bddaadd47667a93929160209691611c42575b50611c2e575b604080516001600160a01b039092168252602082019290925290810183905280606081015b0390a1604051908152f35b611c3a846070546144a6565b607055611bfe565b611c599150863d8111610af457610ae68183613e7e565b38611bf8565b6040513d87823e3d90fd5b60018103611d17575050607d54604051637817ee4f60e01b81526001600160a01b038481166004830152306024830152839260209183916044918391165afa908115611c5f578591611ce6575b50611cc283826144a6565b607654809111611cd5575b505091611b8e565b611cdf925061476b565b3880611ccd565b90506020813d8211611d0f575b81611d0060209383613e7e565b81010312610a67575138611cb7565b3d9150611cf3565b90929060021901611b8e57607d546040516316308e2560e11b81526001600160a01b038084166004830152929450908216916020918281602481875afa8015611ef85785908890611ec7575b611d6d92506144a6565b6040516336d8759760e21b81529060128483600481895afa908115611ebc57611dd69486611dcb93611dd1968d91611e8f575b5060046040518094819363313ce56760e01b8352165afa8b9181611e60575b50611e55575b506149ec565b906149fa565b614a2d565b604051637817ee4f60e01b81526001600160a01b0386166004820152306024820152928290849060449082905afa918215610a73578692611e23575b50611e1d925061476b565b91611b8e565b90915082813d8311611e4e575b611e3a8183613e7e565b81010312610a6757611e1d91519038611e12565b503d611e30565b60ff91501638611dc5565b611e81919250883d8a11611e88575b611e798183613e7e565b8101906149d3565b9038611dbf565b503d611e6f565b611eaf9150823d8411611eb5575b611ea78183613e7e565b8101906149b4565b38611da0565b503d611e9d565b6040513d8b823e3d90fd5b50508281813d8311611ef1575b611ede8183613e7e565b81010312610a675784611d6d9151611d63565b503d611ed4565b6040513d89823e3d90fd5b634e487b7160e01b85526021600452602485fd5b5034610342578060031936011261034257611f306141c8565b603380546001600160a01b031981169091556000906001600160a01b03167f8be0079c531659141344cd1fd0a4f28419497f9722a3daafe3b4186f6b6457e08280a380f35b5034610342576020366003190112610342576103f2611f92613ff4565b611f9a614745565b614778565b5034610342578060031936011261034257602060405160038152f35b5034610342578060031936011261034257607d546040516001600160a01b039091168152602090f35b503461034257602036600319011261034257602061191a600435614dc5565b50346103425780600319360112610342577f00000000000000000000000000000000000000000000000000000000000000006001600160a01b0316300361205c57602060405160008051602061529c8339815191528152f35b60405162461bcd60e51b815260206004820152603860248201527f555550535570677261646561626c653a206d757374206e6f742062652063616c60448201527f6c6564207468726f7567682064656c656761746563616c6c00000000000000006064820152608490fd5b506040366003190112610342576120dc613ff4565b6024356001600160401b0381116103f5576120fb9036906004016140f7565b6001600160a01b037f0000000000000000000000000000000000000000000000000000000000000000811692919061213530851415614269565b61215260008051602061529c8339815191529482865416146142ca565b61215a6141c8565b7f4910fdfa16fed3260ed0e7147f7cc6da11a60208b5b9406d12a635614ffd91435460ff16156121905750506103f2915061432b565b8216604051936352d1902d60e01b85526020948581600481865afa60009181612356575b506122155760405162461bcd60e51b815260048101879052602e60248201527f45524331393637557067726164653a206e657720696d706c656d656e7461746960448201526d6f6e206973206e6f74205555505360901b6064820152608490fd5b94929394036122ff576122278461432b565b7fbc7cd75a20ee27fd9adebab32041f755214dbc6bffa90cc0225b39da2e5c2d3b600080a28151158015906122f7575b612262575b50505080f35b6122e5926000806040519461227686613e63565b602786527f416464726573733a206c6f772d6c6576656c2064656c65676174652063616c6c85870152660819985a5b195960ca1b60408701528481519101845af4903d156122ee573d6122c8816140a5565b906122d66040519283613e7e565b8152600081943d92013e6143bb565b5038808061225c565b606092506143bb565b506001612257565b60405162461bcd60e51b815260048101839052602960248201527f45524331393637557067726164653a20756e737570706f727465642070726f786044820152681a58589b195555525160ba1b6064820152608490fd5b90918782813d831161237e575b61236d8183613e7e565b8101031261034257505190386121b4565b503d612363565b5034610342576020366003190112610342576001600160a01b036123a7613ff4565b166123ba576020905b6040519015158152f35b50602060016123b0565b50346103425780600319360112610342576020606954604051908152f35b50346103425780600319360112610342576020606654604051908152f35b50346103425780600319360112610342576020604051600a8152f35b50346103425780600319360112610342576020606854604051908152f35b50346103425760208060031936011261100c57612455613ff4565b6001600160a01b037f0000000000000000000000000000000000000000000000000000000000000000811661248c30821415614269565b6124a960008051602061529c8339815191529183835416146142ca565b6124b16141c8565b60405190848201928284106001600160401b03851117610fd3578360405286835260ff7f4910fdfa16fed3260ed0e7147f7cc6da11a60208b5b9406d12a635614ffd9143541660001461250c57505050506103f2915061432b565b8492939416906040516352d1902d60e01b81528681600481865afa600091816126ab575b506125915760405162461bcd60e51b815260048101889052602e60248201527f45524331393637557067726164653a206e657720696d706c656d656e7461746960448201526d6f6e206973206e6f74205555505360901b6064820152608490fd5b9593949503612654576125a38261432b565b7fbc7cd75a20ee27fd9adebab32041f755214dbc6bffa90cc0225b39da2e5c2d3b600080a282511580159061264c575b6125df575b5050505080f35b60008061264295604051956125f387613e63565b602787527f416464726573733a206c6f772d6c6576656c2064656c65676174652063616c6c86880152660819985a5b195960ca1b60408801525190845af4903d156122ee573d6122c8816140a5565b50388080806125d8565b5060006125d3565b60405162461bcd60e51b815260048101849052602960248201527f45524331393637557067726164653a20756e737570706f727465642070726f786044820152681a58589b195555525160ba1b6064820152608490fd5b90918882813d83116126d3575b6126c28183613e7e565b810103126103425750519038612530565b503d6126b8565b5034610342578060031936011261034257602060ff607554166113456040518092614160565b503461034257606036600319011261034257602061191a604435602435600435614cb6565b50346103425780600319360112610342576020606c54604051908152f35b503461034257604036600319011261034257600435906024918235818352602060838152604084205480855260808252604085208115612d22576008810191825492600560ff851661279481613f6c565b03612d0a57600f8301938454611c208101809111612cf7574210612cdf576127c3600d850154607c54906144a6565b42118015908180612cca575b612cb85790612cb0575b156129ad5750607b54801561299b5760011461298b575b6002607b541461297a575b50607e54600e830154607a546001600160a01b039182169492821690813b156129765760405163099ea56b60e41b808252600482018790526001600160a01b039790971660248201526044810191909152908a908290606490829084905af1801561164957908a9161295e575b5050600581607e5416920154169160795493823b1561295a5760405190815260048101919091526001600160a01b0392909216602483015260448201929092529086908290606490829084905af18015610a7357908691612946575b50505b606d546001600160401b03808216801561293357600019011667ffffffffffffffff199190911617606d5542905560775460405192835293945091926001600160a01b0316917f394027a5fa6e098a1191094d1719d6929b9abc535fcc0c8f448d6a4e7562227691a380f35b634e487b7160e01b885260116004528888fd5b61294f90613e35565b610ab85784386128c4565b8980fd5b61296790613e35565b612972578838612868565b8880fd5b8a80fd5b805460ff19166006179055386127fb565b805460ff191660011781556127f0565b604051630dd466dd60e41b8152600490fd5b91929160018703612a9d5750805460ff19166001179055607e54600e90910154607d54604051633629edcd60e11b81526001600160a01b03928316938316929187908290600490829086165afa908115611649578a91612a80575b50607a54833b1561297657604051638969ab5360e01b815260048101969096526001600160a01b03948516602487015291169092166044840152606483019190915286908290608490829084905af18015610a7357908691612a6c575b50506128c7565b612a7590613e35565b610ab8578438612a65565b612a979150873d8911611eb557611ea78183613e7e565b38612a08565b60028714612aaf575b505050506128c7565b60ff19166006179055607e54600e820154607a54916001600160a01b039081169116813b1561295a5760405163099ea56b60e41b8152600481018690526001600160a01b03919091166024820152604481019290925288908290606490829084905af18015612c7257908891612c9c575b5050607e546005820154607d54604051633629edcd60e11b8152926001600160a01b0390811692811691889185916004918391165afa928315611649578a93612c7d575b5060795460011c92823b1561297657604051638969ab5360e01b8152600481018790526001600160a01b03928316602482015291166044820152606481019290925288908290608490829084905af18015612c7257908891612c5e575b5050607e546005820154600e9092015460795460011c936001600160a01b03918216939282169290911690823b1561295a57604051638969ab5360e01b815260048101919091526001600160a01b0391821660248201529216604483015260648201929092529086908290608490829084905af18015610a7357908691612c4a575b8080612aa6565b612c5390613e35565b610ab8578438612c43565b612c6790613e35565b610fe9578638612bc1565b6040513d8a823e3d90fd5b612c95919350873d8911611eb557611ea78183613e7e565b9138612b64565b612ca590613e35565b610fe9578638612b20565b5086156127d9565b604051631777988560e11b8152600490fd5b506077546001600160a01b03163314156127cf565b604051631a8c8d1360e01b8152600481018490528a90fd5b634e487b7160e01b8a5260116004528a8afd5b604051634b011ca960e11b8152600481018390528990fd5b60405163c1d17bef60e01b8152600481018390528790fd5b503461034257604036600319011261034257612d54613ff4565b60243591612d60614745565b60ff60755460081c166004811015612ff35760028114908115612fe8575b5015612de457507f70b752f3fadb6ac131c0ece847fcbb6994ec56ed6411595710fd9b29c6ac6cc182602093925b612db88460705461476b565b607055604080516001600160a01b03909216825260208201929092529081018390528060608101611c23565b607d546040516336d8759760e21b8152602092916001600160a01b0390811691601291908581600481875afa908115611c5f57829187918791612fcb575b5060046040518094819363313ce56760e01b8352165afa859181612fac575b50612fa1575b506040516316308e2560e11b815290861660048201528481602481865afa908115612f96579087918591612f63575b5091611dcb612e8b611dd193612e919561476b565b916149ec565b604051637817ee4f60e01b81526001600160a01b0386166004820152306024820152909390918190839060449082905afa928315612f575792612f05575b505092612eff7f70b752f3fadb6ac131c0ece847fcbb6994ec56ed6411595710fd9b29c6ac6cc19260209561476b565b92612dac565b9080959250813d8311612f50575b612f1d8183613e7e565b81010312610a67579251612eff7f70b752f3fadb6ac131c0ece847fcbb6994ec56ed6411595710fd9b29c6ac6cc1612ecf565b503d612f13565b604051903d90823e3d90fd5b809250868092503d8311612f8f575b612f7c8183613e7e565b81010312610a6757518690611dcb612e76565b503d612f72565b6040513d86823e3d90fd5b60ff16915038612e47565b612fc4919250873d8911611e8857611e798183613e7e565b9038612e41565b612fe29150823d8411611eb557611ea78183613e7e565b38612e22565b600191501438612d7e565b634e487b7160e01b82526021600452602482fd5b5061301136614112565b909161301b6144c9565b6130236144dd565b61302c826146c6565b15610b06578251830190602093848184031261100c57848101516001600160401b0391828211610ab457019260a0848203126103f55760405160a0810181811084821117610fd35760405286850151815261308960408601614568565b92878201938452606086015195604083019687526130a960808201614568565b936060840194855260a0820151908382116134ca576130ce92908b0191018a0161457c565b95608083019687528251156134b85760ff607554169260038410156134a4576001809414613371575b506077546001600160a01b0397908816151580613366575b613346578991606e5461312190614559565b998a606e558a8952608084528960408a20978c89558160058a019a816001600160601b0360a01b9516858d5416178c55511660048a019084825416179055511660068801918254161790555184860155600885018460ff1982541617905543600786015586600386015551938451600a820155600b019301518051918211613332576131ad8454613dc5565b601f81116132eb575b508890601f831160011461328c579282939183928894613281575b50501b916000199060031b1c19161790555b8280607e541691541690803b156103f55760405163240ff7c560e11b8152600481018690526001600160a01b0392909216602483015282908290604490829034905af180156110015761326d575b50507ffcf3b1aa65a464cef2889608f99e8b8c0f680a4be6c2acb9d961c536a5a9294b604060685481519081528486820152a160405191168152f35b6132778291613e35565b6103425780613231565b0151925038806131d1565b848752898720919083601f198116895b8d888383106132d457505050106132bb575b505050811b0190556131e3565b015160001960f88460031b161c191690553880806132ae565b86860151885590960195948501948793500161329c565b848752898720601f840160051c8101918b8510613328575b601f0160051c019084905b82811061331c5750506131b6565b6000815501849061330e565b9091508190613303565b634e487b7160e01b86526041600452602486fd5b604460795460405190632c1f8ef160e21b82523460048301526024820152fd5b50607954341061310f565b85516001600160a01b03919061338890831661468c565b818651161561349257604051630ae6240f60e11b8152908b82600481305afa918215611ebc5791899184938392613453575b5060249051604051958693849263068bcd8d60e01b84526004840152165afa918215612c7257889261342f575b50604081875116920151160361341d576134018151614c36565b61340b57386130f7565b604051630efd728560e21b8152600490fd5b60405163514e24c360e11b8152600490fd5b61344c9192503d808a833e6134448183613e7e565b8101906145f5565b90386133e7565b92509250508b81813d831161348b575b61346d8183613e7e565b810103126129725751828116810361297257829189919060246133ba565b503d613463565b60405163165a825360e21b8152600490fd5b634e487b7160e01b87526021600452602487fd5b60405163273c8bc360e11b8152600490fd5b8780fd5b50346103425760203660031901126103425760406020916004358152608383522054604051908152f35b5034610342578060031936011261034257608060715460725460735460745491604051938452602084015260408301526060820152f35b50346103425780600319360112610342576103f233614778565b503461034257602036600319011261034257602061191a600435615194565b503461034257602036600319011261034257613582613ff4565b815460ff8160081c1615918280936136c3575b80156136ac575b156136505760ff19821660011784556135df918361363f575b50604051906135c382613e48565b600a8252694356537472617465677960b01b6020830152614458565b6135f860ff835460081c166135f3816144f9565b6144f9565b61360133614220565b6136085780f35b61ff001981541681557f7f26b83ff96e1f2b6a682f133852f6798a09c465da95921460cefb3847402498602060405160018152a180f35b61ffff1916610101178455386135b5565b60405162461bcd60e51b815260206004820152602e60248201527f496e697469616c697a61626c653a20636f6e747261637420697320616c72656160448201526d191e481a5b9a5d1a585b1a5e995960921b6064820152608490fd5b50303b15801561359c5750600160ff83161461359c565b50600160ff831610613595565b50346103425780600319360112610342576065546040516001600160a01b039091168152602090f35b503461034257806003193601126103425760c060018060a01b0380607754169060785416607954607a54607b5491607c5493604051958652602086015260408501526060840152608083015260a0820152f35b50346103425780600319360112610342576020604051629896808152f35b50346103425780600319360112610342576020606e54604051908152f35b5034610342578060031936011261034257607e546040516001600160a01b039091168152602090f35b5034610342576060366003190112610342576001600160401b036004358181116103f5576137e3903690600401614037565b5060249081359081116103f5576137fe9036906004016140f7565b6001600160a01b03919060443583811603610ab45761381b6144c9565b6138236144dd565b805115613ade57602081805181010312610ab45760200151918215613acc578284526080602052604084209160ff607554166003811015613ab957600114613869578480f35b83835403613aa3576001830192835460695490818111613a805750506008810191600160ff84541661389a81613f6c565b03613a6a576138a886615194565b8554906138b482614dc5565b1180613a61575b613a4f5787856065541692606854906040518095819363068bcd8d60e01b835260048301525afa908115612c72576040928992613a2f575b506139009060695461476b565b60695501916139308480855116946139226004860196838854168a5491614b70565b511685855416875491614b70565b600460ff198254161790558583600581607e5416930154169160795490803b156103f55760405163099ea56b60e41b8152600481018990526001600160a01b0394909416602485015260448401919091528290606490829084905af18015610a7357613a1c575b5054915460408051858152929093166001600160a01b03811660208401529282018190527fa7932e9c92f31e1ed56b29d00bbe669a97484dc24de28dd9c8c0429df7f358479391613a1191908590606090a1604080519384526001600160a01b039094166020840152928201929092529081906060820190565b0390a1388080808480f35b613a2890959195613e35565b9338613997565b613900919250613a48903d808c833e6134448183613e7e565b91906138f3565b60405163199cf26160e31b8152600490fd5b508015156138bb565b6040516344980d8f60e01b815260048101879052fd5b604051632c31d85b60e11b81526004810188905293840152604483015250606490fd5b60405163c1d17bef60e01b815260048101859052fd5b50634e487b7160e01b8552602160045284fd5b60405163f881a10d60e01b8152600490fd5b604051630317df1360e61b8152600490fd5b5034610342573660031901610140811261100c5760c01361034257604051613b1781613dff565b6004356001600160a01b03811681036103f5578152613b3461400a565b602082015260443560408201526064356060820152608435608082015260a43560a0820152608060c31936011261100c576040516103f291613b7582613e1a565b60c435825260e4356020830152610104356040830152610124356060830152613b9c61520a565b614fd5565b503461034257602036600319011261034257613bbb613ff4565b6065546068546040516329e40d4b60e01b815260048101919091523360248201526001600160a01b0392916020908290604490829087165afa908115612f96578491613c5e575b5015613c4c577fd6ceddf6d2a22f21c7c81675c518004eff43bc5c8a6fc32a0b748e69d58671cd9160209116806001600160601b0360a01b607d541617607d55604051908152a180f35b60405163075fd2b160e01b8152600490fd5b613c76915060203d8111610af457610ae68183613e7e565b38613c02565b50346103425760203660031901126103425760043563ffffffff60e01b811680910361100c5760209063f1801e6160e01b8114908115613cc2575b506040519015158152f35b6301ffc9a760e01b14905082613cb7565b503461034257602036600319011261034257600435815260806020526040902080546001820154916002810154600382015491600160a01b60019003806004830154168160058401541682600685015416600785015490600886015460ff1692600a8701613d4090613e9f565b94600c88015499600d89015497600e8a01541698600f0154996040519d8e809e81526020015260408d015260608c015260808b015260a08a015260c089015260e0880152613d8d81613f6c565b6101008701526101c0806101208801528601613da891613fd4565b936101408601526101608501526101808401526101a08301520390f35b90600182811c92168015613df5575b6020831014613ddf57565b634e487b7160e01b600052602260045260246000fd5b91607f1691613dd4565b60c081019081106001600160401b03821117610fd357604052565b608081019081106001600160401b03821117610fd357604052565b6001600160401b038111610fd357604052565b604081019081106001600160401b03821117610fd357604052565b606081019081106001600160401b03821117610fd357604052565b90601f801991011681019081106001600160401b03821117610fd357604052565b9060405191613ead83613e48565b8281548152600180920191604051928391600091805490613ecd82613dc5565b80865291838116908115613f435750600114613efa575b50505060209291613ef6910384613e7e565b0152565b909493925060005260209081600020946000915b818310613f2b57509394509192509082010181613ef66020613ee4565b86548884018501529586019587945091830191613f0e565b60ff191660208781019190915292151560051b860183019450859350613ef6929150613ee49050565b60071115613f7657565b634e487b7160e01b600052602160045260246000fd5b60005b838110613f9f5750506000910152565b8181015183820152602001613f8f565b90602091613fc881518092818552858086019101613f8c565b601f01601f1916010190565b9060406020613ff193805184520151918160208201520190613faf565b90565b600435906001600160a01b0382168203610a6757565b602435906001600160a01b0382168203610a6757565b6001600160401b038111610fd35760051b60200190565b81601f82011215610a675780359161404e83614020565b9261405c6040519485613e7e565b808452602092838086019260051b820101928311610a67578301905b828210614086575050505090565b81356001600160a01b0381168103610a67578152908301908301614078565b6001600160401b038111610fd357601f01601f191660200190565b9291926140cc826140a5565b916140da6040519384613e7e565b829481845281830111610a67578281602093846000960137010152565b9080601f83011215610a6757816020613ff1933591016140c0565b6040600319820112610a6757600435906001600160401b038211610a675761413c916004016140f7565b906024356001600160a01b0381168103610a675790565b906004821015613f765752565b906003821015613f765752565b80548210156141855760005260206000200190600090565b634e487b7160e01b600052603260045260246000fd5b9181601f84011215610a67578235916001600160401b038311610a675760208381860195010111610a6757565b6033546001600160a01b031633036141dc57565b606460405162461bcd60e51b815260206004820152602060248201527f4f776e61626c653a2063616c6c6572206973206e6f7420746865206f776e65726044820152fd5b603380546001600160a01b039283166001600160a01b0319821681179092559091167f8be0079c531659141344cd1fd0a4f28419497f9722a3daafe3b4186f6b6457e0600080a3565b1561427057565b60405162461bcd60e51b815260206004820152602c60248201527f46756e6374696f6e206d7573742062652063616c6c6564207468726f7567682060448201526b19195b1959d85d1958d85b1b60a21b6064820152608490fd5b156142d157565b60405162461bcd60e51b815260206004820152602c60248201527f46756e6374696f6e206d7573742062652063616c6c6564207468726f7567682060448201526b6163746976652070726f787960a01b6064820152608490fd5b803b156143605760008051602061529c83398151915280546001600160a01b0319166001600160a01b03909216919091179055565b60405162461bcd60e51b815260206004820152602d60248201527f455243313936373a206e657720696d706c656d656e746174696f6e206973206e60448201526c1bdd08184818dbdb9d1c9858dd609a1b6064820152608490fd5b9192901561441d57508151156143cf575090565b3b156143d85790565b60405162461bcd60e51b815260206004820152601d60248201527f416464726573733a2063616c6c20746f206e6f6e2d636f6e74726163740000006044820152606490fd5b8251909150156144305750805190602001fd5b60405162461bcd60e51b815260206004820152908190614454906024830190613faf565b0390fd5b60018060a01b03166001600160601b0360a01b606554161760655560405161449e816144906020820194602086526040830190613faf565b03601f198101835282613e7e565b519020606655565b919082018092116144b357565b634e487b7160e01b600052601160045260246000fd5b6065546001600160a01b03163303613c4c57565b606854156144e757565b604051630f68fe6360e21b8152600490fd5b1561450057565b60405162461bcd60e51b815260206004820152602b60248201527f496e697469616c697a61626c653a20636f6e7472616374206973206e6f74206960448201526a6e697469616c697a696e6760a81b6064820152608490fd5b60001981146144b35760010190565b51906001600160a01b0382168203610a6757565b9190604083820312610a675760405161459481613e48565b8093805182526020810151906001600160401b038211610a6757019082601f83011215610a67578151916145c7836140a5565b936145d56040519586613e7e565b83855260208483010111610a6757602092613ef691848087019101613f8c565b90602082820312610a675781516001600160401b0392838211610a67570160c081830312610a67576040519261462a84613dff565b8151845260208201516001600160a01b0381168103610a6757602085015261465460408301614568565b60408501526060820151908111610a675760a09261467391830161457c565b606084015260808101516080840152015160a082015290565b6001600160a01b03161561469c57565b6040516303988b8160e61b8152600490fd5b90816020910312610a6757518015158103610a675790565b607f546001600160a01b0316801561473e576040516302154c3d60e51b81526001600160a01b03929092166004830152306024830152602090829060449082905afa9081156147325760009161471a575090565b613ff1915060203d8111610af457610ae68183613e7e565b6040513d6000823e3d90fd5b5050600190565b607d546001600160a01b0316330361475957565b6040516357848b5160e11b8152600490fd5b919082039182116144b357565b607d5460408051637817ee4f60e01b81526001600160a01b0384811660048301523060248301526020959492936000939192908316908781604481855afa80156149aa57859061497b575b6147d0915060705461476b565b607055803b15610ab45784516322bcf99960e01b81526001600160a01b03831660048201523060248201529084908290604490829084905af180156149715761495e575b501680825260828552828220948351808783829954938481520190865283862092865b858282106149485750505061484e92500387613e7e565b825b8651811015614918578061486761488a9289614bf3565b5180865260808085528787209161487d81614c07565b61488f575b505050614559565b614850565b7f0227f642ddcf2042ceaeafadb9d540f432072c00cd4862881667168dcc14710f9260a0928860005260098201885260038b6000208b815491556148f360028501916148dc81845461476b565b8355606f6148eb82825461476b565b905585614f50565b54920154918b51938a8552898501528a8c8501526060840152820152a1388080614882565b50929091507f1468da654b37bb3631011c1917d02e0db437d519918858d40b38b5e980ca033b93945051908152a1565b855484526001958601958c955093019201614837565b61496a90939193613e35565b9138614814565b85513d86823e3d90fd5b508781813d83116149a3575b6149918183613e7e565b81010312610ab8576147d090516147c3565b503d614987565b86513d87823e3d90fd5b90816020910312610a6757516001600160a01b0381168103610a675790565b90816020910312610a67575160ff81168103610a675790565b604d81116144b357600a0a90565b818102929181159184041417156144b357565b8115614a17570490565b634e487b7160e01b600052601260045260246000fd5b8015614b6a57614af8816000908360801c80614b5e575b508060401c80614b51575b508060201c80614b44575b508060101c80614b37575b508060081c80614b2a575b508060041c80614b1d575b508060021c80614b10575b50600191828092811c614b09575b1c1b614aa08185614a0d565b01811c614aad8185614a0d565b01811c614aba8185614a0d565b01811c614ac78185614a0d565b01811c614ad48185614a0d565b01811c614ae18185614a0d565b01811c614aee8185614a0d565b01901c8092614a0d565b80821015614b04575090565b905090565b0181614a94565b6002915091019038614a86565b6004915091019038614a7b565b6008915091019038614a70565b6010915091019038614a65565b6020915091019038614a5a565b6040915091019038614a4f565b91505060809038614a44565b50600090565b6001600160a01b03811673eeeeeeeeeeeeeeeeeeeeeeeeeeeeeeeeeeeeeeee03614bb35750600080809381935af115614ba557565b63b12d13eb6000526004601cfd5b601092602092601452603452604460009384809363a9059cbb60601b82525af13d156001835114171615614be657603452565b6390b8ec1890526004601cfd5b80518210156141855760209160051b010190565b60005260806020526040600020805415159081614c22575090565b600501546001600160a01b03161515919050565b614c45607154606954906149fa565b62989680918281029281840414901517156144b357111590565b919091600083820193841291129080158216911516176144b357565b614c858282614c5f565b9160008312614c9357505090565b9160649260405192631dde38a160e11b8452600484015260248301526044820152fd5b9091607354906298968093848360801b0490600160801b9182811015614d80578583965b614d3f575050614cea90856149fa565b93858302928084048714901517156144b35781039081116144b357614d0e916149fa565b9083039283116144b357614d2b92614d2591614a0d565b906144a6565b6001607f1b81019081106144b35760801c90565b600191818316614d5f5780614d5391614e98565b911c90815b9091614cda565b809250614d6c9197614e98565b9560001981019081116144b3579081614d58565b60405162461bcd60e51b815260206004820152601c60248201527f5f612073686f756c64206265206c657373207468616e20325e313238000000006044820152606490fd5b6069548015614e8657614dd782614c36565b61340b57607154908160401b92600160401b928085048414901517156144b3578060401b9281840414901517156144b357614e18614e2491614e3f93614a0d565b6298968080940461476b565b614e368360725460801b0491806149fa565b60401c90614a0d565b818102908082048314901517156144b35760735482039182116144b357614e7291614e6991614a0d565b607054906149fa565b60401c607454808211600014614b04575090565b60405163ed4421ad60e01b8152600490fd5b90600160801b808311614efa57811015614eb557614d2b916149fa565b60405162461bcd60e51b815260206004820152601c60248201527f5f622073686f756c64206265206c657373207468616e20325e313238000000006044820152606490fd5b60405162461bcd60e51b815260206004820152602860248201527f5f612073686f756c64206265206c657373207468616e206f7220657175616c206044820152670e8de4064bc6264760c31b6064820152608490fd5b90614f5b9082614f82565b9091821580614f7a575b614f755760039160078201550155565b505050565b508115614f65565b4391600782015491838311614fbf57838314614fb3576003614fa7614fb0948661476b565b91015490614cb6565b91565b50505050600090600090565b634e487b7160e01b600052600160045260246000fd5b60208101805160785492939291906001600160a01b0390811681841614801590615184575b8015615174575b8015615164575b6150c9575b505050806150c67fb47aac82f31da18600e28bcf208952b653a703f7eb216def6198ee31280b955d9361014093516071556020830151607255604083015160735560608301516074556150816040518094606080918051845260208101516020850152604081015160408501520151910152565b608083019060a08091600180831b0380825116855260208201511660208501526040810151604085015260608101516060850152608081015160808501520151910152565ba1565b909291936001600160401b03606d5416615152577fb47aac82f31da18600e28bcf208952b653a703f7eb216def6198ee31280b955d9461014094836150c694845116916001600160601b0360a01b92836077541617607755511691161760785560408101516079556060810151607a556080810151607b5560a0810151607c559382935061500d565b60405163fcc12b5b60e01b8152600490fd5b506080850151607b541415615008565b506060850151607a541415615001565b5060408501516079541415614ffa565b806000526080602052604060002090808254036151f257600160ff6008840154166151be81613f6c565b036151da5750806151d56002600393015482614f50565b015490565b602490604051906344980d8f60e01b82526004820152fd5b6024906040519063c1d17bef60e01b82526004820152fd5b607d54604051633629edcd60e11b81526001600160a01b03916020908290600490829086165afa9081156147325760009161525c575b5016330361524a57565b604051637430763f60e11b8152600490fd5b615274915060203d8111611eb557611ea78183613e7e565b38615240565b908060209392818452848401376000828201840152601f01601f191601019056fe360894a13ba1a3210667c828492db98dca3e2076cc3735a920a3ca505d382bbca26469706673582212208a249ad5f0ebd786c42ffc0f375c37c138d0d6e1124d3bbbf0145062887f591764736f6c63430008130033","linkReferences":{}},"methodIdentifiers":{"D()":"0f529ba2","DISPUTE_COOLDOWN_SEC()":"f5be3f7c","MAX_STAKED_PROPOSALS()":"406244d8","NATIVE()":"a0cf0aea","RULING_OPTIONS()":"626c47e8","activatePoints()":"814516ad","allocate(bytes,address)":"ef2920fc","arbitrableConfig()":"1073e996","calculateConviction(uint256,uint256,uint256)":"346db8cb","calculateThreshold(uint256)":"59a5db8b","canExecuteProposal(uint256)":"824ea8ed","cloneNonce()":"33960459","collateralVault()":"0bece79c","cvParams()":"2506b870","deactivatePoints()":"1ddf1e23","deactivatePoints(address)":"6453d9c4","decreasePower(address,uint256)":"2ed04b2b","disputeCount()":"a28889e1","disputeIdToProposalId(uint256)":"255ffb38","disputeProposal(uint256,string,bytes)":"b41596ec","distribute(address[],bytes,address)":"0a6f0ee9","getAllo()":"15cc481e","getCollateralAmounts()":"c46dac0e","getMaxAmount()":"0ba95909","getMaxConviction(uint256)":"950559d7","getMetadata(uint256)":"a574cea4","getPayouts(address[],bytes[])":"b2b878d0","getPointSystem()":"c3292171","getPoolAmount()":"4ab4ba42","getPoolId()":"38fff2d0","getProposal(uint256)":"c7f758a8","getProposalStakedAmount(uint256)":"dc96ff2d","getProposalVoterStake(uint256,address)":"e0dd2c38","getRecipientStatus(address)":"eb11af93","getStrategyId()":"42fda9c7","getTotalVoterStakePct(address)":"bcc5b93b","increasePoolAmount(uint256)":"f5b0dfb7","increasePower(address,uint256)":"782aadff","init(address)":"19ab453c","init(address,string)":"f321b305","initialize(uint256,bytes)":"edd146cc","isPoolActive()":"df868ed3","isValidAllocator(address)":"4d31d087","owner()":"8da5cb5b","pointConfig()":"a47ff7e5","pointSystem()":"2dbd6fdd","proposalCounter()":"0c0512e9","proposalType()":"351d9f96","proposals(uint256)":"013cf08b","proxiableUUID()":"52d1902d","registerRecipient(bytes,address)":"2bbe0cae","registryCommunity()":"6003e414","renounceOwnership()":"715018a6","rule(uint256,uint256)":"311a6c56","setPoolActive(bool)":"b5f620ce","setPoolParams((address,address,uint256,uint256,uint256,uint256),(uint256,uint256,uint256,uint256))":"062f9ece","setRegistryCommunity(address)":"058aca44","setSybilScorer(address)":"ac1ed7b9","supportProposal((uint256,int256)[])":"e33add93","supportsInterface(bytes4)":"01ffc9a7","sybilScorer()":"b6c61f31","totalEffectiveActivePoints()":"d1e36232","totalPointsActivated()":"aba9ffee","totalStaked()":"817b1cd2","totalVoterStakePct(address)":"5db64b99","transferOwnership(address)":"f2fde38b","updateProposalConviction(uint256)":"1aa91a9e","upgradeTo(address)":"3659cfe6","upgradeToAndCall(address,bytes)":"4f1ef286","voterStakedProposals(address,uint256)":"868c57b8"},"storageLayout":{"storage":[{"astId":14129,"contract":"src/CVStrategyV0_0.sol:CVStrategyV0_0","label":"_initialized","offset":0,"slot":"0","type":"t_uint8"},{"astId":14132,"contract":"src/CVStrategyV0_0.sol:CVStrategyV0_0","label":"_initializing","offset":1,"slot":"0","type":"t_bool"},{"astId":14756,"contract":"src/CVStrategyV0_0.sol:CVStrategyV0_0","label":"__gap","offset":0,"slot":"1","type":"t_array(t_uint256)50_storage"},{"astId":13921,"contract":"src/CVStrategyV0_0.sol:CVStrategyV0_0","label":"_owner","offset":0,"slot":"51","type":"t_address"},{"astId":14041,"contract":"src/CVStrategyV0_0.sol:CVStrategyV0_0","label":"__gap","offset":0,"slot":"52","type":"t_array(t_uint256)49_storage"},{"astId":25548,"contract":"src/CVStrategyV0_0.sol:CVStrategyV0_0","label":"allo","offset":0,"slot":"101","type":"t_contract(IAllo)314"},{"astId":25550,"contract":"src/CVStrategyV0_0.sol:CVStrategyV0_0","label":"strategyId","offset":0,"slot":"102","type":"t_bytes32"},{"astId":25552,"contract":"src/CVStrategyV0_0.sol:CVStrategyV0_0","label":"poolActive","offset":0,"slot":"103","type":"t_bool"},{"astId":25554,"contract":"src/CVStrategyV0_0.sol:CVStrategyV0_0","label":"poolId","offset":0,"slot":"104","type":"t_uint256"},{"astId":25556,"contract":"src/CVStrategyV0_0.sol:CVStrategyV0_0","label":"poolAmount","offset":0,"slot":"105","type":"t_uint256"},{"astId":26550,"contract":"src/CVStrategyV0_0.sol:CVStrategyV0_0","label":"collateralVaultTemplate","offset":0,"slot":"106","type":"t_address"},{"astId":26552,"contract":"src/CVStrategyV0_0.sol:CVStrategyV0_0","label":"surpressStateMutabilityWarning","offset":0,"slot":"107","type":"t_uint256"},{"astId":26554,"contract":"src/CVStrategyV0_0.sol:CVStrategyV0_0","label":"cloneNonce","offset":0,"slot":"108","type":"t_uint256"},{"astId":26557,"contract":"src/CVStrategyV0_0.sol:CVStrategyV0_0","label":"disputeCount","offset":0,"slot":"109","type":"t_uint64"},{"astId":26560,"contract":"src/CVStrategyV0_0.sol:CVStrategyV0_0","label":"proposalCounter","offset":0,"slot":"110","type":"t_uint256"},{"astId":26562,"contract":"src/CVStrategyV0_0.sol:CVStrategyV0_0","label":"totalStaked","offset":0,"slot":"111","type":"t_uint256"},{"astId":26564,"contract":"src/CVStrategyV0_0.sol:CVStrategyV0_0","label":"totalPointsActivated","offset":0,"slot":"112","type":"t_uint256"},{"astId":26567,"contract":"src/CVStrategyV0_0.sol:CVStrategyV0_0","label":"cvParams","offset":0,"slot":"113","type":"t_struct(CVParams)26296_storage"},{"astId":26570,"contract":"src/CVStrategyV0_0.sol:CVStrategyV0_0","label":"proposalType","offset":0,"slot":"117","type":"t_enum(ProposalType)26205"},{"astId":26573,"contract":"src/CVStrategyV0_0.sol:CVStrategyV0_0","label":"pointSystem","offset":1,"slot":"117","type":"t_enum(PointSystem)26210"},{"astId":26576,"contract":"src/CVStrategyV0_0.sol:CVStrategyV0_0","label":"pointConfig","offset":0,"slot":"118","type":"t_struct(PointSystemConfig)26273_storage"},{"astId":26579,"contract":"src/CVStrategyV0_0.sol:CVStrategyV0_0","label":"arbitrableConfig","offset":0,"slot":"119","type":"t_struct(ArbitrableConfig)26287_storage"},{"astId":26582,"contract":"src/CVStrategyV0_0.sol:CVStrategyV0_0","label":"registryCommunity","offset":0,"slot":"125","type":"t_contract(RegistryCommunityV0_0)32344"},{"astId":26585,"contract":"src/CVStrategyV0_0.sol:CVStrategyV0_0","label":"collateralVault","offset":0,"slot":"126","type":"t_contract(ICollateralVault)33241"},{"astId":26588,"contract":"src/CVStrategyV0_0.sol:CVStrategyV0_0","label":"sybilScorer","offset":0,"slot":"127","type":"t_contract(ISybilScorer)30103"},{"astId":26593,"contract":"src/CVStrategyV0_0.sol:CVStrategyV0_0","label":"proposals","offset":0,"slot":"128","type":"t_mapping(t_uint256,t_struct(Proposal)26265_storage)"},{"astId":26597,"contract":"src/CVStrategyV0_0.sol:CVStrategyV0_0","label":"totalVoterStakePct","offset":0,"slot":"129","type":"t_mapping(t_address,t_uint256)"},{"astId":26602,"contract":"src/CVStrategyV0_0.sol:CVStrategyV0_0","label":"voterStakedProposals","offset":0,"slot":"130","type":"t_mapping(t_address,t_array(t_uint256)dyn_storage)"},{"astId":26606,"contract":"src/CVStrategyV0_0.sol:CVStrategyV0_0","label":"disputeIdToProposalId","offset":0,"slot":"131","type":"t_mapping(t_uint256,t_uint256)"},{"astId":29723,"contract":"src/CVStrategyV0_0.sol:CVStrategyV0_0","label":"__gap","offset":0,"slot":"132","type":"t_array(t_uint256)50_storage"}],"types":{"t_address":{"encoding":"inplace","label":"address","numberOfBytes":"20"},"t_array(t_uint256)49_storage":{"encoding":"inplace","label":"uint256[49]","numberOfBytes":"1568","base":"t_uint256"},"t_array(t_uint256)50_storage":{"encoding":"inplace","label":"uint256[50]","numberOfBytes":"1600","base":"t_uint256"},"t_array(t_uint256)dyn_storage":{"encoding":"dynamic_array","label":"uint256[]","numberOfBytes":"32","base":"t_uint256"},"t_bool":{"encoding":"inplace","label":"bool","numberOfBytes":"1"},"t_bytes32":{"encoding":"inplace","label":"bytes32","numberOfBytes":"32"},"t_contract(IAllo)314":{"encoding":"inplace","label":"contract IAllo","numberOfBytes":"20"},"t_contract(IArbitrator)33208":{"encoding":"inplace","label":"contract IArbitrator","numberOfBytes":"20"},"t_contract(ICollateralVault)33241":{"encoding":"inplace","label":"contract ICollateralVault","numberOfBytes":"20"},"t_contract(ISybilScorer)30103":{"encoding":"inplace","label":"contract ISybilScorer","numberOfBytes":"20"},"t_contract(RegistryCommunityV0_0)32344":{"encoding":"inplace","label":"contract RegistryCommunityV0_0","numberOfBytes":"20"},"t_enum(PointSystem)26210":{"encoding":"inplace","label":"enum StrategyStruct.PointSystem","numberOfBytes":"1"},"t_enum(ProposalStatus)26230":{"encoding":"inplace","label":"enum StrategyStruct.ProposalStatus","numberOfBytes":"1"},"t_enum(ProposalType)26205":{"encoding":"inplace","label":"enum StrategyStruct.ProposalType","numberOfBytes":"1"},"t_mapping(t_address,t_array(t_uint256)dyn_storage)":{"encoding":"mapping","key":"t_address","label":"mapping(address => uint256[])","numberOfBytes":"32","value":"t_array(t_uint256)dyn_storage"},"t_mapping(t_address,t_uint256)":{"encoding":"mapping","key":"t_address","label":"mapping(address => uint256)","numberOfBytes":"32","value":"t_uint256"},"t_mapping(t_uint256,t_struct(Proposal)26265_storage)":{"encoding":"mapping","key":"t_uint256","label":"mapping(uint256 => struct StrategyStruct.Proposal)","numberOfBytes":"32","value":"t_struct(Proposal)26265_storage"},"t_mapping(t_uint256,t_uint256)":{"encoding":"mapping","key":"t_uint256","label":"mapping(uint256 => uint256)","numberOfBytes":"32","value":"t_uint256"},"t_string_storage":{"encoding":"bytes","label":"string","numberOfBytes":"32"},"t_struct(ArbitrableConfig)26287_storage":{"encoding":"inplace","label":"struct StrategyStruct.ArbitrableConfig","numberOfBytes":"192","members":[{"astId":26276,"contract":"src/CVStrategyV0_0.sol:CVStrategyV0_0","label":"arbitrator","offset":0,"slot":"0","type":"t_contract(IArbitrator)33208"},{"astId":26278,"contract":"src/CVStrategyV0_0.sol:CVStrategyV0_0","label":"tribunalSafe","offset":0,"slot":"1","type":"t_address"},{"astId":26280,"contract":"src/CVStrategyV0_0.sol:CVStrategyV0_0","label":"submitterCollateralAmount","offset":0,"slot":"2","type":"t_uint256"},{"astId":26282,"contract":"src/CVStrategyV0_0.sol:CVStrategyV0_0","label":"challengerCollateralAmount","offset":0,"slot":"3","type":"t_uint256"},{"astId":26284,"contract":"src/CVStrategyV0_0.sol:CVStrategyV0_0","label":"defaultRuling","offset":0,"slot":"4","type":"t_uint256"},{"astId":26286,"contract":"src/CVStrategyV0_0.sol:CVStrategyV0_0","label":"defaultRulingTimeout","offset":0,"slot":"5","type":"t_uint256"}]},"t_struct(CVParams)26296_storage":{"encoding":"inplace","label":"struct StrategyStruct.CVParams","numberOfBytes":"128","members":[{"astId":26289,"contract":"src/CVStrategyV0_0.sol:CVStrategyV0_0","label":"maxRatio","offset":0,"slot":"0","type":"t_uint256"},{"astId":26291,"contract":"src/CVStrategyV0_0.sol:CVStrategyV0_0","label":"weight","offset":0,"slot":"1","type":"t_uint256"},{"astId":26293,"contract":"src/CVStrategyV0_0.sol:CVStrategyV0_0","label":"decay","offset":0,"slot":"2","type":"t_uint256"},{"astId":26295,"contract":"src/CVStrategyV0_0.sol:CVStrategyV0_0","label":"minThresholdPoints","offset":0,"slot":"3","type":"t_uint256"}]},"t_struct(Metadata)802_storage":{"encoding":"inplace","label":"struct Metadata","numberOfBytes":"64","members":[{"astId":798,"contract":"src/CVStrategyV0_0.sol:CVStrategyV0_0","label":"protocol","offset":0,"slot":"0","type":"t_uint256"},{"astId":801,"contract":"src/CVStrategyV0_0.sol:CVStrategyV0_0","label":"pointer","offset":0,"slot":"1","type":"t_string_storage"}]},"t_struct(PointSystemConfig)26273_storage":{"encoding":"inplace","label":"struct StrategyStruct.PointSystemConfig","numberOfBytes":"32","members":[{"astId":26272,"contract":"src/CVStrategyV0_0.sol:CVStrategyV0_0","label":"maxAmount","offset":0,"slot":"0","type":"t_uint256"}]},"t_struct(Proposal)26265_storage":{"encoding":"inplace","label":"struct StrategyStruct.Proposal","numberOfBytes":"512","members":[{"astId":26232,"contract":"src/CVStrategyV0_0.sol:CVStrategyV0_0","label":"proposalId","offset":0,"slot":"0","type":"t_uint256"},{"astId":26234,"contract":"src/CVStrategyV0_0.sol:CVStrategyV0_0","label":"requestedAmount","offset":0,"slot":"1","type":"t_uint256"},{"astId":26236,"contract":"src/CVStrategyV0_0.sol:CVStrategyV0_0","label":"stakedAmount","offset":0,"slot":"2","type":"t_uint256"},{"astId":26238,"contract":"src/CVStrategyV0_0.sol:CVStrategyV0_0","label":"convictionLast","offset":0,"slot":"3","type":"t_uint256"},{"astId":26240,"contract":"src/CVStrategyV0_0.sol:CVStrategyV0_0","label":"beneficiary","offset":0,"slot":"4","type":"t_address"},{"astId":26242,"contract":"src/CVStrategyV0_0.sol:CVStrategyV0_0","label":"submitter","offset":0,"slot":"5","type":"t_address"},{"astId":26244,"contract":"src/CVStrategyV0_0.sol:CVStrategyV0_0","label":"requestedToken","offset":0,"slot":"6","type":"t_address"},{"astId":26246,"contract":"src/CVStrategyV0_0.sol:CVStrategyV0_0","label":"blockLast","offset":0,"slot":"7","type":"t_uint256"},{"astId":26249,"contract":"src/CVStrategyV0_0.sol:CVStrategyV0_0","label":"proposalStatus","offset":0,"slot":"8","type":"t_enum(ProposalStatus)26230"},{"astId":26253,"contract":"src/CVStrategyV0_0.sol:CVStrategyV0_0","label":"voterStakedPoints","offset":0,"slot":"9","type":"t_mapping(t_address,t_uint256)"},{"astId":26256,"contract":"src/CVStrategyV0_0.sol:CVStrategyV0_0","label":"metadata","offset":0,"slot":"10","type":"t_struct(Metadata)802_storage"},{"astId":26258,"contract":"src/CVStrategyV0_0.sol:CVStrategyV0_0","label":"disputeId","offset":0,"slot":"12","type":"t_uint256"},{"astId":26260,"contract":"src/CVStrategyV0_0.sol:CVStrategyV0_0","label":"disputeTimestamp","offset":0,"slot":"13","type":"t_uint256"},{"astId":26262,"contract":"src/CVStrategyV0_0.sol:CVStrategyV0_0","label":"challenger","offset":0,"slot":"14","type":"t_address"},{"astId":26264,"contract":"src/CVStrategyV0_0.sol:CVStrategyV0_0","label":"lastDisputeCompletion","offset":0,"slot":"15","type":"t_uint256"}]},"t_uint256":{"encoding":"inplace","label":"uint256","numberOfBytes":"32"},"t_uint64":{"encoding":"inplace","label":"uint64","numberOfBytes":"8"},"t_uint8":{"encoding":"inplace","label":"uint8","numberOfBytes":"1"}}},"id":60}