{"abi":[{"type":"fallback","stateMutability":"payable"},{"type":"receive","stateMutability":"payable"},{"type":"function","name":"D","inputs":[],"outputs":[{"name":"","type":"uint256","internalType":"uint256"}],"stateMutability":"view"},{"type":"function","name":"DISPUTE_COOLDOWN_SEC","inputs":[],"outputs":[{"name":"","type":"uint256","internalType":"uint256"}],"stateMutability":"view"},{"type":"function","name":"MAX_STAKED_PROPOSALS","inputs":[],"outputs":[{"name":"","type":"uint256","internalType":"uint256"}],"stateMutability":"view"},{"type":"function","name":"NATIVE","inputs":[],"outputs":[{"name":"","type":"address","internalType":"address"}],"stateMutability":"view"},{"type":"function","name":"RULING_OPTIONS","inputs":[],"outputs":[{"name":"","type":"uint256","internalType":"uint256"}],"stateMutability":"view"},{"type":"function","name":"VERSION","inputs":[],"outputs":[{"name":"","type":"string","internalType":"string"}],"stateMutability":"view"},{"type":"function","name":"activatePoints","inputs":[],"outputs":[],"stateMutability":"nonpayable"},{"type":"function","name":"addToAllowList","inputs":[{"name":"members","type":"address[]","internalType":"address[]"}],"outputs":[],"stateMutability":"nonpayable"},{"type":"function","name":"allocate","inputs":[{"name":"_data","type":"bytes","internalType":"bytes"},{"name":"_sender","type":"address","internalType":"address"}],"outputs":[],"stateMutability":"payable"},{"type":"function","name":"arbitrableConfigs","inputs":[{"name":"","type":"uint256","internalType":"uint256"}],"outputs":[{"name":"arbitrator","type":"address","internalType":"contract IArbitrator"},{"name":"tribunalSafe","type":"address","internalType":"address"},{"name":"submitterCollateralAmount","type":"uint256","internalType":"uint256"},{"name":"challengerCollateralAmount","type":"uint256","internalType":"uint256"},{"name":"defaultRuling","type":"uint256","internalType":"uint256"},{"name":"defaultRulingTimeout","type":"uint256","internalType":"uint256"}],"stateMutability":"view"},{"type":"function","name":"calculateConviction","inputs":[{"name":"_timePassed","type":"uint256","internalType":"uint256"},{"name":"_lastConv","type":"uint256","internalType":"uint256"},{"name":"_oldAmount","type":"uint256","internalType":"uint256"}],"outputs":[{"name":"","type":"uint256","internalType":"uint256"}],"stateMutability":"view"},{"type":"function","name":"calculateThreshold","inputs":[{"name":"_requestedAmount","type":"uint256","internalType":"uint256"}],"outputs":[{"name":"_threshold","type":"uint256","internalType":"uint256"}],"stateMutability":"view"},{"type":"function","name":"canExecuteProposal","inputs":[{"name":"proposalId","type":"uint256","internalType":"uint256"}],"outputs":[{"name":"canBeExecuted","type":"bool","internalType":"bool"}],"stateMutability":"view"},{"type":"function","name":"cancelProposal","inputs":[{"name":"proposalId","type":"uint256","internalType":"uint256"}],"outputs":[],"stateMutability":"nonpayable"},{"type":"function","name":"cloneNonce","inputs":[],"outputs":[{"name":"","type":"uint256","internalType":"uint256"}],"stateMutability":"view"},{"type":"function","name":"collateralVault","inputs":[],"outputs":[{"name":"","type":"address","internalType":"contract ICollateralVault"}],"stateMutability":"view"},{"type":"function","name":"currentArbitrableConfigVersion","inputs":[],"outputs":[{"name":"","type":"uint256","internalType":"uint256"}],"stateMutability":"view"},{"type":"function","name":"cvParams","inputs":[],"outputs":[{"name":"maxRatio","type":"uint256","internalType":"uint256"},{"name":"weight","type":"uint256","internalType":"uint256"},{"name":"decay","type":"uint256","internalType":"uint256"},{"name":"minThresholdPoints","type":"uint256","internalType":"uint256"}],"stateMutability":"view"},{"type":"function","name":"deactivatePoints","inputs":[],"outputs":[],"stateMutability":"nonpayable"},{"type":"function","name":"deactivatePoints","inputs":[{"name":"_member","type":"address","internalType":"address"}],"outputs":[],"stateMutability":"nonpayable"},{"type":"function","name":"decreasePower","inputs":[{"name":"_member","type":"address","internalType":"address"},{"name":"_amountToUnstake","type":"uint256","internalType":"uint256"}],"outputs":[{"name":"","type":"uint256","internalType":"uint256"}],"stateMutability":"nonpayable"},{"type":"function","name":"disputeCount","inputs":[],"outputs":[{"name":"","type":"uint64","internalType":"uint64"}],"stateMutability":"view"},{"type":"function","name":"disputeIdToProposalId","inputs":[{"name":"","type":"uint256","internalType":"uint256"}],"outputs":[{"name":"","type":"uint256","internalType":"uint256"}],"stateMutability":"view"},{"type":"function","name":"disputeProposal","inputs":[{"name":"proposalId","type":"uint256","internalType":"uint256"},{"name":"context","type":"string","internalType":"string"},{"name":"_extraData","type":"bytes","internalType":"bytes"}],"outputs":[{"name":"disputeId","type":"uint256","internalType":"uint256"}],"stateMutability":"payable"},{"type":"function","name":"distribute","inputs":[{"name":"_recipientIds","type":"address[]","internalType":"address[]"},{"name":"_data","type":"bytes","internalType":"bytes"},{"name":"_sender","type":"address","internalType":"address"}],"outputs":[],"stateMutability":"nonpayable"},{"type":"function","name":"getAllo","inputs":[],"outputs":[{"name":"","type":"address","internalType":"contract IAllo"}],"stateMutability":"view"},{"type":"function","name":"getArbitrableConfig","inputs":[],"outputs":[{"name":"arbitrator","type":"address","internalType":"contract IArbitrator"},{"name":"tribunalSafe","type":"address","internalType":"address"},{"name":"submitterCollateralAmount","type":"uint256","internalType":"uint256"},{"name":"challengerCollateralAmount","type":"uint256","internalType":"uint256"},{"name":"defaultRuling","type":"uint256","internalType":"uint256"},{"name":"defaultRulingTimeout","type":"uint256","internalType":"uint256"}],"stateMutability":"view"},{"type":"function","name":"getMaxAmount","inputs":[],"outputs":[{"name":"","type":"uint256","internalType":"uint256"}],"stateMutability":"view"},{"type":"function","name":"getMaxConviction","inputs":[{"name":"amount","type":"uint256","internalType":"uint256"}],"outputs":[{"name":"","type":"uint256","internalType":"uint256"}],"stateMutability":"view"},{"type":"function","name":"getMetadata","inputs":[{"name":"_proposalId","type":"uint256","internalType":"uint256"}],"outputs":[{"name":"","type":"tuple","internalType":"struct Metadata","components":[{"name":"protocol","type":"uint256","internalType":"uint256"},{"name":"pointer","type":"string","internalType":"string"}]}],"stateMutability":"view"},{"type":"function","name":"getPayouts","inputs":[{"name":"","type":"address[]","internalType":"address[]"},{"name":"","type":"bytes[]","internalType":"bytes[]"}],"outputs":[{"name":"","type":"tuple[]","internalType":"struct IStrategy.PayoutSummary[]","components":[{"name":"recipientAddress","type":"address","internalType":"address"},{"name":"amount","type":"uint256","internalType":"uint256"}]}],"stateMutability":"pure"},{"type":"function","name":"getPointSystem","inputs":[],"outputs":[{"name":"","type":"uint8","internalType":"enum PointSystem"}],"stateMutability":"view"},{"type":"function","name":"getPoolAmount","inputs":[],"outputs":[{"name":"","type":"uint256","internalType":"uint256"}],"stateMutability":"view"},{"type":"function","name":"getPoolId","inputs":[],"outputs":[{"name":"","type":"uint256","internalType":"uint256"}],"stateMutability":"view"},{"type":"function","name":"getProposal","inputs":[{"name":"_proposalId","type":"uint256","internalType":"uint256"}],"outputs":[{"name":"submitter","type":"address","internalType":"address"},{"name":"beneficiary","type":"address","internalType":"address"},{"name":"requestedToken","type":"address","internalType":"address"},{"name":"requestedAmount","type":"uint256","internalType":"uint256"},{"name":"stakedAmount","type":"uint256","internalType":"uint256"},{"name":"proposalStatus","type":"uint8","internalType":"enum ProposalStatus"},{"name":"blockLast","type":"uint256","internalType":"uint256"},{"name":"convictionLast","type":"uint256","internalType":"uint256"},{"name":"threshold","type":"uint256","internalType":"uint256"},{"name":"voterStakedPoints","type":"uint256","internalType":"uint256"},{"name":"arbitrableConfigVersion","type":"uint256","internalType":"uint256"}],"stateMutability":"view"},{"type":"function","name":"getProposalStakedAmount","inputs":[{"name":"_proposalId","type":"uint256","internalType":"uint256"}],"outputs":[{"name":"","type":"uint256","internalType":"uint256"}],"stateMutability":"view"},{"type":"function","name":"getProposalVoterStake","inputs":[{"name":"_proposalId","type":"uint256","internalType":"uint256"},{"name":"_voter","type":"address","internalType":"address"}],"outputs":[{"name":"","type":"uint256","internalType":"uint256"}],"stateMutability":"view"},{"type":"function","name":"getRecipientStatus","inputs":[{"name":"_recipientId","type":"address","internalType":"address"}],"outputs":[{"name":"","type":"uint8","internalType":"enum IStrategy.Status"}],"stateMutability":"view"},{"type":"function","name":"getStrategyId","inputs":[],"outputs":[{"name":"","type":"bytes32","internalType":"bytes32"}],"stateMutability":"view"},{"type":"function","name":"getTotalVoterStakePct","inputs":[{"name":"_voter","type":"address","internalType":"address"}],"outputs":[{"name":"","type":"uint256","internalType":"uint256"}],"stateMutability":"view"},{"type":"function","name":"increasePoolAmount","inputs":[{"name":"_amount","type":"uint256","internalType":"uint256"}],"outputs":[],"stateMutability":"nonpayable"},{"type":"function","name":"increasePower","inputs":[{"name":"_member","type":"address","internalType":"address"},{"name":"_amountToStake","type":"uint256","internalType":"uint256"}],"outputs":[{"name":"","type":"uint256","internalType":"uint256"}],"stateMutability":"nonpayable"},{"type":"function","name":"init","inputs":[{"name":"_allo","type":"address","internalType":"address"},{"name":"_collateralVaultTemplate","type":"address","internalType":"address"},{"name":"owner","type":"address","internalType":"address"}],"outputs":[],"stateMutability":"nonpayable"},{"type":"function","name":"init","inputs":[{"name":"_allo","type":"address","internalType":"address"},{"name":"_name","type":"string","internalType":"string"},{"name":"owner","type":"address","internalType":"address"}],"outputs":[],"stateMutability":"nonpayable"},{"type":"function","name":"initialize","inputs":[{"name":"initialOwner","type":"address","internalType":"address"}],"outputs":[],"stateMutability":"nonpayable"},{"type":"function","name":"initialize","inputs":[{"name":"_poolId","type":"uint256","internalType":"uint256"},{"name":"_data","type":"bytes","internalType":"bytes"}],"outputs":[],"stateMutability":"nonpayable"},{"type":"function","name":"isPoolActive","inputs":[],"outputs":[{"name":"","type":"bool","internalType":"bool"}],"stateMutability":"view"},{"type":"function","name":"isValidAllocator","inputs":[{"name":"_allocator","type":"address","internalType":"address"}],"outputs":[{"name":"","type":"bool","internalType":"bool"}],"stateMutability":"view"},{"type":"function","name":"owner","inputs":[],"outputs":[{"name":"","type":"address","internalType":"address"}],"stateMutability":"view"},{"type":"function","name":"pointConfig","inputs":[],"outputs":[{"name":"maxAmount","type":"uint256","internalType":"uint256"}],"stateMutability":"view"},{"type":"function","name":"pointSystem","inputs":[],"outputs":[{"name":"","type":"uint8","internalType":"enum PointSystem"}],"stateMutability":"view"},{"type":"function","name":"proposalCounter","inputs":[],"outputs":[{"name":"","type":"uint256","internalType":"uint256"}],"stateMutability":"view"},{"type":"function","name":"proposalType","inputs":[],"outputs":[{"name":"","type":"uint8","internalType":"enum ProposalType"}],"stateMutability":"view"},{"type":"function","name":"proposals","inputs":[{"name":"","type":"uint256","internalType":"uint256"}],"outputs":[{"name":"proposalId","type":"uint256","internalType":"uint256"},{"name":"requestedAmount","type":"uint256","internalType":"uint256"},{"name":"stakedAmount","type":"uint256","internalType":"uint256"},{"name":"convictionLast","type":"uint256","internalType":"uint256"},{"name":"beneficiary","type":"address","internalType":"address"},{"name":"submitter","type":"address","internalType":"address"},{"name":"requestedToken","type":"address","internalType":"address"},{"name":"blockLast","type":"uint256","internalType":"uint256"},{"name":"proposalStatus","type":"uint8","internalType":"enum ProposalStatus"},{"name":"metadata","type":"tuple","internalType":"struct Metadata","components":[{"name":"protocol","type":"uint256","internalType":"uint256"},{"name":"pointer","type":"string","internalType":"string"}]},{"name":"disputeInfo","type":"tuple","internalType":"struct ProposalDisputeInfo","components":[{"name":"disputeId","type":"uint256","internalType":"uint256"},{"name":"disputeTimestamp","type":"uint256","internalType":"uint256"},{"name":"challenger","type":"address","internalType":"address"}]},{"name":"lastDisputeCompletion","type":"uint256","internalType":"uint256"},{"name":"arbitrableConfigVersion","type":"uint256","internalType":"uint256"}],"stateMutability":"view"},{"type":"function","name":"proxiableUUID","inputs":[],"outputs":[{"name":"","type":"bytes32","internalType":"bytes32"}],"stateMutability":"view"},{"type":"function","name":"proxyOwner","inputs":[],"outputs":[{"name":"","type":"address","internalType":"address"}],"stateMutability":"view"},{"type":"function","name":"registerRecipient","inputs":[{"name":"_data","type":"bytes","internalType":"bytes"},{"name":"_sender","type":"address","internalType":"address"}],"outputs":[{"name":"recipientId","type":"address","internalType":"address"}],"stateMutability":"payable"},{"type":"function","name":"registryCommunity","inputs":[],"outputs":[{"name":"","type":"address","internalType":"contract RegistryCommunityV0_0"}],"stateMutability":"view"},{"type":"function","name":"removeFromAllowList","inputs":[{"name":"members","type":"address[]","internalType":"address[]"}],"outputs":[],"stateMutability":"nonpayable"},{"type":"function","name":"renounceOwnership","inputs":[],"outputs":[],"stateMutability":"nonpayable"},{"type":"function","name":"rule","inputs":[{"name":"_disputeID","type":"uint256","internalType":"uint256"},{"name":"_ruling","type":"uint256","internalType":"uint256"}],"outputs":[],"stateMutability":"nonpayable"},{"type":"function","name":"setCollateralVaultTemplate","inputs":[{"name":"template","type":"address","internalType":"address"}],"outputs":[],"stateMutability":"nonpayable"},{"type":"function","name":"setPoolActive","inputs":[{"name":"_active","type":"bool","internalType":"bool"}],"outputs":[],"stateMutability":"nonpayable"},{"type":"function","name":"setPoolParams","inputs":[{"name":"_arbitrableConfig","type":"tuple","internalType":"struct ArbitrableConfig","components":[{"name":"arbitrator","type":"address","internalType":"contract IArbitrator"},{"name":"tribunalSafe","type":"address","internalType":"address"},{"name":"submitterCollateralAmount","type":"uint256","internalType":"uint256"},{"name":"challengerCollateralAmount","type":"uint256","internalType":"uint256"},{"name":"defaultRuling","type":"uint256","internalType":"uint256"},{"name":"defaultRulingTimeout","type":"uint256","internalType":"uint256"}]},{"name":"_cvParams","type":"tuple","internalType":"struct CVParams","components":[{"name":"maxRatio","type":"uint256","internalType":"uint256"},{"name":"weight","type":"uint256","internalType":"uint256"},{"name":"decay","type":"uint256","internalType":"uint256"},{"name":"minThresholdPoints","type":"uint256","internalType":"uint256"}]},{"name":"membersToAdd","type":"address[]","internalType":"address[]"},{"name":"membersToRemove","type":"address[]","internalType":"address[]"}],"outputs":[],"stateMutability":"nonpayable"},{"type":"function","name":"setPoolParams","inputs":[{"name":"_arbitrableConfig","type":"tuple","internalType":"struct ArbitrableConfig","components":[{"name":"arbitrator","type":"address","internalType":"contract IArbitrator"},{"name":"tribunalSafe","type":"address","internalType":"address"},{"name":"submitterCollateralAmount","type":"uint256","internalType":"uint256"},{"name":"challengerCollateralAmount","type":"uint256","internalType":"uint256"},{"name":"defaultRuling","type":"uint256","internalType":"uint256"},{"name":"defaultRulingTimeout","type":"uint256","internalType":"uint256"}]},{"name":"_cvParams","type":"tuple","internalType":"struct CVParams","components":[{"name":"maxRatio","type":"uint256","internalType":"uint256"},{"name":"weight","type":"uint256","internalType":"uint256"},{"name":"decay","type":"uint256","internalType":"uint256"},{"name":"minThresholdPoints","type":"uint256","internalType":"uint256"}]},{"name":"sybilScoreThreshold","type":"uint256","internalType":"uint256"}],"outputs":[],"stateMutability":"nonpayable"},{"type":"function","name":"setSybilScorer","inputs":[{"name":"_sybilScorer","type":"address","internalType":"address"},{"name":"threshold","type":"uint256","internalType":"uint256"}],"outputs":[],"stateMutability":"nonpayable"},{"type":"function","name":"supportsInterface","inputs":[{"name":"interfaceId","type":"bytes4","internalType":"bytes4"}],"outputs":[{"name":"","type":"bool","internalType":"bool"}],"stateMutability":"view"},{"type":"function","name":"sybilScorer","inputs":[],"outputs":[{"name":"","type":"address","internalType":"contract ISybilScorer"}],"stateMutability":"view"},{"type":"function","name":"totalEffectiveActivePoints","inputs":[],"outputs":[{"name":"","type":"uint256","internalType":"uint256"}],"stateMutability":"view"},{"type":"function","name":"totalPointsActivated","inputs":[],"outputs":[{"name":"","type":"uint256","internalType":"uint256"}],"stateMutability":"view"},{"type":"function","name":"totalStaked","inputs":[],"outputs":[{"name":"","type":"uint256","internalType":"uint256"}],"stateMutability":"view"},{"type":"function","name":"totalVoterStakePct","inputs":[{"name":"","type":"address","internalType":"address"}],"outputs":[{"name":"","type":"uint256","internalType":"uint256"}],"stateMutability":"view"},{"type":"function","name":"transferOwnership","inputs":[{"name":"newOwner","type":"address","internalType":"address"}],"outputs":[],"stateMutability":"nonpayable"},{"type":"function","name":"updateProposalConviction","inputs":[{"name":"proposalId","type":"uint256","internalType":"uint256"}],"outputs":[{"name":"","type":"uint256","internalType":"uint256"}],"stateMutability":"nonpayable"},{"type":"function","name":"upgradeTo","inputs":[{"name":"newImplementation","type":"address","internalType":"address"}],"outputs":[],"stateMutability":"nonpayable"},{"type":"function","name":"upgradeToAndCall","inputs":[{"name":"newImplementation","type":"address","internalType":"address"},{"name":"data","type":"bytes","internalType":"bytes"}],"outputs":[],"stateMutability":"payable"},{"type":"function","name":"voterStakedProposals","inputs":[{"name":"","type":"address","internalType":"address"},{"name":"","type":"uint256","internalType":"uint256"}],"outputs":[{"name":"","type":"uint256","internalType":"uint256"}],"stateMutability":"view"},{"type":"event","name":"AdminChanged","inputs":[{"name":"previousAdmin","type":"address","indexed":false,"internalType":"address"},{"name":"newAdmin","type":"address","indexed":false,"internalType":"address"}],"anonymous":false},{"type":"event","name":"Allocated","inputs":[{"name":"recipientId","type":"address","indexed":true,"internalType":"address"},{"name":"amount","type":"uint256","indexed":false,"internalType":"uint256"},{"name":"token","type":"address","indexed":false,"internalType":"address"},{"name":"sender","type":"address","indexed":false,"internalType":"address"}],"anonymous":false},{"type":"event","name":"AllowlistMembersAdded","inputs":[{"name":"poolId","type":"uint256","indexed":false,"internalType":"uint256"},{"name":"members","type":"address[]","indexed":false,"internalType":"address[]"}],"anonymous":false},{"type":"event","name":"AllowlistMembersRemoved","inputs":[{"name":"poolId","type":"uint256","indexed":false,"internalType":"uint256"},{"name":"members","type":"address[]","indexed":false,"internalType":"address[]"}],"anonymous":false},{"type":"event","name":"ArbitrableConfigUpdated","inputs":[{"name":"currentArbitrableConfigVersion","type":"uint256","indexed":false,"internalType":"uint256"},{"name":"arbitrator","type":"address","indexed":false,"internalType":"contract IArbitrator"},{"name":"tribunalSafe","type":"address","indexed":false,"internalType":"address"},{"name":"submitterCollateralAmount","type":"uint256","indexed":false,"internalType":"uint256"},{"name":"challengerCollateralAmount","type":"uint256","indexed":false,"internalType":"uint256"},{"name":"defaultRuling","type":"uint256","indexed":false,"internalType":"uint256"},{"name":"defaultRulingTimeout","type":"uint256","indexed":false,"internalType":"uint256"}],"anonymous":false},{"type":"event","name":"BeaconUpgraded","inputs":[{"name":"beacon","type":"address","indexed":true,"internalType":"address"}],"anonymous":false},{"type":"event","name":"CVParamsUpdated","inputs":[{"name":"cvParams","type":"tuple","indexed":false,"internalType":"struct CVParams","components":[{"name":"maxRatio","type":"uint256","internalType":"uint256"},{"name":"weight","type":"uint256","internalType":"uint256"},{"name":"decay","type":"uint256","internalType":"uint256"},{"name":"minThresholdPoints","type":"uint256","internalType":"uint256"}]}],"anonymous":false},{"type":"event","name":"DisputeRequest","inputs":[{"name":"_arbitrator","type":"address","indexed":true,"internalType":"contract IArbitrator"},{"name":"_arbitrableDisputeID","type":"uint256","indexed":true,"internalType":"uint256"},{"name":"_externalDisputeID","type":"uint256","indexed":false,"internalType":"uint256"},{"name":"_templateId","type":"uint256","indexed":false,"internalType":"uint256"},{"name":"_templateUri","type":"string","indexed":false,"internalType":"string"}],"anonymous":false},{"type":"event","name":"Distributed","inputs":[{"name":"proposalId","type":"uint256","indexed":false,"internalType":"uint256"},{"name":"beneficiary","type":"address","indexed":false,"internalType":"address"},{"name":"amount","type":"uint256","indexed":false,"internalType":"uint256"}],"anonymous":false},{"type":"event","name":"Distributed","inputs":[{"name":"recipientId","type":"address","indexed":true,"internalType":"address"},{"name":"recipientAddress","type":"address","indexed":false,"internalType":"address"},{"name":"amount","type":"uint256","indexed":false,"internalType":"uint256"},{"name":"sender","type":"address","indexed":false,"internalType":"address"}],"anonymous":false},{"type":"event","name":"Initialized","inputs":[{"name":"poolId","type":"uint256","indexed":false,"internalType":"uint256"},{"name":"data","type":"bytes","indexed":false,"internalType":"bytes"}],"anonymous":false},{"type":"event","name":"Initialized","inputs":[{"name":"version","type":"uint8","indexed":false,"internalType":"uint8"}],"anonymous":false},{"type":"event","name":"InitializedCV","inputs":[{"name":"poolId","type":"uint256","indexed":false,"internalType":"uint256"},{"name":"data","type":"tuple","indexed":false,"internalType":"struct CVStrategyInitializeParamsV0_0","components":[{"name":"cvParams","type":"tuple","internalType":"struct CVParams","components":[{"name":"maxRatio","type":"uint256","internalType":"uint256"},{"name":"weight","type":"uint256","internalType":"uint256"},{"name":"decay","type":"uint256","internalType":"uint256"},{"name":"minThresholdPoints","type":"uint256","internalType":"uint256"}]},{"name":"proposalType","type":"uint8","internalType":"enum ProposalType"},{"name":"pointSystem","type":"uint8","internalType":"enum PointSystem"},{"name":"pointConfig","type":"tuple","internalType":"struct PointSystemConfig","components":[{"name":"maxAmount","type":"uint256","internalType":"uint256"}]},{"name":"arbitrableConfig","type":"tuple","internalType":"struct ArbitrableConfig","components":[{"name":"arbitrator","type":"address","internalType":"contract IArbitrator"},{"name":"tribunalSafe","type":"address","internalType":"address"},{"name":"submitterCollateralAmount","type":"uint256","internalType":"uint256"},{"name":"challengerCollateralAmount","type":"uint256","internalType":"uint256"},{"name":"defaultRuling","type":"uint256","internalType":"uint256"},{"name":"defaultRulingTimeout","type":"uint256","internalType":"uint256"}]},{"name":"registryCommunity","type":"address","internalType":"address"},{"name":"sybilScorer","type":"address","internalType":"address"}]}],"anonymous":false},{"type":"event","name":"InitializedCV2","inputs":[{"name":"poolId","type":"uint256","indexed":false,"internalType":"uint256"},{"name":"data","type":"tuple","indexed":false,"internalType":"struct CVStrategyInitializeParamsV0_1","components":[{"name":"cvParams","type":"tuple","internalType":"struct CVParams","components":[{"name":"maxRatio","type":"uint256","internalType":"uint256"},{"name":"weight","type":"uint256","internalType":"uint256"},{"name":"decay","type":"uint256","internalType":"uint256"},{"name":"minThresholdPoints","type":"uint256","internalType":"uint256"}]},{"name":"proposalType","type":"uint8","internalType":"enum ProposalType"},{"name":"pointSystem","type":"uint8","internalType":"enum PointSystem"},{"name":"pointConfig","type":"tuple","internalType":"struct PointSystemConfig","components":[{"name":"maxAmount","type":"uint256","internalType":"uint256"}]},{"name":"arbitrableConfig","type":"tuple","internalType":"struct ArbitrableConfig","components":[{"name":"arbitrator","type":"address","internalType":"contract IArbitrator"},{"name":"tribunalSafe","type":"address","internalType":"address"},{"name":"submitterCollateralAmount","type":"uint256","internalType":"uint256"},{"name":"challengerCollateralAmount","type":"uint256","internalType":"uint256"},{"name":"defaultRuling","type":"uint256","internalType":"uint256"},{"name":"defaultRulingTimeout","type":"uint256","internalType":"uint256"}]},{"name":"registryCommunity","type":"address","internalType":"address"},{"name":"sybilScorer","type":"address","internalType":"address"},{"name":"sybilScorerThreshold","type":"uint256","internalType":"uint256"},{"name":"initialAllowlist","type":"address[]","internalType":"address[]"}]}],"anonymous":false},{"type":"event","name":"OwnershipTransferred","inputs":[{"name":"previousOwner","type":"address","indexed":true,"internalType":"address"},{"name":"newOwner","type":"address","indexed":true,"internalType":"address"}],"anonymous":false},{"type":"event","name":"PointsDeactivated","inputs":[{"name":"member","type":"address","indexed":false,"internalType":"address"}],"anonymous":false},{"type":"event","name":"PoolActive","inputs":[{"name":"active","type":"bool","indexed":false,"internalType":"bool"}],"anonymous":false},{"type":"event","name":"PoolAmountIncreased","inputs":[{"name":"amount","type":"uint256","indexed":false,"internalType":"uint256"}],"anonymous":false},{"type":"event","name":"PowerDecreased","inputs":[{"name":"member","type":"address","indexed":false,"internalType":"address"},{"name":"tokensUnStaked","type":"uint256","indexed":false,"internalType":"uint256"},{"name":"pointsToDecrease","type":"uint256","indexed":false,"internalType":"uint256"}],"anonymous":false},{"type":"event","name":"PowerIncreased","inputs":[{"name":"member","type":"address","indexed":false,"internalType":"address"},{"name":"tokensStaked","type":"uint256","indexed":false,"internalType":"uint256"},{"name":"pointsToIncrease","type":"uint256","indexed":false,"internalType":"uint256"}],"anonymous":false},{"type":"event","name":"ProposalCancelled","inputs":[{"name":"proposalId","type":"uint256","indexed":false,"internalType":"uint256"}],"anonymous":false},{"type":"event","name":"ProposalCreated","inputs":[{"name":"poolId","type":"uint256","indexed":false,"internalType":"uint256"},{"name":"proposalId","type":"uint256","indexed":false,"internalType":"uint256"}],"anonymous":false},{"type":"event","name":"ProposalDisputed","inputs":[{"name":"arbitrator","type":"address","indexed":false,"internalType":"contract IArbitrator"},{"name":"proposalId","type":"uint256","indexed":false,"internalType":"uint256"},{"name":"disputeId","type":"uint256","indexed":false,"internalType":"uint256"},{"name":"challenger","type":"address","indexed":false,"internalType":"address"},{"name":"context","type":"string","indexed":false,"internalType":"string"},{"name":"timestamp","type":"uint256","indexed":false,"internalType":"uint256"}],"anonymous":false},{"type":"event","name":"Registered","inputs":[{"name":"recipientId","type":"address","indexed":true,"internalType":"address"},{"name":"data","type":"bytes","indexed":false,"internalType":"bytes"},{"name":"sender","type":"address","indexed":false,"internalType":"address"}],"anonymous":false},{"type":"event","name":"RegistryUpdated","inputs":[{"name":"registryCommunity","type":"address","indexed":false,"internalType":"address"}],"anonymous":false},{"type":"event","name":"Ruling","inputs":[{"name":"_arbitrator","type":"address","indexed":true,"internalType":"contract IArbitrator"},{"name":"_disputeID","type":"uint256","indexed":true,"internalType":"uint256"},{"name":"_ruling","type":"uint256","indexed":false,"internalType":"uint256"}],"anonymous":false},{"type":"event","name":"SupportAdded","inputs":[{"name":"from","type":"address","indexed":false,"internalType":"address"},{"name":"proposalId","type":"uint256","indexed":false,"internalType":"uint256"},{"name":"amount","type":"uint256","indexed":false,"internalType":"uint256"},{"name":"totalStakedAmount","type":"uint256","indexed":false,"internalType":"uint256"},{"name":"convictionLast","type":"uint256","indexed":false,"internalType":"uint256"}],"anonymous":false},{"type":"event","name":"SybilScorerUpdated","inputs":[{"name":"sybilScorer","type":"address","indexed":false,"internalType":"address"}],"anonymous":false},{"type":"event","name":"TribunaSafeRegistered","inputs":[{"name":"strategy","type":"address","indexed":false,"internalType":"address"},{"name":"arbitrator","type":"address","indexed":false,"internalType":"address"},{"name":"tribunalSafe","type":"address","indexed":false,"internalType":"address"}],"anonymous":false},{"type":"event","name":"Upgraded","inputs":[{"name":"implementation","type":"address","indexed":true,"internalType":"address"}],"anonymous":false},{"type":"error","name":"ALLOCATION_ACTIVE","inputs":[]},{"type":"error","name":"ALLOCATION_NOT_ACTIVE","inputs":[]},{"type":"error","name":"ALLOCATION_NOT_ENDED","inputs":[]},{"type":"error","name":"ALREADY_INITIALIZED","inputs":[]},{"type":"error","name":"AMOUNT_MISMATCH","inputs":[]},{"type":"error","name":"ANCHOR_ERROR","inputs":[]},{"type":"error","name":"ARRAY_MISMATCH","inputs":[]},{"type":"error","name":"AShouldBeUnderOrEqTwo_128","inputs":[]},{"type":"error","name":"AShouldBeUnderTwo_128","inputs":[]},{"type":"error","name":"AddressCannotBeZero","inputs":[]},{"type":"error","name":"AmountOverMaxRatio","inputs":[]},{"type":"error","name":"BShouldBeLessTwo_128","inputs":[]},{"type":"error","name":"CallerNotOwner","inputs":[{"name":"_caller","type":"address","internalType":"address"},{"name":"_owner","type":"address","internalType":"address"}]},{"type":"error","name":"ConvictionUnderMinimumThreshold","inputs":[]},{"type":"error","name":"DefaultRulingNotSet","inputs":[]},{"type":"error","name":"DisputeCooldownNotPassed","inputs":[{"name":"_proposalId","type":"uint256","internalType":"uint256"},{"name":"_remainingSec","type":"uint256","internalType":"uint256"}]},{"type":"error","name":"INVALID","inputs":[]},{"type":"error","name":"INVALID_ADDRESS","inputs":[]},{"type":"error","name":"INVALID_FEE","inputs":[]},{"type":"error","name":"INVALID_METADATA","inputs":[]},{"type":"error","name":"INVALID_REGISTRATION","inputs":[]},{"type":"error","name":"IS_APPROVED_STRATEGY","inputs":[]},{"type":"error","name":"InsufficientCollateral","inputs":[{"name":"sentAmount","type":"uint256","internalType":"uint256"},{"name":"requiredAmount","type":"uint256","internalType":"uint256"}]},{"type":"error","name":"MISMATCH","inputs":[]},{"type":"error","name":"NONCE_NOT_AVAILABLE","inputs":[]},{"type":"error","name":"NOT_APPROVED_STRATEGY","inputs":[]},{"type":"error","name":"NOT_ENOUGH_FUNDS","inputs":[]},{"type":"error","name":"NOT_IMPLEMENTED","inputs":[]},{"type":"error","name":"NOT_INITIALIZED","inputs":[]},{"type":"error","name":"NOT_PENDING_OWNER","inputs":[]},{"type":"error","name":"NotEnoughPointsToSupport","inputs":[{"name":"pointsSupport","type":"uint256","internalType":"uint256"},{"name":"pointsBalance","type":"uint256","internalType":"uint256"}]},{"type":"error","name":"NotImplemented","inputs":[]},{"type":"error","name":"OnlyArbitrator","inputs":[]},{"type":"error","name":"OnlyCommunityAllowed","inputs":[]},{"type":"error","name":"OnlyCouncilSafe","inputs":[]},{"type":"error","name":"OnlySubmitter","inputs":[{"name":"submitter","type":"address","internalType":"address"},{"name":"sender","type":"address","internalType":"address"}]},{"type":"error","name":"POOL_ACTIVE","inputs":[]},{"type":"error","name":"POOL_INACTIVE","inputs":[]},{"type":"error","name":"PoolAmountNotEnough","inputs":[{"name":"_proposalId","type":"uint256","internalType":"uint256"},{"name":"_requestedAmount","type":"uint256","internalType":"uint256"},{"name":"_poolAmount","type":"uint256","internalType":"uint256"}]},{"type":"error","name":"PoolIsEmpty","inputs":[]},{"type":"error","name":"ProposalInvalidForAllocation","inputs":[{"name":"_proposalId","type":"uint256","internalType":"uint256"},{"name":"_proposalStatus","type":"uint8","internalType":"enum ProposalStatus"}]},{"type":"error","name":"ProposalNotActive","inputs":[{"name":"_proposalId","type":"uint256","internalType":"uint256"}]},{"type":"error","name":"ProposalNotDisputed","inputs":[{"name":"_proposalId","type":"uint256","internalType":"uint256"}]},{"type":"error","name":"ProposalNotInList","inputs":[{"name":"_proposalId","type":"uint256","internalType":"uint256"}]},{"type":"error","name":"ProposalSupportDuplicated","inputs":[{"name":"_proposalId","type":"uint256","internalType":"uint256"},{"name":"index","type":"uint256","internalType":"uint256"}]},{"type":"error","name":"RECIPIENT_ALREADY_ACCEPTED","inputs":[]},{"type":"error","name":"RECIPIENT_ERROR","inputs":[{"name":"recipientId","type":"address","internalType":"address"}]},{"type":"error","name":"RECIPIENT_NOT_ACCEPTED","inputs":[]},{"type":"error","name":"REGISTRATION_NOT_ACTIVE","inputs":[]},{"type":"error","name":"SupportUnderflow","inputs":[{"name":"_support","type":"uint256","internalType":"uint256"},{"name":"_delta","type":"int256","internalType":"int256"},{"name":"_result","type":"int256","internalType":"int256"}]},{"type":"error","name":"TokenNotAllowed","inputs":[]},{"type":"error","name":"UNAUTHORIZED","inputs":[]},{"type":"error","name":"UserCannotExecuteAction","inputs":[]},{"type":"error","name":"UserIsInactive","inputs":[]},{"type":"error","name":"UserNotInRegistry","inputs":[]},{"type":"error","name":"ZERO_ADDRESS","inputs":[]}],"bytecode":{"object":"0x60a080604052346100325730608052615f2b908162000038823960805181818161248c0152818161257601526129630152f35b600080fdfe60806040526004361015610018575b361561001657005b005b6000803560e01c8063013cf08b14613ed357806301ffc9a714613e7c578063025313a214613e53578063059351cd14613dfc5780630a6f0ee914613ad65780630ba9590914611be75780630bece79c14613aad5780630c0512e914613a8f5780630f529ba214613a71578063125fd1d914613a5357806315cc481e14613a2a578063184b95591461387b5780631aa91a9e1461385c5780631ddf1e23146138425780632506b8701461380b578063255ffb38146137e15780632bbe0cae1461334a5780632dbd6fdd146115405780632ed04b2b146130d8578063311a6c5614612b3c5780633396045914612b1e578063346db8cb14612af9578063351d9f9614612ad35780633659cfe61461293e5780633864d366146128bc57806338fff2d01461289e578063406244d81461288257806341bb76051461282a57806342fda9c71461280c5780634ab4ba42146127ee5780634d31d087146111fe5780634f1ef2861461253857806352d1902d1461247957806359a5db8b1461245a5780635db64b991461156b5780636003e4141461243157806360d5dedc14612376578063626c47e81461235a5780636453d9c414612330578063715018a6146122e45780637263cfe2146122a3578063782aadff14611efd578063814516ad14611e05578063817b1cd214611de7578063824ea8ed14611d7a578063868c57b814611d245780638da5cb5b14611cf7578063948e7a5914611c84578063950559d714611c5d578063a0cf0aea14611c2e578063a28889e114611c05578063a47ff7e514611be7578063a51312c814611ba6578063a574cea414611b50578063aba9ffee14611415578063ad56fd5d14611ab6578063b0d3713a14611a71578063b2b878d0146119ae578063b41596ec14611629578063b5f620ce146115cd578063b6c61f31146115a4578063bcc5b93b1461156b578063c329217114611540578063c4d66de81461150e578063c7f758a814611433578063d1e3623214611415578063dc96ff2d146113e8578063df868ed3146113c5578063e0a8f6f51461126e578063e0dd2c3814611224578063eb11af93146111fe578063edd146cc14610bce578063ef2920fc146104c4578063f2fde38b14610433578063f5b0dfb7146103da578063f5be3f7c146103bd5763ffa1ad7414610373575061000e565b346103ba57806003193601126103ba576103b6604051610392816140a6565b60038152620302e360ec1b6020820152604051918291602083526020830190614245565b0390f35b80fd5b50346103ba57806003193601126103ba576020604051611c208152f35b50346103ba5760203660031901126103ba577f46aeb5d8770fc4474bc2dfa118fd2595f7fb33ce2cbce6f4e5a3dabfe0f76339602060043561041a61480e565b610426816069546147eb565b606955604051908152a180f35b50346103ba5760203660031901126103ba5761044d6142ea565b61045561452e565b6001600160a01b038116156104705761046d9061458d565b80f35b60405162461bcd60e51b815260206004820152602660248201527f4f776e61626c653a206e6577206f776e657220697320746865207a65726f206160448201526564647265737360d01b6064820152608490fd5b506104ce366143f1565b6104d992919261480e565b6104e1614834565b8251916020916104f883808701958701018561500d565b93825b85518110156105e25761050e81876150ab565b51518561051b83896150ab565b510151818652607b87528560408120911380610574575b61054657505061054190614850565b6104fb565b9060ff6008604493015416604051916394d57ead60e01b8352600483015261056d81614202565b6024820152fd5b5060ff60088201541661058681614202565b80159081156105cd575b81156105b8575b81156105a4575b50610532565b600691506105b181614202565b143861059e565b90506105c381614202565b6004811490610597565b90506105d881614202565b6003811490610590565b506105fd849182886105f386614a16565b805101019061500d565b61060683614ac1565b15610b96575b60785460405163011de97360e61b81526001600160a01b03918216959084818061063a308a60048401614aa7565b03818a5afa908115610b8b578291610b5e575b5015610b4c5780959194959161066287614ac1565b96829715935b8551891015610719578480610703575b6106f15761068689876150ab565b5151156106e75761069789876150ab565b51516106a2816150e0565b156106cf57506106c36106c991886106ba8c8a6150ab565b51015190615138565b98614850565b97610668565b6024906040519063c1d17bef60e01b82526004820152fd5b976106c990614850565b604051630b72d6b160e31b8152600490fd5b5083876107108b896150ab565b51015113610678565b91869061075882889461073a8c821697888a52607c845260408a2054615154565b936040518080958194637817ee4f60e01b8352309060048401614aa7565b03915afa908115610b41578691610b0f575b50808211610af15750838552607c825260408520558392839160609182915b8551851015610aed5761079c85876150ab565b5151928051156000146109e557506040516107b6816140a6565b60018152818101823682378151156109cf578490525b816107d787896150ab565b51015194848952607b835260408920916009830190856000528185526108036040600020549889615154565b91866000528552816040600020558a809a81928654935b898452607d89526040842080548210156109bd5761083982879261444c565b90549060031b1c1461085757610850604091614850565b905061081a565b50989392915099959894939a5060015b15610956575b506108ce949392919080841161091d576108878482614c33565b61089460709182546147eb565b90556108a08482614c33565b6108af600285019182546147eb565b90555b60078301928354156000146108d6575050509050439055614850565b939492610789565b60a093506108f3600080516020615e3683398151915295826153b9565b6003600282015491015491604051938985528b85015260408401528b8301526080820152a1614850565b6109278185614c33565b6109346070918254614c33565b90556109408185614c33565b61094f60028501918254614c33565b90556108b2565b868c52607d895260408c20805490600160401b8210156109a957816109899160016108ce9a99989796959401815561444c565b819291549060031b91821b91600019901b1916179055909192939461086d565b634e487b7160e01b8e52604160045260248efd5b5050989392915099959894939a610867565b634e487b7160e01b600052603260045260246000fd5b939195969294908396845b8651811015610a365787610a0482896150ab565b5114610a1857610a1390614850565b6109f0565b8760449160405191632b7aec5560e21b835260048301526024820152fd5b5092949091959397966107cc578051906001808301809311610ad957610a5b836142bd565b92610a696040519485614112565b808452610a78601f19916142bd565b01368585013789815b610a9a575b5050610a94859151836150ab565b526107cc565b829994979951811015610ad05780610ab5610ac692856150ab565b51610ac082876150ab565b52614850565b8199979499610a81565b98969398610a86565b634e487b7160e01b8a52601160045260248afd5b8680f35b6044925060405191636b20c17f60e11b835260048301526024820152fd5b90508281813d8311610b3a575b610b268183614112565b81010312610b3557518661076a565b600080fd5b503d610b1c565b6040513d88823e3d90fd5b604051635fccb67f60e01b8152600490fd5b610b7e9150853d8711610b84575b610b768183614112565b8101906149fe565b8761064d565b503d610b6c565b6040513d84823e3d90fd5b8392935b8151811015610bc5578383610baf83856150ab565b510151136106f157610bc090614850565b610b9a565b5092919261060c565b50346103ba5760403660031901126103ba576024356001600160401b03811161119757610bff9036906004016143d6565b610c0761480e565b610c0f61480e565b6068546111ec57600435156111da57600435606855606a546e5af43d82803e903d91602b57fd5bf3606c54610c4381614850565b606c5560405160208101913360601b8352603482015260348152610c66816140f7565b519020608883901c62ffffff16763d602d80600a3d3981f3363d3d373d3d3d363d7300000017855260789290921b6001600160781b031916176020526001600160a01b03906037600985f516801561119b57607980546001600160a01b031981168317909155839190821617803b156111975781809160046040518094819363204a7f0760e21b83525af18015610b8b57611183575b5050805181019060208183031261117f576020810151906001600160401b03821161117b5761022082820184031261117b576040519261012084016001600160401b038111858210176111655780604052608084840183031261115957610d62816140c1565b8284016020810151825260408101516101408701526060810151610160870152608081015161018087015290855260a00151600381101561115957602085015260c0838301015160048110156111595760408501526020828401820360bf190112611161576040516001600160401b036020820190811190821117611165576020810160405260e084840101518152606085015260c060df198484018303011261116157604051610e128161408b565b82840161010001516001600160a01b038116810361115d578152610e3b6101208585010161485f565b6020820152828401610140810151604083015261016081015160608301526101808101516080808401919091526101a082015160a0840152860191909152610e86906101c00161485f565b60a0850152610e9a6101e08484010161485f565b60c085015281830161020081015160e08601526102200151926001600160401b0384116111595760208201603f85838601010112156111595760208482850101015192610ee6846142bd565b94610ef46040519687614112565b8486526020808701940160408660051b838686010101011161115557818301810160400193925b60408660051b8383860101010185106111395788888861010082015260018060a01b0360a08201511660018060a01b031960785416176078556020810151600381101561112557607654604083015160048110156111115761ff0060ff9160081b1692169061ffff1916171760765560608101515160775560018060a01b0360c08201511660018060a01b0319607a541617607a557fb6a062fc5f19aa17637bf61ab001ce3e5ceb67a5bd51d9753281e41df94f3fd3604051600435815260406020820152610fee604082018451614873565b611000602084015160c083019061443f565b611012604084015160e0830190614432565b60608301515161010082015260a06080840151600180831b03815116610120840152600180831b036020820151166101408401526040810151610160840152606081015161018084015260808101516101a084015201516101c082015260018060a01b0360a0840151166101e082015260018060a01b0360c08401511661020082015260e0830151610220820152806110be610100850151610220610240840152610260830190614896565b0390a16110f060808201518251604051906110d8826140dc565b858252604051926110e8846140dc565b868452615506565b607a546001600160a01b0316611104575080f35b60e061046d910151615c7b565b634e487b7160e01b85526021600452602485fd5b634e487b7160e01b83526021600452602483fd5b6020806040956111488861485f565b8152019501949350610f1b565b8780fd5b8580fd5b8680fd5b8480fd5b634e487b7160e01b600052604160045260246000fd5b8380fd5b8280fd5b61118c90614078565b611197578138610cfc565b5080fd5b60405162461bcd60e51b8152602060048201526017602482015276115490cc4c4d8dce8818dc99585d194c8819985a5b1959604a1b6044820152606490fd5b604051637fcce2a960e01b8152600490fd5b60405163439a74c960e01b8152600490fd5b50346103ba5760203660031901126103ba5760209061121b6142ea565b50604051908152f35b50346103ba5760403660031901126103ba5760096040611242614300565b926004358152607b60205220019060018060a01b03166000526020526020604060002054604051908152f35b50346103ba576020806003193601126111975760043590818352607b8152600160ff6008604086200154166112a281614202565b036113ac57818352607b815260408320600501546001600160a01b0390811633810361138957508084916079541690848352607b8452601060408420916005830154169101548352607f84526002604084200154823b1561117b576113219284928360405180968195829463099ea56b60e41b84528c600485016150bf565b03925af18015610b8b57611375575b50829052607b81526040808420600801805460ff19166003179055519182527f416e669c63d9a3a5e36ee7cc7e2104b8db28ccd286aa18966e98fa230c73b08c91a180f35b61137e90614078565b61117f578238611330565b604051634544dc9160e11b81529081906113a890339060048401614aa7565b0390fd5b6040516344980d8f60e01b815260048101839052602490fd5b50346103ba57806003193601126103ba57602060ff606754166040519015158152f35b50346103ba5760203660031901126103ba57600260406020926004358152607b8452200154604051908152f35b50346103ba57806003193601126103ba576020607154604051908152f35b50346103ba5760203660031901126103ba57610160906004358152607b6020526040812060018101549182156000146114fe57905b60018060a01b03918260058301541693836004840154169360068401541690600284015460ff6008860154169060078601549260038701549433600052600988016020526010604060002054980154986040519a8b5260208b015260408a0152606089015260808801526114db81614202565b60a087015260c086015260e0850152610100840152610120830152610140820152f35b506115088261526b565b90611468565b50346103ba5760203660031901126103ba5761046d61152b6142ea565b61153b60ff845460081c1661478b565b61458d565b50346103ba57806003193601126103ba57602060ff60765460081c166115696040518092614432565bf35b50346103ba5760203660031901126103ba576020906040906001600160a01b036115936142ea565b168152607c83522054604051908152f35b50346103ba57806003193601126103ba57607a546040516001600160a01b039091168152602090f35b50346103ba5760203660031901126103ba576004358015158091036111975760207fd94c9bc4d43c51d8dc345a016d8e3d994432fac68e72832e4cf3a616bd8efae09160ff196067541660ff821617606755604051908152a180f35b5060603660031901126103ba576001600160401b039060243582811161119757611657903690600401614501565b60449291923584811161117f57611672903690600401614501565b93909461167e33614a16565b60043594858552607b602052604085209460108601548152607f6020526040812092604051926116ad8461408b565b60018060a01b03948581541685528560018201541660208601526002810154604086015260056003820154916060870192835260048101546080880152015460a086015289895403611995576008890191600160ff84541661170e81614202565b0361197c57815180341061195e5750600f8a015480151580611936575b611900575061173b825134614c33565b918760795416905190803b1561115d5761176f87918e60405194858094819363240ff7c560e11b83523390600484016149e5565b03925af18015610b41576118ec575b509a6020916117b89b9c8888511691604051809e8195829463c13517e160e01b845260036004850152604060248501526044840191615826565b03925af19889156118e15783996118ad575b50805460ff19166005179055600c870188905542600d8801908155600e90970180546001600160a01b03191633179055878252607e60205260408220899055606d5491818316908183146118995750927f034f6a48076db1bcaaa311ccdc43d473aff44d3918a76fe0fae27c8b3665016d97959260209a97959260016118889601169060018060401b03191617606d55511693549260405195869586528986015287604086015233606086015260c0608086015260c0850191615826565b9060a08301520390a1604051908152f35b634e487b7160e01b81526011600452602490fd5b9098506020813d6020116118d9575b816118c960209383614112565b81010312610b35575197386117ca565b3d91506118bc565b6040513d85823e3d90fd5b6118f68691614078565b611161573861177e565b8b86611c208301809311611899575061191c6044924290614c33565b60405191638d2f6c3160e01b835260048301526024820152fd5b50611c20810180821161194a57421061172b565b634e487b7160e01b87526011600452602487fd5b60449060405190632c1f8ef160e21b82523460048301526024820152fd5b6040516344980d8f60e01b8152600481018c9052602490fd5b60405163c1d17bef60e01b8152600481018b9052602490fd5b50346103ba5760403660031901126103ba576001600160401b0390600435828111611197576119e1903690600401614316565b506024803583811161117f573660238201121561117f57806004013591611a07836142bd565b94611a156040519687614112565b8386528160208097019460051b840101943686116103ba57828401945b868610611a4b5760405163d623472560e01b8152600490fd5b853583811161117f578891611a6683928736918a01016143d6565b815201950194611a32565b50346103ba5760203660031901126103ba57611a8b6142ea565b611a9361452e565b606a80546001600160a01b0319166001600160a01b039290921691909117905580f35b50346103ba576101603660031901126103ba57611aec611ad536614464565b611ade366144c7565b90611ae7615496565b61553b565b607a5481906001600160a01b031680611b025750f35b803b15611b4d5781809160446040518094819363642ce76b60e01b83523060048401526101443560248401525af18015610b8b57611b3d5750f35b611b4690614078565b6103ba5780f35b50fd5b50346103ba5760203660031901126103ba57611b92600a60406103b693606060208351611b7c816140a6565b83815201526004358152607b6020522001614135565b60405191829160208352602083019061426a565b50346103ba5760203660031901126103ba576004356001600160401b03811161119757611bda61046d913690600401614316565b611be2615496565b615ace565b50346103ba57806003193601126103ba576020607754604051908152f35b50346103ba57806003193601126103ba57606d546040516001600160401b039091168152602090f35b50346103ba57806003193601126103ba57602060405173eeeeeeeeeeeeeeeeeeeeeeeeeeeeeeeeeeeeeeee8152f35b50346103ba5760203660031901126103ba576020611c7c60043561546c565b604051908152f35b50346103ba576101803660031901126103ba57611ca036614464565b611ca9366144c7565b6001600160401b0391906101443583811161116157611ccc903690600401614316565b906101643593841161116157611ce961046d943690600401614316565b92611cf2615496565b615506565b50346103ba57806003193601126103ba576020611d12615d1d565b6040516001600160a01b039091168152f35b50346103ba5760403660031901126103ba57611d3e6142ea565b6001600160a01b03168152607d60205260408120805460243592908310156103ba576020611d6c848461444c565b90546040519160031b1c8152f35b50346103ba5760203660031901126103ba5760406020916004358152607b835220611da96002820154826153eb565b81929192159081611dde575b50611dd2575b6001611dc891015461526b565b1115604051908152f35b60038101549150611dbb565b90501538611db5565b50346103ba57806003193601126103ba576020607054604051908152f35b50346103ba57806003193601126103ba57611e1f33614ac1565b156106f1576078546001600160a01b039082908216803b1561119757816040518092630d4a8b4960e01b8252818381611e5c303360048401614aa7565b03925af18015610b8b57611ee9575b50506078541660206040518092637817ee4f60e01b82528180611e92303360048401614aa7565b03915afa8015610b8b578290611eb6575b611eb091506071546147eb565b60715580f35b506020813d8211611ee1575b81611ecf60209383614112565b81010312610b3557611eb09051611ea3565b3d9150611ec2565b611ef290614078565b611197578138611e6b565b50346103ba5760403660031901126103ba57611f176142ea565b602435611f22614c0d565b611f2b82614ac1565b156106f1578260ff60765460081c166004811015611111576002810361201557505080915b60785460405163011de97360e61b81529060209082906001600160a01b03168180611f7f308860048401614aa7565b03915afa90811561200a57907f0b9150e1e54346ed3fa36b977cd5d65dca5a649c737c3174a26bddaadd47667a93929160209691611fed575b50611fd9575b611fce8460405193849384614e33565b0390a1604051908152f35b611fe5846071546147eb565b607155611fbe565b6120049150863d8111610b8457610b768183614112565b38611fb8565b6040513d87823e3d90fd5b600181036120c1575050607854604051637817ee4f60e01b8152829160209082906001600160a01b0316818061204f308a60048401614aa7565b03915afa90811561200a578591612090575b5061206c83826147eb565b60775480911161207f575b505091611f50565b6120899250614c33565b3880612077565b90506020813d82116120b9575b816120aa60209383614112565b81010312610b35575138612061565b3d915061209d565b90929060021901611f50576078546040516316308e2560e11b81526001600160a01b038084166004830152929450908216916020918281602481875afa80156122985785908890612267575b61211792506147eb565b6040516336d8759760e21b81529060128483600481895afa90811561225c5761218094866121759361217b968d9161222f575b5060046040518094819363313ce56760e01b8352165afa8b9181612200575b506121f5575b50614e89565b90614e97565b614eca565b816040518094637817ee4f60e01b825281806121a0308b60048401614aa7565b03915afa918215610b415786926121c3575b506121bd9250614c33565b91611f50565b90915082813d83116121ee575b6121da8183614112565b81010312610b35576121bd915190386121b2565b503d6121d0565b60ff9150163861216f565b612221919250883d8a11612228575b6122198183614112565b810190614e70565b9038612169565b503d61220f565b61224f9150823d8411612255575b6122478183614112565b810190614e51565b3861214a565b503d61223d565b6040513d8b823e3d90fd5b50508281813d8311612291575b61227e8183614112565b81010312610b355784612117915161210d565b503d612274565b6040513d89823e3d90fd5b50346103ba5760203660031901126103ba576004356001600160401b038111611197576122d761046d913690600401614316565b6122df615496565b61586f565b50346103ba57806003193601126103ba576122fd61452e565b603380546001600160a01b031981169091556000906001600160a01b0316600080516020615e568339815191528280a380f35b50346103ba5760203660031901126103ba5761046d61234d6142ea565b612355614c0d565b614c40565b50346103ba57806003193601126103ba57602060405160038152f35b50346103ba5760603660031901126103ba576123906142ea565b6024356001600160401b03811161117f573660238201121561117f576123c090369060248160040135910161439f565b906123e56123cc6142d4565b61153b60ff865460081c166123e08161478b565b61478b565b60018060a01b031660018060a01b031960655416176065556040516124288161241a6020820194602086526040830190614245565b03601f198101835282614112565b51902060665580f35b50346103ba57806003193601126103ba576078546040516001600160a01b039091168152602090f35b50346103ba5760203660031901126103ba576020611c7c60043561526b565b50346103ba57806003193601126103ba577f00000000000000000000000000000000000000000000000000000000000000006001600160a01b031630036124d2576020604051600080516020615e168339815191528152f35b60405162461bcd60e51b815260206004820152603860248201527f555550535570677261646561626c653a206d757374206e6f742062652063616c6044820152771b1959081d1a1c9bdd59da0819195b1959d85d1958d85b1b60421b6064820152608490fd5b5060403660031901126103ba5761254d6142ea565b6024356001600160401b03811161117f5761256c9036906004016143d6565b6001600160a01b037f000000000000000000000000000000000000000000000000000000000000000081169291906125a6308514156145c4565b6125c3600080516020615e16833981519152948286541614614613565b6125cb615d1d565b81339116036127c957600080516020615db68339815191525460ff16156125f857505061046d9150614662565b8216604051936352d1902d60e01b85526020948581600481865afa6000918161279a575b5061266b5760405162461bcd60e51b815260048101879052602e6024820152600080516020615eb683398151915260448201526d6f6e206973206e6f74205555505360901b6064820152608490fd5b94929394036127435761267d84614662565b600080516020615e76833981519152600080a281511580159061273b575b6126a6575b50505080f35b61272992600080604051946126ba866140f7565b602786527f416464726573733a206c6f772d6c6576656c2064656c65676174652063616c6c85870152660819985a5b195960ca1b60408701528481519101845af4903d15612732573d61270c81614384565b9061271a6040519283614112565b8152600081943d92013e6146f2565b503880806126a0565b606092506146f2565b50600161269b565b60405162461bcd60e51b815260048101839052602960248201527f45524331393637557067726164653a20756e737570706f727465642070726f786044820152681a58589b195555525160ba1b6064820152608490fd5b90918782813d83116127c2575b6127b18183614112565b810103126103ba575051903861261c565b503d6127a7565b6113a86127d4615d1d565b60405163163678e960e01b81529182913360048401614aa7565b50346103ba57806003193601126103ba576020606954604051908152f35b50346103ba57806003193601126103ba576020606654604051908152f35b50346103ba5760203660031901126103ba576040906004358152607f6020522060018060a01b036103b6818354169160018401541692600281015490600381015460056004830154920154926040519687968761428a565b50346103ba57806003193601126103ba576020604051600a8152f35b50346103ba57806003193601126103ba576020606854604051908152f35b50346103ba5760403660031901126103ba577f2667a0cd99dbc787d1d2596efe938cf43dfe83e8b8ddeb70e28007c09ff3348560206128f96142ea565b612901615496565b61290a81614a85565b607a80546001600160a01b0319166001600160a01b03929092169182179055612934602435615c7b565b604051908152a180f35b50346103ba57602080600319360112611197576129596142ea565b6001600160a01b037f00000000000000000000000000000000000000000000000000000000000000008116612990308214156145c4565b6129ad600080516020615e16833981519152918383541614614613565b6129b5615d1d565b82339116036127c957604051916129cb836140dc565b858352600080516020615db68339815191525460ff16156129f35750505061046d9150614662565b8316906040516352d1902d60e01b81528581600481865afa60009181612aa4575b50612a635760405162461bcd60e51b815260048101879052602e6024820152600080516020615eb683398151915260448201526d6f6e206973206e6f74205555505360901b6064820152608490fd5b949293940361274357612a7584614662565b600080516020615e76833981519152600080a2815115801590612a9c576126a65750505080f35b50600061269b565b90918782813d8311612acc575b612abb8183614112565b810103126103ba5750519038612a14565b503d612ab1565b50346103ba57806003193601126103ba57602060ff60765416611569604051809261443f565b50346103ba5760603660031901126103ba576020611c7c60443560243560043561518f565b50346103ba57806003193601126103ba576020606c54604051908152f35b50346103ba5760403660031901126103ba5760043590818152602091607e8352604082205492838352607b8152604083209360108501548452607f8252604084209060405190612b8b8261408b565b60018060a01b0392838154168352600184818301541686850152600282015490604085019182526003830154926060860193845260056004820154916080880192835201549160a0870192835285156130bf5760088c0192835490600560ff8316612bf581614202565b036130a657600d8e01549051612c0a916147eb565b42118015908180613099575b613087579061307d575b15612dc15750815115612daf576002915190808214612da0575b5014612d25575b505083607954169084600e8a015416905192823b15612d215791612c8093918980946040519687958694859363099ea56b60e41b8552600485016150bf565b03925af18015610b4157908691612d0d575b50505b606d546001600160401b038082169791908815612cf9577f394027a5fa6e098a1191094d1719d6929b9abc535fcc0c8f448d6a4e756222769596979860001901169060018060401b03191617606d55600f429101555116916040516024358152a380f35b634e487b7160e01b88526011600452602488fd5b612d1690614078565b611161578438612c92565b8880fd5b600660ff1982541617905584607954168560058b015416915191813b15612d9c57918991612d6b938360405180968195829463099ea56b60e41b84528b600485016150bf565b03925af18015612d915790889115612c4157612d8690614078565b61115d578638612c41565b6040513d8a823e3d90fd5b8980fd5b835460ff191617835538612c3a565b604051630dd466dd60e41b8152600490fd5b9150919250602435828114600014612e9d57505060ff198254161790558360795416600485600e8b0154169287876078541660405193848092633629edcd60e11b82525afa918215612e92578a92612e73575b5051823b15612d9c57604051638969ab5360e01b8152948a94869493859387938593612e46938d169160048601615847565b03925af18015610b4157908691612e5f575b5050612c95565b612e6890614078565b611161578438612e58565b612e8b919250883d8a11612255576122478183614112565b9038612e14565b6040513d8c823e3d90fd5b91949291600214612eb3575b5050505050612c95565b60069060ff1916179055846079541691600e8a019286845416915191813b1561301857918a91612efb938360405180968195829463099ea56b60e41b84528a600485016150bf565b03925af1801561225c57908991613069575b5050846079541690600460058b0192878454169089896078541660405194858092633629edcd60e11b82525afa92831561305e578c9361303f575b50606f548c52607f8a52600260408d200154871c91813b1561303b57918c91612f8f93838c60405196879586948593638969ab5360e01b9b8c865216908c60048601615847565b03925af1801561303057908b9161301c575b50508680806079541694541694541694606f548b52607f8952600260408c200154901c833b15613018578a94939291612fea869260405198899788968795865260048601615847565b03925af18015610b4157908691613004575b808080612ea9565b61300d90614078565b611161578438612ffc565b8a80fd5b61302590614078565b612d9c578938612fa1565b6040513d8d823e3d90fd5b8c80fd5b6130579193508a3d8c11612255576122478183614112565b9138612f48565b6040513d8e823e3d90fd5b61307290614078565b611155578738612f0d565b5060243515612c20565b604051631777988560e11b8152600490fd5b508a8a5116331415612c16565b604051634b011ca960e11b815260048101899052602490fd5b60405163c1d17bef60e01b815260048101879052602490fd5b50346103ba5760403660031901126103ba576130f26142ea565b602435916130fe614c0d565b60ff60765460081c166004811015613336576002811490811561332b575b50156131575750600080516020615dd683398151915282602093925b61314484607154614c33565b607155611fce8460405193849384614e33565b6078546040516336d8759760e21b8152602092916001600160a01b0390811691601291908581600481875afa90811561200a5782918791879161330e575b5060046040518094819363313ce56760e01b8352165afa8591816132ef575b506132e4575b506040516316308e2560e11b815290861660048201528481602481865afa9081156132d95790879185916132a6575b50916121756131fe61217b9361320495614c33565b91614e89565b92806040518093637817ee4f60e01b82528180613225308b60048401614aa7565b03915afa92831561329a579261325a575b505092613254600080516020615dd683398151915292602095614c33565b92613138565b9080959250813d8311613293575b6132728183614112565b81010312610b35579251613254600080516020615dd6833981519152613236565b503d613268565b604051903d90823e3d90fd5b809250868092503d83116132d2575b6132bf8183614112565b81010312610b35575186906121756131e9565b503d6132b5565b6040513d86823e3d90fd5b60ff169150386131ba565b613307919250873d8911612228576122198183614112565b90386131b4565b6133259150823d8411612255576122478183614112565b38613195565b60019150143861311c565b634e487b7160e01b82526021600452602482fd5b50613354366143f1565b909161335e61480e565b613366614834565b61336f82614a16565b8251830190602093848184031261119757808501516001600160401b039182821161117b57019260a08482031261117f576040519160a0830183811082821117611165576040528685015183526133c86040860161485f565b92878101938452606086015195604082019687526133e86080820161485f565b936060830194855260a0820151908482116111555761340d92908b0191018a016148d3565b6080820190815260ff607654169160038310156137cd5760018093146136b5575b50606f548652607f89526040862080546001600160a01b0398919089161515806136a8575b6136865750613463606e54614850565b9889606e55898852607b8b528860408920968b88558160058901998160018060a01b03199516858c5416178b555116600489019084825416179055511660068701918254161790555182850155600884018260ff1982541617905543600785015585600385015551918251600a85015588600b85019301518051918211613672576134ee845461403e565b601f811161362b575b508990601f83116001146135cb5792829391839289946135c0575b50501b916000199060031b1c19161790555b6010606f5491015582806079541691541690803b1561117f5761355f918391604051808095819463240ff7c560e11b83528a600484016149e5565b039134905af18015610b8b576135ac575b50507ffcf3b1aa65a464cef2889608f99e8b8c0f680a4be6c2acb9d961c536a5a9294b604060685481519081528486820152a160405191168152f35b6135b68291614078565b6103ba5780613570565b015192503880613512565b8488528a8820919083601f1981168a8e5b8883831061361357505050106135fa575b505050811b019055613524565b015160001960f88460031b161c191690553880806135ed565b8686015188559096019594850194879350018e6135dc565b8488528a8820601f840160051c8101918c8510613668575b601f0160051c019084905b82811061365c5750506134f7565b6000815501849061364e565b9091508190613643565b634e487b7160e01b87526041600452602487fd5b6002604491015460405190632c1f8ef160e21b82523460048301526024820152fd5b5060028101543410613453565b85516001600160a01b0391906136cc908316614a85565b604051630ae6240f60e11b8152908b82600481305afa91821561225c579189918493839261378e575b5060249051604051958693849263068bcd8d60e01b84526004840152165afa918215612d9157889261376a575b5060408187511692015116036137585761373c875161510f565b613746573861342e565b604051630efd728560e21b8152600490fd5b60405163514e24c360e11b8152600490fd5b6137879192503d808a833e61377f8183614112565b81019061494e565b9038613722565b92509250508b81813d83116137c6575b6137a88183614112565b81010312612d2157518281168103612d2157829189919060246136f5565b503d61379e565b634e487b7160e01b87526021600452602487fd5b50346103ba5760203660031901126103ba5760406020916004358152607e83522054604051908152f35b50346103ba57806003193601126103ba57608060725460735460745460755491604051938452602084015260408301526060820152f35b50346103ba57806003193601126103ba5761046d33614c40565b50346103ba5760203660031901126103ba576020611c7c60043561543e565b50346103ba5760603660031901126103ba576138956142ea565b61389d614300565b906138a66142d4565b83549260ff8460081c161593848095613a1d575b8015613a06575b156139aa5760ff198116600117865584613999575b50613912604051926138e7846140a6565b600a8452694356537472617465677960b01b602085015261153b60ff885460081c166123e08161478b565b60018060a01b03918260018060a01b0319941684606554161760655560405161394b8161241a6020820194602086526040830190614245565b5190206066551690606a541617606a556139625780f35b61ff001981541681557f7f26b83ff96e1f2b6a682f133852f6798a09c465da95921460cefb3847402498602060405160018152a180f35b61ffff1916610101178555386138d6565b60405162461bcd60e51b815260206004820152602e60248201527f496e697469616c697a61626c653a20636f6e747261637420697320616c72656160448201526d191e481a5b9a5d1a585b1a5e995960921b6064820152608490fd5b50303b1580156138c15750600160ff8216146138c1565b50600160ff8216106138ba565b50346103ba57806003193601126103ba576065546040516001600160a01b039091168152602090f35b50346103ba57806003193601126103ba576020606f54604051908152f35b50346103ba57806003193601126103ba576020604051629896808152f35b50346103ba57806003193601126103ba576020606e54604051908152f35b50346103ba57806003193601126103ba576079546040516001600160a01b039091168152602090f35b50346103ba5760603660031901126103ba576001600160401b039060043582811161119757613b09903690600401614316565b50602491823590811161119757613b249036906004016143d6565b613b2c6142d4565b50613b3561480e565b613b3d614834565b602081805181010312611197576020015191828252607b602052604082209260ff607654166003811015613de957600114613b76578280f35b80845403613dd4576001840191825460695490818111613db35750506008850194600160ff875416613ba781614202565b03613d9c57613bb58361543e565b91845492613bc28461526b565b1180613d93575b613d815760018060a01b039286846065541692606854906040518095819363068bcd8d60e01b835260048301525afa918215612298579160409185938992613d61575b50613c1990606954614c33565b606955015116956004820196868489541687549273eeeeeeeeeeeeeeeeeeeeeeeeeeeeeeeeeeeeeeee8114600014613d21575081809381925af115613d14575b600460ff1982541617905581600581607954169201541690606f548652607f602052600260408720015491813b1561115d57918691613cb0938360405180968195829463099ea56b60e41b84528b600485016150bf565b03925af1801561200a57613cef575b50613ce590600080516020615ed6833981519152949554169254604051938493846150bf565b0390a18038808280f35b90600080516020615ed683398151915294613d0c613ce593614078565b945090613cbf565b63b12d13eb86526004601cfd5b8260109160209560449460145260345263a9059cbb60601b82525af13d156001885114171615613d545785603452613c59565b6390b8ec1886526004601cfd5b613c19919250613d7a903d808c833e61377f8183614112565b9190613c0c565b60405163199cf26160e31b8152600490fd5b50821515613bc9565b5090604051906344980d8f60e01b82526004820152fd5b6064939260405193632c31d85b60e11b855260048501528301526044820152fd5b6040519063c1d17bef60e01b82526004820152fd5b634e487b7160e01b845260216004528284fd5b50346103ba57806003193601126103ba57604090606f548152607f6020522060018060a01b036103b6818354169160018401541692600281015490600381015460056004830154920154926040519687968761428a565b50346103ba57806003193601126103ba576033546040516001600160a01b039091168152602090f35b50346103ba5760203660031901126103ba5760043563ffffffff60e01b81168091036111975760209063f1801e6160e01b8114908115613ec2575b506040519015158152f35b6301ffc9a760e01b14905082613eb7565b50346103ba5760203660031901126103ba576004358152607b60205260408120908154906001830154600284015493600381015460018060a01b0360048301541660018060a01b0360058401541660018060a01b036006850154169060078501549260ff60088701541694613f4a600a8801614135565b604051909b909960608b01906001600160401b0382118c83101761402a57506040908152600c8901548b52600d89015460208c810191909152600e8a01546001600160a01b03168c830152600f8a01546010909a015482519d8e52908d019a909a528b015260608a0152608089015260a088015260c087015260e086015293948594613ff29190613fda81614202565b6101008701526101e08061012088015286019061426a565b835161014086015260208401516101608601526040909301516001600160a01b03166101808501526101a08401526101c08301520390f35b634e487b7160e01b81526041600452602490fd5b90600182811c9216801561406e575b602083101461405857565b634e487b7160e01b600052602260045260246000fd5b91607f169161404d565b6001600160401b03811161116557604052565b60c081019081106001600160401b0382111761116557604052565b604081019081106001600160401b0382111761116557604052565b608081019081106001600160401b0382111761116557604052565b602081019081106001600160401b0382111761116557604052565b606081019081106001600160401b0382111761116557604052565b601f909101601f19168101906001600160401b0382119082101761116557604052565b9060405191614143836140a6565b82815481526001809201916040519283916000918054906141638261403e565b808652918381169081156141d95750600114614190575b5050506020929161418c910384614112565b0152565b909493925060005260209081600020946000915b8183106141c15750939450919250908201018161418c602061417a565b865488840185015295860195879450918301916141a4565b60ff191660208781019190915292151560051b86018301945085935061418c92915061417a9050565b6007111561420c57565b634e487b7160e01b600052602160045260246000fd5b60005b8381106142355750506000910152565b8181015183820152602001614225565b9060209161425e81518092818552858086019101614222565b601f01601f1916010190565b906040602061428793805184520151918160208201520190614245565b90565b9260a09491979695929760c0850198600180881b0380921686521660208501526040840152606083015260808201520152565b6001600160401b0381116111655760051b60200190565b604435906001600160a01b0382168203610b3557565b600435906001600160a01b0382168203610b3557565b602435906001600160a01b0382168203610b3557565b81601f82011215610b355780359161432d836142bd565b9261433b6040519485614112565b808452602092838086019260051b820101928311610b35578301905b828210614365575050505090565b81356001600160a01b0381168103610b35578152908301908301614357565b6001600160401b03811161116557601f01601f191660200190565b9291926143ab82614384565b916143b96040519384614112565b829481845281830111610b35578281602093846000960137010152565b9080601f83011215610b35578160206142879335910161439f565b6040600319820112610b3557600435906001600160401b038211610b355761441b916004016143d6565b906024356001600160a01b0381168103610b355790565b90600482101561420c5752565b90600382101561420c5752565b80548210156109cf5760005260206000200190600090565b60c0906003190112610b35576040519061447d8261408b565b816001600160a01b036004358181168103610b355782526024359081168103610b3557602082015260443560408201526064356060820152608435608082015260a060a435910152565b60809060c3190112610b3557604051906144e0826140c1565b60c435825260e4356020830152610104356040830152610124356060830152565b9181601f84011215610b35578235916001600160401b038311610b355760208381860195010111610b3557565b614536615d1d565b336001600160a01b039091160361454957565b606460405162461bcd60e51b815260206004820152602060248201527f4f776e61626c653a2063616c6c6572206973206e6f7420746865206f776e65726044820152fd5b603380546001600160a01b039283166001600160a01b031982168117909255909116600080516020615e56833981519152600080a3565b156145cb57565b60405162461bcd60e51b815260206004820152602c6024820152600080516020615df683398151915260448201526b19195b1959d85d1958d85b1b60a21b6064820152608490fd5b1561461a57565b60405162461bcd60e51b815260206004820152602c6024820152600080516020615df683398151915260448201526b6163746976652070726f787960a01b6064820152608490fd5b803b1561469757600080516020615e1683398151915280546001600160a01b0319166001600160a01b03909216919091179055565b60405162461bcd60e51b815260206004820152602d60248201527f455243313936373a206e657720696d706c656d656e746174696f6e206973206e60448201526c1bdd08184818dbdb9d1c9858dd609a1b6064820152608490fd5b919290156147545750815115614706575090565b3b1561470f5790565b60405162461bcd60e51b815260206004820152601d60248201527f416464726573733a2063616c6c20746f206e6f6e2d636f6e74726163740000006044820152606490fd5b8251909150156147675750805190602001fd5b60405162461bcd60e51b8152602060048201529081906113a8906024830190614245565b1561479257565b60405162461bcd60e51b815260206004820152602b60248201527f496e697469616c697a61626c653a20636f6e7472616374206973206e6f74206960448201526a6e697469616c697a696e6760a81b6064820152608490fd5b919082018092116147f857565b634e487b7160e01b600052601160045260246000fd5b6065546001600160a01b0316330361482257565b60405163075fd2b160e01b8152600490fd5b6068541561483e57565b604051630f68fe6360e21b8152600490fd5b60001981146147f85760010190565b51906001600160a01b0382168203610b3557565b606080918051845260208101516020850152604081015160408501520151910152565b90815180825260208080930193019160005b8281106148b6575050505090565b83516001600160a01b0316855293810193928101926001016148a8565b9190604083820312610b35576040516148eb816140a6565b83518152602084015190938491906001600160401b038211610b3557019082601f83011215610b355781519161492083614384565b9361492e6040519586614112565b83855260208483010111610b355760209261418c91848087019101614222565b90602082820312610b355781516001600160401b0392838211610b35570160c081830312610b3557604051926149838461408b565b8151845260208201516001600160a01b0381168103610b355760208501526149ad6040830161485f565b60408501526060820151908111610b355760a0926149cc9183016148d3565b606084015260808101516080840152015160a082015290565b9081526001600160a01b03909116602082015260400190565b90816020910312610b3557518015158103610b355790565b60785460405163288c314960e21b81526001600160a01b0392831660048201529160209183916024918391165afa908115614a7957600091614a5b575b5015610b3557565b614a73915060203d8111610b8457610b768183614112565b38614a53565b6040513d6000823e3d90fd5b6001600160a01b031615614a9557565b6040516303988b8160e61b8152600490fd5b6001600160a01b0391821681529116602082015260400190565b607a546001600160a01b03908116908115614b295750614afb9160209160405180809581946302154c3d60e51b8352309060048401614aa7565b03915afa908115614a7957600091614b11575090565b614287915060203d8111610b8457610b768183614112565b90506068549160405192602093848101916810531313d5d31254d560ba1b8352602982015260298152614b5b816140f7565b51902091607854169060405191632474521560e21b92838152846004820152600060248201528581604481855afa908115614a7957600091614bf0575b5015614ba8575050505050600190565b614bc3938593604051958694859384938452600484016149e5565b03915afa918215614a7957600092614bda57505090565b6142879250803d10610b8457610b768183614112565b614c079150863d8811610b8457610b768183614112565b38614b98565b6078546001600160a01b03163303614c2157565b6040516357848b5160e11b8152600490fd5b919082039182116147f857565b60785460408051637817ee4f60e01b81529293926000926001600160a01b0391602091831690828180614c77308c60048401614aa7565b0381855afa8015614e29578690614dfa575b614c969150607154614c33565b607155803b156111615783516322bcf99960e01b81529085908290818381614cc2308e60048401614aa7565b03925af18015614df057614ddd575b50835b828716808652607d83528486208054831015614da05790614cf983614d24949361444c565b9054600391821b1c91828952607b865287892092614d16816150e0565b614d29575b50505050614850565b614cd4565b600080516020615e368339815191529360a093836000526009820189528a6000208c81549155614d796002840191614d62818454614c33565b83556070614d71828254614c33565b9055846153b9565b54910154918a51938452888401528a8a84015260608301526080820152a138808080614d1b565b5050509291907f1468da654b37bb3631011c1917d02e0db437d519918858d40b38b5e980ca033b94951691828152607c84528181205551908152a1565b614de990949194614078565b9238614cd1565b84513d87823e3d90fd5b508281813d8311614e22575b614e108183614112565b8101031261115957614c969051614c89565b503d614e06565b85513d88823e3d90fd5b604091949392606082019560018060a01b0316825260208201520152565b90816020910312610b3557516001600160a01b0381168103610b355790565b90816020910312610b35575160ff81168103610b355790565b604d81116147f857600a0a90565b818102929181159184041417156147f857565b8115614eb4570490565b634e487b7160e01b600052601260045260246000fd5b801561500757614f95816000908360801c80614ffb575b508060401c80614fee575b508060201c80614fe1575b508060101c80614fd4575b508060081c80614fc7575b508060041c80614fba575b508060021c80614fad575b50600191828092811c614fa6575b1c1b614f3d8185614eaa565b01811c614f4a8185614eaa565b01811c614f578185614eaa565b01811c614f648185614eaa565b01811c614f718185614eaa565b01811c614f7e8185614eaa565b01811c614f8b8185614eaa565b01901c8092614eaa565b80821015614fa1575090565b905090565b0181614f31565b6002915091019038614f23565b6004915091019038614f18565b6008915091019038614f0d565b6010915091019038614f02565b6020915091019038614ef7565b6040915091019038614eec565b91505060809038614ee1565b50600090565b906020918281830312610b35578051906001600160401b038211610b35570181601f82011215610b3557805192615043846142bd565b9360409361505385519687614112565b818652828087019260061b85010193818511610b35578301915b84831061507d5750505050505090565b8583830312610b35578386918251615094816140a6565b85518152828601518382015281520192019161506d565b80518210156109cf5760209160051b010190565b9081526001600160a01b039091166020820152604081019190915260600190565b600052607b60205260406000208054151590816150fb575090565b600501546001600160a01b03161515919050565b61511e60725460695490614e97565b62989680918281029281840414901517156147f857111590565b919091600083820193841291129080158216911516176147f857565b61515e8282615138565b916000831261516c57505090565b9160649260405192631dde38a160e11b8452600484015260248301526044820152fd5b9091607454906298968093848360801b0490600160801b9182811015615259578583965b6152185750506151c39085614e97565b93858302928084048714901517156147f85781039081116147f8576151e791614e97565b9083039283116147f857615204926151fe91614eaa565b906147eb565b6001607f1b81019081106147f85760801c90565b600191818316615238578061522c91615376565b911c90815b90916151b3565b8092506152459197615376565b9560001981019081116147f8579081615231565b604051633e668d0360e01b8152600490fd5b60695480156153645761527d8261510f565b61374657607254604081901b92600160401b92918015908504841417156147f8578060401b9281840414901517156147f8576152bf6152cb916152e693614eaa565b62989680809404614c33565b6152dd8360735460801b049180614e97565b60401c90614eaa565b818102908082048314901517156147f85760745482038281116147f85761530c91614eaa565b9061531a6071548093614e97565b60401c918061532857505090565b61533481607554614eaa565b8281029281840414901517156147f85764174876e800916121756153579261546c565b0480821115614fa1575090565b60405163ed4421ad60e01b8152600490fd5b90600160801b8083116153a45781116153925761520491614e97565b6040516370b7a2d960e01b8152600490fd5b604051600162a4c31160e01b03198152600490fd5b906153c490826153eb565b90918215806153e3575b6153de5760039160078201550155565b505050565b5081156153ce565b43916007820154918383116154285783831461541c5760036154106154199486614c33565b9101549061518f565b91565b50505050600090600090565b634e487b7160e01b600052600160045260246000fd5b80600052607b602052604060002090808254036106cf57508061546760026003930154826153b9565b015490565b62989680808202918083048214901517156147f85760745481039081116147f85761428791614eaa565b607854604051633629edcd60e11b81526001600160a01b03916020908290600490829086165afa908115614a79576000916154e8575b501633036154d657565b604051637430763f60e11b8152600490fd5b615500915060203d8111612255576122478183614112565b386154cc565b906155109161553b565b805161552c575b5080516155215750565b61552a90615ace565b565b6155359061586f565b38615517565b60208181018051919290916001600160a01b039060009082168015159081615819575b81615777575b506155ac575b5050505081608091600080516020615d968339815191529351607255810151607355604081015160745560608101516075556155a96040518092614873565ba1565b606f548152607f85526040908181208360018201541690848088511680931491821592615765575b505061569c575b5093600560809694600080516020615e96833981519152948460e095600080516020615d968339815191529b99615613606f54614850565b80606f558152607f8a522091808451169560018060a01b0319918783865416178555600185019151168092825416179055818401519182600285015560608501519384600382015560a08d8701519687600484015501519687910155606f549681519788528a88015286015260608501528884015260a083015260c0820152a19181933861556a565b8385511690813b1561117f578291602483928651948593849263446adb9960e11b845260048401525af1801561575b5794600080516020615e96833981519152948460e095600080516020615d968339815191529b999560059560809c9a61574c575b507fdc20f5c479493aac0cf803ca3b82ebc1964faa557450a37ea0a8121b0e98454f60608b86885116878b51169086519230845283015285820152a195999b5050945094509496506155db565b61575590614078565b386156ff565b83513d84823e3d90fd5b909150541684865116141584386155d4565b606f548352607f8752604083206001810154851690911480159250615807575b81156157f4575b81156157e1575b81156157ce575b81156157ba575b5038615564565b9050600560a08501519101541415386157b3565b60808501516004820154141591506157ac565b60608501516003820154141591506157a5565b604085015160028201541415915061579e565b90508284511683825416141590615797565b845184161515915061555e565b908060209392818452848401376000828201840152601f01601f1916010190565b9081526001600160a01b03918216602082015291166040820152606081019190915260800190565b6068918254926000926040908151956020968781016810531313d5d31254d560ba1b91828252602993848201528381526158a8816140f7565b5190209760018060a01b0392607896848854169a875198632474521560e21b9c8d8b5260049a838c8201528d60248201528681604481855afa9081156159da578e91615ab1575b50615a60575b508b5b8851811015615a135788838f8d899161592c8f8e61591a89828c5416996150ab565b511690519586948594855284016149e5565b0381855afa908115615a07578f916159ea575b5015615955575b5061595090614850565b6158f8565b84548b51888101918a835288820152878152615970816140f7565b519020908961597f848d6150ab565b511691813b156159e657918f916159ae938f8f9085915196879586948593632f2ff15d60e01b855284016149e5565b03925af180156159da57908e916159c6575b50615946565b6159cf90614078565b61303b578c386159c0565b8e8c51903d90823e3d90fd5b8f80fd5b615a019150883d8a11610b8457610b768183614112565b3861593f565b8f8d51903d90823e3d90fd5b505050935050959750507f7a2e396a5614184c0af2c60827c206595126faa1238b94e19823192de52e728a9550615a5b92935054928080519586958652850152830190614896565b0390a1565b803b1561303b578c8360448d838e51958694859363d547741f60e01b85528401528160248401525af18015615aa757156158f557615aa0909c919c614078565b9a386158f5565b8a513d8f823e3d90fd5b615ac89150873d8911610b8457610b768183614112565b386158ef565b6000915b8151831015615c385760018060a01b03928360785416938360685495604096875160209081810192615b4e8388615b318b6810531313d5d31254d560ba1b988981526029978789820152888152615b28816140f7565b5190209a6150ab565b51168d5180938192632474521560e21b835260049b8c84016149e5565b0381895afa908115615c2d57600091615c10575b50615b82575b50505050505050615b7b91929350614850565b9190615ad2565b8a51928301938452818301528152615b99816140f7565b51902092615ba785886150ab565b511690803b15610b3557615bd393600080948a519687958694859363d547741f60e01b855284016149e5565b03925af18015615c0557615b7b93949550615bf6575b8493928180808080615b68565b615bff90614078565b38615be9565b85513d6000823e3d90fd5b615c279150843d8611610b8457610b768183614112565b38615b62565b8c513d6000823e3d90fd5b91507fd418c93b6b78d828a87ee1909e6fcdbbf2f8d8f540ad7b232bb3e221e6d7cc1e90606854615a5b6040519283928352604060208401526040830190614896565b60018060a01b0390600482607a54166020846078541660405193848092633629edcd60e11b82525afa918215614a7957600092615cfd575b50803b15610b355760009283606492604051968795869463fc2ebdd160e01b865230600487015260248601521660448401525af18015614a7957615cf45750565b61552a90614078565b615d1691925060203d8111612255576122478183614112565b9038615cb3565b6033546001600160a01b0316803b615d325790565b604051638da5cb5b60e01b8152602081600481855afa60009181615d5a575b50614fa1575090565b90916020823d8211615d8d575b81615d7460209383614112565b810103126103ba5750615d869061485f565b9038615d51565b3d9150615d6756feec9315d9f4291207475c061feff1e5d7105750ac0ee9534af9444b4ff1dab9bc4910fdfa16fed3260ed0e7147f7cc6da11a60208b5b9406d12a635614ffd914370b752f3fadb6ac131c0ece847fcbb6994ec56ed6411595710fd9b29c6ac6cc146756e6374696f6e206d7573742062652063616c6c6564207468726f75676820360894a13ba1a3210667c828492db98dca3e2076cc3735a920a3ca505d382bbc0227f642ddcf2042ceaeafadb9d540f432072c00cd4862881667168dcc14710f8be0079c531659141344cd1fd0a4f28419497f9722a3daafe3b4186f6b6457e0bc7cd75a20ee27fd9adebab32041f755214dbc6bffa90cc0225b39da2e5c2d3be677e2878aaaaf6a65ecf50f849ad58100c49f6dfd57d055ba4bddd63a175d5345524331393637557067726164653a206e657720696d706c656d656e74617469a7932e9c92f31e1ed56b29d00bbe669a97484dc24de28dd9c8c0429df7f35847a26469706673582212207242d101b2a04c78139d825f6d44048c4fae9e3bd1500ddf2e0cf1e928352ac264736f6c63430008130033","linkReferences":{}},"methodIdentifiers":{"D()":"0f529ba2","DISPUTE_COOLDOWN_SEC()":"f5be3f7c","MAX_STAKED_PROPOSALS()":"406244d8","NATIVE()":"a0cf0aea","RULING_OPTIONS()":"626c47e8","VERSION()":"ffa1ad74","activatePoints()":"814516ad","addToAllowList(address[])":"7263cfe2","allocate(bytes,address)":"ef2920fc","arbitrableConfigs(uint256)":"41bb7605","calculateConviction(uint256,uint256,uint256)":"346db8cb","calculateThreshold(uint256)":"59a5db8b","canExecuteProposal(uint256)":"824ea8ed","cancelProposal(uint256)":"e0a8f6f5","cloneNonce()":"33960459","collateralVault()":"0bece79c","currentArbitrableConfigVersion()":"125fd1d9","cvParams()":"2506b870","deactivatePoints()":"1ddf1e23","deactivatePoints(address)":"6453d9c4","decreasePower(address,uint256)":"2ed04b2b","disputeCount()":"a28889e1","disputeIdToProposalId(uint256)":"255ffb38","disputeProposal(uint256,string,bytes)":"b41596ec","distribute(address[],bytes,address)":"0a6f0ee9","getAllo()":"15cc481e","getArbitrableConfig()":"059351cd","getMaxAmount()":"0ba95909","getMaxConviction(uint256)":"950559d7","getMetadata(uint256)":"a574cea4","getPayouts(address[],bytes[])":"b2b878d0","getPointSystem()":"c3292171","getPoolAmount()":"4ab4ba42","getPoolId()":"38fff2d0","getProposal(uint256)":"c7f758a8","getProposalStakedAmount(uint256)":"dc96ff2d","getProposalVoterStake(uint256,address)":"e0dd2c38","getRecipientStatus(address)":"eb11af93","getStrategyId()":"42fda9c7","getTotalVoterStakePct(address)":"bcc5b93b","increasePoolAmount(uint256)":"f5b0dfb7","increasePower(address,uint256)":"782aadff","init(address,address,address)":"184b9559","init(address,string,address)":"60d5dedc","initialize(address)":"c4d66de8","initialize(uint256,bytes)":"edd146cc","isPoolActive()":"df868ed3","isValidAllocator(address)":"4d31d087","owner()":"8da5cb5b","pointConfig()":"a47ff7e5","pointSystem()":"2dbd6fdd","proposalCounter()":"0c0512e9","proposalType()":"351d9f96","proposals(uint256)":"013cf08b","proxiableUUID()":"52d1902d","proxyOwner()":"025313a2","registerRecipient(bytes,address)":"2bbe0cae","registryCommunity()":"6003e414","removeFromAllowList(address[])":"a51312c8","renounceOwnership()":"715018a6","rule(uint256,uint256)":"311a6c56","setCollateralVaultTemplate(address)":"b0d3713a","setPoolActive(bool)":"b5f620ce","setPoolParams((address,address,uint256,uint256,uint256,uint256),(uint256,uint256,uint256,uint256),address[],address[])":"948e7a59","setPoolParams((address,address,uint256,uint256,uint256,uint256),(uint256,uint256,uint256,uint256),uint256)":"ad56fd5d","setSybilScorer(address,uint256)":"3864d366","supportsInterface(bytes4)":"01ffc9a7","sybilScorer()":"b6c61f31","totalEffectiveActivePoints()":"d1e36232","totalPointsActivated()":"aba9ffee","totalStaked()":"817b1cd2","totalVoterStakePct(address)":"5db64b99","transferOwnership(address)":"f2fde38b","updateProposalConviction(uint256)":"1aa91a9e","upgradeTo(address)":"3659cfe6","upgradeToAndCall(address,bytes)":"4f1ef286","voterStakedProposals(address,uint256)":"868c57b8"},"storageLayout":{"storage":[{"astId":52287,"contract":"pkg/contracts/src/CVStrategy/CVStrategyV0_0.sol:CVStrategyV0_0","label":"_initialized","offset":0,"slot":"0","type":"t_uint8"},{"astId":52290,"contract":"pkg/contracts/src/CVStrategy/CVStrategyV0_0.sol:CVStrategyV0_0","label":"_initializing","offset":1,"slot":"0","type":"t_bool"},{"astId":52992,"contract":"pkg/contracts/src/CVStrategy/CVStrategyV0_0.sol:CVStrategyV0_0","label":"__gap","offset":0,"slot":"1","type":"t_array(t_uint256)50_storage"},{"astId":52079,"contract":"pkg/contracts/src/CVStrategy/CVStrategyV0_0.sol:CVStrategyV0_0","label":"_owner","offset":0,"slot":"51","type":"t_address"},{"astId":52199,"contract":"pkg/contracts/src/CVStrategy/CVStrategyV0_0.sol:CVStrategyV0_0","label":"__gap","offset":0,"slot":"52","type":"t_array(t_uint256)49_storage"},{"astId":64740,"contract":"pkg/contracts/src/CVStrategy/CVStrategyV0_0.sol:CVStrategyV0_0","label":"allo","offset":0,"slot":"101","type":"t_contract(IAllo)2610"},{"astId":64742,"contract":"pkg/contracts/src/CVStrategy/CVStrategyV0_0.sol:CVStrategyV0_0","label":"strategyId","offset":0,"slot":"102","type":"t_bytes32"},{"astId":64744,"contract":"pkg/contracts/src/CVStrategy/CVStrategyV0_0.sol:CVStrategyV0_0","label":"poolActive","offset":0,"slot":"103","type":"t_bool"},{"astId":64746,"contract":"pkg/contracts/src/CVStrategy/CVStrategyV0_0.sol:CVStrategyV0_0","label":"poolId","offset":0,"slot":"104","type":"t_uint256"},{"astId":64748,"contract":"pkg/contracts/src/CVStrategy/CVStrategyV0_0.sol:CVStrategyV0_0","label":"poolAmount","offset":0,"slot":"105","type":"t_uint256"},{"astId":65815,"contract":"pkg/contracts/src/CVStrategy/CVStrategyV0_0.sol:CVStrategyV0_0","label":"collateralVaultTemplate","offset":0,"slot":"106","type":"t_address"},{"astId":65817,"contract":"pkg/contracts/src/CVStrategy/CVStrategyV0_0.sol:CVStrategyV0_0","label":"surpressStateMutabilityWarning","offset":0,"slot":"107","type":"t_uint256"},{"astId":65819,"contract":"pkg/contracts/src/CVStrategy/CVStrategyV0_0.sol:CVStrategyV0_0","label":"cloneNonce","offset":0,"slot":"108","type":"t_uint256"},{"astId":65821,"contract":"pkg/contracts/src/CVStrategy/CVStrategyV0_0.sol:CVStrategyV0_0","label":"disputeCount","offset":0,"slot":"109","type":"t_uint64"},{"astId":65823,"contract":"pkg/contracts/src/CVStrategy/CVStrategyV0_0.sol:CVStrategyV0_0","label":"proposalCounter","offset":0,"slot":"110","type":"t_uint256"},{"astId":65825,"contract":"pkg/contracts/src/CVStrategy/CVStrategyV0_0.sol:CVStrategyV0_0","label":"currentArbitrableConfigVersion","offset":0,"slot":"111","type":"t_uint256"},{"astId":65827,"contract":"pkg/contracts/src/CVStrategy/CVStrategyV0_0.sol:CVStrategyV0_0","label":"totalStaked","offset":0,"slot":"112","type":"t_uint256"},{"astId":65829,"contract":"pkg/contracts/src/CVStrategy/CVStrategyV0_0.sol:CVStrategyV0_0","label":"totalPointsActivated","offset":0,"slot":"113","type":"t_uint256"},{"astId":65832,"contract":"pkg/contracts/src/CVStrategy/CVStrategyV0_0.sol:CVStrategyV0_0","label":"cvParams","offset":0,"slot":"114","type":"t_struct(CVParams)65503_storage"},{"astId":65835,"contract":"pkg/contracts/src/CVStrategy/CVStrategyV0_0.sol:CVStrategyV0_0","label":"proposalType","offset":0,"slot":"118","type":"t_enum(ProposalType)65406"},{"astId":65838,"contract":"pkg/contracts/src/CVStrategy/CVStrategyV0_0.sol:CVStrategyV0_0","label":"pointSystem","offset":1,"slot":"118","type":"t_enum(PointSystem)65411"},{"astId":65841,"contract":"pkg/contracts/src/CVStrategy/CVStrategyV0_0.sol:CVStrategyV0_0","label":"pointConfig","offset":0,"slot":"119","type":"t_struct(PointSystemConfig)65480_storage"},{"astId":65844,"contract":"pkg/contracts/src/CVStrategy/CVStrategyV0_0.sol:CVStrategyV0_0","label":"registryCommunity","offset":0,"slot":"120","type":"t_contract(RegistryCommunityV0_0)72709"},{"astId":65847,"contract":"pkg/contracts/src/CVStrategy/CVStrategyV0_0.sol:CVStrategyV0_0","label":"collateralVault","offset":0,"slot":"121","type":"t_contract(ICollateralVault)74193"},{"astId":65850,"contract":"pkg/contracts/src/CVStrategy/CVStrategyV0_0.sol:CVStrategyV0_0","label":"sybilScorer","offset":0,"slot":"122","type":"t_contract(ISybilScorer)69805"},{"astId":65855,"contract":"pkg/contracts/src/CVStrategy/CVStrategyV0_0.sol:CVStrategyV0_0","label":"proposals","offset":0,"slot":"123","type":"t_mapping(t_uint256,t_struct(Proposal)65472_storage)"},{"astId":65859,"contract":"pkg/contracts/src/CVStrategy/CVStrategyV0_0.sol:CVStrategyV0_0","label":"totalVoterStakePct","offset":0,"slot":"124","type":"t_mapping(t_address,t_uint256)"},{"astId":65864,"contract":"pkg/contracts/src/CVStrategy/CVStrategyV0_0.sol:CVStrategyV0_0","label":"voterStakedProposals","offset":0,"slot":"125","type":"t_mapping(t_address,t_array(t_uint256)dyn_storage)"},{"astId":65868,"contract":"pkg/contracts/src/CVStrategy/CVStrategyV0_0.sol:CVStrategyV0_0","label":"disputeIdToProposalId","offset":0,"slot":"126","type":"t_mapping(t_uint256,t_uint256)"},{"astId":65873,"contract":"pkg/contracts/src/CVStrategy/CVStrategyV0_0.sol:CVStrategyV0_0","label":"arbitrableConfigs","offset":0,"slot":"127","type":"t_mapping(t_uint256,t_struct(ArbitrableConfig)65494_storage)"},{"astId":69456,"contract":"pkg/contracts/src/CVStrategy/CVStrategyV0_0.sol:CVStrategyV0_0","label":"__gap","offset":0,"slot":"128","type":"t_array(t_uint256)50_storage"}],"types":{"t_address":{"encoding":"inplace","label":"address","numberOfBytes":"20"},"t_array(t_uint256)49_storage":{"encoding":"inplace","label":"uint256[49]","numberOfBytes":"1568","base":"t_uint256"},"t_array(t_uint256)50_storage":{"encoding":"inplace","label":"uint256[50]","numberOfBytes":"1600","base":"t_uint256"},"t_array(t_uint256)dyn_storage":{"encoding":"dynamic_array","label":"uint256[]","numberOfBytes":"32","base":"t_uint256"},"t_bool":{"encoding":"inplace","label":"bool","numberOfBytes":"1"},"t_bytes32":{"encoding":"inplace","label":"bytes32","numberOfBytes":"32"},"t_contract(IAllo)2610":{"encoding":"inplace","label":"contract IAllo","numberOfBytes":"20"},"t_contract(IArbitrator)74160":{"encoding":"inplace","label":"contract IArbitrator","numberOfBytes":"20"},"t_contract(ICollateralVault)74193":{"encoding":"inplace","label":"contract ICollateralVault","numberOfBytes":"20"},"t_contract(ISybilScorer)69805":{"encoding":"inplace","label":"contract ISybilScorer","numberOfBytes":"20"},"t_contract(RegistryCommunityV0_0)72709":{"encoding":"inplace","label":"contract RegistryCommunityV0_0","numberOfBytes":"20"},"t_enum(PointSystem)65411":{"encoding":"inplace","label":"enum PointSystem","numberOfBytes":"1"},"t_enum(ProposalStatus)65431":{"encoding":"inplace","label":"enum ProposalStatus","numberOfBytes":"1"},"t_enum(ProposalType)65406":{"encoding":"inplace","label":"enum ProposalType","numberOfBytes":"1"},"t_mapping(t_address,t_array(t_uint256)dyn_storage)":{"encoding":"mapping","key":"t_address","label":"mapping(address => uint256[])","numberOfBytes":"32","value":"t_array(t_uint256)dyn_storage"},"t_mapping(t_address,t_uint256)":{"encoding":"mapping","key":"t_address","label":"mapping(address => uint256)","numberOfBytes":"32","value":"t_uint256"},"t_mapping(t_uint256,t_struct(ArbitrableConfig)65494_storage)":{"encoding":"mapping","key":"t_uint256","label":"mapping(uint256 => struct ArbitrableConfig)","numberOfBytes":"32","value":"t_struct(ArbitrableConfig)65494_storage"},"t_mapping(t_uint256,t_struct(Proposal)65472_storage)":{"encoding":"mapping","key":"t_uint256","label":"mapping(uint256 => struct Proposal)","numberOfBytes":"32","value":"t_struct(Proposal)65472_storage"},"t_mapping(t_uint256,t_uint256)":{"encoding":"mapping","key":"t_uint256","label":"mapping(uint256 => uint256)","numberOfBytes":"32","value":"t_uint256"},"t_string_storage":{"encoding":"bytes","label":"string","numberOfBytes":"32"},"t_struct(ArbitrableConfig)65494_storage":{"encoding":"inplace","label":"struct ArbitrableConfig","numberOfBytes":"192","members":[{"astId":65483,"contract":"pkg/contracts/src/CVStrategy/CVStrategyV0_0.sol:CVStrategyV0_0","label":"arbitrator","offset":0,"slot":"0","type":"t_contract(IArbitrator)74160"},{"astId":65485,"contract":"pkg/contracts/src/CVStrategy/CVStrategyV0_0.sol:CVStrategyV0_0","label":"tribunalSafe","offset":0,"slot":"1","type":"t_address"},{"astId":65487,"contract":"pkg/contracts/src/CVStrategy/CVStrategyV0_0.sol:CVStrategyV0_0","label":"submitterCollateralAmount","offset":0,"slot":"2","type":"t_uint256"},{"astId":65489,"contract":"pkg/contracts/src/CVStrategy/CVStrategyV0_0.sol:CVStrategyV0_0","label":"challengerCollateralAmount","offset":0,"slot":"3","type":"t_uint256"},{"astId":65491,"contract":"pkg/contracts/src/CVStrategy/CVStrategyV0_0.sol:CVStrategyV0_0","label":"defaultRuling","offset":0,"slot":"4","type":"t_uint256"},{"astId":65493,"contract":"pkg/contracts/src/CVStrategy/CVStrategyV0_0.sol:CVStrategyV0_0","label":"defaultRulingTimeout","offset":0,"slot":"5","type":"t_uint256"}]},"t_struct(CVParams)65503_storage":{"encoding":"inplace","label":"struct CVParams","numberOfBytes":"128","members":[{"astId":65496,"contract":"pkg/contracts/src/CVStrategy/CVStrategyV0_0.sol:CVStrategyV0_0","label":"maxRatio","offset":0,"slot":"0","type":"t_uint256"},{"astId":65498,"contract":"pkg/contracts/src/CVStrategy/CVStrategyV0_0.sol:CVStrategyV0_0","label":"weight","offset":0,"slot":"1","type":"t_uint256"},{"astId":65500,"contract":"pkg/contracts/src/CVStrategy/CVStrategyV0_0.sol:CVStrategyV0_0","label":"decay","offset":0,"slot":"2","type":"t_uint256"},{"astId":65502,"contract":"pkg/contracts/src/CVStrategy/CVStrategyV0_0.sol:CVStrategyV0_0","label":"minThresholdPoints","offset":0,"slot":"3","type":"t_uint256"}]},"t_struct(Metadata)3098_storage":{"encoding":"inplace","label":"struct Metadata","numberOfBytes":"64","members":[{"astId":3094,"contract":"pkg/contracts/src/CVStrategy/CVStrategyV0_0.sol:CVStrategyV0_0","label":"protocol","offset":0,"slot":"0","type":"t_uint256"},{"astId":3097,"contract":"pkg/contracts/src/CVStrategy/CVStrategyV0_0.sol:CVStrategyV0_0","label":"pointer","offset":0,"slot":"1","type":"t_string_storage"}]},"t_struct(PointSystemConfig)65480_storage":{"encoding":"inplace","label":"struct PointSystemConfig","numberOfBytes":"32","members":[{"astId":65479,"contract":"pkg/contracts/src/CVStrategy/CVStrategyV0_0.sol:CVStrategyV0_0","label":"maxAmount","offset":0,"slot":"0","type":"t_uint256"}]},"t_struct(Proposal)65472_storage":{"encoding":"inplace","label":"struct Proposal","numberOfBytes":"544","members":[{"astId":65440,"contract":"pkg/contracts/src/CVStrategy/CVStrategyV0_0.sol:CVStrategyV0_0","label":"proposalId","offset":0,"slot":"0","type":"t_uint256"},{"astId":65442,"contract":"pkg/contracts/src/CVStrategy/CVStrategyV0_0.sol:CVStrategyV0_0","label":"requestedAmount","offset":0,"slot":"1","type":"t_uint256"},{"astId":65444,"contract":"pkg/contracts/src/CVStrategy/CVStrategyV0_0.sol:CVStrategyV0_0","label":"stakedAmount","offset":0,"slot":"2","type":"t_uint256"},{"astId":65446,"contract":"pkg/contracts/src/CVStrategy/CVStrategyV0_0.sol:CVStrategyV0_0","label":"convictionLast","offset":0,"slot":"3","type":"t_uint256"},{"astId":65448,"contract":"pkg/contracts/src/CVStrategy/CVStrategyV0_0.sol:CVStrategyV0_0","label":"beneficiary","offset":0,"slot":"4","type":"t_address"},{"astId":65450,"contract":"pkg/contracts/src/CVStrategy/CVStrategyV0_0.sol:CVStrategyV0_0","label":"submitter","offset":0,"slot":"5","type":"t_address"},{"astId":65452,"contract":"pkg/contracts/src/CVStrategy/CVStrategyV0_0.sol:CVStrategyV0_0","label":"requestedToken","offset":0,"slot":"6","type":"t_address"},{"astId":65454,"contract":"pkg/contracts/src/CVStrategy/CVStrategyV0_0.sol:CVStrategyV0_0","label":"blockLast","offset":0,"slot":"7","type":"t_uint256"},{"astId":65457,"contract":"pkg/contracts/src/CVStrategy/CVStrategyV0_0.sol:CVStrategyV0_0","label":"proposalStatus","offset":0,"slot":"8","type":"t_enum(ProposalStatus)65431"},{"astId":65461,"contract":"pkg/contracts/src/CVStrategy/CVStrategyV0_0.sol:CVStrategyV0_0","label":"voterStakedPoints","offset":0,"slot":"9","type":"t_mapping(t_address,t_uint256)"},{"astId":65464,"contract":"pkg/contracts/src/CVStrategy/CVStrategyV0_0.sol:CVStrategyV0_0","label":"metadata","offset":0,"slot":"10","type":"t_struct(Metadata)3098_storage"},{"astId":65467,"contract":"pkg/contracts/src/CVStrategy/CVStrategyV0_0.sol:CVStrategyV0_0","label":"disputeInfo","offset":0,"slot":"12","type":"t_struct(ProposalDisputeInfo)65438_storage"},{"astId":65469,"contract":"pkg/contracts/src/CVStrategy/CVStrategyV0_0.sol:CVStrategyV0_0","label":"lastDisputeCompletion","offset":0,"slot":"15","type":"t_uint256"},{"astId":65471,"contract":"pkg/contracts/src/CVStrategy/CVStrategyV0_0.sol:CVStrategyV0_0","label":"arbitrableConfigVersion","offset":0,"slot":"16","type":"t_uint256"}]},"t_struct(ProposalDisputeInfo)65438_storage":{"encoding":"inplace","label":"struct ProposalDisputeInfo","numberOfBytes":"96","members":[{"astId":65433,"contract":"pkg/contracts/src/CVStrategy/CVStrategyV0_0.sol:CVStrategyV0_0","label":"disputeId","offset":0,"slot":"0","type":"t_uint256"},{"astId":65435,"contract":"pkg/contracts/src/CVStrategy/CVStrategyV0_0.sol:CVStrategyV0_0","label":"disputeTimestamp","offset":0,"slot":"1","type":"t_uint256"},{"astId":65437,"contract":"pkg/contracts/src/CVStrategy/CVStrategyV0_0.sol:CVStrategyV0_0","label":"challenger","offset":0,"slot":"2","type":"t_address"}]},"t_uint256":{"encoding":"inplace","label":"uint256","numberOfBytes":"32"},"t_uint64":{"encoding":"inplace","label":"uint64","numberOfBytes":"8"},"t_uint8":{"encoding":"inplace","label":"uint8","numberOfBytes":"1"}}},"id":97}