{"abi":[{"type":"function","name":"D","inputs":[],"outputs":[{"name":"","type":"uint256","internalType":"uint256"}],"stateMutability":"view"},{"type":"function","name":"DISPUTE_COOLDOWN_SEC","inputs":[],"outputs":[{"name":"","type":"uint256","internalType":"uint256"}],"stateMutability":"view"},{"type":"function","name":"MAX_STAKED_PROPOSALS","inputs":[],"outputs":[{"name":"","type":"uint256","internalType":"uint256"}],"stateMutability":"view"},{"type":"function","name":"NATIVE","inputs":[],"outputs":[{"name":"","type":"address","internalType":"address"}],"stateMutability":"view"},{"type":"function","name":"RULING_OPTIONS","inputs":[],"outputs":[{"name":"","type":"uint256","internalType":"uint256"}],"stateMutability":"view"},{"type":"function","name":"VERSION","inputs":[],"outputs":[{"name":"","type":"string","internalType":"string"}],"stateMutability":"view"},{"type":"function","name":"activatePoints","inputs":[],"outputs":[],"stateMutability":"nonpayable"},{"type":"function","name":"addToAllowList","inputs":[{"name":"members","type":"address[]","internalType":"address[]"}],"outputs":[],"stateMutability":"nonpayable"},{"type":"function","name":"allocate","inputs":[{"name":"_data","type":"bytes","internalType":"bytes"},{"name":"_sender","type":"address","internalType":"address"}],"outputs":[],"stateMutability":"payable"},{"type":"function","name":"arbitrableConfigs","inputs":[{"name":"","type":"uint256","internalType":"uint256"}],"outputs":[{"name":"arbitrator","type":"address","internalType":"contract IArbitrator"},{"name":"tribunalSafe","type":"address","internalType":"address"},{"name":"submitterCollateralAmount","type":"uint256","internalType":"uint256"},{"name":"challengerCollateralAmount","type":"uint256","internalType":"uint256"},{"name":"defaultRuling","type":"uint256","internalType":"uint256"},{"name":"defaultRulingTimeout","type":"uint256","internalType":"uint256"}],"stateMutability":"view"},{"type":"function","name":"calculateConviction","inputs":[{"name":"_timePassed","type":"uint256","internalType":"uint256"},{"name":"_lastConv","type":"uint256","internalType":"uint256"},{"name":"_oldAmount","type":"uint256","internalType":"uint256"}],"outputs":[{"name":"","type":"uint256","internalType":"uint256"}],"stateMutability":"view"},{"type":"function","name":"calculateProposalConviction","inputs":[{"name":"_proposalId","type":"uint256","internalType":"uint256"}],"outputs":[{"name":"","type":"uint256","internalType":"uint256"}],"stateMutability":"view"},{"type":"function","name":"calculateThreshold","inputs":[{"name":"_requestedAmount","type":"uint256","internalType":"uint256"}],"outputs":[{"name":"_threshold","type":"uint256","internalType":"uint256"}],"stateMutability":"view"},{"type":"function","name":"calculateThresholdOverride","inputs":[],"outputs":[{"name":"","type":"uint256","internalType":"uint256"}],"stateMutability":"view"},{"type":"function","name":"canExecuteProposal","inputs":[{"name":"proposalId","type":"uint256","internalType":"uint256"}],"outputs":[{"name":"canBeExecuted","type":"bool","internalType":"bool"}],"stateMutability":"view"},{"type":"function","name":"cancelProposal","inputs":[{"name":"proposalId","type":"uint256","internalType":"uint256"}],"outputs":[],"stateMutability":"nonpayable"},{"type":"function","name":"cloneNonce","inputs":[],"outputs":[{"name":"","type":"uint256","internalType":"uint256"}],"stateMutability":"view"},{"type":"function","name":"collateralVault","inputs":[],"outputs":[{"name":"","type":"address","internalType":"contract ICollateralVault"}],"stateMutability":"view"},{"type":"function","name":"currentArbitrableConfigVersion","inputs":[],"outputs":[{"name":"","type":"uint256","internalType":"uint256"}],"stateMutability":"view"},{"type":"function","name":"cvParams","inputs":[],"outputs":[{"name":"maxRatio","type":"uint256","internalType":"uint256"},{"name":"weight","type":"uint256","internalType":"uint256"},{"name":"decay","type":"uint256","internalType":"uint256"},{"name":"minThresholdPoints","type":"uint256","internalType":"uint256"}],"stateMutability":"view"},{"type":"function","name":"deactivatePoints","inputs":[],"outputs":[],"stateMutability":"nonpayable"},{"type":"function","name":"deactivatePoints","inputs":[{"name":"_member","type":"address","internalType":"address"}],"outputs":[],"stateMutability":"nonpayable"},{"type":"function","name":"decreasePower","inputs":[{"name":"_member","type":"address","internalType":"address"},{"name":"_amountToUnstake","type":"uint256","internalType":"uint256"}],"outputs":[{"name":"","type":"uint256","internalType":"uint256"}],"stateMutability":"nonpayable"},{"type":"function","name":"disputeCount","inputs":[],"outputs":[{"name":"","type":"uint64","internalType":"uint64"}],"stateMutability":"view"},{"type":"function","name":"disputeIdToProposalId","inputs":[{"name":"","type":"uint256","internalType":"uint256"}],"outputs":[{"name":"","type":"uint256","internalType":"uint256"}],"stateMutability":"view"},{"type":"function","name":"disputeProposal","inputs":[{"name":"proposalId","type":"uint256","internalType":"uint256"},{"name":"context","type":"string","internalType":"string"},{"name":"_extraData","type":"bytes","internalType":"bytes"}],"outputs":[{"name":"disputeId","type":"uint256","internalType":"uint256"}],"stateMutability":"payable"},{"type":"function","name":"distribute","inputs":[{"name":"_recipientIds","type":"address[]","internalType":"address[]"},{"name":"_data","type":"bytes","internalType":"bytes"},{"name":"_sender","type":"address","internalType":"address"}],"outputs":[],"stateMutability":"nonpayable"},{"type":"function","name":"getAllo","inputs":[],"outputs":[{"name":"","type":"address","internalType":"contract IAllo"}],"stateMutability":"view"},{"type":"function","name":"getArbitrableConfig","inputs":[],"outputs":[{"name":"arbitrator","type":"address","internalType":"contract IArbitrator"},{"name":"tribunalSafe","type":"address","internalType":"address"},{"name":"submitterCollateralAmount","type":"uint256","internalType":"uint256"},{"name":"challengerCollateralAmount","type":"uint256","internalType":"uint256"},{"name":"defaultRuling","type":"uint256","internalType":"uint256"},{"name":"defaultRulingTimeout","type":"uint256","internalType":"uint256"}],"stateMutability":"view"},{"type":"function","name":"getMaxConviction","inputs":[{"name":"amount","type":"uint256","internalType":"uint256"}],"outputs":[{"name":"","type":"uint256","internalType":"uint256"}],"stateMutability":"view"},{"type":"function","name":"getPayouts","inputs":[{"name":"","type":"address[]","internalType":"address[]"},{"name":"","type":"bytes[]","internalType":"bytes[]"}],"outputs":[{"name":"","type":"tuple[]","internalType":"struct IStrategy.PayoutSummary[]","components":[{"name":"recipientAddress","type":"address","internalType":"address"},{"name":"amount","type":"uint256","internalType":"uint256"}]}],"stateMutability":"pure"},{"type":"function","name":"getPointSystem","inputs":[],"outputs":[{"name":"","type":"uint8","internalType":"enum PointSystem"}],"stateMutability":"view"},{"type":"function","name":"getPoolAmount","inputs":[],"outputs":[{"name":"","type":"uint256","internalType":"uint256"}],"stateMutability":"view"},{"type":"function","name":"getPoolId","inputs":[],"outputs":[{"name":"","type":"uint256","internalType":"uint256"}],"stateMutability":"view"},{"type":"function","name":"getProposal","inputs":[{"name":"_proposalId","type":"uint256","internalType":"uint256"}],"outputs":[{"name":"submitter","type":"address","internalType":"address"},{"name":"beneficiary","type":"address","internalType":"address"},{"name":"requestedToken","type":"address","internalType":"address"},{"name":"requestedAmount","type":"uint256","internalType":"uint256"},{"name":"stakedAmount","type":"uint256","internalType":"uint256"},{"name":"proposalStatus","type":"uint8","internalType":"enum ProposalStatus"},{"name":"blockLast","type":"uint256","internalType":"uint256"},{"name":"convictionLast","type":"uint256","internalType":"uint256"},{"name":"threshold","type":"uint256","internalType":"uint256"},{"name":"voterStakedPoints","type":"uint256","internalType":"uint256"},{"name":"arbitrableConfigVersion","type":"uint256","internalType":"uint256"}],"stateMutability":"view"},{"type":"function","name":"getProposalVoterStake","inputs":[{"name":"_proposalId","type":"uint256","internalType":"uint256"},{"name":"_voter","type":"address","internalType":"address"}],"outputs":[{"name":"","type":"uint256","internalType":"uint256"}],"stateMutability":"view"},{"type":"function","name":"getRecipientStatus","inputs":[{"name":"_recipientId","type":"address","internalType":"address"}],"outputs":[{"name":"","type":"uint8","internalType":"enum IStrategy.Status"}],"stateMutability":"view"},{"type":"function","name":"getStrategyId","inputs":[],"outputs":[{"name":"","type":"bytes32","internalType":"bytes32"}],"stateMutability":"view"},{"type":"function","name":"increasePoolAmount","inputs":[{"name":"_amount","type":"uint256","internalType":"uint256"}],"outputs":[],"stateMutability":"nonpayable"},{"type":"function","name":"increasePower","inputs":[{"name":"_member","type":"address","internalType":"address"},{"name":"_amountToStake","type":"uint256","internalType":"uint256"}],"outputs":[{"name":"","type":"uint256","internalType":"uint256"}],"stateMutability":"nonpayable"},{"type":"function","name":"init","inputs":[{"name":"_allo","type":"address","internalType":"address"},{"name":"_collateralVaultTemplate","type":"address","internalType":"address"},{"name":"_owner","type":"address","internalType":"address"}],"outputs":[],"stateMutability":"nonpayable"},{"type":"function","name":"init","inputs":[{"name":"_allo","type":"address","internalType":"address"},{"name":"_name","type":"string","internalType":"string"},{"name":"owner","type":"address","internalType":"address"}],"outputs":[],"stateMutability":"nonpayable"},{"type":"function","name":"initialize","inputs":[{"name":"initialOwner","type":"address","internalType":"address"}],"outputs":[],"stateMutability":"nonpayable"},{"type":"function","name":"initialize","inputs":[{"name":"_poolId","type":"uint256","internalType":"uint256"},{"name":"_data","type":"bytes","internalType":"bytes"}],"outputs":[],"stateMutability":"nonpayable"},{"type":"function","name":"isPoolActive","inputs":[],"outputs":[{"name":"","type":"bool","internalType":"bool"}],"stateMutability":"view"},{"type":"function","name":"isValidAllocator","inputs":[{"name":"_allocator","type":"address","internalType":"address"}],"outputs":[{"name":"","type":"bool","internalType":"bool"}],"stateMutability":"view"},{"type":"function","name":"owner","inputs":[],"outputs":[{"name":"","type":"address","internalType":"address"}],"stateMutability":"view"},{"type":"function","name":"pointConfig","inputs":[],"outputs":[{"name":"maxAmount","type":"uint256","internalType":"uint256"}],"stateMutability":"view"},{"type":"function","name":"pointSystem","inputs":[],"outputs":[{"name":"","type":"uint8","internalType":"enum PointSystem"}],"stateMutability":"view"},{"type":"function","name":"proposalCounter","inputs":[],"outputs":[{"name":"","type":"uint256","internalType":"uint256"}],"stateMutability":"view"},{"type":"function","name":"proposalType","inputs":[],"outputs":[{"name":"","type":"uint8","internalType":"enum ProposalType"}],"stateMutability":"view"},{"type":"function","name":"proposals","inputs":[{"name":"","type":"uint256","internalType":"uint256"}],"outputs":[{"name":"proposalId","type":"uint256","internalType":"uint256"},{"name":"requestedAmount","type":"uint256","internalType":"uint256"},{"name":"stakedAmount","type":"uint256","internalType":"uint256"},{"name":"convictionLast","type":"uint256","internalType":"uint256"},{"name":"beneficiary","type":"address","internalType":"address"},{"name":"submitter","type":"address","internalType":"address"},{"name":"requestedToken","type":"address","internalType":"address"},{"name":"blockLast","type":"uint256","internalType":"uint256"},{"name":"proposalStatus","type":"uint8","internalType":"enum ProposalStatus"},{"name":"metadata","type":"tuple","internalType":"struct Metadata","components":[{"name":"protocol","type":"uint256","internalType":"uint256"},{"name":"pointer","type":"string","internalType":"string"}]},{"name":"disputeInfo","type":"tuple","internalType":"struct ProposalDisputeInfo","components":[{"name":"disputeId","type":"uint256","internalType":"uint256"},{"name":"disputeTimestamp","type":"uint256","internalType":"uint256"},{"name":"challenger","type":"address","internalType":"address"}]},{"name":"lastDisputeCompletion","type":"uint256","internalType":"uint256"},{"name":"arbitrableConfigVersion","type":"uint256","internalType":"uint256"}],"stateMutability":"view"},{"type":"function","name":"proxiableUUID","inputs":[],"outputs":[{"name":"","type":"bytes32","internalType":"bytes32"}],"stateMutability":"view"},{"type":"function","name":"proxyOwner","inputs":[],"outputs":[{"name":"","type":"address","internalType":"address"}],"stateMutability":"view"},{"type":"function","name":"registerRecipient","inputs":[{"name":"_data","type":"bytes","internalType":"bytes"},{"name":"_sender","type":"address","internalType":"address"}],"outputs":[{"name":"recipientId","type":"address","internalType":"address"}],"stateMutability":"payable"},{"type":"function","name":"registryCommunity","inputs":[],"outputs":[{"name":"","type":"address","internalType":"contract RegistryCommunityV0_0"}],"stateMutability":"view"},{"type":"function","name":"removeFromAllowList","inputs":[{"name":"members","type":"address[]","internalType":"address[]"}],"outputs":[],"stateMutability":"nonpayable"},{"type":"function","name":"renounceOwnership","inputs":[],"outputs":[],"stateMutability":"nonpayable"},{"type":"function","name":"rule","inputs":[{"name":"_disputeID","type":"uint256","internalType":"uint256"},{"name":"_ruling","type":"uint256","internalType":"uint256"}],"outputs":[],"stateMutability":"nonpayable"},{"type":"function","name":"setCollateralVaultTemplate","inputs":[{"name":"template","type":"address","internalType":"address"}],"outputs":[],"stateMutability":"nonpayable"},{"type":"function","name":"setPoolActive","inputs":[{"name":"_active","type":"bool","internalType":"bool"}],"outputs":[],"stateMutability":"nonpayable"},{"type":"function","name":"setPoolParams","inputs":[{"name":"_arbitrableConfig","type":"tuple","internalType":"struct ArbitrableConfig","components":[{"name":"arbitrator","type":"address","internalType":"contract IArbitrator"},{"name":"tribunalSafe","type":"address","internalType":"address"},{"name":"submitterCollateralAmount","type":"uint256","internalType":"uint256"},{"name":"challengerCollateralAmount","type":"uint256","internalType":"uint256"},{"name":"defaultRuling","type":"uint256","internalType":"uint256"},{"name":"defaultRulingTimeout","type":"uint256","internalType":"uint256"}]},{"name":"_cvParams","type":"tuple","internalType":"struct CVParams","components":[{"name":"maxRatio","type":"uint256","internalType":"uint256"},{"name":"weight","type":"uint256","internalType":"uint256"},{"name":"decay","type":"uint256","internalType":"uint256"},{"name":"minThresholdPoints","type":"uint256","internalType":"uint256"}]}],"outputs":[],"stateMutability":"nonpayable"},{"type":"function","name":"setPoolParams","inputs":[{"name":"_arbitrableConfig","type":"tuple","internalType":"struct ArbitrableConfig","components":[{"name":"arbitrator","type":"address","internalType":"contract IArbitrator"},{"name":"tribunalSafe","type":"address","internalType":"address"},{"name":"submitterCollateralAmount","type":"uint256","internalType":"uint256"},{"name":"challengerCollateralAmount","type":"uint256","internalType":"uint256"},{"name":"defaultRuling","type":"uint256","internalType":"uint256"},{"name":"defaultRulingTimeout","type":"uint256","internalType":"uint256"}]},{"name":"_cvParams","type":"tuple","internalType":"struct CVParams","components":[{"name":"maxRatio","type":"uint256","internalType":"uint256"},{"name":"weight","type":"uint256","internalType":"uint256"},{"name":"decay","type":"uint256","internalType":"uint256"},{"name":"minThresholdPoints","type":"uint256","internalType":"uint256"}]},{"name":"membersToAdd","type":"address[]","internalType":"address[]"},{"name":"membersToRemove","type":"address[]","internalType":"address[]"}],"outputs":[],"stateMutability":"nonpayable"},{"type":"function","name":"setPoolParams","inputs":[{"name":"_arbitrableConfig","type":"tuple","internalType":"struct ArbitrableConfig","components":[{"name":"arbitrator","type":"address","internalType":"contract IArbitrator"},{"name":"tribunalSafe","type":"address","internalType":"address"},{"name":"submitterCollateralAmount","type":"uint256","internalType":"uint256"},{"name":"challengerCollateralAmount","type":"uint256","internalType":"uint256"},{"name":"defaultRuling","type":"uint256","internalType":"uint256"},{"name":"defaultRulingTimeout","type":"uint256","internalType":"uint256"}]},{"name":"_cvParams","type":"tuple","internalType":"struct CVParams","components":[{"name":"maxRatio","type":"uint256","internalType":"uint256"},{"name":"weight","type":"uint256","internalType":"uint256"},{"name":"decay","type":"uint256","internalType":"uint256"},{"name":"minThresholdPoints","type":"uint256","internalType":"uint256"}]},{"name":"sybilScoreThreshold","type":"uint256","internalType":"uint256"}],"outputs":[],"stateMutability":"nonpayable"},{"type":"function","name":"setSybilScorer","inputs":[{"name":"_sybilScorer","type":"address","internalType":"address"},{"name":"threshold","type":"uint256","internalType":"uint256"}],"outputs":[],"stateMutability":"nonpayable"},{"type":"function","name":"sybilScorer","inputs":[],"outputs":[{"name":"","type":"address","internalType":"contract ISybilScorer"}],"stateMutability":"view"},{"type":"function","name":"totalPointsActivated","inputs":[],"outputs":[{"name":"","type":"uint256","internalType":"uint256"}],"stateMutability":"view"},{"type":"function","name":"totalStaked","inputs":[],"outputs":[{"name":"","type":"uint256","internalType":"uint256"}],"stateMutability":"view"},{"type":"function","name":"totalVoterStakePct","inputs":[{"name":"","type":"address","internalType":"address"}],"outputs":[{"name":"","type":"uint256","internalType":"uint256"}],"stateMutability":"view"},{"type":"function","name":"transferOwnership","inputs":[{"name":"newOwner","type":"address","internalType":"address"}],"outputs":[],"stateMutability":"nonpayable"},{"type":"function","name":"updateProposalConviction","inputs":[{"name":"proposalId","type":"uint256","internalType":"uint256"}],"outputs":[{"name":"","type":"uint256","internalType":"uint256"}],"stateMutability":"nonpayable"},{"type":"function","name":"upgradeTo","inputs":[{"name":"newImplementation","type":"address","internalType":"address"}],"outputs":[],"stateMutability":"nonpayable"},{"type":"function","name":"upgradeToAndCall","inputs":[{"name":"newImplementation","type":"address","internalType":"address"},{"name":"data","type":"bytes","internalType":"bytes"}],"outputs":[],"stateMutability":"payable"},{"type":"function","name":"voterStakedProposals","inputs":[{"name":"","type":"address","internalType":"address"},{"name":"","type":"uint256","internalType":"uint256"}],"outputs":[{"name":"","type":"uint256","internalType":"uint256"}],"stateMutability":"view"},{"type":"event","name":"AdminChanged","inputs":[{"name":"previousAdmin","type":"address","indexed":false,"internalType":"address"},{"name":"newAdmin","type":"address","indexed":false,"internalType":"address"}],"anonymous":false},{"type":"event","name":"Allocated","inputs":[{"name":"recipientId","type":"address","indexed":true,"internalType":"address"},{"name":"amount","type":"uint256","indexed":false,"internalType":"uint256"},{"name":"token","type":"address","indexed":false,"internalType":"address"},{"name":"sender","type":"address","indexed":false,"internalType":"address"}],"anonymous":false},{"type":"event","name":"AllowlistMembersAdded","inputs":[{"name":"poolId","type":"uint256","indexed":false,"internalType":"uint256"},{"name":"members","type":"address[]","indexed":false,"internalType":"address[]"}],"anonymous":false},{"type":"event","name":"AllowlistMembersRemoved","inputs":[{"name":"poolId","type":"uint256","indexed":false,"internalType":"uint256"},{"name":"members","type":"address[]","indexed":false,"internalType":"address[]"}],"anonymous":false},{"type":"event","name":"ArbitrableConfigUpdated","inputs":[{"name":"currentArbitrableConfigVersion","type":"uint256","indexed":false,"internalType":"uint256"},{"name":"arbitrator","type":"address","indexed":false,"internalType":"contract IArbitrator"},{"name":"tribunalSafe","type":"address","indexed":false,"internalType":"address"},{"name":"submitterCollateralAmount","type":"uint256","indexed":false,"internalType":"uint256"},{"name":"challengerCollateralAmount","type":"uint256","indexed":false,"internalType":"uint256"},{"name":"defaultRuling","type":"uint256","indexed":false,"internalType":"uint256"},{"name":"defaultRulingTimeout","type":"uint256","indexed":false,"internalType":"uint256"}],"anonymous":false},{"type":"event","name":"BeaconUpgraded","inputs":[{"name":"beacon","type":"address","indexed":true,"internalType":"address"}],"anonymous":false},{"type":"event","name":"CVParamsUpdated","inputs":[{"name":"cvParams","type":"tuple","indexed":false,"internalType":"struct CVParams","components":[{"name":"maxRatio","type":"uint256","internalType":"uint256"},{"name":"weight","type":"uint256","internalType":"uint256"},{"name":"decay","type":"uint256","internalType":"uint256"},{"name":"minThresholdPoints","type":"uint256","internalType":"uint256"}]}],"anonymous":false},{"type":"event","name":"DisputeRequest","inputs":[{"name":"_arbitrator","type":"address","indexed":true,"internalType":"contract IArbitrator"},{"name":"_arbitrableDisputeID","type":"uint256","indexed":true,"internalType":"uint256"},{"name":"_externalDisputeID","type":"uint256","indexed":false,"internalType":"uint256"},{"name":"_templateId","type":"uint256","indexed":false,"internalType":"uint256"},{"name":"_templateUri","type":"string","indexed":false,"internalType":"string"}],"anonymous":false},{"type":"event","name":"Distributed","inputs":[{"name":"proposalId","type":"uint256","indexed":false,"internalType":"uint256"},{"name":"beneficiary","type":"address","indexed":false,"internalType":"address"},{"name":"amount","type":"uint256","indexed":false,"internalType":"uint256"}],"anonymous":false},{"type":"event","name":"Distributed","inputs":[{"name":"recipientId","type":"address","indexed":true,"internalType":"address"},{"name":"recipientAddress","type":"address","indexed":false,"internalType":"address"},{"name":"amount","type":"uint256","indexed":false,"internalType":"uint256"},{"name":"sender","type":"address","indexed":false,"internalType":"address"}],"anonymous":false},{"type":"event","name":"Initialized","inputs":[{"name":"poolId","type":"uint256","indexed":false,"internalType":"uint256"},{"name":"data","type":"bytes","indexed":false,"internalType":"bytes"}],"anonymous":false},{"type":"event","name":"Initialized","inputs":[{"name":"version","type":"uint8","indexed":false,"internalType":"uint8"}],"anonymous":false},{"type":"event","name":"InitializedCV","inputs":[{"name":"poolId","type":"uint256","indexed":false,"internalType":"uint256"},{"name":"data","type":"tuple","indexed":false,"internalType":"struct CVStrategyInitializeParamsV0_0","components":[{"name":"cvParams","type":"tuple","internalType":"struct CVParams","components":[{"name":"maxRatio","type":"uint256","internalType":"uint256"},{"name":"weight","type":"uint256","internalType":"uint256"},{"name":"decay","type":"uint256","internalType":"uint256"},{"name":"minThresholdPoints","type":"uint256","internalType":"uint256"}]},{"name":"proposalType","type":"uint8","internalType":"enum ProposalType"},{"name":"pointSystem","type":"uint8","internalType":"enum PointSystem"},{"name":"pointConfig","type":"tuple","internalType":"struct PointSystemConfig","components":[{"name":"maxAmount","type":"uint256","internalType":"uint256"}]},{"name":"arbitrableConfig","type":"tuple","internalType":"struct ArbitrableConfig","components":[{"name":"arbitrator","type":"address","internalType":"contract IArbitrator"},{"name":"tribunalSafe","type":"address","internalType":"address"},{"name":"submitterCollateralAmount","type":"uint256","internalType":"uint256"},{"name":"challengerCollateralAmount","type":"uint256","internalType":"uint256"},{"name":"defaultRuling","type":"uint256","internalType":"uint256"},{"name":"defaultRulingTimeout","type":"uint256","internalType":"uint256"}]},{"name":"registryCommunity","type":"address","internalType":"address"},{"name":"sybilScorer","type":"address","internalType":"address"}]}],"anonymous":false},{"type":"event","name":"InitializedCV2","inputs":[{"name":"poolId","type":"uint256","indexed":false,"internalType":"uint256"},{"name":"data","type":"tuple","indexed":false,"internalType":"struct CVStrategyInitializeParamsV0_1","components":[{"name":"cvParams","type":"tuple","internalType":"struct CVParams","components":[{"name":"maxRatio","type":"uint256","internalType":"uint256"},{"name":"weight","type":"uint256","internalType":"uint256"},{"name":"decay","type":"uint256","internalType":"uint256"},{"name":"minThresholdPoints","type":"uint256","internalType":"uint256"}]},{"name":"proposalType","type":"uint8","internalType":"enum ProposalType"},{"name":"pointSystem","type":"uint8","internalType":"enum PointSystem"},{"name":"pointConfig","type":"tuple","internalType":"struct PointSystemConfig","components":[{"name":"maxAmount","type":"uint256","internalType":"uint256"}]},{"name":"arbitrableConfig","type":"tuple","internalType":"struct ArbitrableConfig","components":[{"name":"arbitrator","type":"address","internalType":"contract IArbitrator"},{"name":"tribunalSafe","type":"address","internalType":"address"},{"name":"submitterCollateralAmount","type":"uint256","internalType":"uint256"},{"name":"challengerCollateralAmount","type":"uint256","internalType":"uint256"},{"name":"defaultRuling","type":"uint256","internalType":"uint256"},{"name":"defaultRulingTimeout","type":"uint256","internalType":"uint256"}]},{"name":"registryCommunity","type":"address","internalType":"address"},{"name":"sybilScorer","type":"address","internalType":"address"},{"name":"sybilScorerThreshold","type":"uint256","internalType":"uint256"},{"name":"initialAllowlist","type":"address[]","internalType":"address[]"}]}],"anonymous":false},{"type":"event","name":"OwnershipTransferred","inputs":[{"name":"previousOwner","type":"address","indexed":true,"internalType":"address"},{"name":"newOwner","type":"address","indexed":true,"internalType":"address"}],"anonymous":false},{"type":"event","name":"PointsDeactivated","inputs":[{"name":"member","type":"address","indexed":false,"internalType":"address"}],"anonymous":false},{"type":"event","name":"PoolActive","inputs":[{"name":"active","type":"bool","indexed":false,"internalType":"bool"}],"anonymous":false},{"type":"event","name":"PoolAmountIncreased","inputs":[{"name":"amount","type":"uint256","indexed":false,"internalType":"uint256"}],"anonymous":false},{"type":"event","name":"PowerDecreased","inputs":[{"name":"member","type":"address","indexed":false,"internalType":"address"},{"name":"tokensUnStaked","type":"uint256","indexed":false,"internalType":"uint256"},{"name":"pointsToDecrease","type":"uint256","indexed":false,"internalType":"uint256"}],"anonymous":false},{"type":"event","name":"PowerIncreased","inputs":[{"name":"member","type":"address","indexed":false,"internalType":"address"},{"name":"tokensStaked","type":"uint256","indexed":false,"internalType":"uint256"},{"name":"pointsToIncrease","type":"uint256","indexed":false,"internalType":"uint256"}],"anonymous":false},{"type":"event","name":"ProposalCancelled","inputs":[{"name":"proposalId","type":"uint256","indexed":false,"internalType":"uint256"}],"anonymous":false},{"type":"event","name":"ProposalCreated","inputs":[{"name":"poolId","type":"uint256","indexed":false,"internalType":"uint256"},{"name":"proposalId","type":"uint256","indexed":false,"internalType":"uint256"}],"anonymous":false},{"type":"event","name":"ProposalDisputed","inputs":[{"name":"arbitrator","type":"address","indexed":false,"internalType":"contract IArbitrator"},{"name":"proposalId","type":"uint256","indexed":false,"internalType":"uint256"},{"name":"disputeId","type":"uint256","indexed":false,"internalType":"uint256"},{"name":"challenger","type":"address","indexed":false,"internalType":"address"},{"name":"context","type":"string","indexed":false,"internalType":"string"},{"name":"timestamp","type":"uint256","indexed":false,"internalType":"uint256"}],"anonymous":false},{"type":"event","name":"Registered","inputs":[{"name":"recipientId","type":"address","indexed":true,"internalType":"address"},{"name":"data","type":"bytes","indexed":false,"internalType":"bytes"},{"name":"sender","type":"address","indexed":false,"internalType":"address"}],"anonymous":false},{"type":"event","name":"RegistryUpdated","inputs":[{"name":"registryCommunity","type":"address","indexed":false,"internalType":"address"}],"anonymous":false},{"type":"event","name":"Ruling","inputs":[{"name":"_arbitrator","type":"address","indexed":true,"internalType":"contract IArbitrator"},{"name":"_disputeID","type":"uint256","indexed":true,"internalType":"uint256"},{"name":"_ruling","type":"uint256","indexed":false,"internalType":"uint256"}],"anonymous":false},{"type":"event","name":"SupportAdded","inputs":[{"name":"from","type":"address","indexed":false,"internalType":"address"},{"name":"proposalId","type":"uint256","indexed":false,"internalType":"uint256"},{"name":"amount","type":"uint256","indexed":false,"internalType":"uint256"},{"name":"totalStakedAmount","type":"uint256","indexed":false,"internalType":"uint256"},{"name":"convictionLast","type":"uint256","indexed":false,"internalType":"uint256"}],"anonymous":false},{"type":"event","name":"SybilScorerUpdated","inputs":[{"name":"sybilScorer","type":"address","indexed":false,"internalType":"address"}],"anonymous":false},{"type":"event","name":"TribunaSafeRegistered","inputs":[{"name":"strategy","type":"address","indexed":false,"internalType":"address"},{"name":"arbitrator","type":"address","indexed":false,"internalType":"address"},{"name":"tribunalSafe","type":"address","indexed":false,"internalType":"address"}],"anonymous":false},{"type":"event","name":"Upgraded","inputs":[{"name":"implementation","type":"address","indexed":true,"internalType":"address"}],"anonymous":false},{"type":"error","name":"ALLOCATION_ACTIVE","inputs":[]},{"type":"error","name":"ALLOCATION_NOT_ACTIVE","inputs":[]},{"type":"error","name":"ALLOCATION_NOT_ENDED","inputs":[]},{"type":"error","name":"ALREADY_INITIALIZED","inputs":[]},{"type":"error","name":"AMOUNT_MISMATCH","inputs":[]},{"type":"error","name":"ANCHOR_ERROR","inputs":[]},{"type":"error","name":"ARRAY_MISMATCH","inputs":[]},{"type":"error","name":"AddressCannotBeZero","inputs":[]},{"type":"error","name":"CallerNotOwner","inputs":[{"name":"_caller","type":"address","internalType":"address"},{"name":"_owner","type":"address","internalType":"address"}]},{"type":"error","name":"CantDecreaseWhileSupporting","inputs":[]},{"type":"error","name":"ConvictionUnderMinimumThreshold","inputs":[]},{"type":"error","name":"DefaultRulingNotSet","inputs":[]},{"type":"error","name":"INVALID","inputs":[]},{"type":"error","name":"INVALID_ADDRESS","inputs":[]},{"type":"error","name":"INVALID_FEE","inputs":[]},{"type":"error","name":"INVALID_METADATA","inputs":[]},{"type":"error","name":"INVALID_REGISTRATION","inputs":[]},{"type":"error","name":"IS_APPROVED_STRATEGY","inputs":[]},{"type":"error","name":"MISMATCH","inputs":[]},{"type":"error","name":"NONCE_NOT_AVAILABLE","inputs":[]},{"type":"error","name":"NOT_APPROVED_STRATEGY","inputs":[]},{"type":"error","name":"NOT_ENOUGH_FUNDS","inputs":[]},{"type":"error","name":"NOT_IMPLEMENTED","inputs":[]},{"type":"error","name":"NOT_INITIALIZED","inputs":[]},{"type":"error","name":"NOT_PENDING_OWNER","inputs":[]},{"type":"error","name":"NotEnoughPointsToSupport","inputs":[{"name":"pointsSupport","type":"uint256","internalType":"uint256"},{"name":"pointsBalance","type":"uint256","internalType":"uint256"}]},{"type":"error","name":"OnlyArbitrator","inputs":[]},{"type":"error","name":"OnlyCommunityAllowed","inputs":[]},{"type":"error","name":"OnlyCouncilSafe","inputs":[]},{"type":"error","name":"OnlySubmitter","inputs":[{"name":"submitter","type":"address","internalType":"address"},{"name":"sender","type":"address","internalType":"address"}]},{"type":"error","name":"POOL_ACTIVE","inputs":[]},{"type":"error","name":"POOL_INACTIVE","inputs":[]},{"type":"error","name":"PoolIsEmpty","inputs":[]},{"type":"error","name":"ProposalNotActive","inputs":[{"name":"_proposalId","type":"uint256","internalType":"uint256"}]},{"type":"error","name":"ProposalNotDisputed","inputs":[{"name":"_proposalId","type":"uint256","internalType":"uint256"}]},{"type":"error","name":"ProposalSupportDuplicated","inputs":[{"name":"_proposalId","type":"uint256","internalType":"uint256"},{"name":"index","type":"uint256","internalType":"uint256"}]},{"type":"error","name":"RECIPIENT_ALREADY_ACCEPTED","inputs":[]},{"type":"error","name":"RECIPIENT_ERROR","inputs":[{"name":"recipientId","type":"address","internalType":"address"}]},{"type":"error","name":"RECIPIENT_NOT_ACCEPTED","inputs":[]},{"type":"error","name":"REGISTRATION_NOT_ACTIVE","inputs":[]},{"type":"error","name":"UNAUTHORIZED","inputs":[]},{"type":"error","name":"UserCannotExecuteAction","inputs":[]},{"type":"error","name":"UserIsInactive","inputs":[]},{"type":"error","name":"UserNotInRegistry","inputs":[]},{"type":"error","name":"ZERO_ADDRESS","inputs":[]}],"bytecode":{"object":"0x60a080604052346100325730608052615fcb90816200003882396080518181816123fc015281816124e601526129540152f35b600080fdfe60a0604052600436101561001257600080fd5b6000803560e01c8063013cf08b14614003578063025313a214613fda578063059351cd14613f83578063062f9ece14613f645780630a6f0ee914613c685780630bece79c14613c3f5780630c0512e914613c215780630f529ba214613c03578063125fd1d914613be557806315cc481e14613bbc578063184b955914613a0d5780631aa91a9e146139ee5780631ddf1e23146139d45780632506b8701461399d578063255ffb38146139735780632bbe0cae146134e55780632dbd6fdd146115065780632ed04b2b146130a6578063311a6c5614612b2d5780633396045914612b0f578063346db8cb14612aea578063351d9f9614612ac45780633659cfe61461292f5780633864d3661461282c57806338fff2d01461280e578063406244d8146127f257806341bb76051461279a57806342fda9c71461277c5780634ab4ba421461275e5780634d31d087146111ec5780634f1ef286146124a857806352d1902d146123e957806359a5db8b146123ca5780635db64b99146123915780636003e4141461236857806360b0645a1461232557806360d5dedc1461226a578063626c47e81461224e5780636453d9c414612224578063715018a6146121d85780637263cfe214612197578063782aadff14611dfc578063814516ad14611d04578063817b1cd214611ce6578063824ea8ed14611c79578063868c57b814611c235780638da5cb5b14611bf6578063948e7a5914611b83578063950559d714611b64578063a0cf0aea14611b35578063a28889e114611b0c578063a47ff7e514611aee578063a51312c814611aad578063aba9ffee14611a8f578063ad56fd5d146119f5578063b0d3713a146119b0578063b2b878d0146118f7578063b41596ec146115b6578063b5f620ce1461155a578063b6c61f3114611531578063c329217114611506578063c4d66de8146114d4578063c7f758a8146113f9578063d5cc68a6146113d6578063df868ed3146113b3578063e0a8f6f51461125c578063e0dd2c3814611212578063eb11af93146111ec578063edd146cc14610bc0578063ef2920fc1461049c578063f2fde38b1461040b578063f5b0dfb7146103b2578063f5be3f7c146103955763ffa1ad741461034b57600080fd5b3461039257806003193601126103925761038e60405161036a8161425f565b60038152620302e360ec1b602082015260405191829160208352602083019061435f565b0390f35b80fd5b50346103925780600319360112610392576020604051611c208152f35b5034610392576020366003190112610392577f46aeb5d8770fc4474bc2dfa118fd2595f7fb33ce2cbce6f4e5a3dabfe0f7633960206004356103f261490b565b6103fe816069546148e8565b606955604051908152a180f35b5034610392576020366003190112610392576104256143cd565b61042d61462b565b6001600160a01b03811615610448576104459061468a565b80f35b60405162461bcd60e51b815260206004820152602660248201527f4f776e61626c653a206e6577206f776e657220697320746865207a65726f206160448201526564647265737360d01b6064820152608490fd5b506104a63661458b565b6104ae61490b565b6104b6614931565b8151906104cb6020808501938501018361513e565b91845b835181101561058e576104e181856151dc565b515160206104ef83876151dc565b510151908752607b60205286604081209113908161051f575b5061051b576105169061494d565b6104ce565b8580fd5b60ff915060080154166105318161431c565b8015908115610579575b8115610564575b8115610550575b5038610508565b6006915061055d8161431c565b1438610549565b905061056f8161431c565b6004811490610542565b90506105848161431c565b600381149061053b565b85836105aa846020896105a085614b17565b805101019061513e565b6105b382614bd4565b15610b87575b60785460405163011de97360e61b81526001600160a01b03949185169190602081806105e9308960048401614bba565b0381865afa908115610b7c578291610b4d575b5015610b3b5780949193949161061186614bd4565b95829615935b85518810156106ca5784806106b3575b6106a15761063588876151dc565b5151156106975761064688876151dc565b515161065181615211565b1561067f575061067361067991602061066a8b8a6151dc565b51015190615269565b9761494d565b96610617565b602490604051906344980d8f60e01b82526004820152fd5b966106799061494d565b604051630b72d6b160e31b8152600490fd5b508360206106c18a896151dc565b51015113610627565b90866106e68794938484168752607c6020526040872054615269565b9085821261051b5760206040518092637817ee4f60e01b8252818061070f308960048401614bba565b03915afa908115610b30578691610af9575b50808211610adb57508183168552607c6020526040852055839291606091905b8351851015610ad75761075485856151dc565b5151928051156000146109d457506040519361076f8561425f565b600185526020850160203682378551156109be578490525b602061079387836151dc565b51015190848852607b60205260408820916002830154966009840192858716600052836020526107c96040600020549384615269565b938b85126109ba57868816600052602052836040600020558a908b6080528554925b8789168d52607d60205260408d20805490608051918210156109a7578591610812916145e6565b90549060031b1c146108315761082960805161494d565b6080526107eb565b979698929b9a9593909994915060015b1561093b575b6108af969798999a9b508180821115600014610901578161086e61088d9361088393614d46565b61087b60709182546148e8565b905583614d46565b60028501546148e8565b60028401555b60078301928354156000146108b657505050905043905561494d565b9392610741565b60a093506108d3600080516020615ed6833981519152958261546b565b6003600282015491015491604051938b8a1685526020850152604084015260608301526080820152a161494d565b80826109136109279361093195614d46565b6109206070918254614d46565b9055614d46565b6002850154614d46565b6002840155610893565b8689168b52607d60205260408b2080549c90600160401b8e1015610993578d610971916108af9a9b9c9d9e9f60010181556145e6565b819291549060031b91821b91600019901b19161790558b9a9998979650610847565b634e487b7160e01b8d52604160045260248dfd5b5050979698929b9a959390999491610841565b8b80fd5b634e487b7160e01b600052603260045260246000fd5b93959294918396845b8651811015610a2357876109f182896151dc565b5114610a0557610a009061494d565b6109dd565b8760449160405191632b7aec5560e21b835260048301526024820152fd5b50909295939661078757938051906001808301809311610ac357610a4683614496565b92610a5460405194856142f9565b808452610a63601f1991614496565b0136602085013788815b610a87575b5050610a80859151836151dc565b5293610787565b8297949751811015610abb5780610aa1610ab292856151dc565b51610aac82876151dc565b5261494d565b81979497610a6d565b969396610a72565b634e487b7160e01b89526011600452602489fd5b8580f35b6044925060405191636b20c17f60e11b835260048301526024820152fd5b90506020813d602011610b28575b81610b14602093836142f9565b81010312610b23575186610721565b600080fd5b3d9150610b07565b6040513d88823e3d90fd5b604051635fccb67f60e01b8152600490fd5b610b6f915060203d602011610b75575b610b6781836142f9565b810190614aff565b866105fc565b503d610b5d565b6040513d84823e3d90fd5b8291925b8151811015610bb757826020610ba183856151dc565b510151136106a157610bb29061494d565b610b8b565b509190916105b9565b5034610392576040366003190112610392576024356001600160401b03811161118557610bf190369060040161456d565b610bf961490b565b610c0161490b565b6068546111da57600435156111c857600435606855606a546e5af43d82803e903d91602b57fd5bf3606c54610c358161494d565b606c5560405160208101913360601b8352603482015260348152610c58816142de565b519020608883901c62ffffff16763d602d80600a3d3981f3363d3d373d3d3d363d7300000017855260789290921b6001600160781b031916176020526001600160a01b03906037600985f516801561118957607980546001600160a01b031981168317909155839190821617803b156111855781809160046040518094819363204a7f0760e21b83525af18015610b7c57611171575b5050805181019060208183031261116d576020810151906001600160401b03821161116957610220828201840312611169576040519261012084016001600160401b038111858210176111535780604052608084840183031261051b57610d54816142a8565b8284016020810151825260408101516101408701526060810151610160870152608081015161018087015290855260a00151600381101561051b57602085015260c08383010151600481101561051b5760408501526020828401820360bf19011261114f576040516001600160401b036020820190811190821117611153576020810160405260e084840101518152606085015260c060df198484018303011261114f57604051610e048161428d565b82840161010001516001600160a01b038116810361114b578152610e2d6101208585010161495c565b6020820152828401610140810151604083015261016081015160608301526101808101516080808401919091526101a082015160a0840152860191909152610e78906101c00161495c565b60a0850152610e8c6101e08484010161495c565b60c085015281830161020081015160e08601526102200151926001600160401b03841161051b5760208201603f858386010101121561051b5760208482850101015192610ed884614496565b94610ee660405196876142f9565b8486526020808701940160408660051b838686010101011161114757818301810160400193925b60408660051b83838601010101851061112b5788888861010082015260018060a01b0360a08201511660018060a01b031960785416176078556020810151600381101561111757607654604083015160048110156111035761ff0060ff9160081b1692169061ffff1916171760765560608101515160775560018060a01b0360c08201511660018060a01b0319607a541617607a557fb6a062fc5f19aa17637bf61ab001ce3e5ceb67a5bd51d9753281e41df94f3fd3604051600435815260406020820152610fe0604082018451614970565b610ff2602084015160c08301906145d9565b611004604084015160e08301906145cc565b60608301515161010082015260a06080840151600180831b03815116610120840152600180831b036020820151166101408401526040810151610160840152606081015161018084015260808101516101a084015201516101c082015260018060a01b0360a0840151166101e082015260018060a01b0360c08401511661020082015260e0830151610220820152806110b0610100850151610220610240840152610260830190614993565b0390a16110e260808201518251604051906110ca826142c3565b858252604051926110da846142c3565b868452615891565b607a546001600160a01b03166110f6575080f35b60e0610445910151615d1b565b634e487b7160e01b85526021600452602485fd5b634e487b7160e01b83526021600452602483fd5b60208060409561113a8861495c565b8152019501949350610f0d565b8780fd5b8680fd5b8480fd5b634e487b7160e01b600052604160045260246000fd5b8380fd5b8280fd5b61117a9061427a565b611185578138610cee565b5080fd5b60405162461bcd60e51b8152602060048201526017602482015276115490cc4c4d8dce8818dc99585d194c8819985a5b1959604a1b6044820152606490fd5b604051637fcce2a960e01b8152600490fd5b60405163439a74c960e01b8152600490fd5b5034610392576020366003190112610392576020906112096143cd565b50604051908152f35b503461039257604036600319011261039257600960406112306143e3565b926004358152607b60205220019060018060a01b03166000526020526020604060002054604051908152f35b5034610392576020806003193601126111855760043590818352607b8152600160ff6008604086200154166112908161431c565b0361139a57818352607b815260408320600501546001600160a01b0390811633810361137757508084916079541690848352607b8452601060408420916005830154169101548352607f84526002604084200154823b156111695761130f9284928360405180968195829463099ea56b60e41b84528c600485016151f0565b03925af18015610b7c57611363575b50829052607b81526040808420600801805460ff19166003179055519182527f416e669c63d9a3a5e36ee7cc7e2104b8db28ccd286aa18966e98fa230c73b08c91a180f35b61136c9061427a565b61116d57823861131e565b604051634544dc9160e11b815290819061139690339060048401614bba565b0390fd5b6040516344980d8f60e01b815260048101839052602490fd5b5034610392578060031936011261039257602060ff606754166040519015158152f35b503461039257806003193601126103925760206113f161542b565b604051908152f35b503461039257602036600319011261039257610160906004358152607b6020526040812060018101549182156000146114c457905b60018060a01b03918260058301541693836004840154169360068401541690600284015460ff6008860154169060078601549260038701549433600052600988016020526010604060002054980154986040519a8b5260208b015260408a0152606089015260808801526114a18161431c565b60a087015260c086015260e0850152610100840152610120830152610140820152f35b506114ce8261534a565b9061142e565b5034610392576020366003190112610392576104456114f16143cd565b61150160ff845460081c16614888565b61468a565b5034610392578060031936011261039257602060ff60765460081c1661152f60405180926145cc565bf35b5034610392578060031936011261039257607a546040516001600160a01b039091168152602090f35b5034610392576020366003190112610392576004358015158091036111855760207fd94c9bc4d43c51d8dc345a016d8e3d994432fac68e72832e4cf3a616bd8efae09160ff196067541660ff821617606755604051908152a180f35b506060366003190112610392576024356001600160401b038111611185576115e29036906004016145fe565b906044356001600160401b038111611169576116029036906004016145fe565b61160e92919233614b17565b6004358552607b602052604085209260108401548652607f602052604086206040519261163a8461428d565b81546001600160a01b0390811685526001838101549091166020860152600283015460408601526003830154606086019081526004840154608087015260059093015460a0860152600887015460ff166116938161431c565b036118de578151341061114757600f86015480151590816118c8575b50611147576116bf825134614d46565b607954925190926001600160a01b0316908990823b15611185576040519283809263240ff7c560e11b8252816116fb3360043560048401614ae6565b03925af180156118bd576118a9575b509160209161174b97989360018060a01b0386511691604051809a8195829463c13517e160e01b8452600360048501526040602485015260448401916158c6565b03925af194851561189c578195611868575b5060088401805460ff19166005179055600c840185905542600d8501908155600e90940180546001600160a01b03191633179055848152607e602052604081206004359055606d54906001600160401b038083169190821461185457506001600160401b031990911660019091016001600160401b031617606d55519154604080516001600160a01b0394909416845260043560208581019190915290840185905233606085015260c06080850181905290957f034f6a48076db1bcaaa311ccdc43d473aff44d3918a76fe0fae27c8b3665016d949384939261184392908501916158c6565b9060a08301520390a1604051908152f35b634e487b7160e01b81526011600452602490fd5b9094506020813d602011611894575b81611884602093836142f9565b81010312610b235751933861175d565b3d9150611877565b50604051903d90823e3d90fd5b6118b3899161427a565b611147573861170a565b6040513d8b823e3d90fd5b9050611c208101809111610ac3574210386116af565b60246040516344980d8f60e01b81526004356004820152fd5b5034610392576040366003190112610392576001600160401b0360043581811161116d576119299036906004016144ad565b50602490813581811161116957366023820112156111695780600401359061195082614496565b9361195e60405195866142f9565b8285528060208096019360051b8301019336851161114b57818301935b858510611986578780fd5b84358281116119ac5787916119a1839286369189010161456d565b81520194019361197b565b8880fd5b5034610392576020366003190112610392576119ca6143cd565b6119d261462b565b606a80546001600160a01b0319166001600160a01b039290921691909117905580f35b50346103925761016036600319011261039257611a2b611a14366143f9565b611a1d3661445c565b90611a266154f0565b61554e565b607a5481906001600160a01b031680611a415750f35b803b15611a8c5781809160446040518094819363642ce76b60e01b83523060048401526101443560248401525af18015610b7c57611a7c5750f35b611a859061427a565b6103925780f35b50fd5b50346103925780600319360112610392576020607154604051908152f35b5034610392576020366003190112610392576004356001600160401b03811161118557611ae16104459136906004016144ad565b611ae96154f0565b615b6e565b50346103925780600319360112610392576020607754604051908152f35b5034610392578060031936011261039257606d546040516001600160401b039091168152602090f35b5034610392578060031936011261039257602060405173eeeeeeeeeeeeeeeeeeeeeeeeeeeeeeeeeeeeeeee8152f35b50346103925760203660031901126103925760206113f1600435615867565b50346103925761018036600319011261039257611b9f366143f9565b611ba83661445c565b6001600160401b0391906101443583811161114f57611bcb9036906004016144ad565b906101643593841161114f57611be86104459436906004016144ad565b92611bf16154f0565b615891565b50346103925780600319360112610392576020611c11615dbd565b6040516001600160a01b039091168152f35b503461039257604036600319011261039257611c3d6143cd565b6001600160a01b03168152607d6020526040812080546024359290831015610392576020611c6b84846145e6565b90546040519160031b1c8152f35b50346103925760203660031901126103925760406020916004358152607b835220611ca860028201548261549d565b81929192159081611cdd575b50611cd1575b6001611cc791015461534a565b1115604051908152f35b60038101549150611cba565b90501538611cb4565b50346103925780600319360112610392576020607054604051908152f35b5034610392578060031936011261039257611d1e33614bd4565b156106a1576078546001600160a01b039082908216803b1561118557816040518092630d4a8b4960e01b8252818381611d5b303360048401614bba565b03925af18015610b7c57611de8575b50506078541660206040518092637817ee4f60e01b82528180611d91303360048401614bba565b03915afa8015610b7c578290611db5575b611daf91506071546148e8565b60715580f35b506020813d8211611de0575b81611dce602093836142f9565b81010312610b2357611daf9051611da2565b3d9150611dc1565b611df19061427a565b611185578138611d6a565b503461039257604036600319011261039257611e166143cd565b602435611e21614d20565b611e2a82614bd4565b156106a1578260ff60765460081c1660048110156111035760028103611f1457505080915b60785460405163011de97360e61b81529060209082906001600160a01b03168180611e7e308860048401614bba565b03915afa908115611f0957907f0b9150e1e54346ed3fa36b977cd5d65dca5a649c737c3174a26bddaadd47667a93929160209691611eec575b50611ed8575b611ecd8460405193849384614f39565b0390a1604051908152f35b611ee4846071546148e8565b607155611ebd565b611f039150863d8111610b7557610b6781836142f9565b38611eb7565b6040513d87823e3d90fd5b60018103611fc0575050607854604051637817ee4f60e01b8152829160209082906001600160a01b03168180611f4e308a60048401614bba565b03915afa908115611f09578591611f8f575b50611f6b83826148e8565b607754809111611f7e575b505091611e4f565b611f889250614d46565b3880611f76565b90506020813d8211611fb8575b81611fa9602093836142f9565b81010312610b23575138611f60565b3d9150611f9c565b90929060021901611e4f576078546040516316308e2560e11b81526001600160a01b038084166004830152929450908216916020918281602481875afa801561218c578590889061215b575b61201692506148e8565b6040516336d8759760e21b81529060128483600481895afa9081156118bd5761207f94866120749361207a968d9161212e575b5060046040518094819363313ce56760e01b8352165afa8b91816120ff575b506120f4575b50614fed565b90614f77565b614ffb565b816040518094637817ee4f60e01b8252818061209f308b60048401614bba565b03915afa918215610b305786926120c2575b506120bc9250614d46565b91611e4f565b90915082813d83116120ed575b6120d981836142f9565b81010312610b23576120bc915190386120b1565b503d6120cf565b60ff9150163861206e565b612120919250883d8a11612127575b61211881836142f9565b810190614fd4565b9038612068565b503d61210e565b61214e9150823d8411612154575b61214681836142f9565b810190614fb5565b38612049565b503d61213c565b50508281813d8311612185575b61217281836142f9565b81010312610b235784612016915161200c565b503d612168565b6040513d89823e3d90fd5b5034610392576020366003190112610392576004356001600160401b038111611185576121cb6104459136906004016144ad565b6121d36154f0565b61590f565b50346103925780600319360112610392576121f161462b565b603380546001600160a01b031981169091556000906001600160a01b0316600080516020615ef68339815191528280a380f35b5034610392576020366003190112610392576104456122416143cd565b612249614d20565b614d53565b5034610392578060031936011261039257602060405160038152f35b5034610392576060366003190112610392576122846143cd565b6024356001600160401b03811161116d573660238201121561116d576122b4903690602481600401359101614536565b906122d96122c06143b7565b61150160ff865460081c166122d481614888565b614888565b60018060a01b031660018060a01b0319606554161760655560405161231c8161230e602082019460208652604083019061435f565b03601f1981018352826142f9565b51902060665580f35b5034610392576020366003190112610392576113f160406020926004358152607b845220612357600782015443614d46565b906002600382015491015491615285565b50346103925780600319360112610392576078546040516001600160a01b039091168152602090f35b5034610392576020366003190112610392576020906040906001600160a01b036123b96143cd565b168152607c83522054604051908152f35b50346103925760203660031901126103925760206113f160043561534a565b50346103925780600319360112610392577f00000000000000000000000000000000000000000000000000000000000000006001600160a01b03163003612442576020604051600080516020615eb68339815191528152f35b60405162461bcd60e51b815260206004820152603860248201527f555550535570677261646561626c653a206d757374206e6f742062652063616c6044820152771b1959081d1a1c9bdd59da0819195b1959d85d1958d85b1b60421b6064820152608490fd5b506040366003190112610392576124bd6143cd565b6024356001600160401b03811161116d576124dc90369060040161456d565b6001600160a01b037f00000000000000000000000000000000000000000000000000000000000000008116929190612516308514156146c1565b612533600080516020615eb6833981519152948286541614614710565b61253b615dbd565b813391160361273957600080516020615e568339815191525460ff1615612568575050610445915061475f565b8216604051936352d1902d60e01b85526020948581600481865afa6000918161270a575b506125db5760405162461bcd60e51b815260048101879052602e6024820152600080516020615f5683398151915260448201526d6f6e206973206e6f74205555505360901b6064820152608490fd5b94929394036126b3576125ed8461475f565b600080516020615f16833981519152600080a28151158015906126ab575b612616575b50505080f35b612699926000806040519461262a866142de565b602786527f416464726573733a206c6f772d6c6576656c2064656c65676174652063616c6c85870152660819985a5b195960ca1b60408701528481519101845af4903d156126a2573d61267c8161451b565b9061268a60405192836142f9565b8152600081943d92013e6147ef565b50388080612610565b606092506147ef565b50600161260b565b60405162461bcd60e51b815260048101839052602960248201527f45524331393637557067726164653a20756e737570706f727465642070726f786044820152681a58589b195555525160ba1b6064820152608490fd5b90918782813d8311612732575b61272181836142f9565b81010312610392575051903861258c565b503d612717565b611396612744615dbd565b60405163163678e960e01b81529182913360048401614bba565b50346103925780600319360112610392576020606954604051908152f35b50346103925780600319360112610392576020606654604051908152f35b5034610392576020366003190112610392576040906004358152607f6020522060018060a01b0361038e8183541691600184015416926002810154906003810154600560048301549201549260405196879687614384565b50346103925780600319360112610392576020604051600a8152f35b50346103925780600319360112610392576020606854604051908152f35b5034610392576040366003190112610392576128466143cd565b607854604051633629edcd60e11b81526001600160a01b0392916020908290600490829087165afa80156129245783918591612906575b5016331415806128f3575b6128e1577f2667a0cd99dbc787d1d2596efe938cf43dfe83e8b8ddeb70e28007c09ff3348591816128ba602093614b98565b168060018060a01b0319607a541617607a556128d7602435615d1b565b604051908152a180f35b604051637430763f60e11b8152600490fd5b50816128fd615dbd565b16331415612888565b61291e915060203d81116121545761214681836142f9565b3861287d565b6040513d86823e3d90fd5b5034610392576020806003193601126111855761294a6143cd565b6001600160a01b037f00000000000000000000000000000000000000000000000000000000000000008116612981308214156146c1565b61299e600080516020615eb6833981519152918383541614614710565b6129a6615dbd565b823391160361273957604051916129bc836142c3565b858352600080516020615e568339815191525460ff16156129e457505050610445915061475f565b8316906040516352d1902d60e01b81528581600481865afa60009181612a95575b50612a545760405162461bcd60e51b815260048101879052602e6024820152600080516020615f5683398151915260448201526d6f6e206973206e6f74205555505360901b6064820152608490fd5b94929394036126b357612a668461475f565b600080516020615f16833981519152600080a2815115801590612a8d576126165750505080f35b50600061260b565b90918782813d8311612abd575b612aac81836142f9565b810103126103925750519038612a05565b503d612aa2565b5034610392578060031936011261039257602060ff6076541661152f60405180926145d9565b50346103925760603660031901126103925760206113f1604435602435600435615285565b50346103925780600319360112610392576020606c54604051908152f35b50346103925760403660031901126103925760043590818152602091607e8352604082205492838352607b8152604083209360108501548452607f8252604084209060405190612b7c8261428d565b60018060a01b0392838154168352600184818301541686850152600282015490604085019182526003830154926060860193845260056004820154916080880192835201549160a0870192835260088c0192835490600560ff8316612be08161431c565b0361308d57600d8e01549051612bf5916148e8565b42118015908180613080575b61306e5790613064575b15612da85750815115612d96576002915190808214612d87575b5014612d0c575b505083607954169084600e8a015416905192823b156119ac5791612c6b93918980946040519687958694859363099ea56b60e41b8552600485016151f0565b03925af18015610b3057908691612cf8575b50505b606d546001600160401b038082169791908815612ce4577f394027a5fa6e098a1191094d1719d6929b9abc535fcc0c8f448d6a4e756222769596979860001901169060018060401b03191617606d55600f429101555116916040516024358152a380f35b634e487b7160e01b88526011600452602488fd5b612d019061427a565b61114f578438612c7d565b600660ff1982541617905584607954168560058b015416915191813b15612d8357918991612d52938360405180968195829463099ea56b60e41b84528b600485016151f0565b03925af18015612d785790889115612c2c57612d6d9061427a565b61114b578638612c2c565b6040513d8a823e3d90fd5b8980fd5b835460ff191617835538612c25565b604051630dd466dd60e41b8152600490fd5b9150919250602435828114600014612e8457505060ff198254161790558360795416600485600e8b0154169287876078541660405193848092633629edcd60e11b82525afa918215612e79578a92612e5a575b5051823b15612d8357604051638969ab5360e01b8152948a94869493859387938593612e2d938d1691600486016158e7565b03925af18015610b3057908691612e46575b5050612c80565b612e4f9061427a565b61114f578438612e3f565b612e72919250883d8a116121545761214681836142f9565b9038612dfb565b6040513d8c823e3d90fd5b91949291600214612e9a575b5050505050612c80565b60069060ff1916179055846079541691600e8a019286845416915191813b15612fff57918a91612ee2938360405180968195829463099ea56b60e41b84528a600485016151f0565b03925af180156118bd57908991613050575b5050846079541690600460058b0192878454169089896078541660405194858092633629edcd60e11b82525afa928315613045578c93613026575b50606f548c52607f8a52600260408d200154871c91813b1561302257918c91612f7693838c60405196879586948593638969ab5360e01b9b8c865216908c600486016158e7565b03925af1801561301757908b91613003575b50508680806079541694541694541694606f548b52607f8952600260408c200154901c833b15612fff578a94939291612fd18692604051988997889687958652600486016158e7565b03925af18015610b3057908691612feb575b808080612e90565b612ff49061427a565b61114f578438612fe3565b8a80fd5b61300c9061427a565b612d83578938612f88565b6040513d8d823e3d90fd5b8c80fd5b61303e9193508a3d8c116121545761214681836142f9565b9138612f2f565b6040513d8e823e3d90fd5b6130599061427a565b611147578738612ef4565b5060243515612c0b565b604051631777988560e11b8152600490fd5b508a8a5116331415612c01565b604051634b011ca960e11b815260048101899052602490fd5b5034610392576040366003190112610392576130c06143cd565b906130c9614d20565b60ff60765460081c169160048310156134d1576002928381149081156134c6575b501561333057602435915b60018060a01b039384831694858352607c9060209682885260408520549160785416886040518092637817ee4f60e01b82528180613137308d60048401614bba565b03915afa8015610b3057839087906132ff575b6131549250614d46565b878110613191575b8888600080516020615e76833981519152818a61317b82607154614d46565b607155611ecd6040519283926024359084614f39565b6131a26131ad91899a98979a614d46565b92608093841b614f57565b90885b818a52607d885260408a2080548210156132da57816131ce916145e6565b9054600391821b1c90818c52607b8a5260408c20908460005260098201808c52604060002054906131ff8883614f77565b6001607f1b90808201106132c5576132178984614f77565b9081018091116132c557938f938d938f6132b8948f8f8f6132c09d9c9a8f93926132a796613292600080516020615ed68339815191529f9561326061329f976040971c8c614d46565b908d019a8b549961327a6132748484614d46565b8c614d46565b8d558960005284528187600020556109138282614d46565b9583525220918254614d46565b90558461546b565b549101549060405194859485614f8a565b0390a161494d565b6131b0565b50634e487b7160e01b8f52601160045260248ffd5b50505050505050600080516020615e768339815191529193508290913880808061315c565b50508881813d8311613329575b61331681836142f9565b81010312610b235782613154915161314a565b503d61330c565b6078546040516336d8759760e21b81526001600160a01b0391821691602091601291908381600481885afa90811561218c578291859189916134a9575b5060046040518094819363313ce56760e01b8352165afa87918161348a575b5061347f575b506040516316308e2560e11b815290851660048201528281602481875afa908115610b30578691613450575b506133dc916120746133d661207a9360243590614d46565b91614fed565b90806040518094637817ee4f60e01b825281806133fd308a60048401614bba565b03915afa908115611f09578591613420575b5061341a9250614d46565b916130f5565b905082813d8311613449575b61343681836142f9565b81010312610b235761341a91513861340f565b503d61342c565b90508281813d8311613478575b61346781836142f9565b81010312610b2357516133dc6133be565b503d61345d565b60ff16915038613392565b6134a2919250853d87116121275761211881836142f9565b903861338c565b6134c09150823d84116121545761214681836142f9565b3861336d565b6001915014386130ea565b634e487b7160e01b82526021600452602482fd5b506134ef3661458b565b90916134f961490b565b613501614931565b61350a82614b17565b6078546001600160a01b0391908216803b1561118557816024916040519283809263208a40f360e11b82523060048301525afa8015610b7c5790829161395f575b50508351840193602094858282031261116d57818601516001600160401b039283821161114f57019160a0838303126111695760405160a0810181811083821117611153576040528784015181526135a56040850161495c565b93888201948552606081015190604083019182526135c56080820161495c565b946060840195865260a0820151908582116119ac576135ea92908c0191018b016149d0565b906080830191825260ff6076541692600384101561394b576001809414613868575b50606f548752607f8a5260408720888154161515908161385a575b5061114b57613637606e5461494d565b9889606e55898852607b8b528860408920968b88558160058901998160018060a01b03199516858c5416178b555116600489019084825416179055511660068701918254161790555182850155600884018260ff1982541617905543600785015585600385015551918251600a85015588600b85019301518051918211613846576136c28454614225565b601f81116137ff575b508990601f831160011461379f579282939183928994613794575b50501b916000199060031b1c19161790555b6010606f5491015582806079541691541690803b1561116d57613733918391604051808095819463240ff7c560e11b83528a60048401614ae6565b039134905af18015610b7c57613780575b50507ffcf3b1aa65a464cef2889608f99e8b8c0f680a4be6c2acb9d961c536a5a9294b604060685481519081528486820152a160405191168152f35b61378a829161427a565b6103925780613744565b0151925038806136e6565b8488528a8820919083601f1981168a8e5b888383106137e757505050106137ce575b505050811b0190556136f8565b015160001960f88460031b161c191690553880806137c1565b8686015188559096019594850194879350018e6137b0565b8488528a8820601f840160051c8101918c851061383c575b601f0160051c019084905b8281106138305750506136cb565b60008155018490613822565b9091508190613817565b634e487b7160e01b87526041600452602487fd5b600291500154341038613627565b61387489885116614b98565b604051630ae6240f60e11b81528b81600481305afa9081156118bd578a918a918291613910575b506024838a51169451604051948593849263068bcd8d60e01b84526004840152165afa9081156118bd578a916040918b916138ee575b500151160361114b576138e48151615240565b61114b573861360c565b61390a91503d808d833e61390281836142f9565b810190614a4f565b386138d1565b925050508b81813d8311613944575b61392981836142f9565b810103126119ac575189811681036119ac57888a913861389b565b503d61391f565b634e487b7160e01b88526021600452602488fd5b6139689061427a565b61039257803861354b565b50346103925760203660031901126103925760406020916004358152607e83522054604051908152f35b5034610392578060031936011261039257608060725460735460745460755491604051938452602084015260408301526060820152f35b503461039257806003193601126103925761044533614d53565b50346103925760203660031901126103925760206113f1600435615839565b503461039257606036600319011261039257613a276143cd565b613a2f6143e3565b90613a386143b7565b83549260ff8460081c161593848095613baf575b8015613b98575b15613b3c5760ff198116600117865584613b2b575b50613aa460405192613a798461425f565b600a8452694356537472617465677960b01b602085015261150160ff885460081c166122d481614888565b60018060a01b03918260018060a01b03199416846065541617606555604051613add8161230e602082019460208652604083019061435f565b5190206066551690606a541617606a55613af45780f35b61ff001981541681557f7f26b83ff96e1f2b6a682f133852f6798a09c465da95921460cefb3847402498602060405160018152a180f35b61ffff191661010117855538613a68565b60405162461bcd60e51b815260206004820152602e60248201527f496e697469616c697a61626c653a20636f6e747261637420697320616c72656160448201526d191e481a5b9a5d1a585b1a5e995960921b6064820152608490fd5b50303b158015613a535750600160ff821614613a53565b50600160ff821610613a4c565b50346103925780600319360112610392576065546040516001600160a01b039091168152602090f35b50346103925780600319360112610392576020606f54604051908152f35b50346103925780600319360112610392576020604051629896808152f35b50346103925780600319360112610392576020606e54604051908152f35b50346103925780600319360112610392576079546040516001600160a01b039091168152602090f35b5034610392576060366003190112610392576001600160401b0360043581811161116d57613c9a9036906004016144ad565b5060243590811161118557613cb390369060040161456d565b90613cbc6143b7565b50613cc561490b565b613ccd614931565b60209182818051810103126111855782015160ff60765416906003821015611117576001809214613cfc578280f35b808352607b918285528060ff600860408720015416613d1a8161431c565b0361139a57818452828552806040852001546069541061116957613d3d82615839565b828552838652613d528260408720015461534a565b1180613f4f575b613f3d57818452828552613d7581604086200154606954614d46565b60695560018060a01b039283606554168560685460246040518094819363068bcd8d60e01b835260048301525afa908115610b305785916040918891613f23575b5001511683865281875285604081208885886004840154169201549373eeeeeeeeeeeeeeeeeeeeeeeeeeeeeeeeeeeeeeee8114600014613ee557505081809381925af115613ed8575b8285528086526040852060088101600460ff1982541617905584600581607954169201541690606f548752607f8852600260408820015491813b1561114757918791613e63938360405180968195829463099ea56b60e41b84528c600485016151f0565b03925af18015610b3057613eb1575b5090613ea791859684600080516020615f768339815191529752526040862093600485015416930154604051938493846151f0565b0390a18038808280f35b90600080516020615f7683398151915295613ecf613ea7949361427a565b95509091613e72565b63b12d13eb85526004601cfd5b83906010929560449460145260345263a9059cbb60601b82525af13d1583875114171615613f165784603452613dff565b6390b8ec1885526004601cfd5b613f3791503d808a833e61390281836142f9565b38613db6565b60405163199cf26160e31b8152600490fd5b50818452828552806040852001541515613d59565b50346103925761014036600319011261039257610445611a14366143f9565b5034610392578060031936011261039257604090606f548152607f6020522060018060a01b0361038e8183541691600184015416926002810154906003810154600560048301549201549260405196879687614384565b50346103925780600319360112610392576033546040516001600160a01b039091168152602090f35b503461039257602036600319011261039257600480358252607b6020526040822080546001820154600283015460038401549484015460058501546006860154600787015460088801549599969896979496949560ff169490936001600160a01b0392831693831692169061407860a061425f565b600a87015460a052600b870160405190818b82549261409684614225565b808452936001811690811561420357506001146141c2575b506140bb925003826142f9565b60c052604051986001600160401b0360608b01908111908b11176141ae575060608901604052600c8701548952600d87015460208a015260018060a01b03600e8801541660408a01526010600f880154970154976040519b8c9b8c5260208c015260408b015260608a0152608089015260a088015260c087015260e08601526141438161431c565b6101008501526101e08061012086015260a05190850152614176602060a00151604061020087015261022086019061435f565b835161014086015260208401516101608601526040909301516001600160a01b03166101808501526101a08401526101c08301520390f35b634e487b7160e01b81526041600452602490fd5b8d525060208c2090918c915b8183106141e75750509060206140bb92820101386140ae565b60209193508060019154838588010152019101909183926141ce565b9050602092506140bb94915060ff191682840152151560051b820101386140ae565b90600182811c92168015614255575b602083101461423f57565b634e487b7160e01b600052602260045260246000fd5b91607f1691614234565b604081019081106001600160401b0382111761115357604052565b6001600160401b03811161115357604052565b60c081019081106001600160401b0382111761115357604052565b608081019081106001600160401b0382111761115357604052565b602081019081106001600160401b0382111761115357604052565b606081019081106001600160401b0382111761115357604052565b601f909101601f19168101906001600160401b0382119082101761115357604052565b6007111561432657565b634e487b7160e01b600052602160045260246000fd5b60005b83811061434f5750506000910152565b818101518382015260200161433f565b906020916143788151809281855285808601910161433c565b601f01601f1916010190565b9260a09491979695929760c0850198600180881b0380921686521660208501526040840152606083015260808201520152565b604435906001600160a01b0382168203610b2357565b600435906001600160a01b0382168203610b2357565b602435906001600160a01b0382168203610b2357565b60c0906003190112610b2357604051906144128261428d565b816001600160a01b036004358181168103610b235782526024359081168103610b2357602082015260443560408201526064356060820152608435608082015260a060a435910152565b60809060c3190112610b235760405190614475826142a8565b60c435825260e4356020830152610104356040830152610124356060830152565b6001600160401b0381116111535760051b60200190565b81601f82011215610b23578035916144c483614496565b926144d260405194856142f9565b808452602092838086019260051b820101928311610b23578301905b8282106144fc575050505090565b81356001600160a01b0381168103610b235781529083019083016144ee565b6001600160401b03811161115357601f01601f191660200190565b9291926145428261451b565b9161455060405193846142f9565b829481845281830111610b23578281602093846000960137010152565b9080601f83011215610b235781602061458893359101614536565b90565b6040600319820112610b2357600435906001600160401b038211610b23576145b59160040161456d565b906024356001600160a01b0381168103610b235790565b9060048210156143265752565b9060038210156143265752565b80548210156109be5760005260206000200190600090565b9181601f84011215610b23578235916001600160401b038311610b235760208381860195010111610b2357565b614633615dbd565b336001600160a01b039091160361464657565b606460405162461bcd60e51b815260206004820152602060248201527f4f776e61626c653a2063616c6c6572206973206e6f7420746865206f776e65726044820152fd5b603380546001600160a01b039283166001600160a01b031982168117909255909116600080516020615ef6833981519152600080a3565b156146c857565b60405162461bcd60e51b815260206004820152602c6024820152600080516020615e9683398151915260448201526b19195b1959d85d1958d85b1b60a21b6064820152608490fd5b1561471757565b60405162461bcd60e51b815260206004820152602c6024820152600080516020615e9683398151915260448201526b6163746976652070726f787960a01b6064820152608490fd5b803b1561479457600080516020615eb683398151915280546001600160a01b0319166001600160a01b03909216919091179055565b60405162461bcd60e51b815260206004820152602d60248201527f455243313936373a206e657720696d706c656d656e746174696f6e206973206e60448201526c1bdd08184818dbdb9d1c9858dd609a1b6064820152608490fd5b919290156148515750815115614803575090565b3b1561480c5790565b60405162461bcd60e51b815260206004820152601d60248201527f416464726573733a2063616c6c20746f206e6f6e2d636f6e74726163740000006044820152606490fd5b8251909150156148645750805190602001fd5b60405162461bcd60e51b81526020600482015290819061139690602483019061435f565b1561488f57565b60405162461bcd60e51b815260206004820152602b60248201527f496e697469616c697a61626c653a20636f6e7472616374206973206e6f74206960448201526a6e697469616c697a696e6760a81b6064820152608490fd5b919082018092116148f557565b634e487b7160e01b600052601160045260246000fd5b6065546001600160a01b0316330361491f57565b60405163075fd2b160e01b8152600490fd5b6068541561493b57565b604051630f68fe6360e21b8152600490fd5b60001981146148f55760010190565b51906001600160a01b0382168203610b2357565b606080918051845260208101516020850152604081015160408501520151910152565b90815180825260208080930193019160005b8281106149b3575050505090565b83516001600160a01b0316855293810193928101926001016149a5565b9190604083820312610b23576040516149e88161425f565b83518152602084015190938491906001600160401b038211610b2357019082601f83011215610b2357815191614a1d8361451b565b93614a2b60405195866142f9565b83855260208483010111610b2357602092614a4b9184808701910161433c565b0152565b90602082820312610b235781516001600160401b0392838211610b23570160c081830312610b235760405192614a848461428d565b8151845260208201516001600160a01b0381168103610b23576020850152614aae6040830161495c565b60408501526060820151908111610b235760a092614acd9183016149d0565b606084015260808101516080840152015160a082015290565b9081526001600160a01b03909116602082015260400190565b90816020910312610b2357518015158103610b235790565b60785460405163288c314960e21b81526001600160a01b0392831660048201529160209183916024918391165afa908115614b8c57600091614b6e575b5015614b5c57565b604051636a5cfb6d60e01b8152600490fd5b614b86915060203d8111610b7557610b6781836142f9565b38614b54565b6040513d6000823e3d90fd5b6001600160a01b031615614ba857565b6040516303988b8160e61b8152600490fd5b6001600160a01b0391821681529116602082015260400190565b607a546001600160a01b03908116908115614c3c5750614c0e9160209160405180809581946302154c3d60e51b8352309060048401614bba565b03915afa908115614b8c57600091614c24575090565b614588915060203d8111610b7557610b6781836142f9565b90506068549160405192602093848101916810531313d5d31254d560ba1b8352602982015260298152614c6e816142de565b51902091607854169060405191632474521560e21b92838152846004820152600060248201528581604481855afa908115614b8c57600091614d03575b5015614cbb575050505050600190565b614cd693859360405195869485938493845260048401614ae6565b03915afa918215614b8c57600092614ced57505090565b6145889250803d10610b7557610b6781836142f9565b614d1a9150863d8811610b7557610b6781836142f9565b38614cab565b6078546001600160a01b03163303614d3457565b6040516357848b5160e11b8152600490fd5b919082039182116148f557565b60785460408051637817ee4f60e01b81526001600160a01b03949193602093600093919290871690858180614d8c308860048401614bba565b0381855afa8015614f2f578590614f00575b614dab9150607154614d46565b607155803b156111695783865180926322bcf99960e01b8252818381614dd5308a60048401614bba565b03925af18015614ef657614ee3575b50825b868316808552607d86528685208054831015614ea85790614e0c83614e3794936145e6565b919054600392831b1c808852607b895289882091614e2982615211565b614e3c575b5050505061494d565b614de7565b600080516020615ed683398151915293614e9c91600052600984018b528b6000208a81549155614e8c6002860191614e75818454614d46565b83556070614e84828254614d46565b90558661546b565b549301548b519384938a85614f8a565b0390a138808080614e2e565b505050947f1468da654b37bb3631011c1917d02e0db437d519918858d40b38b5e980ca033b94911691828152607c84528181205551908152a1565b614eef9093919361427a565b9138614de4565b86513d86823e3d90fd5b508581813d8311614f28575b614f1681836142f9565b8101031261114f57614dab9051614d9e565b503d614f0c565b87513d87823e3d90fd5b604091949392606082019560018060a01b0316825260208201520152565b8115614f61570490565b634e487b7160e01b600052601260045260246000fd5b818102929181159184041417156148f557565b9094939260809260a083019660018060a01b0316835260208301526000604083015260608201520152565b90816020910312610b2357516001600160a01b0381168103610b235790565b90816020910312610b23575160ff81168103610b235790565b604d81116148f557600a0a90565b8015615138576150c6816000908360801c8061512c575b508060401c8061511f575b508060201c80615112575b508060101c80615105575b508060081c806150f8575b508060041c806150eb575b508060021c806150de575b50600191828092811c6150d7575b1c1b61506e8185614f57565b01811c61507b8185614f57565b01811c6150888185614f57565b01811c6150958185614f57565b01811c6150a28185614f57565b01811c6150af8185614f57565b01811c6150bc8185614f57565b01901c8092614f57565b808210156150d2575090565b905090565b0181615062565b6002915091019038615054565b6004915091019038615049565b600891509101903861503e565b6010915091019038615033565b6020915091019038615028565b604091509101903861501d565b91505060809038615012565b50600090565b906020918281830312610b23578051906001600160401b038211610b23570181601f82011215610b235780519261517484614496565b93604093615184855196876142f9565b818652828087019260061b85010193818511610b23578301915b8483106151ae5750505050505090565b8583830312610b235783869182516151c58161425f565b85518152828601518382015281520192019161519e565b80518210156109be5760209160051b010190565b9081526001600160a01b039091166020820152604081019190915260600190565b600052607b602052604060002080541515908161522c575090565b600501546001600160a01b03161515919050565b61524f60725460695490614f77565b62989680918281029281840414901517156148f557111590565b919091600083820193841291129080158216911516176148f557565b9091607454906298968093848360801b0484600160801b955b6153095750506152ae9084614f77565b92848202918083048614901517156148f557600160801b9081039081116148f5576152d891614f77565b9083039283116148f5576152f5926152ef91614f57565b906148e8565b6001607f1b81019081106148f55760801c90565b600191818316615329578061531d91615461565b911c90815b909161529e565b8092506153369196615461565b9460001981019081116148f5579081615322565b60695480156154195761535c82615240565b610b2357607254604081901b92600160401b92918015908504841417156148f5578060401b9281840414901517156148f55761539e6153aa916153c593614f57565b62989680809404614d46565b6153bc8360735460801b049180614f77565b60401c90614f57565b90808202918083048214901517156148f55760745481039081116148f5576153ec91614f57565b906153fa6071548093614f77565b60401c9161540457565b9061540d61542b565b808211156150d2575090565b60405163ed4421ad60e01b8152600490fd5b6075546298968090818102908082048314901517156148f55761545d906154586071549161207483615867565b614f57565b0490565b906152f591614f77565b90615476908261549d565b9091821580615495575b6154905760039160078201550155565b505050565b508115615480565b43916007820154918383116154da578383146154ce5760036154c26154cb9486614d46565b91015490615285565b91565b50505050600090600090565b634e487b7160e01b600052600160045260246000fd5b607854604051633629edcd60e11b81526001600160a01b03916020908290600490829086165afa908115614b8c57600091615530575b501633036128e157565b615548915060203d81116121545761214681836142f9565b38615526565b60208181018051919290916001600160a01b03906000908216801515908161582c575b8161578a575b506155bf575b5050505081608091600080516020615e368339815191529351607255810151607355604081015160745560608101516075556155bc6040518092614970565ba1565b606f548152607f85526040908181208360018201541690848088511680931491821592615778575b50506156af575b5093600560809694600080516020615f36833981519152948460e095600080516020615e368339815191529b99615626606f5461494d565b80606f558152607f8a522091808451169560018060a01b0319918783865416178555600185019151168092825416179055818401519182600285015560608501519384600382015560a08d8701519687600484015501519687910155606f549681519788528a88015286015260608501528884015260a083015260c0820152a19181933861557d565b8385511690813b1561116d578291602483928651948593849263446adb9960e11b845260048401525af1801561576e5794600080516020615f36833981519152948460e095600080516020615e368339815191529b999560059560809c9a61575f575b507fdc20f5c479493aac0cf803ca3b82ebc1964faa557450a37ea0a8121b0e98454f60608b86885116878b51169086519230845283015285820152a195999b5050945094509496506155ee565b6157689061427a565b38615712565b83513d84823e3d90fd5b909150541684865116141584386155e7565b606f548352607f875260408320600181015485169091148015925061581a575b8115615807575b81156157f4575b81156157e1575b81156157cd575b5038615577565b9050600560a08501519101541415386157c6565b60808501516004820154141591506157bf565b60608501516003820154141591506157b8565b60408501516002820154141591506157b1565b905082845116838254161415906157aa565b8451841615159150615571565b80600052607b6020526040600020908082540361067f575080615862600260039301548261546b565b015490565b62989680808202918083048214901517156148f55760745481039081116148f55761458891614f57565b9061589b9161554e565b80516158b7575b5080516158ac5750565b6158b590615b6e565b565b6158c09061590f565b386158a2565b908060209392818452848401376000828201840152601f01601f1916010190565b9081526001600160a01b03918216602082015291166040820152606081019190915260800190565b6068918254926000926040908151956020968781016810531313d5d31254d560ba1b9182825260299384820152838152615948816142de565b5190209760018060a01b0392607896848854169a875198632474521560e21b9c8d8b5260049a838c8201528d60248201528681604481855afa908115615a7a578e91615b51575b50615b00575b508b5b8851811015615ab35788838f8d89916159cc8f8e6159ba89828c5416996151dc565b51169051958694859485528401614ae6565b0381855afa908115615aa7578f91615a8a575b50156159f5575b506159f09061494d565b615998565b84548b51888101918a835288820152878152615a10816142de565b5190209089615a1f848d6151dc565b511691813b15615a8657918f91615a4e938f8f9085915196879586948593632f2ff15d60e01b85528401614ae6565b03925af18015615a7a57908e91615a66575b506159e6565b615a6f9061427a565b613022578c38615a60565b8e8c51903d90823e3d90fd5b8f80fd5b615aa19150883d8a11610b7557610b6781836142f9565b386159df565b8f8d51903d90823e3d90fd5b505050935050959750507f7a2e396a5614184c0af2c60827c206595126faa1238b94e19823192de52e728a9550615afb92935054928080519586958652850152830190614993565b0390a1565b803b15613022578c8360448d838e51958694859363d547741f60e01b85528401528160248401525af18015615b47571561599557615b40909c919c61427a565b9a38615995565b8a513d8f823e3d90fd5b615b689150873d8911610b7557610b6781836142f9565b3861598f565b6000915b8151831015615cd85760018060a01b03928360785416938360685495604096875160209081810192615bee8388615bd18b6810531313d5d31254d560ba1b988981526029978789820152888152615bc8816142de565b5190209a6151dc565b51168d5180938192632474521560e21b835260049b8c8401614ae6565b0381895afa908115615ccd57600091615cb0575b50615c22575b50505050505050615c1b9192935061494d565b9190615b72565b8a51928301938452818301528152615c39816142de565b51902092615c4785886151dc565b511690803b15610b2357615c7393600080948a519687958694859363d547741f60e01b85528401614ae6565b03925af18015615ca557615c1b93949550615c96575b8493928180808080615c08565b615c9f9061427a565b38615c89565b85513d6000823e3d90fd5b615cc79150843d8611610b7557610b6781836142f9565b38615c02565b8c513d6000823e3d90fd5b91507fd418c93b6b78d828a87ee1909e6fcdbbf2f8d8f540ad7b232bb3e221e6d7cc1e90606854615afb6040519283928352604060208401526040830190614993565b60018060a01b0390600482607a54166020846078541660405193848092633629edcd60e11b82525afa918215614b8c57600092615d9d575b50803b15610b235760009283606492604051968795869463fc2ebdd160e01b865230600487015260248601521660448401525af18015614b8c57615d945750565b6158b59061427a565b615db691925060203d81116121545761214681836142f9565b9038615d53565b6033546001600160a01b0316803b615dd25790565b604051638da5cb5b60e01b8152602081600481855afa60009181615dfa575b506150d2575090565b90916020823d8211615e2d575b81615e14602093836142f9565b810103126103925750615e269061495c565b9038615df1565b3d9150615e0756feec9315d9f4291207475c061feff1e5d7105750ac0ee9534af9444b4ff1dab9bc4910fdfa16fed3260ed0e7147f7cc6da11a60208b5b9406d12a635614ffd914370b752f3fadb6ac131c0ece847fcbb6994ec56ed6411595710fd9b29c6ac6cc146756e6374696f6e206d7573742062652063616c6c6564207468726f75676820360894a13ba1a3210667c828492db98dca3e2076cc3735a920a3ca505d382bbc0227f642ddcf2042ceaeafadb9d540f432072c00cd4862881667168dcc14710f8be0079c531659141344cd1fd0a4f28419497f9722a3daafe3b4186f6b6457e0bc7cd75a20ee27fd9adebab32041f755214dbc6bffa90cc0225b39da2e5c2d3be677e2878aaaaf6a65ecf50f849ad58100c49f6dfd57d055ba4bddd63a175d5345524331393637557067726164653a206e657720696d706c656d656e74617469a7932e9c92f31e1ed56b29d00bbe669a97484dc24de28dd9c8c0429df7f35847a26469706673582212200c8921eb3ab050505beb7313df5952a4b6c0044751da5d3a2b9220fbb6eba84664736f6c63430008130033","linkReferences":{}},"methodIdentifiers":{"D()":"0f529ba2","DISPUTE_COOLDOWN_SEC()":"f5be3f7c","MAX_STAKED_PROPOSALS()":"406244d8","NATIVE()":"a0cf0aea","RULING_OPTIONS()":"626c47e8","VERSION()":"ffa1ad74","activatePoints()":"814516ad","addToAllowList(address[])":"7263cfe2","allocate(bytes,address)":"ef2920fc","arbitrableConfigs(uint256)":"41bb7605","calculateConviction(uint256,uint256,uint256)":"346db8cb","calculateProposalConviction(uint256)":"60b0645a","calculateThreshold(uint256)":"59a5db8b","calculateThresholdOverride()":"d5cc68a6","canExecuteProposal(uint256)":"824ea8ed","cancelProposal(uint256)":"e0a8f6f5","cloneNonce()":"33960459","collateralVault()":"0bece79c","currentArbitrableConfigVersion()":"125fd1d9","cvParams()":"2506b870","deactivatePoints()":"1ddf1e23","deactivatePoints(address)":"6453d9c4","decreasePower(address,uint256)":"2ed04b2b","disputeCount()":"a28889e1","disputeIdToProposalId(uint256)":"255ffb38","disputeProposal(uint256,string,bytes)":"b41596ec","distribute(address[],bytes,address)":"0a6f0ee9","getAllo()":"15cc481e","getArbitrableConfig()":"059351cd","getMaxConviction(uint256)":"950559d7","getPayouts(address[],bytes[])":"b2b878d0","getPointSystem()":"c3292171","getPoolAmount()":"4ab4ba42","getPoolId()":"38fff2d0","getProposal(uint256)":"c7f758a8","getProposalVoterStake(uint256,address)":"e0dd2c38","getRecipientStatus(address)":"eb11af93","getStrategyId()":"42fda9c7","increasePoolAmount(uint256)":"f5b0dfb7","increasePower(address,uint256)":"782aadff","init(address,address,address)":"184b9559","init(address,string,address)":"60d5dedc","initialize(address)":"c4d66de8","initialize(uint256,bytes)":"edd146cc","isPoolActive()":"df868ed3","isValidAllocator(address)":"4d31d087","owner()":"8da5cb5b","pointConfig()":"a47ff7e5","pointSystem()":"2dbd6fdd","proposalCounter()":"0c0512e9","proposalType()":"351d9f96","proposals(uint256)":"013cf08b","proxiableUUID()":"52d1902d","proxyOwner()":"025313a2","registerRecipient(bytes,address)":"2bbe0cae","registryCommunity()":"6003e414","removeFromAllowList(address[])":"a51312c8","renounceOwnership()":"715018a6","rule(uint256,uint256)":"311a6c56","setCollateralVaultTemplate(address)":"b0d3713a","setPoolActive(bool)":"b5f620ce","setPoolParams((address,address,uint256,uint256,uint256,uint256),(uint256,uint256,uint256,uint256))":"062f9ece","setPoolParams((address,address,uint256,uint256,uint256,uint256),(uint256,uint256,uint256,uint256),address[],address[])":"948e7a59","setPoolParams((address,address,uint256,uint256,uint256,uint256),(uint256,uint256,uint256,uint256),uint256)":"ad56fd5d","setSybilScorer(address,uint256)":"3864d366","sybilScorer()":"b6c61f31","totalPointsActivated()":"aba9ffee","totalStaked()":"817b1cd2","totalVoterStakePct(address)":"5db64b99","transferOwnership(address)":"f2fde38b","updateProposalConviction(uint256)":"1aa91a9e","upgradeTo(address)":"3659cfe6","upgradeToAndCall(address,bytes)":"4f1ef286","voterStakedProposals(address,uint256)":"868c57b8"},"storageLayout":{"storage":[{"astId":52287,"contract":"pkg/contracts/src/CVStrategy/CVStrategyV0_0.sol:CVStrategyV0_0","label":"_initialized","offset":0,"slot":"0","type":"t_uint8"},{"astId":52290,"contract":"pkg/contracts/src/CVStrategy/CVStrategyV0_0.sol:CVStrategyV0_0","label":"_initializing","offset":1,"slot":"0","type":"t_bool"},{"astId":52992,"contract":"pkg/contracts/src/CVStrategy/CVStrategyV0_0.sol:CVStrategyV0_0","label":"__gap","offset":0,"slot":"1","type":"t_array(t_uint256)50_storage"},{"astId":52079,"contract":"pkg/contracts/src/CVStrategy/CVStrategyV0_0.sol:CVStrategyV0_0","label":"_owner","offset":0,"slot":"51","type":"t_address"},{"astId":52199,"contract":"pkg/contracts/src/CVStrategy/CVStrategyV0_0.sol:CVStrategyV0_0","label":"__gap","offset":0,"slot":"52","type":"t_array(t_uint256)49_storage"},{"astId":64733,"contract":"pkg/contracts/src/CVStrategy/CVStrategyV0_0.sol:CVStrategyV0_0","label":"allo","offset":0,"slot":"101","type":"t_contract(IAllo)2610"},{"astId":64735,"contract":"pkg/contracts/src/CVStrategy/CVStrategyV0_0.sol:CVStrategyV0_0","label":"strategyId","offset":0,"slot":"102","type":"t_bytes32"},{"astId":64737,"contract":"pkg/contracts/src/CVStrategy/CVStrategyV0_0.sol:CVStrategyV0_0","label":"poolActive","offset":0,"slot":"103","type":"t_bool"},{"astId":64739,"contract":"pkg/contracts/src/CVStrategy/CVStrategyV0_0.sol:CVStrategyV0_0","label":"poolId","offset":0,"slot":"104","type":"t_uint256"},{"astId":64741,"contract":"pkg/contracts/src/CVStrategy/CVStrategyV0_0.sol:CVStrategyV0_0","label":"poolAmount","offset":0,"slot":"105","type":"t_uint256"},{"astId":65749,"contract":"pkg/contracts/src/CVStrategy/CVStrategyV0_0.sol:CVStrategyV0_0","label":"collateralVaultTemplate","offset":0,"slot":"106","type":"t_address"},{"astId":65751,"contract":"pkg/contracts/src/CVStrategy/CVStrategyV0_0.sol:CVStrategyV0_0","label":"surpressStateMutabilityWarning","offset":0,"slot":"107","type":"t_uint256"},{"astId":65753,"contract":"pkg/contracts/src/CVStrategy/CVStrategyV0_0.sol:CVStrategyV0_0","label":"cloneNonce","offset":0,"slot":"108","type":"t_uint256"},{"astId":65755,"contract":"pkg/contracts/src/CVStrategy/CVStrategyV0_0.sol:CVStrategyV0_0","label":"disputeCount","offset":0,"slot":"109","type":"t_uint64"},{"astId":65757,"contract":"pkg/contracts/src/CVStrategy/CVStrategyV0_0.sol:CVStrategyV0_0","label":"proposalCounter","offset":0,"slot":"110","type":"t_uint256"},{"astId":65759,"contract":"pkg/contracts/src/CVStrategy/CVStrategyV0_0.sol:CVStrategyV0_0","label":"currentArbitrableConfigVersion","offset":0,"slot":"111","type":"t_uint256"},{"astId":65761,"contract":"pkg/contracts/src/CVStrategy/CVStrategyV0_0.sol:CVStrategyV0_0","label":"totalStaked","offset":0,"slot":"112","type":"t_uint256"},{"astId":65763,"contract":"pkg/contracts/src/CVStrategy/CVStrategyV0_0.sol:CVStrategyV0_0","label":"totalPointsActivated","offset":0,"slot":"113","type":"t_uint256"},{"astId":65766,"contract":"pkg/contracts/src/CVStrategy/CVStrategyV0_0.sol:CVStrategyV0_0","label":"cvParams","offset":0,"slot":"114","type":"t_struct(CVParams)65488_storage"},{"astId":65769,"contract":"pkg/contracts/src/CVStrategy/CVStrategyV0_0.sol:CVStrategyV0_0","label":"proposalType","offset":0,"slot":"118","type":"t_enum(ProposalType)65391"},{"astId":65772,"contract":"pkg/contracts/src/CVStrategy/CVStrategyV0_0.sol:CVStrategyV0_0","label":"pointSystem","offset":1,"slot":"118","type":"t_enum(PointSystem)65396"},{"astId":65775,"contract":"pkg/contracts/src/CVStrategy/CVStrategyV0_0.sol:CVStrategyV0_0","label":"pointConfig","offset":0,"slot":"119","type":"t_struct(PointSystemConfig)65465_storage"},{"astId":65778,"contract":"pkg/contracts/src/CVStrategy/CVStrategyV0_0.sol:CVStrategyV0_0","label":"registryCommunity","offset":0,"slot":"120","type":"t_contract(RegistryCommunityV0_0)72643"},{"astId":65781,"contract":"pkg/contracts/src/CVStrategy/CVStrategyV0_0.sol:CVStrategyV0_0","label":"collateralVault","offset":0,"slot":"121","type":"t_contract(ICollateralVault)74126"},{"astId":65784,"contract":"pkg/contracts/src/CVStrategy/CVStrategyV0_0.sol:CVStrategyV0_0","label":"sybilScorer","offset":0,"slot":"122","type":"t_contract(ISybilScorer)69799"},{"astId":65789,"contract":"pkg/contracts/src/CVStrategy/CVStrategyV0_0.sol:CVStrategyV0_0","label":"proposals","offset":0,"slot":"123","type":"t_mapping(t_uint256,t_struct(Proposal)65457_storage)"},{"astId":65793,"contract":"pkg/contracts/src/CVStrategy/CVStrategyV0_0.sol:CVStrategyV0_0","label":"totalVoterStakePct","offset":0,"slot":"124","type":"t_mapping(t_address,t_uint256)"},{"astId":65798,"contract":"pkg/contracts/src/CVStrategy/CVStrategyV0_0.sol:CVStrategyV0_0","label":"voterStakedProposals","offset":0,"slot":"125","type":"t_mapping(t_address,t_array(t_uint256)dyn_storage)"},{"astId":65802,"contract":"pkg/contracts/src/CVStrategy/CVStrategyV0_0.sol:CVStrategyV0_0","label":"disputeIdToProposalId","offset":0,"slot":"126","type":"t_mapping(t_uint256,t_uint256)"},{"astId":65807,"contract":"pkg/contracts/src/CVStrategy/CVStrategyV0_0.sol:CVStrategyV0_0","label":"arbitrableConfigs","offset":0,"slot":"127","type":"t_mapping(t_uint256,t_struct(ArbitrableConfig)65479_storage)"},{"astId":69455,"contract":"pkg/contracts/src/CVStrategy/CVStrategyV0_0.sol:CVStrategyV0_0","label":"__gap","offset":0,"slot":"128","type":"t_array(t_uint256)50_storage"}],"types":{"t_address":{"encoding":"inplace","label":"address","numberOfBytes":"20"},"t_array(t_uint256)49_storage":{"encoding":"inplace","label":"uint256[49]","numberOfBytes":"1568","base":"t_uint256"},"t_array(t_uint256)50_storage":{"encoding":"inplace","label":"uint256[50]","numberOfBytes":"1600","base":"t_uint256"},"t_array(t_uint256)dyn_storage":{"encoding":"dynamic_array","label":"uint256[]","numberOfBytes":"32","base":"t_uint256"},"t_bool":{"encoding":"inplace","label":"bool","numberOfBytes":"1"},"t_bytes32":{"encoding":"inplace","label":"bytes32","numberOfBytes":"32"},"t_contract(IAllo)2610":{"encoding":"inplace","label":"contract IAllo","numberOfBytes":"20"},"t_contract(IArbitrator)74093":{"encoding":"inplace","label":"contract IArbitrator","numberOfBytes":"20"},"t_contract(ICollateralVault)74126":{"encoding":"inplace","label":"contract ICollateralVault","numberOfBytes":"20"},"t_contract(ISybilScorer)69799":{"encoding":"inplace","label":"contract ISybilScorer","numberOfBytes":"20"},"t_contract(RegistryCommunityV0_0)72643":{"encoding":"inplace","label":"contract RegistryCommunityV0_0","numberOfBytes":"20"},"t_enum(PointSystem)65396":{"encoding":"inplace","label":"enum PointSystem","numberOfBytes":"1"},"t_enum(ProposalStatus)65416":{"encoding":"inplace","label":"enum ProposalStatus","numberOfBytes":"1"},"t_enum(ProposalType)65391":{"encoding":"inplace","label":"enum ProposalType","numberOfBytes":"1"},"t_mapping(t_address,t_array(t_uint256)dyn_storage)":{"encoding":"mapping","key":"t_address","label":"mapping(address => uint256[])","numberOfBytes":"32","value":"t_array(t_uint256)dyn_storage"},"t_mapping(t_address,t_uint256)":{"encoding":"mapping","key":"t_address","label":"mapping(address => uint256)","numberOfBytes":"32","value":"t_uint256"},"t_mapping(t_uint256,t_struct(ArbitrableConfig)65479_storage)":{"encoding":"mapping","key":"t_uint256","label":"mapping(uint256 => struct ArbitrableConfig)","numberOfBytes":"32","value":"t_struct(ArbitrableConfig)65479_storage"},"t_mapping(t_uint256,t_struct(Proposal)65457_storage)":{"encoding":"mapping","key":"t_uint256","label":"mapping(uint256 => struct Proposal)","numberOfBytes":"32","value":"t_struct(Proposal)65457_storage"},"t_mapping(t_uint256,t_uint256)":{"encoding":"mapping","key":"t_uint256","label":"mapping(uint256 => uint256)","numberOfBytes":"32","value":"t_uint256"},"t_string_storage":{"encoding":"bytes","label":"string","numberOfBytes":"32"},"t_struct(ArbitrableConfig)65479_storage":{"encoding":"inplace","label":"struct ArbitrableConfig","numberOfBytes":"192","members":[{"astId":65468,"contract":"pkg/contracts/src/CVStrategy/CVStrategyV0_0.sol:CVStrategyV0_0","label":"arbitrator","offset":0,"slot":"0","type":"t_contract(IArbitrator)74093"},{"astId":65470,"contract":"pkg/contracts/src/CVStrategy/CVStrategyV0_0.sol:CVStrategyV0_0","label":"tribunalSafe","offset":0,"slot":"1","type":"t_address"},{"astId":65472,"contract":"pkg/contracts/src/CVStrategy/CVStrategyV0_0.sol:CVStrategyV0_0","label":"submitterCollateralAmount","offset":0,"slot":"2","type":"t_uint256"},{"astId":65474,"contract":"pkg/contracts/src/CVStrategy/CVStrategyV0_0.sol:CVStrategyV0_0","label":"challengerCollateralAmount","offset":0,"slot":"3","type":"t_uint256"},{"astId":65476,"contract":"pkg/contracts/src/CVStrategy/CVStrategyV0_0.sol:CVStrategyV0_0","label":"defaultRuling","offset":0,"slot":"4","type":"t_uint256"},{"astId":65478,"contract":"pkg/contracts/src/CVStrategy/CVStrategyV0_0.sol:CVStrategyV0_0","label":"defaultRulingTimeout","offset":0,"slot":"5","type":"t_uint256"}]},"t_struct(CVParams)65488_storage":{"encoding":"inplace","label":"struct CVParams","numberOfBytes":"128","members":[{"astId":65481,"contract":"pkg/contracts/src/CVStrategy/CVStrategyV0_0.sol:CVStrategyV0_0","label":"maxRatio","offset":0,"slot":"0","type":"t_uint256"},{"astId":65483,"contract":"pkg/contracts/src/CVStrategy/CVStrategyV0_0.sol:CVStrategyV0_0","label":"weight","offset":0,"slot":"1","type":"t_uint256"},{"astId":65485,"contract":"pkg/contracts/src/CVStrategy/CVStrategyV0_0.sol:CVStrategyV0_0","label":"decay","offset":0,"slot":"2","type":"t_uint256"},{"astId":65487,"contract":"pkg/contracts/src/CVStrategy/CVStrategyV0_0.sol:CVStrategyV0_0","label":"minThresholdPoints","offset":0,"slot":"3","type":"t_uint256"}]},"t_struct(Metadata)3098_storage":{"encoding":"inplace","label":"struct Metadata","numberOfBytes":"64","members":[{"astId":3094,"contract":"pkg/contracts/src/CVStrategy/CVStrategyV0_0.sol:CVStrategyV0_0","label":"protocol","offset":0,"slot":"0","type":"t_uint256"},{"astId":3097,"contract":"pkg/contracts/src/CVStrategy/CVStrategyV0_0.sol:CVStrategyV0_0","label":"pointer","offset":0,"slot":"1","type":"t_string_storage"}]},"t_struct(PointSystemConfig)65465_storage":{"encoding":"inplace","label":"struct PointSystemConfig","numberOfBytes":"32","members":[{"astId":65464,"contract":"pkg/contracts/src/CVStrategy/CVStrategyV0_0.sol:CVStrategyV0_0","label":"maxAmount","offset":0,"slot":"0","type":"t_uint256"}]},"t_struct(Proposal)65457_storage":{"encoding":"inplace","label":"struct Proposal","numberOfBytes":"544","members":[{"astId":65425,"contract":"pkg/contracts/src/CVStrategy/CVStrategyV0_0.sol:CVStrategyV0_0","label":"proposalId","offset":0,"slot":"0","type":"t_uint256"},{"astId":65427,"contract":"pkg/contracts/src/CVStrategy/CVStrategyV0_0.sol:CVStrategyV0_0","label":"requestedAmount","offset":0,"slot":"1","type":"t_uint256"},{"astId":65429,"contract":"pkg/contracts/src/CVStrategy/CVStrategyV0_0.sol:CVStrategyV0_0","label":"stakedAmount","offset":0,"slot":"2","type":"t_uint256"},{"astId":65431,"contract":"pkg/contracts/src/CVStrategy/CVStrategyV0_0.sol:CVStrategyV0_0","label":"convictionLast","offset":0,"slot":"3","type":"t_uint256"},{"astId":65433,"contract":"pkg/contracts/src/CVStrategy/CVStrategyV0_0.sol:CVStrategyV0_0","label":"beneficiary","offset":0,"slot":"4","type":"t_address"},{"astId":65435,"contract":"pkg/contracts/src/CVStrategy/CVStrategyV0_0.sol:CVStrategyV0_0","label":"submitter","offset":0,"slot":"5","type":"t_address"},{"astId":65437,"contract":"pkg/contracts/src/CVStrategy/CVStrategyV0_0.sol:CVStrategyV0_0","label":"requestedToken","offset":0,"slot":"6","type":"t_address"},{"astId":65439,"contract":"pkg/contracts/src/CVStrategy/CVStrategyV0_0.sol:CVStrategyV0_0","label":"blockLast","offset":0,"slot":"7","type":"t_uint256"},{"astId":65442,"contract":"pkg/contracts/src/CVStrategy/CVStrategyV0_0.sol:CVStrategyV0_0","label":"proposalStatus","offset":0,"slot":"8","type":"t_enum(ProposalStatus)65416"},{"astId":65446,"contract":"pkg/contracts/src/CVStrategy/CVStrategyV0_0.sol:CVStrategyV0_0","label":"voterStakedPoints","offset":0,"slot":"9","type":"t_mapping(t_address,t_uint256)"},{"astId":65449,"contract":"pkg/contracts/src/CVStrategy/CVStrategyV0_0.sol:CVStrategyV0_0","label":"metadata","offset":0,"slot":"10","type":"t_struct(Metadata)3098_storage"},{"astId":65452,"contract":"pkg/contracts/src/CVStrategy/CVStrategyV0_0.sol:CVStrategyV0_0","label":"disputeInfo","offset":0,"slot":"12","type":"t_struct(ProposalDisputeInfo)65423_storage"},{"astId":65454,"contract":"pkg/contracts/src/CVStrategy/CVStrategyV0_0.sol:CVStrategyV0_0","label":"lastDisputeCompletion","offset":0,"slot":"15","type":"t_uint256"},{"astId":65456,"contract":"pkg/contracts/src/CVStrategy/CVStrategyV0_0.sol:CVStrategyV0_0","label":"arbitrableConfigVersion","offset":0,"slot":"16","type":"t_uint256"}]},"t_struct(ProposalDisputeInfo)65423_storage":{"encoding":"inplace","label":"struct ProposalDisputeInfo","numberOfBytes":"96","members":[{"astId":65418,"contract":"pkg/contracts/src/CVStrategy/CVStrategyV0_0.sol:CVStrategyV0_0","label":"disputeId","offset":0,"slot":"0","type":"t_uint256"},{"astId":65420,"contract":"pkg/contracts/src/CVStrategy/CVStrategyV0_0.sol:CVStrategyV0_0","label":"disputeTimestamp","offset":0,"slot":"1","type":"t_uint256"},{"astId":65422,"contract":"pkg/contracts/src/CVStrategy/CVStrategyV0_0.sol:CVStrategyV0_0","label":"challenger","offset":0,"slot":"2","type":"t_address"}]},"t_uint256":{"encoding":"inplace","label":"uint256","numberOfBytes":"32"},"t_uint64":{"encoding":"inplace","label":"uint64","numberOfBytes":"8"},"t_uint8":{"encoding":"inplace","label":"uint8","numberOfBytes":"1"}}},"id":97}