{"abi":[{"type":"fallback","stateMutability":"payable"},{"type":"receive","stateMutability":"payable"},{"type":"function","name":"D","inputs":[],"outputs":[{"name":"","type":"uint256","internalType":"uint256"}],"stateMutability":"view"},{"type":"function","name":"DISPUTE_COOLDOWN_SEC","inputs":[],"outputs":[{"name":"","type":"uint256","internalType":"uint256"}],"stateMutability":"view"},{"type":"function","name":"MAX_STAKED_PROPOSALS","inputs":[],"outputs":[{"name":"","type":"uint256","internalType":"uint256"}],"stateMutability":"view"},{"type":"function","name":"NATIVE","inputs":[],"outputs":[{"name":"","type":"address","internalType":"address"}],"stateMutability":"view"},{"type":"function","name":"RULING_OPTIONS","inputs":[],"outputs":[{"name":"","type":"uint256","internalType":"uint256"}],"stateMutability":"view"},{"type":"function","name":"VERSION","inputs":[],"outputs":[{"name":"","type":"string","internalType":"string"}],"stateMutability":"view"},{"type":"function","name":"activatePoints","inputs":[],"outputs":[],"stateMutability":"nonpayable"},{"type":"function","name":"addToAllowList","inputs":[{"name":"members","type":"address[]","internalType":"address[]"}],"outputs":[],"stateMutability":"nonpayable"},{"type":"function","name":"allocate","inputs":[{"name":"_data","type":"bytes","internalType":"bytes"},{"name":"_sender","type":"address","internalType":"address"}],"outputs":[],"stateMutability":"payable"},{"type":"function","name":"arbitrableConfigs","inputs":[{"name":"","type":"uint256","internalType":"uint256"}],"outputs":[{"name":"arbitrator","type":"address","internalType":"contract IArbitrator"},{"name":"tribunalSafe","type":"address","internalType":"address"},{"name":"submitterCollateralAmount","type":"uint256","internalType":"uint256"},{"name":"challengerCollateralAmount","type":"uint256","internalType":"uint256"},{"name":"defaultRuling","type":"uint256","internalType":"uint256"},{"name":"defaultRulingTimeout","type":"uint256","internalType":"uint256"}],"stateMutability":"view"},{"type":"function","name":"calculateConviction","inputs":[{"name":"_timePassed","type":"uint256","internalType":"uint256"},{"name":"_lastConv","type":"uint256","internalType":"uint256"},{"name":"_oldAmount","type":"uint256","internalType":"uint256"}],"outputs":[{"name":"","type":"uint256","internalType":"uint256"}],"stateMutability":"view"},{"type":"function","name":"calculateThreshold","inputs":[{"name":"_requestedAmount","type":"uint256","internalType":"uint256"}],"outputs":[{"name":"_threshold","type":"uint256","internalType":"uint256"}],"stateMutability":"view"},{"type":"function","name":"canExecuteProposal","inputs":[{"name":"proposalId","type":"uint256","internalType":"uint256"}],"outputs":[{"name":"canBeExecuted","type":"bool","internalType":"bool"}],"stateMutability":"view"},{"type":"function","name":"cancelProposal","inputs":[{"name":"proposalId","type":"uint256","internalType":"uint256"}],"outputs":[],"stateMutability":"nonpayable"},{"type":"function","name":"cloneNonce","inputs":[],"outputs":[{"name":"","type":"uint256","internalType":"uint256"}],"stateMutability":"view"},{"type":"function","name":"collateralVault","inputs":[],"outputs":[{"name":"","type":"address","internalType":"contract ICollateralVault"}],"stateMutability":"view"},{"type":"function","name":"currentArbitrableConfigVersion","inputs":[],"outputs":[{"name":"","type":"uint256","internalType":"uint256"}],"stateMutability":"view"},{"type":"function","name":"cvParams","inputs":[],"outputs":[{"name":"maxRatio","type":"uint256","internalType":"uint256"},{"name":"weight","type":"uint256","internalType":"uint256"},{"name":"decay","type":"uint256","internalType":"uint256"},{"name":"minThresholdPoints","type":"uint256","internalType":"uint256"}],"stateMutability":"view"},{"type":"function","name":"deactivatePoints","inputs":[],"outputs":[],"stateMutability":"nonpayable"},{"type":"function","name":"deactivatePoints","inputs":[{"name":"_member","type":"address","internalType":"address"}],"outputs":[],"stateMutability":"nonpayable"},{"type":"function","name":"decreasePower","inputs":[{"name":"_member","type":"address","internalType":"address"},{"name":"_amountToUnstake","type":"uint256","internalType":"uint256"}],"outputs":[{"name":"","type":"uint256","internalType":"uint256"}],"stateMutability":"nonpayable"},{"type":"function","name":"disputeCount","inputs":[],"outputs":[{"name":"","type":"uint64","internalType":"uint64"}],"stateMutability":"view"},{"type":"function","name":"disputeIdToProposalId","inputs":[{"name":"","type":"uint256","internalType":"uint256"}],"outputs":[{"name":"","type":"uint256","internalType":"uint256"}],"stateMutability":"view"},{"type":"function","name":"disputeProposal","inputs":[{"name":"proposalId","type":"uint256","internalType":"uint256"},{"name":"context","type":"string","internalType":"string"},{"name":"_extraData","type":"bytes","internalType":"bytes"}],"outputs":[{"name":"disputeId","type":"uint256","internalType":"uint256"}],"stateMutability":"payable"},{"type":"function","name":"distribute","inputs":[{"name":"_recipientIds","type":"address[]","internalType":"address[]"},{"name":"_data","type":"bytes","internalType":"bytes"},{"name":"_sender","type":"address","internalType":"address"}],"outputs":[],"stateMutability":"nonpayable"},{"type":"function","name":"getAllo","inputs":[],"outputs":[{"name":"","type":"address","internalType":"contract IAllo"}],"stateMutability":"view"},{"type":"function","name":"getArbitrableConfig","inputs":[],"outputs":[{"name":"arbitrator","type":"address","internalType":"contract IArbitrator"},{"name":"tribunalSafe","type":"address","internalType":"address"},{"name":"submitterCollateralAmount","type":"uint256","internalType":"uint256"},{"name":"challengerCollateralAmount","type":"uint256","internalType":"uint256"},{"name":"defaultRuling","type":"uint256","internalType":"uint256"},{"name":"defaultRulingTimeout","type":"uint256","internalType":"uint256"}],"stateMutability":"view"},{"type":"function","name":"getMaxAmount","inputs":[],"outputs":[{"name":"","type":"uint256","internalType":"uint256"}],"stateMutability":"view"},{"type":"function","name":"getMaxConviction","inputs":[{"name":"amount","type":"uint256","internalType":"uint256"}],"outputs":[{"name":"","type":"uint256","internalType":"uint256"}],"stateMutability":"view"},{"type":"function","name":"getMetadata","inputs":[{"name":"_proposalId","type":"uint256","internalType":"uint256"}],"outputs":[{"name":"","type":"tuple","internalType":"struct Metadata","components":[{"name":"protocol","type":"uint256","internalType":"uint256"},{"name":"pointer","type":"string","internalType":"string"}]}],"stateMutability":"view"},{"type":"function","name":"getPayouts","inputs":[{"name":"","type":"address[]","internalType":"address[]"},{"name":"","type":"bytes[]","internalType":"bytes[]"}],"outputs":[{"name":"","type":"tuple[]","internalType":"struct IStrategy.PayoutSummary[]","components":[{"name":"recipientAddress","type":"address","internalType":"address"},{"name":"amount","type":"uint256","internalType":"uint256"}]}],"stateMutability":"pure"},{"type":"function","name":"getPointSystem","inputs":[],"outputs":[{"name":"","type":"uint8","internalType":"enum PointSystem"}],"stateMutability":"view"},{"type":"function","name":"getPoolAmount","inputs":[],"outputs":[{"name":"","type":"uint256","internalType":"uint256"}],"stateMutability":"view"},{"type":"function","name":"getPoolId","inputs":[],"outputs":[{"name":"","type":"uint256","internalType":"uint256"}],"stateMutability":"view"},{"type":"function","name":"getProposal","inputs":[{"name":"_proposalId","type":"uint256","internalType":"uint256"}],"outputs":[{"name":"submitter","type":"address","internalType":"address"},{"name":"beneficiary","type":"address","internalType":"address"},{"name":"requestedToken","type":"address","internalType":"address"},{"name":"requestedAmount","type":"uint256","internalType":"uint256"},{"name":"stakedAmount","type":"uint256","internalType":"uint256"},{"name":"proposalStatus","type":"uint8","internalType":"enum ProposalStatus"},{"name":"blockLast","type":"uint256","internalType":"uint256"},{"name":"convictionLast","type":"uint256","internalType":"uint256"},{"name":"threshold","type":"uint256","internalType":"uint256"},{"name":"voterStakedPoints","type":"uint256","internalType":"uint256"},{"name":"arbitrableConfigVersion","type":"uint256","internalType":"uint256"}],"stateMutability":"view"},{"type":"function","name":"getProposalStakedAmount","inputs":[{"name":"_proposalId","type":"uint256","internalType":"uint256"}],"outputs":[{"name":"","type":"uint256","internalType":"uint256"}],"stateMutability":"view"},{"type":"function","name":"getProposalVoterStake","inputs":[{"name":"_proposalId","type":"uint256","internalType":"uint256"},{"name":"_voter","type":"address","internalType":"address"}],"outputs":[{"name":"","type":"uint256","internalType":"uint256"}],"stateMutability":"view"},{"type":"function","name":"getRecipientStatus","inputs":[{"name":"_recipientId","type":"address","internalType":"address"}],"outputs":[{"name":"","type":"uint8","internalType":"enum IStrategy.Status"}],"stateMutability":"view"},{"type":"function","name":"getStrategyId","inputs":[],"outputs":[{"name":"","type":"bytes32","internalType":"bytes32"}],"stateMutability":"view"},{"type":"function","name":"getTotalVoterStakePct","inputs":[{"name":"_voter","type":"address","internalType":"address"}],"outputs":[{"name":"","type":"uint256","internalType":"uint256"}],"stateMutability":"view"},{"type":"function","name":"increasePoolAmount","inputs":[{"name":"_amount","type":"uint256","internalType":"uint256"}],"outputs":[],"stateMutability":"nonpayable"},{"type":"function","name":"increasePower","inputs":[{"name":"_member","type":"address","internalType":"address"},{"name":"_amountToStake","type":"uint256","internalType":"uint256"}],"outputs":[{"name":"","type":"uint256","internalType":"uint256"}],"stateMutability":"nonpayable"},{"type":"function","name":"init","inputs":[{"name":"_allo","type":"address","internalType":"address"},{"name":"_collateralVaultTemplate","type":"address","internalType":"address"},{"name":"owner","type":"address","internalType":"address"}],"outputs":[],"stateMutability":"nonpayable"},{"type":"function","name":"init","inputs":[{"name":"_allo","type":"address","internalType":"address"},{"name":"_name","type":"string","internalType":"string"},{"name":"owner","type":"address","internalType":"address"}],"outputs":[],"stateMutability":"nonpayable"},{"type":"function","name":"initialize","inputs":[{"name":"initialOwner","type":"address","internalType":"address"}],"outputs":[],"stateMutability":"nonpayable"},{"type":"function","name":"initialize","inputs":[{"name":"_poolId","type":"uint256","internalType":"uint256"},{"name":"_data","type":"bytes","internalType":"bytes"}],"outputs":[],"stateMutability":"nonpayable"},{"type":"function","name":"isPoolActive","inputs":[],"outputs":[{"name":"","type":"bool","internalType":"bool"}],"stateMutability":"view"},{"type":"function","name":"isValidAllocator","inputs":[{"name":"_allocator","type":"address","internalType":"address"}],"outputs":[{"name":"","type":"bool","internalType":"bool"}],"stateMutability":"view"},{"type":"function","name":"owner","inputs":[],"outputs":[{"name":"","type":"address","internalType":"address"}],"stateMutability":"view"},{"type":"function","name":"pointConfig","inputs":[],"outputs":[{"name":"maxAmount","type":"uint256","internalType":"uint256"}],"stateMutability":"view"},{"type":"function","name":"pointSystem","inputs":[],"outputs":[{"name":"","type":"uint8","internalType":"enum PointSystem"}],"stateMutability":"view"},{"type":"function","name":"proposalCounter","inputs":[],"outputs":[{"name":"","type":"uint256","internalType":"uint256"}],"stateMutability":"view"},{"type":"function","name":"proposalType","inputs":[],"outputs":[{"name":"","type":"uint8","internalType":"enum ProposalType"}],"stateMutability":"view"},{"type":"function","name":"proposals","inputs":[{"name":"","type":"uint256","internalType":"uint256"}],"outputs":[{"name":"proposalId","type":"uint256","internalType":"uint256"},{"name":"requestedAmount","type":"uint256","internalType":"uint256"},{"name":"stakedAmount","type":"uint256","internalType":"uint256"},{"name":"convictionLast","type":"uint256","internalType":"uint256"},{"name":"beneficiary","type":"address","internalType":"address"},{"name":"submitter","type":"address","internalType":"address"},{"name":"requestedToken","type":"address","internalType":"address"},{"name":"blockLast","type":"uint256","internalType":"uint256"},{"name":"proposalStatus","type":"uint8","internalType":"enum ProposalStatus"},{"name":"metadata","type":"tuple","internalType":"struct Metadata","components":[{"name":"protocol","type":"uint256","internalType":"uint256"},{"name":"pointer","type":"string","internalType":"string"}]},{"name":"disputeInfo","type":"tuple","internalType":"struct ProposalDisputeInfo","components":[{"name":"disputeId","type":"uint256","internalType":"uint256"},{"name":"disputeTimestamp","type":"uint256","internalType":"uint256"},{"name":"challenger","type":"address","internalType":"address"}]},{"name":"lastDisputeCompletion","type":"uint256","internalType":"uint256"},{"name":"arbitrableConfigVersion","type":"uint256","internalType":"uint256"}],"stateMutability":"view"},{"type":"function","name":"proxiableUUID","inputs":[],"outputs":[{"name":"","type":"bytes32","internalType":"bytes32"}],"stateMutability":"view"},{"type":"function","name":"proxyOwner","inputs":[],"outputs":[{"name":"","type":"address","internalType":"address"}],"stateMutability":"view"},{"type":"function","name":"registerRecipient","inputs":[{"name":"_data","type":"bytes","internalType":"bytes"},{"name":"_sender","type":"address","internalType":"address"}],"outputs":[{"name":"recipientId","type":"address","internalType":"address"}],"stateMutability":"payable"},{"type":"function","name":"registryCommunity","inputs":[],"outputs":[{"name":"","type":"address","internalType":"contract RegistryCommunityV0_0"}],"stateMutability":"view"},{"type":"function","name":"removeFromAllowList","inputs":[{"name":"members","type":"address[]","internalType":"address[]"}],"outputs":[],"stateMutability":"nonpayable"},{"type":"function","name":"renounceOwnership","inputs":[],"outputs":[],"stateMutability":"nonpayable"},{"type":"function","name":"rule","inputs":[{"name":"_disputeID","type":"uint256","internalType":"uint256"},{"name":"_ruling","type":"uint256","internalType":"uint256"}],"outputs":[],"stateMutability":"nonpayable"},{"type":"function","name":"setCollateralVaultTemplate","inputs":[{"name":"template","type":"address","internalType":"address"}],"outputs":[],"stateMutability":"nonpayable"},{"type":"function","name":"setPoolActive","inputs":[{"name":"_active","type":"bool","internalType":"bool"}],"outputs":[],"stateMutability":"nonpayable"},{"type":"function","name":"setPoolParams","inputs":[{"name":"_arbitrableConfig","type":"tuple","internalType":"struct ArbitrableConfig","components":[{"name":"arbitrator","type":"address","internalType":"contract IArbitrator"},{"name":"tribunalSafe","type":"address","internalType":"address"},{"name":"submitterCollateralAmount","type":"uint256","internalType":"uint256"},{"name":"challengerCollateralAmount","type":"uint256","internalType":"uint256"},{"name":"defaultRuling","type":"uint256","internalType":"uint256"},{"name":"defaultRulingTimeout","type":"uint256","internalType":"uint256"}]},{"name":"_cvParams","type":"tuple","internalType":"struct CVParams","components":[{"name":"maxRatio","type":"uint256","internalType":"uint256"},{"name":"weight","type":"uint256","internalType":"uint256"},{"name":"decay","type":"uint256","internalType":"uint256"},{"name":"minThresholdPoints","type":"uint256","internalType":"uint256"}]}],"outputs":[],"stateMutability":"nonpayable"},{"type":"function","name":"setPoolParams","inputs":[{"name":"_arbitrableConfig","type":"tuple","internalType":"struct ArbitrableConfig","components":[{"name":"arbitrator","type":"address","internalType":"contract IArbitrator"},{"name":"tribunalSafe","type":"address","internalType":"address"},{"name":"submitterCollateralAmount","type":"uint256","internalType":"uint256"},{"name":"challengerCollateralAmount","type":"uint256","internalType":"uint256"},{"name":"defaultRuling","type":"uint256","internalType":"uint256"},{"name":"defaultRulingTimeout","type":"uint256","internalType":"uint256"}]},{"name":"_cvParams","type":"tuple","internalType":"struct CVParams","components":[{"name":"maxRatio","type":"uint256","internalType":"uint256"},{"name":"weight","type":"uint256","internalType":"uint256"},{"name":"decay","type":"uint256","internalType":"uint256"},{"name":"minThresholdPoints","type":"uint256","internalType":"uint256"}]},{"name":"membersToAdd","type":"address[]","internalType":"address[]"},{"name":"membersToRemove","type":"address[]","internalType":"address[]"}],"outputs":[],"stateMutability":"nonpayable"},{"type":"function","name":"setPoolParams","inputs":[{"name":"_arbitrableConfig","type":"tuple","internalType":"struct ArbitrableConfig","components":[{"name":"arbitrator","type":"address","internalType":"contract IArbitrator"},{"name":"tribunalSafe","type":"address","internalType":"address"},{"name":"submitterCollateralAmount","type":"uint256","internalType":"uint256"},{"name":"challengerCollateralAmount","type":"uint256","internalType":"uint256"},{"name":"defaultRuling","type":"uint256","internalType":"uint256"},{"name":"defaultRulingTimeout","type":"uint256","internalType":"uint256"}]},{"name":"_cvParams","type":"tuple","internalType":"struct CVParams","components":[{"name":"maxRatio","type":"uint256","internalType":"uint256"},{"name":"weight","type":"uint256","internalType":"uint256"},{"name":"decay","type":"uint256","internalType":"uint256"},{"name":"minThresholdPoints","type":"uint256","internalType":"uint256"}]},{"name":"sybilScoreThreshold","type":"uint256","internalType":"uint256"}],"outputs":[],"stateMutability":"nonpayable"},{"type":"function","name":"setSybilScorer","inputs":[{"name":"_sybilScorer","type":"address","internalType":"address"},{"name":"threshold","type":"uint256","internalType":"uint256"}],"outputs":[],"stateMutability":"nonpayable"},{"type":"function","name":"supportsInterface","inputs":[{"name":"interfaceId","type":"bytes4","internalType":"bytes4"}],"outputs":[{"name":"","type":"bool","internalType":"bool"}],"stateMutability":"view"},{"type":"function","name":"sybilScorer","inputs":[],"outputs":[{"name":"","type":"address","internalType":"contract ISybilScorer"}],"stateMutability":"view"},{"type":"function","name":"totalEffectiveActivePoints","inputs":[],"outputs":[{"name":"","type":"uint256","internalType":"uint256"}],"stateMutability":"view"},{"type":"function","name":"totalPointsActivated","inputs":[],"outputs":[{"name":"","type":"uint256","internalType":"uint256"}],"stateMutability":"view"},{"type":"function","name":"totalStaked","inputs":[],"outputs":[{"name":"","type":"uint256","internalType":"uint256"}],"stateMutability":"view"},{"type":"function","name":"totalVoterStakePct","inputs":[{"name":"","type":"address","internalType":"address"}],"outputs":[{"name":"","type":"uint256","internalType":"uint256"}],"stateMutability":"view"},{"type":"function","name":"transferOwnership","inputs":[{"name":"newOwner","type":"address","internalType":"address"}],"outputs":[],"stateMutability":"nonpayable"},{"type":"function","name":"updateProposalConviction","inputs":[{"name":"proposalId","type":"uint256","internalType":"uint256"}],"outputs":[{"name":"","type":"uint256","internalType":"uint256"}],"stateMutability":"nonpayable"},{"type":"function","name":"upgradeTo","inputs":[{"name":"newImplementation","type":"address","internalType":"address"}],"outputs":[],"stateMutability":"nonpayable"},{"type":"function","name":"upgradeToAndCall","inputs":[{"name":"newImplementation","type":"address","internalType":"address"},{"name":"data","type":"bytes","internalType":"bytes"}],"outputs":[],"stateMutability":"payable"},{"type":"function","name":"voterStakedProposals","inputs":[{"name":"","type":"address","internalType":"address"},{"name":"","type":"uint256","internalType":"uint256"}],"outputs":[{"name":"","type":"uint256","internalType":"uint256"}],"stateMutability":"view"},{"type":"event","name":"AdminChanged","inputs":[{"name":"previousAdmin","type":"address","indexed":false,"internalType":"address"},{"name":"newAdmin","type":"address","indexed":false,"internalType":"address"}],"anonymous":false},{"type":"event","name":"Allocated","inputs":[{"name":"recipientId","type":"address","indexed":true,"internalType":"address"},{"name":"amount","type":"uint256","indexed":false,"internalType":"uint256"},{"name":"token","type":"address","indexed":false,"internalType":"address"},{"name":"sender","type":"address","indexed":false,"internalType":"address"}],"anonymous":false},{"type":"event","name":"AllowlistMembersAdded","inputs":[{"name":"poolId","type":"uint256","indexed":false,"internalType":"uint256"},{"name":"members","type":"address[]","indexed":false,"internalType":"address[]"}],"anonymous":false},{"type":"event","name":"AllowlistMembersRemoved","inputs":[{"name":"poolId","type":"uint256","indexed":false,"internalType":"uint256"},{"name":"members","type":"address[]","indexed":false,"internalType":"address[]"}],"anonymous":false},{"type":"event","name":"ArbitrableConfigUpdated","inputs":[{"name":"currentArbitrableConfigVersion","type":"uint256","indexed":false,"internalType":"uint256"},{"name":"arbitrator","type":"address","indexed":false,"internalType":"contract IArbitrator"},{"name":"tribunalSafe","type":"address","indexed":false,"internalType":"address"},{"name":"submitterCollateralAmount","type":"uint256","indexed":false,"internalType":"uint256"},{"name":"challengerCollateralAmount","type":"uint256","indexed":false,"internalType":"uint256"},{"name":"defaultRuling","type":"uint256","indexed":false,"internalType":"uint256"},{"name":"defaultRulingTimeout","type":"uint256","indexed":false,"internalType":"uint256"}],"anonymous":false},{"type":"event","name":"BeaconUpgraded","inputs":[{"name":"beacon","type":"address","indexed":true,"internalType":"address"}],"anonymous":false},{"type":"event","name":"CVParamsUpdated","inputs":[{"name":"cvParams","type":"tuple","indexed":false,"internalType":"struct CVParams","components":[{"name":"maxRatio","type":"uint256","internalType":"uint256"},{"name":"weight","type":"uint256","internalType":"uint256"},{"name":"decay","type":"uint256","internalType":"uint256"},{"name":"minThresholdPoints","type":"uint256","internalType":"uint256"}]}],"anonymous":false},{"type":"event","name":"DisputeRequest","inputs":[{"name":"_arbitrator","type":"address","indexed":true,"internalType":"contract IArbitrator"},{"name":"_arbitrableDisputeID","type":"uint256","indexed":true,"internalType":"uint256"},{"name":"_externalDisputeID","type":"uint256","indexed":false,"internalType":"uint256"},{"name":"_templateId","type":"uint256","indexed":false,"internalType":"uint256"},{"name":"_templateUri","type":"string","indexed":false,"internalType":"string"}],"anonymous":false},{"type":"event","name":"Distributed","inputs":[{"name":"proposalId","type":"uint256","indexed":false,"internalType":"uint256"},{"name":"beneficiary","type":"address","indexed":false,"internalType":"address"},{"name":"amount","type":"uint256","indexed":false,"internalType":"uint256"}],"anonymous":false},{"type":"event","name":"Distributed","inputs":[{"name":"recipientId","type":"address","indexed":true,"internalType":"address"},{"name":"recipientAddress","type":"address","indexed":false,"internalType":"address"},{"name":"amount","type":"uint256","indexed":false,"internalType":"uint256"},{"name":"sender","type":"address","indexed":false,"internalType":"address"}],"anonymous":false},{"type":"event","name":"Initialized","inputs":[{"name":"poolId","type":"uint256","indexed":false,"internalType":"uint256"},{"name":"data","type":"bytes","indexed":false,"internalType":"bytes"}],"anonymous":false},{"type":"event","name":"Initialized","inputs":[{"name":"version","type":"uint8","indexed":false,"internalType":"uint8"}],"anonymous":false},{"type":"event","name":"InitializedCV","inputs":[{"name":"poolId","type":"uint256","indexed":false,"internalType":"uint256"},{"name":"data","type":"tuple","indexed":false,"internalType":"struct CVStrategyInitializeParamsV0_0","components":[{"name":"cvParams","type":"tuple","internalType":"struct CVParams","components":[{"name":"maxRatio","type":"uint256","internalType":"uint256"},{"name":"weight","type":"uint256","internalType":"uint256"},{"name":"decay","type":"uint256","internalType":"uint256"},{"name":"minThresholdPoints","type":"uint256","internalType":"uint256"}]},{"name":"proposalType","type":"uint8","internalType":"enum ProposalType"},{"name":"pointSystem","type":"uint8","internalType":"enum PointSystem"},{"name":"pointConfig","type":"tuple","internalType":"struct PointSystemConfig","components":[{"name":"maxAmount","type":"uint256","internalType":"uint256"}]},{"name":"arbitrableConfig","type":"tuple","internalType":"struct ArbitrableConfig","components":[{"name":"arbitrator","type":"address","internalType":"contract IArbitrator"},{"name":"tribunalSafe","type":"address","internalType":"address"},{"name":"submitterCollateralAmount","type":"uint256","internalType":"uint256"},{"name":"challengerCollateralAmount","type":"uint256","internalType":"uint256"},{"name":"defaultRuling","type":"uint256","internalType":"uint256"},{"name":"defaultRulingTimeout","type":"uint256","internalType":"uint256"}]},{"name":"registryCommunity","type":"address","internalType":"address"},{"name":"sybilScorer","type":"address","internalType":"address"}]}],"anonymous":false},{"type":"event","name":"InitializedCV2","inputs":[{"name":"poolId","type":"uint256","indexed":false,"internalType":"uint256"},{"name":"data","type":"tuple","indexed":false,"internalType":"struct CVStrategyInitializeParamsV0_1","components":[{"name":"cvParams","type":"tuple","internalType":"struct CVParams","components":[{"name":"maxRatio","type":"uint256","internalType":"uint256"},{"name":"weight","type":"uint256","internalType":"uint256"},{"name":"decay","type":"uint256","internalType":"uint256"},{"name":"minThresholdPoints","type":"uint256","internalType":"uint256"}]},{"name":"proposalType","type":"uint8","internalType":"enum ProposalType"},{"name":"pointSystem","type":"uint8","internalType":"enum PointSystem"},{"name":"pointConfig","type":"tuple","internalType":"struct PointSystemConfig","components":[{"name":"maxAmount","type":"uint256","internalType":"uint256"}]},{"name":"arbitrableConfig","type":"tuple","internalType":"struct ArbitrableConfig","components":[{"name":"arbitrator","type":"address","internalType":"contract IArbitrator"},{"name":"tribunalSafe","type":"address","internalType":"address"},{"name":"submitterCollateralAmount","type":"uint256","internalType":"uint256"},{"name":"challengerCollateralAmount","type":"uint256","internalType":"uint256"},{"name":"defaultRuling","type":"uint256","internalType":"uint256"},{"name":"defaultRulingTimeout","type":"uint256","internalType":"uint256"}]},{"name":"registryCommunity","type":"address","internalType":"address"},{"name":"sybilScorer","type":"address","internalType":"address"},{"name":"sybilScorerThreshold","type":"uint256","internalType":"uint256"},{"name":"initialAllowlist","type":"address[]","internalType":"address[]"}]}],"anonymous":false},{"type":"event","name":"OwnershipTransferred","inputs":[{"name":"previousOwner","type":"address","indexed":true,"internalType":"address"},{"name":"newOwner","type":"address","indexed":true,"internalType":"address"}],"anonymous":false},{"type":"event","name":"PointsDeactivated","inputs":[{"name":"member","type":"address","indexed":false,"internalType":"address"}],"anonymous":false},{"type":"event","name":"PoolActive","inputs":[{"name":"active","type":"bool","indexed":false,"internalType":"bool"}],"anonymous":false},{"type":"event","name":"PoolAmountIncreased","inputs":[{"name":"amount","type":"uint256","indexed":false,"internalType":"uint256"}],"anonymous":false},{"type":"event","name":"PowerDecreased","inputs":[{"name":"member","type":"address","indexed":false,"internalType":"address"},{"name":"tokensUnStaked","type":"uint256","indexed":false,"internalType":"uint256"},{"name":"pointsToDecrease","type":"uint256","indexed":false,"internalType":"uint256"}],"anonymous":false},{"type":"event","name":"PowerIncreased","inputs":[{"name":"member","type":"address","indexed":false,"internalType":"address"},{"name":"tokensStaked","type":"uint256","indexed":false,"internalType":"uint256"},{"name":"pointsToIncrease","type":"uint256","indexed":false,"internalType":"uint256"}],"anonymous":false},{"type":"event","name":"ProposalCancelled","inputs":[{"name":"proposalId","type":"uint256","indexed":false,"internalType":"uint256"}],"anonymous":false},{"type":"event","name":"ProposalCreated","inputs":[{"name":"poolId","type":"uint256","indexed":false,"internalType":"uint256"},{"name":"proposalId","type":"uint256","indexed":false,"internalType":"uint256"}],"anonymous":false},{"type":"event","name":"ProposalDisputed","inputs":[{"name":"arbitrator","type":"address","indexed":false,"internalType":"contract IArbitrator"},{"name":"proposalId","type":"uint256","indexed":false,"internalType":"uint256"},{"name":"disputeId","type":"uint256","indexed":false,"internalType":"uint256"},{"name":"challenger","type":"address","indexed":false,"internalType":"address"},{"name":"context","type":"string","indexed":false,"internalType":"string"},{"name":"timestamp","type":"uint256","indexed":false,"internalType":"uint256"}],"anonymous":false},{"type":"event","name":"Registered","inputs":[{"name":"recipientId","type":"address","indexed":true,"internalType":"address"},{"name":"data","type":"bytes","indexed":false,"internalType":"bytes"},{"name":"sender","type":"address","indexed":false,"internalType":"address"}],"anonymous":false},{"type":"event","name":"RegistryUpdated","inputs":[{"name":"registryCommunity","type":"address","indexed":false,"internalType":"address"}],"anonymous":false},{"type":"event","name":"Ruling","inputs":[{"name":"_arbitrator","type":"address","indexed":true,"internalType":"contract IArbitrator"},{"name":"_disputeID","type":"uint256","indexed":true,"internalType":"uint256"},{"name":"_ruling","type":"uint256","indexed":false,"internalType":"uint256"}],"anonymous":false},{"type":"event","name":"SupportAdded","inputs":[{"name":"from","type":"address","indexed":false,"internalType":"address"},{"name":"proposalId","type":"uint256","indexed":false,"internalType":"uint256"},{"name":"amount","type":"uint256","indexed":false,"internalType":"uint256"},{"name":"totalStakedAmount","type":"uint256","indexed":false,"internalType":"uint256"},{"name":"convictionLast","type":"uint256","indexed":false,"internalType":"uint256"}],"anonymous":false},{"type":"event","name":"SybilScorerUpdated","inputs":[{"name":"sybilScorer","type":"address","indexed":false,"internalType":"address"}],"anonymous":false},{"type":"event","name":"TribunaSafeRegistered","inputs":[{"name":"strategy","type":"address","indexed":false,"internalType":"address"},{"name":"arbitrator","type":"address","indexed":false,"internalType":"address"},{"name":"tribunalSafe","type":"address","indexed":false,"internalType":"address"}],"anonymous":false},{"type":"event","name":"Upgraded","inputs":[{"name":"implementation","type":"address","indexed":true,"internalType":"address"}],"anonymous":false},{"type":"error","name":"ALLOCATION_ACTIVE","inputs":[]},{"type":"error","name":"ALLOCATION_NOT_ACTIVE","inputs":[]},{"type":"error","name":"ALLOCATION_NOT_ENDED","inputs":[]},{"type":"error","name":"ALREADY_INITIALIZED","inputs":[]},{"type":"error","name":"AMOUNT_MISMATCH","inputs":[]},{"type":"error","name":"ANCHOR_ERROR","inputs":[]},{"type":"error","name":"ARRAY_MISMATCH","inputs":[]},{"type":"error","name":"AShouldBeUnderOrEqTwo_128","inputs":[]},{"type":"error","name":"AShouldBeUnderTwo_128","inputs":[]},{"type":"error","name":"AddressCannotBeZero","inputs":[]},{"type":"error","name":"AmountOverMaxRatio","inputs":[]},{"type":"error","name":"BShouldBeLessTwo_128","inputs":[]},{"type":"error","name":"CallerNotOwner","inputs":[{"name":"_caller","type":"address","internalType":"address"},{"name":"_owner","type":"address","internalType":"address"}]},{"type":"error","name":"ConvictionUnderMinimumThreshold","inputs":[]},{"type":"error","name":"DefaultRulingNotSet","inputs":[]},{"type":"error","name":"DisputeCooldownNotPassed","inputs":[{"name":"_proposalId","type":"uint256","internalType":"uint256"},{"name":"_remainingSec","type":"uint256","internalType":"uint256"}]},{"type":"error","name":"INVALID","inputs":[]},{"type":"error","name":"INVALID_ADDRESS","inputs":[]},{"type":"error","name":"INVALID_FEE","inputs":[]},{"type":"error","name":"INVALID_METADATA","inputs":[]},{"type":"error","name":"INVALID_REGISTRATION","inputs":[]},{"type":"error","name":"IS_APPROVED_STRATEGY","inputs":[]},{"type":"error","name":"InsufficientCollateral","inputs":[{"name":"sentAmount","type":"uint256","internalType":"uint256"},{"name":"requiredAmount","type":"uint256","internalType":"uint256"}]},{"type":"error","name":"MISMATCH","inputs":[]},{"type":"error","name":"NONCE_NOT_AVAILABLE","inputs":[]},{"type":"error","name":"NOT_APPROVED_STRATEGY","inputs":[]},{"type":"error","name":"NOT_ENOUGH_FUNDS","inputs":[]},{"type":"error","name":"NOT_IMPLEMENTED","inputs":[]},{"type":"error","name":"NOT_INITIALIZED","inputs":[]},{"type":"error","name":"NOT_PENDING_OWNER","inputs":[]},{"type":"error","name":"NotEnoughPointsToSupport","inputs":[{"name":"pointsSupport","type":"uint256","internalType":"uint256"},{"name":"pointsBalance","type":"uint256","internalType":"uint256"}]},{"type":"error","name":"NotImplemented","inputs":[]},{"type":"error","name":"OnlyArbitrator","inputs":[]},{"type":"error","name":"OnlyCommunityAllowed","inputs":[]},{"type":"error","name":"OnlyCouncilSafe","inputs":[]},{"type":"error","name":"OnlySubmitter","inputs":[{"name":"submitter","type":"address","internalType":"address"},{"name":"sender","type":"address","internalType":"address"}]},{"type":"error","name":"POOL_ACTIVE","inputs":[]},{"type":"error","name":"POOL_INACTIVE","inputs":[]},{"type":"error","name":"PoolAmountNotEnough","inputs":[{"name":"_proposalId","type":"uint256","internalType":"uint256"},{"name":"_requestedAmount","type":"uint256","internalType":"uint256"},{"name":"_poolAmount","type":"uint256","internalType":"uint256"}]},{"type":"error","name":"PoolIsEmpty","inputs":[]},{"type":"error","name":"ProposalInvalidForAllocation","inputs":[{"name":"_proposalId","type":"uint256","internalType":"uint256"},{"name":"_proposalStatus","type":"uint8","internalType":"enum ProposalStatus"}]},{"type":"error","name":"ProposalNotActive","inputs":[{"name":"_proposalId","type":"uint256","internalType":"uint256"}]},{"type":"error","name":"ProposalNotDisputed","inputs":[{"name":"_proposalId","type":"uint256","internalType":"uint256"}]},{"type":"error","name":"ProposalNotInList","inputs":[{"name":"_proposalId","type":"uint256","internalType":"uint256"}]},{"type":"error","name":"ProposalSupportDuplicated","inputs":[{"name":"_proposalId","type":"uint256","internalType":"uint256"},{"name":"index","type":"uint256","internalType":"uint256"}]},{"type":"error","name":"RECIPIENT_ALREADY_ACCEPTED","inputs":[]},{"type":"error","name":"RECIPIENT_ERROR","inputs":[{"name":"recipientId","type":"address","internalType":"address"}]},{"type":"error","name":"RECIPIENT_NOT_ACCEPTED","inputs":[]},{"type":"error","name":"REGISTRATION_NOT_ACTIVE","inputs":[]},{"type":"error","name":"SupportUnderflow","inputs":[{"name":"_support","type":"uint256","internalType":"uint256"},{"name":"_delta","type":"int256","internalType":"int256"},{"name":"_result","type":"int256","internalType":"int256"}]},{"type":"error","name":"TokenNotAllowed","inputs":[]},{"type":"error","name":"UNAUTHORIZED","inputs":[]},{"type":"error","name":"UserCannotExecuteAction","inputs":[]},{"type":"error","name":"UserIsInactive","inputs":[]},{"type":"error","name":"UserNotInRegistry","inputs":[]},{"type":"error","name":"ZERO_ADDRESS","inputs":[]}],"bytecode":{"object":"0x60a06040523060805234801561001457600080fd5b506080516171eb6200004d600039600081816118e40152818161192401528181611a2401528181611a640152611adc01526171eb6000f3fe60806040526004361061036e5760003560e01c8063013cf08b1461037757806301ffc9a7146103b9578063025313a2146103e9578063059351cd1461040b578063062f9ece146104985780630a6f0ee9146104b85780630ba95909146104d85780630bece79c146104f75780630c0512e9146105175780630f529ba21461052d578063125fd1d91461054457806315cc481e1461055a578063184b9559146105785780631aa91a9e146105985780631ddf1e23146105b85780632506b870146105cd578063255ffb38146106105780632bbe0cae1461063d5780632dbd6fdd146106505780632ed04b2b1461067c578063311a6c561461069c57806333960459146106bc578063346db8cb146106d2578063351d9f96146106f25780633659cfe6146107195780633864d3661461073957806338fff2d014610759578063406244d81461076e57806341bb76051461078357806342fda9c7146107e05780634ab4ba42146107f55780634d31d0871461080a5780634f1ef2861461082a57806352d1902d1461083d57806359a5db8b146108525780635db64b99146108725780636003e4141461089f57806360d5dedc146108bf578063626c47e8146108df5780636453d9c4146108f4578063715018a6146109145780637263cfe214610929578063782aadff14610949578063814516ad14610969578063817b1cd21461097e578063824ea8ed14610994578063868c57b8146109b45780638da5cb5b146109d4578063948e7a59146109e9578063950559d714610a09578063a0cf0aea14610a29578063a28889e114610a51578063a47ff7e514610a89578063a51312c814610aa0578063a574cea414610ac0578063aba9ffee14610aed578063ad56fd5d14610b03578063b0d3713a14610b23578063b2b878d014610b43578063b41596ec14610b70578063b5f620ce14610b83578063b6c61f3114610ba3578063bcc5b93b14610bc3578063c329217114610be3578063c4d66de814610c00578063c7f758a814610c20578063d1e3623214610c57578063dc96ff2d14610c6c578063df868ed314610c9c578063e0a8f6f514610cb1578063e0dd2c3814610cd1578063eb11af9314610cf1578063edd146cc14610d19578063ef2920fc14610d39578063f2fde38b14610d4c578063f5b0dfb714610d6c578063f5be3f7c14610d8c578063ffa1ad7414610da257005b3661037557005b005b34801561038357600080fd5b506103976103923660046158e8565b610dde565b6040516103b09d9c9b9a999897969594939291906159a3565b60405180910390f35b3480156103c557600080fd5b506103d96103d4366004615a45565b610f2c565b60405190151581526020016103b0565b3480156103f557600080fd5b506103fe610f63565b6040516103b09190615a6f565b34801561041757600080fd5b50610460606f546000908152607f60205260409020805460018201546002830154600384015460048501546005909501546001600160a01b039485169694909316949193909290565b604080516001600160a01b039788168152969095166020870152938501929092526060840152608083015260a082015260c0016103b0565b3480156104a457600080fd5b506103756104b3366004615c3f565b610f7c565b3480156104c457600080fd5b506103756104d3366004615d8c565b610f92565b3480156104e457600080fd5b506077545b6040519081526020016103b0565b34801561050357600080fd5b506079546103fe906001600160a01b031681565b34801561052357600080fd5b506104e9606e5481565b34801561053957600080fd5b506104e96298968081565b34801561055057600080fd5b506104e9606f5481565b34801561056657600080fd5b506065546001600160a01b03166103fe565b34801561058457600080fd5b50610375610593366004615e03565b610fb2565b3480156105a457600080fd5b506104e96105b33660046158e8565b611112565b3480156105c457600080fd5b5061037561115c565b3480156105d957600080fd5b506072546073546074546075546105f09392919084565b6040805194855260208501939093529183015260608201526080016103b0565b34801561061c57600080fd5b506104e961062b3660046158e8565b607e6020526000908152604090205481565b6103fe61064b366004615e43565b611167565b34801561065c57600080fd5b5060765461066f90610100900460ff1681565b6040516103b09190615ea8565b34801561068857600080fd5b506104e9610697366004615eb6565b61118a565b3480156106a857600080fd5b506103756106b7366004615ee2565b61124e565b3480156106c857600080fd5b506104e9606c5481565b3480156106de57600080fd5b506104e96106ed366004615f04565b61183f565b3480156106fe57600080fd5b5060765461070c9060ff1681565b6040516103b09190615f40565b34801561072557600080fd5b50610375610734366004615f4e565b6118da565b34801561074557600080fd5b50610375610754366004615eb6565b6119a2565b34801561076557600080fd5b506068546104e9565b34801561077a57600080fd5b506104e9600a81565b34801561078f57600080fd5b5061046061079e3660046158e8565b607f602052600090815260409020805460018201546002830154600384015460048501546005909501546001600160a01b039485169593909416939192909186565b3480156107ec57600080fd5b506066546104e9565b34801561080157600080fd5b506069546104e9565b34801561081657600080fd5b506103d9610825366004615f4e565b611a12565b610375610838366004615f6b565b611a1a565b34801561084957600080fd5b506104e9611acf565b34801561085e57600080fd5b506104e961086d3660046158e8565b611b7d565b34801561087e57600080fd5b506104e961088d366004615f4e565b607c6020526000908152604090205481565b3480156108ab57600080fd5b506078546103fe906001600160a01b031681565b3480156108cb57600080fd5b506103756108da366004615fba565b611cef565b3480156108eb57600080fd5b506104e9600381565b34801561090057600080fd5b5061037561090f366004615f4e565b611d6b565b34801561092057600080fd5b50610375611d7c565b34801561093557600080fd5b50610375610944366004616015565b611d8e565b34801561095557600080fd5b506104e9610964366004615eb6565b611d9f565b34801561097557600080fd5b50610375611f36565b34801561098a57600080fd5b506104e960705481565b3480156109a057600080fd5b506103d96109af3660046158e8565b61204b565b3480156109c057600080fd5b506104e96109cf366004615eb6565b6120a8565b3480156109e057600080fd5b506103fe6120d9565b3480156109f557600080fd5b50610375610a04366004616049565b61216e565b348015610a1557600080fd5b506104e9610a243660046158e8565b612182565b348015610a3557600080fd5b506103fe73eeeeeeeeeeeeeeeeeeeeeeeeeeeeeeeeeeeeeeee81565b348015610a5d57600080fd5b50606d54610a71906001600160401b031681565b6040516001600160401b0390911681526020016103b0565b348015610a9557600080fd5b506077546104e99081565b348015610aac57600080fd5b50610375610abb366004616015565b6121ac565b348015610acc57600080fd5b50610ae0610adb3660046158e8565b6121bd565b6040516103b091906160d2565b348015610af957600080fd5b506104e960715481565b348015610b0f57600080fd5b50610375610b1e3660046160e5565b61229c565b348015610b2f57600080fd5b50610375610b3e366004615f4e565b6122af565b348015610b4f57600080fd5b50610b63610b5e366004616125565b6122d9565b6040516103b091906161f9565b6104e9610b7e366004616292565b6122f4565b348015610b8f57600080fd5b50610375610b9e366004616319565b612631565b348015610baf57600080fd5b50607a546103fe906001600160a01b031681565b348015610bcf57600080fd5b506104e9610bde366004615f4e565b61263a565b348015610bef57600080fd5b50607654610100900460ff1661066f565b348015610c0c57600080fd5b50610375610c1b366004615f4e565b612655565b348015610c2c57600080fd5b50610c40610c3b3660046158e8565b612685565b6040516103b09b9a99989796959493929190616336565b348015610c6357600080fd5b506071546104e9565b348015610c7857600080fd5b506104e9610c873660046158e8565b6000908152607b602052604090206002015490565b348015610ca857600080fd5b506103d9612791565b348015610cbd57600080fd5b50610375610ccc3660046158e8565b61279f565b348015610cdd57600080fd5b506104e9610cec3660046163a5565b612924565b348015610cfd57600080fd5b50610d0c610825366004615f4e565b6040516103b091906163ca565b348015610d2557600080fd5b50610375610d343660046163dd565b61294f565b610375610d47366004615e43565b612b31565b348015610d5857600080fd5b50610375610d67366004615f4e565b612b55565b348015610d7857600080fd5b50610375610d873660046158e8565b612bc2565b348015610d9857600080fd5b506104e9611c2081565b348015610dae57600080fd5b50610dd1604051806040016040528060038152602001620302e360ec1b81525081565b6040516103b0919061640d565b607b602090815260009182526040918290208054600182015460028301546003840154600485015460058601546006870154600788015460088901548b51808d01909c52600a8a0180548d52600b8b0180549a9d999c989b979a6001600160a01b039788169a968816999790951697939660ff9093169593949192840191610e6590616420565b80601f0160208091040260200160405190810160405280929190818152602001828054610e9190616420565b8015610ede5780601f10610eb357610100808354040283529160200191610ede565b820191906000526020600020905b815481529060010190602001808311610ec157829003601f168201915b50505091909252505060408051606081018252600c8501548152600d8501546020820152600e8501546001600160a01b031691810191909152600f840154601090940154929390929091508d565b60006001600160e01b0319821663f1801e6160e01b1480610f5d57506301ffc9a760e01b6001600160e01b03198316145b92915050565b6000610f776033546001600160a01b031690565b905090565b610f84612beb565b610f8e8282612c93565b5050565b610f9a612ffc565b610fa2613027565b610fad83838361304a565b505050565b600054610100900460ff1615808015610fd25750600054600160ff909116105b80610ff35750610fe130613312565b158015610ff3575060005460ff166001145b61105b5760405162461bcd60e51b815260206004820152602e60248201527f496e697469616c697a61626c653a20636f6e747261637420697320616c72656160448201526d191e481a5b9a5d1a585b1a5e995960921b60648201526084015b60405180910390fd5b6000805460ff19166001179055801561107e576000805461ff0019166101001790555b6110ab846040518060400160405280600a8152602001694356537472617465677960b01b81525084611cef565b606a80546001600160a01b0319166001600160a01b038516179055801561110c576000805461ff0019169055604051600181527f7f26b83ff96e1f2b6a682f133852f6798a09c465da95921460cefb38474024989060200160405180910390a15b50505050565b6000818152607b60205260408120805483146111445760405163c1d17bef60e01b815260048101849052602401611052565b611152818260020154613321565b6003015492915050565b6111653361335c565b565b6000611171612ffc565b611179613027565b6111838383613481565b9392505050565b6000611194613804565b60006002607654610100900460ff1660038111156111b4576111b461590e565b14806111db57506001607654610100900460ff1660038111156111d9576111d961590e565b145b156111e75750816111f4565b6111f1848461382f565b90505b8060716000828254611206919061646a565b90915550506040517f70b752f3fadb6ac131c0ece847fcbb6994ec56ed6411595710fd9b29c6ac6cc19061123f9086908690859061647d565b60405180910390a19392505050565b6000828152607e6020908152604080832054808452607b835281842060108101548552607f8452828520835160c08101855281546001600160a01b03908116825260018301541695810195909552600281015493850193909352600383015460608501526004830154608085015260059092015460a0840152929091908390036112ee5760405163c1d17bef60e01b815260048101849052602401611052565b6005600883015460ff1660068111156113095761130961590e565b1461132a57604051634b011ca960e11b815260048101849052602401611052565b60a0810151600d8301546000916113409161649e565b4211905080158161135b575081516001600160a01b03163314155b1561137957604051631777988560e11b815260040160405180910390fd5b8080611383575084155b156114cc5781608001516000036113ad57604051630dd466dd60e41b815260040160405180910390fd5b81608001516001036113c95760088301805460ff191660011790555b81608001516002036114565760088301805460ff191660061790556079546005840154604084810151905163099ea56b60e41b81526001600160a01b03938416936399ea56b093611423938a9392909116916004016164b1565b600060405180830381600087803b15801561143d57600080fd5b505af1158015611451573d6000803e3d6000fd5b505050505b607954600e840154606084015160405163099ea56b60e41b81526001600160a01b03938416936399ea56b093611495938a9392909116916004016164b1565b600060405180830381600087803b1580156114af57600080fd5b505af11580156114c3573d6000803e3d6000fd5b505050506117a8565b8460010361158c5760088301805460ff19166001179055607954600e84015460785460408051633629edcd60e11b815290516001600160a01b0394851694638969ab53948a9490821693911691636c53db9a916004808201926020929091908290030181865afa158015611544573d6000803e3d6000fd5b505050506040513d601f19601f8201168201806040525081019061156891906164d0565b86606001516040518563ffffffff1660e01b815260040161149594939291906164ed565b846002036117a85760088301805460ff19166006179055607954600e840154606084015160405163099ea56b60e41b81526001600160a01b03938416936399ea56b0936115e2938a9392909116916004016164b1565b600060405180830381600087803b1580156115fc57600080fd5b505af1158015611610573d6000803e3d6000fd5b5050607954600586015460785460408051633629edcd60e11b815290516001600160a01b039485169650638969ab5395508a949384169390921691636c53db9a916004808201926020929091908290030181865afa158015611676573d6000803e3d6000fd5b505050506040513d601f19601f8201168201806040525081019061169a91906164d0565b606f546000908152607f602052604090206002908101546116bb9190616528565b6040518563ffffffff1660e01b81526004016116da94939291906164ed565b600060405180830381600087803b1580156116f457600080fd5b505af1158015611708573d6000803e3d6000fd5b50506079546005860154600e870154606f546000908152607f602052604090206002908101546001600160a01b039485169650638969ab5395508a9493841693909216916117569190616528565b6040518563ffffffff1660e01b815260040161177594939291906164ed565b600060405180830381600087803b15801561178f57600080fd5b505af11580156117a3573d6000803e3d6000fd5b505050505b606d80546001600160401b03169060006117c18361654a565b91906101000a8154816001600160401b0302191690836001600160401b03160217905550504283600f01819055508582600001516001600160a01b03167f394027a5fa6e098a1191094d1719d6929b9abc535fcc0c8f448d6a4e756222768760405161182f91815260200190565b60405180910390a3505050505050565b607454600090849082906118649061185e90629896809060801b616528565b83613a36565b905060806001607f1b60726002015462989680611881919061646a565b61188f84600160801b61646a565b61189c629896808961656d565b6118a6919061656d565b6118b09190616528565b6118ba888561656d565b6118c4919061649e565b6118ce919061649e565b901c9695505050505050565b6001600160a01b037f00000000000000000000000000000000000000000000000000000000000000001630036119225760405162461bcd60e51b815260040161105290616584565b7f00000000000000000000000000000000000000000000000000000000000000006001600160a01b0316611954613ab0565b6001600160a01b03161461197a5760405162461bcd60e51b8152600401611052906165be565b61198381613acc565b6040805160008082526020820190925261199f91839190613b07565b50565b6119aa612beb565b6119b382613c72565b607a80546001600160a01b0319166001600160a01b0384161790556119d781613c99565b7f2667a0cd99dbc787d1d2596efe938cf43dfe83e8b8ddeb70e28007c09ff3348582604051611a069190615a6f565b60405180910390a15050565b600080610f5d565b6001600160a01b037f0000000000000000000000000000000000000000000000000000000000000000163003611a625760405162461bcd60e51b815260040161105290616584565b7f00000000000000000000000000000000000000000000000000000000000000006001600160a01b0316611a94613ab0565b6001600160a01b031614611aba5760405162461bcd60e51b8152600401611052906165be565b611ac382613acc565b610f8e82826001613b07565b6000306001600160a01b037f00000000000000000000000000000000000000000000000000000000000000001614611b6a5760405162461bcd60e51b815260206004820152603860248201527f555550535570677261646561626c653a206d757374206e6f742062652063616c6044820152771b1959081d1a1c9bdd59da0819195b1959d85d1958d85b1b60421b6064820152608401611052565b5060008051602061714f83398151915290565b60008060695411611ba15760405163ed4421ad60e01b815260040160405180910390fd5b611baa82613d7d565b15611bc857604051630efd728560e21b815260040160405180910390fd5b606954600090611bdc84600160401b61656d565b611be69190616528565b6072546298968090611bfc90600160401b61656d565b611c069190616528565b611c10919061646a565b90506040611c1d60715490565b607454611c2d906298968061646a565b629896806040611c3d868061656d565b607354911c90611c5490629896809060801b616528565b611c5e9190616528565b611c68919061656d565b611c729190616528565b611c7c919061656d565b607154911c925015611ce957600064174876e800611c9c610a2460715490565b62989680611ca960715490565b607554611cb69190616528565b611cc0919061656d565b611cca919061656d565b611cd49190616528565b9050808311611ce35780611ce5565b825b9250505b50919050565b600054610100900460ff16611d165760405162461bcd60e51b8152600401611052906165f8565b611d1f81612655565b606580546001600160a01b0319166001600160a01b038516179055604051611d4b90839060200161640d565b60408051601f198184030181529190528051602090910120606655505050565b611d73613804565b61199f8161335c565b611d84613da4565b6111656000613e03565b611d96612beb565b61199f81613e55565b6000611da9613804565b611db2836140ee565b611dcf57604051630b72d6b160e31b815260040160405180910390fd5b60006002607654610100900460ff166003811115611def57611def61590e565b03611dfb575081611e5f565b6001607654610100900460ff166003811115611e1957611e1961590e565b03611e2f57611e288484614295565b9050611e5f565b6003607654610100900460ff166003811115611e4d57611e4d61590e565b03611e5f57611e5c848461433c565b90505b60785460405163011de97360e61b81526000916001600160a01b03169063477a5cc090611e929088903090600401616643565b602060405180830381865afa158015611eaf573d6000803e3d6000fd5b505050506040513d601f19601f82011682018060405250810190611ed3919061665d565b90508015611ef3578160716000828254611eed919061649e565b90915550505b7f0b9150e1e54346ed3fa36b977cd5d65dca5a649c737c3174a26bddaadd47667a858584604051611f269392919061647d565b60405180910390a1509392505050565b611f3f336140ee565b611f5c57604051630b72d6b160e31b815260040160405180910390fd5b607854604051630d4a8b4960e01b81526001600160a01b0390911690630d4a8b4990611f8e9033903090600401616643565b600060405180830381600087803b158015611fa857600080fd5b505af1158015611fbc573d6000803e3d6000fd5b5050607854604051637817ee4f60e01b81526001600160a01b039091169250637817ee4f9150611ff29033903090600401616643565b602060405180830381865afa15801561200f573d6000803e3d6000fd5b505050506040513d601f19601f82011682018060405250810190612033919061667a565b60716000828254612044919061649e565b9091555050565b6000818152607b6020526040812060028101548290819061206d908490614541565b9150915081600014801561207f575080155b1561208c57826003015491505b600061209b8460010154611b7d565b9092101595945050505050565b607d60205281600052604060002081815481106120c457600080fd5b90600052602060002001600091509150505481565b60006120e3610f63565b6001600160a01b03163b6000036120fc57610f77610f63565b612104610f63565b6001600160a01b0316638da5cb5b6040518163ffffffff1660e01b8152600401602060405180830381865afa92505050801561215d575060408051601f3d908101601f1916820190925261215a918101906164d0565b60015b61216957610f77610f63565b919050565b612176612beb565b61110c84848484614599565b607454600090612195906298968061646a565b6121a2629896808461656d565b610f5d9190616528565b6121b4612beb565b61199f816145bf565b6040805180820190915260008152606060208201526000607b6000848152602001908152602001600020905080600a016040518060400160405290816000820154815260200160018201805461221290616420565b80601f016020809104026020016040519081016040528092919081815260200182805461223e90616420565b801561228b5780601f106122605761010080835404028352916020019161228b565b820191906000526020600020905b81548152906001019060200180831161226e57829003601f168201915b505050505081525050915050919050565b6122a4612beb565b610fad838383614772565b6122b7613da4565b606a80546001600160a01b0319166001600160a01b0392909216919091179055565b606060405163d623472560e01b815260040160405180910390fd5b60006122ff336147f6565b6000868152607b6020908152604080832060108101548452607f835292819020815160c08101835281546001600160a01b0390811682526001830154169381019390935260028101549183019190915260038101546060830152600481015460808301526005015460a0820152815488146123905760405163c1d17bef60e01b815260048101899052602401611052565b6001600883015460ff1660068111156123ab576123ab61590e565b146123cc576040516344980d8f60e01b815260048101899052602401611052565b80606001513410156123f8576060810151604051632c1f8ef160e21b815261105291349160040161669e565b600f8201541580159061241b575042611c2083600f0154612419919061649e565b115b15612459578742611c2084600f0154612434919061649e565b61243e919061646a565b604051638d2f6c3160e01b815260040161105292919061669e565b600081606001513461246b919061646a565b607954606084015160405163240ff7c560e11b81529293506001600160a01b039091169163481fef8a91906124a6908d9033906004016166ac565b6000604051808303818588803b1580156124bf57600080fd5b505af11580156124d3573d6000803e3d6000fd5b5050845160405163c13517e160e01b81526001600160a01b03909116935063c13517e1925084915061250e906003908b908b906004016166ec565b60206040518083038185885af115801561252c573d6000803e3d6000fd5b50505050506040513d601f19601f82011682018060405250810190612551919061667a565b60088401805491955060059160ff19166001830217905550600c830184905542600d840155600e830180546001600160a01b031916331790556000848152607e602052604081208a9055606d80546001600160401b0316916125b28361670f565b91906101000a8154816001600160401b0302191690836001600160401b03160217905550507f034f6a48076db1bcaaa311ccdc43d473aff44d3918a76fe0fae27c8b3665016d82600001518a86338c8c89600c016001015460405161261d979695949392919061673d565b60405180910390a150505095945050505050565b61199f81614884565b6001600160a01b03166000908152607c602052604090205490565b600054610100900460ff1661267c5760405162461bcd60e51b8152600401611052906165f8565b61199f81613e03565b600080600080600080600080600080600080607b60008e8152602001908152602001600020905080600101546000146126ca576126c58160010154611b7d565b6126cd565b60005b93508060050160009054906101000a90046001600160a01b03168160040160009054906101000a90046001600160a01b03168260060160009054906101000a90046001600160a01b0316836001015484600201548560080160009054906101000a900460ff16866007015487600301548b896009016000336001600160a01b03166001600160a01b03168152602001908152602001600020548a601001549b509b509b509b509b509b509b509b509b509b509b505091939597999b90929496989a50565b6000610f7760675460ff1690565b60016000828152607b602052604090206008015460ff1660068111156127c7576127c761590e565b146127e8576040516344980d8f60e01b815260048101829052602401611052565b6000818152607b60205260409020600501546001600160a01b03163314612841576000818152607b602052604090819020600501549051634544dc9160e11b8152611052916001600160a01b0316903390600401616643565b6079546000828152607b6020908152604080832060058101546010909101548452607f9092529182902060020154915163099ea56b60e41b81526001600160a01b03938416936399ea56b09361289e9387939216916004016164b1565b600060405180830381600087803b1580156128b857600080fd5b505af11580156128cc573d6000803e3d6000fd5b5050506000828152607b6020908152604091829020600801805460ff1916600317905590518381527f416e669c63d9a3a5e36ee7cc7e2104b8db28ccd286aa18966e98fa230c73b08c9250015b60405180910390a150565b6000828152607b602090815260408083206001600160a01b0385168452600901909152812054611183565b612957612ffc565b612960826148c5565b606a54606c8054612989926001600160a01b03169160006129808361678c565b91905055614914565b607980546001600160a01b0319166001600160a01b039290921691821790556040805163204a7f0760e21b81529051638129fc1c9160048082019260009290919082900301818387803b1580156129df57600080fd5b505af11580156129f3573d6000803e3d6000fd5b50505050600081806020019051810190612a0d9190616918565b60a0810151607880546001600160a01b0319166001600160a01b03909216919091179055602081015160768054929350909160ff19166001836002811115612a5757612a5761590e565b021790555060408101516076805461ff001916610100836003811115612a7f57612a7f61590e565b021790555060608101515160775560c0810151607a80546001600160a01b0319166001600160a01b039092169190911790556040517fb6a062fc5f19aa17637bf61ab001ce3e5ceb67a5bd51d9753281e41df94f3fd390612ae39085908490616a78565b60405180910390a16080810151815160408051600080825260208201908152818301909252612b13939291614599565b607a546001600160a01b031615610fad57610fad8160e00151613c99565b612b39612ffc565b612b41613027565b612b4b8282614963565b610f8e82826149dd565b612b5d613da4565b6001600160a01b03811661267c5760405162461bcd60e51b815260206004820152602660248201527f4f776e61626c653a206e6577206f776e657220697320746865207a65726f206160448201526564647265737360d01b6064820152608401611052565b612bca612ffc565b8060696000828254612bdc919061649e565b9091555061199f905081614b0e565b607860009054906101000a90046001600160a01b03166001600160a01b0316636c53db9a6040518163ffffffff1660e01b8152600401602060405180830381865afa158015612c3e573d6000803e3d6000fd5b505050506040513d601f19601f82011682018060405250810190612c6291906164d0565b6001600160a01b0316336001600160a01b03161461116557604051637430763f60e11b815260040160405180910390fd5b60208201516001600160a01b031615801590612cb8575081516001600160a01b031615155b8015612da15750606f546000908152607f6020908152604090912060010154908301516001600160a01b039081169116141580612d145750606f546000908152607f602052604090205482516001600160a01b03908116911614155b80612d385750606f546000908152607f602052604090819020600201549083015114155b80612d5b5750606f546000908152607f6020526040902060030154606083015114155b80612d7e5750606f546000908152607f6020526040902060040154608083015114155b80612da15750606f546000908152607f602052604090206005015460a083015114155b15612fb057602080830151606f546000908152607f9092526040909120600101546001600160a01b039081169116141580612dfb57508151606f546000908152607f60205260409020546001600160a01b03908116911614155b15612ec4578151602083015160405163446adb9960e11b81526001600160a01b03909216916388d5b73291612e3291600401615a6f565b600060405180830381600087803b158015612e4c57600080fd5b505af1158015612e60573d6000803e3d6000fd5b5050835160208501516040517fdc20f5c479493aac0cf803ca3b82ebc1964faa557450a37ea0a8121b0e98454f9450612ebb9350309291906001600160a01b0393841681529183166020830152909116604082015260600190565b60405180910390a15b606f8054906000612ed48361678c565b9091555050606f80546000908152607f6020908152604091829020855181546001600160a01b03199081166001600160a01b03928316908117845588850151600185018054909316931692831790915587850151600284018190556060808a0151600386018190556080808c01516004880181905560a0808e015160059099018990559a548a519081529889019590955297870194909452850152938301529281019190915260c08101919091527fe677e2878aaaaf6a65ecf50f849ad58100c49f6dfd57d055ba4bddd63a175d539060e00160405180910390a15b805160725560208101516073556040808201516074556060820151607555517fec9315d9f4291207475c061feff1e5d7105750ac0ee9534af9444b4ff1dab9bc90611a06908390616b71565b6065546001600160a01b031633146111655760405163075fd2b160e01b815260040160405180910390fd5b60685460000361116557604051630f68fe6360e21b815260040160405180910390fd5b600082806020019051810190613060919061667a565b6000818152607b60205260409020909150600160765460ff16600281111561308a5761308a61590e565b0361330b57805482146130b35760405163c1d17bef60e01b815260048101839052602401611052565b606954816001015411156130e657818160010154606954604051632c31d85b60e11b815260040161105293929190616b7f565b6001600882015460ff1660068111156131015761310161590e565b14613122576040516344980d8f60e01b815260048101839052602401611052565b600061312d83611112565b9050600061313e8360010154611b7d565b90508082108015613153575060008360010154115b156131715760405163199cf26160e31b815260040160405180910390fd5b60655460685460405163068bcd8d60e01b815260048101919091526000916001600160a01b03169063068bcd8d90602401600060405180830381865afa1580156131bf573d6000803e3d6000fd5b505050506040513d6000823e601f3d908101601f191682016040526131e79190810190616c22565b90508360010154606960008282546131ff919061646a565b909155505060408101516004850154600186015461322792916001600160a01b031690614b3e565b60088401805460ff191660049081179091556079546005860154606f546000908152607f60205260409081902060020154905163099ea56b60e41b81526001600160a01b03938416946399ea56b094613287948c949116929091016164b1565b600060405180830381600087803b1580156132a157600080fd5b505af11580156132b5573d6000803e3d6000fd5b505050600485015460018601546040517fa7932e9c92f31e1ed56b29d00bbe669a97484dc24de28dd9c8c0429df7f3584793506132ff9289926001600160a01b03909116916164b1565b60405180910390a15050505b5050505050565b6001600160a01b03163b151590565b60008061332e8484614541565b91509150816000148015613340575080155b1561334b5750505050565b600784015560039092019190915550565b607854604051637817ee4f60e01b81526001600160a01b0390911690637817ee4f9061338e9084903090600401616643565b602060405180830381865afa1580156133ab573d6000803e3d6000fd5b505050506040513d601f19601f820116820180604052508101906133cf919061667a565b607160008282546133e0919061646a565b90915550506078546040516322bcf99960e01b81526001600160a01b03909116906322bcf999906134179084903090600401616643565b600060405180830381600087803b15801561343157600080fd5b505af1158015613445573d6000803e3d6000fd5b5050505061345281614b78565b7f1468da654b37bb3631011c1917d02e0db437d519918858d40b38b5e980ca033b816040516129199190615a6f565b600061348c826147f6565b6000838060200190518101906134a29190616cd5565b9050600160765460ff1660028111156134bd576134bd61590e565b03613613576134cf8160200151613c72565b6000306001600160a01b03166315cc481e6040518163ffffffff1660e01b8152600401602060405180830381865afa15801561350f573d6000803e3d6000fd5b505050506040513d601f19601f8201168201806040525081019061353391906164d0565b825160405163068bcd8d60e01b815260048101919091529091506000906001600160a01b0383169063068bcd8d90602401600060405180830381865afa158015613581573d6000803e3d6000fd5b505050506040513d6000823e601f3d908101601f191682016040526135a99190810190616c22565b905080604001516001600160a01b031683606001516001600160a01b0316146135e55760405163514e24c360e11b815260040160405180910390fd5b6135f28360400151613d7d565b1561361057604051630efd728560e21b815260040160405180910390fd5b50505b606f546000908152607f60205260409020546001600160a01b03161580159061364f5750606f546000908152607f602052604090206002015434105b1561368557606f546000908152607f602052604090819020600201549051632c1f8ef160e21b815261105291349160040161669e565b6000606e600081546136969061678c565b91829055506000818152607b602090815260408083208481556005810180546001600160a01b038b81166001600160a01b0319928316179092558885015160048401805491841691831691909117905560608901516006840180549190931691161790559086015160018083019190915560088201805460ff19169091179055436007820155600381019290925560808501518051600a8401908155918101519394509192600b84019061374a9082616dc9565b5050606f54601083015550607954600582015460405163240ff7c560e11b81526001600160a01b039283169263481fef8a92349261378e92889216906004016166ac565b6000604051808303818588803b1580156137a757600080fd5b505af11580156137bb573d6000803e3d6000fd5b50505050507ffcf3b1aa65a464cef2889608f99e8b8c0f680a4be6c2acb9d961c536a5a9294b606854836040516137f392919061669e565b60405180910390a150949350505050565b6078546001600160a01b03163314611165576040516357848b5160e11b815260040160405180910390fd5b607854604080516336d8759760e21b815290516000926012926001600160a01b039091169163db61d65c916004808201926020929091908290030181865afa15801561387f573d6000803e3d6000fd5b505050506040513d601f19601f820116820180604052508101906138a391906164d0565b6001600160a01b031663313ce5676040518163ffffffff1660e01b8152600401602060405180830381865afa9250505080156138fc575060408051601f3d908101601f191682019092526138f991810190616e88565b60015b156139075760ff1690505b6078546040516316308e2560e11b815260009185916001600160a01b0390911690632c611c4a9061393c908990600401615a6f565b602060405180830381865afa158015613959573d6000803e3d6000fd5b505050506040513d601f19601f8201168201806040525081019061397d919061667a565b613987919061646a565b905060006139a861399984600a616f8f565b6139a3908461656d565b614cb7565b607854604051637817ee4f60e01b815291925060009183916001600160a01b031690637817ee4f906139e0908b903090600401616643565b602060405180830381865afa1580156139fd573d6000803e3d6000fd5b505050506040513d601f19601f82011682018060405250810190613a21919061667a565b613a2b919061646a565b979650505050505050565b6000600160801b8310613a5c57604051633e668d0360e01b815260040160405180910390fd5b50600160801b82825b8015613aa85780600116600003613a8a57613a808283614d9f565b915060011c613a65565b613a948383614d9f565b9250613aa160018261646a565b9050613a65565b505092915050565b60008051602061714f833981519152546001600160a01b031690565b33613ad56120d9565b6001600160a01b03161461199f5733613aec6120d9565b60405163163678e960e01b8152600401611052929190616643565b7f4910fdfa16fed3260ed0e7147f7cc6da11a60208b5b9406d12a635614ffd91435460ff1615613b3a57610fad83614e12565b826001600160a01b03166352d1902d6040518163ffffffff1660e01b8152600401602060405180830381865afa925050508015613b94575060408051601f3d908101601f19168201909252613b919181019061667a565b60015b613bf75760405162461bcd60e51b815260206004820152602e60248201527f45524331393637557067726164653a206e657720696d706c656d656e7461746960448201526d6f6e206973206e6f74205555505360901b6064820152608401611052565b60008051602061714f8339815191528114613c665760405162461bcd60e51b815260206004820152602960248201527f45524331393637557067726164653a20756e737570706f727465642070726f786044820152681a58589b195555525160ba1b6064820152608401611052565b50610fad838383614eac565b6001600160a01b03811661199f576040516303988b8160e61b815260040160405180910390fd5b607a5460785460408051633629edcd60e11b815290516001600160a01b039384169363fc2ebdd193309387939190921691636c53db9a9160048083019260209291908290030181865afa158015613cf4573d6000803e3d6000fd5b505050506040513d601f19601f82011682018060405250810190613d1891906164d0565b60405160e085901b6001600160e01b03191681526001600160a01b03938416600482015260248101929092529091166044820152606401600060405180830381600087803b158015613d6957600080fd5b505af115801561330b573d6000803e3d6000fd5b6000613d8c629896808361656d565b606954607254613d9c919061656d565b111592915050565b33613dad6120d9565b6001600160a01b0316146111655760405162461bcd60e51b815260206004820181905260248201527f4f776e61626c653a2063616c6c6572206973206e6f7420746865206f776e65726044820152606401611052565b603380546001600160a01b038381166001600160a01b0319831681179093556040519116919082907f8be0079c531659141344cd1fd0a4f28419497f9722a3daafe3b4186f6b6457e090600090a35050565b6000606854604051602001613e6a9190616f9b565b60408051601f19818403018152908290528051602090910120607854632474521560e21b83529092506001600160a01b0316906391d1485490613eb49084906000906004016166ac565b602060405180830381865afa158015613ed1573d6000803e3d6000fd5b505050506040513d601f19601f82011682018060405250810190613ef5919061665d565b15613f605760785460405163d547741f60e01b81526001600160a01b039091169063d547741f90613f2d9084906000906004016166ac565b600060405180830381600087803b158015613f4757600080fd5b505af1158015613f5b573d6000803e3d6000fd5b505050505b60005b82518110156140ba5760785483516001600160a01b03909116906391d14854908490869085908110613f9757613f97616fb8565b60200260200101516040518363ffffffff1660e01b8152600401613fbc9291906166ac565b602060405180830381865afa158015613fd9573d6000803e3d6000fd5b505050506040513d601f19601f82011682018060405250810190613ffd919061665d565b6140a8576078546068546040516001600160a01b0390921691632f2ff15d9161402891602001616f9b565b6040516020818303038152906040528051906020012085848151811061405057614050616fb8565b60200260200101516040518363ffffffff1660e01b81526004016140759291906166ac565b600060405180830381600087803b15801561408f57600080fd5b505af11580156140a3573d6000803e3d6000fd5b505050505b806140b28161678c565b915050613f63565b507f7a2e396a5614184c0af2c60827c206595126faa1238b94e19823192de52e728a60685483604051611a06929190616fce565b607a546000906001600160a01b03166142225760006068546040516020016141169190616f9b565b60408051601f19818403018152908290528051602090910120607854632474521560e21b83529092506001600160a01b0316906391d14854906141609084906000906004016166ac565b602060405180830381865afa15801561417d573d6000803e3d6000fd5b505050506040513d601f19601f820116820180604052508101906141a1919061665d565b156141af5750600192915050565b607854604051632474521560e21b81526001600160a01b03909116906391d14854906141e190849087906004016166ac565b602060405180830381865afa1580156141fe573d6000803e3d6000fd5b505050506040513d601f19601f82011682018060405250810190611183919061665d565b607a546040516302154c3d60e51b81526001600160a01b03909116906342a987a0906142549085903090600401616643565b602060405180830381865afa158015614271573d6000803e3d6000fd5b505050506040513d601f19601f82011682018060405250810190610f5d919061665d565b607854604051637817ee4f60e01b815260009182916001600160a01b0390911690637817ee4f906142cc9087903090600401616643565b602060405180830381865afa1580156142e9573d6000803e3d6000fd5b505050506040513d601f19601f8201168201806040525081019061430d919061667a565b60775490915061431d848361649e565b11156143345760775461433190829061646a565b92505b509092915050565b6078546040516316308e2560e11b8152600091829184916001600160a01b031690632c611c4a90614371908890600401615a6f565b602060405180830381865afa15801561438e573d6000803e3d6000fd5b505050506040513d601f19601f820116820180604052508101906143b2919061667a565b6143bc919061649e565b607854604080516336d8759760e21b815290519293506012926001600160a01b039092169163db61d65c916004808201926020929091908290030181865afa15801561440c573d6000803e3d6000fd5b505050506040513d601f19601f8201168201806040525081019061443091906164d0565b6001600160a01b031663313ce5676040518163ffffffff1660e01b8152600401602060405180830381865afa925050508015614489575060408051601f3d908101601f1916820190925261448691810190616e88565b60015b156144945760ff1690505b60006144ae6144a483600a616f8f565b6139a3908561656d565b607854604051637817ee4f60e01b81529192506000916001600160a01b0390911690637817ee4f906144e6908a903090600401616643565b602060405180830381865afa158015614503573d6000803e3d6000fd5b505050506040513d601f19601f82011682018060405250810190614527919061667a565b90506000614535828461646a565b98975050505050505050565b600080439050808460070154111561455b5761455b616fe7565b8084600701540361457157506000905080614592565b61458f846007015482614584919061646a565b85600301548561183f565b91505b9250929050565b6145a38484612c93565b8151156145b3576145b382613e55565b80511561110c5761110c815b60005b815181101561473e576078546068546040516001600160a01b03909216916391d14854916145f291602001616f9b565b6040516020818303038152906040528051906020012084848151811061461a5761461a616fb8565b60200260200101516040518363ffffffff1660e01b815260040161463f9291906166ac565b602060405180830381865afa15801561465c573d6000803e3d6000fd5b505050506040513d601f19601f82011682018060405250810190614680919061665d565b1561472c576078546068546040516001600160a01b039092169163d547741f916146ac91602001616f9b565b604051602081830303815290604052805190602001208484815181106146d4576146d4616fb8565b60200260200101516040518363ffffffff1660e01b81526004016146f99291906166ac565b600060405180830381600087803b15801561471357600080fd5b505af1158015614727573d6000803e3d6000fd5b505050505b806147368161678c565b9150506145c2565b507fd418c93b6b78d828a87ee1909e6fcdbbf2f8d8f540ad7b232bb3e221e6d7cc1e60685482604051612919929190616fce565b61477c8383612c93565b607a546001600160a01b031615610fad57607a5460405163642ce76b60e01b8152306004820152602481018390526001600160a01b039091169063642ce76b90604401600060405180830381600087803b1580156147d957600080fd5b505af11580156147ed573d6000803e3d6000fd5b50505050505050565b60785460405163288c314960e21b81526001600160a01b039091169063a230c52490614826908490600401615a6f565b602060405180830381865afa158015614843573d6000803e3d6000fd5b505050506040513d601f19601f82011682018060405250810190614867919061665d565b61199f57604051636a5cfb6d60e01b815260040160405180910390fd5b6067805460ff19168215159081179091556040519081527fd94c9bc4d43c51d8dc345a016d8e3d994432fac68e72832e4cf3a616bd8efae090602001612919565b6148cd612ffc565b606854156148ee5760405163439a74c960e01b815260040160405180910390fd5b8060000361490f57604051637fcce2a960e01b815260040160405180910390fd5b606855565b6040516001600160601b03193360601b16602082015260348101829052600090819060540160405160208183030381529060405280519060200120905061495b8482614ed1565b949350505050565b6000828060200190518101906149799190616ffd565b905060005b815181101561110c576149cb82828151811061499c5761499c616fb8565b6020026020010151600001518383815181106149ba576149ba616fb8565b602002602001015160200151614f68565b806149d58161678c565b91505061497e565b6149e6816147f6565b6000828060200190518101906149fc9190616ffd565b9050614a07826140ee565b614a6a5760005b8151811015614a68576000828281518110614a2b57614a2b616fb8565b6020026020010151602001511315614a5657604051630b72d6b160e31b815260040160405180910390fd5b80614a608161678c565b915050614a0e565b505b60785460405163011de97360e61b81526001600160a01b039091169063477a5cc090614a9c9085903090600401616643565b602060405180830381865afa158015614ab9573d6000803e3d6000fd5b505050506040513d601f19601f82011682018060405250810190614add919061665d565b614afa57604051635fccb67f60e01b815260040160405180910390fd5b614b048282615030565b610fad828261521b565b6040518181527f46aeb5d8770fc4474bc2dfa118fd2595f7fb33ce2cbce6f4e5a3dabfe0f7633990602001612919565b73eeeeeeeeeeeeeeeeeeeeeeeeeeeeeeeeeeeeeeed196001600160a01b03841601614b6d57610fad82826155f3565b610fad83838361560f565b60005b6001600160a01b0382166000908152607d6020526040902054811015614c9c576001600160a01b0382166000908152607d60205260408120805483908110614bc557614bc5616fb8565b6000918252602080832090910154808352607b9091526040909120909150614bec82615655565b15614c87576001600160a01b0384166000908152600982016020526040812080549082905560028301805491928392614c2690849061646a565b925050819055508060706000828254614c3f919061646a565b90915550614c4f90508282613321565b60008051602061716f8339815191528584600085600201548660030154604051614c7d9594939291906170a7565b60405180910390a1505b50508080614c949061678c565b915050614b7b565b506001600160a01b03166000908152607c6020526040812055565b600081600003614cc957506000919050565b60006001614cd68461568e565b901c6001901b90506001818481614cef57614cef616512565b048201901c90506001818481614d0757614d07616512565b048201901c90506001818481614d1f57614d1f616512565b048201901c90506001818481614d3757614d37616512565b048201901c90506001818481614d4f57614d4f616512565b048201901c90506001818481614d6757614d67616512565b048201901c90506001818481614d7f57614d7f616512565b048201901c905061118381828581614d9957614d99616512565b04615722565b6000600160801b831115614dc957604051600162a4c31160e01b0319815260040160405180910390fd5b600160801b821115614dee576040516370b7a2d960e01b815260040160405180910390fd5b60806001607f1b614dff848661656d565b614e09919061649e565b901c9392505050565b614e1b81613312565b614e7d5760405162461bcd60e51b815260206004820152602d60248201527f455243313936373a206e657720696d706c656d656e746174696f6e206973206e60448201526c1bdd08184818dbdb9d1c9858dd609a1b6064820152608401611052565b60008051602061714f83398151915280546001600160a01b0319166001600160a01b0392909216919091179055565b614eb583615738565b600082511180614ec25750805b15610fad5761110c8383615778565b6000763d602d80600a3d3981f3363d3d373d3d3d363d730000008360601b60e81c176000526e5af43d82803e903d91602b57fd5bf38360781b1760205281603760096000f590506001600160a01b038116610f5d5760405162461bcd60e51b8152602060048201526017602482015276115490cc4c4d8dce8818dc99585d194c8819985a5b1959604a1b6044820152606401611052565b6000828152607b60205260408120908213801561500557506000600882015460ff166006811115614f9b57614f9b61590e565b1480614fbf57506003600882015460ff166006811115614fbd57614fbd61590e565b145b80614fe257506004600882015460ff166006811115614fe057614fe061590e565b145b8061500557506006600882015460ff1660068111156150035761500361590e565b145b15610fad5760088101546040516394d57ead60e01b815261105291859160ff909116906004016170d5565b60008061503c846140ee565b905060005b835181101561514357811580156150755750600084828151811061506757615067616fb8565b602002602001015160200151135b1561509357604051630b72d6b160e31b815260040160405180910390fd5b8381815181106150a5576150a5616fb8565b602002602001015160000151600003156151315760008482815181106150cd576150cd616fb8565b60200260200101516000015190506150e481615655565b6151045760405163c1d17bef60e01b815260048101829052602401611052565b84828151811061511657615116616fb8565b6020026020010151602001518461512d91906170f2565b9350505b8061513b8161678c565b915050615041565b5060006151586151528661263a565b8461579d565b607854604051637817ee4f60e01b81529192506000916001600160a01b0390911690637817ee4f906151909089903090600401616643565b602060405180830381865afa1580156151ad573d6000803e3d6000fd5b505050506040513d601f19601f820116820180604052508101906151d1919061667a565b9050808211156151f8578181604051636b20c17f60e11b815260040161105292919061669e565b506001600160a01b039094166000908152607c6020526040902093909355505050565b606060005b825181101561110c57600083828151811061523d5761523d616fb8565b60200260200101516000015190508251600003615299576040805160018082528183019092529060208083019080368337019050509250808360008151811061528857615288616fb8565b6020026020010181815250506153cc565b6000805b84518110156152f957828582815181106152b9576152b9616fb8565b6020026020010151036152e757600191508281604051632b7aec5560e21b815260040161105292919061669e565b806152f18161678c565b91505061529d565b50806153ca5760008451600161530f919061649e565b6001600160401b0381111561532657615326615a83565b60405190808252806020026020018201604052801561534f578160200160208202803683370190505b50905060005b85518110156153a75785818151811061537057615370616fb8565b602002602001015182828151811061538a5761538a616fb8565b60209081029190910101528061539f8161678c565b915050615355565b5082818651815181106153bc576153bc616fb8565b602090810291909101015293505b505b60008483815181106153e0576153e0616fb8565b6020908102919091018101518101516000848152607b835260408082206001600160a01b038b16835260098101909452812054919350615420828561579d565b6001600160a01b038a1660009081526009850160205260408120829055909150805b6001600160a01b038b166000908152607d60205260409020548110156154b95784546001600160a01b038c166000908152607d6020526040902080548390811061548e5761548e616fb8565b9060005260206000200154036154a757600191506154b9565b806154b18161678c565b915050615442565b50806154ef576001600160a01b038a166000908152607d6020908152604082208654815460018101835591845291909220909101555b81831161553f57615500838361646a565b60706000828254615511919061649e565b909155506155219050838361646a565b846002016000828254615534919061649e565b909155506155839050565b615549828461646a565b6070600082825461555a919061646a565b9091555061556a9050828461646a565b84600201600082825461557d919061646a565b90915550505b836007015460000361559a574360078501556155da565b6155a48484613321565b60008051602061716f8339815191528a8784876002015488600301546040516155d19594939291906170a7565b60405180910390a15b50505050505080806155eb9061678c565b915050615220565b60008060008084865af1610f8e5763b12d13eb6000526004601cfd5b816014528060345263a9059cbb60601b60005260206000604460106000875af13d15600160005114171661564b576390b8ec186000526004601cfd5b6000603452505050565b6000818152607b602052604081205415801590610f5d5750506000908152607b60205260409020600501546001600160a01b0316151590565b600080608083901c156156a357608092831c92015b604083901c156156b557604092831c92015b602083901c156156c757602092831c92015b601083901c156156d957601092831c92015b600883901c156156eb57600892831c92015b600483901c156156fd57600492831c92015b600283901c1561570f57600292831c92015b600183901c15610f5d5760010192915050565b60008183106157315781611183565b5090919050565b61574181614e12565b6040516001600160a01b038216907fbc7cd75a20ee27fd9adebab32041f755214dbc6bffa90cc0225b39da2e5c2d3b90600090a250565b6060611183838360405180606001604052806027815260200161718f602791396157d4565b6000806157aa83856170f2565b9050600081121561118357838382604051631dde38a160e11b815260040161105293929190616b7f565b6060600080856001600160a01b0316856040516157f19190617112565b600060405180830381855af49150503d806000811461582c576040519150601f19603f3d011682016040523d82523d6000602084013e615831565b606091505b50915091506158428683838761584c565b9695505050505050565b606083156158b95782516000036158b25761586685613312565b6158b25760405162461bcd60e51b815260206004820152601d60248201527f416464726573733a2063616c6c20746f206e6f6e2d636f6e74726163740000006044820152606401611052565b508161495b565b61495b83838151156158ce5781518083602001fd5b8060405162461bcd60e51b8152600401611052919061640d565b6000602082840312156158fa57600080fd5b5035919050565b6001600160a01b03169052565b634e487b7160e01b600052602160045260246000fd5b6007811061199f5761199f61590e565b60005b8381101561594f578181015183820152602001615937565b50506000910152565b60008151808452615970816020860160208601615934565b601f01601f19169290920160200192915050565b80518252600060208201516040602085015261495b6040850182615958565b60006101e08f83528e60208401528d60408401528c606084015260018060a01b03808d166080850152808c1660a0850152808b1660c08501528960e08501526159eb89615924565b8861010085015281610120850152615a0582850189615984565b875161014086015260208801516101608601526040909701511661018084015250506101a08101929092526101c0909101529a9950505050505050505050565b600060208284031215615a5757600080fd5b81356001600160e01b03198116811461118357600080fd5b6001600160a01b0391909116815260200190565b634e487b7160e01b600052604160045260246000fd5b60405160c081016001600160401b0381118282101715615abb57615abb615a83565b60405290565b604051608081016001600160401b0381118282101715615abb57615abb615a83565b60405161012081016001600160401b0381118282101715615abb57615abb615a83565b604080519081016001600160401b0381118282101715615abb57615abb615a83565b60405160a081016001600160401b0381118282101715615abb57615abb615a83565b604051601f8201601f191681016001600160401b0381118282101715615b7257615b72615a83565b604052919050565b6001600160a01b038116811461199f57600080fd5b600060c08284031215615ba157600080fd5b615ba9615a99565b90508135615bb681615b7a565b81526020820135615bc681615b7a565b8060208301525060408201356040820152606082013560608201526080820135608082015260a082013560a082015292915050565b600060808284031215615c0d57600080fd5b615c15615ac1565b90508135815260208201356020820152604082013560408201526060820135606082015292915050565b6000806101408385031215615c5357600080fd5b615c5d8484615b8f565b9150615c6c8460c08501615bfb565b90509250929050565b60006001600160401b03821115615c8e57615c8e615a83565b5060051b60200190565b600082601f830112615ca957600080fd5b81356020615cbe615cb983615c75565b615b4a565b82815260059290921b84018101918181019086841115615cdd57600080fd5b8286015b84811015615d01578035615cf481615b7a565b8352918301918301615ce1565b509695505050505050565b60006001600160401b03821115615d2557615d25615a83565b50601f01601f191660200190565b6000615d41615cb984615d0c565b9050828152838383011115615d5557600080fd5b828260208301376000602084830101529392505050565b600082601f830112615d7d57600080fd5b61118383833560208501615d33565b600080600060608486031215615da157600080fd5b83356001600160401b0380821115615db857600080fd5b615dc487838801615c98565b94506020860135915080821115615dda57600080fd5b50615de786828701615d6c565b9250506040840135615df881615b7a565b809150509250925092565b600080600060608486031215615e1857600080fd5b8335615e2381615b7a565b92506020840135615e3381615b7a565b91506040840135615df881615b7a565b60008060408385031215615e5657600080fd5b82356001600160401b03811115615e6c57600080fd5b615e7885828601615d6c565b9250506020830135615e8981615b7a565b809150509250929050565b60048110615ea457615ea461590e565b9052565b60208101610f5d8284615e94565b60008060408385031215615ec957600080fd5b8235615ed481615b7a565b946020939093013593505050565b60008060408385031215615ef557600080fd5b50508035926020909101359150565b600080600060608486031215615f1957600080fd5b505081359360208301359350604090920135919050565b60038110615ea457615ea461590e565b60208101610f5d8284615f30565b600060208284031215615f6057600080fd5b813561118381615b7a565b60008060408385031215615f7e57600080fd5b8235615f8981615b7a565b915060208301356001600160401b03811115615fa457600080fd5b615fb085828601615d6c565b9150509250929050565b600080600060608486031215615fcf57600080fd5b8335615fda81615b7a565b925060208401356001600160401b03811115615ff557600080fd5b8401601f8101861361600657600080fd5b615de786823560208401615d33565b60006020828403121561602757600080fd5b81356001600160401b0381111561603d57600080fd5b61495b84828501615c98565b600080600080610180858703121561606057600080fd5b61606a8686615b8f565b93506160798660c08701615bfb565b92506101408501356001600160401b038082111561609657600080fd5b6160a288838901615c98565b93506101608701359150808211156160b957600080fd5b506160c687828801615c98565b91505092959194509250565b6020815260006111836020830184615984565b600080600061016084860312156160fb57600080fd5b6161058585615b8f565b92506161148560c08601615bfb565b915061014084013590509250925092565b6000806040838503121561613857600080fd5b82356001600160401b038082111561614f57600080fd5b61615b86838701615c98565b935060209150818501358181111561617257600080fd5b8501601f8101871361618357600080fd5b8035616191615cb982615c75565b81815260059190911b820184019084810190898311156161b057600080fd5b8584015b838110156161e8578035868111156161cc5760008081fd5b6161da8c8983890101615d6c565b8452509186019186016161b4565b508096505050505050509250929050565b602080825282518282018190526000919060409081850190868401855b8281101561624457815180516001600160a01b03168552860151868501529284019290850190600101616216565b5091979650505050505050565b60008083601f84011261626357600080fd5b5081356001600160401b0381111561627a57600080fd5b60208301915083602082850101111561459257600080fd5b6000806000806000606086880312156162aa57600080fd5b8535945060208601356001600160401b03808211156162c857600080fd5b6162d489838a01616251565b909650945060408801359150808211156162ed57600080fd5b506162fa88828901616251565b969995985093965092949392505050565b801515811461199f57600080fd5b60006020828403121561632b57600080fd5b81356111838161630b565b6001600160a01b038c811682528b811660208301528a1660408201526060810189905260808101889052610160810161636e88615924565b8760a08301528660c08301528560e08301528461010083015283610120830152826101408301529c9b505050505050505050505050565b600080604083850312156163b857600080fd5b823591506020830135615e8981615b7a565b602081016163d783615924565b91905290565b600080604083850312156163f057600080fd5b8235915060208301356001600160401b03811115615fa457600080fd5b6020815260006111836020830184615958565b600181811c9082168061643457607f821691505b602082108103611ce957634e487b7160e01b600052602260045260246000fd5b634e487b7160e01b600052601160045260246000fd5b81810381811115610f5d57610f5d616454565b6001600160a01b039390931683526020830191909152604082015260600190565b80820180821115610f5d57610f5d616454565b9283526001600160a01b03919091166020830152604082015260600190565b6000602082840312156164e257600080fd5b815161118381615b7a565b9384526001600160a01b03928316602085015291166040830152606082015260800190565b634e487b7160e01b600052601260045260246000fd5b60008261654557634e487b7160e01b600052601260045260246000fd5b500490565b60006001600160401b0382168061656357616563616454565b6000190192915050565b8082028115828204841417610f5d57610f5d616454565b6020808252602c9082015260008051602061712f83398151915260408201526b19195b1959d85d1958d85b1b60a21b606082015260800190565b6020808252602c9082015260008051602061712f83398151915260408201526b6163746976652070726f787960a01b606082015260800190565b6020808252602b908201527f496e697469616c697a61626c653a20636f6e7472616374206973206e6f74206960408201526a6e697469616c697a696e6760a81b606082015260800190565b6001600160a01b0392831681529116602082015260400190565b60006020828403121561666f57600080fd5b81516111838161630b565b60006020828403121561668c57600080fd5b5051919050565b805161216981615b7a565b918252602082015260400190565b9182526001600160a01b0316602082015260400190565b81835281816020850137506000828201602090810191909152601f909101601f19169091010190565b8381526040602082015260006167066040830184866166c3565b95945050505050565b60006001600160401b038281166002600160401b0319810161673357616733616454565b6001019392505050565b6001600160a01b03888116825260208201889052604082018790528516606082015260c06080820181905260009061677890830185876166c3565b90508260a083015298975050505050505050565b60006001820161679e5761679e616454565b5060010190565b6000608082840312156167b757600080fd5b6167bf615ac1565b90508151815260208201516020820152604082015160408201526060820151606082015292915050565b80516003811061216957600080fd5b80516004811061216957600080fd5b60006020828403121561681957600080fd5b604051602081016001600160401b038111828210171561683b5761683b615a83565b6040529151825250919050565b600060c0828403121561685a57600080fd5b616862615a99565b9050815161686f81615b7a565b8152602082015161687f81615b7a565b8060208301525060408201516040820152606082015160608201526080820151608082015260a082015160a082015292915050565b600082601f8301126168c557600080fd5b815160206168d5615cb983615c75565b82815260059290921b840181019181810190868411156168f457600080fd5b8286015b84811015615d0157805161690b81615b7a565b83529183019183016168f8565b60006020828403121561692a57600080fd5b81516001600160401b038082111561694157600080fd5b90830190610220828603121561695657600080fd5b61695e615ae3565b61696886846167a5565b8152616976608084016167e9565b602082015261698760a084016167f8565b60408201526169998660c08501616807565b60608201526169ab8660e08501616848565b60808201526169bd6101a08401616693565b60a08201526169cf6101c08401616693565b60c08201526101e083015160e0820152610200830151828111156169f257600080fd5b6169fe878286016168b4565b6101008301525095945050505050565b805182526020810151602083015260408101516040830152606081015160608301525050565b600081518084526020808501945080840160005b83811015616a6d5781516001600160a01b031687529582019590820190600101616a48565b509495945050505050565b82815260406020820152616a90604082018351616a0e565b60006020830151616aa460c0840182615f30565b506040830151616ab760e0840182615e94565b506060830151610100616acc81850183519052565b60808581015180516001600160a01b0390811661012088015260208201511661014087015260408101516101608701526060810151610180870152908101516101a086015260a0908101516101c08601528501519150616b306101e0850183615901565b60c08501519150616b45610200850183615901565b60e085015191506102208281860152818601519250806102408601525050616706610260840182616a34565b60808101610f5d8284616a0e565b9283526020830191909152604082015260600190565b600060408284031215616ba757600080fd5b616baf615b06565b8251815260208301519091506001600160401b03811115616bcf57600080fd5b8201601f81018413616be057600080fd5b8051616bee615cb982615d0c565b818152856020838501011115616c0357600080fd5b616c14826020830160208601615934565b602084015250909392505050565b600060208284031215616c3457600080fd5b81516001600160401b0380821115616c4b57600080fd5b9083019060c08286031215616c5f57600080fd5b616c67615a99565b825181526020830151616c7981615b7a565b60208201526040830151616c8c81615b7a565b6040820152606083015182811115616ca357600080fd5b616caf87828601616b95565b6060830152506080830151608082015260a083015160a082015280935050505092915050565b600060208284031215616ce757600080fd5b81516001600160401b0380821115616cfe57600080fd5b9083019060a08286031215616d1257600080fd5b616d1a615b28565b825181526020830151616d2c81615b7a565b6020820152604083810151908201526060830151616d4981615b7a565b6060820152608083015182811115616d6057600080fd5b616d6c87828601616b95565b60808301525095945050505050565b601f821115610fad57600081815260208120601f850160051c81016020861015616da25750805b601f850160051c820191505b81811015616dc157828155600101616dae565b505050505050565b81516001600160401b03811115616de257616de2615a83565b616df681616df08454616420565b84616d7b565b602080601f831160018114616e2b5760008415616e135750858301515b600019600386901b1c1916600185901b178555616dc1565b600085815260208120601f198616915b82811015616e5a57888601518255948401946001909101908401616e3b565b5085821015616e785787850151600019600388901b60f8161c191681555b5050505050600190811b01905550565b600060208284031215616e9a57600080fd5b815160ff8116811461118357600080fd5b600181815b80851115616ee6578160001904821115616ecc57616ecc616454565b80851615616ed957918102915b93841c9390800290616eb0565b509250929050565b600082616efd57506001610f5d565b81616f0a57506000610f5d565b8160018114616f205760028114616f2a57616f46565b6001915050610f5d565b60ff841115616f3b57616f3b616454565b50506001821b610f5d565b5060208310610133831016604e8410600b8410161715616f69575081810a610f5d565b616f738383616eab565b8060001904821115616f8757616f87616454565b029392505050565b60006111838383616eee565b6810531313d5d31254d560ba1b8152600981019190915260290190565b634e487b7160e01b600052603260045260246000fd5b82815260406020820152600061495b6040830184616a34565b634e487b7160e01b600052600160045260246000fd5b6000602080838503121561701057600080fd5b82516001600160401b0381111561702657600080fd5b8301601f8101851361703757600080fd5b8051617045615cb982615c75565b81815260069190911b8201830190838101908783111561706457600080fd5b928401925b82841015613a2b57604084890312156170825760008081fd5b61708a615b06565b845181528585015186820152825260409093019290840190617069565b6001600160a01b03959095168552602085019390935260408401919091526060830152608082015260a00190565b828152604081016170e583615924565b8260208301529392505050565b8082018281126000831280158216821582161715613aa857613aa8616454565b60008251617124818460208701615934565b919091019291505056fe46756e6374696f6e206d7573742062652063616c6c6564207468726f75676820360894a13ba1a3210667c828492db98dca3e2076cc3735a920a3ca505d382bbc0227f642ddcf2042ceaeafadb9d540f432072c00cd4862881667168dcc14710f416464726573733a206c6f772d6c6576656c2064656c65676174652063616c6c206661696c6564a26469706673582212204f170abef343daaed187bcc22c3a8afe2c8635484c4254b9ac907d95343d2d3d64736f6c63430008130033","linkReferences":{}},"methodIdentifiers":{"D()":"0f529ba2","DISPUTE_COOLDOWN_SEC()":"f5be3f7c","MAX_STAKED_PROPOSALS()":"406244d8","NATIVE()":"a0cf0aea","RULING_OPTIONS()":"626c47e8","VERSION()":"ffa1ad74","activatePoints()":"814516ad","addToAllowList(address[])":"7263cfe2","allocate(bytes,address)":"ef2920fc","arbitrableConfigs(uint256)":"41bb7605","calculateConviction(uint256,uint256,uint256)":"346db8cb","calculateThreshold(uint256)":"59a5db8b","canExecuteProposal(uint256)":"824ea8ed","cancelProposal(uint256)":"e0a8f6f5","cloneNonce()":"33960459","collateralVault()":"0bece79c","currentArbitrableConfigVersion()":"125fd1d9","cvParams()":"2506b870","deactivatePoints()":"1ddf1e23","deactivatePoints(address)":"6453d9c4","decreasePower(address,uint256)":"2ed04b2b","disputeCount()":"a28889e1","disputeIdToProposalId(uint256)":"255ffb38","disputeProposal(uint256,string,bytes)":"b41596ec","distribute(address[],bytes,address)":"0a6f0ee9","getAllo()":"15cc481e","getArbitrableConfig()":"059351cd","getMaxAmount()":"0ba95909","getMaxConviction(uint256)":"950559d7","getMetadata(uint256)":"a574cea4","getPayouts(address[],bytes[])":"b2b878d0","getPointSystem()":"c3292171","getPoolAmount()":"4ab4ba42","getPoolId()":"38fff2d0","getProposal(uint256)":"c7f758a8","getProposalStakedAmount(uint256)":"dc96ff2d","getProposalVoterStake(uint256,address)":"e0dd2c38","getRecipientStatus(address)":"eb11af93","getStrategyId()":"42fda9c7","getTotalVoterStakePct(address)":"bcc5b93b","increasePoolAmount(uint256)":"f5b0dfb7","increasePower(address,uint256)":"782aadff","init(address,address,address)":"184b9559","init(address,string,address)":"60d5dedc","initialize(address)":"c4d66de8","initialize(uint256,bytes)":"edd146cc","isPoolActive()":"df868ed3","isValidAllocator(address)":"4d31d087","owner()":"8da5cb5b","pointConfig()":"a47ff7e5","pointSystem()":"2dbd6fdd","proposalCounter()":"0c0512e9","proposalType()":"351d9f96","proposals(uint256)":"013cf08b","proxiableUUID()":"52d1902d","proxyOwner()":"025313a2","registerRecipient(bytes,address)":"2bbe0cae","registryCommunity()":"6003e414","removeFromAllowList(address[])":"a51312c8","renounceOwnership()":"715018a6","rule(uint256,uint256)":"311a6c56","setCollateralVaultTemplate(address)":"b0d3713a","setPoolActive(bool)":"b5f620ce","setPoolParams((address,address,uint256,uint256,uint256,uint256),(uint256,uint256,uint256,uint256))":"062f9ece","setPoolParams((address,address,uint256,uint256,uint256,uint256),(uint256,uint256,uint256,uint256),address[],address[])":"948e7a59","setPoolParams((address,address,uint256,uint256,uint256,uint256),(uint256,uint256,uint256,uint256),uint256)":"ad56fd5d","setSybilScorer(address,uint256)":"3864d366","supportsInterface(bytes4)":"01ffc9a7","sybilScorer()":"b6c61f31","totalEffectiveActivePoints()":"d1e36232","totalPointsActivated()":"aba9ffee","totalStaked()":"817b1cd2","totalVoterStakePct(address)":"5db64b99","transferOwnership(address)":"f2fde38b","updateProposalConviction(uint256)":"1aa91a9e","upgradeTo(address)":"3659cfe6","upgradeToAndCall(address,bytes)":"4f1ef286","voterStakedProposals(address,uint256)":"868c57b8"},"storageLayout":{"storage":[{"astId":52990,"contract":"pkg/contracts/src/CVStrategy/CVStrategyV0_0.sol:CVStrategyV0_0","label":"_initialized","offset":0,"slot":"0","type":"t_uint8"},{"astId":52993,"contract":"pkg/contracts/src/CVStrategy/CVStrategyV0_0.sol:CVStrategyV0_0","label":"_initializing","offset":1,"slot":"0","type":"t_bool"},{"astId":53695,"contract":"pkg/contracts/src/CVStrategy/CVStrategyV0_0.sol:CVStrategyV0_0","label":"__gap","offset":0,"slot":"1","type":"t_array(t_uint256)50_storage"},{"astId":52782,"contract":"pkg/contracts/src/CVStrategy/CVStrategyV0_0.sol:CVStrategyV0_0","label":"_owner","offset":0,"slot":"51","type":"t_address"},{"astId":52902,"contract":"pkg/contracts/src/CVStrategy/CVStrategyV0_0.sol:CVStrategyV0_0","label":"__gap","offset":0,"slot":"52","type":"t_array(t_uint256)49_storage"},{"astId":64873,"contract":"pkg/contracts/src/CVStrategy/CVStrategyV0_0.sol:CVStrategyV0_0","label":"allo","offset":0,"slot":"101","type":"t_contract(IAllo)2610"},{"astId":64875,"contract":"pkg/contracts/src/CVStrategy/CVStrategyV0_0.sol:CVStrategyV0_0","label":"strategyId","offset":0,"slot":"102","type":"t_bytes32"},{"astId":64877,"contract":"pkg/contracts/src/CVStrategy/CVStrategyV0_0.sol:CVStrategyV0_0","label":"poolActive","offset":0,"slot":"103","type":"t_bool"},{"astId":64879,"contract":"pkg/contracts/src/CVStrategy/CVStrategyV0_0.sol:CVStrategyV0_0","label":"poolId","offset":0,"slot":"104","type":"t_uint256"},{"astId":64881,"contract":"pkg/contracts/src/CVStrategy/CVStrategyV0_0.sol:CVStrategyV0_0","label":"poolAmount","offset":0,"slot":"105","type":"t_uint256"},{"astId":65948,"contract":"pkg/contracts/src/CVStrategy/CVStrategyV0_0.sol:CVStrategyV0_0","label":"collateralVaultTemplate","offset":0,"slot":"106","type":"t_address"},{"astId":65950,"contract":"pkg/contracts/src/CVStrategy/CVStrategyV0_0.sol:CVStrategyV0_0","label":"surpressStateMutabilityWarning","offset":0,"slot":"107","type":"t_uint256"},{"astId":65952,"contract":"pkg/contracts/src/CVStrategy/CVStrategyV0_0.sol:CVStrategyV0_0","label":"cloneNonce","offset":0,"slot":"108","type":"t_uint256"},{"astId":65954,"contract":"pkg/contracts/src/CVStrategy/CVStrategyV0_0.sol:CVStrategyV0_0","label":"disputeCount","offset":0,"slot":"109","type":"t_uint64"},{"astId":65956,"contract":"pkg/contracts/src/CVStrategy/CVStrategyV0_0.sol:CVStrategyV0_0","label":"proposalCounter","offset":0,"slot":"110","type":"t_uint256"},{"astId":65958,"contract":"pkg/contracts/src/CVStrategy/CVStrategyV0_0.sol:CVStrategyV0_0","label":"currentArbitrableConfigVersion","offset":0,"slot":"111","type":"t_uint256"},{"astId":65960,"contract":"pkg/contracts/src/CVStrategy/CVStrategyV0_0.sol:CVStrategyV0_0","label":"totalStaked","offset":0,"slot":"112","type":"t_uint256"},{"astId":65962,"contract":"pkg/contracts/src/CVStrategy/CVStrategyV0_0.sol:CVStrategyV0_0","label":"totalPointsActivated","offset":0,"slot":"113","type":"t_uint256"},{"astId":65965,"contract":"pkg/contracts/src/CVStrategy/CVStrategyV0_0.sol:CVStrategyV0_0","label":"cvParams","offset":0,"slot":"114","type":"t_struct(CVParams)65636_storage"},{"astId":65968,"contract":"pkg/contracts/src/CVStrategy/CVStrategyV0_0.sol:CVStrategyV0_0","label":"proposalType","offset":0,"slot":"118","type":"t_enum(ProposalType)65539"},{"astId":65971,"contract":"pkg/contracts/src/CVStrategy/CVStrategyV0_0.sol:CVStrategyV0_0","label":"pointSystem","offset":1,"slot":"118","type":"t_enum(PointSystem)65544"},{"astId":65974,"contract":"pkg/contracts/src/CVStrategy/CVStrategyV0_0.sol:CVStrategyV0_0","label":"pointConfig","offset":0,"slot":"119","type":"t_struct(PointSystemConfig)65613_storage"},{"astId":65977,"contract":"pkg/contracts/src/CVStrategy/CVStrategyV0_0.sol:CVStrategyV0_0","label":"registryCommunity","offset":0,"slot":"120","type":"t_contract(RegistryCommunityV0_0)72957"},{"astId":65980,"contract":"pkg/contracts/src/CVStrategy/CVStrategyV0_0.sol:CVStrategyV0_0","label":"collateralVault","offset":0,"slot":"121","type":"t_contract(ICollateralVault)76383"},{"astId":65983,"contract":"pkg/contracts/src/CVStrategy/CVStrategyV0_0.sol:CVStrategyV0_0","label":"sybilScorer","offset":0,"slot":"122","type":"t_contract(ISybilScorer)69967"},{"astId":65988,"contract":"pkg/contracts/src/CVStrategy/CVStrategyV0_0.sol:CVStrategyV0_0","label":"proposals","offset":0,"slot":"123","type":"t_mapping(t_uint256,t_struct(Proposal)65605_storage)"},{"astId":65992,"contract":"pkg/contracts/src/CVStrategy/CVStrategyV0_0.sol:CVStrategyV0_0","label":"totalVoterStakePct","offset":0,"slot":"124","type":"t_mapping(t_address,t_uint256)"},{"astId":65997,"contract":"pkg/contracts/src/CVStrategy/CVStrategyV0_0.sol:CVStrategyV0_0","label":"voterStakedProposals","offset":0,"slot":"125","type":"t_mapping(t_address,t_array(t_uint256)dyn_storage)"},{"astId":66001,"contract":"pkg/contracts/src/CVStrategy/CVStrategyV0_0.sol:CVStrategyV0_0","label":"disputeIdToProposalId","offset":0,"slot":"126","type":"t_mapping(t_uint256,t_uint256)"},{"astId":66006,"contract":"pkg/contracts/src/CVStrategy/CVStrategyV0_0.sol:CVStrategyV0_0","label":"arbitrableConfigs","offset":0,"slot":"127","type":"t_mapping(t_uint256,t_struct(ArbitrableConfig)65627_storage)"},{"astId":69607,"contract":"pkg/contracts/src/CVStrategy/CVStrategyV0_0.sol:CVStrategyV0_0","label":"__gap","offset":0,"slot":"128","type":"t_array(t_uint256)50_storage"}],"types":{"t_address":{"encoding":"inplace","label":"address","numberOfBytes":"20"},"t_array(t_uint256)49_storage":{"encoding":"inplace","label":"uint256[49]","numberOfBytes":"1568","base":"t_uint256"},"t_array(t_uint256)50_storage":{"encoding":"inplace","label":"uint256[50]","numberOfBytes":"1600","base":"t_uint256"},"t_array(t_uint256)dyn_storage":{"encoding":"dynamic_array","label":"uint256[]","numberOfBytes":"32","base":"t_uint256"},"t_bool":{"encoding":"inplace","label":"bool","numberOfBytes":"1"},"t_bytes32":{"encoding":"inplace","label":"bytes32","numberOfBytes":"32"},"t_contract(IAllo)2610":{"encoding":"inplace","label":"contract IAllo","numberOfBytes":"20"},"t_contract(IArbitrator)76350":{"encoding":"inplace","label":"contract IArbitrator","numberOfBytes":"20"},"t_contract(ICollateralVault)76383":{"encoding":"inplace","label":"contract ICollateralVault","numberOfBytes":"20"},"t_contract(ISybilScorer)69967":{"encoding":"inplace","label":"contract ISybilScorer","numberOfBytes":"20"},"t_contract(RegistryCommunityV0_0)72957":{"encoding":"inplace","label":"contract RegistryCommunityV0_0","numberOfBytes":"20"},"t_enum(PointSystem)65544":{"encoding":"inplace","label":"enum PointSystem","numberOfBytes":"1"},"t_enum(ProposalStatus)65564":{"encoding":"inplace","label":"enum ProposalStatus","numberOfBytes":"1"},"t_enum(ProposalType)65539":{"encoding":"inplace","label":"enum ProposalType","numberOfBytes":"1"},"t_mapping(t_address,t_array(t_uint256)dyn_storage)":{"encoding":"mapping","key":"t_address","label":"mapping(address => uint256[])","numberOfBytes":"32","value":"t_array(t_uint256)dyn_storage"},"t_mapping(t_address,t_uint256)":{"encoding":"mapping","key":"t_address","label":"mapping(address => uint256)","numberOfBytes":"32","value":"t_uint256"},"t_mapping(t_uint256,t_struct(ArbitrableConfig)65627_storage)":{"encoding":"mapping","key":"t_uint256","label":"mapping(uint256 => struct ArbitrableConfig)","numberOfBytes":"32","value":"t_struct(ArbitrableConfig)65627_storage"},"t_mapping(t_uint256,t_struct(Proposal)65605_storage)":{"encoding":"mapping","key":"t_uint256","label":"mapping(uint256 => struct Proposal)","numberOfBytes":"32","value":"t_struct(Proposal)65605_storage"},"t_mapping(t_uint256,t_uint256)":{"encoding":"mapping","key":"t_uint256","label":"mapping(uint256 => uint256)","numberOfBytes":"32","value":"t_uint256"},"t_string_storage":{"encoding":"bytes","label":"string","numberOfBytes":"32"},"t_struct(ArbitrableConfig)65627_storage":{"encoding":"inplace","label":"struct ArbitrableConfig","numberOfBytes":"192","members":[{"astId":65616,"contract":"pkg/contracts/src/CVStrategy/CVStrategyV0_0.sol:CVStrategyV0_0","label":"arbitrator","offset":0,"slot":"0","type":"t_contract(IArbitrator)76350"},{"astId":65618,"contract":"pkg/contracts/src/CVStrategy/CVStrategyV0_0.sol:CVStrategyV0_0","label":"tribunalSafe","offset":0,"slot":"1","type":"t_address"},{"astId":65620,"contract":"pkg/contracts/src/CVStrategy/CVStrategyV0_0.sol:CVStrategyV0_0","label":"submitterCollateralAmount","offset":0,"slot":"2","type":"t_uint256"},{"astId":65622,"contract":"pkg/contracts/src/CVStrategy/CVStrategyV0_0.sol:CVStrategyV0_0","label":"challengerCollateralAmount","offset":0,"slot":"3","type":"t_uint256"},{"astId":65624,"contract":"pkg/contracts/src/CVStrategy/CVStrategyV0_0.sol:CVStrategyV0_0","label":"defaultRuling","offset":0,"slot":"4","type":"t_uint256"},{"astId":65626,"contract":"pkg/contracts/src/CVStrategy/CVStrategyV0_0.sol:CVStrategyV0_0","label":"defaultRulingTimeout","offset":0,"slot":"5","type":"t_uint256"}]},"t_struct(CVParams)65636_storage":{"encoding":"inplace","label":"struct CVParams","numberOfBytes":"128","members":[{"astId":65629,"contract":"pkg/contracts/src/CVStrategy/CVStrategyV0_0.sol:CVStrategyV0_0","label":"maxRatio","offset":0,"slot":"0","type":"t_uint256"},{"astId":65631,"contract":"pkg/contracts/src/CVStrategy/CVStrategyV0_0.sol:CVStrategyV0_0","label":"weight","offset":0,"slot":"1","type":"t_uint256"},{"astId":65633,"contract":"pkg/contracts/src/CVStrategy/CVStrategyV0_0.sol:CVStrategyV0_0","label":"decay","offset":0,"slot":"2","type":"t_uint256"},{"astId":65635,"contract":"pkg/contracts/src/CVStrategy/CVStrategyV0_0.sol:CVStrategyV0_0","label":"minThresholdPoints","offset":0,"slot":"3","type":"t_uint256"}]},"t_struct(Metadata)3098_storage":{"encoding":"inplace","label":"struct Metadata","numberOfBytes":"64","members":[{"astId":3094,"contract":"pkg/contracts/src/CVStrategy/CVStrategyV0_0.sol:CVStrategyV0_0","label":"protocol","offset":0,"slot":"0","type":"t_uint256"},{"astId":3097,"contract":"pkg/contracts/src/CVStrategy/CVStrategyV0_0.sol:CVStrategyV0_0","label":"pointer","offset":0,"slot":"1","type":"t_string_storage"}]},"t_struct(PointSystemConfig)65613_storage":{"encoding":"inplace","label":"struct PointSystemConfig","numberOfBytes":"32","members":[{"astId":65612,"contract":"pkg/contracts/src/CVStrategy/CVStrategyV0_0.sol:CVStrategyV0_0","label":"maxAmount","offset":0,"slot":"0","type":"t_uint256"}]},"t_struct(Proposal)65605_storage":{"encoding":"inplace","label":"struct Proposal","numberOfBytes":"544","members":[{"astId":65573,"contract":"pkg/contracts/src/CVStrategy/CVStrategyV0_0.sol:CVStrategyV0_0","label":"proposalId","offset":0,"slot":"0","type":"t_uint256"},{"astId":65575,"contract":"pkg/contracts/src/CVStrategy/CVStrategyV0_0.sol:CVStrategyV0_0","label":"requestedAmount","offset":0,"slot":"1","type":"t_uint256"},{"astId":65577,"contract":"pkg/contracts/src/CVStrategy/CVStrategyV0_0.sol:CVStrategyV0_0","label":"stakedAmount","offset":0,"slot":"2","type":"t_uint256"},{"astId":65579,"contract":"pkg/contracts/src/CVStrategy/CVStrategyV0_0.sol:CVStrategyV0_0","label":"convictionLast","offset":0,"slot":"3","type":"t_uint256"},{"astId":65581,"contract":"pkg/contracts/src/CVStrategy/CVStrategyV0_0.sol:CVStrategyV0_0","label":"beneficiary","offset":0,"slot":"4","type":"t_address"},{"astId":65583,"contract":"pkg/contracts/src/CVStrategy/CVStrategyV0_0.sol:CVStrategyV0_0","label":"submitter","offset":0,"slot":"5","type":"t_address"},{"astId":65585,"contract":"pkg/contracts/src/CVStrategy/CVStrategyV0_0.sol:CVStrategyV0_0","label":"requestedToken","offset":0,"slot":"6","type":"t_address"},{"astId":65587,"contract":"pkg/contracts/src/CVStrategy/CVStrategyV0_0.sol:CVStrategyV0_0","label":"blockLast","offset":0,"slot":"7","type":"t_uint256"},{"astId":65590,"contract":"pkg/contracts/src/CVStrategy/CVStrategyV0_0.sol:CVStrategyV0_0","label":"proposalStatus","offset":0,"slot":"8","type":"t_enum(ProposalStatus)65564"},{"astId":65594,"contract":"pkg/contracts/src/CVStrategy/CVStrategyV0_0.sol:CVStrategyV0_0","label":"voterStakedPoints","offset":0,"slot":"9","type":"t_mapping(t_address,t_uint256)"},{"astId":65597,"contract":"pkg/contracts/src/CVStrategy/CVStrategyV0_0.sol:CVStrategyV0_0","label":"metadata","offset":0,"slot":"10","type":"t_struct(Metadata)3098_storage"},{"astId":65600,"contract":"pkg/contracts/src/CVStrategy/CVStrategyV0_0.sol:CVStrategyV0_0","label":"disputeInfo","offset":0,"slot":"12","type":"t_struct(ProposalDisputeInfo)65571_storage"},{"astId":65602,"contract":"pkg/contracts/src/CVStrategy/CVStrategyV0_0.sol:CVStrategyV0_0","label":"lastDisputeCompletion","offset":0,"slot":"15","type":"t_uint256"},{"astId":65604,"contract":"pkg/contracts/src/CVStrategy/CVStrategyV0_0.sol:CVStrategyV0_0","label":"arbitrableConfigVersion","offset":0,"slot":"16","type":"t_uint256"}]},"t_struct(ProposalDisputeInfo)65571_storage":{"encoding":"inplace","label":"struct ProposalDisputeInfo","numberOfBytes":"96","members":[{"astId":65566,"contract":"pkg/contracts/src/CVStrategy/CVStrategyV0_0.sol:CVStrategyV0_0","label":"disputeId","offset":0,"slot":"0","type":"t_uint256"},{"astId":65568,"contract":"pkg/contracts/src/CVStrategy/CVStrategyV0_0.sol:CVStrategyV0_0","label":"disputeTimestamp","offset":0,"slot":"1","type":"t_uint256"},{"astId":65570,"contract":"pkg/contracts/src/CVStrategy/CVStrategyV0_0.sol:CVStrategyV0_0","label":"challenger","offset":0,"slot":"2","type":"t_address"}]},"t_uint256":{"encoding":"inplace","label":"uint256","numberOfBytes":"32"},"t_uint64":{"encoding":"inplace","label":"uint64","numberOfBytes":"8"},"t_uint8":{"encoding":"inplace","label":"uint8","numberOfBytes":"1"}}},"id":98}