{"abi":[{"type":"fallback","stateMutability":"payable"},{"type":"receive","stateMutability":"payable"},{"type":"function","name":"D","inputs":[],"outputs":[{"name":"","type":"uint256","internalType":"uint256"}],"stateMutability":"view"},{"type":"function","name":"DISPUTE_COOLDOWN_SEC","inputs":[],"outputs":[{"name":"","type":"uint256","internalType":"uint256"}],"stateMutability":"view"},{"type":"function","name":"MAX_STAKED_PROPOSALS","inputs":[],"outputs":[{"name":"","type":"uint256","internalType":"uint256"}],"stateMutability":"view"},{"type":"function","name":"NATIVE","inputs":[],"outputs":[{"name":"","type":"address","internalType":"address"}],"stateMutability":"view"},{"type":"function","name":"RULING_OPTIONS","inputs":[],"outputs":[{"name":"","type":"uint256","internalType":"uint256"}],"stateMutability":"view"},{"type":"function","name":"VERSION","inputs":[],"outputs":[{"name":"","type":"string","internalType":"string"}],"stateMutability":"view"},{"type":"function","name":"activatePoints","inputs":[],"outputs":[],"stateMutability":"nonpayable"},{"type":"function","name":"addToAllowList","inputs":[{"name":"members","type":"address[]","internalType":"address[]"}],"outputs":[],"stateMutability":"nonpayable"},{"type":"function","name":"allocate","inputs":[{"name":"_data","type":"bytes","internalType":"bytes"},{"name":"_sender","type":"address","internalType":"address"}],"outputs":[],"stateMutability":"payable"},{"type":"function","name":"arbitrableConfigs","inputs":[{"name":"","type":"uint256","internalType":"uint256"}],"outputs":[{"name":"arbitrator","type":"address","internalType":"contract IArbitrator"},{"name":"tribunalSafe","type":"address","internalType":"address"},{"name":"submitterCollateralAmount","type":"uint256","internalType":"uint256"},{"name":"challengerCollateralAmount","type":"uint256","internalType":"uint256"},{"name":"defaultRuling","type":"uint256","internalType":"uint256"},{"name":"defaultRulingTimeout","type":"uint256","internalType":"uint256"}],"stateMutability":"view"},{"type":"function","name":"calculateConviction","inputs":[{"name":"_timePassed","type":"uint256","internalType":"uint256"},{"name":"_lastConv","type":"uint256","internalType":"uint256"},{"name":"_oldAmount","type":"uint256","internalType":"uint256"}],"outputs":[{"name":"","type":"uint256","internalType":"uint256"}],"stateMutability":"view"},{"type":"function","name":"calculateThreshold","inputs":[{"name":"_requestedAmount","type":"uint256","internalType":"uint256"}],"outputs":[{"name":"_threshold","type":"uint256","internalType":"uint256"}],"stateMutability":"view"},{"type":"function","name":"canExecuteProposal","inputs":[{"name":"proposalId","type":"uint256","internalType":"uint256"}],"outputs":[{"name":"canBeExecuted","type":"bool","internalType":"bool"}],"stateMutability":"view"},{"type":"function","name":"cancelProposal","inputs":[{"name":"proposalId","type":"uint256","internalType":"uint256"}],"outputs":[],"stateMutability":"nonpayable"},{"type":"function","name":"cloneNonce","inputs":[],"outputs":[{"name":"","type":"uint256","internalType":"uint256"}],"stateMutability":"view"},{"type":"function","name":"collateralVault","inputs":[],"outputs":[{"name":"","type":"address","internalType":"contract ICollateralVault"}],"stateMutability":"view"},{"type":"function","name":"currentArbitrableConfigVersion","inputs":[],"outputs":[{"name":"","type":"uint256","internalType":"uint256"}],"stateMutability":"view"},{"type":"function","name":"cvParams","inputs":[],"outputs":[{"name":"maxRatio","type":"uint256","internalType":"uint256"},{"name":"weight","type":"uint256","internalType":"uint256"},{"name":"decay","type":"uint256","internalType":"uint256"},{"name":"minThresholdPoints","type":"uint256","internalType":"uint256"}],"stateMutability":"view"},{"type":"function","name":"deactivatePoints","inputs":[],"outputs":[],"stateMutability":"nonpayable"},{"type":"function","name":"deactivatePoints","inputs":[{"name":"_member","type":"address","internalType":"address"}],"outputs":[],"stateMutability":"nonpayable"},{"type":"function","name":"decreasePower","inputs":[{"name":"_member","type":"address","internalType":"address"},{"name":"_amountToUnstake","type":"uint256","internalType":"uint256"}],"outputs":[{"name":"","type":"uint256","internalType":"uint256"}],"stateMutability":"nonpayable"},{"type":"function","name":"disputeCount","inputs":[],"outputs":[{"name":"","type":"uint64","internalType":"uint64"}],"stateMutability":"view"},{"type":"function","name":"disputeIdToProposalId","inputs":[{"name":"","type":"uint256","internalType":"uint256"}],"outputs":[{"name":"","type":"uint256","internalType":"uint256"}],"stateMutability":"view"},{"type":"function","name":"disputeProposal","inputs":[{"name":"proposalId","type":"uint256","internalType":"uint256"},{"name":"context","type":"string","internalType":"string"},{"name":"_extraData","type":"bytes","internalType":"bytes"}],"outputs":[{"name":"disputeId","type":"uint256","internalType":"uint256"}],"stateMutability":"payable"},{"type":"function","name":"distribute","inputs":[{"name":"_recipientIds","type":"address[]","internalType":"address[]"},{"name":"_data","type":"bytes","internalType":"bytes"},{"name":"_sender","type":"address","internalType":"address"}],"outputs":[],"stateMutability":"nonpayable"},{"type":"function","name":"getAllo","inputs":[],"outputs":[{"name":"","type":"address","internalType":"contract IAllo"}],"stateMutability":"view"},{"type":"function","name":"getArbitrableConfig","inputs":[],"outputs":[{"name":"arbitrator","type":"address","internalType":"contract IArbitrator"},{"name":"tribunalSafe","type":"address","internalType":"address"},{"name":"submitterCollateralAmount","type":"uint256","internalType":"uint256"},{"name":"challengerCollateralAmount","type":"uint256","internalType":"uint256"},{"name":"defaultRuling","type":"uint256","internalType":"uint256"},{"name":"defaultRulingTimeout","type":"uint256","internalType":"uint256"}],"stateMutability":"view"},{"type":"function","name":"getMaxAmount","inputs":[],"outputs":[{"name":"","type":"uint256","internalType":"uint256"}],"stateMutability":"view"},{"type":"function","name":"getMaxConviction","inputs":[{"name":"amount","type":"uint256","internalType":"uint256"}],"outputs":[{"name":"","type":"uint256","internalType":"uint256"}],"stateMutability":"view"},{"type":"function","name":"getMetadata","inputs":[{"name":"_proposalId","type":"uint256","internalType":"uint256"}],"outputs":[{"name":"","type":"tuple","internalType":"struct Metadata","components":[{"name":"protocol","type":"uint256","internalType":"uint256"},{"name":"pointer","type":"string","internalType":"string"}]}],"stateMutability":"view"},{"type":"function","name":"getPayouts","inputs":[{"name":"","type":"address[]","internalType":"address[]"},{"name":"","type":"bytes[]","internalType":"bytes[]"}],"outputs":[{"name":"","type":"tuple[]","internalType":"struct IStrategy.PayoutSummary[]","components":[{"name":"recipientAddress","type":"address","internalType":"address"},{"name":"amount","type":"uint256","internalType":"uint256"}]}],"stateMutability":"pure"},{"type":"function","name":"getPointSystem","inputs":[],"outputs":[{"name":"","type":"uint8","internalType":"enum PointSystem"}],"stateMutability":"view"},{"type":"function","name":"getPoolAmount","inputs":[],"outputs":[{"name":"","type":"uint256","internalType":"uint256"}],"stateMutability":"view"},{"type":"function","name":"getPoolId","inputs":[],"outputs":[{"name":"","type":"uint256","internalType":"uint256"}],"stateMutability":"view"},{"type":"function","name":"getProposal","inputs":[{"name":"_proposalId","type":"uint256","internalType":"uint256"}],"outputs":[{"name":"submitter","type":"address","internalType":"address"},{"name":"beneficiary","type":"address","internalType":"address"},{"name":"requestedToken","type":"address","internalType":"address"},{"name":"requestedAmount","type":"uint256","internalType":"uint256"},{"name":"stakedAmount","type":"uint256","internalType":"uint256"},{"name":"proposalStatus","type":"uint8","internalType":"enum ProposalStatus"},{"name":"blockLast","type":"uint256","internalType":"uint256"},{"name":"convictionLast","type":"uint256","internalType":"uint256"},{"name":"threshold","type":"uint256","internalType":"uint256"},{"name":"voterStakedPoints","type":"uint256","internalType":"uint256"},{"name":"arbitrableConfigVersion","type":"uint256","internalType":"uint256"}],"stateMutability":"view"},{"type":"function","name":"getProposalStakedAmount","inputs":[{"name":"_proposalId","type":"uint256","internalType":"uint256"}],"outputs":[{"name":"","type":"uint256","internalType":"uint256"}],"stateMutability":"view"},{"type":"function","name":"getProposalVoterStake","inputs":[{"name":"_proposalId","type":"uint256","internalType":"uint256"},{"name":"_voter","type":"address","internalType":"address"}],"outputs":[{"name":"","type":"uint256","internalType":"uint256"}],"stateMutability":"view"},{"type":"function","name":"getRecipientStatus","inputs":[{"name":"_recipientId","type":"address","internalType":"address"}],"outputs":[{"name":"","type":"uint8","internalType":"enum IStrategy.Status"}],"stateMutability":"view"},{"type":"function","name":"getStrategyId","inputs":[],"outputs":[{"name":"","type":"bytes32","internalType":"bytes32"}],"stateMutability":"view"},{"type":"function","name":"getTotalVoterStakePct","inputs":[{"name":"_voter","type":"address","internalType":"address"}],"outputs":[{"name":"","type":"uint256","internalType":"uint256"}],"stateMutability":"view"},{"type":"function","name":"increasePoolAmount","inputs":[{"name":"_amount","type":"uint256","internalType":"uint256"}],"outputs":[],"stateMutability":"nonpayable"},{"type":"function","name":"increasePower","inputs":[{"name":"_member","type":"address","internalType":"address"},{"name":"_amountToStake","type":"uint256","internalType":"uint256"}],"outputs":[{"name":"","type":"uint256","internalType":"uint256"}],"stateMutability":"nonpayable"},{"type":"function","name":"init","inputs":[{"name":"_allo","type":"address","internalType":"address"},{"name":"_collateralVaultTemplate","type":"address","internalType":"address"},{"name":"owner","type":"address","internalType":"address"}],"outputs":[],"stateMutability":"nonpayable"},{"type":"function","name":"init","inputs":[{"name":"_allo","type":"address","internalType":"address"},{"name":"_name","type":"string","internalType":"string"},{"name":"owner","type":"address","internalType":"address"}],"outputs":[],"stateMutability":"nonpayable"},{"type":"function","name":"initialize","inputs":[{"name":"initialOwner","type":"address","internalType":"address"}],"outputs":[],"stateMutability":"nonpayable"},{"type":"function","name":"initialize","inputs":[{"name":"_poolId","type":"uint256","internalType":"uint256"},{"name":"_data","type":"bytes","internalType":"bytes"}],"outputs":[],"stateMutability":"nonpayable"},{"type":"function","name":"isPoolActive","inputs":[],"outputs":[{"name":"","type":"bool","internalType":"bool"}],"stateMutability":"view"},{"type":"function","name":"isValidAllocator","inputs":[{"name":"_allocator","type":"address","internalType":"address"}],"outputs":[{"name":"","type":"bool","internalType":"bool"}],"stateMutability":"view"},{"type":"function","name":"owner","inputs":[],"outputs":[{"name":"","type":"address","internalType":"address"}],"stateMutability":"view"},{"type":"function","name":"pointConfig","inputs":[],"outputs":[{"name":"maxAmount","type":"uint256","internalType":"uint256"}],"stateMutability":"view"},{"type":"function","name":"pointSystem","inputs":[],"outputs":[{"name":"","type":"uint8","internalType":"enum PointSystem"}],"stateMutability":"view"},{"type":"function","name":"proposalCounter","inputs":[],"outputs":[{"name":"","type":"uint256","internalType":"uint256"}],"stateMutability":"view"},{"type":"function","name":"proposalType","inputs":[],"outputs":[{"name":"","type":"uint8","internalType":"enum ProposalType"}],"stateMutability":"view"},{"type":"function","name":"proposals","inputs":[{"name":"","type":"uint256","internalType":"uint256"}],"outputs":[{"name":"proposalId","type":"uint256","internalType":"uint256"},{"name":"requestedAmount","type":"uint256","internalType":"uint256"},{"name":"stakedAmount","type":"uint256","internalType":"uint256"},{"name":"convictionLast","type":"uint256","internalType":"uint256"},{"name":"beneficiary","type":"address","internalType":"address"},{"name":"submitter","type":"address","internalType":"address"},{"name":"requestedToken","type":"address","internalType":"address"},{"name":"blockLast","type":"uint256","internalType":"uint256"},{"name":"proposalStatus","type":"uint8","internalType":"enum ProposalStatus"},{"name":"metadata","type":"tuple","internalType":"struct Metadata","components":[{"name":"protocol","type":"uint256","internalType":"uint256"},{"name":"pointer","type":"string","internalType":"string"}]},{"name":"disputeInfo","type":"tuple","internalType":"struct ProposalDisputeInfo","components":[{"name":"disputeId","type":"uint256","internalType":"uint256"},{"name":"disputeTimestamp","type":"uint256","internalType":"uint256"},{"name":"challenger","type":"address","internalType":"address"}]},{"name":"lastDisputeCompletion","type":"uint256","internalType":"uint256"},{"name":"arbitrableConfigVersion","type":"uint256","internalType":"uint256"}],"stateMutability":"view"},{"type":"function","name":"proxiableUUID","inputs":[],"outputs":[{"name":"","type":"bytes32","internalType":"bytes32"}],"stateMutability":"view"},{"type":"function","name":"proxyOwner","inputs":[],"outputs":[{"name":"","type":"address","internalType":"address"}],"stateMutability":"view"},{"type":"function","name":"registerRecipient","inputs":[{"name":"_data","type":"bytes","internalType":"bytes"},{"name":"_sender","type":"address","internalType":"address"}],"outputs":[{"name":"recipientId","type":"address","internalType":"address"}],"stateMutability":"payable"},{"type":"function","name":"registryCommunity","inputs":[],"outputs":[{"name":"","type":"address","internalType":"contract RegistryCommunityV0_0"}],"stateMutability":"view"},{"type":"function","name":"removeFromAllowList","inputs":[{"name":"members","type":"address[]","internalType":"address[]"}],"outputs":[],"stateMutability":"nonpayable"},{"type":"function","name":"renounceOwnership","inputs":[],"outputs":[],"stateMutability":"nonpayable"},{"type":"function","name":"rule","inputs":[{"name":"_disputeID","type":"uint256","internalType":"uint256"},{"name":"_ruling","type":"uint256","internalType":"uint256"}],"outputs":[],"stateMutability":"nonpayable"},{"type":"function","name":"setCollateralVaultTemplate","inputs":[{"name":"template","type":"address","internalType":"address"}],"outputs":[],"stateMutability":"nonpayable"},{"type":"function","name":"setPoolActive","inputs":[{"name":"_active","type":"bool","internalType":"bool"}],"outputs":[],"stateMutability":"nonpayable"},{"type":"function","name":"setPoolParams","inputs":[{"name":"_arbitrableConfig","type":"tuple","internalType":"struct ArbitrableConfig","components":[{"name":"arbitrator","type":"address","internalType":"contract IArbitrator"},{"name":"tribunalSafe","type":"address","internalType":"address"},{"name":"submitterCollateralAmount","type":"uint256","internalType":"uint256"},{"name":"challengerCollateralAmount","type":"uint256","internalType":"uint256"},{"name":"defaultRuling","type":"uint256","internalType":"uint256"},{"name":"defaultRulingTimeout","type":"uint256","internalType":"uint256"}]},{"name":"_cvParams","type":"tuple","internalType":"struct CVParams","components":[{"name":"maxRatio","type":"uint256","internalType":"uint256"},{"name":"weight","type":"uint256","internalType":"uint256"},{"name":"decay","type":"uint256","internalType":"uint256"},{"name":"minThresholdPoints","type":"uint256","internalType":"uint256"}]}],"outputs":[],"stateMutability":"nonpayable"},{"type":"function","name":"setPoolParams","inputs":[{"name":"_arbitrableConfig","type":"tuple","internalType":"struct ArbitrableConfig","components":[{"name":"arbitrator","type":"address","internalType":"contract IArbitrator"},{"name":"tribunalSafe","type":"address","internalType":"address"},{"name":"submitterCollateralAmount","type":"uint256","internalType":"uint256"},{"name":"challengerCollateralAmount","type":"uint256","internalType":"uint256"},{"name":"defaultRuling","type":"uint256","internalType":"uint256"},{"name":"defaultRulingTimeout","type":"uint256","internalType":"uint256"}]},{"name":"_cvParams","type":"tuple","internalType":"struct CVParams","components":[{"name":"maxRatio","type":"uint256","internalType":"uint256"},{"name":"weight","type":"uint256","internalType":"uint256"},{"name":"decay","type":"uint256","internalType":"uint256"},{"name":"minThresholdPoints","type":"uint256","internalType":"uint256"}]},{"name":"membersToAdd","type":"address[]","internalType":"address[]"},{"name":"membersToRemove","type":"address[]","internalType":"address[]"}],"outputs":[],"stateMutability":"nonpayable"},{"type":"function","name":"setPoolParams","inputs":[{"name":"_arbitrableConfig","type":"tuple","internalType":"struct ArbitrableConfig","components":[{"name":"arbitrator","type":"address","internalType":"contract IArbitrator"},{"name":"tribunalSafe","type":"address","internalType":"address"},{"name":"submitterCollateralAmount","type":"uint256","internalType":"uint256"},{"name":"challengerCollateralAmount","type":"uint256","internalType":"uint256"},{"name":"defaultRuling","type":"uint256","internalType":"uint256"},{"name":"defaultRulingTimeout","type":"uint256","internalType":"uint256"}]},{"name":"_cvParams","type":"tuple","internalType":"struct CVParams","components":[{"name":"maxRatio","type":"uint256","internalType":"uint256"},{"name":"weight","type":"uint256","internalType":"uint256"},{"name":"decay","type":"uint256","internalType":"uint256"},{"name":"minThresholdPoints","type":"uint256","internalType":"uint256"}]},{"name":"sybilScoreThreshold","type":"uint256","internalType":"uint256"}],"outputs":[],"stateMutability":"nonpayable"},{"type":"function","name":"setSybilScorer","inputs":[{"name":"_sybilScorer","type":"address","internalType":"address"},{"name":"threshold","type":"uint256","internalType":"uint256"}],"outputs":[],"stateMutability":"nonpayable"},{"type":"function","name":"supportsInterface","inputs":[{"name":"interfaceId","type":"bytes4","internalType":"bytes4"}],"outputs":[{"name":"","type":"bool","internalType":"bool"}],"stateMutability":"view"},{"type":"function","name":"sybilScorer","inputs":[],"outputs":[{"name":"","type":"address","internalType":"contract ISybilScorer"}],"stateMutability":"view"},{"type":"function","name":"totalEffectiveActivePoints","inputs":[],"outputs":[{"name":"","type":"uint256","internalType":"uint256"}],"stateMutability":"view"},{"type":"function","name":"totalPointsActivated","inputs":[],"outputs":[{"name":"","type":"uint256","internalType":"uint256"}],"stateMutability":"view"},{"type":"function","name":"totalStaked","inputs":[],"outputs":[{"name":"","type":"uint256","internalType":"uint256"}],"stateMutability":"view"},{"type":"function","name":"totalVoterStakePct","inputs":[{"name":"","type":"address","internalType":"address"}],"outputs":[{"name":"","type":"uint256","internalType":"uint256"}],"stateMutability":"view"},{"type":"function","name":"transferOwnership","inputs":[{"name":"newOwner","type":"address","internalType":"address"}],"outputs":[],"stateMutability":"nonpayable"},{"type":"function","name":"updateProposalConviction","inputs":[{"name":"proposalId","type":"uint256","internalType":"uint256"}],"outputs":[{"name":"conviction","type":"uint256","internalType":"uint256"}],"stateMutability":"nonpayable"},{"type":"function","name":"upgradeTo","inputs":[{"name":"newImplementation","type":"address","internalType":"address"}],"outputs":[],"stateMutability":"nonpayable"},{"type":"function","name":"upgradeToAndCall","inputs":[{"name":"newImplementation","type":"address","internalType":"address"},{"name":"data","type":"bytes","internalType":"bytes"}],"outputs":[],"stateMutability":"payable"},{"type":"function","name":"voterStakedProposals","inputs":[{"name":"","type":"address","internalType":"address"},{"name":"","type":"uint256","internalType":"uint256"}],"outputs":[{"name":"","type":"uint256","internalType":"uint256"}],"stateMutability":"view"},{"type":"event","name":"AdminChanged","inputs":[{"name":"previousAdmin","type":"address","indexed":false,"internalType":"address"},{"name":"newAdmin","type":"address","indexed":false,"internalType":"address"}],"anonymous":false},{"type":"event","name":"Allocated","inputs":[{"name":"recipientId","type":"address","indexed":true,"internalType":"address"},{"name":"amount","type":"uint256","indexed":false,"internalType":"uint256"},{"name":"token","type":"address","indexed":false,"internalType":"address"},{"name":"sender","type":"address","indexed":false,"internalType":"address"}],"anonymous":false},{"type":"event","name":"AllowlistMembersAdded","inputs":[{"name":"poolId","type":"uint256","indexed":false,"internalType":"uint256"},{"name":"members","type":"address[]","indexed":false,"internalType":"address[]"}],"anonymous":false},{"type":"event","name":"AllowlistMembersRemoved","inputs":[{"name":"poolId","type":"uint256","indexed":false,"internalType":"uint256"},{"name":"members","type":"address[]","indexed":false,"internalType":"address[]"}],"anonymous":false},{"type":"event","name":"ArbitrableConfigUpdated","inputs":[{"name":"currentArbitrableConfigVersion","type":"uint256","indexed":false,"internalType":"uint256"},{"name":"arbitrator","type":"address","indexed":false,"internalType":"contract IArbitrator"},{"name":"tribunalSafe","type":"address","indexed":false,"internalType":"address"},{"name":"submitterCollateralAmount","type":"uint256","indexed":false,"internalType":"uint256"},{"name":"challengerCollateralAmount","type":"uint256","indexed":false,"internalType":"uint256"},{"name":"defaultRuling","type":"uint256","indexed":false,"internalType":"uint256"},{"name":"defaultRulingTimeout","type":"uint256","indexed":false,"internalType":"uint256"}],"anonymous":false},{"type":"event","name":"BeaconUpgraded","inputs":[{"name":"beacon","type":"address","indexed":true,"internalType":"address"}],"anonymous":false},{"type":"event","name":"CVParamsUpdated","inputs":[{"name":"cvParams","type":"tuple","indexed":false,"internalType":"struct CVParams","components":[{"name":"maxRatio","type":"uint256","internalType":"uint256"},{"name":"weight","type":"uint256","internalType":"uint256"},{"name":"decay","type":"uint256","internalType":"uint256"},{"name":"minThresholdPoints","type":"uint256","internalType":"uint256"}]}],"anonymous":false},{"type":"event","name":"DisputeRequest","inputs":[{"name":"_arbitrator","type":"address","indexed":true,"internalType":"contract IArbitrator"},{"name":"_arbitrableDisputeID","type":"uint256","indexed":true,"internalType":"uint256"},{"name":"_externalDisputeID","type":"uint256","indexed":false,"internalType":"uint256"},{"name":"_templateId","type":"uint256","indexed":false,"internalType":"uint256"},{"name":"_templateUri","type":"string","indexed":false,"internalType":"string"}],"anonymous":false},{"type":"event","name":"Distributed","inputs":[{"name":"proposalId","type":"uint256","indexed":false,"internalType":"uint256"},{"name":"beneficiary","type":"address","indexed":false,"internalType":"address"},{"name":"amount","type":"uint256","indexed":false,"internalType":"uint256"}],"anonymous":false},{"type":"event","name":"Distributed","inputs":[{"name":"recipientId","type":"address","indexed":true,"internalType":"address"},{"name":"recipientAddress","type":"address","indexed":false,"internalType":"address"},{"name":"amount","type":"uint256","indexed":false,"internalType":"uint256"},{"name":"sender","type":"address","indexed":false,"internalType":"address"}],"anonymous":false},{"type":"event","name":"Initialized","inputs":[{"name":"poolId","type":"uint256","indexed":false,"internalType":"uint256"},{"name":"data","type":"bytes","indexed":false,"internalType":"bytes"}],"anonymous":false},{"type":"event","name":"Initialized","inputs":[{"name":"version","type":"uint8","indexed":false,"internalType":"uint8"}],"anonymous":false},{"type":"event","name":"InitializedCV","inputs":[{"name":"poolId","type":"uint256","indexed":false,"internalType":"uint256"},{"name":"data","type":"tuple","indexed":false,"internalType":"struct CVStrategyInitializeParamsV0_0","components":[{"name":"cvParams","type":"tuple","internalType":"struct CVParams","components":[{"name":"maxRatio","type":"uint256","internalType":"uint256"},{"name":"weight","type":"uint256","internalType":"uint256"},{"name":"decay","type":"uint256","internalType":"uint256"},{"name":"minThresholdPoints","type":"uint256","internalType":"uint256"}]},{"name":"proposalType","type":"uint8","internalType":"enum ProposalType"},{"name":"pointSystem","type":"uint8","internalType":"enum PointSystem"},{"name":"pointConfig","type":"tuple","internalType":"struct PointSystemConfig","components":[{"name":"maxAmount","type":"uint256","internalType":"uint256"}]},{"name":"arbitrableConfig","type":"tuple","internalType":"struct ArbitrableConfig","components":[{"name":"arbitrator","type":"address","internalType":"contract IArbitrator"},{"name":"tribunalSafe","type":"address","internalType":"address"},{"name":"submitterCollateralAmount","type":"uint256","internalType":"uint256"},{"name":"challengerCollateralAmount","type":"uint256","internalType":"uint256"},{"name":"defaultRuling","type":"uint256","internalType":"uint256"},{"name":"defaultRulingTimeout","type":"uint256","internalType":"uint256"}]},{"name":"registryCommunity","type":"address","internalType":"address"},{"name":"sybilScorer","type":"address","internalType":"address"}]}],"anonymous":false},{"type":"event","name":"InitializedCV2","inputs":[{"name":"poolId","type":"uint256","indexed":false,"internalType":"uint256"},{"name":"data","type":"tuple","indexed":false,"internalType":"struct CVStrategyInitializeParamsV0_1","components":[{"name":"cvParams","type":"tuple","internalType":"struct CVParams","components":[{"name":"maxRatio","type":"uint256","internalType":"uint256"},{"name":"weight","type":"uint256","internalType":"uint256"},{"name":"decay","type":"uint256","internalType":"uint256"},{"name":"minThresholdPoints","type":"uint256","internalType":"uint256"}]},{"name":"proposalType","type":"uint8","internalType":"enum ProposalType"},{"name":"pointSystem","type":"uint8","internalType":"enum PointSystem"},{"name":"pointConfig","type":"tuple","internalType":"struct PointSystemConfig","components":[{"name":"maxAmount","type":"uint256","internalType":"uint256"}]},{"name":"arbitrableConfig","type":"tuple","internalType":"struct ArbitrableConfig","components":[{"name":"arbitrator","type":"address","internalType":"contract IArbitrator"},{"name":"tribunalSafe","type":"address","internalType":"address"},{"name":"submitterCollateralAmount","type":"uint256","internalType":"uint256"},{"name":"challengerCollateralAmount","type":"uint256","internalType":"uint256"},{"name":"defaultRuling","type":"uint256","internalType":"uint256"},{"name":"defaultRulingTimeout","type":"uint256","internalType":"uint256"}]},{"name":"registryCommunity","type":"address","internalType":"address"},{"name":"sybilScorer","type":"address","internalType":"address"},{"name":"sybilScorerThreshold","type":"uint256","internalType":"uint256"},{"name":"initialAllowlist","type":"address[]","internalType":"address[]"}]}],"anonymous":false},{"type":"event","name":"OwnershipTransferred","inputs":[{"name":"previousOwner","type":"address","indexed":true,"internalType":"address"},{"name":"newOwner","type":"address","indexed":true,"internalType":"address"}],"anonymous":false},{"type":"event","name":"PointsDeactivated","inputs":[{"name":"member","type":"address","indexed":false,"internalType":"address"}],"anonymous":false},{"type":"event","name":"PoolActive","inputs":[{"name":"active","type":"bool","indexed":false,"internalType":"bool"}],"anonymous":false},{"type":"event","name":"PoolAmountIncreased","inputs":[{"name":"amount","type":"uint256","indexed":false,"internalType":"uint256"}],"anonymous":false},{"type":"event","name":"PowerDecreased","inputs":[{"name":"member","type":"address","indexed":false,"internalType":"address"},{"name":"tokensUnStaked","type":"uint256","indexed":false,"internalType":"uint256"},{"name":"pointsToDecrease","type":"uint256","indexed":false,"internalType":"uint256"}],"anonymous":false},{"type":"event","name":"PowerIncreased","inputs":[{"name":"member","type":"address","indexed":false,"internalType":"address"},{"name":"tokensStaked","type":"uint256","indexed":false,"internalType":"uint256"},{"name":"pointsToIncrease","type":"uint256","indexed":false,"internalType":"uint256"}],"anonymous":false},{"type":"event","name":"ProposalCancelled","inputs":[{"name":"proposalId","type":"uint256","indexed":false,"internalType":"uint256"}],"anonymous":false},{"type":"event","name":"ProposalCreated","inputs":[{"name":"poolId","type":"uint256","indexed":false,"internalType":"uint256"},{"name":"proposalId","type":"uint256","indexed":false,"internalType":"uint256"}],"anonymous":false},{"type":"event","name":"ProposalDisputed","inputs":[{"name":"arbitrator","type":"address","indexed":false,"internalType":"contract IArbitrator"},{"name":"proposalId","type":"uint256","indexed":false,"internalType":"uint256"},{"name":"disputeId","type":"uint256","indexed":false,"internalType":"uint256"},{"name":"challenger","type":"address","indexed":false,"internalType":"address"},{"name":"context","type":"string","indexed":false,"internalType":"string"},{"name":"timestamp","type":"uint256","indexed":false,"internalType":"uint256"}],"anonymous":false},{"type":"event","name":"Registered","inputs":[{"name":"recipientId","type":"address","indexed":true,"internalType":"address"},{"name":"data","type":"bytes","indexed":false,"internalType":"bytes"},{"name":"sender","type":"address","indexed":false,"internalType":"address"}],"anonymous":false},{"type":"event","name":"RegistryUpdated","inputs":[{"name":"registryCommunity","type":"address","indexed":false,"internalType":"address"}],"anonymous":false},{"type":"event","name":"Ruling","inputs":[{"name":"_arbitrator","type":"address","indexed":true,"internalType":"contract IArbitrator"},{"name":"_disputeID","type":"uint256","indexed":true,"internalType":"uint256"},{"name":"_ruling","type":"uint256","indexed":false,"internalType":"uint256"}],"anonymous":false},{"type":"event","name":"SupportAdded","inputs":[{"name":"from","type":"address","indexed":false,"internalType":"address"},{"name":"proposalId","type":"uint256","indexed":false,"internalType":"uint256"},{"name":"amount","type":"uint256","indexed":false,"internalType":"uint256"},{"name":"totalStakedAmount","type":"uint256","indexed":false,"internalType":"uint256"},{"name":"convictionLast","type":"uint256","indexed":false,"internalType":"uint256"}],"anonymous":false},{"type":"event","name":"SybilScorerUpdated","inputs":[{"name":"sybilScorer","type":"address","indexed":false,"internalType":"address"}],"anonymous":false},{"type":"event","name":"TribunaSafeRegistered","inputs":[{"name":"strategy","type":"address","indexed":false,"internalType":"address"},{"name":"arbitrator","type":"address","indexed":false,"internalType":"address"},{"name":"tribunalSafe","type":"address","indexed":false,"internalType":"address"}],"anonymous":false},{"type":"event","name":"Upgraded","inputs":[{"name":"implementation","type":"address","indexed":true,"internalType":"address"}],"anonymous":false},{"type":"error","name":"ALLOCATION_ACTIVE","inputs":[]},{"type":"error","name":"ALLOCATION_NOT_ACTIVE","inputs":[]},{"type":"error","name":"ALLOCATION_NOT_ENDED","inputs":[]},{"type":"error","name":"ALREADY_INITIALIZED","inputs":[]},{"type":"error","name":"AMOUNT_MISMATCH","inputs":[]},{"type":"error","name":"ANCHOR_ERROR","inputs":[]},{"type":"error","name":"ARRAY_MISMATCH","inputs":[]},{"type":"error","name":"AShouldBeUnderOrEqTwo_128","inputs":[]},{"type":"error","name":"AShouldBeUnderTwo_128","inputs":[]},{"type":"error","name":"AddressCannotBeZero","inputs":[]},{"type":"error","name":"AmountOverMaxRatio","inputs":[]},{"type":"error","name":"BShouldBeLessTwo_128","inputs":[]},{"type":"error","name":"CallerNotOwner","inputs":[{"name":"_caller","type":"address","internalType":"address"},{"name":"_owner","type":"address","internalType":"address"}]},{"type":"error","name":"ConvictionUnderMinimumThreshold","inputs":[]},{"type":"error","name":"DefaultRulingNotSet","inputs":[]},{"type":"error","name":"DisputeCooldownNotPassed","inputs":[{"name":"_proposalId","type":"uint256","internalType":"uint256"},{"name":"_remainingSec","type":"uint256","internalType":"uint256"}]},{"type":"error","name":"INVALID","inputs":[]},{"type":"error","name":"INVALID_ADDRESS","inputs":[]},{"type":"error","name":"INVALID_FEE","inputs":[]},{"type":"error","name":"INVALID_METADATA","inputs":[]},{"type":"error","name":"INVALID_REGISTRATION","inputs":[]},{"type":"error","name":"IS_APPROVED_STRATEGY","inputs":[]},{"type":"error","name":"InsufficientCollateral","inputs":[{"name":"sentAmount","type":"uint256","internalType":"uint256"},{"name":"requiredAmount","type":"uint256","internalType":"uint256"}]},{"type":"error","name":"MISMATCH","inputs":[]},{"type":"error","name":"NONCE_NOT_AVAILABLE","inputs":[]},{"type":"error","name":"NOT_APPROVED_STRATEGY","inputs":[]},{"type":"error","name":"NOT_ENOUGH_FUNDS","inputs":[]},{"type":"error","name":"NOT_IMPLEMENTED","inputs":[]},{"type":"error","name":"NOT_INITIALIZED","inputs":[]},{"type":"error","name":"NOT_PENDING_OWNER","inputs":[]},{"type":"error","name":"NotEnoughPointsToSupport","inputs":[{"name":"pointsSupport","type":"uint256","internalType":"uint256"},{"name":"pointsBalance","type":"uint256","internalType":"uint256"}]},{"type":"error","name":"NotImplemented","inputs":[]},{"type":"error","name":"OnlyArbitrator","inputs":[]},{"type":"error","name":"OnlyCommunityAllowed","inputs":[]},{"type":"error","name":"OnlyCouncilSafe","inputs":[]},{"type":"error","name":"OnlySubmitter","inputs":[{"name":"submitter","type":"address","internalType":"address"},{"name":"sender","type":"address","internalType":"address"}]},{"type":"error","name":"POOL_ACTIVE","inputs":[]},{"type":"error","name":"POOL_INACTIVE","inputs":[]},{"type":"error","name":"PoolAmountNotEnough","inputs":[{"name":"_proposalId","type":"uint256","internalType":"uint256"},{"name":"_requestedAmount","type":"uint256","internalType":"uint256"},{"name":"_poolAmount","type":"uint256","internalType":"uint256"}]},{"type":"error","name":"PoolIsEmpty","inputs":[]},{"type":"error","name":"ProposalInvalidForAllocation","inputs":[{"name":"_proposalId","type":"uint256","internalType":"uint256"},{"name":"_proposalStatus","type":"uint8","internalType":"enum ProposalStatus"}]},{"type":"error","name":"ProposalNotActive","inputs":[{"name":"_proposalId","type":"uint256","internalType":"uint256"}]},{"type":"error","name":"ProposalNotDisputed","inputs":[{"name":"_proposalId","type":"uint256","internalType":"uint256"}]},{"type":"error","name":"ProposalNotInList","inputs":[{"name":"_proposalId","type":"uint256","internalType":"uint256"}]},{"type":"error","name":"ProposalSupportDuplicated","inputs":[{"name":"_proposalId","type":"uint256","internalType":"uint256"},{"name":"index","type":"uint256","internalType":"uint256"}]},{"type":"error","name":"RECIPIENT_ALREADY_ACCEPTED","inputs":[]},{"type":"error","name":"RECIPIENT_ERROR","inputs":[{"name":"recipientId","type":"address","internalType":"address"}]},{"type":"error","name":"RECIPIENT_NOT_ACCEPTED","inputs":[]},{"type":"error","name":"REGISTRATION_NOT_ACTIVE","inputs":[]},{"type":"error","name":"SupportUnderflow","inputs":[{"name":"_support","type":"uint256","internalType":"uint256"},{"name":"_delta","type":"int256","internalType":"int256"},{"name":"_result","type":"int256","internalType":"int256"}]},{"type":"error","name":"TokenNotAllowed","inputs":[]},{"type":"error","name":"UNAUTHORIZED","inputs":[]},{"type":"error","name":"UserCannotExecuteAction","inputs":[]},{"type":"error","name":"UserIsInactive","inputs":[]},{"type":"error","name":"UserNotInRegistry","inputs":[]},{"type":"error","name":"ZERO_ADDRESS","inputs":[]}],"bytecode":{"object":"0x60a0806040523461003257306080526160f990816200003882396080518181816125e8015281816126d20152612abf0152f35b600080fdfe60806040526004361015610018575b361561001657005b005b6000803560e01c8063013cf08b1461409957806301ffc9a714614042578063025313a214614019578063059351cd14613fc2578063062f9ece14613fa35780630a6f0ee914613c265780630ba9590914611d435780630bece79c14613bfd5780630c0512e914613bdf5780630f529ba214613bc1578063125fd1d914613ba357806315cc481e14613b7a578063184b9559146139cb5780631aa91a9e146139ac5780631ddf1e23146139925780632506b8701461395b578063255ffb38146139315780632bbe0cae146134a25780632dbd6fdd146116a75780632ed04b2b14613230578063311a6c5614612c985780633396045914612c7a578063346db8cb14612c55578063351d9f9614612c2f5780633659cfe614612a9a5780633864d36614612a1857806338fff2d0146129fa578063406244d8146129de57806341bb76051461298657806342fda9c7146129685780634ab4ba421461294a5780634d31d087146113655780634f1ef2861461269457806352d1902d146125d557806359a5db8b146125b65780635db64b99146116d25780636003e4141461258d57806360d5dedc146124d2578063626c47e8146124b65780636453d9c41461248c578063715018a6146124405780637263cfe2146123ff578063782aadff14612059578063814516ad14611f61578063817b1cd214611f43578063824ea8ed14611ed6578063868c57b814611e805780638da5cb5b14611e53578063948e7a5914611de0578063950559d714611db9578063a0cf0aea14611d8a578063a28889e114611d61578063a47ff7e514611d43578063a51312c814611d02578063a574cea414611cac578063aba9ffee1461157c578063ad56fd5d14611c12578063b0d3713a14611bcd578063b2b878d014611b0a578063b41596ec14611790578063b5f620ce14611734578063b6c61f311461170b578063bcc5b93b146116d2578063c3292171146116a7578063c4d66de814611675578063c7f758a81461159a578063d1e362321461157c578063dc96ff2d1461154f578063df868ed31461152c578063e0a8f6f5146113d5578063e0dd2c381461138b578063eb11af9314611365578063edd146cc14610d3d578063ef2920fc146104cf578063f2fde38b1461043e578063f5b0dfb7146103e5578063f5be3f7c146103c85763ffa1ad741461037e575061000e565b346103c557806003193601126103c5576103c160405161039d8161426c565b60038152620302e360ec1b602082015260405191829160208352602083019061440b565b0390f35b80fd5b50346103c557806003193601126103c5576020604051611c208152f35b50346103c55760203660031901126103c5577f46aeb5d8770fc4474bc2dfa118fd2595f7fb33ce2cbce6f4e5a3dabfe0f7633960206004356104256149d4565b610431816069546149b1565b606955604051908152a180f35b50346103c55760203660031901126103c557610458614499565b6104606146f4565b6001600160a01b0381161561047b5761047890614753565b80f35b60405162461bcd60e51b815260206004820152602660248201527f4f776e61626c653a206e6577206f776e657220697320746865207a65726f206160448201526564647265737360d01b6064820152608490fd5b506104d936614654565b6104e49291926149d4565b6104ec6149fa565b8251916020916105038380870195870101856151d5565b93825b85518110156105ed576105198187615273565b5151856105268389615273565b510151818652607b8752856040812091138061057f575b61055157505061054c90614a16565b610506565b9060ff6008604493015416604051916394d57ead60e01b83526004830152610578816143c8565b6024820152fd5b5060ff600882015416610591816143c8565b80159081156105d8575b81156105c3575b81156105af575b5061053d565b600691506105bc816143c8565b14386105a9565b90506105ce816143c8565b60048114906105a2565b90506105e3816143c8565b600381149061059b565b5083610609849282896105ff87614bdc565b80510101906151d5565b61061284614c87565b15610d0a575b60785460405163011de97360e61b81526001600160a01b03949185169190848180610647308b60048401614c6d565b0381865afa908115610c80578291610cdd575b5015610ccb5780959194959161066f81614c87565b96829715935b8551891015610726578480610710575b6106fe576106938987615273565b5151156106f4576106a48987615273565b51516106af816152a8565b156106dc57506106d06106d691886106c78c8a615273565b51015190615300565b98614a16565b97610675565b6024906040519063c1d17bef60e01b82526004820152fd5b976106d690614a16565b604051630b72d6b160e31b8152600490fd5b50838761071d8b89615273565b51015113610685565b95935090919581831695868852607c85526107458160408a205461531c565b938860405193637817ee4f60e01b94858152888180610768308860048401614c6d565b0381855afa908115610cc0578391610c8f575b508711610b08575b508890525050607c8452505060408520559091839160609182915b8551851015610b04576107b18587615273565b5151928051156000146109fc57506040516107cb8161426c565b60018152818101823682378151156109e6578490525b816107ec8789615273565b51015194848952607b83526040892091600983019085600052818552610818604060002054988961531c565b91866000528552816040600020558a809a81928654935b898452607d89526040842080548210156109d45761084e8287926146af565b90549060031b1c1461086c57610865604091614a16565b905061082f565b50989392915099959894939a5060015b1561096d575b506108e394939291908084116109345761089c8482614df9565b6108a960709182546149b1565b90556108b58482614df9565b6108c4600285019182546149b1565b90555b60078301928354156000146108eb575050509050439055614a16565b93949261079e565b60a093506109086000805160206160048339815191529582615584565b50506003600282015491015491604051938985528b85015260408401528b8301526080820152a1614a16565b61093e8185614df9565b61094b6070918254614df9565b90556109578185614df9565b61096660028501918254614df9565b90556108c7565b868c52607d895260408c20805490600160401b8210156109c057816109a09160016108e39a9998979695940181556146af565b819291549060031b91821b91600019901b19161790559091929394610882565b634e487b7160e01b8e52604160045260248efd5b5050989392915099959894939a61087c565b634e487b7160e01b600052603260045260246000fd5b939195969294908396845b8651811015610a4d5787610a1b8289615273565b5114610a2f57610a2a90614a16565b610a07565b8760449160405191632b7aec5560e21b835260048301526024820152fd5b5092949091959397966107e1578051906001808301809311610af057610a7283614562565b92610a8060405194856142d8565b808452610a8f601f1991614562565b01368585013789815b610ab1575b5050610aab85915183615273565b526107e1565b829994979951811015610ae75780610acc610add9285615273565b51610ad78287615273565b52614a16565b8199979499610a98565b98969398610a9d565b634e487b7160e01b8a52601160045260248afd5b8680f35b80919293949596503b15610c8b578160405180926322bcf99960e01b8252818381610b37308a60048401614c6d565b03925af18015610c8057610c6c575b5050836078541691823b15610c685788806040518095630d4a8b4960e01b8252818381610b77308a60048401614c6d565b03925af1938415610c5b578794610c3e575b50610bbf949189610ba39252607c855260408b205461531c565b9460785416906040518095819482938352309060048401614c6d565b03915afa908115610c33578691610c01575b50808211610be3578080808881610783565b6044925060405191636b20c17f60e11b835260048301526024820152fd5b90508281813d8311610c2c575b610c1881836142d8565b81010312610c27575186610bd1565b600080fd5b503d610c0e565b6040513d88823e3d90fd5b610c4a9192945061423e565b610c57578491888a610b89565b8780fd5b50604051903d90823e3d90fd5b8880fd5b610c759061423e565b610c57578789610b46565b6040513d84823e3d90fd5b5080fd5b809350898092503d8311610cb9575b610ca881836142d8565b81010312610c27578a91518c61077b565b503d610c9e565b6040513d85823e3d90fd5b604051635fccb67f60e01b8152600490fd5b610cfd9150853d8711610d03575b610cf581836142d8565b810190614bc4565b8761065a565b503d610ceb565b825b8151811015610d37578383610d218385615273565b510151136106fe57610d3290614a16565b610d0c565b50610618565b50346103c55760403660031901126103c5576024356001600160401b038111610c8b57610d6e903690600401614639565b610d766149d4565b610d7e6149d4565b606854611353576004351561134157600435606855606a546e5af43d82803e903d91602b57fd5bf3606c54610db281614a16565b606c5560405160208101913360601b8352603482015260348152610dd5816142bd565b519020608883901c62ffffff16763d602d80600a3d3981f3363d3d373d3d3d363d7300000017855260789290921b6001600160781b031916176020526001600160a01b03906037600985f516801561130257607980546001600160a01b031981168317909155839190821617803b15610c8b5781809160046040518094819363204a7f0760e21b83525af18015610c80576112ee575b505080518101906020818303126112ea576020810151906001600160401b0382116112e6576102208282018403126112e6576040519261012084016001600160401b038111858210176112d0578060405260808484018303126112c457610ed181614287565b8284016020810151825260408101516101408701526060810151610160870152608081015161018087015290855260a0015160038110156112c457602085015260c0838301015160048110156112c45760408501526020828401820360bf1901126112cc576040516001600160401b0360208201908111908211176112d0576020810160405260e084840101518152606085015260c060df19848401830301126112cc57604051610f8181614251565b82840161010001516001600160a01b03811681036112c8578152610faa61012085850101614a25565b6020820152828401610140810151604083015261016081015160608301526101808101516080808401919091526101a082015160a0840152860191909152610ff5906101c001614a25565b60a08501526110096101e084840101614a25565b60c085015281830161020081015160e08601526102200151926001600160401b0384116112c45760208201603f85838601010112156112c4576020848285010101519261105584614562565b9461106360405196876142d8565b8486526020808701940160408660051b8386860101010111610c5757818301810160400193925b60408660051b8383860101010185106112a85788888861010082015260018060a01b0360a08201511660018060a01b031960785416176078556020810151600381101561129457607654604083015160048110156112805761ff0060ff9160081b1692169061ffff1916171760765560608101515160775560018060a01b0360c08201511660018060a01b0319607a541617607a557fb6a062fc5f19aa17637bf61ab001ce3e5ceb67a5bd51d9753281e41df94f3fd360405160043581526040602082015261115d604082018451614a39565b61116f602084015160c08301906146a2565b611181604084015160e0830190614695565b60608301515161010082015260a06080840151600180831b03815116610120840152600180831b036020820151166101408401526040810151610160840152606081015161018084015260808101516101a084015201516101c082015260018060a01b0360a0840151166101e082015260018060a01b0360c08401511661020082015260e08301516102208201528061122d610100850151610220610240840152610260830190614a5c565b0390a161125f6080820151825160405190611247826142a2565b85825260405192611257846142a2565b8684526159bf565b607a546001600160a01b0316611273575080f35b60e0610478910151615e49565b634e487b7160e01b85526021600452602485fd5b634e487b7160e01b83526021600452602483fd5b6020806040956112b788614a25565b815201950194935061108a565b8580fd5b8680fd5b8480fd5b634e487b7160e01b600052604160045260246000fd5b8380fd5b8280fd5b6112f79061423e565b610c8b578138610e6b565b60405162461bcd60e51b8152602060048201526017602482015276115490cc4c4d8dce8818dc99585d194c8819985a5b1959604a1b6044820152606490fd5b604051637fcce2a960e01b8152600490fd5b60405163439a74c960e01b8152600490fd5b50346103c55760203660031901126103c557602090611382614499565b50604051908152f35b50346103c55760403660031901126103c557600960406113a96144af565b926004358152607b60205220019060018060a01b03166000526020526020604060002054604051908152f35b50346103c557602080600319360112610c8b5760043590818352607b8152600160ff600860408620015416611409816143c8565b0361151357818352607b815260408320600501546001600160a01b039081163381036114f057508084916079541690848352607b8452601060408420916005830154169101548352607f84526002604084200154823b156112e6576114889284928360405180968195829463099ea56b60e41b84528c60048501615287565b03925af18015610c80576114dc575b50829052607b81526040808420600801805460ff19166003179055519182527f416e669c63d9a3a5e36ee7cc7e2104b8db28ccd286aa18966e98fa230c73b08c91a180f35b6114e59061423e565b6112ea578238611497565b604051634544dc9160e11b815290819061150f90339060048401614c6d565b0390fd5b6040516344980d8f60e01b815260048101839052602490fd5b50346103c557806003193601126103c557602060ff606754166040519015158152f35b50346103c55760203660031901126103c557600260406020926004358152607b8452200154604051908152f35b50346103c557806003193601126103c5576020607154604051908152f35b50346103c55760203660031901126103c557610160906004358152607b60205260408120600181015491821560001461166557905b60018060a01b03918260058301541693836004840154169360068401541690600284015460ff6008860154169060078601549260038701549433600052600988016020526010604060002054980154986040519a8b5260208b015260408a015260608901526080880152611642816143c8565b60a087015260c086015260e0850152610100840152610120830152610140820152f35b5061166f82615433565b906115cf565b50346103c55760203660031901126103c557610478611692614499565b6116a260ff845460081c16614951565b614753565b50346103c557806003193601126103c557602060ff60765460081c166116d06040518092614695565bf35b50346103c55760203660031901126103c5576020906040906001600160a01b036116fa614499565b168152607c83522054604051908152f35b50346103c557806003193601126103c557607a546040516001600160a01b039091168152602090f35b50346103c55760203660031901126103c557600435801515809103610c8b5760207fd94c9bc4d43c51d8dc345a016d8e3d994432fac68e72832e4cf3a616bd8efae09160ff196067541660ff821617606755604051908152a180f35b5060603660031901126103c5576001600160401b0390602435828111610c8b576117be9036906004016146c7565b6044929192358481116112ea576117d99036906004016146c7565b9390946117e533614bdc565b60043594858552607b602052604085209460108601548152607f60205260408120926040519261181484614251565b60018060a01b03948581541685528560018201541660208601526002810154604086015260056003820154916060870192835260048101546080880152015460a086015289895403611af1576008890191600160ff845416611875816143c8565b03611ad8578151803410611aba5750600f8a015480151580611a92575b611a5c57506118a2825134614df9565b918760795416905190803b156112c8576118d687918e60405194858094819363240ff7c560e11b8352339060048401614bab565b03925af18015610c3357611a48575b509a60209161191f9b9c8888511691604051809e8195829463c13517e160e01b8452600360048501526040602485015260448401916159f4565b03925af1988915610cc0578399611a14575b50805460ff19166005179055600c870188905542600d8801908155600e90970180546001600160a01b03191633179055878252607e60205260408220899055606d549181831690818314611a005750927f034f6a48076db1bcaaa311ccdc43d473aff44d3918a76fe0fae27c8b3665016d97959260209a97959260016119ef9601169060018060401b03191617606d55511693549260405195869586528986015287604086015233606086015260c0608086015260c08501916159f4565b9060a08301520390a1604051908152f35b634e487b7160e01b81526011600452602490fd5b9098506020813d602011611a40575b81611a30602093836142d8565b81010312610c2757519738611931565b3d9150611a23565b611a52869161423e565b6112cc57386118e5565b8b86611c208301809311611a005750611a786044924290614df9565b60405191638d2f6c3160e01b835260048301526024820152fd5b50611c208101808211611aa6574210611892565b634e487b7160e01b87526011600452602487fd5b60449060405190632c1f8ef160e21b82523460048301526024820152fd5b6040516344980d8f60e01b8152600481018c9052602490fd5b60405163c1d17bef60e01b8152600481018b9052602490fd5b50346103c55760403660031901126103c5576001600160401b0390600435828111610c8b57611b3d903690600401614579565b50602480358381116112ea57366023820112156112ea57806004013591611b6383614562565b94611b7160405196876142d8565b8386528160208097019460051b840101943686116103c557828401945b868610611ba75760405163d623472560e01b8152600490fd5b85358381116112ea578891611bc283928736918a0101614639565b815201950194611b8e565b50346103c55760203660031901126103c557611be7614499565b611bef6146f4565b606a80546001600160a01b0319166001600160a01b039290921691909117905580f35b50346103c5576101603660031901126103c557611c48611c31366144c5565b611c3a36614528565b90611c43615610565b615680565b607a5481906001600160a01b031680611c5e5750f35b803b15611ca95781809160446040518094819363642ce76b60e01b83523060048401526101443560248401525af18015610c8057611c995750f35b611ca29061423e565b6103c55780f35b50fd5b50346103c55760203660031901126103c557611cee600a60406103c193606060208351611cd88161426c565b83815201526004358152607b60205220016142fb565b604051918291602083526020830190614430565b50346103c55760203660031901126103c5576004356001600160401b038111610c8b57611d36610478913690600401614579565b611d3e615610565b615c9c565b50346103c557806003193601126103c5576020607754604051908152f35b50346103c557806003193601126103c557606d546040516001600160401b039091168152602090f35b50346103c557806003193601126103c557602060405173eeeeeeeeeeeeeeeeeeeeeeeeeeeeeeeeeeeeeeee8152f35b50346103c55760203660031901126103c5576020611dd8600435615995565b604051908152f35b50346103c5576101803660031901126103c557611dfc366144c5565b611e0536614528565b6001600160401b039190610144358381116112cc57611e28903690600401614579565b90610164359384116112cc57611e45610478943690600401614579565b92611e4e615610565b6159bf565b50346103c557806003193601126103c5576020611e6e615eeb565b6040516001600160a01b039091168152f35b50346103c55760403660031901126103c557611e9a614499565b6001600160a01b03168152607d60205260408120805460243592908310156103c5576020611ec884846146af565b90546040519160031b1c8152f35b50346103c55760203660031901126103c55760406020916004358152607b835220611f056002820154826155bd565b81929192159081611f3a575b50611f2e575b6001611f24910154615433565b1115604051908152f35b60038101549150611f17565b90501538611f11565b50346103c557806003193601126103c5576020607054604051908152f35b50346103c557806003193601126103c557611f7b33614c87565b156106fe576078546001600160a01b039082908216803b15610c8b57816040518092630d4a8b4960e01b8252818381611fb8303360048401614c6d565b03925af18015610c8057612045575b50506078541660206040518092637817ee4f60e01b82528180611fee303360048401614c6d565b03915afa8015610c80578290612012575b61200c91506071546149b1565b60715580f35b506020813d821161203d575b8161202b602093836142d8565b81010312610c275761200c9051611fff565b3d915061201e565b61204e9061423e565b610c8b578138611fc7565b50346103c55760403660031901126103c557612073614499565b60243561207e614dd3565b61208782614c87565b156106fe578260ff60765460081c166004811015611280576002810361217157505080915b60785460405163011de97360e61b81529060209082906001600160a01b031681806120db308860048401614c6d565b03915afa90811561216657907f0b9150e1e54346ed3fa36b977cd5d65dca5a649c737c3174a26bddaadd47667a93929160209691612149575b50612135575b61212a8460405193849384614ffb565b0390a1604051908152f35b612141846071546149b1565b60715561211a565b6121609150863d8111610d0357610cf581836142d8565b38612114565b6040513d87823e3d90fd5b6001810361221d575050607854604051637817ee4f60e01b8152829160209082906001600160a01b031681806121ab308a60048401614c6d565b03915afa9081156121665785916121ec575b506121c883826149b1565b6077548091116121db575b5050916120ac565b6121e59250614df9565b38806121d3565b90506020813d8211612215575b81612206602093836142d8565b81010312610c275751386121bd565b3d91506121f9565b909290600219016120ac576078546040516316308e2560e11b81526001600160a01b038084166004830152929450908216916020918281602481875afa80156123f457859088906123c3575b61227392506149b1565b6040516336d8759760e21b81529060128483600481895afa9081156123b8576122dc94866122d1936122d7968d9161238b575b5060046040518094819363313ce56760e01b8352165afa8b918161235c575b50612351575b50615051565b9061505f565b615092565b816040518094637817ee4f60e01b825281806122fc308b60048401614c6d565b03915afa918215610c3357869261231f575b506123199250614df9565b916120ac565b90915082813d831161234a575b61233681836142d8565b81010312610c27576123199151903861230e565b503d61232c565b60ff915016386122cb565b61237d919250883d8a11612384575b61237581836142d8565b810190615038565b90386122c5565b503d61236b565b6123ab9150823d84116123b1575b6123a381836142d8565b810190615019565b386122a6565b503d612399565b6040513d8b823e3d90fd5b50508281813d83116123ed575b6123da81836142d8565b81010312610c2757846122739151612269565b503d6123d0565b6040513d89823e3d90fd5b50346103c55760203660031901126103c5576004356001600160401b038111610c8b57612433610478913690600401614579565b61243b615610565b615a3d565b50346103c557806003193601126103c5576124596146f4565b603380546001600160a01b031981169091556000906001600160a01b03166000805160206160248339815191528280a380f35b50346103c55760203660031901126103c5576104786124a9614499565b6124b1614dd3565b614e06565b50346103c557806003193601126103c557602060405160038152f35b50346103c55760603660031901126103c5576124ec614499565b6024356001600160401b0381116112ea57366023820112156112ea5761251c903690602481600401359101614602565b90612541612528614483565b6116a260ff865460081c1661253c81614951565b614951565b60018060a01b031660018060a01b0319606554161760655560405161258481612576602082019460208652604083019061440b565b03601f1981018352826142d8565b51902060665580f35b50346103c557806003193601126103c5576078546040516001600160a01b039091168152602090f35b50346103c55760203660031901126103c5576020611dd8600435615433565b50346103c557806003193601126103c5577f00000000000000000000000000000000000000000000000000000000000000006001600160a01b0316300361262e576020604051600080516020615fe48339815191528152f35b60405162461bcd60e51b815260206004820152603860248201527f555550535570677261646561626c653a206d757374206e6f742062652063616c6044820152771b1959081d1a1c9bdd59da0819195b1959d85d1958d85b1b60421b6064820152608490fd5b5060403660031901126103c5576126a9614499565b6024356001600160401b0381116112ea576126c8903690600401614639565b6001600160a01b037f000000000000000000000000000000000000000000000000000000000000000081169291906127023085141561478a565b61271f600080516020615fe48339815191529482865416146147d9565b612727615eeb565b813391160361292557600080516020615f848339815191525460ff16156127545750506104789150614828565b8216604051936352d1902d60e01b85526020948581600481865afa600091816128f6575b506127c75760405162461bcd60e51b815260048101879052602e602482015260008051602061608483398151915260448201526d6f6e206973206e6f74205555505360901b6064820152608490fd5b949293940361289f576127d984614828565b600080516020616044833981519152600080a2815115801590612897575b612802575b50505080f35b6128859260008060405194612816866142bd565b602786527f416464726573733a206c6f772d6c6576656c2064656c65676174652063616c6c85870152660819985a5b195960ca1b60408701528481519101845af4903d1561288e573d612868816145e7565b9061287660405192836142d8565b8152600081943d92013e6148b8565b503880806127fc565b606092506148b8565b5060016127f7565b60405162461bcd60e51b815260048101839052602960248201527f45524331393637557067726164653a20756e737570706f727465642070726f786044820152681a58589b195555525160ba1b6064820152608490fd5b90918782813d831161291e575b61290d81836142d8565b810103126103c55750519038612778565b503d612903565b61150f612930615eeb565b60405163163678e960e01b81529182913360048401614c6d565b50346103c557806003193601126103c5576020606954604051908152f35b50346103c557806003193601126103c5576020606654604051908152f35b50346103c55760203660031901126103c5576040906004358152607f6020522060018060a01b036103c18183541691600184015416926002810154906003810154600560048301549201549260405196879687614450565b50346103c557806003193601126103c5576020604051600a8152f35b50346103c557806003193601126103c5576020606854604051908152f35b50346103c55760403660031901126103c5577f2667a0cd99dbc787d1d2596efe938cf43dfe83e8b8ddeb70e28007c09ff334856020612a55614499565b612a5d615610565b612a6681614c4b565b607a80546001600160a01b0319166001600160a01b03929092169182179055612a90602435615e49565b604051908152a180f35b50346103c557602080600319360112610c8b57612ab5614499565b6001600160a01b037f00000000000000000000000000000000000000000000000000000000000000008116612aec3082141561478a565b612b09600080516020615fe48339815191529183835416146147d9565b612b11615eeb565b82339116036129255760405191612b27836142a2565b858352600080516020615f848339815191525460ff1615612b4f575050506104789150614828565b8316906040516352d1902d60e01b81528581600481865afa60009181612c00575b50612bbf5760405162461bcd60e51b815260048101879052602e602482015260008051602061608483398151915260448201526d6f6e206973206e6f74205555505360901b6064820152608490fd5b949293940361289f57612bd184614828565b600080516020616044833981519152600080a2815115801590612bf8576128025750505080f35b5060006127f7565b90918782813d8311612c28575b612c1781836142d8565b810103126103c55750519038612b70565b503d612c0d565b50346103c557806003193601126103c557602060ff607654166116d060405180926146a2565b50346103c55760603660031901126103c5576020611dd8604435602435600435615357565b50346103c557806003193601126103c5576020606c54604051908152f35b50346103c55760403660031901126103c55760043590818152602091607e8352604082205492838352607b8152604083209360108501548452607f8252604084209060405190612ce782614251565b60018060a01b0392838154168352600184818301541686850152600282015490604085019182526003830154926060860193845260056004820154916080880192835201549160a0870192835285156132175760088c0192835490600560ff8316612d51816143c8565b036131fe57600d8e01549051612d66916149b1565b421180159081806131f1575b6131df57906131d5575b15612f195750815115612f07576002915190808214612ef8575b5014612e7d575b505083607954169084600e8a015416905192823b15610c685791612ddc93918980946040519687958694859363099ea56b60e41b855260048501615287565b03925af18015610c3357908691612e69575b50505b606d546001600160401b038082169791908815612e55577f394027a5fa6e098a1191094d1719d6929b9abc535fcc0c8f448d6a4e756222769596979860001901169060018060401b03191617606d55600f429101555116916040516024358152a380f35b634e487b7160e01b88526011600452602488fd5b612e729061423e565b6112cc578438612dee565b600660ff1982541617905584607954168560058b015416915191813b15612ef457918991612ec3938360405180968195829463099ea56b60e41b84528b60048501615287565b03925af18015612ee95790889115612d9d57612ede9061423e565b6112c8578638612d9d565b6040513d8a823e3d90fd5b8980fd5b835460ff191617835538612d96565b604051630dd466dd60e41b8152600490fd5b9150919250602435828114600014612ff557505060ff198254161790558360795416600485600e8b0154169287876078541660405193848092633629edcd60e11b82525afa918215612fea578a92612fcb575b5051823b15612ef457604051638969ab5360e01b8152948a94869493859387938593612f9e938d169160048601615a15565b03925af18015610c3357908691612fb7575b5050612df1565b612fc09061423e565b6112cc578438612fb0565b612fe3919250883d8a116123b1576123a381836142d8565b9038612f6c565b6040513d8c823e3d90fd5b9194929160021461300b575b5050505050612df1565b60069060ff1916179055846079541691600e8a019286845416915191813b1561317057918a91613053938360405180968195829463099ea56b60e41b84528a60048501615287565b03925af180156123b8579089916131c1575b5050846079541690600460058b0192878454169089896078541660405194858092633629edcd60e11b82525afa9283156131b6578c93613197575b50606f548c52607f8a52600260408d200154871c91813b1561319357918c916130e793838c60405196879586948593638969ab5360e01b9b8c865216908c60048601615a15565b03925af1801561318857908b91613174575b50508680806079541694541694541694606f548b52607f8952600260408c200154901c833b15613170578a94939291613142869260405198899788968795865260048601615a15565b03925af18015610c335790869161315c575b808080613001565b6131659061423e565b6112cc578438613154565b8a80fd5b61317d9061423e565b612ef45789386130f9565b6040513d8d823e3d90fd5b8c80fd5b6131af9193508a3d8c116123b1576123a381836142d8565b91386130a0565b6040513d8e823e3d90fd5b6131ca9061423e565b610c57578738613065565b5060243515612d7c565b604051631777988560e11b8152600490fd5b508a8a5116331415612d72565b604051634b011ca960e11b815260048101899052602490fd5b60405163c1d17bef60e01b815260048101879052602490fd5b50346103c55760403660031901126103c55761324a614499565b60243591613256614dd3565b60ff60765460081c16600481101561348e5760028114908115613483575b50156132af5750600080516020615fa483398151915282602093925b61329c84607154614df9565b60715561212a8460405193849384614ffb565b6078546040516336d8759760e21b8152602092916001600160a01b0390811691601291908581600481875afa90811561216657829187918791613466575b5060046040518094819363313ce56760e01b8352165afa859181613447575b5061343c575b506040516316308e2560e11b815290861660048201528481602481865afa9081156134315790879185916133fe575b50916122d16133566122d79361335c95614df9565b91615051565b92806040518093637817ee4f60e01b8252818061337d308b60048401614c6d565b03915afa9283156133f257926133b2575b5050926133ac600080516020615fa483398151915292602095614df9565b92613290565b9080959250813d83116133eb575b6133ca81836142d8565b81010312610c275792516133ac600080516020615fa483398151915261338e565b503d6133c0565b604051903d90823e3d90fd5b809250868092503d831161342a575b61341781836142d8565b81010312610c27575186906122d1613341565b503d61340d565b6040513d86823e3d90fd5b60ff16915038613312565b61345f919250873d89116123845761237581836142d8565b903861330c565b61347d9150823d84116123b1576123a381836142d8565b386132ed565b600191501438613274565b634e487b7160e01b82526021600452602482fd5b506134ac36614654565b90916134b66149d4565b6134be6149fa565b6134c782614bdc565b82518301906020938481840312610c8b57808501516001600160401b03918282116112e657019260a0848203126112ea576040519160a08301838110828211176112d05760405286850151835261352060408601614a25565b928781019384526060860151956040820196875261354060808201614a25565b936060830194855260a082015190848211610c575761356592908b0191018a01614a99565b6080820190815260ff6076541691600383101561391d57600180931461380d575b50606f548652607f89526040862080546001600160a01b039891908916151580613800575b6137de57506135bb606e54614a16565b9889606e55898852607b8b528860408920968b88558160058901998160018060a01b03199516858c5416178b555116600489019084825416179055511660068701918254161790555182850155600884018260ff1982541617905543600785015585600385015551918251600a85015588600b850193015180519182116137ca576136468454614204565b601f8111613783575b508990601f8311600114613723579282939183928994613718575b50501b916000199060031b1c19161790555b6010606f5491015582806079541691541690803b156112ea576136b7918391604051808095819463240ff7c560e11b83528a60048401614bab565b039134905af18015610c8057613704575b50507ffcf3b1aa65a464cef2889608f99e8b8c0f680a4be6c2acb9d961c536a5a9294b604060685481519081528486820152a160405191168152f35b61370e829161423e565b6103c557806136c8565b01519250388061366a565b8488528a8820919083601f1981168a8e5b8883831061376b5750505010613752575b505050811b01905561367c565b015160001960f88460031b161c19169055388080613745565b8686015188559096019594850194879350018e613734565b8488528a8820601f840160051c8101918c85106137c0575b601f0160051c019084905b8281106137b457505061364f565b600081550184906137a6565b909150819061379b565b634e487b7160e01b87526041600452602487fd5b6002604491015460405190632c1f8ef160e21b82523460048301526024820152fd5b50600281015434106135ab565b85516001600160a01b0390613823908216614c4b565b604051630ae6240f60e11b81528b81600481305afa9081156123b85782918a9182916138e2575b506024838a51169551604051948593849263068bcd8d60e01b84526004840152165afa9081156123b857906040918a916138c0575b50015116036138ae5761389287516152d7565b61389c5738613586565b604051630efd728560e21b8152600490fd5b60405163514e24c360e11b8152600490fd5b6138dc91503d808c833e6138d481836142d8565b810190614b14565b3861387f565b925050508b81813d8311613916575b6138fb81836142d8565b81010312610c6857518181168103610c68578882913861384a565b503d6138f1565b634e487b7160e01b87526021600452602487fd5b50346103c55760203660031901126103c55760406020916004358152607e83522054604051908152f35b50346103c557806003193601126103c557608060725460735460745460755491604051938452602084015260408301526060820152f35b50346103c557806003193601126103c55761047833614e06565b50346103c55760203660031901126103c5576020611dd860043561596b565b50346103c55760603660031901126103c5576139e5614499565b6139ed6144af565b906139f6614483565b83549260ff8460081c161593848095613b6d575b8015613b56575b15613afa5760ff198116600117865584613ae9575b50613a6260405192613a378461426c565b600a8452694356537472617465677960b01b60208501526116a260ff885460081c1661253c81614951565b60018060a01b03918260018060a01b03199416846065541617606555604051613a9b81612576602082019460208652604083019061440b565b5190206066551690606a541617606a55613ab25780f35b61ff001981541681557f7f26b83ff96e1f2b6a682f133852f6798a09c465da95921460cefb3847402498602060405160018152a180f35b61ffff191661010117855538613a26565b60405162461bcd60e51b815260206004820152602e60248201527f496e697469616c697a61626c653a20636f6e747261637420697320616c72656160448201526d191e481a5b9a5d1a585b1a5e995960921b6064820152608490fd5b50303b158015613a115750600160ff821614613a11565b50600160ff821610613a0a565b50346103c557806003193601126103c5576065546040516001600160a01b039091168152602090f35b50346103c557806003193601126103c5576020606f54604051908152f35b50346103c557806003193601126103c5576020604051629896808152f35b50346103c557806003193601126103c5576020606e54604051908152f35b50346103c557806003193601126103c5576079546040516001600160a01b039091168152602090f35b50346103c55760603660031901126103c5576001600160401b0390600435828111610c8b57613c59903690600401614579565b506024918235908111610c8b57613c74903690600401614639565b91613c7d614483565b50613c866149d4565b613c8e6149fa565b60209283818051810103126112ea5783015160ff607654166003811015613f90576001809114613cbc578380f35b818452607b80865282604086205403613f79578285528086528160408620015460695490818111613f565750508285528086528160ff600860408820015416613d04816143c8565b03613f3f57613d128361596b565b838652818752613d2783604088200154615433565b1180613f2a575b613f1857828552808652613d4a82604087200154606954614df9565b60695560655460685460405163068bcd8d60e01b815260048101919091526001600160a01b0395909187918391829089165afa908115610c335785916040918891613efe575b5001511683865281875285604081208885886004840154169201549373eeeeeeeeeeeeeeeeeeeeeeeeeeeeeeeeeeeeeeee8114600014613ec057505081809381925af115613eb3575b8285528086526040852060088101600460ff1982541617905584600581607954169201541690606f548752607f8852600260408820015491813b15610c5757918791613e3d938360405180968195829463099ea56b60e41b84528c60048501615287565b03925af18015610c3357613e8c575b5090613e81918596846000805160206160a4833981519152975252604086209360048501541693015460405193849384615287565b0390a1803880808380f35b906000805160206160a483398151915295613eaa613e81949361423e565b95509091613e4c565b63b12d13eb85526004601cfd5b83906010929560449460145260345263a9059cbb60601b82525af13d1583875114171615613ef15784603452613dd9565b6390b8ec1885526004601cfd5b613f1291503d808a833e6138d481836142d8565b38613d90565b60405163199cf26160e31b8152600490fd5b50828552808652816040862001541515613d2e565b5050604051906344980d8f60e01b82526004820152fd5b60649185918760405193632c31d85b60e11b855260048501528301526044820152fd5b50506040519063c1d17bef60e01b82526004820152fd5b634e487b7160e01b845260216004528284fd5b50346103c5576101403660031901126103c557610478611c31366144c5565b50346103c557806003193601126103c557604090606f548152607f6020522060018060a01b036103c18183541691600184015416926002810154906003810154600560048301549201549260405196879687614450565b50346103c557806003193601126103c5576033546040516001600160a01b039091168152602090f35b50346103c55760203660031901126103c55760043563ffffffff60e01b8116809103610c8b5760209063f1801e6160e01b8114908115614088575b506040519015158152f35b6301ffc9a760e01b1490508261407d565b50346103c55760203660031901126103c5576004358152607b60205260408120908154906001830154600284015493600381015460018060a01b0360048301541660018060a01b0360058401541660018060a01b036006850154169060078501549260ff60088701541694614110600a88016142fb565b604051909b909960608b01906001600160401b0382118c8310176141f057506040908152600c8901548b52600d89015460208c810191909152600e8a01546001600160a01b03168c830152600f8a01546010909a015482519d8e52908d019a909a528b015260608a0152608089015260a088015260c087015260e0860152939485946141b891906141a0816143c8565b6101008701526101e080610120880152860190614430565b835161014086015260208401516101608601526040909301516001600160a01b03166101808501526101a08401526101c08301520390f35b634e487b7160e01b81526041600452602490fd5b90600182811c92168015614234575b602083101461421e57565b634e487b7160e01b600052602260045260246000fd5b91607f1691614213565b6001600160401b0381116112d057604052565b60c081019081106001600160401b038211176112d057604052565b604081019081106001600160401b038211176112d057604052565b608081019081106001600160401b038211176112d057604052565b602081019081106001600160401b038211176112d057604052565b606081019081106001600160401b038211176112d057604052565b601f909101601f19168101906001600160401b038211908210176112d057604052565b90604051916143098361426c565b828154815260018092019160405192839160009180549061432982614204565b8086529183811690811561439f5750600114614356575b505050602092916143529103846142d8565b0152565b909493925060005260209081600020946000915b818310614387575093945091925090820101816143526020614340565b8654888401850152958601958794509183019161436a565b60ff191660208781019190915292151560051b8601830194508593506143529291506143409050565b600711156143d257565b634e487b7160e01b600052602160045260246000fd5b60005b8381106143fb5750506000910152565b81810151838201526020016143eb565b90602091614424815180928185528580860191016143e8565b601f01601f1916010190565b906040602061444d9380518452015191816020820152019061440b565b90565b9260a09491979695929760c0850198600180881b0380921686521660208501526040840152606083015260808201520152565b604435906001600160a01b0382168203610c2757565b600435906001600160a01b0382168203610c2757565b602435906001600160a01b0382168203610c2757565b60c0906003190112610c2757604051906144de82614251565b816001600160a01b036004358181168103610c275782526024359081168103610c2757602082015260443560408201526064356060820152608435608082015260a060a435910152565b60809060c3190112610c27576040519061454182614287565b60c435825260e4356020830152610104356040830152610124356060830152565b6001600160401b0381116112d05760051b60200190565b81601f82011215610c275780359161459083614562565b9261459e60405194856142d8565b808452602092838086019260051b820101928311610c27578301905b8282106145c8575050505090565b81356001600160a01b0381168103610c275781529083019083016145ba565b6001600160401b0381116112d057601f01601f191660200190565b92919261460e826145e7565b9161461c60405193846142d8565b829481845281830111610c27578281602093846000960137010152565b9080601f83011215610c275781602061444d93359101614602565b6040600319820112610c2757600435906001600160401b038211610c275761467e91600401614639565b906024356001600160a01b0381168103610c275790565b9060048210156143d25752565b9060038210156143d25752565b80548210156109e65760005260206000200190600090565b9181601f84011215610c27578235916001600160401b038311610c275760208381860195010111610c2757565b6146fc615eeb565b336001600160a01b039091160361470f57565b606460405162461bcd60e51b815260206004820152602060248201527f4f776e61626c653a2063616c6c6572206973206e6f7420746865206f776e65726044820152fd5b603380546001600160a01b039283166001600160a01b031982168117909255909116600080516020616024833981519152600080a3565b1561479157565b60405162461bcd60e51b815260206004820152602c6024820152600080516020615fc483398151915260448201526b19195b1959d85d1958d85b1b60a21b6064820152608490fd5b156147e057565b60405162461bcd60e51b815260206004820152602c6024820152600080516020615fc483398151915260448201526b6163746976652070726f787960a01b6064820152608490fd5b803b1561485d57600080516020615fe483398151915280546001600160a01b0319166001600160a01b03909216919091179055565b60405162461bcd60e51b815260206004820152602d60248201527f455243313936373a206e657720696d706c656d656e746174696f6e206973206e60448201526c1bdd08184818dbdb9d1c9858dd609a1b6064820152608490fd5b9192901561491a57508151156148cc575090565b3b156148d55790565b60405162461bcd60e51b815260206004820152601d60248201527f416464726573733a2063616c6c20746f206e6f6e2d636f6e74726163740000006044820152606490fd5b82519091501561492d5750805190602001fd5b60405162461bcd60e51b81526020600482015290819061150f90602483019061440b565b1561495857565b60405162461bcd60e51b815260206004820152602b60248201527f496e697469616c697a61626c653a20636f6e7472616374206973206e6f74206960448201526a6e697469616c697a696e6760a81b6064820152608490fd5b919082018092116149be57565b634e487b7160e01b600052601160045260246000fd5b6065546001600160a01b031633036149e857565b60405163075fd2b160e01b8152600490fd5b60685415614a0457565b604051630f68fe6360e21b8152600490fd5b60001981146149be5760010190565b51906001600160a01b0382168203610c2757565b606080918051845260208101516020850152604081015160408501520151910152565b90815180825260208080930193019160005b828110614a7c575050505090565b83516001600160a01b031685529381019392810192600101614a6e565b9190604083820312610c2757604051614ab18161426c565b83518152602084015190938491906001600160401b038211610c2757019082601f83011215610c2757815191614ae6836145e7565b93614af460405195866142d8565b83855260208483010111610c2757602092614352918480870191016143e8565b90602082820312610c275781516001600160401b0392838211610c27570160c081830312610c275760405192614b4984614251565b8151845260208201516001600160a01b0381168103610c27576020850152614b7360408301614a25565b60408501526060820151908111610c275760a092614b92918301614a99565b606084015260808101516080840152015160a082015290565b9081526001600160a01b03909116602082015260400190565b90816020910312610c2757518015158103610c275790565b60785460405163288c314960e21b81526001600160a01b0392831660048201529160209183916024918391165afa908115614c3f57600091614c21575b5015610c2757565b614c39915060203d8111610d0357610cf581836142d8565b38614c19565b6040513d6000823e3d90fd5b6001600160a01b031615614c5b57565b6040516303988b8160e61b8152600490fd5b6001600160a01b0391821681529116602082015260400190565b607a546001600160a01b03908116908115614cef5750614cc19160209160405180809581946302154c3d60e51b8352309060048401614c6d565b03915afa908115614c3f57600091614cd7575090565b61444d915060203d8111610d0357610cf581836142d8565b90506068549160405192602093848101916810531313d5d31254d560ba1b8352602982015260298152614d21816142bd565b51902091607854169060405191632474521560e21b92838152846004820152600060248201528581604481855afa908115614c3f57600091614db6575b5015614d6e575050505050600190565b614d8993859360405195869485938493845260048401614bab565b03915afa918215614c3f57600092614da057505090565b61444d9250803d10610d0357610cf581836142d8565b614dcd9150863d8811610d0357610cf581836142d8565b38614d5e565b6078546001600160a01b03163303614de757565b6040516357848b5160e11b8152600490fd5b919082039182116149be57565b60785460408051637817ee4f60e01b81529293926000926001600160a01b0391602091831690828180614e3d308c60048401614c6d565b0381855afa8015614ff1578690614fc2575b614e5c9150607154614df9565b607155803b156112cc5783516322bcf99960e01b81529085908290818381614e88308e60048401614c6d565b03925af18015614fb857614fa5575b50835b828716808652607d83528486208054831015614f685790614ebf83614eea94936146af565b9054600391821b1c91828952607b865287892092614edc816152a8565b614eef575b50505050614a16565b614e9a565b6000805160206160048339815191529360a093836000526009820189528a6000208c81549155614f3f6002840191614f28818454614df9565b83556070614f37828254614df9565b905584615584565b505054910154918a51938452888401528a8a84015260608301526080820152a138808080614ee1565b5050509291907f1468da654b37bb3631011c1917d02e0db437d519918858d40b38b5e980ca033b94951691828152607c84528181205551908152a1565b614fb19094919461423e565b9238614e97565b84513d87823e3d90fd5b508281813d8311614fea575b614fd881836142d8565b810103126112c457614e5c9051614e4f565b503d614fce565b85513d88823e3d90fd5b604091949392606082019560018060a01b0316825260208201520152565b90816020910312610c2757516001600160a01b0381168103610c275790565b90816020910312610c27575160ff81168103610c275790565b604d81116149be57600a0a90565b818102929181159184041417156149be57565b811561507c570490565b634e487b7160e01b600052601260045260246000fd5b80156151cf5761515d816000908360801c806151c3575b508060401c806151b6575b508060201c806151a9575b508060101c8061519c575b508060081c8061518f575b508060041c80615182575b508060021c80615175575b50600191828092811c61516e575b1c1b6151058185615072565b01811c6151128185615072565b01811c61511f8185615072565b01811c61512c8185615072565b01811c6151398185615072565b01811c6151468185615072565b01811c6151538185615072565b01901c8092615072565b80821015615169575090565b905090565b01816150f9565b60029150910190386150eb565b60049150910190386150e0565b60089150910190386150d5565b60109150910190386150ca565b60209150910190386150bf565b60409150910190386150b4565b915050608090386150a9565b50600090565b906020918281830312610c27578051906001600160401b038211610c27570181601f82011215610c275780519261520b84614562565b9360409361521b855196876142d8565b818652828087019260061b85010193818511610c27578301915b8483106152455750505050505090565b8583830312610c2757838691825161525c8161426c565b855181528286015183820152815201920191615235565b80518210156109e65760209160051b010190565b9081526001600160a01b039091166020820152604081019190915260600190565b600052607b60205260406000208054151590816152c3575090565b600501546001600160a01b03161515919050565b6152e66072546069549061505f565b62989680918281029281840414901517156149be57111590565b919091600083820193841291129080158216911516176149be57565b6153268282615300565b916000831261533457505090565b9160649260405192631dde38a160e11b8452600484015260248301526044820152fd5b9091607454906298968093848360801b0490600160801b9182811015615421578583965b6153e057505061538b908561505f565b93858302928084048714901517156149be5781039081116149be576153af9161505f565b9083039283116149be576153cc926153c691615072565b906149b1565b6001607f1b81019081106149be5760801c90565b60019181831661540057806153f491615541565b911c90815b909161537b565b80925061540d9197615541565b9560001981019081116149be5790816153f9565b604051633e668d0360e01b8152600490fd5b606954801561552f57615445826152d7565b61389c57607254604081901b92600160401b92918015908504841417156149be578060401b9281840414901517156149be57615487615493916154ae93615072565b62989680809404614df9565b6154a58360735460801b04918061505f565b60401c90615072565b818102908082048314901517156149be5760745482038281116149be576154d491615072565b906154e2607154809361505f565b60401c91806154f057505090565b6154fc81607554615072565b8281029281840414901517156149be57670de0b6b3a7640000916122d161552292615995565b0480821115615169575090565b60405163ed4421ad60e01b8152600490fd5b90600160801b80831161556f57811161555d576153cc9161505f565b6040516370b7a2d960e01b8152600490fd5b604051600162a4c31160e01b03198152600490fd5b919061559090836155bd565b919082819482158015906155b4575b6155a857505050565b60039160078201550155565b5081151561559f565b43916007820154918383116155fa578383146155ee5760036155e26155eb9486614df9565b91015490615357565b91565b50505050600090600090565b634e487b7160e01b600052600160045260246000fd5b607854604051633629edcd60e11b81526001600160a01b03916020908290600490829086165afa908115614c3f57600091615662575b5016330361565057565b604051637430763f60e11b8152600490fd5b61567a915060203d81116123b1576123a381836142d8565b38615646565b60208181018051919290916001600160a01b03906000908216801515908161595e575b816158bc575b506156f1575b5050505081608091600080516020615f648339815191529351607255810151607355604081015160745560608101516075556156ee6040518092614a39565ba1565b606f548152607f855260409081812083600182015416908480885116809314918215926158aa575b50506157e1575b5093600560809694600080516020616064833981519152948460e095600080516020615f648339815191529b99615758606f54614a16565b80606f558152607f8a522091808451169560018060a01b0319918783865416178555600185019151168092825416179055818401519182600285015560608501519384600382015560a08d8701519687600484015501519687910155606f549681519788528a88015286015260608501528884015260a083015260c0820152a1918193386156af565b8385511690813b156112ea578291602483928651948593849263446adb9960e11b845260048401525af180156158a05794600080516020616064833981519152948460e095600080516020615f648339815191529b999560059560809c9a615891575b507fdc20f5c479493aac0cf803ca3b82ebc1964faa557450a37ea0a8121b0e98454f60608b86885116878b51169086519230845283015285820152a195999b505094509450949650615720565b61589a9061423e565b38615844565b83513d84823e3d90fd5b90915054168486511614158438615719565b606f548352607f875260408320600181015485169091148015925061594c575b8115615939575b8115615926575b8115615913575b81156158ff575b50386156a9565b9050600560a08501519101541415386158f8565b60808501516004820154141591506158f1565b60608501516003820154141591506158ea565b60408501516002820154141591506158e3565b905082845116838254161415906158dc565b84518416151591506156a3565b80600052607b602052604060002090808254036106dc5750600281015461599191615584565b5090565b62989680808202918083048214901517156149be5760745481039081116149be5761444d91615072565b906159c991615680565b80516159e5575b5080516159da5750565b6159e390615c9c565b565b6159ee90615a3d565b386159d0565b908060209392818452848401376000828201840152601f01601f1916010190565b9081526001600160a01b03918216602082015291166040820152606081019190915260800190565b6068918254926000926040908151956020968781016810531313d5d31254d560ba1b9182825260299384820152838152615a76816142bd565b5190209760018060a01b0392607896848854169a875198632474521560e21b9c8d8b5260049a838c8201528d60248201528681604481855afa908115615ba8578e91615c7f575b50615c2e575b508b5b8851811015615be15788838f8d8991615afa8f8e615ae889828c541699615273565b51169051958694859485528401614bab565b0381855afa908115615bd5578f91615bb8575b5015615b23575b50615b1e90614a16565b615ac6565b84548b51888101918a835288820152878152615b3e816142bd565b5190209089615b4d848d615273565b511691813b15615bb457918f91615b7c938f8f9085915196879586948593632f2ff15d60e01b85528401614bab565b03925af18015615ba857908e91615b94575b50615b14565b615b9d9061423e565b613193578c38615b8e565b8e8c51903d90823e3d90fd5b8f80fd5b615bcf9150883d8a11610d0357610cf581836142d8565b38615b0d565b8f8d51903d90823e3d90fd5b505050935050959750507f7a2e396a5614184c0af2c60827c206595126faa1238b94e19823192de52e728a9550615c2992935054928080519586958652850152830190614a5c565b0390a1565b803b15613193578c8360448d838e51958694859363d547741f60e01b85528401528160248401525af18015615c755715615ac357615c6e909c919c61423e565b9a38615ac3565b8a513d8f823e3d90fd5b615c969150873d8911610d0357610cf581836142d8565b38615abd565b6000915b8151831015615e065760018060a01b03928360785416938360685495604096875160209081810192615d1c8388615cff8b6810531313d5d31254d560ba1b988981526029978789820152888152615cf6816142bd565b5190209a615273565b51168d5180938192632474521560e21b835260049b8c8401614bab565b0381895afa908115615dfb57600091615dde575b50615d50575b50505050505050615d4991929350614a16565b9190615ca0565b8a51928301938452818301528152615d67816142bd565b51902092615d758588615273565b511690803b15610c2757615da193600080948a519687958694859363d547741f60e01b85528401614bab565b03925af18015615dd357615d4993949550615dc4575b8493928180808080615d36565b615dcd9061423e565b38615db7565b85513d6000823e3d90fd5b615df59150843d8611610d0357610cf581836142d8565b38615d30565b8c513d6000823e3d90fd5b91507fd418c93b6b78d828a87ee1909e6fcdbbf2f8d8f540ad7b232bb3e221e6d7cc1e90606854615c296040519283928352604060208401526040830190614a5c565b60018060a01b0390600482607a54166020846078541660405193848092633629edcd60e11b82525afa918215614c3f57600092615ecb575b50803b15610c275760009283606492604051968795869463fc2ebdd160e01b865230600487015260248601521660448401525af18015614c3f57615ec25750565b6159e39061423e565b615ee491925060203d81116123b1576123a381836142d8565b9038615e81565b6033546001600160a01b0316803b615f005790565b604051638da5cb5b60e01b8152602081600481855afa60009181615f28575b50615169575090565b90916020823d8211615f5b575b81615f42602093836142d8565b810103126103c55750615f5490614a25565b9038615f1f565b3d9150615f3556feec9315d9f4291207475c061feff1e5d7105750ac0ee9534af9444b4ff1dab9bc4910fdfa16fed3260ed0e7147f7cc6da11a60208b5b9406d12a635614ffd914370b752f3fadb6ac131c0ece847fcbb6994ec56ed6411595710fd9b29c6ac6cc146756e6374696f6e206d7573742062652063616c6c6564207468726f75676820360894a13ba1a3210667c828492db98dca3e2076cc3735a920a3ca505d382bbc0227f642ddcf2042ceaeafadb9d540f432072c00cd4862881667168dcc14710f8be0079c531659141344cd1fd0a4f28419497f9722a3daafe3b4186f6b6457e0bc7cd75a20ee27fd9adebab32041f755214dbc6bffa90cc0225b39da2e5c2d3be677e2878aaaaf6a65ecf50f849ad58100c49f6dfd57d055ba4bddd63a175d5345524331393637557067726164653a206e657720696d706c656d656e74617469a7932e9c92f31e1ed56b29d00bbe669a97484dc24de28dd9c8c0429df7f35847a26469706673582212207dda752b8c19ec6bd42bbcf592f60a1b5d2b8618e68784d32ed0ce30df90089f64736f6c63430008130033","linkReferences":{}},"methodIdentifiers":{"D()":"0f529ba2","DISPUTE_COOLDOWN_SEC()":"f5be3f7c","MAX_STAKED_PROPOSALS()":"406244d8","NATIVE()":"a0cf0aea","RULING_OPTIONS()":"626c47e8","VERSION()":"ffa1ad74","activatePoints()":"814516ad","addToAllowList(address[])":"7263cfe2","allocate(bytes,address)":"ef2920fc","arbitrableConfigs(uint256)":"41bb7605","calculateConviction(uint256,uint256,uint256)":"346db8cb","calculateThreshold(uint256)":"59a5db8b","canExecuteProposal(uint256)":"824ea8ed","cancelProposal(uint256)":"e0a8f6f5","cloneNonce()":"33960459","collateralVault()":"0bece79c","currentArbitrableConfigVersion()":"125fd1d9","cvParams()":"2506b870","deactivatePoints()":"1ddf1e23","deactivatePoints(address)":"6453d9c4","decreasePower(address,uint256)":"2ed04b2b","disputeCount()":"a28889e1","disputeIdToProposalId(uint256)":"255ffb38","disputeProposal(uint256,string,bytes)":"b41596ec","distribute(address[],bytes,address)":"0a6f0ee9","getAllo()":"15cc481e","getArbitrableConfig()":"059351cd","getMaxAmount()":"0ba95909","getMaxConviction(uint256)":"950559d7","getMetadata(uint256)":"a574cea4","getPayouts(address[],bytes[])":"b2b878d0","getPointSystem()":"c3292171","getPoolAmount()":"4ab4ba42","getPoolId()":"38fff2d0","getProposal(uint256)":"c7f758a8","getProposalStakedAmount(uint256)":"dc96ff2d","getProposalVoterStake(uint256,address)":"e0dd2c38","getRecipientStatus(address)":"eb11af93","getStrategyId()":"42fda9c7","getTotalVoterStakePct(address)":"bcc5b93b","increasePoolAmount(uint256)":"f5b0dfb7","increasePower(address,uint256)":"782aadff","init(address,address,address)":"184b9559","init(address,string,address)":"60d5dedc","initialize(address)":"c4d66de8","initialize(uint256,bytes)":"edd146cc","isPoolActive()":"df868ed3","isValidAllocator(address)":"4d31d087","owner()":"8da5cb5b","pointConfig()":"a47ff7e5","pointSystem()":"2dbd6fdd","proposalCounter()":"0c0512e9","proposalType()":"351d9f96","proposals(uint256)":"013cf08b","proxiableUUID()":"52d1902d","proxyOwner()":"025313a2","registerRecipient(bytes,address)":"2bbe0cae","registryCommunity()":"6003e414","removeFromAllowList(address[])":"a51312c8","renounceOwnership()":"715018a6","rule(uint256,uint256)":"311a6c56","setCollateralVaultTemplate(address)":"b0d3713a","setPoolActive(bool)":"b5f620ce","setPoolParams((address,address,uint256,uint256,uint256,uint256),(uint256,uint256,uint256,uint256))":"062f9ece","setPoolParams((address,address,uint256,uint256,uint256,uint256),(uint256,uint256,uint256,uint256),address[],address[])":"948e7a59","setPoolParams((address,address,uint256,uint256,uint256,uint256),(uint256,uint256,uint256,uint256),uint256)":"ad56fd5d","setSybilScorer(address,uint256)":"3864d366","supportsInterface(bytes4)":"01ffc9a7","sybilScorer()":"b6c61f31","totalEffectiveActivePoints()":"d1e36232","totalPointsActivated()":"aba9ffee","totalStaked()":"817b1cd2","totalVoterStakePct(address)":"5db64b99","transferOwnership(address)":"f2fde38b","updateProposalConviction(uint256)":"1aa91a9e","upgradeTo(address)":"3659cfe6","upgradeToAndCall(address,bytes)":"4f1ef286","voterStakedProposals(address,uint256)":"868c57b8"},"storageLayout":{"storage":[{"astId":52287,"contract":"pkg/contracts/src/CVStrategy/CVStrategyV0_0.sol:CVStrategyV0_0","label":"_initialized","offset":0,"slot":"0","type":"t_uint8"},{"astId":52290,"contract":"pkg/contracts/src/CVStrategy/CVStrategyV0_0.sol:CVStrategyV0_0","label":"_initializing","offset":1,"slot":"0","type":"t_bool"},{"astId":52992,"contract":"pkg/contracts/src/CVStrategy/CVStrategyV0_0.sol:CVStrategyV0_0","label":"__gap","offset":0,"slot":"1","type":"t_array(t_uint256)50_storage"},{"astId":52079,"contract":"pkg/contracts/src/CVStrategy/CVStrategyV0_0.sol:CVStrategyV0_0","label":"_owner","offset":0,"slot":"51","type":"t_address"},{"astId":52199,"contract":"pkg/contracts/src/CVStrategy/CVStrategyV0_0.sol:CVStrategyV0_0","label":"__gap","offset":0,"slot":"52","type":"t_array(t_uint256)49_storage"},{"astId":64648,"contract":"pkg/contracts/src/CVStrategy/CVStrategyV0_0.sol:CVStrategyV0_0","label":"allo","offset":0,"slot":"101","type":"t_contract(IAllo)2610"},{"astId":64650,"contract":"pkg/contracts/src/CVStrategy/CVStrategyV0_0.sol:CVStrategyV0_0","label":"strategyId","offset":0,"slot":"102","type":"t_bytes32"},{"astId":64652,"contract":"pkg/contracts/src/CVStrategy/CVStrategyV0_0.sol:CVStrategyV0_0","label":"poolActive","offset":0,"slot":"103","type":"t_bool"},{"astId":64654,"contract":"pkg/contracts/src/CVStrategy/CVStrategyV0_0.sol:CVStrategyV0_0","label":"poolId","offset":0,"slot":"104","type":"t_uint256"},{"astId":64656,"contract":"pkg/contracts/src/CVStrategy/CVStrategyV0_0.sol:CVStrategyV0_0","label":"poolAmount","offset":0,"slot":"105","type":"t_uint256"},{"astId":65718,"contract":"pkg/contracts/src/CVStrategy/CVStrategyV0_0.sol:CVStrategyV0_0","label":"collateralVaultTemplate","offset":0,"slot":"106","type":"t_address"},{"astId":65720,"contract":"pkg/contracts/src/CVStrategy/CVStrategyV0_0.sol:CVStrategyV0_0","label":"surpressStateMutabilityWarning","offset":0,"slot":"107","type":"t_uint256"},{"astId":65722,"contract":"pkg/contracts/src/CVStrategy/CVStrategyV0_0.sol:CVStrategyV0_0","label":"cloneNonce","offset":0,"slot":"108","type":"t_uint256"},{"astId":65724,"contract":"pkg/contracts/src/CVStrategy/CVStrategyV0_0.sol:CVStrategyV0_0","label":"disputeCount","offset":0,"slot":"109","type":"t_uint64"},{"astId":65726,"contract":"pkg/contracts/src/CVStrategy/CVStrategyV0_0.sol:CVStrategyV0_0","label":"proposalCounter","offset":0,"slot":"110","type":"t_uint256"},{"astId":65728,"contract":"pkg/contracts/src/CVStrategy/CVStrategyV0_0.sol:CVStrategyV0_0","label":"currentArbitrableConfigVersion","offset":0,"slot":"111","type":"t_uint256"},{"astId":65730,"contract":"pkg/contracts/src/CVStrategy/CVStrategyV0_0.sol:CVStrategyV0_0","label":"totalStaked","offset":0,"slot":"112","type":"t_uint256"},{"astId":65732,"contract":"pkg/contracts/src/CVStrategy/CVStrategyV0_0.sol:CVStrategyV0_0","label":"totalPointsActivated","offset":0,"slot":"113","type":"t_uint256"},{"astId":65735,"contract":"pkg/contracts/src/CVStrategy/CVStrategyV0_0.sol:CVStrategyV0_0","label":"cvParams","offset":0,"slot":"114","type":"t_struct(CVParams)65406_storage"},{"astId":65738,"contract":"pkg/contracts/src/CVStrategy/CVStrategyV0_0.sol:CVStrategyV0_0","label":"proposalType","offset":0,"slot":"118","type":"t_enum(ProposalType)65309"},{"astId":65741,"contract":"pkg/contracts/src/CVStrategy/CVStrategyV0_0.sol:CVStrategyV0_0","label":"pointSystem","offset":1,"slot":"118","type":"t_enum(PointSystem)65314"},{"astId":65744,"contract":"pkg/contracts/src/CVStrategy/CVStrategyV0_0.sol:CVStrategyV0_0","label":"pointConfig","offset":0,"slot":"119","type":"t_struct(PointSystemConfig)65383_storage"},{"astId":65747,"contract":"pkg/contracts/src/CVStrategy/CVStrategyV0_0.sol:CVStrategyV0_0","label":"registryCommunity","offset":0,"slot":"120","type":"t_contract(RegistryCommunityV0_0)72669"},{"astId":65750,"contract":"pkg/contracts/src/CVStrategy/CVStrategyV0_0.sol:CVStrategyV0_0","label":"collateralVault","offset":0,"slot":"121","type":"t_contract(ICollateralVault)74152"},{"astId":65753,"contract":"pkg/contracts/src/CVStrategy/CVStrategyV0_0.sol:CVStrategyV0_0","label":"sybilScorer","offset":0,"slot":"122","type":"t_contract(ISybilScorer)69773"},{"astId":65758,"contract":"pkg/contracts/src/CVStrategy/CVStrategyV0_0.sol:CVStrategyV0_0","label":"proposals","offset":0,"slot":"123","type":"t_mapping(t_uint256,t_struct(Proposal)65375_storage)"},{"astId":65762,"contract":"pkg/contracts/src/CVStrategy/CVStrategyV0_0.sol:CVStrategyV0_0","label":"totalVoterStakePct","offset":0,"slot":"124","type":"t_mapping(t_address,t_uint256)"},{"astId":65767,"contract":"pkg/contracts/src/CVStrategy/CVStrategyV0_0.sol:CVStrategyV0_0","label":"voterStakedProposals","offset":0,"slot":"125","type":"t_mapping(t_address,t_array(t_uint256)dyn_storage)"},{"astId":65771,"contract":"pkg/contracts/src/CVStrategy/CVStrategyV0_0.sol:CVStrategyV0_0","label":"disputeIdToProposalId","offset":0,"slot":"126","type":"t_mapping(t_uint256,t_uint256)"},{"astId":65776,"contract":"pkg/contracts/src/CVStrategy/CVStrategyV0_0.sol:CVStrategyV0_0","label":"arbitrableConfigs","offset":0,"slot":"127","type":"t_mapping(t_uint256,t_struct(ArbitrableConfig)65397_storage)"},{"astId":69429,"contract":"pkg/contracts/src/CVStrategy/CVStrategyV0_0.sol:CVStrategyV0_0","label":"__gap","offset":0,"slot":"128","type":"t_array(t_uint256)50_storage"}],"types":{"t_address":{"encoding":"inplace","label":"address","numberOfBytes":"20"},"t_array(t_uint256)49_storage":{"encoding":"inplace","label":"uint256[49]","numberOfBytes":"1568","base":"t_uint256"},"t_array(t_uint256)50_storage":{"encoding":"inplace","label":"uint256[50]","numberOfBytes":"1600","base":"t_uint256"},"t_array(t_uint256)dyn_storage":{"encoding":"dynamic_array","label":"uint256[]","numberOfBytes":"32","base":"t_uint256"},"t_bool":{"encoding":"inplace","label":"bool","numberOfBytes":"1"},"t_bytes32":{"encoding":"inplace","label":"bytes32","numberOfBytes":"32"},"t_contract(IAllo)2610":{"encoding":"inplace","label":"contract IAllo","numberOfBytes":"20"},"t_contract(IArbitrator)74119":{"encoding":"inplace","label":"contract IArbitrator","numberOfBytes":"20"},"t_contract(ICollateralVault)74152":{"encoding":"inplace","label":"contract ICollateralVault","numberOfBytes":"20"},"t_contract(ISybilScorer)69773":{"encoding":"inplace","label":"contract ISybilScorer","numberOfBytes":"20"},"t_contract(RegistryCommunityV0_0)72669":{"encoding":"inplace","label":"contract RegistryCommunityV0_0","numberOfBytes":"20"},"t_enum(PointSystem)65314":{"encoding":"inplace","label":"enum PointSystem","numberOfBytes":"1"},"t_enum(ProposalStatus)65334":{"encoding":"inplace","label":"enum ProposalStatus","numberOfBytes":"1"},"t_enum(ProposalType)65309":{"encoding":"inplace","label":"enum ProposalType","numberOfBytes":"1"},"t_mapping(t_address,t_array(t_uint256)dyn_storage)":{"encoding":"mapping","key":"t_address","label":"mapping(address => uint256[])","numberOfBytes":"32","value":"t_array(t_uint256)dyn_storage"},"t_mapping(t_address,t_uint256)":{"encoding":"mapping","key":"t_address","label":"mapping(address => uint256)","numberOfBytes":"32","value":"t_uint256"},"t_mapping(t_uint256,t_struct(ArbitrableConfig)65397_storage)":{"encoding":"mapping","key":"t_uint256","label":"mapping(uint256 => struct ArbitrableConfig)","numberOfBytes":"32","value":"t_struct(ArbitrableConfig)65397_storage"},"t_mapping(t_uint256,t_struct(Proposal)65375_storage)":{"encoding":"mapping","key":"t_uint256","label":"mapping(uint256 => struct Proposal)","numberOfBytes":"32","value":"t_struct(Proposal)65375_storage"},"t_mapping(t_uint256,t_uint256)":{"encoding":"mapping","key":"t_uint256","label":"mapping(uint256 => uint256)","numberOfBytes":"32","value":"t_uint256"},"t_string_storage":{"encoding":"bytes","label":"string","numberOfBytes":"32"},"t_struct(ArbitrableConfig)65397_storage":{"encoding":"inplace","label":"struct ArbitrableConfig","numberOfBytes":"192","members":[{"astId":65386,"contract":"pkg/contracts/src/CVStrategy/CVStrategyV0_0.sol:CVStrategyV0_0","label":"arbitrator","offset":0,"slot":"0","type":"t_contract(IArbitrator)74119"},{"astId":65388,"contract":"pkg/contracts/src/CVStrategy/CVStrategyV0_0.sol:CVStrategyV0_0","label":"tribunalSafe","offset":0,"slot":"1","type":"t_address"},{"astId":65390,"contract":"pkg/contracts/src/CVStrategy/CVStrategyV0_0.sol:CVStrategyV0_0","label":"submitterCollateralAmount","offset":0,"slot":"2","type":"t_uint256"},{"astId":65392,"contract":"pkg/contracts/src/CVStrategy/CVStrategyV0_0.sol:CVStrategyV0_0","label":"challengerCollateralAmount","offset":0,"slot":"3","type":"t_uint256"},{"astId":65394,"contract":"pkg/contracts/src/CVStrategy/CVStrategyV0_0.sol:CVStrategyV0_0","label":"defaultRuling","offset":0,"slot":"4","type":"t_uint256"},{"astId":65396,"contract":"pkg/contracts/src/CVStrategy/CVStrategyV0_0.sol:CVStrategyV0_0","label":"defaultRulingTimeout","offset":0,"slot":"5","type":"t_uint256"}]},"t_struct(CVParams)65406_storage":{"encoding":"inplace","label":"struct CVParams","numberOfBytes":"128","members":[{"astId":65399,"contract":"pkg/contracts/src/CVStrategy/CVStrategyV0_0.sol:CVStrategyV0_0","label":"maxRatio","offset":0,"slot":"0","type":"t_uint256"},{"astId":65401,"contract":"pkg/contracts/src/CVStrategy/CVStrategyV0_0.sol:CVStrategyV0_0","label":"weight","offset":0,"slot":"1","type":"t_uint256"},{"astId":65403,"contract":"pkg/contracts/src/CVStrategy/CVStrategyV0_0.sol:CVStrategyV0_0","label":"decay","offset":0,"slot":"2","type":"t_uint256"},{"astId":65405,"contract":"pkg/contracts/src/CVStrategy/CVStrategyV0_0.sol:CVStrategyV0_0","label":"minThresholdPoints","offset":0,"slot":"3","type":"t_uint256"}]},"t_struct(Metadata)3098_storage":{"encoding":"inplace","label":"struct Metadata","numberOfBytes":"64","members":[{"astId":3094,"contract":"pkg/contracts/src/CVStrategy/CVStrategyV0_0.sol:CVStrategyV0_0","label":"protocol","offset":0,"slot":"0","type":"t_uint256"},{"astId":3097,"contract":"pkg/contracts/src/CVStrategy/CVStrategyV0_0.sol:CVStrategyV0_0","label":"pointer","offset":0,"slot":"1","type":"t_string_storage"}]},"t_struct(PointSystemConfig)65383_storage":{"encoding":"inplace","label":"struct PointSystemConfig","numberOfBytes":"32","members":[{"astId":65382,"contract":"pkg/contracts/src/CVStrategy/CVStrategyV0_0.sol:CVStrategyV0_0","label":"maxAmount","offset":0,"slot":"0","type":"t_uint256"}]},"t_struct(Proposal)65375_storage":{"encoding":"inplace","label":"struct Proposal","numberOfBytes":"544","members":[{"astId":65343,"contract":"pkg/contracts/src/CVStrategy/CVStrategyV0_0.sol:CVStrategyV0_0","label":"proposalId","offset":0,"slot":"0","type":"t_uint256"},{"astId":65345,"contract":"pkg/contracts/src/CVStrategy/CVStrategyV0_0.sol:CVStrategyV0_0","label":"requestedAmount","offset":0,"slot":"1","type":"t_uint256"},{"astId":65347,"contract":"pkg/contracts/src/CVStrategy/CVStrategyV0_0.sol:CVStrategyV0_0","label":"stakedAmount","offset":0,"slot":"2","type":"t_uint256"},{"astId":65349,"contract":"pkg/contracts/src/CVStrategy/CVStrategyV0_0.sol:CVStrategyV0_0","label":"convictionLast","offset":0,"slot":"3","type":"t_uint256"},{"astId":65351,"contract":"pkg/contracts/src/CVStrategy/CVStrategyV0_0.sol:CVStrategyV0_0","label":"beneficiary","offset":0,"slot":"4","type":"t_address"},{"astId":65353,"contract":"pkg/contracts/src/CVStrategy/CVStrategyV0_0.sol:CVStrategyV0_0","label":"submitter","offset":0,"slot":"5","type":"t_address"},{"astId":65355,"contract":"pkg/contracts/src/CVStrategy/CVStrategyV0_0.sol:CVStrategyV0_0","label":"requestedToken","offset":0,"slot":"6","type":"t_address"},{"astId":65357,"contract":"pkg/contracts/src/CVStrategy/CVStrategyV0_0.sol:CVStrategyV0_0","label":"blockLast","offset":0,"slot":"7","type":"t_uint256"},{"astId":65360,"contract":"pkg/contracts/src/CVStrategy/CVStrategyV0_0.sol:CVStrategyV0_0","label":"proposalStatus","offset":0,"slot":"8","type":"t_enum(ProposalStatus)65334"},{"astId":65364,"contract":"pkg/contracts/src/CVStrategy/CVStrategyV0_0.sol:CVStrategyV0_0","label":"voterStakedPoints","offset":0,"slot":"9","type":"t_mapping(t_address,t_uint256)"},{"astId":65367,"contract":"pkg/contracts/src/CVStrategy/CVStrategyV0_0.sol:CVStrategyV0_0","label":"metadata","offset":0,"slot":"10","type":"t_struct(Metadata)3098_storage"},{"astId":65370,"contract":"pkg/contracts/src/CVStrategy/CVStrategyV0_0.sol:CVStrategyV0_0","label":"disputeInfo","offset":0,"slot":"12","type":"t_struct(ProposalDisputeInfo)65341_storage"},{"astId":65372,"contract":"pkg/contracts/src/CVStrategy/CVStrategyV0_0.sol:CVStrategyV0_0","label":"lastDisputeCompletion","offset":0,"slot":"15","type":"t_uint256"},{"astId":65374,"contract":"pkg/contracts/src/CVStrategy/CVStrategyV0_0.sol:CVStrategyV0_0","label":"arbitrableConfigVersion","offset":0,"slot":"16","type":"t_uint256"}]},"t_struct(ProposalDisputeInfo)65341_storage":{"encoding":"inplace","label":"struct ProposalDisputeInfo","numberOfBytes":"96","members":[{"astId":65336,"contract":"pkg/contracts/src/CVStrategy/CVStrategyV0_0.sol:CVStrategyV0_0","label":"disputeId","offset":0,"slot":"0","type":"t_uint256"},{"astId":65338,"contract":"pkg/contracts/src/CVStrategy/CVStrategyV0_0.sol:CVStrategyV0_0","label":"disputeTimestamp","offset":0,"slot":"1","type":"t_uint256"},{"astId":65340,"contract":"pkg/contracts/src/CVStrategy/CVStrategyV0_0.sol:CVStrategyV0_0","label":"challenger","offset":0,"slot":"2","type":"t_address"}]},"t_uint256":{"encoding":"inplace","label":"uint256","numberOfBytes":"32"},"t_uint64":{"encoding":"inplace","label":"uint64","numberOfBytes":"8"},"t_uint8":{"encoding":"inplace","label":"uint8","numberOfBytes":"1"}}},"id":97}