{"abi":[{"type":"function","name":"DEFAULT_ADMIN_ROLE","inputs":[],"outputs":[{"name":"","type":"bytes32","internalType":"bytes32"}],"stateMutability":"view"},{"type":"function","name":"NATIVE","inputs":[],"outputs":[{"name":"","type":"address","internalType":"address"}],"stateMutability":"view"},{"type":"function","name":"addPoolManager","inputs":[{"name":"_poolId","type":"uint256","internalType":"uint256"},{"name":"_manager","type":"address","internalType":"address"}],"outputs":[],"stateMutability":"nonpayable"},{"type":"function","name":"addToCloneableStrategies","inputs":[{"name":"_strategy","type":"address","internalType":"address"}],"outputs":[],"stateMutability":"nonpayable"},{"type":"function","name":"allocate","inputs":[{"name":"_poolId","type":"uint256","internalType":"uint256"},{"name":"_data","type":"bytes","internalType":"bytes"}],"outputs":[],"stateMutability":"payable"},{"type":"function","name":"batchAllocate","inputs":[{"name":"_poolIds","type":"uint256[]","internalType":"uint256[]"},{"name":"_datas","type":"bytes[]","internalType":"bytes[]"}],"outputs":[],"stateMutability":"nonpayable"},{"type":"function","name":"batchRegisterRecipient","inputs":[{"name":"_poolIds","type":"uint256[]","internalType":"uint256[]"},{"name":"_data","type":"bytes[]","internalType":"bytes[]"}],"outputs":[{"name":"recipientIds","type":"address[]","internalType":"address[]"}],"stateMutability":"nonpayable"},{"type":"function","name":"cancelOwnershipHandover","inputs":[],"outputs":[],"stateMutability":"payable"},{"type":"function","name":"completeOwnershipHandover","inputs":[{"name":"pendingOwner","type":"address","internalType":"address"}],"outputs":[],"stateMutability":"payable"},{"type":"function","name":"createPool","inputs":[{"name":"_profileId","type":"bytes32","internalType":"bytes32"},{"name":"_strategy","type":"address","internalType":"address"},{"name":"_initStrategyData","type":"bytes","internalType":"bytes"},{"name":"_token","type":"address","internalType":"address"},{"name":"_amount","type":"uint256","internalType":"uint256"},{"name":"_metadata","type":"tuple","internalType":"struct Metadata","components":[{"name":"protocol","type":"uint256","internalType":"uint256"},{"name":"pointer","type":"string","internalType":"string"}]},{"name":"_managers","type":"address[]","internalType":"address[]"}],"outputs":[{"name":"poolId","type":"uint256","internalType":"uint256"}],"stateMutability":"payable"},{"type":"function","name":"createPoolWithCustomStrategy","inputs":[{"name":"_profileId","type":"bytes32","internalType":"bytes32"},{"name":"_strategy","type":"address","internalType":"address"},{"name":"_initStrategyData","type":"bytes","internalType":"bytes"},{"name":"_token","type":"address","internalType":"address"},{"name":"_amount","type":"uint256","internalType":"uint256"},{"name":"_metadata","type":"tuple","internalType":"struct Metadata","components":[{"name":"protocol","type":"uint256","internalType":"uint256"},{"name":"pointer","type":"string","internalType":"string"}]},{"name":"_managers","type":"address[]","internalType":"address[]"}],"outputs":[{"name":"poolId","type":"uint256","internalType":"uint256"}],"stateMutability":"payable"},{"type":"function","name":"distribute","inputs":[{"name":"_poolId","type":"uint256","internalType":"uint256"},{"name":"_recipientIds","type":"address[]","internalType":"address[]"},{"name":"_data","type":"bytes","internalType":"bytes"}],"outputs":[],"stateMutability":"nonpayable"},{"type":"function","name":"fundPool","inputs":[{"name":"_poolId","type":"uint256","internalType":"uint256"},{"name":"_amount","type":"uint256","internalType":"uint256"}],"outputs":[],"stateMutability":"payable"},{"type":"function","name":"getBaseFee","inputs":[],"outputs":[{"name":"","type":"uint256","internalType":"uint256"}],"stateMutability":"view"},{"type":"function","name":"getFeeDenominator","inputs":[],"outputs":[{"name":"FEE_DENOMINATOR","type":"uint256","internalType":"uint256"}],"stateMutability":"pure"},{"type":"function","name":"getPercentFee","inputs":[],"outputs":[{"name":"","type":"uint256","internalType":"uint256"}],"stateMutability":"view"},{"type":"function","name":"getPool","inputs":[{"name":"_poolId","type":"uint256","internalType":"uint256"}],"outputs":[{"name":"","type":"tuple","internalType":"struct IAllo.Pool","components":[{"name":"profileId","type":"bytes32","internalType":"bytes32"},{"name":"strategy","type":"address","internalType":"contract IStrategy"},{"name":"token","type":"address","internalType":"address"},{"name":"metadata","type":"tuple","internalType":"struct Metadata","components":[{"name":"protocol","type":"uint256","internalType":"uint256"},{"name":"pointer","type":"string","internalType":"string"}]},{"name":"managerRole","type":"bytes32","internalType":"bytes32"},{"name":"adminRole","type":"bytes32","internalType":"bytes32"}]}],"stateMutability":"view"},{"type":"function","name":"getRegistry","inputs":[],"outputs":[{"name":"","type":"address","internalType":"contract IRegistry"}],"stateMutability":"view"},{"type":"function","name":"getRoleAdmin","inputs":[{"name":"role","type":"bytes32","internalType":"bytes32"}],"outputs":[{"name":"","type":"bytes32","internalType":"bytes32"}],"stateMutability":"view"},{"type":"function","name":"getStrategy","inputs":[{"name":"_poolId","type":"uint256","internalType":"uint256"}],"outputs":[{"name":"","type":"address","internalType":"address"}],"stateMutability":"view"},{"type":"function","name":"getTreasury","inputs":[],"outputs":[{"name":"","type":"address","internalType":"address payable"}],"stateMutability":"view"},{"type":"function","name":"grantRole","inputs":[{"name":"role","type":"bytes32","internalType":"bytes32"},{"name":"account","type":"address","internalType":"address"}],"outputs":[],"stateMutability":"nonpayable"},{"type":"function","name":"hasRole","inputs":[{"name":"role","type":"bytes32","internalType":"bytes32"},{"name":"account","type":"address","internalType":"address"}],"outputs":[{"name":"","type":"bool","internalType":"bool"}],"stateMutability":"view"},{"type":"function","name":"initialize","inputs":[{"name":"_owner","type":"address","internalType":"address"},{"name":"_registry","type":"address","internalType":"address"},{"name":"_treasury","type":"address","internalType":"address payable"},{"name":"_percentFee","type":"uint256","internalType":"uint256"},{"name":"_baseFee","type":"uint256","internalType":"uint256"}],"outputs":[],"stateMutability":"nonpayable"},{"type":"function","name":"isCloneableStrategy","inputs":[{"name":"_strategy","type":"address","internalType":"address"}],"outputs":[{"name":"","type":"bool","internalType":"bool"}],"stateMutability":"view"},{"type":"function","name":"isPoolAdmin","inputs":[{"name":"_poolId","type":"uint256","internalType":"uint256"},{"name":"_address","type":"address","internalType":"address"}],"outputs":[{"name":"","type":"bool","internalType":"bool"}],"stateMutability":"view"},{"type":"function","name":"isPoolManager","inputs":[{"name":"_poolId","type":"uint256","internalType":"uint256"},{"name":"_address","type":"address","internalType":"address"}],"outputs":[{"name":"","type":"bool","internalType":"bool"}],"stateMutability":"view"},{"type":"function","name":"owner","inputs":[],"outputs":[{"name":"result","type":"address","internalType":"address"}],"stateMutability":"view"},{"type":"function","name":"ownershipHandoverExpiresAt","inputs":[{"name":"pendingOwner","type":"address","internalType":"address"}],"outputs":[{"name":"result","type":"uint256","internalType":"uint256"}],"stateMutability":"view"},{"type":"function","name":"recoverFunds","inputs":[{"name":"_token","type":"address","internalType":"address"},{"name":"_recipient","type":"address","internalType":"address"}],"outputs":[],"stateMutability":"nonpayable"},{"type":"function","name":"registerRecipient","inputs":[{"name":"_poolId","type":"uint256","internalType":"uint256"},{"name":"_data","type":"bytes","internalType":"bytes"}],"outputs":[{"name":"","type":"address","internalType":"address"}],"stateMutability":"payable"},{"type":"function","name":"removeFromCloneableStrategies","inputs":[{"name":"_strategy","type":"address","internalType":"address"}],"outputs":[],"stateMutability":"nonpayable"},{"type":"function","name":"removePoolManager","inputs":[{"name":"_poolId","type":"uint256","internalType":"uint256"},{"name":"_manager","type":"address","internalType":"address"}],"outputs":[],"stateMutability":"nonpayable"},{"type":"function","name":"renounceOwnership","inputs":[],"outputs":[],"stateMutability":"payable"},{"type":"function","name":"renounceRole","inputs":[{"name":"role","type":"bytes32","internalType":"bytes32"},{"name":"account","type":"address","internalType":"address"}],"outputs":[],"stateMutability":"nonpayable"},{"type":"function","name":"requestOwnershipHandover","inputs":[],"outputs":[],"stateMutability":"payable"},{"type":"function","name":"revokeRole","inputs":[{"name":"role","type":"bytes32","internalType":"bytes32"},{"name":"account","type":"address","internalType":"address"}],"outputs":[],"stateMutability":"nonpayable"},{"type":"function","name":"supportsInterface","inputs":[{"name":"interfaceId","type":"bytes4","internalType":"bytes4"}],"outputs":[{"name":"","type":"bool","internalType":"bool"}],"stateMutability":"view"},{"type":"function","name":"transferOwnership","inputs":[{"name":"newOwner","type":"address","internalType":"address"}],"outputs":[],"stateMutability":"payable"},{"type":"function","name":"updateBaseFee","inputs":[{"name":"_baseFee","type":"uint256","internalType":"uint256"}],"outputs":[],"stateMutability":"nonpayable"},{"type":"function","name":"updatePercentFee","inputs":[{"name":"_percentFee","type":"uint256","internalType":"uint256"}],"outputs":[],"stateMutability":"nonpayable"},{"type":"function","name":"updatePoolMetadata","inputs":[{"name":"_poolId","type":"uint256","internalType":"uint256"},{"name":"_metadata","type":"tuple","internalType":"struct Metadata","components":[{"name":"protocol","type":"uint256","internalType":"uint256"},{"name":"pointer","type":"string","internalType":"string"}]}],"outputs":[],"stateMutability":"nonpayable"},{"type":"function","name":"updateRegistry","inputs":[{"name":"_registry","type":"address","internalType":"address"}],"outputs":[],"stateMutability":"nonpayable"},{"type":"function","name":"updateTreasury","inputs":[{"name":"_treasury","type":"address","internalType":"address payable"}],"outputs":[],"stateMutability":"nonpayable"},{"type":"event","name":"BaseFeePaid","inputs":[{"name":"poolId","type":"uint256","indexed":true,"internalType":"uint256"},{"name":"amount","type":"uint256","indexed":false,"internalType":"uint256"}],"anonymous":false},{"type":"event","name":"BaseFeeUpdated","inputs":[{"name":"baseFee","type":"uint256","indexed":false,"internalType":"uint256"}],"anonymous":false},{"type":"event","name":"Initialized","inputs":[{"name":"version","type":"uint8","indexed":false,"internalType":"uint8"}],"anonymous":false},{"type":"event","name":"OwnershipHandoverCanceled","inputs":[{"name":"pendingOwner","type":"address","indexed":true,"internalType":"address"}],"anonymous":false},{"type":"event","name":"OwnershipHandoverRequested","inputs":[{"name":"pendingOwner","type":"address","indexed":true,"internalType":"address"}],"anonymous":false},{"type":"event","name":"OwnershipTransferred","inputs":[{"name":"oldOwner","type":"address","indexed":true,"internalType":"address"},{"name":"newOwner","type":"address","indexed":true,"internalType":"address"}],"anonymous":false},{"type":"event","name":"PercentFeeUpdated","inputs":[{"name":"percentFee","type":"uint256","indexed":false,"internalType":"uint256"}],"anonymous":false},{"type":"event","name":"PoolCreated","inputs":[{"name":"poolId","type":"uint256","indexed":true,"internalType":"uint256"},{"name":"profileId","type":"bytes32","indexed":true,"internalType":"bytes32"},{"name":"strategy","type":"address","indexed":false,"internalType":"contract IStrategy"},{"name":"token","type":"address","indexed":false,"internalType":"address"},{"name":"amount","type":"uint256","indexed":false,"internalType":"uint256"},{"name":"metadata","type":"tuple","indexed":false,"internalType":"struct Metadata","components":[{"name":"protocol","type":"uint256","internalType":"uint256"},{"name":"pointer","type":"string","internalType":"string"}]}],"anonymous":false},{"type":"event","name":"PoolFunded","inputs":[{"name":"poolId","type":"uint256","indexed":true,"internalType":"uint256"},{"name":"amount","type":"uint256","indexed":false,"internalType":"uint256"},{"name":"fee","type":"uint256","indexed":false,"internalType":"uint256"}],"anonymous":false},{"type":"event","name":"PoolMetadataUpdated","inputs":[{"name":"poolId","type":"uint256","indexed":true,"internalType":"uint256"},{"name":"metadata","type":"tuple","indexed":false,"internalType":"struct Metadata","components":[{"name":"protocol","type":"uint256","internalType":"uint256"},{"name":"pointer","type":"string","internalType":"string"}]}],"anonymous":false},{"type":"event","name":"RegistryUpdated","inputs":[{"name":"registry","type":"address","indexed":false,"internalType":"address"}],"anonymous":false},{"type":"event","name":"RoleAdminChanged","inputs":[{"name":"role","type":"bytes32","indexed":true,"internalType":"bytes32"},{"name":"previousAdminRole","type":"bytes32","indexed":true,"internalType":"bytes32"},{"name":"newAdminRole","type":"bytes32","indexed":true,"internalType":"bytes32"}],"anonymous":false},{"type":"event","name":"RoleGranted","inputs":[{"name":"role","type":"bytes32","indexed":true,"internalType":"bytes32"},{"name":"account","type":"address","indexed":true,"internalType":"address"},{"name":"sender","type":"address","indexed":true,"internalType":"address"}],"anonymous":false},{"type":"event","name":"RoleRevoked","inputs":[{"name":"role","type":"bytes32","indexed":true,"internalType":"bytes32"},{"name":"account","type":"address","indexed":true,"internalType":"address"},{"name":"sender","type":"address","indexed":true,"internalType":"address"}],"anonymous":false},{"type":"event","name":"StrategyApproved","inputs":[{"name":"strategy","type":"address","indexed":false,"internalType":"address"}],"anonymous":false},{"type":"event","name":"StrategyRemoved","inputs":[{"name":"strategy","type":"address","indexed":false,"internalType":"address"}],"anonymous":false},{"type":"event","name":"TreasuryUpdated","inputs":[{"name":"treasury","type":"address","indexed":false,"internalType":"address"}],"anonymous":false},{"type":"error","name":"ALLOCATION_ACTIVE","inputs":[]},{"type":"error","name":"ALLOCATION_NOT_ACTIVE","inputs":[]},{"type":"error","name":"ALLOCATION_NOT_ENDED","inputs":[]},{"type":"error","name":"ALREADY_INITIALIZED","inputs":[]},{"type":"error","name":"AMOUNT_MISMATCH","inputs":[]},{"type":"error","name":"ANCHOR_ERROR","inputs":[]},{"type":"error","name":"ARRAY_MISMATCH","inputs":[]},{"type":"error","name":"INVALID","inputs":[]},{"type":"error","name":"INVALID_ADDRESS","inputs":[]},{"type":"error","name":"INVALID_FEE","inputs":[]},{"type":"error","name":"INVALID_METADATA","inputs":[]},{"type":"error","name":"INVALID_REGISTRATION","inputs":[]},{"type":"error","name":"IS_APPROVED_STRATEGY","inputs":[]},{"type":"error","name":"MISMATCH","inputs":[]},{"type":"error","name":"NONCE_NOT_AVAILABLE","inputs":[]},{"type":"error","name":"NON_ZERO_VALUE","inputs":[]},{"type":"error","name":"NOT_APPROVED_STRATEGY","inputs":[]},{"type":"error","name":"NOT_ENOUGH_FUNDS","inputs":[]},{"type":"error","name":"NOT_IMPLEMENTED","inputs":[]},{"type":"error","name":"NOT_INITIALIZED","inputs":[]},{"type":"error","name":"NOT_PENDING_OWNER","inputs":[]},{"type":"error","name":"NewOwnerIsZeroAddress","inputs":[]},{"type":"error","name":"NoHandoverRequest","inputs":[]},{"type":"error","name":"POOL_ACTIVE","inputs":[]},{"type":"error","name":"POOL_INACTIVE","inputs":[]},{"type":"error","name":"RECIPIENT_ALREADY_ACCEPTED","inputs":[]},{"type":"error","name":"RECIPIENT_ERROR","inputs":[{"name":"recipientId","type":"address","internalType":"address"}]},{"type":"error","name":"RECIPIENT_NOT_ACCEPTED","inputs":[]},{"type":"error","name":"REGISTRATION_ACTIVE","inputs":[]},{"type":"error","name":"REGISTRATION_NOT_ACTIVE","inputs":[]},{"type":"error","name":"UNAUTHORIZED","inputs":[]},{"type":"error","name":"Unauthorized","inputs":[]},{"type":"error","name":"ZERO_ADDRESS","inputs":[]}],"bytecode":{"object":"0x6080806040523461001657612bdd908161001c8239f35b600080fdfe6080806040526004908136101561001557600080fd5b600091823560e01c91826301ffc9a71461188b57508163031e2fa114611821578163068bcd8d1461166d578163075c0e9c146115da57816315e812ad146115bc5781631a20bd88146113f45781631a5da6c8146113ca578163248a9ca31461139d57816324ae6a271461128b578163256929621461124057816329e40d4b146112195781632cf682b0146111ba5781632ec38188146111975781632f2ff15d1461115957816336568abe146110c85781633a5fbd9214610fd95781633b19e84a14610fb057816341bba0b414610f295781634edbaadc14610f0b57816354d1f13d14610ec55781635ab1bd5314610e9c5781635acd6fac14610b225781635f9ca1381461096a578163715018a61461093657816377da8caf146108115781637f51bb1f146107ec5781637f5a70bd146107ae5781638da5cb5b146107815781638e6901861461075c57816391d1485414610711578163a0cf0aea146106e2578163a217fddf146106c6578163a6b63eb81461057d578163ab2ec5891461053e578163ab3febc6146104fe578163c6dff1cf14610438578163cfc0cc3414610403578163d547741f146103c5578163e1007d4a14610355578163f04e283e146102e7578163f2fde38b1461028c578163f4e1fc4114610269578163f54fc4a01461023d575063fee81cf41461020857600080fd5b3461023a57602036600319011261023a576102216118de565b9063389a75e1600c5252602080600c2054604051908152f35b80fd5b905034610265576020366003190112610265576102629061025c61268b565b356124f6565b80f35b5080fd5b823461023a578060031936011261023a576020604051670de0b6b3a76400008152f35b90506020366003190112610265576102a26118de565b906102ab61268b565b8160601b156102dc575060018060a01b0316638b78c6d819818154600080516020612b518339815191528580a35580f35b637448fbae8352601cfd5b90506020366003190112610265576102fd6118de565b9061030661268b565b63389a75e1600c528183526020600c20908154421161034a575082905560018060a01b0316638b78c6d819818154600080516020612b518339815191528580a35580f35b636f5e88188452601cfd5b905061036036611c39565b979096919592946001600160a01b031692919083156103b5576040818560ff935260d06020522054166103a657602061039e89898989898989611dcf565b604051908152f35b60405163eeffa72160e01b8152fd5b5060405163538ba4f960e01b8152fd5b9050346102655760403660031901126102655761026290356103e56118f4565b9080845260656020526103fe60016040862001546126ee565b612a53565b905034610265576020366003190112610265579060209135815260cf825260016040818060a01b039220015416604051908152f35b823461023a57604036600319011261023a5781356001600160401b038082116104fa57366023830112156104fa5781840135918183116104f657602490600592368386861b840101116104f25782359081116104f25761049b9036908801611ab6565b956104a4612ac9565b865185036104e35750845b8481106104bf5785600160975580f35b806104dd6104cf6001938a611d65565b518583881b86010135612393565b016104af565b60405163636e39bb60e01b8152fd5b8580fd5b8380fd5b8280fd5b9050346102655760403660031901126102655761053490600660406020946105246118f4565b9335815260cf86522001546126c6565b6040519015158152f35b823461023a57602036600319011261023a5760209060ff906040906001600160a01b036105696118de565b16815260d084522054166040519015158152f35b9050346102655760a0366003190112610265576105986118de565b906105a16118f4565b6044359290916001600160a01b03919082851685036106c15785549060ff8260081c1615806106b4575b15610659575061ffff191661010117855516638b78c6d81981905561060c92916106079185600080516020612b518339815191528180a3612458565b6124a7565b6106176064356124f6565b610622608435612548565b61ff001981541681557f7f26b83ff96e1f2b6a682f133852f6798a09c465da95921460cefb3847402498602060405160018152a180f35b60849060206040519162461bcd60e51b8352820152602e60248201527f496e697469616c697a61626c653a20636f6e747261637420697320616c72656160448201526d191e481a5b9a5d1a585b1a5e995960921b6064820152fd5b50600160ff8316106105cb565b600080fd5b823461023a578060031936011261023a57602090604051908152f35b823461023a578060031936011261023a57602060405173eeeeeeeeeeeeeeeeeeeeeeeeeeeeeeeeeeeeeeee8152f35b823461023a57604036600319011261023a5760409061072e6118f4565b923581526065602052209060018060a01b0316600052602052602060ff604060002054166040519015158152f35b905034610265576020366003190112610265576102629061077b61268b565b35612548565b823461023a578060031936011261023a57638b78c6d819546040516001600160a01b039091168152602090f35b9050346102655760403660031901126102655761026290356107ce6118f4565b906107d881611d8f565b835260cf6020526005604084200154612a53565b823461023a57602036600319011261023a576102626108096118de565b61060761268b565b8261081b36611c39565b959094610829949294612ac9565b60018060a01b0390818116895260209860d08a5260ff6040822054161561092557600960379133815260ce8c526e5af43d82803e903d91602b57fd5bf36040822080549061087682611cbf565b90558d604051908101913360601b8352603482015260348152610898816119d1565b51902094763d602d80600a3d3981f3363d3d373d3d3d363d7300000062ffffff8260881c1617835260781b178c52f5169081156108e7576108da979850611dcf565b6001609755604051908152f35b60405162461bcd60e51b8152808a018990526017602482015276115490cc4c4d8dce8818dc99585d194c8819985a5b1959604a1b6044820152606490fd5b60405163126d324760e31b81528b90fd5b828060031936011261023a5761094a61268b565b80638b78c6d819818154600080516020612b518339815191528280a35580f35b823461023a57604036600319011261023a5781356001600160401b036024358181116104f65761099d9036908601611be1565b906109a83384612415565b15610b115782845260209060cf8252856040862084516003820155019082840151968751918211610afe57506109de8254611ce4565b601f8111610abb575b5082601f8211600114610a495781908798600080516020612b91833981519152979892610a3e575b50508160011b916000199060031b1c19161790555b610a38604051928284938452830190611952565b0390a280f35b015190508880610a0f565b82875283872097601f198316885b818110610aa4575091600080516020612b9183398151915297989991846001959410610a8b575b505050811b019055610a24565b015160001960f88460031b161c19169055888080610a7e565b838301518b556001909a0199928601928601610a57565b828752838720601f830160051c810191858410610af4575b601f0160051c01905b818110610ae957506109e7565b878155600101610adc565b9091508190610ad3565b634e487b7160e01b875260419052602486fd5b60405163075fd2b160e01b81528590fd5b9050604036600319011261026557610b38612ac9565b60243515610e8d578035825260cf602052604082209060405191610b5b83611972565b8054835260018101546001600160a01b03908116602085015260028201541660408085019190915251610b8d816119a3565b6003820154815260405183830180548791610ba782611ce4565b8085529160018116908115610e665750600114610e1f575b505090610bd281600695949303826119ec565b6020820152606085015260058101546080850152015460a0830152604082015173eeeeeeeeeeeeeeeeeeeeeeeeeeeeeeeeeeeeeeee92906001600160a01b0316831480610e13575b610e03576020908101518235855260cf909152604084206002015460c9546024359486936001600160a01b0390811693169180610d00575b508103610ca65791610c8f600080516020612b718339815191529492604094855191610c7d836119d1565b33835260208301528786830152612579565b505b825194855260208501523592a2600160975580f35b60409294610cf58383610cef610ccf600080516020612b718339815191529997610cfa97612637565b94885190610cdc826119d1565b3382528460208301528982015282612579565b50612637565b612408565b93610c91565b9193509450806024350290602435820403610dee57670de0b6b3a7640000900491610d2d83602435612408565b94602435610d3b8786611dc2565b03610ddd57818103610d7f5760cc54604051610d77916001600160a01b0316610d63826119d1565b338252602082015285604082015283612579565b505b38610c52565b60cc549093610dd791610dc0906001600160a01b0316610d9f8186612637565b9260405191610dad836119d1565b3383526020830152604082015284612579565b5060cc54610cf5906001600160a01b031684612637565b92610d79565b604051637fcce2a960e01b81528590fd5b601184634e487b7160e01b6000525260246000fd5b506040516303e09bb960e31b8152fd5b50346024351415610c1a565b885260208820949392915087905b808210610e48575092935090918101602001610bd282610bbf565b91929394600181602092548385880101520191019094939291610e2d565b60ff191660208087019190915292151560051b85019092019250610bd29150839050610bbf565b6040516303e09bb960e31b8152fd5b823461023a578060031936011261023a5760cd546040516001600160a01b039091168152602090f35b828060031936011261023a5763389a75e1600c52338152806020600c2055337ffa7b8eab7da67f412cc9575ed43464468f9bfbae89d1675917346ca6d8fe3c928280a280f35b823461023a578060031936011261023a57602060c954604051908152f35b90503461026557602036600319011261026557610f446118de565b610f4c61268b565b6001600160a01b0316908115610fa157506020817f960dd94cbb79169f09a4e445d58b895df2d9bffa5b31055d0932d801724a20d192845260d0825260408420600160ff19825416179055604051908152a180f35b60405163538ba4f960e01b8152fd5b823461023a578060031936011261023a5760cc546040516001600160a01b039091168152602090f35b9050346102655781600319606036820112610265576001600160401b03906024358281116104f65761100e9036908601611b73565b916044359081116104f6576110269036908601611a55565b61102e612ac9565b8435845260cf60205260408420600101546001600160a01b031691823b156110c45761107d9561108c8692606094604051998a9889978896630a6f0ee960e01b88528701526064860190611b36565b9184830301602485015261192d565b33604483015203925af180156110b9576110aa575b50600160975580f35b6110b3906119be565b386110a1565b6040513d84823e3d90fd5b8480fd5b823461023a57604036600319011261023a576110e26118f4565b336001600160a01b038216036110fd57610262919235612a53565b60405162461bcd60e51b8152602081850152602f60248201527f416363657373436f6e74726f6c3a2063616e206f6e6c792072656e6f756e636560448201526e103937b632b9903337b91039b2b63360891b6064820152608490fd5b9050346102655760403660031901126102655761026290356111796118f4565b90808452606560205261119260016040862001546126ee565b6129d9565b826111b26111a436611a70565b906111ad612ac9565b612393565b600160975580f35b823461023a57604036600319011261023a5781356111d66118f4565b906111e081611d8f565b6001600160a01b03821615611208579061026291835260cf60205260056040842001546129d9565b60405163538ba4f960e01b81528490fd5b823461023a57604036600319011261023a576020610534836112396118f4565b9035612415565b828060031936011261023a5763389a75e1600c523381526202a30042016020600c2055337fdbf36a107da19e49527a7176a1babf963b4b0ff8cde35ee35d6cd8f1f9ac7e1d8280a280f35b905034610265576040366003190112610265576112a66118de565b6112ae6118f4565b6112b661268b565b6001600160a01b03821673eeeeeeeeeeeeeeeeeeeeeeeeeeeeeeeeeeeeeeee8114928591841561132f575047935b156112f557505061026292506126a8565b816010916020956044949560145260345263a9059cbb60601b82525af13d156001845114171615611324575080f35b6390b8ec188252601cfd5b6020602491604051928380926370a0823160e01b8252308b8301525afa908115611392578391611361575b50936112e4565b90506020813d821161138a575b8161137b602093836119ec565b810103126104fa57513861135a565b3d915061136e565b6040513d85823e3d90fd5b90503461026557602036600319011261026557604060209260019235815260658452200154604051908152f35b823461023a57602036600319011261023a576102626113e76118de565b6113ef61268b565b612458565b905034610265576040366003190112610265578035916001600160401b0391828411610265573660238501121561026557838101359261143384611a9f565b9461144160405196876119ec565b84865260209460248688019160051b830101913683116104f2576024879101915b8383106115ac57505050506024359081116104fa576114849036908301611ab6565b9161148d612ac9565b84519161149983611a9f565b956114a760405197886119ec565b838752601f196114b685611a9f565b0136878901378451840361159c57825b8481106114e9576001609755604051878152806114e5818a018b611b36565b0390f35b6114f38183611d65565b51845260cf875260018060a01b039061153b6001928986828660408b2001541661151d868d611d65565b518a6040518097819582946315df065760e11b845233918401611d3d565b03925af1918215611591578792611562575b50611558838c611d65565b91169052016114c6565b6115839192508a3d8c1161158a575b61157b81836119ec565b810190611d1e565b903861154d565b503d611571565b6040513d89823e3d90fd5b5060405163636e39bb60e01b8152fd5b8235815291810191879101611462565b823461023a578060031936011261023a57602060ca54604051908152f35b611629915060206115ea36611a70565b92906115f4612ac9565b855260cf825260018060a01b039283600160408820015416906040518096819482936315df065760e11b845233918401611d3d565b039134905af1918215611392576020939261164e575b50600160975560405191168152f35b611666919250833d811161158a5761157b81836119ec565b903861163f565b823461023a5760209182600319360112610265578160a060405161169081611972565b82815282868201528260408201526040516116aa816119a3565b838152606087820152606082015282608082015201528035825260cf835260408220604051916116d983611972565b815483526001808301546001600160a01b0390811687860190815260028501548216604080880191825251919491939091611713856119a3565b60038701548552860189604051928a83549361172e85611ce4565b808752948381169081156117fc57506001146117c0575b505050505061175c816117af9697989903826119ec565b888401526060870192835281600660058801549760808a0198895201549560a08901968752604051998a99818b5251908a015251166040880152511660608601525160c0608086015260e0850190611952565b915160a08401525160c08301520390f35b908094939c50528a83205b8284106117e95750505081019097019661175c896117af838d611745565b80548585018d0152928b019281016117cb565b60ff1916858801525050505090151560051b820101975061175c896117af838d611745565b823461023a57602036600319011261023a577f09a1db4b80c32706328728508c941a6b954f31eb5affd32f236c1fd405f8fea4602061185e6118de565b61186661268b565b6001600160a01b031680845260d082526040808520805460ff1916905551908152a180f35b9150346104fa5760203660031901126104fa573563ffffffff60e01b81168091036104fa5760209250637965db0b60e01b81149081156118cd575b5015158152f35b6301ffc9a760e01b149050386118c6565b600435906001600160a01b03821682036106c157565b602435906001600160a01b03821682036106c157565b60005b83811061191d5750506000910152565b818101518382015260200161190d565b906020916119468151809281855285808601910161190a565b601f01601f1916010190565b906040602061196f9380518452015191816020820152019061192d565b90565b60c081019081106001600160401b0382111761198d57604052565b634e487b7160e01b600052604160045260246000fd5b604081019081106001600160401b0382111761198d57604052565b6001600160401b03811161198d57604052565b606081019081106001600160401b0382111761198d57604052565b601f909101601f19168101906001600160401b0382119082101761198d57604052565b9192916001600160401b03821161198d5760405191611a38601f8201601f1916602001846119ec565b8294818452818301116106c1578281602093846000960137010152565b9080601f830112156106c15781602061196f93359101611a0f565b9060406003198301126106c15760043591602435906001600160401b0382116106c15761196f91600401611a55565b6001600160401b03811161198d5760051b60200190565b9080601f830112156106c157813590611ace82611a9f565b92611adc60405194856119ec565b828452602092838086019160051b830101928084116106c157848301915b848310611b0a5750505050505090565b82356001600160401b0381116106c1578691611b2b84848094890101611a55565b815201920191611afa565b90815180825260208080930193019160005b828110611b56575050505090565b83516001600160a01b031685529381019392810192600101611b48565b81601f820112156106c157803591611b8a83611a9f565b92611b9860405194856119ec565b808452602092838086019260051b8201019283116106c1578301905b828210611bc2575050505090565b81356001600160a01b03811681036106c1578152908301908301611bb4565b91906040838203126106c15760405190611bfa826119a3565b8335825290928391906020810135906001600160401b0382116106c1570181601f820112156106c1576020918183611c3493359101611a0f565b910152565b60e06003198201126106c157600435916001600160a01b039060243582811681036106c157926001600160401b03906044358281116106c15781611c7f91600401611a55565b9360643590811681036106c157926084359260a4358181116106c15783611ca891600401611be1565b9260c4359182116106c15761196f91600401611b73565b6000198114611cce5760010190565b634e487b7160e01b600052601160045260246000fd5b90600182811c92168015611d14575b6020831014611cfe57565b634e487b7160e01b600052602260045260246000fd5b91607f1691611cf3565b908160209103126106c157516001600160a01b03811681036106c15790565b90611d5560209194939460408452604084019061192d565b6001600160a01b03909416910152565b8051821015611d795760209160051b010190565b634e487b7160e01b600052603260045260246000fd5b60005260cf602052611da9336006604060002001546126c6565b15611db057565b60405163075fd2b160e01b8152600490fd5b91908201809211611cce57565b949695939291966000946044602060018060a01b0360cd541660405192838092635e8a791560e01b82528c60048301523360248301525afa908115611591578791612354575b5015611db057611e2660cb54611cbf565b958660cb55869960405160208101908982526430b236b4b760d91b604082015260258152611e53816119d1565b51902090604051611e6381611972565b8a8152602081019060018060a01b038816825260206040820160018060a01b038b16815260608301908982528d60808501528660a08501528d885260cf8352604088209484518655600186019060018060a01b039051169060018060a01b03199182825416179055600286019160018060a01b03905116908254161790555180516003850155015180519060018060401b03821161234057611f086004850154611ce4565b601f81116122fc575b50602090601f831160011461228a5791806006949260a0948a9261227f575b50508160011b916000199060031b1c19161760048501555b608081015160058501550151910155611f6133836129d9565b888352606560205260016040842001918083549355604051928a7fbd79b86ffe0ab8e8776151514217cd7cacd52c909f66475c3af44e129f0b00ff8680a46001600160a01b0386163b156104fa578180611fd78593633b7451b360e21b83528c600484015260406024840152604483019061192d565b0381836001600160a01b038a165af180156110b957612270575b5060405163038fff2d60e41b81529091906020816004816001600160a01b0389165afa90811561139257908891849161223b575b50148015906121b9575b6121a7578051915b8281106121685750505060ca5480612097575b5061209290600080516020612bb18339815191529460405194859460018060a01b0316855260018060a01b031660208501526040840152608060608401526080830190611952565b0390a3565b906001600160a01b03841673eeeeeeeeeeeeeeeeeeeeeeeeeeeeeeeeeeeeeeee148080612153575b811561213a575b5061212857600080516020612bb1833981519152946120f26120929360018060a01b0360cc54166126a8565b867f02e340b51c6ae66fd22509c9b016f224c47a54063d4259fe3d860958e9eaac72602060ca54604051908152a294509061204a565b6040516303e09bb960e31b8152600490fd5b90501580612149575b386120c6565b5034821415612143565b905061215f8684611dc2565b341415906120bf565b6001600160a01b0361217a8284611d65565b51169081156121955761218f6001928a6129d9565b01612037565b60405163538ba4f960e01b8152600490fd5b60405163636e39bb60e01b8152600490fd5b50604051630ae6240f60e11b81526020816004816001600160a01b0389165afa9081156113925783916121f9575b506001600160a01b031630141561202f565b90506020813d602011612233575b81612214602093836119ec565b810103126104fa57516001600160a01b03811681036104fa57386121e7565b3d9150612207565b9150506020813d602011612268575b81612257602093836119ec565b810103126106c15787905138612025565b3d915061224a565b612279906119be565b38611ff1565b015190503880611f30565b906004850188526020882091885b601f19851681106122e45750926006949260019260a09583601f198116106122cb575b505050811b016004850155611f48565b015160001960f88460031b161c191690553880806122bb565b91926020600181928685015181550194019201612298565b60048501885260208820601f840160051c810160208510612339575b601f830160051c8201811061232e575050611f11565b898155600101612318565b5080612318565b634e487b7160e01b87526041600452602487fd5b90506020813d60201161238b575b8161236f602093836119ec565b81010312612387575180151581036123875738611e15565b8680fd5b3d9150612362565b600090815260cf60205260408120600101549091906001600160a01b0316803b156104fa579180916123dc936040518080968194633bca483f60e21b8352339060048401611d3d565b039134905af19081156123fc57506123f15750565b6123fa906119be565b565b604051903d90823e3d90fd5b91908203918211611cce57565b908160005260cf602052612431816005604060002001546126c6565b91821561243d57505090565b61196f925060005260cf6020526006604060002001546126c6565b6001600160a01b031680156121955760cd80546001600160a01b031916821790556040519081527fd6ceddf6d2a22f21c7c81675c518004eff43bc5c8a6fc32a0b748e69d58671cd90602090a1565b6001600160a01b031680156121955760cc80546001600160a01b031916821790556040519081527f7dae230f18360d76a040c81f050aa14eb9d6dc7901b20fc5d855e2a20fe814d190602090a1565b670de0b6b3a76400008111612536576020817f9e826789de2de708fd9f09edea1182545e543893caa8ff71f8eb3aab50a4b0659260c955604051908152a1565b604051632fb15b8760e01b8152600490fd5b60207f803bee7e92bbc6ae7a1551f9f4ed3e31a8ea8df32e93332f41b0028f1091f9c3918060ca55604051908152a1565b6040820151906001600160a01b039081811673eeeeeeeeeeeeeeeeeeeeeeeeeeeeeeeeeeeeeeee036125d257508134106125c05760206125bb930151166126a8565b600190565b6040516374c5672b60e01b8152600490fd5b601c6000606492868295602080989951920151166040519860605260405260018060601b03199060601b16602c526323b872dd60601b600c525af13d15600160005114171615612629576000606052604052600190565b637939f4246000526004601cfd5b6001600160a01b03919082811673eeeeeeeeeeeeeeeeeeeeeeeeeeeeeeeeeeeeeeee036126645750163190565b60209250601060249184936014526370a0823160601b6000525afa601f3d11166020510290565b638b78c6d81954330361269a57565b6382b429006000526004601cfd5b600080809381935af1156126b857565b63b12d13eb6000526004601cfd5b600052606560205260406000209060018060a01b031660005260205260ff6040600020541690565b60009080825260209060658252604092838120338252835260ff8482205416156127185750505050565b33845192612725846119d1565b602a845284840190863683378451156129c557603082538451926001938410156129b1576078602187015360295b848111612947575061291757865192608084016001600160401b03811185821017612903578852604284528684019460603687378451156128ef576030865384518210156128ef5790607860218601536041915b818311612881575050506128515761284d938693612831936128226048946127f99a519a8b9576020b1b1b2b9b9a1b7b73a3937b61d1030b1b1b7bab73a1604d1b8c880152518092603788019061190a565b8401917001034b99036b4b9b9b4b733903937b6329607d1b60378401525180938684019061190a565b010360288101875201856119ec565b5192839262461bcd60e51b84526004840152602483019061192d565b0390fd5b60648587519062461bcd60e51b82528060048301526024820152600080516020612b318339815191526044820152fd5b909192600f811660108110156128db576f181899199a1a9b1b9c1cb0b131b232b360811b901a6128b18588612b1f565b5360041c9280156128c7576000190191906127a7565b634e487b7160e01b82526011600452602482fd5b634e487b7160e01b83526032600452602483fd5b634e487b7160e01b81526032600452602490fd5b634e487b7160e01b86526041600452602486fd5b60648688519062461bcd60e51b82528060048301526024820152600080516020612b318339815191526044820152fd5b90600f8116601081101561299d576f181899199a1a9b1b9c1cb0b131b232b360811b901a6129758389612b1f565b5360041c9080156129895760001901612753565b634e487b7160e01b86526011600452602486fd5b634e487b7160e01b87526032600452602487fd5b634e487b7160e01b85526032600452602485fd5b634e487b7160e01b84526032600452602484fd5b906000918083526065602052604083209160018060a01b03169182845260205260ff60408420541615612a0b57505050565b80835260656020526040832082845260205260408320600160ff198254161790557f2f8788117e7eff1d82e926ec794901d17c78024a50270940304540a733656f0d339380a4565b906000918083526065602052604083209160018060a01b03169182845260205260ff604084205416612a8457505050565b8083526065602052604083208284526020526040832060ff1981541690557ff6391f5c32d9c69d2a47ea670b442974b53935d1edc7fd64eb21e047a839171b339380a4565b600260975414612ada576002609755565b60405162461bcd60e51b815260206004820152601f60248201527f5265656e7472616e637947756172643a207265656e7472616e742063616c6c006044820152606490fd5b908151811015611d7957016020019056fe537472696e67733a20686578206c656e67746820696e73756666696369656e748be0079c531659141344cd1fd0a4f28419497f9722a3daafe3b4186f6b6457e0bf59838198f4ea92f663f5c1fc697f151a1b746b7dff86d564f250a55cbb485114f52b76bda9e4c482842cefda2968d332933577988f224e80aae18fba10edf069bcb5a6cf6a3c95185cbb451e77787240c866dd2e8332597e3013ff18a1aba1a164736f6c6343000813000a","linkReferences":{}},"methodIdentifiers":{"DEFAULT_ADMIN_ROLE()":"a217fddf","NATIVE()":"a0cf0aea","addPoolManager(uint256,address)":"2cf682b0","addToCloneableStrategies(address)":"41bba0b4","allocate(uint256,bytes)":"2ec38188","batchAllocate(uint256[],bytes[])":"c6dff1cf","batchRegisterRecipient(uint256[],bytes[])":"1a20bd88","cancelOwnershipHandover()":"54d1f13d","completeOwnershipHandover(address)":"f04e283e","createPool(bytes32,address,bytes,address,uint256,(uint256,string),address[])":"77da8caf","createPoolWithCustomStrategy(bytes32,address,bytes,address,uint256,(uint256,string),address[])":"e1007d4a","distribute(uint256,address[],bytes)":"3a5fbd92","fundPool(uint256,uint256)":"5acd6fac","getBaseFee()":"15e812ad","getFeeDenominator()":"f4e1fc41","getPercentFee()":"4edbaadc","getPool(uint256)":"068bcd8d","getRegistry()":"5ab1bd53","getRoleAdmin(bytes32)":"248a9ca3","getStrategy(uint256)":"cfc0cc34","getTreasury()":"3b19e84a","grantRole(bytes32,address)":"2f2ff15d","hasRole(bytes32,address)":"91d14854","initialize(address,address,address,uint256,uint256)":"a6b63eb8","isCloneableStrategy(address)":"ab2ec589","isPoolAdmin(uint256,address)":"ab3febc6","isPoolManager(uint256,address)":"29e40d4b","owner()":"8da5cb5b","ownershipHandoverExpiresAt(address)":"fee81cf4","recoverFunds(address,address)":"24ae6a27","registerRecipient(uint256,bytes)":"075c0e9c","removeFromCloneableStrategies(address)":"031e2fa1","removePoolManager(uint256,address)":"7f5a70bd","renounceOwnership()":"715018a6","renounceRole(bytes32,address)":"36568abe","requestOwnershipHandover()":"25692962","revokeRole(bytes32,address)":"d547741f","supportsInterface(bytes4)":"01ffc9a7","transferOwnership(address)":"f2fde38b","updateBaseFee(uint256)":"8e690186","updatePercentFee(uint256)":"f54fc4a0","updatePoolMetadata(uint256,(uint256,string))":"5f9ca138","updateRegistry(address)":"1a5da6c8","updateTreasury(address)":"7f51bb1f"},"storageLayout":{"storage":[{"astId":52222,"contract":"lib/allo-v2/contracts/core/Allo.sol:Allo","label":"_initialized","offset":0,"slot":"0","type":"t_uint8"},{"astId":52225,"contract":"lib/allo-v2/contracts/core/Allo.sol:Allo","label":"_initializing","offset":1,"slot":"0","type":"t_bool"},{"astId":52927,"contract":"lib/allo-v2/contracts/core/Allo.sol:Allo","label":"__gap","offset":0,"slot":"1","type":"t_array(t_uint256)50_storage"},{"astId":53201,"contract":"lib/allo-v2/contracts/core/Allo.sol:Allo","label":"__gap","offset":0,"slot":"51","type":"t_array(t_uint256)50_storage"},{"astId":51621,"contract":"lib/allo-v2/contracts/core/Allo.sol:Allo","label":"_roles","offset":0,"slot":"101","type":"t_mapping(t_bytes32,t_struct(RoleData)51616_storage)"},{"astId":51928,"contract":"lib/allo-v2/contracts/core/Allo.sol:Allo","label":"__gap","offset":0,"slot":"102","type":"t_array(t_uint256)49_storage"},{"astId":52399,"contract":"lib/allo-v2/contracts/core/Allo.sol:Allo","label":"_status","offset":0,"slot":"151","type":"t_uint256"},{"astId":52468,"contract":"lib/allo-v2/contracts/core/Allo.sol:Allo","label":"__gap","offset":0,"slot":"152","type":"t_array(t_uint256)49_storage"},{"astId":34,"contract":"lib/allo-v2/contracts/core/Allo.sol:Allo","label":"percentFee","offset":0,"slot":"201","type":"t_uint256"},{"astId":37,"contract":"lib/allo-v2/contracts/core/Allo.sol:Allo","label":"baseFee","offset":0,"slot":"202","type":"t_uint256"},{"astId":40,"contract":"lib/allo-v2/contracts/core/Allo.sol:Allo","label":"_poolIndex","offset":0,"slot":"203","type":"t_uint256"},{"astId":43,"contract":"lib/allo-v2/contracts/core/Allo.sol:Allo","label":"treasury","offset":0,"slot":"204","type":"t_address_payable"},{"astId":47,"contract":"lib/allo-v2/contracts/core/Allo.sol:Allo","label":"registry","offset":0,"slot":"205","type":"t_contract(IRegistry)2821"},{"astId":52,"contract":"lib/allo-v2/contracts/core/Allo.sol:Allo","label":"_nonces","offset":0,"slot":"206","type":"t_mapping(t_address,t_uint256)"},{"astId":58,"contract":"lib/allo-v2/contracts/core/Allo.sol:Allo","label":"pools","offset":0,"slot":"207","type":"t_mapping(t_uint256,t_struct(Pool)2302_storage)"},{"astId":63,"contract":"lib/allo-v2/contracts/core/Allo.sol:Allo","label":"cloneableStrategies","offset":0,"slot":"208","type":"t_mapping(t_address,t_bool)"}],"types":{"t_address":{"encoding":"inplace","label":"address","numberOfBytes":"20"},"t_address_payable":{"encoding":"inplace","label":"address payable","numberOfBytes":"20"},"t_array(t_uint256)49_storage":{"encoding":"inplace","label":"uint256[49]","numberOfBytes":"1568","base":"t_uint256"},"t_array(t_uint256)50_storage":{"encoding":"inplace","label":"uint256[50]","numberOfBytes":"1600","base":"t_uint256"},"t_bool":{"encoding":"inplace","label":"bool","numberOfBytes":"1"},"t_bytes32":{"encoding":"inplace","label":"bytes32","numberOfBytes":"32"},"t_contract(IRegistry)2821":{"encoding":"inplace","label":"contract IRegistry","numberOfBytes":"20"},"t_contract(IStrategy)2945":{"encoding":"inplace","label":"contract IStrategy","numberOfBytes":"20"},"t_mapping(t_address,t_bool)":{"encoding":"mapping","key":"t_address","label":"mapping(address => bool)","numberOfBytes":"32","value":"t_bool"},"t_mapping(t_address,t_uint256)":{"encoding":"mapping","key":"t_address","label":"mapping(address => uint256)","numberOfBytes":"32","value":"t_uint256"},"t_mapping(t_bytes32,t_struct(RoleData)51616_storage)":{"encoding":"mapping","key":"t_bytes32","label":"mapping(bytes32 => struct AccessControlUpgradeable.RoleData)","numberOfBytes":"32","value":"t_struct(RoleData)51616_storage"},"t_mapping(t_uint256,t_struct(Pool)2302_storage)":{"encoding":"mapping","key":"t_uint256","label":"mapping(uint256 => struct IAllo.Pool)","numberOfBytes":"32","value":"t_struct(Pool)2302_storage"},"t_string_storage":{"encoding":"bytes","label":"string","numberOfBytes":"32"},"t_struct(Metadata)3080_storage":{"encoding":"inplace","label":"struct Metadata","numberOfBytes":"64","members":[{"astId":3076,"contract":"lib/allo-v2/contracts/core/Allo.sol:Allo","label":"protocol","offset":0,"slot":"0","type":"t_uint256"},{"astId":3079,"contract":"lib/allo-v2/contracts/core/Allo.sol:Allo","label":"pointer","offset":0,"slot":"1","type":"t_string_storage"}]},"t_struct(Pool)2302_storage":{"encoding":"inplace","label":"struct IAllo.Pool","numberOfBytes":"224","members":[{"astId":2289,"contract":"lib/allo-v2/contracts/core/Allo.sol:Allo","label":"profileId","offset":0,"slot":"0","type":"t_bytes32"},{"astId":2292,"contract":"lib/allo-v2/contracts/core/Allo.sol:Allo","label":"strategy","offset":0,"slot":"1","type":"t_contract(IStrategy)2945"},{"astId":2294,"contract":"lib/allo-v2/contracts/core/Allo.sol:Allo","label":"token","offset":0,"slot":"2","type":"t_address"},{"astId":2297,"contract":"lib/allo-v2/contracts/core/Allo.sol:Allo","label":"metadata","offset":0,"slot":"3","type":"t_struct(Metadata)3080_storage"},{"astId":2299,"contract":"lib/allo-v2/contracts/core/Allo.sol:Allo","label":"managerRole","offset":0,"slot":"5","type":"t_bytes32"},{"astId":2301,"contract":"lib/allo-v2/contracts/core/Allo.sol:Allo","label":"adminRole","offset":0,"slot":"6","type":"t_bytes32"}]},"t_struct(RoleData)51616_storage":{"encoding":"inplace","label":"struct AccessControlUpgradeable.RoleData","numberOfBytes":"64","members":[{"astId":51613,"contract":"lib/allo-v2/contracts/core/Allo.sol:Allo","label":"members","offset":0,"slot":"0","type":"t_mapping(t_address,t_bool)"},{"astId":51615,"contract":"lib/allo-v2/contracts/core/Allo.sol:Allo","label":"adminRole","offset":0,"slot":"1","type":"t_bytes32"}]},"t_uint256":{"encoding":"inplace","label":"uint256","numberOfBytes":"32"},"t_uint8":{"encoding":"inplace","label":"uint8","numberOfBytes":"1"}}},"id":0}