{"abi":[{"type":"function","name":"DISPUTE_COOLDOWN_SEC","inputs":[],"outputs":[{"name":"","type":"uint256","internalType":"uint256"}],"stateMutability":"view"},{"type":"function","name":"MAX_ALLOCATIONS_PER_TX","inputs":[],"outputs":[{"name":"","type":"uint256","internalType":"uint256"}],"stateMutability":"view"},{"type":"function","name":"MAX_PROPOSAL_COUNT","inputs":[],"outputs":[{"name":"","type":"uint256","internalType":"uint256"}],"stateMutability":"view"},{"type":"function","name":"MAX_SYNC_BATCH_MEMBERS","inputs":[],"outputs":[{"name":"","type":"uint256","internalType":"uint256"}],"stateMutability":"view"},{"type":"function","name":"MAX_VOTER_STAKED_PROPOSALS","inputs":[],"outputs":[{"name":"","type":"uint256","internalType":"uint256"}],"stateMutability":"view"},{"type":"function","name":"RULING_OPTIONS","inputs":[],"outputs":[{"name":"","type":"uint256","internalType":"uint256"}],"stateMutability":"view"},{"type":"function","name":"_isStrategyEnabled","inputs":[],"outputs":[{"name":"","type":"bool","internalType":"bool"}],"stateMutability":"view"},{"type":"function","name":"arbitrableConfigs","inputs":[{"name":"","type":"uint256","internalType":"uint256"}],"outputs":[{"name":"arbitrator","type":"address","internalType":"contract IArbitrator"},{"name":"tribunalSafe","type":"address","internalType":"address"},{"name":"submitterCollateralAmount","type":"uint256","internalType":"uint256"},{"name":"challengerCollateralAmount","type":"uint256","internalType":"uint256"},{"name":"defaultRuling","type":"uint256","internalType":"uint256"},{"name":"defaultRulingTimeout","type":"uint256","internalType":"uint256"}],"stateMutability":"view"},{"type":"function","name":"calculateProposalConviction","inputs":[{"name":"_proposalId","type":"uint256","internalType":"uint256"}],"outputs":[{"name":"","type":"uint256","internalType":"uint256"}],"stateMutability":"view"},{"type":"function","name":"cloneNonce","inputs":[],"outputs":[{"name":"","type":"uint256","internalType":"uint256"}],"stateMutability":"view"},{"type":"function","name":"collateralVault","inputs":[],"outputs":[{"name":"","type":"address","internalType":"contract ICollateralVault"}],"stateMutability":"view"},{"type":"function","name":"currentArbitrableConfigVersion","inputs":[],"outputs":[{"name":"","type":"uint256","internalType":"uint256"}],"stateMutability":"view"},{"type":"function","name":"cvParams","inputs":[],"outputs":[{"name":"maxRatio","type":"uint256","internalType":"uint256"},{"name":"weight","type":"uint256","internalType":"uint256"},{"name":"decay","type":"uint256","internalType":"uint256"},{"name":"minThresholdPoints","type":"uint256","internalType":"uint256"}],"stateMutability":"view"},{"type":"function","name":"disputeCount","inputs":[],"outputs":[{"name":"","type":"uint64","internalType":"uint64"}],"stateMutability":"view"},{"type":"function","name":"disputeIdToProposalId","inputs":[{"name":"","type":"uint256","internalType":"uint256"}],"outputs":[{"name":"","type":"uint256","internalType":"uint256"}],"stateMutability":"view"},{"type":"function","name":"getPoolAmount","inputs":[],"outputs":[{"name":"","type":"uint256","internalType":"uint256"}],"stateMutability":"view"},{"type":"function","name":"isPaused","inputs":[{"name":"selector","type":"bytes4","internalType":"bytes4"}],"outputs":[{"name":"","type":"bool","internalType":"bool"}],"stateMutability":"view"},{"type":"function","name":"isPaused","inputs":[],"outputs":[{"name":"","type":"bool","internalType":"bool"}],"stateMutability":"view"},{"type":"function","name":"pause","inputs":[{"name":"duration","type":"uint256","internalType":"uint256"}],"outputs":[],"stateMutability":"nonpayable"},{"type":"function","name":"pause","inputs":[{"name":"selector","type":"bytes4","internalType":"bytes4"},{"name":"duration","type":"uint256","internalType":"uint256"}],"outputs":[],"stateMutability":"nonpayable"},{"type":"function","name":"pauseController","inputs":[],"outputs":[{"name":"","type":"address","internalType":"address"}],"stateMutability":"view"},{"type":"function","name":"pauseFacet","inputs":[],"outputs":[{"name":"","type":"address","internalType":"address"}],"stateMutability":"view"},{"type":"function","name":"pausedSelectorUntil","inputs":[{"name":"selector","type":"bytes4","internalType":"bytes4"}],"outputs":[{"name":"","type":"uint256","internalType":"uint256"}],"stateMutability":"view"},{"type":"function","name":"pausedUntil","inputs":[],"outputs":[{"name":"","type":"uint256","internalType":"uint256"}],"stateMutability":"view"},{"type":"function","name":"pointConfig","inputs":[],"outputs":[{"name":"maxAmount","type":"uint256","internalType":"uint256"}],"stateMutability":"view"},{"type":"function","name":"pointSystem","inputs":[],"outputs":[{"name":"","type":"uint8","internalType":"enum PointSystem"}],"stateMutability":"view"},{"type":"function","name":"proposalCounter","inputs":[],"outputs":[{"name":"","type":"uint256","internalType":"uint256"}],"stateMutability":"view"},{"type":"function","name":"proposalExists","inputs":[{"name":"_proposalID","type":"uint256","internalType":"uint256"}],"outputs":[{"name":"","type":"bool","internalType":"bool"}],"stateMutability":"view"},{"type":"function","name":"proposalType","inputs":[],"outputs":[{"name":"","type":"uint8","internalType":"enum ProposalType"}],"stateMutability":"view"},{"type":"function","name":"registryCommunity","inputs":[],"outputs":[{"name":"","type":"address","internalType":"contract RegistryCommunity"}],"stateMutability":"view"},{"type":"function","name":"setPauseController","inputs":[{"name":"controller","type":"address","internalType":"address"}],"outputs":[],"stateMutability":"nonpayable"},{"type":"function","name":"setPauseFacet","inputs":[{"name":"facet","type":"address","internalType":"address"}],"outputs":[],"stateMutability":"nonpayable"},{"type":"function","name":"streamingRatePerSecond","inputs":[],"outputs":[{"name":"","type":"uint256","internalType":"uint256"}],"stateMutability":"view"},{"type":"function","name":"superfluidGDA","inputs":[],"outputs":[{"name":"","type":"address","internalType":"contract ISuperfluidPool"}],"stateMutability":"view"},{"type":"function","name":"superfluidToken","inputs":[],"outputs":[{"name":"","type":"address","internalType":"contract ISuperToken"}],"stateMutability":"view"},{"type":"function","name":"sybilScorer","inputs":[],"outputs":[{"name":"","type":"address","internalType":"contract ISybilScorer"}],"stateMutability":"view"},{"type":"function","name":"totalPointsActivated","inputs":[],"outputs":[{"name":"","type":"uint256","internalType":"uint256"}],"stateMutability":"view"},{"type":"function","name":"totalStaked","inputs":[],"outputs":[{"name":"","type":"uint256","internalType":"uint256"}],"stateMutability":"view"},{"type":"function","name":"totalVoterStakePct","inputs":[{"name":"","type":"address","internalType":"address"}],"outputs":[{"name":"","type":"uint256","internalType":"uint256"}],"stateMutability":"view"},{"type":"function","name":"unpause","inputs":[],"outputs":[],"stateMutability":"nonpayable"},{"type":"function","name":"unpause","inputs":[{"name":"selector","type":"bytes4","internalType":"bytes4"}],"outputs":[],"stateMutability":"nonpayable"},{"type":"function","name":"voterStakedProposals","inputs":[{"name":"","type":"address","internalType":"address"},{"name":"","type":"uint256","internalType":"uint256"}],"outputs":[{"name":"","type":"uint256","internalType":"uint256"}],"stateMutability":"view"},{"type":"function","name":"votingPowerRegistry","inputs":[],"outputs":[{"name":"","type":"address","internalType":"contract IVotingPowerRegistry"}],"stateMutability":"view"},{"type":"event","name":"PauseControllerUpdated","inputs":[{"name":"controller","type":"address","indexed":true,"internalType":"address"}],"anonymous":false},{"type":"event","name":"PauseFacetUpdated","inputs":[{"name":"facet","type":"address","indexed":true,"internalType":"address"}],"anonymous":false},{"type":"error","name":"BlockNumberRegression","inputs":[{"name":"recordedBlock","type":"uint256","internalType":"uint256"},{"name":"currentBlock","type":"uint256","internalType":"uint256"}]},{"type":"error","name":"NotOwner","inputs":[{"name":"caller","type":"address","internalType":"address"},{"name":"owner","type":"address","internalType":"address"}]},{"type":"error","name":"OnlyActiveProposal","inputs":[{"name":"proposalId","type":"uint256","internalType":"uint256"}]},{"type":"error","name":"OnlyAllo","inputs":[{"name":"sender","type":"address","internalType":"address"},{"name":"allo","type":"address","internalType":"address"}]},{"type":"error","name":"OnlyCouncilSafe","inputs":[{"name":"sender","type":"address","internalType":"address"},{"name":"councilSafe","type":"address","internalType":"address"},{"name":"owner","type":"address","internalType":"address"}]},{"type":"error","name":"OnlyCouncilSafeOrMember","inputs":[{"name":"sender","type":"address","internalType":"address"},{"name":"councilSafe","type":"address","internalType":"address"}]},{"type":"error","name":"OnlyInitialized","inputs":[{"name":"poolId","type":"uint256","internalType":"uint256"}]},{"type":"error","name":"OnlyMember","inputs":[{"name":"wallet","type":"address","internalType":"address"},{"name":"community","type":"address","internalType":"address"}]},{"type":"error","name":"OnlyOwner","inputs":[{"name":"sender","type":"address","internalType":"address"},{"name":"ownerAddress","type":"address","internalType":"address"}]},{"type":"error","name":"OnlyRegistryCommunity","inputs":[{"name":"sender","type":"address","internalType":"address"},{"name":"registry","type":"address","internalType":"address"}]},{"type":"error","name":"OnlySubmitter","inputs":[{"name":"proposalId","type":"uint256","internalType":"uint256"},{"name":"submitter","type":"address","internalType":"address"},{"name":"sender","type":"address","internalType":"address"}]},{"type":"error","name":"PauseControllerNotSet","inputs":[]},{"type":"error","name":"ProposalDoesNotExist","inputs":[{"name":"proposalID","type":"uint256","internalType":"uint256"}]},{"type":"error","name":"StrategyPaused","inputs":[{"name":"controller","type":"address","internalType":"address"}]},{"type":"error","name":"StrategySelectorPaused","inputs":[{"name":"selector","type":"bytes4","internalType":"bytes4"},{"name":"controller","type":"address","internalType":"address"}]}],"bytecode":{"object":"0x608060405234801561000f575f80fd5b506114fc8061001d5f395ff3fe608060405234801561000f575f80fd5b50600436106101f7575f3560e01c806305caa7f3146101fb57806309b65e66146102245780630bece79c146102475780630c0512e91461025a578063125fd1d914610271578063136439dd1461027a5780631374b22d1461028f5780631add1a0d146102a25780631b36f56f146102b5578063222a3a04146102c85780632506b870146102db578063255ffb38146103015780632d2ebbef146103205780632dbd6fdd146103335780633396045914610352578063351d9f961461035b5780633f4ba83a1461037557806341bb76051461037d5780634ab4ba42146104045780634c3ceb5b1461040c5780635db64b99146104145780636003e4141461043357806360b0645a1461044657806360b4778914610459578063626c47e81461046157806380c4a65f1461046957806380fd91cd1461047c578063817b1cd21461048f578063868c57b8146104985780638dc83094146104ab578063914bdef01461040c57806394573cbb146104b3578063a28889e1146104bc578063a47ff7e5146104e7578063aba9ffee146104f1578063adaf157b146104fa578063b187bd2614610502578063b6c61f311461050a578063bac1e94b1461051d578063da748b1014610530578063dfe9ec581461040c578063ee50ee1b14610538578063f5be3f7c14610540575b5f80fd5b60805461020e906001600160a01b031681565b60405161021b9190610fd9565b60405180910390f35b610237610232366004611004565b610549565b604051901515815260200161021b565b60795461020e906001600160a01b031681565b610263606e5481565b60405190815260200161021b565b610263606f5481565b61028d61028836600461101d565b6105e0565b005b61023761029d36600461101d565b610651565b61028d6102b0366004611048565b61068b565b60815461020e906001600160a01b031681565b61028d6102d6366004611048565b6106e5565b6072546073546074546075546102f19392919084565b60405161021b9493929190611063565b61026361030f36600461101d565b607e6020525f908152604090205481565b61026361032e366004611004565b6106f9565b60765461034590610100900460ff1681565b60405161021b9190611092565b610263606c5481565b6076546103689060ff1681565b60405161021b91906110ac565b61028d61076e565b6103cc61038b36600461101d565b607f6020525f90815260409020805460018201546002830154600384015460048501546005909501546001600160a01b039485169593909416939192909186565b604080516001600160a01b039788168152969095166020870152938501929092526060840152608083015260a082015260c00161021b565b6102636107d8565b610263608081565b610263610422366004611048565b607c6020525f908152604090205481565b60785461020e906001600160a01b031681565b61026361045436600461101d565b610a57565b61020e610b14565b610263600381565b61028d6104773660046110c0565b610b2c565b60835461020e906001600160a01b031681565b61026360705481565b6102636104a63660046110e8565b610bad565b610237610bd8565b61026360825481565b606d546104cf906001600160401b031681565b6040516001600160401b03909116815260200161021b565b6077546102639081565b61026360715481565b61020e610cd4565b610237610cef565b607a5461020e906001600160a01b031681565b61028d61052b366004611004565b610d82565b610263610dbf565b610263604081565b610263611c2081565b5f80610553610e37565b546001600160a01b031690508061056c57505f92915050565b6040516374b896f160e01b81526001600160a01b038216906374b896f19061059a9030908790600401611104565b602060405180830381865afa1580156105b5573d5f803e3d5ffd5b505050506040513d601f19601f820116820180604052508101906105d99190611127565b9392505050565b6105e8610e5b565b6105f0610e6d565b6040516320880da160e21b8152306004820152602481018390526001600160a01b0391909116906382203684906044015b5f604051808303815f87803b158015610638575f80fd5b505af115801561064a573d5f803e3d5ffd5b5050505050565b5f818152607b60205260408120541580159061068557505f828152607b60205260409020600501546001600160a01b031615155b92915050565b610693610e5b565b8061069c610e37565b80546001600160a01b0319166001600160a01b03928316179055604051908216907f0146e1c9acb28e36c81f5635cb4ae73b05d0712996d2cc1b3823065e0e849403905f90a250565b6106ed610ea6565b6106f681610eef565b50565b5f610702610e6d565b6001600160a01b03166331947ea430846040518363ffffffff1660e01b815260040161072f929190611104565b602060405180830381865afa15801561074a573d5f803e3d5ffd5b505050506040513d601f19601f820116820180604052508101906106859190611146565b610776610e5b565b61077e610e6d565b6001600160a01b03166357b001f9306040518263ffffffff1660e01b81526004016107a99190610fd9565b5f604051808303815f87803b1580156107c0575f80fd5b505af11580156107d2573d5f803e3d5ffd5b50505050565b60655460685460405163068bcd8d60e01b81525f9283926001600160a01b039091169163068bcd8d916108119160040190815260200190565b5f60405180830381865afa15801561082b573d5f803e3d5ffd5b505050506040513d5f823e601f3d908101601f19168201604052610852919081019061120d565b60400151905073eeeeeeeeeeeeeeeeeeeeeeeeeeeeeeeeeeeeeeed196001600160a01b03821601610884574791505090565b6040516370a0823160e01b81525f906001600160a01b038316906370a08231906108b2903090600401610fd9565b602060405180830381865afa1580156108cd573d5f803e3d5ffd5b505050506040513d601f19601f820116820180604052508101906108f19190611146565b6080549091505f906001600160a01b03161561097b576080546040516370a0823160e01b81526001600160a01b03909116906370a0823190610937903090600401610fd9565b602060405180830381865afa158015610952573d5f803e3d5ffd5b505050506040513d601f19601f820116820180604052508101906109769190611146565b61097d565b5f5b90505f836001600160a01b031663313ce5676040518163ffffffff1660e01b8152600401602060405180830381865afa1580156109bc573d5f803e3d5ffd5b505050506040513d601f19601f820116820180604052508101906109e0919061133d565b905060128160ff161015610a15576109f9816012611371565b610a0490600a61146a565b610a0e9083611478565b9150610a44565b60128160ff161115610a4457610a2c601282611371565b610a3790600a61146a565b610a419083611497565b91505b610a4e82846114ae565b94505050505090565b5f818152607b60205260408120610a6c610bd8565b610a7a576003015492915050565b73__$f1b7c69ba751c396eddc93d3bbc5414fd9$__63010dfe64826007015443610aa491906114c1565b600384015460028501546074546040516001600160e01b031960e087901b168152610ad59493929190600401611063565b602060405180830381865af4158015610af0573d5f803e3d5ffd5b505050506040513d601f19601f820116820180604052508101906105d99190611146565b5f610b1d610e37565b546001600160a01b0316919050565b610b34610e5b565b610b3c610e6d565b604051635686c94b60e01b81523060048201526001600160e01b031984166024820152604481018390526001600160a01b039190911690635686c94b906064015f604051808303815f87803b158015610b93575f80fd5b505af1158015610ba5573d5f803e3d5ffd5b505050505050565b607d602052815f5260405f208181548110610bc6575f80fd5b905f5260205f20015f91509150505481565b6078545f906001600160a01b0316610bf05750600190565b6078546040515f9182916001600160a01b0390911690633a871fe160e01b90610c1d903090602401610fd9565b60408051601f198184030181529181526020820180516001600160e01b03166001600160e01b0319909416939093179092529051610c5b91906114d4565b5f60405180830381855afa9150503d805f8114610c93576040519150601f19603f3d011682016040523d82523d5f602084013e610c98565b606091505b5091509150811580610cab575060208151105b15610cb95760019250505090565b80806020019051810190610ccd9190611127565b9250505090565b5f610cdd610e37565b600101546001600160a01b0316919050565b5f80610cf9610e37565b546001600160a01b0316905080610d11575f91505090565b604051635b14f18360e01b81526001600160a01b03821690635b14f18390610d3d903090600401610fd9565b602060405180830381865afa158015610d58573d5f803e3d5ffd5b505050506040513d601f19601f82011682018060405250810190610d7c9190611127565b91505090565b610d8a610e5b565b610d92610e6d565b6001600160a01b031663439d27ae30836040518363ffffffff1660e01b8152600401610621929190611104565b5f610dc8610e6d565b6001600160a01b0316631d9ca3ad306040518263ffffffff1660e01b8152600401610df39190610fd9565b602060405180830381865afa158015610e0e573d5f803e3d5ffd5b505050506040513d601f19601f82011682018060405250810190610e329190611146565b905090565b7f12ec43b97389db0cfbdf8d85f200f1b822123856376a9d75d3a6918f27c903bb90565b610e63610ea6565b610e6b610f70565b565b5f80610e77610e37565b546001600160a01b0316905080610ea157604051639180dfdf60e01b815260040160405180910390fd5b919050565b5f610eaf610fc6565b9050336001600160a01b038216146106f657604051631194af8760e11b81523360048201526001600160a01b038216602482015260440160405180910390fd5b6001600160a01b038116610f005750565b5f610f09610e37565b60018101549091506001600160a01b03838116911614610f6c576001810180546001600160a01b0319166001600160a01b0384169081179091556040517f753b6c036896e564d6b8cfc7934ffd7ff1f0c8f82aabd101f0549db25b7971b6905f90a25b5050565b5f7fc8fcad8db84d3cc18b4c41d551ea0ee66dd599cde068d998e57d5e09332c131c5f80356001600160e01b0319168152602082905260409020549091506001600160a01b03168015610f6c57610f6c81610eef565b5f610e326033546001600160a01b031690565b6001600160a01b0391909116815260200190565b80356001600160e01b031981168114610ea1575f80fd5b5f60208284031215611014575f80fd5b6105d982610fed565b5f6020828403121561102d575f80fd5b5035919050565b6001600160a01b03811681146106f6575f80fd5b5f60208284031215611058575f80fd5b81356105d981611034565b93845260208401929092526040830152606082015260800190565b634e487b7160e01b5f52602160045260245ffd5b60208101600583106110a6576110a661107e565b91905290565b60208101600383106110a6576110a661107e565b5f80604083850312156110d1575f80fd5b6110da83610fed565b946020939093013593505050565b5f80604083850312156110f9575f80fd5b82356110da81611034565b6001600160a01b039290921682526001600160e01b031916602082015260400190565b5f60208284031215611137575f80fd5b815180151581146105d9575f80fd5b5f60208284031215611156575f80fd5b5051919050565b634e487b7160e01b5f52604160045260245ffd5b60405160c081016001600160401b03811182821017156111935761119361115d565b60405290565b604080519081016001600160401b03811182821017156111935761119361115d565b604051601f8201601f191681016001600160401b03811182821017156111e3576111e361115d565b604052919050565b5f5b838110156112055781810151838201526020016111ed565b50505f910152565b5f602080838503121561121e575f80fd5b82516001600160401b0380821115611234575f80fd5b9084019060c08287031215611247575f80fd5b61124f611171565b825181528383015161126081611034565b81850152604083015161127281611034565b6040820152606083015182811115611288575f80fd5b830160408189031215611299575f80fd5b6112a1611199565b8151815285820151848111156112b5575f80fd5b80830192505088601f8301126112c9575f80fd5b8151848111156112db576112db61115d565b6112ed601f8201601f191688016111bb565b94508085528987828501011115611302575f80fd5b611311818887018986016111eb565b50948501929092526060810193909352506080818101519083015260a090810151908201529392505050565b5f6020828403121561134d575f80fd5b815160ff811681146105d9575f80fd5b634e487b7160e01b5f52601160045260245ffd5b60ff82811682821603908111156106855761068561135d565b600181815b808511156113c457815f19048211156113aa576113aa61135d565b808516156113b757918102915b93841c939080029061138f565b509250929050565b5f826113da57506001610685565b816113e657505f610685565b81600181146113fc576002811461140657611422565b6001915050610685565b60ff8411156114175761141761135d565b50506001821b610685565b5060208310610133831016604e8410600b8410161715611445575081810a610685565b61144f838361138a565b805f19048211156114625761146261135d565b029392505050565b5f6105d960ff8416836113cc565b5f8261149257634e487b7160e01b5f52601260045260245ffd5b500490565b80820281158282048414176106855761068561135d565b808201808211156106855761068561135d565b818103818111156106855761068561135d565b5f82516114e58184602087016111eb565b919091019291505056fea164736f6c6343000817000a","linkReferences":{"pkg/contracts/src/CVStrategy/ConvictionsUtils.sol":{"ConvictionsUtils":[{"start":2713,"length":20}]}}},"methodIdentifiers":{"DISPUTE_COOLDOWN_SEC()":"f5be3f7c","MAX_ALLOCATIONS_PER_TX()":"ee50ee1b","MAX_PROPOSAL_COUNT()":"dfe9ec58","MAX_SYNC_BATCH_MEMBERS()":"4c3ceb5b","MAX_VOTER_STAKED_PROPOSALS()":"914bdef0","RULING_OPTIONS()":"626c47e8","_isStrategyEnabled()":"8dc83094","arbitrableConfigs(uint256)":"41bb7605","calculateProposalConviction(uint256)":"60b0645a","cloneNonce()":"33960459","collateralVault()":"0bece79c","currentArbitrableConfigVersion()":"125fd1d9","cvParams()":"2506b870","disputeCount()":"a28889e1","disputeIdToProposalId(uint256)":"255ffb38","getPoolAmount()":"4ab4ba42","isPaused()":"b187bd26","isPaused(bytes4)":"09b65e66","pause(bytes4,uint256)":"80c4a65f","pause(uint256)":"136439dd","pauseController()":"60b47789","pauseFacet()":"adaf157b","pausedSelectorUntil(bytes4)":"2d2ebbef","pausedUntil()":"da748b10","pointConfig()":"a47ff7e5","pointSystem()":"2dbd6fdd","proposalCounter()":"0c0512e9","proposalExists(uint256)":"1374b22d","proposalType()":"351d9f96","registryCommunity()":"6003e414","setPauseController(address)":"1add1a0d","setPauseFacet(address)":"222a3a04","streamingRatePerSecond()":"94573cbb","superfluidGDA()":"1b36f56f","superfluidToken()":"05caa7f3","sybilScorer()":"b6c61f31","totalPointsActivated()":"aba9ffee","totalStaked()":"817b1cd2","totalVoterStakePct(address)":"5db64b99","unpause()":"3f4ba83a","unpause(bytes4)":"bac1e94b","voterStakedProposals(address,uint256)":"868c57b8","votingPowerRegistry()":"80fd91cd"},"storageLayout":{"storage":[{"astId":113620,"contract":"pkg/contracts/src/CVStrategy/facets/CVPauseFacet.sol:CVPauseFacet","label":"_initialized","offset":0,"slot":"0","type":"t_uint8"},{"astId":113622,"contract":"pkg/contracts/src/CVStrategy/facets/CVPauseFacet.sol:CVPauseFacet","label":"_initializing","offset":1,"slot":"0","type":"t_bool"},{"astId":113626,"contract":"pkg/contracts/src/CVStrategy/facets/CVPauseFacet.sol:CVPauseFacet","label":"__gap_init","offset":0,"slot":"1","type":"t_array(t_uint256)50_storage"},{"astId":113629,"contract":"pkg/contracts/src/CVStrategy/facets/CVPauseFacet.sol:CVPauseFacet","label":"_owner","offset":0,"slot":"51","type":"t_address"},{"astId":113633,"contract":"pkg/contracts/src/CVStrategy/facets/CVPauseFacet.sol:CVPauseFacet","label":"__gap_ownable","offset":0,"slot":"52","type":"t_array(t_uint256)49_storage"},{"astId":113637,"contract":"pkg/contracts/src/CVStrategy/facets/CVPauseFacet.sol:CVPauseFacet","label":"allo","offset":0,"slot":"101","type":"t_contract(IAllo)2631"},{"astId":113639,"contract":"pkg/contracts/src/CVStrategy/facets/CVPauseFacet.sol:CVPauseFacet","label":"strategyId","offset":0,"slot":"102","type":"t_bytes32"},{"astId":113641,"contract":"pkg/contracts/src/CVStrategy/facets/CVPauseFacet.sol:CVPauseFacet","label":"poolActive","offset":0,"slot":"103","type":"t_bool"},{"astId":113643,"contract":"pkg/contracts/src/CVStrategy/facets/CVPauseFacet.sol:CVPauseFacet","label":"poolId","offset":0,"slot":"104","type":"t_uint256"},{"astId":113645,"contract":"pkg/contracts/src/CVStrategy/facets/CVPauseFacet.sol:CVPauseFacet","label":"poolAmount","offset":0,"slot":"105","type":"t_uint256"},{"astId":113648,"contract":"pkg/contracts/src/CVStrategy/facets/CVPauseFacet.sol:CVPauseFacet","label":"collateralVaultTemplate","offset":0,"slot":"106","type":"t_address"},{"astId":113651,"contract":"pkg/contracts/src/CVStrategy/facets/CVPauseFacet.sol:CVPauseFacet","label":"surpressStateMutabilityWarning","offset":0,"slot":"107","type":"t_uint256"},{"astId":113654,"contract":"pkg/contracts/src/CVStrategy/facets/CVPauseFacet.sol:CVPauseFacet","label":"cloneNonce","offset":0,"slot":"108","type":"t_uint256"},{"astId":113657,"contract":"pkg/contracts/src/CVStrategy/facets/CVPauseFacet.sol:CVPauseFacet","label":"disputeCount","offset":0,"slot":"109","type":"t_uint64"},{"astId":113660,"contract":"pkg/contracts/src/CVStrategy/facets/CVPauseFacet.sol:CVPauseFacet","label":"proposalCounter","offset":0,"slot":"110","type":"t_uint256"},{"astId":113663,"contract":"pkg/contracts/src/CVStrategy/facets/CVPauseFacet.sol:CVPauseFacet","label":"currentArbitrableConfigVersion","offset":0,"slot":"111","type":"t_uint256"},{"astId":113666,"contract":"pkg/contracts/src/CVStrategy/facets/CVPauseFacet.sol:CVPauseFacet","label":"totalStaked","offset":0,"slot":"112","type":"t_uint256"},{"astId":113669,"contract":"pkg/contracts/src/CVStrategy/facets/CVPauseFacet.sol:CVPauseFacet","label":"totalPointsActivated","offset":0,"slot":"113","type":"t_uint256"},{"astId":113673,"contract":"pkg/contracts/src/CVStrategy/facets/CVPauseFacet.sol:CVPauseFacet","label":"cvParams","offset":0,"slot":"114","type":"t_struct(CVParams)115347_storage"},{"astId":113677,"contract":"pkg/contracts/src/CVStrategy/facets/CVPauseFacet.sol:CVPauseFacet","label":"proposalType","offset":0,"slot":"118","type":"t_enum(ProposalType)115247"},{"astId":113681,"contract":"pkg/contracts/src/CVStrategy/facets/CVPauseFacet.sol:CVPauseFacet","label":"pointSystem","offset":1,"slot":"118","type":"t_enum(PointSystem)115253"},{"astId":113685,"contract":"pkg/contracts/src/CVStrategy/facets/CVPauseFacet.sol:CVPauseFacet","label":"pointConfig","offset":0,"slot":"119","type":"t_struct(PointSystemConfig)115324_storage"},{"astId":113689,"contract":"pkg/contracts/src/CVStrategy/facets/CVPauseFacet.sol:CVPauseFacet","label":"registryCommunity","offset":0,"slot":"120","type":"t_contract(RegistryCommunity)128146"},{"astId":113693,"contract":"pkg/contracts/src/CVStrategy/facets/CVPauseFacet.sol:CVPauseFacet","label":"collateralVault","offset":0,"slot":"121","type":"t_contract(ICollateralVault)134109"},{"astId":113697,"contract":"pkg/contracts/src/CVStrategy/facets/CVPauseFacet.sol:CVPauseFacet","label":"sybilScorer","offset":0,"slot":"122","type":"t_contract(ISybilScorer)125264"},{"astId":113703,"contract":"pkg/contracts/src/CVStrategy/facets/CVPauseFacet.sol:CVPauseFacet","label":"proposals","offset":0,"slot":"123","type":"t_mapping(t_uint256,t_struct(Proposal)115316_storage)"},{"astId":113708,"contract":"pkg/contracts/src/CVStrategy/facets/CVPauseFacet.sol:CVPauseFacet","label":"totalVoterStakePct","offset":0,"slot":"124","type":"t_mapping(t_address,t_uint256)"},{"astId":113714,"contract":"pkg/contracts/src/CVStrategy/facets/CVPauseFacet.sol:CVPauseFacet","label":"voterStakedProposals","offset":0,"slot":"125","type":"t_mapping(t_address,t_array(t_uint256)dyn_storage)"},{"astId":113719,"contract":"pkg/contracts/src/CVStrategy/facets/CVPauseFacet.sol:CVPauseFacet","label":"disputeIdToProposalId","offset":0,"slot":"126","type":"t_mapping(t_uint256,t_uint256)"},{"astId":113725,"contract":"pkg/contracts/src/CVStrategy/facets/CVPauseFacet.sol:CVPauseFacet","label":"arbitrableConfigs","offset":0,"slot":"127","type":"t_mapping(t_uint256,t_struct(ArbitrableConfig)115338_storage)"},{"astId":113729,"contract":"pkg/contracts/src/CVStrategy/facets/CVPauseFacet.sol:CVPauseFacet","label":"superfluidToken","offset":0,"slot":"128","type":"t_contract(ISuperToken)80262"},{"astId":113733,"contract":"pkg/contracts/src/CVStrategy/facets/CVPauseFacet.sol:CVPauseFacet","label":"superfluidGDA","offset":0,"slot":"129","type":"t_contract(ISuperfluidPool)79090"},{"astId":113736,"contract":"pkg/contracts/src/CVStrategy/facets/CVPauseFacet.sol:CVPauseFacet","label":"streamingRatePerSecond","offset":0,"slot":"130","type":"t_uint256"},{"astId":113740,"contract":"pkg/contracts/src/CVStrategy/facets/CVPauseFacet.sol:CVPauseFacet","label":"votingPowerRegistry","offset":0,"slot":"131","type":"t_contract(IVotingPowerRegistry)134836"},{"astId":113745,"contract":"pkg/contracts/src/CVStrategy/facets/CVPauseFacet.sol:CVPauseFacet","label":"__gap","offset":0,"slot":"132","type":"t_array(t_uint256)46_storage"}],"types":{"t_address":{"encoding":"inplace","label":"address","numberOfBytes":"20"},"t_array(t_uint256)46_storage":{"encoding":"inplace","label":"uint256[46]","numberOfBytes":"1472","base":"t_uint256"},"t_array(t_uint256)49_storage":{"encoding":"inplace","label":"uint256[49]","numberOfBytes":"1568","base":"t_uint256"},"t_array(t_uint256)50_storage":{"encoding":"inplace","label":"uint256[50]","numberOfBytes":"1600","base":"t_uint256"},"t_array(t_uint256)dyn_storage":{"encoding":"dynamic_array","label":"uint256[]","numberOfBytes":"32","base":"t_uint256"},"t_bool":{"encoding":"inplace","label":"bool","numberOfBytes":"1"},"t_bytes32":{"encoding":"inplace","label":"bytes32","numberOfBytes":"32"},"t_contract(IAllo)2631":{"encoding":"inplace","label":"contract IAllo","numberOfBytes":"20"},"t_contract(IArbitrator)134076":{"encoding":"inplace","label":"contract IArbitrator","numberOfBytes":"20"},"t_contract(ICollateralVault)134109":{"encoding":"inplace","label":"contract ICollateralVault","numberOfBytes":"20"},"t_contract(ISuperToken)80262":{"encoding":"inplace","label":"contract ISuperToken","numberOfBytes":"20"},"t_contract(ISuperfluidPool)79090":{"encoding":"inplace","label":"contract ISuperfluidPool","numberOfBytes":"20"},"t_contract(ISybilScorer)125264":{"encoding":"inplace","label":"contract ISybilScorer","numberOfBytes":"20"},"t_contract(IVotingPowerRegistry)134836":{"encoding":"inplace","label":"contract IVotingPowerRegistry","numberOfBytes":"20"},"t_contract(RegistryCommunity)128146":{"encoding":"inplace","label":"contract RegistryCommunity","numberOfBytes":"20"},"t_enum(PointSystem)115253":{"encoding":"inplace","label":"enum PointSystem","numberOfBytes":"1"},"t_enum(ProposalStatus)115273":{"encoding":"inplace","label":"enum ProposalStatus","numberOfBytes":"1"},"t_enum(ProposalType)115247":{"encoding":"inplace","label":"enum ProposalType","numberOfBytes":"1"},"t_mapping(t_address,t_array(t_uint256)dyn_storage)":{"encoding":"mapping","key":"t_address","label":"mapping(address => uint256[])","numberOfBytes":"32","value":"t_array(t_uint256)dyn_storage"},"t_mapping(t_address,t_uint256)":{"encoding":"mapping","key":"t_address","label":"mapping(address => uint256)","numberOfBytes":"32","value":"t_uint256"},"t_mapping(t_uint256,t_struct(ArbitrableConfig)115338_storage)":{"encoding":"mapping","key":"t_uint256","label":"mapping(uint256 => struct ArbitrableConfig)","numberOfBytes":"32","value":"t_struct(ArbitrableConfig)115338_storage"},"t_mapping(t_uint256,t_struct(Proposal)115316_storage)":{"encoding":"mapping","key":"t_uint256","label":"mapping(uint256 => struct Proposal)","numberOfBytes":"32","value":"t_struct(Proposal)115316_storage"},"t_mapping(t_uint256,t_uint256)":{"encoding":"mapping","key":"t_uint256","label":"mapping(uint256 => uint256)","numberOfBytes":"32","value":"t_uint256"},"t_string_storage":{"encoding":"bytes","label":"string","numberOfBytes":"32"},"t_struct(ArbitrableConfig)115338_storage":{"encoding":"inplace","label":"struct ArbitrableConfig","numberOfBytes":"192","members":[{"astId":115327,"contract":"pkg/contracts/src/CVStrategy/facets/CVPauseFacet.sol:CVPauseFacet","label":"arbitrator","offset":0,"slot":"0","type":"t_contract(IArbitrator)134076"},{"astId":115329,"contract":"pkg/contracts/src/CVStrategy/facets/CVPauseFacet.sol:CVPauseFacet","label":"tribunalSafe","offset":0,"slot":"1","type":"t_address"},{"astId":115331,"contract":"pkg/contracts/src/CVStrategy/facets/CVPauseFacet.sol:CVPauseFacet","label":"submitterCollateralAmount","offset":0,"slot":"2","type":"t_uint256"},{"astId":115333,"contract":"pkg/contracts/src/CVStrategy/facets/CVPauseFacet.sol:CVPauseFacet","label":"challengerCollateralAmount","offset":0,"slot":"3","type":"t_uint256"},{"astId":115335,"contract":"pkg/contracts/src/CVStrategy/facets/CVPauseFacet.sol:CVPauseFacet","label":"defaultRuling","offset":0,"slot":"4","type":"t_uint256"},{"astId":115337,"contract":"pkg/contracts/src/CVStrategy/facets/CVPauseFacet.sol:CVPauseFacet","label":"defaultRulingTimeout","offset":0,"slot":"5","type":"t_uint256"}]},"t_struct(CVParams)115347_storage":{"encoding":"inplace","label":"struct CVParams","numberOfBytes":"128","members":[{"astId":115340,"contract":"pkg/contracts/src/CVStrategy/facets/CVPauseFacet.sol:CVPauseFacet","label":"maxRatio","offset":0,"slot":"0","type":"t_uint256"},{"astId":115342,"contract":"pkg/contracts/src/CVStrategy/facets/CVPauseFacet.sol:CVPauseFacet","label":"weight","offset":0,"slot":"1","type":"t_uint256"},{"astId":115344,"contract":"pkg/contracts/src/CVStrategy/facets/CVPauseFacet.sol:CVPauseFacet","label":"decay","offset":0,"slot":"2","type":"t_uint256"},{"astId":115346,"contract":"pkg/contracts/src/CVStrategy/facets/CVPauseFacet.sol:CVPauseFacet","label":"minThresholdPoints","offset":0,"slot":"3","type":"t_uint256"}]},"t_struct(Metadata)3086_storage":{"encoding":"inplace","label":"struct Metadata","numberOfBytes":"64","members":[{"astId":3082,"contract":"pkg/contracts/src/CVStrategy/facets/CVPauseFacet.sol:CVPauseFacet","label":"protocol","offset":0,"slot":"0","type":"t_uint256"},{"astId":3085,"contract":"pkg/contracts/src/CVStrategy/facets/CVPauseFacet.sol:CVPauseFacet","label":"pointer","offset":0,"slot":"1","type":"t_string_storage"}]},"t_struct(PointSystemConfig)115324_storage":{"encoding":"inplace","label":"struct PointSystemConfig","numberOfBytes":"32","members":[{"astId":115323,"contract":"pkg/contracts/src/CVStrategy/facets/CVPauseFacet.sol:CVPauseFacet","label":"maxAmount","offset":0,"slot":"0","type":"t_uint256"}]},"t_struct(Proposal)115316_storage":{"encoding":"inplace","label":"struct Proposal","numberOfBytes":"576","members":[{"astId":115282,"contract":"pkg/contracts/src/CVStrategy/facets/CVPauseFacet.sol:CVPauseFacet","label":"proposalId","offset":0,"slot":"0","type":"t_uint256"},{"astId":115284,"contract":"pkg/contracts/src/CVStrategy/facets/CVPauseFacet.sol:CVPauseFacet","label":"requestedAmount","offset":0,"slot":"1","type":"t_uint256"},{"astId":115286,"contract":"pkg/contracts/src/CVStrategy/facets/CVPauseFacet.sol:CVPauseFacet","label":"stakedAmount","offset":0,"slot":"2","type":"t_uint256"},{"astId":115288,"contract":"pkg/contracts/src/CVStrategy/facets/CVPauseFacet.sol:CVPauseFacet","label":"convictionLast","offset":0,"slot":"3","type":"t_uint256"},{"astId":115290,"contract":"pkg/contracts/src/CVStrategy/facets/CVPauseFacet.sol:CVPauseFacet","label":"beneficiary","offset":0,"slot":"4","type":"t_address"},{"astId":115292,"contract":"pkg/contracts/src/CVStrategy/facets/CVPauseFacet.sol:CVPauseFacet","label":"submitter","offset":0,"slot":"5","type":"t_address"},{"astId":115294,"contract":"pkg/contracts/src/CVStrategy/facets/CVPauseFacet.sol:CVPauseFacet","label":"requestedToken","offset":0,"slot":"6","type":"t_address"},{"astId":115296,"contract":"pkg/contracts/src/CVStrategy/facets/CVPauseFacet.sol:CVPauseFacet","label":"blockLast","offset":0,"slot":"7","type":"t_uint256"},{"astId":115299,"contract":"pkg/contracts/src/CVStrategy/facets/CVPauseFacet.sol:CVPauseFacet","label":"proposalStatus","offset":0,"slot":"8","type":"t_enum(ProposalStatus)115273"},{"astId":115303,"contract":"pkg/contracts/src/CVStrategy/facets/CVPauseFacet.sol:CVPauseFacet","label":"voterStakedPoints","offset":0,"slot":"9","type":"t_mapping(t_address,t_uint256)"},{"astId":115306,"contract":"pkg/contracts/src/CVStrategy/facets/CVPauseFacet.sol:CVPauseFacet","label":"metadata","offset":0,"slot":"10","type":"t_struct(Metadata)3086_storage"},{"astId":115309,"contract":"pkg/contracts/src/CVStrategy/facets/CVPauseFacet.sol:CVPauseFacet","label":"disputeInfo","offset":0,"slot":"12","type":"t_struct(ProposalDisputeInfo)115280_storage"},{"astId":115311,"contract":"pkg/contracts/src/CVStrategy/facets/CVPauseFacet.sol:CVPauseFacet","label":"lastDisputeCompletion","offset":0,"slot":"15","type":"t_uint256"},{"astId":115313,"contract":"pkg/contracts/src/CVStrategy/facets/CVPauseFacet.sol:CVPauseFacet","label":"arbitrableConfigVersion","offset":0,"slot":"16","type":"t_uint256"},{"astId":115315,"contract":"pkg/contracts/src/CVStrategy/facets/CVPauseFacet.sol:CVPauseFacet","label":"creationTimestamp","offset":0,"slot":"17","type":"t_uint256"}]},"t_struct(ProposalDisputeInfo)115280_storage":{"encoding":"inplace","label":"struct ProposalDisputeInfo","numberOfBytes":"96","members":[{"astId":115275,"contract":"pkg/contracts/src/CVStrategy/facets/CVPauseFacet.sol:CVPauseFacet","label":"disputeId","offset":0,"slot":"0","type":"t_uint256"},{"astId":115277,"contract":"pkg/contracts/src/CVStrategy/facets/CVPauseFacet.sol:CVPauseFacet","label":"disputeTimestamp","offset":0,"slot":"1","type":"t_uint256"},{"astId":115279,"contract":"pkg/contracts/src/CVStrategy/facets/CVPauseFacet.sol:CVPauseFacet","label":"challenger","offset":0,"slot":"2","type":"t_address"}]},"t_uint256":{"encoding":"inplace","label":"uint256","numberOfBytes":"32"},"t_uint64":{"encoding":"inplace","label":"uint64","numberOfBytes":"8"},"t_uint8":{"encoding":"inplace","label":"uint8","numberOfBytes":"1"}}},"id":187}