{"abi":[{"type":"constructor","inputs":[],"stateMutability":"nonpayable"},{"type":"fallback","stateMutability":"nonpayable"},{"type":"receive","stateMutability":"payable"},{"type":"function","name":"VERSION","inputs":[],"outputs":[{"name":"","type":"string","internalType":"string"}],"stateMutability":"view"},{"type":"function","name":"addOwnerWithThreshold","inputs":[{"name":"owner","type":"address","internalType":"address"},{"name":"_threshold","type":"uint256","internalType":"uint256"}],"outputs":[],"stateMutability":"nonpayable"},{"type":"function","name":"approveHash","inputs":[{"name":"hashToApprove","type":"bytes32","internalType":"bytes32"}],"outputs":[],"stateMutability":"nonpayable"},{"type":"function","name":"approvedHashes","inputs":[{"name":"","type":"address","internalType":"address"},{"name":"","type":"bytes32","internalType":"bytes32"}],"outputs":[{"name":"","type":"uint256","internalType":"uint256"}],"stateMutability":"view"},{"type":"function","name":"changeThreshold","inputs":[{"name":"_threshold","type":"uint256","internalType":"uint256"}],"outputs":[],"stateMutability":"nonpayable"},{"type":"function","name":"checkNSignatures","inputs":[{"name":"dataHash","type":"bytes32","internalType":"bytes32"},{"name":"data","type":"bytes","internalType":"bytes"},{"name":"signatures","type":"bytes","internalType":"bytes"},{"name":"requiredSignatures","type":"uint256","internalType":"uint256"}],"outputs":[],"stateMutability":"view"},{"type":"function","name":"checkSignatures","inputs":[{"name":"dataHash","type":"bytes32","internalType":"bytes32"},{"name":"data","type":"bytes","internalType":"bytes"},{"name":"signatures","type":"bytes","internalType":"bytes"}],"outputs":[],"stateMutability":"view"},{"type":"function","name":"disableModule","inputs":[{"name":"prevModule","type":"address","internalType":"address"},{"name":"module","type":"address","internalType":"address"}],"outputs":[],"stateMutability":"nonpayable"},{"type":"function","name":"domainSeparator","inputs":[],"outputs":[{"name":"","type":"bytes32","internalType":"bytes32"}],"stateMutability":"view"},{"type":"function","name":"enableModule","inputs":[{"name":"module","type":"address","internalType":"address"}],"outputs":[],"stateMutability":"nonpayable"},{"type":"function","name":"encodeTransactionData","inputs":[{"name":"to","type":"address","internalType":"address"},{"name":"value","type":"uint256","internalType":"uint256"},{"name":"data","type":"bytes","internalType":"bytes"},{"name":"operation","type":"uint8","internalType":"enum Enum.Operation"},{"name":"safeTxGas","type":"uint256","internalType":"uint256"},{"name":"baseGas","type":"uint256","internalType":"uint256"},{"name":"gasPrice","type":"uint256","internalType":"uint256"},{"name":"gasToken","type":"address","internalType":"address"},{"name":"refundReceiver","type":"address","internalType":"address"},{"name":"_nonce","type":"uint256","internalType":"uint256"}],"outputs":[{"name":"","type":"bytes","internalType":"bytes"}],"stateMutability":"view"},{"type":"function","name":"execTransaction","inputs":[{"name":"to","type":"address","internalType":"address"},{"name":"value","type":"uint256","internalType":"uint256"},{"name":"data","type":"bytes","internalType":"bytes"},{"name":"operation","type":"uint8","internalType":"enum Enum.Operation"},{"name":"safeTxGas","type":"uint256","internalType":"uint256"},{"name":"baseGas","type":"uint256","internalType":"uint256"},{"name":"gasPrice","type":"uint256","internalType":"uint256"},{"name":"gasToken","type":"address","internalType":"address"},{"name":"refundReceiver","type":"address","internalType":"address payable"},{"name":"signatures","type":"bytes","internalType":"bytes"}],"outputs":[{"name":"success","type":"bool","internalType":"bool"}],"stateMutability":"payable"},{"type":"function","name":"execTransactionFromModule","inputs":[{"name":"to","type":"address","internalType":"address"},{"name":"value","type":"uint256","internalType":"uint256"},{"name":"data","type":"bytes","internalType":"bytes"},{"name":"operation","type":"uint8","internalType":"enum Enum.Operation"}],"outputs":[{"name":"success","type":"bool","internalType":"bool"}],"stateMutability":"nonpayable"},{"type":"function","name":"execTransactionFromModuleReturnData","inputs":[{"name":"to","type":"address","internalType":"address"},{"name":"value","type":"uint256","internalType":"uint256"},{"name":"data","type":"bytes","internalType":"bytes"},{"name":"operation","type":"uint8","internalType":"enum Enum.Operation"}],"outputs":[{"name":"success","type":"bool","internalType":"bool"},{"name":"returnData","type":"bytes","internalType":"bytes"}],"stateMutability":"nonpayable"},{"type":"function","name":"getChainId","inputs":[],"outputs":[{"name":"","type":"uint256","internalType":"uint256"}],"stateMutability":"view"},{"type":"function","name":"getModulesPaginated","inputs":[{"name":"start","type":"address","internalType":"address"},{"name":"pageSize","type":"uint256","internalType":"uint256"}],"outputs":[{"name":"array","type":"address[]","internalType":"address[]"},{"name":"next","type":"address","internalType":"address"}],"stateMutability":"view"},{"type":"function","name":"getOwners","inputs":[],"outputs":[{"name":"","type":"address[]","internalType":"address[]"}],"stateMutability":"view"},{"type":"function","name":"getStorageAt","inputs":[{"name":"offset","type":"uint256","internalType":"uint256"},{"name":"length","type":"uint256","internalType":"uint256"}],"outputs":[{"name":"","type":"bytes","internalType":"bytes"}],"stateMutability":"view"},{"type":"function","name":"getThreshold","inputs":[],"outputs":[{"name":"","type":"uint256","internalType":"uint256"}],"stateMutability":"view"},{"type":"function","name":"getTransactionHash","inputs":[{"name":"to","type":"address","internalType":"address"},{"name":"value","type":"uint256","internalType":"uint256"},{"name":"data","type":"bytes","internalType":"bytes"},{"name":"operation","type":"uint8","internalType":"enum Enum.Operation"},{"name":"safeTxGas","type":"uint256","internalType":"uint256"},{"name":"baseGas","type":"uint256","internalType":"uint256"},{"name":"gasPrice","type":"uint256","internalType":"uint256"},{"name":"gasToken","type":"address","internalType":"address"},{"name":"refundReceiver","type":"address","internalType":"address"},{"name":"_nonce","type":"uint256","internalType":"uint256"}],"outputs":[{"name":"","type":"bytes32","internalType":"bytes32"}],"stateMutability":"view"},{"type":"function","name":"isModuleEnabled","inputs":[{"name":"module","type":"address","internalType":"address"}],"outputs":[{"name":"","type":"bool","internalType":"bool"}],"stateMutability":"view"},{"type":"function","name":"isOwner","inputs":[{"name":"owner","type":"address","internalType":"address"}],"outputs":[{"name":"","type":"bool","internalType":"bool"}],"stateMutability":"view"},{"type":"function","name":"nonce","inputs":[],"outputs":[{"name":"","type":"uint256","internalType":"uint256"}],"stateMutability":"view"},{"type":"function","name":"removeOwner","inputs":[{"name":"prevOwner","type":"address","internalType":"address"},{"name":"owner","type":"address","internalType":"address"},{"name":"_threshold","type":"uint256","internalType":"uint256"}],"outputs":[],"stateMutability":"nonpayable"},{"type":"function","name":"setFallbackHandler","inputs":[{"name":"handler","type":"address","internalType":"address"}],"outputs":[],"stateMutability":"nonpayable"},{"type":"function","name":"setGuard","inputs":[{"name":"guard","type":"address","internalType":"address"}],"outputs":[],"stateMutability":"nonpayable"},{"type":"function","name":"setup","inputs":[{"name":"_owners","type":"address[]","internalType":"address[]"},{"name":"_threshold","type":"uint256","internalType":"uint256"},{"name":"to","type":"address","internalType":"address"},{"name":"data","type":"bytes","internalType":"bytes"},{"name":"fallbackHandler","type":"address","internalType":"address"},{"name":"paymentToken","type":"address","internalType":"address"},{"name":"payment","type":"uint256","internalType":"uint256"},{"name":"paymentReceiver","type":"address","internalType":"address payable"}],"outputs":[],"stateMutability":"nonpayable"},{"type":"function","name":"signedMessages","inputs":[{"name":"","type":"bytes32","internalType":"bytes32"}],"outputs":[{"name":"","type":"uint256","internalType":"uint256"}],"stateMutability":"view"},{"type":"function","name":"simulateAndRevert","inputs":[{"name":"targetContract","type":"address","internalType":"address"},{"name":"calldataPayload","type":"bytes","internalType":"bytes"}],"outputs":[],"stateMutability":"nonpayable"},{"type":"function","name":"swapOwner","inputs":[{"name":"prevOwner","type":"address","internalType":"address"},{"name":"oldOwner","type":"address","internalType":"address"},{"name":"newOwner","type":"address","internalType":"address"}],"outputs":[],"stateMutability":"nonpayable"},{"type":"event","name":"AddedOwner","inputs":[{"name":"owner","type":"address","indexed":true,"internalType":"address"}],"anonymous":false},{"type":"event","name":"ApproveHash","inputs":[{"name":"approvedHash","type":"bytes32","indexed":true,"internalType":"bytes32"},{"name":"owner","type":"address","indexed":true,"internalType":"address"}],"anonymous":false},{"type":"event","name":"ChangedFallbackHandler","inputs":[{"name":"handler","type":"address","indexed":true,"internalType":"address"}],"anonymous":false},{"type":"event","name":"ChangedGuard","inputs":[{"name":"guard","type":"address","indexed":true,"internalType":"address"}],"anonymous":false},{"type":"event","name":"ChangedThreshold","inputs":[{"name":"threshold","type":"uint256","indexed":false,"internalType":"uint256"}],"anonymous":false},{"type":"event","name":"DisabledModule","inputs":[{"name":"module","type":"address","indexed":true,"internalType":"address"}],"anonymous":false},{"type":"event","name":"EnabledModule","inputs":[{"name":"module","type":"address","indexed":true,"internalType":"address"}],"anonymous":false},{"type":"event","name":"ExecutionFailure","inputs":[{"name":"txHash","type":"bytes32","indexed":true,"internalType":"bytes32"},{"name":"payment","type":"uint256","indexed":false,"internalType":"uint256"}],"anonymous":false},{"type":"event","name":"ExecutionFromModuleFailure","inputs":[{"name":"module","type":"address","indexed":true,"internalType":"address"}],"anonymous":false},{"type":"event","name":"ExecutionFromModuleSuccess","inputs":[{"name":"module","type":"address","indexed":true,"internalType":"address"}],"anonymous":false},{"type":"event","name":"ExecutionSuccess","inputs":[{"name":"txHash","type":"bytes32","indexed":true,"internalType":"bytes32"},{"name":"payment","type":"uint256","indexed":false,"internalType":"uint256"}],"anonymous":false},{"type":"event","name":"RemovedOwner","inputs":[{"name":"owner","type":"address","indexed":true,"internalType":"address"}],"anonymous":false},{"type":"event","name":"SafeReceived","inputs":[{"name":"sender","type":"address","indexed":true,"internalType":"address"},{"name":"value","type":"uint256","indexed":false,"internalType":"uint256"}],"anonymous":false},{"type":"event","name":"SafeSetup","inputs":[{"name":"initiator","type":"address","indexed":true,"internalType":"address"},{"name":"owners","type":"address[]","indexed":false,"internalType":"address[]"},{"name":"threshold","type":"uint256","indexed":false,"internalType":"uint256"},{"name":"initializer","type":"address","indexed":false,"internalType":"address"},{"name":"fallbackHandler","type":"address","indexed":false,"internalType":"address"}],"anonymous":false},{"type":"event","name":"SignMsg","inputs":[{"name":"msgHash","type":"bytes32","indexed":true,"internalType":"bytes32"}],"anonymous":false}],"bytecode":{"object":"0x608060405234801561001057600080fd5b50600160045561356f806100256000396000f3fe6080604052600436106101d15760003560e01c8063affed0e0116100f7578063e19a9dd911610095578063f08a032311610064578063f08a0323146105f5578063f698da2514610615578063f8dc5dd91461067c578063ffa1ad741461069c5761020d565b8063e19a9dd914610580578063e318b52b146105a0578063e75235b8146105c0578063e86637db146105d55761020d565b8063cc2f8452116100d1578063cc2f8452146104f2578063d4d9bdcd14610520578063d8d11f7814610540578063e009cfde146105605761020d565b8063affed0e01461049c578063b4faba09146104b2578063b63e800d146104d25761020d565b80635624b25b1161016f5780636a7612021161013e5780636a7612021461040f5780637d83297414610422578063934f3a111461045a578063a0e67e2b1461047a5761020d565b80635624b25b146103755780635ae6bd37146103a2578063610b5925146103cf578063694e80c3146103ef5761020d565b80632f54bf6e116101ab5780632f54bf6e146102ea5780633408e4701461030a578063468721a7146103275780635229073f146103475761020d565b80630d582f131461027357806312fb68e0146102955780632d9ad53d146102b55761020d565b3661020d5760405134815233907f3d0ce9bfc3ed7d6862dbb28b2dea94561fe714a1b4d019aa8af39730d1ad7c3d9060200160405180910390a2005b34801561021957600080fd5b507f6c9a6c4a39284e37ed1cf53d337577d14212a4870fb976a4366c693b939918d580548061024457005b36600080373360601b365260008060143601600080855af190503d6000803e8061026d573d6000fd5b503d6000f35b34801561027f57600080fd5b5061029361028e366004612a8f565b6106e5565b005b3480156102a157600080fd5b506102936102b0366004612b5e565b610869565b3480156102c157600080fd5b506102d56102d0366004612bd3565b610e02565b60405190151581526020015b60405180910390f35b3480156102f657600080fd5b506102d5610305366004612bd3565b610e3d565b34801561031657600080fd5b50465b6040519081526020016102e1565b34801561033357600080fd5b506102d5610342366004612bff565b610e75565b34801561035357600080fd5b50610367610362366004612bff565b610f66565b6040516102e1929190612caf565b34801561038157600080fd5b50610395610390366004612cca565b610f9c565b6040516102e19190612cec565b3480156103ae57600080fd5b506103196103bd366004612cff565b60076020526000908152604090205481565b3480156103db57600080fd5b506102936103ea366004612bd3565b611022565b3480156103fb57600080fd5b5061029361040a366004612cff565b611173565b6102d561041d366004612d61565b611229565b34801561042e57600080fd5b5061031961043d366004612a8f565b600860209081526000928352604080842090915290825290205481565b34801561046657600080fd5b50610293610475366004612e3a565b6115bd565b34801561048657600080fd5b5061048f61161f565b6040516102e19190612eeb565b3480156104a857600080fd5b5061031960055481565b3480156104be57600080fd5b506102936104cd366004612efe565b611710565b3480156104de57600080fd5b506102936104ed366004612f4e565b611733565b3480156104fe57600080fd5b5061051261050d366004612a8f565b611835565b6040516102e1929190613043565b34801561052c57600080fd5b5061029361053b366004612cff565b611a21565b34801561054c57600080fd5b5061031961055b36600461306e565b611ace565b34801561056c57600080fd5b5061029361057b36600461312f565b611afb565b34801561058c57600080fd5b5061029361059b366004612bd3565b611c35565b3480156105ac57600080fd5b506102936105bb366004613168565b611d95565b3480156105cc57600080fd5b50600454610319565b3480156105e157600080fd5b506103956105f036600461306e565b611fb8565b34801561060157600080fd5b50610293610610366004612bd3565b612133565b34801561062157600080fd5b5061031960007f47e79534a245952e8b16893a336b85a3d9ea9fa8c573f3d803afb92a794692184660408051602081019390935282015230606082015260800160405160208183030381529060405280519060200120905090565b34801561068857600080fd5b506102936106973660046131b3565b61217b565b3480156106a857600080fd5b506103956040518060400160405280600581526020017f312e342e3100000000000000000000000000000000000000000000000000000081525081565b6106ed612316565b6001600160a01b0382161580159061070f57506001600160a01b038216600114155b801561072457506001600160a01b0382163014155b61075d5760405162461bcd60e51b8152602060048201526005602482015264475332303360d81b60448201526064015b60405180910390fd5b6001600160a01b0382811660009081526002602052604090205416156107ad5760405162461bcd60e51b815260206004820152600560248201526411d4cc8c0d60da1b6044820152606401610754565b60026020527fe90b7bceb6e7df5418fb78d8ee546e97c83a08bbccc01a0644d599ccd2a7c2e080546001600160a01b038481166000818152604081208054939094166001600160a01b03199384161790935560018352835490911617909155600380549161081a8361320a565b90915550506040516001600160a01b038316907f9465fa0c962cc76958e6373a993326400c1c94f8be2fe3a952adfa7f60b2ea2690600090a280600454146108655761086581611173565b5050565b610874816041612367565b825110156108c45760405162461bcd60e51b815260206004820152600560248201527f47533032300000000000000000000000000000000000000000000000000000006044820152606401610754565b6000808060008060005b86811015610df6576041818102890160208101516040820151919092015160ff16955090935091506000849003610b8557885160208a01208a146109545760405162461bcd60e51b815260206004820152600560248201527f47533032370000000000000000000000000000000000000000000000000000006044820152606401610754565b9193508391610964876041612367565b8210156109b35760405162461bcd60e51b815260206004820152600560248201527f47533032310000000000000000000000000000000000000000000000000000006044820152606401610754565b87516109c08360206123a3565b1115610a0e5760405162461bcd60e51b815260206004820152600560248201527f47533032320000000000000000000000000000000000000000000000000000006044820152606401610754565b602082890181015189519091610a31908390610a2b9087906123a3565b906123a3565b1115610a7f5760405162461bcd60e51b815260206004820152600560248201527f47533032330000000000000000000000000000000000000000000000000000006044820152606401610754565b6040517f20c13b0b000000000000000000000000000000000000000000000000000000008082528a8501602001916001600160a01b038916906320c13b0b90610ace908f908690600401613223565b602060405180830381865afa158015610aeb573d6000803e3d6000fd5b505050506040513d601f19601f82011682018060405250810190610b0f9190613248565b7fffffffff000000000000000000000000000000000000000000000000000000001614610b7e5760405162461bcd60e51b815260206004820152600560248201527f47533032340000000000000000000000000000000000000000000000000000006044820152606401610754565b5050610d44565b8360ff16600103610c1f579193508391336001600160a01b0384161480610bce57506001600160a01b03851660009081526008602090815260408083208d845290915290205415155b610c1a5760405162461bcd60e51b815260206004820152600560248201527f47533032350000000000000000000000000000000000000000000000000000006044820152606401610754565b610d44565b601e8460ff161115610ce4576040517f19457468657265756d205369676e6564204d6573736167653a0a3332000000006020820152603c81018b9052600190605c0160405160208183030381529060405280519060200120600486610c84919061328a565b6040805160008152602081018083529390935260ff90911690820152606081018590526080810184905260a0016020604051602081039080840390855afa158015610cd3573d6000803e3d6000fd5b505050602060405103519450610d44565b6040805160008152602081018083528c905260ff861691810191909152606081018490526080810183905260019060a0016020604051602081039080840390855afa158015610d37573d6000803e3d6000fd5b5050506020604051035194505b856001600160a01b0316856001600160a01b0316118015610d7e57506001600160a01b038581166000908152600260205260409020541615155b8015610d9457506001600160a01b038516600114155b610de05760405162461bcd60e51b815260206004820152600560248201527f47533032360000000000000000000000000000000000000000000000000000006044820152606401610754565b8495508080610dee9061320a565b9150506108ce565b50505050505050505050565b600060016001600160a01b03831614801590610e3757506001600160a01b038281166000908152600160205260409020541615155b92915050565b60006001600160a01b038216600114801590610e375750506001600160a01b0390811660009081526002602052604090205416151590565b600033600114801590610e9f5750336000908152600160205260409020546001600160a01b031615155b610eeb5760405162461bcd60e51b815260206004820152600560248201527f47533130340000000000000000000000000000000000000000000000000000006044820152606401610754565b610efa858585856000196123bf565b90508015610f325760405133907f6895c13664aa4f67288b25d7a21d7aaa34916e355fb9b6fae0a139a9085becb890600090a2610f5e565b60405133907facd2c8702804128fdb0db2bb49f6d127dd0181c13fd45dbfe16de0930e2bd37590600090a25b949350505050565b60006060610f7686868686610e75565b915060405160203d0181016040523d81523d6000602083013e8091505094509492505050565b60606000610fab8360206132a3565b67ffffffffffffffff811115610fc357610fc3612abb565b6040519080825280601f01601f191660200182016040528015610fed576020820181803683370190505b50905060005b8381101561101a5784810154602080830284010152806110128161320a565b915050610ff3565b509392505050565b61102a612316565b6001600160a01b0381161580159061104c57506001600160a01b038116600114155b6110805760405162461bcd60e51b8152602060048201526005602482015264475331303160d81b6044820152606401610754565b6001600160a01b0381811660009081526001602052604090205416156110e85760405162461bcd60e51b815260206004820152600560248201527f47533130320000000000000000000000000000000000000000000000000000006044820152606401610754565b600160208190527fcc69885fda6bcc1a4ace058b4a62bf5e179ea78fd58a1ccd71c22cc9b688792f80546001600160a01b03848116600081815260408082208054949095166001600160a01b031994851617909455948552835490911681179092555190917fecdf3a3effea5783a3c4c2140e677577666428d44ed9d474a0b3a4c9943f844091a250565b61117b612316565b6003548111156111b55760405162461bcd60e51b8152602060048201526005602482015264475332303160d81b6044820152606401610754565b60018110156111ee5760405162461bcd60e51b815260206004820152600560248201526423a999181960d91b6044820152606401610754565b60048190556040518181527f610f7ff2b304ae8903c3de74c60c6ab1f7d6226b3f52c5161905bb5ad4039c939060200160405180910390a150565b60008060006112438e8e8e8e8e8e8e8e8e8e600554611fb8565b6005805491925060006112558361320a565b909155505080516020820120915061126e8282866115bd565b5060006112997f4a204f620c8c5ccdca3fd54d003badd85ba500436a431f0cbda4f558c93c34c85490565b90506001600160a01b0381161561131f57806001600160a01b03166375f0bb528f8f8f8f8f8f8f8f8f8f8f336040518d63ffffffff1660e01b81526004016112ec9c9b9a999897969594939291906132f2565b600060405180830381600087803b15801561130657600080fd5b505af115801561131a573d6000803e3d6000fd5b505050505b61134b61132e8a6109c46133b6565b603f61133b8c60406132a3565b61134591906133c9565b90612406565b611357906101f46133b6565b5a10156113a65760405162461bcd60e51b815260206004820152600560248201527f47533031300000000000000000000000000000000000000000000000000000006044820152606401610754565b60005a90506114178f8f8f8f8080601f016020809104026020016040519081016040528093929190818152602001838380828437600081840152601f19601f820116905080830192505050505050508e8c600014611404578e6123bf565b6109c45a61141291906133eb565b6123bf565b93506114245a829061241d565b9050838061143157508915155b8061143b57508715155b6114875760405162461bcd60e51b815260206004820152600560248201527f47533031330000000000000000000000000000000000000000000000000000006044820152606401610754565b6000881561149f5761149c828b8b8b8b612438565b90505b84156114e457837f442e715f626346e8c54381002da614f62bee8d27386535b2521ec8540898556e826040516114d791815260200190565b60405180910390a261151f565b837f23428b18acfb3ea64b08dc0c1d296ea9c09702c09083ca5272e64d115b687d238260405161151691815260200190565b60405180910390a25b50506001600160a01b038116156115ac576040517f932713680000000000000000000000000000000000000000000000000000000081526004810183905283151560248201526001600160a01b03821690639327136890604401600060405180830381600087803b15801561159357600080fd5b505af11580156115a7573d6000803e3d6000fd5b505050505b50509b9a5050505050505050505050565b6004548061160d5760405162461bcd60e51b815260206004820152600560248201527f47533030310000000000000000000000000000000000000000000000000000006044820152606401610754565b61161984848484610869565b50505050565b6060600060035467ffffffffffffffff81111561163e5761163e612abb565b604051908082528060200260200182016040528015611667578160200160208202803683370190505b506001600090815260026020527fe90b7bceb6e7df5418fb78d8ee546e97c83a08bbccc01a0644d599ccd2a7c2e054919250906001600160a01b03165b6001600160a01b03811660011461170857808383815181106116c8576116c86133fe565b6001600160a01b039283166020918202929092018101919091529181166000908152600290925260409091205416816117008161320a565b9250506116a4565b509092915050565b600080825160208401855af480600052503d6020523d600060403e60403d016000fd5b6117718a8a808060200260200160405190810160405280939291908181526020018383602002808284376000920191909152508c925061256e915050565b6001600160a01b0384161561178957611789846127b4565b6117c98787878080601f01602080910402602001604051908101604052809392919081815260200183838082843760009201919091525061283092505050565b81156117e0576117de82600060018685612438565b505b336001600160a01b03167f141df868a6331af528e38c83b7aa03edc19be66e37ae67f9285bf4f8e3c6a1a88b8b8b8b89604051611821959493929190613414565b60405180910390a250505050505050505050565b606060006001600160a01b03841660011480611855575061185584610e02565b6118a15760405162461bcd60e51b815260206004820152600560248201527f47533130350000000000000000000000000000000000000000000000000000006044820152606401610754565b600083116118f15760405162461bcd60e51b815260206004820152600560248201527f47533130360000000000000000000000000000000000000000000000000000006044820152606401610754565b8267ffffffffffffffff81111561190a5761190a612abb565b604051908082528060200260200182016040528015611933578160200160208202803683370190505b506001600160a01b03808616600090815260016020526040812054929450911691505b6001600160a01b0382161580159061197857506001600160a01b038216600114155b801561198357508381105b156119de578183828151811061199b5761199b6133fe565b6001600160a01b039283166020918202929092018101919091529281166000908152600190935260409092205490911690806119d68161320a565b915050611956565b6001600160a01b038216600114611a1657826119fb6001836133eb565b81518110611a0b57611a0b6133fe565b602002602001015191505b808352509250929050565b336000908152600260205260409020546001600160a01b0316611a865760405162461bcd60e51b815260206004820152600560248201527f47533033300000000000000000000000000000000000000000000000000000006044820152606401610754565b336000818152600860209081526040808320858452909152808220600190555183917ff2a0eb156472d1440255b0d7c1e19cc07115d1051fe605b0dce69acfec884d9c91a350565b6000611ae38c8c8c8c8c8c8c8c8c8c8c611fb8565b8051906020012090509b9a5050505050505050505050565b611b03612316565b6001600160a01b03811615801590611b2557506001600160a01b038116600114155b611b595760405162461bcd60e51b8152602060048201526005602482015264475331303160d81b6044820152606401610754565b6001600160a01b03828116600090815260016020526040902054811690821614611bc55760405162461bcd60e51b815260206004820152600560248201527f47533130330000000000000000000000000000000000000000000000000000006044820152606401610754565b6001600160a01b03818116600081815260016020526040808220805487861684528284208054919096166001600160a01b0319918216179095558383528054909416909355915190917faab4fa2b463f581b2b32cb3b7e3b704b9ce37cc209b5fb4d77e593ace405427691a25050565b611c3d612316565b6001600160a01b03811615611d39576040517f01ffc9a70000000000000000000000000000000000000000000000000000000081527fe6d7a83a0000000000000000000000000000000000000000000000000000000060048201526001600160a01b038216906301ffc9a790602401602060405180830381865afa158015611cc9573d6000803e3d6000fd5b505050506040513d601f19601f82011682018060405250810190611ced9190613480565b611d395760405162461bcd60e51b815260206004820152600560248201527f47533330300000000000000000000000000000000000000000000000000000006044820152606401610754565b7f4a204f620c8c5ccdca3fd54d003badd85ba500436a431f0cbda4f558c93c34c88181556040516001600160a01b038316907f1151116914515bc0891ff9047a6cb32cf902546f83066499bcf8ba33d2353fa290600090a25050565b611d9d612316565b6001600160a01b03811615801590611dbf57506001600160a01b038116600114155b8015611dd457506001600160a01b0381163014155b611e085760405162461bcd60e51b8152602060048201526005602482015264475332303360d81b6044820152606401610754565b6001600160a01b038181166000908152600260205260409020541615611e585760405162461bcd60e51b815260206004820152600560248201526411d4cc8c0d60da1b6044820152606401610754565b6001600160a01b03821615801590611e7a57506001600160a01b038216600114155b611eae5760405162461bcd60e51b8152602060048201526005602482015264475332303360d81b6044820152606401610754565b6001600160a01b03838116600090815260026020526040902054811690831614611f025760405162461bcd60e51b8152602060048201526005602482015264475332303560d81b6044820152606401610754565b6001600160a01b03828116600081815260026020526040808220805486861680855283852080549288166001600160a01b03199384161790559589168452828420805482169096179095558383528054909416909355915190917ff8d49fc529812e9a7c5c50e69c20f0dccc0db8fa95c98bc58cc9a4f1c1299eaf91a26040516001600160a01b038216907f9465fa0c962cc76958e6373a993326400c1c94f8be2fe3a952adfa7f60b2ea2690600090a2505050565b606060007fbb8310d486368db6bd6f849402fdd73ad53d316b5a4b2644ad6efe0f941286d860001b8d8d8d8d604051611ff29291906134a2565b604051908190038120612018949392918e908e908e908e908e908e908e906020016134b2565b60408051601f19818403018152919052805160209091012090507f19000000000000000000000000000000000000000000000000000000000000007f01000000000000000000000000000000000000000000000000000000000000006120ce60007f47e79534a245952e8b16893a336b85a3d9ea9fa8c573f3d803afb92a794692184660408051602081019390935282015230606082015260800160405160208183030381529060405280519060200120905090565b6040517fff0000000000000000000000000000000000000000000000000000000000000093841660208201529290911660218301526022820152604281018290526062016040516020818303038152906040529150509b9a5050505050505050505050565b61213b612316565b612144816127b4565b6040516001600160a01b038216907f5ac6c46c93c8d0e53714ba3b53db3e7c046da994313d7ed0d192028bc7c228b090600090a250565b612183612316565b80600160035461219391906133eb565b10156121c95760405162461bcd60e51b8152602060048201526005602482015264475332303160d81b6044820152606401610754565b6001600160a01b038216158015906121eb57506001600160a01b038216600114155b61221f5760405162461bcd60e51b8152602060048201526005602482015264475332303360d81b6044820152606401610754565b6001600160a01b038381166000908152600260205260409020548116908316146122735760405162461bcd60e51b8152602060048201526005602482015264475332303560d81b6044820152606401610754565b6001600160a01b03828116600081815260026020526040808220805488861684529183208054929095166001600160a01b031992831617909455918152825490911690915560038054916122c683613522565b90915550506040516001600160a01b038316907ff8d49fc529812e9a7c5c50e69c20f0dccc0db8fa95c98bc58cc9a4f1c1299eaf90600090a280600454146123115761231181611173565b505050565b3330146123655760405162461bcd60e51b815260206004820152600560248201527f47533033310000000000000000000000000000000000000000000000000000006044820152606401610754565b565b60008260000361237957506000610e37565b600061238583856132a3565b90508261239285836133c9565b1461239c57600080fd5b9392505050565b6000806123b083856133b6565b90508381101561239c57600080fd5b600060018360018111156123d5576123d56132ba565b036123ed576000808551602087018986f490506123fd565b600080855160208701888a87f190505b95945050505050565b600081831015612416578161239c565b5090919050565b60008282111561242c57600080fd5b6000610f5e83856133eb565b6000806001600160a01b038316156124505782612452565b325b90506001600160a01b0384166124fd576124843a8610612472573a612474565b855b61247e89896123a3565b90612367565b6040519092506001600160a01b0382169083156108fc029084906000818181858888f193505050506124f85760405162461bcd60e51b815260206004820152600560248201527f47533031310000000000000000000000000000000000000000000000000000006044820152606401610754565b612564565b61250b8561247e89896123a3565b91506125188482846129aa565b6125645760405162461bcd60e51b815260206004820152600560248201527f47533031320000000000000000000000000000000000000000000000000000006044820152606401610754565b5095945050505050565b600454156125be5760405162461bcd60e51b815260206004820152600560248201527f47533230300000000000000000000000000000000000000000000000000000006044820152606401610754565b81518111156125f75760405162461bcd60e51b8152602060048201526005602482015264475332303160d81b6044820152606401610754565b60018110156126305760405162461bcd60e51b815260206004820152600560248201526423a999181960d91b6044820152606401610754565b600160005b8351811015612781576000848281518110612652576126526133fe565b6020026020010151905060006001600160a01b0316816001600160a01b03161415801561268957506001600160a01b038116600114155b801561269e57506001600160a01b0381163014155b80156126bc5750806001600160a01b0316836001600160a01b031614155b6126f05760405162461bcd60e51b8152602060048201526005602482015264475332303360d81b6044820152606401610754565b6001600160a01b0381811660009081526002602052604090205416156127405760405162461bcd60e51b815260206004820152600560248201526411d4cc8c0d60da1b6044820152606401610754565b6001600160a01b03928316600090815260026020526040902080546001600160a01b03191693821693909317909255806127798161320a565b915050612635565b506001600160a01b0316600090815260026020526040902080546001600160a01b03191660011790559051600355600455565b306001600160a01b0382160361280c5760405162461bcd60e51b815260206004820152600560248201527f47533430300000000000000000000000000000000000000000000000000000006044820152606401610754565b7f6c9a6c4a39284e37ed1cf53d337577d14212a4870fb976a4366c693b939918d555565b600160008190526020527fcc69885fda6bcc1a4ace058b4a62bf5e179ea78fd58a1ccd71c22cc9b688792f546001600160a01b0316156128b25760405162461bcd60e51b815260206004820152600560248201527f47533130300000000000000000000000000000000000000000000000000000006044820152606401610754565b6001600081905260208190527fcc69885fda6bcc1a4ace058b4a62bf5e179ea78fd58a1ccd71c22cc9b688792f80546001600160a01b03191690911790556001600160a01b0382161561086557813b61294d5760405162461bcd60e51b815260206004820152600560248201527f47533030320000000000000000000000000000000000000000000000000000006044820152606401610754565b61295e8260008360016000196123bf565b6108655760405162461bcd60e51b815260206004820152600560248201527f47533030300000000000000000000000000000000000000000000000000000006044820152606401610754565b604080516001600160a01b03841660248201526044808201849052825180830390910181526064909101909152602080820180517bffffffffffffffffffffffffffffffffffffffffffffffffffffffff167fa9059cbb000000000000000000000000000000000000000000000000000000001781528251600093929184919082896127105a03f13d8015612a4a5760208114612a525760009350612a5d565b819350612a5d565b600051158215171593505b5050509392505050565b6001600160a01b0381168114612a7c57600080fd5b50565b8035612a8a81612a67565b919050565b60008060408385031215612aa257600080fd5b8235612aad81612a67565b946020939093013593505050565b634e487b7160e01b600052604160045260246000fd5b600082601f830112612ae257600080fd5b813567ffffffffffffffff80821115612afd57612afd612abb565b604051601f8301601f19908116603f01168101908282118183101715612b2557612b25612abb565b81604052838152866020858801011115612b3e57600080fd5b836020870160208301376000602085830101528094505050505092915050565b60008060008060808587031215612b7457600080fd5b84359350602085013567ffffffffffffffff80821115612b9357600080fd5b612b9f88838901612ad1565b94506040870135915080821115612bb557600080fd5b50612bc287828801612ad1565b949793965093946060013593505050565b600060208284031215612be557600080fd5b813561239c81612a67565b803560028110612a8a57600080fd5b60008060008060808587031215612c1557600080fd5b8435612c2081612a67565b935060208501359250604085013567ffffffffffffffff811115612c4357600080fd5b612c4f87828801612ad1565b925050612c5e60608601612bf0565b905092959194509250565b6000815180845260005b81811015612c8f57602081850181015186830182015201612c73565b506000602082860101526020601f19601f83011685010191505092915050565b8215158152604060208201526000610f5e6040830184612c69565b60008060408385031215612cdd57600080fd5b50508035926020909101359150565b60208152600061239c6020830184612c69565b600060208284031215612d1157600080fd5b5035919050565b60008083601f840112612d2a57600080fd5b50813567ffffffffffffffff811115612d4257600080fd5b602083019150836020828501011115612d5a57600080fd5b9250929050565b60008060008060008060008060008060006101408c8e031215612d8357600080fd5b612d8c8c612a7f565b9a5060208c0135995067ffffffffffffffff8060408e01351115612daf57600080fd5b612dbf8e60408f01358f01612d18565b909a509850612dd060608e01612bf0565b975060808d0135965060a08d0135955060c08d01359450612df360e08e01612a7f565b9350612e026101008e01612a7f565b9250806101208e01351115612e1657600080fd5b50612e288d6101208e01358e01612ad1565b90509295989b509295989b9093969950565b600080600060608486031215612e4f57600080fd5b83359250602084013567ffffffffffffffff80821115612e6e57600080fd5b612e7a87838801612ad1565b93506040860135915080821115612e9057600080fd5b50612e9d86828701612ad1565b9150509250925092565b600081518084526020808501945080840160005b83811015612ee05781516001600160a01b031687529582019590820190600101612ebb565b509495945050505050565b60208152600061239c6020830184612ea7565b60008060408385031215612f1157600080fd5b8235612f1c81612a67565b9150602083013567ffffffffffffffff811115612f3857600080fd5b612f4485828601612ad1565b9150509250929050565b6000806000806000806000806000806101008b8d031215612f6e57600080fd5b8a3567ffffffffffffffff80821115612f8657600080fd5b818d0191508d601f830112612f9a57600080fd5b813581811115612fa957600080fd5b8e60208260051b8501011115612fbe57600080fd5b60208381019d50909b508d01359950612fd960408e01612a7f565b985060608d0135915080821115612fef57600080fd5b50612ffc8d828e01612d18565b909750955061300f905060808c01612a7f565b935061301d60a08c01612a7f565b925060c08b0135915061303260e08c01612a7f565b90509295989b9194979a5092959850565b6040815260006130566040830185612ea7565b90506001600160a01b03831660208301529392505050565b60008060008060008060008060008060006101408c8e03121561309057600080fd5b8b3561309b81612a67565b9a5060208c0135995060408c013567ffffffffffffffff8111156130be57600080fd5b6130ca8e828f01612d18565b909a5098506130dd905060608d01612bf0565b965060808c0135955060a08c0135945060c08c0135935060e08c013561310281612a67565b92506101008c013561311381612a67565b809250506101208c013590509295989b509295989b9093969950565b6000806040838503121561314257600080fd5b823561314d81612a67565b9150602083013561315d81612a67565b809150509250929050565b60008060006060848603121561317d57600080fd5b833561318881612a67565b9250602084013561319881612a67565b915060408401356131a881612a67565b809150509250925092565b6000806000606084860312156131c857600080fd5b83356131d381612a67565b925060208401356131e381612a67565b929592945050506040919091013590565b634e487b7160e01b600052601160045260246000fd5b60006001820161321c5761321c6131f4565b5060010190565b6040815260006132366040830185612c69565b82810360208401526123fd8185612c69565b60006020828403121561325a57600080fd5b81517fffffffff000000000000000000000000000000000000000000000000000000008116811461239c57600080fd5b60ff8281168282160390811115610e3757610e376131f4565b8082028115828204841417610e3757610e376131f4565b634e487b7160e01b600052602160045260246000fd5b600281106132ee57634e487b7160e01b600052602160045260246000fd5b9052565b60006101606001600160a01b038f1683528d60208401528060408401528b81840152506101808b8d828501376000838d01820152601f8c01601f1916830161333d606085018d6132d0565b8a60808501528960a08501528860c085015261336460e08501896001600160a01b03169052565b6001600160a01b038716610100850152818482030161012085015261338b82820187612c69565b925050506133a56101408301846001600160a01b03169052565b9d9c50505050505050505050505050565b80820180821115610e3757610e376131f4565b6000826133e657634e487b7160e01b600052601260045260246000fd5b500490565b81810381811115610e3757610e376131f4565b634e487b7160e01b600052603260045260246000fd5b6080808252810185905260008660a08301825b8881101561345757823561343a81612a67565b6001600160a01b0316825260209283019290910190600101613427565b50602084019690965250506001600160a01b039283166040820152911660609091015292915050565b60006020828403121561349257600080fd5b8151801515811461239c57600080fd5b8183823760009101908152919050565b6000610160820190508c82526001600160a01b03808d1660208401528b60408401528a60608401526134e7608084018b6132d0565b60a083019890985260c082019690965260e0810194909452918516610100840152909316610120820152610140019190915295945050505050565b600081613531576135316131f4565b50600019019056fea26469706673582212209bcbc2e71222794e10995ae165b9d71f7a026576c65a1cf169606564c80b43ee64736f6c63430008130033","linkReferences":{}},"methodIdentifiers":{"VERSION()":"ffa1ad74","addOwnerWithThreshold(address,uint256)":"0d582f13","approveHash(bytes32)":"d4d9bdcd","approvedHashes(address,bytes32)":"7d832974","changeThreshold(uint256)":"694e80c3","checkNSignatures(bytes32,bytes,bytes,uint256)":"12fb68e0","checkSignatures(bytes32,bytes,bytes)":"934f3a11","disableModule(address,address)":"e009cfde","domainSeparator()":"f698da25","enableModule(address)":"610b5925","encodeTransactionData(address,uint256,bytes,uint8,uint256,uint256,uint256,address,address,uint256)":"e86637db","execTransaction(address,uint256,bytes,uint8,uint256,uint256,uint256,address,address,bytes)":"6a761202","execTransactionFromModule(address,uint256,bytes,uint8)":"468721a7","execTransactionFromModuleReturnData(address,uint256,bytes,uint8)":"5229073f","getChainId()":"3408e470","getModulesPaginated(address,uint256)":"cc2f8452","getOwners()":"a0e67e2b","getStorageAt(uint256,uint256)":"5624b25b","getThreshold()":"e75235b8","getTransactionHash(address,uint256,bytes,uint8,uint256,uint256,uint256,address,address,uint256)":"d8d11f78","isModuleEnabled(address)":"2d9ad53d","isOwner(address)":"2f54bf6e","nonce()":"affed0e0","removeOwner(address,address,uint256)":"f8dc5dd9","setFallbackHandler(address)":"f08a0323","setGuard(address)":"e19a9dd9","setup(address[],uint256,address,bytes,address,address,uint256,address)":"b63e800d","signedMessages(bytes32)":"5ae6bd37","simulateAndRevert(address,bytes)":"b4faba09","swapOwner(address,address,address)":"e318b52b"},"id":73}