{"abi":[{"type":"constructor","inputs":[],"stateMutability":"nonpayable"},{"type":"function","name":"acceptOwnership","inputs":[],"outputs":[],"stateMutability":"nonpayable"},{"type":"function","name":"grantUpgradeAccess","inputs":[{"name":"upgradeWallet","type":"address","internalType":"address"}],"outputs":[],"stateMutability":"nonpayable"},{"type":"function","name":"initialize","inputs":[{"name":"initialOwner","type":"address","internalType":"address"}],"outputs":[],"stateMutability":"nonpayable"},{"type":"function","name":"mainOwner","inputs":[],"outputs":[{"name":"","type":"address","internalType":"address"}],"stateMutability":"view"},{"type":"function","name":"owner","inputs":[],"outputs":[{"name":"","type":"address","internalType":"address"}],"stateMutability":"view"},{"type":"function","name":"pendingOwner","inputs":[],"outputs":[{"name":"","type":"address","internalType":"address"}],"stateMutability":"view"},{"type":"function","name":"proxiableUUID","inputs":[],"outputs":[{"name":"","type":"bytes32","internalType":"bytes32"}],"stateMutability":"view"},{"type":"function","name":"proxyOwner","inputs":[],"outputs":[{"name":"","type":"address","internalType":"address"}],"stateMutability":"view"},{"type":"function","name":"reclaimUpgradeAccess","inputs":[],"outputs":[],"stateMutability":"nonpayable"},{"type":"function","name":"renounceOwnership","inputs":[],"outputs":[],"stateMutability":"nonpayable"},{"type":"function","name":"renounceUpgradeAccess","inputs":[],"outputs":[],"stateMutability":"nonpayable"},{"type":"function","name":"transferOwnership","inputs":[{"name":"newOwner","type":"address","internalType":"address"}],"outputs":[],"stateMutability":"nonpayable"},{"type":"function","name":"upgradeAccess","inputs":[],"outputs":[{"name":"","type":"address","internalType":"address"}],"stateMutability":"view"},{"type":"function","name":"upgradeTo","inputs":[{"name":"newImplementation","type":"address","internalType":"address"}],"outputs":[],"stateMutability":"nonpayable"},{"type":"function","name":"upgradeToAndCall","inputs":[{"name":"newImplementation","type":"address","internalType":"address"},{"name":"data","type":"bytes","internalType":"bytes"}],"outputs":[],"stateMutability":"payable"},{"type":"event","name":"AdminChanged","inputs":[{"name":"previousAdmin","type":"address","indexed":false,"internalType":"address"},{"name":"newAdmin","type":"address","indexed":false,"internalType":"address"}],"anonymous":false},{"type":"event","name":"BeaconUpgraded","inputs":[{"name":"beacon","type":"address","indexed":true,"internalType":"address"}],"anonymous":false},{"type":"event","name":"Initialized","inputs":[{"name":"version","type":"uint8","indexed":false,"internalType":"uint8"}],"anonymous":false},{"type":"event","name":"OwnershipTransferStarted","inputs":[{"name":"previousOwner","type":"address","indexed":true,"internalType":"address"},{"name":"newOwner","type":"address","indexed":true,"internalType":"address"}],"anonymous":false},{"type":"event","name":"OwnershipTransferred","inputs":[{"name":"previousOwner","type":"address","indexed":true,"internalType":"address"},{"name":"newOwner","type":"address","indexed":true,"internalType":"address"}],"anonymous":false},{"type":"event","name":"UpgradeAccessGranted","inputs":[{"name":"owner","type":"address","indexed":true,"internalType":"address"},{"name":"upgradeWallet","type":"address","indexed":true,"internalType":"address"}],"anonymous":false},{"type":"event","name":"UpgradeAccessReclaimed","inputs":[{"name":"owner","type":"address","indexed":true,"internalType":"address"},{"name":"previousUpgradeWallet","type":"address","indexed":true,"internalType":"address"}],"anonymous":false},{"type":"event","name":"UpgradeAccessRenounced","inputs":[{"name":"upgradeWallet","type":"address","indexed":true,"internalType":"address"}],"anonymous":false},{"type":"event","name":"Upgraded","inputs":[{"name":"implementation","type":"address","indexed":true,"internalType":"address"}],"anonymous":false},{"type":"error","name":"OwnableUnauthorizedAccount","inputs":[{"name":"account","type":"address","internalType":"address"}]}],"bytecode":{"object":"0x60a060405230608052348015610013575f80fd5b5061001c610021565b6100dd565b5f54610100900460ff161561008c5760405162461bcd60e51b815260206004820152602760248201527f496e697469616c697a61626c653a20636f6e747261637420697320696e697469604482015266616c697a696e6760c81b606482015260840160405180910390fd5b5f5460ff908116146100db575f805460ff191660ff9081179091556040519081527f7f26b83ff96e1f2b6a682f133852f6798a09c465da95921460cefb38474024989060200160405180910390a15b565b608051610ecd6101115f395f818161031f015281816103680152818161046d015281816104ad01526105280152610ecd5ff3fe6080604052600436106100b6575f3560e01c8062c53432146100ba578063025313a2146100db578063207195c8146101055780633659cfe6146101195780633c477f911461013857806343083c8a1461014c5780634f1ef2861461016057806352d1902d14610173578063715018a61461019557806374f1349c146101a957806379ba5097146101c85780638da5cb5b146101dc578063c4d66de8146101f0578063e30c39781461020f578063f2fde38b1461022e575b5f80fd5b3480156100c5575f80fd5b506100d96100d4366004610c65565b61024d565b005b3480156100e6575f80fd5b506100ef6102a0565b6040516100fc9190610c7e565b60405180910390f35b348015610110575f80fd5b506100d96102b8565b348015610124575f80fd5b506100d9610133366004610c65565b610315565b348015610143575f80fd5b506100ef6103e5565b348015610157575f80fd5b506100d96103ee565b6100d961016e366004610ca6565b610463565b34801561017e575f80fd5b5061018761051c565b6040519081526020016100fc565b3480156101a0575f80fd5b506100d96105c8565b3480156101b4575f80fd5b506066546100ef906001600160a01b031681565b3480156101d3575f80fd5b506100d96105db565b3480156101e7575f80fd5b506100ef610613565b3480156101fb575f80fd5b506100d961020a366004610c65565b61063e565b34801561021a575f80fd5b506065546100ef906001600160a01b031681565b348015610239575f80fd5b506100d9610248366004610c65565b610751565b6102556107b7565b606680546001600160a01b0319166001600160a01b03831690811790915560405133907ffe03c422c0ebbc0e023b670f7333e96297208b78b8efe8f02b21ce985f2f9f90905f90a350565b5f6102b36033546001600160a01b031690565b905090565b6102c06107b7565b606680546001600160a01b031981169091556001600160a01b031680336001600160a01b03167feb73d64c399147796f2c1dc32daac1ccf5e6b21236e6471db4e70cd3b8b4af3e60405160405180910390a350565b6001600160a01b037f00000000000000000000000000000000000000000000000000000000000000001630036103665760405162461bcd60e51b815260040161035d90610d61565b60405180910390fd5b7f00000000000000000000000000000000000000000000000000000000000000006001600160a01b03166103986107e9565b6001600160a01b0316146103be5760405162461bcd60e51b815260040161035d90610d9a565b6103c781610804565b604080515f808252602082019092526103e29183919061080c565b50565b5f6102b36102a0565b60665433906001600160a01b0316811461041d578060405163118cdaa760e01b815260040161035d9190610c7e565b606680546001600160a01b03191690556040516001600160a01b038216907f197fdcb3e3ecd730e86001607ea7f92626311fc0cffebc30fb0962f3ef45c6eb905f90a250565b6001600160a01b037f00000000000000000000000000000000000000000000000000000000000000001630036104ab5760405162461bcd60e51b815260040161035d90610d61565b7f00000000000000000000000000000000000000000000000000000000000000006001600160a01b03166104dd6107e9565b6001600160a01b0316146105035760405162461bcd60e51b815260040161035d90610d9a565b61050c82610804565b6105188282600161080c565b5050565b5f306001600160a01b037f000000000000000000000000000000000000000000000000000000000000000016146105b65760405162461bcd60e51b815260206004820152603860248201527f555550535570677261646561626c653a206d757374206e6f742062652063616c6044820152771b1959081d1a1c9bdd59da0819195b1959d85d1958d85b1b60421b606482015260840161035d565b505f80516020610e7a83398151915290565b6105d06107b7565b6105d95f61097b565b565b60655433906001600160a01b0316811461060a578060405163118cdaa760e01b815260040161035d9190610c7e565b6103e28161097b565b6066545f906001600160a01b03161561063657506066546001600160a01b031690565b6102b36102a0565b5f54610100900460ff161580801561065c57505f54600160ff909116105b8061067c575061066b306109a0565b15801561067c57505f5460ff166001145b6106df5760405162461bcd60e51b815260206004820152602e60248201527f496e697469616c697a61626c653a20636f6e747261637420697320616c72656160448201526d191e481a5b9a5d1a585b1a5e995960921b606482015260840161035d565b5f805460ff191660011790558015610700575f805461ff0019166101001790555b6107098261097b565b8015610518575f805461ff0019169055604051600181527f7f26b83ff96e1f2b6a682f133852f6798a09c465da95921460cefb38474024989060200160405180910390a15050565b6107596107b7565b606580546001600160a01b0319166001600160a01b03831690811790915561077f610613565b6001600160a01b03167f38d16b8cac22d99fc7c124b9cd0de2d3fa1faef420bfe791d8c362d765e2270060405160405180910390a350565b336107c06102a0565b6001600160a01b0316146105d9573360405163118cdaa760e01b815260040161035d9190610c7e565b5f80516020610e7a833981519152546001600160a01b031690565b6103e26107b7565b7f4910fdfa16fed3260ed0e7147f7cc6da11a60208b5b9406d12a635614ffd91435460ff16156108445761083f836109af565b505050565b826001600160a01b03166352d1902d6040518163ffffffff1660e01b8152600401602060405180830381865afa92505050801561089e575060408051601f3d908101601f1916820190925261089b91810190610dd3565b60015b6109015760405162461bcd60e51b815260206004820152602e60248201527f45524331393637557067726164653a206e657720696d706c656d656e7461746960448201526d6f6e206973206e6f74205555505360901b606482015260840161035d565b5f80516020610e7a833981519152811461096f5760405162461bcd60e51b815260206004820152602960248201527f45524331393637557067726164653a20756e737570706f727465642070726f786044820152681a58589b195555525160ba1b606482015260840161035d565b5061083f838383610a48565b606580546001600160a01b03199081169091556066805490911690556103e281610a72565b6001600160a01b03163b151590565b6109b8816109a0565b610a1a5760405162461bcd60e51b815260206004820152602d60248201527f455243313936373a206e657720696d706c656d656e746174696f6e206973206e60448201526c1bdd08184818dbdb9d1c9858dd609a1b606482015260840161035d565b5f80516020610e7a83398151915280546001600160a01b0319166001600160a01b0392909216919091179055565b610a5183610ac3565b5f82511180610a5d5750805b1561083f57610a6c8383610b02565b50505050565b603380546001600160a01b038381166001600160a01b0319831681179093556040519116919082907f8be0079c531659141344cd1fd0a4f28419497f9722a3daafe3b4186f6b6457e0905f90a35050565b610acc816109af565b6040516001600160a01b038216907fbc7cd75a20ee27fd9adebab32041f755214dbc6bffa90cc0225b39da2e5c2d3b905f90a250565b6060610b278383604051806060016040528060278152602001610e9a60279139610b2e565b9392505050565b60605f80856001600160a01b031685604051610b4a9190610e0c565b5f60405180830381855af49150503d805f8114610b82576040519150601f19603f3d011682016040523d82523d5f602084013e610b87565b606091505b5091509150610b9886838387610ba2565b9695505050505050565b60608315610c0e5782515f03610c0757610bbb856109a0565b610c075760405162461bcd60e51b815260206004820152601d60248201527f416464726573733a2063616c6c20746f206e6f6e2d636f6e7472616374000000604482015260640161035d565b5081610c18565b610c188383610c20565b949350505050565b815115610c305781518083602001fd5b8060405162461bcd60e51b815260040161035d9190610e27565b80356001600160a01b0381168114610c60575f80fd5b919050565b5f60208284031215610c75575f80fd5b610b2782610c4a565b6001600160a01b0391909116815260200190565b634e487b7160e01b5f52604160045260245ffd5b5f8060408385031215610cb7575f80fd5b610cc083610c4a565b915060208301356001600160401b0380821115610cdb575f80fd5b818501915085601f830112610cee575f80fd5b813581811115610d0057610d00610c92565b604051601f8201601f19908116603f01168101908382118183101715610d2857610d28610c92565b81604052828152886020848701011115610d40575f80fd5b826020860160208301375f6020848301015280955050505050509250929050565b6020808252602c908201525f80516020610e5a83398151915260408201526b19195b1959d85d1958d85b1b60a21b606082015260800190565b6020808252602c908201525f80516020610e5a83398151915260408201526b6163746976652070726f787960a01b606082015260800190565b5f60208284031215610de3575f80fd5b5051919050565b5f5b83811015610e04578181015183820152602001610dec565b50505f910152565b5f8251610e1d818460208701610dea565b9190910192915050565b602081525f8251806020840152610e45816040850160208701610dea565b601f01601f1916919091016040019291505056fe46756e6374696f6e206d7573742062652063616c6c6564207468726f75676820360894a13ba1a3210667c828492db98dca3e2076cc3735a920a3ca505d382bbc416464726573733a206c6f772d6c6576656c2064656c65676174652063616c6c206661696c6564a164736f6c6343000817000a","linkReferences":{}},"methodIdentifiers":{"acceptOwnership()":"79ba5097","grantUpgradeAccess(address)":"00c53432","initialize(address)":"c4d66de8","mainOwner()":"3c477f91","owner()":"8da5cb5b","pendingOwner()":"e30c3978","proxiableUUID()":"52d1902d","proxyOwner()":"025313a2","reclaimUpgradeAccess()":"207195c8","renounceOwnership()":"715018a6","renounceUpgradeAccess()":"43083c8a","transferOwnership(address)":"f2fde38b","upgradeAccess()":"74f1349c","upgradeTo(address)":"3659cfe6","upgradeToAndCall(address,bytes)":"4f1ef286"},"storageLayout":{"storage":[{"astId":50920,"contract":"pkg/contracts/src/ProxyOwner.sol:ProxyOwner","label":"_initialized","offset":0,"slot":"0","type":"t_uint8"},{"astId":50923,"contract":"pkg/contracts/src/ProxyOwner.sol:ProxyOwner","label":"_initializing","offset":1,"slot":"0","type":"t_bool"},{"astId":51625,"contract":"pkg/contracts/src/ProxyOwner.sol:ProxyOwner","label":"__gap","offset":0,"slot":"1","type":"t_array(t_uint256)50_storage"},{"astId":50712,"contract":"pkg/contracts/src/ProxyOwner.sol:ProxyOwner","label":"_owner","offset":0,"slot":"51","type":"t_address"},{"astId":50832,"contract":"pkg/contracts/src/ProxyOwner.sol:ProxyOwner","label":"__gap","offset":0,"slot":"52","type":"t_array(t_uint256)49_storage"},{"astId":100122,"contract":"pkg/contracts/src/ProxyOwner.sol:ProxyOwner","label":"pendingOwner","offset":0,"slot":"101","type":"t_address"},{"astId":100124,"contract":"pkg/contracts/src/ProxyOwner.sol:ProxyOwner","label":"upgradeAccess","offset":0,"slot":"102","type":"t_address"}],"types":{"t_address":{"encoding":"inplace","label":"address","numberOfBytes":"20"},"t_array(t_uint256)49_storage":{"encoding":"inplace","label":"uint256[49]","numberOfBytes":"1568","base":"t_uint256"},"t_array(t_uint256)50_storage":{"encoding":"inplace","label":"uint256[50]","numberOfBytes":"1600","base":"t_uint256"},"t_bool":{"encoding":"inplace","label":"bool","numberOfBytes":"1"},"t_uint256":{"encoding":"inplace","label":"uint256","numberOfBytes":"32"},"t_uint8":{"encoding":"inplace","label":"uint8","numberOfBytes":"1"}}},"id":158}