{"abi":[{"type":"fallback","stateMutability":"payable"},{"type":"receive","stateMutability":"payable"},{"type":"function","name":"DISPUTE_COOLDOWN_SEC","inputs":[],"outputs":[{"name":"","type":"uint256","internalType":"uint256"}],"stateMutability":"view"},{"type":"function","name":"NATIVE","inputs":[],"outputs":[{"name":"","type":"address","internalType":"address"}],"stateMutability":"view"},{"type":"function","name":"RULING_OPTIONS","inputs":[],"outputs":[{"name":"","type":"uint256","internalType":"uint256"}],"stateMutability":"view"},{"type":"function","name":"activatePoints","inputs":[],"outputs":[],"stateMutability":"nonpayable"},{"type":"function","name":"allocate","inputs":[{"name":"","type":"bytes","internalType":"bytes"},{"name":"","type":"address","internalType":"address"}],"outputs":[],"stateMutability":"payable"},{"type":"function","name":"arbitrableConfigs","inputs":[{"name":"","type":"uint256","internalType":"uint256"}],"outputs":[{"name":"arbitrator","type":"address","internalType":"contract IArbitrator"},{"name":"tribunalSafe","type":"address","internalType":"address"},{"name":"submitterCollateralAmount","type":"uint256","internalType":"uint256"},{"name":"challengerCollateralAmount","type":"uint256","internalType":"uint256"},{"name":"defaultRuling","type":"uint256","internalType":"uint256"},{"name":"defaultRulingTimeout","type":"uint256","internalType":"uint256"}],"stateMutability":"view"},{"type":"function","name":"calculateProposalConviction","inputs":[{"name":"_proposalId","type":"uint256","internalType":"uint256"}],"outputs":[{"name":"","type":"uint256","internalType":"uint256"}],"stateMutability":"view"},{"type":"function","name":"calculateThreshold","inputs":[{"name":"_requestedAmount","type":"uint256","internalType":"uint256"}],"outputs":[{"name":"","type":"uint256","internalType":"uint256"}],"stateMutability":"view"},{"type":"function","name":"cancelProposal","inputs":[{"name":"","type":"uint256","internalType":"uint256"}],"outputs":[],"stateMutability":"nonpayable"},{"type":"function","name":"cloneNonce","inputs":[],"outputs":[{"name":"","type":"uint256","internalType":"uint256"}],"stateMutability":"view"},{"type":"function","name":"collateralVault","inputs":[],"outputs":[{"name":"","type":"address","internalType":"contract ICollateralVault"}],"stateMutability":"view"},{"type":"function","name":"connectSuperfluidGDA","inputs":[{"name":"","type":"address","internalType":"address"}],"outputs":[],"stateMutability":"nonpayable"},{"type":"function","name":"currentArbitrableConfigVersion","inputs":[],"outputs":[{"name":"","type":"uint256","internalType":"uint256"}],"stateMutability":"view"},{"type":"function","name":"cvParams","inputs":[],"outputs":[{"name":"maxRatio","type":"uint256","internalType":"uint256"},{"name":"weight","type":"uint256","internalType":"uint256"},{"name":"decay","type":"uint256","internalType":"uint256"},{"name":"minThresholdPoints","type":"uint256","internalType":"uint256"}],"stateMutability":"view"},{"type":"function","name":"deactivatePoints","inputs":[],"outputs":[],"stateMutability":"nonpayable"},{"type":"function","name":"deactivatePoints","inputs":[{"name":"","type":"address","internalType":"address"}],"outputs":[],"stateMutability":"nonpayable"},{"type":"function","name":"decreasePower","inputs":[{"name":"","type":"address","internalType":"address"},{"name":"","type":"uint256","internalType":"uint256"}],"outputs":[{"name":"","type":"uint256","internalType":"uint256"}],"stateMutability":"nonpayable"},{"type":"function","name":"diamondCut","inputs":[{"name":"_diamondCut","type":"tuple[]","internalType":"struct IDiamond.FacetCut[]","components":[{"name":"facetAddress","type":"address","internalType":"address"},{"name":"action","type":"uint8","internalType":"enum IDiamond.FacetCutAction"},{"name":"functionSelectors","type":"bytes4[]","internalType":"bytes4[]"}]},{"name":"_init","type":"address","internalType":"address"},{"name":"_calldata","type":"bytes","internalType":"bytes"}],"outputs":[],"stateMutability":"nonpayable"},{"type":"function","name":"disconnectSuperfluidGDA","inputs":[{"name":"","type":"address","internalType":"address"}],"outputs":[],"stateMutability":"nonpayable"},{"type":"function","name":"disputeCount","inputs":[],"outputs":[{"name":"","type":"uint64","internalType":"uint64"}],"stateMutability":"view"},{"type":"function","name":"disputeIdToProposalId","inputs":[{"name":"","type":"uint256","internalType":"uint256"}],"outputs":[{"name":"","type":"uint256","internalType":"uint256"}],"stateMutability":"view"},{"type":"function","name":"disputeProposal","inputs":[{"name":"proposalId","type":"uint256","internalType":"uint256"},{"name":"context","type":"string","internalType":"string"},{"name":"_extraData","type":"bytes","internalType":"bytes"}],"outputs":[{"name":"","type":"uint256","internalType":"uint256"}],"stateMutability":"payable"},{"type":"function","name":"distribute","inputs":[{"name":"","type":"address[]","internalType":"address[]"},{"name":"","type":"bytes","internalType":"bytes"},{"name":"","type":"address","internalType":"address"}],"outputs":[],"stateMutability":"nonpayable"},{"type":"function","name":"editProposal","inputs":[{"name":"","type":"uint256","internalType":"uint256"},{"name":"","type":"tuple","internalType":"struct Metadata","components":[{"name":"protocol","type":"uint256","internalType":"uint256"},{"name":"pointer","type":"string","internalType":"string"}]},{"name":"","type":"address","internalType":"address"},{"name":"","type":"uint256","internalType":"uint256"}],"outputs":[],"stateMutability":"nonpayable"},{"type":"function","name":"getAllo","inputs":[],"outputs":[{"name":"","type":"address","internalType":"contract IAllo"}],"stateMutability":"view"},{"type":"function","name":"getArbitrableConfig","inputs":[],"outputs":[{"name":"arbitrator","type":"address","internalType":"contract IArbitrator"},{"name":"tribunalSafe","type":"address","internalType":"address"},{"name":"submitterCollateralAmount","type":"uint256","internalType":"uint256"},{"name":"challengerCollateralAmount","type":"uint256","internalType":"uint256"},{"name":"defaultRuling","type":"uint256","internalType":"uint256"},{"name":"defaultRulingTimeout","type":"uint256","internalType":"uint256"}],"stateMutability":"view"},{"type":"function","name":"getFacets","inputs":[],"outputs":[{"name":"facets_","type":"tuple[]","internalType":"struct IDiamondLoupe.Facet[]","components":[{"name":"facetAddress","type":"address","internalType":"address"},{"name":"functionSelectors","type":"bytes4[]","internalType":"bytes4[]"}]}],"stateMutability":"view"},{"type":"function","name":"getMaxAmount","inputs":[],"outputs":[{"name":"","type":"uint256","internalType":"uint256"}],"stateMutability":"view"},{"type":"function","name":"getPointSystem","inputs":[],"outputs":[{"name":"","type":"uint8","internalType":"enum PointSystem"}],"stateMutability":"view"},{"type":"function","name":"getPoolAmount","inputs":[],"outputs":[{"name":"","type":"uint256","internalType":"uint256"}],"stateMutability":"view"},{"type":"function","name":"getPoolId","inputs":[],"outputs":[{"name":"","type":"uint256","internalType":"uint256"}],"stateMutability":"view"},{"type":"function","name":"getProposal","inputs":[{"name":"_proposalId","type":"uint256","internalType":"uint256"}],"outputs":[{"name":"submitter","type":"address","internalType":"address"},{"name":"beneficiary","type":"address","internalType":"address"},{"name":"requestedToken","type":"address","internalType":"address"},{"name":"requestedAmount","type":"uint256","internalType":"uint256"},{"name":"stakedAmount","type":"uint256","internalType":"uint256"},{"name":"proposalStatus","type":"uint8","internalType":"enum ProposalStatus"},{"name":"blockLast","type":"uint256","internalType":"uint256"},{"name":"convictionLast","type":"uint256","internalType":"uint256"},{"name":"threshold","type":"uint256","internalType":"uint256"},{"name":"voterStakedPoints","type":"uint256","internalType":"uint256"},{"name":"arbitrableConfigVersion","type":"uint256","internalType":"uint256"},{"name":"protocol","type":"uint256","internalType":"uint256"}],"stateMutability":"view"},{"type":"function","name":"getProposalStakedAmount","inputs":[{"name":"_proposalId","type":"uint256","internalType":"uint256"}],"outputs":[{"name":"","type":"uint256","internalType":"uint256"}],"stateMutability":"view"},{"type":"function","name":"getProposalVoterStake","inputs":[{"name":"_proposalId","type":"uint256","internalType":"uint256"},{"name":"_voter","type":"address","internalType":"address"}],"outputs":[{"name":"","type":"uint256","internalType":"uint256"}],"stateMutability":"view"},{"type":"function","name":"increasePower","inputs":[{"name":"","type":"address","internalType":"address"},{"name":"","type":"uint256","internalType":"uint256"}],"outputs":[{"name":"","type":"uint256","internalType":"uint256"}],"stateMutability":"nonpayable"},{"type":"function","name":"init","inputs":[{"name":"_allo","type":"address","internalType":"address"},{"name":"_collateralVaultTemplate","type":"address","internalType":"address"},{"name":"_owner","type":"address","internalType":"address"}],"outputs":[],"stateMutability":"nonpayable"},{"type":"function","name":"init","inputs":[{"name":"_allo","type":"address","internalType":"address"},{"name":"_name","type":"string","internalType":"string"},{"name":"_owner","type":"address","internalType":"address"}],"outputs":[],"stateMutability":"nonpayable"},{"type":"function","name":"initialize","inputs":[{"name":"initialOwner","type":"address","internalType":"address"}],"outputs":[],"stateMutability":"nonpayable"},{"type":"function","name":"initialize","inputs":[{"name":"_poolId","type":"uint256","internalType":"uint256"},{"name":"_data","type":"bytes","internalType":"bytes"}],"outputs":[],"stateMutability":"nonpayable"},{"type":"function","name":"isPaused","inputs":[{"name":"","type":"bytes4","internalType":"bytes4"}],"outputs":[{"name":"","type":"bool","internalType":"bool"}],"stateMutability":"nonpayable"},{"type":"function","name":"isPaused","inputs":[],"outputs":[{"name":"","type":"bool","internalType":"bool"}],"stateMutability":"nonpayable"},{"type":"function","name":"isPoolActive","inputs":[],"outputs":[{"name":"","type":"bool","internalType":"bool"}],"stateMutability":"view"},{"type":"function","name":"owner","inputs":[],"outputs":[{"name":"","type":"address","internalType":"address"}],"stateMutability":"view"},{"type":"function","name":"pause","inputs":[{"name":"","type":"uint256","internalType":"uint256"}],"outputs":[],"stateMutability":"nonpayable"},{"type":"function","name":"pause","inputs":[{"name":"","type":"bytes4","internalType":"bytes4"},{"name":"","type":"uint256","internalType":"uint256"}],"outputs":[],"stateMutability":"nonpayable"},{"type":"function","name":"pauseController","inputs":[],"outputs":[{"name":"","type":"address","internalType":"address"}],"stateMutability":"nonpayable"},{"type":"function","name":"pauseFacet","inputs":[],"outputs":[{"name":"","type":"address","internalType":"address"}],"stateMutability":"nonpayable"},{"type":"function","name":"pausedSelectorUntil","inputs":[{"name":"","type":"bytes4","internalType":"bytes4"}],"outputs":[{"name":"","type":"uint256","internalType":"uint256"}],"stateMutability":"nonpayable"},{"type":"function","name":"pausedUntil","inputs":[],"outputs":[{"name":"","type":"uint256","internalType":"uint256"}],"stateMutability":"nonpayable"},{"type":"function","name":"pointConfig","inputs":[],"outputs":[{"name":"maxAmount","type":"uint256","internalType":"uint256"}],"stateMutability":"view"},{"type":"function","name":"pointSystem","inputs":[],"outputs":[{"name":"","type":"uint8","internalType":"enum PointSystem"}],"stateMutability":"view"},{"type":"function","name":"proposalCounter","inputs":[],"outputs":[{"name":"","type":"uint256","internalType":"uint256"}],"stateMutability":"view"},{"type":"function","name":"proposalType","inputs":[],"outputs":[{"name":"","type":"uint8","internalType":"enum ProposalType"}],"stateMutability":"view"},{"type":"function","name":"proposals","inputs":[{"name":"","type":"uint256","internalType":"uint256"}],"outputs":[{"name":"proposalId","type":"uint256","internalType":"uint256"},{"name":"requestedAmount","type":"uint256","internalType":"uint256"},{"name":"stakedAmount","type":"uint256","internalType":"uint256"},{"name":"convictionLast","type":"uint256","internalType":"uint256"},{"name":"beneficiary","type":"address","internalType":"address"},{"name":"submitter","type":"address","internalType":"address"},{"name":"requestedToken","type":"address","internalType":"address"},{"name":"blockLast","type":"uint256","internalType":"uint256"},{"name":"proposalStatus","type":"uint8","internalType":"enum ProposalStatus"},{"name":"metadata","type":"tuple","internalType":"struct Metadata","components":[{"name":"protocol","type":"uint256","internalType":"uint256"},{"name":"pointer","type":"string","internalType":"string"}]},{"name":"disputeInfo","type":"tuple","internalType":"struct ProposalDisputeInfo","components":[{"name":"disputeId","type":"uint256","internalType":"uint256"},{"name":"disputeTimestamp","type":"uint256","internalType":"uint256"},{"name":"challenger","type":"address","internalType":"address"}]},{"name":"lastDisputeCompletion","type":"uint256","internalType":"uint256"},{"name":"arbitrableConfigVersion","type":"uint256","internalType":"uint256"},{"name":"creationTimestamp","type":"uint256","internalType":"uint256"}],"stateMutability":"view"},{"type":"function","name":"proxiableUUID","inputs":[],"outputs":[{"name":"","type":"bytes32","internalType":"bytes32"}],"stateMutability":"view"},{"type":"function","name":"proxyOwner","inputs":[],"outputs":[{"name":"","type":"address","internalType":"address"}],"stateMutability":"view"},{"type":"function","name":"rebalance","inputs":[],"outputs":[],"stateMutability":"nonpayable"},{"type":"function","name":"registerRecipient","inputs":[{"name":"","type":"bytes","internalType":"bytes"},{"name":"","type":"address","internalType":"address"}],"outputs":[{"name":"","type":"address","internalType":"address"}],"stateMutability":"payable"},{"type":"function","name":"registryCommunity","inputs":[],"outputs":[{"name":"","type":"address","internalType":"contract RegistryCommunity"}],"stateMutability":"view"},{"type":"function","name":"renounceOwnership","inputs":[],"outputs":[],"stateMutability":"nonpayable"},{"type":"function","name":"rule","inputs":[{"name":"","type":"uint256","internalType":"uint256"},{"name":"","type":"uint256","internalType":"uint256"}],"outputs":[],"stateMutability":"nonpayable"},{"type":"function","name":"setCollateralVaultTemplate","inputs":[{"name":"template","type":"address","internalType":"address"}],"outputs":[],"stateMutability":"nonpayable"},{"type":"function","name":"setPauseController","inputs":[{"name":"","type":"address","internalType":"address"}],"outputs":[],"stateMutability":"nonpayable"},{"type":"function","name":"setPauseFacet","inputs":[{"name":"","type":"address","internalType":"address"}],"outputs":[],"stateMutability":"nonpayable"},{"type":"function","name":"setPoolActive","inputs":[{"name":"_active","type":"bool","internalType":"bool"}],"outputs":[],"stateMutability":"nonpayable"},{"type":"function","name":"setPoolParams","inputs":[{"name":"","type":"tuple","internalType":"struct ArbitrableConfig","components":[{"name":"arbitrator","type":"address","internalType":"contract IArbitrator"},{"name":"tribunalSafe","type":"address","internalType":"address"},{"name":"submitterCollateralAmount","type":"uint256","internalType":"uint256"},{"name":"challengerCollateralAmount","type":"uint256","internalType":"uint256"},{"name":"defaultRuling","type":"uint256","internalType":"uint256"},{"name":"defaultRulingTimeout","type":"uint256","internalType":"uint256"}]},{"name":"","type":"tuple","internalType":"struct CVParams","components":[{"name":"maxRatio","type":"uint256","internalType":"uint256"},{"name":"weight","type":"uint256","internalType":"uint256"},{"name":"decay","type":"uint256","internalType":"uint256"},{"name":"minThresholdPoints","type":"uint256","internalType":"uint256"}]},{"name":"","type":"uint256","internalType":"uint256"},{"name":"","type":"address[]","internalType":"address[]"},{"name":"","type":"address[]","internalType":"address[]"},{"name":"","type":"address","internalType":"address"}],"outputs":[],"stateMutability":"nonpayable"},{"type":"function","name":"setSybilScorer","inputs":[{"name":"_sybilScorer","type":"address","internalType":"address"},{"name":"threshold","type":"uint256","internalType":"uint256"}],"outputs":[],"stateMutability":"nonpayable"},{"type":"function","name":"streamingRatePerSecond","inputs":[],"outputs":[{"name":"","type":"uint256","internalType":"uint256"}],"stateMutability":"view"},{"type":"function","name":"superfluidGDA","inputs":[],"outputs":[{"name":"","type":"address","internalType":"contract ISuperfluidPool"}],"stateMutability":"view"},{"type":"function","name":"superfluidToken","inputs":[],"outputs":[{"name":"","type":"address","internalType":"contract ISuperToken"}],"stateMutability":"view"},{"type":"function","name":"supportsInterface","inputs":[{"name":"interfaceId","type":"bytes4","internalType":"bytes4"}],"outputs":[{"name":"","type":"bool","internalType":"bool"}],"stateMutability":"view"},{"type":"function","name":"sybilScorer","inputs":[],"outputs":[{"name":"","type":"address","internalType":"contract ISybilScorer"}],"stateMutability":"view"},{"type":"function","name":"totalPointsActivated","inputs":[],"outputs":[{"name":"","type":"uint256","internalType":"uint256"}],"stateMutability":"view"},{"type":"function","name":"totalStaked","inputs":[],"outputs":[{"name":"","type":"uint256","internalType":"uint256"}],"stateMutability":"view"},{"type":"function","name":"totalVoterStakePct","inputs":[{"name":"","type":"address","internalType":"address"}],"outputs":[{"name":"","type":"uint256","internalType":"uint256"}],"stateMutability":"view"},{"type":"function","name":"transferOwnership","inputs":[{"name":"newOwner","type":"address","internalType":"address"}],"outputs":[],"stateMutability":"nonpayable"},{"type":"function","name":"unpause","inputs":[],"outputs":[],"stateMutability":"nonpayable"},{"type":"function","name":"unpause","inputs":[{"name":"","type":"bytes4","internalType":"bytes4"}],"outputs":[],"stateMutability":"nonpayable"},{"type":"function","name":"updateProposalConviction","inputs":[{"name":"proposalId","type":"uint256","internalType":"uint256"}],"outputs":[{"name":"","type":"uint256","internalType":"uint256"}],"stateMutability":"nonpayable"},{"type":"function","name":"upgradeTo","inputs":[{"name":"newImplementation","type":"address","internalType":"address"}],"outputs":[],"stateMutability":"nonpayable"},{"type":"function","name":"upgradeToAndCall","inputs":[{"name":"newImplementation","type":"address","internalType":"address"},{"name":"data","type":"bytes","internalType":"bytes"}],"outputs":[],"stateMutability":"payable"},{"type":"function","name":"voterStakedProposals","inputs":[{"name":"","type":"address","internalType":"address"},{"name":"","type":"uint256","internalType":"uint256"}],"outputs":[{"name":"","type":"uint256","internalType":"uint256"}],"stateMutability":"view"},{"type":"function","name":"votingPowerRegistry","inputs":[],"outputs":[{"name":"","type":"address","internalType":"contract IVotingPowerRegistry"}],"stateMutability":"view"},{"type":"event","name":"AdminChanged","inputs":[{"name":"previousAdmin","type":"address","indexed":false,"internalType":"address"},{"name":"newAdmin","type":"address","indexed":false,"internalType":"address"}],"anonymous":false},{"type":"event","name":"Allocated","inputs":[{"name":"recipientId","type":"address","indexed":true,"internalType":"address"},{"name":"amount","type":"uint256","indexed":false,"internalType":"uint256"},{"name":"token","type":"address","indexed":false,"internalType":"address"},{"name":"sender","type":"address","indexed":false,"internalType":"address"}],"anonymous":false},{"type":"event","name":"AllowlistMembersAdded","inputs":[{"name":"poolId","type":"uint256","indexed":false,"internalType":"uint256"},{"name":"members","type":"address[]","indexed":false,"internalType":"address[]"}],"anonymous":false},{"type":"event","name":"AllowlistMembersRemoved","inputs":[{"name":"poolId","type":"uint256","indexed":false,"internalType":"uint256"},{"name":"members","type":"address[]","indexed":false,"internalType":"address[]"}],"anonymous":false},{"type":"event","name":"ArbitrableConfigUpdated","inputs":[{"name":"currentArbitrableConfigVersion","type":"uint256","indexed":false,"internalType":"uint256"},{"name":"arbitrator","type":"address","indexed":false,"internalType":"contract IArbitrator"},{"name":"tribunalSafe","type":"address","indexed":false,"internalType":"address"},{"name":"submitterCollateralAmount","type":"uint256","indexed":false,"internalType":"uint256"},{"name":"challengerCollateralAmount","type":"uint256","indexed":false,"internalType":"uint256"},{"name":"defaultRuling","type":"uint256","indexed":false,"internalType":"uint256"},{"name":"defaultRulingTimeout","type":"uint256","indexed":false,"internalType":"uint256"}],"anonymous":false},{"type":"event","name":"BeaconUpgraded","inputs":[{"name":"beacon","type":"address","indexed":true,"internalType":"address"}],"anonymous":false},{"type":"event","name":"CVParamsUpdated","inputs":[{"name":"cvParams","type":"tuple","indexed":false,"internalType":"struct CVParams","components":[{"name":"maxRatio","type":"uint256","internalType":"uint256"},{"name":"weight","type":"uint256","internalType":"uint256"},{"name":"decay","type":"uint256","internalType":"uint256"},{"name":"minThresholdPoints","type":"uint256","internalType":"uint256"}]}],"anonymous":false},{"type":"event","name":"DiamondCut","inputs":[{"name":"_diamondCut","type":"tuple[]","indexed":false,"internalType":"struct IDiamond.FacetCut[]","components":[{"name":"facetAddress","type":"address","internalType":"address"},{"name":"action","type":"uint8","internalType":"enum IDiamond.FacetCutAction"},{"name":"functionSelectors","type":"bytes4[]","internalType":"bytes4[]"}]},{"name":"_init","type":"address","indexed":false,"internalType":"address"},{"name":"_calldata","type":"bytes","indexed":false,"internalType":"bytes"}],"anonymous":false},{"type":"event","name":"DisputeRequest","inputs":[{"name":"_arbitrator","type":"address","indexed":true,"internalType":"contract IArbitrator"},{"name":"_arbitrableDisputeID","type":"uint256","indexed":true,"internalType":"uint256"},{"name":"_externalDisputeID","type":"uint256","indexed":false,"internalType":"uint256"},{"name":"_templateId","type":"uint256","indexed":false,"internalType":"uint256"},{"name":"_templateUri","type":"string","indexed":false,"internalType":"string"}],"anonymous":false},{"type":"event","name":"Distributed","inputs":[{"name":"recipientId","type":"address","indexed":true,"internalType":"address"},{"name":"recipientAddress","type":"address","indexed":false,"internalType":"address"},{"name":"amount","type":"uint256","indexed":false,"internalType":"uint256"},{"name":"sender","type":"address","indexed":false,"internalType":"address"}],"anonymous":false},{"type":"event","name":"Distributed","inputs":[{"name":"proposalId","type":"uint256","indexed":false,"internalType":"uint256"},{"name":"beneficiary","type":"address","indexed":false,"internalType":"address"},{"name":"amount","type":"uint256","indexed":false,"internalType":"uint256"}],"anonymous":false},{"type":"event","name":"Initialized","inputs":[{"name":"poolId","type":"uint256","indexed":false,"internalType":"uint256"},{"name":"data","type":"bytes","indexed":false,"internalType":"bytes"}],"anonymous":false},{"type":"event","name":"Initialized","inputs":[{"name":"version","type":"uint8","indexed":false,"internalType":"uint8"}],"anonymous":false},{"type":"event","name":"InitializedCV","inputs":[{"name":"poolId","type":"uint256","indexed":false,"internalType":"uint256"},{"name":"data","type":"tuple","indexed":false,"internalType":"struct CVStrategyInitializeParamsV0_0","components":[{"name":"cvParams","type":"tuple","internalType":"struct CVParams","components":[{"name":"maxRatio","type":"uint256","internalType":"uint256"},{"name":"weight","type":"uint256","internalType":"uint256"},{"name":"decay","type":"uint256","internalType":"uint256"},{"name":"minThresholdPoints","type":"uint256","internalType":"uint256"}]},{"name":"proposalType","type":"uint8","internalType":"enum ProposalType"},{"name":"pointSystem","type":"uint8","internalType":"enum PointSystem"},{"name":"pointConfig","type":"tuple","internalType":"struct PointSystemConfig","components":[{"name":"maxAmount","type":"uint256","internalType":"uint256"}]},{"name":"arbitrableConfig","type":"tuple","internalType":"struct ArbitrableConfig","components":[{"name":"arbitrator","type":"address","internalType":"contract IArbitrator"},{"name":"tribunalSafe","type":"address","internalType":"address"},{"name":"submitterCollateralAmount","type":"uint256","internalType":"uint256"},{"name":"challengerCollateralAmount","type":"uint256","internalType":"uint256"},{"name":"defaultRuling","type":"uint256","internalType":"uint256"},{"name":"defaultRulingTimeout","type":"uint256","internalType":"uint256"}]},{"name":"registryCommunity","type":"address","internalType":"address"},{"name":"sybilScorer","type":"address","internalType":"address"}]}],"anonymous":false},{"type":"event","name":"InitializedCV2","inputs":[{"name":"poolId","type":"uint256","indexed":false,"internalType":"uint256"},{"name":"data","type":"tuple","indexed":false,"internalType":"struct CVStrategyInitializeParamsV0_1","components":[{"name":"cvParams","type":"tuple","internalType":"struct CVParams","components":[{"name":"maxRatio","type":"uint256","internalType":"uint256"},{"name":"weight","type":"uint256","internalType":"uint256"},{"name":"decay","type":"uint256","internalType":"uint256"},{"name":"minThresholdPoints","type":"uint256","internalType":"uint256"}]},{"name":"proposalType","type":"uint8","internalType":"enum ProposalType"},{"name":"pointSystem","type":"uint8","internalType":"enum PointSystem"},{"name":"pointConfig","type":"tuple","internalType":"struct PointSystemConfig","components":[{"name":"maxAmount","type":"uint256","internalType":"uint256"}]},{"name":"arbitrableConfig","type":"tuple","internalType":"struct ArbitrableConfig","components":[{"name":"arbitrator","type":"address","internalType":"contract IArbitrator"},{"name":"tribunalSafe","type":"address","internalType":"address"},{"name":"submitterCollateralAmount","type":"uint256","internalType":"uint256"},{"name":"challengerCollateralAmount","type":"uint256","internalType":"uint256"},{"name":"defaultRuling","type":"uint256","internalType":"uint256"},{"name":"defaultRulingTimeout","type":"uint256","internalType":"uint256"}]},{"name":"registryCommunity","type":"address","internalType":"address"},{"name":"sybilScorer","type":"address","internalType":"address"},{"name":"sybilScorerThreshold","type":"uint256","internalType":"uint256"},{"name":"initialAllowlist","type":"address[]","internalType":"address[]"}]}],"anonymous":false},{"type":"event","name":"InitializedCV3","inputs":[{"name":"poolId","type":"uint256","indexed":false,"internalType":"uint256"},{"name":"data","type":"tuple","indexed":false,"internalType":"struct CVStrategyInitializeParamsV0_2","components":[{"name":"cvParams","type":"tuple","internalType":"struct CVParams","components":[{"name":"maxRatio","type":"uint256","internalType":"uint256"},{"name":"weight","type":"uint256","internalType":"uint256"},{"name":"decay","type":"uint256","internalType":"uint256"},{"name":"minThresholdPoints","type":"uint256","internalType":"uint256"}]},{"name":"proposalType","type":"uint8","internalType":"enum ProposalType"},{"name":"pointSystem","type":"uint8","internalType":"enum PointSystem"},{"name":"pointConfig","type":"tuple","internalType":"struct PointSystemConfig","components":[{"name":"maxAmount","type":"uint256","internalType":"uint256"}]},{"name":"arbitrableConfig","type":"tuple","internalType":"struct ArbitrableConfig","components":[{"name":"arbitrator","type":"address","internalType":"contract IArbitrator"},{"name":"tribunalSafe","type":"address","internalType":"address"},{"name":"submitterCollateralAmount","type":"uint256","internalType":"uint256"},{"name":"challengerCollateralAmount","type":"uint256","internalType":"uint256"},{"name":"defaultRuling","type":"uint256","internalType":"uint256"},{"name":"defaultRulingTimeout","type":"uint256","internalType":"uint256"}]},{"name":"registryCommunity","type":"address","internalType":"address"},{"name":"sybilScorer","type":"address","internalType":"address"},{"name":"sybilScorerThreshold","type":"uint256","internalType":"uint256"},{"name":"initialAllowlist","type":"address[]","internalType":"address[]"},{"name":"superfluidToken","type":"address","internalType":"address"}]}],"anonymous":false},{"type":"event","name":"InitializedCV4","inputs":[{"name":"poolId","type":"uint256","indexed":false,"internalType":"uint256"},{"name":"data","type":"tuple","indexed":false,"internalType":"struct CVStrategyInitializeParamsV0_3","components":[{"name":"cvParams","type":"tuple","internalType":"struct CVParams","components":[{"name":"maxRatio","type":"uint256","internalType":"uint256"},{"name":"weight","type":"uint256","internalType":"uint256"},{"name":"decay","type":"uint256","internalType":"uint256"},{"name":"minThresholdPoints","type":"uint256","internalType":"uint256"}]},{"name":"proposalType","type":"uint8","internalType":"enum ProposalType"},{"name":"pointSystem","type":"uint8","internalType":"enum PointSystem"},{"name":"pointConfig","type":"tuple","internalType":"struct PointSystemConfig","components":[{"name":"maxAmount","type":"uint256","internalType":"uint256"}]},{"name":"arbitrableConfig","type":"tuple","internalType":"struct ArbitrableConfig","components":[{"name":"arbitrator","type":"address","internalType":"contract IArbitrator"},{"name":"tribunalSafe","type":"address","internalType":"address"},{"name":"submitterCollateralAmount","type":"uint256","internalType":"uint256"},{"name":"challengerCollateralAmount","type":"uint256","internalType":"uint256"},{"name":"defaultRuling","type":"uint256","internalType":"uint256"},{"name":"defaultRulingTimeout","type":"uint256","internalType":"uint256"}]},{"name":"registryCommunity","type":"address","internalType":"address"},{"name":"votingPowerRegistry","type":"address","internalType":"address"},{"name":"sybilScorer","type":"address","internalType":"address"},{"name":"sybilScorerThreshold","type":"uint256","internalType":"uint256"},{"name":"initialAllowlist","type":"address[]","internalType":"address[]"},{"name":"superfluidToken","type":"address","internalType":"address"},{"name":"streamingRatePerSecond","type":"uint256","internalType":"uint256"}]}],"anonymous":false},{"type":"event","name":"OwnershipTransferred","inputs":[{"name":"previousOwner","type":"address","indexed":true,"internalType":"address"},{"name":"newOwner","type":"address","indexed":true,"internalType":"address"}],"anonymous":false},{"type":"event","name":"OwnershipTransferred","inputs":[{"name":"previousOwner","type":"address","indexed":true,"internalType":"address"},{"name":"newOwner","type":"address","indexed":true,"internalType":"address"}],"anonymous":false},{"type":"event","name":"PointsDeactivated","inputs":[{"name":"member","type":"address","indexed":false,"internalType":"address"}],"anonymous":false},{"type":"event","name":"PoolActive","inputs":[{"name":"active","type":"bool","indexed":false,"internalType":"bool"}],"anonymous":false},{"type":"event","name":"PowerDecreased","inputs":[{"name":"member","type":"address","indexed":false,"internalType":"address"},{"name":"tokensUnStaked","type":"uint256","indexed":false,"internalType":"uint256"},{"name":"pointsToDecrease","type":"uint256","indexed":false,"internalType":"uint256"}],"anonymous":false},{"type":"event","name":"PowerIncreased","inputs":[{"name":"member","type":"address","indexed":false,"internalType":"address"},{"name":"tokensStaked","type":"uint256","indexed":false,"internalType":"uint256"},{"name":"pointsToIncrease","type":"uint256","indexed":false,"internalType":"uint256"}],"anonymous":false},{"type":"event","name":"ProposalCancelled","inputs":[{"name":"proposalId","type":"uint256","indexed":false,"internalType":"uint256"}],"anonymous":false},{"type":"event","name":"ProposalCreated","inputs":[{"name":"poolId","type":"uint256","indexed":false,"internalType":"uint256"},{"name":"proposalId","type":"uint256","indexed":false,"internalType":"uint256"}],"anonymous":false},{"type":"event","name":"ProposalDisputed","inputs":[{"name":"arbitrator","type":"address","indexed":false,"internalType":"contract IArbitrator"},{"name":"proposalId","type":"uint256","indexed":false,"internalType":"uint256"},{"name":"disputeId","type":"uint256","indexed":false,"internalType":"uint256"},{"name":"challenger","type":"address","indexed":false,"internalType":"address"},{"name":"context","type":"string","indexed":false,"internalType":"string"},{"name":"timestamp","type":"uint256","indexed":false,"internalType":"uint256"}],"anonymous":false},{"type":"event","name":"Registered","inputs":[{"name":"recipientId","type":"address","indexed":true,"internalType":"address"},{"name":"data","type":"bytes","indexed":false,"internalType":"bytes"},{"name":"sender","type":"address","indexed":false,"internalType":"address"}],"anonymous":false},{"type":"event","name":"Ruling","inputs":[{"name":"_arbitrator","type":"address","indexed":true,"internalType":"contract IArbitrator"},{"name":"_disputeID","type":"uint256","indexed":true,"internalType":"uint256"},{"name":"_ruling","type":"uint256","indexed":false,"internalType":"uint256"}],"anonymous":false},{"type":"event","name":"SuperfluidGDAConnected","inputs":[{"name":"gda","type":"address","indexed":true,"internalType":"address"},{"name":"by","type":"address","indexed":true,"internalType":"address"}],"anonymous":false},{"type":"event","name":"SuperfluidGDADisconnected","inputs":[{"name":"gda","type":"address","indexed":true,"internalType":"address"},{"name":"by","type":"address","indexed":true,"internalType":"address"}],"anonymous":false},{"type":"event","name":"SuperfluidTokenUpdated","inputs":[{"name":"superfluidToken","type":"address","indexed":false,"internalType":"address"}],"anonymous":false},{"type":"event","name":"SupportAdded","inputs":[{"name":"from","type":"address","indexed":false,"internalType":"address"},{"name":"proposalId","type":"uint256","indexed":false,"internalType":"uint256"},{"name":"amount","type":"uint256","indexed":false,"internalType":"uint256"},{"name":"totalStakedAmount","type":"uint256","indexed":false,"internalType":"uint256"},{"name":"convictionLast","type":"uint256","indexed":false,"internalType":"uint256"}],"anonymous":false},{"type":"event","name":"SybilScorerUpdated","inputs":[{"name":"sybilScorer","type":"address","indexed":false,"internalType":"address"}],"anonymous":false},{"type":"event","name":"Upgraded","inputs":[{"name":"implementation","type":"address","indexed":true,"internalType":"address"}],"anonymous":false},{"type":"error","name":"ALLOCATION_ACTIVE","inputs":[]},{"type":"error","name":"ALLOCATION_NOT_ACTIVE","inputs":[]},{"type":"error","name":"ALLOCATION_NOT_ENDED","inputs":[]},{"type":"error","name":"ALREADY_INITIALIZED","inputs":[]},{"type":"error","name":"AMOUNT_MISMATCH","inputs":[]},{"type":"error","name":"ANCHOR_ERROR","inputs":[]},{"type":"error","name":"ARRAY_MISMATCH","inputs":[]},{"type":"error","name":"AShouldBeUnderOrEqTwo_128","inputs":[]},{"type":"error","name":"AShouldBeUnderTwo_128","inputs":[]},{"type":"error","name":"AddressCannotBeZero","inputs":[{"name":"input","type":"address","internalType":"address"}]},{"type":"error","name":"AmountOverMaxRatio","inputs":[{"name":"requestedAmount","type":"uint256","internalType":"uint256"},{"name":"maxAllowed","type":"uint256","internalType":"uint256"},{"name":"poolAmount","type":"uint256","internalType":"uint256"}]},{"type":"error","name":"ArbitratorCannotBeZero","inputs":[]},{"type":"error","name":"BShouldBeLessTwo_128","inputs":[]},{"type":"error","name":"CallerNotOwner","inputs":[{"name":"_caller","type":"address","internalType":"address"},{"name":"_owner","type":"address","internalType":"address"}]},{"type":"error","name":"CannotAddFunctionToDiamondThatAlreadyExists","inputs":[{"name":"_selector","type":"bytes4","internalType":"bytes4"}]},{"type":"error","name":"CannotAddSelectorsToZeroAddress","inputs":[{"name":"_selectors","type":"bytes4[]","internalType":"bytes4[]"}]},{"type":"error","name":"CannotRemoveFunctionThatDoesNotExist","inputs":[{"name":"_selector","type":"bytes4","internalType":"bytes4"}]},{"type":"error","name":"CannotRemoveImmutableFunction","inputs":[{"name":"_selector","type":"bytes4","internalType":"bytes4"}]},{"type":"error","name":"CannotReplaceFunctionThatDoesNotExists","inputs":[{"name":"_selector","type":"bytes4","internalType":"bytes4"}]},{"type":"error","name":"CannotReplaceFunctionWithTheSameFunctionFromTheSameFacet","inputs":[{"name":"_selector","type":"bytes4","internalType":"bytes4"}]},{"type":"error","name":"CannotReplaceFunctionsFromFacetWithZeroAddress","inputs":[{"name":"_selectors","type":"bytes4[]","internalType":"bytes4[]"}]},{"type":"error","name":"CannotReplaceImmutableFunction","inputs":[{"name":"_selector","type":"bytes4","internalType":"bytes4"}]},{"type":"error","name":"ConvictionUnderMinimumThreshold","inputs":[]},{"type":"error","name":"DefaultRulingNotSet","inputs":[]},{"type":"error","name":"DisputeCooldownNotPassed","inputs":[{"name":"_proposalId","type":"uint256","internalType":"uint256"},{"name":"_remainingSec","type":"uint256","internalType":"uint256"}]},{"type":"error","name":"INVALID","inputs":[]},{"type":"error","name":"INVALID_ADDRESS","inputs":[]},{"type":"error","name":"INVALID_FEE","inputs":[]},{"type":"error","name":"INVALID_METADATA","inputs":[]},{"type":"error","name":"INVALID_REGISTRATION","inputs":[]},{"type":"error","name":"IS_APPROVED_STRATEGY","inputs":[]},{"type":"error","name":"InitializationFunctionReverted","inputs":[{"name":"_initializationContractAddress","type":"address","internalType":"address"},{"name":"_calldata","type":"bytes","internalType":"bytes"}]},{"type":"error","name":"InsufficientCollateral","inputs":[{"name":"sentAmount","type":"uint256","internalType":"uint256"},{"name":"requiredAmount","type":"uint256","internalType":"uint256"}]},{"type":"error","name":"MISMATCH","inputs":[]},{"type":"error","name":"NONCE_NOT_AVAILABLE","inputs":[]},{"type":"error","name":"NON_ZERO_VALUE","inputs":[]},{"type":"error","name":"NOT_APPROVED_STRATEGY","inputs":[]},{"type":"error","name":"NOT_ENOUGH_FUNDS","inputs":[]},{"type":"error","name":"NOT_IMPLEMENTED","inputs":[]},{"type":"error","name":"NOT_INITIALIZED","inputs":[]},{"type":"error","name":"NOT_PENDING_OWNER","inputs":[]},{"type":"error","name":"NoBytecodeAtAddress","inputs":[{"name":"_contractAddress","type":"address","internalType":"address"},{"name":"_message","type":"string","internalType":"string"}]},{"type":"error","name":"NoSelectorsProvidedForFacetForCut","inputs":[{"name":"_facetAddress","type":"address","internalType":"address"}]},{"type":"error","name":"NotEnoughPointsToSupport","inputs":[{"name":"pointsSupport","type":"uint256","internalType":"uint256"},{"name":"pointsBalance","type":"uint256","internalType":"uint256"}]},{"type":"error","name":"NotImplemented","inputs":[{"name":"selector","type":"bytes4","internalType":"bytes4"}]},{"type":"error","name":"OnlyArbitrator","inputs":[{"name":"sender","type":"address","internalType":"address"},{"name":"arbitrator","type":"address","internalType":"address"}]},{"type":"error","name":"OnlyCommunityAllowed","inputs":[{"name":"sender","type":"address","internalType":"address"},{"name":"registryCommunity","type":"address","internalType":"address"}]},{"type":"error","name":"OnlyCouncilSafe","inputs":[{"name":"sender","type":"address","internalType":"address"},{"name":"councilSafe","type":"address","internalType":"address"},{"name":"owner","type":"address","internalType":"address"}]},{"type":"error","name":"OnlyCouncilSafeOrMember","inputs":[{"name":"sender","type":"address","internalType":"address"},{"name":"councilSafe","type":"address","internalType":"address"}]},{"type":"error","name":"POOL_ACTIVE","inputs":[]},{"type":"error","name":"POOL_INACTIVE","inputs":[]},{"type":"error","name":"PoolAmountNotEnough","inputs":[{"name":"_proposalId","type":"uint256","internalType":"uint256"},{"name":"_requestedAmount","type":"uint256","internalType":"uint256"},{"name":"_poolAmount","type":"uint256","internalType":"uint256"}]},{"type":"error","name":"PoolIsEmpty","inputs":[{"name":"poolAmount","type":"uint256","internalType":"uint256"}]},{"type":"error","name":"ProposalDataIsEmpty","inputs":[]},{"type":"error","name":"ProposalIdCannotBeZero","inputs":[]},{"type":"error","name":"ProposalInvalidForAllocation","inputs":[{"name":"_proposalId","type":"uint256","internalType":"uint256"},{"name":"_proposalStatus","type":"uint8","internalType":"enum ProposalStatus"}]},{"type":"error","name":"ProposalNotActive","inputs":[{"name":"_proposalId","type":"uint256","internalType":"uint256"}]},{"type":"error","name":"ProposalNotDisputed","inputs":[{"name":"_proposalId","type":"uint256","internalType":"uint256"}]},{"type":"error","name":"ProposalNotInList","inputs":[{"name":"_proposalId","type":"uint256","internalType":"uint256"}]},{"type":"error","name":"ProposalSupportDuplicated","inputs":[{"name":"_proposalId","type":"uint256","internalType":"uint256"},{"name":"index","type":"uint256","internalType":"uint256"}]},{"type":"error","name":"RECIPIENT_ALREADY_ACCEPTED","inputs":[]},{"type":"error","name":"RECIPIENT_ERROR","inputs":[{"name":"recipientId","type":"address","internalType":"address"}]},{"type":"error","name":"RECIPIENT_NOT_ACCEPTED","inputs":[]},{"type":"error","name":"REGISTRATION_ACTIVE","inputs":[]},{"type":"error","name":"REGISTRATION_NOT_ACTIVE","inputs":[]},{"type":"error","name":"RegistryCannotBeZero","inputs":[{"name":"registry","type":"address","internalType":"address"}]},{"type":"error","name":"RegistryCommunityCannotBeZero","inputs":[{"name":"registry","type":"address","internalType":"address"}]},{"type":"error","name":"RemoveFacetAddressMustBeZeroAddress","inputs":[{"name":"_facetAddress","type":"address","internalType":"address"}]},{"type":"error","name":"StrategyFunctionDoesNotExist","inputs":[{"name":"selector","type":"bytes4","internalType":"bytes4"}]},{"type":"error","name":"StrategyPaused","inputs":[{"name":"controller","type":"address","internalType":"address"}]},{"type":"error","name":"StrategySelectorPaused","inputs":[{"name":"selector","type":"bytes4","internalType":"bytes4"},{"name":"controller","type":"address","internalType":"address"}]},{"type":"error","name":"SupportUnderflow","inputs":[{"name":"_support","type":"uint256","internalType":"uint256"},{"name":"_delta","type":"int256","internalType":"int256"},{"name":"_result","type":"int256","internalType":"int256"}]},{"type":"error","name":"TokenCannotBeZero","inputs":[{"name":"token","type":"address","internalType":"address"}]},{"type":"error","name":"TokenNotAllowed","inputs":[{"name":"token","type":"address","internalType":"address"}]},{"type":"error","name":"UNAUTHORIZED","inputs":[]},{"type":"error","name":"UserCannotBeZero","inputs":[{"name":"user","type":"address","internalType":"address"}]},{"type":"error","name":"UserCannotExecuteAction","inputs":[{"name":"sender","type":"address","internalType":"address"}]},{"type":"error","name":"UserIsInactive","inputs":[{"name":"user","type":"address","internalType":"address"}]},{"type":"error","name":"UserNotInRegistry","inputs":[{"name":"user","type":"address","internalType":"address"},{"name":"registry","type":"address","internalType":"address"}]},{"type":"error","name":"ZERO_ADDRESS","inputs":[]}],"bytecode":{"object":"0x60a060405230608052348015610013575f80fd5b5060805161558d6100485f395f8181611277015281816112b70152818161177d015281816117bd0152611834015261558d5ff3fe6080604052600436106103a7575f3560e01c8063013cf08b1461044a57806301ffc9a71461048c578063025313a2146104cc578063059351cd146104ed57806305caa7f31461057857806309b65e66146105975780630a6f0ee9146105b65780630ba95909146105d55780630bece79c146105f35780630c0512e914610612578063125fd1d914610627578063136439dd1461063c578063141e3b381461065b57806315cc481e1461067a578063184b9559146106975780631aa91a9e146106b65780631add1a0d146106d55780631b36f56f146106ef5780631ddf1e231461070e5780631f931c1c14610722578063222a3a04146106d55780632506b87014610741578063255ffb38146107735780632bbe0cae1461079e5780632d2ebbef146107b15780632dbd6fdd146107cb5780632ed04b2b146107f6578063311a6c5614610810578063339604591461082f578063351d9f96146108445780633659cfe61461086a5780633864d3661461088957806338fff2d0146108a85780633f4ba83a1461070e57806341bb7605146108bc5780634ab4ba42146109175780634f1ef2861461092b57806352d1902d1461093e57806359a5db8b146109525780635db64b99146109715780636003e4141461099c57806360b0645a146109bb57806360b47789146109da57806360d5dedc146109ee578063626c47e814610a0d5780636453d9c4146106d5578063662ea47d14610a21578063715018a614610a42578063782aadff146107f65780637d7c2a1c1461070e57806380c4a65f14610a5657806380fd91cd14610a70578063814516ad1461070e578063817b1cd214610a8f578063868c57b814610aa45780638da5cb5b14610ac3578063924e6704146106d557806394573cbb14610ad7578063a0cf0aea14610aec578063a28889e114610b13578063a47ff7e514610b4a578063aba9ffee14610b60578063adaf157b146109da578063b0d3713a14610b75578063b187bd2614610b94578063b41596ec14610ba8578063b5f620ce14610bbb578063b6c61f3114610bda578063bac1e94b14610bf9578063c329217114610c13578063c4d66de814610c2f578063c69271ec146106d5578063c7f758a814610c4e578063d5b7cc5414610c85578063da748b1014610ca4578063dc96ff2d14610cb8578063df868ed314610ce6578063e0a8f6f51461063c578063e0dd2c3814610cfa578063edd146cc14610d19578063ef2920fc14610d38578063f2fde38b14610d46578063f5be3f7c14610d65576103ae565b366103ae57005b5f80356001600160e01b03191681525f80516020615446833981519152602081905260409091205481906001600160a01b031680610415575f356001600160e01b03191660405163335ed20560e11b815260040161040c9190613db6565b60405180910390fd5b61042a5f356001600160e01b03191682610d7a565b365f80375f80365f845af43d5f803e808015610444573d5ff35b3d5ffd5b005b348015610455575f80fd5b50610469610464366004613dcb565b610f0d565b6040516104839e9d9c9b9a99989796959493929190613e82565b60405180910390f35b348015610497575f80fd5b506104bc6104a6366004613f51565b6001600160e01b0319166301ffc9a760e01b1490565b6040519015158152602001610483565b3480156104d7575f80fd5b506104e061105d565b6040516104839190613f6a565b3480156104f8575f80fd5b50610540606f545f908152607f60205260409020805460018201546002830154600384015460048501546005909501546001600160a01b039485169694909316949193909290565b604080516001600160a01b039788168152969095166020870152938501929092526060840152608083015260a082015260c001610483565b348015610583575f80fd5b506080546104e0906001600160a01b031681565b3480156105a2575f80fd5b506104bc6105b1366004613f51565b611075565b3480156105c1575f80fd5b506104486105d036600461419c565b611083565b3480156105e0575f80fd5b506077545b604051908152602001610483565b3480156105fe575f80fd5b506079546104e0906001600160a01b031681565b34801561061d575f80fd5b506105e5606e5481565b348015610632575f80fd5b506105e5606f5481565b348015610647575f80fd5b50610448610656366004613dcb565b61108b565b348015610666575f80fd5b5061044861067536600461420e565b611096565b348015610685575f80fd5b506065546001600160a01b03166104e0565b3480156106a2575f80fd5b506104486106b13660046142a2565b6110a4565b3480156106c1575f80fd5b506105e56106d0366004613dcb565b6111a7565b3480156106e0575f80fd5b506104486106563660046142df565b3480156106fa575f80fd5b506081546104e0906001600160a01b031681565b348015610719575f80fd5b506104486111f0565b34801561072d575f80fd5b5061044861073c366004614337565b6111fa565b34801561074c575f80fd5b506072546073546074546075546107639392919084565b60405161048394939291906143df565b34801561077e575f80fd5b506105e561078d366004613dcb565b607e6020525f908152604090205481565b6104e06107ac3660046143fa565b611252565b3480156107bc575f80fd5b506105e56105b1366004613f51565b3480156107d6575f80fd5b506076546107e990610100900460ff1681565b6040516104839190614458565b348015610801575f80fd5b506105e56107ac366004614466565b34801561081b575f80fd5b5061044861082a366004614490565b611261565b34801561083a575f80fd5b506105e5606c5481565b34801561084f575f80fd5b5060765461085d9060ff1681565b60405161048391906144c0565b348015610875575f80fd5b506104486108843660046142df565b61126d565b348015610894575f80fd5b506104486108a3366004614466565b611331565b3480156108b3575f80fd5b506068546105e5565b3480156108c7575f80fd5b506105406108d6366004613dcb565b607f6020525f90815260409020805460018201546002830154600384015460048501546005909501546001600160a01b039485169593909416939192909186565b348015610922575f80fd5b506105e56114f4565b6104486109393660046144ce565b611773565b348015610949575f80fd5b506105e5611828565b34801561095d575f80fd5b506105e561096c366004613dcb565b6118d5565b34801561097c575f80fd5b506105e561098b3660046142df565b607c6020525f908152604090205481565b3480156109a7575f80fd5b506078546104e0906001600160a01b031681565b3480156109c6575f80fd5b506105e56109d5366004613dcb565b61199a565b3480156109e5575f80fd5b506104e0611a49565b3480156109f9575f80fd5b50610448610a0836600461451a565b611a52565b348015610a18575f80fd5b506105e5600381565b348015610a2c575f80fd5b50610a35611b11565b60405161048391906145a1565b348015610a4d575f80fd5b50610448611eb0565b348015610a61575f80fd5b5061044861082a36600461461e565b348015610a7b575f80fd5b506083546104e0906001600160a01b031681565b348015610a9a575f80fd5b506105e560705481565b348015610aaf575f80fd5b506105e5610abe366004614466565b611ec1565b348015610ace575f80fd5b506104e0611eec565b348015610ae2575f80fd5b506105e560825481565b348015610af7575f80fd5b506104e073eeeeeeeeeeeeeeeeeeeeeeeeeeeeeeeeeeeeeeee81565b348015610b1e575f80fd5b50606d54610b32906001600160401b031681565b6040516001600160401b039091168152602001610483565b348015610b55575f80fd5b506077546105e59081565b348015610b6b575f80fd5b506105e560715481565b348015610b80575f80fd5b50610448610b8f3660046142df565b611f7a565b348015610b9f575f80fd5b506104bc611a49565b6105e5610bb6366004614638565b611fa4565b348015610bc6575f80fd5b50610448610bd536600461469a565b611fb6565b348015610be5575f80fd5b50607a546104e0906001600160a01b031681565b348015610c04575f80fd5b50610448610656366004613f51565b348015610c1e575f80fd5b50607654610100900460ff166107e9565b348015610c3a575f80fd5b50610448610c493660046142df565b611fbf565b348015610c59575f80fd5b50610c6d610c68366004613dcb565b612071565b6040516104839c9b9a999897969594939291906146b5565b348015610c90575f80fd5b50610448610c9f36600461476c565b61223f565b348015610caf575f80fd5b506105e5611a49565b348015610cc3575f80fd5b506105e5610cd2366004613dcb565b5f908152607b602052604090206002015490565b348015610cf1575f80fd5b506104bc61224f565b348015610d05575f80fd5b506105e5610d14366004614863565b61225c565b348015610d24575f80fd5b50610448610d33366004614886565b612286565b61044861082a3660046143fa565b348015610d51575f80fd5b50610448610d603660046142df565b6127dd565b348015610d70575f80fd5b506105e5611c2081565b610d82612853565b600101546001600160a01b0390811690821603610d9d575050565b610da682612877565b15610daf575050565b5f610db8612853565b546001600160a01b0316905080610dce57505050565b604051635b14f18360e01b81526001600160a01b03821690635b14f18390610dfa903090600401613f6a565b602060405180830381865afa158015610e15573d5f803e3d5ffd5b505050506040513d601f19601f82011682018060405250810190610e3991906148b3565b15610e59578060405163c2897a3760e01b815260040161040c9190613f6a565b6040516374b896f160e01b81523060048201526001600160e01b0319841660248201526001600160a01b038216906374b896f190604401602060405180830381865afa158015610eab573d5f803e3d5ffd5b505050506040513d601f19601f82011682018060405250810190610ecf91906148b3565b15610f085760405163a9774bf960e01b81526001600160e01b0319841660048201526001600160a01b038216602482015260440161040c565b505050565b607b60209081525f9182526040918290208054600182015460028301546003840154600485015460058601546006870154600788015460088901548b51808d01909c52600a8a0180548d52600b8b0180549a9d999c989b979a6001600160a01b039788169a968816999790951697939660ff9093169593949192840191610f93906148ce565b80601f0160208091040260200160405190810160405280929190818152602001828054610fbf906148ce565b801561100a5780601f10610fe15761010080835404028352916020019161100a565b820191905f5260205f20905b815481529060010190602001808311610fed57829003601f168201915b50505091909252505060408051606081018252600c8501548152600d8501546020820152600e8501546001600160a01b031691810191909152600f8401546010850154601190950154939491939092508e565b5f6110706033546001600160a01b031690565b905090565b5f61107e6103ae565b919050565b610f086103ae565b6110936103ae565b50565b61109e6103ae565b50505050565b5f54610100900460ff16158080156110c257505f54600160ff909116105b806110e257506110d1306129ba565b1580156110e257505f5460ff166001145b6110fe5760405162461bcd60e51b815260040161040c90614906565b5f805460ff19166001179055801561111f575f805461ff0019166101001790555b61114c846040518060400160405280600a8152602001694356537472617465677960b01b81525084611a52565b611155826129c9565b606a80546001600160a01b0319166001600160a01b038516179055801561109e575f805461ff0019169055604051600181525f805160206154f28339815191529060200160405180910390a150505050565b5f818152607b60205260408120805483146111d85760405163c1d17bef60e01b81526004810184905260240161040c565b6111e6818260020154612a14565b6003015492915050565b6111f86103ae565b565b611202612a4d565b61124b61120f8587614954565b8484848080601f0160208091040260200160405190810160405280939291908181526020018383808284375f92019190915250612ad292505050565b5050505050565b5f61125b6103ae565b92915050565b6112696103ae565b5050565b6001600160a01b037f00000000000000000000000000000000000000000000000000000000000000001630036112b55760405162461bcd60e51b815260040161040c90614a74565b7f00000000000000000000000000000000000000000000000000000000000000006001600160a01b03166112e7612c3b565b6001600160a01b03161461130d5760405162461bcd60e51b815260040161040c90614aad565b61131681612c56565b604080515f8082526020820190925261109391839190612ca2565b60785f9054906101000a90046001600160a01b03166001600160a01b0316636c53db9a6040518163ffffffff1660e01b8152600401602060405180830381865afa158015611381573d5f803e3d5ffd5b505050506040513d601f19601f820116820180604052508101906113a59190614ae6565b6001600160a01b0316336001600160a01b0316141580156113df57506113c9611eec565b6001600160a01b0316336001600160a01b031614155b1561148c5760785460408051633629edcd60e11b8152905133926001600160a01b031691636c53db9a9160048083019260209291908290030181865afa15801561142b573d5f803e3d5ffd5b505050506040513d601f19601f8201168201806040525081019061144f9190614ae6565b611457611eec565b60405163e1b9c46960e01b81526001600160a01b0393841660048201529183166024830152909116604482015260640161040c565b61149582612e0c565b607a80546001600160a01b0319166001600160a01b0384161790556114b981612e35565b7f2667a0cd99dbc787d1d2596efe938cf43dfe83e8b8ddeb70e28007c09ff33485826040516114e89190613f6a565b60405180910390a15050565b60655460685460405163068bcd8d60e01b81525f9283926001600160a01b039091169163068bcd8d9161152d9160040190815260200190565b5f60405180830381865afa158015611547573d5f803e3d5ffd5b505050506040513d5f823e601f3d908101601f1916820160405261156e9190810190614b0c565b60400151905073eeeeeeeeeeeeeeeeeeeeeeeeeeeeeeeeeeeeeeed196001600160a01b038216016115a0574791505090565b6040516370a0823160e01b81525f906001600160a01b038316906370a08231906115ce903090600401613f6a565b602060405180830381865afa1580156115e9573d5f803e3d5ffd5b505050506040513d601f19601f8201168201806040525081019061160d9190614c24565b6080549091505f906001600160a01b031615611697576080546040516370a0823160e01b81526001600160a01b03909116906370a0823190611653903090600401613f6a565b602060405180830381865afa15801561166e573d5f803e3d5ffd5b505050506040513d601f19601f820116820180604052508101906116929190614c24565b611699565b5f5b90505f836001600160a01b031663313ce5676040518163ffffffff1660e01b8152600401602060405180830381865afa1580156116d8573d5f803e3d5ffd5b505050506040513d601f19601f820116820180604052508101906116fc9190614c3b565b905060128160ff16101561173157611715816012614c6f565b61172090600a614d68565b61172a9083614d8a565b9150611760565b60128160ff16111561176057611748601282614c6f565b61175390600a614d68565b61175d9083614da9565b91505b61176a8284614dc0565b94505050505090565b6001600160a01b037f00000000000000000000000000000000000000000000000000000000000000001630036117bb5760405162461bcd60e51b815260040161040c90614a74565b7f00000000000000000000000000000000000000000000000000000000000000006001600160a01b03166117ed612c3b565b6001600160a01b0316146118135760405162461bcd60e51b815260040161040c90614aad565b61181c82612c56565b61126982826001612ca2565b5f306001600160a01b037f000000000000000000000000000000000000000000000000000000000000000016146118c25760405162461bcd60e51b815260206004820152603860248201527f555550535570677261646561626c653a206d757374206e6f742062652063616c6044820152771b1959081d1a1c9bdd59da0819195b1959d85d1958d85b1b60421b606482015260840161040c565b505f805160206154d28339815191525b90565b5f806118df6114f4565b90505f629896808260725f01546118f69190614da9565b6119009190614d8a565b6071546074546073546072546075546040516314eff2dd60e11b815295965073__$f1b7c69ba751c396eddc93d3bbc5414fd9$__956329dfe5ba95611953958c958b959294919390929190600401614dd3565b602060405180830381865af415801561196e573d5f803e3d5ffd5b505050506040513d601f19601f820116820180604052508101906119929190614c24565b949350505050565b5f818152607b60205260408120600781015473__$f1b7c69ba751c396eddc93d3bbc5414fd9$__9063010dfe64906119d29043614e03565b600384015460028501546074546040516001600160e01b031960e087901b168152611a0394939291906004016143df565b602060405180830381865af4158015611a1e573d5f803e3d5ffd5b505050506040513d601f19601f82011682018060405250810190611a429190614c24565b9392505050565b5f6118d26103ae565b5f54610100900460ff16611abc5760405162461bcd60e51b815260206004820152602b60248201527f496e697469616c697a61626c653a20636f6e7472616374206973206e6f74206960448201526a6e697469616c697a696e6760a81b606482015260840161040c565b611ac581611fbf565b606580546001600160a01b0319166001600160a01b038516179055604051611af1908390602001614e16565b60408051601f198184030181529190528051602090910120606655505050565b60605f611b1c612f12565b6001810154909150806001600160401b03811115611b3c57611b3c613f7e565b604051908082528060200260200182016040528015611b8157816020015b604080518082019091525f815260606020820152815260200190600190039081611b5a5790505b5092505f816001600160401b03811115611b9d57611b9d613f7e565b604051908082528060200260200182016040528015611bc6578160200160208202803683370190505b5090505f805b83811015611e4b575f856001018281548110611bea57611bea614e28565b5f918252602080832060088304015460079092166004026101000a90910460e01b6001600160e01b0319811683529088905260408220549092506001600160a01b031690805b85811015611d1b57826001600160a01b03168a8281518110611c5457611c54614e28565b60200260200101515f01516001600160a01b031603611d1357838a8281518110611c8057611c80614e28565b602002602001015160200151888381518110611c9e57611c9e614e28565b602002602001015161ffff1681518110611cba57611cba614e28565b60200260200101906001600160e01b03191690816001600160e01b03191681525050868181518110611cee57611cee614e28565b602002602001018051809190611d0390614e3c565b61ffff1690525060019150611d1b565b600101611c30565b508015611d2b5750611e43915050565b81898681518110611d3e57611d3e614e28565b60209081029190910101516001600160a01b039091169052866001600160401b03811115611d6e57611d6e613f7e565b604051908082528060200260200182016040528015611d97578160200160208202803683370190505b50898681518110611daa57611daa614e28565b60200260200101516020018190525082898681518110611dcc57611dcc614e28565b6020026020010151602001515f81518110611de957611de9614e28565b60200260200101906001600160e01b03191690816001600160e01b031916815250506001868681518110611e1f57611e1f614e28565b61ffff9092166020928302919091019091015284611e3c81614e5c565b9550505050505b600101611bcc565b505f5b81811015611ea5575f868281518110611e6957611e69614e28565b60200260200101516020015190505f848381518110611e8a57611e8a614e28565b602090810291909101015161ffff1690915250600101611e4e565b508085525050505090565b611eb8612a4d565b6111f85f612f23565b607d602052815f5260405f208181548110611eda575f80fd5b905f5260205f20015f91509150505481565b5f611ef561105d565b6001600160a01b03163b5f03611f0d5761107061105d565b611f1561105d565b6001600160a01b0316638da5cb5b6040518163ffffffff1660e01b8152600401602060405180830381865afa925050508015611f6e575060408051601f3d908101601f19168201909252611f6b91810190614ae6565b60015b61107e5761107061105d565b611f82612a4d565b606a80546001600160a01b0319166001600160a01b0392909216919091179055565b5f611fad6103ae565b95945050505050565b61109381612f61565b5f54610100900460ff1615808015611fdd57505f54600160ff909116105b80611ffd5750611fec306129ba565b158015611ffd57505f5460ff166001145b6120195760405162461bcd60e51b815260040161040c90614906565b5f805460ff19166001179055801561203a575f805461ff0019166101001790555b61204382612f23565b8015611269575f805461ff0019169055604051600181525f805160206154f2833981519152906020016114e8565b5f805f805f805f805f805f805f607b5f8f81526020019081526020015f20905080600101545f036120a4575f945061217a565b5f6120ad6114f4565b90505f6120c28260725f015462989680612fa8565b90508015806120d45750808360010154115b156120e1575f9650612177565b60018301546071546074546073546072546075546040516314eff2dd60e11b815273__$f1b7c69ba751c396eddc93d3bbc5414fd9$__966329dfe5ba966121359691958b9591949293909290600401614dd3565b602060405180830381865af4158015612150573d5f803e3d5ffd5b505050506040513d601f19601f820116820180604052508101906121749190614c24565b96505b50505b806005015f9054906101000a90046001600160a01b0316816004015f9054906101000a90046001600160a01b0316826006015f9054906101000a90046001600160a01b031683600101548460020154856008015f9054906101000a900460ff16866007015487600301548c896009015f336001600160a01b03166001600160a01b031681526020019081526020015f20548a601001548b600a015f01549c509c509c509c509c509c509c509c509c509c509c509c505091939597999b5091939597999b565b6122476103ae565b505050505050565b5f61107060675460ff1690565b5f828152607b602090815260408083206001600160a01b0385168452600901909152812054611a42565b61228e61308c565b612297826130b7565b606a54606c80546122bf926001600160a01b0316915f6122b683614e5c565b91905055613119565b607980546001600160a01b0319166001600160a01b039290921691821790556040805163204a7f0760e21b81529051638129fc1c916004808201925f9290919082900301818387803b158015612313575f80fd5b505af1158015612325573d5f803e3d5ffd5b505050505f8180602001905181019061233e9190614fe0565b60a0810151607880546001600160a01b0319166001600160a01b0392831617905560c08201519192501615612377578060c0015161237d565b8060a001515b608380546001600160a01b0319166001600160a01b039290921691909117905560208101516076805460ff191660018360028111156123be576123be613def565b021790555060408101516076805461ff0019166101008360048111156123e6576123e6613def565b021790555060608101515160775560e0810151607a80546001600160a01b039283166001600160a01b031991821617909155610140830151608080549190931691161790556101608101516082556040517ff5eb09d0087c79c1d71dcda48cad7b075c9cf56c9354addb6cab6cde6194bc6f906124669085908490615162565b60405180910390a160028160200151600281111561248657612486613def565b0361259b576080546001600160a01b031615806124a35750608254155b156124ce576080546040516330d466e760e11b815261040c916001600160a01b031690600401613f6a565b6080546040805180820182525f808252602082018181529251630779d36560e01b81526001600160a01b03909416600485015230602485015290511515604484015290511515606483015290736da13bde224a05a288748d857b9e7ddeffd1de0890630779d3659060840160408051808303815f875af1158015612554573d5f803e3d5ffd5b505050506040513d601f19601f82011682018060405250810190612578919061529f565b608180546001600160a01b0319166001600160a01b039290921691909117905550505b6080810151602001516001600160a01b0316158015906125c857506080810151516001600160a01b031615155b15612734576080810151805160209091015160405163446adb9960e11b81526001600160a01b03909216916388d5b7329161260591600401613f6a565b5f604051808303815f87803b15801561261c575f80fd5b505af115801561262e573d5f803e3d5ffd5b5050606f8054925090505f61264283614e5c565b909155505060808181018051606f80545f908152607f6020908152604091829020845181546001600160a01b039182166001600160a01b03199182161783558387015160018401805491841691909216179055838601516002830155606080870151600384015586890151600484015560a096870151600590930192909255935495518051818401518286015183850151848c0151948a015188519b8c52938916968b019690965296168886015291870194909452958501529183015260c082019290925290517fe677e2878aaaaf6a65ecf50f849ad58100c49f6dfd57d055ba4bddd63a175d539181900360e00190a15b80516040015115801561274a5750805160200151155b80156127565750805151155b80156127655750805160600151155b6127be578051805160725560208101516073556040808201516074556060820151607555517fec9315d9f4291207475c061feff1e5d7105750ac0ee9534af9444b4ff1dab9bc916127b5916152cc565b60405180910390a15b607a546001600160a01b031615610f0857610f08816101000151612e35565b6127e5612a4d565b6001600160a01b03811661284a5760405162461bcd60e51b815260206004820152602660248201527f4f776e61626c653a206e6577206f776e657220697320746865207a65726f206160448201526564647265737360d01b606482015260840161040c565b61109381612f23565b7f12ec43b97389db0cfbdf8d85f200f1b822123856376a9d75d3a6918f27c903bb90565b5f6001600160e01b03198216631add1a0d60e01b14806128a757506001600160e01b0319821663088a8e8160e21b145b806128c257506001600160e01b0319821663136439dd60e01b145b806128dd57506001600160e01b031982166380c4a65f60e01b145b806128f857506001600160e01b03198216631fa5d41d60e11b145b8061291357506001600160e01b0319821663bac1e94b60e01b145b8061292e57506001600160e01b0319821663adaf157b60e01b145b8061294957506001600160e01b031982166360b4778960e01b145b8061296457506001600160e01b031982166358c3de9360e11b145b8061297f57506001600160e01b031982166304db2f3360e11b145b8061299a57506001600160e01b03198216630da748b160e41b145b8061125b57506001600160e01b03198216632d2ebbef60e01b1492915050565b6001600160a01b03163b151590565b5f6129d2612f12565b6003810180546001600160a01b038581166001600160a01b031983168117909355604051939450169182905f80516020615512833981519152905f90a3505050565b5f80612a20848461315f565b91509150815f148015612a31575080155b15612a3c5750505050565b600784015560039092019190915550565b5f612a5661105d565b90505f612a61611eec565b9050336001600160a01b03831614801590612a855750336001600160a01b03821614155b156112695760405162461bcd60e51b815260206004820181905260248201527f4f776e61626c653a2063616c6c6572206973206e6f7420746865206f776e6572604482015260640161040c565b5f5b8351811015612bf5575f848281518110612af057612af0614e28565b60200260200101516040015190505f858381518110612b1157612b11614e28565b60200260200101515f0151905081515f03612b41578060405163e767f91f60e01b815260040161040c9190613f6a565b5f868481518110612b5457612b54614e28565b60200260200101516020015190505f6003811115612b7457612b74613def565b816003811115612b8657612b86613def565b03612b9a57612b95828461322c565b612bea565b6001816003811115612bae57612bae613def565b03612bbd57612b9582846133b6565b6002816003811115612bd157612bd1613def565b03612be057612b958284613513565b612bea828461375d565b505050600101612ad4565b507f8faa70878671ccd212d20771b795c50af8fd3ff6cf27f4bde57e5d4de0aeb673838383604051612c29939291906152da565b60405180910390a1610f088282613968565b5f805160206154d2833981519152546001600160a01b031690565b33612c5f611eec565b6001600160a01b0316146110935733612c76611eec565b60405163163678e960e01b81526001600160a01b0392831660048201529116602482015260440161040c565b7f4910fdfa16fed3260ed0e7147f7cc6da11a60208b5b9406d12a635614ffd91435460ff1615612cd557610f0883613a2a565b826001600160a01b03166352d1902d6040518163ffffffff1660e01b8152600401602060405180830381865afa925050508015612d2f575060408051601f3d908101601f19168201909252612d2c91810190614c24565b60015b612d925760405162461bcd60e51b815260206004820152602e60248201527f45524331393637557067726164653a206e657720696d706c656d656e7461746960448201526d6f6e206973206e6f74205555505360901b606482015260840161040c565b5f805160206154d28339815191528114612e005760405162461bcd60e51b815260206004820152602960248201527f45524331393637557067726164653a20756e737570706f727465642070726f786044820152681a58589b195555525160ba1b606482015260840161040c565b50610f08838383613ac3565b6001600160a01b038116611093578060405163084c41ef60e01b815260040161040c9190613f6a565b607a5460785460408051633629edcd60e11b815290516001600160a01b039384169363fc2ebdd193309387939190921691636c53db9a9160048083019260209291908290030181865afa158015612e8e573d5f803e3d5ffd5b505050506040513d601f19601f82011682018060405250810190612eb29190614ae6565b60405160e085901b6001600160e01b03191681526001600160a01b039384166004820152602481019290925290911660448201526064015f604051808303815f87803b158015612f00575f80fd5b505af115801561124b573d5f803e3d5ffd5b5f8051602061544683398151915290565b603380546001600160a01b038381166001600160a01b0319831681179093556040519116919082905f80516020615512833981519152905f90a35050565b6067805460ff19168215159081179091556040519081527fd94c9bc4d43c51d8dc345a016d8e3d994432fac68e72832e4cf3a616bd8efae09060200160405180910390a150565b5f80805f19858709858702925082811083820303915050805f03612fdf57838281612fd557612fd5614d76565b0492505050611a42565b8084116130265760405162461bcd60e51b81526020600482015260156024820152744d6174683a206d756c446976206f766572666c6f7760581b604482015260640161040c565b5f84868809600260036001881981018916988990049182028318808302840302808302840302808302840302808302840302808302840302918202909203025f889003889004909101858311909403939093029303949094049190911702949350505050565b6065546001600160a01b031633146111f85760405163075fd2b160e01b815260040160405180910390fd5b5f356001600160e01b0319166130cb575f80fd5b6130d361308c565b606854156130f45760405163439a74c960e01b815260040160405180910390fd5b805f0361311457604051637fcce2a960e01b815260040160405180910390fd5b606855565b6040516001600160601b03193360601b166020820152603481018290525f9081906054016040516020818303038152906040528051906020012090506119928482613ae7565b5f80439050808460070154111561317857613178615393565b8084600701540361318d57505f905080613225565b73__$f1b7c69ba751c396eddc93d3bbc5414fd9$__63010dfe648560070154836131b79190614e03565b60038701546074546040516001600160e01b031960e086901b1681526131e393929189916004016143df565b602060405180830381865af41580156131fe573d5f803e3d5ffd5b505050506040513d601f19601f820116820180604052508101906132229190614c24565b91505b9250929050565b6001600160a01b03821661325557806040516302b8da0760e21b815260040161040c91906153a7565b5f61325e612f12565b90505f8160010180549050905061328d8460405180606001604052806024815260200161546660249139613b7b565b5f5b835181101561124b575f8482815181106132ab576132ab614e28565b6020908102919091018101516001600160e01b031981165f908152918690526040909120549091506001600160a01b031680156132fd578160405163ebbf5d0760e01b815260040161040c9190613db6565b6040805180820182526001600160a01b03808a16825261ffff80881660208085019182526001600160e01b031988165f9081528b8252958620945185549251909316600160a01b026001600160b01b0319909216929093169190911717909155600180880180549182018155835291206008820401805460e085901c60046007909416939093026101000a92830263ffffffff9093021916919091179055836133a581614e3c565b9450506001909201915061328f9050565b5f6133bf612f12565b90506001600160a01b0383166133ea578160405163cd98a96f60e01b815260040161040c91906153a7565b61340c8360405180606001604052806028815260200161555960289139613b7b565b5f5b825181101561109e575f83828151811061342a5761342a614e28565b6020908102919091018101516001600160e01b031981165f908152918590526040909120549091506001600160a01b031630810361347d5781604051632901806d60e11b815260040161040c9190613db6565b856001600160a01b0316816001600160a01b0316036134b15781604051631ac6ce8d60e11b815260040161040c9190613db6565b6001600160a01b0381166134da5781604051637479f93960e01b815260040161040c9190613db6565b506001600160e01b0319165f90815260208390526040902080546001600160a01b0319166001600160a01b03861617905560010161340e565b5f61351c612f12565b60018101549091506001600160a01b0384161561354e578360405163d091bc8160e01b815260040161040c9190613f6a565b5f5b835181101561124b575f84828151811061356c5761356c614e28565b6020908102919091018101516001600160e01b031981165f9081528683526040908190208151808301909252546001600160a01b038116808352600160a01b90910461ffff1693820193909352909250906135dc5781604051637a08a22d60e01b815260040161040c9190613db6565b8051306001600160a01b039091160361360a5781604051630df5fd6160e31b815260040161040c9190613db6565b83613614816153b9565b94505083816020015161ffff16146136ee575f85600101858154811061363c5761363c614e28565b905f5260205f2090600891828204019190066004029054906101000a900460e01b90508086600101836020015161ffff168154811061367d5761367d614e28565b5f91825260208083206008830401805463ffffffff60079094166004026101000a938402191660e09590951c92909202939093179055838201516001600160e01b03199390931681529087905260409020805461ffff60a01b1916600160a01b61ffff909316929092029190911790555b84600101805480613701576137016153ce565b5f828152602080822060085f1990940193840401805463ffffffff600460078716026101000a0219169055919092556001600160e01b0319909316815291859052506040902080546001600160b01b0319169055600101613550565b6001600160a01b03821661378657806040516302b8da0760e21b815260040161040c91906153a7565b5f61378f612f12565b90506137b38360405180606001604052806025815260200161542160259139613b7b565b5f82516001600160401b038111156137cd576137cd613f7e565b6040519080825280602002602001820160405280156137f6578160200160208202803683370190505b5090505f8084516001600160401b0381111561381457613814613f7e565b60405190808252806020026020018201604052801561383d578160200160208202803683370190505b5090505f805b865181101561392c575f87828151811061385f5761385f614e28565b6020908102919091018101516001600160e01b031981165f908152918990526040909120549091506001600160a01b0316806138d1578187876138a181614e5c565b9850815181106138b3576138b3614e28565b6001600160e01b031990921660209283029190910190910152613922565b896001600160a01b0316816001600160a01b031614613922578185856138f681614e5c565b96508151811061390857613908614e28565b6001600160e01b0319909216602092830291909101909101525b5050600101613843565b50821561394657613946876139418686613ba2565b61322c565b801561395f5761395f8761395a8484613ba2565b6133b6565b50505050505050565b6001600160a01b03821661397a575050565b61399c8260405180606001604052806028815260200161548a60289139613b7b565b5f80836001600160a01b0316836040516139b691906153e2565b5f60405180830381855af49150503d805f81146139ee576040519150601f19603f3d011682016040523d82523d5f602084013e6139f3565b606091505b50915091508161109e57805115613a0d5780518082602001fd5b838360405163192105d760e01b815260040161040c9291906153fd565b613a33816129ba565b613a955760405162461bcd60e51b815260206004820152602d60248201527f455243313936373a206e657720696d706c656d656e746174696f6e206973206e60448201526c1bdd08184818dbdb9d1c9858dd609a1b606482015260840161040c565b5f805160206154d283398151915280546001600160a01b0319166001600160a01b0392909216919091179055565b613acc83613c48565b5f82511180613ad85750805b15610f085761109e8383613c87565b5f763d602d80600a3d3981f3363d3d373d3d3d363d730000008360601b60e81c175f526e5af43d82803e903d91602b57fd5bf38360781b1760205281603760095ff590506001600160a01b03811661125b5760405162461bcd60e51b8152602060048201526017602482015276115490cc4c4d8dce8818dc99585d194c8819985a5b1959604a1b604482015260640161040c565b813b5f819003610f0857828260405163919834b960e01b815260040161040c9291906153fd565b60605f826001600160401b03811115613bbd57613bbd613f7e565b604051908082528060200260200182016040528015613be6578160200160208202803683370190505b5090505f5b83811015613c4057848181518110613c0557613c05614e28565b6020026020010151828281518110613c1f57613c1f614e28565b6001600160e01b031990921660209283029190910190910152600101613beb565b509392505050565b613c5181613a2a565b6040516001600160a01b038216907fbc7cd75a20ee27fd9adebab32041f755214dbc6bffa90cc0225b39da2e5c2d3b905f90a250565b6060611a4283836040518060600160405280602781526020016155326027913960605f80856001600160a01b031685604051613cc391906153e2565b5f60405180830381855af49150503d805f8114613cfb576040519150601f19603f3d011682016040523d82523d5f602084013e613d00565b606091505b5091509150613d1186838387613d1b565b9695505050505050565b60608315613d875782515f03613d8057613d34856129ba565b613d805760405162461bcd60e51b815260206004820152601d60248201527f416464726573733a2063616c6c20746f206e6f6e2d636f6e7472616374000000604482015260640161040c565b5081611992565b6119928383815115613d9c5781518083602001fd5b8060405162461bcd60e51b815260040161040c9190614e16565b6001600160e01b031991909116815260200190565b5f60208284031215613ddb575f80fd5b5035919050565b6001600160a01b03169052565b634e487b7160e01b5f52602160045260245ffd5b60078110613e1357613e13613def565b9052565b5f5b83811015613e31578181015183820152602001613e19565b50505f910152565b5f8151808452613e50816020860160208601613e17565b601f01601f19169290920160200192915050565b805182525f6020820151604060208501526119926040850182613e39565b8e8152602081018e9052604081018d9052606081018c90526001600160a01b038b811660808301528a1660a08201525f613ebf60c083018b613de2565b8860e0830152613ed3610100830189613e03565b610200610120830152613eea610200830188613e64565b865161014084015260208701516101608401526040909601516001600160a01b0316610180830152506101a08101939093526101c08301919091526101e0909101529a9950505050505050505050565b80356001600160e01b03198116811461107e575f80fd5b5f60208284031215613f61575f80fd5b611a4282613f3a565b6001600160a01b0391909116815260200190565b634e487b7160e01b5f52604160045260245ffd5b604080519081016001600160401b0381118282101715613fb457613fb4613f7e565b60405290565b604051608081016001600160401b0381118282101715613fb457613fb4613f7e565b60405160c081016001600160401b0381118282101715613fb457613fb4613f7e565b604051606081016001600160401b0381118282101715613fb457613fb4613f7e565b60405161018081016001600160401b0381118282101715613fb457613fb4613f7e565b604051601f8201601f191681016001600160401b038111828210171561406b5761406b613f7e565b604052919050565b5f6001600160401b0382111561408b5761408b613f7e565b5060051b60200190565b6001600160a01b0381168114611093575f80fd5b803561107e81614095565b5f82601f8301126140c3575f80fd5b813560206140d86140d383614073565b614043565b8083825260208201915060208460051b8701019350868411156140f9575f80fd5b602086015b8481101561411e57803561411181614095565b83529183019183016140fe565b509695505050505050565b5f6001600160401b0382111561414157614141613f7e565b50601f01601f191660200190565b5f82601f83011261415e575f80fd5b813561416c6140d382614129565b818152846020838601011115614180575f80fd5b816020850160208301375f918101602001919091529392505050565b5f805f606084860312156141ae575f80fd5b83356001600160401b03808211156141c4575f80fd5b6141d0878388016140b4565b945060208601359150808211156141e5575f80fd5b506141f28682870161414f565b925050604084013561420381614095565b809150509250925092565b5f805f8060808587031215614221575f80fd5b8435935060208501356001600160401b038082111561423e575f80fd5b9086019060408289031215614251575f80fd5b614259613f92565b8235815260208301358281111561426e575f80fd5b61427a8a82860161414f565b60208301525094505050604085013561429281614095565b9396929550929360600135925050565b5f805f606084860312156142b4575f80fd5b83356142bf81614095565b925060208401356142cf81614095565b9150604084013561420381614095565b5f602082840312156142ef575f80fd5b8135611a4281614095565b5f8083601f84011261430a575f80fd5b5081356001600160401b03811115614320575f80fd5b602083019150836020828501011115613225575f80fd5b5f805f805f6060868803121561434b575f80fd5b85356001600160401b0380821115614361575f80fd5b818801915088601f830112614374575f80fd5b813581811115614382575f80fd5b8960208260051b8501011115614396575f80fd5b602083019750809650506143ac602089016140a9565b945060408801359150808211156143c1575f80fd5b506143ce888289016142fa565b969995985093965092949392505050565b93845260208401929092526040830152606082015260800190565b5f806040838503121561440b575f80fd5b82356001600160401b03811115614420575f80fd5b61442c8582860161414f565b925050602083013561443d81614095565b809150509250929050565b60058110613e1357613e13613def565b6020810161125b8284614448565b5f8060408385031215614477575f80fd5b823561448281614095565b946020939093013593505050565b5f80604083850312156144a1575f80fd5b50508035926020909101359150565b60038110613e1357613e13613def565b6020810161125b82846144b0565b5f80604083850312156144df575f80fd5b82356144ea81614095565b915060208301356001600160401b03811115614504575f80fd5b6145108582860161414f565b9150509250929050565b5f805f6060848603121561452c575f80fd5b833561453781614095565b925060208401356001600160401b03811115614551575f80fd5b6141f28682870161414f565b5f815180845260208085019450602084015f5b838110156145965781516001600160e01b03191687529582019590820190600101614570565b509495945050505050565b5f60208083018184528085518083526040925060408601915060408160051b8701018488015f5b8381101561461057888303603f19018552815180516001600160a01b031684528701518784018790526145fd8785018261455d565b95880195935050908601906001016145c8565b509098975050505050505050565b5f806040838503121561462f575f80fd5b61448283613f3a565b5f805f805f6060868803121561464c575f80fd5b8535945060208601356001600160401b0380821115614669575f80fd5b61467589838a016142fa565b909650945060408801359150808211156143c1575f80fd5b8015158114611093575f80fd5b5f602082840312156146aa575f80fd5b8135611a428161468d565b6001600160a01b038d811682528c811660208301528b166040820152606081018a90526080810189905261018081016146f160a083018a613e03565b8760c08301528660e0830152856101008301528461012083015283610140830152826101608301529d9c50505050505050505050505050565b5f6080828403121561473a575f80fd5b614742613fba565b90508135815260208201356020820152604082013560408201526060820135606082015292915050565b5f805f805f808688036101c0811215614783575f80fd5b60c0811215614790575f80fd5b50614799613fdc565b87356147a481614095565b815260208801356147b481614095565b8060208301525060408801356040820152606088013560608201526080880135608082015260a088013560a0820152809650506147f48860c0890161472a565b945061014087013593506101608701356001600160401b0380821115614818575f80fd5b6148248a838b016140b4565b945061018089013591508082111561483a575f80fd5b5061484789828a016140b4565b9250506148576101a088016140a9565b90509295509295509295565b5f8060408385031215614874575f80fd5b82359150602083013561443d81614095565b5f8060408385031215614897575f80fd5b8235915060208301356001600160401b03811115614504575f80fd5b5f602082840312156148c3575f80fd5b8151611a428161468d565b600181811c908216806148e257607f821691505b60208210810361490057634e487b7160e01b5f52602260045260245ffd5b50919050565b6020808252602e908201527f496e697469616c697a61626c653a20636f6e747261637420697320616c72656160408201526d191e481a5b9a5d1a585b1a5e995960921b606082015260800190565b5f6149616140d384614073565b83815260208082019190600586811b86013681111561497e575f80fd5b865b81811015614a675780356001600160401b038082111561499e575f80fd5b818a019150606082360312156149b2575f80fd5b6149ba613ffe565b82356149c581614095565b815282870135600481106149d7575f80fd5b81880152604083810135838111156149ed575f80fd5b939093019236601f850112614a00575f80fd5b83359250614a106140d384614073565b83815292871b84018801928881019036851115614a2b575f80fd5b948901945b84861015614a5057614a4186613f3a565b82529489019490890190614a30565b918301919091525088525050948301948301614980565b5092979650505050505050565b6020808252602c908201525f805160206154b283398151915260408201526b19195b1959d85d1958d85b1b60a21b606082015260800190565b6020808252602c908201525f805160206154b283398151915260408201526b6163746976652070726f787960a01b606082015260800190565b5f60208284031215614af6575f80fd5b8151611a4281614095565b805161107e81614095565b5f6020808385031215614b1d575f80fd5b82516001600160401b0380821115614b33575f80fd5b9084019060c08287031215614b46575f80fd5b614b4e613fdc565b8251815283830151614b5f81614095565b818501526040830151614b7181614095565b6040820152606083015182811115614b87575f80fd5b830160408189031215614b98575f80fd5b614ba0613f92565b815181528582015184811115614bb4575f80fd5b82019350601f84018913614bc6575f80fd5b83519150614bd66140d383614129565b8281528987848701011115614be9575f80fd5b614bf883888301898801613e17565b95810195909552506060810193909352506080818101519083015260a090810151908201529392505050565b5f60208284031215614c34575f80fd5b5051919050565b5f60208284031215614c4b575f80fd5b815160ff81168114611a42575f80fd5b634e487b7160e01b5f52601160045260245ffd5b60ff828116828216039081111561125b5761125b614c5b565b600181815b80851115614cc257815f1904821115614ca857614ca8614c5b565b80851615614cb557918102915b93841c9390800290614c8d565b509250929050565b5f82614cd85750600161125b565b81614ce457505f61125b565b8160018114614cfa5760028114614d0457614d20565b600191505061125b565b60ff841115614d1557614d15614c5b565b50506001821b61125b565b5060208310610133831016604e8410600b8410161715614d43575081810a61125b565b614d4d8383614c88565b805f1904821115614d6057614d60614c5b565b029392505050565b5f611a4260ff841683614cca565b634e487b7160e01b5f52601260045260245ffd5b5f82614da457634e487b7160e01b5f52601260045260245ffd5b500490565b808202811582820484141761125b5761125b614c5b565b8082018082111561125b5761125b614c5b565b968752602087019590955260408601939093526060850191909152608084015260a083015260c082015260e00190565b8181038181111561125b5761125b614c5b565b602081525f611a426020830184613e39565b634e487b7160e01b5f52603260045260245ffd5b5f61ffff808316818103614e5257614e52614c5b565b6001019392505050565b5f60018201614e6d57614e6d614c5b565b5060010190565b5f60808284031215614e84575f80fd5b614e8c613fba565b90508151815260208201516020820152604082015160408201526060820151606082015292915050565b80516003811061107e575f80fd5b80516005811061107e575f80fd5b5f60208284031215614ee2575f80fd5b604051602081016001600160401b0381118282101715614f0457614f04613f7e565b6040529151825250919050565b5f60c08284031215614f21575f80fd5b614f29613fdc565b90508151614f3681614095565b81526020820151614f4681614095565b8060208301525060408201516040820152606082015160608201526080820151608082015260a082015160a082015292915050565b5f82601f830112614f8a575f80fd5b81516020614f9a6140d383614073565b8083825260208201915060208460051b870101935086841115614fbb575f80fd5b602086015b8481101561411e578051614fd381614095565b8352918301918301614fc0565b5f60208284031215614ff0575f80fd5b81516001600160401b0380821115615006575f80fd5b90830190610280828603121561501a575f80fd5b615022614020565b61502c8684614e74565b815261503a60808401614eb6565b602082015261504b60a08401614ec4565b604082015261505d8660c08501614ed2565b606082015261506f8660e08501614f11565b60808201526150816101a08401614b01565b60a08201526150936101c08401614b01565b60c08201526150a56101e08401614b01565b60e0820152610200830151610100820152610220830151828111156150c8575f80fd5b6150d487828601614f7b565b610120830152506150e86102408401614b01565b6101408201526102609290920151610160830152509392505050565b805182526020810151602083015260408101516040830152606081015160608301525050565b5f815180845260208085019450602084015f5b838110156145965781516001600160a01b03168752958201959082019060010161513d565b8281526040602082015261517a604082018351615104565b5f602083015161518d60c08401826144b0565b5060408301516151a060e0840182614448565b5060608301516101006151b581850183519052565b60808581015180516001600160a01b0390811661012088810191909152602083015190911661014088015260408201516101608801526060820151610180880152918101516101a087015260a0908101516101c0870152860151925061521f6101e0860184613de2565b60c08601519250615234610200860184613de2565b60e08601519250615249610220860184613de2565b9085015161024085015284015161028061026085018190529091506152726102c085018361512a565b915061014085015161528682860182613de2565b50506101608401516102a0840152809150509392505050565b5f80604083850312156152b0575f80fd5b82516152bb8161468d565b602084015190925061443d81614095565b6080810161125b8284615104565b5f60608083016060845280875180835260808601915060808160051b87010192506020808a015f5b8381101561536557888603607f19018552815180516001600160a01b03168752838101516004811061533657615336613def565b878501526040908101519087018890526153528888018261455d565b9650509382019390820190600101615302565b50506153738188018a613de2565b50505083810360408501526153888186613e39565b979650505050505050565b634e487b7160e01b5f52600160045260245ffd5b602081525f611a42602083018461455d565b5f816153c7576153c7614c5b565b505f190190565b634e487b7160e01b5f52603160045260245ffd5b5f82516153f3818460208701613e17565b9190910192915050565b6001600160a01b03831681526040602082018190525f9061199290830184613e3956fe4c69624469616d6f6e644375743a204175746f20666163657420686173206e6f20636f6465c8fcad8db84d3cc18b4c41d551ea0ee66dd599cde068d998e57d5e09332c131c4c69624469616d6f6e644375743a2041646420666163657420686173206e6f20636f64654c69624469616d6f6e644375743a205f696e6974206164647265737320686173206e6f20636f646546756e6374696f6e206d7573742062652063616c6c6564207468726f75676820360894a13ba1a3210667c828492db98dca3e2076cc3735a920a3ca505d382bbc7f26b83ff96e1f2b6a682f133852f6798a09c465da95921460cefb38474024988be0079c531659141344cd1fd0a4f28419497f9722a3daafe3b4186f6b6457e0416464726573733a206c6f772d6c6576656c2064656c65676174652063616c6c206661696c65644c69624469616d6f6e644375743a205265706c61636520666163657420686173206e6f20636f6465a164736f6c6343000817000a","linkReferences":{"pkg/contracts/src/CVStrategy/ConvictionsUtils.sol":{"ConvictionsUtils":[{"start":6505,"length":20},{"start":6646,"length":20},{"start":8524,"length":20},{"start":12759,"length":20}]}}},"methodIdentifiers":{"DISPUTE_COOLDOWN_SEC()":"f5be3f7c","NATIVE()":"a0cf0aea","RULING_OPTIONS()":"626c47e8","activatePoints()":"814516ad","allocate(bytes,address)":"ef2920fc","arbitrableConfigs(uint256)":"41bb7605","calculateProposalConviction(uint256)":"60b0645a","calculateThreshold(uint256)":"59a5db8b","cancelProposal(uint256)":"e0a8f6f5","cloneNonce()":"33960459","collateralVault()":"0bece79c","connectSuperfluidGDA(address)":"924e6704","currentArbitrableConfigVersion()":"125fd1d9","cvParams()":"2506b870","deactivatePoints()":"1ddf1e23","deactivatePoints(address)":"6453d9c4","decreasePower(address,uint256)":"2ed04b2b","diamondCut((address,uint8,bytes4[])[],address,bytes)":"1f931c1c","disconnectSuperfluidGDA(address)":"c69271ec","disputeCount()":"a28889e1","disputeIdToProposalId(uint256)":"255ffb38","disputeProposal(uint256,string,bytes)":"b41596ec","distribute(address[],bytes,address)":"0a6f0ee9","editProposal(uint256,(uint256,string),address,uint256)":"141e3b38","getAllo()":"15cc481e","getArbitrableConfig()":"059351cd","getFacets()":"662ea47d","getMaxAmount()":"0ba95909","getPointSystem()":"c3292171","getPoolAmount()":"4ab4ba42","getPoolId()":"38fff2d0","getProposal(uint256)":"c7f758a8","getProposalStakedAmount(uint256)":"dc96ff2d","getProposalVoterStake(uint256,address)":"e0dd2c38","increasePower(address,uint256)":"782aadff","init(address,address,address)":"184b9559","init(address,string,address)":"60d5dedc","initialize(address)":"c4d66de8","initialize(uint256,bytes)":"edd146cc","isPaused()":"b187bd26","isPaused(bytes4)":"09b65e66","isPoolActive()":"df868ed3","owner()":"8da5cb5b","pause(bytes4,uint256)":"80c4a65f","pause(uint256)":"136439dd","pauseController()":"60b47789","pauseFacet()":"adaf157b","pausedSelectorUntil(bytes4)":"2d2ebbef","pausedUntil()":"da748b10","pointConfig()":"a47ff7e5","pointSystem()":"2dbd6fdd","proposalCounter()":"0c0512e9","proposalType()":"351d9f96","proposals(uint256)":"013cf08b","proxiableUUID()":"52d1902d","proxyOwner()":"025313a2","rebalance()":"7d7c2a1c","registerRecipient(bytes,address)":"2bbe0cae","registryCommunity()":"6003e414","renounceOwnership()":"715018a6","rule(uint256,uint256)":"311a6c56","setCollateralVaultTemplate(address)":"b0d3713a","setPauseController(address)":"1add1a0d","setPauseFacet(address)":"222a3a04","setPoolActive(bool)":"b5f620ce","setPoolParams((address,address,uint256,uint256,uint256,uint256),(uint256,uint256,uint256,uint256),uint256,address[],address[],address)":"d5b7cc54","setSybilScorer(address,uint256)":"3864d366","streamingRatePerSecond()":"94573cbb","superfluidGDA()":"1b36f56f","superfluidToken()":"05caa7f3","supportsInterface(bytes4)":"01ffc9a7","sybilScorer()":"b6c61f31","totalPointsActivated()":"aba9ffee","totalStaked()":"817b1cd2","totalVoterStakePct(address)":"5db64b99","transferOwnership(address)":"f2fde38b","unpause()":"3f4ba83a","unpause(bytes4)":"bac1e94b","updateProposalConviction(uint256)":"1aa91a9e","upgradeTo(address)":"3659cfe6","upgradeToAndCall(address,bytes)":"4f1ef286","voterStakedProposals(address,uint256)":"868c57b8","votingPowerRegistry()":"80fd91cd"},"storageLayout":{"storage":[{"astId":14099,"contract":"pkg/contracts/src/CVStrategy/CVStrategy.sol:CVStrategy","label":"_initialized","offset":0,"slot":"0","type":"t_uint8"},{"astId":14102,"contract":"pkg/contracts/src/CVStrategy/CVStrategy.sol:CVStrategy","label":"_initializing","offset":1,"slot":"0","type":"t_bool"},{"astId":14726,"contract":"pkg/contracts/src/CVStrategy/CVStrategy.sol:CVStrategy","label":"__gap","offset":0,"slot":"1","type":"t_array(t_uint256)50_storage"},{"astId":13891,"contract":"pkg/contracts/src/CVStrategy/CVStrategy.sol:CVStrategy","label":"_owner","offset":0,"slot":"51","type":"t_address"},{"astId":14011,"contract":"pkg/contracts/src/CVStrategy/CVStrategy.sol:CVStrategy","label":"__gap","offset":0,"slot":"52","type":"t_array(t_uint256)49_storage"},{"astId":46355,"contract":"pkg/contracts/src/CVStrategy/CVStrategy.sol:CVStrategy","label":"allo","offset":0,"slot":"101","type":"t_contract(IAllo)351"},{"astId":46357,"contract":"pkg/contracts/src/CVStrategy/CVStrategy.sol:CVStrategy","label":"strategyId","offset":0,"slot":"102","type":"t_bytes32"},{"astId":46359,"contract":"pkg/contracts/src/CVStrategy/CVStrategy.sol:CVStrategy","label":"poolActive","offset":0,"slot":"103","type":"t_bool"},{"astId":46361,"contract":"pkg/contracts/src/CVStrategy/CVStrategy.sol:CVStrategy","label":"poolId","offset":0,"slot":"104","type":"t_uint256"},{"astId":46363,"contract":"pkg/contracts/src/CVStrategy/CVStrategy.sol:CVStrategy","label":"poolAmount","offset":0,"slot":"105","type":"t_uint256"},{"astId":47059,"contract":"pkg/contracts/src/CVStrategy/CVStrategy.sol:CVStrategy","label":"collateralVaultTemplate","offset":0,"slot":"106","type":"t_address"},{"astId":47061,"contract":"pkg/contracts/src/CVStrategy/CVStrategy.sol:CVStrategy","label":"surpressStateMutabilityWarning","offset":0,"slot":"107","type":"t_uint256"},{"astId":47063,"contract":"pkg/contracts/src/CVStrategy/CVStrategy.sol:CVStrategy","label":"cloneNonce","offset":0,"slot":"108","type":"t_uint256"},{"astId":47065,"contract":"pkg/contracts/src/CVStrategy/CVStrategy.sol:CVStrategy","label":"disputeCount","offset":0,"slot":"109","type":"t_uint64"},{"astId":47067,"contract":"pkg/contracts/src/CVStrategy/CVStrategy.sol:CVStrategy","label":"proposalCounter","offset":0,"slot":"110","type":"t_uint256"},{"astId":47069,"contract":"pkg/contracts/src/CVStrategy/CVStrategy.sol:CVStrategy","label":"currentArbitrableConfigVersion","offset":0,"slot":"111","type":"t_uint256"},{"astId":47071,"contract":"pkg/contracts/src/CVStrategy/CVStrategy.sol:CVStrategy","label":"totalStaked","offset":0,"slot":"112","type":"t_uint256"},{"astId":47073,"contract":"pkg/contracts/src/CVStrategy/CVStrategy.sol:CVStrategy","label":"totalPointsActivated","offset":0,"slot":"113","type":"t_uint256"},{"astId":47076,"contract":"pkg/contracts/src/CVStrategy/CVStrategy.sol:CVStrategy","label":"cvParams","offset":0,"slot":"114","type":"t_struct(CVParams)49672_storage"},{"astId":47079,"contract":"pkg/contracts/src/CVStrategy/CVStrategy.sol:CVStrategy","label":"proposalType","offset":0,"slot":"118","type":"t_enum(ProposalType)49572"},{"astId":47082,"contract":"pkg/contracts/src/CVStrategy/CVStrategy.sol:CVStrategy","label":"pointSystem","offset":1,"slot":"118","type":"t_enum(PointSystem)49578"},{"astId":47085,"contract":"pkg/contracts/src/CVStrategy/CVStrategy.sol:CVStrategy","label":"pointConfig","offset":0,"slot":"119","type":"t_struct(PointSystemConfig)49649_storage"},{"astId":47088,"contract":"pkg/contracts/src/CVStrategy/CVStrategy.sol:CVStrategy","label":"registryCommunity","offset":0,"slot":"120","type":"t_contract(RegistryCommunity)52346"},{"astId":47091,"contract":"pkg/contracts/src/CVStrategy/CVStrategy.sol:CVStrategy","label":"collateralVault","offset":0,"slot":"121","type":"t_contract(ICollateralVault)53542"},{"astId":47094,"contract":"pkg/contracts/src/CVStrategy/CVStrategy.sol:CVStrategy","label":"sybilScorer","offset":0,"slot":"122","type":"t_contract(ISybilScorer)50274"},{"astId":47099,"contract":"pkg/contracts/src/CVStrategy/CVStrategy.sol:CVStrategy","label":"proposals","offset":0,"slot":"123","type":"t_mapping(t_uint256,t_struct(Proposal)49641_storage)"},{"astId":47103,"contract":"pkg/contracts/src/CVStrategy/CVStrategy.sol:CVStrategy","label":"totalVoterStakePct","offset":0,"slot":"124","type":"t_mapping(t_address,t_uint256)"},{"astId":47108,"contract":"pkg/contracts/src/CVStrategy/CVStrategy.sol:CVStrategy","label":"voterStakedProposals","offset":0,"slot":"125","type":"t_mapping(t_address,t_array(t_uint256)dyn_storage)"},{"astId":47112,"contract":"pkg/contracts/src/CVStrategy/CVStrategy.sol:CVStrategy","label":"disputeIdToProposalId","offset":0,"slot":"126","type":"t_mapping(t_uint256,t_uint256)"},{"astId":47117,"contract":"pkg/contracts/src/CVStrategy/CVStrategy.sol:CVStrategy","label":"arbitrableConfigs","offset":0,"slot":"127","type":"t_mapping(t_uint256,t_struct(ArbitrableConfig)49663_storage)"},{"astId":47120,"contract":"pkg/contracts/src/CVStrategy/CVStrategy.sol:CVStrategy","label":"superfluidToken","offset":0,"slot":"128","type":"t_contract(ISuperToken)40727"},{"astId":47123,"contract":"pkg/contracts/src/CVStrategy/CVStrategy.sol:CVStrategy","label":"superfluidGDA","offset":0,"slot":"129","type":"t_contract(ISuperfluidPool)39555"},{"astId":47125,"contract":"pkg/contracts/src/CVStrategy/CVStrategy.sol:CVStrategy","label":"streamingRatePerSecond","offset":0,"slot":"130","type":"t_uint256"},{"astId":47128,"contract":"pkg/contracts/src/CVStrategy/CVStrategy.sol:CVStrategy","label":"votingPowerRegistry","offset":0,"slot":"131","type":"t_contract(IVotingPowerRegistry)53746"},{"astId":47132,"contract":"pkg/contracts/src/CVStrategy/CVStrategy.sol:CVStrategy","label":"__gap","offset":0,"slot":"132","type":"t_array(t_uint256)46_storage"}],"types":{"t_address":{"encoding":"inplace","label":"address","numberOfBytes":"20"},"t_array(t_uint256)46_storage":{"encoding":"inplace","label":"uint256[46]","numberOfBytes":"1472","base":"t_uint256"},"t_array(t_uint256)49_storage":{"encoding":"inplace","label":"uint256[49]","numberOfBytes":"1568","base":"t_uint256"},"t_array(t_uint256)50_storage":{"encoding":"inplace","label":"uint256[50]","numberOfBytes":"1600","base":"t_uint256"},"t_array(t_uint256)dyn_storage":{"encoding":"dynamic_array","label":"uint256[]","numberOfBytes":"32","base":"t_uint256"},"t_bool":{"encoding":"inplace","label":"bool","numberOfBytes":"1"},"t_bytes32":{"encoding":"inplace","label":"bytes32","numberOfBytes":"32"},"t_contract(IAllo)351":{"encoding":"inplace","label":"contract IAllo","numberOfBytes":"20"},"t_contract(IArbitrator)53509":{"encoding":"inplace","label":"contract IArbitrator","numberOfBytes":"20"},"t_contract(ICollateralVault)53542":{"encoding":"inplace","label":"contract ICollateralVault","numberOfBytes":"20"},"t_contract(ISuperToken)40727":{"encoding":"inplace","label":"contract ISuperToken","numberOfBytes":"20"},"t_contract(ISuperfluidPool)39555":{"encoding":"inplace","label":"contract ISuperfluidPool","numberOfBytes":"20"},"t_contract(ISybilScorer)50274":{"encoding":"inplace","label":"contract ISybilScorer","numberOfBytes":"20"},"t_contract(IVotingPowerRegistry)53746":{"encoding":"inplace","label":"contract IVotingPowerRegistry","numberOfBytes":"20"},"t_contract(RegistryCommunity)52346":{"encoding":"inplace","label":"contract RegistryCommunity","numberOfBytes":"20"},"t_enum(PointSystem)49578":{"encoding":"inplace","label":"enum PointSystem","numberOfBytes":"1"},"t_enum(ProposalStatus)49598":{"encoding":"inplace","label":"enum ProposalStatus","numberOfBytes":"1"},"t_enum(ProposalType)49572":{"encoding":"inplace","label":"enum ProposalType","numberOfBytes":"1"},"t_mapping(t_address,t_array(t_uint256)dyn_storage)":{"encoding":"mapping","key":"t_address","label":"mapping(address => uint256[])","numberOfBytes":"32","value":"t_array(t_uint256)dyn_storage"},"t_mapping(t_address,t_uint256)":{"encoding":"mapping","key":"t_address","label":"mapping(address => uint256)","numberOfBytes":"32","value":"t_uint256"},"t_mapping(t_uint256,t_struct(ArbitrableConfig)49663_storage)":{"encoding":"mapping","key":"t_uint256","label":"mapping(uint256 => struct ArbitrableConfig)","numberOfBytes":"32","value":"t_struct(ArbitrableConfig)49663_storage"},"t_mapping(t_uint256,t_struct(Proposal)49641_storage)":{"encoding":"mapping","key":"t_uint256","label":"mapping(uint256 => struct Proposal)","numberOfBytes":"32","value":"t_struct(Proposal)49641_storage"},"t_mapping(t_uint256,t_uint256)":{"encoding":"mapping","key":"t_uint256","label":"mapping(uint256 => uint256)","numberOfBytes":"32","value":"t_uint256"},"t_string_storage":{"encoding":"bytes","label":"string","numberOfBytes":"32"},"t_struct(ArbitrableConfig)49663_storage":{"encoding":"inplace","label":"struct ArbitrableConfig","numberOfBytes":"192","members":[{"astId":49652,"contract":"pkg/contracts/src/CVStrategy/CVStrategy.sol:CVStrategy","label":"arbitrator","offset":0,"slot":"0","type":"t_contract(IArbitrator)53509"},{"astId":49654,"contract":"pkg/contracts/src/CVStrategy/CVStrategy.sol:CVStrategy","label":"tribunalSafe","offset":0,"slot":"1","type":"t_address"},{"astId":49656,"contract":"pkg/contracts/src/CVStrategy/CVStrategy.sol:CVStrategy","label":"submitterCollateralAmount","offset":0,"slot":"2","type":"t_uint256"},{"astId":49658,"contract":"pkg/contracts/src/CVStrategy/CVStrategy.sol:CVStrategy","label":"challengerCollateralAmount","offset":0,"slot":"3","type":"t_uint256"},{"astId":49660,"contract":"pkg/contracts/src/CVStrategy/CVStrategy.sol:CVStrategy","label":"defaultRuling","offset":0,"slot":"4","type":"t_uint256"},{"astId":49662,"contract":"pkg/contracts/src/CVStrategy/CVStrategy.sol:CVStrategy","label":"defaultRulingTimeout","offset":0,"slot":"5","type":"t_uint256"}]},"t_struct(CVParams)49672_storage":{"encoding":"inplace","label":"struct CVParams","numberOfBytes":"128","members":[{"astId":49665,"contract":"pkg/contracts/src/CVStrategy/CVStrategy.sol:CVStrategy","label":"maxRatio","offset":0,"slot":"0","type":"t_uint256"},{"astId":49667,"contract":"pkg/contracts/src/CVStrategy/CVStrategy.sol:CVStrategy","label":"weight","offset":0,"slot":"1","type":"t_uint256"},{"astId":49669,"contract":"pkg/contracts/src/CVStrategy/CVStrategy.sol:CVStrategy","label":"decay","offset":0,"slot":"2","type":"t_uint256"},{"astId":49671,"contract":"pkg/contracts/src/CVStrategy/CVStrategy.sol:CVStrategy","label":"minThresholdPoints","offset":0,"slot":"3","type":"t_uint256"}]},"t_struct(Metadata)806_storage":{"encoding":"inplace","label":"struct Metadata","numberOfBytes":"64","members":[{"astId":802,"contract":"pkg/contracts/src/CVStrategy/CVStrategy.sol:CVStrategy","label":"protocol","offset":0,"slot":"0","type":"t_uint256"},{"astId":805,"contract":"pkg/contracts/src/CVStrategy/CVStrategy.sol:CVStrategy","label":"pointer","offset":0,"slot":"1","type":"t_string_storage"}]},"t_struct(PointSystemConfig)49649_storage":{"encoding":"inplace","label":"struct PointSystemConfig","numberOfBytes":"32","members":[{"astId":49648,"contract":"pkg/contracts/src/CVStrategy/CVStrategy.sol:CVStrategy","label":"maxAmount","offset":0,"slot":"0","type":"t_uint256"}]},"t_struct(Proposal)49641_storage":{"encoding":"inplace","label":"struct Proposal","numberOfBytes":"576","members":[{"astId":49607,"contract":"pkg/contracts/src/CVStrategy/CVStrategy.sol:CVStrategy","label":"proposalId","offset":0,"slot":"0","type":"t_uint256"},{"astId":49609,"contract":"pkg/contracts/src/CVStrategy/CVStrategy.sol:CVStrategy","label":"requestedAmount","offset":0,"slot":"1","type":"t_uint256"},{"astId":49611,"contract":"pkg/contracts/src/CVStrategy/CVStrategy.sol:CVStrategy","label":"stakedAmount","offset":0,"slot":"2","type":"t_uint256"},{"astId":49613,"contract":"pkg/contracts/src/CVStrategy/CVStrategy.sol:CVStrategy","label":"convictionLast","offset":0,"slot":"3","type":"t_uint256"},{"astId":49615,"contract":"pkg/contracts/src/CVStrategy/CVStrategy.sol:CVStrategy","label":"beneficiary","offset":0,"slot":"4","type":"t_address"},{"astId":49617,"contract":"pkg/contracts/src/CVStrategy/CVStrategy.sol:CVStrategy","label":"submitter","offset":0,"slot":"5","type":"t_address"},{"astId":49619,"contract":"pkg/contracts/src/CVStrategy/CVStrategy.sol:CVStrategy","label":"requestedToken","offset":0,"slot":"6","type":"t_address"},{"astId":49621,"contract":"pkg/contracts/src/CVStrategy/CVStrategy.sol:CVStrategy","label":"blockLast","offset":0,"slot":"7","type":"t_uint256"},{"astId":49624,"contract":"pkg/contracts/src/CVStrategy/CVStrategy.sol:CVStrategy","label":"proposalStatus","offset":0,"slot":"8","type":"t_enum(ProposalStatus)49598"},{"astId":49628,"contract":"pkg/contracts/src/CVStrategy/CVStrategy.sol:CVStrategy","label":"voterStakedPoints","offset":0,"slot":"9","type":"t_mapping(t_address,t_uint256)"},{"astId":49631,"contract":"pkg/contracts/src/CVStrategy/CVStrategy.sol:CVStrategy","label":"metadata","offset":0,"slot":"10","type":"t_struct(Metadata)806_storage"},{"astId":49634,"contract":"pkg/contracts/src/CVStrategy/CVStrategy.sol:CVStrategy","label":"disputeInfo","offset":0,"slot":"12","type":"t_struct(ProposalDisputeInfo)49605_storage"},{"astId":49636,"contract":"pkg/contracts/src/CVStrategy/CVStrategy.sol:CVStrategy","label":"lastDisputeCompletion","offset":0,"slot":"15","type":"t_uint256"},{"astId":49638,"contract":"pkg/contracts/src/CVStrategy/CVStrategy.sol:CVStrategy","label":"arbitrableConfigVersion","offset":0,"slot":"16","type":"t_uint256"},{"astId":49640,"contract":"pkg/contracts/src/CVStrategy/CVStrategy.sol:CVStrategy","label":"creationTimestamp","offset":0,"slot":"17","type":"t_uint256"}]},"t_struct(ProposalDisputeInfo)49605_storage":{"encoding":"inplace","label":"struct ProposalDisputeInfo","numberOfBytes":"96","members":[{"astId":49600,"contract":"pkg/contracts/src/CVStrategy/CVStrategy.sol:CVStrategy","label":"disputeId","offset":0,"slot":"0","type":"t_uint256"},{"astId":49602,"contract":"pkg/contracts/src/CVStrategy/CVStrategy.sol:CVStrategy","label":"disputeTimestamp","offset":0,"slot":"1","type":"t_uint256"},{"astId":49604,"contract":"pkg/contracts/src/CVStrategy/CVStrategy.sol:CVStrategy","label":"challenger","offset":0,"slot":"2","type":"t_address"}]},"t_uint256":{"encoding":"inplace","label":"uint256","numberOfBytes":"32"},"t_uint64":{"encoding":"inplace","label":"uint64","numberOfBytes":"8"},"t_uint8":{"encoding":"inplace","label":"uint8","numberOfBytes":"1"}}},"id":101}