{"abi":[{"type":"fallback","stateMutability":"payable"},{"type":"receive","stateMutability":"payable"},{"type":"function","name":"DISPUTE_COOLDOWN_SEC","inputs":[],"outputs":[{"name":"","type":"uint256","internalType":"uint256"}],"stateMutability":"view"},{"type":"function","name":"NATIVE","inputs":[],"outputs":[{"name":"","type":"address","internalType":"address"}],"stateMutability":"view"},{"type":"function","name":"RULING_OPTIONS","inputs":[],"outputs":[{"name":"","type":"uint256","internalType":"uint256"}],"stateMutability":"view"},{"type":"function","name":"activatePoints","inputs":[],"outputs":[],"stateMutability":"nonpayable"},{"type":"function","name":"allocate","inputs":[{"name":"","type":"bytes","internalType":"bytes"},{"name":"","type":"address","internalType":"address"}],"outputs":[],"stateMutability":"payable"},{"type":"function","name":"arbitrableConfigs","inputs":[{"name":"","type":"uint256","internalType":"uint256"}],"outputs":[{"name":"arbitrator","type":"address","internalType":"contract IArbitrator"},{"name":"tribunalSafe","type":"address","internalType":"address"},{"name":"submitterCollateralAmount","type":"uint256","internalType":"uint256"},{"name":"challengerCollateralAmount","type":"uint256","internalType":"uint256"},{"name":"defaultRuling","type":"uint256","internalType":"uint256"},{"name":"defaultRulingTimeout","type":"uint256","internalType":"uint256"}],"stateMutability":"view"},{"type":"function","name":"calculateProposalConviction","inputs":[{"name":"_proposalId","type":"uint256","internalType":"uint256"}],"outputs":[{"name":"","type":"uint256","internalType":"uint256"}],"stateMutability":"view"},{"type":"function","name":"calculateThreshold","inputs":[{"name":"_requestedAmount","type":"uint256","internalType":"uint256"}],"outputs":[{"name":"","type":"uint256","internalType":"uint256"}],"stateMutability":"view"},{"type":"function","name":"cancelProposal","inputs":[{"name":"","type":"uint256","internalType":"uint256"}],"outputs":[],"stateMutability":"nonpayable"},{"type":"function","name":"cloneNonce","inputs":[],"outputs":[{"name":"","type":"uint256","internalType":"uint256"}],"stateMutability":"view"},{"type":"function","name":"collateralVault","inputs":[],"outputs":[{"name":"","type":"address","internalType":"contract ICollateralVault"}],"stateMutability":"view"},{"type":"function","name":"connectSuperfluidGDA","inputs":[{"name":"","type":"address","internalType":"address"}],"outputs":[],"stateMutability":"nonpayable"},{"type":"function","name":"currentArbitrableConfigVersion","inputs":[],"outputs":[{"name":"","type":"uint256","internalType":"uint256"}],"stateMutability":"view"},{"type":"function","name":"cvParams","inputs":[],"outputs":[{"name":"maxRatio","type":"uint256","internalType":"uint256"},{"name":"weight","type":"uint256","internalType":"uint256"},{"name":"decay","type":"uint256","internalType":"uint256"},{"name":"minThresholdPoints","type":"uint256","internalType":"uint256"}],"stateMutability":"view"},{"type":"function","name":"deactivatePoints","inputs":[],"outputs":[],"stateMutability":"nonpayable"},{"type":"function","name":"deactivatePoints","inputs":[{"name":"","type":"address","internalType":"address"}],"outputs":[],"stateMutability":"nonpayable"},{"type":"function","name":"decreasePower","inputs":[{"name":"","type":"address","internalType":"address"},{"name":"","type":"uint256","internalType":"uint256"}],"outputs":[{"name":"","type":"uint256","internalType":"uint256"}],"stateMutability":"nonpayable"},{"type":"function","name":"diamondCut","inputs":[{"name":"_diamondCut","type":"tuple[]","internalType":"struct IDiamond.FacetCut[]","components":[{"name":"facetAddress","type":"address","internalType":"address"},{"name":"action","type":"uint8","internalType":"enum IDiamond.FacetCutAction"},{"name":"functionSelectors","type":"bytes4[]","internalType":"bytes4[]"}]},{"name":"_init","type":"address","internalType":"address"},{"name":"_calldata","type":"bytes","internalType":"bytes"}],"outputs":[],"stateMutability":"nonpayable"},{"type":"function","name":"disconnectSuperfluidGDA","inputs":[{"name":"","type":"address","internalType":"address"}],"outputs":[],"stateMutability":"nonpayable"},{"type":"function","name":"disputeCount","inputs":[],"outputs":[{"name":"","type":"uint64","internalType":"uint64"}],"stateMutability":"view"},{"type":"function","name":"disputeIdToProposalId","inputs":[{"name":"","type":"uint256","internalType":"uint256"}],"outputs":[{"name":"","type":"uint256","internalType":"uint256"}],"stateMutability":"view"},{"type":"function","name":"disputeProposal","inputs":[{"name":"proposalId","type":"uint256","internalType":"uint256"},{"name":"context","type":"string","internalType":"string"},{"name":"_extraData","type":"bytes","internalType":"bytes"}],"outputs":[{"name":"","type":"uint256","internalType":"uint256"}],"stateMutability":"payable"},{"type":"function","name":"distribute","inputs":[{"name":"","type":"address[]","internalType":"address[]"},{"name":"","type":"bytes","internalType":"bytes"},{"name":"","type":"address","internalType":"address"}],"outputs":[],"stateMutability":"nonpayable"},{"type":"function","name":"editProposal","inputs":[{"name":"","type":"uint256","internalType":"uint256"},{"name":"","type":"tuple","internalType":"struct Metadata","components":[{"name":"protocol","type":"uint256","internalType":"uint256"},{"name":"pointer","type":"string","internalType":"string"}]},{"name":"","type":"address","internalType":"address"},{"name":"","type":"uint256","internalType":"uint256"}],"outputs":[],"stateMutability":"nonpayable"},{"type":"function","name":"getAllo","inputs":[],"outputs":[{"name":"","type":"address","internalType":"contract IAllo"}],"stateMutability":"view"},{"type":"function","name":"getArbitrableConfig","inputs":[],"outputs":[{"name":"arbitrator","type":"address","internalType":"contract IArbitrator"},{"name":"tribunalSafe","type":"address","internalType":"address"},{"name":"submitterCollateralAmount","type":"uint256","internalType":"uint256"},{"name":"challengerCollateralAmount","type":"uint256","internalType":"uint256"},{"name":"defaultRuling","type":"uint256","internalType":"uint256"},{"name":"defaultRulingTimeout","type":"uint256","internalType":"uint256"}],"stateMutability":"view"},{"type":"function","name":"getFacets","inputs":[],"outputs":[{"name":"facets_","type":"tuple[]","internalType":"struct IDiamondLoupe.Facet[]","components":[{"name":"facetAddress","type":"address","internalType":"address"},{"name":"functionSelectors","type":"bytes4[]","internalType":"bytes4[]"}]}],"stateMutability":"view"},{"type":"function","name":"getMaxAmount","inputs":[],"outputs":[{"name":"","type":"uint256","internalType":"uint256"}],"stateMutability":"view"},{"type":"function","name":"getPointSystem","inputs":[],"outputs":[{"name":"","type":"uint8","internalType":"enum PointSystem"}],"stateMutability":"view"},{"type":"function","name":"getPoolAmount","inputs":[],"outputs":[{"name":"","type":"uint256","internalType":"uint256"}],"stateMutability":"view"},{"type":"function","name":"getPoolId","inputs":[],"outputs":[{"name":"","type":"uint256","internalType":"uint256"}],"stateMutability":"view"},{"type":"function","name":"getProposal","inputs":[{"name":"_proposalId","type":"uint256","internalType":"uint256"}],"outputs":[{"name":"submitter","type":"address","internalType":"address"},{"name":"beneficiary","type":"address","internalType":"address"},{"name":"requestedToken","type":"address","internalType":"address"},{"name":"requestedAmount","type":"uint256","internalType":"uint256"},{"name":"stakedAmount","type":"uint256","internalType":"uint256"},{"name":"proposalStatus","type":"uint8","internalType":"enum ProposalStatus"},{"name":"blockLast","type":"uint256","internalType":"uint256"},{"name":"convictionLast","type":"uint256","internalType":"uint256"},{"name":"threshold","type":"uint256","internalType":"uint256"},{"name":"voterStakedPoints","type":"uint256","internalType":"uint256"},{"name":"arbitrableConfigVersion","type":"uint256","internalType":"uint256"},{"name":"protocol","type":"uint256","internalType":"uint256"}],"stateMutability":"view"},{"type":"function","name":"getProposalMetadataPointer","inputs":[{"name":"_proposalId","type":"uint256","internalType":"uint256"}],"outputs":[{"name":"","type":"string","internalType":"string"}],"stateMutability":"view"},{"type":"function","name":"getProposalStakedAmount","inputs":[{"name":"_proposalId","type":"uint256","internalType":"uint256"}],"outputs":[{"name":"","type":"uint256","internalType":"uint256"}],"stateMutability":"view"},{"type":"function","name":"getProposalVoterStake","inputs":[{"name":"_proposalId","type":"uint256","internalType":"uint256"},{"name":"_voter","type":"address","internalType":"address"}],"outputs":[{"name":"","type":"uint256","internalType":"uint256"}],"stateMutability":"view"},{"type":"function","name":"increasePower","inputs":[{"name":"","type":"address","internalType":"address"},{"name":"","type":"uint256","internalType":"uint256"}],"outputs":[{"name":"","type":"uint256","internalType":"uint256"}],"stateMutability":"nonpayable"},{"type":"function","name":"init","inputs":[{"name":"_allo","type":"address","internalType":"address"},{"name":"_collateralVaultTemplate","type":"address","internalType":"address"},{"name":"_owner","type":"address","internalType":"address"}],"outputs":[],"stateMutability":"nonpayable"},{"type":"function","name":"init","inputs":[{"name":"_allo","type":"address","internalType":"address"},{"name":"_name","type":"string","internalType":"string"},{"name":"_owner","type":"address","internalType":"address"}],"outputs":[],"stateMutability":"nonpayable"},{"type":"function","name":"initialize","inputs":[{"name":"initialOwner","type":"address","internalType":"address"}],"outputs":[],"stateMutability":"nonpayable"},{"type":"function","name":"initialize","inputs":[{"name":"_poolId","type":"uint256","internalType":"uint256"},{"name":"_data","type":"bytes","internalType":"bytes"}],"outputs":[],"stateMutability":"nonpayable"},{"type":"function","name":"isPaused","inputs":[{"name":"","type":"bytes4","internalType":"bytes4"}],"outputs":[{"name":"","type":"bool","internalType":"bool"}],"stateMutability":"nonpayable"},{"type":"function","name":"isPaused","inputs":[],"outputs":[{"name":"","type":"bool","internalType":"bool"}],"stateMutability":"nonpayable"},{"type":"function","name":"isPoolActive","inputs":[],"outputs":[{"name":"","type":"bool","internalType":"bool"}],"stateMutability":"view"},{"type":"function","name":"lastRebalanceAt","inputs":[],"outputs":[{"name":"","type":"uint256","internalType":"uint256"}],"stateMutability":"view"},{"type":"function","name":"owner","inputs":[],"outputs":[{"name":"","type":"address","internalType":"address"}],"stateMutability":"view"},{"type":"function","name":"pause","inputs":[{"name":"","type":"uint256","internalType":"uint256"}],"outputs":[],"stateMutability":"nonpayable"},{"type":"function","name":"pause","inputs":[{"name":"","type":"bytes4","internalType":"bytes4"},{"name":"","type":"uint256","internalType":"uint256"}],"outputs":[],"stateMutability":"nonpayable"},{"type":"function","name":"pauseController","inputs":[],"outputs":[{"name":"","type":"address","internalType":"address"}],"stateMutability":"nonpayable"},{"type":"function","name":"pauseFacet","inputs":[],"outputs":[{"name":"","type":"address","internalType":"address"}],"stateMutability":"nonpayable"},{"type":"function","name":"pausedSelectorUntil","inputs":[{"name":"","type":"bytes4","internalType":"bytes4"}],"outputs":[{"name":"","type":"uint256","internalType":"uint256"}],"stateMutability":"nonpayable"},{"type":"function","name":"pausedUntil","inputs":[],"outputs":[{"name":"","type":"uint256","internalType":"uint256"}],"stateMutability":"nonpayable"},{"type":"function","name":"pointConfig","inputs":[],"outputs":[{"name":"maxAmount","type":"uint256","internalType":"uint256"}],"stateMutability":"view"},{"type":"function","name":"pointSystem","inputs":[],"outputs":[{"name":"","type":"uint8","internalType":"enum PointSystem"}],"stateMutability":"view"},{"type":"function","name":"proposalCounter","inputs":[],"outputs":[{"name":"","type":"uint256","internalType":"uint256"}],"stateMutability":"view"},{"type":"function","name":"proposalType","inputs":[],"outputs":[{"name":"","type":"uint8","internalType":"enum ProposalType"}],"stateMutability":"view"},{"type":"function","name":"proxiableUUID","inputs":[],"outputs":[{"name":"","type":"bytes32","internalType":"bytes32"}],"stateMutability":"view"},{"type":"function","name":"proxyOwner","inputs":[],"outputs":[{"name":"","type":"address","internalType":"address"}],"stateMutability":"view"},{"type":"function","name":"rebalance","inputs":[],"outputs":[],"stateMutability":"nonpayable"},{"type":"function","name":"rebalanceCooldown","inputs":[],"outputs":[{"name":"","type":"uint256","internalType":"uint256"}],"stateMutability":"view"},{"type":"function","name":"registerRecipient","inputs":[{"name":"","type":"bytes","internalType":"bytes"},{"name":"","type":"address","internalType":"address"}],"outputs":[{"name":"","type":"address","internalType":"address"}],"stateMutability":"payable"},{"type":"function","name":"registryCommunity","inputs":[],"outputs":[{"name":"","type":"address","internalType":"contract RegistryCommunity"}],"stateMutability":"view"},{"type":"function","name":"renounceOwnership","inputs":[],"outputs":[],"stateMutability":"nonpayable"},{"type":"function","name":"rule","inputs":[{"name":"","type":"uint256","internalType":"uint256"},{"name":"","type":"uint256","internalType":"uint256"}],"outputs":[],"stateMutability":"nonpayable"},{"type":"function","name":"setCollateralVaultTemplate","inputs":[{"name":"template","type":"address","internalType":"address"}],"outputs":[],"stateMutability":"nonpayable"},{"type":"function","name":"setPauseController","inputs":[{"name":"","type":"address","internalType":"address"}],"outputs":[],"stateMutability":"nonpayable"},{"type":"function","name":"setPauseFacet","inputs":[{"name":"","type":"address","internalType":"address"}],"outputs":[],"stateMutability":"nonpayable"},{"type":"function","name":"setPoolActive","inputs":[{"name":"_active","type":"bool","internalType":"bool"}],"outputs":[],"stateMutability":"nonpayable"},{"type":"function","name":"setPoolParams","inputs":[{"name":"","type":"tuple","internalType":"struct ArbitrableConfig","components":[{"name":"arbitrator","type":"address","internalType":"contract IArbitrator"},{"name":"tribunalSafe","type":"address","internalType":"address"},{"name":"submitterCollateralAmount","type":"uint256","internalType":"uint256"},{"name":"challengerCollateralAmount","type":"uint256","internalType":"uint256"},{"name":"defaultRuling","type":"uint256","internalType":"uint256"},{"name":"defaultRulingTimeout","type":"uint256","internalType":"uint256"}]},{"name":"","type":"tuple","internalType":"struct CVParams","components":[{"name":"maxRatio","type":"uint256","internalType":"uint256"},{"name":"weight","type":"uint256","internalType":"uint256"},{"name":"decay","type":"uint256","internalType":"uint256"},{"name":"minThresholdPoints","type":"uint256","internalType":"uint256"}]},{"name":"","type":"uint256","internalType":"uint256"},{"name":"","type":"address[]","internalType":"address[]"},{"name":"","type":"address[]","internalType":"address[]"},{"name":"","type":"address","internalType":"address"},{"name":"","type":"uint256","internalType":"uint256"}],"outputs":[],"stateMutability":"nonpayable"},{"type":"function","name":"setPoolParams","inputs":[{"name":"","type":"tuple","internalType":"struct ArbitrableConfig","components":[{"name":"arbitrator","type":"address","internalType":"contract IArbitrator"},{"name":"tribunalSafe","type":"address","internalType":"address"},{"name":"submitterCollateralAmount","type":"uint256","internalType":"uint256"},{"name":"challengerCollateralAmount","type":"uint256","internalType":"uint256"},{"name":"defaultRuling","type":"uint256","internalType":"uint256"},{"name":"defaultRulingTimeout","type":"uint256","internalType":"uint256"}]},{"name":"","type":"tuple","internalType":"struct CVParams","components":[{"name":"maxRatio","type":"uint256","internalType":"uint256"},{"name":"weight","type":"uint256","internalType":"uint256"},{"name":"decay","type":"uint256","internalType":"uint256"},{"name":"minThresholdPoints","type":"uint256","internalType":"uint256"}]},{"name":"","type":"uint256","internalType":"uint256"},{"name":"","type":"address[]","internalType":"address[]"},{"name":"","type":"address[]","internalType":"address[]"},{"name":"","type":"address","internalType":"address"}],"outputs":[],"stateMutability":"nonpayable"},{"type":"function","name":"setSybilScorer","inputs":[{"name":"_sybilScorer","type":"address","internalType":"address"},{"name":"threshold","type":"uint256","internalType":"uint256"}],"outputs":[],"stateMutability":"nonpayable"},{"type":"function","name":"streamingEscrow","inputs":[{"name":"proposalId","type":"uint256","internalType":"uint256"}],"outputs":[{"name":"","type":"address","internalType":"address"}],"stateMutability":"view"},{"type":"function","name":"streamingRatePerSecond","inputs":[],"outputs":[{"name":"","type":"uint256","internalType":"uint256"}],"stateMutability":"view"},{"type":"function","name":"superfluidGDA","inputs":[],"outputs":[{"name":"","type":"address","internalType":"contract ISuperfluidPool"}],"stateMutability":"view"},{"type":"function","name":"superfluidToken","inputs":[],"outputs":[{"name":"","type":"address","internalType":"contract ISuperToken"}],"stateMutability":"view"},{"type":"function","name":"supportsInterface","inputs":[{"name":"interfaceId","type":"bytes4","internalType":"bytes4"}],"outputs":[{"name":"","type":"bool","internalType":"bool"}],"stateMutability":"view"},{"type":"function","name":"sybilScorer","inputs":[],"outputs":[{"name":"","type":"address","internalType":"contract ISybilScorer"}],"stateMutability":"view"},{"type":"function","name":"totalPointsActivated","inputs":[],"outputs":[{"name":"","type":"uint256","internalType":"uint256"}],"stateMutability":"view"},{"type":"function","name":"totalStaked","inputs":[],"outputs":[{"name":"","type":"uint256","internalType":"uint256"}],"stateMutability":"view"},{"type":"function","name":"totalVoterStakePct","inputs":[{"name":"","type":"address","internalType":"address"}],"outputs":[{"name":"","type":"uint256","internalType":"uint256"}],"stateMutability":"view"},{"type":"function","name":"transferOwnership","inputs":[{"name":"newOwner","type":"address","internalType":"address"}],"outputs":[],"stateMutability":"nonpayable"},{"type":"function","name":"unpause","inputs":[],"outputs":[],"stateMutability":"nonpayable"},{"type":"function","name":"unpause","inputs":[{"name":"","type":"bytes4","internalType":"bytes4"}],"outputs":[],"stateMutability":"nonpayable"},{"type":"function","name":"updateProposalConviction","inputs":[{"name":"proposalId","type":"uint256","internalType":"uint256"}],"outputs":[{"name":"","type":"uint256","internalType":"uint256"}],"stateMutability":"nonpayable"},{"type":"function","name":"upgradeTo","inputs":[{"name":"newImplementation","type":"address","internalType":"address"}],"outputs":[],"stateMutability":"nonpayable"},{"type":"function","name":"upgradeToAndCall","inputs":[{"name":"newImplementation","type":"address","internalType":"address"},{"name":"data","type":"bytes","internalType":"bytes"}],"outputs":[],"stateMutability":"payable"},{"type":"function","name":"voterStakedProposals","inputs":[{"name":"","type":"address","internalType":"address"},{"name":"","type":"uint256","internalType":"uint256"}],"outputs":[{"name":"","type":"uint256","internalType":"uint256"}],"stateMutability":"view"},{"type":"function","name":"votingPowerRegistry","inputs":[],"outputs":[{"name":"","type":"address","internalType":"contract IVotingPowerRegistry"}],"stateMutability":"view"},{"type":"event","name":"AdminChanged","inputs":[{"name":"previousAdmin","type":"address","indexed":false,"internalType":"address"},{"name":"newAdmin","type":"address","indexed":false,"internalType":"address"}],"anonymous":false},{"type":"event","name":"Allocated","inputs":[{"name":"recipientId","type":"address","indexed":true,"internalType":"address"},{"name":"amount","type":"uint256","indexed":false,"internalType":"uint256"},{"name":"token","type":"address","indexed":false,"internalType":"address"},{"name":"sender","type":"address","indexed":false,"internalType":"address"}],"anonymous":false},{"type":"event","name":"AllowlistMembersAdded","inputs":[{"name":"poolId","type":"uint256","indexed":false,"internalType":"uint256"},{"name":"members","type":"address[]","indexed":false,"internalType":"address[]"}],"anonymous":false},{"type":"event","name":"AllowlistMembersRemoved","inputs":[{"name":"poolId","type":"uint256","indexed":false,"internalType":"uint256"},{"name":"members","type":"address[]","indexed":false,"internalType":"address[]"}],"anonymous":false},{"type":"event","name":"ArbitrableConfigUpdated","inputs":[{"name":"currentArbitrableConfigVersion","type":"uint256","indexed":false,"internalType":"uint256"},{"name":"arbitrator","type":"address","indexed":false,"internalType":"contract IArbitrator"},{"name":"tribunalSafe","type":"address","indexed":false,"internalType":"address"},{"name":"submitterCollateralAmount","type":"uint256","indexed":false,"internalType":"uint256"},{"name":"challengerCollateralAmount","type":"uint256","indexed":false,"internalType":"uint256"},{"name":"defaultRuling","type":"uint256","indexed":false,"internalType":"uint256"},{"name":"defaultRulingTimeout","type":"uint256","indexed":false,"internalType":"uint256"}],"anonymous":false},{"type":"event","name":"BeaconUpgraded","inputs":[{"name":"beacon","type":"address","indexed":true,"internalType":"address"}],"anonymous":false},{"type":"event","name":"CVParamsUpdated","inputs":[{"name":"cvParams","type":"tuple","indexed":false,"internalType":"struct CVParams","components":[{"name":"maxRatio","type":"uint256","internalType":"uint256"},{"name":"weight","type":"uint256","internalType":"uint256"},{"name":"decay","type":"uint256","internalType":"uint256"},{"name":"minThresholdPoints","type":"uint256","internalType":"uint256"}]}],"anonymous":false},{"type":"event","name":"DiamondCut","inputs":[{"name":"_diamondCut","type":"tuple[]","indexed":false,"internalType":"struct IDiamond.FacetCut[]","components":[{"name":"facetAddress","type":"address","internalType":"address"},{"name":"action","type":"uint8","internalType":"enum IDiamond.FacetCutAction"},{"name":"functionSelectors","type":"bytes4[]","internalType":"bytes4[]"}]},{"name":"_init","type":"address","indexed":false,"internalType":"address"},{"name":"_calldata","type":"bytes","indexed":false,"internalType":"bytes"}],"anonymous":false},{"type":"event","name":"DisputeRequest","inputs":[{"name":"_arbitrator","type":"address","indexed":true,"internalType":"contract IArbitrator"},{"name":"_arbitrableDisputeID","type":"uint256","indexed":true,"internalType":"uint256"},{"name":"_externalDisputeID","type":"uint256","indexed":false,"internalType":"uint256"},{"name":"_templateId","type":"uint256","indexed":false,"internalType":"uint256"},{"name":"_templateUri","type":"string","indexed":false,"internalType":"string"}],"anonymous":false},{"type":"event","name":"Distributed","inputs":[{"name":"recipientId","type":"address","indexed":true,"internalType":"address"},{"name":"recipientAddress","type":"address","indexed":false,"internalType":"address"},{"name":"amount","type":"uint256","indexed":false,"internalType":"uint256"},{"name":"sender","type":"address","indexed":false,"internalType":"address"}],"anonymous":false},{"type":"event","name":"Distributed","inputs":[{"name":"proposalId","type":"uint256","indexed":false,"internalType":"uint256"},{"name":"beneficiary","type":"address","indexed":false,"internalType":"address"},{"name":"amount","type":"uint256","indexed":false,"internalType":"uint256"}],"anonymous":false},{"type":"event","name":"Initialized","inputs":[{"name":"poolId","type":"uint256","indexed":false,"internalType":"uint256"},{"name":"data","type":"bytes","indexed":false,"internalType":"bytes"}],"anonymous":false},{"type":"event","name":"Initialized","inputs":[{"name":"version","type":"uint8","indexed":false,"internalType":"uint8"}],"anonymous":false},{"type":"event","name":"InitializedCV","inputs":[{"name":"poolId","type":"uint256","indexed":false,"internalType":"uint256"},{"name":"data","type":"tuple","indexed":false,"internalType":"struct CVStrategyInitializeParamsV0_0","components":[{"name":"cvParams","type":"tuple","internalType":"struct CVParams","components":[{"name":"maxRatio","type":"uint256","internalType":"uint256"},{"name":"weight","type":"uint256","internalType":"uint256"},{"name":"decay","type":"uint256","internalType":"uint256"},{"name":"minThresholdPoints","type":"uint256","internalType":"uint256"}]},{"name":"proposalType","type":"uint8","internalType":"enum ProposalType"},{"name":"pointSystem","type":"uint8","internalType":"enum PointSystem"},{"name":"pointConfig","type":"tuple","internalType":"struct PointSystemConfig","components":[{"name":"maxAmount","type":"uint256","internalType":"uint256"}]},{"name":"arbitrableConfig","type":"tuple","internalType":"struct ArbitrableConfig","components":[{"name":"arbitrator","type":"address","internalType":"contract IArbitrator"},{"name":"tribunalSafe","type":"address","internalType":"address"},{"name":"submitterCollateralAmount","type":"uint256","internalType":"uint256"},{"name":"challengerCollateralAmount","type":"uint256","internalType":"uint256"},{"name":"defaultRuling","type":"uint256","internalType":"uint256"},{"name":"defaultRulingTimeout","type":"uint256","internalType":"uint256"}]},{"name":"registryCommunity","type":"address","internalType":"address"},{"name":"sybilScorer","type":"address","internalType":"address"}]}],"anonymous":false},{"type":"event","name":"InitializedCV2","inputs":[{"name":"poolId","type":"uint256","indexed":false,"internalType":"uint256"},{"name":"data","type":"tuple","indexed":false,"internalType":"struct CVStrategyInitializeParamsV0_1","components":[{"name":"cvParams","type":"tuple","internalType":"struct CVParams","components":[{"name":"maxRatio","type":"uint256","internalType":"uint256"},{"name":"weight","type":"uint256","internalType":"uint256"},{"name":"decay","type":"uint256","internalType":"uint256"},{"name":"minThresholdPoints","type":"uint256","internalType":"uint256"}]},{"name":"proposalType","type":"uint8","internalType":"enum ProposalType"},{"name":"pointSystem","type":"uint8","internalType":"enum PointSystem"},{"name":"pointConfig","type":"tuple","internalType":"struct PointSystemConfig","components":[{"name":"maxAmount","type":"uint256","internalType":"uint256"}]},{"name":"arbitrableConfig","type":"tuple","internalType":"struct ArbitrableConfig","components":[{"name":"arbitrator","type":"address","internalType":"contract IArbitrator"},{"name":"tribunalSafe","type":"address","internalType":"address"},{"name":"submitterCollateralAmount","type":"uint256","internalType":"uint256"},{"name":"challengerCollateralAmount","type":"uint256","internalType":"uint256"},{"name":"defaultRuling","type":"uint256","internalType":"uint256"},{"name":"defaultRulingTimeout","type":"uint256","internalType":"uint256"}]},{"name":"registryCommunity","type":"address","internalType":"address"},{"name":"sybilScorer","type":"address","internalType":"address"},{"name":"sybilScorerThreshold","type":"uint256","internalType":"uint256"},{"name":"initialAllowlist","type":"address[]","internalType":"address[]"}]}],"anonymous":false},{"type":"event","name":"InitializedCV3","inputs":[{"name":"poolId","type":"uint256","indexed":false,"internalType":"uint256"},{"name":"data","type":"tuple","indexed":false,"internalType":"struct CVStrategyInitializeParamsV0_2","components":[{"name":"cvParams","type":"tuple","internalType":"struct CVParams","components":[{"name":"maxRatio","type":"uint256","internalType":"uint256"},{"name":"weight","type":"uint256","internalType":"uint256"},{"name":"decay","type":"uint256","internalType":"uint256"},{"name":"minThresholdPoints","type":"uint256","internalType":"uint256"}]},{"name":"proposalType","type":"uint8","internalType":"enum ProposalType"},{"name":"pointSystem","type":"uint8","internalType":"enum PointSystem"},{"name":"pointConfig","type":"tuple","internalType":"struct PointSystemConfig","components":[{"name":"maxAmount","type":"uint256","internalType":"uint256"}]},{"name":"arbitrableConfig","type":"tuple","internalType":"struct ArbitrableConfig","components":[{"name":"arbitrator","type":"address","internalType":"contract IArbitrator"},{"name":"tribunalSafe","type":"address","internalType":"address"},{"name":"submitterCollateralAmount","type":"uint256","internalType":"uint256"},{"name":"challengerCollateralAmount","type":"uint256","internalType":"uint256"},{"name":"defaultRuling","type":"uint256","internalType":"uint256"},{"name":"defaultRulingTimeout","type":"uint256","internalType":"uint256"}]},{"name":"registryCommunity","type":"address","internalType":"address"},{"name":"sybilScorer","type":"address","internalType":"address"},{"name":"sybilScorerThreshold","type":"uint256","internalType":"uint256"},{"name":"initialAllowlist","type":"address[]","internalType":"address[]"},{"name":"superfluidToken","type":"address","internalType":"address"}]}],"anonymous":false},{"type":"event","name":"InitializedCV4","inputs":[{"name":"poolId","type":"uint256","indexed":false,"internalType":"uint256"},{"name":"data","type":"tuple","indexed":false,"internalType":"struct CVStrategyInitializeParamsV0_3","components":[{"name":"cvParams","type":"tuple","internalType":"struct CVParams","components":[{"name":"maxRatio","type":"uint256","internalType":"uint256"},{"name":"weight","type":"uint256","internalType":"uint256"},{"name":"decay","type":"uint256","internalType":"uint256"},{"name":"minThresholdPoints","type":"uint256","internalType":"uint256"}]},{"name":"proposalType","type":"uint8","internalType":"enum ProposalType"},{"name":"pointSystem","type":"uint8","internalType":"enum PointSystem"},{"name":"pointConfig","type":"tuple","internalType":"struct PointSystemConfig","components":[{"name":"maxAmount","type":"uint256","internalType":"uint256"}]},{"name":"arbitrableConfig","type":"tuple","internalType":"struct ArbitrableConfig","components":[{"name":"arbitrator","type":"address","internalType":"contract IArbitrator"},{"name":"tribunalSafe","type":"address","internalType":"address"},{"name":"submitterCollateralAmount","type":"uint256","internalType":"uint256"},{"name":"challengerCollateralAmount","type":"uint256","internalType":"uint256"},{"name":"defaultRuling","type":"uint256","internalType":"uint256"},{"name":"defaultRulingTimeout","type":"uint256","internalType":"uint256"}]},{"name":"registryCommunity","type":"address","internalType":"address"},{"name":"votingPowerRegistry","type":"address","internalType":"address"},{"name":"sybilScorer","type":"address","internalType":"address"},{"name":"sybilScorerThreshold","type":"uint256","internalType":"uint256"},{"name":"initialAllowlist","type":"address[]","internalType":"address[]"},{"name":"superfluidToken","type":"address","internalType":"address"},{"name":"streamingRatePerSecond","type":"uint256","internalType":"uint256"}]}],"anonymous":false},{"type":"event","name":"OwnershipTransferred","inputs":[{"name":"previousOwner","type":"address","indexed":true,"internalType":"address"},{"name":"newOwner","type":"address","indexed":true,"internalType":"address"}],"anonymous":false},{"type":"event","name":"OwnershipTransferred","inputs":[{"name":"previousOwner","type":"address","indexed":true,"internalType":"address"},{"name":"newOwner","type":"address","indexed":true,"internalType":"address"}],"anonymous":false},{"type":"event","name":"PointsDeactivated","inputs":[{"name":"member","type":"address","indexed":false,"internalType":"address"}],"anonymous":false},{"type":"event","name":"PoolActive","inputs":[{"name":"active","type":"bool","indexed":false,"internalType":"bool"}],"anonymous":false},{"type":"event","name":"PowerDecreased","inputs":[{"name":"member","type":"address","indexed":false,"internalType":"address"},{"name":"tokensUnStaked","type":"uint256","indexed":false,"internalType":"uint256"},{"name":"pointsToDecrease","type":"uint256","indexed":false,"internalType":"uint256"}],"anonymous":false},{"type":"event","name":"PowerIncreased","inputs":[{"name":"member","type":"address","indexed":false,"internalType":"address"},{"name":"tokensStaked","type":"uint256","indexed":false,"internalType":"uint256"},{"name":"pointsToIncrease","type":"uint256","indexed":false,"internalType":"uint256"}],"anonymous":false},{"type":"event","name":"ProposalCancelled","inputs":[{"name":"proposalId","type":"uint256","indexed":false,"internalType":"uint256"}],"anonymous":false},{"type":"event","name":"ProposalCreated","inputs":[{"name":"poolId","type":"uint256","indexed":false,"internalType":"uint256"},{"name":"proposalId","type":"uint256","indexed":false,"internalType":"uint256"}],"anonymous":false},{"type":"event","name":"ProposalCreated","inputs":[{"name":"poolId","type":"uint256","indexed":false,"internalType":"uint256"},{"name":"proposalId","type":"uint256","indexed":false,"internalType":"uint256"},{"name":"escrow","type":"address","indexed":false,"internalType":"address"}],"anonymous":false},{"type":"event","name":"ProposalDisputed","inputs":[{"name":"arbitrator","type":"address","indexed":false,"internalType":"contract IArbitrator"},{"name":"proposalId","type":"uint256","indexed":false,"internalType":"uint256"},{"name":"disputeId","type":"uint256","indexed":false,"internalType":"uint256"},{"name":"challenger","type":"address","indexed":false,"internalType":"address"},{"name":"context","type":"string","indexed":false,"internalType":"string"},{"name":"timestamp","type":"uint256","indexed":false,"internalType":"uint256"}],"anonymous":false},{"type":"event","name":"RebalanceCallerAuthorizationUpdated","inputs":[{"name":"caller","type":"address","indexed":true,"internalType":"address"},{"name":"authorized","type":"bool","indexed":false,"internalType":"bool"}],"anonymous":false},{"type":"event","name":"Registered","inputs":[{"name":"recipientId","type":"address","indexed":true,"internalType":"address"},{"name":"data","type":"bytes","indexed":false,"internalType":"bytes"},{"name":"sender","type":"address","indexed":false,"internalType":"address"}],"anonymous":false},{"type":"event","name":"Ruling","inputs":[{"name":"_arbitrator","type":"address","indexed":true,"internalType":"contract IArbitrator"},{"name":"_disputeID","type":"uint256","indexed":true,"internalType":"uint256"},{"name":"_ruling","type":"uint256","indexed":false,"internalType":"uint256"}],"anonymous":false},{"type":"event","name":"StreamMemberUnitUpdated","inputs":[{"name":"member","type":"address","indexed":true,"internalType":"address"},{"name":"newUnit","type":"int96","indexed":false,"internalType":"int96"}],"anonymous":false},{"type":"event","name":"StreamRateUpdated","inputs":[{"name":"gda","type":"address","indexed":true,"internalType":"address"},{"name":"flowRate","type":"uint256","indexed":false,"internalType":"uint256"}],"anonymous":false},{"type":"event","name":"SuperfluidGDAConnected","inputs":[{"name":"gda","type":"address","indexed":true,"internalType":"address"},{"name":"by","type":"address","indexed":true,"internalType":"address"}],"anonymous":false},{"type":"event","name":"SuperfluidGDADisconnected","inputs":[{"name":"gda","type":"address","indexed":true,"internalType":"address"},{"name":"by","type":"address","indexed":true,"internalType":"address"}],"anonymous":false},{"type":"event","name":"SuperfluidPoolCreated","inputs":[{"name":"gda","type":"address","indexed":true,"internalType":"address"},{"name":"superfluidToken","type":"address","indexed":true,"internalType":"address"},{"name":"maxStreamingRate","type":"uint256","indexed":false,"internalType":"uint256"}],"anonymous":false},{"type":"event","name":"SuperfluidTokenUpdated","inputs":[{"name":"superfluidToken","type":"address","indexed":false,"internalType":"address"}],"anonymous":false},{"type":"event","name":"SupportAdded","inputs":[{"name":"from","type":"address","indexed":false,"internalType":"address"},{"name":"proposalId","type":"uint256","indexed":false,"internalType":"uint256"},{"name":"amount","type":"uint256","indexed":false,"internalType":"uint256"},{"name":"totalStakedAmount","type":"uint256","indexed":false,"internalType":"uint256"},{"name":"convictionLast","type":"uint256","indexed":false,"internalType":"uint256"}],"anonymous":false},{"type":"event","name":"SybilScorerUpdated","inputs":[{"name":"sybilScorer","type":"address","indexed":false,"internalType":"address"}],"anonymous":false},{"type":"event","name":"Upgraded","inputs":[{"name":"implementation","type":"address","indexed":true,"internalType":"address"}],"anonymous":false},{"type":"error","name":"ALLOCATION_ACTIVE","inputs":[]},{"type":"error","name":"ALLOCATION_NOT_ACTIVE","inputs":[]},{"type":"error","name":"ALLOCATION_NOT_ENDED","inputs":[]},{"type":"error","name":"ALREADY_INITIALIZED","inputs":[]},{"type":"error","name":"AMOUNT_MISMATCH","inputs":[]},{"type":"error","name":"ANCHOR_ERROR","inputs":[]},{"type":"error","name":"ARRAY_MISMATCH","inputs":[]},{"type":"error","name":"AShouldBeUnderOrEqTwo_128","inputs":[]},{"type":"error","name":"AShouldBeUnderTwo_128","inputs":[]},{"type":"error","name":"AddressCannotBeZero","inputs":[{"name":"input","type":"address","internalType":"address"}]},{"type":"error","name":"AmountOverMaxRatio","inputs":[{"name":"requestedAmount","type":"uint256","internalType":"uint256"},{"name":"maxAllowed","type":"uint256","internalType":"uint256"},{"name":"poolAmount","type":"uint256","internalType":"uint256"}]},{"type":"error","name":"ArbitratorCannotBeZero","inputs":[]},{"type":"error","name":"ArbitratorNotAllowed","inputs":[{"name":"target","type":"address","internalType":"address"}]},{"type":"error","name":"BShouldBeLessTwo_128","inputs":[]},{"type":"error","name":"CallerNotOwner","inputs":[{"name":"_caller","type":"address","internalType":"address"},{"name":"_owner","type":"address","internalType":"address"}]},{"type":"error","name":"CannotAddFunctionToDiamondThatAlreadyExists","inputs":[{"name":"_selector","type":"bytes4","internalType":"bytes4"}]},{"type":"error","name":"CannotAddSelectorsToZeroAddress","inputs":[{"name":"_selectors","type":"bytes4[]","internalType":"bytes4[]"}]},{"type":"error","name":"CannotRemoveFunctionThatDoesNotExist","inputs":[{"name":"_selector","type":"bytes4","internalType":"bytes4"}]},{"type":"error","name":"CannotRemoveImmutableFunction","inputs":[{"name":"_selector","type":"bytes4","internalType":"bytes4"}]},{"type":"error","name":"CannotReplaceFunctionThatDoesNotExists","inputs":[{"name":"_selector","type":"bytes4","internalType":"bytes4"}]},{"type":"error","name":"CannotReplaceFunctionWithTheSameFunctionFromTheSameFacet","inputs":[{"name":"_selector","type":"bytes4","internalType":"bytes4"}]},{"type":"error","name":"CannotReplaceFunctionsFromFacetWithZeroAddress","inputs":[{"name":"_selectors","type":"bytes4[]","internalType":"bytes4[]"}]},{"type":"error","name":"CannotReplaceImmutableFunction","inputs":[{"name":"_selector","type":"bytes4","internalType":"bytes4"}]},{"type":"error","name":"ConvictionUnderMinimumThreshold","inputs":[]},{"type":"error","name":"DefaultRulingNotSet","inputs":[]},{"type":"error","name":"DisputeCooldownNotPassed","inputs":[{"name":"_proposalId","type":"uint256","internalType":"uint256"},{"name":"_remainingSec","type":"uint256","internalType":"uint256"}]},{"type":"error","name":"INVALID","inputs":[]},{"type":"error","name":"INVALID_ADDRESS","inputs":[]},{"type":"error","name":"INVALID_FEE","inputs":[]},{"type":"error","name":"INVALID_METADATA","inputs":[]},{"type":"error","name":"INVALID_REGISTRATION","inputs":[]},{"type":"error","name":"IS_APPROVED_STRATEGY","inputs":[]},{"type":"error","name":"InitializationFunctionReverted","inputs":[{"name":"_initializationContractAddress","type":"address","internalType":"address"},{"name":"_calldata","type":"bytes","internalType":"bytes"}]},{"type":"error","name":"InsufficientCollateral","inputs":[{"name":"sentAmount","type":"uint256","internalType":"uint256"},{"name":"requiredAmount","type":"uint256","internalType":"uint256"}]},{"type":"error","name":"MISMATCH","inputs":[]},{"type":"error","name":"NONCE_NOT_AVAILABLE","inputs":[]},{"type":"error","name":"NON_ZERO_VALUE","inputs":[]},{"type":"error","name":"NOT_APPROVED_STRATEGY","inputs":[]},{"type":"error","name":"NOT_ENOUGH_FUNDS","inputs":[]},{"type":"error","name":"NOT_IMPLEMENTED","inputs":[]},{"type":"error","name":"NOT_INITIALIZED","inputs":[]},{"type":"error","name":"NOT_PENDING_OWNER","inputs":[]},{"type":"error","name":"NoBytecodeAtAddress","inputs":[{"name":"_contractAddress","type":"address","internalType":"address"},{"name":"_message","type":"string","internalType":"string"}]},{"type":"error","name":"NoSelectorsProvidedForFacetForCut","inputs":[{"name":"_facetAddress","type":"address","internalType":"address"}]},{"type":"error","name":"NotEnoughPointsToSupport","inputs":[{"name":"pointsSupport","type":"uint256","internalType":"uint256"},{"name":"pointsBalance","type":"uint256","internalType":"uint256"}]},{"type":"error","name":"NotImplemented","inputs":[{"name":"selector","type":"bytes4","internalType":"bytes4"}]},{"type":"error","name":"OnlyArbitrator","inputs":[{"name":"sender","type":"address","internalType":"address"},{"name":"arbitrator","type":"address","internalType":"address"}]},{"type":"error","name":"OnlyCommunityAllowed","inputs":[{"name":"sender","type":"address","internalType":"address"},{"name":"registryCommunity","type":"address","internalType":"address"}]},{"type":"error","name":"OnlyCouncilSafe","inputs":[{"name":"sender","type":"address","internalType":"address"},{"name":"councilSafe","type":"address","internalType":"address"},{"name":"owner","type":"address","internalType":"address"}]},{"type":"error","name":"OnlyCouncilSafeOrMember","inputs":[{"name":"sender","type":"address","internalType":"address"},{"name":"councilSafe","type":"address","internalType":"address"}]},{"type":"error","name":"POOL_ACTIVE","inputs":[]},{"type":"error","name":"POOL_INACTIVE","inputs":[]},{"type":"error","name":"PoolAmountNotEnough","inputs":[{"name":"_proposalId","type":"uint256","internalType":"uint256"},{"name":"_requestedAmount","type":"uint256","internalType":"uint256"},{"name":"_poolAmount","type":"uint256","internalType":"uint256"}]},{"type":"error","name":"PoolIsEmpty","inputs":[{"name":"poolAmount","type":"uint256","internalType":"uint256"}]},{"type":"error","name":"ProposalDataIsEmpty","inputs":[]},{"type":"error","name":"ProposalIdCannotBeZero","inputs":[]},{"type":"error","name":"ProposalInvalidForAllocation","inputs":[{"name":"_proposalId","type":"uint256","internalType":"uint256"},{"name":"_proposalStatus","type":"uint8","internalType":"enum ProposalStatus"}]},{"type":"error","name":"ProposalNotActive","inputs":[{"name":"_proposalId","type":"uint256","internalType":"uint256"}]},{"type":"error","name":"ProposalNotDisputed","inputs":[{"name":"_proposalId","type":"uint256","internalType":"uint256"}]},{"type":"error","name":"ProposalNotInList","inputs":[{"name":"_proposalId","type":"uint256","internalType":"uint256"}]},{"type":"error","name":"ProposalSupportDuplicated","inputs":[{"name":"_proposalId","type":"uint256","internalType":"uint256"},{"name":"index","type":"uint256","internalType":"uint256"}]},{"type":"error","name":"RECIPIENT_ALREADY_ACCEPTED","inputs":[]},{"type":"error","name":"RECIPIENT_ERROR","inputs":[{"name":"recipientId","type":"address","internalType":"address"}]},{"type":"error","name":"RECIPIENT_NOT_ACCEPTED","inputs":[]},{"type":"error","name":"REGISTRATION_ACTIVE","inputs":[]},{"type":"error","name":"REGISTRATION_NOT_ACTIVE","inputs":[]},{"type":"error","name":"RebalanceCooldownActive","inputs":[{"name":"secondsRemaining","type":"uint256","internalType":"uint256"}]},{"type":"error","name":"RegistryCannotBeZero","inputs":[{"name":"registry","type":"address","internalType":"address"}]},{"type":"error","name":"RegistryCommunityCannotBeZero","inputs":[{"name":"registry","type":"address","internalType":"address"}]},{"type":"error","name":"RemoveFacetAddressMustBeZeroAddress","inputs":[{"name":"_facetAddress","type":"address","internalType":"address"}]},{"type":"error","name":"StrategyFunctionDoesNotExist","inputs":[{"name":"selector","type":"bytes4","internalType":"bytes4"}]},{"type":"error","name":"StrategyPaused","inputs":[{"name":"controller","type":"address","internalType":"address"}]},{"type":"error","name":"StrategySelectorPaused","inputs":[{"name":"selector","type":"bytes4","internalType":"bytes4"},{"name":"controller","type":"address","internalType":"address"}]},{"type":"error","name":"SuperfluidPoolCreationFailed","inputs":[]},{"type":"error","name":"SupportUnderflow","inputs":[{"name":"_support","type":"uint256","internalType":"uint256"},{"name":"_delta","type":"int256","internalType":"int256"},{"name":"_result","type":"int256","internalType":"int256"}]},{"type":"error","name":"SybilScorerNotAllowed","inputs":[{"name":"target","type":"address","internalType":"address"}]},{"type":"error","name":"TokenCannotBeZero","inputs":[{"name":"token","type":"address","internalType":"address"}]},{"type":"error","name":"TokenNotAllowed","inputs":[{"name":"token","type":"address","internalType":"address"}]},{"type":"error","name":"UNAUTHORIZED","inputs":[]},{"type":"error","name":"UserCannotBeZero","inputs":[{"name":"user","type":"address","internalType":"address"}]},{"type":"error","name":"UserCannotExecuteAction","inputs":[{"name":"sender","type":"address","internalType":"address"}]},{"type":"error","name":"UserIsInactive","inputs":[{"name":"user","type":"address","internalType":"address"}]},{"type":"error","name":"UserNotInRegistry","inputs":[{"name":"user","type":"address","internalType":"address"},{"name":"registry","type":"address","internalType":"address"}]},{"type":"error","name":"ZERO_ADDRESS","inputs":[]}],"bytecode":{"object":"0x60a06040523060805234801562000014575f80fd5b506200001f62000025565b620000e3565b5f54610100900460ff1615620000915760405162461bcd60e51b815260206004820152602760248201527f496e697469616c697a61626c653a20636f6e747261637420697320696e697469604482015266616c697a696e6760c81b606482015260840160405180910390fd5b5f5460ff90811614620000e1575f805460ff191660ff9081179091556040519081527f7f26b83ff96e1f2b6a682f133852f6798a09c465da95921460cefb38474024989060200160405180910390a15b565b6080516159b5620001185f395f818161126f015281816112af0152818161177e015281816117be015261183501526159b55ff3fe6080604052600436106103d3575f3560e01c806301ffc9a714610476578063025313a2146104bb578063059351cd146104dc57806305caa7f31461056757806309b65e66146105865780630a6f0ee9146105a55780630ba95909146105c45780630bece79c146105e25780630c0512e914610601578063125fd1d914610616578063136439dd1461062b578063141e3b381461064a57806315cc481e14610669578063184b9559146106865780631aa91a9e146106a55780631add1a0d146106c45780631b36f56f146106de5780631ddf1e23146106fd5780631f931c1c14610711578063222a3a04146106c45780632506b87014610730578063255ffb38146107625780632bbe0cae1461078d5780632cea13f9146107a05780632d2ebbef146107b45780632dbd6fdd146107ce5780632ed04b2b146107f9578063311a6c56146108135780633396045914610832578063351d9f96146108475780633587c79b1461086d5780633659cfe6146108995780633864d366146108b857806338fff2d0146108d75780633f4ba83a146106fd57806341bb7605146108eb5780634ab4ba42146109465780634f1ef2861461095a57806352d1902d1461096d57806359a5db8b146109815780635db64b99146109a05780636003e414146109cb57806360b0645a146109ea57806360b4778914610a0957806360d5dedc14610a1d578063626c47e814610a3c5780636453d9c4146106c4578063662ea47d14610a50578063715018a614610a71578063782aadff146107f95780637d7c2a1c146106fd57806380c4a65f14610a8557806380fd91cd14610a9f578063814516ad146106fd578063817b1cd214610abe578063868c57b814610ad35780638da5cb5b14610af2578063924e6704146106c457806394573cbb14610b06578063a0cf0aea14610b1b578063a28889e114610b42578063a47ff7e514610b79578063aba9ffee14610b8f578063adaf157b14610a09578063b04b5b2614610ba4578063b0d3713a14610bc3578063b187bd2614610be2578063b3de272d14610bf6578063b41596ec14610c0a578063b5f620ce14610c1d578063b6c61f3114610c3c578063bac1e94b14610c5b578063c329217114610c75578063c4d66de814610c91578063c69271ec146106c4578063c6cdc98014610cb0578063c7f758a814610ccf578063d5b7cc5414610d06578063da748b1014610d25578063dc96ff2d14610d39578063df868ed314610d67578063e0a8f6f51461062b578063e0dd2c3814610d7b578063edd146cc14610d9a578063ef2920fc14610db9578063f2fde38b14610dc7578063f5be3f7c14610de6576103da565b366103da57005b5f80356001600160e01b03191681525f8051602061586e833981519152602081905260409091205481906001600160a01b031680610441575f356001600160e01b03191660405163335ed20560e11b815260040161043891906141fb565b60405180910390fd5b6104565f356001600160e01b03191682610dfb565b365f80375f80365f845af43d5f803e808015610470573d5ff35b3d5ffd5b005b348015610481575f80fd5b506104a6610490366004614227565b6001600160e01b0319166301ffc9a760e01b1490565b60405190151581526020015b60405180910390f35b3480156104c6575f80fd5b506104cf610fa4565b6040516104b2919061424d565b3480156104e7575f80fd5b5061052f606f545f908152607f60205260409020805460018201546002830154600384015460048501546005909501546001600160a01b039485169694909316949193909290565b604080516001600160a01b039788168152969095166020870152938501929092526060840152608083015260a082015260c0016104b2565b348015610572575f80fd5b506080546104cf906001600160a01b031681565b348015610591575f80fd5b506104a66105a0366004614227565b610fbc565b3480156105b0575f80fd5b506104746105bf36600461447f565b610fca565b3480156105cf575f80fd5b506077545b6040519081526020016104b2565b3480156105ed575f80fd5b506079546104cf906001600160a01b031681565b34801561060c575f80fd5b506105d4606e5481565b348015610621575f80fd5b506105d4606f5481565b348015610636575f80fd5b506104746106453660046144f1565b610fd2565b348015610655575f80fd5b50610474610664366004614508565b610fdd565b348015610674575f80fd5b506065546001600160a01b03166104cf565b348015610691575f80fd5b506104746106a036600461459c565b610feb565b3480156106b0575f80fd5b506105d46106bf3660046144f1565b6110ee565b3480156106cf575f80fd5b506104746106453660046145d9565b3480156106e9575f80fd5b506081546104cf906001600160a01b031681565b348015610708575f80fd5b50610474611137565b34801561071c575f80fd5b5061047461072b366004614631565b611141565b34801561073b575f80fd5b506072546073546074546075546107529392919084565b6040516104b294939291906146d9565b34801561076d575f80fd5b506105d461077c3660046144f1565b607e6020525f908152604090205481565b6104cf61079b3660046146f4565b611199565b3480156107ab575f80fd5b506105d46111a8565b3480156107bf575f80fd5b506105d46105a0366004614227565b3480156107d9575f80fd5b506076546107ec90610100900460ff1681565b6040516104b2919061476a565b348015610804575f80fd5b506105d461079b366004614778565b34801561081e575f80fd5b5061047461082d3660046147a2565b6111b7565b34801561083d575f80fd5b506105d4606c5481565b348015610852575f80fd5b506076546108609060ff1681565b6040516104b291906147d2565b348015610878575f80fd5b5061088c6108873660046144f1565b6111c3565b6040516104b2919061482d565b3480156108a4575f80fd5b506104746108b33660046145d9565b611265565b3480156108c3575f80fd5b506104746108d2366004614778565b611329565b3480156108e2575f80fd5b506068546105d4565b3480156108f6575f80fd5b5061052f6109053660046144f1565b607f6020525f90815260409020805460018201546002830154600384015460048501546005909501546001600160a01b039485169593909416939192909186565b348015610951575f80fd5b506105d46114f5565b61047461096836600461483f565b611774565b348015610978575f80fd5b506105d4611829565b34801561098c575f80fd5b506105d461099b3660046144f1565b6118d6565b3480156109ab575f80fd5b506105d46109ba3660046145d9565b607c6020525f908152604090205481565b3480156109d6575f80fd5b506078546104cf906001600160a01b031681565b3480156109f5575f80fd5b506105d4610a043660046144f1565b61199b565b348015610a14575f80fd5b506104cf611a5f565b348015610a28575f80fd5b50610474610a3736600461488b565b611a68565b348015610a47575f80fd5b506105d4600381565b348015610a5b575f80fd5b50610a64611b27565b6040516104b29190614912565b348015610a7c575f80fd5b50610474611ec6565b348015610a90575f80fd5b5061047461082d36600461498f565b348015610aaa575f80fd5b506083546104cf906001600160a01b031681565b348015610ac9575f80fd5b506105d460705481565b348015610ade575f80fd5b506105d4610aed366004614778565b611ed7565b348015610afd575f80fd5b506104cf611f02565b348015610b11575f80fd5b506105d460825481565b348015610b26575f80fd5b506104cf73eeeeeeeeeeeeeeeeeeeeeeeeeeeeeeeeeeeeeeee81565b348015610b4d575f80fd5b50606d54610b61906001600160401b031681565b6040516001600160401b0390911681526020016104b2565b348015610b84575f80fd5b506077546105d49081565b348015610b9a575f80fd5b506105d460715481565b348015610baf575f80fd5b506104cf610bbe3660046144f1565b611f90565b348015610bce575f80fd5b50610474610bdd3660046145d9565b611fb5565b348015610bed575f80fd5b506104a6611a5f565b348015610c01575f80fd5b506105d4611fdf565b6105d4610c183660046149a9565b611ff1565b348015610c28575f80fd5b50610474610c37366004614a0b565b612003565b348015610c47575f80fd5b50607a546104cf906001600160a01b031681565b348015610c66575f80fd5b50610474610645366004614227565b348015610c80575f80fd5b50607654610100900460ff166107ec565b348015610c9c575f80fd5b50610474610cab3660046145d9565b61200c565b348015610cbb575f80fd5b50610474610cca366004614ad2565b6120be565b348015610cda575f80fd5b50610cee610ce93660046144f1565b6120cf565b6040516104b29c9b9a99989796959493929190614b7f565b348015610d11575f80fd5b50610474610d20366004614bfb565b61229d565b348015610d30575f80fd5b506105d4611a5f565b348015610d44575f80fd5b506105d4610d533660046144f1565b5f908152607b602052604090206002015490565b348015610d72575f80fd5b506104a66122ad565b348015610d86575f80fd5b506105d4610d95366004614c9d565b6122ba565b348015610da5575f80fd5b50610474610db4366004614cc0565b6122e4565b61047461082d3660046146f4565b348015610dd2575f80fd5b50610474610de13660046145d9565b6128da565b348015610df1575f80fd5b506105d4611c2081565b610e03612950565b600101546001600160a01b0390811690821603610e1e575050565b610e2782612974565b15610e30575050565b5f610e39612950565b546001600160a01b0316905080610e4f57505050565b806001600160a01b03163b5f03610e6557505050565b604051635b14f18360e01b81526001600160a01b03821690635b14f18390610e9190309060040161424d565b602060405180830381865afa158015610eac573d5f803e3d5ffd5b505050506040513d601f19601f82011682018060405250810190610ed09190614ced565b15610ef0578060405163c2897a3760e01b8152600401610438919061424d565b6040516374b896f160e01b81523060048201526001600160e01b0319841660248201526001600160a01b038216906374b896f190604401602060405180830381865afa158015610f42573d5f803e3d5ffd5b505050506040513d601f19601f82011682018060405250810190610f669190614ced565b15610f9f5760405163a9774bf960e01b81526001600160e01b0319841660048201526001600160a01b0382166024820152604401610438565b505050565b5f610fb76033546001600160a01b031690565b905090565b5f610fc56103da565b919050565b610f9f6103da565b610fda6103da565b50565b610fe56103da565b50505050565b5f54610100900460ff161580801561100957505f54600160ff909116105b80611029575061101830612ab7565b15801561102957505f5460ff166001145b6110455760405162461bcd60e51b815260040161043890614d08565b5f805460ff191660011790558015611066575f805461ff0019166101001790555b611093846040518060400160405280600a8152602001694356537472617465677960b01b81525084611a68565b61109c82612ac6565b606a80546001600160a01b0319166001600160a01b0385161790558015610fe5575f805461ff0019169055604051600181525f8051602061591a8339815191529060200160405180910390a150505050565b5f818152607b602052604081208054831461111f5760405163c1d17bef60e01b815260048101849052602401610438565b61112d818260020154612b11565b6003015492915050565b61113f6103da565b565b611149612b4a565b6111926111568587614d56565b8484848080601f0160208091040260200160405190810160405280939291908181526020018383808284375f92019190915250612bcb92505050565b5050505050565b5f6111a26103da565b92915050565b5f6111b1612d34565b54919050565b6111bf6103da565b5050565b5f818152607b60205260409020600b018054606091906111e290614e76565b80601f016020809104026020016040519081016040528092919081815260200182805461120e90614e76565b80156112595780601f1061123057610100808354040283529160200191611259565b820191905f5260205f20905b81548152906001019060200180831161123c57829003601f168201915b50505050509050919050565b6001600160a01b037f00000000000000000000000000000000000000000000000000000000000000001630036112ad5760405162461bcd60e51b815260040161043890614eae565b7f00000000000000000000000000000000000000000000000000000000000000006001600160a01b03166112df612d58565b6001600160a01b0316146113055760405162461bcd60e51b815260040161043890614ee7565b61130e81612d73565b604080515f80825260208201909252610fda91839190612dbf565b60785f9054906101000a90046001600160a01b03166001600160a01b0316636c53db9a6040518163ffffffff1660e01b8152600401602060405180830381865afa158015611379573d5f803e3d5ffd5b505050506040513d601f19601f8201168201806040525081019061139d9190614f20565b6001600160a01b0316336001600160a01b0316141580156113d757506113c1611f02565b6001600160a01b0316336001600160a01b031614155b156114845760785460408051633629edcd60e11b8152905133926001600160a01b031691636c53db9a9160048083019260209291908290030181865afa158015611423573d5f803e3d5ffd5b505050506040513d601f19601f820116820180604052508101906114479190614f20565b61144f611f02565b60405163e1b9c46960e01b81526001600160a01b03938416600482015291831660248301529091166044820152606401610438565b61148d82612f29565b61149682612f52565b607a80546001600160a01b0319166001600160a01b0384161790556114ba81613060565b7f2667a0cd99dbc787d1d2596efe938cf43dfe83e8b8ddeb70e28007c09ff33485826040516114e9919061424d565b60405180910390a15050565b60655460685460405163068bcd8d60e01b81525f9283926001600160a01b039091169163068bcd8d9161152e9160040190815260200190565b5f60405180830381865afa158015611548573d5f803e3d5ffd5b505050506040513d5f823e601f3d908101601f1916820160405261156f9190810190614f46565b60400151905073eeeeeeeeeeeeeeeeeeeeeeeeeeeeeeeeeeeeeeed196001600160a01b038216016115a1574791505090565b6040516370a0823160e01b81525f906001600160a01b038316906370a08231906115cf90309060040161424d565b602060405180830381865afa1580156115ea573d5f803e3d5ffd5b505050506040513d601f19601f8201168201806040525081019061160e919061505e565b6080549091505f906001600160a01b031615611698576080546040516370a0823160e01b81526001600160a01b03909116906370a082319061165490309060040161424d565b602060405180830381865afa15801561166f573d5f803e3d5ffd5b505050506040513d601f19601f82011682018060405250810190611693919061505e565b61169a565b5f5b90505f836001600160a01b031663313ce5676040518163ffffffff1660e01b8152600401602060405180830381865afa1580156116d9573d5f803e3d5ffd5b505050506040513d601f19601f820116820180604052508101906116fd9190615075565b905060128160ff161015611732576117168160126150a9565b61172190600a6151a2565b61172b90836151c4565b9150611761565b60128160ff161115611761576117496012826150a9565b61175490600a6151a2565b61175e90836151e3565b91505b61176b82846151fa565b94505050505090565b6001600160a01b037f00000000000000000000000000000000000000000000000000000000000000001630036117bc5760405162461bcd60e51b815260040161043890614eae565b7f00000000000000000000000000000000000000000000000000000000000000006001600160a01b03166117ee612d58565b6001600160a01b0316146118145760405162461bcd60e51b815260040161043890614ee7565b61181d82612d73565b6111bf82826001612dbf565b5f306001600160a01b037f000000000000000000000000000000000000000000000000000000000000000016146118c35760405162461bcd60e51b815260206004820152603860248201527f555550535570677261646561626c653a206d757374206e6f742062652063616c6044820152771b1959081d1a1c9bdd59da0819195b1959d85d1958d85b1b60421b6064820152608401610438565b505f805160206158fa8339815191525b90565b5f806118e06114f5565b90505f629896808260725f01546118f791906151e3565b61190191906151c4565b6071546074546073546072546075546040516314eff2dd60e11b815295965073__$f1b7c69ba751c396eddc93d3bbc5414fd9$__956329dfe5ba95611954958c958b95929491939092919060040161520d565b602060405180830381865af415801561196f573d5f803e3d5ffd5b505050506040513d601f19601f82011682018060405250810190611993919061505e565b949350505050565b5f818152607b602052604081206119b061313d565b6119be576003015492915050565b73__$f1b7c69ba751c396eddc93d3bbc5414fd9$__63010dfe648260070154436119e8919061523d565b600384015460028501546074546040516001600160e01b031960e087901b168152611a1994939291906004016146d9565b602060405180830381865af4158015611a34573d5f803e3d5ffd5b505050506040513d601f19601f82011682018060405250810190611a58919061505e565b9392505050565b5f6118d36103da565b5f54610100900460ff16611ad25760405162461bcd60e51b815260206004820152602b60248201527f496e697469616c697a61626c653a20636f6e7472616374206973206e6f74206960448201526a6e697469616c697a696e6760a81b6064820152608401610438565b611adb8161200c565b606580546001600160a01b0319166001600160a01b038516179055604051611b0790839060200161482d565b60408051601f198184030181529190528051602090910120606655505050565b60605f611b32613239565b6001810154909150806001600160401b03811115611b5257611b52614261565b604051908082528060200260200182016040528015611b9757816020015b604080518082019091525f815260606020820152815260200190600190039081611b705790505b5092505f816001600160401b03811115611bb357611bb3614261565b604051908082528060200260200182016040528015611bdc578160200160208202803683370190505b5090505f805b83811015611e61575f856001018281548110611c0057611c00615250565b5f918252602080832060088304015460079092166004026101000a90910460e01b6001600160e01b0319811683529088905260408220549092506001600160a01b031690805b85811015611d3157826001600160a01b03168a8281518110611c6a57611c6a615250565b60200260200101515f01516001600160a01b031603611d2957838a8281518110611c9657611c96615250565b602002602001015160200151888381518110611cb457611cb4615250565b602002602001015161ffff1681518110611cd057611cd0615250565b60200260200101906001600160e01b03191690816001600160e01b03191681525050868181518110611d0457611d04615250565b602002602001018051809190611d1990615264565b61ffff1690525060019150611d31565b600101611c46565b508015611d415750611e59915050565b81898681518110611d5457611d54615250565b60209081029190910101516001600160a01b039091169052866001600160401b03811115611d8457611d84614261565b604051908082528060200260200182016040528015611dad578160200160208202803683370190505b50898681518110611dc057611dc0615250565b60200260200101516020018190525082898681518110611de257611de2615250565b6020026020010151602001515f81518110611dff57611dff615250565b60200260200101906001600160e01b03191690816001600160e01b031916815250506001868681518110611e3557611e35615250565b61ffff9092166020928302919091019091015284611e5281615284565b9550505050505b600101611be2565b505f5b81811015611ebb575f868281518110611e7f57611e7f615250565b60200260200101516020015190505f848381518110611ea057611ea0615250565b602090810291909101015161ffff1690915250600101611e64565b508085525050505090565b611ece612b4a565b61113f5f61324a565b607d602052815f5260405f208181548110611ef0575f80fd5b905f5260205f20015f91509150505481565b5f611f0b610fa4565b6001600160a01b03163b5f03611f2357610fb7610fa4565b611f2b610fa4565b6001600160a01b0316638da5cb5b6040518163ffffffff1660e01b8152600401602060405180830381865afa925050508015611f84575060408051601f3d908101601f19168201909252611f8191810190614f20565b60015b610fc557610fb7610fa4565b5f611f99612d34565b5f9283526003016020525060409020546001600160a01b031690565b611fbd612b4a565b606a80546001600160a01b0319166001600160a01b0392909216919091179055565b5f611fe8612d34565b60010154905090565b5f611ffa6103da565b95945050505050565b610fda81613288565b5f54610100900460ff161580801561202a57505f54600160ff909116105b8061204a575061203930612ab7565b15801561204a57505f5460ff166001145b6120665760405162461bcd60e51b815260040161043890614d08565b5f805460ff191660011790558015612087575f805461ff0019166101001790555b6120908261324a565b80156111bf575f805461ff0019169055604051600181525f8051602061591a833981519152906020016114e9565b6120c66103da565b50505050505050565b5f805f805f805f805f805f805f607b5f8f81526020019081526020015f20905080600101545f03612102575f94506121d8565b5f61210b6114f5565b90505f6121208260725f0154629896806132cf565b90508015806121325750808360010154115b1561213f575f96506121d5565b60018301546071546074546073546072546075546040516314eff2dd60e11b815273__$f1b7c69ba751c396eddc93d3bbc5414fd9$__966329dfe5ba966121939691958b959194929390929060040161520d565b602060405180830381865af41580156121ae573d5f803e3d5ffd5b505050506040513d601f19601f820116820180604052508101906121d2919061505e565b96505b50505b806005015f9054906101000a90046001600160a01b0316816004015f9054906101000a90046001600160a01b0316826006015f9054906101000a90046001600160a01b031683600101548460020154856008015f9054906101000a900460ff16866007015487600301548c896009015f336001600160a01b03166001600160a01b031681526020019081526020015f20548a601001548b600a015f01549c509c509c509c509c509c509c509c509c509c509c509c505091939597999b5091939597999b565b6122a56103da565b505050505050565b5f610fb760675460ff1690565b5f828152607b602090815260408083206001600160a01b0385168452600901909152812054611a58565b6122ec6133b3565b6122f5826133de565b606a54606c805461231d926001600160a01b0316915f61231483615284565b91905055613440565b607980546001600160a01b0319166001600160a01b039290921691821790556040805163204a7f0760e21b81529051638129fc1c916004808201925f9290919082900301818387803b158015612371575f80fd5b505af1158015612383573d5f803e3d5ffd5b505050505f8180602001905181019061239c9190615408565b60a0810151607880546001600160a01b0319166001600160a01b0392831617905560c082015191925016156123d5578060c001516123db565b8060a001515b608380546001600160a01b0319166001600160a01b039290921691909117905560808101515161240a90613486565b6124178160e00151612f52565b60208101516076805460ff1916600183600281111561243857612438614742565b021790555060408101516076805461ff00191661010083600481111561246057612460614742565b021790555060608101515160775560e0810151607a80546001600160a01b039283166001600160a01b031991821617909155610140830151608080549190931691161790556101608101516082556040517ff5eb09d0087c79c1d71dcda48cad7b075c9cf56c9354addb6cab6cde6194bc6f906124e0908590849061558a565b60405180910390a160028160200151600281111561250057612500614742565b0361264c576080546001600160a01b0316158061251d5750608254155b15612548576080546040516330d466e760e11b8152610438916001600160a01b03169060040161424d565b6080546040805180820182525f808252602082018181529251630779d36560e01b81526001600160a01b039094166004850152306024850152905115156044840152905115156064830152908190736da13bde224a05a288748d857b9e7ddeffd1de0890630779d3659060840160408051808303815f875af11580156125d0573d5f803e3d5ffd5b505050506040513d601f19601f820116820180604052508101906125f491906156c7565b9150915081158061260c57506001600160a01b038116155b1561262a5760405163946c56ed60e01b815260040160405180910390fd5b608180546001600160a01b0319166001600160a01b0392909216919091179055505b6080546081546082546040519081526001600160a01b0392831692909116907f40b1b33a11a0c5522c7983a68e1af5f98f6a1cedd1aa8b4235c1ddfd006223549060200160405180910390a36080810151602001516001600160a01b0316158015906126c557506080810151516001600160a01b031615155b15612831576080810151805160209091015160405163446adb9960e11b81526001600160a01b03909216916388d5b732916127029160040161424d565b5f604051808303815f87803b158015612719575f80fd5b505af115801561272b573d5f803e3d5ffd5b5050606f8054925090505f61273f83615284565b909155505060808181018051606f80545f908152607f6020908152604091829020845181546001600160a01b039182166001600160a01b03199182161783558387015160018401805491841691909216179055838601516002830155606080870151600384015586890151600484015560a096870151600590930192909255935495518051818401518286015183850151848c0151948a015188519b8c52938916968b019690965296168886015291870194909452958501529183015260c082019290925290517fe677e2878aaaaf6a65ecf50f849ad58100c49f6dfd57d055ba4bddd63a175d539181900360e00190a15b8051604001511580156128475750805160200151155b80156128535750805151155b80156128625750805160600151155b6128bb578051805160725560208101516073556040808201516074556060820151607555517fec9315d9f4291207475c061feff1e5d7105750ac0ee9534af9444b4ff1dab9bc916128b2916156f4565b60405180910390a15b607a546001600160a01b031615610f9f57610f9f816101000151613060565b6128e2612b4a565b6001600160a01b0381166129475760405162461bcd60e51b815260206004820152602660248201527f4f776e61626c653a206e6577206f776e657220697320746865207a65726f206160448201526564647265737360d01b6064820152608401610438565b610fda8161324a565b7f12ec43b97389db0cfbdf8d85f200f1b822123856376a9d75d3a6918f27c903bb90565b5f6001600160e01b03198216631add1a0d60e01b14806129a457506001600160e01b0319821663088a8e8160e21b145b806129bf57506001600160e01b0319821663136439dd60e01b145b806129da57506001600160e01b031982166380c4a65f60e01b145b806129f557506001600160e01b03198216631fa5d41d60e11b145b80612a1057506001600160e01b0319821663bac1e94b60e01b145b80612a2b57506001600160e01b0319821663adaf157b60e01b145b80612a4657506001600160e01b031982166360b4778960e01b145b80612a6157506001600160e01b031982166358c3de9360e11b145b80612a7c57506001600160e01b031982166304db2f3360e11b145b80612a9757506001600160e01b03198216630da748b160e41b145b806111a257506001600160e01b03198216632d2ebbef60e01b1492915050565b6001600160a01b03163b151590565b5f612acf613239565b6003810180546001600160a01b038581166001600160a01b031983168117909355604051939450169182905f8051602061593a833981519152905f90a3505050565b5f80612b1d8484613594565b91509150815f148015612b2e575080155b15612b395750505050565b600784015560039092019190915550565b5f612b53610fa4565b90506001600160a01b0381163303612b685750565b5f612b71611f02565b9050336001600160a01b038216146111bf5760405162461bcd60e51b815260206004820181905260248201527f4f776e61626c653a2063616c6c6572206973206e6f7420746865206f776e65726044820152606401610438565b5f5b8351811015612cee575f848281518110612be957612be9615250565b60200260200101516040015190505f858381518110612c0a57612c0a615250565b60200260200101515f0151905081515f03612c3a578060405163e767f91f60e01b8152600401610438919061424d565b5f868481518110612c4d57612c4d615250565b60200260200101516020015190505f6003811115612c6d57612c6d614742565b816003811115612c7f57612c7f614742565b03612c9357612c8e828461367a565b612ce3565b6001816003811115612ca757612ca7614742565b03612cb657612c8e8284613804565b6002816003811115612cca57612cca614742565b03612cd957612c8e8284613961565b612ce38284613bab565b505050600101612bcd565b507f8faa70878671ccd212d20771b795c50af8fd3ff6cf27f4bde57e5d4de0aeb673838383604051612d2293929190615702565b60405180910390a1610f9f8282613dad565b7fd5d05b1f29dcb0c0e1698b0261850eb784d1243215a6aa22ea2b8128b2e9497c90565b5f805160206158fa833981519152546001600160a01b031690565b33612d7c611f02565b6001600160a01b031614610fda5733612d93611f02565b60405163163678e960e01b81526001600160a01b03928316600482015291166024820152604401610438565b7f4910fdfa16fed3260ed0e7147f7cc6da11a60208b5b9406d12a635614ffd91435460ff1615612df257610f9f83613e6f565b826001600160a01b03166352d1902d6040518163ffffffff1660e01b8152600401602060405180830381865afa925050508015612e4c575060408051601f3d908101601f19168201909252612e499181019061505e565b60015b612eaf5760405162461bcd60e51b815260206004820152602e60248201527f45524331393637557067726164653a206e657720696d706c656d656e7461746960448201526d6f6e206973206e6f74205555505360901b6064820152608401610438565b5f805160206158fa8339815191528114612f1d5760405162461bcd60e51b815260206004820152602960248201527f45524331393637557067726164653a20756e737570706f727465642070726f786044820152681a58589b195555525160ba1b6064820152608401610438565b50610f9f838383613f08565b6001600160a01b038116610fda578060405163084c41ef60e01b8152600401610438919061424d565b6001600160a01b038116612f635750565b60785f9054906101000a90046001600160a01b03166001600160a01b031663f86c5f896040518163ffffffff1660e01b8152600401602060405180830381865afa158015612fb3573d5f803e3d5ffd5b505050506040513d601f19601f82011682018060405250810190612fd79190614f20565b6001600160a01b031663f9f6b49b826040518263ffffffff1660e01b8152600401613002919061424d565b602060405180830381865afa15801561301d573d5f803e3d5ffd5b505050506040513d601f19601f820116820180604052508101906130419190614ced565b610fda57806040516310c4c2c360e31b8152600401610438919061424d565b607a5460785460408051633629edcd60e11b815290516001600160a01b039384169363fc2ebdd193309387939190921691636c53db9a9160048083019260209291908290030181865afa1580156130b9573d5f803e3d5ffd5b505050506040513d601f19601f820116820180604052508101906130dd9190614f20565b60405160e085901b6001600160e01b03191681526001600160a01b039384166004820152602481019290925290911660448201526064015f604051808303815f87803b15801561312b575f80fd5b505af1158015611192573d5f803e3d5ffd5b6078545f906001600160a01b03166131555750600190565b6078546040515f9182916001600160a01b0390911690633a871fe160e01b9061318290309060240161424d565b60408051601f198184030181529181526020820180516001600160e01b03166001600160e01b03199094169390931790925290516131c091906157bb565b5f60405180830381855afa9150503d805f81146131f8576040519150601f19603f3d011682016040523d82523d5f602084013e6131fd565b606091505b5091509150811580613210575060208151105b1561321e5760019250505090565b808060200190518101906132329190614ced565b9250505090565b5f8051602061586e83398151915290565b603380546001600160a01b038381166001600160a01b0319831681179093556040519116919082905f8051602061593a833981519152905f90a35050565b6067805460ff19168215159081179091556040519081527fd94c9bc4d43c51d8dc345a016d8e3d994432fac68e72832e4cf3a616bd8efae09060200160405180910390a150565b5f80805f19858709858702925082811083820303915050805f03613306578382816132fc576132fc6151b0565b0492505050611a58565b80841161334d5760405162461bcd60e51b81526020600482015260156024820152744d6174683a206d756c446976206f766572666c6f7760581b6044820152606401610438565b5f84868809600260036001881981018916988990049182028318808302840302808302840302808302840302808302840302808302840302918202909203025f889003889004909101858311909403939093029303949094049190911702949350505050565b6065546001600160a01b0316331461113f5760405163075fd2b160e01b815260040160405180910390fd5b5f356001600160e01b0319166133f2575f80fd5b6133fa6133b3565b6068541561341b5760405163439a74c960e01b815260040160405180910390fd5b805f0361343b57604051637fcce2a960e01b815260040160405180910390fd5b606855565b6040516001600160601b03193360601b166020820152603481018290525f9081906054016040516020818303038152906040528051906020012090506119938482613f2c565b6001600160a01b0381166134975750565b60785f9054906101000a90046001600160a01b03166001600160a01b031663f86c5f896040518163ffffffff1660e01b8152600401602060405180830381865afa1580156134e7573d5f803e3d5ffd5b505050506040513d601f19601f8201168201806040525081019061350b9190614f20565b6001600160a01b031663f9f6b49b826040518263ffffffff1660e01b8152600401613536919061424d565b602060405180830381865afa158015613551573d5f803e3d5ffd5b505050506040513d601f19601f820116820180604052508101906135759190614ced565b610fda57806040516302bc866560e61b8152600401610438919061424d565b5f8061359e61313d565b6135af575050600382015443613673565b43905080846007015411156135c6576135c66157d6565b808460070154036135db57505f905080613673565b73__$f1b7c69ba751c396eddc93d3bbc5414fd9$__63010dfe64856007015483613605919061523d565b60038701546074546040516001600160e01b031960e086901b16815261363193929189916004016146d9565b602060405180830381865af415801561364c573d5f803e3d5ffd5b505050506040513d601f19601f82011682018060405250810190613670919061505e565b91505b9250929050565b6001600160a01b0382166136a357806040516302b8da0760e21b815260040161043891906157ea565b5f6136ac613239565b90505f816001018054905090506136db8460405180606001604052806024815260200161588e60249139613fc0565b5f5b8351811015611192575f8482815181106136f9576136f9615250565b6020908102919091018101516001600160e01b031981165f908152918690526040909120549091506001600160a01b0316801561374b578160405163ebbf5d0760e01b815260040161043891906141fb565b6040805180820182526001600160a01b03808a16825261ffff80881660208085019182526001600160e01b031988165f9081528b8252958620945185549251909316600160a01b026001600160b01b0319909216929093169190911717909155600180880180549182018155835291206008820401805460e085901c60046007909416939093026101000a92830263ffffffff9093021916919091179055836137f381615264565b945050600190920191506136dd9050565b5f61380d613239565b90506001600160a01b038316613838578160405163cd98a96f60e01b815260040161043891906157ea565b61385a8360405180606001604052806028815260200161598160289139613fc0565b5f5b8251811015610fe5575f83828151811061387857613878615250565b6020908102919091018101516001600160e01b031981165f908152918590526040909120549091506001600160a01b03163081036138cb5781604051632901806d60e11b815260040161043891906141fb565b856001600160a01b0316816001600160a01b0316036138ff5781604051631ac6ce8d60e11b815260040161043891906141fb565b6001600160a01b0381166139285781604051637479f93960e01b815260040161043891906141fb565b506001600160e01b0319165f90815260208390526040902080546001600160a01b0319166001600160a01b03861617905560010161385c565b5f61396a613239565b60018101549091506001600160a01b0384161561399c578360405163d091bc8160e01b8152600401610438919061424d565b5f5b8351811015611192575f8482815181106139ba576139ba615250565b6020908102919091018101516001600160e01b031981165f9081528683526040908190208151808301909252546001600160a01b038116808352600160a01b90910461ffff169382019390935290925090613a2a5781604051637a08a22d60e01b815260040161043891906141fb565b8051306001600160a01b0390911603613a585781604051630df5fd6160e31b815260040161043891906141fb565b83613a62816157fc565b94505083816020015161ffff1614613b3c575f856001018581548110613a8a57613a8a615250565b905f5260205f2090600891828204019190066004029054906101000a900460e01b90508086600101836020015161ffff1681548110613acb57613acb615250565b5f91825260208083206008830401805463ffffffff60079094166004026101000a938402191660e09590951c92909202939093179055838201516001600160e01b03199390931681529087905260409020805461ffff60a01b1916600160a01b61ffff909316929092029190911790555b84600101805480613b4f57613b4f615811565b5f828152602080822060085f1990940193840401805463ffffffff600460078716026101000a0219169055919092556001600160e01b0319909316815291859052506040902080546001600160b01b031916905560010161399e565b6001600160a01b038216613bd457806040516302b8da0760e21b815260040161043891906157ea565b5f613bdd613239565b9050613c018360405180606001604052806025815260200161584960259139613fc0565b5f82516001600160401b03811115613c1b57613c1b614261565b604051908082528060200260200182016040528015613c44578160200160208202803683370190505b5090505f8084516001600160401b03811115613c6257613c62614261565b604051908082528060200260200182016040528015613c8b578160200160208202803683370190505b5090505f805b8651811015613d7a575f878281518110613cad57613cad615250565b6020908102919091018101516001600160e01b031981165f908152918990526040909120549091506001600160a01b031680613d1f57818787613cef81615284565b985081518110613d0157613d01615250565b6001600160e01b031990921660209283029190910190910152613d70565b896001600160a01b0316816001600160a01b031614613d7057818585613d4481615284565b965081518110613d5657613d56615250565b6001600160e01b0319909216602092830291909101909101525b5050600101613c91565b508215613d9457613d9487613d8f8686613fe7565b61367a565b80156120c6576120c687613da88484613fe7565b613804565b6001600160a01b038216613dbf575050565b613de1826040518060600160405280602881526020016158b260289139613fc0565b5f80836001600160a01b031683604051613dfb91906157bb565b5f60405180830381855af49150503d805f8114613e33576040519150601f19603f3d011682016040523d82523d5f602084013e613e38565b606091505b509150915081610fe557805115613e525780518082602001fd5b838360405163192105d760e01b8152600401610438929190615825565b613e7881612ab7565b613eda5760405162461bcd60e51b815260206004820152602d60248201527f455243313936373a206e657720696d706c656d656e746174696f6e206973206e60448201526c1bdd08184818dbdb9d1c9858dd609a1b6064820152608401610438565b5f805160206158fa83398151915280546001600160a01b0319166001600160a01b0392909216919091179055565b613f118361408d565b5f82511180613f1d5750805b15610f9f57610fe583836140cc565b5f763d602d80600a3d3981f3363d3d373d3d3d363d730000008360601b60e81c175f526e5af43d82803e903d91602b57fd5bf38360781b1760205281603760095ff590506001600160a01b0381166111a25760405162461bcd60e51b8152602060048201526017602482015276115490cc4c4d8dce8818dc99585d194c8819985a5b1959604a1b6044820152606401610438565b813b5f819003610f9f57828260405163919834b960e01b8152600401610438929190615825565b60605f826001600160401b0381111561400257614002614261565b60405190808252806020026020018201604052801561402b578160200160208202803683370190505b5090505f5b838110156140855784818151811061404a5761404a615250565b602002602001015182828151811061406457614064615250565b6001600160e01b031990921660209283029190910190910152600101614030565b509392505050565b61409681613e6f565b6040516001600160a01b038216907fbc7cd75a20ee27fd9adebab32041f755214dbc6bffa90cc0225b39da2e5c2d3b905f90a250565b6060611a58838360405180606001604052806027815260200161595a6027913960605f80856001600160a01b03168560405161410891906157bb565b5f60405180830381855af49150503d805f8114614140576040519150601f19603f3d011682016040523d82523d5f602084013e614145565b606091505b509150915061415686838387614160565b9695505050505050565b606083156141cc5782515f036141c55761417985612ab7565b6141c55760405162461bcd60e51b815260206004820152601d60248201527f416464726573733a2063616c6c20746f206e6f6e2d636f6e74726163740000006044820152606401610438565b5081611993565b61199383838151156141e15781518083602001fd5b8060405162461bcd60e51b8152600401610438919061482d565b6001600160e01b031991909116815260200190565b80356001600160e01b031981168114610fc5575f80fd5b5f60208284031215614237575f80fd5b611a5882614210565b6001600160a01b03169052565b6001600160a01b0391909116815260200190565b634e487b7160e01b5f52604160045260245ffd5b604080519081016001600160401b038111828210171561429757614297614261565b60405290565b60405160c081016001600160401b038111828210171561429757614297614261565b604051608081016001600160401b038111828210171561429757614297614261565b604051606081016001600160401b038111828210171561429757614297614261565b60405161018081016001600160401b038111828210171561429757614297614261565b604051601f8201601f191681016001600160401b038111828210171561434e5761434e614261565b604052919050565b5f6001600160401b0382111561436e5761436e614261565b5060051b60200190565b6001600160a01b0381168114610fda575f80fd5b8035610fc581614378565b5f82601f8301126143a6575f80fd5b813560206143bb6143b683614356565b614326565b8083825260208201915060208460051b8701019350868411156143dc575f80fd5b602086015b848110156144015780356143f481614378565b83529183019183016143e1565b509695505050505050565b5f6001600160401b0382111561442457614424614261565b50601f01601f191660200190565b5f82601f830112614441575f80fd5b813561444f6143b68261440c565b818152846020838601011115614463575f80fd5b816020850160208301375f918101602001919091529392505050565b5f805f60608486031215614491575f80fd5b83356001600160401b03808211156144a7575f80fd5b6144b387838801614397565b945060208601359150808211156144c8575f80fd5b506144d586828701614432565b92505060408401356144e681614378565b809150509250925092565b5f60208284031215614501575f80fd5b5035919050565b5f805f806080858703121561451b575f80fd5b8435935060208501356001600160401b0380821115614538575f80fd5b908601906040828903121561454b575f80fd5b614553614275565b82358152602083013582811115614568575f80fd5b6145748a828601614432565b60208301525094505050604085013561458c81614378565b9396929550929360600135925050565b5f805f606084860312156145ae575f80fd5b83356145b981614378565b925060208401356145c981614378565b915060408401356144e681614378565b5f602082840312156145e9575f80fd5b8135611a5881614378565b5f8083601f840112614604575f80fd5b5081356001600160401b0381111561461a575f80fd5b602083019150836020828501011115613673575f80fd5b5f805f805f60608688031215614645575f80fd5b85356001600160401b038082111561465b575f80fd5b818801915088601f83011261466e575f80fd5b81358181111561467c575f80fd5b8960208260051b8501011115614690575f80fd5b602083019750809650506146a66020890161438c565b945060408801359150808211156146bb575f80fd5b506146c8888289016145f4565b969995985093965092949392505050565b93845260208401929092526040830152606082015260800190565b5f8060408385031215614705575f80fd5b82356001600160401b0381111561471a575f80fd5b61472685828601614432565b925050602083013561473781614378565b809150509250929050565b634e487b7160e01b5f52602160045260245ffd5b6005811061476657614766614742565b9052565b602081016111a28284614756565b5f8060408385031215614789575f80fd5b823561479481614378565b946020939093013593505050565b5f80604083850312156147b3575f80fd5b50508035926020909101359150565b6003811061476657614766614742565b602081016111a282846147c2565b5f5b838110156147fa5781810151838201526020016147e2565b50505f910152565b5f81518084526148198160208601602086016147e0565b601f01601f19169290920160200192915050565b602081525f611a586020830184614802565b5f8060408385031215614850575f80fd5b823561485b81614378565b915060208301356001600160401b03811115614875575f80fd5b61488185828601614432565b9150509250929050565b5f805f6060848603121561489d575f80fd5b83356148a881614378565b925060208401356001600160401b038111156148c2575f80fd5b6144d586828701614432565b5f815180845260208085019450602084015f5b838110156149075781516001600160e01b031916875295820195908201906001016148e1565b509495945050505050565b5f60208083018184528085518083526040925060408601915060408160051b8701018488015f5b8381101561498157888303603f19018552815180516001600160a01b0316845287015187840187905261496e878501826148ce565b9588019593505090860190600101614939565b509098975050505050505050565b5f80604083850312156149a0575f80fd5b61479483614210565b5f805f805f606086880312156149bd575f80fd5b8535945060208601356001600160401b03808211156149da575f80fd5b6149e689838a016145f4565b909650945060408801359150808211156146bb575f80fd5b8015158114610fda575f80fd5b5f60208284031215614a1b575f80fd5b8135611a58816149fe565b5f60c08284031215614a36575f80fd5b614a3e61429d565b90508135614a4b81614378565b81526020820135614a5b81614378565b8060208301525060408201356040820152606082013560608201526080820135608082015260a082013560a082015292915050565b5f60808284031215614aa0575f80fd5b614aa86142bf565b90508135815260208201356020820152604082013560408201526060820135606082015292915050565b5f805f805f805f6101e0888a031215614ae9575f80fd5b614af38989614a26565b9650614b028960c08a01614a90565b955061014088013594506101608801356001600160401b0380821115614b26575f80fd5b614b328b838c01614397565b95506101808a0135915080821115614b48575f80fd5b50614b558a828b01614397565b9350506101a0880135614b6781614378565b809250506101c0880135905092959891949750929550565b6001600160a01b038d811682528c811660208301528b166040820152606081018a905260808101899052610180810160078910614bbe57614bbe614742565b60a082019890985260c081019690965260e08601949094526101008501929092526101208401526101408301526101609091015295945050505050565b5f805f805f806101c08789031215614c11575f80fd5b614c1b8888614a26565b9550614c2a8860c08901614a90565b945061014087013593506101608701356001600160401b0380821115614c4e575f80fd5b614c5a8a838b01614397565b9450610180890135915080821115614c70575f80fd5b50614c7d89828a01614397565b9250506101a0870135614c8f81614378565b809150509295509295509295565b5f8060408385031215614cae575f80fd5b82359150602083013561473781614378565b5f8060408385031215614cd1575f80fd5b8235915060208301356001600160401b03811115614875575f80fd5b5f60208284031215614cfd575f80fd5b8151611a58816149fe565b6020808252602e908201527f496e697469616c697a61626c653a20636f6e747261637420697320616c72656160408201526d191e481a5b9a5d1a585b1a5e995960921b606082015260800190565b5f614d636143b684614356565b83815260208082019190600586811b860136811115614d80575f80fd5b865b81811015614e695780356001600160401b0380821115614da0575f80fd5b818a01915060608236031215614db4575f80fd5b614dbc6142e1565b8235614dc781614378565b81528287013560048110614dd9575f80fd5b8188015260408381013583811115614def575f80fd5b939093019236601f850112614e02575f80fd5b83359250614e126143b684614356565b83815292871b84018801928881019036851115614e2d575f80fd5b948901945b84861015614e5257614e4386614210565b82529489019490890190614e32565b918301919091525088525050948301948301614d82565b5092979650505050505050565b600181811c90821680614e8a57607f821691505b602082108103614ea857634e487b7160e01b5f52602260045260245ffd5b50919050565b6020808252602c908201525f805160206158da83398151915260408201526b19195b1959d85d1958d85b1b60a21b606082015260800190565b6020808252602c908201525f805160206158da83398151915260408201526b6163746976652070726f787960a01b606082015260800190565b5f60208284031215614f30575f80fd5b8151611a5881614378565b8051610fc581614378565b5f6020808385031215614f57575f80fd5b82516001600160401b0380821115614f6d575f80fd5b9084019060c08287031215614f80575f80fd5b614f8861429d565b8251815283830151614f9981614378565b818501526040830151614fab81614378565b6040820152606083015182811115614fc1575f80fd5b830160408189031215614fd2575f80fd5b614fda614275565b815181528582015184811115614fee575f80fd5b82019350601f84018913615000575f80fd5b835191506150106143b68361440c565b8281528987848701011115615023575f80fd5b615032838883018988016147e0565b95810195909552506060810193909352506080818101519083015260a090810151908201529392505050565b5f6020828403121561506e575f80fd5b5051919050565b5f60208284031215615085575f80fd5b815160ff81168114611a58575f80fd5b634e487b7160e01b5f52601160045260245ffd5b60ff82811682821603908111156111a2576111a2615095565b600181815b808511156150fc57815f19048211156150e2576150e2615095565b808516156150ef57918102915b93841c93908002906150c7565b509250929050565b5f82615112575060016111a2565b8161511e57505f6111a2565b8160018114615134576002811461513e5761515a565b60019150506111a2565b60ff84111561514f5761514f615095565b50506001821b6111a2565b5060208310610133831016604e8410600b841016171561517d575081810a6111a2565b61518783836150c2565b805f190482111561519a5761519a615095565b029392505050565b5f611a5860ff841683615104565b634e487b7160e01b5f52601260045260245ffd5b5f826151de57634e487b7160e01b5f52601260045260245ffd5b500490565b80820281158282048414176111a2576111a2615095565b808201808211156111a2576111a2615095565b968752602087019590955260408601939093526060850191909152608084015260a083015260c082015260e00190565b818103818111156111a2576111a2615095565b634e487b7160e01b5f52603260045260245ffd5b5f61ffff80831681810361527a5761527a615095565b6001019392505050565b5f6001820161529557615295615095565b5060010190565b5f608082840312156152ac575f80fd5b6152b46142bf565b90508151815260208201516020820152604082015160408201526060820151606082015292915050565b805160038110610fc5575f80fd5b805160058110610fc5575f80fd5b5f6020828403121561530a575f80fd5b604051602081016001600160401b038111828210171561532c5761532c614261565b6040529151825250919050565b5f60c08284031215615349575f80fd5b61535161429d565b9050815161535e81614378565b8152602082015161536e81614378565b8060208301525060408201516040820152606082015160608201526080820151608082015260a082015160a082015292915050565b5f82601f8301126153b2575f80fd5b815160206153c26143b683614356565b8083825260208201915060208460051b8701019350868411156153e3575f80fd5b602086015b848110156144015780516153fb81614378565b83529183019183016153e8565b5f60208284031215615418575f80fd5b81516001600160401b038082111561542e575f80fd5b908301906102808286031215615442575f80fd5b61544a614303565b615454868461529c565b8152615462608084016152de565b602082015261547360a084016152ec565b60408201526154858660c085016152fa565b60608201526154978660e08501615339565b60808201526154a96101a08401614f3b565b60a08201526154bb6101c08401614f3b565b60c08201526154cd6101e08401614f3b565b60e0820152610200830151610100820152610220830151828111156154f0575f80fd5b6154fc878286016153a3565b610120830152506155106102408401614f3b565b6101408201526102609290920151610160830152509392505050565b805182526020810151602083015260408101516040830152606081015160608301525050565b5f815180845260208085019450602084015f5b838110156149075781516001600160a01b031687529582019590820190600101615565565b828152604060208201526155a260408201835161552c565b5f60208301516155b560c08401826147c2565b5060408301516155c860e0840182614756565b5060608301516101006155dd81850183519052565b60808581015180516001600160a01b0390811661012088810191909152602083015190911661014088015260408201516101608801526060820151610180880152918101516101a087015260a0908101516101c087015286015192506156476101e0860184614240565b60c0860151925061565c610200860184614240565b60e08601519250615671610220860184614240565b90850151610240850152840151610280610260850181905290915061569a6102c0850183615552565b91506101408501516156ae82860182614240565b50506101608401516102a0840152809150509392505050565b5f80604083850312156156d8575f80fd5b82516156e3816149fe565b602084015190925061473781614378565b608081016111a2828461552c565b5f60608083016060845280875180835260808601915060808160051b87010192506020808a015f5b8381101561578d57888603607f19018552815180516001600160a01b03168752838101516004811061575e5761575e614742565b8785015260409081015190870188905261577a888801826148ce565b965050938201939082019060010161572a565b505061579b8188018a614240565b50505083810360408501526157b08186614802565b979650505050505050565b5f82516157cc8184602087016147e0565b9190910192915050565b634e487b7160e01b5f52600160045260245ffd5b602081525f611a5860208301846148ce565b5f8161580a5761580a615095565b505f190190565b634e487b7160e01b5f52603160045260245ffd5b6001600160a01b03831681526040602082018190525f906119939083018461480256fe4c69624469616d6f6e644375743a204175746f20666163657420686173206e6f20636f6465c8fcad8db84d3cc18b4c41d551ea0ee66dd599cde068d998e57d5e09332c131c4c69624469616d6f6e644375743a2041646420666163657420686173206e6f20636f64654c69624469616d6f6e644375743a205f696e6974206164647265737320686173206e6f20636f646546756e6374696f6e206d7573742062652063616c6c6564207468726f75676820360894a13ba1a3210667c828492db98dca3e2076cc3735a920a3ca505d382bbc7f26b83ff96e1f2b6a682f133852f6798a09c465da95921460cefb38474024988be0079c531659141344cd1fd0a4f28419497f9722a3daafe3b4186f6b6457e0416464726573733a206c6f772d6c6576656c2064656c65676174652063616c6c206661696c65644c69624469616d6f6e644375743a205265706c61636520666163657420686173206e6f20636f6465a164736f6c6343000817000a","linkReferences":{"pkg/contracts/src/CVStrategy/ConvictionsUtils.sol":{"ConvictionsUtils":[{"start":6714,"length":20},{"start":6872,"length":20},{"start":8826,"length":20},{"start":14069,"length":20}]}}},"methodIdentifiers":{"DISPUTE_COOLDOWN_SEC()":"f5be3f7c","NATIVE()":"a0cf0aea","RULING_OPTIONS()":"626c47e8","activatePoints()":"814516ad","allocate(bytes,address)":"ef2920fc","arbitrableConfigs(uint256)":"41bb7605","calculateProposalConviction(uint256)":"60b0645a","calculateThreshold(uint256)":"59a5db8b","cancelProposal(uint256)":"e0a8f6f5","cloneNonce()":"33960459","collateralVault()":"0bece79c","connectSuperfluidGDA(address)":"924e6704","currentArbitrableConfigVersion()":"125fd1d9","cvParams()":"2506b870","deactivatePoints()":"1ddf1e23","deactivatePoints(address)":"6453d9c4","decreasePower(address,uint256)":"2ed04b2b","diamondCut((address,uint8,bytes4[])[],address,bytes)":"1f931c1c","disconnectSuperfluidGDA(address)":"c69271ec","disputeCount()":"a28889e1","disputeIdToProposalId(uint256)":"255ffb38","disputeProposal(uint256,string,bytes)":"b41596ec","distribute(address[],bytes,address)":"0a6f0ee9","editProposal(uint256,(uint256,string),address,uint256)":"141e3b38","getAllo()":"15cc481e","getArbitrableConfig()":"059351cd","getFacets()":"662ea47d","getMaxAmount()":"0ba95909","getPointSystem()":"c3292171","getPoolAmount()":"4ab4ba42","getPoolId()":"38fff2d0","getProposal(uint256)":"c7f758a8","getProposalMetadataPointer(uint256)":"3587c79b","getProposalStakedAmount(uint256)":"dc96ff2d","getProposalVoterStake(uint256,address)":"e0dd2c38","increasePower(address,uint256)":"782aadff","init(address,address,address)":"184b9559","init(address,string,address)":"60d5dedc","initialize(address)":"c4d66de8","initialize(uint256,bytes)":"edd146cc","isPaused()":"b187bd26","isPaused(bytes4)":"09b65e66","isPoolActive()":"df868ed3","lastRebalanceAt()":"2cea13f9","owner()":"8da5cb5b","pause(bytes4,uint256)":"80c4a65f","pause(uint256)":"136439dd","pauseController()":"60b47789","pauseFacet()":"adaf157b","pausedSelectorUntil(bytes4)":"2d2ebbef","pausedUntil()":"da748b10","pointConfig()":"a47ff7e5","pointSystem()":"2dbd6fdd","proposalCounter()":"0c0512e9","proposalType()":"351d9f96","proxiableUUID()":"52d1902d","proxyOwner()":"025313a2","rebalance()":"7d7c2a1c","rebalanceCooldown()":"b3de272d","registerRecipient(bytes,address)":"2bbe0cae","registryCommunity()":"6003e414","renounceOwnership()":"715018a6","rule(uint256,uint256)":"311a6c56","setCollateralVaultTemplate(address)":"b0d3713a","setPauseController(address)":"1add1a0d","setPauseFacet(address)":"222a3a04","setPoolActive(bool)":"b5f620ce","setPoolParams((address,address,uint256,uint256,uint256,uint256),(uint256,uint256,uint256,uint256),uint256,address[],address[],address)":"d5b7cc54","setPoolParams((address,address,uint256,uint256,uint256,uint256),(uint256,uint256,uint256,uint256),uint256,address[],address[],address,uint256)":"c6cdc980","setSybilScorer(address,uint256)":"3864d366","streamingEscrow(uint256)":"b04b5b26","streamingRatePerSecond()":"94573cbb","superfluidGDA()":"1b36f56f","superfluidToken()":"05caa7f3","supportsInterface(bytes4)":"01ffc9a7","sybilScorer()":"b6c61f31","totalPointsActivated()":"aba9ffee","totalStaked()":"817b1cd2","totalVoterStakePct(address)":"5db64b99","transferOwnership(address)":"f2fde38b","unpause()":"3f4ba83a","unpause(bytes4)":"bac1e94b","updateProposalConviction(uint256)":"1aa91a9e","upgradeTo(address)":"3659cfe6","upgradeToAndCall(address,bytes)":"4f1ef286","voterStakedProposals(address,uint256)":"868c57b8","votingPowerRegistry()":"80fd91cd"},"storageLayout":{"storage":[{"astId":45426,"contract":"pkg/contracts/src/CVStrategy/CVStrategy.sol:CVStrategy","label":"_initialized","offset":0,"slot":"0","type":"t_uint8"},{"astId":45429,"contract":"pkg/contracts/src/CVStrategy/CVStrategy.sol:CVStrategy","label":"_initializing","offset":1,"slot":"0","type":"t_bool"},{"astId":46053,"contract":"pkg/contracts/src/CVStrategy/CVStrategy.sol:CVStrategy","label":"__gap","offset":0,"slot":"1","type":"t_array(t_uint256)50_storage"},{"astId":45218,"contract":"pkg/contracts/src/CVStrategy/CVStrategy.sol:CVStrategy","label":"_owner","offset":0,"slot":"51","type":"t_address"},{"astId":45338,"contract":"pkg/contracts/src/CVStrategy/CVStrategy.sol:CVStrategy","label":"__gap","offset":0,"slot":"52","type":"t_array(t_uint256)49_storage"},{"astId":79367,"contract":"pkg/contracts/src/CVStrategy/CVStrategy.sol:CVStrategy","label":"allo","offset":0,"slot":"101","type":"t_contract(IAllo)351"},{"astId":79369,"contract":"pkg/contracts/src/CVStrategy/CVStrategy.sol:CVStrategy","label":"strategyId","offset":0,"slot":"102","type":"t_bytes32"},{"astId":79371,"contract":"pkg/contracts/src/CVStrategy/CVStrategy.sol:CVStrategy","label":"poolActive","offset":0,"slot":"103","type":"t_bool"},{"astId":79373,"contract":"pkg/contracts/src/CVStrategy/CVStrategy.sol:CVStrategy","label":"poolId","offset":0,"slot":"104","type":"t_uint256"},{"astId":79375,"contract":"pkg/contracts/src/CVStrategy/CVStrategy.sol:CVStrategy","label":"poolAmount","offset":0,"slot":"105","type":"t_uint256"},{"astId":80109,"contract":"pkg/contracts/src/CVStrategy/CVStrategy.sol:CVStrategy","label":"collateralVaultTemplate","offset":0,"slot":"106","type":"t_address"},{"astId":80111,"contract":"pkg/contracts/src/CVStrategy/CVStrategy.sol:CVStrategy","label":"surpressStateMutabilityWarning","offset":0,"slot":"107","type":"t_uint256"},{"astId":80113,"contract":"pkg/contracts/src/CVStrategy/CVStrategy.sol:CVStrategy","label":"cloneNonce","offset":0,"slot":"108","type":"t_uint256"},{"astId":80115,"contract":"pkg/contracts/src/CVStrategy/CVStrategy.sol:CVStrategy","label":"disputeCount","offset":0,"slot":"109","type":"t_uint64"},{"astId":80117,"contract":"pkg/contracts/src/CVStrategy/CVStrategy.sol:CVStrategy","label":"proposalCounter","offset":0,"slot":"110","type":"t_uint256"},{"astId":80119,"contract":"pkg/contracts/src/CVStrategy/CVStrategy.sol:CVStrategy","label":"currentArbitrableConfigVersion","offset":0,"slot":"111","type":"t_uint256"},{"astId":80121,"contract":"pkg/contracts/src/CVStrategy/CVStrategy.sol:CVStrategy","label":"totalStaked","offset":0,"slot":"112","type":"t_uint256"},{"astId":80123,"contract":"pkg/contracts/src/CVStrategy/CVStrategy.sol:CVStrategy","label":"totalPointsActivated","offset":0,"slot":"113","type":"t_uint256"},{"astId":80126,"contract":"pkg/contracts/src/CVStrategy/CVStrategy.sol:CVStrategy","label":"cvParams","offset":0,"slot":"114","type":"t_struct(CVParams)84437_storage"},{"astId":80129,"contract":"pkg/contracts/src/CVStrategy/CVStrategy.sol:CVStrategy","label":"proposalType","offset":0,"slot":"118","type":"t_enum(ProposalType)84337"},{"astId":80132,"contract":"pkg/contracts/src/CVStrategy/CVStrategy.sol:CVStrategy","label":"pointSystem","offset":1,"slot":"118","type":"t_enum(PointSystem)84343"},{"astId":80135,"contract":"pkg/contracts/src/CVStrategy/CVStrategy.sol:CVStrategy","label":"pointConfig","offset":0,"slot":"119","type":"t_struct(PointSystemConfig)84414_storage"},{"astId":80138,"contract":"pkg/contracts/src/CVStrategy/CVStrategy.sol:CVStrategy","label":"registryCommunity","offset":0,"slot":"120","type":"t_contract(RegistryCommunity)97380"},{"astId":80141,"contract":"pkg/contracts/src/CVStrategy/CVStrategy.sol:CVStrategy","label":"collateralVault","offset":0,"slot":"121","type":"t_contract(ICollateralVault)103384"},{"astId":80144,"contract":"pkg/contracts/src/CVStrategy/CVStrategy.sol:CVStrategy","label":"sybilScorer","offset":0,"slot":"122","type":"t_contract(ISybilScorer)94359"},{"astId":80149,"contract":"pkg/contracts/src/CVStrategy/CVStrategy.sol:CVStrategy","label":"proposals","offset":0,"slot":"123","type":"t_mapping(t_uint256,t_struct(Proposal)84406_storage)"},{"astId":80153,"contract":"pkg/contracts/src/CVStrategy/CVStrategy.sol:CVStrategy","label":"totalVoterStakePct","offset":0,"slot":"124","type":"t_mapping(t_address,t_uint256)"},{"astId":80158,"contract":"pkg/contracts/src/CVStrategy/CVStrategy.sol:CVStrategy","label":"voterStakedProposals","offset":0,"slot":"125","type":"t_mapping(t_address,t_array(t_uint256)dyn_storage)"},{"astId":80162,"contract":"pkg/contracts/src/CVStrategy/CVStrategy.sol:CVStrategy","label":"disputeIdToProposalId","offset":0,"slot":"126","type":"t_mapping(t_uint256,t_uint256)"},{"astId":80167,"contract":"pkg/contracts/src/CVStrategy/CVStrategy.sol:CVStrategy","label":"arbitrableConfigs","offset":0,"slot":"127","type":"t_mapping(t_uint256,t_struct(ArbitrableConfig)84428_storage)"},{"astId":80170,"contract":"pkg/contracts/src/CVStrategy/CVStrategy.sol:CVStrategy","label":"superfluidToken","offset":0,"slot":"128","type":"t_contract(ISuperToken)72385"},{"astId":80173,"contract":"pkg/contracts/src/CVStrategy/CVStrategy.sol:CVStrategy","label":"superfluidGDA","offset":0,"slot":"129","type":"t_contract(ISuperfluidPool)71213"},{"astId":80175,"contract":"pkg/contracts/src/CVStrategy/CVStrategy.sol:CVStrategy","label":"streamingRatePerSecond","offset":0,"slot":"130","type":"t_uint256"},{"astId":80178,"contract":"pkg/contracts/src/CVStrategy/CVStrategy.sol:CVStrategy","label":"votingPowerRegistry","offset":0,"slot":"131","type":"t_contract(IVotingPowerRegistry)104111"},{"astId":80182,"contract":"pkg/contracts/src/CVStrategy/CVStrategy.sol:CVStrategy","label":"__gap","offset":0,"slot":"132","type":"t_array(t_uint256)46_storage"}],"types":{"t_address":{"encoding":"inplace","label":"address","numberOfBytes":"20"},"t_array(t_uint256)46_storage":{"encoding":"inplace","label":"uint256[46]","numberOfBytes":"1472","base":"t_uint256"},"t_array(t_uint256)49_storage":{"encoding":"inplace","label":"uint256[49]","numberOfBytes":"1568","base":"t_uint256"},"t_array(t_uint256)50_storage":{"encoding":"inplace","label":"uint256[50]","numberOfBytes":"1600","base":"t_uint256"},"t_array(t_uint256)dyn_storage":{"encoding":"dynamic_array","label":"uint256[]","numberOfBytes":"32","base":"t_uint256"},"t_bool":{"encoding":"inplace","label":"bool","numberOfBytes":"1"},"t_bytes32":{"encoding":"inplace","label":"bytes32","numberOfBytes":"32"},"t_contract(IAllo)351":{"encoding":"inplace","label":"contract IAllo","numberOfBytes":"20"},"t_contract(IArbitrator)103351":{"encoding":"inplace","label":"contract IArbitrator","numberOfBytes":"20"},"t_contract(ICollateralVault)103384":{"encoding":"inplace","label":"contract ICollateralVault","numberOfBytes":"20"},"t_contract(ISuperToken)72385":{"encoding":"inplace","label":"contract ISuperToken","numberOfBytes":"20"},"t_contract(ISuperfluidPool)71213":{"encoding":"inplace","label":"contract ISuperfluidPool","numberOfBytes":"20"},"t_contract(ISybilScorer)94359":{"encoding":"inplace","label":"contract ISybilScorer","numberOfBytes":"20"},"t_contract(IVotingPowerRegistry)104111":{"encoding":"inplace","label":"contract IVotingPowerRegistry","numberOfBytes":"20"},"t_contract(RegistryCommunity)97380":{"encoding":"inplace","label":"contract RegistryCommunity","numberOfBytes":"20"},"t_enum(PointSystem)84343":{"encoding":"inplace","label":"enum PointSystem","numberOfBytes":"1"},"t_enum(ProposalStatus)84363":{"encoding":"inplace","label":"enum ProposalStatus","numberOfBytes":"1"},"t_enum(ProposalType)84337":{"encoding":"inplace","label":"enum ProposalType","numberOfBytes":"1"},"t_mapping(t_address,t_array(t_uint256)dyn_storage)":{"encoding":"mapping","key":"t_address","label":"mapping(address => uint256[])","numberOfBytes":"32","value":"t_array(t_uint256)dyn_storage"},"t_mapping(t_address,t_uint256)":{"encoding":"mapping","key":"t_address","label":"mapping(address => uint256)","numberOfBytes":"32","value":"t_uint256"},"t_mapping(t_uint256,t_struct(ArbitrableConfig)84428_storage)":{"encoding":"mapping","key":"t_uint256","label":"mapping(uint256 => struct ArbitrableConfig)","numberOfBytes":"32","value":"t_struct(ArbitrableConfig)84428_storage"},"t_mapping(t_uint256,t_struct(Proposal)84406_storage)":{"encoding":"mapping","key":"t_uint256","label":"mapping(uint256 => struct Proposal)","numberOfBytes":"32","value":"t_struct(Proposal)84406_storage"},"t_mapping(t_uint256,t_uint256)":{"encoding":"mapping","key":"t_uint256","label":"mapping(uint256 => uint256)","numberOfBytes":"32","value":"t_uint256"},"t_string_storage":{"encoding":"bytes","label":"string","numberOfBytes":"32"},"t_struct(ArbitrableConfig)84428_storage":{"encoding":"inplace","label":"struct ArbitrableConfig","numberOfBytes":"192","members":[{"astId":84417,"contract":"pkg/contracts/src/CVStrategy/CVStrategy.sol:CVStrategy","label":"arbitrator","offset":0,"slot":"0","type":"t_contract(IArbitrator)103351"},{"astId":84419,"contract":"pkg/contracts/src/CVStrategy/CVStrategy.sol:CVStrategy","label":"tribunalSafe","offset":0,"slot":"1","type":"t_address"},{"astId":84421,"contract":"pkg/contracts/src/CVStrategy/CVStrategy.sol:CVStrategy","label":"submitterCollateralAmount","offset":0,"slot":"2","type":"t_uint256"},{"astId":84423,"contract":"pkg/contracts/src/CVStrategy/CVStrategy.sol:CVStrategy","label":"challengerCollateralAmount","offset":0,"slot":"3","type":"t_uint256"},{"astId":84425,"contract":"pkg/contracts/src/CVStrategy/CVStrategy.sol:CVStrategy","label":"defaultRuling","offset":0,"slot":"4","type":"t_uint256"},{"astId":84427,"contract":"pkg/contracts/src/CVStrategy/CVStrategy.sol:CVStrategy","label":"defaultRulingTimeout","offset":0,"slot":"5","type":"t_uint256"}]},"t_struct(CVParams)84437_storage":{"encoding":"inplace","label":"struct CVParams","numberOfBytes":"128","members":[{"astId":84430,"contract":"pkg/contracts/src/CVStrategy/CVStrategy.sol:CVStrategy","label":"maxRatio","offset":0,"slot":"0","type":"t_uint256"},{"astId":84432,"contract":"pkg/contracts/src/CVStrategy/CVStrategy.sol:CVStrategy","label":"weight","offset":0,"slot":"1","type":"t_uint256"},{"astId":84434,"contract":"pkg/contracts/src/CVStrategy/CVStrategy.sol:CVStrategy","label":"decay","offset":0,"slot":"2","type":"t_uint256"},{"astId":84436,"contract":"pkg/contracts/src/CVStrategy/CVStrategy.sol:CVStrategy","label":"minThresholdPoints","offset":0,"slot":"3","type":"t_uint256"}]},"t_struct(Metadata)806_storage":{"encoding":"inplace","label":"struct Metadata","numberOfBytes":"64","members":[{"astId":802,"contract":"pkg/contracts/src/CVStrategy/CVStrategy.sol:CVStrategy","label":"protocol","offset":0,"slot":"0","type":"t_uint256"},{"astId":805,"contract":"pkg/contracts/src/CVStrategy/CVStrategy.sol:CVStrategy","label":"pointer","offset":0,"slot":"1","type":"t_string_storage"}]},"t_struct(PointSystemConfig)84414_storage":{"encoding":"inplace","label":"struct PointSystemConfig","numberOfBytes":"32","members":[{"astId":84413,"contract":"pkg/contracts/src/CVStrategy/CVStrategy.sol:CVStrategy","label":"maxAmount","offset":0,"slot":"0","type":"t_uint256"}]},"t_struct(Proposal)84406_storage":{"encoding":"inplace","label":"struct Proposal","numberOfBytes":"576","members":[{"astId":84372,"contract":"pkg/contracts/src/CVStrategy/CVStrategy.sol:CVStrategy","label":"proposalId","offset":0,"slot":"0","type":"t_uint256"},{"astId":84374,"contract":"pkg/contracts/src/CVStrategy/CVStrategy.sol:CVStrategy","label":"requestedAmount","offset":0,"slot":"1","type":"t_uint256"},{"astId":84376,"contract":"pkg/contracts/src/CVStrategy/CVStrategy.sol:CVStrategy","label":"stakedAmount","offset":0,"slot":"2","type":"t_uint256"},{"astId":84378,"contract":"pkg/contracts/src/CVStrategy/CVStrategy.sol:CVStrategy","label":"convictionLast","offset":0,"slot":"3","type":"t_uint256"},{"astId":84380,"contract":"pkg/contracts/src/CVStrategy/CVStrategy.sol:CVStrategy","label":"beneficiary","offset":0,"slot":"4","type":"t_address"},{"astId":84382,"contract":"pkg/contracts/src/CVStrategy/CVStrategy.sol:CVStrategy","label":"submitter","offset":0,"slot":"5","type":"t_address"},{"astId":84384,"contract":"pkg/contracts/src/CVStrategy/CVStrategy.sol:CVStrategy","label":"requestedToken","offset":0,"slot":"6","type":"t_address"},{"astId":84386,"contract":"pkg/contracts/src/CVStrategy/CVStrategy.sol:CVStrategy","label":"blockLast","offset":0,"slot":"7","type":"t_uint256"},{"astId":84389,"contract":"pkg/contracts/src/CVStrategy/CVStrategy.sol:CVStrategy","label":"proposalStatus","offset":0,"slot":"8","type":"t_enum(ProposalStatus)84363"},{"astId":84393,"contract":"pkg/contracts/src/CVStrategy/CVStrategy.sol:CVStrategy","label":"voterStakedPoints","offset":0,"slot":"9","type":"t_mapping(t_address,t_uint256)"},{"astId":84396,"contract":"pkg/contracts/src/CVStrategy/CVStrategy.sol:CVStrategy","label":"metadata","offset":0,"slot":"10","type":"t_struct(Metadata)806_storage"},{"astId":84399,"contract":"pkg/contracts/src/CVStrategy/CVStrategy.sol:CVStrategy","label":"disputeInfo","offset":0,"slot":"12","type":"t_struct(ProposalDisputeInfo)84370_storage"},{"astId":84401,"contract":"pkg/contracts/src/CVStrategy/CVStrategy.sol:CVStrategy","label":"lastDisputeCompletion","offset":0,"slot":"15","type":"t_uint256"},{"astId":84403,"contract":"pkg/contracts/src/CVStrategy/CVStrategy.sol:CVStrategy","label":"arbitrableConfigVersion","offset":0,"slot":"16","type":"t_uint256"},{"astId":84405,"contract":"pkg/contracts/src/CVStrategy/CVStrategy.sol:CVStrategy","label":"creationTimestamp","offset":0,"slot":"17","type":"t_uint256"}]},"t_struct(ProposalDisputeInfo)84370_storage":{"encoding":"inplace","label":"struct ProposalDisputeInfo","numberOfBytes":"96","members":[{"astId":84365,"contract":"pkg/contracts/src/CVStrategy/CVStrategy.sol:CVStrategy","label":"disputeId","offset":0,"slot":"0","type":"t_uint256"},{"astId":84367,"contract":"pkg/contracts/src/CVStrategy/CVStrategy.sol:CVStrategy","label":"disputeTimestamp","offset":0,"slot":"1","type":"t_uint256"},{"astId":84369,"contract":"pkg/contracts/src/CVStrategy/CVStrategy.sol:CVStrategy","label":"challenger","offset":0,"slot":"2","type":"t_address"}]},"t_uint256":{"encoding":"inplace","label":"uint256","numberOfBytes":"32"},"t_uint64":{"encoding":"inplace","label":"uint64","numberOfBytes":"8"},"t_uint8":{"encoding":"inplace","label":"uint8","numberOfBytes":"1"}}},"id":122}