{"abi":[{"type":"function","name":"DEFAULT_FUNDING_UNITS","inputs":[],"outputs":[{"name":"","type":"uint128","internalType":"uint128"}],"stateMutability":"view"},{"type":"function","name":"DISPUTE_COOLDOWN_SEC","inputs":[],"outputs":[{"name":"","type":"uint256","internalType":"uint256"}],"stateMutability":"view"},{"type":"function","name":"RULING_OPTIONS","inputs":[],"outputs":[{"name":"","type":"uint256","internalType":"uint256"}],"stateMutability":"view"},{"type":"function","name":"TOTAL_GDA_UNITS","inputs":[],"outputs":[{"name":"","type":"uint128","internalType":"uint128"}],"stateMutability":"view"},{"type":"function","name":"arbitrableConfigs","inputs":[{"name":"","type":"uint256","internalType":"uint256"}],"outputs":[{"name":"arbitrator","type":"address","internalType":"contract IArbitrator"},{"name":"tribunalSafe","type":"address","internalType":"address"},{"name":"submitterCollateralAmount","type":"uint256","internalType":"uint256"},{"name":"challengerCollateralAmount","type":"uint256","internalType":"uint256"},{"name":"defaultRuling","type":"uint256","internalType":"uint256"},{"name":"defaultRulingTimeout","type":"uint256","internalType":"uint256"}],"stateMutability":"view"},{"type":"function","name":"calculateUnits","inputs":[{"name":"shareBps","type":"uint256","internalType":"uint256"},{"name":"totalUnits","type":"uint128","internalType":"uint128"}],"outputs":[{"name":"","type":"uint128","internalType":"uint128"}],"stateMutability":"pure"},{"type":"function","name":"cloneNonce","inputs":[],"outputs":[{"name":"","type":"uint256","internalType":"uint256"}],"stateMutability":"view"},{"type":"function","name":"collateralVault","inputs":[],"outputs":[{"name":"","type":"address","internalType":"contract ICollateralVault"}],"stateMutability":"view"},{"type":"function","name":"currentArbitrableConfigVersion","inputs":[],"outputs":[{"name":"","type":"uint256","internalType":"uint256"}],"stateMutability":"view"},{"type":"function","name":"cvParams","inputs":[],"outputs":[{"name":"maxRatio","type":"uint256","internalType":"uint256"},{"name":"weight","type":"uint256","internalType":"uint256"},{"name":"decay","type":"uint256","internalType":"uint256"},{"name":"minThresholdPoints","type":"uint256","internalType":"uint256"}],"stateMutability":"view"},{"type":"function","name":"cvVault","inputs":[],"outputs":[{"name":"","type":"address","internalType":"contract ICVVault"}],"stateMutability":"view"},{"type":"function","name":"disputeCount","inputs":[],"outputs":[{"name":"","type":"uint64","internalType":"uint64"}],"stateMutability":"view"},{"type":"function","name":"disputeIdToProposalId","inputs":[{"name":"","type":"uint256","internalType":"uint256"}],"outputs":[{"name":"","type":"uint256","internalType":"uint256"}],"stateMutability":"view"},{"type":"function","name":"emergencyStopAllStreams","inputs":[],"outputs":[],"stateMutability":"nonpayable"},{"type":"function","name":"getActiveStreamCount","inputs":[],"outputs":[{"name":"count","type":"uint256","internalType":"uint256"}],"stateMutability":"view"},{"type":"function","name":"getGDA","inputs":[],"outputs":[{"name":"","type":"address","internalType":"address"}],"stateMutability":"view"},{"type":"function","name":"getStreamState","inputs":[{"name":"proposalId","type":"uint256","internalType":"uint256"}],"outputs":[{"name":"isActive","type":"bool","internalType":"bool"},{"name":"flowUnits","type":"uint128","internalType":"uint128"},{"name":"lastUpdateBlock","type":"uint256","internalType":"uint256"},{"name":"beneficiary","type":"address","internalType":"address"}],"stateMutability":"view"},{"type":"function","name":"initializeGDA","inputs":[{"name":"gda","type":"address","internalType":"address"}],"outputs":[],"stateMutability":"nonpayable"},{"type":"function","name":"isStreamActive","inputs":[{"name":"proposalId","type":"uint256","internalType":"uint256"}],"outputs":[{"name":"","type":"bool","internalType":"bool"}],"stateMutability":"view"},{"type":"function","name":"pointConfig","inputs":[],"outputs":[{"name":"maxAmount","type":"uint256","internalType":"uint256"}],"stateMutability":"view"},{"type":"function","name":"pointSystem","inputs":[],"outputs":[{"name":"","type":"uint8","internalType":"enum PointSystem"}],"stateMutability":"view"},{"type":"function","name":"proposalCounter","inputs":[],"outputs":[{"name":"","type":"uint256","internalType":"uint256"}],"stateMutability":"view"},{"type":"function","name":"proposalType","inputs":[],"outputs":[{"name":"","type":"uint8","internalType":"enum ProposalType"}],"stateMutability":"view"},{"type":"function","name":"proposals","inputs":[{"name":"","type":"uint256","internalType":"uint256"}],"outputs":[{"name":"proposalId","type":"uint256","internalType":"uint256"},{"name":"requestedAmount","type":"uint256","internalType":"uint256"},{"name":"stakedAmount","type":"uint256","internalType":"uint256"},{"name":"convictionLast","type":"uint256","internalType":"uint256"},{"name":"beneficiary","type":"address","internalType":"address"},{"name":"submitter","type":"address","internalType":"address"},{"name":"requestedToken","type":"address","internalType":"address"},{"name":"blockLast","type":"uint256","internalType":"uint256"},{"name":"proposalStatus","type":"uint8","internalType":"enum ProposalStatus"},{"name":"metadata","type":"tuple","internalType":"struct Metadata","components":[{"name":"protocol","type":"uint256","internalType":"uint256"},{"name":"pointer","type":"string","internalType":"string"}]},{"name":"disputeInfo","type":"tuple","internalType":"struct ProposalDisputeInfo","components":[{"name":"disputeId","type":"uint256","internalType":"uint256"},{"name":"disputeTimestamp","type":"uint256","internalType":"uint256"},{"name":"challenger","type":"address","internalType":"address"}]},{"name":"lastDisputeCompletion","type":"uint256","internalType":"uint256"},{"name":"arbitrableConfigVersion","type":"uint256","internalType":"uint256"}],"stateMutability":"view"},{"type":"function","name":"registryCommunity","inputs":[],"outputs":[{"name":"","type":"address","internalType":"contract IVotingPowerRegistry"}],"stateMutability":"view"},{"type":"function","name":"setStreamingEnabled","inputs":[{"name":"enabled","type":"bool","internalType":"bool"}],"outputs":[],"stateMutability":"nonpayable"},{"type":"function","name":"startStream","inputs":[{"name":"proposalId","type":"uint256","internalType":"uint256"},{"name":"beneficiary","type":"address","internalType":"address"},{"name":"units","type":"uint128","internalType":"uint128"}],"outputs":[],"stateMutability":"nonpayable"},{"type":"function","name":"stopStream","inputs":[{"name":"proposalId","type":"uint256","internalType":"uint256"}],"outputs":[],"stateMutability":"nonpayable"},{"type":"function","name":"streamingEnabled","inputs":[],"outputs":[{"name":"","type":"bool","internalType":"bool"}],"stateMutability":"view"},{"type":"function","name":"superfluidToken","inputs":[],"outputs":[{"name":"","type":"address","internalType":"contract ISuperToken"}],"stateMutability":"view"},{"type":"function","name":"sybilScorer","inputs":[],"outputs":[{"name":"","type":"address","internalType":"contract ISybilScorer"}],"stateMutability":"view"},{"type":"function","name":"totalPointsActivated","inputs":[],"outputs":[{"name":"","type":"uint256","internalType":"uint256"}],"stateMutability":"view"},{"type":"function","name":"totalStaked","inputs":[],"outputs":[{"name":"","type":"uint256","internalType":"uint256"}],"stateMutability":"view"},{"type":"function","name":"totalVoterStakePct","inputs":[{"name":"","type":"address","internalType":"address"}],"outputs":[{"name":"","type":"uint256","internalType":"uint256"}],"stateMutability":"view"},{"type":"function","name":"updateStream","inputs":[{"name":"proposalId","type":"uint256","internalType":"uint256"},{"name":"newUnits","type":"uint128","internalType":"uint128"}],"outputs":[],"stateMutability":"nonpayable"},{"type":"function","name":"voterStakedProposals","inputs":[{"name":"","type":"address","internalType":"address"},{"name":"","type":"uint256","internalType":"uint256"}],"outputs":[{"name":"","type":"uint256","internalType":"uint256"}],"stateMutability":"view"},{"type":"function","name":"ydsStrategy","inputs":[],"outputs":[{"name":"","type":"address","internalType":"contract IYDSStrategy"}],"stateMutability":"view"},{"type":"event","name":"GDAInitialized","inputs":[{"name":"poolId","type":"uint256","indexed":true,"internalType":"uint256"},{"name":"gda","type":"address","indexed":true,"internalType":"address"},{"name":"superToken","type":"address","indexed":true,"internalType":"address"}],"anonymous":false},{"type":"event","name":"StreamStarted","inputs":[{"name":"proposalId","type":"uint256","indexed":true,"internalType":"uint256"},{"name":"beneficiary","type":"address","indexed":true,"internalType":"address"},{"name":"units","type":"uint128","indexed":true,"internalType":"uint128"},{"name":"timestamp","type":"uint256","indexed":false,"internalType":"uint256"}],"anonymous":false},{"type":"event","name":"StreamStopped","inputs":[{"name":"proposalId","type":"uint256","indexed":true,"internalType":"uint256"},{"name":"beneficiary","type":"address","indexed":true,"internalType":"address"},{"name":"timestamp","type":"uint256","indexed":true,"internalType":"uint256"}],"anonymous":false},{"type":"event","name":"StreamUpdated","inputs":[{"name":"proposalId","type":"uint256","indexed":true,"internalType":"uint256"},{"name":"beneficiary","type":"address","indexed":true,"internalType":"address"},{"name":"newUnits","type":"uint128","indexed":true,"internalType":"uint128"},{"name":"oldUnits","type":"uint128","indexed":false,"internalType":"uint128"},{"name":"timestamp","type":"uint256","indexed":false,"internalType":"uint256"}],"anonymous":false},{"type":"event","name":"StreamingEnabled","inputs":[{"name":"enabled","type":"bool","indexed":false,"internalType":"bool"}],"anonymous":false},{"type":"error","name":"GDANotConfigured","inputs":[]},{"type":"error","name":"InvalidUnits","inputs":[]},{"type":"error","name":"NoVaultConfigured","inputs":[]},{"type":"error","name":"NoYDSStrategy","inputs":[]},{"type":"error","name":"OnlyPendingRecipient","inputs":[]},{"type":"error","name":"ProposalNotFoundStream","inputs":[]},{"type":"error","name":"StreamAlreadyActive","inputs":[{"name":"proposalId","type":"uint256","internalType":"uint256"}]},{"type":"error","name":"StreamNotActive","inputs":[{"name":"proposalId","type":"uint256","internalType":"uint256"}]},{"type":"error","name":"StreamingNotEnabled","inputs":[]},{"type":"error","name":"SuperfluidOperationFailed","inputs":[{"name":"operation","type":"string","internalType":"string"}]},{"type":"error","name":"WrongProposalType","inputs":[]}],"bytecode":{"object":"0x608060405234801561001057600080fd5b50611848806100206000396000f3fe608060405234801561001057600080fd5b50600436106101b75760003560e01c8063013cf08b146101bc57806301cad2ba146101f157806305caa7f3146102075780630bece79c146102325780630c0512e914610245578063125fd1d91461024e5780632506b87014610257578063255ffb381461028d5780632dbd6fdd146102ad57806333960459146102cc578063351d9f96146102d557806341bb7605146102e25780634fbca33e1461036a5780635db64b99146103955780636003e414146103b557806360d01e7c146103c8578063626c47e8146104485780636e4f2ee9146104505780636ff91d9b1461048357806379ea88e6146104985780637a3c8b38146104ab578063817b1cd2146104b457806385d5089e146104bd578063868c57b8146104d05780638a05105a146104e35780639ac7b864146104f7578063a28889e11461050a578063a47ff7e514610535578063aba9ffee1461053f578063b4b9a10714610548578063b6c61f3114610551578063d4ec787914610564578063d69bec6a14610577578063e1f1235514610588578063f5be3f7c1461059b578063f8467821146105a4578063fe620efb146105b7575b600080fd5b6101cf6101ca3660046112d6565b6105bf565b6040516101e89d9c9b9a9998979695949392919061137c565b60405180910390f35b6101f961070d565b6040519081526020016101e8565b60825461021a906001600160a01b031681565b6040516001600160a01b0390911681526020016101e8565b607a5461021a906001600160a01b031681565b6101f9606f5481565b6101f960705481565b60735460745460755460765461026d9392919084565b6040805194855260208501939093529183015260608201526080016101e8565b6101f961029b3660046112d6565b60806020526000908152604090205481565b6077546102bf90610100900460ff1681565b6040516101e89190611446565b6101f9606d5481565b6077546102bf9060ff1681565b6103326102f03660046112d6565b6081602052600090815260409020805460018201546002830154600384015460048501546005909501546001600160a01b039485169593909416939192909186565b604080516001600160a01b039788168152969095166020870152938501929092526060840152608083015260a082015260c0016101e8565b61037d610378366004611475565b610756565b6040516001600160801b0390911681526020016101e8565b6101f96103a33660046114b6565b607e6020526000908152604090205481565b60795461021a906001600160a01b031681565b6104156103d63660046112d6565b60009081526084602052604090208054600182015460039092015460ff8216936101009092046001600160801b031692916001600160a01b0390911690565b6040805194151585526001600160801b039093166020850152918301526001600160a01b031660608201526080016101e8565b6101f9600381565b61047361045e3660046112d6565b60009081526084602052604090205460ff1690565b60405190151581526020016101e8565b6104966104913660046114b6565b6107a4565b005b6104966104a63660046114e8565b6108a4565b61037d61271081565b6101f960715481565b6104966104cb3660046112d6565b610904565b6101f96104de366004611505565b610a50565b60855461047390600160a01b900460ff1681565b610496610505366004611475565b610a81565b606e5461051d906001600160401b031681565b6040516001600160401b0390911681526020016101e8565b6078546101f99081565b6101f960725481565b61037d6103e881565b607c5461021a906001600160a01b031681565b607b5461021a906001600160a01b031681565b6085546001600160a01b031661021a565b610496610596366004611531565b610c2e565b6101f9611c2081565b60835461021a906001600160a01b031681565b610496610e3f565b607d602090815260009182526040918290208054600182015460028301546003840154600485015460058601546006870154600788015460088901548b51808d01909c52600a8a0180548d52600b8b0180549a9d999c989b979a6001600160a01b039788169a968816999790951697939660ff90931695939491928401916106469061156f565b80601f01602080910402602001604051908101604052809291908181526020018280546106729061156f565b80156106bf5780601f10610694576101008083540402835291602001916106bf565b820191906000526020600020905b8154815290600101906020018083116106a257829003601f168201915b50505091909252505060408051606081018252600c8501548152600d8501546020820152600e8501546001600160a01b031691810191909152600f840154601090940154929390929091508d565b600060015b606f5481116107525760008181526084602052604090205460ff1615610740578161073c816115bf565b9250505b8061074a816115bf565b915050610712565b5090565b600061271083111561077b57604051630e433c2360e31b815260040160405180910390fd5b612710610791846001600160801b0385166115d8565b61079b91906115ef565b90505b92915050565b6107ac610e88565b6107b4610f37565b6001600160a01b0381166107db57604051631e6ead2f60e31b815260040160405180910390fd5b608580546001600160a01b0319166001600160a01b038381169190911790915560825416156108625760825460009061081d906001600160a01b031683610f46565b90508061086057604051631938612760e11b815260206004820152600b60248201526a18dbdb9b9958dd141bdbdb60aa1b60448201526064015b60405180910390fd5b505b6082546068546040516001600160a01b0392831692841691907f87f8b3d9ebf5821f09f6294a59f3d5d65c729584f1b90d10868959cbb32050fd90600090a450565b6108ac610e88565b60858054821515600160a01b0260ff60a01b199091161790556040517fa402d4bdc590bedab7358981478c9973db2f6d076a74edc4e0199112c1d387f8906108f990831515815260200190565b60405180910390a150565b61090c610f37565b6000818152608460205260409020805460ff1661093f576040516314d66e2b60e31b815260048101839052602401610857565b6003810154608554604051631b16777760e01b81526001600160a01b0392831692909116908190631b1677779061097d908590600090600401611611565b6020604051808303816000875af19250505080156109b8575060408051601f3d908101601f191682019092526109b591810190611633565b60015b6109f257604051631938612760e11b815260206004820152600a60248201526973746f7053747265616d60b01b6044820152606401610857565b80610a0f5760405162461bcd60e51b815260040161085790611650565b83546001600160881b031916845543600185015560405142906001600160a01b0385169087906000805160206117dc83398151915290600090a45050505050565b607f6020528160005260406000208181548110610a6c57600080fd5b90600052602060002001600091509150505481565b610a89610f37565b6000828152608460205260409020805460ff16610abc576040516314d66e2b60e31b815260048101849052602401610857565b80546001600160801b0361010090910481169083168103610add5750505050565b6085546003830154604051631b16777760e01b81526001600160a01b03928316928392631b16777792610b1892909116908890600401611611565b6020604051808303816000875af1925050508015610b53575060408051601f3d908101601f19168201909252610b5091810190611633565b60015b610b8f57604051631938612760e11b815260206004820152600c60248201526b75706461746553747265616d60a01b6044820152606401610857565b80610bac5760405162461bcd60e51b815260040161085790611650565b8354610100600160881b0319166101006001600160801b03878116918202929092178655436001870155600386015460408051928352426020840152928616926001600160a01b039091169189917f8bd6a6f62ea54ecc3b6e30097a262265b30172af0884f41c578768cfa3cca0b691015b60405180910390a4505050505050565b610c36610f37565b608554600160a01b900460ff16610c6057604051634a4d18c960e01b815260040160405180910390fd5b806001600160801b0316600003610c8a57604051630e433c2360e31b815260040160405180910390fd5b6085546001600160a01b0316610cb357604051631e6ead2f60e31b815260040160405180910390fd5b6000838152608460205260409020805460ff1615610ce7576040516316c217e560e31b815260048101859052602401610857565b608554604051631b16777760e01b81526001600160a01b03909116908190631b16777790610d1b9087908790600401611611565b6020604051808303816000875af1925050508015610d56575060408051601f3d908101601f19168201909252610d5391810190611633565b60015b610da057604051631938612760e11b815260206004820152601a602482015279191a5cdd1c9a589d5d19551bd3595b58995c95da5d1a141bdbdb60321b6044820152606401610857565b80610dbd5760405162461bcd60e51b815260040161085790611650565b82546001600160801b03851661010081026001600160881b0319909216919091176001908117855543908501556003840180546001600160a01b0388166001600160a01b0319909116811790915560405188907f7e138d824811c702f9bd77873848ea643dc6464a9aee4de890a75653114829ba90610c1e9042815260200190565b610e47610e88565b60015b606f548111610e855760008181526084602052604090205460ff1615610e7357610e7381610f63565b80610e7d816115bf565b915050610e4a565b50565b607960009054906101000a90046001600160a01b03166001600160a01b0316636c53db9a6040518163ffffffff1660e01b8152600401602060405180830381865afa158015610edb573d6000803e3d6000fd5b505050506040513d601f19601f82011682018060405250810190610eff9190611682565b6001600160a01b0316336001600160a01b031614158015610f2b57506033546001600160a01b03163314155b15610f3557600080fd5b565b606854600003610f3557600080fd5b6040805160008082526020820190925261079b9084908490611031565b60008181526084602052604080822060855460038201549251631b16777760e01b815291936001600160a01b03918216938493631b16777793610fac9392169190600401611611565b6020604051808303816000875af1925050508015610fe7575060408051601f3d908101601f19168201909252610fe491810190611633565b60015b1561102c5782546001600160881b0319168355436001840155600383015460405142916001600160a01b03169086906000805160206117dc83398151915290600090a4505b505050565b600080600061103f86611157565b91509150816001600160a01b03166339255d5b82836001600160a01b031663f0b7b9158960006001600160401b0381111561107c5761107c61169f565b6040519080825280601f01601f1916602001820160405280156110a6576020820181803683370190505b506040516024016110b89291906116b5565b60408051808303601f1901815291815260208201805160e094851b6001600160e01b03909116179052519185901b6001600160e01b03191682526111039392509089906004016116d9565b6000604051808303816000875af1158015611122573d6000803e3d6000fd5b505050506040513d6000823e601f3d908101601f1916820160405261114a9190810190611719565b5060019695505050505050565b6000805160206117fc8339815191525460008051602061181c833981519152546001600160a01b0381166112a5576001600160a01b0382166111f857826001600160a01b03166320bc44256040518163ffffffff1660e01b8152600401602060405180830381865afa1580156111d1573d6000803e3d6000fd5b505050506040513d601f19601f820116820180604052508101906111f59190611682565b91505b604051635b69006f60e11b81527fdfd8ece9bfbcb8c5c540edb935641f63d67686490a1ab97f000288759f30a94660048201526001600160a01b0383169063b6d200de90602401602060405180830381865afa15801561125c573d6000803e3d6000fd5b505050506040513d601f19601f820116820180604052508101906112809190611682565b9050816000805160206117fc833981519152558060008051602061181c833981519152555b6001600160a01b0382166112bb576112bb6117c5565b6001600160a01b0381166112d1576112d16117c5565b915091565b6000602082840312156112e857600080fd5b5035919050565b634e487b7160e01b600052602160045260246000fd5b60005b83811015611320578181015183820152602001611308565b50506000910152565b60008151808452611341816020860160208601611305565b601f01601f19169290920160200192915050565b8051825260006020820151604060208501526113746040850182611329565b949350505050565b8d8152602081018d9052604081018c9052606081018b90526001600160a01b038a8116608083015289811660a0830152881660c082015260e0810187905260006101e0600788106113cf576113cf6112ef565b87610100840152806101208401526113e981840188611355565b8651610140850152602087015161016085015260408701516001600160a01b031661018085015291506114199050565b6101a08201939093526101c001529b9a5050505050505050505050565b60048110610e8557610e856112ef565b6020810161145383611436565b91905290565b80356001600160801b038116811461147057600080fd5b919050565b6000806040838503121561148857600080fd5b8235915061149860208401611459565b90509250929050565b6001600160a01b0381168114610e8557600080fd5b6000602082840312156114c857600080fd5b81356114d3816114a1565b9392505050565b8015158114610e8557600080fd5b6000602082840312156114fa57600080fd5b81356114d3816114da565b6000806040838503121561151857600080fd5b8235611523816114a1565b946020939093013593505050565b60008060006060848603121561154657600080fd5b833592506020840135611558816114a1565b915061156660408501611459565b90509250925092565b600181811c9082168061158357607f821691505b6020821081036115a357634e487b7160e01b600052602260045260246000fd5b50919050565b634e487b7160e01b600052601160045260246000fd5b6000600182016115d1576115d16115a9565b5060010190565b808202811582820484141761079e5761079e6115a9565b60008261160c57634e487b7160e01b600052601260045260246000fd5b500490565b6001600160a01b039290921682526001600160801b0316602082015260400190565b60006020828403121561164557600080fd5b81516114d3816114da565b6020808252601890820152771d5c19185d1953595b58995c955b9a5d1cc819985a5b195960421b604082015260600190565b60006020828403121561169457600080fd5b81516114d3816114a1565b634e487b7160e01b600052604160045260246000fd5b6001600160a01b038316815260406020820181905260009061137490830184611329565b6001600160a01b03841681526060602082018190526000906116fd90830185611329565b828103604084015261170f8185611329565b9695505050505050565b60006020828403121561172b57600080fd5b81516001600160401b038082111561174257600080fd5b818401915084601f83011261175657600080fd5b8151818111156117685761176861169f565b604051601f8201601f19908116603f011681019083821181831017156117905761179061169f565b816040528281528760208487010111156117a957600080fd5b6117ba836020830160208801611305565b979650505050505050565b634e487b7160e01b600052600160045260246000fdfe56860ea1e533ec2d5c0cd046505e36781bf2f208689d413aff05875d07deba0d65599bf746e17a00ea62e3610586992d88101b78eec3cf380706621fb97ea837c36f6c05164a669ecb6da53e218d77ae44d51cfc99f91e5a125a18de0949bee4a164736f6c6343000813000a","linkReferences":{}},"methodIdentifiers":{"DEFAULT_FUNDING_UNITS()":"b4b9a107","DISPUTE_COOLDOWN_SEC()":"f5be3f7c","RULING_OPTIONS()":"626c47e8","TOTAL_GDA_UNITS()":"7a3c8b38","arbitrableConfigs(uint256)":"41bb7605","calculateUnits(uint256,uint128)":"4fbca33e","cloneNonce()":"33960459","collateralVault()":"0bece79c","currentArbitrableConfigVersion()":"125fd1d9","cvParams()":"2506b870","cvVault()":"d4ec7879","disputeCount()":"a28889e1","disputeIdToProposalId(uint256)":"255ffb38","emergencyStopAllStreams()":"fe620efb","getActiveStreamCount()":"01cad2ba","getGDA()":"d69bec6a","getStreamState(uint256)":"60d01e7c","initializeGDA(address)":"6ff91d9b","isStreamActive(uint256)":"6e4f2ee9","pointConfig()":"a47ff7e5","pointSystem()":"2dbd6fdd","proposalCounter()":"0c0512e9","proposalType()":"351d9f96","proposals(uint256)":"013cf08b","registryCommunity()":"6003e414","setStreamingEnabled(bool)":"79ea88e6","startStream(uint256,address,uint128)":"e1f12355","stopStream(uint256)":"85d5089e","streamingEnabled()":"8a05105a","superfluidToken()":"05caa7f3","sybilScorer()":"b6c61f31","totalPointsActivated()":"aba9ffee","totalStaked()":"817b1cd2","totalVoterStakePct(address)":"5db64b99","updateStream(uint256,uint128)":"9ac7b864","voterStakedProposals(address,uint256)":"868c57b8","ydsStrategy()":"f8467821"},"storageLayout":{"storage":[{"astId":87054,"contract":"pkg/contracts/src/CVStrategy/facets/CVSuperfluidCoreFacet.sol:CVSuperfluidCoreFacet","label":"_initialized","offset":0,"slot":"0","type":"t_uint8"},{"astId":87056,"contract":"pkg/contracts/src/CVStrategy/facets/CVSuperfluidCoreFacet.sol:CVSuperfluidCoreFacet","label":"_initializing","offset":1,"slot":"0","type":"t_bool"},{"astId":87060,"contract":"pkg/contracts/src/CVStrategy/facets/CVSuperfluidCoreFacet.sol:CVSuperfluidCoreFacet","label":"__gap_init","offset":0,"slot":"1","type":"t_array(t_uint256)50_storage"},{"astId":87063,"contract":"pkg/contracts/src/CVStrategy/facets/CVSuperfluidCoreFacet.sol:CVSuperfluidCoreFacet","label":"_owner","offset":0,"slot":"51","type":"t_address"},{"astId":87067,"contract":"pkg/contracts/src/CVStrategy/facets/CVSuperfluidCoreFacet.sol:CVSuperfluidCoreFacet","label":"__gap_ownable","offset":0,"slot":"52","type":"t_array(t_uint256)49_storage"},{"astId":87071,"contract":"pkg/contracts/src/CVStrategy/facets/CVSuperfluidCoreFacet.sol:CVSuperfluidCoreFacet","label":"allo","offset":0,"slot":"101","type":"t_contract(IAllo)2629"},{"astId":87073,"contract":"pkg/contracts/src/CVStrategy/facets/CVSuperfluidCoreFacet.sol:CVSuperfluidCoreFacet","label":"strategyId","offset":0,"slot":"102","type":"t_bytes32"},{"astId":87075,"contract":"pkg/contracts/src/CVStrategy/facets/CVSuperfluidCoreFacet.sol:CVSuperfluidCoreFacet","label":"poolActive","offset":0,"slot":"103","type":"t_bool"},{"astId":87077,"contract":"pkg/contracts/src/CVStrategy/facets/CVSuperfluidCoreFacet.sol:CVSuperfluidCoreFacet","label":"poolId","offset":0,"slot":"104","type":"t_uint256"},{"astId":87079,"contract":"pkg/contracts/src/CVStrategy/facets/CVSuperfluidCoreFacet.sol:CVSuperfluidCoreFacet","label":"poolAmount","offset":0,"slot":"105","type":"t_uint256"},{"astId":87082,"contract":"pkg/contracts/src/CVStrategy/facets/CVSuperfluidCoreFacet.sol:CVSuperfluidCoreFacet","label":"collateralVaultTemplate","offset":0,"slot":"106","type":"t_address"},{"astId":87085,"contract":"pkg/contracts/src/CVStrategy/facets/CVSuperfluidCoreFacet.sol:CVSuperfluidCoreFacet","label":"cvVaultTemplate","offset":0,"slot":"107","type":"t_address"},{"astId":87088,"contract":"pkg/contracts/src/CVStrategy/facets/CVSuperfluidCoreFacet.sol:CVSuperfluidCoreFacet","label":"surpressStateMutabilityWarning","offset":0,"slot":"108","type":"t_uint256"},{"astId":87091,"contract":"pkg/contracts/src/CVStrategy/facets/CVSuperfluidCoreFacet.sol:CVSuperfluidCoreFacet","label":"cloneNonce","offset":0,"slot":"109","type":"t_uint256"},{"astId":87094,"contract":"pkg/contracts/src/CVStrategy/facets/CVSuperfluidCoreFacet.sol:CVSuperfluidCoreFacet","label":"disputeCount","offset":0,"slot":"110","type":"t_uint64"},{"astId":87097,"contract":"pkg/contracts/src/CVStrategy/facets/CVSuperfluidCoreFacet.sol:CVSuperfluidCoreFacet","label":"proposalCounter","offset":0,"slot":"111","type":"t_uint256"},{"astId":87100,"contract":"pkg/contracts/src/CVStrategy/facets/CVSuperfluidCoreFacet.sol:CVSuperfluidCoreFacet","label":"currentArbitrableConfigVersion","offset":0,"slot":"112","type":"t_uint256"},{"astId":87103,"contract":"pkg/contracts/src/CVStrategy/facets/CVSuperfluidCoreFacet.sol:CVSuperfluidCoreFacet","label":"totalStaked","offset":0,"slot":"113","type":"t_uint256"},{"astId":87106,"contract":"pkg/contracts/src/CVStrategy/facets/CVSuperfluidCoreFacet.sol:CVSuperfluidCoreFacet","label":"totalPointsActivated","offset":0,"slot":"114","type":"t_uint256"},{"astId":87110,"contract":"pkg/contracts/src/CVStrategy/facets/CVSuperfluidCoreFacet.sol:CVSuperfluidCoreFacet","label":"cvParams","offset":0,"slot":"115","type":"t_struct(CVParams)88147_storage"},{"astId":87114,"contract":"pkg/contracts/src/CVStrategy/facets/CVSuperfluidCoreFacet.sol:CVSuperfluidCoreFacet","label":"proposalType","offset":0,"slot":"119","type":"t_enum(ProposalType)88050"},{"astId":87118,"contract":"pkg/contracts/src/CVStrategy/facets/CVSuperfluidCoreFacet.sol:CVSuperfluidCoreFacet","label":"pointSystem","offset":1,"slot":"119","type":"t_enum(PointSystem)88055"},{"astId":87122,"contract":"pkg/contracts/src/CVStrategy/facets/CVSuperfluidCoreFacet.sol:CVSuperfluidCoreFacet","label":"pointConfig","offset":0,"slot":"120","type":"t_struct(PointSystemConfig)88124_storage"},{"astId":87126,"contract":"pkg/contracts/src/CVStrategy/facets/CVSuperfluidCoreFacet.sol:CVSuperfluidCoreFacet","label":"registryCommunity","offset":0,"slot":"121","type":"t_contract(IVotingPowerRegistry)104333"},{"astId":87130,"contract":"pkg/contracts/src/CVStrategy/facets/CVSuperfluidCoreFacet.sol:CVSuperfluidCoreFacet","label":"collateralVault","offset":0,"slot":"122","type":"t_contract(ICollateralVault)103612"},{"astId":87134,"contract":"pkg/contracts/src/CVStrategy/facets/CVSuperfluidCoreFacet.sol:CVSuperfluidCoreFacet","label":"cvVault","offset":0,"slot":"123","type":"t_contract(ICVVault)103579"},{"astId":87138,"contract":"pkg/contracts/src/CVStrategy/facets/CVSuperfluidCoreFacet.sol:CVSuperfluidCoreFacet","label":"sybilScorer","offset":0,"slot":"124","type":"t_contract(ISybilScorer)95778"},{"astId":87144,"contract":"pkg/contracts/src/CVStrategy/facets/CVSuperfluidCoreFacet.sol:CVSuperfluidCoreFacet","label":"proposals","offset":0,"slot":"125","type":"t_mapping(t_uint256,t_struct(Proposal)88116_storage)"},{"astId":87149,"contract":"pkg/contracts/src/CVStrategy/facets/CVSuperfluidCoreFacet.sol:CVSuperfluidCoreFacet","label":"totalVoterStakePct","offset":0,"slot":"126","type":"t_mapping(t_address,t_uint256)"},{"astId":87155,"contract":"pkg/contracts/src/CVStrategy/facets/CVSuperfluidCoreFacet.sol:CVSuperfluidCoreFacet","label":"voterStakedProposals","offset":0,"slot":"127","type":"t_mapping(t_address,t_array(t_uint256)dyn_storage)"},{"astId":87160,"contract":"pkg/contracts/src/CVStrategy/facets/CVSuperfluidCoreFacet.sol:CVSuperfluidCoreFacet","label":"disputeIdToProposalId","offset":0,"slot":"128","type":"t_mapping(t_uint256,t_uint256)"},{"astId":87166,"contract":"pkg/contracts/src/CVStrategy/facets/CVSuperfluidCoreFacet.sol:CVSuperfluidCoreFacet","label":"arbitrableConfigs","offset":0,"slot":"129","type":"t_mapping(t_uint256,t_struct(ArbitrableConfig)88138_storage)"},{"astId":87170,"contract":"pkg/contracts/src/CVStrategy/facets/CVSuperfluidCoreFacet.sol:CVSuperfluidCoreFacet","label":"superfluidToken","offset":0,"slot":"130","type":"t_contract(ISuperToken)74423"},{"astId":87174,"contract":"pkg/contracts/src/CVStrategy/facets/CVSuperfluidCoreFacet.sol:CVSuperfluidCoreFacet","label":"ydsStrategy","offset":0,"slot":"131","type":"t_contract(IYDSStrategy)104459"},{"astId":87191,"contract":"pkg/contracts/src/CVStrategy/facets/CVSuperfluidCoreFacet.sol:CVSuperfluidCoreFacet","label":"proposalStreams","offset":0,"slot":"132","type":"t_mapping(t_uint256,t_struct(StreamState)87185_storage)"},{"astId":87194,"contract":"pkg/contracts/src/CVStrategy/facets/CVSuperfluidCoreFacet.sol:CVSuperfluidCoreFacet","label":"superfluidGDA","offset":0,"slot":"133","type":"t_address"},{"astId":87197,"contract":"pkg/contracts/src/CVStrategy/facets/CVSuperfluidCoreFacet.sol:CVSuperfluidCoreFacet","label":"streamingEnabled","offset":20,"slot":"133","type":"t_bool"},{"astId":87202,"contract":"pkg/contracts/src/CVStrategy/facets/CVSuperfluidCoreFacet.sol:CVSuperfluidCoreFacet","label":"__gap","offset":0,"slot":"134","type":"t_array(t_uint256)45_storage"}],"types":{"t_address":{"encoding":"inplace","label":"address","numberOfBytes":"20"},"t_array(t_uint256)45_storage":{"encoding":"inplace","label":"uint256[45]","numberOfBytes":"1440","base":"t_uint256"},"t_array(t_uint256)49_storage":{"encoding":"inplace","label":"uint256[49]","numberOfBytes":"1568","base":"t_uint256"},"t_array(t_uint256)50_storage":{"encoding":"inplace","label":"uint256[50]","numberOfBytes":"1600","base":"t_uint256"},"t_array(t_uint256)dyn_storage":{"encoding":"dynamic_array","label":"uint256[]","numberOfBytes":"32","base":"t_uint256"},"t_bool":{"encoding":"inplace","label":"bool","numberOfBytes":"1"},"t_bytes32":{"encoding":"inplace","label":"bytes32","numberOfBytes":"32"},"t_contract(IAllo)2629":{"encoding":"inplace","label":"contract IAllo","numberOfBytes":"20"},"t_contract(IArbitrator)103495":{"encoding":"inplace","label":"contract IArbitrator","numberOfBytes":"20"},"t_contract(ICVVault)103579":{"encoding":"inplace","label":"contract ICVVault","numberOfBytes":"20"},"t_contract(ICollateralVault)103612":{"encoding":"inplace","label":"contract ICollateralVault","numberOfBytes":"20"},"t_contract(ISuperToken)74423":{"encoding":"inplace","label":"contract ISuperToken","numberOfBytes":"20"},"t_contract(ISybilScorer)95778":{"encoding":"inplace","label":"contract ISybilScorer","numberOfBytes":"20"},"t_contract(IVotingPowerRegistry)104333":{"encoding":"inplace","label":"contract IVotingPowerRegistry","numberOfBytes":"20"},"t_contract(IYDSStrategy)104459":{"encoding":"inplace","label":"contract IYDSStrategy","numberOfBytes":"20"},"t_enum(PointSystem)88055":{"encoding":"inplace","label":"enum PointSystem","numberOfBytes":"1"},"t_enum(ProposalStatus)88075":{"encoding":"inplace","label":"enum ProposalStatus","numberOfBytes":"1"},"t_enum(ProposalType)88050":{"encoding":"inplace","label":"enum ProposalType","numberOfBytes":"1"},"t_mapping(t_address,t_array(t_uint256)dyn_storage)":{"encoding":"mapping","key":"t_address","label":"mapping(address => uint256[])","numberOfBytes":"32","value":"t_array(t_uint256)dyn_storage"},"t_mapping(t_address,t_uint256)":{"encoding":"mapping","key":"t_address","label":"mapping(address => uint256)","numberOfBytes":"32","value":"t_uint256"},"t_mapping(t_uint256,t_struct(ArbitrableConfig)88138_storage)":{"encoding":"mapping","key":"t_uint256","label":"mapping(uint256 => struct ArbitrableConfig)","numberOfBytes":"32","value":"t_struct(ArbitrableConfig)88138_storage"},"t_mapping(t_uint256,t_struct(Proposal)88116_storage)":{"encoding":"mapping","key":"t_uint256","label":"mapping(uint256 => struct Proposal)","numberOfBytes":"32","value":"t_struct(Proposal)88116_storage"},"t_mapping(t_uint256,t_struct(StreamState)87185_storage)":{"encoding":"mapping","key":"t_uint256","label":"mapping(uint256 => struct CVStrategyBaseFacet.StreamState)","numberOfBytes":"32","value":"t_struct(StreamState)87185_storage"},"t_mapping(t_uint256,t_uint256)":{"encoding":"mapping","key":"t_uint256","label":"mapping(uint256 => uint256)","numberOfBytes":"32","value":"t_uint256"},"t_string_storage":{"encoding":"bytes","label":"string","numberOfBytes":"32"},"t_struct(ArbitrableConfig)88138_storage":{"encoding":"inplace","label":"struct ArbitrableConfig","numberOfBytes":"192","members":[{"astId":88127,"contract":"pkg/contracts/src/CVStrategy/facets/CVSuperfluidCoreFacet.sol:CVSuperfluidCoreFacet","label":"arbitrator","offset":0,"slot":"0","type":"t_contract(IArbitrator)103495"},{"astId":88129,"contract":"pkg/contracts/src/CVStrategy/facets/CVSuperfluidCoreFacet.sol:CVSuperfluidCoreFacet","label":"tribunalSafe","offset":0,"slot":"1","type":"t_address"},{"astId":88131,"contract":"pkg/contracts/src/CVStrategy/facets/CVSuperfluidCoreFacet.sol:CVSuperfluidCoreFacet","label":"submitterCollateralAmount","offset":0,"slot":"2","type":"t_uint256"},{"astId":88133,"contract":"pkg/contracts/src/CVStrategy/facets/CVSuperfluidCoreFacet.sol:CVSuperfluidCoreFacet","label":"challengerCollateralAmount","offset":0,"slot":"3","type":"t_uint256"},{"astId":88135,"contract":"pkg/contracts/src/CVStrategy/facets/CVSuperfluidCoreFacet.sol:CVSuperfluidCoreFacet","label":"defaultRuling","offset":0,"slot":"4","type":"t_uint256"},{"astId":88137,"contract":"pkg/contracts/src/CVStrategy/facets/CVSuperfluidCoreFacet.sol:CVSuperfluidCoreFacet","label":"defaultRulingTimeout","offset":0,"slot":"5","type":"t_uint256"}]},"t_struct(CVParams)88147_storage":{"encoding":"inplace","label":"struct CVParams","numberOfBytes":"128","members":[{"astId":88140,"contract":"pkg/contracts/src/CVStrategy/facets/CVSuperfluidCoreFacet.sol:CVSuperfluidCoreFacet","label":"maxRatio","offset":0,"slot":"0","type":"t_uint256"},{"astId":88142,"contract":"pkg/contracts/src/CVStrategy/facets/CVSuperfluidCoreFacet.sol:CVSuperfluidCoreFacet","label":"weight","offset":0,"slot":"1","type":"t_uint256"},{"astId":88144,"contract":"pkg/contracts/src/CVStrategy/facets/CVSuperfluidCoreFacet.sol:CVSuperfluidCoreFacet","label":"decay","offset":0,"slot":"2","type":"t_uint256"},{"astId":88146,"contract":"pkg/contracts/src/CVStrategy/facets/CVSuperfluidCoreFacet.sol:CVSuperfluidCoreFacet","label":"minThresholdPoints","offset":0,"slot":"3","type":"t_uint256"}]},"t_struct(Metadata)3080_storage":{"encoding":"inplace","label":"struct Metadata","numberOfBytes":"64","members":[{"astId":3076,"contract":"pkg/contracts/src/CVStrategy/facets/CVSuperfluidCoreFacet.sol:CVSuperfluidCoreFacet","label":"protocol","offset":0,"slot":"0","type":"t_uint256"},{"astId":3079,"contract":"pkg/contracts/src/CVStrategy/facets/CVSuperfluidCoreFacet.sol:CVSuperfluidCoreFacet","label":"pointer","offset":0,"slot":"1","type":"t_string_storage"}]},"t_struct(PointSystemConfig)88124_storage":{"encoding":"inplace","label":"struct PointSystemConfig","numberOfBytes":"32","members":[{"astId":88123,"contract":"pkg/contracts/src/CVStrategy/facets/CVSuperfluidCoreFacet.sol:CVSuperfluidCoreFacet","label":"maxAmount","offset":0,"slot":"0","type":"t_uint256"}]},"t_struct(Proposal)88116_storage":{"encoding":"inplace","label":"struct Proposal","numberOfBytes":"544","members":[{"astId":88084,"contract":"pkg/contracts/src/CVStrategy/facets/CVSuperfluidCoreFacet.sol:CVSuperfluidCoreFacet","label":"proposalId","offset":0,"slot":"0","type":"t_uint256"},{"astId":88086,"contract":"pkg/contracts/src/CVStrategy/facets/CVSuperfluidCoreFacet.sol:CVSuperfluidCoreFacet","label":"requestedAmount","offset":0,"slot":"1","type":"t_uint256"},{"astId":88088,"contract":"pkg/contracts/src/CVStrategy/facets/CVSuperfluidCoreFacet.sol:CVSuperfluidCoreFacet","label":"stakedAmount","offset":0,"slot":"2","type":"t_uint256"},{"astId":88090,"contract":"pkg/contracts/src/CVStrategy/facets/CVSuperfluidCoreFacet.sol:CVSuperfluidCoreFacet","label":"convictionLast","offset":0,"slot":"3","type":"t_uint256"},{"astId":88092,"contract":"pkg/contracts/src/CVStrategy/facets/CVSuperfluidCoreFacet.sol:CVSuperfluidCoreFacet","label":"beneficiary","offset":0,"slot":"4","type":"t_address"},{"astId":88094,"contract":"pkg/contracts/src/CVStrategy/facets/CVSuperfluidCoreFacet.sol:CVSuperfluidCoreFacet","label":"submitter","offset":0,"slot":"5","type":"t_address"},{"astId":88096,"contract":"pkg/contracts/src/CVStrategy/facets/CVSuperfluidCoreFacet.sol:CVSuperfluidCoreFacet","label":"requestedToken","offset":0,"slot":"6","type":"t_address"},{"astId":88098,"contract":"pkg/contracts/src/CVStrategy/facets/CVSuperfluidCoreFacet.sol:CVSuperfluidCoreFacet","label":"blockLast","offset":0,"slot":"7","type":"t_uint256"},{"astId":88101,"contract":"pkg/contracts/src/CVStrategy/facets/CVSuperfluidCoreFacet.sol:CVSuperfluidCoreFacet","label":"proposalStatus","offset":0,"slot":"8","type":"t_enum(ProposalStatus)88075"},{"astId":88105,"contract":"pkg/contracts/src/CVStrategy/facets/CVSuperfluidCoreFacet.sol:CVSuperfluidCoreFacet","label":"voterStakedPoints","offset":0,"slot":"9","type":"t_mapping(t_address,t_uint256)"},{"astId":88108,"contract":"pkg/contracts/src/CVStrategy/facets/CVSuperfluidCoreFacet.sol:CVSuperfluidCoreFacet","label":"metadata","offset":0,"slot":"10","type":"t_struct(Metadata)3080_storage"},{"astId":88111,"contract":"pkg/contracts/src/CVStrategy/facets/CVSuperfluidCoreFacet.sol:CVSuperfluidCoreFacet","label":"disputeInfo","offset":0,"slot":"12","type":"t_struct(ProposalDisputeInfo)88082_storage"},{"astId":88113,"contract":"pkg/contracts/src/CVStrategy/facets/CVSuperfluidCoreFacet.sol:CVSuperfluidCoreFacet","label":"lastDisputeCompletion","offset":0,"slot":"15","type":"t_uint256"},{"astId":88115,"contract":"pkg/contracts/src/CVStrategy/facets/CVSuperfluidCoreFacet.sol:CVSuperfluidCoreFacet","label":"arbitrableConfigVersion","offset":0,"slot":"16","type":"t_uint256"}]},"t_struct(ProposalDisputeInfo)88082_storage":{"encoding":"inplace","label":"struct ProposalDisputeInfo","numberOfBytes":"96","members":[{"astId":88077,"contract":"pkg/contracts/src/CVStrategy/facets/CVSuperfluidCoreFacet.sol:CVSuperfluidCoreFacet","label":"disputeId","offset":0,"slot":"0","type":"t_uint256"},{"astId":88079,"contract":"pkg/contracts/src/CVStrategy/facets/CVSuperfluidCoreFacet.sol:CVSuperfluidCoreFacet","label":"disputeTimestamp","offset":0,"slot":"1","type":"t_uint256"},{"astId":88081,"contract":"pkg/contracts/src/CVStrategy/facets/CVSuperfluidCoreFacet.sol:CVSuperfluidCoreFacet","label":"challenger","offset":0,"slot":"2","type":"t_address"}]},"t_struct(StreamState)87185_storage":{"encoding":"inplace","label":"struct CVStrategyBaseFacet.StreamState","numberOfBytes":"128","members":[{"astId":87176,"contract":"pkg/contracts/src/CVStrategy/facets/CVSuperfluidCoreFacet.sol:CVSuperfluidCoreFacet","label":"isActive","offset":0,"slot":"0","type":"t_bool"},{"astId":87178,"contract":"pkg/contracts/src/CVStrategy/facets/CVSuperfluidCoreFacet.sol:CVSuperfluidCoreFacet","label":"flowUnits","offset":1,"slot":"0","type":"t_uint128"},{"astId":87180,"contract":"pkg/contracts/src/CVStrategy/facets/CVSuperfluidCoreFacet.sol:CVSuperfluidCoreFacet","label":"lastUpdateBlock","offset":0,"slot":"1","type":"t_uint256"},{"astId":87182,"contract":"pkg/contracts/src/CVStrategy/facets/CVSuperfluidCoreFacet.sol:CVSuperfluidCoreFacet","label":"lastEvalBlock","offset":0,"slot":"2","type":"t_uint256"},{"astId":87184,"contract":"pkg/contracts/src/CVStrategy/facets/CVSuperfluidCoreFacet.sol:CVSuperfluidCoreFacet","label":"beneficiary","offset":0,"slot":"3","type":"t_address"}]},"t_uint128":{"encoding":"inplace","label":"uint128","numberOfBytes":"16"},"t_uint256":{"encoding":"inplace","label":"uint256","numberOfBytes":"32"},"t_uint64":{"encoding":"inplace","label":"uint64","numberOfBytes":"8"},"t_uint8":{"encoding":"inplace","label":"uint8","numberOfBytes":"1"}}},"id":161}