{"abi":[{"type":"function","name":"collateralVaultTemplate","inputs":[],"outputs":[{"name":"","type":"address","internalType":"address"}],"stateMutability":"view"},{"type":"function","name":"createRegistry","inputs":[{"name":"params","type":"tuple","internalType":"struct IRegistryCommunityV0_0.InitializeParams","components":[{"name":"_allo","type":"address","internalType":"address"},{"name":"_gardenToken","type":"address","internalType":"contract IERC20"},{"name":"_registerStakeAmount","type":"uint256","internalType":"uint256"},{"name":"_communityFee","type":"uint256","internalType":"uint256"},{"name":"_nonce","type":"uint256","internalType":"uint256"},{"name":"_registryFactory","type":"address","internalType":"address"},{"name":"_feeReceiver","type":"address","internalType":"address"},{"name":"_metadata","type":"tuple","internalType":"struct Metadata","components":[{"name":"protocol","type":"uint256","internalType":"uint256"},{"name":"pointer","type":"string","internalType":"string"}]},{"name":"_councilSafe","type":"address","internalType":"address payable"},{"name":"_communityName","type":"string","internalType":"string"},{"name":"_isKickEnabled","type":"bool","internalType":"bool"},{"name":"covenantIpfsHash","type":"string","internalType":"string"},{"name":"_strategyTemplate","type":"address","internalType":"address"}]}],"outputs":[{"name":"_createdRegistryAddress","type":"address","internalType":"address"}],"stateMutability":"nonpayable"},{"type":"function","name":"gardensFeeReceiver","inputs":[],"outputs":[{"name":"","type":"address","internalType":"address"}],"stateMutability":"view"},{"type":"function","name":"getCommunityValidity","inputs":[{"name":"_community","type":"address","internalType":"address"}],"outputs":[{"name":"","type":"bool","internalType":"bool"}],"stateMutability":"view"},{"type":"function","name":"getGardensFeeReceiver","inputs":[],"outputs":[{"name":"","type":"address","internalType":"address"}],"stateMutability":"view"},{"type":"function","name":"getProtocolFee","inputs":[{"name":"_community","type":"address","internalType":"address"}],"outputs":[{"name":"","type":"uint256","internalType":"uint256"}],"stateMutability":"view"},{"type":"function","name":"initialize","inputs":[{"name":"_gardensFeeReceiver","type":"address","internalType":"address"},{"name":"_registryCommunityTemplate","type":"address","internalType":"address"},{"name":"_collateralVaultTemplate","type":"address","internalType":"address"}],"outputs":[],"stateMutability":"nonpayable"},{"type":"function","name":"initializeV2","inputs":[],"outputs":[],"stateMutability":"nonpayable"},{"type":"function","name":"nonce","inputs":[],"outputs":[{"name":"","type":"uint256","internalType":"uint256"}],"stateMutability":"view"},{"type":"function","name":"owner","inputs":[],"outputs":[{"name":"","type":"address","internalType":"address"}],"stateMutability":"view"},{"type":"function","name":"proxiableUUID","inputs":[],"outputs":[{"name":"","type":"bytes32","internalType":"bytes32"}],"stateMutability":"view"},{"type":"function","name":"registryCommunityTemplate","inputs":[],"outputs":[{"name":"","type":"address","internalType":"address"}],"stateMutability":"view"},{"type":"function","name":"renounceOwnership","inputs":[],"outputs":[],"stateMutability":"nonpayable"},{"type":"function","name":"setCommunityValidity","inputs":[{"name":"_community","type":"address","internalType":"address"},{"name":"_isValid","type":"bool","internalType":"bool"}],"outputs":[],"stateMutability":"nonpayable"},{"type":"function","name":"setProtocolFee","inputs":[{"name":"_community","type":"address","internalType":"address"},{"name":"_newProtocolFee","type":"uint256","internalType":"uint256"}],"outputs":[],"stateMutability":"nonpayable"},{"type":"function","name":"setReceiverAddress","inputs":[{"name":"_newFeeReceiver","type":"address","internalType":"address"}],"outputs":[],"stateMutability":"nonpayable"},{"type":"function","name":"transferOwnership","inputs":[{"name":"newOwner","type":"address","internalType":"address"}],"outputs":[],"stateMutability":"nonpayable"},{"type":"function","name":"upgradeTo","inputs":[{"name":"newImplementation","type":"address","internalType":"address"}],"outputs":[],"stateMutability":"nonpayable"},{"type":"function","name":"upgradeToAndCall","inputs":[{"name":"newImplementation","type":"address","internalType":"address"},{"name":"data","type":"bytes","internalType":"bytes"}],"outputs":[],"stateMutability":"payable"},{"type":"event","name":"AdminChanged","inputs":[{"name":"previousAdmin","type":"address","indexed":false,"internalType":"address"},{"name":"newAdmin","type":"address","indexed":false,"internalType":"address"}],"anonymous":false},{"type":"event","name":"BeaconUpgraded","inputs":[{"name":"beacon","type":"address","indexed":true,"internalType":"address"}],"anonymous":false},{"type":"event","name":"CommunityCreated","inputs":[{"name":"_registryCommunity","type":"address","indexed":false,"internalType":"address"}],"anonymous":false},{"type":"event","name":"CommunityValiditySet","inputs":[{"name":"_community","type":"address","indexed":false,"internalType":"address"},{"name":"_isValid","type":"bool","indexed":false,"internalType":"bool"}],"anonymous":false},{"type":"event","name":"FeeReceiverSet","inputs":[{"name":"_newFeeReceiver","type":"address","indexed":false,"internalType":"address"}],"anonymous":false},{"type":"event","name":"Initialized","inputs":[{"name":"version","type":"uint8","indexed":false,"internalType":"uint8"}],"anonymous":false},{"type":"event","name":"OwnershipTransferred","inputs":[{"name":"previousOwner","type":"address","indexed":true,"internalType":"address"},{"name":"newOwner","type":"address","indexed":true,"internalType":"address"}],"anonymous":false},{"type":"event","name":"ProtocolFeeSet","inputs":[{"name":"_community","type":"address","indexed":false,"internalType":"address"},{"name":"_newProtocolFee","type":"uint256","indexed":false,"internalType":"uint256"}],"anonymous":false},{"type":"event","name":"Upgraded","inputs":[{"name":"implementation","type":"address","indexed":true,"internalType":"address"}],"anonymous":false},{"type":"error","name":"AddressCannotBeZero","inputs":[]},{"type":"error","name":"CommunityInvalid","inputs":[{"name":"_community","type":"address","internalType":"address"}]}],"bytecode":{"object":"0x60a06040523060805234801561001457600080fd5b50608051611e2161004c6000396000818161042401528181610467015281816104f80152818161053b01526105c00152611e216000f3fe608060405260043610620000f85760003560e01c806302c1d0b114620000fd5780630a992e0c14620001375780633659cfe6146200016b5780634f1ef286146200019257806352d1902d14620001a95780635a2c8ace14620001c15780635cd8a76b14620001e6578063715018a614620001fe57806377122d5614620002165780638279c7db14620002385780638a16135f146200025d5780638da5cb5b1462000282578063987435be146200029a578063affed0e014620002ba578063b5b3ca2c14620002d2578063b8bed90114620002f7578063c0c53b8b1462000319578063f2fde38b146200033e578063f5016b5e1462000363575b600080fd5b3480156200010a57600080fd5b506068546200011f906001600160a01b031681565b6040516200012e9190620010ad565b60405180910390f35b3480156200014457600080fd5b506200015c62000156366004620010e9565b620003b4565b6040519081526020016200012e565b3480156200017857600080fd5b50620001906200018a366004620010e9565b6200041a565b005b62000190620001a3366004620011c7565b620004ee565b348015620001b657600080fd5b506200015c620005b3565b348015620001ce57600080fd5b5062000190620001e036600462001242565b62000664565b348015620001f357600080fd5b5062000190620006d5565b3480156200020b57600080fd5b506200019062000769565b3480156200022357600080fd5b506069546200011f906001600160a01b031681565b3480156200024557600080fd5b506200019062000257366004620010e9565b62000781565b3480156200026a57600080fd5b506200011f6200027c36600462001314565b620007d2565b3480156200028f57600080fd5b506200011f620008ff565b348015620002a757600080fd5b506067546001600160a01b03166200011f565b348015620002c757600080fd5b506200015c60655481565b348015620002df57600080fd5b5062000190620002f136600462001485565b6200090e565b3480156200030457600080fd5b506067546200011f906001600160a01b031681565b3480156200032657600080fd5b506200019062000338366004620014b4565b6200096a565b3480156200034b57600080fd5b50620001906200035d366004620010e9565b62000aaf565b3480156200037057600080fd5b50620003a362000382366004620010e9565b6001600160a01b031660009081526066602052604090206001015460ff1690565b60405190151581526020016200012e565b6001600160a01b03811660009081526066602052604081206001015460ff16620003fe578160405163f5a6943d60e01b8152600401620003f59190620010ad565b60405180910390fd5b506001600160a01b031660009081526066602052604090205490565b6001600160a01b037f0000000000000000000000000000000000000000000000000000000000000000163003620004655760405162461bcd60e51b8152600401620003f59062001506565b7f00000000000000000000000000000000000000000000000000000000000000006001600160a01b03166200049962000b2b565b6001600160a01b031614620004c25760405162461bcd60e51b8152600401620003f59062001541565b620004cd8162000b48565b60408051600080825260208201909252620004eb9183919062000b52565b50565b6001600160a01b037f0000000000000000000000000000000000000000000000000000000000000000163003620005395760405162461bcd60e51b8152600401620003f59062001506565b7f00000000000000000000000000000000000000000000000000000000000000006001600160a01b03166200056d62000b2b565b6001600160a01b031614620005965760405162461bcd60e51b8152600401620003f59062001541565b620005a18262000b48565b620005af8282600162000b52565b5050565b6000306001600160a01b037f00000000000000000000000000000000000000000000000000000000000000001614620006505760405162461bcd60e51b815260206004820152603860248201527f555550535570677261646561626c653a206d757374206e6f742062652063616c6044820152771b1959081d1a1c9bdd59da0819195b1959d85d1958d85b1b60421b6064820152608401620003f5565b5060008051602062001d6583398151915290565b6200066e62000ccf565b6001600160a01b038216600081815260666020908152604091829020600101805460ff19168515159081179091558251938452908301527fecdcd3502799a6c41864ea2682236184e876f63e10f8d56c7768a3d501e89f6291015b60405180910390a15050565b600054600290610100900460ff16158015620006f8575060005460ff8083169116105b620007175760405162461bcd60e51b8152600401620003f5906200157c565b6000805461ffff191660ff8316176101001790556200073562000d32565b6000805461ff001916905560405160ff8216815260008051602062001d85833981519152906020015b60405180910390a150565b6200077362000ccf565b6200077f600062000d66565b565b6200078b62000ccf565b620007968162000db8565b606780546001600160a01b0319166001600160a01b03831617905560405160008051602062001dcc833981519152906200075e908390620010ad565b6065805460009182620007e583620015ca565b9091555060808301523060a08301526068546069546040516000926001600160a01b039081169263fa50f53d60e01b9262000827928892169060240162001667565b60408051601f198184030181529181526020820180516001600160e01b03166001600160e01b0319909416939093179092529051620008669062001092565b620008739291906200179a565b604051809103906000f08015801562000890573d6000803e3d6000fd5b506001600160a01b038116600090815260666020526040908190206001908101805460ff191690911790555190915081907fb4108a188495a1a681cdc0750af164011025a1773b41e93ff3e628adc037dc2990620008f0908390620010ad565b60405180910390a19392505050565b6033546001600160a01b031690565b6200091862000ccf565b6001600160a01b038216600081815260666020908152604091829020849055815192835282018390527fa1ee82e4f177a8017f33ddddac05b7ceab1de9d46f7195e15e8aa2e8b88f3b1c9101620006c9565b600054610100900460ff16158080156200098b5750600054600160ff909116105b80620009b057506200099d3062000de0565b158015620009b0575060005460ff166001145b620009cf5760405162461bcd60e51b8152600401620003f5906200157c565b6000805460ff191660011790558015620009f3576000805461ff0019166101001790555b620009fd62000d32565b600060655562000a0d8462000db8565b606780546001600160a01b038087166001600160a01b03199283161790925560688054868416908316179055606980549285169290911691909117905560405160008051602062001dcc8339815191529062000a6b908690620010ad565b60405180910390a1801562000aa9576000805461ff00191690556040516001815260008051602062001d858339815191529060200160405180910390a15b50505050565b62000ab962000ccf565b6001600160a01b03811662000b205760405162461bcd60e51b815260206004820152602660248201527f4f776e61626c653a206e6577206f776e657220697320746865207a65726f206160448201526564647265737360d01b6064820152608401620003f5565b620004eb8162000d66565b60008051602062001d65833981519152546001600160a01b031690565b620004eb62000ccf565b7f4910fdfa16fed3260ed0e7147f7cc6da11a60208b5b9406d12a635614ffd91435460ff161562000b8d5762000b888362000def565b505050565b826001600160a01b03166352d1902d6040518163ffffffff1660e01b8152600401602060405180830381865afa92505050801562000bea575060408051601f3d908101601f1916820190925262000be791810190620017c0565b60015b62000c4f5760405162461bcd60e51b815260206004820152602e60248201527f45524331393637557067726164653a206e657720696d706c656d656e7461746960448201526d6f6e206973206e6f74205555505360901b6064820152608401620003f5565b60008051602062001d65833981519152811462000cc15760405162461bcd60e51b815260206004820152602960248201527f45524331393637557067726164653a20756e737570706f727465642070726f786044820152681a58589b195555525160ba1b6064820152608401620003f5565b5062000b8883838362000e8e565b3362000cda620008ff565b6001600160a01b0316146200077f5760405162461bcd60e51b815260206004820181905260248201527f4f776e61626c653a2063616c6c6572206973206e6f7420746865206f776e65726044820152606401620003f5565b600054610100900460ff1662000d5c5760405162461bcd60e51b8152600401620003f590620017da565b6200077f62000eb9565b603380546001600160a01b038381166001600160a01b0319831681179093556040519116919082907f8be0079c531659141344cd1fd0a4f28419497f9722a3daafe3b4186f6b6457e090600090a35050565b6001600160a01b038116620004eb576040516303988b8160e61b815260040160405180910390fd5b6001600160a01b03163b151590565b62000dfa8162000de0565b62000e5e5760405162461bcd60e51b815260206004820152602d60248201527f455243313936373a206e657720696d706c656d656e746174696f6e206973206e60448201526c1bdd08184818dbdb9d1c9858dd609a1b6064820152608401620003f5565b60008051602062001d6583398151915280546001600160a01b0319166001600160a01b0392909216919091179055565b62000e998362000eee565b60008251118062000ea75750805b1562000b885762000aa9838362000f30565b600054610100900460ff1662000ee35760405162461bcd60e51b8152600401620003f590620017da565b6200077f3362000d66565b62000ef98162000def565b6040516001600160a01b038216907fbc7cd75a20ee27fd9adebab32041f755214dbc6bffa90cc0225b39da2e5c2d3b90600090a250565b606062000f58838360405180606001604052806027815260200162001da56027913962000f5f565b9392505050565b6060600080856001600160a01b03168560405162000f7e919062001825565b600060405180830381855af49150503d806000811462000fbb576040519150601f19603f3d011682016040523d82523d6000602084013e62000fc0565b606091505b509150915062000fd38683838762000fdd565b9695505050505050565b6060831562001051578251600003620010495762000ffb8562000de0565b620010495760405162461bcd60e51b815260206004820152601d60248201527f416464726573733a2063616c6c20746f206e6f6e2d636f6e74726163740000006044820152606401620003f5565b50816200105d565b6200105d838362001065565b949350505050565b815115620010765781518083602001fd5b8060405162461bcd60e51b8152600401620003f5919062001843565b6104ec806200185983390190565b6001600160a01b03169052565b6001600160a01b0391909116815260200190565b6001600160a01b0381168114620004eb57600080fd5b8035620010e481620010c1565b919050565b600060208284031215620010fc57600080fd5b813562000f5881620010c1565b634e487b7160e01b600052604160045260246000fd5b6040516101a081016001600160401b038111828210171562001145576200114562001109565b60405290565b60006001600160401b038084111562001168576200116862001109565b604051601f8501601f19908116603f0116810190828211818310171562001193576200119362001109565b81604052809350858152868686011115620011ad57600080fd5b858560208301376000602087830101525050509392505050565b60008060408385031215620011db57600080fd5b8235620011e881620010c1565b915060208301356001600160401b038111156200120457600080fd5b8301601f810185136200121657600080fd5b62001227858235602084016200114b565b9150509250929050565b80358015158114620010e457600080fd5b600080604083850312156200125657600080fd5b82356200126381620010c1565b9150620012736020840162001231565b90509250929050565b600082601f8301126200128e57600080fd5b62000f58838335602085016200114b565b600060408284031215620012b257600080fd5b604080519081016001600160401b038082118383101715620012d857620012d862001109565b81604052829350843583526020850135915080821115620012f857600080fd5b5062001307858286016200127c565b6020830152505092915050565b6000602082840312156200132757600080fd5b81356001600160401b03808211156200133f57600080fd5b908301906101a082860312156200135557600080fd5b6200135f6200111f565b6200136a83620010d7565b81526200137a60208401620010d7565b6020820152604083013560408201526060830135606082015260808301356080820152620013ab60a08401620010d7565b60a0820152620013be60c08401620010d7565b60c082015260e083013582811115620013d657600080fd5b620013e4878286016200129f565b60e083015250610100620013fa818501620010d7565b9082015261012083810135838111156200141357600080fd5b62001421888287016200127c565b8284015250506101406200143781850162001231565b9082015261016083810135838111156200145057600080fd5b6200145e888287016200127c565b828401525050610180915062001476828401620010d7565b91810191909152949350505050565b600080604083850312156200149957600080fd5b8235620014a681620010c1565b946020939093013593505050565b600080600060608486031215620014ca57600080fd5b8335620014d781620010c1565b92506020840135620014e981620010c1565b91506040840135620014fb81620010c1565b809150509250925092565b6020808252602c9082015260008051602062001d4583398151915260408201526b19195b1959d85d1958d85b1b60a21b606082015260800190565b6020808252602c9082015260008051602062001d4583398151915260408201526b6163746976652070726f787960a01b606082015260800190565b6020808252602e908201527f496e697469616c697a61626c653a20636f6e747261637420697320616c72656160408201526d191e481a5b9a5d1a585b1a5e995960921b606082015260800190565b600060018201620015eb57634e487b7160e01b600052601160045260246000fd5b5060010190565b60005b838110156200160f578181015183820152602001620015f5565b50506000910152565b6000815180845262001632816020860160208601620015f2565b601f01601f19169290920160200192915050565b8051825260006020820151604060208501526200105d604085018262001618565b604081526200167b604082018451620010a0565b60006020840151620016916060840182620010a0565b5060408401516080830152606084015160a0830152608084015160c083015260a0840151620016c460e0840182620010a0565b5060c0840151610100620016db81850183620010a0565b60e086015191506101a06101208181870152620016fd6101e087018562001646565b928801519293506101406200171587820185620010a0565b818901519350603f19915061016082888703018189015262001738868662001618565b9550818a015194506101809150620017538289018615159052565b89015187860383018489015293506200176d858562001618565b9450808901519350505050620017886101c0850182620010a0565b50905062000f586020830184620010a0565b6001600160a01b03831681526040602082018190526000906200105d9083018462001618565b600060208284031215620017d357600080fd5b5051919050565b6020808252602b908201527f496e697469616c697a61626c653a20636f6e7472616374206973206e6f74206960408201526a6e697469616c697a696e6760a81b606082015260800190565b6000825162001839818460208701620015f2565b9190910192915050565b60208152600062000f5860208301846200161856fe60806040526040516104ec3803806104ec833981016040819052610022916102e9565b61002e82826000610035565b5050610406565b61003e83610061565b60008251118061004b5750805b1561005c5761005a83836100a1565b505b505050565b61006a816100cd565b6040516001600160a01b038216907fbc7cd75a20ee27fd9adebab32041f755214dbc6bffa90cc0225b39da2e5c2d3b90600090a250565b60606100c683836040518060600160405280602781526020016104c56027913961017e565b9392505050565b6100d6816101f7565b61013d5760405162461bcd60e51b815260206004820152602d60248201527f455243313936373a206e657720696d706c656d656e746174696f6e206973206e60448201526c1bdd08184818dbdb9d1c9858dd609a1b60648201526084015b60405180910390fd5b7f360894a13ba1a3210667c828492db98dca3e2076cc3735a920a3ca505d382bbc80546001600160a01b0319166001600160a01b0392909216919091179055565b6060600080856001600160a01b03168560405161019b91906103b7565b600060405180830381855af49150503d80600081146101d6576040519150601f19603f3d011682016040523d82523d6000602084013e6101db565b606091505b5090925090506101ed86838387610206565b9695505050505050565b6001600160a01b03163b151590565b6060831561027357825160000361026c57610220856101f7565b61026c5760405162461bcd60e51b815260206004820152601d60248201527f416464726573733a2063616c6c20746f206e6f6e2d636f6e74726163740000006044820152606401610134565b508161027d565b61027d8383610285565b949350505050565b8151156102955781518083602001fd5b8060405162461bcd60e51b815260040161013491906103d3565b634e487b7160e01b600052604160045260246000fd5b60005b838110156102e05781810151838201526020016102c8565b50506000910152565b600080604083850312156102fc57600080fd5b82516001600160a01b038116811461031357600080fd5b60208401519092506001600160401b038082111561033057600080fd5b818501915085601f83011261034457600080fd5b815181811115610356576103566102af565b604051601f8201601f19908116603f0116810190838211818310171561037e5761037e6102af565b8160405282815288602084870101111561039757600080fd5b6103a88360208301602088016102c5565b80955050505050509250929050565b600082516103c98184602087016102c5565b9190910192915050565b60208152600082518060208401526103f28160408501602087016102c5565b601f01601f19169190910160400192915050565b60b1806104146000396000f3fe608060405236601057600e6013565b005b600e5b601f601b6021565b6058565b565b600060537f360894a13ba1a3210667c828492db98dca3e2076cc3735a920a3ca505d382bbc546001600160a01b031690565b905090565b3660008037600080366000845af43d6000803e8080156076573d6000f35b3d6000fdfea2646970667358221220aa3ca80ce19571d7c23aa504d6b5088a9d5bf4411e7c7dca4fb9bd3cfa395e7664736f6c63430008130033416464726573733a206c6f772d6c6576656c2064656c65676174652063616c6c206661696c656446756e6374696f6e206d7573742062652063616c6c6564207468726f75676820360894a13ba1a3210667c828492db98dca3e2076cc3735a920a3ca505d382bbc7f26b83ff96e1f2b6a682f133852f6798a09c465da95921460cefb3847402498416464726573733a206c6f772d6c6576656c2064656c65676174652063616c6c206661696c6564bdf37c276f641820b141429d245add2552b4118c0866e5a78638e3de5ef18d9da26469706673582212206b83e973d935721562d1937431304e0bee512b7f692fc9dedbc503857613b55564736f6c63430008130033","linkReferences":{}},"methodIdentifiers":{"collateralVaultTemplate()":"77122d56","createRegistry((address,address,uint256,uint256,uint256,address,address,(uint256,string),address,string,bool,string,address))":"8a16135f","gardensFeeReceiver()":"b8bed901","getCommunityValidity(address)":"f5016b5e","getGardensFeeReceiver()":"987435be","getProtocolFee(address)":"0a992e0c","initialize(address,address,address)":"c0c53b8b","initializeV2()":"5cd8a76b","nonce()":"affed0e0","owner()":"8da5cb5b","proxiableUUID()":"52d1902d","registryCommunityTemplate()":"02c1d0b1","renounceOwnership()":"715018a6","setCommunityValidity(address,bool)":"5a2c8ace","setProtocolFee(address,uint256)":"b5b3ca2c","setReceiverAddress(address)":"8279c7db","transferOwnership(address)":"f2fde38b","upgradeTo(address)":"3659cfe6","upgradeToAndCall(address,bytes)":"4f1ef286"},"storageLayout":{"storage":[{"astId":53071,"contract":"pkg/contracts/src/RegistryFactoryV0_1.sol:RegistryFactoryV0_1","label":"_initialized","offset":0,"slot":"0","type":"t_uint8"},{"astId":53074,"contract":"pkg/contracts/src/RegistryFactoryV0_1.sol:RegistryFactoryV0_1","label":"_initializing","offset":1,"slot":"0","type":"t_bool"},{"astId":53776,"contract":"pkg/contracts/src/RegistryFactoryV0_1.sol:RegistryFactoryV0_1","label":"__gap","offset":0,"slot":"1","type":"t_array(t_uint256)50_storage"},{"astId":52863,"contract":"pkg/contracts/src/RegistryFactoryV0_1.sol:RegistryFactoryV0_1","label":"_owner","offset":0,"slot":"51","type":"t_address"},{"astId":52983,"contract":"pkg/contracts/src/RegistryFactoryV0_1.sol:RegistryFactoryV0_1","label":"__gap","offset":0,"slot":"52","type":"t_array(t_uint256)49_storage"},{"astId":78218,"contract":"pkg/contracts/src/RegistryFactoryV0_1.sol:RegistryFactoryV0_1","label":"nonce","offset":0,"slot":"101","type":"t_uint256"},{"astId":78223,"contract":"pkg/contracts/src/RegistryFactoryV0_1.sol:RegistryFactoryV0_1","label":"communityToInfo","offset":0,"slot":"102","type":"t_mapping(t_address,t_struct(CommunityInfo)78211_storage)"},{"astId":78225,"contract":"pkg/contracts/src/RegistryFactoryV0_1.sol:RegistryFactoryV0_1","label":"gardensFeeReceiver","offset":0,"slot":"103","type":"t_address"},{"astId":78227,"contract":"pkg/contracts/src/RegistryFactoryV0_1.sol:RegistryFactoryV0_1","label":"registryCommunityTemplate","offset":0,"slot":"104","type":"t_address"},{"astId":78229,"contract":"pkg/contracts/src/RegistryFactoryV0_1.sol:RegistryFactoryV0_1","label":"collateralVaultTemplate","offset":0,"slot":"105","type":"t_address"},{"astId":78512,"contract":"pkg/contracts/src/RegistryFactoryV0_1.sol:RegistryFactoryV0_1","label":"__gap","offset":0,"slot":"106","type":"t_array(t_uint256)50_storage"}],"types":{"t_address":{"encoding":"inplace","label":"address","numberOfBytes":"20"},"t_array(t_uint256)49_storage":{"encoding":"inplace","label":"uint256[49]","numberOfBytes":"1568","base":"t_uint256"},"t_array(t_uint256)50_storage":{"encoding":"inplace","label":"uint256[50]","numberOfBytes":"1600","base":"t_uint256"},"t_bool":{"encoding":"inplace","label":"bool","numberOfBytes":"1"},"t_mapping(t_address,t_struct(CommunityInfo)78211_storage)":{"encoding":"mapping","key":"t_address","label":"mapping(address => struct CommunityInfo)","numberOfBytes":"32","value":"t_struct(CommunityInfo)78211_storage"},"t_struct(CommunityInfo)78211_storage":{"encoding":"inplace","label":"struct CommunityInfo","numberOfBytes":"64","members":[{"astId":78208,"contract":"pkg/contracts/src/RegistryFactoryV0_1.sol:RegistryFactoryV0_1","label":"fee","offset":0,"slot":"0","type":"t_uint256"},{"astId":78210,"contract":"pkg/contracts/src/RegistryFactoryV0_1.sol:RegistryFactoryV0_1","label":"valid","offset":0,"slot":"1","type":"t_bool"}]},"t_uint256":{"encoding":"inplace","label":"uint256","numberOfBytes":"32"},"t_uint8":{"encoding":"inplace","label":"uint8","numberOfBytes":"1"}}},"id":118}