{"abi":[{"type":"function","name":"DISPUTE_COOLDOWN_SEC","inputs":[],"outputs":[{"name":"","type":"uint256","internalType":"uint256"}],"stateMutability":"view"},{"type":"function","name":"RULING_OPTIONS","inputs":[],"outputs":[{"name":"","type":"uint256","internalType":"uint256"}],"stateMutability":"view"},{"type":"function","name":"arbitrableConfigs","inputs":[{"name":"","type":"uint256","internalType":"uint256"}],"outputs":[{"name":"arbitrator","type":"address","internalType":"contract IArbitrator"},{"name":"tribunalSafe","type":"address","internalType":"address"},{"name":"submitterCollateralAmount","type":"uint256","internalType":"uint256"},{"name":"challengerCollateralAmount","type":"uint256","internalType":"uint256"},{"name":"defaultRuling","type":"uint256","internalType":"uint256"},{"name":"defaultRulingTimeout","type":"uint256","internalType":"uint256"}],"stateMutability":"view"},{"type":"function","name":"cloneNonce","inputs":[],"outputs":[{"name":"","type":"uint256","internalType":"uint256"}],"stateMutability":"view"},{"type":"function","name":"collateralVault","inputs":[],"outputs":[{"name":"","type":"address","internalType":"contract ICollateralVault"}],"stateMutability":"view"},{"type":"function","name":"currentArbitrableConfigVersion","inputs":[],"outputs":[{"name":"","type":"uint256","internalType":"uint256"}],"stateMutability":"view"},{"type":"function","name":"cvParams","inputs":[],"outputs":[{"name":"maxRatio","type":"uint256","internalType":"uint256"},{"name":"weight","type":"uint256","internalType":"uint256"},{"name":"decay","type":"uint256","internalType":"uint256"},{"name":"minThresholdPoints","type":"uint256","internalType":"uint256"}],"stateMutability":"view"},{"type":"function","name":"disputeCount","inputs":[],"outputs":[{"name":"","type":"uint64","internalType":"uint64"}],"stateMutability":"view"},{"type":"function","name":"disputeIdToProposalId","inputs":[{"name":"","type":"uint256","internalType":"uint256"}],"outputs":[{"name":"","type":"uint256","internalType":"uint256"}],"stateMutability":"view"},{"type":"function","name":"disputeProposal","inputs":[{"name":"proposalId","type":"uint256","internalType":"uint256"},{"name":"context","type":"string","internalType":"string"},{"name":"_extraData","type":"bytes","internalType":"bytes"}],"outputs":[{"name":"disputeId","type":"uint256","internalType":"uint256"}],"stateMutability":"payable"},{"type":"function","name":"pointConfig","inputs":[],"outputs":[{"name":"maxAmount","type":"uint256","internalType":"uint256"}],"stateMutability":"view"},{"type":"function","name":"pointSystem","inputs":[],"outputs":[{"name":"","type":"uint8","internalType":"enum PointSystem"}],"stateMutability":"view"},{"type":"function","name":"proposalCounter","inputs":[],"outputs":[{"name":"","type":"uint256","internalType":"uint256"}],"stateMutability":"view"},{"type":"function","name":"proposalType","inputs":[],"outputs":[{"name":"","type":"uint8","internalType":"enum ProposalType"}],"stateMutability":"view"},{"type":"function","name":"proposals","inputs":[{"name":"","type":"uint256","internalType":"uint256"}],"outputs":[{"name":"proposalId","type":"uint256","internalType":"uint256"},{"name":"requestedAmount","type":"uint256","internalType":"uint256"},{"name":"stakedAmount","type":"uint256","internalType":"uint256"},{"name":"convictionLast","type":"uint256","internalType":"uint256"},{"name":"beneficiary","type":"address","internalType":"address"},{"name":"submitter","type":"address","internalType":"address"},{"name":"requestedToken","type":"address","internalType":"address"},{"name":"blockLast","type":"uint256","internalType":"uint256"},{"name":"proposalStatus","type":"uint8","internalType":"enum ProposalStatus"},{"name":"metadata","type":"tuple","internalType":"struct Metadata","components":[{"name":"protocol","type":"uint256","internalType":"uint256"},{"name":"pointer","type":"string","internalType":"string"}]},{"name":"disputeInfo","type":"tuple","internalType":"struct ProposalDisputeInfo","components":[{"name":"disputeId","type":"uint256","internalType":"uint256"},{"name":"disputeTimestamp","type":"uint256","internalType":"uint256"},{"name":"challenger","type":"address","internalType":"address"}]},{"name":"lastDisputeCompletion","type":"uint256","internalType":"uint256"},{"name":"arbitrableConfigVersion","type":"uint256","internalType":"uint256"},{"name":"creationTimestamp","type":"uint256","internalType":"uint256"}],"stateMutability":"view"},{"type":"function","name":"registryCommunity","inputs":[],"outputs":[{"name":"","type":"address","internalType":"contract RegistryCommunity"}],"stateMutability":"view"},{"type":"function","name":"rule","inputs":[{"name":"_disputeID","type":"uint256","internalType":"uint256"},{"name":"_ruling","type":"uint256","internalType":"uint256"}],"outputs":[],"stateMutability":"nonpayable"},{"type":"function","name":"superfluidToken","inputs":[],"outputs":[{"name":"","type":"address","internalType":"contract ISuperToken"}],"stateMutability":"view"},{"type":"function","name":"sybilScorer","inputs":[],"outputs":[{"name":"","type":"address","internalType":"contract ISybilScorer"}],"stateMutability":"view"},{"type":"function","name":"totalPointsActivated","inputs":[],"outputs":[{"name":"","type":"uint256","internalType":"uint256"}],"stateMutability":"view"},{"type":"function","name":"totalStaked","inputs":[],"outputs":[{"name":"","type":"uint256","internalType":"uint256"}],"stateMutability":"view"},{"type":"function","name":"totalVoterStakePct","inputs":[{"name":"","type":"address","internalType":"address"}],"outputs":[{"name":"","type":"uint256","internalType":"uint256"}],"stateMutability":"view"},{"type":"function","name":"voterStakedProposals","inputs":[{"name":"","type":"address","internalType":"address"},{"name":"","type":"uint256","internalType":"uint256"}],"outputs":[{"name":"","type":"uint256","internalType":"uint256"}],"stateMutability":"view"},{"type":"event","name":"ProposalDisputed","inputs":[{"name":"arbitrator","type":"address","indexed":false,"internalType":"contract IArbitrator"},{"name":"proposalId","type":"uint256","indexed":false,"internalType":"uint256"},{"name":"disputeId","type":"uint256","indexed":false,"internalType":"uint256"},{"name":"challenger","type":"address","indexed":false,"internalType":"address"},{"name":"context","type":"string","indexed":false,"internalType":"string"},{"name":"timestamp","type":"uint256","indexed":false,"internalType":"uint256"}],"anonymous":false},{"type":"event","name":"Ruling","inputs":[{"name":"_arbitrator","type":"address","indexed":true,"internalType":"contract IArbitrator"},{"name":"_disputeID","type":"uint256","indexed":true,"internalType":"uint256"},{"name":"_ruling","type":"uint256","indexed":false,"internalType":"uint256"}],"anonymous":false},{"type":"error","name":"ChallengerCollateralTooLow","inputs":[{"name":"sent","type":"uint256","internalType":"uint256"},{"name":"required","type":"uint256","internalType":"uint256"}]},{"type":"error","name":"DefaultRulingNotConfigured","inputs":[{"name":"proposalId","type":"uint256","internalType":"uint256"}]},{"type":"error","name":"DisputeCooldownActive","inputs":[{"name":"proposalId","type":"uint256","internalType":"uint256"},{"name":"secondsRemaining","type":"uint256","internalType":"uint256"}]},{"type":"error","name":"OnlyActiveProposal","inputs":[{"name":"proposalId","type":"uint256","internalType":"uint256"}]},{"type":"error","name":"OnlyAllo","inputs":[{"name":"sender","type":"address","internalType":"address"},{"name":"allo","type":"address","internalType":"address"}]},{"type":"error","name":"OnlyArbitrator","inputs":[{"name":"sender","type":"address","internalType":"address"},{"name":"arbitrator","type":"address","internalType":"address"}]},{"type":"error","name":"OnlyCouncilSafe","inputs":[{"name":"sender","type":"address","internalType":"address"},{"name":"councilSafe","type":"address","internalType":"address"},{"name":"owner","type":"address","internalType":"address"}]},{"type":"error","name":"OnlyCouncilSafeOrMember","inputs":[{"name":"sender","type":"address","internalType":"address"},{"name":"councilSafe","type":"address","internalType":"address"}]},{"type":"error","name":"OnlyInitialized","inputs":[{"name":"poolId","type":"uint256","internalType":"uint256"}]},{"type":"error","name":"OnlyMember","inputs":[{"name":"wallet","type":"address","internalType":"address"},{"name":"community","type":"address","internalType":"address"}]},{"type":"error","name":"OnlyRegistryCommunity","inputs":[{"name":"sender","type":"address","internalType":"address"},{"name":"registry","type":"address","internalType":"address"}]},{"type":"error","name":"OnlySubmitter","inputs":[{"name":"proposalId","type":"uint256","internalType":"uint256"},{"name":"submitter","type":"address","internalType":"address"},{"name":"sender","type":"address","internalType":"address"}]},{"type":"error","name":"ProposalDoesNotExist","inputs":[{"name":"proposalID","type":"uint256","internalType":"uint256"}]},{"type":"error","name":"ProposalStatusInvalid","inputs":[{"name":"proposalId","type":"uint256","internalType":"uint256"},{"name":"currentStatus","type":"uint8","internalType":"enum ProposalStatus"}]}],"bytecode":{"object":"0x608060405234801561001057600080fd5b50611534806100206000396000f3fe6080604052600436106101105760003560e01c8063013cf08b1461011557806305caa7f3146101585780630bece79c146101855780630c0512e9146101a5578063125fd1d9146101c95780632506b870146101df578063255ffb38146102225780632dbd6fdd1461024f578063311a6c561461027b578063339604591461029d578063351d9f96146102b357806341bb7605146102da5780635db64b991461036f5780636003e4141461039c578063626c47e8146103bc578063817b1cd2146103d1578063868c57b8146103e7578063a28889e114610407578063a47ff7e51461043f578063aba9ffee14610456578063b41596ec1461046c578063b6c61f311461047f578063f5be3f7c1461049f575b600080fd5b34801561012157600080fd5b50610135610130366004610ff7565b6104b5565b60405161014f9e9d9c9b9a99989796959493929190611095565b60405180910390f35b34801561016457600080fd5b50608054610178906001600160a01b031681565b60405161014f9190611149565b34801561019157600080fd5b50607954610178906001600160a01b031681565b3480156101b157600080fd5b506101bb606e5481565b60405190815260200161014f565b3480156101d557600080fd5b506101bb606f5481565b3480156101eb57600080fd5b506072546073546074546075546102029392919084565b60408051948552602085019390935291830152606082015260800161014f565b34801561022e57600080fd5b506101bb61023d366004610ff7565b607e6020526000908152604090205481565b34801561025b57600080fd5b5060765461026e90610100900460ff1681565b60405161014f919061115d565b34801561028757600080fd5b5061029b610296366004611177565b610608565b005b3480156102a957600080fd5b506101bb606c5481565b3480156102bf57600080fd5b506076546102cd9060ff1681565b60405161014f9190611199565b3480156102e657600080fd5b506103376102f5366004610ff7565b607f602052600090815260409020805460018201546002830154600384015460048501546005909501546001600160a01b039485169593909416939192909186565b604080516001600160a01b039788168152969095166020870152938501929092526060840152608083015260a082015260c00161014f565b34801561037b57600080fd5b506101bb61038a3660046111c2565b607c6020526000908152604090205481565b3480156103a857600080fd5b50607854610178906001600160a01b031681565b3480156103c857600080fd5b506101bb600381565b3480156103dd57600080fd5b506101bb60705481565b3480156103f357600080fd5b506101bb6104023660046111e6565b610bee565b34801561041357600080fd5b50606d54610427906001600160401b031681565b6040516001600160401b03909116815260200161014f565b34801561044b57600080fd5b506077546101bb9081565b34801561046257600080fd5b506101bb60715481565b6101bb61047a36600461125a565b610c1f565b34801561048b57600080fd5b50607a54610178906001600160a01b031681565b3480156104ab57600080fd5b506101bb611c2081565b607b602090815260009182526040918290208054600182015460028301546003840154600485015460058601546006870154600788015460088901548b51808d01909c52600a8a0180548d52600b8b0180549a9d999c989b979a6001600160a01b039788169a968816999790951697939660ff909316959394919284019161053c906112d3565b80601f0160208091040260200160405190810160405280929190818152602001828054610568906112d3565b80156105b55780601f1061058a576101008083540402835291602001916105b5565b820191906000526020600020905b81548152906001019060200180831161059857829003601f168201915b50505091909252505060408051606081018252600c8501548152600d8501546020820152600e8501546001600160a01b031691810191909152600f8401546010850154601190950154939491939092508e565b6000828152607e6020908152604080832054808452607b835281842060108101548552607f845293829020825160c08101845281546001600160a01b03908116825260018301541694810194909452600281015492840192909252600382015460608401526004820154608084015260059182015460a0840152929190600883015460ff16600681111561069e5761069e611010565b146106d257600882015460405163effc443f60e01b81526106c991859160ff9091169060040161130d565b60405180910390fd5b60a0810151600d8301546000916106e891611337565b42119050801581610703575081516001600160a01b03163314155b156107255781516040516377a14eaf60e11b81526106c9913391600401611350565b808061072f575084155b1561087b57816080015160000361075c57604051638365b47b60e01b8152600481018590526024016106c9565b81608001516001036107785760088301805460ff191660011790555b81608001516002036108055760088301805460ff191660061790556079546005840154604084810151905163099ea56b60e41b81526001600160a01b03938416936399ea56b0936107d2938a93929091169160040161136a565b600060405180830381600087803b1580156107ec57600080fd5b505af1158015610800573d6000803e3d6000fd5b505050505b607954600e840154606084015160405163099ea56b60e41b81526001600160a01b03938416936399ea56b093610844938a93929091169160040161136a565b600060405180830381600087803b15801561085e57600080fd5b505af1158015610872573d6000803e3d6000fd5b50505050610b57565b8460010361093b5760088301805460ff19166001179055607954600e84015460785460408051633629edcd60e11b815290516001600160a01b0394851694638969ab53948a9490821693911691636c53db9a916004808201926020929091908290030181865afa1580156108f3573d6000803e3d6000fd5b505050506040513d601f19601f820116820180604052508101906109179190611389565b86606001516040518563ffffffff1660e01b815260040161084494939291906113a6565b84600203610b575760088301805460ff19166006179055607954600e840154606084015160405163099ea56b60e41b81526001600160a01b03938416936399ea56b093610991938a93929091169160040161136a565b600060405180830381600087803b1580156109ab57600080fd5b505af11580156109bf573d6000803e3d6000fd5b5050607954600586015460785460408051633629edcd60e11b815290516001600160a01b039485169650638969ab5395508a949384169390921691636c53db9a916004808201926020929091908290030181865afa158015610a25573d6000803e3d6000fd5b505050506040513d601f19601f82011682018060405250810190610a499190611389565b606f546000908152607f60205260409020600290810154610a6a91906113cb565b6040518563ffffffff1660e01b8152600401610a8994939291906113a6565b600060405180830381600087803b158015610aa357600080fd5b505af1158015610ab7573d6000803e3d6000fd5b50506079546005860154600e870154606f546000908152607f602052604090206002908101546001600160a01b039485169650638969ab5395508a949384169390921691610b0591906113cb565b6040518563ffffffff1660e01b8152600401610b2494939291906113a6565b600060405180830381600087803b158015610b3e57600080fd5b505af1158015610b52573d6000803e3d6000fd5b505050505b606d80546001600160401b0316906000610b70836113ed565b91906101000a8154816001600160401b0302191690836001600160401b03160217905550504283600f01819055508582600001516001600160a01b03167f394027a5fa6e098a1191094d1719d6929b9abc535fcc0c8f448d6a4e7562227687604051610bde91815260200190565b60405180910390a3505050505050565b607d6020528160005260406000208181548110610c0a57600080fd5b90600052602060002001600091509150505481565b6000610c2a33610f53565b6000868152607b6020908152604080832060108101548452607f835292819020815160c08101835281546001600160a01b0390811682526001808401549091169482019490945260028201549281019290925260038101546060830152600481015460808301526005015460a082015290600883015460ff166006811115610cb457610cb4611010565b14610cdf57600882015460405163effc443f60e01b81526106c9918a9160ff9091169060040161130d565b8060600151341015610d135760608101516040516302ed70b960e61b815234600482015260248101919091526044016106c9565b600f82015415801590610d36575042611c2083600f0154610d349190611337565b115b15610d7b578742611c2084600f0154610d4f9190611337565b610d599190611410565b6040516303327a0360e01b8152600481019290925260248201526044016106c9565b6000816060015134610d8d9190611410565b607954606084015160405163240ff7c560e11b8152600481018d90523360248201529293506001600160a01b039091169163481fef8a91906044016000604051808303818588803b158015610de157600080fd5b505af1158015610df5573d6000803e3d6000fd5b5050845160405163c13517e160e01b81526001600160a01b03909116935063c13517e19250849150610e30906003908b908b9060040161144c565b60206040518083038185885af1158015610e4e573d6000803e3d6000fd5b50505050506040513d601f19601f82011682018060405250810190610e73919061146f565b60088401805491955060059160ff19166001830217905550600c830184905542600d840155600e830180546001600160a01b031916331790556000848152607e602052604081208a9055606d80546001600160401b031691610ed483611488565b91906101000a8154816001600160401b0302191690836001600160401b03160217905550507f034f6a48076db1bcaaa311ccdc43d473aff44d3918a76fe0fae27c8b3665016d82600001518a86338c8c89600c0160010154604051610f3f97969594939291906114b6565b60405180910390a150505095945050505050565b60785460405163288c314960e21b81526001600160a01b039091169063a230c52490610f83908490600401611149565b6020604051808303816000875af1158015610fa2573d6000803e3d6000fd5b505050506040513d601f19601f82011682018060405250810190610fc69190611505565b610ff457607854604051636332657560e11b81526106c99183916001600160a01b0390911690600401611350565b50565b60006020828403121561100957600080fd5b5035919050565b634e487b7160e01b600052602160045260246000fd5b6007811061103657611036611010565b9052565b805182526000602080830151604082860152805180604087015260005b8181101561107357828101840151878201606001528301611057565b506000606082880101526060601f19601f830116870101935050505092915050565b8e8152602081018e9052604081018d9052606081018c90526001600160a01b038b811660808301528a811660a0830152891660c082015260008860e08301526110e2610100830189611026565b6102006101208301526110f961020083018861103a565b865161014084015260208701516101608401526040909601516001600160a01b0316610180830152506101a08101939093526101c08301919091526101e0909101529a9950505050505050505050565b6001600160a01b0391909116815260200190565b602081016004831061117157611171611010565b91905290565b6000806040838503121561118a57600080fd5b50508035926020909101359150565b602081016003831061117157611171611010565b6001600160a01b0381168114610ff457600080fd5b6000602082840312156111d457600080fd5b81356111df816111ad565b9392505050565b600080604083850312156111f957600080fd5b8235611204816111ad565b946020939093013593505050565b60008083601f84011261122457600080fd5b5081356001600160401b0381111561123b57600080fd5b60208301915083602082850101111561125357600080fd5b9250929050565b60008060008060006060868803121561127257600080fd5b8535945060208601356001600160401b038082111561129057600080fd5b61129c89838a01611212565b909650945060408801359150808211156112b557600080fd5b506112c288828901611212565b969995985093965092949392505050565b600181811c908216806112e757607f821691505b60208210810361130757634e487b7160e01b600052602260045260246000fd5b50919050565b828152604081016111df6020830184611026565b634e487b7160e01b600052601160045260246000fd5b8082018082111561134a5761134a611321565b92915050565b6001600160a01b0392831681529116602082015260400190565b9283526001600160a01b03919091166020830152604082015260600190565b60006020828403121561139b57600080fd5b81516111df816111ad565b9384526001600160a01b03928316602085015291166040830152606082015260800190565b6000826113e857634e487b7160e01b600052601260045260246000fd5b500490565b60006001600160401b0382168061140657611406611321565b6000190192915050565b8181038181111561134a5761134a611321565b81835281816020850137506000828201602090810191909152601f909101601f19169091010190565b838152604060208201526000611466604083018486611423565b95945050505050565b60006020828403121561148157600080fd5b5051919050565b60006001600160401b038281166002600160401b031981016114ac576114ac611321565b6001019392505050565b6001600160a01b03888116825260208201889052604082018790528516606082015260c0608082018190526000906114f19083018587611423565b90508260a083015298975050505050505050565b60006020828403121561151757600080fd5b815180151581146111df57600080fdfea164736f6c6343000813000a","linkReferences":{}},"methodIdentifiers":{"DISPUTE_COOLDOWN_SEC()":"f5be3f7c","RULING_OPTIONS()":"626c47e8","arbitrableConfigs(uint256)":"41bb7605","cloneNonce()":"33960459","collateralVault()":"0bece79c","currentArbitrableConfigVersion()":"125fd1d9","cvParams()":"2506b870","disputeCount()":"a28889e1","disputeIdToProposalId(uint256)":"255ffb38","disputeProposal(uint256,string,bytes)":"b41596ec","pointConfig()":"a47ff7e5","pointSystem()":"2dbd6fdd","proposalCounter()":"0c0512e9","proposalType()":"351d9f96","proposals(uint256)":"013cf08b","registryCommunity()":"6003e414","rule(uint256,uint256)":"311a6c56","superfluidToken()":"05caa7f3","sybilScorer()":"b6c61f31","totalPointsActivated()":"aba9ffee","totalStaked()":"817b1cd2","totalVoterStakePct(address)":"5db64b99","voterStakedProposals(address,uint256)":"868c57b8"},"storageLayout":{"storage":[{"astId":71180,"contract":"pkg/contracts/src/CVStrategy/facets/CVDisputeFacet.sol:CVDisputeFacet","label":"_initialized","offset":0,"slot":"0","type":"t_uint8"},{"astId":71182,"contract":"pkg/contracts/src/CVStrategy/facets/CVDisputeFacet.sol:CVDisputeFacet","label":"_initializing","offset":1,"slot":"0","type":"t_bool"},{"astId":71186,"contract":"pkg/contracts/src/CVStrategy/facets/CVDisputeFacet.sol:CVDisputeFacet","label":"__gap_init","offset":0,"slot":"1","type":"t_array(t_uint256)50_storage"},{"astId":71189,"contract":"pkg/contracts/src/CVStrategy/facets/CVDisputeFacet.sol:CVDisputeFacet","label":"_owner","offset":0,"slot":"51","type":"t_address"},{"astId":71193,"contract":"pkg/contracts/src/CVStrategy/facets/CVDisputeFacet.sol:CVDisputeFacet","label":"__gap_ownable","offset":0,"slot":"52","type":"t_array(t_uint256)49_storage"},{"astId":71197,"contract":"pkg/contracts/src/CVStrategy/facets/CVDisputeFacet.sol:CVDisputeFacet","label":"allo","offset":0,"slot":"101","type":"t_contract(IAllo)350"},{"astId":71199,"contract":"pkg/contracts/src/CVStrategy/facets/CVDisputeFacet.sol:CVDisputeFacet","label":"strategyId","offset":0,"slot":"102","type":"t_bytes32"},{"astId":71201,"contract":"pkg/contracts/src/CVStrategy/facets/CVDisputeFacet.sol:CVDisputeFacet","label":"poolActive","offset":0,"slot":"103","type":"t_bool"},{"astId":71203,"contract":"pkg/contracts/src/CVStrategy/facets/CVDisputeFacet.sol:CVDisputeFacet","label":"poolId","offset":0,"slot":"104","type":"t_uint256"},{"astId":71205,"contract":"pkg/contracts/src/CVStrategy/facets/CVDisputeFacet.sol:CVDisputeFacet","label":"poolAmount","offset":0,"slot":"105","type":"t_uint256"},{"astId":71208,"contract":"pkg/contracts/src/CVStrategy/facets/CVDisputeFacet.sol:CVDisputeFacet","label":"collateralVaultTemplate","offset":0,"slot":"106","type":"t_address"},{"astId":71211,"contract":"pkg/contracts/src/CVStrategy/facets/CVDisputeFacet.sol:CVDisputeFacet","label":"surpressStateMutabilityWarning","offset":0,"slot":"107","type":"t_uint256"},{"astId":71214,"contract":"pkg/contracts/src/CVStrategy/facets/CVDisputeFacet.sol:CVDisputeFacet","label":"cloneNonce","offset":0,"slot":"108","type":"t_uint256"},{"astId":71217,"contract":"pkg/contracts/src/CVStrategy/facets/CVDisputeFacet.sol:CVDisputeFacet","label":"disputeCount","offset":0,"slot":"109","type":"t_uint64"},{"astId":71220,"contract":"pkg/contracts/src/CVStrategy/facets/CVDisputeFacet.sol:CVDisputeFacet","label":"proposalCounter","offset":0,"slot":"110","type":"t_uint256"},{"astId":71223,"contract":"pkg/contracts/src/CVStrategy/facets/CVDisputeFacet.sol:CVDisputeFacet","label":"currentArbitrableConfigVersion","offset":0,"slot":"111","type":"t_uint256"},{"astId":71226,"contract":"pkg/contracts/src/CVStrategy/facets/CVDisputeFacet.sol:CVDisputeFacet","label":"totalStaked","offset":0,"slot":"112","type":"t_uint256"},{"astId":71229,"contract":"pkg/contracts/src/CVStrategy/facets/CVDisputeFacet.sol:CVDisputeFacet","label":"totalPointsActivated","offset":0,"slot":"113","type":"t_uint256"},{"astId":71233,"contract":"pkg/contracts/src/CVStrategy/facets/CVDisputeFacet.sol:CVDisputeFacet","label":"cvParams","offset":0,"slot":"114","type":"t_struct(CVParams)72204_storage"},{"astId":71237,"contract":"pkg/contracts/src/CVStrategy/facets/CVDisputeFacet.sol:CVDisputeFacet","label":"proposalType","offset":0,"slot":"118","type":"t_enum(ProposalType)72105"},{"astId":71241,"contract":"pkg/contracts/src/CVStrategy/facets/CVDisputeFacet.sol:CVDisputeFacet","label":"pointSystem","offset":1,"slot":"118","type":"t_enum(PointSystem)72110"},{"astId":71245,"contract":"pkg/contracts/src/CVStrategy/facets/CVDisputeFacet.sol:CVDisputeFacet","label":"pointConfig","offset":0,"slot":"119","type":"t_struct(PointSystemConfig)72181_storage"},{"astId":71249,"contract":"pkg/contracts/src/CVStrategy/facets/CVDisputeFacet.sol:CVDisputeFacet","label":"registryCommunity","offset":0,"slot":"120","type":"t_contract(RegistryCommunity)78851"},{"astId":71253,"contract":"pkg/contracts/src/CVStrategy/facets/CVDisputeFacet.sol:CVDisputeFacet","label":"collateralVault","offset":0,"slot":"121","type":"t_contract(ICollateralVault)84251"},{"astId":71257,"contract":"pkg/contracts/src/CVStrategy/facets/CVDisputeFacet.sol:CVDisputeFacet","label":"sybilScorer","offset":0,"slot":"122","type":"t_contract(ISybilScorer)76696"},{"astId":71263,"contract":"pkg/contracts/src/CVStrategy/facets/CVDisputeFacet.sol:CVDisputeFacet","label":"proposals","offset":0,"slot":"123","type":"t_mapping(t_uint256,t_struct(Proposal)72173_storage)"},{"astId":71268,"contract":"pkg/contracts/src/CVStrategy/facets/CVDisputeFacet.sol:CVDisputeFacet","label":"totalVoterStakePct","offset":0,"slot":"124","type":"t_mapping(t_address,t_uint256)"},{"astId":71274,"contract":"pkg/contracts/src/CVStrategy/facets/CVDisputeFacet.sol:CVDisputeFacet","label":"voterStakedProposals","offset":0,"slot":"125","type":"t_mapping(t_address,t_array(t_uint256)dyn_storage)"},{"astId":71279,"contract":"pkg/contracts/src/CVStrategy/facets/CVDisputeFacet.sol:CVDisputeFacet","label":"disputeIdToProposalId","offset":0,"slot":"126","type":"t_mapping(t_uint256,t_uint256)"},{"astId":71285,"contract":"pkg/contracts/src/CVStrategy/facets/CVDisputeFacet.sol:CVDisputeFacet","label":"arbitrableConfigs","offset":0,"slot":"127","type":"t_mapping(t_uint256,t_struct(ArbitrableConfig)72195_storage)"},{"astId":71289,"contract":"pkg/contracts/src/CVStrategy/facets/CVDisputeFacet.sol:CVDisputeFacet","label":"superfluidToken","offset":0,"slot":"128","type":"t_contract(ISuperToken)67434"},{"astId":71294,"contract":"pkg/contracts/src/CVStrategy/facets/CVDisputeFacet.sol:CVDisputeFacet","label":"__gap","offset":0,"slot":"129","type":"t_array(t_uint256)49_storage"}],"types":{"t_address":{"encoding":"inplace","label":"address","numberOfBytes":"20"},"t_array(t_uint256)49_storage":{"encoding":"inplace","label":"uint256[49]","numberOfBytes":"1568","base":"t_uint256"},"t_array(t_uint256)50_storage":{"encoding":"inplace","label":"uint256[50]","numberOfBytes":"1600","base":"t_uint256"},"t_array(t_uint256)dyn_storage":{"encoding":"dynamic_array","label":"uint256[]","numberOfBytes":"32","base":"t_uint256"},"t_bool":{"encoding":"inplace","label":"bool","numberOfBytes":"1"},"t_bytes32":{"encoding":"inplace","label":"bytes32","numberOfBytes":"32"},"t_contract(IAllo)350":{"encoding":"inplace","label":"contract IAllo","numberOfBytes":"20"},"t_contract(IArbitrator)84218":{"encoding":"inplace","label":"contract IArbitrator","numberOfBytes":"20"},"t_contract(ICollateralVault)84251":{"encoding":"inplace","label":"contract ICollateralVault","numberOfBytes":"20"},"t_contract(ISuperToken)67434":{"encoding":"inplace","label":"contract ISuperToken","numberOfBytes":"20"},"t_contract(ISybilScorer)76696":{"encoding":"inplace","label":"contract ISybilScorer","numberOfBytes":"20"},"t_contract(RegistryCommunity)78851":{"encoding":"inplace","label":"contract RegistryCommunity","numberOfBytes":"20"},"t_enum(PointSystem)72110":{"encoding":"inplace","label":"enum PointSystem","numberOfBytes":"1"},"t_enum(ProposalStatus)72130":{"encoding":"inplace","label":"enum ProposalStatus","numberOfBytes":"1"},"t_enum(ProposalType)72105":{"encoding":"inplace","label":"enum ProposalType","numberOfBytes":"1"},"t_mapping(t_address,t_array(t_uint256)dyn_storage)":{"encoding":"mapping","key":"t_address","label":"mapping(address => uint256[])","numberOfBytes":"32","value":"t_array(t_uint256)dyn_storage"},"t_mapping(t_address,t_uint256)":{"encoding":"mapping","key":"t_address","label":"mapping(address => uint256)","numberOfBytes":"32","value":"t_uint256"},"t_mapping(t_uint256,t_struct(ArbitrableConfig)72195_storage)":{"encoding":"mapping","key":"t_uint256","label":"mapping(uint256 => struct ArbitrableConfig)","numberOfBytes":"32","value":"t_struct(ArbitrableConfig)72195_storage"},"t_mapping(t_uint256,t_struct(Proposal)72173_storage)":{"encoding":"mapping","key":"t_uint256","label":"mapping(uint256 => struct Proposal)","numberOfBytes":"32","value":"t_struct(Proposal)72173_storage"},"t_mapping(t_uint256,t_uint256)":{"encoding":"mapping","key":"t_uint256","label":"mapping(uint256 => uint256)","numberOfBytes":"32","value":"t_uint256"},"t_string_storage":{"encoding":"bytes","label":"string","numberOfBytes":"32"},"t_struct(ArbitrableConfig)72195_storage":{"encoding":"inplace","label":"struct ArbitrableConfig","numberOfBytes":"192","members":[{"astId":72184,"contract":"pkg/contracts/src/CVStrategy/facets/CVDisputeFacet.sol:CVDisputeFacet","label":"arbitrator","offset":0,"slot":"0","type":"t_contract(IArbitrator)84218"},{"astId":72186,"contract":"pkg/contracts/src/CVStrategy/facets/CVDisputeFacet.sol:CVDisputeFacet","label":"tribunalSafe","offset":0,"slot":"1","type":"t_address"},{"astId":72188,"contract":"pkg/contracts/src/CVStrategy/facets/CVDisputeFacet.sol:CVDisputeFacet","label":"submitterCollateralAmount","offset":0,"slot":"2","type":"t_uint256"},{"astId":72190,"contract":"pkg/contracts/src/CVStrategy/facets/CVDisputeFacet.sol:CVDisputeFacet","label":"challengerCollateralAmount","offset":0,"slot":"3","type":"t_uint256"},{"astId":72192,"contract":"pkg/contracts/src/CVStrategy/facets/CVDisputeFacet.sol:CVDisputeFacet","label":"defaultRuling","offset":0,"slot":"4","type":"t_uint256"},{"astId":72194,"contract":"pkg/contracts/src/CVStrategy/facets/CVDisputeFacet.sol:CVDisputeFacet","label":"defaultRulingTimeout","offset":0,"slot":"5","type":"t_uint256"}]},"t_struct(CVParams)72204_storage":{"encoding":"inplace","label":"struct CVParams","numberOfBytes":"128","members":[{"astId":72197,"contract":"pkg/contracts/src/CVStrategy/facets/CVDisputeFacet.sol:CVDisputeFacet","label":"maxRatio","offset":0,"slot":"0","type":"t_uint256"},{"astId":72199,"contract":"pkg/contracts/src/CVStrategy/facets/CVDisputeFacet.sol:CVDisputeFacet","label":"weight","offset":0,"slot":"1","type":"t_uint256"},{"astId":72201,"contract":"pkg/contracts/src/CVStrategy/facets/CVDisputeFacet.sol:CVDisputeFacet","label":"decay","offset":0,"slot":"2","type":"t_uint256"},{"astId":72203,"contract":"pkg/contracts/src/CVStrategy/facets/CVDisputeFacet.sol:CVDisputeFacet","label":"minThresholdPoints","offset":0,"slot":"3","type":"t_uint256"}]},"t_struct(Metadata)801_storage":{"encoding":"inplace","label":"struct Metadata","numberOfBytes":"64","members":[{"astId":797,"contract":"pkg/contracts/src/CVStrategy/facets/CVDisputeFacet.sol:CVDisputeFacet","label":"protocol","offset":0,"slot":"0","type":"t_uint256"},{"astId":800,"contract":"pkg/contracts/src/CVStrategy/facets/CVDisputeFacet.sol:CVDisputeFacet","label":"pointer","offset":0,"slot":"1","type":"t_string_storage"}]},"t_struct(PointSystemConfig)72181_storage":{"encoding":"inplace","label":"struct PointSystemConfig","numberOfBytes":"32","members":[{"astId":72180,"contract":"pkg/contracts/src/CVStrategy/facets/CVDisputeFacet.sol:CVDisputeFacet","label":"maxAmount","offset":0,"slot":"0","type":"t_uint256"}]},"t_struct(Proposal)72173_storage":{"encoding":"inplace","label":"struct Proposal","numberOfBytes":"576","members":[{"astId":72139,"contract":"pkg/contracts/src/CVStrategy/facets/CVDisputeFacet.sol:CVDisputeFacet","label":"proposalId","offset":0,"slot":"0","type":"t_uint256"},{"astId":72141,"contract":"pkg/contracts/src/CVStrategy/facets/CVDisputeFacet.sol:CVDisputeFacet","label":"requestedAmount","offset":0,"slot":"1","type":"t_uint256"},{"astId":72143,"contract":"pkg/contracts/src/CVStrategy/facets/CVDisputeFacet.sol:CVDisputeFacet","label":"stakedAmount","offset":0,"slot":"2","type":"t_uint256"},{"astId":72145,"contract":"pkg/contracts/src/CVStrategy/facets/CVDisputeFacet.sol:CVDisputeFacet","label":"convictionLast","offset":0,"slot":"3","type":"t_uint256"},{"astId":72147,"contract":"pkg/contracts/src/CVStrategy/facets/CVDisputeFacet.sol:CVDisputeFacet","label":"beneficiary","offset":0,"slot":"4","type":"t_address"},{"astId":72149,"contract":"pkg/contracts/src/CVStrategy/facets/CVDisputeFacet.sol:CVDisputeFacet","label":"submitter","offset":0,"slot":"5","type":"t_address"},{"astId":72151,"contract":"pkg/contracts/src/CVStrategy/facets/CVDisputeFacet.sol:CVDisputeFacet","label":"requestedToken","offset":0,"slot":"6","type":"t_address"},{"astId":72153,"contract":"pkg/contracts/src/CVStrategy/facets/CVDisputeFacet.sol:CVDisputeFacet","label":"blockLast","offset":0,"slot":"7","type":"t_uint256"},{"astId":72156,"contract":"pkg/contracts/src/CVStrategy/facets/CVDisputeFacet.sol:CVDisputeFacet","label":"proposalStatus","offset":0,"slot":"8","type":"t_enum(ProposalStatus)72130"},{"astId":72160,"contract":"pkg/contracts/src/CVStrategy/facets/CVDisputeFacet.sol:CVDisputeFacet","label":"voterStakedPoints","offset":0,"slot":"9","type":"t_mapping(t_address,t_uint256)"},{"astId":72163,"contract":"pkg/contracts/src/CVStrategy/facets/CVDisputeFacet.sol:CVDisputeFacet","label":"metadata","offset":0,"slot":"10","type":"t_struct(Metadata)801_storage"},{"astId":72166,"contract":"pkg/contracts/src/CVStrategy/facets/CVDisputeFacet.sol:CVDisputeFacet","label":"disputeInfo","offset":0,"slot":"12","type":"t_struct(ProposalDisputeInfo)72137_storage"},{"astId":72168,"contract":"pkg/contracts/src/CVStrategy/facets/CVDisputeFacet.sol:CVDisputeFacet","label":"lastDisputeCompletion","offset":0,"slot":"15","type":"t_uint256"},{"astId":72170,"contract":"pkg/contracts/src/CVStrategy/facets/CVDisputeFacet.sol:CVDisputeFacet","label":"arbitrableConfigVersion","offset":0,"slot":"16","type":"t_uint256"},{"astId":72172,"contract":"pkg/contracts/src/CVStrategy/facets/CVDisputeFacet.sol:CVDisputeFacet","label":"creationTimestamp","offset":0,"slot":"17","type":"t_uint256"}]},"t_struct(ProposalDisputeInfo)72137_storage":{"encoding":"inplace","label":"struct ProposalDisputeInfo","numberOfBytes":"96","members":[{"astId":72132,"contract":"pkg/contracts/src/CVStrategy/facets/CVDisputeFacet.sol:CVDisputeFacet","label":"disputeId","offset":0,"slot":"0","type":"t_uint256"},{"astId":72134,"contract":"pkg/contracts/src/CVStrategy/facets/CVDisputeFacet.sol:CVDisputeFacet","label":"disputeTimestamp","offset":0,"slot":"1","type":"t_uint256"},{"astId":72136,"contract":"pkg/contracts/src/CVStrategy/facets/CVDisputeFacet.sol:CVDisputeFacet","label":"challenger","offset":0,"slot":"2","type":"t_address"}]},"t_uint256":{"encoding":"inplace","label":"uint256","numberOfBytes":"32"},"t_uint64":{"encoding":"inplace","label":"uint64","numberOfBytes":"8"},"t_uint8":{"encoding":"inplace","label":"uint8","numberOfBytes":"1"}}},"id":110}