{"abi":[{"type":"function","name":"DISPUTE_COOLDOWN_SEC","inputs":[],"outputs":[{"name":"","type":"uint256","internalType":"uint256"}],"stateMutability":"view"},{"type":"function","name":"RULING_OPTIONS","inputs":[],"outputs":[{"name":"","type":"uint256","internalType":"uint256"}],"stateMutability":"view"},{"type":"function","name":"arbitrableConfigs","inputs":[{"name":"","type":"uint256","internalType":"uint256"}],"outputs":[{"name":"arbitrator","type":"address","internalType":"contract IArbitrator"},{"name":"tribunalSafe","type":"address","internalType":"address"},{"name":"submitterCollateralAmount","type":"uint256","internalType":"uint256"},{"name":"challengerCollateralAmount","type":"uint256","internalType":"uint256"},{"name":"defaultRuling","type":"uint256","internalType":"uint256"},{"name":"defaultRulingTimeout","type":"uint256","internalType":"uint256"}],"stateMutability":"view"},{"type":"function","name":"cloneNonce","inputs":[],"outputs":[{"name":"","type":"uint256","internalType":"uint256"}],"stateMutability":"view"},{"type":"function","name":"collateralVault","inputs":[],"outputs":[{"name":"","type":"address","internalType":"contract ICollateralVault"}],"stateMutability":"view"},{"type":"function","name":"currentArbitrableConfigVersion","inputs":[],"outputs":[{"name":"","type":"uint256","internalType":"uint256"}],"stateMutability":"view"},{"type":"function","name":"cvParams","inputs":[],"outputs":[{"name":"maxRatio","type":"uint256","internalType":"uint256"},{"name":"weight","type":"uint256","internalType":"uint256"},{"name":"decay","type":"uint256","internalType":"uint256"},{"name":"minThresholdPoints","type":"uint256","internalType":"uint256"}],"stateMutability":"view"},{"type":"function","name":"disputeCount","inputs":[],"outputs":[{"name":"","type":"uint64","internalType":"uint64"}],"stateMutability":"view"},{"type":"function","name":"disputeIdToProposalId","inputs":[{"name":"","type":"uint256","internalType":"uint256"}],"outputs":[{"name":"","type":"uint256","internalType":"uint256"}],"stateMutability":"view"},{"type":"function","name":"disputeProposal","inputs":[{"name":"proposalId","type":"uint256","internalType":"uint256"},{"name":"context","type":"string","internalType":"string"},{"name":"_extraData","type":"bytes","internalType":"bytes"}],"outputs":[{"name":"disputeId","type":"uint256","internalType":"uint256"}],"stateMutability":"payable"},{"type":"function","name":"pointConfig","inputs":[],"outputs":[{"name":"maxAmount","type":"uint256","internalType":"uint256"}],"stateMutability":"view"},{"type":"function","name":"pointSystem","inputs":[],"outputs":[{"name":"","type":"uint8","internalType":"enum PointSystem"}],"stateMutability":"view"},{"type":"function","name":"proposalCounter","inputs":[],"outputs":[{"name":"","type":"uint256","internalType":"uint256"}],"stateMutability":"view"},{"type":"function","name":"proposalType","inputs":[],"outputs":[{"name":"","type":"uint8","internalType":"enum ProposalType"}],"stateMutability":"view"},{"type":"function","name":"proposals","inputs":[{"name":"","type":"uint256","internalType":"uint256"}],"outputs":[{"name":"proposalId","type":"uint256","internalType":"uint256"},{"name":"requestedAmount","type":"uint256","internalType":"uint256"},{"name":"stakedAmount","type":"uint256","internalType":"uint256"},{"name":"convictionLast","type":"uint256","internalType":"uint256"},{"name":"beneficiary","type":"address","internalType":"address"},{"name":"submitter","type":"address","internalType":"address"},{"name":"requestedToken","type":"address","internalType":"address"},{"name":"blockLast","type":"uint256","internalType":"uint256"},{"name":"proposalStatus","type":"uint8","internalType":"enum ProposalStatus"},{"name":"metadata","type":"tuple","internalType":"struct Metadata","components":[{"name":"protocol","type":"uint256","internalType":"uint256"},{"name":"pointer","type":"string","internalType":"string"}]},{"name":"disputeInfo","type":"tuple","internalType":"struct ProposalDisputeInfo","components":[{"name":"disputeId","type":"uint256","internalType":"uint256"},{"name":"disputeTimestamp","type":"uint256","internalType":"uint256"},{"name":"challenger","type":"address","internalType":"address"}]},{"name":"lastDisputeCompletion","type":"uint256","internalType":"uint256"},{"name":"arbitrableConfigVersion","type":"uint256","internalType":"uint256"},{"name":"creationTimestamp","type":"uint256","internalType":"uint256"}],"stateMutability":"view"},{"type":"function","name":"registryCommunity","inputs":[],"outputs":[{"name":"","type":"address","internalType":"contract RegistryCommunity"}],"stateMutability":"view"},{"type":"function","name":"rule","inputs":[{"name":"_disputeID","type":"uint256","internalType":"uint256"},{"name":"_ruling","type":"uint256","internalType":"uint256"}],"outputs":[],"stateMutability":"nonpayable"},{"type":"function","name":"streamingRatePerSecond","inputs":[],"outputs":[{"name":"","type":"uint256","internalType":"uint256"}],"stateMutability":"view"},{"type":"function","name":"superfluidGDA","inputs":[],"outputs":[{"name":"","type":"address","internalType":"contract ISuperfluidPool"}],"stateMutability":"view"},{"type":"function","name":"superfluidToken","inputs":[],"outputs":[{"name":"","type":"address","internalType":"contract ISuperToken"}],"stateMutability":"view"},{"type":"function","name":"sybilScorer","inputs":[],"outputs":[{"name":"","type":"address","internalType":"contract ISybilScorer"}],"stateMutability":"view"},{"type":"function","name":"totalPointsActivated","inputs":[],"outputs":[{"name":"","type":"uint256","internalType":"uint256"}],"stateMutability":"view"},{"type":"function","name":"totalStaked","inputs":[],"outputs":[{"name":"","type":"uint256","internalType":"uint256"}],"stateMutability":"view"},{"type":"function","name":"totalVoterStakePct","inputs":[{"name":"","type":"address","internalType":"address"}],"outputs":[{"name":"","type":"uint256","internalType":"uint256"}],"stateMutability":"view"},{"type":"function","name":"voterStakedProposals","inputs":[{"name":"","type":"address","internalType":"address"},{"name":"","type":"uint256","internalType":"uint256"}],"outputs":[{"name":"","type":"uint256","internalType":"uint256"}],"stateMutability":"view"},{"type":"event","name":"ProposalDisputed","inputs":[{"name":"arbitrator","type":"address","indexed":false,"internalType":"contract IArbitrator"},{"name":"proposalId","type":"uint256","indexed":false,"internalType":"uint256"},{"name":"disputeId","type":"uint256","indexed":false,"internalType":"uint256"},{"name":"challenger","type":"address","indexed":false,"internalType":"address"},{"name":"context","type":"string","indexed":false,"internalType":"string"},{"name":"timestamp","type":"uint256","indexed":false,"internalType":"uint256"}],"anonymous":false},{"type":"event","name":"Ruling","inputs":[{"name":"_arbitrator","type":"address","indexed":true,"internalType":"contract IArbitrator"},{"name":"_disputeID","type":"uint256","indexed":true,"internalType":"uint256"},{"name":"_ruling","type":"uint256","indexed":false,"internalType":"uint256"}],"anonymous":false},{"type":"error","name":"ChallengerCollateralTooLow","inputs":[{"name":"sent","type":"uint256","internalType":"uint256"},{"name":"required","type":"uint256","internalType":"uint256"}]},{"type":"error","name":"DefaultRulingNotConfigured","inputs":[{"name":"proposalId","type":"uint256","internalType":"uint256"}]},{"type":"error","name":"DisputeCooldownActive","inputs":[{"name":"proposalId","type":"uint256","internalType":"uint256"},{"name":"secondsRemaining","type":"uint256","internalType":"uint256"}]},{"type":"error","name":"OnlyActiveProposal","inputs":[{"name":"proposalId","type":"uint256","internalType":"uint256"}]},{"type":"error","name":"OnlyAllo","inputs":[{"name":"sender","type":"address","internalType":"address"},{"name":"allo","type":"address","internalType":"address"}]},{"type":"error","name":"OnlyArbitrator","inputs":[{"name":"sender","type":"address","internalType":"address"},{"name":"arbitrator","type":"address","internalType":"address"}]},{"type":"error","name":"OnlyCouncilSafe","inputs":[{"name":"sender","type":"address","internalType":"address"},{"name":"councilSafe","type":"address","internalType":"address"},{"name":"owner","type":"address","internalType":"address"}]},{"type":"error","name":"OnlyCouncilSafeOrMember","inputs":[{"name":"sender","type":"address","internalType":"address"},{"name":"councilSafe","type":"address","internalType":"address"}]},{"type":"error","name":"OnlyInitialized","inputs":[{"name":"poolId","type":"uint256","internalType":"uint256"}]},{"type":"error","name":"OnlyMember","inputs":[{"name":"wallet","type":"address","internalType":"address"},{"name":"community","type":"address","internalType":"address"}]},{"type":"error","name":"OnlyRegistryCommunity","inputs":[{"name":"sender","type":"address","internalType":"address"},{"name":"registry","type":"address","internalType":"address"}]},{"type":"error","name":"OnlySubmitter","inputs":[{"name":"proposalId","type":"uint256","internalType":"uint256"},{"name":"submitter","type":"address","internalType":"address"},{"name":"sender","type":"address","internalType":"address"}]},{"type":"error","name":"ProposalDoesNotExist","inputs":[{"name":"proposalID","type":"uint256","internalType":"uint256"}]},{"type":"error","name":"ProposalStatusInvalid","inputs":[{"name":"proposalId","type":"uint256","internalType":"uint256"},{"name":"currentStatus","type":"uint8","internalType":"enum ProposalStatus"}]},{"type":"error","name":"StrategyPaused","inputs":[{"name":"controller","type":"address","internalType":"address"}]},{"type":"error","name":"StrategySelectorPaused","inputs":[{"name":"selector","type":"bytes4","internalType":"bytes4"},{"name":"controller","type":"address","internalType":"address"}]}],"bytecode":{"object":"0x6080604052348015600e575f80fd5b506116c08061001c5f395ff3fe608060405260043610610125575f3560e01c8063013cf08b1461012957806305caa7f31461016b5780630bece79c146101975780630c0512e9146101b6578063125fd1d9146101d95780631b36f56f146101ee5780632506b8701461020d578063255ffb381461024f5780632dbd6fdd1461027a578063311a6c56146102a557806333960459146102c6578063351d9f96146102db57806341bb7605146103015780635db64b99146103945780636003e414146103bf578063626c47e8146103de578063817b1cd2146103f2578063868c57b81461040757806394573cbb14610426578063a28889e11461043b578063a47ff7e514610472578063aba9ffee14610488578063b41596ec1461049d578063b6c61f31146104b0578063f5be3f7c146104cf575b5f80fd5b348015610134575f80fd5b506101486101433660046111c6565b6104e4565b6040516101629e9d9c9b9a99989796959493929190611247565b60405180910390f35b348015610176575f80fd5b5060805461018a906001600160a01b031681565b60405161016291906112fa565b3480156101a2575f80fd5b5060795461018a906001600160a01b031681565b3480156101c1575f80fd5b506101cb606e5481565b604051908152602001610162565b3480156101e4575f80fd5b506101cb606f5481565b3480156101f9575f80fd5b5060815461018a906001600160a01b031681565b348015610218575f80fd5b5060725460735460745460755461022f9392919084565b604080519485526020850193909352918301526060820152608001610162565b34801561025a575f80fd5b506101cb6102693660046111c6565b607e6020525f908152604090205481565b348015610285575f80fd5b5060765461029890610100900460ff1681565b604051610162919061130e565b3480156102b0575f80fd5b506102c46102bf366004611328565b610634565b005b3480156102d1575f80fd5b506101cb606c5481565b3480156102e6575f80fd5b506076546102f49060ff1681565b6040516101629190611348565b34801561030c575f80fd5b5061035c61031b3660046111c6565b607f6020525f90815260409020805460018201546002830154600384015460048501546005909501546001600160a01b039485169593909416939192909186565b604080516001600160a01b039788168152969095166020870152938501929092526060840152608083015260a082015260c001610162565b34801561039f575f80fd5b506101cb6103ae366004611370565b607c6020525f908152604090205481565b3480156103ca575f80fd5b5060785461018a906001600160a01b031681565b3480156103e9575f80fd5b506101cb600381565b3480156103fd575f80fd5b506101cb60705481565b348015610412575f80fd5b506101cb610421366004611392565b610c25565b348015610431575f80fd5b506101cb60825481565b348015610446575f80fd5b50606d5461045a906001600160401b031681565b6040516001600160401b039091168152602001610162565b34801561047d575f80fd5b506077546101cb9081565b348015610493575f80fd5b506101cb60715481565b6101cb6104ab366004611400565b610c50565b3480156104bb575f80fd5b50607a5461018a906001600160a01b031681565b3480156104da575f80fd5b506101cb611c2081565b607b60209081525f9182526040918290208054600182015460028301546003840154600485015460058601546006870154600788015460088901548b51808d01909c52600a8a0180548d52600b8b0180549a9d999c989b979a6001600160a01b039788169a968816999790951697939660ff909316959394919284019161056a90611473565b80601f016020809104026020016040519081016040528092919081815260200182805461059690611473565b80156105e15780601f106105b8576101008083540402835291602001916105e1565b820191905f5260205f20905b8154815290600101906020018083116105c457829003601f168201915b50505091909252505060408051606081018252600c8501548152600d8501546020820152600e8501546001600160a01b031691810191909152600f8401546010850154601190950154939491939092508e565b5f828152607e6020908152604080832054808452607b835281842060108101548552607f845293829020825160c08101845281546001600160a01b03908116825260018301541694810194909452600281015492840192909252600382015460608401526004820154608084015260059182015460a0840152929190600883015460ff1660068111156106c9576106c96111dd565b146106fd57600882015460405163effc443f60e01b81526106f491859160ff909116906004016114ab565b60405180910390fd5b60a0810151600d8301545f91610712916114d3565b4211905080158161072d575081516001600160a01b03163314155b1561074f5781516040516377a14eaf60e11b81526106f49133916004016114ec565b8080610759575084155b156108b15781608001515f0361078557604051638365b47b60e01b8152600481018590526024016106f4565b81608001516001036107ae5760088301805460ff191660019081179091556107ae908590611018565b81608001516002036108405760088301805460ff191660061790556107d3845f611018565b6079546005840154604084810151905163099ea56b60e41b81526001600160a01b03938416936399ea56b093610812938a939290911691600401611506565b5f604051808303815f87803b158015610829575f80fd5b505af115801561083b573d5f803e3d5ffd5b505050505b607954600e840154606084015160405163099ea56b60e41b81526001600160a01b03938416936399ea56b09361087f938a939290911691600401611506565b5f604051808303815f87803b158015610896575f80fd5b505af11580156108a8573d5f803e3d5ffd5b50505050610b90565b8460010361097d5760088301805460ff191660019081179091556108d6908590611018565b607954600e84015460785460408051633629edcd60e11b815290516001600160a01b0394851694638969ab53948a9490821693911691636c53db9a916004808201926020929091908290030181865afa158015610935573d5f803e3d5ffd5b505050506040513d601f19601f820116820180604052508101906109599190611525565b86606001516040518563ffffffff1660e01b815260040161087f9493929190611540565b84600203610b905760088301805460ff1916600617905561099e845f611018565b607954600e840154606084015160405163099ea56b60e41b81526001600160a01b03938416936399ea56b0936109dd938a939290911691600401611506565b5f604051808303815f87803b1580156109f4575f80fd5b505af1158015610a06573d5f803e3d5ffd5b5050607954600586015460785460408051633629edcd60e11b815290516001600160a01b039485169650638969ab5395508a949384169390921691636c53db9a916004808201926020929091908290030181865afa158015610a6a573d5f803e3d5ffd5b505050506040513d601f19601f82011682018060405250810190610a8e9190611525565b606f545f908152607f60205260409020600290810154610aae9190611565565b6040518563ffffffff1660e01b8152600401610acd9493929190611540565b5f604051808303815f87803b158015610ae4575f80fd5b505af1158015610af6573d5f803e3d5ffd5b50506079546005860154600e870154606f545f908152607f602052604090206002908101546001600160a01b039485169650638969ab5395508a949384169390921691610b439190611565565b6040518563ffffffff1660e01b8152600401610b629493929190611540565b5f604051808303815f87803b158015610b79575f80fd5b505af1158015610b8b573d5f803e3d5ffd5b505050505b606d80546001600160401b0316905f610ba883611584565b91906101000a8154816001600160401b0302191690836001600160401b03160217905550504283600f018190555085825f01516001600160a01b03167f394027a5fa6e098a1191094d1719d6929b9abc535fcc0c8f448d6a4e7562227687604051610c1591815260200190565b60405180910390a3505050505050565b607d602052815f5260405f208181548110610c3e575f80fd5b905f5260205f20015f91509150505481565b5f610c5a33611101565b5f868152607b6020908152604080832060108101548452607f835292819020815160c08101835281546001600160a01b0390811682526001808401549091169482019490945260028201549281019290925260038101546060830152600481015460808301526005015460a082015290600883015460ff166006811115610ce357610ce36111dd565b14610d0e57600882015460405163effc443f60e01b81526106f4918a9160ff909116906004016114ab565b8060600151341015610d425760608101516040516302ed70b960e61b815234600482015260248101919091526044016106f4565b600f82015415801590610d65575042611c2083600f0154610d6391906114d3565b115b15610daa578742611c2084600f0154610d7e91906114d3565b610d8891906115a5565b6040516303327a0360e01b8152600481019290925260248201526044016106f4565b5f816060015134610dbb91906115a5565b607954606084015160405163240ff7c560e11b8152600481018d90523360248201529293506001600160a01b039091169163481fef8a91906044015f604051808303818588803b158015610e0d575f80fd5b505af1158015610e1f573d5f803e3d5ffd5b5050845160405163c13517e160e01b81526001600160a01b03909116935063c13517e19250849150610e5a906003908b908b906004016115e0565b60206040518083038185885af1158015610e76573d5f803e3d5ffd5b50505050506040513d601f19601f82011682018060405250810190610e9b9190611602565b60088401805460ff19166005179055600c840181905542600d850155600e84018054336001600160a01b03199091161790555f818152607e602052604090208a905560765490945060029060ff1681811115610ef957610ef96111dd565b03610f82575f610f076111a2565b5f8b815260029190910160205260409020546001600160a01b031690508015610f805760405163740ecfdb60e01b8152600160048201526001600160a01b0382169063740ecfdb906024015f604051808303815f87803b158015610f69575f80fd5b505af1158015610f7b573d5f803e3d5ffd5b505050505b505b606d80546001600160401b0316905f610f9a83611619565b91906101000a8154816001600160401b0302191690836001600160401b03160217905550507f034f6a48076db1bcaaa311ccdc43d473aff44d3918a76fe0fae27c8b3665016d825f01518a86338c8c89600c01600101546040516110049796959493929190611646565b60405180910390a150505095945050505050565b600260765460ff166002811115611031576110316111dd565b1461103a575050565b5f6110436111a2565b5f84815260029190910160205260409020546001600160a01b031690508061106a57505050565b81156110c95760405163740ecfdb60e01b81525f60048201526001600160a01b0382169063740ecfdb906024015f604051808303815f87803b1580156110ae575f80fd5b505af11580156110c0573d5f803e3d5ffd5b50505050505050565b806001600160a01b031663792b04706040518163ffffffff1660e01b81526004015f604051808303815f87803b1580156110ae575f80fd5b60785460405163288c314960e21b81526001600160a01b039091169063a230c524906111319084906004016112fa565b6020604051808303815f875af115801561114d573d5f803e3d5ffd5b505050506040513d601f19601f820116820180604052508101906111719190611694565b61119f57607854604051636332657560e11b81526106f49183916001600160a01b03909116906004016114ec565b50565b7fd5d05b1f29dcb0c0e1698b0261850eb784d1243215a6aa22ea2b8128b2e9497c90565b5f602082840312156111d6575f80fd5b5035919050565b634e487b7160e01b5f52602160045260245ffd5b60078110611201576112016111dd565b9052565b805182525f60208201516040602085015280518060408601528060208301606087015e5f606082870101526060601f19601f8301168601019250505092915050565b8e8152602081018e9052604081018d9052606081018c90526001600160a01b038b811660808301528a811660a0830152891660c08201525f8860e08301526112936101008301896111f1565b6102006101208301526112aa610200830188611205565b865161014084015260208701516101608401526040909601516001600160a01b0316610180830152506101a08101939093526101c08301919091526101e0909101529a9950505050505050505050565b6001600160a01b0391909116815260200190565b6020810160048310611322576113226111dd565b91905290565b5f8060408385031215611339575f80fd5b50508035926020909101359150565b6020810160038310611322576113226111dd565b6001600160a01b038116811461119f575f80fd5b5f60208284031215611380575f80fd5b813561138b8161135c565b9392505050565b5f80604083850312156113a3575f80fd5b82356113ae8161135c565b946020939093013593505050565b5f8083601f8401126113cc575f80fd5b5081356001600160401b038111156113e2575f80fd5b6020830191508360208285010111156113f9575f80fd5b9250929050565b5f805f805f60608688031215611414575f80fd5b8535945060208601356001600160401b0380821115611431575f80fd5b61143d89838a016113bc565b90965094506040880135915080821115611455575f80fd5b50611462888289016113bc565b969995985093965092949392505050565b600181811c9082168061148757607f821691505b6020821081036114a557634e487b7160e01b5f52602260045260245ffd5b50919050565b8281526040810161138b60208301846111f1565b634e487b7160e01b5f52601160045260245ffd5b808201808211156114e6576114e66114bf565b92915050565b6001600160a01b0392831681529116602082015260400190565b9283526001600160a01b03919091166020830152604082015260600190565b5f60208284031215611535575f80fd5b815161138b8161135c565b9384526001600160a01b03928316602085015291166040830152606082015260800190565b5f8261157f57634e487b7160e01b5f52601260045260245ffd5b500490565b5f6001600160401b0382168061159c5761159c6114bf565b5f190192915050565b818103818111156114e6576114e66114bf565b81835281816020850137505f828201602090810191909152601f909101601f19169091010190565b838152604060208201525f6115f96040830184866115b8565b95945050505050565b5f60208284031215611612575f80fd5b5051919050565b5f6001600160401b038281166002600160401b0319810161163c5761163c6114bf565b6001019392505050565b6001600160a01b03888116825260208201889052604082018790528516606082015260c0608082018190525f9061168090830185876115b8565b90508260a083015298975050505050505050565b5f602082840312156116a4575f80fd5b8151801515811461138b575f80fdfea164736f6c6343000819000a","linkReferences":{}},"methodIdentifiers":{"DISPUTE_COOLDOWN_SEC()":"f5be3f7c","RULING_OPTIONS()":"626c47e8","arbitrableConfigs(uint256)":"41bb7605","cloneNonce()":"33960459","collateralVault()":"0bece79c","currentArbitrableConfigVersion()":"125fd1d9","cvParams()":"2506b870","disputeCount()":"a28889e1","disputeIdToProposalId(uint256)":"255ffb38","disputeProposal(uint256,string,bytes)":"b41596ec","pointConfig()":"a47ff7e5","pointSystem()":"2dbd6fdd","proposalCounter()":"0c0512e9","proposalType()":"351d9f96","proposals(uint256)":"013cf08b","registryCommunity()":"6003e414","rule(uint256,uint256)":"311a6c56","streamingRatePerSecond()":"94573cbb","superfluidGDA()":"1b36f56f","superfluidToken()":"05caa7f3","sybilScorer()":"b6c61f31","totalPointsActivated()":"aba9ffee","totalStaked()":"817b1cd2","totalVoterStakePct(address)":"5db64b99","voterStakedProposals(address,uint256)":"868c57b8"},"storageLayout":{"storage":[{"astId":84645,"contract":"pkg/contracts/src/CVStrategy/facets/CVDisputeFacet.sol:CVDisputeFacet","label":"_initialized","offset":0,"slot":"0","type":"t_uint8"},{"astId":84647,"contract":"pkg/contracts/src/CVStrategy/facets/CVDisputeFacet.sol:CVDisputeFacet","label":"_initializing","offset":1,"slot":"0","type":"t_bool"},{"astId":84651,"contract":"pkg/contracts/src/CVStrategy/facets/CVDisputeFacet.sol:CVDisputeFacet","label":"__gap_init","offset":0,"slot":"1","type":"t_array(t_uint256)50_storage"},{"astId":84654,"contract":"pkg/contracts/src/CVStrategy/facets/CVDisputeFacet.sol:CVDisputeFacet","label":"_owner","offset":0,"slot":"51","type":"t_address"},{"astId":84658,"contract":"pkg/contracts/src/CVStrategy/facets/CVDisputeFacet.sol:CVDisputeFacet","label":"__gap_ownable","offset":0,"slot":"52","type":"t_array(t_uint256)49_storage"},{"astId":84662,"contract":"pkg/contracts/src/CVStrategy/facets/CVDisputeFacet.sol:CVDisputeFacet","label":"allo","offset":0,"slot":"101","type":"t_contract(IAllo)351"},{"astId":84664,"contract":"pkg/contracts/src/CVStrategy/facets/CVDisputeFacet.sol:CVDisputeFacet","label":"strategyId","offset":0,"slot":"102","type":"t_bytes32"},{"astId":84666,"contract":"pkg/contracts/src/CVStrategy/facets/CVDisputeFacet.sol:CVDisputeFacet","label":"poolActive","offset":0,"slot":"103","type":"t_bool"},{"astId":84668,"contract":"pkg/contracts/src/CVStrategy/facets/CVDisputeFacet.sol:CVDisputeFacet","label":"poolId","offset":0,"slot":"104","type":"t_uint256"},{"astId":84670,"contract":"pkg/contracts/src/CVStrategy/facets/CVDisputeFacet.sol:CVDisputeFacet","label":"poolAmount","offset":0,"slot":"105","type":"t_uint256"},{"astId":84673,"contract":"pkg/contracts/src/CVStrategy/facets/CVDisputeFacet.sol:CVDisputeFacet","label":"collateralVaultTemplate","offset":0,"slot":"106","type":"t_address"},{"astId":84676,"contract":"pkg/contracts/src/CVStrategy/facets/CVDisputeFacet.sol:CVDisputeFacet","label":"surpressStateMutabilityWarning","offset":0,"slot":"107","type":"t_uint256"},{"astId":84679,"contract":"pkg/contracts/src/CVStrategy/facets/CVDisputeFacet.sol:CVDisputeFacet","label":"cloneNonce","offset":0,"slot":"108","type":"t_uint256"},{"astId":84682,"contract":"pkg/contracts/src/CVStrategy/facets/CVDisputeFacet.sol:CVDisputeFacet","label":"disputeCount","offset":0,"slot":"109","type":"t_uint64"},{"astId":84685,"contract":"pkg/contracts/src/CVStrategy/facets/CVDisputeFacet.sol:CVDisputeFacet","label":"proposalCounter","offset":0,"slot":"110","type":"t_uint256"},{"astId":84688,"contract":"pkg/contracts/src/CVStrategy/facets/CVDisputeFacet.sol:CVDisputeFacet","label":"currentArbitrableConfigVersion","offset":0,"slot":"111","type":"t_uint256"},{"astId":84691,"contract":"pkg/contracts/src/CVStrategy/facets/CVDisputeFacet.sol:CVDisputeFacet","label":"totalStaked","offset":0,"slot":"112","type":"t_uint256"},{"astId":84694,"contract":"pkg/contracts/src/CVStrategy/facets/CVDisputeFacet.sol:CVDisputeFacet","label":"totalPointsActivated","offset":0,"slot":"113","type":"t_uint256"},{"astId":84698,"contract":"pkg/contracts/src/CVStrategy/facets/CVDisputeFacet.sol:CVDisputeFacet","label":"cvParams","offset":0,"slot":"114","type":"t_struct(CVParams)86006_storage"},{"astId":84702,"contract":"pkg/contracts/src/CVStrategy/facets/CVDisputeFacet.sol:CVDisputeFacet","label":"proposalType","offset":0,"slot":"118","type":"t_enum(ProposalType)85907"},{"astId":84706,"contract":"pkg/contracts/src/CVStrategy/facets/CVDisputeFacet.sol:CVDisputeFacet","label":"pointSystem","offset":1,"slot":"118","type":"t_enum(PointSystem)85912"},{"astId":84710,"contract":"pkg/contracts/src/CVStrategy/facets/CVDisputeFacet.sol:CVDisputeFacet","label":"pointConfig","offset":0,"slot":"119","type":"t_struct(PointSystemConfig)85983_storage"},{"astId":84714,"contract":"pkg/contracts/src/CVStrategy/facets/CVDisputeFacet.sol:CVDisputeFacet","label":"registryCommunity","offset":0,"slot":"120","type":"t_contract(RegistryCommunity)94492"},{"astId":84718,"contract":"pkg/contracts/src/CVStrategy/facets/CVDisputeFacet.sol:CVDisputeFacet","label":"collateralVault","offset":0,"slot":"121","type":"t_contract(ICollateralVault)100213"},{"astId":84722,"contract":"pkg/contracts/src/CVStrategy/facets/CVDisputeFacet.sol:CVDisputeFacet","label":"sybilScorer","offset":0,"slot":"122","type":"t_contract(ISybilScorer)91938"},{"astId":84728,"contract":"pkg/contracts/src/CVStrategy/facets/CVDisputeFacet.sol:CVDisputeFacet","label":"proposals","offset":0,"slot":"123","type":"t_mapping(t_uint256,t_struct(Proposal)85975_storage)"},{"astId":84733,"contract":"pkg/contracts/src/CVStrategy/facets/CVDisputeFacet.sol:CVDisputeFacet","label":"totalVoterStakePct","offset":0,"slot":"124","type":"t_mapping(t_address,t_uint256)"},{"astId":84739,"contract":"pkg/contracts/src/CVStrategy/facets/CVDisputeFacet.sol:CVDisputeFacet","label":"voterStakedProposals","offset":0,"slot":"125","type":"t_mapping(t_address,t_array(t_uint256)dyn_storage)"},{"astId":84744,"contract":"pkg/contracts/src/CVStrategy/facets/CVDisputeFacet.sol:CVDisputeFacet","label":"disputeIdToProposalId","offset":0,"slot":"126","type":"t_mapping(t_uint256,t_uint256)"},{"astId":84750,"contract":"pkg/contracts/src/CVStrategy/facets/CVDisputeFacet.sol:CVDisputeFacet","label":"arbitrableConfigs","offset":0,"slot":"127","type":"t_mapping(t_uint256,t_struct(ArbitrableConfig)85997_storage)"},{"astId":84754,"contract":"pkg/contracts/src/CVStrategy/facets/CVDisputeFacet.sol:CVDisputeFacet","label":"superfluidToken","offset":0,"slot":"128","type":"t_contract(ISuperToken)76210"},{"astId":84758,"contract":"pkg/contracts/src/CVStrategy/facets/CVDisputeFacet.sol:CVDisputeFacet","label":"superfluidGDA","offset":0,"slot":"129","type":"t_contract(ISuperfluidPool)75038"},{"astId":84761,"contract":"pkg/contracts/src/CVStrategy/facets/CVDisputeFacet.sol:CVDisputeFacet","label":"streamingRatePerSecond","offset":0,"slot":"130","type":"t_uint256"},{"astId":84766,"contract":"pkg/contracts/src/CVStrategy/facets/CVDisputeFacet.sol:CVDisputeFacet","label":"__gap","offset":0,"slot":"131","type":"t_array(t_uint256)47_storage"}],"types":{"t_address":{"encoding":"inplace","label":"address","numberOfBytes":"20"},"t_array(t_uint256)47_storage":{"encoding":"inplace","label":"uint256[47]","numberOfBytes":"1504","base":"t_uint256"},"t_array(t_uint256)49_storage":{"encoding":"inplace","label":"uint256[49]","numberOfBytes":"1568","base":"t_uint256"},"t_array(t_uint256)50_storage":{"encoding":"inplace","label":"uint256[50]","numberOfBytes":"1600","base":"t_uint256"},"t_array(t_uint256)dyn_storage":{"encoding":"dynamic_array","label":"uint256[]","numberOfBytes":"32","base":"t_uint256"},"t_bool":{"encoding":"inplace","label":"bool","numberOfBytes":"1"},"t_bytes32":{"encoding":"inplace","label":"bytes32","numberOfBytes":"32"},"t_contract(IAllo)351":{"encoding":"inplace","label":"contract IAllo","numberOfBytes":"20"},"t_contract(IArbitrator)100180":{"encoding":"inplace","label":"contract IArbitrator","numberOfBytes":"20"},"t_contract(ICollateralVault)100213":{"encoding":"inplace","label":"contract ICollateralVault","numberOfBytes":"20"},"t_contract(ISuperToken)76210":{"encoding":"inplace","label":"contract ISuperToken","numberOfBytes":"20"},"t_contract(ISuperfluidPool)75038":{"encoding":"inplace","label":"contract ISuperfluidPool","numberOfBytes":"20"},"t_contract(ISybilScorer)91938":{"encoding":"inplace","label":"contract ISybilScorer","numberOfBytes":"20"},"t_contract(RegistryCommunity)94492":{"encoding":"inplace","label":"contract RegistryCommunity","numberOfBytes":"20"},"t_enum(PointSystem)85912":{"encoding":"inplace","label":"enum PointSystem","numberOfBytes":"1"},"t_enum(ProposalStatus)85932":{"encoding":"inplace","label":"enum ProposalStatus","numberOfBytes":"1"},"t_enum(ProposalType)85907":{"encoding":"inplace","label":"enum ProposalType","numberOfBytes":"1"},"t_mapping(t_address,t_array(t_uint256)dyn_storage)":{"encoding":"mapping","key":"t_address","label":"mapping(address => uint256[])","numberOfBytes":"32","value":"t_array(t_uint256)dyn_storage"},"t_mapping(t_address,t_uint256)":{"encoding":"mapping","key":"t_address","label":"mapping(address => uint256)","numberOfBytes":"32","value":"t_uint256"},"t_mapping(t_uint256,t_struct(ArbitrableConfig)85997_storage)":{"encoding":"mapping","key":"t_uint256","label":"mapping(uint256 => struct ArbitrableConfig)","numberOfBytes":"32","value":"t_struct(ArbitrableConfig)85997_storage"},"t_mapping(t_uint256,t_struct(Proposal)85975_storage)":{"encoding":"mapping","key":"t_uint256","label":"mapping(uint256 => struct Proposal)","numberOfBytes":"32","value":"t_struct(Proposal)85975_storage"},"t_mapping(t_uint256,t_uint256)":{"encoding":"mapping","key":"t_uint256","label":"mapping(uint256 => uint256)","numberOfBytes":"32","value":"t_uint256"},"t_string_storage":{"encoding":"bytes","label":"string","numberOfBytes":"32"},"t_struct(ArbitrableConfig)85997_storage":{"encoding":"inplace","label":"struct ArbitrableConfig","numberOfBytes":"192","members":[{"astId":85986,"contract":"pkg/contracts/src/CVStrategy/facets/CVDisputeFacet.sol:CVDisputeFacet","label":"arbitrator","offset":0,"slot":"0","type":"t_contract(IArbitrator)100180"},{"astId":85988,"contract":"pkg/contracts/src/CVStrategy/facets/CVDisputeFacet.sol:CVDisputeFacet","label":"tribunalSafe","offset":0,"slot":"1","type":"t_address"},{"astId":85990,"contract":"pkg/contracts/src/CVStrategy/facets/CVDisputeFacet.sol:CVDisputeFacet","label":"submitterCollateralAmount","offset":0,"slot":"2","type":"t_uint256"},{"astId":85992,"contract":"pkg/contracts/src/CVStrategy/facets/CVDisputeFacet.sol:CVDisputeFacet","label":"challengerCollateralAmount","offset":0,"slot":"3","type":"t_uint256"},{"astId":85994,"contract":"pkg/contracts/src/CVStrategy/facets/CVDisputeFacet.sol:CVDisputeFacet","label":"defaultRuling","offset":0,"slot":"4","type":"t_uint256"},{"astId":85996,"contract":"pkg/contracts/src/CVStrategy/facets/CVDisputeFacet.sol:CVDisputeFacet","label":"defaultRulingTimeout","offset":0,"slot":"5","type":"t_uint256"}]},"t_struct(CVParams)86006_storage":{"encoding":"inplace","label":"struct CVParams","numberOfBytes":"128","members":[{"astId":85999,"contract":"pkg/contracts/src/CVStrategy/facets/CVDisputeFacet.sol:CVDisputeFacet","label":"maxRatio","offset":0,"slot":"0","type":"t_uint256"},{"astId":86001,"contract":"pkg/contracts/src/CVStrategy/facets/CVDisputeFacet.sol:CVDisputeFacet","label":"weight","offset":0,"slot":"1","type":"t_uint256"},{"astId":86003,"contract":"pkg/contracts/src/CVStrategy/facets/CVDisputeFacet.sol:CVDisputeFacet","label":"decay","offset":0,"slot":"2","type":"t_uint256"},{"astId":86005,"contract":"pkg/contracts/src/CVStrategy/facets/CVDisputeFacet.sol:CVDisputeFacet","label":"minThresholdPoints","offset":0,"slot":"3","type":"t_uint256"}]},"t_struct(Metadata)806_storage":{"encoding":"inplace","label":"struct Metadata","numberOfBytes":"64","members":[{"astId":802,"contract":"pkg/contracts/src/CVStrategy/facets/CVDisputeFacet.sol:CVDisputeFacet","label":"protocol","offset":0,"slot":"0","type":"t_uint256"},{"astId":805,"contract":"pkg/contracts/src/CVStrategy/facets/CVDisputeFacet.sol:CVDisputeFacet","label":"pointer","offset":0,"slot":"1","type":"t_string_storage"}]},"t_struct(PointSystemConfig)85983_storage":{"encoding":"inplace","label":"struct PointSystemConfig","numberOfBytes":"32","members":[{"astId":85982,"contract":"pkg/contracts/src/CVStrategy/facets/CVDisputeFacet.sol:CVDisputeFacet","label":"maxAmount","offset":0,"slot":"0","type":"t_uint256"}]},"t_struct(Proposal)85975_storage":{"encoding":"inplace","label":"struct Proposal","numberOfBytes":"576","members":[{"astId":85941,"contract":"pkg/contracts/src/CVStrategy/facets/CVDisputeFacet.sol:CVDisputeFacet","label":"proposalId","offset":0,"slot":"0","type":"t_uint256"},{"astId":85943,"contract":"pkg/contracts/src/CVStrategy/facets/CVDisputeFacet.sol:CVDisputeFacet","label":"requestedAmount","offset":0,"slot":"1","type":"t_uint256"},{"astId":85945,"contract":"pkg/contracts/src/CVStrategy/facets/CVDisputeFacet.sol:CVDisputeFacet","label":"stakedAmount","offset":0,"slot":"2","type":"t_uint256"},{"astId":85947,"contract":"pkg/contracts/src/CVStrategy/facets/CVDisputeFacet.sol:CVDisputeFacet","label":"convictionLast","offset":0,"slot":"3","type":"t_uint256"},{"astId":85949,"contract":"pkg/contracts/src/CVStrategy/facets/CVDisputeFacet.sol:CVDisputeFacet","label":"beneficiary","offset":0,"slot":"4","type":"t_address"},{"astId":85951,"contract":"pkg/contracts/src/CVStrategy/facets/CVDisputeFacet.sol:CVDisputeFacet","label":"submitter","offset":0,"slot":"5","type":"t_address"},{"astId":85953,"contract":"pkg/contracts/src/CVStrategy/facets/CVDisputeFacet.sol:CVDisputeFacet","label":"requestedToken","offset":0,"slot":"6","type":"t_address"},{"astId":85955,"contract":"pkg/contracts/src/CVStrategy/facets/CVDisputeFacet.sol:CVDisputeFacet","label":"blockLast","offset":0,"slot":"7","type":"t_uint256"},{"astId":85958,"contract":"pkg/contracts/src/CVStrategy/facets/CVDisputeFacet.sol:CVDisputeFacet","label":"proposalStatus","offset":0,"slot":"8","type":"t_enum(ProposalStatus)85932"},{"astId":85962,"contract":"pkg/contracts/src/CVStrategy/facets/CVDisputeFacet.sol:CVDisputeFacet","label":"voterStakedPoints","offset":0,"slot":"9","type":"t_mapping(t_address,t_uint256)"},{"astId":85965,"contract":"pkg/contracts/src/CVStrategy/facets/CVDisputeFacet.sol:CVDisputeFacet","label":"metadata","offset":0,"slot":"10","type":"t_struct(Metadata)806_storage"},{"astId":85968,"contract":"pkg/contracts/src/CVStrategy/facets/CVDisputeFacet.sol:CVDisputeFacet","label":"disputeInfo","offset":0,"slot":"12","type":"t_struct(ProposalDisputeInfo)85939_storage"},{"astId":85970,"contract":"pkg/contracts/src/CVStrategy/facets/CVDisputeFacet.sol:CVDisputeFacet","label":"lastDisputeCompletion","offset":0,"slot":"15","type":"t_uint256"},{"astId":85972,"contract":"pkg/contracts/src/CVStrategy/facets/CVDisputeFacet.sol:CVDisputeFacet","label":"arbitrableConfigVersion","offset":0,"slot":"16","type":"t_uint256"},{"astId":85974,"contract":"pkg/contracts/src/CVStrategy/facets/CVDisputeFacet.sol:CVDisputeFacet","label":"creationTimestamp","offset":0,"slot":"17","type":"t_uint256"}]},"t_struct(ProposalDisputeInfo)85939_storage":{"encoding":"inplace","label":"struct ProposalDisputeInfo","numberOfBytes":"96","members":[{"astId":85934,"contract":"pkg/contracts/src/CVStrategy/facets/CVDisputeFacet.sol:CVDisputeFacet","label":"disputeId","offset":0,"slot":"0","type":"t_uint256"},{"astId":85936,"contract":"pkg/contracts/src/CVStrategy/facets/CVDisputeFacet.sol:CVDisputeFacet","label":"disputeTimestamp","offset":0,"slot":"1","type":"t_uint256"},{"astId":85938,"contract":"pkg/contracts/src/CVStrategy/facets/CVDisputeFacet.sol:CVDisputeFacet","label":"challenger","offset":0,"slot":"2","type":"t_address"}]},"t_uint256":{"encoding":"inplace","label":"uint256","numberOfBytes":"32"},"t_uint64":{"encoding":"inplace","label":"uint64","numberOfBytes":"8"},"t_uint8":{"encoding":"inplace","label":"uint8","numberOfBytes":"1"}}},"id":136}