{"abi":[{"type":"function","name":"DISPUTE_COOLDOWN_SEC","inputs":[],"outputs":[{"name":"","type":"uint256","internalType":"uint256"}],"stateMutability":"view"},{"type":"function","name":"RULING_OPTIONS","inputs":[],"outputs":[{"name":"","type":"uint256","internalType":"uint256"}],"stateMutability":"view"},{"type":"function","name":"_isStrategyEnabled","inputs":[],"outputs":[{"name":"","type":"bool","internalType":"bool"}],"stateMutability":"view"},{"type":"function","name":"activatePoints","inputs":[],"outputs":[],"stateMutability":"nonpayable"},{"type":"function","name":"arbitrableConfigs","inputs":[{"name":"","type":"uint256","internalType":"uint256"}],"outputs":[{"name":"arbitrator","type":"address","internalType":"contract IArbitrator"},{"name":"tribunalSafe","type":"address","internalType":"address"},{"name":"submitterCollateralAmount","type":"uint256","internalType":"uint256"},{"name":"challengerCollateralAmount","type":"uint256","internalType":"uint256"},{"name":"defaultRuling","type":"uint256","internalType":"uint256"},{"name":"defaultRulingTimeout","type":"uint256","internalType":"uint256"}],"stateMutability":"view"},{"type":"function","name":"calculateProposalConviction","inputs":[{"name":"_proposalId","type":"uint256","internalType":"uint256"}],"outputs":[{"name":"","type":"uint256","internalType":"uint256"}],"stateMutability":"view"},{"type":"function","name":"cloneNonce","inputs":[],"outputs":[{"name":"","type":"uint256","internalType":"uint256"}],"stateMutability":"view"},{"type":"function","name":"collateralVault","inputs":[],"outputs":[{"name":"","type":"address","internalType":"contract ICollateralVault"}],"stateMutability":"view"},{"type":"function","name":"currentArbitrableConfigVersion","inputs":[],"outputs":[{"name":"","type":"uint256","internalType":"uint256"}],"stateMutability":"view"},{"type":"function","name":"cvParams","inputs":[],"outputs":[{"name":"maxRatio","type":"uint256","internalType":"uint256"},{"name":"weight","type":"uint256","internalType":"uint256"},{"name":"decay","type":"uint256","internalType":"uint256"},{"name":"minThresholdPoints","type":"uint256","internalType":"uint256"}],"stateMutability":"view"},{"type":"function","name":"deactivatePoints","inputs":[],"outputs":[],"stateMutability":"nonpayable"},{"type":"function","name":"deactivatePoints","inputs":[{"name":"_member","type":"address","internalType":"address"}],"outputs":[],"stateMutability":"nonpayable"},{"type":"function","name":"decreasePower","inputs":[{"name":"_member","type":"address","internalType":"address"},{"name":"_amountToUnstake","type":"uint256","internalType":"uint256"}],"outputs":[{"name":"","type":"uint256","internalType":"uint256"}],"stateMutability":"nonpayable"},{"type":"function","name":"disputeCount","inputs":[],"outputs":[{"name":"","type":"uint64","internalType":"uint64"}],"stateMutability":"view"},{"type":"function","name":"disputeIdToProposalId","inputs":[{"name":"","type":"uint256","internalType":"uint256"}],"outputs":[{"name":"","type":"uint256","internalType":"uint256"}],"stateMutability":"view"},{"type":"function","name":"getPoolAmount","inputs":[],"outputs":[{"name":"","type":"uint256","internalType":"uint256"}],"stateMutability":"view"},{"type":"function","name":"increasePower","inputs":[{"name":"_member","type":"address","internalType":"address"},{"name":"_amountToStake","type":"uint256","internalType":"uint256"}],"outputs":[{"name":"","type":"uint256","internalType":"uint256"}],"stateMutability":"nonpayable"},{"type":"function","name":"pointConfig","inputs":[],"outputs":[{"name":"maxAmount","type":"uint256","internalType":"uint256"}],"stateMutability":"view"},{"type":"function","name":"pointSystem","inputs":[],"outputs":[{"name":"","type":"uint8","internalType":"enum PointSystem"}],"stateMutability":"view"},{"type":"function","name":"proposalCounter","inputs":[],"outputs":[{"name":"","type":"uint256","internalType":"uint256"}],"stateMutability":"view"},{"type":"function","name":"proposalExists","inputs":[{"name":"_proposalID","type":"uint256","internalType":"uint256"}],"outputs":[{"name":"","type":"bool","internalType":"bool"}],"stateMutability":"view"},{"type":"function","name":"proposalType","inputs":[],"outputs":[{"name":"","type":"uint8","internalType":"enum ProposalType"}],"stateMutability":"view"},{"type":"function","name":"registryCommunity","inputs":[],"outputs":[{"name":"","type":"address","internalType":"contract RegistryCommunity"}],"stateMutability":"view"},{"type":"function","name":"streamingRatePerSecond","inputs":[],"outputs":[{"name":"","type":"uint256","internalType":"uint256"}],"stateMutability":"view"},{"type":"function","name":"superfluidGDA","inputs":[],"outputs":[{"name":"","type":"address","internalType":"contract ISuperfluidPool"}],"stateMutability":"view"},{"type":"function","name":"superfluidToken","inputs":[],"outputs":[{"name":"","type":"address","internalType":"contract ISuperToken"}],"stateMutability":"view"},{"type":"function","name":"sybilScorer","inputs":[],"outputs":[{"name":"","type":"address","internalType":"contract ISybilScorer"}],"stateMutability":"view"},{"type":"function","name":"totalPointsActivated","inputs":[],"outputs":[{"name":"","type":"uint256","internalType":"uint256"}],"stateMutability":"view"},{"type":"function","name":"totalStaked","inputs":[],"outputs":[{"name":"","type":"uint256","internalType":"uint256"}],"stateMutability":"view"},{"type":"function","name":"totalVoterStakePct","inputs":[{"name":"","type":"address","internalType":"address"}],"outputs":[{"name":"","type":"uint256","internalType":"uint256"}],"stateMutability":"view"},{"type":"function","name":"voterStakedProposals","inputs":[{"name":"","type":"address","internalType":"address"},{"name":"","type":"uint256","internalType":"uint256"}],"outputs":[{"name":"","type":"uint256","internalType":"uint256"}],"stateMutability":"view"},{"type":"function","name":"votingPowerRegistry","inputs":[],"outputs":[{"name":"","type":"address","internalType":"contract IVotingPowerRegistry"}],"stateMutability":"view"},{"type":"event","name":"PointsDeactivated","inputs":[{"name":"member","type":"address","indexed":false,"internalType":"address"}],"anonymous":false},{"type":"event","name":"PowerDecreased","inputs":[{"name":"member","type":"address","indexed":false,"internalType":"address"},{"name":"tokensUnStaked","type":"uint256","indexed":false,"internalType":"uint256"},{"name":"pointsToDecrease","type":"uint256","indexed":false,"internalType":"uint256"}],"anonymous":false},{"type":"event","name":"PowerIncreased","inputs":[{"name":"member","type":"address","indexed":false,"internalType":"address"},{"name":"tokensStaked","type":"uint256","indexed":false,"internalType":"uint256"},{"name":"pointsToIncrease","type":"uint256","indexed":false,"internalType":"uint256"}],"anonymous":false},{"type":"event","name":"SupportAdded","inputs":[{"name":"from","type":"address","indexed":false,"internalType":"address"},{"name":"proposalId","type":"uint256","indexed":false,"internalType":"uint256"},{"name":"amount","type":"uint256","indexed":false,"internalType":"uint256"},{"name":"totalStakedAmount","type":"uint256","indexed":false,"internalType":"uint256"},{"name":"convictionLast","type":"uint256","indexed":false,"internalType":"uint256"}],"anonymous":false},{"type":"error","name":"OnlyActiveProposal","inputs":[{"name":"proposalId","type":"uint256","internalType":"uint256"}]},{"type":"error","name":"OnlyAllo","inputs":[{"name":"sender","type":"address","internalType":"address"},{"name":"allo","type":"address","internalType":"address"}]},{"type":"error","name":"OnlyCouncilSafe","inputs":[{"name":"sender","type":"address","internalType":"address"},{"name":"councilSafe","type":"address","internalType":"address"},{"name":"owner","type":"address","internalType":"address"}]},{"type":"error","name":"OnlyCouncilSafeOrMember","inputs":[{"name":"sender","type":"address","internalType":"address"},{"name":"councilSafe","type":"address","internalType":"address"}]},{"type":"error","name":"OnlyInitialized","inputs":[{"name":"poolId","type":"uint256","internalType":"uint256"}]},{"type":"error","name":"OnlyMember","inputs":[{"name":"wallet","type":"address","internalType":"address"},{"name":"community","type":"address","internalType":"address"}]},{"type":"error","name":"OnlyOwner","inputs":[{"name":"sender","type":"address","internalType":"address"},{"name":"ownerAddress","type":"address","internalType":"address"}]},{"type":"error","name":"OnlyRegistryCommunity","inputs":[{"name":"sender","type":"address","internalType":"address"},{"name":"registry","type":"address","internalType":"address"}]},{"type":"error","name":"OnlySubmitter","inputs":[{"name":"proposalId","type":"uint256","internalType":"uint256"},{"name":"submitter","type":"address","internalType":"address"},{"name":"sender","type":"address","internalType":"address"}]},{"type":"error","name":"ProposalDoesNotExist","inputs":[{"name":"proposalID","type":"uint256","internalType":"uint256"}]},{"type":"error","name":"StrategyPaused","inputs":[{"name":"controller","type":"address","internalType":"address"}]},{"type":"error","name":"StrategySelectorPaused","inputs":[{"name":"selector","type":"bytes4","internalType":"bytes4"},{"name":"controller","type":"address","internalType":"address"}]},{"type":"error","name":"UserCannotExecuteAction","inputs":[{"name":"sender","type":"address","internalType":"address"}]}],"bytecode":{"object":"0x608060405234801561000f575f80fd5b50611d8d8061001d5f395ff3fe608060405234801561000f575f80fd5b506004361061017e575f3560e01c806305caa7f3146101825780630bece79c146101ab5780630c0512e9146101be578063125fd1d9146101d55780631374b22d146101de5780631b36f56f146102015780631ddf1e23146102145780632506b8701461021e578063255ffb38146102445780632dbd6fdd146102635780632ed04b2b146102825780633396045914610295578063351d9f961461029e57806341bb7605146102b85780634ab4ba421461033f5780635db64b99146103475780636003e4141461036657806360b0645a14610379578063626c47e81461038c5780636453d9c414610394578063782aadff146103a757806380fd91cd146103ba578063814516ad146103cd578063817b1cd2146103d5578063868c57b8146103de5780638dc83094146103f157806394573cbb146103f9578063a28889e114610402578063a47ff7e51461042d578063aba9ffee14610437578063b6c61f3114610440578063f5be3f7c14610453575b5f80fd5b608054610195906001600160a01b031681565b6040516101a291906117ed565b60405180910390f35b607954610195906001600160a01b031681565b6101c7606e5481565b6040519081526020016101a2565b6101c7606f5481565b6101f16101ec366004611801565b61045c565b60405190151581526020016101a2565b608154610195906001600160a01b031681565b61021c610496565b005b6072546073546074546075546102349392919084565b6040516101a29493929190611818565b6101c7610252366004611801565b607e6020525f908152604090205481565b60765461027590610100900460ff1681565b6040516101a2919061185b565b6101c761029036600461187d565b6104a1565b6101c7606c5481565b6076546102ab9060ff1681565b6040516101a291906118a7565b6103076102c6366004611801565b607f6020525f90815260409020805460018201546002830154600384015460048501546005909501546001600160a01b039485169593909416939192909186565b604080516001600160a01b039788168152969095166020870152938501929092526060840152608083015260a082015260c0016101a2565b6101c7610814565b6101c76103553660046118c1565b607c6020525f908152604090205481565b607854610195906001600160a01b031681565b6101c7610387366004611801565b610a93565b6101c7600381565b61021c6103a23660046118c1565b610b57565b6101c76103b536600461187d565b610b9f565b608354610195906001600160a01b031681565b61021c610edf565b6101c760705481565b6101c76103ec36600461187d565b61102e565b6101f1611059565b6101c760825481565b606d54610415906001600160401b031681565b6040516001600160401b0390911681526020016101a2565b6077546101c79081565b6101c760715481565b607a54610195906001600160a01b031681565b6101c7611c2081565b5f818152607b60205260408120541580159061049057505f828152607b60205260409020600501546001600160a01b031615155b92915050565b61049f336110e5565b565b6078545f906001600160a01b031633146104e85760785460405163894215cf60e01b81526104df9133916001600160a01b03909116906004016118dc565b60405180910390fd5b608354604051637817ee4f60e01b81525f916001600160a01b031690637817ee4f9061051a90879030906004016118dc565b602060405180830381865afa158015610535573d5f803e3d5ffd5b505050506040513d601f19601f8201168201806040525081019061055991906118f6565b90505f6004607654610100900460ff16600481111561057a5761057a611833565b0361061257607854604051637817ee4f60e01b81525f916001600160a01b031690637817ee4f906105b190899030906004016118dc565b6020604051808303815f875af11580156105cd573d5f803e3d5ffd5b505050506040513d601f19601f820116820180604052508101906105f191906118f6565b9050828111610600575f61060a565b61060a8382611921565b9150506106ab565b60835460765460775460405163ccc8a64760e01b815273__$c032285ca413f3d1dae375e8699dd757fc$__9363ccc8a64793610669936001600160a01b03909216928b928b92610100900460ff1691600401611934565b602060405180830381865af4158015610684573d5f803e3d5ffd5b505050506040513d601f19601f820116820180604052508101906106a891906118f6565b90505b6001600160a01b0385165f908152607c6020526040812054908184116106d1575f6106db565b6106db8285611921565b905082811080156106eb57505f82115b15610775575f8260806106fe8487611921565b61070992911b611970565b90505f5b6001600160a01b0389165f908152607d6020526040902054811015610772576001600160a01b0389165f908152607d60205260409020805461076a918b918490811061075b5761075b61198f565b905f5260205f20015484611249565b60010161070d565b50505b8260715f8282546107869190611921565b909155505f9050610795611366565b6001600160a01b0389165f9081526001808301602090815260408084208a90556002850190915291829020805460ff19169091179055519091507f70b752f3fadb6ac131c0ece847fcbb6994ec56ed6411595710fd9b29c6ac6cc190610800908a908a9088906119a3565b60405180910390a150919695505050505050565b60655460685460405163068bcd8d60e01b81525f9283926001600160a01b039091169163068bcd8d9161084d9160040190815260200190565b5f60405180830381865afa158015610867573d5f803e3d5ffd5b505050506040513d5f823e601f3d908101601f1916820160405261088e9190810190611a52565b60400151905073eeeeeeeeeeeeeeeeeeeeeeeeeeeeeeeeeeeeeeed196001600160a01b038216016108c0574791505090565b6040516370a0823160e01b81525f906001600160a01b038316906370a08231906108ee9030906004016117ed565b602060405180830381865afa158015610909573d5f803e3d5ffd5b505050506040513d601f19601f8201168201806040525081019061092d91906118f6565b6080549091505f906001600160a01b0316156109b7576080546040516370a0823160e01b81526001600160a01b03909116906370a08231906109739030906004016117ed565b602060405180830381865afa15801561098e573d5f803e3d5ffd5b505050506040513d601f19601f820116820180604052508101906109b291906118f6565b6109b9565b5f5b90505f836001600160a01b031663313ce5676040518163ffffffff1660e01b8152600401602060405180830381865afa1580156109f8573d5f803e3d5ffd5b505050506040513d601f19601f82011682018060405250810190610a1c9190611b97565b905060128160ff161015610a5157610a35816012611bb7565b610a4090600a611cb0565b610a4a9083611970565b9150610a80565b60128160ff161115610a8057610a68601282611bb7565b610a7390600a611cb0565b610a7d9083611cbe565b91505b610a8a8284611cd5565b94505050505090565b5f818152607b60205260408120610aa8611059565b610ab6576003015492915050565b73__$f1b7c69ba751c396eddc93d3bbc5414fd9$__63010dfe64826007015443610ae09190611921565b600384015460028501546074546040516001600160e01b031960e087901b168152610b119493929190600401611818565b602060405180830381865af4158015610b2c573d5f803e3d5ffd5b505050506040513d601f19601f82011682018060405250810190610b5091906118f6565b9392505050565b6078546001600160a01b03163314610b935760785460405163894215cf60e01b81526104df9133916001600160a01b03909116906004016118dc565b610b9c816110e5565b50565b6078545f906001600160a01b03163314610bdd5760785460405163894215cf60e01b81526104df9133916001600160a01b03909116906004016118dc565b610be68361138a565b610c0557826040516307772b5360e51b81526004016104df91906117ed565b608354604051637817ee4f60e01b81525f916001600160a01b031690637817ee4f90610c3790879030906004016118dc565b602060405180830381865afa158015610c52573d5f803e3d5ffd5b505050506040513d601f19601f82011682018060405250810190610c7691906118f6565b90505f6004607654610100900460ff166004811115610c9757610c97611833565b03610d2f57607854604051637817ee4f60e01b81525f916001600160a01b031690637817ee4f90610cce90899030906004016118dc565b6020604051808303815f875af1158015610cea573d5f803e3d5ffd5b505050506040513d601f19601f82011682018060405250810190610d0e91906118f6565b9050808311610d1d575f610d27565b610d278184611921565b915050610dc8565b608354607654607754604051632c319f1360e11b815273__$c032285ca413f3d1dae375e8699dd757fc$__936358633e2693610d86936001600160a01b03909216928b928b92610100900460ff1691600401611934565b602060405180830381865af4158015610da1573d5f803e3d5ffd5b505050506040513d601f19601f82011682018060405250810190610dc591906118f6565b90505b60785460405163011de97360e61b81525f916001600160a01b03169063477a5cc090610dfa90899030906004016118dc565b602060405180830381865afa158015610e15573d5f803e3d5ffd5b505050506040513d601f19601f82011682018060405250810190610e399190611ce8565b90508015610e58578160715f828254610e529190611cd5565b90915550505b5f610e61611366565b6001600160a01b0388165f9081526001808301602090815260408084208990556002850190915291829020805460ff19169091179055519091507f0b9150e1e54346ed3fa36b977cd5d65dca5a649c737c3174a26bddaadd47667a90610ecc908990899087906119a3565b60405180910390a1509095945050505050565b610ee83361138a565b610f0757336040516307772b5360e51b81526004016104df91906117ed565b607854604051630d4a8b4960e01b81526001600160a01b0390911690630d4a8b4990610f3990339030906004016118dc565b5f604051808303815f87803b158015610f50575f80fd5b505af1158015610f62573d5f803e3d5ffd5b5050608354604051637817ee4f60e01b81525f93506001600160a01b039091169150637817ee4f90610f9a90339030906004016118dc565b602060405180830381865afa158015610fb5573d5f803e3d5ffd5b505050506040513d601f19601f82011682018060405250810190610fd991906118f6565b90508060715f828254610fec9190611cd5565b909155505f9050610ffb611366565b335f90815260018083016020908152604080842096909655600290930190925292909220805460ff191690921790915550565b607d602052815f5260405f208181548110611047575f80fd5b905f5260205f20015f91509150505481565b6078545f906001600160a01b03166110715750600190565b607854604051633a871fe160e01b81526001600160a01b0390911690633a871fe1906110a19030906004016117ed565b602060405180830381865afa1580156110bc573d5f803e3d5ffd5b505050506040513d601f19601f820116820180604052508101906110e09190611ce8565b905090565b608354604051637817ee4f60e01b81526001600160a01b0390911690637817ee4f9061111790849030906004016118dc565b602060405180830381865afa158015611132573d5f803e3d5ffd5b505050506040513d601f19601f8201168201806040525081019061115691906118f6565b60715f8282546111669190611921565b90915550506078546040516322bcf99960e01b81526001600160a01b03909116906322bcf9999061119d90849030906004016118dc565b5f604051808303815f87803b1580156111b4575f80fd5b505af11580156111c6573d5f803e3d5ffd5b505050505f6111d3611366565b6001600160a01b0383165f9081526001820160209081526040808320839055600284019091529020805460ff19169055905061120e826115a3565b7f1468da654b37bb3631011c1917d02e0db437d519918858d40b38b5e980ca033b8260405161123d91906117ed565b60405180910390a15050565b5f828152607b602090815260408083206001600160a01b0387168452600981019092528220549091608061127d8584611cbe565b61128b906001607f1b611cd5565b611296911c83611921565b90505f6112a38284611921565b60028501805491925082905f6112b98385611921565b90915550506001600160a01b0388165f9081526009860160205260408120849055607080548492906112ec908490611921565b90915550506001600160a01b0388165f908152607c602052604081208054849290611318908490611921565b90915550611328905085826116ce565b5f80516020611d6183398151915288888588600201548960030154604051611354959493929190611d07565b60405180910390a15050505050505050565b7f097c5f51be6c161c250a24cddb93265814159688a8e402290bbba8f3d8b83b9b90565b607a545f906001600160a01b03161561140e57607a546040516302154c3d60e51b81526001600160a01b03909116906342a987a0906113cf90859030906004016118dc565b602060405180830381865afa1580156113ea573d5f803e3d5ffd5b505050506040513d601f19601f820116820180604052508101906104909190611ce8565b6004607654610100900460ff16600481111561142c5761142c611833565b14801561144a57506078546083546001600160a01b03908116911614155b1561147f5760835460405163288c314960e21b81526001600160a01b039091169063a230c524906113cf9085906004016117ed565b6068546040516810531313d5d31254d560ba1b602082015260298101919091525f9060490160408051601f19818403018152908290528051602090910120607854632474521560e21b83529092506001600160a01b0316906391d14854906114ed9084905f90600401611d35565b602060405180830381865afa158015611508573d5f803e3d5ffd5b505050506040513d601f19601f8201168201806040525081019061152c9190611ce8565b80610b505750607854604051632474521560e21b81526001600160a01b03909116906391d14854906115649084908790600401611d35565b602060405180830381865afa15801561157f573d5f803e3d5ffd5b505050506040513d601f19601f82011682018060405250810190610b509190611ce8565b5f5b6001600160a01b0382165f908152607d60205260409020548110156116b4576001600160a01b0382165f908152607d602052604081208054839081106115ed576115ed61198f565b5f918252602080832090910154808352607b90915260409091209091506116138261045c565b156116aa576001600160a01b0384165f90815260098201602052604081208054908290556002830180549192839261164c908490611921565b925050819055508060705f8282546116649190611921565b90915550611674905082826116ce565b5f80516020611d6183398151915285845f856002015486600301546040516116a0959493929190611d07565b60405180910390a1505b50506001016115a5565b506001600160a01b03165f908152607c6020526040812055565b5f806116da8484611707565b91509150815f1480156116eb575080155b156116f65750505050565b600784015560039092019190915550565b5f80611711611059565b6117225750506003820154436117e6565b439050808460070154111561173957611739611d4c565b8084600701540361174e57505f9050806117e6565b73__$f1b7c69ba751c396eddc93d3bbc5414fd9$__63010dfe648560070154836117789190611921565b60038701546074546040516001600160e01b031960e086901b1681526117a49392918991600401611818565b602060405180830381865af41580156117bf573d5f803e3d5ffd5b505050506040513d601f19601f820116820180604052508101906117e391906118f6565b91505b9250929050565b6001600160a01b0391909116815260200190565b5f60208284031215611811575f80fd5b5035919050565b93845260208401929092526040830152606082015260800190565b634e487b7160e01b5f52602160045260245ffd5b6005811061185757611857611833565b9052565b602081016104908284611847565b6001600160a01b0381168114610b9c575f80fd5b5f806040838503121561188e575f80fd5b823561189981611869565b946020939093013593505050565b60208101600383106118bb576118bb611833565b91905290565b5f602082840312156118d1575f80fd5b8135610b5081611869565b6001600160a01b0392831681529116602082015260400190565b5f60208284031215611906575f80fd5b5051919050565b634e487b7160e01b5f52601160045260245ffd5b818103818111156104905761049061190d565b6001600160a01b038681168252851660208201526040810184905260a081016119606060830185611847565b8260808301529695505050505050565b5f8261198a57634e487b7160e01b5f52601260045260245ffd5b500490565b634e487b7160e01b5f52603260045260245ffd5b6001600160a01b039390931683526020830191909152604082015260600190565b634e487b7160e01b5f52604160045260245ffd5b60405160c081016001600160401b03811182821017156119fa576119fa6119c4565b60405290565b604080519081016001600160401b03811182821017156119fa576119fa6119c4565b604051601f8201601f191681016001600160401b0381118282101715611a4a57611a4a6119c4565b604052919050565b5f6020808385031215611a63575f80fd5b82516001600160401b0380821115611a79575f80fd5b9084019060c08287031215611a8c575f80fd5b611a946119d8565b8251815283830151611aa581611869565b818501526040830151611ab781611869565b6040820152606083015182811115611acd575f80fd5b830160408189031215611ade575f80fd5b611ae6611a00565b815181528582015184811115611afa575f80fd5b80830192505088601f830112611b0e575f80fd5b815184811115611b2057611b206119c4565b611b32601f8201601f19168801611a22565b94508085528987828501011115611b47575f80fd5b5f5b81811015611b64578381018801518682018901528701611b49565b505f908501870152948501929092526060810193909352506080818101519083015260a090810151908201529392505050565b5f60208284031215611ba7575f80fd5b815160ff81168114610b50575f80fd5b60ff82811682821603908111156104905761049061190d565b600181815b80851115611c0a57815f1904821115611bf057611bf061190d565b80851615611bfd57918102915b93841c9390800290611bd5565b509250929050565b5f82611c2057506001610490565b81611c2c57505f610490565b8160018114611c425760028114611c4c57611c68565b6001915050610490565b60ff841115611c5d57611c5d61190d565b50506001821b610490565b5060208310610133831016604e8410600b8410161715611c8b575081810a610490565b611c958383611bd0565b805f1904821115611ca857611ca861190d565b029392505050565b5f610b5060ff841683611c12565b80820281158282048414176104905761049061190d565b808201808211156104905761049061190d565b5f60208284031215611cf8575f80fd5b81518015158114610b50575f80fd5b6001600160a01b03959095168552602085019390935260408401919091526060830152608082015260a00190565b9182526001600160a01b0316602082015260400190565b634e487b7160e01b5f52600160045260245ffdfe0227f642ddcf2042ceaeafadb9d540f432072c00cd4862881667168dcc14710fa164736f6c6343000817000a","linkReferences":{"pkg/contracts/src/CVStrategy/ConvictionsUtils.sol":{"ConvictionsUtils":[{"start":2773,"length":20},{"start":5997,"length":20}]},"pkg/contracts/src/CVStrategy/PowerManagementUtils.sol":{"PowerManagementUtils":[{"start":1607,"length":20},{"start":3428,"length":20}]}}},"methodIdentifiers":{"DISPUTE_COOLDOWN_SEC()":"f5be3f7c","RULING_OPTIONS()":"626c47e8","_isStrategyEnabled()":"8dc83094","activatePoints()":"814516ad","arbitrableConfigs(uint256)":"41bb7605","calculateProposalConviction(uint256)":"60b0645a","cloneNonce()":"33960459","collateralVault()":"0bece79c","currentArbitrableConfigVersion()":"125fd1d9","cvParams()":"2506b870","deactivatePoints()":"1ddf1e23","deactivatePoints(address)":"6453d9c4","decreasePower(address,uint256)":"2ed04b2b","disputeCount()":"a28889e1","disputeIdToProposalId(uint256)":"255ffb38","getPoolAmount()":"4ab4ba42","increasePower(address,uint256)":"782aadff","pointConfig()":"a47ff7e5","pointSystem()":"2dbd6fdd","proposalCounter()":"0c0512e9","proposalExists(uint256)":"1374b22d","proposalType()":"351d9f96","registryCommunity()":"6003e414","streamingRatePerSecond()":"94573cbb","superfluidGDA()":"1b36f56f","superfluidToken()":"05caa7f3","sybilScorer()":"b6c61f31","totalPointsActivated()":"aba9ffee","totalStaked()":"817b1cd2","totalVoterStakePct(address)":"5db64b99","voterStakedProposals(address,uint256)":"868c57b8","votingPowerRegistry()":"80fd91cd"},"storageLayout":{"storage":[{"astId":106920,"contract":"pkg/contracts/src/CVStrategy/facets/CVPowerFacet.sol:CVPowerFacet","label":"_initialized","offset":0,"slot":"0","type":"t_uint8"},{"astId":106922,"contract":"pkg/contracts/src/CVStrategy/facets/CVPowerFacet.sol:CVPowerFacet","label":"_initializing","offset":1,"slot":"0","type":"t_bool"},{"astId":106926,"contract":"pkg/contracts/src/CVStrategy/facets/CVPowerFacet.sol:CVPowerFacet","label":"__gap_init","offset":0,"slot":"1","type":"t_array(t_uint256)50_storage"},{"astId":106929,"contract":"pkg/contracts/src/CVStrategy/facets/CVPowerFacet.sol:CVPowerFacet","label":"_owner","offset":0,"slot":"51","type":"t_address"},{"astId":106933,"contract":"pkg/contracts/src/CVStrategy/facets/CVPowerFacet.sol:CVPowerFacet","label":"__gap_ownable","offset":0,"slot":"52","type":"t_array(t_uint256)49_storage"},{"astId":106937,"contract":"pkg/contracts/src/CVStrategy/facets/CVPowerFacet.sol:CVPowerFacet","label":"allo","offset":0,"slot":"101","type":"t_contract(IAllo)2631"},{"astId":106939,"contract":"pkg/contracts/src/CVStrategy/facets/CVPowerFacet.sol:CVPowerFacet","label":"strategyId","offset":0,"slot":"102","type":"t_bytes32"},{"astId":106941,"contract":"pkg/contracts/src/CVStrategy/facets/CVPowerFacet.sol:CVPowerFacet","label":"poolActive","offset":0,"slot":"103","type":"t_bool"},{"astId":106943,"contract":"pkg/contracts/src/CVStrategy/facets/CVPowerFacet.sol:CVPowerFacet","label":"poolId","offset":0,"slot":"104","type":"t_uint256"},{"astId":106945,"contract":"pkg/contracts/src/CVStrategy/facets/CVPowerFacet.sol:CVPowerFacet","label":"poolAmount","offset":0,"slot":"105","type":"t_uint256"},{"astId":106948,"contract":"pkg/contracts/src/CVStrategy/facets/CVPowerFacet.sol:CVPowerFacet","label":"collateralVaultTemplate","offset":0,"slot":"106","type":"t_address"},{"astId":106951,"contract":"pkg/contracts/src/CVStrategy/facets/CVPowerFacet.sol:CVPowerFacet","label":"surpressStateMutabilityWarning","offset":0,"slot":"107","type":"t_uint256"},{"astId":106954,"contract":"pkg/contracts/src/CVStrategy/facets/CVPowerFacet.sol:CVPowerFacet","label":"cloneNonce","offset":0,"slot":"108","type":"t_uint256"},{"astId":106957,"contract":"pkg/contracts/src/CVStrategy/facets/CVPowerFacet.sol:CVPowerFacet","label":"disputeCount","offset":0,"slot":"109","type":"t_uint64"},{"astId":106960,"contract":"pkg/contracts/src/CVStrategy/facets/CVPowerFacet.sol:CVPowerFacet","label":"proposalCounter","offset":0,"slot":"110","type":"t_uint256"},{"astId":106963,"contract":"pkg/contracts/src/CVStrategy/facets/CVPowerFacet.sol:CVPowerFacet","label":"currentArbitrableConfigVersion","offset":0,"slot":"111","type":"t_uint256"},{"astId":106966,"contract":"pkg/contracts/src/CVStrategy/facets/CVPowerFacet.sol:CVPowerFacet","label":"totalStaked","offset":0,"slot":"112","type":"t_uint256"},{"astId":106969,"contract":"pkg/contracts/src/CVStrategy/facets/CVPowerFacet.sol:CVPowerFacet","label":"totalPointsActivated","offset":0,"slot":"113","type":"t_uint256"},{"astId":106973,"contract":"pkg/contracts/src/CVStrategy/facets/CVPowerFacet.sol:CVPowerFacet","label":"cvParams","offset":0,"slot":"114","type":"t_struct(CVParams)108489_storage"},{"astId":106977,"contract":"pkg/contracts/src/CVStrategy/facets/CVPowerFacet.sol:CVPowerFacet","label":"proposalType","offset":0,"slot":"118","type":"t_enum(ProposalType)108389"},{"astId":106981,"contract":"pkg/contracts/src/CVStrategy/facets/CVPowerFacet.sol:CVPowerFacet","label":"pointSystem","offset":1,"slot":"118","type":"t_enum(PointSystem)108395"},{"astId":106985,"contract":"pkg/contracts/src/CVStrategy/facets/CVPowerFacet.sol:CVPowerFacet","label":"pointConfig","offset":0,"slot":"119","type":"t_struct(PointSystemConfig)108466_storage"},{"astId":106989,"contract":"pkg/contracts/src/CVStrategy/facets/CVPowerFacet.sol:CVPowerFacet","label":"registryCommunity","offset":0,"slot":"120","type":"t_contract(RegistryCommunity)118711"},{"astId":106993,"contract":"pkg/contracts/src/CVStrategy/facets/CVPowerFacet.sol:CVPowerFacet","label":"collateralVault","offset":0,"slot":"121","type":"t_contract(ICollateralVault)124469"},{"astId":106997,"contract":"pkg/contracts/src/CVStrategy/facets/CVPowerFacet.sol:CVPowerFacet","label":"sybilScorer","offset":0,"slot":"122","type":"t_contract(ISybilScorer)116128"},{"astId":107003,"contract":"pkg/contracts/src/CVStrategy/facets/CVPowerFacet.sol:CVPowerFacet","label":"proposals","offset":0,"slot":"123","type":"t_mapping(t_uint256,t_struct(Proposal)108458_storage)"},{"astId":107008,"contract":"pkg/contracts/src/CVStrategy/facets/CVPowerFacet.sol:CVPowerFacet","label":"totalVoterStakePct","offset":0,"slot":"124","type":"t_mapping(t_address,t_uint256)"},{"astId":107014,"contract":"pkg/contracts/src/CVStrategy/facets/CVPowerFacet.sol:CVPowerFacet","label":"voterStakedProposals","offset":0,"slot":"125","type":"t_mapping(t_address,t_array(t_uint256)dyn_storage)"},{"astId":107019,"contract":"pkg/contracts/src/CVStrategy/facets/CVPowerFacet.sol:CVPowerFacet","label":"disputeIdToProposalId","offset":0,"slot":"126","type":"t_mapping(t_uint256,t_uint256)"},{"astId":107025,"contract":"pkg/contracts/src/CVStrategy/facets/CVPowerFacet.sol:CVPowerFacet","label":"arbitrableConfigs","offset":0,"slot":"127","type":"t_mapping(t_uint256,t_struct(ArbitrableConfig)108480_storage)"},{"astId":107029,"contract":"pkg/contracts/src/CVStrategy/facets/CVPowerFacet.sol:CVPowerFacet","label":"superfluidToken","offset":0,"slot":"128","type":"t_contract(ISuperToken)80098"},{"astId":107033,"contract":"pkg/contracts/src/CVStrategy/facets/CVPowerFacet.sol:CVPowerFacet","label":"superfluidGDA","offset":0,"slot":"129","type":"t_contract(ISuperfluidPool)78926"},{"astId":107036,"contract":"pkg/contracts/src/CVStrategy/facets/CVPowerFacet.sol:CVPowerFacet","label":"streamingRatePerSecond","offset":0,"slot":"130","type":"t_uint256"},{"astId":107040,"contract":"pkg/contracts/src/CVStrategy/facets/CVPowerFacet.sol:CVPowerFacet","label":"votingPowerRegistry","offset":0,"slot":"131","type":"t_contract(IVotingPowerRegistry)124673"},{"astId":107045,"contract":"pkg/contracts/src/CVStrategy/facets/CVPowerFacet.sol:CVPowerFacet","label":"__gap","offset":0,"slot":"132","type":"t_array(t_uint256)46_storage"}],"types":{"t_address":{"encoding":"inplace","label":"address","numberOfBytes":"20"},"t_array(t_uint256)46_storage":{"encoding":"inplace","label":"uint256[46]","numberOfBytes":"1472","base":"t_uint256"},"t_array(t_uint256)49_storage":{"encoding":"inplace","label":"uint256[49]","numberOfBytes":"1568","base":"t_uint256"},"t_array(t_uint256)50_storage":{"encoding":"inplace","label":"uint256[50]","numberOfBytes":"1600","base":"t_uint256"},"t_array(t_uint256)dyn_storage":{"encoding":"dynamic_array","label":"uint256[]","numberOfBytes":"32","base":"t_uint256"},"t_bool":{"encoding":"inplace","label":"bool","numberOfBytes":"1"},"t_bytes32":{"encoding":"inplace","label":"bytes32","numberOfBytes":"32"},"t_contract(IAllo)2631":{"encoding":"inplace","label":"contract IAllo","numberOfBytes":"20"},"t_contract(IArbitrator)124436":{"encoding":"inplace","label":"contract IArbitrator","numberOfBytes":"20"},"t_contract(ICollateralVault)124469":{"encoding":"inplace","label":"contract ICollateralVault","numberOfBytes":"20"},"t_contract(ISuperToken)80098":{"encoding":"inplace","label":"contract ISuperToken","numberOfBytes":"20"},"t_contract(ISuperfluidPool)78926":{"encoding":"inplace","label":"contract ISuperfluidPool","numberOfBytes":"20"},"t_contract(ISybilScorer)116128":{"encoding":"inplace","label":"contract ISybilScorer","numberOfBytes":"20"},"t_contract(IVotingPowerRegistry)124673":{"encoding":"inplace","label":"contract IVotingPowerRegistry","numberOfBytes":"20"},"t_contract(RegistryCommunity)118711":{"encoding":"inplace","label":"contract RegistryCommunity","numberOfBytes":"20"},"t_enum(PointSystem)108395":{"encoding":"inplace","label":"enum PointSystem","numberOfBytes":"1"},"t_enum(ProposalStatus)108415":{"encoding":"inplace","label":"enum ProposalStatus","numberOfBytes":"1"},"t_enum(ProposalType)108389":{"encoding":"inplace","label":"enum ProposalType","numberOfBytes":"1"},"t_mapping(t_address,t_array(t_uint256)dyn_storage)":{"encoding":"mapping","key":"t_address","label":"mapping(address => uint256[])","numberOfBytes":"32","value":"t_array(t_uint256)dyn_storage"},"t_mapping(t_address,t_uint256)":{"encoding":"mapping","key":"t_address","label":"mapping(address => uint256)","numberOfBytes":"32","value":"t_uint256"},"t_mapping(t_uint256,t_struct(ArbitrableConfig)108480_storage)":{"encoding":"mapping","key":"t_uint256","label":"mapping(uint256 => struct ArbitrableConfig)","numberOfBytes":"32","value":"t_struct(ArbitrableConfig)108480_storage"},"t_mapping(t_uint256,t_struct(Proposal)108458_storage)":{"encoding":"mapping","key":"t_uint256","label":"mapping(uint256 => struct Proposal)","numberOfBytes":"32","value":"t_struct(Proposal)108458_storage"},"t_mapping(t_uint256,t_uint256)":{"encoding":"mapping","key":"t_uint256","label":"mapping(uint256 => uint256)","numberOfBytes":"32","value":"t_uint256"},"t_string_storage":{"encoding":"bytes","label":"string","numberOfBytes":"32"},"t_struct(ArbitrableConfig)108480_storage":{"encoding":"inplace","label":"struct ArbitrableConfig","numberOfBytes":"192","members":[{"astId":108469,"contract":"pkg/contracts/src/CVStrategy/facets/CVPowerFacet.sol:CVPowerFacet","label":"arbitrator","offset":0,"slot":"0","type":"t_contract(IArbitrator)124436"},{"astId":108471,"contract":"pkg/contracts/src/CVStrategy/facets/CVPowerFacet.sol:CVPowerFacet","label":"tribunalSafe","offset":0,"slot":"1","type":"t_address"},{"astId":108473,"contract":"pkg/contracts/src/CVStrategy/facets/CVPowerFacet.sol:CVPowerFacet","label":"submitterCollateralAmount","offset":0,"slot":"2","type":"t_uint256"},{"astId":108475,"contract":"pkg/contracts/src/CVStrategy/facets/CVPowerFacet.sol:CVPowerFacet","label":"challengerCollateralAmount","offset":0,"slot":"3","type":"t_uint256"},{"astId":108477,"contract":"pkg/contracts/src/CVStrategy/facets/CVPowerFacet.sol:CVPowerFacet","label":"defaultRuling","offset":0,"slot":"4","type":"t_uint256"},{"astId":108479,"contract":"pkg/contracts/src/CVStrategy/facets/CVPowerFacet.sol:CVPowerFacet","label":"defaultRulingTimeout","offset":0,"slot":"5","type":"t_uint256"}]},"t_struct(CVParams)108489_storage":{"encoding":"inplace","label":"struct CVParams","numberOfBytes":"128","members":[{"astId":108482,"contract":"pkg/contracts/src/CVStrategy/facets/CVPowerFacet.sol:CVPowerFacet","label":"maxRatio","offset":0,"slot":"0","type":"t_uint256"},{"astId":108484,"contract":"pkg/contracts/src/CVStrategy/facets/CVPowerFacet.sol:CVPowerFacet","label":"weight","offset":0,"slot":"1","type":"t_uint256"},{"astId":108486,"contract":"pkg/contracts/src/CVStrategy/facets/CVPowerFacet.sol:CVPowerFacet","label":"decay","offset":0,"slot":"2","type":"t_uint256"},{"astId":108488,"contract":"pkg/contracts/src/CVStrategy/facets/CVPowerFacet.sol:CVPowerFacet","label":"minThresholdPoints","offset":0,"slot":"3","type":"t_uint256"}]},"t_struct(Metadata)3086_storage":{"encoding":"inplace","label":"struct Metadata","numberOfBytes":"64","members":[{"astId":3082,"contract":"pkg/contracts/src/CVStrategy/facets/CVPowerFacet.sol:CVPowerFacet","label":"protocol","offset":0,"slot":"0","type":"t_uint256"},{"astId":3085,"contract":"pkg/contracts/src/CVStrategy/facets/CVPowerFacet.sol:CVPowerFacet","label":"pointer","offset":0,"slot":"1","type":"t_string_storage"}]},"t_struct(PointSystemConfig)108466_storage":{"encoding":"inplace","label":"struct PointSystemConfig","numberOfBytes":"32","members":[{"astId":108465,"contract":"pkg/contracts/src/CVStrategy/facets/CVPowerFacet.sol:CVPowerFacet","label":"maxAmount","offset":0,"slot":"0","type":"t_uint256"}]},"t_struct(Proposal)108458_storage":{"encoding":"inplace","label":"struct Proposal","numberOfBytes":"576","members":[{"astId":108424,"contract":"pkg/contracts/src/CVStrategy/facets/CVPowerFacet.sol:CVPowerFacet","label":"proposalId","offset":0,"slot":"0","type":"t_uint256"},{"astId":108426,"contract":"pkg/contracts/src/CVStrategy/facets/CVPowerFacet.sol:CVPowerFacet","label":"requestedAmount","offset":0,"slot":"1","type":"t_uint256"},{"astId":108428,"contract":"pkg/contracts/src/CVStrategy/facets/CVPowerFacet.sol:CVPowerFacet","label":"stakedAmount","offset":0,"slot":"2","type":"t_uint256"},{"astId":108430,"contract":"pkg/contracts/src/CVStrategy/facets/CVPowerFacet.sol:CVPowerFacet","label":"convictionLast","offset":0,"slot":"3","type":"t_uint256"},{"astId":108432,"contract":"pkg/contracts/src/CVStrategy/facets/CVPowerFacet.sol:CVPowerFacet","label":"beneficiary","offset":0,"slot":"4","type":"t_address"},{"astId":108434,"contract":"pkg/contracts/src/CVStrategy/facets/CVPowerFacet.sol:CVPowerFacet","label":"submitter","offset":0,"slot":"5","type":"t_address"},{"astId":108436,"contract":"pkg/contracts/src/CVStrategy/facets/CVPowerFacet.sol:CVPowerFacet","label":"requestedToken","offset":0,"slot":"6","type":"t_address"},{"astId":108438,"contract":"pkg/contracts/src/CVStrategy/facets/CVPowerFacet.sol:CVPowerFacet","label":"blockLast","offset":0,"slot":"7","type":"t_uint256"},{"astId":108441,"contract":"pkg/contracts/src/CVStrategy/facets/CVPowerFacet.sol:CVPowerFacet","label":"proposalStatus","offset":0,"slot":"8","type":"t_enum(ProposalStatus)108415"},{"astId":108445,"contract":"pkg/contracts/src/CVStrategy/facets/CVPowerFacet.sol:CVPowerFacet","label":"voterStakedPoints","offset":0,"slot":"9","type":"t_mapping(t_address,t_uint256)"},{"astId":108448,"contract":"pkg/contracts/src/CVStrategy/facets/CVPowerFacet.sol:CVPowerFacet","label":"metadata","offset":0,"slot":"10","type":"t_struct(Metadata)3086_storage"},{"astId":108451,"contract":"pkg/contracts/src/CVStrategy/facets/CVPowerFacet.sol:CVPowerFacet","label":"disputeInfo","offset":0,"slot":"12","type":"t_struct(ProposalDisputeInfo)108422_storage"},{"astId":108453,"contract":"pkg/contracts/src/CVStrategy/facets/CVPowerFacet.sol:CVPowerFacet","label":"lastDisputeCompletion","offset":0,"slot":"15","type":"t_uint256"},{"astId":108455,"contract":"pkg/contracts/src/CVStrategy/facets/CVPowerFacet.sol:CVPowerFacet","label":"arbitrableConfigVersion","offset":0,"slot":"16","type":"t_uint256"},{"astId":108457,"contract":"pkg/contracts/src/CVStrategy/facets/CVPowerFacet.sol:CVPowerFacet","label":"creationTimestamp","offset":0,"slot":"17","type":"t_uint256"}]},"t_struct(ProposalDisputeInfo)108422_storage":{"encoding":"inplace","label":"struct ProposalDisputeInfo","numberOfBytes":"96","members":[{"astId":108417,"contract":"pkg/contracts/src/CVStrategy/facets/CVPowerFacet.sol:CVPowerFacet","label":"disputeId","offset":0,"slot":"0","type":"t_uint256"},{"astId":108419,"contract":"pkg/contracts/src/CVStrategy/facets/CVPowerFacet.sol:CVPowerFacet","label":"disputeTimestamp","offset":0,"slot":"1","type":"t_uint256"},{"astId":108421,"contract":"pkg/contracts/src/CVStrategy/facets/CVPowerFacet.sol:CVPowerFacet","label":"challenger","offset":0,"slot":"2","type":"t_address"}]},"t_uint256":{"encoding":"inplace","label":"uint256","numberOfBytes":"32"},"t_uint64":{"encoding":"inplace","label":"uint64","numberOfBytes":"8"},"t_uint8":{"encoding":"inplace","label":"uint8","numberOfBytes":"1"}}},"id":166}