{"abi":[{"type":"function","name":"DEFAULT_FUNDING_UNITS","inputs":[],"outputs":[{"name":"","type":"uint128","internalType":"uint128"}],"stateMutability":"view"},{"type":"function","name":"DISPUTE_COOLDOWN_SEC","inputs":[],"outputs":[{"name":"","type":"uint256","internalType":"uint256"}],"stateMutability":"view"},{"type":"function","name":"RULING_OPTIONS","inputs":[],"outputs":[{"name":"","type":"uint256","internalType":"uint256"}],"stateMutability":"view"},{"type":"function","name":"TOTAL_GDA_UNITS","inputs":[],"outputs":[{"name":"","type":"uint128","internalType":"uint128"}],"stateMutability":"view"},{"type":"function","name":"arbitrableConfigs","inputs":[{"name":"","type":"uint256","internalType":"uint256"}],"outputs":[{"name":"arbitrator","type":"address","internalType":"contract IArbitrator"},{"name":"tribunalSafe","type":"address","internalType":"address"},{"name":"submitterCollateralAmount","type":"uint256","internalType":"uint256"},{"name":"challengerCollateralAmount","type":"uint256","internalType":"uint256"},{"name":"defaultRuling","type":"uint256","internalType":"uint256"},{"name":"defaultRulingTimeout","type":"uint256","internalType":"uint256"}],"stateMutability":"view"},{"type":"function","name":"cloneNonce","inputs":[],"outputs":[{"name":"","type":"uint256","internalType":"uint256"}],"stateMutability":"view"},{"type":"function","name":"collateralVault","inputs":[],"outputs":[{"name":"","type":"address","internalType":"contract ICollateralVault"}],"stateMutability":"view"},{"type":"function","name":"currentArbitrableConfigVersion","inputs":[],"outputs":[{"name":"","type":"uint256","internalType":"uint256"}],"stateMutability":"view"},{"type":"function","name":"cvParams","inputs":[],"outputs":[{"name":"maxRatio","type":"uint256","internalType":"uint256"},{"name":"weight","type":"uint256","internalType":"uint256"},{"name":"decay","type":"uint256","internalType":"uint256"},{"name":"minThresholdPoints","type":"uint256","internalType":"uint256"}],"stateMutability":"view"},{"type":"function","name":"cvVault","inputs":[],"outputs":[{"name":"","type":"address","internalType":"contract ICVVault"}],"stateMutability":"view"},{"type":"function","name":"deactivatePoints","inputs":[],"outputs":[],"stateMutability":"nonpayable"},{"type":"function","name":"deactivatePoints","inputs":[{"name":"_member","type":"address","internalType":"address"}],"outputs":[],"stateMutability":"nonpayable"},{"type":"function","name":"decreasePower","inputs":[{"name":"_member","type":"address","internalType":"address"},{"name":"_amountToUnstake","type":"uint256","internalType":"uint256"}],"outputs":[{"name":"","type":"uint256","internalType":"uint256"}],"stateMutability":"nonpayable"},{"type":"function","name":"disputeCount","inputs":[],"outputs":[{"name":"","type":"uint64","internalType":"uint64"}],"stateMutability":"view"},{"type":"function","name":"disputeIdToProposalId","inputs":[{"name":"","type":"uint256","internalType":"uint256"}],"outputs":[{"name":"","type":"uint256","internalType":"uint256"}],"stateMutability":"view"},{"type":"function","name":"pointConfig","inputs":[],"outputs":[{"name":"maxAmount","type":"uint256","internalType":"uint256"}],"stateMutability":"view"},{"type":"function","name":"pointSystem","inputs":[],"outputs":[{"name":"","type":"uint8","internalType":"enum PointSystem"}],"stateMutability":"view"},{"type":"function","name":"proposalCounter","inputs":[],"outputs":[{"name":"","type":"uint256","internalType":"uint256"}],"stateMutability":"view"},{"type":"function","name":"proposalType","inputs":[],"outputs":[{"name":"","type":"uint8","internalType":"enum ProposalType"}],"stateMutability":"view"},{"type":"function","name":"proposals","inputs":[{"name":"","type":"uint256","internalType":"uint256"}],"outputs":[{"name":"proposalId","type":"uint256","internalType":"uint256"},{"name":"requestedAmount","type":"uint256","internalType":"uint256"},{"name":"stakedAmount","type":"uint256","internalType":"uint256"},{"name":"convictionLast","type":"uint256","internalType":"uint256"},{"name":"beneficiary","type":"address","internalType":"address"},{"name":"submitter","type":"address","internalType":"address"},{"name":"requestedToken","type":"address","internalType":"address"},{"name":"blockLast","type":"uint256","internalType":"uint256"},{"name":"proposalStatus","type":"uint8","internalType":"enum ProposalStatus"},{"name":"metadata","type":"tuple","internalType":"struct Metadata","components":[{"name":"protocol","type":"uint256","internalType":"uint256"},{"name":"pointer","type":"string","internalType":"string"}]},{"name":"disputeInfo","type":"tuple","internalType":"struct ProposalDisputeInfo","components":[{"name":"disputeId","type":"uint256","internalType":"uint256"},{"name":"disputeTimestamp","type":"uint256","internalType":"uint256"},{"name":"challenger","type":"address","internalType":"address"}]},{"name":"lastDisputeCompletion","type":"uint256","internalType":"uint256"},{"name":"arbitrableConfigVersion","type":"uint256","internalType":"uint256"}],"stateMutability":"view"},{"type":"function","name":"registryCommunity","inputs":[],"outputs":[{"name":"","type":"address","internalType":"contract IVotingPowerRegistry"}],"stateMutability":"view"},{"type":"function","name":"streamingEnabled","inputs":[],"outputs":[{"name":"","type":"bool","internalType":"bool"}],"stateMutability":"view"},{"type":"function","name":"superfluidToken","inputs":[],"outputs":[{"name":"","type":"address","internalType":"contract ISuperToken"}],"stateMutability":"view"},{"type":"function","name":"sybilScorer","inputs":[],"outputs":[{"name":"","type":"address","internalType":"contract ISybilScorer"}],"stateMutability":"view"},{"type":"function","name":"totalPointsActivated","inputs":[],"outputs":[{"name":"","type":"uint256","internalType":"uint256"}],"stateMutability":"view"},{"type":"function","name":"totalStaked","inputs":[],"outputs":[{"name":"","type":"uint256","internalType":"uint256"}],"stateMutability":"view"},{"type":"function","name":"totalVoterStakePct","inputs":[{"name":"","type":"address","internalType":"address"}],"outputs":[{"name":"","type":"uint256","internalType":"uint256"}],"stateMutability":"view"},{"type":"function","name":"voterStakedProposals","inputs":[{"name":"","type":"address","internalType":"address"},{"name":"","type":"uint256","internalType":"uint256"}],"outputs":[{"name":"","type":"uint256","internalType":"uint256"}],"stateMutability":"view"},{"type":"function","name":"ydsStrategy","inputs":[],"outputs":[{"name":"","type":"address","internalType":"contract IYDSStrategy"}],"stateMutability":"view"},{"type":"event","name":"PointsDeactivated","inputs":[{"name":"member","type":"address","indexed":false,"internalType":"address"}],"anonymous":false},{"type":"event","name":"PowerDecreased","inputs":[{"name":"member","type":"address","indexed":false,"internalType":"address"},{"name":"tokensUnStaked","type":"uint256","indexed":false,"internalType":"uint256"},{"name":"pointsToDecrease","type":"uint256","indexed":false,"internalType":"uint256"}],"anonymous":false},{"type":"event","name":"SupportAdded","inputs":[{"name":"from","type":"address","indexed":false,"internalType":"address"},{"name":"proposalId","type":"uint256","indexed":false,"internalType":"uint256"},{"name":"amount","type":"uint256","indexed":false,"internalType":"uint256"},{"name":"totalStakedAmount","type":"uint256","indexed":false,"internalType":"uint256"},{"name":"convictionLast","type":"uint256","indexed":false,"internalType":"uint256"}],"anonymous":false},{"type":"error","name":"GDANotConfigured","inputs":[]},{"type":"error","name":"InvalidUnits","inputs":[]},{"type":"error","name":"NoVaultConfigured","inputs":[]},{"type":"error","name":"NoYDSStrategy","inputs":[]},{"type":"error","name":"OnlyPendingRecipient","inputs":[]},{"type":"error","name":"ProposalNotFoundStream","inputs":[]},{"type":"error","name":"StreamAlreadyActive","inputs":[{"name":"proposalId","type":"uint256","internalType":"uint256"}]},{"type":"error","name":"StreamNotActive","inputs":[{"name":"proposalId","type":"uint256","internalType":"uint256"}]},{"type":"error","name":"StreamingNotEnabled","inputs":[]},{"type":"error","name":"SuperfluidOperationFailed","inputs":[{"name":"operation","type":"string","internalType":"string"}]},{"type":"error","name":"WrongProposalType","inputs":[]}],"bytecode":{"object":"0x608060405234801561001057600080fd5b50611235806100206000396000f3fe608060405234801561001057600080fd5b506004361061015f5760003560e01c8063013cf08b1461016457806305caa7f3146101995780630bece79c146101b95780630c0512e9146101cc578063125fd1d9146101e35780631ddf1e23146101ec5780632506b870146101f6578063255ffb381461021c5780632dbd6fdd1461023c5780632ed04b2b1461025b578063339604591461026e578063351d9f961461027757806341bb7605146102845780635db64b991461030c5780636003e4141461032c578063626c47e81461033f5780636453d9c4146103475780637a3c8b381461035a578063817b1cd21461037b578063868c57b8146103845780638a05105a14610397578063a28889e1146103bb578063a47ff7e5146103e6578063aba9ffee146103f0578063b4b9a107146103f9578063b6c61f3114610402578063d4ec787914610415578063f5be3f7c14610428578063f846782114610431575b600080fd5b610177610172366004610e55565b610444565b6040516101909d9c9b9a99989796959493929190610ee8565b60405180910390f35b6082546101ac906001600160a01b031681565b6040516101909190610fa2565b607a546101ac906001600160a01b031681565b6101d5606f5481565b604051908152602001610190565b6101d560705481565b6101f4610592565b005b60735460745460755460765461020c9392919084565b6040516101909493929190610fb6565b6101d561022a366004610e55565b60806020526000908152604090205481565b60775461024e90610100900460ff1681565b6040516101909190610fe1565b6101d5610269366004611010565b61059d565b6101d5606d5481565b60775461024e9060ff1681565b6102d4610292366004610e55565b6081602052600090815260409020805460018201546002830154600384015460048501546005909501546001600160a01b039485169593909416939192909186565b604080516001600160a01b039788168152969095166020870152938501929092526060840152608083015260a082015260c001610190565b6101d561031a36600461103a565b607e6020526000908152604090205481565b6079546101ac906001600160a01b031681565b6101d5600381565b6101f461035536600461103a565b61091e565b61036361271081565b6040516001600160801b039091168152602001610190565b6101d560715481565b6101d5610392366004611010565b610932565b6085546103ab90600160a01b900460ff1681565b6040519015158152602001610190565b606e546103ce906001600160401b031681565b6040516001600160401b039091168152602001610190565b6078546101d59081565b6101d560725481565b6103636103e881565b607c546101ac906001600160a01b031681565b607b546101ac906001600160a01b031681565b6101d5611c2081565b6083546101ac906001600160a01b031681565b607d602090815260009182526040918290208054600182015460028301546003840154600485015460058601546006870154600788015460088901548b51808d01909c52600a8a0180548d52600b8b0180549a9d999c989b979a6001600160a01b039788169a968816999790951697939660ff90931695939491928401916104cb9061105c565b80601f01602080910402602001604051908101604052809291908181526020018280546104f79061105c565b80156105445780601f1061051957610100808354040283529160200191610544565b820191906000526020600020905b81548152906001019060200180831161052757829003601f168201915b50505091909252505060408051606081018252600c8501548152600d8501546020820152600e8501546001600160a01b031691810191909152600f840154601090940154929390929091508d565b61059b33610963565b565b60006105a7610a93565b60795460775460785460405163ccc8a64760e01b815260009373__$c032285ca413f3d1dae375e8699dd757fc$__9363ccc8a64793610602936001600160a01b03909316928a928a9261010090910460ff1691600401611096565b602060405180830381865af415801561061f573d6000803e3d6000fd5b505050506040513d601f19601f8201168201806040525081019061064391906110d1565b6001600160a01b038086166000908152607e6020526040808220546079549151637817ee4f60e01b81529495509391928392911690637817ee4f9061068e908a9030906004016110ea565b602060405180830381865afa1580156106ab573d6000803e3d6000fd5b505050506040513d601f19601f820116820180604052508101906106cf91906110d1565b90508281116106df5760006106e9565b6106e9838261111a565b915050828110156108b1576000826080610703848761111a565b61070e92911b61112d565b905060005b6001600160a01b0388166000908152607f60205260409020548110156108ae576001600160a01b0388166000908152607f6020526040812080548390811061075d5761075d61114f565b6000918252602080832090910154808352607d825260408084206001600160a01b038e168552600981019093528320549093509091608061079e8784611165565b6107ac906001607f1b61117c565b6107b7911c8361111a565b60028401549091506107c9828461111a565b8460020160008282546107dc919061111a565b90915550506001600160a01b038d1660009081526009850160205260409020829055610808828461111a565b60716000828254610819919061111a565b909155506108299050828461111a565b6001600160a01b038e166000908152607e60205260408120805490919061085190849061111a565b9091555061086190508482610aaa565b506000805160206112098339815191528c85838660020154876003015460405161088f95949392919061118f565b60405180910390a15050505080806108a6906111bd565b915050610713565b50505b82607260008282546108c3919061111a565b9091555050604080516001600160a01b0388168152602081018790529081018490527f70b752f3fadb6ac131c0ece847fcbb6994ec56ed6411595710fd9b29c6ac6cc19060600160405180910390a150909150505b92915050565b610926610a93565b61092f81610963565b50565b607f602052816000526040600020818154811061094e57600080fd5b90600052602060002001600091509150505481565b607954604051637817ee4f60e01b81526001600160a01b0390911690637817ee4f9061099590849030906004016110ea565b602060405180830381865afa1580156109b2573d6000803e3d6000fd5b505050506040513d601f19601f820116820180604052508101906109d691906110d1565b607260008282546109e7919061111a565b90915550506079546040516322bcf99960e01b81526001600160a01b03909116906322bcf99990610a1e90849030906004016110ea565b600060405180830381600087803b158015610a3857600080fd5b505af1158015610a4c573d6000803e3d6000fd5b50505050610a5981610b47565b7f1468da654b37bb3631011c1917d02e0db437d519918858d40b38b5e980ca033b81604051610a889190610fa2565b60405180910390a150565b6079546001600160a01b0316331461059b57600080fd5b600080610ab78484610c86565b91509150816000148015610ac9575080155b15610ad45750505050565b6007840181905560038401829055608554600160a01b900460ff168015610b315750600160775460ff166003811115610b0f57610b0f610e6e565b1480610b315750600260775460ff166003811115610b2f57610b2f610e6e565b145b15610b41578354610b4190610d57565b50505050565b60005b6001600160a01b0382166000908152607f6020526040902054811015610c6b576001600160a01b0382166000908152607f60205260408120805483908110610b9457610b9461114f565b6000918252602080832090910154808352607d9091526040909120909150610bbb82610e1c565b15610c56576001600160a01b0384166000908152600982016020526040812080549082905560028301805491928392610bf590849061111a565b925050819055508060716000828254610c0e919061111a565b90915550610c1e90508282610aaa565b6000805160206112098339815191528584600085600201548660030154604051610c4c95949392919061118f565b60405180910390a1505b50508080610c63906111bd565b915050610b4a565b506001600160a01b03166000908152607e6020526040812055565b6000804390508084600701541115610ca057610ca06111d6565b80846007015403610cb657506000905080610d50565b73__$f1b7c69ba751c396eddc93d3bbc5414fd9$__63010dfe64856007015483610ce0919061111a565b60038701546075546040516001600160e01b031960e086901b168152610d0c9392918991600401610fb6565b602060405180830381865af4158015610d29573d6000803e3d6000fd5b505050506040513d601f19601f82011682018060405250810190610d4d91906110d1565b91505b9250929050565b60008181526084602052604090206002810154610d7590600a61117c565b431015610d80575050565b4360028201556040516024810183905260006044820181905290309060640160408051601f198184030181529181526020820180516001600160e01b031663020dc1f960e01b17905251610dd491906111ec565b600060405180830381855af49150503d8060008114610e0f576040519150601f19603f3d011682016040523d82523d6000602084013e610e14565b606091505b505050505050565b6000818152607d6020526040812054158015906109185750506000908152607d60205260409020600501546001600160a01b0316151590565b600060208284031215610e6757600080fd5b5035919050565b634e487b7160e01b600052602160045260246000fd5b60005b83811015610e9f578181015183820152602001610e87565b50506000910152565b8051825260006020820151604060208501528051806040860152610ed3816060870160208501610e84565b601f01601f1916939093016060019392505050565b8d8152602081018d9052604081018c9052606081018b90526001600160a01b038a8116608083015289811660a0830152881660c082015260e0810187905260006101e060078810610f3b57610f3b610e6e565b8761010084015280610120840152610f5581840188610ea8565b8651610140850152602087015161016085015260408701516001600160a01b03166101808501529150610f859050565b6101a08201939093526101c001529b9a5050505050505050505050565b6001600160a01b0391909116815260200190565b93845260208401929092526040830152606082015260800190565b6004811061092f5761092f610e6e565b60208101610fee83610fd1565b91905290565b80356001600160a01b038116811461100b57600080fd5b919050565b6000806040838503121561102357600080fd5b61102c83610ff4565b946020939093013593505050565b60006020828403121561104c57600080fd5b61105582610ff4565b9392505050565b600181811c9082168061107057607f821691505b60208210810361109057634e487b7160e01b600052602260045260246000fd5b50919050565b6001600160a01b038681168252851660208201526040810184905260a081016110be84610fd1565b6060820193909352608001529392505050565b6000602082840312156110e357600080fd5b5051919050565b6001600160a01b0392831681529116602082015260400190565b634e487b7160e01b600052601160045260246000fd5b8181038181111561091857610918611104565b60008261114a57634e487b7160e01b600052601260045260246000fd5b500490565b634e487b7160e01b600052603260045260246000fd5b808202811582820484141761091857610918611104565b8082018082111561091857610918611104565b6001600160a01b03959095168552602085019390935260408401919091526060830152608082015260a00190565b6000600182016111cf576111cf611104565b5060010190565b634e487b7160e01b600052600160045260246000fd5b600082516111fe818460208701610e84565b919091019291505056fe0227f642ddcf2042ceaeafadb9d540f432072c00cd4862881667168dcc14710fa164736f6c6343000813000a","linkReferences":{"pkg/contracts/src/CVStrategy/ConvictionsUtils.sol":{"ConvictionsUtils":[{"start":3288,"length":20}]},"pkg/contracts/src/CVStrategy/PowerManagementUtils.sol":{"PowerManagementUtils":[{"start":1506,"length":20}]}}},"methodIdentifiers":{"DEFAULT_FUNDING_UNITS()":"b4b9a107","DISPUTE_COOLDOWN_SEC()":"f5be3f7c","RULING_OPTIONS()":"626c47e8","TOTAL_GDA_UNITS()":"7a3c8b38","arbitrableConfigs(uint256)":"41bb7605","cloneNonce()":"33960459","collateralVault()":"0bece79c","currentArbitrableConfigVersion()":"125fd1d9","cvParams()":"2506b870","cvVault()":"d4ec7879","deactivatePoints()":"1ddf1e23","deactivatePoints(address)":"6453d9c4","decreasePower(address,uint256)":"2ed04b2b","disputeCount()":"a28889e1","disputeIdToProposalId(uint256)":"255ffb38","pointConfig()":"a47ff7e5","pointSystem()":"2dbd6fdd","proposalCounter()":"0c0512e9","proposalType()":"351d9f96","proposals(uint256)":"013cf08b","registryCommunity()":"6003e414","streamingEnabled()":"8a05105a","superfluidToken()":"05caa7f3","sybilScorer()":"b6c61f31","totalPointsActivated()":"aba9ffee","totalStaked()":"817b1cd2","totalVoterStakePct(address)":"5db64b99","voterStakedProposals(address,uint256)":"868c57b8","ydsStrategy()":"f8467821"},"storageLayout":{"storage":[{"astId":87054,"contract":"pkg/contracts/src/CVStrategy/facets/CVPowerFacet.sol:CVPowerFacet","label":"_initialized","offset":0,"slot":"0","type":"t_uint8"},{"astId":87056,"contract":"pkg/contracts/src/CVStrategy/facets/CVPowerFacet.sol:CVPowerFacet","label":"_initializing","offset":1,"slot":"0","type":"t_bool"},{"astId":87060,"contract":"pkg/contracts/src/CVStrategy/facets/CVPowerFacet.sol:CVPowerFacet","label":"__gap_init","offset":0,"slot":"1","type":"t_array(t_uint256)50_storage"},{"astId":87063,"contract":"pkg/contracts/src/CVStrategy/facets/CVPowerFacet.sol:CVPowerFacet","label":"_owner","offset":0,"slot":"51","type":"t_address"},{"astId":87067,"contract":"pkg/contracts/src/CVStrategy/facets/CVPowerFacet.sol:CVPowerFacet","label":"__gap_ownable","offset":0,"slot":"52","type":"t_array(t_uint256)49_storage"},{"astId":87071,"contract":"pkg/contracts/src/CVStrategy/facets/CVPowerFacet.sol:CVPowerFacet","label":"allo","offset":0,"slot":"101","type":"t_contract(IAllo)2629"},{"astId":87073,"contract":"pkg/contracts/src/CVStrategy/facets/CVPowerFacet.sol:CVPowerFacet","label":"strategyId","offset":0,"slot":"102","type":"t_bytes32"},{"astId":87075,"contract":"pkg/contracts/src/CVStrategy/facets/CVPowerFacet.sol:CVPowerFacet","label":"poolActive","offset":0,"slot":"103","type":"t_bool"},{"astId":87077,"contract":"pkg/contracts/src/CVStrategy/facets/CVPowerFacet.sol:CVPowerFacet","label":"poolId","offset":0,"slot":"104","type":"t_uint256"},{"astId":87079,"contract":"pkg/contracts/src/CVStrategy/facets/CVPowerFacet.sol:CVPowerFacet","label":"poolAmount","offset":0,"slot":"105","type":"t_uint256"},{"astId":87082,"contract":"pkg/contracts/src/CVStrategy/facets/CVPowerFacet.sol:CVPowerFacet","label":"collateralVaultTemplate","offset":0,"slot":"106","type":"t_address"},{"astId":87085,"contract":"pkg/contracts/src/CVStrategy/facets/CVPowerFacet.sol:CVPowerFacet","label":"cvVaultTemplate","offset":0,"slot":"107","type":"t_address"},{"astId":87088,"contract":"pkg/contracts/src/CVStrategy/facets/CVPowerFacet.sol:CVPowerFacet","label":"surpressStateMutabilityWarning","offset":0,"slot":"108","type":"t_uint256"},{"astId":87091,"contract":"pkg/contracts/src/CVStrategy/facets/CVPowerFacet.sol:CVPowerFacet","label":"cloneNonce","offset":0,"slot":"109","type":"t_uint256"},{"astId":87094,"contract":"pkg/contracts/src/CVStrategy/facets/CVPowerFacet.sol:CVPowerFacet","label":"disputeCount","offset":0,"slot":"110","type":"t_uint64"},{"astId":87097,"contract":"pkg/contracts/src/CVStrategy/facets/CVPowerFacet.sol:CVPowerFacet","label":"proposalCounter","offset":0,"slot":"111","type":"t_uint256"},{"astId":87100,"contract":"pkg/contracts/src/CVStrategy/facets/CVPowerFacet.sol:CVPowerFacet","label":"currentArbitrableConfigVersion","offset":0,"slot":"112","type":"t_uint256"},{"astId":87103,"contract":"pkg/contracts/src/CVStrategy/facets/CVPowerFacet.sol:CVPowerFacet","label":"totalStaked","offset":0,"slot":"113","type":"t_uint256"},{"astId":87106,"contract":"pkg/contracts/src/CVStrategy/facets/CVPowerFacet.sol:CVPowerFacet","label":"totalPointsActivated","offset":0,"slot":"114","type":"t_uint256"},{"astId":87110,"contract":"pkg/contracts/src/CVStrategy/facets/CVPowerFacet.sol:CVPowerFacet","label":"cvParams","offset":0,"slot":"115","type":"t_struct(CVParams)88147_storage"},{"astId":87114,"contract":"pkg/contracts/src/CVStrategy/facets/CVPowerFacet.sol:CVPowerFacet","label":"proposalType","offset":0,"slot":"119","type":"t_enum(ProposalType)88050"},{"astId":87118,"contract":"pkg/contracts/src/CVStrategy/facets/CVPowerFacet.sol:CVPowerFacet","label":"pointSystem","offset":1,"slot":"119","type":"t_enum(PointSystem)88055"},{"astId":87122,"contract":"pkg/contracts/src/CVStrategy/facets/CVPowerFacet.sol:CVPowerFacet","label":"pointConfig","offset":0,"slot":"120","type":"t_struct(PointSystemConfig)88124_storage"},{"astId":87126,"contract":"pkg/contracts/src/CVStrategy/facets/CVPowerFacet.sol:CVPowerFacet","label":"registryCommunity","offset":0,"slot":"121","type":"t_contract(IVotingPowerRegistry)104333"},{"astId":87130,"contract":"pkg/contracts/src/CVStrategy/facets/CVPowerFacet.sol:CVPowerFacet","label":"collateralVault","offset":0,"slot":"122","type":"t_contract(ICollateralVault)103612"},{"astId":87134,"contract":"pkg/contracts/src/CVStrategy/facets/CVPowerFacet.sol:CVPowerFacet","label":"cvVault","offset":0,"slot":"123","type":"t_contract(ICVVault)103579"},{"astId":87138,"contract":"pkg/contracts/src/CVStrategy/facets/CVPowerFacet.sol:CVPowerFacet","label":"sybilScorer","offset":0,"slot":"124","type":"t_contract(ISybilScorer)95778"},{"astId":87144,"contract":"pkg/contracts/src/CVStrategy/facets/CVPowerFacet.sol:CVPowerFacet","label":"proposals","offset":0,"slot":"125","type":"t_mapping(t_uint256,t_struct(Proposal)88116_storage)"},{"astId":87149,"contract":"pkg/contracts/src/CVStrategy/facets/CVPowerFacet.sol:CVPowerFacet","label":"totalVoterStakePct","offset":0,"slot":"126","type":"t_mapping(t_address,t_uint256)"},{"astId":87155,"contract":"pkg/contracts/src/CVStrategy/facets/CVPowerFacet.sol:CVPowerFacet","label":"voterStakedProposals","offset":0,"slot":"127","type":"t_mapping(t_address,t_array(t_uint256)dyn_storage)"},{"astId":87160,"contract":"pkg/contracts/src/CVStrategy/facets/CVPowerFacet.sol:CVPowerFacet","label":"disputeIdToProposalId","offset":0,"slot":"128","type":"t_mapping(t_uint256,t_uint256)"},{"astId":87166,"contract":"pkg/contracts/src/CVStrategy/facets/CVPowerFacet.sol:CVPowerFacet","label":"arbitrableConfigs","offset":0,"slot":"129","type":"t_mapping(t_uint256,t_struct(ArbitrableConfig)88138_storage)"},{"astId":87170,"contract":"pkg/contracts/src/CVStrategy/facets/CVPowerFacet.sol:CVPowerFacet","label":"superfluidToken","offset":0,"slot":"130","type":"t_contract(ISuperToken)74423"},{"astId":87174,"contract":"pkg/contracts/src/CVStrategy/facets/CVPowerFacet.sol:CVPowerFacet","label":"ydsStrategy","offset":0,"slot":"131","type":"t_contract(IYDSStrategy)104459"},{"astId":87191,"contract":"pkg/contracts/src/CVStrategy/facets/CVPowerFacet.sol:CVPowerFacet","label":"proposalStreams","offset":0,"slot":"132","type":"t_mapping(t_uint256,t_struct(StreamState)87185_storage)"},{"astId":87194,"contract":"pkg/contracts/src/CVStrategy/facets/CVPowerFacet.sol:CVPowerFacet","label":"superfluidGDA","offset":0,"slot":"133","type":"t_address"},{"astId":87197,"contract":"pkg/contracts/src/CVStrategy/facets/CVPowerFacet.sol:CVPowerFacet","label":"streamingEnabled","offset":20,"slot":"133","type":"t_bool"},{"astId":87202,"contract":"pkg/contracts/src/CVStrategy/facets/CVPowerFacet.sol:CVPowerFacet","label":"__gap","offset":0,"slot":"134","type":"t_array(t_uint256)45_storage"}],"types":{"t_address":{"encoding":"inplace","label":"address","numberOfBytes":"20"},"t_array(t_uint256)45_storage":{"encoding":"inplace","label":"uint256[45]","numberOfBytes":"1440","base":"t_uint256"},"t_array(t_uint256)49_storage":{"encoding":"inplace","label":"uint256[49]","numberOfBytes":"1568","base":"t_uint256"},"t_array(t_uint256)50_storage":{"encoding":"inplace","label":"uint256[50]","numberOfBytes":"1600","base":"t_uint256"},"t_array(t_uint256)dyn_storage":{"encoding":"dynamic_array","label":"uint256[]","numberOfBytes":"32","base":"t_uint256"},"t_bool":{"encoding":"inplace","label":"bool","numberOfBytes":"1"},"t_bytes32":{"encoding":"inplace","label":"bytes32","numberOfBytes":"32"},"t_contract(IAllo)2629":{"encoding":"inplace","label":"contract IAllo","numberOfBytes":"20"},"t_contract(IArbitrator)103495":{"encoding":"inplace","label":"contract IArbitrator","numberOfBytes":"20"},"t_contract(ICVVault)103579":{"encoding":"inplace","label":"contract ICVVault","numberOfBytes":"20"},"t_contract(ICollateralVault)103612":{"encoding":"inplace","label":"contract ICollateralVault","numberOfBytes":"20"},"t_contract(ISuperToken)74423":{"encoding":"inplace","label":"contract ISuperToken","numberOfBytes":"20"},"t_contract(ISybilScorer)95778":{"encoding":"inplace","label":"contract ISybilScorer","numberOfBytes":"20"},"t_contract(IVotingPowerRegistry)104333":{"encoding":"inplace","label":"contract IVotingPowerRegistry","numberOfBytes":"20"},"t_contract(IYDSStrategy)104459":{"encoding":"inplace","label":"contract IYDSStrategy","numberOfBytes":"20"},"t_enum(PointSystem)88055":{"encoding":"inplace","label":"enum PointSystem","numberOfBytes":"1"},"t_enum(ProposalStatus)88075":{"encoding":"inplace","label":"enum ProposalStatus","numberOfBytes":"1"},"t_enum(ProposalType)88050":{"encoding":"inplace","label":"enum ProposalType","numberOfBytes":"1"},"t_mapping(t_address,t_array(t_uint256)dyn_storage)":{"encoding":"mapping","key":"t_address","label":"mapping(address => uint256[])","numberOfBytes":"32","value":"t_array(t_uint256)dyn_storage"},"t_mapping(t_address,t_uint256)":{"encoding":"mapping","key":"t_address","label":"mapping(address => uint256)","numberOfBytes":"32","value":"t_uint256"},"t_mapping(t_uint256,t_struct(ArbitrableConfig)88138_storage)":{"encoding":"mapping","key":"t_uint256","label":"mapping(uint256 => struct ArbitrableConfig)","numberOfBytes":"32","value":"t_struct(ArbitrableConfig)88138_storage"},"t_mapping(t_uint256,t_struct(Proposal)88116_storage)":{"encoding":"mapping","key":"t_uint256","label":"mapping(uint256 => struct Proposal)","numberOfBytes":"32","value":"t_struct(Proposal)88116_storage"},"t_mapping(t_uint256,t_struct(StreamState)87185_storage)":{"encoding":"mapping","key":"t_uint256","label":"mapping(uint256 => struct CVStrategyBaseFacet.StreamState)","numberOfBytes":"32","value":"t_struct(StreamState)87185_storage"},"t_mapping(t_uint256,t_uint256)":{"encoding":"mapping","key":"t_uint256","label":"mapping(uint256 => uint256)","numberOfBytes":"32","value":"t_uint256"},"t_string_storage":{"encoding":"bytes","label":"string","numberOfBytes":"32"},"t_struct(ArbitrableConfig)88138_storage":{"encoding":"inplace","label":"struct ArbitrableConfig","numberOfBytes":"192","members":[{"astId":88127,"contract":"pkg/contracts/src/CVStrategy/facets/CVPowerFacet.sol:CVPowerFacet","label":"arbitrator","offset":0,"slot":"0","type":"t_contract(IArbitrator)103495"},{"astId":88129,"contract":"pkg/contracts/src/CVStrategy/facets/CVPowerFacet.sol:CVPowerFacet","label":"tribunalSafe","offset":0,"slot":"1","type":"t_address"},{"astId":88131,"contract":"pkg/contracts/src/CVStrategy/facets/CVPowerFacet.sol:CVPowerFacet","label":"submitterCollateralAmount","offset":0,"slot":"2","type":"t_uint256"},{"astId":88133,"contract":"pkg/contracts/src/CVStrategy/facets/CVPowerFacet.sol:CVPowerFacet","label":"challengerCollateralAmount","offset":0,"slot":"3","type":"t_uint256"},{"astId":88135,"contract":"pkg/contracts/src/CVStrategy/facets/CVPowerFacet.sol:CVPowerFacet","label":"defaultRuling","offset":0,"slot":"4","type":"t_uint256"},{"astId":88137,"contract":"pkg/contracts/src/CVStrategy/facets/CVPowerFacet.sol:CVPowerFacet","label":"defaultRulingTimeout","offset":0,"slot":"5","type":"t_uint256"}]},"t_struct(CVParams)88147_storage":{"encoding":"inplace","label":"struct CVParams","numberOfBytes":"128","members":[{"astId":88140,"contract":"pkg/contracts/src/CVStrategy/facets/CVPowerFacet.sol:CVPowerFacet","label":"maxRatio","offset":0,"slot":"0","type":"t_uint256"},{"astId":88142,"contract":"pkg/contracts/src/CVStrategy/facets/CVPowerFacet.sol:CVPowerFacet","label":"weight","offset":0,"slot":"1","type":"t_uint256"},{"astId":88144,"contract":"pkg/contracts/src/CVStrategy/facets/CVPowerFacet.sol:CVPowerFacet","label":"decay","offset":0,"slot":"2","type":"t_uint256"},{"astId":88146,"contract":"pkg/contracts/src/CVStrategy/facets/CVPowerFacet.sol:CVPowerFacet","label":"minThresholdPoints","offset":0,"slot":"3","type":"t_uint256"}]},"t_struct(Metadata)3080_storage":{"encoding":"inplace","label":"struct Metadata","numberOfBytes":"64","members":[{"astId":3076,"contract":"pkg/contracts/src/CVStrategy/facets/CVPowerFacet.sol:CVPowerFacet","label":"protocol","offset":0,"slot":"0","type":"t_uint256"},{"astId":3079,"contract":"pkg/contracts/src/CVStrategy/facets/CVPowerFacet.sol:CVPowerFacet","label":"pointer","offset":0,"slot":"1","type":"t_string_storage"}]},"t_struct(PointSystemConfig)88124_storage":{"encoding":"inplace","label":"struct PointSystemConfig","numberOfBytes":"32","members":[{"astId":88123,"contract":"pkg/contracts/src/CVStrategy/facets/CVPowerFacet.sol:CVPowerFacet","label":"maxAmount","offset":0,"slot":"0","type":"t_uint256"}]},"t_struct(Proposal)88116_storage":{"encoding":"inplace","label":"struct Proposal","numberOfBytes":"544","members":[{"astId":88084,"contract":"pkg/contracts/src/CVStrategy/facets/CVPowerFacet.sol:CVPowerFacet","label":"proposalId","offset":0,"slot":"0","type":"t_uint256"},{"astId":88086,"contract":"pkg/contracts/src/CVStrategy/facets/CVPowerFacet.sol:CVPowerFacet","label":"requestedAmount","offset":0,"slot":"1","type":"t_uint256"},{"astId":88088,"contract":"pkg/contracts/src/CVStrategy/facets/CVPowerFacet.sol:CVPowerFacet","label":"stakedAmount","offset":0,"slot":"2","type":"t_uint256"},{"astId":88090,"contract":"pkg/contracts/src/CVStrategy/facets/CVPowerFacet.sol:CVPowerFacet","label":"convictionLast","offset":0,"slot":"3","type":"t_uint256"},{"astId":88092,"contract":"pkg/contracts/src/CVStrategy/facets/CVPowerFacet.sol:CVPowerFacet","label":"beneficiary","offset":0,"slot":"4","type":"t_address"},{"astId":88094,"contract":"pkg/contracts/src/CVStrategy/facets/CVPowerFacet.sol:CVPowerFacet","label":"submitter","offset":0,"slot":"5","type":"t_address"},{"astId":88096,"contract":"pkg/contracts/src/CVStrategy/facets/CVPowerFacet.sol:CVPowerFacet","label":"requestedToken","offset":0,"slot":"6","type":"t_address"},{"astId":88098,"contract":"pkg/contracts/src/CVStrategy/facets/CVPowerFacet.sol:CVPowerFacet","label":"blockLast","offset":0,"slot":"7","type":"t_uint256"},{"astId":88101,"contract":"pkg/contracts/src/CVStrategy/facets/CVPowerFacet.sol:CVPowerFacet","label":"proposalStatus","offset":0,"slot":"8","type":"t_enum(ProposalStatus)88075"},{"astId":88105,"contract":"pkg/contracts/src/CVStrategy/facets/CVPowerFacet.sol:CVPowerFacet","label":"voterStakedPoints","offset":0,"slot":"9","type":"t_mapping(t_address,t_uint256)"},{"astId":88108,"contract":"pkg/contracts/src/CVStrategy/facets/CVPowerFacet.sol:CVPowerFacet","label":"metadata","offset":0,"slot":"10","type":"t_struct(Metadata)3080_storage"},{"astId":88111,"contract":"pkg/contracts/src/CVStrategy/facets/CVPowerFacet.sol:CVPowerFacet","label":"disputeInfo","offset":0,"slot":"12","type":"t_struct(ProposalDisputeInfo)88082_storage"},{"astId":88113,"contract":"pkg/contracts/src/CVStrategy/facets/CVPowerFacet.sol:CVPowerFacet","label":"lastDisputeCompletion","offset":0,"slot":"15","type":"t_uint256"},{"astId":88115,"contract":"pkg/contracts/src/CVStrategy/facets/CVPowerFacet.sol:CVPowerFacet","label":"arbitrableConfigVersion","offset":0,"slot":"16","type":"t_uint256"}]},"t_struct(ProposalDisputeInfo)88082_storage":{"encoding":"inplace","label":"struct ProposalDisputeInfo","numberOfBytes":"96","members":[{"astId":88077,"contract":"pkg/contracts/src/CVStrategy/facets/CVPowerFacet.sol:CVPowerFacet","label":"disputeId","offset":0,"slot":"0","type":"t_uint256"},{"astId":88079,"contract":"pkg/contracts/src/CVStrategy/facets/CVPowerFacet.sol:CVPowerFacet","label":"disputeTimestamp","offset":0,"slot":"1","type":"t_uint256"},{"astId":88081,"contract":"pkg/contracts/src/CVStrategy/facets/CVPowerFacet.sol:CVPowerFacet","label":"challenger","offset":0,"slot":"2","type":"t_address"}]},"t_struct(StreamState)87185_storage":{"encoding":"inplace","label":"struct CVStrategyBaseFacet.StreamState","numberOfBytes":"128","members":[{"astId":87176,"contract":"pkg/contracts/src/CVStrategy/facets/CVPowerFacet.sol:CVPowerFacet","label":"isActive","offset":0,"slot":"0","type":"t_bool"},{"astId":87178,"contract":"pkg/contracts/src/CVStrategy/facets/CVPowerFacet.sol:CVPowerFacet","label":"flowUnits","offset":1,"slot":"0","type":"t_uint128"},{"astId":87180,"contract":"pkg/contracts/src/CVStrategy/facets/CVPowerFacet.sol:CVPowerFacet","label":"lastUpdateBlock","offset":0,"slot":"1","type":"t_uint256"},{"astId":87182,"contract":"pkg/contracts/src/CVStrategy/facets/CVPowerFacet.sol:CVPowerFacet","label":"lastEvalBlock","offset":0,"slot":"2","type":"t_uint256"},{"astId":87184,"contract":"pkg/contracts/src/CVStrategy/facets/CVPowerFacet.sol:CVPowerFacet","label":"beneficiary","offset":0,"slot":"3","type":"t_address"}]},"t_uint128":{"encoding":"inplace","label":"uint128","numberOfBytes":"16"},"t_uint256":{"encoding":"inplace","label":"uint256","numberOfBytes":"32"},"t_uint64":{"encoding":"inplace","label":"uint64","numberOfBytes":"8"},"t_uint8":{"encoding":"inplace","label":"uint8","numberOfBytes":"1"}}},"id":157}