{"abi":[{"type":"function","name":"DISPUTE_COOLDOWN_SEC","inputs":[],"outputs":[{"name":"","type":"uint256","internalType":"uint256"}],"stateMutability":"view"},{"type":"function","name":"RULING_OPTIONS","inputs":[],"outputs":[{"name":"","type":"uint256","internalType":"uint256"}],"stateMutability":"view"},{"type":"function","name":"activatePoints","inputs":[],"outputs":[],"stateMutability":"nonpayable"},{"type":"function","name":"arbitrableConfigs","inputs":[{"name":"","type":"uint256","internalType":"uint256"}],"outputs":[{"name":"arbitrator","type":"address","internalType":"contract IArbitrator"},{"name":"tribunalSafe","type":"address","internalType":"address"},{"name":"submitterCollateralAmount","type":"uint256","internalType":"uint256"},{"name":"challengerCollateralAmount","type":"uint256","internalType":"uint256"},{"name":"defaultRuling","type":"uint256","internalType":"uint256"},{"name":"defaultRulingTimeout","type":"uint256","internalType":"uint256"}],"stateMutability":"view"},{"type":"function","name":"cloneNonce","inputs":[],"outputs":[{"name":"","type":"uint256","internalType":"uint256"}],"stateMutability":"view"},{"type":"function","name":"collateralVault","inputs":[],"outputs":[{"name":"","type":"address","internalType":"contract ICollateralVault"}],"stateMutability":"view"},{"type":"function","name":"currentArbitrableConfigVersion","inputs":[],"outputs":[{"name":"","type":"uint256","internalType":"uint256"}],"stateMutability":"view"},{"type":"function","name":"cvParams","inputs":[],"outputs":[{"name":"maxRatio","type":"uint256","internalType":"uint256"},{"name":"weight","type":"uint256","internalType":"uint256"},{"name":"decay","type":"uint256","internalType":"uint256"},{"name":"minThresholdPoints","type":"uint256","internalType":"uint256"}],"stateMutability":"view"},{"type":"function","name":"deactivatePoints","inputs":[],"outputs":[],"stateMutability":"nonpayable"},{"type":"function","name":"deactivatePoints","inputs":[{"name":"_member","type":"address","internalType":"address"}],"outputs":[],"stateMutability":"nonpayable"},{"type":"function","name":"decreasePower","inputs":[{"name":"_member","type":"address","internalType":"address"},{"name":"_amountToUnstake","type":"uint256","internalType":"uint256"}],"outputs":[{"name":"","type":"uint256","internalType":"uint256"}],"stateMutability":"nonpayable"},{"type":"function","name":"disputeCount","inputs":[],"outputs":[{"name":"","type":"uint64","internalType":"uint64"}],"stateMutability":"view"},{"type":"function","name":"disputeIdToProposalId","inputs":[{"name":"","type":"uint256","internalType":"uint256"}],"outputs":[{"name":"","type":"uint256","internalType":"uint256"}],"stateMutability":"view"},{"type":"function","name":"increasePower","inputs":[{"name":"_member","type":"address","internalType":"address"},{"name":"_amountToStake","type":"uint256","internalType":"uint256"}],"outputs":[{"name":"","type":"uint256","internalType":"uint256"}],"stateMutability":"nonpayable"},{"type":"function","name":"pointConfig","inputs":[],"outputs":[{"name":"maxAmount","type":"uint256","internalType":"uint256"}],"stateMutability":"view"},{"type":"function","name":"pointSystem","inputs":[],"outputs":[{"name":"","type":"uint8","internalType":"enum PointSystem"}],"stateMutability":"view"},{"type":"function","name":"proposalCounter","inputs":[],"outputs":[{"name":"","type":"uint256","internalType":"uint256"}],"stateMutability":"view"},{"type":"function","name":"proposalType","inputs":[],"outputs":[{"name":"","type":"uint8","internalType":"enum ProposalType"}],"stateMutability":"view"},{"type":"function","name":"proposals","inputs":[{"name":"","type":"uint256","internalType":"uint256"}],"outputs":[{"name":"proposalId","type":"uint256","internalType":"uint256"},{"name":"requestedAmount","type":"uint256","internalType":"uint256"},{"name":"stakedAmount","type":"uint256","internalType":"uint256"},{"name":"convictionLast","type":"uint256","internalType":"uint256"},{"name":"beneficiary","type":"address","internalType":"address"},{"name":"submitter","type":"address","internalType":"address"},{"name":"requestedToken","type":"address","internalType":"address"},{"name":"blockLast","type":"uint256","internalType":"uint256"},{"name":"proposalStatus","type":"uint8","internalType":"enum ProposalStatus"},{"name":"metadata","type":"tuple","internalType":"struct Metadata","components":[{"name":"protocol","type":"uint256","internalType":"uint256"},{"name":"pointer","type":"string","internalType":"string"}]},{"name":"disputeInfo","type":"tuple","internalType":"struct ProposalDisputeInfo","components":[{"name":"disputeId","type":"uint256","internalType":"uint256"},{"name":"disputeTimestamp","type":"uint256","internalType":"uint256"},{"name":"challenger","type":"address","internalType":"address"}]},{"name":"lastDisputeCompletion","type":"uint256","internalType":"uint256"},{"name":"arbitrableConfigVersion","type":"uint256","internalType":"uint256"},{"name":"creationTimestamp","type":"uint256","internalType":"uint256"}],"stateMutability":"view"},{"type":"function","name":"registryCommunity","inputs":[],"outputs":[{"name":"","type":"address","internalType":"contract RegistryCommunity"}],"stateMutability":"view"},{"type":"function","name":"superfluidToken","inputs":[],"outputs":[{"name":"","type":"address","internalType":"contract ISuperToken"}],"stateMutability":"view"},{"type":"function","name":"sybilScorer","inputs":[],"outputs":[{"name":"","type":"address","internalType":"contract ISybilScorer"}],"stateMutability":"view"},{"type":"function","name":"totalPointsActivated","inputs":[],"outputs":[{"name":"","type":"uint256","internalType":"uint256"}],"stateMutability":"view"},{"type":"function","name":"totalStaked","inputs":[],"outputs":[{"name":"","type":"uint256","internalType":"uint256"}],"stateMutability":"view"},{"type":"function","name":"totalVoterStakePct","inputs":[{"name":"","type":"address","internalType":"address"}],"outputs":[{"name":"","type":"uint256","internalType":"uint256"}],"stateMutability":"view"},{"type":"function","name":"voterStakedProposals","inputs":[{"name":"","type":"address","internalType":"address"},{"name":"","type":"uint256","internalType":"uint256"}],"outputs":[{"name":"","type":"uint256","internalType":"uint256"}],"stateMutability":"view"},{"type":"event","name":"PointsDeactivated","inputs":[{"name":"member","type":"address","indexed":false,"internalType":"address"}],"anonymous":false},{"type":"event","name":"PowerDecreased","inputs":[{"name":"member","type":"address","indexed":false,"internalType":"address"},{"name":"tokensUnStaked","type":"uint256","indexed":false,"internalType":"uint256"},{"name":"pointsToDecrease","type":"uint256","indexed":false,"internalType":"uint256"}],"anonymous":false},{"type":"event","name":"PowerIncreased","inputs":[{"name":"member","type":"address","indexed":false,"internalType":"address"},{"name":"tokensStaked","type":"uint256","indexed":false,"internalType":"uint256"},{"name":"pointsToIncrease","type":"uint256","indexed":false,"internalType":"uint256"}],"anonymous":false},{"type":"event","name":"SupportAdded","inputs":[{"name":"from","type":"address","indexed":false,"internalType":"address"},{"name":"proposalId","type":"uint256","indexed":false,"internalType":"uint256"},{"name":"amount","type":"uint256","indexed":false,"internalType":"uint256"},{"name":"totalStakedAmount","type":"uint256","indexed":false,"internalType":"uint256"},{"name":"convictionLast","type":"uint256","indexed":false,"internalType":"uint256"}],"anonymous":false},{"type":"error","name":"OnlyActiveProposal","inputs":[{"name":"proposalId","type":"uint256","internalType":"uint256"}]},{"type":"error","name":"OnlyAllo","inputs":[{"name":"sender","type":"address","internalType":"address"},{"name":"allo","type":"address","internalType":"address"}]},{"type":"error","name":"OnlyCouncilSafe","inputs":[{"name":"sender","type":"address","internalType":"address"},{"name":"councilSafe","type":"address","internalType":"address"},{"name":"owner","type":"address","internalType":"address"}]},{"type":"error","name":"OnlyCouncilSafeOrMember","inputs":[{"name":"sender","type":"address","internalType":"address"},{"name":"councilSafe","type":"address","internalType":"address"}]},{"type":"error","name":"OnlyInitialized","inputs":[{"name":"poolId","type":"uint256","internalType":"uint256"}]},{"type":"error","name":"OnlyMember","inputs":[{"name":"wallet","type":"address","internalType":"address"},{"name":"community","type":"address","internalType":"address"}]},{"type":"error","name":"OnlyRegistryCommunity","inputs":[{"name":"sender","type":"address","internalType":"address"},{"name":"registry","type":"address","internalType":"address"}]},{"type":"error","name":"OnlySubmitter","inputs":[{"name":"proposalId","type":"uint256","internalType":"uint256"},{"name":"submitter","type":"address","internalType":"address"},{"name":"sender","type":"address","internalType":"address"}]},{"type":"error","name":"ProposalDoesNotExist","inputs":[{"name":"proposalID","type":"uint256","internalType":"uint256"}]},{"type":"error","name":"UserCannotExecuteAction","inputs":[{"name":"sender","type":"address","internalType":"address"}]}],"bytecode":{"object":"0x608080604052346100165761143a908161001c8239f35b600080fdfe6080604052600436101561001257600080fd5b6000803560e01c8063013cf08b14610b1557806305caa7f314610aec5780630bece79c14610ac35780630c0512e914610aa5578063125fd1d914610a875780631ddf1e2314610a6d5780632506b87014610a3b578063255ffb3814610a115780632dbd6fdd146109e65780632ed04b2b146106a55780633396045914610687578063351d9f961461064757806341bb7605146105da5780635db64b99146105a15780636003e41414610578578063626c47e81461055c5780636453d9c41461052f578063782aadff1461037b578063814516ad1461025c578063817b1cd21461023e578063868c57b8146101e8578063a28889e1146101bf578063a47ff7e5146101a1578063aba9ffee14610183578063b6c61f311461015a5763f5be3f7c1461013b57600080fd5b346101575780600319360112610157576020604051611c208152f35b80fd5b5034610157578060031936011261015757607a546040516001600160a01b039091168152602090f35b50346101575780600319360112610157576020607154604051908152f35b50346101575780600319360112610157576020607754604051908152f35b5034610157578060031936011261015757606d546040516001600160401b039091168152602090f35b503461015757604036600319011261015757610202610e39565b6001600160a01b03168152607d60205260408120805460243592908310156101575760206102308484610e4f565b90546040519160031b1c8152f35b50346101575780600319360112610157576020607054604051908152f35b503461015757806003193601126101575761027633610ed2565b15610363576078546001600160a01b0391908216803b1561035f57816040518092630d4a8b4960e01b82528183816102b2303360048401610e7d565b03925af1801561034557610350575b50906078541660206040518092637817ee4f60e01b82528185816102e9303360048401610e7d565b03925af1801561034557829061030d575b6103079150607154610e97565b60715580f35b506020813d821161033d575b8161032660209383610dd7565b810103126103385761030790516102fa565b600080fd5b3d9150610319565b6040513d84823e3d90fd5b61035990610dae565b386102c1565b5080fd5b6040516307772b5360e51b8152336004820152602490fd5b503461015757604036600319011261015757610395610e39565b6024356103a06110a8565b6103a982610ed2565b1561050e576103ed908260018060a01b03806078541660ff60765460081c166077549060405196879283926348e346c360e01b84528860209b8c9760048701611051565b038173__$c032285ca413f3d1dae375e8699dd757fc$__5af49384156104d05786946104db575b506078541684604051809263011de97360e61b82528180610439308860048401610e7d565b03915afa9081156104d0577f0b9150e1e54346ed3fa36b977cd5d65dca5a649c737c3174a26bddaadd47667a949596916104a3575b5061048f575b610484846040519384938461108a565b0390a1604051908152f35b61049b84607154610e97565b607155610474565b6104c39150863d88116104c9575b6104bb8183610dd7565b810190610eba565b3861046e565b503d6104b1565b6040513d88823e3d90fd5b9093508481813d8311610507575b6104f38183610dd7565b8101031261050357519238610414565b8580fd5b503d6104e9565b6040516307772b5360e51b81526001600160a01b0383166004820152602490fd5b50346101575760203660031901126101575761055961054c610e39565b6105546110a8565b6111f2565b80f35b5034610157578060031936011261015757602060405160038152f35b50346101575780600319360112610157576078546040516001600160a01b039091168152602090f35b5034610157576020366003190112610157576020906040906001600160a01b036105c9610e39565b168152607c83522054604051908152f35b503461015757602036600319011261015757604060c0916004358152607f6020522060018060a01b039081815416916001820154169060028101546003820154906005600484015493015493604051958652602086015260408501526060840152608083015260a0820152f35b503461015757806003193601126101575760ff6076541660405190600381101561067357602092508152f35b634e487b7160e01b83526021600452602483fd5b50346101575780600319360112610157576020606c54604051908152f35b5034610157576040366003190112610157576106bf610e39565b6106c76110a8565b60018060a01b0390816078541691602060ff60765460081c16607754946107076040519687938493630da4ebb760e21b8552886024359160048701611051565b038173__$c032285ca413f3d1dae375e8699dd757fc$__5af49283156109db5784936109a3575b508082168452607c6020526040842054816078541660206040518092637817ee4f60e01b8252818981610765308b60048401610e7d565b03925af19081156104d0578691610971575b5081808211156109695761078a916110e1565b8481106107c8575b6020856000805160206113ee83398151915281876107b2826071546110e1565b607155610484604051928392602435908461108a565b6107d290856110e1565b811561095557855b8385168752607d60205260408720805482101561093657816107fb91610e4f565b9054808260031b1c8952607b60205260408920908688168a526009820160205260408a205490868660801b048202828104888860801b041483151715610922576001607f1b8101811161092257938360a0938b9360038f976108f2878f6108ea604061091d9f9e9d6108d760008051602061140e8339815191529f610889906001607f1b0160801c8c6110e1565b809b600960028b019a888c549a8d6108ab8d6108a589896110e1565b906110e1565b90551686520160205281858520556108c382826110e1565b6108d060709182546110e1565b90556110e1565b938d168152607c602052209182546110e1565b9055866110fd565b54930154938c6040519616865260031b1c6020850152604084015260608301526080820152a16110ee565b6107da565b634e487b7160e01b8c52601160045260248cfd5b505050505060209250816000805160206113ee83398151915238610792565b634e487b7160e01b86526012600452602486fd5b50508461078a565b90506020813d60201161099b575b8161098c60209383610dd7565b81010312610503575138610777565b3d915061097f565b9092506020813d6020116109d3575b816109bf60209383610dd7565b810103126109cf5751913861072e565b8380fd5b3d91506109b2565b6040513d86823e3d90fd5b5034610157578060031936011261015757602060ff60765460081c16610a0f6040518092610e16565bf35b50346101575760203660031901126101575760406020916004358152607e83522054604051908152f35b503461015757806003193601126101575760725460735490610a696074546075549060405194859485610dfa565b0390f35b5034610157578060031936011261015757610559336111f2565b50346101575780600319360112610157576020606f54604051908152f35b50346101575780600319360112610157576020606e54604051908152f35b50346101575780600319360112610157576079546040516001600160a01b039091168152602090f35b50346101575780600319360112610157576080546040516001600160a01b039091168152602090f35b503461015757602036600319011261015757600480358252607b6020526040822080546001820154600283015460038401549484015460058501546006860154600787015460088801549499969896979460ff169390926001600160a01b0392831692908116911660c06040819052600a870154608052600b870154600181811c918c91811615610da4575b602083106001821614610d905782845283919060018116908115610d715750600114610d2d575b610bd492500382610dd7565b60a052604051976001600160401b0360608a01908111908a1117610d195760608901604052600c8701548952600d87015460208a015260018060a01b03600e8801541660408a0152600f8701549b60116010890154980154986040519c8d5260208d015260408c015260608b015260808a015260a089015260c088015260e08701526007811015610d0557610100860152610200806101208701526080519086015260206080015195604061022087015286519384610240880152855b858110610cee575061026087860181019690965280516101408801526020810151610160880152604001516001600160a01b03166101808701526101a08601526101c08501526101e0840152601f01601f19168201829003019150f35b80602080928b010151610260828b01015201610c91565b634e487b7160e01b85526021600452602485fd5b634e487b7160e01b8a52604160045260248afd5b5090600b89018c5260208c20908c915b818310610d55575050906020610bd492820101610bc8565b6020919350806001915483858801015201910190918392610d3d565b60209250610bd494915060ff191682840152151560051b820101610bc8565b634e487b7160e01b8d52602260045260248dfd5b91607f1691610ba1565b6001600160401b038111610dc157604052565b634e487b7160e01b600052604160045260246000fd5b601f909101601f19168101906001600160401b03821190821017610dc157604052565b9094939260609260808301968352602083015260408201520152565b906004821015610e235752565b634e487b7160e01b600052602160045260246000fd5b600435906001600160a01b038216820361033857565b8054821015610e675760005260206000200190600090565b634e487b7160e01b600052603260045260246000fd5b6001600160a01b0391821681529116602082015260400190565b91908201809211610ea457565b634e487b7160e01b600052601160045260246000fd5b90816020910312610338575180151581036103385790565b607a546001600160a01b0390811691908215610f4a5750602090610f0d9260405180809581946302154c3d60e51b8352309060048401610e7d565b03915afa908115610f3e57600091610f23575090565b610f3b915060203d81116104c9576104bb8183610dd7565b90565b6040513d6000823e3d90fd5b915060685460405190602093848301916810531313d5d31254d560ba1b8352602984015260298352606083019183831060018060401b03841117610dc157826040528351902091816078541693632474521560e21b91828152846064830152600060848301528781604481895afa918215610f3e5760009261101e575b505015610fd957505050505050600190565b85936044926040519687958694855260048501521660248301525afa918215610f3e5760009261100857505090565b610f3b9250803d106104c9576104bb8183610dd7565b611042925060609089903d8b11611049575b61103a8285610dd7565b010190610eba565b3880610fc7565b3d9150611030565b6001600160a01b03918216815291166020820152604081019190915260a0810193929160809190611086906060830190610e16565b0152565b604091949392606082019560018060a01b0316825260208201520152565b6078546001600160a01b0316338190036110bf5750565b60405163894215cf60e01b81529081906110dd903360048401610e7d565b0390fd5b91908203918211610ea457565b6000198114610ea45760010190565b90611108908261112f565b9091821580611127575b6111225760039160078201550155565b505050565b508115611112565b60078101544392918382116111dc578382146111d0576003611153602093866110e1565b91015490611177607454604051958694859462437f9960e21b865260048601610dfa565b038173__$f1b7c69ba751c396eddc93d3bbc5414fd9$__5af4908115610f3e576000916111a2575091565b906020823d82116111c8575b816111bb60209383610dd7565b8101031261015757505191565b3d91506111ae565b50505050600090600090565b634e487b7160e01b600052600160045260246000fd5b906078549060006040918251637817ee4f60e01b815260209081818061121c308b60048401610e7d565b03818760018060a01b03809b165af180156113b45784906113be575b61124591506071546110e1565b6071558460785416803b156109cf5784516322bcf99960e01b81529084908290818381611276308e60048401610e7d565b03925af180156113b4576113a1575b50825b858716808552607d8352858520805483101561136457906112ad836112d99493610e4f565b9054600391821b1c91828852607b8652888820928354151580611355575b6112de575b505050506110ee565b611288565b60008051602061140e8339815191529360a093836000526009820189528b6000208b8154915561132e60028401916113178184546110e1565b835560706113268282546110e1565b9055846110fd565b54910154918b5193845288840152898b84015260608301526080820152a1388080806112d0565b508a60058501541615156112cb565b505050929094937f1468da654b37bb3631011c1917d02e0db437d519918858d40b38b5e980ca033b941691828152607c84528181205551908152a1565b6113ad90939193610dae565b9138611285565b85513d86823e3d90fd5b508181813d83116113e6575b6113d48183610dd7565b810103126109cf576112459051611238565b503d6113ca56fe70b752f3fadb6ac131c0ece847fcbb6994ec56ed6411595710fd9b29c6ac6cc10227f642ddcf2042ceaeafadb9d540f432072c00cd4862881667168dcc14710fa164736f6c6343000813000a","linkReferences":{"pkg/contracts/src/CVStrategy/ConvictionsUtils.sol":{"ConvictionsUtils":[{"start":4503,"length":20}]},"pkg/contracts/src/CVStrategy/PowerManagementUtils.sol":{"PowerManagementUtils":[{"start":1037,"length":20},{"start":1831,"length":20}]}}},"methodIdentifiers":{"DISPUTE_COOLDOWN_SEC()":"f5be3f7c","RULING_OPTIONS()":"626c47e8","activatePoints()":"814516ad","arbitrableConfigs(uint256)":"41bb7605","cloneNonce()":"33960459","collateralVault()":"0bece79c","currentArbitrableConfigVersion()":"125fd1d9","cvParams()":"2506b870","deactivatePoints()":"1ddf1e23","deactivatePoints(address)":"6453d9c4","decreasePower(address,uint256)":"2ed04b2b","disputeCount()":"a28889e1","disputeIdToProposalId(uint256)":"255ffb38","increasePower(address,uint256)":"782aadff","pointConfig()":"a47ff7e5","pointSystem()":"2dbd6fdd","proposalCounter()":"0c0512e9","proposalType()":"351d9f96","proposals(uint256)":"013cf08b","registryCommunity()":"6003e414","superfluidToken()":"05caa7f3","sybilScorer()":"b6c61f31","totalPointsActivated()":"aba9ffee","totalStaked()":"817b1cd2","totalVoterStakePct(address)":"5db64b99","voterStakedProposals(address,uint256)":"868c57b8"},"storageLayout":{"storage":[{"astId":78287,"contract":"pkg/contracts/src/CVStrategy/facets/CVPowerFacet.sol:CVPowerFacet","label":"_initialized","offset":0,"slot":"0","type":"t_uint8"},{"astId":78289,"contract":"pkg/contracts/src/CVStrategy/facets/CVPowerFacet.sol:CVPowerFacet","label":"_initializing","offset":1,"slot":"0","type":"t_bool"},{"astId":78293,"contract":"pkg/contracts/src/CVStrategy/facets/CVPowerFacet.sol:CVPowerFacet","label":"__gap_init","offset":0,"slot":"1","type":"t_array(t_uint256)50_storage"},{"astId":78296,"contract":"pkg/contracts/src/CVStrategy/facets/CVPowerFacet.sol:CVPowerFacet","label":"_owner","offset":0,"slot":"51","type":"t_address"},{"astId":78300,"contract":"pkg/contracts/src/CVStrategy/facets/CVPowerFacet.sol:CVPowerFacet","label":"__gap_ownable","offset":0,"slot":"52","type":"t_array(t_uint256)49_storage"},{"astId":78304,"contract":"pkg/contracts/src/CVStrategy/facets/CVPowerFacet.sol:CVPowerFacet","label":"allo","offset":0,"slot":"101","type":"t_contract(IAllo)2629"},{"astId":78306,"contract":"pkg/contracts/src/CVStrategy/facets/CVPowerFacet.sol:CVPowerFacet","label":"strategyId","offset":0,"slot":"102","type":"t_bytes32"},{"astId":78308,"contract":"pkg/contracts/src/CVStrategy/facets/CVPowerFacet.sol:CVPowerFacet","label":"poolActive","offset":0,"slot":"103","type":"t_bool"},{"astId":78310,"contract":"pkg/contracts/src/CVStrategy/facets/CVPowerFacet.sol:CVPowerFacet","label":"poolId","offset":0,"slot":"104","type":"t_uint256"},{"astId":78312,"contract":"pkg/contracts/src/CVStrategy/facets/CVPowerFacet.sol:CVPowerFacet","label":"poolAmount","offset":0,"slot":"105","type":"t_uint256"},{"astId":78315,"contract":"pkg/contracts/src/CVStrategy/facets/CVPowerFacet.sol:CVPowerFacet","label":"collateralVaultTemplate","offset":0,"slot":"106","type":"t_address"},{"astId":78318,"contract":"pkg/contracts/src/CVStrategy/facets/CVPowerFacet.sol:CVPowerFacet","label":"surpressStateMutabilityWarning","offset":0,"slot":"107","type":"t_uint256"},{"astId":78321,"contract":"pkg/contracts/src/CVStrategy/facets/CVPowerFacet.sol:CVPowerFacet","label":"cloneNonce","offset":0,"slot":"108","type":"t_uint256"},{"astId":78324,"contract":"pkg/contracts/src/CVStrategy/facets/CVPowerFacet.sol:CVPowerFacet","label":"disputeCount","offset":0,"slot":"109","type":"t_uint64"},{"astId":78327,"contract":"pkg/contracts/src/CVStrategy/facets/CVPowerFacet.sol:CVPowerFacet","label":"proposalCounter","offset":0,"slot":"110","type":"t_uint256"},{"astId":78330,"contract":"pkg/contracts/src/CVStrategy/facets/CVPowerFacet.sol:CVPowerFacet","label":"currentArbitrableConfigVersion","offset":0,"slot":"111","type":"t_uint256"},{"astId":78333,"contract":"pkg/contracts/src/CVStrategy/facets/CVPowerFacet.sol:CVPowerFacet","label":"totalStaked","offset":0,"slot":"112","type":"t_uint256"},{"astId":78336,"contract":"pkg/contracts/src/CVStrategy/facets/CVPowerFacet.sol:CVPowerFacet","label":"totalPointsActivated","offset":0,"slot":"113","type":"t_uint256"},{"astId":78340,"contract":"pkg/contracts/src/CVStrategy/facets/CVPowerFacet.sol:CVPowerFacet","label":"cvParams","offset":0,"slot":"114","type":"t_struct(CVParams)79311_storage"},{"astId":78344,"contract":"pkg/contracts/src/CVStrategy/facets/CVPowerFacet.sol:CVPowerFacet","label":"proposalType","offset":0,"slot":"118","type":"t_enum(ProposalType)79212"},{"astId":78348,"contract":"pkg/contracts/src/CVStrategy/facets/CVPowerFacet.sol:CVPowerFacet","label":"pointSystem","offset":1,"slot":"118","type":"t_enum(PointSystem)79217"},{"astId":78352,"contract":"pkg/contracts/src/CVStrategy/facets/CVPowerFacet.sol:CVPowerFacet","label":"pointConfig","offset":0,"slot":"119","type":"t_struct(PointSystemConfig)79288_storage"},{"astId":78356,"contract":"pkg/contracts/src/CVStrategy/facets/CVPowerFacet.sol:CVPowerFacet","label":"registryCommunity","offset":0,"slot":"120","type":"t_contract(RegistryCommunity)86136"},{"astId":78360,"contract":"pkg/contracts/src/CVStrategy/facets/CVPowerFacet.sol:CVPowerFacet","label":"collateralVault","offset":0,"slot":"121","type":"t_contract(ICollateralVault)91111"},{"astId":78364,"contract":"pkg/contracts/src/CVStrategy/facets/CVPowerFacet.sol:CVPowerFacet","label":"sybilScorer","offset":0,"slot":"122","type":"t_contract(ISybilScorer)84091"},{"astId":78370,"contract":"pkg/contracts/src/CVStrategy/facets/CVPowerFacet.sol:CVPowerFacet","label":"proposals","offset":0,"slot":"123","type":"t_mapping(t_uint256,t_struct(Proposal)79280_storage)"},{"astId":78375,"contract":"pkg/contracts/src/CVStrategy/facets/CVPowerFacet.sol:CVPowerFacet","label":"totalVoterStakePct","offset":0,"slot":"124","type":"t_mapping(t_address,t_uint256)"},{"astId":78381,"contract":"pkg/contracts/src/CVStrategy/facets/CVPowerFacet.sol:CVPowerFacet","label":"voterStakedProposals","offset":0,"slot":"125","type":"t_mapping(t_address,t_array(t_uint256)dyn_storage)"},{"astId":78386,"contract":"pkg/contracts/src/CVStrategy/facets/CVPowerFacet.sol:CVPowerFacet","label":"disputeIdToProposalId","offset":0,"slot":"126","type":"t_mapping(t_uint256,t_uint256)"},{"astId":78392,"contract":"pkg/contracts/src/CVStrategy/facets/CVPowerFacet.sol:CVPowerFacet","label":"arbitrableConfigs","offset":0,"slot":"127","type":"t_mapping(t_uint256,t_struct(ArbitrableConfig)79302_storage)"},{"astId":78396,"contract":"pkg/contracts/src/CVStrategy/facets/CVPowerFacet.sol:CVPowerFacet","label":"superfluidToken","offset":0,"slot":"128","type":"t_contract(ISuperToken)70946"},{"astId":78401,"contract":"pkg/contracts/src/CVStrategy/facets/CVPowerFacet.sol:CVPowerFacet","label":"__gap","offset":0,"slot":"129","type":"t_array(t_uint256)49_storage"}],"types":{"t_address":{"encoding":"inplace","label":"address","numberOfBytes":"20"},"t_array(t_uint256)49_storage":{"encoding":"inplace","label":"uint256[49]","numberOfBytes":"1568","base":"t_uint256"},"t_array(t_uint256)50_storage":{"encoding":"inplace","label":"uint256[50]","numberOfBytes":"1600","base":"t_uint256"},"t_array(t_uint256)dyn_storage":{"encoding":"dynamic_array","label":"uint256[]","numberOfBytes":"32","base":"t_uint256"},"t_bool":{"encoding":"inplace","label":"bool","numberOfBytes":"1"},"t_bytes32":{"encoding":"inplace","label":"bytes32","numberOfBytes":"32"},"t_contract(IAllo)2629":{"encoding":"inplace","label":"contract IAllo","numberOfBytes":"20"},"t_contract(IArbitrator)91078":{"encoding":"inplace","label":"contract IArbitrator","numberOfBytes":"20"},"t_contract(ICollateralVault)91111":{"encoding":"inplace","label":"contract ICollateralVault","numberOfBytes":"20"},"t_contract(ISuperToken)70946":{"encoding":"inplace","label":"contract ISuperToken","numberOfBytes":"20"},"t_contract(ISybilScorer)84091":{"encoding":"inplace","label":"contract ISybilScorer","numberOfBytes":"20"},"t_contract(RegistryCommunity)86136":{"encoding":"inplace","label":"contract RegistryCommunity","numberOfBytes":"20"},"t_enum(PointSystem)79217":{"encoding":"inplace","label":"enum PointSystem","numberOfBytes":"1"},"t_enum(ProposalStatus)79237":{"encoding":"inplace","label":"enum ProposalStatus","numberOfBytes":"1"},"t_enum(ProposalType)79212":{"encoding":"inplace","label":"enum ProposalType","numberOfBytes":"1"},"t_mapping(t_address,t_array(t_uint256)dyn_storage)":{"encoding":"mapping","key":"t_address","label":"mapping(address => uint256[])","numberOfBytes":"32","value":"t_array(t_uint256)dyn_storage"},"t_mapping(t_address,t_uint256)":{"encoding":"mapping","key":"t_address","label":"mapping(address => uint256)","numberOfBytes":"32","value":"t_uint256"},"t_mapping(t_uint256,t_struct(ArbitrableConfig)79302_storage)":{"encoding":"mapping","key":"t_uint256","label":"mapping(uint256 => struct ArbitrableConfig)","numberOfBytes":"32","value":"t_struct(ArbitrableConfig)79302_storage"},"t_mapping(t_uint256,t_struct(Proposal)79280_storage)":{"encoding":"mapping","key":"t_uint256","label":"mapping(uint256 => struct Proposal)","numberOfBytes":"32","value":"t_struct(Proposal)79280_storage"},"t_mapping(t_uint256,t_uint256)":{"encoding":"mapping","key":"t_uint256","label":"mapping(uint256 => uint256)","numberOfBytes":"32","value":"t_uint256"},"t_string_storage":{"encoding":"bytes","label":"string","numberOfBytes":"32"},"t_struct(ArbitrableConfig)79302_storage":{"encoding":"inplace","label":"struct ArbitrableConfig","numberOfBytes":"192","members":[{"astId":79291,"contract":"pkg/contracts/src/CVStrategy/facets/CVPowerFacet.sol:CVPowerFacet","label":"arbitrator","offset":0,"slot":"0","type":"t_contract(IArbitrator)91078"},{"astId":79293,"contract":"pkg/contracts/src/CVStrategy/facets/CVPowerFacet.sol:CVPowerFacet","label":"tribunalSafe","offset":0,"slot":"1","type":"t_address"},{"astId":79295,"contract":"pkg/contracts/src/CVStrategy/facets/CVPowerFacet.sol:CVPowerFacet","label":"submitterCollateralAmount","offset":0,"slot":"2","type":"t_uint256"},{"astId":79297,"contract":"pkg/contracts/src/CVStrategy/facets/CVPowerFacet.sol:CVPowerFacet","label":"challengerCollateralAmount","offset":0,"slot":"3","type":"t_uint256"},{"astId":79299,"contract":"pkg/contracts/src/CVStrategy/facets/CVPowerFacet.sol:CVPowerFacet","label":"defaultRuling","offset":0,"slot":"4","type":"t_uint256"},{"astId":79301,"contract":"pkg/contracts/src/CVStrategy/facets/CVPowerFacet.sol:CVPowerFacet","label":"defaultRulingTimeout","offset":0,"slot":"5","type":"t_uint256"}]},"t_struct(CVParams)79311_storage":{"encoding":"inplace","label":"struct CVParams","numberOfBytes":"128","members":[{"astId":79304,"contract":"pkg/contracts/src/CVStrategy/facets/CVPowerFacet.sol:CVPowerFacet","label":"maxRatio","offset":0,"slot":"0","type":"t_uint256"},{"astId":79306,"contract":"pkg/contracts/src/CVStrategy/facets/CVPowerFacet.sol:CVPowerFacet","label":"weight","offset":0,"slot":"1","type":"t_uint256"},{"astId":79308,"contract":"pkg/contracts/src/CVStrategy/facets/CVPowerFacet.sol:CVPowerFacet","label":"decay","offset":0,"slot":"2","type":"t_uint256"},{"astId":79310,"contract":"pkg/contracts/src/CVStrategy/facets/CVPowerFacet.sol:CVPowerFacet","label":"minThresholdPoints","offset":0,"slot":"3","type":"t_uint256"}]},"t_struct(Metadata)3080_storage":{"encoding":"inplace","label":"struct Metadata","numberOfBytes":"64","members":[{"astId":3076,"contract":"pkg/contracts/src/CVStrategy/facets/CVPowerFacet.sol:CVPowerFacet","label":"protocol","offset":0,"slot":"0","type":"t_uint256"},{"astId":3079,"contract":"pkg/contracts/src/CVStrategy/facets/CVPowerFacet.sol:CVPowerFacet","label":"pointer","offset":0,"slot":"1","type":"t_string_storage"}]},"t_struct(PointSystemConfig)79288_storage":{"encoding":"inplace","label":"struct PointSystemConfig","numberOfBytes":"32","members":[{"astId":79287,"contract":"pkg/contracts/src/CVStrategy/facets/CVPowerFacet.sol:CVPowerFacet","label":"maxAmount","offset":0,"slot":"0","type":"t_uint256"}]},"t_struct(Proposal)79280_storage":{"encoding":"inplace","label":"struct Proposal","numberOfBytes":"576","members":[{"astId":79246,"contract":"pkg/contracts/src/CVStrategy/facets/CVPowerFacet.sol:CVPowerFacet","label":"proposalId","offset":0,"slot":"0","type":"t_uint256"},{"astId":79248,"contract":"pkg/contracts/src/CVStrategy/facets/CVPowerFacet.sol:CVPowerFacet","label":"requestedAmount","offset":0,"slot":"1","type":"t_uint256"},{"astId":79250,"contract":"pkg/contracts/src/CVStrategy/facets/CVPowerFacet.sol:CVPowerFacet","label":"stakedAmount","offset":0,"slot":"2","type":"t_uint256"},{"astId":79252,"contract":"pkg/contracts/src/CVStrategy/facets/CVPowerFacet.sol:CVPowerFacet","label":"convictionLast","offset":0,"slot":"3","type":"t_uint256"},{"astId":79254,"contract":"pkg/contracts/src/CVStrategy/facets/CVPowerFacet.sol:CVPowerFacet","label":"beneficiary","offset":0,"slot":"4","type":"t_address"},{"astId":79256,"contract":"pkg/contracts/src/CVStrategy/facets/CVPowerFacet.sol:CVPowerFacet","label":"submitter","offset":0,"slot":"5","type":"t_address"},{"astId":79258,"contract":"pkg/contracts/src/CVStrategy/facets/CVPowerFacet.sol:CVPowerFacet","label":"requestedToken","offset":0,"slot":"6","type":"t_address"},{"astId":79260,"contract":"pkg/contracts/src/CVStrategy/facets/CVPowerFacet.sol:CVPowerFacet","label":"blockLast","offset":0,"slot":"7","type":"t_uint256"},{"astId":79263,"contract":"pkg/contracts/src/CVStrategy/facets/CVPowerFacet.sol:CVPowerFacet","label":"proposalStatus","offset":0,"slot":"8","type":"t_enum(ProposalStatus)79237"},{"astId":79267,"contract":"pkg/contracts/src/CVStrategy/facets/CVPowerFacet.sol:CVPowerFacet","label":"voterStakedPoints","offset":0,"slot":"9","type":"t_mapping(t_address,t_uint256)"},{"astId":79270,"contract":"pkg/contracts/src/CVStrategy/facets/CVPowerFacet.sol:CVPowerFacet","label":"metadata","offset":0,"slot":"10","type":"t_struct(Metadata)3080_storage"},{"astId":79273,"contract":"pkg/contracts/src/CVStrategy/facets/CVPowerFacet.sol:CVPowerFacet","label":"disputeInfo","offset":0,"slot":"12","type":"t_struct(ProposalDisputeInfo)79244_storage"},{"astId":79275,"contract":"pkg/contracts/src/CVStrategy/facets/CVPowerFacet.sol:CVPowerFacet","label":"lastDisputeCompletion","offset":0,"slot":"15","type":"t_uint256"},{"astId":79277,"contract":"pkg/contracts/src/CVStrategy/facets/CVPowerFacet.sol:CVPowerFacet","label":"arbitrableConfigVersion","offset":0,"slot":"16","type":"t_uint256"},{"astId":79279,"contract":"pkg/contracts/src/CVStrategy/facets/CVPowerFacet.sol:CVPowerFacet","label":"creationTimestamp","offset":0,"slot":"17","type":"t_uint256"}]},"t_struct(ProposalDisputeInfo)79244_storage":{"encoding":"inplace","label":"struct ProposalDisputeInfo","numberOfBytes":"96","members":[{"astId":79239,"contract":"pkg/contracts/src/CVStrategy/facets/CVPowerFacet.sol:CVPowerFacet","label":"disputeId","offset":0,"slot":"0","type":"t_uint256"},{"astId":79241,"contract":"pkg/contracts/src/CVStrategy/facets/CVPowerFacet.sol:CVPowerFacet","label":"disputeTimestamp","offset":0,"slot":"1","type":"t_uint256"},{"astId":79243,"contract":"pkg/contracts/src/CVStrategy/facets/CVPowerFacet.sol:CVPowerFacet","label":"challenger","offset":0,"slot":"2","type":"t_address"}]},"t_uint256":{"encoding":"inplace","label":"uint256","numberOfBytes":"32"},"t_uint64":{"encoding":"inplace","label":"uint64","numberOfBytes":"8"},"t_uint8":{"encoding":"inplace","label":"uint8","numberOfBytes":"1"}}},"id":127}