{"abi":[{"type":"function","name":"DISPUTE_COOLDOWN_SEC","inputs":[],"outputs":[{"name":"","type":"uint256","internalType":"uint256"}],"stateMutability":"view"},{"type":"function","name":"RULING_OPTIONS","inputs":[],"outputs":[{"name":"","type":"uint256","internalType":"uint256"}],"stateMutability":"view"},{"type":"function","name":"arbitrableConfigs","inputs":[{"name":"","type":"uint256","internalType":"uint256"}],"outputs":[{"name":"arbitrator","type":"address","internalType":"contract IArbitrator"},{"name":"tribunalSafe","type":"address","internalType":"address"},{"name":"submitterCollateralAmount","type":"uint256","internalType":"uint256"},{"name":"challengerCollateralAmount","type":"uint256","internalType":"uint256"},{"name":"defaultRuling","type":"uint256","internalType":"uint256"},{"name":"defaultRulingTimeout","type":"uint256","internalType":"uint256"}],"stateMutability":"view"},{"type":"function","name":"cloneNonce","inputs":[],"outputs":[{"name":"","type":"uint256","internalType":"uint256"}],"stateMutability":"view"},{"type":"function","name":"collateralVault","inputs":[],"outputs":[{"name":"","type":"address","internalType":"contract ICollateralVault"}],"stateMutability":"view"},{"type":"function","name":"currentArbitrableConfigVersion","inputs":[],"outputs":[{"name":"","type":"uint256","internalType":"uint256"}],"stateMutability":"view"},{"type":"function","name":"cvParams","inputs":[],"outputs":[{"name":"maxRatio","type":"uint256","internalType":"uint256"},{"name":"weight","type":"uint256","internalType":"uint256"},{"name":"decay","type":"uint256","internalType":"uint256"},{"name":"minThresholdPoints","type":"uint256","internalType":"uint256"}],"stateMutability":"view"},{"type":"function","name":"deactivatePoints","inputs":[],"outputs":[],"stateMutability":"nonpayable"},{"type":"function","name":"deactivatePoints","inputs":[{"name":"_member","type":"address","internalType":"address"}],"outputs":[],"stateMutability":"nonpayable"},{"type":"function","name":"decreasePower","inputs":[{"name":"_member","type":"address","internalType":"address"},{"name":"_amountToUnstake","type":"uint256","internalType":"uint256"}],"outputs":[{"name":"","type":"uint256","internalType":"uint256"}],"stateMutability":"nonpayable"},{"type":"function","name":"disputeCount","inputs":[],"outputs":[{"name":"","type":"uint64","internalType":"uint64"}],"stateMutability":"view"},{"type":"function","name":"disputeIdToProposalId","inputs":[{"name":"","type":"uint256","internalType":"uint256"}],"outputs":[{"name":"","type":"uint256","internalType":"uint256"}],"stateMutability":"view"},{"type":"function","name":"pointConfig","inputs":[],"outputs":[{"name":"maxAmount","type":"uint256","internalType":"uint256"}],"stateMutability":"view"},{"type":"function","name":"pointSystem","inputs":[],"outputs":[{"name":"","type":"uint8","internalType":"enum PointSystem"}],"stateMutability":"view"},{"type":"function","name":"proposalCounter","inputs":[],"outputs":[{"name":"","type":"uint256","internalType":"uint256"}],"stateMutability":"view"},{"type":"function","name":"proposalType","inputs":[],"outputs":[{"name":"","type":"uint8","internalType":"enum ProposalType"}],"stateMutability":"view"},{"type":"function","name":"proposals","inputs":[{"name":"","type":"uint256","internalType":"uint256"}],"outputs":[{"name":"proposalId","type":"uint256","internalType":"uint256"},{"name":"requestedAmount","type":"uint256","internalType":"uint256"},{"name":"stakedAmount","type":"uint256","internalType":"uint256"},{"name":"convictionLast","type":"uint256","internalType":"uint256"},{"name":"beneficiary","type":"address","internalType":"address"},{"name":"submitter","type":"address","internalType":"address"},{"name":"requestedToken","type":"address","internalType":"address"},{"name":"blockLast","type":"uint256","internalType":"uint256"},{"name":"proposalStatus","type":"uint8","internalType":"enum ProposalStatus"},{"name":"metadata","type":"tuple","internalType":"struct Metadata","components":[{"name":"protocol","type":"uint256","internalType":"uint256"},{"name":"pointer","type":"string","internalType":"string"}]},{"name":"disputeInfo","type":"tuple","internalType":"struct ProposalDisputeInfo","components":[{"name":"disputeId","type":"uint256","internalType":"uint256"},{"name":"disputeTimestamp","type":"uint256","internalType":"uint256"},{"name":"challenger","type":"address","internalType":"address"}]},{"name":"lastDisputeCompletion","type":"uint256","internalType":"uint256"},{"name":"arbitrableConfigVersion","type":"uint256","internalType":"uint256"}],"stateMutability":"view"},{"type":"function","name":"registryCommunity","inputs":[],"outputs":[{"name":"","type":"address","internalType":"contract RegistryCommunityV0_0"}],"stateMutability":"view"},{"type":"function","name":"superfluidToken","inputs":[],"outputs":[{"name":"","type":"address","internalType":"contract ISuperToken"}],"stateMutability":"view"},{"type":"function","name":"sybilScorer","inputs":[],"outputs":[{"name":"","type":"address","internalType":"contract ISybilScorer"}],"stateMutability":"view"},{"type":"function","name":"totalPointsActivated","inputs":[],"outputs":[{"name":"","type":"uint256","internalType":"uint256"}],"stateMutability":"view"},{"type":"function","name":"totalStaked","inputs":[],"outputs":[{"name":"","type":"uint256","internalType":"uint256"}],"stateMutability":"view"},{"type":"function","name":"totalVoterStakePct","inputs":[{"name":"","type":"address","internalType":"address"}],"outputs":[{"name":"","type":"uint256","internalType":"uint256"}],"stateMutability":"view"},{"type":"function","name":"voterStakedProposals","inputs":[{"name":"","type":"address","internalType":"address"},{"name":"","type":"uint256","internalType":"uint256"}],"outputs":[{"name":"","type":"uint256","internalType":"uint256"}],"stateMutability":"view"},{"type":"event","name":"PointsDeactivated","inputs":[{"name":"member","type":"address","indexed":false,"internalType":"address"}],"anonymous":false},{"type":"event","name":"PowerDecreased","inputs":[{"name":"member","type":"address","indexed":false,"internalType":"address"},{"name":"tokensUnStaked","type":"uint256","indexed":false,"internalType":"uint256"},{"name":"pointsToDecrease","type":"uint256","indexed":false,"internalType":"uint256"}],"anonymous":false},{"type":"event","name":"SupportAdded","inputs":[{"name":"from","type":"address","indexed":false,"internalType":"address"},{"name":"proposalId","type":"uint256","indexed":false,"internalType":"uint256"},{"name":"amount","type":"uint256","indexed":false,"internalType":"uint256"},{"name":"totalStakedAmount","type":"uint256","indexed":false,"internalType":"uint256"},{"name":"convictionLast","type":"uint256","indexed":false,"internalType":"uint256"}],"anonymous":false}],"bytecode":{"object":"0x608060405234801561001057600080fd5b50611069806100206000396000f3fe608060405234801561001057600080fd5b50600436106101285760003560e01c8063013cf08b1461012d57806305caa7f3146101625780630bece79c146101825780630c0512e914610195578063125fd1d9146101ac5780631ddf1e23146101b55780632506b870146101bf578063255ffb38146101e55780632dbd6fdd146102055780632ed04b2b146102245780633396045914610237578063351d9f961461024057806341bb76051461025a5780635db64b99146102e25780636003e41414610302578063626c47e8146103155780636453d9c41461031d578063817b1cd214610330578063868c57b814610339578063a28889e11461034c578063a47ff7e514610377578063aba9ffee14610381578063b6c61f311461038a578063f5be3f7c1461039d575b600080fd5b61014061013b366004610c94565b6103a6565b6040516101599d9c9b9a99989796959493929190610d1e565b60405180910390f35b608054610175906001600160a01b031681565b6040516101599190610dd8565b607954610175906001600160a01b031681565b61019e606e5481565b604051908152602001610159565b61019e606f5481565b6101bd6104f4565b005b6072546073546074546075546101d59392919084565b6040516101599493929190610dec565b61019e6101f3366004610c94565b607e6020526000908152604090205481565b60765461021790610100900460ff1681565b6040516101599190610e1b565b61019e610232366004610e45565b6104ff565b61019e606c5481565b60765461024d9060ff1681565b6040516101599190610e6f565b6102aa610268366004610c94565b607f602052600090815260409020805460018201546002830154600384015460048501546005909501546001600160a01b039485169593909416939192909186565b604080516001600160a01b039788168152969095166020870152938501929092526060840152608083015260a082015260c001610159565b61019e6102f0366004610e89565b607c6020526000908152604090205481565b607854610175906001600160a01b031681565b61019e600381565b6101bd61032b366004610e89565b610882565b61019e60705481565b61019e610347366004610e45565b610896565b606d5461035f906001600160401b031681565b6040516001600160401b039091168152602001610159565b60775461019e9081565b61019e60715481565b607a54610175906001600160a01b031681565b61019e611c2081565b607b602090815260009182526040918290208054600182015460028301546003840154600485015460058601546006870154600788015460088901548b51808d01909c52600a8a0180548d52600b8b0180549a9d999c989b979a6001600160a01b039788169a968816999790951697939660ff909316959394919284019161042d90610eab565b80601f016020809104026020016040519081016040528092919081815260200182805461045990610eab565b80156104a65780601f1061047b576101008083540402835291602001916104a6565b820191906000526020600020905b81548152906001019060200180831161048957829003601f168201915b50505091909252505060408051606081018252600c8501548152600d8501546020820152600e8501546001600160a01b031691810191909152600f840154601090940154929390929091508d565b6104fd336108c7565b565b60006105096109f9565b60785460765460775460405163241344fd60e01b815260009373__$c032285ca413f3d1dae375e8699dd757fc$__9363241344fd93610564936001600160a01b03909316928a928a9261010090910460ff1691600401610ee5565b602060405180830381865af4158015610581573d6000803e3d6000fd5b505050506040513d601f19601f820116820180604052508101906105a59190610f21565b6001600160a01b038086166000908152607c6020526040808220546078549151637817ee4f60e01b81529495509391928392911690637817ee4f906105f0908a903090600401610f3a565b6020604051808303816000875af115801561060f573d6000803e3d6000fd5b505050506040513d601f19601f820116820180604052508101906106339190610f21565b905082811161064357600061064d565b61064d8382610f6a565b915050828110156108155760008260806106678487610f6a565b61067292911b610f7d565b905060005b6001600160a01b0388166000908152607d6020526040902054811015610812576001600160a01b0388166000908152607d602052604081208054839081106106c1576106c1610f9f565b6000918252602080832090910154808352607b825260408084206001600160a01b038e16855260098101909352832054909350909160806107028784610fb5565b610710906001607f1b610fcc565b61071b911c83610f6a565b600284015490915061072d8284610f6a565b8460020160008282546107409190610f6a565b90915550506001600160a01b038d166000908152600985016020526040902082905561076c8284610f6a565b6070600082825461077d9190610f6a565b9091555061078d90508284610f6a565b6001600160a01b038e166000908152607c6020526040812080549091906107b5908490610f6a565b909155506107c590508482610a10565b5060008051602061103d8339815191528c8583866002015487600301546040516107f3959493929190610fdf565b60405180910390a150505050808061080a9061100d565b915050610677565b50505b82607160008282546108279190610f6a565b9091555050604080516001600160a01b0388168152602081018790529081018490527f70b752f3fadb6ac131c0ece847fcbb6994ec56ed6411595710fd9b29c6ac6cc19060600160405180910390a150909150505b92915050565b61088a6109f9565b610893816108c7565b50565b607d60205281600052604060002081815481106108b257600080fd5b90600052602060002001600091509150505481565b607854604051637817ee4f60e01b81526001600160a01b0390911690637817ee4f906108f99084903090600401610f3a565b6020604051808303816000875af1158015610918573d6000803e3d6000fd5b505050506040513d601f19601f8201168201806040525081019061093c9190610f21565b6071600082825461094d9190610f6a565b90915550506078546040516322bcf99960e01b81526001600160a01b03909116906322bcf999906109849084903090600401610f3a565b600060405180830381600087803b15801561099e57600080fd5b505af11580156109b2573d6000803e3d6000fd5b505050506109bf81610a4b565b7f1468da654b37bb3631011c1917d02e0db437d519918858d40b38b5e980ca033b816040516109ee9190610dd8565b60405180910390a150565b6078546001600160a01b031633146104fd57600080fd5b600080610a1d8484610b8a565b91509150816000148015610a2f575080155b15610a3a5750505050565b600784015560039092019190915550565b60005b6001600160a01b0382166000908152607d6020526040902054811015610b6f576001600160a01b0382166000908152607d60205260408120805483908110610a9857610a98610f9f565b6000918252602080832090910154808352607b9091526040909120909150610abf82610c5b565b15610b5a576001600160a01b0384166000908152600982016020526040812080549082905560028301805491928392610af9908490610f6a565b925050819055508060706000828254610b129190610f6a565b90915550610b2290508282610a10565b60008051602061103d8339815191528584600085600201548660030154604051610b50959493929190610fdf565b60405180910390a1505b50508080610b679061100d565b915050610a4e565b506001600160a01b03166000908152607c6020526040812055565b6000804390508084600701541115610ba457610ba4611026565b80846007015403610bba57506000905080610c54565b73__$f1b7c69ba751c396eddc93d3bbc5414fd9$__63010dfe64856007015483610be49190610f6a565b60038701546074546040516001600160e01b031960e086901b168152610c109392918991600401610dec565b602060405180830381865af4158015610c2d573d6000803e3d6000fd5b505050506040513d601f19601f82011682018060405250810190610c519190610f21565b91505b9250929050565b6000818152607b60205260408120541580159061087c5750506000908152607b60205260409020600501546001600160a01b0316151590565b600060208284031215610ca657600080fd5b5035919050565b634e487b7160e01b600052602160045260246000fd5b805182526000602080830151604082860152805180604087015260005b81811015610cfc57828101840151878201606001528301610ce0565b506000606082880101526060601f19601f830116870101935050505092915050565b8d8152602081018d9052604081018c9052606081018b90526001600160a01b038a8116608083015289811660a0830152881660c082015260e0810187905260006101e060078810610d7157610d71610cad565b8761010084015280610120840152610d8b81840188610cc3565b8651610140850152602087015161016085015260408701516001600160a01b03166101808501529150610dbb9050565b6101a08201939093526101c001529b9a5050505050505050505050565b6001600160a01b0391909116815260200190565b93845260208401929092526040830152606082015260800190565b60048110610e1757610e17610cad565b9052565b6020810161087c8284610e07565b80356001600160a01b0381168114610e4057600080fd5b919050565b60008060408385031215610e5857600080fd5b610e6183610e29565b946020939093013593505050565b6020810160038310610e8357610e83610cad565b91905290565b600060208284031215610e9b57600080fd5b610ea482610e29565b9392505050565b600181811c90821680610ebf57607f821691505b602082108103610edf57634e487b7160e01b600052602260045260246000fd5b50919050565b6001600160a01b038681168252851660208201526040810184905260a08101610f116060830185610e07565b8260808301529695505050505050565b600060208284031215610f3357600080fd5b5051919050565b6001600160a01b0392831681529116602082015260400190565b634e487b7160e01b600052601160045260246000fd5b8181038181111561087c5761087c610f54565b600082610f9a57634e487b7160e01b600052601260045260246000fd5b500490565b634e487b7160e01b600052603260045260246000fd5b808202811582820484141761087c5761087c610f54565b8082018082111561087c5761087c610f54565b6001600160a01b03959095168552602085019390935260408401919091526060830152608082015260a00190565b60006001820161101f5761101f610f54565b5060010190565b634e487b7160e01b600052600160045260246000fdfe0227f642ddcf2042ceaeafadb9d540f432072c00cd4862881667168dcc14710fa164736f6c6343000813000a","linkReferences":{"pkg/contracts/src/CVStrategy/ConvictionsUtils.sol":{"ConvictionsUtils":[{"start":3036,"length":20}]},"pkg/contracts/src/CVStrategy/PowerManagementUtils.sol":{"PowerManagementUtils":[{"start":1348,"length":20}]}}},"methodIdentifiers":{"DISPUTE_COOLDOWN_SEC()":"f5be3f7c","RULING_OPTIONS()":"626c47e8","arbitrableConfigs(uint256)":"41bb7605","cloneNonce()":"33960459","collateralVault()":"0bece79c","currentArbitrableConfigVersion()":"125fd1d9","cvParams()":"2506b870","deactivatePoints()":"1ddf1e23","deactivatePoints(address)":"6453d9c4","decreasePower(address,uint256)":"2ed04b2b","disputeCount()":"a28889e1","disputeIdToProposalId(uint256)":"255ffb38","pointConfig()":"a47ff7e5","pointSystem()":"2dbd6fdd","proposalCounter()":"0c0512e9","proposalType()":"351d9f96","proposals(uint256)":"013cf08b","registryCommunity()":"6003e414","superfluidToken()":"05caa7f3","sybilScorer()":"b6c61f31","totalPointsActivated()":"aba9ffee","totalStaked()":"817b1cd2","totalVoterStakePct(address)":"5db64b99","voterStakedProposals(address,uint256)":"868c57b8"},"storageLayout":{"storage":[{"astId":81411,"contract":"pkg/contracts/src/CVStrategy/facets/CVPowerFacet.sol:CVPowerFacet","label":"_initialized","offset":0,"slot":"0","type":"t_uint8"},{"astId":81413,"contract":"pkg/contracts/src/CVStrategy/facets/CVPowerFacet.sol:CVPowerFacet","label":"_initializing","offset":1,"slot":"0","type":"t_bool"},{"astId":81417,"contract":"pkg/contracts/src/CVStrategy/facets/CVPowerFacet.sol:CVPowerFacet","label":"__gap_init","offset":0,"slot":"1","type":"t_array(t_uint256)50_storage"},{"astId":81420,"contract":"pkg/contracts/src/CVStrategy/facets/CVPowerFacet.sol:CVPowerFacet","label":"_owner","offset":0,"slot":"51","type":"t_address"},{"astId":81424,"contract":"pkg/contracts/src/CVStrategy/facets/CVPowerFacet.sol:CVPowerFacet","label":"__gap_ownable","offset":0,"slot":"52","type":"t_array(t_uint256)49_storage"},{"astId":81428,"contract":"pkg/contracts/src/CVStrategy/facets/CVPowerFacet.sol:CVPowerFacet","label":"allo","offset":0,"slot":"101","type":"t_contract(IAllo)2629"},{"astId":81430,"contract":"pkg/contracts/src/CVStrategy/facets/CVPowerFacet.sol:CVPowerFacet","label":"strategyId","offset":0,"slot":"102","type":"t_bytes32"},{"astId":81432,"contract":"pkg/contracts/src/CVStrategy/facets/CVPowerFacet.sol:CVPowerFacet","label":"poolActive","offset":0,"slot":"103","type":"t_bool"},{"astId":81434,"contract":"pkg/contracts/src/CVStrategy/facets/CVPowerFacet.sol:CVPowerFacet","label":"poolId","offset":0,"slot":"104","type":"t_uint256"},{"astId":81436,"contract":"pkg/contracts/src/CVStrategy/facets/CVPowerFacet.sol:CVPowerFacet","label":"poolAmount","offset":0,"slot":"105","type":"t_uint256"},{"astId":81439,"contract":"pkg/contracts/src/CVStrategy/facets/CVPowerFacet.sol:CVPowerFacet","label":"collateralVaultTemplate","offset":0,"slot":"106","type":"t_address"},{"astId":81442,"contract":"pkg/contracts/src/CVStrategy/facets/CVPowerFacet.sol:CVPowerFacet","label":"surpressStateMutabilityWarning","offset":0,"slot":"107","type":"t_uint256"},{"astId":81445,"contract":"pkg/contracts/src/CVStrategy/facets/CVPowerFacet.sol:CVPowerFacet","label":"cloneNonce","offset":0,"slot":"108","type":"t_uint256"},{"astId":81448,"contract":"pkg/contracts/src/CVStrategy/facets/CVPowerFacet.sol:CVPowerFacet","label":"disputeCount","offset":0,"slot":"109","type":"t_uint64"},{"astId":81451,"contract":"pkg/contracts/src/CVStrategy/facets/CVPowerFacet.sol:CVPowerFacet","label":"proposalCounter","offset":0,"slot":"110","type":"t_uint256"},{"astId":81454,"contract":"pkg/contracts/src/CVStrategy/facets/CVPowerFacet.sol:CVPowerFacet","label":"currentArbitrableConfigVersion","offset":0,"slot":"111","type":"t_uint256"},{"astId":81457,"contract":"pkg/contracts/src/CVStrategy/facets/CVPowerFacet.sol:CVPowerFacet","label":"totalStaked","offset":0,"slot":"112","type":"t_uint256"},{"astId":81460,"contract":"pkg/contracts/src/CVStrategy/facets/CVPowerFacet.sol:CVPowerFacet","label":"totalPointsActivated","offset":0,"slot":"113","type":"t_uint256"},{"astId":81464,"contract":"pkg/contracts/src/CVStrategy/facets/CVPowerFacet.sol:CVPowerFacet","label":"cvParams","offset":0,"slot":"114","type":"t_struct(CVParams)84003_storage"},{"astId":81468,"contract":"pkg/contracts/src/CVStrategy/facets/CVPowerFacet.sol:CVPowerFacet","label":"proposalType","offset":0,"slot":"118","type":"t_enum(ProposalType)83906"},{"astId":81472,"contract":"pkg/contracts/src/CVStrategy/facets/CVPowerFacet.sol:CVPowerFacet","label":"pointSystem","offset":1,"slot":"118","type":"t_enum(PointSystem)83911"},{"astId":81476,"contract":"pkg/contracts/src/CVStrategy/facets/CVPowerFacet.sol:CVPowerFacet","label":"pointConfig","offset":0,"slot":"119","type":"t_struct(PointSystemConfig)83980_storage"},{"astId":81480,"contract":"pkg/contracts/src/CVStrategy/facets/CVPowerFacet.sol:CVPowerFacet","label":"registryCommunity","offset":0,"slot":"120","type":"t_contract(RegistryCommunityV0_0)90182"},{"astId":81484,"contract":"pkg/contracts/src/CVStrategy/facets/CVPowerFacet.sol:CVPowerFacet","label":"collateralVault","offset":0,"slot":"121","type":"t_contract(ICollateralVault)93434"},{"astId":81488,"contract":"pkg/contracts/src/CVStrategy/facets/CVPowerFacet.sol:CVPowerFacet","label":"sybilScorer","offset":0,"slot":"122","type":"t_contract(ISybilScorer)88204"},{"astId":81494,"contract":"pkg/contracts/src/CVStrategy/facets/CVPowerFacet.sol:CVPowerFacet","label":"proposals","offset":0,"slot":"123","type":"t_mapping(t_uint256,t_struct(Proposal)83972_storage)"},{"astId":81499,"contract":"pkg/contracts/src/CVStrategy/facets/CVPowerFacet.sol:CVPowerFacet","label":"totalVoterStakePct","offset":0,"slot":"124","type":"t_mapping(t_address,t_uint256)"},{"astId":81505,"contract":"pkg/contracts/src/CVStrategy/facets/CVPowerFacet.sol:CVPowerFacet","label":"voterStakedProposals","offset":0,"slot":"125","type":"t_mapping(t_address,t_array(t_uint256)dyn_storage)"},{"astId":81510,"contract":"pkg/contracts/src/CVStrategy/facets/CVPowerFacet.sol:CVPowerFacet","label":"disputeIdToProposalId","offset":0,"slot":"126","type":"t_mapping(t_uint256,t_uint256)"},{"astId":81516,"contract":"pkg/contracts/src/CVStrategy/facets/CVPowerFacet.sol:CVPowerFacet","label":"arbitrableConfigs","offset":0,"slot":"127","type":"t_mapping(t_uint256,t_struct(ArbitrableConfig)83994_storage)"},{"astId":81520,"contract":"pkg/contracts/src/CVStrategy/facets/CVPowerFacet.sol:CVPowerFacet","label":"superfluidToken","offset":0,"slot":"128","type":"t_contract(ISuperToken)71759"},{"astId":81525,"contract":"pkg/contracts/src/CVStrategy/facets/CVPowerFacet.sol:CVPowerFacet","label":"__gap","offset":0,"slot":"129","type":"t_array(t_uint256)49_storage"}],"types":{"t_address":{"encoding":"inplace","label":"address","numberOfBytes":"20"},"t_array(t_uint256)49_storage":{"encoding":"inplace","label":"uint256[49]","numberOfBytes":"1568","base":"t_uint256"},"t_array(t_uint256)50_storage":{"encoding":"inplace","label":"uint256[50]","numberOfBytes":"1600","base":"t_uint256"},"t_array(t_uint256)dyn_storage":{"encoding":"dynamic_array","label":"uint256[]","numberOfBytes":"32","base":"t_uint256"},"t_bool":{"encoding":"inplace","label":"bool","numberOfBytes":"1"},"t_bytes32":{"encoding":"inplace","label":"bytes32","numberOfBytes":"32"},"t_contract(IAllo)2629":{"encoding":"inplace","label":"contract IAllo","numberOfBytes":"20"},"t_contract(IArbitrator)93401":{"encoding":"inplace","label":"contract IArbitrator","numberOfBytes":"20"},"t_contract(ICollateralVault)93434":{"encoding":"inplace","label":"contract ICollateralVault","numberOfBytes":"20"},"t_contract(ISuperToken)71759":{"encoding":"inplace","label":"contract ISuperToken","numberOfBytes":"20"},"t_contract(ISybilScorer)88204":{"encoding":"inplace","label":"contract ISybilScorer","numberOfBytes":"20"},"t_contract(RegistryCommunityV0_0)90182":{"encoding":"inplace","label":"contract RegistryCommunityV0_0","numberOfBytes":"20"},"t_enum(PointSystem)83911":{"encoding":"inplace","label":"enum PointSystem","numberOfBytes":"1"},"t_enum(ProposalStatus)83931":{"encoding":"inplace","label":"enum ProposalStatus","numberOfBytes":"1"},"t_enum(ProposalType)83906":{"encoding":"inplace","label":"enum ProposalType","numberOfBytes":"1"},"t_mapping(t_address,t_array(t_uint256)dyn_storage)":{"encoding":"mapping","key":"t_address","label":"mapping(address => uint256[])","numberOfBytes":"32","value":"t_array(t_uint256)dyn_storage"},"t_mapping(t_address,t_uint256)":{"encoding":"mapping","key":"t_address","label":"mapping(address => uint256)","numberOfBytes":"32","value":"t_uint256"},"t_mapping(t_uint256,t_struct(ArbitrableConfig)83994_storage)":{"encoding":"mapping","key":"t_uint256","label":"mapping(uint256 => struct ArbitrableConfig)","numberOfBytes":"32","value":"t_struct(ArbitrableConfig)83994_storage"},"t_mapping(t_uint256,t_struct(Proposal)83972_storage)":{"encoding":"mapping","key":"t_uint256","label":"mapping(uint256 => struct Proposal)","numberOfBytes":"32","value":"t_struct(Proposal)83972_storage"},"t_mapping(t_uint256,t_uint256)":{"encoding":"mapping","key":"t_uint256","label":"mapping(uint256 => uint256)","numberOfBytes":"32","value":"t_uint256"},"t_string_storage":{"encoding":"bytes","label":"string","numberOfBytes":"32"},"t_struct(ArbitrableConfig)83994_storage":{"encoding":"inplace","label":"struct ArbitrableConfig","numberOfBytes":"192","members":[{"astId":83983,"contract":"pkg/contracts/src/CVStrategy/facets/CVPowerFacet.sol:CVPowerFacet","label":"arbitrator","offset":0,"slot":"0","type":"t_contract(IArbitrator)93401"},{"astId":83985,"contract":"pkg/contracts/src/CVStrategy/facets/CVPowerFacet.sol:CVPowerFacet","label":"tribunalSafe","offset":0,"slot":"1","type":"t_address"},{"astId":83987,"contract":"pkg/contracts/src/CVStrategy/facets/CVPowerFacet.sol:CVPowerFacet","label":"submitterCollateralAmount","offset":0,"slot":"2","type":"t_uint256"},{"astId":83989,"contract":"pkg/contracts/src/CVStrategy/facets/CVPowerFacet.sol:CVPowerFacet","label":"challengerCollateralAmount","offset":0,"slot":"3","type":"t_uint256"},{"astId":83991,"contract":"pkg/contracts/src/CVStrategy/facets/CVPowerFacet.sol:CVPowerFacet","label":"defaultRuling","offset":0,"slot":"4","type":"t_uint256"},{"astId":83993,"contract":"pkg/contracts/src/CVStrategy/facets/CVPowerFacet.sol:CVPowerFacet","label":"defaultRulingTimeout","offset":0,"slot":"5","type":"t_uint256"}]},"t_struct(CVParams)84003_storage":{"encoding":"inplace","label":"struct CVParams","numberOfBytes":"128","members":[{"astId":83996,"contract":"pkg/contracts/src/CVStrategy/facets/CVPowerFacet.sol:CVPowerFacet","label":"maxRatio","offset":0,"slot":"0","type":"t_uint256"},{"astId":83998,"contract":"pkg/contracts/src/CVStrategy/facets/CVPowerFacet.sol:CVPowerFacet","label":"weight","offset":0,"slot":"1","type":"t_uint256"},{"astId":84000,"contract":"pkg/contracts/src/CVStrategy/facets/CVPowerFacet.sol:CVPowerFacet","label":"decay","offset":0,"slot":"2","type":"t_uint256"},{"astId":84002,"contract":"pkg/contracts/src/CVStrategy/facets/CVPowerFacet.sol:CVPowerFacet","label":"minThresholdPoints","offset":0,"slot":"3","type":"t_uint256"}]},"t_struct(Metadata)3080_storage":{"encoding":"inplace","label":"struct Metadata","numberOfBytes":"64","members":[{"astId":3076,"contract":"pkg/contracts/src/CVStrategy/facets/CVPowerFacet.sol:CVPowerFacet","label":"protocol","offset":0,"slot":"0","type":"t_uint256"},{"astId":3079,"contract":"pkg/contracts/src/CVStrategy/facets/CVPowerFacet.sol:CVPowerFacet","label":"pointer","offset":0,"slot":"1","type":"t_string_storage"}]},"t_struct(PointSystemConfig)83980_storage":{"encoding":"inplace","label":"struct PointSystemConfig","numberOfBytes":"32","members":[{"astId":83979,"contract":"pkg/contracts/src/CVStrategy/facets/CVPowerFacet.sol:CVPowerFacet","label":"maxAmount","offset":0,"slot":"0","type":"t_uint256"}]},"t_struct(Proposal)83972_storage":{"encoding":"inplace","label":"struct Proposal","numberOfBytes":"544","members":[{"astId":83940,"contract":"pkg/contracts/src/CVStrategy/facets/CVPowerFacet.sol:CVPowerFacet","label":"proposalId","offset":0,"slot":"0","type":"t_uint256"},{"astId":83942,"contract":"pkg/contracts/src/CVStrategy/facets/CVPowerFacet.sol:CVPowerFacet","label":"requestedAmount","offset":0,"slot":"1","type":"t_uint256"},{"astId":83944,"contract":"pkg/contracts/src/CVStrategy/facets/CVPowerFacet.sol:CVPowerFacet","label":"stakedAmount","offset":0,"slot":"2","type":"t_uint256"},{"astId":83946,"contract":"pkg/contracts/src/CVStrategy/facets/CVPowerFacet.sol:CVPowerFacet","label":"convictionLast","offset":0,"slot":"3","type":"t_uint256"},{"astId":83948,"contract":"pkg/contracts/src/CVStrategy/facets/CVPowerFacet.sol:CVPowerFacet","label":"beneficiary","offset":0,"slot":"4","type":"t_address"},{"astId":83950,"contract":"pkg/contracts/src/CVStrategy/facets/CVPowerFacet.sol:CVPowerFacet","label":"submitter","offset":0,"slot":"5","type":"t_address"},{"astId":83952,"contract":"pkg/contracts/src/CVStrategy/facets/CVPowerFacet.sol:CVPowerFacet","label":"requestedToken","offset":0,"slot":"6","type":"t_address"},{"astId":83954,"contract":"pkg/contracts/src/CVStrategy/facets/CVPowerFacet.sol:CVPowerFacet","label":"blockLast","offset":0,"slot":"7","type":"t_uint256"},{"astId":83957,"contract":"pkg/contracts/src/CVStrategy/facets/CVPowerFacet.sol:CVPowerFacet","label":"proposalStatus","offset":0,"slot":"8","type":"t_enum(ProposalStatus)83931"},{"astId":83961,"contract":"pkg/contracts/src/CVStrategy/facets/CVPowerFacet.sol:CVPowerFacet","label":"voterStakedPoints","offset":0,"slot":"9","type":"t_mapping(t_address,t_uint256)"},{"astId":83964,"contract":"pkg/contracts/src/CVStrategy/facets/CVPowerFacet.sol:CVPowerFacet","label":"metadata","offset":0,"slot":"10","type":"t_struct(Metadata)3080_storage"},{"astId":83967,"contract":"pkg/contracts/src/CVStrategy/facets/CVPowerFacet.sol:CVPowerFacet","label":"disputeInfo","offset":0,"slot":"12","type":"t_struct(ProposalDisputeInfo)83938_storage"},{"astId":83969,"contract":"pkg/contracts/src/CVStrategy/facets/CVPowerFacet.sol:CVPowerFacet","label":"lastDisputeCompletion","offset":0,"slot":"15","type":"t_uint256"},{"astId":83971,"contract":"pkg/contracts/src/CVStrategy/facets/CVPowerFacet.sol:CVPowerFacet","label":"arbitrableConfigVersion","offset":0,"slot":"16","type":"t_uint256"}]},"t_struct(ProposalDisputeInfo)83938_storage":{"encoding":"inplace","label":"struct ProposalDisputeInfo","numberOfBytes":"96","members":[{"astId":83933,"contract":"pkg/contracts/src/CVStrategy/facets/CVPowerFacet.sol:CVPowerFacet","label":"disputeId","offset":0,"slot":"0","type":"t_uint256"},{"astId":83935,"contract":"pkg/contracts/src/CVStrategy/facets/CVPowerFacet.sol:CVPowerFacet","label":"disputeTimestamp","offset":0,"slot":"1","type":"t_uint256"},{"astId":83937,"contract":"pkg/contracts/src/CVStrategy/facets/CVPowerFacet.sol:CVPowerFacet","label":"challenger","offset":0,"slot":"2","type":"t_address"}]},"t_uint256":{"encoding":"inplace","label":"uint256","numberOfBytes":"32"},"t_uint64":{"encoding":"inplace","label":"uint64","numberOfBytes":"8"},"t_uint8":{"encoding":"inplace","label":"uint8","numberOfBytes":"1"}}},"id":147}