{"abi":[{"type":"constructor","inputs":[{"name":"_allo","type":"address","internalType":"address"},{"name":"_name","type":"string","internalType":"string"}],"stateMutability":"nonpayable"},{"type":"function","name":"allocate","inputs":[{"name":"","type":"bytes","internalType":"bytes"},{"name":"","type":"address","internalType":"address"}],"outputs":[],"stateMutability":"payable"},{"type":"function","name":"distribute","inputs":[{"name":"","type":"address[]","internalType":"address[]"},{"name":"","type":"bytes","internalType":"bytes"},{"name":"","type":"address","internalType":"address"}],"outputs":[],"stateMutability":"nonpayable"},{"type":"function","name":"getAllo","inputs":[],"outputs":[{"name":"","type":"address","internalType":"contract IAllo"}],"stateMutability":"view"},{"type":"function","name":"getPayouts","inputs":[{"name":"_recipientIds","type":"address[]","internalType":"address[]"},{"name":"","type":"bytes[]","internalType":"bytes[]"}],"outputs":[{"name":"","type":"tuple[]","internalType":"struct IStrategy.PayoutSummary[]","components":[{"name":"recipientAddress","type":"address","internalType":"address"},{"name":"amount","type":"uint256","internalType":"uint256"}]}],"stateMutability":"pure"},{"type":"function","name":"getPoolAmount","inputs":[],"outputs":[{"name":"","type":"uint256","internalType":"uint256"}],"stateMutability":"view"},{"type":"function","name":"getPoolId","inputs":[],"outputs":[{"name":"","type":"uint256","internalType":"uint256"}],"stateMutability":"view"},{"type":"function","name":"getRecipientStatus","inputs":[{"name":"_recipientId","type":"address","internalType":"address"}],"outputs":[{"name":"","type":"uint8","internalType":"enum IStrategy.Status"}],"stateMutability":"view"},{"type":"function","name":"getStrategyId","inputs":[],"outputs":[{"name":"","type":"bytes32","internalType":"bytes32"}],"stateMutability":"view"},{"type":"function","name":"increasePoolAmount","inputs":[{"name":"_amount","type":"uint256","internalType":"uint256"}],"outputs":[],"stateMutability":"nonpayable"},{"type":"function","name":"initialize","inputs":[{"name":"","type":"uint256","internalType":"uint256"},{"name":"","type":"bytes","internalType":"bytes"}],"outputs":[],"stateMutability":"nonpayable"},{"type":"function","name":"isPoolActive","inputs":[],"outputs":[{"name":"","type":"bool","internalType":"bool"}],"stateMutability":"view"},{"type":"function","name":"isValidAllocator","inputs":[{"name":"","type":"address","internalType":"address"}],"outputs":[{"name":"","type":"bool","internalType":"bool"}],"stateMutability":"pure"},{"type":"function","name":"registerRecipient","inputs":[{"name":"","type":"bytes","internalType":"bytes"},{"name":"","type":"address","internalType":"address"}],"outputs":[{"name":"","type":"address","internalType":"address"}],"stateMutability":"payable"},{"type":"function","name":"setAllo","inputs":[{"name":"_allo_","type":"address","internalType":"address"}],"outputs":[],"stateMutability":"nonpayable"},{"type":"function","name":"setPoolId","inputs":[{"name":"_poolId_","type":"uint256","internalType":"uint256"}],"outputs":[],"stateMutability":"nonpayable"},{"type":"event","name":"Allocated","inputs":[{"name":"recipientId","type":"address","indexed":true,"internalType":"address"},{"name":"amount","type":"uint256","indexed":false,"internalType":"uint256"},{"name":"token","type":"address","indexed":false,"internalType":"address"},{"name":"sender","type":"address","indexed":false,"internalType":"address"}],"anonymous":false},{"type":"event","name":"Distributed","inputs":[{"name":"recipientId","type":"address","indexed":true,"internalType":"address"},{"name":"recipientAddress","type":"address","indexed":false,"internalType":"address"},{"name":"amount","type":"uint256","indexed":false,"internalType":"uint256"},{"name":"sender","type":"address","indexed":false,"internalType":"address"}],"anonymous":false},{"type":"event","name":"Initialized","inputs":[{"name":"poolId","type":"uint256","indexed":false,"internalType":"uint256"},{"name":"data","type":"bytes","indexed":false,"internalType":"bytes"}],"anonymous":false},{"type":"event","name":"PoolActive","inputs":[{"name":"active","type":"bool","indexed":false,"internalType":"bool"}],"anonymous":false},{"type":"event","name":"Registered","inputs":[{"name":"recipientId","type":"address","indexed":true,"internalType":"address"},{"name":"data","type":"bytes","indexed":false,"internalType":"bytes"},{"name":"sender","type":"address","indexed":false,"internalType":"address"}],"anonymous":false}],"bytecode":{"object":"0x608060405234801561000f575f80fd5b5060405161094c38038061094c83398101604081905261002e916100b2565b5f80546001600160a01b0319166001600160a01b03841617905560405161005990829060200161017a565b6040516020818303038152906040528051906020012060028190555050506101ac565b634e487b7160e01b5f52604160045260245ffd5b5f5b838110156100aa578181015183820152602001610092565b50505f910152565b5f80604083850312156100c3575f80fd5b82516001600160a01b03811681146100d9575f80fd5b60208401519092506001600160401b03808211156100f5575f80fd5b818501915085601f830112610108575f80fd5b81518181111561011a5761011a61007c565b604051601f8201601f19908116603f011681019083821181831017156101425761014261007c565b8160405282815288602084870101111561015a575f80fd5b61016b836020830160208801610090565b80955050505050509250929050565b602081525f8251806020840152610198816040850160208701610090565b601f01601f19169190910160400192915050565b610793806101b95f395ff3fe6080604052600436106100b7575f3560e01c80630a6f0ee9146100bb57806315cc481e146100dc5780632bbe0cae1461011157806338fff2d0146101265780633c0923301461014457806342fda9c71461017f5780634ab4ba42146101935780634d31d087146101a7578063ac78012c146101d7578063b2b878d0146101f6578063df868ed314610222578063eb11af9314610239578063edd146cc1461027d578063ef2920fc1461029b578063f5b0dfb7146102a9575b5f80fd5b3480156100c6575f80fd5b506100da6100d53660046104f7565b505050565b005b3480156100e7575f80fd5b505f546001600160a01b03165b6040516001600160a01b0390911681526020015b60405180910390f35b6100f461011f366004610565565b5f92915050565b348015610131575f80fd5b506001545b604051908152602001610108565b34801561014f575f80fd5b506100da61015e3660046105af565b5f80546001600160a01b0319166001600160a01b0392909216919091179055565b34801561018a575f80fd5b50600254610136565b34801561019e575f80fd5b50600454610136565b3480156101b2575f80fd5b506101c76101c13660046105af565b50600190565b6040519015158152602001610108565b3480156101e2575f80fd5b506100da6101f13660046105cf565b600155565b348015610201575f80fd5b506102156102103660046105e6565b6102c6565b60405161010891906106b2565b34801561022d575f80fd5b5060035460ff166101c7565b348015610244575f80fd5b506102706102533660046105af565b6001600160a01b03165f9081526005602052604090205460ff1690565b6040516101089190610709565b348015610288575f80fd5b506100da61029736600461072f565b5050565b6100da610297366004610565565b3480156102b4575f80fd5b506100da6102c33660046105cf565b50565b60605f83516001600160401b038111156102e2576102e2610398565b60405190808252806020026020018201604052801561032657816020015b604080518082019091525f80825260208201528152602001906001900390816103005790505b5090505f5b845181101561039057604051806040016040528086838151811061035157610351610772565b60200260200101516001600160a01b031681526020015f81525082828151811061037d5761037d610772565b602090810291909101015260010161032b565b509392505050565b634e487b7160e01b5f52604160045260245ffd5b604051601f8201601f191681016001600160401b03811182821017156103d4576103d4610398565b604052919050565b5f6001600160401b038211156103f4576103f4610398565b5060051b60200190565b80356001600160a01b0381168114610414575f80fd5b919050565b5f82601f830112610428575f80fd5b8135602061043d610438836103dc565b6103ac565b8083825260208201915060208460051b87010193508684111561045e575f80fd5b602086015b8481101561048157610474816103fe565b8352918301918301610463565b509695505050505050565b5f82601f83011261049b575f80fd5b81356001600160401b038111156104b4576104b4610398565b6104c7601f8201601f19166020016103ac565b8181528460208386010111156104db575f80fd5b816020850160208301375f918101602001919091529392505050565b5f805f60608486031215610509575f80fd5b83356001600160401b038082111561051f575f80fd5b61052b87838801610419565b94506020860135915080821115610540575f80fd5b5061054d8682870161048c565b92505061055c604085016103fe565b90509250925092565b5f8060408385031215610576575f80fd5b82356001600160401b0381111561058b575f80fd5b6105978582860161048c565b9250506105a6602084016103fe565b90509250929050565b5f602082840312156105bf575f80fd5b6105c8826103fe565b9392505050565b5f602082840312156105df575f80fd5b5035919050565b5f80604083850312156105f7575f80fd5b82356001600160401b038082111561060d575f80fd5b61061986838701610419565b935060209150818501358181111561062f575f80fd5b8501601f8101871361063f575f80fd5b803561064d610438826103dc565b81815260059190911b8201840190848101908983111561066b575f80fd5b8584015b838110156106a157803586811115610685575f80fd5b6106938c898389010161048c565b84525091860191860161066f565b508096505050505050509250929050565b602080825282518282018190525f919060409081850190868401855b828110156106fc57815180516001600160a01b031685528601518685015292840192908501906001016106ce565b5091979650505050505050565b602081016007831061072957634e487b7160e01b5f52602160045260245ffd5b91905290565b5f8060408385031215610740575f80fd5b8235915060208301356001600160401b0381111561075c575f80fd5b6107688582860161048c565b9150509250929050565b634e487b7160e01b5f52603260045260245ffdfea164736f6c6343000817000a","linkReferences":{}},"methodIdentifiers":{"allocate(bytes,address)":"ef2920fc","distribute(address[],bytes,address)":"0a6f0ee9","getAllo()":"15cc481e","getPayouts(address[],bytes[])":"b2b878d0","getPoolAmount()":"4ab4ba42","getPoolId()":"38fff2d0","getRecipientStatus(address)":"eb11af93","getStrategyId()":"42fda9c7","increasePoolAmount(uint256)":"f5b0dfb7","initialize(uint256,bytes)":"edd146cc","isPoolActive()":"df868ed3","isValidAllocator(address)":"4d31d087","registerRecipient(bytes,address)":"2bbe0cae","setAllo(address)":"3c092330","setPoolId(uint256)":"ac78012c"},"storageLayout":{"storage":[{"astId":5550,"contract":"lib/allo-v2/test/utils/TestStrategy.sol:TestStrategy","label":"allo","offset":0,"slot":"0","type":"t_contract(IAllo)2631"},{"astId":5552,"contract":"lib/allo-v2/test/utils/TestStrategy.sol:TestStrategy","label":"poolId","offset":0,"slot":"1","type":"t_uint256"},{"astId":5554,"contract":"lib/allo-v2/test/utils/TestStrategy.sol:TestStrategy","label":"strategyId","offset":0,"slot":"2","type":"t_bytes32"},{"astId":5556,"contract":"lib/allo-v2/test/utils/TestStrategy.sol:TestStrategy","label":"poolActive","offset":0,"slot":"3","type":"t_bool"},{"astId":5558,"contract":"lib/allo-v2/test/utils/TestStrategy.sol:TestStrategy","label":"poolAmount","offset":0,"slot":"4","type":"t_uint256"},{"astId":5563,"contract":"lib/allo-v2/test/utils/TestStrategy.sol:TestStrategy","label":"recipientStatus","offset":0,"slot":"5","type":"t_mapping(t_address,t_enum(Status)2838)"}],"types":{"t_address":{"encoding":"inplace","label":"address","numberOfBytes":"20"},"t_bool":{"encoding":"inplace","label":"bool","numberOfBytes":"1"},"t_bytes32":{"encoding":"inplace","label":"bytes32","numberOfBytes":"32"},"t_contract(IAllo)2631":{"encoding":"inplace","label":"contract IAllo","numberOfBytes":"20"},"t_enum(Status)2838":{"encoding":"inplace","label":"enum IStrategy.Status","numberOfBytes":"1"},"t_mapping(t_address,t_enum(Status)2838)":{"encoding":"mapping","key":"t_address","label":"mapping(address => enum IStrategy.Status)","numberOfBytes":"32","value":"t_enum(Status)2838"},"t_uint256":{"encoding":"inplace","label":"uint256","numberOfBytes":"32"}}},"id":20}