{"abi":[{"type":"constructor","inputs":[{"name":"gda","type":"address","internalType":"contract GeneralDistributionAgreementV1"}],"stateMutability":"nonpayable"},{"type":"function","name":"GDA","inputs":[],"outputs":[{"name":"","type":"address","internalType":"contract GeneralDistributionAgreementV1"}],"stateMutability":"view"},{"type":"function","name":"admin","inputs":[],"outputs":[{"name":"","type":"address","internalType":"address"}],"stateMutability":"view"},{"type":"function","name":"allowance","inputs":[{"name":"owner","type":"address","internalType":"address"},{"name":"spender","type":"address","internalType":"address"}],"outputs":[{"name":"","type":"uint256","internalType":"uint256"}],"stateMutability":"view"},{"type":"function","name":"approve","inputs":[{"name":"spender","type":"address","internalType":"address"},{"name":"amount","type":"uint256","internalType":"uint256"}],"outputs":[{"name":"","type":"bool","internalType":"bool"}],"stateMutability":"nonpayable"},{"type":"function","name":"balanceOf","inputs":[{"name":"account","type":"address","internalType":"address"}],"outputs":[{"name":"","type":"uint256","internalType":"uint256"}],"stateMutability":"view"},{"type":"function","name":"castrate","inputs":[],"outputs":[],"stateMutability":"nonpayable"},{"type":"function","name":"claimAll","inputs":[{"name":"memberAddr","type":"address","internalType":"address"}],"outputs":[{"name":"","type":"bool","internalType":"bool"}],"stateMutability":"nonpayable"},{"type":"function","name":"claimAll","inputs":[],"outputs":[{"name":"","type":"bool","internalType":"bool"}],"stateMutability":"nonpayable"},{"type":"function","name":"decimals","inputs":[],"outputs":[{"name":"","type":"uint8","internalType":"uint8"}],"stateMutability":"view"},{"type":"function","name":"decreaseAllowance","inputs":[{"name":"spender","type":"address","internalType":"address"},{"name":"subtractedValue","type":"uint256","internalType":"uint256"}],"outputs":[{"name":"","type":"bool","internalType":"bool"}],"stateMutability":"nonpayable"},{"type":"function","name":"decreaseMemberUnits","inputs":[{"name":"memberAddr","type":"address","internalType":"address"},{"name":"subtractedUnits","type":"uint128","internalType":"uint128"}],"outputs":[{"name":"","type":"bool","internalType":"bool"}],"stateMutability":"nonpayable"},{"type":"function","name":"distributionFromAnyAddress","inputs":[],"outputs":[{"name":"","type":"bool","internalType":"bool"}],"stateMutability":"view"},{"type":"function","name":"getClaimable","inputs":[{"name":"memberAddr","type":"address","internalType":"address"},{"name":"time","type":"uint32","internalType":"uint32"}],"outputs":[{"name":"","type":"int256","internalType":"int256"}],"stateMutability":"view"},{"type":"function","name":"getClaimableNow","inputs":[{"name":"memberAddr","type":"address","internalType":"address"}],"outputs":[{"name":"claimableBalance","type":"int256","internalType":"int256"},{"name":"timestamp","type":"uint256","internalType":"uint256"}],"stateMutability":"view"},{"type":"function","name":"getDisconnectedBalance","inputs":[{"name":"time","type":"uint32","internalType":"uint32"}],"outputs":[{"name":"balance","type":"int256","internalType":"int256"}],"stateMutability":"view"},{"type":"function","name":"getMemberFlowRate","inputs":[{"name":"memberAddr","type":"address","internalType":"address"}],"outputs":[{"name":"","type":"int96","internalType":"int96"}],"stateMutability":"view"},{"type":"function","name":"getTotalAmountReceivedByMember","inputs":[{"name":"memberAddr","type":"address","internalType":"address"}],"outputs":[{"name":"","type":"uint256","internalType":"uint256"}],"stateMutability":"view"},{"type":"function","name":"getTotalConnectedFlowRate","inputs":[],"outputs":[{"name":"","type":"int96","internalType":"int96"}],"stateMutability":"view"},{"type":"function","name":"getTotalConnectedUnits","inputs":[],"outputs":[{"name":"","type":"uint128","internalType":"uint128"}],"stateMutability":"view"},{"type":"function","name":"getTotalDisconnectedFlowRate","inputs":[],"outputs":[{"name":"flowRate","type":"int96","internalType":"int96"}],"stateMutability":"view"},{"type":"function","name":"getTotalDisconnectedUnits","inputs":[],"outputs":[{"name":"","type":"uint128","internalType":"uint128"}],"stateMutability":"view"},{"type":"function","name":"getTotalFlowRate","inputs":[],"outputs":[{"name":"","type":"int96","internalType":"int96"}],"stateMutability":"view"},{"type":"function","name":"getTotalUnits","inputs":[],"outputs":[{"name":"","type":"uint128","internalType":"uint128"}],"stateMutability":"view"},{"type":"function","name":"getUnits","inputs":[{"name":"memberAddr","type":"address","internalType":"address"}],"outputs":[{"name":"","type":"uint128","internalType":"uint128"}],"stateMutability":"view"},{"type":"function","name":"getUnsettledValue","inputs":[{"name":"memberAddr","type":"address","internalType":"address"},{"name":"time","type":"uint32","internalType":"uint32"}],"outputs":[{"name":"","type":"int256","internalType":"int256"}],"stateMutability":"view"},{"type":"function","name":"increaseAllowance","inputs":[{"name":"spender","type":"address","internalType":"address"},{"name":"addedValue","type":"uint256","internalType":"uint256"}],"outputs":[{"name":"","type":"bool","internalType":"bool"}],"stateMutability":"nonpayable"},{"type":"function","name":"increaseMemberUnits","inputs":[{"name":"memberAddr","type":"address","internalType":"address"},{"name":"addedUnits","type":"uint128","internalType":"uint128"}],"outputs":[{"name":"","type":"bool","internalType":"bool"}],"stateMutability":"nonpayable"},{"type":"function","name":"initialize","inputs":[{"name":"admin_","type":"address","internalType":"address"},{"name":"superToken_","type":"address","internalType":"contract ISuperfluidToken"},{"name":"transferabilityForUnitsOwner_","type":"bool","internalType":"bool"},{"name":"distributionFromAnyAddress_","type":"bool","internalType":"bool"},{"name":"erc20Name_","type":"string","internalType":"string"},{"name":"erc20Symbol_","type":"string","internalType":"string"},{"name":"erc20Decimals_","type":"uint8","internalType":"uint8"}],"outputs":[],"stateMutability":"nonpayable"},{"type":"function","name":"name","inputs":[],"outputs":[{"name":"","type":"string","internalType":"string"}],"stateMutability":"view"},{"type":"function","name":"operatorConnectMember","inputs":[{"name":"memberAddr","type":"address","internalType":"address"},{"name":"doConnect","type":"bool","internalType":"bool"},{"name":"time","type":"uint32","internalType":"uint32"}],"outputs":[{"name":"","type":"bool","internalType":"bool"}],"stateMutability":"nonpayable"},{"type":"function","name":"operatorSetIndex","inputs":[{"name":"index","type":"tuple","internalType":"struct PDPoolIndex","components":[{"name":"total_units","type":"int128","internalType":"Unit"},{"name":"_wrapped_particle","type":"tuple","internalType":"struct BasicParticle","components":[{"name":"_settled_at","type":"uint32","internalType":"Time"},{"name":"_flow_rate","type":"int128","internalType":"FlowRate"},{"name":"_settled_value","type":"int256","internalType":"Value"}]}]}],"outputs":[{"name":"","type":"bool","internalType":"bool"}],"stateMutability":"nonpayable"},{"type":"function","name":"poolOperatorGetIndex","inputs":[],"outputs":[{"name":"","type":"tuple","internalType":"struct SuperfluidPool.PoolIndexData","components":[{"name":"totalUnits","type":"uint128","internalType":"uint128"},{"name":"wrappedSettledAt","type":"uint32","internalType":"uint32"},{"name":"wrappedFlowRate","type":"int96","internalType":"int96"},{"name":"wrappedSettledValue","type":"int256","internalType":"int256"}]}],"stateMutability":"view"},{"type":"function","name":"proxiableUUID","inputs":[],"outputs":[{"name":"","type":"bytes32","internalType":"bytes32"}],"stateMutability":"pure"},{"type":"function","name":"superToken","inputs":[],"outputs":[{"name":"","type":"address","internalType":"contract ISuperfluidToken"}],"stateMutability":"view"},{"type":"function","name":"symbol","inputs":[],"outputs":[{"name":"","type":"string","internalType":"string"}],"stateMutability":"view"},{"type":"function","name":"totalSupply","inputs":[],"outputs":[{"name":"","type":"uint256","internalType":"uint256"}],"stateMutability":"view"},{"type":"function","name":"transfer","inputs":[{"name":"to","type":"address","internalType":"address"},{"name":"amount","type":"uint256","internalType":"uint256"}],"outputs":[{"name":"","type":"bool","internalType":"bool"}],"stateMutability":"nonpayable"},{"type":"function","name":"transferFrom","inputs":[{"name":"from","type":"address","internalType":"address"},{"name":"to","type":"address","internalType":"address"},{"name":"amount","type":"uint256","internalType":"uint256"}],"outputs":[{"name":"","type":"bool","internalType":"bool"}],"stateMutability":"nonpayable"},{"type":"function","name":"transferabilityForUnitsOwner","inputs":[],"outputs":[{"name":"","type":"bool","internalType":"bool"}],"stateMutability":"view"},{"type":"function","name":"updateMemberUnits","inputs":[{"name":"memberAddr","type":"address","internalType":"address"},{"name":"newUnits","type":"uint128","internalType":"uint128"}],"outputs":[{"name":"","type":"bool","internalType":"bool"}],"stateMutability":"nonpayable"},{"type":"event","name":"Approval","inputs":[{"name":"owner","type":"address","indexed":true,"internalType":"address"},{"name":"spender","type":"address","indexed":true,"internalType":"address"},{"name":"value","type":"uint256","indexed":false,"internalType":"uint256"}],"anonymous":false},{"type":"event","name":"DistributionClaimed","inputs":[{"name":"token","type":"address","indexed":true,"internalType":"contract ISuperfluidToken"},{"name":"member","type":"address","indexed":true,"internalType":"address"},{"name":"claimedAmount","type":"int256","indexed":false,"internalType":"int256"},{"name":"totalClaimed","type":"int256","indexed":false,"internalType":"int256"}],"anonymous":false},{"type":"event","name":"Initialized","inputs":[{"name":"version","type":"uint8","indexed":false,"internalType":"uint8"}],"anonymous":false},{"type":"event","name":"MemberUnitsUpdated","inputs":[{"name":"token","type":"address","indexed":true,"internalType":"contract ISuperfluidToken"},{"name":"member","type":"address","indexed":true,"internalType":"address"},{"name":"oldUnits","type":"uint128","indexed":false,"internalType":"uint128"},{"name":"newUnits","type":"uint128","indexed":false,"internalType":"uint128"}],"anonymous":false},{"type":"event","name":"Transfer","inputs":[{"name":"from","type":"address","indexed":true,"internalType":"address"},{"name":"to","type":"address","indexed":true,"internalType":"address"},{"name":"value","type":"uint256","indexed":false,"internalType":"uint256"}],"anonymous":false},{"type":"error","name":"SUPERFLUID_POOL_INVALID_TIME","inputs":[]},{"type":"error","name":"SUPERFLUID_POOL_NOT_GDA","inputs":[]},{"type":"error","name":"SUPERFLUID_POOL_NOT_POOL_ADMIN_OR_GDA","inputs":[]},{"type":"error","name":"SUPERFLUID_POOL_NO_POOL_MEMBERS","inputs":[]},{"type":"error","name":"SUPERFLUID_POOL_NO_ZERO_ADDRESS","inputs":[]},{"type":"error","name":"SUPERFLUID_POOL_SELF_TRANSFER_NOT_ALLOWED","inputs":[]},{"type":"error","name":"SUPERFLUID_POOL_TRANSFER_UNITS_NOT_ALLOWED","inputs":[]}],"bytecode":{"object":"0x60a060405234801562000010575f80fd5b506040516200330738038062003307833981016040819052620000339162000045565b6001600160a01b031660805262000074565b5f6020828403121562000056575f80fd5b81516001600160a01b03811681146200006d575f80fd5b9392505050565b608051613234620000d35f395f818161052501528181610bb501528181610def01528181610f450152818161115b015281816113fa0152818161145501528181611624015281816117e301528181611ca4015261201301526132345ff3fe608060405234801561000f575f80fd5b50600436106101d6575f3560e01c806306fdde03146101da578063095ea7b3146101f85780630fefbc091461021b57806318160ddd1461023b5780631b1677771461025157806321dd57771461026457806323b872dd1461028c5780632b4116f71461029f578063313ce567146102cf57806334d8f538146102e457806339509351146102f957806342b99bb61461030c578063431b1ecf1461031f5780634a0d91011461033257806352d1902d14610345578063539e8c1c1461036b5780636c0c582a1461039157806370a08231146103a457806377329f35146103b7578063785e734c146103ca5780637d6c008d146103d25780637e80bd5e146103e557806395d89b41146103f257806396753fd9146103fa5780639903ad381461040d578063a457c2d714610415578063a754a70214610428578063a9059cbb14610430578063a94ff34014610443578063b3b3f1cc1461044b578063cb8599f014610453578063d1058e5914610465578063d4f0d6441461046d578063d877ec8714610475578063dd62ed3e14610488578063de7b54d9146104c0578063df9ad9311461050d578063f0ca93a214610520578063f851a44014610547578063fdbd40f41461055a575b5f80fd5b6101e261056b565b6040516101ef9190612888565b60405180910390f35b61020b6102063660046128e8565b61063d565b60405190151581526020016101ef565b61022e610229366004612912565b610653565b6040516101ef919061292d565b61024361065d565b6040519081526020016101ef565b61020b61025f366004612941565b610674565b610277610272366004612912565b61073e565b604080519283526020830191909152016101ef565b61020b61029a366004612983565b610829565b5f546102b7906201000090046001600160a01b031681565b6040516001600160a01b0390911681526020016101ef565b600d5460405160ff90911681526020016101ef565b6102f76102f2366004612a7d565b610898565b005b61020b6103073660046128e8565b6109dd565b61020b61031a366004612941565b610a18565b61024361032d366004612b4e565b610a80565b61020b610340366004612b7a565b610ba9565b7fca2aacef54bd44c838311f7274fc12b435395ce38673a3458ccdb318c9e1115f610243565b61037e610379366004612912565b610c75565b604051600b9190910b81526020016101ef565b61024361039f366004612b8a565b610cd8565b6102436103b2366004612912565b610dbc565b61020b6103c5366004612912565b610dd5565b61037e610f12565b6102436103e0366004612b4e565b610f2d565b600a5461020b9060ff1681565b6101e2610f86565b61020b610408366004612941565b610fc8565b6102f761101a565b61020b6104233660046128e8565b6110ca565b61022e611100565b61020b61043e3660046128e8565b611109565b61037e611115565b61022e61111e565b600a5461020b90610100900460ff1681565b61020b61113c565b61037e611146565b61020b610483366004612ba5565b61114f565b610243610496366004612bed565b6001600160a01b039182165f90815260096020908152604080832093909416825291909152205490565b6104c8611200565b6040516101ef919081516001600160801b0316815260208083015163ffffffff1690820152604080830151600b0b908201526060918201519181019190915260800190565b61024361051b366004612912565b611250565b6102b77f000000000000000000000000000000000000000000000000000000000000000081565b6001546102b7906001600160a01b031681565b6005546001600160801b031661022e565b6060600b805461057a90612c19565b15905061060f57600b805461058e90612c19565b80601f01602080910402602001604051908101604052809291908181526020018280546105ba90612c19565b80156106055780601f106105dc57610100808354040283529160200191610605565b820191905f5260205f20905b8154815290600101906020018083116105e857829003601f168201915b5050505050905090565b6040518060400160405280600f81526020016e14dd5c195c999b1d5a5908141bdbdb608a1b8152505b905090565b5f610649338484611347565b5060015b92915050565b5f61064d826113a7565b5f6106666113ca565b6001600160801b0316905090565b5f61067d6113d9565b5f610688848461143d565b9050826001600160801b0316816001600160801b031610156106e1576001600160a01b0384165f5f805160206132088339815191526106c78487612c5f565b6040516106d4919061292d565b60405180910390a3610734565b826001600160801b0316816001600160801b03161115610734575f6001600160a01b0385165f8051602061320883398151915261071e8685612c5f565b60405161072b919061292d565b60405180910390a35b5060019392505050565b5f805f60029054906101000a90046001600160a01b03166001600160a01b03166320bc44256040518163ffffffff1660e01b8152600401602060405180830381865afa158015610790573d5f803e3d5ffd5b505050506040513d601f19601f820116820180604052508101906107b49190612c86565b6001600160a01b031663bbe4fd506040518163ffffffff1660e01b8152600401602060405180830381865afa1580156107ef573d5f803e3d5ffd5b505050506040513d601f19601f820116820180604052508101906108139190612ca1565b9050610822836103e0836118c1565b9150915091565b6001600160a01b0383165f9081526009602090815260408083203384529091528120545f1981146108825761085e8382612cb8565b6001600160a01b0386165f9081526009602090815260408083203384529091529020555b61088d858585611929565b506001949350505050565b5f54610100900460ff16158080156108b657505f54600160ff909116105b806108d657506108c530611a07565b1580156108d657505f5460ff166001145b6108fb5760405162461bcd60e51b81526004016108f290612ccb565b60405180910390fd5b5f805460ff19166001179055801561091c575f805461ff0019166101001790555b600180546001600160a01b0319166001600160a01b038a8116919091179091555f805462010000600160b01b03191662010000928a1692909202919091179055600a805461ffff191687151561ff0019161761010087151502179055600b6109848582612d65565b50600c6109918482612d65565b50600d805460ff191660ff841617905580156109d3575f805461ff0019169055604051600181525f805160206131e88339815191529060200160405180910390a15b5050505050505050565b335f8181526009602090815260408083206001600160a01b03871684529091528120549091610649918590610a13908690612e24565b611347565b5f610a216113d9565b610a3e8383610a2f866113a7565b610a399190612c5f565b61143d565b505f6001600160a01b0316836001600160a01b03165f8051602061320883398151915284604051610a6f919061292d565b60405180910390a350600192915050565b604080516080810182526002546001600160801b038116825263ffffffff600160801b8204166020830152600160a01b9004600b0b9181019190915260035460608201525f9082908290610ad390611a16565b6001600160a01b0386165f908152600460209081526040808320815160c08101835281546001600160801b038116825263ffffffff600160801b82041694820194909452600160a01b909304600b0b9183019190915260018101546060830152600281015460808301526003015460a082015291925090610b5390611a4e565b9050610b9f610b7f84604051806040016040528086815260200185815250611abc90919063ffffffff16565b6001600160a01b0388165f90815260046020526040902060030154611b23565b9695505050505050565b5f336001600160a01b037f00000000000000000000000000000000000000000000000000000000000000001614610bf357604051637e5f1fcf60e11b815260040160405180910390fd5b610c0a610c0536849003840184612e45565b611b2e565b805160028054602084015160408501516001600160601b0316600160a01b026001600160a01b0363ffffffff909216600160801b026001600160a01b03199093166001600160801b03909516949094179190911716919091179055606001516003555060015b919050565b5f80610c80836113a7565b9050806001600160801b03165f03610c9a57505f92915050565b610ccb610caf826001600160801b0316611ba7565b600254610cc69190600160a01b9004600b0b612efc565b611c10565b9392505050565b50919050565b604080516080810182526002546001600160801b038116825263ffffffff600160801b8204166020830152600160a01b9004600b0b9181019190915260035460608201525f908190610d2990611a16565b6040805160c0810182526005546001600160801b038116825263ffffffff600160801b8204166020830152600160a01b9004600b0b918101919091526006546060820152600754608082015260085460a08201529091505f90610d8b90611a4e565b9050610db484604051806040016040528085815260200184815250611abc90919063ffffffff16565b949350505050565b5f610dc6826113a7565b6001600160801b031692915050565b5f80548190610e15906201000090046001600160a01b03167f00000000000000000000000000000000000000000000000000000000000000003086611c73565b90505f610ef35f60029054906101000a90046001600160a01b03166001600160a01b03166320bc44256040518163ffffffff1660e01b8152600401602060405180830381865afa158015610e6b573d5f803e3d5ffd5b505050506040513d601f19601f82011682018060405250810190610e8f9190612c86565b6001600160a01b031663bbe4fd506040518163ffffffff1660e01b8152600401602060405180830381865afa158015610eca573d5f803e3d5ffd5b505050506040513d601f19601f82011682018060405250810190610eee9190612ca1565b6118c1565b90505f610f008583611c8c565b90508261088d5761088d5f8284611d44565b5f610f1b611edc565b610f23611fb4565b6106389190612f2b565b5f8054610f6b906201000090046001600160a01b03167f00000000000000000000000000000000000000000000000000000000000000003086611c73565b610f7e57610f798383610a80565b610ccb565b5f9392505050565b6060600c8054610f9590612c19565b159050610fa957600c805461058e90612c19565b506040805180820190915260048152631413d3d360e21b602082015290565b5f610fd16113d9565b610fe98383610fdf866113a7565b610a399190612f58565b50826001600160a01b03165f6001600160a01b03165f8051602061320883398151915284604051610a6f919061292d565b5f54610100900460ff161580801561103857505f54600160ff909116105b80611058575061104730611a07565b15801561105857505f5460ff166001145b6110745760405162461bcd60e51b81526004016108f290612ccb565b5f805460ff191660011790558015611095575f805461ff0019166101001790555b80156110c7575f805461ff0019169055604051600181525f805160206131e88339815191529060200160405180910390a15b50565b335f8181526009602090815260408083206001600160a01b03871684529091528120549091610649918590610a13908690612cb8565b5f6106386113ca565b5f610649338484611929565b5f610638611edc565b6005546002545f91610638916001600160801b039182169116612c5f565b5f61063833610dd5565b5f610638611fb4565b5f336001600160a01b037f0000000000000000000000000000000000000000000000000000000000000000161461119957604051637e5f1fcf60e11b815260040160405180910390fd5b5f6111a48584611fcf565b90505f6111c96111c46111b6886113a7565b6001600160801b0316611ba7565b6120bf565b905084156111e9576111e46111dd82612f78565b8386611d44565b6111f4565b6111f4815f86611d44565b50600195945050505050565b6112086127ce565b50604080516080810182526002546001600160801b038116825263ffffffff600160801b8204166020830152600160a01b9004600b0b91810191909152600354606082015290565b6001600160a01b0381165f908152600460209081526040808320815160c08101835281546001600160801b038116825263ffffffff600160801b82041694820194909452600160a01b909304600b0b9183019190915260018101546060830152600281015460808301526003015460a08201526113376112cf426118c1565b6040805160c0810182526002546001600160801b03811692820192835263ffffffff600160801b8204166060830152600160a01b9004600b0b608082015260035460a082015290819061132190611a16565b815260200161132f85611a4e565b9052906120e3565b6020015160200151915050919050565b6001600160a01b038381165f8181526009602090815260408083209487168084529482529182902085905590518481527f8c5be1e5ebec7d5bd14f71427d1e84f3dd0314c0f7b2291e5b200ac8c7c3b925910160405180910390a3505050565b6001600160a01b03165f908152600460205260409020546001600160801b031690565b6002546001600160801b031690565b6001546001600160a01b0316331480159061141d5750336001600160a01b037f00000000000000000000000000000000000000000000000000000000000000001614155b1561143b57604051631c5fbdcb60e01b815260040160405180910390fd5b565b5f805461147a906201000090046001600160a01b03167f000000000000000000000000000000000000000000000000000000000000000085612133565b1561149857604051637087a02d60e11b815260040160405180910390fd5b6001600160a01b0383166114bf57604051632a75b77360e11b815260040160405180910390fd5b5f6115135f60029054906101000a90046001600160a01b03166001600160a01b03166320bc44256040518163ffffffff1660e01b8152600401602060405180830381865afa158015610e6b573d5f803e3d5ffd5b9050805f611520856121e2565b604080516080810182526002546001600160801b038116825263ffffffff600160801b8204166020830152600160a01b9004600b0b9181019190915260035460608201529091505f9061157290611a16565b6001600160a01b0388165f908152600460209081526040808320815160c08101835281546001600160801b038116825263ffffffff600160801b82041694820194909452600160a01b909304600b0b9183019190915260018101546060830152600281015460808301526003015460a08201529192506115f182611a4e565b825160408051808201909152858152602081018390525f5491995091925061164a906201000090046001600160a01b03167f0000000000000000000000000000000000000000000000000000000000000000308d611c73565b611669576116696116628683602001515f01516121f8565b5f88611d44565b6116716127f4565b61167d8282888a612203565b9196509350905061168d85611b2e565b8051600280546020808501516040808701516001600160601b0316600160a01b026001600160a01b0363ffffffff909316600160801b026001600160a01b03199095166001600160801b0390971696909617939093178116949094179092556060909301516003908155918e165f9081526004909152919091200154611713848261230b565b6001600160a01b038d81165f9081526004602081815260408084208651815488850151898501516001600160601b0316600160a01b0263ffffffff918216600160801b026001600160a01b03199093166001600160801b0390941693909317919091178816919091178255606088015160018301556080880151600283015560a0909701516003909101559254835163fa48736d60e01b815262010000909104851692810192909252865185166024830152860151600f0b6044820152908501516064820152918a1660848301527f0000000000000000000000000000000000000000000000000000000000000000169063fa48736d9060a4016020604051808303815f875af1158015611829573d5f803e3d5ffd5b505050506040513d601f19601f8201168201806040525081019061184d9190612f99565b61185957611859612fb4565b50505f54604080516001600160801b03808c1682528c1660208201526001600160a01b038d81169362010000900416917f58b452da1f241e47a4cf34c1a770df2202ae3743eb13aa99f14cc8c7b5c133ba910160405180910390a35050505050505092915050565b5f63ffffffff8211156119255760405162461bcd60e51b815260206004820152602660248201527f53616665436173743a2076616c756520646f65736e27742066697420696e203360448201526532206269747360d01b60648201526084016108f2565b5090565b816001600160a01b0316836001600160a01b03160361195b5760405163676ee05f60e11b815260040160405180910390fd5b600a5460ff1661197e57604051631142f7dd60e11b815260040160405180910390fd5b5f611988846113a7565b90505f611994846113a7565b90506119ad856119a3856123b7565b610a399085612c5f565b506119c5846119bb856123b7565b610a399084612f58565b50836001600160a01b0316856001600160a01b03165f80516020613208833981519152856040516119f891815260200190565b60405180910390a35050505050565b6001600160a01b03163b151590565b611a1e612813565b6040518060400160405280611a35845f01516121e2565b600f0b8152602001611a46846123df565b905292915050565b611a56612834565b6040518060600160405280611a6d845f01516121e2565b600f0b8152602001836080015181526020016040518060600160405280856020015163ffffffff1681526020018560400151600b0b600f0b815260200185606001518152508152509050919050565b5f610ccb836020015160200151611b1e85602001515f0151611b18611af187895f01516020015161241890919063ffffffff16565b611b13611b048a60200151604001515190565b60208b01516040015190612418565b611b23565b90612444565b612453565b5f610ccb8284612fc8565b611b366127ce565b6040518060800160405280611b58611b53855f0151600f0b61245e565b6123b7565b6001600160801b03168152602001611b6f846124af565b63ffffffff168152602001611b8e611b86856124bc565b600f0b611c10565b600b0b8152602093840151604001519301929092525090565b5f6001600160ff1b038211156119255760405162461bcd60e51b815260206004820152602860248201527f53616665436173743a2076616c756520646f65736e27742066697420696e2061604482015267371034b73a191a9b60c11b60648201526084016108f2565b80600b81900b8114610c705760405162461bcd60e51b815260206004820152602660248201527f53616665436173743a2076616c756520646f65736e27742066697420696e203960448201526536206269747360d01b60648201526084016108f2565b5f80611c81868685876124cc565b509695505050505050565b5f8054611cca906201000090046001600160a01b03167f00000000000000000000000000000000000000000000000000000000000000003086611c73565b611cdb57611cd88383611fcf565b90505b5f80546001600160a01b038581168084526004602090815260409485902060030154855187815291820152909362010000909304909116917f9464bfc300bfd9af903ee21453d885a40d7f96864a3eecc0b8b0faf4ae685fa1910160405180910390a392915050565b604080516080810182526002546001600160801b038116825263ffffffff600160801b8204166020830152600160a01b9004600b0b9181019190915260035460608201525f90611d9390611a16565b6040805160c0810182526005546001600160801b038116825263ffffffff600160801b8204166020830152600160a01b9004600b0b918101919091526006546060820152600754608082015260085460a08201529091505f90611df590611a4e565b6040805180820190915283815260208101829052909150611e1681856120e3565b9050611e2981602001515f0151876125f5565b60208083018051600f9390930b90925290510151611e479086611b23565b81602001516020018181525050611e6281602001515f61230b565b805160058054602084015160408501516001600160601b0316600160a01b026001600160a01b0363ffffffff909216600160801b026001600160a01b03199093166001600160801b039095169490941791909117169190911790556060810151600655608081015160075560a00151600855505050505050565b604080516080810182526002546001600160801b038116825263ffffffff600160801b8204166020830152600160a01b9004600b0b9181019190915260035460608201525f908190611f2d90611a16565b6040805160c0810182526005546001600160801b038116825263ffffffff600160801b8204166020830152600160a01b9004600b0b918101919091526006546060820152600754608082015260085460a08201529091505f90611f8f90611a4e565b9050611fad611b86825f0151611fa4856124bc565b600f0b90612600565b9250505090565b6002545f9061063890610caf906001600160801b0316611ba7565b5f611fda8383610a80565b5f54604051634543b74560e01b81526001600160a01b0362010000909204821660048201528582166024820152604481018390529192507f00000000000000000000000000000000000000000000000000000000000000001690634543b745906064016020604051808303815f875af1158015612059573d5f803e3d5ffd5b505050506040513d601f19601f8201168201806040525081019061207d9190612f99565b61208957612089612fb4565b6001600160a01b0383165f90815260046020526040812060030180548392906120b3908490612fe7565b90915550909392505050565b80600f81900b8114610c705760405162461bcd60e51b81526004016108f29061300e565b6120eb612852565b82516120f7908361260b565b8152602083015161210790612639565b60208201526121168383611abc565b602080830180518201929092528251015190516040015292915050565b604051634b61cc3360e01b81526001600160a01b03838116600483015282811660248301525f6044830181905260016064840152918291861690634b61cc33906084015f60405180830381865afa158015612190573d5f803e3d5ffd5b505050506040513d5f823e601f3d908101601f191682016040526121b79190810190613055565b5f815181106121c8576121c86130f5565b602090810291909101015160019081161495945050505050565b5f61064d6111c4836001600160801b0316611ba7565b5f610ccb8284613109565b61220b612813565b612213612834565b61221b6127f4565b8651515f61223761222c83896125f5565b60208b0151516121f8565b90505f6122448a886120e3565b805160209081015101519091505f600f84900b156122755761226b600f83900b868661266a565b9092509050612289565b612283600f83900b86612600565b90505f91505b8251602001516122999083612693565b83516020908101919091528351600f86900b90528b01516122ce906122be90836125f5565b6122c88d8c6126b5565b90612693565b8351602080860151600f8e900b8152865190910151919a5098509096506122f4906126e6565b876040018190525050505050509450945094915050565b6040805160c0810182525f80825260208201819052918101829052606081018290526080810182905260a08101919091526040518060c00160405280612356855f0151600f0b6123b7565b6001600160801b0316815260200184604001515f015163ffffffff16815260200161238b856040015160200151600f0b611c10565b600b0b815260200184604001516040015181526020018460200151815260200183815250905092915050565b5f6001600160801b038211156119255760405162461bcd60e51b81526004016108f29061300e565b6123e76127f4565b50604080516060808201835260208085015163ffffffff16835284840151600b0b9083015292909201519082015290565b5f610ccb61243a61242c84865f0151612715565b6020860151600f0b90612720565b8460400151612453565b5f610ccb600f83900b84612efc565b5f610ccb8284612fe7565b5f808212156119255760405162461bcd60e51b815260206004820181905260248201527f53616665436173743a2076616c7565206d75737420626520706f73697469766560448201526064016108f2565b5f61064d82602001515190565b5f61064d82602001516020015190565b5f6124d5612872565b5f6125438585604080514660208201526080918101829052600a60a0820152693837b7b626b2b6b132b960b11b60c08201526001600160a01b0380851660608301528316918101919091525f9060e00160405160208183030381529060405280519060200120905092915050565b604051636c2d9f2f60e01b81526001600160a01b03888116600483015260248201839052600160448301529192505f91891690636c2d9f2f906064015f60405180830381865afa158015612599573d5f803e3d5ffd5b505050506040513d5f823e601f3d908101601f191682016040526125c09190810190613055565b5f815181106125d1576125d16130f5565b60200260200101515f1c90506125e681612735565b93509350505094509492505050565b5f610ccb8284613136565b5f610ccb8284613163565b612613612813565b61261c8361276a565b602081015190915061262e90836126b5565b602082015292915050565b612641612834565b8151600f0b8152602080830151908201526040820151612660906126e6565b6040820152919050565b5f806126878361267e600f88900b87612600565b600f0b90612791565b91509150935093915050565b61269b6127f4565b6126a4836126e6565b600f9290920b602083015250919050565b6126bd6127f4565b6126c6836126e6565b90506126d28383612418565b604082015263ffffffff9091168152919050565b6126ee6127f4565b815163ffffffff168152602080830151600f0b908201526040918201519181019190915290565b5f610ccb8284613182565b5f610ccb63ffffffff8316600f85900b612efc565b5f61273e612872565b8215801592506127655763ffffffff60a084901c1681526001600160a01b03831660208201525b915091565b612772612813565b8151600f0b81526020820151612787906126e6565b6020820152919050565b5f806127a1600f85900b846127c3565b91506127ba846127b5600f85900b86612600565b6121f8565b90509250929050565b5f610ccb828461319f565b604080516080810182525f80825260208201819052918101829052606081019190915290565b604080516060810182525f808252602082018190529181019190915290565b60405180604001604052805f600f0b815260200161282f6127f4565b905290565b604080516060810182525f808252602082015290810161282f6127f4565b6040518060400160405280612865612813565b815260200161282f612834565b604080518082019091525f808252602082015290565b5f602080835283518060208501525f5b818110156128b457858101830151858201604001528201612898565b505f604082860101526040601f19601f8301168501019250505092915050565b6001600160a01b03811681146110c7575f80fd5b5f80604083850312156128f9575f80fd5b8235612904816128d4565b946020939093013593505050565b5f60208284031215612922575f80fd5b8135610ccb816128d4565b6001600160801b0391909116815260200190565b5f8060408385031215612952575f80fd5b823561295d816128d4565b915060208301356001600160801b0381168114612978575f80fd5b809150509250929050565b5f805f60608486031215612995575f80fd5b83356129a0816128d4565b925060208401356129b0816128d4565b929592945050506040919091013590565b80151581146110c7575f80fd5b634e487b7160e01b5f52604160045260245ffd5b604051601f8201601f191681016001600160401b0381118282101715612a0a57612a0a6129ce565b604052919050565b5f82601f830112612a21575f80fd5b81356001600160401b03811115612a3a57612a3a6129ce565b612a4d601f8201601f19166020016129e2565b818152846020838601011115612a61575f80fd5b816020850160208301375f918101602001919091529392505050565b5f805f805f805f60e0888a031215612a93575f80fd5b8735612a9e816128d4565b96506020880135612aae816128d4565b95506040880135612abe816129c1565b94506060880135612ace816129c1565b935060808801356001600160401b0380821115612ae9575f80fd5b612af58b838c01612a12565b945060a08a0135915080821115612b0a575f80fd5b50612b178a828b01612a12565b92505060c088013560ff81168114612b2d575f80fd5b8091505092959891949750929550565b63ffffffff811681146110c7575f80fd5b5f8060408385031215612b5f575f80fd5b8235612b6a816128d4565b9150602083013561297881612b3d565b5f60808284031215610cd2575f80fd5b5f60208284031215612b9a575f80fd5b8135610ccb81612b3d565b5f805f60608486031215612bb7575f80fd5b8335612bc2816128d4565b92506020840135612bd2816129c1565b91506040840135612be281612b3d565b809150509250925092565b5f8060408385031215612bfe575f80fd5b8235612c09816128d4565b91506020830135612978816128d4565b600181811c90821680612c2d57607f821691505b602082108103610cd257634e487b7160e01b5f52602260045260245ffd5b634e487b7160e01b5f52601160045260245ffd5b6001600160801b03828116828216039080821115612c7f57612c7f612c4b565b5092915050565b5f60208284031215612c96575f80fd5b8151610ccb816128d4565b5f60208284031215612cb1575f80fd5b5051919050565b8181038181111561064d5761064d612c4b565b6020808252602e908201527f496e697469616c697a61626c653a20636f6e747261637420697320616c72656160408201526d191e481a5b9a5d1a585b1a5e995960921b606082015260800190565b601f821115612d6057805f5260205f20601f840160051c81016020851015612d3e5750805b601f840160051c820191505b81811015612d5d575f8155600101612d4a565b50505b505050565b81516001600160401b03811115612d7e57612d7e6129ce565b612d9281612d8c8454612c19565b84612d19565b602080601f831160018114612dc5575f8415612dae5750858301515b5f19600386901b1c1916600185901b178555612e1c565b5f85815260208120601f198616915b82811015612df357888601518255948401946001909101908401612dd4565b5085821015612e1057878501515f19600388901b60f8161c191681555b505060018460011b0185555b505050505050565b8082018082111561064d5761064d612c4b565b80600f0b81146110c7575f80fd5b5f8183036080811215612e56575f80fd5b604080518082016001600160401b038082118383101715612e7957612e796129ce565b908352853590612e8882612e37565b8183526060601f1986011215612e9c575f80fd5b835194506060850191508482108183111715612eba57612eba6129ce565b5082526020850135612ecb81612b3d565b835284820135612eda81612e37565b8060208501525060608501358284015282602082015280935050505092915050565b8082025f8212600160ff1b84141615612f1757612f17612c4b565b818105831482151761064d5761064d612c4b565b600b82810b9082900b0360016001605f1b0319811260016001605f1b038213171561064d5761064d612c4b565b6001600160801b03818116838216019080821115612c7f57612c7f612c4b565b5f600f82900b6001607f1b8101612f9157612f91612c4b565b5f0392915050565b5f60208284031215612fa9575f80fd5b8151610ccb816129c1565b634e487b7160e01b5f52600160045260245ffd5b8181035f831280158383131683831282161715612c7f57612c7f612c4b565b8082018281125f83128015821682158216171561300657613006612c4b565b505092915050565b60208082526027908201527f53616665436173743a2076616c756520646f65736e27742066697420696e20316040820152663238206269747360c81b606082015260800190565b5f6020808385031215613066575f80fd5b82516001600160401b038082111561307c575f80fd5b818501915085601f83011261308f575f80fd5b8151818111156130a1576130a16129ce565b8060051b91506130b28483016129e2565b81815291830184019184810190888411156130cb575f80fd5b938501935b838510156130e9578451825293850193908501906130d0565b98975050505050505050565b634e487b7160e01b5f52603260045260245ffd5b600f82810b9082900b0360016001607f1b0319811260016001607f1b038213171561064d5761064d612c4b565b600f81810b9083900b0160016001607f1b03811360016001607f1b03198212171561064d5761064d612c4b565b5f82600f0b82600f0b0280600f0b9150808214612c7f57612c7f612c4b565b63ffffffff828116828216039080821115612c7f57612c7f612c4b565b5f81600f0b83600f0b806131c157634e487b7160e01b5f52601260045260245ffd5b60016001607f1b031982145f19821416156131de576131de612c4b565b9005939250505056fe7f26b83ff96e1f2b6a682f133852f6798a09c465da95921460cefb3847402498ddf252ad1be2c89b69c2b068fc378daa952ba7f163c4a11628f55a4df523b3efa164736f6c6343000817000a","linkReferences":{}},"methodIdentifiers":{"GDA()":"f0ca93a2","admin()":"f851a440","allowance(address,address)":"dd62ed3e","approve(address,uint256)":"095ea7b3","balanceOf(address)":"70a08231","castrate()":"9903ad38","claimAll()":"d1058e59","claimAll(address)":"77329f35","decimals()":"313ce567","decreaseAllowance(address,uint256)":"a457c2d7","decreaseMemberUnits(address,uint128)":"42b99bb6","distributionFromAnyAddress()":"cb8599f0","getClaimable(address,uint32)":"7d6c008d","getClaimableNow(address)":"21dd5777","getDisconnectedBalance(uint32)":"6c0c582a","getMemberFlowRate(address)":"539e8c1c","getTotalAmountReceivedByMember(address)":"df9ad931","getTotalConnectedFlowRate()":"785e734c","getTotalConnectedUnits()":"b3b3f1cc","getTotalDisconnectedFlowRate()":"a94ff340","getTotalDisconnectedUnits()":"fdbd40f4","getTotalFlowRate()":"d4f0d644","getTotalUnits()":"a754a702","getUnits(address)":"0fefbc09","getUnsettledValue(address,uint32)":"431b1ecf","increaseAllowance(address,uint256)":"39509351","increaseMemberUnits(address,uint128)":"96753fd9","initialize(address,address,bool,bool,string,string,uint8)":"34d8f538","name()":"06fdde03","operatorConnectMember(address,bool,uint32)":"d877ec87","operatorSetIndex((int128,(uint32,int128,int256)))":"4a0d9101","poolOperatorGetIndex()":"de7b54d9","proxiableUUID()":"52d1902d","superToken()":"2b4116f7","symbol()":"95d89b41","totalSupply()":"18160ddd","transfer(address,uint256)":"a9059cbb","transferFrom(address,address,uint256)":"23b872dd","transferabilityForUnitsOwner()":"7e80bd5e","updateMemberUnits(address,uint128)":"1b167777"},"storageLayout":{"storage":[{"astId":16777,"contract":"lib/protocol-monorepo/packages/ethereum-contracts/contracts/agreements/gdav1/SuperfluidPool.sol:SuperfluidPool","label":"_initialized","offset":0,"slot":"0","type":"t_uint8"},{"astId":16780,"contract":"lib/protocol-monorepo/packages/ethereum-contracts/contracts/agreements/gdav1/SuperfluidPool.sol:SuperfluidPool","label":"_initializing","offset":1,"slot":"0","type":"t_bool"},{"astId":32539,"contract":"lib/protocol-monorepo/packages/ethereum-contracts/contracts/agreements/gdav1/SuperfluidPool.sol:SuperfluidPool","label":"superToken","offset":2,"slot":"0","type":"t_contract(ISuperfluidToken)42239"},{"astId":32541,"contract":"lib/protocol-monorepo/packages/ethereum-contracts/contracts/agreements/gdav1/SuperfluidPool.sol:SuperfluidPool","label":"admin","offset":0,"slot":"1","type":"t_address"},{"astId":32544,"contract":"lib/protocol-monorepo/packages/ethereum-contracts/contracts/agreements/gdav1/SuperfluidPool.sol:SuperfluidPool","label":"_index","offset":0,"slot":"2","type":"t_struct(PoolIndexData)32514_storage"},{"astId":32549,"contract":"lib/protocol-monorepo/packages/ethereum-contracts/contracts/agreements/gdav1/SuperfluidPool.sol:SuperfluidPool","label":"_membersData","offset":0,"slot":"4","type":"t_mapping(t_address,t_struct(MemberData)32527_storage)"},{"astId":32553,"contract":"lib/protocol-monorepo/packages/ethereum-contracts/contracts/agreements/gdav1/SuperfluidPool.sol:SuperfluidPool","label":"_disconnectedMembers","offset":0,"slot":"5","type":"t_struct(MemberData)32527_storage"},{"astId":32560,"contract":"lib/protocol-monorepo/packages/ethereum-contracts/contracts/agreements/gdav1/SuperfluidPool.sol:SuperfluidPool","label":"_allowances","offset":0,"slot":"9","type":"t_mapping(t_address,t_mapping(t_address,t_uint256))"},{"astId":32563,"contract":"lib/protocol-monorepo/packages/ethereum-contracts/contracts/agreements/gdav1/SuperfluidPool.sol:SuperfluidPool","label":"transferabilityForUnitsOwner","offset":0,"slot":"10","type":"t_bool"},{"astId":32566,"contract":"lib/protocol-monorepo/packages/ethereum-contracts/contracts/agreements/gdav1/SuperfluidPool.sol:SuperfluidPool","label":"distributionFromAnyAddress","offset":1,"slot":"10","type":"t_bool"},{"astId":32568,"contract":"lib/protocol-monorepo/packages/ethereum-contracts/contracts/agreements/gdav1/SuperfluidPool.sol:SuperfluidPool","label":"_erc20Name","offset":0,"slot":"11","type":"t_string_storage"},{"astId":32570,"contract":"lib/protocol-monorepo/packages/ethereum-contracts/contracts/agreements/gdav1/SuperfluidPool.sol:SuperfluidPool","label":"_erc20Symbol","offset":0,"slot":"12","type":"t_string_storage"},{"astId":32572,"contract":"lib/protocol-monorepo/packages/ethereum-contracts/contracts/agreements/gdav1/SuperfluidPool.sol:SuperfluidPool","label":"_erc20Decimals","offset":0,"slot":"13","type":"t_uint8"}],"types":{"t_address":{"encoding":"inplace","label":"address","numberOfBytes":"20"},"t_bool":{"encoding":"inplace","label":"bool","numberOfBytes":"1"},"t_contract(ISuperfluidToken)42239":{"encoding":"inplace","label":"contract ISuperfluidToken","numberOfBytes":"20"},"t_int256":{"encoding":"inplace","label":"int256","numberOfBytes":"32"},"t_int96":{"encoding":"inplace","label":"int96","numberOfBytes":"12"},"t_mapping(t_address,t_mapping(t_address,t_uint256))":{"encoding":"mapping","key":"t_address","label":"mapping(address => mapping(address => uint256))","numberOfBytes":"32","value":"t_mapping(t_address,t_uint256)"},"t_mapping(t_address,t_struct(MemberData)32527_storage)":{"encoding":"mapping","key":"t_address","label":"mapping(address => struct SuperfluidPool.MemberData)","numberOfBytes":"32","value":"t_struct(MemberData)32527_storage"},"t_mapping(t_address,t_uint256)":{"encoding":"mapping","key":"t_address","label":"mapping(address => uint256)","numberOfBytes":"32","value":"t_uint256"},"t_string_storage":{"encoding":"bytes","label":"string","numberOfBytes":"32"},"t_struct(MemberData)32527_storage":{"encoding":"inplace","label":"struct SuperfluidPool.MemberData","numberOfBytes":"128","members":[{"astId":32516,"contract":"lib/protocol-monorepo/packages/ethereum-contracts/contracts/agreements/gdav1/SuperfluidPool.sol:SuperfluidPool","label":"ownedUnits","offset":0,"slot":"0","type":"t_uint128"},{"astId":32518,"contract":"lib/protocol-monorepo/packages/ethereum-contracts/contracts/agreements/gdav1/SuperfluidPool.sol:SuperfluidPool","label":"syncedSettledAt","offset":16,"slot":"0","type":"t_uint32"},{"astId":32520,"contract":"lib/protocol-monorepo/packages/ethereum-contracts/contracts/agreements/gdav1/SuperfluidPool.sol:SuperfluidPool","label":"syncedFlowRate","offset":20,"slot":"0","type":"t_int96"},{"astId":32522,"contract":"lib/protocol-monorepo/packages/ethereum-contracts/contracts/agreements/gdav1/SuperfluidPool.sol:SuperfluidPool","label":"syncedSettledValue","offset":0,"slot":"1","type":"t_int256"},{"astId":32524,"contract":"lib/protocol-monorepo/packages/ethereum-contracts/contracts/agreements/gdav1/SuperfluidPool.sol:SuperfluidPool","label":"settledValue","offset":0,"slot":"2","type":"t_int256"},{"astId":32526,"contract":"lib/protocol-monorepo/packages/ethereum-contracts/contracts/agreements/gdav1/SuperfluidPool.sol:SuperfluidPool","label":"claimedValue","offset":0,"slot":"3","type":"t_int256"}]},"t_struct(PoolIndexData)32514_storage":{"encoding":"inplace","label":"struct SuperfluidPool.PoolIndexData","numberOfBytes":"64","members":[{"astId":32507,"contract":"lib/protocol-monorepo/packages/ethereum-contracts/contracts/agreements/gdav1/SuperfluidPool.sol:SuperfluidPool","label":"totalUnits","offset":0,"slot":"0","type":"t_uint128"},{"astId":32509,"contract":"lib/protocol-monorepo/packages/ethereum-contracts/contracts/agreements/gdav1/SuperfluidPool.sol:SuperfluidPool","label":"wrappedSettledAt","offset":16,"slot":"0","type":"t_uint32"},{"astId":32511,"contract":"lib/protocol-monorepo/packages/ethereum-contracts/contracts/agreements/gdav1/SuperfluidPool.sol:SuperfluidPool","label":"wrappedFlowRate","offset":20,"slot":"0","type":"t_int96"},{"astId":32513,"contract":"lib/protocol-monorepo/packages/ethereum-contracts/contracts/agreements/gdav1/SuperfluidPool.sol:SuperfluidPool","label":"wrappedSettledValue","offset":0,"slot":"1","type":"t_int256"}]},"t_uint128":{"encoding":"inplace","label":"uint128","numberOfBytes":"16"},"t_uint256":{"encoding":"inplace","label":"uint256","numberOfBytes":"32"},"t_uint32":{"encoding":"inplace","label":"uint32","numberOfBytes":"4"},"t_uint8":{"encoding":"inplace","label":"uint8","numberOfBytes":"1"}}},"id":73}