{"abi":[{"type":"function","name":"NATIVE","inputs":[],"outputs":[{"name":"","type":"address","internalType":"address"}],"stateMutability":"view"}],"bytecode":{"object":"0x6080604052348015600e575f80fd5b50606d8061001b5f395ff3fe6080604052348015600e575f80fd5b50600436106026575f3560e01c8063a0cf0aea14602a575b5f80fd5b604473eeeeeeeeeeeeeeeeeeeeeeeeeeeeeeeeeeeeeeee81565b6040516001600160a01b03909116815260200160405180910390f3fea164736f6c6343000817000a","linkReferences":{}},"methodIdentifiers":{"NATIVE()":"a0cf0aea"},"storageLayout":{"storage":[],"types":{}},"id":6}