{"abi":[{"type":"function","name":"DISPUTE_COOLDOWN_SEC","inputs":[],"outputs":[{"name":"","type":"uint256","internalType":"uint256"}],"stateMutability":"view"},{"type":"function","name":"RULING_OPTIONS","inputs":[],"outputs":[{"name":"","type":"uint256","internalType":"uint256"}],"stateMutability":"view"},{"type":"function","name":"VERSION","inputs":[],"outputs":[{"name":"","type":"string","internalType":"string"}],"stateMutability":"pure"},{"type":"function","name":"arbitrableConfigs","inputs":[{"name":"","type":"uint256","internalType":"uint256"}],"outputs":[{"name":"arbitrator","type":"address","internalType":"contract IArbitrator"},{"name":"tribunalSafe","type":"address","internalType":"address"},{"name":"submitterCollateralAmount","type":"uint256","internalType":"uint256"},{"name":"challengerCollateralAmount","type":"uint256","internalType":"uint256"},{"name":"defaultRuling","type":"uint256","internalType":"uint256"},{"name":"defaultRulingTimeout","type":"uint256","internalType":"uint256"}],"stateMutability":"view"},{"type":"function","name":"cloneNonce","inputs":[],"outputs":[{"name":"","type":"uint256","internalType":"uint256"}],"stateMutability":"view"},{"type":"function","name":"collateralVault","inputs":[],"outputs":[{"name":"","type":"address","internalType":"contract ICollateralVault"}],"stateMutability":"view"},{"type":"function","name":"connectSuperfluidGDA","inputs":[{"name":"gda","type":"address","internalType":"address"}],"outputs":[],"stateMutability":"nonpayable"},{"type":"function","name":"currentArbitrableConfigVersion","inputs":[],"outputs":[{"name":"","type":"uint256","internalType":"uint256"}],"stateMutability":"view"},{"type":"function","name":"cvParams","inputs":[],"outputs":[{"name":"maxRatio","type":"uint256","internalType":"uint256"},{"name":"weight","type":"uint256","internalType":"uint256"},{"name":"decay","type":"uint256","internalType":"uint256"},{"name":"minThresholdPoints","type":"uint256","internalType":"uint256"}],"stateMutability":"view"},{"type":"function","name":"disconnectSuperfluidGDA","inputs":[{"name":"gda","type":"address","internalType":"address"}],"outputs":[],"stateMutability":"nonpayable"},{"type":"function","name":"disputeCount","inputs":[],"outputs":[{"name":"","type":"uint64","internalType":"uint64"}],"stateMutability":"view"},{"type":"function","name":"disputeIdToProposalId","inputs":[{"name":"","type":"uint256","internalType":"uint256"}],"outputs":[{"name":"","type":"uint256","internalType":"uint256"}],"stateMutability":"view"},{"type":"function","name":"pointConfig","inputs":[],"outputs":[{"name":"maxAmount","type":"uint256","internalType":"uint256"}],"stateMutability":"view"},{"type":"function","name":"pointSystem","inputs":[],"outputs":[{"name":"","type":"uint8","internalType":"enum PointSystem"}],"stateMutability":"view"},{"type":"function","name":"proposalCounter","inputs":[],"outputs":[{"name":"","type":"uint256","internalType":"uint256"}],"stateMutability":"view"},{"type":"function","name":"proposalType","inputs":[],"outputs":[{"name":"","type":"uint8","internalType":"enum ProposalType"}],"stateMutability":"view"},{"type":"function","name":"proposals","inputs":[{"name":"","type":"uint256","internalType":"uint256"}],"outputs":[{"name":"proposalId","type":"uint256","internalType":"uint256"},{"name":"requestedAmount","type":"uint256","internalType":"uint256"},{"name":"stakedAmount","type":"uint256","internalType":"uint256"},{"name":"convictionLast","type":"uint256","internalType":"uint256"},{"name":"beneficiary","type":"address","internalType":"address"},{"name":"submitter","type":"address","internalType":"address"},{"name":"requestedToken","type":"address","internalType":"address"},{"name":"blockLast","type":"uint256","internalType":"uint256"},{"name":"proposalStatus","type":"uint8","internalType":"enum ProposalStatus"},{"name":"metadata","type":"tuple","internalType":"struct Metadata","components":[{"name":"protocol","type":"uint256","internalType":"uint256"},{"name":"pointer","type":"string","internalType":"string"}]},{"name":"disputeInfo","type":"tuple","internalType":"struct ProposalDisputeInfo","components":[{"name":"disputeId","type":"uint256","internalType":"uint256"},{"name":"disputeTimestamp","type":"uint256","internalType":"uint256"},{"name":"challenger","type":"address","internalType":"address"}]},{"name":"lastDisputeCompletion","type":"uint256","internalType":"uint256"},{"name":"arbitrableConfigVersion","type":"uint256","internalType":"uint256"},{"name":"creationTimestamp","type":"uint256","internalType":"uint256"}],"stateMutability":"view"},{"type":"function","name":"registryCommunity","inputs":[],"outputs":[{"name":"","type":"address","internalType":"contract RegistryCommunity"}],"stateMutability":"view"},{"type":"function","name":"setPoolParams","inputs":[{"name":"_arbitrableConfig","type":"tuple","internalType":"struct ArbitrableConfig","components":[{"name":"arbitrator","type":"address","internalType":"contract IArbitrator"},{"name":"tribunalSafe","type":"address","internalType":"address"},{"name":"submitterCollateralAmount","type":"uint256","internalType":"uint256"},{"name":"challengerCollateralAmount","type":"uint256","internalType":"uint256"},{"name":"defaultRuling","type":"uint256","internalType":"uint256"},{"name":"defaultRulingTimeout","type":"uint256","internalType":"uint256"}]},{"name":"_cvParams","type":"tuple","internalType":"struct CVParams","components":[{"name":"maxRatio","type":"uint256","internalType":"uint256"},{"name":"weight","type":"uint256","internalType":"uint256"},{"name":"decay","type":"uint256","internalType":"uint256"},{"name":"minThresholdPoints","type":"uint256","internalType":"uint256"}]},{"name":"_sybilScoreThreshold","type":"uint256","internalType":"uint256"},{"name":"_membersToAdd","type":"address[]","internalType":"address[]"},{"name":"_membersToRemove","type":"address[]","internalType":"address[]"},{"name":"_superfluidToken","type":"address","internalType":"address"}],"outputs":[],"stateMutability":"nonpayable"},{"type":"function","name":"streamingRatePerSecond","inputs":[],"outputs":[{"name":"","type":"uint256","internalType":"uint256"}],"stateMutability":"view"},{"type":"function","name":"superfluidGDA","inputs":[],"outputs":[{"name":"","type":"address","internalType":"contract ISuperfluidPool"}],"stateMutability":"view"},{"type":"function","name":"superfluidToken","inputs":[],"outputs":[{"name":"","type":"address","internalType":"contract ISuperToken"}],"stateMutability":"view"},{"type":"function","name":"sybilScorer","inputs":[],"outputs":[{"name":"","type":"address","internalType":"contract ISybilScorer"}],"stateMutability":"view"},{"type":"function","name":"totalPointsActivated","inputs":[],"outputs":[{"name":"","type":"uint256","internalType":"uint256"}],"stateMutability":"view"},{"type":"function","name":"totalStaked","inputs":[],"outputs":[{"name":"","type":"uint256","internalType":"uint256"}],"stateMutability":"view"},{"type":"function","name":"totalVoterStakePct","inputs":[{"name":"","type":"address","internalType":"address"}],"outputs":[{"name":"","type":"uint256","internalType":"uint256"}],"stateMutability":"view"},{"type":"function","name":"voterStakedProposals","inputs":[{"name":"","type":"address","internalType":"address"},{"name":"","type":"uint256","internalType":"uint256"}],"outputs":[{"name":"","type":"uint256","internalType":"uint256"}],"stateMutability":"view"},{"type":"event","name":"AllowlistMembersAdded","inputs":[{"name":"poolId","type":"uint256","indexed":false,"internalType":"uint256"},{"name":"members","type":"address[]","indexed":false,"internalType":"address[]"}],"anonymous":false},{"type":"event","name":"AllowlistMembersRemoved","inputs":[{"name":"poolId","type":"uint256","indexed":false,"internalType":"uint256"},{"name":"members","type":"address[]","indexed":false,"internalType":"address[]"}],"anonymous":false},{"type":"event","name":"ArbitrableConfigUpdated","inputs":[{"name":"currentArbitrableConfigVersion","type":"uint256","indexed":false,"internalType":"uint256"},{"name":"arbitrator","type":"address","indexed":false,"internalType":"contract IArbitrator"},{"name":"tribunalSafe","type":"address","indexed":false,"internalType":"address"},{"name":"submitterCollateralAmount","type":"uint256","indexed":false,"internalType":"uint256"},{"name":"challengerCollateralAmount","type":"uint256","indexed":false,"internalType":"uint256"},{"name":"defaultRuling","type":"uint256","indexed":false,"internalType":"uint256"},{"name":"defaultRulingTimeout","type":"uint256","indexed":false,"internalType":"uint256"}],"anonymous":false},{"type":"event","name":"CVParamsUpdated","inputs":[{"name":"cvParams","type":"tuple","indexed":false,"internalType":"struct CVParams","components":[{"name":"maxRatio","type":"uint256","internalType":"uint256"},{"name":"weight","type":"uint256","internalType":"uint256"},{"name":"decay","type":"uint256","internalType":"uint256"},{"name":"minThresholdPoints","type":"uint256","internalType":"uint256"}]}],"anonymous":false},{"type":"event","name":"PointsDeactivated","inputs":[{"name":"member","type":"address","indexed":false,"internalType":"address"}],"anonymous":false},{"type":"event","name":"SuperfluidGDAConnected","inputs":[{"name":"gda","type":"address","indexed":true,"internalType":"address"},{"name":"by","type":"address","indexed":true,"internalType":"address"}],"anonymous":false},{"type":"event","name":"SuperfluidGDADisconnected","inputs":[{"name":"gda","type":"address","indexed":true,"internalType":"address"},{"name":"by","type":"address","indexed":true,"internalType":"address"}],"anonymous":false},{"type":"event","name":"SuperfluidTokenUpdated","inputs":[{"name":"superfluidToken","type":"address","indexed":false,"internalType":"address"}],"anonymous":false},{"type":"error","name":"OnlyActiveProposal","inputs":[{"name":"proposalId","type":"uint256","internalType":"uint256"}]},{"type":"error","name":"OnlyAllo","inputs":[{"name":"sender","type":"address","internalType":"address"},{"name":"allo","type":"address","internalType":"address"}]},{"type":"error","name":"OnlyCouncilSafe","inputs":[{"name":"sender","type":"address","internalType":"address"},{"name":"councilSafe","type":"address","internalType":"address"},{"name":"owner","type":"address","internalType":"address"}]},{"type":"error","name":"OnlyCouncilSafeOrMember","inputs":[{"name":"sender","type":"address","internalType":"address"},{"name":"councilSafe","type":"address","internalType":"address"}]},{"type":"error","name":"OnlyInitialized","inputs":[{"name":"poolId","type":"uint256","internalType":"uint256"}]},{"type":"error","name":"OnlyMember","inputs":[{"name":"wallet","type":"address","internalType":"address"},{"name":"community","type":"address","internalType":"address"}]},{"type":"error","name":"OnlyRegistryCommunity","inputs":[{"name":"sender","type":"address","internalType":"address"},{"name":"registry","type":"address","internalType":"address"}]},{"type":"error","name":"OnlySubmitter","inputs":[{"name":"proposalId","type":"uint256","internalType":"uint256"},{"name":"submitter","type":"address","internalType":"address"},{"name":"sender","type":"address","internalType":"address"}]},{"type":"error","name":"ProposalDoesNotExist","inputs":[{"name":"proposalID","type":"uint256","internalType":"uint256"}]},{"type":"error","name":"StrategyPaused","inputs":[{"name":"controller","type":"address","internalType":"address"}]},{"type":"error","name":"StrategySelectorPaused","inputs":[{"name":"selector","type":"bytes4","internalType":"bytes4"},{"name":"controller","type":"address","internalType":"address"}]},{"type":"error","name":"SuperfluidGDAConnectFailed","inputs":[{"name":"gda","type":"address","internalType":"address"},{"name":"superToken","type":"address","internalType":"address"},{"name":"caller","type":"address","internalType":"address"}]},{"type":"error","name":"SuperfluidGDADisconnectFailed","inputs":[{"name":"gda","type":"address","internalType":"address"},{"name":"superToken","type":"address","internalType":"address"},{"name":"caller","type":"address","internalType":"address"}]}],"bytecode":{"object":"0x6080604052348015600e575f80fd5b5061229d8061001c5f395ff3fe608060405234801561000f575f80fd5b5060043610610147575f3560e01c8063013cf08b1461014b57806305caa7f3146101815780630bece79c146101a15780630c0512e9146101b4578063125fd1d9146101cb5780631b36f56f146101d45780632506b870146101e7578063255ffb381461021d5780632dbd6fdd1461023c578063339604591461025b578063351d9f961461026457806341bb76051461027e5780635db64b99146103055780636003e41414610324578063626c47e814610337578063817b1cd21461033f578063868c57b814610348578063924e67041461035b57806394573cbb14610370578063a28889e114610379578063a47ff7e5146103a4578063aba9ffee146103ae578063b6c61f31146103b7578063c69271ec146103ca578063d5b7cc54146103dd578063f5be3f7c146103f0578063ffa1ad74146103f9575b5f80fd5b61015e610159366004611a36565b61041d565b6040516101789e9d9c9b9a99989796959493929190611ac9565b60405180910390f35b608054610194906001600160a01b031681565b6040516101789190611b7c565b607954610194906001600160a01b031681565b6101bd606e5481565b604051908152602001610178565b6101bd606f5481565b608154610194906001600160a01b031681565b6072546073546074546075546101fd9392919084565b604080519485526020850193909352918301526060820152608001610178565b6101bd61022b366004611a36565b607e6020525f908152604090205481565b60765461024e90610100900460ff1681565b6040516101789190611b90565b6101bd606c5481565b6076546102719060ff1681565b6040516101789190611baa565b6102cd61028c366004611a36565b607f6020525f90815260409020805460018201546002830154600384015460048501546005909501546001600160a01b039485169593909416939192909186565b604080516001600160a01b039788168152969095166020870152938501929092526060840152608083015260a082015260c001610178565b6101bd610313366004611be5565b607c6020525f908152604090205481565b607854610194906001600160a01b031681565b6101bd600381565b6101bd60705481565b6101bd610356366004611c00565b61056d565b61036e610369366004611be5565b610598565b005b6101bd60825481565b606d5461038c906001600160401b031681565b6040516001600160401b039091168152602001610178565b6077546101bd9081565b6101bd60715481565b607a54610194906001600160a01b031681565b61036e6103d8366004611be5565b6106bd565b61036e6103eb366004611da0565b6107d9565b6101bd611c2081565b60408051808201825260028152613b1960f11b602082015290516101789190611e97565b607b60209081525f9182526040918290208054600182015460028301546003840154600485015460058601546006870154600788015460088901548b51808d01909c52600a8a0180548d52600b8b0180549a9d999c989b979a6001600160a01b039788169a968816999790951697939660ff90931695939491928401916104a390611ea9565b80601f01602080910402602001604051908101604052809291908181526020018280546104cf90611ea9565b801561051a5780601f106104f15761010080835404028352916020019161051a565b820191905f5260205f20905b8154815290600101906020018083116104fd57829003601f168201915b50505091909252505060408051606081018252600c8501548152600d8501546020820152600e8501546001600160a01b031691810191909152600f8401546010850154601190950154939491939092508e565b607d602052815f5260405f208181548110610586575f80fd5b905f5260205f20015f91509150505481565b6105a06108c6565b6080545f906001600160a01b03166106315760655460685460405163068bcd8d60e01b81526001600160a01b039092169163068bcd8d916105e79160040190815260200190565b5f60405180830381865afa158015610601573d5f803e3d5ffd5b505050506040513d5f823e601f3d908101601f191682016040526106289190810190611f35565b6040015161063e565b6080546001600160a01b03165b90505f6106546001600160a01b038316846109ee565b90508061068357828233604051639bd2355f60e01b815260040161067a9392919061202a565b60405180910390fd5b60405133906001600160a01b038516907f1f9d364ce9d858d45443edba44a22a2f561d96a90f9772e2457056f4ed98ed0f905f90a3505050565b6106c56108c6565b6080545f906001600160a01b03166107565760655460685460405163068bcd8d60e01b81526001600160a01b039092169163068bcd8d9161070c9160040190815260200190565b5f60405180830381865afa158015610726573d5f803e3d5ffd5b505050506040513d5f823e601f3d908101601f1916820160405261074d9190810190611f35565b60400151610763565b6080546001600160a01b03165b90505f6107796001600160a01b03831684610a13565b90508061079f57828233604051633746bbff60e01b815260040161067a9392919061202a565b60405133906001600160a01b038516907f5ae956f5060a976a6df3810c70d24e4d7b6987e1bfc9b1be2c9e43adfea8f301905f90a3505050565b6107e1610a2f565b608080546001600160a01b0319166001600160a01b0383161790556040517fd386b229b28c71d6819c5b8cd43d22f3b28607ab0ac101e82c783e1addb5e01f9061082c908390611b7c565b60405180910390a161084086868585610b71565b607a546001600160a01b03161580159061085957505f84115b156108be57607a5460405163642ce76b60e01b8152306004820152602481018690526001600160a01b039091169063642ce76b906044015f604051808303815f87803b1580156108a7575f80fd5b505af11580156108b9573d5f803e3d5ffd5b505050505b505050505050565b60785f9054906101000a90046001600160a01b03166001600160a01b0316636c53db9a6040518163ffffffff1660e01b8152600401602060405180830381865afa158015610916573d5f803e3d5ffd5b505050506040513d601f19601f8201168201806040525081019061093a919061204d565b6001600160a01b0316336001600160a01b031614158015610961575061095f33610efa565b155b156109ec5760785460408051633629edcd60e11b8152905133926001600160a01b031691636c53db9a9160048083019260209291908290030181865afa1580156109ad573d5f803e3d5ffd5b505050506040513d601f19601f820116820180604052508101906109d1919061204d565b604051637d19bac760e11b815260040161067a929190612068565b565b604080515f80825260208201909252610a0a908490849061109f565b90505b92915050565b604080515f80825260208201909252610a0a90849084906111bd565b60785f9054906101000a90046001600160a01b03166001600160a01b0316636c53db9a6040518163ffffffff1660e01b8152600401602060405180830381865afa158015610a7f573d5f803e3d5ffd5b505050506040513d601f19601f82011682018060405250810190610aa3919061204d565b6001600160a01b0316336001600160a01b031614158015610add5750610ac7611205565b6001600160a01b0316336001600160a01b031614155b156109ec5760785460408051633629edcd60e11b8152905133926001600160a01b031691636c53db9a9160048083019260209291908290030181865afa158015610b29573d5f803e3d5ffd5b505050506040513d601f19601f82011682018060405250810190610b4d919061204d565b610b55611205565b60405163e1b9c46960e01b815260040161067a9392919061202a565b815115610b8157610b818261123c565b805115610b9157610b91816114a1565b60208401516001600160a01b031615801590610bb6575083516001600160a01b031615155b8015610c995750606f545f908152607f6020908152604090912060010154908501516001600160a01b039081169116141580610c105750606f545f908152607f602052604090205484516001600160a01b03908116911614155b80610c335750606f545f908152607f602052604090819020600201549085015114155b80610c555750606f545f908152607f6020526040902060030154606085015114155b80610c775750606f545f908152607f6020526040902060040154608085015114155b80610c995750606f545f908152607f602052604090206005015460a085015114155b15610e5857602080850151606f545f908152607f9092526040909120600101546001600160a01b039081169116141580610cf157508351606f545f908152607f60205260409020546001600160a01b03908116911614155b15610d56578351602085015160405163446adb9960e11b81526001600160a01b03909216916388d5b73291610d2891600401611b7c565b5f604051808303815f87803b158015610d3f575f80fd5b505af1158015610d51573d5f803e3d5ffd5b505050505b606f8054905f610d6583612096565b9091555050606f80545f908152607f6020908152604091829020875181546001600160a01b038083166001600160a01b0319928316178455938a015160018401805495821695909216949094179055838901516002830181905560608a01516003840181905560808b01516004850181905560a08c01516005909501859055965495517fe677e2878aaaaf6a65ecf50f849ad58100c49f6dfd57d055ba4bddd63a175d5397610e4f9796949590919687526001600160a01b0395861660208801529390941660408601526060850191909152608084015260a083019190915260c082015260e00190565b60405180910390a15b6040830151158015610e6c57506020830151155b8015610e7757508251155b8015610e8557506060830151155b610ef457825160728190556020808501805160735560408087018051607455606080890180516075558351968752935194860194909452519084015251908201527fec9315d9f4291207475c061feff1e5d7105750ac0ee9534af9444b4ff1dab9bc9060800160405180910390a15b50505050565b607a545f906001600160a01b031661102e575f606854604051602001610f2091906120ae565b60408051601f19818403018152908290528051602090910120607854632474521560e21b83529092506001600160a01b0316906391d1485490610f699084905f906004016120cb565b602060405180830381865afa158015610f84573d5f803e3d5ffd5b505050506040513d601f19601f82011682018060405250810190610fa891906120e2565b15610fb65750600192915050565b607854604051632474521560e21b81526001600160a01b03909116906391d1485490610fe890849087906004016120cb565b602060405180830381865afa158015611003573d5f803e3d5ffd5b505050506040513d601f19601f8201168201806040525081019061102791906120e2565b9392505050565b607a546040516302154c3d60e51b81526001600160a01b03909116906342a987a0906110609085903090600401612068565b602060405180830381865afa15801561107b573d5f803e3d5ffd5b505050506040513d601f19601f82011682018060405250810190610a0d91906120e2565b5f805f6110ab866116a1565b91509150816001600160a01b03166339255d5b82836001600160a01b031663f0b7b915895f6001600160401b038111156110e7576110e7611c2a565b6040519080825280601f01601f191660200182016040528015611111576020820181803683370190505b50604051602401611123929190612101565b60408051808303601f1901815291815260208201805160e094851b6001600160e01b03909116179052519185901b6001600160e01b031916825261116e939250908990600401612124565b5f604051808303815f875af1158015611189573d5f803e3d5ffd5b505050506040513d5f823e601f3d908101601f191682016040526111b09190810190612163565b5060019695505050505050565b5f805f6111c9866116a1565b91509150816001600160a01b03166339255d5b82836001600160a01b03166330925b79895f6001600160401b038111156110e7576110e7611c2a565b5f6112377fc8fcad8db84d3cc18b4c41d551ea0ee66dd599cde068d998e57d5e09332c131f546001600160a01b031690565b905090565b5f60685460405160200161125091906120ae565b60408051601f19818403018152908290528051602090910120607854632474521560e21b83529092506001600160a01b0316906391d14854906112999084905f906004016120cb565b602060405180830381865afa1580156112b4573d5f803e3d5ffd5b505050506040513d601f19601f820116820180604052508101906112d891906120e2565b1561133d5760785460405163d547741f60e01b81526001600160a01b039091169063d547741f9061130f9084905f906004016120cb565b5f604051808303815f87803b158015611326575f80fd5b505af1158015611338573d5f803e3d5ffd5b505050505b5f5b82518110156114615760785483516001600160a01b03909116906391d14854908490869085908110611373576113736121a7565b60200260200101516040518363ffffffff1660e01b81526004016113989291906120cb565b602060405180830381865afa1580156113b3573d5f803e3d5ffd5b505050506040513d601f19601f820116820180604052508101906113d791906120e2565b6114595760785483516001600160a01b0390911690632f2ff15d908490869085908110611406576114066121a7565b60200260200101516040518363ffffffff1660e01b815260040161142b9291906120cb565b5f604051808303815f87803b158015611442575f80fd5b505af1158015611454573d5f803e3d5ffd5b505050505b60010161133f565b507f7a2e396a5614184c0af2c60827c206595126faa1238b94e19823192de52e728a606854836040516114959291906121bb565b60405180910390a15050565b5f5b8151811015611662576078546068546040516001600160a01b03909216916391d14854916114d3916020016120ae565b604051602081830303815290604052805190602001208484815181106114fb576114fb6121a7565b60200260200101516040518363ffffffff1660e01b81526004016115209291906120cb565b602060405180830381865afa15801561153b573d5f803e3d5ffd5b505050506040513d601f19601f8201168201806040525081019061155f91906120e2565b15611606576078546068546040516001600160a01b039092169163d547741f9161158b916020016120ae565b604051602081830303815290604052805190602001208484815181106115b3576115b36121a7565b60200260200101516040518363ffffffff1660e01b81526004016115d89291906120cb565b5f604051808303815f87803b1580156115ef575f80fd5b505af1158015611601573d5f803e3d5ffd5b505050505b5f6001600160a01b0316828281518110611622576116226121a7565b60200260200101516001600160a01b03161461165a5761165a82828151811061164d5761164d6121a7565b6020026020010151611818565b6001016114a3565b507fd418c93b6b78d828a87ee1909e6fcdbbf2f8d8f540ad7b232bb3e221e6d7cc1e606854826040516116969291906121bb565b60405180910390a150565b5f80516020612251833981519152545f80516020612271833981519152546001600160a01b0381166117e7576001600160a01b03821661173e57826001600160a01b03166320bc44256040518163ffffffff1660e01b8152600401602060405180830381865afa158015611717573d5f803e3d5ffd5b505050506040513d601f19601f8201168201806040525081019061173b919061204d565b91505b604051635b69006f60e11b81527fdfd8ece9bfbcb8c5c540edb935641f63d67686490a1ab97f000288759f30a94660048201526001600160a01b0383169063b6d200de90602401602060405180830381865afa1580156117a0573d5f803e3d5ffd5b505050506040513d601f19601f820116820180604052508101906117c4919061204d565b9050815f8051602061225183398151915255805f80516020612271833981519152555b6001600160a01b0382166117fd576117fd612212565b6001600160a01b03811661181357611813612212565b915091565b607854604051637817ee4f60e01b81526001600160a01b0390911690637817ee4f9061184a9084903090600401612068565b6020604051808303815f875af1158015611866573d5f803e3d5ffd5b505050506040513d601f19601f8201168201806040525081019061188a9190612226565b60715f82825461189a919061223d565b90915550506078546040516322bcf99960e01b81526001600160a01b03909116906322bcf999906118d19084903090600401612068565b5f604051808303815f87803b1580156118e8575f80fd5b505af11580156118fa573d5f803e3d5ffd5b5050505061190781611936565b7f1468da654b37bb3631011c1917d02e0db437d519918858d40b38b5e980ca033b816040516116969190611b7c565b5f5b6001600160a01b0382165f908152607d6020526040902054811015611a1c576001600160a01b0382165f908152607d60205260408120805483908110611980576119806121a7565b5f918252602080832090910154808352607b9091526040909120805491925090158015906119ba575060058101546001600160a01b031615155b15611a12576001600160a01b0384165f9081526009820160205260408120805490829055600283018054919283926119f390849061223d565b925050819055508060705f828254611a0b919061223d565b9091555050505b5050600101611938565b506001600160a01b03165f908152607c6020526040812055565b5f60208284031215611a46575f80fd5b5035919050565b634e487b7160e01b5f52602160045260245ffd5b60078110611a7157611a71611a4d565b9052565b5f81518084528060208401602086015e5f602082860101526020601f19601f83011685010191505092915050565b805182525f602082015160406020850152611ac16040850182611a75565b949350505050565b8e8152602081018e9052604081018d9052606081018c90526001600160a01b038b811660808301528a811660a0830152891660c08201525f8860e0830152611b15610100830189611a61565b610200610120830152611b2c610200830188611aa3565b865161014084015260208701516101608401526040909601516001600160a01b0316610180830152506101a08101939093526101c08301919091526101e0909101529a9950505050505050505050565b6001600160a01b0391909116815260200190565b6020810160048310611ba457611ba4611a4d565b91905290565b6020810160038310611ba457611ba4611a4d565b6001600160a01b0381168114611bd2575f80fd5b50565b8035611be081611bbe565b919050565b5f60208284031215611bf5575f80fd5b813561102781611bbe565b5f8060408385031215611c11575f80fd5b8235611c1c81611bbe565b946020939093013593505050565b634e487b7160e01b5f52604160045260245ffd5b60405160c081016001600160401b0381118282101715611c6057611c60611c2a565b60405290565b604080519081016001600160401b0381118282101715611c6057611c60611c2a565b604051601f8201601f191681016001600160401b0381118282101715611cb057611cb0611c2a565b604052919050565b5f60808284031215611cc8575f80fd5b604051608081016001600160401b0381118282101715611cea57611cea611c2a565b8060405250809150823581526020830135602082015260408301356040820152606083013560608201525092915050565b5f82601f830112611d2a575f80fd5b813560206001600160401b03821115611d4557611d45611c2a565b8160051b611d54828201611c88565b9283528481018201928281019087851115611d6d575f80fd5b83870192505b84831015611d95578235611d8681611bbe565b82529183019190830190611d73565b979650505050505050565b5f805f805f808688036101c0811215611db7575f80fd5b60c0811215611dc4575f80fd5b50611dcd611c3e565b8735611dd881611bbe565b81526020880135611de881611bbe565b8060208301525060408801356040820152606088013560608201526080880135608082015260a088013560a082015280965050611e288860c08901611cb8565b945061014087013593506101608701356001600160401b0380821115611e4c575f80fd5b611e588a838b01611d1b565b9450610180890135915080821115611e6e575f80fd5b50611e7b89828a01611d1b565b925050611e8b6101a08801611bd5565b90509295509295509295565b602081525f610a0a6020830184611a75565b600181811c90821680611ebd57607f821691505b602082108103611edb57634e487b7160e01b5f52602260045260245ffd5b50919050565b5f6001600160401b03831115611ef957611ef9611c2a565b611f0c601f8401601f1916602001611c88565b9050828152838383011115611f1f575f80fd5b8282602083015e5f602084830101529392505050565b5f6020808385031215611f46575f80fd5b82516001600160401b0380821115611f5c575f80fd5b9084019060c08287031215611f6f575f80fd5b611f77611c3e565b8251815283830151611f8881611bbe565b818501526040830151611f9a81611bbe565b6040820152606083015182811115611fb0575f80fd5b830160408189031215611fc1575f80fd5b611fc9611c66565b815181528582015184811115611fdd575f80fd5b82019350601f84018913611fef575f80fd5b611ffd898551888701611ee1565b8682015280606084015250506080830151608082015260a083015160a08201528094505050505092915050565b6001600160a01b0393841681529183166020830152909116604082015260600190565b5f6020828403121561205d575f80fd5b815161102781611bbe565b6001600160a01b0392831681529116602082015260400190565b634e487b7160e01b5f52601160045260245ffd5b5f600182016120a7576120a7612082565b5060010190565b6810531313d5d31254d560ba1b8152600981019190915260290190565b9182526001600160a01b0316602082015260400190565b5f602082840312156120f2575f80fd5b81518015158114611027575f80fd5b6001600160a01b03831681526040602082018190525f90611ac190830184611a75565b6001600160a01b03841681526060602082018190525f9061214790830185611a75565b82810360408401526121598185611a75565b9695505050505050565b5f60208284031215612173575f80fd5b81516001600160401b03811115612188575f80fd5b8201601f81018413612198575f80fd5b611ac184825160208401611ee1565b634e487b7160e01b5f52603260045260245ffd5b5f604082018483526020604060208501528185518084526060860191506020870193505f5b818110156122055784516001600160a01b0316835293830193918301916001016121e0565b5090979650505050505050565b634e487b7160e01b5f52600160045260245ffd5b5f60208284031215612236575f80fd5b5051919050565b81810381811115610a0d57610a0d61208256fe65599bf746e17a00ea62e3610586992d88101b78eec3cf380706621fb97ea837c36f6c05164a669ecb6da53e218d77ae44d51cfc99f91e5a125a18de0949bee4a164736f6c6343000819000a","linkReferences":{}},"methodIdentifiers":{"DISPUTE_COOLDOWN_SEC()":"f5be3f7c","RULING_OPTIONS()":"626c47e8","VERSION()":"ffa1ad74","arbitrableConfigs(uint256)":"41bb7605","cloneNonce()":"33960459","collateralVault()":"0bece79c","connectSuperfluidGDA(address)":"924e6704","currentArbitrableConfigVersion()":"125fd1d9","cvParams()":"2506b870","disconnectSuperfluidGDA(address)":"c69271ec","disputeCount()":"a28889e1","disputeIdToProposalId(uint256)":"255ffb38","pointConfig()":"a47ff7e5","pointSystem()":"2dbd6fdd","proposalCounter()":"0c0512e9","proposalType()":"351d9f96","proposals(uint256)":"013cf08b","registryCommunity()":"6003e414","setPoolParams((address,address,uint256,uint256,uint256,uint256),(uint256,uint256,uint256,uint256),uint256,address[],address[],address)":"d5b7cc54","streamingRatePerSecond()":"94573cbb","superfluidGDA()":"1b36f56f","superfluidToken()":"05caa7f3","sybilScorer()":"b6c61f31","totalPointsActivated()":"aba9ffee","totalStaked()":"817b1cd2","totalVoterStakePct(address)":"5db64b99","voterStakedProposals(address,uint256)":"868c57b8"},"storageLayout":{"storage":[{"astId":88716,"contract":"pkg/contracts/test/mocks/CVAdminFacetV2.sol:CVAdminFacetV2","label":"_initialized","offset":0,"slot":"0","type":"t_uint8"},{"astId":88718,"contract":"pkg/contracts/test/mocks/CVAdminFacetV2.sol:CVAdminFacetV2","label":"_initializing","offset":1,"slot":"0","type":"t_bool"},{"astId":88722,"contract":"pkg/contracts/test/mocks/CVAdminFacetV2.sol:CVAdminFacetV2","label":"__gap_init","offset":0,"slot":"1","type":"t_array(t_uint256)50_storage"},{"astId":88725,"contract":"pkg/contracts/test/mocks/CVAdminFacetV2.sol:CVAdminFacetV2","label":"_owner","offset":0,"slot":"51","type":"t_address"},{"astId":88729,"contract":"pkg/contracts/test/mocks/CVAdminFacetV2.sol:CVAdminFacetV2","label":"__gap_ownable","offset":0,"slot":"52","type":"t_array(t_uint256)49_storage"},{"astId":88733,"contract":"pkg/contracts/test/mocks/CVAdminFacetV2.sol:CVAdminFacetV2","label":"allo","offset":0,"slot":"101","type":"t_contract(IAllo)2630"},{"astId":88735,"contract":"pkg/contracts/test/mocks/CVAdminFacetV2.sol:CVAdminFacetV2","label":"strategyId","offset":0,"slot":"102","type":"t_bytes32"},{"astId":88737,"contract":"pkg/contracts/test/mocks/CVAdminFacetV2.sol:CVAdminFacetV2","label":"poolActive","offset":0,"slot":"103","type":"t_bool"},{"astId":88739,"contract":"pkg/contracts/test/mocks/CVAdminFacetV2.sol:CVAdminFacetV2","label":"poolId","offset":0,"slot":"104","type":"t_uint256"},{"astId":88741,"contract":"pkg/contracts/test/mocks/CVAdminFacetV2.sol:CVAdminFacetV2","label":"poolAmount","offset":0,"slot":"105","type":"t_uint256"},{"astId":88744,"contract":"pkg/contracts/test/mocks/CVAdminFacetV2.sol:CVAdminFacetV2","label":"collateralVaultTemplate","offset":0,"slot":"106","type":"t_address"},{"astId":88747,"contract":"pkg/contracts/test/mocks/CVAdminFacetV2.sol:CVAdminFacetV2","label":"surpressStateMutabilityWarning","offset":0,"slot":"107","type":"t_uint256"},{"astId":88750,"contract":"pkg/contracts/test/mocks/CVAdminFacetV2.sol:CVAdminFacetV2","label":"cloneNonce","offset":0,"slot":"108","type":"t_uint256"},{"astId":88753,"contract":"pkg/contracts/test/mocks/CVAdminFacetV2.sol:CVAdminFacetV2","label":"disputeCount","offset":0,"slot":"109","type":"t_uint64"},{"astId":88756,"contract":"pkg/contracts/test/mocks/CVAdminFacetV2.sol:CVAdminFacetV2","label":"proposalCounter","offset":0,"slot":"110","type":"t_uint256"},{"astId":88759,"contract":"pkg/contracts/test/mocks/CVAdminFacetV2.sol:CVAdminFacetV2","label":"currentArbitrableConfigVersion","offset":0,"slot":"111","type":"t_uint256"},{"astId":88762,"contract":"pkg/contracts/test/mocks/CVAdminFacetV2.sol:CVAdminFacetV2","label":"totalStaked","offset":0,"slot":"112","type":"t_uint256"},{"astId":88765,"contract":"pkg/contracts/test/mocks/CVAdminFacetV2.sol:CVAdminFacetV2","label":"totalPointsActivated","offset":0,"slot":"113","type":"t_uint256"},{"astId":88769,"contract":"pkg/contracts/test/mocks/CVAdminFacetV2.sol:CVAdminFacetV2","label":"cvParams","offset":0,"slot":"114","type":"t_struct(CVParams)90077_storage"},{"astId":88773,"contract":"pkg/contracts/test/mocks/CVAdminFacetV2.sol:CVAdminFacetV2","label":"proposalType","offset":0,"slot":"118","type":"t_enum(ProposalType)89978"},{"astId":88777,"contract":"pkg/contracts/test/mocks/CVAdminFacetV2.sol:CVAdminFacetV2","label":"pointSystem","offset":1,"slot":"118","type":"t_enum(PointSystem)89983"},{"astId":88781,"contract":"pkg/contracts/test/mocks/CVAdminFacetV2.sol:CVAdminFacetV2","label":"pointConfig","offset":0,"slot":"119","type":"t_struct(PointSystemConfig)90054_storage"},{"astId":88785,"contract":"pkg/contracts/test/mocks/CVAdminFacetV2.sol:CVAdminFacetV2","label":"registryCommunity","offset":0,"slot":"120","type":"t_contract(RegistryCommunity)98188"},{"astId":88789,"contract":"pkg/contracts/test/mocks/CVAdminFacetV2.sol:CVAdminFacetV2","label":"collateralVault","offset":0,"slot":"121","type":"t_contract(ICollateralVault)103625"},{"astId":88793,"contract":"pkg/contracts/test/mocks/CVAdminFacetV2.sol:CVAdminFacetV2","label":"sybilScorer","offset":0,"slot":"122","type":"t_contract(ISybilScorer)95634"},{"astId":88799,"contract":"pkg/contracts/test/mocks/CVAdminFacetV2.sol:CVAdminFacetV2","label":"proposals","offset":0,"slot":"123","type":"t_mapping(t_uint256,t_struct(Proposal)90046_storage)"},{"astId":88804,"contract":"pkg/contracts/test/mocks/CVAdminFacetV2.sol:CVAdminFacetV2","label":"totalVoterStakePct","offset":0,"slot":"124","type":"t_mapping(t_address,t_uint256)"},{"astId":88810,"contract":"pkg/contracts/test/mocks/CVAdminFacetV2.sol:CVAdminFacetV2","label":"voterStakedProposals","offset":0,"slot":"125","type":"t_mapping(t_address,t_array(t_uint256)dyn_storage)"},{"astId":88815,"contract":"pkg/contracts/test/mocks/CVAdminFacetV2.sol:CVAdminFacetV2","label":"disputeIdToProposalId","offset":0,"slot":"126","type":"t_mapping(t_uint256,t_uint256)"},{"astId":88821,"contract":"pkg/contracts/test/mocks/CVAdminFacetV2.sol:CVAdminFacetV2","label":"arbitrableConfigs","offset":0,"slot":"127","type":"t_mapping(t_uint256,t_struct(ArbitrableConfig)90068_storage)"},{"astId":88825,"contract":"pkg/contracts/test/mocks/CVAdminFacetV2.sol:CVAdminFacetV2","label":"superfluidToken","offset":0,"slot":"128","type":"t_contract(ISuperToken)80058"},{"astId":88829,"contract":"pkg/contracts/test/mocks/CVAdminFacetV2.sol:CVAdminFacetV2","label":"superfluidGDA","offset":0,"slot":"129","type":"t_contract(ISuperfluidPool)78886"},{"astId":88832,"contract":"pkg/contracts/test/mocks/CVAdminFacetV2.sol:CVAdminFacetV2","label":"streamingRatePerSecond","offset":0,"slot":"130","type":"t_uint256"},{"astId":88837,"contract":"pkg/contracts/test/mocks/CVAdminFacetV2.sol:CVAdminFacetV2","label":"__gap","offset":0,"slot":"131","type":"t_array(t_uint256)47_storage"}],"types":{"t_address":{"encoding":"inplace","label":"address","numberOfBytes":"20"},"t_array(t_uint256)47_storage":{"encoding":"inplace","label":"uint256[47]","numberOfBytes":"1504","base":"t_uint256"},"t_array(t_uint256)49_storage":{"encoding":"inplace","label":"uint256[49]","numberOfBytes":"1568","base":"t_uint256"},"t_array(t_uint256)50_storage":{"encoding":"inplace","label":"uint256[50]","numberOfBytes":"1600","base":"t_uint256"},"t_array(t_uint256)dyn_storage":{"encoding":"dynamic_array","label":"uint256[]","numberOfBytes":"32","base":"t_uint256"},"t_bool":{"encoding":"inplace","label":"bool","numberOfBytes":"1"},"t_bytes32":{"encoding":"inplace","label":"bytes32","numberOfBytes":"32"},"t_contract(IAllo)2630":{"encoding":"inplace","label":"contract IAllo","numberOfBytes":"20"},"t_contract(IArbitrator)103592":{"encoding":"inplace","label":"contract IArbitrator","numberOfBytes":"20"},"t_contract(ICollateralVault)103625":{"encoding":"inplace","label":"contract ICollateralVault","numberOfBytes":"20"},"t_contract(ISuperToken)80058":{"encoding":"inplace","label":"contract ISuperToken","numberOfBytes":"20"},"t_contract(ISuperfluidPool)78886":{"encoding":"inplace","label":"contract ISuperfluidPool","numberOfBytes":"20"},"t_contract(ISybilScorer)95634":{"encoding":"inplace","label":"contract ISybilScorer","numberOfBytes":"20"},"t_contract(RegistryCommunity)98188":{"encoding":"inplace","label":"contract RegistryCommunity","numberOfBytes":"20"},"t_enum(PointSystem)89983":{"encoding":"inplace","label":"enum PointSystem","numberOfBytes":"1"},"t_enum(ProposalStatus)90003":{"encoding":"inplace","label":"enum ProposalStatus","numberOfBytes":"1"},"t_enum(ProposalType)89978":{"encoding":"inplace","label":"enum ProposalType","numberOfBytes":"1"},"t_mapping(t_address,t_array(t_uint256)dyn_storage)":{"encoding":"mapping","key":"t_address","label":"mapping(address => uint256[])","numberOfBytes":"32","value":"t_array(t_uint256)dyn_storage"},"t_mapping(t_address,t_uint256)":{"encoding":"mapping","key":"t_address","label":"mapping(address => uint256)","numberOfBytes":"32","value":"t_uint256"},"t_mapping(t_uint256,t_struct(ArbitrableConfig)90068_storage)":{"encoding":"mapping","key":"t_uint256","label":"mapping(uint256 => struct ArbitrableConfig)","numberOfBytes":"32","value":"t_struct(ArbitrableConfig)90068_storage"},"t_mapping(t_uint256,t_struct(Proposal)90046_storage)":{"encoding":"mapping","key":"t_uint256","label":"mapping(uint256 => struct Proposal)","numberOfBytes":"32","value":"t_struct(Proposal)90046_storage"},"t_mapping(t_uint256,t_uint256)":{"encoding":"mapping","key":"t_uint256","label":"mapping(uint256 => uint256)","numberOfBytes":"32","value":"t_uint256"},"t_string_storage":{"encoding":"bytes","label":"string","numberOfBytes":"32"},"t_struct(ArbitrableConfig)90068_storage":{"encoding":"inplace","label":"struct ArbitrableConfig","numberOfBytes":"192","members":[{"astId":90057,"contract":"pkg/contracts/test/mocks/CVAdminFacetV2.sol:CVAdminFacetV2","label":"arbitrator","offset":0,"slot":"0","type":"t_contract(IArbitrator)103592"},{"astId":90059,"contract":"pkg/contracts/test/mocks/CVAdminFacetV2.sol:CVAdminFacetV2","label":"tribunalSafe","offset":0,"slot":"1","type":"t_address"},{"astId":90061,"contract":"pkg/contracts/test/mocks/CVAdminFacetV2.sol:CVAdminFacetV2","label":"submitterCollateralAmount","offset":0,"slot":"2","type":"t_uint256"},{"astId":90063,"contract":"pkg/contracts/test/mocks/CVAdminFacetV2.sol:CVAdminFacetV2","label":"challengerCollateralAmount","offset":0,"slot":"3","type":"t_uint256"},{"astId":90065,"contract":"pkg/contracts/test/mocks/CVAdminFacetV2.sol:CVAdminFacetV2","label":"defaultRuling","offset":0,"slot":"4","type":"t_uint256"},{"astId":90067,"contract":"pkg/contracts/test/mocks/CVAdminFacetV2.sol:CVAdminFacetV2","label":"defaultRulingTimeout","offset":0,"slot":"5","type":"t_uint256"}]},"t_struct(CVParams)90077_storage":{"encoding":"inplace","label":"struct CVParams","numberOfBytes":"128","members":[{"astId":90070,"contract":"pkg/contracts/test/mocks/CVAdminFacetV2.sol:CVAdminFacetV2","label":"maxRatio","offset":0,"slot":"0","type":"t_uint256"},{"astId":90072,"contract":"pkg/contracts/test/mocks/CVAdminFacetV2.sol:CVAdminFacetV2","label":"weight","offset":0,"slot":"1","type":"t_uint256"},{"astId":90074,"contract":"pkg/contracts/test/mocks/CVAdminFacetV2.sol:CVAdminFacetV2","label":"decay","offset":0,"slot":"2","type":"t_uint256"},{"astId":90076,"contract":"pkg/contracts/test/mocks/CVAdminFacetV2.sol:CVAdminFacetV2","label":"minThresholdPoints","offset":0,"slot":"3","type":"t_uint256"}]},"t_struct(Metadata)3085_storage":{"encoding":"inplace","label":"struct Metadata","numberOfBytes":"64","members":[{"astId":3081,"contract":"pkg/contracts/test/mocks/CVAdminFacetV2.sol:CVAdminFacetV2","label":"protocol","offset":0,"slot":"0","type":"t_uint256"},{"astId":3084,"contract":"pkg/contracts/test/mocks/CVAdminFacetV2.sol:CVAdminFacetV2","label":"pointer","offset":0,"slot":"1","type":"t_string_storage"}]},"t_struct(PointSystemConfig)90054_storage":{"encoding":"inplace","label":"struct PointSystemConfig","numberOfBytes":"32","members":[{"astId":90053,"contract":"pkg/contracts/test/mocks/CVAdminFacetV2.sol:CVAdminFacetV2","label":"maxAmount","offset":0,"slot":"0","type":"t_uint256"}]},"t_struct(Proposal)90046_storage":{"encoding":"inplace","label":"struct Proposal","numberOfBytes":"576","members":[{"astId":90012,"contract":"pkg/contracts/test/mocks/CVAdminFacetV2.sol:CVAdminFacetV2","label":"proposalId","offset":0,"slot":"0","type":"t_uint256"},{"astId":90014,"contract":"pkg/contracts/test/mocks/CVAdminFacetV2.sol:CVAdminFacetV2","label":"requestedAmount","offset":0,"slot":"1","type":"t_uint256"},{"astId":90016,"contract":"pkg/contracts/test/mocks/CVAdminFacetV2.sol:CVAdminFacetV2","label":"stakedAmount","offset":0,"slot":"2","type":"t_uint256"},{"astId":90018,"contract":"pkg/contracts/test/mocks/CVAdminFacetV2.sol:CVAdminFacetV2","label":"convictionLast","offset":0,"slot":"3","type":"t_uint256"},{"astId":90020,"contract":"pkg/contracts/test/mocks/CVAdminFacetV2.sol:CVAdminFacetV2","label":"beneficiary","offset":0,"slot":"4","type":"t_address"},{"astId":90022,"contract":"pkg/contracts/test/mocks/CVAdminFacetV2.sol:CVAdminFacetV2","label":"submitter","offset":0,"slot":"5","type":"t_address"},{"astId":90024,"contract":"pkg/contracts/test/mocks/CVAdminFacetV2.sol:CVAdminFacetV2","label":"requestedToken","offset":0,"slot":"6","type":"t_address"},{"astId":90026,"contract":"pkg/contracts/test/mocks/CVAdminFacetV2.sol:CVAdminFacetV2","label":"blockLast","offset":0,"slot":"7","type":"t_uint256"},{"astId":90029,"contract":"pkg/contracts/test/mocks/CVAdminFacetV2.sol:CVAdminFacetV2","label":"proposalStatus","offset":0,"slot":"8","type":"t_enum(ProposalStatus)90003"},{"astId":90033,"contract":"pkg/contracts/test/mocks/CVAdminFacetV2.sol:CVAdminFacetV2","label":"voterStakedPoints","offset":0,"slot":"9","type":"t_mapping(t_address,t_uint256)"},{"astId":90036,"contract":"pkg/contracts/test/mocks/CVAdminFacetV2.sol:CVAdminFacetV2","label":"metadata","offset":0,"slot":"10","type":"t_struct(Metadata)3085_storage"},{"astId":90039,"contract":"pkg/contracts/test/mocks/CVAdminFacetV2.sol:CVAdminFacetV2","label":"disputeInfo","offset":0,"slot":"12","type":"t_struct(ProposalDisputeInfo)90010_storage"},{"astId":90041,"contract":"pkg/contracts/test/mocks/CVAdminFacetV2.sol:CVAdminFacetV2","label":"lastDisputeCompletion","offset":0,"slot":"15","type":"t_uint256"},{"astId":90043,"contract":"pkg/contracts/test/mocks/CVAdminFacetV2.sol:CVAdminFacetV2","label":"arbitrableConfigVersion","offset":0,"slot":"16","type":"t_uint256"},{"astId":90045,"contract":"pkg/contracts/test/mocks/CVAdminFacetV2.sol:CVAdminFacetV2","label":"creationTimestamp","offset":0,"slot":"17","type":"t_uint256"}]},"t_struct(ProposalDisputeInfo)90010_storage":{"encoding":"inplace","label":"struct ProposalDisputeInfo","numberOfBytes":"96","members":[{"astId":90005,"contract":"pkg/contracts/test/mocks/CVAdminFacetV2.sol:CVAdminFacetV2","label":"disputeId","offset":0,"slot":"0","type":"t_uint256"},{"astId":90007,"contract":"pkg/contracts/test/mocks/CVAdminFacetV2.sol:CVAdminFacetV2","label":"disputeTimestamp","offset":0,"slot":"1","type":"t_uint256"},{"astId":90009,"contract":"pkg/contracts/test/mocks/CVAdminFacetV2.sol:CVAdminFacetV2","label":"challenger","offset":0,"slot":"2","type":"t_address"}]},"t_uint256":{"encoding":"inplace","label":"uint256","numberOfBytes":"32"},"t_uint64":{"encoding":"inplace","label":"uint64","numberOfBytes":"8"},"t_uint8":{"encoding":"inplace","label":"uint8","numberOfBytes":"1"}}},"id":222}