{"abi":[{"type":"constructor","inputs":[{"name":"host","type":"address","internalType":"contract ISuperfluid"}],"stateMutability":"nonpayable"},{"type":"function","name":"claimAll","inputs":[{"name":"pool","type":"address","internalType":"contract ISuperfluidPool"},{"name":"memberAddress","type":"address","internalType":"address"},{"name":"userData","type":"bytes","internalType":"bytes"}],"outputs":[{"name":"success","type":"bool","internalType":"bool"}],"stateMutability":"nonpayable"},{"type":"function","name":"connectPool","inputs":[{"name":"pool","type":"address","internalType":"contract ISuperfluidPool"},{"name":"userData","type":"bytes","internalType":"bytes"}],"outputs":[{"name":"","type":"bool","internalType":"bool"}],"stateMutability":"nonpayable"},{"type":"function","name":"createPool","inputs":[{"name":"token","type":"address","internalType":"contract ISuperfluidToken"},{"name":"admin","type":"address","internalType":"address"},{"name":"config","type":"tuple","internalType":"struct PoolConfig","components":[{"name":"transferabilityForUnitsOwner","type":"bool","internalType":"bool"},{"name":"distributionFromAnyAddress","type":"bool","internalType":"bool"}]}],"outputs":[{"name":"success","type":"bool","internalType":"bool"},{"name":"pool","type":"address","internalType":"contract ISuperfluidPool"}],"stateMutability":"nonpayable"},{"type":"function","name":"disconnectPool","inputs":[{"name":"pool","type":"address","internalType":"contract ISuperfluidPool"},{"name":"userData","type":"bytes","internalType":"bytes"}],"outputs":[{"name":"","type":"bool","internalType":"bool"}],"stateMutability":"nonpayable"},{"type":"function","name":"distribute","inputs":[{"name":"token","type":"address","internalType":"contract ISuperfluidToken"},{"name":"from","type":"address","internalType":"address"},{"name":"pool","type":"address","internalType":"contract ISuperfluidPool"},{"name":"requestedAmount","type":"uint256","internalType":"uint256"},{"name":"userData","type":"bytes","internalType":"bytes"}],"outputs":[{"name":"","type":"bool","internalType":"bool"}],"stateMutability":"nonpayable"},{"type":"function","name":"distributeFlow","inputs":[{"name":"token","type":"address","internalType":"contract ISuperfluidToken"},{"name":"from","type":"address","internalType":"address"},{"name":"pool","type":"address","internalType":"contract ISuperfluidPool"},{"name":"requestedFlowRate","type":"int96","internalType":"int96"},{"name":"userData","type":"bytes","internalType":"bytes"}],"outputs":[{"name":"","type":"bool","internalType":"bool"}],"stateMutability":"nonpayable"},{"type":"function","name":"estimateDistributionActualAmount","inputs":[{"name":"token","type":"address","internalType":"contract ISuperfluidToken"},{"name":"from","type":"address","internalType":"address"},{"name":"to","type":"address","internalType":"contract ISuperfluidPool"},{"name":"requestedAmount","type":"uint256","internalType":"uint256"}],"outputs":[{"name":"actualAmount","type":"uint256","internalType":"uint256"}],"stateMutability":"view"},{"type":"function","name":"estimateFlowDistributionActualFlowRate","inputs":[{"name":"token","type":"address","internalType":"contract ISuperfluidToken"},{"name":"from","type":"address","internalType":"address"},{"name":"to","type":"address","internalType":"contract ISuperfluidPool"},{"name":"requestedFlowRate","type":"int96","internalType":"int96"}],"outputs":[{"name":"actualFlowRate","type":"int96","internalType":"int96"},{"name":"totalDistributionFlowRate","type":"int96","internalType":"int96"}],"stateMutability":"view"},{"type":"function","name":"getFlowDistributionFlowRate","inputs":[{"name":"token","type":"address","internalType":"contract ISuperfluidToken"},{"name":"from","type":"address","internalType":"address"},{"name":"to","type":"address","internalType":"contract ISuperfluidPool"}],"outputs":[{"name":"","type":"int96","internalType":"int96"}],"stateMutability":"view"},{"type":"function","name":"getNetFlow","inputs":[{"name":"token","type":"address","internalType":"contract ISuperfluidToken"},{"name":"account","type":"address","internalType":"address"}],"outputs":[{"name":"","type":"int96","internalType":"int96"}],"stateMutability":"view"},{"type":"function","name":"getPoolAdjustmentFlowInfo","inputs":[{"name":"pool","type":"address","internalType":"contract ISuperfluidPool"}],"outputs":[{"name":"","type":"address","internalType":"address"},{"name":"","type":"bytes32","internalType":"bytes32"},{"name":"","type":"int96","internalType":"int96"}],"stateMutability":"view"},{"type":"function","name":"getPoolAdjustmentFlowRate","inputs":[{"name":"pool","type":"address","internalType":"address"}],"outputs":[{"name":"","type":"int96","internalType":"int96"}],"stateMutability":"view"},{"type":"function","name":"isMemberConnected","inputs":[{"name":"pool","type":"address","internalType":"contract ISuperfluidPool"},{"name":"member","type":"address","internalType":"address"}],"outputs":[{"name":"","type":"bool","internalType":"bool"}],"stateMutability":"view"},{"type":"function","name":"isPool","inputs":[{"name":"token","type":"address","internalType":"contract ISuperfluidToken"},{"name":"account","type":"address","internalType":"address"}],"outputs":[{"name":"","type":"bool","internalType":"bool"}],"stateMutability":"view"},{"type":"function","name":"updateMemberUnits","inputs":[{"name":"pool","type":"address","internalType":"contract ISuperfluidPool"},{"name":"memberAddress","type":"address","internalType":"address"},{"name":"newUnits","type":"uint128","internalType":"uint128"},{"name":"userData","type":"bytes","internalType":"bytes"}],"outputs":[{"name":"success","type":"bool","internalType":"bool"}],"stateMutability":"nonpayable"}],"bytecode":{"object":"0x60c060405234801562000010575f80fd5b506040516200181a3803806200181a8339810160408190526200003391620000eb565b6001600160a01b0381166080819052604051635b69006f60e11b81527fdfd8ece9bfbcb8c5c540edb935641f63d67686490a1ab97f000288759f30a946600482015263b6d200de90602401602060405180830381865afa1580156200009a573d5f803e3d5ffd5b505050506040513d601f19601f82011682018060405250810190620000c09190620000eb565b6001600160a01b031660a0525062000110565b6001600160a01b0381168114620000e8575f80fd5b50565b5f60208284031215620000fc575f80fd5b81516200010981620000d3565b9392505050565b60805160a051611663620001b75f395f81816102bb0152818161033e015281816103d601528181610409015281816104ba015281816105280152818161058801528181610630015281816106be01528181610753015281816107c30152818161080f01528181610864015281816108fa0152818161094c015281816109b801528181610a0001528181610aae0152610b2501525f8181610c110152610c8201526116635ff3fe608060405234801561000f575f80fd5b50600436106100c3575f3560e01c80630779d365146100c757806330925b79146100fe57806337bd42e014610121578063398c74e11461015c57806344999ff71461016f5780634d5c91ec146101955780634e9ced57146101c25780635a6c6dbc146101d55780636d1007a6146101e85780637b2cc0da146101fb578063c782eb9c1461020e578063d2c0d54214610221578063e8e7e2d114610234578063eccfc6a514610247578063f0b7b91514610268575b5f80fd5b6100da6100d5366004610e7b565b61027b565b6040805192151583526001600160a01b039091166020830152015b60405180910390f35b61011161010c366004610f99565b610332565b60405190151581526020016100f5565b61013461012f366004610fe5565b610404565b604080516001600160a01b0390941684526020840192909252600b0b908201526060016100f5565b61011161016a366004611000565b61049f565b61018261017d36600461107b565b610558565b604051600b9190910b81526020016100f5565b6101a86101a33660046110d1565b6105f3565b60408051600b93840b81529190920b6020820152016100f5565b6101826101d0366004610fe5565b6106a5565b6101116101e336600461112a565b610738565b6101116101f63660046111ac565b6107f4565b61011161020936600461120c565b61084b565b61011161021c36600461120c565b6108e1565b61011161022f366004611243565b610931565b61018261024236600461120c565b6109e7565b61025a6102553660046112a0565b610a76565b6040519081526020016100f5565b610111610276366004610f99565b610b19565b604051630779d36560e01b81526001600160a01b03848116600483015283811660248301528251151560448301526020830151151560648301525f9182917f00000000000000000000000000000000000000000000000000000000000000001690630779d365906084016020604051808303815f875af1158015610301573d5f803e3d5ffd5b505050506040513d601f19601f8201168201806040525081019061032591906112ee565b6001969095509350505050565b5f806001600160a01b037f0000000000000000000000000000000000000000000000000000000000000000166330925b7985835b6040519080825280601f01601f191660200182016040528015610390576020820181803683370190505b506040516024016103a2929190611356565b604051602081830303815290604052915060e01b6020820180516001600160e01b03838183161783525050505090506103fc7f00000000000000000000000000000000000000000000000000000000000000008285610b51565b949350505050565b5f805f7f00000000000000000000000000000000000000000000000000000000000000006001600160a01b03166337bd42e0856040518263ffffffff1660e01b81526004016104539190611379565b606060405180830381865afa15801561046e573d5f803e3d5ffd5b505050506040513d601f19601f82011682018060405250810190610492919061138d565b9250925092509193909250565b604080515f8082526020820190925281906001600160a01b037f0000000000000000000000000000000000000000000000000000000000000000169063398c74e1906104f490899089908990604481016113c2565b604051602081830303815290604052915060e01b6020820180516001600160e01b038381831617835250505050905061054e7f00000000000000000000000000000000000000000000000000000000000000008285610b51565b9695505050505050565b60405162735d7560e41b81526001600160a01b038481166004830152838116602483015282811660448301525f917f000000000000000000000000000000000000000000000000000000000000000090911690630735d75090606401602060405180830381865afa1580156105cf573d5f803e3d5ffd5b505050506040513d601f19601f820116820180604052508101906103fc91906113fc565b604051631357247b60e21b81526001600160a01b03858116600483015284811660248301528381166044830152600b83900b60648301525f9182917f00000000000000000000000000000000000000000000000000000000000000001690634d5c91ec906084016040805180830381865afa158015610674573d5f803e3d5ffd5b505050506040513d601f19601f820116820180604052508101906106989190611417565b9150915094509492505050565b604051634e9ced5760e01b81525f906001600160a01b037f00000000000000000000000000000000000000000000000000000000000000001690634e9ced57906106f3908590600401611379565b602060405180830381865afa15801561070e573d5f803e3d5ffd5b505050506040513d601f19601f8201168201806040525081019061073291906113fc565b92915050565b604080515f8082526020820190925281906001600160a01b037f00000000000000000000000000000000000000000000000000000000000000001690635a6c6dbc9061078f908a908a908a908a9060448101611444565b604051602081830303815290604052915060e01b6020820180516001600160e01b03838183161783525050505090506107e97f00000000000000000000000000000000000000000000000000000000000000008285610b51565b979650505050505050565b604080515f8082526020820190925281906001600160a01b037f00000000000000000000000000000000000000000000000000000000000000001690636d1007a69061078f908a908a908a908a9060448101611481565b604051633d96606d60e11b81525f906001600160a01b037f00000000000000000000000000000000000000000000000000000000000000001690637b2cc0da9061089b90869086906004016114bb565b602060405180830381865afa1580156108b6573d5f803e3d5ffd5b505050506040513d601f19601f820116820180604052508101906108da91906114d5565b9392505050565b6040516331e0bae760e21b81525f906001600160a01b037f0000000000000000000000000000000000000000000000000000000000000000169063c782eb9c9061089b90869086906004016114bb565b604080515f8082526020820190925281906001600160a01b037f0000000000000000000000000000000000000000000000000000000000000000169063d2c0d542906109849088908890604481016114f0565b604051602081830303815290604052915060e01b6020820180516001600160e01b03838183161783525050505090506109de7f00000000000000000000000000000000000000000000000000000000000000008285610b51565b95945050505050565b60405163e8e7e2d160e01b81525f906001600160a01b037f0000000000000000000000000000000000000000000000000000000000000000169063e8e7e2d190610a3790869086906004016114bb565b602060405180830381865afa158015610a52573d5f803e3d5ffd5b505050506040513d601f19601f820116820180604052508101906108da91906113fc565b60405163eccfc6a560e01b81526001600160a01b03858116600483015284811660248301528381166044830152606482018390525f917f00000000000000000000000000000000000000000000000000000000000000009091169063eccfc6a590608401602060405180830381865afa158015610af5573d5f803e3d5ffd5b505050506040513d601f19601f820116820180604052508101906109de919061151b565b5f806001600160a01b037f00000000000000000000000000000000000000000000000000000000000000001663f0b7b9158583610366565b6040805160018082528183019092525f91829190816020015b60408051606080820183525f808352602083015291810191909152815260200190600190039081610b6a579050509050604051806060016040528060c963ffffffff168152602001866001600160a01b031681526020018585604051602001610bd4929190611532565b604051602081830303815290604052815250815f81518110610bf857610bf8611556565b60200260200101819052506109de815f610732825f80807f00000000000000000000000000000000000000000000000000000000000000006001600160a01b031663670e77e385604051602401610c4f919061156a565b604051602081830303815290604052915060e01b6020820180516001600160e01b03838183161783525050505090505f807f00000000000000000000000000000000000000000000000000000000000000006001600160a01b0316858433604051602001610cbe9291906115f8565b60408051601f1981840301815290829052610cd891611629565b5f6040518083038185875af1925050503d805f8114610d12576040519150601f19603f3d011682016040523d82523d5f602084013e610d17565b606091505b509150915081610d2a57610d2a81610d36565b50600195945050505050565b600481511015610d8a5760405162461bcd60e51b815260206004820152601a60248201527943616c6c5574696c733a2074617267657420726576657274282960301b60448201526064015b60405180910390fd5b602081015163b1b7848f60e01b6001600160e01b0319821601610e3a5760408051808201825260208082527f43616c6c5574696c733a207461726765742070616e69636b65643a2030785f5f90820190815260248501517f43616c6c5574696c733a207461726765742070616e69636b65643a2030780000600482811c600f908116603090810160081b918516011791909117909252925162461bcd60e51b8152919291610d8191849101611644565b81518060208401fd5b50565b6001600160a01b0381168114610e43575f80fd5b634e487b7160e01b5f52604160045260245ffd5b8015158114610e43575f80fd5b5f805f8385036080811215610e8e575f80fd5b8435610e9981610e46565b93506020850135610ea981610e46565b92506040603f1982011215610ebc575f80fd5b50604080519081016001600160401b0381118282101715610edf57610edf610e5a565b6040908152850135610ef081610e6e565b81526060850135610f0081610e6e565b602082015292959194509192509050565b5f82601f830112610f20575f80fd5b81356001600160401b0380821115610f3a57610f3a610e5a565b604051601f8301601f19908116603f01168101908282118183101715610f6257610f62610e5a565b81604052838152866020858801011115610f7a575f80fd5b836020870160208301375f602085830101528094505050505092915050565b5f8060408385031215610faa575f80fd5b8235610fb581610e46565b915060208301356001600160401b03811115610fcf575f80fd5b610fdb85828601610f11565b9150509250929050565b5f60208284031215610ff5575f80fd5b81356108da81610e46565b5f805f8060808587031215611013575f80fd5b843561101e81610e46565b9350602085013561102e81610e46565b925060408501356001600160801b0381168114611049575f80fd5b915060608501356001600160401b03811115611063575f80fd5b61106f87828801610f11565b91505092959194509250565b5f805f6060848603121561108d575f80fd5b833561109881610e46565b925060208401356110a881610e46565b915060408401356110b881610e46565b809150509250925092565b80600b0b8114610e43575f80fd5b5f805f80608085870312156110e4575f80fd5b84356110ef81610e46565b935060208501356110ff81610e46565b9250604085013561110f81610e46565b9150606085013561111f816110c3565b939692955090935050565b5f805f805f60a0868803121561113e575f80fd5b853561114981610e46565b9450602086013561115981610e46565b9350604086013561116981610e46565b92506060860135611179816110c3565b915060808601356001600160401b03811115611193575f80fd5b61119f88828901610f11565b9150509295509295909350565b5f805f805f60a086880312156111c0575f80fd5b85356111cb81610e46565b945060208601356111db81610e46565b935060408601356111eb81610e46565b92506060860135915060808601356001600160401b03811115611193575f80fd5b5f806040838503121561121d575f80fd5b823561122881610e46565b9150602083013561123881610e46565b809150509250929050565b5f805f60608486031215611255575f80fd5b833561126081610e46565b9250602084013561127081610e46565b915060408401356001600160401b0381111561128a575f80fd5b61129686828701610f11565b9150509250925092565b5f805f80608085870312156112b3575f80fd5b84356112be81610e46565b935060208501356112ce81610e46565b925060408501356112de81610e46565b9396929550929360600135925050565b5f602082840312156112fe575f80fd5b81516108da81610e46565b5f5b8381101561132357818101518382015260200161130b565b50505f910152565b5f8151808452611342816020860160208601611309565b601f01601f19169290920160200192915050565b6001600160a01b03831681526040602082018190525f906103fc9083018461132b565b6001600160a01b0391909116815260200190565b5f805f6060848603121561139f575f80fd5b83516113aa81610e46565b6020850151604086015191945092506110b8816110c3565b6001600160a01b038581168252841660208201526001600160801b03831660408201526080606082018190525f9061054e9083018461132b565b5f6020828403121561140c575f80fd5b81516108da816110c3565b5f8060408385031215611428575f80fd5b8251611433816110c3565b6020840151909250611238816110c3565b6001600160a01b038681168252858116602083015284166040820152600b83900b606082015260a0608082018190525f906107e99083018461132b565b6001600160a01b0386811682528581166020830152841660408201526060810183905260a0608082018190525f906107e99083018461132b565b6001600160a01b0392831681529116602082015260400190565b5f602082840312156114e5575f80fd5b81516108da81610e6e565b6001600160a01b038481168252831660208201526060604082018190525f906109de9083018461132b565b5f6020828403121561152b575f80fd5b5051919050565b604081525f611544604083018561132b565b82810360208401526109de818561132b565b634e487b7160e01b5f52603260045260245ffd5b5f60208083018184528085518083526040925060408601915060408160051b8701018488015f5b838110156115ea57888303603f190185528151805163ffffffff168452878101516001600160a01b03168885015286015160608785018190526115d68186018361132b565b968901969450505090860190600101611591565b509098975050505050505050565b5f8351611609818460208801611309565b60609390931b6001600160601b0319169190920190815260140192915050565b5f825161163a818460208701611309565b9190910192915050565b602081525f6108da602083018461132b56fea164736f6c6343000817000a","linkReferences":{}},"methodIdentifiers":{"claimAll(address,address,bytes)":"d2c0d542","connectPool(address,bytes)":"f0b7b915","createPool(address,address,(bool,bool))":"0779d365","disconnectPool(address,bytes)":"30925b79","distribute(address,address,address,uint256,bytes)":"6d1007a6","distributeFlow(address,address,address,int96,bytes)":"5a6c6dbc","estimateDistributionActualAmount(address,address,address,uint256)":"eccfc6a5","estimateFlowDistributionActualFlowRate(address,address,address,int96)":"4d5c91ec","getFlowDistributionFlowRate(address,address,address)":"44999ff7","getNetFlow(address,address)":"e8e7e2d1","getPoolAdjustmentFlowInfo(address)":"37bd42e0","getPoolAdjustmentFlowRate(address)":"4e9ced57","isMemberConnected(address,address)":"c782eb9c","isPool(address,address)":"7b2cc0da","updateMemberUnits(address,address,uint128,bytes)":"398c74e1"},"storageLayout":{"storage":[],"types":{}},"id":134}