{"abi":[{"type":"function","name":"COUNCIL_MEMBER","inputs":[],"outputs":[{"name":"","type":"bytes32","internalType":"bytes32"}],"stateMutability":"view"},{"type":"function","name":"DEFAULT_ADMIN_ROLE","inputs":[],"outputs":[{"name":"","type":"bytes32","internalType":"bytes32"}],"stateMutability":"view"},{"type":"function","name":"MAX_FEE","inputs":[],"outputs":[{"name":"","type":"uint256","internalType":"uint256"}],"stateMutability":"view"},{"type":"function","name":"MAX_STRATEGIES_PER_MEMBER","inputs":[],"outputs":[{"name":"","type":"uint256","internalType":"uint256"}],"stateMutability":"view"},{"type":"function","name":"NATIVE","inputs":[],"outputs":[{"name":"","type":"address","internalType":"address"}],"stateMutability":"view"},{"type":"function","name":"PRECISION_SCALE","inputs":[],"outputs":[{"name":"","type":"uint256","internalType":"uint256"}],"stateMutability":"view"},{"type":"function","name":"VERSION","inputs":[],"outputs":[{"name":"","type":"string","internalType":"string"}],"stateMutability":"view"},{"type":"function","name":"acceptCouncilSafe","inputs":[],"outputs":[],"stateMutability":"nonpayable"},{"type":"function","name":"addressToMemberInfo","inputs":[{"name":"member","type":"address","internalType":"address"}],"outputs":[{"name":"member","type":"address","internalType":"address"},{"name":"stakedAmount","type":"uint256","internalType":"uint256"},{"name":"isRegistered","type":"bool","internalType":"bool"}],"stateMutability":"view"},{"type":"function","name":"allo","inputs":[],"outputs":[{"name":"","type":"address","internalType":"contract FAllo"}],"stateMutability":"view"},{"type":"function","name":"cloneNonce","inputs":[],"outputs":[{"name":"","type":"uint256","internalType":"uint256"}],"stateMutability":"view"},{"type":"function","name":"collateralVaultTemplate","inputs":[],"outputs":[{"name":"","type":"address","internalType":"address"}],"stateMutability":"view"},{"type":"function","name":"communityFee","inputs":[],"outputs":[{"name":"","type":"uint256","internalType":"uint256"}],"stateMutability":"view"},{"type":"function","name":"communityName","inputs":[],"outputs":[{"name":"","type":"string","internalType":"string"}],"stateMutability":"view"},{"type":"function","name":"councilSafe","inputs":[],"outputs":[{"name":"","type":"address","internalType":"contract ISafe"}],"stateMutability":"view"},{"type":"function","name":"covenantIpfsHash","inputs":[],"outputs":[{"name":"","type":"string","internalType":"string"}],"stateMutability":"view"},{"type":"function","name":"enabledStrategies","inputs":[{"name":"strategy","type":"address","internalType":"address"}],"outputs":[{"name":"isEnabled","type":"bool","internalType":"bool"}],"stateMutability":"view"},{"type":"function","name":"feeReceiver","inputs":[],"outputs":[{"name":"","type":"address","internalType":"address"}],"stateMutability":"view"},{"type":"function","name":"gardenToken","inputs":[],"outputs":[{"name":"","type":"address","internalType":"contract IERC20"}],"stateMutability":"view"},{"type":"function","name":"getRoleAdmin","inputs":[{"name":"role","type":"bytes32","internalType":"bytes32"}],"outputs":[{"name":"","type":"bytes32","internalType":"bytes32"}],"stateMutability":"view"},{"type":"function","name":"grantRole","inputs":[{"name":"role","type":"bytes32","internalType":"bytes32"},{"name":"account","type":"address","internalType":"address"}],"outputs":[],"stateMutability":"nonpayable"},{"type":"function","name":"hasRole","inputs":[{"name":"role","type":"bytes32","internalType":"bytes32"},{"name":"account","type":"address","internalType":"address"}],"outputs":[{"name":"","type":"bool","internalType":"bool"}],"stateMutability":"view"},{"type":"function","name":"initialize","inputs":[{"name":"initialOwner","type":"address","internalType":"address"}],"outputs":[],"stateMutability":"nonpayable"},{"type":"function","name":"isCouncilMember","inputs":[{"name":"_member","type":"address","internalType":"address"}],"outputs":[{"name":"","type":"bool","internalType":"bool"}],"stateMutability":"view"},{"type":"function","name":"isKickEnabled","inputs":[],"outputs":[{"name":"","type":"bool","internalType":"bool"}],"stateMutability":"view"},{"type":"function","name":"memberActivatedInStrategies","inputs":[{"name":"member","type":"address","internalType":"address"},{"name":"strategy","type":"address","internalType":"address"}],"outputs":[{"name":"isActivated","type":"bool","internalType":"bool"}],"stateMutability":"view"},{"type":"function","name":"memberPowerInStrategy","inputs":[{"name":"strategy","type":"address","internalType":"address"},{"name":"member","type":"address","internalType":"address"}],"outputs":[{"name":"power","type":"uint256","internalType":"uint256"}],"stateMutability":"view"},{"type":"function","name":"owner","inputs":[],"outputs":[{"name":"","type":"address","internalType":"address"}],"stateMutability":"view"},{"type":"function","name":"pendingCouncilSafe","inputs":[],"outputs":[{"name":"","type":"address","internalType":"address payable"}],"stateMutability":"view"},{"type":"function","name":"profileId","inputs":[],"outputs":[{"name":"","type":"bytes32","internalType":"bytes32"}],"stateMutability":"view"},{"type":"function","name":"proxiableUUID","inputs":[],"outputs":[{"name":"","type":"bytes32","internalType":"bytes32"}],"stateMutability":"view"},{"type":"function","name":"proxyOwner","inputs":[],"outputs":[{"name":"","type":"address","internalType":"address"}],"stateMutability":"view"},{"type":"function","name":"registerStakeAmount","inputs":[],"outputs":[{"name":"","type":"uint256","internalType":"uint256"}],"stateMutability":"view"},{"type":"function","name":"registry","inputs":[],"outputs":[{"name":"","type":"address","internalType":"contract IRegistry"}],"stateMutability":"view"},{"type":"function","name":"registryFactory","inputs":[],"outputs":[{"name":"","type":"address","internalType":"address"}],"stateMutability":"view"},{"type":"function","name":"renounceOwnership","inputs":[],"outputs":[],"stateMutability":"nonpayable"},{"type":"function","name":"renounceRole","inputs":[{"name":"role","type":"bytes32","internalType":"bytes32"},{"name":"account","type":"address","internalType":"address"}],"outputs":[],"stateMutability":"nonpayable"},{"type":"function","name":"revokeRole","inputs":[{"name":"role","type":"bytes32","internalType":"bytes32"},{"name":"account","type":"address","internalType":"address"}],"outputs":[],"stateMutability":"nonpayable"},{"type":"function","name":"setArchived","inputs":[{"name":"_isArchived","type":"bool","internalType":"bool"}],"outputs":[],"stateMutability":"nonpayable"},{"type":"function","name":"setBasisStakedAmount","inputs":[{"name":"_newAmount","type":"uint256","internalType":"uint256"}],"outputs":[],"stateMutability":"nonpayable"},{"type":"function","name":"setCollateralVaultTemplate","inputs":[{"name":"template","type":"address","internalType":"address"}],"outputs":[],"stateMutability":"nonpayable"},{"type":"function","name":"setCommunityFee","inputs":[{"name":"_newCommunityFee","type":"uint256","internalType":"uint256"}],"outputs":[],"stateMutability":"nonpayable"},{"type":"function","name":"setCommunityParams","inputs":[{"name":"_params","type":"tuple","internalType":"struct CommunityParams","components":[{"name":"councilSafe","type":"address","internalType":"address"},{"name":"feeReceiver","type":"address","internalType":"address"},{"name":"communityFee","type":"uint256","internalType":"uint256"},{"name":"communityName","type":"string","internalType":"string"},{"name":"registerStakeAmount","type":"uint256","internalType":"uint256"},{"name":"isKickEnabled","type":"bool","internalType":"bool"},{"name":"covenantIpfsHash","type":"string","internalType":"string"}]}],"outputs":[],"stateMutability":"nonpayable"},{"type":"function","name":"setCouncilSafe","inputs":[{"name":"_safe","type":"address","internalType":"address payable"}],"outputs":[],"stateMutability":"nonpayable"},{"type":"function","name":"setStrategyTemplate","inputs":[{"name":"template","type":"address","internalType":"address"}],"outputs":[],"stateMutability":"nonpayable"},{"type":"function","name":"strategiesByMember","inputs":[{"name":"member","type":"address","internalType":"address"},{"name":"","type":"uint256","internalType":"uint256"}],"outputs":[{"name":"strategiesAddresses","type":"address","internalType":"address"}],"stateMutability":"view"},{"type":"function","name":"strategyTemplate","inputs":[],"outputs":[{"name":"","type":"address","internalType":"address"}],"stateMutability":"view"},{"type":"function","name":"supportsInterface","inputs":[{"name":"interfaceId","type":"bytes4","internalType":"bytes4"}],"outputs":[{"name":"","type":"bool","internalType":"bool"}],"stateMutability":"view"},{"type":"function","name":"totalMembers","inputs":[],"outputs":[{"name":"","type":"uint256","internalType":"uint256"}],"stateMutability":"view"},{"type":"function","name":"transferOwnership","inputs":[{"name":"newOwner","type":"address","internalType":"address"}],"outputs":[],"stateMutability":"nonpayable"},{"type":"function","name":"upgradeTo","inputs":[{"name":"newImplementation","type":"address","internalType":"address"}],"outputs":[],"stateMutability":"nonpayable"},{"type":"function","name":"upgradeToAndCall","inputs":[{"name":"newImplementation","type":"address","internalType":"address"},{"name":"data","type":"bytes","internalType":"bytes"}],"outputs":[],"stateMutability":"payable"},{"type":"event","name":"AdminChanged","inputs":[{"name":"previousAdmin","type":"address","indexed":false,"internalType":"address"},{"name":"newAdmin","type":"address","indexed":false,"internalType":"address"}],"anonymous":false},{"type":"event","name":"BasisStakedAmountUpdated","inputs":[{"name":"_newAmount","type":"uint256","indexed":false,"internalType":"uint256"}],"anonymous":false},{"type":"event","name":"BeaconUpgraded","inputs":[{"name":"beacon","type":"address","indexed":true,"internalType":"address"}],"anonymous":false},{"type":"event","name":"CommunityArchived","inputs":[{"name":"_archived","type":"bool","indexed":false,"internalType":"bool"}],"anonymous":false},{"type":"event","name":"CommunityFeeUpdated","inputs":[{"name":"_newFee","type":"uint256","indexed":false,"internalType":"uint256"}],"anonymous":false},{"type":"event","name":"CommunityNameUpdated","inputs":[{"name":"_communityName","type":"string","indexed":false,"internalType":"string"}],"anonymous":false},{"type":"event","name":"CouncilSafeChangeStarted","inputs":[{"name":"_safeOwner","type":"address","indexed":false,"internalType":"address"},{"name":"_newSafeOwner","type":"address","indexed":false,"internalType":"address"}],"anonymous":false},{"type":"event","name":"CouncilSafeUpdated","inputs":[{"name":"_safe","type":"address","indexed":false,"internalType":"address"}],"anonymous":false},{"type":"event","name":"CovenantIpfsHashUpdated","inputs":[{"name":"_covenantIpfsHash","type":"string","indexed":false,"internalType":"string"}],"anonymous":false},{"type":"event","name":"FeeReceiverChanged","inputs":[{"name":"_feeReceiver","type":"address","indexed":false,"internalType":"address"}],"anonymous":false},{"type":"event","name":"Initialized","inputs":[{"name":"version","type":"uint8","indexed":false,"internalType":"uint8"}],"anonymous":false},{"type":"event","name":"KickEnabledUpdated","inputs":[{"name":"_isKickEnabled","type":"bool","indexed":false,"internalType":"bool"}],"anonymous":false},{"type":"event","name":"OwnershipTransferred","inputs":[{"name":"previousOwner","type":"address","indexed":true,"internalType":"address"},{"name":"newOwner","type":"address","indexed":true,"internalType":"address"}],"anonymous":false},{"type":"event","name":"RoleAdminChanged","inputs":[{"name":"role","type":"bytes32","indexed":true,"internalType":"bytes32"},{"name":"previousAdminRole","type":"bytes32","indexed":true,"internalType":"bytes32"},{"name":"newAdminRole","type":"bytes32","indexed":true,"internalType":"bytes32"}],"anonymous":false},{"type":"event","name":"RoleGranted","inputs":[{"name":"role","type":"bytes32","indexed":true,"internalType":"bytes32"},{"name":"account","type":"address","indexed":true,"internalType":"address"},{"name":"sender","type":"address","indexed":true,"internalType":"address"}],"anonymous":false},{"type":"event","name":"RoleRevoked","inputs":[{"name":"role","type":"bytes32","indexed":true,"internalType":"bytes32"},{"name":"account","type":"address","indexed":true,"internalType":"address"},{"name":"sender","type":"address","indexed":true,"internalType":"address"}],"anonymous":false},{"type":"event","name":"Upgraded","inputs":[{"name":"implementation","type":"address","indexed":true,"internalType":"address"}],"anonymous":false},{"type":"error","name":"CallerNotOwner","inputs":[{"name":"_caller","type":"address","internalType":"address"},{"name":"_owner","type":"address","internalType":"address"}]},{"type":"error","name":"CommunityPaused","inputs":[{"name":"controller","type":"address","internalType":"address"}]},{"type":"error","name":"CommunitySelectorPaused","inputs":[{"name":"selector","type":"bytes4","internalType":"bytes4"},{"name":"controller","type":"address","internalType":"address"}]},{"type":"error","name":"NewFeeGreaterThanMax","inputs":[]},{"type":"error","name":"OnlyEmptyCommunity","inputs":[{"name":"totalMembers","type":"uint256","internalType":"uint256"}]},{"type":"error","name":"SenderNotNewOwner","inputs":[]},{"type":"error","name":"UserNotInCouncil","inputs":[{"name":"_user","type":"address","internalType":"address"}]},{"type":"error","name":"ValueCannotBeZero","inputs":[]}],"bytecode":{"object":"0x60a06040523060805234801562000014575f80fd5b506200001f62000025565b620000e3565b5f54610100900460ff1615620000915760405162461bcd60e51b815260206004820152602760248201527f496e697469616c697a61626c653a20636f6e747261637420697320696e697469604482015266616c697a696e6760c81b606482015260840160405180910390fd5b5f5460ff90811614620000e1575f805460ff191660ff9081179091556040519081527f7f26b83ff96e1f2b6a682f133852f6798a09c465da95921460cefb38474024989060200160405180910390a15b565b60805161253a620001185f395f8181610ba801528181610be801528181610d0801528181610d480152610dbf015261253a5ff3fe60806040526004361061024e575f3560e01c806301ffc9a714610252578063025313a21461028657806308386eba146102a75780630b03bb9a146102ca5780630d12bbdb146102eb5780631b71f0e41461030a5780631f787d2814610329578063248a9ca3146103415780632b38c69c146103605780632f2ff15d1461037f57806331f61bca1461039e57806333960459146103bd57806336568abe146103d25780633659cfe6146103f1578063397e2543146104105780633a871fe11461042f578063477a5cc01461045e5780634ef9119f146104985780634f1ef286146104ac57806352d1902d146104bf5780635c94e4d2146104d357806365e3864c146104f357806368decabb1461052a5780636c53db9a1461054a578063715018a61461056a578063733a2d1f1461057e57806376e925591461059e57806377122d56146105b457806378a0b8a9146105d45780637b103999146105e957806388cfe684146106095780638961be6b146106785780638da5cb5b1461068d57806391d14854146106a1578063a0cf0aea146106c0578063a217fddf146106e7578063b0d3713a146106fa578063b3f0067414610719578063b5058c501461073d578063b64e39af14610751578063bc063e1a14610772578063c4d66de814610786578063c6d572ae146107a5578063d547741f146107b9578063d6d8428d146107d8578063d7050f07146107f8578063db61d65c1461080d578063ebd7dc521461082d578063f2d774e71461084c578063f2fde38b1461086b578063f86c5f891461088a578063ffa1ad74146108aa575b5f80fd5b34801561025d575f80fd5b5061027161026c366004611d87565b6108d8565b60405190151581526020015b60405180910390f35b348015610291575f80fd5b5061029a61090e565b60405161027d9190611dae565b3480156102b2575f80fd5b506102bc60fe5481565b60405190815260200161027d565b3480156102d5575f80fd5b506102e96102e4366004611dd1565b610926565b005b3480156102f6575f80fd5b506102e9610305366004611dea565b61097b565b348015610315575f80fd5b506102e9610324366004611e20565b6109f9565b348015610334575f80fd5b5060ff8054610271911681565b34801561034c575f80fd5b506102bc61035b366004611dea565b610a5d565b34801561036b575f80fd5b5061029a61037a366004611e3b565b610a71565b34801561038a575f80fd5b506102e9610399366004611e65565b610aa6565b3480156103a9575f80fd5b506102e96103b8366004611dea565b610ac7565b3480156103c8575f80fd5b506102bc60fd5481565b3480156103dd575f80fd5b506102e96103ec366004611e65565b610b20565b3480156103fc575f80fd5b506102e961040b366004611e20565b610b9e565b34801561041b575f80fd5b506102e961042a366004611e20565b610c65565b34801561043a575f80fd5b50610271610449366004611e20565b61010a6020525f908152604090205460ff1681565b348015610469575f80fd5b50610271610478366004611e93565b61010e60209081525f928352604080842090915290825290205460ff1681565b3480156104a3575f80fd5b506102bc604081565b6102e96104ba366004611f6d565b610cfe565b3480156104ca575f80fd5b506102bc610db3565b3480156104de575f80fd5b506101025461029a906001600160a01b031681565b3480156104fe575f80fd5b506102bc61050d366004611e93565b61010b60209081525f928352604080842090915290825290205481565b348015610535575f80fd5b506101035461029a906001600160a01b031681565b348015610555575f80fd5b506101065461029a906001600160a01b031681565b348015610575575f80fd5b506102e9610e5f565b348015610589575f80fd5b506102bc5f805160206124a783398151915281565b3480156105a9575f80fd5b506102bc6101105481565b3480156105bf575f80fd5b506101015461029a906001600160a01b031681565b3480156105df575f80fd5b506102bc60fb5481565b3480156105f4575f80fd5b506101045461029a906001600160a01b031681565b348015610614575f80fd5b50610651610623366004611e20565b61010c6020525f90815260409020805460018201546002909201546001600160a01b03909116919060ff1683565b604080516001600160a01b039094168452602084019290925215159082015260600161027d565b348015610683575f80fd5b506102bc60fc5481565b348015610698575f80fd5b5061029a610e72565b3480156106ac575f80fd5b506102716106bb366004611e65565b610f05565b3480156106cb575f80fd5b5061029a73eeeeeeeeeeeeeeeeeeeeeeeeeeeeeeeeeeeeeeee81565b3480156106f2575f80fd5b506102bc5f81565b348015610705575f80fd5b506102e9610714366004611e20565b610f2f565b348015610724575f80fd5b5060ff5461029a9061010090046001600160a01b031681565b348015610748575f80fd5b506102e9610f8a565b34801561075c575f80fd5b50610765611087565b60405161027d9190611fee565b34801561077d575f80fd5b506102bc611114565b348015610791575f80fd5b506102e96107a0366004611e20565b611124565b3480156107b0575f80fd5b50610765611237565b3480156107c4575f80fd5b506102e96107d3366004611e65565b611245565b3480156107e3575f80fd5b506101075461029a906001600160a01b031681565b348015610803575f80fd5b506102bc61271081565b348015610818575f80fd5b506101055461029a906001600160a01b031681565b348015610838575f80fd5b50610271610847366004611e20565b611261565b348015610857575f80fd5b506102e961086636600461203e565b611279565b348015610876575f80fd5b506102e9610885366004611e20565b611529565b348015610895575f80fd5b506101005461029a906001600160a01b031681565b3480156108b5575f80fd5b50610765604051806040016040528060038152602001620302e360ec1b81525081565b5f6001600160e01b03198216637965db0b60e01b148061090857506301ffc9a760e01b6001600160e01b03198316145b92915050565b5f6109216033546001600160a01b031690565b905090565b5f356001600160e01b03191661093a575f80fd5b61094261159f565b60405181151581527f886a0d3c8ef17c1d6de13b8581d5465743d7ebf0f69164667b690350cd1ee688906020015b60405180910390a150565b5f356001600160e01b03191661098f575f80fd5b61099761159f565b6109a4612710600a612123565b8111156109c45760405163fe925f7d60e01b815260040160405180910390fd5b60fc8190556040518181527f611668bfcf654a99c33cdb66c29ec37a5aae5c1287d2d9715a24e18cb4d806d690602001610970565b610a01610e72565b6001600160a01b0316336001600160a01b031614610a3a5760405162461bcd60e51b8152600401610a319061213a565b60405180910390fd5b61010280546001600160a01b0319166001600160a01b0392909216919091179055565b5f90815260c9602052604090206001015490565b61010d602052815f5260405f208181548110610a8b575f80fd5b5f918252602090912001546001600160a01b03169150829050565b610aaf82610a5d565b610ab8816115d5565b610ac283836115df565b505050565b5f356001600160e01b031916610adb575f80fd5b610ae361159f565b610aeb611664565b60fb8190556040518181527f5e2d447f427e49fd08832fd025a56589500352417199aa65728feaf05123e85690602001610970565b6001600160a01b0381163314610b905760405162461bcd60e51b815260206004820152602f60248201527f416363657373436f6e74726f6c3a2063616e206f6e6c792072656e6f756e636560448201526e103937b632b9903337b91039b2b63360891b6064820152608401610a31565b610b9a828261168d565b5050565b6001600160a01b037f0000000000000000000000000000000000000000000000000000000000000000163003610be65760405162461bcd60e51b8152600401610a319061216f565b7f00000000000000000000000000000000000000000000000000000000000000006001600160a01b0316610c186116f3565b6001600160a01b031614610c3e5760405162461bcd60e51b8152600401610a31906121a8565b610c478161170e565b604080515f80825260208201909252610c6291839190611749565b50565b5f356001600160e01b031916610c79575f80fd5b610c8161159f565b6001600160a01b038116610ca8576040516363868c5560e11b815260040160405180910390fd5b61010380546001600160a01b0319166001600160a01b03838116918217909255610106546040517f83eac9fdaff0ac1017624b7eddeb9782e3d707cd894073cb7e8301a41c6e5cf89361097093921691906121e1565b6001600160a01b037f0000000000000000000000000000000000000000000000000000000000000000163003610d465760405162461bcd60e51b8152600401610a319061216f565b7f00000000000000000000000000000000000000000000000000000000000000006001600160a01b0316610d786116f3565b6001600160a01b031614610d9e5760405162461bcd60e51b8152600401610a31906121a8565b610da78261170e565b610b9a82826001611749565b5f306001600160a01b037f00000000000000000000000000000000000000000000000000000000000000001614610e4d5760405162461bcd60e51b815260206004820152603860248201527f555550535570677261646561626c653a206d757374206e6f742062652063616c6044820152771b1959081d1a1c9bdd59da0819195b1959d85d1958d85b1b60421b6064820152608401610a31565b505f805160206124e783398151915290565b610e676118b3565b610e705f6118e2565b565b5f610e7b61090e565b6001600160a01b03163b5f03610e935761092161090e565b610e9b61090e565b6001600160a01b0316638da5cb5b6040518163ffffffff1660e01b8152600401602060405180830381865afa925050508015610ef4575060408051601f3d908101601f19168201909252610ef1918101906121fb565b60015b610f005761092161090e565b919050565b5f91825260c9602090815260408084206001600160a01b0393909316845291905290205460ff1690565b610f37610e72565b6001600160a01b0316336001600160a01b031614610f675760405162461bcd60e51b8152600401610a319061213a565b61010180546001600160a01b0319166001600160a01b0392909216919091179055565b610103546001600160a01b03163314610fb6576040516375e686b760e11b815260040160405180910390fd5b61010354610106546001600160a01b039081169116146110745761010354610ff5905f805160206124a7833981519152906001600160a01b03166115df565b6101065461101a905f805160206124a7833981519152906001600160a01b031661168d565b6101035461010680546001600160a01b0319166001600160a01b0390921691821790556040517ffea29da7321ca6d0ee0a7359009bb9d4a57035aea0ef6cb4d062341f4a9615199161106b91611dae565b60405180910390a15b61010380546001600160a01b0319169055565b610109805461109590612216565b80601f01602080910402602001604051908101604052809291908181526020018280546110c190612216565b801561110c5780601f106110e35761010080835404028352916020019161110c565b820191905f5260205f20905b8154815290600101906020018083116110ef57829003601f168201915b505050505081565b611121612710600a612123565b81565b5f54610100900460ff161580801561114257505f54600160ff909116105b80611162575061115130611933565b15801561116257505f5460ff166001145b6111c55760405162461bcd60e51b815260206004820152602e60248201527f496e697469616c697a61626c653a20636f6e747261637420697320616c72656160448201526d191e481a5b9a5d1a585b1a5e995960921b6064820152608401610a31565b5f805460ff1916600117905580156111e6575f805461ff0019166101001790555b6111ef826118e2565b8015610b9a575f805461ff0019169055604051600181527f7f26b83ff96e1f2b6a682f133852f6798a09c465da95921460cefb38474024989060200160405180910390a15050565b610108805461109590612216565b61124e82610a5d565b611257816115d5565b610ac2838361168d565b5f6109085f805160206124a783398151915283610f05565b5f356001600160e01b03191661128d575f80fd5b61129561159f565b60fb5481608001511415806112b7575060ff805460a083015115159116151514155b806112e457506101096040516112cd919061224e565b60405180910390208160c001518051906020012014155b156113e1576112f1611664565b60fb5481608001511461130b5761130b8160800151610ac7565b60ff805460a0830151151591161515146113685760a081015160ff805460ff191691151591821790556040519081527f4ca826489011b9a44719ccfa206813b072bb58604af41f245a6a1a6d913588759060200160405180910390a15b610109604051611378919061224e565b60405180910390208160c0015180519060200120146113e15760c0810151610109906113a4908261230b565b507f8fd46764d9fde733a671bd3aa6710da0668b1c4eb78d33f42e104553ea4bc76e8160c001516040516113d89190611fee565b60405180910390a15b6101086040516113f1919061224e565b60405180910390208160600151805190602001201461145a5760608101516101089061141d908261230b565b507ff67fb6c95f41f58a276869ca2608214f0a6aab1c9ffe445affaa58680fddd49781606001516040516114519190611fee565b60405180910390a15b60fc5481604001511461147457611474816040015161097b565b60ff5460208201516001600160a01b0390811661010090920416146114ef57602081015160ff8054610100600160a81b0319166101006001600160a01b038416021790556040517f647672599d3468abcfa241a13c9e3d34383caadb5cc80fb67c3cdfcd5f786059916114e691611dae565b60405180910390a15b80516001600160a01b03161580159061151957506101065481516001600160a01b03908116911614155b15610c62578051610c6290610c65565b6115316118b3565b6001600160a01b0381166115965760405162461bcd60e51b815260206004820152602660248201527f4f776e61626c653a206e6577206f776e657220697320746865207a65726f206160448201526564647265737360d01b6064820152608401610a31565b610c62816118e2565b6115b65f805160206124a783398151915233610f05565b610e70573360405163fc4be72f60e01b8152600401610a319190611dae565b610c628133611942565b6115e98282610f05565b610b9a575f82815260c9602090815260408083206001600160a01b03851684529091529020805460ff191660011790556116203390565b6001600160a01b0316816001600160a01b0316837f2f8788117e7eff1d82e926ec794901d17c78024a50270940304540a733656f0d60405160405180910390a45050565b6101105415610e705761011054604051637d95539f60e11b8152600401610a3191815260200190565b6116978282610f05565b15610b9a575f82815260c9602090815260408083206001600160a01b0385168085529252808320805460ff1916905551339285917ff6391f5c32d9c69d2a47ea670b442974b53935d1edc7fd64eb21e047a839171b9190a45050565b5f805160206124e7833981519152546001600160a01b031690565b33611717610e72565b6001600160a01b031614610c62573361172e610e72565b60405163163678e960e01b8152600401610a319291906121e1565b7f4910fdfa16fed3260ed0e7147f7cc6da11a60208b5b9406d12a635614ffd91435460ff161561177c57610ac28361199b565b826001600160a01b03166352d1902d6040518163ffffffff1660e01b8152600401602060405180830381865afa9250505080156117d6575060408051601f3d908101601f191682019092526117d3918101906123ca565b60015b6118395760405162461bcd60e51b815260206004820152602e60248201527f45524331393637557067726164653a206e657720696d706c656d656e7461746960448201526d6f6e206973206e6f74205555505360901b6064820152608401610a31565b5f805160206124e783398151915281146118a75760405162461bcd60e51b815260206004820152602960248201527f45524331393637557067726164653a20756e737570706f727465642070726f786044820152681a58589b195555525160ba1b6064820152608401610a31565b50610ac2838383611a34565b336118bc610e72565b6001600160a01b031614610e705760405162461bcd60e51b8152600401610a319061213a565b603380546001600160a01b038381166001600160a01b0319831681179093556040519116919082907f8be0079c531659141344cd1fd0a4f28419497f9722a3daafe3b4186f6b6457e0905f90a35050565b6001600160a01b03163b151590565b61194c8282610f05565b610b9a5761195981611a5e565b611964836020611a70565b6040516020016119759291906123e1565b60408051601f198184030181529082905262461bcd60e51b8252610a3191600401611fee565b6119a481611933565b611a065760405162461bcd60e51b815260206004820152602d60248201527f455243313936373a206e657720696d706c656d656e746174696f6e206973206e60448201526c1bdd08184818dbdb9d1c9858dd609a1b6064820152608401610a31565b5f805160206124e783398151915280546001600160a01b0319166001600160a01b0392909216919091179055565b611a3d83611c0c565b5f82511180611a495750805b15610ac257611a588383611c4b565b50505050565b60606109086001600160a01b03831660145b60605f611a7e836002612123565b611a8990600261244f565b6001600160401b03811115611aa057611aa0611ebf565b6040519080825280601f01601f191660200182016040528015611aca576020820181803683370190505b509050600360fc1b815f81518110611ae457611ae4612462565b60200101906001600160f81b03191690815f1a905350600f60fb1b81600181518110611b1257611b12612462565b60200101906001600160f81b03191690815f1a9053505f611b34846002612123565b611b3f90600161244f565b90505b6001811115611bb6576f181899199a1a9b1b9c1cb0b131b232b360811b85600f1660108110611b7357611b73612462565b1a60f81b828281518110611b8957611b89612462565b60200101906001600160f81b03191690815f1a90535060049490941c93611baf81612476565b9050611b42565b508315611c055760405162461bcd60e51b815260206004820181905260248201527f537472696e67733a20686578206c656e67746820696e73756666696369656e746044820152606401610a31565b9392505050565b611c158161199b565b6040516001600160a01b038216907fbc7cd75a20ee27fd9adebab32041f755214dbc6bffa90cc0225b39da2e5c2d3b905f90a250565b6060611c0583836040518060600160405280602781526020016125076027913960605f80856001600160a01b031685604051611c87919061248b565b5f60405180830381855af49150503d805f8114611cbf576040519150601f19603f3d011682016040523d82523d5f602084013e611cc4565b606091505b5091509150611cd586838387611cdf565b9695505050505050565b60608315611d4b5782515f03611d4457611cf885611933565b611d445760405162461bcd60e51b815260206004820152601d60248201527f416464726573733a2063616c6c20746f206e6f6e2d636f6e74726163740000006044820152606401610a31565b5081611d55565b611d558383611d5d565b949350505050565b815115611d6d5781518083602001fd5b8060405162461bcd60e51b8152600401610a319190611fee565b5f60208284031215611d97575f80fd5b81356001600160e01b031981168114611c05575f80fd5b6001600160a01b0391909116815260200190565b80358015158114610f00575f80fd5b5f60208284031215611de1575f80fd5b611c0582611dc2565b5f60208284031215611dfa575f80fd5b5035919050565b6001600160a01b0381168114610c62575f80fd5b8035610f0081611e01565b5f60208284031215611e30575f80fd5b8135611c0581611e01565b5f8060408385031215611e4c575f80fd5b8235611e5781611e01565b946020939093013593505050565b5f8060408385031215611e76575f80fd5b823591506020830135611e8881611e01565b809150509250929050565b5f8060408385031215611ea4575f80fd5b8235611eaf81611e01565b91506020830135611e8881611e01565b634e487b7160e01b5f52604160045260245ffd5b60405160e081016001600160401b0381118282101715611ef557611ef5611ebf565b60405290565b5f6001600160401b0380841115611f1457611f14611ebf565b604051601f8501601f19908116603f01168101908282118183101715611f3c57611f3c611ebf565b81604052809350858152868686011115611f54575f80fd5b858560208301375f602087830101525050509392505050565b5f8060408385031215611f7e575f80fd5b8235611f8981611e01565b915060208301356001600160401b03811115611fa3575f80fd5b8301601f81018513611fb3575f80fd5b611fc285823560208401611efb565b9150509250929050565b5f5b83811015611fe6578181015183820152602001611fce565b50505f910152565b602081525f825180602084015261200c816040850160208701611fcc565b601f01601f19169190910160400192915050565b5f82601f83011261202f575f80fd5b611c0583833560208501611efb565b5f6020828403121561204e575f80fd5b81356001600160401b0380821115612064575f80fd5b9083019060e08286031215612077575f80fd5b61207f611ed3565b61208883611e15565b815261209660208401611e15565b6020820152604083013560408201526060830135828111156120b6575f80fd5b6120c287828601612020565b606083015250608083013560808201526120de60a08401611dc2565b60a082015260c0830135828111156120f4575f80fd5b61210087828601612020565b60c08301525095945050505050565b634e487b7160e01b5f52601160045260245ffd5b80820281158282048414176109085761090861210f565b6020808252818101527f4f776e61626c653a2063616c6c6572206973206e6f7420746865206f776e6572604082015260600190565b6020808252602c908201525f805160206124c783398151915260408201526b19195b1959d85d1958d85b1b60a21b606082015260800190565b6020808252602c908201525f805160206124c783398151915260408201526b6163746976652070726f787960a01b606082015260800190565b6001600160a01b0392831681529116602082015260400190565b5f6020828403121561220b575f80fd5b8151611c0581611e01565b600181811c9082168061222a57607f821691505b60208210810361224857634e487b7160e01b5f52602260045260245ffd5b50919050565b5f80835461225b81612216565b600182811680156122735760018114612288576122b4565b60ff19841687528215158302870194506122b4565b875f526020805f205f5b858110156122ab5781548a820152908401908201612292565b50505082870194505b50929695505050505050565b601f821115610ac257805f5260205f20601f840160051c810160208510156122e55750805b601f840160051c820191505b81811015612304575f81556001016122f1565b5050505050565b81516001600160401b0381111561232457612324611ebf565b612338816123328454612216565b846122c0565b602080601f83116001811461236b575f84156123545750858301515b5f19600386901b1c1916600185901b1785556123c2565b5f85815260208120601f198616915b828110156123995788860151825594840194600190910190840161237a565b50858210156123b657878501515f19600388901b60f8161c191681555b505060018460011b0185555b505050505050565b5f602082840312156123da575f80fd5b5051919050565b76020b1b1b2b9b9a1b7b73a3937b61d1030b1b1b7bab73a1604d1b81525f8351612412816017850160208801611fcc565b7001034b99036b4b9b9b4b733903937b6329607d1b6017918401918201528351612443816028840160208801611fcc565b01602801949350505050565b808201808211156109085761090861210f565b634e487b7160e01b5f52603260045260245ffd5b5f816124845761248461210f565b505f190190565b5f825161249c818460208701611fcc565b919091019291505056fe03be538b6391ddcd7f2649585cc95b120c9e2a613f70714fbb55345057d809fa46756e6374696f6e206d7573742062652063616c6c6564207468726f75676820360894a13ba1a3210667c828492db98dca3e2076cc3735a920a3ca505d382bbc416464726573733a206c6f772d6c6576656c2064656c65676174652063616c6c206661696c6564a164736f6c6343000817000a","linkReferences":{}},"methodIdentifiers":{"COUNCIL_MEMBER()":"733a2d1f","DEFAULT_ADMIN_ROLE()":"a217fddf","MAX_FEE()":"bc063e1a","MAX_STRATEGIES_PER_MEMBER()":"4ef9119f","NATIVE()":"a0cf0aea","PRECISION_SCALE()":"d7050f07","VERSION()":"ffa1ad74","acceptCouncilSafe()":"b5058c50","addressToMemberInfo(address)":"88cfe684","allo()":"d6d8428d","cloneNonce()":"33960459","collateralVaultTemplate()":"77122d56","communityFee()":"8961be6b","communityName()":"c6d572ae","councilSafe()":"6c53db9a","covenantIpfsHash()":"b64e39af","enabledStrategies(address)":"3a871fe1","feeReceiver()":"b3f00674","gardenToken()":"db61d65c","getRoleAdmin(bytes32)":"248a9ca3","grantRole(bytes32,address)":"2f2ff15d","hasRole(bytes32,address)":"91d14854","initialize(address)":"c4d66de8","isCouncilMember(address)":"ebd7dc52","isKickEnabled()":"1f787d28","memberActivatedInStrategies(address,address)":"477a5cc0","memberPowerInStrategy(address,address)":"65e3864c","owner()":"8da5cb5b","pendingCouncilSafe()":"68decabb","profileId()":"08386eba","proxiableUUID()":"52d1902d","proxyOwner()":"025313a2","registerStakeAmount()":"78a0b8a9","registry()":"7b103999","registryFactory()":"f86c5f89","renounceOwnership()":"715018a6","renounceRole(bytes32,address)":"36568abe","revokeRole(bytes32,address)":"d547741f","setArchived(bool)":"0b03bb9a","setBasisStakedAmount(uint256)":"31f61bca","setCollateralVaultTemplate(address)":"b0d3713a","setCommunityFee(uint256)":"0d12bbdb","setCommunityParams((address,address,uint256,string,uint256,bool,string))":"f2d774e7","setCouncilSafe(address)":"397e2543","setStrategyTemplate(address)":"1b71f0e4","strategiesByMember(address,uint256)":"2b38c69c","strategyTemplate()":"5c94e4d2","supportsInterface(bytes4)":"01ffc9a7","totalMembers()":"76e92559","transferOwnership(address)":"f2fde38b","upgradeTo(address)":"3659cfe6","upgradeToAndCall(address,bytes)":"4f1ef286"},"storageLayout":{"storage":[{"astId":52241,"contract":"pkg/contracts/src/RegistryCommunity/facets/CommunityAdminFacet.sol:CommunityAdminFacet","label":"_initialized","offset":0,"slot":"0","type":"t_uint8"},{"astId":52244,"contract":"pkg/contracts/src/RegistryCommunity/facets/CommunityAdminFacet.sol:CommunityAdminFacet","label":"_initializing","offset":1,"slot":"0","type":"t_bool"},{"astId":52946,"contract":"pkg/contracts/src/RegistryCommunity/facets/CommunityAdminFacet.sol:CommunityAdminFacet","label":"__gap","offset":0,"slot":"1","type":"t_array(t_uint256)50_storage"},{"astId":52033,"contract":"pkg/contracts/src/RegistryCommunity/facets/CommunityAdminFacet.sol:CommunityAdminFacet","label":"_owner","offset":0,"slot":"51","type":"t_address"},{"astId":52153,"contract":"pkg/contracts/src/RegistryCommunity/facets/CommunityAdminFacet.sol:CommunityAdminFacet","label":"__gap","offset":0,"slot":"52","type":"t_array(t_uint256)49_storage"},{"astId":52418,"contract":"pkg/contracts/src/RegistryCommunity/facets/CommunityAdminFacet.sol:CommunityAdminFacet","label":"_status","offset":0,"slot":"101","type":"t_uint256"},{"astId":52487,"contract":"pkg/contracts/src/RegistryCommunity/facets/CommunityAdminFacet.sol:CommunityAdminFacet","label":"__gap","offset":0,"slot":"102","type":"t_array(t_uint256)49_storage"},{"astId":53220,"contract":"pkg/contracts/src/RegistryCommunity/facets/CommunityAdminFacet.sol:CommunityAdminFacet","label":"__gap","offset":0,"slot":"151","type":"t_array(t_uint256)50_storage"},{"astId":51640,"contract":"pkg/contracts/src/RegistryCommunity/facets/CommunityAdminFacet.sol:CommunityAdminFacet","label":"_roles","offset":0,"slot":"201","type":"t_mapping(t_bytes32,t_struct(RoleData)51635_storage)"},{"astId":51947,"contract":"pkg/contracts/src/RegistryCommunity/facets/CommunityAdminFacet.sol:CommunityAdminFacet","label":"__gap","offset":0,"slot":"202","type":"t_array(t_uint256)49_storage"},{"astId":106334,"contract":"pkg/contracts/src/RegistryCommunity/facets/CommunityAdminFacet.sol:CommunityAdminFacet","label":"registerStakeAmount","offset":0,"slot":"251","type":"t_uint256"},{"astId":106337,"contract":"pkg/contracts/src/RegistryCommunity/facets/CommunityAdminFacet.sol:CommunityAdminFacet","label":"communityFee","offset":0,"slot":"252","type":"t_uint256"},{"astId":106340,"contract":"pkg/contracts/src/RegistryCommunity/facets/CommunityAdminFacet.sol:CommunityAdminFacet","label":"cloneNonce","offset":0,"slot":"253","type":"t_uint256"},{"astId":106343,"contract":"pkg/contracts/src/RegistryCommunity/facets/CommunityAdminFacet.sol:CommunityAdminFacet","label":"profileId","offset":0,"slot":"254","type":"t_bytes32"},{"astId":106346,"contract":"pkg/contracts/src/RegistryCommunity/facets/CommunityAdminFacet.sol:CommunityAdminFacet","label":"isKickEnabled","offset":0,"slot":"255","type":"t_bool"},{"astId":106349,"contract":"pkg/contracts/src/RegistryCommunity/facets/CommunityAdminFacet.sol:CommunityAdminFacet","label":"feeReceiver","offset":1,"slot":"255","type":"t_address"},{"astId":106352,"contract":"pkg/contracts/src/RegistryCommunity/facets/CommunityAdminFacet.sol:CommunityAdminFacet","label":"registryFactory","offset":0,"slot":"256","type":"t_address"},{"astId":106355,"contract":"pkg/contracts/src/RegistryCommunity/facets/CommunityAdminFacet.sol:CommunityAdminFacet","label":"collateralVaultTemplate","offset":0,"slot":"257","type":"t_address"},{"astId":106358,"contract":"pkg/contracts/src/RegistryCommunity/facets/CommunityAdminFacet.sol:CommunityAdminFacet","label":"strategyTemplate","offset":0,"slot":"258","type":"t_address"},{"astId":106361,"contract":"pkg/contracts/src/RegistryCommunity/facets/CommunityAdminFacet.sol:CommunityAdminFacet","label":"pendingCouncilSafe","offset":0,"slot":"259","type":"t_address_payable"},{"astId":106365,"contract":"pkg/contracts/src/RegistryCommunity/facets/CommunityAdminFacet.sol:CommunityAdminFacet","label":"registry","offset":0,"slot":"260","type":"t_contract(IRegistry)2824"},{"astId":106369,"contract":"pkg/contracts/src/RegistryCommunity/facets/CommunityAdminFacet.sol:CommunityAdminFacet","label":"gardenToken","offset":0,"slot":"261","type":"t_contract(IERC20)56253"},{"astId":106373,"contract":"pkg/contracts/src/RegistryCommunity/facets/CommunityAdminFacet.sol:CommunityAdminFacet","label":"councilSafe","offset":0,"slot":"262","type":"t_contract(ISafe)114535"},{"astId":106377,"contract":"pkg/contracts/src/RegistryCommunity/facets/CommunityAdminFacet.sol:CommunityAdminFacet","label":"allo","offset":0,"slot":"263","type":"t_contract(FAllo)114195"},{"astId":106380,"contract":"pkg/contracts/src/RegistryCommunity/facets/CommunityAdminFacet.sol:CommunityAdminFacet","label":"communityName","offset":0,"slot":"264","type":"t_string_storage"},{"astId":106383,"contract":"pkg/contracts/src/RegistryCommunity/facets/CommunityAdminFacet.sol:CommunityAdminFacet","label":"covenantIpfsHash","offset":0,"slot":"265","type":"t_string_storage"},{"astId":106388,"contract":"pkg/contracts/src/RegistryCommunity/facets/CommunityAdminFacet.sol:CommunityAdminFacet","label":"enabledStrategies","offset":0,"slot":"266","type":"t_mapping(t_address,t_bool)"},{"astId":106395,"contract":"pkg/contracts/src/RegistryCommunity/facets/CommunityAdminFacet.sol:CommunityAdminFacet","label":"memberPowerInStrategy","offset":0,"slot":"267","type":"t_mapping(t_address,t_mapping(t_address,t_uint256))"},{"astId":106401,"contract":"pkg/contracts/src/RegistryCommunity/facets/CommunityAdminFacet.sol:CommunityAdminFacet","label":"addressToMemberInfo","offset":0,"slot":"268","type":"t_mapping(t_address,t_struct(Member)106275_storage)"},{"astId":106407,"contract":"pkg/contracts/src/RegistryCommunity/facets/CommunityAdminFacet.sol:CommunityAdminFacet","label":"strategiesByMember","offset":0,"slot":"269","type":"t_mapping(t_address,t_array(t_address)dyn_storage)"},{"astId":106414,"contract":"pkg/contracts/src/RegistryCommunity/facets/CommunityAdminFacet.sol:CommunityAdminFacet","label":"memberActivatedInStrategies","offset":0,"slot":"270","type":"t_mapping(t_address,t_mapping(t_address,t_bool))"},{"astId":106418,"contract":"pkg/contracts/src/RegistryCommunity/facets/CommunityAdminFacet.sol:CommunityAdminFacet","label":"initialMembers","offset":0,"slot":"271","type":"t_array(t_address)dyn_storage"},{"astId":106421,"contract":"pkg/contracts/src/RegistryCommunity/facets/CommunityAdminFacet.sol:CommunityAdminFacet","label":"totalMembers","offset":0,"slot":"272","type":"t_uint256"},{"astId":106426,"contract":"pkg/contracts/src/RegistryCommunity/facets/CommunityAdminFacet.sol:CommunityAdminFacet","label":"strategyFacetCuts","offset":0,"slot":"273","type":"t_array(t_struct(FacetCut)113027_storage)dyn_storage"},{"astId":106428,"contract":"pkg/contracts/src/RegistryCommunity/facets/CommunityAdminFacet.sol:CommunityAdminFacet","label":"strategyInit","offset":0,"slot":"274","type":"t_address"},{"astId":106430,"contract":"pkg/contracts/src/RegistryCommunity/facets/CommunityAdminFacet.sol:CommunityAdminFacet","label":"strategyInitCalldata","offset":0,"slot":"275","type":"t_bytes_storage"},{"astId":106434,"contract":"pkg/contracts/src/RegistryCommunity/facets/CommunityAdminFacet.sol:CommunityAdminFacet","label":"__gap","offset":0,"slot":"276","type":"t_array(t_uint256)46_storage"}],"types":{"t_address":{"encoding":"inplace","label":"address","numberOfBytes":"20"},"t_address_payable":{"encoding":"inplace","label":"address payable","numberOfBytes":"20"},"t_array(t_address)dyn_storage":{"encoding":"dynamic_array","label":"address[]","numberOfBytes":"32","base":"t_address"},"t_array(t_bytes4)dyn_storage":{"encoding":"dynamic_array","label":"bytes4[]","numberOfBytes":"32","base":"t_bytes4"},"t_array(t_struct(FacetCut)113027_storage)dyn_storage":{"encoding":"dynamic_array","label":"struct IDiamond.FacetCut[]","numberOfBytes":"32","base":"t_struct(FacetCut)113027_storage"},"t_array(t_uint256)46_storage":{"encoding":"inplace","label":"uint256[46]","numberOfBytes":"1472","base":"t_uint256"},"t_array(t_uint256)49_storage":{"encoding":"inplace","label":"uint256[49]","numberOfBytes":"1568","base":"t_uint256"},"t_array(t_uint256)50_storage":{"encoding":"inplace","label":"uint256[50]","numberOfBytes":"1600","base":"t_uint256"},"t_bool":{"encoding":"inplace","label":"bool","numberOfBytes":"1"},"t_bytes32":{"encoding":"inplace","label":"bytes32","numberOfBytes":"32"},"t_bytes4":{"encoding":"inplace","label":"bytes4","numberOfBytes":"4"},"t_bytes_storage":{"encoding":"bytes","label":"bytes","numberOfBytes":"32"},"t_contract(FAllo)114195":{"encoding":"inplace","label":"contract FAllo","numberOfBytes":"20"},"t_contract(IERC20)56253":{"encoding":"inplace","label":"contract IERC20","numberOfBytes":"20"},"t_contract(IRegistry)2824":{"encoding":"inplace","label":"contract IRegistry","numberOfBytes":"20"},"t_contract(ISafe)114535":{"encoding":"inplace","label":"contract ISafe","numberOfBytes":"20"},"t_enum(FacetCutAction)113018":{"encoding":"inplace","label":"enum IDiamond.FacetCutAction","numberOfBytes":"1"},"t_mapping(t_address,t_array(t_address)dyn_storage)":{"encoding":"mapping","key":"t_address","label":"mapping(address => address[])","numberOfBytes":"32","value":"t_array(t_address)dyn_storage"},"t_mapping(t_address,t_bool)":{"encoding":"mapping","key":"t_address","label":"mapping(address => bool)","numberOfBytes":"32","value":"t_bool"},"t_mapping(t_address,t_mapping(t_address,t_bool))":{"encoding":"mapping","key":"t_address","label":"mapping(address => mapping(address => bool))","numberOfBytes":"32","value":"t_mapping(t_address,t_bool)"},"t_mapping(t_address,t_mapping(t_address,t_uint256))":{"encoding":"mapping","key":"t_address","label":"mapping(address => mapping(address => uint256))","numberOfBytes":"32","value":"t_mapping(t_address,t_uint256)"},"t_mapping(t_address,t_struct(Member)106275_storage)":{"encoding":"mapping","key":"t_address","label":"mapping(address => struct Member)","numberOfBytes":"32","value":"t_struct(Member)106275_storage"},"t_mapping(t_address,t_uint256)":{"encoding":"mapping","key":"t_address","label":"mapping(address => uint256)","numberOfBytes":"32","value":"t_uint256"},"t_mapping(t_bytes32,t_struct(RoleData)51635_storage)":{"encoding":"mapping","key":"t_bytes32","label":"mapping(bytes32 => struct AccessControlUpgradeable.RoleData)","numberOfBytes":"32","value":"t_struct(RoleData)51635_storage"},"t_string_storage":{"encoding":"bytes","label":"string","numberOfBytes":"32"},"t_struct(FacetCut)113027_storage":{"encoding":"inplace","label":"struct IDiamond.FacetCut","numberOfBytes":"64","members":[{"astId":113020,"contract":"pkg/contracts/src/RegistryCommunity/facets/CommunityAdminFacet.sol:CommunityAdminFacet","label":"facetAddress","offset":0,"slot":"0","type":"t_address"},{"astId":113023,"contract":"pkg/contracts/src/RegistryCommunity/facets/CommunityAdminFacet.sol:CommunityAdminFacet","label":"action","offset":20,"slot":"0","type":"t_enum(FacetCutAction)113018"},{"astId":113026,"contract":"pkg/contracts/src/RegistryCommunity/facets/CommunityAdminFacet.sol:CommunityAdminFacet","label":"functionSelectors","offset":0,"slot":"1","type":"t_array(t_bytes4)dyn_storage"}]},"t_struct(Member)106275_storage":{"encoding":"inplace","label":"struct Member","numberOfBytes":"96","members":[{"astId":106270,"contract":"pkg/contracts/src/RegistryCommunity/facets/CommunityAdminFacet.sol:CommunityAdminFacet","label":"member","offset":0,"slot":"0","type":"t_address"},{"astId":106272,"contract":"pkg/contracts/src/RegistryCommunity/facets/CommunityAdminFacet.sol:CommunityAdminFacet","label":"stakedAmount","offset":0,"slot":"1","type":"t_uint256"},{"astId":106274,"contract":"pkg/contracts/src/RegistryCommunity/facets/CommunityAdminFacet.sol:CommunityAdminFacet","label":"isRegistered","offset":0,"slot":"2","type":"t_bool"}]},"t_struct(RoleData)51635_storage":{"encoding":"inplace","label":"struct AccessControlUpgradeable.RoleData","numberOfBytes":"64","members":[{"astId":51632,"contract":"pkg/contracts/src/RegistryCommunity/facets/CommunityAdminFacet.sol:CommunityAdminFacet","label":"members","offset":0,"slot":"0","type":"t_mapping(t_address,t_bool)"},{"astId":51634,"contract":"pkg/contracts/src/RegistryCommunity/facets/CommunityAdminFacet.sol:CommunityAdminFacet","label":"adminRole","offset":0,"slot":"1","type":"t_bytes32"}]},"t_uint256":{"encoding":"inplace","label":"uint256","numberOfBytes":"32"},"t_uint8":{"encoding":"inplace","label":"uint8","numberOfBytes":"1"}}},"id":174}