{"abi":[{"type":"function","name":"COUNCIL_MEMBER","inputs":[],"outputs":[{"name":"","type":"bytes32","internalType":"bytes32"}],"stateMutability":"view"},{"type":"function","name":"DEFAULT_ADMIN_ROLE","inputs":[],"outputs":[{"name":"","type":"bytes32","internalType":"bytes32"}],"stateMutability":"view"},{"type":"function","name":"MAX_FEE","inputs":[],"outputs":[{"name":"","type":"uint256","internalType":"uint256"}],"stateMutability":"view"},{"type":"function","name":"NATIVE","inputs":[],"outputs":[{"name":"","type":"address","internalType":"address"}],"stateMutability":"view"},{"type":"function","name":"PRECISION_SCALE","inputs":[],"outputs":[{"name":"","type":"uint256","internalType":"uint256"}],"stateMutability":"view"},{"type":"function","name":"VERSION","inputs":[],"outputs":[{"name":"","type":"string","internalType":"string"}],"stateMutability":"view"},{"type":"function","name":"addressToMemberInfo","inputs":[{"name":"member","type":"address","internalType":"address"}],"outputs":[{"name":"member","type":"address","internalType":"address"},{"name":"stakedAmount","type":"uint256","internalType":"uint256"},{"name":"isRegistered","type":"bool","internalType":"bool"}],"stateMutability":"view"},{"type":"function","name":"allo","inputs":[],"outputs":[{"name":"","type":"address","internalType":"contract FAllo"}],"stateMutability":"view"},{"type":"function","name":"cloneNonce","inputs":[],"outputs":[{"name":"","type":"uint256","internalType":"uint256"}],"stateMutability":"view"},{"type":"function","name":"collateralVaultTemplate","inputs":[],"outputs":[{"name":"","type":"address","internalType":"address"}],"stateMutability":"view"},{"type":"function","name":"communityFee","inputs":[],"outputs":[{"name":"","type":"uint256","internalType":"uint256"}],"stateMutability":"view"},{"type":"function","name":"communityName","inputs":[],"outputs":[{"name":"","type":"string","internalType":"string"}],"stateMutability":"view"},{"type":"function","name":"councilSafe","inputs":[],"outputs":[{"name":"","type":"address","internalType":"contract ISafe"}],"stateMutability":"view"},{"type":"function","name":"covenantIpfsHash","inputs":[],"outputs":[{"name":"","type":"string","internalType":"string"}],"stateMutability":"view"},{"type":"function","name":"enabledStrategies","inputs":[{"name":"strategy","type":"address","internalType":"address"}],"outputs":[{"name":"isEnabled","type":"bool","internalType":"bool"}],"stateMutability":"view"},{"type":"function","name":"feeReceiver","inputs":[],"outputs":[{"name":"","type":"address","internalType":"address"}],"stateMutability":"view"},{"type":"function","name":"gardenToken","inputs":[],"outputs":[{"name":"","type":"address","internalType":"contract IERC20"}],"stateMutability":"view"},{"type":"function","name":"getRoleAdmin","inputs":[{"name":"role","type":"bytes32","internalType":"bytes32"}],"outputs":[{"name":"","type":"bytes32","internalType":"bytes32"}],"stateMutability":"view"},{"type":"function","name":"grantRole","inputs":[{"name":"role","type":"bytes32","internalType":"bytes32"},{"name":"account","type":"address","internalType":"address"}],"outputs":[],"stateMutability":"nonpayable"},{"type":"function","name":"hasRole","inputs":[{"name":"role","type":"bytes32","internalType":"bytes32"},{"name":"account","type":"address","internalType":"address"}],"outputs":[{"name":"","type":"bool","internalType":"bool"}],"stateMutability":"view"},{"type":"function","name":"initialize","inputs":[{"name":"initialOwner","type":"address","internalType":"address"}],"outputs":[],"stateMutability":"nonpayable"},{"type":"function","name":"isKickEnabled","inputs":[],"outputs":[{"name":"","type":"bool","internalType":"bool"}],"stateMutability":"view"},{"type":"function","name":"isPaused","inputs":[{"name":"selector","type":"bytes4","internalType":"bytes4"}],"outputs":[{"name":"","type":"bool","internalType":"bool"}],"stateMutability":"view"},{"type":"function","name":"isPaused","inputs":[],"outputs":[{"name":"","type":"bool","internalType":"bool"}],"stateMutability":"view"},{"type":"function","name":"memberActivatedInStrategies","inputs":[{"name":"member","type":"address","internalType":"address"},{"name":"strategy","type":"address","internalType":"address"}],"outputs":[{"name":"isActivated","type":"bool","internalType":"bool"}],"stateMutability":"view"},{"type":"function","name":"memberPowerInStrategy","inputs":[{"name":"strategy","type":"address","internalType":"address"},{"name":"member","type":"address","internalType":"address"}],"outputs":[{"name":"power","type":"uint256","internalType":"uint256"}],"stateMutability":"view"},{"type":"function","name":"owner","inputs":[],"outputs":[{"name":"","type":"address","internalType":"address"}],"stateMutability":"view"},{"type":"function","name":"pause","inputs":[{"name":"duration","type":"uint256","internalType":"uint256"}],"outputs":[],"stateMutability":"nonpayable"},{"type":"function","name":"pause","inputs":[{"name":"selector","type":"bytes4","internalType":"bytes4"},{"name":"duration","type":"uint256","internalType":"uint256"}],"outputs":[],"stateMutability":"nonpayable"},{"type":"function","name":"pauseController","inputs":[],"outputs":[{"name":"","type":"address","internalType":"address"}],"stateMutability":"view"},{"type":"function","name":"pauseFacet","inputs":[],"outputs":[{"name":"","type":"address","internalType":"address"}],"stateMutability":"view"},{"type":"function","name":"pausedSelectorUntil","inputs":[{"name":"selector","type":"bytes4","internalType":"bytes4"}],"outputs":[{"name":"","type":"uint256","internalType":"uint256"}],"stateMutability":"view"},{"type":"function","name":"pausedUntil","inputs":[],"outputs":[{"name":"","type":"uint256","internalType":"uint256"}],"stateMutability":"view"},{"type":"function","name":"pendingCouncilSafe","inputs":[],"outputs":[{"name":"","type":"address","internalType":"address payable"}],"stateMutability":"view"},{"type":"function","name":"profileId","inputs":[],"outputs":[{"name":"","type":"bytes32","internalType":"bytes32"}],"stateMutability":"view"},{"type":"function","name":"proxiableUUID","inputs":[],"outputs":[{"name":"","type":"bytes32","internalType":"bytes32"}],"stateMutability":"view"},{"type":"function","name":"proxyOwner","inputs":[],"outputs":[{"name":"","type":"address","internalType":"address"}],"stateMutability":"view"},{"type":"function","name":"registerStakeAmount","inputs":[],"outputs":[{"name":"","type":"uint256","internalType":"uint256"}],"stateMutability":"view"},{"type":"function","name":"registry","inputs":[],"outputs":[{"name":"","type":"address","internalType":"contract IRegistry"}],"stateMutability":"view"},{"type":"function","name":"registryFactory","inputs":[],"outputs":[{"name":"","type":"address","internalType":"address"}],"stateMutability":"view"},{"type":"function","name":"renounceOwnership","inputs":[],"outputs":[],"stateMutability":"nonpayable"},{"type":"function","name":"renounceRole","inputs":[{"name":"role","type":"bytes32","internalType":"bytes32"},{"name":"account","type":"address","internalType":"address"}],"outputs":[],"stateMutability":"nonpayable"},{"type":"function","name":"revokeRole","inputs":[{"name":"role","type":"bytes32","internalType":"bytes32"},{"name":"account","type":"address","internalType":"address"}],"outputs":[],"stateMutability":"nonpayable"},{"type":"function","name":"setPauseController","inputs":[{"name":"controller","type":"address","internalType":"address"}],"outputs":[],"stateMutability":"nonpayable"},{"type":"function","name":"setPauseFacet","inputs":[{"name":"facet","type":"address","internalType":"address"}],"outputs":[],"stateMutability":"nonpayable"},{"type":"function","name":"strategiesByMember","inputs":[{"name":"member","type":"address","internalType":"address"},{"name":"","type":"uint256","internalType":"uint256"}],"outputs":[{"name":"strategiesAddresses","type":"address","internalType":"address"}],"stateMutability":"view"},{"type":"function","name":"strategyTemplate","inputs":[],"outputs":[{"name":"","type":"address","internalType":"address"}],"stateMutability":"view"},{"type":"function","name":"supportsInterface","inputs":[{"name":"interfaceId","type":"bytes4","internalType":"bytes4"}],"outputs":[{"name":"","type":"bool","internalType":"bool"}],"stateMutability":"view"},{"type":"function","name":"totalMembers","inputs":[],"outputs":[{"name":"","type":"uint256","internalType":"uint256"}],"stateMutability":"view"},{"type":"function","name":"transferOwnership","inputs":[{"name":"newOwner","type":"address","internalType":"address"}],"outputs":[],"stateMutability":"nonpayable"},{"type":"function","name":"unpause","inputs":[],"outputs":[],"stateMutability":"nonpayable"},{"type":"function","name":"unpause","inputs":[{"name":"selector","type":"bytes4","internalType":"bytes4"}],"outputs":[],"stateMutability":"nonpayable"},{"type":"function","name":"upgradeTo","inputs":[{"name":"newImplementation","type":"address","internalType":"address"}],"outputs":[],"stateMutability":"nonpayable"},{"type":"function","name":"upgradeToAndCall","inputs":[{"name":"newImplementation","type":"address","internalType":"address"},{"name":"data","type":"bytes","internalType":"bytes"}],"outputs":[],"stateMutability":"payable"},{"type":"event","name":"AdminChanged","inputs":[{"name":"previousAdmin","type":"address","indexed":false,"internalType":"address"},{"name":"newAdmin","type":"address","indexed":false,"internalType":"address"}],"anonymous":false},{"type":"event","name":"BeaconUpgraded","inputs":[{"name":"beacon","type":"address","indexed":true,"internalType":"address"}],"anonymous":false},{"type":"event","name":"Initialized","inputs":[{"name":"version","type":"uint8","indexed":false,"internalType":"uint8"}],"anonymous":false},{"type":"event","name":"OwnershipTransferred","inputs":[{"name":"previousOwner","type":"address","indexed":true,"internalType":"address"},{"name":"newOwner","type":"address","indexed":true,"internalType":"address"}],"anonymous":false},{"type":"event","name":"PauseControllerUpdated","inputs":[{"name":"controller","type":"address","indexed":true,"internalType":"address"}],"anonymous":false},{"type":"event","name":"PauseFacetUpdated","inputs":[{"name":"facet","type":"address","indexed":true,"internalType":"address"}],"anonymous":false},{"type":"event","name":"RoleAdminChanged","inputs":[{"name":"role","type":"bytes32","indexed":true,"internalType":"bytes32"},{"name":"previousAdminRole","type":"bytes32","indexed":true,"internalType":"bytes32"},{"name":"newAdminRole","type":"bytes32","indexed":true,"internalType":"bytes32"}],"anonymous":false},{"type":"event","name":"RoleGranted","inputs":[{"name":"role","type":"bytes32","indexed":true,"internalType":"bytes32"},{"name":"account","type":"address","indexed":true,"internalType":"address"},{"name":"sender","type":"address","indexed":true,"internalType":"address"}],"anonymous":false},{"type":"event","name":"RoleRevoked","inputs":[{"name":"role","type":"bytes32","indexed":true,"internalType":"bytes32"},{"name":"account","type":"address","indexed":true,"internalType":"address"},{"name":"sender","type":"address","indexed":true,"internalType":"address"}],"anonymous":false},{"type":"event","name":"Upgraded","inputs":[{"name":"implementation","type":"address","indexed":true,"internalType":"address"}],"anonymous":false},{"type":"error","name":"CallerNotOwner","inputs":[{"name":"_caller","type":"address","internalType":"address"},{"name":"_owner","type":"address","internalType":"address"}]},{"type":"error","name":"CommunityPaused","inputs":[{"name":"controller","type":"address","internalType":"address"}]},{"type":"error","name":"CommunitySelectorPaused","inputs":[{"name":"selector","type":"bytes4","internalType":"bytes4"},{"name":"controller","type":"address","internalType":"address"}]},{"type":"error","name":"NotOwner","inputs":[{"name":"caller","type":"address","internalType":"address"},{"name":"owner","type":"address","internalType":"address"}]},{"type":"error","name":"PauseControllerNotSet","inputs":[]}],"bytecode":{"object":"0x60a060405230608052348015610013575f80fd5b5061001c610021565b6100dd565b5f54610100900460ff161561008c5760405162461bcd60e51b815260206004820152602760248201527f496e697469616c697a61626c653a20636f6e747261637420697320696e697469604482015266616c697a696e6760c81b606482015260840160405180910390fd5b5f5460ff908116146100db575f805460ff191660ff9081179091556040519081527f7f26b83ff96e1f2b6a682f133852f6798a09c465da95921460cefb38474024989060200160405180910390a15b565b6080516121f7620001125f395f8181610c4e01528181610c8e01528181610d7c01528181610dbc0152610e3301526121f75ff3fe608060405260043610610264575f3560e01c806301ffc9a714610268578063025313a21461029c57806308386eba146102bd57806309b65e66146102e0578063136439dd146102ff5780631add1a0d146103205780631f787d281461033f578063222a3a0414610357578063248a9ca3146103765780632b38c69c146103955780632d2ebbef146103b45780632f2ff15d146103d357806333960459146103f257806336568abe146104075780633659cfe6146104265780633a871fe1146104455780633f4ba83a14610474578063477a5cc0146104885780634f1ef286146104c257806352d1902d146104d55780635c94e4d2146104e957806360b477891461050957806365e3864c1461051d57806368decabb146105545780636c53db9a14610574578063715018a614610594578063733a2d1f146105a857806376e92559146105db57806377122d56146105f157806378a0b8a9146106115780637b1039991461062657806380c4a65f1461064657806388cfe684146106655780638961be6b146106d45780638da5cb5b146106e957806391d14854146106fd578063a0cf0aea1461071c578063a217fddf14610743578063adaf157b14610756578063b187bd261461076a578063b3f006741461077e578063b64e39af146107a2578063bac1e94b146107c3578063bc063e1a146107e2578063c4d66de8146107f6578063c6d572ae14610815578063d547741f14610829578063d6d8428d14610848578063d7050f0714610868578063da748b101461087d578063db61d65c14610891578063f2fde38b146108b1578063f86c5f89146108d0578063ffa1ad74146108f0575b5f80fd5b348015610273575f80fd5b50610287610282366004611d25565b61091e565b60405190151581526020015b60405180910390f35b3480156102a7575f80fd5b506102b0610954565b6040516102939190611d3e565b3480156102c8575f80fd5b506102d260fe5481565b604051908152602001610293565b3480156102eb575f80fd5b506102876102fa366004611d25565b61096c565b34801561030a575f80fd5b5061031e610319366004611d52565b610a03565b005b34801561032b575f80fd5b5061031e61033a366004611d7d565b610a74565b34801561034a575f80fd5b5060ff8054610287911681565b348015610362575f80fd5b5061031e610371366004611d7d565b610ace565b348015610381575f80fd5b506102d2610390366004611d52565b610ae2565b3480156103a0575f80fd5b506102b06103af366004611d98565b610af6565b3480156103bf575f80fd5b506102d26103ce366004611d25565b610b2b565b3480156103de575f80fd5b5061031e6103ed366004611dc2565b610ba0565b3480156103fd575f80fd5b506102d260fd5481565b348015610412575f80fd5b5061031e610421366004611dc2565b610bc1565b348015610431575f80fd5b5061031e610440366004611d7d565b610c44565b348015610450575f80fd5b5061028761045f366004611d7d565b61010a6020525f908152604090205460ff1681565b34801561047f575f80fd5b5061031e610d08565b348015610493575f80fd5b506102876104a2366004611df0565b61010e60209081525f928352604080842090915290825290205460ff1681565b61031e6104d0366004611e30565b610d72565b3480156104e0575f80fd5b506102d2610e27565b3480156104f4575f80fd5b50610102546102b0906001600160a01b031681565b348015610514575f80fd5b506102b0610ed3565b348015610528575f80fd5b506102d2610537366004611df0565b61010b60209081525f928352604080842090915290825290205481565b34801561055f575f80fd5b50610103546102b0906001600160a01b031681565b34801561057f575f80fd5b50610106546102b0906001600160a01b031681565b34801561059f575f80fd5b5061031e610eeb565b3480156105b3575f80fd5b506102d27f03be538b6391ddcd7f2649585cc95b120c9e2a613f70714fbb55345057d809fa81565b3480156105e6575f80fd5b506102d26101105481565b3480156105fc575f80fd5b50610101546102b0906001600160a01b031681565b34801561061c575f80fd5b506102d260fb5481565b348015610631575f80fd5b50610104546102b0906001600160a01b031681565b348015610651575f80fd5b5061031e610660366004611eed565b610efe565b348015610670575f80fd5b506106ad61067f366004611d7d565b61010c6020525f90815260409020805460018201546002909201546001600160a01b03909116919060ff1683565b604080516001600160a01b0390941684526020840192909252151590820152606001610293565b3480156106df575f80fd5b506102d260fc5481565b3480156106f4575f80fd5b506102b0610f7f565b348015610708575f80fd5b50610287610717366004611dc2565b611012565b348015610727575f80fd5b506102b073eeeeeeeeeeeeeeeeeeeeeeeeeeeeeeeeeeeeeeee81565b34801561074e575f80fd5b506102d25f81565b348015610761575f80fd5b506102b061103c565b348015610775575f80fd5b50610287611057565b348015610789575f80fd5b5060ff546102b09061010090046001600160a01b031681565b3480156107ad575f80fd5b506107b66110ea565b6040516102939190611f29565b3480156107ce575f80fd5b5061031e6107dd366004611d25565b611177565b3480156107ed575f80fd5b506102d26111b4565b348015610801575f80fd5b5061031e610810366004611d7d565b6111c4565b348015610820575f80fd5b506107b66112d7565b348015610834575f80fd5b5061031e610843366004611dc2565b6112e5565b348015610853575f80fd5b50610107546102b0906001600160a01b031681565b348015610873575f80fd5b506102d261271081565b348015610888575f80fd5b506102d2611301565b34801561089c575f80fd5b50610105546102b0906001600160a01b031681565b3480156108bc575f80fd5b5061031e6108cb366004611d7d565b611374565b3480156108db575f80fd5b50610100546102b0906001600160a01b031681565b3480156108fb575f80fd5b506107b6604051806040016040528060038152602001620302e360ec1b81525081565b5f6001600160e01b03198216637965db0b60e01b148061094e57506301ffc9a760e01b6001600160e01b03198316145b92915050565b5f6109676033546001600160a01b031690565b905090565b5f806109766113ea565b546001600160a01b031690508061098f57505f92915050565b6040516374b896f160e01b81526001600160a01b038216906374b896f1906109bd9030908790600401611f5b565b602060405180830381865afa1580156109d8573d5f803e3d5ffd5b505050506040513d601f19601f820116820180604052508101906109fc9190611f7e565b9392505050565b610a0b61140e565b610a1361141e565b6040516320880da160e21b8152306004820152602481018390526001600160a01b0391909116906382203684906044015b5f604051808303815f87803b158015610a5b575f80fd5b505af1158015610a6d573d5f803e3d5ffd5b5050505050565b610a7c61140e565b80610a856113ea565b80546001600160a01b0319166001600160a01b03928316179055604051908216907f0146e1c9acb28e36c81f5635cb4ae73b05d0712996d2cc1b3823065e0e849403905f90a250565b610ad6611452565b610adf8161148a565b50565b5f90815260c9602052604090206001015490565b61010d602052815f5260405f208181548110610b10575f80fd5b5f918252602090912001546001600160a01b03169150829050565b5f610b3461141e565b6001600160a01b03166331947ea430846040518363ffffffff1660e01b8152600401610b61929190611f5b565b602060405180830381865afa158015610b7c573d5f803e3d5ffd5b505050506040513d601f19601f8201168201806040525081019061094e9190611f9d565b610ba982610ae2565b610bb28161150a565b610bbc8383611514565b505050565b6001600160a01b0381163314610c365760405162461bcd60e51b815260206004820152602f60248201527f416363657373436f6e74726f6c3a2063616e206f6e6c792072656e6f756e636560448201526e103937b632b9903337b91039b2b63360891b60648201526084015b60405180910390fd5b610c408282611599565b5050565b6001600160a01b037f0000000000000000000000000000000000000000000000000000000000000000163003610c8c5760405162461bcd60e51b8152600401610c2d90611fb4565b7f00000000000000000000000000000000000000000000000000000000000000006001600160a01b0316610cbe6115ff565b6001600160a01b031614610ce45760405162461bcd60e51b8152600401610c2d90611fed565b610ced81611613565b604080515f80825260208201909252610adf9183919061164e565b610d1061140e565b610d1861141e565b6001600160a01b03166357b001f9306040518263ffffffff1660e01b8152600401610d439190611d3e565b5f604051808303815f87803b158015610d5a575f80fd5b505af1158015610d6c573d5f803e3d5ffd5b50505050565b6001600160a01b037f0000000000000000000000000000000000000000000000000000000000000000163003610dba5760405162461bcd60e51b8152600401610c2d90611fb4565b7f00000000000000000000000000000000000000000000000000000000000000006001600160a01b0316610dec6115ff565b6001600160a01b031614610e125760405162461bcd60e51b8152600401610c2d90611fed565b610e1b82611613565b610c408282600161164e565b5f306001600160a01b037f00000000000000000000000000000000000000000000000000000000000000001614610ec15760405162461bcd60e51b815260206004820152603860248201527f555550535570677261646561626c653a206d757374206e6f742062652063616c6044820152771b1959081d1a1c9bdd59da0819195b1959d85d1958d85b1b60421b6064820152608401610c2d565b505f805160206121a483398151915290565b5f610edc6113ea565b546001600160a01b0316919050565b610ef36117b8565b610efc5f611817565b565b610f0661140e565b610f0e61141e565b604051635686c94b60e01b81523060048201526001600160e01b031984166024820152604481018390526001600160a01b039190911690635686c94b906064015f604051808303815f87803b158015610f65575f80fd5b505af1158015610f77573d5f803e3d5ffd5b505050505050565b5f610f88610954565b6001600160a01b03163b5f03610fa057610967610954565b610fa8610954565b6001600160a01b0316638da5cb5b6040518163ffffffff1660e01b8152600401602060405180830381865afa925050508015611001575060408051601f3d908101601f19168201909252610ffe91810190612026565b60015b61100d57610967610954565b919050565b5f91825260c9602090815260408084206001600160a01b0393909316845291905290205460ff1690565b5f6110456113ea565b600101546001600160a01b0316919050565b5f806110616113ea565b546001600160a01b0316905080611079575f91505090565b604051635b14f18360e01b81526001600160a01b03821690635b14f183906110a5903090600401611d3e565b602060405180830381865afa1580156110c0573d5f803e3d5ffd5b505050506040513d601f19601f820116820180604052508101906110e49190611f7e565b91505090565b61010980546110f890612041565b80601f016020809104026020016040519081016040528092919081815260200182805461112490612041565b801561116f5780601f106111465761010080835404028352916020019161116f565b820191905f5260205f20905b81548152906001019060200180831161115257829003601f168201915b505050505081565b61117f61140e565b61118761141e565b6001600160a01b031663439d27ae30836040518363ffffffff1660e01b8152600401610a44929190611f5b565b6111c1612710600a61208d565b81565b5f54610100900460ff16158080156111e257505f54600160ff909116105b8061120257506111f130611868565b15801561120257505f5460ff166001145b6112655760405162461bcd60e51b815260206004820152602e60248201527f496e697469616c697a61626c653a20636f6e747261637420697320616c72656160448201526d191e481a5b9a5d1a585b1a5e995960921b6064820152608401610c2d565b5f805460ff191660011790558015611286575f805461ff0019166101001790555b61128f82611817565b8015610c40575f805461ff0019169055604051600181527f7f26b83ff96e1f2b6a682f133852f6798a09c465da95921460cefb38474024989060200160405180910390a15050565b61010880546110f890612041565b6112ee82610ae2565b6112f78161150a565b610bbc8383611599565b5f61130a61141e565b6001600160a01b0316631d9ca3ad306040518263ffffffff1660e01b81526004016113359190611d3e565b602060405180830381865afa158015611350573d5f803e3d5ffd5b505050506040513d601f19601f820116820180604052508101906109679190611f9d565b61137c6117b8565b6001600160a01b0381166113e15760405162461bcd60e51b815260206004820152602660248201527f4f776e61626c653a206e6577206f776e657220697320746865207a65726f206160448201526564647265737360d01b6064820152608401610c2d565b610adf81611817565b7f12ec43b97389db0cfbdf8d85f200f1b822123856376a9d75d3a6918f27c903bb90565b611416611452565b610efc611877565b5f806114286113ea565b546001600160a01b031690508061100d57604051639180dfdf60e01b815260040160405180910390fd5b5f61145b6118cd565b9050336001600160a01b03821614610adf573381604051631194af8760e11b8152600401610c2d9291906120a4565b6001600160a01b03811661149b5750565b5f6114a46113ea565b60018101549091506001600160a01b03838116911614610c40576001810180546001600160a01b0319166001600160a01b0384169081179091556040517f753b6c036896e564d6b8cfc7934ffd7ff1f0c8f82aabd101f0549db25b7971b6905f90a25050565b610adf81336118d6565b61151e8282611012565b610c40575f82815260c9602090815260408083206001600160a01b03851684529091529020805460ff191660011790556115553390565b6001600160a01b0316816001600160a01b0316837f2f8788117e7eff1d82e926ec794901d17c78024a50270940304540a733656f0d60405160405180910390a45050565b6115a38282611012565b15610c40575f82815260c9602090815260408083206001600160a01b0385168085529252808320805460ff1916905551339285917ff6391f5c32d9c69d2a47ea670b442974b53935d1edc7fd64eb21e047a839171b9190a45050565b5f5f805160206121a4833981519152610edc565b3361161c610f7f565b6001600160a01b031614610adf5733611633610f7f565b60405163163678e960e01b8152600401610c2d9291906120a4565b7f4910fdfa16fed3260ed0e7147f7cc6da11a60208b5b9406d12a635614ffd91435460ff161561168157610bbc8361192f565b826001600160a01b03166352d1902d6040518163ffffffff1660e01b8152600401602060405180830381865afa9250505080156116db575060408051601f3d908101601f191682019092526116d891810190611f9d565b60015b61173e5760405162461bcd60e51b815260206004820152602e60248201527f45524331393637557067726164653a206e657720696d706c656d656e7461746960448201526d6f6e206973206e6f74205555505360901b6064820152608401610c2d565b5f805160206121a483398151915281146117ac5760405162461bcd60e51b815260206004820152602960248201527f45524331393637557067726164653a20756e737570706f727465642070726f786044820152681a58589b195555525160ba1b6064820152608401610c2d565b50610bbc8383836119c8565b336117c1610f7f565b6001600160a01b031614610efc5760405162461bcd60e51b815260206004820181905260248201527f4f776e61626c653a2063616c6c6572206973206e6f7420746865206f776e65726044820152606401610c2d565b603380546001600160a01b038381166001600160a01b0319831681179093556040519116919082907f8be0079c531659141344cd1fd0a4f28419497f9722a3daafe3b4186f6b6457e0905f90a35050565b6001600160a01b03163b151590565b5f7fc8fcad8db84d3cc18b4c41d551ea0ee66dd599cde068d998e57d5e09332c131c5f80356001600160e01b0319168152602082905260409020549091506001600160a01b03168015610c4057610c408161148a565b5f610967610f7f565b6118e08282611012565b610c40576118ed816119ec565b6118f88360206119fe565b6040516020016119099291906120be565b60408051601f198184030181529082905262461bcd60e51b8252610c2d91600401611f29565b61193881611868565b61199a5760405162461bcd60e51b815260206004820152602d60248201527f455243313936373a206e657720696d706c656d656e746174696f6e206973206e60448201526c1bdd08184818dbdb9d1c9858dd609a1b6064820152608401610c2d565b5f805160206121a483398151915280546001600160a01b0319166001600160a01b0392909216919091179055565b6119d183611b93565b5f825111806119dd5750805b15610bbc57610d6c8383611bd2565b606061094e6001600160a01b03831660145b60605f611a0c83600261208d565b611a1790600261212c565b6001600160401b03811115611a2e57611a2e611e1c565b6040519080825280601f01601f191660200182016040528015611a58576020820181803683370190505b509050600360fc1b815f81518110611a7257611a7261213f565b60200101906001600160f81b03191690815f1a905350600f60fb1b81600181518110611aa057611aa061213f565b60200101906001600160f81b03191690815f1a9053505f611ac284600261208d565b611acd90600161212c565b90505b6001811115611b44576f181899199a1a9b1b9c1cb0b131b232b360811b85600f1660108110611b0157611b0161213f565b1a60f81b828281518110611b1757611b1761213f565b60200101906001600160f81b03191690815f1a90535060049490941c93611b3d81612153565b9050611ad0565b5083156109fc5760405162461bcd60e51b815260206004820181905260248201527f537472696e67733a20686578206c656e67746820696e73756666696369656e746044820152606401610c2d565b611b9c8161192f565b6040516001600160a01b038216907fbc7cd75a20ee27fd9adebab32041f755214dbc6bffa90cc0225b39da2e5c2d3b905f90a250565b60606109fc83836040518060600160405280602781526020016121c46027913960605f80856001600160a01b031685604051611c0e9190612168565b5f60405180830381855af49150503d805f8114611c46576040519150601f19603f3d011682016040523d82523d5f602084013e611c4b565b606091505b5091509150611c5c86838387611c66565b9695505050505050565b60608315611cd25782515f03611ccb57611c7f85611868565b611ccb5760405162461bcd60e51b815260206004820152601d60248201527f416464726573733a2063616c6c20746f206e6f6e2d636f6e74726163740000006044820152606401610c2d565b5081611cdc565b611cdc8383611ce4565b949350505050565b815115611cf45781518083602001fd5b8060405162461bcd60e51b8152600401610c2d9190611f29565b80356001600160e01b03198116811461100d575f80fd5b5f60208284031215611d35575f80fd5b6109fc82611d0e565b6001600160a01b0391909116815260200190565b5f60208284031215611d62575f80fd5b5035919050565b6001600160a01b0381168114610adf575f80fd5b5f60208284031215611d8d575f80fd5b81356109fc81611d69565b5f8060408385031215611da9575f80fd5b8235611db481611d69565b946020939093013593505050565b5f8060408385031215611dd3575f80fd5b823591506020830135611de581611d69565b809150509250929050565b5f8060408385031215611e01575f80fd5b8235611e0c81611d69565b91506020830135611de581611d69565b634e487b7160e01b5f52604160045260245ffd5b5f8060408385031215611e41575f80fd5b8235611e4c81611d69565b915060208301356001600160401b0380821115611e67575f80fd5b818501915085601f830112611e7a575f80fd5b813581811115611e8c57611e8c611e1c565b604051601f8201601f19908116603f01168101908382118183101715611eb457611eb4611e1c565b81604052828152886020848701011115611ecc575f80fd5b826020860160208301375f6020848301015280955050505050509250929050565b5f8060408385031215611efe575f80fd5b611db483611d0e565b5f5b83811015611f21578181015183820152602001611f09565b50505f910152565b602081525f8251806020840152611f47816040850160208701611f07565b601f01601f19169190910160400192915050565b6001600160a01b039290921682526001600160e01b031916602082015260400190565b5f60208284031215611f8e575f80fd5b815180151581146109fc575f80fd5b5f60208284031215611fad575f80fd5b5051919050565b6020808252602c908201525f8051602061218483398151915260408201526b19195b1959d85d1958d85b1b60a21b606082015260800190565b6020808252602c908201525f8051602061218483398151915260408201526b6163746976652070726f787960a01b606082015260800190565b5f60208284031215612036575f80fd5b81516109fc81611d69565b600181811c9082168061205557607f821691505b60208210810361207357634e487b7160e01b5f52602260045260245ffd5b50919050565b634e487b7160e01b5f52601160045260245ffd5b808202811582820484141761094e5761094e612079565b6001600160a01b0392831681529116602082015260400190565b76020b1b1b2b9b9a1b7b73a3937b61d1030b1b1b7bab73a1604d1b81525f83516120ef816017850160208801611f07565b7001034b99036b4b9b9b4b733903937b6329607d1b6017918401918201528351612120816028840160208801611f07565b01602801949350505050565b8082018082111561094e5761094e612079565b634e487b7160e01b5f52603260045260245ffd5b5f8161216157612161612079565b505f190190565b5f8251612179818460208701611f07565b919091019291505056fe46756e6374696f6e206d7573742062652063616c6c6564207468726f75676820360894a13ba1a3210667c828492db98dca3e2076cc3735a920a3ca505d382bbc416464726573733a206c6f772d6c6576656c2064656c65676174652063616c6c206661696c6564a164736f6c6343000817000a","linkReferences":{}},"methodIdentifiers":{"COUNCIL_MEMBER()":"733a2d1f","DEFAULT_ADMIN_ROLE()":"a217fddf","MAX_FEE()":"bc063e1a","NATIVE()":"a0cf0aea","PRECISION_SCALE()":"d7050f07","VERSION()":"ffa1ad74","addressToMemberInfo(address)":"88cfe684","allo()":"d6d8428d","cloneNonce()":"33960459","collateralVaultTemplate()":"77122d56","communityFee()":"8961be6b","communityName()":"c6d572ae","councilSafe()":"6c53db9a","covenantIpfsHash()":"b64e39af","enabledStrategies(address)":"3a871fe1","feeReceiver()":"b3f00674","gardenToken()":"db61d65c","getRoleAdmin(bytes32)":"248a9ca3","grantRole(bytes32,address)":"2f2ff15d","hasRole(bytes32,address)":"91d14854","initialize(address)":"c4d66de8","isKickEnabled()":"1f787d28","isPaused()":"b187bd26","isPaused(bytes4)":"09b65e66","memberActivatedInStrategies(address,address)":"477a5cc0","memberPowerInStrategy(address,address)":"65e3864c","owner()":"8da5cb5b","pause(bytes4,uint256)":"80c4a65f","pause(uint256)":"136439dd","pauseController()":"60b47789","pauseFacet()":"adaf157b","pausedSelectorUntil(bytes4)":"2d2ebbef","pausedUntil()":"da748b10","pendingCouncilSafe()":"68decabb","profileId()":"08386eba","proxiableUUID()":"52d1902d","proxyOwner()":"025313a2","registerStakeAmount()":"78a0b8a9","registry()":"7b103999","registryFactory()":"f86c5f89","renounceOwnership()":"715018a6","renounceRole(bytes32,address)":"36568abe","revokeRole(bytes32,address)":"d547741f","setPauseController(address)":"1add1a0d","setPauseFacet(address)":"222a3a04","strategiesByMember(address,uint256)":"2b38c69c","strategyTemplate()":"5c94e4d2","supportsInterface(bytes4)":"01ffc9a7","totalMembers()":"76e92559","transferOwnership(address)":"f2fde38b","unpause()":"3f4ba83a","unpause(bytes4)":"bac1e94b","upgradeTo(address)":"3659cfe6","upgradeToAndCall(address,bytes)":"4f1ef286"},"storageLayout":{"storage":[{"astId":14099,"contract":"pkg/contracts/src/RegistryCommunity/facets/CommunityPauseFacet.sol:CommunityPauseFacet","label":"_initialized","offset":0,"slot":"0","type":"t_uint8"},{"astId":14102,"contract":"pkg/contracts/src/RegistryCommunity/facets/CommunityPauseFacet.sol:CommunityPauseFacet","label":"_initializing","offset":1,"slot":"0","type":"t_bool"},{"astId":14726,"contract":"pkg/contracts/src/RegistryCommunity/facets/CommunityPauseFacet.sol:CommunityPauseFacet","label":"__gap","offset":0,"slot":"1","type":"t_array(t_uint256)50_storage"},{"astId":13891,"contract":"pkg/contracts/src/RegistryCommunity/facets/CommunityPauseFacet.sol:CommunityPauseFacet","label":"_owner","offset":0,"slot":"51","type":"t_address"},{"astId":14011,"contract":"pkg/contracts/src/RegistryCommunity/facets/CommunityPauseFacet.sol:CommunityPauseFacet","label":"__gap","offset":0,"slot":"52","type":"t_array(t_uint256)49_storage"},{"astId":14276,"contract":"pkg/contracts/src/RegistryCommunity/facets/CommunityPauseFacet.sol:CommunityPauseFacet","label":"_status","offset":0,"slot":"101","type":"t_uint256"},{"astId":14345,"contract":"pkg/contracts/src/RegistryCommunity/facets/CommunityPauseFacet.sol:CommunityPauseFacet","label":"__gap","offset":0,"slot":"102","type":"t_array(t_uint256)49_storage"},{"astId":15000,"contract":"pkg/contracts/src/RegistryCommunity/facets/CommunityPauseFacet.sol:CommunityPauseFacet","label":"__gap","offset":0,"slot":"151","type":"t_array(t_uint256)50_storage"},{"astId":13498,"contract":"pkg/contracts/src/RegistryCommunity/facets/CommunityPauseFacet.sol:CommunityPauseFacet","label":"_roles","offset":0,"slot":"201","type":"t_mapping(t_bytes32,t_struct(RoleData)13493_storage)"},{"astId":13805,"contract":"pkg/contracts/src/RegistryCommunity/facets/CommunityPauseFacet.sol:CommunityPauseFacet","label":"__gap","offset":0,"slot":"202","type":"t_array(t_uint256)49_storage"},{"astId":61024,"contract":"pkg/contracts/src/RegistryCommunity/facets/CommunityPauseFacet.sol:CommunityPauseFacet","label":"registerStakeAmount","offset":0,"slot":"251","type":"t_uint256"},{"astId":61027,"contract":"pkg/contracts/src/RegistryCommunity/facets/CommunityPauseFacet.sol:CommunityPauseFacet","label":"communityFee","offset":0,"slot":"252","type":"t_uint256"},{"astId":61030,"contract":"pkg/contracts/src/RegistryCommunity/facets/CommunityPauseFacet.sol:CommunityPauseFacet","label":"cloneNonce","offset":0,"slot":"253","type":"t_uint256"},{"astId":61033,"contract":"pkg/contracts/src/RegistryCommunity/facets/CommunityPauseFacet.sol:CommunityPauseFacet","label":"profileId","offset":0,"slot":"254","type":"t_bytes32"},{"astId":61036,"contract":"pkg/contracts/src/RegistryCommunity/facets/CommunityPauseFacet.sol:CommunityPauseFacet","label":"isKickEnabled","offset":0,"slot":"255","type":"t_bool"},{"astId":61039,"contract":"pkg/contracts/src/RegistryCommunity/facets/CommunityPauseFacet.sol:CommunityPauseFacet","label":"feeReceiver","offset":1,"slot":"255","type":"t_address"},{"astId":61042,"contract":"pkg/contracts/src/RegistryCommunity/facets/CommunityPauseFacet.sol:CommunityPauseFacet","label":"registryFactory","offset":0,"slot":"256","type":"t_address"},{"astId":61045,"contract":"pkg/contracts/src/RegistryCommunity/facets/CommunityPauseFacet.sol:CommunityPauseFacet","label":"collateralVaultTemplate","offset":0,"slot":"257","type":"t_address"},{"astId":61048,"contract":"pkg/contracts/src/RegistryCommunity/facets/CommunityPauseFacet.sol:CommunityPauseFacet","label":"strategyTemplate","offset":0,"slot":"258","type":"t_address"},{"astId":61051,"contract":"pkg/contracts/src/RegistryCommunity/facets/CommunityPauseFacet.sol:CommunityPauseFacet","label":"pendingCouncilSafe","offset":0,"slot":"259","type":"t_address_payable"},{"astId":61055,"contract":"pkg/contracts/src/RegistryCommunity/facets/CommunityPauseFacet.sol:CommunityPauseFacet","label":"registry","offset":0,"slot":"260","type":"t_contract(IRegistry)544"},{"astId":61059,"contract":"pkg/contracts/src/RegistryCommunity/facets/CommunityPauseFacet.sol:CommunityPauseFacet","label":"gardenToken","offset":0,"slot":"261","type":"t_contract(IERC20)17907"},{"astId":61063,"contract":"pkg/contracts/src/RegistryCommunity/facets/CommunityPauseFacet.sol:CommunityPauseFacet","label":"councilSafe","offset":0,"slot":"262","type":"t_contract(ISafe)68957"},{"astId":61067,"contract":"pkg/contracts/src/RegistryCommunity/facets/CommunityPauseFacet.sol:CommunityPauseFacet","label":"allo","offset":0,"slot":"263","type":"t_contract(FAllo)68617"},{"astId":61070,"contract":"pkg/contracts/src/RegistryCommunity/facets/CommunityPauseFacet.sol:CommunityPauseFacet","label":"communityName","offset":0,"slot":"264","type":"t_string_storage"},{"astId":61073,"contract":"pkg/contracts/src/RegistryCommunity/facets/CommunityPauseFacet.sol:CommunityPauseFacet","label":"covenantIpfsHash","offset":0,"slot":"265","type":"t_string_storage"},{"astId":61078,"contract":"pkg/contracts/src/RegistryCommunity/facets/CommunityPauseFacet.sol:CommunityPauseFacet","label":"enabledStrategies","offset":0,"slot":"266","type":"t_mapping(t_address,t_bool)"},{"astId":61085,"contract":"pkg/contracts/src/RegistryCommunity/facets/CommunityPauseFacet.sol:CommunityPauseFacet","label":"memberPowerInStrategy","offset":0,"slot":"267","type":"t_mapping(t_address,t_mapping(t_address,t_uint256))"},{"astId":61091,"contract":"pkg/contracts/src/RegistryCommunity/facets/CommunityPauseFacet.sol:CommunityPauseFacet","label":"addressToMemberInfo","offset":0,"slot":"268","type":"t_mapping(t_address,t_struct(Member)60969_storage)"},{"astId":61097,"contract":"pkg/contracts/src/RegistryCommunity/facets/CommunityPauseFacet.sol:CommunityPauseFacet","label":"strategiesByMember","offset":0,"slot":"269","type":"t_mapping(t_address,t_array(t_address)dyn_storage)"},{"astId":61104,"contract":"pkg/contracts/src/RegistryCommunity/facets/CommunityPauseFacet.sol:CommunityPauseFacet","label":"memberActivatedInStrategies","offset":0,"slot":"270","type":"t_mapping(t_address,t_mapping(t_address,t_bool))"},{"astId":61108,"contract":"pkg/contracts/src/RegistryCommunity/facets/CommunityPauseFacet.sol:CommunityPauseFacet","label":"initialMembers","offset":0,"slot":"271","type":"t_array(t_address)dyn_storage"},{"astId":61111,"contract":"pkg/contracts/src/RegistryCommunity/facets/CommunityPauseFacet.sol:CommunityPauseFacet","label":"totalMembers","offset":0,"slot":"272","type":"t_uint256"},{"astId":61116,"contract":"pkg/contracts/src/RegistryCommunity/facets/CommunityPauseFacet.sol:CommunityPauseFacet","label":"strategyFacetCuts","offset":0,"slot":"273","type":"t_array(t_struct(FacetCut)67449_storage)dyn_storage"},{"astId":61118,"contract":"pkg/contracts/src/RegistryCommunity/facets/CommunityPauseFacet.sol:CommunityPauseFacet","label":"strategyInit","offset":0,"slot":"274","type":"t_address"},{"astId":61120,"contract":"pkg/contracts/src/RegistryCommunity/facets/CommunityPauseFacet.sol:CommunityPauseFacet","label":"strategyInitCalldata","offset":0,"slot":"275","type":"t_bytes_storage"},{"astId":61124,"contract":"pkg/contracts/src/RegistryCommunity/facets/CommunityPauseFacet.sol:CommunityPauseFacet","label":"__gap","offset":0,"slot":"276","type":"t_array(t_uint256)46_storage"}],"types":{"t_address":{"encoding":"inplace","label":"address","numberOfBytes":"20"},"t_address_payable":{"encoding":"inplace","label":"address payable","numberOfBytes":"20"},"t_array(t_address)dyn_storage":{"encoding":"dynamic_array","label":"address[]","numberOfBytes":"32","base":"t_address"},"t_array(t_bytes4)dyn_storage":{"encoding":"dynamic_array","label":"bytes4[]","numberOfBytes":"32","base":"t_bytes4"},"t_array(t_struct(FacetCut)67449_storage)dyn_storage":{"encoding":"dynamic_array","label":"struct IDiamond.FacetCut[]","numberOfBytes":"32","base":"t_struct(FacetCut)67449_storage"},"t_array(t_uint256)46_storage":{"encoding":"inplace","label":"uint256[46]","numberOfBytes":"1472","base":"t_uint256"},"t_array(t_uint256)49_storage":{"encoding":"inplace","label":"uint256[49]","numberOfBytes":"1568","base":"t_uint256"},"t_array(t_uint256)50_storage":{"encoding":"inplace","label":"uint256[50]","numberOfBytes":"1600","base":"t_uint256"},"t_bool":{"encoding":"inplace","label":"bool","numberOfBytes":"1"},"t_bytes32":{"encoding":"inplace","label":"bytes32","numberOfBytes":"32"},"t_bytes4":{"encoding":"inplace","label":"bytes4","numberOfBytes":"4"},"t_bytes_storage":{"encoding":"bytes","label":"bytes","numberOfBytes":"32"},"t_contract(FAllo)68617":{"encoding":"inplace","label":"contract FAllo","numberOfBytes":"20"},"t_contract(IERC20)17907":{"encoding":"inplace","label":"contract IERC20","numberOfBytes":"20"},"t_contract(IRegistry)544":{"encoding":"inplace","label":"contract IRegistry","numberOfBytes":"20"},"t_contract(ISafe)68957":{"encoding":"inplace","label":"contract ISafe","numberOfBytes":"20"},"t_enum(FacetCutAction)67440":{"encoding":"inplace","label":"enum IDiamond.FacetCutAction","numberOfBytes":"1"},"t_mapping(t_address,t_array(t_address)dyn_storage)":{"encoding":"mapping","key":"t_address","label":"mapping(address => address[])","numberOfBytes":"32","value":"t_array(t_address)dyn_storage"},"t_mapping(t_address,t_bool)":{"encoding":"mapping","key":"t_address","label":"mapping(address => bool)","numberOfBytes":"32","value":"t_bool"},"t_mapping(t_address,t_mapping(t_address,t_bool))":{"encoding":"mapping","key":"t_address","label":"mapping(address => mapping(address => bool))","numberOfBytes":"32","value":"t_mapping(t_address,t_bool)"},"t_mapping(t_address,t_mapping(t_address,t_uint256))":{"encoding":"mapping","key":"t_address","label":"mapping(address => mapping(address => uint256))","numberOfBytes":"32","value":"t_mapping(t_address,t_uint256)"},"t_mapping(t_address,t_struct(Member)60969_storage)":{"encoding":"mapping","key":"t_address","label":"mapping(address => struct Member)","numberOfBytes":"32","value":"t_struct(Member)60969_storage"},"t_mapping(t_address,t_uint256)":{"encoding":"mapping","key":"t_address","label":"mapping(address => uint256)","numberOfBytes":"32","value":"t_uint256"},"t_mapping(t_bytes32,t_struct(RoleData)13493_storage)":{"encoding":"mapping","key":"t_bytes32","label":"mapping(bytes32 => struct AccessControlUpgradeable.RoleData)","numberOfBytes":"32","value":"t_struct(RoleData)13493_storage"},"t_string_storage":{"encoding":"bytes","label":"string","numberOfBytes":"32"},"t_struct(FacetCut)67449_storage":{"encoding":"inplace","label":"struct IDiamond.FacetCut","numberOfBytes":"64","members":[{"astId":67442,"contract":"pkg/contracts/src/RegistryCommunity/facets/CommunityPauseFacet.sol:CommunityPauseFacet","label":"facetAddress","offset":0,"slot":"0","type":"t_address"},{"astId":67445,"contract":"pkg/contracts/src/RegistryCommunity/facets/CommunityPauseFacet.sol:CommunityPauseFacet","label":"action","offset":20,"slot":"0","type":"t_enum(FacetCutAction)67440"},{"astId":67448,"contract":"pkg/contracts/src/RegistryCommunity/facets/CommunityPauseFacet.sol:CommunityPauseFacet","label":"functionSelectors","offset":0,"slot":"1","type":"t_array(t_bytes4)dyn_storage"}]},"t_struct(Member)60969_storage":{"encoding":"inplace","label":"struct Member","numberOfBytes":"96","members":[{"astId":60964,"contract":"pkg/contracts/src/RegistryCommunity/facets/CommunityPauseFacet.sol:CommunityPauseFacet","label":"member","offset":0,"slot":"0","type":"t_address"},{"astId":60966,"contract":"pkg/contracts/src/RegistryCommunity/facets/CommunityPauseFacet.sol:CommunityPauseFacet","label":"stakedAmount","offset":0,"slot":"1","type":"t_uint256"},{"astId":60968,"contract":"pkg/contracts/src/RegistryCommunity/facets/CommunityPauseFacet.sol:CommunityPauseFacet","label":"isRegistered","offset":0,"slot":"2","type":"t_bool"}]},"t_struct(RoleData)13493_storage":{"encoding":"inplace","label":"struct AccessControlUpgradeable.RoleData","numberOfBytes":"64","members":[{"astId":13490,"contract":"pkg/contracts/src/RegistryCommunity/facets/CommunityPauseFacet.sol:CommunityPauseFacet","label":"members","offset":0,"slot":"0","type":"t_mapping(t_address,t_bool)"},{"astId":13492,"contract":"pkg/contracts/src/RegistryCommunity/facets/CommunityPauseFacet.sol:CommunityPauseFacet","label":"adminRole","offset":0,"slot":"1","type":"t_bytes32"}]},"t_uint256":{"encoding":"inplace","label":"uint256","numberOfBytes":"32"},"t_uint8":{"encoding":"inplace","label":"uint8","numberOfBytes":"1"}}},"id":138}