{"abi":[{"type":"constructor","inputs":[],"stateMutability":"nonpayable"},{"type":"function","name":"COUNCIL_MEMBER_CHANGE","inputs":[],"outputs":[{"name":"","type":"bytes32","internalType":"bytes32"}],"stateMutability":"view"},{"type":"function","name":"DEFAULT_ADMIN_ROLE","inputs":[],"outputs":[{"name":"","type":"bytes32","internalType":"bytes32"}],"stateMutability":"view"},{"type":"function","name":"DEFAULT_POINTS","inputs":[],"outputs":[{"name":"","type":"uint256","internalType":"uint256"}],"stateMutability":"view"},{"type":"function","name":"acceptCouncilSafe","inputs":[],"outputs":[],"stateMutability":"nonpayable"},{"type":"function","name":"activateMemberInStrategy","inputs":[{"name":"_member","type":"address","internalType":"address"},{"name":"_strategy","type":"address","internalType":"address"}],"outputs":[],"stateMutability":"nonpayable"},{"type":"function","name":"addStrategy","inputs":[{"name":"_newStrategy","type":"address","internalType":"address"}],"outputs":[],"stateMutability":"nonpayable"},{"type":"function","name":"addressToMemberInfo","inputs":[{"name":"","type":"address","internalType":"address"}],"outputs":[{"name":"member","type":"address","internalType":"address"},{"name":"stakedAmount","type":"uint256","internalType":"uint256"},{"name":"isRegistered","type":"bool","internalType":"bool"}],"stateMutability":"view"},{"type":"function","name":"allo","inputs":[],"outputs":[{"name":"","type":"address","internalType":"contract IAllo"}],"stateMutability":"view"},{"type":"function","name":"communityName","inputs":[],"outputs":[{"name":"","type":"string","internalType":"string"}],"stateMutability":"view"},{"type":"function","name":"councilSafe","inputs":[],"outputs":[{"name":"","type":"address","internalType":"contract Safe"}],"stateMutability":"view"},{"type":"function","name":"deactivateMemberInStrategy","inputs":[{"name":"_member","type":"address","internalType":"address"},{"name":"_strategy","type":"address","internalType":"address"}],"outputs":[],"stateMutability":"nonpayable"},{"type":"function","name":"enabledStrategies","inputs":[{"name":"","type":"address","internalType":"address"}],"outputs":[{"name":"","type":"bool","internalType":"bool"}],"stateMutability":"view"},{"type":"function","name":"gardenToken","inputs":[],"outputs":[{"name":"","type":"address","internalType":"contract IERC20"}],"stateMutability":"view"},{"type":"function","name":"getBasisStakedAmount","inputs":[],"outputs":[{"name":"","type":"uint256","internalType":"uint256"}],"stateMutability":"view"},{"type":"function","name":"getRoleAdmin","inputs":[{"name":"role","type":"bytes32","internalType":"bytes32"}],"outputs":[{"name":"","type":"bytes32","internalType":"bytes32"}],"stateMutability":"view"},{"type":"function","name":"grantRole","inputs":[{"name":"role","type":"bytes32","internalType":"bytes32"},{"name":"account","type":"address","internalType":"address"}],"outputs":[],"stateMutability":"nonpayable"},{"type":"function","name":"hasRole","inputs":[{"name":"role","type":"bytes32","internalType":"bytes32"},{"name":"account","type":"address","internalType":"address"}],"outputs":[{"name":"","type":"bool","internalType":"bool"}],"stateMutability":"view"},{"type":"function","name":"initialize","inputs":[{"name":"params","type":"tuple","internalType":"struct RegistryGardens.InitializeParams","components":[{"name":"_allo","type":"address","internalType":"address"},{"name":"_gardenToken","type":"address","internalType":"contract IERC20"},{"name":"_registerStakeAmount","type":"uint256","internalType":"uint256"},{"name":"_protocolFee","type":"uint256","internalType":"uint256"},{"name":"_nonce","type":"uint256","internalType":"uint256"},{"name":"_metadata","type":"tuple","internalType":"struct Metadata","components":[{"name":"protocol","type":"uint256","internalType":"uint256"},{"name":"pointer","type":"string","internalType":"string"}]},{"name":"_councilSafe","type":"address","internalType":"address payable"},{"name":"_communityName","type":"string","internalType":"string"}]}],"outputs":[],"stateMutability":"nonpayable"},{"type":"function","name":"isCouncilMember","inputs":[{"name":"_member","type":"address","internalType":"address"}],"outputs":[{"name":"","type":"bool","internalType":"bool"}],"stateMutability":"view"},{"type":"function","name":"isMember","inputs":[{"name":"_member","type":"address","internalType":"address"}],"outputs":[{"name":"_isMember","type":"bool","internalType":"bool"}],"stateMutability":"view"},{"type":"function","name":"memberActivatedInStrategies","inputs":[{"name":"","type":"address","internalType":"address"},{"name":"","type":"address","internalType":"address"}],"outputs":[{"name":"","type":"bool","internalType":"bool"}],"stateMutability":"view"},{"type":"function","name":"modifyStakeAmount","inputs":[{"name":"newTotalAmount","type":"uint256","internalType":"uint256"}],"outputs":[],"stateMutability":"payable"},{"type":"function","name":"pendingCouncilSafe","inputs":[],"outputs":[{"name":"","type":"address","internalType":"address payable"}],"stateMutability":"view"},{"type":"function","name":"profileId","inputs":[],"outputs":[{"name":"","type":"bytes32","internalType":"bytes32"}],"stateMutability":"view"},{"type":"function","name":"protocolFee","inputs":[],"outputs":[{"name":"","type":"uint256","internalType":"uint256"}],"stateMutability":"view"},{"type":"function","name":"registry","inputs":[],"outputs":[{"name":"","type":"address","internalType":"contract IRegistry"}],"stateMutability":"view"},{"type":"function","name":"removeStrategy","inputs":[{"name":"_strategy","type":"address","internalType":"address"}],"outputs":[],"stateMutability":"nonpayable"},{"type":"function","name":"renounceRole","inputs":[{"name":"role","type":"bytes32","internalType":"bytes32"},{"name":"account","type":"address","internalType":"address"}],"outputs":[],"stateMutability":"nonpayable"},{"type":"function","name":"revokeRole","inputs":[{"name":"role","type":"bytes32","internalType":"bytes32"},{"name":"account","type":"address","internalType":"address"}],"outputs":[],"stateMutability":"nonpayable"},{"type":"function","name":"setAllo","inputs":[{"name":"_allo","type":"address","internalType":"address"}],"outputs":[],"stateMutability":"nonpayable"},{"type":"function","name":"setBasisStakedAmount","inputs":[{"name":"_newAmount","type":"uint256","internalType":"uint256"}],"outputs":[],"stateMutability":"nonpayable"},{"type":"function","name":"setCouncilSafe","inputs":[{"name":"_safe","type":"address","internalType":"address payable"}],"outputs":[],"stateMutability":"nonpayable"},{"type":"function","name":"stakeAndRegisterMember","inputs":[],"outputs":[],"stateMutability":"nonpayable"},{"type":"function","name":"stakeAndRegisterMember","inputs":[{"name":"_member","type":"address","internalType":"address"}],"outputs":[],"stateMutability":"nonpayable"},{"type":"function","name":"supportsInterface","inputs":[{"name":"interfaceId","type":"bytes4","internalType":"bytes4"}],"outputs":[{"name":"","type":"bool","internalType":"bool"}],"stateMutability":"view"},{"type":"function","name":"totalPointsActivatedInStrategy","inputs":[{"name":"","type":"address","internalType":"address"}],"outputs":[{"name":"","type":"uint256","internalType":"uint256"}],"stateMutability":"view"},{"type":"function","name":"tribunalMembers","inputs":[{"name":"","type":"address","internalType":"address"}],"outputs":[{"name":"","type":"bool","internalType":"bool"}],"stateMutability":"view"},{"type":"function","name":"unregisterMember","inputs":[{"name":"_member","type":"address","internalType":"address"}],"outputs":[],"stateMutability":"nonpayable"},{"type":"function","name":"updateProtocolFee","inputs":[{"name":"_newProtocolFee","type":"uint256","internalType":"uint256"}],"outputs":[],"stateMutability":"nonpayable"},{"type":"event","name":"AlloSet","inputs":[{"name":"_allo","type":"address","indexed":false,"internalType":"address"}],"anonymous":false},{"type":"event","name":"CouncilSafeChangeStarted","inputs":[{"name":"_safeOwner","type":"address","indexed":false,"internalType":"address"},{"name":"_newSafeOwner","type":"address","indexed":false,"internalType":"address"}],"anonymous":false},{"type":"event","name":"CouncilSafeSet","inputs":[{"name":"_safe","type":"address","indexed":false,"internalType":"address"}],"anonymous":false},{"type":"event","name":"MemberRegistered","inputs":[{"name":"_member","type":"address","indexed":false,"internalType":"address"},{"name":"_amountStaked","type":"uint256","indexed":false,"internalType":"uint256"}],"anonymous":false},{"type":"event","name":"MemberUnregistered","inputs":[{"name":"_member","type":"address","indexed":false,"internalType":"address"},{"name":"_amountReturned","type":"uint256","indexed":false,"internalType":"uint256"}],"anonymous":false},{"type":"event","name":"ProtocolFeeUpdated","inputs":[{"name":"_newFee","type":"uint256","indexed":false,"internalType":"uint256"}],"anonymous":false},{"type":"event","name":"RegistryInitialized","inputs":[{"name":"_profileId","type":"bytes32","indexed":false,"internalType":"bytes32"},{"name":"_communityName","type":"string","indexed":false,"internalType":"string"},{"name":"_metadata","type":"tuple","indexed":false,"internalType":"struct Metadata","components":[{"name":"protocol","type":"uint256","internalType":"uint256"},{"name":"pointer","type":"string","internalType":"string"}]}],"anonymous":false},{"type":"event","name":"RoleAdminChanged","inputs":[{"name":"role","type":"bytes32","indexed":true,"internalType":"bytes32"},{"name":"previousAdminRole","type":"bytes32","indexed":true,"internalType":"bytes32"},{"name":"newAdminRole","type":"bytes32","indexed":true,"internalType":"bytes32"}],"anonymous":false},{"type":"event","name":"RoleGranted","inputs":[{"name":"role","type":"bytes32","indexed":true,"internalType":"bytes32"},{"name":"account","type":"address","indexed":true,"internalType":"address"},{"name":"sender","type":"address","indexed":true,"internalType":"address"}],"anonymous":false},{"type":"event","name":"RoleRevoked","inputs":[{"name":"role","type":"bytes32","indexed":true,"internalType":"bytes32"},{"name":"account","type":"address","indexed":true,"internalType":"address"},{"name":"sender","type":"address","indexed":true,"internalType":"address"}],"anonymous":false},{"type":"event","name":"StakeAmountUpdated","inputs":[{"name":"_member","type":"address","indexed":false,"internalType":"address"},{"name":"_newAmount","type":"uint256","indexed":false,"internalType":"uint256"}],"anonymous":false},{"type":"event","name":"StrategyAdded","inputs":[{"name":"_strategy","type":"address","indexed":false,"internalType":"address"}],"anonymous":false},{"type":"event","name":"StrategyRemoved","inputs":[{"name":"_strategy","type":"address","indexed":false,"internalType":"address"}],"anonymous":false},{"type":"error","name":"AddressCannotBeZero","inputs":[]},{"type":"error","name":"CallerIsNotNewOnwer","inputs":[]},{"type":"error","name":"RegistryCannotBeZero","inputs":[]},{"type":"error","name":"StrategyDisabled","inputs":[]},{"type":"error","name":"StrategyExists","inputs":[]},{"type":"error","name":"UserAlreadyActivated","inputs":[]},{"type":"error","name":"UserAlreadyDeactivated","inputs":[]},{"type":"error","name":"UserAlreadyRegistered","inputs":[]},{"type":"error","name":"UserNotGardenOwner","inputs":[]},{"type":"error","name":"UserNotInCouncil","inputs":[]},{"type":"error","name":"UserNotInRegistry","inputs":[]},{"type":"error","name":"ValueCannotBeZero","inputs":[]}],"bytecode":{"object":"0x608060405234801561001057600080fd5b5060016000908155610043907fbc6bbe35ebc64943402c04d2ae016d7bd2bba28e1a11cf66be743c9bd74c720b90610048565b610095565b6000828152600160208190526040808320909101805490849055905190918391839186917fbd79b86ffe0ab8e8776151514217cd7cacd52c909f66475c3af44e129f0b00ff9190a4505050565b6123f7806100a46000396000f3fe6080604052600436106102a05760003560e01c80636c53db9a1161016e578063b5058c50116100cb578063db61d65c1161007f578063f32aadc211610064578063f32aadc21461083a578063fba1c1a31461085a578063fc45f9761461086f57600080fd5b8063db61d65c146107fa578063ebd7dc521461081a57600080fd5b8063c6d572ae116100b0578063c6d572ae14610798578063d547741f146107ba578063d6d8428d146107da57600080fd5b8063b5058c5014610756578063c19563a71461076b57600080fd5b806391d1485411610122578063a217fddf11610107578063a217fddf146106c7578063a230c524146106dc578063b0e21e8a1461074057600080fd5b806391d148541461064d578063a0b21cdf1461069357600080fd5b8063719da6a311610153578063719da6a3146105aa5780637b103999146105bd57806388cfe684146105dd57600080fd5b80636c53db9a1461055a5780636ff61ab31461057a57600080fd5b80632f2ff15d1161021c5780633a871fe1116101d05780634256dd78116101b55780634256dd78146104c7578063477a5cc0146104e757806368decabb1461052257600080fd5b80633a871fe1146104775780633c092330146104a757600080fd5b80633517aa7d116102015780633517aa7d1461042257806336568abe14610437578063397e25431461045757600080fd5b80632f2ff15d146103e257806331f61bca1461040257600080fd5b80630f44819511610273578063223e547911610258578063223e54791461037157806322bcf99914610391578063248a9ca3146103b157600080fd5b80630f44819514610331578063175188e81461035157600080fd5b806301ffc9a7146102a55780630331383c146102da57806308386eba146102f95780630d4a8b491461030f575b600080fd5b3480156102b157600080fd5b506102c56102c0366004611c5d565b61088f565b60405190151581526020015b60405180910390f35b3480156102e657600080fd5b506005545b6040519081526020016102d1565b34801561030557600080fd5b506102eb60075481565b34801561031b57600080fd5b5061032f61032a366004611cac565b6108f8565b005b34801561033d57600080fd5b5061032f61034c366004611e21565b610a57565b34801561035d57600080fd5b5061032f61036c366004611f04565b610d29565b34801561037d57600080fd5b5061032f61038c366004611f04565b610dd9565b34801561039d57600080fd5b5061032f6103ac366004611cac565b610ecf565b3480156103bd57600080fd5b506102eb6103cc366004611f21565b6000908152600160208190526040909120015490565b3480156103ee57600080fd5b5061032f6103fd366004611f3a565b611021565b34801561040e57600080fd5b5061032f61041d366004611f21565b61104c565b34801561042e57600080fd5b5061032f6110a0565b34801561044357600080fd5b5061032f610452366004611f3a565b6110ab565b34801561046357600080fd5b5061032f610472366004611f04565b61113c565b34801561048357600080fd5b506102c5610492366004611f04565b600e6020526000908152604090205460ff1681565b3480156104b357600080fd5b5061032f6104c2366004611f04565b6111f0565b3480156104d357600080fd5b5061032f6104e2366004611f21565b61123e565b3480156104f357600080fd5b506102c5610502366004611cac565b600f60209081526000928352604080842090915290825290205460ff1681565b34801561052e57600080fd5b50600854610542906001600160a01b031681565b6040516001600160a01b0390911681526020016102d1565b34801561056657600080fd5b50600954610542906001600160a01b031681565b34801561058657600080fd5b506102c5610595366004611f04565b600c6020526000908152604090205460ff1681565b61032f6105b8366004611f21565b6112c2565b3480156105c957600080fd5b50600354610542906001600160a01b031681565b3480156105e957600080fd5b506106266105f8366004611f04565b600d602052600090815260409020805460018201546002909201546001600160a01b03909116919060ff1683565b604080516001600160a01b03909416845260208401929092521515908201526060016102d1565b34801561065957600080fd5b506102c5610668366004611f3a565b60009182526001602090815260408084206001600160a01b0393909316845291905290205460ff1690565b34801561069f57600080fd5b506102eb7fbc6bbe35ebc64943402c04d2ae016d7bd2bba28e1a11cf66be743c9bd74c720b81565b3480156106d357600080fd5b506102eb600081565b3480156106e857600080fd5b506102c56106f7366004611f04565b6001600160a01b039081166000908152600d60209081526040918290208251606081018452815490941684526001810154918401919091526002015460ff161515910181905290565b34801561074c57600080fd5b506102eb60065481565b34801561076257600080fd5b5061032f6114ba565b34801561077757600080fd5b506102eb610786366004611f04565b60106020526000908152604090205481565b3480156107a457600080fd5b506107ad611506565b6040516102d19190611faf565b3480156107c657600080fd5b5061032f6107d5366004611f3a565b611594565b3480156107e657600080fd5b50600254610542906001600160a01b031681565b34801561080657600080fd5b50600454610542906001600160a01b031681565b34801561082657600080fd5b506102c5610835366004611f04565b6115ba565b34801561084657600080fd5b5061032f610855366004611f04565b6115fa565b34801561086657600080fd5b506102eb606481565b34801561087b57600080fd5b5061032f61088a366004611f04565b61167d565b60006001600160e01b031982167f7965db0b0000000000000000000000000000000000000000000000000000000014806108f257507f01ffc9a7000000000000000000000000000000000000000000000000000000006001600160e01b03198316145b92915050565b6001600160a01b038083166000908152600d60209081526040918290208251606081018452815490941684526001810154918401919091526002015460ff1615159101819052829061095d57604051636a5cfb6d60e01b815260040160405180910390fd5b610966826117e6565b6001600160a01b038084166000908152600f602090815260408083209386168352929052205460ff16156109c6576040517fd5b9bc9600000000000000000000000000000000000000000000000000000000815260040160405180910390fd5b6001600160a01b038084166000908152600f602090815260408083209386168352928152828220805460ff1916600117905560109052908120805460649290610a10908490611fd8565b90915550506040516001600160a01b03831681527f3f008fd510eae7a9e7bee13513d7b83bef8003d488b5a3d0b0da4de71d6846f1906020015b60405180910390a1505050565b610a6481602001516117e6565b610a718160c001516117e6565b8051610a7c906117e6565b8051600280546001600160a01b039283166001600160a01b0319918216179091556020830151600480549190931691161790556040810151600003610aed576040517fc70d18aa00000000000000000000000000000000000000000000000000000000815260040160405180910390fd5b6040810151600555606081015160065560e0810151600a90610b0f9082612073565b5060c0810151600980546001600160a01b0319166001600160a01b038316179055610b5b907fbc6bbe35ebc64943402c04d2ae016d7bd2bba28e1a11cf66be743c9bd74c720b90611826565b600260009054906101000a90046001600160a01b03166001600160a01b0316635ab1bd536040518163ffffffff1660e01b8152600401602060405180830381865afa158015610bae573d6000803e3d6000fd5b505050506040513d601f19601f82011682018060405250810190610bd29190612133565b600380546001600160a01b0319166001600160a01b039290921691909117905560408051600180825281830190925260009160208083019080368337505060095482519293506001600160a01b031691839150600090610c3457610c34612150565b6001600160a01b039283166020918202929092010152600354608084015160a08501516040517f3a92f65f0000000000000000000000000000000000000000000000000000000081529290931692633a92f65f92610c9c9291600a913090889060040161220a565b6020604051808303816000875af1158015610cbb573d6000803e3d6000fd5b505050506040513d601f19601f82011682018060405250810190610cdf919061228f565b600781905560a08301516040517f2f2ffcb06f8a1d35e2716f6b43ef2c19bfa76467d8f66964ae12c2583ed0320592610d1d929091600a91906122a8565b60405180910390a15050565b3360009081527fb5ecf5ecfeba8b6e20c37ad4ed6024e3afbcd2e706bee2e266a62cb37e60342c602052604090205460ff16610d7857604051637b1328fd60e11b815260040160405180910390fd5b610d81816117e6565b6001600160a01b0381166000818152600e6020908152604091829020805460ff1916905590519182527f09a1db4b80c32706328728508c941a6b954f31eb5affd32f236c1fd405f8fea491015b60405180910390a150565b3360009081527fb5ecf5ecfeba8b6e20c37ad4ed6024e3afbcd2e706bee2e266a62cb37e60342c602052604090205460ff16610e2857604051637b1328fd60e11b815260040160405180910390fd5b6001600160a01b0381166000908152600e602052604090205460ff1615610e7b576040517f968a4d2c00000000000000000000000000000000000000000000000000000000815260040160405180910390fd5b6001600160a01b0381166000818152600e6020908152604091829020805460ff1916600117905590519182527f3f008fd510eae7a9e7bee13513d7b83bef8003d488b5a3d0b0da4de71d6846f19101610dce565b6001600160a01b038083166000908152600d60209081526040918290208251606081018452815490941684526001810154918401919091526002015460ff16151591018190528290610f3457604051636a5cfb6d60e01b815260040160405180910390fd5b610f3d826117e6565b6001600160a01b038084166000908152600f602090815260408083209386168352929052205460ff16610f9c576040517fc12369dc00000000000000000000000000000000000000000000000000000000815260040160405180910390fd5b6001600160a01b038084166000908152600f602090815260408083209386168352928152828220805460ff1916905560109052908120805460649290610fe39084906122dd565b90915550506040516001600160a01b03831681527f09a1db4b80c32706328728508c941a6b954f31eb5affd32f236c1fd405f8fea490602001610a4a565b6000828152600160208190526040909120015461103d816118ad565b6110478383611826565b505050565b3360009081527fb5ecf5ecfeba8b6e20c37ad4ed6024e3afbcd2e706bee2e266a62cb37e60342c602052604090205460ff1661109b57604051637b1328fd60e11b815260040160405180910390fd5b600555565b6110a9336115fa565b565b6001600160a01b038116331461112e5760405162461bcd60e51b815260206004820152602f60248201527f416363657373436f6e74726f6c3a2063616e206f6e6c792072656e6f756e636560448201527f20726f6c657320666f722073656c66000000000000000000000000000000000060648201526084015b60405180910390fd5b61113882826118b7565b5050565b3360009081527fb5ecf5ecfeba8b6e20c37ad4ed6024e3afbcd2e706bee2e266a62cb37e60342c602052604090205460ff1661118b57604051637b1328fd60e11b815260040160405180910390fd5b611194816117e6565b600880546001600160a01b0319166001600160a01b038381169182179092556009546040805191909316815260208101919091527f83eac9fdaff0ac1017624b7eddeb9782e3d707cd894073cb7e8301a41c6e5cf89101610dce565b600280546001600160a01b0319166001600160a01b0383169081179091556040519081527faaded18d4d508696508b945d03ff3d168110dbb73e17aeda699745655fa958d290602001610dce565b3360009081527fb5ecf5ecfeba8b6e20c37ad4ed6024e3afbcd2e706bee2e266a62cb37e60342c602052604090205460ff1661128d57604051637b1328fd60e11b815260040160405180910390fd5b60068190556040518181527fd10d75876659a287a59a6ccfa2e3fff42f84d94b542837acd30bc184d562de4090602001610dce565b6112ca61193a565b336000908152600d6020908152604091829020825160608101845281546001600160a01b031681526001820154928101929092526002015460ff161515910181905261132957604051636a5cfb6d60e01b815260040160405180910390fd5b336000908152600d6020526040902060018101805490839055828110156113db576004546001600160a01b031663a9059cbb3361136684876122dd565b6040516001600160e01b031960e085901b1681526001600160a01b03909216600483015260248201526044016020604051808303816000875af11580156113b1573d6000803e3d6000fd5b505050506040513d601f19601f820116820180604052508101906113d591906122f0565b50611472565b6004546001600160a01b03166323b872dd30336113f887866122dd565b6040516001600160e01b031960e086901b1681526001600160a01b03938416600482015292909116602483015260448201526064016020604051808303816000875af115801561144c573d6000803e3d6000fd5b505050506040513d601f19601f8201168201806040525081019061147091906122f0565b505b60408051338152602081018590527f821ce476b1049194918a16d24c27f2e616dc0f19a93d61020493f648e5493adf910160405180910390a150506114b76001600055565b50565b6008546001600160a01b031633146114fe576040517ffd4bfdb700000000000000000000000000000000000000000000000000000000815260040160405180910390fd5b6110a9611993565b600a805461151390611feb565b80601f016020809104026020016040519081016040528092919081815260200182805461153f90611feb565b801561158c5780601f106115615761010080835404028352916020019161158c565b820191906000526020600020905b81548152906001019060200180831161156f57829003601f168201915b505050505081565b600082815260016020819052604090912001546115b0816118ad565b61104783836118b7565b6001600160a01b03811660009081527fb5ecf5ecfeba8b6e20c37ad4ed6024e3afbcd2e706bee2e266a62cb37e60342c602052604081205460ff166108f2565b61160261193a565b6001600160a01b0381166000818152600d602090815260409182902060028101805460ff19166001908117909155600554908201819055835194855291840191909152917f67e0244e28040fec15240cd4b6c04c776a2a0278caef23b59e8ada1df31f768991015b60405180910390a1506114b76001600055565b61168561193a565b6001600160a01b038082166000908152600d60209081526040918290208251606081018452815490941684526001810154918401919091526002015460ff1615159101819052806116da57506116da336115ba565b61174c5760405162461bcd60e51b815260206004820152602f60248201527f5b52656769737472795d3a204d75737420626520616374697665206d656d626560448201527f7220746f20756e726567697374657200000000000000000000000000000000006064820152608401611125565b336000818152600d60208181526040808420815160608101835281546001600160a01b038116825260018301805483870190815260028501805460ff81161515868901528b8b529888526001600160a01b03199093169094559690965560ff199094169094559251835194855290840152917fa13f4668aacb68c4e9eed8e3f6e1cbec3eca776896ec46b5eabcc3983fc8f5f4910161166a565b6001600160a01b0381166114b7576040517fe622e04000000000000000000000000000000000000000000000000000000000815260040160405180910390fd5b60008281526001602090815260408083206001600160a01b038516845290915290205460ff166111385760008281526001602081815260408084206001600160a01b0386168086529252808420805460ff19169093179092559051339285917f2f8788117e7eff1d82e926ec794901d17c78024a50270940304540a733656f0d9190a45050565b6114b781336119ee565b60008281526001602090815260408083206001600160a01b038516845290915290205460ff16156111385760008281526001602090815260408083206001600160a01b0385168085529252808320805460ff1916905551339285917ff6391f5c32d9c69d2a47ea670b442974b53935d1edc7fd64eb21e047a839171b9190a45050565b60026000540361198c5760405162461bcd60e51b815260206004820152601f60248201527f5265656e7472616e637947756172643a207265656e7472616e742063616c6c006044820152606401611125565b6002600055565b60088054600980546001600160a01b0383166001600160a01b031991821617909155169055604051600081527fad0399dc40331b9a4977aa89da7a164a3fd482c65e6da73b25a94ea74fb688729060200160405180910390a1565b60008281526001602090815260408083206001600160a01b038516845290915290205460ff1661113857611a2181611a63565b611a2c836020611a75565b604051602001611a3d929190612312565b60408051601f198184030181529082905262461bcd60e51b825261112591600401611faf565b60606108f26001600160a01b03831660145b60606000611a84836002612393565b611a8f906002611fd8565b67ffffffffffffffff811115611aa757611aa7611ce5565b6040519080825280601f01601f191660200182016040528015611ad1576020820181803683370190505b5090507f300000000000000000000000000000000000000000000000000000000000000081600081518110611b0857611b08612150565b60200101906001600160f81b031916908160001a9053507f780000000000000000000000000000000000000000000000000000000000000081600181518110611b5357611b53612150565b60200101906001600160f81b031916908160001a9053506000611b77846002612393565b611b82906001611fd8565b90505b6001811115611c07577f303132333435363738396162636465660000000000000000000000000000000085600f1660108110611bc357611bc3612150565b1a60f81b828281518110611bd957611bd9612150565b60200101906001600160f81b031916908160001a90535060049490941c93611c00816123aa565b9050611b85565b508315611c565760405162461bcd60e51b815260206004820181905260248201527f537472696e67733a20686578206c656e67746820696e73756666696369656e746044820152606401611125565b9392505050565b600060208284031215611c6f57600080fd5b81356001600160e01b031981168114611c5657600080fd5b6001600160a01b03811681146114b757600080fd5b8035611ca781611c87565b919050565b60008060408385031215611cbf57600080fd5b8235611cca81611c87565b91506020830135611cda81611c87565b809150509250929050565b634e487b7160e01b600052604160045260246000fd5b604051610100810167ffffffffffffffff81118282101715611d1f57611d1f611ce5565b60405290565b600082601f830112611d3657600080fd5b813567ffffffffffffffff80821115611d5157611d51611ce5565b604051601f8301601f19908116603f01168101908282118183101715611d7957611d79611ce5565b81604052838152866020858801011115611d9257600080fd5b836020870160208301376000602085830101528094505050505092915050565b600060408284031215611dc457600080fd5b6040516040810167ffffffffffffffff8282108183111715611de857611de8611ce5565b81604052829350843583526020850135915080821115611e0757600080fd5b50611e1485828601611d25565b6020830152505092915050565b600060208284031215611e3357600080fd5b813567ffffffffffffffff80821115611e4b57600080fd5b908301906101008286031215611e6057600080fd5b611e68611cfb565b611e7183611c9c565b8152611e7f60208401611c9c565b602082015260408301356040820152606083013560608201526080830135608082015260a083013582811115611eb457600080fd5b611ec087828601611db2565b60a083015250611ed260c08401611c9c565b60c082015260e083013582811115611ee957600080fd5b611ef587828601611d25565b60e08301525095945050505050565b600060208284031215611f1657600080fd5b8135611c5681611c87565b600060208284031215611f3357600080fd5b5035919050565b60008060408385031215611f4d57600080fd5b823591506020830135611cda81611c87565b60005b83811015611f7a578181015183820152602001611f62565b50506000910152565b60008151808452611f9b816020860160208601611f5f565b601f01601f19169290920160200192915050565b602081526000611c566020830184611f83565b634e487b7160e01b600052601160045260246000fd5b808201808211156108f2576108f2611fc2565b600181811c90821680611fff57607f821691505b60208210810361201f57634e487b7160e01b600052602260045260246000fd5b50919050565b601f82111561104757600081815260208120601f850160051c8101602086101561204c5750805b601f850160051c820191505b8181101561206b57828155600101612058565b505050505050565b815167ffffffffffffffff81111561208d5761208d611ce5565b6120a18161209b8454611feb565b84612025565b602080601f8311600181146120d657600084156120be5750858301515b600019600386901b1c1916600185901b17855561206b565b600085815260208120601f198616915b82811015612105578886015182559484019460019091019084016120e6565b50858210156121235787850151600019600388901b60f8161c191681555b5050505050600190811b01905550565b60006020828403121561214557600080fd5b8151611c5681611c87565b634e487b7160e01b600052603260045260246000fd5b6000815461217381611feb565b80855260206001838116801561219057600181146121aa576121d8565b60ff1985168884015283151560051b8801830195506121d8565b866000528260002060005b858110156121d05781548a82018601529083019084016121b5565b890184019650505b505050505092915050565b8051825260006020820151604060208501526122026040850182611f83565b949350505050565b8581526000602060a08184015261222460a0840188612166565b838103604085015261223681886121e3565b6001600160a01b038781166060870152858203608087015286518083528488019350909184019060005b8181101561227e578451841683529385019391850191600101612260565b50909b9a5050505050505050505050565b6000602082840312156122a157600080fd5b5051919050565b8381526060602082015260006122c16060830185612166565b82810360408401526122d381856121e3565b9695505050505050565b818103818111156108f2576108f2611fc2565b60006020828403121561230257600080fd5b81518015158114611c5657600080fd5b7f416363657373436f6e74726f6c3a206163636f756e742000000000000000000081526000835161234a816017850160208801611f5f565b7f206973206d697373696e6720726f6c65200000000000000000000000000000006017918401918201528351612387816028840160208801611f5f565b01602801949350505050565b80820281158282048414176108f2576108f2611fc2565b6000816123b9576123b9611fc2565b50600019019056fea2646970667358221220f3c28ad2d257bfe12ef0f61a2114505c9bdc099b16f8b1a68841269f5178f45c64736f6c63430008130033","linkReferences":{}},"methodIdentifiers":{"COUNCIL_MEMBER_CHANGE()":"a0b21cdf","DEFAULT_ADMIN_ROLE()":"a217fddf","DEFAULT_POINTS()":"fba1c1a3","acceptCouncilSafe()":"b5058c50","activateMemberInStrategy(address,address)":"0d4a8b49","addStrategy(address)":"223e5479","addressToMemberInfo(address)":"88cfe684","allo()":"d6d8428d","communityName()":"c6d572ae","councilSafe()":"6c53db9a","deactivateMemberInStrategy(address,address)":"22bcf999","enabledStrategies(address)":"3a871fe1","gardenToken()":"db61d65c","getBasisStakedAmount()":"0331383c","getRoleAdmin(bytes32)":"248a9ca3","grantRole(bytes32,address)":"2f2ff15d","hasRole(bytes32,address)":"91d14854","initialize((address,address,uint256,uint256,uint256,(uint256,string),address,string))":"0f448195","isCouncilMember(address)":"ebd7dc52","isMember(address)":"a230c524","memberActivatedInStrategies(address,address)":"477a5cc0","modifyStakeAmount(uint256)":"719da6a3","pendingCouncilSafe()":"68decabb","profileId()":"08386eba","protocolFee()":"b0e21e8a","registry()":"7b103999","removeStrategy(address)":"175188e8","renounceRole(bytes32,address)":"36568abe","revokeRole(bytes32,address)":"d547741f","setAllo(address)":"3c092330","setBasisStakedAmount(uint256)":"31f61bca","setCouncilSafe(address)":"397e2543","stakeAndRegisterMember()":"3517aa7d","stakeAndRegisterMember(address)":"f32aadc2","supportsInterface(bytes4)":"01ffc9a7","totalPointsActivatedInStrategy(address)":"c19563a7","tribunalMembers(address)":"6ff61ab3","unregisterMember(address)":"fc45f976","updateProtocolFee(uint256)":"4256dd78"},"id":95}