{"abi":[{"type":"constructor","inputs":[],"stateMutability":"nonpayable"},{"type":"function","name":"COUNCIL_MEMBER_CHANGE","inputs":[],"outputs":[{"name":"","type":"bytes32","internalType":"bytes32"}],"stateMutability":"view"},{"type":"function","name":"DEFAULT_ADMIN_ROLE","inputs":[],"outputs":[{"name":"","type":"bytes32","internalType":"bytes32"}],"stateMutability":"view"},{"type":"function","name":"DEFAULT_POINTS","inputs":[],"outputs":[{"name":"","type":"uint256","internalType":"uint256"}],"stateMutability":"view"},{"type":"function","name":"acceptCouncilSafe","inputs":[],"outputs":[],"stateMutability":"nonpayable"},{"type":"function","name":"activateMemberInStrategy","inputs":[{"name":"_member","type":"address","internalType":"address"},{"name":"_strategy","type":"address","internalType":"address"}],"outputs":[],"stateMutability":"nonpayable"},{"type":"function","name":"addStrategy","inputs":[{"name":"_newStrategy","type":"address","internalType":"address"}],"outputs":[],"stateMutability":"nonpayable"},{"type":"function","name":"addressToMemberInfo","inputs":[{"name":"","type":"address","internalType":"address"}],"outputs":[{"name":"member","type":"address","internalType":"address"},{"name":"stakedAmount","type":"uint256","internalType":"uint256"},{"name":"isRegistered","type":"bool","internalType":"bool"}],"stateMutability":"view"},{"type":"function","name":"allo","inputs":[],"outputs":[{"name":"","type":"address","internalType":"contract IAllo"}],"stateMutability":"view"},{"type":"function","name":"communityName","inputs":[],"outputs":[{"name":"","type":"string","internalType":"string"}],"stateMutability":"view"},{"type":"function","name":"councilSafe","inputs":[],"outputs":[{"name":"","type":"address","internalType":"contract Safe"}],"stateMutability":"view"},{"type":"function","name":"deactivateMemberInStrategy","inputs":[{"name":"_member","type":"address","internalType":"address"},{"name":"_strategy","type":"address","internalType":"address"}],"outputs":[],"stateMutability":"nonpayable"},{"type":"function","name":"enabledStrategies","inputs":[{"name":"","type":"address","internalType":"address"}],"outputs":[{"name":"","type":"bool","internalType":"bool"}],"stateMutability":"view"},{"type":"function","name":"gardenToken","inputs":[],"outputs":[{"name":"","type":"address","internalType":"contract IERC20"}],"stateMutability":"view"},{"type":"function","name":"getBasisStakedAmount","inputs":[],"outputs":[{"name":"","type":"uint256","internalType":"uint256"}],"stateMutability":"view"},{"type":"function","name":"getRoleAdmin","inputs":[{"name":"role","type":"bytes32","internalType":"bytes32"}],"outputs":[{"name":"","type":"bytes32","internalType":"bytes32"}],"stateMutability":"view"},{"type":"function","name":"grantRole","inputs":[{"name":"role","type":"bytes32","internalType":"bytes32"},{"name":"account","type":"address","internalType":"address"}],"outputs":[],"stateMutability":"nonpayable"},{"type":"function","name":"hasRole","inputs":[{"name":"role","type":"bytes32","internalType":"bytes32"},{"name":"account","type":"address","internalType":"address"}],"outputs":[{"name":"","type":"bool","internalType":"bool"}],"stateMutability":"view"},{"type":"function","name":"initialize","inputs":[{"name":"params","type":"tuple","internalType":"struct RegistryGardens.InitializeParams","components":[{"name":"_allo","type":"address","internalType":"address"},{"name":"_gardenToken","type":"address","internalType":"contract IERC20"},{"name":"_registerStakeAmount","type":"uint256","internalType":"uint256"},{"name":"_protocolFee","type":"uint256","internalType":"uint256"},{"name":"_nonce","type":"uint256","internalType":"uint256"},{"name":"_metadata","type":"tuple","internalType":"struct Metadata","components":[{"name":"protocol","type":"uint256","internalType":"uint256"},{"name":"pointer","type":"string","internalType":"string"}]},{"name":"_councilSafe","type":"address","internalType":"address payable"},{"name":"_communityName","type":"string","internalType":"string"}]}],"outputs":[],"stateMutability":"nonpayable"},{"type":"function","name":"isCouncilMember","inputs":[{"name":"_member","type":"address","internalType":"address"}],"outputs":[{"name":"","type":"bool","internalType":"bool"}],"stateMutability":"view"},{"type":"function","name":"isMember","inputs":[{"name":"_member","type":"address","internalType":"address"}],"outputs":[{"name":"_isMember","type":"bool","internalType":"bool"}],"stateMutability":"view"},{"type":"function","name":"memberActivatedInStrategies","inputs":[{"name":"","type":"address","internalType":"address"},{"name":"","type":"address","internalType":"address"}],"outputs":[{"name":"","type":"bool","internalType":"bool"}],"stateMutability":"view"},{"type":"function","name":"modifyStakeAmount","inputs":[{"name":"newTotalAmount","type":"uint256","internalType":"uint256"}],"outputs":[],"stateMutability":"payable"},{"type":"function","name":"pendingCouncilSafe","inputs":[],"outputs":[{"name":"","type":"address","internalType":"address payable"}],"stateMutability":"view"},{"type":"function","name":"profileId","inputs":[],"outputs":[{"name":"","type":"bytes32","internalType":"bytes32"}],"stateMutability":"view"},{"type":"function","name":"protocolFee","inputs":[],"outputs":[{"name":"","type":"uint256","internalType":"uint256"}],"stateMutability":"view"},{"type":"function","name":"registry","inputs":[],"outputs":[{"name":"","type":"address","internalType":"contract IRegistry"}],"stateMutability":"view"},{"type":"function","name":"removeStrategy","inputs":[{"name":"_strategy","type":"address","internalType":"address"}],"outputs":[],"stateMutability":"nonpayable"},{"type":"function","name":"renounceRole","inputs":[{"name":"role","type":"bytes32","internalType":"bytes32"},{"name":"account","type":"address","internalType":"address"}],"outputs":[],"stateMutability":"nonpayable"},{"type":"function","name":"revokeRole","inputs":[{"name":"role","type":"bytes32","internalType":"bytes32"},{"name":"account","type":"address","internalType":"address"}],"outputs":[],"stateMutability":"nonpayable"},{"type":"function","name":"setAllo","inputs":[{"name":"_allo","type":"address","internalType":"address"}],"outputs":[],"stateMutability":"nonpayable"},{"type":"function","name":"setBasisStakedAmount","inputs":[{"name":"_newAmount","type":"uint256","internalType":"uint256"}],"outputs":[],"stateMutability":"nonpayable"},{"type":"function","name":"setCouncilSafe","inputs":[{"name":"_safe","type":"address","internalType":"address payable"}],"outputs":[],"stateMutability":"nonpayable"},{"type":"function","name":"stakeAndRegisterMember","inputs":[],"outputs":[],"stateMutability":"nonpayable"},{"type":"function","name":"stakeAndRegisterMember","inputs":[{"name":"_member","type":"address","internalType":"address"}],"outputs":[],"stateMutability":"nonpayable"},{"type":"function","name":"supportsInterface","inputs":[{"name":"interfaceId","type":"bytes4","internalType":"bytes4"}],"outputs":[{"name":"","type":"bool","internalType":"bool"}],"stateMutability":"view"},{"type":"function","name":"totalPointsActivatedInStrategy","inputs":[{"name":"","type":"address","internalType":"address"}],"outputs":[{"name":"","type":"uint256","internalType":"uint256"}],"stateMutability":"view"},{"type":"function","name":"tribunalMembers","inputs":[{"name":"","type":"address","internalType":"address"}],"outputs":[{"name":"","type":"bool","internalType":"bool"}],"stateMutability":"view"},{"type":"function","name":"unregisterMember","inputs":[{"name":"_member","type":"address","internalType":"address"}],"outputs":[],"stateMutability":"nonpayable"},{"type":"function","name":"updateProtocolFee","inputs":[{"name":"_newProtocolFee","type":"uint256","internalType":"uint256"}],"outputs":[],"stateMutability":"nonpayable"},{"type":"event","name":"AlloSet","inputs":[{"name":"_allo","type":"address","indexed":false,"internalType":"address"}],"anonymous":false},{"type":"event","name":"CouncilSafeChangeStarted","inputs":[{"name":"_safeOwner","type":"address","indexed":false,"internalType":"address"},{"name":"_newSafeOwner","type":"address","indexed":false,"internalType":"address"}],"anonymous":false},{"type":"event","name":"CouncilSafeSet","inputs":[{"name":"_safe","type":"address","indexed":false,"internalType":"address"}],"anonymous":false},{"type":"event","name":"MemberRegistered","inputs":[{"name":"_member","type":"address","indexed":false,"internalType":"address"},{"name":"_amountStaked","type":"uint256","indexed":false,"internalType":"uint256"}],"anonymous":false},{"type":"event","name":"MemberUnregistered","inputs":[{"name":"_member","type":"address","indexed":false,"internalType":"address"},{"name":"_amountReturned","type":"uint256","indexed":false,"internalType":"uint256"}],"anonymous":false},{"type":"event","name":"ProtocolFeeUpdated","inputs":[{"name":"_newFee","type":"uint256","indexed":false,"internalType":"uint256"}],"anonymous":false},{"type":"event","name":"RegistryInitialized","inputs":[{"name":"_profileId","type":"bytes32","indexed":false,"internalType":"bytes32"},{"name":"_communityName","type":"string","indexed":false,"internalType":"string"},{"name":"_metadata","type":"tuple","indexed":false,"internalType":"struct Metadata","components":[{"name":"protocol","type":"uint256","internalType":"uint256"},{"name":"pointer","type":"string","internalType":"string"}]}],"anonymous":false},{"type":"event","name":"RoleAdminChanged","inputs":[{"name":"role","type":"bytes32","indexed":true,"internalType":"bytes32"},{"name":"previousAdminRole","type":"bytes32","indexed":true,"internalType":"bytes32"},{"name":"newAdminRole","type":"bytes32","indexed":true,"internalType":"bytes32"}],"anonymous":false},{"type":"event","name":"RoleGranted","inputs":[{"name":"role","type":"bytes32","indexed":true,"internalType":"bytes32"},{"name":"account","type":"address","indexed":true,"internalType":"address"},{"name":"sender","type":"address","indexed":true,"internalType":"address"}],"anonymous":false},{"type":"event","name":"RoleRevoked","inputs":[{"name":"role","type":"bytes32","indexed":true,"internalType":"bytes32"},{"name":"account","type":"address","indexed":true,"internalType":"address"},{"name":"sender","type":"address","indexed":true,"internalType":"address"}],"anonymous":false},{"type":"event","name":"StakeAmountUpdated","inputs":[{"name":"_member","type":"address","indexed":false,"internalType":"address"},{"name":"_newAmount","type":"uint256","indexed":false,"internalType":"uint256"}],"anonymous":false},{"type":"event","name":"StrategyAdded","inputs":[{"name":"_strategy","type":"address","indexed":false,"internalType":"address"}],"anonymous":false},{"type":"event","name":"StrategyRemoved","inputs":[{"name":"_strategy","type":"address","indexed":false,"internalType":"address"}],"anonymous":false},{"type":"error","name":"AddressCannotBeZero","inputs":[]},{"type":"error","name":"CallerIsNotNewOnwer","inputs":[]},{"type":"error","name":"RegistryCannotBeZero","inputs":[]},{"type":"error","name":"StrategyDisabled","inputs":[]},{"type":"error","name":"StrategyExists","inputs":[]},{"type":"error","name":"UserAlreadyActivated","inputs":[]},{"type":"error","name":"UserAlreadyDeactivated","inputs":[]},{"type":"error","name":"UserAlreadyRegistered","inputs":[]},{"type":"error","name":"UserNotGardenOwner","inputs":[]},{"type":"error","name":"UserNotInCouncil","inputs":[]},{"type":"error","name":"UserNotInRegistry","inputs":[]},{"type":"error","name":"ValueCannotBeZero","inputs":[]}],"bytecode":{"object":"0x608060405234801561001057600080fd5b5060016000908155610043907fbc6bbe35ebc64943402c04d2ae016d7bd2bba28e1a11cf66be743c9bd74c720b90610048565b610095565b6000828152600160208190526040808320909101805490849055905190918391839186917fbd79b86ffe0ab8e8776151514217cd7cacd52c909f66475c3af44e129f0b00ff9190a4505050565b6123ee806100a46000396000f3fe6080604052600436106102a05760003560e01c80636c53db9a1161016e578063b5058c50116100cb578063db61d65c1161007f578063f32aadc211610064578063f32aadc21461083a578063fba1c1a31461085a578063fc45f9761461086f57600080fd5b8063db61d65c146107fa578063ebd7dc521461081a57600080fd5b8063c6d572ae116100b0578063c6d572ae14610798578063d547741f146107ba578063d6d8428d146107da57600080fd5b8063b5058c5014610756578063c19563a71461076b57600080fd5b806391d1485411610122578063a217fddf11610107578063a217fddf146106c7578063a230c524146106dc578063b0e21e8a1461074057600080fd5b806391d148541461064d578063a0b21cdf1461069357600080fd5b8063719da6a311610153578063719da6a3146105aa5780637b103999146105bd57806388cfe684146105dd57600080fd5b80636c53db9a1461055a5780636ff61ab31461057a57600080fd5b80632f2ff15d1161021c5780633a871fe1116101d05780634256dd78116101b55780634256dd78146104c7578063477a5cc0146104e757806368decabb1461052257600080fd5b80633a871fe1146104775780633c092330146104a757600080fd5b80633517aa7d116102015780633517aa7d1461042257806336568abe14610437578063397e25431461045757600080fd5b80632f2ff15d146103e257806331f61bca1461040257600080fd5b80630f44819511610273578063223e547911610258578063223e54791461037157806322bcf99914610391578063248a9ca3146103b157600080fd5b80630f44819514610331578063175188e81461035157600080fd5b806301ffc9a7146102a55780630331383c146102da57806308386eba146102f95780630d4a8b491461030f575b600080fd5b3480156102b157600080fd5b506102c56102c0366004611c54565b61088f565b60405190151581526020015b60405180910390f35b3480156102e657600080fd5b506005545b6040519081526020016102d1565b34801561030557600080fd5b506102eb60075481565b34801561031b57600080fd5b5061032f61032a366004611ca3565b6108f8565b005b34801561033d57600080fd5b5061032f61034c366004611e18565b610a57565b34801561035d57600080fd5b5061032f61036c366004611efb565b610d20565b34801561037d57600080fd5b5061032f61038c366004611efb565b610dd0565b34801561039d57600080fd5b5061032f6103ac366004611ca3565b610ec6565b3480156103bd57600080fd5b506102eb6103cc366004611f18565b6000908152600160208190526040909120015490565b3480156103ee57600080fd5b5061032f6103fd366004611f31565b611018565b34801561040e57600080fd5b5061032f61041d366004611f18565b611043565b34801561042e57600080fd5b5061032f611097565b34801561044357600080fd5b5061032f610452366004611f31565b6110a2565b34801561046357600080fd5b5061032f610472366004611efb565b611133565b34801561048357600080fd5b506102c5610492366004611efb565b600e6020526000908152604090205460ff1681565b3480156104b357600080fd5b5061032f6104c2366004611efb565b6111e7565b3480156104d357600080fd5b5061032f6104e2366004611f18565b611235565b3480156104f357600080fd5b506102c5610502366004611ca3565b600f60209081526000928352604080842090915290825290205460ff1681565b34801561052e57600080fd5b50600854610542906001600160a01b031681565b6040516001600160a01b0390911681526020016102d1565b34801561056657600080fd5b50600954610542906001600160a01b031681565b34801561058657600080fd5b506102c5610595366004611efb565b600c6020526000908152604090205460ff1681565b61032f6105b8366004611f18565b6112b9565b3480156105c957600080fd5b50600354610542906001600160a01b031681565b3480156105e957600080fd5b506106266105f8366004611efb565b600d602052600090815260409020805460018201546002909201546001600160a01b03909116919060ff1683565b604080516001600160a01b03909416845260208401929092521515908201526060016102d1565b34801561065957600080fd5b506102c5610668366004611f31565b60009182526001602090815260408084206001600160a01b0393909316845291905290205460ff1690565b34801561069f57600080fd5b506102eb7fbc6bbe35ebc64943402c04d2ae016d7bd2bba28e1a11cf66be743c9bd74c720b81565b3480156106d357600080fd5b506102eb600081565b3480156106e857600080fd5b506102c56106f7366004611efb565b6001600160a01b039081166000908152600d60209081526040918290208251606081018452815490941684526001810154918401919091526002015460ff161515910181905290565b34801561074c57600080fd5b506102eb60065481565b34801561076257600080fd5b5061032f6114b1565b34801561077757600080fd5b506102eb610786366004611efb565b60106020526000908152604090205481565b3480156107a457600080fd5b506107ad6114fd565b6040516102d19190611fa6565b3480156107c657600080fd5b5061032f6107d5366004611f31565b61158b565b3480156107e657600080fd5b50600254610542906001600160a01b031681565b34801561080657600080fd5b50600454610542906001600160a01b031681565b34801561082657600080fd5b506102c5610835366004611efb565b6115b1565b34801561084657600080fd5b5061032f610855366004611efb565b6115f1565b34801561086657600080fd5b506102eb606481565b34801561087b57600080fd5b5061032f61088a366004611efb565b611674565b60006001600160e01b031982167f7965db0b0000000000000000000000000000000000000000000000000000000014806108f257507f01ffc9a7000000000000000000000000000000000000000000000000000000006001600160e01b03198316145b92915050565b6001600160a01b038083166000908152600d60209081526040918290208251606081018452815490941684526001810154918401919091526002015460ff1615159101819052829061095d57604051636a5cfb6d60e01b815260040160405180910390fd5b610966826117dd565b6001600160a01b038084166000908152600f602090815260408083209386168352929052205460ff16156109c6576040517fd5b9bc9600000000000000000000000000000000000000000000000000000000815260040160405180910390fd5b6001600160a01b038084166000908152600f602090815260408083209386168352928152828220805460ff1916600117905560109052908120805460649290610a10908490611fcf565b90915550506040516001600160a01b03831681527f3f008fd510eae7a9e7bee13513d7b83bef8003d488b5a3d0b0da4de71d6846f1906020015b60405180910390a1505050565b610a6481602001516117dd565b610a718160c001516117dd565b8051610a7c906117dd565b8051600280546001600160a01b039283166001600160a01b0319918216179091556020830151600480549190931691161790556040810151600003610aed576040517fc70d18aa00000000000000000000000000000000000000000000000000000000815260040160405180910390fd5b6040810151600555606081015160065560e0810151600a90610b0f908261206a565b5060c0810151600980546001600160a01b0319166001600160a01b038316179055610b5b907fbc6bbe35ebc64943402c04d2ae016d7bd2bba28e1a11cf66be743c9bd74c720b9061181d565b600260009054906101000a90046001600160a01b03166001600160a01b0316635ab1bd536040518163ffffffff1660e01b8152600401602060405180830381865afa158015610bae573d6000803e3d6000fd5b505050506040513d601f19601f82011682018060405250810190610bd2919061212a565b600380546001600160a01b0319166001600160a01b039290921691909117905560408051600180825281830190925233916000919060208083019080368337505060095482519293506001600160a01b031691839150600090610c3757610c37612147565b6001600160a01b039283166020918202929092010152600354608085015160a08601516040517f3a92f65f0000000000000000000000000000000000000000000000000000000081529290931692633a92f65f92610c9f9291600a9188908890600401612201565b6020604051808303816000875af1158015610cbe573d6000803e3d6000fd5b505050506040513d601f19601f82011682018060405250810190610ce29190612286565b600781905560a08401516040517f2f2ffcb06f8a1d35e2716f6b43ef2c19bfa76467d8f66964ae12c2583ed0320592610a4a929091600a919061229f565b3360009081527fb5ecf5ecfeba8b6e20c37ad4ed6024e3afbcd2e706bee2e266a62cb37e60342c602052604090205460ff16610d6f57604051637b1328fd60e11b815260040160405180910390fd5b610d78816117dd565b6001600160a01b0381166000818152600e6020908152604091829020805460ff1916905590519182527f09a1db4b80c32706328728508c941a6b954f31eb5affd32f236c1fd405f8fea491015b60405180910390a150565b3360009081527fb5ecf5ecfeba8b6e20c37ad4ed6024e3afbcd2e706bee2e266a62cb37e60342c602052604090205460ff16610e1f57604051637b1328fd60e11b815260040160405180910390fd5b6001600160a01b0381166000908152600e602052604090205460ff1615610e72576040517f968a4d2c00000000000000000000000000000000000000000000000000000000815260040160405180910390fd5b6001600160a01b0381166000818152600e6020908152604091829020805460ff1916600117905590519182527f3f008fd510eae7a9e7bee13513d7b83bef8003d488b5a3d0b0da4de71d6846f19101610dc5565b6001600160a01b038083166000908152600d60209081526040918290208251606081018452815490941684526001810154918401919091526002015460ff16151591018190528290610f2b57604051636a5cfb6d60e01b815260040160405180910390fd5b610f34826117dd565b6001600160a01b038084166000908152600f602090815260408083209386168352929052205460ff16610f93576040517fc12369dc00000000000000000000000000000000000000000000000000000000815260040160405180910390fd5b6001600160a01b038084166000908152600f602090815260408083209386168352928152828220805460ff1916905560109052908120805460649290610fda9084906122d4565b90915550506040516001600160a01b03831681527f09a1db4b80c32706328728508c941a6b954f31eb5affd32f236c1fd405f8fea490602001610a4a565b60008281526001602081905260409091200154611034816118a4565b61103e838361181d565b505050565b3360009081527fb5ecf5ecfeba8b6e20c37ad4ed6024e3afbcd2e706bee2e266a62cb37e60342c602052604090205460ff1661109257604051637b1328fd60e11b815260040160405180910390fd5b600555565b6110a0336115f1565b565b6001600160a01b03811633146111255760405162461bcd60e51b815260206004820152602f60248201527f416363657373436f6e74726f6c3a2063616e206f6e6c792072656e6f756e636560448201527f20726f6c657320666f722073656c66000000000000000000000000000000000060648201526084015b60405180910390fd5b61112f82826118ae565b5050565b3360009081527fb5ecf5ecfeba8b6e20c37ad4ed6024e3afbcd2e706bee2e266a62cb37e60342c602052604090205460ff1661118257604051637b1328fd60e11b815260040160405180910390fd5b61118b816117dd565b600880546001600160a01b0319166001600160a01b038381169182179092556009546040805191909316815260208101919091527f83eac9fdaff0ac1017624b7eddeb9782e3d707cd894073cb7e8301a41c6e5cf89101610dc5565b600280546001600160a01b0319166001600160a01b0383169081179091556040519081527faaded18d4d508696508b945d03ff3d168110dbb73e17aeda699745655fa958d290602001610dc5565b3360009081527fb5ecf5ecfeba8b6e20c37ad4ed6024e3afbcd2e706bee2e266a62cb37e60342c602052604090205460ff1661128457604051637b1328fd60e11b815260040160405180910390fd5b60068190556040518181527fd10d75876659a287a59a6ccfa2e3fff42f84d94b542837acd30bc184d562de4090602001610dc5565b6112c1611931565b336000908152600d6020908152604091829020825160608101845281546001600160a01b031681526001820154928101929092526002015460ff161515910181905261132057604051636a5cfb6d60e01b815260040160405180910390fd5b336000908152600d6020526040902060018101805490839055828110156113d2576004546001600160a01b031663a9059cbb3361135d84876122d4565b6040516001600160e01b031960e085901b1681526001600160a01b03909216600483015260248201526044016020604051808303816000875af11580156113a8573d6000803e3d6000fd5b505050506040513d601f19601f820116820180604052508101906113cc91906122e7565b50611469565b6004546001600160a01b03166323b872dd30336113ef87866122d4565b6040516001600160e01b031960e086901b1681526001600160a01b03938416600482015292909116602483015260448201526064016020604051808303816000875af1158015611443573d6000803e3d6000fd5b505050506040513d601f19601f8201168201806040525081019061146791906122e7565b505b60408051338152602081018590527f821ce476b1049194918a16d24c27f2e616dc0f19a93d61020493f648e5493adf910160405180910390a150506114ae6001600055565b50565b6008546001600160a01b031633146114f5576040517ffd4bfdb700000000000000000000000000000000000000000000000000000000815260040160405180910390fd5b6110a061198a565b600a805461150a90611fe2565b80601f016020809104026020016040519081016040528092919081815260200182805461153690611fe2565b80156115835780601f1061155857610100808354040283529160200191611583565b820191906000526020600020905b81548152906001019060200180831161156657829003601f168201915b505050505081565b600082815260016020819052604090912001546115a7816118a4565b61103e83836118ae565b6001600160a01b03811660009081527fb5ecf5ecfeba8b6e20c37ad4ed6024e3afbcd2e706bee2e266a62cb37e60342c602052604081205460ff166108f2565b6115f9611931565b6001600160a01b0381166000818152600d602090815260409182902060028101805460ff19166001908117909155600554908201819055835194855291840191909152917f67e0244e28040fec15240cd4b6c04c776a2a0278caef23b59e8ada1df31f768991015b60405180910390a1506114ae6001600055565b61167c611931565b6001600160a01b038082166000908152600d60209081526040918290208251606081018452815490941684526001810154918401919091526002015460ff1615159101819052806116d157506116d1336115b1565b6117435760405162461bcd60e51b815260206004820152602f60248201527f5b52656769737472795d3a204d75737420626520616374697665206d656d626560448201527f7220746f20756e72656769737465720000000000000000000000000000000000606482015260840161111c565b336000818152600d60208181526040808420815160608101835281546001600160a01b038116825260018301805483870190815260028501805460ff81161515868901528b8b529888526001600160a01b03199093169094559690965560ff199094169094559251835194855290840152917fa13f4668aacb68c4e9eed8e3f6e1cbec3eca776896ec46b5eabcc3983fc8f5f49101611661565b6001600160a01b0381166114ae576040517fe622e04000000000000000000000000000000000000000000000000000000000815260040160405180910390fd5b60008281526001602090815260408083206001600160a01b038516845290915290205460ff1661112f5760008281526001602081815260408084206001600160a01b0386168086529252808420805460ff19169093179092559051339285917f2f8788117e7eff1d82e926ec794901d17c78024a50270940304540a733656f0d9190a45050565b6114ae81336119e5565b60008281526001602090815260408083206001600160a01b038516845290915290205460ff161561112f5760008281526001602090815260408083206001600160a01b0385168085529252808320805460ff1916905551339285917ff6391f5c32d9c69d2a47ea670b442974b53935d1edc7fd64eb21e047a839171b9190a45050565b6002600054036119835760405162461bcd60e51b815260206004820152601f60248201527f5265656e7472616e637947756172643a207265656e7472616e742063616c6c00604482015260640161111c565b6002600055565b60088054600980546001600160a01b0383166001600160a01b031991821617909155169055604051600081527fad0399dc40331b9a4977aa89da7a164a3fd482c65e6da73b25a94ea74fb688729060200160405180910390a1565b60008281526001602090815260408083206001600160a01b038516845290915290205460ff1661112f57611a1881611a5a565b611a23836020611a6c565b604051602001611a34929190612309565b60408051601f198184030181529082905262461bcd60e51b825261111c91600401611fa6565b60606108f26001600160a01b03831660145b60606000611a7b83600261238a565b611a86906002611fcf565b67ffffffffffffffff811115611a9e57611a9e611cdc565b6040519080825280601f01601f191660200182016040528015611ac8576020820181803683370190505b5090507f300000000000000000000000000000000000000000000000000000000000000081600081518110611aff57611aff612147565b60200101906001600160f81b031916908160001a9053507f780000000000000000000000000000000000000000000000000000000000000081600181518110611b4a57611b4a612147565b60200101906001600160f81b031916908160001a9053506000611b6e84600261238a565b611b79906001611fcf565b90505b6001811115611bfe577f303132333435363738396162636465660000000000000000000000000000000085600f1660108110611bba57611bba612147565b1a60f81b828281518110611bd057611bd0612147565b60200101906001600160f81b031916908160001a90535060049490941c93611bf7816123a1565b9050611b7c565b508315611c4d5760405162461bcd60e51b815260206004820181905260248201527f537472696e67733a20686578206c656e67746820696e73756666696369656e74604482015260640161111c565b9392505050565b600060208284031215611c6657600080fd5b81356001600160e01b031981168114611c4d57600080fd5b6001600160a01b03811681146114ae57600080fd5b8035611c9e81611c7e565b919050565b60008060408385031215611cb657600080fd5b8235611cc181611c7e565b91506020830135611cd181611c7e565b809150509250929050565b634e487b7160e01b600052604160045260246000fd5b604051610100810167ffffffffffffffff81118282101715611d1657611d16611cdc565b60405290565b600082601f830112611d2d57600080fd5b813567ffffffffffffffff80821115611d4857611d48611cdc565b604051601f8301601f19908116603f01168101908282118183101715611d7057611d70611cdc565b81604052838152866020858801011115611d8957600080fd5b836020870160208301376000602085830101528094505050505092915050565b600060408284031215611dbb57600080fd5b6040516040810167ffffffffffffffff8282108183111715611ddf57611ddf611cdc565b81604052829350843583526020850135915080821115611dfe57600080fd5b50611e0b85828601611d1c565b6020830152505092915050565b600060208284031215611e2a57600080fd5b813567ffffffffffffffff80821115611e4257600080fd5b908301906101008286031215611e5757600080fd5b611e5f611cf2565b611e6883611c93565b8152611e7660208401611c93565b602082015260408301356040820152606083013560608201526080830135608082015260a083013582811115611eab57600080fd5b611eb787828601611da9565b60a083015250611ec960c08401611c93565b60c082015260e083013582811115611ee057600080fd5b611eec87828601611d1c565b60e08301525095945050505050565b600060208284031215611f0d57600080fd5b8135611c4d81611c7e565b600060208284031215611f2a57600080fd5b5035919050565b60008060408385031215611f4457600080fd5b823591506020830135611cd181611c7e565b60005b83811015611f71578181015183820152602001611f59565b50506000910152565b60008151808452611f92816020860160208601611f56565b601f01601f19169290920160200192915050565b602081526000611c4d6020830184611f7a565b634e487b7160e01b600052601160045260246000fd5b808201808211156108f2576108f2611fb9565b600181811c90821680611ff657607f821691505b60208210810361201657634e487b7160e01b600052602260045260246000fd5b50919050565b601f82111561103e57600081815260208120601f850160051c810160208610156120435750805b601f850160051c820191505b818110156120625782815560010161204f565b505050505050565b815167ffffffffffffffff81111561208457612084611cdc565b612098816120928454611fe2565b8461201c565b602080601f8311600181146120cd57600084156120b55750858301515b600019600386901b1c1916600185901b178555612062565b600085815260208120601f198616915b828110156120fc578886015182559484019460019091019084016120dd565b508582101561211a5787850151600019600388901b60f8161c191681555b5050505050600190811b01905550565b60006020828403121561213c57600080fd5b8151611c4d81611c7e565b634e487b7160e01b600052603260045260246000fd5b6000815461216a81611fe2565b80855260206001838116801561218757600181146121a1576121cf565b60ff1985168884015283151560051b8801830195506121cf565b866000528260002060005b858110156121c75781548a82018601529083019084016121ac565b890184019650505b505050505092915050565b8051825260006020820151604060208501526121f96040850182611f7a565b949350505050565b8581526000602060a08184015261221b60a084018861215d565b838103604085015261222d81886121da565b6001600160a01b038781166060870152858203608087015286518083528488019350909184019060005b81811015612275578451841683529385019391850191600101612257565b50909b9a5050505050505050505050565b60006020828403121561229857600080fd5b5051919050565b8381526060602082015260006122b8606083018561215d565b82810360408401526122ca81856121da565b9695505050505050565b818103818111156108f2576108f2611fb9565b6000602082840312156122f957600080fd5b81518015158114611c4d57600080fd5b7f416363657373436f6e74726f6c3a206163636f756e7420000000000000000000815260008351612341816017850160208801611f56565b7f206973206d697373696e6720726f6c6520000000000000000000000000000000601791840191820152835161237e816028840160208801611f56565b01602801949350505050565b80820281158282048414176108f2576108f2611fb9565b6000816123b0576123b0611fb9565b50600019019056fea2646970667358221220377423c1c746708e856a4dbadde02b1ab718f9cb9c9f779ef10046745c075dc164736f6c63430008130033","linkReferences":{}},"methodIdentifiers":{"COUNCIL_MEMBER_CHANGE()":"a0b21cdf","DEFAULT_ADMIN_ROLE()":"a217fddf","DEFAULT_POINTS()":"fba1c1a3","acceptCouncilSafe()":"b5058c50","activateMemberInStrategy(address,address)":"0d4a8b49","addStrategy(address)":"223e5479","addressToMemberInfo(address)":"88cfe684","allo()":"d6d8428d","communityName()":"c6d572ae","councilSafe()":"6c53db9a","deactivateMemberInStrategy(address,address)":"22bcf999","enabledStrategies(address)":"3a871fe1","gardenToken()":"db61d65c","getBasisStakedAmount()":"0331383c","getRoleAdmin(bytes32)":"248a9ca3","grantRole(bytes32,address)":"2f2ff15d","hasRole(bytes32,address)":"91d14854","initialize((address,address,uint256,uint256,uint256,(uint256,string),address,string))":"0f448195","isCouncilMember(address)":"ebd7dc52","isMember(address)":"a230c524","memberActivatedInStrategies(address,address)":"477a5cc0","modifyStakeAmount(uint256)":"719da6a3","pendingCouncilSafe()":"68decabb","profileId()":"08386eba","protocolFee()":"b0e21e8a","registry()":"7b103999","removeStrategy(address)":"175188e8","renounceRole(bytes32,address)":"36568abe","revokeRole(bytes32,address)":"d547741f","setAllo(address)":"3c092330","setBasisStakedAmount(uint256)":"31f61bca","setCouncilSafe(address)":"397e2543","stakeAndRegisterMember()":"3517aa7d","stakeAndRegisterMember(address)":"f32aadc2","supportsInterface(bytes4)":"01ffc9a7","totalPointsActivatedInStrategy(address)":"c19563a7","tribunalMembers(address)":"6ff61ab3","unregisterMember(address)":"fc45f976","updateProtocolFee(uint256)":"4256dd78"},"id":95}