{"abi":[{"type":"constructor","inputs":[],"stateMutability":"nonpayable"},{"type":"function","name":"COUNCIL_MEMBER_CHANGE","inputs":[],"outputs":[{"name":"","type":"bytes32","internalType":"bytes32"}],"stateMutability":"view"},{"type":"function","name":"DEFAULT_ADMIN_ROLE","inputs":[],"outputs":[{"name":"","type":"bytes32","internalType":"bytes32"}],"stateMutability":"view"},{"type":"function","name":"acceptCouncilSafe","inputs":[],"outputs":[],"stateMutability":"nonpayable"},{"type":"function","name":"activateMemberInStrategy","inputs":[{"name":"_member","type":"address","internalType":"address"},{"name":"_strategy","type":"address","internalType":"address"}],"outputs":[],"stateMutability":"nonpayable"},{"type":"function","name":"addStrategy","inputs":[{"name":"_newStrategy","type":"address","internalType":"address"}],"outputs":[],"stateMutability":"nonpayable"},{"type":"function","name":"addressToMemberInfo","inputs":[{"name":"","type":"address","internalType":"address"}],"outputs":[{"name":"member","type":"address","internalType":"address"},{"name":"stakedAmount","type":"uint256","internalType":"uint256"},{"name":"isRegistered","type":"bool","internalType":"bool"}],"stateMutability":"view"},{"type":"function","name":"allo","inputs":[],"outputs":[{"name":"","type":"address","internalType":"contract IAllo"}],"stateMutability":"view"},{"type":"function","name":"communityName","inputs":[],"outputs":[{"name":"","type":"string","internalType":"string"}],"stateMutability":"view"},{"type":"function","name":"councilSafe","inputs":[],"outputs":[{"name":"","type":"address","internalType":"contract Safe"}],"stateMutability":"view"},{"type":"function","name":"enabledStrategies","inputs":[{"name":"","type":"address","internalType":"address"}],"outputs":[{"name":"","type":"bool","internalType":"bool"}],"stateMutability":"view"},{"type":"function","name":"gardenToken","inputs":[],"outputs":[{"name":"","type":"address","internalType":"contract IERC20"}],"stateMutability":"view"},{"type":"function","name":"getBasisStakedAmount","inputs":[],"outputs":[{"name":"","type":"uint256","internalType":"uint256"}],"stateMutability":"view"},{"type":"function","name":"getRoleAdmin","inputs":[{"name":"role","type":"bytes32","internalType":"bytes32"}],"outputs":[{"name":"","type":"bytes32","internalType":"bytes32"}],"stateMutability":"view"},{"type":"function","name":"grantRole","inputs":[{"name":"role","type":"bytes32","internalType":"bytes32"},{"name":"account","type":"address","internalType":"address"}],"outputs":[],"stateMutability":"nonpayable"},{"type":"function","name":"hasRole","inputs":[{"name":"role","type":"bytes32","internalType":"bytes32"},{"name":"account","type":"address","internalType":"address"}],"outputs":[{"name":"","type":"bool","internalType":"bool"}],"stateMutability":"view"},{"type":"function","name":"initialize","inputs":[{"name":"params","type":"tuple","internalType":"struct RegistryGardens.InitializeParams","components":[{"name":"_allo","type":"address","internalType":"address"},{"name":"_gardenToken","type":"address","internalType":"contract IERC20"},{"name":"_minimumStakeAmount","type":"uint256","internalType":"uint256"},{"name":"_protocolFee","type":"uint256","internalType":"uint256"},{"name":"_nonce","type":"uint256","internalType":"uint256"},{"name":"_metadata","type":"tuple","internalType":"struct Metadata","components":[{"name":"protocol","type":"uint256","internalType":"uint256"},{"name":"pointer","type":"string","internalType":"string"}]},{"name":"_councilSafe","type":"address","internalType":"address payable"}]}],"outputs":[],"stateMutability":"nonpayable"},{"type":"function","name":"isCouncilMember","inputs":[{"name":"_member","type":"address","internalType":"address"}],"outputs":[{"name":"","type":"bool","internalType":"bool"}],"stateMutability":"view"},{"type":"function","name":"isMember","inputs":[{"name":"_member","type":"address","internalType":"address"}],"outputs":[{"name":"_isMember","type":"bool","internalType":"bool"}],"stateMutability":"view"},{"type":"function","name":"memberActivatedInStrategies","inputs":[{"name":"","type":"address","internalType":"address"},{"name":"","type":"uint256","internalType":"uint256"}],"outputs":[{"name":"","type":"address","internalType":"address"}],"stateMutability":"view"},{"type":"function","name":"modifyStakeAmount","inputs":[{"name":"newTotalAmount","type":"uint256","internalType":"uint256"}],"outputs":[],"stateMutability":"payable"},{"type":"function","name":"pendingCouncilSafe","inputs":[],"outputs":[{"name":"","type":"address","internalType":"address payable"}],"stateMutability":"view"},{"type":"function","name":"profileId","inputs":[],"outputs":[{"name":"","type":"bytes32","internalType":"bytes32"}],"stateMutability":"view"},{"type":"function","name":"protocolFee","inputs":[],"outputs":[{"name":"","type":"uint256","internalType":"uint256"}],"stateMutability":"view"},{"type":"function","name":"registry","inputs":[],"outputs":[{"name":"","type":"address","internalType":"contract IRegistry"}],"stateMutability":"view"},{"type":"function","name":"removeStrategy","inputs":[{"name":"_strategy","type":"address","internalType":"address"}],"outputs":[],"stateMutability":"nonpayable"},{"type":"function","name":"renounceRole","inputs":[{"name":"role","type":"bytes32","internalType":"bytes32"},{"name":"account","type":"address","internalType":"address"}],"outputs":[],"stateMutability":"nonpayable"},{"type":"function","name":"revokeRole","inputs":[{"name":"role","type":"bytes32","internalType":"bytes32"},{"name":"account","type":"address","internalType":"address"}],"outputs":[],"stateMutability":"nonpayable"},{"type":"function","name":"setAllo","inputs":[{"name":"_allo","type":"address","internalType":"address"}],"outputs":[],"stateMutability":"nonpayable"},{"type":"function","name":"setBasisStakedAmount","inputs":[{"name":"_newAmount","type":"uint256","internalType":"uint256"}],"outputs":[],"stateMutability":"nonpayable"},{"type":"function","name":"setCouncilSafe","inputs":[{"name":"_safe","type":"address","internalType":"address payable"}],"outputs":[],"stateMutability":"nonpayable"},{"type":"function","name":"stakeAndRegisterMember","inputs":[],"outputs":[],"stateMutability":"nonpayable"},{"type":"function","name":"stakeAndRegisterMember","inputs":[{"name":"_member","type":"address","internalType":"address"}],"outputs":[],"stateMutability":"nonpayable"},{"type":"function","name":"supportsInterface","inputs":[{"name":"interfaceId","type":"bytes4","internalType":"bytes4"}],"outputs":[{"name":"","type":"bool","internalType":"bool"}],"stateMutability":"view"},{"type":"function","name":"tribunalMembers","inputs":[{"name":"","type":"address","internalType":"address"}],"outputs":[{"name":"","type":"bool","internalType":"bool"}],"stateMutability":"view"},{"type":"function","name":"unregisterMember","inputs":[{"name":"_member","type":"address","internalType":"address"}],"outputs":[],"stateMutability":"nonpayable"},{"type":"function","name":"updateProtocolFee","inputs":[{"name":"_newProtocolFee","type":"uint256","internalType":"uint256"}],"outputs":[],"stateMutability":"nonpayable"},{"type":"event","name":"AlloSet","inputs":[{"name":"_allo","type":"address","indexed":false,"internalType":"address"}],"anonymous":false},{"type":"event","name":"CouncilSafeChangeStarted","inputs":[{"name":"_safeOwner","type":"address","indexed":false,"internalType":"address"},{"name":"_newSafeOwner","type":"address","indexed":false,"internalType":"address"}],"anonymous":false},{"type":"event","name":"CouncilSafeSet","inputs":[{"name":"_safe","type":"address","indexed":false,"internalType":"address"}],"anonymous":false},{"type":"event","name":"MemberRegistered","inputs":[{"name":"_member","type":"address","indexed":false,"internalType":"address"},{"name":"_amountStaked","type":"uint256","indexed":false,"internalType":"uint256"}],"anonymous":false},{"type":"event","name":"MemberUnregistered","inputs":[{"name":"_member","type":"address","indexed":false,"internalType":"address"},{"name":"_amountReturned","type":"uint256","indexed":false,"internalType":"uint256"}],"anonymous":false},{"type":"event","name":"ProtocolFeeUpdated","inputs":[{"name":"_newFee","type":"uint256","indexed":false,"internalType":"uint256"}],"anonymous":false},{"type":"event","name":"RoleAdminChanged","inputs":[{"name":"role","type":"bytes32","indexed":true,"internalType":"bytes32"},{"name":"previousAdminRole","type":"bytes32","indexed":true,"internalType":"bytes32"},{"name":"newAdminRole","type":"bytes32","indexed":true,"internalType":"bytes32"}],"anonymous":false},{"type":"event","name":"RoleGranted","inputs":[{"name":"role","type":"bytes32","indexed":true,"internalType":"bytes32"},{"name":"account","type":"address","indexed":true,"internalType":"address"},{"name":"sender","type":"address","indexed":true,"internalType":"address"}],"anonymous":false},{"type":"event","name":"RoleRevoked","inputs":[{"name":"role","type":"bytes32","indexed":true,"internalType":"bytes32"},{"name":"account","type":"address","indexed":true,"internalType":"address"},{"name":"sender","type":"address","indexed":true,"internalType":"address"}],"anonymous":false},{"type":"event","name":"StakeAmountUpdated","inputs":[{"name":"_member","type":"address","indexed":false,"internalType":"address"},{"name":"_newAmount","type":"uint256","indexed":false,"internalType":"uint256"}],"anonymous":false},{"type":"event","name":"StrategyAdded","inputs":[{"name":"_strategy","type":"address","indexed":false,"internalType":"address"}],"anonymous":false},{"type":"event","name":"StrategyRemoved","inputs":[{"name":"_strategy","type":"address","indexed":false,"internalType":"address"}],"anonymous":false},{"type":"error","name":"AddressCannotBeZero","inputs":[]},{"type":"error","name":"CallerIsNotNewOnwer","inputs":[]},{"type":"error","name":"RegistryCannotBeZero","inputs":[]},{"type":"error","name":"StrategyDisabled","inputs":[]},{"type":"error","name":"StrategyExists","inputs":[]},{"type":"error","name":"UserAlreadyRegistered","inputs":[]},{"type":"error","name":"UserNotGardenOwner","inputs":[]},{"type":"error","name":"UserNotInCouncil","inputs":[]},{"type":"error","name":"UserNotInRegistry","inputs":[]},{"type":"error","name":"ValueCannotBeZero","inputs":[]}],"bytecode":{"object":"0x608060405234801561001057600080fd5b5060016000908155610043907fbc6bbe35ebc64943402c04d2ae016d7bd2bba28e1a11cf66be743c9bd74c720b90610048565b610095565b6000828152600160208190526040808320909101805490849055905190918391839186917fbd79b86ffe0ab8e8776151514217cd7cacd52c909f66475c3af44e129f0b00ff9190a4505050565b6122f2806100a46000396000f3fe60806040526004361061024f5760003560e01c80636ff61ab311610138578063b5058c50116100b0578063d6d8428d1161007f578063ebd7dc5211610064578063ebd7dc5214610761578063f32aadc214610781578063fc45f976146107a157600080fd5b8063d6d8428d14610721578063db61d65c1461074157600080fd5b8063b5058c50146106aa578063c3f68521146106bf578063c6d572ae146106df578063d547741f1461070157600080fd5b806391d1485411610107578063a217fddf116100ec578063a217fddf1461061b578063a230c52414610630578063b0e21e8a1461069457600080fd5b806391d14854146105a1578063a0b21cdf146105e757600080fd5b80636ff61ab3146104ce578063719da6a3146104fe5780637b1039991461051157806388cfe6841461053157600080fd5b806331f61bca116101cb5780633a871fe11161019a5780634256dd781161017f5780634256dd781461046e57806368decabb1461048e5780636c53db9a146104ae57600080fd5b80633a871fe11461041e5780633c0923301461044e57600080fd5b806331f61bca146103a95780633517aa7d146103c957806336568abe146103de578063397e2543146103fe57600080fd5b8063175188e811610222578063248a9ca311610207578063248a9ca3146103205780632c78c29c146103515780632f2ff15d1461038957600080fd5b8063175188e8146102e0578063223e54791461030057600080fd5b806301ffc9a7146102545780630331383c1461028957806308386eba146102a85780630d4a8b49146102be575b600080fd5b34801561026057600080fd5b5061027461026f366004611c13565b6107c1565b60405190151581526020015b60405180910390f35b34801561029557600080fd5b506005545b604051908152602001610280565b3480156102b457600080fd5b5061029a60095481565b3480156102ca57600080fd5b506102de6102d9366004611c62565b61082a565b005b3480156102ec57600080fd5b506102de6102fb366004611c9b565b61090d565b34801561030c57600080fd5b506102de61031b366004611c9b565b6109bd565b34801561032c57600080fd5b5061029a61033b366004611cb8565b6000908152600160208190526040909120015490565b34801561035d57600080fd5b5061037161036c366004611cd1565b610ab3565b6040516001600160a01b039091168152602001610280565b34801561039557600080fd5b506102de6103a4366004611cfd565b610aeb565b3480156103b557600080fd5b506102de6103c4366004611cb8565b610b16565b3480156103d557600080fd5b506102de610b6a565b3480156103ea57600080fd5b506102de6103f9366004611cfd565b610b75565b34801561040a57600080fd5b506102de610419366004611c9b565b610c06565b34801561042a57600080fd5b50610274610439366004611c9b565b600e6020526000908152604090205460ff1681565b34801561045a57600080fd5b506102de610469366004611c9b565b610cba565b34801561047a57600080fd5b506102de610489366004611cb8565b610d08565b34801561049a57600080fd5b50600a54610371906001600160a01b031681565b3480156104ba57600080fd5b50600b54610371906001600160a01b031681565b3480156104da57600080fd5b506102746104e9366004611c9b565b600c6020526000908152604090205460ff1681565b6102de61050c366004611cb8565b610d8c565b34801561051d57600080fd5b50600354610371906001600160a01b031681565b34801561053d57600080fd5b5061057a61054c366004611c9b565b600d602052600090815260409020805460018201546002909201546001600160a01b03909116919060ff1683565b604080516001600160a01b0390941684526020840192909252151590820152606001610280565b3480156105ad57600080fd5b506102746105bc366004611cfd565b60009182526001602090815260408084206001600160a01b0393909316845291905290205460ff1690565b3480156105f357600080fd5b5061029a7fbc6bbe35ebc64943402c04d2ae016d7bd2bba28e1a11cf66be743c9bd74c720b81565b34801561062757600080fd5b5061029a600081565b34801561063c57600080fd5b5061027461064b366004611c9b565b6001600160a01b039081166000908152600d60209081526040918290208251606081018452815490941684526001810154918401919091526002015460ff161515910181905290565b3480156106a057600080fd5b5061029a60075481565b3480156106b657600080fd5b506102de610f84565b3480156106cb57600080fd5b506102de6106da366004611e5d565b610fd0565b3480156106eb57600080fd5b506106f46111ef565b6040516102809190611f6b565b34801561070d57600080fd5b506102de61071c366004611cfd565b61127d565b34801561072d57600080fd5b50600254610371906001600160a01b031681565b34801561074d57600080fd5b50600654610371906001600160a01b031681565b34801561076d57600080fd5b5061027461077c366004611c9b565b6112a3565b34801561078d57600080fd5b506102de61079c366004611c9b565b6112e3565b3480156107ad57600080fd5b506102de6107bc366004611c9b565b611499565b60006001600160e01b031982167f7965db0b00000000000000000000000000000000000000000000000000000000148061082457507f01ffc9a7000000000000000000000000000000000000000000000000000000006001600160e01b03198316145b92915050565b6001600160a01b038083166000908152600d60209081526040918290208251606081018452815490941684526001810154918401919091526002015460ff1615159101819052829061088f57604051636a5cfb6d60e01b815260040160405180910390fd5b61089882611695565b336000908152600f6020908152604080832080546001810182559084529282902090920180546001600160a01b0319166001600160a01b03861690811790915591519182527f3f008fd510eae7a9e7bee13513d7b83bef8003d488b5a3d0b0da4de71d6846f1910160405180910390a1505050565b3360009081527fb5ecf5ecfeba8b6e20c37ad4ed6024e3afbcd2e706bee2e266a62cb37e60342c602052604090205460ff1661095c57604051637b1328fd60e11b815260040160405180910390fd5b61096581611695565b6001600160a01b0381166000818152600e6020908152604091829020805460ff1916905590519182527f09a1db4b80c32706328728508c941a6b954f31eb5affd32f236c1fd405f8fea491015b60405180910390a150565b3360009081527fb5ecf5ecfeba8b6e20c37ad4ed6024e3afbcd2e706bee2e266a62cb37e60342c602052604090205460ff16610a0c57604051637b1328fd60e11b815260040160405180910390fd5b6001600160a01b0381166000908152600e602052604090205460ff1615610a5f576040517f968a4d2c00000000000000000000000000000000000000000000000000000000815260040160405180910390fd5b6001600160a01b0381166000818152600e6020908152604091829020805460ff1916600117905590519182527f3f008fd510eae7a9e7bee13513d7b83bef8003d488b5a3d0b0da4de71d6846f191016109b2565b600f6020528160005260406000208181548110610acf57600080fd5b6000918252602090912001546001600160a01b03169150829050565b60008281526001602081905260409091200154610b07816116d5565b610b1183836116df565b505050565b3360009081527fb5ecf5ecfeba8b6e20c37ad4ed6024e3afbcd2e706bee2e266a62cb37e60342c602052604090205460ff16610b6557604051637b1328fd60e11b815260040160405180910390fd5b600555565b610b73336112e3565b565b6001600160a01b0381163314610bf85760405162461bcd60e51b815260206004820152602f60248201527f416363657373436f6e74726f6c3a2063616e206f6e6c792072656e6f756e636560448201527f20726f6c657320666f722073656c66000000000000000000000000000000000060648201526084015b60405180910390fd5b610c028282611766565b5050565b3360009081527fb5ecf5ecfeba8b6e20c37ad4ed6024e3afbcd2e706bee2e266a62cb37e60342c602052604090205460ff16610c5557604051637b1328fd60e11b815260040160405180910390fd5b610c5e81611695565b600a80546001600160a01b0319166001600160a01b03838116918217909255600b546040805191909316815260208101919091527f83eac9fdaff0ac1017624b7eddeb9782e3d707cd894073cb7e8301a41c6e5cf891016109b2565b600280546001600160a01b0319166001600160a01b0383169081179091556040519081527faaded18d4d508696508b945d03ff3d168110dbb73e17aeda699745655fa958d2906020016109b2565b3360009081527fb5ecf5ecfeba8b6e20c37ad4ed6024e3afbcd2e706bee2e266a62cb37e60342c602052604090205460ff16610d5757604051637b1328fd60e11b815260040160405180910390fd5b60078190556040518181527fd10d75876659a287a59a6ccfa2e3fff42f84d94b542837acd30bc184d562de40906020016109b2565b610d946117e9565b336000908152600d6020908152604091829020825160608101845281546001600160a01b031681526001820154928101929092526002015460ff1615159101819052610df357604051636a5cfb6d60e01b815260040160405180910390fd5b336000908152600d602052604090206001810180549083905582811015610ea5576006546001600160a01b031663a9059cbb33610e308487611f94565b6040516001600160e01b031960e085901b1681526001600160a01b03909216600483015260248201526044016020604051808303816000875af1158015610e7b573d6000803e3d6000fd5b505050506040513d601f19601f82011682018060405250810190610e9f9190611fa7565b50610f3c565b6006546001600160a01b03166323b872dd3033610ec28786611f94565b6040516001600160e01b031960e086901b1681526001600160a01b03938416600482015292909116602483015260448201526064016020604051808303816000875af1158015610f16573d6000803e3d6000fd5b505050506040513d601f19601f82011682018060405250810190610f3a9190611fa7565b505b60408051338152602081018590527f821ce476b1049194918a16d24c27f2e616dc0f19a93d61020493f648e5493adf910160405180910390a15050610f816001600055565b50565b600a546001600160a01b03163314610fc8576040517ffd4bfdb700000000000000000000000000000000000000000000000000000000815260040160405180910390fd5b610b73611842565b610fdd8160200151611695565b610fea8160c00151611695565b8051600280546001600160a01b039283166001600160a01b031991821617909155602083015160068054919093169116179055604081015160000361105b576040517fc70d18aa00000000000000000000000000000000000000000000000000000000815260040160405180910390fd5b6040810151600555606081015160075560c0810151600b80546001600160a01b0319166001600160a01b0383161790556110b6907fbc6bbe35ebc64943402c04d2ae016d7bd2bba28e1a11cf66be743c9bd74c720b906116df565b600260009054906101000a90046001600160a01b03166001600160a01b0316635ab1bd536040518163ffffffff1660e01b8152600401602060405180830381865afa158015611109573d6000803e3d6000fd5b505050506040513d601f19601f8201168201806040525081019061112d9190611fc9565b600380546001600160a01b0319166001600160a01b0392909216918217905560408051600081526020810191829052608084015160a08501517f3a92f65f00000000000000000000000000000000000000000000000000000000909352909291633a92f65f916111a59160049033876024810161208b565b6020604051808303816000875af11580156111c4573d6000803e3d6000fd5b505050506040513d601f19601f820116820180604052508101906111e8919061217e565b6009555050565b600480546111fc90611fe6565b80601f016020809104026020016040519081016040528092919081815260200182805461122890611fe6565b80156112755780601f1061124a57610100808354040283529160200191611275565b820191906000526020600020905b81548152906001019060200180831161125857829003601f168201915b505050505081565b60008281526001602081905260409091200154611299816116d5565b610b118383611766565b6001600160a01b03811660009081527fb5ecf5ecfeba8b6e20c37ad4ed6024e3afbcd2e706bee2e266a62cb37e60342c602052604081205460ff16610824565b6112eb6117e9565b6113176040518060400160405280600a81526020016936b9b39739b2b73232b960b11b8152503361189d565b6113436040518060400160405280600a81526020016936b9b39739b2b73232b960b11b8152508261189d565b6000600d6000836001600160a01b03166001600160a01b0316815260200190815260200160002090506113af6040518060400160405280601681526020017f6e65774d656d6265722e7374616b6564416d6f756e74000000000000000000008152508260010154611910565b6113f06040518060400160405280601281526020017f6d696e696d756d5374616b65416d6f756e740000000000000000000000000000815250600554611910565b60055481600101541061142f576040517f9e4a65f600000000000000000000000000000000000000000000000000000000815260040160405180910390fd5b60028101805460ff19166001908117909155600554908201819055604080516001600160a01b038516815260208101929092527f67e0244e28040fec15240cd4b6c04c776a2a0278caef23b59e8ada1df31f768991015b60405180910390a150610f816001600055565b6114a16117e9565b6001600160a01b038082166000908152600d60209081526040918290208251606081018452815490941684526001810154918401919091526002015460ff1615159101819052806114f657506114f6336112a3565b6115685760405162461bcd60e51b815260206004820152602f60248201527f5b52656769737472795d3a204d75737420626520616374697665206d656d626560448201527f7220746f20756e726567697374657200000000000000000000000000000000006064820152608401610bef565b336000818152600d60208181526040808420815160608101835281546001600160a01b03808216835260018401805484880190815260028601805460ff81161515878a01528c8c52999098526001600160a01b03199093169094559690925560ff19909416909255600654915190517fa9059cbb00000000000000000000000000000000000000000000000000000000815260048101959095526024850152909291169063a9059cbb906044016020604051808303816000875af1158015611634573d6000803e3d6000fd5b505050506040513d601f19601f820116820180604052508101906116589190611fa7565b5060208082015160408051338152928301919091527fa13f4668aacb68c4e9eed8e3f6e1cbec3eca776896ec46b5eabcc3983fc8f5f49101611486565b6001600160a01b038116610f81576040517fe622e04000000000000000000000000000000000000000000000000000000000815260040160405180910390fd5b610f818133611983565b60008281526001602090815260408083206001600160a01b038516845290915290205460ff16610c025760008281526001602081815260408084206001600160a01b0386168086529252808420805460ff19169093179092559051339285917f2f8788117e7eff1d82e926ec794901d17c78024a50270940304540a733656f0d9190a45050565b60008281526001602090815260408083206001600160a01b038516845290915290205460ff1615610c025760008281526001602090815260408083206001600160a01b0385168085529252808320805460ff1916905551339285917ff6391f5c32d9c69d2a47ea670b442974b53935d1edc7fd64eb21e047a839171b9190a45050565b60026000540361183b5760405162461bcd60e51b815260206004820152601f60248201527f5265656e7472616e637947756172643a207265656e7472616e742063616c6c006044820152606401610bef565b6002600055565b600a8054600b80546001600160a01b0383166001600160a01b031991821617909155169055604051600081527fad0399dc40331b9a4977aa89da7a164a3fd482c65e6da73b25a94ea74fb688729060200160405180910390a1565b610c0282826040516024016118b3929190612197565b60408051601f198184030181529190526020810180517bffffffffffffffffffffffffffffffffffffffffffffffffffffffff167f319af333000000000000000000000000000000000000000000000000000000001790526119f8565b610c0282826040516024016119269291906121c2565b60408051601f198184030181529190526020810180517bffffffffffffffffffffffffffffffffffffffffffffffffffffffff167f9710a9d0000000000000000000000000000000000000000000000000000000001790526119f8565b60008281526001602090815260408083206001600160a01b038516845290915290205460ff16610c02576119b681611a19565b6119c1836020611a2b565b6040516020016119d29291906121e4565b60408051601f198184030181529082905262461bcd60e51b8252610bef91600401611f6b565b80516a636f6e736f6c652e6c6f67602083016000808483855afa5050505050565b60606108246001600160a01b03831660145b60606000611a3a836002612265565b611a4590600261227c565b67ffffffffffffffff811115611a5d57611a5d611d22565b6040519080825280601f01601f191660200182016040528015611a87576020820181803683370190505b5090507f300000000000000000000000000000000000000000000000000000000000000081600081518110611abe57611abe61228f565b60200101906001600160f81b031916908160001a9053507f780000000000000000000000000000000000000000000000000000000000000081600181518110611b0957611b0961228f565b60200101906001600160f81b031916908160001a9053506000611b2d846002612265565b611b3890600161227c565b90505b6001811115611bbd577f303132333435363738396162636465660000000000000000000000000000000085600f1660108110611b7957611b7961228f565b1a60f81b828281518110611b8f57611b8f61228f565b60200101906001600160f81b031916908160001a90535060049490941c93611bb6816122a5565b9050611b3b565b508315611c0c5760405162461bcd60e51b815260206004820181905260248201527f537472696e67733a20686578206c656e67746820696e73756666696369656e746044820152606401610bef565b9392505050565b600060208284031215611c2557600080fd5b81356001600160e01b031981168114611c0c57600080fd5b6001600160a01b0381168114610f8157600080fd5b8035611c5d81611c3d565b919050565b60008060408385031215611c7557600080fd5b8235611c8081611c3d565b91506020830135611c9081611c3d565b809150509250929050565b600060208284031215611cad57600080fd5b8135611c0c81611c3d565b600060208284031215611cca57600080fd5b5035919050565b60008060408385031215611ce457600080fd5b8235611cef81611c3d565b946020939093013593505050565b60008060408385031215611d1057600080fd5b823591506020830135611c9081611c3d565b634e487b7160e01b600052604160045260246000fd5b6040805190810167ffffffffffffffff81118282101715611d5b57611d5b611d22565b60405290565b60405160e0810167ffffffffffffffff81118282101715611d5b57611d5b611d22565b604051601f8201601f1916810167ffffffffffffffff81118282101715611dad57611dad611d22565b604052919050565b600060408284031215611dc757600080fd5b611dcf611d38565b90508135815260208083013567ffffffffffffffff80821115611df157600080fd5b818501915085601f830112611e0557600080fd5b813581811115611e1757611e17611d22565b611e29601f8201601f19168501611d84565b91508082528684828501011115611e3f57600080fd5b80848401858401376000908201840152918301919091525092915050565b600060208284031215611e6f57600080fd5b813567ffffffffffffffff80821115611e8757600080fd5b9083019060e08286031215611e9b57600080fd5b611ea3611d61565b611eac83611c52565b8152611eba60208401611c52565b602082015260408301356040820152606083013560608201526080830135608082015260a083013582811115611eef57600080fd5b611efb87828601611db5565b60a083015250611f0d60c08401611c52565b60c082015295945050505050565b60005b83811015611f36578181015183820152602001611f1e565b50506000910152565b60008151808452611f57816020860160208601611f1b565b601f01601f19169290920160200192915050565b602081526000611c0c6020830184611f3f565b634e487b7160e01b600052601160045260246000fd5b8181038181111561082457610824611f7e565b600060208284031215611fb957600080fd5b81518015158114611c0c57600080fd5b600060208284031215611fdb57600080fd5b8151611c0c81611c3d565b600181811c90821680611ffa57607f821691505b60208210810361201a57634e487b7160e01b600052602260045260246000fd5b50919050565b80518252600060208201516040602085015261203f6040850182611f3f565b949350505050565b600081518084526020808501945080840160005b838110156120805781516001600160a01b03168752958201959082019060010161205b565b509495945050505050565b8581526000602060a0818401526000875481600182811c9150808316806120b357607f831692505b85831081036120d057634e487b7160e01b85526022600452602485fd5b60a0880183905260c088018180156120ef576001811461210557612130565b60ff198616825284151560051b82019650612130565b60008e81526020902060005b8681101561212a57815484820152908501908901612111565b83019750505b50505050505083810360408501526121488188612020565b91505061216060608401866001600160a01b03169052565b82810360808401526121728185612047565b98975050505050505050565b60006020828403121561219057600080fd5b5051919050565b6040815260006121aa6040830185611f3f565b90506001600160a01b03831660208301529392505050565b6040815260006121d56040830185611f3f565b90508260208301529392505050565b7f416363657373436f6e74726f6c3a206163636f756e742000000000000000000081526000835161221c816017850160208801611f1b565b7f206973206d697373696e6720726f6c65200000000000000000000000000000006017918401918201528351612259816028840160208801611f1b565b01602801949350505050565b808202811582820484141761082457610824611f7e565b8082018082111561082457610824611f7e565b634e487b7160e01b600052603260045260246000fd5b6000816122b4576122b4611f7e565b50600019019056fea26469706673582212201dcdb78490c84a85a96cc1765918dac461b3e484d0acdd7c12c1c0488f9a4c1464736f6c63430008130033","linkReferences":{}},"methodIdentifiers":{"COUNCIL_MEMBER_CHANGE()":"a0b21cdf","DEFAULT_ADMIN_ROLE()":"a217fddf","acceptCouncilSafe()":"b5058c50","activateMemberInStrategy(address,address)":"0d4a8b49","addStrategy(address)":"223e5479","addressToMemberInfo(address)":"88cfe684","allo()":"d6d8428d","communityName()":"c6d572ae","councilSafe()":"6c53db9a","enabledStrategies(address)":"3a871fe1","gardenToken()":"db61d65c","getBasisStakedAmount()":"0331383c","getRoleAdmin(bytes32)":"248a9ca3","grantRole(bytes32,address)":"2f2ff15d","hasRole(bytes32,address)":"91d14854","initialize((address,address,uint256,uint256,uint256,(uint256,string),address))":"c3f68521","isCouncilMember(address)":"ebd7dc52","isMember(address)":"a230c524","memberActivatedInStrategies(address,uint256)":"2c78c29c","modifyStakeAmount(uint256)":"719da6a3","pendingCouncilSafe()":"68decabb","profileId()":"08386eba","protocolFee()":"b0e21e8a","registry()":"7b103999","removeStrategy(address)":"175188e8","renounceRole(bytes32,address)":"36568abe","revokeRole(bytes32,address)":"d547741f","setAllo(address)":"3c092330","setBasisStakedAmount(uint256)":"31f61bca","setCouncilSafe(address)":"397e2543","stakeAndRegisterMember()":"3517aa7d","stakeAndRegisterMember(address)":"f32aadc2","supportsInterface(bytes4)":"01ffc9a7","tribunalMembers(address)":"6ff61ab3","unregisterMember(address)":"fc45f976","updateProtocolFee(uint256)":"4256dd78"},"id":95}