{"abi":[{"type":"function","name":"DISPUTE_COOLDOWN_SEC","inputs":[],"outputs":[{"name":"","type":"uint256","internalType":"uint256"}],"stateMutability":"view"},{"type":"function","name":"MAX_ALLOCATIONS_PER_TX","inputs":[],"outputs":[{"name":"","type":"uint256","internalType":"uint256"}],"stateMutability":"view"},{"type":"function","name":"MAX_PROPOSAL_COUNT","inputs":[],"outputs":[{"name":"","type":"uint256","internalType":"uint256"}],"stateMutability":"view"},{"type":"function","name":"MAX_SYNC_BATCH_MEMBERS","inputs":[],"outputs":[{"name":"","type":"uint256","internalType":"uint256"}],"stateMutability":"view"},{"type":"function","name":"MAX_VOTER_STAKED_PROPOSALS","inputs":[],"outputs":[{"name":"","type":"uint256","internalType":"uint256"}],"stateMutability":"view"},{"type":"function","name":"ONE_HOUR","inputs":[],"outputs":[{"name":"","type":"uint256","internalType":"uint256"}],"stateMutability":"view"},{"type":"function","name":"RULING_OPTIONS","inputs":[],"outputs":[{"name":"","type":"uint256","internalType":"uint256"}],"stateMutability":"view"},{"type":"function","name":"_isStrategyEnabled","inputs":[],"outputs":[{"name":"","type":"bool","internalType":"bool"}],"stateMutability":"view"},{"type":"function","name":"arbitrableConfigs","inputs":[{"name":"","type":"uint256","internalType":"uint256"}],"outputs":[{"name":"arbitrator","type":"address","internalType":"contract IArbitrator"},{"name":"tribunalSafe","type":"address","internalType":"address"},{"name":"submitterCollateralAmount","type":"uint256","internalType":"uint256"},{"name":"challengerCollateralAmount","type":"uint256","internalType":"uint256"},{"name":"defaultRuling","type":"uint256","internalType":"uint256"},{"name":"defaultRulingTimeout","type":"uint256","internalType":"uint256"}],"stateMutability":"view"},{"type":"function","name":"calculateProposalConviction","inputs":[{"name":"_proposalId","type":"uint256","internalType":"uint256"}],"outputs":[{"name":"","type":"uint256","internalType":"uint256"}],"stateMutability":"view"},{"type":"function","name":"cancelProposal","inputs":[{"name":"proposalId","type":"uint256","internalType":"uint256"}],"outputs":[],"stateMutability":"nonpayable"},{"type":"function","name":"cloneNonce","inputs":[],"outputs":[{"name":"","type":"uint256","internalType":"uint256"}],"stateMutability":"view"},{"type":"function","name":"collateralVault","inputs":[],"outputs":[{"name":"","type":"address","internalType":"contract ICollateralVault"}],"stateMutability":"view"},{"type":"function","name":"currentArbitrableConfigVersion","inputs":[],"outputs":[{"name":"","type":"uint256","internalType":"uint256"}],"stateMutability":"view"},{"type":"function","name":"cvParams","inputs":[],"outputs":[{"name":"maxRatio","type":"uint256","internalType":"uint256"},{"name":"weight","type":"uint256","internalType":"uint256"},{"name":"decay","type":"uint256","internalType":"uint256"},{"name":"minThresholdPoints","type":"uint256","internalType":"uint256"}],"stateMutability":"view"},{"type":"function","name":"disputeCount","inputs":[],"outputs":[{"name":"","type":"uint64","internalType":"uint64"}],"stateMutability":"view"},{"type":"function","name":"disputeIdToProposalId","inputs":[{"name":"","type":"uint256","internalType":"uint256"}],"outputs":[{"name":"","type":"uint256","internalType":"uint256"}],"stateMutability":"view"},{"type":"function","name":"editProposal","inputs":[{"name":"_proposalId","type":"uint256","internalType":"uint256"},{"name":"_metadata","type":"tuple","internalType":"struct Metadata","components":[{"name":"protocol","type":"uint256","internalType":"uint256"},{"name":"pointer","type":"string","internalType":"string"}]},{"name":"_beneficiary","type":"address","internalType":"address"},{"name":"_requestedAmount","type":"uint256","internalType":"uint256"}],"outputs":[],"stateMutability":"nonpayable"},{"type":"function","name":"getPoolAmount","inputs":[],"outputs":[{"name":"","type":"uint256","internalType":"uint256"}],"stateMutability":"view"},{"type":"function","name":"lastRebalanceAt","inputs":[],"outputs":[{"name":"","type":"uint256","internalType":"uint256"}],"stateMutability":"view"},{"type":"function","name":"pointConfig","inputs":[],"outputs":[{"name":"maxAmount","type":"uint256","internalType":"uint256"}],"stateMutability":"view"},{"type":"function","name":"pointSystem","inputs":[],"outputs":[{"name":"","type":"uint8","internalType":"enum PointSystem"}],"stateMutability":"view"},{"type":"function","name":"proposalCounter","inputs":[],"outputs":[{"name":"","type":"uint256","internalType":"uint256"}],"stateMutability":"view"},{"type":"function","name":"proposalExists","inputs":[{"name":"_proposalID","type":"uint256","internalType":"uint256"}],"outputs":[{"name":"","type":"bool","internalType":"bool"}],"stateMutability":"view"},{"type":"function","name":"proposalType","inputs":[],"outputs":[{"name":"","type":"uint8","internalType":"enum ProposalType"}],"stateMutability":"view"},{"type":"function","name":"rebalanceCooldown","inputs":[],"outputs":[{"name":"","type":"uint256","internalType":"uint256"}],"stateMutability":"view"},{"type":"function","name":"registerRecipient","inputs":[{"name":"_data","type":"bytes","internalType":"bytes"},{"name":"_sender","type":"address","internalType":"address"}],"outputs":[{"name":"","type":"address","internalType":"address"}],"stateMutability":"payable"},{"type":"function","name":"registryCommunity","inputs":[],"outputs":[{"name":"","type":"address","internalType":"contract RegistryCommunity"}],"stateMutability":"view"},{"type":"function","name":"streamingEscrow","inputs":[{"name":"proposalId","type":"uint256","internalType":"uint256"}],"outputs":[{"name":"","type":"address","internalType":"address"}],"stateMutability":"view"},{"type":"function","name":"streamingRatePerSecond","inputs":[],"outputs":[{"name":"","type":"uint256","internalType":"uint256"}],"stateMutability":"view"},{"type":"function","name":"superfluidGDA","inputs":[],"outputs":[{"name":"","type":"address","internalType":"contract ISuperfluidPool"}],"stateMutability":"view"},{"type":"function","name":"superfluidToken","inputs":[],"outputs":[{"name":"","type":"address","internalType":"contract ISuperToken"}],"stateMutability":"view"},{"type":"function","name":"sybilScorer","inputs":[],"outputs":[{"name":"","type":"address","internalType":"contract ISybilScorer"}],"stateMutability":"view"},{"type":"function","name":"totalPointsActivated","inputs":[],"outputs":[{"name":"","type":"uint256","internalType":"uint256"}],"stateMutability":"view"},{"type":"function","name":"totalStaked","inputs":[],"outputs":[{"name":"","type":"uint256","internalType":"uint256"}],"stateMutability":"view"},{"type":"function","name":"totalVoterStakePct","inputs":[{"name":"","type":"address","internalType":"address"}],"outputs":[{"name":"","type":"uint256","internalType":"uint256"}],"stateMutability":"view"},{"type":"function","name":"voterStakedProposals","inputs":[{"name":"","type":"address","internalType":"address"},{"name":"","type":"uint256","internalType":"uint256"}],"outputs":[{"name":"","type":"uint256","internalType":"uint256"}],"stateMutability":"view"},{"type":"function","name":"votingPowerRegistry","inputs":[],"outputs":[{"name":"","type":"address","internalType":"contract IVotingPowerRegistry"}],"stateMutability":"view"},{"type":"event","name":"ProposalCancelled","inputs":[{"name":"proposalId","type":"uint256","indexed":false,"internalType":"uint256"}],"anonymous":false},{"type":"event","name":"ProposalCreated","inputs":[{"name":"poolId","type":"uint256","indexed":false,"internalType":"uint256"},{"name":"proposalId","type":"uint256","indexed":false,"internalType":"uint256"}],"anonymous":false},{"type":"event","name":"ProposalCreated","inputs":[{"name":"poolId","type":"uint256","indexed":false,"internalType":"uint256"},{"name":"proposalId","type":"uint256","indexed":false,"internalType":"uint256"},{"name":"escrow","type":"address","indexed":false,"internalType":"address"}],"anonymous":false},{"type":"event","name":"ProposalEdited","inputs":[{"name":"proposalId","type":"uint256","indexed":false,"internalType":"uint256"},{"name":"metadata","type":"tuple","indexed":false,"internalType":"struct Metadata","components":[{"name":"protocol","type":"uint256","internalType":"uint256"},{"name":"pointer","type":"string","internalType":"string"}]},{"name":"beneficiary","type":"address","indexed":false,"internalType":"address"},{"name":"requestedAmount","type":"uint256","indexed":false,"internalType":"uint256"}],"anonymous":false},{"type":"event","name":"RebalanceCallerAuthorizationUpdated","inputs":[{"name":"caller","type":"address","indexed":true,"internalType":"address"},{"name":"authorized","type":"bool","indexed":false,"internalType":"bool"}],"anonymous":false},{"type":"event","name":"StreamMemberUnitUpdated","inputs":[{"name":"member","type":"address","indexed":true,"internalType":"address"},{"name":"newUnit","type":"int96","indexed":false,"internalType":"int96"}],"anonymous":false},{"type":"event","name":"StreamRateUpdated","inputs":[{"name":"gda","type":"address","indexed":true,"internalType":"address"},{"name":"flowRate","type":"uint256","indexed":false,"internalType":"uint256"}],"anonymous":false},{"type":"event","name":"SupportAdded","inputs":[{"name":"from","type":"address","indexed":false,"internalType":"address"},{"name":"proposalId","type":"uint256","indexed":false,"internalType":"uint256"},{"name":"amount","type":"uint256","indexed":false,"internalType":"uint256"},{"name":"totalStakedAmount","type":"uint256","indexed":false,"internalType":"uint256"},{"name":"convictionLast","type":"uint256","indexed":false,"internalType":"uint256"}],"anonymous":false},{"type":"error","name":"ArbitratorNotSet","inputs":[]},{"type":"error","name":"BeneficiaryEditTimeout","inputs":[{"name":"proposalId","type":"uint256","internalType":"uint256"},{"name":"currentBeneficiary","type":"address","internalType":"address"},{"name":"newBeneficiary","type":"address","internalType":"address"},{"name":"creationTimestamp","type":"uint256","internalType":"uint256"}]},{"type":"error","name":"BlockNumberRegression","inputs":[{"name":"recordedBlock","type":"uint256","internalType":"uint256"},{"name":"currentBlock","type":"uint256","internalType":"uint256"}]},{"type":"error","name":"CannotEditRequestedAmountWithActiveSupport","inputs":[{"name":"proposalId","type":"uint256","internalType":"uint256"},{"name":"currentAmount","type":"uint256","internalType":"uint256"},{"name":"newAmount","type":"uint256","internalType":"uint256"}]},{"type":"error","name":"InsufficientCollateral","inputs":[{"name":"sent","type":"uint256","internalType":"uint256"},{"name":"required","type":"uint256","internalType":"uint256"}]},{"type":"error","name":"MetadataEditTimeout","inputs":[{"name":"proposalId","type":"uint256","internalType":"uint256"},{"name":"currentMetadata","type":"string","internalType":"string"},{"name":"newMetadata","type":"string","internalType":"string"},{"name":"creationTimestamp","type":"uint256","internalType":"uint256"}]},{"type":"error","name":"OnlyActiveProposal","inputs":[{"name":"proposalId","type":"uint256","internalType":"uint256"}]},{"type":"error","name":"OnlyAllo","inputs":[{"name":"sender","type":"address","internalType":"address"},{"name":"allo","type":"address","internalType":"address"}]},{"type":"error","name":"OnlyCouncilSafe","inputs":[{"name":"sender","type":"address","internalType":"address"},{"name":"councilSafe","type":"address","internalType":"address"},{"name":"owner","type":"address","internalType":"address"}]},{"type":"error","name":"OnlyCouncilSafeOrMember","inputs":[{"name":"sender","type":"address","internalType":"address"},{"name":"councilSafe","type":"address","internalType":"address"}]},{"type":"error","name":"OnlyInitialized","inputs":[{"name":"poolId","type":"uint256","internalType":"uint256"}]},{"type":"error","name":"OnlyMember","inputs":[{"name":"wallet","type":"address","internalType":"address"},{"name":"community","type":"address","internalType":"address"}]},{"type":"error","name":"OnlyOwner","inputs":[{"name":"sender","type":"address","internalType":"address"},{"name":"ownerAddress","type":"address","internalType":"address"}]},{"type":"error","name":"OnlyRegistryCommunity","inputs":[{"name":"sender","type":"address","internalType":"address"},{"name":"registry","type":"address","internalType":"address"}]},{"type":"error","name":"OnlySubmitter","inputs":[{"name":"proposalId","type":"uint256","internalType":"uint256"},{"name":"submitter","type":"address","internalType":"address"},{"name":"sender","type":"address","internalType":"address"}]},{"type":"error","name":"ProposalDoesNotExist","inputs":[{"name":"proposalID","type":"uint256","internalType":"uint256"}]},{"type":"error","name":"ProposalLimitReached","inputs":[{"name":"current","type":"uint256","internalType":"uint256"},{"name":"max","type":"uint256","internalType":"uint256"}]},{"type":"error","name":"ProposalNotActive","inputs":[{"name":"proposalId","type":"uint256","internalType":"uint256"},{"name":"currentStatus","type":"uint8","internalType":"uint8"}]},{"type":"error","name":"RebalanceCooldownActive","inputs":[{"name":"secondsRemaining","type":"uint256","internalType":"uint256"}]},{"type":"error","name":"StrategyPaused","inputs":[{"name":"controller","type":"address","internalType":"address"}]},{"type":"error","name":"StrategySelectorPaused","inputs":[{"name":"selector","type":"bytes4","internalType":"bytes4"},{"name":"controller","type":"address","internalType":"address"}]},{"type":"error","name":"StreamingEscrowFactoryNotSet","inputs":[]},{"type":"error","name":"UnexpectedRequestToken","inputs":[{"name":"requestedToken","type":"address","internalType":"address"},{"name":"poolToken","type":"address","internalType":"address"}]},{"type":"error","name":"UpdateMemberUnitsFailed","inputs":[{"name":"member","type":"address","internalType":"address"},{"name":"units","type":"uint128","internalType":"uint128"}]}],"bytecode":{"object":"0x608060405234801561000f575f80fd5b506122e58061001d5f395ff3fe6080604052600436106101b4575f3560e01c806305caa7f3146101b85780630bece79c146101ed5780630c0512e91461020c578063125fd1d91461022f5780631374b22d14610244578063141e3b3814610273578063165035e2146102945780631b36f56f146102a95780632506b870146102c8578063255ffb38146102fa5780632bbe0cae146103255780632cea13f9146103385780632dbd6fdd1461034c5780633396045914610377578063351d9f961461038c57806341bb7605146103b25780634ab4ba42146104455780634c3ceb5b146104595780635db64b991461046d5780636003e4141461049857806360b0645a146104b7578063626c47e8146104d657806380fd91cd146104ea578063817b1cd214610509578063868c57b81461051e5780638dc830941461053d578063914bdef01461045957806394573cbb14610551578063a28889e114610566578063a47ff7e51461059d578063aba9ffee146105b3578063b04b5b26146105c8578063b3de272d146105e7578063b6c61f31146105fb578063dfe9ec5814610459578063e0a8f6f51461061a578063ee50ee1b14610639578063f5be3f7c1461064d575b5f80fd5b3480156101c3575f80fd5b506080546101d7906001600160a01b031681565b6040516101e491906118fa565b60405180910390f35b3480156101f8575f80fd5b506079546101d7906001600160a01b031681565b348015610217575f80fd5b50610221606e5481565b6040519081526020016101e4565b34801561023a575f80fd5b50610221606f5481565b34801561024f575f80fd5b5061026361025e36600461190e565b610662565b60405190151581526020016101e4565b34801561027e575f80fd5b5061029261028d366004611a5a565b61069c565b005b34801561029f575f80fd5b50610221610e1081565b3480156102b4575f80fd5b506081546101d7906001600160a01b031681565b3480156102d3575f80fd5b506072546073546074546075546102ea9392919084565b6040516101e49493929190611b03565b348015610305575f80fd5b5061022161031436600461190e565b607e6020525f908152604090205481565b6101d7610333366004611b1e565b610a3a565b348015610343575f80fd5b506102216110ba565b348015610357575f80fd5b5060765461036a90610100900460ff1681565b6040516101e49190611b93565b348015610382575f80fd5b50610221606c5481565b348015610397575f80fd5b506076546103a59060ff1681565b6040516101e49190611bad565b3480156103bd575f80fd5b5061040d6103cc36600461190e565b607f6020525f90815260409020805460018201546002830154600384015460048501546005909501546001600160a01b039485169593909416939192909186565b604080516001600160a01b039788168152969095166020870152938501929092526060840152608083015260a082015260c0016101e4565b348015610450575f80fd5b506102216110c9565b348015610464575f80fd5b50610221608081565b348015610478575f80fd5b50610221610487366004611bc1565b607c6020525f908152604090205481565b3480156104a3575f80fd5b506078546101d7906001600160a01b031681565b3480156104c2575f80fd5b506102216104d136600461190e565b611348565b3480156104e1575f80fd5b50610221600381565b3480156104f5575f80fd5b506083546101d7906001600160a01b031681565b348015610514575f80fd5b5061022160705481565b348015610529575f80fd5b50610221610538366004611bdc565b61140c565b348015610548575f80fd5b50610263611437565b34801561055c575f80fd5b5061022160825481565b348015610571575f80fd5b50606d54610585906001600160401b031681565b6040516001600160401b0390911681526020016101e4565b3480156105a8575f80fd5b506077546102219081565b3480156105be575f80fd5b5061022160715481565b3480156105d3575f80fd5b506101d76105e236600461190e565b611533565b3480156105f2575f80fd5b50610221611558565b348015610606575f80fd5b50607a546101d7906001600160a01b031681565b348015610625575f80fd5b5061029261063436600461190e565b61156a565b348015610644575f80fd5b50610221604081565b348015610658575f80fd5b50610221611c2081565b5f818152607b60205260408120541580159061069657505f828152607b60205260409020600501546001600160a01b031615155b92915050565b5f848152607b602052604090206001600882015460ff1660068111156106c4576106c4611b7f565b1461070e576008810154859060ff1660068111156106e4576106e4611b7f565b60405163052d1a7b60e21b8152600481019290925260ff1660248201526044015b60405180910390fd5b60058101546001600160a01b0316331461075057600581015460405163d46ad8a960e01b81526107059187916001600160a01b03909116903390600401611c06565b818160010154146107c15760038101541561079557600181015460405163b501861760e01b815260048101879052602481019190915260448101839052606401610705565b600160765460ff1660028111156107ae576107ae611b7f565b146107b9575f6107bb565b815b60018201555b5f610e108260110154426107d59190611c39565b60048401546020880151600b860180549490931194506001600160a01b0388811692169190911415925f92610898929161080e90611c4c565b80601f016020809104026020016040519081016040528092919081815260200182805461083a90611c4c565b80156108855780601f1061085c57610100808354040283529160200191610885565b820191905f5260205f20905b81548152906001019060200180831161086857829003601f168201915b50505050506117e790919063ffffffff16565b15905081156109085782156108ea57600484810154601186015460405163d209029d60e01b81529283018b90526001600160a01b03918216602484015290881660448301526064820152608401610705565b6004840180546001600160a01b0319166001600160a01b0388161790555b801561095457821561093e5760208701516011850154604051637195b4df60e01b8152610705928b92600b890192600401611cd1565b6020870151600b8501906109529082611dca565b505b8180156109775750600260765460ff16600281111561097557610975611b7f565b145b156109f3575f61098689611533565b90506001600160a01b038116156109f1576040516301c31f7160e41b81526001600160a01b03821690631c31f710906109c3908a906004016118fa565b5f604051808303815f87803b1580156109da575f80fd5b505af11580156109ec573d5f803e3d5ffd5b505050505b505b7f9609630cea289ffd759de85c8dc9196b11897c540de741d67239c33751860abe88888888604051610a289493929190611e89565b60405180910390a15050505050505050565b6065545f906001600160a01b03163314610a7857606554604051636ca3252960e01b81526107059133916001600160a01b0390911690600401611ed1565b6068545f03610aa05760685460405163243d58fb60e21b815260040161070591815260200190565b610aa9826117fd565b60785460405163208a40f360e11b81526001600160a01b039091169063411481e690610ad99030906004016118fa565b5f6040518083038186803b158015610aef575f80fd5b505afa158015610b01573d5f803e3d5ffd5b505050505f83806020019051810190610b1a9190611f73565b9050600160765460ff166002811115610b3557610b35611b7f565b03610bfa57606554815160405163068bcd8d60e01b81526001600160a01b03909216915f91839163068bcd8d91610b729160040190815260200190565b5f60405180830381865afa158015610b8c573d5f803e3d5ffd5b505050506040513d5f823e601f3d908101601f19168201604052610bb39190810190612014565b604001519050806001600160a01b031683606001516001600160a01b031614610bf7578260600151816040516304976e1760e31b8152600401610705929190611ed1565b50505b606f545f908152607f60205260409020546001600160a01b0316610c31576040516303674f9160e41b815260040160405180910390fd5b606f545f908152607f6020526040902060020154341015610c8457606f545f908152607f602052604090819020600201549051632c1f8ef160e21b81523460048201526024810191909152604401610705565b6080606e5410610cb557606e546040516302ba22b560e31b8152600481019190915260806024820152604401610705565b5f606e5f8154610cc4906120c2565b91829055505f818152607b602090815260409091208281556005810180546001600160a01b03199081166001600160a01b038a8116919091179092559286015160048301805485169183169190911790556060860151600683018054909416911617909155909150600160765460ff166002811115610d4557610d45611b7f565b14610d50575f610d56565b82604001515b60018281019190915560088201805460ff191690911790554360078201554260118201555f600382015560808301518051600a83019081556020820151600b840190610da29082611dca565b5050606f54601083015550607954600582015460405163240ff7c560e11b8152600481018590526001600160a01b03918216602482015291169063481fef8a9034906044015f604051808303818588803b158015610dfe575f80fd5b505af1158015610e10573d5f803e3d5ffd5b505f935060029250610e20915050565b60765460ff166002811115610e3757610e37611b7f565b03611065576078546040805163f86c5f8960e01b815290515f926001600160a01b03169163f86c5f899160048083019260209291908290030181865afa158015610e83573d5f803e3d5ffd5b505050506040513d601f19601f82011682018060405250810190610ea791906120da565b6001600160a01b0316637f7960f36040518163ffffffff1660e01b8152600401602060405180830381865afa158015610ee2573d5f803e3d5ffd5b505050506040513d601f19601f82011682018060405250810190610f0691906120da565b90506001600160a01b038116610f2f576040516305d720b760e51b815260040160405180910390fd5b608054608154600485810154604051630543c30760e41b81526001600160a01b0394851692810192909252918316602482015290821660448201523060648201525f9183169063543c3070906084016020604051808303815f875af1158015610f9a573d5f803e3d5ffd5b505050506040513d601f19601f82011682018060405250810190610fbe91906120da565b9050610fca858261189d565b608154604051631b16777760e01b815291935083916001600160a01b0390911690631b167777906110019084905f906004016120f5565b6020604051808303815f875af115801561101d573d5f803e3d5ffd5b505050506040513d601f19601f820116820180604052508101906110419190612117565b61106257805f60405163068bc39960e41b81526004016107059291906120f5565b50505b60685460408051918252602082018590526001600160a01b03831682820152517f2e8c120bfdd294891f6ac45b1d661997690ad24bb51f51e4d357365f25c190239181900360600190a1509095945050505050565b5f6110c36118d6565b54919050565b60655460685460405163068bcd8d60e01b81525f9283926001600160a01b039091169163068bcd8d916111029160040190815260200190565b5f60405180830381865afa15801561111c573d5f803e3d5ffd5b505050506040513d5f823e601f3d908101601f191682016040526111439190810190612014565b60400151905073eeeeeeeeeeeeeeeeeeeeeeeeeeeeeeeeeeeeeeed196001600160a01b03821601611175574791505090565b6040516370a0823160e01b81525f906001600160a01b038316906370a08231906111a39030906004016118fa565b602060405180830381865afa1580156111be573d5f803e3d5ffd5b505050506040513d601f19601f820116820180604052508101906111e29190612136565b6080549091505f906001600160a01b03161561126c576080546040516370a0823160e01b81526001600160a01b03909116906370a08231906112289030906004016118fa565b602060405180830381865afa158015611243573d5f803e3d5ffd5b505050506040513d601f19601f820116820180604052508101906112679190612136565b61126e565b5f5b90505f836001600160a01b031663313ce5676040518163ffffffff1660e01b8152600401602060405180830381865afa1580156112ad573d5f803e3d5ffd5b505050506040513d601f19601f820116820180604052508101906112d1919061214d565b905060128160ff161015611306576112ea81601261216d565b6112f590600a612266565b6112ff9083612274565b9150611335565b60128160ff1611156113355761131d60128261216d565b61132890600a612266565b6113329083612293565b91505b61133f82846122aa565b94505050505090565b5f818152607b6020526040812061135d611437565b61136b576003015492915050565b73__$f1b7c69ba751c396eddc93d3bbc5414fd9$__63010dfe648260070154436113959190611c39565b600384015460028501546074546040516001600160e01b031960e087901b1681526113c69493929190600401611b03565b602060405180830381865af41580156113e1573d5f803e3d5ffd5b505050506040513d601f19601f820116820180604052508101906114059190612136565b9392505050565b607d602052815f5260405f208181548110611425575f80fd5b905f5260205f20015f91509150505481565b6078545f906001600160a01b031661144f5750600190565b6078546040515f9182916001600160a01b0390911690633a871fe160e01b9061147c9030906024016118fa565b60408051601f198184030181529181526020820180516001600160e01b03166001600160e01b03199094169390931790925290516114ba91906122bd565b5f60405180830381855afa9150503d805f81146114f2576040519150601f19603f3d011682016040523d82523d5f602084013e6114f7565b606091505b509150915081158061150a575060208151105b156115185760019250505090565b8080602001905181019061152c9190612117565b9250505090565b5f61153c6118d6565b5f9283526003016020525060409020546001600160a01b031690565b5f6115616118d6565b60010154905090565b60015f828152607b602052604090206008015460ff16600681111561159157611591611b7f565b146115bd575f818152607b6020526040902060080154819060ff1660068111156106e4576106e4611b7f565b5f818152607b60205260409020600501546001600160a01b03163314611618575f818152607b60205260409081902060050154905163d46ad8a960e01b81526107059183916001600160a01b03909116903390600401611c06565b5f818152607b6020908152604080832060088101805460ff1916600317905560795460058201546010909201548552607f9093529281902060020154905163099ea56b60e41b8152600481018590526001600160a01b03938416602482015260448101919091529116906399ea56b0906064015f604051808303815f87803b1580156116a2575f80fd5b505af11580156116b4573d5f803e3d5ffd5b50600292506116c1915050565b60765460ff1660028111156116d8576116d8611b7f565b036117b1575f6116e782611533565b90505f6001600160a01b038216156116ff578161171a565b5f838152607b60205260409020600401546001600160a01b03165b608154604051631b16777760e01b81529192506001600160a01b031690631b1677779061174d9084905f906004016120f5565b6020604051808303815f875af1158015611769573d5f803e3d5ffd5b505050506040513d601f19601f8201168201806040525081019061178d9190612117565b6117ae57805f60405163068bc39960e41b81526004016107059291906120f5565b50505b6040518181527f416e669c63d9a3a5e36ee7cc7e2104b8db28ccd286aa18966e98fa230c73b08c9060200160405180910390a150565b8051602091820120825192909101919091201490565b60835460405163288c314960e21b81526001600160a01b039091169063a230c5249061182d9084906004016118fa565b602060405180830381865afa158015611848573d5f803e3d5ffd5b505050506040513d601f19601f8201168201806040525081019061186c9190612117565b61189a57607854604051636332657560e11b81526107059183916001600160a01b0390911690600401611ed1565b50565b806118a66118d6565b5f938452600301602052604090922080546001600160a01b0319166001600160a01b039093169290921790915550565b7fd5d05b1f29dcb0c0e1698b0261850eb784d1243215a6aa22ea2b8128b2e9497c90565b6001600160a01b0391909116815260200190565b5f6020828403121561191e575f80fd5b5035919050565b634e487b7160e01b5f52604160045260245ffd5b604080519081016001600160401b038111828210171561195b5761195b611925565b60405290565b60405160a081016001600160401b038111828210171561195b5761195b611925565b60405160c081016001600160401b038111828210171561195b5761195b611925565b604051601f8201601f191681016001600160401b03811182821017156119cd576119cd611925565b604052919050565b5f6001600160401b038211156119ed576119ed611925565b50601f01601f191660200190565b5f611a0d611a08846119d5565b6119a5565b9050828152838383011115611a20575f80fd5b828260208301375f602084830101529392505050565b6001600160a01b038116811461189a575f80fd5b8035611a5581611a36565b919050565b5f805f8060808587031215611a6d575f80fd5b8435935060208501356001600160401b0380821115611a8a575f80fd5b9086019060408289031215611a9d575f80fd5b611aa5611939565b82358152602083013582811115611aba575f80fd5b80840193505088601f840112611ace575f80fd5b611add898435602086016119fb565b60208201529450611af391505060408601611a4a565b9396929550929360600135925050565b93845260208401929092526040830152606082015260800190565b5f8060408385031215611b2f575f80fd5b82356001600160401b03811115611b44575f80fd5b8301601f81018513611b54575f80fd5b611b63858235602084016119fb565b9250506020830135611b7481611a36565b809150509250929050565b634e487b7160e01b5f52602160045260245ffd5b6020810160058310611ba757611ba7611b7f565b91905290565b6020810160038310611ba757611ba7611b7f565b5f60208284031215611bd1575f80fd5b813561140581611a36565b5f8060408385031215611bed575f80fd5b8235611bf881611a36565b946020939093013593505050565b9283526001600160a01b03918216602084015216604082015260600190565b634e487b7160e01b5f52601160045260245ffd5b8181038181111561069657610696611c25565b600181811c90821680611c6057607f821691505b602082108103611c7e57634e487b7160e01b5f52602260045260245ffd5b50919050565b5f5b83811015611c9e578181015183820152602001611c86565b50505f910152565b5f8151808452611cbd816020860160208601611c84565b601f01601f19169290920160200192915050565b8481525f6020608060208401525f8654611cea81611c4c565b80608087015260a060018084165f8114611d0b5760018114611d2757611d54565b60ff19851660a08a015260a084151560051b8a01019550611d54565b8b5f5260205f205f5b85811015611d4b5781548b8201860152908301908801611d30565b8a0160a0019650505b50505050508381036040850152611d6b8187611ca6565b9250505082606083015295945050505050565b601f821115611dc557805f5260205f20601f840160051c81016020851015611da35750805b601f840160051c820191505b81811015611dc2575f8155600101611daf565b50505b505050565b81516001600160401b03811115611de357611de3611925565b611df781611df18454611c4c565b84611d7e565b602080601f831160018114611e2a575f8415611e135750858301515b5f19600386901b1c1916600185901b178555611e81565b5f85815260208120601f198616915b82811015611e5857888601518255948401946001909101908401611e39565b5085821015611e7557878501515f19600388901b60f8161c191681555b505060018460011b0185555b505050505050565b84815260806020820152835160808201525f6020850151604060a0840152611eb460c0840182611ca6565b6001600160a01b0395909516604084015250506060015292915050565b6001600160a01b0392831681529116602082015260400190565b5f60408284031215611efb575f80fd5b611f03611939565b8251815260208301519091506001600160401b03811115611f22575f80fd5b8201601f81018413611f32575f80fd5b8051611f40611a08826119d5565b818152856020838501011115611f54575f80fd5b611f65826020830160208601611c84565b602084015250909392505050565b5f60208284031215611f83575f80fd5b81516001600160401b0380821115611f99575f80fd5b9083019060a08286031215611fac575f80fd5b611fb4611961565b825181526020830151611fc681611a36565b6020820152604083810151908201526060830151611fe381611a36565b6060820152608083015182811115611ff9575f80fd5b61200587828601611eeb565b60808301525095945050505050565b5f60208284031215612024575f80fd5b81516001600160401b038082111561203a575f80fd5b9083019060c0828603121561204d575f80fd5b612055611983565b82518152602083015161206781611a36565b6020820152604083015161207a81611a36565b6040820152606083015182811115612090575f80fd5b61209c87828601611eeb565b6060830152506080830151608082015260a083015160a082015280935050505092915050565b5f600182016120d3576120d3611c25565b5060010190565b5f602082840312156120ea575f80fd5b815161140581611a36565b6001600160a01b039290921682526001600160801b0316602082015260400190565b5f60208284031215612127575f80fd5b81518015158114611405575f80fd5b5f60208284031215612146575f80fd5b5051919050565b5f6020828403121561215d575f80fd5b815160ff81168114611405575f80fd5b60ff828116828216039081111561069657610696611c25565b600181815b808511156121c057815f19048211156121a6576121a6611c25565b808516156121b357918102915b93841c939080029061218b565b509250929050565b5f826121d657506001610696565b816121e257505f610696565b81600181146121f857600281146122025761221e565b6001915050610696565b60ff84111561221357612213611c25565b50506001821b610696565b5060208310610133831016604e8410600b8410161715612241575081810a610696565b61224b8383612186565b805f190482111561225e5761225e611c25565b029392505050565b5f61140560ff8416836121c8565b5f8261228e57634e487b7160e01b5f52601260045260245ffd5b500490565b808202811582820484141761069657610696611c25565b8082018082111561069657610696611c25565b5f82516122ce818460208701611c84565b919091019291505056fea164736f6c6343000817000a","linkReferences":{"pkg/contracts/src/CVStrategy/ConvictionsUtils.sol":{"ConvictionsUtils":[{"start":5002,"length":20}]}}},"methodIdentifiers":{"DISPUTE_COOLDOWN_SEC()":"f5be3f7c","MAX_ALLOCATIONS_PER_TX()":"ee50ee1b","MAX_PROPOSAL_COUNT()":"dfe9ec58","MAX_SYNC_BATCH_MEMBERS()":"4c3ceb5b","MAX_VOTER_STAKED_PROPOSALS()":"914bdef0","ONE_HOUR()":"165035e2","RULING_OPTIONS()":"626c47e8","_isStrategyEnabled()":"8dc83094","arbitrableConfigs(uint256)":"41bb7605","calculateProposalConviction(uint256)":"60b0645a","cancelProposal(uint256)":"e0a8f6f5","cloneNonce()":"33960459","collateralVault()":"0bece79c","currentArbitrableConfigVersion()":"125fd1d9","cvParams()":"2506b870","disputeCount()":"a28889e1","disputeIdToProposalId(uint256)":"255ffb38","editProposal(uint256,(uint256,string),address,uint256)":"141e3b38","getPoolAmount()":"4ab4ba42","lastRebalanceAt()":"2cea13f9","pointConfig()":"a47ff7e5","pointSystem()":"2dbd6fdd","proposalCounter()":"0c0512e9","proposalExists(uint256)":"1374b22d","proposalType()":"351d9f96","rebalanceCooldown()":"b3de272d","registerRecipient(bytes,address)":"2bbe0cae","registryCommunity()":"6003e414","streamingEscrow(uint256)":"b04b5b26","streamingRatePerSecond()":"94573cbb","superfluidGDA()":"1b36f56f","superfluidToken()":"05caa7f3","sybilScorer()":"b6c61f31","totalPointsActivated()":"aba9ffee","totalStaked()":"817b1cd2","totalVoterStakePct(address)":"5db64b99","voterStakedProposals(address,uint256)":"868c57b8","votingPowerRegistry()":"80fd91cd"},"storageLayout":{"storage":[{"astId":90955,"contract":"pkg/contracts/src/CVStrategy/facets/CVProposalFacet.sol:CVProposalFacet","label":"_initialized","offset":0,"slot":"0","type":"t_uint8"},{"astId":90957,"contract":"pkg/contracts/src/CVStrategy/facets/CVProposalFacet.sol:CVProposalFacet","label":"_initializing","offset":1,"slot":"0","type":"t_bool"},{"astId":90961,"contract":"pkg/contracts/src/CVStrategy/facets/CVProposalFacet.sol:CVProposalFacet","label":"__gap_init","offset":0,"slot":"1","type":"t_array(t_uint256)50_storage"},{"astId":90964,"contract":"pkg/contracts/src/CVStrategy/facets/CVProposalFacet.sol:CVProposalFacet","label":"_owner","offset":0,"slot":"51","type":"t_address"},{"astId":90968,"contract":"pkg/contracts/src/CVStrategy/facets/CVProposalFacet.sol:CVProposalFacet","label":"__gap_ownable","offset":0,"slot":"52","type":"t_array(t_uint256)49_storage"},{"astId":90972,"contract":"pkg/contracts/src/CVStrategy/facets/CVProposalFacet.sol:CVProposalFacet","label":"allo","offset":0,"slot":"101","type":"t_contract(IAllo)2631"},{"astId":90974,"contract":"pkg/contracts/src/CVStrategy/facets/CVProposalFacet.sol:CVProposalFacet","label":"strategyId","offset":0,"slot":"102","type":"t_bytes32"},{"astId":90976,"contract":"pkg/contracts/src/CVStrategy/facets/CVProposalFacet.sol:CVProposalFacet","label":"poolActive","offset":0,"slot":"103","type":"t_bool"},{"astId":90978,"contract":"pkg/contracts/src/CVStrategy/facets/CVProposalFacet.sol:CVProposalFacet","label":"poolId","offset":0,"slot":"104","type":"t_uint256"},{"astId":90980,"contract":"pkg/contracts/src/CVStrategy/facets/CVProposalFacet.sol:CVProposalFacet","label":"poolAmount","offset":0,"slot":"105","type":"t_uint256"},{"astId":90983,"contract":"pkg/contracts/src/CVStrategy/facets/CVProposalFacet.sol:CVProposalFacet","label":"collateralVaultTemplate","offset":0,"slot":"106","type":"t_address"},{"astId":90986,"contract":"pkg/contracts/src/CVStrategy/facets/CVProposalFacet.sol:CVProposalFacet","label":"surpressStateMutabilityWarning","offset":0,"slot":"107","type":"t_uint256"},{"astId":90989,"contract":"pkg/contracts/src/CVStrategy/facets/CVProposalFacet.sol:CVProposalFacet","label":"cloneNonce","offset":0,"slot":"108","type":"t_uint256"},{"astId":90992,"contract":"pkg/contracts/src/CVStrategy/facets/CVProposalFacet.sol:CVProposalFacet","label":"disputeCount","offset":0,"slot":"109","type":"t_uint64"},{"astId":90995,"contract":"pkg/contracts/src/CVStrategy/facets/CVProposalFacet.sol:CVProposalFacet","label":"proposalCounter","offset":0,"slot":"110","type":"t_uint256"},{"astId":90998,"contract":"pkg/contracts/src/CVStrategy/facets/CVProposalFacet.sol:CVProposalFacet","label":"currentArbitrableConfigVersion","offset":0,"slot":"111","type":"t_uint256"},{"astId":91001,"contract":"pkg/contracts/src/CVStrategy/facets/CVProposalFacet.sol:CVProposalFacet","label":"totalStaked","offset":0,"slot":"112","type":"t_uint256"},{"astId":91004,"contract":"pkg/contracts/src/CVStrategy/facets/CVProposalFacet.sol:CVProposalFacet","label":"totalPointsActivated","offset":0,"slot":"113","type":"t_uint256"},{"astId":91008,"contract":"pkg/contracts/src/CVStrategy/facets/CVProposalFacet.sol:CVProposalFacet","label":"cvParams","offset":0,"slot":"114","type":"t_struct(CVParams)92599_storage"},{"astId":91012,"contract":"pkg/contracts/src/CVStrategy/facets/CVProposalFacet.sol:CVProposalFacet","label":"proposalType","offset":0,"slot":"118","type":"t_enum(ProposalType)92499"},{"astId":91016,"contract":"pkg/contracts/src/CVStrategy/facets/CVProposalFacet.sol:CVProposalFacet","label":"pointSystem","offset":1,"slot":"118","type":"t_enum(PointSystem)92505"},{"astId":91020,"contract":"pkg/contracts/src/CVStrategy/facets/CVProposalFacet.sol:CVProposalFacet","label":"pointConfig","offset":0,"slot":"119","type":"t_struct(PointSystemConfig)92576_storage"},{"astId":91024,"contract":"pkg/contracts/src/CVStrategy/facets/CVProposalFacet.sol:CVProposalFacet","label":"registryCommunity","offset":0,"slot":"120","type":"t_contract(RegistryCommunity)104127"},{"astId":91028,"contract":"pkg/contracts/src/CVStrategy/facets/CVProposalFacet.sol:CVProposalFacet","label":"collateralVault","offset":0,"slot":"121","type":"t_contract(ICollateralVault)109991"},{"astId":91032,"contract":"pkg/contracts/src/CVStrategy/facets/CVProposalFacet.sol:CVProposalFacet","label":"sybilScorer","offset":0,"slot":"122","type":"t_contract(ISybilScorer)101643"},{"astId":91038,"contract":"pkg/contracts/src/CVStrategy/facets/CVProposalFacet.sol:CVProposalFacet","label":"proposals","offset":0,"slot":"123","type":"t_mapping(t_uint256,t_struct(Proposal)92568_storage)"},{"astId":91043,"contract":"pkg/contracts/src/CVStrategy/facets/CVProposalFacet.sol:CVProposalFacet","label":"totalVoterStakePct","offset":0,"slot":"124","type":"t_mapping(t_address,t_uint256)"},{"astId":91049,"contract":"pkg/contracts/src/CVStrategy/facets/CVProposalFacet.sol:CVProposalFacet","label":"voterStakedProposals","offset":0,"slot":"125","type":"t_mapping(t_address,t_array(t_uint256)dyn_storage)"},{"astId":91054,"contract":"pkg/contracts/src/CVStrategy/facets/CVProposalFacet.sol:CVProposalFacet","label":"disputeIdToProposalId","offset":0,"slot":"126","type":"t_mapping(t_uint256,t_uint256)"},{"astId":91060,"contract":"pkg/contracts/src/CVStrategy/facets/CVProposalFacet.sol:CVProposalFacet","label":"arbitrableConfigs","offset":0,"slot":"127","type":"t_mapping(t_uint256,t_struct(ArbitrableConfig)92590_storage)"},{"astId":91064,"contract":"pkg/contracts/src/CVStrategy/facets/CVProposalFacet.sol:CVProposalFacet","label":"superfluidToken","offset":0,"slot":"128","type":"t_contract(ISuperToken)79327"},{"astId":91068,"contract":"pkg/contracts/src/CVStrategy/facets/CVProposalFacet.sol:CVProposalFacet","label":"superfluidGDA","offset":0,"slot":"129","type":"t_contract(ISuperfluidPool)78155"},{"astId":91071,"contract":"pkg/contracts/src/CVStrategy/facets/CVProposalFacet.sol:CVProposalFacet","label":"streamingRatePerSecond","offset":0,"slot":"130","type":"t_uint256"},{"astId":91075,"contract":"pkg/contracts/src/CVStrategy/facets/CVProposalFacet.sol:CVProposalFacet","label":"votingPowerRegistry","offset":0,"slot":"131","type":"t_contract(IVotingPowerRegistry)110195"},{"astId":91080,"contract":"pkg/contracts/src/CVStrategy/facets/CVProposalFacet.sol:CVProposalFacet","label":"__gap","offset":0,"slot":"132","type":"t_array(t_uint256)46_storage"}],"types":{"t_address":{"encoding":"inplace","label":"address","numberOfBytes":"20"},"t_array(t_uint256)46_storage":{"encoding":"inplace","label":"uint256[46]","numberOfBytes":"1472","base":"t_uint256"},"t_array(t_uint256)49_storage":{"encoding":"inplace","label":"uint256[49]","numberOfBytes":"1568","base":"t_uint256"},"t_array(t_uint256)50_storage":{"encoding":"inplace","label":"uint256[50]","numberOfBytes":"1600","base":"t_uint256"},"t_array(t_uint256)dyn_storage":{"encoding":"dynamic_array","label":"uint256[]","numberOfBytes":"32","base":"t_uint256"},"t_bool":{"encoding":"inplace","label":"bool","numberOfBytes":"1"},"t_bytes32":{"encoding":"inplace","label":"bytes32","numberOfBytes":"32"},"t_contract(IAllo)2631":{"encoding":"inplace","label":"contract IAllo","numberOfBytes":"20"},"t_contract(IArbitrator)109958":{"encoding":"inplace","label":"contract IArbitrator","numberOfBytes":"20"},"t_contract(ICollateralVault)109991":{"encoding":"inplace","label":"contract ICollateralVault","numberOfBytes":"20"},"t_contract(ISuperToken)79327":{"encoding":"inplace","label":"contract ISuperToken","numberOfBytes":"20"},"t_contract(ISuperfluidPool)78155":{"encoding":"inplace","label":"contract ISuperfluidPool","numberOfBytes":"20"},"t_contract(ISybilScorer)101643":{"encoding":"inplace","label":"contract ISybilScorer","numberOfBytes":"20"},"t_contract(IVotingPowerRegistry)110195":{"encoding":"inplace","label":"contract IVotingPowerRegistry","numberOfBytes":"20"},"t_contract(RegistryCommunity)104127":{"encoding":"inplace","label":"contract RegistryCommunity","numberOfBytes":"20"},"t_enum(PointSystem)92505":{"encoding":"inplace","label":"enum PointSystem","numberOfBytes":"1"},"t_enum(ProposalStatus)92525":{"encoding":"inplace","label":"enum ProposalStatus","numberOfBytes":"1"},"t_enum(ProposalType)92499":{"encoding":"inplace","label":"enum ProposalType","numberOfBytes":"1"},"t_mapping(t_address,t_array(t_uint256)dyn_storage)":{"encoding":"mapping","key":"t_address","label":"mapping(address => uint256[])","numberOfBytes":"32","value":"t_array(t_uint256)dyn_storage"},"t_mapping(t_address,t_uint256)":{"encoding":"mapping","key":"t_address","label":"mapping(address => uint256)","numberOfBytes":"32","value":"t_uint256"},"t_mapping(t_uint256,t_struct(ArbitrableConfig)92590_storage)":{"encoding":"mapping","key":"t_uint256","label":"mapping(uint256 => struct ArbitrableConfig)","numberOfBytes":"32","value":"t_struct(ArbitrableConfig)92590_storage"},"t_mapping(t_uint256,t_struct(Proposal)92568_storage)":{"encoding":"mapping","key":"t_uint256","label":"mapping(uint256 => struct Proposal)","numberOfBytes":"32","value":"t_struct(Proposal)92568_storage"},"t_mapping(t_uint256,t_uint256)":{"encoding":"mapping","key":"t_uint256","label":"mapping(uint256 => uint256)","numberOfBytes":"32","value":"t_uint256"},"t_string_storage":{"encoding":"bytes","label":"string","numberOfBytes":"32"},"t_struct(ArbitrableConfig)92590_storage":{"encoding":"inplace","label":"struct ArbitrableConfig","numberOfBytes":"192","members":[{"astId":92579,"contract":"pkg/contracts/src/CVStrategy/facets/CVProposalFacet.sol:CVProposalFacet","label":"arbitrator","offset":0,"slot":"0","type":"t_contract(IArbitrator)109958"},{"astId":92581,"contract":"pkg/contracts/src/CVStrategy/facets/CVProposalFacet.sol:CVProposalFacet","label":"tribunalSafe","offset":0,"slot":"1","type":"t_address"},{"astId":92583,"contract":"pkg/contracts/src/CVStrategy/facets/CVProposalFacet.sol:CVProposalFacet","label":"submitterCollateralAmount","offset":0,"slot":"2","type":"t_uint256"},{"astId":92585,"contract":"pkg/contracts/src/CVStrategy/facets/CVProposalFacet.sol:CVProposalFacet","label":"challengerCollateralAmount","offset":0,"slot":"3","type":"t_uint256"},{"astId":92587,"contract":"pkg/contracts/src/CVStrategy/facets/CVProposalFacet.sol:CVProposalFacet","label":"defaultRuling","offset":0,"slot":"4","type":"t_uint256"},{"astId":92589,"contract":"pkg/contracts/src/CVStrategy/facets/CVProposalFacet.sol:CVProposalFacet","label":"defaultRulingTimeout","offset":0,"slot":"5","type":"t_uint256"}]},"t_struct(CVParams)92599_storage":{"encoding":"inplace","label":"struct CVParams","numberOfBytes":"128","members":[{"astId":92592,"contract":"pkg/contracts/src/CVStrategy/facets/CVProposalFacet.sol:CVProposalFacet","label":"maxRatio","offset":0,"slot":"0","type":"t_uint256"},{"astId":92594,"contract":"pkg/contracts/src/CVStrategy/facets/CVProposalFacet.sol:CVProposalFacet","label":"weight","offset":0,"slot":"1","type":"t_uint256"},{"astId":92596,"contract":"pkg/contracts/src/CVStrategy/facets/CVProposalFacet.sol:CVProposalFacet","label":"decay","offset":0,"slot":"2","type":"t_uint256"},{"astId":92598,"contract":"pkg/contracts/src/CVStrategy/facets/CVProposalFacet.sol:CVProposalFacet","label":"minThresholdPoints","offset":0,"slot":"3","type":"t_uint256"}]},"t_struct(Metadata)3086_storage":{"encoding":"inplace","label":"struct Metadata","numberOfBytes":"64","members":[{"astId":3082,"contract":"pkg/contracts/src/CVStrategy/facets/CVProposalFacet.sol:CVProposalFacet","label":"protocol","offset":0,"slot":"0","type":"t_uint256"},{"astId":3085,"contract":"pkg/contracts/src/CVStrategy/facets/CVProposalFacet.sol:CVProposalFacet","label":"pointer","offset":0,"slot":"1","type":"t_string_storage"}]},"t_struct(PointSystemConfig)92576_storage":{"encoding":"inplace","label":"struct PointSystemConfig","numberOfBytes":"32","members":[{"astId":92575,"contract":"pkg/contracts/src/CVStrategy/facets/CVProposalFacet.sol:CVProposalFacet","label":"maxAmount","offset":0,"slot":"0","type":"t_uint256"}]},"t_struct(Proposal)92568_storage":{"encoding":"inplace","label":"struct Proposal","numberOfBytes":"576","members":[{"astId":92534,"contract":"pkg/contracts/src/CVStrategy/facets/CVProposalFacet.sol:CVProposalFacet","label":"proposalId","offset":0,"slot":"0","type":"t_uint256"},{"astId":92536,"contract":"pkg/contracts/src/CVStrategy/facets/CVProposalFacet.sol:CVProposalFacet","label":"requestedAmount","offset":0,"slot":"1","type":"t_uint256"},{"astId":92538,"contract":"pkg/contracts/src/CVStrategy/facets/CVProposalFacet.sol:CVProposalFacet","label":"stakedAmount","offset":0,"slot":"2","type":"t_uint256"},{"astId":92540,"contract":"pkg/contracts/src/CVStrategy/facets/CVProposalFacet.sol:CVProposalFacet","label":"convictionLast","offset":0,"slot":"3","type":"t_uint256"},{"astId":92542,"contract":"pkg/contracts/src/CVStrategy/facets/CVProposalFacet.sol:CVProposalFacet","label":"beneficiary","offset":0,"slot":"4","type":"t_address"},{"astId":92544,"contract":"pkg/contracts/src/CVStrategy/facets/CVProposalFacet.sol:CVProposalFacet","label":"submitter","offset":0,"slot":"5","type":"t_address"},{"astId":92546,"contract":"pkg/contracts/src/CVStrategy/facets/CVProposalFacet.sol:CVProposalFacet","label":"requestedToken","offset":0,"slot":"6","type":"t_address"},{"astId":92548,"contract":"pkg/contracts/src/CVStrategy/facets/CVProposalFacet.sol:CVProposalFacet","label":"blockLast","offset":0,"slot":"7","type":"t_uint256"},{"astId":92551,"contract":"pkg/contracts/src/CVStrategy/facets/CVProposalFacet.sol:CVProposalFacet","label":"proposalStatus","offset":0,"slot":"8","type":"t_enum(ProposalStatus)92525"},{"astId":92555,"contract":"pkg/contracts/src/CVStrategy/facets/CVProposalFacet.sol:CVProposalFacet","label":"voterStakedPoints","offset":0,"slot":"9","type":"t_mapping(t_address,t_uint256)"},{"astId":92558,"contract":"pkg/contracts/src/CVStrategy/facets/CVProposalFacet.sol:CVProposalFacet","label":"metadata","offset":0,"slot":"10","type":"t_struct(Metadata)3086_storage"},{"astId":92561,"contract":"pkg/contracts/src/CVStrategy/facets/CVProposalFacet.sol:CVProposalFacet","label":"disputeInfo","offset":0,"slot":"12","type":"t_struct(ProposalDisputeInfo)92532_storage"},{"astId":92563,"contract":"pkg/contracts/src/CVStrategy/facets/CVProposalFacet.sol:CVProposalFacet","label":"lastDisputeCompletion","offset":0,"slot":"15","type":"t_uint256"},{"astId":92565,"contract":"pkg/contracts/src/CVStrategy/facets/CVProposalFacet.sol:CVProposalFacet","label":"arbitrableConfigVersion","offset":0,"slot":"16","type":"t_uint256"},{"astId":92567,"contract":"pkg/contracts/src/CVStrategy/facets/CVProposalFacet.sol:CVProposalFacet","label":"creationTimestamp","offset":0,"slot":"17","type":"t_uint256"}]},"t_struct(ProposalDisputeInfo)92532_storage":{"encoding":"inplace","label":"struct ProposalDisputeInfo","numberOfBytes":"96","members":[{"astId":92527,"contract":"pkg/contracts/src/CVStrategy/facets/CVProposalFacet.sol:CVProposalFacet","label":"disputeId","offset":0,"slot":"0","type":"t_uint256"},{"astId":92529,"contract":"pkg/contracts/src/CVStrategy/facets/CVProposalFacet.sol:CVProposalFacet","label":"disputeTimestamp","offset":0,"slot":"1","type":"t_uint256"},{"astId":92531,"contract":"pkg/contracts/src/CVStrategy/facets/CVProposalFacet.sol:CVProposalFacet","label":"challenger","offset":0,"slot":"2","type":"t_address"}]},"t_uint256":{"encoding":"inplace","label":"uint256","numberOfBytes":"32"},"t_uint64":{"encoding":"inplace","label":"uint64","numberOfBytes":"8"},"t_uint8":{"encoding":"inplace","label":"uint8","numberOfBytes":"1"}}},"id":154}