{"abi":[{"type":"function","name":"COUNCIL_MEMBER","inputs":[],"outputs":[{"name":"","type":"bytes32","internalType":"bytes32"}],"stateMutability":"view"},{"type":"function","name":"DEFAULT_ADMIN_ROLE","inputs":[],"outputs":[{"name":"","type":"bytes32","internalType":"bytes32"}],"stateMutability":"view"},{"type":"function","name":"MAX_FEE","inputs":[],"outputs":[{"name":"","type":"uint256","internalType":"uint256"}],"stateMutability":"view"},{"type":"function","name":"NATIVE","inputs":[],"outputs":[{"name":"","type":"address","internalType":"address"}],"stateMutability":"view"},{"type":"function","name":"PRECISION_SCALE","inputs":[],"outputs":[{"name":"","type":"uint256","internalType":"uint256"}],"stateMutability":"view"},{"type":"function","name":"VERSION","inputs":[],"outputs":[{"name":"","type":"string","internalType":"string"}],"stateMutability":"view"},{"type":"function","name":"acceptCouncilSafe","inputs":[],"outputs":[],"stateMutability":"nonpayable"},{"type":"function","name":"activateMemberInStrategy","inputs":[{"name":"_member","type":"address","internalType":"address"},{"name":"_strategy","type":"address","internalType":"address"}],"outputs":[],"stateMutability":"nonpayable"},{"type":"function","name":"addStrategy","inputs":[{"name":"_newStrategy","type":"address","internalType":"address"}],"outputs":[],"stateMutability":"nonpayable"},{"type":"function","name":"addStrategyByPoolId","inputs":[{"name":"poolId","type":"uint256","internalType":"uint256"}],"outputs":[],"stateMutability":"nonpayable"},{"type":"function","name":"addressToMemberInfo","inputs":[{"name":"member","type":"address","internalType":"address"}],"outputs":[{"name":"member","type":"address","internalType":"address"},{"name":"stakedAmount","type":"uint256","internalType":"uint256"},{"name":"isRegistered","type":"bool","internalType":"bool"}],"stateMutability":"view"},{"type":"function","name":"allo","inputs":[],"outputs":[{"name":"","type":"address","internalType":"contract FAllo"}],"stateMutability":"view"},{"type":"function","name":"cloneNonce","inputs":[],"outputs":[{"name":"","type":"uint256","internalType":"uint256"}],"stateMutability":"view"},{"type":"function","name":"collateralVaultTemplate","inputs":[],"outputs":[{"name":"","type":"address","internalType":"address"}],"stateMutability":"view"},{"type":"function","name":"communityFee","inputs":[],"outputs":[{"name":"","type":"uint256","internalType":"uint256"}],"stateMutability":"view"},{"type":"function","name":"communityName","inputs":[],"outputs":[{"name":"","type":"string","internalType":"string"}],"stateMutability":"view"},{"type":"function","name":"councilSafe","inputs":[],"outputs":[{"name":"","type":"address","internalType":"contract ISafe"}],"stateMutability":"view"},{"type":"function","name":"covenantIpfsHash","inputs":[],"outputs":[{"name":"","type":"string","internalType":"string"}],"stateMutability":"view"},{"type":"function","name":"createPool","inputs":[{"name":"_token","type":"address","internalType":"address"},{"name":"_params","type":"tuple","internalType":"struct StrategyStruct.InitializeParams","components":[{"name":"cvParams","type":"tuple","internalType":"struct StrategyStruct.CVParams","components":[{"name":"maxRatio","type":"uint256","internalType":"uint256"},{"name":"weight","type":"uint256","internalType":"uint256"},{"name":"decay","type":"uint256","internalType":"uint256"},{"name":"minThresholdPoints","type":"uint256","internalType":"uint256"}]},{"name":"proposalType","type":"uint8","internalType":"enum StrategyStruct.ProposalType"},{"name":"pointSystem","type":"uint8","internalType":"enum StrategyStruct.PointSystem"},{"name":"pointConfig","type":"tuple","internalType":"struct StrategyStruct.PointSystemConfig","components":[{"name":"maxAmount","type":"uint256","internalType":"uint256"}]},{"name":"arbitrableConfig","type":"tuple","internalType":"struct StrategyStruct.ArbitrableConfig","components":[{"name":"arbitrator","type":"address","internalType":"contract IArbitrator"},{"name":"tribunalSafe","type":"address","internalType":"address"},{"name":"submitterCollateralAmount","type":"uint256","internalType":"uint256"},{"name":"challengerCollateralAmount","type":"uint256","internalType":"uint256"},{"name":"defaultRuling","type":"uint256","internalType":"uint256"},{"name":"defaultRulingTimeout","type":"uint256","internalType":"uint256"}]},{"name":"registryCommunity","type":"address","internalType":"address"},{"name":"sybilScorer","type":"address","internalType":"address"}]},{"name":"_metadata","type":"tuple","internalType":"struct Metadata","components":[{"name":"protocol","type":"uint256","internalType":"uint256"},{"name":"pointer","type":"string","internalType":"string"}]}],"outputs":[{"name":"poolId","type":"uint256","internalType":"uint256"},{"name":"strategy","type":"address","internalType":"address"}],"stateMutability":"nonpayable"},{"type":"function","name":"createPool","inputs":[{"name":"_token","type":"address","internalType":"address"},{"name":"_params","type":"tuple","internalType":"struct StrategyStruct2.InitializeParams","components":[{"name":"cvParams","type":"tuple","internalType":"struct StrategyStruct.CVParams","components":[{"name":"maxRatio","type":"uint256","internalType":"uint256"},{"name":"weight","type":"uint256","internalType":"uint256"},{"name":"decay","type":"uint256","internalType":"uint256"},{"name":"minThresholdPoints","type":"uint256","internalType":"uint256"}]},{"name":"proposalType","type":"uint8","internalType":"enum StrategyStruct.ProposalType"},{"name":"pointSystem","type":"uint8","internalType":"enum StrategyStruct.PointSystem"},{"name":"pointConfig","type":"tuple","internalType":"struct StrategyStruct.PointSystemConfig","components":[{"name":"maxAmount","type":"uint256","internalType":"uint256"}]},{"name":"arbitrableConfig","type":"tuple","internalType":"struct StrategyStruct.ArbitrableConfig","components":[{"name":"arbitrator","type":"address","internalType":"contract IArbitrator"},{"name":"tribunalSafe","type":"address","internalType":"address"},{"name":"submitterCollateralAmount","type":"uint256","internalType":"uint256"},{"name":"challengerCollateralAmount","type":"uint256","internalType":"uint256"},{"name":"defaultRuling","type":"uint256","internalType":"uint256"},{"name":"defaultRulingTimeout","type":"uint256","internalType":"uint256"}]},{"name":"registryCommunity","type":"address","internalType":"address"},{"name":"sybilScorer","type":"address","internalType":"address"},{"name":"initialAllowlist","type":"address[]","internalType":"address[]"}]},{"name":"_metadata","type":"tuple","internalType":"struct Metadata","components":[{"name":"protocol","type":"uint256","internalType":"uint256"},{"name":"pointer","type":"string","internalType":"string"}]}],"outputs":[{"name":"poolId","type":"uint256","internalType":"uint256"},{"name":"strategy","type":"address","internalType":"address"}],"stateMutability":"nonpayable"},{"type":"function","name":"createPool","inputs":[{"name":"_strategy","type":"address","internalType":"address"},{"name":"_token","type":"address","internalType":"address"},{"name":"_params","type":"tuple","internalType":"struct StrategyStruct2.InitializeParams","components":[{"name":"cvParams","type":"tuple","internalType":"struct StrategyStruct.CVParams","components":[{"name":"maxRatio","type":"uint256","internalType":"uint256"},{"name":"weight","type":"uint256","internalType":"uint256"},{"name":"decay","type":"uint256","internalType":"uint256"},{"name":"minThresholdPoints","type":"uint256","internalType":"uint256"}]},{"name":"proposalType","type":"uint8","internalType":"enum StrategyStruct.ProposalType"},{"name":"pointSystem","type":"uint8","internalType":"enum StrategyStruct.PointSystem"},{"name":"pointConfig","type":"tuple","internalType":"struct StrategyStruct.PointSystemConfig","components":[{"name":"maxAmount","type":"uint256","internalType":"uint256"}]},{"name":"arbitrableConfig","type":"tuple","internalType":"struct StrategyStruct.ArbitrableConfig","components":[{"name":"arbitrator","type":"address","internalType":"contract IArbitrator"},{"name":"tribunalSafe","type":"address","internalType":"address"},{"name":"submitterCollateralAmount","type":"uint256","internalType":"uint256"},{"name":"challengerCollateralAmount","type":"uint256","internalType":"uint256"},{"name":"defaultRuling","type":"uint256","internalType":"uint256"},{"name":"defaultRulingTimeout","type":"uint256","internalType":"uint256"}]},{"name":"registryCommunity","type":"address","internalType":"address"},{"name":"sybilScorer","type":"address","internalType":"address"},{"name":"initialAllowlist","type":"address[]","internalType":"address[]"}]},{"name":"_metadata","type":"tuple","internalType":"struct Metadata","components":[{"name":"protocol","type":"uint256","internalType":"uint256"},{"name":"pointer","type":"string","internalType":"string"}]}],"outputs":[{"name":"poolId","type":"uint256","internalType":"uint256"},{"name":"strategy","type":"address","internalType":"address"}],"stateMutability":"nonpayable"},{"type":"function","name":"createPool","inputs":[{"name":"_strategy","type":"address","internalType":"address"},{"name":"_token","type":"address","internalType":"address"},{"name":"_params","type":"tuple","internalType":"struct StrategyStruct.InitializeParams","components":[{"name":"cvParams","type":"tuple","internalType":"struct StrategyStruct.CVParams","components":[{"name":"maxRatio","type":"uint256","internalType":"uint256"},{"name":"weight","type":"uint256","internalType":"uint256"},{"name":"decay","type":"uint256","internalType":"uint256"},{"name":"minThresholdPoints","type":"uint256","internalType":"uint256"}]},{"name":"proposalType","type":"uint8","internalType":"enum StrategyStruct.ProposalType"},{"name":"pointSystem","type":"uint8","internalType":"enum StrategyStruct.PointSystem"},{"name":"pointConfig","type":"tuple","internalType":"struct StrategyStruct.PointSystemConfig","components":[{"name":"maxAmount","type":"uint256","internalType":"uint256"}]},{"name":"arbitrableConfig","type":"tuple","internalType":"struct StrategyStruct.ArbitrableConfig","components":[{"name":"arbitrator","type":"address","internalType":"contract IArbitrator"},{"name":"tribunalSafe","type":"address","internalType":"address"},{"name":"submitterCollateralAmount","type":"uint256","internalType":"uint256"},{"name":"challengerCollateralAmount","type":"uint256","internalType":"uint256"},{"name":"defaultRuling","type":"uint256","internalType":"uint256"},{"name":"defaultRulingTimeout","type":"uint256","internalType":"uint256"}]},{"name":"registryCommunity","type":"address","internalType":"address"},{"name":"sybilScorer","type":"address","internalType":"address"}]},{"name":"_metadata","type":"tuple","internalType":"struct Metadata","components":[{"name":"protocol","type":"uint256","internalType":"uint256"},{"name":"pointer","type":"string","internalType":"string"}]}],"outputs":[{"name":"poolId","type":"uint256","internalType":"uint256"},{"name":"strategy","type":"address","internalType":"address"}],"stateMutability":"nonpayable"},{"type":"function","name":"deactivateMemberInStrategy","inputs":[{"name":"_member","type":"address","internalType":"address"},{"name":"_strategy","type":"address","internalType":"address"}],"outputs":[],"stateMutability":"nonpayable"},{"type":"function","name":"decreasePower","inputs":[{"name":"_amountUnstaked","type":"uint256","internalType":"uint256"}],"outputs":[],"stateMutability":"nonpayable"},{"type":"function","name":"enabledStrategies","inputs":[{"name":"strategy","type":"address","internalType":"address"}],"outputs":[{"name":"isEnabled","type":"bool","internalType":"bool"}],"stateMutability":"view"},{"type":"function","name":"feeReceiver","inputs":[],"outputs":[{"name":"","type":"address","internalType":"address"}],"stateMutability":"view"},{"type":"function","name":"gardenToken","inputs":[],"outputs":[{"name":"","type":"address","internalType":"contract IERC20"}],"stateMutability":"view"},{"type":"function","name":"getBasisStakedAmount","inputs":[],"outputs":[{"name":"","type":"uint256","internalType":"uint256"}],"stateMutability":"view"},{"type":"function","name":"getMemberPowerInStrategy","inputs":[{"name":"_member","type":"address","internalType":"address"},{"name":"_strategy","type":"address","internalType":"address"}],"outputs":[{"name":"","type":"uint256","internalType":"uint256"}],"stateMutability":"view"},{"type":"function","name":"getMemberStakedAmount","inputs":[{"name":"_member","type":"address","internalType":"address"}],"outputs":[{"name":"","type":"uint256","internalType":"uint256"}],"stateMutability":"view"},{"type":"function","name":"getRoleAdmin","inputs":[{"name":"role","type":"bytes32","internalType":"bytes32"}],"outputs":[{"name":"","type":"bytes32","internalType":"bytes32"}],"stateMutability":"view"},{"type":"function","name":"getStakeAmountWithFees","inputs":[],"outputs":[{"name":"","type":"uint256","internalType":"uint256"}],"stateMutability":"view"},{"type":"function","name":"grantRole","inputs":[{"name":"role","type":"bytes32","internalType":"bytes32"},{"name":"account","type":"address","internalType":"address"}],"outputs":[],"stateMutability":"nonpayable"},{"type":"function","name":"hasRole","inputs":[{"name":"role","type":"bytes32","internalType":"bytes32"},{"name":"account","type":"address","internalType":"address"}],"outputs":[{"name":"","type":"bool","internalType":"bool"}],"stateMutability":"view"},{"type":"function","name":"increasePower","inputs":[{"name":"_amountStaked","type":"uint256","internalType":"uint256"}],"outputs":[],"stateMutability":"nonpayable"},{"type":"function","name":"initialize","inputs":[{"name":"params","type":"tuple","internalType":"struct RegistryCommunityV0_0.InitializeParams","components":[{"name":"_allo","type":"address","internalType":"address"},{"name":"_gardenToken","type":"address","internalType":"contract IERC20"},{"name":"_registerStakeAmount","type":"uint256","internalType":"uint256"},{"name":"_communityFee","type":"uint256","internalType":"uint256"},{"name":"_nonce","type":"uint256","internalType":"uint256"},{"name":"_registryFactory","type":"address","internalType":"address"},{"name":"_feeReceiver","type":"address","internalType":"address"},{"name":"_metadata","type":"tuple","internalType":"struct Metadata","components":[{"name":"protocol","type":"uint256","internalType":"uint256"},{"name":"pointer","type":"string","internalType":"string"}]},{"name":"_councilSafe","type":"address","internalType":"address payable"},{"name":"_communityName","type":"string","internalType":"string"},{"name":"_isKickEnabled","type":"bool","internalType":"bool"},{"name":"covenantIpfsHash","type":"string","internalType":"string"}]},{"name":"_strategyTemplate","type":"address","internalType":"address"},{"name":"_collateralVaultTemplate","type":"address","internalType":"address"},{"name":"owner","type":"address","internalType":"address"}],"outputs":[],"stateMutability":"nonpayable"},{"type":"function","name":"initialize","inputs":[{"name":"initialOwner","type":"address","internalType":"address"}],"outputs":[],"stateMutability":"nonpayable"},{"type":"function","name":"isCouncilMember","inputs":[{"name":"_member","type":"address","internalType":"address"}],"outputs":[{"name":"","type":"bool","internalType":"bool"}],"stateMutability":"view"},{"type":"function","name":"isKickEnabled","inputs":[],"outputs":[{"name":"","type":"bool","internalType":"bool"}],"stateMutability":"view"},{"type":"function","name":"isMember","inputs":[{"name":"_member","type":"address","internalType":"address"}],"outputs":[{"name":"_isMember","type":"bool","internalType":"bool"}],"stateMutability":"view"},{"type":"function","name":"kickMember","inputs":[{"name":"_member","type":"address","internalType":"address"},{"name":"_transferAddress","type":"address","internalType":"address"}],"outputs":[],"stateMutability":"nonpayable"},{"type":"function","name":"memberActivatedInStrategies","inputs":[{"name":"member","type":"address","internalType":"address"},{"name":"strategy","type":"address","internalType":"address"}],"outputs":[{"name":"isActivated","type":"bool","internalType":"bool"}],"stateMutability":"view"},{"type":"function","name":"memberPowerInStrategy","inputs":[{"name":"strategy","type":"address","internalType":"address"},{"name":"member","type":"address","internalType":"address"}],"outputs":[{"name":"power","type":"uint256","internalType":"uint256"}],"stateMutability":"view"},{"type":"function","name":"owner","inputs":[],"outputs":[{"name":"","type":"address","internalType":"address"}],"stateMutability":"view"},{"type":"function","name":"pendingCouncilSafe","inputs":[],"outputs":[{"name":"","type":"address","internalType":"address payable"}],"stateMutability":"view"},{"type":"function","name":"profileId","inputs":[],"outputs":[{"name":"","type":"bytes32","internalType":"bytes32"}],"stateMutability":"view"},{"type":"function","name":"proxiableUUID","inputs":[],"outputs":[{"name":"","type":"bytes32","internalType":"bytes32"}],"stateMutability":"view"},{"type":"function","name":"registerStakeAmount","inputs":[],"outputs":[{"name":"","type":"uint256","internalType":"uint256"}],"stateMutability":"view"},{"type":"function","name":"registry","inputs":[],"outputs":[{"name":"","type":"address","internalType":"contract IRegistry"}],"stateMutability":"view"},{"type":"function","name":"registryFactory","inputs":[],"outputs":[{"name":"","type":"address","internalType":"address"}],"stateMutability":"view"},{"type":"function","name":"removeStrategy","inputs":[{"name":"_strategy","type":"address","internalType":"address"}],"outputs":[],"stateMutability":"nonpayable"},{"type":"function","name":"removeStrategyByPoolId","inputs":[{"name":"poolId","type":"uint256","internalType":"uint256"}],"outputs":[],"stateMutability":"nonpayable"},{"type":"function","name":"renounceOwnership","inputs":[],"outputs":[],"stateMutability":"nonpayable"},{"type":"function","name":"renounceRole","inputs":[{"name":"role","type":"bytes32","internalType":"bytes32"},{"name":"account","type":"address","internalType":"address"}],"outputs":[],"stateMutability":"nonpayable"},{"type":"function","name":"revokeRole","inputs":[{"name":"role","type":"bytes32","internalType":"bytes32"},{"name":"account","type":"address","internalType":"address"}],"outputs":[],"stateMutability":"nonpayable"},{"type":"function","name":"setBasisStakedAmount","inputs":[{"name":"_newAmount","type":"uint256","internalType":"uint256"}],"outputs":[],"stateMutability":"nonpayable"},{"type":"function","name":"setCollateralVaultTemplate","inputs":[{"name":"template","type":"address","internalType":"address"}],"outputs":[],"stateMutability":"nonpayable"},{"type":"function","name":"setCommunityFee","inputs":[{"name":"_newCommunityFee","type":"uint256","internalType":"uint256"}],"outputs":[],"stateMutability":"nonpayable"},{"type":"function","name":"setCouncilSafe","inputs":[{"name":"_safe","type":"address","internalType":"address payable"}],"outputs":[],"stateMutability":"nonpayable"},{"type":"function","name":"setStrategyTemplate","inputs":[{"name":"template","type":"address","internalType":"address"}],"outputs":[],"stateMutability":"nonpayable"},{"type":"function","name":"stakeAndRegisterMember","inputs":[],"outputs":[],"stateMutability":"nonpayable"},{"type":"function","name":"strategiesByMember","inputs":[{"name":"member","type":"address","internalType":"address"},{"name":"","type":"uint256","internalType":"uint256"}],"outputs":[{"name":"strategiesAddresses","type":"address","internalType":"address"}],"stateMutability":"view"},{"type":"function","name":"strategyTemplate","inputs":[],"outputs":[{"name":"","type":"address","internalType":"address"}],"stateMutability":"view"},{"type":"function","name":"supportsInterface","inputs":[{"name":"interfaceId","type":"bytes4","internalType":"bytes4"}],"outputs":[{"name":"","type":"bool","internalType":"bool"}],"stateMutability":"view"},{"type":"function","name":"transferOwnership","inputs":[{"name":"newOwner","type":"address","internalType":"address"}],"outputs":[],"stateMutability":"nonpayable"},{"type":"function","name":"unregisterMember","inputs":[],"outputs":[],"stateMutability":"nonpayable"},{"type":"function","name":"upgradeTo","inputs":[{"name":"newImplementation","type":"address","internalType":"address"}],"outputs":[],"stateMutability":"nonpayable"},{"type":"function","name":"upgradeToAndCall","inputs":[{"name":"newImplementation","type":"address","internalType":"address"},{"name":"data","type":"bytes","internalType":"bytes"}],"outputs":[],"stateMutability":"payable"},{"type":"event","name":"AdminChanged","inputs":[{"name":"previousAdmin","type":"address","indexed":false,"internalType":"address"},{"name":"newAdmin","type":"address","indexed":false,"internalType":"address"}],"anonymous":false},{"type":"event","name":"AlloSet","inputs":[{"name":"_allo","type":"address","indexed":false,"internalType":"address"}],"anonymous":false},{"type":"event","name":"BasisStakedAmountSet","inputs":[{"name":"_newAmount","type":"uint256","indexed":false,"internalType":"uint256"}],"anonymous":false},{"type":"event","name":"BeaconUpgraded","inputs":[{"name":"beacon","type":"address","indexed":true,"internalType":"address"}],"anonymous":false},{"type":"event","name":"CommunityFeeUpdated","inputs":[{"name":"_newFee","type":"uint256","indexed":false,"internalType":"uint256"}],"anonymous":false},{"type":"event","name":"CouncilSafeChangeStarted","inputs":[{"name":"_safeOwner","type":"address","indexed":false,"internalType":"address"},{"name":"_newSafeOwner","type":"address","indexed":false,"internalType":"address"}],"anonymous":false},{"type":"event","name":"CouncilSafeSet","inputs":[{"name":"_safe","type":"address","indexed":false,"internalType":"address"}],"anonymous":false},{"type":"event","name":"Initialized","inputs":[{"name":"version","type":"uint8","indexed":false,"internalType":"uint8"}],"anonymous":false},{"type":"event","name":"MemberActivatedStrategy","inputs":[{"name":"_member","type":"address","indexed":false,"internalType":"address"},{"name":"_strategy","type":"address","indexed":false,"internalType":"address"},{"name":"_pointsToIncrease","type":"uint256","indexed":false,"internalType":"uint256"}],"anonymous":false},{"type":"event","name":"MemberDeactivatedStrategy","inputs":[{"name":"_member","type":"address","indexed":false,"internalType":"address"},{"name":"_strategy","type":"address","indexed":false,"internalType":"address"}],"anonymous":false},{"type":"event","name":"MemberKicked","inputs":[{"name":"_member","type":"address","indexed":false,"internalType":"address"},{"name":"_transferAddress","type":"address","indexed":false,"internalType":"address"},{"name":"_amountReturned","type":"uint256","indexed":false,"internalType":"uint256"}],"anonymous":false},{"type":"event","name":"MemberPowerDecreased","inputs":[{"name":"_member","type":"address","indexed":false,"internalType":"address"},{"name":"_unstakedAmount","type":"uint256","indexed":false,"internalType":"uint256"}],"anonymous":false},{"type":"event","name":"MemberPowerIncreased","inputs":[{"name":"_member","type":"address","indexed":false,"internalType":"address"},{"name":"_stakedAmount","type":"uint256","indexed":false,"internalType":"uint256"}],"anonymous":false},{"type":"event","name":"MemberRegistered","inputs":[{"name":"_member","type":"address","indexed":false,"internalType":"address"},{"name":"_amountStaked","type":"uint256","indexed":false,"internalType":"uint256"}],"anonymous":false},{"type":"event","name":"MemberUnregistered","inputs":[{"name":"_member","type":"address","indexed":false,"internalType":"address"},{"name":"_amountReturned","type":"uint256","indexed":false,"internalType":"uint256"}],"anonymous":false},{"type":"event","name":"OwnershipTransferred","inputs":[{"name":"previousOwner","type":"address","indexed":true,"internalType":"address"},{"name":"newOwner","type":"address","indexed":true,"internalType":"address"}],"anonymous":false},{"type":"event","name":"PoolCreated","inputs":[{"name":"_poolId","type":"uint256","indexed":false,"internalType":"uint256"},{"name":"_strategy","type":"address","indexed":false,"internalType":"address"},{"name":"_community","type":"address","indexed":false,"internalType":"address"},{"name":"_token","type":"address","indexed":false,"internalType":"address"},{"name":"_metadata","type":"tuple","indexed":false,"internalType":"struct Metadata","components":[{"name":"protocol","type":"uint256","internalType":"uint256"},{"name":"pointer","type":"string","internalType":"string"}]}],"anonymous":false},{"type":"event","name":"RegistryInitialized","inputs":[{"name":"_profileId","type":"bytes32","indexed":false,"internalType":"bytes32"},{"name":"_communityName","type":"string","indexed":false,"internalType":"string"},{"name":"_metadata","type":"tuple","indexed":false,"internalType":"struct Metadata","components":[{"name":"protocol","type":"uint256","internalType":"uint256"},{"name":"pointer","type":"string","internalType":"string"}]}],"anonymous":false},{"type":"event","name":"RoleAdminChanged","inputs":[{"name":"role","type":"bytes32","indexed":true,"internalType":"bytes32"},{"name":"previousAdminRole","type":"bytes32","indexed":true,"internalType":"bytes32"},{"name":"newAdminRole","type":"bytes32","indexed":true,"internalType":"bytes32"}],"anonymous":false},{"type":"event","name":"RoleGranted","inputs":[{"name":"role","type":"bytes32","indexed":true,"internalType":"bytes32"},{"name":"account","type":"address","indexed":true,"internalType":"address"},{"name":"sender","type":"address","indexed":true,"internalType":"address"}],"anonymous":false},{"type":"event","name":"RoleRevoked","inputs":[{"name":"role","type":"bytes32","indexed":true,"internalType":"bytes32"},{"name":"account","type":"address","indexed":true,"internalType":"address"},{"name":"sender","type":"address","indexed":true,"internalType":"address"}],"anonymous":false},{"type":"event","name":"StrategyAdded","inputs":[{"name":"_strategy","type":"address","indexed":false,"internalType":"address"}],"anonymous":false},{"type":"event","name":"StrategyRemoved","inputs":[{"name":"_strategy","type":"address","indexed":false,"internalType":"address"}],"anonymous":false},{"type":"event","name":"Upgraded","inputs":[{"name":"implementation","type":"address","indexed":true,"internalType":"address"}],"anonymous":false},{"type":"error","name":"AddressCannotBeZero","inputs":[]},{"type":"error","name":"CallerNotOwner","inputs":[{"name":"_caller","type":"address","internalType":"address"},{"name":"_owner","type":"address","internalType":"address"}]},{"type":"error","name":"CantDecreaseMoreThanPower","inputs":[{"name":"_decreaseAmount","type":"uint256","internalType":"uint256"},{"name":"_currentPower","type":"uint256","internalType":"uint256"}]},{"type":"error","name":"DecreaseUnderMinimum","inputs":[]},{"type":"error","name":"KickNotEnabled","inputs":[]},{"type":"error","name":"NewFeeGreaterThanMax","inputs":[]},{"type":"error","name":"PointsDeactivated","inputs":[]},{"type":"error","name":"RegistryCannotBeZero","inputs":[]},{"type":"error","name":"SenderNotNewOwner","inputs":[]},{"type":"error","name":"SenderNotStrategy","inputs":[]},{"type":"error","name":"StrategyDisabled","inputs":[]},{"type":"error","name":"StrategyExists","inputs":[]},{"type":"error","name":"UserAlreadyActivated","inputs":[]},{"type":"error","name":"UserAlreadyDeactivated","inputs":[]},{"type":"error","name":"UserAlreadyRegistered","inputs":[]},{"type":"error","name":"UserNotGardenOwner","inputs":[]},{"type":"error","name":"UserNotInCouncil","inputs":[{"name":"_user","type":"address","internalType":"address"}]},{"type":"error","name":"UserNotInRegistry","inputs":[]},{"type":"error","name":"ValueCannotBeZero","inputs":[]}],"bytecode":{"object":"0x60a06040523060805234801561001457600080fd5b506080516160a36200004d60003960008181611e4301528181611e8601528181611f8101528181611fc4015261211601526160a36000f3fe608060405260043610620003445760003560e01c806301ffc9a714620003495780630331383c146200038357806308386eba14620003a45780630d12bbdb14620003bc5780630d4a8b4914620003e3578063175188e814620004085780631b71f0e4146200042d5780631f787d281462000452578063223e5479146200046d57806322bcf9991462000492578063248a9ca314620004b757806328c309e914620004dc5780632b38c69c14620004f45780632c611c4a14620005285780632f2ff15d146200056657806331f61bca146200058b5780633396045914620005b05780633419635514620005c85780633517aa7d14620005ed57806336568abe14620006055780633659cfe6146200062a578063397e2543146200064f5780633a871fe11462000674578063477a5cc014620006a95780634f1ef28614620006e9578063524e59e8146200070057806352d1902d1462000743578063559de05d146200075b578063579eb7e514620007805780635c94e4d214620007a55780635ecf71c514620007c857806365e3864c14620007ed5780636871eb4d146200082a57806368decabb146200084f5780636c53db9a1462000872578063715018a6146200089557806373265c3714620008ad578063733a2d1f14620008d257806377122d5614620008f75780637817ee4f146200091a57806378a0b8a914620009655780637b103999146200097d57806382d6a1e714620009a05780638659ffdd14620009c557806388cfe68414620009ea5780638961be6b1462000a605780638da5cb5b1462000a7857806391d148541462000a90578063a0cf0aea1462000ab5578063a217fddf1462000adf578063a230c5241462000af6578063b0d3713a1462000b1b578063b3f006741462000b40578063b5058c501462000b67578063b64e39af1462000b7f578063b99b43701462000ba6578063bc063e1a1462000bbe578063c4d66de81462000bd6578063c6d572ae1462000bfb578063d547741f1462000c13578063d6d8428d1462000c38578063d7050f071462000c5b578063db61d65c1462000c73578063e16d0e321462000c96578063ebd7dc521462000cbb578063f2fde38b1462000ce0578063f86c5f891462000d05578063ffa1ad741462000d28575b600080fd5b3480156200035657600080fd5b506200036e6200036836600462004538565b62000d59565b60405190151581526020015b60405180910390f35b3480156200039057600080fd5b5060fb545b6040519081526020016200037a565b348015620003b157600080fd5b506200039560fe5481565b348015620003c957600080fd5b50620003e1620003db36600462004564565b62000d91565b005b348015620003f057600080fd5b50620003e162000402366004620045a6565b62000e07565b3480156200041557600080fd5b50620003e162000427366004620045e4565b6200118a565b3480156200043a57600080fd5b50620003e16200044c366004620045e4565b620011a2565b3480156200045f57600080fd5b5060ff80546200036e911681565b3480156200047a57600080fd5b50620003e16200048c366004620045e4565b620011cf565b3480156200049f57600080fd5b50620003e1620004b1366004620045a6565b620011e4565b348015620004c457600080fd5b5062000395620004d636600462004564565b620012de565b348015620004e957600080fd5b5062000395620012f3565b3480156200050157600080fd5b50620005196200051336600462004604565b620013f8565b6040516200037a919062004640565b3480156200053557600080fd5b506200039562000547366004620045e4565b6001600160a01b0316600090815261010c602052604090206001015490565b3480156200057357600080fd5b50620003e16200058536600462004654565b62001432565b3480156200059857600080fd5b50620003e1620005aa36600462004564565b62001459565b348015620005bd57600080fd5b506200039560fd5481565b348015620005d557600080fd5b50620003e1620005e736600462004864565b62001499565b348015620005fa57600080fd5b50620003e162001b59565b3480156200061257600080fd5b50620003e16200062436600462004654565b62001dbb565b3480156200063757600080fd5b50620003e162000649366004620045e4565b62001e39565b3480156200065c57600080fd5b50620003e16200066e366004620045e4565b62001f0a565b3480156200068157600080fd5b506200036e62000693366004620045e4565b61010a6020526000908152604090205460ff1681565b348015620006b657600080fd5b506200036e620006c8366004620045a6565b61010e60209081526000928352604080842090915290825290205460ff1681565b620003e1620006fa366004620049f7565b62001f77565b3480156200070d57600080fd5b50620007256200071f36600462004c7b565b62002038565b604080519283526001600160a01b039091166020830152016200037a565b3480156200075057600080fd5b506200039562002109565b3480156200076857600080fd5b50620003e16200077a36600462004564565b620021ba565b3480156200078d57600080fd5b50620007256200079f36600462004e5c565b62002406565b348015620007b257600080fd5b506101025462000519906001600160a01b031681565b348015620007d557600080fd5b50620003e1620007e736600462004564565b6200266e565b348015620007fa57600080fd5b50620003956200080c366004620045a6565b61010b60209081526000928352604080842090915290825290205481565b3480156200083757600080fd5b50620003e162000849366004620045a6565b62002a08565b3480156200085c57600080fd5b506101035462000519906001600160a01b031681565b3480156200087f57600080fd5b506101065462000519906001600160a01b031681565b348015620008a257600080fd5b50620003e162002b5b565b348015620008ba57600080fd5b50620003e1620008cc36600462004564565b62002b71565b348015620008df57600080fd5b506200039560008051602062005fe783398151915281565b3480156200090457600080fd5b506101015462000519906001600160a01b031681565b3480156200092757600080fd5b506200039562000939366004620045a6565b6001600160a01b03918216600090815261010b6020908152604080832093909416825291909152205490565b3480156200097257600080fd5b506200039560fb5481565b3480156200098a57600080fd5b506101045462000519906001600160a01b031681565b348015620009ad57600080fd5b50620003e1620009bf36600462004564565b62002c0d565b348015620009d257600080fd5b5062000725620009e436600462004ed0565b62002ccb565b348015620009f757600080fd5b5062000a3862000a09366004620045e4565b61010c602052600090815260409020805460018201546002909201546001600160a01b03909116919060ff1683565b604080516001600160a01b03909416845260208401929092521515908201526060016200037a565b34801562000a6d57600080fd5b506200039560fc5481565b34801562000a8557600080fd5b506200051962002e58565b34801562000a9d57600080fd5b506200036e62000aaf36600462004654565b62002ef3565b34801562000ac257600080fd5b506200051973eeeeeeeeeeeeeeeeeeeeeeeeeeeeeeeeeeeeeeee81565b34801562000aec57600080fd5b5062000395600081565b34801562000b0357600080fd5b506200036e62000b15366004620045e4565b62002f1e565b34801562000b2857600080fd5b50620003e162000b3a366004620045e4565b62002f68565b34801562000b4d57600080fd5b5060ff54620005199061010090046001600160a01b031681565b34801562000b7457600080fd5b50620003e162002f95565b34801562000b8c57600080fd5b5062000b9762002fcc565b6040516200037a919062004fb7565b34801562000bb357600080fd5b50620003e162003063565b34801562000bcb57600080fd5b50620003956200316d565b34801562000be357600080fd5b50620003e162000bf5366004620045e4565b6200317f565b34801562000c0857600080fd5b5062000b97620031b4565b34801562000c2057600080fd5b50620003e162000c3236600462004654565b620031c4565b34801562000c4557600080fd5b506101075462000519906001600160a01b031681565b34801562000c6857600080fd5b506200039561271081565b34801562000c8057600080fd5b506101055462000519906001600160a01b031681565b34801562000ca357600080fd5b506200072562000cb536600462004fcc565b620031e6565b34801562000cc857600080fd5b506200036e62000cda366004620045e4565b620032a7565b34801562000ced57600080fd5b50620003e162000cff366004620045e4565b620032c4565b34801562000d1257600080fd5b506101005462000519906001600160a01b031681565b34801562000d3557600080fd5b5062000b97604051806040016040528060038152602001620302e360ec1b81525081565b60006001600160e01b03198216637965db0b60e01b148062000d8b57506301ffc9a760e01b6001600160e01b03198316145b92915050565b62000d9b62003335565b62000daa612710600a62005055565b81111562000dcb5760405163fe925f7d60e01b815260040160405180910390fd5b60fc8190556040518181527f611668bfcf654a99c33cdb66c29ec37a5aae5c1287d2d9715a24e18cb4d806d6906020015b60405180910390a150565b62000e1162003372565b62000e1c82620033cd565b62000e2781620033f6565b62000e328162003431565b6001600160a01b03808316600090815261010e602090815260408083209385168352929052205460ff161562000e7b57604051636adcde4b60e11b815260040160405180910390fd5b6001600160a01b03808316600090815261010c602090815260409182902082516060810184528154909416845260018101549184018290526002015460ff1615159183019190915260fb546003846001600160a01b031663c32921716040518163ffffffff1660e01b81526004016020604051808303816000875af115801562000f09573d6000803e3d6000fd5b505050506040513d601f19601f8201168201806040525081019062000f2f919062005085565b600381111562000f435762000f436200506f565b0362000fc85760405163782aadff60e01b81526001600160a01b0385169063782aadff9062000f7a908890600090600401620050a5565b6020604051808303816000875af115801562000f9a573d6000803e3d6000fd5b505050506040513d601f19601f8201168201806040525081019062000fc09190620050be565b9050620010c4565b6000846001600160a01b031663c32921716040518163ffffffff1660e01b81526004016020604051808303816000875af11580156200100b573d6000803e3d6000fd5b505050506040513d601f19601f8201168201806040525081019062001031919062005085565b60038111156200104557620010456200506f565b14620010c45760405163782aadff60e01b81526001600160a01b0385169063782aadff906200107b9088908690600401620050a5565b6020604051808303816000875af11580156200109b573d6000803e3d6000fd5b505050506040513d601f19601f82011682018060405250810190620010c19190620050be565b90505b6001600160a01b03808616600081815261010b6020908152604080832094891680845294825280832086905583835261010e82528083208584528252808320805460ff1916600190811790915593835261010d8252808320805494850181558352912090910180546001600160a01b031916909217909155517ff56fa57e85e169a12200d12d9921ec069b52e688f6d309d9dab7bceff54614ec906200117090879087908590620050d8565b60405180910390a1505050620011866001606555565b5050565b6200119462003335565b6200119f8162003460565b50565b620011ac620034be565b61010280546001600160a01b0319166001600160a01b0392909216919091179055565b620011d962003335565b6200119f8162003521565b620011ef82620033cd565b620011fa8162003431565b620012063382620035b3565b6001600160a01b03808316600090815261010e602090815260408083209385168352929052205460ff166200124e57604051633048da7760e21b815260040160405180910390fd5b6001600160a01b03808316600081815261010e60209081526040808320948616808452948252808320805460ff1916905592825261010b815282822093825292909252812055620012a08282620035e6565b7ede109bef4619f7e2cf00c8e5a50ca55f8deb44f87087eed414a91dbf8d1d1b8282604051620012d2929190620050fc565b60405180910390a15050565b600090815260c9602052604090206001015490565b610100546000906001600160a01b03168162001313612710606462005055565b60fc5460fb5462001325919062005055565b62001331919062005116565b9050600062001344612710606462005055565b6040516302a64b8360e21b81526001600160a01b03851690630a992e0c906200137290309060040162004640565b602060405180830381865afa15801562001390573d6000803e3d6000fd5b505050506040513d601f19601f82011682018060405250810190620013b69190620050be565b60fb54620013c5919062005055565b620013d1919062005116565b9050808260fb54620013e4919062005139565b620013f0919062005139565b935050505090565b61010d60205281600052604060002081815481106200141657600080fd5b6000918252602090912001546001600160a01b03169150829050565b6200143d82620012de565b62001448816200371c565b62001454838362003728565b505050565b6200146362003335565b60fb8190556040518181527f5bcc2c453001fb0e2ba6266d56ecb411e7c6e15c8f9c3d301f93dd36ad25726f9060200162000dfc565b600054610100900460ff1615808015620014ba5750600054600160ff909116105b80620014df5750620014cc30620037b2565b158015620014df575060005460ff166001145b620015485760405162461bcd60e51b815260206004820152602e60248201527f496e697469616c697a61626c653a20636f6e747261637420697320616c72656160448201526d191e481a5b9a5d1a585b1a5e995960921b60648201526084015b60405180910390fd5b6000805460ff1916600117905580156200156c576000805461ff0019166101001790555b62001577826200317f565b62001581620037c1565b6200158b620037f5565b620015a760008051602062005fe783398151915260006200381f565b620015b6856020015162003431565b620015c685610100015162003431565b8451620015d39062003431565b620015e28560a0015162003431565b606085015115620015fc57620015fc8560c0015162003431565b845161010780546001600160a01b039283166001600160a01b03199182161790915560208701516101058054919093169116179055604085015160000362001657576040516363868c5560e11b815260040160405180910390fd5b604085015160fb55606085015160fc5561014085015160ff805460ff191691151591909117905561012085015161010890620016949082620051dd565b5061016085015161010990620016ab9082620051dd565b5060a085015161010080546001600160a01b03199081166001600160a01b0393841617825560c088015160ff8054610100600160a81b0319169185168402919091179055908701516101068054909216928116929092179055620017209060008051602062005fe78339815191529062003728565b61010760009054906101000a90046001600160a01b03166001600160a01b0316635ab1bd536040518163ffffffff1660e01b8152600401602060405180830381865afa15801562001775573d6000803e3d6000fd5b505050506040513d601f19601f820116820180604052508101906200179b9190620052a9565b61010480546001600160a01b0319166001600160a01b0392831617905561010654606091163b60000362001827576040805160038082526080820190925290602082016060803683370190505090503381600081518110620018015762001801620052c9565b60200260200101906001600160a01b031690816001600160a01b03168152505062001964565b610106546040805163a0e67e2b60e01b815290516000926001600160a01b03169163a0e67e2b91600480830192869291908290030181865afa15801562001872573d6000803e3d6000fd5b505050506040513d6000823e601f3d908101601f191682016040526200189c9190810190620052df565b905080516002620018ae919062005139565b6001600160401b03811115620018c857620018c86200467c565b604051908082528060200260200182016040528015620018f2578160200160208202803683370190505b50915060005b81518110156200196157818181518110620019175762001917620052c9565b6020026020010151838281518110620019345762001934620052c9565b6001600160a01b039092166020928302919091019091015280620019588162005378565b915050620018f8565b50505b6101065481516001600160a01b03909116908290620019869060019062005394565b81518110620019995762001999620052c9565b60200260200101906001600160a01b031690816001600160a01b031681525050308160028351620019cb919062005394565b81518110620019de57620019de620052c9565b6001600160a01b03928316602091820292909201015261010454608088015160e0890151604051633a92f65f60e01b81529290931692633a92f65f9262001a319291610108913090889060040162005496565b6020604051808303816000875af115801562001a51573d6000803e3d6000fd5b505050506040513d601f19601f8201168201806040525081019062001a779190620050be565b60fe55805162001a909061010f90602084019062004492565b5061010280546001600160a01b038088166001600160a01b03199283161790925561010180549287169290911691909117905560fe5460e08701516040517f2f2ffcb06f8a1d35e2716f6b43ef2c19bfa76467d8f66964ae12c2583ed032059262001b029290916101089190620054f6565b60405180910390a150801562001b52576000805461ff0019169055604051600181527f7f26b83ff96e1f2b6a682f133852f6798a09c465da95921460cefb38474024989060200160405180910390a15b5050505050565b62001b6362003372565b33600081815261010c602052604081206101005490916001600160a01b039091169062001b94612710606462005055565b60fc5460fb5462001ba6919062005055565b62001bb2919062005116565b9050600062001bc5612710606462005055565b6040516302a64b8360e21b81526001600160a01b03851690630a992e0c9062001bf390309060040162004640565b602060405180830381865afa15801562001c11573d6000803e3d6000fd5b505050506040513d601f19601f8201168201806040525081019062001c379190620050be565b60fb5462001c46919062005055565b62001c52919062005116565b905062001c5f8562002f1e565b62001da95760028401805460ff1916600190811790915560fb5490850181905562001cb99086903090849062001c9790879062005139565b62001ca3919062005139565b610105546001600160a01b031692919062003874565b811562001ce65760ff546101055462001ce6916001600160a01b03918216916101009091041684620038d0565b801562001d6b5762001d6b836001600160a01b031663987435be6040518163ffffffff1660e01b8152600401602060405180830381865afa15801562001d30573d6000803e3d6000fd5b505050506040513d601f19601f8201168201806040525081019062001d569190620052a9565b610105546001600160a01b03169083620038d0565b7f67e0244e28040fec15240cd4b6c04c776a2a0278caef23b59e8ada1df31f76898560fb5460405162001da0929190620050a5565b60405180910390a15b505050505062001db96001606555565b565b6001600160a01b038116331462001e2d5760405162461bcd60e51b815260206004820152602f60248201527f416363657373436f6e74726f6c3a2063616e206f6e6c792072656e6f756e636560448201526e103937b632b9903337b91039b2b63360891b60648201526084016200153f565b620011868282620038f2565b6001600160a01b037f000000000000000000000000000000000000000000000000000000000000000016300362001e845760405162461bcd60e51b81526004016200153f9062005525565b7f00000000000000000000000000000000000000000000000000000000000000006001600160a01b031662001eb86200395c565b6001600160a01b03161462001ee15760405162461bcd60e51b81526004016200153f9062005560565b62001eec8162003979565b604080516000808252602082019092526200119f91839190620039bb565b62001f1462003335565b62001f1f8162003431565b61010380546001600160a01b0319166001600160a01b03838116918217909255610106546040517f83eac9fdaff0ac1017624b7eddeb9782e3d707cd894073cb7e8301a41c6e5cf89362000dfc9392169190620050fc565b6001600160a01b037f000000000000000000000000000000000000000000000000000000000000000016300362001fc25760405162461bcd60e51b81526004016200153f9062005525565b7f00000000000000000000000000000000000000000000000000000000000000006001600160a01b031662001ff66200395c565b6001600160a01b0316146200201f5760405162461bcd60e51b81526004016200153f9062005560565b6200202a8262003979565b6200118682826001620039bb565b610102546101075461010154600092839283926001600160a01b039283169263184b955960e01b92811691166200206e62002e58565b60405160240162002082939291906200559b565b60408051601f198184030181529181526020820180516001600160e01b03166001600160e01b0319909416939093179092529051620020c190620044f8565b620020ce929190620055be565b604051809103906000f080158015620020eb573d6000803e3d6000fd5b509050620020fc81878787620031e6565b9250925050935093915050565b6000306001600160a01b037f00000000000000000000000000000000000000000000000000000000000000001614620021a65760405162461bcd60e51b815260206004820152603860248201527f555550535570677261646561626c653a206d757374206e6f742062652063616c6044820152771b1959081d1a1c9bdd59da0819195b1959d85d1958d85b1b60421b60648201526084016200153f565b506000805160206200602783398151915290565b620021c462003372565b620021ce62003b33565b33600081815261010d60209081526040808320805482518185028101850190935280835291929091908301828280156200223257602002820191906000526020600020905b81546001600160a01b0316815260019091019060200180831162002213575b50505050509050600080600090505b82518110156200236d57828181518110620022605762002260620052c9565b60200260200101516001600160a01b031663782aadff85876040518363ffffffff1660e01b815260040162002297929190620050a5565b6020604051808303816000875af1158015620022b7573d6000803e3d6000fd5b505050506040513d601f19601f82011682018060405250810190620022dd9190620050be565b9150811562002358576001600160a01b038416600090815261010b602052604081208451849290869085908110620023195762002319620052c9565b60200260200101516001600160a01b03166001600160a01b03168152602001908152602001600020600082825462002352919062005139565b90915550505b80620023648162005378565b91505062002241565b506101055462002389906001600160a01b031684308762003874565b6001600160a01b038316600090815261010c602052604081206001018054869290620023b790849062005139565b90915550506040517f576605f9bfe8911e7508bed3763c7c5c8eb3b86e8b360b90a4bc6abe1104cb7f90620023f09085908790620050a5565b60405180910390a15050506200119f6001606555565b610102546101075461010154600092839283926001600160a01b039283169263184b955960e01b92811691166200243c62002e58565b60405160240162002450939291906200559b565b60408051601f198184030181529181526020820180516001600160e01b03166001600160e01b03199094169390931790925290516200248f90620044f8565b6200249c929190620055be565b604051809103906000f080158015620024b9573d6000803e3d6000fd5b509050620024ca8187878762002ccb565b60c087015191945092506001600160a01b0316620025d5576103e88560e00151511115620025535760405162461bcd60e51b815260206004820152602f60248201527f546f6f206d616e7920696e697469616c20616c6c6f776c697374206d656d626560448201526e072732c206d6178206973203130303608c1b60648201526084016200153f565b600083604051602001620025689190620055e4565b60405160208183030381529060405280519060200120905060005b8660e0015151811015620025d257620025bd828860e001518381518110620025af57620025af620052c9565b602002602001015162003728565b80620025c98162005378565b91505062002583565b50505b6200263183604051602001620025ec9190620055e4565b604051602081830303815290604052805190602001208460405160200162002615919062005601565b604051602081830303815290604052805190602001206200381f565b620026658360405160200162002648919062005601565b604051602081830303815290604052805190602001208362003728565b50935093915050565b6200267862003372565b6200268262003b33565b33600081815261010d6020908152604080832060fb5461010c9093529083206001015490929190620026b690869062005394565b1015620026d657604051634e23e81760e11b815260040160405180910390fd5b61010554620026f0906001600160a01b03168486620038d0565b60005b8254811015620029a0576000838281548110620027145762002714620052c9565b6000918252602090912001546001600160a01b031690506200273e8163f1801e6160e01b62003b5c565b15620028c457604051632ed04b2b60e01b81526001600160a01b03821690632ed04b2b90620027749088908a90600401620050a5565b6020604051808303816000875af115801562002794573d6000803e3d6000fd5b505050506040513d601f19601f82011682018060405250810190620027ba9190620050be565b9250600061010b6000876001600160a01b03166001600160a01b031681526020019081526020016000206000868581548110620027fb57620027fb620052c9565b60009182526020808320909101546001600160a01b031683528201929092526040019020549050808411156200284f576040516311423e6360e31b815260048101859052602481018290526044016200153f565b6001600160a01b038616600090815261010b602052604081208654869290889087908110620028825762002882620052c9565b60009182526020808320909101546001600160a01b0316835282019290925260400181208054909190620028b890849062005394565b9091555050506200298a565b83548490620028d69060019062005394565b81548110620028e957620028e9620052c9565b9060005260206000200160009054906101000a90046001600160a01b03168483815481106200291c576200291c620052c9565b9060005260206000200160006101000a8154816001600160a01b0302191690836001600160a01b03160217905550838054806200295d576200295d62005624565b600082815260209020810160001990810180546001600160a01b03191690550190556200298a8162003460565b5080620029978162005378565b915050620026f3565b506001600160a01b038316600090815261010c602052604081206001018054869290620029cf90849062005394565b90915550506040517f6ee2c70b2d6b89ae808a2313aab43e925c06624271419cd665d85cfa1ae04ff890620023f09085908790620050a5565b62002a1262003372565b62002a1c62003335565b60ff80541662002a3f576040516365b1ee3960e11b815260040160405180910390fd5b62002a4a8262002f1e565b62002a6857604051636a5cfb6d60e01b815260040160405180910390fd5b6001600160a01b03808316600090815261010c60209081526040918290208251606081018452815490941684526001810154918401919091526002015460ff1615159082015262002ab98362003b84565b6001600160a01b03808416600090815261010c60209081526040822080546001600160a01b031916815560018101929092556002909101805460ff191690558201516101055462002b0e9216908490620038d0565b7fb5946f249f8744efe9d14d49a483b54a589b1362944ff6694de93456cceb96a38383836020015160405162002b4793929190620050d8565b60405180910390a150620011866001606555565b62002b65620034be565b62001db9600062003c99565b62002b7b62003335565b6101075460405163068bcd8d60e01b8152600481018390526000916001600160a01b03169063068bcd8d90602401600060405180830381865afa15801562002bc7573d6000803e3d6000fd5b505050506040513d6000823e601f3d908101601f1916820160405262002bf191908101906200563a565b60200151905062002c028162003431565b620011868162003460565b62002c1762003335565b6101075460405163068bcd8d60e01b8152600481018390526000916001600160a01b03169063068bcd8d90602401600060405180830381865afa15801562002c63573d6000803e3d6000fd5b505050506040513d6000823e601f3d908101601f1916820160405262002c8d91908101906200563a565b60200151905062002c9e8162003431565b62002cba6001600160a01b03821663f1801e6160e01b62003b5c565b156200118657620011868162003521565b60008073eeeeeeeeeeeeeeeeeeeeeeeeeeeeeeeeeeeeeeee6001600160a01b0386161562002cf65750845b869150600061010f80548060200260200160405190810160405280929190818152602001828054801562002d5457602002820191906000526020600020905b81546001600160a01b0316815260019091019060200180831162002d35575b50506101075460fe546040519596506001600160a01b039091169463e1007d4a945090925087915062002d8c908b9060200162005805565b6040516020818303038152906040528660008b886040518863ffffffff1660e01b815260040162002dc49796959493929190620058ae565b6020604051808303816000875af115801562002de4573d6000803e3d6000fd5b505050506040513d601f19601f8201168201806040525081019062002e0a9190620050be565b93507f778cac0ae0b66477341553a4a89398c61ccf448313d3354ad0ca85a5a825d2838484308a8960405162002e459594939291906200591f565b60405180910390a1505094509492505050565b60008062002e6e6033546001600160a01b031690565b9050806001600160a01b03163b60000362002e8857919050565b806001600160a01b0316638da5cb5b6040518163ffffffff1660e01b8152600401602060405180830381865afa92505050801562002ee5575060408051601f3d908101601f1916820190925262002ee291810190620052a9565b60015b62000d8b57919050565b5090565b600091825260c9602090815260408084206001600160a01b0393909316845291905290205460ff1690565b6001600160a01b03908116600090815261010c60209081526040918290208251606081018452815490941684526001810154918401919091526002015460ff161515910181905290565b62002f72620034be565b61010180546001600160a01b0319166001600160a01b0392909216919091179055565b610103546001600160a01b0316331462002fc2576040516375e686b760e11b815260040160405180910390fd5b62001db962003ceb565b610109805462002fdc906200514f565b80601f01602080910402602001604051908101604052809291908181526020018280546200300a906200514f565b80156200305b5780601f106200302f576101008083540402835291602001916200305b565b820191906000526020600020905b8154815290600101906020018083116200303d57829003601f168201915b505050505081565b6200306d62003372565b336200307981620033cd565b620030848162003b84565b6001600160a01b03808216600081815261010c602090815260408083208151606081018352815496871681526001820180548286015260028301805460ff81161515848701529787526001600160a01b03199098169092559084905560ff1990941690945561010d90529182209091620030ff919062004506565b60208101516101055462003121916001600160a01b03909116908490620038d0565b7fa13f4668aacb68c4e9eed8e3f6e1cbec3eca776896ec46b5eabcc3983fc8f5f482826020015160405162003158929190620050a5565b60405180910390a1505062001db96001606555565b6200317c612710600a62005055565b81565b600054610100900460ff16620031a95760405162461bcd60e51b81526004016200153f906200595b565b6200119f8162003c99565b610108805462002fdc906200514f565b620031cf82620012de565b620031da816200371c565b620014548383620038f2565b60008073eeeeeeeeeeeeeeeeeeeeeeeeeeeeeeeeeeeeeeee6001600160a01b03861615620032115750845b869150600061010f8054806020026020016040519081016040528092919081815260200182805480156200326f57602002820191906000526020600020905b81546001600160a01b0316815260019091019060200180831162003250575b50506101075460fe546040519596506001600160a01b039091169463e1007d4a945090925087915062002d8c908b90602001620059a6565b600062000d8b60008051602062005fe78339815191528362002ef3565b620032ce620034be565b6001600160a01b038116620031a95760405162461bcd60e51b815260206004820152602660248201527f4f776e61626c653a206e6577206f776e657220697320746865207a65726f206160448201526564647265737360d01b60648201526084016200153f565b6200335060008051602062005fe78339815191523362002ef3565b62001db9573360405163fc4be72f60e01b81526004016200153f919062004640565b600260655403620033c65760405162461bcd60e51b815260206004820152601f60248201527f5265656e7472616e637947756172643a207265656e7472616e742063616c6c0060448201526064016200153f565b6002606555565b620033d88162002f1e565b6200119f57604051636a5cfb6d60e01b815260040160405180910390fd5b6001600160a01b038116600090815261010a602052604090205460ff166200119f576040516346c26e4b60e01b815260040160405180910390fd5b6001600160a01b0381166200119f576040516303988b8160e61b815260040160405180910390fd5b6001606555565b6200346b8162003431565b6001600160a01b038116600090815261010a602052604090819020805460ff19169055517f09a1db4b80c32706328728508c941a6b954f31eb5affd32f236c1fd405f8fea49062000dfc90839062004640565b33620034c962002e58565b6001600160a01b03161462001db95760405162461bcd60e51b815260206004820181905260248201527f4f776e61626c653a2063616c6c6572206973206e6f7420746865206f776e657260448201526064016200153f565b6001600160a01b038116600090815261010a602052604090205460ff16156200355d576040516325a2934b60e21b815260040160405180910390fd5b6001600160a01b038116600090815261010a602052604090819020805460ff19166001179055517f3f008fd510eae7a9e7bee13513d7b83bef8003d488b5a3d0b0da4de71d6846f19062000dfc90839062004640565b806001600160a01b0316826001600160a01b031614620011865760405163bbe7961160e01b815260040160405180910390fd5b6001600160a01b038216600090815261010d60205260408120905b81548110156200371657826001600160a01b03168282815481106200362a576200362a620052c9565b6000918252602090912001546001600160a01b031603620037015781548290620036579060019062005394565b815481106200366a576200366a620052c9565b9060005260206000200160009054906101000a90046001600160a01b03168282815481106200369d576200369d620052c9565b9060005260206000200160006101000a8154816001600160a01b0302191690836001600160a01b0316021790555081805480620036de57620036de62005624565b600082815260209020810160001990810180546001600160a01b03191690550190555b806200370d8162005378565b91505062003601565b50505050565b6200119f813362003d4f565b62003734828262002ef3565b6200118657600082815260c9602090815260408083206001600160a01b03851684529091529020805460ff191660011790556200376e3390565b6001600160a01b0316816001600160a01b0316837f2f8788117e7eff1d82e926ec794901d17c78024a50270940304540a733656f0d60405160405180910390a45050565b6001600160a01b03163b151590565b600054610100900460ff16620037eb5760405162461bcd60e51b81526004016200153f906200595b565b62001db962003db3565b600054610100900460ff1662001db95760405162461bcd60e51b81526004016200153f906200595b565b60006200382c83620012de565b600084815260c96020526040808220600101859055519192508391839186917fbd79b86ffe0ab8e8776151514217cd7cacd52c909f66475c3af44e129f0b00ff9190a4505050565b62003716846323b872dd60e01b8585856040516024016200389893929190620050d8565b60408051601f198184030181529190526020810180516001600160e01b03166001600160e01b03199093169290921790915262003ddd565b620014548363a9059cbb60e01b848460405160240162003898929190620050a5565b620038fe828262002ef3565b156200118657600082815260c9602090815260408083206001600160a01b0385168085529252808320805460ff1916905551339285917ff6391f5c32d9c69d2a47ea670b442974b53935d1edc7fd64eb21e047a839171b9190a45050565b60008051602062006027833981519152546001600160a01b031690565b336200398462002e58565b6001600160a01b0316146200119f57336200399e62002e58565b60405163163678e960e01b81526004016200153f929190620050fc565b7f4910fdfa16fed3260ed0e7147f7cc6da11a60208b5b9406d12a635614ffd91435460ff1615620039f157620014548362003eb9565b826001600160a01b03166352d1902d6040518163ffffffff1660e01b8152600401602060405180830381865afa92505050801562003a4e575060408051601f3d908101601f1916820190925262003a4b91810190620050be565b60015b62003ab35760405162461bcd60e51b815260206004820152602e60248201527f45524331393637557067726164653a206e657720696d706c656d656e7461746960448201526d6f6e206973206e6f74205555505360901b60648201526084016200153f565b60008051602062006027833981519152811462003b255760405162461bcd60e51b815260206004820152602960248201527f45524331393637557067726164653a20756e737570706f727465642070726f786044820152681a58589b195555525160ba1b60648201526084016200153f565b506200145483838362003f58565b62003b3e3362002f1e565b62001db957604051636a5cfb6d60e01b815260040160405180910390fd5b600062003b698362003f83565b801562003b7d575062003b7d838362003fbb565b9392505050565b6001600160a01b038116600090815261010d602090815260408083208054825181850281018501909352808352919290919083018282801562003bf157602002820191906000526020600020905b81546001600160a01b0316815260019091019060200180831162003bd2575b5050505050905060005b8151811015620014545781818151811062003c1a5762003c1a620052c9565b60200260200101516001600160a01b0316636453d9c4846040518263ffffffff1660e01b815260040162003c4f919062004640565b600060405180830381600087803b15801562003c6a57600080fd5b505af115801562003c7f573d6000803e3d6000fd5b50505050808062003c909062005378565b91505062003bfb565b603380546001600160a01b038381166001600160a01b0319831681179093556040519116919082907f8be0079c531659141344cd1fd0a4f28419497f9722a3daafe3b4186f6b6457e090600090a35050565b610103805461010680546001600160a01b03199081166001600160a01b038416179091551690556040517fad0399dc40331b9a4977aa89da7a164a3fd482c65e6da73b25a94ea74fb688729062003d459060009062004640565b60405180910390a1565b62003d5b828262002ef3565b620011865762003d6b8162004046565b62003d7883602062004059565b60405160200162003d8b92919062005a2f565b60408051601f198184030181529082905262461bcd60e51b82526200153f9160040162004fb7565b600054610100900460ff16620034595760405162461bcd60e51b81526004016200153f906200595b565b600062003e34826040518060400160405280602081526020017f5361666545524332303a206c6f772d6c6576656c2063616c6c206661696c6564815250856001600160a01b0316620042129092919063ffffffff16565b905080516000148062003e5857508080602001905181019062003e58919062005aa2565b620014545760405162461bcd60e51b815260206004820152602a60248201527f5361666545524332303a204552433230206f7065726174696f6e20646964206e6044820152691bdd081cdd58d8d9595960b21b60648201526084016200153f565b62003ec481620037b2565b62003f285760405162461bcd60e51b815260206004820152602d60248201527f455243313936373a206e657720696d706c656d656e746174696f6e206973206e60448201526c1bdd08184818dbdb9d1c9858dd609a1b60648201526084016200153f565b6000805160206200602783398151915280546001600160a01b0319166001600160a01b0392909216919091179055565b62003f63836200422b565b60008251118062003f715750805b1562001454576200371683836200426d565b600062003f98826301ffc9a760e01b62003fbb565b801562000d8b575062003fb4826001600160e01b031962003fbb565b1592915050565b604080516001600160e01b03198316602480830191909152825180830390910181526044909101909152602080820180516001600160e01b03166301ffc9a760e01b178152825160009392849283928392918391908a617530fa92503d915060005190508280156200402e575060208210155b80156200403b5750600081115b979650505050505050565b606062000d8b6001600160a01b03831660145b606060006200406a83600262005055565b6200407790600262005139565b6001600160401b038111156200409157620040916200467c565b6040519080825280601f01601f191660200182016040528015620040bc576020820181803683370190505b509050600360fc1b81600081518110620040da57620040da620052c9565b60200101906001600160f81b031916908160001a905350600f60fb1b816001815181106200410c576200410c620052c9565b60200101906001600160f81b031916908160001a90535060006200413284600262005055565b6200413f90600162005139565b90505b6001811115620041c1576f181899199a1a9b1b9c1cb0b131b232b360811b85600f1660108110620041775762004177620052c9565b1a60f81b828281518110620041905762004190620052c9565b60200101906001600160f81b031916908160001a90535060049490941c93620041b98162005ac2565b905062004142565b50831562003b7d5760405162461bcd60e51b815260206004820181905260248201527f537472696e67733a20686578206c656e67746820696e73756666696369656e7460448201526064016200153f565b606062004223848460008562004295565b949350505050565b620042368162003eb9565b6040516001600160a01b038216907fbc7cd75a20ee27fd9adebab32041f755214dbc6bffa90cc0225b39da2e5c2d3b90600090a250565b606062003b7d838360405180606001604052806027815260200162006047602791396200436d565b606082471015620042f85760405162461bcd60e51b815260206004820152602660248201527f416464726573733a20696e73756666696369656e742062616c616e636520666f6044820152651c8818d85b1b60d21b60648201526084016200153f565b600080866001600160a01b0316858760405162004316919062005adc565b60006040518083038185875af1925050503d806000811462004355576040519150601f19603f3d011682016040523d82523d6000602084013e6200435a565b606091505b50915091506200403b87838387620043eb565b6060600080856001600160a01b0316856040516200438c919062005adc565b600060405180830381855af49150503d8060008114620043c9576040519150601f19603f3d011682016040523d82523d6000602084013e620043ce565b606091505b5091509150620043e186838387620043eb565b9695505050505050565b606083156200445f57825160000362004457576200440985620037b2565b620044575760405162461bcd60e51b815260206004820152601d60248201527f416464726573733a2063616c6c20746f206e6f6e2d636f6e747261637400000060448201526064016200153f565b508162004223565b620042238383815115620044765781518083602001fd5b8060405162461bcd60e51b81526004016200153f919062004fb7565b828054828255906000526020600020908101928215620044ea579160200282015b82811115620044ea57825182546001600160a01b0319166001600160a01b03909116178255602090920191600190910190620044b3565b5062002eef92915062004521565b6104ec8062005afb83390190565b50805460008255906000526020600020908101906200119f91905b5b8082111562002eef576000815560010162004522565b6000602082840312156200454b57600080fd5b81356001600160e01b03198116811462003b7d57600080fd5b6000602082840312156200457757600080fd5b5035919050565b6001600160a01b03811681146200119f57600080fd5b8035620045a1816200457e565b919050565b60008060408385031215620045ba57600080fd5b8235620045c7816200457e565b91506020830135620045d9816200457e565b809150509250929050565b600060208284031215620045f757600080fd5b813562003b7d816200457e565b600080604083850312156200461857600080fd5b823562004625816200457e565b946020939093013593505050565b6001600160a01b03169052565b6001600160a01b0391909116815260200190565b600080604083850312156200466857600080fd5b823591506020830135620045d9816200457e565b634e487b7160e01b600052604160045260246000fd5b604080519081016001600160401b0381118282101715620046b757620046b76200467c565b60405290565b60405161018081016001600160401b0381118282101715620046b757620046b76200467c565b60405160c081016001600160401b0381118282101715620046b757620046b76200467c565b60405161010081016001600160401b0381118282101715620046b757620046b76200467c565b604051601f8201601f191681016001600160401b03811182821017156200475957620047596200467c565b604052919050565b60006001600160401b038211156200477d576200477d6200467c565b50601f01601f191660200190565b6000620047a26200479c8462004761565b6200472e565b9050828152838383011115620047b757600080fd5b828260208301376000602084830101529392505050565b600082601f830112620047e057600080fd5b62003b7d838335602085016200478b565b6000604082840312156200480457600080fd5b6200480e62004692565b82358152905060208201356001600160401b038111156200482e57600080fd5b6200483c84828501620047ce565b60208301525092915050565b80151581146200119f57600080fd5b8035620045a18162004848565b600080600080608085870312156200487b57600080fd5b84356001600160401b03808211156200489357600080fd5b908601906101808289031215620048a957600080fd5b620048b3620046bd565b620048be8362004594565b8152620048ce6020840162004594565b6020820152604083013560408201526060830135606082015260808301356080820152620048ff60a0840162004594565b60a08201526200491260c0840162004594565b60c082015260e0830135828111156200492a57600080fd5b620049388a828601620047f1565b60e0830152506101006200494e81850162004594565b9082015261012083810135838111156200496757600080fd5b620049758b828701620047ce565b8284015250506101406200498b81850162004857565b908201526101608381013583811115620049a457600080fd5b620049b28b828701620047ce565b828401525050809650505050620049cc6020860162004594565b9250620049dc6040860162004594565b9150620049ec6060860162004594565b905092959194509250565b6000806040838503121562004a0b57600080fd5b823562004a18816200457e565b915060208301356001600160401b0381111562004a3457600080fd5b8301601f8101851362004a4657600080fd5b62004a57858235602084016200478b565b9150509250929050565b60006080828403121562004a7457600080fd5b604051608081016001600160401b038111828210171562004a995762004a996200467c565b8060405250809150823581526020830135602082015260408301356040820152606083013560608201525092915050565b803560038110620045a157600080fd5b600481106200119f57600080fd5b8035620045a18162004ada565b60006020828403121562004b0857600080fd5b604051602081016001600160401b038111828210171562004b2d5762004b2d6200467c565b6040529135825250919050565b600060c0828403121562004b4d57600080fd5b62004b57620046e3565b9050813562004b66816200457e565b8152602082013562004b78816200457e565b8060208301525060408201356040820152606082013560608201526080820135608082015260a082013560a082015292915050565b60006101e0828403121562004bc157600080fd5b60405160e081016001600160401b038111828210171562004be65762004be66200467c565b60405290508062004bf8848462004a61565b815262004c086080840162004aca565b602082015260a083013562004c1d8162004ada565b604082015262004c318460c0850162004af5565b606082015262004c458460e0850162004b3a565b60808201526101a083013562004c5b816200457e565b60a082015262004c6f6101c0840162004594565b60c08201525092915050565b6000806000610220848603121562004c9257600080fd5b833562004c9f816200457e565b925062004cb0856020860162004bad565b91506102008401356001600160401b0381111562004ccd57600080fd5b62004cdb86828701620047f1565b9150509250925092565b60006001600160401b0382111562004d015762004d016200467c565b5060051b60200190565b600082601f83011262004d1d57600080fd5b8135602062004d306200479c8362004ce5565b82815260059290921b8401810191818101908684111562004d5057600080fd5b8286015b8481101562004d7857803562004d6a816200457e565b835291830191830162004d54565b509695505050505050565b6000610200828403121562004d9757600080fd5b62004da162004708565b905062004daf838362004a61565b815262004dbf6080830162004aca565b602082015262004dd260a0830162004ae8565b604082015262004de68360c0840162004af5565b606082015262004dfa8360e0840162004b3a565b608082015262004e0e6101a0830162004594565b60a082015262004e226101c0830162004594565b60c08201526101e08201356001600160401b0381111562004e4257600080fd5b62004e508482850162004d0b565b60e08301525092915050565b60008060006060848603121562004e7257600080fd5b833562004e7f816200457e565b925060208401356001600160401b038082111562004e9c57600080fd5b62004eaa8783880162004d83565b9350604086013591508082111562004ec157600080fd5b5062004cdb86828701620047f1565b6000806000806080858703121562004ee757600080fd5b843562004ef4816200457e565b9350602085013562004f06816200457e565b925060408501356001600160401b038082111562004f2357600080fd5b62004f318883890162004d83565b9350606087013591508082111562004f4857600080fd5b5062004f5787828801620047f1565b91505092959194509250565b60005b8381101562004f8057818101518382015260200162004f66565b50506000910152565b6000815180845262004fa381602086016020860162004f63565b601f01601f19169290920160200192915050565b60208152600062003b7d602083018462004f89565b600080600080610240858703121562004fe457600080fd5b843562004ff1816200457e565b9350602085013562005003816200457e565b925062005014866040870162004bad565b91506102208501356001600160401b038111156200503157600080fd5b62004f5787828801620047f1565b634e487b7160e01b600052601160045260246000fd5b808202811582820484141762000d8b5762000d8b6200503f565b634e487b7160e01b600052602160045260246000fd5b6000602082840312156200509857600080fd5b815162003b7d8162004ada565b6001600160a01b03929092168252602082015260400190565b600060208284031215620050d157600080fd5b5051919050565b6001600160a01b039384168152919092166020820152604081019190915260600190565b6001600160a01b0392831681529116602082015260400190565b6000826200513457634e487b7160e01b600052601260045260246000fd5b500490565b8082018082111562000d8b5762000d8b6200503f565b600181811c908216806200516457607f821691505b6020821081036200518557634e487b7160e01b600052602260045260246000fd5b50919050565b601f8211156200145457600081815260208120601f850160051c81016020861015620051b45750805b601f850160051c820191505b81811015620051d557828155600101620051c0565b505050505050565b81516001600160401b03811115620051f957620051f96200467c565b62005211816200520a84546200514f565b846200518b565b602080601f831160018114620052495760008415620052305750858301515b600019600386901b1c1916600185901b178555620051d5565b600085815260208120601f198616915b828110156200527a5788860151825594840194600190910190840162005259565b5085821015620052995787850151600019600388901b60f8161c191681555b5050505050600190811b01905550565b600060208284031215620052bc57600080fd5b815162003b7d816200457e565b634e487b7160e01b600052603260045260246000fd5b60006020808385031215620052f357600080fd5b82516001600160401b038111156200530a57600080fd5b8301601f810185136200531c57600080fd5b80516200532d6200479c8262004ce5565b81815260059190911b820183019083810190878311156200534d57600080fd5b928401925b828410156200403b57835162005368816200457e565b8252928401929084019062005352565b6000600182016200538d576200538d6200503f565b5060010190565b8181038181111562000d8b5762000d8b6200503f565b60008154620053b9816200514f565b808552602060018381168015620053d95760018114620053f45762005424565b60ff1985168884015283151560051b88018301955062005424565b866000528260002060005b858110156200541c5781548a8201860152908301908401620053ff565b890184019650505b505050505092915050565b80518252600060208201516040602085015262004223604085018262004f89565b600081518084526020808501945080840160005b838110156200548b5781516001600160a01b03168752958201959082019060010162005464565b509495945050505050565b85815260a060208201526000620054b160a0830187620053aa565b8281036040840152620054c581876200542f565b6001600160a01b038616606085015283810360808501529050620054ea818562005450565b98975050505050505050565b838152606060208201526000620055116060830185620053aa565b8281036040840152620043e181856200542f565b6020808252602c908201526000805160206200600783398151915260408201526b19195b1959d85d1958d85b1b60a21b606082015260800190565b6020808252602c908201526000805160206200600783398151915260408201526b6163746976652070726f787960a01b606082015260800190565b6001600160a01b0393841681529183166020830152909116604082015260600190565b6001600160a01b0383168152604060208201819052600090620042239083018462004f89565b6810531313d5d31254d560ba1b8152600981019190915260290190565b6e20a62627aba624a9aa2fa0a226a4a760891b8152600f810191909152602f0190565b634e487b7160e01b600052603160045260246000fd5b600060208083850312156200564e57600080fd5b82516001600160401b03808211156200566657600080fd5b9084019060c082870312156200567b57600080fd5b62005685620046e3565b825181528383015162005698816200457e565b818501526040830151620056ac816200457e565b6040820152606083015182811115620056c457600080fd5b830160408189031215620056d757600080fd5b620056e162004692565b815181528582015184811115620056f757600080fd5b82019350601f840189136200570b57600080fd5b835191506200571e6200479c8362004761565b82815289878487010111156200573357600080fd5b620057448388830189880162004f63565b95810195909552506060810193909352506080818101519083015260a090810151908201529392505050565b805182526020810151602083015260408101516040830152606081015160608301525050565b60038110620057a957620057a96200506f565b9052565b60048110620057a957620057a96200506f565b80516001600160a01b0390811683526020808301519091169083015260408082015190830152606080820151908301526080808201519083015260a090810151910152565b602081526200581960208201835162005770565b600060208301516200582f60a084018262005796565b5060408301516200584460c0840182620057ad565b5060608301515160e0830152608083015162005865610100840182620057c0565b5060a08301516200587b6101c084018262004633565b5060c0830151620058916101e084018262004633565b5060e0830151610200838101526200422361022084018262005450565b878152600060018060a01b03808916602084015260e06040840152620058d860e084018962004f89565b818816606085015286608085015283810360a0850152620058fa81876200542f565b91505082810360c084015262005911818562005450565b9a9950505050505050505050565b8581526001600160a01b03858116602083015284811660408301528316606082015260a0608082018190526000906200403b908301846200542f565b6020808252602b908201527f496e697469616c697a61626c653a20636f6e7472616374206973206e6f74206960408201526a6e697469616c697a696e6760a81b606082015260800190565b60006101e082019050620059bc82845162005770565b6020830151620059d0608084018262005796565b506040830151620059e560a0840182620057ad565b5060608301515160c0830152608083015162005a0560e0840182620057c0565b5060a08301516001600160a01b039081166101a084015260c0909301519092166101c09091015290565b76020b1b1b2b9b9a1b7b73a3937b61d1030b1b1b7bab73a1604d1b81526000835162005a6381601785016020880162004f63565b7001034b99036b4b9b9b4b733903937b6329607d1b601791840191820152835162005a9681602884016020880162004f63565b01602801949350505050565b60006020828403121562005ab557600080fd5b815162003b7d8162004848565b60008162005ad45762005ad46200503f565b506000190190565b6000825162005af081846020870162004f63565b919091019291505056fe60806040526040516104ec3803806104ec833981016040819052610022916102e9565b61002e82826000610035565b5050610406565b61003e83610061565b60008251118061004b5750805b1561005c5761005a83836100a1565b505b505050565b61006a816100cd565b6040516001600160a01b038216907fbc7cd75a20ee27fd9adebab32041f755214dbc6bffa90cc0225b39da2e5c2d3b90600090a250565b60606100c683836040518060600160405280602781526020016104c56027913961017e565b9392505050565b6100d6816101f7565b61013d5760405162461bcd60e51b815260206004820152602d60248201527f455243313936373a206e657720696d706c656d656e746174696f6e206973206e60448201526c1bdd08184818dbdb9d1c9858dd609a1b60648201526084015b60405180910390fd5b7f360894a13ba1a3210667c828492db98dca3e2076cc3735a920a3ca505d382bbc80546001600160a01b0319166001600160a01b0392909216919091179055565b6060600080856001600160a01b03168560405161019b91906103b7565b600060405180830381855af49150503d80600081146101d6576040519150601f19603f3d011682016040523d82523d6000602084013e6101db565b606091505b5090925090506101ed86838387610206565b9695505050505050565b6001600160a01b03163b151590565b6060831561027357825160000361026c57610220856101f7565b61026c5760405162461bcd60e51b815260206004820152601d60248201527f416464726573733a2063616c6c20746f206e6f6e2d636f6e74726163740000006044820152606401610134565b508161027d565b61027d8383610285565b949350505050565b8151156102955781518083602001fd5b8060405162461bcd60e51b815260040161013491906103d3565b634e487b7160e01b600052604160045260246000fd5b60005b838110156102e05781810151838201526020016102c8565b50506000910152565b600080604083850312156102fc57600080fd5b82516001600160a01b038116811461031357600080fd5b60208401519092506001600160401b038082111561033057600080fd5b818501915085601f83011261034457600080fd5b815181811115610356576103566102af565b604051601f8201601f19908116603f0116810190838211818310171561037e5761037e6102af565b8160405282815288602084870101111561039757600080fd5b6103a88360208301602088016102c5565b80955050505050509250929050565b600082516103c98184602087016102c5565b9190910192915050565b60208152600082518060208401526103f28160408501602087016102c5565b601f01601f19169190910160400192915050565b60b1806104146000396000f3fe608060405236601057600e6013565b005b600e5b601f601b6021565b6058565b565b600060537f360894a13ba1a3210667c828492db98dca3e2076cc3735a920a3ca505d382bbc546001600160a01b031690565b905090565b3660008037600080366000845af43d6000803e8080156076573d6000f35b3d6000fdfea264697066735822122098266f2c570f2cad5b5e8d468182059be1bbc8c8f9806415c11d13f6061ac93364736f6c63430008130033416464726573733a206c6f772d6c6576656c2064656c65676174652063616c6c206661696c656403be538b6391ddcd7f2649585cc95b120c9e2a613f70714fbb55345057d809fa46756e6374696f6e206d7573742062652063616c6c6564207468726f75676820360894a13ba1a3210667c828492db98dca3e2076cc3735a920a3ca505d382bbc416464726573733a206c6f772d6c6576656c2064656c65676174652063616c6c206661696c6564a2646970667358221220f2d8e5c17f9b1f97f105da3812cbbbd5d373fc70abb47ff7462f2c84c711718564736f6c63430008130033","linkReferences":{}},"methodIdentifiers":{"COUNCIL_MEMBER()":"733a2d1f","DEFAULT_ADMIN_ROLE()":"a217fddf","MAX_FEE()":"bc063e1a","NATIVE()":"a0cf0aea","PRECISION_SCALE()":"d7050f07","VERSION()":"ffa1ad74","acceptCouncilSafe()":"b5058c50","activateMemberInStrategy(address,address)":"0d4a8b49","addStrategy(address)":"223e5479","addStrategyByPoolId(uint256)":"82d6a1e7","addressToMemberInfo(address)":"88cfe684","allo()":"d6d8428d","cloneNonce()":"33960459","collateralVaultTemplate()":"77122d56","communityFee()":"8961be6b","communityName()":"c6d572ae","councilSafe()":"6c53db9a","covenantIpfsHash()":"b64e39af","createPool(address,((uint256,uint256,uint256,uint256),uint8,uint8,(uint256),(address,address,uint256,uint256,uint256,uint256),address,address),(uint256,string))":"524e59e8","createPool(address,((uint256,uint256,uint256,uint256),uint8,uint8,(uint256),(address,address,uint256,uint256,uint256,uint256),address,address,address[]),(uint256,string))":"579eb7e5","createPool(address,address,((uint256,uint256,uint256,uint256),uint8,uint8,(uint256),(address,address,uint256,uint256,uint256,uint256),address,address),(uint256,string))":"e16d0e32","createPool(address,address,((uint256,uint256,uint256,uint256),uint8,uint8,(uint256),(address,address,uint256,uint256,uint256,uint256),address,address,address[]),(uint256,string))":"8659ffdd","deactivateMemberInStrategy(address,address)":"22bcf999","decreasePower(uint256)":"5ecf71c5","enabledStrategies(address)":"3a871fe1","feeReceiver()":"b3f00674","gardenToken()":"db61d65c","getBasisStakedAmount()":"0331383c","getMemberPowerInStrategy(address,address)":"7817ee4f","getMemberStakedAmount(address)":"2c611c4a","getRoleAdmin(bytes32)":"248a9ca3","getStakeAmountWithFees()":"28c309e9","grantRole(bytes32,address)":"2f2ff15d","hasRole(bytes32,address)":"91d14854","increasePower(uint256)":"559de05d","initialize((address,address,uint256,uint256,uint256,address,address,(uint256,string),address,string,bool,string),address,address,address)":"34196355","initialize(address)":"c4d66de8","isCouncilMember(address)":"ebd7dc52","isKickEnabled()":"1f787d28","isMember(address)":"a230c524","kickMember(address,address)":"6871eb4d","memberActivatedInStrategies(address,address)":"477a5cc0","memberPowerInStrategy(address,address)":"65e3864c","owner()":"8da5cb5b","pendingCouncilSafe()":"68decabb","profileId()":"08386eba","proxiableUUID()":"52d1902d","registerStakeAmount()":"78a0b8a9","registry()":"7b103999","registryFactory()":"f86c5f89","removeStrategy(address)":"175188e8","removeStrategyByPoolId(uint256)":"73265c37","renounceOwnership()":"715018a6","renounceRole(bytes32,address)":"36568abe","revokeRole(bytes32,address)":"d547741f","setBasisStakedAmount(uint256)":"31f61bca","setCollateralVaultTemplate(address)":"b0d3713a","setCommunityFee(uint256)":"0d12bbdb","setCouncilSafe(address)":"397e2543","setStrategyTemplate(address)":"1b71f0e4","stakeAndRegisterMember()":"3517aa7d","strategiesByMember(address,uint256)":"2b38c69c","strategyTemplate()":"5c94e4d2","supportsInterface(bytes4)":"01ffc9a7","transferOwnership(address)":"f2fde38b","unregisterMember()":"b99b4370","upgradeTo(address)":"3659cfe6","upgradeToAndCall(address,bytes)":"4f1ef286"},"storageLayout":{"storage":[{"astId":53071,"contract":"pkg/contracts/src/RegistryCommunity/RegistryCommunityV0_1.sol:RegistryCommunityV0_1","label":"_initialized","offset":0,"slot":"0","type":"t_uint8"},{"astId":53074,"contract":"pkg/contracts/src/RegistryCommunity/RegistryCommunityV0_1.sol:RegistryCommunityV0_1","label":"_initializing","offset":1,"slot":"0","type":"t_bool"},{"astId":53776,"contract":"pkg/contracts/src/RegistryCommunity/RegistryCommunityV0_1.sol:RegistryCommunityV0_1","label":"__gap","offset":0,"slot":"1","type":"t_array(t_uint256)50_storage"},{"astId":52863,"contract":"pkg/contracts/src/RegistryCommunity/RegistryCommunityV0_1.sol:RegistryCommunityV0_1","label":"_owner","offset":0,"slot":"51","type":"t_address"},{"astId":52983,"contract":"pkg/contracts/src/RegistryCommunity/RegistryCommunityV0_1.sol:RegistryCommunityV0_1","label":"__gap","offset":0,"slot":"52","type":"t_array(t_uint256)49_storage"},{"astId":53248,"contract":"pkg/contracts/src/RegistryCommunity/RegistryCommunityV0_1.sol:RegistryCommunityV0_1","label":"_status","offset":0,"slot":"101","type":"t_uint256"},{"astId":53317,"contract":"pkg/contracts/src/RegistryCommunity/RegistryCommunityV0_1.sol:RegistryCommunityV0_1","label":"__gap","offset":0,"slot":"102","type":"t_array(t_uint256)49_storage"},{"astId":54050,"contract":"pkg/contracts/src/RegistryCommunity/RegistryCommunityV0_1.sol:RegistryCommunityV0_1","label":"__gap","offset":0,"slot":"151","type":"t_array(t_uint256)50_storage"},{"astId":52470,"contract":"pkg/contracts/src/RegistryCommunity/RegistryCommunityV0_1.sol:RegistryCommunityV0_1","label":"_roles","offset":0,"slot":"201","type":"t_mapping(t_bytes32,t_struct(RoleData)52465_storage)"},{"astId":52777,"contract":"pkg/contracts/src/RegistryCommunity/RegistryCommunityV0_1.sol:RegistryCommunityV0_1","label":"__gap","offset":0,"slot":"202","type":"t_array(t_uint256)49_storage"},{"astId":77172,"contract":"pkg/contracts/src/RegistryCommunity/RegistryCommunityV0_1.sol:RegistryCommunityV0_1","label":"registerStakeAmount","offset":0,"slot":"251","type":"t_uint256"},{"astId":77175,"contract":"pkg/contracts/src/RegistryCommunity/RegistryCommunityV0_1.sol:RegistryCommunityV0_1","label":"communityFee","offset":0,"slot":"252","type":"t_uint256"},{"astId":77178,"contract":"pkg/contracts/src/RegistryCommunity/RegistryCommunityV0_1.sol:RegistryCommunityV0_1","label":"cloneNonce","offset":0,"slot":"253","type":"t_uint256"},{"astId":77181,"contract":"pkg/contracts/src/RegistryCommunity/RegistryCommunityV0_1.sol:RegistryCommunityV0_1","label":"profileId","offset":0,"slot":"254","type":"t_bytes32"},{"astId":77184,"contract":"pkg/contracts/src/RegistryCommunity/RegistryCommunityV0_1.sol:RegistryCommunityV0_1","label":"isKickEnabled","offset":0,"slot":"255","type":"t_bool"},{"astId":77187,"contract":"pkg/contracts/src/RegistryCommunity/RegistryCommunityV0_1.sol:RegistryCommunityV0_1","label":"feeReceiver","offset":1,"slot":"255","type":"t_address"},{"astId":77190,"contract":"pkg/contracts/src/RegistryCommunity/RegistryCommunityV0_1.sol:RegistryCommunityV0_1","label":"registryFactory","offset":0,"slot":"256","type":"t_address"},{"astId":77193,"contract":"pkg/contracts/src/RegistryCommunity/RegistryCommunityV0_1.sol:RegistryCommunityV0_1","label":"collateralVaultTemplate","offset":0,"slot":"257","type":"t_address"},{"astId":77196,"contract":"pkg/contracts/src/RegistryCommunity/RegistryCommunityV0_1.sol:RegistryCommunityV0_1","label":"strategyTemplate","offset":0,"slot":"258","type":"t_address"},{"astId":77199,"contract":"pkg/contracts/src/RegistryCommunity/RegistryCommunityV0_1.sol:RegistryCommunityV0_1","label":"pendingCouncilSafe","offset":0,"slot":"259","type":"t_address_payable"},{"astId":77203,"contract":"pkg/contracts/src/RegistryCommunity/RegistryCommunityV0_1.sol:RegistryCommunityV0_1","label":"registry","offset":0,"slot":"260","type":"t_contract(IRegistry)2802"},{"astId":77207,"contract":"pkg/contracts/src/RegistryCommunity/RegistryCommunityV0_1.sol:RegistryCommunityV0_1","label":"gardenToken","offset":0,"slot":"261","type":"t_contract(IERC20)56609"},{"astId":77211,"contract":"pkg/contracts/src/RegistryCommunity/RegistryCommunityV0_1.sol:RegistryCommunityV0_1","label":"councilSafe","offset":0,"slot":"262","type":"t_contract(ISafe)80199"},{"astId":77215,"contract":"pkg/contracts/src/RegistryCommunity/RegistryCommunityV0_1.sol:RegistryCommunityV0_1","label":"allo","offset":0,"slot":"263","type":"t_contract(FAllo)79932"},{"astId":77218,"contract":"pkg/contracts/src/RegistryCommunity/RegistryCommunityV0_1.sol:RegistryCommunityV0_1","label":"communityName","offset":0,"slot":"264","type":"t_string_storage"},{"astId":77221,"contract":"pkg/contracts/src/RegistryCommunity/RegistryCommunityV0_1.sol:RegistryCommunityV0_1","label":"covenantIpfsHash","offset":0,"slot":"265","type":"t_string_storage"},{"astId":77226,"contract":"pkg/contracts/src/RegistryCommunity/RegistryCommunityV0_1.sol:RegistryCommunityV0_1","label":"enabledStrategies","offset":0,"slot":"266","type":"t_mapping(t_address,t_bool)"},{"astId":77233,"contract":"pkg/contracts/src/RegistryCommunity/RegistryCommunityV0_1.sol:RegistryCommunityV0_1","label":"memberPowerInStrategy","offset":0,"slot":"267","type":"t_mapping(t_address,t_mapping(t_address,t_uint256))"},{"astId":77239,"contract":"pkg/contracts/src/RegistryCommunity/RegistryCommunityV0_1.sol:RegistryCommunityV0_1","label":"addressToMemberInfo","offset":0,"slot":"268","type":"t_mapping(t_address,t_struct(Member)77380_storage)"},{"astId":77245,"contract":"pkg/contracts/src/RegistryCommunity/RegistryCommunityV0_1.sol:RegistryCommunityV0_1","label":"strategiesByMember","offset":0,"slot":"269","type":"t_mapping(t_address,t_array(t_address)dyn_storage)"},{"astId":77252,"contract":"pkg/contracts/src/RegistryCommunity/RegistryCommunityV0_1.sol:RegistryCommunityV0_1","label":"memberActivatedInStrategies","offset":0,"slot":"270","type":"t_mapping(t_address,t_mapping(t_address,t_bool))"},{"astId":77256,"contract":"pkg/contracts/src/RegistryCommunity/RegistryCommunityV0_1.sol:RegistryCommunityV0_1","label":"initialMembers","offset":0,"slot":"271","type":"t_array(t_address)dyn_storage"},{"astId":78899,"contract":"pkg/contracts/src/RegistryCommunity/RegistryCommunityV0_1.sol:RegistryCommunityV0_1","label":"__gap","offset":0,"slot":"272","type":"t_array(t_uint256)50_storage"}],"types":{"t_address":{"encoding":"inplace","label":"address","numberOfBytes":"20"},"t_address_payable":{"encoding":"inplace","label":"address payable","numberOfBytes":"20"},"t_array(t_address)dyn_storage":{"encoding":"dynamic_array","label":"address[]","numberOfBytes":"32","base":"t_address"},"t_array(t_uint256)49_storage":{"encoding":"inplace","label":"uint256[49]","numberOfBytes":"1568","base":"t_uint256"},"t_array(t_uint256)50_storage":{"encoding":"inplace","label":"uint256[50]","numberOfBytes":"1600","base":"t_uint256"},"t_bool":{"encoding":"inplace","label":"bool","numberOfBytes":"1"},"t_bytes32":{"encoding":"inplace","label":"bytes32","numberOfBytes":"32"},"t_contract(FAllo)79932":{"encoding":"inplace","label":"contract FAllo","numberOfBytes":"20"},"t_contract(IERC20)56609":{"encoding":"inplace","label":"contract IERC20","numberOfBytes":"20"},"t_contract(IRegistry)2802":{"encoding":"inplace","label":"contract IRegistry","numberOfBytes":"20"},"t_contract(ISafe)80199":{"encoding":"inplace","label":"contract ISafe","numberOfBytes":"20"},"t_mapping(t_address,t_array(t_address)dyn_storage)":{"encoding":"mapping","key":"t_address","label":"mapping(address => address[])","numberOfBytes":"32","value":"t_array(t_address)dyn_storage"},"t_mapping(t_address,t_bool)":{"encoding":"mapping","key":"t_address","label":"mapping(address => bool)","numberOfBytes":"32","value":"t_bool"},"t_mapping(t_address,t_mapping(t_address,t_bool))":{"encoding":"mapping","key":"t_address","label":"mapping(address => mapping(address => bool))","numberOfBytes":"32","value":"t_mapping(t_address,t_bool)"},"t_mapping(t_address,t_mapping(t_address,t_uint256))":{"encoding":"mapping","key":"t_address","label":"mapping(address => mapping(address => uint256))","numberOfBytes":"32","value":"t_mapping(t_address,t_uint256)"},"t_mapping(t_address,t_struct(Member)77380_storage)":{"encoding":"mapping","key":"t_address","label":"mapping(address => struct RegistryCommunityV0_0.Member)","numberOfBytes":"32","value":"t_struct(Member)77380_storage"},"t_mapping(t_address,t_uint256)":{"encoding":"mapping","key":"t_address","label":"mapping(address => uint256)","numberOfBytes":"32","value":"t_uint256"},"t_mapping(t_bytes32,t_struct(RoleData)52465_storage)":{"encoding":"mapping","key":"t_bytes32","label":"mapping(bytes32 => struct AccessControlUpgradeable.RoleData)","numberOfBytes":"32","value":"t_struct(RoleData)52465_storage"},"t_string_storage":{"encoding":"bytes","label":"string","numberOfBytes":"32"},"t_struct(Member)77380_storage":{"encoding":"inplace","label":"struct RegistryCommunityV0_0.Member","numberOfBytes":"96","members":[{"astId":77375,"contract":"pkg/contracts/src/RegistryCommunity/RegistryCommunityV0_1.sol:RegistryCommunityV0_1","label":"member","offset":0,"slot":"0","type":"t_address"},{"astId":77377,"contract":"pkg/contracts/src/RegistryCommunity/RegistryCommunityV0_1.sol:RegistryCommunityV0_1","label":"stakedAmount","offset":0,"slot":"1","type":"t_uint256"},{"astId":77379,"contract":"pkg/contracts/src/RegistryCommunity/RegistryCommunityV0_1.sol:RegistryCommunityV0_1","label":"isRegistered","offset":0,"slot":"2","type":"t_bool"}]},"t_struct(RoleData)52465_storage":{"encoding":"inplace","label":"struct AccessControlUpgradeable.RoleData","numberOfBytes":"64","members":[{"astId":52462,"contract":"pkg/contracts/src/RegistryCommunity/RegistryCommunityV0_1.sol:RegistryCommunityV0_1","label":"members","offset":0,"slot":"0","type":"t_mapping(t_address,t_bool)"},{"astId":52464,"contract":"pkg/contracts/src/RegistryCommunity/RegistryCommunityV0_1.sol:RegistryCommunityV0_1","label":"adminRole","offset":0,"slot":"1","type":"t_bytes32"}]},"t_uint256":{"encoding":"inplace","label":"uint256","numberOfBytes":"32"},"t_uint8":{"encoding":"inplace","label":"uint8","numberOfBytes":"1"}}},"id":121}