{"abi":[{"type":"function","name":"COUNCIL_MEMBER","inputs":[],"outputs":[{"name":"","type":"bytes32","internalType":"bytes32"}],"stateMutability":"view"},{"type":"function","name":"DEFAULT_ADMIN_ROLE","inputs":[],"outputs":[{"name":"","type":"bytes32","internalType":"bytes32"}],"stateMutability":"view"},{"type":"function","name":"MAX_FEE","inputs":[],"outputs":[{"name":"","type":"uint256","internalType":"uint256"}],"stateMutability":"view"},{"type":"function","name":"NATIVE","inputs":[],"outputs":[{"name":"","type":"address","internalType":"address"}],"stateMutability":"view"},{"type":"function","name":"PRECISION_SCALE","inputs":[],"outputs":[{"name":"","type":"uint256","internalType":"uint256"}],"stateMutability":"view"},{"type":"function","name":"VERSION","inputs":[],"outputs":[{"name":"","type":"string","internalType":"string"}],"stateMutability":"view"},{"type":"function","name":"acceptCouncilSafe","inputs":[],"outputs":[],"stateMutability":"nonpayable"},{"type":"function","name":"activateMemberInStrategy","inputs":[{"name":"_member","type":"address","internalType":"address"},{"name":"_strategy","type":"address","internalType":"address"}],"outputs":[],"stateMutability":"nonpayable"},{"type":"function","name":"addStrategy","inputs":[{"name":"_newStrategy","type":"address","internalType":"address"}],"outputs":[],"stateMutability":"nonpayable"},{"type":"function","name":"addStrategyByPoolId","inputs":[{"name":"poolId","type":"uint256","internalType":"uint256"}],"outputs":[],"stateMutability":"nonpayable"},{"type":"function","name":"addressToMemberInfo","inputs":[{"name":"member","type":"address","internalType":"address"}],"outputs":[{"name":"member","type":"address","internalType":"address"},{"name":"stakedAmount","type":"uint256","internalType":"uint256"},{"name":"isRegistered","type":"bool","internalType":"bool"}],"stateMutability":"view"},{"type":"function","name":"allo","inputs":[],"outputs":[{"name":"","type":"address","internalType":"contract FAllo"}],"stateMutability":"view"},{"type":"function","name":"cloneNonce","inputs":[],"outputs":[{"name":"","type":"uint256","internalType":"uint256"}],"stateMutability":"view"},{"type":"function","name":"collateralVaultTemplate","inputs":[],"outputs":[{"name":"","type":"address","internalType":"address"}],"stateMutability":"view"},{"type":"function","name":"communityFee","inputs":[],"outputs":[{"name":"","type":"uint256","internalType":"uint256"}],"stateMutability":"view"},{"type":"function","name":"communityName","inputs":[],"outputs":[{"name":"","type":"string","internalType":"string"}],"stateMutability":"view"},{"type":"function","name":"councilSafe","inputs":[],"outputs":[{"name":"","type":"address","internalType":"contract ISafe"}],"stateMutability":"view"},{"type":"function","name":"covenantIpfsHash","inputs":[],"outputs":[{"name":"","type":"string","internalType":"string"}],"stateMutability":"view"},{"type":"function","name":"createPool","inputs":[{"name":"_token","type":"address","internalType":"address"},{"name":"_params","type":"tuple","internalType":"struct CVStrategyInitializeParamsV0_0","components":[{"name":"cvParams","type":"tuple","internalType":"struct CVParams","components":[{"name":"maxRatio","type":"uint256","internalType":"uint256"},{"name":"weight","type":"uint256","internalType":"uint256"},{"name":"decay","type":"uint256","internalType":"uint256"},{"name":"minThresholdPoints","type":"uint256","internalType":"uint256"}]},{"name":"proposalType","type":"uint8","internalType":"enum ProposalType"},{"name":"pointSystem","type":"uint8","internalType":"enum PointSystem"},{"name":"pointConfig","type":"tuple","internalType":"struct PointSystemConfig","components":[{"name":"maxAmount","type":"uint256","internalType":"uint256"}]},{"name":"arbitrableConfig","type":"tuple","internalType":"struct ArbitrableConfig","components":[{"name":"arbitrator","type":"address","internalType":"contract IArbitrator"},{"name":"tribunalSafe","type":"address","internalType":"address"},{"name":"submitterCollateralAmount","type":"uint256","internalType":"uint256"},{"name":"challengerCollateralAmount","type":"uint256","internalType":"uint256"},{"name":"defaultRuling","type":"uint256","internalType":"uint256"},{"name":"defaultRulingTimeout","type":"uint256","internalType":"uint256"}]},{"name":"registryCommunity","type":"address","internalType":"address"},{"name":"sybilScorer","type":"address","internalType":"address"}]},{"name":"_metadata","type":"tuple","internalType":"struct Metadata","components":[{"name":"protocol","type":"uint256","internalType":"uint256"},{"name":"pointer","type":"string","internalType":"string"}]}],"outputs":[{"name":"poolId","type":"uint256","internalType":"uint256"},{"name":"strategy","type":"address","internalType":"address"}],"stateMutability":"nonpayable"},{"type":"function","name":"createPool","inputs":[{"name":"_token","type":"address","internalType":"address"},{"name":"_params","type":"tuple","internalType":"struct CVStrategyInitializeParamsV0_1","components":[{"name":"cvParams","type":"tuple","internalType":"struct CVParams","components":[{"name":"maxRatio","type":"uint256","internalType":"uint256"},{"name":"weight","type":"uint256","internalType":"uint256"},{"name":"decay","type":"uint256","internalType":"uint256"},{"name":"minThresholdPoints","type":"uint256","internalType":"uint256"}]},{"name":"proposalType","type":"uint8","internalType":"enum ProposalType"},{"name":"pointSystem","type":"uint8","internalType":"enum PointSystem"},{"name":"pointConfig","type":"tuple","internalType":"struct PointSystemConfig","components":[{"name":"maxAmount","type":"uint256","internalType":"uint256"}]},{"name":"arbitrableConfig","type":"tuple","internalType":"struct ArbitrableConfig","components":[{"name":"arbitrator","type":"address","internalType":"contract IArbitrator"},{"name":"tribunalSafe","type":"address","internalType":"address"},{"name":"submitterCollateralAmount","type":"uint256","internalType":"uint256"},{"name":"challengerCollateralAmount","type":"uint256","internalType":"uint256"},{"name":"defaultRuling","type":"uint256","internalType":"uint256"},{"name":"defaultRulingTimeout","type":"uint256","internalType":"uint256"}]},{"name":"registryCommunity","type":"address","internalType":"address"},{"name":"sybilScorer","type":"address","internalType":"address"},{"name":"initialAllowlist","type":"address[]","internalType":"address[]"}]},{"name":"_metadata","type":"tuple","internalType":"struct Metadata","components":[{"name":"protocol","type":"uint256","internalType":"uint256"},{"name":"pointer","type":"string","internalType":"string"}]}],"outputs":[{"name":"poolId","type":"uint256","internalType":"uint256"},{"name":"strategy","type":"address","internalType":"address"}],"stateMutability":"nonpayable"},{"type":"function","name":"createPool","inputs":[{"name":"_strategy","type":"address","internalType":"address"},{"name":"_token","type":"address","internalType":"address"},{"name":"_params","type":"tuple","internalType":"struct CVStrategyInitializeParamsV0_1","components":[{"name":"cvParams","type":"tuple","internalType":"struct CVParams","components":[{"name":"maxRatio","type":"uint256","internalType":"uint256"},{"name":"weight","type":"uint256","internalType":"uint256"},{"name":"decay","type":"uint256","internalType":"uint256"},{"name":"minThresholdPoints","type":"uint256","internalType":"uint256"}]},{"name":"proposalType","type":"uint8","internalType":"enum ProposalType"},{"name":"pointSystem","type":"uint8","internalType":"enum PointSystem"},{"name":"pointConfig","type":"tuple","internalType":"struct PointSystemConfig","components":[{"name":"maxAmount","type":"uint256","internalType":"uint256"}]},{"name":"arbitrableConfig","type":"tuple","internalType":"struct ArbitrableConfig","components":[{"name":"arbitrator","type":"address","internalType":"contract IArbitrator"},{"name":"tribunalSafe","type":"address","internalType":"address"},{"name":"submitterCollateralAmount","type":"uint256","internalType":"uint256"},{"name":"challengerCollateralAmount","type":"uint256","internalType":"uint256"},{"name":"defaultRuling","type":"uint256","internalType":"uint256"},{"name":"defaultRulingTimeout","type":"uint256","internalType":"uint256"}]},{"name":"registryCommunity","type":"address","internalType":"address"},{"name":"sybilScorer","type":"address","internalType":"address"},{"name":"initialAllowlist","type":"address[]","internalType":"address[]"}]},{"name":"_metadata","type":"tuple","internalType":"struct Metadata","components":[{"name":"protocol","type":"uint256","internalType":"uint256"},{"name":"pointer","type":"string","internalType":"string"}]}],"outputs":[{"name":"poolId","type":"uint256","internalType":"uint256"},{"name":"strategy","type":"address","internalType":"address"}],"stateMutability":"nonpayable"},{"type":"function","name":"createPool","inputs":[{"name":"_strategy","type":"address","internalType":"address"},{"name":"_token","type":"address","internalType":"address"},{"name":"_params","type":"tuple","internalType":"struct CVStrategyInitializeParamsV0_0","components":[{"name":"cvParams","type":"tuple","internalType":"struct CVParams","components":[{"name":"maxRatio","type":"uint256","internalType":"uint256"},{"name":"weight","type":"uint256","internalType":"uint256"},{"name":"decay","type":"uint256","internalType":"uint256"},{"name":"minThresholdPoints","type":"uint256","internalType":"uint256"}]},{"name":"proposalType","type":"uint8","internalType":"enum ProposalType"},{"name":"pointSystem","type":"uint8","internalType":"enum PointSystem"},{"name":"pointConfig","type":"tuple","internalType":"struct PointSystemConfig","components":[{"name":"maxAmount","type":"uint256","internalType":"uint256"}]},{"name":"arbitrableConfig","type":"tuple","internalType":"struct ArbitrableConfig","components":[{"name":"arbitrator","type":"address","internalType":"contract IArbitrator"},{"name":"tribunalSafe","type":"address","internalType":"address"},{"name":"submitterCollateralAmount","type":"uint256","internalType":"uint256"},{"name":"challengerCollateralAmount","type":"uint256","internalType":"uint256"},{"name":"defaultRuling","type":"uint256","internalType":"uint256"},{"name":"defaultRulingTimeout","type":"uint256","internalType":"uint256"}]},{"name":"registryCommunity","type":"address","internalType":"address"},{"name":"sybilScorer","type":"address","internalType":"address"}]},{"name":"_metadata","type":"tuple","internalType":"struct Metadata","components":[{"name":"protocol","type":"uint256","internalType":"uint256"},{"name":"pointer","type":"string","internalType":"string"}]}],"outputs":[{"name":"poolId","type":"uint256","internalType":"uint256"},{"name":"strategy","type":"address","internalType":"address"}],"stateMutability":"nonpayable"},{"type":"function","name":"deactivateMemberInStrategy","inputs":[{"name":"_member","type":"address","internalType":"address"},{"name":"_strategy","type":"address","internalType":"address"}],"outputs":[],"stateMutability":"nonpayable"},{"type":"function","name":"decreasePower","inputs":[{"name":"_amountUnstaked","type":"uint256","internalType":"uint256"}],"outputs":[],"stateMutability":"nonpayable"},{"type":"function","name":"enabledStrategies","inputs":[{"name":"strategy","type":"address","internalType":"address"}],"outputs":[{"name":"isEnabled","type":"bool","internalType":"bool"}],"stateMutability":"view"},{"type":"function","name":"feeReceiver","inputs":[],"outputs":[{"name":"","type":"address","internalType":"address"}],"stateMutability":"view"},{"type":"function","name":"gardenToken","inputs":[],"outputs":[{"name":"","type":"address","internalType":"contract IERC20"}],"stateMutability":"view"},{"type":"function","name":"getBasisStakedAmount","inputs":[],"outputs":[{"name":"","type":"uint256","internalType":"uint256"}],"stateMutability":"view"},{"type":"function","name":"getMemberPowerInStrategy","inputs":[{"name":"_member","type":"address","internalType":"address"},{"name":"_strategy","type":"address","internalType":"address"}],"outputs":[{"name":"","type":"uint256","internalType":"uint256"}],"stateMutability":"view"},{"type":"function","name":"getMemberStakedAmount","inputs":[{"name":"_member","type":"address","internalType":"address"}],"outputs":[{"name":"","type":"uint256","internalType":"uint256"}],"stateMutability":"view"},{"type":"function","name":"getRoleAdmin","inputs":[{"name":"role","type":"bytes32","internalType":"bytes32"}],"outputs":[{"name":"","type":"bytes32","internalType":"bytes32"}],"stateMutability":"view"},{"type":"function","name":"getStakeAmountWithFees","inputs":[],"outputs":[{"name":"","type":"uint256","internalType":"uint256"}],"stateMutability":"view"},{"type":"function","name":"grantRole","inputs":[{"name":"role","type":"bytes32","internalType":"bytes32"},{"name":"account","type":"address","internalType":"address"}],"outputs":[],"stateMutability":"nonpayable"},{"type":"function","name":"hasRole","inputs":[{"name":"role","type":"bytes32","internalType":"bytes32"},{"name":"account","type":"address","internalType":"address"}],"outputs":[{"name":"","type":"bool","internalType":"bool"}],"stateMutability":"view"},{"type":"function","name":"increasePower","inputs":[{"name":"_amountStaked","type":"uint256","internalType":"uint256"}],"outputs":[],"stateMutability":"nonpayable"},{"type":"function","name":"initialize","inputs":[{"name":"params","type":"tuple","internalType":"struct RegistryCommunityInitializeParamsV0_0","components":[{"name":"_allo","type":"address","internalType":"address"},{"name":"_gardenToken","type":"address","internalType":"contract IERC20"},{"name":"_registerStakeAmount","type":"uint256","internalType":"uint256"},{"name":"_communityFee","type":"uint256","internalType":"uint256"},{"name":"_nonce","type":"uint256","internalType":"uint256"},{"name":"_registryFactory","type":"address","internalType":"address"},{"name":"_feeReceiver","type":"address","internalType":"address"},{"name":"_metadata","type":"tuple","internalType":"struct Metadata","components":[{"name":"protocol","type":"uint256","internalType":"uint256"},{"name":"pointer","type":"string","internalType":"string"}]},{"name":"_councilSafe","type":"address","internalType":"address payable"},{"name":"_communityName","type":"string","internalType":"string"},{"name":"_isKickEnabled","type":"bool","internalType":"bool"},{"name":"covenantIpfsHash","type":"string","internalType":"string"}]},{"name":"_strategyTemplate","type":"address","internalType":"address"},{"name":"_collateralVaultTemplate","type":"address","internalType":"address"},{"name":"_owner","type":"address","internalType":"address"}],"outputs":[],"stateMutability":"nonpayable"},{"type":"function","name":"initialize","inputs":[{"name":"initialOwner","type":"address","internalType":"address"}],"outputs":[],"stateMutability":"nonpayable"},{"type":"function","name":"isCouncilMember","inputs":[{"name":"_member","type":"address","internalType":"address"}],"outputs":[{"name":"","type":"bool","internalType":"bool"}],"stateMutability":"view"},{"type":"function","name":"isKickEnabled","inputs":[],"outputs":[{"name":"","type":"bool","internalType":"bool"}],"stateMutability":"view"},{"type":"function","name":"isMember","inputs":[{"name":"_member","type":"address","internalType":"address"}],"outputs":[{"name":"_isMember","type":"bool","internalType":"bool"}],"stateMutability":"view"},{"type":"function","name":"kickMember","inputs":[{"name":"_member","type":"address","internalType":"address"},{"name":"_transferAddress","type":"address","internalType":"address"}],"outputs":[],"stateMutability":"nonpayable"},{"type":"function","name":"memberActivatedInStrategies","inputs":[{"name":"member","type":"address","internalType":"address"},{"name":"strategy","type":"address","internalType":"address"}],"outputs":[{"name":"isActivated","type":"bool","internalType":"bool"}],"stateMutability":"view"},{"type":"function","name":"memberPowerInStrategy","inputs":[{"name":"strategy","type":"address","internalType":"address"},{"name":"member","type":"address","internalType":"address"}],"outputs":[{"name":"power","type":"uint256","internalType":"uint256"}],"stateMutability":"view"},{"type":"function","name":"owner","inputs":[],"outputs":[{"name":"","type":"address","internalType":"address"}],"stateMutability":"view"},{"type":"function","name":"pendingCouncilSafe","inputs":[],"outputs":[{"name":"","type":"address","internalType":"address payable"}],"stateMutability":"view"},{"type":"function","name":"profileId","inputs":[],"outputs":[{"name":"","type":"bytes32","internalType":"bytes32"}],"stateMutability":"view"},{"type":"function","name":"proxiableUUID","inputs":[],"outputs":[{"name":"","type":"bytes32","internalType":"bytes32"}],"stateMutability":"view"},{"type":"function","name":"registerStakeAmount","inputs":[],"outputs":[{"name":"","type":"uint256","internalType":"uint256"}],"stateMutability":"view"},{"type":"function","name":"registry","inputs":[],"outputs":[{"name":"","type":"address","internalType":"contract IRegistry"}],"stateMutability":"view"},{"type":"function","name":"registryFactory","inputs":[],"outputs":[{"name":"","type":"address","internalType":"address"}],"stateMutability":"view"},{"type":"function","name":"removeStrategy","inputs":[{"name":"_strategy","type":"address","internalType":"address"}],"outputs":[],"stateMutability":"nonpayable"},{"type":"function","name":"removeStrategyByPoolId","inputs":[{"name":"poolId","type":"uint256","internalType":"uint256"}],"outputs":[],"stateMutability":"nonpayable"},{"type":"function","name":"renounceOwnership","inputs":[],"outputs":[],"stateMutability":"nonpayable"},{"type":"function","name":"renounceRole","inputs":[{"name":"role","type":"bytes32","internalType":"bytes32"},{"name":"account","type":"address","internalType":"address"}],"outputs":[],"stateMutability":"nonpayable"},{"type":"function","name":"revokeRole","inputs":[{"name":"role","type":"bytes32","internalType":"bytes32"},{"name":"account","type":"address","internalType":"address"}],"outputs":[],"stateMutability":"nonpayable"},{"type":"function","name":"setBasisStakedAmount","inputs":[{"name":"_newAmount","type":"uint256","internalType":"uint256"}],"outputs":[],"stateMutability":"nonpayable"},{"type":"function","name":"setCollateralVaultTemplate","inputs":[{"name":"template","type":"address","internalType":"address"}],"outputs":[],"stateMutability":"nonpayable"},{"type":"function","name":"setCommunityFee","inputs":[{"name":"_newCommunityFee","type":"uint256","internalType":"uint256"}],"outputs":[],"stateMutability":"nonpayable"},{"type":"function","name":"setCouncilSafe","inputs":[{"name":"_safe","type":"address","internalType":"address payable"}],"outputs":[],"stateMutability":"nonpayable"},{"type":"function","name":"setStrategyTemplate","inputs":[{"name":"template","type":"address","internalType":"address"}],"outputs":[],"stateMutability":"nonpayable"},{"type":"function","name":"stakeAndRegisterMember","inputs":[],"outputs":[],"stateMutability":"nonpayable"},{"type":"function","name":"strategiesByMember","inputs":[{"name":"member","type":"address","internalType":"address"},{"name":"","type":"uint256","internalType":"uint256"}],"outputs":[{"name":"strategiesAddresses","type":"address","internalType":"address"}],"stateMutability":"view"},{"type":"function","name":"strategyTemplate","inputs":[],"outputs":[{"name":"","type":"address","internalType":"address"}],"stateMutability":"view"},{"type":"function","name":"supportsInterface","inputs":[{"name":"interfaceId","type":"bytes4","internalType":"bytes4"}],"outputs":[{"name":"","type":"bool","internalType":"bool"}],"stateMutability":"view"},{"type":"function","name":"transferOwnership","inputs":[{"name":"newOwner","type":"address","internalType":"address"}],"outputs":[],"stateMutability":"nonpayable"},{"type":"function","name":"unregisterMember","inputs":[],"outputs":[],"stateMutability":"nonpayable"},{"type":"function","name":"upgradeTo","inputs":[{"name":"newImplementation","type":"address","internalType":"address"}],"outputs":[],"stateMutability":"nonpayable"},{"type":"function","name":"upgradeToAndCall","inputs":[{"name":"newImplementation","type":"address","internalType":"address"},{"name":"data","type":"bytes","internalType":"bytes"}],"outputs":[],"stateMutability":"payable"},{"type":"event","name":"AdminChanged","inputs":[{"name":"previousAdmin","type":"address","indexed":false,"internalType":"address"},{"name":"newAdmin","type":"address","indexed":false,"internalType":"address"}],"anonymous":false},{"type":"event","name":"AlloSet","inputs":[{"name":"_allo","type":"address","indexed":false,"internalType":"address"}],"anonymous":false},{"type":"event","name":"BasisStakedAmountSet","inputs":[{"name":"_newAmount","type":"uint256","indexed":false,"internalType":"uint256"}],"anonymous":false},{"type":"event","name":"BeaconUpgraded","inputs":[{"name":"beacon","type":"address","indexed":true,"internalType":"address"}],"anonymous":false},{"type":"event","name":"CommunityFeeUpdated","inputs":[{"name":"_newFee","type":"uint256","indexed":false,"internalType":"uint256"}],"anonymous":false},{"type":"event","name":"CouncilSafeChangeStarted","inputs":[{"name":"_safeOwner","type":"address","indexed":false,"internalType":"address"},{"name":"_newSafeOwner","type":"address","indexed":false,"internalType":"address"}],"anonymous":false},{"type":"event","name":"CouncilSafeSet","inputs":[{"name":"_safe","type":"address","indexed":false,"internalType":"address"}],"anonymous":false},{"type":"event","name":"Initialized","inputs":[{"name":"version","type":"uint8","indexed":false,"internalType":"uint8"}],"anonymous":false},{"type":"event","name":"MemberActivatedStrategy","inputs":[{"name":"_member","type":"address","indexed":false,"internalType":"address"},{"name":"_strategy","type":"address","indexed":false,"internalType":"address"},{"name":"_pointsToIncrease","type":"uint256","indexed":false,"internalType":"uint256"}],"anonymous":false},{"type":"event","name":"MemberDeactivatedStrategy","inputs":[{"name":"_member","type":"address","indexed":false,"internalType":"address"},{"name":"_strategy","type":"address","indexed":false,"internalType":"address"}],"anonymous":false},{"type":"event","name":"MemberKicked","inputs":[{"name":"_member","type":"address","indexed":false,"internalType":"address"},{"name":"_transferAddress","type":"address","indexed":false,"internalType":"address"},{"name":"_amountReturned","type":"uint256","indexed":false,"internalType":"uint256"}],"anonymous":false},{"type":"event","name":"MemberPowerDecreased","inputs":[{"name":"_member","type":"address","indexed":false,"internalType":"address"},{"name":"_unstakedAmount","type":"uint256","indexed":false,"internalType":"uint256"}],"anonymous":false},{"type":"event","name":"MemberPowerIncreased","inputs":[{"name":"_member","type":"address","indexed":false,"internalType":"address"},{"name":"_stakedAmount","type":"uint256","indexed":false,"internalType":"uint256"}],"anonymous":false},{"type":"event","name":"MemberRegistered","inputs":[{"name":"_member","type":"address","indexed":false,"internalType":"address"},{"name":"_amountStaked","type":"uint256","indexed":false,"internalType":"uint256"}],"anonymous":false},{"type":"event","name":"MemberUnregistered","inputs":[{"name":"_member","type":"address","indexed":false,"internalType":"address"},{"name":"_amountReturned","type":"uint256","indexed":false,"internalType":"uint256"}],"anonymous":false},{"type":"event","name":"OwnershipTransferred","inputs":[{"name":"previousOwner","type":"address","indexed":true,"internalType":"address"},{"name":"newOwner","type":"address","indexed":true,"internalType":"address"}],"anonymous":false},{"type":"event","name":"PoolCreated","inputs":[{"name":"_poolId","type":"uint256","indexed":false,"internalType":"uint256"},{"name":"_strategy","type":"address","indexed":false,"internalType":"address"},{"name":"_community","type":"address","indexed":false,"internalType":"address"},{"name":"_token","type":"address","indexed":false,"internalType":"address"},{"name":"_metadata","type":"tuple","indexed":false,"internalType":"struct Metadata","components":[{"name":"protocol","type":"uint256","internalType":"uint256"},{"name":"pointer","type":"string","internalType":"string"}]}],"anonymous":false},{"type":"event","name":"RegistryInitialized","inputs":[{"name":"_profileId","type":"bytes32","indexed":false,"internalType":"bytes32"},{"name":"_communityName","type":"string","indexed":false,"internalType":"string"},{"name":"_metadata","type":"tuple","indexed":false,"internalType":"struct Metadata","components":[{"name":"protocol","type":"uint256","internalType":"uint256"},{"name":"pointer","type":"string","internalType":"string"}]}],"anonymous":false},{"type":"event","name":"RoleAdminChanged","inputs":[{"name":"role","type":"bytes32","indexed":true,"internalType":"bytes32"},{"name":"previousAdminRole","type":"bytes32","indexed":true,"internalType":"bytes32"},{"name":"newAdminRole","type":"bytes32","indexed":true,"internalType":"bytes32"}],"anonymous":false},{"type":"event","name":"RoleGranted","inputs":[{"name":"role","type":"bytes32","indexed":true,"internalType":"bytes32"},{"name":"account","type":"address","indexed":true,"internalType":"address"},{"name":"sender","type":"address","indexed":true,"internalType":"address"}],"anonymous":false},{"type":"event","name":"RoleRevoked","inputs":[{"name":"role","type":"bytes32","indexed":true,"internalType":"bytes32"},{"name":"account","type":"address","indexed":true,"internalType":"address"},{"name":"sender","type":"address","indexed":true,"internalType":"address"}],"anonymous":false},{"type":"event","name":"StrategyAdded","inputs":[{"name":"_strategy","type":"address","indexed":false,"internalType":"address"}],"anonymous":false},{"type":"event","name":"StrategyRemoved","inputs":[{"name":"_strategy","type":"address","indexed":false,"internalType":"address"}],"anonymous":false},{"type":"event","name":"Upgraded","inputs":[{"name":"implementation","type":"address","indexed":true,"internalType":"address"}],"anonymous":false},{"type":"error","name":"AddressCannotBeZero","inputs":[]},{"type":"error","name":"AllowlistTooBig","inputs":[{"name":"size","type":"uint256","internalType":"uint256"}]},{"type":"error","name":"CallerNotOwner","inputs":[{"name":"_caller","type":"address","internalType":"address"},{"name":"_owner","type":"address","internalType":"address"}]},{"type":"error","name":"CantDecreaseMoreThanPower","inputs":[{"name":"_decreaseAmount","type":"uint256","internalType":"uint256"},{"name":"_currentPower","type":"uint256","internalType":"uint256"}]},{"type":"error","name":"DecreaseUnderMinimum","inputs":[]},{"type":"error","name":"KickNotEnabled","inputs":[]},{"type":"error","name":"NewFeeGreaterThanMax","inputs":[]},{"type":"error","name":"PointsDeactivated","inputs":[]},{"type":"error","name":"RegistryCannotBeZero","inputs":[]},{"type":"error","name":"SenderNotNewOwner","inputs":[]},{"type":"error","name":"SenderNotStrategy","inputs":[]},{"type":"error","name":"StrategyDisabled","inputs":[]},{"type":"error","name":"StrategyExists","inputs":[]},{"type":"error","name":"UserAlreadyActivated","inputs":[]},{"type":"error","name":"UserAlreadyDeactivated","inputs":[]},{"type":"error","name":"UserAlreadyRegistered","inputs":[]},{"type":"error","name":"UserNotGardenOwner","inputs":[]},{"type":"error","name":"UserNotInCouncil","inputs":[{"name":"_user","type":"address","internalType":"address"}]},{"type":"error","name":"UserNotInRegistry","inputs":[]},{"type":"error","name":"ValueCannotBeZero","inputs":[]}],"bytecode":{"object":"0x60a06040523060805234801561001457600080fd5b506080516160716200004d60003960008181611e4f01528181611e9201528181611f8d01528181611fd0015261212201526160716000f3fe608060405260043610620003445760003560e01c806301ffc9a714620003495780630331383c146200038357806308386eba14620003a45780630d12bbdb14620003bc5780630d4a8b4914620003e3578063175188e814620004085780631b71f0e4146200042d5780631f787d281462000452578063223e5479146200046d57806322bcf9991462000492578063248a9ca314620004b757806328c309e914620004dc5780632b38c69c14620004f45780632c611c4a14620005285780632f2ff15d146200056657806331f61bca146200058b5780633396045914620005b05780633419635514620005c85780633517aa7d14620005ed57806336568abe14620006055780633659cfe6146200062a578063397e2543146200064f5780633a871fe11462000674578063477a5cc014620006a95780634f1ef28614620006e9578063524e59e8146200070057806352d1902d1462000743578063559de05d146200075b578063579eb7e514620007805780635c94e4d214620007a55780635ecf71c514620007c857806365e3864c14620007ed5780636871eb4d146200082a57806368decabb146200084f5780636c53db9a1462000872578063715018a6146200089557806373265c3714620008ad578063733a2d1f14620008d257806377122d5614620008f75780637817ee4f146200091a57806378a0b8a914620009655780637b103999146200097d57806382d6a1e714620009a05780638659ffdd14620009c557806388cfe68414620009ea5780638961be6b1462000a605780638da5cb5b1462000a7857806391d148541462000a90578063a0cf0aea1462000ab5578063a217fddf1462000adf578063a230c5241462000af6578063b0d3713a1462000b1b578063b3f006741462000b40578063b5058c501462000b67578063b64e39af1462000b7f578063b99b43701462000ba6578063bc063e1a1462000bbe578063c4d66de81462000bd6578063c6d572ae1462000bfb578063d547741f1462000c13578063d6d8428d1462000c38578063d7050f071462000c5b578063db61d65c1462000c73578063e16d0e321462000c96578063ebd7dc521462000cbb578063f2fde38b1462000ce0578063f86c5f891462000d05578063ffa1ad741462000d28575b600080fd5b3480156200035657600080fd5b506200036e6200036836600462004506565b62000d59565b60405190151581526020015b60405180910390f35b3480156200039057600080fd5b5060fb545b6040519081526020016200037a565b348015620003b157600080fd5b506200039560fe5481565b348015620003c957600080fd5b50620003e1620003db36600462004532565b62000d91565b005b348015620003f057600080fd5b50620003e16200040236600462004574565b62000e07565b3480156200041557600080fd5b50620003e162000427366004620045b2565b62001196565b3480156200043a57600080fd5b50620003e16200044c366004620045b2565b620011ae565b3480156200045f57600080fd5b5060ff80546200036e911681565b3480156200047a57600080fd5b50620003e16200048c366004620045b2565b620011db565b3480156200049f57600080fd5b50620003e1620004b136600462004574565b620011f0565b348015620004c457600080fd5b5062000395620004d636600462004532565b620012ea565b348015620004e957600080fd5b5062000395620012ff565b3480156200050157600080fd5b506200051962000513366004620045d2565b62001404565b6040516200037a91906200460e565b3480156200053557600080fd5b506200039562000547366004620045b2565b6001600160a01b0316600090815261010c602052604090206001015490565b3480156200057357600080fd5b50620003e16200058536600462004622565b6200143e565b3480156200059857600080fd5b50620003e1620005aa36600462004532565b62001465565b348015620005bd57600080fd5b506200039560fd5481565b348015620005d557600080fd5b50620003e1620005e736600462004832565b620014a5565b348015620005fa57600080fd5b50620003e162001b65565b3480156200061257600080fd5b50620003e16200062436600462004622565b62001dc7565b3480156200063757600080fd5b50620003e162000649366004620045b2565b62001e45565b3480156200065c57600080fd5b50620003e16200066e366004620045b2565b62001f16565b3480156200068157600080fd5b506200036e62000693366004620045b2565b61010a6020526000908152604090205460ff1681565b348015620006b657600080fd5b506200036e620006c836600462004574565b61010e60209081526000928352604080842090915290825290205460ff1681565b620003e1620006fa366004620049c5565b62001f83565b3480156200070d57600080fd5b50620007256200071f36600462004c49565b62002044565b604080519283526001600160a01b039091166020830152016200037a565b3480156200075057600080fd5b506200039562002115565b3480156200076857600080fd5b50620003e16200077a36600462004532565b620021c6565b3480156200078d57600080fd5b50620007256200079f36600462004e2a565b62002412565b348015620007b257600080fd5b506101025462000519906001600160a01b031681565b348015620007d557600080fd5b50620003e1620007e736600462004532565b6200263c565b348015620007fa57600080fd5b50620003956200080c36600462004574565b61010b60209081526000928352604080842090915290825290205481565b3480156200083757600080fd5b50620003e16200084936600462004574565b620029d6565b3480156200085c57600080fd5b506101035462000519906001600160a01b031681565b3480156200087f57600080fd5b506101065462000519906001600160a01b031681565b348015620008a257600080fd5b50620003e162002b29565b348015620008ba57600080fd5b50620003e1620008cc36600462004532565b62002b3f565b348015620008df57600080fd5b506200039560008051602062005fb583398151915281565b3480156200090457600080fd5b506101015462000519906001600160a01b031681565b3480156200092757600080fd5b50620003956200093936600462004574565b6001600160a01b03918216600090815261010b6020908152604080832093909416825291909152205490565b3480156200097257600080fd5b506200039560fb5481565b3480156200098a57600080fd5b506101045462000519906001600160a01b031681565b348015620009ad57600080fd5b50620003e1620009bf36600462004532565b62002bdb565b348015620009d257600080fd5b5062000725620009e436600462004e9e565b62002c99565b348015620009f757600080fd5b5062000a3862000a09366004620045b2565b61010c602052600090815260409020805460018201546002909201546001600160a01b03909116919060ff1683565b604080516001600160a01b03909416845260208401929092521515908201526060016200037a565b34801562000a6d57600080fd5b506200039560fc5481565b34801562000a8557600080fd5b506200051962002e26565b34801562000a9d57600080fd5b506200036e62000aaf36600462004622565b62002ec1565b34801562000ac257600080fd5b506200051973eeeeeeeeeeeeeeeeeeeeeeeeeeeeeeeeeeeeeeee81565b34801562000aec57600080fd5b5062000395600081565b34801562000b0357600080fd5b506200036e62000b15366004620045b2565b62002eec565b34801562000b2857600080fd5b50620003e162000b3a366004620045b2565b62002f36565b34801562000b4d57600080fd5b5060ff54620005199061010090046001600160a01b031681565b34801562000b7457600080fd5b50620003e162002f63565b34801562000b8c57600080fd5b5062000b9762002f9a565b6040516200037a919062004f85565b34801562000bb357600080fd5b50620003e162003031565b34801562000bcb57600080fd5b50620003956200313b565b34801562000be357600080fd5b50620003e162000bf5366004620045b2565b6200314d565b34801562000c0857600080fd5b5062000b9762003182565b34801562000c2057600080fd5b50620003e162000c3236600462004622565b62003192565b34801562000c4557600080fd5b506101075462000519906001600160a01b031681565b34801562000c6857600080fd5b506200039561271081565b34801562000c8057600080fd5b506101055462000519906001600160a01b031681565b34801562000ca357600080fd5b506200072562000cb536600462004f9a565b620031b4565b34801562000cc857600080fd5b506200036e62000cda366004620045b2565b62003275565b34801562000ced57600080fd5b50620003e162000cff366004620045b2565b62003292565b34801562000d1257600080fd5b506101005462000519906001600160a01b031681565b34801562000d3557600080fd5b5062000b97604051806040016040528060038152602001620302e360ec1b81525081565b60006001600160e01b03198216637965db0b60e01b148062000d8b57506301ffc9a760e01b6001600160e01b03198316145b92915050565b62000d9b62003303565b62000daa612710600a62005023565b81111562000dcb5760405163fe925f7d60e01b815260040160405180910390fd5b60fc8190556040518181527f611668bfcf654a99c33cdb66c29ec37a5aae5c1287d2d9715a24e18cb4d806d6906020015b60405180910390a150565b62000e1162003340565b62000e1c826200339b565b62000e2781620033c4565b62000e333382620033ff565b62000e3e8162003432565b6001600160a01b03808316600090815261010e602090815260408083209385168352929052205460ff161562000e8757604051636adcde4b60e11b815260040160405180910390fd5b6001600160a01b03808316600090815261010c602090815260409182902082516060810184528154909416845260018101549184018290526002015460ff1615159183019190915260fb546003846001600160a01b031663c32921716040518163ffffffff1660e01b81526004016020604051808303816000875af115801562000f15573d6000803e3d6000fd5b505050506040513d601f19601f8201168201806040525081019062000f3b919062005053565b600381111562000f4f5762000f4f6200503d565b0362000fd45760405163782aadff60e01b81526001600160a01b0385169063782aadff9062000f8690889060009060040162005073565b6020604051808303816000875af115801562000fa6573d6000803e3d6000fd5b505050506040513d601f19601f8201168201806040525081019062000fcc91906200508c565b9050620010d0565b6000846001600160a01b031663c32921716040518163ffffffff1660e01b81526004016020604051808303816000875af115801562001017573d6000803e3d6000fd5b505050506040513d601f19601f820116820180604052508101906200103d919062005053565b60038111156200105157620010516200503d565b14620010d05760405163782aadff60e01b81526001600160a01b0385169063782aadff9062001087908890869060040162005073565b6020604051808303816000875af1158015620010a7573d6000803e3d6000fd5b505050506040513d601f19601f82011682018060405250810190620010cd91906200508c565b90505b6001600160a01b03808616600081815261010b6020908152604080832094891680845294825280832086905583835261010e82528083208584528252808320805460ff1916600190811790915593835261010d8252808320805494850181558352912090910180546001600160a01b031916909217909155517ff56fa57e85e169a12200d12d9921ec069b52e688f6d309d9dab7bceff54614ec906200117c90879087908590620050a6565b60405180910390a1505050620011926001606555565b5050565b620011a062003303565b620011ab8162003461565b50565b620011b8620034bf565b61010280546001600160a01b0319166001600160a01b0392909216919091179055565b620011e562003303565b620011ab8162003522565b620011fb826200339b565b620012068162003432565b620012123382620033ff565b6001600160a01b03808316600090815261010e602090815260408083209385168352929052205460ff166200125a57604051633048da7760e21b815260040160405180910390fd5b6001600160a01b03808316600081815261010e60209081526040808320948616808452948252808320805460ff1916905592825261010b815282822093825292909252812055620012ac8282620035b4565b7ede109bef4619f7e2cf00c8e5a50ca55f8deb44f87087eed414a91dbf8d1d1b8282604051620012de929190620050ca565b60405180910390a15050565b600090815260c9602052604090206001015490565b610100546000906001600160a01b0316816200131f612710606462005023565b60fc5460fb5462001331919062005023565b6200133d9190620050e4565b9050600062001350612710606462005023565b6040516302a64b8360e21b81526001600160a01b03851690630a992e0c906200137e9030906004016200460e565b602060405180830381865afa1580156200139c573d6000803e3d6000fd5b505050506040513d601f19601f82011682018060405250810190620013c291906200508c565b60fb54620013d1919062005023565b620013dd9190620050e4565b9050808260fb54620013f0919062005107565b620013fc919062005107565b935050505090565b61010d60205281600052604060002081815481106200142257600080fd5b6000918252602090912001546001600160a01b03169150829050565b6200144982620012ea565b6200145481620036ea565b620014608383620036f6565b505050565b6200146f62003303565b60fb8190556040518181527f5bcc2c453001fb0e2ba6266d56ecb411e7c6e15c8f9c3d301f93dd36ad25726f9060200162000dfc565b600054610100900460ff1615808015620014c65750600054600160ff909116105b80620014eb5750620014d83062003780565b158015620014eb575060005460ff166001145b620015545760405162461bcd60e51b815260206004820152602e60248201527f496e697469616c697a61626c653a20636f6e747261637420697320616c72656160448201526d191e481a5b9a5d1a585b1a5e995960921b60648201526084015b60405180910390fd5b6000805460ff19166001179055801562001578576000805461ff0019166101001790555b62001583826200314d565b6200158d6200378f565b62001597620037c3565b620015b360008051602062005fb58339815191526000620037ed565b620015c2856020015162003432565b620015d285610100015162003432565b8451620015df9062003432565b620015ee8560a0015162003432565b6060850151156200160857620016088560c0015162003432565b845161010780546001600160a01b039283166001600160a01b03199182161790915560208701516101058054919093169116179055604085015160000362001663576040516363868c5560e11b815260040160405180910390fd5b604085015160fb55606085015160fc5561014085015160ff805460ff191691151591909117905561012085015161010890620016a09082620051ab565b5061016085015161010990620016b79082620051ab565b5060a085015161010080546001600160a01b03199081166001600160a01b0393841617825560c088015160ff8054610100600160a81b03191691851684029190911790559087015161010680549092169281169290921790556200172c9060008051602062005fb583398151915290620036f6565b61010760009054906101000a90046001600160a01b03166001600160a01b0316635ab1bd536040518163ffffffff1660e01b8152600401602060405180830381865afa15801562001781573d6000803e3d6000fd5b505050506040513d601f19601f82011682018060405250810190620017a7919062005277565b61010480546001600160a01b0319166001600160a01b0392831617905561010654606091163b600003620018335760408051600380825260808201909252906020820160608036833701905050905033816000815181106200180d576200180d62005297565b60200260200101906001600160a01b031690816001600160a01b03168152505062001970565b610106546040805163a0e67e2b60e01b815290516000926001600160a01b03169163a0e67e2b91600480830192869291908290030181865afa1580156200187e573d6000803e3d6000fd5b505050506040513d6000823e601f3d908101601f19168201604052620018a89190810190620052ad565b905080516002620018ba919062005107565b6001600160401b03811115620018d457620018d46200464a565b604051908082528060200260200182016040528015620018fe578160200160208202803683370190505b50915060005b81518110156200196d5781818151811062001923576200192362005297565b602002602001015183828151811062001940576200194062005297565b6001600160a01b039092166020928302919091019091015280620019648162005346565b91505062001904565b50505b6101065481516001600160a01b03909116908290620019929060019062005362565b81518110620019a557620019a562005297565b60200260200101906001600160a01b031690816001600160a01b031681525050308160028351620019d7919062005362565b81518110620019ea57620019ea62005297565b6001600160a01b03928316602091820292909201015261010454608088015160e0890151604051633a92f65f60e01b81529290931692633a92f65f9262001a3d9291610108913090889060040162005464565b6020604051808303816000875af115801562001a5d573d6000803e3d6000fd5b505050506040513d601f19601f8201168201806040525081019062001a8391906200508c565b60fe55805162001a9c9061010f90602084019062004460565b5061010280546001600160a01b038088166001600160a01b03199283161790925561010180549287169290911691909117905560fe5460e08701516040517f2f2ffcb06f8a1d35e2716f6b43ef2c19bfa76467d8f66964ae12c2583ed032059262001b0e9290916101089190620054c4565b60405180910390a150801562001b5e576000805461ff0019169055604051600181527f7f26b83ff96e1f2b6a682f133852f6798a09c465da95921460cefb38474024989060200160405180910390a15b5050505050565b62001b6f62003340565b33600081815261010c602052604081206101005490916001600160a01b039091169062001ba0612710606462005023565b60fc5460fb5462001bb2919062005023565b62001bbe9190620050e4565b9050600062001bd1612710606462005023565b6040516302a64b8360e21b81526001600160a01b03851690630a992e0c9062001bff9030906004016200460e565b602060405180830381865afa15801562001c1d573d6000803e3d6000fd5b505050506040513d601f19601f8201168201806040525081019062001c4391906200508c565b60fb5462001c52919062005023565b62001c5e9190620050e4565b905062001c6b8562002eec565b62001db55760028401805460ff1916600190811790915560fb5490850181905562001cc59086903090849062001ca390879062005107565b62001caf919062005107565b610105546001600160a01b031692919062003842565b811562001cf25760ff546101055462001cf2916001600160a01b039182169161010090910416846200389e565b801562001d775762001d77836001600160a01b031663987435be6040518163ffffffff1660e01b8152600401602060405180830381865afa15801562001d3c573d6000803e3d6000fd5b505050506040513d601f19601f8201168201806040525081019062001d62919062005277565b610105546001600160a01b031690836200389e565b7f67e0244e28040fec15240cd4b6c04c776a2a0278caef23b59e8ada1df31f76898560fb5460405162001dac92919062005073565b60405180910390a15b505050505062001dc56001606555565b565b6001600160a01b038116331462001e395760405162461bcd60e51b815260206004820152602f60248201527f416363657373436f6e74726f6c3a2063616e206f6e6c792072656e6f756e636560448201526e103937b632b9903337b91039b2b63360891b60648201526084016200154b565b620011928282620038c0565b6001600160a01b037f000000000000000000000000000000000000000000000000000000000000000016300362001e905760405162461bcd60e51b81526004016200154b90620054f3565b7f00000000000000000000000000000000000000000000000000000000000000006001600160a01b031662001ec46200392a565b6001600160a01b03161462001eed5760405162461bcd60e51b81526004016200154b906200552e565b62001ef88162003947565b60408051600080825260208201909252620011ab9183919062003989565b62001f2062003303565b62001f2b8162003432565b61010380546001600160a01b0319166001600160a01b03838116918217909255610106546040517f83eac9fdaff0ac1017624b7eddeb9782e3d707cd894073cb7e8301a41c6e5cf89362000dfc9392169190620050ca565b6001600160a01b037f000000000000000000000000000000000000000000000000000000000000000016300362001fce5760405162461bcd60e51b81526004016200154b90620054f3565b7f00000000000000000000000000000000000000000000000000000000000000006001600160a01b0316620020026200392a565b6001600160a01b0316146200202b5760405162461bcd60e51b81526004016200154b906200552e565b620020368262003947565b620011928282600162003989565b610102546101075461010154600092839283926001600160a01b039283169263184b955960e01b92811691166200207a62002e26565b6040516024016200208e9392919062005569565b60408051601f198184030181529181526020820180516001600160e01b03166001600160e01b0319909416939093179092529051620020cd90620044c6565b620020da9291906200558c565b604051809103906000f080158015620020f7573d6000803e3d6000fd5b5090506200210881878787620031b4565b9250925050935093915050565b6000306001600160a01b037f00000000000000000000000000000000000000000000000000000000000000001614620021b25760405162461bcd60e51b815260206004820152603860248201527f555550535570677261646561626c653a206d757374206e6f742062652063616c6044820152771b1959081d1a1c9bdd59da0819195b1959d85d1958d85b1b60421b60648201526084016200154b565b5060008051602062005ff583398151915290565b620021d062003340565b620021da62003b01565b33600081815261010d60209081526040808320805482518185028101850190935280835291929091908301828280156200223e57602002820191906000526020600020905b81546001600160a01b031681526001909101906020018083116200221f575b50505050509050600080600090505b825181101562002379578281815181106200226c576200226c62005297565b60200260200101516001600160a01b031663782aadff85876040518363ffffffff1660e01b8152600401620022a392919062005073565b6020604051808303816000875af1158015620022c3573d6000803e3d6000fd5b505050506040513d601f19601f82011682018060405250810190620022e991906200508c565b9150811562002364576001600160a01b038416600090815261010b60205260408120845184929086908590811062002325576200232562005297565b60200260200101516001600160a01b03166001600160a01b0316815260200190815260200160002060008282546200235e919062005107565b90915550505b80620023708162005346565b9150506200224d565b506101055462002395906001600160a01b031684308762003842565b6001600160a01b038316600090815261010c602052604081206001018054869290620023c390849062005107565b90915550506040517f576605f9bfe8911e7508bed3763c7c5c8eb3b86e8b360b90a4bc6abe1104cb7f90620023fc908590879062005073565b60405180910390a1505050620011ab6001606555565b610102546101075461010154600092839283926001600160a01b039283169263184b955960e01b92811691166200244862002e26565b6040516024016200245c9392919062005569565b60408051601f198184030181529181526020820180516001600160e01b03166001600160e01b03199094169390931790925290516200249b90620044c6565b620024a89291906200558c565b604051809103906000f080158015620024c5573d6000803e3d6000fd5b509050620024d68187878762002c99565b60c087015191945092506001600160a01b0316620025a3576127108560e0015151111562002521578460e001515160405163107b111560e31b81526004016200154b91815260200190565b600083604051602001620025369190620055b2565b60405160208183030381529060405280519060200120905060005b8660e0015151811015620025a0576200258b828860e0015183815181106200257d576200257d62005297565b6020026020010151620036f6565b80620025978162005346565b91505062002551565b50505b620025ff83604051602001620025ba9190620055b2565b6040516020818303038152906040528051906020012084604051602001620025e39190620055cf565b60405160208183030381529060405280519060200120620037ed565b6200263383604051602001620026169190620055cf565b6040516020818303038152906040528051906020012083620036f6565b50935093915050565b6200264662003340565b6200265062003b01565b33600081815261010d6020908152604080832060fb5461010c90935290832060010154909291906200268490869062005362565b1015620026a457604051634e23e81760e11b815260040160405180910390fd5b61010554620026be906001600160a01b031684866200389e565b60005b82548110156200296e576000838281548110620026e257620026e262005297565b6000918252602090912001546001600160a01b031690506200270c8163f1801e6160e01b62003b2a565b156200289257604051632ed04b2b60e01b81526001600160a01b03821690632ed04b2b90620027429088908a9060040162005073565b6020604051808303816000875af115801562002762573d6000803e3d6000fd5b505050506040513d601f19601f820116820180604052508101906200278891906200508c565b9250600061010b6000876001600160a01b03166001600160a01b031681526020019081526020016000206000868581548110620027c957620027c962005297565b60009182526020808320909101546001600160a01b031683528201929092526040019020549050808411156200281d576040516311423e6360e31b815260048101859052602481018290526044016200154b565b6001600160a01b038616600090815261010b60205260408120865486929088908790811062002850576200285062005297565b60009182526020808320909101546001600160a01b03168352820192909252604001812080549091906200288690849062005362565b90915550505062002958565b83548490620028a49060019062005362565b81548110620028b757620028b762005297565b9060005260206000200160009054906101000a90046001600160a01b0316848381548110620028ea57620028ea62005297565b9060005260206000200160006101000a8154816001600160a01b0302191690836001600160a01b03160217905550838054806200292b576200292b620055f2565b600082815260209020810160001990810180546001600160a01b0319169055019055620029588162003461565b5080620029658162005346565b915050620026c1565b506001600160a01b038316600090815261010c6020526040812060010180548692906200299d90849062005362565b90915550506040517f6ee2c70b2d6b89ae808a2313aab43e925c06624271419cd665d85cfa1ae04ff890620023fc908590879062005073565b620029e062003340565b620029ea62003303565b60ff80541662002a0d576040516365b1ee3960e11b815260040160405180910390fd5b62002a188262002eec565b62002a3657604051636a5cfb6d60e01b815260040160405180910390fd5b6001600160a01b03808316600090815261010c60209081526040918290208251606081018452815490941684526001810154918401919091526002015460ff1615159082015262002a878362003b52565b6001600160a01b03808416600090815261010c60209081526040822080546001600160a01b031916815560018101929092556002909101805460ff191690558201516101055462002adc92169084906200389e565b7fb5946f249f8744efe9d14d49a483b54a589b1362944ff6694de93456cceb96a38383836020015160405162002b1593929190620050a6565b60405180910390a150620011926001606555565b62002b33620034bf565b62001dc5600062003c67565b62002b4962003303565b6101075460405163068bcd8d60e01b8152600481018390526000916001600160a01b03169063068bcd8d90602401600060405180830381865afa15801562002b95573d6000803e3d6000fd5b505050506040513d6000823e601f3d908101601f1916820160405262002bbf919081019062005608565b60200151905062002bd08162003432565b620011928162003461565b62002be562003303565b6101075460405163068bcd8d60e01b8152600481018390526000916001600160a01b03169063068bcd8d90602401600060405180830381865afa15801562002c31573d6000803e3d6000fd5b505050506040513d6000823e601f3d908101601f1916820160405262002c5b919081019062005608565b60200151905062002c6c8162003432565b62002c886001600160a01b03821663f1801e6160e01b62003b2a565b156200119257620011928162003522565b60008073eeeeeeeeeeeeeeeeeeeeeeeeeeeeeeeeeeeeeeee6001600160a01b0386161562002cc45750845b869150600061010f80548060200260200160405190810160405280929190818152602001828054801562002d2257602002820191906000526020600020905b81546001600160a01b0316815260019091019060200180831162002d03575b50506101075460fe546040519596506001600160a01b039091169463e1007d4a945090925087915062002d5a908b90602001620057d3565b6040516020818303038152906040528660008b886040518863ffffffff1660e01b815260040162002d9297969594939291906200587c565b6020604051808303816000875af115801562002db2573d6000803e3d6000fd5b505050506040513d601f19601f8201168201806040525081019062002dd891906200508c565b93507f778cac0ae0b66477341553a4a89398c61ccf448313d3354ad0ca85a5a825d2838484308a8960405162002e13959493929190620058ed565b60405180910390a1505094509492505050565b60008062002e3c6033546001600160a01b031690565b9050806001600160a01b03163b60000362002e5657919050565b806001600160a01b0316638da5cb5b6040518163ffffffff1660e01b8152600401602060405180830381865afa92505050801562002eb3575060408051601f3d908101601f1916820190925262002eb09181019062005277565b60015b62000d8b57919050565b5090565b600091825260c9602090815260408084206001600160a01b0393909316845291905290205460ff1690565b6001600160a01b03908116600090815261010c60209081526040918290208251606081018452815490941684526001810154918401919091526002015460ff161515910181905290565b62002f40620034bf565b61010180546001600160a01b0319166001600160a01b0392909216919091179055565b610103546001600160a01b0316331462002f90576040516375e686b760e11b815260040160405180910390fd5b62001dc562003cb9565b610109805462002faa906200511d565b80601f016020809104026020016040519081016040528092919081815260200182805462002fd8906200511d565b8015620030295780601f1062002ffd5761010080835404028352916020019162003029565b820191906000526020600020905b8154815290600101906020018083116200300b57829003601f168201915b505050505081565b6200303b62003340565b3362003047816200339b565b620030528162003b52565b6001600160a01b03808216600081815261010c602090815260408083208151606081018352815496871681526001820180548286015260028301805460ff81161515848701529787526001600160a01b03199098169092559084905560ff1990941690945561010d90529182209091620030cd9190620044d4565b602081015161010554620030ef916001600160a01b039091169084906200389e565b7fa13f4668aacb68c4e9eed8e3f6e1cbec3eca776896ec46b5eabcc3983fc8f5f48282602001516040516200312692919062005073565b60405180910390a1505062001dc56001606555565b6200314a612710600a62005023565b81565b600054610100900460ff16620031775760405162461bcd60e51b81526004016200154b9062005929565b620011ab8162003c67565b610108805462002faa906200511d565b6200319d82620012ea565b620031a881620036ea565b620014608383620038c0565b60008073eeeeeeeeeeeeeeeeeeeeeeeeeeeeeeeeeeeeeeee6001600160a01b03861615620031df5750845b869150600061010f8054806020026020016040519081016040528092919081815260200182805480156200323d57602002820191906000526020600020905b81546001600160a01b031681526001909101906020018083116200321e575b50506101075460fe546040519596506001600160a01b039091169463e1007d4a945090925087915062002d5a908b9060200162005974565b600062000d8b60008051602062005fb58339815191528362002ec1565b6200329c620034bf565b6001600160a01b038116620031775760405162461bcd60e51b815260206004820152602660248201527f4f776e61626c653a206e6577206f776e657220697320746865207a65726f206160448201526564647265737360d01b60648201526084016200154b565b6200331e60008051602062005fb58339815191523362002ec1565b62001dc5573360405163fc4be72f60e01b81526004016200154b91906200460e565b600260655403620033945760405162461bcd60e51b815260206004820152601f60248201527f5265656e7472616e637947756172643a207265656e7472616e742063616c6c0060448201526064016200154b565b6002606555565b620033a68162002eec565b620011ab57604051636a5cfb6d60e01b815260040160405180910390fd5b6001600160a01b038116600090815261010a602052604090205460ff16620011ab576040516346c26e4b60e01b815260040160405180910390fd5b806001600160a01b0316826001600160a01b031614620011925760405163bbe7961160e01b815260040160405180910390fd5b6001600160a01b038116620011ab576040516303988b8160e61b815260040160405180910390fd5b6001606555565b6200346c8162003432565b6001600160a01b038116600090815261010a602052604090819020805460ff19169055517f09a1db4b80c32706328728508c941a6b954f31eb5affd32f236c1fd405f8fea49062000dfc9083906200460e565b33620034ca62002e26565b6001600160a01b03161462001dc55760405162461bcd60e51b815260206004820181905260248201527f4f776e61626c653a2063616c6c6572206973206e6f7420746865206f776e657260448201526064016200154b565b6001600160a01b038116600090815261010a602052604090205460ff16156200355e576040516325a2934b60e21b815260040160405180910390fd5b6001600160a01b038116600090815261010a602052604090819020805460ff19166001179055517f3f008fd510eae7a9e7bee13513d7b83bef8003d488b5a3d0b0da4de71d6846f19062000dfc9083906200460e565b6001600160a01b038216600090815261010d60205260408120905b8154811015620036e457826001600160a01b0316828281548110620035f857620035f862005297565b6000918252602090912001546001600160a01b031603620036cf5781548290620036259060019062005362565b8154811062003638576200363862005297565b9060005260206000200160009054906101000a90046001600160a01b03168282815481106200366b576200366b62005297565b9060005260206000200160006101000a8154816001600160a01b0302191690836001600160a01b0316021790555081805480620036ac57620036ac620055f2565b600082815260209020810160001990810180546001600160a01b03191690550190555b80620036db8162005346565b915050620035cf565b50505050565b620011ab813362003d1d565b62003702828262002ec1565b6200119257600082815260c9602090815260408083206001600160a01b03851684529091529020805460ff191660011790556200373c3390565b6001600160a01b0316816001600160a01b0316837f2f8788117e7eff1d82e926ec794901d17c78024a50270940304540a733656f0d60405160405180910390a45050565b6001600160a01b03163b151590565b600054610100900460ff16620037b95760405162461bcd60e51b81526004016200154b9062005929565b62001dc562003d81565b600054610100900460ff1662001dc55760405162461bcd60e51b81526004016200154b9062005929565b6000620037fa83620012ea565b600084815260c96020526040808220600101859055519192508391839186917fbd79b86ffe0ab8e8776151514217cd7cacd52c909f66475c3af44e129f0b00ff9190a4505050565b620036e4846323b872dd60e01b8585856040516024016200386693929190620050a6565b60408051601f198184030181529190526020810180516001600160e01b03166001600160e01b03199093169290921790915262003dab565b620014608363a9059cbb60e01b84846040516024016200386692919062005073565b620038cc828262002ec1565b156200119257600082815260c9602090815260408083206001600160a01b0385168085529252808320805460ff1916905551339285917ff6391f5c32d9c69d2a47ea670b442974b53935d1edc7fd64eb21e047a839171b9190a45050565b60008051602062005ff5833981519152546001600160a01b031690565b336200395262002e26565b6001600160a01b031614620011ab57336200396c62002e26565b60405163163678e960e01b81526004016200154b929190620050ca565b7f4910fdfa16fed3260ed0e7147f7cc6da11a60208b5b9406d12a635614ffd91435460ff1615620039bf57620014608362003e87565b826001600160a01b03166352d1902d6040518163ffffffff1660e01b8152600401602060405180830381865afa92505050801562003a1c575060408051601f3d908101601f1916820190925262003a19918101906200508c565b60015b62003a815760405162461bcd60e51b815260206004820152602e60248201527f45524331393637557067726164653a206e657720696d706c656d656e7461746960448201526d6f6e206973206e6f74205555505360901b60648201526084016200154b565b60008051602062005ff5833981519152811462003af35760405162461bcd60e51b815260206004820152602960248201527f45524331393637557067726164653a20756e737570706f727465642070726f786044820152681a58589b195555525160ba1b60648201526084016200154b565b506200146083838362003f26565b62003b0c3362002eec565b62001dc557604051636a5cfb6d60e01b815260040160405180910390fd5b600062003b378362003f51565b801562003b4b575062003b4b838362003f89565b9392505050565b6001600160a01b038116600090815261010d602090815260408083208054825181850281018501909352808352919290919083018282801562003bbf57602002820191906000526020600020905b81546001600160a01b0316815260019091019060200180831162003ba0575b5050505050905060005b8151811015620014605781818151811062003be85762003be862005297565b60200260200101516001600160a01b0316636453d9c4846040518263ffffffff1660e01b815260040162003c1d91906200460e565b600060405180830381600087803b15801562003c3857600080fd5b505af115801562003c4d573d6000803e3d6000fd5b50505050808062003c5e9062005346565b91505062003bc9565b603380546001600160a01b038381166001600160a01b0319831681179093556040519116919082907f8be0079c531659141344cd1fd0a4f28419497f9722a3daafe3b4186f6b6457e090600090a35050565b610103805461010680546001600160a01b03199081166001600160a01b038416179091551690556040517fad0399dc40331b9a4977aa89da7a164a3fd482c65e6da73b25a94ea74fb688729062003d13906000906200460e565b60405180910390a1565b62003d29828262002ec1565b620011925762003d398162004014565b62003d4683602062004027565b60405160200162003d59929190620059fd565b60408051601f198184030181529082905262461bcd60e51b82526200154b9160040162004f85565b600054610100900460ff166200345a5760405162461bcd60e51b81526004016200154b9062005929565b600062003e02826040518060400160405280602081526020017f5361666545524332303a206c6f772d6c6576656c2063616c6c206661696c6564815250856001600160a01b0316620041e09092919063ffffffff16565b905080516000148062003e2657508080602001905181019062003e26919062005a70565b620014605760405162461bcd60e51b815260206004820152602a60248201527f5361666545524332303a204552433230206f7065726174696f6e20646964206e6044820152691bdd081cdd58d8d9595960b21b60648201526084016200154b565b62003e928162003780565b62003ef65760405162461bcd60e51b815260206004820152602d60248201527f455243313936373a206e657720696d706c656d656e746174696f6e206973206e60448201526c1bdd08184818dbdb9d1c9858dd609a1b60648201526084016200154b565b60008051602062005ff583398151915280546001600160a01b0319166001600160a01b0392909216919091179055565b62003f3183620041f9565b60008251118062003f3f5750805b156200146057620036e483836200423b565b600062003f66826301ffc9a760e01b62003f89565b801562000d8b575062003f82826001600160e01b031962003f89565b1592915050565b604080516001600160e01b03198316602480830191909152825180830390910181526044909101909152602080820180516001600160e01b03166301ffc9a760e01b178152825160009392849283928392918391908a617530fa92503d9150600051905082801562003ffc575060208210155b8015620040095750600081115b979650505050505050565b606062000d8b6001600160a01b03831660145b606060006200403883600262005023565b6200404590600262005107565b6001600160401b038111156200405f576200405f6200464a565b6040519080825280601f01601f1916602001820160405280156200408a576020820181803683370190505b509050600360fc1b81600081518110620040a857620040a862005297565b60200101906001600160f81b031916908160001a905350600f60fb1b81600181518110620040da57620040da62005297565b60200101906001600160f81b031916908160001a90535060006200410084600262005023565b6200410d90600162005107565b90505b60018111156200418f576f181899199a1a9b1b9c1cb0b131b232b360811b85600f166010811062004145576200414562005297565b1a60f81b8282815181106200415e576200415e62005297565b60200101906001600160f81b031916908160001a90535060049490941c93620041878162005a90565b905062004110565b50831562003b4b5760405162461bcd60e51b815260206004820181905260248201527f537472696e67733a20686578206c656e67746820696e73756666696369656e7460448201526064016200154b565b6060620041f1848460008562004263565b949350505050565b620042048162003e87565b6040516001600160a01b038216907fbc7cd75a20ee27fd9adebab32041f755214dbc6bffa90cc0225b39da2e5c2d3b90600090a250565b606062003b4b838360405180606001604052806027815260200162006015602791396200433b565b606082471015620042c65760405162461bcd60e51b815260206004820152602660248201527f416464726573733a20696e73756666696369656e742062616c616e636520666f6044820152651c8818d85b1b60d21b60648201526084016200154b565b600080866001600160a01b03168587604051620042e4919062005aaa565b60006040518083038185875af1925050503d806000811462004323576040519150601f19603f3d011682016040523d82523d6000602084013e62004328565b606091505b50915091506200400987838387620043b9565b6060600080856001600160a01b0316856040516200435a919062005aaa565b600060405180830381855af49150503d806000811462004397576040519150601f19603f3d011682016040523d82523d6000602084013e6200439c565b606091505b5091509150620043af86838387620043b9565b9695505050505050565b606083156200442d5782516000036200442557620043d78562003780565b620044255760405162461bcd60e51b815260206004820152601d60248201527f416464726573733a2063616c6c20746f206e6f6e2d636f6e747261637400000060448201526064016200154b565b5081620041f1565b620041f18383815115620044445781518083602001fd5b8060405162461bcd60e51b81526004016200154b919062004f85565b828054828255906000526020600020908101928215620044b8579160200282015b82811115620044b857825182546001600160a01b0319166001600160a01b0390911617825560209092019160019091019062004481565b5062002ebd929150620044ef565b6104ec8062005ac983390190565b5080546000825590600052602060002090810190620011ab91905b5b8082111562002ebd5760008155600101620044f0565b6000602082840312156200451957600080fd5b81356001600160e01b03198116811462003b4b57600080fd5b6000602082840312156200454557600080fd5b5035919050565b6001600160a01b0381168114620011ab57600080fd5b80356200456f816200454c565b919050565b600080604083850312156200458857600080fd5b823562004595816200454c565b91506020830135620045a7816200454c565b809150509250929050565b600060208284031215620045c557600080fd5b813562003b4b816200454c565b60008060408385031215620045e657600080fd5b8235620045f3816200454c565b946020939093013593505050565b6001600160a01b03169052565b6001600160a01b0391909116815260200190565b600080604083850312156200463657600080fd5b823591506020830135620045a7816200454c565b634e487b7160e01b600052604160045260246000fd5b604080519081016001600160401b03811182821017156200468557620046856200464a565b60405290565b60405161018081016001600160401b03811182821017156200468557620046856200464a565b60405160c081016001600160401b03811182821017156200468557620046856200464a565b60405161010081016001600160401b03811182821017156200468557620046856200464a565b604051601f8201601f191681016001600160401b03811182821017156200472757620047276200464a565b604052919050565b60006001600160401b038211156200474b576200474b6200464a565b50601f01601f191660200190565b6000620047706200476a846200472f565b620046fc565b90508281528383830111156200478557600080fd5b828260208301376000602084830101529392505050565b600082601f830112620047ae57600080fd5b62003b4b8383356020850162004759565b600060408284031215620047d257600080fd5b620047dc62004660565b82358152905060208201356001600160401b03811115620047fc57600080fd5b6200480a848285016200479c565b60208301525092915050565b8015158114620011ab57600080fd5b80356200456f8162004816565b600080600080608085870312156200484957600080fd5b84356001600160401b03808211156200486157600080fd5b9086019061018082890312156200487757600080fd5b620048816200468b565b6200488c8362004562565b81526200489c6020840162004562565b6020820152604083013560408201526060830135606082015260808301356080820152620048cd60a0840162004562565b60a0820152620048e060c0840162004562565b60c082015260e083013582811115620048f857600080fd5b620049068a828601620047bf565b60e0830152506101006200491c81850162004562565b9082015261012083810135838111156200493557600080fd5b620049438b8287016200479c565b8284015250506101406200495981850162004825565b9082015261016083810135838111156200497257600080fd5b620049808b8287016200479c565b8284015250508096505050506200499a6020860162004562565b9250620049aa6040860162004562565b9150620049ba6060860162004562565b905092959194509250565b60008060408385031215620049d957600080fd5b8235620049e6816200454c565b915060208301356001600160401b0381111562004a0257600080fd5b8301601f8101851362004a1457600080fd5b62004a258582356020840162004759565b9150509250929050565b60006080828403121562004a4257600080fd5b604051608081016001600160401b038111828210171562004a675762004a676200464a565b8060405250809150823581526020830135602082015260408301356040820152606083013560608201525092915050565b8035600381106200456f57600080fd5b60048110620011ab57600080fd5b80356200456f8162004aa8565b60006020828403121562004ad657600080fd5b604051602081016001600160401b038111828210171562004afb5762004afb6200464a565b6040529135825250919050565b600060c0828403121562004b1b57600080fd5b62004b25620046b1565b9050813562004b34816200454c565b8152602082013562004b46816200454c565b8060208301525060408201356040820152606082013560608201526080820135608082015260a082013560a082015292915050565b60006101e0828403121562004b8f57600080fd5b60405160e081016001600160401b038111828210171562004bb45762004bb46200464a565b60405290508062004bc6848462004a2f565b815262004bd66080840162004a98565b602082015260a083013562004beb8162004aa8565b604082015262004bff8460c0850162004ac3565b606082015262004c138460e0850162004b08565b60808201526101a083013562004c29816200454c565b60a082015262004c3d6101c0840162004562565b60c08201525092915050565b6000806000610220848603121562004c6057600080fd5b833562004c6d816200454c565b925062004c7e856020860162004b7b565b91506102008401356001600160401b0381111562004c9b57600080fd5b62004ca986828701620047bf565b9150509250925092565b60006001600160401b0382111562004ccf5762004ccf6200464a565b5060051b60200190565b600082601f83011262004ceb57600080fd5b8135602062004cfe6200476a8362004cb3565b82815260059290921b8401810191818101908684111562004d1e57600080fd5b8286015b8481101562004d4657803562004d38816200454c565b835291830191830162004d22565b509695505050505050565b6000610200828403121562004d6557600080fd5b62004d6f620046d6565b905062004d7d838362004a2f565b815262004d8d6080830162004a98565b602082015262004da060a0830162004ab6565b604082015262004db48360c0840162004ac3565b606082015262004dc88360e0840162004b08565b608082015262004ddc6101a0830162004562565b60a082015262004df06101c0830162004562565b60c08201526101e08201356001600160401b0381111562004e1057600080fd5b62004e1e8482850162004cd9565b60e08301525092915050565b60008060006060848603121562004e4057600080fd5b833562004e4d816200454c565b925060208401356001600160401b038082111562004e6a57600080fd5b62004e788783880162004d51565b9350604086013591508082111562004e8f57600080fd5b5062004ca986828701620047bf565b6000806000806080858703121562004eb557600080fd5b843562004ec2816200454c565b9350602085013562004ed4816200454c565b925060408501356001600160401b038082111562004ef157600080fd5b62004eff8883890162004d51565b9350606087013591508082111562004f1657600080fd5b5062004f2587828801620047bf565b91505092959194509250565b60005b8381101562004f4e57818101518382015260200162004f34565b50506000910152565b6000815180845262004f7181602086016020860162004f31565b601f01601f19169290920160200192915050565b60208152600062003b4b602083018462004f57565b600080600080610240858703121562004fb257600080fd5b843562004fbf816200454c565b9350602085013562004fd1816200454c565b925062004fe2866040870162004b7b565b91506102208501356001600160401b0381111562004fff57600080fd5b62004f2587828801620047bf565b634e487b7160e01b600052601160045260246000fd5b808202811582820484141762000d8b5762000d8b6200500d565b634e487b7160e01b600052602160045260246000fd5b6000602082840312156200506657600080fd5b815162003b4b8162004aa8565b6001600160a01b03929092168252602082015260400190565b6000602082840312156200509f57600080fd5b5051919050565b6001600160a01b039384168152919092166020820152604081019190915260600190565b6001600160a01b0392831681529116602082015260400190565b6000826200510257634e487b7160e01b600052601260045260246000fd5b500490565b8082018082111562000d8b5762000d8b6200500d565b600181811c908216806200513257607f821691505b6020821081036200515357634e487b7160e01b600052602260045260246000fd5b50919050565b601f8211156200146057600081815260208120601f850160051c81016020861015620051825750805b601f850160051c820191505b81811015620051a3578281556001016200518e565b505050505050565b81516001600160401b03811115620051c757620051c76200464a565b620051df81620051d884546200511d565b8462005159565b602080601f831160018114620052175760008415620051fe5750858301515b600019600386901b1c1916600185901b178555620051a3565b600085815260208120601f198616915b82811015620052485788860151825594840194600190910190840162005227565b5085821015620052675787850151600019600388901b60f8161c191681555b5050505050600190811b01905550565b6000602082840312156200528a57600080fd5b815162003b4b816200454c565b634e487b7160e01b600052603260045260246000fd5b60006020808385031215620052c157600080fd5b82516001600160401b03811115620052d857600080fd5b8301601f81018513620052ea57600080fd5b8051620052fb6200476a8262004cb3565b81815260059190911b820183019083810190878311156200531b57600080fd5b928401925b828410156200400957835162005336816200454c565b8252928401929084019062005320565b6000600182016200535b576200535b6200500d565b5060010190565b8181038181111562000d8b5762000d8b6200500d565b6000815462005387816200511d565b808552602060018381168015620053a75760018114620053c257620053f2565b60ff1985168884015283151560051b880183019550620053f2565b866000528260002060005b85811015620053ea5781548a8201860152908301908401620053cd565b890184019650505b505050505092915050565b805182526000602082015160406020850152620041f1604085018262004f57565b600081518084526020808501945080840160005b83811015620054595781516001600160a01b03168752958201959082019060010162005432565b509495945050505050565b85815260a0602082015260006200547f60a083018762005378565b8281036040840152620054938187620053fd565b6001600160a01b038616606085015283810360808501529050620054b881856200541e565b98975050505050505050565b838152606060208201526000620054df606083018562005378565b8281036040840152620043af8185620053fd565b6020808252602c9082015260008051602062005fd583398151915260408201526b19195b1959d85d1958d85b1b60a21b606082015260800190565b6020808252602c9082015260008051602062005fd583398151915260408201526b6163746976652070726f787960a01b606082015260800190565b6001600160a01b0393841681529183166020830152909116604082015260600190565b6001600160a01b0383168152604060208201819052600090620041f19083018462004f57565b6810531313d5d31254d560ba1b8152600981019190915260290190565b6e20a62627aba624a9aa2fa0a226a4a760891b8152600f810191909152602f0190565b634e487b7160e01b600052603160045260246000fd5b600060208083850312156200561c57600080fd5b82516001600160401b03808211156200563457600080fd5b9084019060c082870312156200564957600080fd5b62005653620046b1565b825181528383015162005666816200454c565b8185015260408301516200567a816200454c565b60408201526060830151828111156200569257600080fd5b830160408189031215620056a557600080fd5b620056af62004660565b815181528582015184811115620056c557600080fd5b82019350601f84018913620056d957600080fd5b83519150620056ec6200476a836200472f565b82815289878487010111156200570157600080fd5b620057128388830189880162004f31565b95810195909552506060810193909352506080818101519083015260a090810151908201529392505050565b805182526020810151602083015260408101516040830152606081015160608301525050565b600381106200577757620057776200503d565b9052565b600481106200577757620057776200503d565b80516001600160a01b0390811683526020808301519091169083015260408082015190830152606080820151908301526080808201519083015260a090810151910152565b60208152620057e76020820183516200573e565b60006020830151620057fd60a084018262005764565b5060408301516200581260c08401826200577b565b5060608301515160e08301526080830151620058336101008401826200578e565b5060a0830151620058496101c084018262004601565b5060c08301516200585f6101e084018262004601565b5060e083015161020083810152620041f16102208401826200541e565b878152600060018060a01b03808916602084015260e06040840152620058a660e084018962004f57565b818816606085015286608085015283810360a0850152620058c88187620053fd565b91505082810360c0840152620058df81856200541e565b9a9950505050505050505050565b8581526001600160a01b03858116602083015284811660408301528316606082015260a0608082018190526000906200400990830184620053fd565b6020808252602b908201527f496e697469616c697a61626c653a20636f6e7472616374206973206e6f74206960408201526a6e697469616c697a696e6760a81b606082015260800190565b60006101e0820190506200598a8284516200573e565b60208301516200599e608084018262005764565b506040830151620059b360a08401826200577b565b5060608301515160c08301526080830151620059d360e08401826200578e565b5060a08301516001600160a01b039081166101a084015260c0909301519092166101c09091015290565b76020b1b1b2b9b9a1b7b73a3937b61d1030b1b1b7bab73a1604d1b81526000835162005a3181601785016020880162004f31565b7001034b99036b4b9b9b4b733903937b6329607d1b601791840191820152835162005a6481602884016020880162004f31565b01602801949350505050565b60006020828403121562005a8357600080fd5b815162003b4b8162004816565b60008162005aa25762005aa26200500d565b506000190190565b6000825162005abe81846020870162004f31565b919091019291505056fe60806040526040516104ec3803806104ec833981016040819052610022916102e9565b61002e82826000610035565b5050610406565b61003e83610061565b60008251118061004b5750805b1561005c5761005a83836100a1565b505b505050565b61006a816100cd565b6040516001600160a01b038216907fbc7cd75a20ee27fd9adebab32041f755214dbc6bffa90cc0225b39da2e5c2d3b90600090a250565b60606100c683836040518060600160405280602781526020016104c56027913961017e565b9392505050565b6100d6816101f7565b61013d5760405162461bcd60e51b815260206004820152602d60248201527f455243313936373a206e657720696d706c656d656e746174696f6e206973206e60448201526c1bdd08184818dbdb9d1c9858dd609a1b60648201526084015b60405180910390fd5b7f360894a13ba1a3210667c828492db98dca3e2076cc3735a920a3ca505d382bbc80546001600160a01b0319166001600160a01b0392909216919091179055565b6060600080856001600160a01b03168560405161019b91906103b7565b600060405180830381855af49150503d80600081146101d6576040519150601f19603f3d011682016040523d82523d6000602084013e6101db565b606091505b5090925090506101ed86838387610206565b9695505050505050565b6001600160a01b03163b151590565b6060831561027357825160000361026c57610220856101f7565b61026c5760405162461bcd60e51b815260206004820152601d60248201527f416464726573733a2063616c6c20746f206e6f6e2d636f6e74726163740000006044820152606401610134565b508161027d565b61027d8383610285565b949350505050565b8151156102955781518083602001fd5b8060405162461bcd60e51b815260040161013491906103d3565b634e487b7160e01b600052604160045260246000fd5b60005b838110156102e05781810151838201526020016102c8565b50506000910152565b600080604083850312156102fc57600080fd5b82516001600160a01b038116811461031357600080fd5b60208401519092506001600160401b038082111561033057600080fd5b818501915085601f83011261034457600080fd5b815181811115610356576103566102af565b604051601f8201601f19908116603f0116810190838211818310171561037e5761037e6102af565b8160405282815288602084870101111561039757600080fd5b6103a88360208301602088016102c5565b80955050505050509250929050565b600082516103c98184602087016102c5565b9190910192915050565b60208152600082518060208401526103f28160408501602087016102c5565b601f01601f19169190910160400192915050565b60b1806104146000396000f3fe608060405236601057600e6013565b005b600e5b601f601b6021565b6058565b565b600060537f360894a13ba1a3210667c828492db98dca3e2076cc3735a920a3ca505d382bbc546001600160a01b031690565b905090565b3660008037600080366000845af43d6000803e8080156076573d6000f35b3d6000fdfea26469706673582212201907b9b897ce89ade4bf3402bd80309114b43f92050800a1634705536bb4b8d264736f6c63430008130033416464726573733a206c6f772d6c6576656c2064656c65676174652063616c6c206661696c656403be538b6391ddcd7f2649585cc95b120c9e2a613f70714fbb55345057d809fa46756e6374696f6e206d7573742062652063616c6c6564207468726f75676820360894a13ba1a3210667c828492db98dca3e2076cc3735a920a3ca505d382bbc416464726573733a206c6f772d6c6576656c2064656c65676174652063616c6c206661696c6564a264697066735822122095cf62e18079e19708cf7eb99dbf51617b08860320957b68f9c628b9d4a7b10364736f6c63430008130033","linkReferences":{}},"methodIdentifiers":{"COUNCIL_MEMBER()":"733a2d1f","DEFAULT_ADMIN_ROLE()":"a217fddf","MAX_FEE()":"bc063e1a","NATIVE()":"a0cf0aea","PRECISION_SCALE()":"d7050f07","VERSION()":"ffa1ad74","acceptCouncilSafe()":"b5058c50","activateMemberInStrategy(address,address)":"0d4a8b49","addStrategy(address)":"223e5479","addStrategyByPoolId(uint256)":"82d6a1e7","addressToMemberInfo(address)":"88cfe684","allo()":"d6d8428d","cloneNonce()":"33960459","collateralVaultTemplate()":"77122d56","communityFee()":"8961be6b","communityName()":"c6d572ae","councilSafe()":"6c53db9a","covenantIpfsHash()":"b64e39af","createPool(address,((uint256,uint256,uint256,uint256),uint8,uint8,(uint256),(address,address,uint256,uint256,uint256,uint256),address,address),(uint256,string))":"524e59e8","createPool(address,((uint256,uint256,uint256,uint256),uint8,uint8,(uint256),(address,address,uint256,uint256,uint256,uint256),address,address,address[]),(uint256,string))":"579eb7e5","createPool(address,address,((uint256,uint256,uint256,uint256),uint8,uint8,(uint256),(address,address,uint256,uint256,uint256,uint256),address,address),(uint256,string))":"e16d0e32","createPool(address,address,((uint256,uint256,uint256,uint256),uint8,uint8,(uint256),(address,address,uint256,uint256,uint256,uint256),address,address,address[]),(uint256,string))":"8659ffdd","deactivateMemberInStrategy(address,address)":"22bcf999","decreasePower(uint256)":"5ecf71c5","enabledStrategies(address)":"3a871fe1","feeReceiver()":"b3f00674","gardenToken()":"db61d65c","getBasisStakedAmount()":"0331383c","getMemberPowerInStrategy(address,address)":"7817ee4f","getMemberStakedAmount(address)":"2c611c4a","getRoleAdmin(bytes32)":"248a9ca3","getStakeAmountWithFees()":"28c309e9","grantRole(bytes32,address)":"2f2ff15d","hasRole(bytes32,address)":"91d14854","increasePower(uint256)":"559de05d","initialize((address,address,uint256,uint256,uint256,address,address,(uint256,string),address,string,bool,string),address,address,address)":"34196355","initialize(address)":"c4d66de8","isCouncilMember(address)":"ebd7dc52","isKickEnabled()":"1f787d28","isMember(address)":"a230c524","kickMember(address,address)":"6871eb4d","memberActivatedInStrategies(address,address)":"477a5cc0","memberPowerInStrategy(address,address)":"65e3864c","owner()":"8da5cb5b","pendingCouncilSafe()":"68decabb","profileId()":"08386eba","proxiableUUID()":"52d1902d","registerStakeAmount()":"78a0b8a9","registry()":"7b103999","registryFactory()":"f86c5f89","removeStrategy(address)":"175188e8","removeStrategyByPoolId(uint256)":"73265c37","renounceOwnership()":"715018a6","renounceRole(bytes32,address)":"36568abe","revokeRole(bytes32,address)":"d547741f","setBasisStakedAmount(uint256)":"31f61bca","setCollateralVaultTemplate(address)":"b0d3713a","setCommunityFee(uint256)":"0d12bbdb","setCouncilSafe(address)":"397e2543","setStrategyTemplate(address)":"1b71f0e4","stakeAndRegisterMember()":"3517aa7d","strategiesByMember(address,uint256)":"2b38c69c","strategyTemplate()":"5c94e4d2","supportsInterface(bytes4)":"01ffc9a7","transferOwnership(address)":"f2fde38b","unregisterMember()":"b99b4370","upgradeTo(address)":"3659cfe6","upgradeToAndCall(address,bytes)":"4f1ef286"},"storageLayout":{"storage":[{"astId":52990,"contract":"pkg/contracts/src/RegistryCommunity/RegistryCommunityV0_1.sol:RegistryCommunityV0_1","label":"_initialized","offset":0,"slot":"0","type":"t_uint8"},{"astId":52993,"contract":"pkg/contracts/src/RegistryCommunity/RegistryCommunityV0_1.sol:RegistryCommunityV0_1","label":"_initializing","offset":1,"slot":"0","type":"t_bool"},{"astId":53695,"contract":"pkg/contracts/src/RegistryCommunity/RegistryCommunityV0_1.sol:RegistryCommunityV0_1","label":"__gap","offset":0,"slot":"1","type":"t_array(t_uint256)50_storage"},{"astId":52782,"contract":"pkg/contracts/src/RegistryCommunity/RegistryCommunityV0_1.sol:RegistryCommunityV0_1","label":"_owner","offset":0,"slot":"51","type":"t_address"},{"astId":52902,"contract":"pkg/contracts/src/RegistryCommunity/RegistryCommunityV0_1.sol:RegistryCommunityV0_1","label":"__gap","offset":0,"slot":"52","type":"t_array(t_uint256)49_storage"},{"astId":53167,"contract":"pkg/contracts/src/RegistryCommunity/RegistryCommunityV0_1.sol:RegistryCommunityV0_1","label":"_status","offset":0,"slot":"101","type":"t_uint256"},{"astId":53236,"contract":"pkg/contracts/src/RegistryCommunity/RegistryCommunityV0_1.sol:RegistryCommunityV0_1","label":"__gap","offset":0,"slot":"102","type":"t_array(t_uint256)49_storage"},{"astId":53969,"contract":"pkg/contracts/src/RegistryCommunity/RegistryCommunityV0_1.sol:RegistryCommunityV0_1","label":"__gap","offset":0,"slot":"151","type":"t_array(t_uint256)50_storage"},{"astId":52389,"contract":"pkg/contracts/src/RegistryCommunity/RegistryCommunityV0_1.sol:RegistryCommunityV0_1","label":"_roles","offset":0,"slot":"201","type":"t_mapping(t_bytes32,t_struct(RoleData)52384_storage)"},{"astId":52696,"contract":"pkg/contracts/src/RegistryCommunity/RegistryCommunityV0_1.sol:RegistryCommunityV0_1","label":"__gap","offset":0,"slot":"202","type":"t_array(t_uint256)49_storage"},{"astId":71107,"contract":"pkg/contracts/src/RegistryCommunity/RegistryCommunityV0_1.sol:RegistryCommunityV0_1","label":"registerStakeAmount","offset":0,"slot":"251","type":"t_uint256"},{"astId":71110,"contract":"pkg/contracts/src/RegistryCommunity/RegistryCommunityV0_1.sol:RegistryCommunityV0_1","label":"communityFee","offset":0,"slot":"252","type":"t_uint256"},{"astId":71113,"contract":"pkg/contracts/src/RegistryCommunity/RegistryCommunityV0_1.sol:RegistryCommunityV0_1","label":"cloneNonce","offset":0,"slot":"253","type":"t_uint256"},{"astId":71116,"contract":"pkg/contracts/src/RegistryCommunity/RegistryCommunityV0_1.sol:RegistryCommunityV0_1","label":"profileId","offset":0,"slot":"254","type":"t_bytes32"},{"astId":71119,"contract":"pkg/contracts/src/RegistryCommunity/RegistryCommunityV0_1.sol:RegistryCommunityV0_1","label":"isKickEnabled","offset":0,"slot":"255","type":"t_bool"},{"astId":71122,"contract":"pkg/contracts/src/RegistryCommunity/RegistryCommunityV0_1.sol:RegistryCommunityV0_1","label":"feeReceiver","offset":1,"slot":"255","type":"t_address"},{"astId":71125,"contract":"pkg/contracts/src/RegistryCommunity/RegistryCommunityV0_1.sol:RegistryCommunityV0_1","label":"registryFactory","offset":0,"slot":"256","type":"t_address"},{"astId":71128,"contract":"pkg/contracts/src/RegistryCommunity/RegistryCommunityV0_1.sol:RegistryCommunityV0_1","label":"collateralVaultTemplate","offset":0,"slot":"257","type":"t_address"},{"astId":71131,"contract":"pkg/contracts/src/RegistryCommunity/RegistryCommunityV0_1.sol:RegistryCommunityV0_1","label":"strategyTemplate","offset":0,"slot":"258","type":"t_address"},{"astId":71134,"contract":"pkg/contracts/src/RegistryCommunity/RegistryCommunityV0_1.sol:RegistryCommunityV0_1","label":"pendingCouncilSafe","offset":0,"slot":"259","type":"t_address_payable"},{"astId":71138,"contract":"pkg/contracts/src/RegistryCommunity/RegistryCommunityV0_1.sol:RegistryCommunityV0_1","label":"registry","offset":0,"slot":"260","type":"t_contract(IRegistry)2802"},{"astId":71142,"contract":"pkg/contracts/src/RegistryCommunity/RegistryCommunityV0_1.sol:RegistryCommunityV0_1","label":"gardenToken","offset":0,"slot":"261","type":"t_contract(IERC20)56528"},{"astId":71146,"contract":"pkg/contracts/src/RegistryCommunity/RegistryCommunityV0_1.sol:RegistryCommunityV0_1","label":"councilSafe","offset":0,"slot":"262","type":"t_contract(ISafe)76585"},{"astId":71150,"contract":"pkg/contracts/src/RegistryCommunity/RegistryCommunityV0_1.sol:RegistryCommunityV0_1","label":"allo","offset":0,"slot":"263","type":"t_contract(FAllo)76318"},{"astId":71153,"contract":"pkg/contracts/src/RegistryCommunity/RegistryCommunityV0_1.sol:RegistryCommunityV0_1","label":"communityName","offset":0,"slot":"264","type":"t_string_storage"},{"astId":71156,"contract":"pkg/contracts/src/RegistryCommunity/RegistryCommunityV0_1.sol:RegistryCommunityV0_1","label":"covenantIpfsHash","offset":0,"slot":"265","type":"t_string_storage"},{"astId":71161,"contract":"pkg/contracts/src/RegistryCommunity/RegistryCommunityV0_1.sol:RegistryCommunityV0_1","label":"enabledStrategies","offset":0,"slot":"266","type":"t_mapping(t_address,t_bool)"},{"astId":71168,"contract":"pkg/contracts/src/RegistryCommunity/RegistryCommunityV0_1.sol:RegistryCommunityV0_1","label":"memberPowerInStrategy","offset":0,"slot":"267","type":"t_mapping(t_address,t_mapping(t_address,t_uint256))"},{"astId":71174,"contract":"pkg/contracts/src/RegistryCommunity/RegistryCommunityV0_1.sol:RegistryCommunityV0_1","label":"addressToMemberInfo","offset":0,"slot":"268","type":"t_mapping(t_address,t_struct(Member)70924_storage)"},{"astId":71180,"contract":"pkg/contracts/src/RegistryCommunity/RegistryCommunityV0_1.sol:RegistryCommunityV0_1","label":"strategiesByMember","offset":0,"slot":"269","type":"t_mapping(t_address,t_array(t_address)dyn_storage)"},{"astId":71187,"contract":"pkg/contracts/src/RegistryCommunity/RegistryCommunityV0_1.sol:RegistryCommunityV0_1","label":"memberActivatedInStrategies","offset":0,"slot":"270","type":"t_mapping(t_address,t_mapping(t_address,t_bool))"},{"astId":71191,"contract":"pkg/contracts/src/RegistryCommunity/RegistryCommunityV0_1.sol:RegistryCommunityV0_1","label":"initialMembers","offset":0,"slot":"271","type":"t_array(t_address)dyn_storage"},{"astId":72827,"contract":"pkg/contracts/src/RegistryCommunity/RegistryCommunityV0_1.sol:RegistryCommunityV0_1","label":"__gap","offset":0,"slot":"272","type":"t_array(t_uint256)50_storage"}],"types":{"t_address":{"encoding":"inplace","label":"address","numberOfBytes":"20"},"t_address_payable":{"encoding":"inplace","label":"address payable","numberOfBytes":"20"},"t_array(t_address)dyn_storage":{"encoding":"dynamic_array","label":"address[]","numberOfBytes":"32","base":"t_address"},"t_array(t_uint256)49_storage":{"encoding":"inplace","label":"uint256[49]","numberOfBytes":"1568","base":"t_uint256"},"t_array(t_uint256)50_storage":{"encoding":"inplace","label":"uint256[50]","numberOfBytes":"1600","base":"t_uint256"},"t_bool":{"encoding":"inplace","label":"bool","numberOfBytes":"1"},"t_bytes32":{"encoding":"inplace","label":"bytes32","numberOfBytes":"32"},"t_contract(FAllo)76318":{"encoding":"inplace","label":"contract FAllo","numberOfBytes":"20"},"t_contract(IERC20)56528":{"encoding":"inplace","label":"contract IERC20","numberOfBytes":"20"},"t_contract(IRegistry)2802":{"encoding":"inplace","label":"contract IRegistry","numberOfBytes":"20"},"t_contract(ISafe)76585":{"encoding":"inplace","label":"contract ISafe","numberOfBytes":"20"},"t_mapping(t_address,t_array(t_address)dyn_storage)":{"encoding":"mapping","key":"t_address","label":"mapping(address => address[])","numberOfBytes":"32","value":"t_array(t_address)dyn_storage"},"t_mapping(t_address,t_bool)":{"encoding":"mapping","key":"t_address","label":"mapping(address => bool)","numberOfBytes":"32","value":"t_bool"},"t_mapping(t_address,t_mapping(t_address,t_bool))":{"encoding":"mapping","key":"t_address","label":"mapping(address => mapping(address => bool))","numberOfBytes":"32","value":"t_mapping(t_address,t_bool)"},"t_mapping(t_address,t_mapping(t_address,t_uint256))":{"encoding":"mapping","key":"t_address","label":"mapping(address => mapping(address => uint256))","numberOfBytes":"32","value":"t_mapping(t_address,t_uint256)"},"t_mapping(t_address,t_struct(Member)70924_storage)":{"encoding":"mapping","key":"t_address","label":"mapping(address => struct Member)","numberOfBytes":"32","value":"t_struct(Member)70924_storage"},"t_mapping(t_address,t_uint256)":{"encoding":"mapping","key":"t_address","label":"mapping(address => uint256)","numberOfBytes":"32","value":"t_uint256"},"t_mapping(t_bytes32,t_struct(RoleData)52384_storage)":{"encoding":"mapping","key":"t_bytes32","label":"mapping(bytes32 => struct AccessControlUpgradeable.RoleData)","numberOfBytes":"32","value":"t_struct(RoleData)52384_storage"},"t_string_storage":{"encoding":"bytes","label":"string","numberOfBytes":"32"},"t_struct(Member)70924_storage":{"encoding":"inplace","label":"struct Member","numberOfBytes":"96","members":[{"astId":70919,"contract":"pkg/contracts/src/RegistryCommunity/RegistryCommunityV0_1.sol:RegistryCommunityV0_1","label":"member","offset":0,"slot":"0","type":"t_address"},{"astId":70921,"contract":"pkg/contracts/src/RegistryCommunity/RegistryCommunityV0_1.sol:RegistryCommunityV0_1","label":"stakedAmount","offset":0,"slot":"1","type":"t_uint256"},{"astId":70923,"contract":"pkg/contracts/src/RegistryCommunity/RegistryCommunityV0_1.sol:RegistryCommunityV0_1","label":"isRegistered","offset":0,"slot":"2","type":"t_bool"}]},"t_struct(RoleData)52384_storage":{"encoding":"inplace","label":"struct AccessControlUpgradeable.RoleData","numberOfBytes":"64","members":[{"astId":52381,"contract":"pkg/contracts/src/RegistryCommunity/RegistryCommunityV0_1.sol:RegistryCommunityV0_1","label":"members","offset":0,"slot":"0","type":"t_mapping(t_address,t_bool)"},{"astId":52383,"contract":"pkg/contracts/src/RegistryCommunity/RegistryCommunityV0_1.sol:RegistryCommunityV0_1","label":"adminRole","offset":0,"slot":"1","type":"t_bytes32"}]},"t_uint256":{"encoding":"inplace","label":"uint256","numberOfBytes":"32"},"t_uint8":{"encoding":"inplace","label":"uint8","numberOfBytes":"1"}}},"id":108}