{"abi":[{"type":"function","name":"COUNCIL_MEMBER","inputs":[],"outputs":[{"name":"","type":"bytes32","internalType":"bytes32"}],"stateMutability":"view"},{"type":"function","name":"DEFAULT_ADMIN_ROLE","inputs":[],"outputs":[{"name":"","type":"bytes32","internalType":"bytes32"}],"stateMutability":"view"},{"type":"function","name":"MAX_FEE","inputs":[],"outputs":[{"name":"","type":"uint256","internalType":"uint256"}],"stateMutability":"view"},{"type":"function","name":"NATIVE","inputs":[],"outputs":[{"name":"","type":"address","internalType":"address"}],"stateMutability":"view"},{"type":"function","name":"PRECISION_SCALE","inputs":[],"outputs":[{"name":"","type":"uint256","internalType":"uint256"}],"stateMutability":"view"},{"type":"function","name":"VERSION","inputs":[],"outputs":[{"name":"","type":"string","internalType":"string"}],"stateMutability":"view"},{"type":"function","name":"activateMemberInStrategy","inputs":[{"name":"_member","type":"address","internalType":"address"},{"name":"_strategy","type":"address","internalType":"address"}],"outputs":[],"stateMutability":"nonpayable"},{"type":"function","name":"addressToMemberInfo","inputs":[{"name":"member","type":"address","internalType":"address"}],"outputs":[{"name":"member","type":"address","internalType":"address"},{"name":"stakedAmount","type":"uint256","internalType":"uint256"},{"name":"isRegistered","type":"bool","internalType":"bool"}],"stateMutability":"view"},{"type":"function","name":"allo","inputs":[],"outputs":[{"name":"","type":"address","internalType":"contract FAllo"}],"stateMutability":"view"},{"type":"function","name":"cloneNonce","inputs":[],"outputs":[{"name":"","type":"uint256","internalType":"uint256"}],"stateMutability":"view"},{"type":"function","name":"collateralVaultTemplate","inputs":[],"outputs":[{"name":"","type":"address","internalType":"address"}],"stateMutability":"view"},{"type":"function","name":"communityFee","inputs":[],"outputs":[{"name":"","type":"uint256","internalType":"uint256"}],"stateMutability":"view"},{"type":"function","name":"communityName","inputs":[],"outputs":[{"name":"","type":"string","internalType":"string"}],"stateMutability":"view"},{"type":"function","name":"councilSafe","inputs":[],"outputs":[{"name":"","type":"address","internalType":"contract ISafe"}],"stateMutability":"view"},{"type":"function","name":"covenantIpfsHash","inputs":[],"outputs":[{"name":"","type":"string","internalType":"string"}],"stateMutability":"view"},{"type":"function","name":"deactivateMemberInStrategy","inputs":[{"name":"_member","type":"address","internalType":"address"},{"name":"_strategy","type":"address","internalType":"address"}],"outputs":[],"stateMutability":"nonpayable"},{"type":"function","name":"decreasePower","inputs":[{"name":"_amountUnstaked","type":"uint256","internalType":"uint256"}],"outputs":[],"stateMutability":"nonpayable"},{"type":"function","name":"enabledStrategies","inputs":[{"name":"strategy","type":"address","internalType":"address"}],"outputs":[{"name":"isEnabled","type":"bool","internalType":"bool"}],"stateMutability":"view"},{"type":"function","name":"ercAddress","inputs":[],"outputs":[{"name":"","type":"address","internalType":"address"}],"stateMutability":"view"},{"type":"function","name":"feeReceiver","inputs":[],"outputs":[{"name":"","type":"address","internalType":"address"}],"stateMutability":"view"},{"type":"function","name":"gardenToken","inputs":[],"outputs":[{"name":"","type":"address","internalType":"contract IERC20"}],"stateMutability":"view"},{"type":"function","name":"getMemberPowerInStrategy","inputs":[{"name":"_member","type":"address","internalType":"address"},{"name":"_strategy","type":"address","internalType":"address"}],"outputs":[{"name":"","type":"uint256","internalType":"uint256"}],"stateMutability":"view"},{"type":"function","name":"getMemberStakedAmount","inputs":[{"name":"_member","type":"address","internalType":"address"}],"outputs":[{"name":"","type":"uint256","internalType":"uint256"}],"stateMutability":"view"},{"type":"function","name":"getRoleAdmin","inputs":[{"name":"role","type":"bytes32","internalType":"bytes32"}],"outputs":[{"name":"","type":"bytes32","internalType":"bytes32"}],"stateMutability":"view"},{"type":"function","name":"grantRole","inputs":[{"name":"role","type":"bytes32","internalType":"bytes32"},{"name":"account","type":"address","internalType":"address"}],"outputs":[],"stateMutability":"nonpayable"},{"type":"function","name":"hasRole","inputs":[{"name":"role","type":"bytes32","internalType":"bytes32"},{"name":"account","type":"address","internalType":"address"}],"outputs":[{"name":"","type":"bool","internalType":"bool"}],"stateMutability":"view"},{"type":"function","name":"increasePower","inputs":[{"name":"_amountStaked","type":"uint256","internalType":"uint256"}],"outputs":[],"stateMutability":"nonpayable"},{"type":"function","name":"initialize","inputs":[{"name":"initialOwner","type":"address","internalType":"address"}],"outputs":[],"stateMutability":"nonpayable"},{"type":"function","name":"isKickEnabled","inputs":[],"outputs":[{"name":"","type":"bool","internalType":"bool"}],"stateMutability":"view"},{"type":"function","name":"isRegisteredMember","inputs":[{"name":"_member","type":"address","internalType":"address"}],"outputs":[{"name":"","type":"bool","internalType":"bool"}],"stateMutability":"view"},{"type":"function","name":"memberActivatedInStrategies","inputs":[{"name":"member","type":"address","internalType":"address"},{"name":"strategy","type":"address","internalType":"address"}],"outputs":[{"name":"isActivated","type":"bool","internalType":"bool"}],"stateMutability":"view"},{"type":"function","name":"memberPowerInStrategy","inputs":[{"name":"strategy","type":"address","internalType":"address"},{"name":"member","type":"address","internalType":"address"}],"outputs":[{"name":"power","type":"uint256","internalType":"uint256"}],"stateMutability":"view"},{"type":"function","name":"owner","inputs":[],"outputs":[{"name":"","type":"address","internalType":"address"}],"stateMutability":"view"},{"type":"function","name":"pendingCouncilSafe","inputs":[],"outputs":[{"name":"","type":"address","internalType":"address payable"}],"stateMutability":"view"},{"type":"function","name":"profileId","inputs":[],"outputs":[{"name":"","type":"bytes32","internalType":"bytes32"}],"stateMutability":"view"},{"type":"function","name":"proxiableUUID","inputs":[],"outputs":[{"name":"","type":"bytes32","internalType":"bytes32"}],"stateMutability":"view"},{"type":"function","name":"proxyOwner","inputs":[],"outputs":[{"name":"","type":"address","internalType":"address"}],"stateMutability":"view"},{"type":"function","name":"registerStakeAmount","inputs":[],"outputs":[{"name":"","type":"uint256","internalType":"uint256"}],"stateMutability":"view"},{"type":"function","name":"registry","inputs":[],"outputs":[{"name":"","type":"address","internalType":"contract IRegistry"}],"stateMutability":"view"},{"type":"function","name":"registryFactory","inputs":[],"outputs":[{"name":"","type":"address","internalType":"address"}],"stateMutability":"view"},{"type":"function","name":"renounceOwnership","inputs":[],"outputs":[],"stateMutability":"nonpayable"},{"type":"function","name":"renounceRole","inputs":[{"name":"role","type":"bytes32","internalType":"bytes32"},{"name":"account","type":"address","internalType":"address"}],"outputs":[],"stateMutability":"nonpayable"},{"type":"function","name":"revokeRole","inputs":[{"name":"role","type":"bytes32","internalType":"bytes32"},{"name":"account","type":"address","internalType":"address"}],"outputs":[],"stateMutability":"nonpayable"},{"type":"function","name":"strategiesByMember","inputs":[{"name":"member","type":"address","internalType":"address"},{"name":"","type":"uint256","internalType":"uint256"}],"outputs":[{"name":"strategiesAddresses","type":"address","internalType":"address"}],"stateMutability":"view"},{"type":"function","name":"strategyTemplate","inputs":[],"outputs":[{"name":"","type":"address","internalType":"address"}],"stateMutability":"view"},{"type":"function","name":"supportsInterface","inputs":[{"name":"interfaceId","type":"bytes4","internalType":"bytes4"}],"outputs":[{"name":"","type":"bool","internalType":"bool"}],"stateMutability":"view"},{"type":"function","name":"totalMembers","inputs":[],"outputs":[{"name":"","type":"uint256","internalType":"uint256"}],"stateMutability":"view"},{"type":"function","name":"transferOwnership","inputs":[{"name":"newOwner","type":"address","internalType":"address"}],"outputs":[],"stateMutability":"nonpayable"},{"type":"function","name":"upgradeTo","inputs":[{"name":"newImplementation","type":"address","internalType":"address"}],"outputs":[],"stateMutability":"nonpayable"},{"type":"function","name":"upgradeToAndCall","inputs":[{"name":"newImplementation","type":"address","internalType":"address"},{"name":"data","type":"bytes","internalType":"bytes"}],"outputs":[],"stateMutability":"payable"},{"type":"event","name":"AdminChanged","inputs":[{"name":"previousAdmin","type":"address","indexed":false,"internalType":"address"},{"name":"newAdmin","type":"address","indexed":false,"internalType":"address"}],"anonymous":false},{"type":"event","name":"BeaconUpgraded","inputs":[{"name":"beacon","type":"address","indexed":true,"internalType":"address"}],"anonymous":false},{"type":"event","name":"Initialized","inputs":[{"name":"version","type":"uint8","indexed":false,"internalType":"uint8"}],"anonymous":false},{"type":"event","name":"MemberActivatedStrategy","inputs":[{"name":"_member","type":"address","indexed":false,"internalType":"address"},{"name":"_strategy","type":"address","indexed":false,"internalType":"address"},{"name":"_pointsToIncrease","type":"uint256","indexed":false,"internalType":"uint256"}],"anonymous":false},{"type":"event","name":"MemberDeactivatedStrategy","inputs":[{"name":"_member","type":"address","indexed":false,"internalType":"address"},{"name":"_strategy","type":"address","indexed":false,"internalType":"address"}],"anonymous":false},{"type":"event","name":"MemberPowerDecreased","inputs":[{"name":"_member","type":"address","indexed":false,"internalType":"address"},{"name":"_unstakedAmount","type":"uint256","indexed":false,"internalType":"uint256"}],"anonymous":false},{"type":"event","name":"MemberPowerIncreased","inputs":[{"name":"_member","type":"address","indexed":false,"internalType":"address"},{"name":"_stakedAmount","type":"uint256","indexed":false,"internalType":"uint256"}],"anonymous":false},{"type":"event","name":"OwnershipTransferred","inputs":[{"name":"previousOwner","type":"address","indexed":true,"internalType":"address"},{"name":"newOwner","type":"address","indexed":true,"internalType":"address"}],"anonymous":false},{"type":"event","name":"RoleAdminChanged","inputs":[{"name":"role","type":"bytes32","indexed":true,"internalType":"bytes32"},{"name":"previousAdminRole","type":"bytes32","indexed":true,"internalType":"bytes32"},{"name":"newAdminRole","type":"bytes32","indexed":true,"internalType":"bytes32"}],"anonymous":false},{"type":"event","name":"RoleGranted","inputs":[{"name":"role","type":"bytes32","indexed":true,"internalType":"bytes32"},{"name":"account","type":"address","indexed":true,"internalType":"address"},{"name":"sender","type":"address","indexed":true,"internalType":"address"}],"anonymous":false},{"type":"event","name":"RoleRevoked","inputs":[{"name":"role","type":"bytes32","indexed":true,"internalType":"bytes32"},{"name":"account","type":"address","indexed":true,"internalType":"address"},{"name":"sender","type":"address","indexed":true,"internalType":"address"}],"anonymous":false},{"type":"event","name":"Upgraded","inputs":[{"name":"implementation","type":"address","indexed":true,"internalType":"address"}],"anonymous":false},{"type":"error","name":"CallerNotOwner","inputs":[{"name":"_caller","type":"address","internalType":"address"},{"name":"_owner","type":"address","internalType":"address"}]},{"type":"error","name":"CantDecreaseMoreThanPower","inputs":[{"name":"_decreaseAmount","type":"uint256","internalType":"uint256"},{"name":"_currentPower","type":"uint256","internalType":"uint256"}]},{"type":"error","name":"CommunityPaused","inputs":[{"name":"controller","type":"address","internalType":"address"}]},{"type":"error","name":"CommunitySelectorPaused","inputs":[{"name":"selector","type":"bytes4","internalType":"bytes4"},{"name":"controller","type":"address","internalType":"address"}]},{"type":"error","name":"DecreaseUnderMinimum","inputs":[]},{"type":"error","name":"PointsDeactivated","inputs":[]},{"type":"error","name":"SenderNotStrategy","inputs":[]},{"type":"error","name":"StrategyDisabled","inputs":[]},{"type":"error","name":"UserAlreadyActivated","inputs":[]},{"type":"error","name":"UserNotInRegistry","inputs":[]}],"bytecode":{"object":"0x60a06040523060805234801562000014575f80fd5b506200001f62000025565b620000e3565b5f54610100900460ff1615620000915760405162461bcd60e51b815260206004820152602760248201527f496e697469616c697a61626c653a20636f6e747261637420697320696e697469604482015266616c697a696e6760c81b606482015260840160405180910390fd5b5f5460ff90811614620000e1575f805460ff191660ff9081179091556040519081527f7f26b83ff96e1f2b6a682f133852f6798a09c465da95921460cefb38474024989060200160405180910390a15b565b6080516127de620001185f395f8181610eb401528181610ef401528181610f7b01528181610fbb015261103201526127de5ff3fe608060405260043610610238575f3560e01c806301ffc9a71461023c578063025313a21461027057806308386eba1461029c5780630d4a8b49146102bf5780631f787d28146102e057806322bcf999146102f8578063248a9ca3146103175780632b38c69c146103365780632c611c4a146103555780632f2ff15d1461038d57806333960459146103ac57806336568abe146103c15780633659cfe6146103e05780633a871fe1146103ff578063477a5cc01461042e5780634f1ef2861461046857806352d1902d1461047b578063559de05d1461048f5780635c94e4d2146104ae5780635ecf71c5146104ce57806365e3864c146104ed57806368decabb146105245780636a6b9a61146105445780636c53db9a14610563578063715018a614610583578063733a2d1f1461059757806376e92559146105ca57806377122d56146105e05780637817ee4f1461060057806378a0b8a9146106455780637b1039991461065a57806388cfe6841461067a5780638961be6b146106e95780638da5cb5b146106fe57806391d1485414610712578063a0cf0aea14610731578063a217fddf14610758578063b3f006741461076b578063b64e39af1461078f578063bc063e1a146107b0578063c4d66de8146107c4578063c6d572ae146107e3578063d547741f146107f7578063d6d8428d14610816578063d7050f0714610836578063db61d65c1461084b578063eb5cbe431461086b578063f2fde38b14610889578063f86c5f89146108a8578063ffa1ad74146108c8575b5f80fd5b348015610247575f80fd5b5061025b6102563660046122cd565b6108f6565b60405190151581526020015b60405180910390f35b34801561027b575f80fd5b5061028461092c565b6040516001600160a01b039091168152602001610267565b3480156102a7575f80fd5b506102b160fe5481565b604051908152602001610267565b3480156102ca575f80fd5b506102de6102d9366004612308565b610944565b005b3480156102eb575f80fd5b5060ff805461025b911681565b348015610303575f80fd5b506102de610312366004612308565b610cfe565b348015610322575f80fd5b506102b161033136600461233f565b610dbd565b348015610341575f80fd5b50610284610350366004612356565b610dd1565b348015610360575f80fd5b506102b161036f366004612380565b6001600160a01b03165f90815261010c602052604090206001015490565b348015610398575f80fd5b506102de6103a736600461239b565b610e06565b3480156103b7575f80fd5b506102b160fd5481565b3480156103cc575f80fd5b506102de6103db36600461239b565b610e27565b3480156103eb575f80fd5b506102de6103fa366004612380565b610eaa565b34801561040a575f80fd5b5061025b610419366004612380565b61010a6020525f908152604090205460ff1681565b348015610439575f80fd5b5061025b610448366004612308565b61010e60209081525f928352604080842090915290825290205460ff1681565b6102de6104763660046123d2565b610f71565b348015610486575f80fd5b506102b1611026565b34801561049a575f80fd5b506102de6104a936600461233f565b6110d2565b3480156104b9575f80fd5b5061010254610284906001600160a01b031681565b3480156104d9575f80fd5b506102de6104e836600461233f565b61127c565b3480156104f8575f80fd5b506102b1610507366004612308565b61010b60209081525f928352604080842090915290825290205481565b34801561052f575f80fd5b5061010354610284906001600160a01b031681565b34801561054f575f80fd5b5061025b61055e366004612380565b6114f4565b34801561056e575f80fd5b5061010654610284906001600160a01b031681565b34801561058e575f80fd5b506102de611515565b3480156105a2575f80fd5b506102b17f03be538b6391ddcd7f2649585cc95b120c9e2a613f70714fbb55345057d809fa81565b3480156105d5575f80fd5b506102b16101105481565b3480156105eb575f80fd5b5061010154610284906001600160a01b031681565b34801561060b575f80fd5b506102b161061a366004612308565b6001600160a01b039182165f90815261010b6020908152604080832093909416825291909152205490565b348015610650575f80fd5b506102b160fb5481565b348015610665575f80fd5b5061010454610284906001600160a01b031681565b348015610685575f80fd5b506106c2610694366004612380565b61010c6020525f90815260409020805460018201546002909201546001600160a01b03909116919060ff1683565b604080516001600160a01b0390941684526020840192909252151590820152606001610267565b3480156106f4575f80fd5b506102b160fc5481565b348015610709575f80fd5b50610284611528565b34801561071d575f80fd5b5061025b61072c36600461239b565b6115bb565b34801561073c575f80fd5b5061028473eeeeeeeeeeeeeeeeeeeeeeeeeeeeeeeeeeeeeeee81565b348015610763575f80fd5b506102b15f81565b348015610776575f80fd5b5060ff546102849061010090046001600160a01b031681565b34801561079a575f80fd5b506107a36115e5565b60405161026791906124b1565b3480156107bb575f80fd5b506102b1611672565b3480156107cf575f80fd5b506102de6107de366004612380565b611682565b3480156107ee575f80fd5b506107a361178e565b348015610802575f80fd5b506102de61081136600461239b565b61179c565b348015610821575f80fd5b5061010754610284906001600160a01b031681565b348015610841575f80fd5b506102b161271081565b348015610856575f80fd5b5061010554610284906001600160a01b031681565b348015610876575f80fd5b50610105546001600160a01b0316610284565b348015610894575f80fd5b506102de6108a3366004612380565b6117b8565b3480156108b3575f80fd5b5061010054610284906001600160a01b031681565b3480156108d3575f80fd5b506107a3604051806040016040528060038152602001620302e360ec1b81525081565b5f6001600160e01b03198216637965db0b60e01b148061092657506301ffc9a760e01b6001600160e01b03198316145b92915050565b5f61093f6033546001600160a01b031690565b905090565b61094d8261182e565b61095681611854565b610960338261188d565b6001600160a01b038083165f90815261010e602090815260408083209385168352929052205460ff16156109a757604051636adcde4b60e11b815260040160405180910390fd5b6001600160a01b038083165f90815261010c602090815260408083208151606081018352815486168152600182015481850181905260029092015460ff1615158184015260fb54835163c329217160e01b8152935191969295909490939288169263c329217192600480830193928290030181865afa158015610a2c573d5f803e3d5ffd5b505050506040513d601f19601f82011682018060405250810190610a5091906124e3565b90506004816004811115610a6657610a66612501565b03610ae05760405163782aadff60e01b81526001600160a01b0386169063782aadff90610a999089905f90600401612515565b6020604051808303815f875af1158015610ab5573d5f803e3d5ffd5b505050506040513d601f19601f82011682018060405250810190610ad9919061252e565b9150610bb0565b6003816004811115610af457610af4612501565b03610b275760405163782aadff60e01b81526001600160a01b0386169063782aadff90610a999089905f90600401612515565b5f816004811115610b3a57610b3a612501565b14610bb05760405163782aadff60e01b81526001600160a01b0386169063782aadff90610b6d9089908790600401612515565b6020604051808303815f875af1158015610b89573d5f803e3d5ffd5b505050506040513d601f19601f82011682018060405250810190610bad919061252e565b91505b6001600160a01b038087165f81815261010b60209081526040808320948a1680845294825280832087905592825261010e8152828220938252929092528120805460ff19166001179055805b6001600160a01b0388165f90815261010d6020526040902054811015610c75576001600160a01b038881165f90815261010d6020526040902080549189169183908110610c4b57610c4b612545565b5f918252602090912001546001600160a01b031603610c6d5760019150610c75565b600101610bfc565b5080610cba576001600160a01b038781165f90815261010d602090815260408220805460018101825590835291200180546001600160a01b0319169188169190911790555b7ff56fa57e85e169a12200d12d9921ec069b52e688f6d309d9dab7bceff54614ec878785604051610ced93929190612559565b60405180910390a150505050505050565b610d08338261188d565b6001600160a01b038083165f90815261010e602090815260408083209385168352929052205460ff16610d39575050565b6001600160a01b038083165f81815261010e60209081526040808320948616808452948252808320805460ff1916905592825261010b81528282209382529290925280822091909155517ede109bef4619f7e2cf00c8e5a50ca55f8deb44f87087eed414a91dbf8d1d1b90610db1908490849061257d565b60405180910390a15050565b5f90815260c9602052604090206001015490565b61010d602052815f5260405f208181548110610deb575f80fd5b5f918252602090912001546001600160a01b03169150829050565b610e0f82610dbd565b610e18816118bf565b610e2283836118c9565b505050565b6001600160a01b0381163314610e9c5760405162461bcd60e51b815260206004820152602f60248201527f416363657373436f6e74726f6c3a2063616e206f6e6c792072656e6f756e636560448201526e103937b632b9903337b91039b2b63360891b60648201526084015b60405180910390fd5b610ea6828261194e565b5050565b6001600160a01b037f0000000000000000000000000000000000000000000000000000000000000000163003610ef25760405162461bcd60e51b8152600401610e9390612597565b7f00000000000000000000000000000000000000000000000000000000000000006001600160a01b0316610f246119b4565b6001600160a01b031614610f4a5760405162461bcd60e51b8152600401610e93906125d0565b610f53816119cf565b604080515f80825260208201909252610f6e91839190611a0a565b50565b6001600160a01b037f0000000000000000000000000000000000000000000000000000000000000000163003610fb95760405162461bcd60e51b8152600401610e9390612597565b7f00000000000000000000000000000000000000000000000000000000000000006001600160a01b0316610feb6119b4565b6001600160a01b0316146110115760405162461bcd60e51b8152600401610e93906125d0565b61101a826119cf565b610ea682826001611a0a565b5f306001600160a01b037f000000000000000000000000000000000000000000000000000000000000000016146110c05760405162461bcd60e51b815260206004820152603860248201527f555550535570677261646561626c653a206d757374206e6f742062652063616c6044820152771b1959081d1a1c9bdd59da0819195b1959d85d1958d85b1b60421b6064820152608401610e93565b505f8051602061278b83398151915290565b6110da611b74565b335f805b6001600160a01b0383165f90815261010d60205260409020548110156111f3576001600160a01b0383165f90815261010d6020526040812080548390811061112857611128612545565b5f9182526020909120015460405163782aadff60e01b81526001600160a01b039091169150819063782aadff906111659087908990600401612515565b6020604051808303815f875af1158015611181573d5f803e3d5ffd5b505050506040513d601f19601f820116820180604052508101906111a5919061252e565b925082156111ea576001600160a01b038085165f90815261010b60209081526040808320938516835292905290812080548592906111e490849061261d565b90915550505b506001016110de565b506101055461120d906001600160a01b0316833086611b9a565b6001600160a01b0382165f90815261010c60205260408120600101805485929061123890849061261d565b90915550506040517f576605f9bfe8911e7508bed3763c7c5c8eb3b86e8b360b90a4bc6abe1104cb7f9061126f9084908690612515565b60405180910390a1505050565b611284611b74565b335f81815261010d6020908152604080832060fb5461010c90935290832060010154909291906112b5908690612630565b10156112d457604051634e23e81760e11b815260040160405180910390fd5b610105546112ec906001600160a01b03168486611bf8565b5f5b8254811015611483575f83828154811061130a5761130a612545565b5f91825260209091200154604051632ed04b2b60e01b81526001600160a01b0390911691508190632ed04b2b906113479088908a90600401612515565b6020604051808303815f875af1158015611363573d5f803e3d5ffd5b505050506040513d601f19601f82011682018060405250810190611387919061252e565b92505f61010b5f876001600160a01b03166001600160a01b031681526020019081526020015f205f8685815481106113c1576113c1612545565b5f9182526020808320909101546001600160a01b03168352820192909252604001902054905080841115611412576040516311423e6360e31b81526004810185905260248101829052604401610e93565b6001600160a01b0386165f90815261010b60205260408120865486929088908790811061144157611441612545565b5f9182526020808320909101546001600160a01b0316835282019290925260400181208054909190611474908490612630565b909155505050506001016112ee565b506001600160a01b0383165f90815261010c6020526040812060010180548692906114af908490612630565b90915550506040517f6ee2c70b2d6b89ae808a2313aab43e925c06624271419cd665d85cfa1ae04ff8906114e69085908790612515565b60405180910390a150505050565b6001600160a01b03165f90815261010c602052604090206002015460ff1690565b61151d611c17565b6115265f611c76565b565b5f61153161092c565b6001600160a01b03163b5f036115495761093f61092c565b61155161092c565b6001600160a01b0316638da5cb5b6040518163ffffffff1660e01b8152600401602060405180830381865afa9250505080156115aa575060408051601f3d908101601f191682019092526115a791810190612643565b60015b6115b65761093f61092c565b919050565b5f91825260c9602090815260408084206001600160a01b0393909316845291905290205460ff1690565b61010980546115f39061265e565b80601f016020809104026020016040519081016040528092919081815260200182805461161f9061265e565b801561166a5780601f106116415761010080835404028352916020019161166a565b820191905f5260205f20905b81548152906001019060200180831161164d57829003601f168201915b505050505081565b61167f612710600a612696565b81565b5f54610100900460ff16158080156116a057505f54600160ff909116105b806116c057506116af30611cc7565b1580156116c057505f5460ff166001145b6117235760405162461bcd60e51b815260206004820152602e60248201527f496e697469616c697a61626c653a20636f6e747261637420697320616c72656160448201526d191e481a5b9a5d1a585b1a5e995960921b6064820152608401610e93565b5f805460ff191660011790558015611744575f805461ff0019166101001790555b61174d82611c76565b8015610ea6575f805461ff0019169055604051600181527f7f26b83ff96e1f2b6a682f133852f6798a09c465da95921460cefb384740249890602001610db1565b61010880546115f39061265e565b6117a582610dbd565b6117ae816118bf565b610e22838361194e565b6117c0611c17565b6001600160a01b0381166118255760405162461bcd60e51b815260206004820152602660248201527f4f776e61626c653a206e6577206f776e657220697320746865207a65726f206160448201526564647265737360d01b6064820152608401610e93565b610f6e81611c76565b611837816114f4565b610f6e57604051636a5cfb6d60e01b815260040160405180910390fd5b6001600160a01b0381165f90815261010a602052604090205460ff16610f6e576040516346c26e4b60e01b815260040160405180910390fd5b806001600160a01b0316826001600160a01b031614610ea65760405163bbe7961160e01b815260040160405180910390fd5b610f6e8133611cd6565b6118d382826115bb565b610ea6575f82815260c9602090815260408083206001600160a01b03851684529091529020805460ff1916600117905561190a3390565b6001600160a01b0316816001600160a01b0316837f2f8788117e7eff1d82e926ec794901d17c78024a50270940304540a733656f0d60405160405180910390a45050565b61195882826115bb565b15610ea6575f82815260c9602090815260408083206001600160a01b0385168085529252808320805460ff1916905551339285917ff6391f5c32d9c69d2a47ea670b442974b53935d1edc7fd64eb21e047a839171b9190a45050565b5f8051602061278b833981519152546001600160a01b031690565b336119d8611528565b6001600160a01b031614610f6e57336119ef611528565b60405163163678e960e01b8152600401610e9392919061257d565b7f4910fdfa16fed3260ed0e7147f7cc6da11a60208b5b9406d12a635614ffd91435460ff1615611a3d57610e2283611d2f565b826001600160a01b03166352d1902d6040518163ffffffff1660e01b8152600401602060405180830381865afa925050508015611a97575060408051601f3d908101601f19168201909252611a949181019061252e565b60015b611afa5760405162461bcd60e51b815260206004820152602e60248201527f45524331393637557067726164653a206e657720696d706c656d656e7461746960448201526d6f6e206973206e6f74205555505360901b6064820152608401610e93565b5f8051602061278b8339815191528114611b685760405162461bcd60e51b815260206004820152602960248201527f45524331393637557067726164653a20756e737570706f727465642070726f786044820152681a58589b195555525160ba1b6064820152608401610e93565b50610e22838383611dc8565b611b7d336114f4565b61152657604051636a5cfb6d60e01b815260040160405180910390fd5b611bf2846323b872dd60e01b858585604051602401611bbb93929190612559565b60408051601f198184030181529190526020810180516001600160e01b03166001600160e01b031990931692909217909152611dec565b50505050565b610e228363a9059cbb60e01b8484604051602401611bbb929190612515565b33611c20611528565b6001600160a01b0316146115265760405162461bcd60e51b815260206004820181905260248201527f4f776e61626c653a2063616c6c6572206973206e6f7420746865206f776e65726044820152606401610e93565b603380546001600160a01b038381166001600160a01b0319831681179093556040519116919082907f8be0079c531659141344cd1fd0a4f28419497f9722a3daafe3b4186f6b6457e0905f90a35050565b6001600160a01b03163b151590565b611ce082826115bb565b610ea657611ced81611ebf565b611cf8836020611ed1565b604051602001611d099291906126ad565b60408051601f198184030181529082905262461bcd60e51b8252610e93916004016124b1565b611d3881611cc7565b611d9a5760405162461bcd60e51b815260206004820152602d60248201527f455243313936373a206e657720696d706c656d656e746174696f6e206973206e60448201526c1bdd08184818dbdb9d1c9858dd609a1b6064820152608401610e93565b5f8051602061278b83398151915280546001600160a01b0319166001600160a01b0392909216919091179055565b611dd18361206d565b5f82511180611ddd5750805b15610e2257611bf283836120ac565b5f611e40826040518060400160405280602081526020017f5361666545524332303a206c6f772d6c6576656c2063616c6c206661696c6564815250856001600160a01b03166120d19092919063ffffffff16565b905080515f1480611e60575080806020019051810190611e60919061271b565b610e225760405162461bcd60e51b815260206004820152602a60248201527f5361666545524332303a204552433230206f7065726174696f6e20646964206e6044820152691bdd081cdd58d8d9595960b21b6064820152608401610e93565b60606109266001600160a01b03831660145b60605f611edf836002612696565b611eea90600261261d565b6001600160401b03811115611f0157611f016123be565b6040519080825280601f01601f191660200182016040528015611f2b576020820181803683370190505b509050600360fc1b815f81518110611f4557611f45612545565b60200101906001600160f81b03191690815f1a905350600f60fb1b81600181518110611f7357611f73612545565b60200101906001600160f81b03191690815f1a9053505f611f95846002612696565b611fa090600161261d565b90505b6001811115612017576f181899199a1a9b1b9c1cb0b131b232b360811b85600f1660108110611fd457611fd4612545565b1a60f81b828281518110611fea57611fea612545565b60200101906001600160f81b03191690815f1a90535060049490941c936120108161273a565b9050611fa3565b5083156120665760405162461bcd60e51b815260206004820181905260248201527f537472696e67733a20686578206c656e67746820696e73756666696369656e746044820152606401610e93565b9392505050565b61207681611d2f565b6040516001600160a01b038216907fbc7cd75a20ee27fd9adebab32041f755214dbc6bffa90cc0225b39da2e5c2d3b905f90a250565b606061206683836040518060600160405280602781526020016127ab602791396120e7565b60606120df84845f8561215b565b949350505050565b60605f80856001600160a01b031685604051612103919061274f565b5f60405180830381855af49150503d805f811461213b576040519150601f19603f3d011682016040523d82523d5f602084013e612140565b606091505b509150915061215186838387612232565b9695505050505050565b6060824710156121bc5760405162461bcd60e51b815260206004820152602660248201527f416464726573733a20696e73756666696369656e742062616c616e636520666f6044820152651c8818d85b1b60d21b6064820152608401610e93565b5f80866001600160a01b031685876040516121d7919061274f565b5f6040518083038185875af1925050503d805f8114612211576040519150601f19603f3d011682016040523d82523d5f602084013e612216565b606091505b509150915061222787838387612232565b979650505050505050565b6060831561229e5782515f036122975761224b85611cc7565b6122975760405162461bcd60e51b815260206004820152601d60248201527f416464726573733a2063616c6c20746f206e6f6e2d636f6e74726163740000006044820152606401610e93565b50816120df565b6120df83838151156122b35781518083602001fd5b8060405162461bcd60e51b8152600401610e9391906124b1565b5f602082840312156122dd575f80fd5b81356001600160e01b031981168114612066575f80fd5b6001600160a01b0381168114610f6e575f80fd5b5f8060408385031215612319575f80fd5b8235612324816122f4565b91506020830135612334816122f4565b809150509250929050565b5f6020828403121561234f575f80fd5b5035919050565b5f8060408385031215612367575f80fd5b8235612372816122f4565b946020939093013593505050565b5f60208284031215612390575f80fd5b8135612066816122f4565b5f80604083850312156123ac575f80fd5b823591506020830135612334816122f4565b634e487b7160e01b5f52604160045260245ffd5b5f80604083850312156123e3575f80fd5b82356123ee816122f4565b915060208301356001600160401b0380821115612409575f80fd5b818501915085601f83011261241c575f80fd5b81358181111561242e5761242e6123be565b604051601f8201601f19908116603f01168101908382118183101715612456576124566123be565b8160405282815288602084870101111561246e575f80fd5b826020860160208301375f6020848301015280955050505050509250929050565b5f5b838110156124a9578181015183820152602001612491565b50505f910152565b602081525f82518060208401526124cf81604085016020870161248f565b601f01601f19169190910160400192915050565b5f602082840312156124f3575f80fd5b815160058110612066575f80fd5b634e487b7160e01b5f52602160045260245ffd5b6001600160a01b03929092168252602082015260400190565b5f6020828403121561253e575f80fd5b5051919050565b634e487b7160e01b5f52603260045260245ffd5b6001600160a01b039384168152919092166020820152604081019190915260600190565b6001600160a01b0392831681529116602082015260400190565b6020808252602c908201525f8051602061276b83398151915260408201526b19195b1959d85d1958d85b1b60a21b606082015260800190565b6020808252602c908201525f8051602061276b83398151915260408201526b6163746976652070726f787960a01b606082015260800190565b634e487b7160e01b5f52601160045260245ffd5b8082018082111561092657610926612609565b8181038181111561092657610926612609565b5f60208284031215612653575f80fd5b8151612066816122f4565b600181811c9082168061267257607f821691505b60208210810361269057634e487b7160e01b5f52602260045260245ffd5b50919050565b808202811582820484141761092657610926612609565b76020b1b1b2b9b9a1b7b73a3937b61d1030b1b1b7bab73a1604d1b81525f83516126de81601785016020880161248f565b7001034b99036b4b9b9b4b733903937b6329607d1b601791840191820152835161270f81602884016020880161248f565b01602801949350505050565b5f6020828403121561272b575f80fd5b81518015158114612066575f80fd5b5f8161274857612748612609565b505f190190565b5f825161276081846020870161248f565b919091019291505056fe46756e6374696f6e206d7573742062652063616c6c6564207468726f75676820360894a13ba1a3210667c828492db98dca3e2076cc3735a920a3ca505d382bbc416464726573733a206c6f772d6c6576656c2064656c65676174652063616c6c206661696c6564a164736f6c6343000817000a","linkReferences":{}},"methodIdentifiers":{"COUNCIL_MEMBER()":"733a2d1f","DEFAULT_ADMIN_ROLE()":"a217fddf","MAX_FEE()":"bc063e1a","NATIVE()":"a0cf0aea","PRECISION_SCALE()":"d7050f07","VERSION()":"ffa1ad74","activateMemberInStrategy(address,address)":"0d4a8b49","addressToMemberInfo(address)":"88cfe684","allo()":"d6d8428d","cloneNonce()":"33960459","collateralVaultTemplate()":"77122d56","communityFee()":"8961be6b","communityName()":"c6d572ae","councilSafe()":"6c53db9a","covenantIpfsHash()":"b64e39af","deactivateMemberInStrategy(address,address)":"22bcf999","decreasePower(uint256)":"5ecf71c5","enabledStrategies(address)":"3a871fe1","ercAddress()":"eb5cbe43","feeReceiver()":"b3f00674","gardenToken()":"db61d65c","getMemberPowerInStrategy(address,address)":"7817ee4f","getMemberStakedAmount(address)":"2c611c4a","getRoleAdmin(bytes32)":"248a9ca3","grantRole(bytes32,address)":"2f2ff15d","hasRole(bytes32,address)":"91d14854","increasePower(uint256)":"559de05d","initialize(address)":"c4d66de8","isKickEnabled()":"1f787d28","isRegisteredMember(address)":"6a6b9a61","memberActivatedInStrategies(address,address)":"477a5cc0","memberPowerInStrategy(address,address)":"65e3864c","owner()":"8da5cb5b","pendingCouncilSafe()":"68decabb","profileId()":"08386eba","proxiableUUID()":"52d1902d","proxyOwner()":"025313a2","registerStakeAmount()":"78a0b8a9","registry()":"7b103999","registryFactory()":"f86c5f89","renounceOwnership()":"715018a6","renounceRole(bytes32,address)":"36568abe","revokeRole(bytes32,address)":"d547741f","strategiesByMember(address,uint256)":"2b38c69c","strategyTemplate()":"5c94e4d2","supportsInterface(bytes4)":"01ffc9a7","totalMembers()":"76e92559","transferOwnership(address)":"f2fde38b","upgradeTo(address)":"3659cfe6","upgradeToAndCall(address,bytes)":"4f1ef286"},"storageLayout":{"storage":[{"astId":53054,"contract":"pkg/contracts/src/RegistryCommunity/facets/CommunityPowerFacet.sol:CommunityPowerFacet","label":"_initialized","offset":0,"slot":"0","type":"t_uint8"},{"astId":53057,"contract":"pkg/contracts/src/RegistryCommunity/facets/CommunityPowerFacet.sol:CommunityPowerFacet","label":"_initializing","offset":1,"slot":"0","type":"t_bool"},{"astId":53759,"contract":"pkg/contracts/src/RegistryCommunity/facets/CommunityPowerFacet.sol:CommunityPowerFacet","label":"__gap","offset":0,"slot":"1","type":"t_array(t_uint256)50_storage"},{"astId":52846,"contract":"pkg/contracts/src/RegistryCommunity/facets/CommunityPowerFacet.sol:CommunityPowerFacet","label":"_owner","offset":0,"slot":"51","type":"t_address"},{"astId":52966,"contract":"pkg/contracts/src/RegistryCommunity/facets/CommunityPowerFacet.sol:CommunityPowerFacet","label":"__gap","offset":0,"slot":"52","type":"t_array(t_uint256)49_storage"},{"astId":53231,"contract":"pkg/contracts/src/RegistryCommunity/facets/CommunityPowerFacet.sol:CommunityPowerFacet","label":"_status","offset":0,"slot":"101","type":"t_uint256"},{"astId":53300,"contract":"pkg/contracts/src/RegistryCommunity/facets/CommunityPowerFacet.sol:CommunityPowerFacet","label":"__gap","offset":0,"slot":"102","type":"t_array(t_uint256)49_storage"},{"astId":54033,"contract":"pkg/contracts/src/RegistryCommunity/facets/CommunityPowerFacet.sol:CommunityPowerFacet","label":"__gap","offset":0,"slot":"151","type":"t_array(t_uint256)50_storage"},{"astId":52453,"contract":"pkg/contracts/src/RegistryCommunity/facets/CommunityPowerFacet.sol:CommunityPowerFacet","label":"_roles","offset":0,"slot":"201","type":"t_mapping(t_bytes32,t_struct(RoleData)52448_storage)"},{"astId":52760,"contract":"pkg/contracts/src/RegistryCommunity/facets/CommunityPowerFacet.sol:CommunityPowerFacet","label":"__gap","offset":0,"slot":"202","type":"t_array(t_uint256)49_storage"},{"astId":121230,"contract":"pkg/contracts/src/RegistryCommunity/facets/CommunityPowerFacet.sol:CommunityPowerFacet","label":"registerStakeAmount","offset":0,"slot":"251","type":"t_uint256"},{"astId":121233,"contract":"pkg/contracts/src/RegistryCommunity/facets/CommunityPowerFacet.sol:CommunityPowerFacet","label":"communityFee","offset":0,"slot":"252","type":"t_uint256"},{"astId":121236,"contract":"pkg/contracts/src/RegistryCommunity/facets/CommunityPowerFacet.sol:CommunityPowerFacet","label":"cloneNonce","offset":0,"slot":"253","type":"t_uint256"},{"astId":121239,"contract":"pkg/contracts/src/RegistryCommunity/facets/CommunityPowerFacet.sol:CommunityPowerFacet","label":"profileId","offset":0,"slot":"254","type":"t_bytes32"},{"astId":121242,"contract":"pkg/contracts/src/RegistryCommunity/facets/CommunityPowerFacet.sol:CommunityPowerFacet","label":"isKickEnabled","offset":0,"slot":"255","type":"t_bool"},{"astId":121245,"contract":"pkg/contracts/src/RegistryCommunity/facets/CommunityPowerFacet.sol:CommunityPowerFacet","label":"feeReceiver","offset":1,"slot":"255","type":"t_address"},{"astId":121248,"contract":"pkg/contracts/src/RegistryCommunity/facets/CommunityPowerFacet.sol:CommunityPowerFacet","label":"registryFactory","offset":0,"slot":"256","type":"t_address"},{"astId":121251,"contract":"pkg/contracts/src/RegistryCommunity/facets/CommunityPowerFacet.sol:CommunityPowerFacet","label":"collateralVaultTemplate","offset":0,"slot":"257","type":"t_address"},{"astId":121254,"contract":"pkg/contracts/src/RegistryCommunity/facets/CommunityPowerFacet.sol:CommunityPowerFacet","label":"strategyTemplate","offset":0,"slot":"258","type":"t_address"},{"astId":121257,"contract":"pkg/contracts/src/RegistryCommunity/facets/CommunityPowerFacet.sol:CommunityPowerFacet","label":"pendingCouncilSafe","offset":0,"slot":"259","type":"t_address_payable"},{"astId":121261,"contract":"pkg/contracts/src/RegistryCommunity/facets/CommunityPowerFacet.sol:CommunityPowerFacet","label":"registry","offset":0,"slot":"260","type":"t_contract(IRegistry)2824"},{"astId":121265,"contract":"pkg/contracts/src/RegistryCommunity/facets/CommunityPowerFacet.sol:CommunityPowerFacet","label":"gardenToken","offset":0,"slot":"261","type":"t_contract(IERC20)56944"},{"astId":121269,"contract":"pkg/contracts/src/RegistryCommunity/facets/CommunityPowerFacet.sol:CommunityPowerFacet","label":"councilSafe","offset":0,"slot":"262","type":"t_contract(ISafe)128949"},{"astId":121273,"contract":"pkg/contracts/src/RegistryCommunity/facets/CommunityPowerFacet.sol:CommunityPowerFacet","label":"allo","offset":0,"slot":"263","type":"t_contract(FAllo)128619"},{"astId":121276,"contract":"pkg/contracts/src/RegistryCommunity/facets/CommunityPowerFacet.sol:CommunityPowerFacet","label":"communityName","offset":0,"slot":"264","type":"t_string_storage"},{"astId":121279,"contract":"pkg/contracts/src/RegistryCommunity/facets/CommunityPowerFacet.sol:CommunityPowerFacet","label":"covenantIpfsHash","offset":0,"slot":"265","type":"t_string_storage"},{"astId":121284,"contract":"pkg/contracts/src/RegistryCommunity/facets/CommunityPowerFacet.sol:CommunityPowerFacet","label":"enabledStrategies","offset":0,"slot":"266","type":"t_mapping(t_address,t_bool)"},{"astId":121291,"contract":"pkg/contracts/src/RegistryCommunity/facets/CommunityPowerFacet.sol:CommunityPowerFacet","label":"memberPowerInStrategy","offset":0,"slot":"267","type":"t_mapping(t_address,t_mapping(t_address,t_uint256))"},{"astId":121297,"contract":"pkg/contracts/src/RegistryCommunity/facets/CommunityPowerFacet.sol:CommunityPowerFacet","label":"addressToMemberInfo","offset":0,"slot":"268","type":"t_mapping(t_address,t_struct(Member)121175_storage)"},{"astId":121303,"contract":"pkg/contracts/src/RegistryCommunity/facets/CommunityPowerFacet.sol:CommunityPowerFacet","label":"strategiesByMember","offset":0,"slot":"269","type":"t_mapping(t_address,t_array(t_address)dyn_storage)"},{"astId":121310,"contract":"pkg/contracts/src/RegistryCommunity/facets/CommunityPowerFacet.sol:CommunityPowerFacet","label":"memberActivatedInStrategies","offset":0,"slot":"270","type":"t_mapping(t_address,t_mapping(t_address,t_bool))"},{"astId":121314,"contract":"pkg/contracts/src/RegistryCommunity/facets/CommunityPowerFacet.sol:CommunityPowerFacet","label":"initialMembers","offset":0,"slot":"271","type":"t_array(t_address)dyn_storage"},{"astId":121317,"contract":"pkg/contracts/src/RegistryCommunity/facets/CommunityPowerFacet.sol:CommunityPowerFacet","label":"totalMembers","offset":0,"slot":"272","type":"t_uint256"},{"astId":121322,"contract":"pkg/contracts/src/RegistryCommunity/facets/CommunityPowerFacet.sol:CommunityPowerFacet","label":"strategyFacetCuts","offset":0,"slot":"273","type":"t_array(t_struct(FacetCut)127579_storage)dyn_storage"},{"astId":121324,"contract":"pkg/contracts/src/RegistryCommunity/facets/CommunityPowerFacet.sol:CommunityPowerFacet","label":"strategyInit","offset":0,"slot":"274","type":"t_address"},{"astId":121326,"contract":"pkg/contracts/src/RegistryCommunity/facets/CommunityPowerFacet.sol:CommunityPowerFacet","label":"strategyInitCalldata","offset":0,"slot":"275","type":"t_bytes_storage"},{"astId":121330,"contract":"pkg/contracts/src/RegistryCommunity/facets/CommunityPowerFacet.sol:CommunityPowerFacet","label":"__gap","offset":0,"slot":"276","type":"t_array(t_uint256)46_storage"}],"types":{"t_address":{"encoding":"inplace","label":"address","numberOfBytes":"20"},"t_address_payable":{"encoding":"inplace","label":"address payable","numberOfBytes":"20"},"t_array(t_address)dyn_storage":{"encoding":"dynamic_array","label":"address[]","numberOfBytes":"32","base":"t_address"},"t_array(t_bytes4)dyn_storage":{"encoding":"dynamic_array","label":"bytes4[]","numberOfBytes":"32","base":"t_bytes4"},"t_array(t_struct(FacetCut)127579_storage)dyn_storage":{"encoding":"dynamic_array","label":"struct IDiamond.FacetCut[]","numberOfBytes":"32","base":"t_struct(FacetCut)127579_storage"},"t_array(t_uint256)46_storage":{"encoding":"inplace","label":"uint256[46]","numberOfBytes":"1472","base":"t_uint256"},"t_array(t_uint256)49_storage":{"encoding":"inplace","label":"uint256[49]","numberOfBytes":"1568","base":"t_uint256"},"t_array(t_uint256)50_storage":{"encoding":"inplace","label":"uint256[50]","numberOfBytes":"1600","base":"t_uint256"},"t_bool":{"encoding":"inplace","label":"bool","numberOfBytes":"1"},"t_bytes32":{"encoding":"inplace","label":"bytes32","numberOfBytes":"32"},"t_bytes4":{"encoding":"inplace","label":"bytes4","numberOfBytes":"4"},"t_bytes_storage":{"encoding":"bytes","label":"bytes","numberOfBytes":"32"},"t_contract(FAllo)128619":{"encoding":"inplace","label":"contract FAllo","numberOfBytes":"20"},"t_contract(IERC20)56944":{"encoding":"inplace","label":"contract IERC20","numberOfBytes":"20"},"t_contract(IRegistry)2824":{"encoding":"inplace","label":"contract IRegistry","numberOfBytes":"20"},"t_contract(ISafe)128949":{"encoding":"inplace","label":"contract ISafe","numberOfBytes":"20"},"t_enum(FacetCutAction)127570":{"encoding":"inplace","label":"enum IDiamond.FacetCutAction","numberOfBytes":"1"},"t_mapping(t_address,t_array(t_address)dyn_storage)":{"encoding":"mapping","key":"t_address","label":"mapping(address => address[])","numberOfBytes":"32","value":"t_array(t_address)dyn_storage"},"t_mapping(t_address,t_bool)":{"encoding":"mapping","key":"t_address","label":"mapping(address => bool)","numberOfBytes":"32","value":"t_bool"},"t_mapping(t_address,t_mapping(t_address,t_bool))":{"encoding":"mapping","key":"t_address","label":"mapping(address => mapping(address => bool))","numberOfBytes":"32","value":"t_mapping(t_address,t_bool)"},"t_mapping(t_address,t_mapping(t_address,t_uint256))":{"encoding":"mapping","key":"t_address","label":"mapping(address => mapping(address => uint256))","numberOfBytes":"32","value":"t_mapping(t_address,t_uint256)"},"t_mapping(t_address,t_struct(Member)121175_storage)":{"encoding":"mapping","key":"t_address","label":"mapping(address => struct Member)","numberOfBytes":"32","value":"t_struct(Member)121175_storage"},"t_mapping(t_address,t_uint256)":{"encoding":"mapping","key":"t_address","label":"mapping(address => uint256)","numberOfBytes":"32","value":"t_uint256"},"t_mapping(t_bytes32,t_struct(RoleData)52448_storage)":{"encoding":"mapping","key":"t_bytes32","label":"mapping(bytes32 => struct AccessControlUpgradeable.RoleData)","numberOfBytes":"32","value":"t_struct(RoleData)52448_storage"},"t_string_storage":{"encoding":"bytes","label":"string","numberOfBytes":"32"},"t_struct(FacetCut)127579_storage":{"encoding":"inplace","label":"struct IDiamond.FacetCut","numberOfBytes":"64","members":[{"astId":127572,"contract":"pkg/contracts/src/RegistryCommunity/facets/CommunityPowerFacet.sol:CommunityPowerFacet","label":"facetAddress","offset":0,"slot":"0","type":"t_address"},{"astId":127575,"contract":"pkg/contracts/src/RegistryCommunity/facets/CommunityPowerFacet.sol:CommunityPowerFacet","label":"action","offset":20,"slot":"0","type":"t_enum(FacetCutAction)127570"},{"astId":127578,"contract":"pkg/contracts/src/RegistryCommunity/facets/CommunityPowerFacet.sol:CommunityPowerFacet","label":"functionSelectors","offset":0,"slot":"1","type":"t_array(t_bytes4)dyn_storage"}]},"t_struct(Member)121175_storage":{"encoding":"inplace","label":"struct Member","numberOfBytes":"96","members":[{"astId":121170,"contract":"pkg/contracts/src/RegistryCommunity/facets/CommunityPowerFacet.sol:CommunityPowerFacet","label":"member","offset":0,"slot":"0","type":"t_address"},{"astId":121172,"contract":"pkg/contracts/src/RegistryCommunity/facets/CommunityPowerFacet.sol:CommunityPowerFacet","label":"stakedAmount","offset":0,"slot":"1","type":"t_uint256"},{"astId":121174,"contract":"pkg/contracts/src/RegistryCommunity/facets/CommunityPowerFacet.sol:CommunityPowerFacet","label":"isRegistered","offset":0,"slot":"2","type":"t_bool"}]},"t_struct(RoleData)52448_storage":{"encoding":"inplace","label":"struct AccessControlUpgradeable.RoleData","numberOfBytes":"64","members":[{"astId":52445,"contract":"pkg/contracts/src/RegistryCommunity/facets/CommunityPowerFacet.sol:CommunityPowerFacet","label":"members","offset":0,"slot":"0","type":"t_mapping(t_address,t_bool)"},{"astId":52447,"contract":"pkg/contracts/src/RegistryCommunity/facets/CommunityPowerFacet.sol:CommunityPowerFacet","label":"adminRole","offset":0,"slot":"1","type":"t_bytes32"}]},"t_uint256":{"encoding":"inplace","label":"uint256","numberOfBytes":"32"},"t_uint8":{"encoding":"inplace","label":"uint8","numberOfBytes":"1"}}},"id":201}