{"abi":[{"type":"function","name":"DISPUTE_COOLDOWN_SEC","inputs":[],"outputs":[{"name":"","type":"uint256","internalType":"uint256"}],"stateMutability":"view"},{"type":"function","name":"MAX_ALLOCATIONS_PER_TX","inputs":[],"outputs":[{"name":"","type":"uint256","internalType":"uint256"}],"stateMutability":"view"},{"type":"function","name":"MAX_PROPOSAL_COUNT","inputs":[],"outputs":[{"name":"","type":"uint256","internalType":"uint256"}],"stateMutability":"view"},{"type":"function","name":"MAX_SYNC_BATCH_MEMBERS","inputs":[],"outputs":[{"name":"","type":"uint256","internalType":"uint256"}],"stateMutability":"view"},{"type":"function","name":"MAX_VOTER_STAKED_PROPOSALS","inputs":[],"outputs":[{"name":"","type":"uint256","internalType":"uint256"}],"stateMutability":"view"},{"type":"function","name":"RULING_OPTIONS","inputs":[],"outputs":[{"name":"","type":"uint256","internalType":"uint256"}],"stateMutability":"view"},{"type":"function","name":"_isStrategyEnabled","inputs":[],"outputs":[{"name":"","type":"bool","internalType":"bool"}],"stateMutability":"view"},{"type":"function","name":"arbitrableConfigs","inputs":[{"name":"","type":"uint256","internalType":"uint256"}],"outputs":[{"name":"arbitrator","type":"address","internalType":"contract IArbitrator"},{"name":"tribunalSafe","type":"address","internalType":"address"},{"name":"submitterCollateralAmount","type":"uint256","internalType":"uint256"},{"name":"challengerCollateralAmount","type":"uint256","internalType":"uint256"},{"name":"defaultRuling","type":"uint256","internalType":"uint256"},{"name":"defaultRulingTimeout","type":"uint256","internalType":"uint256"}],"stateMutability":"view"},{"type":"function","name":"calculateProposalConviction","inputs":[{"name":"_proposalId","type":"uint256","internalType":"uint256"}],"outputs":[{"name":"","type":"uint256","internalType":"uint256"}],"stateMutability":"view"},{"type":"function","name":"cloneNonce","inputs":[],"outputs":[{"name":"","type":"uint256","internalType":"uint256"}],"stateMutability":"view"},{"type":"function","name":"collateralVault","inputs":[],"outputs":[{"name":"","type":"address","internalType":"contract ICollateralVault"}],"stateMutability":"view"},{"type":"function","name":"connectSuperfluidGDA","inputs":[{"name":"gda","type":"address","internalType":"address"}],"outputs":[],"stateMutability":"nonpayable"},{"type":"function","name":"currentArbitrableConfigVersion","inputs":[],"outputs":[{"name":"","type":"uint256","internalType":"uint256"}],"stateMutability":"view"},{"type":"function","name":"cvParams","inputs":[],"outputs":[{"name":"maxRatio","type":"uint256","internalType":"uint256"},{"name":"weight","type":"uint256","internalType":"uint256"},{"name":"decay","type":"uint256","internalType":"uint256"},{"name":"minThresholdPoints","type":"uint256","internalType":"uint256"}],"stateMutability":"view"},{"type":"function","name":"disconnectSuperfluidGDA","inputs":[{"name":"gda","type":"address","internalType":"address"}],"outputs":[],"stateMutability":"nonpayable"},{"type":"function","name":"disputeCount","inputs":[],"outputs":[{"name":"","type":"uint64","internalType":"uint64"}],"stateMutability":"view"},{"type":"function","name":"disputeIdToProposalId","inputs":[{"name":"","type":"uint256","internalType":"uint256"}],"outputs":[{"name":"","type":"uint256","internalType":"uint256"}],"stateMutability":"view"},{"type":"function","name":"getPoolAmount","inputs":[],"outputs":[{"name":"","type":"uint256","internalType":"uint256"}],"stateMutability":"view"},{"type":"function","name":"pointConfig","inputs":[],"outputs":[{"name":"maxAmount","type":"uint256","internalType":"uint256"}],"stateMutability":"view"},{"type":"function","name":"pointSystem","inputs":[],"outputs":[{"name":"","type":"uint8","internalType":"enum PointSystem"}],"stateMutability":"view"},{"type":"function","name":"proposalCounter","inputs":[],"outputs":[{"name":"","type":"uint256","internalType":"uint256"}],"stateMutability":"view"},{"type":"function","name":"proposalExists","inputs":[{"name":"_proposalID","type":"uint256","internalType":"uint256"}],"outputs":[{"name":"","type":"bool","internalType":"bool"}],"stateMutability":"view"},{"type":"function","name":"proposalType","inputs":[],"outputs":[{"name":"","type":"uint8","internalType":"enum ProposalType"}],"stateMutability":"view"},{"type":"function","name":"registryCommunity","inputs":[],"outputs":[{"name":"","type":"address","internalType":"contract RegistryCommunity"}],"stateMutability":"view"},{"type":"function","name":"setPoolParams","inputs":[{"name":"_arbitrableConfig","type":"tuple","internalType":"struct ArbitrableConfig","components":[{"name":"arbitrator","type":"address","internalType":"contract IArbitrator"},{"name":"tribunalSafe","type":"address","internalType":"address"},{"name":"submitterCollateralAmount","type":"uint256","internalType":"uint256"},{"name":"challengerCollateralAmount","type":"uint256","internalType":"uint256"},{"name":"defaultRuling","type":"uint256","internalType":"uint256"},{"name":"defaultRulingTimeout","type":"uint256","internalType":"uint256"}]},{"name":"_cvParams","type":"tuple","internalType":"struct CVParams","components":[{"name":"maxRatio","type":"uint256","internalType":"uint256"},{"name":"weight","type":"uint256","internalType":"uint256"},{"name":"decay","type":"uint256","internalType":"uint256"},{"name":"minThresholdPoints","type":"uint256","internalType":"uint256"}]},{"name":"_sybilScoreThreshold","type":"uint256","internalType":"uint256"},{"name":"_membersToAdd","type":"address[]","internalType":"address[]"},{"name":"_membersToRemove","type":"address[]","internalType":"address[]"},{"name":"_superfluidToken","type":"address","internalType":"address"},{"name":"_streamingRatePerSecond","type":"uint256","internalType":"uint256"}],"outputs":[],"stateMutability":"nonpayable"},{"type":"function","name":"setPoolParams","inputs":[{"name":"_arbitrableConfig","type":"tuple","internalType":"struct ArbitrableConfig","components":[{"name":"arbitrator","type":"address","internalType":"contract IArbitrator"},{"name":"tribunalSafe","type":"address","internalType":"address"},{"name":"submitterCollateralAmount","type":"uint256","internalType":"uint256"},{"name":"challengerCollateralAmount","type":"uint256","internalType":"uint256"},{"name":"defaultRuling","type":"uint256","internalType":"uint256"},{"name":"defaultRulingTimeout","type":"uint256","internalType":"uint256"}]},{"name":"_cvParams","type":"tuple","internalType":"struct CVParams","components":[{"name":"maxRatio","type":"uint256","internalType":"uint256"},{"name":"weight","type":"uint256","internalType":"uint256"},{"name":"decay","type":"uint256","internalType":"uint256"},{"name":"minThresholdPoints","type":"uint256","internalType":"uint256"}]},{"name":"_sybilScoreThreshold","type":"uint256","internalType":"uint256"},{"name":"_membersToAdd","type":"address[]","internalType":"address[]"},{"name":"_membersToRemove","type":"address[]","internalType":"address[]"},{"name":"_superfluidToken","type":"address","internalType":"address"}],"outputs":[],"stateMutability":"nonpayable"},{"type":"function","name":"setVotingPowerRegistry","inputs":[{"name":"_registry","type":"address","internalType":"address"}],"outputs":[],"stateMutability":"nonpayable"},{"type":"function","name":"streamingRatePerSecond","inputs":[],"outputs":[{"name":"","type":"uint256","internalType":"uint256"}],"stateMutability":"view"},{"type":"function","name":"superfluidGDA","inputs":[],"outputs":[{"name":"","type":"address","internalType":"contract ISuperfluidPool"}],"stateMutability":"view"},{"type":"function","name":"superfluidToken","inputs":[],"outputs":[{"name":"","type":"address","internalType":"contract ISuperToken"}],"stateMutability":"view"},{"type":"function","name":"sybilScorer","inputs":[],"outputs":[{"name":"","type":"address","internalType":"contract ISybilScorer"}],"stateMutability":"view"},{"type":"function","name":"totalPointsActivated","inputs":[],"outputs":[{"name":"","type":"uint256","internalType":"uint256"}],"stateMutability":"view"},{"type":"function","name":"totalStaked","inputs":[],"outputs":[{"name":"","type":"uint256","internalType":"uint256"}],"stateMutability":"view"},{"type":"function","name":"totalVoterStakePct","inputs":[{"name":"","type":"address","internalType":"address"}],"outputs":[{"name":"","type":"uint256","internalType":"uint256"}],"stateMutability":"view"},{"type":"function","name":"voterStakedProposals","inputs":[{"name":"","type":"address","internalType":"address"},{"name":"","type":"uint256","internalType":"uint256"}],"outputs":[{"name":"","type":"uint256","internalType":"uint256"}],"stateMutability":"view"},{"type":"function","name":"votingPowerRegistry","inputs":[],"outputs":[{"name":"","type":"address","internalType":"contract IVotingPowerRegistry"}],"stateMutability":"view"},{"type":"event","name":"AllowlistMembersAdded","inputs":[{"name":"poolId","type":"uint256","indexed":false,"internalType":"uint256"},{"name":"members","type":"address[]","indexed":false,"internalType":"address[]"}],"anonymous":false},{"type":"event","name":"AllowlistMembersRemoved","inputs":[{"name":"poolId","type":"uint256","indexed":false,"internalType":"uint256"},{"name":"members","type":"address[]","indexed":false,"internalType":"address[]"}],"anonymous":false},{"type":"event","name":"ArbitrableConfigUpdated","inputs":[{"name":"currentArbitrableConfigVersion","type":"uint256","indexed":false,"internalType":"uint256"},{"name":"arbitrator","type":"address","indexed":false,"internalType":"contract IArbitrator"},{"name":"tribunalSafe","type":"address","indexed":false,"internalType":"address"},{"name":"submitterCollateralAmount","type":"uint256","indexed":false,"internalType":"uint256"},{"name":"challengerCollateralAmount","type":"uint256","indexed":false,"internalType":"uint256"},{"name":"defaultRuling","type":"uint256","indexed":false,"internalType":"uint256"},{"name":"defaultRulingTimeout","type":"uint256","indexed":false,"internalType":"uint256"}],"anonymous":false},{"type":"event","name":"CVParamsUpdated","inputs":[{"name":"cvParams","type":"tuple","indexed":false,"internalType":"struct CVParams","components":[{"name":"maxRatio","type":"uint256","internalType":"uint256"},{"name":"weight","type":"uint256","internalType":"uint256"},{"name":"decay","type":"uint256","internalType":"uint256"},{"name":"minThresholdPoints","type":"uint256","internalType":"uint256"}]}],"anonymous":false},{"type":"event","name":"PointsDeactivated","inputs":[{"name":"member","type":"address","indexed":false,"internalType":"address"}],"anonymous":false},{"type":"event","name":"SuperfluidGDAConnected","inputs":[{"name":"gda","type":"address","indexed":true,"internalType":"address"},{"name":"by","type":"address","indexed":true,"internalType":"address"}],"anonymous":false},{"type":"event","name":"SuperfluidGDADisconnected","inputs":[{"name":"gda","type":"address","indexed":true,"internalType":"address"},{"name":"by","type":"address","indexed":true,"internalType":"address"}],"anonymous":false},{"type":"event","name":"SuperfluidStreamingRateUpdated","inputs":[{"name":"streamingRatePerSecond","type":"uint256","indexed":false,"internalType":"uint256"}],"anonymous":false},{"type":"event","name":"SuperfluidTokenUpdated","inputs":[{"name":"superfluidToken","type":"address","indexed":false,"internalType":"address"}],"anonymous":false},{"type":"event","name":"VotingPowerRegistryUpdated","inputs":[{"name":"oldRegistry","type":"address","indexed":true,"internalType":"address"},{"name":"newRegistry","type":"address","indexed":true,"internalType":"address"}],"anonymous":false},{"type":"error","name":"BlockNumberRegression","inputs":[{"name":"recordedBlock","type":"uint256","internalType":"uint256"},{"name":"currentBlock","type":"uint256","internalType":"uint256"}]},{"type":"error","name":"OnlyActiveProposal","inputs":[{"name":"proposalId","type":"uint256","internalType":"uint256"}]},{"type":"error","name":"OnlyAllo","inputs":[{"name":"sender","type":"address","internalType":"address"},{"name":"allo","type":"address","internalType":"address"}]},{"type":"error","name":"OnlyCouncilSafe","inputs":[{"name":"sender","type":"address","internalType":"address"},{"name":"councilSafe","type":"address","internalType":"address"},{"name":"owner","type":"address","internalType":"address"}]},{"type":"error","name":"OnlyCouncilSafeOrMember","inputs":[{"name":"sender","type":"address","internalType":"address"},{"name":"councilSafe","type":"address","internalType":"address"}]},{"type":"error","name":"OnlyInitialized","inputs":[{"name":"poolId","type":"uint256","internalType":"uint256"}]},{"type":"error","name":"OnlyMember","inputs":[{"name":"wallet","type":"address","internalType":"address"},{"name":"community","type":"address","internalType":"address"}]},{"type":"error","name":"OnlyOwner","inputs":[{"name":"sender","type":"address","internalType":"address"},{"name":"ownerAddress","type":"address","internalType":"address"}]},{"type":"error","name":"OnlyRegistryCommunity","inputs":[{"name":"sender","type":"address","internalType":"address"},{"name":"registry","type":"address","internalType":"address"}]},{"type":"error","name":"OnlySubmitter","inputs":[{"name":"proposalId","type":"uint256","internalType":"uint256"},{"name":"submitter","type":"address","internalType":"address"},{"name":"sender","type":"address","internalType":"address"}]},{"type":"error","name":"ProposalDoesNotExist","inputs":[{"name":"proposalID","type":"uint256","internalType":"uint256"}]},{"type":"error","name":"RebalanceCallFailed","inputs":[]},{"type":"error","name":"StrategyPaused","inputs":[{"name":"controller","type":"address","internalType":"address"}]},{"type":"error","name":"StrategySelectorPaused","inputs":[{"name":"selector","type":"bytes4","internalType":"bytes4"},{"name":"controller","type":"address","internalType":"address"}]},{"type":"error","name":"SuperfluidGDAConnectFailed","inputs":[{"name":"gda","type":"address","internalType":"address"},{"name":"superToken","type":"address","internalType":"address"},{"name":"caller","type":"address","internalType":"address"}]},{"type":"error","name":"SuperfluidGDADisconnectFailed","inputs":[{"name":"gda","type":"address","internalType":"address"},{"name":"superToken","type":"address","internalType":"address"},{"name":"caller","type":"address","internalType":"address"}]},{"type":"error","name":"VotingPowerRegistryNotAllowed","inputs":[{"name":"target","type":"address","internalType":"address"}]}],"bytecode":{"object":"0x608060405234801561000f575f80fd5b50612b818061001d5f395ff3fe608060405234801561000f575f80fd5b50600436106101aa575f3560e01c806305caa7f3146101ae5780630bece79c146101d75780630c0512e9146101ea578063125fd1d9146102015780631374b22d1461020a578063170aba0d1461022d5780631b36f56f146102425780632506b87014610255578063255ffb381461027b5780632dbd6fdd1461029a57806333960459146102b9578063351d9f96146102c257806341bb7605146102dc5780634ab4ba42146103635780634c3ceb5b1461036b5780635db64b99146103735780636003e4141461039257806360b0645a146103a5578063626c47e8146103b857806380fd91cd146103c0578063817b1cd2146103d3578063868c57b8146103dc5780638dc83094146103ef578063914bdef01461036b578063924e6704146103f757806394573cbb1461040a578063a28889e114610413578063a47ff7e51461043e578063aba9ffee14610448578063b6c61f3114610451578063c69271ec14610464578063c6cdc98014610477578063d5b7cc541461048a578063dfe9ec581461036b578063ee50ee1b1461049d578063f5be3f7c146104a5575b5f80fd5b6080546101c1906001600160a01b031681565b6040516101ce91906121dd565b60405180910390f35b6079546101c1906001600160a01b031681565b6101f3606e5481565b6040519081526020016101ce565b6101f3606f5481565b61021d6102183660046121f1565b6104ae565b60405190151581526020016101ce565b61024061023b36600461221c565b6104e8565b005b6081546101c1906001600160a01b031681565b60725460735460745460755461026b9392919084565b6040516101ce9493929190612237565b6101f36102893660046121f1565b607e6020525f908152604090205481565b6076546102ac90610100900460ff1681565b6040516101ce9190612266565b6101f3606c5481565b6076546102cf9060ff1681565b6040516101ce9190612280565b61032b6102ea3660046121f1565b607f6020525f90815260409020805460018201546002830154600384015460048501546005909501546001600160a01b039485169593909416939192909186565b604080516001600160a01b039788168152969095166020870152938501929092526060840152608083015260a082015260c0016101ce565b6101f361069a565b6101f3608081565b6101f361038136600461221c565b607c6020525f908152604090205481565b6078546101c1906001600160a01b031681565b6101f36103b33660046121f1565b610919565b6101f3600381565b6083546101c1906001600160a01b031681565b6101f360705481565b6101f36103ea366004612294565b6109dd565b61021d610a08565b61024061040536600461221c565b610b04565b6101f360825481565b606d54610426906001600160401b031681565b6040516001600160401b0390911681526020016101ce565b6077546101f39081565b6101f360715481565b607a546101c1906001600160a01b031681565b61024061047236600461221c565b610c20565b61024061048536600461249e565b610d3c565b61024061049836600461254b565b610d54565b6101f3604081565b6101f3611c2081565b5f818152607b6020526040812054158015906104e257505f828152607b60205260409020600501546001600160a01b031615155b92915050565b6104f0610d6d565b6001600160a01b0381161580159061051657506078546001600160a01b03828116911614155b156106215760785f9054906101000a90046001600160a01b03166001600160a01b031663f86c5f896040518163ffffffff1660e01b8152600401602060405180830381865afa15801561056b573d5f803e3d5ffd5b505050506040513d601f19601f8201168201806040525081019061058f91906125ed565b6001600160a01b031663f9f6b49b826040518263ffffffff1660e01b81526004016105ba91906121dd565b602060405180830381865afa1580156105d5573d5f803e3d5ffd5b505050506040513d601f19601f820116820180604052508101906105f99190612608565b610621578060405163ae0c99c960e01b815260040161061891906121dd565b60405180910390fd5b6083546001600160a01b039081169082161561063d578161064a565b6078546001600160a01b03165b608380546001600160a01b0319166001600160a01b0392831690811790915560405190918316907f1981fd89ad8ceb1dd198076a6d55e3941de3f0a67d930c89acf759b4e7ffc792905f90a35050565b60655460685460405163068bcd8d60e01b81525f9283926001600160a01b039091169163068bcd8d916106d39160040190815260200190565b5f60405180830381865afa1580156106ed573d5f803e3d5ffd5b505050506040513d5f823e601f3d908101601f191682016040526107149190810190612695565b60400151905073eeeeeeeeeeeeeeeeeeeeeeeeeeeeeeeeeeeeeeed196001600160a01b03821601610746574791505090565b6040516370a0823160e01b81525f906001600160a01b038316906370a08231906107749030906004016121dd565b602060405180830381865afa15801561078f573d5f803e3d5ffd5b505050506040513d601f19601f820116820180604052508101906107b3919061278a565b6080549091505f906001600160a01b03161561083d576080546040516370a0823160e01b81526001600160a01b03909116906370a08231906107f99030906004016121dd565b602060405180830381865afa158015610814573d5f803e3d5ffd5b505050506040513d601f19601f82011682018060405250810190610838919061278a565b61083f565b5f5b90505f836001600160a01b031663313ce5676040518163ffffffff1660e01b8152600401602060405180830381865afa15801561087e573d5f803e3d5ffd5b505050506040513d601f19601f820116820180604052508101906108a291906127a1565b905060128160ff1610156108d7576108bb8160126127d5565b6108c690600a6128ce565b6108d090836128dc565b9150610906565b60128160ff161115610906576108ee6012826127d5565b6108f990600a6128ce565b61090390836128fb565b91505b6109108284612912565b94505050505090565b5f818152607b6020526040812061092e610a08565b61093c576003015492915050565b73__$f1b7c69ba751c396eddc93d3bbc5414fd9$__63010dfe648260070154436109669190612925565b600384015460028501546074546040516001600160e01b031960e087901b1681526109979493929190600401612237565b602060405180830381865af41580156109b2573d5f803e3d5ffd5b505050506040513d601f19601f820116820180604052508101906109d6919061278a565b9392505050565b607d602052815f5260405f2081815481106109f6575f80fd5b905f5260205f20015f91509150505481565b6078545f906001600160a01b0316610a205750600190565b6078546040515f9182916001600160a01b0390911690633a871fe160e01b90610a4d9030906024016121dd565b60408051601f198184030181529181526020820180516001600160e01b03166001600160e01b0319909416939093179092529051610a8b9190612938565b5f60405180830381855afa9150503d805f8114610ac3576040519150601f19603f3d011682016040523d82523d5f602084013e610ac8565b606091505b5091509150811580610adb575060208151105b15610ae95760019250505090565b80806020019051810190610afd9190612608565b9250505090565b610b0c610eb1565b6080545f906001600160a01b0316610b9d5760655460685460405163068bcd8d60e01b81526001600160a01b039092169163068bcd8d91610b539160040190815260200190565b5f60405180830381865afa158015610b6d573d5f803e3d5ffd5b505050506040513d5f823e601f3d908101601f19168201604052610b949190810190612695565b60400151610baa565b6080546001600160a01b03165b90505f610bc06001600160a01b03831684610fd7565b905080610be657828233604051639bd2355f60e01b815260040161061893929190612953565b60405133906001600160a01b038516907f1f9d364ce9d858d45443edba44a22a2f561d96a90f9772e2457056f4ed98ed0f905f90a3505050565b610c28610eb1565b6080545f906001600160a01b0316610cb95760655460685460405163068bcd8d60e01b81526001600160a01b039092169163068bcd8d91610c6f9160040190815260200190565b5f60405180830381865afa158015610c89573d5f803e3d5ffd5b505050506040513d5f823e601f3d908101601f19168201604052610cb09190810190612695565b60400151610cc6565b6080546001600160a01b03165b90505f610cdc6001600160a01b03831684610ff3565b905080610d0257828233604051633746bbff60e01b815260040161061893929190612953565b60405133906001600160a01b038516907f5ae956f5060a976a6df3810c70d24e4d7b6987e1bfc9b1be2c9e43adfea8f301905f90a3505050565b610d4b8787878787878761100f565b50505050505050565b610d6586868686868660825461100f565b505050505050565b60785f9054906101000a90046001600160a01b03166001600160a01b0316636c53db9a6040518163ffffffff1660e01b8152600401602060405180830381865afa158015610dbd573d5f803e3d5ffd5b505050506040513d601f19601f82011682018060405250810190610de191906125ed565b6001600160a01b0316336001600160a01b031614158015610e1b5750610e056111fe565b6001600160a01b0316336001600160a01b031614155b15610eaf5760785460408051633629edcd60e11b8152905133926001600160a01b031691636c53db9a9160048083019260209291908290030181865afa158015610e67573d5f803e3d5ffd5b505050506040513d601f19601f82011682018060405250810190610e8b91906125ed565b610e936111fe565b60405163e1b9c46960e01b815260040161061893929190612953565b565b60785f9054906101000a90046001600160a01b03166001600160a01b0316636c53db9a6040518163ffffffff1660e01b8152600401602060405180830381865afa158015610f01573d5f803e3d5ffd5b505050506040513d601f19601f82011682018060405250810190610f2591906125ed565b6001600160a01b0316336001600160a01b031614158015610f4c5750610f4a336112ac565b155b15610eaf5760785460408051633629edcd60e11b8152905133926001600160a01b031691636c53db9a9160048083019260209291908290030181865afa158015610f98573d5f803e3d5ffd5b505050506040513d601f19601f82011682018060405250810190610fbc91906125ed565b604051637d19bac760e11b8152600401610618929190612976565b604080515f808252602082019092526109d690849084906114b4565b604080515f808252602082019092526109d690849084906115d2565b611017610d6d565b60828054608080546001600160a01b0319166001600160a01b038616179055908290556040517fd386b229b28c71d6819c5b8cd43d22f3b28607ab0ac101e82c783e1addb5e01f9061106a9085906121dd565b60405180910390a16040518281527f9e46b8f53ea529c8210c9eda30480e67394c3b2e6521eb996586137573314a749060200160405180910390a16110b18888878761161a565b607a546001600160a01b0316158015906110ca57505f86115b1561112f57607a5460405163642ce76b60e01b8152306004820152602481018890526001600160a01b039091169063642ce76b906044015f604051808303815f87803b158015611118575f80fd5b505af115801561112a573d5f803e3d5ffd5b505050505b600260765460ff16600281111561114857611148612252565b1480156111555750818114155b156111f45760408051600481526024810182526020810180516001600160e01b0316631f5f0a8760e21b17905290515f9130916111929190612938565b5f604051808303815f865af19150503d805f81146111cb576040519150601f19603f3d011682016040523d82523d5f602084013e6111d0565b606091505b50509050806111f257604051636926de5d60e11b815260040160405180910390fd5b505b5050505050505050565b5f806112126033546001600160a01b031690565b9050806001600160a01b03163b5f0361122a57919050565b806001600160a01b0316638da5cb5b6040518163ffffffff1660e01b8152600401602060405180830381865afa925050508015611284575060408051601f3d908101601f19168201909252611281918101906125ed565b60015b61128d57919050565b6001600160a01b038116156112a25780610afd565b50919050565b5090565b607a545f906001600160a01b03161561133057607a546040516302154c3d60e51b81526001600160a01b03909116906342a987a0906112f19085903090600401612976565b602060405180830381865afa15801561130c573d5f803e3d5ffd5b505050506040513d601f19601f820116820180604052508101906104e29190612608565b6004607654610100900460ff16600481111561134e5761134e612252565b14801561136c57506078546083546001600160a01b03908116911614155b156113a15760835460405163288c314960e21b81526001600160a01b039091169063a230c524906112f19085906004016121dd565b5f6068546040516020016113b59190612990565b60408051601f19818403018152908290528051602090910120607854632474521560e21b83529092506001600160a01b0316906391d14854906113fe9084905f906004016129ad565b602060405180830381865afa158015611419573d5f803e3d5ffd5b505050506040513d601f19601f8201168201806040525081019061143d9190612608565b806109d65750607854604051632474521560e21b81526001600160a01b03909116906391d148549061147590849087906004016129ad565b602060405180830381865afa158015611490573d5f803e3d5ffd5b505050506040513d601f19601f820116820180604052508101906109d69190612608565b5f805f6114c0866119a3565b91509150816001600160a01b03166339255d5b82836001600160a01b031663f0b7b915895f6001600160401b038111156114fc576114fc6122be565b6040519080825280601f01601f191660200182016040528015611526576020820181803683370190505b506040516024016115389291906129ef565b60408051808303601f1901815291815260208201805160e094851b6001600160e01b03909116179052519185901b6001600160e01b0319168252611583939250908990600401612a1a565b5f604051808303815f875af115801561159e573d5f803e3d5ffd5b505050506040513d5f823e601f3d908101601f191682016040526115c59190810190612a59565b5060019695505050505050565b5f805f6115de866119a3565b91509150816001600160a01b03166339255d5b82836001600160a01b03166330925b79895f6001600160401b038111156114fc576114fc6122be565b81511561162a5761162a82611b1a565b80511561163a5761163a81611d7f565b60208401516001600160a01b03161580159061165f575083516001600160a01b031615155b80156117425750606f545f908152607f6020908152604090912060010154908501516001600160a01b0390811691161415806116b95750606f545f908152607f602052604090205484516001600160a01b03908116911614155b806116dc5750606f545f908152607f602052604090819020600201549085015114155b806116fe5750606f545f908152607f6020526040902060030154606085015114155b806117205750606f545f908152607f6020526040902060040154608085015114155b806117425750606f545f908152607f602052604090206005015460a085015114155b1561190157602080850151606f545f908152607f9092526040909120600101546001600160a01b03908116911614158061179a57508351606f545f908152607f60205260409020546001600160a01b03908116911614155b156117ff578351602085015160405163446adb9960e11b81526001600160a01b03909216916388d5b732916117d1916004016121dd565b5f604051808303815f87803b1580156117e8575f80fd5b505af11580156117fa573d5f803e3d5ffd5b505050505b606f8054905f61180e83612a9d565b9091555050606f80545f908152607f6020908152604091829020875181546001600160a01b038083166001600160a01b0319928316178455938a015160018401805495821695909216949094179055838901516002830181905560608a01516003840181905560808b01516004850181905560a08c01516005909501859055965495517fe677e2878aaaaf6a65ecf50f849ad58100c49f6dfd57d055ba4bddd63a175d53976118f89796949590919687526001600160a01b0395861660208801529390941660408601526060850191909152608084015260a083019190915260c082015260e00190565b60405180910390a15b604083015115801561191557506020830151155b801561192057508251155b801561192e57506060830151155b61199d57825160728190556020808501805160735560408087018051607455606080890180516075558351968752935194860194909452519084015251908201527fec9315d9f4291207475c061feff1e5d7105750ac0ee9534af9444b4ff1dab9bc9060800160405180910390a15b50505050565b5f80516020612b35833981519152545f80516020612b55833981519152546001600160a01b038116611ae9576001600160a01b038216611a4057826001600160a01b03166320bc44256040518163ffffffff1660e01b8152600401602060405180830381865afa158015611a19573d5f803e3d5ffd5b505050506040513d601f19601f82011682018060405250810190611a3d91906125ed565b91505b604051635b69006f60e11b81527fdfd8ece9bfbcb8c5c540edb935641f63d67686490a1ab97f000288759f30a94660048201526001600160a01b0383169063b6d200de90602401602060405180830381865afa158015611aa2573d5f803e3d5ffd5b505050506040513d601f19601f82011682018060405250810190611ac691906125ed565b9050815f80516020612b3583398151915255805f80516020612b55833981519152555b6001600160a01b038216611aff57611aff612ab5565b6001600160a01b038116611b1557611b15612ab5565b915091565b5f606854604051602001611b2e9190612990565b60408051601f19818403018152908290528051602090910120607854632474521560e21b83529092506001600160a01b0316906391d1485490611b779084905f906004016129ad565b602060405180830381865afa158015611b92573d5f803e3d5ffd5b505050506040513d601f19601f82011682018060405250810190611bb69190612608565b15611c1b5760785460405163d547741f60e01b81526001600160a01b039091169063d547741f90611bed9084905f906004016129ad565b5f604051808303815f87803b158015611c04575f80fd5b505af1158015611c16573d5f803e3d5ffd5b505050505b5f5b8251811015611d3f5760785483516001600160a01b03909116906391d14854908490869085908110611c5157611c51612ac9565b60200260200101516040518363ffffffff1660e01b8152600401611c769291906129ad565b602060405180830381865afa158015611c91573d5f803e3d5ffd5b505050506040513d601f19601f82011682018060405250810190611cb59190612608565b611d375760785483516001600160a01b0390911690632f2ff15d908490869085908110611ce457611ce4612ac9565b60200260200101516040518363ffffffff1660e01b8152600401611d099291906129ad565b5f604051808303815f87803b158015611d20575f80fd5b505af1158015611d32573d5f803e3d5ffd5b505050505b600101611c1d565b507f7a2e396a5614184c0af2c60827c206595126faa1238b94e19823192de52e728a60685483604051611d73929190612add565b60405180910390a15050565b5f5b8151811015611f40576078546068546040516001600160a01b03909216916391d1485491611db191602001612990565b60405160208183030381529060405280519060200120848481518110611dd957611dd9612ac9565b60200260200101516040518363ffffffff1660e01b8152600401611dfe9291906129ad565b602060405180830381865afa158015611e19573d5f803e3d5ffd5b505050506040513d601f19601f82011682018060405250810190611e3d9190612608565b15611ee4576078546068546040516001600160a01b039092169163d547741f91611e6991602001612990565b60405160208183030381529060405280519060200120848481518110611e9157611e91612ac9565b60200260200101516040518363ffffffff1660e01b8152600401611eb69291906129ad565b5f604051808303815f87803b158015611ecd575f80fd5b505af1158015611edf573d5f803e3d5ffd5b505050505b5f6001600160a01b0316828281518110611f0057611f00612ac9565b60200260200101516001600160a01b031614611f3857611f38828281518110611f2b57611f2b612ac9565b6020026020010151611f7f565b600101611d81565b507fd418c93b6b78d828a87ee1909e6fcdbbf2f8d8f540ad7b232bb3e221e6d7cc1e60685482604051611f74929190612add565b60405180910390a150565b608354604051637817ee4f60e01b81526001600160a01b0390911690637817ee4f90611fb19084903090600401612976565b602060405180830381865afa158015611fcc573d5f803e3d5ffd5b505050506040513d601f19601f82011682018060405250810190611ff0919061278a565b60715f8282546120009190612925565b90915550506078546040516322bcf99960e01b81526001600160a01b03909116906322bcf999906120379084903090600401612976565b5f604051808303815f87803b15801561204e575f80fd5b505af1158015612060573d5f803e3d5ffd5b5050505061206d8161209c565b7f1468da654b37bb3631011c1917d02e0db437d519918858d40b38b5e980ca033b81604051611f7491906121dd565b5f5b6001600160a01b0382165f908152607d6020526040902054811015612182576001600160a01b0382165f908152607d602052604081208054839081106120e6576120e6612ac9565b5f918252602080832090910154808352607b909152604090912080549192509015801590612120575060058101546001600160a01b031615155b15612178576001600160a01b0384165f908152600982016020526040812080549082905560028301805491928392612159908490612925565b925050819055508060705f8282546121719190612925565b9091555050505b505060010161209e565b506001600160a01b0381165f908152607c60209081526040808320839055607d90915281206121b0916121b3565b50565b5080545f8255905f5260205f20908101906121b091905b808211156112a8575f81556001016121ca565b6001600160a01b0391909116815260200190565b5f60208284031215612201575f80fd5b5035919050565b6001600160a01b03811681146121b0575f80fd5b5f6020828403121561222c575f80fd5b81356109d681612208565b93845260208401929092526040830152606082015260800190565b634e487b7160e01b5f52602160045260245ffd5b602081016005831061227a5761227a612252565b91905290565b602081016003831061227a5761227a612252565b5f80604083850312156122a5575f80fd5b82356122b081612208565b946020939093013593505050565b634e487b7160e01b5f52604160045260245ffd5b60405160c081016001600160401b03811182821017156122f4576122f46122be565b60405290565b604080519081016001600160401b03811182821017156122f4576122f46122be565b604051601f8201601f191681016001600160401b0381118282101715612344576123446122be565b604052919050565b5f60c0828403121561235c575f80fd5b6123646122d2565b9050813561237181612208565b8152602082013561238181612208565b8060208301525060408201356040820152606082013560608201526080820135608082015260a082013560a082015292915050565b5f608082840312156123c6575f80fd5b604051608081016001600160401b03811182821017156123e8576123e86122be565b8060405250809150823581526020830135602082015260408301356040820152606083013560608201525092915050565b5f82601f830112612428575f80fd5b813560206001600160401b03821115612443576124436122be565b8160051b61245282820161231c565b928352848101820192828101908785111561246b575f80fd5b83870192505b8483101561249357823561248481612208565b82529183019190830190612471565b979650505050505050565b5f805f805f805f6101e0888a0312156124b5575f80fd5b6124bf898961234c565b96506124ce8960c08a016123b6565b955061014088013594506101608801356001600160401b03808211156124f2575f80fd5b6124fe8b838c01612419565b95506101808a0135915080821115612514575f80fd5b506125218a828b01612419565b9350506101a088013561253381612208565b809250506101c0880135905092959891949750929550565b5f805f805f806101c08789031215612561575f80fd5b61256b888861234c565b955061257a8860c089016123b6565b945061014087013593506101608701356001600160401b038082111561259e575f80fd5b6125aa8a838b01612419565b94506101808901359150808211156125c0575f80fd5b506125cd89828a01612419565b9250506101a08701356125df81612208565b809150509295509295509295565b5f602082840312156125fd575f80fd5b81516109d681612208565b5f60208284031215612618575f80fd5b815180151581146109d6575f80fd5b5f5b83811015612641578181015183820152602001612629565b50505f910152565b5f6001600160401b03831115612661576126616122be565b612674601f8401601f191660200161231c565b9050828152838383011115612687575f80fd5b6109d6836020830184612627565b5f60208083850312156126a6575f80fd5b82516001600160401b03808211156126bc575f80fd5b9084019060c082870312156126cf575f80fd5b6126d76122d2565b82518152838301516126e881612208565b8185015260408301516126fa81612208565b6040820152606083015182811115612710575f80fd5b830160408189031215612721575f80fd5b6127296122fa565b81518152858201518481111561273d575f80fd5b82019350601f8401891361274f575f80fd5b61275d898551888701612649565b8682015280606084015250506080830151608082015260a083015160a08201528094505050505092915050565b5f6020828403121561279a575f80fd5b5051919050565b5f602082840312156127b1575f80fd5b815160ff811681146109d6575f80fd5b634e487b7160e01b5f52601160045260245ffd5b60ff82811682821603908111156104e2576104e26127c1565b600181815b8085111561282857815f190482111561280e5761280e6127c1565b8085161561281b57918102915b93841c93908002906127f3565b509250929050565b5f8261283e575060016104e2565b8161284a57505f6104e2565b8160018114612860576002811461286a57612886565b60019150506104e2565b60ff84111561287b5761287b6127c1565b50506001821b6104e2565b5060208310610133831016604e8410600b84101617156128a9575081810a6104e2565b6128b383836127ee565b805f19048211156128c6576128c66127c1565b029392505050565b5f6109d660ff841683612830565b5f826128f657634e487b7160e01b5f52601260045260245ffd5b500490565b80820281158282048414176104e2576104e26127c1565b808201808211156104e2576104e26127c1565b818103818111156104e2576104e26127c1565b5f8251612949818460208701612627565b9190910192915050565b6001600160a01b0393841681529183166020830152909116604082015260600190565b6001600160a01b0392831681529116602082015260400190565b6810531313d5d31254d560ba1b8152600981019190915260290190565b9182526001600160a01b0316602082015260400190565b5f81518084526129db816020860160208601612627565b601f01601f19169290920160200192915050565b6001600160a01b03831681526040602082018190525f90612a12908301846129c4565b949350505050565b6001600160a01b03841681526060602082018190525f90612a3d908301856129c4565b8281036040840152612a4f81856129c4565b9695505050505050565b5f60208284031215612a69575f80fd5b81516001600160401b03811115612a7e575f80fd5b8201601f81018413612a8e575f80fd5b612a1284825160208401612649565b5f60018201612aae57612aae6127c1565b5060010190565b634e487b7160e01b5f52600160045260245ffd5b634e487b7160e01b5f52603260045260245ffd5b5f604082018483526020604060208501528185518084526060860191506020870193505f5b81811015612b275784516001600160a01b031683529383019391830191600101612b02565b509097965050505050505056fe65599bf746e17a00ea62e3610586992d88101b78eec3cf380706621fb97ea837c36f6c05164a669ecb6da53e218d77ae44d51cfc99f91e5a125a18de0949bee4a164736f6c6343000817000a","linkReferences":{"pkg/contracts/src/CVStrategy/ConvictionsUtils.sol":{"ConvictionsUtils":[{"start":2395,"length":20}]}}},"methodIdentifiers":{"DISPUTE_COOLDOWN_SEC()":"f5be3f7c","MAX_ALLOCATIONS_PER_TX()":"ee50ee1b","MAX_PROPOSAL_COUNT()":"dfe9ec58","MAX_SYNC_BATCH_MEMBERS()":"4c3ceb5b","MAX_VOTER_STAKED_PROPOSALS()":"914bdef0","RULING_OPTIONS()":"626c47e8","_isStrategyEnabled()":"8dc83094","arbitrableConfigs(uint256)":"41bb7605","calculateProposalConviction(uint256)":"60b0645a","cloneNonce()":"33960459","collateralVault()":"0bece79c","connectSuperfluidGDA(address)":"924e6704","currentArbitrableConfigVersion()":"125fd1d9","cvParams()":"2506b870","disconnectSuperfluidGDA(address)":"c69271ec","disputeCount()":"a28889e1","disputeIdToProposalId(uint256)":"255ffb38","getPoolAmount()":"4ab4ba42","pointConfig()":"a47ff7e5","pointSystem()":"2dbd6fdd","proposalCounter()":"0c0512e9","proposalExists(uint256)":"1374b22d","proposalType()":"351d9f96","registryCommunity()":"6003e414","setPoolParams((address,address,uint256,uint256,uint256,uint256),(uint256,uint256,uint256,uint256),uint256,address[],address[],address)":"d5b7cc54","setPoolParams((address,address,uint256,uint256,uint256,uint256),(uint256,uint256,uint256,uint256),uint256,address[],address[],address,uint256)":"c6cdc980","setVotingPowerRegistry(address)":"170aba0d","streamingRatePerSecond()":"94573cbb","superfluidGDA()":"1b36f56f","superfluidToken()":"05caa7f3","sybilScorer()":"b6c61f31","totalPointsActivated()":"aba9ffee","totalStaked()":"817b1cd2","totalVoterStakePct(address)":"5db64b99","voterStakedProposals(address,uint256)":"868c57b8","votingPowerRegistry()":"80fd91cd"},"storageLayout":{"storage":[{"astId":111623,"contract":"pkg/contracts/src/CVStrategy/facets/CVAdminFacet.sol:CVAdminFacet","label":"_initialized","offset":0,"slot":"0","type":"t_uint8"},{"astId":111625,"contract":"pkg/contracts/src/CVStrategy/facets/CVAdminFacet.sol:CVAdminFacet","label":"_initializing","offset":1,"slot":"0","type":"t_bool"},{"astId":111629,"contract":"pkg/contracts/src/CVStrategy/facets/CVAdminFacet.sol:CVAdminFacet","label":"__gap_init","offset":0,"slot":"1","type":"t_array(t_uint256)50_storage"},{"astId":111632,"contract":"pkg/contracts/src/CVStrategy/facets/CVAdminFacet.sol:CVAdminFacet","label":"_owner","offset":0,"slot":"51","type":"t_address"},{"astId":111636,"contract":"pkg/contracts/src/CVStrategy/facets/CVAdminFacet.sol:CVAdminFacet","label":"__gap_ownable","offset":0,"slot":"52","type":"t_array(t_uint256)49_storage"},{"astId":111640,"contract":"pkg/contracts/src/CVStrategy/facets/CVAdminFacet.sol:CVAdminFacet","label":"allo","offset":0,"slot":"101","type":"t_contract(IAllo)2631"},{"astId":111642,"contract":"pkg/contracts/src/CVStrategy/facets/CVAdminFacet.sol:CVAdminFacet","label":"strategyId","offset":0,"slot":"102","type":"t_bytes32"},{"astId":111644,"contract":"pkg/contracts/src/CVStrategy/facets/CVAdminFacet.sol:CVAdminFacet","label":"poolActive","offset":0,"slot":"103","type":"t_bool"},{"astId":111646,"contract":"pkg/contracts/src/CVStrategy/facets/CVAdminFacet.sol:CVAdminFacet","label":"poolId","offset":0,"slot":"104","type":"t_uint256"},{"astId":111648,"contract":"pkg/contracts/src/CVStrategy/facets/CVAdminFacet.sol:CVAdminFacet","label":"poolAmount","offset":0,"slot":"105","type":"t_uint256"},{"astId":111651,"contract":"pkg/contracts/src/CVStrategy/facets/CVAdminFacet.sol:CVAdminFacet","label":"collateralVaultTemplate","offset":0,"slot":"106","type":"t_address"},{"astId":111654,"contract":"pkg/contracts/src/CVStrategy/facets/CVAdminFacet.sol:CVAdminFacet","label":"surpressStateMutabilityWarning","offset":0,"slot":"107","type":"t_uint256"},{"astId":111657,"contract":"pkg/contracts/src/CVStrategy/facets/CVAdminFacet.sol:CVAdminFacet","label":"cloneNonce","offset":0,"slot":"108","type":"t_uint256"},{"astId":111660,"contract":"pkg/contracts/src/CVStrategy/facets/CVAdminFacet.sol:CVAdminFacet","label":"disputeCount","offset":0,"slot":"109","type":"t_uint64"},{"astId":111663,"contract":"pkg/contracts/src/CVStrategy/facets/CVAdminFacet.sol:CVAdminFacet","label":"proposalCounter","offset":0,"slot":"110","type":"t_uint256"},{"astId":111666,"contract":"pkg/contracts/src/CVStrategy/facets/CVAdminFacet.sol:CVAdminFacet","label":"currentArbitrableConfigVersion","offset":0,"slot":"111","type":"t_uint256"},{"astId":111669,"contract":"pkg/contracts/src/CVStrategy/facets/CVAdminFacet.sol:CVAdminFacet","label":"totalStaked","offset":0,"slot":"112","type":"t_uint256"},{"astId":111672,"contract":"pkg/contracts/src/CVStrategy/facets/CVAdminFacet.sol:CVAdminFacet","label":"totalPointsActivated","offset":0,"slot":"113","type":"t_uint256"},{"astId":111676,"contract":"pkg/contracts/src/CVStrategy/facets/CVAdminFacet.sol:CVAdminFacet","label":"cvParams","offset":0,"slot":"114","type":"t_struct(CVParams)113350_storage"},{"astId":111680,"contract":"pkg/contracts/src/CVStrategy/facets/CVAdminFacet.sol:CVAdminFacet","label":"proposalType","offset":0,"slot":"118","type":"t_enum(ProposalType)113250"},{"astId":111684,"contract":"pkg/contracts/src/CVStrategy/facets/CVAdminFacet.sol:CVAdminFacet","label":"pointSystem","offset":1,"slot":"118","type":"t_enum(PointSystem)113256"},{"astId":111688,"contract":"pkg/contracts/src/CVStrategy/facets/CVAdminFacet.sol:CVAdminFacet","label":"pointConfig","offset":0,"slot":"119","type":"t_struct(PointSystemConfig)113327_storage"},{"astId":111692,"contract":"pkg/contracts/src/CVStrategy/facets/CVAdminFacet.sol:CVAdminFacet","label":"registryCommunity","offset":0,"slot":"120","type":"t_contract(RegistryCommunity)124473"},{"astId":111696,"contract":"pkg/contracts/src/CVStrategy/facets/CVAdminFacet.sol:CVAdminFacet","label":"collateralVault","offset":0,"slot":"121","type":"t_contract(ICollateralVault)130345"},{"astId":111700,"contract":"pkg/contracts/src/CVStrategy/facets/CVAdminFacet.sol:CVAdminFacet","label":"sybilScorer","offset":0,"slot":"122","type":"t_contract(ISybilScorer)121878"},{"astId":111706,"contract":"pkg/contracts/src/CVStrategy/facets/CVAdminFacet.sol:CVAdminFacet","label":"proposals","offset":0,"slot":"123","type":"t_mapping(t_uint256,t_struct(Proposal)113319_storage)"},{"astId":111711,"contract":"pkg/contracts/src/CVStrategy/facets/CVAdminFacet.sol:CVAdminFacet","label":"totalVoterStakePct","offset":0,"slot":"124","type":"t_mapping(t_address,t_uint256)"},{"astId":111717,"contract":"pkg/contracts/src/CVStrategy/facets/CVAdminFacet.sol:CVAdminFacet","label":"voterStakedProposals","offset":0,"slot":"125","type":"t_mapping(t_address,t_array(t_uint256)dyn_storage)"},{"astId":111722,"contract":"pkg/contracts/src/CVStrategy/facets/CVAdminFacet.sol:CVAdminFacet","label":"disputeIdToProposalId","offset":0,"slot":"126","type":"t_mapping(t_uint256,t_uint256)"},{"astId":111728,"contract":"pkg/contracts/src/CVStrategy/facets/CVAdminFacet.sol:CVAdminFacet","label":"arbitrableConfigs","offset":0,"slot":"127","type":"t_mapping(t_uint256,t_struct(ArbitrableConfig)113341_storage)"},{"astId":111732,"contract":"pkg/contracts/src/CVStrategy/facets/CVAdminFacet.sol:CVAdminFacet","label":"superfluidToken","offset":0,"slot":"128","type":"t_contract(ISuperToken)80140"},{"astId":111736,"contract":"pkg/contracts/src/CVStrategy/facets/CVAdminFacet.sol:CVAdminFacet","label":"superfluidGDA","offset":0,"slot":"129","type":"t_contract(ISuperfluidPool)78968"},{"astId":111739,"contract":"pkg/contracts/src/CVStrategy/facets/CVAdminFacet.sol:CVAdminFacet","label":"streamingRatePerSecond","offset":0,"slot":"130","type":"t_uint256"},{"astId":111743,"contract":"pkg/contracts/src/CVStrategy/facets/CVAdminFacet.sol:CVAdminFacet","label":"votingPowerRegistry","offset":0,"slot":"131","type":"t_contract(IVotingPowerRegistry)130549"},{"astId":111748,"contract":"pkg/contracts/src/CVStrategy/facets/CVAdminFacet.sol:CVAdminFacet","label":"__gap","offset":0,"slot":"132","type":"t_array(t_uint256)46_storage"}],"types":{"t_address":{"encoding":"inplace","label":"address","numberOfBytes":"20"},"t_array(t_uint256)46_storage":{"encoding":"inplace","label":"uint256[46]","numberOfBytes":"1472","base":"t_uint256"},"t_array(t_uint256)49_storage":{"encoding":"inplace","label":"uint256[49]","numberOfBytes":"1568","base":"t_uint256"},"t_array(t_uint256)50_storage":{"encoding":"inplace","label":"uint256[50]","numberOfBytes":"1600","base":"t_uint256"},"t_array(t_uint256)dyn_storage":{"encoding":"dynamic_array","label":"uint256[]","numberOfBytes":"32","base":"t_uint256"},"t_bool":{"encoding":"inplace","label":"bool","numberOfBytes":"1"},"t_bytes32":{"encoding":"inplace","label":"bytes32","numberOfBytes":"32"},"t_contract(IAllo)2631":{"encoding":"inplace","label":"contract IAllo","numberOfBytes":"20"},"t_contract(IArbitrator)130312":{"encoding":"inplace","label":"contract IArbitrator","numberOfBytes":"20"},"t_contract(ICollateralVault)130345":{"encoding":"inplace","label":"contract ICollateralVault","numberOfBytes":"20"},"t_contract(ISuperToken)80140":{"encoding":"inplace","label":"contract ISuperToken","numberOfBytes":"20"},"t_contract(ISuperfluidPool)78968":{"encoding":"inplace","label":"contract ISuperfluidPool","numberOfBytes":"20"},"t_contract(ISybilScorer)121878":{"encoding":"inplace","label":"contract ISybilScorer","numberOfBytes":"20"},"t_contract(IVotingPowerRegistry)130549":{"encoding":"inplace","label":"contract IVotingPowerRegistry","numberOfBytes":"20"},"t_contract(RegistryCommunity)124473":{"encoding":"inplace","label":"contract RegistryCommunity","numberOfBytes":"20"},"t_enum(PointSystem)113256":{"encoding":"inplace","label":"enum PointSystem","numberOfBytes":"1"},"t_enum(ProposalStatus)113276":{"encoding":"inplace","label":"enum ProposalStatus","numberOfBytes":"1"},"t_enum(ProposalType)113250":{"encoding":"inplace","label":"enum ProposalType","numberOfBytes":"1"},"t_mapping(t_address,t_array(t_uint256)dyn_storage)":{"encoding":"mapping","key":"t_address","label":"mapping(address => uint256[])","numberOfBytes":"32","value":"t_array(t_uint256)dyn_storage"},"t_mapping(t_address,t_uint256)":{"encoding":"mapping","key":"t_address","label":"mapping(address => uint256)","numberOfBytes":"32","value":"t_uint256"},"t_mapping(t_uint256,t_struct(ArbitrableConfig)113341_storage)":{"encoding":"mapping","key":"t_uint256","label":"mapping(uint256 => struct ArbitrableConfig)","numberOfBytes":"32","value":"t_struct(ArbitrableConfig)113341_storage"},"t_mapping(t_uint256,t_struct(Proposal)113319_storage)":{"encoding":"mapping","key":"t_uint256","label":"mapping(uint256 => struct Proposal)","numberOfBytes":"32","value":"t_struct(Proposal)113319_storage"},"t_mapping(t_uint256,t_uint256)":{"encoding":"mapping","key":"t_uint256","label":"mapping(uint256 => uint256)","numberOfBytes":"32","value":"t_uint256"},"t_string_storage":{"encoding":"bytes","label":"string","numberOfBytes":"32"},"t_struct(ArbitrableConfig)113341_storage":{"encoding":"inplace","label":"struct ArbitrableConfig","numberOfBytes":"192","members":[{"astId":113330,"contract":"pkg/contracts/src/CVStrategy/facets/CVAdminFacet.sol:CVAdminFacet","label":"arbitrator","offset":0,"slot":"0","type":"t_contract(IArbitrator)130312"},{"astId":113332,"contract":"pkg/contracts/src/CVStrategy/facets/CVAdminFacet.sol:CVAdminFacet","label":"tribunalSafe","offset":0,"slot":"1","type":"t_address"},{"astId":113334,"contract":"pkg/contracts/src/CVStrategy/facets/CVAdminFacet.sol:CVAdminFacet","label":"submitterCollateralAmount","offset":0,"slot":"2","type":"t_uint256"},{"astId":113336,"contract":"pkg/contracts/src/CVStrategy/facets/CVAdminFacet.sol:CVAdminFacet","label":"challengerCollateralAmount","offset":0,"slot":"3","type":"t_uint256"},{"astId":113338,"contract":"pkg/contracts/src/CVStrategy/facets/CVAdminFacet.sol:CVAdminFacet","label":"defaultRuling","offset":0,"slot":"4","type":"t_uint256"},{"astId":113340,"contract":"pkg/contracts/src/CVStrategy/facets/CVAdminFacet.sol:CVAdminFacet","label":"defaultRulingTimeout","offset":0,"slot":"5","type":"t_uint256"}]},"t_struct(CVParams)113350_storage":{"encoding":"inplace","label":"struct CVParams","numberOfBytes":"128","members":[{"astId":113343,"contract":"pkg/contracts/src/CVStrategy/facets/CVAdminFacet.sol:CVAdminFacet","label":"maxRatio","offset":0,"slot":"0","type":"t_uint256"},{"astId":113345,"contract":"pkg/contracts/src/CVStrategy/facets/CVAdminFacet.sol:CVAdminFacet","label":"weight","offset":0,"slot":"1","type":"t_uint256"},{"astId":113347,"contract":"pkg/contracts/src/CVStrategy/facets/CVAdminFacet.sol:CVAdminFacet","label":"decay","offset":0,"slot":"2","type":"t_uint256"},{"astId":113349,"contract":"pkg/contracts/src/CVStrategy/facets/CVAdminFacet.sol:CVAdminFacet","label":"minThresholdPoints","offset":0,"slot":"3","type":"t_uint256"}]},"t_struct(Metadata)3086_storage":{"encoding":"inplace","label":"struct Metadata","numberOfBytes":"64","members":[{"astId":3082,"contract":"pkg/contracts/src/CVStrategy/facets/CVAdminFacet.sol:CVAdminFacet","label":"protocol","offset":0,"slot":"0","type":"t_uint256"},{"astId":3085,"contract":"pkg/contracts/src/CVStrategy/facets/CVAdminFacet.sol:CVAdminFacet","label":"pointer","offset":0,"slot":"1","type":"t_string_storage"}]},"t_struct(PointSystemConfig)113327_storage":{"encoding":"inplace","label":"struct PointSystemConfig","numberOfBytes":"32","members":[{"astId":113326,"contract":"pkg/contracts/src/CVStrategy/facets/CVAdminFacet.sol:CVAdminFacet","label":"maxAmount","offset":0,"slot":"0","type":"t_uint256"}]},"t_struct(Proposal)113319_storage":{"encoding":"inplace","label":"struct Proposal","numberOfBytes":"576","members":[{"astId":113285,"contract":"pkg/contracts/src/CVStrategy/facets/CVAdminFacet.sol:CVAdminFacet","label":"proposalId","offset":0,"slot":"0","type":"t_uint256"},{"astId":113287,"contract":"pkg/contracts/src/CVStrategy/facets/CVAdminFacet.sol:CVAdminFacet","label":"requestedAmount","offset":0,"slot":"1","type":"t_uint256"},{"astId":113289,"contract":"pkg/contracts/src/CVStrategy/facets/CVAdminFacet.sol:CVAdminFacet","label":"stakedAmount","offset":0,"slot":"2","type":"t_uint256"},{"astId":113291,"contract":"pkg/contracts/src/CVStrategy/facets/CVAdminFacet.sol:CVAdminFacet","label":"convictionLast","offset":0,"slot":"3","type":"t_uint256"},{"astId":113293,"contract":"pkg/contracts/src/CVStrategy/facets/CVAdminFacet.sol:CVAdminFacet","label":"beneficiary","offset":0,"slot":"4","type":"t_address"},{"astId":113295,"contract":"pkg/contracts/src/CVStrategy/facets/CVAdminFacet.sol:CVAdminFacet","label":"submitter","offset":0,"slot":"5","type":"t_address"},{"astId":113297,"contract":"pkg/contracts/src/CVStrategy/facets/CVAdminFacet.sol:CVAdminFacet","label":"requestedToken","offset":0,"slot":"6","type":"t_address"},{"astId":113299,"contract":"pkg/contracts/src/CVStrategy/facets/CVAdminFacet.sol:CVAdminFacet","label":"blockLast","offset":0,"slot":"7","type":"t_uint256"},{"astId":113302,"contract":"pkg/contracts/src/CVStrategy/facets/CVAdminFacet.sol:CVAdminFacet","label":"proposalStatus","offset":0,"slot":"8","type":"t_enum(ProposalStatus)113276"},{"astId":113306,"contract":"pkg/contracts/src/CVStrategy/facets/CVAdminFacet.sol:CVAdminFacet","label":"voterStakedPoints","offset":0,"slot":"9","type":"t_mapping(t_address,t_uint256)"},{"astId":113309,"contract":"pkg/contracts/src/CVStrategy/facets/CVAdminFacet.sol:CVAdminFacet","label":"metadata","offset":0,"slot":"10","type":"t_struct(Metadata)3086_storage"},{"astId":113312,"contract":"pkg/contracts/src/CVStrategy/facets/CVAdminFacet.sol:CVAdminFacet","label":"disputeInfo","offset":0,"slot":"12","type":"t_struct(ProposalDisputeInfo)113283_storage"},{"astId":113314,"contract":"pkg/contracts/src/CVStrategy/facets/CVAdminFacet.sol:CVAdminFacet","label":"lastDisputeCompletion","offset":0,"slot":"15","type":"t_uint256"},{"astId":113316,"contract":"pkg/contracts/src/CVStrategy/facets/CVAdminFacet.sol:CVAdminFacet","label":"arbitrableConfigVersion","offset":0,"slot":"16","type":"t_uint256"},{"astId":113318,"contract":"pkg/contracts/src/CVStrategy/facets/CVAdminFacet.sol:CVAdminFacet","label":"creationTimestamp","offset":0,"slot":"17","type":"t_uint256"}]},"t_struct(ProposalDisputeInfo)113283_storage":{"encoding":"inplace","label":"struct ProposalDisputeInfo","numberOfBytes":"96","members":[{"astId":113278,"contract":"pkg/contracts/src/CVStrategy/facets/CVAdminFacet.sol:CVAdminFacet","label":"disputeId","offset":0,"slot":"0","type":"t_uint256"},{"astId":113280,"contract":"pkg/contracts/src/CVStrategy/facets/CVAdminFacet.sol:CVAdminFacet","label":"disputeTimestamp","offset":0,"slot":"1","type":"t_uint256"},{"astId":113282,"contract":"pkg/contracts/src/CVStrategy/facets/CVAdminFacet.sol:CVAdminFacet","label":"challenger","offset":0,"slot":"2","type":"t_address"}]},"t_uint256":{"encoding":"inplace","label":"uint256","numberOfBytes":"32"},"t_uint64":{"encoding":"inplace","label":"uint64","numberOfBytes":"8"},"t_uint8":{"encoding":"inplace","label":"uint8","numberOfBytes":"1"}}},"id":180}