{"abi":[{"type":"function","name":"DISPUTE_COOLDOWN_SEC","inputs":[],"outputs":[{"name":"","type":"uint256","internalType":"uint256"}],"stateMutability":"view"},{"type":"function","name":"RULING_OPTIONS","inputs":[],"outputs":[{"name":"","type":"uint256","internalType":"uint256"}],"stateMutability":"view"},{"type":"function","name":"_isStrategyEnabled","inputs":[],"outputs":[{"name":"","type":"bool","internalType":"bool"}],"stateMutability":"view"},{"type":"function","name":"arbitrableConfigs","inputs":[{"name":"","type":"uint256","internalType":"uint256"}],"outputs":[{"name":"arbitrator","type":"address","internalType":"contract IArbitrator"},{"name":"tribunalSafe","type":"address","internalType":"address"},{"name":"submitterCollateralAmount","type":"uint256","internalType":"uint256"},{"name":"challengerCollateralAmount","type":"uint256","internalType":"uint256"},{"name":"defaultRuling","type":"uint256","internalType":"uint256"},{"name":"defaultRulingTimeout","type":"uint256","internalType":"uint256"}],"stateMutability":"view"},{"type":"function","name":"calculateProposalConviction","inputs":[{"name":"_proposalId","type":"uint256","internalType":"uint256"}],"outputs":[{"name":"","type":"uint256","internalType":"uint256"}],"stateMutability":"view"},{"type":"function","name":"cloneNonce","inputs":[],"outputs":[{"name":"","type":"uint256","internalType":"uint256"}],"stateMutability":"view"},{"type":"function","name":"collateralVault","inputs":[],"outputs":[{"name":"","type":"address","internalType":"contract ICollateralVault"}],"stateMutability":"view"},{"type":"function","name":"currentArbitrableConfigVersion","inputs":[],"outputs":[{"name":"","type":"uint256","internalType":"uint256"}],"stateMutability":"view"},{"type":"function","name":"cvParams","inputs":[],"outputs":[{"name":"maxRatio","type":"uint256","internalType":"uint256"},{"name":"weight","type":"uint256","internalType":"uint256"},{"name":"decay","type":"uint256","internalType":"uint256"},{"name":"minThresholdPoints","type":"uint256","internalType":"uint256"}],"stateMutability":"view"},{"type":"function","name":"disputeCount","inputs":[],"outputs":[{"name":"","type":"uint64","internalType":"uint64"}],"stateMutability":"view"},{"type":"function","name":"disputeIdToProposalId","inputs":[{"name":"","type":"uint256","internalType":"uint256"}],"outputs":[{"name":"","type":"uint256","internalType":"uint256"}],"stateMutability":"view"},{"type":"function","name":"getPoolAmount","inputs":[],"outputs":[{"name":"","type":"uint256","internalType":"uint256"}],"stateMutability":"view"},{"type":"function","name":"lastRebalanceAt","inputs":[],"outputs":[{"name":"","type":"uint256","internalType":"uint256"}],"stateMutability":"view"},{"type":"function","name":"pointConfig","inputs":[],"outputs":[{"name":"maxAmount","type":"uint256","internalType":"uint256"}],"stateMutability":"view"},{"type":"function","name":"pointSystem","inputs":[],"outputs":[{"name":"","type":"uint8","internalType":"enum PointSystem"}],"stateMutability":"view"},{"type":"function","name":"proposalCounter","inputs":[],"outputs":[{"name":"","type":"uint256","internalType":"uint256"}],"stateMutability":"view"},{"type":"function","name":"proposalExists","inputs":[{"name":"_proposalID","type":"uint256","internalType":"uint256"}],"outputs":[{"name":"","type":"bool","internalType":"bool"}],"stateMutability":"view"},{"type":"function","name":"proposalType","inputs":[],"outputs":[{"name":"","type":"uint8","internalType":"enum ProposalType"}],"stateMutability":"view"},{"type":"function","name":"rebalance","inputs":[],"outputs":[],"stateMutability":"nonpayable"},{"type":"function","name":"rebalanceCooldown","inputs":[],"outputs":[{"name":"","type":"uint256","internalType":"uint256"}],"stateMutability":"view"},{"type":"function","name":"registryCommunity","inputs":[],"outputs":[{"name":"","type":"address","internalType":"contract RegistryCommunity"}],"stateMutability":"view"},{"type":"function","name":"stopEscrowStream","inputs":[{"name":"escrow","type":"address","internalType":"address"}],"outputs":[],"stateMutability":"nonpayable"},{"type":"function","name":"streamingEscrow","inputs":[{"name":"proposalId","type":"uint256","internalType":"uint256"}],"outputs":[{"name":"","type":"address","internalType":"address"}],"stateMutability":"view"},{"type":"function","name":"streamingRatePerSecond","inputs":[],"outputs":[{"name":"","type":"uint256","internalType":"uint256"}],"stateMutability":"view"},{"type":"function","name":"superfluidGDA","inputs":[],"outputs":[{"name":"","type":"address","internalType":"contract ISuperfluidPool"}],"stateMutability":"view"},{"type":"function","name":"superfluidToken","inputs":[],"outputs":[{"name":"","type":"address","internalType":"contract ISuperToken"}],"stateMutability":"view"},{"type":"function","name":"sybilScorer","inputs":[],"outputs":[{"name":"","type":"address","internalType":"contract ISybilScorer"}],"stateMutability":"view"},{"type":"function","name":"totalPointsActivated","inputs":[],"outputs":[{"name":"","type":"uint256","internalType":"uint256"}],"stateMutability":"view"},{"type":"function","name":"totalStaked","inputs":[],"outputs":[{"name":"","type":"uint256","internalType":"uint256"}],"stateMutability":"view"},{"type":"function","name":"totalVoterStakePct","inputs":[{"name":"","type":"address","internalType":"address"}],"outputs":[{"name":"","type":"uint256","internalType":"uint256"}],"stateMutability":"view"},{"type":"function","name":"voterStakedProposals","inputs":[{"name":"","type":"address","internalType":"address"},{"name":"","type":"uint256","internalType":"uint256"}],"outputs":[{"name":"","type":"uint256","internalType":"uint256"}],"stateMutability":"view"},{"type":"function","name":"votingPowerRegistry","inputs":[],"outputs":[{"name":"","type":"address","internalType":"contract IVotingPowerRegistry"}],"stateMutability":"view"},{"type":"function","name":"wrapIfNeeded","inputs":[],"outputs":[],"stateMutability":"nonpayable"},{"type":"event","name":"EscrowStreamStopped","inputs":[{"name":"escrow","type":"address","indexed":true,"internalType":"address"},{"name":"stoppedBy","type":"address","indexed":true,"internalType":"address"}],"anonymous":false},{"type":"event","name":"StreamMemberUnitUpdated","inputs":[{"name":"member","type":"address","indexed":true,"internalType":"address"},{"name":"newUnit","type":"int96","indexed":false,"internalType":"int96"}],"anonymous":false},{"type":"event","name":"StreamRateUpdated","inputs":[{"name":"gda","type":"address","indexed":true,"internalType":"address"},{"name":"flowRate","type":"uint256","indexed":false,"internalType":"uint256"}],"anonymous":false},{"type":"error","name":"ApproveFailed","inputs":[{"name":"token","type":"address","internalType":"address"},{"name":"spender","type":"address","internalType":"address"},{"name":"amount","type":"uint256","internalType":"uint256"}]},{"type":"error","name":"OnlyActiveProposal","inputs":[{"name":"proposalId","type":"uint256","internalType":"uint256"}]},{"type":"error","name":"OnlyAllo","inputs":[{"name":"sender","type":"address","internalType":"address"},{"name":"allo","type":"address","internalType":"address"}]},{"type":"error","name":"OnlyCouncilSafe","inputs":[{"name":"sender","type":"address","internalType":"address"},{"name":"councilSafe","type":"address","internalType":"address"},{"name":"owner","type":"address","internalType":"address"}]},{"type":"error","name":"OnlyCouncilSafeOrMember","inputs":[{"name":"sender","type":"address","internalType":"address"},{"name":"councilSafe","type":"address","internalType":"address"}]},{"type":"error","name":"OnlyInitialized","inputs":[{"name":"poolId","type":"uint256","internalType":"uint256"}]},{"type":"error","name":"OnlyMember","inputs":[{"name":"wallet","type":"address","internalType":"address"},{"name":"community","type":"address","internalType":"address"}]},{"type":"error","name":"OnlyOwner","inputs":[{"name":"sender","type":"address","internalType":"address"},{"name":"ownerAddress","type":"address","internalType":"address"}]},{"type":"error","name":"OnlyRegistryCommunity","inputs":[{"name":"sender","type":"address","internalType":"address"},{"name":"registry","type":"address","internalType":"address"}]},{"type":"error","name":"OnlySubmitter","inputs":[{"name":"proposalId","type":"uint256","internalType":"uint256"},{"name":"submitter","type":"address","internalType":"address"},{"name":"sender","type":"address","internalType":"address"}]},{"type":"error","name":"ProposalDoesNotExist","inputs":[{"name":"proposalID","type":"uint256","internalType":"uint256"}]},{"type":"error","name":"RebalanceCooldownActive","inputs":[{"name":"secondsRemaining","type":"uint256","internalType":"uint256"}]},{"type":"error","name":"StrategyPaused","inputs":[{"name":"controller","type":"address","internalType":"address"}]},{"type":"error","name":"StrategySelectorPaused","inputs":[{"name":"selector","type":"bytes4","internalType":"bytes4"},{"name":"controller","type":"address","internalType":"address"}]},{"type":"error","name":"StreamingEscrowNotFound","inputs":[{"name":"escrow","type":"address","internalType":"address"}]},{"type":"error","name":"StreamingRateOverflow","inputs":[{"name":"streamingRatePerSecond","type":"uint256","internalType":"uint256"}]},{"type":"error","name":"SuperTokenTransferFailed","inputs":[{"name":"to","type":"address","internalType":"address"},{"name":"amount","type":"uint256","internalType":"uint256"}]},{"type":"error","name":"UpdateMemberUnitsFailed","inputs":[{"name":"member","type":"address","internalType":"address"},{"name":"units","type":"uint128","internalType":"uint128"}]}],"bytecode":{"object":"0x608060405234801561000f575f80fd5b506123ea8061001d5f395ff3fe608060405234801561000f575f80fd5b5060043610610189575f3560e01c806305caa7f31461018d5780630bece79c146101b65780630c0512e9146101c9578063125fd1d9146101e05780631374b22d146101e95780631b36f56f1461020c5780632506b8701461021f578063255ffb38146102455780632cea13f9146102645780632dbd6fdd1461026c578063339604591461028b578063351d9f961461029457806341bb7605146102ae5780634ab4ba421461033557806353a3d62e1461033d5780635db64b99146103525780636003e4141461037157806360b0645a14610384578063626c47e8146103975780637d40af981461039f5780637d7c2a1c146103a757806380fd91cd146103af578063817b1cd2146103c2578063868c57b8146103cb5780638dc83094146103de57806394573cbb146103e6578063a28889e1146103ef578063a47ff7e51461041a578063aba9ffee14610424578063b04b5b261461042d578063b3de272d14610440578063b6c61f3114610448578063f5be3f7c1461045b575b5f80fd5b6080546101a0906001600160a01b031681565b6040516101ad9190611cee565b60405180910390f35b6079546101a0906001600160a01b031681565b6101d2606e5481565b6040519081526020016101ad565b6101d2606f5481565b6101fc6101f7366004611d02565b610464565b60405190151581526020016101ad565b6081546101a0906001600160a01b031681565b6072546073546074546075546102359392919084565b6040516101ad9493929190611d19565b6101d2610253366004611d02565b607e6020525f908152604090205481565b6101d261049e565b60765461027e90610100900460ff1681565b6040516101ad9190611d48565b6101d2606c5481565b6076546102a19060ff1681565b6040516101ad9190611d62565b6102fd6102bc366004611d02565b607f6020525f90815260409020805460018201546002830154600384015460048501546005909501546001600160a01b039485169593909416939192909186565b604080516001600160a01b039788168152969095166020870152938501929092526060840152608083015260a082015260c0016101ad565b6101d26104ad565b61035061034b366004611d8a565b61072c565b005b6101d2610360366004611d8a565b607c6020525f908152604090205481565b6078546101a0906001600160a01b031681565b6101d2610392366004611d02565b6108b5565b6101d2600381565b610350610979565b610350610c3c565b6083546101a0906001600160a01b031681565b6101d260705481565b6101d26103d9366004611da5565b61116d565b6101fc611198565b6101d260825481565b606d54610402906001600160401b031681565b6040516001600160401b0390911681526020016101ad565b6077546101d29081565b6101d260715481565b6101a061043b366004611d02565b611224565b6101d2611249565b607a546101a0906001600160a01b031681565b6101d2611c2081565b5f818152607b60205260408120541580159061049857505f828152607b60205260409020600501546001600160a01b031615155b92915050565b5f6104a761125b565b54919050565b60655460685460405163068bcd8d60e01b81525f9283926001600160a01b039091169163068bcd8d916104e69160040190815260200190565b5f60405180830381865afa158015610500573d5f803e3d5ffd5b505050506040513d5f823e601f3d908101601f191682016040526105279190810190611ec0565b60400151905073eeeeeeeeeeeeeeeeeeeeeeeeeeeeeeeeeeeeeeed196001600160a01b03821601610559574791505090565b6040516370a0823160e01b81525f906001600160a01b038316906370a0823190610587903090600401611cee565b602060405180830381865afa1580156105a2573d5f803e3d5ffd5b505050506040513d601f19601f820116820180604052508101906105c69190611fb5565b6080549091505f906001600160a01b031615610650576080546040516370a0823160e01b81526001600160a01b03909116906370a082319061060c903090600401611cee565b602060405180830381865afa158015610627573d5f803e3d5ffd5b505050506040513d601f19601f8201168201806040525081019061064b9190611fb5565b610652565b5f5b90505f836001600160a01b031663313ce5676040518163ffffffff1660e01b8152600401602060405180830381865afa158015610691573d5f803e3d5ffd5b505050506040513d601f19601f820116820180604052508101906106b59190611fcc565b905060128160ff1610156106ea576106ce816012612000565b6106d990600a6120f9565b6106e39083612107565b9150610719565b60128160ff16111561071957610701601282612000565b61070c90600a6120f9565b6107169083612126565b91505b610723828461213d565b94505050505090565b5f61073561127f565b9050336001600160a01b038216146107765760405163a3ee740f60e01b81523360048201526001600160a01b03821660248201526044015b60405180910390fd5b6001600160a01b03821661079f5781604051632e18b44560e21b815260040161076d9190611cee565b608154604051631b16777760e01b81526001600160a01b0390911690631b167777906107d19085905f90600401612150565b6020604051808303815f875af11580156107ed573d5f803e3d5ffd5b505050506040513d601f19601f820116820180604052508101906108119190612172565b61083257815f60405163068bc39960e41b815260040161076d929190612150565b816001600160a01b03166364db91686040518163ffffffff1660e01b81526004015f604051808303815f87803b15801561086a575f80fd5b505af192505050801561087b575060015b5060405133906001600160a01b038416907f79f20f0fdfd69e0bab8e8337b35104c07ec4584535ef58aa9e8d8cc124d64e00905f90a35050565b5f818152607b602052604081206108ca611198565b6108d8576003015492915050565b73__$f1b7c69ba751c396eddc93d3bbc5414fd9$__63010dfe648260070154436109029190612191565b600384015460028501546074546040516001600160e01b031960e087901b1681526109339493929190600401611d19565b602060405180830381865af415801561094e573d5f803e3d5ffd5b505050506040513d601f19601f820116820180604052508101906109729190611fb5565b9392505050565b6080546001600160a01b031661098b57565b60655460685460405163068bcd8d60e01b815260048101919091525f916001600160a01b03169063068bcd8d906024015f60405180830381865afa1580156109d5573d5f803e3d5ffd5b505050506040513d5f823e601f3d908101601f191682016040526109fc9190810190611ec0565b60400151905073eeeeeeeeeeeeeeeeeeeeeeeeeeeeeeeeeeeeeeed196001600160a01b03821601610a2a5750565b60805460408051631dce337960e31b815290515f926001600160a01b03169163ee719bc89160048083019260209291908290030181865afa158015610a71573d5f803e3d5ffd5b505050506040513d601f19601f82011682018060405250810190610a9591906121a4565b9050816001600160a01b0316816001600160a01b031614610ab4575050565b6040516370a0823160e01b81525f906001600160a01b038416906370a0823190610ae2903090600401611cee565b602060405180830381865afa158015610afd573d5f803e3d5ffd5b505050506040513d601f19601f82011682018060405250810190610b219190611fb5565b9050805f03610b2f57505050565b60805460405163095ea7b360e01b81526001600160a01b038581169263095ea7b392610b63929091169085906004016121bf565b6020604051808303815f875af1158015610b7f573d5f803e3d5ffd5b505050506040513d601f19601f82011682018060405250810190610ba39190612172565b610bde57608054604051636a93d39160e01b81526001600160a01b03808616600483015290911660248201526044810182905260640161076d565b6080546040516345977d0360e01b8152600481018390526001600160a01b03909116906345977d03906024015f604051808303815f87803b158015610c21575f80fd5b505af1158015610c33573d5f803e3d5ffd5b50505050505050565b610c44611249565b15801590610c6a5750610c55611249565b610c5d61049e565b610c67919061213d565b42105b15610cb05742610c78611249565b610c8061049e565b610c8a919061213d565b610c949190612191565b604051632664776560e01b815260040161076d91815260200190565b610cb94261134b565b5f610cc2611198565b905080610cd457610cd1611358565b50565b610cdc610979565b5f610ce56104ad565b90505f60015b606e548111610f61575f818152607b6020526040812090610d0b83611224565b90506001600160a01b038116610d22575050610f4f565b6001600883015460ff166006811115610d3d57610d3d611d34565b14158015610d6457506005600883015460ff166006811115610d6157610d61611d34565b14155b15610e2e57608154604051631b16777760e01b81526001600160a01b0390911690631b16777790610d9b9084905f90600401612150565b6020604051808303815f875af1158015610db7573d5f803e3d5ffd5b505050506040513d601f19601f82011682018060405250810190610ddb9190612172565b610dfc57805f60405163068bc39960e41b815260040161076d929190612150565b6040515f81526001600160a01b038216905f8051602061235e8339815191529060200160405180910390a25050610f4f565b5f610e38846108b5565b90505f610e46848389611405565b15610e8857610e55828761213d565b95505f610e656298968084612107565b90506001600160801b038111610e7b5780610e84565b6001600160801b035b9150505b608154604051631b16777760e01b81526001600160a01b0390911690631b16777790610eba9086908590600401612150565b6020604051808303815f875af1158015610ed6573d5f803e3d5ffd5b505050506040513d601f19601f82011682018060405250810190610efa9190612172565b610f1b57828160405163068bc39960e41b815260040161076d929190612150565b604051600b82900b81526001600160a01b038416905f8051602061235e8339815191529060200160405180910390a2505050505b80610f59816121d8565b915050610ceb565b506071546074546040516326f2e67160e21b8152600481019290925260248201525f9073__$f1b7c69ba751c396eddc93d3bbc5414fd9$__90639bcb99c490604401602060405180830381865af4158015610fbe573d5f803e3d5ffd5b505050506040513d601f19601f82011682018060405250810190610fe29190611fb5565b90505f610fef83836114fb565b90505f8115611027575f8385116110065784611008565b835b905083816082546110199190612126565b6110239190612107565b9150505b6081546080545f91611047916001600160a01b03908116913091166115c3565b6081549091505f90611078906001600160a01b031661106585611649565b6080546001600160a01b03169190611679565b905080600b0b82600b0b146110cf576081546001600160a01b03165f8051602061233e8339815191525f600b84900b136110b2575f6110bd565b826001600160601b03165b60405190815260200160405180910390a25b60015b606e548111611162575f6110e582611224565b90506001600160a01b0381166110fb5750611150565b611104816116a1565b806001600160a01b03166364db91686040518163ffffffff1660e01b81526004015f604051808303815f87803b15801561113c575f80fd5b505af192505050801561114d575060015b50505b8061115a816121d8565b9150506110d2565b505050505050505050565b607d602052815f5260405f208181548110611186575f80fd5b905f5260205f20015f91509150505481565b6078545f906001600160a01b03166111b05750600190565b607854604051633a871fe160e01b81526001600160a01b0390911690633a871fe1906111e0903090600401611cee565b602060405180830381865afa1580156111fb573d5f803e3d5ffd5b505050506040513d601f19601f8201168201806040525081019061121f9190612172565b905090565b5f61122d61125b565b5f9283526003016020525060409020546001600160a01b031690565b5f61125261125b565b60010154905090565b7fd5d05b1f29dcb0c0e1698b0261850eb784d1243215a6aa22ea2b8128b2e9497c90565b5f806112b27fc8fcad8db84d3cc18b4c41d551ea0ee66dd599cde068d998e57d5e09332c131f546001600160a01b031690565b9050806001600160a01b03163b5f036112ca57919050565b806001600160a01b0316638da5cb5b6040518163ffffffff1660e01b8152600401602060405180830381865afa925050508015611324575060408051601f3d908101601f19168201909252611321918101906121a4565b60015b61132d57919050565b6001600160a01b038116156113425780611344565b815b9250505090565b8061135461125b565b5550565b6080546001600160a01b0316158061137957506081546001600160a01b0316155b1561138057565b6081546080545f916113a0916001600160a01b03908116913091166115c3565b6081546080549192505f916113c2916001600160a01b03918216911683611679565b905080600b0b82600b0b14611401576081546040515f81526001600160a01b03909116905f8051602061233e8339815191529060200160405180910390a25b5050565b5f815f0361141457505f610972565b607254611422908390612126565b6298968085600101546114359190612126565b1061144157505f610972565b60018401546071546074546073546072546075546040516314eff2dd60e11b815260048101969096526024860188905260448601949094526064850192909252608484015260a483015260c48201525f9073__$f1b7c69ba751c396eddc93d3bbc5414fd9$__906329dfe5ba9060e401602060405180830381865af41580156114cc573d5f803e3d5ffd5b505050506040513d601f19601f820116820180604052508101906114f09190611fb5565b909311949350505050565b6080545f906001600160a01b031661151457505f610498565b6080546040516370a0823160e01b81525f916001600160a01b0316906370a0823190611544903090600401611cee565b602060405180830381865afa15801561155f573d5f803e3d5ffd5b505050506040513d601f19601f820116820180604052508101906115839190611fb5565b9050805f03611595575f915050610498565b60825415806115a2575082155b806115ab575083155b156115b9575f915050610498565b5060019392505050565b5f806115ce856118d0565b60405162735d7560e41b81529092506001600160a01b0383169150630735d75090611601908890889088906004016121f0565b602060405180830381865afa15801561161c573d5f803e3d5ffd5b505050506040513d601f19601f820116820180604052508101906116409190612213565b95945050505050565b5f60016001605f1b038211156116755760405163045d291960e11b81526004810183905260240161076d565b5090565b604080515f80825260208201909252611699908590309086908690611a14565b949350505050565b5f816001600160a01b031663419759f56040518163ffffffff1660e01b8152600401602060405180830381865afa9250505080156116fc575060408051601f3d908101601f191682019092526116f991810190611fb5565b60015b611704575050565b9050805f03611711575050565b6080546040516370a0823160e01b81525f916001600160a01b0316906370a0823190611741908690600401611cee565b602060405180830381865afa15801561175c573d5f803e3d5ffd5b505050506040513d601f19601f820116820180604052508101906117809190611fb5565b905081811061178e57505050565b5f6117998284612191565b6080546040516370a0823160e01b81529192505f916001600160a01b03909116906370a08231906117ce903090600401611cee565b602060405180830381865afa1580156117e9573d5f803e3d5ffd5b505050506040513d601f19601f8201168201806040525081019061180d9190611fb5565b9050805f0361181d575050505050565b5f81831161182b578261182d565b815b905080156118c85760805460405163a9059cbb60e01b81526001600160a01b039091169063a9059cbb9061186790899085906004016121bf565b6020604051808303815f875af1158015611883573d5f803e3d5ffd5b505050506040513d601f19601f820116820180604052508101906118a79190612172565b6118c8578581604051634232230760e01b815260040161076d9291906121bf565b505050505050565b5f8051602061237e833981519152545f805160206123be833981519152546001600160a01b0381166119e3576001600160a01b03821661196d57826001600160a01b03166320bc44256040518163ffffffff1660e01b8152600401602060405180830381865afa158015611946573d5f803e3d5ffd5b505050506040513d601f19601f8201168201806040525081019061196a91906121a4565b91505b604051635b69006f60e11b81525f8051602061239e83398151915260048201526001600160a01b0383169063b6d200de90602401602060405180830381865afa1580156119bc573d5f803e3d5ffd5b505050506040513d601f19601f820116820180604052508101906119e091906121a4565b90505b6001600160a01b0382166119f9576119f9612233565b6001600160a01b038116611a0f57611a0f612233565b915091565b5f805f611a2088611ba6565b91509150816001600160a01b03166339255d5b82836001600160a01b0316635a6c6dbc8c8c8c8c5f6001600160401b03811115611a5f57611a5f611dcf565b6040519080825280601f01601f191660200182016040528015611a89576020820181803683370190505b50604051602401611a9e959493929190612272565b60408051808303601f1901815291815260208201805160e094851b6001600160e01b03909116179052519185901b6001600160e01b0319168252611ae99392509089906004016122ba565b5f604051808303815f875af1158015611b04573d5f803e3d5ffd5b505050506040513d5f823e601f3d908101601f19168201604052611b2b91908101906122f9565b5060405162735d7560e41b81526001600160a01b03821690630735d75090611b5b908b908b908b906004016121f0565b602060405180830381865afa158015611b76573d5f803e3d5ffd5b505050506040513d601f19601f82011682018060405250810190611b9a9190612213565b98975050505050505050565b5f8051602061237e833981519152545f805160206123be833981519152546001600160a01b0381166119e3576001600160a01b038216611c4357826001600160a01b03166320bc44256040518163ffffffff1660e01b8152600401602060405180830381865afa158015611c1c573d5f803e3d5ffd5b505050506040513d601f19601f82011682018060405250810190611c4091906121a4565b91505b604051635b69006f60e11b81525f8051602061239e83398151915260048201526001600160a01b0383169063b6d200de90602401602060405180830381865afa158015611c92573d5f803e3d5ffd5b505050506040513d601f19601f82011682018060405250810190611cb691906121a4565b9050815f8051602061237e83398151915255805f805160206123be833981519152556001600160a01b0382166119f9576119f9612233565b6001600160a01b0391909116815260200190565b5f60208284031215611d12575f80fd5b5035919050565b93845260208401929092526040830152606082015260800190565b634e487b7160e01b5f52602160045260245ffd5b6020810160058310611d5c57611d5c611d34565b91905290565b6020810160038310611d5c57611d5c611d34565b6001600160a01b0381168114610cd1575f80fd5b5f60208284031215611d9a575f80fd5b813561097281611d76565b5f8060408385031215611db6575f80fd5b8235611dc181611d76565b946020939093013593505050565b634e487b7160e01b5f52604160045260245ffd5b60405160c081016001600160401b0381118282101715611e0557611e05611dcf565b60405290565b604080519081016001600160401b0381118282101715611e0557611e05611dcf565b5f5b83811015611e47578181015183820152602001611e2f565b50505f910152565b5f6001600160401b0380841115611e6857611e68611dcf565b604051601f8501601f19908116603f01168101908282118183101715611e9057611e90611dcf565b81604052809350858152868686011115611ea8575f80fd5b611eb6866020830187611e2d565b5050509392505050565b5f6020808385031215611ed1575f80fd5b82516001600160401b0380821115611ee7575f80fd5b9084019060c08287031215611efa575f80fd5b611f02611de3565b8251815283830151611f1381611d76565b818501526040830151611f2581611d76565b6040820152606083015182811115611f3b575f80fd5b830160408189031215611f4c575f80fd5b611f54611e0b565b815181528582015184811115611f68575f80fd5b82019350601f84018913611f7a575f80fd5b611f88898551888701611e4f565b8682015280606084015250506080830151608082015260a083015160a08201528094505050505092915050565b5f60208284031215611fc5575f80fd5b5051919050565b5f60208284031215611fdc575f80fd5b815160ff81168114610972575f80fd5b634e487b7160e01b5f52601160045260245ffd5b60ff828116828216039081111561049857610498611fec565b600181815b8085111561205357815f190482111561203957612039611fec565b8085161561204657918102915b93841c939080029061201e565b509250929050565b5f8261206957506001610498565b8161207557505f610498565b816001811461208b5760028114612095576120b1565b6001915050610498565b60ff8411156120a6576120a6611fec565b50506001821b610498565b5060208310610133831016604e8410600b84101617156120d4575081810a610498565b6120de8383612019565b805f19048211156120f1576120f1611fec565b029392505050565b5f61097260ff84168361205b565b5f8261212157634e487b7160e01b5f52601260045260245ffd5b500490565b808202811582820484141761049857610498611fec565b8082018082111561049857610498611fec565b6001600160a01b039290921682526001600160801b0316602082015260400190565b5f60208284031215612182575f80fd5b81518015158114610972575f80fd5b8181038181111561049857610498611fec565b5f602082840312156121b4575f80fd5b815161097281611d76565b6001600160a01b03929092168252602082015260400190565b5f600182016121e9576121e9611fec565b5060010190565b6001600160a01b0393841681529183166020830152909116604082015260600190565b5f60208284031215612223575f80fd5b815180600b0b8114610972575f80fd5b634e487b7160e01b5f52600160045260245ffd5b5f815180845261225e816020860160208601611e2d565b601f01601f19169290920160200192915050565b6001600160a01b038681168252858116602083015284166040820152600b83900b606082015260a0608082018190525f906122af90830184612247565b979650505050505050565b6001600160a01b03841681526060602082018190525f906122dd90830185612247565b82810360408401526122ef8185612247565b9695505050505050565b5f60208284031215612309575f80fd5b81516001600160401b0381111561231e575f80fd5b8201601f8101841361232e575f80fd5b61169984825160208401611e4f56fea205e36fbcf9246c82794cd6bc88322c21cdacf00b0c5bf32a99c06998547190a1d53b5da3d9d7af654e5d1e4cef8cbd12cfc576a0891d2303ea5a58d568830065599bf746e17a00ea62e3610586992d88101b78eec3cf380706621fb97ea837dfd8ece9bfbcb8c5c540edb935641f63d67686490a1ab97f000288759f30a946c36f6c05164a669ecb6da53e218d77ae44d51cfc99f91e5a125a18de0949bee4a164736f6c6343000817000a","linkReferences":{"pkg/contracts/src/CVStrategy/ConvictionsUtils.sol":{"ConvictionsUtils":[{"start":2295,"length":20},{"start":4003,"length":20},{"start":5297,"length":20}]}}},"methodIdentifiers":{"DISPUTE_COOLDOWN_SEC()":"f5be3f7c","RULING_OPTIONS()":"626c47e8","_isStrategyEnabled()":"8dc83094","arbitrableConfigs(uint256)":"41bb7605","calculateProposalConviction(uint256)":"60b0645a","cloneNonce()":"33960459","collateralVault()":"0bece79c","currentArbitrableConfigVersion()":"125fd1d9","cvParams()":"2506b870","disputeCount()":"a28889e1","disputeIdToProposalId(uint256)":"255ffb38","getPoolAmount()":"4ab4ba42","lastRebalanceAt()":"2cea13f9","pointConfig()":"a47ff7e5","pointSystem()":"2dbd6fdd","proposalCounter()":"0c0512e9","proposalExists(uint256)":"1374b22d","proposalType()":"351d9f96","rebalance()":"7d7c2a1c","rebalanceCooldown()":"b3de272d","registryCommunity()":"6003e414","stopEscrowStream(address)":"53a3d62e","streamingEscrow(uint256)":"b04b5b26","streamingRatePerSecond()":"94573cbb","superfluidGDA()":"1b36f56f","superfluidToken()":"05caa7f3","sybilScorer()":"b6c61f31","totalPointsActivated()":"aba9ffee","totalStaked()":"817b1cd2","totalVoterStakePct(address)":"5db64b99","voterStakedProposals(address,uint256)":"868c57b8","votingPowerRegistry()":"80fd91cd","wrapIfNeeded()":"7d40af98"},"storageLayout":{"storage":[{"astId":49552,"contract":"pkg/contracts/src/CVStrategy/facets/CVStreamingFacet.sol:CVStreamingFacet","label":"_initialized","offset":0,"slot":"0","type":"t_uint8"},{"astId":49554,"contract":"pkg/contracts/src/CVStrategy/facets/CVStreamingFacet.sol:CVStreamingFacet","label":"_initializing","offset":1,"slot":"0","type":"t_bool"},{"astId":49558,"contract":"pkg/contracts/src/CVStrategy/facets/CVStreamingFacet.sol:CVStreamingFacet","label":"__gap_init","offset":0,"slot":"1","type":"t_array(t_uint256)50_storage"},{"astId":49561,"contract":"pkg/contracts/src/CVStrategy/facets/CVStreamingFacet.sol:CVStreamingFacet","label":"_owner","offset":0,"slot":"51","type":"t_address"},{"astId":49565,"contract":"pkg/contracts/src/CVStrategy/facets/CVStreamingFacet.sol:CVStreamingFacet","label":"__gap_ownable","offset":0,"slot":"52","type":"t_array(t_uint256)49_storage"},{"astId":49569,"contract":"pkg/contracts/src/CVStrategy/facets/CVStreamingFacet.sol:CVStreamingFacet","label":"allo","offset":0,"slot":"101","type":"t_contract(IAllo)351"},{"astId":49571,"contract":"pkg/contracts/src/CVStrategy/facets/CVStreamingFacet.sol:CVStreamingFacet","label":"strategyId","offset":0,"slot":"102","type":"t_bytes32"},{"astId":49573,"contract":"pkg/contracts/src/CVStrategy/facets/CVStreamingFacet.sol:CVStreamingFacet","label":"poolActive","offset":0,"slot":"103","type":"t_bool"},{"astId":49575,"contract":"pkg/contracts/src/CVStrategy/facets/CVStreamingFacet.sol:CVStreamingFacet","label":"poolId","offset":0,"slot":"104","type":"t_uint256"},{"astId":49577,"contract":"pkg/contracts/src/CVStrategy/facets/CVStreamingFacet.sol:CVStreamingFacet","label":"poolAmount","offset":0,"slot":"105","type":"t_uint256"},{"astId":49580,"contract":"pkg/contracts/src/CVStrategy/facets/CVStreamingFacet.sol:CVStreamingFacet","label":"collateralVaultTemplate","offset":0,"slot":"106","type":"t_address"},{"astId":49583,"contract":"pkg/contracts/src/CVStrategy/facets/CVStreamingFacet.sol:CVStreamingFacet","label":"surpressStateMutabilityWarning","offset":0,"slot":"107","type":"t_uint256"},{"astId":49586,"contract":"pkg/contracts/src/CVStrategy/facets/CVStreamingFacet.sol:CVStreamingFacet","label":"cloneNonce","offset":0,"slot":"108","type":"t_uint256"},{"astId":49589,"contract":"pkg/contracts/src/CVStrategy/facets/CVStreamingFacet.sol:CVStreamingFacet","label":"disputeCount","offset":0,"slot":"109","type":"t_uint64"},{"astId":49592,"contract":"pkg/contracts/src/CVStrategy/facets/CVStreamingFacet.sol:CVStreamingFacet","label":"proposalCounter","offset":0,"slot":"110","type":"t_uint256"},{"astId":49595,"contract":"pkg/contracts/src/CVStrategy/facets/CVStreamingFacet.sol:CVStreamingFacet","label":"currentArbitrableConfigVersion","offset":0,"slot":"111","type":"t_uint256"},{"astId":49598,"contract":"pkg/contracts/src/CVStrategy/facets/CVStreamingFacet.sol:CVStreamingFacet","label":"totalStaked","offset":0,"slot":"112","type":"t_uint256"},{"astId":49601,"contract":"pkg/contracts/src/CVStrategy/facets/CVStreamingFacet.sol:CVStreamingFacet","label":"totalPointsActivated","offset":0,"slot":"113","type":"t_uint256"},{"astId":49605,"contract":"pkg/contracts/src/CVStrategy/facets/CVStreamingFacet.sol:CVStreamingFacet","label":"cvParams","offset":0,"slot":"114","type":"t_struct(CVParams)51001_storage"},{"astId":49609,"contract":"pkg/contracts/src/CVStrategy/facets/CVStreamingFacet.sol:CVStreamingFacet","label":"proposalType","offset":0,"slot":"118","type":"t_enum(ProposalType)50901"},{"astId":49613,"contract":"pkg/contracts/src/CVStrategy/facets/CVStreamingFacet.sol:CVStreamingFacet","label":"pointSystem","offset":1,"slot":"118","type":"t_enum(PointSystem)50907"},{"astId":49617,"contract":"pkg/contracts/src/CVStrategy/facets/CVStreamingFacet.sol:CVStreamingFacet","label":"pointConfig","offset":0,"slot":"119","type":"t_struct(PointSystemConfig)50978_storage"},{"astId":49621,"contract":"pkg/contracts/src/CVStrategy/facets/CVStreamingFacet.sol:CVStreamingFacet","label":"registryCommunity","offset":0,"slot":"120","type":"t_contract(RegistryCommunity)54540"},{"astId":49625,"contract":"pkg/contracts/src/CVStrategy/facets/CVStreamingFacet.sol:CVStreamingFacet","label":"collateralVault","offset":0,"slot":"121","type":"t_contract(ICollateralVault)55736"},{"astId":49629,"contract":"pkg/contracts/src/CVStrategy/facets/CVStreamingFacet.sol:CVStreamingFacet","label":"sybilScorer","offset":0,"slot":"122","type":"t_contract(ISybilScorer)52461"},{"astId":49635,"contract":"pkg/contracts/src/CVStrategy/facets/CVStreamingFacet.sol:CVStreamingFacet","label":"proposals","offset":0,"slot":"123","type":"t_mapping(t_uint256,t_struct(Proposal)50970_storage)"},{"astId":49640,"contract":"pkg/contracts/src/CVStrategy/facets/CVStreamingFacet.sol:CVStreamingFacet","label":"totalVoterStakePct","offset":0,"slot":"124","type":"t_mapping(t_address,t_uint256)"},{"astId":49646,"contract":"pkg/contracts/src/CVStrategy/facets/CVStreamingFacet.sol:CVStreamingFacet","label":"voterStakedProposals","offset":0,"slot":"125","type":"t_mapping(t_address,t_array(t_uint256)dyn_storage)"},{"astId":49651,"contract":"pkg/contracts/src/CVStrategy/facets/CVStreamingFacet.sol:CVStreamingFacet","label":"disputeIdToProposalId","offset":0,"slot":"126","type":"t_mapping(t_uint256,t_uint256)"},{"astId":49657,"contract":"pkg/contracts/src/CVStrategy/facets/CVStreamingFacet.sol:CVStreamingFacet","label":"arbitrableConfigs","offset":0,"slot":"127","type":"t_mapping(t_uint256,t_struct(ArbitrableConfig)50992_storage)"},{"astId":49661,"contract":"pkg/contracts/src/CVStrategy/facets/CVStreamingFacet.sol:CVStreamingFacet","label":"superfluidToken","offset":0,"slot":"128","type":"t_contract(ISuperToken)40727"},{"astId":49665,"contract":"pkg/contracts/src/CVStrategy/facets/CVStreamingFacet.sol:CVStreamingFacet","label":"superfluidGDA","offset":0,"slot":"129","type":"t_contract(ISuperfluidPool)39555"},{"astId":49668,"contract":"pkg/contracts/src/CVStrategy/facets/CVStreamingFacet.sol:CVStreamingFacet","label":"streamingRatePerSecond","offset":0,"slot":"130","type":"t_uint256"},{"astId":49672,"contract":"pkg/contracts/src/CVStrategy/facets/CVStreamingFacet.sol:CVStreamingFacet","label":"votingPowerRegistry","offset":0,"slot":"131","type":"t_contract(IVotingPowerRegistry)55940"},{"astId":49677,"contract":"pkg/contracts/src/CVStrategy/facets/CVStreamingFacet.sol:CVStreamingFacet","label":"__gap","offset":0,"slot":"132","type":"t_array(t_uint256)46_storage"}],"types":{"t_address":{"encoding":"inplace","label":"address","numberOfBytes":"20"},"t_array(t_uint256)46_storage":{"encoding":"inplace","label":"uint256[46]","numberOfBytes":"1472","base":"t_uint256"},"t_array(t_uint256)49_storage":{"encoding":"inplace","label":"uint256[49]","numberOfBytes":"1568","base":"t_uint256"},"t_array(t_uint256)50_storage":{"encoding":"inplace","label":"uint256[50]","numberOfBytes":"1600","base":"t_uint256"},"t_array(t_uint256)dyn_storage":{"encoding":"dynamic_array","label":"uint256[]","numberOfBytes":"32","base":"t_uint256"},"t_bool":{"encoding":"inplace","label":"bool","numberOfBytes":"1"},"t_bytes32":{"encoding":"inplace","label":"bytes32","numberOfBytes":"32"},"t_contract(IAllo)351":{"encoding":"inplace","label":"contract IAllo","numberOfBytes":"20"},"t_contract(IArbitrator)55703":{"encoding":"inplace","label":"contract IArbitrator","numberOfBytes":"20"},"t_contract(ICollateralVault)55736":{"encoding":"inplace","label":"contract ICollateralVault","numberOfBytes":"20"},"t_contract(ISuperToken)40727":{"encoding":"inplace","label":"contract ISuperToken","numberOfBytes":"20"},"t_contract(ISuperfluidPool)39555":{"encoding":"inplace","label":"contract ISuperfluidPool","numberOfBytes":"20"},"t_contract(ISybilScorer)52461":{"encoding":"inplace","label":"contract ISybilScorer","numberOfBytes":"20"},"t_contract(IVotingPowerRegistry)55940":{"encoding":"inplace","label":"contract IVotingPowerRegistry","numberOfBytes":"20"},"t_contract(RegistryCommunity)54540":{"encoding":"inplace","label":"contract RegistryCommunity","numberOfBytes":"20"},"t_enum(PointSystem)50907":{"encoding":"inplace","label":"enum PointSystem","numberOfBytes":"1"},"t_enum(ProposalStatus)50927":{"encoding":"inplace","label":"enum ProposalStatus","numberOfBytes":"1"},"t_enum(ProposalType)50901":{"encoding":"inplace","label":"enum ProposalType","numberOfBytes":"1"},"t_mapping(t_address,t_array(t_uint256)dyn_storage)":{"encoding":"mapping","key":"t_address","label":"mapping(address => uint256[])","numberOfBytes":"32","value":"t_array(t_uint256)dyn_storage"},"t_mapping(t_address,t_uint256)":{"encoding":"mapping","key":"t_address","label":"mapping(address => uint256)","numberOfBytes":"32","value":"t_uint256"},"t_mapping(t_uint256,t_struct(ArbitrableConfig)50992_storage)":{"encoding":"mapping","key":"t_uint256","label":"mapping(uint256 => struct ArbitrableConfig)","numberOfBytes":"32","value":"t_struct(ArbitrableConfig)50992_storage"},"t_mapping(t_uint256,t_struct(Proposal)50970_storage)":{"encoding":"mapping","key":"t_uint256","label":"mapping(uint256 => struct Proposal)","numberOfBytes":"32","value":"t_struct(Proposal)50970_storage"},"t_mapping(t_uint256,t_uint256)":{"encoding":"mapping","key":"t_uint256","label":"mapping(uint256 => uint256)","numberOfBytes":"32","value":"t_uint256"},"t_string_storage":{"encoding":"bytes","label":"string","numberOfBytes":"32"},"t_struct(ArbitrableConfig)50992_storage":{"encoding":"inplace","label":"struct ArbitrableConfig","numberOfBytes":"192","members":[{"astId":50981,"contract":"pkg/contracts/src/CVStrategy/facets/CVStreamingFacet.sol:CVStreamingFacet","label":"arbitrator","offset":0,"slot":"0","type":"t_contract(IArbitrator)55703"},{"astId":50983,"contract":"pkg/contracts/src/CVStrategy/facets/CVStreamingFacet.sol:CVStreamingFacet","label":"tribunalSafe","offset":0,"slot":"1","type":"t_address"},{"astId":50985,"contract":"pkg/contracts/src/CVStrategy/facets/CVStreamingFacet.sol:CVStreamingFacet","label":"submitterCollateralAmount","offset":0,"slot":"2","type":"t_uint256"},{"astId":50987,"contract":"pkg/contracts/src/CVStrategy/facets/CVStreamingFacet.sol:CVStreamingFacet","label":"challengerCollateralAmount","offset":0,"slot":"3","type":"t_uint256"},{"astId":50989,"contract":"pkg/contracts/src/CVStrategy/facets/CVStreamingFacet.sol:CVStreamingFacet","label":"defaultRuling","offset":0,"slot":"4","type":"t_uint256"},{"astId":50991,"contract":"pkg/contracts/src/CVStrategy/facets/CVStreamingFacet.sol:CVStreamingFacet","label":"defaultRulingTimeout","offset":0,"slot":"5","type":"t_uint256"}]},"t_struct(CVParams)51001_storage":{"encoding":"inplace","label":"struct CVParams","numberOfBytes":"128","members":[{"astId":50994,"contract":"pkg/contracts/src/CVStrategy/facets/CVStreamingFacet.sol:CVStreamingFacet","label":"maxRatio","offset":0,"slot":"0","type":"t_uint256"},{"astId":50996,"contract":"pkg/contracts/src/CVStrategy/facets/CVStreamingFacet.sol:CVStreamingFacet","label":"weight","offset":0,"slot":"1","type":"t_uint256"},{"astId":50998,"contract":"pkg/contracts/src/CVStrategy/facets/CVStreamingFacet.sol:CVStreamingFacet","label":"decay","offset":0,"slot":"2","type":"t_uint256"},{"astId":51000,"contract":"pkg/contracts/src/CVStrategy/facets/CVStreamingFacet.sol:CVStreamingFacet","label":"minThresholdPoints","offset":0,"slot":"3","type":"t_uint256"}]},"t_struct(Metadata)806_storage":{"encoding":"inplace","label":"struct Metadata","numberOfBytes":"64","members":[{"astId":802,"contract":"pkg/contracts/src/CVStrategy/facets/CVStreamingFacet.sol:CVStreamingFacet","label":"protocol","offset":0,"slot":"0","type":"t_uint256"},{"astId":805,"contract":"pkg/contracts/src/CVStrategy/facets/CVStreamingFacet.sol:CVStreamingFacet","label":"pointer","offset":0,"slot":"1","type":"t_string_storage"}]},"t_struct(PointSystemConfig)50978_storage":{"encoding":"inplace","label":"struct PointSystemConfig","numberOfBytes":"32","members":[{"astId":50977,"contract":"pkg/contracts/src/CVStrategy/facets/CVStreamingFacet.sol:CVStreamingFacet","label":"maxAmount","offset":0,"slot":"0","type":"t_uint256"}]},"t_struct(Proposal)50970_storage":{"encoding":"inplace","label":"struct Proposal","numberOfBytes":"576","members":[{"astId":50936,"contract":"pkg/contracts/src/CVStrategy/facets/CVStreamingFacet.sol:CVStreamingFacet","label":"proposalId","offset":0,"slot":"0","type":"t_uint256"},{"astId":50938,"contract":"pkg/contracts/src/CVStrategy/facets/CVStreamingFacet.sol:CVStreamingFacet","label":"requestedAmount","offset":0,"slot":"1","type":"t_uint256"},{"astId":50940,"contract":"pkg/contracts/src/CVStrategy/facets/CVStreamingFacet.sol:CVStreamingFacet","label":"stakedAmount","offset":0,"slot":"2","type":"t_uint256"},{"astId":50942,"contract":"pkg/contracts/src/CVStrategy/facets/CVStreamingFacet.sol:CVStreamingFacet","label":"convictionLast","offset":0,"slot":"3","type":"t_uint256"},{"astId":50944,"contract":"pkg/contracts/src/CVStrategy/facets/CVStreamingFacet.sol:CVStreamingFacet","label":"beneficiary","offset":0,"slot":"4","type":"t_address"},{"astId":50946,"contract":"pkg/contracts/src/CVStrategy/facets/CVStreamingFacet.sol:CVStreamingFacet","label":"submitter","offset":0,"slot":"5","type":"t_address"},{"astId":50948,"contract":"pkg/contracts/src/CVStrategy/facets/CVStreamingFacet.sol:CVStreamingFacet","label":"requestedToken","offset":0,"slot":"6","type":"t_address"},{"astId":50950,"contract":"pkg/contracts/src/CVStrategy/facets/CVStreamingFacet.sol:CVStreamingFacet","label":"blockLast","offset":0,"slot":"7","type":"t_uint256"},{"astId":50953,"contract":"pkg/contracts/src/CVStrategy/facets/CVStreamingFacet.sol:CVStreamingFacet","label":"proposalStatus","offset":0,"slot":"8","type":"t_enum(ProposalStatus)50927"},{"astId":50957,"contract":"pkg/contracts/src/CVStrategy/facets/CVStreamingFacet.sol:CVStreamingFacet","label":"voterStakedPoints","offset":0,"slot":"9","type":"t_mapping(t_address,t_uint256)"},{"astId":50960,"contract":"pkg/contracts/src/CVStrategy/facets/CVStreamingFacet.sol:CVStreamingFacet","label":"metadata","offset":0,"slot":"10","type":"t_struct(Metadata)806_storage"},{"astId":50963,"contract":"pkg/contracts/src/CVStrategy/facets/CVStreamingFacet.sol:CVStreamingFacet","label":"disputeInfo","offset":0,"slot":"12","type":"t_struct(ProposalDisputeInfo)50934_storage"},{"astId":50965,"contract":"pkg/contracts/src/CVStrategy/facets/CVStreamingFacet.sol:CVStreamingFacet","label":"lastDisputeCompletion","offset":0,"slot":"15","type":"t_uint256"},{"astId":50967,"contract":"pkg/contracts/src/CVStrategy/facets/CVStreamingFacet.sol:CVStreamingFacet","label":"arbitrableConfigVersion","offset":0,"slot":"16","type":"t_uint256"},{"astId":50969,"contract":"pkg/contracts/src/CVStrategy/facets/CVStreamingFacet.sol:CVStreamingFacet","label":"creationTimestamp","offset":0,"slot":"17","type":"t_uint256"}]},"t_struct(ProposalDisputeInfo)50934_storage":{"encoding":"inplace","label":"struct ProposalDisputeInfo","numberOfBytes":"96","members":[{"astId":50929,"contract":"pkg/contracts/src/CVStrategy/facets/CVStreamingFacet.sol:CVStreamingFacet","label":"disputeId","offset":0,"slot":"0","type":"t_uint256"},{"astId":50931,"contract":"pkg/contracts/src/CVStrategy/facets/CVStreamingFacet.sol:CVStreamingFacet","label":"disputeTimestamp","offset":0,"slot":"1","type":"t_uint256"},{"astId":50933,"contract":"pkg/contracts/src/CVStrategy/facets/CVStreamingFacet.sol:CVStreamingFacet","label":"challenger","offset":0,"slot":"2","type":"t_address"}]},"t_uint256":{"encoding":"inplace","label":"uint256","numberOfBytes":"32"},"t_uint64":{"encoding":"inplace","label":"uint64","numberOfBytes":"8"},"t_uint8":{"encoding":"inplace","label":"uint8","numberOfBytes":"1"}}},"id":107}