{"abi":[{"type":"function","name":"DISPUTE_COOLDOWN_SEC","inputs":[],"outputs":[{"name":"","type":"uint256","internalType":"uint256"}],"stateMutability":"view"},{"type":"function","name":"RULING_OPTIONS","inputs":[],"outputs":[{"name":"","type":"uint256","internalType":"uint256"}],"stateMutability":"view"},{"type":"function","name":"arbitrableConfigs","inputs":[{"name":"","type":"uint256","internalType":"uint256"}],"outputs":[{"name":"arbitrator","type":"address","internalType":"contract IArbitrator"},{"name":"tribunalSafe","type":"address","internalType":"address"},{"name":"submitterCollateralAmount","type":"uint256","internalType":"uint256"},{"name":"challengerCollateralAmount","type":"uint256","internalType":"uint256"},{"name":"defaultRuling","type":"uint256","internalType":"uint256"},{"name":"defaultRulingTimeout","type":"uint256","internalType":"uint256"}],"stateMutability":"view"},{"type":"function","name":"cloneNonce","inputs":[],"outputs":[{"name":"","type":"uint256","internalType":"uint256"}],"stateMutability":"view"},{"type":"function","name":"collateralVault","inputs":[],"outputs":[{"name":"","type":"address","internalType":"contract ICollateralVault"}],"stateMutability":"view"},{"type":"function","name":"connectSuperfluidGDA","inputs":[{"name":"gda","type":"address","internalType":"address"}],"outputs":[],"stateMutability":"nonpayable"},{"type":"function","name":"currentArbitrableConfigVersion","inputs":[],"outputs":[{"name":"","type":"uint256","internalType":"uint256"}],"stateMutability":"view"},{"type":"function","name":"cvParams","inputs":[],"outputs":[{"name":"maxRatio","type":"uint256","internalType":"uint256"},{"name":"weight","type":"uint256","internalType":"uint256"},{"name":"decay","type":"uint256","internalType":"uint256"},{"name":"minThresholdPoints","type":"uint256","internalType":"uint256"}],"stateMutability":"view"},{"type":"function","name":"disconnectSuperfluidGDA","inputs":[{"name":"gda","type":"address","internalType":"address"}],"outputs":[],"stateMutability":"nonpayable"},{"type":"function","name":"disputeCount","inputs":[],"outputs":[{"name":"","type":"uint64","internalType":"uint64"}],"stateMutability":"view"},{"type":"function","name":"disputeIdToProposalId","inputs":[{"name":"","type":"uint256","internalType":"uint256"}],"outputs":[{"name":"","type":"uint256","internalType":"uint256"}],"stateMutability":"view"},{"type":"function","name":"pointConfig","inputs":[],"outputs":[{"name":"maxAmount","type":"uint256","internalType":"uint256"}],"stateMutability":"view"},{"type":"function","name":"pointSystem","inputs":[],"outputs":[{"name":"","type":"uint8","internalType":"enum PointSystem"}],"stateMutability":"view"},{"type":"function","name":"proposalCounter","inputs":[],"outputs":[{"name":"","type":"uint256","internalType":"uint256"}],"stateMutability":"view"},{"type":"function","name":"proposalType","inputs":[],"outputs":[{"name":"","type":"uint8","internalType":"enum ProposalType"}],"stateMutability":"view"},{"type":"function","name":"proposals","inputs":[{"name":"","type":"uint256","internalType":"uint256"}],"outputs":[{"name":"proposalId","type":"uint256","internalType":"uint256"},{"name":"requestedAmount","type":"uint256","internalType":"uint256"},{"name":"stakedAmount","type":"uint256","internalType":"uint256"},{"name":"convictionLast","type":"uint256","internalType":"uint256"},{"name":"beneficiary","type":"address","internalType":"address"},{"name":"submitter","type":"address","internalType":"address"},{"name":"requestedToken","type":"address","internalType":"address"},{"name":"blockLast","type":"uint256","internalType":"uint256"},{"name":"proposalStatus","type":"uint8","internalType":"enum ProposalStatus"},{"name":"metadata","type":"tuple","internalType":"struct Metadata","components":[{"name":"protocol","type":"uint256","internalType":"uint256"},{"name":"pointer","type":"string","internalType":"string"}]},{"name":"disputeInfo","type":"tuple","internalType":"struct ProposalDisputeInfo","components":[{"name":"disputeId","type":"uint256","internalType":"uint256"},{"name":"disputeTimestamp","type":"uint256","internalType":"uint256"},{"name":"challenger","type":"address","internalType":"address"}]},{"name":"lastDisputeCompletion","type":"uint256","internalType":"uint256"},{"name":"arbitrableConfigVersion","type":"uint256","internalType":"uint256"},{"name":"creationTimestamp","type":"uint256","internalType":"uint256"}],"stateMutability":"view"},{"type":"function","name":"registryCommunity","inputs":[],"outputs":[{"name":"","type":"address","internalType":"contract RegistryCommunity"}],"stateMutability":"view"},{"type":"function","name":"setPoolParams","inputs":[{"name":"_arbitrableConfig","type":"tuple","internalType":"struct ArbitrableConfig","components":[{"name":"arbitrator","type":"address","internalType":"contract IArbitrator"},{"name":"tribunalSafe","type":"address","internalType":"address"},{"name":"submitterCollateralAmount","type":"uint256","internalType":"uint256"},{"name":"challengerCollateralAmount","type":"uint256","internalType":"uint256"},{"name":"defaultRuling","type":"uint256","internalType":"uint256"},{"name":"defaultRulingTimeout","type":"uint256","internalType":"uint256"}]},{"name":"_cvParams","type":"tuple","internalType":"struct CVParams","components":[{"name":"maxRatio","type":"uint256","internalType":"uint256"},{"name":"weight","type":"uint256","internalType":"uint256"},{"name":"decay","type":"uint256","internalType":"uint256"},{"name":"minThresholdPoints","type":"uint256","internalType":"uint256"}]},{"name":"_sybilScoreThreshold","type":"uint256","internalType":"uint256"},{"name":"_membersToAdd","type":"address[]","internalType":"address[]"},{"name":"_membersToRemove","type":"address[]","internalType":"address[]"},{"name":"_superfluidToken","type":"address","internalType":"address"}],"outputs":[],"stateMutability":"nonpayable"},{"type":"function","name":"streamingRatePerSecond","inputs":[],"outputs":[{"name":"","type":"uint256","internalType":"uint256"}],"stateMutability":"view"},{"type":"function","name":"superfluidGDA","inputs":[],"outputs":[{"name":"","type":"address","internalType":"contract ISuperfluidPool"}],"stateMutability":"view"},{"type":"function","name":"superfluidToken","inputs":[],"outputs":[{"name":"","type":"address","internalType":"contract ISuperToken"}],"stateMutability":"view"},{"type":"function","name":"sybilScorer","inputs":[],"outputs":[{"name":"","type":"address","internalType":"contract ISybilScorer"}],"stateMutability":"view"},{"type":"function","name":"totalPointsActivated","inputs":[],"outputs":[{"name":"","type":"uint256","internalType":"uint256"}],"stateMutability":"view"},{"type":"function","name":"totalStaked","inputs":[],"outputs":[{"name":"","type":"uint256","internalType":"uint256"}],"stateMutability":"view"},{"type":"function","name":"totalVoterStakePct","inputs":[{"name":"","type":"address","internalType":"address"}],"outputs":[{"name":"","type":"uint256","internalType":"uint256"}],"stateMutability":"view"},{"type":"function","name":"voterStakedProposals","inputs":[{"name":"","type":"address","internalType":"address"},{"name":"","type":"uint256","internalType":"uint256"}],"outputs":[{"name":"","type":"uint256","internalType":"uint256"}],"stateMutability":"view"},{"type":"event","name":"AllowlistMembersAdded","inputs":[{"name":"poolId","type":"uint256","indexed":false,"internalType":"uint256"},{"name":"members","type":"address[]","indexed":false,"internalType":"address[]"}],"anonymous":false},{"type":"event","name":"AllowlistMembersRemoved","inputs":[{"name":"poolId","type":"uint256","indexed":false,"internalType":"uint256"},{"name":"members","type":"address[]","indexed":false,"internalType":"address[]"}],"anonymous":false},{"type":"event","name":"ArbitrableConfigUpdated","inputs":[{"name":"currentArbitrableConfigVersion","type":"uint256","indexed":false,"internalType":"uint256"},{"name":"arbitrator","type":"address","indexed":false,"internalType":"contract IArbitrator"},{"name":"tribunalSafe","type":"address","indexed":false,"internalType":"address"},{"name":"submitterCollateralAmount","type":"uint256","indexed":false,"internalType":"uint256"},{"name":"challengerCollateralAmount","type":"uint256","indexed":false,"internalType":"uint256"},{"name":"defaultRuling","type":"uint256","indexed":false,"internalType":"uint256"},{"name":"defaultRulingTimeout","type":"uint256","indexed":false,"internalType":"uint256"}],"anonymous":false},{"type":"event","name":"CVParamsUpdated","inputs":[{"name":"cvParams","type":"tuple","indexed":false,"internalType":"struct CVParams","components":[{"name":"maxRatio","type":"uint256","internalType":"uint256"},{"name":"weight","type":"uint256","internalType":"uint256"},{"name":"decay","type":"uint256","internalType":"uint256"},{"name":"minThresholdPoints","type":"uint256","internalType":"uint256"}]}],"anonymous":false},{"type":"event","name":"PointsDeactivated","inputs":[{"name":"member","type":"address","indexed":false,"internalType":"address"}],"anonymous":false},{"type":"event","name":"SuperfluidGDAConnected","inputs":[{"name":"gda","type":"address","indexed":true,"internalType":"address"},{"name":"by","type":"address","indexed":true,"internalType":"address"}],"anonymous":false},{"type":"event","name":"SuperfluidGDADisconnected","inputs":[{"name":"gda","type":"address","indexed":true,"internalType":"address"},{"name":"by","type":"address","indexed":true,"internalType":"address"}],"anonymous":false},{"type":"event","name":"SuperfluidTokenUpdated","inputs":[{"name":"superfluidToken","type":"address","indexed":false,"internalType":"address"}],"anonymous":false},{"type":"error","name":"OnlyActiveProposal","inputs":[{"name":"proposalId","type":"uint256","internalType":"uint256"}]},{"type":"error","name":"OnlyAllo","inputs":[{"name":"sender","type":"address","internalType":"address"},{"name":"allo","type":"address","internalType":"address"}]},{"type":"error","name":"OnlyCouncilSafe","inputs":[{"name":"sender","type":"address","internalType":"address"},{"name":"councilSafe","type":"address","internalType":"address"},{"name":"owner","type":"address","internalType":"address"}]},{"type":"error","name":"OnlyCouncilSafeOrMember","inputs":[{"name":"sender","type":"address","internalType":"address"},{"name":"councilSafe","type":"address","internalType":"address"}]},{"type":"error","name":"OnlyInitialized","inputs":[{"name":"poolId","type":"uint256","internalType":"uint256"}]},{"type":"error","name":"OnlyMember","inputs":[{"name":"wallet","type":"address","internalType":"address"},{"name":"community","type":"address","internalType":"address"}]},{"type":"error","name":"OnlyRegistryCommunity","inputs":[{"name":"sender","type":"address","internalType":"address"},{"name":"registry","type":"address","internalType":"address"}]},{"type":"error","name":"OnlySubmitter","inputs":[{"name":"proposalId","type":"uint256","internalType":"uint256"},{"name":"submitter","type":"address","internalType":"address"},{"name":"sender","type":"address","internalType":"address"}]},{"type":"error","name":"ProposalDoesNotExist","inputs":[{"name":"proposalID","type":"uint256","internalType":"uint256"}]},{"type":"error","name":"StrategyPaused","inputs":[{"name":"controller","type":"address","internalType":"address"}]},{"type":"error","name":"StrategySelectorPaused","inputs":[{"name":"selector","type":"bytes4","internalType":"bytes4"},{"name":"controller","type":"address","internalType":"address"}]},{"type":"error","name":"SuperfluidGDAConnectFailed","inputs":[{"name":"gda","type":"address","internalType":"address"},{"name":"superToken","type":"address","internalType":"address"},{"name":"caller","type":"address","internalType":"address"}]},{"type":"error","name":"SuperfluidGDADisconnectFailed","inputs":[{"name":"gda","type":"address","internalType":"address"},{"name":"superToken","type":"address","internalType":"address"},{"name":"caller","type":"address","internalType":"address"}]}],"bytecode":{"object":"0x608060405234801561000f575f80fd5b506122738061001d5f395ff3fe608060405234801561000f575f80fd5b506004361061013c575f3560e01c8063013cf08b1461014057806305caa7f3146101765780630bece79c146101965780630c0512e9146101a9578063125fd1d9146101c05780631b36f56f146101c95780632506b870146101dc578063255ffb38146102125780632dbd6fdd146102315780633396045914610250578063351d9f961461025957806341bb7605146102735780635db64b99146102fa5780636003e41414610319578063626c47e81461032c578063817b1cd214610334578063868c57b81461033d578063924e67041461035057806394573cbb14610365578063a28889e11461036e578063a47ff7e514610399578063aba9ffee146103a3578063b6c61f31146103ac578063c69271ec146103bf578063d5b7cc54146103d2578063f5be3f7c146103e5575b5f80fd5b61015361014e366004611a07565b6103ee565b60405161016d9e9d9c9b9a99989796959493929190611ab9565b60405180910390f35b608054610189906001600160a01b031681565b60405161016d9190611b6c565b607954610189906001600160a01b031681565b6101b2606e5481565b60405190815260200161016d565b6101b2606f5481565b608154610189906001600160a01b031681565b6072546073546074546075546101f29392919084565b60408051948552602085019390935291830152606082015260800161016d565b6101b2610220366004611a07565b607e6020525f908152604090205481565b60765461024390610100900460ff1681565b60405161016d9190611b80565b6101b2606c5481565b6076546102669060ff1681565b60405161016d9190611b9a565b6102c2610281366004611a07565b607f6020525f90815260409020805460018201546002830154600384015460048501546005909501546001600160a01b039485169593909416939192909186565b604080516001600160a01b039788168152969095166020870152938501929092526060840152608083015260a082015260c00161016d565b6101b2610308366004611bd5565b607c6020525f908152604090205481565b607854610189906001600160a01b031681565b6101b2600381565b6101b260705481565b6101b261034b366004611bf0565b61053e565b61036361035e366004611bd5565b610569565b005b6101b260825481565b606d54610381906001600160401b031681565b6040516001600160401b03909116815260200161016d565b6077546101b29081565b6101b260715481565b607a54610189906001600160a01b031681565b6103636103cd366004611bd5565b61068e565b6103636103e0366004611d90565b6107aa565b6101b2611c2081565b607b60209081525f9182526040918290208054600182015460028301546003840154600485015460058601546006870154600788015460088901548b51808d01909c52600a8a0180548d52600b8b0180549a9d999c989b979a6001600160a01b039788169a968816999790951697939660ff909316959394919284019161047490611e87565b80601f01602080910402602001604051908101604052809291908181526020018280546104a090611e87565b80156104eb5780601f106104c2576101008083540402835291602001916104eb565b820191905f5260205f20905b8154815290600101906020018083116104ce57829003601f168201915b50505091909252505060408051606081018252600c8501548152600d8501546020820152600e8501546001600160a01b031691810191909152600f8401546010850154601190950154939491939092508e565b607d602052815f5260405f208181548110610557575f80fd5b905f5260205f20015f91509150505481565b610571610897565b6080545f906001600160a01b03166106025760655460685460405163068bcd8d60e01b81526001600160a01b039092169163068bcd8d916105b89160040190815260200190565b5f60405180830381865afa1580156105d2573d5f803e3d5ffd5b505050506040513d5f823e601f3d908101601f191682016040526105f99190810190611f0b565b6040015161060f565b6080546001600160a01b03165b90505f6106256001600160a01b038316846109bf565b90508061065457828233604051639bd2355f60e01b815260040161064b93929190612000565b60405180910390fd5b60405133906001600160a01b038516907f1f9d364ce9d858d45443edba44a22a2f561d96a90f9772e2457056f4ed98ed0f905f90a3505050565b610696610897565b6080545f906001600160a01b03166107275760655460685460405163068bcd8d60e01b81526001600160a01b039092169163068bcd8d916106dd9160040190815260200190565b5f60405180830381865afa1580156106f7573d5f803e3d5ffd5b505050506040513d5f823e601f3d908101601f1916820160405261071e9190810190611f0b565b60400151610734565b6080546001600160a01b03165b90505f61074a6001600160a01b038316846109e4565b90508061077057828233604051633746bbff60e01b815260040161064b93929190612000565b60405133906001600160a01b038516907f5ae956f5060a976a6df3810c70d24e4d7b6987e1bfc9b1be2c9e43adfea8f301905f90a3505050565b6107b2610a00565b608080546001600160a01b0319166001600160a01b0383161790556040517fd386b229b28c71d6819c5b8cd43d22f3b28607ab0ac101e82c783e1addb5e01f906107fd908390611b6c565b60405180910390a161081186868585610b42565b607a546001600160a01b03161580159061082a57505f84115b1561088f57607a5460405163642ce76b60e01b8152306004820152602481018690526001600160a01b039091169063642ce76b906044015f604051808303815f87803b158015610878575f80fd5b505af115801561088a573d5f803e3d5ffd5b505050505b505050505050565b60785f9054906101000a90046001600160a01b03166001600160a01b0316636c53db9a6040518163ffffffff1660e01b8152600401602060405180830381865afa1580156108e7573d5f803e3d5ffd5b505050506040513d601f19601f8201168201806040525081019061090b9190612023565b6001600160a01b0316336001600160a01b031614158015610932575061093033610ecb565b155b156109bd5760785460408051633629edcd60e11b8152905133926001600160a01b031691636c53db9a9160048083019260209291908290030181865afa15801561097e573d5f803e3d5ffd5b505050506040513d601f19601f820116820180604052508101906109a29190612023565b604051637d19bac760e11b815260040161064b92919061203e565b565b604080515f808252602082019092526109db9084908490611070565b90505b92915050565b604080515f808252602082019092526109db908490849061118e565b60785f9054906101000a90046001600160a01b03166001600160a01b0316636c53db9a6040518163ffffffff1660e01b8152600401602060405180830381865afa158015610a50573d5f803e3d5ffd5b505050506040513d601f19601f82011682018060405250810190610a749190612023565b6001600160a01b0316336001600160a01b031614158015610aae5750610a986111d6565b6001600160a01b0316336001600160a01b031614155b156109bd5760785460408051633629edcd60e11b8152905133926001600160a01b031691636c53db9a9160048083019260209291908290030181865afa158015610afa573d5f803e3d5ffd5b505050506040513d601f19601f82011682018060405250810190610b1e9190612023565b610b266111d6565b60405163e1b9c46960e01b815260040161064b93929190612000565b815115610b5257610b528261120d565b805115610b6257610b6281611472565b60208401516001600160a01b031615801590610b87575083516001600160a01b031615155b8015610c6a5750606f545f908152607f6020908152604090912060010154908501516001600160a01b039081169116141580610be15750606f545f908152607f602052604090205484516001600160a01b03908116911614155b80610c045750606f545f908152607f602052604090819020600201549085015114155b80610c265750606f545f908152607f6020526040902060030154606085015114155b80610c485750606f545f908152607f6020526040902060040154608085015114155b80610c6a5750606f545f908152607f602052604090206005015460a085015114155b15610e2957602080850151606f545f908152607f9092526040909120600101546001600160a01b039081169116141580610cc257508351606f545f908152607f60205260409020546001600160a01b03908116911614155b15610d27578351602085015160405163446adb9960e11b81526001600160a01b03909216916388d5b73291610cf991600401611b6c565b5f604051808303815f87803b158015610d10575f80fd5b505af1158015610d22573d5f803e3d5ffd5b505050505b606f8054905f610d368361206c565b9091555050606f80545f908152607f6020908152604091829020875181546001600160a01b038083166001600160a01b0319928316178455938a015160018401805495821695909216949094179055838901516002830181905560608a01516003840181905560808b01516004850181905560a08c01516005909501859055965495517fe677e2878aaaaf6a65ecf50f849ad58100c49f6dfd57d055ba4bddd63a175d5397610e209796949590919687526001600160a01b0395861660208801529390941660408601526060850191909152608084015260a083019190915260c082015260e00190565b60405180910390a15b6040830151158015610e3d57506020830151155b8015610e4857508251155b8015610e5657506060830151155b610ec557825160728190556020808501805160735560408087018051607455606080890180516075558351968752935194860194909452519084015251908201527fec9315d9f4291207475c061feff1e5d7105750ac0ee9534af9444b4ff1dab9bc9060800160405180910390a15b50505050565b607a545f906001600160a01b0316610fff575f606854604051602001610ef19190612084565b60408051601f19818403018152908290528051602090910120607854632474521560e21b83529092506001600160a01b0316906391d1485490610f3a9084905f906004016120a1565b602060405180830381865afa158015610f55573d5f803e3d5ffd5b505050506040513d601f19601f82011682018060405250810190610f7991906120b8565b15610f875750600192915050565b607854604051632474521560e21b81526001600160a01b03909116906391d1485490610fb990849087906004016120a1565b602060405180830381865afa158015610fd4573d5f803e3d5ffd5b505050506040513d601f19601f82011682018060405250810190610ff891906120b8565b9392505050565b607a546040516302154c3d60e51b81526001600160a01b03909116906342a987a090611031908590309060040161203e565b602060405180830381865afa15801561104c573d5f803e3d5ffd5b505050506040513d601f19601f820116820180604052508101906109de91906120b8565b5f805f61107c86611672565b91509150816001600160a01b03166339255d5b82836001600160a01b031663f0b7b915895f6001600160401b038111156110b8576110b8611c1a565b6040519080825280601f01601f1916602001820160405280156110e2576020820181803683370190505b506040516024016110f49291906120d7565b60408051808303601f1901815291815260208201805160e094851b6001600160e01b03909116179052519185901b6001600160e01b031916825261113f9392509089906004016120fa565b5f604051808303815f875af115801561115a573d5f803e3d5ffd5b505050506040513d5f823e601f3d908101601f191682016040526111819190810190612139565b5060019695505050505050565b5f805f61119a86611672565b91509150816001600160a01b03166339255d5b82836001600160a01b03166330925b79895f6001600160401b038111156110b8576110b8611c1a565b5f6112087fc8fcad8db84d3cc18b4c41d551ea0ee66dd599cde068d998e57d5e09332c131f546001600160a01b031690565b905090565b5f6068546040516020016112219190612084565b60408051601f19818403018152908290528051602090910120607854632474521560e21b83529092506001600160a01b0316906391d148549061126a9084905f906004016120a1565b602060405180830381865afa158015611285573d5f803e3d5ffd5b505050506040513d601f19601f820116820180604052508101906112a991906120b8565b1561130e5760785460405163d547741f60e01b81526001600160a01b039091169063d547741f906112e09084905f906004016120a1565b5f604051808303815f87803b1580156112f7575f80fd5b505af1158015611309573d5f803e3d5ffd5b505050505b5f5b82518110156114325760785483516001600160a01b03909116906391d148549084908690859081106113445761134461217d565b60200260200101516040518363ffffffff1660e01b81526004016113699291906120a1565b602060405180830381865afa158015611384573d5f803e3d5ffd5b505050506040513d601f19601f820116820180604052508101906113a891906120b8565b61142a5760785483516001600160a01b0390911690632f2ff15d9084908690859081106113d7576113d761217d565b60200260200101516040518363ffffffff1660e01b81526004016113fc9291906120a1565b5f604051808303815f87803b158015611413575f80fd5b505af1158015611425573d5f803e3d5ffd5b505050505b600101611310565b507f7a2e396a5614184c0af2c60827c206595126faa1238b94e19823192de52e728a60685483604051611466929190612191565b60405180910390a15050565b5f5b8151811015611633576078546068546040516001600160a01b03909216916391d14854916114a491602001612084565b604051602081830303815290604052805190602001208484815181106114cc576114cc61217d565b60200260200101516040518363ffffffff1660e01b81526004016114f19291906120a1565b602060405180830381865afa15801561150c573d5f803e3d5ffd5b505050506040513d601f19601f8201168201806040525081019061153091906120b8565b156115d7576078546068546040516001600160a01b039092169163d547741f9161155c91602001612084565b604051602081830303815290604052805190602001208484815181106115845761158461217d565b60200260200101516040518363ffffffff1660e01b81526004016115a99291906120a1565b5f604051808303815f87803b1580156115c0575f80fd5b505af11580156115d2573d5f803e3d5ffd5b505050505b5f6001600160a01b03168282815181106115f3576115f361217d565b60200260200101516001600160a01b03161461162b5761162b82828151811061161e5761161e61217d565b60200260200101516117e9565b600101611474565b507fd418c93b6b78d828a87ee1909e6fcdbbf2f8d8f540ad7b232bb3e221e6d7cc1e60685482604051611667929190612191565b60405180910390a150565b5f80516020612227833981519152545f80516020612247833981519152546001600160a01b0381166117b8576001600160a01b03821661170f57826001600160a01b03166320bc44256040518163ffffffff1660e01b8152600401602060405180830381865afa1580156116e8573d5f803e3d5ffd5b505050506040513d601f19601f8201168201806040525081019061170c9190612023565b91505b604051635b69006f60e11b81527fdfd8ece9bfbcb8c5c540edb935641f63d67686490a1ab97f000288759f30a94660048201526001600160a01b0383169063b6d200de90602401602060405180830381865afa158015611771573d5f803e3d5ffd5b505050506040513d601f19601f820116820180604052508101906117959190612023565b9050815f8051602061222783398151915255805f80516020612247833981519152555b6001600160a01b0382166117ce576117ce6121e8565b6001600160a01b0381166117e4576117e46121e8565b915091565b607854604051637817ee4f60e01b81526001600160a01b0390911690637817ee4f9061181b908490309060040161203e565b6020604051808303815f875af1158015611837573d5f803e3d5ffd5b505050506040513d601f19601f8201168201806040525081019061185b91906121fc565b60715f82825461186b9190612213565b90915550506078546040516322bcf99960e01b81526001600160a01b03909116906322bcf999906118a2908490309060040161203e565b5f604051808303815f87803b1580156118b9575f80fd5b505af11580156118cb573d5f803e3d5ffd5b505050506118d881611907565b7f1468da654b37bb3631011c1917d02e0db437d519918858d40b38b5e980ca033b816040516116679190611b6c565b5f5b6001600160a01b0382165f908152607d60205260409020548110156119ed576001600160a01b0382165f908152607d602052604081208054839081106119515761195161217d565b5f918252602080832090910154808352607b90915260409091208054919250901580159061198b575060058101546001600160a01b031615155b156119e3576001600160a01b0384165f9081526009820160205260408120805490829055600283018054919283926119c4908490612213565b925050819055508060705f8282546119dc9190612213565b9091555050505b5050600101611909565b506001600160a01b03165f908152607c6020526040812055565b5f60208284031215611a17575f80fd5b5035919050565b634e487b7160e01b5f52602160045260245ffd5b60078110611a4257611a42611a1e565b9052565b5f5b83811015611a60578181015183820152602001611a48565b50505f910152565b5f8151808452611a7f816020860160208601611a46565b601f01601f19169290920160200192915050565b805182525f602082015160406020850152611ab16040850182611a68565b949350505050565b8e8152602081018e9052604081018d9052606081018c90526001600160a01b038b811660808301528a811660a0830152891660c08201525f8860e0830152611b05610100830189611a32565b610200610120830152611b1c610200830188611a93565b865161014084015260208701516101608401526040909601516001600160a01b0316610180830152506101a08101939093526101c08301919091526101e0909101529a9950505050505050505050565b6001600160a01b0391909116815260200190565b6020810160048310611b9457611b94611a1e565b91905290565b6020810160038310611b9457611b94611a1e565b6001600160a01b0381168114611bc2575f80fd5b50565b8035611bd081611bae565b919050565b5f60208284031215611be5575f80fd5b8135610ff881611bae565b5f8060408385031215611c01575f80fd5b8235611c0c81611bae565b946020939093013593505050565b634e487b7160e01b5f52604160045260245ffd5b60405160c081016001600160401b0381118282101715611c5057611c50611c1a565b60405290565b604080519081016001600160401b0381118282101715611c5057611c50611c1a565b604051601f8201601f191681016001600160401b0381118282101715611ca057611ca0611c1a565b604052919050565b5f60808284031215611cb8575f80fd5b604051608081016001600160401b0381118282101715611cda57611cda611c1a565b8060405250809150823581526020830135602082015260408301356040820152606083013560608201525092915050565b5f82601f830112611d1a575f80fd5b813560206001600160401b03821115611d3557611d35611c1a565b8160051b611d44828201611c78565b9283528481018201928281019087851115611d5d575f80fd5b83870192505b84831015611d85578235611d7681611bae565b82529183019190830190611d63565b979650505050505050565b5f805f805f808688036101c0811215611da7575f80fd5b60c0811215611db4575f80fd5b50611dbd611c2e565b8735611dc881611bae565b81526020880135611dd881611bae565b8060208301525060408801356040820152606088013560608201526080880135608082015260a088013560a082015280965050611e188860c08901611ca8565b945061014087013593506101608701356001600160401b0380821115611e3c575f80fd5b611e488a838b01611d0b565b9450610180890135915080821115611e5e575f80fd5b50611e6b89828a01611d0b565b925050611e7b6101a08801611bc5565b90509295509295509295565b600181811c90821680611e9b57607f821691505b602082108103611eb957634e487b7160e01b5f52602260045260245ffd5b50919050565b5f6001600160401b03831115611ed757611ed7611c1a565b611eea601f8401601f1916602001611c78565b9050828152838383011115611efd575f80fd5b610ff8836020830184611a46565b5f6020808385031215611f1c575f80fd5b82516001600160401b0380821115611f32575f80fd5b9084019060c08287031215611f45575f80fd5b611f4d611c2e565b8251815283830151611f5e81611bae565b818501526040830151611f7081611bae565b6040820152606083015182811115611f86575f80fd5b830160408189031215611f97575f80fd5b611f9f611c56565b815181528582015184811115611fb3575f80fd5b82019350601f84018913611fc5575f80fd5b611fd3898551888701611ebf565b8682015280606084015250506080830151608082015260a083015160a08201528094505050505092915050565b6001600160a01b0393841681529183166020830152909116604082015260600190565b5f60208284031215612033575f80fd5b8151610ff881611bae565b6001600160a01b0392831681529116602082015260400190565b634e487b7160e01b5f52601160045260245ffd5b5f6001820161207d5761207d612058565b5060010190565b6810531313d5d31254d560ba1b8152600981019190915260290190565b9182526001600160a01b0316602082015260400190565b5f602082840312156120c8575f80fd5b81518015158114610ff8575f80fd5b6001600160a01b03831681526040602082018190525f90611ab190830184611a68565b6001600160a01b03841681526060602082018190525f9061211d90830185611a68565b828103604084015261212f8185611a68565b9695505050505050565b5f60208284031215612149575f80fd5b81516001600160401b0381111561215e575f80fd5b8201601f8101841361216e575f80fd5b611ab184825160208401611ebf565b634e487b7160e01b5f52603260045260245ffd5b5f604082018483526020604060208501528185518084526060860191506020870193505f5b818110156121db5784516001600160a01b0316835293830193918301916001016121b6565b5090979650505050505050565b634e487b7160e01b5f52600160045260245ffd5b5f6020828403121561220c575f80fd5b5051919050565b818103818111156109de576109de61205856fe65599bf746e17a00ea62e3610586992d88101b78eec3cf380706621fb97ea837c36f6c05164a669ecb6da53e218d77ae44d51cfc99f91e5a125a18de0949bee4a164736f6c6343000817000a","linkReferences":{}},"methodIdentifiers":{"DISPUTE_COOLDOWN_SEC()":"f5be3f7c","RULING_OPTIONS()":"626c47e8","arbitrableConfigs(uint256)":"41bb7605","cloneNonce()":"33960459","collateralVault()":"0bece79c","connectSuperfluidGDA(address)":"924e6704","currentArbitrableConfigVersion()":"125fd1d9","cvParams()":"2506b870","disconnectSuperfluidGDA(address)":"c69271ec","disputeCount()":"a28889e1","disputeIdToProposalId(uint256)":"255ffb38","pointConfig()":"a47ff7e5","pointSystem()":"2dbd6fdd","proposalCounter()":"0c0512e9","proposalType()":"351d9f96","proposals(uint256)":"013cf08b","registryCommunity()":"6003e414","setPoolParams((address,address,uint256,uint256,uint256,uint256),(uint256,uint256,uint256,uint256),uint256,address[],address[],address)":"d5b7cc54","streamingRatePerSecond()":"94573cbb","superfluidGDA()":"1b36f56f","superfluidToken()":"05caa7f3","sybilScorer()":"b6c61f31","totalPointsActivated()":"aba9ffee","totalStaked()":"817b1cd2","totalVoterStakePct(address)":"5db64b99","voterStakedProposals(address,uint256)":"868c57b8"},"storageLayout":{"storage":[{"astId":101819,"contract":"pkg/contracts/src/CVStrategy/facets/CVAdminFacet.sol:CVAdminFacet","label":"_initialized","offset":0,"slot":"0","type":"t_uint8"},{"astId":101821,"contract":"pkg/contracts/src/CVStrategy/facets/CVAdminFacet.sol:CVAdminFacet","label":"_initializing","offset":1,"slot":"0","type":"t_bool"},{"astId":101825,"contract":"pkg/contracts/src/CVStrategy/facets/CVAdminFacet.sol:CVAdminFacet","label":"__gap_init","offset":0,"slot":"1","type":"t_array(t_uint256)50_storage"},{"astId":101828,"contract":"pkg/contracts/src/CVStrategy/facets/CVAdminFacet.sol:CVAdminFacet","label":"_owner","offset":0,"slot":"51","type":"t_address"},{"astId":101832,"contract":"pkg/contracts/src/CVStrategy/facets/CVAdminFacet.sol:CVAdminFacet","label":"__gap_ownable","offset":0,"slot":"52","type":"t_array(t_uint256)49_storage"},{"astId":101836,"contract":"pkg/contracts/src/CVStrategy/facets/CVAdminFacet.sol:CVAdminFacet","label":"allo","offset":0,"slot":"101","type":"t_contract(IAllo)2631"},{"astId":101838,"contract":"pkg/contracts/src/CVStrategy/facets/CVAdminFacet.sol:CVAdminFacet","label":"strategyId","offset":0,"slot":"102","type":"t_bytes32"},{"astId":101840,"contract":"pkg/contracts/src/CVStrategy/facets/CVAdminFacet.sol:CVAdminFacet","label":"poolActive","offset":0,"slot":"103","type":"t_bool"},{"astId":101842,"contract":"pkg/contracts/src/CVStrategy/facets/CVAdminFacet.sol:CVAdminFacet","label":"poolId","offset":0,"slot":"104","type":"t_uint256"},{"astId":101844,"contract":"pkg/contracts/src/CVStrategy/facets/CVAdminFacet.sol:CVAdminFacet","label":"poolAmount","offset":0,"slot":"105","type":"t_uint256"},{"astId":101847,"contract":"pkg/contracts/src/CVStrategy/facets/CVAdminFacet.sol:CVAdminFacet","label":"collateralVaultTemplate","offset":0,"slot":"106","type":"t_address"},{"astId":101850,"contract":"pkg/contracts/src/CVStrategy/facets/CVAdminFacet.sol:CVAdminFacet","label":"surpressStateMutabilityWarning","offset":0,"slot":"107","type":"t_uint256"},{"astId":101853,"contract":"pkg/contracts/src/CVStrategy/facets/CVAdminFacet.sol:CVAdminFacet","label":"cloneNonce","offset":0,"slot":"108","type":"t_uint256"},{"astId":101856,"contract":"pkg/contracts/src/CVStrategy/facets/CVAdminFacet.sol:CVAdminFacet","label":"disputeCount","offset":0,"slot":"109","type":"t_uint64"},{"astId":101859,"contract":"pkg/contracts/src/CVStrategy/facets/CVAdminFacet.sol:CVAdminFacet","label":"proposalCounter","offset":0,"slot":"110","type":"t_uint256"},{"astId":101862,"contract":"pkg/contracts/src/CVStrategy/facets/CVAdminFacet.sol:CVAdminFacet","label":"currentArbitrableConfigVersion","offset":0,"slot":"111","type":"t_uint256"},{"astId":101865,"contract":"pkg/contracts/src/CVStrategy/facets/CVAdminFacet.sol:CVAdminFacet","label":"totalStaked","offset":0,"slot":"112","type":"t_uint256"},{"astId":101868,"contract":"pkg/contracts/src/CVStrategy/facets/CVAdminFacet.sol:CVAdminFacet","label":"totalPointsActivated","offset":0,"slot":"113","type":"t_uint256"},{"astId":101872,"contract":"pkg/contracts/src/CVStrategy/facets/CVAdminFacet.sol:CVAdminFacet","label":"cvParams","offset":0,"slot":"114","type":"t_struct(CVParams)103180_storage"},{"astId":101876,"contract":"pkg/contracts/src/CVStrategy/facets/CVAdminFacet.sol:CVAdminFacet","label":"proposalType","offset":0,"slot":"118","type":"t_enum(ProposalType)103081"},{"astId":101880,"contract":"pkg/contracts/src/CVStrategy/facets/CVAdminFacet.sol:CVAdminFacet","label":"pointSystem","offset":1,"slot":"118","type":"t_enum(PointSystem)103086"},{"astId":101884,"contract":"pkg/contracts/src/CVStrategy/facets/CVAdminFacet.sol:CVAdminFacet","label":"pointConfig","offset":0,"slot":"119","type":"t_struct(PointSystemConfig)103157_storage"},{"astId":101888,"contract":"pkg/contracts/src/CVStrategy/facets/CVAdminFacet.sol:CVAdminFacet","label":"registryCommunity","offset":0,"slot":"120","type":"t_contract(RegistryCommunity)111435"},{"astId":101892,"contract":"pkg/contracts/src/CVStrategy/facets/CVAdminFacet.sol:CVAdminFacet","label":"collateralVault","offset":0,"slot":"121","type":"t_contract(ICollateralVault)116894"},{"astId":101896,"contract":"pkg/contracts/src/CVStrategy/facets/CVAdminFacet.sol:CVAdminFacet","label":"sybilScorer","offset":0,"slot":"122","type":"t_contract(ISybilScorer)108850"},{"astId":101902,"contract":"pkg/contracts/src/CVStrategy/facets/CVAdminFacet.sol:CVAdminFacet","label":"proposals","offset":0,"slot":"123","type":"t_mapping(t_uint256,t_struct(Proposal)103149_storage)"},{"astId":101907,"contract":"pkg/contracts/src/CVStrategy/facets/CVAdminFacet.sol:CVAdminFacet","label":"totalVoterStakePct","offset":0,"slot":"124","type":"t_mapping(t_address,t_uint256)"},{"astId":101913,"contract":"pkg/contracts/src/CVStrategy/facets/CVAdminFacet.sol:CVAdminFacet","label":"voterStakedProposals","offset":0,"slot":"125","type":"t_mapping(t_address,t_array(t_uint256)dyn_storage)"},{"astId":101918,"contract":"pkg/contracts/src/CVStrategy/facets/CVAdminFacet.sol:CVAdminFacet","label":"disputeIdToProposalId","offset":0,"slot":"126","type":"t_mapping(t_uint256,t_uint256)"},{"astId":101924,"contract":"pkg/contracts/src/CVStrategy/facets/CVAdminFacet.sol:CVAdminFacet","label":"arbitrableConfigs","offset":0,"slot":"127","type":"t_mapping(t_uint256,t_struct(ArbitrableConfig)103171_storage)"},{"astId":101928,"contract":"pkg/contracts/src/CVStrategy/facets/CVAdminFacet.sol:CVAdminFacet","label":"superfluidToken","offset":0,"slot":"128","type":"t_contract(ISuperToken)80140"},{"astId":101932,"contract":"pkg/contracts/src/CVStrategy/facets/CVAdminFacet.sol:CVAdminFacet","label":"superfluidGDA","offset":0,"slot":"129","type":"t_contract(ISuperfluidPool)78968"},{"astId":101935,"contract":"pkg/contracts/src/CVStrategy/facets/CVAdminFacet.sol:CVAdminFacet","label":"streamingRatePerSecond","offset":0,"slot":"130","type":"t_uint256"},{"astId":101940,"contract":"pkg/contracts/src/CVStrategy/facets/CVAdminFacet.sol:CVAdminFacet","label":"__gap","offset":0,"slot":"131","type":"t_array(t_uint256)47_storage"}],"types":{"t_address":{"encoding":"inplace","label":"address","numberOfBytes":"20"},"t_array(t_uint256)47_storage":{"encoding":"inplace","label":"uint256[47]","numberOfBytes":"1504","base":"t_uint256"},"t_array(t_uint256)49_storage":{"encoding":"inplace","label":"uint256[49]","numberOfBytes":"1568","base":"t_uint256"},"t_array(t_uint256)50_storage":{"encoding":"inplace","label":"uint256[50]","numberOfBytes":"1600","base":"t_uint256"},"t_array(t_uint256)dyn_storage":{"encoding":"dynamic_array","label":"uint256[]","numberOfBytes":"32","base":"t_uint256"},"t_bool":{"encoding":"inplace","label":"bool","numberOfBytes":"1"},"t_bytes32":{"encoding":"inplace","label":"bytes32","numberOfBytes":"32"},"t_contract(IAllo)2631":{"encoding":"inplace","label":"contract IAllo","numberOfBytes":"20"},"t_contract(IArbitrator)116861":{"encoding":"inplace","label":"contract IArbitrator","numberOfBytes":"20"},"t_contract(ICollateralVault)116894":{"encoding":"inplace","label":"contract ICollateralVault","numberOfBytes":"20"},"t_contract(ISuperToken)80140":{"encoding":"inplace","label":"contract ISuperToken","numberOfBytes":"20"},"t_contract(ISuperfluidPool)78968":{"encoding":"inplace","label":"contract ISuperfluidPool","numberOfBytes":"20"},"t_contract(ISybilScorer)108850":{"encoding":"inplace","label":"contract ISybilScorer","numberOfBytes":"20"},"t_contract(RegistryCommunity)111435":{"encoding":"inplace","label":"contract RegistryCommunity","numberOfBytes":"20"},"t_enum(PointSystem)103086":{"encoding":"inplace","label":"enum PointSystem","numberOfBytes":"1"},"t_enum(ProposalStatus)103106":{"encoding":"inplace","label":"enum ProposalStatus","numberOfBytes":"1"},"t_enum(ProposalType)103081":{"encoding":"inplace","label":"enum ProposalType","numberOfBytes":"1"},"t_mapping(t_address,t_array(t_uint256)dyn_storage)":{"encoding":"mapping","key":"t_address","label":"mapping(address => uint256[])","numberOfBytes":"32","value":"t_array(t_uint256)dyn_storage"},"t_mapping(t_address,t_uint256)":{"encoding":"mapping","key":"t_address","label":"mapping(address => uint256)","numberOfBytes":"32","value":"t_uint256"},"t_mapping(t_uint256,t_struct(ArbitrableConfig)103171_storage)":{"encoding":"mapping","key":"t_uint256","label":"mapping(uint256 => struct ArbitrableConfig)","numberOfBytes":"32","value":"t_struct(ArbitrableConfig)103171_storage"},"t_mapping(t_uint256,t_struct(Proposal)103149_storage)":{"encoding":"mapping","key":"t_uint256","label":"mapping(uint256 => struct Proposal)","numberOfBytes":"32","value":"t_struct(Proposal)103149_storage"},"t_mapping(t_uint256,t_uint256)":{"encoding":"mapping","key":"t_uint256","label":"mapping(uint256 => uint256)","numberOfBytes":"32","value":"t_uint256"},"t_string_storage":{"encoding":"bytes","label":"string","numberOfBytes":"32"},"t_struct(ArbitrableConfig)103171_storage":{"encoding":"inplace","label":"struct ArbitrableConfig","numberOfBytes":"192","members":[{"astId":103160,"contract":"pkg/contracts/src/CVStrategy/facets/CVAdminFacet.sol:CVAdminFacet","label":"arbitrator","offset":0,"slot":"0","type":"t_contract(IArbitrator)116861"},{"astId":103162,"contract":"pkg/contracts/src/CVStrategy/facets/CVAdminFacet.sol:CVAdminFacet","label":"tribunalSafe","offset":0,"slot":"1","type":"t_address"},{"astId":103164,"contract":"pkg/contracts/src/CVStrategy/facets/CVAdminFacet.sol:CVAdminFacet","label":"submitterCollateralAmount","offset":0,"slot":"2","type":"t_uint256"},{"astId":103166,"contract":"pkg/contracts/src/CVStrategy/facets/CVAdminFacet.sol:CVAdminFacet","label":"challengerCollateralAmount","offset":0,"slot":"3","type":"t_uint256"},{"astId":103168,"contract":"pkg/contracts/src/CVStrategy/facets/CVAdminFacet.sol:CVAdminFacet","label":"defaultRuling","offset":0,"slot":"4","type":"t_uint256"},{"astId":103170,"contract":"pkg/contracts/src/CVStrategy/facets/CVAdminFacet.sol:CVAdminFacet","label":"defaultRulingTimeout","offset":0,"slot":"5","type":"t_uint256"}]},"t_struct(CVParams)103180_storage":{"encoding":"inplace","label":"struct CVParams","numberOfBytes":"128","members":[{"astId":103173,"contract":"pkg/contracts/src/CVStrategy/facets/CVAdminFacet.sol:CVAdminFacet","label":"maxRatio","offset":0,"slot":"0","type":"t_uint256"},{"astId":103175,"contract":"pkg/contracts/src/CVStrategy/facets/CVAdminFacet.sol:CVAdminFacet","label":"weight","offset":0,"slot":"1","type":"t_uint256"},{"astId":103177,"contract":"pkg/contracts/src/CVStrategy/facets/CVAdminFacet.sol:CVAdminFacet","label":"decay","offset":0,"slot":"2","type":"t_uint256"},{"astId":103179,"contract":"pkg/contracts/src/CVStrategy/facets/CVAdminFacet.sol:CVAdminFacet","label":"minThresholdPoints","offset":0,"slot":"3","type":"t_uint256"}]},"t_struct(Metadata)3086_storage":{"encoding":"inplace","label":"struct Metadata","numberOfBytes":"64","members":[{"astId":3082,"contract":"pkg/contracts/src/CVStrategy/facets/CVAdminFacet.sol:CVAdminFacet","label":"protocol","offset":0,"slot":"0","type":"t_uint256"},{"astId":3085,"contract":"pkg/contracts/src/CVStrategy/facets/CVAdminFacet.sol:CVAdminFacet","label":"pointer","offset":0,"slot":"1","type":"t_string_storage"}]},"t_struct(PointSystemConfig)103157_storage":{"encoding":"inplace","label":"struct PointSystemConfig","numberOfBytes":"32","members":[{"astId":103156,"contract":"pkg/contracts/src/CVStrategy/facets/CVAdminFacet.sol:CVAdminFacet","label":"maxAmount","offset":0,"slot":"0","type":"t_uint256"}]},"t_struct(Proposal)103149_storage":{"encoding":"inplace","label":"struct Proposal","numberOfBytes":"576","members":[{"astId":103115,"contract":"pkg/contracts/src/CVStrategy/facets/CVAdminFacet.sol:CVAdminFacet","label":"proposalId","offset":0,"slot":"0","type":"t_uint256"},{"astId":103117,"contract":"pkg/contracts/src/CVStrategy/facets/CVAdminFacet.sol:CVAdminFacet","label":"requestedAmount","offset":0,"slot":"1","type":"t_uint256"},{"astId":103119,"contract":"pkg/contracts/src/CVStrategy/facets/CVAdminFacet.sol:CVAdminFacet","label":"stakedAmount","offset":0,"slot":"2","type":"t_uint256"},{"astId":103121,"contract":"pkg/contracts/src/CVStrategy/facets/CVAdminFacet.sol:CVAdminFacet","label":"convictionLast","offset":0,"slot":"3","type":"t_uint256"},{"astId":103123,"contract":"pkg/contracts/src/CVStrategy/facets/CVAdminFacet.sol:CVAdminFacet","label":"beneficiary","offset":0,"slot":"4","type":"t_address"},{"astId":103125,"contract":"pkg/contracts/src/CVStrategy/facets/CVAdminFacet.sol:CVAdminFacet","label":"submitter","offset":0,"slot":"5","type":"t_address"},{"astId":103127,"contract":"pkg/contracts/src/CVStrategy/facets/CVAdminFacet.sol:CVAdminFacet","label":"requestedToken","offset":0,"slot":"6","type":"t_address"},{"astId":103129,"contract":"pkg/contracts/src/CVStrategy/facets/CVAdminFacet.sol:CVAdminFacet","label":"blockLast","offset":0,"slot":"7","type":"t_uint256"},{"astId":103132,"contract":"pkg/contracts/src/CVStrategy/facets/CVAdminFacet.sol:CVAdminFacet","label":"proposalStatus","offset":0,"slot":"8","type":"t_enum(ProposalStatus)103106"},{"astId":103136,"contract":"pkg/contracts/src/CVStrategy/facets/CVAdminFacet.sol:CVAdminFacet","label":"voterStakedPoints","offset":0,"slot":"9","type":"t_mapping(t_address,t_uint256)"},{"astId":103139,"contract":"pkg/contracts/src/CVStrategy/facets/CVAdminFacet.sol:CVAdminFacet","label":"metadata","offset":0,"slot":"10","type":"t_struct(Metadata)3086_storage"},{"astId":103142,"contract":"pkg/contracts/src/CVStrategy/facets/CVAdminFacet.sol:CVAdminFacet","label":"disputeInfo","offset":0,"slot":"12","type":"t_struct(ProposalDisputeInfo)103113_storage"},{"astId":103144,"contract":"pkg/contracts/src/CVStrategy/facets/CVAdminFacet.sol:CVAdminFacet","label":"lastDisputeCompletion","offset":0,"slot":"15","type":"t_uint256"},{"astId":103146,"contract":"pkg/contracts/src/CVStrategy/facets/CVAdminFacet.sol:CVAdminFacet","label":"arbitrableConfigVersion","offset":0,"slot":"16","type":"t_uint256"},{"astId":103148,"contract":"pkg/contracts/src/CVStrategy/facets/CVAdminFacet.sol:CVAdminFacet","label":"creationTimestamp","offset":0,"slot":"17","type":"t_uint256"}]},"t_struct(ProposalDisputeInfo)103113_storage":{"encoding":"inplace","label":"struct ProposalDisputeInfo","numberOfBytes":"96","members":[{"astId":103108,"contract":"pkg/contracts/src/CVStrategy/facets/CVAdminFacet.sol:CVAdminFacet","label":"disputeId","offset":0,"slot":"0","type":"t_uint256"},{"astId":103110,"contract":"pkg/contracts/src/CVStrategy/facets/CVAdminFacet.sol:CVAdminFacet","label":"disputeTimestamp","offset":0,"slot":"1","type":"t_uint256"},{"astId":103112,"contract":"pkg/contracts/src/CVStrategy/facets/CVAdminFacet.sol:CVAdminFacet","label":"challenger","offset":0,"slot":"2","type":"t_address"}]},"t_uint256":{"encoding":"inplace","label":"uint256","numberOfBytes":"32"},"t_uint64":{"encoding":"inplace","label":"uint64","numberOfBytes":"8"},"t_uint8":{"encoding":"inplace","label":"uint8","numberOfBytes":"1"}}},"id":172}