{"abi":[{"type":"function","name":"DISPUTE_COOLDOWN_SEC","inputs":[],"outputs":[{"name":"","type":"uint256","internalType":"uint256"}],"stateMutability":"view"},{"type":"function","name":"RULING_OPTIONS","inputs":[],"outputs":[{"name":"","type":"uint256","internalType":"uint256"}],"stateMutability":"view"},{"type":"function","name":"arbitrableConfigs","inputs":[{"name":"","type":"uint256","internalType":"uint256"}],"outputs":[{"name":"arbitrator","type":"address","internalType":"contract IArbitrator"},{"name":"tribunalSafe","type":"address","internalType":"address"},{"name":"submitterCollateralAmount","type":"uint256","internalType":"uint256"},{"name":"challengerCollateralAmount","type":"uint256","internalType":"uint256"},{"name":"defaultRuling","type":"uint256","internalType":"uint256"},{"name":"defaultRulingTimeout","type":"uint256","internalType":"uint256"}],"stateMutability":"view"},{"type":"function","name":"cloneNonce","inputs":[],"outputs":[{"name":"","type":"uint256","internalType":"uint256"}],"stateMutability":"view"},{"type":"function","name":"collateralVault","inputs":[],"outputs":[{"name":"","type":"address","internalType":"contract ICollateralVault"}],"stateMutability":"view"},{"type":"function","name":"connectSuperfluidGDA","inputs":[{"name":"gda","type":"address","internalType":"address"}],"outputs":[],"stateMutability":"nonpayable"},{"type":"function","name":"currentArbitrableConfigVersion","inputs":[],"outputs":[{"name":"","type":"uint256","internalType":"uint256"}],"stateMutability":"view"},{"type":"function","name":"cvParams","inputs":[],"outputs":[{"name":"maxRatio","type":"uint256","internalType":"uint256"},{"name":"weight","type":"uint256","internalType":"uint256"},{"name":"decay","type":"uint256","internalType":"uint256"},{"name":"minThresholdPoints","type":"uint256","internalType":"uint256"}],"stateMutability":"view"},{"type":"function","name":"disconnectSuperfluidGDA","inputs":[{"name":"gda","type":"address","internalType":"address"}],"outputs":[],"stateMutability":"nonpayable"},{"type":"function","name":"disputeCount","inputs":[],"outputs":[{"name":"","type":"uint64","internalType":"uint64"}],"stateMutability":"view"},{"type":"function","name":"disputeIdToProposalId","inputs":[{"name":"","type":"uint256","internalType":"uint256"}],"outputs":[{"name":"","type":"uint256","internalType":"uint256"}],"stateMutability":"view"},{"type":"function","name":"pointConfig","inputs":[],"outputs":[{"name":"maxAmount","type":"uint256","internalType":"uint256"}],"stateMutability":"view"},{"type":"function","name":"pointSystem","inputs":[],"outputs":[{"name":"","type":"uint8","internalType":"enum PointSystem"}],"stateMutability":"view"},{"type":"function","name":"proposalCounter","inputs":[],"outputs":[{"name":"","type":"uint256","internalType":"uint256"}],"stateMutability":"view"},{"type":"function","name":"proposalType","inputs":[],"outputs":[{"name":"","type":"uint8","internalType":"enum ProposalType"}],"stateMutability":"view"},{"type":"function","name":"proposals","inputs":[{"name":"","type":"uint256","internalType":"uint256"}],"outputs":[{"name":"proposalId","type":"uint256","internalType":"uint256"},{"name":"requestedAmount","type":"uint256","internalType":"uint256"},{"name":"stakedAmount","type":"uint256","internalType":"uint256"},{"name":"convictionLast","type":"uint256","internalType":"uint256"},{"name":"beneficiary","type":"address","internalType":"address"},{"name":"submitter","type":"address","internalType":"address"},{"name":"requestedToken","type":"address","internalType":"address"},{"name":"blockLast","type":"uint256","internalType":"uint256"},{"name":"proposalStatus","type":"uint8","internalType":"enum ProposalStatus"},{"name":"metadata","type":"tuple","internalType":"struct Metadata","components":[{"name":"protocol","type":"uint256","internalType":"uint256"},{"name":"pointer","type":"string","internalType":"string"}]},{"name":"disputeInfo","type":"tuple","internalType":"struct ProposalDisputeInfo","components":[{"name":"disputeId","type":"uint256","internalType":"uint256"},{"name":"disputeTimestamp","type":"uint256","internalType":"uint256"},{"name":"challenger","type":"address","internalType":"address"}]},{"name":"lastDisputeCompletion","type":"uint256","internalType":"uint256"},{"name":"arbitrableConfigVersion","type":"uint256","internalType":"uint256"},{"name":"creationTimestamp","type":"uint256","internalType":"uint256"}],"stateMutability":"view"},{"type":"function","name":"registryCommunity","inputs":[],"outputs":[{"name":"","type":"address","internalType":"contract RegistryCommunity"}],"stateMutability":"view"},{"type":"function","name":"setPoolParams","inputs":[{"name":"_arbitrableConfig","type":"tuple","internalType":"struct ArbitrableConfig","components":[{"name":"arbitrator","type":"address","internalType":"contract IArbitrator"},{"name":"tribunalSafe","type":"address","internalType":"address"},{"name":"submitterCollateralAmount","type":"uint256","internalType":"uint256"},{"name":"challengerCollateralAmount","type":"uint256","internalType":"uint256"},{"name":"defaultRuling","type":"uint256","internalType":"uint256"},{"name":"defaultRulingTimeout","type":"uint256","internalType":"uint256"}]},{"name":"_cvParams","type":"tuple","internalType":"struct CVParams","components":[{"name":"maxRatio","type":"uint256","internalType":"uint256"},{"name":"weight","type":"uint256","internalType":"uint256"},{"name":"decay","type":"uint256","internalType":"uint256"},{"name":"minThresholdPoints","type":"uint256","internalType":"uint256"}]},{"name":"_sybilScoreThreshold","type":"uint256","internalType":"uint256"},{"name":"_membersToAdd","type":"address[]","internalType":"address[]"},{"name":"_membersToRemove","type":"address[]","internalType":"address[]"},{"name":"_superfluidToken","type":"address","internalType":"address"}],"outputs":[],"stateMutability":"nonpayable"},{"type":"function","name":"superfluidToken","inputs":[],"outputs":[{"name":"","type":"address","internalType":"contract ISuperToken"}],"stateMutability":"view"},{"type":"function","name":"sybilScorer","inputs":[],"outputs":[{"name":"","type":"address","internalType":"contract ISybilScorer"}],"stateMutability":"view"},{"type":"function","name":"totalPointsActivated","inputs":[],"outputs":[{"name":"","type":"uint256","internalType":"uint256"}],"stateMutability":"view"},{"type":"function","name":"totalStaked","inputs":[],"outputs":[{"name":"","type":"uint256","internalType":"uint256"}],"stateMutability":"view"},{"type":"function","name":"totalVoterStakePct","inputs":[{"name":"","type":"address","internalType":"address"}],"outputs":[{"name":"","type":"uint256","internalType":"uint256"}],"stateMutability":"view"},{"type":"function","name":"voterStakedProposals","inputs":[{"name":"","type":"address","internalType":"address"},{"name":"","type":"uint256","internalType":"uint256"}],"outputs":[{"name":"","type":"uint256","internalType":"uint256"}],"stateMutability":"view"},{"type":"event","name":"AllowlistMembersAdded","inputs":[{"name":"poolId","type":"uint256","indexed":false,"internalType":"uint256"},{"name":"members","type":"address[]","indexed":false,"internalType":"address[]"}],"anonymous":false},{"type":"event","name":"AllowlistMembersRemoved","inputs":[{"name":"poolId","type":"uint256","indexed":false,"internalType":"uint256"},{"name":"members","type":"address[]","indexed":false,"internalType":"address[]"}],"anonymous":false},{"type":"event","name":"ArbitrableConfigUpdated","inputs":[{"name":"currentArbitrableConfigVersion","type":"uint256","indexed":false,"internalType":"uint256"},{"name":"arbitrator","type":"address","indexed":false,"internalType":"contract IArbitrator"},{"name":"tribunalSafe","type":"address","indexed":false,"internalType":"address"},{"name":"submitterCollateralAmount","type":"uint256","indexed":false,"internalType":"uint256"},{"name":"challengerCollateralAmount","type":"uint256","indexed":false,"internalType":"uint256"},{"name":"defaultRuling","type":"uint256","indexed":false,"internalType":"uint256"},{"name":"defaultRulingTimeout","type":"uint256","indexed":false,"internalType":"uint256"}],"anonymous":false},{"type":"event","name":"CVParamsUpdated","inputs":[{"name":"cvParams","type":"tuple","indexed":false,"internalType":"struct CVParams","components":[{"name":"maxRatio","type":"uint256","internalType":"uint256"},{"name":"weight","type":"uint256","internalType":"uint256"},{"name":"decay","type":"uint256","internalType":"uint256"},{"name":"minThresholdPoints","type":"uint256","internalType":"uint256"}]}],"anonymous":false},{"type":"event","name":"PointsDeactivated","inputs":[{"name":"member","type":"address","indexed":false,"internalType":"address"}],"anonymous":false},{"type":"event","name":"SuperfluidGDAConnected","inputs":[{"name":"gda","type":"address","indexed":true,"internalType":"address"},{"name":"by","type":"address","indexed":true,"internalType":"address"}],"anonymous":false},{"type":"event","name":"SuperfluidGDADisconnected","inputs":[{"name":"gda","type":"address","indexed":true,"internalType":"address"},{"name":"by","type":"address","indexed":true,"internalType":"address"}],"anonymous":false},{"type":"event","name":"SuperfluidTokenUpdated","inputs":[{"name":"superfluidToken","type":"address","indexed":false,"internalType":"address"}],"anonymous":false},{"type":"error","name":"OnlyActiveProposal","inputs":[{"name":"proposalId","type":"uint256","internalType":"uint256"}]},{"type":"error","name":"OnlyAllo","inputs":[{"name":"sender","type":"address","internalType":"address"},{"name":"allo","type":"address","internalType":"address"}]},{"type":"error","name":"OnlyCouncilSafe","inputs":[{"name":"sender","type":"address","internalType":"address"},{"name":"councilSafe","type":"address","internalType":"address"},{"name":"owner","type":"address","internalType":"address"}]},{"type":"error","name":"OnlyCouncilSafeOrMember","inputs":[{"name":"sender","type":"address","internalType":"address"},{"name":"councilSafe","type":"address","internalType":"address"}]},{"type":"error","name":"OnlyInitialized","inputs":[{"name":"poolId","type":"uint256","internalType":"uint256"}]},{"type":"error","name":"OnlyMember","inputs":[{"name":"wallet","type":"address","internalType":"address"},{"name":"community","type":"address","internalType":"address"}]},{"type":"error","name":"OnlyRegistryCommunity","inputs":[{"name":"sender","type":"address","internalType":"address"},{"name":"registry","type":"address","internalType":"address"}]},{"type":"error","name":"OnlySubmitter","inputs":[{"name":"proposalId","type":"uint256","internalType":"uint256"},{"name":"submitter","type":"address","internalType":"address"},{"name":"sender","type":"address","internalType":"address"}]},{"type":"error","name":"ProposalDoesNotExist","inputs":[{"name":"proposalID","type":"uint256","internalType":"uint256"}]},{"type":"error","name":"SuperfluidGDAConnectFailed","inputs":[{"name":"gda","type":"address","internalType":"address"},{"name":"superToken","type":"address","internalType":"address"},{"name":"caller","type":"address","internalType":"address"}]},{"type":"error","name":"SuperfluidGDADisconnectFailed","inputs":[{"name":"gda","type":"address","internalType":"address"},{"name":"superToken","type":"address","internalType":"address"},{"name":"caller","type":"address","internalType":"address"}]}],"bytecode":{"object":"0x608060405234801561001057600080fd5b50612322806100206000396000f3fe608060405234801561001057600080fd5b50600436106101285760003560e01c8063013cf08b1461012d57806305caa7f3146101635780630bece79c146101835780630c0512e914610196578063125fd1d9146101ad5780632506b870146101b6578063255ffb38146101ec5780632dbd6fdd1461020c578063339604591461022b578063351d9f961461023457806341bb76051461024e5780635db64b99146102d65780636003e414146102f6578063626c47e814610309578063817b1cd214610311578063868c57b81461031a578063924e67041461032d578063a28889e114610342578063a47ff7e51461036d578063aba9ffee14610377578063b6c61f3114610380578063c69271ec14610393578063d5b7cc54146103a6578063f5be3f7c146103b9575b600080fd5b61014061013b366004611a7a565b6103c2565b60405161015a9e9d9c9b9a99989796959493929190611b34565b60405180910390f35b608054610176906001600160a01b031681565b60405161015a9190611be8565b607954610176906001600160a01b031681565b61019f606e5481565b60405190815260200161015a565b61019f606f5481565b6072546073546074546075546101cc9392919084565b60408051948552602085019390935291830152606082015260800161015a565b61019f6101fa366004611a7a565b607e6020526000908152604090205481565b60765461021e90610100900460ff1681565b60405161015a9190611bfc565b61019f606c5481565b6076546102419060ff1681565b60405161015a9190611c16565b61029e61025c366004611a7a565b607f602052600090815260409020805460018201546002830154600384015460048501546005909501546001600160a01b039485169593909416939192909186565b604080516001600160a01b039788168152969095166020870152938501929092526060840152608083015260a082015260c00161015a565b61019f6102e4366004611c52565b607c6020526000908152604090205481565b607854610176906001600160a01b031681565b61019f600381565b61019f60705481565b61019f610328366004611c6f565b610515565b61034061033b366004611c52565b610546565b005b606d54610355906001600160401b031681565b6040516001600160401b03909116815260200161015a565b60775461019f9081565b61019f60715481565b607a54610176906001600160a01b031681565b6103406103a1366004611c52565b610672565b6103406103b4366004611e18565b610795565b61019f611c2081565b607b602090815260009182526040918290208054600182015460028301546003840154600485015460058601546006870154600788015460088901548b51808d01909c52600a8a0180548d52600b8b0180549a9d999c989b979a6001600160a01b039788169a968816999790951697939660ff909316959394919284019161044990611f16565b80601f016020809104026020016040519081016040528092919081815260200182805461047590611f16565b80156104c25780601f10610497576101008083540402835291602001916104c2565b820191906000526020600020905b8154815290600101906020018083116104a557829003601f168201915b50505091909252505060408051606081018252600c8501548152600d8501546020820152600e8501546001600160a01b031691810191909152600f8401546010850154601190950154939491939092508e565b607d602052816000526040600020818154811061053157600080fd5b90600052602060002001600091509150505481565b61054e610888565b6080546000906001600160a01b03166105e45760655460685460405163068bcd8d60e01b81526001600160a01b039092169163068bcd8d916105969160040190815260200190565b600060405180830381865afa1580156105b3573d6000803e3d6000fd5b505050506040513d6000823e601f3d908101601f191682016040526105db9190810190611f9e565b604001516105f1565b6080546001600160a01b03165b905060006106086001600160a01b038316846109b5565b90508061063757828233604051639bd2355f60e01b815260040161062e9392919061209b565b60405180910390fd5b60405133906001600160a01b038516907f1f9d364ce9d858d45443edba44a22a2f561d96a90f9772e2457056f4ed98ed0f90600090a3505050565b61067a610888565b6080546000906001600160a01b03166107105760655460685460405163068bcd8d60e01b81526001600160a01b039092169163068bcd8d916106c29160040190815260200190565b600060405180830381865afa1580156106df573d6000803e3d6000fd5b505050506040513d6000823e601f3d908101601f191682016040526107079190810190611f9e565b6040015161071d565b6080546001600160a01b03165b905060006107346001600160a01b038316846109db565b90508061075a57828233604051633746bbff60e01b815260040161062e9392919061209b565b60405133906001600160a01b038516907f5ae956f5060a976a6df3810c70d24e4d7b6987e1bfc9b1be2c9e43adfea8f30190600090a3505050565b61079d6109f8565b608080546001600160a01b0319166001600160a01b0383161790556040517fd386b229b28c71d6819c5b8cd43d22f3b28607ab0ac101e82c783e1addb5e01f906107e8908390611be8565b60405180910390a16107fc86868585610b3f565b607a546001600160a01b0316158015906108165750600084115b1561088057607a5460405163642ce76b60e01b8152306004820152602481018690526001600160a01b039091169063642ce76b90604401600060405180830381600087803b15801561086757600080fd5b505af115801561087b573d6000803e3d6000fd5b505050505b505050505050565b607860009054906101000a90046001600160a01b03166001600160a01b0316636c53db9a6040518163ffffffff1660e01b8152600401602060405180830381865afa1580156108db573d6000803e3d6000fd5b505050506040513d601f19601f820116820180604052508101906108ff91906120be565b6001600160a01b0316336001600160a01b031614158015610926575061092433610ed7565b155b156109b35760785460408051633629edcd60e11b8152905133926001600160a01b031691636c53db9a9160048083019260209291908290030181865afa158015610974573d6000803e3d6000fd5b505050506040513d601f19601f8201168201806040525081019061099891906120be565b604051637d19bac760e11b815260040161062e9291906120db565b565b604080516000808252602082019092526109d29084908490611085565b90505b92915050565b604080516000808252602082019092526109d290849084906111ab565b607860009054906101000a90046001600160a01b03166001600160a01b0316636c53db9a6040518163ffffffff1660e01b8152600401602060405180830381865afa158015610a4b573d6000803e3d6000fd5b505050506040513d601f19601f82011682018060405250810190610a6f91906120be565b6001600160a01b0316336001600160a01b031614158015610aa95750610a936111f6565b6001600160a01b0316336001600160a01b031614155b156109b35760785460408051633629edcd60e11b8152905133926001600160a01b031691636c53db9a9160048083019260209291908290030181865afa158015610af7573d6000803e3d6000fd5b505050506040513d601f19601f82011682018060405250810190610b1b91906120be565b610b236111f6565b60405163e1b9c46960e01b815260040161062e9392919061209b565b815115610b4f57610b4f8261122e565b805115610b5f57610b5f816114af565b60208401516001600160a01b031615801590610b84575083516001600160a01b031615155b8015610c6d5750606f546000908152607f6020908152604090912060010154908501516001600160a01b039081169116141580610be05750606f546000908152607f602052604090205484516001600160a01b03908116911614155b80610c045750606f546000908152607f602052604090819020600201549085015114155b80610c275750606f546000908152607f6020526040902060030154606085015114155b80610c4a5750606f546000908152607f6020526040902060040154608085015114155b80610c6d5750606f546000908152607f602052604090206005015460a085015114155b15610e3557602080850151606f546000908152607f9092526040909120600101546001600160a01b039081169116141580610cc757508351606f546000908152607f60205260409020546001600160a01b03908116911614155b15610d31578351602085015160405163446adb9960e11b81526001600160a01b03909216916388d5b73291610cfe91600401611be8565b600060405180830381600087803b158015610d1857600080fd5b505af1158015610d2c573d6000803e3d6000fd5b505050505b606f8054906000610d418361210b565b9091555050606f80546000908152607f6020908152604091829020875181546001600160a01b038083166001600160a01b0319928316178455938a015160018401805495821695909216949094179055838901516002830181905560608a01516003840181905560808b01516004850181905560a08c01516005909501859055965495517fe677e2878aaaaf6a65ecf50f849ad58100c49f6dfd57d055ba4bddd63a175d5397610e2c9796949590919687526001600160a01b0395861660208801529390941660408601526060850191909152608084015260a083019190915260c082015260e00190565b60405180910390a15b6040830151158015610e4957506020830151155b8015610e5457508251155b8015610e6257506060830151155b610ed157825160728190556020808501805160735560408087018051607455606080890180516075558351968752935194860194909452519084015251908201527fec9315d9f4291207475c061feff1e5d7105750ac0ee9534af9444b4ff1dab9bc9060800160405180910390a15b50505050565b607a546000906001600160a01b0316611012576000606854604051602001610eff9190612124565b60408051601f19818403018152908290528051602090910120607854632474521560e21b83529092506001600160a01b0316906391d1485490610f49908490600090600401612141565b602060405180830381865afa158015610f66573d6000803e3d6000fd5b505050506040513d601f19601f82011682018060405250810190610f8a9190612158565b15610f985750600192915050565b607854604051632474521560e21b81526001600160a01b03909116906391d1485490610fca9084908790600401612141565b602060405180830381865afa158015610fe7573d6000803e3d6000fd5b505050506040513d601f19601f8201168201806040525081019061100b9190612158565b9392505050565b607a546040516302154c3d60e51b81526001600160a01b03909116906342a987a09061104490859030906004016120db565b602060405180830381865afa158015611061573d6000803e3d6000fd5b505050506040513d601f19601f820116820180604052508101906109d59190612158565b6000806000611093866116c2565b91509150816001600160a01b03166339255d5b82836001600160a01b031663f0b7b9158960006001600160401b038111156110d0576110d0611c9b565b6040519080825280601f01601f1916602001820160405280156110fa576020820181803683370190505b5060405160240161110c92919061217a565b60408051808303601f1901815291815260208201805160e094851b6001600160e01b03909116179052519185901b6001600160e01b031916825261115793925090899060040161219e565b6000604051808303816000875af1158015611176573d6000803e3d6000fd5b505050506040513d6000823e601f3d908101601f1916820160405261119e91908101906121de565b5060019695505050505050565b60008060006111b9866116c2565b91509150816001600160a01b03166339255d5b82836001600160a01b03166330925b798960006001600160401b038111156110d0576110d0611c9b565b60006112297fc8fcad8db84d3cc18b4c41d551ea0ee66dd599cde068d998e57d5e09332c131f546001600160a01b031690565b905090565b60006068546040516020016112439190612124565b60408051601f19818403018152908290528051602090910120607854632474521560e21b83529092506001600160a01b0316906391d148549061128d908490600090600401612141565b602060405180830381865afa1580156112aa573d6000803e3d6000fd5b505050506040513d601f19601f820116820180604052508101906112ce9190612158565b156113395760785460405163d547741f60e01b81526001600160a01b039091169063d547741f90611306908490600090600401612141565b600060405180830381600087803b15801561132057600080fd5b505af1158015611334573d6000803e3d6000fd5b505050505b60005b825181101561146f5760785483516001600160a01b03909116906391d1485490849086908590811061137057611370612226565b60200260200101516040518363ffffffff1660e01b8152600401611395929190612141565b602060405180830381865afa1580156113b2573d6000803e3d6000fd5b505050506040513d601f19601f820116820180604052508101906113d69190612158565b61145d5760785483516001600160a01b0390911690632f2ff15d90849086908590811061140557611405612226565b60200260200101516040518363ffffffff1660e01b815260040161142a929190612141565b600060405180830381600087803b15801561144457600080fd5b505af1158015611458573d6000803e3d6000fd5b505050505b806114678161210b565b91505061133c565b507f7a2e396a5614184c0af2c60827c206595126faa1238b94e19823192de52e728a606854836040516114a392919061223c565b60405180910390a15050565b60005b8151811015611683576078546068546040516001600160a01b03909216916391d14854916114e291602001612124565b6040516020818303038152906040528051906020012084848151811061150a5761150a612226565b60200260200101516040518363ffffffff1660e01b815260040161152f929190612141565b602060405180830381865afa15801561154c573d6000803e3d6000fd5b505050506040513d601f19601f820116820180604052508101906115709190612158565b1561161c576078546068546040516001600160a01b039092169163d547741f9161159c91602001612124565b604051602081830303815290604052805190602001208484815181106115c4576115c4612226565b60200260200101516040518363ffffffff1660e01b81526004016115e9929190612141565b600060405180830381600087803b15801561160357600080fd5b505af1158015611617573d6000803e3d6000fd5b505050505b60006001600160a01b031682828151811061163957611639612226565b60200260200101516001600160a01b0316146116715761167182828151811061166457611664612226565b6020026020010151611841565b8061167b8161210b565b9150506114b2565b507fd418c93b6b78d828a87ee1909e6fcdbbf2f8d8f540ad7b232bb3e221e6d7cc1e606854826040516116b792919061223c565b60405180910390a150565b6000805160206122d6833981519152546000805160206122f6833981519152546001600160a01b038116611810576001600160a01b03821661176357826001600160a01b03166320bc44256040518163ffffffff1660e01b8152600401602060405180830381865afa15801561173c573d6000803e3d6000fd5b505050506040513d601f19601f8201168201806040525081019061176091906120be565b91505b604051635b69006f60e11b81527fdfd8ece9bfbcb8c5c540edb935641f63d67686490a1ab97f000288759f30a94660048201526001600160a01b0383169063b6d200de90602401602060405180830381865afa1580156117c7573d6000803e3d6000fd5b505050506040513d601f19601f820116820180604052508101906117eb91906120be565b9050816000805160206122d683398151915255806000805160206122f6833981519152555b6001600160a01b03821661182657611826612293565b6001600160a01b03811661183c5761183c612293565b915091565b607854604051637817ee4f60e01b81526001600160a01b0390911690637817ee4f9061187390849030906004016120db565b6020604051808303816000875af1158015611892573d6000803e3d6000fd5b505050506040513d601f19601f820116820180604052508101906118b691906122a9565b607160008282546118c791906122c2565b90915550506078546040516322bcf99960e01b81526001600160a01b03909116906322bcf999906118fe90849030906004016120db565b600060405180830381600087803b15801561191857600080fd5b505af115801561192c573d6000803e3d6000fd5b5050505061193981611968565b7f1468da654b37bb3631011c1917d02e0db437d519918858d40b38b5e980ca033b816040516116b79190611be8565b60005b6001600160a01b0382166000908152607d6020526040902054811015611a5f576001600160a01b0382166000908152607d602052604081208054839081106119b5576119b5612226565b6000918252602080832090910154808352607b9091526040909120805491925090158015906119f0575060058101546001600160a01b031615155b15611a4a576001600160a01b0384166000908152600982016020526040812080549082905560028301805491928392611a2a9084906122c2565b925050819055508060706000828254611a4391906122c2565b9091555050505b50508080611a579061210b565b91505061196b565b506001600160a01b03166000908152607c6020526040812055565b600060208284031215611a8c57600080fd5b5035919050565b634e487b7160e01b600052602160045260246000fd5b60078110611ab957611ab9611a93565b9052565b60005b83811015611ad8578181015183820152602001611ac0565b50506000910152565b60008151808452611af9816020860160208601611abd565b601f01601f19169290920160200192915050565b805182526000602082015160406020850152611b2c6040850182611ae1565b949350505050565b8e8152602081018e9052604081018d9052606081018c90526001600160a01b038b811660808301528a811660a0830152891660c082015260008860e0830152611b81610100830189611aa9565b610200610120830152611b98610200830188611b0d565b865161014084015260208701516101608401526040909601516001600160a01b0316610180830152506101a08101939093526101c08301919091526101e0909101529a9950505050505050505050565b6001600160a01b0391909116815260200190565b6020810160048310611c1057611c10611a93565b91905290565b6020810160038310611c1057611c10611a93565b6001600160a01b0381168114611c3f57600080fd5b50565b8035611c4d81611c2a565b919050565b600060208284031215611c6457600080fd5b813561100b81611c2a565b60008060408385031215611c8257600080fd5b8235611c8d81611c2a565b946020939093013593505050565b634e487b7160e01b600052604160045260246000fd5b60405160c081016001600160401b0381118282101715611cd357611cd3611c9b565b60405290565b604080519081016001600160401b0381118282101715611cd357611cd3611c9b565b604051601f8201601f191681016001600160401b0381118282101715611d2357611d23611c9b565b604052919050565b600060808284031215611d3d57600080fd5b604051608081016001600160401b0381118282101715611d5f57611d5f611c9b565b8060405250809150823581526020830135602082015260408301356040820152606083013560608201525092915050565b600082601f830112611da157600080fd5b813560206001600160401b03821115611dbc57611dbc611c9b565b8160051b611dcb828201611cfb565b9283528481018201928281019087851115611de557600080fd5b83870192505b84831015611e0d578235611dfe81611c2a565b82529183019190830190611deb565b979650505050505050565b6000806000806000808688036101c0811215611e3357600080fd5b60c0811215611e4157600080fd5b50611e4a611cb1565b8735611e5581611c2a565b81526020880135611e6581611c2a565b8060208301525060408801356040820152606088013560608201526080880135608082015260a088013560a082015280965050611ea58860c08901611d2b565b945061014087013593506101608701356001600160401b0380821115611eca57600080fd5b611ed68a838b01611d90565b9450610180890135915080821115611eed57600080fd5b50611efa89828a01611d90565b925050611f0a6101a08801611c42565b90509295509295509295565b600181811c90821680611f2a57607f821691505b602082108103611f4a57634e487b7160e01b600052602260045260246000fd5b50919050565b60006001600160401b03831115611f6957611f69611c9b565b611f7c601f8401601f1916602001611cfb565b9050828152838383011115611f9057600080fd5b61100b836020830184611abd565b60006020808385031215611fb157600080fd5b82516001600160401b0380821115611fc857600080fd5b9084019060c08287031215611fdc57600080fd5b611fe4611cb1565b8251815283830151611ff581611c2a565b81850152604083015161200781611c2a565b604082015260608301518281111561201e57600080fd5b83016040818903121561203057600080fd5b612038611cd9565b81518152858201518481111561204d57600080fd5b82019350601f8401891361206057600080fd5b61206e898551888701611f50565b8682015280606084015250506080830151608082015260a083015160a08201528094505050505092915050565b6001600160a01b0393841681529183166020830152909116604082015260600190565b6000602082840312156120d057600080fd5b815161100b81611c2a565b6001600160a01b0392831681529116602082015260400190565b634e487b7160e01b600052601160045260246000fd5b60006001820161211d5761211d6120f5565b5060010190565b6810531313d5d31254d560ba1b8152600981019190915260290190565b9182526001600160a01b0316602082015260400190565b60006020828403121561216a57600080fd5b8151801515811461100b57600080fd5b6001600160a01b0383168152604060208201819052600090611b2c90830184611ae1565b6001600160a01b03841681526060602082018190526000906121c290830185611ae1565b82810360408401526121d48185611ae1565b9695505050505050565b6000602082840312156121f057600080fd5b81516001600160401b0381111561220657600080fd5b8201601f8101841361221757600080fd5b611b2c84825160208401611f50565b634e487b7160e01b600052603260045260246000fd5b6000604082018483526020604081850152818551808452606086019150828701935060005b818110156122865784516001600160a01b031683529383019391830191600101612261565b5090979650505050505050565b634e487b7160e01b600052600160045260246000fd5b6000602082840312156122bb57600080fd5b5051919050565b818103818111156109d5576109d56120f556fe65599bf746e17a00ea62e3610586992d88101b78eec3cf380706621fb97ea837c36f6c05164a669ecb6da53e218d77ae44d51cfc99f91e5a125a18de0949bee4a164736f6c6343000813000a","linkReferences":{}},"methodIdentifiers":{"DISPUTE_COOLDOWN_SEC()":"f5be3f7c","RULING_OPTIONS()":"626c47e8","arbitrableConfigs(uint256)":"41bb7605","cloneNonce()":"33960459","collateralVault()":"0bece79c","connectSuperfluidGDA(address)":"924e6704","currentArbitrableConfigVersion()":"125fd1d9","cvParams()":"2506b870","disconnectSuperfluidGDA(address)":"c69271ec","disputeCount()":"a28889e1","disputeIdToProposalId(uint256)":"255ffb38","pointConfig()":"a47ff7e5","pointSystem()":"2dbd6fdd","proposalCounter()":"0c0512e9","proposalType()":"351d9f96","proposals(uint256)":"013cf08b","registryCommunity()":"6003e414","setPoolParams((address,address,uint256,uint256,uint256,uint256),(uint256,uint256,uint256,uint256),uint256,address[],address[],address)":"d5b7cc54","superfluidToken()":"05caa7f3","sybilScorer()":"b6c61f31","totalPointsActivated()":"aba9ffee","totalStaked()":"817b1cd2","totalVoterStakePct(address)":"5db64b99","voterStakedProposals(address,uint256)":"868c57b8"},"storageLayout":{"storage":[{"astId":71180,"contract":"pkg/contracts/src/CVStrategy/facets/CVAdminFacet.sol:CVAdminFacet","label":"_initialized","offset":0,"slot":"0","type":"t_uint8"},{"astId":71182,"contract":"pkg/contracts/src/CVStrategy/facets/CVAdminFacet.sol:CVAdminFacet","label":"_initializing","offset":1,"slot":"0","type":"t_bool"},{"astId":71186,"contract":"pkg/contracts/src/CVStrategy/facets/CVAdminFacet.sol:CVAdminFacet","label":"__gap_init","offset":0,"slot":"1","type":"t_array(t_uint256)50_storage"},{"astId":71189,"contract":"pkg/contracts/src/CVStrategy/facets/CVAdminFacet.sol:CVAdminFacet","label":"_owner","offset":0,"slot":"51","type":"t_address"},{"astId":71193,"contract":"pkg/contracts/src/CVStrategy/facets/CVAdminFacet.sol:CVAdminFacet","label":"__gap_ownable","offset":0,"slot":"52","type":"t_array(t_uint256)49_storage"},{"astId":71197,"contract":"pkg/contracts/src/CVStrategy/facets/CVAdminFacet.sol:CVAdminFacet","label":"allo","offset":0,"slot":"101","type":"t_contract(IAllo)350"},{"astId":71199,"contract":"pkg/contracts/src/CVStrategy/facets/CVAdminFacet.sol:CVAdminFacet","label":"strategyId","offset":0,"slot":"102","type":"t_bytes32"},{"astId":71201,"contract":"pkg/contracts/src/CVStrategy/facets/CVAdminFacet.sol:CVAdminFacet","label":"poolActive","offset":0,"slot":"103","type":"t_bool"},{"astId":71203,"contract":"pkg/contracts/src/CVStrategy/facets/CVAdminFacet.sol:CVAdminFacet","label":"poolId","offset":0,"slot":"104","type":"t_uint256"},{"astId":71205,"contract":"pkg/contracts/src/CVStrategy/facets/CVAdminFacet.sol:CVAdminFacet","label":"poolAmount","offset":0,"slot":"105","type":"t_uint256"},{"astId":71208,"contract":"pkg/contracts/src/CVStrategy/facets/CVAdminFacet.sol:CVAdminFacet","label":"collateralVaultTemplate","offset":0,"slot":"106","type":"t_address"},{"astId":71211,"contract":"pkg/contracts/src/CVStrategy/facets/CVAdminFacet.sol:CVAdminFacet","label":"surpressStateMutabilityWarning","offset":0,"slot":"107","type":"t_uint256"},{"astId":71214,"contract":"pkg/contracts/src/CVStrategy/facets/CVAdminFacet.sol:CVAdminFacet","label":"cloneNonce","offset":0,"slot":"108","type":"t_uint256"},{"astId":71217,"contract":"pkg/contracts/src/CVStrategy/facets/CVAdminFacet.sol:CVAdminFacet","label":"disputeCount","offset":0,"slot":"109","type":"t_uint64"},{"astId":71220,"contract":"pkg/contracts/src/CVStrategy/facets/CVAdminFacet.sol:CVAdminFacet","label":"proposalCounter","offset":0,"slot":"110","type":"t_uint256"},{"astId":71223,"contract":"pkg/contracts/src/CVStrategy/facets/CVAdminFacet.sol:CVAdminFacet","label":"currentArbitrableConfigVersion","offset":0,"slot":"111","type":"t_uint256"},{"astId":71226,"contract":"pkg/contracts/src/CVStrategy/facets/CVAdminFacet.sol:CVAdminFacet","label":"totalStaked","offset":0,"slot":"112","type":"t_uint256"},{"astId":71229,"contract":"pkg/contracts/src/CVStrategy/facets/CVAdminFacet.sol:CVAdminFacet","label":"totalPointsActivated","offset":0,"slot":"113","type":"t_uint256"},{"astId":71233,"contract":"pkg/contracts/src/CVStrategy/facets/CVAdminFacet.sol:CVAdminFacet","label":"cvParams","offset":0,"slot":"114","type":"t_struct(CVParams)72204_storage"},{"astId":71237,"contract":"pkg/contracts/src/CVStrategy/facets/CVAdminFacet.sol:CVAdminFacet","label":"proposalType","offset":0,"slot":"118","type":"t_enum(ProposalType)72105"},{"astId":71241,"contract":"pkg/contracts/src/CVStrategy/facets/CVAdminFacet.sol:CVAdminFacet","label":"pointSystem","offset":1,"slot":"118","type":"t_enum(PointSystem)72110"},{"astId":71245,"contract":"pkg/contracts/src/CVStrategy/facets/CVAdminFacet.sol:CVAdminFacet","label":"pointConfig","offset":0,"slot":"119","type":"t_struct(PointSystemConfig)72181_storage"},{"astId":71249,"contract":"pkg/contracts/src/CVStrategy/facets/CVAdminFacet.sol:CVAdminFacet","label":"registryCommunity","offset":0,"slot":"120","type":"t_contract(RegistryCommunity)78851"},{"astId":71253,"contract":"pkg/contracts/src/CVStrategy/facets/CVAdminFacet.sol:CVAdminFacet","label":"collateralVault","offset":0,"slot":"121","type":"t_contract(ICollateralVault)84251"},{"astId":71257,"contract":"pkg/contracts/src/CVStrategy/facets/CVAdminFacet.sol:CVAdminFacet","label":"sybilScorer","offset":0,"slot":"122","type":"t_contract(ISybilScorer)76696"},{"astId":71263,"contract":"pkg/contracts/src/CVStrategy/facets/CVAdminFacet.sol:CVAdminFacet","label":"proposals","offset":0,"slot":"123","type":"t_mapping(t_uint256,t_struct(Proposal)72173_storage)"},{"astId":71268,"contract":"pkg/contracts/src/CVStrategy/facets/CVAdminFacet.sol:CVAdminFacet","label":"totalVoterStakePct","offset":0,"slot":"124","type":"t_mapping(t_address,t_uint256)"},{"astId":71274,"contract":"pkg/contracts/src/CVStrategy/facets/CVAdminFacet.sol:CVAdminFacet","label":"voterStakedProposals","offset":0,"slot":"125","type":"t_mapping(t_address,t_array(t_uint256)dyn_storage)"},{"astId":71279,"contract":"pkg/contracts/src/CVStrategy/facets/CVAdminFacet.sol:CVAdminFacet","label":"disputeIdToProposalId","offset":0,"slot":"126","type":"t_mapping(t_uint256,t_uint256)"},{"astId":71285,"contract":"pkg/contracts/src/CVStrategy/facets/CVAdminFacet.sol:CVAdminFacet","label":"arbitrableConfigs","offset":0,"slot":"127","type":"t_mapping(t_uint256,t_struct(ArbitrableConfig)72195_storage)"},{"astId":71289,"contract":"pkg/contracts/src/CVStrategy/facets/CVAdminFacet.sol:CVAdminFacet","label":"superfluidToken","offset":0,"slot":"128","type":"t_contract(ISuperToken)67434"},{"astId":71294,"contract":"pkg/contracts/src/CVStrategy/facets/CVAdminFacet.sol:CVAdminFacet","label":"__gap","offset":0,"slot":"129","type":"t_array(t_uint256)49_storage"}],"types":{"t_address":{"encoding":"inplace","label":"address","numberOfBytes":"20"},"t_array(t_uint256)49_storage":{"encoding":"inplace","label":"uint256[49]","numberOfBytes":"1568","base":"t_uint256"},"t_array(t_uint256)50_storage":{"encoding":"inplace","label":"uint256[50]","numberOfBytes":"1600","base":"t_uint256"},"t_array(t_uint256)dyn_storage":{"encoding":"dynamic_array","label":"uint256[]","numberOfBytes":"32","base":"t_uint256"},"t_bool":{"encoding":"inplace","label":"bool","numberOfBytes":"1"},"t_bytes32":{"encoding":"inplace","label":"bytes32","numberOfBytes":"32"},"t_contract(IAllo)350":{"encoding":"inplace","label":"contract IAllo","numberOfBytes":"20"},"t_contract(IArbitrator)84218":{"encoding":"inplace","label":"contract IArbitrator","numberOfBytes":"20"},"t_contract(ICollateralVault)84251":{"encoding":"inplace","label":"contract ICollateralVault","numberOfBytes":"20"},"t_contract(ISuperToken)67434":{"encoding":"inplace","label":"contract ISuperToken","numberOfBytes":"20"},"t_contract(ISybilScorer)76696":{"encoding":"inplace","label":"contract ISybilScorer","numberOfBytes":"20"},"t_contract(RegistryCommunity)78851":{"encoding":"inplace","label":"contract RegistryCommunity","numberOfBytes":"20"},"t_enum(PointSystem)72110":{"encoding":"inplace","label":"enum PointSystem","numberOfBytes":"1"},"t_enum(ProposalStatus)72130":{"encoding":"inplace","label":"enum ProposalStatus","numberOfBytes":"1"},"t_enum(ProposalType)72105":{"encoding":"inplace","label":"enum ProposalType","numberOfBytes":"1"},"t_mapping(t_address,t_array(t_uint256)dyn_storage)":{"encoding":"mapping","key":"t_address","label":"mapping(address => uint256[])","numberOfBytes":"32","value":"t_array(t_uint256)dyn_storage"},"t_mapping(t_address,t_uint256)":{"encoding":"mapping","key":"t_address","label":"mapping(address => uint256)","numberOfBytes":"32","value":"t_uint256"},"t_mapping(t_uint256,t_struct(ArbitrableConfig)72195_storage)":{"encoding":"mapping","key":"t_uint256","label":"mapping(uint256 => struct ArbitrableConfig)","numberOfBytes":"32","value":"t_struct(ArbitrableConfig)72195_storage"},"t_mapping(t_uint256,t_struct(Proposal)72173_storage)":{"encoding":"mapping","key":"t_uint256","label":"mapping(uint256 => struct Proposal)","numberOfBytes":"32","value":"t_struct(Proposal)72173_storage"},"t_mapping(t_uint256,t_uint256)":{"encoding":"mapping","key":"t_uint256","label":"mapping(uint256 => uint256)","numberOfBytes":"32","value":"t_uint256"},"t_string_storage":{"encoding":"bytes","label":"string","numberOfBytes":"32"},"t_struct(ArbitrableConfig)72195_storage":{"encoding":"inplace","label":"struct ArbitrableConfig","numberOfBytes":"192","members":[{"astId":72184,"contract":"pkg/contracts/src/CVStrategy/facets/CVAdminFacet.sol:CVAdminFacet","label":"arbitrator","offset":0,"slot":"0","type":"t_contract(IArbitrator)84218"},{"astId":72186,"contract":"pkg/contracts/src/CVStrategy/facets/CVAdminFacet.sol:CVAdminFacet","label":"tribunalSafe","offset":0,"slot":"1","type":"t_address"},{"astId":72188,"contract":"pkg/contracts/src/CVStrategy/facets/CVAdminFacet.sol:CVAdminFacet","label":"submitterCollateralAmount","offset":0,"slot":"2","type":"t_uint256"},{"astId":72190,"contract":"pkg/contracts/src/CVStrategy/facets/CVAdminFacet.sol:CVAdminFacet","label":"challengerCollateralAmount","offset":0,"slot":"3","type":"t_uint256"},{"astId":72192,"contract":"pkg/contracts/src/CVStrategy/facets/CVAdminFacet.sol:CVAdminFacet","label":"defaultRuling","offset":0,"slot":"4","type":"t_uint256"},{"astId":72194,"contract":"pkg/contracts/src/CVStrategy/facets/CVAdminFacet.sol:CVAdminFacet","label":"defaultRulingTimeout","offset":0,"slot":"5","type":"t_uint256"}]},"t_struct(CVParams)72204_storage":{"encoding":"inplace","label":"struct CVParams","numberOfBytes":"128","members":[{"astId":72197,"contract":"pkg/contracts/src/CVStrategy/facets/CVAdminFacet.sol:CVAdminFacet","label":"maxRatio","offset":0,"slot":"0","type":"t_uint256"},{"astId":72199,"contract":"pkg/contracts/src/CVStrategy/facets/CVAdminFacet.sol:CVAdminFacet","label":"weight","offset":0,"slot":"1","type":"t_uint256"},{"astId":72201,"contract":"pkg/contracts/src/CVStrategy/facets/CVAdminFacet.sol:CVAdminFacet","label":"decay","offset":0,"slot":"2","type":"t_uint256"},{"astId":72203,"contract":"pkg/contracts/src/CVStrategy/facets/CVAdminFacet.sol:CVAdminFacet","label":"minThresholdPoints","offset":0,"slot":"3","type":"t_uint256"}]},"t_struct(Metadata)801_storage":{"encoding":"inplace","label":"struct Metadata","numberOfBytes":"64","members":[{"astId":797,"contract":"pkg/contracts/src/CVStrategy/facets/CVAdminFacet.sol:CVAdminFacet","label":"protocol","offset":0,"slot":"0","type":"t_uint256"},{"astId":800,"contract":"pkg/contracts/src/CVStrategy/facets/CVAdminFacet.sol:CVAdminFacet","label":"pointer","offset":0,"slot":"1","type":"t_string_storage"}]},"t_struct(PointSystemConfig)72181_storage":{"encoding":"inplace","label":"struct PointSystemConfig","numberOfBytes":"32","members":[{"astId":72180,"contract":"pkg/contracts/src/CVStrategy/facets/CVAdminFacet.sol:CVAdminFacet","label":"maxAmount","offset":0,"slot":"0","type":"t_uint256"}]},"t_struct(Proposal)72173_storage":{"encoding":"inplace","label":"struct Proposal","numberOfBytes":"576","members":[{"astId":72139,"contract":"pkg/contracts/src/CVStrategy/facets/CVAdminFacet.sol:CVAdminFacet","label":"proposalId","offset":0,"slot":"0","type":"t_uint256"},{"astId":72141,"contract":"pkg/contracts/src/CVStrategy/facets/CVAdminFacet.sol:CVAdminFacet","label":"requestedAmount","offset":0,"slot":"1","type":"t_uint256"},{"astId":72143,"contract":"pkg/contracts/src/CVStrategy/facets/CVAdminFacet.sol:CVAdminFacet","label":"stakedAmount","offset":0,"slot":"2","type":"t_uint256"},{"astId":72145,"contract":"pkg/contracts/src/CVStrategy/facets/CVAdminFacet.sol:CVAdminFacet","label":"convictionLast","offset":0,"slot":"3","type":"t_uint256"},{"astId":72147,"contract":"pkg/contracts/src/CVStrategy/facets/CVAdminFacet.sol:CVAdminFacet","label":"beneficiary","offset":0,"slot":"4","type":"t_address"},{"astId":72149,"contract":"pkg/contracts/src/CVStrategy/facets/CVAdminFacet.sol:CVAdminFacet","label":"submitter","offset":0,"slot":"5","type":"t_address"},{"astId":72151,"contract":"pkg/contracts/src/CVStrategy/facets/CVAdminFacet.sol:CVAdminFacet","label":"requestedToken","offset":0,"slot":"6","type":"t_address"},{"astId":72153,"contract":"pkg/contracts/src/CVStrategy/facets/CVAdminFacet.sol:CVAdminFacet","label":"blockLast","offset":0,"slot":"7","type":"t_uint256"},{"astId":72156,"contract":"pkg/contracts/src/CVStrategy/facets/CVAdminFacet.sol:CVAdminFacet","label":"proposalStatus","offset":0,"slot":"8","type":"t_enum(ProposalStatus)72130"},{"astId":72160,"contract":"pkg/contracts/src/CVStrategy/facets/CVAdminFacet.sol:CVAdminFacet","label":"voterStakedPoints","offset":0,"slot":"9","type":"t_mapping(t_address,t_uint256)"},{"astId":72163,"contract":"pkg/contracts/src/CVStrategy/facets/CVAdminFacet.sol:CVAdminFacet","label":"metadata","offset":0,"slot":"10","type":"t_struct(Metadata)801_storage"},{"astId":72166,"contract":"pkg/contracts/src/CVStrategy/facets/CVAdminFacet.sol:CVAdminFacet","label":"disputeInfo","offset":0,"slot":"12","type":"t_struct(ProposalDisputeInfo)72137_storage"},{"astId":72168,"contract":"pkg/contracts/src/CVStrategy/facets/CVAdminFacet.sol:CVAdminFacet","label":"lastDisputeCompletion","offset":0,"slot":"15","type":"t_uint256"},{"astId":72170,"contract":"pkg/contracts/src/CVStrategy/facets/CVAdminFacet.sol:CVAdminFacet","label":"arbitrableConfigVersion","offset":0,"slot":"16","type":"t_uint256"},{"astId":72172,"contract":"pkg/contracts/src/CVStrategy/facets/CVAdminFacet.sol:CVAdminFacet","label":"creationTimestamp","offset":0,"slot":"17","type":"t_uint256"}]},"t_struct(ProposalDisputeInfo)72137_storage":{"encoding":"inplace","label":"struct ProposalDisputeInfo","numberOfBytes":"96","members":[{"astId":72132,"contract":"pkg/contracts/src/CVStrategy/facets/CVAdminFacet.sol:CVAdminFacet","label":"disputeId","offset":0,"slot":"0","type":"t_uint256"},{"astId":72134,"contract":"pkg/contracts/src/CVStrategy/facets/CVAdminFacet.sol:CVAdminFacet","label":"disputeTimestamp","offset":0,"slot":"1","type":"t_uint256"},{"astId":72136,"contract":"pkg/contracts/src/CVStrategy/facets/CVAdminFacet.sol:CVAdminFacet","label":"challenger","offset":0,"slot":"2","type":"t_address"}]},"t_uint256":{"encoding":"inplace","label":"uint256","numberOfBytes":"32"},"t_uint64":{"encoding":"inplace","label":"uint64","numberOfBytes":"8"},"t_uint8":{"encoding":"inplace","label":"uint8","numberOfBytes":"1"}}},"id":108}