{"abi":[{"type":"constructor","inputs":[{"name":"_listManager","type":"address","internalType":"address"}],"stateMutability":"nonpayable"},{"type":"function","name":"addUserScore","inputs":[{"name":"_user","type":"address","internalType":"address"},{"name":"_passportData","type":"tuple","internalType":"struct PassportData","components":[{"name":"score","type":"uint256","internalType":"uint256"},{"name":"lastUpdated","type":"uint256","internalType":"uint256"}]}],"outputs":[],"stateMutability":"nonpayable"},{"type":"function","name":"changeListManager","inputs":[{"name":"_newManager","type":"address","internalType":"address"}],"outputs":[],"stateMutability":"nonpayable"},{"type":"function","name":"getUserScore","inputs":[{"name":"_user","type":"address","internalType":"address"}],"outputs":[{"name":"","type":"tuple","internalType":"struct PassportData","components":[{"name":"score","type":"uint256","internalType":"uint256"},{"name":"lastUpdated","type":"uint256","internalType":"uint256"}]}],"stateMutability":"view"},{"type":"function","name":"listManager","inputs":[],"outputs":[{"name":"","type":"address","internalType":"address"}],"stateMutability":"view"},{"type":"function","name":"owner","inputs":[],"outputs":[{"name":"","type":"address","internalType":"address"}],"stateMutability":"view"},{"type":"function","name":"removeUser","inputs":[{"name":"_user","type":"address","internalType":"address"}],"outputs":[],"stateMutability":"nonpayable"},{"type":"function","name":"renounceOwnership","inputs":[],"outputs":[],"stateMutability":"nonpayable"},{"type":"function","name":"setThreshold","inputs":[{"name":"_newThreshold","type":"uint256","internalType":"uint256"}],"outputs":[],"stateMutability":"nonpayable"},{"type":"function","name":"threshold","inputs":[],"outputs":[{"name":"","type":"uint256","internalType":"uint256"}],"stateMutability":"view"},{"type":"function","name":"transferOwnership","inputs":[{"name":"newOwner","type":"address","internalType":"address"}],"outputs":[],"stateMutability":"nonpayable"},{"type":"function","name":"userScores","inputs":[{"name":"user","type":"address","internalType":"address"}],"outputs":[{"name":"score","type":"uint256","internalType":"uint256"},{"name":"lastUpdated","type":"uint256","internalType":"uint256"}],"stateMutability":"view"},{"type":"event","name":"OwnershipTransferred","inputs":[{"name":"previousOwner","type":"address","indexed":true,"internalType":"address"},{"name":"newOwner","type":"address","indexed":true,"internalType":"address"}],"anonymous":false},{"type":"error","name":"OnlyAuthorized","inputs":[]},{"type":"error","name":"ZeroAddress","inputs":[]}],"bytecode":{"object":"0x608060405234801561001057600080fd5b5060405161074738038061074783398101604081905261002f916100e0565b61003833610066565b610041816100b6565b600180546001600160a01b0319166001600160a01b0392909216919091179055610110565b600080546001600160a01b038381166001600160a01b0319831681178455604051919092169283917f8be0079c531659141344cd1fd0a4f28419497f9722a3daafe3b4186f6b6457e09190a35050565b6001600160a01b0381166100dd5760405163d92e233d60e01b815260040160405180910390fd5b50565b6000602082840312156100f257600080fd5b81516001600160a01b038116811461010957600080fd5b9392505050565b6106288061011f6000396000f3fe608060405234801561001057600080fd5b50600436106100c95760003560e01c80638da5cb5b11610081578063985751881161005b57806398575188146101a1578063b34e0c47146101b4578063f2fde38b1461022457600080fd5b80638da5cb5b146101565780638df8b2fe1461017b578063960bfe041461018e57600080fd5b806342cde4e8116100b257806342cde4e814610124578063715018a61461013b5780637814d5681461014357600080fd5b80631413d4c0146100ce5780633d4768301461010f575b600080fd5b6100f56100dc36600461051d565b6003602052600090815260409020805460019091015482565b604080519283526020830191909152015b60405180910390f35b61012261011d36600461051d565b610237565b005b61012d60025481565b604051908152602001610106565b610122610277565b61012261015136600461053f565b61028b565b6000546001600160a01b03165b6040516001600160a01b039091168152602001610106565b600154610163906001600160a01b031681565b61012261019c3660046105d9565b6102ff565b6101226101af36600461051d565b61030c565b6102096101c236600461051d565b6040805180820190915260008082526020820152506001600160a01b0316600090815260036020908152604091829020825180840190935280548352600101549082015290565b60408051825181526020928301519281019290925201610106565b61012261023236600461051d565b610375565b61023f61040a565b61024881610464565b6001805473ffffffffffffffffffffffffffffffffffffffff19166001600160a01b0392909216919091179055565b61027f61040a565b61028960006104a4565b565b6000546001600160a01b03163314806102ae57506001546001600160a01b031633145b156102e6576102bc82610464565b6001600160a01b038216600090815260036020908152604090912082518155908201516001909101555b604051637d7b71b560e01b815260040160405180910390fd5b61030761040a565b600255565b6000546001600160a01b031633148061032f57506001546001600160a01b031633145b156102e65761033d81610464565b6001600160a01b038116600090815260036020526040812081815560010155604051637d7b71b560e01b815260040160405180910390fd5b61037d61040a565b6001600160a01b0381166103fe5760405162461bcd60e51b815260206004820152602660248201527f4f776e61626c653a206e6577206f776e657220697320746865207a65726f206160448201527f646472657373000000000000000000000000000000000000000000000000000060648201526084015b60405180910390fd5b610407816104a4565b50565b6000546001600160a01b031633146102895760405162461bcd60e51b815260206004820181905260248201527f4f776e61626c653a2063616c6c6572206973206e6f7420746865206f776e657260448201526064016103f5565b6001600160a01b038116610407576040517fd92e233d00000000000000000000000000000000000000000000000000000000815260040160405180910390fd5b600080546001600160a01b0383811673ffffffffffffffffffffffffffffffffffffffff19831681178455604051919092169283917f8be0079c531659141344cd1fd0a4f28419497f9722a3daafe3b4186f6b6457e09190a35050565b80356001600160a01b038116811461051857600080fd5b919050565b60006020828403121561052f57600080fd5b61053882610501565b9392505050565b600080828403606081121561055357600080fd5b61055c84610501565b92506040601f198201121561057057600080fd5b506040516040810181811067ffffffffffffffff821117156105bb577f4e487b7100000000000000000000000000000000000000000000000000000000600052604160045260246000fd5b60409081526020858101358352940135938101939093525092909150565b6000602082840312156105eb57600080fd5b503591905056fea264697066735822122084fe3691a1977a70c5613570b0ea4ce2200750ac34339c70af1a2d4519fb7f2c64736f6c63430008130033","linkReferences":{}},"methodIdentifiers":{"addUserScore(address,(uint256,uint256))":"7814d568","changeListManager(address)":"3d476830","getUserScore(address)":"b34e0c47","listManager()":"8df8b2fe","owner()":"8da5cb5b","removeUser(address)":"98575188","renounceOwnership()":"715018a6","setThreshold(uint256)":"960bfe04","threshold()":"42cde4e8","transferOwnership(address)":"f2fde38b","userScores(address)":"1413d4c0"},"storageLayout":{"storage":[{"astId":55389,"contract":"pkg/contracts/src/PassportScorer.sol:PassportScorer","label":"_owner","offset":0,"slot":"0","type":"t_address"},{"astId":75605,"contract":"pkg/contracts/src/PassportScorer.sol:PassportScorer","label":"listManager","offset":0,"slot":"1","type":"t_address"},{"astId":75607,"contract":"pkg/contracts/src/PassportScorer.sol:PassportScorer","label":"threshold","offset":0,"slot":"2","type":"t_uint256"},{"astId":75612,"contract":"pkg/contracts/src/PassportScorer.sol:PassportScorer","label":"userScores","offset":0,"slot":"3","type":"t_mapping(t_address,t_struct(PassportData)75568_storage)"}],"types":{"t_address":{"encoding":"inplace","label":"address","numberOfBytes":"20"},"t_mapping(t_address,t_struct(PassportData)75568_storage)":{"encoding":"mapping","key":"t_address","label":"mapping(address => struct PassportData)","numberOfBytes":"32","value":"t_struct(PassportData)75568_storage"},"t_struct(PassportData)75568_storage":{"encoding":"inplace","label":"struct PassportData","numberOfBytes":"64","members":[{"astId":75565,"contract":"pkg/contracts/src/PassportScorer.sol:PassportScorer","label":"score","offset":0,"slot":"0","type":"t_uint256"},{"astId":75567,"contract":"pkg/contracts/src/PassportScorer.sol:PassportScorer","label":"lastUpdated","offset":0,"slot":"1","type":"t_uint256"}]},"t_uint256":{"encoding":"inplace","label":"uint256","numberOfBytes":"32"}}},"id":128}