{"abi":[{"type":"function","name":"activateStrategy","inputs":[{"name":"_strategy","type":"address","internalType":"address"}],"outputs":[],"stateMutability":"nonpayable"},{"type":"function","name":"addStrategy","inputs":[{"name":"_strategy","type":"address","internalType":"address"},{"name":"_threshold","type":"uint256","internalType":"uint256"},{"name":"_councilSafe","type":"address","internalType":"address"}],"outputs":[],"stateMutability":"nonpayable"},{"type":"function","name":"addUserScore","inputs":[{"name":"_user","type":"address","internalType":"address"},{"name":"_score","type":"uint256","internalType":"uint256"}],"outputs":[],"stateMutability":"nonpayable"},{"type":"function","name":"canExecuteAction","inputs":[{"name":"_user","type":"address","internalType":"address"},{"name":"_strategy","type":"address","internalType":"address"}],"outputs":[{"name":"","type":"bool","internalType":"bool"}],"stateMutability":"view"},{"type":"function","name":"changeListManager","inputs":[{"name":"_newManager","type":"address","internalType":"address"}],"outputs":[],"stateMutability":"nonpayable"},{"type":"function","name":"initialize","inputs":[{"name":"_listManager","type":"address","internalType":"address"},{"name":"_owner","type":"address","internalType":"address"}],"outputs":[],"stateMutability":"nonpayable"},{"type":"function","name":"initialize","inputs":[{"name":"initialOwner","type":"address","internalType":"address"}],"outputs":[],"stateMutability":"nonpayable"},{"type":"function","name":"listManager","inputs":[],"outputs":[{"name":"","type":"address","internalType":"address"}],"stateMutability":"view"},{"type":"function","name":"modifyThreshold","inputs":[{"name":"_strategy","type":"address","internalType":"address"},{"name":"_newThreshold","type":"uint256","internalType":"uint256"}],"outputs":[],"stateMutability":"nonpayable"},{"type":"function","name":"owner","inputs":[],"outputs":[{"name":"","type":"address","internalType":"address"}],"stateMutability":"view"},{"type":"function","name":"proxiableUUID","inputs":[],"outputs":[{"name":"","type":"bytes32","internalType":"bytes32"}],"stateMutability":"view"},{"type":"function","name":"proxyOwner","inputs":[],"outputs":[{"name":"","type":"address","internalType":"address"}],"stateMutability":"view"},{"type":"function","name":"removeStrategy","inputs":[{"name":"_strategy","type":"address","internalType":"address"}],"outputs":[],"stateMutability":"nonpayable"},{"type":"function","name":"removeUser","inputs":[{"name":"_user","type":"address","internalType":"address"}],"outputs":[],"stateMutability":"nonpayable"},{"type":"function","name":"renounceOwnership","inputs":[],"outputs":[],"stateMutability":"nonpayable"},{"type":"function","name":"strategies","inputs":[{"name":"","type":"address","internalType":"address"}],"outputs":[{"name":"threshold","type":"uint256","internalType":"uint256"},{"name":"active","type":"bool","internalType":"bool"},{"name":"councilSafe","type":"address","internalType":"address"}],"stateMutability":"view"},{"type":"function","name":"transferOwnership","inputs":[{"name":"newOwner","type":"address","internalType":"address"}],"outputs":[],"stateMutability":"nonpayable"},{"type":"function","name":"upgradeTo","inputs":[{"name":"newImplementation","type":"address","internalType":"address"}],"outputs":[],"stateMutability":"nonpayable"},{"type":"function","name":"upgradeToAndCall","inputs":[{"name":"newImplementation","type":"address","internalType":"address"},{"name":"data","type":"bytes","internalType":"bytes"}],"outputs":[],"stateMutability":"payable"},{"type":"function","name":"userScores","inputs":[{"name":"","type":"address","internalType":"address"}],"outputs":[{"name":"","type":"uint256","internalType":"uint256"}],"stateMutability":"view"},{"type":"event","name":"AdminChanged","inputs":[{"name":"previousAdmin","type":"address","indexed":false,"internalType":"address"},{"name":"newAdmin","type":"address","indexed":false,"internalType":"address"}],"anonymous":false},{"type":"event","name":"BeaconUpgraded","inputs":[{"name":"beacon","type":"address","indexed":true,"internalType":"address"}],"anonymous":false},{"type":"event","name":"Initialized","inputs":[{"name":"version","type":"uint8","indexed":false,"internalType":"uint8"}],"anonymous":false},{"type":"event","name":"ListManagerChanged","inputs":[{"name":"oldManager","type":"address","indexed":true,"internalType":"address"},{"name":"newManager","type":"address","indexed":true,"internalType":"address"}],"anonymous":false},{"type":"event","name":"OwnershipTransferred","inputs":[{"name":"previousOwner","type":"address","indexed":true,"internalType":"address"},{"name":"newOwner","type":"address","indexed":true,"internalType":"address"}],"anonymous":false},{"type":"event","name":"StrategyActivated","inputs":[{"name":"strategy","type":"address","indexed":true,"internalType":"address"}],"anonymous":false},{"type":"event","name":"StrategyAdded","inputs":[{"name":"strategy","type":"address","indexed":true,"internalType":"address"},{"name":"threshold","type":"uint256","indexed":false,"internalType":"uint256"},{"name":"active","type":"bool","indexed":false,"internalType":"bool"},{"name":"councilSafe","type":"address","indexed":false,"internalType":"address"}],"anonymous":false},{"type":"event","name":"StrategyRemoved","inputs":[{"name":"strategy","type":"address","indexed":true,"internalType":"address"}],"anonymous":false},{"type":"event","name":"ThresholdModified","inputs":[{"name":"strategy","type":"address","indexed":true,"internalType":"address"},{"name":"newThreshold","type":"uint256","indexed":false,"internalType":"uint256"}],"anonymous":false},{"type":"event","name":"Upgraded","inputs":[{"name":"implementation","type":"address","indexed":true,"internalType":"address"}],"anonymous":false},{"type":"event","name":"UserRemoved","inputs":[{"name":"user","type":"address","indexed":true,"internalType":"address"}],"anonymous":false},{"type":"event","name":"UserScoreAdded","inputs":[{"name":"user","type":"address","indexed":true,"internalType":"address"},{"name":"score","type":"uint256","indexed":false,"internalType":"uint256"}],"anonymous":false},{"type":"error","name":"CallerNotOwner","inputs":[{"name":"_caller","type":"address","internalType":"address"},{"name":"_owner","type":"address","internalType":"address"}]},{"type":"error","name":"OnlyAuthorized","inputs":[]},{"type":"error","name":"OnlyAuthorizedOrUser","inputs":[]},{"type":"error","name":"OnlyCouncil","inputs":[]},{"type":"error","name":"OnlyCouncilOrAuthorized","inputs":[]},{"type":"error","name":"StrategyAlreadyExists","inputs":[]},{"type":"error","name":"ZeroAddress","inputs":[]}],"bytecode":{"object":"0x60a0806040523461003157306080526117d69081610037823960805181818161087b0152818161099c0152610ed80152f35b600080fdfe6080604081815260048036101561001557600080fd5b600092833560e01c908163025313a21461123c575080631413d4c014611204578063175188e8146110e45780633659cfe614610eb157806339ebf82314610e5b5780633d47683014610de757806342a987a014610db0578063485cc95514610c0c5780634f1ef2861461092357806352d1902d14610866578063642ce76b14610729578063715018a6146106db5780638da5cb5b146106ad5780638df8b2fe1461068057806398575188146105e9578063c4d66de814610572578063d80ea5a014610430578063f2fde38b1461039f578063fc2ebdd1146101a25763feec7145146100ff57600080fd5b3461019e578160031936011261019e57610117611261565b602435916001600160a01b0391908261012e611641565b1633148015610191575b156101835750916020918361016d7f8b9ed475f52a60fa276f21d6848c06cbb59ebfcd26e8b8de2753c3e12a493ea795611599565b169384865260668352818187205551908152a280f35b8451637d7b71b560e01b8152fd5b5082606554163314610138565b8280fd5b50903461019e57606036600319011261019e576101bd611261565b60443592602435926001600160a01b038086169391929084870361039b578351631800f90560e21b8152838216976020949091858186818d5afa908115610391578b91610364575b508380610210611641565b16331491821561035a575b821561034d575b50508015610340575b8015610325575b15610315579061024461024992611599565b611599565b868852606783528388209081541591821592610302575b50506102f457509181866060947f9b1a157188de9a0bd2e7995d72aaba244d9bd012ddf3ae3d4f492135175070cb96945161029a81611292565b858152818101908382526001858201918783528b8652606785528686209051815501915115159060ff835491610100600160a81b03905160081b1692169060018060a81b031916171790558251948552840152820152a280f35b825163c45546f760e01b8152fd5b6001015460081c16151590503880610260565b855163e3b6914b60e01b81528490fd5b50888a5260678552826001878c20015460081c163314610232565b508260655416331461022b565b9091501633148338610222565b338c14925061021b565b6103849150863d881161038a575b61037c81836112c3565b8101906115bb565b38610205565b503d610372565b87513d8d823e3d90fd5b8780fd5b503461019e57602036600319011261019e576103b9611261565b916103c2611301565b6001600160a01b038316156103de57836103db84611360565b80f35b906020608492519162461bcd60e51b8352820152602660248201527f4f776e61626c653a206e6577206f776e657220697320746865207a65726f206160448201526564647265737360d01b6064820152fd5b50903461019e5760208060031936011261056e5761044c611261565b8251631800f90560e21b81526001600160a01b03828116959190848284818a5afa918215610564578892610545575b5080610485611641565b16331491821561053b575b821561052e575b50811561051f575b8115610503575b50156104f55750600192916104bc606792611599565b84865252832001805460ff191660011790557f652f053fc39779b70b29678135ade972fcb79966fc68fcb77c996b1aa4fd9afb8280a280f35b835163e3b6914b60e01b8152fd5b9050858752606784526001858820015460081c163314386104a6565b8091506065541633149061049f565b8192501633149038610497565b3388149250610490565b61055d919250853d871161038a5761037c81836112c3565b903861047b565b86513d8a823e3d90fd5b8380fd5b503461019e57602036600319011261019e5761058c611261565b9160ff845460081c16156105a457836103db84611360565b906020608492519162461bcd60e51b8352820152602b602482015260008051602061172a83398151915260448201526a6e697469616c697a696e6760a81b6064820152fd5b503461019e57602036600319011261019e57610603611261565b6001600160a01b039182610615611641565b1633148015610673575b15610665575090816106318593611599565b169182825260666020528120557fe9dce8c992623ce791725b21e857e33248d1f190a25b5168313420eebdaae99d8280a280f35b8351637d7b71b560e01b8152fd5b508260655416331461061f565b5050346106a957816003193601126106a95760655490516001600160a01b039091168152602090f35b5080fd5b5050346106a957816003193601126106a9576020906106ca611641565b90516001600160a01b039091168152f35b83346107265780600319360112610726576106f4611301565b603380546001600160a01b0319811690915581906001600160a01b031660008051602061174a8339815191528280a380f35b80fd5b508290346106a957826003193601126106a957610744611261565b8351631800f90560e21b815290936001600160a01b03808616936020936024359392858284818a5afa91821561085c57889261083d575b5080610785611641565b163314918215610833575b8215610826575b508115610817575b81156107fb575b50156107ed57506107d97f40ba4d5d9facd2fda74e22251d1638576e05a30482470363c7c87a7b5b298c09949596611599565b84865260678352818187205551908152a280f35b905163e3b6914b60e01b8152fd5b9050858752606785526001838820015460081c163314886107a6565b8091506065541633149061079f565b8192501633149089610797565b3388149250610790565b610855919250863d881161038a5761037c81836112c3565b908961077b565b84513d8a823e3d90fd5b508234610726578060031936011261072657507f00000000000000000000000000000000000000000000000000000000000000006001600160a01b031630036108c0576020825160008051602061170a8339815191528152f35b6020608492519162461bcd60e51b8352820152603860248201527f555550535570677261646561626c653a206d757374206e6f742062652063616c6044820152771b1959081d1a1c9bdd59da0819195b1959d85d1958d85b1b60421b6064820152fd5b50908060031936011261019e57610938611261565b906024908135906001600160401b038211610c085736602383011215610c085781850135610965816112e6565b610971835191826112c3565b81815287602094858301933688828401011161019e5780888893018637830101526001600160a01b037f00000000000000000000000000000000000000000000000000000000000000008116906109ca30831415611397565b6109e760008051602061170a8339815191529282845416146113e6565b6109ef611641565b8133911603610be1576000805160206116ca8339815191525460ff1615610a2157505050505050506103db9150611435565b87929394959697169085516352d1902d60e01b815287818b81865afa8b9181610bae575b50610a9157865162461bcd60e51b8152808b01899052602e818b01526000805160206117aa83398151915260448201526d6f6e206973206e6f74205555505360901b6064820152608490fd5b989294989791939703610b6c575050610aa982611435565b60008051602061176a8339815191528780a285845115801590610b64575b610ad5575b50505050505080f35b80610b4e96845196610ae688611292565b602788527f416464726573733a206c6f772d6c6576656c2064656c65676174652063616c6c87890152660819985a5b195960ca1b868901525190845af4913d15610b5a573d610b40610b37826112e6565b925192836112c3565b81528681943d92013e6114c5565b50388080808085610acc565b50606092506114c5565b506001610ac7565b845162461bcd60e51b815291820186905260299082015260008051602061178a8339815191526044820152681a58589b195555525160ba1b6064820152608490fd5b9091508881813d8311610bda575b610bc681836112c3565b81010312610bd657519038610a45565b8b80fd5b503d610bbc565b888760449287610bef611641565b90519363163678e960e01b855233908501521690820152fd5b8580fd5b503461019e578160031936011261019e57610c25611261565b610c2d61127c565b84549260ff8460081c161593848095610da3575b8015610d8c575b15610d325760ff198116600117875584610d21575b5060ff865460081c1615610cdc5750610c7590611360565b610c7e81611599565b606580546001600160a01b0319166001600160a01b0392909216919091179055610ca6575080f35b60207f7f26b83ff96e1f2b6a682f133852f6798a09c465da95921460cefb38474024989161ff001984541684555160018152a180f35b608490602086519162461bcd60e51b8352820152602b602482015260008051602061172a83398151915260448201526a6e697469616c697a696e6760a81b6064820152fd5b61ffff191661010117865538610c5d565b855162461bcd60e51b8152602081840152602e60248201527f496e697469616c697a61626c653a20636f6e747261637420697320616c72656160448201526d191e481a5b9a5d1a585b1a5e995960921b6064820152608490fd5b50303b158015610c485750600160ff821614610c48565b50600160ff821610610c41565b5050346106a957806003193601126106a957602090610dde610dd0611261565b610dd861127c565b906115da565b90519015158152f35b833461072657602036600319011261072657610e01611261565b610e09611301565b610e1281611599565b606580546001600160a01b039283166001600160a01b0319821681179092559091167f5117c6c457d7b27a4cb68df40b118f157ac1f1ba81f8a571d189f829d74fbc868380a380f35b5050346106a95760203660031901126106a9576060916001600160a01b039190819083610e86611261565b1681526067602052209160018354930154825193845260ff81161515602085015260081c1690820152f35b50903461019e5760208060031936011261056e57610ecd611261565b916001600160a01b037f00000000000000000000000000000000000000000000000000000000000000008116610f0530821415611397565b610f2260008051602061170a8339815191529183835416146113e6565b610f2a611641565b82339116036110bd578251848101929091906001600160401b038411838510176110aa578385528883526000805160206116ca8339815191525460ff1615610f7c575050505050506103db9150611435565b869293949596169085516352d1902d60e01b815287818a81865afa8a9181611077575b50610fec57865162461bcd60e51b8152808a01899052602e60248201526000805160206117aa83398151915260448201526d6f6e206973206e6f74205555505360901b6064820152608490fd5b979192939695949703611034575061100382611435565b60008051602061176a8339815191528780a28584511580159061102d57610ad55750505050505080f35b5080610ac7565b835162461bcd60e51b81529081018590526029602482015260008051602061178a8339815191526044820152681a58589b195555525160ba1b6064820152608490fd5b9091508881813d83116110a3575b61108f81836112c3565b8101031261109f57519038610f9f565b8a80fd5b503d611085565b634e487b7160e01b895260418852602489fd5b60448683856110ca611641565b90519263163678e960e01b84523390840152166024820152fd5b50903461019e5760208060031936011261056e57611100611261565b8251631800f90560e21b81526001600160a01b03828116959190848284818a5afa9182156105645788926111e5575b5080611139611641565b1633149182156111db575b82156111ce575b5081156111bf575b81156111a3575b50156104f557509160676001926111718795611599565b85855252822082815501557f09a1db4b80c32706328728508c941a6b954f31eb5affd32f236c1fd405f8fea48280a280f35b9050858752606784526001858820015460081c1633143861115a565b80915060655416331490611153565b819250163314903861114b565b3388149250611144565b6111fd919250853d871161038a5761037c81836112c3565b903861112f565b5050346106a95760203660031901126106a95760209181906001600160a01b0361122c611261565b1681526066845220549051908152f35b8490346106a957816003193601126106a9576033546001600160a01b03168152602090f35b600435906001600160a01b038216820361127757565b600080fd5b602435906001600160a01b038216820361127757565b606081019081106001600160401b038211176112ad57604052565b634e487b7160e01b600052604160045260246000fd5b601f909101601f19168101906001600160401b038211908210176112ad57604052565b6001600160401b0381116112ad57601f01601f191660200190565b611309611641565b336001600160a01b039091160361131c57565b606460405162461bcd60e51b815260206004820152602060248201527f4f776e61626c653a2063616c6c6572206973206e6f7420746865206f776e65726044820152fd5b603380546001600160a01b039283166001600160a01b03198216811790925590911660008051602061174a833981519152600080a3565b1561139e57565b60405162461bcd60e51b815260206004820152602c60248201526000805160206116ea83398151915260448201526b19195b1959d85d1958d85b1b60a21b6064820152608490fd5b156113ed57565b60405162461bcd60e51b815260206004820152602c60248201526000805160206116ea83398151915260448201526b6163746976652070726f787960a01b6064820152608490fd5b803b1561146a5760008051602061170a83398151915280546001600160a01b0319166001600160a01b03909216919091179055565b60405162461bcd60e51b815260206004820152602d60248201527f455243313936373a206e657720696d706c656d656e746174696f6e206973206e60448201526c1bdd08184818dbdb9d1c9858dd609a1b6064820152608490fd5b9192901561152757508151156114d9575090565b3b156114e25790565b60405162461bcd60e51b815260206004820152601d60248201527f416464726573733a2063616c6c20746f206e6f6e2d636f6e74726163740000006044820152606490fd5b82519091501561153a5750805190602001fd5b6040519062461bcd60e51b82528160208060048301528251908160248401526000935b828510611580575050604492506000838284010152601f80199101168101030190fd5b848101820151868601604401529381019385935061155d565b6001600160a01b0316156115a957565b60405163d92e233d60e01b8152600490fd5b9081602091031261127757516001600160a01b03811681036112775790565b9060018060a01b038092166000526066602052816040600020549116600052606760205260406000209160405161161081611292565b6040600185549586845201549260ff841615938415602085015260081c1691015261163a57101590565b5050600190565b6033546001600160a01b0390811690813b61165a575090565b604051638da5cb5b60e01b8152602081600481865afa91829160009361168a575b5050611685575090565b905090565b602093919293813d82116116c1575b816116a6602093836112c3565b810103126106a957519182168203610726575090388061167b565b3d915061169956fe4910fdfa16fed3260ed0e7147f7cc6da11a60208b5b9406d12a635614ffd914346756e6374696f6e206d7573742062652063616c6c6564207468726f75676820360894a13ba1a3210667c828492db98dca3e2076cc3735a920a3ca505d382bbc496e697469616c697a61626c653a20636f6e7472616374206973206e6f7420698be0079c531659141344cd1fd0a4f28419497f9722a3daafe3b4186f6b6457e0bc7cd75a20ee27fd9adebab32041f755214dbc6bffa90cc0225b39da2e5c2d3b45524331393637557067726164653a20756e737570706f727465642070726f7845524331393637557067726164653a206e657720696d706c656d656e74617469a164736f6c6343000813000a","linkReferences":{}},"methodIdentifiers":{"activateStrategy(address)":"d80ea5a0","addStrategy(address,uint256,address)":"fc2ebdd1","addUserScore(address,uint256)":"feec7145","canExecuteAction(address,address)":"42a987a0","changeListManager(address)":"3d476830","initialize(address)":"c4d66de8","initialize(address,address)":"485cc955","listManager()":"8df8b2fe","modifyThreshold(address,uint256)":"642ce76b","owner()":"8da5cb5b","proxiableUUID()":"52d1902d","proxyOwner()":"025313a2","removeStrategy(address)":"175188e8","removeUser(address)":"98575188","renounceOwnership()":"715018a6","strategies(address)":"39ebf823","transferOwnership(address)":"f2fde38b","upgradeTo(address)":"3659cfe6","upgradeToAndCall(address,bytes)":"4f1ef286","userScores(address)":"1413d4c0"},"storageLayout":{"storage":[{"astId":52222,"contract":"pkg/contracts/src/PassportScorer.sol:PassportScorer","label":"_initialized","offset":0,"slot":"0","type":"t_uint8"},{"astId":52225,"contract":"pkg/contracts/src/PassportScorer.sol:PassportScorer","label":"_initializing","offset":1,"slot":"0","type":"t_bool"},{"astId":52927,"contract":"pkg/contracts/src/PassportScorer.sol:PassportScorer","label":"__gap","offset":0,"slot":"1","type":"t_array(t_uint256)50_storage"},{"astId":52014,"contract":"pkg/contracts/src/PassportScorer.sol:PassportScorer","label":"_owner","offset":0,"slot":"51","type":"t_address"},{"astId":52134,"contract":"pkg/contracts/src/PassportScorer.sol:PassportScorer","label":"__gap","offset":0,"slot":"52","type":"t_array(t_uint256)49_storage"},{"astId":80728,"contract":"pkg/contracts/src/PassportScorer.sol:PassportScorer","label":"listManager","offset":0,"slot":"101","type":"t_address"},{"astId":80732,"contract":"pkg/contracts/src/PassportScorer.sol:PassportScorer","label":"userScores","offset":0,"slot":"102","type":"t_mapping(t_address,t_uint256)"},{"astId":80737,"contract":"pkg/contracts/src/PassportScorer.sol:PassportScorer","label":"strategies","offset":0,"slot":"103","type":"t_mapping(t_address,t_struct(Strategy)80677_storage)"},{"astId":81175,"contract":"pkg/contracts/src/PassportScorer.sol:PassportScorer","label":"__gap","offset":0,"slot":"104","type":"t_array(t_uint256)50_storage"}],"types":{"t_address":{"encoding":"inplace","label":"address","numberOfBytes":"20"},"t_array(t_uint256)49_storage":{"encoding":"inplace","label":"uint256[49]","numberOfBytes":"1568","base":"t_uint256"},"t_array(t_uint256)50_storage":{"encoding":"inplace","label":"uint256[50]","numberOfBytes":"1600","base":"t_uint256"},"t_bool":{"encoding":"inplace","label":"bool","numberOfBytes":"1"},"t_mapping(t_address,t_struct(Strategy)80677_storage)":{"encoding":"mapping","key":"t_address","label":"mapping(address => struct Strategy)","numberOfBytes":"32","value":"t_struct(Strategy)80677_storage"},"t_mapping(t_address,t_uint256)":{"encoding":"mapping","key":"t_address","label":"mapping(address => uint256)","numberOfBytes":"32","value":"t_uint256"},"t_struct(Strategy)80677_storage":{"encoding":"inplace","label":"struct Strategy","numberOfBytes":"64","members":[{"astId":80672,"contract":"pkg/contracts/src/PassportScorer.sol:PassportScorer","label":"threshold","offset":0,"slot":"0","type":"t_uint256"},{"astId":80674,"contract":"pkg/contracts/src/PassportScorer.sol:PassportScorer","label":"active","offset":0,"slot":"1","type":"t_bool"},{"astId":80676,"contract":"pkg/contracts/src/PassportScorer.sol:PassportScorer","label":"councilSafe","offset":1,"slot":"1","type":"t_address"}]},"t_uint256":{"encoding":"inplace","label":"uint256","numberOfBytes":"32"},"t_uint8":{"encoding":"inplace","label":"uint8","numberOfBytes":"1"}}},"id":133}