{"abi":[{"type":"constructor","inputs":[{"name":"_listManager","type":"address","internalType":"address"}],"stateMutability":"nonpayable"},{"type":"function","name":"activateStrategy","inputs":[{"name":"_strategy","type":"address","internalType":"address"}],"outputs":[],"stateMutability":"nonpayable"},{"type":"function","name":"addStrategy","inputs":[{"name":"_strategy","type":"address","internalType":"address"},{"name":"_threshold","type":"uint256","internalType":"uint256"},{"name":"_councilSafe","type":"address","internalType":"address"}],"outputs":[],"stateMutability":"nonpayable"},{"type":"function","name":"addUserScore","inputs":[{"name":"_user","type":"address","internalType":"address"},{"name":"_passportData","type":"tuple","internalType":"struct PassportData","components":[{"name":"score","type":"uint256","internalType":"uint256"},{"name":"lastUpdated","type":"uint256","internalType":"uint256"}]}],"outputs":[],"stateMutability":"nonpayable"},{"type":"function","name":"canExecuteAction","inputs":[{"name":"_user","type":"address","internalType":"address"},{"name":"_strategy","type":"address","internalType":"address"}],"outputs":[{"name":"","type":"bool","internalType":"bool"}],"stateMutability":"view"},{"type":"function","name":"changeListManager","inputs":[{"name":"_newManager","type":"address","internalType":"address"}],"outputs":[],"stateMutability":"nonpayable"},{"type":"function","name":"getStrategy","inputs":[{"name":"_strategy","type":"address","internalType":"address"}],"outputs":[{"name":"","type":"tuple","internalType":"struct Strategy","components":[{"name":"threshold","type":"uint256","internalType":"uint256"},{"name":"active","type":"bool","internalType":"bool"},{"name":"councilSafe","type":"address","internalType":"address"}]}],"stateMutability":"view"},{"type":"function","name":"getUserScore","inputs":[{"name":"_user","type":"address","internalType":"address"}],"outputs":[{"name":"","type":"tuple","internalType":"struct PassportData","components":[{"name":"score","type":"uint256","internalType":"uint256"},{"name":"lastUpdated","type":"uint256","internalType":"uint256"}]}],"stateMutability":"view"},{"type":"function","name":"listManager","inputs":[],"outputs":[{"name":"","type":"address","internalType":"address"}],"stateMutability":"view"},{"type":"function","name":"modifyThreshold","inputs":[{"name":"_strategy","type":"address","internalType":"address"},{"name":"_newThreshold","type":"uint256","internalType":"uint256"}],"outputs":[],"stateMutability":"nonpayable"},{"type":"function","name":"owner","inputs":[],"outputs":[{"name":"","type":"address","internalType":"address"}],"stateMutability":"view"},{"type":"function","name":"removeStrategy","inputs":[{"name":"_strategy","type":"address","internalType":"address"}],"outputs":[],"stateMutability":"nonpayable"},{"type":"function","name":"removeUser","inputs":[{"name":"_user","type":"address","internalType":"address"}],"outputs":[],"stateMutability":"nonpayable"},{"type":"function","name":"renounceOwnership","inputs":[],"outputs":[],"stateMutability":"nonpayable"},{"type":"function","name":"strategies","inputs":[{"name":"","type":"address","internalType":"address"}],"outputs":[{"name":"threshold","type":"uint256","internalType":"uint256"},{"name":"active","type":"bool","internalType":"bool"},{"name":"councilSafe","type":"address","internalType":"address"}],"stateMutability":"view"},{"type":"function","name":"transferOwnership","inputs":[{"name":"newOwner","type":"address","internalType":"address"}],"outputs":[],"stateMutability":"nonpayable"},{"type":"function","name":"userScores","inputs":[{"name":"","type":"address","internalType":"address"}],"outputs":[{"name":"score","type":"uint256","internalType":"uint256"},{"name":"lastUpdated","type":"uint256","internalType":"uint256"}],"stateMutability":"view"},{"type":"event","name":"ListManagerChanged","inputs":[{"name":"oldManager","type":"address","indexed":true,"internalType":"address"},{"name":"newManager","type":"address","indexed":true,"internalType":"address"}],"anonymous":false},{"type":"event","name":"OwnershipTransferred","inputs":[{"name":"previousOwner","type":"address","indexed":true,"internalType":"address"},{"name":"newOwner","type":"address","indexed":true,"internalType":"address"}],"anonymous":false},{"type":"event","name":"StrategyActivated","inputs":[{"name":"strategy","type":"address","indexed":true,"internalType":"address"}],"anonymous":false},{"type":"event","name":"StrategyAdded","inputs":[{"name":"strategy","type":"address","indexed":true,"internalType":"address"},{"name":"threshold","type":"uint256","indexed":false,"internalType":"uint256"},{"name":"active","type":"bool","indexed":false,"internalType":"bool"},{"name":"councilSafe","type":"address","indexed":false,"internalType":"address"}],"anonymous":false},{"type":"event","name":"StrategyRemoved","inputs":[{"name":"strategy","type":"address","indexed":true,"internalType":"address"}],"anonymous":false},{"type":"event","name":"ThresholdModified","inputs":[{"name":"strategy","type":"address","indexed":true,"internalType":"address"},{"name":"newThreshold","type":"uint256","indexed":false,"internalType":"uint256"}],"anonymous":false},{"type":"event","name":"UserRemoved","inputs":[{"name":"user","type":"address","indexed":true,"internalType":"address"}],"anonymous":false},{"type":"event","name":"UserScoreAdded","inputs":[{"name":"user","type":"address","indexed":true,"internalType":"address"},{"name":"score","type":"uint256","indexed":false,"internalType":"uint256"},{"name":"lastUpdated","type":"uint256","indexed":false,"internalType":"uint256"}],"anonymous":false},{"type":"error","name":"OnlyAuthorized","inputs":[]},{"type":"error","name":"OnlyCouncil","inputs":[]},{"type":"error","name":"OnlyCouncilOrAuthorized","inputs":[]},{"type":"error","name":"ZeroAddress","inputs":[]}],"bytecode":{"object":"0x608060405234801561001057600080fd5b50604051610de3380380610de383398101604081905261002f916100e0565b61003833610066565b610041816100b6565b600180546001600160a01b0319166001600160a01b0392909216919091179055610110565b600080546001600160a01b038381166001600160a01b0319831681178455604051919092169283917f8be0079c531659141344cd1fd0a4f28419497f9722a3daafe3b4186f6b6457e09190a35050565b6001600160a01b0381166100dd5760405163d92e233d60e01b815260040160405180910390fd5b50565b6000602082840312156100f257600080fd5b81516001600160a01b038116811461010957600080fd5b9392505050565b610cc48061011f6000396000f3fe608060405234801561001057600080fd5b50600436106101005760003560e01c80638da5cb5b11610097578063d80ea5a011610066578063d80ea5a0146102d8578063f2fde38b146102eb578063f8806a13146102fe578063fc2ebdd11461039757600080fd5b80638da5cb5b1461021d5780638df8b2fe146102425780639857518814610255578063b34e0c471461026857600080fd5b806342a987a0116100d357806342a987a0146101cc578063642ce76b146101ef578063715018a6146102025780637814d5681461020a57600080fd5b80631413d4c014610105578063175188e81461014657806339ebf8231461015b5780633d476830146101b9575b600080fd5b61012c610113366004610b39565b6002602052600090815260409020805460019091015482565b604080519283526020830191909152015b60405180910390f35b610159610154366004610b39565b6103aa565b005b610195610169366004610b39565b6003602052600090815260409020805460019091015460ff81169061010090046001600160a01b031683565b6040805193845291151560208401526001600160a01b03169082015260600161013d565b6101596101c7366004610b39565b6104a3565b6101df6101da366004610b5b565b610513565b604051901515815260200161013d565b6101596101fd366004610b8e565b61059b565b61015961066b565b610159610218366004610bb8565b61067f565b6000546001600160a01b03165b6040516001600160a01b03909116815260200161013d565b60015461022a906001600160a01b031681565b610159610263366004610b39565b610747565b6102bd610276366004610b39565b6040805180820190915260008082526020820152506001600160a01b0316600090815260026020908152604091829020825180840190935280548352600101549082015290565b6040805182518152602092830151928101929092520161013d565b6101596102e6366004610b39565b6107c5565b6101596102f9366004610b39565b61087e565b61036a61030c366004610b39565b6040805160608082018352600080835260208084018290529284018190526001600160a01b0394851681526003835283902083519182018452805482526001015460ff81161515928201929092526101009091049092169082015290565b6040805182518152602080840151151590820152918101516001600160a01b03169082015260600161013d565b6101596103a5366004610c52565b610910565b806103bd6000546001600160a01b031690565b6001600160a01b0316336001600160a01b031614806103e657506001546001600160a01b031633145b8061041257506001600160a01b0381811660009081526003602052604090206001015461010090041633145b156104715761042082610a26565b6001600160a01b03821660008181526003602052604080822060018101805460ff19169055829055517f09a1db4b80c32706328728508c941a6b954f31eb5affd32f236c1fd405f8fea49190a25050565b6040517fe3b6914b00000000000000000000000000000000000000000000000000000000815260040160405180910390fd5b6104ab610a66565b6104b481610a26565b600180546001600160a01b0383811673ffffffffffffffffffffffffffffffffffffffff19831681179093556040519116919082907f5117c6c457d7b27a4cb68df40b118f157ac1f1ba81f8a571d189f829d74fbc8690600090a35050565b6001600160a01b03808316600090815260026020908152604080832081518083018352815481526001918201548185015286861685526003845282852083516060810185528154815292015460ff811615159483018590526101009004909516918101919091529192919061058d57600192505050610595565b519051101590505b92915050565b816105ae6000546001600160a01b031690565b6001600160a01b0316336001600160a01b031614806105d757506001546001600160a01b031633145b8061060357506001600160a01b0381811660009081526003602052604090206001015461010090041633145b156104715761061183610a26565b6001600160a01b03831660008181526003602052604090819020849055517f40ba4d5d9facd2fda74e22251d1638576e05a30482470363c7c87a7b5b298c099061065e9085815260200190565b60405180910390a2505050565b610673610a66565b61067d6000610ac0565b565b6000546001600160a01b03163314806106a257506001546001600160a01b031633145b15610715576106b082610a26565b6001600160a01b03821660008181526002602090815260409182902084518082558583015160019092018290558351908152918201527f1e0ca12706807bceff25136f95fe6f69c1319c044f6073e6056a287e4f541b1d910160405180910390a25050565b6040517f7d7b71b500000000000000000000000000000000000000000000000000000000815260040160405180910390fd5b6000546001600160a01b031633148061076a57506001546001600160a01b031633145b156107155761077881610a26565b6001600160a01b038116600081815260026020526040808220828155600101829055517fe9dce8c992623ce791725b21e857e33248d1f190a25b5168313420eebdaae99d9190a250565b50565b6001600160a01b03808216600090815260036020526040902060010154829161010090910416330361084c576107fa82610a26565b6001600160a01b0382166000818152600360205260408082206001908101805460ff19169091179055517f652f053fc39779b70b29678135ade972fcb79966fc68fcb77c996b1aa4fd9afb9190a25050565b6040517f97ffbac900000000000000000000000000000000000000000000000000000000815260040160405180910390fd5b610886610a66565b6001600160a01b0381166109075760405162461bcd60e51b815260206004820152602660248201527f4f776e61626c653a206e6577206f776e657220697320746865207a65726f206160448201527f646472657373000000000000000000000000000000000000000000000000000060648201526084015b60405180910390fd5b6107c281610ac0565b6000546001600160a01b031633148061093357506001546001600160a01b031633145b156107155761094183610a26565b61094a81610a26565b6040805160608082018352848252600060208084018281526001600160a01b038781168688018181528b831680875260038652898720985189559351600190980180549151909316610100027fffffffffffffffffffffff0000000000000000000000000000000000000000ff981515989098167fffffffffffffffffffffff000000000000000000000000000000000000000000909116179690961790558551888152918201929092529384019290925290917f9b1a157188de9a0bd2e7995d72aaba244d9bd012ddf3ae3d4f492135175070cb910161065e565b6001600160a01b0381166107c2576040517fd92e233d00000000000000000000000000000000000000000000000000000000815260040160405180910390fd5b6000546001600160a01b0316331461067d5760405162461bcd60e51b815260206004820181905260248201527f4f776e61626c653a2063616c6c6572206973206e6f7420746865206f776e657260448201526064016108fe565b600080546001600160a01b0383811673ffffffffffffffffffffffffffffffffffffffff19831681178455604051919092169283917f8be0079c531659141344cd1fd0a4f28419497f9722a3daafe3b4186f6b6457e09190a35050565b80356001600160a01b0381168114610b3457600080fd5b919050565b600060208284031215610b4b57600080fd5b610b5482610b1d565b9392505050565b60008060408385031215610b6e57600080fd5b610b7783610b1d565b9150610b8560208401610b1d565b90509250929050565b60008060408385031215610ba157600080fd5b610baa83610b1d565b946020939093013593505050565b6000808284036060811215610bcc57600080fd5b610bd584610b1d565b92506040601f1982011215610be957600080fd5b506040516040810181811067ffffffffffffffff82111715610c34577f4e487b7100000000000000000000000000000000000000000000000000000000600052604160045260246000fd5b60409081526020858101358352940135938101939093525092909150565b600080600060608486031215610c6757600080fd5b610c7084610b1d565b925060208401359150610c8560408501610b1d565b9050925092509256fea26469706673582212203da4f8924d6fb2adf7b801d2deece06270964c6cc788252ab17e7286d5dad30a64736f6c63430008130033","linkReferences":{}},"methodIdentifiers":{"activateStrategy(address)":"d80ea5a0","addStrategy(address,uint256,address)":"fc2ebdd1","addUserScore(address,(uint256,uint256))":"7814d568","canExecuteAction(address,address)":"42a987a0","changeListManager(address)":"3d476830","getStrategy(address)":"f8806a13","getUserScore(address)":"b34e0c47","listManager()":"8df8b2fe","modifyThreshold(address,uint256)":"642ce76b","owner()":"8da5cb5b","removeStrategy(address)":"175188e8","removeUser(address)":"98575188","renounceOwnership()":"715018a6","strategies(address)":"39ebf823","transferOwnership(address)":"f2fde38b","userScores(address)":"1413d4c0"},"storageLayout":{"storage":[{"astId":59267,"contract":"pkg/contracts/src/PassportScorer.sol:PassportScorer","label":"_owner","offset":0,"slot":"0","type":"t_address"},{"astId":80829,"contract":"pkg/contracts/src/PassportScorer.sol:PassportScorer","label":"listManager","offset":0,"slot":"1","type":"t_address"},{"astId":80834,"contract":"pkg/contracts/src/PassportScorer.sol:PassportScorer","label":"userScores","offset":0,"slot":"2","type":"t_mapping(t_address,t_struct(PassportData)80738_storage)"},{"astId":80839,"contract":"pkg/contracts/src/PassportScorer.sol:PassportScorer","label":"strategies","offset":0,"slot":"3","type":"t_mapping(t_address,t_struct(Strategy)80745_storage)"}],"types":{"t_address":{"encoding":"inplace","label":"address","numberOfBytes":"20"},"t_bool":{"encoding":"inplace","label":"bool","numberOfBytes":"1"},"t_mapping(t_address,t_struct(PassportData)80738_storage)":{"encoding":"mapping","key":"t_address","label":"mapping(address => struct PassportData)","numberOfBytes":"32","value":"t_struct(PassportData)80738_storage"},"t_mapping(t_address,t_struct(Strategy)80745_storage)":{"encoding":"mapping","key":"t_address","label":"mapping(address => struct Strategy)","numberOfBytes":"32","value":"t_struct(Strategy)80745_storage"},"t_struct(PassportData)80738_storage":{"encoding":"inplace","label":"struct PassportData","numberOfBytes":"64","members":[{"astId":80735,"contract":"pkg/contracts/src/PassportScorer.sol:PassportScorer","label":"score","offset":0,"slot":"0","type":"t_uint256"},{"astId":80737,"contract":"pkg/contracts/src/PassportScorer.sol:PassportScorer","label":"lastUpdated","offset":0,"slot":"1","type":"t_uint256"}]},"t_struct(Strategy)80745_storage":{"encoding":"inplace","label":"struct Strategy","numberOfBytes":"64","members":[{"astId":80740,"contract":"pkg/contracts/src/PassportScorer.sol:PassportScorer","label":"threshold","offset":0,"slot":"0","type":"t_uint256"},{"astId":80742,"contract":"pkg/contracts/src/PassportScorer.sol:PassportScorer","label":"active","offset":0,"slot":"1","type":"t_bool"},{"astId":80744,"contract":"pkg/contracts/src/PassportScorer.sol:PassportScorer","label":"councilSafe","offset":1,"slot":"1","type":"t_address"}]},"t_uint256":{"encoding":"inplace","label":"uint256","numberOfBytes":"32"}}},"id":136}