{"abi":[{"type":"function","name":"activateStrategy","inputs":[{"name":"_strategy","type":"address","internalType":"address"}],"outputs":[],"stateMutability":"nonpayable"},{"type":"function","name":"addStrategy","inputs":[{"name":"_strategy","type":"address","internalType":"address"},{"name":"_threshold","type":"uint256","internalType":"uint256"},{"name":"_councilSafe","type":"address","internalType":"address"}],"outputs":[],"stateMutability":"nonpayable"},{"type":"function","name":"addUserScore","inputs":[{"name":"_user","type":"address","internalType":"address"},{"name":"_score","type":"uint256","internalType":"uint256"}],"outputs":[],"stateMutability":"nonpayable"},{"type":"function","name":"canExecuteAction","inputs":[{"name":"_user","type":"address","internalType":"address"},{"name":"_strategy","type":"address","internalType":"address"}],"outputs":[{"name":"","type":"bool","internalType":"bool"}],"stateMutability":"view"},{"type":"function","name":"changeListManager","inputs":[{"name":"_newManager","type":"address","internalType":"address"}],"outputs":[],"stateMutability":"nonpayable"},{"type":"function","name":"initialize","inputs":[{"name":"_listManager","type":"address","internalType":"address"},{"name":"_owner","type":"address","internalType":"address"}],"outputs":[],"stateMutability":"nonpayable"},{"type":"function","name":"initialize","inputs":[{"name":"initialOwner","type":"address","internalType":"address"}],"outputs":[],"stateMutability":"nonpayable"},{"type":"function","name":"listManager","inputs":[],"outputs":[{"name":"","type":"address","internalType":"address"}],"stateMutability":"view"},{"type":"function","name":"modifyThreshold","inputs":[{"name":"_strategy","type":"address","internalType":"address"},{"name":"_newThreshold","type":"uint256","internalType":"uint256"}],"outputs":[],"stateMutability":"nonpayable"},{"type":"function","name":"owner","inputs":[],"outputs":[{"name":"","type":"address","internalType":"address"}],"stateMutability":"view"},{"type":"function","name":"proxiableUUID","inputs":[],"outputs":[{"name":"","type":"bytes32","internalType":"bytes32"}],"stateMutability":"view"},{"type":"function","name":"proxyOwner","inputs":[],"outputs":[{"name":"","type":"address","internalType":"address"}],"stateMutability":"view"},{"type":"function","name":"removeStrategy","inputs":[{"name":"_strategy","type":"address","internalType":"address"}],"outputs":[],"stateMutability":"nonpayable"},{"type":"function","name":"removeUser","inputs":[{"name":"_user","type":"address","internalType":"address"}],"outputs":[],"stateMutability":"nonpayable"},{"type":"function","name":"renounceOwnership","inputs":[],"outputs":[],"stateMutability":"nonpayable"},{"type":"function","name":"strategies","inputs":[{"name":"","type":"address","internalType":"address"}],"outputs":[{"name":"threshold","type":"uint256","internalType":"uint256"},{"name":"active","type":"bool","internalType":"bool"},{"name":"councilSafe","type":"address","internalType":"address"}],"stateMutability":"view"},{"type":"function","name":"transferOwnership","inputs":[{"name":"newOwner","type":"address","internalType":"address"}],"outputs":[],"stateMutability":"nonpayable"},{"type":"function","name":"upgradeTo","inputs":[{"name":"newImplementation","type":"address","internalType":"address"}],"outputs":[],"stateMutability":"nonpayable"},{"type":"function","name":"upgradeToAndCall","inputs":[{"name":"newImplementation","type":"address","internalType":"address"},{"name":"data","type":"bytes","internalType":"bytes"}],"outputs":[],"stateMutability":"payable"},{"type":"function","name":"userScores","inputs":[{"name":"","type":"address","internalType":"address"}],"outputs":[{"name":"","type":"uint256","internalType":"uint256"}],"stateMutability":"view"},{"type":"event","name":"AdminChanged","inputs":[{"name":"previousAdmin","type":"address","indexed":false,"internalType":"address"},{"name":"newAdmin","type":"address","indexed":false,"internalType":"address"}],"anonymous":false},{"type":"event","name":"BeaconUpgraded","inputs":[{"name":"beacon","type":"address","indexed":true,"internalType":"address"}],"anonymous":false},{"type":"event","name":"Initialized","inputs":[{"name":"version","type":"uint8","indexed":false,"internalType":"uint8"}],"anonymous":false},{"type":"event","name":"ListManagerChanged","inputs":[{"name":"oldManager","type":"address","indexed":true,"internalType":"address"},{"name":"newManager","type":"address","indexed":true,"internalType":"address"}],"anonymous":false},{"type":"event","name":"OwnershipTransferred","inputs":[{"name":"previousOwner","type":"address","indexed":true,"internalType":"address"},{"name":"newOwner","type":"address","indexed":true,"internalType":"address"}],"anonymous":false},{"type":"event","name":"StrategyActivated","inputs":[{"name":"strategy","type":"address","indexed":true,"internalType":"address"}],"anonymous":false},{"type":"event","name":"StrategyAdded","inputs":[{"name":"strategy","type":"address","indexed":true,"internalType":"address"},{"name":"threshold","type":"uint256","indexed":false,"internalType":"uint256"},{"name":"active","type":"bool","indexed":false,"internalType":"bool"},{"name":"councilSafe","type":"address","indexed":false,"internalType":"address"}],"anonymous":false},{"type":"event","name":"StrategyRemoved","inputs":[{"name":"strategy","type":"address","indexed":true,"internalType":"address"}],"anonymous":false},{"type":"event","name":"ThresholdModified","inputs":[{"name":"strategy","type":"address","indexed":true,"internalType":"address"},{"name":"newThreshold","type":"uint256","indexed":false,"internalType":"uint256"}],"anonymous":false},{"type":"event","name":"Upgraded","inputs":[{"name":"implementation","type":"address","indexed":true,"internalType":"address"}],"anonymous":false},{"type":"event","name":"UserRemoved","inputs":[{"name":"user","type":"address","indexed":true,"internalType":"address"}],"anonymous":false},{"type":"event","name":"UserScoreAdded","inputs":[{"name":"user","type":"address","indexed":true,"internalType":"address"},{"name":"score","type":"uint256","indexed":false,"internalType":"uint256"}],"anonymous":false},{"type":"error","name":"CallerNotOwner","inputs":[{"name":"_caller","type":"address","internalType":"address"},{"name":"_owner","type":"address","internalType":"address"}]},{"type":"error","name":"OnlyAuthorized","inputs":[]},{"type":"error","name":"OnlyAuthorizedOrUser","inputs":[]},{"type":"error","name":"OnlyCouncil","inputs":[]},{"type":"error","name":"OnlyCouncilOrAuthorized","inputs":[]},{"type":"error","name":"StrategyAlreadyExists","inputs":[]},{"type":"error","name":"ZeroAddress","inputs":[]}],"bytecode":{"object":"0x60a06040523060805234801561001457600080fd5b5060805161196d61004c6000396000818161054b01528181610594015281816108310152818161087101526108ed015261196d6000f3fe6080604052600436106100ef5760003560e01c8063025313a2146100f45780631413d4c014610126578063175188e8146101615780633659cfe61461018357806339ebf823146101a35780633d476830146101f957806342a987a014610219578063485cc955146102495780634f1ef2861461026957806352d1902d1461027c578063642ce76b14610291578063715018a6146102b15780638da5cb5b146102c65780638df8b2fe146102db57806398575188146102fb578063c4d66de81461031b578063d80ea5a01461033b578063f2fde38b1461035b578063fc2ebdd11461037b578063feec71451461039b575b600080fd5b34801561010057600080fd5b506101096103bb565b6040516001600160a01b0390911681526020015b60405180910390f35b34801561013257600080fd5b50610153610141366004611620565b60666020526000908152604090205481565b60405190815260200161011d565b34801561016d57600080fd5b5061018161017c366004611620565b6103d4565b005b34801561018f57600080fd5b5061018161019e366004611620565b610541565b3480156101af57600080fd5b506101ea6101be366004611620565b6067602052600090815260409020805460019091015460ff81169061010090046001600160a01b031683565b60405161011d9392919061163d565b34801561020557600080fd5b50610181610214366004611620565b610612565b34801561022557600080fd5b5061023961023436600461165c565b610675565b604051901515815260200161011d565b34801561025557600080fd5b5061018161026436600461165c565b6106e9565b6101816102773660046116ab565b610827565b34801561028857600080fd5b506101536108e0565b34801561029d57600080fd5b506101816102ac36600461176e565b61098e565b3480156102bd57600080fd5b50610181610ae2565b3480156102d257600080fd5b50610109610af6565b3480156102e757600080fd5b50606554610109906001600160a01b031681565b34801561030757600080fd5b50610181610316366004611620565b610b8b565b34801561032757600080fd5b50610181610336366004611620565b610c27565b34801561034757600080fd5b50610181610356366004611620565b610c9b565b34801561036757600080fd5b50610181610376366004611620565b610de6565b34801561038757600080fd5b5061018161039636600461179a565b610e53565b3480156103a757600080fd5b506101816103b636600461176e565b61106d565b60006103cf6033546001600160a01b031690565b905090565b806000816001600160a01b0316636003e4146040518163ffffffff1660e01b8152600401602060405180830381865afa158015610415573d6000803e3d6000fd5b505050506040513d601f19601f8201168201806040525081019061043991906117dc565b9050610443610af6565b6001600160a01b0316336001600160a01b0316148061046a5750336001600160a01b038316145b8061047d5750336001600160a01b038216145b8061049257506065546001600160a01b031633145b806104be57506001600160a01b0382811660009081526067602052604090206001015461010090041633145b15610523576104cc83611105565b6001600160a01b03831660008181526067602052604080822082815560010180546001600160a81b0319169055517f09a1db4b80c32706328728508c941a6b954f31eb5affd32f236c1fd405f8fea49190a2505050565b60405163e3b6914b60e01b815260040160405180910390fd5b505050565b6001600160a01b037f00000000000000000000000000000000000000000000000000000000000000001630036105925760405162461bcd60e51b8152600401610589906117f9565b60405180910390fd5b7f00000000000000000000000000000000000000000000000000000000000000006001600160a01b03166105c461112c565b6001600160a01b0316146105ea5760405162461bcd60e51b815260040161058990611833565b6105f381611148565b6040805160008082526020820190925261060f91839190611194565b50565b61061a6112ff565b61062381611105565b606580546001600160a01b038381166001600160a01b0319831681179093556040519116919082907f5117c6c457d7b27a4cb68df40b118f157ac1f1ba81f8a571d189f829d74fbc8690600090a35050565b6001600160a01b0380831660009081526066602090815260408083205485851684526067835281842082516060810184528154815260019091015460ff811615159482018590526101009004909516918501919091529192906106dd576001925050506106e3565b51111590505b92915050565b600054610100900460ff16158080156107095750600054600160ff909116105b8061072a57506107183061135e565b15801561072a575060005460ff166001145b61078d5760405162461bcd60e51b815260206004820152602e60248201527f496e697469616c697a61626c653a20636f6e747261637420697320616c72656160448201526d191e481a5b9a5d1a585b1a5e995960921b6064820152608401610589565b6000805460ff1916600117905580156107b0576000805461ff0019166101001790555b6107b982610c27565b6107c283611105565b606580546001600160a01b0319166001600160a01b038516179055801561053c576000805461ff0019169055604051600181527f7f26b83ff96e1f2b6a682f133852f6798a09c465da95921460cefb38474024989060200160405180910390a1505050565b6001600160a01b037f000000000000000000000000000000000000000000000000000000000000000016300361086f5760405162461bcd60e51b8152600401610589906117f9565b7f00000000000000000000000000000000000000000000000000000000000000006001600160a01b03166108a161112c565b6001600160a01b0316146108c75760405162461bcd60e51b815260040161058990611833565b6108d082611148565b6108dc82826001611194565b5050565b6000306001600160a01b037f0000000000000000000000000000000000000000000000000000000000000000161461097b5760405162461bcd60e51b815260206004820152603860248201527f555550535570677261646561626c653a206d757374206e6f742062652063616c6044820152771b1959081d1a1c9bdd59da0819195b1959d85d1958d85b1b60421b6064820152608401610589565b5060008051602061191a83398151915290565b816000816001600160a01b0316636003e4146040518163ffffffff1660e01b8152600401602060405180830381865afa1580156109cf573d6000803e3d6000fd5b505050506040513d601f19601f820116820180604052508101906109f391906117dc565b90506109fd610af6565b6001600160a01b0316336001600160a01b03161480610a245750336001600160a01b038316145b80610a375750336001600160a01b038216145b80610a4c57506065546001600160a01b031633145b80610a7857506001600160a01b0382811660009081526067602052604090206001015461010090041633145b1561052357610a8684611105565b6001600160a01b03841660008181526067602052604090819020859055517f40ba4d5d9facd2fda74e22251d1638576e05a30482470363c7c87a7b5b298c0990610ad39086815260200190565b60405180910390a25b50505050565b610aea6112ff565b610af4600061136d565b565b6000610b006103bb565b6001600160a01b03163b600003610b19576103cf6103bb565b610b216103bb565b6001600160a01b0316638da5cb5b6040518163ffffffff1660e01b8152600401602060405180830381865afa925050508015610b7a575060408051601f3d908101601f19168201909252610b77918101906117dc565b60015b610b86576103cf6103bb565b919050565b610b93610af6565b6001600160a01b0316336001600160a01b03161480610bbc57506065546001600160a01b031633145b15610c0e57610bca81611105565b6001600160a01b038116600081815260666020526040808220829055517fe9dce8c992623ce791725b21e857e33248d1f190a25b5168313420eebdaae99d9190a250565b604051637d7b71b560e01b815260040160405180910390fd5b600054610100900460ff16610c925760405162461bcd60e51b815260206004820152602b60248201527f496e697469616c697a61626c653a20636f6e7472616374206973206e6f74206960448201526a6e697469616c697a696e6760a81b6064820152608401610589565b61060f8161136d565b806000816001600160a01b0316636003e4146040518163ffffffff1660e01b8152600401602060405180830381865afa158015610cdc573d6000803e3d6000fd5b505050506040513d601f19601f82011682018060405250810190610d0091906117dc565b9050610d0a610af6565b6001600160a01b0316336001600160a01b03161480610d315750336001600160a01b038316145b80610d445750336001600160a01b038216145b80610d5957506065546001600160a01b031633145b80610d8557506001600160a01b0382811660009081526067602052604090206001015461010090041633145b1561052357610d9383611105565b6001600160a01b0383166000818152606760205260408082206001908101805460ff19169091179055517f652f053fc39779b70b29678135ade972fcb79966fc68fcb77c996b1aa4fd9afb9190a2505050565b610dee6112ff565b6001600160a01b038116610c925760405162461bcd60e51b815260206004820152602660248201527f4f776e61626c653a206e6577206f776e657220697320746865207a65726f206160448201526564647265737360d01b6064820152608401610589565b826000816001600160a01b0316636003e4146040518163ffffffff1660e01b8152600401602060405180830381865afa158015610e94573d6000803e3d6000fd5b505050506040513d601f19601f82011682018060405250810190610eb891906117dc565b9050610ec2610af6565b6001600160a01b0316336001600160a01b03161480610ee95750336001600160a01b038316145b80610efc5750336001600160a01b038216145b80610f1157506065546001600160a01b031633145b80610f3d57506001600160a01b0382811660009081526067602052604090206001015461010090041633145b1561052357610f4b85611105565b610f5483611105565b6001600160a01b038516600090815260676020526040902054151580610f9b57506001600160a01b0385811660009081526067602052604090206001015461010090041615155b15610fb95760405163c45546f760e01b815260040160405180910390fd5b60408051606081018252858152600060208083018281526001600160a01b038881168587019081528b821680865260679094528685209551865591516001909501805492516001600160a81b0319909316951515610100600160a81b03191695909517610100929091169190910217909255915190917f9b1a157188de9a0bd2e7995d72aaba244d9bd012ddf3ae3d4f492135175070cb9161105e918891889061163d565b60405180910390a25050505050565b611075610af6565b6001600160a01b0316336001600160a01b0316148061109e57506065546001600160a01b031633145b15610c0e576110ac82611105565b6001600160a01b03821660008181526066602052604090819020839055517f8b9ed475f52a60fa276f21d6848c06cbb59ebfcd26e8b8de2753c3e12a493ea7906110f99084815260200190565b60405180910390a25050565b6001600160a01b03811661060f5760405163d92e233d60e01b815260040160405180910390fd5b60008051602061191a833981519152546001600160a01b031690565b33611151610af6565b6001600160a01b03161461060f5733611168610af6565b60405163163678e960e01b81526001600160a01b03928316600482015291166024820152604401610589565b7f4910fdfa16fed3260ed0e7147f7cc6da11a60208b5b9406d12a635614ffd91435460ff16156111c75761053c836113bf565b826001600160a01b03166352d1902d6040518163ffffffff1660e01b8152600401602060405180830381865afa925050508015611221575060408051601f3d908101601f1916820190925261121e9181019061186d565b60015b6112845760405162461bcd60e51b815260206004820152602e60248201527f45524331393637557067726164653a206e657720696d706c656d656e7461746960448201526d6f6e206973206e6f74205555505360901b6064820152608401610589565b60008051602061191a83398151915281146112f35760405162461bcd60e51b815260206004820152602960248201527f45524331393637557067726164653a20756e737570706f727465642070726f786044820152681a58589b195555525160ba1b6064820152608401610589565b5061053c838383611459565b33611308610af6565b6001600160a01b031614610af45760405162461bcd60e51b815260206004820181905260248201527f4f776e61626c653a2063616c6c6572206973206e6f7420746865206f776e65726044820152606401610589565b6001600160a01b03163b151590565b603380546001600160a01b038381166001600160a01b0319831681179093556040519116919082907f8be0079c531659141344cd1fd0a4f28419497f9722a3daafe3b4186f6b6457e090600090a35050565b6113c88161135e565b61142a5760405162461bcd60e51b815260206004820152602d60248201527f455243313936373a206e657720696d706c656d656e746174696f6e206973206e60448201526c1bdd08184818dbdb9d1c9858dd609a1b6064820152608401610589565b60008051602061191a83398151915280546001600160a01b0319166001600160a01b0392909216919091179055565b6114628361147e565b60008251118061146f5750805b1561053c57610adc83836114be565b611487816113bf565b6040516001600160a01b038216907fbc7cd75a20ee27fd9adebab32041f755214dbc6bffa90cc0225b39da2e5c2d3b90600090a250565b60606114e3838360405180606001604052806027815260200161193a602791396114ea565b9392505050565b6060600080856001600160a01b03168560405161150791906118aa565b600060405180830381855af49150503d8060008114611542576040519150601f19603f3d011682016040523d82523d6000602084013e611547565b606091505b509150915061155886838387611562565b9695505050505050565b606083156115cf5782516000036115c85761157c8561135e565b6115c85760405162461bcd60e51b815260206004820152601d60248201527f416464726573733a2063616c6c20746f206e6f6e2d636f6e74726163740000006044820152606401610589565b50816115d9565b6115d983836115e1565b949350505050565b8151156115f15781518083602001fd5b8060405162461bcd60e51b815260040161058991906118c6565b6001600160a01b038116811461060f57600080fd5b60006020828403121561163257600080fd5b81356114e38161160b565b92835290151560208301526001600160a01b0316604082015260600190565b6000806040838503121561166f57600080fd5b823561167a8161160b565b9150602083013561168a8161160b565b809150509250929050565b634e487b7160e01b600052604160045260246000fd5b600080604083850312156116be57600080fd5b82356116c98161160b565b915060208301356001600160401b03808211156116e557600080fd5b818501915085601f8301126116f957600080fd5b81358181111561170b5761170b611695565b604051601f8201601f19908116603f0116810190838211818310171561173357611733611695565b8160405282815288602084870101111561174c57600080fd5b8260208601602083013760006020848301015280955050505050509250929050565b6000806040838503121561178157600080fd5b823561178c8161160b565b946020939093013593505050565b6000806000606084860312156117af57600080fd5b83356117ba8161160b565b92506020840135915060408401356117d18161160b565b809150509250925092565b6000602082840312156117ee57600080fd5b81516114e38161160b565b6020808252602c908201526000805160206118fa83398151915260408201526b19195b1959d85d1958d85b1b60a21b606082015260800190565b6020808252602c908201526000805160206118fa83398151915260408201526b6163746976652070726f787960a01b606082015260800190565b60006020828403121561187f57600080fd5b5051919050565b60005b838110156118a1578181015183820152602001611889565b50506000910152565b600082516118bc818460208701611886565b9190910192915050565b60208152600082518060208401526118e5816040850160208701611886565b601f01601f1916919091016040019291505056fe46756e6374696f6e206d7573742062652063616c6c6564207468726f75676820360894a13ba1a3210667c828492db98dca3e2076cc3735a920a3ca505d382bbc416464726573733a206c6f772d6c6576656c2064656c65676174652063616c6c206661696c6564a164736f6c6343000813000a","linkReferences":{}},"methodIdentifiers":{"activateStrategy(address)":"d80ea5a0","addStrategy(address,uint256,address)":"fc2ebdd1","addUserScore(address,uint256)":"feec7145","canExecuteAction(address,address)":"42a987a0","changeListManager(address)":"3d476830","initialize(address)":"c4d66de8","initialize(address,address)":"485cc955","listManager()":"8df8b2fe","modifyThreshold(address,uint256)":"642ce76b","owner()":"8da5cb5b","proxiableUUID()":"52d1902d","proxyOwner()":"025313a2","removeStrategy(address)":"175188e8","removeUser(address)":"98575188","renounceOwnership()":"715018a6","strategies(address)":"39ebf823","transferOwnership(address)":"f2fde38b","upgradeTo(address)":"3659cfe6","upgradeToAndCall(address,bytes)":"4f1ef286","userScores(address)":"1413d4c0"},"storageLayout":{"storage":[{"astId":52954,"contract":"pkg/contracts/src/PassportScorer.sol:PassportScorer","label":"_initialized","offset":0,"slot":"0","type":"t_uint8"},{"astId":52957,"contract":"pkg/contracts/src/PassportScorer.sol:PassportScorer","label":"_initializing","offset":1,"slot":"0","type":"t_bool"},{"astId":53659,"contract":"pkg/contracts/src/PassportScorer.sol:PassportScorer","label":"__gap","offset":0,"slot":"1","type":"t_array(t_uint256)50_storage"},{"astId":52746,"contract":"pkg/contracts/src/PassportScorer.sol:PassportScorer","label":"_owner","offset":0,"slot":"51","type":"t_address"},{"astId":52866,"contract":"pkg/contracts/src/PassportScorer.sol:PassportScorer","label":"__gap","offset":0,"slot":"52","type":"t_array(t_uint256)49_storage"},{"astId":80220,"contract":"pkg/contracts/src/PassportScorer.sol:PassportScorer","label":"listManager","offset":0,"slot":"101","type":"t_address"},{"astId":80224,"contract":"pkg/contracts/src/PassportScorer.sol:PassportScorer","label":"userScores","offset":0,"slot":"102","type":"t_mapping(t_address,t_uint256)"},{"astId":80229,"contract":"pkg/contracts/src/PassportScorer.sol:PassportScorer","label":"strategies","offset":0,"slot":"103","type":"t_mapping(t_address,t_struct(Strategy)80169_storage)"},{"astId":80667,"contract":"pkg/contracts/src/PassportScorer.sol:PassportScorer","label":"__gap","offset":0,"slot":"104","type":"t_array(t_uint256)50_storage"}],"types":{"t_address":{"encoding":"inplace","label":"address","numberOfBytes":"20"},"t_array(t_uint256)49_storage":{"encoding":"inplace","label":"uint256[49]","numberOfBytes":"1568","base":"t_uint256"},"t_array(t_uint256)50_storage":{"encoding":"inplace","label":"uint256[50]","numberOfBytes":"1600","base":"t_uint256"},"t_bool":{"encoding":"inplace","label":"bool","numberOfBytes":"1"},"t_mapping(t_address,t_struct(Strategy)80169_storage)":{"encoding":"mapping","key":"t_address","label":"mapping(address => struct Strategy)","numberOfBytes":"32","value":"t_struct(Strategy)80169_storage"},"t_mapping(t_address,t_uint256)":{"encoding":"mapping","key":"t_address","label":"mapping(address => uint256)","numberOfBytes":"32","value":"t_uint256"},"t_struct(Strategy)80169_storage":{"encoding":"inplace","label":"struct Strategy","numberOfBytes":"64","members":[{"astId":80164,"contract":"pkg/contracts/src/PassportScorer.sol:PassportScorer","label":"threshold","offset":0,"slot":"0","type":"t_uint256"},{"astId":80166,"contract":"pkg/contracts/src/PassportScorer.sol:PassportScorer","label":"active","offset":0,"slot":"1","type":"t_bool"},{"astId":80168,"contract":"pkg/contracts/src/PassportScorer.sol:PassportScorer","label":"councilSafe","offset":1,"slot":"1","type":"t_address"}]},"t_uint256":{"encoding":"inplace","label":"uint256","numberOfBytes":"32"},"t_uint8":{"encoding":"inplace","label":"uint8","numberOfBytes":"1"}}},"id":133}