{"abi":[{"type":"function","name":"activateStrategy","inputs":[{"name":"_strategy","type":"address","internalType":"address"}],"outputs":[],"stateMutability":"nonpayable"},{"type":"function","name":"addStrategy","inputs":[{"name":"_strategy","type":"address","internalType":"address"},{"name":"_threshold","type":"uint256","internalType":"uint256"},{"name":"_councilSafe","type":"address","internalType":"address"}],"outputs":[],"stateMutability":"nonpayable"},{"type":"function","name":"addUserScore","inputs":[{"name":"_user","type":"address","internalType":"address"},{"name":"_passportData","type":"tuple","internalType":"struct PassportData","components":[{"name":"score","type":"uint256","internalType":"uint256"},{"name":"lastUpdated","type":"uint256","internalType":"uint256"}]}],"outputs":[],"stateMutability":"nonpayable"},{"type":"function","name":"canExecuteAction","inputs":[{"name":"_user","type":"address","internalType":"address"},{"name":"_strategy","type":"address","internalType":"address"}],"outputs":[{"name":"","type":"bool","internalType":"bool"}],"stateMutability":"view"},{"type":"function","name":"changeListManager","inputs":[{"name":"_newManager","type":"address","internalType":"address"}],"outputs":[],"stateMutability":"nonpayable"},{"type":"function","name":"getStrategy","inputs":[{"name":"_strategy","type":"address","internalType":"address"}],"outputs":[{"name":"","type":"tuple","internalType":"struct Strategy","components":[{"name":"threshold","type":"uint256","internalType":"uint256"},{"name":"active","type":"bool","internalType":"bool"},{"name":"councilSafe","type":"address","internalType":"address"}]}],"stateMutability":"view"},{"type":"function","name":"getUserScore","inputs":[{"name":"_user","type":"address","internalType":"address"}],"outputs":[{"name":"","type":"tuple","internalType":"struct PassportData","components":[{"name":"score","type":"uint256","internalType":"uint256"},{"name":"lastUpdated","type":"uint256","internalType":"uint256"}]}],"stateMutability":"view"},{"type":"function","name":"initialize","inputs":[{"name":"_listManager","type":"address","internalType":"address"}],"outputs":[],"stateMutability":"nonpayable"},{"type":"function","name":"listManager","inputs":[],"outputs":[{"name":"","type":"address","internalType":"address"}],"stateMutability":"view"},{"type":"function","name":"modifyThreshold","inputs":[{"name":"_strategy","type":"address","internalType":"address"},{"name":"_newThreshold","type":"uint256","internalType":"uint256"}],"outputs":[],"stateMutability":"nonpayable"},{"type":"function","name":"owner","inputs":[],"outputs":[{"name":"","type":"address","internalType":"address"}],"stateMutability":"view"},{"type":"function","name":"proxiableUUID","inputs":[],"outputs":[{"name":"","type":"bytes32","internalType":"bytes32"}],"stateMutability":"view"},{"type":"function","name":"removeStrategy","inputs":[{"name":"_strategy","type":"address","internalType":"address"}],"outputs":[],"stateMutability":"nonpayable"},{"type":"function","name":"removeUser","inputs":[{"name":"_user","type":"address","internalType":"address"}],"outputs":[],"stateMutability":"nonpayable"},{"type":"function","name":"renounceOwnership","inputs":[],"outputs":[],"stateMutability":"nonpayable"},{"type":"function","name":"strategies","inputs":[{"name":"","type":"address","internalType":"address"}],"outputs":[{"name":"threshold","type":"uint256","internalType":"uint256"},{"name":"active","type":"bool","internalType":"bool"},{"name":"councilSafe","type":"address","internalType":"address"}],"stateMutability":"view"},{"type":"function","name":"transferOwnership","inputs":[{"name":"newOwner","type":"address","internalType":"address"}],"outputs":[],"stateMutability":"nonpayable"},{"type":"function","name":"upgradeTo","inputs":[{"name":"newImplementation","type":"address","internalType":"address"}],"outputs":[],"stateMutability":"nonpayable"},{"type":"function","name":"upgradeToAndCall","inputs":[{"name":"newImplementation","type":"address","internalType":"address"},{"name":"data","type":"bytes","internalType":"bytes"}],"outputs":[],"stateMutability":"payable"},{"type":"function","name":"userScores","inputs":[{"name":"","type":"address","internalType":"address"}],"outputs":[{"name":"score","type":"uint256","internalType":"uint256"},{"name":"lastUpdated","type":"uint256","internalType":"uint256"}],"stateMutability":"view"},{"type":"event","name":"AdminChanged","inputs":[{"name":"previousAdmin","type":"address","indexed":false,"internalType":"address"},{"name":"newAdmin","type":"address","indexed":false,"internalType":"address"}],"anonymous":false},{"type":"event","name":"BeaconUpgraded","inputs":[{"name":"beacon","type":"address","indexed":true,"internalType":"address"}],"anonymous":false},{"type":"event","name":"Initialized","inputs":[{"name":"version","type":"uint8","indexed":false,"internalType":"uint8"}],"anonymous":false},{"type":"event","name":"ListManagerChanged","inputs":[{"name":"oldManager","type":"address","indexed":true,"internalType":"address"},{"name":"newManager","type":"address","indexed":true,"internalType":"address"}],"anonymous":false},{"type":"event","name":"OwnershipTransferred","inputs":[{"name":"previousOwner","type":"address","indexed":true,"internalType":"address"},{"name":"newOwner","type":"address","indexed":true,"internalType":"address"}],"anonymous":false},{"type":"event","name":"StrategyActivated","inputs":[{"name":"strategy","type":"address","indexed":true,"internalType":"address"}],"anonymous":false},{"type":"event","name":"StrategyAdded","inputs":[{"name":"strategy","type":"address","indexed":true,"internalType":"address"},{"name":"threshold","type":"uint256","indexed":false,"internalType":"uint256"},{"name":"active","type":"bool","indexed":false,"internalType":"bool"},{"name":"councilSafe","type":"address","indexed":false,"internalType":"address"}],"anonymous":false},{"type":"event","name":"StrategyRemoved","inputs":[{"name":"strategy","type":"address","indexed":true,"internalType":"address"}],"anonymous":false},{"type":"event","name":"ThresholdModified","inputs":[{"name":"strategy","type":"address","indexed":true,"internalType":"address"},{"name":"newThreshold","type":"uint256","indexed":false,"internalType":"uint256"}],"anonymous":false},{"type":"event","name":"Upgraded","inputs":[{"name":"implementation","type":"address","indexed":true,"internalType":"address"}],"anonymous":false},{"type":"event","name":"UserRemoved","inputs":[{"name":"user","type":"address","indexed":true,"internalType":"address"}],"anonymous":false},{"type":"event","name":"UserScoreAdded","inputs":[{"name":"user","type":"address","indexed":true,"internalType":"address"},{"name":"score","type":"uint256","indexed":false,"internalType":"uint256"},{"name":"lastUpdated","type":"uint256","indexed":false,"internalType":"uint256"}],"anonymous":false},{"type":"error","name":"OnlyAuthorized","inputs":[]},{"type":"error","name":"OnlyCouncil","inputs":[]},{"type":"error","name":"OnlyCouncilOrAuthorized","inputs":[]},{"type":"error","name":"StrategyAlreadyExists","inputs":[]},{"type":"error","name":"ZeroAddress","inputs":[]}],"bytecode":{"object":"0x60a080604052346100315730608052611534908161003782396080518181816108c6015281816109e60152610d6b0152f35b600080fdfe608060408181526004908136101561001657600080fd5b600092833560e01c9081631413d4c014610fc557508063175188e814610f005780633659cfe614610d4557806339ebf82314610cef5780633d47683014610c7b57806342a987a014610c375780634f1ef2861461096e57806352d1902d146108b1578063642ce76b146107f0578063715018a6146107a25780637814d568146106d05780638da5cb5b146106a75780638df8b2fe1461067e57806398575188146105e4578063b34e0c471461057a578063c4d66de814610416578063d80ea5a01461037a578063f2fde38b146102e8578063f8806a13146102565763fc2ebdd11461010057600080fd5b3461025257606036600319011261025257610119611005565b6001600160a01b039260243592604435858116939192919084810361024e57866033541633148015610241575b15610231579061015f879261015a8361139b565b61139b565b16948587526067602052828720908154159182159261021e575b5050610210575091606091837f9b1a157188de9a0bd2e7995d72aaba244d9bd012ddf3ae3d4f492135175070cb94516101b181611051565b8381526020810190888252600183820191858352898b526067602052848b209051815501915115159060ff835491610100600160a81b03905160081b1692169060018060a81b031916171790558051928352866020840152820152a280f35b905163c45546f760e01b8152fd5b6001015460081c16151590503880610179565b8351637d7b71b560e01b81528390fd5b5086606554163314610146565b8780fd5b8280fd5b8382346102e45760203660031901126102e4579081606092610276611005565b928082805161028481611051565b828152826020820152015260018060a01b0380941681526067602052209181516102ad81611051565b60018454948583520154908284602083019260ff851615158452019260081c16825283519485525115156020850152511690820152f35b5080fd5b50903461025257602036600319011261025257610303611005565b9161030c6110aa565b6001600160a01b03831615610328578361032584611102565b80f35b906020608492519162461bcd60e51b8352820152602660248201527f4f776e61626c653a206e6577206f776e657220697320746865207a65726f206160448201526564647265737360d01b6064820152fd5b503461025257602036600319011261025257610394611005565b6001600160a01b038181168086526067602052838620600101549094913360089290921c16036104085750906103cb60019261139b565b8284526067602052832001805460ff191660011790557f652f053fc39779b70b29678135ade972fcb79966fc68fcb77c996b1aa4fd9afb8280a280f35b82516397ffbac960e01b8152fd5b50903461025257602036600319011261025257610431611005565b835460ff8160081c16159283809461056d575b8015610556575b156104fc575060ff1981166001178555826104eb575b5061047b60ff855460081c166104768161133b565b61133b565b61048433611102565b61048d8161139b565b606580546001600160a01b0319166001600160a01b03929092169190911790556104b5575080f35b60207f7f26b83ff96e1f2b6a682f133852f6798a09c465da95921460cefb38474024989161ff001984541684555160018152a180f35b61ffff191661010117845538610461565b608490602086519162461bcd60e51b8352820152602e60248201527f496e697469616c697a61626c653a20636f6e747261637420697320616c72656160448201526d191e481a5b9a5d1a585b1a5e995960921b6064820152fd5b50303b15801561044b5750600160ff83161461044b565b50600160ff831610610444565b8382346102e45760203660031901126102e4578091610597611005565b81602084516105a581611020565b82815201526001600160a01b0316815260666020522081516105c681611020565b60206001835493848452015491019081528251918252516020820152f35b509034610252576020366003190112610252576105ff611005565b6033546001600160a01b039290831633148015610671575b15610663575083918161062b60019361139b565b16928383526066602052822082815501557fe9dce8c992623ce791725b21e857e33248d1f190a25b5168313420eebdaae99d8280a280f35b8351637d7b71b560e01b8152fd5b5082606554163314610617565b8382346102e457816003193601126102e45760655490516001600160a01b039091168152602090f35b8382346102e457816003193601126102e45760335490516001600160a01b039091168152602090f35b5034610252576060366003190112610252576106ea611005565b8160231936011261079e5781519261070184611020565b60243584526020840191604435835260018060a01b0391826033541633148015610791575b1561078357507f1e0ca12706807bceff25136f95fe6f69c1319c044f6073e6056a287e4f541b1d9392918161075c60019361139b565b1694858752606660205283872090519283825551918291015582519182526020820152a280f35b8451637d7b71b560e01b8152fd5b5082606554163314610726565b8380fd5b83346107ed57806003193601126107ed576107bb6110aa565b603380546001600160a01b0319811690915581906001600160a01b031660008051602061149f8339815191528280a380f35b80fd5b50903461025257816003193601126102525761080a611005565b603354602435926001600160a01b0392918316331480156108a4575b8015610886575b15610878575091602091836108627f40ba4d5d9facd2fda74e22251d1638576e05a30482470363c7c87a7b5b298c099561139b565b169384865260678352818187205551908152a280f35b845163e3b6914b60e01b8152fd5b5082821686526067602052826001868820015460081c16331461082d565b5082606554163314610826565b5091346107ed57806003193601126107ed57507f00000000000000000000000000000000000000000000000000000000000000006001600160a01b0316300361090b576020825160008051602061147f8339815191528152f35b6020608492519162461bcd60e51b8352820152603860248201527f555550535570677261646561626c653a206d757374206e6f742062652063616c6044820152771b1959081d1a1c9bdd59da0819195b1959d85d1958d85b1b60421b6064820152fd5b508060031936011261025257610982611005565b90602435906001600160401b038211610c335736602383011215610c3357818401356109ad8161108f565b6109b98351918261106c565b81815286602094858301933660248284010111610252578060248893018637830101526001600160a01b037f0000000000000000000000000000000000000000000000000000000000000000811690610a1430831415611139565b610a3160008051602061147f833981519152928284541614611188565b610a396110aa565b60008051602061143f8339815191525460ff1615610a615750505050505061032591506111d7565b869293949596169085516352d1902d60e01b815287818a81865afa8a9181610c00575b50610ad157865162461bcd60e51b8152808a01899052602e60248201526000805160206114df83398151915260448201526d6f6e206973206e6f74205555505360901b6064820152608490fd5b979192939695949703610bab5750610ae8826111d7565b6000805160206114bf8339815191528780a285845115801590610ba3575b610b14575b50505050505080f35b80610b8d96845196610b2588611051565b602788527f416464726573733a206c6f772d6c6576656c2064656c65676174652063616c6c87890152660819985a5b195960ca1b868901525190845af4913d15610b99573d610b7f610b768261108f565b9251928361106c565b81528681943d92013e611267565b50388080808085610b0b565b5060609250611267565b506001610b06565b835162461bcd60e51b8152908101859052602960248201527f45524331393637557067726164653a20756e737570706f727465642070726f786044820152681a58589b195555525160ba1b6064820152608490fd5b9091508881813d8311610c2c575b610c18818361106c565b81010312610c2857519038610a84565b8a80fd5b503d610c0e565b8480fd5b8382346102e457806003193601126102e457610c51611005565b602435926001600160a01b03841684036107ed5750602092610c72916113bd565b90519015158152f35b83346107ed5760203660031901126107ed57610c95611005565b610c9d6110aa565b610ca68161139b565b606580546001600160a01b039283166001600160a01b0319821681179092559091167f5117c6c457d7b27a4cb68df40b118f157ac1f1ba81f8a571d189f829d74fbc868380a380f35b8382346102e45760203660031901126102e4576060916001600160a01b039190819083610d1a611005565b1681526067602052209160018354930154825193845260ff81161515602085015260081c1690820152f35b50346102525760208060031936011261079e57610d60611005565b916001600160a01b037f00000000000000000000000000000000000000000000000000000000000000008116610d9830821415611139565b610db560008051602061147f833981519152918383541614611188565b610dbd6110aa565b8251848101929091906001600160401b03841183851017610eed5783855288835260008051602061143f8339815191525460ff1615610e065750505050505061032591506111d7565b869293949596169085516352d1902d60e01b815287818a81865afa8a9181610ebe575b50610e7657865162461bcd60e51b8152808a01899052602e60248201526000805160206114df83398151915260448201526d6f6e206973206e6f74205555505360901b6064820152608490fd5b979192939695949703610bab5750610e8d826111d7565b6000805160206114bf8339815191528780a285845115801590610eb757610b145750505050505080f35b5080610b06565b9091508881813d8311610ee6575b610ed6818361106c565b81010312610c2857519038610e29565b503d610ecc565b634e487b7160e01b895260418852602489fd5b50903461025257602036600319011261025257610f1b611005565b6033546001600160a01b039290831633148015610fb8575b8015610f9a575b15610f8c57509081610f4c859361139b565b16808252606760205291812060018101805460ff19169055557f09a1db4b80c32706328728508c941a6b954f31eb5affd32f236c1fd405f8fea48280a280f35b835163e3b6914b60e01b8152fd5b5082821685526067602052826001858720015460081c163314610f3a565b5082606554163314610f33565b905083346107ed5760203660031901126107ed5782906001600160a01b03610feb611005565b168152606660205220600181549101549082526020820152f35b600435906001600160a01b038216820361101b57565b600080fd5b604081019081106001600160401b0382111761103b57604052565b634e487b7160e01b600052604160045260246000fd5b606081019081106001600160401b0382111761103b57604052565b601f909101601f19168101906001600160401b0382119082101761103b57604052565b6001600160401b03811161103b57601f01601f191660200190565b6033546001600160a01b031633036110be57565b606460405162461bcd60e51b815260206004820152602060248201527f4f776e61626c653a2063616c6c6572206973206e6f7420746865206f776e65726044820152fd5b603380546001600160a01b039283166001600160a01b03198216811790925590911660008051602061149f833981519152600080a3565b1561114057565b60405162461bcd60e51b815260206004820152602c602482015260008051602061145f83398151915260448201526b19195b1959d85d1958d85b1b60a21b6064820152608490fd5b1561118f57565b60405162461bcd60e51b815260206004820152602c602482015260008051602061145f83398151915260448201526b6163746976652070726f787960a01b6064820152608490fd5b803b1561120c5760008051602061147f83398151915280546001600160a01b0319166001600160a01b03909216919091179055565b60405162461bcd60e51b815260206004820152602d60248201527f455243313936373a206e657720696d706c656d656e746174696f6e206973206e60448201526c1bdd08184818dbdb9d1c9858dd609a1b6064820152608490fd5b919290156112c9575081511561127b575090565b3b156112845790565b60405162461bcd60e51b815260206004820152601d60248201527f416464726573733a2063616c6c20746f206e6f6e2d636f6e74726163740000006044820152606490fd5b8251909150156112dc5750805190602001fd5b6040519062461bcd60e51b82528160208060048301528251908160248401526000935b828510611322575050604492506000838284010152601f80199101168101030190fd5b84810182015186860160440152938101938593506112ff565b1561134257565b60405162461bcd60e51b815260206004820152602b60248201527f496e697469616c697a61626c653a20636f6e7472616374206973206e6f74206960448201526a6e697469616c697a696e6760a81b6064820152608490fd5b6001600160a01b0316156113ab57565b60405163d92e233d60e01b8152600490fd5b9060018060a01b038092166000526066602052816040600020916001604051936113e685611020565b805485520154602084015216600052606760205260406000209160405161140c81611051565b6040600185549586845201549260ff841615938415602085015260081c169101526114375751101590565b505060019056fe4910fdfa16fed3260ed0e7147f7cc6da11a60208b5b9406d12a635614ffd914346756e6374696f6e206d7573742062652063616c6c6564207468726f75676820360894a13ba1a3210667c828492db98dca3e2076cc3735a920a3ca505d382bbc8be0079c531659141344cd1fd0a4f28419497f9722a3daafe3b4186f6b6457e0bc7cd75a20ee27fd9adebab32041f755214dbc6bffa90cc0225b39da2e5c2d3b45524331393637557067726164653a206e657720696d706c656d656e74617469a2646970667358221220fc5b99a07f12d7af75d94d4972be64bcfd595b2425afc33fa578a5eeabe922c964736f6c63430008130033","linkReferences":{}},"methodIdentifiers":{"activateStrategy(address)":"d80ea5a0","addStrategy(address,uint256,address)":"fc2ebdd1","addUserScore(address,(uint256,uint256))":"7814d568","canExecuteAction(address,address)":"42a987a0","changeListManager(address)":"3d476830","getStrategy(address)":"f8806a13","getUserScore(address)":"b34e0c47","initialize(address)":"c4d66de8","listManager()":"8df8b2fe","modifyThreshold(address,uint256)":"642ce76b","owner()":"8da5cb5b","proxiableUUID()":"52d1902d","removeStrategy(address)":"175188e8","removeUser(address)":"98575188","renounceOwnership()":"715018a6","strategies(address)":"39ebf823","transferOwnership(address)":"f2fde38b","upgradeTo(address)":"3659cfe6","upgradeToAndCall(address,bytes)":"4f1ef286","userScores(address)":"1413d4c0"},"storageLayout":{"storage":[{"astId":52287,"contract":"pkg/contracts/src/PassportScorer.sol:PassportScorer","label":"_initialized","offset":0,"slot":"0","type":"t_uint8"},{"astId":52290,"contract":"pkg/contracts/src/PassportScorer.sol:PassportScorer","label":"_initializing","offset":1,"slot":"0","type":"t_bool"},{"astId":52992,"contract":"pkg/contracts/src/PassportScorer.sol:PassportScorer","label":"__gap","offset":0,"slot":"1","type":"t_array(t_uint256)50_storage"},{"astId":52079,"contract":"pkg/contracts/src/PassportScorer.sol:PassportScorer","label":"_owner","offset":0,"slot":"51","type":"t_address"},{"astId":52199,"contract":"pkg/contracts/src/PassportScorer.sol:PassportScorer","label":"__gap","offset":0,"slot":"52","type":"t_array(t_uint256)49_storage"},{"astId":69454,"contract":"pkg/contracts/src/PassportScorer.sol:PassportScorer","label":"listManager","offset":0,"slot":"101","type":"t_address"},{"astId":69459,"contract":"pkg/contracts/src/PassportScorer.sol:PassportScorer","label":"userScores","offset":0,"slot":"102","type":"t_mapping(t_address,t_struct(PassportData)69350_storage)"},{"astId":69464,"contract":"pkg/contracts/src/PassportScorer.sol:PassportScorer","label":"strategies","offset":0,"slot":"103","type":"t_mapping(t_address,t_struct(Strategy)69357_storage)"},{"astId":69927,"contract":"pkg/contracts/src/PassportScorer.sol:PassportScorer","label":"__gap","offset":0,"slot":"104","type":"t_array(t_uint256)50_storage"}],"types":{"t_address":{"encoding":"inplace","label":"address","numberOfBytes":"20"},"t_array(t_uint256)49_storage":{"encoding":"inplace","label":"uint256[49]","numberOfBytes":"1568","base":"t_uint256"},"t_array(t_uint256)50_storage":{"encoding":"inplace","label":"uint256[50]","numberOfBytes":"1600","base":"t_uint256"},"t_bool":{"encoding":"inplace","label":"bool","numberOfBytes":"1"},"t_mapping(t_address,t_struct(PassportData)69350_storage)":{"encoding":"mapping","key":"t_address","label":"mapping(address => struct PassportData)","numberOfBytes":"32","value":"t_struct(PassportData)69350_storage"},"t_mapping(t_address,t_struct(Strategy)69357_storage)":{"encoding":"mapping","key":"t_address","label":"mapping(address => struct Strategy)","numberOfBytes":"32","value":"t_struct(Strategy)69357_storage"},"t_struct(PassportData)69350_storage":{"encoding":"inplace","label":"struct PassportData","numberOfBytes":"64","members":[{"astId":69347,"contract":"pkg/contracts/src/PassportScorer.sol:PassportScorer","label":"score","offset":0,"slot":"0","type":"t_uint256"},{"astId":69349,"contract":"pkg/contracts/src/PassportScorer.sol:PassportScorer","label":"lastUpdated","offset":0,"slot":"1","type":"t_uint256"}]},"t_struct(Strategy)69357_storage":{"encoding":"inplace","label":"struct Strategy","numberOfBytes":"64","members":[{"astId":69352,"contract":"pkg/contracts/src/PassportScorer.sol:PassportScorer","label":"threshold","offset":0,"slot":"0","type":"t_uint256"},{"astId":69354,"contract":"pkg/contracts/src/PassportScorer.sol:PassportScorer","label":"active","offset":0,"slot":"1","type":"t_bool"},{"astId":69356,"contract":"pkg/contracts/src/PassportScorer.sol:PassportScorer","label":"councilSafe","offset":1,"slot":"1","type":"t_address"}]},"t_uint256":{"encoding":"inplace","label":"uint256","numberOfBytes":"32"},"t_uint8":{"encoding":"inplace","label":"uint8","numberOfBytes":"1"}}},"id":102}