{"abi":[{"type":"constructor","inputs":[],"stateMutability":"nonpayable"},{"type":"function","name":"adminFacet","inputs":[],"outputs":[{"name":"","type":"address","internalType":"contract CVAdminFacet"}],"stateMutability":"view"},{"type":"function","name":"allocationFacet","inputs":[],"outputs":[{"name":"","type":"address","internalType":"contract CVAllocationFacet"}],"stateMutability":"view"},{"type":"function","name":"configureFacets","inputs":[{"name":"strategy","type":"address","internalType":"address payable"}],"outputs":[],"stateMutability":"nonpayable"},{"type":"function","name":"diamondInit","inputs":[],"outputs":[{"name":"","type":"address","internalType":"contract CVStrategyDiamondInit"}],"stateMutability":"view"},{"type":"function","name":"disputeFacet","inputs":[],"outputs":[{"name":"","type":"address","internalType":"contract CVDisputeFacet"}],"stateMutability":"view"},{"type":"function","name":"getFacetCuts","inputs":[],"outputs":[{"name":"cuts","type":"tuple[]","internalType":"struct IDiamond.FacetCut[]","components":[{"name":"facetAddress","type":"address","internalType":"address"},{"name":"action","type":"uint8","internalType":"enum IDiamond.FacetCutAction"},{"name":"functionSelectors","type":"bytes4[]","internalType":"bytes4[]"}]}],"stateMutability":"view"},{"type":"function","name":"getFacetCuts","inputs":[{"name":"_adminFacet","type":"address","internalType":"contract CVAdminFacet"},{"name":"_allocationFacet","type":"address","internalType":"contract CVAllocationFacet"},{"name":"_disputeFacet","type":"address","internalType":"contract CVDisputeFacet"},{"name":"_pauseFacet","type":"address","internalType":"contract CVPauseFacet"},{"name":"_powerFacet","type":"address","internalType":"contract CVPowerFacet"},{"name":"_proposalFacet","type":"address","internalType":"contract CVProposalFacet"},{"name":"_syncPowerFacet","type":"address","internalType":"contract CVSyncPowerFacet"},{"name":"_streamingFacet","type":"address","internalType":"contract CVStreamingFacet"},{"name":"_loupeFacet","type":"address","internalType":"contract DiamondLoupeFacet"}],"outputs":[{"name":"cuts","type":"tuple[]","internalType":"struct IDiamond.FacetCut[]","components":[{"name":"facetAddress","type":"address","internalType":"address"},{"name":"action","type":"uint8","internalType":"enum IDiamond.FacetCutAction"},{"name":"functionSelectors","type":"bytes4[]","internalType":"bytes4[]"}]}],"stateMutability":"pure"},{"type":"function","name":"loupeFacet","inputs":[],"outputs":[{"name":"","type":"address","internalType":"contract DiamondLoupeFacet"}],"stateMutability":"view"},{"type":"function","name":"pauseFacet","inputs":[],"outputs":[{"name":"","type":"address","internalType":"contract CVPauseFacet"}],"stateMutability":"view"},{"type":"function","name":"powerFacet","inputs":[],"outputs":[{"name":"","type":"address","internalType":"contract CVPowerFacet"}],"stateMutability":"view"},{"type":"function","name":"proposalFacet","inputs":[],"outputs":[{"name":"","type":"address","internalType":"contract CVProposalFacet"}],"stateMutability":"view"},{"type":"function","name":"streamingFacet","inputs":[],"outputs":[{"name":"","type":"address","internalType":"contract CVStreamingFacet"}],"stateMutability":"view"},{"type":"function","name":"syncPowerFacet","inputs":[],"outputs":[{"name":"","type":"address","internalType":"contract CVSyncPowerFacet"}],"stateMutability":"view"}],"bytecode":{"object":"0x608060405234801562000010575f80fd5b506040516200001f90620002f0565b604051809103905ff08015801562000039573d5f803e3d5ffd5b505f80546001600160a01b0319166001600160a01b03929092169190911790556040516200006790620002fe565b604051809103905ff08015801562000081573d5f803e3d5ffd5b50600180546001600160a01b0319166001600160a01b0392909216919091179055604051620000b0906200030c565b604051809103905ff080158015620000ca573d5f803e3d5ffd5b50600280546001600160a01b0319166001600160a01b0392909216919091179055604051620000f9906200031a565b604051809103905ff08015801562000113573d5f803e3d5ffd5b50600380546001600160a01b0319166001600160a01b0392909216919091179055604051620001429062000328565b604051809103905ff0801580156200015c573d5f803e3d5ffd5b50600480546001600160a01b0319166001600160a01b03929092169190911790556040516200018b9062000336565b604051809103905ff080158015620001a5573d5f803e3d5ffd5b50600580546001600160a01b0319166001600160a01b0392909216919091179055604051620001d49062000344565b604051809103905ff080158015620001ee573d5f803e3d5ffd5b50600680546001600160a01b0319166001600160a01b03929092169190911790556040516200021d9062000352565b604051809103905ff08015801562000237573d5f803e3d5ffd5b50600780546001600160a01b0319166001600160a01b0392909216919091179055604051620002669062000360565b604051809103905ff08015801562000280573d5f803e3d5ffd5b50600880546001600160a01b0319166001600160a01b0392909216919091179055604051620002af906200036e565b604051809103905ff080158015620002c9573d5f803e3d5ffd5b50600980546001600160a01b0319166001600160a01b03929092169190911790556200037c565b613479806200196e83390190565b612d6d8062004de783390190565b611ff88062007b5483390190565b6116798062009b4c83390190565b6123c9806200b1c583390190565b6127f7806200d58e83390190565b611e51806200fd8583390190565b61323f8062011bd683390190565b6109aa8062014e1583390190565b61016280620157bf83390190565b6115e4806200038a5f395ff3fe608060405234801561000f575f80fd5b50600436106100ad575f3560e01c806309008b8f146100b1578063418264ec146100e157806367baf4b9146100f65780636957f9c714610109578063733713521461011c578063885ae90d146101315780639af9ce3514610144578063abb73ece14610157578063adaf157b1461016a578063c0a448191461017d578063cc86baf214610190578063de75cb4c146101a2578063e6ee1d4f146101b5575b5f80fd5b6006546100c4906001600160a01b031681565b6040516001600160a01b0390911681526020015b60405180910390f35b6100f46100ef366004611377565b6101c8565b005b6002546100c4906001600160a01b031681565b6004546100c4906001600160a01b031681565b610124610262565b6040516100d8919061146b565b6008546100c4906001600160a01b031681565b6001546100c4906001600160a01b031681565b61012461016536600461147d565b61036f565b6003546100c4906001600160a01b031681565b6007546100c4906001600160a01b031681565b5f546100c4906001600160a01b031681565b6005546100c4906001600160a01b031681565b6009546100c4906001600160a01b031681565b5f6101d1610262565b6009546040805160048082526024820183526020820180516001600160e01b03166370e39c9560e11b17905291516307e4c70760e21b81529394506001600160a01b0380871694631f931c1c946102319488949190931692909101611533565b5f604051808303815f87803b158015610248575f80fd5b505af115801561025a573d5f803e3d5ffd5b505050505050565b5f8054600154600254600354600454600554600654600754606098976102ac976001600160a01b039182169790821696908216959082169490821693908216929082169116610443565b6040805160098082526101408201909252919250816020015b6102cd611342565b8152602001906001900390816102c55750506008549092506102f7906001600160a01b03166111e1565b825f815181106103095761030961159e565b60200260200101819052505f5b600881101561036a578181815181106103315761033161159e565b60200260200101518382600161034791906115b2565b815181106103575761035761159e565b6020908102919091010152600101610316565b505090565b60605f6103828b8b8b8b8b8b8b8b610443565b6040805160098082526101408201909252919250816020015b6103a3611342565b81526020019060019003908161039b5790505091506103c1836111e1565b825f815181106103d3576103d361159e565b60200260200101819052505f5b6008811015610434578181815181106103fb576103fb61159e565b60200260200101518382600161041191906115b2565b815181106104215761042161159e565b60209081029190910101526001016103e0565b50509998505050505050505050565b6040805160088082526101208201909252606091816020015b610464611342565b81526020019060019003908161045c57505060408051600580825260c082019092529192505f91906020820160a0803683370190505090507fd5b7cc5477646ba2eff798b38fe125dd78fcf0a1dd2cdee1ad50845f1e104935815f815181106104cf576104cf61159e565b60200260200101906001600160e01b03191690816001600160e01b031916815250507fc6cdc980e146acee1c994d0dc203950941306a31f1b4630d4f25264f91f73c1e816001815181106105255761052561159e565b6001600160e01b031990921660209283029190910190910152805163249399c160e21b908290600290811061055c5761055c61159e565b6001600160e01b03199092166020928302919091019091015280516331a49c7b60e21b90829060039081106105935761059361159e565b6001600160e01b031990921660209283029190910190910152805163170aba0d60e01b90829060049081106105ca576105ca61159e565b6001600160e01b031990921660209283029190910182015260408051606081019091526001600160a01b038c1681529081016003815260200182815250825f815181106106195761061961159e565b6020908102919091010152604080516003808252608082019092525f9181602001602082028036833701905050905063ef2920fc60e01b815f815181106106625761066261159e565b6001600160e01b0319909216602092830291909101909101528051630a6f0ee960e01b90829060019081106106995761069961159e565b6001600160e01b031990921660209283029190910190910152805163255a5d2160e11b90829060029081106106d0576106d061159e565b6001600160e01b031990921660209283029190910182015260408051606081019091526001600160a01b038c1681529081016003815260200182815250836001815181106107205761072061159e565b6020908102919091010152604080516002808252606082019092525f9181602001602082028036833701905050905063b41596ec60e01b815f815181106107695761076961159e565b6001600160e01b031990921660209283029190910190910152805163188d362b60e11b90829060019081106107a0576107a061159e565b6001600160e01b031990921660209283029190910182015260408051606081019091526001600160a01b038c1681529081016003815260200182815250846002815181106107f0576107f061159e565b602090810291909101015260408051600c8082526101a082019092525f918160200160208202803683370190505090507f1add1a0d4d03169e8ec0a116281d1f7c89f5781c3796453f8f63dd648072e765815f815181106108535761085361159e565b60200260200101906001600160e01b03191690816001600160e01b031916815250507f222a3a04258763d458c9bd5071b4bf1d209adc0035f7966e5ad03025ce538289816001815181106108a9576108a961159e565b60200260200101906001600160e01b03191690816001600160e01b031916815250507fadaf157bf97835d4a2260e8aa3db27d90d26d5c060bf7be24a2ed22861ccfdcd816002815181106108ff576108ff61159e565b60200260200101906001600160e01b03191690816001600160e01b031916815250507f60b47789bac9db9195da3fda1046edf068224676c35db4eb2049de15e329fa3d816003815181106109555761095561159e565b60200260200101906001600160e01b03191690816001600160e01b031916815250507f136439dd367a2279ad5b98410f8653eaedd33f0a9a15a74a0fa7d27dbb7b778b816004815181106109ab576109ab61159e565b60200260200101906001600160e01b03191690816001600160e01b031916815250507f80c4a65f59494a972ba9681bc47673c7d11650c13455a9813470547dbf7f0d4581600581518110610a0157610a0161159e565b60200260200101906001600160e01b03191690816001600160e01b031916815250507f3f4ba83af89dc9793996d9e56b8abe6dc88cd97c9c2bb23027806e9c1ffd54dc81600681518110610a5757610a5761159e565b60200260200101906001600160e01b03191690816001600160e01b031916815250507fbac1e94bf55c1608db703b6a61d8764a9b2842ab909b6a1bfe747839bc3fad5b81600781518110610aad57610aad61159e565b60200260200101906001600160e01b03191690816001600160e01b031916815250507fb187bd2625dabf471d1f3bd50a44225753699aa87d046d3b53bf00dfebd06f9481600881518110610b0357610b0361159e565b60200260200101906001600160e01b03191690816001600160e01b031916815250507f09b65e66ee64f35f65a3f1940983e8b35d36214ded049052e01ba06eb6d51db781600981518110610b5957610b5961159e565b60200260200101906001600160e01b03191690816001600160e01b031916815250507fda748b10ab7e0cf81ee5adb800ea3a8dd117fcb279016b578860d4a9aab9e3c781600a81518110610baf57610baf61159e565b60200260200101906001600160e01b03191690816001600160e01b031916815250507f2d2ebbefa358ba5f1faaae700a239b2efde3d4ad4cca20896c3424c13ce88aea81600b81518110610c0557610c0561159e565b6001600160e01b031990921660209283029190910182015260408051606081019091526001600160a01b038c168152908101600381526020018281525085600381518110610c5557610c5561159e565b602090810291909101015260408051600580825260c082019092525f9181602001602082028036833701905050905063814516ad60e01b815f81518110610c9e57610c9e61159e565b6001600160e01b031990921660209283029190910190910152805163782aadff60e01b9082906001908110610cd557610cd561159e565b6001600160e01b0319909216602092830291909101909101528051632ed04b2b60e01b9082906002908110610d0c57610d0c61159e565b60200260200101906001600160e01b03191690816001600160e01b031916815250507f1ddf1e23b51bc7a7165a67b0f42f2f2e882b7022e2a8ecc9083fc92e15add1e881600381518110610d6257610d6261159e565b60200260200101906001600160e01b03191690816001600160e01b031916815250507f6453d9c4c15f1825d53790288240ec100721313350b1dd99d1ee352d534d1f7181600481518110610db857610db861159e565b6001600160e01b031990921660209283029190910182015260408051606081019091526001600160a01b038c168152908101600381526020018281525086600481518110610e0857610e0861159e565b6020908102919091010152604080516003808252608082019092525f91816020016020820280368337019050509050632bbe0cae60e01b815f81518110610e5157610e5161159e565b6001600160e01b031990921660209283029190910190910152805163e0a8f6f560e01b9082906001908110610e8857610e8861159e565b6001600160e01b0319909216602092830291909101909101528051630283c76760e31b9082906002908110610ebf57610ebf61159e565b6001600160e01b031990921660209283029190910182015260408051606081019091526001600160a01b038c168152908101600381526020018281525087600581518110610f0f57610f0f61159e565b602090810291909101015260408051600480825260a082019092525f91816020016020820280368337019050509050633eadbd0f60e01b815f81518110610f5857610f5861159e565b6001600160e01b03199092166020928302919091019091015280516301cf086960e01b9082906001908110610f8f57610f8f61159e565b6001600160e01b03199092166020928302919091019091015280516327c021e760e21b9082906002908110610fc657610fc661159e565b6001600160e01b031990921660209283029190910190910152805163c5aab6ed60e01b9082906003908110610ffd57610ffd61159e565b6001600160e01b031990921660209283029190910182015260408051606081019091526001600160a01b038c16815290810160038152602001828152508860068151811061104d5761104d61159e565b602090810291909101015260408051600580825260c082019092525f91816020016020820280368337019050509050637d7c2a1c60e01b815f815181106110965761109661159e565b6001600160e01b03199092166020928302919091019091015280516329d1eb1760e11b90829060019081106110cd576110cd61159e565b6001600160e01b031990921660209283029190910190910152805163736dcb8b60e01b90829060029081106111045761110461159e565b6001600160e01b031990921660209283029190910190910152805163e0ab98b560e01b908290600390811061113b5761113b61159e565b6001600160e01b0319909216602092830291909101909101528051630fa815f360e31b90829060049081106111725761117261159e565b6001600160e01b031990921660209283029190910182015260408051606081019091526001600160a01b038c1681529081016003815260200182815250896007815181106111c2576111c261159e565b6020026020010181905250505050505050505098975050505050505050565b6111e9611342565b60408051600580825260c082019092525f916020820160a080368337019050509050637a0ed62760e01b815f815181106112255761122561159e565b6001600160e01b03199092166020928302919091019091015280516356fe50af60e11b908290600190811061125c5761125c61159e565b6001600160e01b03199092166020928302919091019091015280516314bbdacb60e21b90829060029081106112935761129361159e565b6001600160e01b03199092166020928302919091019091015280516366ffd66360e11b90829060039081106112ca576112ca61159e565b6001600160e01b03199092166020928302919091019091015280516301ffc9a760e01b90829060049081106113015761130161159e565b6001600160e01b031992909216602092830291909101820152604080516060810182526001600160a01b039590951685526003918501919091528301525090565b60408051606080820183525f80835260208301529181019190915290565b6001600160a01b0381168114611374575f80fd5b50565b5f60208284031215611387575f80fd5b813561139281611360565b9392505050565b5f82825180855260208086019550808260051b8401018186015f5b8481101561145e57858303601f19018952815180516001600160a01b03168452848101516060908186019060048082106113fb57634e487b7160e01b5f526021815260245ffd5b5086880152604092830151928601919091528151908190529085019060808501905f905b808210156114495783516001600160e01b031916835292870192918701916001919091019061141f565b505099850199935050908301906001016113b4565b5090979650505050505050565b602081525f6113926020830184611399565b5f805f805f805f805f6101208a8c031215611496575f80fd5b89356114a181611360565b985060208a01356114b181611360565b975060408a01356114c181611360565b965060608a01356114d181611360565b955060808a01356114e181611360565b945060a08a01356114f181611360565b935060c08a013561150181611360565b925060e08a013561151181611360565b91506101008a013561152281611360565b809150509295985092959850929598565b606081525f6115456060830186611399565b6001600160a01b038516602084810191909152838203604085015284518083525f5b81811015611582578681018301518482018401528201611567565b505f838201830152601f01601f19169091010195945050505050565b634e487b7160e01b5f52603260045260245ffd5b808201808211156115d157634e487b7160e01b5f52601160045260245ffd5b9291505056fea164736f6c6343000817000a608060405234801561000f575f80fd5b5061345c8061001d5f395ff3fe608060405234801561000f575f80fd5b5060043610610202575f3560e01c806305caa7f3146102065780630bece79c1461022f5780630c0512e914610242578063125fd1d9146102595780631374b22d14610262578063170aba0d146102855780631b36f56f1461029a5780632506b870146102ad578063255ffb38146102d35780632cea13f9146102f25780632dbd6fdd146102fa5780633396045914610319578063351d9f961461032257806341bb76051461033c5780634ab4ba42146103c35780634c3ceb5b146103cb5780634d33f6c9146103d357806353ca476c146103f25780635db64b99146104055780636003e4141461042457806360b0645a14610437578063626c47e81461044a57806376e430991461045257806380fd91cd1461045b578063817b1cd21461046e578063868c57b8146104775780638dc830941461048a578063914bdef0146103cb578063924e67041461049257806394573cbb146104a5578063962896f6146104ae578063a28889e1146104bb578063a47ff7e5146104e6578063aba9ffee146104f0578063b04b5b26146104f9578063b3de272d1461050c578063b6c61f3114610514578063c69271ec14610527578063c6cdc9801461053a578063cf7ae90c1461054d578063d5b7cc541461055a578063dfe9ec58146103cb578063ee50ee1b1461056d578063f5be3f7c14610575575b5f80fd5b608054610219906001600160a01b031681565b6040516102269190612aa7565b60405180910390f35b607954610219906001600160a01b031681565b61024b606e5481565b604051908152602001610226565b61024b606f5481565b610275610270366004612abb565b61057e565b6040519015158152602001610226565b610298610293366004612ae6565b6105b8565b005b608154610219906001600160a01b031681565b6072546073546074546075546102c39392919084565b6040516102269493929190612b01565b61024b6102e1366004612abb565b607e6020525f908152604090205481565b61024b61076a565b60765461030c90610100900460ff1681565b6040516102269190612b30565b61024b606c5481565b60765461032f9060ff1681565b6040516102269190612b4a565b61038b61034a366004612abb565b607f6020525f90815260409020805460018201546002830154600384015460048501546005909501546001600160a01b039485169593909416939192909186565b604080516001600160a01b039788168152969095166020870152938501929092526060840152608083015260a082015260c001610226565b61024b610779565b61024b608081565b61024b6103e1366004612abb565b60876020525f908152604090205481565b61024b610400366004612abb565b610968565b61024b610413366004612ae6565b607c6020525f908152604090205481565b607854610219906001600160a01b031681565b61024b610445366004612abb565b610987565b61024b600381565b61024b60845481565b608354610219906001600160a01b031681565b61024b60705481565b61024b610485366004612b5e565b610a4b565b610275610a76565b6102986104a0366004612ae6565b610b72565b61024b60825481565b6085546102759060ff1681565b606d546104ce906001600160401b031681565b6040516001600160401b039091168152602001610226565b60775461024b9081565b61024b60715481565b610219610507366004612abb565b610c8e565b61024b610cb3565b607a54610219906001600160a01b031681565b610298610535366004612ae6565b610cc5565b610298610548366004612d68565b610de1565b6088546102759060ff1681565b610298610568366004612e15565b610df9565b61024b604081565b61024b611c2081565b5f818152607b6020526040812054158015906105b257505f828152607b60205260409020600501546001600160a01b031615155b92915050565b6105c0610e12565b6001600160a01b038116158015906105e657506078546001600160a01b03828116911614155b156106f15760785f9054906101000a90046001600160a01b03166001600160a01b031663f86c5f896040518163ffffffff1660e01b8152600401602060405180830381865afa15801561063b573d5f803e3d5ffd5b505050506040513d601f19601f8201168201806040525081019061065f9190612eb7565b6001600160a01b031663f9f6b49b826040518263ffffffff1660e01b815260040161068a9190612aa7565b602060405180830381865afa1580156106a5573d5f803e3d5ffd5b505050506040513d601f19601f820116820180604052508101906106c99190612ed2565b6106f1578060405163ae0c99c960e01b81526004016106e89190612aa7565b60405180910390fd5b6083546001600160a01b039081169082161561070d578161071a565b6078546001600160a01b03165b608380546001600160a01b0319166001600160a01b0392831690811790915560405190918316907f1981fd89ad8ceb1dd198076a6d55e3941de3f0a67d930c89acf759b4e7ffc792905f90a35050565b5f610773610f56565b54919050565b60655460685460405163068bcd8d60e01b81525f9283926001600160a01b039091169163068bcd8d916107b29160040190815260200190565b5f60405180830381865afa1580156107cc573d5f803e3d5ffd5b505050506040513d5f823e601f3d908101601f191682016040526107f39190810190612f5f565b60400151905073eeeeeeeeeeeeeeeeeeeeeeeeeeeeeeeeeeeeeeed196001600160a01b03821601610825574791505090565b6040516370a0823160e01b81525f906001600160a01b038316906370a0823190610853903090600401612aa7565b602060405180830381865afa15801561086e573d5f803e3d5ffd5b505050506040513d601f19601f820116820180604052508101906108929190613054565b6080549091506001600160a01b03908116908316036108b15792915050565b6080545f906001600160a01b031615610938576080546040516370a0823160e01b81526001600160a01b03909116906370a08231906108f4903090600401612aa7565b602060405180830381865afa15801561090f573d5f803e3d5ffd5b505050506040513d601f19601f820116820180604052508101906109339190613054565b61093a565b5f5b60805490915061095690829085906001600160a01b0316610f7a565b610960908361307f565b935050505090565b60868181548110610977575f80fd5b5f91825260209091200154905081565b5f818152607b6020526040812061099c610a76565b6109aa576003015492915050565b73__$f1b7c69ba751c396eddc93d3bbc5414fd9$__63010dfe648260070154436109d49190613092565b600384015460028501546074546040516001600160e01b031960e087901b168152610a059493929190600401612b01565b602060405180830381865af4158015610a20573d5f803e3d5ffd5b505050506040513d601f19601f82011682018060405250810190610a449190613054565b9392505050565b607d602052815f5260405f208181548110610a64575f80fd5b905f5260205f20015f91509150505481565b6078545f906001600160a01b0316610a8e5750600190565b6078546040515f9182916001600160a01b0390911690633a871fe160e01b90610abb903090602401612aa7565b60408051601f198184030181529181526020820180516001600160e01b03166001600160e01b0319909416939093179092529051610af991906130a5565b5f60405180830381855afa9150503d805f8114610b31576040519150601f19603f3d011682016040523d82523d5f602084013e610b36565b606091505b5091509150811580610b49575060208151105b15610b575760019250505090565b80806020019051810190610b6b9190612ed2565b9250505090565b610b7a610f8e565b6080545f906001600160a01b0316610c0b5760655460685460405163068bcd8d60e01b81526001600160a01b039092169163068bcd8d91610bc19160040190815260200190565b5f60405180830381865afa158015610bdb573d5f803e3d5ffd5b505050506040513d5f823e601f3d908101601f19168201604052610c029190810190612f5f565b60400151610c18565b6080546001600160a01b03165b90505f610c2e6001600160a01b038316846110b4565b905080610c5457828233604051639bd2355f60e01b81526004016106e8939291906130c0565b60405133906001600160a01b038516907f1f9d364ce9d858d45443edba44a22a2f561d96a90f9772e2457056f4ed98ed0f905f90a3505050565b5f610c97610f56565b5f9283526002016020525060409020546001600160a01b031690565b5f610cbc610f56565b60010154905090565b610ccd610f8e565b6080545f906001600160a01b0316610d5e5760655460685460405163068bcd8d60e01b81526001600160a01b039092169163068bcd8d91610d149160040190815260200190565b5f60405180830381865afa158015610d2e573d5f803e3d5ffd5b505050506040513d5f823e601f3d908101601f19168201604052610d559190810190612f5f565b60400151610d6b565b6080546001600160a01b03165b90505f610d816001600160a01b038316846110d0565b905080610da757828233604051633746bbff60e01b81526004016106e8939291906130c0565b60405133906001600160a01b038516907f5ae956f5060a976a6df3810c70d24e4d7b6987e1bfc9b1be2c9e43adfea8f301905f90a3505050565b610df0878787878787876110ec565b50505050505050565b610e0a8686868686866082546110ec565b505050505050565b60785f9054906101000a90046001600160a01b03166001600160a01b0316636c53db9a6040518163ffffffff1660e01b8152600401602060405180830381865afa158015610e62573d5f803e3d5ffd5b505050506040513d601f19601f82011682018060405250810190610e869190612eb7565b6001600160a01b0316336001600160a01b031614158015610ec05750610eaa61126e565b6001600160a01b0316336001600160a01b031614155b15610f545760785460408051633629edcd60e11b8152905133926001600160a01b031691636c53db9a9160048083019260209291908290030181865afa158015610f0c573d5f803e3d5ffd5b505050506040513d601f19601f82011682018060405250810190610f309190612eb7565b610f3861126e565b60405163e1b9c46960e01b81526004016106e8939291906130c0565b565b7fd5d05b1f29dcb0c0e1698b0261850eb784d1243215a6aa22ea2b8128b2e9497c90565b5f610f8684848461131c565b949350505050565b60785f9054906101000a90046001600160a01b03166001600160a01b0316636c53db9a6040518163ffffffff1660e01b8152600401602060405180830381865afa158015610fde573d5f803e3d5ffd5b505050506040513d601f19601f820116820180604052508101906110029190612eb7565b6001600160a01b0316336001600160a01b031614158015611029575061102733611374565b155b15610f545760785460408051633629edcd60e11b8152905133926001600160a01b031691636c53db9a9160048083019260209291908290030181865afa158015611075573d5f803e3d5ffd5b505050506040513d601f19601f820116820180604052508101906110999190612eb7565b604051637d19bac760e11b81526004016106e89291906130e3565b604080515f80825260208201909252610a44908490849061157c565b604080515f80825260208201909252610a44908490849061169a565b6110f4610e12565b6080546001600160a01b0316600260765460ff16600281111561111957611119612b1c565b1480156111385750826001600160a01b0316816001600160a01b031614155b1561114f576111456116e2565b61114f818461177c565b608080546001600160a01b0319166001600160a01b03851617905560828290556040517fd386b229b28c71d6819c5b8cd43d22f3b28607ab0ac101e82c783e1addb5e01f9061119f908590612aa7565b60405180910390a16040518281527f9e46b8f53ea529c8210c9eda30480e67394c3b2e6521eb996586137573314a749060200160405180910390a16111e688888787611b3f565b607a546001600160a01b0316158015906111ff57505f86115b1561126457607a5460405163642ce76b60e01b81526001600160a01b039091169063642ce76b906112369030908a906004016130fd565b5f604051808303815f87803b15801561124d575f80fd5b505af115801561125f573d5f803e3d5ffd5b505050505b5050505050505050565b5f806112826033546001600160a01b031690565b9050806001600160a01b03163b5f0361129a57919050565b806001600160a01b0316638da5cb5b6040518163ffffffff1660e01b8152600401602060405180830381865afa9250505080156112f4575060408051601f3d908101601f191682019092526112f191810190612eb7565b60015b6112fd57919050565b6001600160a01b038116156113125780610b6b565b50919050565b5090565b5f83158061133157506001600160a01b038216155b8061134d5750816001600160a01b0316836001600160a01b0316145b15611359575082610a44565b610f868461136684611fe0565b61136f86611fe0565b612047565b607a545f906001600160a01b0316156113f857607a546040516302154c3d60e51b81526001600160a01b03909116906342a987a0906113b990859030906004016130e3565b602060405180830381865afa1580156113d4573d5f803e3d5ffd5b505050506040513d601f19601f820116820180604052508101906105b29190612ed2565b6004607654610100900460ff16600481111561141657611416612b1c565b14801561143457506078546083546001600160a01b03908116911614155b156114695760835460405163288c314960e21b81526001600160a01b039091169063a230c524906113b9908590600401612aa7565b5f60685460405160200161147d9190613116565b60408051601f19818403018152908290528051602090910120607854632474521560e21b83529092506001600160a01b0316906391d14854906114c69084905f90600401613133565b602060405180830381865afa1580156114e1573d5f803e3d5ffd5b505050506040513d601f19601f820116820180604052508101906115059190612ed2565b80610a445750607854604051632474521560e21b81526001600160a01b03909116906391d148549061153d9084908790600401613133565b602060405180830381865afa158015611558573d5f803e3d5ffd5b505050506040513d601f19601f82011682018060405250810190610a449190612ed2565b5f805f611588866120b9565b91509150816001600160a01b03166339255d5b82836001600160a01b031663f0b7b915895f6001600160401b038111156115c4576115c4612b88565b6040519080825280601f01601f1916602001820160405280156115ee576020820181803683370190505b50604051602401611600929190613175565b60408051808303601f1901815291815260208201805160e094851b6001600160e01b03909116179052519185901b6001600160e01b031916825261164b939250908990600401613198565b5f604051808303815f875af1158015611666573d5f803e3d5ffd5b505050506040513d5f823e601f3d908101601f1916820160405261168d91908101906131d7565b5060019695505050505050565b5f805f6116a6866120b9565b91509150816001600160a01b03166339255d5b82836001600160a01b03166330925b79895f6001600160401b038111156115c4576115c4612b88565b6116ea612230565b6084545f036116f557565b60015b606e548111611760575f818152607b6020526040902080541580159061172c5750600881015461172a9060ff166122ae565b155b1561174d57604051639b74c3bb60e01b8152600481018390526024016106e8565b50806117588161321b565b9150506116f8565b50604051639b74c3bb60e01b81525f60048201526024016106e8565b6001600160a01b038216158061179957506001600160a01b038116155b806117b55750806001600160a01b0316826001600160a01b0316145b156117be575050565b6040516370a0823160e01b81525f906001600160a01b038416906370a08231906117ec903090600401612aa7565b602060405180830381865afa158015611807573d5f803e3d5ffd5b505050506040513d601f19601f8201168201806040525081019061182b9190613054565b9050805f0361183957505050565b6040516308de640f60e11b8152600481018290526001600160a01b038416906311bcc81e906024015f604051808303815f87803b158015611878575f80fd5b505af115801561188a573d5f803e3d5ffd5b505060655460685460405163068bcd8d60e01b815260048101919091525f93506001600160a01b03909116915063068bcd8d906024015f60405180830381865afa1580156118da573d5f803e3d5ffd5b505050506040513d5f823e601f3d908101601f191682016040526119019190810190612f5f565b6040015190505f836001600160a01b031663ee719bc86040518163ffffffff1660e01b8152600401602060405180830381865afa158015611944573d5f803e3d5ffd5b505050506040513d601f19601f820116820180604052508101906119689190612eb7565b9050816001600160a01b0316816001600160a01b0316146119a0578181604051630c460fdb60e41b81526004016106e89291906130e3565b6040516370a0823160e01b81525f906001600160a01b038416906370a08231906119ce903090600401612aa7565b602060405180830381865afa1580156119e9573d5f803e3d5ffd5b505050506040513d601f19601f82011682018060405250810190611a0d9190613054565b9050805f03611a1e57505050505050565b5f611a2a828588612301565b9050805f03611a3c5750505050505050565b60405163095ea7b360e01b81526001600160a01b0385169063095ea7b390611a6a90899086906004016130fd565b6020604051808303815f875af1158015611a86573d5f803e3d5ffd5b505050506040513d601f19601f82011682018060405250810190611aaa9190612ed2565b611ae157604051636a93d39160e01b81526001600160a01b03808616600483015287166024820152604481018390526064016106e8565b6040516345977d0360e01b8152600481018290526001600160a01b038716906345977d03906024015f604051808303815f87803b158015611b20575f80fd5b505af1158015611b32573d5f803e3d5ffd5b5050505050505050505050565b83516001600160a01b031615801590611c36575060785f9054906101000a90046001600160a01b03166001600160a01b031663f86c5f896040518163ffffffff1660e01b8152600401602060405180830381865afa158015611ba3573d5f803e3d5ffd5b505050506040513d601f19601f82011682018060405250810190611bc79190612eb7565b845160405163f9f6b49b60e01b81526001600160a01b03929092169163f9f6b49b91611bf591600401612aa7565b602060405180830381865afa158015611c10573d5f803e3d5ffd5b505050506040513d601f19601f82011682018060405250810190611c349190612ed2565b155b15611c575783516040516302bc866560e61b81526106e89190600401612aa7565b815115611c6757611c678261230d565b805115611c7757611c7781612572565b60208401516001600160a01b031615801590611c9c575083516001600160a01b031615155b8015611d7f5750606f545f908152607f6020908152604090912060010154908501516001600160a01b039081169116141580611cf65750606f545f908152607f602052604090205484516001600160a01b03908116911614155b80611d195750606f545f908152607f602052604090819020600201549085015114155b80611d3b5750606f545f908152607f6020526040902060030154606085015114155b80611d5d5750606f545f908152607f6020526040902060040154608085015114155b80611d7f5750606f545f908152607f602052604090206005015460a085015114155b15611f3e57602080850151606f545f908152607f9092526040909120600101546001600160a01b039081169116141580611dd757508351606f545f908152607f60205260409020546001600160a01b03908116911614155b15611e3c578351602085015160405163446adb9960e11b81526001600160a01b03909216916388d5b73291611e0e91600401612aa7565b5f604051808303815f87803b158015611e25575f80fd5b505af1158015611e37573d5f803e3d5ffd5b505050505b606f8054905f611e4b8361321b565b9091555050606f80545f908152607f6020908152604091829020875181546001600160a01b038083166001600160a01b0319928316178455938a015160018401805495821695909216949094179055838901516002830181905560608a01516003840181905560808b01516004850181905560a08c01516005909501859055965495517fe677e2878aaaaf6a65ecf50f849ad58100c49f6dfd57d055ba4bddd63a175d5397611f359796949590919687526001600160a01b0395861660208801529390941660408601526060850191909152608084015260a083019190915260c082015260e00190565b60405180910390a15b6040830151158015611f5257506020830151155b8015611f5d57508251155b8015611f6b57506060830151155b611fda57825160728190556020808501805160735560408087018051607455606080890180516075558351968752935194860194909452519084015251908201527fec9315d9f4291207475c061feff1e5d7105750ac0ee9534af9444b4ff1dab9bc9060800160405180910390a15b50505050565b5f816001600160a01b031663313ce5676040518163ffffffff1660e01b8152600401602060405180830381865afa92505050801561203b575060408051601f3d908101601f1916820190925261203891810190613233565b60015b6105b257506012919050565b5f83158061205a57508160ff168360ff16145b15612066575082610a44565b8160ff168360ff16101561209a5761207e8383613253565b61208990600a61334c565b612093908561335a565b9050610a44565b6120a48284613253565b6120af90600a61334c565b610f869085613371565b5f80516020613410833981519152545f80516020613430833981519152546001600160a01b0381166121ff576001600160a01b03821661215657826001600160a01b03166320bc44256040518163ffffffff1660e01b8152600401602060405180830381865afa15801561212f573d5f803e3d5ffd5b505050506040513d601f19601f820116820180604052508101906121539190612eb7565b91505b604051635b69006f60e11b81527fdfd8ece9bfbcb8c5c540edb935641f63d67686490a1ab97f000288759f30a94660048201526001600160a01b0383169063b6d200de90602401602060405180830381865afa1580156121b8573d5f803e3d5ffd5b505050506040513d601f19601f820116820180604052508101906121dc9190612eb7565b9050815f8051602061341083398151915255805f80516020613430833981519152555b6001600160a01b03821661221557612215613390565b6001600160a01b03811661222b5761222b613390565b915091565b60855460ff161561223d57565b5f60015b606e54811161229b575f818152607b60205260409020805415801590612275575060088101546122739060ff166122ae565b155b1561228857826122848161321b565b9350505b50806122938161321b565b915050612241565b506084556085805460ff19166001179055565b5f60038260068111156122c3576122c3612b1c565b14806122e0575060068260068111156122de576122de612b1c565b145b806105b2575060048260068111156122fa576122fa612b1c565b1492915050565b5f610f86848484612772565b5f6068546040516020016123219190613116565b60408051601f19818403018152908290528051602090910120607854632474521560e21b83529092506001600160a01b0316906391d148549061236a9084905f90600401613133565b602060405180830381865afa158015612385573d5f803e3d5ffd5b505050506040513d601f19601f820116820180604052508101906123a99190612ed2565b1561240e5760785460405163d547741f60e01b81526001600160a01b039091169063d547741f906123e09084905f90600401613133565b5f604051808303815f87803b1580156123f7575f80fd5b505af1158015612409573d5f803e3d5ffd5b505050505b5f5b82518110156125325760785483516001600160a01b03909116906391d14854908490869085908110612444576124446133a4565b60200260200101516040518363ffffffff1660e01b8152600401612469929190613133565b602060405180830381865afa158015612484573d5f803e3d5ffd5b505050506040513d601f19601f820116820180604052508101906124a89190612ed2565b61252a5760785483516001600160a01b0390911690632f2ff15d9084908690859081106124d7576124d76133a4565b60200260200101516040518363ffffffff1660e01b81526004016124fc929190613133565b5f604051808303815f87803b158015612513575f80fd5b505af1158015612525573d5f803e3d5ffd5b505050505b600101612410565b507f7a2e396a5614184c0af2c60827c206595126faa1238b94e19823192de52e728a606854836040516125669291906133b8565b60405180910390a15050565b5f5b8151811015612733576078546068546040516001600160a01b03909216916391d14854916125a491602001613116565b604051602081830303815290604052805190602001208484815181106125cc576125cc6133a4565b60200260200101516040518363ffffffff1660e01b81526004016125f1929190613133565b602060405180830381865afa15801561260c573d5f803e3d5ffd5b505050506040513d601f19601f820116820180604052508101906126309190612ed2565b156126d7576078546068546040516001600160a01b039092169163d547741f9161265c91602001613116565b60405160208183030381529060405280519060200120848481518110612684576126846133a4565b60200260200101516040518363ffffffff1660e01b81526004016126a9929190613133565b5f604051808303815f87803b1580156126c0575f80fd5b505af11580156126d2573d5f803e3d5ffd5b505050505b5f6001600160a01b03168282815181106126f3576126f36133a4565b60200260200101516001600160a01b03161461272b5761272b82828151811061271e5761271e6133a4565b60200260200101516127c5565b600101612574565b507fd418c93b6b78d828a87ee1909e6fcdbbf2f8d8f540ad7b232bb3e221e6d7cc1e606854826040516127679291906133b8565b60405180910390a150565b5f83158061278757506001600160a01b038216155b806127a35750816001600160a01b0316836001600160a01b0316145b156127af575082610a44565b610f86846127bc85611fe0565b61136f85611fe0565b60785460405163011de97360e61b81526001600160a01b039091169063477a5cc0906127f790849030906004016130e3565b602060405180830381865afa158015612812573d5f803e3d5ffd5b505050506040513d601f19601f820116820180604052508101906128369190612ed2565b156128b357608354604051637817ee4f60e01b81526128b3916001600160a01b031690637817ee4f9061286f90859030906004016130e3565b602060405180830381865afa15801561288a573d5f803e3d5ffd5b505050506040513d601f19601f820116820180604052508101906128ae9190613054565b61294a565b6078546040516322bcf99960e01b81526001600160a01b03909116906322bcf999906128e590849030906004016130e3565b5f604051808303815f87803b1580156128fc575f80fd5b505af115801561290e573d5f803e3d5ffd5b5050505061291b81612975565b7f1468da654b37bb3631011c1917d02e0db437d519918858d40b38b5e980ca033b816040516127679190612aa7565b60715481111561295b575f60715550565b8060715f82825461296c9190613092565b90915550505b50565b5f5b6001600160a01b0382165f908152607d6020526040902054811015612a5b576001600160a01b0382165f908152607d602052604081208054839081106129bf576129bf6133a4565b5f918252602080832090910154808352607b9091526040909120805491925090158015906129f9575060058101546001600160a01b031615155b15612a51576001600160a01b0384165f908152600982016020526040812080549082905560028301805491928392612a32908490613092565b925050819055508060705f828254612a4a9190613092565b9091555050505b5050600101612977565b506001600160a01b0381165f908152607c60209081526040808320839055607d8252822080548382559083529120612972918291908101905b80821115611318575f8155600101612a94565b6001600160a01b0391909116815260200190565b5f60208284031215612acb575f80fd5b5035919050565b6001600160a01b0381168114612972575f80fd5b5f60208284031215612af6575f80fd5b8135610a4481612ad2565b93845260208401929092526040830152606082015260800190565b634e487b7160e01b5f52602160045260245ffd5b6020810160058310612b4457612b44612b1c565b91905290565b6020810160038310612b4457612b44612b1c565b5f8060408385031215612b6f575f80fd5b8235612b7a81612ad2565b946020939093013593505050565b634e487b7160e01b5f52604160045260245ffd5b60405160c081016001600160401b0381118282101715612bbe57612bbe612b88565b60405290565b604080519081016001600160401b0381118282101715612bbe57612bbe612b88565b604051601f8201601f191681016001600160401b0381118282101715612c0e57612c0e612b88565b604052919050565b5f60c08284031215612c26575f80fd5b612c2e612b9c565b90508135612c3b81612ad2565b81526020820135612c4b81612ad2565b8060208301525060408201356040820152606082013560608201526080820135608082015260a082013560a082015292915050565b5f60808284031215612c90575f80fd5b604051608081016001600160401b0381118282101715612cb257612cb2612b88565b8060405250809150823581526020830135602082015260408301356040820152606083013560608201525092915050565b5f82601f830112612cf2575f80fd5b813560206001600160401b03821115612d0d57612d0d612b88565b8160051b612d1c828201612be6565b9283528481018201928281019087851115612d35575f80fd5b83870192505b84831015612d5d578235612d4e81612ad2565b82529183019190830190612d3b565b979650505050505050565b5f805f805f805f6101e0888a031215612d7f575f80fd5b612d898989612c16565b9650612d988960c08a01612c80565b955061014088013594506101608801356001600160401b0380821115612dbc575f80fd5b612dc88b838c01612ce3565b95506101808a0135915080821115612dde575f80fd5b50612deb8a828b01612ce3565b9350506101a0880135612dfd81612ad2565b809250506101c0880135905092959891949750929550565b5f805f805f806101c08789031215612e2b575f80fd5b612e358888612c16565b9550612e448860c08901612c80565b945061014087013593506101608701356001600160401b0380821115612e68575f80fd5b612e748a838b01612ce3565b9450610180890135915080821115612e8a575f80fd5b50612e9789828a01612ce3565b9250506101a0870135612ea981612ad2565b809150509295509295509295565b5f60208284031215612ec7575f80fd5b8151610a4481612ad2565b5f60208284031215612ee2575f80fd5b81518015158114610a44575f80fd5b5f5b83811015612f0b578181015183820152602001612ef3565b50505f910152565b5f6001600160401b03831115612f2b57612f2b612b88565b612f3e601f8401601f1916602001612be6565b9050828152838383011115612f51575f80fd5b610a44836020830184612ef1565b5f6020808385031215612f70575f80fd5b82516001600160401b0380821115612f86575f80fd5b9084019060c08287031215612f99575f80fd5b612fa1612b9c565b8251815283830151612fb281612ad2565b818501526040830151612fc481612ad2565b6040820152606083015182811115612fda575f80fd5b830160408189031215612feb575f80fd5b612ff3612bc4565b815181528582015184811115613007575f80fd5b82019350601f84018913613019575f80fd5b613027898551888701612f13565b8682015280606084015250506080830151608082015260a083015160a08201528094505050505092915050565b5f60208284031215613064575f80fd5b5051919050565b634e487b7160e01b5f52601160045260245ffd5b808201808211156105b2576105b261306b565b818103818111156105b2576105b261306b565b5f82516130b6818460208701612ef1565b9190910192915050565b6001600160a01b0393841681529183166020830152909116604082015260600190565b6001600160a01b0392831681529116602082015260400190565b6001600160a01b03929092168252602082015260400190565b6810531313d5d31254d560ba1b8152600981019190915260290190565b9182526001600160a01b0316602082015260400190565b5f8151808452613161816020860160208601612ef1565b601f01601f19169290920160200192915050565b6001600160a01b03831681526040602082018190525f90610f869083018461314a565b6001600160a01b03841681526060602082018190525f906131bb9083018561314a565b82810360408401526131cd818561314a565b9695505050505050565b5f602082840312156131e7575f80fd5b81516001600160401b038111156131fc575f80fd5b8201601f8101841361320c575f80fd5b610f8684825160208401612f13565b5f6001820161322c5761322c61306b565b5060010190565b5f60208284031215613243575f80fd5b815160ff81168114610a44575f80fd5b60ff82811682821603908111156105b2576105b261306b565b600181815b808511156132a657815f190482111561328c5761328c61306b565b8085161561329957918102915b93841c9390800290613271565b509250929050565b5f826132bc575060016105b2565b816132c857505f6105b2565b81600181146132de57600281146132e857613304565b60019150506105b2565b60ff8411156132f9576132f961306b565b50506001821b6105b2565b5060208310610133831016604e8410600b8410161715613327575081810a6105b2565b613331838361326c565b805f19048211156133445761334461306b565b029392505050565b5f610a4460ff8416836132ae565b80820281158282048414176105b2576105b261306b565b5f8261338b57634e487b7160e01b5f52601260045260245ffd5b500490565b634e487b7160e01b5f52600160045260245ffd5b634e487b7160e01b5f52603260045260245ffd5b5f604082018483526020604060208501528185518084526060860191506020870193505f5b818110156134025784516001600160a01b0316835293830193918301916001016133dd565b509097965050505050505056fe65599bf746e17a00ea62e3610586992d88101b78eec3cf380706621fb97ea837c36f6c05164a669ecb6da53e218d77ae44d51cfc99f91e5a125a18de0949bee4a164736f6c6343000817000a608060405234801561000f575f80fd5b50612d508061001d5f395ff3fe6080604052600436106101b4575f3560e01c806305caa7f3146101b85780630a6f0ee9146101ed5780630bece79c1461020e5780630c0512e91461022d578063125fd1d9146102505780631374b22d146102655780631b36f56f146102945780632506b870146102b3578063255ffb38146102e55780632dbd6fdd14610310578063339604591461033b578063351d9f961461035057806341bb7605146103765780634ab4ba42146104095780634c3ceb5b1461041d5780634d33f6c91461043157806353ca476c1461045c5780635db64b991461047b5780636003e414146104a657806360b0645a146104c5578063626c47e8146104e457806376e43099146104f857806380fd91cd1461050d578063817b1cd21461052c578063868c57b8146105415780638dc8309414610560578063914bdef01461041d57806394573cbb14610574578063962896f614610589578063a28889e1146105a2578063a47ff7e5146105d9578063aba9ffee146105ef578063b6c61f3114610604578063cf7ae90c14610623578063dfe9ec581461041d578063ee50ee1b1461063c578063ef2920fc14610650578063f5be3f7c14610663575b5f80fd5b3480156101c3575f80fd5b506080546101d7906001600160a01b031681565b6040516101e4919061250b565b60405180910390f35b3480156101f8575f80fd5b5061020c610207366004612666565b610678565b005b348015610219575f80fd5b506079546101d7906001600160a01b031681565b348015610238575f80fd5b50610242606e5481565b6040519081526020016101e4565b34801561025b575f80fd5b50610242606f5481565b348015610270575f80fd5b5061028461027f366004612730565b610dcf565b60405190151581526020016101e4565b34801561029f575f80fd5b506081546101d7906001600160a01b031681565b3480156102be575f80fd5b506072546073546074546075546102d59392919084565b6040516101e49493929190612747565b3480156102f0575f80fd5b506102426102ff366004612730565b607e6020525f908152604090205481565b34801561031b575f80fd5b5060765461032e90610100900460ff1681565b6040516101e49190612776565b348015610346575f80fd5b50610242606c5481565b34801561035b575f80fd5b506076546103699060ff1681565b6040516101e49190612790565b348015610381575f80fd5b506103d1610390366004612730565b607f6020525f90815260409020805460018201546002830154600384015460048501546005909501546001600160a01b039485169593909416939192909186565b604080516001600160a01b039788168152969095166020870152938501929092526060840152608083015260a082015260c0016101e4565b348015610414575f80fd5b50610242610e09565b348015610428575f80fd5b50610242608081565b34801561043c575f80fd5b5061024261044b366004612730565b60876020525f908152604090205481565b348015610467575f80fd5b50610242610476366004612730565b610e17565b348015610486575f80fd5b506102426104953660046127a4565b607c6020525f908152604090205481565b3480156104b1575f80fd5b506078546101d7906001600160a01b031681565b3480156104d0575f80fd5b506102426104df366004612730565b610e36565b3480156104ef575f80fd5b50610242600381565b348015610503575f80fd5b5061024260845481565b348015610518575f80fd5b506083546101d7906001600160a01b031681565b348015610537575f80fd5b5061024260705481565b34801561054c575f80fd5b5061024261055b3660046127bf565b610efa565b34801561056b575f80fd5b50610284610f25565b34801561057f575f80fd5b5061024260825481565b348015610594575f80fd5b506085546102849060ff1681565b3480156105ad575f80fd5b50606d546105c1906001600160401b031681565b6040516001600160401b0390911681526020016101e4565b3480156105e4575f80fd5b506077546102429081565b3480156105fa575f80fd5b5061024260715481565b34801561060f575f80fd5b50607a546101d7906001600160a01b031681565b34801561062e575f80fd5b506088546102849060ff1681565b348015610647575f80fd5b50610242604081565b61020c61065e3660046127e9565b611021565b34801561066e575f80fd5b50610242611c2081565b6065546001600160a01b031633146106bd57606554604051636ca3252960e01b81526106b49133916001600160a01b0390911690600401612837565b60405180910390fd5b6068545f036106e55760685460405163243d58fb60e21b81526004016106b491815260200190565b5f82511161070b5781516040516307ab773f60e01b81526004016106b491815260200190565b5f828060200190518101906107209190612851565b9050600160765460ff16600281111561073b5761073b612762565b1461076057607654604051631759044b60e21b81526106b49160ff1690600401612790565b5f610769610e09565b90508015801561078857505f828152607b602052604090206001015415155b156107a957604051633d16389f60e21b8152600481018290526024016106b4565b6080546001600160a01b031615610908575f828152607b602052604090819020600181015460069091015491516370a0823160e01b815290916001600160a01b0316906370a082319061080090309060040161250b565b602060405180830381865afa15801561081b573d5f803e3d5ffd5b505050506040513d601f19601f8201168201806040525081019061083f9190612851565b1015610908576080546040516370a0823160e01b81526001600160a01b03909116906311bcc81e9082906370a082319061087d90309060040161250b565b602060405180830381865afa158015610898573d5f803e3d5ffd5b505050506040513d601f19601f820116820180604052508101906108bc9190612851565b6040518263ffffffff1660e01b81526004016108da91815260200190565b5f604051808303815f87803b1580156108f1575f80fd5b505af1158015610903573d5f803e3d5ffd5b505050505b5f828152607b6020526040902054821480159061092457508115155b156109455760405163c1d17bef60e01b8152600481018390526024016106b4565b60015f838152607b602052604090206008015460ff16600681111561096c5761096c612762565b146109bd575f828152607b6020526040902060080154829060ff16600681111561099857610998612762565b60405163052d1a7b60e21b8152600481019290925260ff1660248201526044016106b4565b5f828152607b6020526040902060010154811015610a04575f828152607b602052604090819020600101549051632c31d85b60e11b81526106b49184918490600401612868565b5f828152607b602052604090206001015415801590610a3857505f828152607b6020526040902060010154610a38906117c4565b15610a8e575f629896808260725f0154610a529190612892565b610a5c91906128a9565b5f848152607b602052604090819020600101549051633e4bb86360e01b81529192506106b49183908590600401612868565b5f828152607b602052604090206001015415801590610aad5750607154155b15610ace57604051636c8b498960e11b8152600481018390526024016106b4565b5f610ad8836117ef565b5f848152607b60205260408120600101549192509015610bc0575f848152607b60205260409020600181015473__$f1b7c69ba751c396eddc93d3bbc5414fd9$__916329dfe5ba91908690610b2c90611838565b60745460735460725460755460405160e089901b6001600160e01b03191681526004810197909752602487019590955260448601939093526064850191909152608484015260a483015260c482015260e401602060405180830381865af4158015610b99573d5f803e3d5ffd5b505050506040513d601f19601f82011682018060405250810190610bbd9190612851565b90505b808211158015610bdf57505f848152607b602052604090206001015415155b15610c14575f848152607b602052604090819020600101549051637ac83e3d60e01b81526106b4918491849190600401612868565b5f848152607b60205260409020600801805460ff19166004179055610c3761185c565b610c4084611887565b60655460685460405163068bcd8d60e01b81526004810191909152610ce2916001600160a01b03169063068bcd8d906024015f60405180830381865afa158015610c8c573d5f803e3d5ffd5b505050506040513d5f823e601f3d908101601f19168201604052610cb391908101906128ea565b6040908101515f878152607b6020529190912060048101546001909101546001600160a01b0390911690611961565b6079545f858152607b6020908152604080832060058101546010909101548452607f9092529182902060020154915163099ea56b60e41b81526001600160a01b03938416936399ea56b093610d3e938a93921691600401612a02565b5f604051808303815f87803b158015610d55575f80fd5b505af1158015610d67573d5f803e3d5ffd5b5050505f858152607b602052604090819020600481015460019091015491517fa7932e9c92f31e1ed56b29d00bbe669a97484dc24de28dd9c8c0429df7f358479350610dbe9288926001600160a01b031691612a02565b60405180910390a150505050505050565b5f818152607b602052604081205415801590610e0357505f828152607b60205260409020600501546001600160a01b031615155b92915050565b5f610e12611a10565b905090565b60868181548110610e26575f80fd5b5f91825260209091200154905081565b5f818152607b60205260408120610e4b610f25565b610e59576003015492915050565b73__$f1b7c69ba751c396eddc93d3bbc5414fd9$__63010dfe64826007015443610e839190612a21565b600384015460028501546074546040516001600160e01b031960e087901b168152610eb49493929190600401612747565b602060405180830381865af4158015610ecf573d5f803e3d5ffd5b505050506040513d601f19601f82011682018060405250810190610ef39190612851565b9392505050565b607d602052815f5260405f208181548110610f13575f80fd5b905f5260205f20015f91509150505481565b6078545f906001600160a01b0316610f3d5750600190565b6078546040515f9182916001600160a01b0390911690633a871fe160e01b90610f6a90309060240161250b565b60408051601f198184030181529181526020820180516001600160e01b03166001600160e01b0319909416939093179092529051610fa89190612a34565b5f60405180830381855afa9150503d805f8114610fe0576040519150601f19603f3d011682016040523d82523d5f602084013e610fe5565b606091505b5091509150811580610ff8575060208151105b156110065760019250505090565b8080602001905181019061101a9190612a4f565b9250505090565b6065546001600160a01b0316331461105d57606554604051636ca3252960e01b81526106b49133916001600160a01b0390911690600401612837565b6068545f036110855760685460405163243d58fb60e21b81526004016106b491815260200190565b60785460405163208a40f360e11b81526001600160a01b039091169063411481e6906110b590309060040161250b565b5f6040518083038186803b1580156110cb575f80fd5b505afa1580156110dd573d5f803e3d5ffd5b505050505f828060200190518101906110f69190612a6e565b905060408151111561112057805160408051633d4057c560e11b81526004016106b4929190612b11565b5f5b81518110156111765761116e82828151811061114057611140612b1f565b60200260200101515f015183838151811061115d5761115d612b1f565b602002602001015160200151611bff565b600101611122565b5061118082611cc5565b60785460405163011de97360e61b81526001600160a01b039091169063477a5cc0906111b29085903090600401612837565b602060405180830381865afa1580156111cd573d5f803e3d5ffd5b505050506040513d601f19601f820116820180604052508101906111f19190612a4f565b6112105781604051634f6fcf7360e11b81526004016106b4919061250b565b5f8061121b84611d65565b90505f5b83518110156112a5578115801561125257505f84828151811061124457611244612b1f565b602002602001015160200151135b1561127257846040516307772b5360e51b81526004016106b4919061250b565b83818151811061128457611284612b1f565b6020026020010151602001518361129b9190612b33565b925060010161121f565b506001600160a01b0384165f908152607c60205260408120546112c89084611f7e565b608354604051637817ee4f60e01b81529192505f916001600160a01b0390911690637817ee4f906112ff9089903090600401612837565b602060405180830381865afa15801561131a573d5f803e3d5ffd5b505050506040513d601f19601f8201168201806040525081019061133e9190612851565b905080821115611365578181604051636b20c17f60e11b81526004016106b4929190612b11565b506001600160a01b0385165f908152607c60205260408120919091556060925090505b82518110156117bd575f8382815181106113a4576113a4612b1f565b60200260200101515f0151905082515f036113fd57604080516001808252818301909252906020808301908036833701905050925080835f815181106113ec576113ec612b1f565b602002602001018181525050611519565b5f805b8451811015611452578285828151811061141c5761141c612b1f565b60200260200101510361144a57600191508281604051632b7aec5560e21b81526004016106b4929190612b11565b600101611400565b5080611517575f845160016114679190612b5a565b6001600160401b0381111561147e5761147e61251f565b6040519080825280602002602001820160405280156114a7578160200160208202803683370190505b5090505f5b85518110156114f4578581815181106114c7576114c7612b1f565b60200260200101518282815181106114e1576114e1612b1f565b60209081029190910101526001016114ac565b50828186518151811061150957611509612b1f565b602090810291909101015293505b505b5f84838151811061152c5761152c612b1f565b6020908102919091018101518101515f848152607b8352604080822060028101546001600160a01b038c16845260098201909552908220549294509291906115748286611f7e565b6001600160a01b038b165f9081526009860160205260408120829055909150805b6001600160a01b038c165f908152607d60205260409020548110156115fe5785546001600160a01b038d165f908152607d602052604090208054839081106115df576115df612b1f565b905f5260205f200154036115f657600191506115fe565b600101611595565b5080611686576001600160a01b038b165f908152607d60205260409020546080811061165657604051637ebba14d60e11b81526001600160a01b038d16600482015260248101829052608060448201526064016106b4565b506001600160a01b038b165f908152607d6020908152604082208754815460018101835591845291909220909101555b8183116116d4576116978383612a21565b60705f8282546116a79190612b5a565b909155506116b790508383612a21565b856002015f8282546116c99190612b5a565b909155506117169050565b6116de8284612a21565b60705f8282546116ee9190612a21565b909155506116fe90508284612a21565b856002015f8282546117109190612a21565b90915550505b84600701545f036117355743600786015561173085611fb3565b6117aa565b61173e85611fb3565b6117488585611fd8565b60028501546003860154604080516001600160a01b038f168152602081018b9052908101859052606081019290925260808201527f0227f642ddcf2042ceaeafadb9d540f432072c00cd4862881667168dcc14710f9060a00160405180910390a15b5050600190950194506113889350505050565b5050505050565b5f6117d26298968083612892565b6117da610e09565b6072546117e79190612892565b111592915050565b5f818152607b60205260408120805483146118205760405163c1d17bef60e01b8152600481018490526024016106b4565b61182e818260020154611fd8565b6003015492915050565b60128101545f9080158061184d575080607154115b15610e03575050607154919050565b60855460ff1661186857565b608454156118855760848054905f61187f83612b6d565b91905055505b565b5f81815260876020526040812054908190036118a1575050565b5f6118ad600183612a21565b6086549091505f906118c190600190612a21565b90505f608682815481106118d7576118d7612b1f565b905f5260205f20015490508183146119225780608684815481106118fd576118fd612b1f565b5f91825260209091200155611913836001612b5a565b5f828152608760205260409020555b608680548061193357611933612b82565b600190038181905f5260205f20015f9055905560875f8681526020019081526020015f205f90555050505050565b73eeeeeeeeeeeeeeeeeeeeeeeeeeeeeeeeeeeeeeed196001600160a01b03841601611a00575f826001600160a01b0316826040515f6040518083038185875af1925050503d805f81146119cf576040519150601f19603f3d011682016040523d82523d5f602084013e6119d4565b606091505b50509050806119fa57828260405163296c17bb60e21b81526004016106b4929190612b96565b50505050565b611a0b838383612017565b505050565b60655460685460405163068bcd8d60e01b81525f9283926001600160a01b039091169163068bcd8d91611a499160040190815260200190565b5f60405180830381865afa158015611a63573d5f803e3d5ffd5b505050506040513d5f823e601f3d908101601f19168201604052611a8a91908101906128ea565b60400151905073eeeeeeeeeeeeeeeeeeeeeeeeeeeeeeeeeeeeeeed196001600160a01b03821601611abc574791505090565b6040516370a0823160e01b81525f906001600160a01b038316906370a0823190611aea90309060040161250b565b602060405180830381865afa158015611b05573d5f803e3d5ffd5b505050506040513d601f19601f82011682018060405250810190611b299190612851565b6080549091506001600160a01b0390811690831603611b485792915050565b6080545f906001600160a01b031615611bcf576080546040516370a0823160e01b81526001600160a01b03909116906370a0823190611b8b90309060040161250b565b602060405180830381865afa158015611ba6573d5f803e3d5ffd5b505050506040513d601f19601f82011682018060405250810190611bca9190612851565b611bd1565b5f5b608054909150611bed90829085906001600160a01b031661206d565b611bf79083612b5a565b935050505090565b5f828152607b602052604081209082138015611c9a57505f600882015460ff166006811115611c3057611c30612762565b1480611c5457506003600882015460ff166006811115611c5257611c52612762565b145b80611c7757506004600882015460ff166006811115611c7557611c75612762565b145b80611c9a57506006600882015460ff166006811115611c9857611c98612762565b145b15611a0b5760088101546040516394d57ead60e01b81526106b491859160ff90911690600401612baf565b60835460405163288c314960e21b81526001600160a01b039091169063a230c52490611cf590849060040161250b565b602060405180830381865afa158015611d10573d5f803e3d5ffd5b505050506040513d601f19601f82011682018060405250810190611d349190612a4f565b611d6257607854604051636332657560e11b81526106b49183916001600160a01b0390911690600401612837565b50565b607a545f906001600160a01b031615611de957607a546040516302154c3d60e51b81526001600160a01b03909116906342a987a090611daa9085903090600401612837565b602060405180830381865afa158015611dc5573d5f803e3d5ffd5b505050506040513d601f19601f82011682018060405250810190610e039190612a4f565b6004607654610100900460ff166004811115611e0757611e07612762565b148015611e2557506078546083546001600160a01b03908116911614155b15611e5a5760835460405163288c314960e21b81526001600160a01b039091169063a230c52490611daa90859060040161250b565b6068546040516810531313d5d31254d560ba1b602082015260298101919091525f9060490160408051601f19818403018152908290528051602090910120607854632474521560e21b83529092506001600160a01b0316906391d1485490611ec89084905f90600401612bd3565b602060405180830381865afa158015611ee3573d5f803e3d5ffd5b505050506040513d601f19601f82011682018060405250810190611f079190612a4f565b80610ef35750607854604051632474521560e21b81526001600160a01b03909116906391d1485490611f3f9084908790600401612bd3565b602060405180830381865afa158015611f5a573d5f803e3d5ffd5b505050506040513d601f19601f82011682018060405250810190610ef39190612a4f565b5f80611f8a8385612b33565b90505f811215610ef357838382604051631dde38a160e11b81526004016106b493929190612868565b6012810154801580611fc6575080607154115b15611fd45760715460128301555b5050565b5f80611fe48484612081565b91509150815f148015611ff5575080155b156120005750505050565b60078401819055600384018290556119fa84611fb3565b611a0b8363a9059cbb60e01b8484604051602401612036929190612b96565b60408051601f198184030181529190526020810180516001600160e01b03166001600160e01b031990931692909217909152612180565b5f612079848484612253565b949350505050565b5f8061208b610f25565b61209c575050600382015443612179565b43905080846007015411156120cc5783600701548160405163102300bd60e01b81526004016106b4929190612b11565b808460070154036120e157505f905080612179565b73__$f1b7c69ba751c396eddc93d3bbc5414fd9$__63010dfe6485600701548361210b9190612a21565b60038701546074546040516001600160e01b031960e086901b1681526121379392918991600401612747565b602060405180830381865af4158015612152573d5f803e3d5ffd5b505050506040513d601f19601f820116820180604052508101906121769190612851565b91505b9250929050565b5f6121d4826040518060400160405280602081526020017f5361666545524332303a206c6f772d6c6576656c2063616c6c206661696c6564815250856001600160a01b03166122ab9092919063ffffffff16565b905080515f14806121f45750808060200190518101906121f49190612a4f565b611a0b5760405162461bcd60e51b815260206004820152602a60248201527f5361666545524332303a204552433230206f7065726174696f6e20646964206e6044820152691bdd081cdd58d8d9595960b21b60648201526084016106b4565b5f83158061226857506001600160a01b038216155b806122845750816001600160a01b0316836001600160a01b0316145b15612290575082610ef3565b6120798461229d846122b9565b6122a6866122b9565b612325565b606061207984845f85612397565b5f816001600160a01b031663313ce5676040518163ffffffff1660e01b8152600401602060405180830381865afa925050508015612314575060408051601f3d908101601f1916820190925261231191810190612bea565b60015b610e0357506012919050565b919050565b5f83158061233857508160ff168360ff16145b15612344575082610ef3565b8160ff168360ff1610156123785761235c8383612c0a565b61236790600a612d03565b6123719085612892565b9050610ef3565b6123828284612c0a565b61238d90600a612d03565b61207990856128a9565b6060824710156123f85760405162461bcd60e51b815260206004820152602660248201527f416464726573733a20696e73756666696369656e742062616c616e636520666f6044820152651c8818d85b1b60d21b60648201526084016106b4565b5f80866001600160a01b031685876040516124139190612a34565b5f6040518083038185875af1925050503d805f811461244d576040519150601f19603f3d011682016040523d82523d5f602084013e612452565b606091505b50915091506124638783838761246e565b979650505050505050565b606083156124dc5782515f036124d5576001600160a01b0385163b6124d55760405162461bcd60e51b815260206004820152601d60248201527f416464726573733a2063616c6c20746f206e6f6e2d636f6e747261637400000060448201526064016106b4565b5081612079565b61207983838151156124f15781518083602001fd5b8060405162461bcd60e51b81526004016106b49190612d11565b6001600160a01b0391909116815260200190565b634e487b7160e01b5f52604160045260245ffd5b60405160c081016001600160401b03811182821017156125555761255561251f565b60405290565b604080519081016001600160401b03811182821017156125555761255561251f565b604051601f8201601f191681016001600160401b03811182821017156125a5576125a561251f565b604052919050565b5f6001600160401b038211156125c5576125c561251f565b5060051b60200190565b6001600160a01b0381168114611d62575f80fd5b8035612320816125cf565b5f6001600160401b038211156126065761260661251f565b50601f01601f191660200190565b5f82601f830112612623575f80fd5b8135612636612631826125ee565b61257d565b81815284602083860101111561264a575f80fd5b816020850160208301375f918101602001919091529392505050565b5f805f60608486031215612678575f80fd5b83356001600160401b038082111561268e575f80fd5b818601915086601f8301126126a1575f80fd5b813560206126b1612631836125ad565b82815260059290921b8401810191818101908a8411156126cf575f80fd5b948201945b838610156126f65785356126e7816125cf565b825294820194908201906126d4565b9750508701359250508082111561270b575f80fd5b5061271886828701612614565b925050612727604085016125e3565b90509250925092565b5f60208284031215612740575f80fd5b5035919050565b93845260208401929092526040830152606082015260800190565b634e487b7160e01b5f52602160045260245ffd5b602081016005831061278a5761278a612762565b91905290565b602081016003831061278a5761278a612762565b5f602082840312156127b4575f80fd5b8135610ef3816125cf565b5f80604083850312156127d0575f80fd5b82356127db816125cf565b946020939093013593505050565b5f80604083850312156127fa575f80fd5b82356001600160401b0381111561280f575f80fd5b61281b85828601612614565b925050602083013561282c816125cf565b809150509250929050565b6001600160a01b0392831681529116602082015260400190565b5f60208284031215612861575f80fd5b5051919050565b9283526020830191909152604082015260600190565b634e487b7160e01b5f52601160045260245ffd5b8082028115828204841417610e0357610e0361287e565b5f826128c357634e487b7160e01b5f52601260045260245ffd5b500490565b5f5b838110156128e25781810151838201526020016128ca565b50505f910152565b5f60208083850312156128fb575f80fd5b82516001600160401b0380821115612911575f80fd5b9084019060c08287031215612924575f80fd5b61292c612533565b825181528383015161293d816125cf565b81850152604083015161294f816125cf565b6040820152606083015182811115612965575f80fd5b830160408189031215612976575f80fd5b61297e61255b565b815181528582015184811115612992575f80fd5b82019350601f840189136129a4575f80fd5b835191506129b4612631836125ee565b82815289878487010111156129c7575f80fd5b6129d6838883018988016128c8565b95810195909552506060810193909352506080818101519083015260a090810151908201529392505050565b9283526001600160a01b03919091166020830152604082015260600190565b81810381811115610e0357610e0361287e565b5f8251612a458184602087016128c8565b9190910192915050565b5f60208284031215612a5f575f80fd5b81518015158114610ef3575f80fd5b5f6020808385031215612a7f575f80fd5b82516001600160401b03811115612a94575f80fd5b8301601f81018513612aa4575f80fd5b8051612ab2612631826125ad565b81815260069190911b82018301908381019087831115612ad0575f80fd5b928401925b828410156124635760408489031215612aec575f80fd5b612af461255b565b845181528585015186820152825260409093019290840190612ad5565b918252602082015260400190565b634e487b7160e01b5f52603260045260245ffd5b8082018281125f831280158216821582161715612b5257612b5261287e565b505092915050565b80820180821115610e0357610e0361287e565b5f81612b7b57612b7b61287e565b505f190190565b634e487b7160e01b5f52603160045260245ffd5b6001600160a01b03929092168252602082015260400190565b8281526040810160078310612bc657612bc6612762565b8260208301529392505050565b9182526001600160a01b0316602082015260400190565b5f60208284031215612bfa575f80fd5b815160ff81168114610ef3575f80fd5b60ff8281168282160390811115610e0357610e0361287e565b600181815b80851115612c5d57815f1904821115612c4357612c4361287e565b80851615612c5057918102915b93841c9390800290612c28565b509250929050565b5f82612c7357506001610e03565b81612c7f57505f610e03565b8160018114612c955760028114612c9f57612cbb565b6001915050610e03565b60ff841115612cb057612cb061287e565b50506001821b610e03565b5060208310610133831016604e8410600b8410161715612cde575081810a610e03565b612ce88383612c23565b805f1904821115612cfb57612cfb61287e565b029392505050565b5f610ef360ff841683612c65565b602081525f8251806020840152612d2f8160408501602087016128c8565b601f01601f1916919091016040019291505056fea164736f6c6343000817000a608060405234801561000f575f80fd5b50611fdb8061001d5f395ff3fe6080604052600436106101b4575f3560e01c806305caa7f3146101b85780630bece79c146101ed5780630c0512e91461020c578063125fd1d91461022f5780631374b22d146102445780631b36f56f146102735780632506b87014610292578063255ffb38146102c45780632dbd6fdd146102ef578063311a6c561461031a578063339604591461033b578063351d9f961461035057806341bb7605146103765780634ab4ba42146104095780634c3ceb5b1461041d5780634d33f6c91461043157806353ca476c1461045c5780635db64b991461047b5780636003e414146104a657806360b0645a146104c5578063626c47e8146104e457806376e43099146104f857806380fd91cd1461050d578063817b1cd21461052c578063868c57b8146105415780638dc8309414610560578063914bdef01461041d57806394573cbb14610574578063962896f614610589578063a28889e1146105a2578063a47ff7e5146105d9578063aba9ffee146105ef578063b41596ec14610604578063b6c61f3114610617578063cf7ae90c14610636578063dfe9ec581461041d578063ee50ee1b1461064f578063f5be3f7c14610663575b5f80fd5b3480156101c3575f80fd5b506080546101d7906001600160a01b031681565b6040516101e49190611877565b60405180910390f35b3480156101f8575f80fd5b506079546101d7906001600160a01b031681565b348015610217575f80fd5b50610221606e5481565b6040519081526020016101e4565b34801561023a575f80fd5b50610221606f5481565b34801561024f575f80fd5b5061026361025e36600461188b565b610678565b60405190151581526020016101e4565b34801561027e575f80fd5b506081546101d7906001600160a01b031681565b34801561029d575f80fd5b506072546073546074546075546102b49392919084565b6040516101e494939291906118a2565b3480156102cf575f80fd5b506102216102de36600461188b565b607e6020525f908152604090205481565b3480156102fa575f80fd5b5060765461030d90610100900460ff1681565b6040516101e491906118d1565b348015610325575f80fd5b506103396103343660046118eb565b6106b2565b005b348015610346575f80fd5b50610221606c5481565b34801561035b575f80fd5b506076546103699060ff1681565b6040516101e4919061190b565b348015610381575f80fd5b506103d161039036600461188b565b607f6020525f90815260409020805460018201546002830154600384015460048501546005909501546001600160a01b039485169593909416939192909186565b604080516001600160a01b039788168152969095166020870152938501929092526060840152608083015260a082015260c0016101e4565b348015610414575f80fd5b50610221610af8565b348015610428575f80fd5b50610221608081565b34801561043c575f80fd5b5061022161044b36600461188b565b60876020525f908152604090205481565b348015610467575f80fd5b5061022161047636600461188b565b610ce7565b348015610486575f80fd5b50610221610495366004611933565b607c6020525f908152604090205481565b3480156104b1575f80fd5b506078546101d7906001600160a01b031681565b3480156104d0575f80fd5b506102216104df36600461188b565b610d06565b3480156104ef575f80fd5b50610221600381565b348015610503575f80fd5b5061022160845481565b348015610518575f80fd5b506083546101d7906001600160a01b031681565b348015610537575f80fd5b5061022160705481565b34801561054c575f80fd5b5061022161055b36600461194e565b610dca565b34801561056b575f80fd5b50610263610df5565b34801561057f575f80fd5b5061022160825481565b348015610594575f80fd5b506085546102639060ff1681565b3480156105ad575f80fd5b50606d546105c1906001600160401b031681565b6040516001600160401b0390911681526020016101e4565b3480156105e4575f80fd5b506077546102219081565b3480156105fa575f80fd5b5061022160715481565b6102216106123660046119bc565b610ef1565b348015610622575f80fd5b50607a546101d7906001600160a01b031681565b348015610641575f80fd5b506088546102639060ff1681565b34801561065a575f80fd5b50610221604081565b34801561066e575f80fd5b50610221611c2081565b5f818152607b6020526040812054158015906106ac57505f828152607b60205260409020600501546001600160a01b031615155b92915050565b5f828152607e6020908152604080832054808452607b835281842060108101548552607f845293829020825160c08101845281546001600160a01b03908116825260018301541694810194909452600281015492840192909252600382015460608401526004820154608084015260059182015460a0840152929190600883015460ff166006811115610747576107476118bd565b1461077b57600882015460405163effc443f60e01b815261077291859160ff90911690600401611a2f565b60405180910390fd5b60a0810151600d8301545f9161079091611a67565b421190508015816107ab575081516001600160a01b03163314155b156107cd5781516040516377a14eaf60e11b8152610772913391600401611a7a565b80806107d7575084155b156108ad5781608001515f0361080357604051638365b47b60e01b815260048101859052602401610772565b816080015160010361082c5760088301805460ff1916600190811790915561082c9085906112b8565b81608001516002036108855760088301805460ff1916600617905561084f611434565b6108588461145f565b610862845f6112b8565b600583015460408301516108859186916001600160a01b03909116908190611539565b600e83015460608301516108a89186916001600160a01b03909116908190611539565b610a63565b846001036109565760088301805460ff191660019081179091556108d29085906112b8565b600e83015460785460408051633629edcd60e11b815290516108a89388936001600160a01b0391821693911691636c53db9a916004808201926020929091908290030181865afa158015610928573d5f803e3d5ffd5b505050506040513d601f19601f8201168201806040525081019061094c9190611a94565b8560600151611626565b84600203610a635760088301805460ff19166006179055610975611434565b61097e8461145f565b610988845f6112b8565b600e83015460608301516109ab9186916001600160a01b03909116908190611539565b5f600283604001516109bd9190611aaf565b600585015460785460408051633629edcd60e11b81529051939450610a3e9389936001600160a01b03908116931691636c53db9a9160048083019260209291908290030181865afa158015610a14573d5f803e3d5ffd5b505050506040513d601f19601f82011682018060405250810190610a389190611a94565b84611626565b6005840154600e850154610a619187916001600160a01b03918216911684611626565b505b606d80546001600160401b0316905f610a7b83611ace565b91906101000a8154816001600160401b0302191690836001600160401b03160217905550504283600f018190555085825f01516001600160a01b03167f394027a5fa6e098a1191094d1719d6929b9abc535fcc0c8f448d6a4e7562227687604051610ae891815260200190565b60405180910390a3505050505050565b60655460685460405163068bcd8d60e01b81525f9283926001600160a01b039091169163068bcd8d91610b319160040190815260200190565b5f60405180830381865afa158015610b4b573d5f803e3d5ffd5b505050506040513d5f823e601f3d908101601f19168201604052610b729190810190611b9f565b60400151905073eeeeeeeeeeeeeeeeeeeeeeeeeeeeeeeeeeeeeeed196001600160a01b03821601610ba4574791505090565b6040516370a0823160e01b81525f906001600160a01b038316906370a0823190610bd2903090600401611877565b602060405180830381865afa158015610bed573d5f803e3d5ffd5b505050506040513d601f19601f82011682018060405250810190610c119190611ccf565b6080549091506001600160a01b0390811690831603610c305792915050565b6080545f906001600160a01b031615610cb7576080546040516370a0823160e01b81526001600160a01b03909116906370a0823190610c73903090600401611877565b602060405180830381865afa158015610c8e573d5f803e3d5ffd5b505050506040513d601f19601f82011682018060405250810190610cb29190611ccf565b610cb9565b5f5b608054909150610cd590829085906001600160a01b031661166e565b610cdf9083611a67565b935050505090565b60868181548110610cf6575f80fd5b5f91825260209091200154905081565b5f818152607b60205260408120610d1b610df5565b610d29576003015492915050565b73__$f1b7c69ba751c396eddc93d3bbc5414fd9$__63010dfe64826007015443610d539190611ce6565b600384015460028501546074546040516001600160e01b031960e087901b168152610d8494939291906004016118a2565b602060405180830381865af4158015610d9f573d5f803e3d5ffd5b505050506040513d601f19601f82011682018060405250810190610dc39190611ccf565b9392505050565b607d602052815f5260405f208181548110610de3575f80fd5b905f5260205f20015f91509150505481565b6078545f906001600160a01b0316610e0d5750600190565b6078546040515f9182916001600160a01b0390911690633a871fe160e01b90610e3a903090602401611877565b60408051601f198184030181529181526020820180516001600160e01b03166001600160e01b0319909416939093179092529051610e789190611cf9565b5f60405180830381855afa9150503d805f8114610eb0576040519150601f19603f3d011682016040523d82523d5f602084013e610eb5565b606091505b5091509150811580610ec8575060208151105b15610ed65760019250505090565b80806020019051810190610eea9190611d14565b9250505090565b5f610efb33611682565b5f868152607b6020908152604080832060108101548452607f835292819020815160c08101835281546001600160a01b0390811682526001808401549091169482019490945260028201549281019290925260038101546060830152600481015460808301526005015460a082015290600883015460ff166006811115610f8457610f846118bd565b14610faf57600882015460405163effc443f60e01b8152610772918a9160ff90911690600401611a2f565b8060600151341015610fe35760608101516040516302ed70b960e61b81523460048201526024810191909152604401610772565b600f82015415801590611006575042611c2083600f01546110049190611a67565b115b1561104b578742611c2084600f015461101f9190611a67565b6110299190611ce6565b6040516303327a0360e01b815260048101929092526024820152604401610772565b5f81606001513461105c9190611ce6565b60088401805460ff1916600517905542600d850155600e840180546001600160a01b03191633908117909155607954606085015160405163240ff7c560e11b8152600481018e905260248101939093529293506001600160a01b03169163481fef8a916044015f604051808303818588803b1580156110d9575f80fd5b505af11580156110eb573d5f803e3d5ffd5b5050845160405163c13517e160e01b81526001600160a01b03909116935063c13517e19250849150611126906003908b908b90600401611d5b565b60206040518083038185885af1158015611142573d5f803e3d5ffd5b50505050506040513d601f19601f820116820180604052508101906111679190611ccf565b600c84018190555f818152607e602052604090208a90559350600260765460ff166002811115611199576111996118bd565b03611222575f6111a7611722565b5f8b815260029190910160205260409020546001600160a01b0316905080156112205760405163740ecfdb60e01b8152600160048201526001600160a01b0382169063740ecfdb906024015f604051808303815f87803b158015611209575f80fd5b505af115801561121b573d5f803e3d5ffd5b505050505b505b606d80546001600160401b0316905f61123a83611d7d565b91906101000a8154816001600160401b0302191690836001600160401b03160217905550507f034f6a48076db1bcaaa311ccdc43d473aff44d3918a76fe0fae27c8b3665016d825f01518a86338c8c89600c01600101546040516112a49796959493929190611daa565b60405180910390a150505095945050505050565b600260765460ff1660028111156112d1576112d16118bd565b146112da575050565b5f6112e3611722565b5f84815260029190910160205260409020546001600160a01b031690508061130a57505050565b81156113695760405163740ecfdb60e01b81525f60048201526001600160a01b0382169063740ecfdb906024015f604051808303815f87803b15801561134e575f80fd5b505af1158015611360573d5f803e3d5ffd5b50505050505050565b608154604051631b16777760e01b81526001600160a01b0390911690631b1677779061139b9084905f90600401611df8565b6020604051808303815f875af11580156113b7573d5f803e3d5ffd5b505050506040513d601f19601f820116820180604052508101906113db9190611d14565b6113fc57805f60405163068bc39960e41b8152600401610772929190611df8565b806001600160a01b031663eff75f156040518163ffffffff1660e01b81526004015f604051808303815f87803b15801561134e575f80fd5b60855460ff1661144057565b6084541561145d5760848054905f61145783611e1a565b91905055505b565b5f8181526087602052604081205490819003611479575050565b5f611485600183611ce6565b6086549091505f9061149990600190611ce6565b90505f608682815481106114af576114af611e2f565b905f5260205f20015490508183146114fa5780608684815481106114d5576114d5611e2f565b5f918252602090912001556114eb836001611a67565b5f828152608760205260409020555b608680548061150b5761150b611e43565b600190038181905f5260205f20015f9055905560875f8681526020019081526020015f205f90555050505050565b60795460405163099ea56b60e41b8152600481018690526001600160a01b03858116602483015260448201849052909116906399ea56b0906064015b5f604051808303815f87803b15801561158c575f80fd5b505af192505050801561159d575060015b611620573d8080156115ca576040519150601f19603f3d011682016040523d82523d5f602084013e6115cf565b606091505b50826001600160a01b0316846001600160a01b0316867fd0e59ae92e958d7c385e0659f1a9d59e8a3ad92f2d4a289abeeb6c3d7562092c8585604051611616929190611e57565b60405180910390a4505b50505050565b607954604051638969ab5360e01b8152600481018690526001600160a01b03858116602483015284811660448301526064820184905290911690638969ab5390608401611575565b5f61167a848484611746565b949350505050565b60835460405163288c314960e21b81526001600160a01b039091169063a230c524906116b2908490600401611877565b602060405180830381865afa1580156116cd573d5f803e3d5ffd5b505050506040513d601f19601f820116820180604052508101906116f19190611d14565b61171f57607854604051636332657560e11b81526107729183916001600160a01b0390911690600401611a7a565b50565b7fd5d05b1f29dcb0c0e1698b0261850eb784d1243215a6aa22ea2b8128b2e9497c90565b5f83158061175b57506001600160a01b038216155b806117775750816001600160a01b0316836001600160a01b0316145b15611783575082610dc3565b61167a846117908461179e565b6117998661179e565b611805565b5f816001600160a01b031663313ce5676040518163ffffffff1660e01b8152600401602060405180830381865afa9250505080156117f9575060408051601f3d908101601f191682019092526117f691810190611e90565b60015b6106ac57506012919050565b5f83158061181857508160ff168360ff16145b15611824575082610dc3565b8160ff168360ff1610156118585761183c8383611eb0565b61184790600a611fa9565b6118519085611fb7565b9050610dc3565b6118628284611eb0565b61186d90600a611fa9565b61167a9085611aaf565b6001600160a01b0391909116815260200190565b5f6020828403121561189b575f80fd5b5035919050565b93845260208401929092526040830152606082015260800190565b634e487b7160e01b5f52602160045260245ffd5b60208101600583106118e5576118e56118bd565b91905290565b5f80604083850312156118fc575f80fd5b50508035926020909101359150565b60208101600383106118e5576118e56118bd565b6001600160a01b038116811461171f575f80fd5b5f60208284031215611943575f80fd5b8135610dc38161191f565b5f806040838503121561195f575f80fd5b823561196a8161191f565b946020939093013593505050565b5f8083601f840112611988575f80fd5b5081356001600160401b0381111561199e575f80fd5b6020830191508360208285010111156119b5575f80fd5b9250929050565b5f805f805f606086880312156119d0575f80fd5b8535945060208601356001600160401b03808211156119ed575f80fd5b6119f989838a01611978565b90965094506040880135915080821115611a11575f80fd5b50611a1e88828901611978565b969995985093965092949392505050565b8281526040810160078310611a4657611a466118bd565b8260208301529392505050565b634e487b7160e01b5f52601160045260245ffd5b808201808211156106ac576106ac611a53565b6001600160a01b0392831681529116602082015260400190565b5f60208284031215611aa4575f80fd5b8151610dc38161191f565b5f82611ac957634e487b7160e01b5f52601260045260245ffd5b500490565b5f6001600160401b03821680611ae657611ae6611a53565b5f190192915050565b634e487b7160e01b5f52604160045260245ffd5b60405160c081016001600160401b0381118282101715611b2557611b25611aef565b60405290565b604080519081016001600160401b0381118282101715611b2557611b25611aef565b604051601f8201601f191681016001600160401b0381118282101715611b7557611b75611aef565b604052919050565b5f5b83811015611b97578181015183820152602001611b7f565b50505f910152565b5f6020808385031215611bb0575f80fd5b82516001600160401b0380821115611bc6575f80fd5b9084019060c08287031215611bd9575f80fd5b611be1611b03565b8251815283830151611bf28161191f565b818501526040830151611c048161191f565b6040820152606083015182811115611c1a575f80fd5b830160408189031215611c2b575f80fd5b611c33611b2b565b815181528582015184811115611c47575f80fd5b80830192505088601f830112611c5b575f80fd5b815184811115611c6d57611c6d611aef565b611c7f601f8201601f19168801611b4d565b94508085528987828501011115611c94575f80fd5b611ca381888701898601611b7d565b50948501929092526060810193909352506080818101519083015260a090810151908201529392505050565b5f60208284031215611cdf575f80fd5b5051919050565b818103818111156106ac576106ac611a53565b5f8251611d0a818460208701611b7d565b9190910192915050565b5f60208284031215611d24575f80fd5b81518015158114610dc3575f80fd5b81835281816020850137505f828201602090810191909152601f909101601f19169091010190565b838152604060208201525f611d74604083018486611d33565b95945050505050565b5f6001600160401b038281166002600160401b03198101611da057611da0611a53565b6001019392505050565b6001600160a01b03888116825260208201889052604082018790528516606082015260c0608082018190525f90611de49083018587611d33565b90508260a083015298975050505050505050565b6001600160a01b039290921682526001600160801b0316602082015260400190565b5f81611e2857611e28611a53565b505f190190565b634e487b7160e01b5f52603260045260245ffd5b634e487b7160e01b5f52603160045260245ffd5b828152604060208201525f8251806040840152611e7b816060850160208701611b7d565b601f01601f1916919091016060019392505050565b5f60208284031215611ea0575f80fd5b815160ff81168114610dc3575f80fd5b60ff82811682821603908111156106ac576106ac611a53565b600181815b80851115611f0357815f1904821115611ee957611ee9611a53565b80851615611ef657918102915b93841c9390800290611ece565b509250929050565b5f82611f19575060016106ac565b81611f2557505f6106ac565b8160018114611f3b5760028114611f4557611f61565b60019150506106ac565b60ff841115611f5657611f56611a53565b50506001821b6106ac565b5060208310610133831016604e8410600b8410161715611f84575081810a6106ac565b611f8e8383611ec9565b805f1904821115611fa157611fa1611a53565b029392505050565b5f610dc360ff841683611f0b565b80820281158282048414176106ac576106ac611a5356fea164736f6c6343000817000a608060405234801561000f575f80fd5b5061165c8061001d5f395ff3fe608060405234801561000f575f80fd5b506004361061022e575f3560e01c806305caa7f31461023257806309b65e661461025b5780630bece79c1461027e5780630c0512e914610291578063125fd1d9146102a8578063136439dd146102b15780631374b22d146102c65780631add1a0d146102d95780631b36f56f146102ec578063222a3a04146102ff5780632506b87014610312578063255ffb38146103385780632d2ebbef146103575780632dbd6fdd1461036a5780633396045914610389578063351d9f96146103925780633f4ba83a146103ac57806341bb7605146103b45780634ab4ba421461043b5780634c3ceb5b146104435780634d33f6c91461044b57806353ca476c1461046a5780635db64b991461047d5780636003e4141461049c57806360b0645a146104af57806360b47789146104c2578063626c47e8146104ca57806376e43099146104d257806380c4a65f146104db57806380fd91cd146104ee578063817b1cd214610501578063868c57b81461050a5780638dc830941461051d578063914bdef01461044357806394573cbb14610525578063962896f61461052e578063a28889e11461053b578063a47ff7e514610566578063aba9ffee14610570578063adaf157b14610579578063b187bd2614610581578063b6c61f3114610589578063bac1e94b1461059c578063cf7ae90c146105af578063da748b10146105bc578063dfe9ec5814610443578063ee50ee1b146105c4578063f5be3f7c146105cc575b5f80fd5b608054610245906001600160a01b031681565b6040516102529190611139565b60405180910390f35b61026e610269366004611164565b6105d5565b6040519015158152602001610252565b607954610245906001600160a01b031681565b61029a606e5481565b604051908152602001610252565b61029a606f5481565b6102c46102bf36600461117d565b61066c565b005b61026e6102d436600461117d565b6106dd565b6102c46102e73660046111a8565b610717565b608154610245906001600160a01b031681565b6102c461030d3660046111a8565b610771565b6072546073546074546075546103289392919084565b60405161025294939291906111c3565b61029a61034636600461117d565b607e6020525f908152604090205481565b61029a610365366004611164565b610785565b60765461037c90610100900460ff1681565b60405161025291906111f2565b61029a606c5481565b60765461039f9060ff1681565b604051610252919061120c565b6102c46107fa565b6104036103c236600461117d565b607f6020525f90815260409020805460018201546002830154600384015460048501546005909501546001600160a01b039485169593909416939192909186565b604080516001600160a01b039788168152969095166020870152938501929092526060840152608083015260a082015260c001610252565b61029a610864565b61029a608081565b61029a61045936600461117d565b60876020525f908152604090205481565b61029a61047836600461117d565b610a53565b61029a61048b3660046111a8565b607c6020525f908152604090205481565b607854610245906001600160a01b031681565b61029a6104bd36600461117d565b610a72565b610245610b2f565b61029a600381565b61029a60845481565b6102c46104e9366004611220565b610b47565b608354610245906001600160a01b031681565b61029a60705481565b61029a610518366004611248565b610bc8565b61026e610bf3565b61029a60825481565b60855461026e9060ff1681565b606d5461054e906001600160401b031681565b6040516001600160401b039091168152602001610252565b60775461029a9081565b61029a60715481565b610245610cef565b61026e610d0a565b607a54610245906001600160a01b031681565b6102c46105aa366004611164565b610d9d565b60885461026e9060ff1681565b61029a610dda565b61029a604081565b61029a611c2081565b5f806105df610e52565b546001600160a01b03169050806105f857505f92915050565b6040516374b896f160e01b81526001600160a01b038216906374b896f1906106269030908790600401611264565b602060405180830381865afa158015610641573d5f803e3d5ffd5b505050506040513d601f19601f820116820180604052508101906106659190611287565b9392505050565b610674610e76565b61067c610e88565b6040516320880da160e21b8152306004820152602481018390526001600160a01b0391909116906382203684906044015b5f604051808303815f87803b1580156106c4575f80fd5b505af11580156106d6573d5f803e3d5ffd5b5050505050565b5f818152607b60205260408120541580159061071157505f828152607b60205260409020600501546001600160a01b031615155b92915050565b61071f610e76565b80610728610e52565b80546001600160a01b0319166001600160a01b03928316179055604051908216907f0146e1c9acb28e36c81f5635cb4ae73b05d0712996d2cc1b3823065e0e849403905f90a250565b610779610ec1565b61078281610f0a565b50565b5f61078e610e88565b6001600160a01b03166331947ea430846040518363ffffffff1660e01b81526004016107bb929190611264565b602060405180830381865afa1580156107d6573d5f803e3d5ffd5b505050506040513d601f19601f8201168201806040525081019061071191906112a6565b610802610e76565b61080a610e88565b6001600160a01b03166357b001f9306040518263ffffffff1660e01b81526004016108359190611139565b5f604051808303815f87803b15801561084c575f80fd5b505af115801561085e573d5f803e3d5ffd5b50505050565b60655460685460405163068bcd8d60e01b81525f9283926001600160a01b039091169163068bcd8d9161089d9160040190815260200190565b5f60405180830381865afa1580156108b7573d5f803e3d5ffd5b505050506040513d5f823e601f3d908101601f191682016040526108de919081019061136d565b60400151905073eeeeeeeeeeeeeeeeeeeeeeeeeeeeeeeeeeeeeeed196001600160a01b03821601610910574791505090565b6040516370a0823160e01b81525f906001600160a01b038316906370a082319061093e903090600401611139565b602060405180830381865afa158015610959573d5f803e3d5ffd5b505050506040513d601f19601f8201168201806040525081019061097d91906112a6565b6080549091506001600160a01b039081169083160361099c5792915050565b6080545f906001600160a01b031615610a23576080546040516370a0823160e01b81526001600160a01b03909116906370a08231906109df903090600401611139565b602060405180830381865afa1580156109fa573d5f803e3d5ffd5b505050506040513d601f19601f82011682018060405250810190610a1e91906112a6565b610a25565b5f5b608054909150610a4190829085906001600160a01b0316610f8b565b610a4b90836114b1565b935050505090565b60868181548110610a62575f80fd5b5f91825260209091200154905081565b5f818152607b60205260408120610a87610bf3565b610a95576003015492915050565b73__$f1b7c69ba751c396eddc93d3bbc5414fd9$__63010dfe64826007015443610abf91906114c4565b600384015460028501546074546040516001600160e01b031960e087901b168152610af094939291906004016111c3565b602060405180830381865af4158015610b0b573d5f803e3d5ffd5b505050506040513d601f19601f8201168201806040525081019061066591906112a6565b5f610b38610e52565b546001600160a01b0316919050565b610b4f610e76565b610b57610e88565b604051635686c94b60e01b81523060048201526001600160e01b031984166024820152604481018390526001600160a01b039190911690635686c94b906064015f604051808303815f87803b158015610bae575f80fd5b505af1158015610bc0573d5f803e3d5ffd5b505050505050565b607d602052815f5260405f208181548110610be1575f80fd5b905f5260205f20015f91509150505481565b6078545f906001600160a01b0316610c0b5750600190565b6078546040515f9182916001600160a01b0390911690633a871fe160e01b90610c38903090602401611139565b60408051601f198184030181529181526020820180516001600160e01b03166001600160e01b0319909416939093179092529051610c7691906114d7565b5f60405180830381855afa9150503d805f8114610cae576040519150601f19603f3d011682016040523d82523d5f602084013e610cb3565b606091505b5091509150811580610cc6575060208151105b15610cd45760019250505090565b80806020019051810190610ce89190611287565b9250505090565b5f610cf8610e52565b600101546001600160a01b0316919050565b5f80610d14610e52565b546001600160a01b0316905080610d2c575f91505090565b604051635b14f18360e01b81526001600160a01b03821690635b14f18390610d58903090600401611139565b602060405180830381865afa158015610d73573d5f803e3d5ffd5b505050506040513d601f19601f82011682018060405250810190610d979190611287565b91505090565b610da5610e76565b610dad610e88565b6001600160a01b031663439d27ae30836040518363ffffffff1660e01b81526004016106ad929190611264565b5f610de3610e88565b6001600160a01b0316631d9ca3ad306040518263ffffffff1660e01b8152600401610e0e9190611139565b602060405180830381865afa158015610e29573d5f803e3d5ffd5b505050506040513d601f19601f82011682018060405250810190610e4d91906112a6565b905090565b7f12ec43b97389db0cfbdf8d85f200f1b822123856376a9d75d3a6918f27c903bb90565b610e7e610ec1565b610e86610f9f565b565b5f80610e92610e52565b546001600160a01b0316905080610ebc57604051639180dfdf60e01b815260040160405180910390fd5b919050565b5f610eca610ff5565b9050336001600160a01b0382161461078257604051631194af8760e11b81523360048201526001600160a01b038216602482015260440160405180910390fd5b6001600160a01b038116610f1b5750565b5f610f24610e52565b60018101549091506001600160a01b03838116911614610f87576001810180546001600160a01b0319166001600160a01b0384169081179091556040517f753b6c036896e564d6b8cfc7934ffd7ff1f0c8f82aabd101f0549db25b7971b6905f90a25b5050565b5f610f97848484611008565b949350505050565b5f7fc8fcad8db84d3cc18b4c41d551ea0ee66dd599cde068d998e57d5e09332c131c5f80356001600160e01b0319168152602082905260409020549091506001600160a01b03168015610f8757610f8781610f0a565b5f610e4d6033546001600160a01b031690565b5f83158061101d57506001600160a01b038216155b806110395750816001600160a01b0316836001600160a01b0316145b15611045575082610665565b610f978461105284611060565b61105b86611060565b6110c7565b5f816001600160a01b031663313ce5676040518163ffffffff1660e01b8152600401602060405180830381865afa9250505080156110bb575060408051601f3d908101601f191682019092526110b8918101906114f2565b60015b61071157506012919050565b5f8315806110da57508160ff168360ff16145b156110e6575082610665565b8160ff168360ff16101561111a576110fe8383611512565b61110990600a61160b565b6111139085611619565b9050610665565b6111248284611512565b61112f90600a61160b565b610f979085611630565b6001600160a01b0391909116815260200190565b80356001600160e01b031981168114610ebc575f80fd5b5f60208284031215611174575f80fd5b6106658261114d565b5f6020828403121561118d575f80fd5b5035919050565b6001600160a01b0381168114610782575f80fd5b5f602082840312156111b8575f80fd5b813561066581611194565b93845260208401929092526040830152606082015260800190565b634e487b7160e01b5f52602160045260245ffd5b6020810160058310611206576112066111de565b91905290565b6020810160038310611206576112066111de565b5f8060408385031215611231575f80fd5b61123a8361114d565b946020939093013593505050565b5f8060408385031215611259575f80fd5b823561123a81611194565b6001600160a01b039290921682526001600160e01b031916602082015260400190565b5f60208284031215611297575f80fd5b81518015158114610665575f80fd5b5f602082840312156112b6575f80fd5b5051919050565b634e487b7160e01b5f52604160045260245ffd5b60405160c081016001600160401b03811182821017156112f3576112f36112bd565b60405290565b604080519081016001600160401b03811182821017156112f3576112f36112bd565b604051601f8201601f191681016001600160401b0381118282101715611343576113436112bd565b604052919050565b5f5b8381101561136557818101518382015260200161134d565b50505f910152565b5f602080838503121561137e575f80fd5b82516001600160401b0380821115611394575f80fd5b9084019060c082870312156113a7575f80fd5b6113af6112d1565b82518152838301516113c081611194565b8185015260408301516113d281611194565b60408201526060830151828111156113e8575f80fd5b8301604081890312156113f9575f80fd5b6114016112f9565b815181528582015184811115611415575f80fd5b80830192505088601f830112611429575f80fd5b81518481111561143b5761143b6112bd565b61144d601f8201601f1916880161131b565b94508085528987828501011115611462575f80fd5b6114718188870189860161134b565b50948501929092526060810193909352506080818101519083015260a090810151908201529392505050565b634e487b7160e01b5f52601160045260245ffd5b808201808211156107115761071161149d565b818103818111156107115761071161149d565b5f82516114e881846020870161134b565b9190910192915050565b5f60208284031215611502575f80fd5b815160ff81168114610665575f80fd5b60ff82811682821603908111156107115761071161149d565b600181815b8085111561156557815f190482111561154b5761154b61149d565b8085161561155857918102915b93841c9390800290611530565b509250929050565b5f8261157b57506001610711565b8161158757505f610711565b816001811461159d57600281146115a7576115c3565b6001915050610711565b60ff8411156115b8576115b861149d565b50506001821b610711565b5060208310610133831016604e8410600b84101617156115e6575081810a610711565b6115f0838361152b565b805f19048211156116035761160361149d565b029392505050565b5f61066560ff84168361156d565b80820281158282048414176107115761071161149d565b5f8261164a57634e487b7160e01b5f52601260045260245ffd5b50049056fea164736f6c6343000817000a608060405234801561000f575f80fd5b506123ac8061001d5f395ff3fe608060405234801561000f575f80fd5b50600436106101e1575f3560e01c806305caa7f3146101e55780630bece79c1461020e5780630c0512e914610221578063125fd1d9146102385780631374b22d146102415780631b36f56f146102645780631ddf1e23146102775780632506b87014610281578063255ffb38146102a75780632dbd6fdd146102c65780632ed04b2b146102e557806333960459146102f8578063351d9f961461030157806341bb76051461031b5780634ab4ba42146103a25780634c3ceb5b146103aa5780634d33f6c9146103b257806353ca476c146103d15780635db64b99146103e45780636003e4141461040357806360b0645a14610416578063626c47e8146104295780636453d9c41461043157806376e4309914610444578063782aadff1461044d57806380fd91cd14610460578063814516ad14610473578063817b1cd21461047b578063868c57b8146104845780638dc8309414610497578063914bdef0146103aa57806394573cbb1461049f578063962896f6146104a8578063a28889e1146104b5578063a47ff7e5146104e0578063aba9ffee146104ea578063b6c61f31146104f3578063cf7ae90c14610506578063dfe9ec58146103aa578063ee50ee1b14610513578063f5be3f7c1461051b575b5f80fd5b6080546101f8906001600160a01b031681565b6040516102059190611dc4565b60405180910390f35b6079546101f8906001600160a01b031681565b61022a606e5481565b604051908152602001610205565b61022a606f5481565b61025461024f366004611dd8565b610524565b6040519015158152602001610205565b6081546101f8906001600160a01b031681565b61027f61055e565b005b6072546073546074546075546102979392919084565b6040516102059493929190611def565b61022a6102b5366004611dd8565b607e6020525f908152604090205481565b6076546102d890610100900460ff1681565b6040516102059190611e32565b61022a6102f3366004611e54565b610569565b61022a606c5481565b60765461030e9060ff1681565b6040516102059190611e7e565b61036a610329366004611dd8565b607f6020525f90815260409020805460018201546002830154600384015460048501546005909501546001600160a01b039485169593909416939192909186565b604080516001600160a01b039788168152969095166020870152938501929092526060840152608083015260a082015260c001610205565b61022a6108e5565b61022a608081565b61022a6103c0366004611dd8565b60876020525f908152604090205481565b61022a6103df366004611dd8565b610ad4565b61022a6103f2366004611e98565b607c6020525f908152604090205481565b6078546101f8906001600160a01b031681565b61022a610424366004611dd8565b610af3565b61022a600381565b61027f61043f366004611e98565b610bb7565b61022a60845481565b61022a61045b366004611e54565b610bff565b6083546101f8906001600160a01b031681565b61027f610f3f565b61022a60705481565b61022a610492366004611e54565b61108e565b6102546110b9565b61022a60825481565b6085546102549060ff1681565b606d546104c8906001600160401b031681565b6040516001600160401b039091168152602001610205565b60775461022a9081565b61022a60715481565b607a546101f8906001600160a01b031681565b6088546102549060ff1681565b61022a604081565b61022a611c2081565b5f818152607b60205260408120541580159061055857505f828152607b60205260409020600501546001600160a01b031615155b92915050565b610567336111b5565b565b6078545f906001600160a01b031633146105b05760785460405163894215cf60e01b81526105a79133916001600160a01b0390911690600401611eb3565b60405180910390fd5b608354604051637817ee4f60e01b81525f916001600160a01b031690637817ee4f906105e29087903090600401611eb3565b602060405180830381865afa1580156105fd573d5f803e3d5ffd5b505050506040513d601f19601f820116820180604052508101906106219190611ecd565b90505f6004607654610100900460ff16600481111561064257610642611e0a565b036106da57607854604051637817ee4f60e01b81525f916001600160a01b031690637817ee4f906106799089903090600401611eb3565b6020604051808303815f875af1158015610695573d5f803e3d5ffd5b505050506040513d601f19601f820116820180604052508101906106b99190611ecd565b90508281116106c8575f6106d2565b6106d28382611ef8565b915050610773565b60835460765460775460405163ccc8a64760e01b815273__$c032285ca413f3d1dae375e8699dd757fc$__9363ccc8a64793610731936001600160a01b03909216928b928b92610100900460ff1691600401611f0b565b602060405180830381865af415801561074c573d5f803e3d5ffd5b505050506040513d601f19601f820116820180604052508101906107709190611ecd565b90505b6001600160a01b0385165f908152607c602052604081205490818411610799575f6107a3565b6107a38285611ef8565b905082811080156107b357505f82115b15610846575f8260806107c68487611ef8565b6107d192911b611f47565b90505f5b6001600160a01b0389165f908152607d602052604090205481101561083a576001600160a01b0389165f908152607d602052604090208054610832918b918490811061082357610823611f66565b905f5260205f20015484611385565b6001016107d5565b50610844886114ab565b505b8260715f8282546108579190611ef8565b909155505f9050610866611599565b6001600160a01b0389165f9081526001808301602090815260408084208a90556002850190915291829020805460ff19169091179055519091507f70b752f3fadb6ac131c0ece847fcbb6994ec56ed6411595710fd9b29c6ac6cc1906108d1908a908a908890611f7a565b60405180910390a150919695505050505050565b60655460685460405163068bcd8d60e01b81525f9283926001600160a01b039091169163068bcd8d9161091e9160040190815260200190565b5f60405180830381865afa158015610938573d5f803e3d5ffd5b505050506040513d5f823e601f3d908101601f1916820160405261095f919081019061204b565b60400151905073eeeeeeeeeeeeeeeeeeeeeeeeeeeeeeeeeeeeeeed196001600160a01b03821601610991574791505090565b6040516370a0823160e01b81525f906001600160a01b038316906370a08231906109bf903090600401611dc4565b602060405180830381865afa1580156109da573d5f803e3d5ffd5b505050506040513d601f19601f820116820180604052508101906109fe9190611ecd565b6080549091506001600160a01b0390811690831603610a1d5792915050565b6080545f906001600160a01b031615610aa4576080546040516370a0823160e01b81526001600160a01b03909116906370a0823190610a60903090600401611dc4565b602060405180830381865afa158015610a7b573d5f803e3d5ffd5b505050506040513d601f19601f82011682018060405250810190610a9f9190611ecd565b610aa6565b5f5b608054909150610ac290829085906001600160a01b03166115bd565b610acc908361217b565b935050505090565b60868181548110610ae3575f80fd5b5f91825260209091200154905081565b5f818152607b60205260408120610b086110b9565b610b16576003015492915050565b73__$f1b7c69ba751c396eddc93d3bbc5414fd9$__63010dfe64826007015443610b409190611ef8565b600384015460028501546074546040516001600160e01b031960e087901b168152610b719493929190600401611def565b602060405180830381865af4158015610b8c573d5f803e3d5ffd5b505050506040513d601f19601f82011682018060405250810190610bb09190611ecd565b9392505050565b6078546001600160a01b03163314610bf35760785460405163894215cf60e01b81526105a79133916001600160a01b0390911690600401611eb3565b610bfc816115d1565b50565b6078545f906001600160a01b03163314610c3d5760785460405163894215cf60e01b81526105a79133916001600160a01b0390911690600401611eb3565b610c468361173b565b610c6557826040516307772b5360e51b81526004016105a79190611dc4565b608354604051637817ee4f60e01b81525f916001600160a01b031690637817ee4f90610c979087903090600401611eb3565b602060405180830381865afa158015610cb2573d5f803e3d5ffd5b505050506040513d601f19601f82011682018060405250810190610cd69190611ecd565b90505f6004607654610100900460ff166004811115610cf757610cf7611e0a565b03610d8f57607854604051637817ee4f60e01b81525f916001600160a01b031690637817ee4f90610d2e9089903090600401611eb3565b6020604051808303815f875af1158015610d4a573d5f803e3d5ffd5b505050506040513d601f19601f82011682018060405250810190610d6e9190611ecd565b9050808311610d7d575f610d87565b610d878184611ef8565b915050610e28565b608354607654607754604051632c319f1360e11b815273__$c032285ca413f3d1dae375e8699dd757fc$__936358633e2693610de6936001600160a01b03909216928b928b92610100900460ff1691600401611f0b565b602060405180830381865af4158015610e01573d5f803e3d5ffd5b505050506040513d601f19601f82011682018060405250810190610e259190611ecd565b90505b60785460405163011de97360e61b81525f916001600160a01b03169063477a5cc090610e5a9089903090600401611eb3565b602060405180830381865afa158015610e75573d5f803e3d5ffd5b505050506040513d601f19601f82011682018060405250810190610e99919061218e565b90508015610eb8578160715f828254610eb2919061217b565b90915550505b5f610ec1611599565b6001600160a01b0388165f9081526001808301602090815260408084208990556002850190915291829020805460ff19169091179055519091507f0b9150e1e54346ed3fa36b977cd5d65dca5a649c737c3174a26bddaadd47667a90610f2c90899089908790611f7a565b60405180910390a1509095945050505050565b610f483361173b565b610f6757336040516307772b5360e51b81526004016105a79190611dc4565b607854604051630d4a8b4960e01b81526001600160a01b0390911690630d4a8b4990610f999033903090600401611eb3565b5f604051808303815f87803b158015610fb0575f80fd5b505af1158015610fc2573d5f803e3d5ffd5b5050608354604051637817ee4f60e01b81525f93506001600160a01b039091169150637817ee4f90610ffa9033903090600401611eb3565b602060405180830381865afa158015611015573d5f803e3d5ffd5b505050506040513d601f19601f820116820180604052508101906110399190611ecd565b90508060715f82825461104c919061217b565b909155505f905061105b611599565b335f90815260018083016020908152604080842096909655600290930190925292909220805460ff191690921790915550565b607d602052815f5260405f2081815481106110a7575f80fd5b905f5260205f20015f91509150505481565b6078545f906001600160a01b03166110d15750600190565b6078546040515f9182916001600160a01b0390911690633a871fe160e01b906110fe903090602401611dc4565b60408051601f198184030181529181526020820180516001600160e01b03166001600160e01b031990941693909317909252905161113c91906121ad565b5f60405180830381855afa9150503d805f8114611174576040519150601f19603f3d011682016040523d82523d5f602084013e611179565b606091505b509150915081158061118c575060208151105b1561119a5760019250505090565b808060200190518101906111ae919061218e565b9250505090565b60785460405163011de97360e61b81525f916001600160a01b03169063477a5cc0906111e79085903090600401611eb3565b602060405180830381865afa158015611202573d5f803e3d5ffd5b505050506040513d601f19601f82011682018060405250810190611226919061218e565b90505f81611234575f6112a5565b608354604051637817ee4f60e01b81526001600160a01b0390911690637817ee4f906112669086903090600401611eb3565b602060405180830381865afa158015611281573d5f803e3d5ffd5b505050506040513d601f19601f820116820180604052508101906112a59190611ecd565b90506112b083611954565b81156112bf576112bf81611aca565b6078546040516322bcf99960e01b81526001600160a01b03909116906322bcf999906112f19086903090600401611eb3565b5f604051808303815f87803b158015611308575f80fd5b505af115801561131a573d5f803e3d5ffd5b505050505f611327611599565b6001600160a01b0385165f90815260018201602090815260408083208390556002840190915290819020805460ff19169055519091505f8051602061236083398151915290611377908690611dc4565b60405180910390a150505050565b5f828152607b602090815260408083206001600160a01b038716845260098101909252822054909160806113b985846121c8565b6113c7906001607f1b61217b565b6113d2911c83611ef8565b90505f6113df8284611ef8565b60028501805491925082905f6113f58385611ef8565b90915550506001600160a01b0388165f908152600986016020526040812084905560708054849290611428908490611ef8565b90915550506001600160a01b0388165f908152607c602052604081208054849290611454908490611ef8565b90915550611463905085611af4565b61146d8582611b19565b5f80516020612380833981519152888885886002015489600301546040516114999594939291906121df565b60405180910390a15050505050505050565b6001600160a01b0381165f908152607d60205260408120905b8154811015611594575f8282815481106114e0576114e0611f66565b5f918252602080832090910154808352607b825260408084206001600160a01b0389168552600901909252908220549092509003611587578254839061152890600190611ef8565b8154811061153857611538611f66565b905f5260205f20015483838154811061155357611553611f66565b905f5260205f2001819055508280548061156f5761156f61220d565b600190038181905f5260205f20015f9055905561158e565b8160010191505b506114c4565b505050565b7f097c5f51be6c161c250a24cddb93265814159688a8e402290bbba8f3d8b83b9b90565b5f6115c9848484611b5e565b949350505050565b60785460405163011de97360e61b81525f916001600160a01b03169063477a5cc0906116039085903090600401611eb3565b602060405180830381865afa15801561161e573d5f803e3d5ffd5b505050506040513d601f19601f82011682018060405250810190611642919061218e565b156116bb57608354604051637817ee4f60e01b81526001600160a01b0390911690637817ee4f906116799085903090600401611eb3565b602060405180830381865afa158015611694573d5f803e3d5ffd5b505050506040513d601f19601f820116820180604052508101906116b89190611ecd565b90505b6001600160a01b0382165f908152607c60205260408120541515806116f657506001600160a01b0383165f908152607d602052604090205415155b9050801561172c5761170783611954565b5f80516020612360833981519152836040516117239190611dc4565b60405180910390a15b81156115945761159482611aca565b607a545f906001600160a01b0316156117bf57607a546040516302154c3d60e51b81526001600160a01b03909116906342a987a0906117809085903090600401611eb3565b602060405180830381865afa15801561179b573d5f803e3d5ffd5b505050506040513d601f19601f82011682018060405250810190610558919061218e565b6004607654610100900460ff1660048111156117dd576117dd611e0a565b1480156117fb57506078546083546001600160a01b03908116911614155b156118305760835460405163288c314960e21b81526001600160a01b039091169063a230c52490611780908590600401611dc4565b6068546040516810531313d5d31254d560ba1b602082015260298101919091525f9060490160408051601f19818403018152908290528051602090910120607854632474521560e21b83529092506001600160a01b0316906391d148549061189e9084905f90600401612221565b602060405180830381865afa1580156118b9573d5f803e3d5ffd5b505050506040513d601f19601f820116820180604052508101906118dd919061218e565b80610bb05750607854604051632474521560e21b81526001600160a01b03909116906391d14854906119159084908790600401612221565b602060405180830381865afa158015611930573d5f803e3d5ffd5b505050506040513d601f19601f82011682018060405250810190610bb0919061218e565b5f5b6001600160a01b0382165f908152607d6020526040902054811015611a9c576001600160a01b0382165f908152607d6020526040812080548390811061199e5761199e611f66565b5f918252602080832090910154808352607b90915260409091209091506119c482610524565b15611a91576001600160a01b0384165f908152600982016020526040812054908190036119f357505050611a94565b6002820180546001600160a01b0387165f9081526009850160205260408120819055825491928492909190611a29908490611ef8565b925050819055508160705f828254611a419190611ef8565b90915550611a50905083611af4565b611a5a8382611b19565b5f8051602061238083398151915286855f86600201548760030154604051611a869594939291906121df565b60405180910390a150505b50505b600101611956565b506001600160a01b0381165f908152607c60209081526040808320839055607d9091528120610bfc91611d96565b607154811115611adb575f60715550565b8060715f828254611aec9190611ef8565b909155505050565b6012810154801580611b07575080607154115b15611b155760715460128301555b5050565b5f80611b258484611bb6565b91509150815f148015611b36575080155b15611b415750505050565b6007840181905560038401829055611b5884611af4565b50505050565b5f831580611b7357506001600160a01b038216155b80611b8f5750816001600160a01b0316836001600160a01b0316145b15611b9b575082610bb0565b6115c984611ba884611cbd565b611bb186611cbd565b611d24565b5f80611bc06110b9565b611bd1575050600382015443611cb6565b4390508084600701541115611c0957600784015460405163102300bd60e01b81526004810191909152602481018290526044016105a7565b80846007015403611c1e57505f905080611cb6565b73__$f1b7c69ba751c396eddc93d3bbc5414fd9$__63010dfe64856007015483611c489190611ef8565b60038701546074546040516001600160e01b031960e086901b168152611c749392918991600401611def565b602060405180830381865af4158015611c8f573d5f803e3d5ffd5b505050506040513d601f19601f82011682018060405250810190611cb39190611ecd565b91505b9250929050565b5f816001600160a01b031663313ce5676040518163ffffffff1660e01b8152600401602060405180830381865afa925050508015611d18575060408051601f3d908101601f19168201909252611d1591810190612238565b60015b61055857506012919050565b5f831580611d3757508160ff168360ff16145b15611d43575082610bb0565b8160ff168360ff161015611d7757611d5b8383612258565b611d6690600a612351565b611d7090856121c8565b9050610bb0565b611d818284612258565b611d8c90600a612351565b6115c99085611f47565b5080545f8255905f5260205f2090810190610bfc91905b80821115611dc0575f8155600101611dad565b5090565b6001600160a01b0391909116815260200190565b5f60208284031215611de8575f80fd5b5035919050565b93845260208401929092526040830152606082015260800190565b634e487b7160e01b5f52602160045260245ffd5b60058110611e2e57611e2e611e0a565b9052565b602081016105588284611e1e565b6001600160a01b0381168114610bfc575f80fd5b5f8060408385031215611e65575f80fd5b8235611e7081611e40565b946020939093013593505050565b6020810160038310611e9257611e92611e0a565b91905290565b5f60208284031215611ea8575f80fd5b8135610bb081611e40565b6001600160a01b0392831681529116602082015260400190565b5f60208284031215611edd575f80fd5b5051919050565b634e487b7160e01b5f52601160045260245ffd5b8181038181111561055857610558611ee4565b6001600160a01b038681168252851660208201526040810184905260a08101611f376060830185611e1e565b8260808301529695505050505050565b5f82611f6157634e487b7160e01b5f52601260045260245ffd5b500490565b634e487b7160e01b5f52603260045260245ffd5b6001600160a01b039390931683526020830191909152604082015260600190565b634e487b7160e01b5f52604160045260245ffd5b60405160c081016001600160401b0381118282101715611fd157611fd1611f9b565b60405290565b604080519081016001600160401b0381118282101715611fd157611fd1611f9b565b604051601f8201601f191681016001600160401b038111828210171561202157612021611f9b565b604052919050565b5f5b8381101561204357818101518382015260200161202b565b50505f910152565b5f602080838503121561205c575f80fd5b82516001600160401b0380821115612072575f80fd5b9084019060c08287031215612085575f80fd5b61208d611faf565b825181528383015161209e81611e40565b8185015260408301516120b081611e40565b60408201526060830151828111156120c6575f80fd5b8301604081890312156120d7575f80fd5b6120df611fd7565b8151815285820151848111156120f3575f80fd5b80830192505088601f830112612107575f80fd5b81518481111561211957612119611f9b565b61212b601f8201601f19168801611ff9565b94508085528987828501011115612140575f80fd5b61214f81888701898601612029565b50948501929092526060810193909352506080818101519083015260a090810151908201529392505050565b8082018082111561055857610558611ee4565b5f6020828403121561219e575f80fd5b81518015158114610bb0575f80fd5b5f82516121be818460208701612029565b9190910192915050565b808202811582820484141761055857610558611ee4565b6001600160a01b03959095168552602085019390935260408401919091526060830152608082015260a00190565b634e487b7160e01b5f52603160045260245ffd5b9182526001600160a01b0316602082015260400190565b5f60208284031215612248575f80fd5b815160ff81168114610bb0575f80fd5b60ff828116828216039081111561055857610558611ee4565b600181815b808511156122ab57815f190482111561229157612291611ee4565b8085161561229e57918102915b93841c9390800290612276565b509250929050565b5f826122c157506001610558565b816122cd57505f610558565b81600181146122e357600281146122ed57612309565b6001915050610558565b60ff8411156122fe576122fe611ee4565b50506001821b610558565b5060208310610133831016604e8410600b841016171561232c575081810a610558565b6123368383612271565b805f190482111561234957612349611ee4565b029392505050565b5f610bb060ff8416836122b356fe1468da654b37bb3631011c1917d02e0db437d519918858d40b38b5e980ca033b0227f642ddcf2042ceaeafadb9d540f432072c00cd4862881667168dcc14710fa164736f6c6343000817000a608060405234801561000f575f80fd5b506127da8061001d5f395ff3fe6080604052600436106101eb575f3560e01c806305caa7f3146101ef5780630bece79c146102245780630c0512e914610243578063125fd1d9146102665780631374b22d1461027b578063141e3b38146102aa578063165035e2146102cb5780631b36f56f146102e05780632506b870146102ff578063255ffb38146103315780632bbe0cae1461035c5780632cea13f91461036f5780632dbd6fdd1461038357806333960459146103ae578063351d9f96146103c357806341bb7605146103e95780634ab4ba421461047c5780634c3ceb5b146104905780634d33f6c9146104a457806353ca476c146104cf5780635db64b99146104ee5780636003e4141461051957806360b0645a14610538578063626c47e81461055757806376e430991461056b57806380fd91cd14610580578063817b1cd21461059f578063868c57b8146105b45780638dc83094146105d3578063914bdef01461049057806394573cbb146105e7578063962896f6146105fc578063a28889e114610615578063a47ff7e51461064c578063aba9ffee14610662578063b04b5b2614610677578063b3de272d14610696578063b6c61f31146106aa578063cf7ae90c146106c9578063dfe9ec5814610490578063e0a8f6f5146106e2578063ee50ee1b14610701578063f5be3f7c14610715575b5f80fd5b3480156101fa575f80fd5b5060805461020e906001600160a01b031681565b60405161021b9190611db7565b60405180910390f35b34801561022f575f80fd5b5060795461020e906001600160a01b031681565b34801561024e575f80fd5b50610258606e5481565b60405190815260200161021b565b348015610271575f80fd5b50610258606f5481565b348015610286575f80fd5b5061029a610295366004611dcb565b61072a565b604051901515815260200161021b565b3480156102b5575f80fd5b506102c96102c4366004611f12565b610764565b005b3480156102d6575f80fd5b50610258610e1081565b3480156102eb575f80fd5b5060815461020e906001600160a01b031681565b34801561030a575f80fd5b506072546073546074546075546103219392919084565b60405161021b9493929190611fbb565b34801561033c575f80fd5b5061025861034b366004611dcb565b607e6020525f908152604090205481565b61020e61036a366004611fd6565b610b51565b34801561037a575f80fd5b506102586111f5565b34801561038e575f80fd5b506076546103a190610100900460ff1681565b60405161021b919061204b565b3480156103b9575f80fd5b50610258606c5481565b3480156103ce575f80fd5b506076546103dc9060ff1681565b60405161021b9190612065565b3480156103f4575f80fd5b50610444610403366004611dcb565b607f6020525f90815260409020805460018201546002830154600384015460048501546005909501546001600160a01b039485169593909416939192909186565b604080516001600160a01b039788168152969095166020870152938501929092526060840152608083015260a082015260c00161021b565b348015610487575f80fd5b50610258611204565b34801561049b575f80fd5b50610258608081565b3480156104af575f80fd5b506102586104be366004611dcb565b60876020525f908152604090205481565b3480156104da575f80fd5b506102586104e9366004611dcb565b6113f3565b3480156104f9575f80fd5b50610258610508366004612079565b607c6020525f908152604090205481565b348015610524575f80fd5b5060785461020e906001600160a01b031681565b348015610543575f80fd5b50610258610552366004611dcb565b611412565b348015610562575f80fd5b50610258600381565b348015610576575f80fd5b5061025860845481565b34801561058b575f80fd5b5060835461020e906001600160a01b031681565b3480156105aa575f80fd5b5061025860705481565b3480156105bf575f80fd5b506102586105ce366004612094565b6114d6565b3480156105de575f80fd5b5061029a611501565b3480156105f2575f80fd5b5061025860825481565b348015610607575f80fd5b5060855461029a9060ff1681565b348015610620575f80fd5b50606d54610634906001600160401b031681565b6040516001600160401b03909116815260200161021b565b348015610657575f80fd5b506077546102589081565b34801561066d575f80fd5b5061025860715481565b348015610682575f80fd5b5061020e610691366004611dcb565b6115fd565b3480156106a1575f80fd5b50610258611622565b3480156106b5575f80fd5b50607a5461020e906001600160a01b031681565b3480156106d4575f80fd5b5060885461029a9060ff1681565b3480156106ed575f80fd5b506102c96106fc366004611dcb565b611634565b34801561070c575f80fd5b50610258604081565b348015610720575f80fd5b50610258611c2081565b5f818152607b60205260408120541580159061075e57505f828152607b60205260409020600501546001600160a01b031615155b92915050565b5f848152607b602052604090206001600882015460ff16600681111561078c5761078c612037565b146107d6576008810154859060ff1660068111156107ac576107ac612037565b60405163052d1a7b60e21b8152600481019290925260ff1660248201526044015b60405180910390fd5b60058101546001600160a01b0316331461081857600581015460405163d46ad8a960e01b81526107cd9187916001600160a01b039091169033906004016120be565b5f600160765460ff16600281111561083257610832612037565b1461083d575f61083f565b825b9050808260010154146108a25760028201541561088657600182015460405163b501861760e01b8152600481018890526024810191909152604481018290526064016107cd565b600182018190555f600383018190556007830181905560128301555b5f610e108360110154426108b691906120f1565b60048501546020890151600b870180549490931194506001600160a01b0389811692169190911415925f9261097992916108ef90612104565b80601f016020809104026020016040519081016040528092919081815260200182805461091b90612104565b80156109665780601f1061093d57610100808354040283529160200191610966565b820191905f5260205f20905b81548152906001019060200180831161094957829003601f168201915b505050505061192d90919063ffffffff16565b1590508115610a1e576002850154156109b75760048086015460405163383c5bd960e01b81526107cd928c926001600160a01b0316918b91016120be565b8215610a0057600485810154601187015460405163d209029d60e01b81529283018c90526001600160a01b039182166024840152908916604483015260648201526084016107cd565b6004850180546001600160a01b0319166001600160a01b0389161790555b8015610a6a578215610a545760208801516011860154604051637195b4df60e01b81526107cd928c92600b8a0192600401612189565b6020880151600b860190610a689082612282565b505b818015610a8d5750600260765460ff166002811115610a8b57610a8b612037565b145b15610b09575f610a9c8a6115fd565b90506001600160a01b03811615610b07576040516301c31f7160e41b81526001600160a01b03821690631c31f71090610ad9908b90600401611db7565b5f604051808303815f87803b158015610af0575f80fd5b505af1158015610b02573d5f803e3d5ffd5b505050505b505b7f9609630cea289ffd759de85c8dc9196b11897c540de741d67239c33751860abe89898989604051610b3e9493929190612341565b60405180910390a1505050505050505050565b6065545f906001600160a01b03163314610b8f57606554604051636ca3252960e01b81526107cd9133916001600160a01b0390911690600401612389565b6068545f03610bb75760685460405163243d58fb60e21b81526004016107cd91815260200190565b610bc082611943565b60785460405163208a40f360e11b81526001600160a01b039091169063411481e690610bf0903090600401611db7565b5f6040518083038186803b158015610c06575f80fd5b505afa158015610c18573d5f803e3d5ffd5b505050505f83806020019051810190610c31919061242b565b9050600160765460ff166002811115610c4c57610c4c612037565b03610d1157606554815160405163068bcd8d60e01b81526001600160a01b03909216915f91839163068bcd8d91610c899160040190815260200190565b5f60405180830381865afa158015610ca3573d5f803e3d5ffd5b505050506040513d5f823e601f3d908101601f19168201604052610cca91908101906124cc565b604001519050806001600160a01b031683606001516001600160a01b031614610d0e578260600151816040516304976e1760e31b81526004016107cd929190612389565b50505b606f545f908152607f60205260409020546001600160a01b0316610d48576040516303674f9160e41b815260040160405180910390fd5b606f545f908152607f6020526040902060020154341015610d9b57606f545f908152607f602052604090819020600201549051632c1f8ef160e21b815234600482015260248101919091526044016107cd565b610da36119e3565b608060845410610dd4576084546040516302ba22b560e31b81526004810191909152608060248201526044016107cd565b5f606e5f8154610de39061257a565b9182905550608480549192505f610df98361257a565b90915550505f818152607b602090815260409091208281556005810180546001600160a01b03199081166001600160a01b03898116919091179092559285015160048301805485169183169190911790556060850151600683018054909416911617909155600160765460ff166002811115610e7757610e77612037565b14610e82575f610e88565b82604001515b60018281019190915560088201805460ff191690911790554360078201554260118201555f600382015560808301518051600a83019081556020820151600b840190610ed49082612282565b5050606f54601083015550607954600582015460405163240ff7c560e11b8152600481018590526001600160a01b03918216602482015291169063481fef8a9034906044015f604051808303818588803b158015610f30575f80fd5b505af1158015610f42573d5f803e3d5ffd5b505f935060029250610f52915050565b60765460ff166002811115610f6957610f69612037565b036111a0576078546040805163f86c5f8960e01b815290515f926001600160a01b03169163f86c5f899160048083019260209291908290030181865afa158015610fb5573d5f803e3d5ffd5b505050506040513d601f19601f82011682018060405250810190610fd99190612592565b6001600160a01b0316637f7960f36040518163ffffffff1660e01b8152600401602060405180830381865afa158015611014573d5f803e3d5ffd5b505050506040513d601f19601f820116820180604052508101906110389190612592565b90506001600160a01b038116611061576040516305d720b760e51b815260040160405180910390fd5b608054608154600485810154604051630543c30760e41b81526001600160a01b0394851692810192909252918316602482015290821660448201523060648201525f9183169063543c3070906084016020604051808303815f875af11580156110cc573d5f803e3d5ffd5b505050506040513d601f19601f820116820180604052508101906110f09190612592565b90506110fc8582611a61565b608154604051631b16777760e01b815291935083916001600160a01b0390911690631b167777906111339084905f906004016125ad565b6020604051808303815f875af115801561114f573d5f803e3d5ffd5b505050506040513d601f19601f8201168201806040525081019061117391906125cf565b61119457805f60405163068bc39960e41b81526004016107cd9291906125ad565b61119d85611a9a565b50505b60685460408051918252602082018590526001600160a01b03831682820152517f2e8c120bfdd294891f6ac45b1d661997690ad24bb51f51e4d357365f25c190239181900360600190a1509095945050505050565b5f6111fe611af1565b54919050565b60655460685460405163068bcd8d60e01b81525f9283926001600160a01b039091169163068bcd8d9161123d9160040190815260200190565b5f60405180830381865afa158015611257573d5f803e3d5ffd5b505050506040513d5f823e601f3d908101601f1916820160405261127e91908101906124cc565b60400151905073eeeeeeeeeeeeeeeeeeeeeeeeeeeeeeeeeeeeeeed196001600160a01b038216016112b0574791505090565b6040516370a0823160e01b81525f906001600160a01b038316906370a08231906112de903090600401611db7565b602060405180830381865afa1580156112f9573d5f803e3d5ffd5b505050506040513d601f19601f8201168201806040525081019061131d91906125ee565b6080549091506001600160a01b039081169083160361133c5792915050565b6080545f906001600160a01b0316156113c3576080546040516370a0823160e01b81526001600160a01b03909116906370a082319061137f903090600401611db7565b602060405180830381865afa15801561139a573d5f803e3d5ffd5b505050506040513d601f19601f820116820180604052508101906113be91906125ee565b6113c5565b5f5b6080549091506113e190829085906001600160a01b0316611b15565b6113eb9083612605565b935050505090565b60868181548110611402575f80fd5b5f91825260209091200154905081565b5f818152607b60205260408120611427611501565b611435576003015492915050565b73__$f1b7c69ba751c396eddc93d3bbc5414fd9$__63010dfe6482600701544361145f91906120f1565b600384015460028501546074546040516001600160e01b031960e087901b1681526114909493929190600401611fbb565b602060405180830381865af41580156114ab573d5f803e3d5ffd5b505050506040513d601f19601f820116820180604052508101906114cf91906125ee565b9392505050565b607d602052815f5260405f2081815481106114ef575f80fd5b905f5260205f20015f91509150505481565b6078545f906001600160a01b03166115195750600190565b6078546040515f9182916001600160a01b0390911690633a871fe160e01b90611546903090602401611db7565b60408051601f198184030181529181526020820180516001600160e01b03166001600160e01b03199094169390931790925290516115849190612618565b5f60405180830381855afa9150503d805f81146115bc576040519150601f19603f3d011682016040523d82523d5f602084013e6115c1565b606091505b50915091508115806115d4575060208151105b156115e25760019250505090565b808060200190518101906115f691906125cf565b9250505090565b5f611606611af1565b5f9283526002016020525060409020546001600160a01b031690565b5f61162b611af1565b60010154905090565b60015f828152607b602052604090206008015460ff16600681111561165b5761165b612037565b14611687575f818152607b6020526040902060080154819060ff1660068111156107ac576107ac612037565b5f818152607b60205260409020600501546001600160a01b031633146116e2575f818152607b60205260409081902060050154905163d46ad8a960e01b81526107cd9183916001600160a01b039091169033906004016120be565b5f818152607b60205260409020600801805460ff19166003179055611705611b29565b61170e81611b54565b6079545f828152607b6020908152604080832060058101546010909101548452607f9092529182902060020154915163099ea56b60e41b8152600481018590526001600160a01b0391821660248201526044810192909252909116906399ea56b0906064015f604051808303815f87803b15801561178a575f80fd5b505af115801561179c573d5f803e3d5ffd5b50600292506117a9915050565b60765460ff1660028111156117c0576117c0612037565b036118f7575f6117cf826115fd565b90505f6001600160a01b038216156117e75781611802565b5f838152607b60205260409020600401546001600160a01b03165b608154604051631b16777760e01b81529192506001600160a01b031690631b167777906118359084905f906004016125ad565b6020604051808303815f875af1158015611851573d5f803e3d5ffd5b505050506040513d601f19601f8201168201806040525081019061187591906125cf565b61189657805f60405163068bc39960e41b81526004016107cd9291906125ad565b6001600160a01b038216156118f457816001600160a01b031663eff75f156040518163ffffffff1660e01b81526004015f604051808303815f87803b1580156118dd575f80fd5b505af11580156118ef573d5f803e3d5ffd5b505050505b50505b6040518181527f416e669c63d9a3a5e36ee7cc7e2104b8db28ccd286aa18966e98fa230c73b08c9060200160405180910390a150565b8051602091820120825192909101919091201490565b60835460405163288c314960e21b81526001600160a01b039091169063a230c52490611973908490600401611db7565b602060405180830381865afa15801561198e573d5f803e3d5ffd5b505050506040513d601f19601f820116820180604052508101906119b291906125cf565b6119e057607854604051636332657560e11b81526107cd9183916001600160a01b0390911690600401612389565b50565b60855460ff16156119f057565b5f60015b606e548111611a4e575f818152607b60205260409020805415801590611a2857506008810154611a269060ff16611c2e565b155b15611a3b5782611a378161257a565b9350505b5080611a468161257a565b9150506119f4565b506084556085805460ff19166001179055565b80611a6a611af1565b5f938452600201602052604090922080546001600160a01b0319166001600160a01b039093169290921790915550565b5f8181526087602052604090205415611ab05750565b608680546001810182557f46b7ea84944250856a716737059479854246a026d947c13d5a0929bc8c1bc81d01829055545f9182526087602052604090912055565b7fd5d05b1f29dcb0c0e1698b0261850eb784d1243215a6aa22ea2b8128b2e9497c90565b5f611b21848484611c81565b949350505050565b60855460ff16611b3557565b60845415611b525760848054905f611b4c83612633565b91905055505b565b5f8181526087602052604081205490819003611b6e575050565b5f611b7a6001836120f1565b6086549091505f90611b8e906001906120f1565b90505f60868281548110611ba457611ba4612648565b905f5260205f2001549050818314611bef578060868481548110611bca57611bca612648565b5f91825260209091200155611be0836001612605565b5f828152608760205260409020555b6086805480611c0057611c0061265c565b600190038181905f5260205f20015f9055905560875f8681526020019081526020015f205f90555050505050565b5f6003826006811115611c4357611c43612037565b1480611c6057506006826006811115611c5e57611c5e612037565b145b8061075e57506004826006811115611c7a57611c7a612037565b1492915050565b5f831580611c9657506001600160a01b038216155b80611cb25750816001600160a01b0316836001600160a01b0316145b15611cbe5750826114cf565b611b2184611ccb84611cd9565b611cd486611cd9565b611d45565b5f816001600160a01b031663313ce5676040518163ffffffff1660e01b8152600401602060405180830381865afa925050508015611d34575060408051601f3d908101601f19168201909252611d3191810190612670565b60015b61075e57506012919050565b919050565b5f831580611d5857508160ff168360ff16145b15611d645750826114cf565b8160ff168360ff161015611d9857611d7c8383612690565b611d8790600a612789565b611d919085612797565b90506114cf565b611da28284612690565b611dad90600a612789565b611b2190856127ae565b6001600160a01b0391909116815260200190565b5f60208284031215611ddb575f80fd5b5035919050565b634e487b7160e01b5f52604160045260245ffd5b604080519081016001600160401b0381118282101715611e1857611e18611de2565b60405290565b60405160a081016001600160401b0381118282101715611e1857611e18611de2565b60405160c081016001600160401b0381118282101715611e1857611e18611de2565b604051601f8201601f191681016001600160401b0381118282101715611e8a57611e8a611de2565b604052919050565b5f6001600160401b03821115611eaa57611eaa611de2565b50601f01601f191660200190565b5f611eca611ec584611e92565b611e62565b9050828152838383011115611edd575f80fd5b828260208301375f602084830101529392505050565b6001600160a01b03811681146119e0575f80fd5b8035611d4081611ef3565b5f805f8060808587031215611f25575f80fd5b8435935060208501356001600160401b0380821115611f42575f80fd5b9086019060408289031215611f55575f80fd5b611f5d611df6565b82358152602083013582811115611f72575f80fd5b80840193505088601f840112611f86575f80fd5b611f9589843560208601611eb8565b60208201529450611fab91505060408601611f07565b9396929550929360600135925050565b93845260208401929092526040830152606082015260800190565b5f8060408385031215611fe7575f80fd5b82356001600160401b03811115611ffc575f80fd5b8301601f8101851361200c575f80fd5b61201b85823560208401611eb8565b925050602083013561202c81611ef3565b809150509250929050565b634e487b7160e01b5f52602160045260245ffd5b602081016005831061205f5761205f612037565b91905290565b602081016003831061205f5761205f612037565b5f60208284031215612089575f80fd5b81356114cf81611ef3565b5f80604083850312156120a5575f80fd5b82356120b081611ef3565b946020939093013593505050565b9283526001600160a01b03918216602084015216604082015260600190565b634e487b7160e01b5f52601160045260245ffd5b8181038181111561075e5761075e6120dd565b600181811c9082168061211857607f821691505b60208210810361213657634e487b7160e01b5f52602260045260245ffd5b50919050565b5f5b8381101561215657818101518382015260200161213e565b50505f910152565b5f815180845261217581602086016020860161213c565b601f01601f19169290920160200192915050565b8481525f6020608060208401525f86546121a281612104565b80608087015260a060018084165f81146121c357600181146121df5761220c565b60ff19851660a08a015260a084151560051b8a0101955061220c565b8b5f5260205f205f5b858110156122035781548b82018601529083019088016121e8565b8a0160a0019650505b50505050508381036040850152612223818761215e565b9250505082606083015295945050505050565b601f82111561227d57805f5260205f20601f840160051c8101602085101561225b5750805b601f840160051c820191505b8181101561227a575f8155600101612267565b50505b505050565b81516001600160401b0381111561229b5761229b611de2565b6122af816122a98454612104565b84612236565b602080601f8311600181146122e2575f84156122cb5750858301515b5f19600386901b1c1916600185901b178555612339565b5f85815260208120601f198616915b82811015612310578886015182559484019460019091019084016122f1565b508582101561232d57878501515f19600388901b60f8161c191681555b505060018460011b0185555b505050505050565b84815260806020820152835160808201525f6020850151604060a084015261236c60c084018261215e565b6001600160a01b0395909516604084015250506060015292915050565b6001600160a01b0392831681529116602082015260400190565b5f604082840312156123b3575f80fd5b6123bb611df6565b8251815260208301519091506001600160401b038111156123da575f80fd5b8201601f810184136123ea575f80fd5b80516123f8611ec582611e92565b81815285602083850101111561240c575f80fd5b61241d82602083016020860161213c565b602084015250909392505050565b5f6020828403121561243b575f80fd5b81516001600160401b0380821115612451575f80fd5b9083019060a08286031215612464575f80fd5b61246c611e1e565b82518152602083015161247e81611ef3565b602082015260408381015190820152606083015161249b81611ef3565b60608201526080830151828111156124b1575f80fd5b6124bd878286016123a3565b60808301525095945050505050565b5f602082840312156124dc575f80fd5b81516001600160401b03808211156124f2575f80fd5b9083019060c08286031215612505575f80fd5b61250d611e40565b82518152602083015161251f81611ef3565b6020820152604083015161253281611ef3565b6040820152606083015182811115612548575f80fd5b612554878286016123a3565b6060830152506080830151608082015260a083015160a082015280935050505092915050565b5f6001820161258b5761258b6120dd565b5060010190565b5f602082840312156125a2575f80fd5b81516114cf81611ef3565b6001600160a01b039290921682526001600160801b0316602082015260400190565b5f602082840312156125df575f80fd5b815180151581146114cf575f80fd5b5f602082840312156125fe575f80fd5b5051919050565b8082018082111561075e5761075e6120dd565b5f825161262981846020870161213c565b9190910192915050565b5f81612641576126416120dd565b505f190190565b634e487b7160e01b5f52603260045260245ffd5b634e487b7160e01b5f52603160045260245ffd5b5f60208284031215612680575f80fd5b815160ff811681146114cf575f80fd5b60ff828116828216039081111561075e5761075e6120dd565b600181815b808511156126e357815f19048211156126c9576126c96120dd565b808516156126d657918102915b93841c93908002906126ae565b509250929050565b5f826126f95750600161075e565b8161270557505f61075e565b816001811461271b576002811461272557612741565b600191505061075e565b60ff841115612736576127366120dd565b50506001821b61075e565b5060208310610133831016604e8410600b8410161715612764575081810a61075e565b61276e83836126a9565b805f1904821115612781576127816120dd565b029392505050565b5f6114cf60ff8416836126eb565b808202811582820484141761075e5761075e6120dd565b5f826127c857634e487b7160e01b5f52601260045260245ffd5b50049056fea164736f6c6343000817000a608060405234801561000f575f80fd5b50611e348061001d5f395ff3fe608060405234801561000f575f80fd5b50600436106101d6575f3560e01c806301cf0869146101da57806305caa7f3146102025780630bece79c146102225780630c0512e914610235578063125fd1d91461024c5780631374b22d146102555780631b36f56f146102685780632506b8701461027b578063255ffb38146102a15780632dbd6fdd146102c057806333960459146102df578063351d9f96146102e85780633eadbd0f1461030257806341bb7605146103175780634ab4ba421461039e5780634c3ceb5b146103a65780634d33f6c9146103ae57806353ca476c146103cd5780635db64b99146103e05780636003e414146103ff57806360b0645a14610412578063626c47e81461042557806376e430991461042d57806380fd91cd14610436578063817b1cd214610449578063868c57b8146104525780638dc8309414610465578063914bdef0146103a657806394573cbb1461046d578063962896f6146104765780639f00879c14610483578063a28889e114610496578063a47ff7e5146104c1578063aba9ffee146104cb578063b6c61f31146104d4578063c5aab6ed146104e7578063cf7ae90c146104fa578063dfe9ec58146103a6578063ee50ee1b14610507578063f5be3f7c1461050f575b5f80fd5b6101ed6101e8366004611873565b610518565b60405190151581526020015b60405180910390f35b608054610215906001600160a01b031681565b6040516101f9919061188e565b607954610215906001600160a01b031681565b61023e606e5481565b6040519081526020016101f9565b61023e606f5481565b6101ed6102633660046118a2565b610542565b608154610215906001600160a01b031681565b6072546073546074546075546102919392919084565b6040516101f994939291906118b9565b61023e6102af3660046118a2565b607e6020525f908152604090205481565b6076546102d290610100900460ff1681565b6040516101f991906118e8565b61023e606c5481565b6076546102f59060ff1681565b6040516101f99190611902565b610315610310366004611923565b61057c565b005b6103666103253660046118a2565b607f6020525f90815260409020805460018201546002830154600384015460048501546005909501546001600160a01b039485169593909416939192909186565b604080516001600160a01b039788168152969095166020870152938501929092526060840152608083015260a082015260c0016101f9565b61023e6105f4565b61023e608081565b61023e6103bc3660046118a2565b60876020525f908152604090205481565b61023e6103db3660046118a2565b6107e3565b61023e6103ee366004611873565b607c6020525f908152604090205481565b607854610215906001600160a01b031681565b61023e6104203660046118a2565b610802565b61023e600381565b61023e60845481565b608354610215906001600160a01b031681565b61023e60705481565b61023e61046036600461195a565b6108c6565b6101ed6108f1565b61023e60825481565b6085546101ed9060ff1681565b610315610491366004611873565b6109ed565b606d546104a9906001600160401b031681565b6040516001600160401b0390911681526020016101f9565b60775461023e9081565b61023e60715481565b607a54610215906001600160a01b031681565b6103156104f5366004611984565b610a44565b6088546101ed9060ff1681565b61023e604081565b61023e611c2081565b5f610521610af8565b6001600160a01b039092165f90815260209290925250604090205460ff1690565b5f818152607b60205260408120541580159061057657505f828152607b60205260409020600501546001600160a01b031615155b92915050565b610584610b1c565b61058c610b5c565b80610595610af8565b6001600160a01b0384165f8181526020928352604090819020805460ff191694151594909417909355915183151581527fdc4bc50c08bb8640c035394efdd158745a6339f90cc1085113665114780405b3910160405180910390a25050565b60655460685460405163068bcd8d60e01b81525f9283926001600160a01b039091169163068bcd8d9161062d9160040190815260200190565b5f60405180830381865afa158015610647573d5f803e3d5ffd5b505050506040513d5f823e601f3d908101601f1916820160405261066e9190810190611aa2565b60400151905073eeeeeeeeeeeeeeeeeeeeeeeeeeeeeeeeeeeeeeed196001600160a01b038216016106a0574791505090565b6040516370a0823160e01b81525f906001600160a01b038316906370a08231906106ce90309060040161188e565b602060405180830381865afa1580156106e9573d5f803e3d5ffd5b505050506040513d601f19601f8201168201806040525081019061070d9190611bd2565b6080549091506001600160a01b039081169083160361072c5792915050565b6080545f906001600160a01b0316156107b3576080546040516370a0823160e01b81526001600160a01b03909116906370a082319061076f90309060040161188e565b602060405180830381865afa15801561078a573d5f803e3d5ffd5b505050506040513d601f19601f820116820180604052508101906107ae9190611bd2565b6107b5565b5f5b6080549091506107d190829085906001600160a01b0316610cb7565b6107db9083611bfd565b935050505090565b608681815481106107f2575f80fd5b5f91825260209091200154905081565b5f818152607b602052604081206108176108f1565b610825576003015492915050565b73__$f1b7c69ba751c396eddc93d3bbc5414fd9$__63010dfe6482600701544361084f9190611c10565b600384015460028501546074546040516001600160e01b031960e087901b16815261088094939291906004016118b9565b602060405180830381865af415801561089b573d5f803e3d5ffd5b505050506040513d601f19601f820116820180604052508101906108bf9190611bd2565b9392505050565b607d602052815f5260405f2081815481106108df575f80fd5b905f5260205f20015f91509150505481565b6078545f906001600160a01b03166109095750600190565b6078546040515f9182916001600160a01b0390911690633a871fe160e01b9061093690309060240161188e565b60408051601f198184030181529181526020820180516001600160e01b03166001600160e01b03199094169390931790925290516109749190611c23565b5f60405180830381855afa9150503d805f81146109ac576040519150601f19603f3d011682016040523d82523d5f602084013e6109b1565b606091505b50915091508115806109c4575060208151105b156109d25760019250505090565b808060200190518101906109e69190611c3e565b9250505090565b6109f5610b1c565b6109fd610af8565b335f908152602091909152604090205460ff16610a385733604051630cc9c3c960e21b8152600401610a2f919061188e565b60405180910390fd5b610a4181610ccb565b50565b610a4c610b1c565b610a54610af8565b335f908152602091909152604090205460ff16610a865733604051630cc9c3c960e21b8152600401610a2f919061188e565b6080811115610ab257604051630fe1fbcd60e11b81526004810182905260806024820152604401610a2f565b5f5b81811015610af357610aeb838383818110610ad157610ad1611c59565b9050602002016020810190610ae69190611873565b610ccb565b600101610ab4565b505050565b7f097c5f51be6c161c250a24cddb93265814159688a8e402290bbba8f3d8b83b9b90565b6078546083546001600160a01b03918216911603610b5a57607854604051637917024960e11b8152610a2f916001600160a01b03169060040161188e565b565b60785f9054906101000a90046001600160a01b03166001600160a01b0316636c53db9a6040518163ffffffff1660e01b8152600401602060405180830381865afa158015610bac573d5f803e3d5ffd5b505050506040513d601f19601f82011682018060405250810190610bd09190611c6d565b6001600160a01b0316336001600160a01b031614158015610c0a5750610bf4610fb3565b6001600160a01b0316336001600160a01b031614155b15610b5a5760785460408051633629edcd60e11b8152905133926001600160a01b031691636c53db9a9160048083019260209291908290030181865afa158015610c56573d5f803e3d5ffd5b505050506040513d601f19601f82011682018060405250810190610c7a9190611c6d565b610c82610fb3565b60405163e1b9c46960e01b81526001600160a01b03938416600482015291831660248301529091166044820152606401610a2f565b5f610cc384848461105d565b949350505050565b5f610cd4610af8565b6001600160a01b0383165f9081526002820160205260408120549192509060ff16610d7057607854604051637817ee4f60e01b81526001600160a01b0390911690637817ee4f90610d2b9086903090600401611c88565b6020604051808303815f875af1158015610d47573d5f803e3d5ffd5b505050506040513d601f19601f82011682018060405250810190610d6b9190611bd2565b610d8b565b6001600160a01b0383165f9081526001830160205260409020545b608354604051637817ee4f60e01b81529192505f916001600160a01b0390911690637817ee4f90610dc29087903090600401611c88565b602060405180830381865afa158015610ddd573d5f803e3d5ffd5b505050506040513d601f19601f82011682018060405250810190610e019190611bd2565b9050818103610e46576001600160a01b039093165f90815260018084016020908152604080842096909655600290940190935292909220805460ff1916909117905550565b81811015610f28575f610e598284611c10565b607854604051637817ee4f60e01b81529192505f916001600160a01b0390911690637817ee4f90610e909089903090600401611c88565b6020604051808303815f875af1158015610eac573d5f803e3d5ffd5b505050506040513d601f19601f82011682018060405250810190610ed09190611bd2565b9050610ede868386846110b5565b856001600160a01b03167fed6e9ae347ffc36255be883bfbc2418b6ff8f375ffbcb034274d6d0e777796b883604051610f1991815260200190565b60405180910390a25050610f41565b5f610f338383611c10565b9050610f3f8582611261565b505b6001600160a01b0384165f81815260018581016020908152604080842086905560028801825292839020805460ff191690921790915581518581529081018490527ffea97331442afdbc594d85581044888f2017b81e8f177087ddfdf14626db15ed910160405180910390a250505050565b5f80610fc76033546001600160a01b031690565b9050806001600160a01b03163b5f03610fdf57919050565b806001600160a01b0316638da5cb5b6040518163ffffffff1660e01b8152600401602060405180830381865afa925050508015611039575060408051601f3d908101601f1916820190925261103691810190611c6d565b60015b61104257919050565b6001600160a01b0381161561105757806109e6565b50919050565b5f83158061107257506001600160a01b038216155b8061108e5750816001600160a01b0316836001600160a01b0316145b1561109a5750826108bf565b610cc3846110a7846112f5565b6110b0866112f5565b61135c565b6001600160a01b0384165f908152607c60205260408120549083908282116110dd575f6110e7565b6110e78383611c10565b905085811080156110f757505f83115b15611225575f6111078288611c10565b905080845f5b6001600160a01b038b165f908152607d602052604090205481101561121757821580611137575081155b611217576001600160a01b038b165f908152607d6020526040812080548390811061116457611164611c59565b905f5260205f20015490505f607b5f8381526020019081526020015f206009015f8e6001600160a01b03166001600160a01b031681526020019081526020015f20549050805f036111b657505061120f565b5f8482106111c857505f9350846111e2565b6111d38287876113ce565b90506111df8286611c10565b94505b818111156111ed5750805b801561120b576111fe8e84836114b3565b6112088187611c10565b95505b5050505b60010161110d565b506112218a6115f0565b5050505b5f61123087866116d9565b905060715481111561124157506071545b8060715f8282546112529190611c10565b90915550505050505050505050565b60785460405163011de97360e61b81525f916001600160a01b03169063477a5cc0906112939086903090600401611c88565b602060405180830381865afa1580156112ae573d5f803e3d5ffd5b505050506040513d601f19601f820116820180604052508101906112d29190611c3e565b90508015610af3578160715f8282546112eb9190611bfd565b9091555050505050565b5f816001600160a01b031663313ce5676040518163ffffffff1660e01b8152600401602060405180830381865afa925050508015611350575060408051601f3d908101601f1916820190925261134d91810190611ca2565b60015b61057657506012919050565b5f83158061136f57508160ff168360ff16145b1561137b5750826108bf565b8160ff168360ff1610156113af576113938383611cc2565b61139e90600a611dbb565b6113a89085611dc9565b90506108bf565b6113b98284611cc2565b6113c490600a611dbb565b610cc39085611df4565b5f80805f19858709858702925082811083820303915050805f03611405578382816113fb576113fb611de0565b04925050506108bf565b80841161144c5760405162461bcd60e51b81526020600482015260156024820152744d6174683a206d756c446976206f766572666c6f7760581b6044820152606401610a2f565b5f8486880960026001871981018816978890046003810283188082028403028082028403028082028403028082028403028082028403029081029092039091025f889003889004909101858311909403939093029303949094049190911702949350505050565b5f828152607b602090815260408083206001600160a01b03871684526009810190925282205490918184116114e857836114ea565b815b90505f6114f78284611c10565b60028501805491925083905f61150d8385611c10565b90915550506001600160a01b0388165f908152600986016020526040812083905560708054859290611540908490611c10565b90915550506001600160a01b0388165f908152607c60205260408120805485929061156c908490611c10565b9091555061157b9050856116ee565b6115858582611713565b60028501546003860154604080516001600160a01b038c168152602081018b9052908101859052606081019290925260808201527f0227f642ddcf2042ceaeafadb9d540f432072c00cd4862881667168dcc14710f9060a00160405180910390a15050505050505050565b6001600160a01b0381165f908152607d60205260408120905b8154811015610af3575f82828154811061162557611625611c59565b5f918252602080832090910154808352607b825260408084206001600160a01b03891685526009019092529082205490925090036116cc578254839061166d90600190611c10565b8154811061167d5761167d611c59565b905f5260205f20015483838154811061169857611698611c59565b905f5260205f200181905550828054806116b4576116b4611e13565b600190038181905f5260205f20015f905590556116d3565b8160010191505b50611609565b5f8183106116e757816108bf565b5090919050565b6012810154801580611701575080607154115b1561170f5760715460128301555b5050565b5f8061171f8484611758565b91509150815f148015611730575080155b1561173b5750505050565b6007840181905560038401829055611752846116ee565b50505050565b5f806117626108f1565b611773575050600382015443611858565b43905080846007015411156117ab57600784015460405163102300bd60e01b8152600481019190915260248101829052604401610a2f565b808460070154036117c057505f905080611858565b73__$f1b7c69ba751c396eddc93d3bbc5414fd9$__63010dfe648560070154836117ea9190611c10565b60038701546074546040516001600160e01b031960e086901b16815261181693929189916004016118b9565b602060405180830381865af4158015611831573d5f803e3d5ffd5b505050506040513d601f19601f820116820180604052508101906118559190611bd2565b91505b9250929050565b6001600160a01b0381168114610a41575f80fd5b5f60208284031215611883575f80fd5b81356108bf8161185f565b6001600160a01b0391909116815260200190565b5f602082840312156118b2575f80fd5b5035919050565b93845260208401929092526040830152606082015260800190565b634e487b7160e01b5f52602160045260245ffd5b60208101600583106118fc576118fc6118d4565b91905290565b60208101600383106118fc576118fc6118d4565b8015158114610a41575f80fd5b5f8060408385031215611934575f80fd5b823561193f8161185f565b9150602083013561194f81611916565b809150509250929050565b5f806040838503121561196b575f80fd5b82356119768161185f565b946020939093013593505050565b5f8060208385031215611995575f80fd5b82356001600160401b03808211156119ab575f80fd5b818501915085601f8301126119be575f80fd5b8135818111156119cc575f80fd5b8660208260051b85010111156119e0575f80fd5b60209290920196919550909350505050565b634e487b7160e01b5f52604160045260245ffd5b60405160c081016001600160401b0381118282101715611a2857611a286119f2565b60405290565b604080519081016001600160401b0381118282101715611a2857611a286119f2565b604051601f8201601f191681016001600160401b0381118282101715611a7857611a786119f2565b604052919050565b5f5b83811015611a9a578181015183820152602001611a82565b50505f910152565b5f6020808385031215611ab3575f80fd5b82516001600160401b0380821115611ac9575f80fd5b9084019060c08287031215611adc575f80fd5b611ae4611a06565b8251815283830151611af58161185f565b818501526040830151611b078161185f565b6040820152606083015182811115611b1d575f80fd5b830160408189031215611b2e575f80fd5b611b36611a2e565b815181528582015184811115611b4a575f80fd5b80830192505088601f830112611b5e575f80fd5b815184811115611b7057611b706119f2565b611b82601f8201601f19168801611a50565b94508085528987828501011115611b97575f80fd5b611ba681888701898601611a80565b50948501929092526060810193909352506080818101519083015260a090810151908201529392505050565b5f60208284031215611be2575f80fd5b5051919050565b634e487b7160e01b5f52601160045260245ffd5b8082018082111561057657610576611be9565b8181038181111561057657610576611be9565b5f8251611c34818460208701611a80565b9190910192915050565b5f60208284031215611c4e575f80fd5b81516108bf81611916565b634e487b7160e01b5f52603260045260245ffd5b5f60208284031215611c7d575f80fd5b81516108bf8161185f565b6001600160a01b0392831681529116602082015260400190565b5f60208284031215611cb2575f80fd5b815160ff811681146108bf575f80fd5b60ff828116828216039081111561057657610576611be9565b600181815b80851115611d1557815f1904821115611cfb57611cfb611be9565b80851615611d0857918102915b93841c9390800290611ce0565b509250929050565b5f82611d2b57506001610576565b81611d3757505f610576565b8160018114611d4d5760028114611d5757611d73565b6001915050610576565b60ff841115611d6857611d68611be9565b50506001821b610576565b5060208310610133831016604e8410600b8410161715611d96575081810a610576565b611da08383611cdb565b805f1904821115611db357611db3611be9565b029392505050565b5f6108bf60ff841683611d1d565b808202811582820484141761057657610576611be9565b634e487b7160e01b5f52601260045260245ffd5b5f82611e0e57634e487b7160e01b5f52601260045260245ffd5b500490565b634e487b7160e01b5f52603160045260245ffdfea164736f6c6343000817000a608060405234801561000f575f80fd5b506132228061001d5f395ff3fe608060405234801561000f575f80fd5b5060043610610202575f3560e01c806305caa7f3146102065780630bece79c1461022f5780630c0512e914610242578063125fd1d9146102595780631374b22d146102625780631b36f56f146102855780632506b87014610298578063255ffb38146102be5780632cea13f9146102dd5780632dbd6fdd146102e55780633396045914610304578063351d9f961461030d57806341bb7605146103275780634ab4ba42146103ae5780634c3ceb5b146103b65780634d33f6c9146103be57806353a3d62e146103dd57806353ca476c146103f25780635db64b99146104055780636003e4141461042457806360b0645a14610437578063626c47e81461044a578063736dcb8b1461045257806376e43099146104655780637d40af981461046e5780637d7c2a1c1461047657806380fd91cd1461047e578063817b1cd214610491578063868c57b81461049a5780638dc83094146104ad578063914bdef0146103b657806394573cbb146104b5578063962896f6146104be578063a28889e1146104cb578063a47ff7e5146104f6578063aba9ffee14610500578063b04b5b2614610509578063b3de272d1461051c578063b6c61f3114610524578063cf7ae90c14610537578063dfe9ec58146103b6578063e0ab98b514610544578063ee50ee1b14610557578063f5be3f7c1461055f575b5f80fd5b608054610219906001600160a01b031681565b60405161022691906129fb565b60405180910390f35b607954610219906001600160a01b031681565b61024b606e5481565b604051908152602001610226565b61024b606f5481565b610275610270366004612a0f565b610568565b6040519015158152602001610226565b608154610219906001600160a01b031681565b6072546073546074546075546102ae9392919084565b6040516102269493929190612a26565b61024b6102cc366004612a0f565b607e6020525f908152604090205481565b61024b6105a2565b6076546102f790610100900460ff1681565b6040516102269190612a55565b61024b606c5481565b60765461031a9060ff1681565b6040516102269190612a6f565b610376610335366004612a0f565b607f6020525f90815260409020805460018201546002830154600384015460048501546005909501546001600160a01b039485169593909416939192909186565b604080516001600160a01b039788168152969095166020870152938501929092526060840152608083015260a082015260c001610226565b61024b6105b1565b61024b608081565b61024b6103cc366004612a0f565b60876020525f908152604090205481565b6103f06103eb366004612a9a565b6107a0565b005b61024b610400366004612a0f565b610958565b61024b610413366004612a9a565b607c6020525f908152604090205481565b607854610219906001600160a01b031681565b61024b610445366004612a0f565b610977565b61024b600381565b6103f0610460366004612ac2565b610a3b565b61024b60845481565b6103f0610ab9565b6103f0610dc0565b608354610219906001600160a01b031681565b61024b60705481565b61024b6104a8366004612af9565b6111a4565b6102756111cf565b61024b60825481565b6085546102759060ff1681565b606d546104de906001600160401b031681565b6040516001600160401b039091168152602001610226565b60775461024b9081565b61024b60715481565b610219610517366004612a0f565b6112cb565b61024b6112f0565b607a54610219906001600160a01b031681565b6088546102759060ff1681565b610275610552366004612a9a565b611302565b61024b604081565b61024b611c2081565b5f818152607b60205260408120541580159061059c57505f828152607b60205260409020600501546001600160a01b031615155b92915050565b5f6105ab61130c565b54919050565b60655460685460405163068bcd8d60e01b81525f9283926001600160a01b039091169163068bcd8d916105ea9160040190815260200190565b5f60405180830381865afa158015610604573d5f803e3d5ffd5b505050506040513d5f823e601f3d908101601f1916820160405261062b9190810190612c1f565b60400151905073eeeeeeeeeeeeeeeeeeeeeeeeeeeeeeeeeeeeeeed196001600160a01b0382160161065d574791505090565b6040516370a0823160e01b81525f906001600160a01b038316906370a082319061068b9030906004016129fb565b602060405180830381865afa1580156106a6573d5f803e3d5ffd5b505050506040513d601f19601f820116820180604052508101906106ca9190612d14565b6080549091506001600160a01b03908116908316036106e95792915050565b6080545f906001600160a01b031615610770576080546040516370a0823160e01b81526001600160a01b03909116906370a082319061072c9030906004016129fb565b602060405180830381865afa158015610747573d5f803e3d5ffd5b505050506040513d601f19601f8201168201806040525081019061076b9190612d14565b610772565b5f5b60805490915061078e90829085906001600160a01b0316611330565b6107989083612d3f565b935050505090565b5f6107a9611344565b9050336001600160a01b038216146107ea5760405163a3ee740f60e01b81523360048201526001600160a01b03821660248201526044015b60405180910390fd5b6001600160a01b0382166108135781604051632e18b44560e21b81526004016107e191906129fb565b608154604051631b16777760e01b81526001600160a01b0390911690631b167777906108459085905f90600401612d52565b6020604051808303815f875af1158015610861573d5f803e3d5ffd5b505050506040513d601f19601f820116820180604052508101906108859190612d74565b6108a657815f60405163068bc39960e41b81526004016107e1929190612d52565b6040515f81526001600160a01b038316905f805160206131968339815191529060200160405180910390a2816001600160a01b031663eff75f156040518163ffffffff1660e01b81526004015f604051808303815f87803b158015610909575f80fd5b505af115801561091b573d5f803e3d5ffd5b50506040513392506001600160a01b03851691507f79f20f0fdfd69e0bab8e8337b35104c07ec4584535ef58aa9e8d8cc124d64e00905f90a35050565b60868181548110610967575f80fd5b5f91825260209091200154905081565b5f818152607b6020526040812061098c6111cf565b61099a576003015492915050565b73__$f1b7c69ba751c396eddc93d3bbc5414fd9$__63010dfe648260070154436109c49190612d8f565b600384015460028501546074546040516001600160e01b031960e087901b1681526109f59493929190600401612a26565b602060405180830381865af4158015610a10573d5f803e3d5ffd5b505050506040513d601f19601f82011682018060405250810190610a349190612d14565b9392505050565b610a436113ee565b80610a4c61130c565b6001600160a01b0384165f818152600392909201602052604091829020805493151560ff1990941693909317909255517fb95c0106b994a81b4c4b5e5374d3e0b7967429ffd8fe2b5146a99bdd665bf3fc90610aad90841515815260200190565b60405180910390a25050565b6080546001600160a01b0316610acb57565b60655460685460405163068bcd8d60e01b815260048101919091525f916001600160a01b03169063068bcd8d906024015f60405180830381865afa158015610b15573d5f803e3d5ffd5b505050506040513d5f823e601f3d908101601f19168201604052610b3c9190810190612c1f565b60400151905073eeeeeeeeeeeeeeeeeeeeeeeeeeeeeeeeeeeeeeed196001600160a01b03821601610b6a5750565b6080546001600160a01b0390811690821603610b835750565b60805460408051631dce337960e31b815290515f926001600160a01b03169163ee719bc89160048083019260209291908290030181865afa158015610bca573d5f803e3d5ffd5b505050506040513d601f19601f82011682018060405250810190610bee9190612da2565b9050816001600160a01b0316816001600160a01b031614610c0d575050565b6040516370a0823160e01b81525f906001600160a01b038416906370a0823190610c3b9030906004016129fb565b602060405180830381865afa158015610c56573d5f803e3d5ffd5b505050506040513d601f19601f82011682018060405250810190610c7a9190612d14565b9050805f03610c8857505050565b6080545f90610ca390839086906001600160a01b0316611532565b9050805f03610cb25750505050565b60805460405163095ea7b360e01b81526001600160a01b038681169263095ea7b392610ce692909116908690600401612dbd565b6020604051808303815f875af1158015610d02573d5f803e3d5ffd5b505050506040513d601f19601f82011682018060405250810190610d269190612d74565b610d6157608054604051636a93d39160e01b81526001600160a01b0380871660048301529091166024820152604481018390526064016107e1565b6080546040516345977d0360e01b8152600481018390526001600160a01b03909116906345977d03906024015f604051808303815f87803b158015610da4575f80fd5b505af1158015610db6573d5f803e3d5ffd5b5050505050505050565b610dc93361153e565b610de8573360405163b5a3507160e01b81526004016107e191906129fb565b610df06112f0565b15801590610e165750610e016112f0565b610e096105a2565b610e139190612d3f565b42105b15610e5c5742610e246112f0565b610e2c6105a2565b610e369190612d3f565b610e409190612d8f565b604051632664776560e01b81526004016107e191815260200190565b5f610e656111cf565b905080610e8a575f610e7561165a565b90508015610e8657610e8642611718565b5050565b610e92610ab9565b5f610e9b6105b1565b90505f805f80610eaa85611725565b6071546074546040516326f2e67160e21b81529293505f9273__$f1b7c69ba751c396eddc93d3bbc5414fd9$__92639bcb99c492610ef392600401918252602082015260400190565b602060405180830381865af4158015610f0e573d5f803e3d5ffd5b505050506040513d601f19601f82011682018060405250810190610f329190612d14565b90505f610f3f83836118ce565b90505f8115610f7c575f838511610f565784610f58565b835b90508381610f64611996565b610f6e9190612dd6565b610f789190612e01565b9150505b5f610f8682611a37565b9050610f9489848784611a59565b6081546080545f91610fb4916001600160a01b0390811691309116611c1c565b6081549091505f90610fe5906001600160a01b0316610fd286611ca2565b6080546001600160a01b03169190611cce565b905080600b0b82600b0b146110405760815460019a506001600160a01b03165f805160206131768339815191525f600b84900b13611023575f61102e565b826001600160601b03165b60405190815260200160405180910390a25b60865f5b8154811015611170575f61107183838154811061106357611063612e20565b905f5260205f2001546112cb565b90506001600160a01b0381166110875750611168565b61109081611cee565b1561109a5760019c505b806001600160a01b03166364db91686040518163ffffffff1660e01b81526004015f604051808303815f87803b1580156110d2575f80fd5b505af19250505080156110e3575060015b611161573d808015611110576040519150601f19603f3d011682016040523d82523d5f602084013e611115565b606091505b5060019c50816001600160a01b03167f099afe07afefda867458b5f9cc5e0004450f2018cf2440c2c2a6c77ef6d36ea1826040516111539190612e5f565b60405180910390a250611166565b60019a505b505b600101611044565b50881561117c5760019a505b8a8015611187575089155b156111955761119542611718565b50505050505050505050505050565b607d602052815f5260405f2081815481106111bd575f80fd5b905f5260205f20015f91509150505481565b6078545f906001600160a01b03166111e75750600190565b6078546040515f9182916001600160a01b0390911690633a871fe160e01b906112149030906024016129fb565b60408051601f198184030181529181526020820180516001600160e01b03166001600160e01b03199094169390931790925290516112529190612e71565b5f60405180830381855afa9150503d805f811461128a576040519150601f19603f3d011682016040523d82523d5f602084013e61128f565b606091505b50915091508115806112a2575060208151105b156112b05760019250505090565b808060200190518101906112c49190612d74565b9250505090565b5f6112d461130c565b5f9283526002016020525060409020546001600160a01b031690565b5f6112f961130c565b60010154905090565b5f61059c8261153e565b7fd5d05b1f29dcb0c0e1698b0261850eb784d1243215a6aa22ea2b8128b2e9497c90565b5f61133c848484611f69565b949350505050565b5f806113586033546001600160a01b031690565b9050806001600160a01b03163b5f0361137057919050565b806001600160a01b0316638da5cb5b6040518163ffffffff1660e01b8152600401602060405180830381865afa9250505080156113ca575060408051601f3d908101601f191682019092526113c791810190612da2565b60015b6113d357919050565b6001600160a01b038116156113e857806112c4565b50919050565b60785f9054906101000a90046001600160a01b03166001600160a01b0316636c53db9a6040518163ffffffff1660e01b8152600401602060405180830381865afa15801561143e573d5f803e3d5ffd5b505050506040513d601f19601f820116820180604052508101906114629190612da2565b6001600160a01b0316336001600160a01b03161415801561149c5750611486611344565b6001600160a01b0316336001600160a01b031614155b156115305760785460408051633629edcd60e11b8152905133926001600160a01b031691636c53db9a9160048083019260209291908290030181865afa1580156114e8573d5f803e3d5ffd5b505050506040513d601f19601f8201168201806040525081019061150c9190612da2565b611514611344565b60405163e1b9c46960e01b81526004016107e193929190612e8c565b565b5f61133c848484611fc1565b6078545f906001600160a01b031661155757505f919050565b5f611560611344565b90505f61156b612014565b90506001600160a01b0384163014806115a857506001600160a01b038216158015906115a85750816001600160a01b0316846001600160a01b0316145b806115d757506001600160a01b038116158015906115d75750806001600160a01b0316846001600160a01b0316145b156115e6575060019392505050565b6001600160a01b03811615801590611603575061160381856120cb565b15611612575060019392505050565b61161b846121a1565b1561162a575060019392505050565b61163261130c565b6001600160a01b039094165f908152600394909401602052505060409091205460ff16919050565b6080545f906001600160a01b0316158061167d57506081546001600160a01b0316155b1561168757505f90565b6081546080545f916116a7916001600160a01b0390811691309116611c1c565b6081546080549192505f916116c9916001600160a01b03918216911683611cce565b905080600b0b82600b0b14611710576081546040515f81526001600160a01b03909116905f805160206131768339815191529060200160405180910390a260019250505090565b5f9250505090565b8061172161130c565b5550565b5f6086815b81548110156118c7575f82828154811061174657611746612e20565b5f918252602080832090910154808352607b909152604082209092509061176c836112cb565b90506001600160a01b038116611784575050506118bf565b6001600883015460ff16600681111561179f5761179f612a41565b141580156117c657506005600883015460ff1660068111156117c3576117c3612a41565b14155b1561189157608154604051631b16777760e01b81526001600160a01b0390911690631b167777906117fd9084905f90600401612d52565b6020604051808303815f875af1158015611819573d5f803e3d5ffd5b505050506040513d601f19601f8201168201806040525081019061183d9190612d74565b61185e57805f60405163068bc39960e41b81526004016107e1929190612d52565b6040515f81526001600160a01b038216905f805160206131968339815191529060200160405180910390a25050506118bf565b5f61189b84610977565b90506118a883828a61229a565b156118ba576118b78188612d3f565b96505b505050505b60010161172a565b5050919050565b6080545f906001600160a01b03166118e757505f61059c565b6080546040516370a0823160e01b81525f916001600160a01b0316906370a08231906119179030906004016129fb565b602060405180830381865afa158015611932573d5f803e3d5ffd5b505050506040513d601f19601f820116820180604052508101906119569190612d14565b9050805f03611968575f91505061059c565b6082541580611975575082155b8061197e575083155b1561198c575f91505061059c565b5060019392505050565b60655460685460405163068bcd8d60e01b81525f9283926001600160a01b039091169163068bcd8d916119cf9160040190815260200190565b5f60405180830381865afa1580156119e9573d5f803e3d5ffd5b505050506040513d5f823e601f3d908101601f19168201604052611a109190810190612c1f565b60400151608254608054919250611a319183906001600160a01b0316611532565b91505090565b5f6001600160801b03821115611a5557506001600160801b03919050565b5090565b60865f5b8154811015611c14575f828281548110611a7957611a79612e20565b5f918252602080832090910154808352607b9091526040822090925090611a9f836112cb565b90506001600160a01b038116611ab757505050611c0c565b6001600883015460ff166006811115611ad257611ad2612a41565b14158015611af957506005600883015460ff166006811115611af657611af6612a41565b14155b15611b0657505050611c0c565b5f611b1084610977565b90505f611b1e84838d61229a565b15611b445789611b3657611b3182612352565b611b41565b611b41828a8a612386565b90505b608154604051631b16777760e01b81526001600160a01b0390911690631b16777790611b769086908590600401612d52565b6020604051808303815f875af1158015611b92573d5f803e3d5ffd5b505050506040513d601f19601f82011682018060405250810190611bb69190612d74565b611bd757828160405163068bc39960e41b81526004016107e1929190612d52565b604051600b82900b81526001600160a01b038416905f805160206131968339815191529060200160405180910390a250505050505b600101611a5d565b505050505050565b5f80611c27856123f7565b60405162735d7560e41b81529092506001600160a01b0383169150630735d75090611c5a90889088908890600401612e8c565b602060405180830381865afa158015611c75573d5f803e3d5ffd5b505050506040513d601f19601f82011682018060405250810190611c999190612eaf565b95945050505050565b5f60016001605f1b03821115611a555760405163045d291960e11b8152600481018390526024016107e1565b604080515f8082526020820190925261133c90859030908690869061253b565b5f80826001600160a01b031663419759f56040518163ffffffff1660e01b8152600401602060405180830381865afa925050508015611d4a575060408051601f3d908101601f19168201909252611d4791810190612d14565b60015b611d5657505f92915050565b9050805f03611d6757505f92915050565b5f611d7e611d76836032612dd6565b6127106126cd565b611d889083612d3f565b6080546040516370a0823160e01b81529192505f916001600160a01b03909116906370a0823190611dbd9088906004016129fb565b602060405180830381865afa158015611dd8573d5f803e3d5ffd5b505050506040513d601f19601f82011682018060405250810190611dfc9190612d14565b9050818110611e0f57505f949350505050565b5f611e1a8284612d8f565b6080546040516370a0823160e01b81529192505f916001600160a01b03909116906370a0823190611e4f9030906004016129fb565b602060405180830381865afa158015611e6a573d5f803e3d5ffd5b505050506040513d601f19601f82011682018060405250810190611e8e9190612d14565b9050805f03611ea357505f9695505050505050565b5f818311611eb15782611eb3565b815b90508015611f5c5760805460405163a9059cbb60e01b81526001600160a01b039091169063a9059cbb90611eed908b908590600401612dbd565b6020604051808303815f875af1158015611f09573d5f803e3d5ffd5b505050506040513d601f19601f82011682018060405250810190611f2d9190612d74565b611f4e578781604051634232230760e01b81526004016107e1929190612dbd565b506001979650505050505050565b505f979650505050505050565b5f831580611f7e57506001600160a01b038216155b80611f9a5750816001600160a01b0316836001600160a01b0316145b15611fa6575082610a34565b61133c84611fb3846126f5565b611fbc866126f5565b61275c565b5f831580611fd657506001600160a01b038216155b80611ff25750816001600160a01b0316836001600160a01b0316145b15611ffe575082610a34565b61133c8461200b856126f5565b611fbc856126f5565b60785460408051600481526024810182526020810180516001600160e01b0316633629edcd60e11b17905290515f92839283926001600160a01b039092169161205d9190612e71565b5f60405180830381855afa9150503d805f8114612095576040519150601f19603f3d011682016040523d82523d5f602084013e61209a565b606091505b50915091508115806120ad575060208151105b156120b757505090565b808060200190518101906112c49190612da2565b5f826001600160a01b03163b5f036120e457505f61059c565b826001600160a01b031663a0e67e2b6040518163ffffffff1660e01b81526004015f60405180830381865afa92505050801561214157506040513d5f823e601f3d908101601f1916820160405261213e9190810190612ecf565b60015b15612199575f5b815181101561219657836001600160a01b031682828151811061216d5761216d612e20565b60200260200101516001600160a01b03160361218e5760019250505061059c565b600101612148565b50505b505f92915050565b5f8060785f9054906101000a90046001600160a01b03166001600160a01b031663f86c5f896040518163ffffffff1660e01b8152600401602060405180830381865afa1580156121f3573d5f803e3d5ffd5b505050506040513d601f19601f820116820180604052508101906122179190612da2565b90506001600160a01b03811661222f57505f92915050565b604051638d41569d60e01b81526001600160a01b03821690638d41569d9061225b9086906004016129fb565b602060405180830381865afa158015612276573d5f803e3d5ffd5b505050506040513d601f19601f82011682018060405250810190610a349190612d74565b6071546074546073546072546075546040516314eff2dd60e11b81525f600482018190526024820188905260448201969096526064810194909452608484019290925260a483015260c4820152819073__$f1b7c69ba751c396eddc93d3bbc5414fd9$__906329dfe5ba9060e401602060405180830381865af4158015612323573d5f803e3d5ffd5b505050506040513d601f19601f820116820180604052508101906123479190612d14565b909311949350505050565b5f806123616298968084612e01565b90506001600160801b0381116123775780610a34565b6001600160801b039392505050565b5f6001600160801b038216158061239b575083155b806123a4575082155b156123b057505f610a34565b5f6123c585846001600160801b0316866127ce565b9050805f036123d2575060015b6001600160801b0381116123e65780611c99565b506001600160801b03949350505050565b5f805160206131b6833981519152545f805160206131f6833981519152546001600160a01b03811661250a576001600160a01b03821661249457826001600160a01b03166320bc44256040518163ffffffff1660e01b8152600401602060405180830381865afa15801561246d573d5f803e3d5ffd5b505050506040513d601f19601f820116820180604052508101906124919190612da2565b91505b604051635b69006f60e11b81525f805160206131d683398151915260048201526001600160a01b0383169063b6d200de90602401602060405180830381865afa1580156124e3573d5f803e3d5ffd5b505050506040513d601f19601f820116820180604052508101906125079190612da2565b90505b6001600160a01b03821661252057612520612f6f565b6001600160a01b03811661253657612536612f6f565b915091565b5f805f612547886128b3565b91509150816001600160a01b03166339255d5b82836001600160a01b0316635a6c6dbc8c8c8c8c5f6001600160401b0381111561258657612586612b23565b6040519080825280601f01601f1916602001820160405280156125b0576020820181803683370190505b506040516024016125c5959493929190612f83565b60408051808303601f1901815291815260208201805160e094851b6001600160e01b03909116179052519185901b6001600160e01b0319168252612610939250908990600401612fcb565b5f604051808303815f875af115801561262b573d5f803e3d5ffd5b505050506040513d5f823e601f3d908101601f19168201604052612652919081019061300a565b5060405162735d7560e41b81526001600160a01b03821690630735d75090612682908b908b908b90600401612e8c565b602060405180830381865afa15801561269d573d5f803e3d5ffd5b505050506040513d601f19601f820116820180604052508101906126c19190612eaf565b98975050505050505050565b5f821561219957816126e0600185612d8f565b6126ea9190612e01565b610a34906001612d3f565b5f816001600160a01b031663313ce5676040518163ffffffff1660e01b8152600401602060405180830381865afa925050508015612750575060408051601f3d908101601f1916820190925261274d9181019061304e565b60015b61059c57506012919050565b5f83158061276f57508160ff168360ff16145b1561277b575082610a34565b8160ff168360ff1610156127af57612793838361306e565b61279e90600a613167565b6127a89085612dd6565b9050610a34565b6127b9828461306e565b6127c490600a613167565b61133c9085612e01565b5f80805f19858709858702925082811083820303915050805f03612805578382816127fb576127fb612ded565b0492505050610a34565b80841161284c5760405162461bcd60e51b81526020600482015260156024820152744d6174683a206d756c446976206f766572666c6f7760581b60448201526064016107e1565b5f8486880960026001871981018816978890046003810283188082028403028082028403028082028403028082028403028082028403029081029092039091025f889003889004909101858311909403939093029303949094049190911702949350505050565b5f805160206131b6833981519152545f805160206131f6833981519152546001600160a01b03811661250a576001600160a01b03821661295057826001600160a01b03166320bc44256040518163ffffffff1660e01b8152600401602060405180830381865afa158015612929573d5f803e3d5ffd5b505050506040513d601f19601f8201168201806040525081019061294d9190612da2565b91505b604051635b69006f60e11b81525f805160206131d683398151915260048201526001600160a01b0383169063b6d200de90602401602060405180830381865afa15801561299f573d5f803e3d5ffd5b505050506040513d601f19601f820116820180604052508101906129c39190612da2565b9050815f805160206131b683398151915255805f805160206131f6833981519152556001600160a01b03821661252057612520612f6f565b6001600160a01b0391909116815260200190565b5f60208284031215612a1f575f80fd5b5035919050565b93845260208401929092526040830152606082015260800190565b634e487b7160e01b5f52602160045260245ffd5b6020810160058310612a6957612a69612a41565b91905290565b6020810160038310612a6957612a69612a41565b6001600160a01b0381168114612a97575f80fd5b50565b5f60208284031215612aaa575f80fd5b8135610a3481612a83565b8015158114612a97575f80fd5b5f8060408385031215612ad3575f80fd5b8235612ade81612a83565b91506020830135612aee81612ab5565b809150509250929050565b5f8060408385031215612b0a575f80fd5b8235612b1581612a83565b946020939093013593505050565b634e487b7160e01b5f52604160045260245ffd5b60405160c081016001600160401b0381118282101715612b5957612b59612b23565b60405290565b604080519081016001600160401b0381118282101715612b5957612b59612b23565b604051601f8201601f191681016001600160401b0381118282101715612ba957612ba9612b23565b604052919050565b5f5b83811015612bcb578181015183820152602001612bb3565b50505f910152565b5f6001600160401b03831115612beb57612beb612b23565b612bfe601f8401601f1916602001612b81565b9050828152838383011115612c11575f80fd5b610a34836020830184612bb1565b5f6020808385031215612c30575f80fd5b82516001600160401b0380821115612c46575f80fd5b9084019060c08287031215612c59575f80fd5b612c61612b37565b8251815283830151612c7281612a83565b818501526040830151612c8481612a83565b6040820152606083015182811115612c9a575f80fd5b830160408189031215612cab575f80fd5b612cb3612b5f565b815181528582015184811115612cc7575f80fd5b82019350601f84018913612cd9575f80fd5b612ce7898551888701612bd3565b8682015280606084015250506080830151608082015260a083015160a08201528094505050505092915050565b5f60208284031215612d24575f80fd5b5051919050565b634e487b7160e01b5f52601160045260245ffd5b8082018082111561059c5761059c612d2b565b6001600160a01b039290921682526001600160801b0316602082015260400190565b5f60208284031215612d84575f80fd5b8151610a3481612ab5565b8181038181111561059c5761059c612d2b565b5f60208284031215612db2575f80fd5b8151610a3481612a83565b6001600160a01b03929092168252602082015260400190565b808202811582820484141761059c5761059c612d2b565b634e487b7160e01b5f52601260045260245ffd5b5f82612e1b57634e487b7160e01b5f52601260045260245ffd5b500490565b634e487b7160e01b5f52603260045260245ffd5b5f8151808452612e4b816020860160208601612bb1565b601f01601f19169290920160200192915050565b602081525f610a346020830184612e34565b5f8251612e82818460208701612bb1565b9190910192915050565b6001600160a01b0393841681529183166020830152909116604082015260600190565b5f60208284031215612ebf575f80fd5b815180600b0b8114610a34575f80fd5b5f6020808385031215612ee0575f80fd5b82516001600160401b0380821115612ef6575f80fd5b818501915085601f830112612f09575f80fd5b815181811115612f1b57612f1b612b23565b8060051b9150612f2c848301612b81565b8181529183018401918481019088841115612f45575f80fd5b938501935b838510156126c15784519250612f5f83612a83565b8282529385019390850190612f4a565b634e487b7160e01b5f52600160045260245ffd5b6001600160a01b038681168252858116602083015284166040820152600b83900b606082015260a0608082018190525f90612fc090830184612e34565b979650505050505050565b6001600160a01b03841681526060602082018190525f90612fee90830185612e34565b82810360408401526130008185612e34565b9695505050505050565b5f6020828403121561301a575f80fd5b81516001600160401b0381111561302f575f80fd5b8201601f8101841361303f575f80fd5b61133c84825160208401612bd3565b5f6020828403121561305e575f80fd5b815160ff81168114610a34575f80fd5b60ff828116828216039081111561059c5761059c612d2b565b600181815b808511156130c157815f19048211156130a7576130a7612d2b565b808516156130b457918102915b93841c939080029061308c565b509250929050565b5f826130d75750600161059c565b816130e357505f61059c565b81600181146130f957600281146131035761311f565b600191505061059c565b60ff84111561311457613114612d2b565b50506001821b61059c565b5060208310610133831016604e8410600b8410161715613142575081810a61059c565b61314c8383613087565b805f190482111561315f5761315f612d2b565b029392505050565b5f610a3460ff8416836130c956fea205e36fbcf9246c82794cd6bc88322c21cdacf00b0c5bf32a99c06998547190a1d53b5da3d9d7af654e5d1e4cef8cbd12cfc576a0891d2303ea5a58d568830065599bf746e17a00ea62e3610586992d88101b78eec3cf380706621fb97ea837dfd8ece9bfbcb8c5c540edb935641f63d67686490a1ab97f000288759f30a946c36f6c05164a669ecb6da53e218d77ae44d51cfc99f91e5a125a18de0949bee4a164736f6c6343000817000a608060405234801561000f575f80fd5b5061098d8061001d5f395ff3fe608060405234801561000f575f80fd5b5060043610610055575f3560e01c806301ffc9a71461005957806352ef6b2c146100815780637a0ed62714610096578063adfca15e146100ab578063cdffacc6146100cb575b5f80fd5b61006c610067366004610799565b6100f6565b60405190151581526020015b60405180910390f35b610089610125565b60405161007891906107c7565b61009e61028c565b6040516100789190610857565b6100be6100b93660046108d4565b61062b565b60405161007891906108fa565b6100de6100d9366004610799565b610742565b6040516001600160a01b039091168152602001610078565b5f80610100610775565b6001600160e01b03199093165f90815260029093016020525050604090205460ff1690565b60605f610130610775565b6001810154909150806001600160401b038111156101505761015061090c565b604051908082528060200260200182016040528015610179578160200160208202803683370190505b5092505f805b82811015610282575f84600101828154811061019d5761019d610920565b5f918252602080832060088304015460079092166004026101000a90910460e01b6001600160e01b0319811683529087905260408220549092506001600160a01b031690805b8581101561022e578881815181106101fd576101fd610920565b60200260200101516001600160a01b0316836001600160a01b031603610226576001915061022e565b6001016101e3565b50801561023e575061027a915050565b8188868151811061025157610251610920565b6001600160a01b03909216602092830291909101909101528461027381610948565b9550505050505b60010161017f565b5080845250505090565b60605f610297610775565b6001810154909150806001600160401b038111156102b7576102b761090c565b6040519080825280602002602001820160405280156102fc57816020015b604080518082019091525f8152606060208201528152602001906001900390816102d55790505b5092505f816001600160401b038111156103185761031861090c565b604051908082528060200260200182016040528015610341578160200160208202803683370190505b5090505f805b838110156105c6575f85600101828154811061036557610365610920565b5f918252602080832060088304015460079092166004026101000a90910460e01b6001600160e01b0319811683529088905260408220549092506001600160a01b031690805b8581101561049657826001600160a01b03168a82815181106103cf576103cf610920565b60200260200101515f01516001600160a01b03160361048e57838a82815181106103fb576103fb610920565b60200260200101516020015188838151811061041957610419610920565b602002602001015161ffff168151811061043557610435610920565b60200260200101906001600160e01b03191690816001600160e01b0319168152505086818151811061046957610469610920565b60200260200101805180919061047e90610960565b61ffff1690525060019150610496565b6001016103ab565b5080156104a657506105be915050565b818986815181106104b9576104b9610920565b60209081029190910101516001600160a01b039091169052866001600160401b038111156104e9576104e961090c565b604051908082528060200260200182016040528015610512578160200160208202803683370190505b5089868151811061052557610525610920565b6020026020010151602001819052508289868151811061054757610547610920565b6020026020010151602001515f8151811061056457610564610920565b60200260200101906001600160e01b03191690816001600160e01b03191681525050600186868151811061059a5761059a610920565b61ffff90921660209283029190910190910152846105b781610948565b9550505050505b600101610347565b505f5b81811015610620575f8382815181106105e4576105e4610920565b602002602001015161ffff1690505f87838151811061060557610605610920565b602090810291909101810151015191909152506001016105c9565b508085525050505090565b60605f610636610775565b60018101549091505f816001600160401b038111156106575761065761090c565b604051908082528060200260200182016040528015610680578160200160208202803683370190505b5093505f5b82811015610737575f8460010182815481106106a3576106a3610920565b5f918252602080832060088304015460079092166004026101000a90910460e01b6001600160e01b031981168352908790526040909120549091506001600160a01b0390811690881681900361072d578187858151811061070657610706610920565b6001600160e01b0319909216602092830291909101909101528361072981610948565b9450505b5050600101610685565b508352509092915050565b5f8061074c610775565b6001600160e01b03199093165f908152602093909352505060409020546001600160a01b031690565b7fc8fcad8db84d3cc18b4c41d551ea0ee66dd599cde068d998e57d5e09332c131c90565b5f602082840312156107a9575f80fd5b81356001600160e01b0319811681146107c0575f80fd5b9392505050565b602080825282518282018190525f9190848201906040850190845b818110156108075783516001600160a01b0316835292840192918401916001016107e2565b50909695505050505050565b5f815180845260208085019450602084015f5b8381101561084c5781516001600160e01b03191687529582019590820190600101610826565b509495945050505050565b5f60208083018184528085518083526040925060408601915060408160051b8701018488015f5b838110156108c657888303603f19018552815180516001600160a01b031684528701518784018790526108b387850182610813565b958801959350509086019060010161087e565b509098975050505050505050565b5f602082840312156108e4575f80fd5b81356001600160a01b03811681146107c0575f80fd5b602081525f6107c06020830184610813565b634e487b7160e01b5f52604160045260245ffd5b634e487b7160e01b5f52603260045260245ffd5b634e487b7160e01b5f52601160045260245ffd5b5f6001820161095957610959610934565b5060010190565b5f61ffff80831681810361097657610976610934565b600101939250505056fea164736f6c6343000817000a608060405234801561000f575f80fd5b506101458061001d5f395ff3fe608060405234801561000f575f80fd5b5060043610610029575f3560e01c8063e1c7392a1461002d575b5f80fd5b6101367fc8fcad8db84d3cc18b4c41d551ea0ee66dd599cde068d998e57d5e09332c131e6020527f673a26ab9c976db950bbe987aa80c5e387f329563bb0afe093ddccc970489e318054600160ff1991821681179092557f9bed265332efc30fa7643cc339edc91cb284a0f6566818a5788922af58c86b5080548216831790557f795db15802e151b19272d3e7b72ebd9d0cedc282cc23a6e937c8c3c90d9e213780548216831790557fe616bea4664e595328e525b24998219caecea2090de91847473acfb3efaa8aad805482168317905563188d362b60e11b5f527f3fa173a95130a3eff22d82d7a2331468e8ab2c341b11042ed283386aa859d14980549091169091179055565b00fea164736f6c6343000817000a","linkReferences":{"pkg/contracts/src/CVStrategy/ConvictionsUtils.sol":{"ConvictionsUtils":[{"start":9015,"length":20},{"start":22794,"length":20},{"start":23647,"length":20},{"start":28391,"length":20},{"start":34972,"length":20},{"start":42496,"length":20},{"start":48378,"length":20},{"start":52738,"length":20},{"start":59874,"length":20},{"start":67017,"length":20},{"start":71012,"length":20},{"start":75151,"length":20},{"start":76471,"length":20},{"start":81630,"length":20}]},"pkg/contracts/src/CVStrategy/PowerManagementUtils.sol":{"PowerManagementUtils":[{"start":47316,"length":20},{"start":49033,"length":20}]}}},"methodIdentifiers":{"adminFacet()":"cc86baf2","allocationFacet()":"9af9ce35","configureFacets(address)":"418264ec","diamondInit()":"e6ee1d4f","disputeFacet()":"67baf4b9","getFacetCuts()":"73371352","getFacetCuts(address,address,address,address,address,address,address,address,address)":"abb73ece","loupeFacet()":"885ae90d","pauseFacet()":"adaf157b","powerFacet()":"6957f9c7","proposalFacet()":"de75cb4c","streamingFacet()":"c0a44819","syncPowerFacet()":"09008b8f"},"storageLayout":{"storage":[{"astId":117437,"contract":"pkg/contracts/test/helpers/StrategyDiamondConfigurator.sol:StrategyDiamondConfigurator","label":"adminFacet","offset":0,"slot":"0","type":"t_contract(CVAdminFacet)94121"},{"astId":117440,"contract":"pkg/contracts/test/helpers/StrategyDiamondConfigurator.sol:StrategyDiamondConfigurator","label":"allocationFacet","offset":0,"slot":"1","type":"t_contract(CVAllocationFacet)95294"},{"astId":117443,"contract":"pkg/contracts/test/helpers/StrategyDiamondConfigurator.sol:StrategyDiamondConfigurator","label":"disputeFacet","offset":0,"slot":"2","type":"t_contract(CVDisputeFacet)95994"},{"astId":117446,"contract":"pkg/contracts/test/helpers/StrategyDiamondConfigurator.sol:StrategyDiamondConfigurator","label":"pauseFacet","offset":0,"slot":"3","type":"t_contract(CVPauseFacet)96016"},{"astId":117449,"contract":"pkg/contracts/test/helpers/StrategyDiamondConfigurator.sol:StrategyDiamondConfigurator","label":"powerFacet","offset":0,"slot":"4","type":"t_contract(CVPowerFacet)96834"},{"astId":117452,"contract":"pkg/contracts/test/helpers/StrategyDiamondConfigurator.sol:StrategyDiamondConfigurator","label":"proposalFacet","offset":0,"slot":"5","type":"t_contract(CVProposalFacet)97678"},{"astId":117455,"contract":"pkg/contracts/test/helpers/StrategyDiamondConfigurator.sol:StrategyDiamondConfigurator","label":"syncPowerFacet","offset":0,"slot":"6","type":"t_contract(CVSyncPowerFacet)99792"},{"astId":117458,"contract":"pkg/contracts/test/helpers/StrategyDiamondConfigurator.sol:StrategyDiamondConfigurator","label":"streamingFacet","offset":0,"slot":"7","type":"t_contract(CVStreamingFacet)99142"},{"astId":117461,"contract":"pkg/contracts/test/helpers/StrategyDiamondConfigurator.sol:StrategyDiamondConfigurator","label":"loupeFacet","offset":0,"slot":"8","type":"t_contract(DiamondLoupeFacet)107520"},{"astId":117464,"contract":"pkg/contracts/test/helpers/StrategyDiamondConfigurator.sol:StrategyDiamondConfigurator","label":"diamondInit","offset":0,"slot":"9","type":"t_contract(CVStrategyDiamondInit)90212"}],"types":{"t_contract(CVAdminFacet)94121":{"encoding":"inplace","label":"contract CVAdminFacet","numberOfBytes":"20"},"t_contract(CVAllocationFacet)95294":{"encoding":"inplace","label":"contract CVAllocationFacet","numberOfBytes":"20"},"t_contract(CVDisputeFacet)95994":{"encoding":"inplace","label":"contract CVDisputeFacet","numberOfBytes":"20"},"t_contract(CVPauseFacet)96016":{"encoding":"inplace","label":"contract CVPauseFacet","numberOfBytes":"20"},"t_contract(CVPowerFacet)96834":{"encoding":"inplace","label":"contract CVPowerFacet","numberOfBytes":"20"},"t_contract(CVProposalFacet)97678":{"encoding":"inplace","label":"contract CVProposalFacet","numberOfBytes":"20"},"t_contract(CVStrategyDiamondInit)90212":{"encoding":"inplace","label":"contract CVStrategyDiamondInit","numberOfBytes":"20"},"t_contract(CVStreamingFacet)99142":{"encoding":"inplace","label":"contract CVStreamingFacet","numberOfBytes":"20"},"t_contract(CVSyncPowerFacet)99792":{"encoding":"inplace","label":"contract CVSyncPowerFacet","numberOfBytes":"20"},"t_contract(DiamondLoupeFacet)107520":{"encoding":"inplace","label":"contract DiamondLoupeFacet","numberOfBytes":"20"}}},"id":193}