{"abi":[{"type":"constructor","inputs":[],"stateMutability":"nonpayable"},{"type":"function","name":"depositCollateral","inputs":[{"name":"proposalId","type":"uint256","internalType":"uint256"},{"name":"user","type":"address","internalType":"address"}],"outputs":[],"stateMutability":"payable"},{"type":"function","name":"initialize","inputs":[],"outputs":[],"stateMutability":"nonpayable"},{"type":"function","name":"owner","inputs":[],"outputs":[{"name":"","type":"address","internalType":"address"}],"stateMutability":"view"},{"type":"function","name":"proposalCollateral","inputs":[{"name":"proposalId","type":"uint256","internalType":"uint256"},{"name":"user","type":"address","internalType":"address"}],"outputs":[{"name":"amount","type":"uint256","internalType":"uint256"}],"stateMutability":"view"},{"type":"function","name":"withdrawCollateral","inputs":[{"name":"_proposalId","type":"uint256","internalType":"uint256"},{"name":"_user","type":"address","internalType":"address"},{"name":"_amount","type":"uint256","internalType":"uint256"}],"outputs":[],"stateMutability":"nonpayable"},{"type":"function","name":"withdrawCollateralFor","inputs":[{"name":"_proposalId","type":"uint256","internalType":"uint256"},{"name":"_fromUser","type":"address","internalType":"address"},{"name":"_toUser","type":"address","internalType":"address"},{"name":"_amount","type":"uint256","internalType":"uint256"}],"outputs":[],"stateMutability":"nonpayable"},{"type":"event","name":"CollateralDeposited","inputs":[{"name":"proposalId","type":"uint256","indexed":false,"internalType":"uint256"},{"name":"user","type":"address","indexed":true,"internalType":"address"},{"name":"amount","type":"uint256","indexed":false,"internalType":"uint256"}],"anonymous":false},{"type":"event","name":"CollateralWithdrawn","inputs":[{"name":"proposalId","type":"uint256","indexed":false,"internalType":"uint256"},{"name":"user","type":"address","indexed":true,"internalType":"address"},{"name":"amount","type":"uint256","indexed":false,"internalType":"uint256"},{"name":"isInsufficientAvailableAmount","type":"bool","indexed":false,"internalType":"bool"}],"anonymous":false},{"type":"event","name":"CollateralWithdrawn","inputs":[{"name":"proposalId","type":"uint256","indexed":false,"internalType":"uint256"},{"name":"fromUser","type":"address","indexed":true,"internalType":"address"},{"name":"toUser","type":"address","indexed":true,"internalType":"address"},{"name":"amount","type":"uint256","indexed":false,"internalType":"uint256"},{"name":"isInsufficientAvailableAmount","type":"bool","indexed":false,"internalType":"bool"}],"anonymous":false},{"type":"error","name":"AlreadyInitialized","inputs":[]},{"type":"error","name":"InsufficientCollateral","inputs":[{"name":"requested","type":"uint256","internalType":"uint256"},{"name":"available","type":"uint256","internalType":"uint256"}]},{"type":"error","name":"InvalidAddress","inputs":[]},{"type":"error","name":"NotAuthorized","inputs":[]}],"bytecode":{"object":"0x608060405234801561001057600080fd5b5060016000556106c7806100256000396000f3fe6080604052600436106100555760003560e01c8063481fef8a1461005a5780638129fc1c1461006f5780638630da1d146100845780638969ab53146100cf5780638da5cb5b146100ef57806399ea56b014610127575b600080fd5b61006d610068366004610592565b610147565b005b34801561007b57600080fd5b5061006d610202565b34801561009057600080fd5b506100bc61009f366004610592565b600160209081526000928352604080842090915290825290205481565b6040519081526020015b60405180910390f35b3480156100db57600080fd5b5061006d6100ea3660046105be565b61023f565b3480156100fb57600080fd5b5060025461010f906001600160a01b031681565b6040516001600160a01b0390911681526020016100c6565b34801561013357600080fd5b5061006d610142366004610602565b6103b8565b6002546001600160a01b031633146101725760405163ea8e4eb560e01b815260040160405180910390fd5b61017a61051d565b60008281526001602090815260408083206001600160a01b0385168452909152812080543492906101ac90849061064d565b9091555050604080518381523460208201526001600160a01b038316917feec2f3feb835e2f2fd44281034b04700a1ddda63dd402949d470a25a7c40b36c910160405180910390a26101fe6001600055565b5050565b6002546001600160a01b03161561022b5760405162dc149f60e41b815260040160405180910390fd5b600280546001600160a01b03191633179055565b6002546001600160a01b0316331461026a5760405163ea8e4eb560e01b815260040160405180910390fd5b61027261051d565b60008481526001602090815260408083206001600160a01b038716845290915281205490818311156102a5575090508060015b60008681526001602090815260408083206001600160a01b0389168452909152812080548592906102d7908490610666565b90915550506040516000906001600160a01b0386169085908381818185875af1925050503d8060008114610327576040519150601f19603f3d011682016040523d82523d6000602084013e61032c565b606091505b50509050806103565760405162461bcd60e51b815260040161034d90610679565b60405180910390fd5b846001600160a01b0316866001600160a01b03167f86b742620d95ff25811b118a7f2dbca2f5f4c869adf0b0d94660965f51c8d76989878660405161039d939291906106a2565b60405180910390a35050506103b26001600055565b50505050565b6002546001600160a01b031633146103e35760405163ea8e4eb560e01b815260040160405180910390fd5b6103eb61051d565b60008381526001602090815260408083206001600160a01b0386168452909152812054908183111561041e575090508060015b60008581526001602090815260408083206001600160a01b038816845290915281208054859290610450908490610666565b90915550506040516000906001600160a01b0386169085908381818185875af1925050503d80600081146104a0576040519150601f19603f3d011682016040523d82523d6000602084013e6104a5565b606091505b50509050806104c65760405162461bcd60e51b815260040161034d90610679565b846001600160a01b03167fc512525fc7952c6edf42100f0853e94fb1c1f6daf93780cac22b690a36e03724878685604051610503939291906106a2565b60405180910390a25050506105186001600055565b505050565b60026000540361056f5760405162461bcd60e51b815260206004820152601f60248201527f5265656e7472616e637947756172643a207265656e7472616e742063616c6c00604482015260640161034d565b6002600055565b80356001600160a01b038116811461058d57600080fd5b919050565b600080604083850312156105a557600080fd5b823591506105b560208401610576565b90509250929050565b600080600080608085870312156105d457600080fd5b843593506105e460208601610576565b92506105f260408601610576565b9396929550929360600135925050565b60008060006060848603121561061757600080fd5b8335925061062760208501610576565b9150604084013590509250925092565b634e487b7160e01b600052601160045260246000fd5b8082018082111561066057610660610637565b92915050565b8181038181111561066057610660610637565b6020808252600f908201526e151c985b9cd9995c8819985a5b1959608a1b604082015260600190565b9283526020830191909152151560408201526060019056fea164736f6c6343000813000a","linkReferences":{}},"methodIdentifiers":{"depositCollateral(uint256,address)":"481fef8a","initialize()":"8129fc1c","owner()":"8da5cb5b","proposalCollateral(uint256,address)":"8630da1d","withdrawCollateral(uint256,address,uint256)":"99ea56b0","withdrawCollateralFor(uint256,address,address,uint256)":"8969ab53"},"storageLayout":{"storage":[{"astId":57863,"contract":"pkg/contracts/src/CollateralVault.sol:CollateralVault","label":"_status","offset":0,"slot":"0","type":"t_uint256"},{"astId":94985,"contract":"pkg/contracts/src/CollateralVault.sol:CollateralVault","label":"proposalCollateral","offset":0,"slot":"1","type":"t_mapping(t_uint256,t_mapping(t_address,t_uint256))"},{"astId":94987,"contract":"pkg/contracts/src/CollateralVault.sol:CollateralVault","label":"owner","offset":0,"slot":"2","type":"t_address"}],"types":{"t_address":{"encoding":"inplace","label":"address","numberOfBytes":"20"},"t_mapping(t_address,t_uint256)":{"encoding":"mapping","key":"t_address","label":"mapping(address => uint256)","numberOfBytes":"32","value":"t_uint256"},"t_mapping(t_uint256,t_mapping(t_address,t_uint256))":{"encoding":"mapping","key":"t_uint256","label":"mapping(uint256 => mapping(address => uint256))","numberOfBytes":"32","value":"t_mapping(t_address,t_uint256)"},"t_uint256":{"encoding":"inplace","label":"uint256","numberOfBytes":"32"}}},"id":164}