{"abi":[{"type":"function","name":"DISPUTE_COOLDOWN_SEC","inputs":[],"outputs":[{"name":"","type":"uint256","internalType":"uint256"}],"stateMutability":"view"},{"type":"function","name":"RULING_OPTIONS","inputs":[],"outputs":[{"name":"","type":"uint256","internalType":"uint256"}],"stateMutability":"view"},{"type":"function","name":"arbitrableConfigs","inputs":[{"name":"","type":"uint256","internalType":"uint256"}],"outputs":[{"name":"arbitrator","type":"address","internalType":"contract IArbitrator"},{"name":"tribunalSafe","type":"address","internalType":"address"},{"name":"submitterCollateralAmount","type":"uint256","internalType":"uint256"},{"name":"challengerCollateralAmount","type":"uint256","internalType":"uint256"},{"name":"defaultRuling","type":"uint256","internalType":"uint256"},{"name":"defaultRulingTimeout","type":"uint256","internalType":"uint256"}],"stateMutability":"view"},{"type":"function","name":"cloneNonce","inputs":[],"outputs":[{"name":"","type":"uint256","internalType":"uint256"}],"stateMutability":"view"},{"type":"function","name":"collateralVault","inputs":[],"outputs":[{"name":"","type":"address","internalType":"contract ICollateralVault"}],"stateMutability":"view"},{"type":"function","name":"currentArbitrableConfigVersion","inputs":[],"outputs":[{"name":"","type":"uint256","internalType":"uint256"}],"stateMutability":"view"},{"type":"function","name":"cvParams","inputs":[],"outputs":[{"name":"maxRatio","type":"uint256","internalType":"uint256"},{"name":"weight","type":"uint256","internalType":"uint256"},{"name":"decay","type":"uint256","internalType":"uint256"},{"name":"minThresholdPoints","type":"uint256","internalType":"uint256"}],"stateMutability":"view"},{"type":"function","name":"disputeCount","inputs":[],"outputs":[{"name":"","type":"uint64","internalType":"uint64"}],"stateMutability":"view"},{"type":"function","name":"disputeIdToProposalId","inputs":[{"name":"","type":"uint256","internalType":"uint256"}],"outputs":[{"name":"","type":"uint256","internalType":"uint256"}],"stateMutability":"view"},{"type":"function","name":"disputeProposal","inputs":[{"name":"proposalId","type":"uint256","internalType":"uint256"},{"name":"context","type":"string","internalType":"string"},{"name":"_extraData","type":"bytes","internalType":"bytes"}],"outputs":[{"name":"disputeId","type":"uint256","internalType":"uint256"}],"stateMutability":"payable"},{"type":"function","name":"pointConfig","inputs":[],"outputs":[{"name":"maxAmount","type":"uint256","internalType":"uint256"}],"stateMutability":"view"},{"type":"function","name":"pointSystem","inputs":[],"outputs":[{"name":"","type":"uint8","internalType":"enum PointSystem"}],"stateMutability":"view"},{"type":"function","name":"proposalCounter","inputs":[],"outputs":[{"name":"","type":"uint256","internalType":"uint256"}],"stateMutability":"view"},{"type":"function","name":"proposalType","inputs":[],"outputs":[{"name":"","type":"uint8","internalType":"enum ProposalType"}],"stateMutability":"view"},{"type":"function","name":"proposals","inputs":[{"name":"","type":"uint256","internalType":"uint256"}],"outputs":[{"name":"proposalId","type":"uint256","internalType":"uint256"},{"name":"requestedAmount","type":"uint256","internalType":"uint256"},{"name":"stakedAmount","type":"uint256","internalType":"uint256"},{"name":"convictionLast","type":"uint256","internalType":"uint256"},{"name":"beneficiary","type":"address","internalType":"address"},{"name":"submitter","type":"address","internalType":"address"},{"name":"requestedToken","type":"address","internalType":"address"},{"name":"blockLast","type":"uint256","internalType":"uint256"},{"name":"proposalStatus","type":"uint8","internalType":"enum ProposalStatus"},{"name":"metadata","type":"tuple","internalType":"struct Metadata","components":[{"name":"protocol","type":"uint256","internalType":"uint256"},{"name":"pointer","type":"string","internalType":"string"}]},{"name":"disputeInfo","type":"tuple","internalType":"struct ProposalDisputeInfo","components":[{"name":"disputeId","type":"uint256","internalType":"uint256"},{"name":"disputeTimestamp","type":"uint256","internalType":"uint256"},{"name":"challenger","type":"address","internalType":"address"}]},{"name":"lastDisputeCompletion","type":"uint256","internalType":"uint256"},{"name":"arbitrableConfigVersion","type":"uint256","internalType":"uint256"},{"name":"creationTimestamp","type":"uint256","internalType":"uint256"}],"stateMutability":"view"},{"type":"function","name":"registryCommunity","inputs":[],"outputs":[{"name":"","type":"address","internalType":"contract RegistryCommunity"}],"stateMutability":"view"},{"type":"function","name":"rule","inputs":[{"name":"_disputeID","type":"uint256","internalType":"uint256"},{"name":"_ruling","type":"uint256","internalType":"uint256"}],"outputs":[],"stateMutability":"nonpayable"},{"type":"function","name":"streamingRatePerSecond","inputs":[],"outputs":[{"name":"","type":"uint256","internalType":"uint256"}],"stateMutability":"view"},{"type":"function","name":"superfluidGDA","inputs":[],"outputs":[{"name":"","type":"address","internalType":"contract ISuperfluidPool"}],"stateMutability":"view"},{"type":"function","name":"superfluidToken","inputs":[],"outputs":[{"name":"","type":"address","internalType":"contract ISuperToken"}],"stateMutability":"view"},{"type":"function","name":"sybilScorer","inputs":[],"outputs":[{"name":"","type":"address","internalType":"contract ISybilScorer"}],"stateMutability":"view"},{"type":"function","name":"totalPointsActivated","inputs":[],"outputs":[{"name":"","type":"uint256","internalType":"uint256"}],"stateMutability":"view"},{"type":"function","name":"totalStaked","inputs":[],"outputs":[{"name":"","type":"uint256","internalType":"uint256"}],"stateMutability":"view"},{"type":"function","name":"totalVoterStakePct","inputs":[{"name":"","type":"address","internalType":"address"}],"outputs":[{"name":"","type":"uint256","internalType":"uint256"}],"stateMutability":"view"},{"type":"function","name":"voterStakedProposals","inputs":[{"name":"","type":"address","internalType":"address"},{"name":"","type":"uint256","internalType":"uint256"}],"outputs":[{"name":"","type":"uint256","internalType":"uint256"}],"stateMutability":"view"},{"type":"function","name":"votingPowerRegistry","inputs":[],"outputs":[{"name":"","type":"address","internalType":"contract IVotingPowerRegistry"}],"stateMutability":"view"},{"type":"event","name":"ProposalDisputed","inputs":[{"name":"arbitrator","type":"address","indexed":false,"internalType":"contract IArbitrator"},{"name":"proposalId","type":"uint256","indexed":false,"internalType":"uint256"},{"name":"disputeId","type":"uint256","indexed":false,"internalType":"uint256"},{"name":"challenger","type":"address","indexed":false,"internalType":"address"},{"name":"context","type":"string","indexed":false,"internalType":"string"},{"name":"timestamp","type":"uint256","indexed":false,"internalType":"uint256"}],"anonymous":false},{"type":"event","name":"Ruling","inputs":[{"name":"_arbitrator","type":"address","indexed":true,"internalType":"contract IArbitrator"},{"name":"_disputeID","type":"uint256","indexed":true,"internalType":"uint256"},{"name":"_ruling","type":"uint256","indexed":false,"internalType":"uint256"}],"anonymous":false},{"type":"error","name":"ChallengerCollateralTooLow","inputs":[{"name":"sent","type":"uint256","internalType":"uint256"},{"name":"required","type":"uint256","internalType":"uint256"}]},{"type":"error","name":"DefaultRulingNotConfigured","inputs":[{"name":"proposalId","type":"uint256","internalType":"uint256"}]},{"type":"error","name":"DisputeCooldownActive","inputs":[{"name":"proposalId","type":"uint256","internalType":"uint256"},{"name":"secondsRemaining","type":"uint256","internalType":"uint256"}]},{"type":"error","name":"OnlyActiveProposal","inputs":[{"name":"proposalId","type":"uint256","internalType":"uint256"}]},{"type":"error","name":"OnlyAllo","inputs":[{"name":"sender","type":"address","internalType":"address"},{"name":"allo","type":"address","internalType":"address"}]},{"type":"error","name":"OnlyArbitrator","inputs":[{"name":"sender","type":"address","internalType":"address"},{"name":"arbitrator","type":"address","internalType":"address"}]},{"type":"error","name":"OnlyCouncilSafe","inputs":[{"name":"sender","type":"address","internalType":"address"},{"name":"councilSafe","type":"address","internalType":"address"},{"name":"owner","type":"address","internalType":"address"}]},{"type":"error","name":"OnlyCouncilSafeOrMember","inputs":[{"name":"sender","type":"address","internalType":"address"},{"name":"councilSafe","type":"address","internalType":"address"}]},{"type":"error","name":"OnlyInitialized","inputs":[{"name":"poolId","type":"uint256","internalType":"uint256"}]},{"type":"error","name":"OnlyMember","inputs":[{"name":"wallet","type":"address","internalType":"address"},{"name":"community","type":"address","internalType":"address"}]},{"type":"error","name":"OnlyRegistryCommunity","inputs":[{"name":"sender","type":"address","internalType":"address"},{"name":"registry","type":"address","internalType":"address"}]},{"type":"error","name":"OnlySubmitter","inputs":[{"name":"proposalId","type":"uint256","internalType":"uint256"},{"name":"submitter","type":"address","internalType":"address"},{"name":"sender","type":"address","internalType":"address"}]},{"type":"error","name":"ProposalDoesNotExist","inputs":[{"name":"proposalID","type":"uint256","internalType":"uint256"}]},{"type":"error","name":"ProposalStatusInvalid","inputs":[{"name":"proposalId","type":"uint256","internalType":"uint256"},{"name":"currentStatus","type":"uint8","internalType":"enum ProposalStatus"}]},{"type":"error","name":"StrategyPaused","inputs":[{"name":"controller","type":"address","internalType":"address"}]},{"type":"error","name":"StrategySelectorPaused","inputs":[{"name":"selector","type":"bytes4","internalType":"bytes4"},{"name":"controller","type":"address","internalType":"address"}]}],"bytecode":{"object":"0x608060405234801561000f575f80fd5b506117008061001d5f395ff3fe608060405260043610610130575f3560e01c8063013cf08b1461013457806305caa7f3146101765780630bece79c146101a25780630c0512e9146101c1578063125fd1d9146101e45780631b36f56f146101f95780632506b87014610218578063255ffb381461025a5780632dbd6fdd14610285578063311a6c56146102b057806333960459146102d1578063351d9f96146102e657806341bb76051461030c5780635db64b991461039f5780636003e414146103ca578063626c47e8146103e957806380fd91cd146103fd578063817b1cd21461041c578063868c57b81461043157806394573cbb14610450578063a28889e114610465578063a47ff7e51461049c578063aba9ffee146104b2578063b41596ec146104c7578063b6c61f31146104da578063f5be3f7c146104f9575b5f80fd5b34801561013f575f80fd5b5061015361014e3660046111ef565b61050e565b60405161016d9e9d9c9b9a99989796959493929190611287565b60405180910390f35b348015610181575f80fd5b50608054610195906001600160a01b031681565b60405161016d919061133a565b3480156101ad575f80fd5b50607954610195906001600160a01b031681565b3480156101cc575f80fd5b506101d6606e5481565b60405190815260200161016d565b3480156101ef575f80fd5b506101d6606f5481565b348015610204575f80fd5b50608154610195906001600160a01b031681565b348015610223575f80fd5b5060725460735460745460755461023a9392919084565b60408051948552602085019390935291830152606082015260800161016d565b348015610265575f80fd5b506101d66102743660046111ef565b607e6020525f908152604090205481565b348015610290575f80fd5b506076546102a390610100900460ff1681565b60405161016d919061134e565b3480156102bb575f80fd5b506102cf6102ca366004611368565b61065e565b005b3480156102dc575f80fd5b506101d6606c5481565b3480156102f1575f80fd5b506076546102ff9060ff1681565b60405161016d9190611388565b348015610317575f80fd5b506103676103263660046111ef565b607f6020525f90815260409020805460018201546002830154600384015460048501546005909501546001600160a01b039485169593909416939192909186565b604080516001600160a01b039788168152969095166020870152938501929092526060840152608083015260a082015260c00161016d565b3480156103aa575f80fd5b506101d66103b93660046113b0565b607c6020525f908152604090205481565b3480156103d5575f80fd5b50607854610195906001600160a01b031681565b3480156103f4575f80fd5b506101d6600381565b348015610408575f80fd5b50608354610195906001600160a01b031681565b348015610427575f80fd5b506101d660705481565b34801561043c575f80fd5b506101d661044b3660046113d2565b610c4f565b34801561045b575f80fd5b506101d660825481565b348015610470575f80fd5b50606d54610484906001600160401b031681565b6040516001600160401b03909116815260200161016d565b3480156104a7575f80fd5b506077546101d69081565b3480156104bd575f80fd5b506101d660715481565b6101d66104d5366004611440565b610c7a565b3480156104e5575f80fd5b50607a54610195906001600160a01b031681565b348015610504575f80fd5b506101d6611c2081565b607b60209081525f9182526040918290208054600182015460028301546003840154600485015460058601546006870154600788015460088901548b51808d01909c52600a8a0180548d52600b8b0180549a9d999c989b979a6001600160a01b039788169a968816999790951697939660ff9093169593949192840191610594906114b3565b80601f01602080910402602001604051908101604052809291908181526020018280546105c0906114b3565b801561060b5780601f106105e25761010080835404028352916020019161060b565b820191905f5260205f20905b8154815290600101906020018083116105ee57829003601f168201915b50505091909252505060408051606081018252600c8501548152600d8501546020820152600e8501546001600160a01b031691810191909152600f8401546010850154601190950154939491939092508e565b5f828152607e6020908152604080832054808452607b835281842060108101548552607f845293829020825160c08101845281546001600160a01b03908116825260018301541694810194909452600281015492840192909252600382015460608401526004820154608084015260059182015460a0840152929190600883015460ff1660068111156106f3576106f3611206565b1461072757600882015460405163effc443f60e01b815261071e91859160ff909116906004016114eb565b60405180910390fd5b60a0810151600d8301545f9161073c91611513565b42119050801581610757575081516001600160a01b03163314155b156107795781516040516377a14eaf60e11b815261071e91339160040161152c565b8080610783575084155b156108db5781608001515f036107af57604051638365b47b60e01b81526004810185905260240161071e565b81608001516001036107d85760088301805460ff191660019081179091556107d8908590611042565b816080015160020361086a5760088301805460ff191660061790556107fd845f611042565b6079546005840154604084810151905163099ea56b60e41b81526001600160a01b03938416936399ea56b09361083c938a939290911691600401611546565b5f604051808303815f87803b158015610853575f80fd5b505af1158015610865573d5f803e3d5ffd5b505050505b607954600e840154606084015160405163099ea56b60e41b81526001600160a01b03938416936399ea56b0936108a9938a939290911691600401611546565b5f604051808303815f87803b1580156108c0575f80fd5b505af11580156108d2573d5f803e3d5ffd5b50505050610bba565b846001036109a75760088301805460ff19166001908117909155610900908590611042565b607954600e84015460785460408051633629edcd60e11b815290516001600160a01b0394851694638969ab53948a9490821693911691636c53db9a916004808201926020929091908290030181865afa15801561095f573d5f803e3d5ffd5b505050506040513d601f19601f820116820180604052508101906109839190611565565b86606001516040518563ffffffff1660e01b81526004016108a99493929190611580565b84600203610bba5760088301805460ff191660061790556109c8845f611042565b607954600e840154606084015160405163099ea56b60e41b81526001600160a01b03938416936399ea56b093610a07938a939290911691600401611546565b5f604051808303815f87803b158015610a1e575f80fd5b505af1158015610a30573d5f803e3d5ffd5b5050607954600586015460785460408051633629edcd60e11b815290516001600160a01b039485169650638969ab5395508a949384169390921691636c53db9a916004808201926020929091908290030181865afa158015610a94573d5f803e3d5ffd5b505050506040513d601f19601f82011682018060405250810190610ab89190611565565b606f545f908152607f60205260409020600290810154610ad891906115a5565b6040518563ffffffff1660e01b8152600401610af79493929190611580565b5f604051808303815f87803b158015610b0e575f80fd5b505af1158015610b20573d5f803e3d5ffd5b50506079546005860154600e870154606f545f908152607f602052604090206002908101546001600160a01b039485169650638969ab5395508a949384169390921691610b6d91906115a5565b6040518563ffffffff1660e01b8152600401610b8c9493929190611580565b5f604051808303815f87803b158015610ba3575f80fd5b505af1158015610bb5573d5f803e3d5ffd5b505050505b606d80546001600160401b0316905f610bd2836115c4565b91906101000a8154816001600160401b0302191690836001600160401b03160217905550504283600f018190555085825f01516001600160a01b03167f394027a5fa6e098a1191094d1719d6929b9abc535fcc0c8f448d6a4e7562227687604051610c3f91815260200190565b60405180910390a3505050505050565b607d602052815f5260405f208181548110610c68575f80fd5b905f5260205f20015f91509150505481565b5f610c843361112b565b5f868152607b6020908152604080832060108101548452607f835292819020815160c08101835281546001600160a01b0390811682526001808401549091169482019490945260028201549281019290925260038101546060830152600481015460808301526005015460a082015290600883015460ff166006811115610d0d57610d0d611206565b14610d3857600882015460405163effc443f60e01b815261071e918a9160ff909116906004016114eb565b8060600151341015610d6c5760608101516040516302ed70b960e61b8152346004820152602481019190915260440161071e565b600f82015415801590610d8f575042611c2083600f0154610d8d9190611513565b115b15610dd4578742611c2084600f0154610da89190611513565b610db291906115e5565b6040516303327a0360e01b81526004810192909252602482015260440161071e565b5f816060015134610de591906115e5565b607954606084015160405163240ff7c560e11b8152600481018d90523360248201529293506001600160a01b039091169163481fef8a91906044015f604051808303818588803b158015610e37575f80fd5b505af1158015610e49573d5f803e3d5ffd5b5050845160405163c13517e160e01b81526001600160a01b03909116935063c13517e19250849150610e84906003908b908b90600401611620565b60206040518083038185885af1158015610ea0573d5f803e3d5ffd5b50505050506040513d601f19601f82011682018060405250810190610ec59190611642565b60088401805460ff19166005179055600c840181905542600d850155600e84018054336001600160a01b03199091161790555f818152607e602052604090208a905560765490945060029060ff1681811115610f2357610f23611206565b03610fac575f610f316111cb565b5f8b815260029190910160205260409020546001600160a01b031690508015610faa5760405163740ecfdb60e01b8152600160048201526001600160a01b0382169063740ecfdb906024015f604051808303815f87803b158015610f93575f80fd5b505af1158015610fa5573d5f803e3d5ffd5b505050505b505b606d80546001600160401b0316905f610fc483611659565b91906101000a8154816001600160401b0302191690836001600160401b03160217905550507f034f6a48076db1bcaaa311ccdc43d473aff44d3918a76fe0fae27c8b3665016d825f01518a86338c8c89600c016001015460405161102e9796959493929190611686565b60405180910390a150505095945050505050565b600260765460ff16600281111561105b5761105b611206565b14611064575050565b5f61106d6111cb565b5f84815260029190910160205260409020546001600160a01b031690508061109457505050565b81156110f35760405163740ecfdb60e01b81525f60048201526001600160a01b0382169063740ecfdb906024015f604051808303815f87803b1580156110d8575f80fd5b505af11580156110ea573d5f803e3d5ffd5b50505050505050565b806001600160a01b031663792b04706040518163ffffffff1660e01b81526004015f604051808303815f87803b1580156110d8575f80fd5b60835460405163288c314960e21b81526001600160a01b039091169063a230c5249061115b90849060040161133a565b602060405180830381865afa158015611176573d5f803e3d5ffd5b505050506040513d601f19601f8201168201806040525081019061119a91906116d4565b6111c857607854604051636332657560e11b815261071e9183916001600160a01b039091169060040161152c565b50565b7fd5d05b1f29dcb0c0e1698b0261850eb784d1243215a6aa22ea2b8128b2e9497c90565b5f602082840312156111ff575f80fd5b5035919050565b634e487b7160e01b5f52602160045260245ffd5b6007811061122a5761122a611206565b9052565b805182525f6020808301516040602086015280518060408701525f5b818110156112665782810184015187820160600152830161124a565b505f606082880101526060601f19601f830116870101935050505092915050565b8e8152602081018e9052604081018d9052606081018c90526001600160a01b038b811660808301528a811660a0830152891660c08201525f8860e08301526112d361010083018961121a565b6102006101208301526112ea61020083018861122e565b865161014084015260208701516101608401526040909601516001600160a01b0316610180830152506101a08101939093526101c08301919091526101e0909101529a9950505050505050505050565b6001600160a01b0391909116815260200190565b602081016004831061136257611362611206565b91905290565b5f8060408385031215611379575f80fd5b50508035926020909101359150565b602081016003831061136257611362611206565b6001600160a01b03811681146111c8575f80fd5b5f602082840312156113c0575f80fd5b81356113cb8161139c565b9392505050565b5f80604083850312156113e3575f80fd5b82356113ee8161139c565b946020939093013593505050565b5f8083601f84011261140c575f80fd5b5081356001600160401b03811115611422575f80fd5b602083019150836020828501011115611439575f80fd5b9250929050565b5f805f805f60608688031215611454575f80fd5b8535945060208601356001600160401b0380821115611471575f80fd5b61147d89838a016113fc565b90965094506040880135915080821115611495575f80fd5b506114a2888289016113fc565b969995985093965092949392505050565b600181811c908216806114c757607f821691505b6020821081036114e557634e487b7160e01b5f52602260045260245ffd5b50919050565b828152604081016113cb602083018461121a565b634e487b7160e01b5f52601160045260245ffd5b80820180821115611526576115266114ff565b92915050565b6001600160a01b0392831681529116602082015260400190565b9283526001600160a01b03919091166020830152604082015260600190565b5f60208284031215611575575f80fd5b81516113cb8161139c565b9384526001600160a01b03928316602085015291166040830152606082015260800190565b5f826115bf57634e487b7160e01b5f52601260045260245ffd5b500490565b5f6001600160401b038216806115dc576115dc6114ff565b5f190192915050565b81810381811115611526576115266114ff565b81835281816020850137505f828201602090810191909152601f909101601f19169091010190565b838152604060208201525f6116396040830184866115f8565b95945050505050565b5f60208284031215611652575f80fd5b5051919050565b5f6001600160401b038281166002600160401b0319810161167c5761167c6114ff565b6001019392505050565b6001600160a01b03888116825260208201889052604082018790528516606082015260c0608082018190525f906116c090830185876115f8565b90508260a083015298975050505050505050565b5f602082840312156116e4575f80fd5b815180151581146113cb575f80fdfea164736f6c6343000817000a","linkReferences":{}},"methodIdentifiers":{"DISPUTE_COOLDOWN_SEC()":"f5be3f7c","RULING_OPTIONS()":"626c47e8","arbitrableConfigs(uint256)":"41bb7605","cloneNonce()":"33960459","collateralVault()":"0bece79c","currentArbitrableConfigVersion()":"125fd1d9","cvParams()":"2506b870","disputeCount()":"a28889e1","disputeIdToProposalId(uint256)":"255ffb38","disputeProposal(uint256,string,bytes)":"b41596ec","pointConfig()":"a47ff7e5","pointSystem()":"2dbd6fdd","proposalCounter()":"0c0512e9","proposalType()":"351d9f96","proposals(uint256)":"013cf08b","registryCommunity()":"6003e414","rule(uint256,uint256)":"311a6c56","streamingRatePerSecond()":"94573cbb","superfluidGDA()":"1b36f56f","superfluidToken()":"05caa7f3","sybilScorer()":"b6c61f31","totalPointsActivated()":"aba9ffee","totalStaked()":"817b1cd2","totalVoterStakePct(address)":"5db64b99","voterStakedProposals(address,uint256)":"868c57b8","votingPowerRegistry()":"80fd91cd"},"storageLayout":{"storage":[{"astId":90065,"contract":"pkg/contracts/src/CVStrategy/facets/CVDisputeFacet.sol:CVDisputeFacet","label":"_initialized","offset":0,"slot":"0","type":"t_uint8"},{"astId":90067,"contract":"pkg/contracts/src/CVStrategy/facets/CVDisputeFacet.sol:CVDisputeFacet","label":"_initializing","offset":1,"slot":"0","type":"t_bool"},{"astId":90071,"contract":"pkg/contracts/src/CVStrategy/facets/CVDisputeFacet.sol:CVDisputeFacet","label":"__gap_init","offset":0,"slot":"1","type":"t_array(t_uint256)50_storage"},{"astId":90074,"contract":"pkg/contracts/src/CVStrategy/facets/CVDisputeFacet.sol:CVDisputeFacet","label":"_owner","offset":0,"slot":"51","type":"t_address"},{"astId":90078,"contract":"pkg/contracts/src/CVStrategy/facets/CVDisputeFacet.sol:CVDisputeFacet","label":"__gap_ownable","offset":0,"slot":"52","type":"t_array(t_uint256)49_storage"},{"astId":90082,"contract":"pkg/contracts/src/CVStrategy/facets/CVDisputeFacet.sol:CVDisputeFacet","label":"allo","offset":0,"slot":"101","type":"t_contract(IAllo)2631"},{"astId":90084,"contract":"pkg/contracts/src/CVStrategy/facets/CVDisputeFacet.sol:CVDisputeFacet","label":"strategyId","offset":0,"slot":"102","type":"t_bytes32"},{"astId":90086,"contract":"pkg/contracts/src/CVStrategy/facets/CVDisputeFacet.sol:CVDisputeFacet","label":"poolActive","offset":0,"slot":"103","type":"t_bool"},{"astId":90088,"contract":"pkg/contracts/src/CVStrategy/facets/CVDisputeFacet.sol:CVDisputeFacet","label":"poolId","offset":0,"slot":"104","type":"t_uint256"},{"astId":90090,"contract":"pkg/contracts/src/CVStrategy/facets/CVDisputeFacet.sol:CVDisputeFacet","label":"poolAmount","offset":0,"slot":"105","type":"t_uint256"},{"astId":90093,"contract":"pkg/contracts/src/CVStrategy/facets/CVDisputeFacet.sol:CVDisputeFacet","label":"collateralVaultTemplate","offset":0,"slot":"106","type":"t_address"},{"astId":90096,"contract":"pkg/contracts/src/CVStrategy/facets/CVDisputeFacet.sol:CVDisputeFacet","label":"surpressStateMutabilityWarning","offset":0,"slot":"107","type":"t_uint256"},{"astId":90099,"contract":"pkg/contracts/src/CVStrategy/facets/CVDisputeFacet.sol:CVDisputeFacet","label":"cloneNonce","offset":0,"slot":"108","type":"t_uint256"},{"astId":90102,"contract":"pkg/contracts/src/CVStrategy/facets/CVDisputeFacet.sol:CVDisputeFacet","label":"disputeCount","offset":0,"slot":"109","type":"t_uint64"},{"astId":90105,"contract":"pkg/contracts/src/CVStrategy/facets/CVDisputeFacet.sol:CVDisputeFacet","label":"proposalCounter","offset":0,"slot":"110","type":"t_uint256"},{"astId":90108,"contract":"pkg/contracts/src/CVStrategy/facets/CVDisputeFacet.sol:CVDisputeFacet","label":"currentArbitrableConfigVersion","offset":0,"slot":"111","type":"t_uint256"},{"astId":90111,"contract":"pkg/contracts/src/CVStrategy/facets/CVDisputeFacet.sol:CVDisputeFacet","label":"totalStaked","offset":0,"slot":"112","type":"t_uint256"},{"astId":90114,"contract":"pkg/contracts/src/CVStrategy/facets/CVDisputeFacet.sol:CVDisputeFacet","label":"totalPointsActivated","offset":0,"slot":"113","type":"t_uint256"},{"astId":90118,"contract":"pkg/contracts/src/CVStrategy/facets/CVDisputeFacet.sol:CVDisputeFacet","label":"cvParams","offset":0,"slot":"114","type":"t_struct(CVParams)91430_storage"},{"astId":90122,"contract":"pkg/contracts/src/CVStrategy/facets/CVDisputeFacet.sol:CVDisputeFacet","label":"proposalType","offset":0,"slot":"118","type":"t_enum(ProposalType)91331"},{"astId":90126,"contract":"pkg/contracts/src/CVStrategy/facets/CVDisputeFacet.sol:CVDisputeFacet","label":"pointSystem","offset":1,"slot":"118","type":"t_enum(PointSystem)91336"},{"astId":90130,"contract":"pkg/contracts/src/CVStrategy/facets/CVDisputeFacet.sol:CVDisputeFacet","label":"pointConfig","offset":0,"slot":"119","type":"t_struct(PointSystemConfig)91407_storage"},{"astId":90134,"contract":"pkg/contracts/src/CVStrategy/facets/CVDisputeFacet.sol:CVDisputeFacet","label":"registryCommunity","offset":0,"slot":"120","type":"t_contract(RegistryCommunity)100050"},{"astId":90138,"contract":"pkg/contracts/src/CVStrategy/facets/CVDisputeFacet.sol:CVDisputeFacet","label":"collateralVault","offset":0,"slot":"121","type":"t_contract(ICollateralVault)105684"},{"astId":90142,"contract":"pkg/contracts/src/CVStrategy/facets/CVDisputeFacet.sol:CVDisputeFacet","label":"sybilScorer","offset":0,"slot":"122","type":"t_contract(ISybilScorer)97116"},{"astId":90148,"contract":"pkg/contracts/src/CVStrategy/facets/CVDisputeFacet.sol:CVDisputeFacet","label":"proposals","offset":0,"slot":"123","type":"t_mapping(t_uint256,t_struct(Proposal)91399_storage)"},{"astId":90153,"contract":"pkg/contracts/src/CVStrategy/facets/CVDisputeFacet.sol:CVDisputeFacet","label":"totalVoterStakePct","offset":0,"slot":"124","type":"t_mapping(t_address,t_uint256)"},{"astId":90159,"contract":"pkg/contracts/src/CVStrategy/facets/CVDisputeFacet.sol:CVDisputeFacet","label":"voterStakedProposals","offset":0,"slot":"125","type":"t_mapping(t_address,t_array(t_uint256)dyn_storage)"},{"astId":90164,"contract":"pkg/contracts/src/CVStrategy/facets/CVDisputeFacet.sol:CVDisputeFacet","label":"disputeIdToProposalId","offset":0,"slot":"126","type":"t_mapping(t_uint256,t_uint256)"},{"astId":90170,"contract":"pkg/contracts/src/CVStrategy/facets/CVDisputeFacet.sol:CVDisputeFacet","label":"arbitrableConfigs","offset":0,"slot":"127","type":"t_mapping(t_uint256,t_struct(ArbitrableConfig)91421_storage)"},{"astId":90174,"contract":"pkg/contracts/src/CVStrategy/facets/CVDisputeFacet.sol:CVDisputeFacet","label":"superfluidToken","offset":0,"slot":"128","type":"t_contract(ISuperToken)79327"},{"astId":90178,"contract":"pkg/contracts/src/CVStrategy/facets/CVDisputeFacet.sol:CVDisputeFacet","label":"superfluidGDA","offset":0,"slot":"129","type":"t_contract(ISuperfluidPool)78155"},{"astId":90181,"contract":"pkg/contracts/src/CVStrategy/facets/CVDisputeFacet.sol:CVDisputeFacet","label":"streamingRatePerSecond","offset":0,"slot":"130","type":"t_uint256"},{"astId":90185,"contract":"pkg/contracts/src/CVStrategy/facets/CVDisputeFacet.sol:CVDisputeFacet","label":"votingPowerRegistry","offset":0,"slot":"131","type":"t_contract(IVotingPowerRegistry)106401"},{"astId":90190,"contract":"pkg/contracts/src/CVStrategy/facets/CVDisputeFacet.sol:CVDisputeFacet","label":"__gap","offset":0,"slot":"132","type":"t_array(t_uint256)46_storage"}],"types":{"t_address":{"encoding":"inplace","label":"address","numberOfBytes":"20"},"t_array(t_uint256)46_storage":{"encoding":"inplace","label":"uint256[46]","numberOfBytes":"1472","base":"t_uint256"},"t_array(t_uint256)49_storage":{"encoding":"inplace","label":"uint256[49]","numberOfBytes":"1568","base":"t_uint256"},"t_array(t_uint256)50_storage":{"encoding":"inplace","label":"uint256[50]","numberOfBytes":"1600","base":"t_uint256"},"t_array(t_uint256)dyn_storage":{"encoding":"dynamic_array","label":"uint256[]","numberOfBytes":"32","base":"t_uint256"},"t_bool":{"encoding":"inplace","label":"bool","numberOfBytes":"1"},"t_bytes32":{"encoding":"inplace","label":"bytes32","numberOfBytes":"32"},"t_contract(IAllo)2631":{"encoding":"inplace","label":"contract IAllo","numberOfBytes":"20"},"t_contract(IArbitrator)105651":{"encoding":"inplace","label":"contract IArbitrator","numberOfBytes":"20"},"t_contract(ICollateralVault)105684":{"encoding":"inplace","label":"contract ICollateralVault","numberOfBytes":"20"},"t_contract(ISuperToken)79327":{"encoding":"inplace","label":"contract ISuperToken","numberOfBytes":"20"},"t_contract(ISuperfluidPool)78155":{"encoding":"inplace","label":"contract ISuperfluidPool","numberOfBytes":"20"},"t_contract(ISybilScorer)97116":{"encoding":"inplace","label":"contract ISybilScorer","numberOfBytes":"20"},"t_contract(IVotingPowerRegistry)106401":{"encoding":"inplace","label":"contract IVotingPowerRegistry","numberOfBytes":"20"},"t_contract(RegistryCommunity)100050":{"encoding":"inplace","label":"contract RegistryCommunity","numberOfBytes":"20"},"t_enum(PointSystem)91336":{"encoding":"inplace","label":"enum PointSystem","numberOfBytes":"1"},"t_enum(ProposalStatus)91356":{"encoding":"inplace","label":"enum ProposalStatus","numberOfBytes":"1"},"t_enum(ProposalType)91331":{"encoding":"inplace","label":"enum ProposalType","numberOfBytes":"1"},"t_mapping(t_address,t_array(t_uint256)dyn_storage)":{"encoding":"mapping","key":"t_address","label":"mapping(address => uint256[])","numberOfBytes":"32","value":"t_array(t_uint256)dyn_storage"},"t_mapping(t_address,t_uint256)":{"encoding":"mapping","key":"t_address","label":"mapping(address => uint256)","numberOfBytes":"32","value":"t_uint256"},"t_mapping(t_uint256,t_struct(ArbitrableConfig)91421_storage)":{"encoding":"mapping","key":"t_uint256","label":"mapping(uint256 => struct ArbitrableConfig)","numberOfBytes":"32","value":"t_struct(ArbitrableConfig)91421_storage"},"t_mapping(t_uint256,t_struct(Proposal)91399_storage)":{"encoding":"mapping","key":"t_uint256","label":"mapping(uint256 => struct Proposal)","numberOfBytes":"32","value":"t_struct(Proposal)91399_storage"},"t_mapping(t_uint256,t_uint256)":{"encoding":"mapping","key":"t_uint256","label":"mapping(uint256 => uint256)","numberOfBytes":"32","value":"t_uint256"},"t_string_storage":{"encoding":"bytes","label":"string","numberOfBytes":"32"},"t_struct(ArbitrableConfig)91421_storage":{"encoding":"inplace","label":"struct ArbitrableConfig","numberOfBytes":"192","members":[{"astId":91410,"contract":"pkg/contracts/src/CVStrategy/facets/CVDisputeFacet.sol:CVDisputeFacet","label":"arbitrator","offset":0,"slot":"0","type":"t_contract(IArbitrator)105651"},{"astId":91412,"contract":"pkg/contracts/src/CVStrategy/facets/CVDisputeFacet.sol:CVDisputeFacet","label":"tribunalSafe","offset":0,"slot":"1","type":"t_address"},{"astId":91414,"contract":"pkg/contracts/src/CVStrategy/facets/CVDisputeFacet.sol:CVDisputeFacet","label":"submitterCollateralAmount","offset":0,"slot":"2","type":"t_uint256"},{"astId":91416,"contract":"pkg/contracts/src/CVStrategy/facets/CVDisputeFacet.sol:CVDisputeFacet","label":"challengerCollateralAmount","offset":0,"slot":"3","type":"t_uint256"},{"astId":91418,"contract":"pkg/contracts/src/CVStrategy/facets/CVDisputeFacet.sol:CVDisputeFacet","label":"defaultRuling","offset":0,"slot":"4","type":"t_uint256"},{"astId":91420,"contract":"pkg/contracts/src/CVStrategy/facets/CVDisputeFacet.sol:CVDisputeFacet","label":"defaultRulingTimeout","offset":0,"slot":"5","type":"t_uint256"}]},"t_struct(CVParams)91430_storage":{"encoding":"inplace","label":"struct CVParams","numberOfBytes":"128","members":[{"astId":91423,"contract":"pkg/contracts/src/CVStrategy/facets/CVDisputeFacet.sol:CVDisputeFacet","label":"maxRatio","offset":0,"slot":"0","type":"t_uint256"},{"astId":91425,"contract":"pkg/contracts/src/CVStrategy/facets/CVDisputeFacet.sol:CVDisputeFacet","label":"weight","offset":0,"slot":"1","type":"t_uint256"},{"astId":91427,"contract":"pkg/contracts/src/CVStrategy/facets/CVDisputeFacet.sol:CVDisputeFacet","label":"decay","offset":0,"slot":"2","type":"t_uint256"},{"astId":91429,"contract":"pkg/contracts/src/CVStrategy/facets/CVDisputeFacet.sol:CVDisputeFacet","label":"minThresholdPoints","offset":0,"slot":"3","type":"t_uint256"}]},"t_struct(Metadata)3086_storage":{"encoding":"inplace","label":"struct Metadata","numberOfBytes":"64","members":[{"astId":3082,"contract":"pkg/contracts/src/CVStrategy/facets/CVDisputeFacet.sol:CVDisputeFacet","label":"protocol","offset":0,"slot":"0","type":"t_uint256"},{"astId":3085,"contract":"pkg/contracts/src/CVStrategy/facets/CVDisputeFacet.sol:CVDisputeFacet","label":"pointer","offset":0,"slot":"1","type":"t_string_storage"}]},"t_struct(PointSystemConfig)91407_storage":{"encoding":"inplace","label":"struct PointSystemConfig","numberOfBytes":"32","members":[{"astId":91406,"contract":"pkg/contracts/src/CVStrategy/facets/CVDisputeFacet.sol:CVDisputeFacet","label":"maxAmount","offset":0,"slot":"0","type":"t_uint256"}]},"t_struct(Proposal)91399_storage":{"encoding":"inplace","label":"struct Proposal","numberOfBytes":"576","members":[{"astId":91365,"contract":"pkg/contracts/src/CVStrategy/facets/CVDisputeFacet.sol:CVDisputeFacet","label":"proposalId","offset":0,"slot":"0","type":"t_uint256"},{"astId":91367,"contract":"pkg/contracts/src/CVStrategy/facets/CVDisputeFacet.sol:CVDisputeFacet","label":"requestedAmount","offset":0,"slot":"1","type":"t_uint256"},{"astId":91369,"contract":"pkg/contracts/src/CVStrategy/facets/CVDisputeFacet.sol:CVDisputeFacet","label":"stakedAmount","offset":0,"slot":"2","type":"t_uint256"},{"astId":91371,"contract":"pkg/contracts/src/CVStrategy/facets/CVDisputeFacet.sol:CVDisputeFacet","label":"convictionLast","offset":0,"slot":"3","type":"t_uint256"},{"astId":91373,"contract":"pkg/contracts/src/CVStrategy/facets/CVDisputeFacet.sol:CVDisputeFacet","label":"beneficiary","offset":0,"slot":"4","type":"t_address"},{"astId":91375,"contract":"pkg/contracts/src/CVStrategy/facets/CVDisputeFacet.sol:CVDisputeFacet","label":"submitter","offset":0,"slot":"5","type":"t_address"},{"astId":91377,"contract":"pkg/contracts/src/CVStrategy/facets/CVDisputeFacet.sol:CVDisputeFacet","label":"requestedToken","offset":0,"slot":"6","type":"t_address"},{"astId":91379,"contract":"pkg/contracts/src/CVStrategy/facets/CVDisputeFacet.sol:CVDisputeFacet","label":"blockLast","offset":0,"slot":"7","type":"t_uint256"},{"astId":91382,"contract":"pkg/contracts/src/CVStrategy/facets/CVDisputeFacet.sol:CVDisputeFacet","label":"proposalStatus","offset":0,"slot":"8","type":"t_enum(ProposalStatus)91356"},{"astId":91386,"contract":"pkg/contracts/src/CVStrategy/facets/CVDisputeFacet.sol:CVDisputeFacet","label":"voterStakedPoints","offset":0,"slot":"9","type":"t_mapping(t_address,t_uint256)"},{"astId":91389,"contract":"pkg/contracts/src/CVStrategy/facets/CVDisputeFacet.sol:CVDisputeFacet","label":"metadata","offset":0,"slot":"10","type":"t_struct(Metadata)3086_storage"},{"astId":91392,"contract":"pkg/contracts/src/CVStrategy/facets/CVDisputeFacet.sol:CVDisputeFacet","label":"disputeInfo","offset":0,"slot":"12","type":"t_struct(ProposalDisputeInfo)91363_storage"},{"astId":91394,"contract":"pkg/contracts/src/CVStrategy/facets/CVDisputeFacet.sol:CVDisputeFacet","label":"lastDisputeCompletion","offset":0,"slot":"15","type":"t_uint256"},{"astId":91396,"contract":"pkg/contracts/src/CVStrategy/facets/CVDisputeFacet.sol:CVDisputeFacet","label":"arbitrableConfigVersion","offset":0,"slot":"16","type":"t_uint256"},{"astId":91398,"contract":"pkg/contracts/src/CVStrategy/facets/CVDisputeFacet.sol:CVDisputeFacet","label":"creationTimestamp","offset":0,"slot":"17","type":"t_uint256"}]},"t_struct(ProposalDisputeInfo)91363_storage":{"encoding":"inplace","label":"struct ProposalDisputeInfo","numberOfBytes":"96","members":[{"astId":91358,"contract":"pkg/contracts/src/CVStrategy/facets/CVDisputeFacet.sol:CVDisputeFacet","label":"disputeId","offset":0,"slot":"0","type":"t_uint256"},{"astId":91360,"contract":"pkg/contracts/src/CVStrategy/facets/CVDisputeFacet.sol:CVDisputeFacet","label":"disputeTimestamp","offset":0,"slot":"1","type":"t_uint256"},{"astId":91362,"contract":"pkg/contracts/src/CVStrategy/facets/CVDisputeFacet.sol:CVDisputeFacet","label":"challenger","offset":0,"slot":"2","type":"t_address"}]},"t_uint256":{"encoding":"inplace","label":"uint256","numberOfBytes":"32"},"t_uint64":{"encoding":"inplace","label":"uint64","numberOfBytes":"8"},"t_uint8":{"encoding":"inplace","label":"uint8","numberOfBytes":"1"}}},"id":151}