{"abi":[{"type":"function","name":"VERSION","inputs":[],"outputs":[{"name":"","type":"string","internalType":"string"}],"stateMutability":"view"},{"type":"function","name":"clearCommunityFacetCuts","inputs":[],"outputs":[],"stateMutability":"nonpayable"},{"type":"function","name":"clearStrategyFacetCuts","inputs":[],"outputs":[],"stateMutability":"nonpayable"},{"type":"function","name":"collateralVaultTemplate","inputs":[],"outputs":[{"name":"","type":"address","internalType":"address"}],"stateMutability":"view"},{"type":"function","name":"createRegistry","inputs":[{"name":"params","type":"tuple","internalType":"struct RegistryCommunityInitializeParams","components":[{"name":"_allo","type":"address","internalType":"address"},{"name":"_gardenToken","type":"address","internalType":"contract IERC20"},{"name":"_registerStakeAmount","type":"uint256","internalType":"uint256"},{"name":"_communityFee","type":"uint256","internalType":"uint256"},{"name":"_nonce","type":"uint256","internalType":"uint256"},{"name":"_registryFactory","type":"address","internalType":"address"},{"name":"_feeReceiver","type":"address","internalType":"address"},{"name":"_metadata","type":"tuple","internalType":"struct Metadata","components":[{"name":"protocol","type":"uint256","internalType":"uint256"},{"name":"pointer","type":"string","internalType":"string"}]},{"name":"_councilSafe","type":"address","internalType":"address payable"},{"name":"_communityName","type":"string","internalType":"string"},{"name":"_isKickEnabled","type":"bool","internalType":"bool"},{"name":"covenantIpfsHash","type":"string","internalType":"string"}]}],"outputs":[{"name":"_createdRegistryAddress","type":"address","internalType":"address"}],"stateMutability":"nonpayable"},{"type":"function","name":"gardensFeeReceiver","inputs":[],"outputs":[{"name":"","type":"address","internalType":"address"}],"stateMutability":"view"},{"type":"function","name":"getCommunityFacets","inputs":[],"outputs":[{"name":"facetCuts","type":"tuple[]","internalType":"struct IDiamond.FacetCut[]","components":[{"name":"facetAddress","type":"address","internalType":"address"},{"name":"action","type":"uint8","internalType":"enum IDiamond.FacetCutAction"},{"name":"functionSelectors","type":"bytes4[]","internalType":"bytes4[]"}]},{"name":"init","type":"address","internalType":"address"},{"name":"initCalldata","type":"bytes","internalType":"bytes"}],"stateMutability":"view"},{"type":"function","name":"getCommunityValidity","inputs":[{"name":"_community","type":"address","internalType":"address"}],"outputs":[{"name":"","type":"bool","internalType":"bool"}],"stateMutability":"view"},{"type":"function","name":"getGardensFeeReceiver","inputs":[],"outputs":[{"name":"","type":"address","internalType":"address"}],"stateMutability":"view"},{"type":"function","name":"getProtocolFee","inputs":[{"name":"_community","type":"address","internalType":"address"}],"outputs":[{"name":"","type":"uint256","internalType":"uint256"}],"stateMutability":"view"},{"type":"function","name":"getStrategyFacets","inputs":[],"outputs":[{"name":"facetCuts","type":"tuple[]","internalType":"struct IDiamond.FacetCut[]","components":[{"name":"facetAddress","type":"address","internalType":"address"},{"name":"action","type":"uint8","internalType":"enum IDiamond.FacetCutAction"},{"name":"functionSelectors","type":"bytes4[]","internalType":"bytes4[]"}]},{"name":"init","type":"address","internalType":"address"},{"name":"initCalldata","type":"bytes","internalType":"bytes"}],"stateMutability":"view"},{"type":"function","name":"getStreamingEscrowFactory","inputs":[],"outputs":[{"name":"","type":"address","internalType":"address"}],"stateMutability":"view"},{"type":"function","name":"globalPauseController","inputs":[],"outputs":[{"name":"","type":"address","internalType":"address"}],"stateMutability":"view"},{"type":"function","name":"initialize","inputs":[{"name":"_owner","type":"address","internalType":"address"},{"name":"_gardensFeeReceiver","type":"address","internalType":"address"},{"name":"_registryCommunityTemplate","type":"address","internalType":"address"},{"name":"_strategyTemplate","type":"address","internalType":"address"},{"name":"_collateralVaultTemplate","type":"address","internalType":"address"}],"outputs":[],"stateMutability":"nonpayable"},{"type":"function","name":"initialize","inputs":[{"name":"initialOwner","type":"address","internalType":"address"}],"outputs":[],"stateMutability":"nonpayable"},{"type":"function","name":"isContractRegistered","inputs":[{"name":"target","type":"address","internalType":"address"}],"outputs":[{"name":"","type":"bool","internalType":"bool"}],"stateMutability":"view"},{"type":"function","name":"keepersAddresses","inputs":[{"name":"","type":"address","internalType":"address"}],"outputs":[{"name":"","type":"bool","internalType":"bool"}],"stateMutability":"view"},{"type":"function","name":"nonce","inputs":[],"outputs":[{"name":"","type":"uint256","internalType":"uint256"}],"stateMutability":"view"},{"type":"function","name":"owner","inputs":[],"outputs":[{"name":"","type":"address","internalType":"address"}],"stateMutability":"view"},{"type":"function","name":"protopiansAddresses","inputs":[{"name":"","type":"address","internalType":"address"}],"outputs":[{"name":"","type":"bool","internalType":"bool"}],"stateMutability":"view"},{"type":"function","name":"proxiableUUID","inputs":[],"outputs":[{"name":"","type":"bytes32","internalType":"bytes32"}],"stateMutability":"view"},{"type":"function","name":"proxyOwner","inputs":[],"outputs":[{"name":"","type":"address","internalType":"address"}],"stateMutability":"view"},{"type":"function","name":"registerContract","inputs":[{"name":"target","type":"address","internalType":"address"}],"outputs":[],"stateMutability":"nonpayable"},{"type":"function","name":"registeredContracts","inputs":[{"name":"","type":"address","internalType":"address"}],"outputs":[{"name":"","type":"bool","internalType":"bool"}],"stateMutability":"view"},{"type":"function","name":"registryCommunityTemplate","inputs":[],"outputs":[{"name":"","type":"address","internalType":"address"}],"stateMutability":"view"},{"type":"function","name":"renounceOwnership","inputs":[],"outputs":[],"stateMutability":"nonpayable"},{"type":"function","name":"setCollateralVaultTemplate","inputs":[{"name":"template","type":"address","internalType":"address"}],"outputs":[],"stateMutability":"nonpayable"},{"type":"function","name":"setCommunityFacetInit","inputs":[{"name":"init","type":"address","internalType":"address"},{"name":"initCalldata","type":"bytes","internalType":"bytes"}],"outputs":[],"stateMutability":"nonpayable"},{"type":"function","name":"setCommunityFacets","inputs":[{"name":"communityFacetCuts_","type":"tuple[]","internalType":"struct IDiamond.FacetCut[]","components":[{"name":"facetAddress","type":"address","internalType":"address"},{"name":"action","type":"uint8","internalType":"enum IDiamond.FacetCutAction"},{"name":"functionSelectors","type":"bytes4[]","internalType":"bytes4[]"}]},{"name":"communityInit_","type":"address","internalType":"address"},{"name":"communityInitCalldata_","type":"bytes","internalType":"bytes"}],"outputs":[],"stateMutability":"nonpayable"},{"type":"function","name":"setCommunityValidity","inputs":[{"name":"_community","type":"address","internalType":"address"},{"name":"_isValid","type":"bool","internalType":"bool"}],"outputs":[],"stateMutability":"nonpayable"},{"type":"function","name":"setGlobalPauseController","inputs":[{"name":"controller","type":"address","internalType":"address"}],"outputs":[],"stateMutability":"nonpayable"},{"type":"function","name":"setKeeperAddress","inputs":[{"name":"_keepers","type":"address[]","internalType":"address[]"},{"name":"_isKeeper","type":"bool","internalType":"bool"}],"outputs":[],"stateMutability":"nonpayable"},{"type":"function","name":"setProtocolFee","inputs":[{"name":"_community","type":"address","internalType":"address"},{"name":"_newProtocolFee","type":"uint256","internalType":"uint256"}],"outputs":[],"stateMutability":"nonpayable"},{"type":"function","name":"setProtopianAddress","inputs":[{"name":"_protopians","type":"address[]","internalType":"address[]"},{"name":"_isProtopian","type":"bool","internalType":"bool"}],"outputs":[],"stateMutability":"nonpayable"},{"type":"function","name":"setReceiverAddress","inputs":[{"name":"_newFeeReceiver","type":"address","internalType":"address"}],"outputs":[],"stateMutability":"nonpayable"},{"type":"function","name":"setRegistryCommunityTemplate","inputs":[{"name":"template","type":"address","internalType":"address"}],"outputs":[],"stateMutability":"nonpayable"},{"type":"function","name":"setStrategyFacetInit","inputs":[{"name":"init","type":"address","internalType":"address"},{"name":"initCalldata","type":"bytes","internalType":"bytes"}],"outputs":[],"stateMutability":"nonpayable"},{"type":"function","name":"setStrategyFacets","inputs":[{"name":"strategyFacetCuts_","type":"tuple[]","internalType":"struct IDiamond.FacetCut[]","components":[{"name":"facetAddress","type":"address","internalType":"address"},{"name":"action","type":"uint8","internalType":"enum IDiamond.FacetCutAction"},{"name":"functionSelectors","type":"bytes4[]","internalType":"bytes4[]"}]},{"name":"strategyInit_","type":"address","internalType":"address"},{"name":"strategyInitCalldata_","type":"bytes","internalType":"bytes"}],"outputs":[],"stateMutability":"nonpayable"},{"type":"function","name":"setStrategyTemplate","inputs":[{"name":"template","type":"address","internalType":"address"}],"outputs":[],"stateMutability":"nonpayable"},{"type":"function","name":"setStreamingEscrowFactory","inputs":[{"name":"factory","type":"address","internalType":"address"}],"outputs":[],"stateMutability":"nonpayable"},{"type":"function","name":"strategyTemplate","inputs":[],"outputs":[{"name":"","type":"address","internalType":"address"}],"stateMutability":"view"},{"type":"function","name":"streamingEscrowFactory","inputs":[],"outputs":[{"name":"","type":"address","internalType":"address"}],"stateMutability":"view"},{"type":"function","name":"transferOwnership","inputs":[{"name":"newOwner","type":"address","internalType":"address"}],"outputs":[],"stateMutability":"nonpayable"},{"type":"function","name":"unregisterContract","inputs":[{"name":"target","type":"address","internalType":"address"}],"outputs":[],"stateMutability":"nonpayable"},{"type":"function","name":"upgradeTo","inputs":[{"name":"newImplementation","type":"address","internalType":"address"}],"outputs":[],"stateMutability":"nonpayable"},{"type":"function","name":"upgradeToAndCall","inputs":[{"name":"newImplementation","type":"address","internalType":"address"},{"name":"data","type":"bytes","internalType":"bytes"}],"outputs":[],"stateMutability":"payable"},{"type":"function","name":"upsertCommunityFacetCut","inputs":[{"name":"index","type":"uint256","internalType":"uint256"},{"name":"facetAddress","type":"address","internalType":"address"},{"name":"action","type":"uint8","internalType":"enum IDiamond.FacetCutAction"},{"name":"selectors","type":"bytes4[]","internalType":"bytes4[]"}],"outputs":[],"stateMutability":"nonpayable"},{"type":"function","name":"upsertStrategyFacetCut","inputs":[{"name":"index","type":"uint256","internalType":"uint256"},{"name":"facetAddress","type":"address","internalType":"address"},{"name":"action","type":"uint8","internalType":"enum IDiamond.FacetCutAction"},{"name":"selectors","type":"bytes4[]","internalType":"bytes4[]"}],"outputs":[],"stateMutability":"nonpayable"},{"type":"event","name":"AdminChanged","inputs":[{"name":"previousAdmin","type":"address","indexed":false,"internalType":"address"},{"name":"newAdmin","type":"address","indexed":false,"internalType":"address"}],"anonymous":false},{"type":"event","name":"BeaconUpgraded","inputs":[{"name":"beacon","type":"address","indexed":true,"internalType":"address"}],"anonymous":false},{"type":"event","name":"CommunityCreated","inputs":[{"name":"_registryCommunity","type":"address","indexed":false,"internalType":"address"}],"anonymous":false},{"type":"event","name":"CommunityValiditySet","inputs":[{"name":"_community","type":"address","indexed":false,"internalType":"address"},{"name":"_isValid","type":"bool","indexed":false,"internalType":"bool"}],"anonymous":false},{"type":"event","name":"ContractRegistered","inputs":[{"name":"target","type":"address","indexed":true,"internalType":"address"}],"anonymous":false},{"type":"event","name":"ContractUnregistered","inputs":[{"name":"target","type":"address","indexed":true,"internalType":"address"}],"anonymous":false},{"type":"event","name":"FeeReceiverSet","inputs":[{"name":"_newFeeReceiver","type":"address","indexed":false,"internalType":"address"}],"anonymous":false},{"type":"event","name":"GlobalPauseControllerSet","inputs":[{"name":"_newController","type":"address","indexed":false,"internalType":"address"}],"anonymous":false},{"type":"event","name":"Initialized","inputs":[{"name":"version","type":"uint8","indexed":false,"internalType":"uint8"}],"anonymous":false},{"type":"event","name":"KeepersChanged","inputs":[{"name":"_new","type":"address[]","indexed":false,"internalType":"address[]"},{"name":"_removed","type":"address[]","indexed":false,"internalType":"address[]"}],"anonymous":false},{"type":"event","name":"OwnershipTransferred","inputs":[{"name":"previousOwner","type":"address","indexed":true,"internalType":"address"},{"name":"newOwner","type":"address","indexed":true,"internalType":"address"}],"anonymous":false},{"type":"event","name":"ProtocolFeeSet","inputs":[{"name":"_community","type":"address","indexed":false,"internalType":"address"},{"name":"_newProtocolFee","type":"uint256","indexed":false,"internalType":"uint256"}],"anonymous":false},{"type":"event","name":"ProtopiansChanged","inputs":[{"name":"_new","type":"address[]","indexed":false,"internalType":"address[]"},{"name":"_removed","type":"address[]","indexed":false,"internalType":"address[]"}],"anonymous":false},{"type":"event","name":"StreamingEscrowFactorySet","inputs":[{"name":"_newFactory","type":"address","indexed":false,"internalType":"address"}],"anonymous":false},{"type":"event","name":"Upgraded","inputs":[{"name":"implementation","type":"address","indexed":true,"internalType":"address"}],"anonymous":false},{"type":"error","name":"AddressCannotBeZero","inputs":[]},{"type":"error","name":"CallerNotOwner","inputs":[{"name":"_caller","type":"address","internalType":"address"},{"name":"_owner","type":"address","internalType":"address"}]},{"type":"error","name":"CommunityInvalid","inputs":[{"name":"_community","type":"address","internalType":"address"}]}],"bytecode":{"object":"0x60a06040523060805234801562000014575f80fd5b506200001f62000025565b620000e3565b5f54610100900460ff1615620000915760405162461bcd60e51b815260206004820152602760248201527f496e697469616c697a61626c653a20636f6e747261637420697320696e697469604482015266616c697a696e6760c81b606482015260840160405180910390fd5b5f5460ff90811614620000e1575f805460ff191660ff9081179091556040519081527f7f26b83ff96e1f2b6a682f133852f6798a09c465da95921460cefb38474024989060200160405180910390a15b565b6080516137ec620001185f395f8181610fb301528181610ff601528181611098015281816110db015261118c01526137ec5ff3fe60806040526004361062000253575f3560e01c8063020946d21462000257578063025313a2146200027d57806302c1d0b114620002ac578063083e8f9714620002cd5780630a992e0c14620003105780631425d1ec14620003435780631459457a14620003675780631b71f0e4146200038b5780631d12d3c714620003af5780631d413a8a14620003d05780631f3854b414620003f45780631f4b502e146200041c57806322a5dde4146200044e5780633659cfe6146200047257806348b4c9d114620004965780634f1ef28614620004ad57806352a0c20314620004c457806352d1902d14620004db5780635a2c8ace14620004f25780635c51832714620005165780635c94e4d2146200053a5780635decae02146200055b5780636667dfac146200057f578063715018a6146200059657806377122d5614620005ad5780637f7960f314620005ce5780638279c7db14620005ed5780638c68f2a914620006115780638d3ad8a414620006325780638da5cb5b146200065657806390147c6b146200066d578063987435be1462000691578063a06617cd14620006b0578063a3f17ca114620006e2578063a6a85d881462000706578063affed0e0146200072a578063b0d3713a1462000741578063b5b3ca2c1462000765578063b8bed9011462000789578063beb331a314620007aa578063c4d66de814620007ce578063cd5a834914620007f2578063f2fde38b1462000816578063f5016b5e146200083a578063f9f6b49b1462000878578063fac2c62114620008b3578063ff4a14ff14620008d7578063ffa1ad7414620008fb575b5f80fd5b34801562000263575f80fd5b506200027b6200027536600462002568565b6200093a565b005b34801562000289575f80fd5b50620002946200095a565b604051620002a39190620025e2565b60405180910390f35b348015620002b8575f80fd5b5060685462000294906001600160a01b031681565b348015620002d9575f80fd5b50620002ff620002eb366004620025f6565b606b6020525f908152604090205460ff1681565b6040519015158152602001620002a3565b3480156200031c575f80fd5b50620003346200032e366004620025f6565b62000973565b604051908152602001620002a3565b3480156200034f575f80fd5b506200027b6200036136600462002624565b62000b73565b34801562000373575f80fd5b506200027b62000385366004620026d7565b62000c8e565b34801562000397575f80fd5b506200027b620003a9366004620025f6565b62000df0565b348015620003bb575f80fd5b5060745462000294906001600160a01b031681565b348015620003dc575f80fd5b506200027b620003ee366004620025f6565b62000e1c565b34801562000400575f80fd5b506200040b62000e89565b604051620002a393929190620027b4565b34801562000428575f80fd5b50620002ff6200043a366004620025f6565b606c6020525f908152604090205460ff1681565b3480156200045a575f80fd5b506200027b6200046c366004620025f6565b62000f49565b3480156200047e575f80fd5b506200027b62000490366004620025f6565b62000fa9565b348015620004a2575f80fd5b506200027b6200107c565b6200027b620004be3660046200292d565b6200108e565b348015620004d0575f80fd5b506200040b6200114f565b348015620004e7575f80fd5b506200033462001180565b348015620004fe575f80fd5b506200027b620005103660046200297f565b6200122f565b34801562000522575f80fd5b506200027b620005343660046200292d565b62001298565b34801562000546575f80fd5b5060695462000294906001600160a01b031681565b34801562000567575f80fd5b506200027b62000579366004620025f6565b620012d0565b3480156200058b575f80fd5b506200027b620012fc565b348015620005a2575f80fd5b506200027b6200130c565b348015620005b9575f80fd5b50606a5462000294906001600160a01b031681565b348015620005da575f80fd5b506074546001600160a01b031662000294565b348015620005f9575f80fd5b506200027b6200060b366004620025f6565b62001321565b3480156200061d575f80fd5b5060755462000294906001600160a01b031681565b3480156200063e575f80fd5b506200027b6200065036600462002624565b62001371565b34801562000662575f80fd5b50620002946200140f565b34801562000679575f80fd5b506200027b6200068b366004620029b7565b620014af565b3480156200069d575f80fd5b506067546001600160a01b031662000294565b348015620006bc575f80fd5b50620002ff620006ce366004620025f6565b60736020525f908152604090205460ff1681565b348015620006ee575f80fd5b506200027b620007003660046200292d565b620014ef565b34801562000712575f80fd5b506200027b62000724366004620029b7565b62001522565b34801562000736575f80fd5b506200033460655481565b3480156200074d575f80fd5b506200027b6200075f366004620025f6565b62001562565b34801562000771575f80fd5b506200027b6200078336600462002b00565b6200158e565b34801562000795575f80fd5b5060675462000294906001600160a01b031681565b348015620007b6575f80fd5b5062000294620007c836600462002b9f565b620015e9565b348015620007da575f80fd5b506200027b620007ec366004620025f6565b62001693565b348015620007fe575f80fd5b506200027b62000810366004620025f6565b62001753565b34801562000822575f80fd5b506200027b62000834366004620025f6565b620017b5565b34801562000846575f80fd5b50620002ff62000858366004620025f6565b6001600160a01b03165f9081526066602052604090206001015460ff1690565b34801562000884575f80fd5b50620002ff62000896366004620025f6565b6001600160a01b03165f9081526073602052604090205460ff1690565b348015620008bf575f80fd5b506200027b620008d1366004620025f6565b62001831565b348015620008e3575f80fd5b506200027b620008f536600462002568565b6200188e565b34801562000907575f80fd5b506200092b604051806040016040528060038152602001620302e360ec1b81525081565b604051620002a3919062002cf3565b62000944620018a8565b62000954606d858585856200190b565b50505050565b5f6200096e6033546001600160a01b031690565b905090565b6001600160a01b0381165f9081526066602052604081206001015460ff16620009bc578160405163f5a6943d60e01b8152600401620009b39190620025e2565b60405180910390fd5b6001600160a01b0382165f908152606c602052604090205460ff1615620009e457505f919050565b5f826001600160a01b0316636c53db9a6040518163ffffffff1660e01b8152600401602060405180830381865afa15801562000a22573d5f803e3d5ffd5b505050506040513d601f19601f8201168201806040525081019062000a48919062002d07565b6001600160a01b0381165f908152606b602052604090205490915060ff16801562000a7657505f9392505050565b6001600160a01b0382163b1562000b56575f826001600160a01b031663a0e67e2b6040518163ffffffff1660e01b81526004015f60405180830381865afa15801562000ac4573d5f803e3d5ffd5b505050506040513d5f823e601f3d908101601f1916820160405262000aed919081019062002d25565b90505f5b815181101562000b5357606b5f83838151811062000b135762000b1362002dc4565b6020908102919091018101516001600160a01b031682528101919091526040015f205460ff161562000b4a57505f95945050505050565b60010162000af1565b50505b5050506001600160a01b03165f9081526066602052604090205490565b62000b7d620018a8565b5f5b825181101562000bdc5781606c5f85848151811062000ba25762000ba262002dc4565b6020908102919091018101516001600160a01b031682528101919091526040015f20805460ff191691151591909117905560010162000b7f565b50801562000c3d575f8051602062003719833981519152825f5b60405190808252806020026020018201604052801562000c20578160200160208202803683370190505b5060405162000c3192919062002e1d565b60405180910390a15050565b5f80516020620037198339815191525f5b60405190808252806020026020018201604052801562000c78578160200160208202803683370190505b508360405162000c3192919062002e1d565b5050565b5f54610100900460ff161580801562000cad57505f54600160ff909116105b8062000cd1575062000cbf3062001aab565b15801562000cd157505f5460ff166001145b62000cf05760405162461bcd60e51b8152600401620009b39062002e4e565b5f805460ff19166001179055801562000d12575f805461ff0019166101001790555b62000d1d8662001693565b5f60655562000d2c8562001aba565b62000d378462001aba565b62000d428262001aba565b606780546001600160a01b038088166001600160a01b0319928316179092556068805487841690831617905560698054868416908316179055606a8054928516929091169190911790556040515f80516020620037a08339815191529062000dac908790620025e2565b60405180910390a1801562000de8575f805461ff0019169055604051600181525f80516020620037598339815191529060200160405180910390a15b505050505050565b62000dfa620018a8565b606980546001600160a01b0319166001600160a01b0392909216919091179055565b62000e26620018a8565b62000e318162001aba565b607480546001600160a01b0319166001600160a01b0383161790556040517ff36089ae8fad57216928e8f6fa995a4278ca6299b06b50a5811dec5c66c680e39062000e7e908390620025e2565b60405180910390a150565b60605f606062000e9a606d62001ae2565b606e54606f80546001600160a01b0390921691819062000eba9062002e9c565b80601f016020809104026020016040519081016040528092919081815260200182805462000ee89062002e9c565b801562000f375780601f1062000f0d5761010080835404028352916020019162000f37565b820191905f5260205f20905b81548152906001019060200180831162000f1957829003601f168201915b50505050509050925092509250909192565b62000f53620018a8565b62000f5e8162001aba565b6001600160a01b0381165f81815260736020526040808220805460ff19166001179055517fc25d1d022102ce7b344c33d14de2893a248fabd34bb630dc982e2fbc20f295439190a250565b6001600160a01b037f000000000000000000000000000000000000000000000000000000000000000016300362000ff45760405162461bcd60e51b8152600401620009b39062002ed6565b7f00000000000000000000000000000000000000000000000000000000000000006001600160a01b03166200102862001d82565b6001600160a01b031614620010515760405162461bcd60e51b8152600401620009b39062002f10565b6200105c8162001d9e565b604080515f80825260208201909252620010799183919062001df0565b50565b62001086620018a8565b5f606d55565b565b6001600160a01b037f0000000000000000000000000000000000000000000000000000000000000000163003620010d95760405162461bcd60e51b8152600401620009b39062002ed6565b7f00000000000000000000000000000000000000000000000000000000000000006001600160a01b03166200110d62001d82565b6001600160a01b031614620011365760405162461bcd60e51b8152600401620009b39062002f10565b620011418262001d9e565b62000c8a8282600162001df0565b60605f606062001160607062001ae2565b607154607280546001600160a01b0390921691819062000eba9062002e9c565b5f306001600160a01b037f000000000000000000000000000000000000000000000000000000000000000016146200121c5760405162461bcd60e51b815260206004820152603860248201527f555550535570677261646561626c653a206d757374206e6f742062652063616c6044820152771b1959081d1a1c9bdd59da0819195b1959d85d1958d85b1b60421b6064820152608401620009b3565b505f805160206200373983398151915290565b62001239620018a8565b6001600160a01b0382165f81815260666020908152604091829020600101805460ff19168515159081179091558251938452908301527fecdcd3502799a6c41864ea2682236184e876f63e10f8d56c7768a3d501e89f62910162000c31565b620012a2620018a8565b607180546001600160a01b0319166001600160a01b0384161790556072620012cb828262002f99565b505050565b620012da620018a8565b606880546001600160a01b0319166001600160a01b0392909216919091179055565b62001306620018a8565b5f607055565b62001316620018a8565b6200108c5f62001f67565b6200132b620018a8565b620013368162001aba565b606780546001600160a01b0319166001600160a01b0383161790556040515f80516020620037a08339815191529062000e7e908390620025e2565b6200137b620018a8565b5f5b8251811015620013da5781606b5f858481518110620013a057620013a062002dc4565b6020908102919091018101516001600160a01b031682528101919091526040015f20805460ff19169115159190911790556001016200137d565b508015620013f9575f80516020620037c0833981519152825f62000bf6565b5f80516020620037c08339815191525f62000c4e565b5f6200141a6200095a565b6001600160a01b03163b5f0362001435576200096e6200095a565b6200143f6200095a565b6001600160a01b0316638da5cb5b6040518163ffffffff1660e01b8152600401602060405180830381865afa9250505080156200149b575060408051601f3d908101601f19168201909252620014989181019062002d07565b60015b620014aa576200096e6200095a565b919050565b620014b9620018a8565b620014c683606d62001fb8565b606e80546001600160a01b0319166001600160a01b038416179055606f62000954828262002f99565b620014f9620018a8565b606e80546001600160a01b0319166001600160a01b038416179055606f620012cb828262002f99565b6200152c620018a8565b6200153983607062001fb8565b607180546001600160a01b0319166001600160a01b038416179055607262000954828262002f99565b6200156c620018a8565b606a80546001600160a01b0319166001600160a01b0392909216919091179055565b62001598620018a8565b6001600160a01b0382165f81815260666020908152604091829020849055815192835282018390527fa1ee82e4f177a8017f33ddddac05b7ceab1de9d46f7195e15e8aa2e8b88f3b1c910162000c31565b606d545f90620016375760405162461bcd60e51b815260206004820152601860248201527710dbdb5b5d5b9a5d1e48199858d95d1cc81b9bdd081cd95d60421b6044820152606401620009b3565b607054620016825760405162461bcd60e51b815260206004820152601760248201527614dd1c985d1959de48199858d95d1cc81b9bdd081cd95d604a1b6044820152606401620009b3565b6200168d826200203e565b92915050565b5f54610100900460ff1615808015620016b257505f54600160ff909116105b80620016d65750620016c43062001aab565b158015620016d657505f5460ff166001145b620016f55760405162461bcd60e51b8152600401620009b39062002e4e565b5f805460ff19166001179055801562001717575f805461ff0019166101001790555b620017228262001f67565b801562000c8a575f805461ff0019169055604051600181525f80516020620037598339815191529060200162000c31565b6200175d620018a8565b620017688162001aba565b607580546001600160a01b0319166001600160a01b0383161790556040517f44d385e9acedc4b8af2ab3c01c965787144ffb322dd69598e19031baa923f6bf9062000e7e908390620025e2565b620017bf620018a8565b6001600160a01b038116620018265760405162461bcd60e51b815260206004820152602660248201527f4f776e61626c653a206e6577206f776e657220697320746865207a65726f206160448201526564647265737360d01b6064820152608401620009b3565b620010798162001f67565b6200183b620018a8565b620018468162001aba565b6001600160a01b0381165f81815260736020526040808220805460ff19169055517f3475b9891ecf29e996feed01eeb42a860ec225283a439d214ffaeac5e006be7d9190a250565b62001898620018a8565b620009546070858585856200190b565b33620018b36200140f565b6001600160a01b0316146200108c5760405162461bcd60e51b815260206004820181905260248201527f4f776e61626c653a2063616c6c6572206973206e6f7420746865206f776e65726044820152606401620009b3565b8454841115620019545760405162461bcd60e51b81526020600482015260136024820152720d2dcecc2d8d2c840ccc2c6cae840d2dcc8caf606b1b6044820152606401620009b3565b845484036200196957845460010185555f8590525b5f8585815481106200197f576200197f62002dc4565b5f918252602090912060029091020180546001600160a01b0386166001600160a01b0319821681178355919250849183916001600160a81b03191617600160a01b836003811115620019d557620019d56200274f565b02179055505b60018101541562001a2e5780600101805480620019fc57620019fc62003061565b5f8281526020902060085f1990920191820401805463ffffffff600460078516026101000a02191690559055620019db565b5f5b825181101562001aa2578160010183828151811062001a535762001a5362002dc4565b6020908102919091018101518254600180820185555f948552929093206008840401805463ffffffff60079095166004026101000a948502191660e09290921c93909302179091550162001a30565b50505050505050565b6001600160a01b03163b151590565b6001600160a01b03811662001079576040516303988b8160e61b815260040160405180910390fd5b80546060905f906001600160401b0381111562001b035762001b0362002421565b60405190808252806020026020018201604052801562001b5157816020015b60408051606080820183525f80835260208301529181019190915281526020019060019003908162001b225790505b5090505f5b835481101562001d7b5783818154811062001b755762001b7562002dc4565b5f91825260209091206002909102015482516001600160a01b039091169083908390811062001ba85762001ba862002dc4565b60209081029190910101516001600160a01b039091169052835484908290811062001bd75762001bd762002dc4565b905f5260205f2090600202015f0160149054906101000a900460ff1682828151811062001c085762001c0862002dc4565b602002602001015160200190600381111562001c285762001c286200274f565b9081600381111562001c3e5762001c3e6200274f565b815250505f84828154811062001c585762001c5862002dc4565b905f5260205f209060020201600101905080805490506001600160401b0381111562001c885762001c8862002421565b60405190808252806020026020018201604052801562001cb2578160200160208202803683370190505b5083838151811062001cc85762001cc862002dc4565b6020026020010151604001819052505f5b815481101562001d705781818154811062001cf85762001cf862002dc4565b905f5260205f2090600891828204019190066004029054906101000a900460e01b84848151811062001d2e5762001d2e62002dc4565b602002602001015160400151828151811062001d4e5762001d4e62002dc4565b6001600160e01b03199092166020928302919091019091015260010162001cd9565b505060010162001b56565b5092915050565b5f8051602062003739833981519152546001600160a01b031690565b3362001da96200140f565b6001600160a01b03161462001079573362001dc36200140f565b60405163163678e960e01b81526001600160a01b03928316600482015291166024820152604401620009b3565b7f4910fdfa16fed3260ed0e7147f7cc6da11a60208b5b9406d12a635614ffd91435460ff161562001e2657620012cb836200217c565b826001600160a01b03166352d1902d6040518163ffffffff1660e01b8152600401602060405180830381865afa92505050801562001e83575060408051601f3d908101601f1916820190925262001e809181019062003075565b60015b62001ee85760405162461bcd60e51b815260206004820152602e60248201527f45524331393637557067726164653a206e657720696d706c656d656e7461746960448201526d6f6e206973206e6f74205555505360901b6064820152608401620009b3565b5f8051602062003739833981519152811462001f595760405162461bcd60e51b815260206004820152602960248201527f45524331393637557067726164653a20756e737570706f727465642070726f786044820152681a58589b195555525160ba1b6064820152608401620009b3565b50620012cb8383836200221a565b603380546001600160a01b038381166001600160a01b0319831681179093556040519116919082907f8be0079c531659141344cd1fd0a4f28419497f9722a3daafe3b4186f6b6457e0905f90a35050565b5f81555f5b8251811015620012cb5762002035828285848151811062001fe25762001fe262002dc4565b60200260200101515f015186858151811062002002576200200262002dc4565b60200260200101516020015187868151811062002023576200202362002dc4565b6020026020010151604001516200190b565b60010162001fbd565b606580545f918262002050836200308d565b9091555060808301523060a0830152606854606954606a545f926001600160a01b0390811692633419635560e01b9287929182169116620020906200095a565b604051602401620020a59493929190620030d2565b60408051601f198184030181529181526020820180516001600160e01b03166001600160e01b0319909416939093179092529051620020e490620023e2565b620020f192919062003210565b604051809103905ff0801580156200210b573d5f803e3d5ffd5b506001600160a01b0381165f90815260666020526040908190206001908101805460ff1916909117905551909150819081907fb4108a188495a1a681cdc0750af164011025a1773b41e93ff3e628adc037dc29906200216c908390620025e2565b60405180910390a1949350505050565b620021878162001aab565b620021eb5760405162461bcd60e51b815260206004820152602d60248201527f455243313936373a206e657720696d706c656d656e746174696f6e206973206e60448201526c1bdd08184818dbdb9d1c9858dd609a1b6064820152608401620009b3565b5f805160206200373983398151915280546001600160a01b0319166001600160a01b0392909216919091179055565b620022258362002244565b5f82511180620022325750805b15620012cb5762000954838362002285565b6200224f816200217c565b6040516001600160a01b038216907fbc7cd75a20ee27fd9adebab32041f755214dbc6bffa90cc0225b39da2e5c2d3b905f90a250565b6060620022ad83836040518060600160405280602781526020016200377960279139620022b4565b9392505050565b60605f80856001600160a01b031685604051620022d2919062003235565b5f60405180830381855af49150503d805f81146200230c576040519150601f19603f3d011682016040523d82523d5f602084013e62002311565b606091505b509150915062002324868383876200232e565b9695505050505050565b60608315620023a15782515f0362002399576200234b8562001aab565b620023995760405162461bcd60e51b815260206004820152601d60248201527f416464726573733a2063616c6c20746f206e6f6e2d636f6e74726163740000006044820152606401620009b3565b5081620023ad565b620023ad8383620023b5565b949350505050565b815115620023c65781518083602001fd5b8060405162461bcd60e51b8152600401620009b3919062002cf3565b6104a6806200325383390190565b6001600160a01b038116811462001079575f80fd5b8035620014aa81620023f0565b803560048110620014aa575f80fd5b634e487b7160e01b5f52604160045260245ffd5b604051606081016001600160401b03811182821017156200245a576200245a62002421565b60405290565b60405161018081016001600160401b03811182821017156200245a576200245a62002421565b604051601f8201601f191681016001600160401b0381118282101715620024b157620024b162002421565b604052919050565b5f6001600160401b03821115620024d457620024d462002421565b5060051b60200190565b5f82601f830112620024ee575f80fd5b81356020620025076200250183620024b9565b62002486565b8083825260208201915060208460051b87010193508684111562002529575f80fd5b602086015b848110156200255d5780356001600160e01b0319811681146200254f575f80fd5b83529183019183016200252e565b509695505050505050565b5f805f80608085870312156200257c575f80fd5b8435935060208501356200259081620023f0565b9250620025a06040860162002412565b915060608501356001600160401b03811115620025bb575f80fd5b620025c987828801620024de565b91505092959194509250565b6001600160a01b03169052565b6001600160a01b0391909116815260200190565b5f6020828403121562002607575f80fd5b8135620022ad81620023f0565b80358015158114620014aa575f80fd5b5f806040838503121562002636575f80fd5b82356001600160401b038111156200264c575f80fd5b8301601f810185136200265d575f80fd5b80356020620026706200250183620024b9565b82815260059290921b830181019181810190888411156200268f575f80fd5b938201935b83851015620026ba578435620026aa81620023f0565b8252938201939082019062002694565b9550620026cb905086820162002614565b93505050509250929050565b5f805f805f60a08688031215620026ec575f80fd5b8535620026f981620023f0565b945060208601356200270b81620023f0565b935060408601356200271d81620023f0565b925060608601356200272f81620023f0565b915060808601356200274181620023f0565b809150509295509295909350565b634e487b7160e01b5f52602160045260245ffd5b5f5b838110156200277f57818101518382015260200162002765565b50505f910152565b5f8151808452620027a081602086016020860162002763565b601f01601f19169290920160200192915050565b5f6060808301606084528087518083526080925060808601915060808160051b8701016020808b015f5b848110156200288857898403607f19018652815180516001600160a01b03168552838101518986019060048082106200282457634e487b7160e01b5f526021815260245ffd5b50868601526040918201519186018a9052815190819052908401905f90898701905b80831015620028725783516001600160e01b031916825292860192600192909201919086019062002846565b50978501979550505090820190600101620027de565b5050620028988189018b620025d5565b508681036040880152620028ad818962002787565b9a9950505050505050505050565b5f82601f830112620028cb575f80fd5b81356001600160401b03811115620028e757620028e762002421565b620028fc601f8201601f191660200162002486565b81815284602083860101111562002911575f80fd5b816020850160208301375f918101602001919091529392505050565b5f80604083850312156200293f575f80fd5b82356200294c81620023f0565b915060208301356001600160401b0381111562002967575f80fd5b6200297585828601620028bb565b9150509250929050565b5f806040838503121562002991575f80fd5b82356200299e81620023f0565b9150620029ae6020840162002614565b90509250929050565b5f805f60608486031215620029ca575f80fd5b83356001600160401b0380821115620029e1575f80fd5b818601915086601f830112620029f5575f80fd5b8135602062002a086200250183620024b9565b82815260059290921b8401810191818101908a84111562002a27575f80fd5b8286015b8481101562002abd5780358681111562002a43575f80fd5b87016060818e03601f1901121562002a59575f80fd5b62002a6362002435565b8582013562002a7281620023f0565b815262002a826040830162002412565b8682015260608201358881111562002a98575f80fd5b62002aa88f8883860101620024de565b60408301525084525091830191830162002a2b565b50975062002acf905088820162002405565b95505050604086013591508082111562002ae7575f80fd5b5062002af686828701620028bb565b9150509250925092565b5f806040838503121562002b12575f80fd5b823562002b1f81620023f0565b946020939093013593505050565b5f6040828403121562002b3e575f80fd5b604080519081016001600160401b03808211838310171562002b645762002b6462002421565b8160405282935084358352602085013591508082111562002b83575f80fd5b5062002b9285828601620028bb565b6020830152505092915050565b5f6020828403121562002bb0575f80fd5b81356001600160401b038082111562002bc7575f80fd5b90830190610180828603121562002bdc575f80fd5b62002be662002460565b62002bf18362002405565b815262002c016020840162002405565b602082015260408301356040820152606083013560608201526080830135608082015262002c3260a0840162002405565b60a082015262002c4560c0840162002405565b60c082015260e08301358281111562002c5c575f80fd5b62002c6a8782860162002b2d565b60e08301525061010062002c8081850162002405565b90820152610120838101358381111562002c98575f80fd5b62002ca688828701620028bb565b82840152505061014062002cbc81850162002614565b90820152610160838101358381111562002cd4575f80fd5b62002ce288828701620028bb565b918301919091525095945050505050565b602081525f620022ad602083018462002787565b5f6020828403121562002d18575f80fd5b8151620022ad81620023f0565b5f602080838503121562002d37575f80fd5b82516001600160401b0381111562002d4d575f80fd5b8301601f8101851362002d5e575f80fd5b805162002d6f6200250182620024b9565b81815260059190911b8201830190838101908783111562002d8e575f80fd5b928401925b8284101562002db957835162002da981620023f0565b8252928401929084019062002d93565b979650505050505050565b634e487b7160e01b5f52603260045260245ffd5b5f815180845260208085019450602084015f5b8381101562002e125781516001600160a01b03168752958201959082019060010162002deb565b509495945050505050565b604081525f62002e31604083018562002dd8565b828103602084015262002e45818562002dd8565b95945050505050565b6020808252602e908201527f496e697469616c697a61626c653a20636f6e747261637420697320616c72656160408201526d191e481a5b9a5d1a585b1a5e995960921b606082015260800190565b600181811c9082168062002eb157607f821691505b60208210810362002ed057634e487b7160e01b5f52602260045260245ffd5b50919050565b6020808252602c908201525f80516020620036f983398151915260408201526b19195b1959d85d1958d85b1b60a21b606082015260800190565b6020808252602c908201525f80516020620036f983398151915260408201526b6163746976652070726f787960a01b606082015260800190565b601f821115620012cb57805f5260205f20601f840160051c8101602085101562002f715750805b601f840160051c820191505b8181101562002f92575f815560010162002f7d565b5050505050565b81516001600160401b0381111562002fb55762002fb562002421565b62002fcd8162002fc6845462002e9c565b8462002f4a565b602080601f83116001811462003003575f841562002feb5750858301515b5f19600386901b1c1916600185901b17855562000de8565b5f85815260208120601f198616915b82811015620030335788860151825594840194600190910190840162003012565b50858210156200305157878501515f19600388901b60f8161c191681555b5050505050600190811b01905550565b634e487b7160e01b5f52603160045260245ffd5b5f6020828403121562003086575f80fd5b5051919050565b5f60018201620030ab57634e487b7160e01b5f52601160045260245ffd5b5060010190565b805182525f602082015160406020850152620023ad604085018262002787565b60808152620030e6608082018651620025d5565b5f6020860151620030fb60a0840182620025d5565b50604086015160c0830152606086015160e08301526080860151610100818185015260a088015191506101206200313581860184620025d5565b60c089015192506101406200314d81870185620025d5565b60e08a0151935061018061016081818901526200316f610200890187620030b2565b948c01519495506200318488830186620025d5565b838c01519450607f19935083888703016101a0890152620031a6868662002787565b9550828c01519450620031be6101c089018615159052565b808c0151945050505080858403016101e086015250620031df828262002787565b92505050620031f26020830186620025d5565b620032016040830185620025d5565b62002e456060830184620025d5565b6001600160a01b03831681526040602082018190525f90620023ad9083018462002787565b5f82516200324881846020870162002763565b919091019291505056fe60806040526040516104a63803806104a6833981016040819052610022916102dd565b61002d82825f610034565b50506103f2565b61003d8361005f565b5f825111806100495750805b1561005a57610058838361009e565b505b505050565b610068816100ca565b6040516001600160a01b038216907fbc7cd75a20ee27fd9adebab32041f755214dbc6bffa90cc0225b39da2e5c2d3b905f90a250565b60606100c3838360405180606001604052806027815260200161047f6027913961017b565b9392505050565b6100d3816101f0565b61013a5760405162461bcd60e51b815260206004820152602d60248201527f455243313936373a206e657720696d706c656d656e746174696f6e206973206e60448201526c1bdd08184818dbdb9d1c9858dd609a1b60648201526084015b60405180910390fd5b7f360894a13ba1a3210667c828492db98dca3e2076cc3735a920a3ca505d382bbc80546001600160a01b0319166001600160a01b0392909216919091179055565b60605f80856001600160a01b03168560405161019791906103a5565b5f60405180830381855af49150503d805f81146101cf576040519150601f19603f3d011682016040523d82523d5f602084013e6101d4565b606091505b5090925090506101e6868383876101ff565b9695505050505050565b6001600160a01b03163b151590565b6060831561026b5782515f0361026457610218856101f0565b6102645760405162461bcd60e51b815260206004820152601d60248201527f416464726573733a2063616c6c20746f206e6f6e2d636f6e74726163740000006044820152606401610131565b5081610275565b610275838361027d565b949350505050565b81511561028d5781518083602001fd5b8060405162461bcd60e51b815260040161013191906103c0565b634e487b7160e01b5f52604160045260245ffd5b5f5b838110156102d55781810151838201526020016102bd565b50505f910152565b5f80604083850312156102ee575f80fd5b82516001600160a01b0381168114610304575f80fd5b60208401519092506001600160401b0380821115610320575f80fd5b818501915085601f830112610333575f80fd5b815181811115610345576103456102a7565b604051601f8201601f19908116603f0116810190838211818310171561036d5761036d6102a7565b81604052828152886020848701011115610385575f80fd5b6103968360208301602088016102bb565b80955050505050509250929050565b5f82516103b68184602087016102bb565b9190910192915050565b602081525f82518060208401526103de8160408501602087016102bb565b601f01601f19169190910160400192915050565b6081806103fe5f395ff3fe608060405236601057600e6013565b005b600e5b601f601b6021565b6057565b565b5f60527f360894a13ba1a3210667c828492db98dca3e2076cc3735a920a3ca505d382bbc546001600160a01b031690565b905090565b365f80375f80365f845af43d5f803e8080156070573d5ff35b3d5ffdfea164736f6c6343000817000a416464726573733a206c6f772d6c6576656c2064656c65676174652063616c6c206661696c656446756e6374696f6e206d7573742062652063616c6c6564207468726f7567682099650b9d916775b3b2e44f9aae79e2813e1dbfea1e69425eeb145566ab71d209360894a13ba1a3210667c828492db98dca3e2076cc3735a920a3ca505d382bbc7f26b83ff96e1f2b6a682f133852f6798a09c465da95921460cefb3847402498416464726573733a206c6f772d6c6576656c2064656c65676174652063616c6c206661696c6564bdf37c276f641820b141429d245add2552b4118c0866e5a78638e3de5ef18d9de50e6cedeb6a710820f2b7f26dc2d904a9b3ef0b2c087cf8ca10697647951d7da164736f6c6343000817000a","linkReferences":{}},"methodIdentifiers":{"VERSION()":"ffa1ad74","clearCommunityFacetCuts()":"48b4c9d1","clearStrategyFacetCuts()":"6667dfac","collateralVaultTemplate()":"77122d56","createRegistry((address,address,uint256,uint256,uint256,address,address,(uint256,string),address,string,bool,string))":"beb331a3","gardensFeeReceiver()":"b8bed901","getCommunityFacets()":"1f3854b4","getCommunityValidity(address)":"f5016b5e","getGardensFeeReceiver()":"987435be","getProtocolFee(address)":"0a992e0c","getStrategyFacets()":"52a0c203","getStreamingEscrowFactory()":"7f7960f3","globalPauseController()":"8c68f2a9","initialize(address)":"c4d66de8","initialize(address,address,address,address,address)":"1459457a","isContractRegistered(address)":"f9f6b49b","keepersAddresses(address)":"1f4b502e","nonce()":"affed0e0","owner()":"8da5cb5b","protopiansAddresses(address)":"083e8f97","proxiableUUID()":"52d1902d","proxyOwner()":"025313a2","registerContract(address)":"22a5dde4","registeredContracts(address)":"a06617cd","registryCommunityTemplate()":"02c1d0b1","renounceOwnership()":"715018a6","setCollateralVaultTemplate(address)":"b0d3713a","setCommunityFacetInit(address,bytes)":"a3f17ca1","setCommunityFacets((address,uint8,bytes4[])[],address,bytes)":"90147c6b","setCommunityValidity(address,bool)":"5a2c8ace","setGlobalPauseController(address)":"cd5a8349","setKeeperAddress(address[],bool)":"1425d1ec","setProtocolFee(address,uint256)":"b5b3ca2c","setProtopianAddress(address[],bool)":"8d3ad8a4","setReceiverAddress(address)":"8279c7db","setRegistryCommunityTemplate(address)":"5decae02","setStrategyFacetInit(address,bytes)":"5c518327","setStrategyFacets((address,uint8,bytes4[])[],address,bytes)":"a6a85d88","setStrategyTemplate(address)":"1b71f0e4","setStreamingEscrowFactory(address)":"1d413a8a","strategyTemplate()":"5c94e4d2","streamingEscrowFactory()":"1d12d3c7","transferOwnership(address)":"f2fde38b","unregisterContract(address)":"fac2c621","upgradeTo(address)":"3659cfe6","upgradeToAndCall(address,bytes)":"4f1ef286","upsertCommunityFacetCut(uint256,address,uint8,bytes4[])":"020946d2","upsertStrategyFacetCut(uint256,address,uint8,bytes4[])":"ff4a14ff"},"storageLayout":{"storage":[{"astId":53054,"contract":"pkg/contracts/src/RegistryFactory/RegistryFactory.sol:RegistryFactory","label":"_initialized","offset":0,"slot":"0","type":"t_uint8"},{"astId":53057,"contract":"pkg/contracts/src/RegistryFactory/RegistryFactory.sol:RegistryFactory","label":"_initializing","offset":1,"slot":"0","type":"t_bool"},{"astId":53759,"contract":"pkg/contracts/src/RegistryFactory/RegistryFactory.sol:RegistryFactory","label":"__gap","offset":0,"slot":"1","type":"t_array(t_uint256)50_storage"},{"astId":52846,"contract":"pkg/contracts/src/RegistryFactory/RegistryFactory.sol:RegistryFactory","label":"_owner","offset":0,"slot":"51","type":"t_address"},{"astId":52966,"contract":"pkg/contracts/src/RegistryFactory/RegistryFactory.sol:RegistryFactory","label":"__gap","offset":0,"slot":"52","type":"t_array(t_uint256)49_storage"},{"astId":130723,"contract":"pkg/contracts/src/RegistryFactory/RegistryFactory.sol:RegistryFactory","label":"nonce","offset":0,"slot":"101","type":"t_uint256"},{"astId":130728,"contract":"pkg/contracts/src/RegistryFactory/RegistryFactory.sol:RegistryFactory","label":"communityToInfo","offset":0,"slot":"102","type":"t_mapping(t_address,t_struct(CommunityInfo)130715_storage)"},{"astId":130730,"contract":"pkg/contracts/src/RegistryFactory/RegistryFactory.sol:RegistryFactory","label":"gardensFeeReceiver","offset":0,"slot":"103","type":"t_address"},{"astId":130732,"contract":"pkg/contracts/src/RegistryFactory/RegistryFactory.sol:RegistryFactory","label":"registryCommunityTemplate","offset":0,"slot":"104","type":"t_address"},{"astId":130734,"contract":"pkg/contracts/src/RegistryFactory/RegistryFactory.sol:RegistryFactory","label":"strategyTemplate","offset":0,"slot":"105","type":"t_address"},{"astId":130736,"contract":"pkg/contracts/src/RegistryFactory/RegistryFactory.sol:RegistryFactory","label":"collateralVaultTemplate","offset":0,"slot":"106","type":"t_address"},{"astId":130740,"contract":"pkg/contracts/src/RegistryFactory/RegistryFactory.sol:RegistryFactory","label":"protopiansAddresses","offset":0,"slot":"107","type":"t_mapping(t_address,t_bool)"},{"astId":130744,"contract":"pkg/contracts/src/RegistryFactory/RegistryFactory.sol:RegistryFactory","label":"keepersAddresses","offset":0,"slot":"108","type":"t_mapping(t_address,t_bool)"},{"astId":130748,"contract":"pkg/contracts/src/RegistryFactory/RegistryFactory.sol:RegistryFactory","label":"communityFacetCuts","offset":0,"slot":"109","type":"t_array(t_struct(FacetCut)132767_storage)dyn_storage"},{"astId":130750,"contract":"pkg/contracts/src/RegistryFactory/RegistryFactory.sol:RegistryFactory","label":"communityInit","offset":0,"slot":"110","type":"t_address"},{"astId":130752,"contract":"pkg/contracts/src/RegistryFactory/RegistryFactory.sol:RegistryFactory","label":"communityInitCalldata","offset":0,"slot":"111","type":"t_bytes_storage"},{"astId":130756,"contract":"pkg/contracts/src/RegistryFactory/RegistryFactory.sol:RegistryFactory","label":"strategyFacetCuts","offset":0,"slot":"112","type":"t_array(t_struct(FacetCut)132767_storage)dyn_storage"},{"astId":130758,"contract":"pkg/contracts/src/RegistryFactory/RegistryFactory.sol:RegistryFactory","label":"strategyInit","offset":0,"slot":"113","type":"t_address"},{"astId":130760,"contract":"pkg/contracts/src/RegistryFactory/RegistryFactory.sol:RegistryFactory","label":"strategyInitCalldata","offset":0,"slot":"114","type":"t_bytes_storage"},{"astId":130764,"contract":"pkg/contracts/src/RegistryFactory/RegistryFactory.sol:RegistryFactory","label":"registeredContracts","offset":0,"slot":"115","type":"t_mapping(t_address,t_bool)"},{"astId":130766,"contract":"pkg/contracts/src/RegistryFactory/RegistryFactory.sol:RegistryFactory","label":"streamingEscrowFactory","offset":0,"slot":"116","type":"t_address"},{"astId":130768,"contract":"pkg/contracts/src/RegistryFactory/RegistryFactory.sol:RegistryFactory","label":"globalPauseController","offset":0,"slot":"117","type":"t_address"},{"astId":130772,"contract":"pkg/contracts/src/RegistryFactory/RegistryFactory.sol:RegistryFactory","label":"__gap","offset":0,"slot":"118","type":"t_array(t_uint256)42_storage"}],"types":{"t_address":{"encoding":"inplace","label":"address","numberOfBytes":"20"},"t_array(t_bytes4)dyn_storage":{"encoding":"dynamic_array","label":"bytes4[]","numberOfBytes":"32","base":"t_bytes4"},"t_array(t_struct(FacetCut)132767_storage)dyn_storage":{"encoding":"dynamic_array","label":"struct IDiamond.FacetCut[]","numberOfBytes":"32","base":"t_struct(FacetCut)132767_storage"},"t_array(t_uint256)42_storage":{"encoding":"inplace","label":"uint256[42]","numberOfBytes":"1344","base":"t_uint256"},"t_array(t_uint256)49_storage":{"encoding":"inplace","label":"uint256[49]","numberOfBytes":"1568","base":"t_uint256"},"t_array(t_uint256)50_storage":{"encoding":"inplace","label":"uint256[50]","numberOfBytes":"1600","base":"t_uint256"},"t_bool":{"encoding":"inplace","label":"bool","numberOfBytes":"1"},"t_bytes4":{"encoding":"inplace","label":"bytes4","numberOfBytes":"4"},"t_bytes_storage":{"encoding":"bytes","label":"bytes","numberOfBytes":"32"},"t_enum(FacetCutAction)132758":{"encoding":"inplace","label":"enum IDiamond.FacetCutAction","numberOfBytes":"1"},"t_mapping(t_address,t_bool)":{"encoding":"mapping","key":"t_address","label":"mapping(address => bool)","numberOfBytes":"32","value":"t_bool"},"t_mapping(t_address,t_struct(CommunityInfo)130715_storage)":{"encoding":"mapping","key":"t_address","label":"mapping(address => struct CommunityInfo)","numberOfBytes":"32","value":"t_struct(CommunityInfo)130715_storage"},"t_struct(CommunityInfo)130715_storage":{"encoding":"inplace","label":"struct CommunityInfo","numberOfBytes":"64","members":[{"astId":130712,"contract":"pkg/contracts/src/RegistryFactory/RegistryFactory.sol:RegistryFactory","label":"fee","offset":0,"slot":"0","type":"t_uint256"},{"astId":130714,"contract":"pkg/contracts/src/RegistryFactory/RegistryFactory.sol:RegistryFactory","label":"valid","offset":0,"slot":"1","type":"t_bool"}]},"t_struct(FacetCut)132767_storage":{"encoding":"inplace","label":"struct IDiamond.FacetCut","numberOfBytes":"64","members":[{"astId":132760,"contract":"pkg/contracts/src/RegistryFactory/RegistryFactory.sol:RegistryFactory","label":"facetAddress","offset":0,"slot":"0","type":"t_address"},{"astId":132763,"contract":"pkg/contracts/src/RegistryFactory/RegistryFactory.sol:RegistryFactory","label":"action","offset":20,"slot":"0","type":"t_enum(FacetCutAction)132758"},{"astId":132766,"contract":"pkg/contracts/src/RegistryFactory/RegistryFactory.sol:RegistryFactory","label":"functionSelectors","offset":0,"slot":"1","type":"t_array(t_bytes4)dyn_storage"}]},"t_uint256":{"encoding":"inplace","label":"uint256","numberOfBytes":"32"},"t_uint8":{"encoding":"inplace","label":"uint8","numberOfBytes":"1"}}},"id":212}