{"abi":[{"type":"function","name":"VERSION","inputs":[],"outputs":[{"name":"","type":"string","internalType":"string"}],"stateMutability":"view"},{"type":"function","name":"clearCommunityFacetCuts","inputs":[],"outputs":[],"stateMutability":"nonpayable"},{"type":"function","name":"clearStrategyFacetCuts","inputs":[],"outputs":[],"stateMutability":"nonpayable"},{"type":"function","name":"collateralVaultTemplate","inputs":[],"outputs":[{"name":"","type":"address","internalType":"address"}],"stateMutability":"view"},{"type":"function","name":"createRegistry","inputs":[{"name":"params","type":"tuple","internalType":"struct RegistryCommunityInitializeParams","components":[{"name":"_allo","type":"address","internalType":"address"},{"name":"_gardenToken","type":"address","internalType":"contract IERC20"},{"name":"_registerStakeAmount","type":"uint256","internalType":"uint256"},{"name":"_communityFee","type":"uint256","internalType":"uint256"},{"name":"_nonce","type":"uint256","internalType":"uint256"},{"name":"_registryFactory","type":"address","internalType":"address"},{"name":"_feeReceiver","type":"address","internalType":"address"},{"name":"_metadata","type":"tuple","internalType":"struct Metadata","components":[{"name":"protocol","type":"uint256","internalType":"uint256"},{"name":"pointer","type":"string","internalType":"string"}]},{"name":"_councilSafe","type":"address","internalType":"address payable"},{"name":"_communityName","type":"string","internalType":"string"},{"name":"_isKickEnabled","type":"bool","internalType":"bool"},{"name":"covenantIpfsHash","type":"string","internalType":"string"}]}],"outputs":[{"name":"_createdRegistryAddress","type":"address","internalType":"address"}],"stateMutability":"nonpayable"},{"type":"function","name":"gardensFeeReceiver","inputs":[],"outputs":[{"name":"","type":"address","internalType":"address"}],"stateMutability":"view"},{"type":"function","name":"getCommunityFacets","inputs":[],"outputs":[{"name":"facetCuts","type":"tuple[]","internalType":"struct IDiamond.FacetCut[]","components":[{"name":"facetAddress","type":"address","internalType":"address"},{"name":"action","type":"uint8","internalType":"enum IDiamond.FacetCutAction"},{"name":"functionSelectors","type":"bytes4[]","internalType":"bytes4[]"}]},{"name":"init","type":"address","internalType":"address"},{"name":"initCalldata","type":"bytes","internalType":"bytes"}],"stateMutability":"view"},{"type":"function","name":"getCommunityValidity","inputs":[{"name":"_community","type":"address","internalType":"address"}],"outputs":[{"name":"","type":"bool","internalType":"bool"}],"stateMutability":"view"},{"type":"function","name":"getGardensFeeReceiver","inputs":[],"outputs":[{"name":"","type":"address","internalType":"address"}],"stateMutability":"view"},{"type":"function","name":"getProtocolFee","inputs":[{"name":"_community","type":"address","internalType":"address"}],"outputs":[{"name":"","type":"uint256","internalType":"uint256"}],"stateMutability":"view"},{"type":"function","name":"getStrategyFacets","inputs":[],"outputs":[{"name":"facetCuts","type":"tuple[]","internalType":"struct IDiamond.FacetCut[]","components":[{"name":"facetAddress","type":"address","internalType":"address"},{"name":"action","type":"uint8","internalType":"enum IDiamond.FacetCutAction"},{"name":"functionSelectors","type":"bytes4[]","internalType":"bytes4[]"}]},{"name":"init","type":"address","internalType":"address"},{"name":"initCalldata","type":"bytes","internalType":"bytes"}],"stateMutability":"view"},{"type":"function","name":"getStreamingEscrowFactory","inputs":[],"outputs":[{"name":"","type":"address","internalType":"address"}],"stateMutability":"view"},{"type":"function","name":"globalPauseController","inputs":[],"outputs":[{"name":"","type":"address","internalType":"address"}],"stateMutability":"view"},{"type":"function","name":"initialize","inputs":[{"name":"_owner","type":"address","internalType":"address"},{"name":"_gardensFeeReceiver","type":"address","internalType":"address"},{"name":"_registryCommunityTemplate","type":"address","internalType":"address"},{"name":"_strategyTemplate","type":"address","internalType":"address"},{"name":"_collateralVaultTemplate","type":"address","internalType":"address"}],"outputs":[],"stateMutability":"nonpayable"},{"type":"function","name":"initialize","inputs":[{"name":"initialOwner","type":"address","internalType":"address"}],"outputs":[],"stateMutability":"nonpayable"},{"type":"function","name":"isContractRegistered","inputs":[{"name":"target","type":"address","internalType":"address"}],"outputs":[{"name":"","type":"bool","internalType":"bool"}],"stateMutability":"view"},{"type":"function","name":"isStreamRebalanceCallerAllowed","inputs":[{"name":"caller","type":"address","internalType":"address"}],"outputs":[{"name":"","type":"bool","internalType":"bool"}],"stateMutability":"view"},{"type":"function","name":"keepersAddresses","inputs":[{"name":"","type":"address","internalType":"address"}],"outputs":[{"name":"","type":"bool","internalType":"bool"}],"stateMutability":"view"},{"type":"function","name":"nonce","inputs":[],"outputs":[{"name":"","type":"uint256","internalType":"uint256"}],"stateMutability":"view"},{"type":"function","name":"owner","inputs":[],"outputs":[{"name":"","type":"address","internalType":"address"}],"stateMutability":"view"},{"type":"function","name":"protopiansAddresses","inputs":[{"name":"","type":"address","internalType":"address"}],"outputs":[{"name":"","type":"bool","internalType":"bool"}],"stateMutability":"view"},{"type":"function","name":"proxiableUUID","inputs":[],"outputs":[{"name":"","type":"bytes32","internalType":"bytes32"}],"stateMutability":"view"},{"type":"function","name":"proxyOwner","inputs":[],"outputs":[{"name":"","type":"address","internalType":"address"}],"stateMutability":"view"},{"type":"function","name":"registerContract","inputs":[{"name":"target","type":"address","internalType":"address"}],"outputs":[],"stateMutability":"nonpayable"},{"type":"function","name":"registeredContracts","inputs":[{"name":"","type":"address","internalType":"address"}],"outputs":[{"name":"","type":"bool","internalType":"bool"}],"stateMutability":"view"},{"type":"function","name":"registryCommunityTemplate","inputs":[],"outputs":[{"name":"","type":"address","internalType":"address"}],"stateMutability":"view"},{"type":"function","name":"renounceOwnership","inputs":[],"outputs":[],"stateMutability":"nonpayable"},{"type":"function","name":"setCollateralVaultTemplate","inputs":[{"name":"template","type":"address","internalType":"address"}],"outputs":[],"stateMutability":"nonpayable"},{"type":"function","name":"setCommunityFacetInit","inputs":[{"name":"init","type":"address","internalType":"address"},{"name":"initCalldata","type":"bytes","internalType":"bytes"}],"outputs":[],"stateMutability":"nonpayable"},{"type":"function","name":"setCommunityFacets","inputs":[{"name":"communityFacetCuts_","type":"tuple[]","internalType":"struct IDiamond.FacetCut[]","components":[{"name":"facetAddress","type":"address","internalType":"address"},{"name":"action","type":"uint8","internalType":"enum IDiamond.FacetCutAction"},{"name":"functionSelectors","type":"bytes4[]","internalType":"bytes4[]"}]},{"name":"communityInit_","type":"address","internalType":"address"},{"name":"communityInitCalldata_","type":"bytes","internalType":"bytes"}],"outputs":[],"stateMutability":"nonpayable"},{"type":"function","name":"setCommunityValidity","inputs":[{"name":"_community","type":"address","internalType":"address"},{"name":"_isValid","type":"bool","internalType":"bool"}],"outputs":[],"stateMutability":"nonpayable"},{"type":"function","name":"setGlobalPauseController","inputs":[{"name":"controller","type":"address","internalType":"address"}],"outputs":[],"stateMutability":"nonpayable"},{"type":"function","name":"setKeeperAddress","inputs":[{"name":"_keepers","type":"address[]","internalType":"address[]"},{"name":"_isKeeper","type":"bool","internalType":"bool"}],"outputs":[],"stateMutability":"nonpayable"},{"type":"function","name":"setProtocolFee","inputs":[{"name":"_community","type":"address","internalType":"address"},{"name":"_newProtocolFee","type":"uint256","internalType":"uint256"}],"outputs":[],"stateMutability":"nonpayable"},{"type":"function","name":"setProtopianAddress","inputs":[{"name":"_protopians","type":"address[]","internalType":"address[]"},{"name":"_isProtopian","type":"bool","internalType":"bool"}],"outputs":[],"stateMutability":"nonpayable"},{"type":"function","name":"setReceiverAddress","inputs":[{"name":"_newFeeReceiver","type":"address","internalType":"address"}],"outputs":[],"stateMutability":"nonpayable"},{"type":"function","name":"setRegistryCommunityTemplate","inputs":[{"name":"template","type":"address","internalType":"address"}],"outputs":[],"stateMutability":"nonpayable"},{"type":"function","name":"setStrategyFacetInit","inputs":[{"name":"init","type":"address","internalType":"address"},{"name":"initCalldata","type":"bytes","internalType":"bytes"}],"outputs":[],"stateMutability":"nonpayable"},{"type":"function","name":"setStrategyFacets","inputs":[{"name":"strategyFacetCuts_","type":"tuple[]","internalType":"struct IDiamond.FacetCut[]","components":[{"name":"facetAddress","type":"address","internalType":"address"},{"name":"action","type":"uint8","internalType":"enum IDiamond.FacetCutAction"},{"name":"functionSelectors","type":"bytes4[]","internalType":"bytes4[]"}]},{"name":"strategyInit_","type":"address","internalType":"address"},{"name":"strategyInitCalldata_","type":"bytes","internalType":"bytes"}],"outputs":[],"stateMutability":"nonpayable"},{"type":"function","name":"setStrategyTemplate","inputs":[{"name":"template","type":"address","internalType":"address"}],"outputs":[],"stateMutability":"nonpayable"},{"type":"function","name":"setStreamRebalanceCaller","inputs":[{"name":"caller","type":"address","internalType":"address"},{"name":"allowed","type":"bool","internalType":"bool"}],"outputs":[],"stateMutability":"nonpayable"},{"type":"function","name":"setStreamingEscrowFactory","inputs":[{"name":"factory","type":"address","internalType":"address"}],"outputs":[],"stateMutability":"nonpayable"},{"type":"function","name":"strategyTemplate","inputs":[],"outputs":[{"name":"","type":"address","internalType":"address"}],"stateMutability":"view"},{"type":"function","name":"streamRebalanceCallerAllowlist","inputs":[{"name":"","type":"address","internalType":"address"}],"outputs":[{"name":"","type":"bool","internalType":"bool"}],"stateMutability":"view"},{"type":"function","name":"streamingEscrowFactory","inputs":[],"outputs":[{"name":"","type":"address","internalType":"address"}],"stateMutability":"view"},{"type":"function","name":"transferOwnership","inputs":[{"name":"newOwner","type":"address","internalType":"address"}],"outputs":[],"stateMutability":"nonpayable"},{"type":"function","name":"unregisterContract","inputs":[{"name":"target","type":"address","internalType":"address"}],"outputs":[],"stateMutability":"nonpayable"},{"type":"function","name":"upgradeTo","inputs":[{"name":"newImplementation","type":"address","internalType":"address"}],"outputs":[],"stateMutability":"nonpayable"},{"type":"function","name":"upgradeToAndCall","inputs":[{"name":"newImplementation","type":"address","internalType":"address"},{"name":"data","type":"bytes","internalType":"bytes"}],"outputs":[],"stateMutability":"payable"},{"type":"function","name":"upsertCommunityFacetCut","inputs":[{"name":"index","type":"uint256","internalType":"uint256"},{"name":"facetAddress","type":"address","internalType":"address"},{"name":"action","type":"uint8","internalType":"enum IDiamond.FacetCutAction"},{"name":"selectors","type":"bytes4[]","internalType":"bytes4[]"}],"outputs":[],"stateMutability":"nonpayable"},{"type":"function","name":"upsertStrategyFacetCut","inputs":[{"name":"index","type":"uint256","internalType":"uint256"},{"name":"facetAddress","type":"address","internalType":"address"},{"name":"action","type":"uint8","internalType":"enum IDiamond.FacetCutAction"},{"name":"selectors","type":"bytes4[]","internalType":"bytes4[]"}],"outputs":[],"stateMutability":"nonpayable"},{"type":"event","name":"AdminChanged","inputs":[{"name":"previousAdmin","type":"address","indexed":false,"internalType":"address"},{"name":"newAdmin","type":"address","indexed":false,"internalType":"address"}],"anonymous":false},{"type":"event","name":"BeaconUpgraded","inputs":[{"name":"beacon","type":"address","indexed":true,"internalType":"address"}],"anonymous":false},{"type":"event","name":"CommunityCreated","inputs":[{"name":"_registryCommunity","type":"address","indexed":false,"internalType":"address"}],"anonymous":false},{"type":"event","name":"CommunityValiditySet","inputs":[{"name":"_community","type":"address","indexed":false,"internalType":"address"},{"name":"_isValid","type":"bool","indexed":false,"internalType":"bool"}],"anonymous":false},{"type":"event","name":"ContractRegistered","inputs":[{"name":"target","type":"address","indexed":true,"internalType":"address"}],"anonymous":false},{"type":"event","name":"ContractUnregistered","inputs":[{"name":"target","type":"address","indexed":true,"internalType":"address"}],"anonymous":false},{"type":"event","name":"FeeReceiverSet","inputs":[{"name":"_newFeeReceiver","type":"address","indexed":false,"internalType":"address"}],"anonymous":false},{"type":"event","name":"GlobalPauseControllerSet","inputs":[{"name":"_newController","type":"address","indexed":false,"internalType":"address"}],"anonymous":false},{"type":"event","name":"Initialized","inputs":[{"name":"version","type":"uint8","indexed":false,"internalType":"uint8"}],"anonymous":false},{"type":"event","name":"KeepersChanged","inputs":[{"name":"_new","type":"address[]","indexed":false,"internalType":"address[]"},{"name":"_removed","type":"address[]","indexed":false,"internalType":"address[]"}],"anonymous":false},{"type":"event","name":"OwnershipTransferred","inputs":[{"name":"previousOwner","type":"address","indexed":true,"internalType":"address"},{"name":"newOwner","type":"address","indexed":true,"internalType":"address"}],"anonymous":false},{"type":"event","name":"ProtocolFeeSet","inputs":[{"name":"_community","type":"address","indexed":false,"internalType":"address"},{"name":"_newProtocolFee","type":"uint256","indexed":false,"internalType":"uint256"}],"anonymous":false},{"type":"event","name":"ProtopiansChanged","inputs":[{"name":"_new","type":"address[]","indexed":false,"internalType":"address[]"},{"name":"_removed","type":"address[]","indexed":false,"internalType":"address[]"}],"anonymous":false},{"type":"event","name":"StreamRebalanceCallerAllowlistSet","inputs":[{"name":"caller","type":"address","indexed":true,"internalType":"address"},{"name":"allowed","type":"bool","indexed":false,"internalType":"bool"}],"anonymous":false},{"type":"event","name":"StreamingEscrowFactorySet","inputs":[{"name":"_newFactory","type":"address","indexed":false,"internalType":"address"}],"anonymous":false},{"type":"event","name":"Upgraded","inputs":[{"name":"implementation","type":"address","indexed":true,"internalType":"address"}],"anonymous":false},{"type":"error","name":"AddressCannotBeZero","inputs":[]},{"type":"error","name":"CallerNotOwner","inputs":[{"name":"_caller","type":"address","internalType":"address"},{"name":"_owner","type":"address","internalType":"address"}]},{"type":"error","name":"CommunityInvalid","inputs":[{"name":"_community","type":"address","internalType":"address"}]}],"bytecode":{"object":"0x60a06040523060805234801562000014575f80fd5b506200001f62000025565b620000e3565b5f54610100900460ff1615620000915760405162461bcd60e51b815260206004820152602760248201527f496e697469616c697a61626c653a20636f6e747261637420697320696e697469604482015266616c697a696e6760c81b606482015260840160405180910390fd5b5f5460ff90811614620000e1575f805460ff191660ff9081179091556040519081527f7f26b83ff96e1f2b6a682f133852f6798a09c465da95921460cefb38474024989060200160405180910390a15b565b608051613966620001185f395f81816110ba015281816110fd0152818161119f015281816111e2015261129301526139665ff3fe60806040526004361062000277575f3560e01c8063020946d2146200027b578063025313a214620002a157806302c1d0b114620002d0578063083e8f9714620002f15780630a992e0c14620003345780631425d1ec14620003675780631459457a146200038b5780631b71f0e414620003af5780631d12d3c714620003d35780631d413a8a14620003f45780631f3854b414620004185780631f4b502e146200044057806322a5dde414620004725780633659cfe6146200049657806348b4c9d114620004ba5780634f1ef28614620004d157806352a0c20314620004e857806352d1902d14620004ff5780635a2c8ace14620005165780635c518327146200053a5780635c94e4d2146200055e5780635decae02146200057f5780636667dfac14620005a3578063715018a614620005ba57806377122d5614620005d15780637f7960f314620005f25780638279c7db14620006115780638c68f2a914620006355780638d3ad8a414620006565780638da5cb5b146200067a57806390147c6b146200069157806396cfd09014620006b5578063987435be14620006d9578063a06617cd14620006f8578063a3f17ca1146200072a578063a6a85d88146200074e578063affed0e01462000772578063b0d3713a1462000789578063b5b3ca2c14620007ad578063b8bed90114620007d1578063beb331a314620007f2578063c4d66de81462000816578063cd5a8349146200083a578063e1f3ca04146200085e578063ea8c813f1462000899578063f2fde38b14620008cb578063f5016b5e14620008ef578063f9f6b49b146200092d578063fac2c6211462000968578063ff4a14ff146200098c578063ffa1ad7414620009b0575b5f80fd5b34801562000287575f80fd5b506200029f62000299366004620026e2565b620009ef565b005b348015620002ad575f80fd5b50620002b862000a0f565b604051620002c791906200275c565b60405180910390f35b348015620002dc575f80fd5b50606854620002b8906001600160a01b031681565b348015620002fd575f80fd5b50620003236200030f36600462002770565b606b6020525f908152604090205460ff1681565b6040519015158152602001620002c7565b34801562000340575f80fd5b50620003586200035236600462002770565b62000a28565b604051908152602001620002c7565b34801562000373575f80fd5b506200029f620003853660046200279e565b62000c7a565b34801562000397575f80fd5b506200029f620003a936600462002851565b62000d95565b348015620003bb575f80fd5b506200029f620003cd36600462002770565b62000ef7565b348015620003df575f80fd5b50607454620002b8906001600160a01b031681565b34801562000400575f80fd5b506200029f6200041236600462002770565b62000f23565b34801562000424575f80fd5b506200042f62000f90565b604051620002c7939291906200292e565b3480156200044c575f80fd5b50620003236200045e36600462002770565b606c6020525f908152604090205460ff1681565b3480156200047e575f80fd5b506200029f6200049036600462002770565b62001050565b348015620004a2575f80fd5b506200029f620004b436600462002770565b620010b0565b348015620004c6575f80fd5b506200029f62001183565b6200029f620004e236600462002aa7565b62001195565b348015620004f4575f80fd5b506200042f62001256565b3480156200050b575f80fd5b506200035862001287565b34801562000522575f80fd5b506200029f6200053436600462002af9565b62001336565b34801562000546575f80fd5b506200029f6200055836600462002aa7565b6200139f565b3480156200056a575f80fd5b50606954620002b8906001600160a01b031681565b3480156200058b575f80fd5b506200029f6200059d36600462002770565b620013d7565b348015620005af575f80fd5b506200029f62001403565b348015620005c6575f80fd5b506200029f62001413565b348015620005dd575f80fd5b50606a54620002b8906001600160a01b031681565b348015620005fe575f80fd5b506074546001600160a01b0316620002b8565b3480156200061d575f80fd5b506200029f6200062f36600462002770565b62001428565b34801562000641575f80fd5b50607554620002b8906001600160a01b031681565b34801562000662575f80fd5b506200029f620006743660046200279e565b62001478565b34801562000686575f80fd5b50620002b862001516565b3480156200069d575f80fd5b506200029f620006af36600462002b31565b620015b6565b348015620006c1575f80fd5b506200029f620006d336600462002af9565b620015f6565b348015620006e5575f80fd5b506067546001600160a01b0316620002b8565b34801562000704575f80fd5b50620003236200071636600462002770565b60736020525f908152604090205460ff1681565b34801562000736575f80fd5b506200029f6200074836600462002aa7565b62001669565b3480156200075a575f80fd5b506200029f6200076c36600462002b31565b6200169c565b3480156200077e575f80fd5b506200035860655481565b34801562000795575f80fd5b506200029f620007a736600462002770565b620016dc565b348015620007b9575f80fd5b506200029f620007cb36600462002c7a565b62001708565b348015620007dd575f80fd5b50606754620002b8906001600160a01b031681565b348015620007fe575f80fd5b50620002b86200081036600462002d19565b62001763565b34801562000822575f80fd5b506200029f6200083436600462002770565b6200180d565b34801562000846575f80fd5b506200029f6200085836600462002770565b620018cd565b3480156200086a575f80fd5b50620003236200087c36600462002770565b6001600160a01b03165f9081526076602052604090205460ff1690565b348015620008a5575f80fd5b5062000323620008b736600462002770565b60766020525f908152604090205460ff1681565b348015620008d7575f80fd5b506200029f620008e936600462002770565b6200192f565b348015620008fb575f80fd5b50620003236200090d36600462002770565b6001600160a01b03165f9081526066602052604090206001015460ff1690565b34801562000939575f80fd5b50620003236200094b36600462002770565b6001600160a01b03165f9081526073602052604090205460ff1690565b34801562000974575f80fd5b506200029f6200098636600462002770565b620019ab565b34801562000998575f80fd5b506200029f620009aa366004620026e2565b62001a08565b348015620009bc575f80fd5b50620009e0604051806040016040528060038152602001620302e360ec1b81525081565b604051620002c7919062002e6d565b620009f962001a22565b62000a09606d8585858562001a85565b50505050565b5f62000a236033546001600160a01b031690565b905090565b6001600160a01b0381165f9081526066602052604081206001015460ff1662000a71578160405163f5a6943d60e01b815260040162000a6891906200275c565b60405180910390fd5b6001600160a01b0382165f908152606c602052604090205460ff161562000a9957505f919050565b5f826001600160a01b0316636c53db9a6040518163ffffffff1660e01b8152600401602060405180830381865afa15801562000ad7573d5f803e3d5ffd5b505050506040513d601f19601f8201168201806040525081019062000afd919062002e81565b6001600160a01b0381165f908152606b602052604090205490915060ff16801562000b2b57505f9392505050565b6001600160a01b0382163b1562000c5d5760408051600481526024810182526020810180516001600160e01b031663a0e67e2b60e01b17905290515f9182916001600160a01b0386169162000b809162002e9f565b5f60405180830381855afa9150503d805f811462000bba576040519150601f19603f3d011682016040523d82523d5f602084013e62000bbf565b606091505b509150915081801562000bd257505f8151115b1562000c5a575f8180602001905181019062000bef919062002ebc565b90505f5b815181101562000c5757606b5f83838151811062000c155762000c1562002f5b565b6020908102919091018101516001600160a01b031682528101919091526040015f205460ff161562000c4e57505f979650505050505050565b60010162000bf3565b50505b50505b5050506001600160a01b03165f9081526066602052604090205490565b62000c8462001a22565b5f5b825181101562000ce35781606c5f85848151811062000ca95762000ca962002f5b565b6020908102919091018101516001600160a01b031682528101919091526040015f20805460ff191691151591909117905560010162000c86565b50801562000d44575f8051602062003893833981519152825f5b60405190808252806020026020018201604052801562000d27578160200160208202803683370190505b5060405162000d3892919062002fb4565b60405180910390a15050565b5f80516020620038938339815191525f5b60405190808252806020026020018201604052801562000d7f578160200160208202803683370190505b508360405162000d3892919062002fb4565b5050565b5f54610100900460ff161580801562000db457505f54600160ff909116105b8062000dd8575062000dc63062001c25565b15801562000dd857505f5460ff166001145b62000df75760405162461bcd60e51b815260040162000a689062002fe5565b5f805460ff19166001179055801562000e19575f805461ff0019166101001790555b62000e24866200180d565b5f60655562000e338562001c34565b62000e3e8462001c34565b62000e498262001c34565b606780546001600160a01b038088166001600160a01b0319928316179092556068805487841690831617905560698054868416908316179055606a8054928516929091169190911790556040515f805160206200391a8339815191529062000eb39087906200275c565b60405180910390a1801562000eef575f805461ff0019169055604051600181525f80516020620038d38339815191529060200160405180910390a15b505050505050565b62000f0162001a22565b606980546001600160a01b0319166001600160a01b0392909216919091179055565b62000f2d62001a22565b62000f388162001c34565b607480546001600160a01b0319166001600160a01b0383161790556040517ff36089ae8fad57216928e8f6fa995a4278ca6299b06b50a5811dec5c66c680e39062000f859083906200275c565b60405180910390a150565b60605f606062000fa1606d62001c5c565b606e54606f80546001600160a01b0390921691819062000fc19062003033565b80601f016020809104026020016040519081016040528092919081815260200182805462000fef9062003033565b80156200103e5780601f1062001014576101008083540402835291602001916200103e565b820191905f5260205f20905b8154815290600101906020018083116200102057829003601f168201915b50505050509050925092509250909192565b6200105a62001a22565b620010658162001c34565b6001600160a01b0381165f81815260736020526040808220805460ff19166001179055517fc25d1d022102ce7b344c33d14de2893a248fabd34bb630dc982e2fbc20f295439190a250565b6001600160a01b037f0000000000000000000000000000000000000000000000000000000000000000163003620010fb5760405162461bcd60e51b815260040162000a68906200306d565b7f00000000000000000000000000000000000000000000000000000000000000006001600160a01b03166200112f62001efc565b6001600160a01b031614620011585760405162461bcd60e51b815260040162000a6890620030a7565b620011638162001f18565b604080515f80825260208201909252620011809183919062001f6a565b50565b6200118d62001a22565b5f606d55565b565b6001600160a01b037f0000000000000000000000000000000000000000000000000000000000000000163003620011e05760405162461bcd60e51b815260040162000a68906200306d565b7f00000000000000000000000000000000000000000000000000000000000000006001600160a01b03166200121462001efc565b6001600160a01b0316146200123d5760405162461bcd60e51b815260040162000a6890620030a7565b620012488262001f18565b62000d918282600162001f6a565b60605f606062001267607062001c5c565b607154607280546001600160a01b0390921691819062000fc19062003033565b5f306001600160a01b037f00000000000000000000000000000000000000000000000000000000000000001614620013235760405162461bcd60e51b815260206004820152603860248201527f555550535570677261646561626c653a206d757374206e6f742062652063616c6044820152771b1959081d1a1c9bdd59da0819195b1959d85d1958d85b1b60421b606482015260840162000a68565b505f80516020620038b383398151915290565b6200134062001a22565b6001600160a01b0382165f81815260666020908152604091829020600101805460ff19168515159081179091558251938452908301527fecdcd3502799a6c41864ea2682236184e876f63e10f8d56c7768a3d501e89f62910162000d38565b620013a962001a22565b607180546001600160a01b0319166001600160a01b0384161790556072620013d2828262003130565b505050565b620013e162001a22565b606880546001600160a01b0319166001600160a01b0392909216919091179055565b6200140d62001a22565b5f607055565b6200141d62001a22565b620011935f620020e1565b6200143262001a22565b6200143d8162001c34565b606780546001600160a01b0319166001600160a01b0383161790556040515f805160206200391a8339815191529062000f859083906200275c565b6200148262001a22565b5f5b8251811015620014e15781606b5f858481518110620014a757620014a762002f5b565b6020908102919091018101516001600160a01b031682528101919091526040015f20805460ff191691151591909117905560010162001484565b50801562001500575f805160206200393a833981519152825f62000cfd565b5f805160206200393a8339815191525f62000d55565b5f6200152162000a0f565b6001600160a01b03163b5f036200153c5762000a2362000a0f565b6200154662000a0f565b6001600160a01b0316638da5cb5b6040518163ffffffff1660e01b8152600401602060405180830381865afa925050508015620015a2575060408051601f3d908101601f191682019092526200159f9181019062002e81565b60015b620015b15762000a2362000a0f565b919050565b620015c062001a22565b620015cd83606d62002132565b606e80546001600160a01b0319166001600160a01b038416179055606f62000a09828262003130565b6200160062001a22565b6200160b8262001c34565b6001600160a01b0382165f81815260766020908152604091829020805460ff191685151590811790915591519182527ff2f89bd165e4660146076429a2c973427e164ef352cbfbfaad91bfc357cd082a910160405180910390a25050565b6200167362001a22565b606e80546001600160a01b0319166001600160a01b038416179055606f620013d2828262003130565b620016a662001a22565b620016b383607062002132565b607180546001600160a01b0319166001600160a01b038416179055607262000a09828262003130565b620016e662001a22565b606a80546001600160a01b0319166001600160a01b0392909216919091179055565b6200171262001a22565b6001600160a01b0382165f81815260666020908152604091829020849055815192835282018390527fa1ee82e4f177a8017f33ddddac05b7ceab1de9d46f7195e15e8aa2e8b88f3b1c910162000d38565b606d545f90620017b15760405162461bcd60e51b815260206004820152601860248201527710dbdb5b5d5b9a5d1e48199858d95d1cc81b9bdd081cd95d60421b604482015260640162000a68565b607054620017fc5760405162461bcd60e51b815260206004820152601760248201527614dd1c985d1959de48199858d95d1cc81b9bdd081cd95d604a1b604482015260640162000a68565b6200180782620021b8565b92915050565b5f54610100900460ff16158080156200182c57505f54600160ff909116105b806200185057506200183e3062001c25565b1580156200185057505f5460ff166001145b6200186f5760405162461bcd60e51b815260040162000a689062002fe5565b5f805460ff19166001179055801562001891575f805461ff0019166101001790555b6200189c82620020e1565b801562000d91575f805461ff0019169055604051600181525f80516020620038d38339815191529060200162000d38565b620018d762001a22565b620018e28162001c34565b607580546001600160a01b0319166001600160a01b0383161790556040517f44d385e9acedc4b8af2ab3c01c965787144ffb322dd69598e19031baa923f6bf9062000f859083906200275c565b6200193962001a22565b6001600160a01b038116620019a05760405162461bcd60e51b815260206004820152602660248201527f4f776e61626c653a206e6577206f776e657220697320746865207a65726f206160448201526564647265737360d01b606482015260840162000a68565b6200118081620020e1565b620019b562001a22565b620019c08162001c34565b6001600160a01b0381165f81815260736020526040808220805460ff19169055517f3475b9891ecf29e996feed01eeb42a860ec225283a439d214ffaeac5e006be7d9190a250565b62001a1262001a22565b62000a0960708585858562001a85565b3362001a2d62001516565b6001600160a01b031614620011935760405162461bcd60e51b815260206004820181905260248201527f4f776e61626c653a2063616c6c6572206973206e6f7420746865206f776e6572604482015260640162000a68565b845484111562001ace5760405162461bcd60e51b81526020600482015260136024820152720d2dcecc2d8d2c840ccc2c6cae840d2dcc8caf606b1b604482015260640162000a68565b8454840362001ae357845460010185555f8590525b5f85858154811062001af95762001af962002f5b565b5f918252602090912060029091020180546001600160a01b0386166001600160a01b0319821681178355919250849183916001600160a81b03191617600160a01b83600381111562001b4f5762001b4f620028c9565b02179055505b60018101541562001ba8578060010180548062001b765762001b76620031f8565b5f8281526020902060085f1990920191820401805463ffffffff600460078516026101000a0219169055905562001b55565b5f5b825181101562001c1c578160010183828151811062001bcd5762001bcd62002f5b565b6020908102919091018101518254600180820185555f948552929093206008840401805463ffffffff60079095166004026101000a948502191660e09290921c93909302179091550162001baa565b50505050505050565b6001600160a01b03163b151590565b6001600160a01b03811662001180576040516303988b8160e61b815260040160405180910390fd5b80546060905f906001600160401b0381111562001c7d5762001c7d6200259b565b60405190808252806020026020018201604052801562001ccb57816020015b60408051606080820183525f80835260208301529181019190915281526020019060019003908162001c9c5790505b5090505f5b835481101562001ef55783818154811062001cef5762001cef62002f5b565b5f91825260209091206002909102015482516001600160a01b039091169083908390811062001d225762001d2262002f5b565b60209081029190910101516001600160a01b039091169052835484908290811062001d515762001d5162002f5b565b905f5260205f2090600202015f0160149054906101000a900460ff1682828151811062001d825762001d8262002f5b565b602002602001015160200190600381111562001da25762001da2620028c9565b9081600381111562001db85762001db8620028c9565b815250505f84828154811062001dd25762001dd262002f5b565b905f5260205f209060020201600101905080805490506001600160401b0381111562001e025762001e026200259b565b60405190808252806020026020018201604052801562001e2c578160200160208202803683370190505b5083838151811062001e425762001e4262002f5b565b6020026020010151604001819052505f5b815481101562001eea5781818154811062001e725762001e7262002f5b565b905f5260205f2090600891828204019190066004029054906101000a900460e01b84848151811062001ea85762001ea862002f5b565b602002602001015160400151828151811062001ec85762001ec862002f5b565b6001600160e01b03199092166020928302919091019091015260010162001e53565b505060010162001cd0565b5092915050565b5f80516020620038b3833981519152546001600160a01b031690565b3362001f2362001516565b6001600160a01b03161462001180573362001f3d62001516565b60405163163678e960e01b81526001600160a01b0392831660048201529116602482015260440162000a68565b7f4910fdfa16fed3260ed0e7147f7cc6da11a60208b5b9406d12a635614ffd91435460ff161562001fa057620013d283620022f6565b826001600160a01b03166352d1902d6040518163ffffffff1660e01b8152600401602060405180830381865afa92505050801562001ffd575060408051601f3d908101601f1916820190925262001ffa918101906200320c565b60015b620020625760405162461bcd60e51b815260206004820152602e60248201527f45524331393637557067726164653a206e657720696d706c656d656e7461746960448201526d6f6e206973206e6f74205555505360901b606482015260840162000a68565b5f80516020620038b38339815191528114620020d35760405162461bcd60e51b815260206004820152602960248201527f45524331393637557067726164653a20756e737570706f727465642070726f786044820152681a58589b195555525160ba1b606482015260840162000a68565b50620013d283838362002394565b603380546001600160a01b038381166001600160a01b0319831681179093556040519116919082907f8be0079c531659141344cd1fd0a4f28419497f9722a3daafe3b4186f6b6457e0905f90a35050565b5f81555f5b8251811015620013d257620021af82828584815181106200215c576200215c62002f5b565b60200260200101515f01518685815181106200217c576200217c62002f5b565b6020026020010151602001518786815181106200219d576200219d62002f5b565b60200260200101516040015162001a85565b60010162002137565b606580545f9182620021ca8362003224565b9091555060808301523060a0830152606854606954606a545f926001600160a01b0390811692633419635560e01b92879291821691166200220a62000a0f565b6040516024016200221f949392919062003269565b60408051601f198184030181529181526020820180516001600160e01b03166001600160e01b03199094169390931790925290516200225e906200255c565b6200226b929190620033a7565b604051809103905ff08015801562002285573d5f803e3d5ffd5b506001600160a01b0381165f90815260666020526040908190206001908101805460ff1916909117905551909150819081907fb4108a188495a1a681cdc0750af164011025a1773b41e93ff3e628adc037dc2990620022e69083906200275c565b60405180910390a1949350505050565b620023018162001c25565b620023655760405162461bcd60e51b815260206004820152602d60248201527f455243313936373a206e657720696d706c656d656e746174696f6e206973206e60448201526c1bdd08184818dbdb9d1c9858dd609a1b606482015260840162000a68565b5f80516020620038b383398151915280546001600160a01b0319166001600160a01b0392909216919091179055565b6200239f83620023be565b5f82511180620023ac5750805b15620013d25762000a098383620023ff565b620023c981620022f6565b6040516001600160a01b038216907fbc7cd75a20ee27fd9adebab32041f755214dbc6bffa90cc0225b39da2e5c2d3b905f90a250565b6060620024278383604051806060016040528060278152602001620038f3602791396200242e565b9392505050565b60605f80856001600160a01b0316856040516200244c919062002e9f565b5f60405180830381855af49150503d805f811462002486576040519150601f19603f3d011682016040523d82523d5f602084013e6200248b565b606091505b50915091506200249e86838387620024a8565b9695505050505050565b606083156200251b5782515f036200251357620024c58562001c25565b620025135760405162461bcd60e51b815260206004820152601d60248201527f416464726573733a2063616c6c20746f206e6f6e2d636f6e7472616374000000604482015260640162000a68565b508162002527565b6200252783836200252f565b949350505050565b815115620025405781518083602001fd5b8060405162461bcd60e51b815260040162000a68919062002e6d565b6104a680620033cd83390190565b6001600160a01b038116811462001180575f80fd5b8035620015b1816200256a565b803560048110620015b1575f80fd5b634e487b7160e01b5f52604160045260245ffd5b604051606081016001600160401b0381118282101715620025d457620025d46200259b565b60405290565b60405161018081016001600160401b0381118282101715620025d457620025d46200259b565b604051601f8201601f191681016001600160401b03811182821017156200262b576200262b6200259b565b604052919050565b5f6001600160401b038211156200264e576200264e6200259b565b5060051b60200190565b5f82601f83011262002668575f80fd5b81356020620026816200267b8362002633565b62002600565b8083825260208201915060208460051b870101935086841115620026a3575f80fd5b602086015b84811015620026d75780356001600160e01b031981168114620026c9575f80fd5b8352918301918301620026a8565b509695505050505050565b5f805f8060808587031215620026f6575f80fd5b8435935060208501356200270a816200256a565b92506200271a604086016200258c565b915060608501356001600160401b0381111562002735575f80fd5b620027438782880162002658565b91505092959194509250565b6001600160a01b03169052565b6001600160a01b0391909116815260200190565b5f6020828403121562002781575f80fd5b813562002427816200256a565b80358015158114620015b1575f80fd5b5f8060408385031215620027b0575f80fd5b82356001600160401b03811115620027c6575f80fd5b8301601f81018513620027d7575f80fd5b80356020620027ea6200267b8362002633565b82815260059290921b8301810191818101908884111562002809575f80fd5b938201935b838510156200283457843562002824816200256a565b825293820193908201906200280e565b95506200284590508682016200278e565b93505050509250929050565b5f805f805f60a0868803121562002866575f80fd5b853562002873816200256a565b9450602086013562002885816200256a565b9350604086013562002897816200256a565b92506060860135620028a9816200256a565b91506080860135620028bb816200256a565b809150509295509295909350565b634e487b7160e01b5f52602160045260245ffd5b5f5b83811015620028f9578181015183820152602001620028df565b50505f910152565b5f81518084526200291a816020860160208601620028dd565b601f01601f19169290920160200192915050565b5f6060808301606084528087518083526080925060808601915060808160051b8701016020808b015f5b8481101562002a0257898403607f19018652815180516001600160a01b03168552838101518986019060048082106200299e57634e487b7160e01b5f526021815260245ffd5b50868601526040918201519186018a9052815190819052908401905f90898701905b80831015620029ec5783516001600160e01b0319168252928601926001929092019190860190620029c0565b5097850197955050509082019060010162002958565b505062002a128189018b6200274f565b50868103604088015262002a27818962002901565b9a9950505050505050505050565b5f82601f83011262002a45575f80fd5b81356001600160401b0381111562002a615762002a616200259b565b62002a76601f8201601f191660200162002600565b81815284602083860101111562002a8b575f80fd5b816020850160208301375f918101602001919091529392505050565b5f806040838503121562002ab9575f80fd5b823562002ac6816200256a565b915060208301356001600160401b0381111562002ae1575f80fd5b62002aef8582860162002a35565b9150509250929050565b5f806040838503121562002b0b575f80fd5b823562002b18816200256a565b915062002b28602084016200278e565b90509250929050565b5f805f6060848603121562002b44575f80fd5b83356001600160401b038082111562002b5b575f80fd5b818601915086601f83011262002b6f575f80fd5b8135602062002b826200267b8362002633565b82815260059290921b8401810191818101908a84111562002ba1575f80fd5b8286015b8481101562002c375780358681111562002bbd575f80fd5b87016060818e03601f1901121562002bd3575f80fd5b62002bdd620025af565b8582013562002bec816200256a565b815262002bfc604083016200258c565b8682015260608201358881111562002c12575f80fd5b62002c228f888386010162002658565b60408301525084525091830191830162002ba5565b50975062002c4990508882016200257f565b95505050604086013591508082111562002c61575f80fd5b5062002c708682870162002a35565b9150509250925092565b5f806040838503121562002c8c575f80fd5b823562002c99816200256a565b946020939093013593505050565b5f6040828403121562002cb8575f80fd5b604080519081016001600160401b03808211838310171562002cde5762002cde6200259b565b8160405282935084358352602085013591508082111562002cfd575f80fd5b5062002d0c8582860162002a35565b6020830152505092915050565b5f6020828403121562002d2a575f80fd5b81356001600160401b038082111562002d41575f80fd5b90830190610180828603121562002d56575f80fd5b62002d60620025da565b62002d6b836200257f565b815262002d7b602084016200257f565b602082015260408301356040820152606083013560608201526080830135608082015262002dac60a084016200257f565b60a082015262002dbf60c084016200257f565b60c082015260e08301358281111562002dd6575f80fd5b62002de48782860162002ca7565b60e08301525061010062002dfa8185016200257f565b90820152610120838101358381111562002e12575f80fd5b62002e208882870162002a35565b82840152505061014062002e368185016200278e565b90820152610160838101358381111562002e4e575f80fd5b62002e5c8882870162002a35565b918301919091525095945050505050565b602081525f62002427602083018462002901565b5f6020828403121562002e92575f80fd5b815162002427816200256a565b5f825162002eb2818460208701620028dd565b9190910192915050565b5f602080838503121562002ece575f80fd5b82516001600160401b0381111562002ee4575f80fd5b8301601f8101851362002ef5575f80fd5b805162002f066200267b8262002633565b81815260059190911b8201830190838101908783111562002f25575f80fd5b928401925b8284101562002f5057835162002f40816200256a565b8252928401929084019062002f2a565b979650505050505050565b634e487b7160e01b5f52603260045260245ffd5b5f815180845260208085019450602084015f5b8381101562002fa95781516001600160a01b03168752958201959082019060010162002f82565b509495945050505050565b604081525f62002fc8604083018562002f6f565b828103602084015262002fdc818562002f6f565b95945050505050565b6020808252602e908201527f496e697469616c697a61626c653a20636f6e747261637420697320616c72656160408201526d191e481a5b9a5d1a585b1a5e995960921b606082015260800190565b600181811c908216806200304857607f821691505b6020821081036200306757634e487b7160e01b5f52602260045260245ffd5b50919050565b6020808252602c908201525f805160206200387383398151915260408201526b19195b1959d85d1958d85b1b60a21b606082015260800190565b6020808252602c908201525f805160206200387383398151915260408201526b6163746976652070726f787960a01b606082015260800190565b601f821115620013d257805f5260205f20601f840160051c81016020851015620031085750805b601f840160051c820191505b8181101562003129575f815560010162003114565b5050505050565b81516001600160401b038111156200314c576200314c6200259b565b62003164816200315d845462003033565b84620030e1565b602080601f8311600181146200319a575f8415620031825750858301515b5f19600386901b1c1916600185901b17855562000eef565b5f85815260208120601f198616915b82811015620031ca57888601518255948401946001909101908401620031a9565b5085821015620031e857878501515f19600388901b60f8161c191681555b5050505050600190811b01905550565b634e487b7160e01b5f52603160045260245ffd5b5f602082840312156200321d575f80fd5b5051919050565b5f600182016200324257634e487b7160e01b5f52601160045260245ffd5b5060010190565b805182525f60208201516040602085015262002527604085018262002901565b608081526200327d6080820186516200274f565b5f60208601516200329260a08401826200274f565b50604086015160c0830152606086015160e08301526080860151610100818185015260a08801519150610120620032cc818601846200274f565b60c08901519250610140620032e4818701856200274f565b60e08a0151935061018061016081818901526200330661020089018762003249565b948c01519495506200331b888301866200274f565b838c01519450607f19935083888703016101a08901526200333d868662002901565b9550828c01519450620033556101c089018615159052565b808c0151945050505080858403016101e08601525062003376828262002901565b925050506200338960208301866200274f565b6200339860408301856200274f565b62002fdc60608301846200274f565b6001600160a01b03831681526040602082018190525f9062002527908301846200290156fe60806040526040516104a63803806104a6833981016040819052610022916102dd565b61002d82825f610034565b50506103f2565b61003d8361005f565b5f825111806100495750805b1561005a57610058838361009e565b505b505050565b610068816100ca565b6040516001600160a01b038216907fbc7cd75a20ee27fd9adebab32041f755214dbc6bffa90cc0225b39da2e5c2d3b905f90a250565b60606100c3838360405180606001604052806027815260200161047f6027913961017b565b9392505050565b6100d3816101f0565b61013a5760405162461bcd60e51b815260206004820152602d60248201527f455243313936373a206e657720696d706c656d656e746174696f6e206973206e60448201526c1bdd08184818dbdb9d1c9858dd609a1b60648201526084015b60405180910390fd5b7f360894a13ba1a3210667c828492db98dca3e2076cc3735a920a3ca505d382bbc80546001600160a01b0319166001600160a01b0392909216919091179055565b60605f80856001600160a01b03168560405161019791906103a5565b5f60405180830381855af49150503d805f81146101cf576040519150601f19603f3d011682016040523d82523d5f602084013e6101d4565b606091505b5090925090506101e6868383876101ff565b9695505050505050565b6001600160a01b03163b151590565b6060831561026b5782515f0361026457610218856101f0565b6102645760405162461bcd60e51b815260206004820152601d60248201527f416464726573733a2063616c6c20746f206e6f6e2d636f6e74726163740000006044820152606401610131565b5081610275565b610275838361027d565b949350505050565b81511561028d5781518083602001fd5b8060405162461bcd60e51b815260040161013191906103c0565b634e487b7160e01b5f52604160045260245ffd5b5f5b838110156102d55781810151838201526020016102bd565b50505f910152565b5f80604083850312156102ee575f80fd5b82516001600160a01b0381168114610304575f80fd5b60208401519092506001600160401b0380821115610320575f80fd5b818501915085601f830112610333575f80fd5b815181811115610345576103456102a7565b604051601f8201601f19908116603f0116810190838211818310171561036d5761036d6102a7565b81604052828152886020848701011115610385575f80fd5b6103968360208301602088016102bb565b80955050505050509250929050565b5f82516103b68184602087016102bb565b9190910192915050565b602081525f82518060208401526103de8160408501602087016102bb565b601f01601f19169190910160400192915050565b6081806103fe5f395ff3fe608060405236601057600e6013565b005b600e5b601f601b6021565b6057565b565b5f60527f360894a13ba1a3210667c828492db98dca3e2076cc3735a920a3ca505d382bbc546001600160a01b031690565b905090565b365f80375f80365f845af43d5f803e8080156070573d5ff35b3d5ffdfea164736f6c6343000817000a416464726573733a206c6f772d6c6576656c2064656c65676174652063616c6c206661696c656446756e6374696f6e206d7573742062652063616c6c6564207468726f7567682099650b9d916775b3b2e44f9aae79e2813e1dbfea1e69425eeb145566ab71d209360894a13ba1a3210667c828492db98dca3e2076cc3735a920a3ca505d382bbc7f26b83ff96e1f2b6a682f133852f6798a09c465da95921460cefb3847402498416464726573733a206c6f772d6c6576656c2064656c65676174652063616c6c206661696c6564bdf37c276f641820b141429d245add2552b4118c0866e5a78638e3de5ef18d9de50e6cedeb6a710820f2b7f26dc2d904a9b3ef0b2c087cf8ca10697647951d7da164736f6c6343000817000a","linkReferences":{}},"methodIdentifiers":{"VERSION()":"ffa1ad74","clearCommunityFacetCuts()":"48b4c9d1","clearStrategyFacetCuts()":"6667dfac","collateralVaultTemplate()":"77122d56","createRegistry((address,address,uint256,uint256,uint256,address,address,(uint256,string),address,string,bool,string))":"beb331a3","gardensFeeReceiver()":"b8bed901","getCommunityFacets()":"1f3854b4","getCommunityValidity(address)":"f5016b5e","getGardensFeeReceiver()":"987435be","getProtocolFee(address)":"0a992e0c","getStrategyFacets()":"52a0c203","getStreamingEscrowFactory()":"7f7960f3","globalPauseController()":"8c68f2a9","initialize(address)":"c4d66de8","initialize(address,address,address,address,address)":"1459457a","isContractRegistered(address)":"f9f6b49b","isStreamRebalanceCallerAllowed(address)":"e1f3ca04","keepersAddresses(address)":"1f4b502e","nonce()":"affed0e0","owner()":"8da5cb5b","protopiansAddresses(address)":"083e8f97","proxiableUUID()":"52d1902d","proxyOwner()":"025313a2","registerContract(address)":"22a5dde4","registeredContracts(address)":"a06617cd","registryCommunityTemplate()":"02c1d0b1","renounceOwnership()":"715018a6","setCollateralVaultTemplate(address)":"b0d3713a","setCommunityFacetInit(address,bytes)":"a3f17ca1","setCommunityFacets((address,uint8,bytes4[])[],address,bytes)":"90147c6b","setCommunityValidity(address,bool)":"5a2c8ace","setGlobalPauseController(address)":"cd5a8349","setKeeperAddress(address[],bool)":"1425d1ec","setProtocolFee(address,uint256)":"b5b3ca2c","setProtopianAddress(address[],bool)":"8d3ad8a4","setReceiverAddress(address)":"8279c7db","setRegistryCommunityTemplate(address)":"5decae02","setStrategyFacetInit(address,bytes)":"5c518327","setStrategyFacets((address,uint8,bytes4[])[],address,bytes)":"a6a85d88","setStrategyTemplate(address)":"1b71f0e4","setStreamRebalanceCaller(address,bool)":"96cfd090","setStreamingEscrowFactory(address)":"1d413a8a","strategyTemplate()":"5c94e4d2","streamRebalanceCallerAllowlist(address)":"ea8c813f","streamingEscrowFactory()":"1d12d3c7","transferOwnership(address)":"f2fde38b","unregisterContract(address)":"fac2c621","upgradeTo(address)":"3659cfe6","upgradeToAndCall(address,bytes)":"4f1ef286","upsertCommunityFacetCut(uint256,address,uint8,bytes4[])":"020946d2","upsertStrategyFacetCut(uint256,address,uint8,bytes4[])":"ff4a14ff"},"storageLayout":{"storage":[{"astId":52241,"contract":"pkg/contracts/src/RegistryFactory/RegistryFactory.sol:RegistryFactory","label":"_initialized","offset":0,"slot":"0","type":"t_uint8"},{"astId":52244,"contract":"pkg/contracts/src/RegistryFactory/RegistryFactory.sol:RegistryFactory","label":"_initializing","offset":1,"slot":"0","type":"t_bool"},{"astId":52946,"contract":"pkg/contracts/src/RegistryFactory/RegistryFactory.sol:RegistryFactory","label":"__gap","offset":0,"slot":"1","type":"t_array(t_uint256)50_storage"},{"astId":52033,"contract":"pkg/contracts/src/RegistryFactory/RegistryFactory.sol:RegistryFactory","label":"_owner","offset":0,"slot":"51","type":"t_address"},{"astId":52153,"contract":"pkg/contracts/src/RegistryFactory/RegistryFactory.sol:RegistryFactory","label":"__gap","offset":0,"slot":"52","type":"t_array(t_uint256)49_storage"},{"astId":108797,"contract":"pkg/contracts/src/RegistryFactory/RegistryFactory.sol:RegistryFactory","label":"nonce","offset":0,"slot":"101","type":"t_uint256"},{"astId":108802,"contract":"pkg/contracts/src/RegistryFactory/RegistryFactory.sol:RegistryFactory","label":"communityToInfo","offset":0,"slot":"102","type":"t_mapping(t_address,t_struct(CommunityInfo)108789_storage)"},{"astId":108804,"contract":"pkg/contracts/src/RegistryFactory/RegistryFactory.sol:RegistryFactory","label":"gardensFeeReceiver","offset":0,"slot":"103","type":"t_address"},{"astId":108806,"contract":"pkg/contracts/src/RegistryFactory/RegistryFactory.sol:RegistryFactory","label":"registryCommunityTemplate","offset":0,"slot":"104","type":"t_address"},{"astId":108808,"contract":"pkg/contracts/src/RegistryFactory/RegistryFactory.sol:RegistryFactory","label":"strategyTemplate","offset":0,"slot":"105","type":"t_address"},{"astId":108810,"contract":"pkg/contracts/src/RegistryFactory/RegistryFactory.sol:RegistryFactory","label":"collateralVaultTemplate","offset":0,"slot":"106","type":"t_address"},{"astId":108814,"contract":"pkg/contracts/src/RegistryFactory/RegistryFactory.sol:RegistryFactory","label":"protopiansAddresses","offset":0,"slot":"107","type":"t_mapping(t_address,t_bool)"},{"astId":108818,"contract":"pkg/contracts/src/RegistryFactory/RegistryFactory.sol:RegistryFactory","label":"keepersAddresses","offset":0,"slot":"108","type":"t_mapping(t_address,t_bool)"},{"astId":108822,"contract":"pkg/contracts/src/RegistryFactory/RegistryFactory.sol:RegistryFactory","label":"communityFacetCuts","offset":0,"slot":"109","type":"t_array(t_struct(FacetCut)110952_storage)dyn_storage"},{"astId":108824,"contract":"pkg/contracts/src/RegistryFactory/RegistryFactory.sol:RegistryFactory","label":"communityInit","offset":0,"slot":"110","type":"t_address"},{"astId":108826,"contract":"pkg/contracts/src/RegistryFactory/RegistryFactory.sol:RegistryFactory","label":"communityInitCalldata","offset":0,"slot":"111","type":"t_bytes_storage"},{"astId":108830,"contract":"pkg/contracts/src/RegistryFactory/RegistryFactory.sol:RegistryFactory","label":"strategyFacetCuts","offset":0,"slot":"112","type":"t_array(t_struct(FacetCut)110952_storage)dyn_storage"},{"astId":108832,"contract":"pkg/contracts/src/RegistryFactory/RegistryFactory.sol:RegistryFactory","label":"strategyInit","offset":0,"slot":"113","type":"t_address"},{"astId":108834,"contract":"pkg/contracts/src/RegistryFactory/RegistryFactory.sol:RegistryFactory","label":"strategyInitCalldata","offset":0,"slot":"114","type":"t_bytes_storage"},{"astId":108838,"contract":"pkg/contracts/src/RegistryFactory/RegistryFactory.sol:RegistryFactory","label":"registeredContracts","offset":0,"slot":"115","type":"t_mapping(t_address,t_bool)"},{"astId":108840,"contract":"pkg/contracts/src/RegistryFactory/RegistryFactory.sol:RegistryFactory","label":"streamingEscrowFactory","offset":0,"slot":"116","type":"t_address"},{"astId":108842,"contract":"pkg/contracts/src/RegistryFactory/RegistryFactory.sol:RegistryFactory","label":"globalPauseController","offset":0,"slot":"117","type":"t_address"},{"astId":108846,"contract":"pkg/contracts/src/RegistryFactory/RegistryFactory.sol:RegistryFactory","label":"streamRebalanceCallerAllowlist","offset":0,"slot":"118","type":"t_mapping(t_address,t_bool)"},{"astId":108850,"contract":"pkg/contracts/src/RegistryFactory/RegistryFactory.sol:RegistryFactory","label":"__gap","offset":0,"slot":"119","type":"t_array(t_uint256)41_storage"}],"types":{"t_address":{"encoding":"inplace","label":"address","numberOfBytes":"20"},"t_array(t_bytes4)dyn_storage":{"encoding":"dynamic_array","label":"bytes4[]","numberOfBytes":"32","base":"t_bytes4"},"t_array(t_struct(FacetCut)110952_storage)dyn_storage":{"encoding":"dynamic_array","label":"struct IDiamond.FacetCut[]","numberOfBytes":"32","base":"t_struct(FacetCut)110952_storage"},"t_array(t_uint256)41_storage":{"encoding":"inplace","label":"uint256[41]","numberOfBytes":"1312","base":"t_uint256"},"t_array(t_uint256)49_storage":{"encoding":"inplace","label":"uint256[49]","numberOfBytes":"1568","base":"t_uint256"},"t_array(t_uint256)50_storage":{"encoding":"inplace","label":"uint256[50]","numberOfBytes":"1600","base":"t_uint256"},"t_bool":{"encoding":"inplace","label":"bool","numberOfBytes":"1"},"t_bytes4":{"encoding":"inplace","label":"bytes4","numberOfBytes":"4"},"t_bytes_storage":{"encoding":"bytes","label":"bytes","numberOfBytes":"32"},"t_enum(FacetCutAction)110943":{"encoding":"inplace","label":"enum IDiamond.FacetCutAction","numberOfBytes":"1"},"t_mapping(t_address,t_bool)":{"encoding":"mapping","key":"t_address","label":"mapping(address => bool)","numberOfBytes":"32","value":"t_bool"},"t_mapping(t_address,t_struct(CommunityInfo)108789_storage)":{"encoding":"mapping","key":"t_address","label":"mapping(address => struct CommunityInfo)","numberOfBytes":"32","value":"t_struct(CommunityInfo)108789_storage"},"t_struct(CommunityInfo)108789_storage":{"encoding":"inplace","label":"struct CommunityInfo","numberOfBytes":"64","members":[{"astId":108786,"contract":"pkg/contracts/src/RegistryFactory/RegistryFactory.sol:RegistryFactory","label":"fee","offset":0,"slot":"0","type":"t_uint256"},{"astId":108788,"contract":"pkg/contracts/src/RegistryFactory/RegistryFactory.sol:RegistryFactory","label":"valid","offset":0,"slot":"1","type":"t_bool"}]},"t_struct(FacetCut)110952_storage":{"encoding":"inplace","label":"struct IDiamond.FacetCut","numberOfBytes":"64","members":[{"astId":110945,"contract":"pkg/contracts/src/RegistryFactory/RegistryFactory.sol:RegistryFactory","label":"facetAddress","offset":0,"slot":"0","type":"t_address"},{"astId":110948,"contract":"pkg/contracts/src/RegistryFactory/RegistryFactory.sol:RegistryFactory","label":"action","offset":20,"slot":"0","type":"t_enum(FacetCutAction)110943"},{"astId":110951,"contract":"pkg/contracts/src/RegistryFactory/RegistryFactory.sol:RegistryFactory","label":"functionSelectors","offset":0,"slot":"1","type":"t_array(t_bytes4)dyn_storage"}]},"t_uint256":{"encoding":"inplace","label":"uint256","numberOfBytes":"32"},"t_uint8":{"encoding":"inplace","label":"uint8","numberOfBytes":"1"}}},"id":179}