{"abi":[{"type":"fallback","stateMutability":"payable"},{"type":"receive","stateMutability":"payable"},{"type":"function","name":"_owner","inputs":[],"outputs":[{"name":"","type":"address","internalType":"address"}],"stateMutability":"view"},{"type":"function","name":"collateralVaultTemplate","inputs":[],"outputs":[{"name":"","type":"address","internalType":"address"}],"stateMutability":"view"},{"type":"function","name":"diamondCut","inputs":[{"name":"_diamondCut","type":"tuple[]","internalType":"struct IDiamond.FacetCut[]","components":[{"name":"facetAddress","type":"address","internalType":"address"},{"name":"action","type":"uint8","internalType":"enum IDiamond.FacetCutAction"},{"name":"functionSelectors","type":"bytes4[]","internalType":"bytes4[]"}]},{"name":"_init","type":"address","internalType":"address"},{"name":"_calldata","type":"bytes","internalType":"bytes"}],"outputs":[],"stateMutability":"nonpayable"},{"type":"function","name":"gardensFeeReceiver","inputs":[],"outputs":[{"name":"","type":"address","internalType":"address"}],"stateMutability":"view"},{"type":"function","name":"initializeOwner","inputs":[{"name":"_owner","type":"address","internalType":"address"}],"outputs":[],"stateMutability":"nonpayable"},{"type":"function","name":"initializeOwnerCut","inputs":[{"name":"_owner","type":"address","internalType":"address"},{"name":"_diamondCut","type":"tuple[]","internalType":"struct IDiamond.FacetCut[]","components":[{"name":"facetAddress","type":"address","internalType":"address"},{"name":"action","type":"uint8","internalType":"enum IDiamond.FacetCutAction"},{"name":"functionSelectors","type":"bytes4[]","internalType":"bytes4[]"}]},{"name":"_init","type":"address","internalType":"address"},{"name":"_calldata","type":"bytes","internalType":"bytes"}],"outputs":[],"stateMutability":"nonpayable"},{"type":"function","name":"nonce","inputs":[],"outputs":[{"name":"","type":"uint256","internalType":"uint256"}],"stateMutability":"view"},{"type":"function","name":"proxiableUUID","inputs":[],"outputs":[{"name":"","type":"bytes32","internalType":"bytes32"}],"stateMutability":"view"},{"type":"function","name":"registryCommunityTemplate","inputs":[],"outputs":[{"name":"","type":"address","internalType":"address"}],"stateMutability":"view"},{"type":"function","name":"strategyTemplate","inputs":[],"outputs":[{"name":"","type":"address","internalType":"address"}],"stateMutability":"view"},{"type":"event","name":"DiamondCut","inputs":[{"name":"_diamondCut","type":"tuple[]","indexed":false,"internalType":"struct IDiamond.FacetCut[]","components":[{"name":"facetAddress","type":"address","internalType":"address"},{"name":"action","type":"uint8","internalType":"enum IDiamond.FacetCutAction"},{"name":"functionSelectors","type":"bytes4[]","internalType":"bytes4[]"}]},{"name":"_init","type":"address","indexed":false,"internalType":"address"},{"name":"_calldata","type":"bytes","indexed":false,"internalType":"bytes"}],"anonymous":false},{"type":"error","name":"CannotAddFunctionToDiamondThatAlreadyExists","inputs":[{"name":"_selector","type":"bytes4","internalType":"bytes4"}]},{"type":"error","name":"CannotAddSelectorsToZeroAddress","inputs":[{"name":"_selectors","type":"bytes4[]","internalType":"bytes4[]"}]},{"type":"error","name":"CannotRemoveFunctionThatDoesNotExist","inputs":[{"name":"_selector","type":"bytes4","internalType":"bytes4"}]},{"type":"error","name":"CannotRemoveImmutableFunction","inputs":[{"name":"_selector","type":"bytes4","internalType":"bytes4"}]},{"type":"error","name":"CannotReplaceFunctionThatDoesNotExists","inputs":[{"name":"_selector","type":"bytes4","internalType":"bytes4"}]},{"type":"error","name":"CannotReplaceFunctionWithTheSameFunctionFromTheSameFacet","inputs":[{"name":"_selector","type":"bytes4","internalType":"bytes4"}]},{"type":"error","name":"CannotReplaceFunctionsFromFacetWithZeroAddress","inputs":[{"name":"_selectors","type":"bytes4[]","internalType":"bytes4[]"}]},{"type":"error","name":"CannotReplaceImmutableFunction","inputs":[{"name":"_selector","type":"bytes4","internalType":"bytes4"}]},{"type":"error","name":"DiamondAlreadyInitialized","inputs":[]},{"type":"error","name":"FunctionNotFound","inputs":[{"name":"_functionSelector","type":"bytes4","internalType":"bytes4"}]},{"type":"error","name":"IncorrectFacetCutAction","inputs":[{"name":"_action","type":"uint8","internalType":"uint8"}]},{"type":"error","name":"InitializationFunctionReverted","inputs":[{"name":"_initializationContractAddress","type":"address","internalType":"address"},{"name":"_calldata","type":"bytes","internalType":"bytes"}]},{"type":"error","name":"NoBytecodeAtAddress","inputs":[{"name":"_contractAddress","type":"address","internalType":"address"},{"name":"_message","type":"string","internalType":"string"}]},{"type":"error","name":"NoSelectorsProvidedForFacetForCut","inputs":[{"name":"_facetAddress","type":"address","internalType":"address"}]},{"type":"error","name":"NotContractOwner","inputs":[{"name":"_user","type":"address","internalType":"address"},{"name":"_contractOwner","type":"address","internalType":"address"}]},{"type":"error","name":"RemoveFacetAddressMustBeZeroAddress","inputs":[{"name":"_facetAddress","type":"address","internalType":"address"}]}],"bytecode":{"object":"0x608060405234801561001057600080fd5b50611427806100206000396000f3fe6080604052600436106100855760003560e01c806302c1d0b11461011c5780631f931c1c1461015257806352d1902d146101725780635c94e4d2146101af57806377122d56146101cf5780638c5f36bb146101ef578063944ab9ed1461020f578063affed0e01461022f578063b2bdfa7b14610245578063b8bed901146102655761008c565b3661008c57005b600080356001600160e01b031916815260008051602061135e833981519152602081905260409091205481906001600160a01b0316806100f6576000356001600160e01b031916604051630a82dd7360e31b81526004016100ed9190610c9d565b60405180910390fd5b3660008037600080366000845af43d6000803e808015610115573d6000f35b3d6000fd5b005b34801561012857600080fd5b5060685461013c906001600160a01b031681565b6040516101499190610cb2565b60405180910390f35b34801561015e57600080fd5b5061011a61016d366004610d2a565b610285565b34801561017e57600080fd5b507f360894a13ba1a3210667c828492db98dca3e2076cc3735a920a3ca505d382bbc5b604051908152602001610149565b3480156101bb57600080fd5b5060695461013c906001600160a01b031681565b3480156101db57600080fd5b50606a5461013c906001600160a01b031681565b3480156101fb57600080fd5b5061011a61020a366004610ddb565b6102de565b34801561021b57600080fd5b5061011a61022a366004610fd1565b610342565b34801561023b57600080fd5b506101a160655481565b34801561025157600080fd5b5060335461013c906001600160a01b031681565b34801561027157600080fd5b5060675461013c906001600160a01b031681565b61028d610354565b6102d761029a85876110c1565b8484848080601f0160208091040260200160405190810160405280939291908181526020018383808284376000920191909152506103ad92505050565b5050505050565b6040805160008082526020820190925261033f91839190610329565b604080516060808201835260008083526020830152918101919091528152602001906001900390816102fa5790505b5060408051600080825260208201909252610554565b50565b61034e84848484610554565b50505050565b61035c610596565b600301546001600160a01b031633146103ab5733610378610596565b60030154604051600162bed83560e01b031981526001600160a01b039283166004820152911660248201526044016100ed565b565b60005b83518110156105095760008482815181106103cd576103cd6110ce565b602002602001015160400151905060008583815181106103ef576103ef6110ce565b60200260200101516000015190508151600003610421578060405163e767f91f60e01b81526004016100ed9190610cb2565b6000868481518110610435576104356110ce565b602002602001015160200151905060006002811115610456576104566110e4565b816002811115610468576104686110e4565b0361047c5761047782846105a8565b6104f3565b6001816002811115610490576104906110e4565b0361049f57610477828461073f565b60028160028111156104b3576104b36110e4565b036104c25761047782846108ab565b8060028111156104d4576104d46110e4565b604051633ff4d20f60e11b815260ff90911660048201526024016100ed565b505050808061050190611110565b9150506103b0565b507f8faa70878671ccd212d20771b795c50af8fd3ff6cf27f4bde57e5d4de0aeb67383838360405161053d93929190611179565b60405180910390a161054f8282610b09565b505050565b61055c610bcf565b1561057a57604051639289b96160e01b815260040160405180910390fd5b61058384610bec565b61058b610c4c565b61034e8383836103ad565b60008051602061135e83398151915290565b6001600160a01b0382166105d157806040516302b8da0760e21b81526004016100ed9190611279565b60006105db610596565b905060008160010180549050905061060b8460405180606001604052806024815260200161137e60249139610c75565b60005b83518110156102d757600084828151811061062b5761062b6110ce565b6020908102919091018101516001600160e01b031981166000908152918690526040909120549091506001600160a01b0316801561067e578160405163ebbf5d0760e01b81526004016100ed9190610c9d565b6040805180820182526001600160a01b03808a16825261ffff80881660208085019182526001600160e01b0319881660009081528b8252958620945185549251909316600160a01b026001600160b01b0319909216929093169190911717909155600180880180549182018155835291206008820401805460e085901c60046007909416939093026101000a92830263ffffffff909302191691909117905583610727816112c7565b9450505050808061073790611110565b91505061060e565b6000610749610596565b90506001600160a01b038316610774578160405163cd98a96f60e01b81526004016100ed9190611279565b610796836040518060600160405280602881526020016113ca60289139610c75565b60005b825181101561034e5760008382815181106107b6576107b66110ce565b6020908102919091018101516001600160e01b031981166000908152918590526040909120549091506001600160a01b031630810361080a5781604051632901806d60e11b81526004016100ed9190610c9d565b856001600160a01b0316816001600160a01b03160361083e5781604051631ac6ce8d60e11b81526004016100ed9190610c9d565b6001600160a01b0381166108675781604051637479f93960e01b81526004016100ed9190610c9d565b506001600160e01b031916600090815260208390526040902080546001600160a01b0319166001600160a01b038616179055806108a381611110565b915050610799565b60006108b5610596565b60018101549091506001600160a01b038416156108e7578360405163d091bc8160e01b81526004016100ed9190610cb2565b60005b83518110156102d7576000848281518110610907576109076110ce565b6020908102919091018101516001600160e01b0319811660009081528683526040908190208151808301909252546001600160a01b038116808352600160a01b90910461ffff1693820193909352909250906109785781604051637a08a22d60e01b81526004016100ed9190610c9d565b8051306001600160a01b03909116036109a65781604051630df5fd6160e31b81526004016100ed9190610c9d565b836109b0816112e8565b94505083816020015161ffff1614610a8e5760008560010185815481106109d9576109d96110ce565b90600052602060002090600891828204019190066004029054906101000a900460e01b90508086600101836020015161ffff1681548110610a1c57610a1c6110ce565b600091825260208083206008830401805463ffffffff60079094166004026101000a938402191660e09590951c92909202939093179055838201516001600160e01b03199390931681529087905260409020805461ffff60a01b1916600160a01b61ffff909316929092029190911790555b84600101805480610aa157610aa16112ff565b60008281526020808220600860001990940193840401805463ffffffff600460078716026101000a0219169055919092556001600160e01b0319909316815291859052506040902080546001600160b01b031916905580610b0181611110565b9150506108ea565b6001600160a01b038216610b1b575050565b610b3d826040518060600160405280602881526020016113a260289139610c75565b600080836001600160a01b031683604051610b589190611315565b600060405180830381855af49150503d8060008114610b93576040519150601f19603f3d011682016040523d82523d6000602084013e610b98565b606091505b50915091508161034e57805115610bb25780518082602001fd5b838360405163192105d760e01b81526004016100ed929190611331565b6000610bd9610596565b60030154600160a01b900460ff16919050565b6000610bf6610596565b6003810180546001600160a01b038581166001600160a01b031983168117909355604051939450169182907f8be0079c531659141344cd1fd0a4f28419497f9722a3daafe3b4186f6b6457e090600090a3505050565b6001610c56610596565b6003018054911515600160a01b0260ff60a01b19909216919091179055565b813b600081900361054f57828260405163919834b960e01b81526004016100ed929190611331565b6001600160e01b031991909116815260200190565b6001600160a01b0391909116815260200190565b80356001600160a01b0381168114610cdd57600080fd5b919050565b60008083601f840112610cf457600080fd5b5081356001600160401b03811115610d0b57600080fd5b602083019150836020828501011115610d2357600080fd5b9250929050565b600080600080600060608688031215610d4257600080fd5b85356001600160401b0380821115610d5957600080fd5b818801915088601f830112610d6d57600080fd5b813581811115610d7c57600080fd5b8960208260051b8501011115610d9157600080fd5b60208301975080965050610da760208901610cc6565b94506040880135915080821115610dbd57600080fd5b50610dca88828901610ce2565b969995985093965092949392505050565b600060208284031215610ded57600080fd5b610df682610cc6565b9392505050565b634e487b7160e01b600052604160045260246000fd5b604051606081016001600160401b0381118282101715610e3557610e35610dfd565b60405290565b604051601f8201601f191681016001600160401b0381118282101715610e6357610e63610dfd565b604052919050565b60006001600160401b03821115610e8457610e84610dfd565b5060051b60200190565b6000610ea1610e9c84610e6b565b610e3b565b8381529050602080820190600585811b850187811115610ec057600080fd5b855b81811015610fc55780356001600160401b0380821115610ee25760008081fd5b908801906060828c031215610ef75760008081fd5b610eff610e13565b610f0883610cc6565b81528683013560038110610f1c5760008081fd5b8188015260408381013583811115610f345760008081fd5b8085019450508c601f850112610f4c57600092508283fd5b83359250610f5c610e9c84610e6b565b83815292871b8401880192888101908e851115610f795760008081fd5b948901945b84861015610fae5785356001600160e01b031981168114610f9f5760008081fd5b82529489019490890190610f7e565b918301919091525087525050938301938301610ec2565b50505050509392505050565b60008060008060808587031215610fe757600080fd5b610ff085610cc6565b93506020858101356001600160401b038082111561100d57600080fd5b818801915088601f83011261102157600080fd5b61102f898335858501610e8e565b955061103d60408901610cc6565b9450606088013591508082111561105357600080fd5b818801915088601f83011261106757600080fd5b81358181111561107957611079610dfd565b61108b601f8201601f19168501610e3b565b915080825289848285010111156110a157600080fd5b808484018584013760008482840101525080935050505092959194509250565b6000610df6368484610e8e565b634e487b7160e01b600052603260045260246000fd5b634e487b7160e01b600052602160045260246000fd5b634e487b7160e01b600052601160045260246000fd5b600060018201611122576111226110fa565b5060010190565b60005b8381101561114457818101518382015260200161112c565b50506000910152565b60008151808452611165816020860160208601611129565b601f01601f19169290920160200192915050565b60006060808301818452808751808352608092508286019150828160051b8701016020808b0160005b8481101561124957898403607f19018652815180516001600160a01b031685528381015189860190600381106111e857634e487b7160e01b600052602160045260246000fd5b868601526040918201519186018a905281519081905290840190600090898701905b808310156112345783516001600160e01b031916825292860192600192909201919086019061120a565b509785019795505050908201906001016111a2565b50506001600160a01b038a1690880152868103604088015261126b818961114d565b9a9950505050505050505050565b6020808252825182820181905260009190848201906040850190845b818110156112bb5783516001600160e01b03191683529284019291840191600101611295565b50909695505050505050565b600061ffff8083168181036112de576112de6110fa565b6001019392505050565b6000816112f7576112f76110fa565b506000190190565b634e487b7160e01b600052603160045260246000fd5b60008251611327818460208701611129565b9190910192915050565b6001600160a01b03831681526040602082018190526000906113559083018461114d565b94935050505056fec8fcad8db84d3cc18b4c41d551ea0ee66dd599cde068d998e57d5e09332c131c4c69624469616d6f6e644375743a2041646420666163657420686173206e6f20636f64654c69624469616d6f6e644375743a205f696e6974206164647265737320686173206e6f20636f64654c69624469616d6f6e644375743a205265706c61636520666163657420686173206e6f20636f6465a264697066735822122028e7ad1a1ae74ac08671447b9bbc8e05ed97465775661948daa0d86944e3f3c464736f6c63430008130033","linkReferences":{}},"methodIdentifiers":{"_owner()":"b2bdfa7b","collateralVaultTemplate()":"77122d56","diamondCut((address,uint8,bytes4[])[],address,bytes)":"1f931c1c","gardensFeeReceiver()":"b8bed901","initializeOwner(address)":"8c5f36bb","initializeOwnerCut(address,(address,uint8,bytes4[])[],address,bytes)":"944ab9ed","nonce()":"affed0e0","proxiableUUID()":"52d1902d","registryCommunityTemplate()":"02c1d0b1","strategyTemplate()":"5c94e4d2"},"storageLayout":{"storage":[{"astId":73497,"contract":"pkg/contracts/src/diamonds/RegistryFactoryDiamond.sol:RegistryFactoryDiamond","label":"_initialized","offset":0,"slot":"0","type":"t_uint8"},{"astId":73499,"contract":"pkg/contracts/src/diamonds/RegistryFactoryDiamond.sol:RegistryFactoryDiamond","label":"_initializing","offset":1,"slot":"0","type":"t_bool"},{"astId":73503,"contract":"pkg/contracts/src/diamonds/RegistryFactoryDiamond.sol:RegistryFactoryDiamond","label":"__gap1","offset":0,"slot":"1","type":"t_array(t_uint256)50_storage"},{"astId":73505,"contract":"pkg/contracts/src/diamonds/RegistryFactoryDiamond.sol:RegistryFactoryDiamond","label":"_owner","offset":0,"slot":"51","type":"t_address"},{"astId":73509,"contract":"pkg/contracts/src/diamonds/RegistryFactoryDiamond.sol:RegistryFactoryDiamond","label":"__gap2","offset":0,"slot":"52","type":"t_array(t_uint256)49_storage"},{"astId":73511,"contract":"pkg/contracts/src/diamonds/RegistryFactoryDiamond.sol:RegistryFactoryDiamond","label":"nonce","offset":0,"slot":"101","type":"t_uint256"},{"astId":73516,"contract":"pkg/contracts/src/diamonds/RegistryFactoryDiamond.sol:RegistryFactoryDiamond","label":"communityToInfo","offset":0,"slot":"102","type":"t_mapping(t_address,t_struct(CommunityInfo)73493_storage)"},{"astId":73518,"contract":"pkg/contracts/src/diamonds/RegistryFactoryDiamond.sol:RegistryFactoryDiamond","label":"gardensFeeReceiver","offset":0,"slot":"103","type":"t_address"},{"astId":73520,"contract":"pkg/contracts/src/diamonds/RegistryFactoryDiamond.sol:RegistryFactoryDiamond","label":"registryCommunityTemplate","offset":0,"slot":"104","type":"t_address"},{"astId":73522,"contract":"pkg/contracts/src/diamonds/RegistryFactoryDiamond.sol:RegistryFactoryDiamond","label":"strategyTemplate","offset":0,"slot":"105","type":"t_address"},{"astId":73524,"contract":"pkg/contracts/src/diamonds/RegistryFactoryDiamond.sol:RegistryFactoryDiamond","label":"collateralVaultTemplate","offset":0,"slot":"106","type":"t_address"},{"astId":73528,"contract":"pkg/contracts/src/diamonds/RegistryFactoryDiamond.sol:RegistryFactoryDiamond","label":"__gap3","offset":0,"slot":"107","type":"t_array(t_uint256)50_storage"}],"types":{"t_address":{"encoding":"inplace","label":"address","numberOfBytes":"20"},"t_array(t_uint256)49_storage":{"encoding":"inplace","label":"uint256[49]","numberOfBytes":"1568","base":"t_uint256"},"t_array(t_uint256)50_storage":{"encoding":"inplace","label":"uint256[50]","numberOfBytes":"1600","base":"t_uint256"},"t_bool":{"encoding":"inplace","label":"bool","numberOfBytes":"1"},"t_mapping(t_address,t_struct(CommunityInfo)73493_storage)":{"encoding":"mapping","key":"t_address","label":"mapping(address => struct CommunityInfo)","numberOfBytes":"32","value":"t_struct(CommunityInfo)73493_storage"},"t_struct(CommunityInfo)73493_storage":{"encoding":"inplace","label":"struct CommunityInfo","numberOfBytes":"64","members":[{"astId":73490,"contract":"pkg/contracts/src/diamonds/RegistryFactoryDiamond.sol:RegistryFactoryDiamond","label":"fee","offset":0,"slot":"0","type":"t_uint256"},{"astId":73492,"contract":"pkg/contracts/src/diamonds/RegistryFactoryDiamond.sol:RegistryFactoryDiamond","label":"valid","offset":0,"slot":"1","type":"t_bool"}]},"t_uint256":{"encoding":"inplace","label":"uint256","numberOfBytes":"32"},"t_uint8":{"encoding":"inplace","label":"uint8","numberOfBytes":"1"}}},"id":110}