{"abi":[{"type":"fallback","stateMutability":"payable"},{"type":"receive","stateMutability":"payable"},{"type":"function","name":"VERSION","inputs":[],"outputs":[{"name":"","type":"string","internalType":"string"}],"stateMutability":"view"},{"type":"function","name":"_owner","inputs":[],"outputs":[{"name":"","type":"address","internalType":"address"}],"stateMutability":"view"},{"type":"function","name":"collateralVaultTemplate","inputs":[],"outputs":[{"name":"","type":"address","internalType":"address"}],"stateMutability":"view"},{"type":"function","name":"diamondCut","inputs":[{"name":"_diamondCut","type":"tuple[]","internalType":"struct IDiamond.FacetCut[]","components":[{"name":"facetAddress","type":"address","internalType":"address"},{"name":"action","type":"uint8","internalType":"enum IDiamond.FacetCutAction"},{"name":"functionSelectors","type":"bytes4[]","internalType":"bytes4[]"}]},{"name":"_init","type":"address","internalType":"address"},{"name":"_calldata","type":"bytes","internalType":"bytes"}],"outputs":[],"stateMutability":"nonpayable"},{"type":"function","name":"gardensFeeReceiver","inputs":[],"outputs":[{"name":"","type":"address","internalType":"address"}],"stateMutability":"view"},{"type":"function","name":"initialize","inputs":[{"name":"_owner","type":"address","internalType":"address"}],"outputs":[],"stateMutability":"nonpayable"},{"type":"function","name":"nonce","inputs":[],"outputs":[{"name":"","type":"uint256","internalType":"uint256"}],"stateMutability":"view"},{"type":"function","name":"proxiableUUID","inputs":[],"outputs":[{"name":"","type":"bytes32","internalType":"bytes32"}],"stateMutability":"view"},{"type":"function","name":"registryCommunityTemplate","inputs":[],"outputs":[{"name":"","type":"address","internalType":"address"}],"stateMutability":"view"},{"type":"function","name":"strategyTemplate","inputs":[],"outputs":[{"name":"","type":"address","internalType":"address"}],"stateMutability":"view"},{"type":"event","name":"DiamondCut","inputs":[{"name":"_diamondCut","type":"tuple[]","indexed":false,"internalType":"struct IDiamond.FacetCut[]","components":[{"name":"facetAddress","type":"address","internalType":"address"},{"name":"action","type":"uint8","internalType":"enum IDiamond.FacetCutAction"},{"name":"functionSelectors","type":"bytes4[]","internalType":"bytes4[]"}]},{"name":"_init","type":"address","indexed":false,"internalType":"address"},{"name":"_calldata","type":"bytes","indexed":false,"internalType":"bytes"}],"anonymous":false},{"type":"error","name":"CannotAddFunctionToDiamondThatAlreadyExists","inputs":[{"name":"_selector","type":"bytes4","internalType":"bytes4"}]},{"type":"error","name":"CannotAddSelectorsToZeroAddress","inputs":[{"name":"_selectors","type":"bytes4[]","internalType":"bytes4[]"}]},{"type":"error","name":"CannotRemoveFunctionThatDoesNotExist","inputs":[{"name":"_selector","type":"bytes4","internalType":"bytes4"}]},{"type":"error","name":"CannotRemoveImmutableFunction","inputs":[{"name":"_selector","type":"bytes4","internalType":"bytes4"}]},{"type":"error","name":"CannotReplaceFunctionThatDoesNotExists","inputs":[{"name":"_selector","type":"bytes4","internalType":"bytes4"}]},{"type":"error","name":"CannotReplaceFunctionWithTheSameFunctionFromTheSameFacet","inputs":[{"name":"_selector","type":"bytes4","internalType":"bytes4"}]},{"type":"error","name":"CannotReplaceFunctionsFromFacetWithZeroAddress","inputs":[{"name":"_selectors","type":"bytes4[]","internalType":"bytes4[]"}]},{"type":"error","name":"CannotReplaceImmutableFunction","inputs":[{"name":"_selector","type":"bytes4","internalType":"bytes4"}]},{"type":"error","name":"DiamondAlreadyInitialized","inputs":[]},{"type":"error","name":"FunctionNotFound","inputs":[{"name":"_functionSelector","type":"bytes4","internalType":"bytes4"}]},{"type":"error","name":"IncorrectFacetCutAction","inputs":[{"name":"_action","type":"uint8","internalType":"uint8"}]},{"type":"error","name":"InitializationFunctionReverted","inputs":[{"name":"_initializationContractAddress","type":"address","internalType":"address"},{"name":"_calldata","type":"bytes","internalType":"bytes"}]},{"type":"error","name":"NoBytecodeAtAddress","inputs":[{"name":"_contractAddress","type":"address","internalType":"address"},{"name":"_message","type":"string","internalType":"string"}]},{"type":"error","name":"NoSelectorsProvidedForFacetForCut","inputs":[{"name":"_facetAddress","type":"address","internalType":"address"}]},{"type":"error","name":"NotContractOwner","inputs":[{"name":"_user","type":"address","internalType":"address"},{"name":"_contractOwner","type":"address","internalType":"address"}]},{"type":"error","name":"RemoveFacetAddressMustBeZeroAddress","inputs":[{"name":"_facetAddress","type":"address","internalType":"address"}]}],"bytecode":{"object":"0x6080806040523461001657611108908161001c8239f35b600080fdfe60806040526004361015610015575b366104c457005b60003560e01c806302c1d0b1146100b55780631f931c1c146100b057806352d1902d146100ab5780635c94e4d2146100a657806377122d56146100a1578063affed0e01461009c578063b2bdfa7b14610097578063b8bed90114610092578063c4d66de81461008d5763ffa1ad740361000e57610446565b6102d6565b6102ad565b610284565b610266565b61023d565b610214565b6101d9565b61015e565b6100d9565b6001600160a01b031690565b6001600160a01b03909116815260200190565b34610102576000366003190112610102576068546040516001600160a01b039091168152602090f35b600080fd5b602435906001600160a01b038216820361010257565b35906001600160a01b038216820361010257565b9181601f84011215610102578235916001600160401b038311610102576020838186019501011161010257565b34610102576060366003190112610102576004356001600160401b03808211610102573660238301121561010257816004013591818311610102573660248460051b83010111610102576101b0610107565b604435928311610102576101d7936101ce6024943690600401610131565b9490930161057a565b005b346101025760003660031901126101025760206040517f360894a13ba1a3210667c828492db98dca3e2076cc3735a920a3ca505d382bbc8152f35b34610102576000366003190112610102576069546040516001600160a01b039091168152602090f35b3461010257600036600319011261010257606a546040516001600160a01b039091168152602090f35b34610102576000366003190112610102576020606554604051908152f35b34610102576000366003190112610102576033546040516001600160a01b039091168152602090f35b34610102576000366003190112610102576067546040516001600160a01b039091168152602090f35b34610102576020366003190112610102576004356001600160a01b0381811691829003610102576000805160206110b38339815191529182549160ff8360a01c1661035b57819083167f8be0079c531659141344cd1fd0a4f28419497f9722a3daafe3b4186f6b6457e0600080a36001600160a81b031990911617600160a01b179055005b604051639289b96160e01b8152600490fd5b634e487b7160e01b600052604160045260246000fd5b60405190606082016001600160401b038111838210176103a257604052565b61036d565b60408051919082016001600160401b038111838210176103a257604052565b6040519190601f01601f191682016001600160401b038111838210176103a257604052565b6001600160401b0381116103a257601f01601f191660200190565b919082519283825260005b848110610432575050826000602080949584010152601f8019910116010190565b602081830181015184830182015201610411565b34610102576000366003190112610102576104866104626103a7565b60038152620302e360ec1b6020820152604051918291602083526020830190610406565b0390f35b63ffffffff60e01b16600052600080516020611073833981519152602052604060002090565b6001600160e01b0319909116815260200190565b600080356001600160e01b03191680825260008051602061107383398151915260205260408220546001600160a01b031690811561051a5750818091368280378136915af43d82803e15610516573d90f35b3d90fd5b60249060405190630a82dd7360e31b82526004820152fd5b6001600160401b0381116103a25760051b60200190565b92919261055d610558836103eb565b6103c6565b938285528282011161010257816000926020928387013784010152565b6000805160206110b38339815191525493959491936001600160a01b0316338190036106c757506105ad61055885610532565b9081948083526020809301600591821b8301923684116101025780915b8483106105ef575050505050506105ed93946105e7913691610549565b91610899565b565b6001600160401b03833581811161010257830160608136031261010257610614610383565b9161061e8261011d565b835288820135600381101561010257898401526040918281013591821161010257019036601f8301121561010257813561065a61055882610532565b928a808584815201928a1b8201019036821161010257908b809694929795939701905b8082106106975750508495508201528152019201916105ca565b91939550919395823563ffffffff60e01b8116810361010257818d92918392520192018b9593919694929661067d565b6044906040519063ff4127cb60e01b82523360048301526024820152fd5b80546001600160a01b0319166001600160a01b03909216919091179055565b634e487b7160e01b600052601160045260246000fd5b60001981146107295760010190565b610704565b634e487b7160e01b600052603260045260246000fd5b80518210156107585760209160051b010190565b61072e565b6003111561076757565b634e487b7160e01b600052602160045260246000fd5b5160038110156107675790565b90815180825260208080930193019160005b8281106107aa575050505090565b83516001600160e01b0319168552938101939281019260010161079c565b93929091936060928382019380835281518095526080830160808660051b85010195602080940192600080915b83831061082a57505050505050610827949561081a9183019060018060a01b03169052565b6040818403910152610406565b90565b909192939498607f1988820301865289519060018060a01b0382511681528782015160038110156108855761087760019385848c959486809601528160408094015193820152019061078a565b9b01960194930191906107f5565b634e487b7160e01b85526021600452602485fd5b92909160005b84518110156109aa576040806108b58388610744565b510151906108d46108c68489610744565b51516001600160a01b031690565b9082511561098e576108f260206108eb868b610744565b510161077d565b906108fc8261075d565b8161091b575050610916929161091191610b15565b61071a565b61089f565b6109248261075d565b6001820361093c575050610916929161091191610c70565b6109458261075d565b6002820361095d575050610916929161091191610dd9565b61098a925061096b8261075d565b51633ff4d20f60e11b815260ff90911660048201529081906024820190565b0390fd5b5163e767f91f60e01b81529150819061098a90600483016100c6565b509092917f8faa70878671ccd212d20771b795c50af8fd3ff6cf27f4bde57e5d4de0aeb673816105ed946109e485604051938493846107c8565b0390a1610f88565b90602061082792818152019061078a565b610a05610383565b906024825263636f646560e01b6040837f4c69624469616d6f6e644375743a2041646420666163657420686173206e6f2060208201520152565b805461ffff60a01b191660a09290921b61ffff60a01b16919091179055565b61ffff60206105ed93610a7a60018060a01b03825116856106e5565b01511690610a3f565b90600080516020611093833981519152805483101561075857600052601c60206000208360031c019260021b1690565b60008051602061109383398151915280549190600160401b8310156103a25782610ae59160016105ed95019055610a83565b90919063ffffffff83549160031b9260e01c831b921b1916179055565b61ffff8091169081146107295760010190565b91906001600160a01b03831615610c0d576000805160206110938339815191525461ffff1690610b4c610b466109fd565b85611033565b6000915b8151831015610c0657610b74610b668484610744565b516001600160e01b03191690565b610b95610b90610b838361048a565b546001600160a01b031690565b6100ba565b610be957610be391610bd8610bdd92610bd3610baf6103a7565b6001600160a01b038b16815261ffff85166020820152610bce8361048a565b610a5e565b610ab3565b610b02565b9261071a565b91610b50565b60405163ebbf5d0760e01b815290819061098a90600483016104b0565b5050509050565b6040516302b8da0760e21b815290819061098a90600483016109ec565b610c32610383565b906028825267206e6f20636f646560c01b6040837f4c69624469616d6f6e644375743a205265706c6163652066616365742068617360208201520152565b6001600160a01b03811692918315610d3c57610c93610c8d610c2a565b83611033565b60005b8151811015610c0657610cac610b668284610744565b610cbb610b90610b838361048a565b308114610d2157868114610d065715610ce9579061091184610cdf610ce49461048a565b6106e5565b610c96565b604051637479f93960e01b815290819061098a90600483016104b0565b604051631ac6ce8d60e11b81528061098a84600483016104b0565b604051632901806d60e11b81528061098a84600483016104b0565b60405163cd98a96f60e01b815290819061098a90600483016109ec565b9061ffff610d656103a7565b92546001600160a01b038116845260a01c166020830152565b8015610729576000190190565b60008051602061109383398151915280548015610dc3576000190190610db082610a83565b63ffffffff82549160031b1b1916905555565b634e487b7160e01b600052603160045260246000fd5b600080516020611093833981519152549291906001600160a01b038116610f235750600090815b8151811015610c0657610e16610b668284610744565b94610e28610e238761048a565b610d59565b90610e36610b9083516100ba565b15610f085730610e49610b9084516100ba565b14610eed57610e8d602097610e939493610e638894610d7e565b998a91018161ffff610e77835161ffff1690565b1603610e98575b5050610e88610d8b565b61048a565b5561071a565b610e00565b610ee1610edb610eba610ead610ee695610a83565b90549060031b1c60e01b90565b92610ed384610ae5610ece845161ffff1690565b610a83565b5161ffff1690565b9161048a565b610a3f565b8838610e7e565b604051630df5fd6160e31b81528061098a89600483016104b0565b604051637a08a22d60e01b81528061098a89600483016104b0565b60405163d091bc8160e01b815290819061098a90600483016100c6565b3d15610f61573d90610f54610558836103eb565b9182523d6000602084013e565b606090565b6001600160a01b03909116815260406020820181905261082792910190610406565b906001600160a01b0382161561102f57610fe4610fa3610383565b602881527f4c69624469616d6f6e644375743a205f696e6974206164647265737320686173602082015267206e6f20636f646560c01b604082015283611033565b600080825160208401855af491610ff9610f40565b921561100457505050565b82511561101357825160208401fd5b61098a60405192839263192105d760e01b845260048401610f66565b5050565b803b1561103e575050565b6040805163919834b960e01b81526001600160a01b039092166004830152602482015290819061098a90604483019061040656fec8fcad8db84d3cc18b4c41d551ea0ee66dd599cde068d998e57d5e09332c131cc8fcad8db84d3cc18b4c41d551ea0ee66dd599cde068d998e57d5e09332c131dc8fcad8db84d3cc18b4c41d551ea0ee66dd599cde068d998e57d5e09332c131fa264697066735822122055a07108432fae3e9b91988735c621bfa45a8024ac309fe565a4c00c547ece6a64736f6c63430008130033","linkReferences":{}},"methodIdentifiers":{"VERSION()":"ffa1ad74","_owner()":"b2bdfa7b","collateralVaultTemplate()":"77122d56","diamondCut((address,uint8,bytes4[])[],address,bytes)":"1f931c1c","gardensFeeReceiver()":"b8bed901","initialize(address)":"c4d66de8","nonce()":"affed0e0","proxiableUUID()":"52d1902d","registryCommunityTemplate()":"02c1d0b1","strategyTemplate()":"5c94e4d2"},"storageLayout":{"storage":[{"astId":73833,"contract":"pkg/contracts/src/diamonds/RegistryFactoryDiamond.sol:RegistryFactoryDiamond","label":"_initialized","offset":0,"slot":"0","type":"t_uint8"},{"astId":73835,"contract":"pkg/contracts/src/diamonds/RegistryFactoryDiamond.sol:RegistryFactoryDiamond","label":"_initializing","offset":1,"slot":"0","type":"t_bool"},{"astId":73839,"contract":"pkg/contracts/src/diamonds/RegistryFactoryDiamond.sol:RegistryFactoryDiamond","label":"__gap1","offset":0,"slot":"1","type":"t_array(t_uint256)50_storage"},{"astId":73841,"contract":"pkg/contracts/src/diamonds/RegistryFactoryDiamond.sol:RegistryFactoryDiamond","label":"_owner","offset":0,"slot":"51","type":"t_address"},{"astId":73845,"contract":"pkg/contracts/src/diamonds/RegistryFactoryDiamond.sol:RegistryFactoryDiamond","label":"__gap2","offset":0,"slot":"52","type":"t_array(t_uint256)49_storage"},{"astId":73847,"contract":"pkg/contracts/src/diamonds/RegistryFactoryDiamond.sol:RegistryFactoryDiamond","label":"nonce","offset":0,"slot":"101","type":"t_uint256"},{"astId":73852,"contract":"pkg/contracts/src/diamonds/RegistryFactoryDiamond.sol:RegistryFactoryDiamond","label":"communityToInfo","offset":0,"slot":"102","type":"t_mapping(t_address,t_struct(CommunityInfo)73826_storage)"},{"astId":73854,"contract":"pkg/contracts/src/diamonds/RegistryFactoryDiamond.sol:RegistryFactoryDiamond","label":"gardensFeeReceiver","offset":0,"slot":"103","type":"t_address"},{"astId":73856,"contract":"pkg/contracts/src/diamonds/RegistryFactoryDiamond.sol:RegistryFactoryDiamond","label":"registryCommunityTemplate","offset":0,"slot":"104","type":"t_address"},{"astId":73858,"contract":"pkg/contracts/src/diamonds/RegistryFactoryDiamond.sol:RegistryFactoryDiamond","label":"strategyTemplate","offset":0,"slot":"105","type":"t_address"},{"astId":73860,"contract":"pkg/contracts/src/diamonds/RegistryFactoryDiamond.sol:RegistryFactoryDiamond","label":"collateralVaultTemplate","offset":0,"slot":"106","type":"t_address"},{"astId":73864,"contract":"pkg/contracts/src/diamonds/RegistryFactoryDiamond.sol:RegistryFactoryDiamond","label":"__gap3","offset":0,"slot":"107","type":"t_array(t_uint256)50_storage"}],"types":{"t_address":{"encoding":"inplace","label":"address","numberOfBytes":"20"},"t_array(t_uint256)49_storage":{"encoding":"inplace","label":"uint256[49]","numberOfBytes":"1568","base":"t_uint256"},"t_array(t_uint256)50_storage":{"encoding":"inplace","label":"uint256[50]","numberOfBytes":"1600","base":"t_uint256"},"t_bool":{"encoding":"inplace","label":"bool","numberOfBytes":"1"},"t_mapping(t_address,t_struct(CommunityInfo)73826_storage)":{"encoding":"mapping","key":"t_address","label":"mapping(address => struct CommunityInfo)","numberOfBytes":"32","value":"t_struct(CommunityInfo)73826_storage"},"t_struct(CommunityInfo)73826_storage":{"encoding":"inplace","label":"struct CommunityInfo","numberOfBytes":"64","members":[{"astId":73823,"contract":"pkg/contracts/src/diamonds/RegistryFactoryDiamond.sol:RegistryFactoryDiamond","label":"fee","offset":0,"slot":"0","type":"t_uint256"},{"astId":73825,"contract":"pkg/contracts/src/diamonds/RegistryFactoryDiamond.sol:RegistryFactoryDiamond","label":"valid","offset":0,"slot":"1","type":"t_bool"}]},"t_uint256":{"encoding":"inplace","label":"uint256","numberOfBytes":"32"},"t_uint8":{"encoding":"inplace","label":"uint8","numberOfBytes":"1"}}},"id":110}