{"abi":[{"type":"function","name":"createRegistry","inputs":[{"name":"params","type":"tuple","internalType":"struct RegistryCommunity.InitializeParams","components":[{"name":"_allo","type":"address","internalType":"address"},{"name":"_gardenToken","type":"address","internalType":"contract IERC20"},{"name":"_registerStakeAmount","type":"uint256","internalType":"uint256"},{"name":"_communityFee","type":"uint256","internalType":"uint256"},{"name":"_nonce","type":"uint256","internalType":"uint256"},{"name":"_registryFactory","type":"address","internalType":"address"},{"name":"_feeReceiver","type":"address","internalType":"address"},{"name":"_metadata","type":"tuple","internalType":"struct Metadata","components":[{"name":"protocol","type":"uint256","internalType":"uint256"},{"name":"pointer","type":"string","internalType":"string"}]},{"name":"_councilSafe","type":"address","internalType":"address payable"},{"name":"_communityName","type":"string","internalType":"string"},{"name":"_isKickEnabled","type":"bool","internalType":"bool"},{"name":"covenantIpfsHash","type":"string","internalType":"string"}]}],"outputs":[{"name":"_createdRegistryAddress","type":"address","internalType":"address"}],"stateMutability":"nonpayable"},{"type":"function","name":"gardensFeeReceiver","inputs":[],"outputs":[{"name":"","type":"address","internalType":"address"}],"stateMutability":"view"},{"type":"function","name":"getGardensFeeReceiver","inputs":[],"outputs":[{"name":"","type":"address","internalType":"address"}],"stateMutability":"view"},{"type":"function","name":"getProtocolFee","inputs":[{"name":"_community","type":"address","internalType":"address"}],"outputs":[{"name":"","type":"uint256","internalType":"uint256"}],"stateMutability":"view"},{"type":"function","name":"nonce","inputs":[],"outputs":[{"name":"","type":"uint256","internalType":"uint256"}],"stateMutability":"view"},{"type":"function","name":"owner","inputs":[],"outputs":[{"name":"","type":"address","internalType":"address"}],"stateMutability":"view"},{"type":"function","name":"renounceOwnership","inputs":[],"outputs":[],"stateMutability":"nonpayable"},{"type":"function","name":"setCommunityValidity","inputs":[{"name":"_community","type":"address","internalType":"address"},{"name":"_isValid","type":"bool","internalType":"bool"}],"outputs":[],"stateMutability":"nonpayable"},{"type":"function","name":"setProtocolFee","inputs":[{"name":"_community","type":"address","internalType":"address"},{"name":"_newProtocolFee","type":"uint256","internalType":"uint256"}],"outputs":[],"stateMutability":"nonpayable"},{"type":"function","name":"setReceiverAddress","inputs":[{"name":"_newFeeReceiver","type":"address","internalType":"address"}],"outputs":[],"stateMutability":"nonpayable"},{"type":"function","name":"transferOwnership","inputs":[{"name":"newOwner","type":"address","internalType":"address"}],"outputs":[],"stateMutability":"nonpayable"},{"type":"event","name":"CommunityCreated","inputs":[{"name":"_registryCommunity","type":"address","indexed":false,"internalType":"address"}],"anonymous":false},{"type":"event","name":"CommunityValiditySet","inputs":[{"name":"_community","type":"address","indexed":false,"internalType":"address"},{"name":"_isValid","type":"bool","indexed":false,"internalType":"bool"}],"anonymous":false},{"type":"event","name":"FeeReceiverSet","inputs":[{"name":"_newFeeReceiver","type":"address","indexed":false,"internalType":"address"}],"anonymous":false},{"type":"event","name":"OwnershipTransferred","inputs":[{"name":"previousOwner","type":"address","indexed":true,"internalType":"address"},{"name":"newOwner","type":"address","indexed":true,"internalType":"address"}],"anonymous":false},{"type":"event","name":"ProtocolFeeSet","inputs":[{"name":"_community","type":"address","indexed":false,"internalType":"address"},{"name":"_newProtocolFee","type":"uint256","indexed":false,"internalType":"uint256"}],"anonymous":false},{"type":"error","name":"CommunityInvalid","inputs":[{"name":"_community","type":"address","internalType":"address"}]}],"bytecode":{"object":"0x6080604052600060015534801561001557600080fd5b5061001f33610024565b610074565b600080546001600160a01b038381166001600160a01b0319831681178455604051919092169283917f8be0079c531659141344cd1fd0a4f28419497f9722a3daafe3b4186f6b6457e09190a35050565b614b60806100836000396000f3fe608060405234801561001057600080fd5b50600436106100c95760003560e01c8063987435be11610081578063b8bed9011161005b578063b8bed90114610176578063beb331a314610189578063f2fde38b1461019c57600080fd5b8063987435be14610149578063affed0e01461015a578063b5b3ca2c1461016357600080fd5b8063715018a6116100b2578063715018a6146101095780638279c7db146101115780638da5cb5b1461012457600080fd5b80630a992e0c146100ce5780635a2c8ace146100f4575b600080fd5b6100e16100dc36600461060f565b6101af565b6040519081526020015b60405180910390f35b610107610102366004610643565b610230565b005b61010761029c565b61010761011f36600461060f565b6102b0565b6000546001600160a01b03165b6040516001600160a01b0390911681526020016100eb565b6003546001600160a01b0316610131565b6100e160015481565b610107610171366004610678565b610319565b600354610131906001600160a01b031681565b6101316101973660046107e0565b610375565b6101076101aa36600461060f565b610496565b6001600160a01b03811660009081526002602052604081205460ff16610211576040517ff5a6943d0000000000000000000000000000000000000000000000000000000081526001600160a01b03831660048201526024015b60405180910390fd5b506001600160a01b031660009081526002602052604090206001015490565b610238610526565b6001600160a01b038216600081815260026020908152604091829020805460ff19168515159081179091558251938452908301527fecdcd3502799a6c41864ea2682236184e876f63e10f8d56c7768a3d501e89f6291015b60405180910390a15050565b6102a4610526565b6102ae6000610580565b565b6102b8610526565b6003805473ffffffffffffffffffffffffffffffffffffffff19166001600160a01b0383169081179091556040519081527fbdf37c276f641820b141429d245add2552b4118c0866e5a78638e3de5ef18d9d9060200160405180910390a150565b610321610526565b6001600160a01b038216600081815260026020908152604091829020600101849055815192835282018390527fa1ee82e4f177a8017f33ddddac05b7ceab1de9d46f7195e15e8aa2e8b88f3b1c9101610290565b600080604051610384906105dd565b604051809103906000f0801580156103a0573d6000803e3d6000fd5b506001805491925060006103b383610922565b9091555060808401523060a08401526040517fd14329e00000000000000000000000000000000000000000000000000000000081526001600160a01b0382169063d14329e0906104079086906004016109b6565b600060405180830381600087803b15801561042157600080fd5b505af1158015610435573d6000803e3d6000fd5b505050506001600160a01b038116600081815260026020908152604091829020805460ff1916600117905590519182527fb4108a188495a1a681cdc0750af164011025a1773b41e93ff3e628adc037dc29910160405180910390a192915050565b61049e610526565b6001600160a01b03811661051a5760405162461bcd60e51b815260206004820152602660248201527f4f776e61626c653a206e6577206f776e657220697320746865207a65726f206160448201527f64647265737300000000000000000000000000000000000000000000000000006064820152608401610208565b61052381610580565b50565b6000546001600160a01b031633146102ae5760405162461bcd60e51b815260206004820181905260248201527f4f776e61626c653a2063616c6c6572206973206e6f7420746865206f776e65726044820152606401610208565b600080546001600160a01b0383811673ffffffffffffffffffffffffffffffffffffffff19831681178455604051919092169283917f8be0079c531659141344cd1fd0a4f28419497f9722a3daafe3b4186f6b6457e09190a35050565b61405780610ad483390190565b6001600160a01b038116811461052357600080fd5b803561060a816105ea565b919050565b60006020828403121561062157600080fd5b813561062c816105ea565b9392505050565b8035801515811461060a57600080fd5b6000806040838503121561065657600080fd5b8235610661816105ea565b915061066f60208401610633565b90509250929050565b6000806040838503121561068b57600080fd5b8235610696816105ea565b946020939093013593505050565b634e487b7160e01b600052604160045260246000fd5b604051610180810167ffffffffffffffff811182821017156106de576106de6106a4565b60405290565b600082601f8301126106f557600080fd5b813567ffffffffffffffff80821115610710576107106106a4565b604051601f8301601f19908116603f01168101908282118183101715610738576107386106a4565b8160405283815286602085880101111561075157600080fd5b836020870160208301376000602085830101528094505050505092915050565b60006040828403121561078357600080fd5b6040516040810167ffffffffffffffff82821081831117156107a7576107a76106a4565b816040528293508435835260208501359150808211156107c657600080fd5b506107d3858286016106e4565b6020830152505092915050565b6000602082840312156107f257600080fd5b813567ffffffffffffffff8082111561080a57600080fd5b90830190610180828603121561081f57600080fd5b6108276106ba565b610830836105ff565b815261083e602084016105ff565b602082015260408301356040820152606083013560608201526080830135608082015261086d60a084016105ff565b60a082015261087e60c084016105ff565b60c082015260e08301358281111561089557600080fd5b6108a187828601610771565b60e0830152506101006108b58185016105ff565b9082015261012083810135838111156108cd57600080fd5b6108d9888287016106e4565b8284015250506101406108ed818501610633565b90820152610160838101358381111561090557600080fd5b610911888287016106e4565b918301919091525095945050505050565b60006001820161094257634e487b7160e01b600052601160045260246000fd5b5060010190565b6000815180845260005b8181101561096f57602081850181015186830182015201610953565b506000602082860101526020601f19601f83011685010191505092915050565b8051825260006020820151604060208501526109ae6040850182610949565b949350505050565b602081526109d06020820183516001600160a01b03169052565b600060208301516109ec60408401826001600160a01b03169052565b506040830151606083015260608301516080830152608083015160a083015260a0830151610a2560c08401826001600160a01b03169052565b5060c08301516001600160a01b03811660e08401525060e08301516101806101008181860152610a596101a086018461098f565b90860151909250610120610a77868201836001600160a01b03169052565b80870151915050601f19610140818786030181880152610a978584610949565b945080880151925050610160610ab08188018415159052565b870151868503909101838701529050610ac98382610949565b969550505050505056fe60806040523480156200001157600080fd5b506001600090815562000046907fbc6bbe35ebc64943402c04d2ae016d7bd2bba28e1a11cf66be743c9bd74c720b906200004c565b62000099565b6000828152600160208190526040808320909101805490849055905190918391839186917fbd79b86ffe0ab8e8776151514217cd7cacd52c909f66475c3af44e129f0b00ff9190a4505050565b613fae80620000a96000396000f3fe608060405234801561001057600080fd5b50600436106103365760003560e01c806368decabb116101b2578063b3f00674116100f9578063d547741f116100a2578063db1e0f3d1161007c578063db1e0f3d146107ce578063db61d65c146107fe578063ebd7dc5214610811578063f86c5f891461082457600080fd5b8063d547741f1461079f578063d6d8428d146107b2578063d7050f07146107c557600080fd5b8063b99b4370116100d3578063b99b43701461077c578063c6d572ae14610784578063d14329e01461078c57600080fd5b8063b3f006741461074c578063b5058c501461075f578063b64e39af1461076757600080fd5b80638961be6b1161015b578063a0cf0aea11610135578063a0cf0aea146106d2578063a217fddf146106ed578063a230c524146106f557600080fd5b80638961be6b1461066957806391d1485414610672578063a0b21cdf146106ab57600080fd5b806378a0b8a91161018c57806378a0b8a9146105ea5780637b103999146105f357806388cfe6841461060657600080fd5b806368decabb1461058b5780636c53db9a1461059e5780637817ee4f146105b157600080fd5b80632f2ff15d116102815780633a871fe11161022a578063559de05d11610204578063559de05d146105275780635ecf71c51461053a57806365e3864c1461054d5780636871eb4d1461057857600080fd5b80633a871fe1146104c35780633c092330146104e6578063477a5cc0146104f957600080fd5b80633517aa7d1161025b5780633517aa7d1461049557806336568abe1461049d578063397e2543146104b057600080fd5b80632f2ff15d1461045c57806331f61bca1461046f57806334c832491461048257600080fd5b8063223e5479116102e357806328c309e9116102bd57806328c309e9146103fd5780632b38c69c146104055780632c611c4a1461043057600080fd5b8063223e5479146103b357806322bcf999146103c6578063248a9ca3146103d957600080fd5b80630d4a8b49116103145780630d4a8b491461037e578063175188e8146103935780631f787d28146103a657600080fd5b806301ffc9a71461033b5780630331383c1461036357806308386eba14610375575b600080fd5b61034e610349366004613324565b61083c565b60405190151581526020015b60405180910390f35b6005545b60405190815260200161035a565b61036760085481565b61039161038c366004613373565b61088c565b005b6103916103a13660046133ac565b610be9565b60095461034e9060ff1681565b6103916103c13660046133ac565b610bfd565b6103916103d4366004613373565b610cb3565b6103676103e73660046133c9565b6000908152600160208190526040909120015490565b610367610dc2565b6104186104133660046133e2565b610eb1565b6040516001600160a01b03909116815260200161035a565b61036761043e3660046133ac565b6001600160a01b031660009081526010602052604090206001015490565b61039161046a36600461340e565b610ee9565b61039161047d3660046133c9565b610f14565b6103916104903660046133c9565b610f51565b610391610f8e565b6103916104ab36600461340e565b611205565b6103916104be3660046133ac565b611296565b61034e6104d13660046133ac565b600e6020526000908152604090205460ff1681565b6103916104f43660046133ac565b611303565b61034e610507366004613373565b601260209081526000928352604080842090915290825290205460ff1681565b6103916105353660046133c9565b611351565b6103916105483660046133c9565b61162b565b61036761055b366004613373565b600f60209081526000928352604080842090915290825290205481565b610391610586366004613373565b6119fe565b600a54610418906001600160a01b031681565b600b54610418906001600160a01b031681565b6103676105bf366004613373565b6001600160a01b039182166000908152600f6020908152604080832093909416825291909152205490565b61036760055481565b600354610418906001600160a01b031681565b6106426106143660046133ac565b6010602052600090815260409020805460018201546002909201546001600160a01b03909116919060ff1683565b604080516001600160a01b039094168452602084019290925215159082015260600161035a565b61036760065481565b61034e61068036600461340e565b60009182526001602090815260408084206001600160a01b0393909316845291905290205460ff1690565b6103677fbc6bbe35ebc64943402c04d2ae016d7bd2bba28e1a11cf66be743c9bd74c720b81565b61041873eeeeeeeeeeeeeeeeeeeeeeeeeeeeeeeeeeeeeeee81565b610367600081565b61034e6107033660046133ac565b6001600160a01b039081166000908152601060209081526040918290208251606081018452815490941684526001810154918401919091526002015460ff161515910181905290565b600754610418906001600160a01b031681565b610391611c18565b61076f611c64565b60405161035a9190613483565b610391611cf2565b61076f611e58565b61039161079a366004613623565b611e65565b6103916107ad36600461340e565b612341565b600254610418906001600160a01b031681565b61036761271081565b6107e16107dc3660046137ce565b612367565b604080519283526001600160a01b0390911660208301520161035a565b600454610418906001600160a01b031681565b61034e61081f3660046133ac565b6124e6565b6009546104189061010090046001600160a01b031681565b60006001600160e01b031982167f7965db0b00000000000000000000000000000000000000000000000000000000148061088657506301ffc9a760e01b6001600160e01b03198316145b92915050565b61089582612526565b61089e81612589565b6108a7816125db565b6001600160a01b0380831660009081526012602090815260408083209385168352929052205460ff1615610907576040517fd5b9bc9600000000000000000000000000000000000000000000000000000000815260040160405180910390fd5b6001600160a01b0380831660009081526010602090815260409182902082516060810184528154909416845260018101549184018290526002015460ff16151591830191909152806003846001600160a01b031663c32921716040518163ffffffff1660e01b81526004016020604051808303816000875af1158015610991573d6000803e3d6000fd5b505050506040513d601f19601f820116820180604052508101906109b591906138db565b60038111156109c6576109c66138c5565b03610a455760405163782aadff60e01b81526001600160a01b0386811660048301526000602483015285169063782aadff906044016020604051808303816000875af1158015610a1a573d6000803e3d6000fd5b505050506040513d601f19601f82011682018060405250810190610a3e91906138f8565b9050610b37565b6000846001600160a01b031663c32921716040518163ffffffff1660e01b81526004016020604051808303816000875af1158015610a87573d6000803e3d6000fd5b505050506040513d601f19601f82011682018060405250810190610aab91906138db565b6003811115610abc57610abc6138c5565b14610b375760405163782aadff60e01b81526001600160a01b0386811660048301526024820184905285169063782aadff906044016020604051808303816000875af1158015610b10573d6000803e3d6000fd5b505050506040513d601f19601f82011682018060405250810190610b3491906138f8565b90505b6001600160a01b038581166000818152600f60209081526040808320948916808452948252808320869055838352601282528083208584528252808320805460ff19166001908117909155848452601183528184208054918201815584529282902090920180546001600160a01b0319168517905581519283528201929092527f63c3cbece50d2c21233b9f1ffb1b3c4554cdf37170cecb94e65f94196df8baff910160405180910390a15050505050565b610bf161261b565b610bfa81612683565b50565b610c0561261b565b6001600160a01b0381166000908152600e602052604090205460ff1615610c58576040517f968a4d2c00000000000000000000000000000000000000000000000000000000815260040160405180910390fd5b6001600160a01b0381166000818152600e6020908152604091829020805460ff1916600117905590519182527f3f008fd510eae7a9e7bee13513d7b83bef8003d488b5a3d0b0da4de71d6846f191015b60405180910390a150565b610cbc82612526565b610cc5816125db565b610ccf33826126dd565b6001600160a01b0380831660009081526012602090815260408083209385168352929052205460ff16610d2e576040517fc12369dc00000000000000000000000000000000000000000000000000000000815260040160405180910390fd5b6001600160a01b038083166000818152601260209081526040808320948616808452948252808320805460ff19169055928252600f815282822093825292909252812055610d7c8282612728565b604080516001600160a01b038085168252831660208201527ede109bef4619f7e2cf00c8e5a50ca55f8deb44f87087eed414a91dbf8d1d1b910160405180910390a15050565b60095460009061010090046001600160a01b031681610de46127106064613927565b600654600554610df49190613927565b610dfe919061393e565b90506000610e0f6127106064613927565b6040516302a64b8360e21b81523060048201526001600160a01b03851690630a992e0c90602401602060405180830381865afa158015610e53573d6000803e3d6000fd5b505050506040513d601f19601f82011682018060405250810190610e7791906138f8565b600554610e849190613927565b610e8e919061393e565b90508082600554610e9f9190613960565b610ea99190613960565b935050505090565b60116020528160005260406000208181548110610ecd57600080fd5b6000918252602090912001546001600160a01b03169150829050565b60008281526001602081905260409091200154610f058161284a565b610f0f8383612854565b505050565b610f1c61261b565b60058190556040518181527f5bcc2c453001fb0e2ba6266d56ecb411e7c6e15c8f9c3d301f93dd36ad25726f90602001610ca8565b610f5961261b565b60068190556040518181527f611668bfcf654a99c33cdb66c29ec37a5aae5c1287d2d9715a24e18cb4d806d690602001610ca8565b610f966128db565b33600081815260106020526040812060095490916101009091046001600160a01b031690610fc76127106064613927565b600654600554610fd79190613927565b610fe1919061393e565b90506000610ff26127106064613927565b6040516302a64b8360e21b81523060048201526001600160a01b03851690630a992e0c90602401602060405180830381865afa158015611036573d6000803e3d6000fd5b505050506040513d601f19601f8201168201806040525081019061105a91906138f8565b6005546110679190613927565b611071919061393e565b6001600160a01b038087166000908152601060209081526040918290208251606081018452815490941684526001810154918401919091526002015460ff16151591018190529091506111f45760028401805460ff1916600190811790915560055490850181905561110c908690309084906110ee908790613960565b6110f89190613960565b6004546001600160a01b0316929190612934565b811561112f5760075460045461112f916001600160a01b039182169116846129b8565b80156111ad576111ad836001600160a01b031663987435be6040518163ffffffff1660e01b8152600401602060405180830381865afa158015611176573d6000803e3d6000fd5b505050506040513d601f19601f8201168201806040525081019061119a9190613973565b6004546001600160a01b031690836129b8565b600554604080516001600160a01b038816815260208101929092527f67e0244e28040fec15240cd4b6c04c776a2a0278caef23b59e8ada1df31f7689910160405180910390a15b50505050506112036001600055565b565b6001600160a01b03811633146112885760405162461bcd60e51b815260206004820152602f60248201527f416363657373436f6e74726f6c3a2063616e206f6e6c792072656e6f756e636560448201527f20726f6c657320666f722073656c66000000000000000000000000000000000060648201526084015b60405180910390fd5b61129282826129e8565b5050565b61129e61261b565b6112a7816125db565b600a80546001600160a01b0319166001600160a01b03838116918217909255600b546040805191909316815260208101919091527f83eac9fdaff0ac1017624b7eddeb9782e3d707cd894073cb7e8301a41c6e5cf89101610ca8565b600280546001600160a01b0319166001600160a01b0383169081179091556040519081527faaded18d4d508696508b945d03ff3d168110dbb73e17aeda699745655fa958d290602001610ca8565b6113596128db565b611361612a6b565b336000818152601160209081526040808320805482518185028101850190935280835291929091908301828280156113c257602002820191906000526020600020905b81546001600160a01b031681526001909101906020018083116113a4575b50505050509050600080600090505b8251811015611592578281815181106113ec576113ec613990565b602090810291909101015160405163782aadff60e01b81526001600160a01b038681166004830152602482018890529091169063782aadff906044016020604051808303816000875af1158015611447573d6000803e3d6000fd5b505050506040513d601f19601f8201168201806040525081019061146b91906138f8565b91508115611580576001600160a01b0384166000908152600f6020526040812084518492908690859081106114a2576114a2613990565b60200260200101516001600160a01b03166001600160a01b0316815260200190815260200160002060008282546114d99190613960565b925050819055506115806040518060400160405280600e81526020017f537472617465677920706f776572000000000000000000000000000000000000815250600f6000876001600160a01b03166001600160a01b03168152602001908152602001600020600086858151811061155257611552613990565b60200260200101516001600160a01b03166001600160a01b0316815260200190815260200160002054612aca565b8061158a816139a6565b9150506113d1565b506004546115ab906001600160a01b0316843087612934565b6001600160a01b038316600090815260106020526040812060010180548692906115d6908490613960565b9091555050604080516001600160a01b0385168152602081018690527f576605f9bfe8911e7508bed3763c7c5c8eb3b86e8b360b90a4bc6abe1104cb7f91015b60405180910390a1505050610bfa6001600055565b6116336128db565b61163b612a6b565b3360008181526011602090815260408083206005546010909352908320600101549092919061166b9086906139bf565b10156116a3576040517f9c47d02e00000000000000000000000000000000000000000000000000000000815260040160405180910390fd5b6004546116ba906001600160a01b031684866129b8565b60005b825481101561198e5760008382815481106116da576116da613990565b6000918252602090912001546001600160a01b0316905061171b817ff1801e6100000000000000000000000000000000000000000000000000000000612b28565b156118c2576040517f2ed04b2b0000000000000000000000000000000000000000000000000000000081526001600160a01b03868116600483015260248201889052821690632ed04b2b906044016020604051808303816000875af1158015611788573d6000803e3d6000fd5b505050506040513d601f19601f820116820180604052508101906117ac91906138f8565b92506000600f6000876001600160a01b03166001600160a01b0316815260200190815260200160002060008685815481106117e9576117e9613990565b60009182526020808320909101546001600160a01b03168352820192909252604001902054905080841115611854576040517f8a11f318000000000000000000000000000000000000000000000000000000008152600481018590526024810182905260440161127f565b6001600160a01b0386166000908152600f60205260408120865486929088908790811061188357611883613990565b60009182526020808320909101546001600160a01b03168352820192909252604001812080549091906118b79084906139bf565b90915550505061197b565b835484906118d2906001906139bf565b815481106118e2576118e2613990565b9060005260206000200160009054906101000a90046001600160a01b031684838154811061191257611912613990565b9060005260206000200160006101000a8154816001600160a01b0302191690836001600160a01b0316021790555083805480611950576119506139d2565b600082815260209020810160001990810180546001600160a01b031916905501905561197b81612683565b5080611986816139a6565b9150506116bd565b506001600160a01b038316600090815260106020526040812060010180548692906119ba9084906139bf565b9091555050604080516001600160a01b0385168152602081018690527f6ee2c70b2d6b89ae808a2313aab43e925c06624271419cd665d85cfa1ae04ff89101611616565b611a066128db565b611a0e61261b565b60095460ff16611a4a576040517fcb63dc7200000000000000000000000000000000000000000000000000000000815260040160405180910390fd5b6001600160a01b038083166000908152601060209081526040918290208251606081018452815490941684526001810154918401919091526002015460ff1615159101819052611aad57604051636a5cfb6d60e01b815260040160405180910390fd5b6001600160a01b038083166000908152601060209081526040918290208251606081018452815490941684526001810154918401919091526002015460ff16151590820152611afb83612b4b565b6001600160a01b03808416600090815260106020908152604080832080546001600160a01b031916815560018101939093556002909201805460ff191690556004805491850151925163a9059cbb60e01b8152919093169263a9059cbb92611b79928792016001600160a01b03929092168252602082015260400190565b6020604051808303816000875af1158015611b98573d6000803e3d6000fd5b505050506040513d601f19601f82011682018060405250810190611bbc91906139e8565b50602080820151604080516001600160a01b0380881682528616938101939093528201527fb5946f249f8744efe9d14d49a483b54a589b1362944ff6694de93456cceb96a39060600160405180910390a1506112926001600055565b600a546001600160a01b03163314611c5c576040517febcd0d6e00000000000000000000000000000000000000000000000000000000815260040160405180910390fd5b611203612c6d565b600d8054611c7190613a05565b80601f0160208091040260200160405190810160405280929190818152602001828054611c9d90613a05565b8015611cea5780601f10611cbf57610100808354040283529160200191611cea565b820191906000526020600020905b815481529060010190602001808311611ccd57829003601f168201915b505050505081565b611cfa6128db565b33611d0481612526565b611d0d81612b4b565b6001600160a01b0380821660008181526010602090815260408083208151606081018352815496871681526001820180548286015260028301805460ff81161515848701529787526001600160a01b03199098169092559084905560ff19909416909455601190529182209091611d84919061328c565b60048054602083015160405163a9059cbb60e01b81526001600160a01b0386811694820194909452602481019190915291169063a9059cbb906044016020604051808303816000875af1158015611ddf573d6000803e3d6000fd5b505050506040513d601f19601f82011682018060405250810190611e0391906139e8565b50602080820151604080516001600160a01b0386168152928301919091527fa13f4668aacb68c4e9eed8e3f6e1cbec3eca776896ec46b5eabcc3983fc8f5f4910160405180910390a150506112036001600055565b600c8054611c7190613a05565b611e7281602001516125db565b611e808161010001516125db565b8051611e8b906125db565b611e988160a001516125db565b8051600280546001600160a01b039283166001600160a01b0319918216179091556020830151600480549190931691161790556040810151600003611f09576040517fc70d18aa00000000000000000000000000000000000000000000000000000000815260040160405180910390fd5b604081015160055560608101516006556101408101516009805460ff1916911515919091179055610120810151600c90611f439082613a8d565b50610160810151600d90611f579082613a8d565b5060a0810151600980547fffffffffffffffffffffff0000000000000000000000000000000000000000ff166101006001600160a01b0393841681029190911790915560c0830151600780546001600160a01b031990811692851692909217905590830151600b8054909216928116929092179055611ff7907fbc6bbe35ebc64943402c04d2ae016d7bd2bba28e1a11cf66be743c9bd74c720b90612854565b600260009054906101000a90046001600160a01b03166001600160a01b0316635ab1bd536040518163ffffffff1660e01b8152600401602060405180830381865afa15801561204a573d6000803e3d6000fd5b505050506040513d601f19601f8201168201806040525081019061206e9190613973565b600380546001600160a01b0319166001600160a01b03928316179055600b54604080517fa0e67e2b0000000000000000000000000000000000000000000000000000000081529051600093929092169163a0e67e2b9160048082019286929091908290030181865afa1580156120e8573d6000803e3d6000fd5b505050506040513d6000823e601f3d908101601f191682016040526121109190810190613b4d565b90506000815160026121229190613960565b67ffffffffffffffff81111561213a5761213a613496565b604051908082528060200260200182016040528015612163578160200160208202803683370190505b50905060005b82518110156121c85782818151811061218457612184613990565b602002602001015182828151811061219e5761219e613990565b6001600160a01b0390921660209283029190910190910152806121c0816139a6565b915050612169565b50600b5481516001600160a01b039091169082906121e8906001906139bf565b815181106121f8576121f8613990565b60200260200101906001600160a01b031690816001600160a01b03168152505030816002835161222891906139bf565b8151811061223857612238613990565b6001600160a01b039283166020918202929092010152600354608085015160e08601516040517f3a92f65f0000000000000000000000000000000000000000000000000000000081529290931692633a92f65f926122a09291600c9130908890600401613cdf565b6020604051808303816000875af11580156122bf573d6000803e3d6000fd5b505050506040513d601f19601f820116820180604052508101906122e391906138f8565b60085580516122f99060139060208401906132aa565b507f2f2ffcb06f8a1d35e2716f6b43ef2c19bfa76467d8f66964ae12c2583ed03205600854600c8560e0015160405161233493929190613d2d565b60405180910390a1505050565b6000828152600160208190526040909120015461235d8161284a565b610f0f83836129e8565b60008073eeeeeeeeeeeeeeeeeeeeeeeeeeeeeeeeeeeeeeee6001600160a01b038616156123915750845b869150600060138054806020026020016040519081016040528092919081815260200182805480156123ec57602002820191906000526020600020905b81546001600160a01b031681526001909101906020018083116123ce575b50506002546008546040519596506001600160a01b039091169463e1007d4a9450909250879150612421908b90602001613d76565b6040516020818303038152906040528660008b886040518863ffffffff1660e01b81526004016124579796959493929190613dfc565b6020604051808303816000875af1158015612476573d6000803e3d6000fd5b505050506040513d601f19601f8201168201806040525081019061249a91906138f8565b93507f778cac0ae0b66477341553a4a89398c61ccf448313d3354ad0ca85a5a825d2838484308a896040516124d3959493929190613e68565b60405180910390a1505094509492505050565b6001600160a01b03811660009081527fb5ecf5ecfeba8b6e20c37ad4ed6024e3afbcd2e706bee2e266a62cb37e60342c602052604081205460ff16610886565b6001600160a01b038082166000908152601060209081526040918290208251606081018452815490941684526001810154918401919091526002015460ff1615159101819052610bfa57604051636a5cfb6d60e01b815260040160405180910390fd5b6001600160a01b0381166000908152600e602052604090205460ff16610bfa576040517f46c26e4b00000000000000000000000000000000000000000000000000000000815260040160405180910390fd5b6001600160a01b038116610bfa576040517fe622e04000000000000000000000000000000000000000000000000000000000815260040160405180910390fd5b3360009081527fb5ecf5ecfeba8b6e20c37ad4ed6024e3afbcd2e706bee2e266a62cb37e60342c602052604090205460ff16611203576040517ff62651fa00000000000000000000000000000000000000000000000000000000815260040160405180910390fd5b61268c816125db565b6001600160a01b0381166000818152600e6020908152604091829020805460ff1916905590519182527f09a1db4b80c32706328728508c941a6b954f31eb5affd32f236c1fd405f8fea49101610ca8565b806001600160a01b0316826001600160a01b031614611292576040517fbbe7961100000000000000000000000000000000000000000000000000000000815260040160405180910390fd5b6001600160a01b0382166000908152601160205260408120905b815481101561284457826001600160a01b031682828154811061276757612767613990565b6000918252602090912001546001600160a01b0316036128325781548290612791906001906139bf565b815481106127a1576127a1613990565b9060005260206000200160009054906101000a90046001600160a01b03168282815481106127d1576127d1613990565b9060005260206000200160006101000a8154816001600160a01b0302191690836001600160a01b031602179055508180548061280f5761280f6139d2565b600082815260209020810160001990810180546001600160a01b03191690550190555b8061283c816139a6565b915050612742565b50505050565b610bfa8133612cc8565b60008281526001602090815260408083206001600160a01b038516845290915290205460ff166112925760008281526001602081815260408084206001600160a01b0386168086529252808420805460ff19169093179092559051339285917f2f8788117e7eff1d82e926ec794901d17c78024a50270940304540a733656f0d9190a45050565b60026000540361292d5760405162461bcd60e51b815260206004820152601f60248201527f5265656e7472616e637947756172643a207265656e7472616e742063616c6c00604482015260640161127f565b6002600055565b6040516001600160a01b03808516602483015283166044820152606481018290526128449085907f23b872dd00000000000000000000000000000000000000000000000000000000906084015b60408051601f198184030181529190526020810180516001600160e01b03166001600160e01b031990931692909217909152612d3d565b6040516001600160a01b038316602482015260448101829052610f0f90849063a9059cbb60e01b90606401612981565b60008281526001602090815260408083206001600160a01b038516845290915290205460ff16156112925760008281526001602090815260408083206001600160a01b0385168085529252808320805460ff1916905551339285917ff6391f5c32d9c69d2a47ea670b442974b53935d1edc7fd64eb21e047a839171b9190a45050565b33600090815260106020908152604091829020825160608101845281546001600160a01b031681526001820154928101929092526002015460ff161515910181905261120357604051636a5cfb6d60e01b815260040160405180910390fd5b6112928282604051602401612ae0929190613ea2565b60408051601f198184030181529190526020810180516001600160e01b03167f9710a9d000000000000000000000000000000000000000000000000000000000179052612e25565b6000612b3383612e46565b8015612b445750612b448383612e79565b9392505050565b6001600160a01b038116600090815260116020908152604080832080548251818502810185019093528083529192909190830182828015612bb557602002820191906000526020600020905b81546001600160a01b03168152600190910190602001808311612b97575b5050505050905060005b8151811015610f0f57818181518110612bda57612bda613990565b60209081029190910101516040517f6453d9c40000000000000000000000000000000000000000000000000000000081526001600160a01b03858116600483015290911690636453d9c490602401600060405180830381600087803b158015612c4257600080fd5b505af1158015612c56573d6000803e3d6000fd5b505050508080612c65906139a6565b915050612bbf565b600a8054600b80546001600160a01b0383166001600160a01b031991821617909155169055604051600081527fad0399dc40331b9a4977aa89da7a164a3fd482c65e6da73b25a94ea74fb688729060200160405180910390a1565b60008281526001602090815260408083206001600160a01b038516845290915290205460ff1661129257612cfb81612f02565b612d06836020612f14565b604051602001612d17929190613ec4565b60408051601f198184030181529082905262461bcd60e51b825261127f91600401613483565b6000612d92826040518060400160405280602081526020017f5361666545524332303a206c6f772d6c6576656c2063616c6c206661696c6564815250856001600160a01b03166130f59092919063ffffffff16565b9050805160001480612db3575080806020019051810190612db391906139e8565b610f0f5760405162461bcd60e51b815260206004820152602a60248201527f5361666545524332303a204552433230206f7065726174696f6e20646964206e60448201527f6f74207375636365656400000000000000000000000000000000000000000000606482015260840161127f565b80516a636f6e736f6c652e6c6f67602083016000808483855afa5050505050565b6000612e59826301ffc9a760e01b612e79565b80156108865750612e72826001600160e01b0319612e79565b1592915050565b604080516001600160e01b03198316602480830191909152825180830390910181526044909101909152602080820180516001600160e01b03166301ffc9a760e01b178152825160009392849283928392918391908a617530fa92503d91506000519050828015612eeb575060208210155b8015612ef75750600081115b979650505050505050565b60606108866001600160a01b03831660145b60606000612f23836002613927565b612f2e906002613960565b67ffffffffffffffff811115612f4657612f46613496565b6040519080825280601f01601f191660200182016040528015612f70576020820181803683370190505b5090507f300000000000000000000000000000000000000000000000000000000000000081600081518110612fa757612fa7613990565b60200101906001600160f81b031916908160001a9053507f780000000000000000000000000000000000000000000000000000000000000081600181518110612ff257612ff2613990565b60200101906001600160f81b031916908160001a9053506000613016846002613927565b613021906001613960565b90505b60018111156130a6577f303132333435363738396162636465660000000000000000000000000000000085600f166010811061306257613062613990565b1a60f81b82828151811061307857613078613990565b60200101906001600160f81b031916908160001a90535060049490941c9361309f81613f45565b9050613024565b508315612b445760405162461bcd60e51b815260206004820181905260248201527f537472696e67733a20686578206c656e67746820696e73756666696369656e74604482015260640161127f565b6060613104848460008561310c565b949350505050565b6060824710156131845760405162461bcd60e51b815260206004820152602660248201527f416464726573733a20696e73756666696369656e742062616c616e636520666f60448201527f722063616c6c0000000000000000000000000000000000000000000000000000606482015260840161127f565b600080866001600160a01b031685876040516131a09190613f5c565b60006040518083038185875af1925050503d80600081146131dd576040519150601f19603f3d011682016040523d82523d6000602084013e6131e2565b606091505b5091509150612ef7878383876060831561325d578251600003613256576001600160a01b0385163b6132565760405162461bcd60e51b815260206004820152601d60248201527f416464726573733a2063616c6c20746f206e6f6e2d636f6e7472616374000000604482015260640161127f565b5081613104565b61310483838151156132725781518083602001fd5b8060405162461bcd60e51b815260040161127f9190613483565b5080546000825590600052602060002090810190610bfa919061330f565b8280548282559060005260206000209081019282156132ff579160200282015b828111156132ff57825182546001600160a01b0319166001600160a01b039091161782556020909201916001909101906132ca565b5061330b92915061330f565b5090565b5b8082111561330b5760008155600101613310565b60006020828403121561333657600080fd5b81356001600160e01b031981168114612b4457600080fd5b6001600160a01b0381168114610bfa57600080fd5b803561336e8161334e565b919050565b6000806040838503121561338657600080fd5b82356133918161334e565b915060208301356133a18161334e565b809150509250929050565b6000602082840312156133be57600080fd5b8135612b448161334e565b6000602082840312156133db57600080fd5b5035919050565b600080604083850312156133f557600080fd5b82356134008161334e565b946020939093013593505050565b6000806040838503121561342157600080fd5b8235915060208301356133a18161334e565b60005b8381101561344e578181015183820152602001613436565b50506000910152565b6000815180845261346f816020860160208601613433565b601f01601f19169290920160200192915050565b602081526000612b446020830184613457565b634e487b7160e01b600052604160045260246000fd5b604051610180810167ffffffffffffffff811182821017156134d0576134d0613496565b60405290565b604051610100810167ffffffffffffffff811182821017156134d0576134d0613496565b604051601f8201601f1916810167ffffffffffffffff8111828210171561352357613523613496565b604052919050565b600082601f83011261353c57600080fd5b813567ffffffffffffffff81111561355657613556613496565b613569601f8201601f19166020016134fa565b81815284602083860101111561357e57600080fd5b816020850160208301376000918101602001919091529392505050565b6000604082840312156135ad57600080fd5b6040516040810167ffffffffffffffff82821081831117156135d1576135d1613496565b816040528293508435835260208501359150808211156135f057600080fd5b506135fd8582860161352b565b6020830152505092915050565b8015158114610bfa57600080fd5b803561336e8161360a565b60006020828403121561363557600080fd5b813567ffffffffffffffff8082111561364d57600080fd5b90830190610180828603121561366257600080fd5b61366a6134ac565b61367383613363565b815261368160208401613363565b60208201526040830135604082015260608301356060820152608083013560808201526136b060a08401613363565b60a08201526136c160c08401613363565b60c082015260e0830135828111156136d857600080fd5b6136e48782860161359b565b60e0830152506101006136f8818501613363565b90820152610120838101358381111561371057600080fd5b61371c8882870161352b565b828401525050610140613730818501613618565b90820152610160838101358381111561374857600080fd5b6137548882870161352b565b918301919091525095945050505050565b80356003811061336e57600080fd5b60048110610bfa57600080fd5b803561336e81613774565b60006020828403121561379e57600080fd5b6040516020810181811067ffffffffffffffff821117156137c1576137c1613496565b6040529135825250919050565b6000806000808486036101608112156137e657600080fd5b85356137f18161334e565b945060208601356138018161334e565b9350610100603f19820181131561381757600080fd5b61381f6134d6565b9150604087013561382f8161334e565b80835250606087013560208301526080870135604083015260a0870135606083015260c0870135608083015261386760e08801613765565b60a0830152613877818801613781565b60c08301525061388b87610120880161378c565b60e0820152915061014085013567ffffffffffffffff8111156138ad57600080fd5b6138b98782880161359b565b91505092959194509250565b634e487b7160e01b600052602160045260246000fd5b6000602082840312156138ed57600080fd5b8151612b4481613774565b60006020828403121561390a57600080fd5b5051919050565b634e487b7160e01b600052601160045260246000fd5b808202811582820484141761088657610886613911565b60008261395b57634e487b7160e01b600052601260045260246000fd5b500490565b8082018082111561088657610886613911565b60006020828403121561398557600080fd5b8151612b448161334e565b634e487b7160e01b600052603260045260246000fd5b6000600182016139b8576139b8613911565b5060010190565b8181038181111561088657610886613911565b634e487b7160e01b600052603160045260246000fd5b6000602082840312156139fa57600080fd5b8151612b448161360a565b600181811c90821680613a1957607f821691505b602082108103613a3957634e487b7160e01b600052602260045260246000fd5b50919050565b601f821115610f0f57600081815260208120601f850160051c81016020861015613a665750805b601f850160051c820191505b81811015613a8557828155600101613a72565b505050505050565b815167ffffffffffffffff811115613aa757613aa7613496565b613abb81613ab58454613a05565b84613a3f565b602080601f831160018114613af05760008415613ad85750858301515b600019600386901b1c1916600185901b178555613a85565b600085815260208120601f198616915b82811015613b1f57888601518255948401946001909101908401613b00565b5085821015613b3d5787850151600019600388901b60f8161c191681555b5050505050600190811b01905550565b60006020808385031215613b6057600080fd5b825167ffffffffffffffff80821115613b7857600080fd5b818501915085601f830112613b8c57600080fd5b815181811115613b9e57613b9e613496565b8060051b9150613baf8483016134fa565b8181529183018401918481019088841115613bc957600080fd5b938501935b83851015613bf35784519250613be38361334e565b8282529385019390850190613bce565b98975050505050505050565b60008154613c0c81613a05565b808552602060018381168015613c295760018114613c4357613c71565b60ff1985168884015283151560051b880183019550613c71565b866000528260002060005b85811015613c695781548a8201860152908301908401613c4e565b890184019650505b505050505092915050565b8051825260006020820151604060208501526131046040850182613457565b600081518084526020808501945080840160005b83811015613cd45781516001600160a01b031687529582019590820190600101613caf565b509495945050505050565b85815260a060208201526000613cf860a0830187613bff565b8281036040840152613d0a8187613c7c565b90506001600160a01b03851660608401528281036080840152613bf38185613c9b565b838152606060208201526000613d466060830185613bff565b8281036040840152613d588185613c7c565b9695505050505050565b60048110613d7257613d726138c5565b9052565b6000610100820190506001600160a01b0383511682526020830151602083015260408301516040830152606083015160608301526080830151608083015260a083015160038110613dc957613dc96138c5565b8060a08401525060c0830151613de260c0840182613d62565b5060e0830151613df560e0840182519052565b5092915050565b87815260006001600160a01b03808916602084015260e06040840152613e2560e0840189613457565b818816606085015286608085015283810360a0850152613e458187613c7c565b91505082810360c0840152613e5a8185613c9b565b9a9950505050505050505050565b85815260006001600160a01b038087166020840152808616604084015280851660608401525060a06080830152612ef760a0830184613c7c565b604081526000613eb56040830185613457565b90508260208301529392505050565b7f416363657373436f6e74726f6c3a206163636f756e7420000000000000000000815260008351613efc816017850160208801613433565b7f206973206d697373696e6720726f6c65200000000000000000000000000000006017918401918201528351613f39816028840160208801613433565b01602801949350505050565b600081613f5457613f54613911565b506000190190565b60008251613f6e818460208701613433565b919091019291505056fea2646970667358221220fa2594f8024103d134859d6b47c6313ae4531c0e334b5204683dd7cc4ad9599f64736f6c63430008130033a26469706673582212202e984c6fb2bc3bcb3c8741f52d43a4b961cf37ca31ebd4a650f744ceb0f2f0ae64736f6c63430008130033","linkReferences":{}},"methodIdentifiers":{"createRegistry((address,address,uint256,uint256,uint256,address,address,(uint256,string),address,string,bool,string))":"beb331a3","gardensFeeReceiver()":"b8bed901","getGardensFeeReceiver()":"987435be","getProtocolFee(address)":"0a992e0c","nonce()":"affed0e0","owner()":"8da5cb5b","renounceOwnership()":"715018a6","setCommunityValidity(address,bool)":"5a2c8ace","setProtocolFee(address,uint256)":"b5b3ca2c","setReceiverAddress(address)":"8279c7db","transferOwnership(address)":"f2fde38b"},"id":111}