{"abi":[{"type":"function","name":"VERSION","inputs":[],"outputs":[{"name":"","type":"string","internalType":"string"}],"stateMutability":"view"},{"type":"function","name":"collateralVaultTemplate","inputs":[],"outputs":[{"name":"","type":"address","internalType":"address"}],"stateMutability":"view"},{"type":"function","name":"createRegistry","inputs":[{"name":"params","type":"tuple","internalType":"struct RegistryCommunityInitializeParams","components":[{"name":"_allo","type":"address","internalType":"address"},{"name":"_gardenToken","type":"address","internalType":"contract IERC20"},{"name":"_registerStakeAmount","type":"uint256","internalType":"uint256"},{"name":"_communityFee","type":"uint256","internalType":"uint256"},{"name":"_nonce","type":"uint256","internalType":"uint256"},{"name":"_registryFactory","type":"address","internalType":"address"},{"name":"_feeReceiver","type":"address","internalType":"address"},{"name":"_metadata","type":"tuple","internalType":"struct Metadata","components":[{"name":"protocol","type":"uint256","internalType":"uint256"},{"name":"pointer","type":"string","internalType":"string"}]},{"name":"_councilSafe","type":"address","internalType":"address payable"},{"name":"_communityName","type":"string","internalType":"string"},{"name":"_isKickEnabled","type":"bool","internalType":"bool"},{"name":"covenantIpfsHash","type":"string","internalType":"string"}]}],"outputs":[{"name":"_createdRegistryAddress","type":"address","internalType":"address"}],"stateMutability":"nonpayable"},{"type":"function","name":"gardensFeeReceiver","inputs":[],"outputs":[{"name":"","type":"address","internalType":"address"}],"stateMutability":"view"},{"type":"function","name":"getCommunityValidity","inputs":[{"name":"_community","type":"address","internalType":"address"}],"outputs":[{"name":"","type":"bool","internalType":"bool"}],"stateMutability":"view"},{"type":"function","name":"getGardensFeeReceiver","inputs":[],"outputs":[{"name":"","type":"address","internalType":"address"}],"stateMutability":"view"},{"type":"function","name":"getProtocolFee","inputs":[{"name":"_community","type":"address","internalType":"address"}],"outputs":[{"name":"","type":"uint256","internalType":"uint256"}],"stateMutability":"view"},{"type":"function","name":"getStreamingEscrowFactory","inputs":[],"outputs":[{"name":"","type":"address","internalType":"address"}],"stateMutability":"view"},{"type":"function","name":"initialize","inputs":[{"name":"_owner","type":"address","internalType":"address"},{"name":"_gardensFeeReceiver","type":"address","internalType":"address"},{"name":"_registryCommunityTemplate","type":"address","internalType":"address"},{"name":"_strategyTemplate","type":"address","internalType":"address"},{"name":"_collateralVaultTemplate","type":"address","internalType":"address"}],"outputs":[],"stateMutability":"nonpayable"},{"type":"function","name":"initialize","inputs":[{"name":"initialOwner","type":"address","internalType":"address"}],"outputs":[],"stateMutability":"nonpayable"},{"type":"function","name":"initializeV2","inputs":[{"name":"communityFacetCuts_","type":"tuple[]","internalType":"struct IDiamond.FacetCut[]","components":[{"name":"facetAddress","type":"address","internalType":"address"},{"name":"action","type":"uint8","internalType":"enum IDiamond.FacetCutAction"},{"name":"functionSelectors","type":"bytes4[]","internalType":"bytes4[]"}]},{"name":"communityInit_","type":"address","internalType":"address"},{"name":"communityInitCalldata_","type":"bytes","internalType":"bytes"},{"name":"strategyFacetCuts_","type":"tuple[]","internalType":"struct IDiamond.FacetCut[]","components":[{"name":"facetAddress","type":"address","internalType":"address"},{"name":"action","type":"uint8","internalType":"enum IDiamond.FacetCutAction"},{"name":"functionSelectors","type":"bytes4[]","internalType":"bytes4[]"}]},{"name":"strategyInit_","type":"address","internalType":"address"},{"name":"strategyInitCalldata_","type":"bytes","internalType":"bytes"}],"outputs":[],"stateMutability":"nonpayable"},{"type":"function","name":"keepersAddresses","inputs":[{"name":"","type":"address","internalType":"address"}],"outputs":[{"name":"","type":"bool","internalType":"bool"}],"stateMutability":"view"},{"type":"function","name":"nonce","inputs":[],"outputs":[{"name":"","type":"uint256","internalType":"uint256"}],"stateMutability":"view"},{"type":"function","name":"owner","inputs":[],"outputs":[{"name":"","type":"address","internalType":"address"}],"stateMutability":"view"},{"type":"function","name":"protopiansAddresses","inputs":[{"name":"","type":"address","internalType":"address"}],"outputs":[{"name":"","type":"bool","internalType":"bool"}],"stateMutability":"view"},{"type":"function","name":"proxiableUUID","inputs":[],"outputs":[{"name":"","type":"bytes32","internalType":"bytes32"}],"stateMutability":"view"},{"type":"function","name":"proxyOwner","inputs":[],"outputs":[{"name":"","type":"address","internalType":"address"}],"stateMutability":"view"},{"type":"function","name":"registryCommunityTemplate","inputs":[],"outputs":[{"name":"","type":"address","internalType":"address"}],"stateMutability":"view"},{"type":"function","name":"renounceOwnership","inputs":[],"outputs":[],"stateMutability":"nonpayable"},{"type":"function","name":"setCollateralVaultTemplate","inputs":[{"name":"template","type":"address","internalType":"address"}],"outputs":[],"stateMutability":"nonpayable"},{"type":"function","name":"setCommunityFacets","inputs":[{"name":"communityFacetCuts_","type":"tuple[]","internalType":"struct IDiamond.FacetCut[]","components":[{"name":"facetAddress","type":"address","internalType":"address"},{"name":"action","type":"uint8","internalType":"enum IDiamond.FacetCutAction"},{"name":"functionSelectors","type":"bytes4[]","internalType":"bytes4[]"}]},{"name":"communityInit_","type":"address","internalType":"address"},{"name":"communityInitCalldata_","type":"bytes","internalType":"bytes"}],"outputs":[],"stateMutability":"nonpayable"},{"type":"function","name":"setCommunityValidity","inputs":[{"name":"_community","type":"address","internalType":"address"},{"name":"_isValid","type":"bool","internalType":"bool"}],"outputs":[],"stateMutability":"nonpayable"},{"type":"function","name":"setKeeperAddress","inputs":[{"name":"_keepers","type":"address[]","internalType":"address[]"},{"name":"_isKeeper","type":"bool","internalType":"bool"}],"outputs":[],"stateMutability":"nonpayable"},{"type":"function","name":"setProtocolFee","inputs":[{"name":"_community","type":"address","internalType":"address"},{"name":"_newProtocolFee","type":"uint256","internalType":"uint256"}],"outputs":[],"stateMutability":"nonpayable"},{"type":"function","name":"setProtopianAddress","inputs":[{"name":"_protopians","type":"address[]","internalType":"address[]"},{"name":"_isProtopian","type":"bool","internalType":"bool"}],"outputs":[],"stateMutability":"nonpayable"},{"type":"function","name":"setReceiverAddress","inputs":[{"name":"_newFeeReceiver","type":"address","internalType":"address"}],"outputs":[],"stateMutability":"nonpayable"},{"type":"function","name":"setRegistryCommunityTemplate","inputs":[{"name":"template","type":"address","internalType":"address"}],"outputs":[],"stateMutability":"nonpayable"},{"type":"function","name":"setStrategyFacets","inputs":[{"name":"strategyFacetCuts_","type":"tuple[]","internalType":"struct IDiamond.FacetCut[]","components":[{"name":"facetAddress","type":"address","internalType":"address"},{"name":"action","type":"uint8","internalType":"enum IDiamond.FacetCutAction"},{"name":"functionSelectors","type":"bytes4[]","internalType":"bytes4[]"}]},{"name":"strategyInit_","type":"address","internalType":"address"},{"name":"strategyInitCalldata_","type":"bytes","internalType":"bytes"}],"outputs":[],"stateMutability":"nonpayable"},{"type":"function","name":"setStrategyTemplate","inputs":[{"name":"template","type":"address","internalType":"address"}],"outputs":[],"stateMutability":"nonpayable"},{"type":"function","name":"setStreamingEscrowFactory","inputs":[{"name":"factory","type":"address","internalType":"address"}],"outputs":[],"stateMutability":"nonpayable"},{"type":"function","name":"strategyTemplate","inputs":[],"outputs":[{"name":"","type":"address","internalType":"address"}],"stateMutability":"view"},{"type":"function","name":"streamingEscrowFactory","inputs":[],"outputs":[{"name":"","type":"address","internalType":"address"}],"stateMutability":"view"},{"type":"function","name":"transferOwnership","inputs":[{"name":"newOwner","type":"address","internalType":"address"}],"outputs":[],"stateMutability":"nonpayable"},{"type":"function","name":"upgradeTo","inputs":[{"name":"newImplementation","type":"address","internalType":"address"}],"outputs":[],"stateMutability":"nonpayable"},{"type":"function","name":"upgradeToAndCall","inputs":[{"name":"newImplementation","type":"address","internalType":"address"},{"name":"data","type":"bytes","internalType":"bytes"}],"outputs":[],"stateMutability":"payable"},{"type":"event","name":"AdminChanged","inputs":[{"name":"previousAdmin","type":"address","indexed":false,"internalType":"address"},{"name":"newAdmin","type":"address","indexed":false,"internalType":"address"}],"anonymous":false},{"type":"event","name":"BeaconUpgraded","inputs":[{"name":"beacon","type":"address","indexed":true,"internalType":"address"}],"anonymous":false},{"type":"event","name":"CommunityCreated","inputs":[{"name":"_registryCommunity","type":"address","indexed":false,"internalType":"address"}],"anonymous":false},{"type":"event","name":"CommunityValiditySet","inputs":[{"name":"_community","type":"address","indexed":false,"internalType":"address"},{"name":"_isValid","type":"bool","indexed":false,"internalType":"bool"}],"anonymous":false},{"type":"event","name":"FeeReceiverSet","inputs":[{"name":"_newFeeReceiver","type":"address","indexed":false,"internalType":"address"}],"anonymous":false},{"type":"event","name":"Initialized","inputs":[{"name":"version","type":"uint8","indexed":false,"internalType":"uint8"}],"anonymous":false},{"type":"event","name":"KeepersChanged","inputs":[{"name":"_new","type":"address[]","indexed":false,"internalType":"address[]"},{"name":"_removed","type":"address[]","indexed":false,"internalType":"address[]"}],"anonymous":false},{"type":"event","name":"OwnershipTransferred","inputs":[{"name":"previousOwner","type":"address","indexed":true,"internalType":"address"},{"name":"newOwner","type":"address","indexed":true,"internalType":"address"}],"anonymous":false},{"type":"event","name":"ProtocolFeeSet","inputs":[{"name":"_community","type":"address","indexed":false,"internalType":"address"},{"name":"_newProtocolFee","type":"uint256","indexed":false,"internalType":"uint256"}],"anonymous":false},{"type":"event","name":"ProtopiansChanged","inputs":[{"name":"_new","type":"address[]","indexed":false,"internalType":"address[]"},{"name":"_removed","type":"address[]","indexed":false,"internalType":"address[]"}],"anonymous":false},{"type":"event","name":"StreamingEscrowFactorySet","inputs":[{"name":"_newFactory","type":"address","indexed":false,"internalType":"address"}],"anonymous":false},{"type":"event","name":"Upgraded","inputs":[{"name":"implementation","type":"address","indexed":true,"internalType":"address"}],"anonymous":false},{"type":"error","name":"AddressCannotBeZero","inputs":[]},{"type":"error","name":"CallerNotOwner","inputs":[{"name":"_caller","type":"address","internalType":"address"},{"name":"_owner","type":"address","internalType":"address"}]},{"type":"error","name":"CommunityInvalid","inputs":[{"name":"_community","type":"address","internalType":"address"}]}],"bytecode":{"object":"0x60a060405230608052348015610013575f80fd5b506080516135536100485f395f8181610c0401528181610c4701528181610cd701528181610d1a0152610d9a01526135535ff3fe608060405260043610620001b7575f3560e01c8063025313a214620001bb57806302c1d0b114620001ea578063083e8f97146200020b5780630a992e0c146200024e5780631425d1ec14620002815780631459457a14620002a75780631b71f0e414620002cb5780631d12d3c714620002ef5780631d413a8a14620003105780631f4b502e14620003345780633659cfe614620003665780634f1ef286146200038a57806352d1902d14620003a15780635a2c8ace14620003b85780635c94e4d214620003dc5780635decae0214620003fd578063715018a6146200042157806377122d5614620004385780637f7960f314620004595780638279c7db14620004785780638d3ad8a4146200049c5780638da5cb5b14620004c057806390147c6b14620004d7578063987435be14620004fb578063a6a85d88146200051a578063affed0e0146200053e578063b0d3713a1462000555578063b5b3ca2c1462000579578063b8bed901146200059d578063beb331a314620005be578063c4d66de814620005e2578063e0e779051462000606578063f2fde38b146200062a578063f5016b5e146200064e578063ffa1ad74146200068c575b5f80fd5b348015620001c7575f80fd5b50620001d2620006cb565b604051620001e19190620020b4565b60405180910390f35b348015620001f6575f80fd5b50606854620001d2906001600160a01b031681565b34801562000217575f80fd5b506200023d62000229366004620020ea565b606c6020525f908152604090205460ff1681565b6040519015158152602001620001e1565b3480156200025a575f80fd5b50620002726200026c366004620020ea565b620006e4565b604051908152602001620001e1565b3480156200028d575f80fd5b50620002a56200029f366004620021d5565b620008e4565b005b348015620002b3575f80fd5b50620002a5620002c53660046200228e565b620009ff565b348015620002d7575f80fd5b50620002a5620002e9366004620020ea565b62000b61565b348015620002fb575f80fd5b50606b54620001d2906001600160a01b031681565b3480156200031c575f80fd5b50620002a56200032e366004620020ea565b62000b8d565b34801562000340575f80fd5b506200023d62000352366004620020ea565b606d6020525f908152604090205460ff1681565b34801562000372575f80fd5b50620002a562000384366004620020ea565b62000bfa565b620002a56200039b36600462002378565b62000ccd565b348015620003ad575f80fd5b506200027262000d8e565b348015620003c4575f80fd5b50620002a5620003d6366004620023ca565b62000e3d565b348015620003e8575f80fd5b50606954620001d2906001600160a01b031681565b34801562000409575f80fd5b50620002a56200041b366004620020ea565b62000ea6565b3480156200042d575f80fd5b50620002a562000ed2565b34801562000444575f80fd5b50606a54620001d2906001600160a01b031681565b34801562000465575f80fd5b50606b546001600160a01b0316620001d2565b34801562000484575f80fd5b50620002a562000496366004620020ea565b62000ee9565b348015620004a8575f80fd5b50620002a5620004ba366004620021d5565b62000f39565b348015620004cc575f80fd5b50620001d262000fd7565b348015620004e3575f80fd5b50620002a5620004f536600462002563565b62001077565b34801562000507575f80fd5b506067546001600160a01b0316620001d2565b34801562000526575f80fd5b50620002a56200053836600462002563565b620010bd565b3480156200054a575f80fd5b506200027260655481565b34801562000561575f80fd5b50620002a562000573366004620020ea565b620010fd565b34801562000585575f80fd5b50620002a562000597366004620025de565b62001129565b348015620005a9575f80fd5b50606754620001d2906001600160a01b031681565b348015620005ca575f80fd5b50620001d2620005dc3660046200267d565b62001184565b348015620005ee575f80fd5b50620002a562000600366004620020ea565b62001386565b34801562000612575f80fd5b50620002a562000624366004620027d1565b62001446565b34801562000636575f80fd5b50620002a562000648366004620020ea565b620014f4565b3480156200065a575f80fd5b506200023d6200066c366004620020ea565b6001600160a01b03165f9081526066602052604090206001015460ff1690565b34801562000698575f80fd5b50620006bc604051806040016040528060038152602001620302e360ec1b81525081565b604051620001e19190620028f7565b5f620006df6033546001600160a01b031690565b905090565b6001600160a01b0381165f9081526066602052604081206001015460ff166200072d578160405163f5a6943d60e01b8152600401620007249190620020b4565b60405180910390fd5b6001600160a01b0382165f908152606d602052604090205460ff16156200075557505f919050565b5f826001600160a01b0316636c53db9a6040518163ffffffff1660e01b8152600401602060405180830381865afa15801562000793573d5f803e3d5ffd5b505050506040513d601f19601f82011682018060405250810190620007b991906200290b565b6001600160a01b0381165f908152606c602052604090205490915060ff168015620007e757505f9392505050565b6001600160a01b0382163b15620008c7575f826001600160a01b031663a0e67e2b6040518163ffffffff1660e01b81526004015f60405180830381865afa15801562000835573d5f803e3d5ffd5b505050506040513d5f823e601f3d908101601f191682016040526200085e919081019062002929565b90505f5b8151811015620008c457606c5f838381518110620008845762000884620029c8565b6020908102919091018101516001600160a01b031682528101919091526040015f205460ff1615620008bb57505f95945050505050565b60010162000862565b50505b5050506001600160a01b03165f9081526066602052604090205490565b620008ee62001570565b5f5b82518110156200094d5781606d5f858481518110620009135762000913620029c8565b6020908102919091018101516001600160a01b031682528101919091526040015f20805460ff1916911515919091179055600101620008f0565b508015620009ae575f8051602062003480833981519152825f5b60405190808252806020026020018201604052801562000991578160200160208202803683370190505b50604051620009a292919062002a21565b60405180910390a15050565b5f80516020620034808339815191525f5b604051908082528060200260200182016040528015620009e9578160200160208202803683370190505b5083604051620009a292919062002a21565b5050565b5f54610100900460ff161580801562000a1e57505f54600160ff909116105b8062000a42575062000a3030620015d3565b15801562000a4257505f5460ff166001145b62000a615760405162461bcd60e51b8152600401620007249062002a52565b5f805460ff19166001179055801562000a83575f805461ff0019166101001790555b62000a8e8662001386565b5f60655562000a9d85620015e2565b62000aa884620015e2565b62000ab382620015e2565b606780546001600160a01b038088166001600160a01b0319928316179092556068805487841690831617905560698054868416908316179055606a8054928516929091169190911790556040515f80516020620035078339815191529062000b1d908790620020b4565b60405180910390a1801562000b59575f805461ff0019169055604051600181525f80516020620034c08339815191529060200160405180910390a15b505050505050565b62000b6b62001570565b606980546001600160a01b0319166001600160a01b0392909216919091179055565b62000b9762001570565b62000ba281620015e2565b606b80546001600160a01b0319166001600160a01b0383161790556040517ff36089ae8fad57216928e8f6fa995a4278ca6299b06b50a5811dec5c66c680e39062000bef908390620020b4565b60405180910390a150565b6001600160a01b037f000000000000000000000000000000000000000000000000000000000000000016300362000c455760405162461bcd60e51b8152600401620007249062002aa0565b7f00000000000000000000000000000000000000000000000000000000000000006001600160a01b031662000c796200160a565b6001600160a01b03161462000ca25760405162461bcd60e51b8152600401620007249062002ada565b62000cad8162001626565b604080515f8082526020820190925262000cca9183919062001678565b50565b6001600160a01b037f000000000000000000000000000000000000000000000000000000000000000016300362000d185760405162461bcd60e51b8152600401620007249062002aa0565b7f00000000000000000000000000000000000000000000000000000000000000006001600160a01b031662000d4c6200160a565b6001600160a01b03161462000d755760405162461bcd60e51b8152600401620007249062002ada565b62000d808262001626565b620009fb8282600162001678565b5f306001600160a01b037f0000000000000000000000000000000000000000000000000000000000000000161462000e2a5760405162461bcd60e51b815260206004820152603860248201527f555550535570677261646561626c653a206d757374206e6f742062652063616c6044820152771b1959081d1a1c9bdd59da0819195b1959d85d1958d85b1b60421b606482015260840162000724565b505f80516020620034a083398151915290565b62000e4762001570565b6001600160a01b0382165f81815260666020908152604091829020600101805460ff19168515159081179091558251938452908301527fecdcd3502799a6c41864ea2682236184e876f63e10f8d56c7768a3d501e89f629101620009a2565b62000eb062001570565b606880546001600160a01b0319166001600160a01b0392909216919091179055565b62000edc62001570565b62000ee75f620017f4565b565b62000ef362001570565b62000efe81620015e2565b606780546001600160a01b0319166001600160a01b0383161790556040515f80516020620035078339815191529062000bef908390620020b4565b62000f4362001570565b5f5b825181101562000fa25781606c5f85848151811062000f685762000f68620029c8565b6020908102919091018101516001600160a01b031682528101919091526040015f20805460ff191691151591909117905560010162000f45565b50801562000fc1575f8051602062003527833981519152825f62000967565b5f80516020620035278339815191525f620009bf565b5f62000fe2620006cb565b6001600160a01b03163b5f0362000ffd57620006df620006cb565b62001007620006cb565b6001600160a01b0316638da5cb5b6040518163ffffffff1660e01b8152600401602060405180830381865afa92505050801562001063575060408051601f3d908101601f1916820190925262001060918101906200290b565b60015b6200107257620006df620006cb565b919050565b6200108162001570565b6200108e83606e62001845565b606f80546001600160a01b0319166001600160a01b0384161790556070620010b7828262002b9d565b50505050565b620010c762001570565b620010d483607162001845565b607280546001600160a01b0319166001600160a01b0384161790556073620010b7828262002b9d565b6200110762001570565b606a80546001600160a01b0319166001600160a01b0392909216919091179055565b6200113362001570565b6001600160a01b0382165f81815260666020908152604091829020849055815192835282018390527fa1ee82e4f177a8017f33ddddac05b7ceab1de9d46f7195e15e8aa2e8b88f3b1c9101620009a2565b606e545f90620011d25760405162461bcd60e51b815260206004820152601860248201527710dbdb5b5d5b9a5d1e48199858d95d1cc81b9bdd081cd95d60421b604482015260640162000724565b6071546200121d5760405162461bcd60e51b815260206004820152601760248201527614dd1c985d1959de48199858d95d1cc81b9bdd081cd95d604a1b604482015260640162000724565b62001380826200122e606e62001a05565b606f54607080546001600160a01b03909216916200124c9062002b14565b80601f01602080910402602001604051908101604052809291908181526020018280546200127a9062002b14565b8015620012c95780601f106200129f57610100808354040283529160200191620012c9565b820191905f5260205f20905b815481529060010190602001808311620012ab57829003601f168201915b5050505050620012da607162001a05565b607254607380546001600160a01b0390921691620012f89062002b14565b80601f0160208091040260200160405190810160405280929190818152602001828054620013269062002b14565b8015620013755780601f106200134b5761010080835404028352916020019162001375565b820191905f5260205f20905b8154815290600101906020018083116200135757829003601f168201915b505050505062001ca5565b92915050565b5f54610100900460ff1615808015620013a557505f54600160ff909116105b80620013c95750620013b730620015d3565b158015620013c957505f5460ff166001145b620013e85760405162461bcd60e51b8152600401620007249062002a52565b5f805460ff1916600117905580156200140a575f805461ff0019166101001790555b6200141582620017f4565b8015620009fb575f805461ff0019169055604051600181525f80516020620034c083398151915290602001620009a2565b5f54600290610100900460ff161580156200146757505f5460ff8083169116105b620014865760405162461bcd60e51b8152600401620007249062002a52565b5f805461ffff191660ff831617610100179055620014a362001570565b620014b087878762001077565b620014bd848484620010bd565b5f805461ff001916905560405160ff821681525f80516020620034c08339815191529060200160405180910390a150505050505050565b620014fe62001570565b6001600160a01b038116620015655760405162461bcd60e51b815260206004820152602660248201527f4f776e61626c653a206e6577206f776e657220697320746865207a65726f206160448201526564647265737360d01b606482015260840162000724565b62000cca81620017f4565b336200157b62000fd7565b6001600160a01b03161462000ee75760405162461bcd60e51b815260206004820181905260248201527f4f776e61626c653a2063616c6c6572206973206e6f7420746865206f776e6572604482015260640162000724565b6001600160a01b03163b151590565b6001600160a01b03811662000cca576040516303988b8160e61b815260040160405180910390fd5b5f80516020620034a0833981519152546001600160a01b031690565b336200163162000fd7565b6001600160a01b03161462000cca57336200164b62000fd7565b60405163163678e960e01b81526001600160a01b0392831660048201529116602482015260440162000724565b7f4910fdfa16fed3260ed0e7147f7cc6da11a60208b5b9406d12a635614ffd91435460ff1615620016b357620016ae8362001df5565b505050565b826001600160a01b03166352d1902d6040518163ffffffff1660e01b8152600401602060405180830381865afa92505050801562001710575060408051601f3d908101601f191682019092526200170d9181019062002c65565b60015b620017755760405162461bcd60e51b815260206004820152602e60248201527f45524331393637557067726164653a206e657720696d706c656d656e7461746960448201526d6f6e206973206e6f74205555505360901b606482015260840162000724565b5f80516020620034a08339815191528114620017e65760405162461bcd60e51b815260206004820152602960248201527f45524331393637557067726164653a20756e737570706f727465642070726f786044820152681a58589b195555525160ba1b606482015260840162000724565b50620016ae83838362001e93565b603380546001600160a01b038381166001600160a01b0319831681179093556040519116919082907f8be0079c531659141344cd1fd0a4f28419497f9722a3daafe3b4186f6b6457e0905f90a35050565b8054156200189b578080548062001860576200186062002c7d565b5f8281526020812060025f199093019283020180546001600160a81b0319168155906200189160018301826200205b565b5050905562001845565b5f5b8251811015620016ae5781546001018083555f83815290839083908110620018c957620018c9620029c8565b905f5260205f2090600202019050838281518110620018ec57620018ec620029c8565b60209081029190910101515181546001600160a01b0319166001600160a01b039091161781558351849083908110620019295762001929620029c8565b60209081029190910181015101518154829060ff60a01b1916600160a01b8360038111156200195c576200195c62002c91565b02179055505f848381518110620019775762001977620029c8565b60200260200101516040015190505f5b8151811015620019f95782600101828281518110620019aa57620019aa620029c8565b6020908102919091018101518254600180820185555f948552929093206008840401805463ffffffff60079095166004026101000a948502191660e09290921c93909302179091550162001987565b5050506001016200189d565b80546060905f906001600160401b0381111562001a265762001a2662002108565b60405190808252806020026020018201604052801562001a7457816020015b60408051606080820183525f80835260208301529181019190915281526020019060019003908162001a455790505b5090505f5b835481101562001c9e5783818154811062001a985762001a98620029c8565b5f91825260209091206002909102015482516001600160a01b039091169083908390811062001acb5762001acb620029c8565b60209081029190910101516001600160a01b039091169052835484908290811062001afa5762001afa620029c8565b905f5260205f2090600202015f0160149054906101000a900460ff1682828151811062001b2b5762001b2b620029c8565b602002602001015160200190600381111562001b4b5762001b4b62002c91565b9081600381111562001b615762001b6162002c91565b815250505f84828154811062001b7b5762001b7b620029c8565b905f5260205f209060020201600101905080805490506001600160401b0381111562001bab5762001bab62002108565b60405190808252806020026020018201604052801562001bd5578160200160208202803683370190505b5083838151811062001beb5762001beb620029c8565b6020026020010151604001819052505f5b815481101562001c935781818154811062001c1b5762001c1b620029c8565b905f5260205f2090600891828204019190066004029054906101000a900460e01b84848151811062001c515762001c51620029c8565b602002602001015160400151828151811062001c715762001c71620029c8565b6001600160e01b03199092166020928302919091019091015260010162001bfc565b505060010162001a79565b5092915050565b606580545f918262001cb78362002ca5565b9091555060808901523060a0890152606854606954606a545f926001600160a01b039081169263a76b4c4d60e01b928d92918216911662001cf7620006cb565b8d8d8d8d8d8d60405160240162001d189a9998979695949392919062002db4565b60408051601f198184030181529181526020820180516001600160e01b03166001600160e01b031990941693909317909252905162001d57906200207f565b62001d6492919062002f77565b604051809103905ff08015801562001d7e573d5f803e3d5ffd5b506001600160a01b0381165f90815260666020526040908190206001908101805460ff1916909117905551909150819081907fb4108a188495a1a681cdc0750af164011025a1773b41e93ff3e628adc037dc299062001ddf908390620020b4565b60405180910390a19a9950505050505050505050565b62001e0081620015d3565b62001e645760405162461bcd60e51b815260206004820152602d60248201527f455243313936373a206e657720696d706c656d656e746174696f6e206973206e60448201526c1bdd08184818dbdb9d1c9858dd609a1b606482015260840162000724565b5f80516020620034a083398151915280546001600160a01b0319166001600160a01b0392909216919091179055565b62001e9e8362001ebd565b5f8251118062001eab5750805b15620016ae57620010b7838362001efe565b62001ec88162001df5565b6040516001600160a01b038216907fbc7cd75a20ee27fd9adebab32041f755214dbc6bffa90cc0225b39da2e5c2d3b905f90a250565b606062001f268383604051806060016040528060278152602001620034e06027913962001f2d565b9392505050565b60605f80856001600160a01b03168560405162001f4b919062002f9c565b5f60405180830381855af49150503d805f811462001f85576040519150601f19603f3d011682016040523d82523d5f602084013e62001f8a565b606091505b509150915062001f9d8683838762001fa7565b9695505050505050565b606083156200201a5782515f03620020125762001fc485620015d3565b620020125760405162461bcd60e51b815260206004820152601d60248201527f416464726573733a2063616c6c20746f206e6f6e2d636f6e7472616374000000604482015260640162000724565b508162002026565b6200202683836200202e565b949350505050565b8151156200203f5781518083602001fd5b8060405162461bcd60e51b8152600401620007249190620028f7565b5080545f825560070160089004905f5260205f209081019062000cca91906200208d565b6104a68062002fba83390190565b5b80821115620020a3575f81556001016200208e565b5090565b6001600160a01b03169052565b6001600160a01b0391909116815260200190565b6001600160a01b038116811462000cca575f80fd5b80356200107281620020c8565b5f60208284031215620020fb575f80fd5b813562001f2681620020c8565b634e487b7160e01b5f52604160045260245ffd5b604051606081016001600160401b038111828210171562002141576200214162002108565b60405290565b60405161018081016001600160401b038111828210171562002141576200214162002108565b604051601f8201601f191681016001600160401b038111828210171562002198576200219862002108565b604052919050565b5f6001600160401b03821115620021bb57620021bb62002108565b5060051b60200190565b8035801515811462001072575f80fd5b5f8060408385031215620021e7575f80fd5b82356001600160401b03811115620021fd575f80fd5b8301601f810185136200220e575f80fd5b80356020620022276200222183620021a0565b6200216d565b82815260059290921b8301810191818101908884111562002246575f80fd5b938201935b83851015620022715784356200226181620020c8565b825293820193908201906200224b565b9550620022829050868201620021c5565b93505050509250929050565b5f805f805f60a08688031215620022a3575f80fd5b8535620022b081620020c8565b94506020860135620022c281620020c8565b93506040860135620022d481620020c8565b92506060860135620022e681620020c8565b91506080860135620022f881620020c8565b809150509295509295909350565b5f82601f83011262002316575f80fd5b81356001600160401b0381111562002332576200233262002108565b62002347601f8201601f19166020016200216d565b8181528460208386010111156200235c575f80fd5b816020850160208301375f918101602001919091529392505050565b5f80604083850312156200238a575f80fd5b82356200239781620020c8565b915060208301356001600160401b03811115620023b2575f80fd5b620023c08582860162002306565b9150509250929050565b5f8060408385031215620023dc575f80fd5b8235620023e981620020c8565b9150620023f960208401620021c5565b90509250929050565b5f82601f83011262002412575f80fd5b81356020620024256200222183620021a0565b828152600592831b850182019282820191908785111562002444575f80fd5b8387015b85811015620025565780356001600160401b038082111562002468575f80fd5b908901906060828c03601f190181131562002481575f80fd5b6200248b6200211c565b888401356200249a81620020c8565b815260408481013560048110620024af575f80fd5b828b0152918401359183831115620024c5575f80fd5b82850194508d603f860112620024d9575f80fd5b898501359350620024ee6200222185620021a0565b84815293871b85018101938a810193508e8511156200250b575f80fd5b948101945b84861015620025415785356001600160e01b03198116811462002531575f80fd5b8452948a0194928a019262002510565b90820152875250505092840192840162002448565b5090979650505050505050565b5f805f6060848603121562002576575f80fd5b83356001600160401b03808211156200258d575f80fd5b6200259b8783880162002402565b945060208601359150620025af82620020c8565b90925060408501359080821115620025c5575f80fd5b50620025d48682870162002306565b9150509250925092565b5f8060408385031215620025f0575f80fd5b8235620025fd81620020c8565b946020939093013593505050565b5f604082840312156200261c575f80fd5b604080519081016001600160401b03808211838310171562002642576200264262002108565b8160405282935084358352602085013591508082111562002661575f80fd5b50620026708582860162002306565b6020830152505092915050565b5f602082840312156200268e575f80fd5b81356001600160401b0380821115620026a5575f80fd5b908301906101808286031215620026ba575f80fd5b620026c462002147565b620026cf83620020dd565b8152620026df60208401620020dd565b60208201526040830135604082015260608301356060820152608083013560808201526200271060a08401620020dd565b60a08201526200272360c08401620020dd565b60c082015260e0830135828111156200273a575f80fd5b62002748878286016200260b565b60e0830152506101006200275e818501620020dd565b90820152610120838101358381111562002776575f80fd5b620027848882870162002306565b8284015250506101406200279a818501620021c5565b908201526101608381013583811115620027b2575f80fd5b620027c08882870162002306565b918301919091525095945050505050565b5f805f805f8060c08789031215620027e7575f80fd5b86356001600160401b0380821115620027fe575f80fd5b6200280c8a838b0162002402565b97506200281c60208a01620020dd565b9650604089013591508082111562002832575f80fd5b620028408a838b0162002306565b9550606089013591508082111562002856575f80fd5b620028648a838b0162002402565b94506200287460808a01620020dd565b935060a08901359150808211156200288a575f80fd5b506200289989828a0162002306565b9150509295509295509295565b5f5b83811015620028c2578181015183820152602001620028a8565b50505f910152565b5f8151808452620028e3816020860160208601620028a6565b601f01601f19169290920160200192915050565b602081525f62001f266020830184620028ca565b5f602082840312156200291c575f80fd5b815162001f2681620020c8565b5f60208083850312156200293b575f80fd5b82516001600160401b0381111562002951575f80fd5b8301601f8101851362002962575f80fd5b8051620029736200222182620021a0565b81815260059190911b8201830190838101908783111562002992575f80fd5b928401925b82841015620029bd578351620029ad81620020c8565b8252928401929084019062002997565b979650505050505050565b634e487b7160e01b5f52603260045260245ffd5b5f815180845260208085019450602084015f5b8381101562002a165781516001600160a01b031687529582019590820190600101620029ef565b509495945050505050565b604081525f62002a356040830185620029dc565b828103602084015262002a498185620029dc565b95945050505050565b6020808252602e908201527f496e697469616c697a61626c653a20636f6e747261637420697320616c72656160408201526d191e481a5b9a5d1a585b1a5e995960921b606082015260800190565b6020808252602c908201525f805160206200346083398151915260408201526b19195b1959d85d1958d85b1b60a21b606082015260800190565b6020808252602c908201525f805160206200346083398151915260408201526b6163746976652070726f787960a01b606082015260800190565b600181811c9082168062002b2957607f821691505b60208210810362002b4857634e487b7160e01b5f52602260045260245ffd5b50919050565b601f821115620016ae57805f5260205f20601f840160051c8101602085101562002b755750805b601f840160051c820191505b8181101562002b96575f815560010162002b81565b5050505050565b81516001600160401b0381111562002bb95762002bb962002108565b62002bd18162002bca845462002b14565b8462002b4e565b602080601f83116001811462002c07575f841562002bef5750858301515b5f19600386901b1c1916600185901b17855562000b59565b5f85815260208120601f198616915b8281101562002c375788860151825594840194600190910190840162002c16565b508582101562002c5557878501515f19600388901b60f8161c191681555b5050505050600190811b01905550565b5f6020828403121562002c76575f80fd5b5051919050565b634e487b7160e01b5f52603160045260245ffd5b634e487b7160e01b5f52602160045260245ffd5b5f6001820162002cc357634e487b7160e01b5f52601160045260245ffd5b5060010190565b805182525f602082015160406020850152620020266040850182620028ca565b5f82825180855260208086019550808260051b8401018186015f5b848110156200255657858303601f19018952815180516001600160a01b031684528481015160609081860190600480821062002d4e57634e487b7160e01b5f526021815260245ffd5b5086880152604092830151928601919091528151908190529085019060808501905f905b8082101562002d9e5783516001600160e01b031916835292870192918701916001919091019062002d72565b5050998501999350509083019060010162002d05565b610140815262002dca61014082018c51620020a7565b5f60208c015162002de0610160840182620020a7565b5060408c015161018083015260608c01516101a083015260808c01516101c083015260a08c015162002e176101e0840182620020a7565b5060c08c015162002e2d610200840182620020a7565b5060e08c015161018061022084015262002e4c6102c084018262002cca565b90506101008d015162002e64610240850182620020a7565b506101208d015161013f19808584030161026086015262002e868383620028ca565b92506101408f0151915062002ea061028086018315159052565b6101608f0151915080858403016102a08601525062002ec08282620028ca565b91505062002ed2602084018d620020a7565b62002ee1604084018c620020a7565b62002ef0606084018b620020a7565b828103608084015262002f04818a62002cea565b905062002f1560a0840189620020a7565b82810360c084015262002f298188620028ca565b905082810360e084015262002f3f818762002cea565b905062002f51610100840186620020a7565b82810361012084015262002f668185620028ca565b9d9c50505050505050505050505050565b6001600160a01b03831681526040602082018190525f906200202690830184620028ca565b5f825162002faf818460208701620028a6565b919091019291505056fe60806040526040516104a63803806104a6833981016040819052610022916102dd565b61002d82825f610034565b50506103f2565b61003d8361005f565b5f825111806100495750805b1561005a57610058838361009e565b505b505050565b610068816100ca565b6040516001600160a01b038216907fbc7cd75a20ee27fd9adebab32041f755214dbc6bffa90cc0225b39da2e5c2d3b905f90a250565b60606100c3838360405180606001604052806027815260200161047f6027913961017b565b9392505050565b6100d3816101f0565b61013a5760405162461bcd60e51b815260206004820152602d60248201527f455243313936373a206e657720696d706c656d656e746174696f6e206973206e60448201526c1bdd08184818dbdb9d1c9858dd609a1b60648201526084015b60405180910390fd5b7f360894a13ba1a3210667c828492db98dca3e2076cc3735a920a3ca505d382bbc80546001600160a01b0319166001600160a01b0392909216919091179055565b60605f80856001600160a01b03168560405161019791906103a5565b5f60405180830381855af49150503d805f81146101cf576040519150601f19603f3d011682016040523d82523d5f602084013e6101d4565b606091505b5090925090506101e6868383876101ff565b9695505050505050565b6001600160a01b03163b151590565b6060831561026b5782515f0361026457610218856101f0565b6102645760405162461bcd60e51b815260206004820152601d60248201527f416464726573733a2063616c6c20746f206e6f6e2d636f6e74726163740000006044820152606401610131565b5081610275565b610275838361027d565b949350505050565b81511561028d5781518083602001fd5b8060405162461bcd60e51b815260040161013191906103c0565b634e487b7160e01b5f52604160045260245ffd5b5f5b838110156102d55781810151838201526020016102bd565b50505f910152565b5f80604083850312156102ee575f80fd5b82516001600160a01b0381168114610304575f80fd5b60208401519092506001600160401b0380821115610320575f80fd5b818501915085601f830112610333575f80fd5b815181811115610345576103456102a7565b604051601f8201601f19908116603f0116810190838211818310171561036d5761036d6102a7565b81604052828152886020848701011115610385575f80fd5b6103968360208301602088016102bb565b80955050505050509250929050565b5f82516103b68184602087016102bb565b9190910192915050565b602081525f82518060208401526103de8160408501602087016102bb565b601f01601f19169190910160400192915050565b6081806103fe5f395ff3fe608060405236601057600e6013565b005b600e5b601f601b6021565b6057565b565b5f60527f360894a13ba1a3210667c828492db98dca3e2076cc3735a920a3ca505d382bbc546001600160a01b031690565b905090565b365f80375f80365f845af43d5f803e8080156070573d5ff35b3d5ffdfea164736f6c6343000817000a416464726573733a206c6f772d6c6576656c2064656c65676174652063616c6c206661696c656446756e6374696f6e206d7573742062652063616c6c6564207468726f7567682099650b9d916775b3b2e44f9aae79e2813e1dbfea1e69425eeb145566ab71d209360894a13ba1a3210667c828492db98dca3e2076cc3735a920a3ca505d382bbc7f26b83ff96e1f2b6a682f133852f6798a09c465da95921460cefb3847402498416464726573733a206c6f772d6c6576656c2064656c65676174652063616c6c206661696c6564bdf37c276f641820b141429d245add2552b4118c0866e5a78638e3de5ef18d9de50e6cedeb6a710820f2b7f26dc2d904a9b3ef0b2c087cf8ca10697647951d7da164736f6c6343000817000a","linkReferences":{}},"methodIdentifiers":{"VERSION()":"ffa1ad74","collateralVaultTemplate()":"77122d56","createRegistry((address,address,uint256,uint256,uint256,address,address,(uint256,string),address,string,bool,string))":"beb331a3","gardensFeeReceiver()":"b8bed901","getCommunityValidity(address)":"f5016b5e","getGardensFeeReceiver()":"987435be","getProtocolFee(address)":"0a992e0c","getStreamingEscrowFactory()":"7f7960f3","initialize(address)":"c4d66de8","initialize(address,address,address,address,address)":"1459457a","initializeV2((address,uint8,bytes4[])[],address,bytes,(address,uint8,bytes4[])[],address,bytes)":"e0e77905","keepersAddresses(address)":"1f4b502e","nonce()":"affed0e0","owner()":"8da5cb5b","protopiansAddresses(address)":"083e8f97","proxiableUUID()":"52d1902d","proxyOwner()":"025313a2","registryCommunityTemplate()":"02c1d0b1","renounceOwnership()":"715018a6","setCollateralVaultTemplate(address)":"b0d3713a","setCommunityFacets((address,uint8,bytes4[])[],address,bytes)":"90147c6b","setCommunityValidity(address,bool)":"5a2c8ace","setKeeperAddress(address[],bool)":"1425d1ec","setProtocolFee(address,uint256)":"b5b3ca2c","setProtopianAddress(address[],bool)":"8d3ad8a4","setReceiverAddress(address)":"8279c7db","setRegistryCommunityTemplate(address)":"5decae02","setStrategyFacets((address,uint8,bytes4[])[],address,bytes)":"a6a85d88","setStrategyTemplate(address)":"1b71f0e4","setStreamingEscrowFactory(address)":"1d413a8a","strategyTemplate()":"5c94e4d2","streamingEscrowFactory()":"1d12d3c7","transferOwnership(address)":"f2fde38b","upgradeTo(address)":"3659cfe6","upgradeToAndCall(address,bytes)":"4f1ef286"},"storageLayout":{"storage":[{"astId":53054,"contract":"pkg/contracts/src/RegistryFactory/RegistryFactory.sol:RegistryFactory","label":"_initialized","offset":0,"slot":"0","type":"t_uint8"},{"astId":53057,"contract":"pkg/contracts/src/RegistryFactory/RegistryFactory.sol:RegistryFactory","label":"_initializing","offset":1,"slot":"0","type":"t_bool"},{"astId":53759,"contract":"pkg/contracts/src/RegistryFactory/RegistryFactory.sol:RegistryFactory","label":"__gap","offset":0,"slot":"1","type":"t_array(t_uint256)50_storage"},{"astId":52846,"contract":"pkg/contracts/src/RegistryFactory/RegistryFactory.sol:RegistryFactory","label":"_owner","offset":0,"slot":"51","type":"t_address"},{"astId":52966,"contract":"pkg/contracts/src/RegistryFactory/RegistryFactory.sol:RegistryFactory","label":"__gap","offset":0,"slot":"52","type":"t_array(t_uint256)49_storage"},{"astId":113650,"contract":"pkg/contracts/src/RegistryFactory/RegistryFactory.sol:RegistryFactory","label":"nonce","offset":0,"slot":"101","type":"t_uint256"},{"astId":113655,"contract":"pkg/contracts/src/RegistryFactory/RegistryFactory.sol:RegistryFactory","label":"communityToInfo","offset":0,"slot":"102","type":"t_mapping(t_address,t_struct(CommunityInfo)113642_storage)"},{"astId":113657,"contract":"pkg/contracts/src/RegistryFactory/RegistryFactory.sol:RegistryFactory","label":"gardensFeeReceiver","offset":0,"slot":"103","type":"t_address"},{"astId":113659,"contract":"pkg/contracts/src/RegistryFactory/RegistryFactory.sol:RegistryFactory","label":"registryCommunityTemplate","offset":0,"slot":"104","type":"t_address"},{"astId":113661,"contract":"pkg/contracts/src/RegistryFactory/RegistryFactory.sol:RegistryFactory","label":"strategyTemplate","offset":0,"slot":"105","type":"t_address"},{"astId":113663,"contract":"pkg/contracts/src/RegistryFactory/RegistryFactory.sol:RegistryFactory","label":"collateralVaultTemplate","offset":0,"slot":"106","type":"t_address"},{"astId":113665,"contract":"pkg/contracts/src/RegistryFactory/RegistryFactory.sol:RegistryFactory","label":"streamingEscrowFactory","offset":0,"slot":"107","type":"t_address"},{"astId":113669,"contract":"pkg/contracts/src/RegistryFactory/RegistryFactory.sol:RegistryFactory","label":"protopiansAddresses","offset":0,"slot":"108","type":"t_mapping(t_address,t_bool)"},{"astId":113673,"contract":"pkg/contracts/src/RegistryFactory/RegistryFactory.sol:RegistryFactory","label":"keepersAddresses","offset":0,"slot":"109","type":"t_mapping(t_address,t_bool)"},{"astId":113677,"contract":"pkg/contracts/src/RegistryFactory/RegistryFactory.sol:RegistryFactory","label":"communityFacetCuts","offset":0,"slot":"110","type":"t_array(t_struct(FacetCut)115552_storage)dyn_storage"},{"astId":113679,"contract":"pkg/contracts/src/RegistryFactory/RegistryFactory.sol:RegistryFactory","label":"communityInit","offset":0,"slot":"111","type":"t_address"},{"astId":113681,"contract":"pkg/contracts/src/RegistryFactory/RegistryFactory.sol:RegistryFactory","label":"communityInitCalldata","offset":0,"slot":"112","type":"t_bytes_storage"},{"astId":113685,"contract":"pkg/contracts/src/RegistryFactory/RegistryFactory.sol:RegistryFactory","label":"strategyFacetCuts","offset":0,"slot":"113","type":"t_array(t_struct(FacetCut)115552_storage)dyn_storage"},{"astId":113687,"contract":"pkg/contracts/src/RegistryFactory/RegistryFactory.sol:RegistryFactory","label":"strategyInit","offset":0,"slot":"114","type":"t_address"},{"astId":113689,"contract":"pkg/contracts/src/RegistryFactory/RegistryFactory.sol:RegistryFactory","label":"strategyInitCalldata","offset":0,"slot":"115","type":"t_bytes_storage"},{"astId":114608,"contract":"pkg/contracts/src/RegistryFactory/RegistryFactory.sol:RegistryFactory","label":"__gap","offset":0,"slot":"116","type":"t_array(t_uint256)44_storage"}],"types":{"t_address":{"encoding":"inplace","label":"address","numberOfBytes":"20"},"t_array(t_bytes4)dyn_storage":{"encoding":"dynamic_array","label":"bytes4[]","numberOfBytes":"32","base":"t_bytes4"},"t_array(t_struct(FacetCut)115552_storage)dyn_storage":{"encoding":"dynamic_array","label":"struct IDiamond.FacetCut[]","numberOfBytes":"32","base":"t_struct(FacetCut)115552_storage"},"t_array(t_uint256)44_storage":{"encoding":"inplace","label":"uint256[44]","numberOfBytes":"1408","base":"t_uint256"},"t_array(t_uint256)49_storage":{"encoding":"inplace","label":"uint256[49]","numberOfBytes":"1568","base":"t_uint256"},"t_array(t_uint256)50_storage":{"encoding":"inplace","label":"uint256[50]","numberOfBytes":"1600","base":"t_uint256"},"t_bool":{"encoding":"inplace","label":"bool","numberOfBytes":"1"},"t_bytes4":{"encoding":"inplace","label":"bytes4","numberOfBytes":"4"},"t_bytes_storage":{"encoding":"bytes","label":"bytes","numberOfBytes":"32"},"t_enum(FacetCutAction)115543":{"encoding":"inplace","label":"enum IDiamond.FacetCutAction","numberOfBytes":"1"},"t_mapping(t_address,t_bool)":{"encoding":"mapping","key":"t_address","label":"mapping(address => bool)","numberOfBytes":"32","value":"t_bool"},"t_mapping(t_address,t_struct(CommunityInfo)113642_storage)":{"encoding":"mapping","key":"t_address","label":"mapping(address => struct CommunityInfo)","numberOfBytes":"32","value":"t_struct(CommunityInfo)113642_storage"},"t_struct(CommunityInfo)113642_storage":{"encoding":"inplace","label":"struct CommunityInfo","numberOfBytes":"64","members":[{"astId":113639,"contract":"pkg/contracts/src/RegistryFactory/RegistryFactory.sol:RegistryFactory","label":"fee","offset":0,"slot":"0","type":"t_uint256"},{"astId":113641,"contract":"pkg/contracts/src/RegistryFactory/RegistryFactory.sol:RegistryFactory","label":"valid","offset":0,"slot":"1","type":"t_bool"}]},"t_struct(FacetCut)115552_storage":{"encoding":"inplace","label":"struct IDiamond.FacetCut","numberOfBytes":"64","members":[{"astId":115545,"contract":"pkg/contracts/src/RegistryFactory/RegistryFactory.sol:RegistryFactory","label":"facetAddress","offset":0,"slot":"0","type":"t_address"},{"astId":115548,"contract":"pkg/contracts/src/RegistryFactory/RegistryFactory.sol:RegistryFactory","label":"action","offset":20,"slot":"0","type":"t_enum(FacetCutAction)115543"},{"astId":115551,"contract":"pkg/contracts/src/RegistryFactory/RegistryFactory.sol:RegistryFactory","label":"functionSelectors","offset":0,"slot":"1","type":"t_array(t_bytes4)dyn_storage"}]},"t_uint256":{"encoding":"inplace","label":"uint256","numberOfBytes":"32"},"t_uint8":{"encoding":"inplace","label":"uint8","numberOfBytes":"1"}}},"id":196}