{"abi":[{"type":"function","name":"createRegistry","inputs":[{"name":"params","type":"tuple","internalType":"struct RegistryCommunity.InitializeParams","components":[{"name":"_allo","type":"address","internalType":"address"},{"name":"_gardenToken","type":"address","internalType":"contract IERC20"},{"name":"_registerStakeAmount","type":"uint256","internalType":"uint256"},{"name":"_communityFee","type":"uint256","internalType":"uint256"},{"name":"_nonce","type":"uint256","internalType":"uint256"},{"name":"_registryFactory","type":"address","internalType":"address"},{"name":"_feeReceiver","type":"address","internalType":"address"},{"name":"_metadata","type":"tuple","internalType":"struct Metadata","components":[{"name":"protocol","type":"uint256","internalType":"uint256"},{"name":"pointer","type":"string","internalType":"string"}]},{"name":"_councilSafe","type":"address","internalType":"address payable"},{"name":"_communityName","type":"string","internalType":"string"},{"name":"_isKickEnabled","type":"bool","internalType":"bool"},{"name":"covenantIpfsHash","type":"string","internalType":"string"}]}],"outputs":[{"name":"_createdRegistryAddress","type":"address","internalType":"address"}],"stateMutability":"nonpayable"},{"type":"function","name":"gardensFeeReceiver","inputs":[],"outputs":[{"name":"","type":"address","internalType":"address"}],"stateMutability":"view"},{"type":"function","name":"getGardensFeeReceiver","inputs":[],"outputs":[{"name":"","type":"address","internalType":"address"}],"stateMutability":"view"},{"type":"function","name":"getProtocolFee","inputs":[{"name":"_community","type":"address","internalType":"address"}],"outputs":[{"name":"","type":"uint256","internalType":"uint256"}],"stateMutability":"view"},{"type":"function","name":"nonce","inputs":[],"outputs":[{"name":"","type":"uint256","internalType":"uint256"}],"stateMutability":"view"},{"type":"function","name":"owner","inputs":[],"outputs":[{"name":"","type":"address","internalType":"address"}],"stateMutability":"view"},{"type":"function","name":"renounceOwnership","inputs":[],"outputs":[],"stateMutability":"nonpayable"},{"type":"function","name":"setCommunityValidity","inputs":[{"name":"_community","type":"address","internalType":"address"},{"name":"_isValid","type":"bool","internalType":"bool"}],"outputs":[],"stateMutability":"nonpayable"},{"type":"function","name":"setProtocolFee","inputs":[{"name":"_community","type":"address","internalType":"address"},{"name":"_newProtocolFee","type":"uint256","internalType":"uint256"}],"outputs":[],"stateMutability":"nonpayable"},{"type":"function","name":"setReceiverAddress","inputs":[{"name":"_newFeeReceiver","type":"address","internalType":"address"}],"outputs":[],"stateMutability":"nonpayable"},{"type":"function","name":"transferOwnership","inputs":[{"name":"newOwner","type":"address","internalType":"address"}],"outputs":[],"stateMutability":"nonpayable"},{"type":"event","name":"CommunityCreated","inputs":[{"name":"_registryCommunity","type":"address","indexed":false,"internalType":"address"}],"anonymous":false},{"type":"event","name":"CommunityValiditySet","inputs":[{"name":"_community","type":"address","indexed":false,"internalType":"address"},{"name":"_isValid","type":"bool","indexed":false,"internalType":"bool"}],"anonymous":false},{"type":"event","name":"FeeReceiverSet","inputs":[{"name":"_newFeeReceiver","type":"address","indexed":false,"internalType":"address"}],"anonymous":false},{"type":"event","name":"OwnershipTransferred","inputs":[{"name":"previousOwner","type":"address","indexed":true,"internalType":"address"},{"name":"newOwner","type":"address","indexed":true,"internalType":"address"}],"anonymous":false},{"type":"event","name":"ProtocolFeeSet","inputs":[{"name":"_community","type":"address","indexed":false,"internalType":"address"},{"name":"_newProtocolFee","type":"uint256","indexed":false,"internalType":"uint256"}],"anonymous":false},{"type":"error","name":"CommunityInvalid","inputs":[{"name":"_community","type":"address","internalType":"address"}]}],"bytecode":{"object":"0x6080604052600060015534801561001557600080fd5b5061001f33610024565b610074565b600080546001600160a01b038381166001600160a01b0319831681178455604051919092169283917f8be0079c531659141344cd1fd0a4f28419497f9722a3daafe3b4186f6b6457e09190a35050565b61470e806100836000396000f3fe608060405234801561001057600080fd5b50600436106100c95760003560e01c8063987435be11610081578063b8bed9011161005b578063b8bed90114610176578063beb331a314610189578063f2fde38b1461019c57600080fd5b8063987435be14610149578063affed0e01461015a578063b5b3ca2c1461016357600080fd5b8063715018a6116100b2578063715018a6146101095780638279c7db146101115780638da5cb5b1461012457600080fd5b80630a992e0c146100ce5780635a2c8ace146100f4575b600080fd5b6100e16100dc36600461060f565b6101af565b6040519081526020015b60405180910390f35b610107610102366004610643565b610230565b005b61010761029c565b61010761011f36600461060f565b6102b0565b6000546001600160a01b03165b6040516001600160a01b0390911681526020016100eb565b6003546001600160a01b0316610131565b6100e160015481565b610107610171366004610678565b610319565b600354610131906001600160a01b031681565b6101316101973660046107e0565b610375565b6101076101aa36600461060f565b610496565b6001600160a01b03811660009081526002602052604081205460ff16610211576040517ff5a6943d0000000000000000000000000000000000000000000000000000000081526001600160a01b03831660048201526024015b60405180910390fd5b506001600160a01b031660009081526002602052604090206001015490565b610238610526565b6001600160a01b038216600081815260026020908152604091829020805460ff19168515159081179091558251938452908301527fecdcd3502799a6c41864ea2682236184e876f63e10f8d56c7768a3d501e89f6291015b60405180910390a15050565b6102a4610526565b6102ae6000610580565b565b6102b8610526565b6003805473ffffffffffffffffffffffffffffffffffffffff19166001600160a01b0383169081179091556040519081527fbdf37c276f641820b141429d245add2552b4118c0866e5a78638e3de5ef18d9d9060200160405180910390a150565b610321610526565b6001600160a01b038216600081815260026020908152604091829020600101849055815192835282018390527fa1ee82e4f177a8017f33ddddac05b7ceab1de9d46f7195e15e8aa2e8b88f3b1c9101610290565b600080604051610384906105dd565b604051809103906000f0801580156103a0573d6000803e3d6000fd5b506001805491925060006103b383610922565b9091555060808401523060a08401526040517fd14329e00000000000000000000000000000000000000000000000000000000081526001600160a01b0382169063d14329e0906104079086906004016109b6565b600060405180830381600087803b15801561042157600080fd5b505af1158015610435573d6000803e3d6000fd5b505050506001600160a01b038116600081815260026020908152604091829020805460ff1916600117905590519182527fb4108a188495a1a681cdc0750af164011025a1773b41e93ff3e628adc037dc29910160405180910390a192915050565b61049e610526565b6001600160a01b03811661051a5760405162461bcd60e51b815260206004820152602660248201527f4f776e61626c653a206e6577206f776e657220697320746865207a65726f206160448201527f64647265737300000000000000000000000000000000000000000000000000006064820152608401610208565b61052381610580565b50565b6000546001600160a01b031633146102ae5760405162461bcd60e51b815260206004820181905260248201527f4f776e61626c653a2063616c6c6572206973206e6f7420746865206f776e65726044820152606401610208565b600080546001600160a01b0383811673ffffffffffffffffffffffffffffffffffffffff19831681178455604051919092169283917f8be0079c531659141344cd1fd0a4f28419497f9722a3daafe3b4186f6b6457e09190a35050565b613c0580610ad483390190565b6001600160a01b038116811461052357600080fd5b803561060a816105ea565b919050565b60006020828403121561062157600080fd5b813561062c816105ea565b9392505050565b8035801515811461060a57600080fd5b6000806040838503121561065657600080fd5b8235610661816105ea565b915061066f60208401610633565b90509250929050565b6000806040838503121561068b57600080fd5b8235610696816105ea565b946020939093013593505050565b634e487b7160e01b600052604160045260246000fd5b604051610180810167ffffffffffffffff811182821017156106de576106de6106a4565b60405290565b600082601f8301126106f557600080fd5b813567ffffffffffffffff80821115610710576107106106a4565b604051601f8301601f19908116603f01168101908282118183101715610738576107386106a4565b8160405283815286602085880101111561075157600080fd5b836020870160208301376000602085830101528094505050505092915050565b60006040828403121561078357600080fd5b6040516040810167ffffffffffffffff82821081831117156107a7576107a76106a4565b816040528293508435835260208501359150808211156107c657600080fd5b506107d3858286016106e4565b6020830152505092915050565b6000602082840312156107f257600080fd5b813567ffffffffffffffff8082111561080a57600080fd5b90830190610180828603121561081f57600080fd5b6108276106ba565b610830836105ff565b815261083e602084016105ff565b602082015260408301356040820152606083013560608201526080830135608082015261086d60a084016105ff565b60a082015261087e60c084016105ff565b60c082015260e08301358281111561089557600080fd5b6108a187828601610771565b60e0830152506101006108b58185016105ff565b9082015261012083810135838111156108cd57600080fd5b6108d9888287016106e4565b8284015250506101406108ed818501610633565b90820152610160838101358381111561090557600080fd5b610911888287016106e4565b918301919091525095945050505050565b60006001820161094257634e487b7160e01b600052601160045260246000fd5b5060010190565b6000815180845260005b8181101561096f57602081850181015186830182015201610953565b506000602082860101526020601f19601f83011685010191505092915050565b8051825260006020820151604060208501526109ae6040850182610949565b949350505050565b602081526109d06020820183516001600160a01b03169052565b600060208301516109ec60408401826001600160a01b03169052565b506040830151606083015260608301516080830152608083015160a083015260a0830151610a2560c08401826001600160a01b03169052565b5060c08301516001600160a01b03811660e08401525060e08301516101806101008181860152610a596101a086018461098f565b90860151909250610120610a77868201836001600160a01b03169052565b80870151915050601f19610140818786030181880152610a978584610949565b945080880151925050610160610ab08188018415159052565b870151868503909101838701529050610ac98382610949565b969550505050505056fe60806040523480156200001157600080fd5b506001600090815562000046907fbc6bbe35ebc64943402c04d2ae016d7bd2bba28e1a11cf66be743c9bd74c720b906200004c565b62000099565b6000828152600160208190526040808320909101805490849055905190918391839186917fbd79b86ffe0ab8e8776151514217cd7cacd52c909f66475c3af44e129f0b00ff9190a4505050565b613b5c80620000a96000396000f3fe608060405234801561001057600080fd5b50600436106103415760003560e01c806368decabb116101bd578063b3f00674116100f9578063d547741f116100a2578063db61d65c1161007c578063db61d65c146107fc578063ebd7dc521461080f578063f86c5f8914610822578063fff501821461083a57600080fd5b8063d547741f146107cd578063d6d8428d146107e0578063d7050f07146107f357600080fd5b8063b99b4370116100d3578063b99b4370146107aa578063c6d572ae146107b2578063d14329e0146107ba57600080fd5b8063b3f006741461077a578063b5058c501461078d578063b64e39af1461079557600080fd5b806388cfe68411610166578063a0b21cdf11610140578063a0b21cdf146106d9578063a0cf0aea14610700578063a217fddf1461071b578063a230c5241461072357600080fd5b806388cfe684146106345780638961be6b1461069757806391d14854146106a057600080fd5b80637817ee4f116101975780637817ee4f146105df57806378a0b8a9146106185780637b1039991461062157600080fd5b806368decabb146105965780636c53db9a146105a95780636ff61ab3146105bc57600080fd5b80632f2ff15d1161028c5780633a871fe111610235578063559de05d1161020f578063559de05d146105325780635ecf71c51461054557806365e3864c146105585780636871eb4d1461058357600080fd5b80633a871fe1146104ce5780633c092330146104f1578063477a5cc01461050457600080fd5b80633517aa7d116102665780633517aa7d146104a057806336568abe146104a8578063397e2543146104bb57600080fd5b80632f2ff15d1461046757806331f61bca1461047a57806334c832491461048d57600080fd5b8063223e5479116102ee57806328c309e9116102c857806328c309e9146104085780632b38c69c146104105780632c611c4a1461043b57600080fd5b8063223e5479146103be57806322bcf999146103d1578063248a9ca3146103e457600080fd5b80630d4a8b491161031f5780630d4a8b4914610389578063175188e81461039e5780631f787d28146103b157600080fd5b806301ffc9a7146103465780630331383c1461036e57806308386eba14610380575b600080fd5b610359610354366004612ed6565b61086a565b60405190151581526020015b60405180910390f35b6005545b604051908152602001610365565b61037260085481565b61039c610397366004612f25565b6108d3565b005b61039c6103ac366004612f5e565b610b6c565b6009546103599060ff1681565b61039c6103cc366004612f5e565b610bd5565b61039c6103df366004612f25565b610c84565b6103726103f2366004612f7b565b6000908152600160208190526040909120015490565b610372610d89565b61042361041e366004612f94565b610e78565b6040516001600160a01b039091168152602001610365565b610372610449366004612f5e565b6001600160a01b03166000908152600f602052604090206001015490565b61039c610475366004612fc0565b610eb0565b61039c610488366004612f7b565b610edb565b61039c61049b366004612f7b565b610f18565b61039c610f55565b61039c6104b6366004612fc0565b6111cc565b61039c6104c9366004612f5e565b61125d565b6103596104dc366004612f5e565b60106020526000908152604090205460ff1681565b61039c6104ff366004612f5e565b6112ca565b610359610512366004612f25565b601160209081526000928352604080842090915290825290205460ff1681565b61039c610540366004612f7b565b611318565b61039c610553366004612f7b565b611512565b610372610566366004612f25565b601360209081526000928352604080842090915290825290205481565b61039c610591366004612f25565b611787565b600a54610423906001600160a01b031681565b600b54610423906001600160a01b031681565b6103596105ca366004612f5e565b600e6020526000908152604090205460ff1681565b6103726105ed366004612f25565b6001600160a01b03918216600090815260136020908152604080832093909416825291909152205490565b61037260055481565b600354610423906001600160a01b031681565b610670610642366004612f5e565b600f602052600090815260409020805460018201546002909201546001600160a01b03909116919060ff1683565b604080516001600160a01b0390941684526020840192909252151590820152606001610365565b61037260065481565b6103596106ae366004612fc0565b60009182526001602090815260408084206001600160a01b0393909316845291905290205460ff1690565b6103727fbc6bbe35ebc64943402c04d2ae016d7bd2bba28e1a11cf66be743c9bd74c720b81565b61042373eeeeeeeeeeeeeeeeeeeeeeeeeeeeeeeeeeeeeeee81565b610372600081565b610359610731366004612f5e565b6001600160a01b039081166000908152600f60209081526040918290208251606081018452815490941684526001810154918401919091526002015460ff161515910181905290565b600754610423906001600160a01b031681565b61039c6119a1565b61079d6119ed565b6040516103659190613035565b61039c611a7b565b61079d611be1565b61039c6107c83660046131d5565b611bee565b61039c6107db366004612fc0565b6120ca565b600254610423906001600160a01b031681565b61037261271081565b600454610423906001600160a01b031681565b61035961081d366004612f5e565b6120f0565b6009546104239061010090046001600160a01b031681565b61084d61084836600461339b565b612130565b604080519283526001600160a01b03909116602083015201610365565b60006001600160e01b031982167f7965db0b0000000000000000000000000000000000000000000000000000000014806108cd57507f01ffc9a7000000000000000000000000000000000000000000000000000000006001600160e01b03198316145b92915050565b6108dc826122af565b6108e581612312565b6108ee81612364565b6001600160a01b0380831660009081526011602090815260408083209385168352929052205460ff161561094e576040517fd5b9bc9600000000000000000000000000000000000000000000000000000000815260040160405180910390fd5b6000816001600160a01b031663cbfc1daa6040518163ffffffff1660e01b8152600401602060405180830381865afa15801561098e573d6000803e3d6000fd5b505050506040513d601f19601f820116820180604052508101906109b29190613491565b6001600160a01b038085166000908152600f6020908152604080832081516060810183528154909516855260018101549285018390526002015460ff1615159084015260055493945091929091610a0991906134c0565b905060008115610a895760405163782aadff60e01b81526001600160a01b0387811660048301526024820184905286169063782aadff906044016020604051808303816000875af1158015610a62573d6000803e3d6000fd5b505050506040513d601f19601f82011682018060405250810190610a869190613491565b90505b6000841180610a985750600081115b15610ace57610aa781856134d3565b6001600160a01b038088166000908152601360209081526040808320938a16835292905220555b6001600160a01b038681166000818152601160209081526040808320948a16808452948252808320805460ff19166001908117909155848452601283528184208054918201815584529282902090920180546001600160a01b0319168517905581519283528201929092527f63c3cbece50d2c21233b9f1ffb1b3c4554cdf37170cecb94e65f94196df8baff910160405180910390a1505050505050565b610b746123a4565b610b7d81612364565b6001600160a01b038116600081815260106020908152604091829020805460ff1916905590519182527f09a1db4b80c32706328728508c941a6b954f31eb5affd32f236c1fd405f8fea491015b60405180910390a150565b610bdd6123a4565b6001600160a01b03811660009081526010602052604090205460ff1615610c30576040517f968a4d2c00000000000000000000000000000000000000000000000000000000815260040160405180910390fd5b6001600160a01b038116600081815260106020908152604091829020805460ff1916600117905590519182527f3f008fd510eae7a9e7bee13513d7b83bef8003d488b5a3d0b0da4de71d6846f19101610bca565b610c8d826122af565b610c9681612364565b6001600160a01b0380831660009081526011602090815260408083209385168352929052205460ff16610cf5576040517fc12369dc00000000000000000000000000000000000000000000000000000000815260040160405180910390fd5b6001600160a01b038083166000818152601160209081526040808320948616808452948252808320805460ff191690559282526013815282822093825292909252812055610d43828261240c565b604080516001600160a01b038085168252831660208201527ede109bef4619f7e2cf00c8e5a50ca55f8deb44f87087eed414a91dbf8d1d1b910160405180910390a15050565b60095460009061010090046001600160a01b031681610dab61271060646134e6565b600654600554610dbb91906134e6565b610dc591906134fd565b90506000610dd661271060646134e6565b6040516302a64b8360e21b81523060048201526001600160a01b03851690630a992e0c90602401602060405180830381865afa158015610e1a573d6000803e3d6000fd5b505050506040513d601f19601f82011682018060405250810190610e3e9190613491565b600554610e4b91906134e6565b610e5591906134fd565b90508082600554610e6691906134d3565b610e7091906134d3565b935050505090565b60126020528160005260406000208181548110610e9457600080fd5b6000918252602090912001546001600160a01b03169150829050565b60008281526001602081905260409091200154610ecc8161252e565b610ed68383612538565b505050565b610ee36123a4565b60058190556040518181527f5bcc2c453001fb0e2ba6266d56ecb411e7c6e15c8f9c3d301f93dd36ad25726f90602001610bca565b610f206123a4565b60068190556040518181527f611668bfcf654a99c33cdb66c29ec37a5aae5c1287d2d9715a24e18cb4d806d690602001610bca565b610f5d6125bf565b336000818152600f6020526040812060095490916101009091046001600160a01b031690610f8e61271060646134e6565b600654600554610f9e91906134e6565b610fa891906134fd565b90506000610fb961271060646134e6565b6040516302a64b8360e21b81523060048201526001600160a01b03851690630a992e0c90602401602060405180830381865afa158015610ffd573d6000803e3d6000fd5b505050506040513d601f19601f820116820180604052508101906110219190613491565b60055461102e91906134e6565b61103891906134fd565b6001600160a01b038087166000908152600f60209081526040918290208251606081018452815490941684526001810154918401919091526002015460ff16151591018190529091506111bb5760028401805460ff191660019081179091556005549085018190556110d3908690309084906110b59087906134d3565b6110bf91906134d3565b6004546001600160a01b0316929190612618565b81156110f6576007546004546110f6916001600160a01b039182169116846126b1565b801561117457611174836001600160a01b031663987435be6040518163ffffffff1660e01b8152600401602060405180830381865afa15801561113d573d6000803e3d6000fd5b505050506040513d601f19601f82011682018060405250810190611161919061351f565b6004546001600160a01b031690836126b1565b600554604080516001600160a01b038816815260208101929092527f67e0244e28040fec15240cd4b6c04c776a2a0278caef23b59e8ada1df31f7689910160405180910390a15b50505050506111ca6001600055565b565b6001600160a01b038116331461124f5760405162461bcd60e51b815260206004820152602f60248201527f416363657373436f6e74726f6c3a2063616e206f6e6c792072656e6f756e636560448201527f20726f6c657320666f722073656c66000000000000000000000000000000000060648201526084015b60405180910390fd5b61125982826126e1565b5050565b6112656123a4565b61126e81612364565b600a80546001600160a01b0319166001600160a01b03838116918217909255600b546040805191909316815260208101919091527f83eac9fdaff0ac1017624b7eddeb9782e3d707cd894073cb7e8301a41c6e5cf89101610bca565b600280546001600160a01b0319166001600160a01b0383169081179091556040519081527faaded18d4d508696508b945d03ff3d168110dbb73e17aeda699745655fa958d290602001610bca565b6113206125bf565b611328612764565b3360008181526012602090815260408083208054825181850281018501909352808352919290919083018282801561138957602002820191906000526020600020905b81546001600160a01b0316815260019091019060200180831161136b575b50505050509050600080600090505b82518110156114b8578281815181106113b3576113b361353c565b602090810291909101015160405163782aadff60e01b81526001600160a01b038681166004830152602482018890529091169063782aadff906044016020604051808303816000875af115801561140e573d6000803e3d6000fd5b505050506040513d601f19601f820116820180604052508101906114329190613491565b915081156114a6576001600160a01b038416600090815260136020526040812084518492908690859081106114695761146961353c565b60200260200101516001600160a01b03166001600160a01b0316815260200190815260200160002060008282546114a091906134d3565b90915550505b806114b081613552565b915050611398565b506004546114d1906001600160a01b0316843087612618565b6001600160a01b0383166000908152600f6020526040812060010180548692906114fc9084906134d3565b909155505060016000555061150f915050565b50565b61151a6125bf565b611522612764565b3360008181526012602090815260408083208054825181850281018501909352808352919290919083018282801561158357602002820191906000526020600020905b81546001600160a01b03168152600190910190602001808311611565575b50506005546001600160a01b0387166000908152600f6020526040812060010154959650949093506115b892508791506134c0565b10156115f0576040517f9c47d02e00000000000000000000000000000000000000000000000000000000815260040160405180910390fd5b600454611607906001600160a01b031684866126b1565b6001600160a01b0383166000908152600f6020526040812060010180548692906116329084906134c0565b90915550600090505b8251811015611779578281815181106116565761165661353c565b60209081029190910101516040517f2ed04b2b0000000000000000000000000000000000000000000000000000000081526001600160a01b0386811660048301526024820188905290911690632ed04b2b906044016020604051808303816000875af11580156116ca573d6000803e3d6000fd5b505050506040513d601f19601f820116820180604052508101906116ee9190613491565b91508160136000866001600160a01b03166001600160a01b03168152602001908152602001600020600085848151811061172a5761172a61353c565b60200260200101516001600160a01b03166001600160a01b03168152602001908152602001600020600082825461176191906134c0565b9091555081905061177181613552565b91505061163b565b5050505061150f6001600055565b61178f6125bf565b6117976123a4565b60095460ff166117d3576040517fcb63dc7200000000000000000000000000000000000000000000000000000000815260040160405180910390fd5b6001600160a01b038083166000908152600f60209081526040918290208251606081018452815490941684526001810154918401919091526002015460ff161515910181905261183657604051636a5cfb6d60e01b815260040160405180910390fd5b6001600160a01b038083166000908152600f60209081526040918290208251606081018452815490941684526001810154918401919091526002015460ff16151590820152611884836127c3565b6001600160a01b038084166000908152600f6020908152604080832080546001600160a01b031916815560018101939093556002909201805460ff191690556004805491850151925163a9059cbb60e01b8152919093169263a9059cbb92611902928792016001600160a01b03929092168252602082015260400190565b6020604051808303816000875af1158015611921573d6000803e3d6000fd5b505050506040513d601f19601f82011682018060405250810190611945919061356b565b50602080820151604080516001600160a01b0380881682528616938101939093528201527fb5946f249f8744efe9d14d49a483b54a589b1362944ff6694de93456cceb96a39060600160405180910390a1506112596001600055565b600a546001600160a01b031633146119e5576040517ffd4bfdb700000000000000000000000000000000000000000000000000000000815260040160405180910390fd5b6111ca6128e5565b600d80546119fa90613588565b80601f0160208091040260200160405190810160405280929190818152602001828054611a2690613588565b8015611a735780601f10611a4857610100808354040283529160200191611a73565b820191906000526020600020905b815481529060010190602001808311611a5657829003601f168201915b505050505081565b611a836125bf565b33611a8d816122af565b611a96816127c3565b6001600160a01b038082166000818152600f602090815260408083208151606081018352815496871681526001820180548286015260028301805460ff81161515848701529787526001600160a01b03199098169092559084905560ff19909416909455601290529182209091611b0d9190612e3e565b60048054602083015160405163a9059cbb60e01b81526001600160a01b0386811694820194909452602481019190915291169063a9059cbb906044016020604051808303816000875af1158015611b68573d6000803e3d6000fd5b505050506040513d601f19601f82011682018060405250810190611b8c919061356b565b50602080820151604080516001600160a01b0386168152928301919091527fa13f4668aacb68c4e9eed8e3f6e1cbec3eca776896ec46b5eabcc3983fc8f5f4910160405180910390a150506111ca6001600055565b600c80546119fa90613588565b611bfb8160200151612364565b611c09816101000151612364565b8051611c1490612364565b611c218160a00151612364565b8051600280546001600160a01b039283166001600160a01b0319918216179091556020830151600480549190931691161790556040810151600003611c92576040517fc70d18aa00000000000000000000000000000000000000000000000000000000815260040160405180910390fd5b604081015160055560608101516006556101408101516009805460ff1916911515919091179055610120810151600c90611ccc9082613610565b50610160810151600d90611ce09082613610565b5060a0810151600980547fffffffffffffffffffffff0000000000000000000000000000000000000000ff166101006001600160a01b0393841681029190911790915560c0830151600780546001600160a01b031990811692851692909217905590830151600b8054909216928116929092179055611d80907fbc6bbe35ebc64943402c04d2ae016d7bd2bba28e1a11cf66be743c9bd74c720b90612538565b600260009054906101000a90046001600160a01b03166001600160a01b0316635ab1bd536040518163ffffffff1660e01b8152600401602060405180830381865afa158015611dd3573d6000803e3d6000fd5b505050506040513d601f19601f82011682018060405250810190611df7919061351f565b600380546001600160a01b0319166001600160a01b03928316179055600b54604080517fa0e67e2b0000000000000000000000000000000000000000000000000000000081529051600093929092169163a0e67e2b9160048082019286929091908290030181865afa158015611e71573d6000803e3d6000fd5b505050506040513d6000823e601f3d908101601f19168201604052611e9991908101906136d0565b9050600081516002611eab91906134d3565b67ffffffffffffffff811115611ec357611ec3613048565b604051908082528060200260200182016040528015611eec578160200160208202803683370190505b50905060005b8251811015611f5157828181518110611f0d57611f0d61353c565b6020026020010151828281518110611f2757611f2761353c565b6001600160a01b039092166020928302919091019091015280611f4981613552565b915050611ef2565b50600b5481516001600160a01b03909116908290611f71906001906134c0565b81518110611f8157611f8161353c565b60200260200101906001600160a01b031690816001600160a01b031681525050308160028351611fb191906134c0565b81518110611fc157611fc161353c565b6001600160a01b039283166020918202929092010152600354608085015160e08601516040517f3a92f65f0000000000000000000000000000000000000000000000000000000081529290931692633a92f65f926120299291600c9130908890600401613862565b6020604051808303816000875af1158015612048573d6000803e3d6000fd5b505050506040513d601f19601f8201168201806040525081019061206c9190613491565b6008558051612082906014906020840190612e5c565b507f2f2ffcb06f8a1d35e2716f6b43ef2c19bfa76467d8f66964ae12c2583ed03205600854600c8560e001516040516120bd939291906138b0565b60405180910390a1505050565b600082815260016020819052604090912001546120e68161252e565b610ed683836126e1565b6001600160a01b03811660009081527fb5ecf5ecfeba8b6e20c37ad4ed6024e3afbcd2e706bee2e266a62cb37e60342c602052604081205460ff166108cd565b60008073eeeeeeeeeeeeeeeeeeeeeeeeeeeeeeeeeeeeeeee6001600160a01b0386161561215a5750845b869150600060148054806020026020016040519081016040528092919081815260200182805480156121b557602002820191906000526020600020905b81546001600160a01b03168152600190910190602001808311612197575b50506002546008546040519596506001600160a01b039091169463e1007d4a94509092508791506121ea908b9060200161390f565b6040516020818303038152906040528660008b886040518863ffffffff1660e01b815260040161222097969594939291906139b6565b6020604051808303816000875af115801561223f573d6000803e3d6000fd5b505050506040513d601f19601f820116820180604052508101906122639190613491565b93507f778cac0ae0b66477341553a4a89398c61ccf448313d3354ad0ca85a5a825d2838484308a8960405161229c959493929190613a22565b60405180910390a1505094509492505050565b6001600160a01b038082166000908152600f60209081526040918290208251606081018452815490941684526001810154918401919091526002015460ff161515910181905261150f57604051636a5cfb6d60e01b815260040160405180910390fd5b6001600160a01b03811660009081526010602052604090205460ff1661150f576040517f46c26e4b00000000000000000000000000000000000000000000000000000000815260040160405180910390fd5b6001600160a01b03811661150f576040517fe622e04000000000000000000000000000000000000000000000000000000000815260040160405180910390fd5b3360009081527fb5ecf5ecfeba8b6e20c37ad4ed6024e3afbcd2e706bee2e266a62cb37e60342c602052604090205460ff166111ca576040517ff62651fa00000000000000000000000000000000000000000000000000000000815260040160405180910390fd5b6001600160a01b0382166000908152601260205260408120905b815481101561252857826001600160a01b031682828154811061244b5761244b61353c565b6000918252602090912001546001600160a01b0316036125165781548290612475906001906134c0565b815481106124855761248561353c565b9060005260206000200160009054906101000a90046001600160a01b03168282815481106124b5576124b561353c565b9060005260206000200160006101000a8154816001600160a01b0302191690836001600160a01b03160217905550818054806124f3576124f3613a5c565b600082815260209020810160001990810180546001600160a01b03191690550190555b8061252081613552565b915050612426565b50505050565b61150f8133612940565b60008281526001602090815260408083206001600160a01b038516845290915290205460ff166112595760008281526001602081815260408084206001600160a01b0386168086529252808420805460ff19169093179092559051339285917f2f8788117e7eff1d82e926ec794901d17c78024a50270940304540a733656f0d9190a45050565b6002600054036126115760405162461bcd60e51b815260206004820152601f60248201527f5265656e7472616e637947756172643a207265656e7472616e742063616c6c006044820152606401611246565b6002600055565b6040516001600160a01b03808516602483015283166044820152606481018290526125289085907f23b872dd00000000000000000000000000000000000000000000000000000000906084015b60408051601f198184030181529190526020810180517bffffffffffffffffffffffffffffffffffffffffffffffffffffffff166001600160e01b0319909316929092179091526129b5565b6040516001600160a01b038316602482015260448101829052610ed690849063a9059cbb60e01b90606401612665565b60008281526001602090815260408083206001600160a01b038516845290915290205460ff16156112595760008281526001602090815260408083206001600160a01b0385168085529252808320805460ff1916905551339285917ff6391f5c32d9c69d2a47ea670b442974b53935d1edc7fd64eb21e047a839171b9190a45050565b336000908152600f6020908152604091829020825160608101845281546001600160a01b031681526001820154928101929092526002015460ff16151591018190526111ca57604051636a5cfb6d60e01b815260040160405180910390fd5b6001600160a01b03811660009081526012602090815260408083208054825181850281018501909352808352919290919083018282801561282d57602002820191906000526020600020905b81546001600160a01b0316815260019091019060200180831161280f575b5050505050905060005b8151811015610ed6578181815181106128525761285261353c565b60209081029190910101516040517f6453d9c40000000000000000000000000000000000000000000000000000000081526001600160a01b03858116600483015290911690636453d9c490602401600060405180830381600087803b1580156128ba57600080fd5b505af11580156128ce573d6000803e3d6000fd5b5050505080806128dd90613552565b915050612837565b600a8054600b80546001600160a01b0383166001600160a01b031991821617909155169055604051600081527fad0399dc40331b9a4977aa89da7a164a3fd482c65e6da73b25a94ea74fb688729060200160405180910390a1565b60008281526001602090815260408083206001600160a01b038516845290915290205460ff166112595761297381612a9d565b61297e836020612aaf565b60405160200161298f929190613a72565b60408051601f198184030181529082905262461bcd60e51b825261124691600401613035565b6000612a0a826040518060400160405280602081526020017f5361666545524332303a206c6f772d6c6576656c2063616c6c206661696c6564815250856001600160a01b0316612c979092919063ffffffff16565b9050805160001480612a2b575080806020019051810190612a2b919061356b565b610ed65760405162461bcd60e51b815260206004820152602a60248201527f5361666545524332303a204552433230206f7065726174696f6e20646964206e60448201527f6f742073756363656564000000000000000000000000000000000000000000006064820152608401611246565b60606108cd6001600160a01b03831660145b60606000612abe8360026134e6565b612ac99060026134d3565b67ffffffffffffffff811115612ae157612ae1613048565b6040519080825280601f01601f191660200182016040528015612b0b576020820181803683370190505b5090507f300000000000000000000000000000000000000000000000000000000000000081600081518110612b4257612b4261353c565b60200101906001600160f81b031916908160001a9053507f780000000000000000000000000000000000000000000000000000000000000081600181518110612b8d57612b8d61353c565b60200101906001600160f81b031916908160001a9053506000612bb18460026134e6565b612bbc9060016134d3565b90505b6001811115612c41577f303132333435363738396162636465660000000000000000000000000000000085600f1660108110612bfd57612bfd61353c565b1a60f81b828281518110612c1357612c1361353c565b60200101906001600160f81b031916908160001a90535060049490941c93612c3a81613af3565b9050612bbf565b508315612c905760405162461bcd60e51b815260206004820181905260248201527f537472696e67733a20686578206c656e67746820696e73756666696369656e746044820152606401611246565b9392505050565b6060612ca68484600085612cae565b949350505050565b606082471015612d265760405162461bcd60e51b815260206004820152602660248201527f416464726573733a20696e73756666696369656e742062616c616e636520666f60448201527f722063616c6c00000000000000000000000000000000000000000000000000006064820152608401611246565b600080866001600160a01b03168587604051612d429190613b0a565b60006040518083038185875af1925050503d8060008114612d7f576040519150601f19603f3d011682016040523d82523d6000602084013e612d84565b606091505b5091509150612d9587838387612da0565b979650505050505050565b60608315612e0f578251600003612e08576001600160a01b0385163b612e085760405162461bcd60e51b815260206004820152601d60248201527f416464726573733a2063616c6c20746f206e6f6e2d636f6e74726163740000006044820152606401611246565b5081612ca6565b612ca68383815115612e245781518083602001fd5b8060405162461bcd60e51b81526004016112469190613035565b508054600082559060005260206000209081019061150f9190612ec1565b828054828255906000526020600020908101928215612eb1579160200282015b82811115612eb157825182546001600160a01b0319166001600160a01b03909116178255602090920191600190910190612e7c565b50612ebd929150612ec1565b5090565b5b80821115612ebd5760008155600101612ec2565b600060208284031215612ee857600080fd5b81356001600160e01b031981168114612c9057600080fd5b6001600160a01b038116811461150f57600080fd5b8035612f2081612f00565b919050565b60008060408385031215612f3857600080fd5b8235612f4381612f00565b91506020830135612f5381612f00565b809150509250929050565b600060208284031215612f7057600080fd5b8135612c9081612f00565b600060208284031215612f8d57600080fd5b5035919050565b60008060408385031215612fa757600080fd5b8235612fb281612f00565b946020939093013593505050565b60008060408385031215612fd357600080fd5b823591506020830135612f5381612f00565b60005b83811015613000578181015183820152602001612fe8565b50506000910152565b60008151808452613021816020860160208601612fe5565b601f01601f19169290920160200192915050565b602081526000612c906020830184613009565b634e487b7160e01b600052604160045260246000fd5b604051610180810167ffffffffffffffff8111828210171561308257613082613048565b60405290565b604051610100810167ffffffffffffffff8111828210171561308257613082613048565b604051601f8201601f1916810167ffffffffffffffff811182821017156130d5576130d5613048565b604052919050565b600082601f8301126130ee57600080fd5b813567ffffffffffffffff81111561310857613108613048565b61311b601f8201601f19166020016130ac565b81815284602083860101111561313057600080fd5b816020850160208301376000918101602001919091529392505050565b60006040828403121561315f57600080fd5b6040516040810167ffffffffffffffff828210818311171561318357613183613048565b816040528293508435835260208501359150808211156131a257600080fd5b506131af858286016130dd565b6020830152505092915050565b801515811461150f57600080fd5b8035612f20816131bc565b6000602082840312156131e757600080fd5b813567ffffffffffffffff808211156131ff57600080fd5b90830190610180828603121561321457600080fd5b61321c61305e565b61322583612f15565b815261323360208401612f15565b602082015260408301356040820152606083013560608201526080830135608082015261326260a08401612f15565b60a082015261327360c08401612f15565b60c082015260e08301358281111561328a57600080fd5b6132968782860161314d565b60e0830152506101006132aa818501612f15565b9082015261012083810135838111156132c257600080fd5b6132ce888287016130dd565b8284015250506101406132e28185016131ca565b9082015261016083810135838111156132fa57600080fd5b613306888287016130dd565b918301919091525095945050505050565b803560038110612f2057600080fd5b803560048110612f2057600080fd5b60006080828403121561334757600080fd5b6040516080810181811067ffffffffffffffff8211171561336a5761336a613048565b8060405250809150823581526020830135602082015260408301356040820152606083013560608201525092915050565b6000806000808486036101c08112156133b357600080fd5b85356133be81612f00565b945060208601356133ce81612f00565b9350610160603f19820112156133e357600080fd5b506133ec613088565b60408601356133fa81612f00565b80825250606086013560208201526080860135604082015260a0860135606082015260c0860135608082015261343260e08701613317565b60a08201526134446101008701613326565b60c0820152613457876101208801613335565b60e082015291506101a085013567ffffffffffffffff81111561347957600080fd5b6134858782880161314d565b91505092959194509250565b6000602082840312156134a357600080fd5b5051919050565b634e487b7160e01b600052601160045260246000fd5b818103818111156108cd576108cd6134aa565b808201808211156108cd576108cd6134aa565b80820281158282048414176108cd576108cd6134aa565b60008261351a57634e487b7160e01b600052601260045260246000fd5b500490565b60006020828403121561353157600080fd5b8151612c9081612f00565b634e487b7160e01b600052603260045260246000fd5b600060018201613564576135646134aa565b5060010190565b60006020828403121561357d57600080fd5b8151612c90816131bc565b600181811c9082168061359c57607f821691505b6020821081036135bc57634e487b7160e01b600052602260045260246000fd5b50919050565b601f821115610ed657600081815260208120601f850160051c810160208610156135e95750805b601f850160051c820191505b81811015613608578281556001016135f5565b505050505050565b815167ffffffffffffffff81111561362a5761362a613048565b61363e816136388454613588565b846135c2565b602080601f831160018114613673576000841561365b5750858301515b600019600386901b1c1916600185901b178555613608565b600085815260208120601f198616915b828110156136a257888601518255948401946001909101908401613683565b50858210156136c05787850151600019600388901b60f8161c191681555b5050505050600190811b01905550565b600060208083850312156136e357600080fd5b825167ffffffffffffffff808211156136fb57600080fd5b818501915085601f83011261370f57600080fd5b81518181111561372157613721613048565b8060051b91506137328483016130ac565b818152918301840191848101908884111561374c57600080fd5b938501935b83851015613776578451925061376683612f00565b8282529385019390850190613751565b98975050505050505050565b6000815461378f81613588565b8085526020600183811680156137ac57600181146137c6576137f4565b60ff1985168884015283151560051b8801830195506137f4565b866000528260002060005b858110156137ec5781548a82018601529083019084016137d1565b890184019650505b505050505092915050565b805182526000602082015160406020850152612ca66040850182613009565b600081518084526020808501945080840160005b838110156138575781516001600160a01b031687529582019590820190600101613832565b509495945050505050565b85815260a06020820152600061387b60a0830187613782565b828103604084015261388d81876137ff565b90506001600160a01b03851660608401528281036080840152613776818561381e565b8381526060602082015260006138c96060830185613782565b82810360408401526138db81856137ff565b9695505050505050565b634e487b7160e01b600052602160045260246000fd5b6004811061390b5761390b6138e5565b9052565b6000610160820190506001600160a01b0383511682526020830151602083015260408301516040830152606083015160608301526080830151608083015260a083015160038110613962576139626138e5565b8060a08401525060c083015161397b60c08401826138fb565b5060e08301516139af60e0840182805182526020810151602083015260408101516040830152606081015160608301525050565b5092915050565b87815260006001600160a01b03808916602084015260e060408401526139df60e0840189613009565b818816606085015286608085015283810360a08501526139ff81876137ff565b91505082810360c0840152613a14818561381e565b9a9950505050505050505050565b85815260006001600160a01b038087166020840152808616604084015280851660608401525060a06080830152612d9560a08301846137ff565b634e487b7160e01b600052603160045260246000fd5b7f416363657373436f6e74726f6c3a206163636f756e7420000000000000000000815260008351613aaa816017850160208801612fe5565b7f206973206d697373696e6720726f6c65200000000000000000000000000000006017918401918201528351613ae7816028840160208801612fe5565b01602801949350505050565b600081613b0257613b026134aa565b506000190190565b60008251613b1c818460208701612fe5565b919091019291505056fea2646970667358221220b03f0b19a799c398abee438d2c640dec13aae6066d8b3e61d27b0bdb75ae812964736f6c63430008130033a2646970667358221220b8ba91f712cbaabb9813953559790fd4413da16fd4f502e3063e6f6a7f9a0a1a64736f6c63430008130033","linkReferences":{}},"methodIdentifiers":{"createRegistry((address,address,uint256,uint256,uint256,address,address,(uint256,string),address,string,bool,string))":"beb331a3","gardensFeeReceiver()":"b8bed901","getGardensFeeReceiver()":"987435be","getProtocolFee(address)":"0a992e0c","nonce()":"affed0e0","owner()":"8da5cb5b","renounceOwnership()":"715018a6","setCommunityValidity(address,bool)":"5a2c8ace","setProtocolFee(address,uint256)":"b5b3ca2c","setReceiverAddress(address)":"8279c7db","transferOwnership(address)":"f2fde38b"},"id":106}