{"abi":[{"type":"function","name":"VERSION","inputs":[],"outputs":[{"name":"","type":"string","internalType":"string"}],"stateMutability":"view"},{"type":"function","name":"collateralVaultTemplate","inputs":[],"outputs":[{"name":"","type":"address","internalType":"address"}],"stateMutability":"view"},{"type":"function","name":"createRegistry","inputs":[{"name":"params","type":"tuple","internalType":"struct RegistryCommunityInitializeParams","components":[{"name":"_allo","type":"address","internalType":"address"},{"name":"_gardenToken","type":"address","internalType":"contract IERC20"},{"name":"_registerStakeAmount","type":"uint256","internalType":"uint256"},{"name":"_communityFee","type":"uint256","internalType":"uint256"},{"name":"_nonce","type":"uint256","internalType":"uint256"},{"name":"_registryFactory","type":"address","internalType":"address"},{"name":"_feeReceiver","type":"address","internalType":"address"},{"name":"_metadata","type":"tuple","internalType":"struct Metadata","components":[{"name":"protocol","type":"uint256","internalType":"uint256"},{"name":"pointer","type":"string","internalType":"string"}]},{"name":"_councilSafe","type":"address","internalType":"address payable"},{"name":"_communityName","type":"string","internalType":"string"},{"name":"_isKickEnabled","type":"bool","internalType":"bool"},{"name":"covenantIpfsHash","type":"string","internalType":"string"}]}],"outputs":[{"name":"_createdRegistryAddress","type":"address","internalType":"address"}],"stateMutability":"nonpayable"},{"type":"function","name":"cvVaultTemplate","inputs":[],"outputs":[{"name":"","type":"address","internalType":"address"}],"stateMutability":"view"},{"type":"function","name":"gardensFeeReceiver","inputs":[],"outputs":[{"name":"","type":"address","internalType":"address"}],"stateMutability":"view"},{"type":"function","name":"getCommunityValidity","inputs":[{"name":"_community","type":"address","internalType":"address"}],"outputs":[{"name":"","type":"bool","internalType":"bool"}],"stateMutability":"view"},{"type":"function","name":"getGardensFeeReceiver","inputs":[],"outputs":[{"name":"","type":"address","internalType":"address"}],"stateMutability":"view"},{"type":"function","name":"getProtocolFee","inputs":[{"name":"_community","type":"address","internalType":"address"}],"outputs":[{"name":"","type":"uint256","internalType":"uint256"}],"stateMutability":"view"},{"type":"function","name":"initialize","inputs":[{"name":"initialOwner","type":"address","internalType":"address"}],"outputs":[],"stateMutability":"nonpayable"},{"type":"function","name":"initialize","inputs":[{"name":"_owner","type":"address","internalType":"address"},{"name":"_gardensFeeReceiver","type":"address","internalType":"address"},{"name":"_registryCommunityTemplate","type":"address","internalType":"address"},{"name":"_strategyTemplate","type":"address","internalType":"address"},{"name":"_collateralVaultTemplate","type":"address","internalType":"address"},{"name":"_cvVaultTemplate","type":"address","internalType":"address"}],"outputs":[],"stateMutability":"nonpayable"},{"type":"function","name":"keepersAddresses","inputs":[{"name":"","type":"address","internalType":"address"}],"outputs":[{"name":"","type":"bool","internalType":"bool"}],"stateMutability":"view"},{"type":"function","name":"nonce","inputs":[],"outputs":[{"name":"","type":"uint256","internalType":"uint256"}],"stateMutability":"view"},{"type":"function","name":"owner","inputs":[],"outputs":[{"name":"","type":"address","internalType":"address"}],"stateMutability":"view"},{"type":"function","name":"protopiansAddresses","inputs":[{"name":"","type":"address","internalType":"address"}],"outputs":[{"name":"","type":"bool","internalType":"bool"}],"stateMutability":"view"},{"type":"function","name":"proxiableUUID","inputs":[],"outputs":[{"name":"","type":"bytes32","internalType":"bytes32"}],"stateMutability":"view"},{"type":"function","name":"proxyOwner","inputs":[],"outputs":[{"name":"","type":"address","internalType":"address"}],"stateMutability":"view"},{"type":"function","name":"registryCommunityTemplate","inputs":[],"outputs":[{"name":"","type":"address","internalType":"address"}],"stateMutability":"view"},{"type":"function","name":"renounceOwnership","inputs":[],"outputs":[],"stateMutability":"nonpayable"},{"type":"function","name":"setCVVaultTemplate","inputs":[{"name":"template","type":"address","internalType":"address"}],"outputs":[],"stateMutability":"nonpayable"},{"type":"function","name":"setCollateralVaultTemplate","inputs":[{"name":"template","type":"address","internalType":"address"}],"outputs":[],"stateMutability":"nonpayable"},{"type":"function","name":"setCommunityValidity","inputs":[{"name":"_community","type":"address","internalType":"address"},{"name":"_isValid","type":"bool","internalType":"bool"}],"outputs":[],"stateMutability":"nonpayable"},{"type":"function","name":"setKeeperAddress","inputs":[{"name":"_keepers","type":"address[]","internalType":"address[]"},{"name":"_isKeeper","type":"bool","internalType":"bool"}],"outputs":[],"stateMutability":"nonpayable"},{"type":"function","name":"setProtocolFee","inputs":[{"name":"_community","type":"address","internalType":"address"},{"name":"_newProtocolFee","type":"uint256","internalType":"uint256"}],"outputs":[],"stateMutability":"nonpayable"},{"type":"function","name":"setProtopianAddress","inputs":[{"name":"_protopians","type":"address[]","internalType":"address[]"},{"name":"_isProtopian","type":"bool","internalType":"bool"}],"outputs":[],"stateMutability":"nonpayable"},{"type":"function","name":"setReceiverAddress","inputs":[{"name":"_newFeeReceiver","type":"address","internalType":"address"}],"outputs":[],"stateMutability":"nonpayable"},{"type":"function","name":"setRegistryCommunityTemplate","inputs":[{"name":"template","type":"address","internalType":"address"}],"outputs":[],"stateMutability":"nonpayable"},{"type":"function","name":"setStrategyTemplate","inputs":[{"name":"template","type":"address","internalType":"address"}],"outputs":[],"stateMutability":"nonpayable"},{"type":"function","name":"strategyTemplate","inputs":[],"outputs":[{"name":"","type":"address","internalType":"address"}],"stateMutability":"view"},{"type":"function","name":"transferOwnership","inputs":[{"name":"newOwner","type":"address","internalType":"address"}],"outputs":[],"stateMutability":"nonpayable"},{"type":"function","name":"upgradeTo","inputs":[{"name":"newImplementation","type":"address","internalType":"address"}],"outputs":[],"stateMutability":"nonpayable"},{"type":"function","name":"upgradeToAndCall","inputs":[{"name":"newImplementation","type":"address","internalType":"address"},{"name":"data","type":"bytes","internalType":"bytes"}],"outputs":[],"stateMutability":"payable"},{"type":"event","name":"AdminChanged","inputs":[{"name":"previousAdmin","type":"address","indexed":false,"internalType":"address"},{"name":"newAdmin","type":"address","indexed":false,"internalType":"address"}],"anonymous":false},{"type":"event","name":"BeaconUpgraded","inputs":[{"name":"beacon","type":"address","indexed":true,"internalType":"address"}],"anonymous":false},{"type":"event","name":"CommunityCreated","inputs":[{"name":"_registryCommunity","type":"address","indexed":false,"internalType":"address"}],"anonymous":false},{"type":"event","name":"CommunityValiditySet","inputs":[{"name":"_community","type":"address","indexed":false,"internalType":"address"},{"name":"_isValid","type":"bool","indexed":false,"internalType":"bool"}],"anonymous":false},{"type":"event","name":"FeeReceiverSet","inputs":[{"name":"_newFeeReceiver","type":"address","indexed":false,"internalType":"address"}],"anonymous":false},{"type":"event","name":"Initialized","inputs":[{"name":"version","type":"uint8","indexed":false,"internalType":"uint8"}],"anonymous":false},{"type":"event","name":"KeepersChanged","inputs":[{"name":"_new","type":"address[]","indexed":false,"internalType":"address[]"},{"name":"_removed","type":"address[]","indexed":false,"internalType":"address[]"}],"anonymous":false},{"type":"event","name":"OwnershipTransferred","inputs":[{"name":"previousOwner","type":"address","indexed":true,"internalType":"address"},{"name":"newOwner","type":"address","indexed":true,"internalType":"address"}],"anonymous":false},{"type":"event","name":"ProtocolFeeSet","inputs":[{"name":"_community","type":"address","indexed":false,"internalType":"address"},{"name":"_newProtocolFee","type":"uint256","indexed":false,"internalType":"uint256"}],"anonymous":false},{"type":"event","name":"ProtopiansChanged","inputs":[{"name":"_new","type":"address[]","indexed":false,"internalType":"address[]"},{"name":"_removed","type":"address[]","indexed":false,"internalType":"address[]"}],"anonymous":false},{"type":"event","name":"Upgraded","inputs":[{"name":"implementation","type":"address","indexed":true,"internalType":"address"}],"anonymous":false},{"type":"error","name":"AddressCannotBeZero","inputs":[]},{"type":"error","name":"CallerNotOwner","inputs":[{"name":"_caller","type":"address","internalType":"address"},{"name":"_owner","type":"address","internalType":"address"}]},{"type":"error","name":"CommunityInvalid","inputs":[{"name":"_community","type":"address","internalType":"address"}]}],"bytecode":{"object":"0x60a06040523060805234801561001457600080fd5b506080516127bb61004c600039600081816109cb01528181610a0e01528181610a9f01528181610ae20152610b6301526127bb6000f3fe608060405260043610620001885760003560e01c8063025313a2146200018d57806302c1d0b114620001bd578063083e8f9714620001df5780630a992e0c14620002245780631425d1ec14620002585780631b71f0e4146200027f5780631f4b502e14620002a45780633659cfe614620002d85780634f1ef28614620002fd57806352d1902d14620003145780635a2c8ace146200032c5780635c94e4d214620003515780635decae0214620003735780635e808daa1462000398578063715018a614620003ba57806377122d5614620003d25780638279c7db14620003f45780638d3ad8a414620004195780638da5cb5b146200043e578063987435be1462000456578063affed0e01462000476578063b0d3713a146200048e578063b5b3ca2c14620004b3578063b8bed90114620004d8578063beb331a314620004fa578063c4d66de8146200051f578063c5325d921462000544578063cc2a9a5b1462000569578063f2fde38b146200058e578063f5016b5e14620005b3578063ffa1ad7414620005f3575b600080fd5b3480156200019a57600080fd5b50620001a562000633565b604051620001b491906200188b565b60405180910390f35b348015620001ca57600080fd5b50606854620001a5906001600160a01b031681565b348015620001ec57600080fd5b5062000213620001fe366004620018c2565b606c6020526000908152604090205460ff1681565b6040519015158152602001620001b4565b3480156200023157600080fd5b506200024962000243366004620018c2565b6200064d565b604051908152602001620001b4565b3480156200026557600080fd5b506200027d620002773660046200198e565b62000867565b005b3480156200028c57600080fd5b506200027d6200029e366004620018c2565b62000995565b348015620002b157600080fd5b5062000213620002c3366004620018c2565b606d6020526000908152604090205460ff1681565b348015620002e557600080fd5b506200027d620002f7366004620018c2565b620009c1565b6200027d6200030e36600462001aa9565b62000a95565b3480156200032157600080fd5b506200024962000b56565b3480156200033957600080fd5b506200027d6200034b36600462001b13565b62000c07565b3480156200035e57600080fd5b50606954620001a5906001600160a01b031681565b3480156200038057600080fd5b506200027d62000392366004620018c2565b62000c71565b348015620003a557600080fd5b50606b54620001a5906001600160a01b031681565b348015620003c757600080fd5b506200027d62000c9d565b348015620003df57600080fd5b50606a54620001a5906001600160a01b031681565b3480156200040157600080fd5b506200027d62000413366004620018c2565b62000cb5565b3480156200042657600080fd5b506200027d620004383660046200198e565b62000d11565b3480156200044b57600080fd5b50620001a562000dc2565b3480156200046357600080fd5b506067546001600160a01b0316620001a5565b3480156200048357600080fd5b506200024960655481565b3480156200049b57600080fd5b506200027d620004ad366004620018c2565b62000e64565b348015620004c057600080fd5b506200027d620004d236600462001b4d565b62000e90565b348015620004e557600080fd5b50606754620001a5906001600160a01b031681565b3480156200050757600080fd5b50620001a56200051936600462001c14565b62000eec565b3480156200052c57600080fd5b506200027d6200053e366004620018c2565b62001035565b3480156200055157600080fd5b506200027d62000563366004620018c2565b620010ad565b3480156200057657600080fd5b506200027d6200058836600462001d6f565b620010d9565b3480156200059b57600080fd5b506200027d620005ad366004620018c2565b620012b3565b348015620005c057600080fd5b5062000213620005d2366004620018c2565b6001600160a01b031660009081526066602052604090206001015460ff1690565b3480156200060057600080fd5b5062000624604051806040016040528060038152602001620302e360ec1b81525081565b604051620001b4919062001e52565b6000620006486033546001600160a01b031690565b905090565b6001600160a01b03811660009081526066602052604081206001015460ff1662000697578160405163f5a6943d60e01b81526004016200068e91906200188b565b60405180910390fd5b6001600160a01b0382166000908152606d602052604090205460ff1615620006c157506000919050565b6000826001600160a01b0316636c53db9a6040518163ffffffff1660e01b8152600401602060405180830381865afa15801562000702573d6000803e3d6000fd5b505050506040513d601f19601f8201168201806040525081019062000728919062001e67565b6001600160a01b0381166000908152606c602052604090205490915060ff1615620007565750600092915050565b6001600160a01b0381163b156200084a576000816001600160a01b031663a0e67e2b6040518163ffffffff1660e01b8152600401600060405180830381865afa158015620007a8573d6000803e3d6000fd5b505050506040513d6000823e601f3d908101601f19168201604052620007d2919081019062001e87565b905060005b81518110156200084757606c6000838381518110620007fa57620007fa62001f2b565b6020908102919091018101516001600160a01b031682528101919091526040016000205460ff16156200083257506000949350505050565b806200083e8162001f41565b915050620007d7565b50505b50506001600160a01b031660009081526066602052604090205490565b6200087162001324565b60005b8251811015620008df5781606d600085848151811062000898576200089862001f2b565b6020908102919091018101516001600160a01b03168252810191909152604001600020805460ff191691151591909117905580620008d68162001f41565b91505062000874565b5080156200094257600080516020620027088339815191528260005b60405190808252806020026020018201604052801562000925578160200160208202803683370190505b506040516200093692919062001faf565b60405180910390a15050565b6000805160206200270883398151915260005b6040519080825280602002602001820160405280156200097f578160200160208202803683370190505b50836040516200093692919062001faf565b5050565b6200099f62001324565b606980546001600160a01b0319166001600160a01b0392909216919091179055565b6001600160a01b037f000000000000000000000000000000000000000000000000000000000000000016300362000a0c5760405162461bcd60e51b81526004016200068e9062001fe1565b7f00000000000000000000000000000000000000000000000000000000000000006001600160a01b031662000a4062001387565b6001600160a01b03161462000a695760405162461bcd60e51b81526004016200068e906200201c565b62000a7481620013a4565b6040805160008082526020820190925262000a9291839190620013f6565b50565b6001600160a01b037f000000000000000000000000000000000000000000000000000000000000000016300362000ae05760405162461bcd60e51b81526004016200068e9062001fe1565b7f00000000000000000000000000000000000000000000000000000000000000006001600160a01b031662000b1462001387565b6001600160a01b03161462000b3d5760405162461bcd60e51b81526004016200068e906200201c565b62000b4882620013a4565b6200099182826001620013f6565b6000306001600160a01b037f0000000000000000000000000000000000000000000000000000000000000000161462000bf35760405162461bcd60e51b815260206004820152603860248201527f555550535570677261646561626c653a206d757374206e6f742062652063616c6044820152771b1959081d1a1c9bdd59da0819195b1959d85d1958d85b1b60421b60648201526084016200068e565b506000805160206200272883398151915290565b62000c1162001324565b6001600160a01b038216600081815260666020908152604091829020600101805460ff19168515159081179091558251938452908301527fecdcd3502799a6c41864ea2682236184e876f63e10f8d56c7768a3d501e89f62910162000936565b62000c7b62001324565b606880546001600160a01b0319166001600160a01b0392909216919091179055565b62000ca762001324565b62000cb3600062001573565b565b62000cbf62001324565b62000cca81620015c5565b606780546001600160a01b0319166001600160a01b0383161790556040516000805160206200276f8339815191529062000d069083906200188b565b60405180910390a150565b62000d1b62001324565b60005b825181101562000d895781606c600085848151811062000d425762000d4262001f2b565b6020908102919091018101516001600160a01b03168252810191909152604001600020805460ff19169115159190911790558062000d808162001f41565b91505062000d1e565b50801562000daa576000805160206200278f833981519152826000620008fb565b6000805160206200278f833981519152600062000955565b600062000dce62000633565b6001600160a01b03163b60000362000dea576200064862000633565b62000df462000633565b6001600160a01b0316638da5cb5b6040518163ffffffff1660e01b8152600401602060405180830381865afa92505050801562000e50575060408051601f3d908101601f1916820190925262000e4d9181019062001e67565b60015b62000e5f576200064862000633565b919050565b62000e6e62001324565b606a80546001600160a01b0319166001600160a01b0392909216919091179055565b62000e9a62001324565b6001600160a01b038216600081815260666020908152604091829020849055815192835282018390527fa1ee82e4f177a8017f33ddddac05b7ceab1de9d46f7195e15e8aa2e8b88f3b1c910162000936565b606580546000918262000eff8362001f41565b9091555060808301523060a0830152606854606954606a54606b546000936001600160a01b039081169363eb9c578d60e01b93889391831692908116911662000f4762000633565b60405160240162000f5d95949392919062002078565b60408051601f198184030181529181526020820180516001600160e01b03166001600160e01b031990941693909317909252905162000f9c9062001870565b62000fa9929190620021c6565b604051809103906000f08015801562000fc6573d6000803e3d6000fd5b506001600160a01b038116600090815260666020526040908190206001908101805460ff191690911790555190915081907fb4108a188495a1a681cdc0750af164011025a1773b41e93ff3e628adc037dc2990620010269083906200188b565b60405180910390a19392505050565b600054610100900460ff16620010a25760405162461bcd60e51b815260206004820152602b60248201527f496e697469616c697a61626c653a20636f6e7472616374206973206e6f74206960448201526a6e697469616c697a696e6760a81b60648201526084016200068e565b62000a928162001573565b620010b762001324565b606b80546001600160a01b0319166001600160a01b0392909216919091179055565b600054610100900460ff1615808015620010fa5750600054600160ff909116105b806200111f57506200110c30620015ed565b1580156200111f575060005460ff166001145b620011845760405162461bcd60e51b815260206004820152602e60248201527f496e697469616c697a61626c653a20636f6e747261637420697320616c72656160448201526d191e481a5b9a5d1a585b1a5e995960921b60648201526084016200068e565b6000805460ff191660011790558015620011a8576000805461ff0019166101001790555b620011b38762001035565b6000606555620011c386620015c5565b620011ce85620015c5565b620011d983620015c5565b620011e482620015c5565b606780546001600160a01b03199081166001600160a01b0389811691909117909255606880548216888416179055606980548216878416179055606a80548216868416179055606b80549091169184169190911790556040516000805160206200276f833981519152906200125b9088906200188b565b60405180910390a18015620012aa576000805461ff0019169055604051600181527f7f26b83ff96e1f2b6a682f133852f6798a09c465da95921460cefb38474024989060200160405180910390a15b50505050505050565b620012bd62001324565b6001600160a01b038116620010a25760405162461bcd60e51b815260206004820152602660248201527f4f776e61626c653a206e6577206f776e657220697320746865207a65726f206160448201526564647265737360d01b60648201526084016200068e565b336200132f62000dc2565b6001600160a01b03161462000cb35760405162461bcd60e51b815260206004820181905260248201527f4f776e61626c653a2063616c6c6572206973206e6f7420746865206f776e657260448201526064016200068e565b60008051602062002728833981519152546001600160a01b031690565b33620013af62000dc2565b6001600160a01b03161462000a925733620013c962000dc2565b60405163163678e960e01b81526001600160a01b039283166004820152911660248201526044016200068e565b7f4910fdfa16fed3260ed0e7147f7cc6da11a60208b5b9406d12a635614ffd91435460ff161562001431576200142c83620015fc565b505050565b826001600160a01b03166352d1902d6040518163ffffffff1660e01b8152600401602060405180830381865afa9250505080156200148e575060408051601f3d908101601f191682019092526200148b91810190620021ec565b60015b620014f35760405162461bcd60e51b815260206004820152602e60248201527f45524331393637557067726164653a206e657720696d706c656d656e7461746960448201526d6f6e206973206e6f74205555505360901b60648201526084016200068e565b600080516020620027288339815191528114620015655760405162461bcd60e51b815260206004820152602960248201527f45524331393637557067726164653a20756e737570706f727465642070726f786044820152681a58589b195555525160ba1b60648201526084016200068e565b506200142c8383836200169b565b603380546001600160a01b038381166001600160a01b0319831681179093556040519116919082907f8be0079c531659141344cd1fd0a4f28419497f9722a3daafe3b4186f6b6457e090600090a35050565b6001600160a01b03811662000a92576040516303988b8160e61b815260040160405180910390fd5b6001600160a01b03163b151590565b6200160781620015ed565b6200166b5760405162461bcd60e51b815260206004820152602d60248201527f455243313936373a206e657720696d706c656d656e746174696f6e206973206e60448201526c1bdd08184818dbdb9d1c9858dd609a1b60648201526084016200068e565b6000805160206200272883398151915280546001600160a01b0319166001600160a01b0392909216919091179055565b620016a683620016cc565b600082511180620016b45750805b156200142c57620016c683836200170e565b50505050565b620016d781620015fc565b6040516001600160a01b038216907fbc7cd75a20ee27fd9adebab32041f755214dbc6bffa90cc0225b39da2e5c2d3b90600090a250565b606062001736838360405180606001604052806027815260200162002748602791396200173d565b9392505050565b6060600080856001600160a01b0316856040516200175c919062002206565b600060405180830381855af49150503d806000811462001799576040519150601f19603f3d011682016040523d82523d6000602084013e6200179e565b606091505b5091509150620017b186838387620017bb565b9695505050505050565b606083156200182f5782516000036200182757620017d985620015ed565b620018275760405162461bcd60e51b815260206004820152601d60248201527f416464726573733a2063616c6c20746f206e6f6e2d636f6e747261637400000060448201526064016200068e565b50816200183b565b6200183b838362001843565b949350505050565b815115620018545781518083602001fd5b8060405162461bcd60e51b81526004016200068e919062001e52565b6104c3806200222583390190565b6001600160a01b03169052565b6001600160a01b0391909116815260200190565b6001600160a01b038116811462000a9257600080fd5b803562000e5f816200189f565b600060208284031215620018d557600080fd5b813562001736816200189f565b634e487b7160e01b600052604160045260246000fd5b60405161018081016001600160401b03811182821017156200191e576200191e620018e2565b60405290565b604051601f8201601f191681016001600160401b03811182821017156200194f576200194f620018e2565b604052919050565b60006001600160401b03821115620019735762001973620018e2565b5060051b60200190565b8035801515811462000e5f57600080fd5b60008060408385031215620019a257600080fd5b82356001600160401b03811115620019b957600080fd5b8301601f81018513620019cb57600080fd5b80356020620019e4620019de8362001957565b62001924565b82815260059290921b8301810191818101908884111562001a0457600080fd5b938201935b8385101562001a2f57843562001a1f816200189f565b8252938201939082019062001a09565b955062001a4090508682016200197d565b93505050509250929050565b60006001600160401b0383111562001a685762001a68620018e2565b62001a7d601f8401601f191660200162001924565b905082815283838301111562001a9257600080fd5b828260208301376000602084830101529392505050565b6000806040838503121562001abd57600080fd5b823562001aca816200189f565b915060208301356001600160401b0381111562001ae657600080fd5b8301601f8101851362001af857600080fd5b62001b098582356020840162001a4c565b9150509250929050565b6000806040838503121562001b2757600080fd5b823562001b34816200189f565b915062001b44602084016200197d565b90509250929050565b6000806040838503121562001b6157600080fd5b823562001b6e816200189f565b946020939093013593505050565b600082601f83011262001b8e57600080fd5b620017368383356020850162001a4c565b60006040828403121562001bb257600080fd5b604080519081016001600160401b03808211838310171562001bd85762001bd8620018e2565b8160405282935084358352602085013591508082111562001bf857600080fd5b5062001c078582860162001b7c565b6020830152505092915050565b60006020828403121562001c2757600080fd5b81356001600160401b038082111562001c3f57600080fd5b90830190610180828603121562001c5557600080fd5b62001c5f620018f8565b62001c6a83620018b5565b815262001c7a60208401620018b5565b602082015260408301356040820152606083013560608201526080830135608082015262001cab60a08401620018b5565b60a082015262001cbe60c08401620018b5565b60c082015260e08301358281111562001cd657600080fd5b62001ce48782860162001b9f565b60e08301525061010062001cfa818501620018b5565b90820152610120838101358381111562001d1357600080fd5b62001d218882870162001b7c565b82840152505061014062001d378185016200197d565b90820152610160838101358381111562001d5057600080fd5b62001d5e8882870162001b7c565b918301919091525095945050505050565b60008060008060008060c0878903121562001d8957600080fd5b863562001d96816200189f565b9550602087013562001da8816200189f565b9450604087013562001dba816200189f565b9350606087013562001dcc816200189f565b9250608087013562001dde816200189f565b915060a087013562001df0816200189f565b809150509295509295509295565b60005b8381101562001e1b57818101518382015260200162001e01565b50506000910152565b6000815180845262001e3e81602086016020860162001dfe565b601f01601f19169290920160200192915050565b60208152600062001736602083018462001e24565b60006020828403121562001e7a57600080fd5b815162001736816200189f565b6000602080838503121562001e9b57600080fd5b82516001600160401b0381111562001eb257600080fd5b8301601f8101851362001ec457600080fd5b805162001ed5620019de8262001957565b81815260059190911b8201830190838101908783111562001ef557600080fd5b928401925b8284101562001f2057835162001f10816200189f565b8252928401929084019062001efa565b979650505050505050565b634e487b7160e01b600052603260045260246000fd5b60006001820162001f6257634e487b7160e01b600052601160045260246000fd5b5060010190565b600081518084526020808501945080840160005b8381101562001fa45781516001600160a01b03168752958201959082019060010162001f7d565b509495945050505050565b60408152600062001fc4604083018562001f69565b828103602084015262001fd8818562001f69565b95945050505050565b6020808252602c90820152600080516020620026e883398151915260408201526b19195b1959d85d1958d85b1b60a21b606082015260800190565b6020808252602c90820152600080516020620026e883398151915260408201526b6163746976652070726f787960a01b606082015260800190565b8051825260006020820151604060208501526200183b604085018262001e24565b60a081526200208c60a0820187516200187e565b60006020870151620020a260c08401826200187e565b50604087015160e08301526060870151610100818185015260808901519150610120828186015260a08a01519250610140620020e1818701856200187e565b60c08b01519350610160620020f9818801866200187e565b60e08c01516101808881015294506200211761022088018662002057565b938c01519394506200212e6101a08801856200187e565b828c01519350609f19925082878603016101c088015262002150858562001e24565b9450818c01519350620021686101e088018515159052565b8b015186850390920161020087015250905062002186828262001e24565b925050506200219960208301876200187e565b620021a860408301866200187e565b620021b760608301856200187e565b620017b160808301846200187e565b6001600160a01b03831681526040602082018190526000906200183b9083018462001e24565b600060208284031215620021ff57600080fd5b5051919050565b600082516200221a81846020870162001dfe565b919091019291505056fe60806040526040516104c33803806104c3833981016040819052610022916102e9565b61002e82826000610035565b5050610406565b61003e83610061565b60008251118061004b5750805b1561005c5761005a83836100a1565b505b505050565b61006a816100cd565b6040516001600160a01b038216907fbc7cd75a20ee27fd9adebab32041f755214dbc6bffa90cc0225b39da2e5c2d3b90600090a250565b60606100c6838360405180606001604052806027815260200161049c6027913961017e565b9392505050565b6100d6816101f7565b61013d5760405162461bcd60e51b815260206004820152602d60248201527f455243313936373a206e657720696d706c656d656e746174696f6e206973206e60448201526c1bdd08184818dbdb9d1c9858dd609a1b60648201526084015b60405180910390fd5b7f360894a13ba1a3210667c828492db98dca3e2076cc3735a920a3ca505d382bbc80546001600160a01b0319166001600160a01b0392909216919091179055565b6060600080856001600160a01b03168560405161019b91906103b7565b600060405180830381855af49150503d80600081146101d6576040519150601f19603f3d011682016040523d82523d6000602084013e6101db565b606091505b5090925090506101ed86838387610206565b9695505050505050565b6001600160a01b03163b151590565b6060831561027357825160000361026c57610220856101f7565b61026c5760405162461bcd60e51b815260206004820152601d60248201527f416464726573733a2063616c6c20746f206e6f6e2d636f6e74726163740000006044820152606401610134565b508161027d565b61027d8383610285565b949350505050565b8151156102955781518083602001fd5b8060405162461bcd60e51b815260040161013491906103d3565b634e487b7160e01b600052604160045260246000fd5b60005b838110156102e05781810151838201526020016102c8565b50506000910152565b600080604083850312156102fc57600080fd5b82516001600160a01b038116811461031357600080fd5b60208401519092506001600160401b038082111561033057600080fd5b818501915085601f83011261034457600080fd5b815181811115610356576103566102af565b604051601f8201601f19908116603f0116810190838211818310171561037e5761037e6102af565b8160405282815288602084870101111561039757600080fd5b6103a88360208301602088016102c5565b80955050505050509250929050565b600082516103c98184602087016102c5565b9190910192915050565b60208152600082518060208401526103f28160408501602087016102c5565b601f01601f19169190910160400192915050565b6088806104146000396000f3fe608060405236601057600e6013565b005b600e5b601f601b6021565b6058565b565b600060537f360894a13ba1a3210667c828492db98dca3e2076cc3735a920a3ca505d382bbc546001600160a01b031690565b905090565b3660008037600080366000845af43d6000803e8080156076573d6000f35b3d6000fdfea164736f6c6343000813000a416464726573733a206c6f772d6c6576656c2064656c65676174652063616c6c206661696c656446756e6374696f6e206d7573742062652063616c6c6564207468726f7567682099650b9d916775b3b2e44f9aae79e2813e1dbfea1e69425eeb145566ab71d209360894a13ba1a3210667c828492db98dca3e2076cc3735a920a3ca505d382bbc416464726573733a206c6f772d6c6576656c2064656c65676174652063616c6c206661696c6564bdf37c276f641820b141429d245add2552b4118c0866e5a78638e3de5ef18d9de50e6cedeb6a710820f2b7f26dc2d904a9b3ef0b2c087cf8ca10697647951d7da164736f6c6343000813000a","linkReferences":{}},"methodIdentifiers":{"VERSION()":"ffa1ad74","collateralVaultTemplate()":"77122d56","createRegistry((address,address,uint256,uint256,uint256,address,address,(uint256,string),address,string,bool,string))":"beb331a3","cvVaultTemplate()":"5e808daa","gardensFeeReceiver()":"b8bed901","getCommunityValidity(address)":"f5016b5e","getGardensFeeReceiver()":"987435be","getProtocolFee(address)":"0a992e0c","initialize(address)":"c4d66de8","initialize(address,address,address,address,address,address)":"cc2a9a5b","keepersAddresses(address)":"1f4b502e","nonce()":"affed0e0","owner()":"8da5cb5b","protopiansAddresses(address)":"083e8f97","proxiableUUID()":"52d1902d","proxyOwner()":"025313a2","registryCommunityTemplate()":"02c1d0b1","renounceOwnership()":"715018a6","setCVVaultTemplate(address)":"c5325d92","setCollateralVaultTemplate(address)":"b0d3713a","setCommunityValidity(address,bool)":"5a2c8ace","setKeeperAddress(address[],bool)":"1425d1ec","setProtocolFee(address,uint256)":"b5b3ca2c","setProtopianAddress(address[],bool)":"8d3ad8a4","setReceiverAddress(address)":"8279c7db","setRegistryCommunityTemplate(address)":"5decae02","setStrategyTemplate(address)":"1b71f0e4","strategyTemplate()":"5c94e4d2","transferOwnership(address)":"f2fde38b","upgradeTo(address)":"3659cfe6","upgradeToAndCall(address,bytes)":"4f1ef286"},"storageLayout":{"storage":[{"astId":53122,"contract":"pkg/contracts/src/RegistryFactory/RegistryFactory.sol:RegistryFactory","label":"_initialized","offset":0,"slot":"0","type":"t_uint8"},{"astId":53125,"contract":"pkg/contracts/src/RegistryFactory/RegistryFactory.sol:RegistryFactory","label":"_initializing","offset":1,"slot":"0","type":"t_bool"},{"astId":55528,"contract":"pkg/contracts/src/RegistryFactory/RegistryFactory.sol:RegistryFactory","label":"__gap","offset":0,"slot":"1","type":"t_array(t_uint256)50_storage"},{"astId":52746,"contract":"pkg/contracts/src/RegistryFactory/RegistryFactory.sol:RegistryFactory","label":"_owner","offset":0,"slot":"51","type":"t_address"},{"astId":52866,"contract":"pkg/contracts/src/RegistryFactory/RegistryFactory.sol:RegistryFactory","label":"__gap","offset":0,"slot":"52","type":"t_array(t_uint256)49_storage"},{"astId":87459,"contract":"pkg/contracts/src/RegistryFactory/RegistryFactory.sol:RegistryFactory","label":"nonce","offset":0,"slot":"101","type":"t_uint256"},{"astId":87464,"contract":"pkg/contracts/src/RegistryFactory/RegistryFactory.sol:RegistryFactory","label":"communityToInfo","offset":0,"slot":"102","type":"t_mapping(t_address,t_struct(CommunityInfo)87451_storage)"},{"astId":87466,"contract":"pkg/contracts/src/RegistryFactory/RegistryFactory.sol:RegistryFactory","label":"gardensFeeReceiver","offset":0,"slot":"103","type":"t_address"},{"astId":87468,"contract":"pkg/contracts/src/RegistryFactory/RegistryFactory.sol:RegistryFactory","label":"registryCommunityTemplate","offset":0,"slot":"104","type":"t_address"},{"astId":87470,"contract":"pkg/contracts/src/RegistryFactory/RegistryFactory.sol:RegistryFactory","label":"strategyTemplate","offset":0,"slot":"105","type":"t_address"},{"astId":87472,"contract":"pkg/contracts/src/RegistryFactory/RegistryFactory.sol:RegistryFactory","label":"collateralVaultTemplate","offset":0,"slot":"106","type":"t_address"},{"astId":87474,"contract":"pkg/contracts/src/RegistryFactory/RegistryFactory.sol:RegistryFactory","label":"cvVaultTemplate","offset":0,"slot":"107","type":"t_address"},{"astId":87478,"contract":"pkg/contracts/src/RegistryFactory/RegistryFactory.sol:RegistryFactory","label":"protopiansAddresses","offset":0,"slot":"108","type":"t_mapping(t_address,t_bool)"},{"astId":87482,"contract":"pkg/contracts/src/RegistryFactory/RegistryFactory.sol:RegistryFactory","label":"keepersAddresses","offset":0,"slot":"109","type":"t_mapping(t_address,t_bool)"},{"astId":88030,"contract":"pkg/contracts/src/RegistryFactory/RegistryFactory.sol:RegistryFactory","label":"__gap","offset":0,"slot":"110","type":"t_array(t_uint256)50_storage"}],"types":{"t_address":{"encoding":"inplace","label":"address","numberOfBytes":"20"},"t_array(t_uint256)49_storage":{"encoding":"inplace","label":"uint256[49]","numberOfBytes":"1568","base":"t_uint256"},"t_array(t_uint256)50_storage":{"encoding":"inplace","label":"uint256[50]","numberOfBytes":"1600","base":"t_uint256"},"t_bool":{"encoding":"inplace","label":"bool","numberOfBytes":"1"},"t_mapping(t_address,t_bool)":{"encoding":"mapping","key":"t_address","label":"mapping(address => bool)","numberOfBytes":"32","value":"t_bool"},"t_mapping(t_address,t_struct(CommunityInfo)87451_storage)":{"encoding":"mapping","key":"t_address","label":"mapping(address => struct CommunityInfo)","numberOfBytes":"32","value":"t_struct(CommunityInfo)87451_storage"},"t_struct(CommunityInfo)87451_storage":{"encoding":"inplace","label":"struct CommunityInfo","numberOfBytes":"64","members":[{"astId":87448,"contract":"pkg/contracts/src/RegistryFactory/RegistryFactory.sol:RegistryFactory","label":"fee","offset":0,"slot":"0","type":"t_uint256"},{"astId":87450,"contract":"pkg/contracts/src/RegistryFactory/RegistryFactory.sol:RegistryFactory","label":"valid","offset":0,"slot":"1","type":"t_bool"}]},"t_uint256":{"encoding":"inplace","label":"uint256","numberOfBytes":"32"},"t_uint8":{"encoding":"inplace","label":"uint8","numberOfBytes":"1"}}},"id":150}