{"abi":[{"type":"function","name":"createRegistry","inputs":[{"name":"params","type":"tuple","internalType":"struct RegistryCommunity.InitializeParams","components":[{"name":"_allo","type":"address","internalType":"address"},{"name":"_gardenToken","type":"address","internalType":"contract IERC20"},{"name":"_registerStakeAmount","type":"uint256","internalType":"uint256"},{"name":"_communityFee","type":"uint256","internalType":"uint256"},{"name":"_nonce","type":"uint256","internalType":"uint256"},{"name":"_registryFactory","type":"address","internalType":"address"},{"name":"_feeReceiver","type":"address","internalType":"address"},{"name":"_metadata","type":"tuple","internalType":"struct Metadata","components":[{"name":"protocol","type":"uint256","internalType":"uint256"},{"name":"pointer","type":"string","internalType":"string"}]},{"name":"_councilSafe","type":"address","internalType":"address payable"},{"name":"_communityName","type":"string","internalType":"string"},{"name":"_isKickEnabled","type":"bool","internalType":"bool"},{"name":"covenantIpfsHash","type":"string","internalType":"string"},{"name":"_strategyTemplate","type":"address","internalType":"address"}]}],"outputs":[{"name":"_createdRegistryAddress","type":"address","internalType":"address"}],"stateMutability":"nonpayable"},{"type":"function","name":"gardensFeeReceiver","inputs":[],"outputs":[{"name":"","type":"address","internalType":"address"}],"stateMutability":"view"},{"type":"function","name":"getCommunityValidity","inputs":[{"name":"_community","type":"address","internalType":"address"}],"outputs":[{"name":"","type":"bool","internalType":"bool"}],"stateMutability":"view"},{"type":"function","name":"getGardensFeeReceiver","inputs":[],"outputs":[{"name":"","type":"address","internalType":"address"}],"stateMutability":"view"},{"type":"function","name":"getProtocolFee","inputs":[{"name":"_community","type":"address","internalType":"address"}],"outputs":[{"name":"","type":"uint256","internalType":"uint256"}],"stateMutability":"view"},{"type":"function","name":"nonce","inputs":[],"outputs":[{"name":"","type":"uint256","internalType":"uint256"}],"stateMutability":"view"},{"type":"function","name":"owner","inputs":[],"outputs":[{"name":"","type":"address","internalType":"address"}],"stateMutability":"view"},{"type":"function","name":"renounceOwnership","inputs":[],"outputs":[],"stateMutability":"nonpayable"},{"type":"function","name":"setCommunityValidity","inputs":[{"name":"_community","type":"address","internalType":"address"},{"name":"_isValid","type":"bool","internalType":"bool"}],"outputs":[],"stateMutability":"nonpayable"},{"type":"function","name":"setProtocolFee","inputs":[{"name":"_community","type":"address","internalType":"address"},{"name":"_newProtocolFee","type":"uint256","internalType":"uint256"}],"outputs":[],"stateMutability":"nonpayable"},{"type":"function","name":"setReceiverAddress","inputs":[{"name":"_newFeeReceiver","type":"address","internalType":"address"}],"outputs":[],"stateMutability":"nonpayable"},{"type":"function","name":"transferOwnership","inputs":[{"name":"newOwner","type":"address","internalType":"address"}],"outputs":[],"stateMutability":"nonpayable"},{"type":"event","name":"CommunityCreated","inputs":[{"name":"_registryCommunity","type":"address","indexed":false,"internalType":"address"}],"anonymous":false},{"type":"event","name":"CommunityValiditySet","inputs":[{"name":"_community","type":"address","indexed":false,"internalType":"address"},{"name":"_isValid","type":"bool","indexed":false,"internalType":"bool"}],"anonymous":false},{"type":"event","name":"FeeReceiverSet","inputs":[{"name":"_newFeeReceiver","type":"address","indexed":false,"internalType":"address"}],"anonymous":false},{"type":"event","name":"OwnershipTransferred","inputs":[{"name":"previousOwner","type":"address","indexed":true,"internalType":"address"},{"name":"newOwner","type":"address","indexed":true,"internalType":"address"}],"anonymous":false},{"type":"event","name":"ProtocolFeeSet","inputs":[{"name":"_community","type":"address","indexed":false,"internalType":"address"},{"name":"_newProtocolFee","type":"uint256","indexed":false,"internalType":"uint256"}],"anonymous":false},{"type":"error","name":"AddressCannotBeZero","inputs":[]},{"type":"error","name":"CommunityInvalid","inputs":[{"name":"_community","type":"address","internalType":"address"}]}],"bytecode":{"object":"0x6080604052600060015534801561001557600080fd5b5061001f33610024565b610074565b600080546001600160a01b038381166001600160a01b0319831681178455604051919092169283917f8be0079c531659141344cd1fd0a4f28419497f9722a3daafe3b4186f6b6457e09190a35050565b61531e806100836000396000f3fe608060405234801561001057600080fd5b50600436106100d45760003560e01c8063987435be11610081578063b8bed9011161005b578063b8bed90114610198578063f2fde38b146101ab578063f5016b5e146101be57600080fd5b8063987435be1461016b578063affed0e01461017c578063b5b3ca2c1461018557600080fd5b80638279c7db116100b25780638279c7db1461011c5780638a16135f1461012f5780638da5cb5b1461015a57600080fd5b80630a992e0c146100d95780635a2c8ace146100ff578063715018a614610114575b600080fd5b6100ec6100e73660046106a3565b6101fa565b6040519081526020015b60405180910390f35b61011261010d3660046106d7565b61027b565b005b6101126102e7565b61011261012a3660046106a3565b6102fb565b61014261013d366004610848565b61036d565b6040516001600160a01b0390911681526020016100f6565b6000546001600160a01b0316610142565b6003546001600160a01b0316610142565b6100ec60015481565b61011261019336600461099e565b61048e565b600354610142906001600160a01b031681565b6101126101b93660046106a3565b6104ea565b6101ea6101cc3660046106a3565b6001600160a01b031660009081526002602052604090205460ff1690565b60405190151581526020016100f6565b6001600160a01b03811660009081526002602052604081205460ff1661025c576040517ff5a6943d0000000000000000000000000000000000000000000000000000000081526001600160a01b03831660048201526024015b60405180910390fd5b506001600160a01b031660009081526002602052604090206001015490565b61028361057a565b6001600160a01b038216600081815260026020908152604091829020805460ff19168515159081179091558251938452908301527fecdcd3502799a6c41864ea2682236184e876f63e10f8d56c7768a3d501e89f6291015b60405180910390a15050565b6102ef61057a565b6102f960006105d4565b565b61030361057a565b61030c81610631565b6003805473ffffffffffffffffffffffffffffffffffffffff19166001600160a01b0383169081179091556040519081527fbdf37c276f641820b141429d245add2552b4118c0866e5a78638e3de5ef18d9d9060200160405180910390a150565b60008060405161037c90610671565b604051809103906000f080158015610398573d6000803e3d6000fd5b506001805491925060006103ab836109ca565b9091555060808401523060a08401526040517f96f0adec0000000000000000000000000000000000000000000000000000000081526001600160a01b038216906396f0adec906103ff908690600401610a5e565b600060405180830381600087803b15801561041957600080fd5b505af115801561042d573d6000803e3d6000fd5b505050506001600160a01b038116600081815260026020908152604091829020805460ff1916600117905590519182527fb4108a188495a1a681cdc0750af164011025a1773b41e93ff3e628adc037dc29910160405180910390a192915050565b61049661057a565b6001600160a01b038216600081815260026020908152604091829020600101849055815192835282018390527fa1ee82e4f177a8017f33ddddac05b7ceab1de9d46f7195e15e8aa2e8b88f3b1c91016102db565b6104f261057a565b6001600160a01b03811661056e5760405162461bcd60e51b815260206004820152602660248201527f4f776e61626c653a206e6577206f776e657220697320746865207a65726f206160448201527f64647265737300000000000000000000000000000000000000000000000000006064820152608401610253565b610577816105d4565b50565b6000546001600160a01b031633146102f95760405162461bcd60e51b815260206004820181905260248201527f4f776e61626c653a2063616c6c6572206973206e6f7420746865206f776e65726044820152606401610253565b600080546001600160a01b0383811673ffffffffffffffffffffffffffffffffffffffff19831681178455604051919092169283917f8be0079c531659141344cd1fd0a4f28419497f9722a3daafe3b4186f6b6457e09190a35050565b6001600160a01b038116610577576040517fe622e04000000000000000000000000000000000000000000000000000000000815260040160405180910390fd5b61474b80610b9e83390190565b6001600160a01b038116811461057757600080fd5b803561069e8161067e565b919050565b6000602082840312156106b557600080fd5b81356106c08161067e565b9392505050565b8035801515811461069e57600080fd5b600080604083850312156106ea57600080fd5b82356106f58161067e565b9150610703602084016106c7565b90509250929050565b634e487b7160e01b600052604160045260246000fd5b6040516101a0810167ffffffffffffffff811182821017156107465761074661070c565b60405290565b600082601f83011261075d57600080fd5b813567ffffffffffffffff808211156107785761077861070c565b604051601f8301601f19908116603f011681019082821181831017156107a0576107a061070c565b816040528381528660208588010111156107b957600080fd5b836020870160208301376000602085830101528094505050505092915050565b6000604082840312156107eb57600080fd5b6040516040810167ffffffffffffffff828210818311171561080f5761080f61070c565b8160405282935084358352602085013591508082111561082e57600080fd5b5061083b8582860161074c565b6020830152505092915050565b60006020828403121561085a57600080fd5b813567ffffffffffffffff8082111561087257600080fd5b908301906101a0828603121561088757600080fd5b61088f610722565b61089883610693565b81526108a660208401610693565b60208201526040830135604082015260608301356060820152608083013560808201526108d560a08401610693565b60a08201526108e660c08401610693565b60c082015260e0830135828111156108fd57600080fd5b610909878286016107d9565b60e08301525061010061091d818501610693565b90820152610120838101358381111561093557600080fd5b6109418882870161074c565b8284015250506101406109558185016106c7565b90820152610160838101358381111561096d57600080fd5b6109798882870161074c565b828401525050610180915061098f828401610693565b91810191909152949350505050565b600080604083850312156109b157600080fd5b82356109bc8161067e565b946020939093013593505050565b6000600182016109ea57634e487b7160e01b600052601160045260246000fd5b5060010190565b6000815180845260005b81811015610a17576020818501810151868301820152016109fb565b506000602082860101526020601f19601f83011685010191505092915050565b805182526000602082015160406020850152610a5660408501826109f1565b949350505050565b60208152610a786020820183516001600160a01b03169052565b60006020830151610a9460408401826001600160a01b03169052565b506040830151606083015260608301516080830152608083015160a083015260a0830151610acd60c08401826001600160a01b03169052565b5060c08301516001600160a01b03811660e08401525060e08301516101a06101008181860152610b016101c0860184610a37565b90860151909250610120610b1f868201836001600160a01b03169052565b80870151915050601f19610140818786030181880152610b3f85846109f1565b945080880151925050610160610b588188018415159052565b80880151925050610180818786030181880152610b7585846109f1565b94508088015192505050610b93828601826001600160a01b03169052565b509094935050505056fe60806040523480156200001157600080fd5b506001600090815562000046907fbc6bbe35ebc64943402c04d2ae016d7bd2bba28e1a11cf66be743c9bd74c720b906200004c565b62000099565b6000828152600160208190526040808320909101805490849055905190918391839186917fbd79b86ffe0ab8e8776151514217cd7cacd52c909f66475c3af44e129f0b00ff9190a4505050565b6146a280620000a96000396000f3fe608060405234801561001057600080fd5b506004361061036d5760003560e01c80636c53db9a116101d3578063a230c52411610104578063c8a593e9116100a2578063d7050f071161007c578063d7050f0714610876578063db61d65c1461087f578063ebd7dc5214610892578063f86c5f89146108a557600080fd5b8063c8a593e91461083d578063d547741f14610850578063d6d8428d1461086357600080fd5b8063b64e39af116100de578063b64e39af14610810578063b99b437014610825578063bc063e1a1461082d578063c6d572ae1461083557600080fd5b8063a230c5241461079e578063b3f00674146107f5578063b5058c501461080857600080fd5b80638961be6b116101715780639a72a86f1161014b5780639a72a86f14610724578063a0b21cdf14610754578063a0cf0aea1461077b578063a217fddf1461079657600080fd5b80638961be6b146106cf57806391d14854146106d857806396f0adec1461071157600080fd5b806378a0b8a9116101ad57806378a0b8a91461063d5780637b1039991461064657806382d6a1e71461065957806388cfe6841461066c57600080fd5b80636c53db9a146105de57806373265c37146105f15780637817ee4f1461060457600080fd5b80632f2ff15d116102ad578063477a5cc01161024b5780635ecf71c5116102255780635ecf71c51461057a57806365e3864c1461058d5780636871eb4d146105b857806368decabb146105cb57600080fd5b8063477a5cc014610526578063559de05d146105545780635c94e4d21461056757600080fd5b80633517aa7d116102875780633517aa7d146104d557806336568abe146104dd578063397e2543146104f05780633a871fe11461050357600080fd5b80632f2ff15d146104a657806331f61bca146104b957806333960459146104cc57600080fd5b80631f787d281161031a578063248a9ca3116102f4578063248a9ca31461042357806328c309e9146104475780632b38c69c1461044f5780632c611c4a1461047a57600080fd5b80631f787d28146103f0578063223e5479146103fd57806322bcf9991461041057600080fd5b80630d12bbdb1161034b5780630d12bbdb146103b55780630d4a8b49146103ca578063175188e8146103dd57600080fd5b806301ffc9a7146103725780630331383c1461039a57806308386eba146103ac575b600080fd5b61038561038036600461377d565b6108b8565b60405190151581526020015b60405180910390f35b6003545b604051908152602001610391565b61039e60055481565b6103c86103c33660046137a7565b610908565b005b6103c86103d83660046137e5565b610992565b6103c86103eb36600461381e565b610cf9565b6002546103859060ff1681565b6103c861040b36600461381e565b610d0d565b6103c861041e3660046137e5565b610d1e565b61039e6104313660046137a7565b6000908152600160208190526040909120015490565b61039e610e2d565b61046261045d36600461383b565b610f17565b6040516001600160a01b039091168152602001610391565b61039e61048836600461381e565b6001600160a01b031660009081526013602052604090206001015490565b6103c86104b4366004613867565b610f4f565b6103c86104c73660046137a7565b610f7a565b61039e60095481565b6103c8610fb7565b6103c86104eb366004613867565b6113bc565b6103c86104fe36600461381e565b61144d565b61038561051136600461381e565b60116020526000908152604090205460ff1681565b6103856105343660046137e5565b601560209081526000928352604080842090915290825290205460ff1681565b6103c86105623660046137a7565b6114ba565b600854610462906001600160a01b031681565b6103c86105883660046137a7565b611794565b61039e61059b3660046137e5565b601260209081526000928352604080842090915290825290205481565b6103c86105c63660046137e5565b611b4e565b600a54610462906001600160a01b031681565b600d54610462906001600160a01b031681565b6103c86105ff3660046137a7565b611d59565b61039e6106123660046137e5565b6001600160a01b03918216600090815260126020908152604080832093909416825291909152205490565b61039e60035481565b600b54610462906001600160a01b031681565b6103c86106673660046137a7565b611deb565b6106a861067a36600461381e565b6013602052600090815260409020805460018201546002909201546001600160a01b03909116919060ff1683565b604080516001600160a01b0390941684526020840192909252151590820152606001610391565b61039e60045481565b6103856106e6366004613867565b60009182526001602090815260408084206001600160a01b0393909316845291905290205460ff1690565b6103c861071f366004613a50565b611e9c565b610737610732366004613ce7565b612388565b604080519283526001600160a01b03909116602083015201610391565b61039e7fbc6bbe35ebc64943402c04d2ae016d7bd2bba28e1a11cf66be743c9bd74c720b81565b61046273eeeeeeeeeeeeeeeeeeeeeeeeeeeeeeeeeeeeeeee81565b61039e600081565b6103856107ac36600461381e565b6001600160a01b039081166000908152601360209081526040918290208251606081018452815490941684526001810154918401919091526002015460ff161515910181905290565b600654610462906001600160a01b031681565b6103c86123d2565b61081861241e565b6040516103919190613d9a565b6103c86124ac565b61039e61260f565b61081861261f565b61073761084b366004613dad565b61262c565b6103c861085e366004613867565b6127ab565b600e54610462906001600160a01b031681565b61039e61271081565b600c54610462906001600160a01b031681565b6103856108a036600461381e565b6127d1565b600754610462906001600160a01b031681565b60006001600160e01b031982167f7965db0b00000000000000000000000000000000000000000000000000000000148061090257506301ffc9a760e01b6001600160e01b03198316145b92915050565b610910612811565b61091d612710600a613e39565b811115610956576040517ffe925f7d00000000000000000000000000000000000000000000000000000000815260040160405180910390fd5b60048190556040518181527f611668bfcf654a99c33cdb66c29ec37a5aae5c1287d2d9715a24e18cb4d806d6906020015b60405180910390a150565b61099b82612879565b6109a4816128dc565b6109ad8161292e565b6001600160a01b0380831660009081526015602090815260408083209385168352929052205460ff1615610a0d576040517fd5b9bc9600000000000000000000000000000000000000000000000000000000815260040160405180910390fd5b6001600160a01b0380831660009081526013602090815260409182902082516060810184528154909416845260018101549184018290526002015460ff161515918301919091526003805490846001600160a01b031663c32921716040518163ffffffff1660e01b81526004016020604051808303816000875af1158015610a99573d6000803e3d6000fd5b505050506040513d601f19601f82011682018060405250810190610abd9190613e66565b6003811115610ace57610ace613e50565b03610b4d5760405163782aadff60e01b81526001600160a01b0386811660048301526000602483015285169063782aadff906044016020604051808303816000875af1158015610b22573d6000803e3d6000fd5b505050506040513d601f19601f82011682018060405250810190610b469190613e83565b9050610c3f565b6000846001600160a01b031663c32921716040518163ffffffff1660e01b81526004016020604051808303816000875af1158015610b8f573d6000803e3d6000fd5b505050506040513d601f19601f82011682018060405250810190610bb39190613e66565b6003811115610bc457610bc4613e50565b14610c3f5760405163782aadff60e01b81526001600160a01b0386811660048301526024820184905285169063782aadff906044016020604051808303816000875af1158015610c18573d6000803e3d6000fd5b505050506040513d601f19601f82011682018060405250810190610c3c9190613e83565b90505b6001600160a01b038581166000818152601260209081526040808320948916808452948252808320869055838352601582528083208584528252808320805460ff19166001908117909155848452601483528184208054918201815584529282902090920180546001600160a01b0319168517905581519283528201929092529081018290527ff56fa57e85e169a12200d12d9921ec069b52e688f6d309d9dab7bceff54614ec9060600160405180910390a15050505050565b610d01612811565b610d0a8161296e565b50565b610d15612811565b610d0a816129c8565b610d2782612879565b610d308161292e565b610d3a3382612a6f565b6001600160a01b0380831660009081526015602090815260408083209385168352929052205460ff16610d99576040517fc12369dc00000000000000000000000000000000000000000000000000000000815260040160405180910390fd5b6001600160a01b038083166000818152601560209081526040808320948616808452948252808320805460ff191690559282526012815282822093825292909252812055610de78282612aba565b604080516001600160a01b038085168252831660208201527ede109bef4619f7e2cf00c8e5a50ca55f8deb44f87087eed414a91dbf8d1d1b910160405180910390a15050565b6007546000906001600160a01b031681610e4a6127106064613e39565b600454600354610e5a9190613e39565b610e649190613e9c565b90506000610e756127106064613e39565b6040516302a64b8360e21b81523060048201526001600160a01b03851690630a992e0c90602401602060405180830381865afa158015610eb9573d6000803e3d6000fd5b505050506040513d601f19601f82011682018060405250810190610edd9190613e83565b600354610eea9190613e39565b610ef49190613e9c565b90508082600354610f059190613ebe565b610f0f9190613ebe565b935050505090565b60146020528160005260406000208181548110610f3357600080fd5b6000918252602090912001546001600160a01b03169150829050565b60008281526001602081905260409091200154610f6b81612bdc565b610f758383612be6565b505050565b610f82612811565b60038190556040518181527f5bcc2c453001fb0e2ba6266d56ecb411e7c6e15c8f9c3d301f93dd36ad25726f90602001610987565b610fbf612c6d565b33600081815260136020526040812060075490916001600160a01b0390911690610fec6127106064613e39565b600454600354610ffc9190613e39565b6110069190613e9c565b905060006110176127106064613e39565b6040516302a64b8360e21b81523060048201526001600160a01b03851690630a992e0c90602401602060405180830381865afa15801561105b573d6000803e3d6000fd5b505050506040513d601f19601f8201168201806040525081019061107f9190613e83565b60035461108c9190613e39565b6110969190613e9c565b6001600160a01b038087166000908152601360209081526040918290208251606081018452815490941684526001810154918401919091526002015460ff16151591018190529091506113ab5760028401805460ff191660019081179091556003549085015560408051808201909152600b81527f67617264656e546f6b656e0000000000000000000000000000000000000000006020820152600c5461114691906001600160a01b0316612cc6565b6111788530838560035461115a9190613ebe565b6111649190613ebe565b600c546001600160a01b0316929190612d24565b6111b76040518060400160405280601281526020017f636f6d6d756e697479466565416d6f756e74000000000000000000000000000081525083612da8565b81156112245760408051808201909152600b81527f6665655265636569766572000000000000000000000000000000000000000000602082015260065461120791906001600160a01b0316612cc6565b600654600c54611224916001600160a01b03918216911684612e06565b6112636040518060400160405280601081526020017f67617264656e73466565416d6f756e740000000000000000000000000000000081525082612da8565b8015611364576112ec60405180606001604052806026815260200161464760269139846001600160a01b031663987435be6040518163ffffffff1660e01b8152600401602060405180830381865afa1580156112c3573d6000803e3d6000fd5b505050506040513d601f19601f820116820180604052508101906112e79190613ed1565b612cc6565b611364836001600160a01b031663987435be6040518163ffffffff1660e01b8152600401602060405180830381865afa15801561132d573d6000803e3d6000fd5b505050506040513d601f19601f820116820180604052508101906113519190613ed1565b600c546001600160a01b03169083612e06565b600354604080516001600160a01b038816815260208101929092527f67e0244e28040fec15240cd4b6c04c776a2a0278caef23b59e8ada1df31f7689910160405180910390a15b50505050506113ba6001600055565b565b6001600160a01b038116331461143f5760405162461bcd60e51b815260206004820152602f60248201527f416363657373436f6e74726f6c3a2063616e206f6e6c792072656e6f756e636560448201527f20726f6c657320666f722073656c66000000000000000000000000000000000060648201526084015b60405180910390fd5b6114498282612e36565b5050565b611455612811565b61145e8161292e565b600a80546001600160a01b0319166001600160a01b03838116918217909255600d546040805191909316815260208101919091527f83eac9fdaff0ac1017624b7eddeb9782e3d707cd894073cb7e8301a41c6e5cf89101610987565b6114c2612c6d565b6114ca612eb9565b3360008181526014602090815260408083208054825181850281018501909352808352919290919083018282801561152b57602002820191906000526020600020905b81546001600160a01b0316815260019091019060200180831161150d575b50505050509050600080600090505b82518110156116fb5782818151811061155557611555613eee565b602090810291909101015160405163782aadff60e01b81526001600160a01b038681166004830152602482018890529091169063782aadff906044016020604051808303816000875af11580156115b0573d6000803e3d6000fd5b505050506040513d601f19601f820116820180604052508101906115d49190613e83565b915081156116e9576001600160a01b0384166000908152601260205260408120845184929086908590811061160b5761160b613eee565b60200260200101516001600160a01b03166001600160a01b0316815260200190815260200160002060008282546116429190613ebe565b925050819055506116e96040518060400160405280600e81526020017f537472617465677920706f77657200000000000000000000000000000000000081525060126000876001600160a01b03166001600160a01b0316815260200190815260200160002060008685815181106116bb576116bb613eee565b60200260200101516001600160a01b03166001600160a01b0316815260200190815260200160002054612da8565b806116f381613f04565b91505061153a565b50600c54611714906001600160a01b0316843087612d24565b6001600160a01b0383166000908152601360205260408120600101805486929061173f908490613ebe565b9091555050604080516001600160a01b0385168152602081018690527f576605f9bfe8911e7508bed3763c7c5c8eb3b86e8b360b90a4bc6abe1104cb7f91015b60405180910390a1505050610d0a6001600055565b61179c612c6d565b6117a4612eb9565b336000818152601460209081526040808320600354601390935290832060010154909291906117d4908690613f1d565b101561180c576040517f9c47d02e00000000000000000000000000000000000000000000000000000000815260040160405180910390fd5b600c54611823906001600160a01b03168486612e06565b60005b8254811015611ade57600083828154811061184357611843613eee565b6000918252602090912001546001600160a01b0316905061186b8163f1801e6160e01b612f18565b15611a12576040517f2ed04b2b0000000000000000000000000000000000000000000000000000000081526001600160a01b03868116600483015260248201889052821690632ed04b2b906044016020604051808303816000875af11580156118d8573d6000803e3d6000fd5b505050506040513d601f19601f820116820180604052508101906118fc9190613e83565b9250600060126000876001600160a01b03166001600160a01b03168152602001908152602001600020600086858154811061193957611939613eee565b60009182526020808320909101546001600160a01b031683528201929092526040019020549050808411156119a4576040517f8a11f3180000000000000000000000000000000000000000000000000000000081526004810185905260248101829052604401611436565b6001600160a01b038616600090815260126020526040812086548692908890879081106119d3576119d3613eee565b60009182526020808320909101546001600160a01b0316835282019290925260400181208054909190611a07908490613f1d565b909155505050611acb565b83548490611a2290600190613f1d565b81548110611a3257611a32613eee565b9060005260206000200160009054906101000a90046001600160a01b0316848381548110611a6257611a62613eee565b9060005260206000200160006101000a8154816001600160a01b0302191690836001600160a01b0316021790555083805480611aa057611aa0613f30565b600082815260209020810160001990810180546001600160a01b0319169055019055611acb8161296e565b5080611ad681613f04565b915050611826565b506001600160a01b03831660009081526013602052604081206001018054869290611b0a908490613f1d565b9091555050604080516001600160a01b0385168152602081018690527f6ee2c70b2d6b89ae808a2313aab43e925c06624271419cd665d85cfa1ae04ff8910161177f565b611b56612c6d565b611b5e612811565b60025460ff16611b9a576040517fcb63dc7200000000000000000000000000000000000000000000000000000000815260040160405180910390fd5b6001600160a01b038083166000908152601360209081526040918290208251606081018452815490941684526001810154918401919091526002015460ff1615159101819052611bfd57604051636a5cfb6d60e01b815260040160405180910390fd5b6001600160a01b038083166000908152601360209081526040918290208251606081018452815490941684526001810154918401919091526002015460ff16151590820152611c4b83612f3b565b6001600160a01b03838116600090815260136020908152604080832080546001600160a01b031916815560018101939093556002909201805460ff19169055600c5490840151915163a9059cbb60e01b8152858416600482015260248101929092529091169063a9059cbb906044016020604051808303816000875af1158015611cd9573d6000803e3d6000fd5b505050506040513d601f19601f82011682018060405250810190611cfd9190613f46565b50602080820151604080516001600160a01b0380881682528616938101939093528201527fb5946f249f8744efe9d14d49a483b54a589b1362944ff6694de93456cceb96a39060600160405180910390a1506114496001600055565b611d61612811565b600e5460405163068bcd8d60e01b8152600481018390526000916001600160a01b03169063068bcd8d90602401600060405180830381865afa158015611dab573d6000803e3d6000fd5b505050506040513d6000823e601f3d908101601f19168201604052611dd39190810190613f63565b602001519050611de28161292e565b6114498161296e565b611df3612811565b600e5460405163068bcd8d60e01b8152600481018390526000916001600160a01b03169063068bcd8d90602401600060405180830381865afa158015611e3d573d6000803e3d6000fd5b505050506040513d6000823e601f3d908101601f19168201604052611e659190810190613f63565b602001519050611e748161292e565b611e8e6001600160a01b03821663f1801e6160e01b612f18565b1561144957611449816129c8565b611ea9816020015161292e565b611eb781610100015161292e565b8051611ec29061292e565b611ecf8160a0015161292e565b611edd81610180015161292e565b606081015115611ef457611ef48160c0015161292e565b8051600e80546001600160a01b039283166001600160a01b0319918216179091556020830151600c80549190931691161790556040810151600003611f65576040517fc70d18aa00000000000000000000000000000000000000000000000000000000815260040160405180910390fd5b604081015160035560608101516004556101408101516002805460ff1916911515919091179055610120810151600f90611f9f908261410d565b50610160810151601090611fb3908261410d565b5060a0810151600780546001600160a01b03199081166001600160a01b039384161790915560c0830151600680548316918416919091179055610100830151600d8054831682851617905561018084015160088054909316931692909217905561203e907fbc6bbe35ebc64943402c04d2ae016d7bd2bba28e1a11cf66be743c9bd74c720b90612be6565b600e60009054906101000a90046001600160a01b03166001600160a01b0316635ab1bd536040518163ffffffff1660e01b8152600401602060405180830381865afa158015612091573d6000803e3d6000fd5b505050506040513d601f19601f820116820180604052508101906120b59190613ed1565b600b80546001600160a01b0319166001600160a01b03928316179055600d54604080517fa0e67e2b0000000000000000000000000000000000000000000000000000000081529051600093929092169163a0e67e2b9160048082019286929091908290030181865afa15801561212f573d6000803e3d6000fd5b505050506040513d6000823e601f3d908101601f1916820160405261215791908101906141cd565b90506000815160026121699190613ebe565b67ffffffffffffffff8111156121815761218161388c565b6040519080825280602002602001820160405280156121aa578160200160208202803683370190505b50905060005b825181101561220f578281815181106121cb576121cb613eee565b60200260200101518282815181106121e5576121e5613eee565b6001600160a01b03909216602092830291909101909101528061220781613f04565b9150506121b0565b50600d5481516001600160a01b0390911690829061222f90600190613f1d565b8151811061223f5761223f613eee565b60200260200101906001600160a01b031690816001600160a01b03168152505030816002835161226f9190613f1d565b8151811061227f5761227f613eee565b6001600160a01b039283166020918202929092010152600b54608085015160e08601516040517f3a92f65f0000000000000000000000000000000000000000000000000000000081529290931692633a92f65f926122e79291600f913090889060040161435f565b6020604051808303816000875af1158015612306573d6000803e3d6000fd5b505050506040513d601f19601f8201168201806040525081019061232a9190613e83565b60055580516123409060169060208401906136e9565b507f2f2ffcb06f8a1d35e2716f6b43ef2c19bfa76467d8f66964ae12c2583ed03205600554600f8560e0015160405161237b939291906143ad565b60405180910390a1505050565b60085460098054600092839283926123b7926001600160a01b031691846123ae83613f04565b9190505561305d565b90506123c58187878761262c565b9250925050935093915050565b600a546001600160a01b03163314612416576040517febcd0d6e00000000000000000000000000000000000000000000000000000000815260040160405180910390fd5b6113ba6130b1565b6010805461242b90614085565b80601f016020809104026020016040519081016040528092919081815260200182805461245790614085565b80156124a45780601f10612479576101008083540402835291602001916124a4565b820191906000526020600020905b81548152906001019060200180831161248757829003601f168201915b505050505081565b6124b4612c6d565b336124be81612879565b6124c781612f3b565b6001600160a01b0380821660008181526013602090815260408083208151606081018352815496871681526001820180548286015260028301805460ff81161515848701529787526001600160a01b03199098169092559084905560ff1990941690945560149052918220909161253e919061374e565b600c54602082015160405163a9059cbb60e01b81526001600160a01b038581166004830152602482019290925291169063a9059cbb906044016020604051808303816000875af1158015612596573d6000803e3d6000fd5b505050506040513d601f19601f820116820180604052508101906125ba9190613f46565b50602080820151604080516001600160a01b0386168152928301919091527fa13f4668aacb68c4e9eed8e3f6e1cbec3eca776896ec46b5eabcc3983fc8f5f4910160405180910390a150506113ba6001600055565b61261c612710600a613e39565b81565b600f805461242b90614085565b60008073eeeeeeeeeeeeeeeeeeeeeeeeeeeeeeeeeeeeeeee6001600160a01b038616156126565750845b869150600060168054806020026020016040519081016040528092919081815260200182805480156126b157602002820191906000526020600020905b81546001600160a01b03168152600190910190602001808311612693575b5050600e546005546040519596506001600160a01b039091169463e1007d4a94509092508791506126e6908b906020016143f6565b6040516020818303038152906040528660008b886040518863ffffffff1660e01b815260040161271c979695949392919061449f565b6020604051808303816000875af115801561273b573d6000803e3d6000fd5b505050506040513d601f19601f8201168201806040525081019061275f9190613e83565b93507f778cac0ae0b66477341553a4a89398c61ccf448313d3354ad0ca85a5a825d2838484308a8960405161279895949392919061450b565b60405180910390a1505094509492505050565b600082815260016020819052604090912001546127c781612bdc565b610f758383612e36565b6001600160a01b03811660009081527fb5ecf5ecfeba8b6e20c37ad4ed6024e3afbcd2e706bee2e266a62cb37e60342c602052604081205460ff16610902565b3360009081527fb5ecf5ecfeba8b6e20c37ad4ed6024e3afbcd2e706bee2e266a62cb37e60342c602052604090205460ff166113ba576040517ff62651fa00000000000000000000000000000000000000000000000000000000815260040160405180910390fd5b6001600160a01b038082166000908152601360209081526040918290208251606081018452815490941684526001810154918401919091526002015460ff1615159101819052610d0a57604051636a5cfb6d60e01b815260040160405180910390fd5b6001600160a01b03811660009081526011602052604090205460ff16610d0a576040517f46c26e4b00000000000000000000000000000000000000000000000000000000815260040160405180910390fd5b6001600160a01b038116610d0a576040517fe622e04000000000000000000000000000000000000000000000000000000000815260040160405180910390fd5b6129778161292e565b6001600160a01b038116600081815260116020908152604091829020805460ff1916905590519182527f09a1db4b80c32706328728508c941a6b954f31eb5affd32f236c1fd405f8fea49101610987565b6001600160a01b03811660009081526011602052604090205460ff1615612a1b576040517f968a4d2c00000000000000000000000000000000000000000000000000000000815260040160405180910390fd5b6001600160a01b038116600081815260116020908152604091829020805460ff1916600117905590519182527f3f008fd510eae7a9e7bee13513d7b83bef8003d488b5a3d0b0da4de71d6846f19101610987565b806001600160a01b0316826001600160a01b031614611449576040517fbbe7961100000000000000000000000000000000000000000000000000000000815260040160405180910390fd5b6001600160a01b0382166000908152601460205260408120905b8154811015612bd657826001600160a01b0316828281548110612af957612af9613eee565b6000918252602090912001546001600160a01b031603612bc45781548290612b2390600190613f1d565b81548110612b3357612b33613eee565b9060005260206000200160009054906101000a90046001600160a01b0316828281548110612b6357612b63613eee565b9060005260206000200160006101000a8154816001600160a01b0302191690836001600160a01b0316021790555081805480612ba157612ba1613f30565b600082815260209020810160001990810180546001600160a01b03191690550190555b80612bce81613f04565b915050612ad4565b50505050565b610d0a813361310c565b60008281526001602090815260408083206001600160a01b038516845290915290205460ff166114495760008281526001602081815260408084206001600160a01b0386168086529252808420805460ff19169093179092559051339285917f2f8788117e7eff1d82e926ec794901d17c78024a50270940304540a733656f0d9190a45050565b600260005403612cbf5760405162461bcd60e51b815260206004820152601f60248201527f5265656e7472616e637947756172643a207265656e7472616e742063616c6c006044820152606401611436565b6002600055565b6114498282604051602401612cdc929190614545565b60408051601f198184030181529190526020810180516001600160e01b03167f319af33300000000000000000000000000000000000000000000000000000000179052613181565b6040516001600160a01b0380851660248301528316604482015260648101829052612bd69085907f23b872dd00000000000000000000000000000000000000000000000000000000906084015b60408051601f198184030181529190526020810180516001600160e01b03166001600160e01b0319909316929092179091526131a2565b6114498282604051602401612dbe929190614570565b60408051601f198184030181529190526020810180516001600160e01b03167f9710a9d000000000000000000000000000000000000000000000000000000000179052613181565b6040516001600160a01b038316602482015260448101829052610f7590849063a9059cbb60e01b90606401612d71565b60008281526001602090815260408083206001600160a01b038516845290915290205460ff16156114495760008281526001602090815260408083206001600160a01b0385168085529252808320805460ff1916905551339285917ff6391f5c32d9c69d2a47ea670b442974b53935d1edc7fd64eb21e047a839171b9190a45050565b33600090815260136020908152604091829020825160608101845281546001600160a01b031681526001820154928101929092526002015460ff16151591018190526113ba57604051636a5cfb6d60e01b815260040160405180910390fd5b6000612f238361328a565b8015612f345750612f3483836132bd565b9392505050565b6001600160a01b038116600090815260146020908152604080832080548251818502810185019093528083529192909190830182828015612fa557602002820191906000526020600020905b81546001600160a01b03168152600190910190602001808311612f87575b5050505050905060005b8151811015610f7557818181518110612fca57612fca613eee565b60209081029190910101516040517f6453d9c40000000000000000000000000000000000000000000000000000000081526001600160a01b03858116600483015290911690636453d9c490602401600060405180830381600087803b15801561303257600080fd5b505af1158015613046573d6000803e3d6000fd5b50505050808061305590613f04565b915050612faf565b6040516bffffffffffffffffffffffff193360601b1660208201526034810182905260009081906054016040516020818303038152906040528051906020012090506130a98482613346565b949350505050565b600a8054600d80546001600160a01b0383166001600160a01b031991821617909155169055604051600081527fad0399dc40331b9a4977aa89da7a164a3fd482c65e6da73b25a94ea74fb688729060200160405180910390a1565b60008281526001602090815260408083206001600160a01b038516845290915290205460ff166114495761313f816133e3565b61314a8360206133f5565b60405160200161315b929190614592565b60408051601f198184030181529082905262461bcd60e51b825261143691600401613d9a565b80516a636f6e736f6c652e6c6f67602083016000808483855afa5050505050565b60006131f7826040518060400160405280602081526020017f5361666545524332303a206c6f772d6c6576656c2063616c6c206661696c6564815250856001600160a01b03166135d69092919063ffffffff16565b90508051600014806132185750808060200190518101906132189190613f46565b610f755760405162461bcd60e51b815260206004820152602a60248201527f5361666545524332303a204552433230206f7065726174696f6e20646964206e60448201527f6f742073756363656564000000000000000000000000000000000000000000006064820152608401611436565b600061329d826301ffc9a760e01b6132bd565b801561090257506132b6826001600160e01b03196132bd565b1592915050565b604080516001600160e01b03198316602480830191909152825180830390910181526044909101909152602080820180516001600160e01b03166301ffc9a760e01b178152825160009392849283928392918391908a617530fa92503d9150600051905082801561332f575060208210155b801561333b5750600081115b979650505050505050565b6000763d602d80600a3d3981f3363d3d373d3d3d363d730000008360601b60e81c176000526e5af43d82803e903d91602b57fd5bf38360781b1760205281603760096000f590506001600160a01b0381166109025760405162461bcd60e51b815260206004820152601760248201527f455243313136373a2063726561746532206661696c65640000000000000000006044820152606401611436565b60606109026001600160a01b03831660145b60606000613404836002613e39565b61340f906002613ebe565b67ffffffffffffffff8111156134275761342761388c565b6040519080825280601f01601f191660200182016040528015613451576020820181803683370190505b5090507f30000000000000000000000000000000000000000000000000000000000000008160008151811061348857613488613eee565b60200101906001600160f81b031916908160001a9053507f7800000000000000000000000000000000000000000000000000000000000000816001815181106134d3576134d3613eee565b60200101906001600160f81b031916908160001a90535060006134f7846002613e39565b613502906001613ebe565b90505b6001811115613587577f303132333435363738396162636465660000000000000000000000000000000085600f166010811061354357613543613eee565b1a60f81b82828151811061355957613559613eee565b60200101906001600160f81b031916908160001a90535060049490941c9361358081614613565b9050613505565b508315612f345760405162461bcd60e51b815260206004820181905260248201527f537472696e67733a20686578206c656e67746820696e73756666696369656e746044820152606401611436565b60606130a9848460008585600080866001600160a01b031685876040516135fd919061462a565b60006040518083038185875af1925050503d806000811461363a576040519150601f19603f3d011682016040523d82523d6000602084013e61363f565b606091505b509150915061333b87838387606083156136ba5782516000036136b3576001600160a01b0385163b6136b35760405162461bcd60e51b815260206004820152601d60248201527f416464726573733a2063616c6c20746f206e6f6e2d636f6e74726163740000006044820152606401611436565b50816130a9565b6130a983838151156136cf5781518083602001fd5b8060405162461bcd60e51b81526004016114369190613d9a565b82805482825590600052602060002090810192821561373e579160200282015b8281111561373e57825182546001600160a01b0319166001600160a01b03909116178255602090920191600190910190613709565b5061374a929150613768565b5090565b5080546000825590600052602060002090810190610d0a91905b5b8082111561374a5760008155600101613769565b60006020828403121561378f57600080fd5b81356001600160e01b031981168114612f3457600080fd5b6000602082840312156137b957600080fd5b5035919050565b6001600160a01b0381168114610d0a57600080fd5b80356137e0816137c0565b919050565b600080604083850312156137f857600080fd5b8235613803816137c0565b91506020830135613813816137c0565b809150509250929050565b60006020828403121561383057600080fd5b8135612f34816137c0565b6000806040838503121561384e57600080fd5b8235613859816137c0565b946020939093013593505050565b6000806040838503121561387a57600080fd5b823591506020830135613813816137c0565b634e487b7160e01b600052604160045260246000fd5b6040805190810167ffffffffffffffff811182821017156138c5576138c561388c565b60405290565b6040516101a0810167ffffffffffffffff811182821017156138c5576138c561388c565b604051610120810167ffffffffffffffff811182821017156138c5576138c561388c565b60405160c0810167ffffffffffffffff811182821017156138c5576138c561388c565b604051601f8201601f1916810167ffffffffffffffff8111828210171561395f5761395f61388c565b604052919050565b600067ffffffffffffffff8211156139815761398161388c565b50601f01601f191660200190565b600082601f8301126139a057600080fd5b81356139b36139ae82613967565b613936565b8181528460208386010111156139c857600080fd5b816020850160208301376000918101602001919091529392505050565b6000604082840312156139f757600080fd5b6139ff6138a2565b905081358152602082013567ffffffffffffffff811115613a1f57600080fd5b613a2b8482850161398f565b60208301525092915050565b8015158114610d0a57600080fd5b80356137e081613a37565b600060208284031215613a6257600080fd5b813567ffffffffffffffff80821115613a7a57600080fd5b908301906101a08286031215613a8f57600080fd5b613a976138cb565b613aa0836137d5565b8152613aae602084016137d5565b6020820152604083013560408201526060830135606082015260808301356080820152613add60a084016137d5565b60a0820152613aee60c084016137d5565b60c082015260e083013582811115613b0557600080fd5b613b11878286016139e5565b60e083015250610100613b258185016137d5565b908201526101208381013583811115613b3d57600080fd5b613b498882870161398f565b828401525050610140613b5d818501613a45565b908201526101608381013583811115613b7557600080fd5b613b818882870161398f565b8284015250506101809150613b978284016137d5565b91810191909152949350505050565b8035600381106137e057600080fd5b60048110610d0a57600080fd5b80356137e081613bb5565b600060208284031215613bdf57600080fd5b6040516020810181811067ffffffffffffffff82111715613c0257613c0261388c565b6040529135825250919050565b600060408284031215613c2157600080fd5b613c296138a2565b90508135613c36816137c0565b808252506020820135602082015292915050565b60006101408284031215613c5d57600080fd5b613c656138ef565b9050613c70826137d5565b815260208201356020820152604082013560408201526060820135606082015260808201356080820152613ca660a08301613ba6565b60a0820152613cb760c08301613bc2565b60c0820152613cc98360e08401613bcd565b60e0820152610100613cdd84828501613c0f565b9082015292915050565b60008060006101808486031215613cfd57600080fd5b8335613d08816137c0565b9250613d178560208601613c4a565b915061016084013567ffffffffffffffff811115613d3457600080fd5b613d40868287016139e5565b9150509250925092565b60005b83811015613d65578181015183820152602001613d4d565b50506000910152565b60008151808452613d86816020860160208601613d4a565b601f01601f19169290920160200192915050565b602081526000612f346020830184613d6e565b6000806000806101a08587031215613dc457600080fd5b8435613dcf816137c0565b93506020850135613ddf816137c0565b9250613dee8660408701613c4a565b915061018085013567ffffffffffffffff811115613e0b57600080fd5b613e17878288016139e5565b91505092959194509250565b634e487b7160e01b600052601160045260246000fd5b808202811582820484141761090257610902613e23565b634e487b7160e01b600052602160045260246000fd5b600060208284031215613e7857600080fd5b8151612f3481613bb5565b600060208284031215613e9557600080fd5b5051919050565b600082613eb957634e487b7160e01b600052601260045260246000fd5b500490565b8082018082111561090257610902613e23565b600060208284031215613ee357600080fd5b8151612f34816137c0565b634e487b7160e01b600052603260045260246000fd5b600060018201613f1657613f16613e23565b5060010190565b8181038181111561090257610902613e23565b634e487b7160e01b600052603160045260246000fd5b600060208284031215613f5857600080fd5b8151612f3481613a37565b60006020808385031215613f7657600080fd5b825167ffffffffffffffff80821115613f8e57600080fd5b9084019060c08287031215613fa257600080fd5b613faa613913565b8251815283830151613fbb816137c0565b818501526040830151613fcd816137c0565b6040820152606083015182811115613fe457600080fd5b830160408189031215613ff657600080fd5b613ffe6138a2565b81518152858201518481111561401357600080fd5b82019350601f8401891361402657600080fd5b835191506140366139ae83613967565b828152898784870101111561404a57600080fd5b61405983888301898801613d4a565b95810195909552506060810193909352506080818101519083015260a090810151908201529392505050565b600181811c9082168061409957607f821691505b6020821081036140b957634e487b7160e01b600052602260045260246000fd5b50919050565b601f821115610f7557600081815260208120601f850160051c810160208610156140e65750805b601f850160051c820191505b81811015614105578281556001016140f2565b505050505050565b815167ffffffffffffffff8111156141275761412761388c565b61413b816141358454614085565b846140bf565b602080601f83116001811461417057600084156141585750858301515b600019600386901b1c1916600185901b178555614105565b600085815260208120601f198616915b8281101561419f57888601518255948401946001909101908401614180565b50858210156141bd5787850151600019600388901b60f8161c191681555b5050505050600190811b01905550565b600060208083850312156141e057600080fd5b825167ffffffffffffffff808211156141f857600080fd5b818501915085601f83011261420c57600080fd5b81518181111561421e5761421e61388c565b8060051b915061422f848301613936565b818152918301840191848101908884111561424957600080fd5b938501935b838510156142735784519250614263836137c0565b828252938501939085019061424e565b98975050505050505050565b6000815461428c81614085565b8085526020600183811680156142a957600181146142c3576142f1565b60ff1985168884015283151560051b8801830195506142f1565b866000528260002060005b858110156142e95781548a82018601529083019084016142ce565b890184019650505b505050505092915050565b8051825260006020820151604060208501526130a96040850182613d6e565b600081518084526020808501945080840160005b838110156143545781516001600160a01b03168752958201959082019060010161432f565b509495945050505050565b85815260a06020820152600061437860a083018761427f565b828103604084015261438a81876142fc565b90506001600160a01b03851660608401528281036080840152614273818561431b565b8381526060602082015260006143c6606083018561427f565b82810360408401526143d881856142fc565b9695505050505050565b600481106143f2576143f2613e50565b9052565b6000610140820190506001600160a01b0383511682526020830151602083015260408301516040830152606083015160608301526080830151608083015260a08301516003811061444957614449613e50565b8060a08401525060c083015161446260c08401826143e2565b5060e083015161447560e0840182519052565b506101008381015180516001600160a01b0316848301526020810151610120850152505092915050565b87815260006001600160a01b03808916602084015260e060408401526144c860e0840189613d6e565b818816606085015286608085015283810360a08501526144e881876142fc565b91505082810360c08401526144fd818561431b565b9a9950505050505050505050565b85815260006001600160a01b038087166020840152808616604084015280851660608401525060a0608083015261333b60a08301846142fc565b6040815260006145586040830185613d6e565b90506001600160a01b03831660208301529392505050565b6040815260006145836040830185613d6e565b90508260208301529392505050565b7f416363657373436f6e74726f6c3a206163636f756e74200000000000000000008152600083516145ca816017850160208801613d4a565b7f206973206d697373696e6720726f6c65200000000000000000000000000000006017918401918201528351614607816028840160208801613d4a565b01602801949350505050565b60008161462257614622613e23565b506000190190565b6000825161463c818460208701613d4a565b919091019291505056fe67617264656e73466163746f72792e67657447617264656e7346656552656365697665722829a2646970667358221220b550e285d8f0d98cb712cb3f067c3641d79a53dcc23c2e3c1a254d13ff25af1b64736f6c63430008130033a2646970667358221220a3812930ad5d06952efdb825b7c367b308d1c68886c09848f383416008f7014a64736f6c63430008130033","linkReferences":{}},"methodIdentifiers":{"createRegistry((address,address,uint256,uint256,uint256,address,address,(uint256,string),address,string,bool,string,address))":"8a16135f","gardensFeeReceiver()":"b8bed901","getCommunityValidity(address)":"f5016b5e","getGardensFeeReceiver()":"987435be","getProtocolFee(address)":"0a992e0c","nonce()":"affed0e0","owner()":"8da5cb5b","renounceOwnership()":"715018a6","setCommunityValidity(address,bool)":"5a2c8ace","setProtocolFee(address,uint256)":"b5b3ca2c","setReceiverAddress(address)":"8279c7db","transferOwnership(address)":"f2fde38b"},"id":116}