{"abi":[{"type":"function","name":"createRegistry","inputs":[{"name":"params","type":"tuple","internalType":"struct RegistryCommunity.InitializeParams","components":[{"name":"_allo","type":"address","internalType":"address"},{"name":"_gardenToken","type":"address","internalType":"contract IERC20"},{"name":"_registerStakeAmount","type":"uint256","internalType":"uint256"},{"name":"_communityFee","type":"uint256","internalType":"uint256"},{"name":"_nonce","type":"uint256","internalType":"uint256"},{"name":"_registryFactory","type":"address","internalType":"address"},{"name":"_feeReceiver","type":"address","internalType":"address"},{"name":"_metadata","type":"tuple","internalType":"struct Metadata","components":[{"name":"protocol","type":"uint256","internalType":"uint256"},{"name":"pointer","type":"string","internalType":"string"}]},{"name":"_councilSafe","type":"address","internalType":"address payable"},{"name":"_communityName","type":"string","internalType":"string"},{"name":"_isKickEnabled","type":"bool","internalType":"bool"},{"name":"covenantIpfsHash","type":"string","internalType":"string"},{"name":"_strategyTemplate","type":"address","internalType":"address"}]}],"outputs":[{"name":"_createdRegistryAddress","type":"address","internalType":"address"}],"stateMutability":"nonpayable"},{"type":"function","name":"gardensFeeReceiver","inputs":[],"outputs":[{"name":"","type":"address","internalType":"address"}],"stateMutability":"view"},{"type":"function","name":"getCommunityValidity","inputs":[{"name":"_community","type":"address","internalType":"address"}],"outputs":[{"name":"","type":"bool","internalType":"bool"}],"stateMutability":"view"},{"type":"function","name":"getGardensFeeReceiver","inputs":[],"outputs":[{"name":"","type":"address","internalType":"address"}],"stateMutability":"view"},{"type":"function","name":"getProtocolFee","inputs":[{"name":"_community","type":"address","internalType":"address"}],"outputs":[{"name":"","type":"uint256","internalType":"uint256"}],"stateMutability":"view"},{"type":"function","name":"nonce","inputs":[],"outputs":[{"name":"","type":"uint256","internalType":"uint256"}],"stateMutability":"view"},{"type":"function","name":"owner","inputs":[],"outputs":[{"name":"","type":"address","internalType":"address"}],"stateMutability":"view"},{"type":"function","name":"renounceOwnership","inputs":[],"outputs":[],"stateMutability":"nonpayable"},{"type":"function","name":"setCommunityValidity","inputs":[{"name":"_community","type":"address","internalType":"address"},{"name":"_isValid","type":"bool","internalType":"bool"}],"outputs":[],"stateMutability":"nonpayable"},{"type":"function","name":"setProtocolFee","inputs":[{"name":"_community","type":"address","internalType":"address"},{"name":"_newProtocolFee","type":"uint256","internalType":"uint256"}],"outputs":[],"stateMutability":"nonpayable"},{"type":"function","name":"setReceiverAddress","inputs":[{"name":"_newFeeReceiver","type":"address","internalType":"address"}],"outputs":[],"stateMutability":"nonpayable"},{"type":"function","name":"transferOwnership","inputs":[{"name":"newOwner","type":"address","internalType":"address"}],"outputs":[],"stateMutability":"nonpayable"},{"type":"event","name":"CommunityCreated","inputs":[{"name":"_registryCommunity","type":"address","indexed":false,"internalType":"address"}],"anonymous":false},{"type":"event","name":"CommunityValiditySet","inputs":[{"name":"_community","type":"address","indexed":false,"internalType":"address"},{"name":"_isValid","type":"bool","indexed":false,"internalType":"bool"}],"anonymous":false},{"type":"event","name":"FeeReceiverSet","inputs":[{"name":"_newFeeReceiver","type":"address","indexed":false,"internalType":"address"}],"anonymous":false},{"type":"event","name":"OwnershipTransferred","inputs":[{"name":"previousOwner","type":"address","indexed":true,"internalType":"address"},{"name":"newOwner","type":"address","indexed":true,"internalType":"address"}],"anonymous":false},{"type":"event","name":"ProtocolFeeSet","inputs":[{"name":"_community","type":"address","indexed":false,"internalType":"address"},{"name":"_newProtocolFee","type":"uint256","indexed":false,"internalType":"uint256"}],"anonymous":false},{"type":"error","name":"AddressCannotBeZero","inputs":[]},{"type":"error","name":"CommunityInvalid","inputs":[{"name":"_community","type":"address","internalType":"address"}]}],"bytecode":{"object":"0x6080604052600060015534801561001557600080fd5b5061001f33610024565b610074565b600080546001600160a01b038381166001600160a01b0319831681178455604051919092169283917f8be0079c531659141344cd1fd0a4f28419497f9722a3daafe3b4186f6b6457e09190a35050565b61521a806100836000396000f3fe608060405234801561001057600080fd5b50600436106100d45760003560e01c8063987435be11610081578063b8bed9011161005b578063b8bed90114610198578063f2fde38b146101ab578063f5016b5e146101be57600080fd5b8063987435be1461016b578063affed0e01461017c578063b5b3ca2c1461018557600080fd5b80638279c7db116100b25780638279c7db1461011c5780638a16135f1461012f5780638da5cb5b1461015a57600080fd5b80630a992e0c146100d95780635a2c8ace146100ff578063715018a614610114575b600080fd5b6100ec6100e73660046106a3565b6101fa565b6040519081526020015b60405180910390f35b61011261010d3660046106d7565b61027b565b005b6101126102e7565b61011261012a3660046106a3565b6102fb565b61014261013d366004610848565b61036d565b6040516001600160a01b0390911681526020016100f6565b6000546001600160a01b0316610142565b6003546001600160a01b0316610142565b6100ec60015481565b61011261019336600461099e565b61048e565b600354610142906001600160a01b031681565b6101126101b93660046106a3565b6104ea565b6101ea6101cc3660046106a3565b6001600160a01b031660009081526002602052604090205460ff1690565b60405190151581526020016100f6565b6001600160a01b03811660009081526002602052604081205460ff1661025c576040517ff5a6943d0000000000000000000000000000000000000000000000000000000081526001600160a01b03831660048201526024015b60405180910390fd5b506001600160a01b031660009081526002602052604090206001015490565b61028361057a565b6001600160a01b038216600081815260026020908152604091829020805460ff19168515159081179091558251938452908301527fecdcd3502799a6c41864ea2682236184e876f63e10f8d56c7768a3d501e89f6291015b60405180910390a15050565b6102ef61057a565b6102f960006105d4565b565b61030361057a565b61030c81610631565b6003805473ffffffffffffffffffffffffffffffffffffffff19166001600160a01b0383169081179091556040519081527fbdf37c276f641820b141429d245add2552b4118c0866e5a78638e3de5ef18d9d9060200160405180910390a150565b60008060405161037c90610671565b604051809103906000f080158015610398573d6000803e3d6000fd5b506001805491925060006103ab836109ca565b9091555060808401523060a08401526040517f96f0adec0000000000000000000000000000000000000000000000000000000081526001600160a01b038216906396f0adec906103ff908690600401610a5e565b600060405180830381600087803b15801561041957600080fd5b505af115801561042d573d6000803e3d6000fd5b505050506001600160a01b038116600081815260026020908152604091829020805460ff1916600117905590519182527fb4108a188495a1a681cdc0750af164011025a1773b41e93ff3e628adc037dc29910160405180910390a192915050565b61049661057a565b6001600160a01b038216600081815260026020908152604091829020600101849055815192835282018390527fa1ee82e4f177a8017f33ddddac05b7ceab1de9d46f7195e15e8aa2e8b88f3b1c91016102db565b6104f261057a565b6001600160a01b03811661056e5760405162461bcd60e51b815260206004820152602660248201527f4f776e61626c653a206e6577206f776e657220697320746865207a65726f206160448201527f64647265737300000000000000000000000000000000000000000000000000006064820152608401610253565b610577816105d4565b50565b6000546001600160a01b031633146102f95760405162461bcd60e51b815260206004820181905260248201527f4f776e61626c653a2063616c6c6572206973206e6f7420746865206f776e65726044820152606401610253565b600080546001600160a01b0383811673ffffffffffffffffffffffffffffffffffffffff19831681178455604051919092169283917f8be0079c531659141344cd1fd0a4f28419497f9722a3daafe3b4186f6b6457e09190a35050565b6001600160a01b038116610577576040517fe622e04000000000000000000000000000000000000000000000000000000000815260040160405180910390fd5b61464780610b9e83390190565b6001600160a01b038116811461057757600080fd5b803561069e8161067e565b919050565b6000602082840312156106b557600080fd5b81356106c08161067e565b9392505050565b8035801515811461069e57600080fd5b600080604083850312156106ea57600080fd5b82356106f58161067e565b9150610703602084016106c7565b90509250929050565b634e487b7160e01b600052604160045260246000fd5b6040516101a0810167ffffffffffffffff811182821017156107465761074661070c565b60405290565b600082601f83011261075d57600080fd5b813567ffffffffffffffff808211156107785761077861070c565b604051601f8301601f19908116603f011681019082821181831017156107a0576107a061070c565b816040528381528660208588010111156107b957600080fd5b836020870160208301376000602085830101528094505050505092915050565b6000604082840312156107eb57600080fd5b6040516040810167ffffffffffffffff828210818311171561080f5761080f61070c565b8160405282935084358352602085013591508082111561082e57600080fd5b5061083b8582860161074c565b6020830152505092915050565b60006020828403121561085a57600080fd5b813567ffffffffffffffff8082111561087257600080fd5b908301906101a0828603121561088757600080fd5b61088f610722565b61089883610693565b81526108a660208401610693565b60208201526040830135604082015260608301356060820152608083013560808201526108d560a08401610693565b60a08201526108e660c08401610693565b60c082015260e0830135828111156108fd57600080fd5b610909878286016107d9565b60e08301525061010061091d818501610693565b90820152610120838101358381111561093557600080fd5b6109418882870161074c565b8284015250506101406109558185016106c7565b90820152610160838101358381111561096d57600080fd5b6109798882870161074c565b828401525050610180915061098f828401610693565b91810191909152949350505050565b600080604083850312156109b157600080fd5b82356109bc8161067e565b946020939093013593505050565b6000600182016109ea57634e487b7160e01b600052601160045260246000fd5b5060010190565b6000815180845260005b81811015610a17576020818501810151868301820152016109fb565b506000602082860101526020601f19601f83011685010191505092915050565b805182526000602082015160406020850152610a5660408501826109f1565b949350505050565b60208152610a786020820183516001600160a01b03169052565b60006020830151610a9460408401826001600160a01b03169052565b506040830151606083015260608301516080830152608083015160a083015260a0830151610acd60c08401826001600160a01b03169052565b5060c08301516001600160a01b03811660e08401525060e08301516101a06101008181860152610b016101c0860184610a37565b90860151909250610120610b1f868201836001600160a01b03169052565b80870151915050601f19610140818786030181880152610b3f85846109f1565b945080880151925050610160610b588188018415159052565b80880151925050610180818786030181880152610b7585846109f1565b94508088015192505050610b93828601826001600160a01b03169052565b509094935050505056fe60806040523480156200001157600080fd5b506001600090815562000046907fbc6bbe35ebc64943402c04d2ae016d7bd2bba28e1a11cf66be743c9bd74c720b906200004c565b62000099565b6000828152600160208190526040808320909101805490849055905190918391839186917fbd79b86ffe0ab8e8776151514217cd7cacd52c909f66475c3af44e129f0b00ff9190a4505050565b61459e80620000a96000396000f3fe608060405234801561001057600080fd5b50600436106103625760003560e01c80636c53db9a116101c8578063b3f0067411610104578063d547741f116100a2578063db1e0f3d1161007c578063db1e0f3d1461084e578063db61d65c14610861578063ebd7dc5214610874578063f86c5f891461088757600080fd5b8063d547741f1461081f578063d6d8428d14610832578063d7050f071461084557600080fd5b8063b99b4370116100de578063b99b4370146107d7578063bc063e1a146107df578063c6d572ae146107e7578063cac53214146107ef57600080fd5b8063b3f00674146107a7578063b5058c50146107ba578063b64e39af146107c257600080fd5b80638961be6b11610171578063a0b21cdf1161014b578063a0b21cdf14610706578063a0cf0aea1461072d578063a217fddf14610748578063a230c5241461075057600080fd5b80638961be6b146106b157806391d14854146106ba57806396f0adec146106f357600080fd5b80637b103999116101a25780637b1039991461062857806382d6a1e71461063b57806388cfe6841461064e57600080fd5b80636c53db9a146105d35780637817ee4f146105e657806378a0b8a91461061f57600080fd5b80632f2ff15d116102a2578063477a5cc0116102405780635ecf71c51161021a5780635ecf71c51461056f57806365e3864c146105825780636871eb4d146105ad57806368decabb146105c057600080fd5b8063477a5cc01461051b578063559de05d146105495780635c94e4d21461055c57600080fd5b80633517aa7d1161027c5780633517aa7d146104ca57806336568abe146104d2578063397e2543146104e55780633a871fe1146104f857600080fd5b80632f2ff15d1461049b57806331f61bca146104ae57806333960459146104c157600080fd5b80631f787d281161030f578063248a9ca3116102e9578063248a9ca31461041857806328c309e91461043c5780632b38c69c146104445780632c611c4a1461046f57600080fd5b80631f787d28146103e5578063223e5479146103f257806322bcf9991461040557600080fd5b80630d12bbdb116103405780630d12bbdb146103aa5780630d4a8b49146103bf578063175188e8146103d257600080fd5b806301ffc9a7146103675780630331383c1461038f57806308386eba146103a1575b600080fd5b61037a6103753660046136e6565b61089a565b60405190151581526020015b60405180910390f35b6003545b604051908152602001610386565b61039360055481565b6103bd6103b8366004613710565b6108ea565b005b6103bd6103cd36600461374e565b610974565b6103bd6103e0366004613787565b610cdb565b60025461037a9060ff1681565b6103bd610400366004613787565b610cef565b6103bd61041336600461374e565b610d00565b610393610426366004613710565b6000908152600160208190526040909120015490565b610393610e0f565b6104576104523660046137a4565b610ef9565b6040516001600160a01b039091168152602001610386565b61039361047d366004613787565b6001600160a01b031660009081526013602052604090206001015490565b6103bd6104a93660046137d0565b610f31565b6103bd6104bc366004613710565b610f5c565b61039360095481565b6103bd610f99565b6103bd6104e03660046137d0565b61139e565b6103bd6104f3366004613787565b61142f565b61037a610506366004613787565b60116020526000908152604090205460ff1681565b61037a61052936600461374e565b601560209081526000928352604080842090915290825290205460ff1681565b6103bd610557366004613710565b61149c565b600854610457906001600160a01b031681565b6103bd61057d366004613710565b611776565b61039361059036600461374e565b601260209081526000928352604080842090915290825290205481565b6103bd6105bb36600461374e565b611b30565b600a54610457906001600160a01b031681565b600d54610457906001600160a01b031681565b6103936105f436600461374e565b6001600160a01b03918216600090815260126020908152604080832093909416825291909152205490565b61039360035481565b600b54610457906001600160a01b031681565b6103bd610649366004613710565b611d3b565b61068a61065c366004613787565b6013602052600090815260409020805460018201546002909201546001600160a01b03909116919060ff1683565b604080516001600160a01b0390941684526020840192909252151590820152606001610386565b61039360045481565b61037a6106c83660046137d0565b60009182526001602090815260408084206001600160a01b0393909316845291905290205460ff1690565b6103bd610701366004613995565b611e05565b6103937fbc6bbe35ebc64943402c04d2ae016d7bd2bba28e1a11cf66be743c9bd74c720b81565b61045773eeeeeeeeeeeeeeeeeeeeeeeeeeeeeeeeeeeeeeee81565b610393600081565b61037a61075e366004613787565b6001600160a01b039081166000908152601360209081526040918290208251606081018452815490941684526001810154918401919091526002015460ff161515910181905290565b600654610457906001600160a01b031681565b6103bd6122f1565b6107ca61233d565b6040516103869190613b3b565b6103bd6123cb565b61039361252e565b6107ca61253e565b6108026107fd366004613c69565b61254b565b604080519283526001600160a01b03909116602083015201610386565b6103bd61082d3660046137d0565b612595565b600e54610457906001600160a01b031681565b61039361271081565b61080261085c366004613ccc565b6125bb565b600c54610457906001600160a01b031681565b61037a610882366004613787565b61273a565b600754610457906001600160a01b031681565b60006001600160e01b031982167f7965db0b0000000000000000000000000000000000000000000000000000000014806108e457506301ffc9a760e01b6001600160e01b03198316145b92915050565b6108f261277a565b6108ff612710600a613d58565b811115610938576040517ffe925f7d00000000000000000000000000000000000000000000000000000000815260040160405180910390fd5b60048190556040518181527f611668bfcf654a99c33cdb66c29ec37a5aae5c1287d2d9715a24e18cb4d806d6906020015b60405180910390a150565b61097d826127e2565b61098681612845565b61098f81612897565b6001600160a01b0380831660009081526015602090815260408083209385168352929052205460ff16156109ef576040517fd5b9bc9600000000000000000000000000000000000000000000000000000000815260040160405180910390fd5b6001600160a01b0380831660009081526013602090815260409182902082516060810184528154909416845260018101549184018290526002015460ff161515918301919091526003805490846001600160a01b031663c32921716040518163ffffffff1660e01b81526004016020604051808303816000875af1158015610a7b573d6000803e3d6000fd5b505050506040513d601f19601f82011682018060405250810190610a9f9190613d85565b6003811115610ab057610ab0613d6f565b03610b2f5760405163782aadff60e01b81526001600160a01b0386811660048301526000602483015285169063782aadff906044016020604051808303816000875af1158015610b04573d6000803e3d6000fd5b505050506040513d601f19601f82011682018060405250810190610b289190613da2565b9050610c21565b6000846001600160a01b031663c32921716040518163ffffffff1660e01b81526004016020604051808303816000875af1158015610b71573d6000803e3d6000fd5b505050506040513d601f19601f82011682018060405250810190610b959190613d85565b6003811115610ba657610ba6613d6f565b14610c215760405163782aadff60e01b81526001600160a01b0386811660048301526024820184905285169063782aadff906044016020604051808303816000875af1158015610bfa573d6000803e3d6000fd5b505050506040513d601f19601f82011682018060405250810190610c1e9190613da2565b90505b6001600160a01b038581166000818152601260209081526040808320948916808452948252808320869055838352601582528083208584528252808320805460ff19166001908117909155848452601483528184208054918201815584529282902090920180546001600160a01b0319168517905581519283528201929092529081018290527ff56fa57e85e169a12200d12d9921ec069b52e688f6d309d9dab7bceff54614ec9060600160405180910390a15050505050565b610ce361277a565b610cec816128d7565b50565b610cf761277a565b610cec81612931565b610d09826127e2565b610d1281612897565b610d1c33826129d8565b6001600160a01b0380831660009081526015602090815260408083209385168352929052205460ff16610d7b576040517fc12369dc00000000000000000000000000000000000000000000000000000000815260040160405180910390fd5b6001600160a01b038083166000818152601560209081526040808320948616808452948252808320805460ff191690559282526012815282822093825292909252812055610dc98282612a23565b604080516001600160a01b038085168252831660208201527ede109bef4619f7e2cf00c8e5a50ca55f8deb44f87087eed414a91dbf8d1d1b910160405180910390a15050565b6007546000906001600160a01b031681610e2c6127106064613d58565b600454600354610e3c9190613d58565b610e469190613dbb565b90506000610e576127106064613d58565b6040516302a64b8360e21b81523060048201526001600160a01b03851690630a992e0c90602401602060405180830381865afa158015610e9b573d6000803e3d6000fd5b505050506040513d601f19601f82011682018060405250810190610ebf9190613da2565b600354610ecc9190613d58565b610ed69190613dbb565b90508082600354610ee79190613ddd565b610ef19190613ddd565b935050505090565b60146020528160005260406000208181548110610f1557600080fd5b6000918252602090912001546001600160a01b03169150829050565b60008281526001602081905260409091200154610f4d81612b45565b610f578383612b4f565b505050565b610f6461277a565b60038190556040518181527f5bcc2c453001fb0e2ba6266d56ecb411e7c6e15c8f9c3d301f93dd36ad25726f90602001610969565b610fa1612bd6565b33600081815260136020526040812060075490916001600160a01b0390911690610fce6127106064613d58565b600454600354610fde9190613d58565b610fe89190613dbb565b90506000610ff96127106064613d58565b6040516302a64b8360e21b81523060048201526001600160a01b03851690630a992e0c90602401602060405180830381865afa15801561103d573d6000803e3d6000fd5b505050506040513d601f19601f820116820180604052508101906110619190613da2565b60035461106e9190613d58565b6110789190613dbb565b6001600160a01b038087166000908152601360209081526040918290208251606081018452815490941684526001810154918401919091526002015460ff161515910181905290915061138d5760028401805460ff191660019081179091556003549085015560408051808201909152600b81527f67617264656e546f6b656e0000000000000000000000000000000000000000006020820152600c5461112891906001600160a01b0316612c2f565b61115a8530838560035461113c9190613ddd565b6111469190613ddd565b600c546001600160a01b0316929190612c8d565b6111996040518060400160405280601281526020017f636f6d6d756e697479466565416d6f756e74000000000000000000000000000081525083612d11565b81156112065760408051808201909152600b81527f666565526563656976657200000000000000000000000000000000000000000060208201526006546111e991906001600160a01b0316612c2f565b600654600c54611206916001600160a01b03918216911684612d6f565b6112456040518060400160405280601081526020017f67617264656e73466565416d6f756e740000000000000000000000000000000081525082612d11565b8015611346576112ce60405180606001604052806026815260200161454360269139846001600160a01b031663987435be6040518163ffffffff1660e01b8152600401602060405180830381865afa1580156112a5573d6000803e3d6000fd5b505050506040513d601f19601f820116820180604052508101906112c99190613df0565b612c2f565b611346836001600160a01b031663987435be6040518163ffffffff1660e01b8152600401602060405180830381865afa15801561130f573d6000803e3d6000fd5b505050506040513d601f19601f820116820180604052508101906113339190613df0565b600c546001600160a01b03169083612d6f565b600354604080516001600160a01b038816815260208101929092527f67e0244e28040fec15240cd4b6c04c776a2a0278caef23b59e8ada1df31f7689910160405180910390a15b505050505061139c6001600055565b565b6001600160a01b03811633146114215760405162461bcd60e51b815260206004820152602f60248201527f416363657373436f6e74726f6c3a2063616e206f6e6c792072656e6f756e636560448201527f20726f6c657320666f722073656c66000000000000000000000000000000000060648201526084015b60405180910390fd5b61142b8282612d9f565b5050565b61143761277a565b61144081612897565b600a80546001600160a01b0319166001600160a01b03838116918217909255600d546040805191909316815260208101919091527f83eac9fdaff0ac1017624b7eddeb9782e3d707cd894073cb7e8301a41c6e5cf89101610969565b6114a4612bd6565b6114ac612e22565b3360008181526014602090815260408083208054825181850281018501909352808352919290919083018282801561150d57602002820191906000526020600020905b81546001600160a01b031681526001909101906020018083116114ef575b50505050509050600080600090505b82518110156116dd5782818151811061153757611537613e0d565b602090810291909101015160405163782aadff60e01b81526001600160a01b038681166004830152602482018890529091169063782aadff906044016020604051808303816000875af1158015611592573d6000803e3d6000fd5b505050506040513d601f19601f820116820180604052508101906115b69190613da2565b915081156116cb576001600160a01b038416600090815260126020526040812084518492908690859081106115ed576115ed613e0d565b60200260200101516001600160a01b03166001600160a01b0316815260200190815260200160002060008282546116249190613ddd565b925050819055506116cb6040518060400160405280600e81526020017f537472617465677920706f77657200000000000000000000000000000000000081525060126000876001600160a01b03166001600160a01b03168152602001908152602001600020600086858151811061169d5761169d613e0d565b60200260200101516001600160a01b03166001600160a01b0316815260200190815260200160002054612d11565b806116d581613e23565b91505061151c565b50600c546116f6906001600160a01b0316843087612c8d565b6001600160a01b03831660009081526013602052604081206001018054869290611721908490613ddd565b9091555050604080516001600160a01b0385168152602081018690527f576605f9bfe8911e7508bed3763c7c5c8eb3b86e8b360b90a4bc6abe1104cb7f91015b60405180910390a1505050610cec6001600055565b61177e612bd6565b611786612e22565b336000818152601460209081526040808320600354601390935290832060010154909291906117b6908690613e3c565b10156117ee576040517f9c47d02e00000000000000000000000000000000000000000000000000000000815260040160405180910390fd5b600c54611805906001600160a01b03168486612d6f565b60005b8254811015611ac057600083828154811061182557611825613e0d565b6000918252602090912001546001600160a01b0316905061184d8163f1801e6160e01b612e81565b156119f4576040517f2ed04b2b0000000000000000000000000000000000000000000000000000000081526001600160a01b03868116600483015260248201889052821690632ed04b2b906044016020604051808303816000875af11580156118ba573d6000803e3d6000fd5b505050506040513d601f19601f820116820180604052508101906118de9190613da2565b9250600060126000876001600160a01b03166001600160a01b03168152602001908152602001600020600086858154811061191b5761191b613e0d565b60009182526020808320909101546001600160a01b03168352820192909252604001902054905080841115611986576040517f8a11f3180000000000000000000000000000000000000000000000000000000081526004810185905260248101829052604401611418565b6001600160a01b038616600090815260126020526040812086548692908890879081106119b5576119b5613e0d565b60009182526020808320909101546001600160a01b03168352820192909252604001812080549091906119e9908490613e3c565b909155505050611aad565b83548490611a0490600190613e3c565b81548110611a1457611a14613e0d565b9060005260206000200160009054906101000a90046001600160a01b0316848381548110611a4457611a44613e0d565b9060005260206000200160006101000a8154816001600160a01b0302191690836001600160a01b0316021790555083805480611a8257611a82613e4f565b600082815260209020810160001990810180546001600160a01b0319169055019055611aad816128d7565b5080611ab881613e23565b915050611808565b506001600160a01b03831660009081526013602052604081206001018054869290611aec908490613e3c565b9091555050604080516001600160a01b0385168152602081018690527f6ee2c70b2d6b89ae808a2313aab43e925c06624271419cd665d85cfa1ae04ff89101611761565b611b38612bd6565b611b4061277a565b60025460ff16611b7c576040517fcb63dc7200000000000000000000000000000000000000000000000000000000815260040160405180910390fd5b6001600160a01b038083166000908152601360209081526040918290208251606081018452815490941684526001810154918401919091526002015460ff1615159101819052611bdf57604051636a5cfb6d60e01b815260040160405180910390fd5b6001600160a01b038083166000908152601360209081526040918290208251606081018452815490941684526001810154918401919091526002015460ff16151590820152611c2d83612ea4565b6001600160a01b03838116600090815260136020908152604080832080546001600160a01b031916815560018101939093556002909201805460ff19169055600c5490840151915163a9059cbb60e01b8152858416600482015260248101929092529091169063a9059cbb906044016020604051808303816000875af1158015611cbb573d6000803e3d6000fd5b505050506040513d601f19601f82011682018060405250810190611cdf9190613e65565b50602080820151604080516001600160a01b0380881682528616938101939093528201527fb5946f249f8744efe9d14d49a483b54a589b1362944ff6694de93456cceb96a39060600160405180910390a15061142b6001600055565b611d4361277a565b600e546040517f068bcd8d000000000000000000000000000000000000000000000000000000008152600481018390526000916001600160a01b03169063068bcd8d90602401600060405180830381865afa158015611da6573d6000803e3d6000fd5b505050506040513d6000823e601f3d908101601f19168201604052611dce9190810190613e82565b602001519050611ddd81612897565b611df76001600160a01b03821663f1801e6160e01b612e81565b1561142b5761142b81612931565b611e128160200151612897565b611e20816101000151612897565b8051611e2b90612897565b611e388160a00151612897565b611e46816101800151612897565b606081015115611e5d57611e5d8160c00151612897565b8051600e80546001600160a01b039283166001600160a01b0319918216179091556020830151600c80549190931691161790556040810151600003611ece576040517fc70d18aa00000000000000000000000000000000000000000000000000000000815260040160405180910390fd5b604081015160035560608101516004556101408101516002805460ff1916911515919091179055610120810151600f90611f08908261402c565b50610160810151601090611f1c908261402c565b5060a0810151600780546001600160a01b03199081166001600160a01b039384161790915560c0830151600680548316918416919091179055610100830151600d80548316828516179055610180840151600880549093169316929092179055611fa7907fbc6bbe35ebc64943402c04d2ae016d7bd2bba28e1a11cf66be743c9bd74c720b90612b4f565b600e60009054906101000a90046001600160a01b03166001600160a01b0316635ab1bd536040518163ffffffff1660e01b8152600401602060405180830381865afa158015611ffa573d6000803e3d6000fd5b505050506040513d601f19601f8201168201806040525081019061201e9190613df0565b600b80546001600160a01b0319166001600160a01b03928316179055600d54604080517fa0e67e2b0000000000000000000000000000000000000000000000000000000081529051600093929092169163a0e67e2b9160048082019286929091908290030181865afa158015612098573d6000803e3d6000fd5b505050506040513d6000823e601f3d908101601f191682016040526120c091908101906140ec565b90506000815160026120d29190613ddd565b67ffffffffffffffff8111156120ea576120ea6137f5565b604051908082528060200260200182016040528015612113578160200160208202803683370190505b50905060005b82518110156121785782818151811061213457612134613e0d565b602002602001015182828151811061214e5761214e613e0d565b6001600160a01b03909216602092830291909101909101528061217081613e23565b915050612119565b50600d5481516001600160a01b0390911690829061219890600190613e3c565b815181106121a8576121a8613e0d565b60200260200101906001600160a01b031690816001600160a01b0316815250503081600283516121d89190613e3c565b815181106121e8576121e8613e0d565b6001600160a01b039283166020918202929092010152600b54608085015160e08601516040517f3a92f65f0000000000000000000000000000000000000000000000000000000081529290931692633a92f65f926122509291600f913090889060040161427e565b6020604051808303816000875af115801561226f573d6000803e3d6000fd5b505050506040513d601f19601f820116820180604052508101906122939190613da2565b60055580516122a9906016906020840190613652565b507f2f2ffcb06f8a1d35e2716f6b43ef2c19bfa76467d8f66964ae12c2583ed03205600554600f8560e001516040516122e4939291906142cc565b60405180910390a1505050565b600a546001600160a01b03163314612335576040517febcd0d6e00000000000000000000000000000000000000000000000000000000815260040160405180910390fd5b61139c612fc6565b6010805461234a90613fa4565b80601f016020809104026020016040519081016040528092919081815260200182805461237690613fa4565b80156123c35780601f10612398576101008083540402835291602001916123c3565b820191906000526020600020905b8154815290600101906020018083116123a657829003601f168201915b505050505081565b6123d3612bd6565b336123dd816127e2565b6123e681612ea4565b6001600160a01b0380821660008181526013602090815260408083208151606081018352815496871681526001820180548286015260028301805460ff81161515848701529787526001600160a01b03199098169092559084905560ff1990941690945560149052918220909161245d91906136b7565b600c54602082015160405163a9059cbb60e01b81526001600160a01b038581166004830152602482019290925291169063a9059cbb906044016020604051808303816000875af11580156124b5573d6000803e3d6000fd5b505050506040513d601f19601f820116820180604052508101906124d99190613e65565b50602080820151604080516001600160a01b0386168152928301919091527fa13f4668aacb68c4e9eed8e3f6e1cbec3eca776896ec46b5eabcc3983fc8f5f4910160405180910390a1505061139c6001600055565b61253b612710600a613d58565b81565b600f805461234a90613fa4565b600854600980546000928392839261257a926001600160a01b0316918461257183613e23565b91905055613021565b9050612588818787876125bb565b9250925050935093915050565b600082815260016020819052604090912001546125b181612b45565b610f578383612d9f565b60008073eeeeeeeeeeeeeeeeeeeeeeeeeeeeeeeeeeeeeeee6001600160a01b038616156125e55750845b8691506000601680548060200260200160405190810160405280929190818152602001828054801561264057602002820191906000526020600020905b81546001600160a01b03168152600190910190602001808311612622575b5050600e546005546040519596506001600160a01b039091169463e1007d4a9450909250879150612675908b90602001614315565b6040516020818303038152906040528660008b886040518863ffffffff1660e01b81526004016126ab979695949392919061439b565b6020604051808303816000875af11580156126ca573d6000803e3d6000fd5b505050506040513d601f19601f820116820180604052508101906126ee9190613da2565b93507f778cac0ae0b66477341553a4a89398c61ccf448313d3354ad0ca85a5a825d2838484308a89604051612727959493929190614407565b60405180910390a1505094509492505050565b6001600160a01b03811660009081527fb5ecf5ecfeba8b6e20c37ad4ed6024e3afbcd2e706bee2e266a62cb37e60342c602052604081205460ff166108e4565b3360009081527fb5ecf5ecfeba8b6e20c37ad4ed6024e3afbcd2e706bee2e266a62cb37e60342c602052604090205460ff1661139c576040517ff62651fa00000000000000000000000000000000000000000000000000000000815260040160405180910390fd5b6001600160a01b038082166000908152601360209081526040918290208251606081018452815490941684526001810154918401919091526002015460ff1615159101819052610cec57604051636a5cfb6d60e01b815260040160405180910390fd5b6001600160a01b03811660009081526011602052604090205460ff16610cec576040517f46c26e4b00000000000000000000000000000000000000000000000000000000815260040160405180910390fd5b6001600160a01b038116610cec576040517fe622e04000000000000000000000000000000000000000000000000000000000815260040160405180910390fd5b6128e081612897565b6001600160a01b038116600081815260116020908152604091829020805460ff1916905590519182527f09a1db4b80c32706328728508c941a6b954f31eb5affd32f236c1fd405f8fea49101610969565b6001600160a01b03811660009081526011602052604090205460ff1615612984576040517f968a4d2c00000000000000000000000000000000000000000000000000000000815260040160405180910390fd5b6001600160a01b038116600081815260116020908152604091829020805460ff1916600117905590519182527f3f008fd510eae7a9e7bee13513d7b83bef8003d488b5a3d0b0da4de71d6846f19101610969565b806001600160a01b0316826001600160a01b03161461142b576040517fbbe7961100000000000000000000000000000000000000000000000000000000815260040160405180910390fd5b6001600160a01b0382166000908152601460205260408120905b8154811015612b3f57826001600160a01b0316828281548110612a6257612a62613e0d565b6000918252602090912001546001600160a01b031603612b2d5781548290612a8c90600190613e3c565b81548110612a9c57612a9c613e0d565b9060005260206000200160009054906101000a90046001600160a01b0316828281548110612acc57612acc613e0d565b9060005260206000200160006101000a8154816001600160a01b0302191690836001600160a01b0316021790555081805480612b0a57612b0a613e4f565b600082815260209020810160001990810180546001600160a01b03191690550190555b80612b3781613e23565b915050612a3d565b50505050565b610cec8133613075565b60008281526001602090815260408083206001600160a01b038516845290915290205460ff1661142b5760008281526001602081815260408084206001600160a01b0386168086529252808420805460ff19169093179092559051339285917f2f8788117e7eff1d82e926ec794901d17c78024a50270940304540a733656f0d9190a45050565b600260005403612c285760405162461bcd60e51b815260206004820152601f60248201527f5265656e7472616e637947756172643a207265656e7472616e742063616c6c006044820152606401611418565b6002600055565b61142b8282604051602401612c45929190614441565b60408051601f198184030181529190526020810180516001600160e01b03167f319af333000000000000000000000000000000000000000000000000000000001790526130ea565b6040516001600160a01b0380851660248301528316604482015260648101829052612b3f9085907f23b872dd00000000000000000000000000000000000000000000000000000000906084015b60408051601f198184030181529190526020810180516001600160e01b03166001600160e01b03199093169290921790915261310b565b61142b8282604051602401612d2792919061446c565b60408051601f198184030181529190526020810180516001600160e01b03167f9710a9d0000000000000000000000000000000000000000000000000000000001790526130ea565b6040516001600160a01b038316602482015260448101829052610f5790849063a9059cbb60e01b90606401612cda565b60008281526001602090815260408083206001600160a01b038516845290915290205460ff161561142b5760008281526001602090815260408083206001600160a01b0385168085529252808320805460ff1916905551339285917ff6391f5c32d9c69d2a47ea670b442974b53935d1edc7fd64eb21e047a839171b9190a45050565b33600090815260136020908152604091829020825160608101845281546001600160a01b031681526001820154928101929092526002015460ff161515910181905261139c57604051636a5cfb6d60e01b815260040160405180910390fd5b6000612e8c836131f3565b8015612e9d5750612e9d8383613226565b9392505050565b6001600160a01b038116600090815260146020908152604080832080548251818502810185019093528083529192909190830182828015612f0e57602002820191906000526020600020905b81546001600160a01b03168152600190910190602001808311612ef0575b5050505050905060005b8151811015610f5757818181518110612f3357612f33613e0d565b60209081029190910101516040517f6453d9c40000000000000000000000000000000000000000000000000000000081526001600160a01b03858116600483015290911690636453d9c490602401600060405180830381600087803b158015612f9b57600080fd5b505af1158015612faf573d6000803e3d6000fd5b505050508080612fbe90613e23565b915050612f18565b600a8054600d80546001600160a01b0383166001600160a01b031991821617909155169055604051600081527fad0399dc40331b9a4977aa89da7a164a3fd482c65e6da73b25a94ea74fb688729060200160405180910390a1565b6040516bffffffffffffffffffffffff193360601b16602082015260348101829052600090819060540160405160208183030381529060405280519060200120905061306d84826132af565b949350505050565b60008281526001602090815260408083206001600160a01b038516845290915290205460ff1661142b576130a88161334c565b6130b383602061335e565b6040516020016130c492919061448e565b60408051601f198184030181529082905262461bcd60e51b825261141891600401613b3b565b80516a636f6e736f6c652e6c6f67602083016000808483855afa5050505050565b6000613160826040518060400160405280602081526020017f5361666545524332303a206c6f772d6c6576656c2063616c6c206661696c6564815250856001600160a01b031661353f9092919063ffffffff16565b90508051600014806131815750808060200190518101906131819190613e65565b610f575760405162461bcd60e51b815260206004820152602a60248201527f5361666545524332303a204552433230206f7065726174696f6e20646964206e60448201527f6f742073756363656564000000000000000000000000000000000000000000006064820152608401611418565b6000613206826301ffc9a760e01b613226565b80156108e4575061321f826001600160e01b0319613226565b1592915050565b604080516001600160e01b03198316602480830191909152825180830390910181526044909101909152602080820180516001600160e01b03166301ffc9a760e01b178152825160009392849283928392918391908a617530fa92503d91506000519050828015613298575060208210155b80156132a45750600081115b979650505050505050565b6000763d602d80600a3d3981f3363d3d373d3d3d363d730000008360601b60e81c176000526e5af43d82803e903d91602b57fd5bf38360781b1760205281603760096000f590506001600160a01b0381166108e45760405162461bcd60e51b815260206004820152601760248201527f455243313136373a2063726561746532206661696c65640000000000000000006044820152606401611418565b60606108e46001600160a01b03831660145b6060600061336d836002613d58565b613378906002613ddd565b67ffffffffffffffff811115613390576133906137f5565b6040519080825280601f01601f1916602001820160405280156133ba576020820181803683370190505b5090507f3000000000000000000000000000000000000000000000000000000000000000816000815181106133f1576133f1613e0d565b60200101906001600160f81b031916908160001a9053507f78000000000000000000000000000000000000000000000000000000000000008160018151811061343c5761343c613e0d565b60200101906001600160f81b031916908160001a9053506000613460846002613d58565b61346b906001613ddd565b90505b60018111156134f0577f303132333435363738396162636465660000000000000000000000000000000085600f16601081106134ac576134ac613e0d565b1a60f81b8282815181106134c2576134c2613e0d565b60200101906001600160f81b031916908160001a90535060049490941c936134e98161450f565b905061346e565b508315612e9d5760405162461bcd60e51b815260206004820181905260248201527f537472696e67733a20686578206c656e67746820696e73756666696369656e746044820152606401611418565b606061306d848460008585600080866001600160a01b031685876040516135669190614526565b60006040518083038185875af1925050503d80600081146135a3576040519150601f19603f3d011682016040523d82523d6000602084013e6135a8565b606091505b50915091506132a4878383876060831561362357825160000361361c576001600160a01b0385163b61361c5760405162461bcd60e51b815260206004820152601d60248201527f416464726573733a2063616c6c20746f206e6f6e2d636f6e74726163740000006044820152606401611418565b508161306d565b61306d83838151156136385781518083602001fd5b8060405162461bcd60e51b81526004016114189190613b3b565b8280548282559060005260206000209081019282156136a7579160200282015b828111156136a757825182546001600160a01b0319166001600160a01b03909116178255602090920191600190910190613672565b506136b39291506136d1565b5090565b5080546000825590600052602060002090810190610cec91905b5b808211156136b357600081556001016136d2565b6000602082840312156136f857600080fd5b81356001600160e01b031981168114612e9d57600080fd5b60006020828403121561372257600080fd5b5035919050565b6001600160a01b0381168114610cec57600080fd5b803561374981613729565b919050565b6000806040838503121561376157600080fd5b823561376c81613729565b9150602083013561377c81613729565b809150509250929050565b60006020828403121561379957600080fd5b8135612e9d81613729565b600080604083850312156137b757600080fd5b82356137c281613729565b946020939093013593505050565b600080604083850312156137e357600080fd5b82359150602083013561377c81613729565b634e487b7160e01b600052604160045260246000fd5b6040805190810167ffffffffffffffff8111828210171561382e5761382e6137f5565b60405290565b6040516101a0810167ffffffffffffffff8111828210171561382e5761382e6137f5565b60405160c0810167ffffffffffffffff8111828210171561382e5761382e6137f5565b604051601f8201601f1916810167ffffffffffffffff811182821017156138a4576138a46137f5565b604052919050565b600067ffffffffffffffff8211156138c6576138c66137f5565b50601f01601f191660200190565b600082601f8301126138e557600080fd5b81356138f86138f3826138ac565b61387b565b81815284602083860101111561390d57600080fd5b816020850160208301376000918101602001919091529392505050565b60006040828403121561393c57600080fd5b61394461380b565b905081358152602082013567ffffffffffffffff81111561396457600080fd5b613970848285016138d4565b60208301525092915050565b8015158114610cec57600080fd5b80356137498161397c565b6000602082840312156139a757600080fd5b813567ffffffffffffffff808211156139bf57600080fd5b908301906101a082860312156139d457600080fd5b6139dc613834565b6139e58361373e565b81526139f36020840161373e565b6020820152604083013560408201526060830135606082015260808301356080820152613a2260a0840161373e565b60a0820152613a3360c0840161373e565b60c082015260e083013582811115613a4a57600080fd5b613a568782860161392a565b60e083015250610100613a6a81850161373e565b908201526101208381013583811115613a8257600080fd5b613a8e888287016138d4565b828401525050610140613aa281850161398a565b908201526101608381013583811115613aba57600080fd5b613ac6888287016138d4565b8284015250506101809150613adc82840161373e565b91810191909152949350505050565b60005b83811015613b06578181015183820152602001613aee565b50506000910152565b60008151808452613b27816020860160208601613aeb565b601f01601f19169290920160200192915050565b602081526000612e9d6020830184613b0f565b80356003811061374957600080fd5b60048110610cec57600080fd5b803561374981613b5d565b600060208284031215613b8757600080fd5b6040516020810181811067ffffffffffffffff82111715613baa57613baa6137f5565b6040529135825250919050565b6000610100808385031215613bcb57600080fd5b6040519081019067ffffffffffffffff82118183101715613bee57613bee6137f5565b8160405280925083359150613c0282613729565b81815260208401356020820152604084013560408201526060840135606082015260808401356080820152613c3960a08501613b4e565b60a0820152613c4a60c08501613b6a565b60c0820152613c5c8560e08601613b75565b60e0820152505092915050565b60008060006101408486031215613c7f57600080fd5b8335613c8a81613729565b9250613c998560208601613bb7565b915061012084013567ffffffffffffffff811115613cb657600080fd5b613cc28682870161392a565b9150509250925092565b6000806000806101608587031215613ce357600080fd5b8435613cee81613729565b93506020850135613cfe81613729565b9250613d0d8660408701613bb7565b915061014085013567ffffffffffffffff811115613d2a57600080fd5b613d368782880161392a565b91505092959194509250565b634e487b7160e01b600052601160045260246000fd5b80820281158282048414176108e4576108e4613d42565b634e487b7160e01b600052602160045260246000fd5b600060208284031215613d9757600080fd5b8151612e9d81613b5d565b600060208284031215613db457600080fd5b5051919050565b600082613dd857634e487b7160e01b600052601260045260246000fd5b500490565b808201808211156108e4576108e4613d42565b600060208284031215613e0257600080fd5b8151612e9d81613729565b634e487b7160e01b600052603260045260246000fd5b600060018201613e3557613e35613d42565b5060010190565b818103818111156108e4576108e4613d42565b634e487b7160e01b600052603160045260246000fd5b600060208284031215613e7757600080fd5b8151612e9d8161397c565b60006020808385031215613e9557600080fd5b825167ffffffffffffffff80821115613ead57600080fd5b9084019060c08287031215613ec157600080fd5b613ec9613858565b8251815283830151613eda81613729565b818501526040830151613eec81613729565b6040820152606083015182811115613f0357600080fd5b830160408189031215613f1557600080fd5b613f1d61380b565b815181528582015184811115613f3257600080fd5b82019350601f84018913613f4557600080fd5b83519150613f556138f3836138ac565b8281528987848701011115613f6957600080fd5b613f7883888301898801613aeb565b95810195909552506060810193909352506080818101519083015260a090810151908201529392505050565b600181811c90821680613fb857607f821691505b602082108103613fd857634e487b7160e01b600052602260045260246000fd5b50919050565b601f821115610f5757600081815260208120601f850160051c810160208610156140055750805b601f850160051c820191505b8181101561402457828155600101614011565b505050505050565b815167ffffffffffffffff811115614046576140466137f5565b61405a816140548454613fa4565b84613fde565b602080601f83116001811461408f57600084156140775750858301515b600019600386901b1c1916600185901b178555614024565b600085815260208120601f198616915b828110156140be5788860151825594840194600190910190840161409f565b50858210156140dc5787850151600019600388901b60f8161c191681555b5050505050600190811b01905550565b600060208083850312156140ff57600080fd5b825167ffffffffffffffff8082111561411757600080fd5b818501915085601f83011261412b57600080fd5b81518181111561413d5761413d6137f5565b8060051b915061414e84830161387b565b818152918301840191848101908884111561416857600080fd5b938501935b83851015614192578451925061418283613729565b828252938501939085019061416d565b98975050505050505050565b600081546141ab81613fa4565b8085526020600183811680156141c857600181146141e257614210565b60ff1985168884015283151560051b880183019550614210565b866000528260002060005b858110156142085781548a82018601529083019084016141ed565b890184019650505b505050505092915050565b80518252600060208201516040602085015261306d6040850182613b0f565b600081518084526020808501945080840160005b838110156142735781516001600160a01b03168752958201959082019060010161424e565b509495945050505050565b85815260a06020820152600061429760a083018761419e565b82810360408401526142a9818761421b565b90506001600160a01b03851660608401528281036080840152614192818561423a565b8381526060602082015260006142e5606083018561419e565b82810360408401526142f7818561421b565b9695505050505050565b6004811061431157614311613d6f565b9052565b6000610100820190506001600160a01b0383511682526020830151602083015260408301516040830152606083015160608301526080830151608083015260a08301516003811061436857614368613d6f565b8060a08401525060c083015161438160c0840182614301565b5060e083015161439460e0840182519052565b5092915050565b87815260006001600160a01b03808916602084015260e060408401526143c460e0840189613b0f565b818816606085015286608085015283810360a08501526143e4818761421b565b91505082810360c08401526143f9818561423a565b9a9950505050505050505050565b85815260006001600160a01b038087166020840152808616604084015280851660608401525060a060808301526132a460a083018461421b565b6040815260006144546040830185613b0f565b90506001600160a01b03831660208301529392505050565b60408152600061447f6040830185613b0f565b90508260208301529392505050565b7f416363657373436f6e74726f6c3a206163636f756e74200000000000000000008152600083516144c6816017850160208801613aeb565b7f206973206d697373696e6720726f6c65200000000000000000000000000000006017918401918201528351614503816028840160208801613aeb565b01602801949350505050565b60008161451e5761451e613d42565b506000190190565b60008251614538818460208701613aeb565b919091019291505056fe67617264656e73466163746f72792e67657447617264656e7346656552656365697665722829a2646970667358221220500511507d1e1fc80de549770b0397c995e9678559310ee6d40e47599407f87364736f6c63430008130033a2646970667358221220689270bdb7635bd0aa08602a88fa395b57deabdc15bfbf02e128b694e006bf4564736f6c63430008130033","linkReferences":{}},"methodIdentifiers":{"createRegistry((address,address,uint256,uint256,uint256,address,address,(uint256,string),address,string,bool,string,address))":"8a16135f","gardensFeeReceiver()":"b8bed901","getCommunityValidity(address)":"f5016b5e","getGardensFeeReceiver()":"987435be","getProtocolFee(address)":"0a992e0c","nonce()":"affed0e0","owner()":"8da5cb5b","renounceOwnership()":"715018a6","setCommunityValidity(address,bool)":"5a2c8ace","setProtocolFee(address,uint256)":"b5b3ca2c","setReceiverAddress(address)":"8279c7db","transferOwnership(address)":"f2fde38b"},"id":112}