{"abi":[{"type":"function","name":"DEFAULT_FUNDING_UNITS","inputs":[],"outputs":[{"name":"","type":"uint128","internalType":"uint128"}],"stateMutability":"view"},{"type":"function","name":"DISPUTE_COOLDOWN_SEC","inputs":[],"outputs":[{"name":"","type":"uint256","internalType":"uint256"}],"stateMutability":"view"},{"type":"function","name":"RULING_OPTIONS","inputs":[],"outputs":[{"name":"","type":"uint256","internalType":"uint256"}],"stateMutability":"view"},{"type":"function","name":"TOTAL_GDA_UNITS","inputs":[],"outputs":[{"name":"","type":"uint128","internalType":"uint128"}],"stateMutability":"view"},{"type":"function","name":"arbitrableConfigs","inputs":[{"name":"","type":"uint256","internalType":"uint256"}],"outputs":[{"name":"arbitrator","type":"address","internalType":"contract IArbitrator"},{"name":"tribunalSafe","type":"address","internalType":"address"},{"name":"submitterCollateralAmount","type":"uint256","internalType":"uint256"},{"name":"challengerCollateralAmount","type":"uint256","internalType":"uint256"},{"name":"defaultRuling","type":"uint256","internalType":"uint256"},{"name":"defaultRulingTimeout","type":"uint256","internalType":"uint256"}],"stateMutability":"view"},{"type":"function","name":"cloneNonce","inputs":[],"outputs":[{"name":"","type":"uint256","internalType":"uint256"}],"stateMutability":"view"},{"type":"function","name":"collateralVault","inputs":[],"outputs":[{"name":"","type":"address","internalType":"contract ICollateralVault"}],"stateMutability":"view"},{"type":"function","name":"currentArbitrableConfigVersion","inputs":[],"outputs":[{"name":"","type":"uint256","internalType":"uint256"}],"stateMutability":"view"},{"type":"function","name":"cvParams","inputs":[],"outputs":[{"name":"maxRatio","type":"uint256","internalType":"uint256"},{"name":"weight","type":"uint256","internalType":"uint256"},{"name":"decay","type":"uint256","internalType":"uint256"},{"name":"minThresholdPoints","type":"uint256","internalType":"uint256"}],"stateMutability":"view"},{"type":"function","name":"cvVault","inputs":[],"outputs":[{"name":"","type":"address","internalType":"contract ICVVault"}],"stateMutability":"view"},{"type":"function","name":"disputeCount","inputs":[],"outputs":[{"name":"","type":"uint64","internalType":"uint64"}],"stateMutability":"view"},{"type":"function","name":"disputeIdToProposalId","inputs":[{"name":"","type":"uint256","internalType":"uint256"}],"outputs":[{"name":"","type":"uint256","internalType":"uint256"}],"stateMutability":"view"},{"type":"function","name":"harvestYDS","inputs":[],"outputs":[],"stateMutability":"nonpayable"},{"type":"function","name":"pointConfig","inputs":[],"outputs":[{"name":"maxAmount","type":"uint256","internalType":"uint256"}],"stateMutability":"view"},{"type":"function","name":"pointSystem","inputs":[],"outputs":[{"name":"","type":"uint8","internalType":"enum PointSystem"}],"stateMutability":"view"},{"type":"function","name":"proposalCounter","inputs":[],"outputs":[{"name":"","type":"uint256","internalType":"uint256"}],"stateMutability":"view"},{"type":"function","name":"proposalType","inputs":[],"outputs":[{"name":"","type":"uint8","internalType":"enum ProposalType"}],"stateMutability":"view"},{"type":"function","name":"proposals","inputs":[{"name":"","type":"uint256","internalType":"uint256"}],"outputs":[{"name":"proposalId","type":"uint256","internalType":"uint256"},{"name":"requestedAmount","type":"uint256","internalType":"uint256"},{"name":"stakedAmount","type":"uint256","internalType":"uint256"},{"name":"convictionLast","type":"uint256","internalType":"uint256"},{"name":"beneficiary","type":"address","internalType":"address"},{"name":"submitter","type":"address","internalType":"address"},{"name":"requestedToken","type":"address","internalType":"address"},{"name":"blockLast","type":"uint256","internalType":"uint256"},{"name":"proposalStatus","type":"uint8","internalType":"enum ProposalStatus"},{"name":"metadata","type":"tuple","internalType":"struct Metadata","components":[{"name":"protocol","type":"uint256","internalType":"uint256"},{"name":"pointer","type":"string","internalType":"string"}]},{"name":"disputeInfo","type":"tuple","internalType":"struct ProposalDisputeInfo","components":[{"name":"disputeId","type":"uint256","internalType":"uint256"},{"name":"disputeTimestamp","type":"uint256","internalType":"uint256"},{"name":"challenger","type":"address","internalType":"address"}]},{"name":"lastDisputeCompletion","type":"uint256","internalType":"uint256"},{"name":"arbitrableConfigVersion","type":"uint256","internalType":"uint256"}],"stateMutability":"view"},{"type":"function","name":"registryCommunity","inputs":[],"outputs":[{"name":"","type":"address","internalType":"contract IVotingPowerRegistry"}],"stateMutability":"view"},{"type":"function","name":"setYDSStrategy","inputs":[{"name":"_ydsStrategy","type":"address","internalType":"address"}],"outputs":[],"stateMutability":"nonpayable"},{"type":"function","name":"streamingEnabled","inputs":[],"outputs":[{"name":"","type":"bool","internalType":"bool"}],"stateMutability":"view"},{"type":"function","name":"superfluidToken","inputs":[],"outputs":[{"name":"","type":"address","internalType":"contract ISuperToken"}],"stateMutability":"view"},{"type":"function","name":"sybilScorer","inputs":[],"outputs":[{"name":"","type":"address","internalType":"contract ISybilScorer"}],"stateMutability":"view"},{"type":"function","name":"totalPointsActivated","inputs":[],"outputs":[{"name":"","type":"uint256","internalType":"uint256"}],"stateMutability":"view"},{"type":"function","name":"totalStaked","inputs":[],"outputs":[{"name":"","type":"uint256","internalType":"uint256"}],"stateMutability":"view"},{"type":"function","name":"totalVoterStakePct","inputs":[{"name":"","type":"address","internalType":"address"}],"outputs":[{"name":"","type":"uint256","internalType":"uint256"}],"stateMutability":"view"},{"type":"function","name":"voterStakedProposals","inputs":[{"name":"","type":"address","internalType":"address"},{"name":"","type":"uint256","internalType":"uint256"}],"outputs":[{"name":"","type":"uint256","internalType":"uint256"}],"stateMutability":"view"},{"type":"function","name":"ydsStrategy","inputs":[],"outputs":[{"name":"","type":"address","internalType":"contract IYDSStrategy"}],"stateMutability":"view"},{"type":"event","name":"DonationSharesRedeemed","inputs":[{"name":"ydsStrategy","type":"address","indexed":true,"internalType":"address"},{"name":"shares","type":"uint256","indexed":false,"internalType":"uint256"},{"name":"assets","type":"uint256","indexed":false,"internalType":"uint256"}],"anonymous":false},{"type":"event","name":"YDSStrategySet","inputs":[{"name":"ydsStrategy","type":"address","indexed":true,"internalType":"address"}],"anonymous":false},{"type":"event","name":"YieldDistributed","inputs":[{"name":"proposalId","type":"uint256","indexed":true,"internalType":"uint256"},{"name":"beneficiary","type":"address","indexed":true,"internalType":"address"},{"name":"amount","type":"uint256","indexed":false,"internalType":"uint256"}],"anonymous":false},{"type":"event","name":"YieldHarvested","inputs":[{"name":"caller","type":"address","indexed":true,"internalType":"address"},{"name":"harvestedAmount","type":"uint256","indexed":false,"internalType":"uint256"},{"name":"proposalCount","type":"uint256","indexed":false,"internalType":"uint256"}],"anonymous":false},{"type":"error","name":"GDANotConfigured","inputs":[]},{"type":"error","name":"InvalidUnits","inputs":[]},{"type":"error","name":"NoVaultConfigured","inputs":[]},{"type":"error","name":"NoYDSStrategy","inputs":[]},{"type":"error","name":"OnlyPendingRecipient","inputs":[]},{"type":"error","name":"ProposalNotFoundStream","inputs":[]},{"type":"error","name":"StreamAlreadyActive","inputs":[{"name":"proposalId","type":"uint256","internalType":"uint256"}]},{"type":"error","name":"StreamNotActive","inputs":[{"name":"proposalId","type":"uint256","internalType":"uint256"}]},{"type":"error","name":"StreamingNotEnabled","inputs":[]},{"type":"error","name":"SuperfluidOperationFailed","inputs":[{"name":"operation","type":"string","internalType":"string"}]},{"type":"error","name":"WrongProposalType","inputs":[]}],"bytecode":{"object":"0x608060405234801561001057600080fd5b50611779806100206000396000f3fe608060405234801561001057600080fd5b50600436106101545760003560e01c8063013cf08b1461015957806305caa7f31461018e5780630bece79c146101ae5780630c0512e9146101c1578063125fd1d9146101d85780631de95593146101e15780632506b870146101f6578063255ffb381461021c5780632dbd6fdd1461023c578063339604591461025b578063351d9f961461026457806341bb7605146102715780635db64b99146102f95780636003e41414610319578063626c47e81461032c5780637a3c8b3814610334578063817b1cd214610355578063868c57b81461035e5780638a05105a14610371578063a28889e114610395578063a47ff7e5146103c0578063a6be4a55146103ca578063aba9ffee146103d2578063b4b9a107146103db578063b6c61f31146103e4578063d4ec7879146103f7578063f5be3f7c1461040a578063f846782114610413575b600080fd5b61016c610167366004611213565b610426565b6040516101859d9c9b9a999897969594939291906112b1565b60405180910390f35b6082546101a1906001600160a01b031681565b604051610185919061136b565b607a546101a1906001600160a01b031681565b6101ca606f5481565b604051908152602001610185565b6101ca60705481565b6101f46101ef366004611394565b610574565b005b60735460745460755460765461020c9392919084565b60405161018594939291906113b8565b6101ca61022a366004611213565b60806020526000908152604090205481565b60775461024e90610100900460ff1681565b60405161018591906113e3565b6101ca606d5481565b60775461024e9060ff1681565b6102c161027f366004611213565b6081602052600090815260409020805460018201546002830154600384015460048501546005909501546001600160a01b039485169593909416939192909186565b604080516001600160a01b039788168152969095166020870152938501929092526060840152608083015260a082015260c001610185565b6101ca610307366004611394565b607e6020526000908152604090205481565b6079546101a1906001600160a01b031681565b6101ca600381565b61033d61271081565b6040516001600160801b039091168152602001610185565b6101ca60715481565b6101ca61036c3660046113f6565b6105c6565b60855461038590600160a01b900460ff1681565b6040519015158152602001610185565b606e546103a8906001600160401b031681565b6040516001600160401b039091168152602001610185565b6078546101ca9081565b6101f46105f7565b6101ca60725481565b61033d6103e881565b607c546101a1906001600160a01b031681565b607b546101a1906001600160a01b031681565b6101ca611c2081565b6083546101a1906001600160a01b031681565b607d602090815260009182526040918290208054600182015460028301546003840154600485015460058601546006870154600788015460088901548b51808d01909c52600a8a0180548d52600b8b0180549a9d999c989b979a6001600160a01b039788169a968816999790951697939660ff90931695939491928401916104ad90611422565b80601f01602080910402602001604051908101604052809291908181526020018280546104d990611422565b80156105265780601f106104fb57610100808354040283529160200191610526565b820191906000526020600020905b81548152906001019060200180831161050957829003601f168201915b50505091909252505060408051606081018252600c8501548152600d8501546020820152600e8501546001600160a01b031691810191909152600f840154601090940154929390929091508d565b61057c610825565b608380546001600160a01b0319166001600160a01b0383169081179091556040517f2dc8ebe4dedaf2a52af1d06fd194a13f0208dab11632d94c349642440c474cce90600090a250565b607f60205281600052604060002081815481106105e257600080fd5b90600052602060002001600091509150505481565b6105ff6108d4565b600360775460ff1660038111156106185761061861122c565b1461062257600080fd5b6083546000906001600160a01b031615610783576083546040516370a0823160e01b81526000916001600160a01b0316906370a082319061066790309060040161136b565b602060405180830381865afa158015610684573d6000803e3d6000fd5b505050506040513d601f19601f820116820180604052508101906106a8919061145c565b9050806000036106b6575050565b608354604051635d043b2960e11b815260048101839052306024820181905260448201526001600160a01b039091169063ba087652906064016020604051808303816000875af115801561070e573d6000803e3d6000fd5b505050506040513d601f19601f82011682018060405250810190610732919061145c565b60835460408051848152602081018490529294506001600160a01b03909116917fe9221d623cba9f4ee62e183cf2af9c9cbfa62b83ffe94465f798564ab3aa9c4a910160405180910390a25061080e565b607b546001600160a01b031661079857600080fd5b607b5460405163072e008f60e11b81526001600160a01b0390911690630e5c011e906107c890309060040161136b565b6020604051808303816000875af11580156107e7573d6000803e3d6000fd5b505050506040513d601f19601f8201168201806040525081019061080b919061145c565b90505b806000036108195750565b610822816108e3565b50565b607960009054906101000a90046001600160a01b03166001600160a01b0316636c53db9a6040518163ffffffff1660e01b8152600401602060405180830381865afa158015610878573d6000803e3d6000fd5b505050506040513d601f19601f8201168201806040525081019061089c9190611475565b6001600160a01b0316336001600160a01b0316141580156108c857506033546001600160a01b03163314155b156108d257600080fd5b565b6068546000036108d257600080fd5b606f54600090819081816001600160401b0381111561090457610904611492565b60405190808252806020026020018201604052801561092d578160200160208202803683370190505b5090506000826001600160401b0381111561094a5761094a611492565b604051908082528060200260200182016040528015610973578160200160208202803683370190505b50905060015b838111610a47576000818152607d602052604090206001600882015460ff1660068111156109a9576109a961122c565b146109b45750610a35565b6109c2818260020154610c54565b80600301546000036109d45750610a35565b818487815181106109e7576109e76114a8565b6020026020010181815250508060030154838781518110610a0a57610a0a6114a8565b60209081029190910101526003810154610a2490886114d4565b965085610a30816114ed565b965050505b80610a3f816114ed565b915050610979565b50831580610a53575084155b15610a6057505050505050565b60655460685460405163068bcd8d60e01b815260048101919091526000916001600160a01b03169063068bcd8d90602401600060405180830381865afa158015610aae573d6000803e3d6000fd5b505050506040513d6000823e601f3d908101601f19168201604052610ad69190810190611580565b6040015190506000805b86811015610c0e576000858281518110610afc57610afc6114a8565b602002602001015190506000607d6000838152602001908152602001600020905060008a878581518110610b3257610b326114a8565b60200260200101518d610b4591906116b9565b610b4f91906116d0565b9050610b5c60018b6116f2565b84148015610b695750848c115b15610b7b57610b78858d6116f2565b90505b80600003610b8b57505050610bfc565b610b9581866114d4565b6004830154909550610bb29087906001600160a01b031683610cf1565b60048201546040518281526001600160a01b039091169084907f4c44bdc7c4678ac452a89c8b93511eb6592ff47a3660c4d6bb1847e957308acf9060200160405180910390a35050505b80610c06816114ed565b915050610ae0565b50604080518981526020810188905233917ff343dfc1e44c65296fb907b287e6e12133eb7945ba79ec463d65ef129757c2ff910160405180910390a25050505050505050565b600080610c618484610ddd565b91509150816000148015610c73575080155b15610c7e5750505050565b6007840181905560038401829055608554600160a01b900460ff168015610cdb5750600160775460ff166003811115610cb957610cb961122c565b1480610cdb5750600260775460ff166003811115610cd957610cd961122c565b145b15610ceb578354610ceb90610eae565b50505050565b80600003610cfe57505050565b73eeeeeeeeeeeeeeeeeeeeeeeeeeeeeeeeeeeeeeed196001600160a01b03841601610dc4576000826001600160a01b03168260405160006040518083038185875af1925050503d8060008114610d70576040519150601f19603f3d011682016040523d82523d6000602084013e610d75565b606091505b5050905080610ceb5760405162461bcd60e51b815260206004820152601660248201527513985d1a5d99481d1c985b9cd9995c8819985a5b195960521b60448201526064015b60405180910390fd5b610dd86001600160a01b0384168383610f73565b505050565b6000804390508084600701541115610df757610df7611705565b80846007015403610e0d57506000905080610ea7565b73__$f1b7c69ba751c396eddc93d3bbc5414fd9$__63010dfe64856007015483610e3791906116f2565b60038701546075546040516001600160e01b031960e086901b168152610e6393929189916004016113b8565b602060405180830381865af4158015610e80573d6000803e3d6000fd5b505050506040513d601f19601f82011682018060405250810190610ea4919061145c565b91505b9250929050565b60008181526084602052604090206002810154610ecc90600a6114d4565b431015610ed7575050565b4360028201556040516024810183905260006044820181905290309060640160408051601f198184030181529181526020820180516001600160e01b031663020dc1f960e01b17905251610f2b919061171b565b600060405180830381855af49150503d8060008114610f66576040519150601f19603f3d011682016040523d82523d6000602084013e610f6b565b606091505b505050505050565b604080516001600160a01b03848116602483015260448083018590528351808403909101815260649092018352602080830180516001600160e01b031663a9059cbb60e01b17905283518085019094528084527f5361666545524332303a206c6f772d6c6576656c2063616c6c206661696c656490840152610dd892869291600091611003918516908490611083565b90508051600014806110245750808060200190518101906110249190611737565b610dd85760405162461bcd60e51b815260206004820152602a60248201527f5361666545524332303a204552433230206f7065726174696f6e20646964206e6044820152691bdd081cdd58d8d9595960b21b6064820152608401610dbb565b6060611092848460008561109a565b949350505050565b6060824710156110fb5760405162461bcd60e51b815260206004820152602660248201527f416464726573733a20696e73756666696369656e742062616c616e636520666f6044820152651c8818d85b1b60d21b6064820152608401610dbb565b600080866001600160a01b03168587604051611117919061171b565b60006040518083038185875af1925050503d8060008114611154576040519150601f19603f3d011682016040523d82523d6000602084013e611159565b606091505b509150915061116a87838387611175565b979650505050505050565b606083156111e45782516000036111dd576001600160a01b0385163b6111dd5760405162461bcd60e51b815260206004820152601d60248201527f416464726573733a2063616c6c20746f206e6f6e2d636f6e74726163740000006044820152606401610dbb565b5081611092565b61109283838151156111f95781518083602001fd5b8060405162461bcd60e51b8152600401610dbb9190611759565b60006020828403121561122557600080fd5b5035919050565b634e487b7160e01b600052602160045260246000fd5b60005b8381101561125d578181015183820152602001611245565b50506000910152565b6000815180845261127e816020860160208601611242565b601f01601f19169290920160200192915050565b8051825260006020820151604060208501526110926040850182611266565b8d8152602081018d9052604081018c9052606081018b90526001600160a01b038a8116608083015289811660a0830152881660c082015260e0810187905260006101e0600788106113045761130461122c565b876101008401528061012084015261131e81840188611292565b8651610140850152602087015161016085015260408701516001600160a01b0316610180850152915061134e9050565b6101a08201939093526101c001529b9a5050505050505050505050565b6001600160a01b0391909116815260200190565b6001600160a01b038116811461082257600080fd5b6000602082840312156113a657600080fd5b81356113b18161137f565b9392505050565b93845260208401929092526040830152606082015260800190565b600481106108225761082261122c565b602081016113f0836113d3565b91905290565b6000806040838503121561140957600080fd5b82356114148161137f565b946020939093013593505050565b600181811c9082168061143657607f821691505b60208210810361145657634e487b7160e01b600052602260045260246000fd5b50919050565b60006020828403121561146e57600080fd5b5051919050565b60006020828403121561148757600080fd5b81516113b18161137f565b634e487b7160e01b600052604160045260246000fd5b634e487b7160e01b600052603260045260246000fd5b634e487b7160e01b600052601160045260246000fd5b808201808211156114e7576114e76114be565b92915050565b6000600182016114ff576114ff6114be565b5060010190565b60405160c081016001600160401b038111828210171561152857611528611492565b60405290565b604080519081016001600160401b038111828210171561152857611528611492565b604051601f8201601f191681016001600160401b038111828210171561157857611578611492565b604052919050565b6000602080838503121561159357600080fd5b82516001600160401b03808211156115aa57600080fd5b9084019060c082870312156115be57600080fd5b6115c6611506565b82518152838301516115d78161137f565b8185015260408301516115e98161137f565b604082015260608301518281111561160057600080fd5b83016040818903121561161257600080fd5b61161a61152e565b81518152858201518481111561162f57600080fd5b80830192505088601f83011261164457600080fd5b81518481111561165657611656611492565b611668601f8201601f19168801611550565b9450808552898782850101111561167e57600080fd5b61168d81888701898601611242565b50948501929092526060810193909352506080818101519083015260a090810151908201529392505050565b80820281158282048414176114e7576114e76114be565b6000826116ed57634e487b7160e01b600052601260045260246000fd5b500490565b818103818111156114e7576114e76114be565b634e487b7160e01b600052600160045260246000fd5b6000825161172d818460208701611242565b9190910192915050565b60006020828403121561174957600080fd5b815180151581146113b157600080fd5b6020815260006113b1602083018461126656fea164736f6c6343000813000a","linkReferences":{"pkg/contracts/src/CVStrategy/ConvictionsUtils.sol":{"ConvictionsUtils":[{"start":3631,"length":20}]}}},"methodIdentifiers":{"DEFAULT_FUNDING_UNITS()":"b4b9a107","DISPUTE_COOLDOWN_SEC()":"f5be3f7c","RULING_OPTIONS()":"626c47e8","TOTAL_GDA_UNITS()":"7a3c8b38","arbitrableConfigs(uint256)":"41bb7605","cloneNonce()":"33960459","collateralVault()":"0bece79c","currentArbitrableConfigVersion()":"125fd1d9","cvParams()":"2506b870","cvVault()":"d4ec7879","disputeCount()":"a28889e1","disputeIdToProposalId(uint256)":"255ffb38","harvestYDS()":"a6be4a55","pointConfig()":"a47ff7e5","pointSystem()":"2dbd6fdd","proposalCounter()":"0c0512e9","proposalType()":"351d9f96","proposals(uint256)":"013cf08b","registryCommunity()":"6003e414","setYDSStrategy(address)":"1de95593","streamingEnabled()":"8a05105a","superfluidToken()":"05caa7f3","sybilScorer()":"b6c61f31","totalPointsActivated()":"aba9ffee","totalStaked()":"817b1cd2","totalVoterStakePct(address)":"5db64b99","voterStakedProposals(address,uint256)":"868c57b8","ydsStrategy()":"f8467821"},"storageLayout":{"storage":[{"astId":87054,"contract":"pkg/contracts/src/CVStrategy/facets/CVYDSFacet.sol:CVYDSFacet","label":"_initialized","offset":0,"slot":"0","type":"t_uint8"},{"astId":87056,"contract":"pkg/contracts/src/CVStrategy/facets/CVYDSFacet.sol:CVYDSFacet","label":"_initializing","offset":1,"slot":"0","type":"t_bool"},{"astId":87060,"contract":"pkg/contracts/src/CVStrategy/facets/CVYDSFacet.sol:CVYDSFacet","label":"__gap_init","offset":0,"slot":"1","type":"t_array(t_uint256)50_storage"},{"astId":87063,"contract":"pkg/contracts/src/CVStrategy/facets/CVYDSFacet.sol:CVYDSFacet","label":"_owner","offset":0,"slot":"51","type":"t_address"},{"astId":87067,"contract":"pkg/contracts/src/CVStrategy/facets/CVYDSFacet.sol:CVYDSFacet","label":"__gap_ownable","offset":0,"slot":"52","type":"t_array(t_uint256)49_storage"},{"astId":87071,"contract":"pkg/contracts/src/CVStrategy/facets/CVYDSFacet.sol:CVYDSFacet","label":"allo","offset":0,"slot":"101","type":"t_contract(IAllo)2629"},{"astId":87073,"contract":"pkg/contracts/src/CVStrategy/facets/CVYDSFacet.sol:CVYDSFacet","label":"strategyId","offset":0,"slot":"102","type":"t_bytes32"},{"astId":87075,"contract":"pkg/contracts/src/CVStrategy/facets/CVYDSFacet.sol:CVYDSFacet","label":"poolActive","offset":0,"slot":"103","type":"t_bool"},{"astId":87077,"contract":"pkg/contracts/src/CVStrategy/facets/CVYDSFacet.sol:CVYDSFacet","label":"poolId","offset":0,"slot":"104","type":"t_uint256"},{"astId":87079,"contract":"pkg/contracts/src/CVStrategy/facets/CVYDSFacet.sol:CVYDSFacet","label":"poolAmount","offset":0,"slot":"105","type":"t_uint256"},{"astId":87082,"contract":"pkg/contracts/src/CVStrategy/facets/CVYDSFacet.sol:CVYDSFacet","label":"collateralVaultTemplate","offset":0,"slot":"106","type":"t_address"},{"astId":87085,"contract":"pkg/contracts/src/CVStrategy/facets/CVYDSFacet.sol:CVYDSFacet","label":"cvVaultTemplate","offset":0,"slot":"107","type":"t_address"},{"astId":87088,"contract":"pkg/contracts/src/CVStrategy/facets/CVYDSFacet.sol:CVYDSFacet","label":"surpressStateMutabilityWarning","offset":0,"slot":"108","type":"t_uint256"},{"astId":87091,"contract":"pkg/contracts/src/CVStrategy/facets/CVYDSFacet.sol:CVYDSFacet","label":"cloneNonce","offset":0,"slot":"109","type":"t_uint256"},{"astId":87094,"contract":"pkg/contracts/src/CVStrategy/facets/CVYDSFacet.sol:CVYDSFacet","label":"disputeCount","offset":0,"slot":"110","type":"t_uint64"},{"astId":87097,"contract":"pkg/contracts/src/CVStrategy/facets/CVYDSFacet.sol:CVYDSFacet","label":"proposalCounter","offset":0,"slot":"111","type":"t_uint256"},{"astId":87100,"contract":"pkg/contracts/src/CVStrategy/facets/CVYDSFacet.sol:CVYDSFacet","label":"currentArbitrableConfigVersion","offset":0,"slot":"112","type":"t_uint256"},{"astId":87103,"contract":"pkg/contracts/src/CVStrategy/facets/CVYDSFacet.sol:CVYDSFacet","label":"totalStaked","offset":0,"slot":"113","type":"t_uint256"},{"astId":87106,"contract":"pkg/contracts/src/CVStrategy/facets/CVYDSFacet.sol:CVYDSFacet","label":"totalPointsActivated","offset":0,"slot":"114","type":"t_uint256"},{"astId":87110,"contract":"pkg/contracts/src/CVStrategy/facets/CVYDSFacet.sol:CVYDSFacet","label":"cvParams","offset":0,"slot":"115","type":"t_struct(CVParams)88147_storage"},{"astId":87114,"contract":"pkg/contracts/src/CVStrategy/facets/CVYDSFacet.sol:CVYDSFacet","label":"proposalType","offset":0,"slot":"119","type":"t_enum(ProposalType)88050"},{"astId":87118,"contract":"pkg/contracts/src/CVStrategy/facets/CVYDSFacet.sol:CVYDSFacet","label":"pointSystem","offset":1,"slot":"119","type":"t_enum(PointSystem)88055"},{"astId":87122,"contract":"pkg/contracts/src/CVStrategy/facets/CVYDSFacet.sol:CVYDSFacet","label":"pointConfig","offset":0,"slot":"120","type":"t_struct(PointSystemConfig)88124_storage"},{"astId":87126,"contract":"pkg/contracts/src/CVStrategy/facets/CVYDSFacet.sol:CVYDSFacet","label":"registryCommunity","offset":0,"slot":"121","type":"t_contract(IVotingPowerRegistry)104333"},{"astId":87130,"contract":"pkg/contracts/src/CVStrategy/facets/CVYDSFacet.sol:CVYDSFacet","label":"collateralVault","offset":0,"slot":"122","type":"t_contract(ICollateralVault)103612"},{"astId":87134,"contract":"pkg/contracts/src/CVStrategy/facets/CVYDSFacet.sol:CVYDSFacet","label":"cvVault","offset":0,"slot":"123","type":"t_contract(ICVVault)103579"},{"astId":87138,"contract":"pkg/contracts/src/CVStrategy/facets/CVYDSFacet.sol:CVYDSFacet","label":"sybilScorer","offset":0,"slot":"124","type":"t_contract(ISybilScorer)95778"},{"astId":87144,"contract":"pkg/contracts/src/CVStrategy/facets/CVYDSFacet.sol:CVYDSFacet","label":"proposals","offset":0,"slot":"125","type":"t_mapping(t_uint256,t_struct(Proposal)88116_storage)"},{"astId":87149,"contract":"pkg/contracts/src/CVStrategy/facets/CVYDSFacet.sol:CVYDSFacet","label":"totalVoterStakePct","offset":0,"slot":"126","type":"t_mapping(t_address,t_uint256)"},{"astId":87155,"contract":"pkg/contracts/src/CVStrategy/facets/CVYDSFacet.sol:CVYDSFacet","label":"voterStakedProposals","offset":0,"slot":"127","type":"t_mapping(t_address,t_array(t_uint256)dyn_storage)"},{"astId":87160,"contract":"pkg/contracts/src/CVStrategy/facets/CVYDSFacet.sol:CVYDSFacet","label":"disputeIdToProposalId","offset":0,"slot":"128","type":"t_mapping(t_uint256,t_uint256)"},{"astId":87166,"contract":"pkg/contracts/src/CVStrategy/facets/CVYDSFacet.sol:CVYDSFacet","label":"arbitrableConfigs","offset":0,"slot":"129","type":"t_mapping(t_uint256,t_struct(ArbitrableConfig)88138_storage)"},{"astId":87170,"contract":"pkg/contracts/src/CVStrategy/facets/CVYDSFacet.sol:CVYDSFacet","label":"superfluidToken","offset":0,"slot":"130","type":"t_contract(ISuperToken)74423"},{"astId":87174,"contract":"pkg/contracts/src/CVStrategy/facets/CVYDSFacet.sol:CVYDSFacet","label":"ydsStrategy","offset":0,"slot":"131","type":"t_contract(IYDSStrategy)104459"},{"astId":87191,"contract":"pkg/contracts/src/CVStrategy/facets/CVYDSFacet.sol:CVYDSFacet","label":"proposalStreams","offset":0,"slot":"132","type":"t_mapping(t_uint256,t_struct(StreamState)87185_storage)"},{"astId":87194,"contract":"pkg/contracts/src/CVStrategy/facets/CVYDSFacet.sol:CVYDSFacet","label":"superfluidGDA","offset":0,"slot":"133","type":"t_address"},{"astId":87197,"contract":"pkg/contracts/src/CVStrategy/facets/CVYDSFacet.sol:CVYDSFacet","label":"streamingEnabled","offset":20,"slot":"133","type":"t_bool"},{"astId":87202,"contract":"pkg/contracts/src/CVStrategy/facets/CVYDSFacet.sol:CVYDSFacet","label":"__gap","offset":0,"slot":"134","type":"t_array(t_uint256)45_storage"}],"types":{"t_address":{"encoding":"inplace","label":"address","numberOfBytes":"20"},"t_array(t_uint256)45_storage":{"encoding":"inplace","label":"uint256[45]","numberOfBytes":"1440","base":"t_uint256"},"t_array(t_uint256)49_storage":{"encoding":"inplace","label":"uint256[49]","numberOfBytes":"1568","base":"t_uint256"},"t_array(t_uint256)50_storage":{"encoding":"inplace","label":"uint256[50]","numberOfBytes":"1600","base":"t_uint256"},"t_array(t_uint256)dyn_storage":{"encoding":"dynamic_array","label":"uint256[]","numberOfBytes":"32","base":"t_uint256"},"t_bool":{"encoding":"inplace","label":"bool","numberOfBytes":"1"},"t_bytes32":{"encoding":"inplace","label":"bytes32","numberOfBytes":"32"},"t_contract(IAllo)2629":{"encoding":"inplace","label":"contract IAllo","numberOfBytes":"20"},"t_contract(IArbitrator)103495":{"encoding":"inplace","label":"contract IArbitrator","numberOfBytes":"20"},"t_contract(ICVVault)103579":{"encoding":"inplace","label":"contract ICVVault","numberOfBytes":"20"},"t_contract(ICollateralVault)103612":{"encoding":"inplace","label":"contract ICollateralVault","numberOfBytes":"20"},"t_contract(ISuperToken)74423":{"encoding":"inplace","label":"contract ISuperToken","numberOfBytes":"20"},"t_contract(ISybilScorer)95778":{"encoding":"inplace","label":"contract ISybilScorer","numberOfBytes":"20"},"t_contract(IVotingPowerRegistry)104333":{"encoding":"inplace","label":"contract IVotingPowerRegistry","numberOfBytes":"20"},"t_contract(IYDSStrategy)104459":{"encoding":"inplace","label":"contract IYDSStrategy","numberOfBytes":"20"},"t_enum(PointSystem)88055":{"encoding":"inplace","label":"enum PointSystem","numberOfBytes":"1"},"t_enum(ProposalStatus)88075":{"encoding":"inplace","label":"enum ProposalStatus","numberOfBytes":"1"},"t_enum(ProposalType)88050":{"encoding":"inplace","label":"enum ProposalType","numberOfBytes":"1"},"t_mapping(t_address,t_array(t_uint256)dyn_storage)":{"encoding":"mapping","key":"t_address","label":"mapping(address => uint256[])","numberOfBytes":"32","value":"t_array(t_uint256)dyn_storage"},"t_mapping(t_address,t_uint256)":{"encoding":"mapping","key":"t_address","label":"mapping(address => uint256)","numberOfBytes":"32","value":"t_uint256"},"t_mapping(t_uint256,t_struct(ArbitrableConfig)88138_storage)":{"encoding":"mapping","key":"t_uint256","label":"mapping(uint256 => struct ArbitrableConfig)","numberOfBytes":"32","value":"t_struct(ArbitrableConfig)88138_storage"},"t_mapping(t_uint256,t_struct(Proposal)88116_storage)":{"encoding":"mapping","key":"t_uint256","label":"mapping(uint256 => struct Proposal)","numberOfBytes":"32","value":"t_struct(Proposal)88116_storage"},"t_mapping(t_uint256,t_struct(StreamState)87185_storage)":{"encoding":"mapping","key":"t_uint256","label":"mapping(uint256 => struct CVStrategyBaseFacet.StreamState)","numberOfBytes":"32","value":"t_struct(StreamState)87185_storage"},"t_mapping(t_uint256,t_uint256)":{"encoding":"mapping","key":"t_uint256","label":"mapping(uint256 => uint256)","numberOfBytes":"32","value":"t_uint256"},"t_string_storage":{"encoding":"bytes","label":"string","numberOfBytes":"32"},"t_struct(ArbitrableConfig)88138_storage":{"encoding":"inplace","label":"struct ArbitrableConfig","numberOfBytes":"192","members":[{"astId":88127,"contract":"pkg/contracts/src/CVStrategy/facets/CVYDSFacet.sol:CVYDSFacet","label":"arbitrator","offset":0,"slot":"0","type":"t_contract(IArbitrator)103495"},{"astId":88129,"contract":"pkg/contracts/src/CVStrategy/facets/CVYDSFacet.sol:CVYDSFacet","label":"tribunalSafe","offset":0,"slot":"1","type":"t_address"},{"astId":88131,"contract":"pkg/contracts/src/CVStrategy/facets/CVYDSFacet.sol:CVYDSFacet","label":"submitterCollateralAmount","offset":0,"slot":"2","type":"t_uint256"},{"astId":88133,"contract":"pkg/contracts/src/CVStrategy/facets/CVYDSFacet.sol:CVYDSFacet","label":"challengerCollateralAmount","offset":0,"slot":"3","type":"t_uint256"},{"astId":88135,"contract":"pkg/contracts/src/CVStrategy/facets/CVYDSFacet.sol:CVYDSFacet","label":"defaultRuling","offset":0,"slot":"4","type":"t_uint256"},{"astId":88137,"contract":"pkg/contracts/src/CVStrategy/facets/CVYDSFacet.sol:CVYDSFacet","label":"defaultRulingTimeout","offset":0,"slot":"5","type":"t_uint256"}]},"t_struct(CVParams)88147_storage":{"encoding":"inplace","label":"struct CVParams","numberOfBytes":"128","members":[{"astId":88140,"contract":"pkg/contracts/src/CVStrategy/facets/CVYDSFacet.sol:CVYDSFacet","label":"maxRatio","offset":0,"slot":"0","type":"t_uint256"},{"astId":88142,"contract":"pkg/contracts/src/CVStrategy/facets/CVYDSFacet.sol:CVYDSFacet","label":"weight","offset":0,"slot":"1","type":"t_uint256"},{"astId":88144,"contract":"pkg/contracts/src/CVStrategy/facets/CVYDSFacet.sol:CVYDSFacet","label":"decay","offset":0,"slot":"2","type":"t_uint256"},{"astId":88146,"contract":"pkg/contracts/src/CVStrategy/facets/CVYDSFacet.sol:CVYDSFacet","label":"minThresholdPoints","offset":0,"slot":"3","type":"t_uint256"}]},"t_struct(Metadata)3080_storage":{"encoding":"inplace","label":"struct Metadata","numberOfBytes":"64","members":[{"astId":3076,"contract":"pkg/contracts/src/CVStrategy/facets/CVYDSFacet.sol:CVYDSFacet","label":"protocol","offset":0,"slot":"0","type":"t_uint256"},{"astId":3079,"contract":"pkg/contracts/src/CVStrategy/facets/CVYDSFacet.sol:CVYDSFacet","label":"pointer","offset":0,"slot":"1","type":"t_string_storage"}]},"t_struct(PointSystemConfig)88124_storage":{"encoding":"inplace","label":"struct PointSystemConfig","numberOfBytes":"32","members":[{"astId":88123,"contract":"pkg/contracts/src/CVStrategy/facets/CVYDSFacet.sol:CVYDSFacet","label":"maxAmount","offset":0,"slot":"0","type":"t_uint256"}]},"t_struct(Proposal)88116_storage":{"encoding":"inplace","label":"struct Proposal","numberOfBytes":"544","members":[{"astId":88084,"contract":"pkg/contracts/src/CVStrategy/facets/CVYDSFacet.sol:CVYDSFacet","label":"proposalId","offset":0,"slot":"0","type":"t_uint256"},{"astId":88086,"contract":"pkg/contracts/src/CVStrategy/facets/CVYDSFacet.sol:CVYDSFacet","label":"requestedAmount","offset":0,"slot":"1","type":"t_uint256"},{"astId":88088,"contract":"pkg/contracts/src/CVStrategy/facets/CVYDSFacet.sol:CVYDSFacet","label":"stakedAmount","offset":0,"slot":"2","type":"t_uint256"},{"astId":88090,"contract":"pkg/contracts/src/CVStrategy/facets/CVYDSFacet.sol:CVYDSFacet","label":"convictionLast","offset":0,"slot":"3","type":"t_uint256"},{"astId":88092,"contract":"pkg/contracts/src/CVStrategy/facets/CVYDSFacet.sol:CVYDSFacet","label":"beneficiary","offset":0,"slot":"4","type":"t_address"},{"astId":88094,"contract":"pkg/contracts/src/CVStrategy/facets/CVYDSFacet.sol:CVYDSFacet","label":"submitter","offset":0,"slot":"5","type":"t_address"},{"astId":88096,"contract":"pkg/contracts/src/CVStrategy/facets/CVYDSFacet.sol:CVYDSFacet","label":"requestedToken","offset":0,"slot":"6","type":"t_address"},{"astId":88098,"contract":"pkg/contracts/src/CVStrategy/facets/CVYDSFacet.sol:CVYDSFacet","label":"blockLast","offset":0,"slot":"7","type":"t_uint256"},{"astId":88101,"contract":"pkg/contracts/src/CVStrategy/facets/CVYDSFacet.sol:CVYDSFacet","label":"proposalStatus","offset":0,"slot":"8","type":"t_enum(ProposalStatus)88075"},{"astId":88105,"contract":"pkg/contracts/src/CVStrategy/facets/CVYDSFacet.sol:CVYDSFacet","label":"voterStakedPoints","offset":0,"slot":"9","type":"t_mapping(t_address,t_uint256)"},{"astId":88108,"contract":"pkg/contracts/src/CVStrategy/facets/CVYDSFacet.sol:CVYDSFacet","label":"metadata","offset":0,"slot":"10","type":"t_struct(Metadata)3080_storage"},{"astId":88111,"contract":"pkg/contracts/src/CVStrategy/facets/CVYDSFacet.sol:CVYDSFacet","label":"disputeInfo","offset":0,"slot":"12","type":"t_struct(ProposalDisputeInfo)88082_storage"},{"astId":88113,"contract":"pkg/contracts/src/CVStrategy/facets/CVYDSFacet.sol:CVYDSFacet","label":"lastDisputeCompletion","offset":0,"slot":"15","type":"t_uint256"},{"astId":88115,"contract":"pkg/contracts/src/CVStrategy/facets/CVYDSFacet.sol:CVYDSFacet","label":"arbitrableConfigVersion","offset":0,"slot":"16","type":"t_uint256"}]},"t_struct(ProposalDisputeInfo)88082_storage":{"encoding":"inplace","label":"struct ProposalDisputeInfo","numberOfBytes":"96","members":[{"astId":88077,"contract":"pkg/contracts/src/CVStrategy/facets/CVYDSFacet.sol:CVYDSFacet","label":"disputeId","offset":0,"slot":"0","type":"t_uint256"},{"astId":88079,"contract":"pkg/contracts/src/CVStrategy/facets/CVYDSFacet.sol:CVYDSFacet","label":"disputeTimestamp","offset":0,"slot":"1","type":"t_uint256"},{"astId":88081,"contract":"pkg/contracts/src/CVStrategy/facets/CVYDSFacet.sol:CVYDSFacet","label":"challenger","offset":0,"slot":"2","type":"t_address"}]},"t_struct(StreamState)87185_storage":{"encoding":"inplace","label":"struct CVStrategyBaseFacet.StreamState","numberOfBytes":"128","members":[{"astId":87176,"contract":"pkg/contracts/src/CVStrategy/facets/CVYDSFacet.sol:CVYDSFacet","label":"isActive","offset":0,"slot":"0","type":"t_bool"},{"astId":87178,"contract":"pkg/contracts/src/CVStrategy/facets/CVYDSFacet.sol:CVYDSFacet","label":"flowUnits","offset":1,"slot":"0","type":"t_uint128"},{"astId":87180,"contract":"pkg/contracts/src/CVStrategy/facets/CVYDSFacet.sol:CVYDSFacet","label":"lastUpdateBlock","offset":0,"slot":"1","type":"t_uint256"},{"astId":87182,"contract":"pkg/contracts/src/CVStrategy/facets/CVYDSFacet.sol:CVYDSFacet","label":"lastEvalBlock","offset":0,"slot":"2","type":"t_uint256"},{"astId":87184,"contract":"pkg/contracts/src/CVStrategy/facets/CVYDSFacet.sol:CVYDSFacet","label":"beneficiary","offset":0,"slot":"3","type":"t_address"}]},"t_uint128":{"encoding":"inplace","label":"uint128","numberOfBytes":"16"},"t_uint256":{"encoding":"inplace","label":"uint256","numberOfBytes":"32"},"t_uint64":{"encoding":"inplace","label":"uint64","numberOfBytes":"8"},"t_uint8":{"encoding":"inplace","label":"uint8","numberOfBytes":"1"}}},"id":162}