{"abi":[{"type":"function","name":"initialize","inputs":[{"name":"initialOwner","type":"address","internalType":"address"}],"outputs":[],"stateMutability":"nonpayable"},{"type":"function","name":"owner","inputs":[],"outputs":[{"name":"","type":"address","internalType":"address"}],"stateMutability":"view"},{"type":"function","name":"proxiableUUID","inputs":[],"outputs":[{"name":"","type":"bytes32","internalType":"bytes32"}],"stateMutability":"view"},{"type":"function","name":"proxyOwner","inputs":[],"outputs":[{"name":"","type":"address","internalType":"address"}],"stateMutability":"view"},{"type":"function","name":"renounceOwnership","inputs":[],"outputs":[],"stateMutability":"nonpayable"},{"type":"function","name":"transferOwnership","inputs":[{"name":"newOwner","type":"address","internalType":"address"}],"outputs":[],"stateMutability":"nonpayable"},{"type":"function","name":"upgradeTo","inputs":[{"name":"newImplementation","type":"address","internalType":"address"}],"outputs":[],"stateMutability":"nonpayable"},{"type":"function","name":"upgradeToAndCall","inputs":[{"name":"newImplementation","type":"address","internalType":"address"},{"name":"data","type":"bytes","internalType":"bytes"}],"outputs":[],"stateMutability":"payable"},{"type":"event","name":"AdminChanged","inputs":[{"name":"previousAdmin","type":"address","indexed":false,"internalType":"address"},{"name":"newAdmin","type":"address","indexed":false,"internalType":"address"}],"anonymous":false},{"type":"event","name":"BeaconUpgraded","inputs":[{"name":"beacon","type":"address","indexed":true,"internalType":"address"}],"anonymous":false},{"type":"event","name":"Initialized","inputs":[{"name":"version","type":"uint8","indexed":false,"internalType":"uint8"}],"anonymous":false},{"type":"event","name":"OwnershipTransferred","inputs":[{"name":"previousOwner","type":"address","indexed":true,"internalType":"address"},{"name":"newOwner","type":"address","indexed":true,"internalType":"address"}],"anonymous":false},{"type":"event","name":"Upgraded","inputs":[{"name":"implementation","type":"address","indexed":true,"internalType":"address"}],"anonymous":false},{"type":"error","name":"CallerNotOwner","inputs":[{"name":"_caller","type":"address","internalType":"address"},{"name":"_owner","type":"address","internalType":"address"}]}],"bytecode":{"object":"0x60a060405230608052348015610013575f80fd5b50608051610d3d6100485f395f818161017d015281816101c60152818161024d0152818161028d01526103080152610d3d5ff3fe60806040526004361061006a575f3560e01c8063025313a21461006e5780633659cfe61461009f5780634f1ef286146100c057806352d1902d146100d3578063715018a6146100f55780638da5cb5b14610109578063c4d66de81461011d578063f2fde38b1461013c575b5f80fd5b348015610079575f80fd5b5061008261015b565b6040516001600160a01b0390911681526020015b60405180910390f35b3480156100aa575f80fd5b506100be6100b9366004610aca565b610173565b005b6100be6100ce366004610af9565b610243565b3480156100de575f80fd5b506100e76102fc565b604051908152602001610096565b348015610100575f80fd5b506100be6103a8565b348015610114575f80fd5b506100826103bb565b348015610128575f80fd5b506100be610137366004610aca565b61044e565b348015610147575f80fd5b506100be610156366004610aca565b610561565b5f61016e6033546001600160a01b031690565b905090565b6001600160a01b037f00000000000000000000000000000000000000000000000000000000000000001630036101c45760405162461bcd60e51b81526004016101bb90610bb6565b60405180910390fd5b7f00000000000000000000000000000000000000000000000000000000000000006001600160a01b03166101f66105d7565b6001600160a01b03161461021c5760405162461bcd60e51b81526004016101bb90610bef565b610225816105f2565b604080515f808252602082019092526102409183919061063e565b50565b6001600160a01b037f000000000000000000000000000000000000000000000000000000000000000016300361028b5760405162461bcd60e51b81526004016101bb90610bb6565b7f00000000000000000000000000000000000000000000000000000000000000006001600160a01b03166102bd6105d7565b6001600160a01b0316146102e35760405162461bcd60e51b81526004016101bb90610bef565b6102ec826105f2565b6102f88282600161063e565b5050565b5f306001600160a01b037f000000000000000000000000000000000000000000000000000000000000000016146103965760405162461bcd60e51b815260206004820152603860248201527f555550535570677261646561626c653a206d757374206e6f742062652063616c6044820152771b1959081d1a1c9bdd59da0819195b1959d85d1958d85b1b60421b60648201526084016101bb565b505f80516020610cea83398151915290565b6103b06107ad565b6103b95f61080c565b565b5f6103c461015b565b6001600160a01b03163b5f036103dc5761016e61015b565b6103e461015b565b6001600160a01b0316638da5cb5b6040518163ffffffff1660e01b8152600401602060405180830381865afa92505050801561043d575060408051601f3d908101601f1916820190925261043a91810190610c28565b60015b6104495761016e61015b565b919050565b5f54610100900460ff161580801561046c57505f54600160ff909116105b8061048c575061047b3061085d565b15801561048c57505f5460ff166001145b6104ef5760405162461bcd60e51b815260206004820152602e60248201527f496e697469616c697a61626c653a20636f6e747261637420697320616c72656160448201526d191e481a5b9a5d1a585b1a5e995960921b60648201526084016101bb565b5f805460ff191660011790558015610510575f805461ff0019166101001790555b6105198261080c565b80156102f8575f805461ff0019169055604051600181527f7f26b83ff96e1f2b6a682f133852f6798a09c465da95921460cefb38474024989060200160405180910390a15050565b6105696107ad565b6001600160a01b0381166105ce5760405162461bcd60e51b815260206004820152602660248201527f4f776e61626c653a206e6577206f776e657220697320746865207a65726f206160448201526564647265737360d01b60648201526084016101bb565b6102408161080c565b5f80516020610cea833981519152546001600160a01b031690565b336105fb6103bb565b6001600160a01b03161461024057336106126103bb565b60405163163678e960e01b81526001600160a01b039283166004820152911660248201526044016101bb565b7f4910fdfa16fed3260ed0e7147f7cc6da11a60208b5b9406d12a635614ffd91435460ff1615610676576106718361086c565b505050565b826001600160a01b03166352d1902d6040518163ffffffff1660e01b8152600401602060405180830381865afa9250505080156106d0575060408051601f3d908101601f191682019092526106cd91810190610c43565b60015b6107335760405162461bcd60e51b815260206004820152602e60248201527f45524331393637557067726164653a206e657720696d706c656d656e7461746960448201526d6f6e206973206e6f74205555505360901b60648201526084016101bb565b5f80516020610cea83398151915281146107a15760405162461bcd60e51b815260206004820152602960248201527f45524331393637557067726164653a20756e737570706f727465642070726f786044820152681a58589b195555525160ba1b60648201526084016101bb565b50610671838383610905565b336107b66103bb565b6001600160a01b0316146103b95760405162461bcd60e51b815260206004820181905260248201527f4f776e61626c653a2063616c6c6572206973206e6f7420746865206f776e657260448201526064016101bb565b603380546001600160a01b038381166001600160a01b0319831681179093556040519116919082907f8be0079c531659141344cd1fd0a4f28419497f9722a3daafe3b4186f6b6457e0905f90a35050565b6001600160a01b03163b151590565b6108758161085d565b6108d75760405162461bcd60e51b815260206004820152602d60248201527f455243313936373a206e657720696d706c656d656e746174696f6e206973206e60448201526c1bdd08184818dbdb9d1c9858dd609a1b60648201526084016101bb565b5f80516020610cea83398151915280546001600160a01b0319166001600160a01b0392909216919091179055565b61090e8361092f565b5f8251118061091a5750805b1561067157610929838361096e565b50505050565b6109388161086c565b6040516001600160a01b038216907fbc7cd75a20ee27fd9adebab32041f755214dbc6bffa90cc0225b39da2e5c2d3b905f90a250565b60606109938383604051806060016040528060278152602001610d0a6027913961099a565b9392505050565b60605f80856001600160a01b0316856040516109b69190610c7c565b5f60405180830381855af49150503d805f81146109ee576040519150601f19603f3d011682016040523d82523d5f602084013e6109f3565b606091505b5091509150610a0486838387610a0e565b9695505050505050565b60608315610a7a5782515f03610a7357610a278561085d565b610a735760405162461bcd60e51b815260206004820152601d60248201527f416464726573733a2063616c6c20746f206e6f6e2d636f6e747261637400000060448201526064016101bb565b5081610a84565b610a848383610a8c565b949350505050565b815115610a9c5781518083602001fd5b8060405162461bcd60e51b81526004016101bb9190610c97565b6001600160a01b0381168114610240575f80fd5b5f60208284031215610ada575f80fd5b813561099381610ab6565b634e487b7160e01b5f52604160045260245ffd5b5f8060408385031215610b0a575f80fd5b8235610b1581610ab6565b915060208301356001600160401b0380821115610b30575f80fd5b818501915085601f830112610b43575f80fd5b813581811115610b5557610b55610ae5565b604051601f8201601f19908116603f01168101908382118183101715610b7d57610b7d610ae5565b81604052828152886020848701011115610b95575f80fd5b826020860160208301375f6020848301015280955050505050509250929050565b6020808252602c908201525f80516020610cca83398151915260408201526b19195b1959d85d1958d85b1b60a21b606082015260800190565b6020808252602c908201525f80516020610cca83398151915260408201526b6163746976652070726f787960a01b606082015260800190565b5f60208284031215610c38575f80fd5b815161099381610ab6565b5f60208284031215610c53575f80fd5b5051919050565b5f5b83811015610c74578181015183820152602001610c5c565b50505f910152565b5f8251610c8d818460208701610c5a565b9190910192915050565b602081525f8251806020840152610cb5816040850160208701610c5a565b601f01601f1916919091016040019291505056fe46756e6374696f6e206d7573742062652063616c6c6564207468726f75676820360894a13ba1a3210667c828492db98dca3e2076cc3735a920a3ca505d382bbc416464726573733a206c6f772d6c6576656c2064656c65676174652063616c6c206661696c6564a164736f6c6343000817000a","linkReferences":{}},"methodIdentifiers":{"initialize(address)":"c4d66de8","owner()":"8da5cb5b","proxiableUUID()":"52d1902d","proxyOwner()":"025313a2","renounceOwnership()":"715018a6","transferOwnership(address)":"f2fde38b","upgradeTo(address)":"3659cfe6","upgradeToAndCall(address,bytes)":"4f1ef286"},"storageLayout":{"storage":[{"astId":52241,"contract":"pkg/contracts/src/ProxyOwnableUpgrader.sol:ProxyOwnableUpgrader","label":"_initialized","offset":0,"slot":"0","type":"t_uint8"},{"astId":52244,"contract":"pkg/contracts/src/ProxyOwnableUpgrader.sol:ProxyOwnableUpgrader","label":"_initializing","offset":1,"slot":"0","type":"t_bool"},{"astId":52946,"contract":"pkg/contracts/src/ProxyOwnableUpgrader.sol:ProxyOwnableUpgrader","label":"__gap","offset":0,"slot":"1","type":"t_array(t_uint256)50_storage"},{"astId":52033,"contract":"pkg/contracts/src/ProxyOwnableUpgrader.sol:ProxyOwnableUpgrader","label":"_owner","offset":0,"slot":"51","type":"t_address"},{"astId":52153,"contract":"pkg/contracts/src/ProxyOwnableUpgrader.sol:ProxyOwnableUpgrader","label":"__gap","offset":0,"slot":"52","type":"t_array(t_uint256)49_storage"}],"types":{"t_address":{"encoding":"inplace","label":"address","numberOfBytes":"20"},"t_array(t_uint256)49_storage":{"encoding":"inplace","label":"uint256[49]","numberOfBytes":"1568","base":"t_uint256"},"t_array(t_uint256)50_storage":{"encoding":"inplace","label":"uint256[50]","numberOfBytes":"1600","base":"t_uint256"},"t_bool":{"encoding":"inplace","label":"bool","numberOfBytes":"1"},"t_uint256":{"encoding":"inplace","label":"uint256","numberOfBytes":"32"},"t_uint8":{"encoding":"inplace","label":"uint8","numberOfBytes":"1"}}},"id":168}