{"abi":[{"type":"function","name":"DISPUTE_COOLDOWN_SEC","inputs":[],"outputs":[{"name":"","type":"uint256","internalType":"uint256"}],"stateMutability":"view"},{"type":"function","name":"RULING_OPTIONS","inputs":[],"outputs":[{"name":"","type":"uint256","internalType":"uint256"}],"stateMutability":"view"},{"type":"function","name":"arbitrableConfigs","inputs":[{"name":"","type":"uint256","internalType":"uint256"}],"outputs":[{"name":"arbitrator","type":"address","internalType":"contract IArbitrator"},{"name":"tribunalSafe","type":"address","internalType":"address"},{"name":"submitterCollateralAmount","type":"uint256","internalType":"uint256"},{"name":"challengerCollateralAmount","type":"uint256","internalType":"uint256"},{"name":"defaultRuling","type":"uint256","internalType":"uint256"},{"name":"defaultRulingTimeout","type":"uint256","internalType":"uint256"}],"stateMutability":"view"},{"type":"function","name":"cloneNonce","inputs":[],"outputs":[{"name":"","type":"uint256","internalType":"uint256"}],"stateMutability":"view"},{"type":"function","name":"collateralVault","inputs":[],"outputs":[{"name":"","type":"address","internalType":"contract ICollateralVault"}],"stateMutability":"view"},{"type":"function","name":"currentArbitrableConfigVersion","inputs":[],"outputs":[{"name":"","type":"uint256","internalType":"uint256"}],"stateMutability":"view"},{"type":"function","name":"cvParams","inputs":[],"outputs":[{"name":"maxRatio","type":"uint256","internalType":"uint256"},{"name":"weight","type":"uint256","internalType":"uint256"},{"name":"decay","type":"uint256","internalType":"uint256"},{"name":"minThresholdPoints","type":"uint256","internalType":"uint256"}],"stateMutability":"view"},{"type":"function","name":"disputeCount","inputs":[],"outputs":[{"name":"","type":"uint64","internalType":"uint64"}],"stateMutability":"view"},{"type":"function","name":"disputeIdToProposalId","inputs":[{"name":"","type":"uint256","internalType":"uint256"}],"outputs":[{"name":"","type":"uint256","internalType":"uint256"}],"stateMutability":"view"},{"type":"function","name":"pointConfig","inputs":[],"outputs":[{"name":"maxAmount","type":"uint256","internalType":"uint256"}],"stateMutability":"view"},{"type":"function","name":"pointSystem","inputs":[],"outputs":[{"name":"","type":"uint8","internalType":"enum PointSystem"}],"stateMutability":"view"},{"type":"function","name":"proposalCounter","inputs":[],"outputs":[{"name":"","type":"uint256","internalType":"uint256"}],"stateMutability":"view"},{"type":"function","name":"proposalType","inputs":[],"outputs":[{"name":"","type":"uint8","internalType":"enum ProposalType"}],"stateMutability":"view"},{"type":"function","name":"proposals","inputs":[{"name":"","type":"uint256","internalType":"uint256"}],"outputs":[{"name":"proposalId","type":"uint256","internalType":"uint256"},{"name":"requestedAmount","type":"uint256","internalType":"uint256"},{"name":"stakedAmount","type":"uint256","internalType":"uint256"},{"name":"convictionLast","type":"uint256","internalType":"uint256"},{"name":"beneficiary","type":"address","internalType":"address"},{"name":"submitter","type":"address","internalType":"address"},{"name":"requestedToken","type":"address","internalType":"address"},{"name":"blockLast","type":"uint256","internalType":"uint256"},{"name":"proposalStatus","type":"uint8","internalType":"enum ProposalStatus"},{"name":"metadata","type":"tuple","internalType":"struct Metadata","components":[{"name":"protocol","type":"uint256","internalType":"uint256"},{"name":"pointer","type":"string","internalType":"string"}]},{"name":"disputeInfo","type":"tuple","internalType":"struct ProposalDisputeInfo","components":[{"name":"disputeId","type":"uint256","internalType":"uint256"},{"name":"disputeTimestamp","type":"uint256","internalType":"uint256"},{"name":"challenger","type":"address","internalType":"address"}]},{"name":"lastDisputeCompletion","type":"uint256","internalType":"uint256"},{"name":"arbitrableConfigVersion","type":"uint256","internalType":"uint256"},{"name":"creationTimestamp","type":"uint256","internalType":"uint256"}],"stateMutability":"view"},{"type":"function","name":"rebalance","inputs":[],"outputs":[],"stateMutability":"nonpayable"},{"type":"function","name":"registryCommunity","inputs":[],"outputs":[{"name":"","type":"address","internalType":"contract RegistryCommunity"}],"stateMutability":"view"},{"type":"function","name":"streamingRatePerSecond","inputs":[],"outputs":[{"name":"","type":"uint256","internalType":"uint256"}],"stateMutability":"view"},{"type":"function","name":"superfluidGDA","inputs":[],"outputs":[{"name":"","type":"address","internalType":"contract ISuperfluidPool"}],"stateMutability":"view"},{"type":"function","name":"superfluidToken","inputs":[],"outputs":[{"name":"","type":"address","internalType":"contract ISuperToken"}],"stateMutability":"view"},{"type":"function","name":"sybilScorer","inputs":[],"outputs":[{"name":"","type":"address","internalType":"contract ISybilScorer"}],"stateMutability":"view"},{"type":"function","name":"totalPointsActivated","inputs":[],"outputs":[{"name":"","type":"uint256","internalType":"uint256"}],"stateMutability":"view"},{"type":"function","name":"totalStaked","inputs":[],"outputs":[{"name":"","type":"uint256","internalType":"uint256"}],"stateMutability":"view"},{"type":"function","name":"totalVoterStakePct","inputs":[{"name":"","type":"address","internalType":"address"}],"outputs":[{"name":"","type":"uint256","internalType":"uint256"}],"stateMutability":"view"},{"type":"function","name":"voterStakedProposals","inputs":[{"name":"","type":"address","internalType":"address"},{"name":"","type":"uint256","internalType":"uint256"}],"outputs":[{"name":"","type":"uint256","internalType":"uint256"}],"stateMutability":"view"},{"type":"event","name":"StreamMemberUnitUpdated","inputs":[{"name":"member","type":"address","indexed":true,"internalType":"address"},{"name":"newUnit","type":"int96","indexed":false,"internalType":"int96"}],"anonymous":false},{"type":"event","name":"StreamStarted","inputs":[{"name":"gda","type":"address","indexed":true,"internalType":"address"},{"name":"flowRate","type":"uint256","indexed":false,"internalType":"uint256"}],"anonymous":false},{"type":"error","name":"OnlyActiveProposal","inputs":[{"name":"proposalId","type":"uint256","internalType":"uint256"}]},{"type":"error","name":"OnlyAllo","inputs":[{"name":"sender","type":"address","internalType":"address"},{"name":"allo","type":"address","internalType":"address"}]},{"type":"error","name":"OnlyCouncilSafe","inputs":[{"name":"sender","type":"address","internalType":"address"},{"name":"councilSafe","type":"address","internalType":"address"},{"name":"owner","type":"address","internalType":"address"}]},{"type":"error","name":"OnlyCouncilSafeOrMember","inputs":[{"name":"sender","type":"address","internalType":"address"},{"name":"councilSafe","type":"address","internalType":"address"}]},{"type":"error","name":"OnlyInitialized","inputs":[{"name":"poolId","type":"uint256","internalType":"uint256"}]},{"type":"error","name":"OnlyMember","inputs":[{"name":"wallet","type":"address","internalType":"address"},{"name":"community","type":"address","internalType":"address"}]},{"type":"error","name":"OnlyRegistryCommunity","inputs":[{"name":"sender","type":"address","internalType":"address"},{"name":"registry","type":"address","internalType":"address"}]},{"type":"error","name":"OnlySubmitter","inputs":[{"name":"proposalId","type":"uint256","internalType":"uint256"},{"name":"submitter","type":"address","internalType":"address"},{"name":"sender","type":"address","internalType":"address"}]},{"type":"error","name":"ProposalDoesNotExist","inputs":[{"name":"proposalID","type":"uint256","internalType":"uint256"}]},{"type":"error","name":"RebalanceCooldownActive","inputs":[{"name":"secondsRemaining","type":"uint256","internalType":"uint256"}]},{"type":"error","name":"StrategyPaused","inputs":[{"name":"controller","type":"address","internalType":"address"}]},{"type":"error","name":"StrategySelectorPaused","inputs":[{"name":"selector","type":"bytes4","internalType":"bytes4"},{"name":"controller","type":"address","internalType":"address"}]}],"bytecode":{"object":"0x6080604052348015600e575f80fd5b506108518061001c5f395ff3fe608060405234801561000f575f80fd5b5060043610610126575f3560e01c8063013cf08b1461012a57806305caa7f3146101605780630bece79c1461018b5780630c0512e91461019e578063125fd1d9146101b55780631b36f56f146101be5780632506b870146101d1578063255ffb38146102075780632dbd6fdd146102265780633396045914610245578063351d9f961461024e57806341bb7605146102685780635db64b99146102ef5780636003e4141461030e578063626c47e8146103215780637d7c2a1c14610329578063817b1cd214610333578063868c57b81461033c57806394573cbb1461034f578063a28889e114610358578063a47ff7e514610383578063aba9ffee1461038d578063b6c61f3114610396578063f5be3f7c146103a9575b5f80fd5b61013d610138366004610607565b6103b2565b6040516101579e9d9c9b9a99989796959493929190610688565b60405180910390f35b608054610173906001600160a01b031681565b6040516001600160a01b039091168152602001610157565b607954610173906001600160a01b031681565b6101a7606e5481565b604051908152602001610157565b6101a7606f5481565b608154610173906001600160a01b031681565b6072546073546074546075546101e79392919084565b604080519485526020850193909352918301526060820152608001610157565b6101a7610215366004610607565b607e6020525f908152604090205481565b60765461023890610100900460ff1681565b604051610157919061073b565b6101a7606c5481565b60765461025b9060ff1681565b6040516101579190610755565b6102b7610276366004610607565b607f6020525f90815260409020805460018201546002830154600384015460048501546005909501546001600160a01b039485169593909416939192909186565b604080516001600160a01b039788168152969095166020870152938501929092526060840152608083015260a082015260c001610157565b6101a76102fd366004610784565b607c6020525f908152604090205481565b607854610173906001600160a01b031681565b6101a7600381565b610331610502565b005b6101a760705481565b6101a761034a3660046107a4565b61058a565b6101a760825481565b606d5461036b906001600160401b031681565b6040516001600160401b039091168152602001610157565b6077546101a79081565b6101a760715481565b607a54610173906001600160a01b031681565b6101a7611c2081565b607b60209081525f9182526040918290208054600182015460028301546003840154600485015460058601546006870154600788015460088901548b51808d01909c52600a8a0180548d52600b8b0180549a9d999c989b979a6001600160a01b039788169a968816999790951697939660ff9093169593949192840191610438906107cc565b80601f0160208091040260200160405190810160405280929190818152602001828054610464906107cc565b80156104af5780601f10610486576101008083540402835291602001916104af565b820191905f5260205f20905b81548152906001019060200180831161049257829003601f168201915b50505091909252505060408051606081018252600c8501548152600d8501546020820152600e8501546001600160a01b031691810191909152600f8401546010850154601190950154939491939092508e565b61050a6105b5565b15801590610530575061051b6105b5565b6105236105c7565b61052d9190610818565b42105b1561057f574261053e6105b5565b6105466105c7565b6105509190610818565b61055a9190610831565b604051632664776560e01b815260040161057691815260200190565b60405180910390fd5b610588426105d6565b565b607d602052815f5260405f2081815481106105a3575f80fd5b905f5260205f20015f91509150505481565b5f6105be6105e3565b60010154905090565b5f6105d06105e3565b54919050565b806105df6105e3565b5550565b7fd5d05b1f29dcb0c0e1698b0261850eb784d1243215a6aa22ea2b8128b2e9497c90565b5f60208284031215610617575f80fd5b5035919050565b634e487b7160e01b5f52602160045260245ffd5b600781106106425761064261061e565b9052565b805182525f60208201516040602085015280518060408601528060208301606087015e5f606082870101526060601f19601f8301168601019250505092915050565b8e8152602081018e9052604081018d9052606081018c90526001600160a01b038b811660808301528a811660a0830152891660c08201525f8860e08301526106d4610100830189610632565b6102006101208301526106eb610200830188610646565b865161014084015260208701516101608401526040909601516001600160a01b0316610180830152506101a08101939093526101c08301919091526101e0909101529a9950505050505050505050565b602081016004831061074f5761074f61061e565b91905290565b602081016003831061074f5761074f61061e565b80356001600160a01b038116811461077f575f80fd5b919050565b5f60208284031215610794575f80fd5b61079d82610769565b9392505050565b5f80604083850312156107b5575f80fd5b6107be83610769565b946020939093013593505050565b600181811c908216806107e057607f821691505b6020821081036107fe57634e487b7160e01b5f52602260045260245ffd5b50919050565b634e487b7160e01b5f52601160045260245ffd5b8082018082111561082b5761082b610804565b92915050565b8181038181111561082b5761082b61080456fea164736f6c6343000819000a","linkReferences":{}},"methodIdentifiers":{"DISPUTE_COOLDOWN_SEC()":"f5be3f7c","RULING_OPTIONS()":"626c47e8","arbitrableConfigs(uint256)":"41bb7605","cloneNonce()":"33960459","collateralVault()":"0bece79c","currentArbitrableConfigVersion()":"125fd1d9","cvParams()":"2506b870","disputeCount()":"a28889e1","disputeIdToProposalId(uint256)":"255ffb38","pointConfig()":"a47ff7e5","pointSystem()":"2dbd6fdd","proposalCounter()":"0c0512e9","proposalType()":"351d9f96","proposals(uint256)":"013cf08b","rebalance()":"7d7c2a1c","registryCommunity()":"6003e414","streamingRatePerSecond()":"94573cbb","superfluidGDA()":"1b36f56f","superfluidToken()":"05caa7f3","sybilScorer()":"b6c61f31","totalPointsActivated()":"aba9ffee","totalStaked()":"817b1cd2","totalVoterStakePct(address)":"5db64b99","voterStakedProposals(address,uint256)":"868c57b8"},"storageLayout":{"storage":[{"astId":84645,"contract":"pkg/contracts/src/CVStrategy/facets/CVStreamingFacet.sol:CVStreamingFacet","label":"_initialized","offset":0,"slot":"0","type":"t_uint8"},{"astId":84647,"contract":"pkg/contracts/src/CVStrategy/facets/CVStreamingFacet.sol:CVStreamingFacet","label":"_initializing","offset":1,"slot":"0","type":"t_bool"},{"astId":84651,"contract":"pkg/contracts/src/CVStrategy/facets/CVStreamingFacet.sol:CVStreamingFacet","label":"__gap_init","offset":0,"slot":"1","type":"t_array(t_uint256)50_storage"},{"astId":84654,"contract":"pkg/contracts/src/CVStrategy/facets/CVStreamingFacet.sol:CVStreamingFacet","label":"_owner","offset":0,"slot":"51","type":"t_address"},{"astId":84658,"contract":"pkg/contracts/src/CVStrategy/facets/CVStreamingFacet.sol:CVStreamingFacet","label":"__gap_ownable","offset":0,"slot":"52","type":"t_array(t_uint256)49_storage"},{"astId":84662,"contract":"pkg/contracts/src/CVStrategy/facets/CVStreamingFacet.sol:CVStreamingFacet","label":"allo","offset":0,"slot":"101","type":"t_contract(IAllo)351"},{"astId":84664,"contract":"pkg/contracts/src/CVStrategy/facets/CVStreamingFacet.sol:CVStreamingFacet","label":"strategyId","offset":0,"slot":"102","type":"t_bytes32"},{"astId":84666,"contract":"pkg/contracts/src/CVStrategy/facets/CVStreamingFacet.sol:CVStreamingFacet","label":"poolActive","offset":0,"slot":"103","type":"t_bool"},{"astId":84668,"contract":"pkg/contracts/src/CVStrategy/facets/CVStreamingFacet.sol:CVStreamingFacet","label":"poolId","offset":0,"slot":"104","type":"t_uint256"},{"astId":84670,"contract":"pkg/contracts/src/CVStrategy/facets/CVStreamingFacet.sol:CVStreamingFacet","label":"poolAmount","offset":0,"slot":"105","type":"t_uint256"},{"astId":84673,"contract":"pkg/contracts/src/CVStrategy/facets/CVStreamingFacet.sol:CVStreamingFacet","label":"collateralVaultTemplate","offset":0,"slot":"106","type":"t_address"},{"astId":84676,"contract":"pkg/contracts/src/CVStrategy/facets/CVStreamingFacet.sol:CVStreamingFacet","label":"surpressStateMutabilityWarning","offset":0,"slot":"107","type":"t_uint256"},{"astId":84679,"contract":"pkg/contracts/src/CVStrategy/facets/CVStreamingFacet.sol:CVStreamingFacet","label":"cloneNonce","offset":0,"slot":"108","type":"t_uint256"},{"astId":84682,"contract":"pkg/contracts/src/CVStrategy/facets/CVStreamingFacet.sol:CVStreamingFacet","label":"disputeCount","offset":0,"slot":"109","type":"t_uint64"},{"astId":84685,"contract":"pkg/contracts/src/CVStrategy/facets/CVStreamingFacet.sol:CVStreamingFacet","label":"proposalCounter","offset":0,"slot":"110","type":"t_uint256"},{"astId":84688,"contract":"pkg/contracts/src/CVStrategy/facets/CVStreamingFacet.sol:CVStreamingFacet","label":"currentArbitrableConfigVersion","offset":0,"slot":"111","type":"t_uint256"},{"astId":84691,"contract":"pkg/contracts/src/CVStrategy/facets/CVStreamingFacet.sol:CVStreamingFacet","label":"totalStaked","offset":0,"slot":"112","type":"t_uint256"},{"astId":84694,"contract":"pkg/contracts/src/CVStrategy/facets/CVStreamingFacet.sol:CVStreamingFacet","label":"totalPointsActivated","offset":0,"slot":"113","type":"t_uint256"},{"astId":84698,"contract":"pkg/contracts/src/CVStrategy/facets/CVStreamingFacet.sol:CVStreamingFacet","label":"cvParams","offset":0,"slot":"114","type":"t_struct(CVParams)86006_storage"},{"astId":84702,"contract":"pkg/contracts/src/CVStrategy/facets/CVStreamingFacet.sol:CVStreamingFacet","label":"proposalType","offset":0,"slot":"118","type":"t_enum(ProposalType)85907"},{"astId":84706,"contract":"pkg/contracts/src/CVStrategy/facets/CVStreamingFacet.sol:CVStreamingFacet","label":"pointSystem","offset":1,"slot":"118","type":"t_enum(PointSystem)85912"},{"astId":84710,"contract":"pkg/contracts/src/CVStrategy/facets/CVStreamingFacet.sol:CVStreamingFacet","label":"pointConfig","offset":0,"slot":"119","type":"t_struct(PointSystemConfig)85983_storage"},{"astId":84714,"contract":"pkg/contracts/src/CVStrategy/facets/CVStreamingFacet.sol:CVStreamingFacet","label":"registryCommunity","offset":0,"slot":"120","type":"t_contract(RegistryCommunity)94492"},{"astId":84718,"contract":"pkg/contracts/src/CVStrategy/facets/CVStreamingFacet.sol:CVStreamingFacet","label":"collateralVault","offset":0,"slot":"121","type":"t_contract(ICollateralVault)100213"},{"astId":84722,"contract":"pkg/contracts/src/CVStrategy/facets/CVStreamingFacet.sol:CVStreamingFacet","label":"sybilScorer","offset":0,"slot":"122","type":"t_contract(ISybilScorer)91938"},{"astId":84728,"contract":"pkg/contracts/src/CVStrategy/facets/CVStreamingFacet.sol:CVStreamingFacet","label":"proposals","offset":0,"slot":"123","type":"t_mapping(t_uint256,t_struct(Proposal)85975_storage)"},{"astId":84733,"contract":"pkg/contracts/src/CVStrategy/facets/CVStreamingFacet.sol:CVStreamingFacet","label":"totalVoterStakePct","offset":0,"slot":"124","type":"t_mapping(t_address,t_uint256)"},{"astId":84739,"contract":"pkg/contracts/src/CVStrategy/facets/CVStreamingFacet.sol:CVStreamingFacet","label":"voterStakedProposals","offset":0,"slot":"125","type":"t_mapping(t_address,t_array(t_uint256)dyn_storage)"},{"astId":84744,"contract":"pkg/contracts/src/CVStrategy/facets/CVStreamingFacet.sol:CVStreamingFacet","label":"disputeIdToProposalId","offset":0,"slot":"126","type":"t_mapping(t_uint256,t_uint256)"},{"astId":84750,"contract":"pkg/contracts/src/CVStrategy/facets/CVStreamingFacet.sol:CVStreamingFacet","label":"arbitrableConfigs","offset":0,"slot":"127","type":"t_mapping(t_uint256,t_struct(ArbitrableConfig)85997_storage)"},{"astId":84754,"contract":"pkg/contracts/src/CVStrategy/facets/CVStreamingFacet.sol:CVStreamingFacet","label":"superfluidToken","offset":0,"slot":"128","type":"t_contract(ISuperToken)76210"},{"astId":84758,"contract":"pkg/contracts/src/CVStrategy/facets/CVStreamingFacet.sol:CVStreamingFacet","label":"superfluidGDA","offset":0,"slot":"129","type":"t_contract(ISuperfluidPool)75038"},{"astId":84761,"contract":"pkg/contracts/src/CVStrategy/facets/CVStreamingFacet.sol:CVStreamingFacet","label":"streamingRatePerSecond","offset":0,"slot":"130","type":"t_uint256"},{"astId":84766,"contract":"pkg/contracts/src/CVStrategy/facets/CVStreamingFacet.sol:CVStreamingFacet","label":"__gap","offset":0,"slot":"131","type":"t_array(t_uint256)47_storage"}],"types":{"t_address":{"encoding":"inplace","label":"address","numberOfBytes":"20"},"t_array(t_uint256)47_storage":{"encoding":"inplace","label":"uint256[47]","numberOfBytes":"1504","base":"t_uint256"},"t_array(t_uint256)49_storage":{"encoding":"inplace","label":"uint256[49]","numberOfBytes":"1568","base":"t_uint256"},"t_array(t_uint256)50_storage":{"encoding":"inplace","label":"uint256[50]","numberOfBytes":"1600","base":"t_uint256"},"t_array(t_uint256)dyn_storage":{"encoding":"dynamic_array","label":"uint256[]","numberOfBytes":"32","base":"t_uint256"},"t_bool":{"encoding":"inplace","label":"bool","numberOfBytes":"1"},"t_bytes32":{"encoding":"inplace","label":"bytes32","numberOfBytes":"32"},"t_contract(IAllo)351":{"encoding":"inplace","label":"contract IAllo","numberOfBytes":"20"},"t_contract(IArbitrator)100180":{"encoding":"inplace","label":"contract IArbitrator","numberOfBytes":"20"},"t_contract(ICollateralVault)100213":{"encoding":"inplace","label":"contract ICollateralVault","numberOfBytes":"20"},"t_contract(ISuperToken)76210":{"encoding":"inplace","label":"contract ISuperToken","numberOfBytes":"20"},"t_contract(ISuperfluidPool)75038":{"encoding":"inplace","label":"contract ISuperfluidPool","numberOfBytes":"20"},"t_contract(ISybilScorer)91938":{"encoding":"inplace","label":"contract ISybilScorer","numberOfBytes":"20"},"t_contract(RegistryCommunity)94492":{"encoding":"inplace","label":"contract RegistryCommunity","numberOfBytes":"20"},"t_enum(PointSystem)85912":{"encoding":"inplace","label":"enum PointSystem","numberOfBytes":"1"},"t_enum(ProposalStatus)85932":{"encoding":"inplace","label":"enum ProposalStatus","numberOfBytes":"1"},"t_enum(ProposalType)85907":{"encoding":"inplace","label":"enum ProposalType","numberOfBytes":"1"},"t_mapping(t_address,t_array(t_uint256)dyn_storage)":{"encoding":"mapping","key":"t_address","label":"mapping(address => uint256[])","numberOfBytes":"32","value":"t_array(t_uint256)dyn_storage"},"t_mapping(t_address,t_uint256)":{"encoding":"mapping","key":"t_address","label":"mapping(address => uint256)","numberOfBytes":"32","value":"t_uint256"},"t_mapping(t_uint256,t_struct(ArbitrableConfig)85997_storage)":{"encoding":"mapping","key":"t_uint256","label":"mapping(uint256 => struct ArbitrableConfig)","numberOfBytes":"32","value":"t_struct(ArbitrableConfig)85997_storage"},"t_mapping(t_uint256,t_struct(Proposal)85975_storage)":{"encoding":"mapping","key":"t_uint256","label":"mapping(uint256 => struct Proposal)","numberOfBytes":"32","value":"t_struct(Proposal)85975_storage"},"t_mapping(t_uint256,t_uint256)":{"encoding":"mapping","key":"t_uint256","label":"mapping(uint256 => uint256)","numberOfBytes":"32","value":"t_uint256"},"t_string_storage":{"encoding":"bytes","label":"string","numberOfBytes":"32"},"t_struct(ArbitrableConfig)85997_storage":{"encoding":"inplace","label":"struct ArbitrableConfig","numberOfBytes":"192","members":[{"astId":85986,"contract":"pkg/contracts/src/CVStrategy/facets/CVStreamingFacet.sol:CVStreamingFacet","label":"arbitrator","offset":0,"slot":"0","type":"t_contract(IArbitrator)100180"},{"astId":85988,"contract":"pkg/contracts/src/CVStrategy/facets/CVStreamingFacet.sol:CVStreamingFacet","label":"tribunalSafe","offset":0,"slot":"1","type":"t_address"},{"astId":85990,"contract":"pkg/contracts/src/CVStrategy/facets/CVStreamingFacet.sol:CVStreamingFacet","label":"submitterCollateralAmount","offset":0,"slot":"2","type":"t_uint256"},{"astId":85992,"contract":"pkg/contracts/src/CVStrategy/facets/CVStreamingFacet.sol:CVStreamingFacet","label":"challengerCollateralAmount","offset":0,"slot":"3","type":"t_uint256"},{"astId":85994,"contract":"pkg/contracts/src/CVStrategy/facets/CVStreamingFacet.sol:CVStreamingFacet","label":"defaultRuling","offset":0,"slot":"4","type":"t_uint256"},{"astId":85996,"contract":"pkg/contracts/src/CVStrategy/facets/CVStreamingFacet.sol:CVStreamingFacet","label":"defaultRulingTimeout","offset":0,"slot":"5","type":"t_uint256"}]},"t_struct(CVParams)86006_storage":{"encoding":"inplace","label":"struct CVParams","numberOfBytes":"128","members":[{"astId":85999,"contract":"pkg/contracts/src/CVStrategy/facets/CVStreamingFacet.sol:CVStreamingFacet","label":"maxRatio","offset":0,"slot":"0","type":"t_uint256"},{"astId":86001,"contract":"pkg/contracts/src/CVStrategy/facets/CVStreamingFacet.sol:CVStreamingFacet","label":"weight","offset":0,"slot":"1","type":"t_uint256"},{"astId":86003,"contract":"pkg/contracts/src/CVStrategy/facets/CVStreamingFacet.sol:CVStreamingFacet","label":"decay","offset":0,"slot":"2","type":"t_uint256"},{"astId":86005,"contract":"pkg/contracts/src/CVStrategy/facets/CVStreamingFacet.sol:CVStreamingFacet","label":"minThresholdPoints","offset":0,"slot":"3","type":"t_uint256"}]},"t_struct(Metadata)806_storage":{"encoding":"inplace","label":"struct Metadata","numberOfBytes":"64","members":[{"astId":802,"contract":"pkg/contracts/src/CVStrategy/facets/CVStreamingFacet.sol:CVStreamingFacet","label":"protocol","offset":0,"slot":"0","type":"t_uint256"},{"astId":805,"contract":"pkg/contracts/src/CVStrategy/facets/CVStreamingFacet.sol:CVStreamingFacet","label":"pointer","offset":0,"slot":"1","type":"t_string_storage"}]},"t_struct(PointSystemConfig)85983_storage":{"encoding":"inplace","label":"struct PointSystemConfig","numberOfBytes":"32","members":[{"astId":85982,"contract":"pkg/contracts/src/CVStrategy/facets/CVStreamingFacet.sol:CVStreamingFacet","label":"maxAmount","offset":0,"slot":"0","type":"t_uint256"}]},"t_struct(Proposal)85975_storage":{"encoding":"inplace","label":"struct Proposal","numberOfBytes":"576","members":[{"astId":85941,"contract":"pkg/contracts/src/CVStrategy/facets/CVStreamingFacet.sol:CVStreamingFacet","label":"proposalId","offset":0,"slot":"0","type":"t_uint256"},{"astId":85943,"contract":"pkg/contracts/src/CVStrategy/facets/CVStreamingFacet.sol:CVStreamingFacet","label":"requestedAmount","offset":0,"slot":"1","type":"t_uint256"},{"astId":85945,"contract":"pkg/contracts/src/CVStrategy/facets/CVStreamingFacet.sol:CVStreamingFacet","label":"stakedAmount","offset":0,"slot":"2","type":"t_uint256"},{"astId":85947,"contract":"pkg/contracts/src/CVStrategy/facets/CVStreamingFacet.sol:CVStreamingFacet","label":"convictionLast","offset":0,"slot":"3","type":"t_uint256"},{"astId":85949,"contract":"pkg/contracts/src/CVStrategy/facets/CVStreamingFacet.sol:CVStreamingFacet","label":"beneficiary","offset":0,"slot":"4","type":"t_address"},{"astId":85951,"contract":"pkg/contracts/src/CVStrategy/facets/CVStreamingFacet.sol:CVStreamingFacet","label":"submitter","offset":0,"slot":"5","type":"t_address"},{"astId":85953,"contract":"pkg/contracts/src/CVStrategy/facets/CVStreamingFacet.sol:CVStreamingFacet","label":"requestedToken","offset":0,"slot":"6","type":"t_address"},{"astId":85955,"contract":"pkg/contracts/src/CVStrategy/facets/CVStreamingFacet.sol:CVStreamingFacet","label":"blockLast","offset":0,"slot":"7","type":"t_uint256"},{"astId":85958,"contract":"pkg/contracts/src/CVStrategy/facets/CVStreamingFacet.sol:CVStreamingFacet","label":"proposalStatus","offset":0,"slot":"8","type":"t_enum(ProposalStatus)85932"},{"astId":85962,"contract":"pkg/contracts/src/CVStrategy/facets/CVStreamingFacet.sol:CVStreamingFacet","label":"voterStakedPoints","offset":0,"slot":"9","type":"t_mapping(t_address,t_uint256)"},{"astId":85965,"contract":"pkg/contracts/src/CVStrategy/facets/CVStreamingFacet.sol:CVStreamingFacet","label":"metadata","offset":0,"slot":"10","type":"t_struct(Metadata)806_storage"},{"astId":85968,"contract":"pkg/contracts/src/CVStrategy/facets/CVStreamingFacet.sol:CVStreamingFacet","label":"disputeInfo","offset":0,"slot":"12","type":"t_struct(ProposalDisputeInfo)85939_storage"},{"astId":85970,"contract":"pkg/contracts/src/CVStrategy/facets/CVStreamingFacet.sol:CVStreamingFacet","label":"lastDisputeCompletion","offset":0,"slot":"15","type":"t_uint256"},{"astId":85972,"contract":"pkg/contracts/src/CVStrategy/facets/CVStreamingFacet.sol:CVStreamingFacet","label":"arbitrableConfigVersion","offset":0,"slot":"16","type":"t_uint256"},{"astId":85974,"contract":"pkg/contracts/src/CVStrategy/facets/CVStreamingFacet.sol:CVStreamingFacet","label":"creationTimestamp","offset":0,"slot":"17","type":"t_uint256"}]},"t_struct(ProposalDisputeInfo)85939_storage":{"encoding":"inplace","label":"struct ProposalDisputeInfo","numberOfBytes":"96","members":[{"astId":85934,"contract":"pkg/contracts/src/CVStrategy/facets/CVStreamingFacet.sol:CVStreamingFacet","label":"disputeId","offset":0,"slot":"0","type":"t_uint256"},{"astId":85936,"contract":"pkg/contracts/src/CVStrategy/facets/CVStreamingFacet.sol:CVStreamingFacet","label":"disputeTimestamp","offset":0,"slot":"1","type":"t_uint256"},{"astId":85938,"contract":"pkg/contracts/src/CVStrategy/facets/CVStreamingFacet.sol:CVStreamingFacet","label":"challenger","offset":0,"slot":"2","type":"t_address"}]},"t_uint256":{"encoding":"inplace","label":"uint256","numberOfBytes":"32"},"t_uint64":{"encoding":"inplace","label":"uint64","numberOfBytes":"8"},"t_uint8":{"encoding":"inplace","label":"uint8","numberOfBytes":"1"}}},"id":140}