{"abi":[{"type":"function","name":"DECIMALS","inputs":[],"outputs":[{"name":"","type":"uint256","internalType":"uint256"}],"stateMutability":"view"},{"type":"function","name":"NATIVE","inputs":[],"outputs":[{"name":"","type":"address","internalType":"address"}],"stateMutability":"view"},{"type":"function","name":"PERCENTAGE_SCALE","inputs":[],"outputs":[{"name":"","type":"uint256","internalType":"uint256"}],"stateMutability":"view"},{"type":"function","name":"_calculateConviction","inputs":[{"name":"_timePassed","type":"uint256","internalType":"uint256"},{"name":"_lastConv","type":"uint256","internalType":"uint256"},{"name":"_oldAmount","type":"uint256","internalType":"uint256"},{"name":"decay","type":"uint256","internalType":"uint256"}],"outputs":[{"name":"","type":"uint256","internalType":"uint256"}],"stateMutability":"pure"},{"type":"function","name":"allo_owner","inputs":[],"outputs":[{"name":"","type":"address","internalType":"address"}],"stateMutability":"nonpayable"},{"type":"function","name":"allo_treasury","inputs":[],"outputs":[{"name":"","type":"address","internalType":"address payable"}],"stateMutability":"nonpayable"},{"type":"function","name":"createPool","inputs":[{"name":"allo","type":"address","internalType":"contract Allo"},{"name":"strategy","type":"address","internalType":"address"},{"name":"registryCommunity","type":"address","internalType":"address"},{"name":"registry","type":"address","internalType":"contract IRegistry"},{"name":"token","type":"address","internalType":"address"},{"name":"proposalType","type":"uint8","internalType":"enum StrategyStruct.ProposalType"},{"name":"pointSystem","type":"uint8","internalType":"enum StrategyStruct.PointSystem"},{"name":"pointConfig","type":"tuple","internalType":"struct StrategyStruct.PointSystemConfig","components":[{"name":"maxAmount","type":"uint256","internalType":"uint256"}]},{"name":"arbitrableConfig","type":"tuple","internalType":"struct StrategyStruct.ArbitrableConfig","components":[{"name":"arbitrator","type":"address","internalType":"contract IArbitrator"},{"name":"tribunalSafe","type":"address","internalType":"address"},{"name":"submitterCollateralAmount","type":"uint256","internalType":"uint256"},{"name":"challengerCollateralAmount","type":"uint256","internalType":"uint256"},{"name":"defaultRuling","type":"uint256","internalType":"uint256"},{"name":"defaultRulingTimeout","type":"uint256","internalType":"uint256"},{"name":"collateralVaultTemplate","type":"address","internalType":"address"}]}],"outputs":[{"name":"poolId","type":"uint256","internalType":"uint256"}],"stateMutability":"nonpayable"},{"type":"function","name":"createPool","inputs":[{"name":"allo","type":"address","internalType":"contract Allo"},{"name":"strategy","type":"address","internalType":"address"},{"name":"registryCommunity","type":"address","internalType":"address"},{"name":"registry","type":"address","internalType":"contract IRegistry"},{"name":"token","type":"address","internalType":"address"},{"name":"proposalType","type":"uint8","internalType":"enum StrategyStruct.ProposalType"},{"name":"pointSystem","type":"uint8","internalType":"enum StrategyStruct.PointSystem"},{"name":"arbitrableConfig","type":"tuple","internalType":"struct StrategyStruct.ArbitrableConfig","components":[{"name":"arbitrator","type":"address","internalType":"contract IArbitrator"},{"name":"tribunalSafe","type":"address","internalType":"address"},{"name":"submitterCollateralAmount","type":"uint256","internalType":"uint256"},{"name":"challengerCollateralAmount","type":"uint256","internalType":"uint256"},{"name":"defaultRuling","type":"uint256","internalType":"uint256"},{"name":"defaultRulingTimeout","type":"uint256","internalType":"uint256"},{"name":"collateralVaultTemplate","type":"address","internalType":"address"}]}],"outputs":[{"name":"poolId","type":"uint256","internalType":"uint256"}],"stateMutability":"nonpayable"},{"type":"function","name":"getParams","inputs":[{"name":"registryCommunity","type":"address","internalType":"address"},{"name":"proposalType","type":"uint8","internalType":"enum StrategyStruct.ProposalType"},{"name":"pointSystem","type":"uint8","internalType":"enum StrategyStruct.PointSystem"},{"name":"pointConfig","type":"tuple","internalType":"struct StrategyStruct.PointSystemConfig","components":[{"name":"maxAmount","type":"uint256","internalType":"uint256"}]},{"name":"arbitrableConfig","type":"tuple","internalType":"struct StrategyStruct.ArbitrableConfig","components":[{"name":"arbitrator","type":"address","internalType":"contract IArbitrator"},{"name":"tribunalSafe","type":"address","internalType":"address"},{"name":"submitterCollateralAmount","type":"uint256","internalType":"uint256"},{"name":"challengerCollateralAmount","type":"uint256","internalType":"uint256"},{"name":"defaultRuling","type":"uint256","internalType":"uint256"},{"name":"defaultRulingTimeout","type":"uint256","internalType":"uint256"},{"name":"collateralVaultTemplate","type":"address","internalType":"address"}]}],"outputs":[{"name":"params","type":"tuple","internalType":"struct StrategyStruct.InitializeParams","components":[{"name":"registryCommunity","type":"address","internalType":"address"},{"name":"decay","type":"uint256","internalType":"uint256"},{"name":"maxRatio","type":"uint256","internalType":"uint256"},{"name":"weight","type":"uint256","internalType":"uint256"},{"name":"minThresholdPoints","type":"uint256","internalType":"uint256"},{"name":"proposalType","type":"uint8","internalType":"enum StrategyStruct.ProposalType"},{"name":"pointSystem","type":"uint8","internalType":"enum StrategyStruct.PointSystem"},{"name":"pointConfig","type":"tuple","internalType":"struct StrategyStruct.PointSystemConfig","components":[{"name":"maxAmount","type":"uint256","internalType":"uint256"}]},{"name":"arbitrableConfig","type":"tuple","internalType":"struct StrategyStruct.ArbitrableConfig","components":[{"name":"arbitrator","type":"address","internalType":"contract IArbitrator"},{"name":"tribunalSafe","type":"address","internalType":"address"},{"name":"submitterCollateralAmount","type":"uint256","internalType":"uint256"},{"name":"challengerCollateralAmount","type":"uint256","internalType":"uint256"},{"name":"defaultRuling","type":"uint256","internalType":"uint256"},{"name":"defaultRulingTimeout","type":"uint256","internalType":"uint256"},{"name":"collateralVaultTemplate","type":"address","internalType":"address"}]},{"name":"sybilScorer","type":"address","internalType":"address"}]}],"stateMutability":"pure"},{"type":"function","name":"local","inputs":[],"outputs":[{"name":"","type":"address","internalType":"address"}],"stateMutability":"view"},{"type":"function","name":"metadata","inputs":[],"outputs":[{"name":"protocol","type":"uint256","internalType":"uint256"},{"name":"pointer","type":"string","internalType":"string"}],"stateMutability":"view"},{"type":"function","name":"no_recipient","inputs":[],"outputs":[{"name":"","type":"address","internalType":"address"}],"stateMutability":"nonpayable"},{"type":"function","name":"nullProfile_member1","inputs":[],"outputs":[{"name":"","type":"address","internalType":"address"}],"stateMutability":"pure"},{"type":"function","name":"nullProfile_member2","inputs":[],"outputs":[{"name":"","type":"address","internalType":"address"}],"stateMutability":"pure"},{"type":"function","name":"nullProfile_members","inputs":[],"outputs":[{"name":"","type":"address[]","internalType":"address[]"}],"stateMutability":"pure"},{"type":"function","name":"nullProfile_notAMember","inputs":[],"outputs":[{"name":"","type":"address","internalType":"address"}],"stateMutability":"pure"},{"type":"function","name":"nullProfile_owner","inputs":[],"outputs":[{"name":"","type":"address","internalType":"address"}],"stateMutability":"pure"},{"type":"function","name":"poolProfile_id1","inputs":[{"name":"registry","type":"address","internalType":"contract IRegistry"},{"name":"pool_admin","type":"address","internalType":"address"},{"name":"pool_managers","type":"address[]","internalType":"address[]"}],"outputs":[{"name":"","type":"bytes32","internalType":"bytes32"}],"stateMutability":"nonpayable"},{"type":"function","name":"pool_admin","inputs":[],"outputs":[{"name":"","type":"address","internalType":"address"}],"stateMutability":"nonpayable"},{"type":"function","name":"pool_manager1","inputs":[],"outputs":[{"name":"","type":"address","internalType":"address"}],"stateMutability":"nonpayable"},{"type":"function","name":"pool_manager2","inputs":[],"outputs":[{"name":"","type":"address","internalType":"address"}],"stateMutability":"nonpayable"},{"type":"function","name":"pool_managers","inputs":[],"outputs":[{"name":"","type":"address[]","internalType":"address[]"}],"stateMutability":"nonpayable"},{"type":"function","name":"pool_notAManager","inputs":[],"outputs":[{"name":"","type":"address","internalType":"address"}],"stateMutability":"nonpayable"},{"type":"function","name":"profile1_member1","inputs":[],"outputs":[{"name":"","type":"address","internalType":"address"}],"stateMutability":"nonpayable"},{"type":"function","name":"profile1_member2","inputs":[],"outputs":[{"name":"","type":"address","internalType":"address"}],"stateMutability":"nonpayable"},{"type":"function","name":"profile1_members","inputs":[],"outputs":[{"name":"","type":"address[]","internalType":"address[]"}],"stateMutability":"nonpayable"},{"type":"function","name":"profile1_notAMember","inputs":[],"outputs":[{"name":"","type":"address","internalType":"address"}],"stateMutability":"nonpayable"},{"type":"function","name":"profile1_owner","inputs":[],"outputs":[{"name":"","type":"address","internalType":"address"}],"stateMutability":"nonpayable"},{"type":"function","name":"profile2_member1","inputs":[],"outputs":[{"name":"","type":"address","internalType":"address"}],"stateMutability":"nonpayable"},{"type":"function","name":"profile2_member2","inputs":[],"outputs":[{"name":"","type":"address","internalType":"address"}],"stateMutability":"nonpayable"},{"type":"function","name":"profile2_members","inputs":[],"outputs":[{"name":"","type":"address[]","internalType":"address[]"}],"stateMutability":"nonpayable"},{"type":"function","name":"profile2_notAMember","inputs":[],"outputs":[{"name":"","type":"address","internalType":"address"}],"stateMutability":"nonpayable"},{"type":"function","name":"profile2_owner","inputs":[],"outputs":[{"name":"","type":"address","internalType":"address"}],"stateMutability":"nonpayable"},{"type":"function","name":"randomAddress","inputs":[],"outputs":[{"name":"","type":"address","internalType":"address"}],"stateMutability":"nonpayable"},{"type":"function","name":"recipient","inputs":[],"outputs":[{"name":"","type":"address","internalType":"address"}],"stateMutability":"nonpayable"},{"type":"function","name":"recipient1","inputs":[],"outputs":[{"name":"","type":"address","internalType":"address"}],"stateMutability":"nonpayable"},{"type":"function","name":"recipient2","inputs":[],"outputs":[{"name":"","type":"address","internalType":"address"}],"stateMutability":"nonpayable"},{"type":"function","name":"recipientAddress","inputs":[],"outputs":[{"name":"","type":"address","internalType":"address"}],"stateMutability":"nonpayable"},{"type":"function","name":"registry_owner","inputs":[],"outputs":[{"name":"","type":"address","internalType":"address"}],"stateMutability":"nonpayable"}],"bytecode":{"object":"0x60016080908152610120604052602e60c081815260a09162001f8260e0399052805160099081556020820151600a906200003a9082620000f6565b5050503480156200004a57600080fd5b50620001c2565b634e487b7160e01b600052604160045260246000fd5b600181811c908216806200007c57607f821691505b6020821081036200009d57634e487b7160e01b600052602260045260246000fd5b50919050565b601f821115620000f157600081815260208120601f850160051c81016020861015620000cc5750805b601f850160051c820191505b81811015620000ed57828155600101620000d8565b5050505b505050565b81516001600160401b0381111562000112576200011262000051565b6200012a8162000123845462000067565b84620000a3565b602080601f831160018114620001625760008415620001495750858301515b600019600386901b1c1916600185901b178555620000ed565b600085815260208120601f198616915b82811015620001935788860151825594840194600190910190840162000172565b5085821015620001b25787850151600019600388901b60f8161c191681555b5050505050600190811b01905550565b611db080620001d26000396000f3fe608060405234801561001057600080fd5b50600436106102ac5760003560e01c8063759c9a861161017b578063aa3744bd116100d8578063da4bf0871161008c578063e99ce91111610071578063e99ce91114610445578063ef0d790f14610458578063f37faca81461046057600080fd5b8063da4bf08714610435578063dac4eb161461043d57600080fd5b8063d1e82b58116100bd578063d1e82b581461041d578063d1f2cd8814610425578063d5bee9f51461042d57600080fd5b8063aa3744bd146103f5578063af50a72f146103fd57600080fd5b80638c7408c41161012f5780638e3c2493116101145780638e3c2493146103ca578063a0cf0aea146103d2578063a407c67a146103ed57600080fd5b80638c7408c41461030d5780638e0d1a50146103c257600080fd5b80637b2edf32116101605780637b2edf32146103b25780637cbe79ed146103ba578063829e423f1461030d57600080fd5b8063759c9a86146103a257806379e62d0d146103aa57600080fd5b806337d1c404116102295780635aff5999116101dd5780636a38dd0a116101c25780636a38dd0a1461039257806370a329441461039a57806374d9284e1461030d57600080fd5b80635aff59991461038257806366d003ac1461038a57600080fd5b80633f26479e1161020e5780633f26479e1461035c5780634bf4ba2114610365578063587c12431461037a57600080fd5b806337d1c40414610333578063392f37e91461034657600080fd5b80630f166ad4116102805780631b96dce6116102655780631b96dce6146103145780631e7bcb2e1461031c5780632e0f26251461032457600080fd5b80630f166ad414610307578063174eedde1461030d57600080fd5b8062b1fad7146102b1578063030e4006146102d657806304486616146102de5780630688b135146102ff575b600080fd5b6102b9610473565b6040516001600160a01b0390911681526020015b60405180910390f35b6102b96104b8565b6102f16102ec3660046115a6565b6104f8565b6040519081526020016102cd565b6102b96106fd565b306102b9565b60006102b9565b6102b961073d565b6102b961077d565b6102f1670de0b6b3a764000081565b6102f161034136600461165c565b6107bd565b61034e6108a7565b6040516102cd929190611785565b6102f161271081565b61036d61093e565b6040516102cd91906117ea565b6102b9610961565b6102b96109a1565b6102b96109e1565b6102b9610a21565b61036d610a61565b6102b9610af9565b61036d610b39565b6102b9610ba1565b6102b9610be1565b6102b9610c21565b6102b9610c61565b6102b973eeeeeeeeeeeeeeeeeeeeeeeeeeeeeeeeeeeeeeee81565b61036d610ca1565b6102b9610d09565b61041061040b366004611804565b610d49565b6040516102cd91906118aa565b6102b9610e2a565b6102b9610e6a565b6102b9610eaa565b6102b9610eea565b6102b9610f2a565b6102f1610453366004611997565b610f6a565b6102b9611004565b6102f161046e3660046119c9565b611044565b60006104b36040518060400160405280600d81526020017f706f6f6c5f6d616e616765723100000000000000000000000000000000000000815250611073565b905090565b60006104b36040518060400160405280601381526020017f70726f66696c65315f6e6f74414d656d62657200000000000000000000000000815250611073565b6000806105088987878787610d49565b6040805160028082526060820183529293506000929091602083019080368337019050509050308160008151811061054257610542611a6d565b60200260200101906001600160a01b031690816001600160a01b031681525050338160018151811061057657610576611a6d565b6001600160a01b03928316602091820292909201015273eeeeeeeeeeeeeeeeeeeeeeeeeeeeeeeeeeeeeeee908916156105ac5750875b8c6001600160a01b031663e1007d4a6105cd8c6105c7610c21565b866107bd565b8e866040516020016105df91906118aa565b6040516020818303038152906040528560006009896040518863ffffffff1660e01b81526004016106169796959493929190611abd565b6020604051808303816000875af1158015610635573d6000803e3d6000fd5b505050506040513d601f19601f820116820180604052508101906106599190611bce565b935087600281111561066d5761066d611870565b8c6001600160a01b031663351d9f966040518163ffffffff1660e01b8152600401602060405180830381865afa1580156106ab573d6000803e3d6000fd5b505050506040513d601f19601f820116820180604052508101906106cf9190611be7565b60028111156106e0576106e0611870565b146106ed576106ed611c04565b5050509998505050505050505050565b60006104b36040518060400160405280600a81526020017f726563697069656e743200000000000000000000000000000000000000000000815250611073565b60006104b36040518060400160405280600e81526020017f70726f66696c65325f6f776e6572000000000000000000000000000000000000815250611073565b60006104b36040518060400160405280601081526020017f70726f66696c65315f6d656d6265723100000000000000000000000000000000815250611073565b600b5460009061089c576040805180820182526001815281518083018352600c81527f506f6f6c50726f66696c6531000000000000000000000000000000000000000060208281019190915282015290517f3a92f65f0000000000000000000000000000000000000000000000000000000081526001600160a01b03861691633a92f65f916108559160029188908890600401611c1a565b6020604051808303816000875af1158015610874573d6000803e3d6000fd5b505050506040513d601f19601f820116820180604052508101906108989190611bce565b600b555b50600b549392505050565b60098054600a80549192916108bb90611a83565b80601f01602080910402602001604051908101604052809291908181526020018280546108e790611a83565b80156109345780601f1061090957610100808354040283529160200191610934565b820191906000526020600020905b81548152906001019060200180831161091757829003601f168201915b5050505050905082565b604080516002808252606080830184529260208301908036833701905050905090565b60006104b36040518060400160405280601081526020017f70726f66696c65325f6d656d6265723100000000000000000000000000000000815250611073565b60006104b36040518060400160405280601081526020017f726563697069656e744164647265737300000000000000000000000000000000815250611073565b60006104b36040518060400160405280600981526020017f726563697069656e740000000000000000000000000000000000000000000000815250611073565b60006104b36040518060400160405280600d81526020017f706f6f6c5f6d616e616765723200000000000000000000000000000000000000815250611073565b60408051600280825260608083018452926000929190602083019080368337019050509050610a8e61077d565b81600081518110610aa157610aa1611a6d565b60200260200101906001600160a01b031690816001600160a01b031681525050610ac9610ba1565b81600181518110610adc57610adc611a6d565b6001600160a01b0390921660209283029190910190910152919050565b60006104b36040518060400160405280600c81526020017f6e6f5f726563697069656e740000000000000000000000000000000000000000815250611073565b60408051600280825260608083018452926000929190602083019080368337019050509050610b66610473565b81600081518110610b7957610b79611a6d565b60200260200101906001600160a01b031690816001600160a01b031681525050610ac9610a21565b60006104b36040518060400160405280601081526020017f70726f66696c65315f6d656d6265723200000000000000000000000000000000815250611073565b60006104b36040518060400160405280600a81526020017f616c6c6f5f6f776e657200000000000000000000000000000000000000000000815250611073565b60006104b36040518060400160405280600a81526020017f706f6f6c5f61646d696e00000000000000000000000000000000000000000000815250611073565b60006104b36040518060400160405280601081526020017f70726f66696c65325f6d656d6265723200000000000000000000000000000000815250611073565b60408051600280825260608083018452926000929190602083019080368337019050509050610cce610961565b81600081518110610ce157610ce1611a6d565b60200260200101906001600160a01b031690816001600160a01b031681525050610ac9610c61565b60006104b36040518060400160405280600a81526020017f726563697069656e743100000000000000000000000000000000000000000000815250611073565b610d5161138e565b610d62670de0a46bc207d800611085565b6020820152610d786702c68af0bb140000611085565b6040820152610d8d66038d7ea4c68000611085565b60608201526001600160a01b038616815260a08101856002811115610db457610db4611870565b90816002811115610dc757610dc7611870565b90525060c08101846003811115610de057610de0611870565b90816003811115610df357610df3611870565b9052508251600003610e1557610e12670de0b6b3a764000060c8611cc0565b83525b60e08101929092526101008201529392505050565b60006104b36040518060400160405280601081526020017f706f6f6c5f6e6f74414d616e6167657200000000000000000000000000000000815250611073565b60006104b36040518060400160405280600e81526020017f70726f66696c65315f6f776e6572000000000000000000000000000000000000815250611073565b60006104b36040518060400160405280600b81526020017f72616e646f6d2063686164000000000000000000000000000000000000000000815250611073565b60006104b36040518060400160405280600d81526020017f616c6c6f5f747265617375727900000000000000000000000000000000000000815250611073565b60006104b36040518060400160405280600e81526020017f72656769737472795f6f776e6572000000000000000000000000000000000000815250611073565b60008481610f88610f8262989680608087901b611cd7565b8361109c565b905060806f80000000000000000000000000000000610faa8662989680611cf9565b610fb884600160801b611cf9565b610fc5629896808a611cc0565b610fcf9190611cc0565b610fd99190611cd7565b610fe38985611cc0565b610fed9190611d0c565b610ff79190611d0c565b901c979650505050505050565b60006104b36040518060400160405280601381526020017f70726f66696c65325f6e6f74414d656d62657200000000000000000000000000815250611073565b600061106689898989898989604051806020016040528060008152508a6104f8565b9998505050505050505050565b600061107e8261114a565b5092915050565b600061109664174876e80083611cd7565b92915050565b6000600160801b83106110f65760405162461bcd60e51b815260206004820152601c60248201527f5f612073686f756c64206265206c657373207468616e20325e3132380000000060448201526064015b60405180910390fd5b50600160801b82825b801561114257806001166000036111245761111a828361128f565b915060011c6110ff565b61112e838361128f565b925061113b600182611cf9565b90506110ff565b505092915050565b6000808260405160200161115e9190611d1f565b60408051808303601f190181529082905280516020909101207fffa18649000000000000000000000000000000000000000000000000000000008252600482018190529150737109709ecfa91a80626ff3989d68f67f5b1dd12d9063ffa1864990602401602060405180830381865afa1580156111df573d6000803e3d6000fd5b505050506040513d601f19601f820116820180604052508101906112039190611d3b565b6040517fc657c718000000000000000000000000000000000000000000000000000000008152909250737109709ecfa91a80626ff3989d68f67f5b1dd12d9063c657c718906112589085908790600401611d58565b600060405180830381600087803b15801561127257600080fd5b505af1158015611286573d6000803e3d6000fd5b50505050915091565b6000600160801b83111561130b5760405162461bcd60e51b815260206004820152602860248201527f5f612073686f756c64206265206c657373207468616e206f7220657175616c2060448201527f746f20325e31323800000000000000000000000000000000000000000000000060648201526084016110ed565b600160801b821061135e5760405162461bcd60e51b815260206004820152601c60248201527f5f622073686f756c64206265206c657373207468616e20325e3132380000000060448201526064016110ed565b60806f8000000000000000000000000000000061137b8486611cc0565b6113859190611d0c565b901c9392505050565b60405180610140016040528060006001600160a01b0316815260200160008152602001600081526020016000815260200160008152602001600060028111156113d9576113d9611870565b8152602001600081526020016113fb6040518060200160405280600081525090565b81526040805160e08101825260008082526020828101829052928201819052606082018190526080820181905260a0820181905260c08201529101908152600060209091015290565b6001600160a01b038116811461145957600080fd5b50565b6003811061145957600080fd5b80356004811061147857600080fd5b919050565b634e487b7160e01b600052604160045260246000fd5b604051601f8201601f1916810167ffffffffffffffff811182821017156114bc576114bc61147d565b604052919050565b6000602082840312156114d657600080fd5b6040516020810181811067ffffffffffffffff821117156114f9576114f961147d565b6040529135825250919050565b600060e0828403121561151857600080fd5b60405160e0810181811067ffffffffffffffff8211171561153b5761153b61147d565b604052905080823561154c81611444565b8152602083013561155c81611444565b8060208301525060408301356040820152606083013560608201526080830135608082015260a083013560a082015260c083013561159981611444565b60c0919091015292915050565b60008060008060008060008060006101e08a8c0312156115c557600080fd5b89356115d081611444565b985060208a01356115e081611444565b975060408a01356115f081611444565b965060608a013561160081611444565b955060808a013561161081611444565b945060a08a01356116208161145c565b935061162e60c08b01611469565b925061163d8b60e08c016114c4565b915061164d8b6101008c01611506565b90509295985092959850929598565b60008060006060848603121561167157600080fd5b833561167c81611444565b925060208481013561168d81611444565b9250604085013567ffffffffffffffff808211156116aa57600080fd5b818701915087601f8301126116be57600080fd5b8135818111156116d0576116d061147d565b8060051b91506116e1848301611493565b818152918301840191848101908a8411156116fb57600080fd5b938501935b83851015611725578435925061171583611444565b8282529385019390850190611700565b8096505050505050509250925092565b60005b83811015611750578181015183820152602001611738565b50506000910152565b60008151808452611771816020860160208601611735565b601f01601f19169290920160200192915050565b82815260406020820152600061179e6040830184611759565b949350505050565b600081518084526020808501945080840160005b838110156117df5781516001600160a01b0316875295820195908201906001016117ba565b509495945050505050565b6020815260006117fd60208301846117a6565b9392505050565b6000806000806000610160868803121561181d57600080fd5b853561182881611444565b945060208601356118388161145c565b935061184660408701611469565b925061185587606088016114c4565b91506118648760808801611506565b90509295509295909350565b634e487b7160e01b600052602160045260246000fd5b6003811061189657611896611870565b9052565b6004811061189657611896611870565b81516001600160a01b0316815261020081016020830151602083015260408301516040830152606083015160608301526080830151608083015260a08301516118f660a0840182611886565b5060c083015161190960c084018261189a565b5060e083015161191c60e0840182519052565b506101008381015180516001600160a01b03908116858401526020820151811661012086015260408201516101408601526060820151610160860152608082015161018086015260a08201516101a086015260c0820151166101c085015250506101208301516001600160a01b0381166101e084015261107e565b600080600080608085870312156119ad57600080fd5b5050823594602084013594506040840135936060013592509050565b6000806000806000806000806101c0898b0312156119e657600080fd5b88356119f181611444565b97506020890135611a0181611444565b96506040890135611a1181611444565b95506060890135611a2181611444565b94506080890135611a3181611444565b935060a0890135611a418161145c565b9250611a4f60c08a01611469565b9150611a5e8a60e08b01611506565b90509295985092959890939650565b634e487b7160e01b600052603260045260246000fd5b600181811c90821680611a9757607f821691505b602082108103611ab757634e487b7160e01b600052602260045260246000fd5b50919050565b878152600060206001600160a01b03808a168285015260e06040850152611ae760e085018a611759565b818916606086015287608086015284810360a08601528654815260019150818701604084830152600081548181861c905085821680611b2757607f821691505b8782108103611b4457634e487b7160e01b84526022600452602484fd5b60408601829052606086019550808015611b655760018114611b7b57611ba6565b60ff198416875282151560051b87019450611ba6565b60008681526020902060005b84811015611ba057815489820152908901908a01611b87565b88019550505b5050505086810360c0880152611bbc81896117a6565b9e9d5050505050505050505050505050565b600060208284031215611be057600080fd5b5051919050565b600060208284031215611bf957600080fd5b81516117fd8161145c565b634e487b7160e01b600052600160045260246000fd5b84815260a06020820152600e60a08201527f506f6f6c2050726f66696c65203100000000000000000000000000000000000060c082015260e06040820152835160e0820152600060208501516040610100840152611c7c610120840182611759565b90506001600160a01b03851660608401528281036080840152611c9f81856117a6565b979650505050505050565b634e487b7160e01b600052601160045260246000fd5b808202811582820484141761109657611096611caa565b600082611cf457634e487b7160e01b600052601260045260246000fd5b500490565b8181038181111561109657611096611caa565b8082018082111561109657611096611caa565b60008251611d31818460208701611735565b9190910192915050565b600060208284031215611d4d57600080fd5b81516117fd81611444565b6001600160a01b038316815260406020820152600061179e604083018461175956fea2646970667358221220acba28fdcddab77e3d65334e972d7f2d9dd8b1b31d65b26a34b8ecf588a151e264736f6c63430008130033516d57347a464c464a524e374a3637457a4e6d64433272324d397532694a44686132666a3547656536684a7a5359","linkReferences":{}},"methodIdentifiers":{"DECIMALS()":"2e0f2625","NATIVE()":"a0cf0aea","PERCENTAGE_SCALE()":"3f26479e","_calculateConviction(uint256,uint256,uint256,uint256)":"e99ce911","allo_owner()":"7cbe79ed","allo_treasury()":"da4bf087","createPool(address,address,address,address,address,uint8,uint8,(address,address,uint256,uint256,uint256,uint256,address))":"f37faca8","createPool(address,address,address,address,address,uint8,uint8,(uint256),(address,address,uint256,uint256,uint256,uint256,address))":"04486616","getParams(address,uint8,uint8,(uint256),(address,address,uint256,uint256,uint256,uint256,address))":"af50a72f","local()":"0f166ad4","metadata()":"392f37e9","no_recipient()":"759c9a86","nullProfile_member1()":"829e423f","nullProfile_member2()":"8c7408c4","nullProfile_members()":"4bf4ba21","nullProfile_notAMember()":"174eedde","nullProfile_owner()":"74d9284e","poolProfile_id1(address,address,address[])":"37d1c404","pool_admin()":"8e0d1a50","pool_manager1()":"00b1fad7","pool_manager2()":"6a38dd0a","pool_managers()":"79e62d0d","pool_notAManager()":"d1e82b58","profile1_member1()":"1e7bcb2e","profile1_member2()":"7b2edf32","profile1_members()":"70a32944","profile1_notAMember()":"030e4006","profile1_owner()":"d1f2cd88","profile2_member1()":"587c1243","profile2_member2()":"8e3c2493","profile2_members()":"a407c67a","profile2_notAMember()":"ef0d790f","profile2_owner()":"1b96dce6","randomAddress()":"d5bee9f5","recipient()":"66d003ac","recipient1()":"aa3744bd","recipient2()":"0688b135","recipientAddress()":"5aff5999","registry_owner()":"dac4eb16"},"storageLayout":{"storage":[{"astId":9317,"contract":"pkg/contracts/test/CVStrategyHelpersV0_0.sol:CVStrategyHelpersV0_0","label":"gasMeteringOff","offset":0,"slot":"0","type":"t_bool"},{"astId":11354,"contract":"pkg/contracts/test/CVStrategyHelpersV0_0.sol:CVStrategyHelpersV0_0","label":"stdstore","offset":0,"slot":"1","type":"t_struct(StdStorage)13235_storage"},{"astId":91670,"contract":"pkg/contracts/test/CVStrategyHelpersV0_0.sol:CVStrategyHelpersV0_0","label":"metadata","offset":0,"slot":"9","type":"t_struct(Metadata)3098_storage"},{"astId":91682,"contract":"pkg/contracts/test/CVStrategyHelpersV0_0.sol:CVStrategyHelpersV0_0","label":"_poolProfileId1_","offset":0,"slot":"11","type":"t_bytes32"}],"types":{"t_address":{"encoding":"inplace","label":"address","numberOfBytes":"20"},"t_array(t_bytes32)dyn_storage":{"encoding":"dynamic_array","label":"bytes32[]","numberOfBytes":"32","base":"t_bytes32"},"t_bool":{"encoding":"inplace","label":"bool","numberOfBytes":"1"},"t_bytes32":{"encoding":"inplace","label":"bytes32","numberOfBytes":"32"},"t_bytes4":{"encoding":"inplace","label":"bytes4","numberOfBytes":"4"},"t_bytes_storage":{"encoding":"bytes","label":"bytes","numberOfBytes":"32"},"t_mapping(t_address,t_mapping(t_bytes4,t_mapping(t_bytes32,t_struct(FindData)13210_storage)))":{"encoding":"mapping","key":"t_address","label":"mapping(address => mapping(bytes4 => mapping(bytes32 => struct FindData)))","numberOfBytes":"32","value":"t_mapping(t_bytes4,t_mapping(t_bytes32,t_struct(FindData)13210_storage))"},"t_mapping(t_bytes32,t_struct(FindData)13210_storage)":{"encoding":"mapping","key":"t_bytes32","label":"mapping(bytes32 => struct FindData)","numberOfBytes":"32","value":"t_struct(FindData)13210_storage"},"t_mapping(t_bytes4,t_mapping(t_bytes32,t_struct(FindData)13210_storage))":{"encoding":"mapping","key":"t_bytes4","label":"mapping(bytes4 => mapping(bytes32 => struct FindData))","numberOfBytes":"32","value":"t_mapping(t_bytes32,t_struct(FindData)13210_storage)"},"t_string_storage":{"encoding":"bytes","label":"string","numberOfBytes":"32"},"t_struct(FindData)13210_storage":{"encoding":"inplace","label":"struct FindData","numberOfBytes":"128","members":[{"astId":13203,"contract":"pkg/contracts/test/CVStrategyHelpersV0_0.sol:CVStrategyHelpersV0_0","label":"slot","offset":0,"slot":"0","type":"t_uint256"},{"astId":13205,"contract":"pkg/contracts/test/CVStrategyHelpersV0_0.sol:CVStrategyHelpersV0_0","label":"offsetLeft","offset":0,"slot":"1","type":"t_uint256"},{"astId":13207,"contract":"pkg/contracts/test/CVStrategyHelpersV0_0.sol:CVStrategyHelpersV0_0","label":"offsetRight","offset":0,"slot":"2","type":"t_uint256"},{"astId":13209,"contract":"pkg/contracts/test/CVStrategyHelpersV0_0.sol:CVStrategyHelpersV0_0","label":"found","offset":0,"slot":"3","type":"t_bool"}]},"t_struct(Metadata)3098_storage":{"encoding":"inplace","label":"struct Metadata","numberOfBytes":"64","members":[{"astId":3094,"contract":"pkg/contracts/test/CVStrategyHelpersV0_0.sol:CVStrategyHelpersV0_0","label":"protocol","offset":0,"slot":"0","type":"t_uint256"},{"astId":3097,"contract":"pkg/contracts/test/CVStrategyHelpersV0_0.sol:CVStrategyHelpersV0_0","label":"pointer","offset":0,"slot":"1","type":"t_string_storage"}]},"t_struct(StdStorage)13235_storage":{"encoding":"inplace","label":"struct StdStorage","numberOfBytes":"256","members":[{"astId":13219,"contract":"pkg/contracts/test/CVStrategyHelpersV0_0.sol:CVStrategyHelpersV0_0","label":"finds","offset":0,"slot":"0","type":"t_mapping(t_address,t_mapping(t_bytes4,t_mapping(t_bytes32,t_struct(FindData)13210_storage)))"},{"astId":13222,"contract":"pkg/contracts/test/CVStrategyHelpersV0_0.sol:CVStrategyHelpersV0_0","label":"_keys","offset":0,"slot":"1","type":"t_array(t_bytes32)dyn_storage"},{"astId":13224,"contract":"pkg/contracts/test/CVStrategyHelpersV0_0.sol:CVStrategyHelpersV0_0","label":"_sig","offset":0,"slot":"2","type":"t_bytes4"},{"astId":13226,"contract":"pkg/contracts/test/CVStrategyHelpersV0_0.sol:CVStrategyHelpersV0_0","label":"_depth","offset":0,"slot":"3","type":"t_uint256"},{"astId":13228,"contract":"pkg/contracts/test/CVStrategyHelpersV0_0.sol:CVStrategyHelpersV0_0","label":"_target","offset":0,"slot":"4","type":"t_address"},{"astId":13230,"contract":"pkg/contracts/test/CVStrategyHelpersV0_0.sol:CVStrategyHelpersV0_0","label":"_set","offset":0,"slot":"5","type":"t_bytes32"},{"astId":13232,"contract":"pkg/contracts/test/CVStrategyHelpersV0_0.sol:CVStrategyHelpersV0_0","label":"_enable_packed_slots","offset":0,"slot":"6","type":"t_bool"},{"astId":13234,"contract":"pkg/contracts/test/CVStrategyHelpersV0_0.sol:CVStrategyHelpersV0_0","label":"_calldata","offset":0,"slot":"7","type":"t_bytes_storage"}]},"t_uint256":{"encoding":"inplace","label":"uint256","numberOfBytes":"32"}}},"id":147}