{"abi":[{"type":"function","name":"COUNCIL_MEMBER","inputs":[],"outputs":[{"name":"","type":"bytes32","internalType":"bytes32"}],"stateMutability":"view"},{"type":"function","name":"DEFAULT_ADMIN_ROLE","inputs":[],"outputs":[{"name":"","type":"bytes32","internalType":"bytes32"}],"stateMutability":"view"},{"type":"function","name":"MAX_FEE","inputs":[],"outputs":[{"name":"","type":"uint256","internalType":"uint256"}],"stateMutability":"view"},{"type":"function","name":"NATIVE","inputs":[],"outputs":[{"name":"","type":"address","internalType":"address"}],"stateMutability":"view"},{"type":"function","name":"PRECISION_SCALE","inputs":[],"outputs":[{"name":"","type":"uint256","internalType":"uint256"}],"stateMutability":"view"},{"type":"function","name":"VERSION","inputs":[],"outputs":[{"name":"","type":"string","internalType":"string"}],"stateMutability":"view"},{"type":"function","name":"acceptCouncilSafe","inputs":[],"outputs":[],"stateMutability":"nonpayable"},{"type":"function","name":"activateMemberInStrategy","inputs":[{"name":"_member","type":"address","internalType":"address"},{"name":"_strategy","type":"address","internalType":"address"}],"outputs":[],"stateMutability":"nonpayable"},{"type":"function","name":"addStrategy","inputs":[{"name":"_newStrategy","type":"address","internalType":"address"}],"outputs":[],"stateMutability":"nonpayable"},{"type":"function","name":"addStrategyByPoolId","inputs":[{"name":"poolId","type":"uint256","internalType":"uint256"}],"outputs":[],"stateMutability":"nonpayable"},{"type":"function","name":"addressToMemberInfo","inputs":[{"name":"member","type":"address","internalType":"address"}],"outputs":[{"name":"member","type":"address","internalType":"address"},{"name":"stakedAmount","type":"uint256","internalType":"uint256"},{"name":"isRegistered","type":"bool","internalType":"bool"}],"stateMutability":"view"},{"type":"function","name":"allo","inputs":[],"outputs":[{"name":"","type":"address","internalType":"contract FAllo"}],"stateMutability":"view"},{"type":"function","name":"cloneNonce","inputs":[],"outputs":[{"name":"","type":"uint256","internalType":"uint256"}],"stateMutability":"view"},{"type":"function","name":"collateralVaultTemplate","inputs":[],"outputs":[{"name":"","type":"address","internalType":"address"}],"stateMutability":"view"},{"type":"function","name":"communityFee","inputs":[],"outputs":[{"name":"","type":"uint256","internalType":"uint256"}],"stateMutability":"view"},{"type":"function","name":"communityName","inputs":[],"outputs":[{"name":"","type":"string","internalType":"string"}],"stateMutability":"view"},{"type":"function","name":"councilSafe","inputs":[],"outputs":[{"name":"","type":"address","internalType":"contract ISafe"}],"stateMutability":"view"},{"type":"function","name":"covenantIpfsHash","inputs":[],"outputs":[{"name":"","type":"string","internalType":"string"}],"stateMutability":"view"},{"type":"function","name":"createPool","inputs":[{"name":"_token","type":"address","internalType":"address"},{"name":"_params","type":"tuple","internalType":"struct CVStrategyInitializeParamsV0_1","components":[{"name":"cvParams","type":"tuple","internalType":"struct CVParams","components":[{"name":"maxRatio","type":"uint256","internalType":"uint256"},{"name":"weight","type":"uint256","internalType":"uint256"},{"name":"decay","type":"uint256","internalType":"uint256"},{"name":"minThresholdPoints","type":"uint256","internalType":"uint256"}]},{"name":"proposalType","type":"uint8","internalType":"enum ProposalType"},{"name":"pointSystem","type":"uint8","internalType":"enum PointSystem"},{"name":"pointConfig","type":"tuple","internalType":"struct PointSystemConfig","components":[{"name":"maxAmount","type":"uint256","internalType":"uint256"}]},{"name":"arbitrableConfig","type":"tuple","internalType":"struct ArbitrableConfig","components":[{"name":"arbitrator","type":"address","internalType":"contract IArbitrator"},{"name":"tribunalSafe","type":"address","internalType":"address"},{"name":"submitterCollateralAmount","type":"uint256","internalType":"uint256"},{"name":"challengerCollateralAmount","type":"uint256","internalType":"uint256"},{"name":"defaultRuling","type":"uint256","internalType":"uint256"},{"name":"defaultRulingTimeout","type":"uint256","internalType":"uint256"}]},{"name":"registryCommunity","type":"address","internalType":"address"},{"name":"sybilScorer","type":"address","internalType":"address"},{"name":"sybilScorerThreshold","type":"uint256","internalType":"uint256"},{"name":"initialAllowlist","type":"address[]","internalType":"address[]"}]},{"name":"_metadata","type":"tuple","internalType":"struct Metadata","components":[{"name":"protocol","type":"uint256","internalType":"uint256"},{"name":"pointer","type":"string","internalType":"string"}]}],"outputs":[{"name":"poolId","type":"uint256","internalType":"uint256"},{"name":"strategy","type":"address","internalType":"address"}],"stateMutability":"nonpayable"},{"type":"function","name":"createPool","inputs":[{"name":"_strategy","type":"address","internalType":"address"},{"name":"_token","type":"address","internalType":"address"},{"name":"_params","type":"tuple","internalType":"struct CVStrategyInitializeParamsV0_1","components":[{"name":"cvParams","type":"tuple","internalType":"struct CVParams","components":[{"name":"maxRatio","type":"uint256","internalType":"uint256"},{"name":"weight","type":"uint256","internalType":"uint256"},{"name":"decay","type":"uint256","internalType":"uint256"},{"name":"minThresholdPoints","type":"uint256","internalType":"uint256"}]},{"name":"proposalType","type":"uint8","internalType":"enum ProposalType"},{"name":"pointSystem","type":"uint8","internalType":"enum PointSystem"},{"name":"pointConfig","type":"tuple","internalType":"struct PointSystemConfig","components":[{"name":"maxAmount","type":"uint256","internalType":"uint256"}]},{"name":"arbitrableConfig","type":"tuple","internalType":"struct ArbitrableConfig","components":[{"name":"arbitrator","type":"address","internalType":"contract IArbitrator"},{"name":"tribunalSafe","type":"address","internalType":"address"},{"name":"submitterCollateralAmount","type":"uint256","internalType":"uint256"},{"name":"challengerCollateralAmount","type":"uint256","internalType":"uint256"},{"name":"defaultRuling","type":"uint256","internalType":"uint256"},{"name":"defaultRulingTimeout","type":"uint256","internalType":"uint256"}]},{"name":"registryCommunity","type":"address","internalType":"address"},{"name":"sybilScorer","type":"address","internalType":"address"},{"name":"sybilScorerThreshold","type":"uint256","internalType":"uint256"},{"name":"initialAllowlist","type":"address[]","internalType":"address[]"}]},{"name":"_metadata","type":"tuple","internalType":"struct Metadata","components":[{"name":"protocol","type":"uint256","internalType":"uint256"},{"name":"pointer","type":"string","internalType":"string"}]}],"outputs":[{"name":"poolId","type":"uint256","internalType":"uint256"},{"name":"strategy","type":"address","internalType":"address"}],"stateMutability":"nonpayable"},{"type":"function","name":"deactivateMemberInStrategy","inputs":[{"name":"_member","type":"address","internalType":"address"},{"name":"_strategy","type":"address","internalType":"address"}],"outputs":[],"stateMutability":"nonpayable"},{"type":"function","name":"decreasePower","inputs":[{"name":"_amountUnstaked","type":"uint256","internalType":"uint256"}],"outputs":[],"stateMutability":"nonpayable"},{"type":"function","name":"enabledStrategies","inputs":[{"name":"strategy","type":"address","internalType":"address"}],"outputs":[{"name":"isEnabled","type":"bool","internalType":"bool"}],"stateMutability":"view"},{"type":"function","name":"feeReceiver","inputs":[],"outputs":[{"name":"","type":"address","internalType":"address"}],"stateMutability":"view"},{"type":"function","name":"gardenToken","inputs":[],"outputs":[{"name":"","type":"address","internalType":"contract IERC20"}],"stateMutability":"view"},{"type":"function","name":"getBasisStakedAmount","inputs":[],"outputs":[{"name":"","type":"uint256","internalType":"uint256"}],"stateMutability":"view"},{"type":"function","name":"getMemberPowerInStrategy","inputs":[{"name":"_member","type":"address","internalType":"address"},{"name":"_strategy","type":"address","internalType":"address"}],"outputs":[{"name":"","type":"uint256","internalType":"uint256"}],"stateMutability":"view"},{"type":"function","name":"getMemberStakedAmount","inputs":[{"name":"_member","type":"address","internalType":"address"}],"outputs":[{"name":"","type":"uint256","internalType":"uint256"}],"stateMutability":"view"},{"type":"function","name":"getRoleAdmin","inputs":[{"name":"role","type":"bytes32","internalType":"bytes32"}],"outputs":[{"name":"","type":"bytes32","internalType":"bytes32"}],"stateMutability":"view"},{"type":"function","name":"getStakeAmountWithFees","inputs":[],"outputs":[{"name":"","type":"uint256","internalType":"uint256"}],"stateMutability":"view"},{"type":"function","name":"grantRole","inputs":[{"name":"role","type":"bytes32","internalType":"bytes32"},{"name":"account","type":"address","internalType":"address"}],"outputs":[],"stateMutability":"nonpayable"},{"type":"function","name":"hasRole","inputs":[{"name":"role","type":"bytes32","internalType":"bytes32"},{"name":"account","type":"address","internalType":"address"}],"outputs":[{"name":"","type":"bool","internalType":"bool"}],"stateMutability":"view"},{"type":"function","name":"increasePower","inputs":[{"name":"_amountStaked","type":"uint256","internalType":"uint256"}],"outputs":[],"stateMutability":"nonpayable"},{"type":"function","name":"initialize","inputs":[{"name":"params","type":"tuple","internalType":"struct RegistryCommunityInitializeParamsV0_0","components":[{"name":"_allo","type":"address","internalType":"address"},{"name":"_gardenToken","type":"address","internalType":"contract IERC20"},{"name":"_registerStakeAmount","type":"uint256","internalType":"uint256"},{"name":"_communityFee","type":"uint256","internalType":"uint256"},{"name":"_nonce","type":"uint256","internalType":"uint256"},{"name":"_registryFactory","type":"address","internalType":"address"},{"name":"_feeReceiver","type":"address","internalType":"address"},{"name":"_metadata","type":"tuple","internalType":"struct Metadata","components":[{"name":"protocol","type":"uint256","internalType":"uint256"},{"name":"pointer","type":"string","internalType":"string"}]},{"name":"_councilSafe","type":"address","internalType":"address payable"},{"name":"_communityName","type":"string","internalType":"string"},{"name":"_isKickEnabled","type":"bool","internalType":"bool"},{"name":"covenantIpfsHash","type":"string","internalType":"string"}]},{"name":"_strategyTemplate","type":"address","internalType":"address"},{"name":"_collateralVaultTemplate","type":"address","internalType":"address"},{"name":"_owner","type":"address","internalType":"address"}],"outputs":[],"stateMutability":"nonpayable"},{"type":"function","name":"initialize","inputs":[{"name":"initialOwner","type":"address","internalType":"address"}],"outputs":[],"stateMutability":"nonpayable"},{"type":"function","name":"isCouncilMember","inputs":[{"name":"_member","type":"address","internalType":"address"}],"outputs":[{"name":"","type":"bool","internalType":"bool"}],"stateMutability":"view"},{"type":"function","name":"isKickEnabled","inputs":[],"outputs":[{"name":"","type":"bool","internalType":"bool"}],"stateMutability":"view"},{"type":"function","name":"isMember","inputs":[{"name":"_member","type":"address","internalType":"address"}],"outputs":[{"name":"","type":"bool","internalType":"bool"}],"stateMutability":"view"},{"type":"function","name":"kickMember","inputs":[{"name":"_member","type":"address","internalType":"address"},{"name":"_transferAddress","type":"address","internalType":"address"}],"outputs":[],"stateMutability":"nonpayable"},{"type":"function","name":"memberActivatedInStrategies","inputs":[{"name":"member","type":"address","internalType":"address"},{"name":"strategy","type":"address","internalType":"address"}],"outputs":[{"name":"isActivated","type":"bool","internalType":"bool"}],"stateMutability":"view"},{"type":"function","name":"memberPowerInStrategy","inputs":[{"name":"strategy","type":"address","internalType":"address"},{"name":"member","type":"address","internalType":"address"}],"outputs":[{"name":"power","type":"uint256","internalType":"uint256"}],"stateMutability":"view"},{"type":"function","name":"onlyStrategyEnabled","inputs":[{"name":"_strategy","type":"address","internalType":"address"}],"outputs":[],"stateMutability":"view"},{"type":"function","name":"owner","inputs":[],"outputs":[{"name":"","type":"address","internalType":"address"}],"stateMutability":"view"},{"type":"function","name":"pendingCouncilSafe","inputs":[],"outputs":[{"name":"","type":"address","internalType":"address payable"}],"stateMutability":"view"},{"type":"function","name":"profileId","inputs":[],"outputs":[{"name":"","type":"bytes32","internalType":"bytes32"}],"stateMutability":"view"},{"type":"function","name":"proxiableUUID","inputs":[],"outputs":[{"name":"","type":"bytes32","internalType":"bytes32"}],"stateMutability":"view"},{"type":"function","name":"proxyOwner","inputs":[],"outputs":[{"name":"","type":"address","internalType":"address"}],"stateMutability":"view"},{"type":"function","name":"registerStakeAmount","inputs":[],"outputs":[{"name":"","type":"uint256","internalType":"uint256"}],"stateMutability":"view"},{"type":"function","name":"registry","inputs":[],"outputs":[{"name":"","type":"address","internalType":"contract IRegistry"}],"stateMutability":"view"},{"type":"function","name":"registryFactory","inputs":[],"outputs":[{"name":"","type":"address","internalType":"address"}],"stateMutability":"view"},{"type":"function","name":"rejectPool","inputs":[{"name":"_strategy","type":"address","internalType":"address"}],"outputs":[],"stateMutability":"nonpayable"},{"type":"function","name":"removeStrategy","inputs":[{"name":"_strategy","type":"address","internalType":"address"}],"outputs":[],"stateMutability":"nonpayable"},{"type":"function","name":"removeStrategyByPoolId","inputs":[{"name":"poolId","type":"uint256","internalType":"uint256"}],"outputs":[],"stateMutability":"nonpayable"},{"type":"function","name":"renounceOwnership","inputs":[],"outputs":[],"stateMutability":"nonpayable"},{"type":"function","name":"renounceRole","inputs":[{"name":"role","type":"bytes32","internalType":"bytes32"},{"name":"account","type":"address","internalType":"address"}],"outputs":[],"stateMutability":"nonpayable"},{"type":"function","name":"revokeRole","inputs":[{"name":"role","type":"bytes32","internalType":"bytes32"},{"name":"account","type":"address","internalType":"address"}],"outputs":[],"stateMutability":"nonpayable"},{"type":"function","name":"setBasisStakedAmount","inputs":[{"name":"_newAmount","type":"uint256","internalType":"uint256"}],"outputs":[],"stateMutability":"nonpayable"},{"type":"function","name":"setCollateralVaultTemplate","inputs":[{"name":"template","type":"address","internalType":"address"}],"outputs":[],"stateMutability":"nonpayable"},{"type":"function","name":"setCommunityFee","inputs":[{"name":"_newCommunityFee","type":"uint256","internalType":"uint256"}],"outputs":[],"stateMutability":"nonpayable"},{"type":"function","name":"setCommunityParams","inputs":[{"name":"_params","type":"tuple","internalType":"struct CommunityParams","components":[{"name":"councilSafe","type":"address","internalType":"address"},{"name":"feeReceiver","type":"address","internalType":"address"},{"name":"communityFee","type":"uint256","internalType":"uint256"},{"name":"communityName","type":"string","internalType":"string"},{"name":"registerStakeAmount","type":"uint256","internalType":"uint256"},{"name":"isKickEnabled","type":"bool","internalType":"bool"},{"name":"covenantIpfsHash","type":"string","internalType":"string"}]}],"outputs":[],"stateMutability":"nonpayable"},{"type":"function","name":"setCouncilSafe","inputs":[{"name":"_safe","type":"address","internalType":"address payable"}],"outputs":[],"stateMutability":"nonpayable"},{"type":"function","name":"setStrategyTemplate","inputs":[{"name":"template","type":"address","internalType":"address"}],"outputs":[],"stateMutability":"nonpayable"},{"type":"function","name":"stakeAndRegisterMember","inputs":[{"name":"covenantSig","type":"string","internalType":"string"}],"outputs":[],"stateMutability":"nonpayable"},{"type":"function","name":"strategiesByMember","inputs":[{"name":"member","type":"address","internalType":"address"},{"name":"","type":"uint256","internalType":"uint256"}],"outputs":[{"name":"strategiesAddresses","type":"address","internalType":"address"}],"stateMutability":"view"},{"type":"function","name":"strategyTemplate","inputs":[],"outputs":[{"name":"","type":"address","internalType":"address"}],"stateMutability":"view"},{"type":"function","name":"supportsInterface","inputs":[{"name":"interfaceId","type":"bytes4","internalType":"bytes4"}],"outputs":[{"name":"","type":"bool","internalType":"bool"}],"stateMutability":"view"},{"type":"function","name":"totalMembers","inputs":[],"outputs":[{"name":"","type":"uint256","internalType":"uint256"}],"stateMutability":"view"},{"type":"function","name":"transferOwnership","inputs":[{"name":"newOwner","type":"address","internalType":"address"}],"outputs":[],"stateMutability":"nonpayable"},{"type":"function","name":"unregisterMember","inputs":[],"outputs":[],"stateMutability":"nonpayable"},{"type":"function","name":"upgradeTo","inputs":[{"name":"newImplementation","type":"address","internalType":"address"}],"outputs":[],"stateMutability":"nonpayable"},{"type":"function","name":"upgradeToAndCall","inputs":[{"name":"newImplementation","type":"address","internalType":"address"},{"name":"data","type":"bytes","internalType":"bytes"}],"outputs":[],"stateMutability":"payable"},{"type":"event","name":"AdminChanged","inputs":[{"name":"previousAdmin","type":"address","indexed":false,"internalType":"address"},{"name":"newAdmin","type":"address","indexed":false,"internalType":"address"}],"anonymous":false},{"type":"event","name":"BasisStakedAmountUpdated","inputs":[{"name":"_newAmount","type":"uint256","indexed":false,"internalType":"uint256"}],"anonymous":false},{"type":"event","name":"BeaconUpgraded","inputs":[{"name":"beacon","type":"address","indexed":true,"internalType":"address"}],"anonymous":false},{"type":"event","name":"CommunityFeeUpdated","inputs":[{"name":"_newFee","type":"uint256","indexed":false,"internalType":"uint256"}],"anonymous":false},{"type":"event","name":"CommunityNameUpdated","inputs":[{"name":"_communityName","type":"string","indexed":false,"internalType":"string"}],"anonymous":false},{"type":"event","name":"CouncilSafeChangeStarted","inputs":[{"name":"_safeOwner","type":"address","indexed":false,"internalType":"address"},{"name":"_newSafeOwner","type":"address","indexed":false,"internalType":"address"}],"anonymous":false},{"type":"event","name":"CouncilSafeUpdated","inputs":[{"name":"_safe","type":"address","indexed":false,"internalType":"address"}],"anonymous":false},{"type":"event","name":"CovenantIpfsHashUpdated","inputs":[{"name":"_covenantIpfsHash","type":"string","indexed":false,"internalType":"string"}],"anonymous":false},{"type":"event","name":"FeeReceiverChanged","inputs":[{"name":"_feeReceiver","type":"address","indexed":false,"internalType":"address"}],"anonymous":false},{"type":"event","name":"Initialized","inputs":[{"name":"version","type":"uint8","indexed":false,"internalType":"uint8"}],"anonymous":false},{"type":"event","name":"KickEnabledUpdated","inputs":[{"name":"_isKickEnabled","type":"bool","indexed":false,"internalType":"bool"}],"anonymous":false},{"type":"event","name":"MemberActivatedStrategy","inputs":[{"name":"_member","type":"address","indexed":false,"internalType":"address"},{"name":"_strategy","type":"address","indexed":false,"internalType":"address"},{"name":"_pointsToIncrease","type":"uint256","indexed":false,"internalType":"uint256"}],"anonymous":false},{"type":"event","name":"MemberDeactivatedStrategy","inputs":[{"name":"_member","type":"address","indexed":false,"internalType":"address"},{"name":"_strategy","type":"address","indexed":false,"internalType":"address"}],"anonymous":false},{"type":"event","name":"MemberKicked","inputs":[{"name":"_member","type":"address","indexed":false,"internalType":"address"},{"name":"_transferAddress","type":"address","indexed":false,"internalType":"address"},{"name":"_amountReturned","type":"uint256","indexed":false,"internalType":"uint256"}],"anonymous":false},{"type":"event","name":"MemberPowerDecreased","inputs":[{"name":"_member","type":"address","indexed":false,"internalType":"address"},{"name":"_unstakedAmount","type":"uint256","indexed":false,"internalType":"uint256"}],"anonymous":false},{"type":"event","name":"MemberPowerIncreased","inputs":[{"name":"_member","type":"address","indexed":false,"internalType":"address"},{"name":"_stakedAmount","type":"uint256","indexed":false,"internalType":"uint256"}],"anonymous":false},{"type":"event","name":"MemberRegistered","inputs":[{"name":"_member","type":"address","indexed":false,"internalType":"address"},{"name":"_amountStaked","type":"uint256","indexed":false,"internalType":"uint256"}],"anonymous":false},{"type":"event","name":"MemberRegisteredWithCovenant","inputs":[{"name":"_member","type":"address","indexed":false,"internalType":"address"},{"name":"_amountStaked","type":"uint256","indexed":false,"internalType":"uint256"},{"name":"_covenantSig","type":"string","indexed":false,"internalType":"string"}],"anonymous":false},{"type":"event","name":"MemberUnregistered","inputs":[{"name":"_member","type":"address","indexed":false,"internalType":"address"},{"name":"_amountReturned","type":"uint256","indexed":false,"internalType":"uint256"}],"anonymous":false},{"type":"event","name":"OwnershipTransferred","inputs":[{"name":"previousOwner","type":"address","indexed":true,"internalType":"address"},{"name":"newOwner","type":"address","indexed":true,"internalType":"address"}],"anonymous":false},{"type":"event","name":"PoolCreated","inputs":[{"name":"_poolId","type":"uint256","indexed":false,"internalType":"uint256"},{"name":"_strategy","type":"address","indexed":false,"internalType":"address"},{"name":"_community","type":"address","indexed":false,"internalType":"address"},{"name":"_token","type":"address","indexed":false,"internalType":"address"},{"name":"_metadata","type":"tuple","indexed":false,"internalType":"struct Metadata","components":[{"name":"protocol","type":"uint256","internalType":"uint256"},{"name":"pointer","type":"string","internalType":"string"}]}],"anonymous":false},{"type":"event","name":"PoolRejected","inputs":[{"name":"_strategy","type":"address","indexed":false,"internalType":"address"}],"anonymous":false},{"type":"event","name":"RegistryInitialized","inputs":[{"name":"_profileId","type":"bytes32","indexed":false,"internalType":"bytes32"},{"name":"_communityName","type":"string","indexed":false,"internalType":"string"},{"name":"_metadata","type":"tuple","indexed":false,"internalType":"struct Metadata","components":[{"name":"protocol","type":"uint256","internalType":"uint256"},{"name":"pointer","type":"string","internalType":"string"}]}],"anonymous":false},{"type":"event","name":"RoleAdminChanged","inputs":[{"name":"role","type":"bytes32","indexed":true,"internalType":"bytes32"},{"name":"previousAdminRole","type":"bytes32","indexed":true,"internalType":"bytes32"},{"name":"newAdminRole","type":"bytes32","indexed":true,"internalType":"bytes32"}],"anonymous":false},{"type":"event","name":"RoleGranted","inputs":[{"name":"role","type":"bytes32","indexed":true,"internalType":"bytes32"},{"name":"account","type":"address","indexed":true,"internalType":"address"},{"name":"sender","type":"address","indexed":true,"internalType":"address"}],"anonymous":false},{"type":"event","name":"RoleRevoked","inputs":[{"name":"role","type":"bytes32","indexed":true,"internalType":"bytes32"},{"name":"account","type":"address","indexed":true,"internalType":"address"},{"name":"sender","type":"address","indexed":true,"internalType":"address"}],"anonymous":false},{"type":"event","name":"StrategyAdded","inputs":[{"name":"_strategy","type":"address","indexed":false,"internalType":"address"}],"anonymous":false},{"type":"event","name":"StrategyRemoved","inputs":[{"name":"_strategy","type":"address","indexed":false,"internalType":"address"}],"anonymous":false},{"type":"event","name":"Upgraded","inputs":[{"name":"implementation","type":"address","indexed":true,"internalType":"address"}],"anonymous":false},{"type":"error","name":"AllowlistTooBig","inputs":[{"name":"size","type":"uint256","internalType":"uint256"}]},{"type":"error","name":"CallerNotOwner","inputs":[{"name":"_caller","type":"address","internalType":"address"},{"name":"_owner","type":"address","internalType":"address"}]},{"type":"error","name":"CantDecreaseMoreThanPower","inputs":[{"name":"_decreaseAmount","type":"uint256","internalType":"uint256"},{"name":"_currentPower","type":"uint256","internalType":"uint256"}]},{"type":"error","name":"DecreaseUnderMinimum","inputs":[]},{"type":"error","name":"KickNotEnabled","inputs":[]},{"type":"error","name":"NewFeeGreaterThanMax","inputs":[]},{"type":"error","name":"OnlyEmptyCommunity","inputs":[{"name":"totalMembers","type":"uint256","internalType":"uint256"}]},{"type":"error","name":"PointsDeactivated","inputs":[]},{"type":"error","name":"SenderNotNewOwner","inputs":[]},{"type":"error","name":"SenderNotStrategy","inputs":[]},{"type":"error","name":"StrategyDisabled","inputs":[]},{"type":"error","name":"StrategyExists","inputs":[]},{"type":"error","name":"UserAlreadyActivated","inputs":[]},{"type":"error","name":"UserAlreadyDeactivated","inputs":[]},{"type":"error","name":"UserNotInCouncil","inputs":[{"name":"_user","type":"address","internalType":"address"}]},{"type":"error","name":"UserNotInRegistry","inputs":[]},{"type":"error","name":"ValueCannotBeZero","inputs":[]}],"bytecode":{"object":"0x60a06040523060805234801561001457600080fd5b506080516160e76200004d60003960008181611c2901528181611c6c01528181611d9701528181611dda0152611e5b01526160e76000f3fe608060405260043610620003685760003560e01c806301ffc9a7146200036d578063025313a214620003a75780630331383c14620003ce57806308386eba14620003ef5780630d12bbdb14620004075780630d4a8b49146200042e578063175188e814620004535780631b71f0e414620004785780631f787d28146200049d578063223e547914620004b857806322bcf99914620004dd578063248a9ca3146200050257806328c309e914620005275780632b38c69c146200053f5780632c611c4a14620005645780632f2ff15d14620005a257806331f61bca14620005c75780633396045914620005ec57806334196355146200060457806336568abe14620006295780633659cfe6146200064e578063397e254314620006735780633a871fe11462000698578063411481e614620006cd578063477a5cc014620006f25780634f1ef286146200073257806352d1902d1462000749578063559de05d14620007615780635c94e4d214620007865780635ecf71c514620007a957806365e3864c14620007ce5780636871eb4d146200080b57806368decabb14620008305780636c53db9a1462000853578063715018a6146200087657806373265c37146200088e578063733a2d1f14620008b357806376e9255914620008d857806377122d5614620008f15780637817ee4f146200091457806378a0b8a9146200095f5780637b103999146200097757806382d6a1e7146200099a57806388cfe68414620009bf5780638961be6b1462000a355780638da5cb5b1462000a4d57806391d148541462000a655780639a1f46e21462000a8a578063a0cf0aea1462000aaf578063a217fddf1462000ad9578063a230c5241462000af0578063b0d3713a1462000b15578063b3f006741462000b3a578063b5058c501462000b61578063b64e39af1462000b79578063b99b43701462000ba0578063bc063e1a1462000bb8578063c4d66de81462000bd0578063c6d572ae1462000bf5578063d547741f1462000c0d578063d6d8428d1462000c32578063d7050f071462000c55578063db61d65c1462000c6d578063e0eab9881462000c90578063ebd7dc521462000cd3578063f24b150f1462000cf8578063f2d774e71462000d1d578063f2fde38b1462000d42578063f86c5f891462000d67578063fb1f69171462000d8a578063ffa1ad741462000daf575b600080fd5b3480156200037a57600080fd5b50620003926200038c366004620045a2565b62000de0565b60405190151581526020015b60405180910390f35b348015620003b457600080fd5b50620003bf62000e18565b6040516200039e9190620045db565b348015620003db57600080fd5b5060fb545b6040519081526020016200039e565b348015620003fc57600080fd5b50620003e060fe5481565b3480156200041457600080fd5b506200042c62000426366004620045ef565b62000e32565b005b3480156200043b57600080fd5b506200042c6200044d3660046200462c565b62000ea8565b3480156200046057600080fd5b506200042c620004723660046200466a565b6200122c565b3480156200048557600080fd5b506200042c620004973660046200466a565b62001244565b348015620004aa57600080fd5b5060ff805462000392911681565b348015620004c557600080fd5b506200042c620004d73660046200466a565b62001271565b348015620004ea57600080fd5b506200042c620004fc3660046200462c565b62001286565b3480156200050f57600080fd5b50620003e062000521366004620045ef565b62001375565b3480156200053457600080fd5b50620003e06200138a565b3480156200054c57600080fd5b50620003bf6200055e3660046200468a565b62001485565b3480156200057157600080fd5b50620003e0620005833660046200466a565b6001600160a01b0316600090815261010c602052604090206001015490565b348015620005af57600080fd5b506200042c620005c1366004620046b9565b620014bf565b348015620005d457600080fd5b506200042c620005e6366004620045ef565b620014e6565b348015620005f957600080fd5b50620003e060fd5481565b3480156200061157600080fd5b506200042c62000623366004620048ee565b62001530565b3480156200063657600080fd5b506200042c62000648366004620046b9565b62001ba1565b3480156200065b57600080fd5b506200042c6200066d3660046200466a565b62001c1f565b3480156200068057600080fd5b506200042c620006923660046200466a565b62001cf0565b348015620006a557600080fd5b5062000392620006b73660046200466a565b61010a6020526000908152604090205460ff1681565b348015620006da57600080fd5b506200042c620006ec3660046200466a565b62001d52565b348015620006ff57600080fd5b5062000392620007113660046200462c565b61010e60209081526000928352604080842090915290825290205460ff1681565b6200042c6200074336600462004a81565b62001d8d565b3480156200075657600080fd5b50620003e062001e4e565b3480156200076e57600080fd5b506200042c62000780366004620045ef565b62001eff565b3480156200079357600080fd5b5061010254620003bf906001600160a01b031681565b348015620007b657600080fd5b506200042c620007c8366004620045ef565b6200211a565b348015620007db57600080fd5b50620003e0620007ed3660046200462c565b61010b60209081526000928352604080842090915290825290205481565b3480156200081857600080fd5b506200042c6200082a3660046200462c565b620023df565b3480156200083d57600080fd5b5061010354620003bf906001600160a01b031681565b3480156200086057600080fd5b5061010654620003bf906001600160a01b031681565b3480156200088357600080fd5b506200042c62002556565b3480156200089b57600080fd5b506200042c620008ad366004620045ef565b6200256e565b348015620008c057600080fd5b50620003e06000805160206200602b83398151915281565b348015620008e557600080fd5b50620003e06101105481565b348015620008fe57600080fd5b5061010154620003bf906001600160a01b031681565b3480156200092157600080fd5b50620003e0620009333660046200462c565b6001600160a01b03918216600090815261010b6020908152604080832093909416825291909152205490565b3480156200096c57600080fd5b50620003e060fb5481565b3480156200098457600080fd5b5061010454620003bf906001600160a01b031681565b348015620009a757600080fd5b506200042c620009b9366004620045ef565b620025ff565b348015620009cc57600080fd5b5062000a0d620009de3660046200466a565b61010c602052600090815260409020805460018201546002909201546001600160a01b03909116919060ff1683565b604080516001600160a01b03909416845260208401929092521515908201526060016200039e565b34801562000a4257600080fd5b50620003e060fc5481565b34801562000a5a57600080fd5b50620003bf62002690565b34801562000a7257600080fd5b506200039262000a84366004620046b9565b62002732565b34801562000a9757600080fd5b506200042c62000aa936600462004aeb565b6200275d565b34801562000abc57600080fd5b50620003bf73eeeeeeeeeeeeeeeeeeeeeeeeeeeeeeeeeeeeeeee81565b34801562000ae657600080fd5b50620003e0600081565b34801562000afd57600080fd5b506200039262000b0f3660046200466a565b620029cb565b34801562000b2257600080fd5b506200042c62000b343660046200466a565b620029ed565b34801562000b4757600080fd5b5060ff54620003bf9061010090046001600160a01b031681565b34801562000b6e57600080fd5b506200042c62002a1a565b34801562000b8657600080fd5b5062000b9162002afe565b6040516200039e919062004b77565b34801562000bad57600080fd5b506200042c62002b95565b34801562000bc557600080fd5b50620003e062002cc4565b34801562000bdd57600080fd5b506200042c62000bef3660046200466a565b62002cd6565b34801562000c0257600080fd5b5062000b9162002d0b565b34801562000c1a57600080fd5b506200042c62000c2c366004620046b9565b62002d1b565b34801562000c3f57600080fd5b5061010754620003bf906001600160a01b031681565b34801562000c6257600080fd5b50620003e061271081565b34801562000c7a57600080fd5b5061010554620003bf906001600160a01b031681565b34801562000c9d57600080fd5b5062000cb562000caf36600462004e5b565b62002d3d565b604080519283526001600160a01b039091166020830152016200039e565b34801562000ce057600080fd5b506200039262000cf23660046200466a565b62002f7d565b34801562000d0557600080fd5b5062000cb562000d1736600462004ed9565b62002f9a565b34801562000d2a57600080fd5b506200042c62000d3c36600462004f6c565b620030c4565b34801562000d4f57600080fd5b506200042c62000d613660046200466a565b62003365565b34801562000d7457600080fd5b5061010054620003bf906001600160a01b031681565b34801562000d9757600080fd5b506200042c62000da93660046200466a565b620033d6565b34801562000dbc57600080fd5b5062000b91604051806040016040528060038152602001620302e360ec1b81525081565b60006001600160e01b03198216637965db0b60e01b148062000e1257506301ffc9a760e01b6001600160e01b03198316145b92915050565b600062000e2d6033546001600160a01b031690565b905090565b62000e3c6200343f565b62000e4b612710600a6200506a565b81111562000e6c5760405163fe925f7d60e01b815260040160405180910390fd5b60fc8190556040518181527f611668bfcf654a99c33cdb66c29ec37a5aae5c1287d2d9715a24e18cb4d806d6906020015b60405180910390a150565b62000eb26200347c565b62000ebd82620034d7565b62000ec88162001d52565b62000ed4338262003500565b6001600160a01b03808316600090815261010e602090815260408083209385168352929052205460ff161562000f1d57604051636adcde4b60e11b815260040160405180910390fd5b6001600160a01b03808316600090815261010c602090815260409182902082516060810184528154909416845260018101549184018290526002015460ff1615159183019190915260fb546003846001600160a01b031663c32921716040518163ffffffff1660e01b81526004016020604051808303816000875af115801562000fab573d6000803e3d6000fd5b505050506040513d601f19601f8201168201806040525081019062000fd191906200509a565b600381111562000fe55762000fe562005084565b036200106a5760405163782aadff60e01b81526001600160a01b0385169063782aadff906200101c908890600090600401620050ba565b6020604051808303816000875af11580156200103c573d6000803e3d6000fd5b505050506040513d601f19601f82011682018060405250810190620010629190620050d3565b905062001166565b6000846001600160a01b031663c32921716040518163ffffffff1660e01b81526004016020604051808303816000875af1158015620010ad573d6000803e3d6000fd5b505050506040513d601f19601f82011682018060405250810190620010d391906200509a565b6003811115620010e757620010e762005084565b14620011665760405163782aadff60e01b81526001600160a01b0385169063782aadff906200111d9088908690600401620050ba565b6020604051808303816000875af11580156200113d573d6000803e3d6000fd5b505050506040513d601f19601f82011682018060405250810190620011639190620050d3565b90505b6001600160a01b03808616600081815261010b6020908152604080832094891680845294825280832086905583835261010e82528083208584528252808320805460ff1916600190811790915593835261010d8252808320805494850181558352912090910180546001600160a01b031916909217909155517ff56fa57e85e169a12200d12d9921ec069b52e688f6d309d9dab7bceff54614ec906200121290879087908590620050ed565b60405180910390a1505050620012286001606555565b5050565b620012366200343f565b62001241816200353a565b50565b6200124e6200358d565b61010280546001600160a01b0319166001600160a01b0392909216919091179055565b6200127b6200343f565b6200124181620035f0565b6200129182620034d7565b6200129d338262003500565b6001600160a01b03808316600090815261010e602090815260408083209385168352929052205460ff16620012e557604051633048da7760e21b815260040160405180910390fd5b6001600160a01b03808316600081815261010e60209081526040808320948616808452948252808320805460ff1916905592825261010b81528282209382529290925281205562001337828262003759565b7ede109bef4619f7e2cf00c8e5a50ca55f8deb44f87087eed414a91dbf8d1d1b82826040516200136992919062005111565b60405180910390a15050565b600090815260c9602052604090206001015490565b6000806200139c61271060646200506a565b60fc5460fb54620013ae91906200506a565b620013ba91906200512b565b90506000620013cd61271060646200506a565b610100546040516302a64b8360e21b81526001600160a01b0390911690630a992e0c9062001400903090600401620045db565b602060405180830381865afa1580156200141e573d6000803e3d6000fd5b505050506040513d601f19601f82011682018060405250810190620014449190620050d3565b60fb546200145391906200506a565b6200145f91906200512b565b9050808260fb546200147291906200514e565b6200147e91906200514e565b9250505090565b61010d6020528160005260406000208181548110620014a357600080fd5b6000918252602090912001546001600160a01b03169150829050565b620014ca8262001375565b620014d5816200388f565b620014e183836200389b565b505050565b620014f06200343f565b620014fa62003925565b60fb8190556040518181527f5e2d447f427e49fd08832fd025a56589500352417199aa65728feaf05123e8569060200162000e9d565b600054610100900460ff1615808015620015515750600054600160ff909116105b80620015765750620015633062003950565b15801562001576575060005460ff166001145b620015df5760405162461bcd60e51b815260206004820152602e60248201527f496e697469616c697a61626c653a20636f6e747261637420697320616c72656160448201526d191e481a5b9a5d1a585b1a5e995960921b60648201526084015b60405180910390fd5b6000805460ff19166001179055801562001603576000805461ff0019166101001790555b6200160e8262002cd6565b620016186200395f565b6200162262003993565b6200163e6000805160206200602b8339815191526000620039bd565b845161010780546001600160a01b039283166001600160a01b03199182161790915560208701516101058054919093169116179055604085015160000362001699576040516363868c5560e11b815260040160405180910390fd5b604085015160fb55606085015160fc5561014085015160ff805460ff191691151591909117905561012085015161010890620016d69082620051f2565b5061016085015161010990620016ed9082620051f2565b5060a085015161010080546001600160a01b03199081166001600160a01b0393841617825560c088015160ff8054610100600160a81b031916918516840291909117905590870151610106805490921692811692909217905560006101105562001768906000805160206200602b833981519152906200389b565b61010760009054906101000a90046001600160a01b03166001600160a01b0316635ab1bd536040518163ffffffff1660e01b8152600401602060405180830381865afa158015620017bd573d6000803e3d6000fd5b505050506040513d601f19601f82011682018060405250810190620017e39190620052be565b61010480546001600160a01b0319166001600160a01b0392831617905561010654606091163b6000036200186f576040805160038082526080820190925290602082016060803683370190505090503381600081518110620018495762001849620052de565b60200260200101906001600160a01b031690816001600160a01b031681525050620019ac565b610106546040805163a0e67e2b60e01b815290516000926001600160a01b03169163a0e67e2b91600480830192869291908290030181865afa158015620018ba573d6000803e3d6000fd5b505050506040513d6000823e601f3d908101601f19168201604052620018e49190810190620052f4565b905080516002620018f691906200514e565b6001600160401b03811115620019105762001910620046e1565b6040519080825280602002602001820160405280156200193a578160200160208202803683370190505b50915060005b8151811015620019a9578181815181106200195f576200195f620052de565b60200260200101518382815181106200197c576200197c620052de565b6001600160a01b039092166020928302919091019091015280620019a0816200538d565b91505062001940565b50505b6101065481516001600160a01b03909116908290620019ce90600190620053a9565b81518110620019e157620019e1620052de565b60200260200101906001600160a01b031690816001600160a01b03168152505030816002835162001a139190620053a9565b8151811062001a265762001a26620052de565b6001600160a01b03928316602091820292909201015261010454608088015160e0890151604051633a92f65f60e01b81529290931692633a92f65f9262001a7992916101089130908890600401620054ab565b6020604051808303816000875af115801562001a99573d6000803e3d6000fd5b505050506040513d601f19601f8201168201806040525081019062001abf9190620050d3565b60fe55805162001ad89061010f906020840190620044f3565b5061010280546001600160a01b038088166001600160a01b03199283161790925561010180549287169290911691909117905560fe5460e08701516040517f2f2ffcb06f8a1d35e2716f6b43ef2c19bfa76467d8f66964ae12c2583ed032059262001b4a92909161010891906200550b565b60405180910390a150801562001b9a576000805461ff0019169055604051600181527f7f26b83ff96e1f2b6a682f133852f6798a09c465da95921460cefb38474024989060200160405180910390a15b5050505050565b6001600160a01b038116331462001c135760405162461bcd60e51b815260206004820152602f60248201527f416363657373436f6e74726f6c3a2063616e206f6e6c792072656e6f756e636560448201526e103937b632b9903337b91039b2b63360891b6064820152608401620015d6565b62001228828262003a12565b6001600160a01b037f000000000000000000000000000000000000000000000000000000000000000016300362001c6a5760405162461bcd60e51b8152600401620015d6906200553a565b7f00000000000000000000000000000000000000000000000000000000000000006001600160a01b031662001c9e62003a7c565b6001600160a01b03161462001cc75760405162461bcd60e51b8152600401620015d69062005575565b62001cd28162003a99565b60408051600080825260208201909252620012419183919062003adb565b62001cfa6200343f565b61010380546001600160a01b0319166001600160a01b03838116918217909255610106546040517f83eac9fdaff0ac1017624b7eddeb9782e3d707cd894073cb7e8301a41c6e5cf89362000e9d939216919062005111565b6001600160a01b038116600090815261010a602052604090205460ff1662001241576040516346c26e4b60e01b815260040160405180910390fd5b6001600160a01b037f000000000000000000000000000000000000000000000000000000000000000016300362001dd85760405162461bcd60e51b8152600401620015d6906200553a565b7f00000000000000000000000000000000000000000000000000000000000000006001600160a01b031662001e0c62003a7c565b6001600160a01b03161462001e355760405162461bcd60e51b8152600401620015d69062005575565b62001e408262003a99565b620012288282600162003adb565b6000306001600160a01b037f0000000000000000000000000000000000000000000000000000000000000000161462001eeb5760405162461bcd60e51b815260206004820152603860248201527f555550535570677261646561626c653a206d757374206e6f742062652063616c6044820152771b1959081d1a1c9bdd59da0819195b1959d85d1958d85b1b60421b6064820152608401620015d6565b506000805160206200606b83398151915290565b62001f096200347c565b62001f1362003c53565b336000805b6001600160a01b038316600090815261010d602052604090205481101562002082576001600160a01b038316600090815261010d6020526040902080548290811062001f685762001f68620052de565b60009182526020909120015460405163782aadff60e01b81526001600160a01b039091169063782aadff9062001fa59086908890600401620050ba565b6020604051808303816000875af115801562001fc5573d6000803e3d6000fd5b505050506040513d601f19601f8201168201806040525081019062001feb9190620050d3565b915081156200206d576001600160a01b038316600090815261010b6020908152604080832061010d909252822080548593919085908110620020315762002031620052de565b60009182526020808320909101546001600160a01b0316835282019290925260400181208054909190620020679084906200514e565b90915550505b8062002079816200538d565b91505062001f18565b50610105546200209e906001600160a01b031683308662003c7c565b6001600160a01b038216600090815261010c602052604081206001018054859290620020cc9084906200514e565b90915550506040517f576605f9bfe8911e7508bed3763c7c5c8eb3b86e8b360b90a4bc6abe1104cb7f90620021059084908690620050ba565b60405180910390a15050620012416001606555565b620021246200347c565b6200212e62003c53565b33600081815261010d6020908152604080832060fb5461010c909352908320600101549092919062002162908690620053a9565b10156200218257604051634e23e81760e11b815260040160405180910390fd5b610105546200219c906001600160a01b0316848662003cd8565b60005b825481101562002361576000838281548110620021c057620021c0620052de565b600091825260209091200154604051632ed04b2b60e01b81526001600160a01b0390911691508190632ed04b2b90620022009088908a90600401620050ba565b6020604051808303816000875af115801562002220573d6000803e3d6000fd5b505050506040513d601f19601f82011682018060405250810190620022469190620050d3565b9250600061010b6000876001600160a01b03166001600160a01b031681526020019081526020016000206000868581548110620022875762002287620052de565b60009182526020808320909101546001600160a01b03168352820192909252604001902054905080841115620022db576040516311423e6360e31b81526004810185905260248101829052604401620015d6565b6001600160a01b038616600090815261010b6020526040812086548692908890879081106200230e576200230e620052de565b60009182526020808320909101546001600160a01b031683528201929092526040018120805490919062002344908490620053a9565b90915550505050808062002358906200538d565b9150506200219f565b506001600160a01b038316600090815261010c60205260408120600101805486929062002390908490620053a9565b90915550506040517f6ee2c70b2d6b89ae808a2313aab43e925c06624271419cd665d85cfa1ae04ff890620023c99085908790620050ba565b60405180910390a1505050620012416001606555565b620023e96200347c565b620023f36200343f565b60ff80541662002416576040516365b1ee3960e11b815260040160405180910390fd5b6200242182620029cb565b6200243f57604051636a5cfb6d60e01b815260040160405180910390fd5b6001600160a01b03808316600090815261010c60209081526040918290208251606081018452815490941684526001810154918401919091526002015460ff16151590820152620024908362003cfa565b6001600160a01b038316600090815261010c6020526040812080546001600160a01b031916815560018082018390556002909101805460ff19169055610110805491929091620024e2908490620053a9565b909155505060208101516101055462002509916001600160a01b0390911690849062003cd8565b7fb5946f249f8744efe9d14d49a483b54a589b1362944ff6694de93456cceb96a3838383602001516040516200254293929190620050ed565b60405180910390a150620012286001606555565b620025606200358d565b6200256c600062003e0f565b565b620025786200343f565b6101075460405163068bcd8d60e01b8152600481018390526000916001600160a01b03169063068bcd8d90602401600060405180830381865afa158015620025c4573d6000803e3d6000fd5b505050506040513d6000823e601f3d908101601f19168201604052620025ee9190810190620055b0565b60200151905062001228816200353a565b620026096200343f565b6101075460405163068bcd8d60e01b8152600481018390526000916001600160a01b03169063068bcd8d90602401600060405180830381865afa15801562002655573d6000803e3d6000fd5b505050506040513d6000823e601f3d908101601f191682016040526200267f9190810190620055b0565b6020015190506200122881620035f0565b60006200269c62000e18565b6001600160a01b03163b600003620026b85762000e2d62000e18565b620026c262000e18565b6001600160a01b0316638da5cb5b6040518163ffffffff1660e01b8152600401602060405180830381865afa9250505080156200271e575060408051601f3d908101601f191682019092526200271b91810190620052be565b60015b6200272d5762000e2d62000e18565b919050565b600091825260c9602090815260408084206001600160a01b0393909316845291905290205460ff1690565b620027676200347c565b610100546001600160a01b031660006200278561271060646200506a565b60fc5460fb546200279791906200506a565b620027a391906200512b565b90506000620027b661271060646200506a565b6040516302a64b8360e21b81526001600160a01b03851690630a992e0c90620027e4903090600401620045db565b602060405180830381865afa15801562002802573d6000803e3d6000fd5b505050506040513d601f19601f82011682018060405250810190620028289190620050d3565b60fb546200283791906200506a565b6200284391906200512b565b90506200285033620029cb565b620029bd5733600081815261010c6020526040902060028101805460ff1916600190811790915560fb549101819055620028b8919030908490620028969087906200514e565b620028a291906200514e565b610105546001600160a01b031692919062003c7c565b8115620028e55760ff5461010554620028e5916001600160a01b0391821691610100909104168462003cd8565b80156200296a576200296a836001600160a01b031663987435be6040518163ffffffff1660e01b8152600401602060405180830381865afa1580156200292f573d6000803e3d6000fd5b505050506040513d601f19601f82011682018060405250810190620029559190620052be565b610105546001600160a01b0316908362003cd8565b600161011060008282546200298091906200514e565b909155505060fb546040517f0bd09b1e448ffe881e884ac37014bf3e0274007308056b6469b50fa485542abf91620023c9913391908890620056e6565b505050620012416001606555565b6001600160a01b0316600090815261010c602052604090206002015460ff1690565b620029f76200358d565b61010180546001600160a01b0319166001600160a01b0392909216919091179055565b610103546001600160a01b0316331462002a47576040516375e686b760e11b815260040160405180910390fd5b6101035462002a70906000805160206200602b833981519152906001600160a01b03166200389b565b6101065462002a99906000805160206200602b833981519152906001600160a01b031662003a12565b610103805461010680546001600160a01b0383166001600160a01b031991821681179092559091169091556040517ffea29da7321ca6d0ee0a7359009bb9d4a57035aea0ef6cb4d062341f4a9615199162002af491620045db565b60405180910390a1565b610109805462002b0e9062005164565b80601f016020809104026020016040519081016040528092919081815260200182805462002b3c9062005164565b801562002b8d5780601f1062002b615761010080835404028352916020019162002b8d565b820191906000526020600020905b81548152906001019060200180831162002b6f57829003601f168201915b505050505081565b62002b9f6200347c565b62002ba962003c53565b3362002bb58162003cfa565b6001600160a01b03808216600081815261010c602090815260408083208151606081018352815496871681526001820180548286015260028301805460ff81161515848701529787526001600160a01b03199098169092559084905560ff1990941690945561010d9052918220909162002c3091906200455d565b610110541562002c56576001610110600082825462002c509190620053a9565b90915550505b60208101516101055462002c78916001600160a01b0390911690849062003cd8565b7fa13f4668aacb68c4e9eed8e3f6e1cbec3eca776896ec46b5eabcc3983fc8f5f482826020015160405162002caf929190620050ba565b60405180910390a150506200256c6001606555565b62002cd3612710600a6200506a565b81565b600054610100900460ff1662002d005760405162461bcd60e51b8152600401620015d69062005718565b620012418162003e0f565b610108805462002b0e9062005164565b62002d268262001375565b62002d31816200388f565b620014e1838362003a12565b610102546101075461010154600092839283926001600160a01b039283169263184b955960e01b928116911662002d7362000e18565b6040516001600160a01b0393841660248201529183166044830152909116606482015260840160408051601f198184030181529181526020820180516001600160e01b03166001600160e01b031990941693909317909252905162002dd8906200457d565b62002de592919062005763565b604051809103906000f08015801562002e02573d6000803e3d6000fd5b50905062002e138187878762002f9a565b60c087015191945092506001600160a01b031662002ee45761271085610100015151111562002e60578461010001515160405163107b111560e31b8152600401620015d691815260200190565b60008360405160200162002e75919062005789565b60405160208183030381529060405280519060200120905060005b8661010001515181101562002ee15762002ecc82886101000151838151811062002ebe5762002ebe620052de565b60200260200101516200389b565b8062002ed8816200538d565b91505062002e90565b50505b62002f408360405160200162002efb919062005789565b604051602081830303815290604052805190602001208460405160200162002f249190620057a6565b60405160208183030381529060405280519060200120620039bd565b62002f748360405160200162002f579190620057a6565b60405160208183030381529060405280519060200120836200389b565b50935093915050565b600062000e126000805160206200602b8339815191528362002732565b60008073eeeeeeeeeeeeeeeeeeeeeeeeeeeeeeeeeeeeeeee6001600160a01b0386161562002fc55750845b6101075460fe546040518994506001600160a01b039092169163e1007d4a9190859062002ff7908a90602001620057f3565b6040516020818303038152906040528560008a61010f6040518863ffffffff1660e01b815260040162003031979695949392919062005907565b6020604051808303816000875af115801562003051573d6000803e3d6000fd5b505050506040513d601f19601f82011682018060405250810190620030779190620050d3565b92507f778cac0ae0b66477341553a4a89398c61ccf448313d3354ad0ca85a5a825d2838383308988604051620030b2959493929190620059a3565b60405180910390a15094509492505050565b620030ce6200343f565b60fb548160800151141580620030f1575060ff805460a083015115159116151514155b806200312157506101096040516200310a9190620059df565b60405180910390208160c001518051906020012014155b156200322c576200313162003925565b60fb548160800151146200314e576200314e8160800151620014e6565b60ff805460a083015115159116151514620031ac5760a081015160ff805460ff191691151591821790556040519081527f4ca826489011b9a44719ccfa206813b072bb58604af41f245a6a1a6d913588759060200160405180910390a15b610109604051620031be9190620059df565b60405180910390208160c0015180519060200120146200322c5760c081015161010990620031ed9082620051f2565b507f8fd46764d9fde733a671bd3aa6710da0668b1c4eb78d33f42e104553ea4bc76e8160c0015160405162003223919062004b77565b60405180910390a15b6101086040516200323e9190620059df565b604051809103902081606001518051906020012014620032ac576060810151610108906200326d9082620051f2565b507ff67fb6c95f41f58a276869ca2608214f0a6aab1c9ffe445affaa58680fddd4978160600151604051620032a3919062004b77565b60405180910390a15b60fc54816040015114620032c957620032c9816040015162000e32565b60ff5460208201516001600160a01b0390811661010090920416146200334757602081015160ff8054610100600160a81b0319166101006001600160a01b038416021790556040517f647672599d3468abcfa241a13c9e3d34383caadb5cc80fb67c3cdfcd5f786059916200333e91620045db565b60405180910390a15b80516001600160a01b03161562001241578051620012419062001cf0565b6200336f6200358d565b6001600160a01b03811662002d005760405162461bcd60e51b815260206004820152602660248201527f4f776e61626c653a206e6577206f776e657220697320746865207a65726f206160448201526564647265737360d01b6064820152608401620015d6565b620033e06200343f565b6001600160a01b038116600090815261010a602052604090205460ff16156200340e576200340e816200353a565b7f6723d9f32d040ca8ddd4dabf6f03ad485e63fc3fd625ac1fa1c557de6719314f8160405162000e9d9190620045db565b6200345a6000805160206200602b8339815191523362002732565b6200256c573360405163fc4be72f60e01b8152600401620015d69190620045db565b600260655403620034d05760405162461bcd60e51b815260206004820152601f60248201527f5265656e7472616e637947756172643a207265656e7472616e742063616c6c006044820152606401620015d6565b6002606555565b620034e281620029cb565b6200124157604051636a5cfb6d60e01b815260040160405180910390fd5b806001600160a01b0316826001600160a01b031614620012285760405163bbe7961160e01b815260040160405180910390fd5b6001606555565b6001600160a01b038116600090815261010a602052604090819020805460ff19169055517f09a1db4b80c32706328728508c941a6b954f31eb5affd32f236c1fd405f8fea49062000e9d908390620045db565b336200359862002690565b6001600160a01b0316146200256c5760405162461bcd60e51b815260206004820181905260248201527f4f776e61626c653a2063616c6c6572206973206e6f7420746865206f776e65726044820152606401620015d6565b6001600160a01b038116600090815261010a602052604090205460ff16156200362c576040516325a2934b60e21b815260040160405180910390fd5b6001600160a01b038116600081815261010a60209081526040808320805460ff19166001179055805163b6c61f3160e01b8152905192939263b6c61f31926004808401939192918290030181865afa1580156200368d573d6000803e3d6000fd5b505050506040513d601f19601f82011682018060405250810190620036b39190620052be565b90506001600160a01b0381161562003728576040516306c0752d60e51b81526001600160a01b0382169063d80ea5a090620036f3908590600401620045db565b600060405180830381600087803b1580156200370e57600080fd5b505af115801562003723573d6000803e3d6000fd5b505050505b7f3f008fd510eae7a9e7bee13513d7b83bef8003d488b5a3d0b0da4de71d6846f182604051620013699190620045db565b6001600160a01b038216600090815261010d60205260408120905b81548110156200388957826001600160a01b03168282815481106200379d576200379d620052de565b6000918252602090912001546001600160a01b031603620038745781548290620037ca90600190620053a9565b81548110620037dd57620037dd620052de565b9060005260206000200160009054906101000a90046001600160a01b0316828281548110620038105762003810620052de565b9060005260206000200160006101000a8154816001600160a01b0302191690836001600160a01b031602179055508180548062003851576200385162005a5d565b600082815260209020810160001990810180546001600160a01b03191690550190555b8062003880816200538d565b91505062003774565b50505050565b62001241813362003e61565b620038a7828262002732565b6200122857600082815260c9602090815260408083206001600160a01b03851684529091529020805460ff19166001179055620038e13390565b6001600160a01b0316816001600160a01b0316837f2f8788117e7eff1d82e926ec794901d17c78024a50270940304540a733656f0d60405160405180910390a45050565b61011054156200256c5761011054604051637d95539f60e11b8152600401620015d691815260200190565b6001600160a01b03163b151590565b600054610100900460ff16620039895760405162461bcd60e51b8152600401620015d69062005718565b6200256c62003ec5565b600054610100900460ff166200256c5760405162461bcd60e51b8152600401620015d69062005718565b6000620039ca8362001375565b600084815260c96020526040808220600101859055519192508391839186917fbd79b86ffe0ab8e8776151514217cd7cacd52c909f66475c3af44e129f0b00ff9190a4505050565b62003a1e828262002732565b156200122857600082815260c9602090815260408083206001600160a01b0385168085529252808320805460ff1916905551339285917ff6391f5c32d9c69d2a47ea670b442974b53935d1edc7fd64eb21e047a839171b9190a45050565b6000805160206200606b833981519152546001600160a01b031690565b3362003aa462002690565b6001600160a01b03161462001241573362003abe62002690565b60405163163678e960e01b8152600401620015d692919062005111565b7f4910fdfa16fed3260ed0e7147f7cc6da11a60208b5b9406d12a635614ffd91435460ff161562003b1157620014e18362003eef565b826001600160a01b03166352d1902d6040518163ffffffff1660e01b8152600401602060405180830381865afa92505050801562003b6e575060408051601f3d908101601f1916820190925262003b6b91810190620050d3565b60015b62003bd35760405162461bcd60e51b815260206004820152602e60248201527f45524331393637557067726164653a206e657720696d706c656d656e7461746960448201526d6f6e206973206e6f74205555505360901b6064820152608401620015d6565b6000805160206200606b833981519152811462003c455760405162461bcd60e51b815260206004820152602960248201527f45524331393637557067726164653a20756e737570706f727465642070726f786044820152681a58589b195555525160ba1b6064820152608401620015d6565b50620014e183838362003f8e565b62003c5e33620029cb565b6200256c57604051636a5cfb6d60e01b815260040160405180910390fd5b62003889846323b872dd60e01b85858560405160240162003ca093929190620050ed565b60408051601f198184030181529190526020810180516001600160e01b03166001600160e01b03199093169290921790915262003fb9565b620014e18363a9059cbb60e01b848460405160240162003ca0929190620050ba565b6001600160a01b038116600090815261010d602090815260408083208054825181850281018501909352808352919290919083018282801562003d6757602002820191906000526020600020905b81546001600160a01b0316815260019091019060200180831162003d48575b5050505050905060005b8151811015620014e15781818151811062003d905762003d90620052de565b60200260200101516001600160a01b0316636453d9c4846040518263ffffffff1660e01b815260040162003dc59190620045db565b600060405180830381600087803b15801562003de057600080fd5b505af115801562003df5573d6000803e3d6000fd5b50505050808062003e06906200538d565b91505062003d71565b603380546001600160a01b038381166001600160a01b0319831681179093556040519116919082907f8be0079c531659141344cd1fd0a4f28419497f9722a3daafe3b4186f6b6457e090600090a35050565b62003e6d828262002732565b620012285762003e7d8162004095565b62003e8a836020620040a8565b60405160200162003e9d92919062005a73565b60408051601f198184030181529082905262461bcd60e51b8252620015d69160040162004b77565b600054610100900460ff16620035335760405162461bcd60e51b8152600401620015d69062005718565b62003efa8162003950565b62003f5e5760405162461bcd60e51b815260206004820152602d60248201527f455243313936373a206e657720696d706c656d656e746174696f6e206973206e60448201526c1bdd08184818dbdb9d1c9858dd609a1b6064820152608401620015d6565b6000805160206200606b83398151915280546001600160a01b0319166001600160a01b0392909216919091179055565b62003f998362004268565b60008251118062003fa75750805b15620014e157620038898383620042aa565b600062004010826040518060400160405280602081526020017f5361666545524332303a206c6f772d6c6576656c2063616c6c206661696c6564815250856001600160a01b0316620042d29092919063ffffffff16565b90508051600014806200403457508080602001905181019062004034919062005ae6565b620014e15760405162461bcd60e51b815260206004820152602a60248201527f5361666545524332303a204552433230206f7065726174696f6e20646964206e6044820152691bdd081cdd58d8d9595960b21b6064820152608401620015d6565b606062000e126001600160a01b03831660145b60606000620040b98360026200506a565b620040c69060026200514e565b6001600160401b03811115620040e057620040e0620046e1565b6040519080825280601f01601f1916602001820160405280156200410b576020820181803683370190505b509050600360fc1b81600081518110620041295762004129620052de565b60200101906001600160f81b031916908160001a905350600f60fb1b816001815181106200415b576200415b620052de565b60200101906001600160f81b031916908160001a9053506000620041818460026200506a565b6200418e9060016200514e565b90505b600181111562004210576f181899199a1a9b1b9c1cb0b131b232b360811b85600f1660108110620041c657620041c6620052de565b1a60f81b828281518110620041df57620041df620052de565b60200101906001600160f81b031916908160001a90535060049490941c93620042088162005b06565b905062004191565b508315620042615760405162461bcd60e51b815260206004820181905260248201527f537472696e67733a20686578206c656e67746820696e73756666696369656e746044820152606401620015d6565b9392505050565b620042738162003eef565b6040516001600160a01b038216907fbc7cd75a20ee27fd9adebab32041f755214dbc6bffa90cc0225b39da2e5c2d3b90600090a250565b60606200426183836040518060600160405280602781526020016200608b60279139620042eb565b6060620042e3848460008562004369565b949350505050565b6060600080856001600160a01b0316856040516200430a919062005b20565b600060405180830381855af49150503d806000811462004347576040519150601f19603f3d011682016040523d82523d6000602084013e6200434c565b606091505b50915091506200435f868383876200444c565b9695505050505050565b606082471015620043cc5760405162461bcd60e51b815260206004820152602660248201527f416464726573733a20696e73756666696369656e742062616c616e636520666f6044820152651c8818d85b1b60d21b6064820152608401620015d6565b600080866001600160a01b03168587604051620043ea919062005b20565b60006040518083038185875af1925050503d806000811462004429576040519150601f19603f3d011682016040523d82523d6000602084013e6200442e565b606091505b509150915062004441878383876200444c565b979650505050505050565b60608315620044c0578251600003620044b8576200446a8562003950565b620044b85760405162461bcd60e51b815260206004820152601d60248201527f416464726573733a2063616c6c20746f206e6f6e2d636f6e74726163740000006044820152606401620015d6565b5081620042e3565b620042e38383815115620044d75781518083602001fd5b8060405162461bcd60e51b8152600401620015d6919062004b77565b8280548282559060005260206000209081019282156200454b579160200282015b828111156200454b57825182546001600160a01b0319166001600160a01b0390911617825560209092019160019091019062004514565b50620045599291506200458b565b5090565b50805460008255906000526020600020908101906200124191906200458b565b6104ec8062005b3f83390190565b5b808211156200455957600081556001016200458c565b600060208284031215620045b557600080fd5b81356001600160e01b0319811681146200426157600080fd5b6001600160a01b03169052565b6001600160a01b0391909116815260200190565b6000602082840312156200460257600080fd5b5035919050565b6001600160a01b03811681146200124157600080fd5b80356200272d8162004609565b600080604083850312156200464057600080fd5b82356200464d8162004609565b915060208301356200465f8162004609565b809150509250929050565b6000602082840312156200467d57600080fd5b8135620042618162004609565b600080604083850312156200469e57600080fd5b8235620046ab8162004609565b946020939093013593505050565b60008060408385031215620046cd57600080fd5b8235915060208301356200465f8162004609565b634e487b7160e01b600052604160045260246000fd5b604080519081016001600160401b03811182821017156200471c576200471c620046e1565b60405290565b60405161018081016001600160401b03811182821017156200471c576200471c620046e1565b60405160c081016001600160401b03811182821017156200471c576200471c620046e1565b60405161012081016001600160401b03811182821017156200471c576200471c620046e1565b60405160e081016001600160401b03811182821017156200471c576200471c620046e1565b604051601f8201601f191681016001600160401b0381118282101715620047e357620047e3620046e1565b604052919050565b60006001600160401b03821115620048075762004807620046e1565b50601f01601f191660200190565b60006200482c6200482684620047eb565b620047b8565b90508281528383830111156200484157600080fd5b828260208301376000602084830101529392505050565b600082601f8301126200486a57600080fd5b620042618383356020850162004815565b6000604082840312156200488e57600080fd5b62004898620046f7565b82358152905060208201356001600160401b03811115620048b857600080fd5b620048c68482850162004858565b60208301525092915050565b80151581146200124157600080fd5b80356200272d81620048d2565b600080600080608085870312156200490557600080fd5b84356001600160401b03808211156200491d57600080fd5b9086019061018082890312156200493357600080fd5b6200493d62004722565b62004948836200461f565b815262004958602084016200461f565b60208201526040830135604082015260608301356060820152608083013560808201526200498960a084016200461f565b60a08201526200499c60c084016200461f565b60c082015260e083013582811115620049b457600080fd5b620049c28a8286016200487b565b60e083015250610100620049d88185016200461f565b908201526101208381013583811115620049f157600080fd5b620049ff8b82870162004858565b82840152505061014062004a15818501620048e1565b90820152610160838101358381111562004a2e57600080fd5b62004a3c8b82870162004858565b82840152505080965050505062004a56602086016200461f565b925062004a66604086016200461f565b915062004a76606086016200461f565b905092959194509250565b6000806040838503121562004a9557600080fd5b823562004aa28162004609565b915060208301356001600160401b0381111562004abe57600080fd5b8301601f8101851362004ad057600080fd5b62004ae18582356020840162004815565b9150509250929050565b60006020828403121562004afe57600080fd5b81356001600160401b0381111562004b1557600080fd5b620042e38482850162004858565b60005b8381101562004b4057818101518382015260200162004b26565b50506000910152565b6000815180845262004b6381602086016020860162004b23565b601f01601f19169290920160200192915050565b60208152600062004261602083018462004b49565b60006080828403121562004b9f57600080fd5b604051608081016001600160401b038111828210171562004bc45762004bc4620046e1565b8060405250809150823581526020830135602082015260408301356040820152606083013560608201525092915050565b8035600381106200272d57600080fd5b600481106200124157600080fd5b80356200272d8162004c05565b60006020828403121562004c3357600080fd5b604051602081016001600160401b038111828210171562004c585762004c58620046e1565b6040529135825250919050565b600060c0828403121562004c7857600080fd5b62004c8262004748565b9050813562004c918162004609565b8152602082013562004ca38162004609565b8060208301525060408201356040820152606082013560608201526080820135608082015260a082013560a082015292915050565b60006001600160401b0382111562004cf45762004cf4620046e1565b5060051b60200190565b600082601f83011262004d1057600080fd5b8135602062004d23620048268362004cd8565b82815260059290921b8401810191818101908684111562004d4357600080fd5b8286015b8481101562004d6b57803562004d5d8162004609565b835291830191830162004d47565b509695505050505050565b6000610220828403121562004d8a57600080fd5b62004d946200476d565b905062004da2838362004b8c565b815262004db26080830162004bf5565b602082015262004dc560a0830162004c13565b604082015262004dd98360c0840162004c20565b606082015262004ded8360e0840162004c65565b608082015262004e016101a083016200461f565b60a082015262004e156101c083016200461f565b60c08201526101e082013560e08201526102008201356001600160401b0381111562004e4057600080fd5b62004e4e8482850162004cfe565b6101008301525092915050565b60008060006060848603121562004e7157600080fd5b833562004e7e8162004609565b925060208401356001600160401b038082111562004e9b57600080fd5b62004ea98783880162004d76565b9350604086013591508082111562004ec057600080fd5b5062004ecf868287016200487b565b9150509250925092565b6000806000806080858703121562004ef057600080fd5b843562004efd8162004609565b9350602085013562004f0f8162004609565b925060408501356001600160401b038082111562004f2c57600080fd5b62004f3a8883890162004d76565b9350606087013591508082111562004f5157600080fd5b5062004f60878288016200487b565b91505092959194509250565b60006020828403121562004f7f57600080fd5b81356001600160401b038082111562004f9757600080fd5b9083019060e0828603121562004fac57600080fd5b62004fb662004793565b62004fc1836200461f565b815262004fd1602084016200461f565b60208201526040830135604082015260608301358281111562004ff357600080fd5b620050018782860162004858565b606083015250608083013560808201526200501f60a08401620048e1565b60a082015260c0830135828111156200503757600080fd5b620050458782860162004858565b60c08301525095945050505050565b634e487b7160e01b600052601160045260246000fd5b808202811582820484141762000e125762000e1262005054565b634e487b7160e01b600052602160045260246000fd5b600060208284031215620050ad57600080fd5b8151620042618162004c05565b6001600160a01b03929092168252602082015260400190565b600060208284031215620050e657600080fd5b5051919050565b6001600160a01b039384168152919092166020820152604081019190915260600190565b6001600160a01b0392831681529116602082015260400190565b6000826200514957634e487b7160e01b600052601260045260246000fd5b500490565b8082018082111562000e125762000e1262005054565b600181811c908216806200517957607f821691505b6020821081036200519a57634e487b7160e01b600052602260045260246000fd5b50919050565b601f821115620014e157600081815260208120601f850160051c81016020861015620051c95750805b601f850160051c820191505b81811015620051ea57828155600101620051d5565b505050505050565b81516001600160401b038111156200520e576200520e620046e1565b62005226816200521f845462005164565b84620051a0565b602080601f8311600181146200525e5760008415620052455750858301515b600019600386901b1c1916600185901b178555620051ea565b600085815260208120601f198616915b828110156200528f578886015182559484019460019091019084016200526e565b5085821015620052ae5787850151600019600388901b60f8161c191681555b5050505050600190811b01905550565b600060208284031215620052d157600080fd5b8151620042618162004609565b634e487b7160e01b600052603260045260246000fd5b600060208083850312156200530857600080fd5b82516001600160401b038111156200531f57600080fd5b8301601f810185136200533157600080fd5b805162005342620048268262004cd8565b81815260059190911b820183019083810190878311156200536257600080fd5b928401925b82841015620044415783516200537d8162004609565b8252928401929084019062005367565b600060018201620053a257620053a262005054565b5060010190565b8181038181111562000e125762000e1262005054565b60008154620053ce8162005164565b808552602060018381168015620053ee5760018114620054095762005439565b60ff1985168884015283151560051b88018301955062005439565b866000528260002060005b85811015620054315781548a820186015290830190840162005414565b890184019650505b505050505092915050565b805182526000602082015160406020850152620042e3604085018262004b49565b600081518084526020808501945080840160005b83811015620054a05781516001600160a01b03168752958201959082019060010162005479565b509495945050505050565b85815260a060208201526000620054c660a0830187620053bf565b8281036040840152620054da818762005444565b6001600160a01b038616606085015283810360808501529050620054ff818562005465565b98975050505050505050565b838152606060208201526000620055266060830185620053bf565b82810360408401526200435f818562005444565b6020808252602c908201526000805160206200604b83398151915260408201526b19195b1959d85d1958d85b1b60a21b606082015260800190565b6020808252602c908201526000805160206200604b83398151915260408201526b6163746976652070726f787960a01b606082015260800190565b60006020808385031215620055c457600080fd5b82516001600160401b0380821115620055dc57600080fd5b9084019060c08287031215620055f157600080fd5b620055fb62004748565b82518152838301516200560e8162004609565b818501526040830151620056228162004609565b60408201526060830151828111156200563a57600080fd5b8301604081890312156200564d57600080fd5b62005657620046f7565b8151815285820151848111156200566d57600080fd5b82019350601f840189136200568157600080fd5b83519150620056946200482683620047eb565b8281528987848701011115620056a957600080fd5b620056ba8388830189880162004b23565b95810195909552506060810193909352506080818101519083015260a090810151908201529392505050565b60018060a01b03841681528260208201526060604082015260006200570f606083018462004b49565b95945050505050565b6020808252602b908201527f496e697469616c697a61626c653a20636f6e7472616374206973206e6f74206960408201526a6e697469616c697a696e6760a81b606082015260800190565b6001600160a01b0383168152604060208201819052600090620042e39083018462004b49565b6810531313d5d31254d560ba1b8152600981019190915260290190565b6e20a62627aba624a9aa2fa0a226a4a760891b8152600f810191909152602f0190565b60038110620057dc57620057dc62005084565b9052565b60048110620057dc57620057dc62005084565b6020815262005827602082018351805182526020810151602083015260408101516040830152606081015160608301525050565b600060208301516200583d60a0840182620057c9565b5060408301516200585260c0840182620057e0565b506060838101515160e084015260808085015180516001600160a01b039081166101008088019190915260208301519091166101208701526040820151610140870152928101516101608601529081015161018085015260a0908101516101a085015284015190620058c96101c0850183620045ce565b60c08501519150620058e06101e0850183620045ce565b60e0850151610200850152840151610220808501529050620042e361024084018262005465565b8781526000602060018060a01b03808a168285015260e060408501526200593260e085018a62004b49565b818916606086015287608086015284810360a086015262005954818862005444565b85810360c0870152865480825260008881528581209350918501915b818110156200599057835485168352600193840193928601920162005970565b50909d9c50505050505050505050505050565b8581526001600160a01b03858116602083015284811660408301528316606082015260a060808201819052600090620044419083018462005444565b6000808354620059ef8162005164565b6001828116801562005a0a576001811462005a205762005a51565b60ff198416875282151583028701945062005a51565b8760005260208060002060005b8581101562005a485781548a82015290840190820162005a2d565b50505082870194505b50929695505050505050565b634e487b7160e01b600052603160045260246000fd5b76020b1b1b2b9b9a1b7b73a3937b61d1030b1b1b7bab73a1604d1b81526000835162005aa781601785016020880162004b23565b7001034b99036b4b9b9b4b733903937b6329607d1b601791840191820152835162005ada81602884016020880162004b23565b01602801949350505050565b60006020828403121562005af957600080fd5b81516200426181620048d2565b60008162005b185762005b1862005054565b506000190190565b6000825162005b3481846020870162004b23565b919091019291505056fe60806040526040516104ec3803806104ec833981016040819052610022916102e9565b61002e82826000610035565b5050610406565b61003e83610061565b60008251118061004b5750805b1561005c5761005a83836100a1565b505b505050565b61006a816100cd565b6040516001600160a01b038216907fbc7cd75a20ee27fd9adebab32041f755214dbc6bffa90cc0225b39da2e5c2d3b90600090a250565b60606100c683836040518060600160405280602781526020016104c56027913961017e565b9392505050565b6100d6816101f7565b61013d5760405162461bcd60e51b815260206004820152602d60248201527f455243313936373a206e657720696d706c656d656e746174696f6e206973206e60448201526c1bdd08184818dbdb9d1c9858dd609a1b60648201526084015b60405180910390fd5b7f360894a13ba1a3210667c828492db98dca3e2076cc3735a920a3ca505d382bbc80546001600160a01b0319166001600160a01b0392909216919091179055565b6060600080856001600160a01b03168560405161019b91906103b7565b600060405180830381855af49150503d80600081146101d6576040519150601f19603f3d011682016040523d82523d6000602084013e6101db565b606091505b5090925090506101ed86838387610206565b9695505050505050565b6001600160a01b03163b151590565b6060831561027357825160000361026c57610220856101f7565b61026c5760405162461bcd60e51b815260206004820152601d60248201527f416464726573733a2063616c6c20746f206e6f6e2d636f6e74726163740000006044820152606401610134565b508161027d565b61027d8383610285565b949350505050565b8151156102955781518083602001fd5b8060405162461bcd60e51b815260040161013491906103d3565b634e487b7160e01b600052604160045260246000fd5b60005b838110156102e05781810151838201526020016102c8565b50506000910152565b600080604083850312156102fc57600080fd5b82516001600160a01b038116811461031357600080fd5b60208401519092506001600160401b038082111561033057600080fd5b818501915085601f83011261034457600080fd5b815181811115610356576103566102af565b604051601f8201601f19908116603f0116810190838211818310171561037e5761037e6102af565b8160405282815288602084870101111561039757600080fd5b6103a88360208301602088016102c5565b80955050505050509250929050565b600082516103c98184602087016102c5565b9190910192915050565b60208152600082518060208401526103f28160408501602087016102c5565b601f01601f19169190910160400192915050565b60b1806104146000396000f3fe608060405236601057600e6013565b005b600e5b601f601b6021565b6058565b565b600060537f360894a13ba1a3210667c828492db98dca3e2076cc3735a920a3ca505d382bbc546001600160a01b031690565b905090565b3660008037600080366000845af43d6000803e8080156076573d6000f35b3d6000fdfea26469706673582212200823673c0a10d18d317cca6b4146580cb0465a62303846173ba8846c992ad28c64736f6c63430008130033416464726573733a206c6f772d6c6576656c2064656c65676174652063616c6c206661696c656403be538b6391ddcd7f2649585cc95b120c9e2a613f70714fbb55345057d809fa46756e6374696f6e206d7573742062652063616c6c6564207468726f75676820360894a13ba1a3210667c828492db98dca3e2076cc3735a920a3ca505d382bbc416464726573733a206c6f772d6c6576656c2064656c65676174652063616c6c206661696c6564a2646970667358221220608466a793e4bfa6a603c7204e9a2da07a564df4ad8630330be79547fa7fe68964736f6c63430008130033","linkReferences":{}},"methodIdentifiers":{"COUNCIL_MEMBER()":"733a2d1f","DEFAULT_ADMIN_ROLE()":"a217fddf","MAX_FEE()":"bc063e1a","NATIVE()":"a0cf0aea","PRECISION_SCALE()":"d7050f07","VERSION()":"ffa1ad74","acceptCouncilSafe()":"b5058c50","activateMemberInStrategy(address,address)":"0d4a8b49","addStrategy(address)":"223e5479","addStrategyByPoolId(uint256)":"82d6a1e7","addressToMemberInfo(address)":"88cfe684","allo()":"d6d8428d","cloneNonce()":"33960459","collateralVaultTemplate()":"77122d56","communityFee()":"8961be6b","communityName()":"c6d572ae","councilSafe()":"6c53db9a","covenantIpfsHash()":"b64e39af","createPool(address,((uint256,uint256,uint256,uint256),uint8,uint8,(uint256),(address,address,uint256,uint256,uint256,uint256),address,address,uint256,address[]),(uint256,string))":"e0eab988","createPool(address,address,((uint256,uint256,uint256,uint256),uint8,uint8,(uint256),(address,address,uint256,uint256,uint256,uint256),address,address,uint256,address[]),(uint256,string))":"f24b150f","deactivateMemberInStrategy(address,address)":"22bcf999","decreasePower(uint256)":"5ecf71c5","enabledStrategies(address)":"3a871fe1","feeReceiver()":"b3f00674","gardenToken()":"db61d65c","getBasisStakedAmount()":"0331383c","getMemberPowerInStrategy(address,address)":"7817ee4f","getMemberStakedAmount(address)":"2c611c4a","getRoleAdmin(bytes32)":"248a9ca3","getStakeAmountWithFees()":"28c309e9","grantRole(bytes32,address)":"2f2ff15d","hasRole(bytes32,address)":"91d14854","increasePower(uint256)":"559de05d","initialize((address,address,uint256,uint256,uint256,address,address,(uint256,string),address,string,bool,string),address,address,address)":"34196355","initialize(address)":"c4d66de8","isCouncilMember(address)":"ebd7dc52","isKickEnabled()":"1f787d28","isMember(address)":"a230c524","kickMember(address,address)":"6871eb4d","memberActivatedInStrategies(address,address)":"477a5cc0","memberPowerInStrategy(address,address)":"65e3864c","onlyStrategyEnabled(address)":"411481e6","owner()":"8da5cb5b","pendingCouncilSafe()":"68decabb","profileId()":"08386eba","proxiableUUID()":"52d1902d","proxyOwner()":"025313a2","registerStakeAmount()":"78a0b8a9","registry()":"7b103999","registryFactory()":"f86c5f89","rejectPool(address)":"fb1f6917","removeStrategy(address)":"175188e8","removeStrategyByPoolId(uint256)":"73265c37","renounceOwnership()":"715018a6","renounceRole(bytes32,address)":"36568abe","revokeRole(bytes32,address)":"d547741f","setBasisStakedAmount(uint256)":"31f61bca","setCollateralVaultTemplate(address)":"b0d3713a","setCommunityFee(uint256)":"0d12bbdb","setCommunityParams((address,address,uint256,string,uint256,bool,string))":"f2d774e7","setCouncilSafe(address)":"397e2543","setStrategyTemplate(address)":"1b71f0e4","stakeAndRegisterMember(string)":"9a1f46e2","strategiesByMember(address,uint256)":"2b38c69c","strategyTemplate()":"5c94e4d2","supportsInterface(bytes4)":"01ffc9a7","totalMembers()":"76e92559","transferOwnership(address)":"f2fde38b","unregisterMember()":"b99b4370","upgradeTo(address)":"3659cfe6","upgradeToAndCall(address,bytes)":"4f1ef286"},"storageLayout":{"storage":[{"astId":52990,"contract":"pkg/contracts/src/RegistryCommunity/RegistryCommunityV0_0.sol:RegistryCommunityV0_0","label":"_initialized","offset":0,"slot":"0","type":"t_uint8"},{"astId":52993,"contract":"pkg/contracts/src/RegistryCommunity/RegistryCommunityV0_0.sol:RegistryCommunityV0_0","label":"_initializing","offset":1,"slot":"0","type":"t_bool"},{"astId":53695,"contract":"pkg/contracts/src/RegistryCommunity/RegistryCommunityV0_0.sol:RegistryCommunityV0_0","label":"__gap","offset":0,"slot":"1","type":"t_array(t_uint256)50_storage"},{"astId":52782,"contract":"pkg/contracts/src/RegistryCommunity/RegistryCommunityV0_0.sol:RegistryCommunityV0_0","label":"_owner","offset":0,"slot":"51","type":"t_address"},{"astId":52902,"contract":"pkg/contracts/src/RegistryCommunity/RegistryCommunityV0_0.sol:RegistryCommunityV0_0","label":"__gap","offset":0,"slot":"52","type":"t_array(t_uint256)49_storage"},{"astId":53167,"contract":"pkg/contracts/src/RegistryCommunity/RegistryCommunityV0_0.sol:RegistryCommunityV0_0","label":"_status","offset":0,"slot":"101","type":"t_uint256"},{"astId":53236,"contract":"pkg/contracts/src/RegistryCommunity/RegistryCommunityV0_0.sol:RegistryCommunityV0_0","label":"__gap","offset":0,"slot":"102","type":"t_array(t_uint256)49_storage"},{"astId":53969,"contract":"pkg/contracts/src/RegistryCommunity/RegistryCommunityV0_0.sol:RegistryCommunityV0_0","label":"__gap","offset":0,"slot":"151","type":"t_array(t_uint256)50_storage"},{"astId":52389,"contract":"pkg/contracts/src/RegistryCommunity/RegistryCommunityV0_0.sol:RegistryCommunityV0_0","label":"_roles","offset":0,"slot":"201","type":"t_mapping(t_bytes32,t_struct(RoleData)52384_storage)"},{"astId":52696,"contract":"pkg/contracts/src/RegistryCommunity/RegistryCommunityV0_0.sol:RegistryCommunityV0_0","label":"__gap","offset":0,"slot":"202","type":"t_array(t_uint256)49_storage"},{"astId":70905,"contract":"pkg/contracts/src/RegistryCommunity/RegistryCommunityV0_0.sol:RegistryCommunityV0_0","label":"registerStakeAmount","offset":0,"slot":"251","type":"t_uint256"},{"astId":70908,"contract":"pkg/contracts/src/RegistryCommunity/RegistryCommunityV0_0.sol:RegistryCommunityV0_0","label":"communityFee","offset":0,"slot":"252","type":"t_uint256"},{"astId":70911,"contract":"pkg/contracts/src/RegistryCommunity/RegistryCommunityV0_0.sol:RegistryCommunityV0_0","label":"cloneNonce","offset":0,"slot":"253","type":"t_uint256"},{"astId":70914,"contract":"pkg/contracts/src/RegistryCommunity/RegistryCommunityV0_0.sol:RegistryCommunityV0_0","label":"profileId","offset":0,"slot":"254","type":"t_bytes32"},{"astId":70917,"contract":"pkg/contracts/src/RegistryCommunity/RegistryCommunityV0_0.sol:RegistryCommunityV0_0","label":"isKickEnabled","offset":0,"slot":"255","type":"t_bool"},{"astId":70920,"contract":"pkg/contracts/src/RegistryCommunity/RegistryCommunityV0_0.sol:RegistryCommunityV0_0","label":"feeReceiver","offset":1,"slot":"255","type":"t_address"},{"astId":70923,"contract":"pkg/contracts/src/RegistryCommunity/RegistryCommunityV0_0.sol:RegistryCommunityV0_0","label":"registryFactory","offset":0,"slot":"256","type":"t_address"},{"astId":70926,"contract":"pkg/contracts/src/RegistryCommunity/RegistryCommunityV0_0.sol:RegistryCommunityV0_0","label":"collateralVaultTemplate","offset":0,"slot":"257","type":"t_address"},{"astId":70929,"contract":"pkg/contracts/src/RegistryCommunity/RegistryCommunityV0_0.sol:RegistryCommunityV0_0","label":"strategyTemplate","offset":0,"slot":"258","type":"t_address"},{"astId":70932,"contract":"pkg/contracts/src/RegistryCommunity/RegistryCommunityV0_0.sol:RegistryCommunityV0_0","label":"pendingCouncilSafe","offset":0,"slot":"259","type":"t_address_payable"},{"astId":70936,"contract":"pkg/contracts/src/RegistryCommunity/RegistryCommunityV0_0.sol:RegistryCommunityV0_0","label":"registry","offset":0,"slot":"260","type":"t_contract(IRegistry)2802"},{"astId":70940,"contract":"pkg/contracts/src/RegistryCommunity/RegistryCommunityV0_0.sol:RegistryCommunityV0_0","label":"gardenToken","offset":0,"slot":"261","type":"t_contract(IERC20)56528"},{"astId":70944,"contract":"pkg/contracts/src/RegistryCommunity/RegistryCommunityV0_0.sol:RegistryCommunityV0_0","label":"councilSafe","offset":0,"slot":"262","type":"t_contract(ISafe)74633"},{"astId":70948,"contract":"pkg/contracts/src/RegistryCommunity/RegistryCommunityV0_0.sol:RegistryCommunityV0_0","label":"allo","offset":0,"slot":"263","type":"t_contract(FAllo)74366"},{"astId":70951,"contract":"pkg/contracts/src/RegistryCommunity/RegistryCommunityV0_0.sol:RegistryCommunityV0_0","label":"communityName","offset":0,"slot":"264","type":"t_string_storage"},{"astId":70954,"contract":"pkg/contracts/src/RegistryCommunity/RegistryCommunityV0_0.sol:RegistryCommunityV0_0","label":"covenantIpfsHash","offset":0,"slot":"265","type":"t_string_storage"},{"astId":70959,"contract":"pkg/contracts/src/RegistryCommunity/RegistryCommunityV0_0.sol:RegistryCommunityV0_0","label":"enabledStrategies","offset":0,"slot":"266","type":"t_mapping(t_address,t_bool)"},{"astId":70966,"contract":"pkg/contracts/src/RegistryCommunity/RegistryCommunityV0_0.sol:RegistryCommunityV0_0","label":"memberPowerInStrategy","offset":0,"slot":"267","type":"t_mapping(t_address,t_mapping(t_address,t_uint256))"},{"astId":70972,"contract":"pkg/contracts/src/RegistryCommunity/RegistryCommunityV0_0.sol:RegistryCommunityV0_0","label":"addressToMemberInfo","offset":0,"slot":"268","type":"t_mapping(t_address,t_struct(Member)70683_storage)"},{"astId":70978,"contract":"pkg/contracts/src/RegistryCommunity/RegistryCommunityV0_0.sol:RegistryCommunityV0_0","label":"strategiesByMember","offset":0,"slot":"269","type":"t_mapping(t_address,t_array(t_address)dyn_storage)"},{"astId":70985,"contract":"pkg/contracts/src/RegistryCommunity/RegistryCommunityV0_0.sol:RegistryCommunityV0_0","label":"memberActivatedInStrategies","offset":0,"slot":"270","type":"t_mapping(t_address,t_mapping(t_address,t_bool))"},{"astId":70989,"contract":"pkg/contracts/src/RegistryCommunity/RegistryCommunityV0_0.sol:RegistryCommunityV0_0","label":"initialMembers","offset":0,"slot":"271","type":"t_array(t_address)dyn_storage"},{"astId":70992,"contract":"pkg/contracts/src/RegistryCommunity/RegistryCommunityV0_0.sol:RegistryCommunityV0_0","label":"totalMembers","offset":0,"slot":"272","type":"t_uint256"},{"astId":72843,"contract":"pkg/contracts/src/RegistryCommunity/RegistryCommunityV0_0.sol:RegistryCommunityV0_0","label":"__gap","offset":0,"slot":"273","type":"t_array(t_uint256)49_storage"}],"types":{"t_address":{"encoding":"inplace","label":"address","numberOfBytes":"20"},"t_address_payable":{"encoding":"inplace","label":"address payable","numberOfBytes":"20"},"t_array(t_address)dyn_storage":{"encoding":"dynamic_array","label":"address[]","numberOfBytes":"32","base":"t_address"},"t_array(t_uint256)49_storage":{"encoding":"inplace","label":"uint256[49]","numberOfBytes":"1568","base":"t_uint256"},"t_array(t_uint256)50_storage":{"encoding":"inplace","label":"uint256[50]","numberOfBytes":"1600","base":"t_uint256"},"t_bool":{"encoding":"inplace","label":"bool","numberOfBytes":"1"},"t_bytes32":{"encoding":"inplace","label":"bytes32","numberOfBytes":"32"},"t_contract(FAllo)74366":{"encoding":"inplace","label":"contract FAllo","numberOfBytes":"20"},"t_contract(IERC20)56528":{"encoding":"inplace","label":"contract IERC20","numberOfBytes":"20"},"t_contract(IRegistry)2802":{"encoding":"inplace","label":"contract IRegistry","numberOfBytes":"20"},"t_contract(ISafe)74633":{"encoding":"inplace","label":"contract ISafe","numberOfBytes":"20"},"t_mapping(t_address,t_array(t_address)dyn_storage)":{"encoding":"mapping","key":"t_address","label":"mapping(address => address[])","numberOfBytes":"32","value":"t_array(t_address)dyn_storage"},"t_mapping(t_address,t_bool)":{"encoding":"mapping","key":"t_address","label":"mapping(address => bool)","numberOfBytes":"32","value":"t_bool"},"t_mapping(t_address,t_mapping(t_address,t_bool))":{"encoding":"mapping","key":"t_address","label":"mapping(address => mapping(address => bool))","numberOfBytes":"32","value":"t_mapping(t_address,t_bool)"},"t_mapping(t_address,t_mapping(t_address,t_uint256))":{"encoding":"mapping","key":"t_address","label":"mapping(address => mapping(address => uint256))","numberOfBytes":"32","value":"t_mapping(t_address,t_uint256)"},"t_mapping(t_address,t_struct(Member)70683_storage)":{"encoding":"mapping","key":"t_address","label":"mapping(address => struct Member)","numberOfBytes":"32","value":"t_struct(Member)70683_storage"},"t_mapping(t_address,t_uint256)":{"encoding":"mapping","key":"t_address","label":"mapping(address => uint256)","numberOfBytes":"32","value":"t_uint256"},"t_mapping(t_bytes32,t_struct(RoleData)52384_storage)":{"encoding":"mapping","key":"t_bytes32","label":"mapping(bytes32 => struct AccessControlUpgradeable.RoleData)","numberOfBytes":"32","value":"t_struct(RoleData)52384_storage"},"t_string_storage":{"encoding":"bytes","label":"string","numberOfBytes":"32"},"t_struct(Member)70683_storage":{"encoding":"inplace","label":"struct Member","numberOfBytes":"96","members":[{"astId":70678,"contract":"pkg/contracts/src/RegistryCommunity/RegistryCommunityV0_0.sol:RegistryCommunityV0_0","label":"member","offset":0,"slot":"0","type":"t_address"},{"astId":70680,"contract":"pkg/contracts/src/RegistryCommunity/RegistryCommunityV0_0.sol:RegistryCommunityV0_0","label":"stakedAmount","offset":0,"slot":"1","type":"t_uint256"},{"astId":70682,"contract":"pkg/contracts/src/RegistryCommunity/RegistryCommunityV0_0.sol:RegistryCommunityV0_0","label":"isRegistered","offset":0,"slot":"2","type":"t_bool"}]},"t_struct(RoleData)52384_storage":{"encoding":"inplace","label":"struct AccessControlUpgradeable.RoleData","numberOfBytes":"64","members":[{"astId":52381,"contract":"pkg/contracts/src/RegistryCommunity/RegistryCommunityV0_0.sol:RegistryCommunityV0_0","label":"members","offset":0,"slot":"0","type":"t_mapping(t_address,t_bool)"},{"astId":52383,"contract":"pkg/contracts/src/RegistryCommunity/RegistryCommunityV0_0.sol:RegistryCommunityV0_0","label":"adminRole","offset":0,"slot":"1","type":"t_bytes32"}]},"t_uint256":{"encoding":"inplace","label":"uint256","numberOfBytes":"32"},"t_uint8":{"encoding":"inplace","label":"uint8","numberOfBytes":"1"}}},"id":105}