{"abi":[{"type":"function","name":"COUNCIL_MEMBER","inputs":[],"outputs":[{"name":"","type":"bytes32","internalType":"bytes32"}],"stateMutability":"view"},{"type":"function","name":"DEFAULT_ADMIN_ROLE","inputs":[],"outputs":[{"name":"","type":"bytes32","internalType":"bytes32"}],"stateMutability":"view"},{"type":"function","name":"MAX_FEE","inputs":[],"outputs":[{"name":"","type":"uint256","internalType":"uint256"}],"stateMutability":"view"},{"type":"function","name":"NATIVE","inputs":[],"outputs":[{"name":"","type":"address","internalType":"address"}],"stateMutability":"view"},{"type":"function","name":"PRECISION_SCALE","inputs":[],"outputs":[{"name":"","type":"uint256","internalType":"uint256"}],"stateMutability":"view"},{"type":"function","name":"acceptCouncilSafe","inputs":[],"outputs":[],"stateMutability":"nonpayable"},{"type":"function","name":"activateMemberInStrategy","inputs":[{"name":"_member","type":"address","internalType":"address"},{"name":"_strategy","type":"address","internalType":"address"}],"outputs":[],"stateMutability":"nonpayable"},{"type":"function","name":"addStrategy","inputs":[{"name":"_newStrategy","type":"address","internalType":"address"}],"outputs":[],"stateMutability":"nonpayable"},{"type":"function","name":"addStrategyByPoolId","inputs":[{"name":"poolId","type":"uint256","internalType":"uint256"}],"outputs":[],"stateMutability":"nonpayable"},{"type":"function","name":"addressToMemberInfo","inputs":[{"name":"member","type":"address","internalType":"address"}],"outputs":[{"name":"member","type":"address","internalType":"address"},{"name":"stakedAmount","type":"uint256","internalType":"uint256"},{"name":"isRegistered","type":"bool","internalType":"bool"}],"stateMutability":"view"},{"type":"function","name":"allo","inputs":[],"outputs":[{"name":"","type":"address","internalType":"contract FAllo"}],"stateMutability":"view"},{"type":"function","name":"cloneNonce","inputs":[],"outputs":[{"name":"","type":"uint256","internalType":"uint256"}],"stateMutability":"view"},{"type":"function","name":"communityFee","inputs":[],"outputs":[{"name":"","type":"uint256","internalType":"uint256"}],"stateMutability":"view"},{"type":"function","name":"communityName","inputs":[],"outputs":[{"name":"","type":"string","internalType":"string"}],"stateMutability":"view"},{"type":"function","name":"councilSafe","inputs":[],"outputs":[{"name":"","type":"address","internalType":"contract ISafe"}],"stateMutability":"view"},{"type":"function","name":"covenantIpfsHash","inputs":[],"outputs":[{"name":"","type":"string","internalType":"string"}],"stateMutability":"view"},{"type":"function","name":"createPool","inputs":[{"name":"_token","type":"address","internalType":"address"},{"name":"_params","type":"tuple","internalType":"struct StrategyStruct.InitializeParams","components":[{"name":"cvParams","type":"tuple","internalType":"struct StrategyStruct.CVParams","components":[{"name":"maxRatio","type":"uint256","internalType":"uint256"},{"name":"weight","type":"uint256","internalType":"uint256"},{"name":"decay","type":"uint256","internalType":"uint256"},{"name":"minThresholdPoints","type":"uint256","internalType":"uint256"}]},{"name":"proposalType","type":"uint8","internalType":"enum StrategyStruct.ProposalType"},{"name":"pointSystem","type":"uint8","internalType":"enum StrategyStruct.PointSystem"},{"name":"pointConfig","type":"tuple","internalType":"struct StrategyStruct.PointSystemConfig","components":[{"name":"maxAmount","type":"uint256","internalType":"uint256"}]},{"name":"arbitrableConfig","type":"tuple","internalType":"struct StrategyStruct.ArbitrableConfig","components":[{"name":"arbitrator","type":"address","internalType":"contract IArbitrator"},{"name":"tribunalSafe","type":"address","internalType":"address"},{"name":"submitterCollateralAmount","type":"uint256","internalType":"uint256"},{"name":"challengerCollateralAmount","type":"uint256","internalType":"uint256"},{"name":"defaultRuling","type":"uint256","internalType":"uint256"},{"name":"defaultRulingTimeout","type":"uint256","internalType":"uint256"}]},{"name":"registryCommunity","type":"address","internalType":"address"},{"name":"sybilScorer","type":"address","internalType":"address"}]},{"name":"_metadata","type":"tuple","internalType":"struct Metadata","components":[{"name":"protocol","type":"uint256","internalType":"uint256"},{"name":"pointer","type":"string","internalType":"string"}]}],"outputs":[{"name":"poolId","type":"uint256","internalType":"uint256"},{"name":"strategy","type":"address","internalType":"address"}],"stateMutability":"nonpayable"},{"type":"function","name":"createPool","inputs":[{"name":"_strategy","type":"address","internalType":"address"},{"name":"_token","type":"address","internalType":"address"},{"name":"_params","type":"tuple","internalType":"struct StrategyStruct.InitializeParams","components":[{"name":"cvParams","type":"tuple","internalType":"struct StrategyStruct.CVParams","components":[{"name":"maxRatio","type":"uint256","internalType":"uint256"},{"name":"weight","type":"uint256","internalType":"uint256"},{"name":"decay","type":"uint256","internalType":"uint256"},{"name":"minThresholdPoints","type":"uint256","internalType":"uint256"}]},{"name":"proposalType","type":"uint8","internalType":"enum StrategyStruct.ProposalType"},{"name":"pointSystem","type":"uint8","internalType":"enum StrategyStruct.PointSystem"},{"name":"pointConfig","type":"tuple","internalType":"struct StrategyStruct.PointSystemConfig","components":[{"name":"maxAmount","type":"uint256","internalType":"uint256"}]},{"name":"arbitrableConfig","type":"tuple","internalType":"struct StrategyStruct.ArbitrableConfig","components":[{"name":"arbitrator","type":"address","internalType":"contract IArbitrator"},{"name":"tribunalSafe","type":"address","internalType":"address"},{"name":"submitterCollateralAmount","type":"uint256","internalType":"uint256"},{"name":"challengerCollateralAmount","type":"uint256","internalType":"uint256"},{"name":"defaultRuling","type":"uint256","internalType":"uint256"},{"name":"defaultRulingTimeout","type":"uint256","internalType":"uint256"}]},{"name":"registryCommunity","type":"address","internalType":"address"},{"name":"sybilScorer","type":"address","internalType":"address"}]},{"name":"_metadata","type":"tuple","internalType":"struct Metadata","components":[{"name":"protocol","type":"uint256","internalType":"uint256"},{"name":"pointer","type":"string","internalType":"string"}]}],"outputs":[{"name":"poolId","type":"uint256","internalType":"uint256"},{"name":"strategy","type":"address","internalType":"address"}],"stateMutability":"nonpayable"},{"type":"function","name":"deactivateMemberInStrategy","inputs":[{"name":"_member","type":"address","internalType":"address"},{"name":"_strategy","type":"address","internalType":"address"}],"outputs":[],"stateMutability":"nonpayable"},{"type":"function","name":"decreasePower","inputs":[{"name":"_amountUnstaked","type":"uint256","internalType":"uint256"}],"outputs":[],"stateMutability":"nonpayable"},{"type":"function","name":"enabledStrategies","inputs":[{"name":"strategy","type":"address","internalType":"address"}],"outputs":[{"name":"isEnabled","type":"bool","internalType":"bool"}],"stateMutability":"view"},{"type":"function","name":"feeReceiver","inputs":[],"outputs":[{"name":"","type":"address","internalType":"address"}],"stateMutability":"view"},{"type":"function","name":"gardenToken","inputs":[],"outputs":[{"name":"","type":"address","internalType":"contract IERC20"}],"stateMutability":"view"},{"type":"function","name":"getBasisStakedAmount","inputs":[],"outputs":[{"name":"","type":"uint256","internalType":"uint256"}],"stateMutability":"view"},{"type":"function","name":"getMemberPowerInStrategy","inputs":[{"name":"_member","type":"address","internalType":"address"},{"name":"_strategy","type":"address","internalType":"address"}],"outputs":[{"name":"","type":"uint256","internalType":"uint256"}],"stateMutability":"view"},{"type":"function","name":"getMemberStakedAmount","inputs":[{"name":"_member","type":"address","internalType":"address"}],"outputs":[{"name":"","type":"uint256","internalType":"uint256"}],"stateMutability":"view"},{"type":"function","name":"getRoleAdmin","inputs":[{"name":"role","type":"bytes32","internalType":"bytes32"}],"outputs":[{"name":"","type":"bytes32","internalType":"bytes32"}],"stateMutability":"view"},{"type":"function","name":"getStakeAmountWithFees","inputs":[],"outputs":[{"name":"","type":"uint256","internalType":"uint256"}],"stateMutability":"view"},{"type":"function","name":"grantRole","inputs":[{"name":"role","type":"bytes32","internalType":"bytes32"},{"name":"account","type":"address","internalType":"address"}],"outputs":[],"stateMutability":"nonpayable"},{"type":"function","name":"hasRole","inputs":[{"name":"role","type":"bytes32","internalType":"bytes32"},{"name":"account","type":"address","internalType":"address"}],"outputs":[{"name":"","type":"bool","internalType":"bool"}],"stateMutability":"view"},{"type":"function","name":"increasePower","inputs":[{"name":"_amountStaked","type":"uint256","internalType":"uint256"}],"outputs":[],"stateMutability":"nonpayable"},{"type":"function","name":"initialize","inputs":[{"name":"params","type":"tuple","internalType":"struct RegistryCommunityV0_0.InitializeParams","components":[{"name":"_allo","type":"address","internalType":"address"},{"name":"_gardenToken","type":"address","internalType":"contract IERC20"},{"name":"_registerStakeAmount","type":"uint256","internalType":"uint256"},{"name":"_communityFee","type":"uint256","internalType":"uint256"},{"name":"_nonce","type":"uint256","internalType":"uint256"},{"name":"_registryFactory","type":"address","internalType":"address"},{"name":"_feeReceiver","type":"address","internalType":"address"},{"name":"_metadata","type":"tuple","internalType":"struct Metadata","components":[{"name":"protocol","type":"uint256","internalType":"uint256"},{"name":"pointer","type":"string","internalType":"string"}]},{"name":"_councilSafe","type":"address","internalType":"address payable"},{"name":"_communityName","type":"string","internalType":"string"},{"name":"_isKickEnabled","type":"bool","internalType":"bool"},{"name":"covenantIpfsHash","type":"string","internalType":"string"},{"name":"_strategyTemplate","type":"address","internalType":"address"}]},{"name":"_collateralVaultTemplate","type":"address","internalType":"address"}],"outputs":[],"stateMutability":"nonpayable"},{"type":"function","name":"isCouncilMember","inputs":[{"name":"_member","type":"address","internalType":"address"}],"outputs":[{"name":"","type":"bool","internalType":"bool"}],"stateMutability":"view"},{"type":"function","name":"isKickEnabled","inputs":[],"outputs":[{"name":"","type":"bool","internalType":"bool"}],"stateMutability":"view"},{"type":"function","name":"isMember","inputs":[{"name":"_member","type":"address","internalType":"address"}],"outputs":[{"name":"_isMember","type":"bool","internalType":"bool"}],"stateMutability":"view"},{"type":"function","name":"kickMember","inputs":[{"name":"_member","type":"address","internalType":"address"},{"name":"_transferAddress","type":"address","internalType":"address"}],"outputs":[],"stateMutability":"nonpayable"},{"type":"function","name":"memberActivatedInStrategies","inputs":[{"name":"member","type":"address","internalType":"address"},{"name":"strategy","type":"address","internalType":"address"}],"outputs":[{"name":"isActivated","type":"bool","internalType":"bool"}],"stateMutability":"view"},{"type":"function","name":"memberPowerInStrategy","inputs":[{"name":"strategy","type":"address","internalType":"address"},{"name":"member","type":"address","internalType":"address"}],"outputs":[{"name":"power","type":"uint256","internalType":"uint256"}],"stateMutability":"view"},{"type":"function","name":"owner","inputs":[],"outputs":[{"name":"","type":"address","internalType":"address"}],"stateMutability":"view"},{"type":"function","name":"pendingCouncilSafe","inputs":[],"outputs":[{"name":"","type":"address","internalType":"address payable"}],"stateMutability":"view"},{"type":"function","name":"profileId","inputs":[],"outputs":[{"name":"","type":"bytes32","internalType":"bytes32"}],"stateMutability":"view"},{"type":"function","name":"proxiableUUID","inputs":[],"outputs":[{"name":"","type":"bytes32","internalType":"bytes32"}],"stateMutability":"view"},{"type":"function","name":"registerStakeAmount","inputs":[],"outputs":[{"name":"","type":"uint256","internalType":"uint256"}],"stateMutability":"view"},{"type":"function","name":"registry","inputs":[],"outputs":[{"name":"","type":"address","internalType":"contract IRegistry"}],"stateMutability":"view"},{"type":"function","name":"registryFactory","inputs":[],"outputs":[{"name":"","type":"address","internalType":"address"}],"stateMutability":"view"},{"type":"function","name":"removeStrategy","inputs":[{"name":"_strategy","type":"address","internalType":"address"}],"outputs":[],"stateMutability":"nonpayable"},{"type":"function","name":"removeStrategyByPoolId","inputs":[{"name":"poolId","type":"uint256","internalType":"uint256"}],"outputs":[],"stateMutability":"nonpayable"},{"type":"function","name":"renounceOwnership","inputs":[],"outputs":[],"stateMutability":"nonpayable"},{"type":"function","name":"renounceRole","inputs":[{"name":"role","type":"bytes32","internalType":"bytes32"},{"name":"account","type":"address","internalType":"address"}],"outputs":[],"stateMutability":"nonpayable"},{"type":"function","name":"revokeRole","inputs":[{"name":"role","type":"bytes32","internalType":"bytes32"},{"name":"account","type":"address","internalType":"address"}],"outputs":[],"stateMutability":"nonpayable"},{"type":"function","name":"setBasisStakedAmount","inputs":[{"name":"_newAmount","type":"uint256","internalType":"uint256"}],"outputs":[],"stateMutability":"nonpayable"},{"type":"function","name":"setCommunityFee","inputs":[{"name":"_newCommunityFee","type":"uint256","internalType":"uint256"}],"outputs":[],"stateMutability":"nonpayable"},{"type":"function","name":"setCouncilSafe","inputs":[{"name":"_safe","type":"address","internalType":"address payable"}],"outputs":[],"stateMutability":"nonpayable"},{"type":"function","name":"stakeAndRegisterMember","inputs":[],"outputs":[],"stateMutability":"nonpayable"},{"type":"function","name":"strategiesByMember","inputs":[{"name":"member","type":"address","internalType":"address"},{"name":"","type":"uint256","internalType":"uint256"}],"outputs":[{"name":"strategiesAddresses","type":"address","internalType":"address"}],"stateMutability":"view"},{"type":"function","name":"strategyTemplate","inputs":[],"outputs":[{"name":"","type":"address","internalType":"address"}],"stateMutability":"view"},{"type":"function","name":"supportsInterface","inputs":[{"name":"interfaceId","type":"bytes4","internalType":"bytes4"}],"outputs":[{"name":"","type":"bool","internalType":"bool"}],"stateMutability":"view"},{"type":"function","name":"transferOwnership","inputs":[{"name":"newOwner","type":"address","internalType":"address"}],"outputs":[],"stateMutability":"nonpayable"},{"type":"function","name":"unregisterMember","inputs":[],"outputs":[],"stateMutability":"nonpayable"},{"type":"function","name":"upgradeTo","inputs":[{"name":"newImplementation","type":"address","internalType":"address"}],"outputs":[],"stateMutability":"nonpayable"},{"type":"function","name":"upgradeToAndCall","inputs":[{"name":"newImplementation","type":"address","internalType":"address"},{"name":"data","type":"bytes","internalType":"bytes"}],"outputs":[],"stateMutability":"payable"},{"type":"event","name":"AdminChanged","inputs":[{"name":"previousAdmin","type":"address","indexed":false,"internalType":"address"},{"name":"newAdmin","type":"address","indexed":false,"internalType":"address"}],"anonymous":false},{"type":"event","name":"AlloSet","inputs":[{"name":"_allo","type":"address","indexed":false,"internalType":"address"}],"anonymous":false},{"type":"event","name":"BasisStakedAmountSet","inputs":[{"name":"_newAmount","type":"uint256","indexed":false,"internalType":"uint256"}],"anonymous":false},{"type":"event","name":"BeaconUpgraded","inputs":[{"name":"beacon","type":"address","indexed":true,"internalType":"address"}],"anonymous":false},{"type":"event","name":"CommunityFeeUpdated","inputs":[{"name":"_newFee","type":"uint256","indexed":false,"internalType":"uint256"}],"anonymous":false},{"type":"event","name":"CouncilSafeChangeStarted","inputs":[{"name":"_safeOwner","type":"address","indexed":false,"internalType":"address"},{"name":"_newSafeOwner","type":"address","indexed":false,"internalType":"address"}],"anonymous":false},{"type":"event","name":"CouncilSafeSet","inputs":[{"name":"_safe","type":"address","indexed":false,"internalType":"address"}],"anonymous":false},{"type":"event","name":"Initialized","inputs":[{"name":"version","type":"uint8","indexed":false,"internalType":"uint8"}],"anonymous":false},{"type":"event","name":"Log","inputs":[{"name":"message","type":"string","indexed":false,"internalType":"string"}],"anonymous":false},{"type":"event","name":"Log","inputs":[{"name":"message","type":"bytes","indexed":false,"internalType":"bytes"}],"anonymous":false},{"type":"event","name":"MemberActivatedStrategy","inputs":[{"name":"_member","type":"address","indexed":false,"internalType":"address"},{"name":"_strategy","type":"address","indexed":false,"internalType":"address"},{"name":"_pointsToIncrease","type":"uint256","indexed":false,"internalType":"uint256"}],"anonymous":false},{"type":"event","name":"MemberDeactivatedStrategy","inputs":[{"name":"_member","type":"address","indexed":false,"internalType":"address"},{"name":"_strategy","type":"address","indexed":false,"internalType":"address"}],"anonymous":false},{"type":"event","name":"MemberKicked","inputs":[{"name":"_member","type":"address","indexed":false,"internalType":"address"},{"name":"_transferAddress","type":"address","indexed":false,"internalType":"address"},{"name":"_amountReturned","type":"uint256","indexed":false,"internalType":"uint256"}],"anonymous":false},{"type":"event","name":"MemberPowerDecreased","inputs":[{"name":"_member","type":"address","indexed":false,"internalType":"address"},{"name":"_unstakedAmount","type":"uint256","indexed":false,"internalType":"uint256"}],"anonymous":false},{"type":"event","name":"MemberPowerIncreased","inputs":[{"name":"_member","type":"address","indexed":false,"internalType":"address"},{"name":"_stakedAmount","type":"uint256","indexed":false,"internalType":"uint256"}],"anonymous":false},{"type":"event","name":"MemberRegistered","inputs":[{"name":"_member","type":"address","indexed":false,"internalType":"address"},{"name":"_amountStaked","type":"uint256","indexed":false,"internalType":"uint256"}],"anonymous":false},{"type":"event","name":"MemberUnregistered","inputs":[{"name":"_member","type":"address","indexed":false,"internalType":"address"},{"name":"_amountReturned","type":"uint256","indexed":false,"internalType":"uint256"}],"anonymous":false},{"type":"event","name":"OwnershipTransferred","inputs":[{"name":"previousOwner","type":"address","indexed":true,"internalType":"address"},{"name":"newOwner","type":"address","indexed":true,"internalType":"address"}],"anonymous":false},{"type":"event","name":"PoolCreated","inputs":[{"name":"_poolId","type":"uint256","indexed":false,"internalType":"uint256"},{"name":"_strategy","type":"address","indexed":false,"internalType":"address"},{"name":"_community","type":"address","indexed":false,"internalType":"address"},{"name":"_token","type":"address","indexed":false,"internalType":"address"},{"name":"_metadata","type":"tuple","indexed":false,"internalType":"struct Metadata","components":[{"name":"protocol","type":"uint256","internalType":"uint256"},{"name":"pointer","type":"string","internalType":"string"}]}],"anonymous":false},{"type":"event","name":"RegistryInitialized","inputs":[{"name":"_profileId","type":"bytes32","indexed":false,"internalType":"bytes32"},{"name":"_communityName","type":"string","indexed":false,"internalType":"string"},{"name":"_metadata","type":"tuple","indexed":false,"internalType":"struct Metadata","components":[{"name":"protocol","type":"uint256","internalType":"uint256"},{"name":"pointer","type":"string","internalType":"string"}]}],"anonymous":false},{"type":"event","name":"RoleAdminChanged","inputs":[{"name":"role","type":"bytes32","indexed":true,"internalType":"bytes32"},{"name":"previousAdminRole","type":"bytes32","indexed":true,"internalType":"bytes32"},{"name":"newAdminRole","type":"bytes32","indexed":true,"internalType":"bytes32"}],"anonymous":false},{"type":"event","name":"RoleGranted","inputs":[{"name":"role","type":"bytes32","indexed":true,"internalType":"bytes32"},{"name":"account","type":"address","indexed":true,"internalType":"address"},{"name":"sender","type":"address","indexed":true,"internalType":"address"}],"anonymous":false},{"type":"event","name":"RoleRevoked","inputs":[{"name":"role","type":"bytes32","indexed":true,"internalType":"bytes32"},{"name":"account","type":"address","indexed":true,"internalType":"address"},{"name":"sender","type":"address","indexed":true,"internalType":"address"}],"anonymous":false},{"type":"event","name":"StrategyAdded","inputs":[{"name":"_strategy","type":"address","indexed":false,"internalType":"address"}],"anonymous":false},{"type":"event","name":"StrategyRemoved","inputs":[{"name":"_strategy","type":"address","indexed":false,"internalType":"address"}],"anonymous":false},{"type":"event","name":"Upgraded","inputs":[{"name":"implementation","type":"address","indexed":true,"internalType":"address"}],"anonymous":false},{"type":"error","name":"AddressCannotBeZero","inputs":[]},{"type":"error","name":"CantDecreaseMoreThanPower","inputs":[{"name":"_decreaseAmount","type":"uint256","internalType":"uint256"},{"name":"_currentPower","type":"uint256","internalType":"uint256"}]},{"type":"error","name":"DecreaseUnderMinimum","inputs":[]},{"type":"error","name":"KickNotEnabled","inputs":[]},{"type":"error","name":"NewFeeGreaterThanMax","inputs":[]},{"type":"error","name":"PointsDeactivated","inputs":[]},{"type":"error","name":"RegistryCannotBeZero","inputs":[]},{"type":"error","name":"SenderNotNewOwner","inputs":[]},{"type":"error","name":"SenderNotStrategy","inputs":[]},{"type":"error","name":"StrategyDisabled","inputs":[]},{"type":"error","name":"StrategyExists","inputs":[]},{"type":"error","name":"UserAlreadyActivated","inputs":[]},{"type":"error","name":"UserAlreadyDeactivated","inputs":[]},{"type":"error","name":"UserAlreadyRegistered","inputs":[]},{"type":"error","name":"UserNotGardenOwner","inputs":[]},{"type":"error","name":"UserNotInCouncil","inputs":[{"name":"_user","type":"address","internalType":"address"}]},{"type":"error","name":"UserNotInRegistry","inputs":[]},{"type":"error","name":"ValueCannotBeZero","inputs":[]}],"bytecode":{"object":"0x60a06040523060805234801561001457600080fd5b506080516159f66200004d600039600081816115e601528181611629015281816117240152818161176701526118ac01526159f66000f3fe608060405260043610620002f05760003560e01c806301ffc9a714620002f55780630331383c146200032f57806308386eba14620003505780630d12bbdb14620003685780630d4a8b49146200038f578063175188e814620003b45780631f787d2814620003d9578063223e547914620003f657806322bcf999146200041b578063248a9ca3146200044057806328c309e914620004655780632b38c69c146200047d5780632c611c4a14620004b15780632f2ff15d14620004ef57806331f61bca14620005145780633396045914620005395780633517aa7d146200055157806336568abe14620005695780633659cfe6146200058e578063397e254314620005b35780633a871fe114620005d8578063477a5cc0146200060d5780634f1ef286146200064d578063524e59e8146200066457806352d1902d14620006a7578063559de05d14620006bf5780635c94e4d214620006e45780635ecf71c5146200070757806365e3864c146200072c5780636871eb4d146200076957806368decabb146200078e5780636c53db9a14620007b1578063715018a614620007d457806373265c3714620007ec578063733a2d1f14620008115780637817ee4f146200083657806378a0b8a914620008815780637b103999146200089957806382d6a1e714620008bc57806388cfe68414620008e15780638961be6b14620009575780638da5cb5b146200096f57806391d148541462000987578063a0cf0aea14620009ac578063a217fddf14620009d6578063a230c52414620009ed578063b3f006741462000a12578063b5058c501462000a38578063b64e39af1462000a50578063b99b43701462000a77578063bc063e1a1462000a8f578063c6d572ae1462000aa7578063d547741f1462000abf578063d6d8428d1462000ae4578063d7050f071462000b07578063db61d65c1462000b1f578063e16d0e321462000b42578063ebd7dc521462000b67578063f2fde38b1462000b8c578063f86c5f891462000bb1578063fa50f53d1462000bd4575b600080fd5b3480156200030257600080fd5b506200031a6200031436600462004136565b62000bf9565b60405190151581526020015b60405180910390f35b3480156200033c57600080fd5b5060fc545b60405190815260200162000326565b3480156200035d57600080fd5b506200034160ff5481565b3480156200037557600080fd5b506200038d6200038736600462004162565b62000c31565b005b3480156200039c57600080fd5b506200038d620003ae366004620041a4565b62000ca7565b348015620003c157600080fd5b506200038d620003d3366004620041e2565b62001015565b348015620003e657600080fd5b50610100546200031a9060ff1681565b3480156200040357600080fd5b506200038d62000415366004620041e2565b6200102d565b3480156200042857600080fd5b506200038d6200043a366004620041a4565b62001042565b3480156200044d57600080fd5b50620003416200045f36600462004162565b6200113c565b3480156200047257600080fd5b506200034162001151565b3480156200048a57600080fd5b50620004a26200049c36600462004202565b62001256565b6040516200032691906200423e565b348015620004be57600080fd5b5062000341620004d0366004620041e2565b6001600160a01b0316600090815261010c602052604090206001015490565b348015620004fc57600080fd5b506200038d6200050e36600462004252565b62001290565b3480156200052157600080fd5b506200038d6200053336600462004162565b620012b7565b3480156200054657600080fd5b506200034160fe5481565b3480156200055e57600080fd5b506200038d620012f7565b3480156200057657600080fd5b506200038d6200058836600462004252565b62001556565b3480156200059b57600080fd5b506200038d620005ad366004620041e2565b620015dc565b348015620005c057600080fd5b506200038d620005d2366004620041e2565b620016ad565b348015620005e557600080fd5b506200031a620005f7366004620041e2565b61010a6020526000908152604090205460ff1681565b3480156200061a57600080fd5b506200031a6200062c366004620041a4565b61010e60209081526000928352604080842090915290825290205460ff1681565b6200038d6200065e366004620043ee565b6200171a565b3480156200067157600080fd5b506200068962000683366004620046a9565b620017db565b604080519283526001600160a01b0390911660208301520162000326565b348015620006b457600080fd5b50620003416200189f565b348015620006cc57600080fd5b506200038d620006de36600462004162565b62001951565b348015620006f157600080fd5b5061010254620004a2906001600160a01b031681565b3480156200071457600080fd5b506200038d6200072636600462004162565b62001b9d565b3480156200073957600080fd5b50620003416200074b366004620041a4565b61010b60209081526000928352604080842090915290825290205481565b3480156200077657600080fd5b506200038d62000788366004620041a4565b62001f37565b3480156200079b57600080fd5b5061010354620004a2906001600160a01b031681565b348015620007be57600080fd5b5061010654620004a2906001600160a01b031681565b348015620007e157600080fd5b506200038d620020ec565b348015620007f957600080fd5b506200038d6200080b36600462004162565b62002102565b3480156200081e57600080fd5b50620003416000805160206200593a83398151915281565b3480156200084357600080fd5b506200034162000855366004620041a4565b6001600160a01b03918216600090815261010b6020908152604080832093909416825291909152205490565b3480156200088e57600080fd5b506200034160fc5481565b348015620008a657600080fd5b5061010454620004a2906001600160a01b031681565b348015620008c957600080fd5b506200038d620008db36600462004162565b6200219e565b348015620008ee57600080fd5b506200092f62000900366004620041e2565b61010c602052600090815260409020805460018201546002909201546001600160a01b03909116919060ff1683565b604080516001600160a01b039094168452602084019290925215159082015260600162000326565b3480156200096457600080fd5b506200034160fd5481565b3480156200097c57600080fd5b50620004a26200225c565b3480156200099457600080fd5b506200031a620009a636600462004252565b6200226b565b348015620009b957600080fd5b50620004a273eeeeeeeeeeeeeeeeeeeeeeeeeeeeeeeeeeeeeeee81565b348015620009e357600080fd5b5062000341600081565b348015620009fa57600080fd5b506200031a62000a0c366004620041e2565b62002296565b34801562000a1f57600080fd5b506101008054620004a2916001600160a01b0391041681565b34801562000a4557600080fd5b506200038d620022e0565b34801562000a5d57600080fd5b5062000a6862002317565b60405162000326919062004767565b34801562000a8457600080fd5b506200038d620023ae565b34801562000a9c57600080fd5b506200034162002516565b34801562000ab457600080fd5b5062000a6862002528565b34801562000acc57600080fd5b506200038d62000ade36600462004252565b62002538565b34801562000af157600080fd5b5061010754620004a2906001600160a01b031681565b34801562000b1457600080fd5b506200034161271081565b34801562000b2c57600080fd5b5061010554620004a2906001600160a01b031681565b34801562000b4f57600080fd5b506200068962000b613660046200477c565b6200255a565b34801562000b7457600080fd5b506200031a62000b86366004620041e2565b620026e7565b34801562000b9957600080fd5b506200038d62000bab366004620041e2565b62002704565b34801562000bbe57600080fd5b5061010154620004a2906001600160a01b031681565b34801562000be157600080fd5b506200038d62000bf336600462004817565b62002780565b60006001600160e01b03198216637965db0b60e01b148062000c2b57506301ffc9a760e01b6001600160e01b03198316145b92915050565b62000c3b62002ef9565b62000c4a612710600a620049b1565b81111562000c6b5760405163fe925f7d60e01b815260040160405180910390fd5b60fd8190556040518181527f611668bfcf654a99c33cdb66c29ec37a5aae5c1287d2d9715a24e18cb4d806d6906020015b60405180910390a150565b62000cb28262002f36565b62000cbd8162002f5f565b62000cc88162002f9a565b6001600160a01b03808316600090815261010e602090815260408083209385168352929052205460ff161562000d1157604051636adcde4b60e11b815260040160405180910390fd5b6001600160a01b03808316600090815261010c602090815260409182902082516060810184528154909416845260018101549184018290526002015460ff1615159183019190915260fc546003846001600160a01b031663c32921716040518163ffffffff1660e01b81526004016020604051808303816000875af115801562000d9f573d6000803e3d6000fd5b505050506040513d601f19601f8201168201806040525081019062000dc59190620049e1565b600381111562000dd95762000dd9620049cb565b0362000e5e5760405163782aadff60e01b81526001600160a01b0385169063782aadff9062000e1090889060009060040162004a01565b6020604051808303816000875af115801562000e30573d6000803e3d6000fd5b505050506040513d601f19601f8201168201806040525081019062000e56919062004a1a565b905062000f5a565b6000846001600160a01b031663c32921716040518163ffffffff1660e01b81526004016020604051808303816000875af115801562000ea1573d6000803e3d6000fd5b505050506040513d601f19601f8201168201806040525081019062000ec79190620049e1565b600381111562000edb5762000edb620049cb565b1462000f5a5760405163782aadff60e01b81526001600160a01b0385169063782aadff9062000f11908890869060040162004a01565b6020604051808303816000875af115801562000f31573d6000803e3d6000fd5b505050506040513d601f19601f8201168201806040525081019062000f57919062004a1a565b90505b6001600160a01b03808616600081815261010b6020908152604080832094891680845294825280832086905583835261010e82528083208584528252808320805460ff1916600190811790915593835261010d8252808320805494850181558352912090910180546001600160a01b031916909217909155517ff56fa57e85e169a12200d12d9921ec069b52e688f6d309d9dab7bceff54614ec90620010069087908790859062004a34565b60405180910390a15050505050565b6200101f62002ef9565b6200102a8162002fc2565b50565b6200103762002ef9565b6200102a8162003020565b6200104d8262002f36565b620010588162002f9a565b620010643382620030b2565b6001600160a01b03808316600090815261010e602090815260408083209385168352929052205460ff16620010ac57604051633048da7760e21b815260040160405180910390fd5b6001600160a01b03808316600081815261010e60209081526040808320948616808452948252808320805460ff1916905592825261010b815282822093825292909252812055620010fe8282620030e5565b7ede109bef4619f7e2cf00c8e5a50ca55f8deb44f87087eed414a91dbf8d1d1b82826040516200113092919062004a58565b60405180910390a15050565b600090815260c9602052604090206001015490565b610101546000906001600160a01b031681620011716127106064620049b1565b60fd5460fc54620011839190620049b1565b6200118f919062004a72565b90506000620011a26127106064620049b1565b6040516302a64b8360e21b81526001600160a01b03851690630a992e0c90620011d09030906004016200423e565b602060405180830381865afa158015620011ee573d6000803e3d6000fd5b505050506040513d601f19601f8201168201806040525081019062001214919062004a1a565b60fc54620012239190620049b1565b6200122f919062004a72565b9050808260fc5462001242919062004a95565b6200124e919062004a95565b935050505090565b61010d60205281600052604060002081815481106200127457600080fd5b6000918252602090912001546001600160a01b03169150829050565b6200129b826200113c565b620012a6816200321b565b620012b2838362003227565b505050565b620012c162002ef9565b60fc8190556040518181527f5bcc2c453001fb0e2ba6266d56ecb411e7c6e15c8f9c3d301f93dd36ad25726f9060200162000c9c565b62001301620032b1565b33600081815261010c602052604081206101015490916001600160a01b0390911690620013326127106064620049b1565b60fd5460fc54620013449190620049b1565b62001350919062004a72565b90506000620013636127106064620049b1565b6040516302a64b8360e21b81526001600160a01b03851690630a992e0c90620013919030906004016200423e565b602060405180830381865afa158015620013af573d6000803e3d6000fd5b505050506040513d601f19601f82011682018060405250810190620013d5919062004a1a565b60fc54620013e49190620049b1565b620013f0919062004a72565b9050620013fd8562002296565b620015445760028401805460ff1916600190811790915560fc5490850181905562001457908690309084906200143590879062004a95565b62001441919062004a95565b610105546001600160a01b03169291906200330c565b8115620014815761010080546101055462001481926001600160a01b039182169204168462003368565b8015620015065762001506836001600160a01b031663987435be6040518163ffffffff1660e01b8152600401602060405180830381865afa158015620014cb573d6000803e3d6000fd5b505050506040513d601f19601f82011682018060405250810190620014f1919062004ab8565b610105546001600160a01b0316908362003368565b7f67e0244e28040fec15240cd4b6c04c776a2a0278caef23b59e8ada1df31f76898560fc546040516200153b92919062004a01565b60405180910390a15b5050505050620015546001606555565b565b6001600160a01b0381163314620015cc5760405162461bcd60e51b815260206004820152602f60248201527f416363657373436f6e74726f6c3a2063616e206f6e6c792072656e6f756e636560448201526e103937b632b9903337b91039b2b63360891b60648201526084015b60405180910390fd5b620015d8828262003391565b5050565b6001600160a01b037f0000000000000000000000000000000000000000000000000000000000000000163003620016275760405162461bcd60e51b8152600401620015c39062004ad8565b7f00000000000000000000000000000000000000000000000000000000000000006001600160a01b03166200165b620033fb565b6001600160a01b031614620016845760405162461bcd60e51b8152600401620015c39062004b13565b6200168f8162003418565b604080516000808252602082019092526200102a9183919062003422565b620016b762002ef9565b620016c28162002f9a565b61010380546001600160a01b0319166001600160a01b03838116918217909255610106546040517f83eac9fdaff0ac1017624b7eddeb9782e3d707cd894073cb7e8301a41c6e5cf89362000c9c939216919062004a58565b6001600160a01b037f0000000000000000000000000000000000000000000000000000000000000000163003620017655760405162461bcd60e51b8152600401620015c39062004ad8565b7f00000000000000000000000000000000000000000000000000000000000000006001600160a01b031662001799620033fb565b6001600160a01b031614620017c25760405162461bcd60e51b8152600401620015c39062004b13565b620017cd8262003418565b620015d88282600162003422565b610102546101075460fb54604051600093849384936001600160a01b039283169363784d200b60e11b936200181893811692169060240162004a58565b60408051601f198184030181529181526020820180516001600160e01b03166001600160e01b0319909416939093179092529051620018579062004087565b6200186492919062004b4e565b604051809103906000f08015801562001881573d6000803e3d6000fd5b50905062001892818787876200255a565b9250925050935093915050565b6000306001600160a01b037f000000000000000000000000000000000000000000000000000000000000000016146200193c5760405162461bcd60e51b815260206004820152603860248201527f555550535570677261646561626c653a206d757374206e6f742062652063616c6044820152771b1959081d1a1c9bdd59da0819195b1959d85d1958d85b1b60421b6064820152608401620015c3565b506000805160206200597a8339815191525b90565b6200195b620032b1565b620019656200359a565b33600081815261010d6020908152604080832080548251818502810185019093528083529192909190830182828015620019c957602002820191906000526020600020905b81546001600160a01b03168152600190910190602001808311620019aa575b50505050509050600080600090505b825181101562001b0457828181518110620019f757620019f762004b74565b60200260200101516001600160a01b031663782aadff85876040518363ffffffff1660e01b815260040162001a2e92919062004a01565b6020604051808303816000875af115801562001a4e573d6000803e3d6000fd5b505050506040513d601f19601f8201168201806040525081019062001a74919062004a1a565b9150811562001aef576001600160a01b038416600090815261010b60205260408120845184929086908590811062001ab05762001ab062004b74565b60200260200101516001600160a01b03166001600160a01b03168152602001908152602001600020600082825462001ae9919062004a95565b90915550505b8062001afb8162004b8a565b915050620019d8565b506101055462001b20906001600160a01b03168430876200330c565b6001600160a01b038316600090815261010c60205260408120600101805486929062001b4e90849062004a95565b90915550506040517f576605f9bfe8911e7508bed3763c7c5c8eb3b86e8b360b90a4bc6abe1104cb7f9062001b87908590879062004a01565b60405180910390a15050506200102a6001606555565b62001ba7620032b1565b62001bb16200359a565b33600081815261010d6020908152604080832060fc5461010c909352908320600101549092919062001be590869062004ba6565b101562001c0557604051634e23e81760e11b815260040160405180910390fd5b6101055462001c1f906001600160a01b0316848662003368565b60005b825481101562001ecf57600083828154811062001c435762001c4362004b74565b6000918252602090912001546001600160a01b0316905062001c6d8163f1801e6160e01b620035c3565b1562001df357604051632ed04b2b60e01b81526001600160a01b03821690632ed04b2b9062001ca39088908a9060040162004a01565b6020604051808303816000875af115801562001cc3573d6000803e3d6000fd5b505050506040513d601f19601f8201168201806040525081019062001ce9919062004a1a565b9250600061010b6000876001600160a01b03166001600160a01b03168152602001908152602001600020600086858154811062001d2a5762001d2a62004b74565b60009182526020808320909101546001600160a01b0316835282019290925260400190205490508084111562001d7e576040516311423e6360e31b81526004810185905260248101829052604401620015c3565b6001600160a01b038616600090815261010b60205260408120865486929088908790811062001db15762001db162004b74565b60009182526020808320909101546001600160a01b031683528201929092526040018120805490919062001de790849062004ba6565b90915550505062001eb9565b8354849062001e059060019062004ba6565b8154811062001e185762001e1862004b74565b9060005260206000200160009054906101000a90046001600160a01b031684838154811062001e4b5762001e4b62004b74565b9060005260206000200160006101000a8154816001600160a01b0302191690836001600160a01b031602179055508380548062001e8c5762001e8c62004bbc565b600082815260209020810160001990810180546001600160a01b031916905501905562001eb98162002fc2565b508062001ec68162004b8a565b91505062001c22565b506001600160a01b038316600090815261010c60205260408120600101805486929062001efe90849062004ba6565b90915550506040517f6ee2c70b2d6b89ae808a2313aab43e925c06624271419cd665d85cfa1ae04ff89062001b87908590879062004a01565b62001f41620032b1565b62001f4b62002ef9565b6101005460ff1662001f70576040516365b1ee3960e11b815260040160405180910390fd5b62001f7b8262002296565b62001f9957604051636a5cfb6d60e01b815260040160405180910390fd5b6001600160a01b03808316600090815261010c60209081526040918290208251606081018452815490941684526001810154918401919091526002015460ff1615159082015262001fea83620035eb565b6001600160a01b03808416600090815261010c6020908152604080832080546001600160a01b031916815560018101939093556002909201805460ff191690556101055490840151915163a9059cbb60e01b815292169163a9059cbb91620020589186919060040162004a01565b6020604051808303816000875af115801562002078573d6000803e3d6000fd5b505050506040513d601f19601f820116820180604052508101906200209e919062004bd2565b507fb5946f249f8744efe9d14d49a483b54a589b1362944ff6694de93456cceb96a383838360200151604051620020d89392919062004a34565b60405180910390a150620015d86001606555565b620020f662003700565b62001554600062003763565b6200210c62002ef9565b6101075460405163068bcd8d60e01b8152600481018390526000916001600160a01b03169063068bcd8d90602401600060405180830381865afa15801562002158573d6000803e3d6000fd5b505050506040513d6000823e601f3d908101601f1916820160405262002182919081019062004c9e565b602001519050620021938162002f9a565b620015d88162002fc2565b620021a862002ef9565b6101075460405163068bcd8d60e01b8152600481018390526000916001600160a01b03169063068bcd8d90602401600060405180830381865afa158015620021f4573d6000803e3d6000fd5b505050506040513d6000823e601f3d908101601f191682016040526200221e919081019062004c9e565b6020015190506200222f8162002f9a565b6200224b6001600160a01b03821663f1801e6160e01b620035c3565b15620015d857620015d88162003020565b6033546001600160a01b031690565b600091825260c9602090815260408084206001600160a01b0393909316845291905290205460ff1690565b6001600160a01b03908116600090815261010c60209081526040918290208251606081018452815490941684526001810154918401919091526002015460ff161515910181905290565b610103546001600160a01b031633146200230d576040516375e686b760e11b815260040160405180910390fd5b62001554620037b5565b6101098054620023279062004d5f565b80601f0160208091040260200160405190810160405280929190818152602001828054620023559062004d5f565b8015620023a65780601f106200237a57610100808354040283529160200191620023a6565b820191906000526020600020905b8154815290600101906020018083116200238857829003601f168201915b505050505081565b620023b8620032b1565b33620023c48162002f36565b620023cf81620035eb565b6001600160a01b03808216600081815261010c602090815260408083208151606081018352815496871681526001820180548286015260028301805460ff81161515848701529787526001600160a01b03199098169092559084905560ff1990941690945561010d905291822090916200244a919062004095565b61010554602082015160405163a9059cbb60e01b81526001600160a01b039092169163a9059cbb91620024839186919060040162004a01565b6020604051808303816000875af1158015620024a3573d6000803e3d6000fd5b505050506040513d601f19601f82011682018060405250810190620024c9919062004bd2565b507fa13f4668aacb68c4e9eed8e3f6e1cbec3eca776896ec46b5eabcc3983fc8f5f48282602001516040516200250192919062004a01565b60405180910390a15050620015546001606555565b62002525612710600a620049b1565b81565b6101088054620023279062004d5f565b62002543826200113c565b6200254e816200321b565b620012b2838362003391565b60008073eeeeeeeeeeeeeeeeeeeeeeeeeeeeeeeeeeeeeeee6001600160a01b03861615620025855750845b869150600061010f805480602002602001604051908101604052809291908181526020018280548015620025e357602002820191906000526020600020905b81546001600160a01b03168152600190910190602001808311620025c4575b50506101075460ff546040519596506001600160a01b039091169463e1007d4a94509092508791506200261b908b9060200162004dc5565b6040516020818303038152906040528660008b886040518863ffffffff1660e01b815260040162002653979695949392919062004f0e565b6020604051808303816000875af115801562002673573d6000803e3d6000fd5b505050506040513d601f19601f8201168201806040525081019062002699919062004a1a565b93507f778cac0ae0b66477341553a4a89398c61ccf448313d3354ad0ca85a5a825d2838484308a89604051620026d495949392919062004f7f565b60405180910390a1505094509492505050565b600062000c2b6000805160206200593a833981519152836200226b565b6200270e62003700565b6001600160a01b038116620027755760405162461bcd60e51b815260206004820152602660248201527f4f776e61626c653a206e6577206f776e657220697320746865207a65726f206160448201526564647265737360d01b6064820152608401620015c3565b6200102a8162003763565b600054610100900460ff1615808015620027a15750600054600160ff909116105b80620027c65750620027b33062003819565b158015620027c6575060005460ff166001145b6200282b5760405162461bcd60e51b815260206004820152602e60248201527f496e697469616c697a61626c653a20636f6e747261637420697320616c72656160448201526d191e481a5b9a5d1a585b1a5e995960921b6064820152608401620015c3565b6000805460ff1916600117905580156200284f576000805461ff0019166101001790555b6200285962003828565b620028636200385c565b6200286d62003890565b620028896000805160206200593a8339815191526000620038ba565b62002898836020015162002f9a565b620028a883610100015162002f9a565b8251620028b59062002f9a565b620028c48360a0015162002f9a565b620028d483610180015162002f9a565b606083015115620028ee57620028ee8360c0015162002f9a565b825161010780546001600160a01b039283166001600160a01b03199182161790915560208501516101058054919093169116179055604083015160000362002949576040516363868c5560e11b815260040160405180910390fd5b604083015160fc55606083015160fd55610140830151610100805460ff1916911515919091179055610120830151610108906200298790826200500d565b50610160830151610109906200299e90826200500d565b5060a083015161010180546001600160a01b03199081166001600160a01b039384161790915560c08501516101008054610100600160a81b0319169184168102919091178155850151610106805483168285161790556101808601516101028054909316931692909217905562002a26906000805160206200593a8339815191529062003227565b61010760009054906101000a90046001600160a01b03166001600160a01b0316635ab1bd536040518163ffffffff1660e01b8152600401602060405180830381865afa15801562002a7b573d6000803e3d6000fd5b505050506040513d601f19601f8201168201806040525081019062002aa1919062004ab8565b61010480546001600160a01b0319166001600160a01b03928316179055610106546040805163a0e67e2b60e01b81529051606093929092169163a0e67e2b916004808201926000929091908290030181865afa92505050801562002b2957506040513d6000823e601f3d908101601f1916820160405262002b269190810190620050d9565b60015b62002c595762002b3862005198565b806308c379a00362002bf4575062002b4f620051b4565b8062002b5c575062002bf6565b604080516003808252608082019092529060208201606080368337019050509150338260008151811062002b945762002b9462004b74565b60200260200101906001600160a01b031690816001600160a01b0316815250507fcf34ef537ac33ee1ac626ca1587a0a7e8e51561e5514f8cb36afa1c5102b3bab8160405162002be5919062004767565b60405180910390a15062002d1e565b505b3d80801562002c22576040519150601f19603f3d011682016040523d82523d6000602084013e62002c27565b606091505b507fafabcf2dd47e06a477a89e49c03f8ebe8e0a7e94f775b25bbb24227c9d0110b28160405162002be5919062004767565b805162002c6890600262004a95565b6001600160401b0381111562002c825762002c826200427a565b60405190808252806020026020018201604052801562002cac578160200160208202803683370190505b50915060005b815181101562002d1b5781818151811062002cd15762002cd162004b74565b602002602001015183828151811062002cee5762002cee62004b74565b6001600160a01b03909216602092830291909101909101528062002d128162004b8a565b91505062002cb2565b50505b6101065481516001600160a01b0390911690829062002d409060019062004ba6565b8151811062002d535762002d5362004b74565b60200260200101906001600160a01b031690816001600160a01b03168152505030816002835162002d85919062004ba6565b8151811062002d985762002d9862004b74565b6001600160a01b03928316602091820292909201015261010454608086015160e0870151604051633a92f65f60e01b81529290931692633a92f65f9262002deb92916101089130908890600401620052c8565b6020604051808303816000875af115801562002e0b573d6000803e3d6000fd5b505050506040513d601f19601f8201168201806040525081019062002e31919062004a1a565b60ff55805162002e4a9061010f906020840190620040b5565b5060fb80546001600160a01b0319166001600160a01b03851617905560ff5460e08501516040517f2f2ffcb06f8a1d35e2716f6b43ef2c19bfa76467d8f66964ae12c2583ed032059262002ea5929091610108919062005328565b60405180910390a1508015620012b2576000805461ff0019169055604051600181527f7f26b83ff96e1f2b6a682f133852f6798a09c465da95921460cefb38474024989060200160405180910390a1505050565b62002f146000805160206200593a833981519152336200226b565b62001554573360405163fc4be72f60e01b8152600401620015c391906200423e565b62002f418162002296565b6200102a57604051636a5cfb6d60e01b815260040160405180910390fd5b6001600160a01b038116600090815261010a602052604090205460ff166200102a576040516346c26e4b60e01b815260040160405180910390fd5b6001600160a01b0381166200102a576040516303988b8160e61b815260040160405180910390fd5b62002fcd8162002f9a565b6001600160a01b038116600090815261010a602052604090819020805460ff19169055517f09a1db4b80c32706328728508c941a6b954f31eb5affd32f236c1fd405f8fea49062000c9c9083906200423e565b6001600160a01b038116600090815261010a602052604090205460ff16156200305c576040516325a2934b60e21b815260040160405180910390fd5b6001600160a01b038116600090815261010a602052604090819020805460ff19166001179055517f3f008fd510eae7a9e7bee13513d7b83bef8003d488b5a3d0b0da4de71d6846f19062000c9c9083906200423e565b806001600160a01b0316826001600160a01b031614620015d85760405163bbe7961160e01b815260040160405180910390fd5b6001600160a01b038216600090815261010d60205260408120905b81548110156200321557826001600160a01b031682828154811062003129576200312962004b74565b6000918252602090912001546001600160a01b031603620032005781548290620031569060019062004ba6565b8154811062003169576200316962004b74565b9060005260206000200160009054906101000a90046001600160a01b03168282815481106200319c576200319c62004b74565b9060005260206000200160006101000a8154816001600160a01b0302191690836001600160a01b0316021790555081805480620031dd57620031dd62004bbc565b600082815260209020810160001990810180546001600160a01b03191690550190555b806200320c8162004b8a565b91505062003100565b50505050565b6200102a81336200390f565b6200323382826200226b565b620015d857600082815260c9602090815260408083206001600160a01b03851684529091529020805460ff191660011790556200326d3390565b6001600160a01b0316816001600160a01b0316837f2f8788117e7eff1d82e926ec794901d17c78024a50270940304540a733656f0d60405160405180910390a45050565b600260655403620033055760405162461bcd60e51b815260206004820152601f60248201527f5265656e7472616e637947756172643a207265656e7472616e742063616c6c006044820152606401620015c3565b6002606555565b62003215846323b872dd60e01b858585604051602401620033309392919062004a34565b60408051601f198184030181529190526020810180516001600160e01b03166001600160e01b03199093169290921790915262003973565b620012b28363a9059cbb60e01b84846040516024016200333092919062004a01565b6001606555565b6200339d82826200226b565b15620015d857600082815260c9602090815260408083206001600160a01b0385168085529252808320805460ff1916905551339285917ff6391f5c32d9c69d2a47ea670b442974b53935d1edc7fd64eb21e047a839171b9190a45050565b6000805160206200597a833981519152546001600160a01b031690565b6200102a62003700565b7f4910fdfa16fed3260ed0e7147f7cc6da11a60208b5b9406d12a635614ffd91435460ff16156200345857620012b28362003a4f565b826001600160a01b03166352d1902d6040518163ffffffff1660e01b8152600401602060405180830381865afa925050508015620034b5575060408051601f3d908101601f19168201909252620034b29181019062004a1a565b60015b6200351a5760405162461bcd60e51b815260206004820152602e60248201527f45524331393637557067726164653a206e657720696d706c656d656e7461746960448201526d6f6e206973206e6f74205555505360901b6064820152608401620015c3565b6000805160206200597a83398151915281146200358c5760405162461bcd60e51b815260206004820152602960248201527f45524331393637557067726164653a20756e737570706f727465642070726f786044820152681a58589b195555525160ba1b6064820152608401620015c3565b50620012b283838362003aee565b620035a53362002296565b6200155457604051636a5cfb6d60e01b815260040160405180910390fd5b6000620035d08362003b19565b8015620035e45750620035e4838362003b51565b9392505050565b6001600160a01b038116600090815261010d60209081526040808320805482518185028101850190935280835291929091908301828280156200365857602002820191906000526020600020905b81546001600160a01b0316815260019091019060200180831162003639575b5050505050905060005b8151811015620012b25781818151811062003681576200368162004b74565b60200260200101516001600160a01b0316636453d9c4846040518263ffffffff1660e01b8152600401620036b691906200423e565b600060405180830381600087803b158015620036d157600080fd5b505af1158015620036e6573d6000803e3d6000fd5b505050508080620036f79062004b8a565b91505062003662565b336200370b6200225c565b6001600160a01b031614620015545760405162461bcd60e51b815260206004820181905260248201527f4f776e61626c653a2063616c6c6572206973206e6f7420746865206f776e65726044820152606401620015c3565b603380546001600160a01b038381166001600160a01b0319831681179093556040519116919082907f8be0079c531659141344cd1fd0a4f28419497f9722a3daafe3b4186f6b6457e090600090a35050565b610103805461010680546001600160a01b03199081166001600160a01b038416179091551690556040517fad0399dc40331b9a4977aa89da7a164a3fd482c65e6da73b25a94ea74fb68872906200380f906000906200423e565b60405180910390a1565b6001600160a01b03163b151590565b600054610100900460ff16620038525760405162461bcd60e51b8152600401620015c39062005357565b6200155462003bdc565b600054610100900460ff16620038865760405162461bcd60e51b8152600401620015c39062005357565b6200155462003c11565b600054610100900460ff16620015545760405162461bcd60e51b8152600401620015c39062005357565b6000620038c7836200113c565b600084815260c96020526040808220600101859055519192508391839186917fbd79b86ffe0ab8e8776151514217cd7cacd52c909f66475c3af44e129f0b00ff9190a4505050565b6200391b82826200226b565b620015d8576200392b8162003c3b565b6200393883602062003c4e565b6040516020016200394b929190620053a2565b60408051601f198184030181529082905262461bcd60e51b8252620015c39160040162004767565b6000620039ca826040518060400160405280602081526020017f5361666545524332303a206c6f772d6c6576656c2063616c6c206661696c6564815250856001600160a01b031662003e079092919063ffffffff16565b9050805160001480620039ee575080806020019051810190620039ee919062004bd2565b620012b25760405162461bcd60e51b815260206004820152602a60248201527f5361666545524332303a204552433230206f7065726174696f6e20646964206e6044820152691bdd081cdd58d8d9595960b21b6064820152608401620015c3565b62003a5a8162003819565b62003abe5760405162461bcd60e51b815260206004820152602d60248201527f455243313936373a206e657720696d706c656d656e746174696f6e206973206e60448201526c1bdd08184818dbdb9d1c9858dd609a1b6064820152608401620015c3565b6000805160206200597a83398151915280546001600160a01b0319166001600160a01b0392909216919091179055565b62003af98362003e20565b60008251118062003b075750805b15620012b25762003215838362003e62565b600062003b2e826301ffc9a760e01b62003b51565b801562000c2b575062003b4a826001600160e01b031962003b51565b1592915050565b604080516001600160e01b03198316602480830191909152825180830390910181526044909101909152602080820180516001600160e01b03166301ffc9a760e01b178152825160009392849283928392918391908a617530fa92503d9150600051905082801562003bc4575060208210155b801562003bd15750600081115b979650505050505050565b600054610100900460ff1662003c065760405162461bcd60e51b8152600401620015c39062005357565b620015543362003763565b600054610100900460ff166200338a5760405162461bcd60e51b8152600401620015c39062005357565b606062000c2b6001600160a01b03831660145b6060600062003c5f836002620049b1565b62003c6c90600262004a95565b6001600160401b0381111562003c865762003c866200427a565b6040519080825280601f01601f19166020018201604052801562003cb1576020820181803683370190505b509050600360fc1b8160008151811062003ccf5762003ccf62004b74565b60200101906001600160f81b031916908160001a905350600f60fb1b8160018151811062003d015762003d0162004b74565b60200101906001600160f81b031916908160001a905350600062003d27846002620049b1565b62003d3490600162004a95565b90505b600181111562003db6576f181899199a1a9b1b9c1cb0b131b232b360811b85600f166010811062003d6c5762003d6c62004b74565b1a60f81b82828151811062003d855762003d8562004b74565b60200101906001600160f81b031916908160001a90535060049490941c9362003dae8162005415565b905062003d37565b508315620035e45760405162461bcd60e51b815260206004820181905260248201527f537472696e67733a20686578206c656e67746820696e73756666696369656e746044820152606401620015c3565b606062003e18848460008562003e8a565b949350505050565b62003e2b8162003a4f565b6040516001600160a01b038216907fbc7cd75a20ee27fd9adebab32041f755214dbc6bffa90cc0225b39da2e5c2d3b90600090a250565b6060620035e483836040518060600160405280602781526020016200599a6027913962003f62565b60608247101562003eed5760405162461bcd60e51b815260206004820152602660248201527f416464726573733a20696e73756666696369656e742062616c616e636520666f6044820152651c8818d85b1b60d21b6064820152608401620015c3565b600080866001600160a01b0316858760405162003f0b91906200542f565b60006040518083038185875af1925050503d806000811462003f4a576040519150601f19603f3d011682016040523d82523d6000602084013e62003f4f565b606091505b509150915062003bd18783838762003fe0565b6060600080856001600160a01b03168560405162003f8191906200542f565b600060405180830381855af49150503d806000811462003fbe576040519150601f19603f3d011682016040523d82523d6000602084013e62003fc3565b606091505b509150915062003fd68683838762003fe0565b9695505050505050565b60608315620040545782516000036200404c5762003ffe8562003819565b6200404c5760405162461bcd60e51b815260206004820152601d60248201527f416464726573733a2063616c6c20746f206e6f6e2d636f6e74726163740000006044820152606401620015c3565b508162003e18565b62003e1883838151156200406b5781518083602001fd5b8060405162461bcd60e51b8152600401620015c3919062004767565b6104ec806200544e83390190565b50805460008255906000526020600020908101906200102a91906200411f565b8280548282559060005260206000209081019282156200410d579160200282015b828111156200410d57825182546001600160a01b0319166001600160a01b03909116178255602090920191600190910190620040d6565b506200411b9291506200411f565b5090565b5b808211156200411b576000815560010162004120565b6000602082840312156200414957600080fd5b81356001600160e01b031981168114620035e457600080fd5b6000602082840312156200417557600080fd5b5035919050565b6001600160a01b03811681146200102a57600080fd5b80356200419f816200417c565b919050565b60008060408385031215620041b857600080fd5b8235620041c5816200417c565b91506020830135620041d7816200417c565b809150509250929050565b600060208284031215620041f557600080fd5b8135620035e4816200417c565b600080604083850312156200421657600080fd5b823562004223816200417c565b946020939093013593505050565b6001600160a01b03169052565b6001600160a01b0391909116815260200190565b600080604083850312156200426657600080fd5b823591506020830135620041d7816200417c565b634e487b7160e01b600052604160045260246000fd5b60c081016001600160401b0381118282101715620042b257620042b26200427a565b60405250565b60e081016001600160401b0381118282101715620042b257620042b26200427a565b608081016001600160401b0381118282101715620042b257620042b26200427a565b604081016001600160401b0381118282101715620042b257620042b26200427a565b601f8201601f191681016001600160401b03811182821017156200434657620043466200427a565b6040525050565b6040516101a081016001600160401b03811182821017156200437357620043736200427a565b60405290565b60006001600160401b038211156200439557620043956200427a565b50601f01601f191660200190565b6000620043b08362004379565b604051620043bf82826200431e565b809250848152858585011115620043d557600080fd5b8484602083013760006020868301015250509392505050565b600080604083850312156200440257600080fd5b82356200440f816200417c565b915060208301356001600160401b038111156200442b57600080fd5b8301601f810185136200443d57600080fd5b6200444e85823560208401620043a3565b9150509250929050565b8035600381106200419f57600080fd5b600481106200102a57600080fd5b80356200419f8162004468565b6000602082840312156200449657600080fd5b604051602081016001600160401b0381118282101715620044bb57620044bb6200427a565b6040529135825250919050565b600060c08284031215620044db57600080fd5b604051620044e98162004290565b8091508235620044f9816200417c565b815260208301356200450b816200417c565b8060208301525060408301356040820152606083013560608201526080830135608082015260a083013560a08201525092915050565b60008183036101e08112156200455657600080fd5b6040516200456481620042b8565b80925060808212156200457657600080fd5b60405191506200458682620042da565b83358252602084013560208301526040840135604083015260608401356060830152818152620045b96080850162004458565b6020820152620045cc60a0850162004476565b6040820152620045e08560c0860162004483565b6060820152620045f48560e08601620044c8565b6080820152620046086101a0850162004192565b60a08201526200461c6101c0850162004192565b60c0820152505092915050565b600082601f8301126200463b57600080fd5b620035e483833560208501620043a3565b6000604082840312156200465f57600080fd5b6040516200466d81620042fc565b8235815290508060208301356001600160401b038111156200468e57600080fd5b6200469c8582860162004629565b6020830152505092915050565b60008060006102208486031215620046c057600080fd5b8335620046cd816200417c565b9250620046de856020860162004541565b91506102008401356001600160401b03811115620046fb57600080fd5b62004709868287016200464c565b9150509250925092565b60005b838110156200473057818101518382015260200162004716565b50506000910152565b600081518084526200475381602086016020860162004713565b601f01601f19169290920160200192915050565b602081526000620035e4602083018462004739565b60008060008061024085870312156200479457600080fd5b8435620047a1816200417c565b93506020850135620047b3816200417c565b9250620047c4866040870162004541565b91506102208501356001600160401b03811115620047e157600080fd5b620047ef878288016200464c565b91505092959194509250565b80151581146200102a57600080fd5b80356200419f81620047fb565b600080604083850312156200482b57600080fd5b82356001600160401b03808211156200484357600080fd5b908401906101a082870312156200485957600080fd5b620048636200434d565b6200486e8362004192565b81526200487e6020840162004192565b6020820152604083013560408201526060830135606082015260808301356080820152620048af60a0840162004192565b60a0820152620048c260c0840162004192565b60c082015260e083013582811115620048da57600080fd5b620048e8888286016200464c565b60e083015250610100620048fe81850162004192565b9082015261012083810135838111156200491757600080fd5b620049258982870162004629565b8284015250506101406200493b8185016200480a565b9082015261016083810135838111156200495457600080fd5b620049628982870162004629565b82840152505061018091506200497a82840162004192565b82820152809450505050620049926020840162004192565b90509250929050565b634e487b7160e01b600052601160045260246000fd5b808202811582820484141762000c2b5762000c2b6200499b565b634e487b7160e01b600052602160045260246000fd5b600060208284031215620049f457600080fd5b8151620035e48162004468565b6001600160a01b03929092168252602082015260400190565b60006020828403121562004a2d57600080fd5b5051919050565b6001600160a01b039384168152919092166020820152604081019190915260600190565b6001600160a01b0392831681529116602082015260400190565b60008262004a9057634e487b7160e01b600052601260045260246000fd5b500490565b8082018082111562000c2b5762000c2b6200499b565b80516200419f816200417c565b60006020828403121562004acb57600080fd5b8151620035e4816200417c565b6020808252602c908201526000805160206200595a83398151915260408201526b19195b1959d85d1958d85b1b60a21b606082015260800190565b6020808252602c908201526000805160206200595a83398151915260408201526b6163746976652070726f787960a01b606082015260800190565b6001600160a01b038316815260406020820181905260009062003e189083018462004739565b634e487b7160e01b600052603260045260246000fd5b60006001820162004b9f5762004b9f6200499b565b5060010190565b8181038181111562000c2b5762000c2b6200499b565b634e487b7160e01b600052603160045260246000fd5b60006020828403121562004be557600080fd5b8151620035e481620047fb565b60006040828403121562004c0557600080fd5b60405162004c1381620042fc565b82518152602083015190915081906001600160401b0381111562004c3657600080fd5b8301601f8101851362004c4857600080fd5b805162004c558162004379565b60405162004c6482826200431e565b82815287602084860101111562004c7a57600080fd5b62004c8d83602083016020870162004713565b806020860152505050505092915050565b60006020828403121562004cb157600080fd5b81516001600160401b038082111562004cc957600080fd5b9083019060c0828603121562004cde57600080fd5b60405162004cec8162004290565b82518152602083015162004d00816200417c565b602082015262004d136040840162004aab565b604082015260608301518281111562004d2b57600080fd5b62004d398782860162004bf2565b6060830152506080830151608082015260a083015160a082015280935050505092915050565b600181811c9082168062004d7457607f821691505b60208210810362004d9557634e487b7160e01b600052602260045260246000fd5b50919050565b6003811062004dae5762004dae620049cb565b9052565b6004811062004dae5762004dae620049cb565b60006101e08201905082518051835260208101516020840152604081015160408401526060810151606084015250602083015162004e07608084018262004d9b565b50604083015162004e1c60a084018262004db2565b506060838101515160c084015260808085015180516001600160a01b0390811660e087015260208201511661010086015260408101516101208601529182015161014085015281015161016084015260a09081015161018084015283015162004e8a6101a084018262004231565b5060c083015162004ea06101c084018262004231565b5092915050565b80518252600060208201516040602085015262003e18604085018262004739565b600081518084526020808501945080840160005b8381101562004f035781516001600160a01b03168752958201959082019060010162004edc565b509495945050505050565b878152600060018060a01b03808916602084015260e0604084015262004f3860e084018962004739565b818816606085015286608085015283810360a085015262004f5a818762004ea7565b91505082810360c084015262004f71818562004ec8565b9a9950505050505050505050565b8581526001600160a01b03858116602083015284811660408301528316606082015260a06080820181905260009062003bd19083018462004ea7565b601f821115620012b257600081815260208120601f850160051c8101602086101562004fe45750805b601f850160051c820191505b81811015620050055782815560010162004ff0565b505050505050565b81516001600160401b038111156200502957620050296200427a565b62005041816200503a845462004d5f565b8462004fbb565b602080601f831160018114620050795760008415620050605750858301515b600019600386901b1c1916600185901b17855562005005565b600085815260208120601f198616915b82811015620050aa5788860151825594840194600190910190840162005089565b5085821015620050c95787850151600019600388901b60f8161c191681555b5050505050600190811b01905550565b60006020808385031215620050ed57600080fd5b82516001600160401b03808211156200510557600080fd5b818501915085601f8301126200511a57600080fd5b8151818111156200512f576200512f6200427a565b8060051b915060405162005146858401826200431e565b818152918301840191848101888411156200516057600080fd5b938501935b838510156200518c57845192506200517d836200417c565b82815293850193850162005165565b50979650505050505050565b600060033d11156200194e5760046000803e5060005160e01c90565b600060443d1015620051c35790565b6040516003193d81016004833e81513d6001600160401b038083116024840183101715620051f357505050505090565b82850191508151818111156200520c5750505050505090565b843d8701016020828501011115620052275750505050505090565b62005238602082860101876200431e565b509095945050505050565b60008154620052528162004d5f565b8085526020600183811680156200527257600181146200528d57620052bd565b60ff1985168884015283151560051b880183019550620052bd565b866000528260002060005b85811015620052b55781548a820186015290830190840162005298565b890184019650505b505050505092915050565b85815260a060208201526000620052e360a083018762005243565b8281036040840152620052f7818762004ea7565b6001600160a01b0386166060850152838103608085015290506200531c818562004ec8565b98975050505050505050565b83815260606020820152600062005343606083018562005243565b828103604084015262003fd6818562004ea7565b6020808252602b908201527f496e697469616c697a61626c653a20636f6e7472616374206973206e6f74206960408201526a6e697469616c697a696e6760a81b606082015260800190565b76020b1b1b2b9b9a1b7b73a3937b61d1030b1b1b7bab73a1604d1b815260008351620053d681601785016020880162004713565b7001034b99036b4b9b9b4b733903937b6329607d1b60179184019182015283516200540981602884016020880162004713565b01602801949350505050565b6000816200542757620054276200499b565b506000190190565b600082516200544381846020870162004713565b919091019291505056fe60806040526040516104ec3803806104ec833981016040819052610022916102e9565b61002e82826000610035565b5050610406565b61003e83610061565b60008251118061004b5750805b1561005c5761005a83836100a1565b505b505050565b61006a816100cd565b6040516001600160a01b038216907fbc7cd75a20ee27fd9adebab32041f755214dbc6bffa90cc0225b39da2e5c2d3b90600090a250565b60606100c683836040518060600160405280602781526020016104c56027913961017e565b9392505050565b6100d6816101f7565b61013d5760405162461bcd60e51b815260206004820152602d60248201527f455243313936373a206e657720696d706c656d656e746174696f6e206973206e60448201526c1bdd08184818dbdb9d1c9858dd609a1b60648201526084015b60405180910390fd5b7f360894a13ba1a3210667c828492db98dca3e2076cc3735a920a3ca505d382bbc80546001600160a01b0319166001600160a01b0392909216919091179055565b6060600080856001600160a01b03168560405161019b91906103b7565b600060405180830381855af49150503d80600081146101d6576040519150601f19603f3d011682016040523d82523d6000602084013e6101db565b606091505b5090925090506101ed86838387610206565b9695505050505050565b6001600160a01b03163b151590565b6060831561027357825160000361026c57610220856101f7565b61026c5760405162461bcd60e51b815260206004820152601d60248201527f416464726573733a2063616c6c20746f206e6f6e2d636f6e74726163740000006044820152606401610134565b508161027d565b61027d8383610285565b949350505050565b8151156102955781518083602001fd5b8060405162461bcd60e51b815260040161013491906103d3565b634e487b7160e01b600052604160045260246000fd5b60005b838110156102e05781810151838201526020016102c8565b50506000910152565b600080604083850312156102fc57600080fd5b82516001600160a01b038116811461031357600080fd5b60208401519092506001600160401b038082111561033057600080fd5b818501915085601f83011261034457600080fd5b815181811115610356576103566102af565b604051601f8201601f19908116603f0116810190838211818310171561037e5761037e6102af565b8160405282815288602084870101111561039757600080fd5b6103a88360208301602088016102c5565b80955050505050509250929050565b600082516103c98184602087016102c5565b9190910192915050565b60208152600082518060208401526103f28160408501602087016102c5565b601f01601f19169190910160400192915050565b60b1806104146000396000f3fe608060405236601057600e6013565b005b600e5b601f601b6021565b6058565b565b600060537f360894a13ba1a3210667c828492db98dca3e2076cc3735a920a3ca505d382bbc546001600160a01b031690565b905090565b3660008037600080366000845af43d6000803e8080156076573d6000f35b3d6000fdfea2646970667358221220ad78013471c7ea2271f886ec15c90cc8b0b11ac79f0174f6004c4b8d4b97ac1764736f6c63430008130033416464726573733a206c6f772d6c6576656c2064656c65676174652063616c6c206661696c656403be538b6391ddcd7f2649585cc95b120c9e2a613f70714fbb55345057d809fa46756e6374696f6e206d7573742062652063616c6c6564207468726f75676820360894a13ba1a3210667c828492db98dca3e2076cc3735a920a3ca505d382bbc416464726573733a206c6f772d6c6576656c2064656c65676174652063616c6c206661696c6564a26469706673582212208141a211ebd48a9df51efd0b28bcbd3067eda915e7f03b1af99dc32598be98e464736f6c63430008130033","linkReferences":{}},"methodIdentifiers":{"COUNCIL_MEMBER()":"733a2d1f","DEFAULT_ADMIN_ROLE()":"a217fddf","MAX_FEE()":"bc063e1a","NATIVE()":"a0cf0aea","PRECISION_SCALE()":"d7050f07","acceptCouncilSafe()":"b5058c50","activateMemberInStrategy(address,address)":"0d4a8b49","addStrategy(address)":"223e5479","addStrategyByPoolId(uint256)":"82d6a1e7","addressToMemberInfo(address)":"88cfe684","allo()":"d6d8428d","cloneNonce()":"33960459","communityFee()":"8961be6b","communityName()":"c6d572ae","councilSafe()":"6c53db9a","covenantIpfsHash()":"b64e39af","createPool(address,((uint256,uint256,uint256,uint256),uint8,uint8,(uint256),(address,address,uint256,uint256,uint256,uint256),address,address),(uint256,string))":"524e59e8","createPool(address,address,((uint256,uint256,uint256,uint256),uint8,uint8,(uint256),(address,address,uint256,uint256,uint256,uint256),address,address),(uint256,string))":"e16d0e32","deactivateMemberInStrategy(address,address)":"22bcf999","decreasePower(uint256)":"5ecf71c5","enabledStrategies(address)":"3a871fe1","feeReceiver()":"b3f00674","gardenToken()":"db61d65c","getBasisStakedAmount()":"0331383c","getMemberPowerInStrategy(address,address)":"7817ee4f","getMemberStakedAmount(address)":"2c611c4a","getRoleAdmin(bytes32)":"248a9ca3","getStakeAmountWithFees()":"28c309e9","grantRole(bytes32,address)":"2f2ff15d","hasRole(bytes32,address)":"91d14854","increasePower(uint256)":"559de05d","initialize((address,address,uint256,uint256,uint256,address,address,(uint256,string),address,string,bool,string,address),address)":"fa50f53d","isCouncilMember(address)":"ebd7dc52","isKickEnabled()":"1f787d28","isMember(address)":"a230c524","kickMember(address,address)":"6871eb4d","memberActivatedInStrategies(address,address)":"477a5cc0","memberPowerInStrategy(address,address)":"65e3864c","owner()":"8da5cb5b","pendingCouncilSafe()":"68decabb","profileId()":"08386eba","proxiableUUID()":"52d1902d","registerStakeAmount()":"78a0b8a9","registry()":"7b103999","registryFactory()":"f86c5f89","removeStrategy(address)":"175188e8","removeStrategyByPoolId(uint256)":"73265c37","renounceOwnership()":"715018a6","renounceRole(bytes32,address)":"36568abe","revokeRole(bytes32,address)":"d547741f","setBasisStakedAmount(uint256)":"31f61bca","setCommunityFee(uint256)":"0d12bbdb","setCouncilSafe(address)":"397e2543","stakeAndRegisterMember()":"3517aa7d","strategiesByMember(address,uint256)":"2b38c69c","strategyTemplate()":"5c94e4d2","supportsInterface(bytes4)":"01ffc9a7","transferOwnership(address)":"f2fde38b","unregisterMember()":"b99b4370","upgradeTo(address)":"3659cfe6","upgradeToAndCall(address,bytes)":"4f1ef286"},"storageLayout":{"storage":[{"astId":53029,"contract":"pkg/contracts/src/RegistryCommunityV0_0.sol:RegistryCommunityV0_0","label":"_initialized","offset":0,"slot":"0","type":"t_uint8"},{"astId":53032,"contract":"pkg/contracts/src/RegistryCommunityV0_0.sol:RegistryCommunityV0_0","label":"_initializing","offset":1,"slot":"0","type":"t_bool"},{"astId":53734,"contract":"pkg/contracts/src/RegistryCommunityV0_0.sol:RegistryCommunityV0_0","label":"__gap","offset":0,"slot":"1","type":"t_array(t_uint256)50_storage"},{"astId":52821,"contract":"pkg/contracts/src/RegistryCommunityV0_0.sol:RegistryCommunityV0_0","label":"_owner","offset":0,"slot":"51","type":"t_address"},{"astId":52941,"contract":"pkg/contracts/src/RegistryCommunityV0_0.sol:RegistryCommunityV0_0","label":"__gap","offset":0,"slot":"52","type":"t_array(t_uint256)49_storage"},{"astId":53206,"contract":"pkg/contracts/src/RegistryCommunityV0_0.sol:RegistryCommunityV0_0","label":"_status","offset":0,"slot":"101","type":"t_uint256"},{"astId":53275,"contract":"pkg/contracts/src/RegistryCommunityV0_0.sol:RegistryCommunityV0_0","label":"__gap","offset":0,"slot":"102","type":"t_array(t_uint256)49_storage"},{"astId":54008,"contract":"pkg/contracts/src/RegistryCommunityV0_0.sol:RegistryCommunityV0_0","label":"__gap","offset":0,"slot":"151","type":"t_array(t_uint256)50_storage"},{"astId":52428,"contract":"pkg/contracts/src/RegistryCommunityV0_0.sol:RegistryCommunityV0_0","label":"_roles","offset":0,"slot":"201","type":"t_mapping(t_bytes32,t_struct(RoleData)52423_storage)"},{"astId":52735,"contract":"pkg/contracts/src/RegistryCommunityV0_0.sol:RegistryCommunityV0_0","label":"__gap","offset":0,"slot":"202","type":"t_array(t_uint256)49_storage"},{"astId":76697,"contract":"pkg/contracts/src/RegistryCommunityV0_0.sol:RegistryCommunityV0_0","label":"collateralVaultTemplate","offset":0,"slot":"251","type":"t_address"},{"astId":76716,"contract":"pkg/contracts/src/RegistryCommunityV0_0.sol:RegistryCommunityV0_0","label":"registerStakeAmount","offset":0,"slot":"252","type":"t_uint256"},{"astId":76719,"contract":"pkg/contracts/src/RegistryCommunityV0_0.sol:RegistryCommunityV0_0","label":"communityFee","offset":0,"slot":"253","type":"t_uint256"},{"astId":76722,"contract":"pkg/contracts/src/RegistryCommunityV0_0.sol:RegistryCommunityV0_0","label":"cloneNonce","offset":0,"slot":"254","type":"t_uint256"},{"astId":76725,"contract":"pkg/contracts/src/RegistryCommunityV0_0.sol:RegistryCommunityV0_0","label":"profileId","offset":0,"slot":"255","type":"t_bytes32"},{"astId":76728,"contract":"pkg/contracts/src/RegistryCommunityV0_0.sol:RegistryCommunityV0_0","label":"isKickEnabled","offset":0,"slot":"256","type":"t_bool"},{"astId":76731,"contract":"pkg/contracts/src/RegistryCommunityV0_0.sol:RegistryCommunityV0_0","label":"feeReceiver","offset":1,"slot":"256","type":"t_address"},{"astId":76734,"contract":"pkg/contracts/src/RegistryCommunityV0_0.sol:RegistryCommunityV0_0","label":"registryFactory","offset":0,"slot":"257","type":"t_address"},{"astId":76737,"contract":"pkg/contracts/src/RegistryCommunityV0_0.sol:RegistryCommunityV0_0","label":"strategyTemplate","offset":0,"slot":"258","type":"t_address"},{"astId":76740,"contract":"pkg/contracts/src/RegistryCommunityV0_0.sol:RegistryCommunityV0_0","label":"pendingCouncilSafe","offset":0,"slot":"259","type":"t_address_payable"},{"astId":76744,"contract":"pkg/contracts/src/RegistryCommunityV0_0.sol:RegistryCommunityV0_0","label":"registry","offset":0,"slot":"260","type":"t_contract(IRegistry)2802"},{"astId":76748,"contract":"pkg/contracts/src/RegistryCommunityV0_0.sol:RegistryCommunityV0_0","label":"gardenToken","offset":0,"slot":"261","type":"t_contract(IERC20)56567"},{"astId":76752,"contract":"pkg/contracts/src/RegistryCommunityV0_0.sol:RegistryCommunityV0_0","label":"councilSafe","offset":0,"slot":"262","type":"t_contract(ISafe)79453"},{"astId":76756,"contract":"pkg/contracts/src/RegistryCommunityV0_0.sol:RegistryCommunityV0_0","label":"allo","offset":0,"slot":"263","type":"t_contract(FAllo)79186"},{"astId":76759,"contract":"pkg/contracts/src/RegistryCommunityV0_0.sol:RegistryCommunityV0_0","label":"communityName","offset":0,"slot":"264","type":"t_string_storage"},{"astId":76762,"contract":"pkg/contracts/src/RegistryCommunityV0_0.sol:RegistryCommunityV0_0","label":"covenantIpfsHash","offset":0,"slot":"265","type":"t_string_storage"},{"astId":76767,"contract":"pkg/contracts/src/RegistryCommunityV0_0.sol:RegistryCommunityV0_0","label":"enabledStrategies","offset":0,"slot":"266","type":"t_mapping(t_address,t_bool)"},{"astId":76774,"contract":"pkg/contracts/src/RegistryCommunityV0_0.sol:RegistryCommunityV0_0","label":"memberPowerInStrategy","offset":0,"slot":"267","type":"t_mapping(t_address,t_mapping(t_address,t_uint256))"},{"astId":76780,"contract":"pkg/contracts/src/RegistryCommunityV0_0.sol:RegistryCommunityV0_0","label":"addressToMemberInfo","offset":0,"slot":"268","type":"t_mapping(t_address,t_struct(Member)76921_storage)"},{"astId":76786,"contract":"pkg/contracts/src/RegistryCommunityV0_0.sol:RegistryCommunityV0_0","label":"strategiesByMember","offset":0,"slot":"269","type":"t_mapping(t_address,t_array(t_address)dyn_storage)"},{"astId":76793,"contract":"pkg/contracts/src/RegistryCommunityV0_0.sol:RegistryCommunityV0_0","label":"memberActivatedInStrategies","offset":0,"slot":"270","type":"t_mapping(t_address,t_mapping(t_address,t_bool))"},{"astId":76797,"contract":"pkg/contracts/src/RegistryCommunityV0_0.sol:RegistryCommunityV0_0","label":"initialMembers","offset":0,"slot":"271","type":"t_array(t_address)dyn_storage"},{"astId":78436,"contract":"pkg/contracts/src/RegistryCommunityV0_0.sol:RegistryCommunityV0_0","label":"__gap","offset":0,"slot":"272","type":"t_array(t_uint256)50_storage"}],"types":{"t_address":{"encoding":"inplace","label":"address","numberOfBytes":"20"},"t_address_payable":{"encoding":"inplace","label":"address payable","numberOfBytes":"20"},"t_array(t_address)dyn_storage":{"encoding":"dynamic_array","label":"address[]","numberOfBytes":"32","base":"t_address"},"t_array(t_uint256)49_storage":{"encoding":"inplace","label":"uint256[49]","numberOfBytes":"1568","base":"t_uint256"},"t_array(t_uint256)50_storage":{"encoding":"inplace","label":"uint256[50]","numberOfBytes":"1600","base":"t_uint256"},"t_bool":{"encoding":"inplace","label":"bool","numberOfBytes":"1"},"t_bytes32":{"encoding":"inplace","label":"bytes32","numberOfBytes":"32"},"t_contract(FAllo)79186":{"encoding":"inplace","label":"contract FAllo","numberOfBytes":"20"},"t_contract(IERC20)56567":{"encoding":"inplace","label":"contract IERC20","numberOfBytes":"20"},"t_contract(IRegistry)2802":{"encoding":"inplace","label":"contract IRegistry","numberOfBytes":"20"},"t_contract(ISafe)79453":{"encoding":"inplace","label":"contract ISafe","numberOfBytes":"20"},"t_mapping(t_address,t_array(t_address)dyn_storage)":{"encoding":"mapping","key":"t_address","label":"mapping(address => address[])","numberOfBytes":"32","value":"t_array(t_address)dyn_storage"},"t_mapping(t_address,t_bool)":{"encoding":"mapping","key":"t_address","label":"mapping(address => bool)","numberOfBytes":"32","value":"t_bool"},"t_mapping(t_address,t_mapping(t_address,t_bool))":{"encoding":"mapping","key":"t_address","label":"mapping(address => mapping(address => bool))","numberOfBytes":"32","value":"t_mapping(t_address,t_bool)"},"t_mapping(t_address,t_mapping(t_address,t_uint256))":{"encoding":"mapping","key":"t_address","label":"mapping(address => mapping(address => uint256))","numberOfBytes":"32","value":"t_mapping(t_address,t_uint256)"},"t_mapping(t_address,t_struct(Member)76921_storage)":{"encoding":"mapping","key":"t_address","label":"mapping(address => struct RegistryCommunityV0_0.Member)","numberOfBytes":"32","value":"t_struct(Member)76921_storage"},"t_mapping(t_address,t_uint256)":{"encoding":"mapping","key":"t_address","label":"mapping(address => uint256)","numberOfBytes":"32","value":"t_uint256"},"t_mapping(t_bytes32,t_struct(RoleData)52423_storage)":{"encoding":"mapping","key":"t_bytes32","label":"mapping(bytes32 => struct AccessControlUpgradeable.RoleData)","numberOfBytes":"32","value":"t_struct(RoleData)52423_storage"},"t_string_storage":{"encoding":"bytes","label":"string","numberOfBytes":"32"},"t_struct(Member)76921_storage":{"encoding":"inplace","label":"struct RegistryCommunityV0_0.Member","numberOfBytes":"96","members":[{"astId":76916,"contract":"pkg/contracts/src/RegistryCommunityV0_0.sol:RegistryCommunityV0_0","label":"member","offset":0,"slot":"0","type":"t_address"},{"astId":76918,"contract":"pkg/contracts/src/RegistryCommunityV0_0.sol:RegistryCommunityV0_0","label":"stakedAmount","offset":0,"slot":"1","type":"t_uint256"},{"astId":76920,"contract":"pkg/contracts/src/RegistryCommunityV0_0.sol:RegistryCommunityV0_0","label":"isRegistered","offset":0,"slot":"2","type":"t_bool"}]},"t_struct(RoleData)52423_storage":{"encoding":"inplace","label":"struct AccessControlUpgradeable.RoleData","numberOfBytes":"64","members":[{"astId":52420,"contract":"pkg/contracts/src/RegistryCommunityV0_0.sol:RegistryCommunityV0_0","label":"members","offset":0,"slot":"0","type":"t_mapping(t_address,t_bool)"},{"astId":52422,"contract":"pkg/contracts/src/RegistryCommunityV0_0.sol:RegistryCommunityV0_0","label":"adminRole","offset":0,"slot":"1","type":"t_bytes32"}]},"t_uint256":{"encoding":"inplace","label":"uint256","numberOfBytes":"32"},"t_uint8":{"encoding":"inplace","label":"uint8","numberOfBytes":"1"}}},"id":113}