{"abi":[{"type":"function","name":"COUNCIL_MEMBER","inputs":[],"outputs":[{"name":"","type":"bytes32","internalType":"bytes32"}],"stateMutability":"view"},{"type":"function","name":"DEFAULT_ADMIN_ROLE","inputs":[],"outputs":[{"name":"","type":"bytes32","internalType":"bytes32"}],"stateMutability":"view"},{"type":"function","name":"MAX_FEE","inputs":[],"outputs":[{"name":"","type":"uint256","internalType":"uint256"}],"stateMutability":"view"},{"type":"function","name":"NATIVE","inputs":[],"outputs":[{"name":"","type":"address","internalType":"address"}],"stateMutability":"view"},{"type":"function","name":"PRECISION_SCALE","inputs":[],"outputs":[{"name":"","type":"uint256","internalType":"uint256"}],"stateMutability":"view"},{"type":"function","name":"acceptCouncilSafe","inputs":[],"outputs":[],"stateMutability":"nonpayable"},{"type":"function","name":"activateMemberInStrategy","inputs":[{"name":"_member","type":"address","internalType":"address"},{"name":"_strategy","type":"address","internalType":"address"}],"outputs":[],"stateMutability":"nonpayable"},{"type":"function","name":"addStrategy","inputs":[{"name":"_newStrategy","type":"address","internalType":"address"}],"outputs":[],"stateMutability":"nonpayable"},{"type":"function","name":"addStrategyByPoolId","inputs":[{"name":"poolId","type":"uint256","internalType":"uint256"}],"outputs":[],"stateMutability":"nonpayable"},{"type":"function","name":"addressToMemberInfo","inputs":[{"name":"member","type":"address","internalType":"address"}],"outputs":[{"name":"member","type":"address","internalType":"address"},{"name":"stakedAmount","type":"uint256","internalType":"uint256"},{"name":"isRegistered","type":"bool","internalType":"bool"}],"stateMutability":"view"},{"type":"function","name":"allo","inputs":[],"outputs":[{"name":"","type":"address","internalType":"contract FAllo"}],"stateMutability":"view"},{"type":"function","name":"cloneNonce","inputs":[],"outputs":[{"name":"","type":"uint256","internalType":"uint256"}],"stateMutability":"view"},{"type":"function","name":"collateralVaultTemplate","inputs":[],"outputs":[{"name":"","type":"address","internalType":"address"}],"stateMutability":"view"},{"type":"function","name":"communityFee","inputs":[],"outputs":[{"name":"","type":"uint256","internalType":"uint256"}],"stateMutability":"view"},{"type":"function","name":"communityName","inputs":[],"outputs":[{"name":"","type":"string","internalType":"string"}],"stateMutability":"view"},{"type":"function","name":"councilSafe","inputs":[],"outputs":[{"name":"","type":"address","internalType":"contract ISafe"}],"stateMutability":"view"},{"type":"function","name":"covenantIpfsHash","inputs":[],"outputs":[{"name":"","type":"string","internalType":"string"}],"stateMutability":"view"},{"type":"function","name":"createPool","inputs":[{"name":"_token","type":"address","internalType":"address"},{"name":"_params","type":"tuple","internalType":"struct StrategyStruct.InitializeParams","components":[{"name":"cvParams","type":"tuple","internalType":"struct StrategyStruct.CVParams","components":[{"name":"maxRatio","type":"uint256","internalType":"uint256"},{"name":"weight","type":"uint256","internalType":"uint256"},{"name":"decay","type":"uint256","internalType":"uint256"},{"name":"minThresholdPoints","type":"uint256","internalType":"uint256"}]},{"name":"proposalType","type":"uint8","internalType":"enum StrategyStruct.ProposalType"},{"name":"pointSystem","type":"uint8","internalType":"enum StrategyStruct.PointSystem"},{"name":"pointConfig","type":"tuple","internalType":"struct StrategyStruct.PointSystemConfig","components":[{"name":"maxAmount","type":"uint256","internalType":"uint256"}]},{"name":"arbitrableConfig","type":"tuple","internalType":"struct StrategyStruct.ArbitrableConfig","components":[{"name":"arbitrator","type":"address","internalType":"contract IArbitrator"},{"name":"tribunalSafe","type":"address","internalType":"address"},{"name":"submitterCollateralAmount","type":"uint256","internalType":"uint256"},{"name":"challengerCollateralAmount","type":"uint256","internalType":"uint256"},{"name":"defaultRuling","type":"uint256","internalType":"uint256"},{"name":"defaultRulingTimeout","type":"uint256","internalType":"uint256"}]},{"name":"registryCommunity","type":"address","internalType":"address"},{"name":"sybilScorer","type":"address","internalType":"address"},{"name":"initialAllowlist","type":"address[]","internalType":"address[]"}]},{"name":"_metadata","type":"tuple","internalType":"struct Metadata","components":[{"name":"protocol","type":"uint256","internalType":"uint256"},{"name":"pointer","type":"string","internalType":"string"}]}],"outputs":[{"name":"poolId","type":"uint256","internalType":"uint256"},{"name":"strategy","type":"address","internalType":"address"}],"stateMutability":"nonpayable"},{"type":"function","name":"createPool","inputs":[{"name":"_strategy","type":"address","internalType":"address"},{"name":"_token","type":"address","internalType":"address"},{"name":"_params","type":"tuple","internalType":"struct StrategyStruct.InitializeParams","components":[{"name":"cvParams","type":"tuple","internalType":"struct StrategyStruct.CVParams","components":[{"name":"maxRatio","type":"uint256","internalType":"uint256"},{"name":"weight","type":"uint256","internalType":"uint256"},{"name":"decay","type":"uint256","internalType":"uint256"},{"name":"minThresholdPoints","type":"uint256","internalType":"uint256"}]},{"name":"proposalType","type":"uint8","internalType":"enum StrategyStruct.ProposalType"},{"name":"pointSystem","type":"uint8","internalType":"enum StrategyStruct.PointSystem"},{"name":"pointConfig","type":"tuple","internalType":"struct StrategyStruct.PointSystemConfig","components":[{"name":"maxAmount","type":"uint256","internalType":"uint256"}]},{"name":"arbitrableConfig","type":"tuple","internalType":"struct StrategyStruct.ArbitrableConfig","components":[{"name":"arbitrator","type":"address","internalType":"contract IArbitrator"},{"name":"tribunalSafe","type":"address","internalType":"address"},{"name":"submitterCollateralAmount","type":"uint256","internalType":"uint256"},{"name":"challengerCollateralAmount","type":"uint256","internalType":"uint256"},{"name":"defaultRuling","type":"uint256","internalType":"uint256"},{"name":"defaultRulingTimeout","type":"uint256","internalType":"uint256"}]},{"name":"registryCommunity","type":"address","internalType":"address"},{"name":"sybilScorer","type":"address","internalType":"address"},{"name":"initialAllowlist","type":"address[]","internalType":"address[]"}]},{"name":"_metadata","type":"tuple","internalType":"struct Metadata","components":[{"name":"protocol","type":"uint256","internalType":"uint256"},{"name":"pointer","type":"string","internalType":"string"}]}],"outputs":[{"name":"poolId","type":"uint256","internalType":"uint256"},{"name":"strategy","type":"address","internalType":"address"}],"stateMutability":"nonpayable"},{"type":"function","name":"deactivateMemberInStrategy","inputs":[{"name":"_member","type":"address","internalType":"address"},{"name":"_strategy","type":"address","internalType":"address"}],"outputs":[],"stateMutability":"nonpayable"},{"type":"function","name":"decreasePower","inputs":[{"name":"_amountUnstaked","type":"uint256","internalType":"uint256"}],"outputs":[],"stateMutability":"nonpayable"},{"type":"function","name":"enabledStrategies","inputs":[{"name":"strategy","type":"address","internalType":"address"}],"outputs":[{"name":"isEnabled","type":"bool","internalType":"bool"}],"stateMutability":"view"},{"type":"function","name":"feeReceiver","inputs":[],"outputs":[{"name":"","type":"address","internalType":"address"}],"stateMutability":"view"},{"type":"function","name":"gardenToken","inputs":[],"outputs":[{"name":"","type":"address","internalType":"contract IERC20"}],"stateMutability":"view"},{"type":"function","name":"getBasisStakedAmount","inputs":[],"outputs":[{"name":"","type":"uint256","internalType":"uint256"}],"stateMutability":"view"},{"type":"function","name":"getMemberPowerInStrategy","inputs":[{"name":"_member","type":"address","internalType":"address"},{"name":"_strategy","type":"address","internalType":"address"}],"outputs":[{"name":"","type":"uint256","internalType":"uint256"}],"stateMutability":"view"},{"type":"function","name":"getMemberStakedAmount","inputs":[{"name":"_member","type":"address","internalType":"address"}],"outputs":[{"name":"","type":"uint256","internalType":"uint256"}],"stateMutability":"view"},{"type":"function","name":"getRoleAdmin","inputs":[{"name":"role","type":"bytes32","internalType":"bytes32"}],"outputs":[{"name":"","type":"bytes32","internalType":"bytes32"}],"stateMutability":"view"},{"type":"function","name":"getStakeAmountWithFees","inputs":[],"outputs":[{"name":"","type":"uint256","internalType":"uint256"}],"stateMutability":"view"},{"type":"function","name":"grantRole","inputs":[{"name":"role","type":"bytes32","internalType":"bytes32"},{"name":"account","type":"address","internalType":"address"}],"outputs":[],"stateMutability":"nonpayable"},{"type":"function","name":"hasRole","inputs":[{"name":"role","type":"bytes32","internalType":"bytes32"},{"name":"account","type":"address","internalType":"address"}],"outputs":[{"name":"","type":"bool","internalType":"bool"}],"stateMutability":"view"},{"type":"function","name":"increasePower","inputs":[{"name":"_amountStaked","type":"uint256","internalType":"uint256"}],"outputs":[],"stateMutability":"nonpayable"},{"type":"function","name":"initialize","inputs":[{"name":"params","type":"tuple","internalType":"struct RegistryCommunityV0_0.InitializeParams","components":[{"name":"_allo","type":"address","internalType":"address"},{"name":"_gardenToken","type":"address","internalType":"contract IERC20"},{"name":"_registerStakeAmount","type":"uint256","internalType":"uint256"},{"name":"_communityFee","type":"uint256","internalType":"uint256"},{"name":"_nonce","type":"uint256","internalType":"uint256"},{"name":"_registryFactory","type":"address","internalType":"address"},{"name":"_feeReceiver","type":"address","internalType":"address"},{"name":"_metadata","type":"tuple","internalType":"struct Metadata","components":[{"name":"protocol","type":"uint256","internalType":"uint256"},{"name":"pointer","type":"string","internalType":"string"}]},{"name":"_councilSafe","type":"address","internalType":"address payable"},{"name":"_communityName","type":"string","internalType":"string"},{"name":"_isKickEnabled","type":"bool","internalType":"bool"},{"name":"covenantIpfsHash","type":"string","internalType":"string"}]},{"name":"_strategyTemplate","type":"address","internalType":"address"},{"name":"_collateralVaultTemplate","type":"address","internalType":"address"},{"name":"owner","type":"address","internalType":"address"}],"outputs":[],"stateMutability":"nonpayable"},{"type":"function","name":"initialize","inputs":[{"name":"initialOwner","type":"address","internalType":"address"}],"outputs":[],"stateMutability":"nonpayable"},{"type":"function","name":"isCouncilMember","inputs":[{"name":"_member","type":"address","internalType":"address"}],"outputs":[{"name":"","type":"bool","internalType":"bool"}],"stateMutability":"view"},{"type":"function","name":"isKickEnabled","inputs":[],"outputs":[{"name":"","type":"bool","internalType":"bool"}],"stateMutability":"view"},{"type":"function","name":"isMember","inputs":[{"name":"_member","type":"address","internalType":"address"}],"outputs":[{"name":"_isMember","type":"bool","internalType":"bool"}],"stateMutability":"view"},{"type":"function","name":"kickMember","inputs":[{"name":"_member","type":"address","internalType":"address"},{"name":"_transferAddress","type":"address","internalType":"address"}],"outputs":[],"stateMutability":"nonpayable"},{"type":"function","name":"memberActivatedInStrategies","inputs":[{"name":"member","type":"address","internalType":"address"},{"name":"strategy","type":"address","internalType":"address"}],"outputs":[{"name":"isActivated","type":"bool","internalType":"bool"}],"stateMutability":"view"},{"type":"function","name":"memberPowerInStrategy","inputs":[{"name":"strategy","type":"address","internalType":"address"},{"name":"member","type":"address","internalType":"address"}],"outputs":[{"name":"power","type":"uint256","internalType":"uint256"}],"stateMutability":"view"},{"type":"function","name":"owner","inputs":[],"outputs":[{"name":"","type":"address","internalType":"address"}],"stateMutability":"view"},{"type":"function","name":"pendingCouncilSafe","inputs":[],"outputs":[{"name":"","type":"address","internalType":"address payable"}],"stateMutability":"view"},{"type":"function","name":"profileId","inputs":[],"outputs":[{"name":"","type":"bytes32","internalType":"bytes32"}],"stateMutability":"view"},{"type":"function","name":"proxiableUUID","inputs":[],"outputs":[{"name":"","type":"bytes32","internalType":"bytes32"}],"stateMutability":"view"},{"type":"function","name":"registerStakeAmount","inputs":[],"outputs":[{"name":"","type":"uint256","internalType":"uint256"}],"stateMutability":"view"},{"type":"function","name":"registry","inputs":[],"outputs":[{"name":"","type":"address","internalType":"contract IRegistry"}],"stateMutability":"view"},{"type":"function","name":"registryFactory","inputs":[],"outputs":[{"name":"","type":"address","internalType":"address"}],"stateMutability":"view"},{"type":"function","name":"removeStrategy","inputs":[{"name":"_strategy","type":"address","internalType":"address"}],"outputs":[],"stateMutability":"nonpayable"},{"type":"function","name":"removeStrategyByPoolId","inputs":[{"name":"poolId","type":"uint256","internalType":"uint256"}],"outputs":[],"stateMutability":"nonpayable"},{"type":"function","name":"renounceOwnership","inputs":[],"outputs":[],"stateMutability":"nonpayable"},{"type":"function","name":"renounceRole","inputs":[{"name":"role","type":"bytes32","internalType":"bytes32"},{"name":"account","type":"address","internalType":"address"}],"outputs":[],"stateMutability":"nonpayable"},{"type":"function","name":"revokeRole","inputs":[{"name":"role","type":"bytes32","internalType":"bytes32"},{"name":"account","type":"address","internalType":"address"}],"outputs":[],"stateMutability":"nonpayable"},{"type":"function","name":"setBasisStakedAmount","inputs":[{"name":"_newAmount","type":"uint256","internalType":"uint256"}],"outputs":[],"stateMutability":"nonpayable"},{"type":"function","name":"setCollateralVaultTemplate","inputs":[{"name":"template","type":"address","internalType":"address"}],"outputs":[],"stateMutability":"nonpayable"},{"type":"function","name":"setCommunityFee","inputs":[{"name":"_newCommunityFee","type":"uint256","internalType":"uint256"}],"outputs":[],"stateMutability":"nonpayable"},{"type":"function","name":"setCouncilSafe","inputs":[{"name":"_safe","type":"address","internalType":"address payable"}],"outputs":[],"stateMutability":"nonpayable"},{"type":"function","name":"setStrategyTemplate","inputs":[{"name":"template","type":"address","internalType":"address"}],"outputs":[],"stateMutability":"nonpayable"},{"type":"function","name":"stakeAndRegisterMember","inputs":[],"outputs":[],"stateMutability":"nonpayable"},{"type":"function","name":"strategiesByMember","inputs":[{"name":"member","type":"address","internalType":"address"},{"name":"","type":"uint256","internalType":"uint256"}],"outputs":[{"name":"strategiesAddresses","type":"address","internalType":"address"}],"stateMutability":"view"},{"type":"function","name":"strategyTemplate","inputs":[],"outputs":[{"name":"","type":"address","internalType":"address"}],"stateMutability":"view"},{"type":"function","name":"supportsInterface","inputs":[{"name":"interfaceId","type":"bytes4","internalType":"bytes4"}],"outputs":[{"name":"","type":"bool","internalType":"bool"}],"stateMutability":"view"},{"type":"function","name":"transferOwnership","inputs":[{"name":"newOwner","type":"address","internalType":"address"}],"outputs":[],"stateMutability":"nonpayable"},{"type":"function","name":"unregisterMember","inputs":[],"outputs":[],"stateMutability":"nonpayable"},{"type":"function","name":"upgradeTo","inputs":[{"name":"newImplementation","type":"address","internalType":"address"}],"outputs":[],"stateMutability":"nonpayable"},{"type":"function","name":"upgradeToAndCall","inputs":[{"name":"newImplementation","type":"address","internalType":"address"},{"name":"data","type":"bytes","internalType":"bytes"}],"outputs":[],"stateMutability":"payable"},{"type":"event","name":"AdminChanged","inputs":[{"name":"previousAdmin","type":"address","indexed":false,"internalType":"address"},{"name":"newAdmin","type":"address","indexed":false,"internalType":"address"}],"anonymous":false},{"type":"event","name":"AlloSet","inputs":[{"name":"_allo","type":"address","indexed":false,"internalType":"address"}],"anonymous":false},{"type":"event","name":"BasisStakedAmountSet","inputs":[{"name":"_newAmount","type":"uint256","indexed":false,"internalType":"uint256"}],"anonymous":false},{"type":"event","name":"BeaconUpgraded","inputs":[{"name":"beacon","type":"address","indexed":true,"internalType":"address"}],"anonymous":false},{"type":"event","name":"CommunityFeeUpdated","inputs":[{"name":"_newFee","type":"uint256","indexed":false,"internalType":"uint256"}],"anonymous":false},{"type":"event","name":"CouncilSafeChangeStarted","inputs":[{"name":"_safeOwner","type":"address","indexed":false,"internalType":"address"},{"name":"_newSafeOwner","type":"address","indexed":false,"internalType":"address"}],"anonymous":false},{"type":"event","name":"CouncilSafeSet","inputs":[{"name":"_safe","type":"address","indexed":false,"internalType":"address"}],"anonymous":false},{"type":"event","name":"Initialized","inputs":[{"name":"version","type":"uint8","indexed":false,"internalType":"uint8"}],"anonymous":false},{"type":"event","name":"MemberActivatedStrategy","inputs":[{"name":"_member","type":"address","indexed":false,"internalType":"address"},{"name":"_strategy","type":"address","indexed":false,"internalType":"address"},{"name":"_pointsToIncrease","type":"uint256","indexed":false,"internalType":"uint256"}],"anonymous":false},{"type":"event","name":"MemberDeactivatedStrategy","inputs":[{"name":"_member","type":"address","indexed":false,"internalType":"address"},{"name":"_strategy","type":"address","indexed":false,"internalType":"address"}],"anonymous":false},{"type":"event","name":"MemberKicked","inputs":[{"name":"_member","type":"address","indexed":false,"internalType":"address"},{"name":"_transferAddress","type":"address","indexed":false,"internalType":"address"},{"name":"_amountReturned","type":"uint256","indexed":false,"internalType":"uint256"}],"anonymous":false},{"type":"event","name":"MemberPowerDecreased","inputs":[{"name":"_member","type":"address","indexed":false,"internalType":"address"},{"name":"_unstakedAmount","type":"uint256","indexed":false,"internalType":"uint256"}],"anonymous":false},{"type":"event","name":"MemberPowerIncreased","inputs":[{"name":"_member","type":"address","indexed":false,"internalType":"address"},{"name":"_stakedAmount","type":"uint256","indexed":false,"internalType":"uint256"}],"anonymous":false},{"type":"event","name":"MemberRegistered","inputs":[{"name":"_member","type":"address","indexed":false,"internalType":"address"},{"name":"_amountStaked","type":"uint256","indexed":false,"internalType":"uint256"}],"anonymous":false},{"type":"event","name":"MemberUnregistered","inputs":[{"name":"_member","type":"address","indexed":false,"internalType":"address"},{"name":"_amountReturned","type":"uint256","indexed":false,"internalType":"uint256"}],"anonymous":false},{"type":"event","name":"OwnershipTransferred","inputs":[{"name":"previousOwner","type":"address","indexed":true,"internalType":"address"},{"name":"newOwner","type":"address","indexed":true,"internalType":"address"}],"anonymous":false},{"type":"event","name":"PoolCreated","inputs":[{"name":"_poolId","type":"uint256","indexed":false,"internalType":"uint256"},{"name":"_strategy","type":"address","indexed":false,"internalType":"address"},{"name":"_community","type":"address","indexed":false,"internalType":"address"},{"name":"_token","type":"address","indexed":false,"internalType":"address"},{"name":"_metadata","type":"tuple","indexed":false,"internalType":"struct Metadata","components":[{"name":"protocol","type":"uint256","internalType":"uint256"},{"name":"pointer","type":"string","internalType":"string"}]}],"anonymous":false},{"type":"event","name":"RegistryInitialized","inputs":[{"name":"_profileId","type":"bytes32","indexed":false,"internalType":"bytes32"},{"name":"_communityName","type":"string","indexed":false,"internalType":"string"},{"name":"_metadata","type":"tuple","indexed":false,"internalType":"struct Metadata","components":[{"name":"protocol","type":"uint256","internalType":"uint256"},{"name":"pointer","type":"string","internalType":"string"}]}],"anonymous":false},{"type":"event","name":"RoleAdminChanged","inputs":[{"name":"role","type":"bytes32","indexed":true,"internalType":"bytes32"},{"name":"previousAdminRole","type":"bytes32","indexed":true,"internalType":"bytes32"},{"name":"newAdminRole","type":"bytes32","indexed":true,"internalType":"bytes32"}],"anonymous":false},{"type":"event","name":"RoleGranted","inputs":[{"name":"role","type":"bytes32","indexed":true,"internalType":"bytes32"},{"name":"account","type":"address","indexed":true,"internalType":"address"},{"name":"sender","type":"address","indexed":true,"internalType":"address"}],"anonymous":false},{"type":"event","name":"RoleRevoked","inputs":[{"name":"role","type":"bytes32","indexed":true,"internalType":"bytes32"},{"name":"account","type":"address","indexed":true,"internalType":"address"},{"name":"sender","type":"address","indexed":true,"internalType":"address"}],"anonymous":false},{"type":"event","name":"StrategyAdded","inputs":[{"name":"_strategy","type":"address","indexed":false,"internalType":"address"}],"anonymous":false},{"type":"event","name":"StrategyRemoved","inputs":[{"name":"_strategy","type":"address","indexed":false,"internalType":"address"}],"anonymous":false},{"type":"event","name":"Upgraded","inputs":[{"name":"implementation","type":"address","indexed":true,"internalType":"address"}],"anonymous":false},{"type":"error","name":"AddressCannotBeZero","inputs":[]},{"type":"error","name":"CallerNotOwner","inputs":[{"name":"_caller","type":"address","internalType":"address"},{"name":"_owner","type":"address","internalType":"address"}]},{"type":"error","name":"CantDecreaseMoreThanPower","inputs":[{"name":"_decreaseAmount","type":"uint256","internalType":"uint256"},{"name":"_currentPower","type":"uint256","internalType":"uint256"}]},{"type":"error","name":"DecreaseUnderMinimum","inputs":[]},{"type":"error","name":"KickNotEnabled","inputs":[]},{"type":"error","name":"NewFeeGreaterThanMax","inputs":[]},{"type":"error","name":"PointsDeactivated","inputs":[]},{"type":"error","name":"RegistryCannotBeZero","inputs":[]},{"type":"error","name":"SenderNotNewOwner","inputs":[]},{"type":"error","name":"SenderNotStrategy","inputs":[]},{"type":"error","name":"StrategyDisabled","inputs":[]},{"type":"error","name":"StrategyExists","inputs":[]},{"type":"error","name":"UserAlreadyActivated","inputs":[]},{"type":"error","name":"UserAlreadyDeactivated","inputs":[]},{"type":"error","name":"UserAlreadyRegistered","inputs":[]},{"type":"error","name":"UserNotGardenOwner","inputs":[]},{"type":"error","name":"UserNotInCouncil","inputs":[{"name":"_user","type":"address","internalType":"address"}]},{"type":"error","name":"UserNotInRegistry","inputs":[]},{"type":"error","name":"ValueCannotBeZero","inputs":[]}],"bytecode":{"object":"0x60a06040523060805234801561001457600080fd5b50608051615bab6200004d60003960008181611da401528181611de701528181611ee201528181611f250152611fa60152615bab6000f3fe608060405260043610620003205760003560e01c806301ffc9a714620003255780630331383c146200035f57806308386eba14620003805780630d12bbdb14620003985780630d4a8b4914620003bf578063175188e814620003e45780631b71f0e414620004095780631f787d28146200042e578063223e5479146200044957806322bcf999146200046e578063248a9ca3146200049357806328c309e914620004b85780632b38c69c14620004d05780632c611c4a14620005045780632f2ff15d146200054257806331f61bca146200056757806333960459146200058c5780633419635514620005a45780633517aa7d14620005c957806336568abe14620005e15780633659cfe61462000606578063397e2543146200062b5780633a871fe11462000650578063477a5cc014620006855780634f1ef28614620006c557806352d1902d14620006dc578063559de05d14620006f4578063579eb7e514620007195780635c94e4d2146200075c5780635ecf71c5146200077f57806365e3864c14620007a45780636871eb4d14620007e157806368decabb14620008065780636c53db9a1462000829578063715018a6146200084c57806373265c371462000864578063733a2d1f146200088957806377122d5614620008ae5780637817ee4f14620008d157806378a0b8a9146200091c5780637b103999146200093457806382d6a1e714620009575780638659ffdd146200097c57806388cfe68414620009a15780638961be6b1462000a175780638da5cb5b1462000a2f57806391d148541462000a47578063a0cf0aea1462000a6c578063a217fddf1462000a96578063a230c5241462000aad578063b0d3713a1462000ad2578063b3f006741462000af7578063b5058c501462000b1e578063b64e39af1462000b36578063b99b43701462000b5d578063bc063e1a1462000b75578063c4d66de81462000b8d578063c6d572ae1462000bb2578063d547741f1462000bca578063d6d8428d1462000bef578063d7050f071462000c12578063db61d65c1462000c2a578063ebd7dc521462000c4d578063f2fde38b1462000c72578063f86c5f891462000c97575b600080fd5b3480156200033257600080fd5b506200034a62000344366004620042a8565b62000cba565b60405190151581526020015b60405180910390f35b3480156200036c57600080fd5b5060fb545b60405190815260200162000356565b3480156200038d57600080fd5b506200037160fe5481565b348015620003a557600080fd5b50620003bd620003b7366004620042d4565b62000cf2565b005b348015620003cc57600080fd5b50620003bd620003de36600462004316565b62000d68565b348015620003f157600080fd5b50620003bd6200040336600462004354565b620010eb565b3480156200041657600080fd5b50620003bd6200042836600462004354565b62001103565b3480156200043b57600080fd5b5060ff80546200034a911681565b3480156200045657600080fd5b50620003bd6200046836600462004354565b62001130565b3480156200047b57600080fd5b50620003bd6200048d36600462004316565b62001145565b348015620004a057600080fd5b5062000371620004b2366004620042d4565b6200123f565b348015620004c557600080fd5b506200037162001254565b348015620004dd57600080fd5b50620004f5620004ef36600462004374565b62001359565b604051620003569190620043b0565b3480156200051157600080fd5b50620003716200052336600462004354565b6001600160a01b0316600090815261010c602052604090206001015490565b3480156200054f57600080fd5b50620003bd62000561366004620043c4565b62001393565b3480156200057457600080fd5b50620003bd62000586366004620042d4565b620013ba565b3480156200059957600080fd5b506200037160fd5481565b348015620005b157600080fd5b50620003bd620005c3366004620045d4565b620013fa565b348015620005d657600080fd5b50620003bd62001aba565b348015620005ee57600080fd5b50620003bd62000600366004620043c4565b62001d1c565b3480156200061357600080fd5b50620003bd6200062536600462004354565b62001d9a565b3480156200063857600080fd5b50620003bd6200064a36600462004354565b62001e6b565b3480156200065d57600080fd5b506200034a6200066f36600462004354565b61010a6020526000908152604090205460ff1681565b3480156200069257600080fd5b506200034a620006a436600462004316565b61010e60209081526000928352604080842090915290825290205460ff1681565b620003bd620006d636600462004767565b62001ed8565b348015620006e957600080fd5b506200037162001f99565b3480156200070157600080fd5b50620003bd62000713366004620042d4565b6200204a565b3480156200072657600080fd5b506200073e6200073836600462004a94565b62002296565b604080519283526001600160a01b0390911660208301520162000356565b3480156200076957600080fd5b5061010254620004f5906001600160a01b031681565b3480156200078c57600080fd5b50620003bd6200079e366004620042d4565b6200249f565b348015620007b157600080fd5b5062000371620007c336600462004316565b61010b60209081526000928352604080842090915290825290205481565b348015620007ee57600080fd5b50620003bd6200080036600462004316565b62002839565b3480156200081357600080fd5b5061010354620004f5906001600160a01b031681565b3480156200083657600080fd5b5061010654620004f5906001600160a01b031681565b3480156200085957600080fd5b50620003bd6200298c565b3480156200087157600080fd5b50620003bd62000883366004620042d4565b620029a2565b3480156200089657600080fd5b506200037160008051602062005aef83398151915281565b348015620008bb57600080fd5b5061010154620004f5906001600160a01b031681565b348015620008de57600080fd5b5062000371620008f036600462004316565b6001600160a01b03918216600090815261010b6020908152604080832093909416825291909152205490565b3480156200092957600080fd5b506200037160fb5481565b3480156200094157600080fd5b5061010454620004f5906001600160a01b031681565b3480156200096457600080fd5b50620003bd62000976366004620042d4565b62002a3e565b3480156200098957600080fd5b506200073e6200099b36600462004b12565b62002afc565b348015620009ae57600080fd5b50620009ef620009c036600462004354565b61010c602052600090815260409020805460018201546002909201546001600160a01b03909116919060ff1683565b604080516001600160a01b039094168452602084019290925215159082015260600162000356565b34801562000a2457600080fd5b506200037160fc5481565b34801562000a3c57600080fd5b50620004f562002c89565b34801562000a5457600080fd5b506200034a62000a66366004620043c4565b62002d24565b34801562000a7957600080fd5b50620004f573eeeeeeeeeeeeeeeeeeeeeeeeeeeeeeeeeeeeeeee81565b34801562000aa357600080fd5b5062000371600081565b34801562000aba57600080fd5b506200034a62000acc36600462004354565b62002d4f565b34801562000adf57600080fd5b50620003bd62000af136600462004354565b62002d99565b34801562000b0457600080fd5b5060ff54620004f59061010090046001600160a01b031681565b34801562000b2b57600080fd5b50620003bd62002dc6565b34801562000b4357600080fd5b5062000b4e62002dfd565b60405162000356919062004bf9565b34801562000b6a57600080fd5b50620003bd62002e94565b34801562000b8257600080fd5b506200037162002f9e565b34801562000b9a57600080fd5b50620003bd62000bac36600462004354565b62002fb0565b34801562000bbf57600080fd5b5062000b4e62002fe5565b34801562000bd757600080fd5b50620003bd62000be9366004620043c4565b62002ff5565b34801562000bfc57600080fd5b5061010754620004f5906001600160a01b031681565b34801562000c1f57600080fd5b506200037161271081565b34801562000c3757600080fd5b5061010554620004f5906001600160a01b031681565b34801562000c5a57600080fd5b506200034a62000c6c36600462004354565b62003017565b34801562000c7f57600080fd5b50620003bd62000c9136600462004354565b62003034565b34801562000ca457600080fd5b5061010054620004f5906001600160a01b031681565b60006001600160e01b03198216637965db0b60e01b148062000cec57506301ffc9a760e01b6001600160e01b03198316145b92915050565b62000cfc620030a5565b62000d0b612710600a62004c24565b81111562000d2c5760405163fe925f7d60e01b815260040160405180910390fd5b60fc8190556040518181527f611668bfcf654a99c33cdb66c29ec37a5aae5c1287d2d9715a24e18cb4d806d6906020015b60405180910390a150565b62000d72620030e2565b62000d7d826200313d565b62000d888162003166565b62000d9381620031a1565b6001600160a01b03808316600090815261010e602090815260408083209385168352929052205460ff161562000ddc57604051636adcde4b60e11b815260040160405180910390fd5b6001600160a01b03808316600090815261010c602090815260409182902082516060810184528154909416845260018101549184018290526002015460ff1615159183019190915260fb546003846001600160a01b031663c32921716040518163ffffffff1660e01b81526004016020604051808303816000875af115801562000e6a573d6000803e3d6000fd5b505050506040513d601f19601f8201168201806040525081019062000e90919062004c54565b600381111562000ea45762000ea462004c3e565b0362000f295760405163782aadff60e01b81526001600160a01b0385169063782aadff9062000edb90889060009060040162004c74565b6020604051808303816000875af115801562000efb573d6000803e3d6000fd5b505050506040513d601f19601f8201168201806040525081019062000f21919062004c8d565b905062001025565b6000846001600160a01b031663c32921716040518163ffffffff1660e01b81526004016020604051808303816000875af115801562000f6c573d6000803e3d6000fd5b505050506040513d601f19601f8201168201806040525081019062000f92919062004c54565b600381111562000fa65762000fa662004c3e565b14620010255760405163782aadff60e01b81526001600160a01b0385169063782aadff9062000fdc908890869060040162004c74565b6020604051808303816000875af115801562000ffc573d6000803e3d6000fd5b505050506040513d601f19601f8201168201806040525081019062001022919062004c8d565b90505b6001600160a01b03808616600081815261010b6020908152604080832094891680845294825280832086905583835261010e82528083208584528252808320805460ff1916600190811790915593835261010d8252808320805494850181558352912090910180546001600160a01b031916909217909155517ff56fa57e85e169a12200d12d9921ec069b52e688f6d309d9dab7bceff54614ec90620010d19087908790859062004ca7565b60405180910390a1505050620010e76001606555565b5050565b620010f5620030a5565b6200110081620031d0565b50565b6200110d6200322e565b61010280546001600160a01b0319166001600160a01b0392909216919091179055565b6200113a620030a5565b620011008162003291565b62001150826200313d565b6200115b81620031a1565b62001167338262003323565b6001600160a01b03808316600090815261010e602090815260408083209385168352929052205460ff16620011af57604051633048da7760e21b815260040160405180910390fd5b6001600160a01b03808316600081815261010e60209081526040808320948616808452948252808320805460ff1916905592825261010b81528282209382529290925281205562001201828262003356565b7ede109bef4619f7e2cf00c8e5a50ca55f8deb44f87087eed414a91dbf8d1d1b82826040516200123392919062004ccb565b60405180910390a15050565b600090815260c9602052604090206001015490565b610100546000906001600160a01b03168162001274612710606462004c24565b60fc5460fb5462001286919062004c24565b62001292919062004ce5565b90506000620012a5612710606462004c24565b6040516302a64b8360e21b81526001600160a01b03851690630a992e0c90620012d3903090600401620043b0565b602060405180830381865afa158015620012f1573d6000803e3d6000fd5b505050506040513d601f19601f8201168201806040525081019062001317919062004c8d565b60fb5462001326919062004c24565b62001332919062004ce5565b9050808260fb5462001345919062004d08565b62001351919062004d08565b935050505090565b61010d60205281600052604060002081815481106200137757600080fd5b6000918252602090912001546001600160a01b03169150829050565b6200139e826200123f565b620013a9816200348c565b620013b5838362003498565b505050565b620013c4620030a5565b60fb8190556040518181527f5bcc2c453001fb0e2ba6266d56ecb411e7c6e15c8f9c3d301f93dd36ad25726f9060200162000d5d565b600054610100900460ff16158080156200141b5750600054600160ff909116105b806200144057506200142d3062003522565b15801562001440575060005460ff166001145b620014a95760405162461bcd60e51b815260206004820152602e60248201527f496e697469616c697a61626c653a20636f6e747261637420697320616c72656160448201526d191e481a5b9a5d1a585b1a5e995960921b60648201526084015b60405180910390fd5b6000805460ff191660011790558015620014cd576000805461ff0019166101001790555b620014d88262002fb0565b620014e262003531565b620014ec62003565565b6200150860008051602062005aef83398151915260006200358f565b620015178560200151620031a1565b62001527856101000151620031a1565b84516200153490620031a1565b620015438560a00151620031a1565b6060850151156200155d576200155d8560c00151620031a1565b845161010780546001600160a01b039283166001600160a01b031991821617909155602087015161010580549190931691161790556040850151600003620015b8576040516363868c5560e11b815260040160405180910390fd5b604085015160fb55606085015160fc5561014085015160ff805460ff191691151591909117905561012085015161010890620015f5908262004dac565b50610160850151610109906200160c908262004dac565b5060a085015161010080546001600160a01b03199081166001600160a01b0393841617825560c088015160ff8054610100600160a81b0319169185168402919091179055908701516101068054909216928116929092179055620016819060008051602062005aef8339815191529062003498565b61010760009054906101000a90046001600160a01b03166001600160a01b0316635ab1bd536040518163ffffffff1660e01b8152600401602060405180830381865afa158015620016d6573d6000803e3d6000fd5b505050506040513d601f19601f82011682018060405250810190620016fc919062004e78565b61010480546001600160a01b0319166001600160a01b0392831617905561010654606091163b6000036200178857604080516003808252608082019092529060208201606080368337019050509050338160008151811062001762576200176262004e98565b60200260200101906001600160a01b031690816001600160a01b031681525050620018c5565b610106546040805163a0e67e2b60e01b815290516000926001600160a01b03169163a0e67e2b91600480830192869291908290030181865afa158015620017d3573d6000803e3d6000fd5b505050506040513d6000823e601f3d908101601f19168201604052620017fd919081019062004eae565b9050805160026200180f919062004d08565b6001600160401b03811115620018295762001829620043ec565b60405190808252806020026020018201604052801562001853578160200160208202803683370190505b50915060005b8151811015620018c25781818151811062001878576200187862004e98565b602002602001015183828151811062001895576200189562004e98565b6001600160a01b039092166020928302919091019091015280620018b98162004f47565b91505062001859565b50505b6101065481516001600160a01b03909116908290620018e79060019062004f63565b81518110620018fa57620018fa62004e98565b60200260200101906001600160a01b031690816001600160a01b0316815250503081600283516200192c919062004f63565b815181106200193f576200193f62004e98565b6001600160a01b03928316602091820292909201015261010454608088015160e0890151604051633a92f65f60e01b81529290931692633a92f65f92620019929291610108913090889060040162005065565b6020604051808303816000875af1158015620019b2573d6000803e3d6000fd5b505050506040513d601f19601f82011682018060405250810190620019d8919062004c8d565b60fe558051620019f19061010f90602084019062004202565b5061010280546001600160a01b038088166001600160a01b03199283161790925561010180549287169290911691909117905560fe5460e08701516040517f2f2ffcb06f8a1d35e2716f6b43ef2c19bfa76467d8f66964ae12c2583ed032059262001a639290916101089190620050c5565b60405180910390a150801562001ab3576000805461ff0019169055604051600181527f7f26b83ff96e1f2b6a682f133852f6798a09c465da95921460cefb38474024989060200160405180910390a15b5050505050565b62001ac4620030e2565b33600081815261010c602052604081206101005490916001600160a01b039091169062001af5612710606462004c24565b60fc5460fb5462001b07919062004c24565b62001b13919062004ce5565b9050600062001b26612710606462004c24565b6040516302a64b8360e21b81526001600160a01b03851690630a992e0c9062001b54903090600401620043b0565b602060405180830381865afa15801562001b72573d6000803e3d6000fd5b505050506040513d601f19601f8201168201806040525081019062001b98919062004c8d565b60fb5462001ba7919062004c24565b62001bb3919062004ce5565b905062001bc08562002d4f565b62001d0a5760028401805460ff1916600190811790915560fb5490850181905562001c1a9086903090849062001bf890879062004d08565b62001c04919062004d08565b610105546001600160a01b0316929190620035e4565b811562001c475760ff546101055462001c47916001600160a01b0391821691610100909104168462003640565b801562001ccc5762001ccc836001600160a01b031663987435be6040518163ffffffff1660e01b8152600401602060405180830381865afa15801562001c91573d6000803e3d6000fd5b505050506040513d601f19601f8201168201806040525081019062001cb7919062004e78565b610105546001600160a01b0316908362003640565b7f67e0244e28040fec15240cd4b6c04c776a2a0278caef23b59e8ada1df31f76898560fb5460405162001d0192919062004c74565b60405180910390a15b505050505062001d1a6001606555565b565b6001600160a01b038116331462001d8e5760405162461bcd60e51b815260206004820152602f60248201527f416363657373436f6e74726f6c3a2063616e206f6e6c792072656e6f756e636560448201526e103937b632b9903337b91039b2b63360891b6064820152608401620014a0565b620010e7828262003662565b6001600160a01b037f000000000000000000000000000000000000000000000000000000000000000016300362001de55760405162461bcd60e51b8152600401620014a090620050f4565b7f00000000000000000000000000000000000000000000000000000000000000006001600160a01b031662001e19620036cc565b6001600160a01b03161462001e425760405162461bcd60e51b8152600401620014a0906200512f565b62001e4d81620036e9565b6040805160008082526020820190925262001100918391906200372b565b62001e75620030a5565b62001e8081620031a1565b61010380546001600160a01b0319166001600160a01b03838116918217909255610106546040517f83eac9fdaff0ac1017624b7eddeb9782e3d707cd894073cb7e8301a41c6e5cf89362000d5d939216919062004ccb565b6001600160a01b037f000000000000000000000000000000000000000000000000000000000000000016300362001f235760405162461bcd60e51b8152600401620014a090620050f4565b7f00000000000000000000000000000000000000000000000000000000000000006001600160a01b031662001f57620036cc565b6001600160a01b03161462001f805760405162461bcd60e51b8152600401620014a0906200512f565b62001f8b82620036e9565b620010e7828260016200372b565b6000306001600160a01b037f00000000000000000000000000000000000000000000000000000000000000001614620020365760405162461bcd60e51b815260206004820152603860248201527f555550535570677261646561626c653a206d757374206e6f742062652063616c6044820152771b1959081d1a1c9bdd59da0819195b1959d85d1958d85b1b60421b6064820152608401620014a0565b5060008051602062005b2f83398151915290565b62002054620030e2565b6200205e620038a3565b33600081815261010d6020908152604080832080548251818502810185019093528083529192909190830182828015620020c257602002820191906000526020600020905b81546001600160a01b03168152600190910190602001808311620020a3575b50505050509050600080600090505b8251811015620021fd57828181518110620020f057620020f062004e98565b60200260200101516001600160a01b031663782aadff85876040518363ffffffff1660e01b81526004016200212792919062004c74565b6020604051808303816000875af115801562002147573d6000803e3d6000fd5b505050506040513d601f19601f820116820180604052508101906200216d919062004c8d565b91508115620021e8576001600160a01b038416600090815261010b602052604081208451849290869085908110620021a957620021a962004e98565b60200260200101516001600160a01b03166001600160a01b031681526020019081526020016000206000828254620021e2919062004d08565b90915550505b80620021f48162004f47565b915050620020d1565b506101055462002219906001600160a01b0316843087620035e4565b6001600160a01b038316600090815261010c6020526040812060010180548692906200224790849062004d08565b90915550506040517f576605f9bfe8911e7508bed3763c7c5c8eb3b86e8b360b90a4bc6abe1104cb7f9062002280908590879062004c74565b60405180910390a1505050620011006001606555565b610102546101075461010154600092839283926001600160a01b039283169263184b955960e01b9281169116620022cc62002c89565b6040516001600160a01b0393841660248201529183166044830152909116606482015260840160408051601f198184030181529181526020820180516001600160e01b03166001600160e01b0319909416939093179092529051620023319062004268565b6200233e9291906200516a565b604051809103906000f0801580156200235b573d6000803e3d6000fd5b5090506200236c8187878762002afc565b60c087015191945092506001600160a01b0316620024065760008360405160200162002399919062005190565b60405160208183030381529060405280519060200120905060005b8660e00151518110156200240357620023ee828860e001518381518110620023e057620023e062004e98565b602002602001015162003498565b80620023fa8162004f47565b915050620023b4565b50505b62002462836040516020016200241d919062005190565b6040516020818303038152906040528051906020012084604051602001620024469190620051ad565b604051602081830303815290604052805190602001206200358f565b6200249683604051602001620024799190620051ad565b604051602081830303815290604052805190602001208362003498565b50935093915050565b620024a9620030e2565b620024b3620038a3565b33600081815261010d6020908152604080832060fb5461010c9093529083206001015490929190620024e790869062004f63565b10156200250757604051634e23e81760e11b815260040160405180910390fd5b6101055462002521906001600160a01b0316848662003640565b60005b8254811015620027d157600083828154811062002545576200254562004e98565b6000918252602090912001546001600160a01b031690506200256f8163f1801e6160e01b620038cc565b15620026f557604051632ed04b2b60e01b81526001600160a01b03821690632ed04b2b90620025a59088908a9060040162004c74565b6020604051808303816000875af1158015620025c5573d6000803e3d6000fd5b505050506040513d601f19601f82011682018060405250810190620025eb919062004c8d565b9250600061010b6000876001600160a01b03166001600160a01b0316815260200190815260200160002060008685815481106200262c576200262c62004e98565b60009182526020808320909101546001600160a01b0316835282019290925260400190205490508084111562002680576040516311423e6360e31b81526004810185905260248101829052604401620014a0565b6001600160a01b038616600090815261010b602052604081208654869290889087908110620026b357620026b362004e98565b60009182526020808320909101546001600160a01b0316835282019290925260400181208054909190620026e990849062004f63565b909155505050620027bb565b83548490620027079060019062004f63565b815481106200271a576200271a62004e98565b9060005260206000200160009054906101000a90046001600160a01b03168483815481106200274d576200274d62004e98565b9060005260206000200160006101000a8154816001600160a01b0302191690836001600160a01b03160217905550838054806200278e576200278e620051d0565b600082815260209020810160001990810180546001600160a01b0319169055019055620027bb81620031d0565b5080620027c88162004f47565b91505062002524565b506001600160a01b038316600090815261010c6020526040812060010180548692906200280090849062004f63565b90915550506040517f6ee2c70b2d6b89ae808a2313aab43e925c06624271419cd665d85cfa1ae04ff89062002280908590879062004c74565b62002843620030e2565b6200284d620030a5565b60ff80541662002870576040516365b1ee3960e11b815260040160405180910390fd5b6200287b8262002d4f565b6200289957604051636a5cfb6d60e01b815260040160405180910390fd5b6001600160a01b03808316600090815261010c60209081526040918290208251606081018452815490941684526001810154918401919091526002015460ff16151590820152620028ea83620038f4565b6001600160a01b03808416600090815261010c60209081526040822080546001600160a01b031916815560018101929092556002909101805460ff19169055820151610105546200293f921690849062003640565b7fb5946f249f8744efe9d14d49a483b54a589b1362944ff6694de93456cceb96a383838360200151604051620029789392919062004ca7565b60405180910390a150620010e76001606555565b620029966200322e565b62001d1a600062003a09565b620029ac620030a5565b6101075460405163068bcd8d60e01b8152600481018390526000916001600160a01b03169063068bcd8d90602401600060405180830381865afa158015620029f8573d6000803e3d6000fd5b505050506040513d6000823e601f3d908101601f1916820160405262002a229190810190620051e6565b60200151905062002a3381620031a1565b620010e781620031d0565b62002a48620030a5565b6101075460405163068bcd8d60e01b8152600481018390526000916001600160a01b03169063068bcd8d90602401600060405180830381865afa15801562002a94573d6000803e3d6000fd5b505050506040513d6000823e601f3d908101601f1916820160405262002abe9190810190620051e6565b60200151905062002acf81620031a1565b62002aeb6001600160a01b03821663f1801e6160e01b620038cc565b15620010e757620010e78162003291565b60008073eeeeeeeeeeeeeeeeeeeeeeeeeeeeeeeeeeeeeeee6001600160a01b0386161562002b275750845b869150600061010f80548060200260200160405190810160405280929190818152602001828054801562002b8557602002820191906000526020600020905b81546001600160a01b0316815260019091019060200180831162002b66575b50506101075460fe546040519596506001600160a01b039091169463e1007d4a945090925087915062002bbd908b9060200162005346565b6040516020818303038152906040528660008b886040518863ffffffff1660e01b815260040162002bf597969594939291906200543f565b6020604051808303816000875af115801562002c15573d6000803e3d6000fd5b505050506040513d601f19601f8201168201806040525081019062002c3b919062004c8d565b93507f778cac0ae0b66477341553a4a89398c61ccf448313d3354ad0ca85a5a825d2838484308a8960405162002c76959493929190620054b0565b60405180910390a1505094509492505050565b60008062002c9f6033546001600160a01b031690565b9050806001600160a01b03163b60000362002cb957919050565b806001600160a01b0316638da5cb5b6040518163ffffffff1660e01b8152600401602060405180830381865afa92505050801562002d16575060408051601f3d908101601f1916820190925262002d139181019062004e78565b60015b62000cec57919050565b5090565b600091825260c9602090815260408084206001600160a01b0393909316845291905290205460ff1690565b6001600160a01b03908116600090815261010c60209081526040918290208251606081018452815490941684526001810154918401919091526002015460ff161515910181905290565b62002da36200322e565b61010180546001600160a01b0319166001600160a01b0392909216919091179055565b610103546001600160a01b0316331462002df3576040516375e686b760e11b815260040160405180910390fd5b62001d1a62003a5b565b610109805462002e0d9062004d1e565b80601f016020809104026020016040519081016040528092919081815260200182805462002e3b9062004d1e565b801562002e8c5780601f1062002e605761010080835404028352916020019162002e8c565b820191906000526020600020905b81548152906001019060200180831162002e6e57829003601f168201915b505050505081565b62002e9e620030e2565b3362002eaa816200313d565b62002eb581620038f4565b6001600160a01b03808216600081815261010c602090815260408083208151606081018352815496871681526001820180548286015260028301805460ff81161515848701529787526001600160a01b03199098169092559084905560ff1990941690945561010d9052918220909162002f30919062004276565b60208101516101055462002f52916001600160a01b0390911690849062003640565b7fa13f4668aacb68c4e9eed8e3f6e1cbec3eca776896ec46b5eabcc3983fc8f5f482826020015160405162002f8992919062004c74565b60405180910390a1505062001d1a6001606555565b62002fad612710600a62004c24565b81565b600054610100900460ff1662002fda5760405162461bcd60e51b8152600401620014a090620054ec565b620011008162003a09565b610108805462002e0d9062004d1e565b62003000826200123f565b6200300b816200348c565b620013b5838362003662565b600062000cec60008051602062005aef8339815191528362002d24565b6200303e6200322e565b6001600160a01b03811662002fda5760405162461bcd60e51b815260206004820152602660248201527f4f776e61626c653a206e6577206f776e657220697320746865207a65726f206160448201526564647265737360d01b6064820152608401620014a0565b620030c060008051602062005aef8339815191523362002d24565b62001d1a573360405163fc4be72f60e01b8152600401620014a09190620043b0565b600260655403620031365760405162461bcd60e51b815260206004820152601f60248201527f5265656e7472616e637947756172643a207265656e7472616e742063616c6c006044820152606401620014a0565b6002606555565b620031488162002d4f565b6200110057604051636a5cfb6d60e01b815260040160405180910390fd5b6001600160a01b038116600090815261010a602052604090205460ff1662001100576040516346c26e4b60e01b815260040160405180910390fd5b6001600160a01b03811662001100576040516303988b8160e61b815260040160405180910390fd5b6001606555565b620031db81620031a1565b6001600160a01b038116600090815261010a602052604090819020805460ff19169055517f09a1db4b80c32706328728508c941a6b954f31eb5affd32f236c1fd405f8fea49062000d5d908390620043b0565b336200323962002c89565b6001600160a01b03161462001d1a5760405162461bcd60e51b815260206004820181905260248201527f4f776e61626c653a2063616c6c6572206973206e6f7420746865206f776e65726044820152606401620014a0565b6001600160a01b038116600090815261010a602052604090205460ff1615620032cd576040516325a2934b60e21b815260040160405180910390fd5b6001600160a01b038116600090815261010a602052604090819020805460ff19166001179055517f3f008fd510eae7a9e7bee13513d7b83bef8003d488b5a3d0b0da4de71d6846f19062000d5d908390620043b0565b806001600160a01b0316826001600160a01b031614620010e75760405163bbe7961160e01b815260040160405180910390fd5b6001600160a01b038216600090815261010d60205260408120905b81548110156200348657826001600160a01b03168282815481106200339a576200339a62004e98565b6000918252602090912001546001600160a01b031603620034715781548290620033c79060019062004f63565b81548110620033da57620033da62004e98565b9060005260206000200160009054906101000a90046001600160a01b03168282815481106200340d576200340d62004e98565b9060005260206000200160006101000a8154816001600160a01b0302191690836001600160a01b03160217905550818054806200344e576200344e620051d0565b600082815260209020810160001990810180546001600160a01b03191690550190555b806200347d8162004f47565b91505062003371565b50505050565b62001100813362003abf565b620034a4828262002d24565b620010e757600082815260c9602090815260408083206001600160a01b03851684529091529020805460ff19166001179055620034de3390565b6001600160a01b0316816001600160a01b0316837f2f8788117e7eff1d82e926ec794901d17c78024a50270940304540a733656f0d60405160405180910390a45050565b6001600160a01b03163b151590565b600054610100900460ff166200355b5760405162461bcd60e51b8152600401620014a090620054ec565b62001d1a62003b23565b600054610100900460ff1662001d1a5760405162461bcd60e51b8152600401620014a090620054ec565b60006200359c836200123f565b600084815260c96020526040808220600101859055519192508391839186917fbd79b86ffe0ab8e8776151514217cd7cacd52c909f66475c3af44e129f0b00ff9190a4505050565b62003486846323b872dd60e01b858585604051602401620036089392919062004ca7565b60408051601f198184030181529190526020810180516001600160e01b03166001600160e01b03199093169290921790915262003b4d565b620013b58363a9059cbb60e01b84846040516024016200360892919062004c74565b6200366e828262002d24565b15620010e757600082815260c9602090815260408083206001600160a01b0385168085529252808320805460ff1916905551339285917ff6391f5c32d9c69d2a47ea670b442974b53935d1edc7fd64eb21e047a839171b9190a45050565b60008051602062005b2f833981519152546001600160a01b031690565b33620036f462002c89565b6001600160a01b0316146200110057336200370e62002c89565b60405163163678e960e01b8152600401620014a092919062004ccb565b7f4910fdfa16fed3260ed0e7147f7cc6da11a60208b5b9406d12a635614ffd91435460ff16156200376157620013b58362003c29565b826001600160a01b03166352d1902d6040518163ffffffff1660e01b8152600401602060405180830381865afa925050508015620037be575060408051601f3d908101601f19168201909252620037bb9181019062004c8d565b60015b620038235760405162461bcd60e51b815260206004820152602e60248201527f45524331393637557067726164653a206e657720696d706c656d656e7461746960448201526d6f6e206973206e6f74205555505360901b6064820152608401620014a0565b60008051602062005b2f8339815191528114620038955760405162461bcd60e51b815260206004820152602960248201527f45524331393637557067726164653a20756e737570706f727465642070726f786044820152681a58589b195555525160ba1b6064820152608401620014a0565b50620013b583838362003cc8565b620038ae3362002d4f565b62001d1a57604051636a5cfb6d60e01b815260040160405180910390fd5b6000620038d98362003cf3565b8015620038ed5750620038ed838362003d2b565b9392505050565b6001600160a01b038116600090815261010d60209081526040808320805482518185028101850190935280835291929091908301828280156200396157602002820191906000526020600020905b81546001600160a01b0316815260019091019060200180831162003942575b5050505050905060005b8151811015620013b5578181815181106200398a576200398a62004e98565b60200260200101516001600160a01b0316636453d9c4846040518263ffffffff1660e01b8152600401620039bf9190620043b0565b600060405180830381600087803b158015620039da57600080fd5b505af1158015620039ef573d6000803e3d6000fd5b50505050808062003a009062004f47565b9150506200396b565b603380546001600160a01b038381166001600160a01b0319831681179093556040519116919082907f8be0079c531659141344cd1fd0a4f28419497f9722a3daafe3b4186f6b6457e090600090a35050565b610103805461010680546001600160a01b03199081166001600160a01b038416179091551690556040517fad0399dc40331b9a4977aa89da7a164a3fd482c65e6da73b25a94ea74fb688729062003ab590600090620043b0565b60405180910390a1565b62003acb828262002d24565b620010e75762003adb8162003db6565b62003ae883602062003dc9565b60405160200162003afb92919062005537565b60408051601f198184030181529082905262461bcd60e51b8252620014a09160040162004bf9565b600054610100900460ff16620031c95760405162461bcd60e51b8152600401620014a090620054ec565b600062003ba4826040518060400160405280602081526020017f5361666545524332303a206c6f772d6c6576656c2063616c6c206661696c6564815250856001600160a01b031662003f829092919063ffffffff16565b905080516000148062003bc857508080602001905181019062003bc89190620055aa565b620013b55760405162461bcd60e51b815260206004820152602a60248201527f5361666545524332303a204552433230206f7065726174696f6e20646964206e6044820152691bdd081cdd58d8d9595960b21b6064820152608401620014a0565b62003c348162003522565b62003c985760405162461bcd60e51b815260206004820152602d60248201527f455243313936373a206e657720696d706c656d656e746174696f6e206973206e60448201526c1bdd08184818dbdb9d1c9858dd609a1b6064820152608401620014a0565b60008051602062005b2f83398151915280546001600160a01b0319166001600160a01b0392909216919091179055565b62003cd38362003f9b565b60008251118062003ce15750805b15620013b55762003486838362003fdd565b600062003d08826301ffc9a760e01b62003d2b565b801562000cec575062003d24826001600160e01b031962003d2b565b1592915050565b604080516001600160e01b03198316602480830191909152825180830390910181526044909101909152602080820180516001600160e01b03166301ffc9a760e01b178152825160009392849283928392918391908a617530fa92503d9150600051905082801562003d9e575060208210155b801562003dab5750600081115b979650505050505050565b606062000cec6001600160a01b03831660145b6060600062003dda83600262004c24565b62003de790600262004d08565b6001600160401b0381111562003e015762003e01620043ec565b6040519080825280601f01601f19166020018201604052801562003e2c576020820181803683370190505b509050600360fc1b8160008151811062003e4a5762003e4a62004e98565b60200101906001600160f81b031916908160001a905350600f60fb1b8160018151811062003e7c5762003e7c62004e98565b60200101906001600160f81b031916908160001a905350600062003ea284600262004c24565b62003eaf90600162004d08565b90505b600181111562003f31576f181899199a1a9b1b9c1cb0b131b232b360811b85600f166010811062003ee75762003ee762004e98565b1a60f81b82828151811062003f005762003f0062004e98565b60200101906001600160f81b031916908160001a90535060049490941c9362003f2981620055ca565b905062003eb2565b508315620038ed5760405162461bcd60e51b815260206004820181905260248201527f537472696e67733a20686578206c656e67746820696e73756666696369656e746044820152606401620014a0565b606062003f93848460008562004005565b949350505050565b62003fa68162003c29565b6040516001600160a01b038216907fbc7cd75a20ee27fd9adebab32041f755214dbc6bffa90cc0225b39da2e5c2d3b90600090a250565b6060620038ed838360405180606001604052806027815260200162005b4f60279139620040dd565b606082471015620040685760405162461bcd60e51b815260206004820152602660248201527f416464726573733a20696e73756666696369656e742062616c616e636520666f6044820152651c8818d85b1b60d21b6064820152608401620014a0565b600080866001600160a01b03168587604051620040869190620055e4565b60006040518083038185875af1925050503d8060008114620040c5576040519150601f19603f3d011682016040523d82523d6000602084013e620040ca565b606091505b509150915062003dab878383876200415b565b6060600080856001600160a01b031685604051620040fc9190620055e4565b600060405180830381855af49150503d806000811462004139576040519150601f19603f3d011682016040523d82523d6000602084013e6200413e565b606091505b509150915062004151868383876200415b565b9695505050505050565b60608315620041cf578251600003620041c757620041798562003522565b620041c75760405162461bcd60e51b815260206004820152601d60248201527f416464726573733a2063616c6c20746f206e6f6e2d636f6e74726163740000006044820152606401620014a0565b508162003f93565b62003f938383815115620041e65781518083602001fd5b8060405162461bcd60e51b8152600401620014a0919062004bf9565b8280548282559060005260206000209081019282156200425a579160200282015b828111156200425a57825182546001600160a01b0319166001600160a01b0390911617825560209092019160019091019062004223565b5062002d2092915062004291565b6104ec806200560383390190565b50805460008255906000526020600020908101906200110091905b5b8082111562002d20576000815560010162004292565b600060208284031215620042bb57600080fd5b81356001600160e01b031981168114620038ed57600080fd5b600060208284031215620042e757600080fd5b5035919050565b6001600160a01b03811681146200110057600080fd5b80356200431181620042ee565b919050565b600080604083850312156200432a57600080fd5b82356200433781620042ee565b915060208301356200434981620042ee565b809150509250929050565b6000602082840312156200436757600080fd5b8135620038ed81620042ee565b600080604083850312156200438857600080fd5b82356200439581620042ee565b946020939093013593505050565b6001600160a01b03169052565b6001600160a01b0391909116815260200190565b60008060408385031215620043d857600080fd5b8235915060208301356200434981620042ee565b634e487b7160e01b600052604160045260246000fd5b604080519081016001600160401b0381118282101715620044275762004427620043ec565b60405290565b60405161018081016001600160401b0381118282101715620044275762004427620043ec565b60405160c081016001600160401b0381118282101715620044275762004427620043ec565b60405161010081016001600160401b0381118282101715620044275762004427620043ec565b604051601f8201601f191681016001600160401b0381118282101715620044c957620044c9620043ec565b604052919050565b60006001600160401b03821115620044ed57620044ed620043ec565b50601f01601f191660200190565b6000620045126200450c84620044d1565b6200449e565b90508281528383830111156200452757600080fd5b828260208301376000602084830101529392505050565b600082601f8301126200455057600080fd5b620038ed83833560208501620044fb565b6000604082840312156200457457600080fd5b6200457e62004402565b82358152905060208201356001600160401b038111156200459e57600080fd5b620045ac848285016200453e565b60208301525092915050565b80151581146200110057600080fd5b80356200431181620045b8565b60008060008060808587031215620045eb57600080fd5b84356001600160401b03808211156200460357600080fd5b9086019061018082890312156200461957600080fd5b620046236200442d565b6200462e8362004304565b81526200463e6020840162004304565b60208201526040830135604082015260608301356060820152608083013560808201526200466f60a0840162004304565b60a08201526200468260c0840162004304565b60c082015260e0830135828111156200469a57600080fd5b620046a88a82860162004561565b60e083015250610100620046be81850162004304565b908201526101208381013583811115620046d757600080fd5b620046e58b8287016200453e565b828401525050610140620046fb818501620045c7565b9082015261016083810135838111156200471457600080fd5b620047228b8287016200453e565b8284015250508096505050506200473c6020860162004304565b92506200474c6040860162004304565b91506200475c6060860162004304565b905092959194509250565b600080604083850312156200477b57600080fd5b82356200478881620042ee565b915060208301356001600160401b03811115620047a457600080fd5b8301601f81018513620047b657600080fd5b620047c785823560208401620044fb565b9150509250929050565b600060808284031215620047e457600080fd5b604051608081016001600160401b0381118282101715620048095762004809620043ec565b8060405250809150823581526020830135602082015260408301356040820152606083013560608201525092915050565b8035600381106200431157600080fd5b600481106200110057600080fd5b803562004311816200484a565b6000602082840312156200487857600080fd5b604051602081016001600160401b03811182821017156200489d576200489d620043ec565b6040529135825250919050565b600060c08284031215620048bd57600080fd5b620048c762004453565b90508135620048d681620042ee565b81526020820135620048e881620042ee565b8060208301525060408201356040820152606082013560608201526080820135608082015260a082013560a082015292915050565b60006001600160401b03821115620049395762004939620043ec565b5060051b60200190565b600082601f8301126200495557600080fd5b81356020620049686200450c836200491d565b82815260059290921b840181019181810190868411156200498857600080fd5b8286015b84811015620049b0578035620049a281620042ee565b83529183019183016200498c565b509695505050505050565b60006102008284031215620049cf57600080fd5b620049d962004478565b9050620049e78383620047d1565b8152620049f7608083016200483a565b602082015262004a0a60a0830162004858565b604082015262004a1e8360c0840162004865565b606082015262004a328360e08401620048aa565b608082015262004a466101a0830162004304565b60a082015262004a5a6101c0830162004304565b60c08201526101e08201356001600160401b0381111562004a7a57600080fd5b62004a888482850162004943565b60e08301525092915050565b60008060006060848603121562004aaa57600080fd5b833562004ab781620042ee565b925060208401356001600160401b038082111562004ad457600080fd5b62004ae287838801620049bb565b9350604086013591508082111562004af957600080fd5b5062004b088682870162004561565b9150509250925092565b6000806000806080858703121562004b2957600080fd5b843562004b3681620042ee565b9350602085013562004b4881620042ee565b925060408501356001600160401b038082111562004b6557600080fd5b62004b7388838901620049bb565b9350606087013591508082111562004b8a57600080fd5b5062004b998782880162004561565b91505092959194509250565b60005b8381101562004bc257818101518382015260200162004ba8565b50506000910152565b6000815180845262004be581602086016020860162004ba5565b601f01601f19169290920160200192915050565b602081526000620038ed602083018462004bcb565b634e487b7160e01b600052601160045260246000fd5b808202811582820484141762000cec5762000cec62004c0e565b634e487b7160e01b600052602160045260246000fd5b60006020828403121562004c6757600080fd5b8151620038ed816200484a565b6001600160a01b03929092168252602082015260400190565b60006020828403121562004ca057600080fd5b5051919050565b6001600160a01b039384168152919092166020820152604081019190915260600190565b6001600160a01b0392831681529116602082015260400190565b60008262004d0357634e487b7160e01b600052601260045260246000fd5b500490565b8082018082111562000cec5762000cec62004c0e565b600181811c9082168062004d3357607f821691505b60208210810362004d5457634e487b7160e01b600052602260045260246000fd5b50919050565b601f821115620013b557600081815260208120601f850160051c8101602086101562004d835750805b601f850160051c820191505b8181101562004da45782815560010162004d8f565b505050505050565b81516001600160401b0381111562004dc85762004dc8620043ec565b62004de08162004dd9845462004d1e565b8462004d5a565b602080601f83116001811462004e18576000841562004dff5750858301515b600019600386901b1c1916600185901b17855562004da4565b600085815260208120601f198616915b8281101562004e495788860151825594840194600190910190840162004e28565b508582101562004e685787850151600019600388901b60f8161c191681555b5050505050600190811b01905550565b60006020828403121562004e8b57600080fd5b8151620038ed81620042ee565b634e487b7160e01b600052603260045260246000fd5b6000602080838503121562004ec257600080fd5b82516001600160401b0381111562004ed957600080fd5b8301601f8101851362004eeb57600080fd5b805162004efc6200450c826200491d565b81815260059190911b8201830190838101908783111562004f1c57600080fd5b928401925b8284101562003dab57835162004f3781620042ee565b8252928401929084019062004f21565b60006001820162004f5c5762004f5c62004c0e565b5060010190565b8181038181111562000cec5762000cec62004c0e565b6000815462004f888162004d1e565b80855260206001838116801562004fa8576001811462004fc35762004ff3565b60ff1985168884015283151560051b88018301955062004ff3565b866000528260002060005b8581101562004feb5781548a820186015290830190840162004fce565b890184019650505b505050505092915050565b80518252600060208201516040602085015262003f93604085018262004bcb565b600081518084526020808501945080840160005b838110156200505a5781516001600160a01b03168752958201959082019060010162005033565b509495945050505050565b85815260a0602082015260006200508060a083018762004f79565b828103604084015262005094818762004ffe565b6001600160a01b038616606085015283810360808501529050620050b981856200501f565b98975050505050505050565b838152606060208201526000620050e0606083018562004f79565b828103604084015262004151818562004ffe565b6020808252602c9082015260008051602062005b0f83398151915260408201526b19195b1959d85d1958d85b1b60a21b606082015260800190565b6020808252602c9082015260008051602062005b0f83398151915260408201526b6163746976652070726f787960a01b606082015260800190565b6001600160a01b038316815260406020820181905260009062003f939083018462004bcb565b6810531313d5d31254d560ba1b8152600981019190915260290190565b6e20a62627aba624a9aa2fa0a226a4a760891b8152600f810191909152602f0190565b634e487b7160e01b600052603160045260246000fd5b60006020808385031215620051fa57600080fd5b82516001600160401b03808211156200521257600080fd5b9084019060c082870312156200522757600080fd5b6200523162004453565b82518152838301516200524481620042ee565b8185015260408301516200525881620042ee565b60408201526060830151828111156200527057600080fd5b8301604081890312156200528357600080fd5b6200528d62004402565b815181528582015184811115620052a357600080fd5b82019350601f84018913620052b757600080fd5b83519150620052ca6200450c83620044d1565b8281528987848701011115620052df57600080fd5b620052f08388830189880162004ba5565b95810195909552506060810193909352506080818101519083015260a090810151908201529392505050565b600381106200532f576200532f62004c3e565b9052565b600481106200532f576200532f62004c3e565b6020815260008251805160208401526020810151604084015260408101516060840152606081015160808401525060208301516200538860a08401826200531c565b5060408301516200539d60c084018262005333565b506060838101515160e084015260808085015180516001600160a01b0390811661010087015260208201511661012086015260408101516101408601529182015161016085015281015161018084015260a0908101516101a08401528301516200540c6101c0840182620043a3565b5060c0830151620054226101e0840182620043a3565b5060e08301516102008381015262003f936102208401826200501f565b878152600060018060a01b03808916602084015260e060408401526200546960e084018962004bcb565b818816606085015286608085015283810360a08501526200548b818762004ffe565b91505082810360c0840152620054a281856200501f565b9a9950505050505050505050565b8581526001600160a01b03858116602083015284811660408301528316606082015260a06080820181905260009062003dab9083018462004ffe565b6020808252602b908201527f496e697469616c697a61626c653a20636f6e7472616374206973206e6f74206960408201526a6e697469616c697a696e6760a81b606082015260800190565b76020b1b1b2b9b9a1b7b73a3937b61d1030b1b1b7bab73a1604d1b8152600083516200556b81601785016020880162004ba5565b7001034b99036b4b9b9b4b733903937b6329607d1b60179184019182015283516200559e81602884016020880162004ba5565b01602801949350505050565b600060208284031215620055bd57600080fd5b8151620038ed81620045b8565b600081620055dc57620055dc62004c0e565b506000190190565b60008251620055f881846020870162004ba5565b919091019291505056fe60806040526040516104ec3803806104ec833981016040819052610022916102e9565b61002e82826000610035565b5050610406565b61003e83610061565b60008251118061004b5750805b1561005c5761005a83836100a1565b505b505050565b61006a816100cd565b6040516001600160a01b038216907fbc7cd75a20ee27fd9adebab32041f755214dbc6bffa90cc0225b39da2e5c2d3b90600090a250565b60606100c683836040518060600160405280602781526020016104c56027913961017e565b9392505050565b6100d6816101f7565b61013d5760405162461bcd60e51b815260206004820152602d60248201527f455243313936373a206e657720696d706c656d656e746174696f6e206973206e60448201526c1bdd08184818dbdb9d1c9858dd609a1b60648201526084015b60405180910390fd5b7f360894a13ba1a3210667c828492db98dca3e2076cc3735a920a3ca505d382bbc80546001600160a01b0319166001600160a01b0392909216919091179055565b6060600080856001600160a01b03168560405161019b91906103b7565b600060405180830381855af49150503d80600081146101d6576040519150601f19603f3d011682016040523d82523d6000602084013e6101db565b606091505b5090925090506101ed86838387610206565b9695505050505050565b6001600160a01b03163b151590565b6060831561027357825160000361026c57610220856101f7565b61026c5760405162461bcd60e51b815260206004820152601d60248201527f416464726573733a2063616c6c20746f206e6f6e2d636f6e74726163740000006044820152606401610134565b508161027d565b61027d8383610285565b949350505050565b8151156102955781518083602001fd5b8060405162461bcd60e51b815260040161013491906103d3565b634e487b7160e01b600052604160045260246000fd5b60005b838110156102e05781810151838201526020016102c8565b50506000910152565b600080604083850312156102fc57600080fd5b82516001600160a01b038116811461031357600080fd5b60208401519092506001600160401b038082111561033057600080fd5b818501915085601f83011261034457600080fd5b815181811115610356576103566102af565b604051601f8201601f19908116603f0116810190838211818310171561037e5761037e6102af565b8160405282815288602084870101111561039757600080fd5b6103a88360208301602088016102c5565b80955050505050509250929050565b600082516103c98184602087016102c5565b9190910192915050565b60208152600082518060208401526103f28160408501602087016102c5565b601f01601f19169190910160400192915050565b60b1806104146000396000f3fe608060405236601057600e6013565b005b600e5b601f601b6021565b6058565b565b600060537f360894a13ba1a3210667c828492db98dca3e2076cc3735a920a3ca505d382bbc546001600160a01b031690565b905090565b3660008037600080366000845af43d6000803e8080156076573d6000f35b3d6000fdfea264697066735822122089ec811860b0d3e9ce0458b15d11619b63d4b483449c26e05173d819bdc87c8e64736f6c63430008130033416464726573733a206c6f772d6c6576656c2064656c65676174652063616c6c206661696c656403be538b6391ddcd7f2649585cc95b120c9e2a613f70714fbb55345057d809fa46756e6374696f6e206d7573742062652063616c6c6564207468726f75676820360894a13ba1a3210667c828492db98dca3e2076cc3735a920a3ca505d382bbc416464726573733a206c6f772d6c6576656c2064656c65676174652063616c6c206661696c6564a2646970667358221220c739da9d84f55bfb1420ef19f58a24834fed3212fffa7b85776ce3b8fe1ef72c64736f6c63430008130033","linkReferences":{}},"methodIdentifiers":{"COUNCIL_MEMBER()":"733a2d1f","DEFAULT_ADMIN_ROLE()":"a217fddf","MAX_FEE()":"bc063e1a","NATIVE()":"a0cf0aea","PRECISION_SCALE()":"d7050f07","acceptCouncilSafe()":"b5058c50","activateMemberInStrategy(address,address)":"0d4a8b49","addStrategy(address)":"223e5479","addStrategyByPoolId(uint256)":"82d6a1e7","addressToMemberInfo(address)":"88cfe684","allo()":"d6d8428d","cloneNonce()":"33960459","collateralVaultTemplate()":"77122d56","communityFee()":"8961be6b","communityName()":"c6d572ae","councilSafe()":"6c53db9a","covenantIpfsHash()":"b64e39af","createPool(address,((uint256,uint256,uint256,uint256),uint8,uint8,(uint256),(address,address,uint256,uint256,uint256,uint256),address,address,address[]),(uint256,string))":"579eb7e5","createPool(address,address,((uint256,uint256,uint256,uint256),uint8,uint8,(uint256),(address,address,uint256,uint256,uint256,uint256),address,address,address[]),(uint256,string))":"8659ffdd","deactivateMemberInStrategy(address,address)":"22bcf999","decreasePower(uint256)":"5ecf71c5","enabledStrategies(address)":"3a871fe1","feeReceiver()":"b3f00674","gardenToken()":"db61d65c","getBasisStakedAmount()":"0331383c","getMemberPowerInStrategy(address,address)":"7817ee4f","getMemberStakedAmount(address)":"2c611c4a","getRoleAdmin(bytes32)":"248a9ca3","getStakeAmountWithFees()":"28c309e9","grantRole(bytes32,address)":"2f2ff15d","hasRole(bytes32,address)":"91d14854","increasePower(uint256)":"559de05d","initialize((address,address,uint256,uint256,uint256,address,address,(uint256,string),address,string,bool,string),address,address,address)":"34196355","initialize(address)":"c4d66de8","isCouncilMember(address)":"ebd7dc52","isKickEnabled()":"1f787d28","isMember(address)":"a230c524","kickMember(address,address)":"6871eb4d","memberActivatedInStrategies(address,address)":"477a5cc0","memberPowerInStrategy(address,address)":"65e3864c","owner()":"8da5cb5b","pendingCouncilSafe()":"68decabb","profileId()":"08386eba","proxiableUUID()":"52d1902d","registerStakeAmount()":"78a0b8a9","registry()":"7b103999","registryFactory()":"f86c5f89","removeStrategy(address)":"175188e8","removeStrategyByPoolId(uint256)":"73265c37","renounceOwnership()":"715018a6","renounceRole(bytes32,address)":"36568abe","revokeRole(bytes32,address)":"d547741f","setBasisStakedAmount(uint256)":"31f61bca","setCollateralVaultTemplate(address)":"b0d3713a","setCommunityFee(uint256)":"0d12bbdb","setCouncilSafe(address)":"397e2543","setStrategyTemplate(address)":"1b71f0e4","stakeAndRegisterMember()":"3517aa7d","strategiesByMember(address,uint256)":"2b38c69c","strategyTemplate()":"5c94e4d2","supportsInterface(bytes4)":"01ffc9a7","transferOwnership(address)":"f2fde38b","unregisterMember()":"b99b4370","upgradeTo(address)":"3659cfe6","upgradeToAndCall(address,bytes)":"4f1ef286"},"storageLayout":{"storage":[{"astId":52990,"contract":"pkg/contracts/src/RegistryCommunity/RegistryCommunityV0_0.sol:RegistryCommunityV0_0","label":"_initialized","offset":0,"slot":"0","type":"t_uint8"},{"astId":52993,"contract":"pkg/contracts/src/RegistryCommunity/RegistryCommunityV0_0.sol:RegistryCommunityV0_0","label":"_initializing","offset":1,"slot":"0","type":"t_bool"},{"astId":53695,"contract":"pkg/contracts/src/RegistryCommunity/RegistryCommunityV0_0.sol:RegistryCommunityV0_0","label":"__gap","offset":0,"slot":"1","type":"t_array(t_uint256)50_storage"},{"astId":52782,"contract":"pkg/contracts/src/RegistryCommunity/RegistryCommunityV0_0.sol:RegistryCommunityV0_0","label":"_owner","offset":0,"slot":"51","type":"t_address"},{"astId":52902,"contract":"pkg/contracts/src/RegistryCommunity/RegistryCommunityV0_0.sol:RegistryCommunityV0_0","label":"__gap","offset":0,"slot":"52","type":"t_array(t_uint256)49_storage"},{"astId":53167,"contract":"pkg/contracts/src/RegistryCommunity/RegistryCommunityV0_0.sol:RegistryCommunityV0_0","label":"_status","offset":0,"slot":"101","type":"t_uint256"},{"astId":53236,"contract":"pkg/contracts/src/RegistryCommunity/RegistryCommunityV0_0.sol:RegistryCommunityV0_0","label":"__gap","offset":0,"slot":"102","type":"t_array(t_uint256)49_storage"},{"astId":53969,"contract":"pkg/contracts/src/RegistryCommunity/RegistryCommunityV0_0.sol:RegistryCommunityV0_0","label":"__gap","offset":0,"slot":"151","type":"t_array(t_uint256)50_storage"},{"astId":52389,"contract":"pkg/contracts/src/RegistryCommunity/RegistryCommunityV0_0.sol:RegistryCommunityV0_0","label":"_roles","offset":0,"slot":"201","type":"t_mapping(t_bytes32,t_struct(RoleData)52384_storage)"},{"astId":52696,"contract":"pkg/contracts/src/RegistryCommunity/RegistryCommunityV0_0.sol:RegistryCommunityV0_0","label":"__gap","offset":0,"slot":"202","type":"t_array(t_uint256)49_storage"},{"astId":70703,"contract":"pkg/contracts/src/RegistryCommunity/RegistryCommunityV0_0.sol:RegistryCommunityV0_0","label":"registerStakeAmount","offset":0,"slot":"251","type":"t_uint256"},{"astId":70706,"contract":"pkg/contracts/src/RegistryCommunity/RegistryCommunityV0_0.sol:RegistryCommunityV0_0","label":"communityFee","offset":0,"slot":"252","type":"t_uint256"},{"astId":70709,"contract":"pkg/contracts/src/RegistryCommunity/RegistryCommunityV0_0.sol:RegistryCommunityV0_0","label":"cloneNonce","offset":0,"slot":"253","type":"t_uint256"},{"astId":70712,"contract":"pkg/contracts/src/RegistryCommunity/RegistryCommunityV0_0.sol:RegistryCommunityV0_0","label":"profileId","offset":0,"slot":"254","type":"t_bytes32"},{"astId":70715,"contract":"pkg/contracts/src/RegistryCommunity/RegistryCommunityV0_0.sol:RegistryCommunityV0_0","label":"isKickEnabled","offset":0,"slot":"255","type":"t_bool"},{"astId":70718,"contract":"pkg/contracts/src/RegistryCommunity/RegistryCommunityV0_0.sol:RegistryCommunityV0_0","label":"feeReceiver","offset":1,"slot":"255","type":"t_address"},{"astId":70721,"contract":"pkg/contracts/src/RegistryCommunity/RegistryCommunityV0_0.sol:RegistryCommunityV0_0","label":"registryFactory","offset":0,"slot":"256","type":"t_address"},{"astId":70724,"contract":"pkg/contracts/src/RegistryCommunity/RegistryCommunityV0_0.sol:RegistryCommunityV0_0","label":"collateralVaultTemplate","offset":0,"slot":"257","type":"t_address"},{"astId":70727,"contract":"pkg/contracts/src/RegistryCommunity/RegistryCommunityV0_0.sol:RegistryCommunityV0_0","label":"strategyTemplate","offset":0,"slot":"258","type":"t_address"},{"astId":70730,"contract":"pkg/contracts/src/RegistryCommunity/RegistryCommunityV0_0.sol:RegistryCommunityV0_0","label":"pendingCouncilSafe","offset":0,"slot":"259","type":"t_address_payable"},{"astId":70734,"contract":"pkg/contracts/src/RegistryCommunity/RegistryCommunityV0_0.sol:RegistryCommunityV0_0","label":"registry","offset":0,"slot":"260","type":"t_contract(IRegistry)2802"},{"astId":70738,"contract":"pkg/contracts/src/RegistryCommunity/RegistryCommunityV0_0.sol:RegistryCommunityV0_0","label":"gardenToken","offset":0,"slot":"261","type":"t_contract(IERC20)56528"},{"astId":70742,"contract":"pkg/contracts/src/RegistryCommunity/RegistryCommunityV0_0.sol:RegistryCommunityV0_0","label":"councilSafe","offset":0,"slot":"262","type":"t_contract(ISafe)73593"},{"astId":70746,"contract":"pkg/contracts/src/RegistryCommunity/RegistryCommunityV0_0.sol:RegistryCommunityV0_0","label":"allo","offset":0,"slot":"263","type":"t_contract(FAllo)73326"},{"astId":70749,"contract":"pkg/contracts/src/RegistryCommunity/RegistryCommunityV0_0.sol:RegistryCommunityV0_0","label":"communityName","offset":0,"slot":"264","type":"t_string_storage"},{"astId":70752,"contract":"pkg/contracts/src/RegistryCommunity/RegistryCommunityV0_0.sol:RegistryCommunityV0_0","label":"covenantIpfsHash","offset":0,"slot":"265","type":"t_string_storage"},{"astId":70757,"contract":"pkg/contracts/src/RegistryCommunity/RegistryCommunityV0_0.sol:RegistryCommunityV0_0","label":"enabledStrategies","offset":0,"slot":"266","type":"t_mapping(t_address,t_bool)"},{"astId":70764,"contract":"pkg/contracts/src/RegistryCommunity/RegistryCommunityV0_0.sol:RegistryCommunityV0_0","label":"memberPowerInStrategy","offset":0,"slot":"267","type":"t_mapping(t_address,t_mapping(t_address,t_uint256))"},{"astId":70770,"contract":"pkg/contracts/src/RegistryCommunity/RegistryCommunityV0_0.sol:RegistryCommunityV0_0","label":"addressToMemberInfo","offset":0,"slot":"268","type":"t_mapping(t_address,t_struct(Member)70911_storage)"},{"astId":70776,"contract":"pkg/contracts/src/RegistryCommunity/RegistryCommunityV0_0.sol:RegistryCommunityV0_0","label":"strategiesByMember","offset":0,"slot":"269","type":"t_mapping(t_address,t_array(t_address)dyn_storage)"},{"astId":70783,"contract":"pkg/contracts/src/RegistryCommunity/RegistryCommunityV0_0.sol:RegistryCommunityV0_0","label":"memberActivatedInStrategies","offset":0,"slot":"270","type":"t_mapping(t_address,t_mapping(t_address,t_bool))"},{"astId":70787,"contract":"pkg/contracts/src/RegistryCommunity/RegistryCommunityV0_0.sol:RegistryCommunityV0_0","label":"initialMembers","offset":0,"slot":"271","type":"t_array(t_address)dyn_storage"},{"astId":72506,"contract":"pkg/contracts/src/RegistryCommunity/RegistryCommunityV0_0.sol:RegistryCommunityV0_0","label":"__gap","offset":0,"slot":"272","type":"t_array(t_uint256)50_storage"}],"types":{"t_address":{"encoding":"inplace","label":"address","numberOfBytes":"20"},"t_address_payable":{"encoding":"inplace","label":"address payable","numberOfBytes":"20"},"t_array(t_address)dyn_storage":{"encoding":"dynamic_array","label":"address[]","numberOfBytes":"32","base":"t_address"},"t_array(t_uint256)49_storage":{"encoding":"inplace","label":"uint256[49]","numberOfBytes":"1568","base":"t_uint256"},"t_array(t_uint256)50_storage":{"encoding":"inplace","label":"uint256[50]","numberOfBytes":"1600","base":"t_uint256"},"t_bool":{"encoding":"inplace","label":"bool","numberOfBytes":"1"},"t_bytes32":{"encoding":"inplace","label":"bytes32","numberOfBytes":"32"},"t_contract(FAllo)73326":{"encoding":"inplace","label":"contract FAllo","numberOfBytes":"20"},"t_contract(IERC20)56528":{"encoding":"inplace","label":"contract IERC20","numberOfBytes":"20"},"t_contract(IRegistry)2802":{"encoding":"inplace","label":"contract IRegistry","numberOfBytes":"20"},"t_contract(ISafe)73593":{"encoding":"inplace","label":"contract ISafe","numberOfBytes":"20"},"t_mapping(t_address,t_array(t_address)dyn_storage)":{"encoding":"mapping","key":"t_address","label":"mapping(address => address[])","numberOfBytes":"32","value":"t_array(t_address)dyn_storage"},"t_mapping(t_address,t_bool)":{"encoding":"mapping","key":"t_address","label":"mapping(address => bool)","numberOfBytes":"32","value":"t_bool"},"t_mapping(t_address,t_mapping(t_address,t_bool))":{"encoding":"mapping","key":"t_address","label":"mapping(address => mapping(address => bool))","numberOfBytes":"32","value":"t_mapping(t_address,t_bool)"},"t_mapping(t_address,t_mapping(t_address,t_uint256))":{"encoding":"mapping","key":"t_address","label":"mapping(address => mapping(address => uint256))","numberOfBytes":"32","value":"t_mapping(t_address,t_uint256)"},"t_mapping(t_address,t_struct(Member)70911_storage)":{"encoding":"mapping","key":"t_address","label":"mapping(address => struct RegistryCommunityV0_0.Member)","numberOfBytes":"32","value":"t_struct(Member)70911_storage"},"t_mapping(t_address,t_uint256)":{"encoding":"mapping","key":"t_address","label":"mapping(address => uint256)","numberOfBytes":"32","value":"t_uint256"},"t_mapping(t_bytes32,t_struct(RoleData)52384_storage)":{"encoding":"mapping","key":"t_bytes32","label":"mapping(bytes32 => struct AccessControlUpgradeable.RoleData)","numberOfBytes":"32","value":"t_struct(RoleData)52384_storage"},"t_string_storage":{"encoding":"bytes","label":"string","numberOfBytes":"32"},"t_struct(Member)70911_storage":{"encoding":"inplace","label":"struct RegistryCommunityV0_0.Member","numberOfBytes":"96","members":[{"astId":70906,"contract":"pkg/contracts/src/RegistryCommunity/RegistryCommunityV0_0.sol:RegistryCommunityV0_0","label":"member","offset":0,"slot":"0","type":"t_address"},{"astId":70908,"contract":"pkg/contracts/src/RegistryCommunity/RegistryCommunityV0_0.sol:RegistryCommunityV0_0","label":"stakedAmount","offset":0,"slot":"1","type":"t_uint256"},{"astId":70910,"contract":"pkg/contracts/src/RegistryCommunity/RegistryCommunityV0_0.sol:RegistryCommunityV0_0","label":"isRegistered","offset":0,"slot":"2","type":"t_bool"}]},"t_struct(RoleData)52384_storage":{"encoding":"inplace","label":"struct AccessControlUpgradeable.RoleData","numberOfBytes":"64","members":[{"astId":52381,"contract":"pkg/contracts/src/RegistryCommunity/RegistryCommunityV0_0.sol:RegistryCommunityV0_0","label":"members","offset":0,"slot":"0","type":"t_mapping(t_address,t_bool)"},{"astId":52383,"contract":"pkg/contracts/src/RegistryCommunity/RegistryCommunityV0_0.sol:RegistryCommunityV0_0","label":"adminRole","offset":0,"slot":"1","type":"t_bytes32"}]},"t_uint256":{"encoding":"inplace","label":"uint256","numberOfBytes":"32"},"t_uint8":{"encoding":"inplace","label":"uint8","numberOfBytes":"1"}}},"id":104}