{"abi":[{"type":"function","name":"COUNCIL_MEMBER","inputs":[],"outputs":[{"name":"","type":"bytes32","internalType":"bytes32"}],"stateMutability":"view"},{"type":"function","name":"DEFAULT_ADMIN_ROLE","inputs":[],"outputs":[{"name":"","type":"bytes32","internalType":"bytes32"}],"stateMutability":"view"},{"type":"function","name":"MAX_FEE","inputs":[],"outputs":[{"name":"","type":"uint256","internalType":"uint256"}],"stateMutability":"view"},{"type":"function","name":"NATIVE","inputs":[],"outputs":[{"name":"","type":"address","internalType":"address"}],"stateMutability":"view"},{"type":"function","name":"PRECISION_SCALE","inputs":[],"outputs":[{"name":"","type":"uint256","internalType":"uint256"}],"stateMutability":"view"},{"type":"function","name":"acceptCouncilSafe","inputs":[],"outputs":[],"stateMutability":"nonpayable"},{"type":"function","name":"activateMemberInStrategy","inputs":[{"name":"_member","type":"address","internalType":"address"},{"name":"_strategy","type":"address","internalType":"address"}],"outputs":[],"stateMutability":"nonpayable"},{"type":"function","name":"addStrategy","inputs":[{"name":"_newStrategy","type":"address","internalType":"address"}],"outputs":[],"stateMutability":"nonpayable"},{"type":"function","name":"addStrategyByPoolId","inputs":[{"name":"poolId","type":"uint256","internalType":"uint256"}],"outputs":[],"stateMutability":"nonpayable"},{"type":"function","name":"addressToMemberInfo","inputs":[{"name":"member","type":"address","internalType":"address"}],"outputs":[{"name":"member","type":"address","internalType":"address"},{"name":"stakedAmount","type":"uint256","internalType":"uint256"},{"name":"isRegistered","type":"bool","internalType":"bool"}],"stateMutability":"view"},{"type":"function","name":"allo","inputs":[],"outputs":[{"name":"","type":"address","internalType":"contract FAllo"}],"stateMutability":"view"},{"type":"function","name":"cloneNonce","inputs":[],"outputs":[{"name":"","type":"uint256","internalType":"uint256"}],"stateMutability":"view"},{"type":"function","name":"communityFee","inputs":[],"outputs":[{"name":"","type":"uint256","internalType":"uint256"}],"stateMutability":"view"},{"type":"function","name":"communityName","inputs":[],"outputs":[{"name":"","type":"string","internalType":"string"}],"stateMutability":"view"},{"type":"function","name":"councilSafe","inputs":[],"outputs":[{"name":"","type":"address","internalType":"contract ISafe"}],"stateMutability":"view"},{"type":"function","name":"covenantIpfsHash","inputs":[],"outputs":[{"name":"","type":"string","internalType":"string"}],"stateMutability":"view"},{"type":"function","name":"createPool","inputs":[{"name":"_token","type":"address","internalType":"address"},{"name":"_params","type":"tuple","internalType":"struct StrategyStruct.InitializeParams","components":[{"name":"cvParams","type":"tuple","internalType":"struct StrategyStruct.CVParams","components":[{"name":"maxRatio","type":"uint256","internalType":"uint256"},{"name":"weight","type":"uint256","internalType":"uint256"},{"name":"decay","type":"uint256","internalType":"uint256"},{"name":"minThresholdPoints","type":"uint256","internalType":"uint256"}]},{"name":"proposalType","type":"uint8","internalType":"enum StrategyStruct.ProposalType"},{"name":"pointSystem","type":"uint8","internalType":"enum StrategyStruct.PointSystem"},{"name":"pointConfig","type":"tuple","internalType":"struct StrategyStruct.PointSystemConfig","components":[{"name":"maxAmount","type":"uint256","internalType":"uint256"}]},{"name":"arbitrableConfig","type":"tuple","internalType":"struct StrategyStruct.ArbitrableConfig","components":[{"name":"arbitrator","type":"address","internalType":"contract IArbitrator"},{"name":"tribunalSafe","type":"address","internalType":"address"},{"name":"submitterCollateralAmount","type":"uint256","internalType":"uint256"},{"name":"challengerCollateralAmount","type":"uint256","internalType":"uint256"},{"name":"defaultRuling","type":"uint256","internalType":"uint256"},{"name":"defaultRulingTimeout","type":"uint256","internalType":"uint256"}]},{"name":"registryCommunity","type":"address","internalType":"address"},{"name":"sybilScorer","type":"address","internalType":"address"}]},{"name":"_metadata","type":"tuple","internalType":"struct Metadata","components":[{"name":"protocol","type":"uint256","internalType":"uint256"},{"name":"pointer","type":"string","internalType":"string"}]}],"outputs":[{"name":"poolId","type":"uint256","internalType":"uint256"},{"name":"strategy","type":"address","internalType":"address"}],"stateMutability":"nonpayable"},{"type":"function","name":"createPool","inputs":[{"name":"_strategy","type":"address","internalType":"address"},{"name":"_token","type":"address","internalType":"address"},{"name":"_params","type":"tuple","internalType":"struct StrategyStruct.InitializeParams","components":[{"name":"cvParams","type":"tuple","internalType":"struct StrategyStruct.CVParams","components":[{"name":"maxRatio","type":"uint256","internalType":"uint256"},{"name":"weight","type":"uint256","internalType":"uint256"},{"name":"decay","type":"uint256","internalType":"uint256"},{"name":"minThresholdPoints","type":"uint256","internalType":"uint256"}]},{"name":"proposalType","type":"uint8","internalType":"enum StrategyStruct.ProposalType"},{"name":"pointSystem","type":"uint8","internalType":"enum StrategyStruct.PointSystem"},{"name":"pointConfig","type":"tuple","internalType":"struct StrategyStruct.PointSystemConfig","components":[{"name":"maxAmount","type":"uint256","internalType":"uint256"}]},{"name":"arbitrableConfig","type":"tuple","internalType":"struct StrategyStruct.ArbitrableConfig","components":[{"name":"arbitrator","type":"address","internalType":"contract IArbitrator"},{"name":"tribunalSafe","type":"address","internalType":"address"},{"name":"submitterCollateralAmount","type":"uint256","internalType":"uint256"},{"name":"challengerCollateralAmount","type":"uint256","internalType":"uint256"},{"name":"defaultRuling","type":"uint256","internalType":"uint256"},{"name":"defaultRulingTimeout","type":"uint256","internalType":"uint256"}]},{"name":"registryCommunity","type":"address","internalType":"address"},{"name":"sybilScorer","type":"address","internalType":"address"}]},{"name":"_metadata","type":"tuple","internalType":"struct Metadata","components":[{"name":"protocol","type":"uint256","internalType":"uint256"},{"name":"pointer","type":"string","internalType":"string"}]}],"outputs":[{"name":"poolId","type":"uint256","internalType":"uint256"},{"name":"strategy","type":"address","internalType":"address"}],"stateMutability":"nonpayable"},{"type":"function","name":"deactivateMemberInStrategy","inputs":[{"name":"_member","type":"address","internalType":"address"},{"name":"_strategy","type":"address","internalType":"address"}],"outputs":[],"stateMutability":"nonpayable"},{"type":"function","name":"decreasePower","inputs":[{"name":"_amountUnstaked","type":"uint256","internalType":"uint256"}],"outputs":[],"stateMutability":"nonpayable"},{"type":"function","name":"enabledStrategies","inputs":[{"name":"strategy","type":"address","internalType":"address"}],"outputs":[{"name":"isEnabled","type":"bool","internalType":"bool"}],"stateMutability":"view"},{"type":"function","name":"feeReceiver","inputs":[],"outputs":[{"name":"","type":"address","internalType":"address"}],"stateMutability":"view"},{"type":"function","name":"gardenToken","inputs":[],"outputs":[{"name":"","type":"address","internalType":"contract IERC20"}],"stateMutability":"view"},{"type":"function","name":"getBasisStakedAmount","inputs":[],"outputs":[{"name":"","type":"uint256","internalType":"uint256"}],"stateMutability":"view"},{"type":"function","name":"getMemberPowerInStrategy","inputs":[{"name":"_member","type":"address","internalType":"address"},{"name":"_strategy","type":"address","internalType":"address"}],"outputs":[{"name":"","type":"uint256","internalType":"uint256"}],"stateMutability":"view"},{"type":"function","name":"getMemberStakedAmount","inputs":[{"name":"_member","type":"address","internalType":"address"}],"outputs":[{"name":"","type":"uint256","internalType":"uint256"}],"stateMutability":"view"},{"type":"function","name":"getRoleAdmin","inputs":[{"name":"role","type":"bytes32","internalType":"bytes32"}],"outputs":[{"name":"","type":"bytes32","internalType":"bytes32"}],"stateMutability":"view"},{"type":"function","name":"getStakeAmountWithFees","inputs":[],"outputs":[{"name":"","type":"uint256","internalType":"uint256"}],"stateMutability":"view"},{"type":"function","name":"grantRole","inputs":[{"name":"role","type":"bytes32","internalType":"bytes32"},{"name":"account","type":"address","internalType":"address"}],"outputs":[],"stateMutability":"nonpayable"},{"type":"function","name":"hasRole","inputs":[{"name":"role","type":"bytes32","internalType":"bytes32"},{"name":"account","type":"address","internalType":"address"}],"outputs":[{"name":"","type":"bool","internalType":"bool"}],"stateMutability":"view"},{"type":"function","name":"increasePower","inputs":[{"name":"_amountStaked","type":"uint256","internalType":"uint256"}],"outputs":[],"stateMutability":"nonpayable"},{"type":"function","name":"initialize","inputs":[{"name":"params","type":"tuple","internalType":"struct IRegistryCommunityV0_0.InitializeParams","components":[{"name":"_allo","type":"address","internalType":"address"},{"name":"_gardenToken","type":"address","internalType":"contract IERC20"},{"name":"_registerStakeAmount","type":"uint256","internalType":"uint256"},{"name":"_communityFee","type":"uint256","internalType":"uint256"},{"name":"_nonce","type":"uint256","internalType":"uint256"},{"name":"_registryFactory","type":"address","internalType":"address"},{"name":"_feeReceiver","type":"address","internalType":"address"},{"name":"_metadata","type":"tuple","internalType":"struct Metadata","components":[{"name":"protocol","type":"uint256","internalType":"uint256"},{"name":"pointer","type":"string","internalType":"string"}]},{"name":"_councilSafe","type":"address","internalType":"address payable"},{"name":"_communityName","type":"string","internalType":"string"},{"name":"_isKickEnabled","type":"bool","internalType":"bool"},{"name":"covenantIpfsHash","type":"string","internalType":"string"},{"name":"_strategyTemplate","type":"address","internalType":"address"}]}],"outputs":[],"stateMutability":"nonpayable"},{"type":"function","name":"isCouncilMember","inputs":[{"name":"_member","type":"address","internalType":"address"}],"outputs":[{"name":"","type":"bool","internalType":"bool"}],"stateMutability":"view"},{"type":"function","name":"isKickEnabled","inputs":[],"outputs":[{"name":"","type":"bool","internalType":"bool"}],"stateMutability":"view"},{"type":"function","name":"isMember","inputs":[{"name":"_member","type":"address","internalType":"address"}],"outputs":[{"name":"_isMember","type":"bool","internalType":"bool"}],"stateMutability":"view"},{"type":"function","name":"kickMember","inputs":[{"name":"_member","type":"address","internalType":"address"},{"name":"_transferAddress","type":"address","internalType":"address"}],"outputs":[],"stateMutability":"nonpayable"},{"type":"function","name":"memberActivatedInStrategies","inputs":[{"name":"member","type":"address","internalType":"address"},{"name":"strategy","type":"address","internalType":"address"}],"outputs":[{"name":"isActivated","type":"bool","internalType":"bool"}],"stateMutability":"view"},{"type":"function","name":"memberPowerInStrategy","inputs":[{"name":"strategy","type":"address","internalType":"address"},{"name":"member","type":"address","internalType":"address"}],"outputs":[{"name":"power","type":"uint256","internalType":"uint256"}],"stateMutability":"view"},{"type":"function","name":"owner","inputs":[],"outputs":[{"name":"","type":"address","internalType":"address"}],"stateMutability":"view"},{"type":"function","name":"pendingCouncilSafe","inputs":[],"outputs":[{"name":"","type":"address","internalType":"address payable"}],"stateMutability":"view"},{"type":"function","name":"profileId","inputs":[],"outputs":[{"name":"","type":"bytes32","internalType":"bytes32"}],"stateMutability":"view"},{"type":"function","name":"proxiableUUID","inputs":[],"outputs":[{"name":"","type":"bytes32","internalType":"bytes32"}],"stateMutability":"view"},{"type":"function","name":"registerStakeAmount","inputs":[],"outputs":[{"name":"","type":"uint256","internalType":"uint256"}],"stateMutability":"view"},{"type":"function","name":"registry","inputs":[],"outputs":[{"name":"","type":"address","internalType":"contract IRegistry"}],"stateMutability":"view"},{"type":"function","name":"registryFactory","inputs":[],"outputs":[{"name":"","type":"address","internalType":"address"}],"stateMutability":"view"},{"type":"function","name":"removeStrategy","inputs":[{"name":"_strategy","type":"address","internalType":"address"}],"outputs":[],"stateMutability":"nonpayable"},{"type":"function","name":"removeStrategyByPoolId","inputs":[{"name":"poolId","type":"uint256","internalType":"uint256"}],"outputs":[],"stateMutability":"nonpayable"},{"type":"function","name":"renounceOwnership","inputs":[],"outputs":[],"stateMutability":"nonpayable"},{"type":"function","name":"renounceRole","inputs":[{"name":"role","type":"bytes32","internalType":"bytes32"},{"name":"account","type":"address","internalType":"address"}],"outputs":[],"stateMutability":"nonpayable"},{"type":"function","name":"revokeRole","inputs":[{"name":"role","type":"bytes32","internalType":"bytes32"},{"name":"account","type":"address","internalType":"address"}],"outputs":[],"stateMutability":"nonpayable"},{"type":"function","name":"setBasisStakedAmount","inputs":[{"name":"_newAmount","type":"uint256","internalType":"uint256"}],"outputs":[],"stateMutability":"nonpayable"},{"type":"function","name":"setCommunityFee","inputs":[{"name":"_newCommunityFee","type":"uint256","internalType":"uint256"}],"outputs":[],"stateMutability":"nonpayable"},{"type":"function","name":"setCouncilSafe","inputs":[{"name":"_safe","type":"address","internalType":"address payable"}],"outputs":[],"stateMutability":"nonpayable"},{"type":"function","name":"stakeAndRegisterMember","inputs":[],"outputs":[],"stateMutability":"nonpayable"},{"type":"function","name":"strategiesByMember","inputs":[{"name":"member","type":"address","internalType":"address"},{"name":"","type":"uint256","internalType":"uint256"}],"outputs":[{"name":"strategiesAddresses","type":"address","internalType":"address"}],"stateMutability":"view"},{"type":"function","name":"strategyTemplate","inputs":[],"outputs":[{"name":"","type":"address","internalType":"address"}],"stateMutability":"view"},{"type":"function","name":"supportsInterface","inputs":[{"name":"interfaceId","type":"bytes4","internalType":"bytes4"}],"outputs":[{"name":"","type":"bool","internalType":"bool"}],"stateMutability":"view"},{"type":"function","name":"transferOwnership","inputs":[{"name":"newOwner","type":"address","internalType":"address"}],"outputs":[],"stateMutability":"nonpayable"},{"type":"function","name":"unregisterMember","inputs":[],"outputs":[],"stateMutability":"nonpayable"},{"type":"function","name":"upgradeTo","inputs":[{"name":"newImplementation","type":"address","internalType":"address"}],"outputs":[],"stateMutability":"nonpayable"},{"type":"function","name":"upgradeToAndCall","inputs":[{"name":"newImplementation","type":"address","internalType":"address"},{"name":"data","type":"bytes","internalType":"bytes"}],"outputs":[],"stateMutability":"payable"},{"type":"event","name":"AdminChanged","inputs":[{"name":"previousAdmin","type":"address","indexed":false,"internalType":"address"},{"name":"newAdmin","type":"address","indexed":false,"internalType":"address"}],"anonymous":false},{"type":"event","name":"AlloSet","inputs":[{"name":"_allo","type":"address","indexed":false,"internalType":"address"}],"anonymous":false},{"type":"event","name":"BasisStakedAmountSet","inputs":[{"name":"_newAmount","type":"uint256","indexed":false,"internalType":"uint256"}],"anonymous":false},{"type":"event","name":"BeaconUpgraded","inputs":[{"name":"beacon","type":"address","indexed":true,"internalType":"address"}],"anonymous":false},{"type":"event","name":"CommunityFeeUpdated","inputs":[{"name":"_newFee","type":"uint256","indexed":false,"internalType":"uint256"}],"anonymous":false},{"type":"event","name":"CouncilSafeChangeStarted","inputs":[{"name":"_safeOwner","type":"address","indexed":false,"internalType":"address"},{"name":"_newSafeOwner","type":"address","indexed":false,"internalType":"address"}],"anonymous":false},{"type":"event","name":"CouncilSafeSet","inputs":[{"name":"_safe","type":"address","indexed":false,"internalType":"address"}],"anonymous":false},{"type":"event","name":"Initialized","inputs":[{"name":"version","type":"uint8","indexed":false,"internalType":"uint8"}],"anonymous":false},{"type":"event","name":"MemberActivatedStrategy","inputs":[{"name":"_member","type":"address","indexed":false,"internalType":"address"},{"name":"_strategy","type":"address","indexed":false,"internalType":"address"},{"name":"_pointsToIncrease","type":"uint256","indexed":false,"internalType":"uint256"}],"anonymous":false},{"type":"event","name":"MemberDeactivatedStrategy","inputs":[{"name":"_member","type":"address","indexed":false,"internalType":"address"},{"name":"_strategy","type":"address","indexed":false,"internalType":"address"}],"anonymous":false},{"type":"event","name":"MemberKicked","inputs":[{"name":"_member","type":"address","indexed":false,"internalType":"address"},{"name":"_transferAddress","type":"address","indexed":false,"internalType":"address"},{"name":"_amountReturned","type":"uint256","indexed":false,"internalType":"uint256"}],"anonymous":false},{"type":"event","name":"MemberPowerDecreased","inputs":[{"name":"_member","type":"address","indexed":false,"internalType":"address"},{"name":"_unstakedAmount","type":"uint256","indexed":false,"internalType":"uint256"}],"anonymous":false},{"type":"event","name":"MemberPowerIncreased","inputs":[{"name":"_member","type":"address","indexed":false,"internalType":"address"},{"name":"_stakedAmount","type":"uint256","indexed":false,"internalType":"uint256"}],"anonymous":false},{"type":"event","name":"MemberRegistered","inputs":[{"name":"_member","type":"address","indexed":false,"internalType":"address"},{"name":"_amountStaked","type":"uint256","indexed":false,"internalType":"uint256"}],"anonymous":false},{"type":"event","name":"MemberUnregistered","inputs":[{"name":"_member","type":"address","indexed":false,"internalType":"address"},{"name":"_amountReturned","type":"uint256","indexed":false,"internalType":"uint256"}],"anonymous":false},{"type":"event","name":"OwnershipTransferred","inputs":[{"name":"previousOwner","type":"address","indexed":true,"internalType":"address"},{"name":"newOwner","type":"address","indexed":true,"internalType":"address"}],"anonymous":false},{"type":"event","name":"PoolCreated","inputs":[{"name":"_poolId","type":"uint256","indexed":false,"internalType":"uint256"},{"name":"_strategy","type":"address","indexed":false,"internalType":"address"},{"name":"_community","type":"address","indexed":false,"internalType":"address"},{"name":"_token","type":"address","indexed":false,"internalType":"address"},{"name":"_metadata","type":"tuple","indexed":false,"internalType":"struct Metadata","components":[{"name":"protocol","type":"uint256","internalType":"uint256"},{"name":"pointer","type":"string","internalType":"string"}]}],"anonymous":false},{"type":"event","name":"RegistryInitialized","inputs":[{"name":"_profileId","type":"bytes32","indexed":false,"internalType":"bytes32"},{"name":"_communityName","type":"string","indexed":false,"internalType":"string"},{"name":"_metadata","type":"tuple","indexed":false,"internalType":"struct Metadata","components":[{"name":"protocol","type":"uint256","internalType":"uint256"},{"name":"pointer","type":"string","internalType":"string"}]}],"anonymous":false},{"type":"event","name":"RoleAdminChanged","inputs":[{"name":"role","type":"bytes32","indexed":true,"internalType":"bytes32"},{"name":"previousAdminRole","type":"bytes32","indexed":true,"internalType":"bytes32"},{"name":"newAdminRole","type":"bytes32","indexed":true,"internalType":"bytes32"}],"anonymous":false},{"type":"event","name":"RoleGranted","inputs":[{"name":"role","type":"bytes32","indexed":true,"internalType":"bytes32"},{"name":"account","type":"address","indexed":true,"internalType":"address"},{"name":"sender","type":"address","indexed":true,"internalType":"address"}],"anonymous":false},{"type":"event","name":"RoleRevoked","inputs":[{"name":"role","type":"bytes32","indexed":true,"internalType":"bytes32"},{"name":"account","type":"address","indexed":true,"internalType":"address"},{"name":"sender","type":"address","indexed":true,"internalType":"address"}],"anonymous":false},{"type":"event","name":"StrategyAdded","inputs":[{"name":"_strategy","type":"address","indexed":false,"internalType":"address"}],"anonymous":false},{"type":"event","name":"StrategyRemoved","inputs":[{"name":"_strategy","type":"address","indexed":false,"internalType":"address"}],"anonymous":false},{"type":"event","name":"Upgraded","inputs":[{"name":"implementation","type":"address","indexed":true,"internalType":"address"}],"anonymous":false},{"type":"error","name":"AddressCannotBeZero","inputs":[]},{"type":"error","name":"CantDecreaseMoreThanPower","inputs":[{"name":"_decreaseAmount","type":"uint256","internalType":"uint256"},{"name":"_currentPower","type":"uint256","internalType":"uint256"}]},{"type":"error","name":"DecreaseUnderMinimum","inputs":[]},{"type":"error","name":"KickNotEnabled","inputs":[]},{"type":"error","name":"NewFeeGreaterThanMax","inputs":[]},{"type":"error","name":"PointsDeactivated","inputs":[]},{"type":"error","name":"RegistryCannotBeZero","inputs":[]},{"type":"error","name":"SenderNotNewOwner","inputs":[]},{"type":"error","name":"SenderNotStrategy","inputs":[]},{"type":"error","name":"StrategyDisabled","inputs":[]},{"type":"error","name":"StrategyExists","inputs":[]},{"type":"error","name":"UserAlreadyActivated","inputs":[]},{"type":"error","name":"UserAlreadyDeactivated","inputs":[]},{"type":"error","name":"UserAlreadyRegistered","inputs":[]},{"type":"error","name":"UserNotGardenOwner","inputs":[]},{"type":"error","name":"UserNotInCouncil","inputs":[]},{"type":"error","name":"UserNotInRegistry","inputs":[]},{"type":"error","name":"ValueCannotBeZero","inputs":[]}],"bytecode":{"object":"0x60a06040523060805234801561001457600080fd5b5060805161577761004c600039600081816115e80152818161162b015281816117260152818161176901526118a901526157776000f3fe608060405260043610620002f05760003560e01c806301ffc9a714620002f55780630331383c146200032f57806308386eba14620003505780630d12bbdb14620003685780630d4a8b49146200038f578063175188e814620003b45780631f787d2814620003d9578063223e547914620003f457806322bcf9991462000419578063248a9ca3146200043e57806328c309e914620004635780632b38c69c146200047b5780632c611c4a14620004af5780632f2ff15d14620004ed57806331f61bca14620005125780633396045914620005375780633517aa7d146200054f57806336568abe14620005675780633659cfe6146200058c578063397e254314620005b15780633a871fe114620005d6578063477a5cc0146200060b5780634f1ef286146200064b578063524e59e8146200066257806352d1902d14620006a5578063559de05d14620006bd5780635c94e4d214620006e25780635ecf71c5146200070557806365e3864c146200072a5780636871eb4d146200076757806368decabb146200078c5780636c53db9a14620007af578063715018a614620007d257806373265c3714620007ea578063733a2d1f146200080f5780637817ee4f146200083457806378a0b8a9146200087f5780637b103999146200089757806382d6a1e714620008ba57806388cfe68414620008df5780638961be6b14620009555780638da5cb5b146200096d57806391d14854146200098557806396f0adec14620009aa578063a0cf0aea14620009cf578063a217fddf14620009f9578063a230c5241462000a10578063b3f006741462000a35578063b5058c501462000a5c578063b64e39af1462000a74578063b99b43701462000a9b578063bc063e1a1462000ab3578063c6d572ae1462000acb578063d547741f1462000ae3578063d6d8428d1462000b08578063d7050f071462000b2b578063db61d65c1462000b43578063e16d0e321462000b66578063ebd7dc521462000b8b578063f2fde38b1462000bb0578063f86c5f891462000bd5575b600080fd5b3480156200030257600080fd5b506200031a6200031436600462003fdb565b62000bf8565b60405190151581526020015b60405180910390f35b3480156200033c57600080fd5b5060fb545b60405190815260200162000326565b3480156200035d57600080fd5b506200034160fe5481565b3480156200037557600080fd5b506200038d6200038736600462004007565b62000c30565b005b3480156200039c57600080fd5b506200038d620003ae36600462004049565b62000ca6565b348015620003c157600080fd5b506200038d620003d336600462004087565b62001014565b348015620003e657600080fd5b5060ff80546200031a911681565b3480156200040157600080fd5b506200038d6200041336600462004087565b6200102c565b3480156200042657600080fd5b506200038d6200043836600462004049565b62001041565b3480156200044b57600080fd5b50620003416200045d36600462004007565b6200113b565b3480156200047057600080fd5b506200034162001150565b3480156200048857600080fd5b50620004a06200049a366004620040a7565b62001255565b604051620003269190620040e3565b348015620004bc57600080fd5b5062000341620004ce36600462004087565b6001600160a01b0316600090815261010b602052604090206001015490565b348015620004fa57600080fd5b506200038d6200050c366004620040f7565b6200128f565b3480156200051f57600080fd5b506200038d6200053136600462004007565b620012b6565b3480156200054457600080fd5b506200034160fd5481565b3480156200055c57600080fd5b506200038d620012f6565b3480156200057457600080fd5b506200038d62000586366004620040f7565b62001558565b3480156200059957600080fd5b506200038d620005ab36600462004087565b620015de565b348015620005be57600080fd5b506200038d620005d036600462004087565b620016af565b348015620005e357600080fd5b506200031a620005f536600462004087565b6101096020526000908152604090205460ff1681565b3480156200061857600080fd5b506200031a6200062a36600462004049565b61010d60209081526000928352604080842090915290825290205460ff1681565b6200038d6200065c36600462004295565b6200171c565b3480156200066f57600080fd5b50620006876200068136600462004539565b620017dd565b604080519283526001600160a01b0390911660208301520162000326565b348015620006b257600080fd5b50620003416200189c565b348015620006ca57600080fd5b506200038d620006dc36600462004007565b6200194d565b348015620006ef57600080fd5b5061010154620004a0906001600160a01b031681565b3480156200071257600080fd5b506200038d6200072436600462004007565b62001b99565b3480156200073757600080fd5b50620003416200074936600462004049565b61010a60209081526000928352604080842090915290825290205481565b3480156200077457600080fd5b506200038d6200078636600462004049565b62001f33565b3480156200079957600080fd5b5061010254620004a0906001600160a01b031681565b348015620007bc57600080fd5b5061010554620004a0906001600160a01b031681565b348015620007df57600080fd5b506200038d620020e6565b348015620007f757600080fd5b506200038d6200080936600462004007565b620020fc565b3480156200081c57600080fd5b5062000341600080516020620056bb83398151915281565b3480156200084157600080fd5b50620003416200085336600462004049565b6001600160a01b03918216600090815261010a6020908152604080832093909416825291909152205490565b3480156200088c57600080fd5b506200034160fb5481565b348015620008a457600080fd5b5061010354620004a0906001600160a01b031681565b348015620008c757600080fd5b506200038d620008d936600462004007565b62002198565b348015620008ec57600080fd5b506200092d620008fe36600462004087565b61010b602052600090815260409020805460018201546002909201546001600160a01b03909116919060ff1683565b604080516001600160a01b039094168452602084019290925215159082015260600162000326565b3480156200096257600080fd5b506200034160fc5481565b3480156200097a57600080fd5b50620004a062002256565b3480156200099257600080fd5b506200031a620009a4366004620040f7565b62002265565b348015620009b757600080fd5b506200038d620009c9366004620045bf565b62002290565b348015620009dc57600080fd5b50620004a073eeeeeeeeeeeeeeeeeeeeeeeeeeeeeeeeeeeeeeee81565b34801562000a0657600080fd5b5062000341600081565b34801562000a1d57600080fd5b506200031a62000a2f36600462004087565b620028bd565b34801562000a4257600080fd5b5060ff54620004a09061010090046001600160a01b031681565b34801562000a6957600080fd5b506200038d62002907565b34801562000a8157600080fd5b5062000a8c6200293e565b60405162000326919062004784565b34801562000aa857600080fd5b506200038d620029d5565b34801562000ac057600080fd5b506200034162002b3d565b34801562000ad857600080fd5b5062000a8c62002b4f565b34801562000af057600080fd5b506200038d62000b02366004620040f7565b62002b5f565b34801562000b1557600080fd5b5061010654620004a0906001600160a01b031681565b34801562000b3857600080fd5b506200034161271081565b34801562000b5057600080fd5b5061010454620004a0906001600160a01b031681565b34801562000b7357600080fd5b506200068762000b8536600462004799565b62002b81565b34801562000b9857600080fd5b506200031a62000baa36600462004087565b62002d0e565b34801562000bbd57600080fd5b506200038d62000bcf36600462004087565b62002d2b565b34801562000be257600080fd5b5061010054620004a0906001600160a01b031681565b60006001600160e01b03198216637965db0b60e01b148062000c2a57506301ffc9a760e01b6001600160e01b03198316145b92915050565b62000c3a62002da7565b62000c49612710600a6200482e565b81111562000c6a5760405163fe925f7d60e01b815260040160405180910390fd5b60fc8190556040518181527f611668bfcf654a99c33cdb66c29ec37a5aae5c1287d2d9715a24e18cb4d806d6906020015b60405180910390a150565b62000cb18262002de0565b62000cbc8162002e09565b62000cc78162002e44565b6001600160a01b03808316600090815261010d602090815260408083209385168352929052205460ff161562000d1057604051636adcde4b60e11b815260040160405180910390fd5b6001600160a01b03808316600090815261010b602090815260409182902082516060810184528154909416845260018101549184018290526002015460ff1615159183019190915260fb546003846001600160a01b031663c32921716040518163ffffffff1660e01b81526004016020604051808303816000875af115801562000d9e573d6000803e3d6000fd5b505050506040513d601f19601f8201168201806040525081019062000dc491906200485e565b600381111562000dd85762000dd862004848565b0362000e5d5760405163782aadff60e01b81526001600160a01b0385169063782aadff9062000e0f9088906000906004016200487e565b6020604051808303816000875af115801562000e2f573d6000803e3d6000fd5b505050506040513d601f19601f8201168201806040525081019062000e55919062004897565b905062000f59565b6000846001600160a01b031663c32921716040518163ffffffff1660e01b81526004016020604051808303816000875af115801562000ea0573d6000803e3d6000fd5b505050506040513d601f19601f8201168201806040525081019062000ec691906200485e565b600381111562000eda5762000eda62004848565b1462000f595760405163782aadff60e01b81526001600160a01b0385169063782aadff9062000f1090889086906004016200487e565b6020604051808303816000875af115801562000f30573d6000803e3d6000fd5b505050506040513d601f19601f8201168201806040525081019062000f56919062004897565b90505b6001600160a01b03808616600081815261010a6020908152604080832094891680845294825280832086905583835261010d82528083208584528252808320805460ff1916600190811790915593835261010c8252808320805494850181558352912090910180546001600160a01b031916909217909155517ff56fa57e85e169a12200d12d9921ec069b52e688f6d309d9dab7bceff54614ec906200100590879087908590620048b1565b60405180910390a15050505050565b6200101e62002da7565b620010298162002e6c565b50565b6200103662002da7565b620010298162002eca565b6200104c8262002de0565b620010578162002e44565b62001063338262002f5c565b6001600160a01b03808316600090815261010d602090815260408083209385168352929052205460ff16620010ab57604051633048da7760e21b815260040160405180910390fd5b6001600160a01b03808316600081815261010d60209081526040808320948616808452948252808320805460ff1916905592825261010a815282822093825292909252812055620010fd828262002f8f565b7ede109bef4619f7e2cf00c8e5a50ca55f8deb44f87087eed414a91dbf8d1d1b82826040516200112f929190620048d5565b60405180910390a15050565b600090815260c9602052604090206001015490565b610100546000906001600160a01b0316816200117061271060646200482e565b60fc5460fb546200118291906200482e565b6200118e9190620048ef565b90506000620011a161271060646200482e565b6040516302a64b8360e21b81526001600160a01b03851690630a992e0c90620011cf903090600401620040e3565b602060405180830381865afa158015620011ed573d6000803e3d6000fd5b505050506040513d601f19601f8201168201806040525081019062001213919062004897565b60fb546200122291906200482e565b6200122e9190620048ef565b9050808260fb5462001241919062004912565b6200124d919062004912565b935050505090565b61010c60205281600052604060002081815481106200127357600080fd5b6000918252602090912001546001600160a01b03169150829050565b6200129a826200113b565b620012a581620030c5565b620012b18383620030d1565b505050565b620012c062002da7565b60fb8190556040518181527f5bcc2c453001fb0e2ba6266d56ecb411e7c6e15c8f9c3d301f93dd36ad25726f9060200162000c9b565b620013006200315b565b33600081815261010b602052604081206101005490916001600160a01b03909116906200133161271060646200482e565b60fc5460fb546200134391906200482e565b6200134f9190620048ef565b905060006200136261271060646200482e565b6040516302a64b8360e21b81526001600160a01b03851690630a992e0c9062001390903090600401620040e3565b602060405180830381865afa158015620013ae573d6000803e3d6000fd5b505050506040513d601f19601f82011682018060405250810190620013d4919062004897565b60fb54620013e391906200482e565b620013ef9190620048ef565b9050620013fc85620028bd565b620015465760028401805460ff1916600190811790915560fb5490850181905562001456908690309084906200143490879062004912565b62001440919062004912565b610104546001600160a01b0316929190620031b6565b8115620014835760ff546101045462001483916001600160a01b0391821691610100909104168462003212565b8015620015085762001508836001600160a01b031663987435be6040518163ffffffff1660e01b8152600401602060405180830381865afa158015620014cd573d6000803e3d6000fd5b505050506040513d601f19601f82011682018060405250810190620014f3919062004928565b610104546001600160a01b0316908362003212565b7f67e0244e28040fec15240cd4b6c04c776a2a0278caef23b59e8ada1df31f76898560fb546040516200153d9291906200487e565b60405180910390a15b5050505050620015566001606555565b565b6001600160a01b0381163314620015ce5760405162461bcd60e51b815260206004820152602f60248201527f416363657373436f6e74726f6c3a2063616e206f6e6c792072656e6f756e636560448201526e103937b632b9903337b91039b2b63360891b60648201526084015b60405180910390fd5b620015da82826200323b565b5050565b6001600160a01b037f0000000000000000000000000000000000000000000000000000000000000000163003620016295760405162461bcd60e51b8152600401620015c59062004948565b7f00000000000000000000000000000000000000000000000000000000000000006001600160a01b03166200165d620032a5565b6001600160a01b031614620016865760405162461bcd60e51b8152600401620015c59062004983565b6200169181620032c2565b604080516000808252602082019092526200102991839190620032cc565b620016b962002da7565b620016c48162002e44565b61010280546001600160a01b0319166001600160a01b03838116918217909255610105546040517f83eac9fdaff0ac1017624b7eddeb9782e3d707cd894073cb7e8301a41c6e5cf89362000c9b9392169190620048d5565b6001600160a01b037f0000000000000000000000000000000000000000000000000000000000000000163003620017675760405162461bcd60e51b8152600401620015c59062004948565b7f00000000000000000000000000000000000000000000000000000000000000006001600160a01b03166200179b620032a5565b6001600160a01b031614620017c45760405162461bcd60e51b8152600401620015c59062004983565b620017cf82620032c2565b620015da82826001620032cc565b6101015461010654604051600092839283926001600160a01b039283169263066ad14f60e21b926200181592911690602401620040e3565b60408051601f198184030181529181526020820180516001600160e01b03166001600160e01b0319909416939093179092529051620018549062003f31565b62001861929190620049be565b604051809103906000f0801580156200187e573d6000803e3d6000fd5b5090506200188f8187878762002b81565b9250925050935093915050565b6000306001600160a01b037f00000000000000000000000000000000000000000000000000000000000000001614620019395760405162461bcd60e51b815260206004820152603860248201527f555550535570677261646561626c653a206d757374206e6f742062652063616c6044820152771b1959081d1a1c9bdd59da0819195b1959d85d1958d85b1b60421b6064820152608401620015c5565b50600080516020620056fb83398151915290565b620019576200315b565b6200196162003444565b33600081815261010c6020908152604080832080548251818502810185019093528083529192909190830182828015620019c557602002820191906000526020600020905b81546001600160a01b03168152600190910190602001808311620019a6575b50505050509050600080600090505b825181101562001b0057828181518110620019f357620019f3620049e4565b60200260200101516001600160a01b031663782aadff85876040518363ffffffff1660e01b815260040162001a2a9291906200487e565b6020604051808303816000875af115801562001a4a573d6000803e3d6000fd5b505050506040513d601f19601f8201168201806040525081019062001a70919062004897565b9150811562001aeb576001600160a01b038416600090815261010a60205260408120845184929086908590811062001aac5762001aac620049e4565b60200260200101516001600160a01b03166001600160a01b03168152602001908152602001600020600082825462001ae5919062004912565b90915550505b8062001af781620049fa565b915050620019d4565b506101045462001b1c906001600160a01b0316843087620031b6565b6001600160a01b038316600090815261010b60205260408120600101805486929062001b4a90849062004912565b90915550506040517f576605f9bfe8911e7508bed3763c7c5c8eb3b86e8b360b90a4bc6abe1104cb7f9062001b8390859087906200487e565b60405180910390a1505050620010296001606555565b62001ba36200315b565b62001bad62003444565b33600081815261010c6020908152604080832060fb5461010b909352908320600101549092919062001be190869062004a16565b101562001c0157604051634e23e81760e11b815260040160405180910390fd5b6101045462001c1b906001600160a01b0316848662003212565b60005b825481101562001ecb57600083828154811062001c3f5762001c3f620049e4565b6000918252602090912001546001600160a01b0316905062001c698163f1801e6160e01b6200346d565b1562001def57604051632ed04b2b60e01b81526001600160a01b03821690632ed04b2b9062001c9f9088908a906004016200487e565b6020604051808303816000875af115801562001cbf573d6000803e3d6000fd5b505050506040513d601f19601f8201168201806040525081019062001ce5919062004897565b9250600061010a6000876001600160a01b03166001600160a01b03168152602001908152602001600020600086858154811062001d265762001d26620049e4565b60009182526020808320909101546001600160a01b0316835282019290925260400190205490508084111562001d7a576040516311423e6360e31b81526004810185905260248101829052604401620015c5565b6001600160a01b038616600090815261010a60205260408120865486929088908790811062001dad5762001dad620049e4565b60009182526020808320909101546001600160a01b031683528201929092526040018120805490919062001de390849062004a16565b90915550505062001eb5565b8354849062001e019060019062004a16565b8154811062001e145762001e14620049e4565b9060005260206000200160009054906101000a90046001600160a01b031684838154811062001e475762001e47620049e4565b9060005260206000200160006101000a8154816001600160a01b0302191690836001600160a01b031602179055508380548062001e885762001e8862004a2c565b600082815260209020810160001990810180546001600160a01b031916905501905562001eb58162002e6c565b508062001ec281620049fa565b91505062001c1e565b506001600160a01b038316600090815261010b60205260408120600101805486929062001efa90849062004a16565b90915550506040517f6ee2c70b2d6b89ae808a2313aab43e925c06624271419cd665d85cfa1ae04ff89062001b8390859087906200487e565b62001f3d6200315b565b62001f4762002da7565b60ff80541662001f6a576040516365b1ee3960e11b815260040160405180910390fd5b62001f7582620028bd565b62001f9357604051636a5cfb6d60e01b815260040160405180910390fd5b6001600160a01b03808316600090815261010b60209081526040918290208251606081018452815490941684526001810154918401919091526002015460ff1615159082015262001fe48362003495565b6001600160a01b03808416600090815261010b6020908152604080832080546001600160a01b031916815560018101939093556002909201805460ff191690556101045490840151915163a9059cbb60e01b815292169163a9059cbb9162002052918691906004016200487e565b6020604051808303816000875af115801562002072573d6000803e3d6000fd5b505050506040513d601f19601f8201168201806040525081019062002098919062004a42565b507fb5946f249f8744efe9d14d49a483b54a589b1362944ff6694de93456cceb96a383838360200151604051620020d293929190620048b1565b60405180910390a150620015da6001606555565b620020f0620035aa565b6200155660006200360d565b6200210662002da7565b6101065460405163068bcd8d60e01b8152600481018390526000916001600160a01b03169063068bcd8d90602401600060405180830381865afa15801562002152573d6000803e3d6000fd5b505050506040513d6000823e601f3d908101601f191682016040526200217c919081019062004a62565b6020015190506200218d8162002e44565b620015da8162002e6c565b620021a262002da7565b6101065460405163068bcd8d60e01b8152600481018390526000916001600160a01b03169063068bcd8d90602401600060405180830381865afa158015620021ee573d6000803e3d6000fd5b505050506040513d6000823e601f3d908101601f1916820160405262002218919081019062004a62565b602001519050620022298162002e44565b620022456001600160a01b03821663f1801e6160e01b6200346d565b15620015da57620015da8162002eca565b6033546001600160a01b031690565b600091825260c9602090815260408084206001600160a01b0393909316845291905290205460ff1690565b600054610100900460ff1615808015620022b15750600054600160ff909116105b80620022d65750620022c3306200365f565b158015620022d6575060005460ff166001145b6200233b5760405162461bcd60e51b815260206004820152602e60248201527f496e697469616c697a61626c653a20636f6e747261637420697320616c72656160448201526d191e481a5b9a5d1a585b1a5e995960921b6064820152608401620015c5565b6000805460ff1916600117905580156200235f576000805461ff0019166101001790555b620023696200366e565b62002373620036a2565b6200237d620036d6565b62002399600080516020620056bb833981519152600062003700565b620023a8826020015162002e44565b620023b882610100015162002e44565b8151620023c59062002e44565b620023d48260a0015162002e44565b620023e482610180015162002e44565b606082015115620023fe57620023fe8260c0015162002e44565b815161010680546001600160a01b039283166001600160a01b03199182161790915560208401516101048054919093169116179055604082015160000362002459576040516363868c5560e11b815260040160405180910390fd5b604082015160fb55606082015160fc5561014082015160ff805460ff19169115159190911790556101208201516101079062002496908262004c26565b5061016082015161010890620024ad908262004c26565b5060a082015161010080546001600160a01b03199081166001600160a01b0393841617825560c085015160ff8054610100600160a81b03191691851684029190911790559084015161010580548316828516179055610180850151610101805490931693169290921790556200253490600080516020620056bb83398151915290620030d1565b61010660009054906101000a90046001600160a01b03166001600160a01b0316635ab1bd536040518163ffffffff1660e01b8152600401602060405180830381865afa15801562002589573d6000803e3d6000fd5b505050506040513d601f19601f82011682018060405250810190620025af919062004928565b61010380546001600160a01b0319166001600160a01b03928316179055610105546040805163a0e67e2b60e01b81529051600093929092169163a0e67e2b9160048082019286929091908290030181865afa15801562002613573d6000803e3d6000fd5b505050506040513d6000823e601f3d908101601f191682016040526200263d919081019062004cf2565b905060008151600262002651919062004912565b6001600160401b038111156200266b576200266b6200411f565b60405190808252806020026020018201604052801562002695578160200160208202803683370190505b50905060005b82518110156200270457828181518110620026ba57620026ba620049e4565b6020026020010151828281518110620026d757620026d7620049e4565b6001600160a01b039092166020928302919091019091015280620026fb81620049fa565b9150506200269b565b506101055481516001600160a01b03909116908290620027279060019062004a16565b815181106200273a576200273a620049e4565b60200260200101906001600160a01b031690816001600160a01b0316815250503081600283516200276c919062004a16565b815181106200277f576200277f620049e4565b6001600160a01b03928316602091820292909201015261010354608086015160e0870151604051633a92f65f60e01b81529290931692633a92f65f92620027d29291610107913090889060040162004e9c565b6020604051808303816000875af1158015620027f2573d6000803e3d6000fd5b505050506040513d601f19601f8201168201806040525081019062002818919062004897565b60fe558051620028319061010e90602084019062003f3f565b507f2f2ffcb06f8a1d35e2716f6b43ef2c19bfa76467d8f66964ae12c2583ed0320560fe546101078660e001516040516200286f9392919062004ef0565b60405180910390a150508015620015da576000805461ff0019169055604051600181527f7f26b83ff96e1f2b6a682f133852f6798a09c465da95921460cefb3847402498906020016200112f565b6001600160a01b03908116600090815261010b60209081526040918290208251606081018452815490941684526001810154918401919091526002015460ff161515910181905290565b610102546001600160a01b0316331462002934576040516375e686b760e11b815260040160405180910390fd5b6200155662003755565b61010880546200294e9062004b98565b80601f01602080910402602001604051908101604052809291908181526020018280546200297c9062004b98565b8015620029cd5780601f10620029a157610100808354040283529160200191620029cd565b820191906000526020600020905b815481529060010190602001808311620029af57829003601f168201915b505050505081565b620029df6200315b565b33620029eb8162002de0565b620029f68162003495565b6001600160a01b03808216600081815261010b602090815260408083208151606081018352815496871681526001820180548286015260028301805460ff81161515848701529787526001600160a01b03199098169092559084905560ff1990941690945561010c9052918220909162002a71919062003fa9565b61010454602082015160405163a9059cbb60e01b81526001600160a01b039092169163a9059cbb9162002aaa918691906004016200487e565b6020604051808303816000875af115801562002aca573d6000803e3d6000fd5b505050506040513d601f19601f8201168201806040525081019062002af0919062004a42565b507fa13f4668aacb68c4e9eed8e3f6e1cbec3eca776896ec46b5eabcc3983fc8f5f482826020015160405162002b289291906200487e565b60405180910390a15050620015566001606555565b62002b4c612710600a6200482e565b81565b61010780546200294e9062004b98565b62002b6a826200113b565b62002b7581620030c5565b620012b183836200323b565b60008073eeeeeeeeeeeeeeeeeeeeeeeeeeeeeeeeeeeeeeee6001600160a01b0386161562002bac5750845b869150600061010e80548060200260200160405190810160405280929190818152602001828054801562002c0a57602002820191906000526020600020905b81546001600160a01b0316815260019091019060200180831162002beb575b50506101065460fe546040519596506001600160a01b039091169463e1007d4a945090925087915062002c42908b9060200162004f49565b6040516020818303038152906040528660008b886040518863ffffffff1660e01b815260040162002c7a97969594939291906200502b565b6020604051808303816000875af115801562002c9a573d6000803e3d6000fd5b505050506040513d601f19601f8201168201806040525081019062002cc0919062004897565b93507f778cac0ae0b66477341553a4a89398c61ccf448313d3354ad0ca85a5a825d2838484308a8960405162002cfb9594939291906200509c565b60405180910390a1505094509492505050565b600062000c2a600080516020620056bb8339815191528362002265565b62002d35620035aa565b6001600160a01b03811662002d9c5760405162461bcd60e51b815260206004820152602660248201527f4f776e61626c653a206e6577206f776e657220697320746865207a65726f206160448201526564647265737360d01b6064820152608401620015c5565b62001029816200360d565b62002dc2600080516020620056bb8339815191523362002265565b6200155657604051637b1328fd60e11b815260040160405180910390fd5b62002deb81620028bd565b6200102957604051636a5cfb6d60e01b815260040160405180910390fd5b6001600160a01b0381166000908152610109602052604090205460ff1662001029576040516346c26e4b60e01b815260040160405180910390fd5b6001600160a01b03811662001029576040516303988b8160e61b815260040160405180910390fd5b62002e778162002e44565b6001600160a01b0381166000908152610109602052604090819020805460ff19169055517f09a1db4b80c32706328728508c941a6b954f31eb5affd32f236c1fd405f8fea49062000c9b908390620040e3565b6001600160a01b0381166000908152610109602052604090205460ff161562002f06576040516325a2934b60e21b815260040160405180910390fd5b6001600160a01b0381166000908152610109602052604090819020805460ff19166001179055517f3f008fd510eae7a9e7bee13513d7b83bef8003d488b5a3d0b0da4de71d6846f19062000c9b908390620040e3565b806001600160a01b0316826001600160a01b031614620015da5760405163bbe7961160e01b815260040160405180910390fd5b6001600160a01b038216600090815261010c60205260408120905b8154811015620030bf57826001600160a01b031682828154811062002fd35762002fd3620049e4565b6000918252602090912001546001600160a01b031603620030aa5781548290620030009060019062004a16565b81548110620030135762003013620049e4565b9060005260206000200160009054906101000a90046001600160a01b0316828281548110620030465762003046620049e4565b9060005260206000200160006101000a8154816001600160a01b0302191690836001600160a01b031602179055508180548062003087576200308762004a2c565b600082815260209020810160001990810180546001600160a01b03191690550190555b80620030b681620049fa565b91505062002faa565b50505050565b620010298133620037b9565b620030dd828262002265565b620015da57600082815260c9602090815260408083206001600160a01b03851684529091529020805460ff19166001179055620031173390565b6001600160a01b0316816001600160a01b0316837f2f8788117e7eff1d82e926ec794901d17c78024a50270940304540a733656f0d60405160405180910390a45050565b600260655403620031af5760405162461bcd60e51b815260206004820152601f60248201527f5265656e7472616e637947756172643a207265656e7472616e742063616c6c006044820152606401620015c5565b6002606555565b620030bf846323b872dd60e01b858585604051602401620031da93929190620048b1565b60408051601f198184030181529190526020810180516001600160e01b03166001600160e01b0319909316929092179091526200381d565b620012b18363a9059cbb60e01b8484604051602401620031da9291906200487e565b6001606555565b62003247828262002265565b15620015da57600082815260c9602090815260408083206001600160a01b0385168085529252808320805460ff1916905551339285917ff6391f5c32d9c69d2a47ea670b442974b53935d1edc7fd64eb21e047a839171b9190a45050565b600080516020620056fb833981519152546001600160a01b031690565b62001029620035aa565b7f4910fdfa16fed3260ed0e7147f7cc6da11a60208b5b9406d12a635614ffd91435460ff16156200330257620012b183620038f9565b826001600160a01b03166352d1902d6040518163ffffffff1660e01b8152600401602060405180830381865afa9250505080156200335f575060408051601f3d908101601f191682019092526200335c9181019062004897565b60015b620033c45760405162461bcd60e51b815260206004820152602e60248201527f45524331393637557067726164653a206e657720696d706c656d656e7461746960448201526d6f6e206973206e6f74205555505360901b6064820152608401620015c5565b600080516020620056fb8339815191528114620034365760405162461bcd60e51b815260206004820152602960248201527f45524331393637557067726164653a20756e737570706f727465642070726f786044820152681a58589b195555525160ba1b6064820152608401620015c5565b50620012b183838362003998565b6200344f33620028bd565b6200155657604051636a5cfb6d60e01b815260040160405180910390fd5b60006200347a83620039c3565b80156200348e57506200348e8383620039fb565b9392505050565b6001600160a01b038116600090815261010c60209081526040808320805482518185028101850190935280835291929091908301828280156200350257602002820191906000526020600020905b81546001600160a01b03168152600190910190602001808311620034e3575b5050505050905060005b8151811015620012b1578181815181106200352b576200352b620049e4565b60200260200101516001600160a01b0316636453d9c4846040518263ffffffff1660e01b8152600401620035609190620040e3565b600060405180830381600087803b1580156200357b57600080fd5b505af115801562003590573d6000803e3d6000fd5b505050508080620035a190620049fa565b9150506200350c565b33620035b562002256565b6001600160a01b031614620015565760405162461bcd60e51b815260206004820181905260248201527f4f776e61626c653a2063616c6c6572206973206e6f7420746865206f776e65726044820152606401620015c5565b603380546001600160a01b038381166001600160a01b0319831681179093556040519116919082907f8be0079c531659141344cd1fd0a4f28419497f9722a3daafe3b4186f6b6457e090600090a35050565b6001600160a01b03163b151590565b600054610100900460ff16620036985760405162461bcd60e51b8152600401620015c590620050d8565b6200155662003a86565b600054610100900460ff16620036cc5760405162461bcd60e51b8152600401620015c590620050d8565b6200155662003abb565b600054610100900460ff16620015565760405162461bcd60e51b8152600401620015c590620050d8565b60006200370d836200113b565b600084815260c96020526040808220600101859055519192508391839186917fbd79b86ffe0ab8e8776151514217cd7cacd52c909f66475c3af44e129f0b00ff9190a4505050565b610102805461010580546001600160a01b03199081166001600160a01b038416179091551690556040517fad0399dc40331b9a4977aa89da7a164a3fd482c65e6da73b25a94ea74fb6887290620037af90600090620040e3565b60405180910390a1565b620037c5828262002265565b620015da57620037d58162003ae5565b620037e283602062003af8565b604051602001620037f592919062005123565b60408051601f198184030181529082905262461bcd60e51b8252620015c59160040162004784565b600062003874826040518060400160405280602081526020017f5361666545524332303a206c6f772d6c6576656c2063616c6c206661696c6564815250856001600160a01b031662003cb19092919063ffffffff16565b90508051600014806200389857508080602001905181019062003898919062004a42565b620012b15760405162461bcd60e51b815260206004820152602a60248201527f5361666545524332303a204552433230206f7065726174696f6e20646964206e6044820152691bdd081cdd58d8d9595960b21b6064820152608401620015c5565b62003904816200365f565b620039685760405162461bcd60e51b815260206004820152602d60248201527f455243313936373a206e657720696d706c656d656e746174696f6e206973206e60448201526c1bdd08184818dbdb9d1c9858dd609a1b6064820152608401620015c5565b600080516020620056fb83398151915280546001600160a01b0319166001600160a01b0392909216919091179055565b620039a38362003cca565b600082511180620039b15750805b15620012b157620030bf838362003d0c565b6000620039d8826301ffc9a760e01b620039fb565b801562000c2a5750620039f4826001600160e01b0319620039fb565b1592915050565b604080516001600160e01b03198316602480830191909152825180830390910181526044909101909152602080820180516001600160e01b03166301ffc9a760e01b178152825160009392849283928392918391908a617530fa92503d9150600051905082801562003a6e575060208210155b801562003a7b5750600081115b979650505050505050565b600054610100900460ff1662003ab05760405162461bcd60e51b8152600401620015c590620050d8565b62001556336200360d565b600054610100900460ff16620032345760405162461bcd60e51b8152600401620015c590620050d8565b606062000c2a6001600160a01b03831660145b6060600062003b098360026200482e565b62003b1690600262004912565b6001600160401b0381111562003b305762003b306200411f565b6040519080825280601f01601f19166020018201604052801562003b5b576020820181803683370190505b509050600360fc1b8160008151811062003b795762003b79620049e4565b60200101906001600160f81b031916908160001a905350600f60fb1b8160018151811062003bab5762003bab620049e4565b60200101906001600160f81b031916908160001a905350600062003bd18460026200482e565b62003bde90600162004912565b90505b600181111562003c60576f181899199a1a9b1b9c1cb0b131b232b360811b85600f166010811062003c165762003c16620049e4565b1a60f81b82828151811062003c2f5762003c2f620049e4565b60200101906001600160f81b031916908160001a90535060049490941c9362003c588162005196565b905062003be1565b5083156200348e5760405162461bcd60e51b815260206004820181905260248201527f537472696e67733a20686578206c656e67746820696e73756666696369656e746044820152606401620015c5565b606062003cc2848460008562003d34565b949350505050565b62003cd581620038f9565b6040516001600160a01b038216907fbc7cd75a20ee27fd9adebab32041f755214dbc6bffa90cc0225b39da2e5c2d3b90600090a250565b60606200348e83836040518060600160405280602781526020016200571b6027913962003e0c565b60608247101562003d975760405162461bcd60e51b815260206004820152602660248201527f416464726573733a20696e73756666696369656e742062616c616e636520666f6044820152651c8818d85b1b60d21b6064820152608401620015c5565b600080866001600160a01b0316858760405162003db59190620051b0565b60006040518083038185875af1925050503d806000811462003df4576040519150601f19603f3d011682016040523d82523d6000602084013e62003df9565b606091505b509150915062003a7b8783838762003e8a565b6060600080856001600160a01b03168560405162003e2b9190620051b0565b600060405180830381855af49150503d806000811462003e68576040519150601f19603f3d011682016040523d82523d6000602084013e62003e6d565b606091505b509150915062003e808683838762003e8a565b9695505050505050565b6060831562003efe57825160000362003ef65762003ea8856200365f565b62003ef65760405162461bcd60e51b815260206004820152601d60248201527f416464726573733a2063616c6c20746f206e6f6e2d636f6e74726163740000006044820152606401620015c5565b508162003cc2565b62003cc2838381511562003f155781518083602001fd5b8060405162461bcd60e51b8152600401620015c5919062004784565b6104ec80620051cf83390190565b82805482825590600052602060002090810192821562003f97579160200282015b8281111562003f9757825182546001600160a01b0319166001600160a01b0390911617825560209092019160019091019062003f60565b5062003fa592915062003fc4565b5090565b50805460008255906000526020600020908101906200102991905b5b8082111562003fa5576000815560010162003fc5565b60006020828403121562003fee57600080fd5b81356001600160e01b0319811681146200348e57600080fd5b6000602082840312156200401a57600080fd5b5035919050565b6001600160a01b03811681146200102957600080fd5b8035620040448162004021565b919050565b600080604083850312156200405d57600080fd5b82356200406a8162004021565b915060208301356200407c8162004021565b809150509250929050565b6000602082840312156200409a57600080fd5b81356200348e8162004021565b60008060408385031215620040bb57600080fd5b8235620040c88162004021565b946020939093013593505050565b6001600160a01b03169052565b6001600160a01b0391909116815260200190565b600080604083850312156200410b57600080fd5b8235915060208301356200407c8162004021565b634e487b7160e01b600052604160045260246000fd5b60405160c081016001600160401b03811182821017156200415a576200415a6200411f565b60405290565b60405160e081016001600160401b03811182821017156200415a576200415a6200411f565b604051608081016001600160401b03811182821017156200415a576200415a6200411f565b604080519081016001600160401b03811182821017156200415a576200415a6200411f565b6040516101a081016001600160401b03811182821017156200415a576200415a6200411f565b604051601f8201601f191681016001600160401b03811182821017156200422057620042206200411f565b604052919050565b60006001600160401b038211156200424457620042446200411f565b50601f01601f191660200190565b600062004269620042638462004228565b620041f5565b90508281528383830111156200427e57600080fd5b828260208301376000602084830101529392505050565b60008060408385031215620042a957600080fd5b8235620042b68162004021565b915060208301356001600160401b03811115620042d257600080fd5b8301601f81018513620042e457600080fd5b620042f58582356020840162004252565b9150509250929050565b8035600381106200404457600080fd5b600481106200102957600080fd5b803562004044816200430f565b6000602082840312156200433d57600080fd5b604051602081016001600160401b03811182821017156200436257620043626200411f565b6040529135825250919050565b600060c082840312156200438257600080fd5b6200438c62004135565b905081356200439b8162004021565b81526020820135620043ad8162004021565b8060208301525060408201356040820152606082013560608201526080820135608082015260a082013560a082015292915050565b60008183036101e0811215620043f757600080fd5b6200440162004160565b915060808112156200441257600080fd5b506200441d62004185565b82358152602083013560208201526040830135604082015260608301356060820152808252506200445160808301620042ff565b60208201526200446460a083016200431d565b6040820152620044788360c084016200432a565b60608201526200448c8360e084016200436f565b6080820152620044a06101a0830162004037565b60a0820152620044b46101c0830162004037565b60c082015292915050565b600082601f830112620044d157600080fd5b6200348e8383356020850162004252565b600060408284031215620044f557600080fd5b620044ff620041aa565b82358152905060208201356001600160401b038111156200451f57600080fd5b6200452d84828501620044bf565b60208301525092915050565b600080600061022084860312156200455057600080fd5b83356200455d8162004021565b92506200456e8560208601620043e2565b91506102008401356001600160401b038111156200458b57600080fd5b6200459986828701620044e2565b9150509250925092565b80151581146200102957600080fd5b80356200404481620045a3565b600060208284031215620045d257600080fd5b81356001600160401b0380821115620045ea57600080fd5b908301906101a082860312156200460057600080fd5b6200460a620041cf565b620046158362004037565b8152620046256020840162004037565b60208201526040830135604082015260608301356060820152608083013560808201526200465660a0840162004037565b60a08201526200466960c0840162004037565b60c082015260e0830135828111156200468157600080fd5b6200468f87828601620044e2565b60e083015250610100620046a581850162004037565b908201526101208381013583811115620046be57600080fd5b620046cc88828701620044bf565b828401525050610140620046e2818501620045b2565b908201526101608381013583811115620046fb57600080fd5b6200470988828701620044bf565b82840152505061018091506200472182840162004037565b91810191909152949350505050565b60005b838110156200474d57818101518382015260200162004733565b50506000910152565b600081518084526200477081602086016020860162004730565b601f01601f19169290920160200192915050565b6020815260006200348e602083018462004756565b6000806000806102408587031215620047b157600080fd5b8435620047be8162004021565b93506020850135620047d08162004021565b9250620047e18660408701620043e2565b91506102208501356001600160401b03811115620047fe57600080fd5b6200480c87828801620044e2565b91505092959194509250565b634e487b7160e01b600052601160045260246000fd5b808202811582820484141762000c2a5762000c2a62004818565b634e487b7160e01b600052602160045260246000fd5b6000602082840312156200487157600080fd5b81516200348e816200430f565b6001600160a01b03929092168252602082015260400190565b600060208284031215620048aa57600080fd5b5051919050565b6001600160a01b039384168152919092166020820152604081019190915260600190565b6001600160a01b0392831681529116602082015260400190565b6000826200490d57634e487b7160e01b600052601260045260246000fd5b500490565b8082018082111562000c2a5762000c2a62004818565b6000602082840312156200493b57600080fd5b81516200348e8162004021565b6020808252602c90820152600080516020620056db83398151915260408201526b19195b1959d85d1958d85b1b60a21b606082015260800190565b6020808252602c90820152600080516020620056db83398151915260408201526b6163746976652070726f787960a01b606082015260800190565b6001600160a01b038316815260406020820181905260009062003cc29083018462004756565b634e487b7160e01b600052603260045260246000fd5b60006001820162004a0f5762004a0f62004818565b5060010190565b8181038181111562000c2a5762000c2a62004818565b634e487b7160e01b600052603160045260246000fd5b60006020828403121562004a5557600080fd5b81516200348e81620045a3565b6000602080838503121562004a7657600080fd5b82516001600160401b038082111562004a8e57600080fd5b9084019060c0828703121562004aa357600080fd5b62004aad62004135565b825181528383015162004ac08162004021565b81850152604083015162004ad48162004021565b604082015260608301518281111562004aec57600080fd5b83016040818903121562004aff57600080fd5b62004b09620041aa565b81518152858201518481111562004b1f57600080fd5b82019350601f8401891362004b3357600080fd5b8351915062004b46620042638362004228565b828152898784870101111562004b5b57600080fd5b62004b6c8388830189880162004730565b95810195909552506060810193909352506080818101519083015260a090810151908201529392505050565b600181811c9082168062004bad57607f821691505b60208210810362004bce57634e487b7160e01b600052602260045260246000fd5b50919050565b601f821115620012b157600081815260208120601f850160051c8101602086101562004bfd5750805b601f850160051c820191505b8181101562004c1e5782815560010162004c09565b505050505050565b81516001600160401b0381111562004c425762004c426200411f565b62004c5a8162004c53845462004b98565b8462004bd4565b602080601f83116001811462004c92576000841562004c795750858301515b600019600386901b1c1916600185901b17855562004c1e565b600085815260208120601f198616915b8281101562004cc35788860151825594840194600190910190840162004ca2565b508582101562004ce25787850151600019600388901b60f8161c191681555b5050505050600190811b01905550565b6000602080838503121562004d0657600080fd5b82516001600160401b038082111562004d1e57600080fd5b818501915085601f83011262004d3357600080fd5b81518181111562004d485762004d486200411f565b8060051b915062004d5b848301620041f5565b818152918301840191848101908884111562004d7657600080fd5b938501935b8385101562004da4578451925062004d938362004021565b828252938501939085019062004d7b565b98975050505050505050565b6000815462004dbf8162004b98565b80855260206001838116801562004ddf576001811462004dfa5762004e2a565b60ff1985168884015283151560051b88018301955062004e2a565b866000528260002060005b8581101562004e225781548a820186015290830190840162004e05565b890184019650505b505050505092915050565b80518252600060208201516040602085015262003cc2604085018262004756565b600081518084526020808501945080840160005b8381101562004e915781516001600160a01b03168752958201959082019060010162004e6a565b509495945050505050565b85815260a06020820152600062004eb760a083018762004db0565b828103604084015262004ecb818762004e35565b6001600160a01b03861660608501528381036080850152905062004da4818562004e56565b83815260606020820152600062004f0b606083018562004db0565b828103604084015262003e80818562004e35565b6003811062004f325762004f3262004848565b9052565b6004811062004f325762004f3262004848565b60006101e08201905082518051835260208101516020840152604081015160408401526060810151606084015250602083015162004f8b608084018262004f1f565b50604083015162004fa060a084018262004f36565b506060838101515160c084015260808085015180516001600160a01b0390811660e087015260208201511661010086015260408101516101208601529182015161014085015281015161016084015260a0908101516101808401528301516200500e6101a0840182620040d6565b5060c0830151620050246101c0840182620040d6565b5092915050565b878152600060018060a01b03808916602084015260e060408401526200505560e084018962004756565b818816606085015286608085015283810360a085015262005077818762004e35565b91505082810360c08401526200508e818562004e56565b9a9950505050505050505050565b8581526001600160a01b03858116602083015284811660408301528316606082015260a06080820181905260009062003a7b9083018462004e35565b6020808252602b908201527f496e697469616c697a61626c653a20636f6e7472616374206973206e6f74206960408201526a6e697469616c697a696e6760a81b606082015260800190565b76020b1b1b2b9b9a1b7b73a3937b61d1030b1b1b7bab73a1604d1b8152600083516200515781601785016020880162004730565b7001034b99036b4b9b9b4b733903937b6329607d1b60179184019182015283516200518a81602884016020880162004730565b01602801949350505050565b600081620051a857620051a862004818565b506000190190565b60008251620051c481846020870162004730565b919091019291505056fe60806040526040516104ec3803806104ec833981016040819052610022916102e9565b61002e82826000610035565b5050610406565b61003e83610061565b60008251118061004b5750805b1561005c5761005a83836100a1565b505b505050565b61006a816100cd565b6040516001600160a01b038216907fbc7cd75a20ee27fd9adebab32041f755214dbc6bffa90cc0225b39da2e5c2d3b90600090a250565b60606100c683836040518060600160405280602781526020016104c56027913961017e565b9392505050565b6100d6816101f7565b61013d5760405162461bcd60e51b815260206004820152602d60248201527f455243313936373a206e657720696d706c656d656e746174696f6e206973206e60448201526c1bdd08184818dbdb9d1c9858dd609a1b60648201526084015b60405180910390fd5b7f360894a13ba1a3210667c828492db98dca3e2076cc3735a920a3ca505d382bbc80546001600160a01b0319166001600160a01b0392909216919091179055565b6060600080856001600160a01b03168560405161019b91906103b7565b600060405180830381855af49150503d80600081146101d6576040519150601f19603f3d011682016040523d82523d6000602084013e6101db565b606091505b5090925090506101ed86838387610206565b9695505050505050565b6001600160a01b03163b151590565b6060831561027357825160000361026c57610220856101f7565b61026c5760405162461bcd60e51b815260206004820152601d60248201527f416464726573733a2063616c6c20746f206e6f6e2d636f6e74726163740000006044820152606401610134565b508161027d565b61027d8383610285565b949350505050565b8151156102955781518083602001fd5b8060405162461bcd60e51b815260040161013491906103d3565b634e487b7160e01b600052604160045260246000fd5b60005b838110156102e05781810151838201526020016102c8565b50506000910152565b600080604083850312156102fc57600080fd5b82516001600160a01b038116811461031357600080fd5b60208401519092506001600160401b038082111561033057600080fd5b818501915085601f83011261034457600080fd5b815181811115610356576103566102af565b604051601f8201601f19908116603f0116810190838211818310171561037e5761037e6102af565b8160405282815288602084870101111561039757600080fd5b6103a88360208301602088016102c5565b80955050505050509250929050565b600082516103c98184602087016102c5565b9190910192915050565b60208152600082518060208401526103f28160408501602087016102c5565b601f01601f19169190910160400192915050565b60b1806104146000396000f3fe608060405236601057600e6013565b005b600e5b601f601b6021565b6058565b565b600060537f360894a13ba1a3210667c828492db98dca3e2076cc3735a920a3ca505d382bbc546001600160a01b031690565b905090565b3660008037600080366000845af43d6000803e8080156076573d6000f35b3d6000fdfea26469706673582212209c3f881c23370b0502ff9123fe86901d16134374d29c7b043a8038ddae172d3164736f6c63430008130033416464726573733a206c6f772d6c6576656c2064656c65676174652063616c6c206661696c656403be538b6391ddcd7f2649585cc95b120c9e2a613f70714fbb55345057d809fa46756e6374696f6e206d7573742062652063616c6c6564207468726f75676820360894a13ba1a3210667c828492db98dca3e2076cc3735a920a3ca505d382bbc416464726573733a206c6f772d6c6576656c2064656c65676174652063616c6c206661696c6564a2646970667358221220794e150e23c32cc1d3ad1af2f7b15e3f536195cf28758f1127cab3d4309c9d0d64736f6c63430008130033","linkReferences":{}},"methodIdentifiers":{"COUNCIL_MEMBER()":"733a2d1f","DEFAULT_ADMIN_ROLE()":"a217fddf","MAX_FEE()":"bc063e1a","NATIVE()":"a0cf0aea","PRECISION_SCALE()":"d7050f07","acceptCouncilSafe()":"b5058c50","activateMemberInStrategy(address,address)":"0d4a8b49","addStrategy(address)":"223e5479","addStrategyByPoolId(uint256)":"82d6a1e7","addressToMemberInfo(address)":"88cfe684","allo()":"d6d8428d","cloneNonce()":"33960459","communityFee()":"8961be6b","communityName()":"c6d572ae","councilSafe()":"6c53db9a","covenantIpfsHash()":"b64e39af","createPool(address,((uint256,uint256,uint256,uint256),uint8,uint8,(uint256),(address,address,uint256,uint256,uint256,uint256),address,address),(uint256,string))":"524e59e8","createPool(address,address,((uint256,uint256,uint256,uint256),uint8,uint8,(uint256),(address,address,uint256,uint256,uint256,uint256),address,address),(uint256,string))":"e16d0e32","deactivateMemberInStrategy(address,address)":"22bcf999","decreasePower(uint256)":"5ecf71c5","enabledStrategies(address)":"3a871fe1","feeReceiver()":"b3f00674","gardenToken()":"db61d65c","getBasisStakedAmount()":"0331383c","getMemberPowerInStrategy(address,address)":"7817ee4f","getMemberStakedAmount(address)":"2c611c4a","getRoleAdmin(bytes32)":"248a9ca3","getStakeAmountWithFees()":"28c309e9","grantRole(bytes32,address)":"2f2ff15d","hasRole(bytes32,address)":"91d14854","increasePower(uint256)":"559de05d","initialize((address,address,uint256,uint256,uint256,address,address,(uint256,string),address,string,bool,string,address))":"96f0adec","isCouncilMember(address)":"ebd7dc52","isKickEnabled()":"1f787d28","isMember(address)":"a230c524","kickMember(address,address)":"6871eb4d","memberActivatedInStrategies(address,address)":"477a5cc0","memberPowerInStrategy(address,address)":"65e3864c","owner()":"8da5cb5b","pendingCouncilSafe()":"68decabb","profileId()":"08386eba","proxiableUUID()":"52d1902d","registerStakeAmount()":"78a0b8a9","registry()":"7b103999","registryFactory()":"f86c5f89","removeStrategy(address)":"175188e8","removeStrategyByPoolId(uint256)":"73265c37","renounceOwnership()":"715018a6","renounceRole(bytes32,address)":"36568abe","revokeRole(bytes32,address)":"d547741f","setBasisStakedAmount(uint256)":"31f61bca","setCommunityFee(uint256)":"0d12bbdb","setCouncilSafe(address)":"397e2543","stakeAndRegisterMember()":"3517aa7d","strategiesByMember(address,uint256)":"2b38c69c","strategyTemplate()":"5c94e4d2","supportsInterface(bytes4)":"01ffc9a7","transferOwnership(address)":"f2fde38b","unregisterMember()":"b99b4370","upgradeTo(address)":"3659cfe6","upgradeToAndCall(address,bytes)":"4f1ef286"},"storageLayout":{"storage":[{"astId":53071,"contract":"pkg/contracts/src/RegistryCommunityV0_0.sol:RegistryCommunityV0_0","label":"_initialized","offset":0,"slot":"0","type":"t_uint8"},{"astId":53074,"contract":"pkg/contracts/src/RegistryCommunityV0_0.sol:RegistryCommunityV0_0","label":"_initializing","offset":1,"slot":"0","type":"t_bool"},{"astId":53776,"contract":"pkg/contracts/src/RegistryCommunityV0_0.sol:RegistryCommunityV0_0","label":"__gap","offset":0,"slot":"1","type":"t_array(t_uint256)50_storage"},{"astId":52863,"contract":"pkg/contracts/src/RegistryCommunityV0_0.sol:RegistryCommunityV0_0","label":"_owner","offset":0,"slot":"51","type":"t_address"},{"astId":52983,"contract":"pkg/contracts/src/RegistryCommunityV0_0.sol:RegistryCommunityV0_0","label":"__gap","offset":0,"slot":"52","type":"t_array(t_uint256)49_storage"},{"astId":53248,"contract":"pkg/contracts/src/RegistryCommunityV0_0.sol:RegistryCommunityV0_0","label":"_status","offset":0,"slot":"101","type":"t_uint256"},{"astId":53317,"contract":"pkg/contracts/src/RegistryCommunityV0_0.sol:RegistryCommunityV0_0","label":"__gap","offset":0,"slot":"102","type":"t_array(t_uint256)49_storage"},{"astId":54050,"contract":"pkg/contracts/src/RegistryCommunityV0_0.sol:RegistryCommunityV0_0","label":"__gap","offset":0,"slot":"151","type":"t_array(t_uint256)50_storage"},{"astId":52470,"contract":"pkg/contracts/src/RegistryCommunityV0_0.sol:RegistryCommunityV0_0","label":"_roles","offset":0,"slot":"201","type":"t_mapping(t_bytes32,t_struct(RoleData)52465_storage)"},{"astId":52777,"contract":"pkg/contracts/src/RegistryCommunityV0_0.sol:RegistryCommunityV0_0","label":"__gap","offset":0,"slot":"202","type":"t_array(t_uint256)49_storage"},{"astId":76468,"contract":"pkg/contracts/src/RegistryCommunityV0_0.sol:RegistryCommunityV0_0","label":"registerStakeAmount","offset":0,"slot":"251","type":"t_uint256"},{"astId":76471,"contract":"pkg/contracts/src/RegistryCommunityV0_0.sol:RegistryCommunityV0_0","label":"communityFee","offset":0,"slot":"252","type":"t_uint256"},{"astId":76474,"contract":"pkg/contracts/src/RegistryCommunityV0_0.sol:RegistryCommunityV0_0","label":"cloneNonce","offset":0,"slot":"253","type":"t_uint256"},{"astId":76477,"contract":"pkg/contracts/src/RegistryCommunityV0_0.sol:RegistryCommunityV0_0","label":"profileId","offset":0,"slot":"254","type":"t_bytes32"},{"astId":76480,"contract":"pkg/contracts/src/RegistryCommunityV0_0.sol:RegistryCommunityV0_0","label":"isKickEnabled","offset":0,"slot":"255","type":"t_bool"},{"astId":76483,"contract":"pkg/contracts/src/RegistryCommunityV0_0.sol:RegistryCommunityV0_0","label":"feeReceiver","offset":1,"slot":"255","type":"t_address"},{"astId":76486,"contract":"pkg/contracts/src/RegistryCommunityV0_0.sol:RegistryCommunityV0_0","label":"registryFactory","offset":0,"slot":"256","type":"t_address"},{"astId":76489,"contract":"pkg/contracts/src/RegistryCommunityV0_0.sol:RegistryCommunityV0_0","label":"strategyTemplate","offset":0,"slot":"257","type":"t_address"},{"astId":76492,"contract":"pkg/contracts/src/RegistryCommunityV0_0.sol:RegistryCommunityV0_0","label":"pendingCouncilSafe","offset":0,"slot":"258","type":"t_address_payable"},{"astId":76496,"contract":"pkg/contracts/src/RegistryCommunityV0_0.sol:RegistryCommunityV0_0","label":"registry","offset":0,"slot":"259","type":"t_contract(IRegistry)2802"},{"astId":76500,"contract":"pkg/contracts/src/RegistryCommunityV0_0.sol:RegistryCommunityV0_0","label":"gardenToken","offset":0,"slot":"260","type":"t_contract(IERC20)56609"},{"astId":76504,"contract":"pkg/contracts/src/RegistryCommunityV0_0.sol:RegistryCommunityV0_0","label":"councilSafe","offset":0,"slot":"261","type":"t_contract(ISafe)79448"},{"astId":76508,"contract":"pkg/contracts/src/RegistryCommunityV0_0.sol:RegistryCommunityV0_0","label":"allo","offset":0,"slot":"262","type":"t_contract(FAllo)78858"},{"astId":76511,"contract":"pkg/contracts/src/RegistryCommunityV0_0.sol:RegistryCommunityV0_0","label":"communityName","offset":0,"slot":"263","type":"t_string_storage"},{"astId":76514,"contract":"pkg/contracts/src/RegistryCommunityV0_0.sol:RegistryCommunityV0_0","label":"covenantIpfsHash","offset":0,"slot":"264","type":"t_string_storage"},{"astId":76519,"contract":"pkg/contracts/src/RegistryCommunityV0_0.sol:RegistryCommunityV0_0","label":"enabledStrategies","offset":0,"slot":"265","type":"t_mapping(t_address,t_bool)"},{"astId":76526,"contract":"pkg/contracts/src/RegistryCommunityV0_0.sol:RegistryCommunityV0_0","label":"memberPowerInStrategy","offset":0,"slot":"266","type":"t_mapping(t_address,t_mapping(t_address,t_uint256))"},{"astId":76532,"contract":"pkg/contracts/src/RegistryCommunityV0_0.sol:RegistryCommunityV0_0","label":"addressToMemberInfo","offset":0,"slot":"267","type":"t_mapping(t_address,t_struct(Member)76671_storage)"},{"astId":76538,"contract":"pkg/contracts/src/RegistryCommunityV0_0.sol:RegistryCommunityV0_0","label":"strategiesByMember","offset":0,"slot":"268","type":"t_mapping(t_address,t_array(t_address)dyn_storage)"},{"astId":76545,"contract":"pkg/contracts/src/RegistryCommunityV0_0.sol:RegistryCommunityV0_0","label":"memberActivatedInStrategies","offset":0,"slot":"269","type":"t_mapping(t_address,t_mapping(t_address,t_bool))"},{"astId":76549,"contract":"pkg/contracts/src/RegistryCommunityV0_0.sol:RegistryCommunityV0_0","label":"initialMembers","offset":0,"slot":"270","type":"t_array(t_address)dyn_storage"},{"astId":78134,"contract":"pkg/contracts/src/RegistryCommunityV0_0.sol:RegistryCommunityV0_0","label":"__gap","offset":0,"slot":"271","type":"t_array(t_uint256)50_storage"}],"types":{"t_address":{"encoding":"inplace","label":"address","numberOfBytes":"20"},"t_address_payable":{"encoding":"inplace","label":"address payable","numberOfBytes":"20"},"t_array(t_address)dyn_storage":{"encoding":"dynamic_array","label":"address[]","numberOfBytes":"32","base":"t_address"},"t_array(t_uint256)49_storage":{"encoding":"inplace","label":"uint256[49]","numberOfBytes":"1568","base":"t_uint256"},"t_array(t_uint256)50_storage":{"encoding":"inplace","label":"uint256[50]","numberOfBytes":"1600","base":"t_uint256"},"t_bool":{"encoding":"inplace","label":"bool","numberOfBytes":"1"},"t_bytes32":{"encoding":"inplace","label":"bytes32","numberOfBytes":"32"},"t_contract(FAllo)78858":{"encoding":"inplace","label":"contract FAllo","numberOfBytes":"20"},"t_contract(IERC20)56609":{"encoding":"inplace","label":"contract IERC20","numberOfBytes":"20"},"t_contract(IRegistry)2802":{"encoding":"inplace","label":"contract IRegistry","numberOfBytes":"20"},"t_contract(ISafe)79448":{"encoding":"inplace","label":"contract ISafe","numberOfBytes":"20"},"t_mapping(t_address,t_array(t_address)dyn_storage)":{"encoding":"mapping","key":"t_address","label":"mapping(address => address[])","numberOfBytes":"32","value":"t_array(t_address)dyn_storage"},"t_mapping(t_address,t_bool)":{"encoding":"mapping","key":"t_address","label":"mapping(address => bool)","numberOfBytes":"32","value":"t_bool"},"t_mapping(t_address,t_mapping(t_address,t_bool))":{"encoding":"mapping","key":"t_address","label":"mapping(address => mapping(address => bool))","numberOfBytes":"32","value":"t_mapping(t_address,t_bool)"},"t_mapping(t_address,t_mapping(t_address,t_uint256))":{"encoding":"mapping","key":"t_address","label":"mapping(address => mapping(address => uint256))","numberOfBytes":"32","value":"t_mapping(t_address,t_uint256)"},"t_mapping(t_address,t_struct(Member)76671_storage)":{"encoding":"mapping","key":"t_address","label":"mapping(address => struct RegistryCommunityV0_0.Member)","numberOfBytes":"32","value":"t_struct(Member)76671_storage"},"t_mapping(t_address,t_uint256)":{"encoding":"mapping","key":"t_address","label":"mapping(address => uint256)","numberOfBytes":"32","value":"t_uint256"},"t_mapping(t_bytes32,t_struct(RoleData)52465_storage)":{"encoding":"mapping","key":"t_bytes32","label":"mapping(bytes32 => struct AccessControlUpgradeable.RoleData)","numberOfBytes":"32","value":"t_struct(RoleData)52465_storage"},"t_string_storage":{"encoding":"bytes","label":"string","numberOfBytes":"32"},"t_struct(Member)76671_storage":{"encoding":"inplace","label":"struct RegistryCommunityV0_0.Member","numberOfBytes":"96","members":[{"astId":76666,"contract":"pkg/contracts/src/RegistryCommunityV0_0.sol:RegistryCommunityV0_0","label":"member","offset":0,"slot":"0","type":"t_address"},{"astId":76668,"contract":"pkg/contracts/src/RegistryCommunityV0_0.sol:RegistryCommunityV0_0","label":"stakedAmount","offset":0,"slot":"1","type":"t_uint256"},{"astId":76670,"contract":"pkg/contracts/src/RegistryCommunityV0_0.sol:RegistryCommunityV0_0","label":"isRegistered","offset":0,"slot":"2","type":"t_bool"}]},"t_struct(RoleData)52465_storage":{"encoding":"inplace","label":"struct AccessControlUpgradeable.RoleData","numberOfBytes":"64","members":[{"astId":52462,"contract":"pkg/contracts/src/RegistryCommunityV0_0.sol:RegistryCommunityV0_0","label":"members","offset":0,"slot":"0","type":"t_mapping(t_address,t_bool)"},{"astId":52464,"contract":"pkg/contracts/src/RegistryCommunityV0_0.sol:RegistryCommunityV0_0","label":"adminRole","offset":0,"slot":"1","type":"t_bytes32"}]},"t_uint256":{"encoding":"inplace","label":"uint256","numberOfBytes":"32"},"t_uint8":{"encoding":"inplace","label":"uint8","numberOfBytes":"1"}}},"id":117}