{"abi":[{"type":"function","name":"COUNCIL_MEMBER","inputs":[],"outputs":[{"name":"","type":"bytes32","internalType":"bytes32"}],"stateMutability":"view"},{"type":"function","name":"DEFAULT_ADMIN_ROLE","inputs":[],"outputs":[{"name":"","type":"bytes32","internalType":"bytes32"}],"stateMutability":"view"},{"type":"function","name":"MAX_FEE","inputs":[],"outputs":[{"name":"","type":"uint256","internalType":"uint256"}],"stateMutability":"view"},{"type":"function","name":"NATIVE","inputs":[],"outputs":[{"name":"","type":"address","internalType":"address"}],"stateMutability":"view"},{"type":"function","name":"PRECISION_SCALE","inputs":[],"outputs":[{"name":"","type":"uint256","internalType":"uint256"}],"stateMutability":"view"},{"type":"function","name":"VERSION","inputs":[],"outputs":[{"name":"","type":"string","internalType":"string"}],"stateMutability":"view"},{"type":"function","name":"acceptCouncilSafe","inputs":[],"outputs":[],"stateMutability":"nonpayable"},{"type":"function","name":"activateMemberInStrategy","inputs":[{"name":"_member","type":"address","internalType":"address"},{"name":"_strategy","type":"address","internalType":"address"}],"outputs":[],"stateMutability":"nonpayable"},{"type":"function","name":"addStrategy","inputs":[{"name":"_newStrategy","type":"address","internalType":"address"}],"outputs":[],"stateMutability":"nonpayable"},{"type":"function","name":"addStrategyByPoolId","inputs":[{"name":"poolId","type":"uint256","internalType":"uint256"}],"outputs":[],"stateMutability":"nonpayable"},{"type":"function","name":"addressToMemberInfo","inputs":[{"name":"member","type":"address","internalType":"address"}],"outputs":[{"name":"member","type":"address","internalType":"address"},{"name":"stakedAmount","type":"uint256","internalType":"uint256"},{"name":"isRegistered","type":"bool","internalType":"bool"}],"stateMutability":"view"},{"type":"function","name":"allo","inputs":[],"outputs":[{"name":"","type":"address","internalType":"contract FAllo"}],"stateMutability":"view"},{"type":"function","name":"cloneNonce","inputs":[],"outputs":[{"name":"","type":"uint256","internalType":"uint256"}],"stateMutability":"view"},{"type":"function","name":"collateralVaultTemplate","inputs":[],"outputs":[{"name":"","type":"address","internalType":"address"}],"stateMutability":"view"},{"type":"function","name":"communityFee","inputs":[],"outputs":[{"name":"","type":"uint256","internalType":"uint256"}],"stateMutability":"view"},{"type":"function","name":"communityName","inputs":[],"outputs":[{"name":"","type":"string","internalType":"string"}],"stateMutability":"view"},{"type":"function","name":"councilSafe","inputs":[],"outputs":[{"name":"","type":"address","internalType":"contract ISafe"}],"stateMutability":"view"},{"type":"function","name":"covenantIpfsHash","inputs":[],"outputs":[{"name":"","type":"string","internalType":"string"}],"stateMutability":"view"},{"type":"function","name":"createPool","inputs":[{"name":"_token","type":"address","internalType":"address"},{"name":"_params","type":"tuple","internalType":"struct CVStrategyInitializeParamsV0_2","components":[{"name":"cvParams","type":"tuple","internalType":"struct CVParams","components":[{"name":"maxRatio","type":"uint256","internalType":"uint256"},{"name":"weight","type":"uint256","internalType":"uint256"},{"name":"decay","type":"uint256","internalType":"uint256"},{"name":"minThresholdPoints","type":"uint256","internalType":"uint256"}]},{"name":"proposalType","type":"uint8","internalType":"enum ProposalType"},{"name":"pointSystem","type":"uint8","internalType":"enum PointSystem"},{"name":"pointConfig","type":"tuple","internalType":"struct PointSystemConfig","components":[{"name":"maxAmount","type":"uint256","internalType":"uint256"}]},{"name":"arbitrableConfig","type":"tuple","internalType":"struct ArbitrableConfig","components":[{"name":"arbitrator","type":"address","internalType":"contract IArbitrator"},{"name":"tribunalSafe","type":"address","internalType":"address"},{"name":"submitterCollateralAmount","type":"uint256","internalType":"uint256"},{"name":"challengerCollateralAmount","type":"uint256","internalType":"uint256"},{"name":"defaultRuling","type":"uint256","internalType":"uint256"},{"name":"defaultRulingTimeout","type":"uint256","internalType":"uint256"}]},{"name":"registryCommunity","type":"address","internalType":"address"},{"name":"sybilScorer","type":"address","internalType":"address"},{"name":"sybilScorerThreshold","type":"uint256","internalType":"uint256"},{"name":"initialAllowlist","type":"address[]","internalType":"address[]"},{"name":"superfluidToken","type":"address","internalType":"address"}]},{"name":"_metadata","type":"tuple","internalType":"struct Metadata","components":[{"name":"protocol","type":"uint256","internalType":"uint256"},{"name":"pointer","type":"string","internalType":"string"}]}],"outputs":[{"name":"poolId","type":"uint256","internalType":"uint256"},{"name":"strategy","type":"address","internalType":"address"}],"stateMutability":"nonpayable"},{"type":"function","name":"createPool","inputs":[{"name":"_strategy","type":"address","internalType":"address"},{"name":"_token","type":"address","internalType":"address"},{"name":"_params","type":"tuple","internalType":"struct CVStrategyInitializeParamsV0_2","components":[{"name":"cvParams","type":"tuple","internalType":"struct CVParams","components":[{"name":"maxRatio","type":"uint256","internalType":"uint256"},{"name":"weight","type":"uint256","internalType":"uint256"},{"name":"decay","type":"uint256","internalType":"uint256"},{"name":"minThresholdPoints","type":"uint256","internalType":"uint256"}]},{"name":"proposalType","type":"uint8","internalType":"enum ProposalType"},{"name":"pointSystem","type":"uint8","internalType":"enum PointSystem"},{"name":"pointConfig","type":"tuple","internalType":"struct PointSystemConfig","components":[{"name":"maxAmount","type":"uint256","internalType":"uint256"}]},{"name":"arbitrableConfig","type":"tuple","internalType":"struct ArbitrableConfig","components":[{"name":"arbitrator","type":"address","internalType":"contract IArbitrator"},{"name":"tribunalSafe","type":"address","internalType":"address"},{"name":"submitterCollateralAmount","type":"uint256","internalType":"uint256"},{"name":"challengerCollateralAmount","type":"uint256","internalType":"uint256"},{"name":"defaultRuling","type":"uint256","internalType":"uint256"},{"name":"defaultRulingTimeout","type":"uint256","internalType":"uint256"}]},{"name":"registryCommunity","type":"address","internalType":"address"},{"name":"sybilScorer","type":"address","internalType":"address"},{"name":"sybilScorerThreshold","type":"uint256","internalType":"uint256"},{"name":"initialAllowlist","type":"address[]","internalType":"address[]"},{"name":"superfluidToken","type":"address","internalType":"address"}]},{"name":"_metadata","type":"tuple","internalType":"struct Metadata","components":[{"name":"protocol","type":"uint256","internalType":"uint256"},{"name":"pointer","type":"string","internalType":"string"}]}],"outputs":[{"name":"poolId","type":"uint256","internalType":"uint256"},{"name":"strategy","type":"address","internalType":"address"}],"stateMutability":"nonpayable"},{"type":"function","name":"deactivateMemberInStrategy","inputs":[{"name":"_member","type":"address","internalType":"address"},{"name":"_strategy","type":"address","internalType":"address"}],"outputs":[],"stateMutability":"nonpayable"},{"type":"function","name":"decreasePower","inputs":[{"name":"_amountUnstaked","type":"uint256","internalType":"uint256"}],"outputs":[],"stateMutability":"nonpayable"},{"type":"function","name":"enabledStrategies","inputs":[{"name":"strategy","type":"address","internalType":"address"}],"outputs":[{"name":"isEnabled","type":"bool","internalType":"bool"}],"stateMutability":"view"},{"type":"function","name":"feeReceiver","inputs":[],"outputs":[{"name":"","type":"address","internalType":"address"}],"stateMutability":"view"},{"type":"function","name":"gardenToken","inputs":[],"outputs":[{"name":"","type":"address","internalType":"contract IERC20"}],"stateMutability":"view"},{"type":"function","name":"getBasisStakedAmount","inputs":[],"outputs":[{"name":"","type":"uint256","internalType":"uint256"}],"stateMutability":"view"},{"type":"function","name":"getMemberPowerInStrategy","inputs":[{"name":"_member","type":"address","internalType":"address"},{"name":"_strategy","type":"address","internalType":"address"}],"outputs":[{"name":"","type":"uint256","internalType":"uint256"}],"stateMutability":"view"},{"type":"function","name":"getMemberStakedAmount","inputs":[{"name":"_member","type":"address","internalType":"address"}],"outputs":[{"name":"","type":"uint256","internalType":"uint256"}],"stateMutability":"view"},{"type":"function","name":"getRoleAdmin","inputs":[{"name":"role","type":"bytes32","internalType":"bytes32"}],"outputs":[{"name":"","type":"bytes32","internalType":"bytes32"}],"stateMutability":"view"},{"type":"function","name":"getStakeAmountWithFees","inputs":[],"outputs":[{"name":"","type":"uint256","internalType":"uint256"}],"stateMutability":"view"},{"type":"function","name":"grantRole","inputs":[{"name":"role","type":"bytes32","internalType":"bytes32"},{"name":"account","type":"address","internalType":"address"}],"outputs":[],"stateMutability":"nonpayable"},{"type":"function","name":"hasRole","inputs":[{"name":"role","type":"bytes32","internalType":"bytes32"},{"name":"account","type":"address","internalType":"address"}],"outputs":[{"name":"","type":"bool","internalType":"bool"}],"stateMutability":"view"},{"type":"function","name":"increasePower","inputs":[{"name":"_amountStaked","type":"uint256","internalType":"uint256"}],"outputs":[],"stateMutability":"nonpayable"},{"type":"function","name":"initialize","inputs":[{"name":"params","type":"tuple","internalType":"struct RegistryCommunityInitializeParamsV0_0","components":[{"name":"_allo","type":"address","internalType":"address"},{"name":"_gardenToken","type":"address","internalType":"contract IERC20"},{"name":"_registerStakeAmount","type":"uint256","internalType":"uint256"},{"name":"_communityFee","type":"uint256","internalType":"uint256"},{"name":"_nonce","type":"uint256","internalType":"uint256"},{"name":"_registryFactory","type":"address","internalType":"address"},{"name":"_feeReceiver","type":"address","internalType":"address"},{"name":"_metadata","type":"tuple","internalType":"struct Metadata","components":[{"name":"protocol","type":"uint256","internalType":"uint256"},{"name":"pointer","type":"string","internalType":"string"}]},{"name":"_councilSafe","type":"address","internalType":"address payable"},{"name":"_communityName","type":"string","internalType":"string"},{"name":"_isKickEnabled","type":"bool","internalType":"bool"},{"name":"covenantIpfsHash","type":"string","internalType":"string"}]},{"name":"_strategyTemplate","type":"address","internalType":"address"},{"name":"_collateralVaultTemplate","type":"address","internalType":"address"},{"name":"_owner","type":"address","internalType":"address"}],"outputs":[],"stateMutability":"nonpayable"},{"type":"function","name":"initialize","inputs":[{"name":"initialOwner","type":"address","internalType":"address"}],"outputs":[],"stateMutability":"nonpayable"},{"type":"function","name":"isCouncilMember","inputs":[{"name":"_member","type":"address","internalType":"address"}],"outputs":[{"name":"","type":"bool","internalType":"bool"}],"stateMutability":"view"},{"type":"function","name":"isKickEnabled","inputs":[],"outputs":[{"name":"","type":"bool","internalType":"bool"}],"stateMutability":"view"},{"type":"function","name":"isMember","inputs":[{"name":"_member","type":"address","internalType":"address"}],"outputs":[{"name":"","type":"bool","internalType":"bool"}],"stateMutability":"view"},{"type":"function","name":"kickMember","inputs":[{"name":"_member","type":"address","internalType":"address"},{"name":"_transferAddress","type":"address","internalType":"address"}],"outputs":[],"stateMutability":"nonpayable"},{"type":"function","name":"memberActivatedInStrategies","inputs":[{"name":"member","type":"address","internalType":"address"},{"name":"strategy","type":"address","internalType":"address"}],"outputs":[{"name":"isActivated","type":"bool","internalType":"bool"}],"stateMutability":"view"},{"type":"function","name":"memberPowerInStrategy","inputs":[{"name":"strategy","type":"address","internalType":"address"},{"name":"member","type":"address","internalType":"address"}],"outputs":[{"name":"power","type":"uint256","internalType":"uint256"}],"stateMutability":"view"},{"type":"function","name":"onlyStrategyEnabled","inputs":[{"name":"_strategy","type":"address","internalType":"address"}],"outputs":[],"stateMutability":"view"},{"type":"function","name":"owner","inputs":[],"outputs":[{"name":"","type":"address","internalType":"address"}],"stateMutability":"view"},{"type":"function","name":"pendingCouncilSafe","inputs":[],"outputs":[{"name":"","type":"address","internalType":"address payable"}],"stateMutability":"view"},{"type":"function","name":"profileId","inputs":[],"outputs":[{"name":"","type":"bytes32","internalType":"bytes32"}],"stateMutability":"view"},{"type":"function","name":"proxiableUUID","inputs":[],"outputs":[{"name":"","type":"bytes32","internalType":"bytes32"}],"stateMutability":"view"},{"type":"function","name":"proxyOwner","inputs":[],"outputs":[{"name":"","type":"address","internalType":"address"}],"stateMutability":"view"},{"type":"function","name":"registerStakeAmount","inputs":[],"outputs":[{"name":"","type":"uint256","internalType":"uint256"}],"stateMutability":"view"},{"type":"function","name":"registry","inputs":[],"outputs":[{"name":"","type":"address","internalType":"contract IRegistry"}],"stateMutability":"view"},{"type":"function","name":"registryFactory","inputs":[],"outputs":[{"name":"","type":"address","internalType":"address"}],"stateMutability":"view"},{"type":"function","name":"rejectPool","inputs":[{"name":"_strategy","type":"address","internalType":"address"}],"outputs":[],"stateMutability":"nonpayable"},{"type":"function","name":"removeStrategy","inputs":[{"name":"_strategy","type":"address","internalType":"address"}],"outputs":[],"stateMutability":"nonpayable"},{"type":"function","name":"removeStrategyByPoolId","inputs":[{"name":"poolId","type":"uint256","internalType":"uint256"}],"outputs":[],"stateMutability":"nonpayable"},{"type":"function","name":"renounceOwnership","inputs":[],"outputs":[],"stateMutability":"nonpayable"},{"type":"function","name":"renounceRole","inputs":[{"name":"role","type":"bytes32","internalType":"bytes32"},{"name":"account","type":"address","internalType":"address"}],"outputs":[],"stateMutability":"nonpayable"},{"type":"function","name":"revokeRole","inputs":[{"name":"role","type":"bytes32","internalType":"bytes32"},{"name":"account","type":"address","internalType":"address"}],"outputs":[],"stateMutability":"nonpayable"},{"type":"function","name":"setArchived","inputs":[{"name":"_isArchived","type":"bool","internalType":"bool"}],"outputs":[],"stateMutability":"nonpayable"},{"type":"function","name":"setBasisStakedAmount","inputs":[{"name":"_newAmount","type":"uint256","internalType":"uint256"}],"outputs":[],"stateMutability":"nonpayable"},{"type":"function","name":"setCollateralVaultTemplate","inputs":[{"name":"template","type":"address","internalType":"address"}],"outputs":[],"stateMutability":"nonpayable"},{"type":"function","name":"setCommunityFee","inputs":[{"name":"_newCommunityFee","type":"uint256","internalType":"uint256"}],"outputs":[],"stateMutability":"nonpayable"},{"type":"function","name":"setCommunityParams","inputs":[{"name":"_params","type":"tuple","internalType":"struct CommunityParams","components":[{"name":"councilSafe","type":"address","internalType":"address"},{"name":"feeReceiver","type":"address","internalType":"address"},{"name":"communityFee","type":"uint256","internalType":"uint256"},{"name":"communityName","type":"string","internalType":"string"},{"name":"registerStakeAmount","type":"uint256","internalType":"uint256"},{"name":"isKickEnabled","type":"bool","internalType":"bool"},{"name":"covenantIpfsHash","type":"string","internalType":"string"}]}],"outputs":[],"stateMutability":"nonpayable"},{"type":"function","name":"setCouncilSafe","inputs":[{"name":"_safe","type":"address","internalType":"address payable"}],"outputs":[],"stateMutability":"nonpayable"},{"type":"function","name":"setStrategyTemplate","inputs":[{"name":"template","type":"address","internalType":"address"}],"outputs":[],"stateMutability":"nonpayable"},{"type":"function","name":"stakeAndRegisterMember","inputs":[{"name":"covenantSig","type":"string","internalType":"string"}],"outputs":[],"stateMutability":"nonpayable"},{"type":"function","name":"strategiesByMember","inputs":[{"name":"member","type":"address","internalType":"address"},{"name":"","type":"uint256","internalType":"uint256"}],"outputs":[{"name":"strategiesAddresses","type":"address","internalType":"address"}],"stateMutability":"view"},{"type":"function","name":"strategyTemplate","inputs":[],"outputs":[{"name":"","type":"address","internalType":"address"}],"stateMutability":"view"},{"type":"function","name":"supportsInterface","inputs":[{"name":"interfaceId","type":"bytes4","internalType":"bytes4"}],"outputs":[{"name":"","type":"bool","internalType":"bool"}],"stateMutability":"view"},{"type":"function","name":"totalMembers","inputs":[],"outputs":[{"name":"","type":"uint256","internalType":"uint256"}],"stateMutability":"view"},{"type":"function","name":"transferOwnership","inputs":[{"name":"newOwner","type":"address","internalType":"address"}],"outputs":[],"stateMutability":"nonpayable"},{"type":"function","name":"unregisterMember","inputs":[],"outputs":[],"stateMutability":"nonpayable"},{"type":"function","name":"upgradeTo","inputs":[{"name":"newImplementation","type":"address","internalType":"address"}],"outputs":[],"stateMutability":"nonpayable"},{"type":"function","name":"upgradeToAndCall","inputs":[{"name":"newImplementation","type":"address","internalType":"address"},{"name":"data","type":"bytes","internalType":"bytes"}],"outputs":[],"stateMutability":"payable"},{"type":"event","name":"AdminChanged","inputs":[{"name":"previousAdmin","type":"address","indexed":false,"internalType":"address"},{"name":"newAdmin","type":"address","indexed":false,"internalType":"address"}],"anonymous":false},{"type":"event","name":"BasisStakedAmountUpdated","inputs":[{"name":"_newAmount","type":"uint256","indexed":false,"internalType":"uint256"}],"anonymous":false},{"type":"event","name":"BeaconUpgraded","inputs":[{"name":"beacon","type":"address","indexed":true,"internalType":"address"}],"anonymous":false},{"type":"event","name":"CommunityArchived","inputs":[{"name":"_archived","type":"bool","indexed":false,"internalType":"bool"}],"anonymous":false},{"type":"event","name":"CommunityFeeUpdated","inputs":[{"name":"_newFee","type":"uint256","indexed":false,"internalType":"uint256"}],"anonymous":false},{"type":"event","name":"CommunityNameUpdated","inputs":[{"name":"_communityName","type":"string","indexed":false,"internalType":"string"}],"anonymous":false},{"type":"event","name":"CouncilSafeChangeStarted","inputs":[{"name":"_safeOwner","type":"address","indexed":false,"internalType":"address"},{"name":"_newSafeOwner","type":"address","indexed":false,"internalType":"address"}],"anonymous":false},{"type":"event","name":"CouncilSafeUpdated","inputs":[{"name":"_safe","type":"address","indexed":false,"internalType":"address"}],"anonymous":false},{"type":"event","name":"CovenantIpfsHashUpdated","inputs":[{"name":"_covenantIpfsHash","type":"string","indexed":false,"internalType":"string"}],"anonymous":false},{"type":"event","name":"FeeReceiverChanged","inputs":[{"name":"_feeReceiver","type":"address","indexed":false,"internalType":"address"}],"anonymous":false},{"type":"event","name":"Initialized","inputs":[{"name":"version","type":"uint8","indexed":false,"internalType":"uint8"}],"anonymous":false},{"type":"event","name":"KickEnabledUpdated","inputs":[{"name":"_isKickEnabled","type":"bool","indexed":false,"internalType":"bool"}],"anonymous":false},{"type":"event","name":"MemberActivatedStrategy","inputs":[{"name":"_member","type":"address","indexed":false,"internalType":"address"},{"name":"_strategy","type":"address","indexed":false,"internalType":"address"},{"name":"_pointsToIncrease","type":"uint256","indexed":false,"internalType":"uint256"}],"anonymous":false},{"type":"event","name":"MemberDeactivatedStrategy","inputs":[{"name":"_member","type":"address","indexed":false,"internalType":"address"},{"name":"_strategy","type":"address","indexed":false,"internalType":"address"}],"anonymous":false},{"type":"event","name":"MemberKicked","inputs":[{"name":"_member","type":"address","indexed":false,"internalType":"address"},{"name":"_transferAddress","type":"address","indexed":false,"internalType":"address"},{"name":"_amountReturned","type":"uint256","indexed":false,"internalType":"uint256"}],"anonymous":false},{"type":"event","name":"MemberPowerDecreased","inputs":[{"name":"_member","type":"address","indexed":false,"internalType":"address"},{"name":"_unstakedAmount","type":"uint256","indexed":false,"internalType":"uint256"}],"anonymous":false},{"type":"event","name":"MemberPowerIncreased","inputs":[{"name":"_member","type":"address","indexed":false,"internalType":"address"},{"name":"_stakedAmount","type":"uint256","indexed":false,"internalType":"uint256"}],"anonymous":false},{"type":"event","name":"MemberRegistered","inputs":[{"name":"_member","type":"address","indexed":false,"internalType":"address"},{"name":"_amountStaked","type":"uint256","indexed":false,"internalType":"uint256"}],"anonymous":false},{"type":"event","name":"MemberRegisteredWithCovenant","inputs":[{"name":"_member","type":"address","indexed":false,"internalType":"address"},{"name":"_amountStaked","type":"uint256","indexed":false,"internalType":"uint256"},{"name":"_covenantSig","type":"string","indexed":false,"internalType":"string"}],"anonymous":false},{"type":"event","name":"MemberUnregistered","inputs":[{"name":"_member","type":"address","indexed":false,"internalType":"address"},{"name":"_amountReturned","type":"uint256","indexed":false,"internalType":"uint256"}],"anonymous":false},{"type":"event","name":"OwnershipTransferred","inputs":[{"name":"previousOwner","type":"address","indexed":true,"internalType":"address"},{"name":"newOwner","type":"address","indexed":true,"internalType":"address"}],"anonymous":false},{"type":"event","name":"PoolCreated","inputs":[{"name":"_poolId","type":"uint256","indexed":false,"internalType":"uint256"},{"name":"_strategy","type":"address","indexed":false,"internalType":"address"},{"name":"_community","type":"address","indexed":false,"internalType":"address"},{"name":"_token","type":"address","indexed":false,"internalType":"address"},{"name":"_metadata","type":"tuple","indexed":false,"internalType":"struct Metadata","components":[{"name":"protocol","type":"uint256","internalType":"uint256"},{"name":"pointer","type":"string","internalType":"string"}]}],"anonymous":false},{"type":"event","name":"PoolRejected","inputs":[{"name":"_strategy","type":"address","indexed":false,"internalType":"address"}],"anonymous":false},{"type":"event","name":"RegistryInitialized","inputs":[{"name":"_profileId","type":"bytes32","indexed":false,"internalType":"bytes32"},{"name":"_communityName","type":"string","indexed":false,"internalType":"string"},{"name":"_metadata","type":"tuple","indexed":false,"internalType":"struct Metadata","components":[{"name":"protocol","type":"uint256","internalType":"uint256"},{"name":"pointer","type":"string","internalType":"string"}]}],"anonymous":false},{"type":"event","name":"RoleAdminChanged","inputs":[{"name":"role","type":"bytes32","indexed":true,"internalType":"bytes32"},{"name":"previousAdminRole","type":"bytes32","indexed":true,"internalType":"bytes32"},{"name":"newAdminRole","type":"bytes32","indexed":true,"internalType":"bytes32"}],"anonymous":false},{"type":"event","name":"RoleGranted","inputs":[{"name":"role","type":"bytes32","indexed":true,"internalType":"bytes32"},{"name":"account","type":"address","indexed":true,"internalType":"address"},{"name":"sender","type":"address","indexed":true,"internalType":"address"}],"anonymous":false},{"type":"event","name":"RoleRevoked","inputs":[{"name":"role","type":"bytes32","indexed":true,"internalType":"bytes32"},{"name":"account","type":"address","indexed":true,"internalType":"address"},{"name":"sender","type":"address","indexed":true,"internalType":"address"}],"anonymous":false},{"type":"event","name":"StrategyAdded","inputs":[{"name":"_strategy","type":"address","indexed":false,"internalType":"address"}],"anonymous":false},{"type":"event","name":"StrategyRemoved","inputs":[{"name":"_strategy","type":"address","indexed":false,"internalType":"address"}],"anonymous":false},{"type":"event","name":"Upgraded","inputs":[{"name":"implementation","type":"address","indexed":true,"internalType":"address"}],"anonymous":false},{"type":"error","name":"AllowlistTooBig","inputs":[{"name":"size","type":"uint256","internalType":"uint256"}]},{"type":"error","name":"CallerNotOwner","inputs":[{"name":"_caller","type":"address","internalType":"address"},{"name":"_owner","type":"address","internalType":"address"}]},{"type":"error","name":"CantDecreaseMoreThanPower","inputs":[{"name":"_decreaseAmount","type":"uint256","internalType":"uint256"},{"name":"_currentPower","type":"uint256","internalType":"uint256"}]},{"type":"error","name":"DecreaseUnderMinimum","inputs":[]},{"type":"error","name":"KickNotEnabled","inputs":[]},{"type":"error","name":"NewFeeGreaterThanMax","inputs":[]},{"type":"error","name":"OnlyEmptyCommunity","inputs":[{"name":"totalMembers","type":"uint256","internalType":"uint256"}]},{"type":"error","name":"PointsDeactivated","inputs":[]},{"type":"error","name":"SenderNotNewOwner","inputs":[]},{"type":"error","name":"SenderNotStrategy","inputs":[]},{"type":"error","name":"StrategyDisabled","inputs":[]},{"type":"error","name":"StrategyExists","inputs":[]},{"type":"error","name":"UserAlreadyActivated","inputs":[]},{"type":"error","name":"UserAlreadyDeactivated","inputs":[]},{"type":"error","name":"UserNotInCouncil","inputs":[{"name":"_user","type":"address","internalType":"address"}]},{"type":"error","name":"UserNotInRegistry","inputs":[]},{"type":"error","name":"ValueCannotBeZero","inputs":[]}],"bytecode":{"object":"0x60a06040523060805234801561001457600080fd5b506080516161546200004d60003960008181611c9301528181611cd60152818161204101528181612084015261210501526161546000f3fe608060405260043610620003745760003560e01c806301ffc9a71462000379578063025313a214620003b35780630331383c14620003da57806308386eba14620003fb5780630b03bb9a14620004135780630d12bbdb146200043a5780630d4a8b49146200045f578063175188e814620004845780631b71f0e414620004a95780631f787d2814620004ce578063223e547914620004e957806322bcf999146200050e578063248a9ca3146200053357806328c309e914620005585780632b38c69c14620005705780632c611c4a14620005955780632f2ff15d14620005d357806331f61bca14620005f857806333960459146200061d57806334196355146200063557806336568abe146200065a5780633659cfe6146200067f578063397e254314620006a45780633a871fe114620006c9578063411481e614620006fe578063477a5cc01462000723578063499ac57f14620007635780634f1ef28614620007a657806352d1902d14620007bd578063559de05d14620007d55780635c94e4d214620007fa5780635ecf71c5146200081d57806365e3864c14620008425780636871eb4d146200087f57806368decabb14620008a45780636c53db9a14620008c7578063715018a614620008ea57806373265c371462000902578063733a2d1f146200092757806376e92559146200094c57806377122d5614620009655780637817ee4f146200098857806378a0b8a914620009d35780637b10399914620009eb57806382d6a1e71462000a0e57806388cfe6841462000a335780638961be6b1462000aa95780638da5cb5b1462000ac157806391d148541462000ad95780639a1f46e21462000afe578063a0cf0aea1462000b23578063a217fddf1462000b4d578063a230c5241462000b64578063b0d3713a1462000b89578063b3f006741462000bae578063b5058c501462000bd5578063b64e39af1462000bed578063b99b43701462000c14578063bc063e1a1462000c2c578063c4d66de81462000c44578063c6d572ae1462000c69578063cd564dae1462000c81578063d547741f1462000ca6578063d6d8428d1462000ccb578063d7050f071462000cee578063db61d65c1462000d06578063ebd7dc521462000d29578063f2d774e71462000d4e578063f2fde38b1462000d73578063f86c5f891462000d98578063fb1f69171462000dbb578063ffa1ad741462000de0575b600080fd5b3480156200038657600080fd5b506200039e6200039836600462004607565b62000e11565b60405190151581526020015b60405180910390f35b348015620003c057600080fd5b50620003cb62000e49565b604051620003aa919062004640565b348015620003e757600080fd5b5060fb545b604051908152602001620003aa565b3480156200040857600080fd5b50620003ec60fe5481565b3480156200042057600080fd5b50620004386200043236600462004670565b62000e63565b005b3480156200044757600080fd5b50620004386200045936600462004690565b62000ea6565b3480156200046c57600080fd5b50620004386200047e366004620046cd565b62000f16565b3480156200049157600080fd5b5062000438620004a33660046200470b565b62001296565b348015620004b657600080fd5b5062000438620004c83660046200470b565b620012ae565b348015620004db57600080fd5b5060ff80546200039e911681565b348015620004f657600080fd5b5062000438620005083660046200470b565b620012db565b3480156200051b57600080fd5b50620004386200052d366004620046cd565b620012f0565b3480156200054057600080fd5b50620003ec6200055236600462004690565b620013df565b3480156200056557600080fd5b50620003ec620013f4565b3480156200057d57600080fd5b50620003cb6200058f3660046200472b565b620014ef565b348015620005a257600080fd5b50620003ec620005b43660046200470b565b6001600160a01b0316600090815261010c602052604090206001015490565b348015620005e057600080fd5b5062000438620005f23660046200475a565b62001529565b3480156200060557600080fd5b50620004386200061736600462004690565b62001550565b3480156200062a57600080fd5b50620003ec60fd5481565b3480156200064257600080fd5b50620004386200065436600462004973565b6200159a565b3480156200066757600080fd5b5062000438620006793660046200475a565b62001c0b565b3480156200068c57600080fd5b50620004386200069e3660046200470b565b62001c89565b348015620006b157600080fd5b5062000438620006c33660046200470b565b62001d5a565b348015620006d657600080fd5b506200039e620006e83660046200470b565b61010a6020526000908152604090205460ff1681565b3480156200070b57600080fd5b50620004386200071d3660046200470b565b62001dbc565b3480156200073057600080fd5b506200039e62000742366004620046cd565b61010e60209081526000928352604080842090915290825290205460ff1681565b3480156200077057600080fd5b50620007886200078236600462004dea565b62001df7565b604080519283526001600160a01b03909116602083015201620003aa565b62000438620007b736600462004e68565b62002037565b348015620007ca57600080fd5b50620003ec620020f8565b348015620007e257600080fd5b5062000438620007f436600462004690565b620021a9565b3480156200080757600080fd5b5061010254620003cb906001600160a01b031681565b3480156200082a57600080fd5b50620004386200083c36600462004690565b620023c4565b3480156200084f57600080fd5b50620003ec62000861366004620046cd565b61010b60209081526000928352604080842090915290825290205481565b3480156200088c57600080fd5b50620004386200089e366004620046cd565b62002689565b348015620008b157600080fd5b5061010354620003cb906001600160a01b031681565b348015620008d457600080fd5b5061010654620003cb906001600160a01b031681565b348015620008f757600080fd5b506200043862002800565b3480156200090f57600080fd5b50620004386200092136600462004690565b62002818565b3480156200093457600080fd5b50620003ec600080516020620060c183398151915281565b3480156200095957600080fd5b50620003ec6101105481565b3480156200097257600080fd5b5061010154620003cb906001600160a01b031681565b3480156200099557600080fd5b50620003ec620009a7366004620046cd565b6001600160a01b03918216600090815261010b6020908152604080832093909416825291909152205490565b348015620009e057600080fd5b50620003ec60fb5481565b348015620009f857600080fd5b5061010454620003cb906001600160a01b031681565b34801562000a1b57600080fd5b506200043862000a2d36600462004690565b620028a9565b34801562000a4057600080fd5b5062000a8162000a523660046200470b565b61010c602052600090815260409020805460018201546002909201546001600160a01b03909116919060ff1683565b604080516001600160a01b0390941684526020840192909252151590820152606001620003aa565b34801562000ab657600080fd5b50620003ec60fc5481565b34801562000ace57600080fd5b50620003cb6200293a565b34801562000ae657600080fd5b506200039e62000af83660046200475a565b620029dc565b34801562000b0b57600080fd5b506200043862000b1d36600462004ed2565b62002a07565b34801562000b3057600080fd5b50620003cb73eeeeeeeeeeeeeeeeeeeeeeeeeeeeeeeeeeeeeeee81565b34801562000b5a57600080fd5b50620003ec600081565b34801562000b7157600080fd5b506200039e62000b833660046200470b565b62002c75565b34801562000b9657600080fd5b506200043862000ba83660046200470b565b62002c97565b34801562000bbb57600080fd5b5060ff54620003cb9061010090046001600160a01b031681565b34801562000be257600080fd5b506200043862002cc4565b34801562000bfa57600080fd5b5062000c0562002da8565b604051620003aa919062004f5e565b34801562000c2157600080fd5b506200043862002e3f565b34801562000c3957600080fd5b50620003ec62002f6e565b34801562000c5157600080fd5b506200043862000c633660046200470b565b62002f80565b34801562000c7657600080fd5b5062000c0562002fb5565b34801562000c8e57600080fd5b506200078862000ca036600462004f73565b62002fc5565b34801562000cb357600080fd5b506200043862000cc53660046200475a565b620030ef565b34801562000cd857600080fd5b5061010754620003cb906001600160a01b031681565b34801562000cfb57600080fd5b50620003ec61271081565b34801562000d1357600080fd5b5061010554620003cb906001600160a01b031681565b34801562000d3657600080fd5b506200039e62000d483660046200470b565b62003111565b34801562000d5b57600080fd5b506200043862000d6d36600462005006565b6200312e565b34801562000d8057600080fd5b506200043862000d923660046200470b565b620033cf565b34801562000da557600080fd5b5061010054620003cb906001600160a01b031681565b34801562000dc857600080fd5b506200043862000dda3660046200470b565b62003440565b34801562000ded57600080fd5b5062000c05604051806040016040528060038152602001620302e360ec1b81525081565b60006001600160e01b03198216637965db0b60e01b148062000e4357506301ffc9a760e01b6001600160e01b03198316145b92915050565b600062000e5e6033546001600160a01b031690565b905090565b62000e6d620034a9565b60405181151581527f886a0d3c8ef17c1d6de13b8581d5465743d7ebf0f69164667b690350cd1ee688906020015b60405180910390a150565b62000eb0620034a9565b62000ebf612710600a62005104565b81111562000ee05760405163fe925f7d60e01b815260040160405180910390fd5b60fc8190556040518181527f611668bfcf654a99c33cdb66c29ec37a5aae5c1287d2d9715a24e18cb4d806d69060200162000e9b565b62000f20620034e6565b62000f2b8262003541565b62000f368162001dbc565b62000f4233826200356a565b6001600160a01b03808316600090815261010e602090815260408083209385168352929052205460ff161562000f8b57604051636adcde4b60e11b815260040160405180910390fd5b6001600160a01b03808316600090815261010c602090815260409182902082516060810184528154909416845260018101549184018290526002015460ff1615159183019190915260fb546003846001600160a01b031663c32921716040518163ffffffff1660e01b8152600401602060405180830381865afa15801562001017573d6000803e3d6000fd5b505050506040513d601f19601f820116820180604052508101906200103d919062005134565b60038111156200105157620010516200511e565b03620010d65760405163782aadff60e01b81526001600160a01b0385169063782aadff906200108890889060009060040162005154565b6020604051808303816000875af1158015620010a8573d6000803e3d6000fd5b505050506040513d601f19601f82011682018060405250810190620010ce91906200516d565b9050620011d0565b6000846001600160a01b031663c32921716040518163ffffffff1660e01b8152600401602060405180830381865afa15801562001117573d6000803e3d6000fd5b505050506040513d601f19601f820116820180604052508101906200113d919062005134565b60038111156200115157620011516200511e565b14620011d05760405163782aadff60e01b81526001600160a01b0385169063782aadff9062001187908890869060040162005154565b6020604051808303816000875af1158015620011a7573d6000803e3d6000fd5b505050506040513d601f19601f82011682018060405250810190620011cd91906200516d565b90505b6001600160a01b03808616600081815261010b6020908152604080832094891680845294825280832086905583835261010e82528083208584528252808320805460ff1916600190811790915593835261010d8252808320805494850181558352912090910180546001600160a01b031916909217909155517ff56fa57e85e169a12200d12d9921ec069b52e688f6d309d9dab7bceff54614ec906200127c9087908790859062005187565b60405180910390a1505050620012926001606555565b5050565b620012a0620034a9565b620012ab81620035a4565b50565b620012b8620035f7565b61010280546001600160a01b0319166001600160a01b0392909216919091179055565b620012e5620034a9565b620012ab816200365a565b620012fb8262003541565b6200130733826200356a565b6001600160a01b03808316600090815261010e602090815260408083209385168352929052205460ff166200134f57604051633048da7760e21b815260040160405180910390fd5b6001600160a01b03808316600081815261010e60209081526040808320948616808452948252808320805460ff1916905592825261010b815282822093825292909252812055620013a18282620037c3565b7ede109bef4619f7e2cf00c8e5a50ca55f8deb44f87087eed414a91dbf8d1d1b8282604051620013d3929190620051ab565b60405180910390a15050565b600090815260c9602052604090206001015490565b60008062001406612710606462005104565b60fc5460fb5462001418919062005104565b620014249190620051c5565b9050600062001437612710606462005104565b610100546040516302a64b8360e21b81526001600160a01b0390911690630a992e0c906200146a90309060040162004640565b602060405180830381865afa15801562001488573d6000803e3d6000fd5b505050506040513d601f19601f82011682018060405250810190620014ae91906200516d565b60fb54620014bd919062005104565b620014c99190620051c5565b9050808260fb54620014dc9190620051e8565b620014e89190620051e8565b9250505090565b61010d60205281600052604060002081815481106200150d57600080fd5b6000918252602090912001546001600160a01b03169150829050565b6200153482620013df565b6200153f81620038f9565b6200154b838362003905565b505050565b6200155a620034a9565b620015646200398f565b60fb8190556040518181527f5e2d447f427e49fd08832fd025a56589500352417199aa65728feaf05123e8569060200162000e9b565b600054610100900460ff1615808015620015bb5750600054600160ff909116105b80620015e05750620015cd30620039ba565b158015620015e0575060005460ff166001145b620016495760405162461bcd60e51b815260206004820152602e60248201527f496e697469616c697a61626c653a20636f6e747261637420697320616c72656160448201526d191e481a5b9a5d1a585b1a5e995960921b60648201526084015b60405180910390fd5b6000805460ff1916600117905580156200166d576000805461ff0019166101001790555b620016788262002f80565b62001682620039c9565b6200168c620039fd565b620016a8600080516020620060c1833981519152600062003a27565b845161010780546001600160a01b039283166001600160a01b03199182161790915560208701516101058054919093169116179055604085015160000362001703576040516363868c5560e11b815260040160405180910390fd5b604085015160fb55606085015160fc5561014085015160ff805460ff1916911515919091179055610120850151610108906200174090826200528c565b50610160850151610109906200175790826200528c565b5060a085015161010080546001600160a01b03199081166001600160a01b0393841617825560c088015160ff8054610100600160a81b0319169185168402919091179055908701516101068054909216928116929092179055600061011055620017d290600080516020620060c18339815191529062003905565b61010760009054906101000a90046001600160a01b03166001600160a01b0316635ab1bd536040518163ffffffff1660e01b8152600401602060405180830381865afa15801562001827573d6000803e3d6000fd5b505050506040513d601f19601f820116820180604052508101906200184d919062005358565b61010480546001600160a01b0319166001600160a01b0392831617905561010654606091163b600003620018d9576040805160038082526080820190925290602082016060803683370190505090503381600081518110620018b357620018b362005378565b60200260200101906001600160a01b031690816001600160a01b03168152505062001a16565b610106546040805163a0e67e2b60e01b815290516000926001600160a01b03169163a0e67e2b91600480830192869291908290030181865afa15801562001924573d6000803e3d6000fd5b505050506040513d6000823e601f3d908101601f191682016040526200194e91908101906200538e565b905080516002620019609190620051e8565b6001600160401b038111156200197a576200197a62004782565b604051908082528060200260200182016040528015620019a4578160200160208202803683370190505b50915060005b815181101562001a1357818181518110620019c957620019c962005378565b6020026020010151838281518110620019e657620019e662005378565b6001600160a01b03909216602092830291909101909101528062001a0a8162005427565b915050620019aa565b50505b6101065481516001600160a01b0390911690829062001a389060019062005443565b8151811062001a4b5762001a4b62005378565b60200260200101906001600160a01b031690816001600160a01b03168152505030816002835162001a7d919062005443565b8151811062001a905762001a9062005378565b6001600160a01b03928316602091820292909201015261010454608088015160e0890151604051633a92f65f60e01b81529290931692633a92f65f9262001ae39291610108913090889060040162005545565b6020604051808303816000875af115801562001b03573d6000803e3d6000fd5b505050506040513d601f19601f8201168201806040525081019062001b2991906200516d565b60fe55805162001b429061010f9060208401906200455d565b5061010280546001600160a01b038088166001600160a01b03199283161790925561010180549287169290911691909117905560fe5460e08701516040517f2f2ffcb06f8a1d35e2716f6b43ef2c19bfa76467d8f66964ae12c2583ed032059262001bb49290916101089190620055a5565b60405180910390a150801562001c04576000805461ff0019169055604051600181527f7f26b83ff96e1f2b6a682f133852f6798a09c465da95921460cefb38474024989060200160405180910390a15b5050505050565b6001600160a01b038116331462001c7d5760405162461bcd60e51b815260206004820152602f60248201527f416363657373436f6e74726f6c3a2063616e206f6e6c792072656e6f756e636560448201526e103937b632b9903337b91039b2b63360891b606482015260840162001640565b62001292828262003a7c565b6001600160a01b037f000000000000000000000000000000000000000000000000000000000000000016300362001cd45760405162461bcd60e51b81526004016200164090620055d4565b7f00000000000000000000000000000000000000000000000000000000000000006001600160a01b031662001d0862003ae6565b6001600160a01b03161462001d315760405162461bcd60e51b815260040162001640906200560f565b62001d3c8162003b03565b60408051600080825260208201909252620012ab9183919062003b45565b62001d64620034a9565b61010380546001600160a01b0319166001600160a01b03838116918217909255610106546040517f83eac9fdaff0ac1017624b7eddeb9782e3d707cd894073cb7e8301a41c6e5cf89362000e9b9392169190620051ab565b6001600160a01b038116600090815261010a602052604090205460ff16620012ab576040516346c26e4b60e01b815260040160405180910390fd5b610102546101075461010154600092839283926001600160a01b039283169263184b955960e01b928116911662001e2d62000e49565b6040516001600160a01b0393841660248201529183166044830152909116606482015260840160408051601f198184030181529181526020820180516001600160e01b03166001600160e01b031990941693909317909252905162001e9290620045c7565b62001e9f9291906200564a565b604051809103906000f08015801562001ebc573d6000803e3d6000fd5b50905062001ecd8187878762002fc5565b60c087015191945092506001600160a01b031662001f9e5761271085610100015151111562001f1a578461010001515160405163107b111560e31b81526004016200164091815260200190565b60008360405160200162001f2f919062005670565b60405160208183030381529060405280519060200120905060005b8661010001515181101562001f9b5762001f8682886101000151838151811062001f785762001f7862005378565b602002602001015162003905565b8062001f928162005427565b91505062001f4a565b50505b62001ffa8360405160200162001fb5919062005670565b604051602081830303815290604052805190602001208460405160200162001fde91906200568d565b6040516020818303038152906040528051906020012062003a27565b6200202e836040516020016200201191906200568d565b604051602081830303815290604052805190602001208362003905565b50935093915050565b6001600160a01b037f0000000000000000000000000000000000000000000000000000000000000000163003620020825760405162461bcd60e51b81526004016200164090620055d4565b7f00000000000000000000000000000000000000000000000000000000000000006001600160a01b0316620020b662003ae6565b6001600160a01b031614620020df5760405162461bcd60e51b815260040162001640906200560f565b620020ea8262003b03565b620012928282600162003b45565b6000306001600160a01b037f00000000000000000000000000000000000000000000000000000000000000001614620021955760405162461bcd60e51b815260206004820152603860248201527f555550535570677261646561626c653a206d757374206e6f742062652063616c6044820152771b1959081d1a1c9bdd59da0819195b1959d85d1958d85b1b60421b606482015260840162001640565b506000805160206200610183398151915290565b620021b3620034e6565b620021bd62003cbd565b336000805b6001600160a01b038316600090815261010d60205260409020548110156200232c576001600160a01b038316600090815261010d6020526040902080548290811062002212576200221262005378565b60009182526020909120015460405163782aadff60e01b81526001600160a01b039091169063782aadff906200224f908690889060040162005154565b6020604051808303816000875af11580156200226f573d6000803e3d6000fd5b505050506040513d601f19601f820116820180604052508101906200229591906200516d565b9150811562002317576001600160a01b038316600090815261010b6020908152604080832061010d909252822080548593919085908110620022db57620022db62005378565b60009182526020808320909101546001600160a01b031683528201929092526040018120805490919062002311908490620051e8565b90915550505b80620023238162005427565b915050620021c2565b506101055462002348906001600160a01b031683308662003ce6565b6001600160a01b038216600090815261010c60205260408120600101805485929062002376908490620051e8565b90915550506040517f576605f9bfe8911e7508bed3763c7c5c8eb3b86e8b360b90a4bc6abe1104cb7f90620023af908490869062005154565b60405180910390a15050620012ab6001606555565b620023ce620034e6565b620023d862003cbd565b33600081815261010d6020908152604080832060fb5461010c90935290832060010154909291906200240c90869062005443565b10156200242c57604051634e23e81760e11b815260040160405180910390fd5b6101055462002446906001600160a01b0316848662003d42565b60005b82548110156200260b5760008382815481106200246a576200246a62005378565b600091825260209091200154604051632ed04b2b60e01b81526001600160a01b0390911691508190632ed04b2b90620024aa9088908a9060040162005154565b6020604051808303816000875af1158015620024ca573d6000803e3d6000fd5b505050506040513d601f19601f82011682018060405250810190620024f091906200516d565b9250600061010b6000876001600160a01b03166001600160a01b03168152602001908152602001600020600086858154811062002531576200253162005378565b60009182526020808320909101546001600160a01b0316835282019290925260400190205490508084111562002585576040516311423e6360e31b8152600481018590526024810182905260440162001640565b6001600160a01b038616600090815261010b602052604081208654869290889087908110620025b857620025b862005378565b60009182526020808320909101546001600160a01b0316835282019290925260400181208054909190620025ee90849062005443565b909155505050508080620026029062005427565b91505062002449565b506001600160a01b038316600090815261010c6020526040812060010180548692906200263a90849062005443565b90915550506040517f6ee2c70b2d6b89ae808a2313aab43e925c06624271419cd665d85cfa1ae04ff89062002673908590879062005154565b60405180910390a1505050620012ab6001606555565b62002693620034e6565b6200269d620034a9565b60ff805416620026c0576040516365b1ee3960e11b815260040160405180910390fd5b620026cb8262002c75565b620026e957604051636a5cfb6d60e01b815260040160405180910390fd5b6001600160a01b03808316600090815261010c60209081526040918290208251606081018452815490941684526001810154918401919091526002015460ff161515908201526200273a8362003d64565b6001600160a01b038316600090815261010c6020526040812080546001600160a01b031916815560018082018390556002909101805460ff191690556101108054919290916200278c90849062005443565b9091555050602081015161010554620027b3916001600160a01b0390911690849062003d42565b7fb5946f249f8744efe9d14d49a483b54a589b1362944ff6694de93456cceb96a383838360200151604051620027ec9392919062005187565b60405180910390a150620012926001606555565b6200280a620035f7565b62002816600062003e79565b565b62002822620034a9565b6101075460405163068bcd8d60e01b8152600481018390526000916001600160a01b03169063068bcd8d90602401600060405180830381865afa1580156200286e573d6000803e3d6000fd5b505050506040513d6000823e601f3d908101601f19168201604052620028989190810190620056b0565b6020015190506200129281620035a4565b620028b3620034a9565b6101075460405163068bcd8d60e01b8152600481018390526000916001600160a01b03169063068bcd8d90602401600060405180830381865afa158015620028ff573d6000803e3d6000fd5b505050506040513d6000823e601f3d908101601f19168201604052620029299190810190620056b0565b60200151905062001292816200365a565b60006200294662000e49565b6001600160a01b03163b600003620029625762000e5e62000e49565b6200296c62000e49565b6001600160a01b0316638da5cb5b6040518163ffffffff1660e01b8152600401602060405180830381865afa925050508015620029c8575060408051601f3d908101601f19168201909252620029c59181019062005358565b60015b620029d75762000e5e62000e49565b919050565b600091825260c9602090815260408084206001600160a01b0393909316845291905290205460ff1690565b62002a11620034e6565b610100546001600160a01b0316600062002a2f612710606462005104565b60fc5460fb5462002a41919062005104565b62002a4d9190620051c5565b9050600062002a60612710606462005104565b6040516302a64b8360e21b81526001600160a01b03851690630a992e0c9062002a8e90309060040162004640565b602060405180830381865afa15801562002aac573d6000803e3d6000fd5b505050506040513d601f19601f8201168201806040525081019062002ad291906200516d565b60fb5462002ae1919062005104565b62002aed9190620051c5565b905062002afa3362002c75565b62002c675733600081815261010c6020526040902060028101805460ff1916600190811790915560fb54910181905562002b6291903090849062002b40908790620051e8565b62002b4c9190620051e8565b610105546001600160a01b031692919062003ce6565b811562002b8f5760ff546101055462002b8f916001600160a01b0391821691610100909104168462003d42565b801562002c145762002c14836001600160a01b031663987435be6040518163ffffffff1660e01b8152600401602060405180830381865afa15801562002bd9573d6000803e3d6000fd5b505050506040513d601f19601f8201168201806040525081019062002bff919062005358565b610105546001600160a01b0316908362003d42565b6001610110600082825462002c2a9190620051e8565b909155505060fb546040517f0bd09b1e448ffe881e884ac37014bf3e0274007308056b6469b50fa485542abf9162002673913391908890620057e6565b505050620012ab6001606555565b6001600160a01b0316600090815261010c602052604090206002015460ff1690565b62002ca1620035f7565b61010180546001600160a01b0319166001600160a01b0392909216919091179055565b610103546001600160a01b0316331462002cf1576040516375e686b760e11b815260040160405180910390fd5b6101035462002d1a90600080516020620060c1833981519152906001600160a01b031662003905565b6101065462002d4390600080516020620060c1833981519152906001600160a01b031662003a7c565b610103805461010680546001600160a01b0383166001600160a01b031991821681179092559091169091556040517ffea29da7321ca6d0ee0a7359009bb9d4a57035aea0ef6cb4d062341f4a9615199162002d9e9162004640565b60405180910390a1565b610109805462002db890620051fe565b80601f016020809104026020016040519081016040528092919081815260200182805462002de690620051fe565b801562002e375780601f1062002e0b5761010080835404028352916020019162002e37565b820191906000526020600020905b81548152906001019060200180831162002e1957829003601f168201915b505050505081565b62002e49620034e6565b62002e5362003cbd565b3362002e5f8162003d64565b6001600160a01b03808216600081815261010c602090815260408083208151606081018352815496871681526001820180548286015260028301805460ff81161515848701529787526001600160a01b03199098169092559084905560ff1990941690945561010d9052918220909162002eda9190620045d5565b610110541562002f00576001610110600082825462002efa919062005443565b90915550505b60208101516101055462002f22916001600160a01b0390911690849062003d42565b7fa13f4668aacb68c4e9eed8e3f6e1cbec3eca776896ec46b5eabcc3983fc8f5f482826020015160405162002f5992919062005154565b60405180910390a15050620028166001606555565b62002f7d612710600a62005104565b81565b600054610100900460ff1662002faa5760405162461bcd60e51b8152600401620016409062005818565b620012ab8162003e79565b610108805462002db890620051fe565b60008073eeeeeeeeeeeeeeeeeeeeeeeeeeeeeeeeeeeeeeee6001600160a01b0386161562002ff05750845b6101075460fe546040518994506001600160a01b039092169163e1007d4a9190859062003022908a906020016200588d565b6040516020818303038152906040528560008a61010f6040518863ffffffff1660e01b81526004016200305c9796959493929190620059c6565b6020604051808303816000875af11580156200307c573d6000803e3d6000fd5b505050506040513d601f19601f82011682018060405250810190620030a291906200516d565b92507f778cac0ae0b66477341553a4a89398c61ccf448313d3354ad0ca85a5a825d2838383308988604051620030dd95949392919062005a62565b60405180910390a15094509492505050565b620030fa82620013df565b6200310581620038f9565b6200154b838362003a7c565b600062000e43600080516020620060c183398151915283620029dc565b62003138620034a9565b60fb5481608001511415806200315b575060ff805460a083015115159116151514155b806200318b575061010960405162003174919062005a9e565b60405180910390208160c001518051906020012014155b1562003296576200319b6200398f565b60fb54816080015114620031b857620031b8816080015162001550565b60ff805460a083015115159116151514620032165760a081015160ff805460ff191691151591821790556040519081527f4ca826489011b9a44719ccfa206813b072bb58604af41f245a6a1a6d913588759060200160405180910390a15b61010960405162003228919062005a9e565b60405180910390208160c001518051906020012014620032965760c0810151610109906200325790826200528c565b507f8fd46764d9fde733a671bd3aa6710da0668b1c4eb78d33f42e104553ea4bc76e8160c001516040516200328d919062004f5e565b60405180910390a15b610108604051620032a8919062005a9e565b6040518091039020816060015180519060200120146200331657606081015161010890620032d790826200528c565b507ff67fb6c95f41f58a276869ca2608214f0a6aab1c9ffe445affaa58680fddd49781606001516040516200330d919062004f5e565b60405180910390a15b60fc54816040015114620033335762003333816040015162000ea6565b60ff5460208201516001600160a01b039081166101009092041614620033b157602081015160ff8054610100600160a81b0319166101006001600160a01b038416021790556040517f647672599d3468abcfa241a13c9e3d34383caadb5cc80fb67c3cdfcd5f78605991620033a89162004640565b60405180910390a15b80516001600160a01b031615620012ab578051620012ab9062001d5a565b620033d9620035f7565b6001600160a01b03811662002faa5760405162461bcd60e51b815260206004820152602660248201527f4f776e61626c653a206e6577206f776e657220697320746865207a65726f206160448201526564647265737360d01b606482015260840162001640565b6200344a620034a9565b6001600160a01b038116600090815261010a602052604090205460ff161562003478576200347881620035a4565b7f6723d9f32d040ca8ddd4dabf6f03ad485e63fc3fd625ac1fa1c557de6719314f8160405162000e9b919062004640565b620034c4600080516020620060c183398151915233620029dc565b62002816573360405163fc4be72f60e01b815260040162001640919062004640565b6002606554036200353a5760405162461bcd60e51b815260206004820152601f60248201527f5265656e7472616e637947756172643a207265656e7472616e742063616c6c00604482015260640162001640565b6002606555565b6200354c8162002c75565b620012ab57604051636a5cfb6d60e01b815260040160405180910390fd5b806001600160a01b0316826001600160a01b031614620012925760405163bbe7961160e01b815260040160405180910390fd5b6001606555565b6001600160a01b038116600090815261010a602052604090819020805460ff19169055517f09a1db4b80c32706328728508c941a6b954f31eb5affd32f236c1fd405f8fea49062000e9b90839062004640565b33620036026200293a565b6001600160a01b031614620028165760405162461bcd60e51b815260206004820181905260248201527f4f776e61626c653a2063616c6c6572206973206e6f7420746865206f776e6572604482015260640162001640565b6001600160a01b038116600090815261010a602052604090205460ff161562003696576040516325a2934b60e21b815260040160405180910390fd5b6001600160a01b038116600081815261010a60209081526040808320805460ff19166001179055805163b6c61f3160e01b8152905192939263b6c61f31926004808401939192918290030181865afa158015620036f7573d6000803e3d6000fd5b505050506040513d601f19601f820116820180604052508101906200371d919062005358565b90506001600160a01b0381161562003792576040516306c0752d60e51b81526001600160a01b0382169063d80ea5a0906200375d90859060040162004640565b600060405180830381600087803b1580156200377857600080fd5b505af11580156200378d573d6000803e3d6000fd5b505050505b7f3f008fd510eae7a9e7bee13513d7b83bef8003d488b5a3d0b0da4de71d6846f182604051620013d3919062004640565b6001600160a01b038216600090815261010d60205260408120905b8154811015620038f357826001600160a01b031682828154811062003807576200380762005378565b6000918252602090912001546001600160a01b031603620038de5781548290620038349060019062005443565b8154811062003847576200384762005378565b9060005260206000200160009054906101000a90046001600160a01b03168282815481106200387a576200387a62005378565b9060005260206000200160006101000a8154816001600160a01b0302191690836001600160a01b0316021790555081805480620038bb57620038bb62005b1c565b600082815260209020810160001990810180546001600160a01b03191690550190555b80620038ea8162005427565b915050620037de565b50505050565b620012ab813362003ecb565b620039118282620029dc565b6200129257600082815260c9602090815260408083206001600160a01b03851684529091529020805460ff191660011790556200394b3390565b6001600160a01b0316816001600160a01b0316837f2f8788117e7eff1d82e926ec794901d17c78024a50270940304540a733656f0d60405160405180910390a45050565b6101105415620028165761011054604051637d95539f60e11b81526004016200164091815260200190565b6001600160a01b03163b151590565b600054610100900460ff16620039f35760405162461bcd60e51b8152600401620016409062005818565b6200281662003f2f565b600054610100900460ff16620028165760405162461bcd60e51b8152600401620016409062005818565b600062003a3483620013df565b600084815260c96020526040808220600101859055519192508391839186917fbd79b86ffe0ab8e8776151514217cd7cacd52c909f66475c3af44e129f0b00ff9190a4505050565b62003a888282620029dc565b156200129257600082815260c9602090815260408083206001600160a01b0385168085529252808320805460ff1916905551339285917ff6391f5c32d9c69d2a47ea670b442974b53935d1edc7fd64eb21e047a839171b9190a45050565b60008051602062006101833981519152546001600160a01b031690565b3362003b0e6200293a565b6001600160a01b031614620012ab573362003b286200293a565b60405163163678e960e01b815260040162001640929190620051ab565b7f4910fdfa16fed3260ed0e7147f7cc6da11a60208b5b9406d12a635614ffd91435460ff161562003b7b576200154b8362003f59565b826001600160a01b03166352d1902d6040518163ffffffff1660e01b8152600401602060405180830381865afa92505050801562003bd8575060408051601f3d908101601f1916820190925262003bd5918101906200516d565b60015b62003c3d5760405162461bcd60e51b815260206004820152602e60248201527f45524331393637557067726164653a206e657720696d706c656d656e7461746960448201526d6f6e206973206e6f74205555505360901b606482015260840162001640565b60008051602062006101833981519152811462003caf5760405162461bcd60e51b815260206004820152602960248201527f45524331393637557067726164653a20756e737570706f727465642070726f786044820152681a58589b195555525160ba1b606482015260840162001640565b506200154b83838362003ff8565b62003cc83362002c75565b6200281657604051636a5cfb6d60e01b815260040160405180910390fd5b620038f3846323b872dd60e01b85858560405160240162003d0a9392919062005187565b60408051601f198184030181529190526020810180516001600160e01b03166001600160e01b03199093169290921790915262004023565b6200154b8363a9059cbb60e01b848460405160240162003d0a92919062005154565b6001600160a01b038116600090815261010d602090815260408083208054825181850281018501909352808352919290919083018282801562003dd157602002820191906000526020600020905b81546001600160a01b0316815260019091019060200180831162003db2575b5050505050905060005b81518110156200154b5781818151811062003dfa5762003dfa62005378565b60200260200101516001600160a01b0316636453d9c4846040518263ffffffff1660e01b815260040162003e2f919062004640565b600060405180830381600087803b15801562003e4a57600080fd5b505af115801562003e5f573d6000803e3d6000fd5b50505050808062003e709062005427565b91505062003ddb565b603380546001600160a01b038381166001600160a01b0319831681179093556040519116919082907f8be0079c531659141344cd1fd0a4f28419497f9722a3daafe3b4186f6b6457e090600090a35050565b62003ed78282620029dc565b620012925762003ee781620040ff565b62003ef483602062004112565b60405160200162003f0792919062005b32565b60408051601f198184030181529082905262461bcd60e51b8252620016409160040162004f5e565b600054610100900460ff166200359d5760405162461bcd60e51b8152600401620016409062005818565b62003f6481620039ba565b62003fc85760405162461bcd60e51b815260206004820152602d60248201527f455243313936373a206e657720696d706c656d656e746174696f6e206973206e60448201526c1bdd08184818dbdb9d1c9858dd609a1b606482015260840162001640565b6000805160206200610183398151915280546001600160a01b0319166001600160a01b0392909216919091179055565b6200400383620042d2565b600082511180620040115750805b156200154b57620038f3838362004314565b60006200407a826040518060400160405280602081526020017f5361666545524332303a206c6f772d6c6576656c2063616c6c206661696c6564815250856001600160a01b03166200433c9092919063ffffffff16565b90508051600014806200409e5750808060200190518101906200409e919062005ba5565b6200154b5760405162461bcd60e51b815260206004820152602a60248201527f5361666545524332303a204552433230206f7065726174696f6e20646964206e6044820152691bdd081cdd58d8d9595960b21b606482015260840162001640565b606062000e436001600160a01b03831660145b606060006200412383600262005104565b62004130906002620051e8565b6001600160401b038111156200414a576200414a62004782565b6040519080825280601f01601f19166020018201604052801562004175576020820181803683370190505b509050600360fc1b8160008151811062004193576200419362005378565b60200101906001600160f81b031916908160001a905350600f60fb1b81600181518110620041c557620041c562005378565b60200101906001600160f81b031916908160001a9053506000620041eb84600262005104565b620041f8906001620051e8565b90505b60018111156200427a576f181899199a1a9b1b9c1cb0b131b232b360811b85600f166010811062004230576200423062005378565b1a60f81b82828151811062004249576200424962005378565b60200101906001600160f81b031916908160001a90535060049490941c93620042728162005bc5565b9050620041fb565b508315620042cb5760405162461bcd60e51b815260206004820181905260248201527f537472696e67733a20686578206c656e67746820696e73756666696369656e74604482015260640162001640565b9392505050565b620042dd8162003f59565b6040516001600160a01b038216907fbc7cd75a20ee27fd9adebab32041f755214dbc6bffa90cc0225b39da2e5c2d3b90600090a250565b6060620042cb8383604051806060016040528060278152602001620061216027913962004355565b60606200434d8484600085620043d3565b949350505050565b6060600080856001600160a01b03168560405162004374919062005bdf565b600060405180830381855af49150503d8060008114620043b1576040519150601f19603f3d011682016040523d82523d6000602084013e620043b6565b606091505b5091509150620043c986838387620044b6565b9695505050505050565b606082471015620044365760405162461bcd60e51b815260206004820152602660248201527f416464726573733a20696e73756666696369656e742062616c616e636520666f6044820152651c8818d85b1b60d21b606482015260840162001640565b600080866001600160a01b0316858760405162004454919062005bdf565b60006040518083038185875af1925050503d806000811462004493576040519150601f19603f3d011682016040523d82523d6000602084013e62004498565b606091505b5091509150620044ab87838387620044b6565b979650505050505050565b606083156200452a5782516000036200452257620044d485620039ba565b620045225760405162461bcd60e51b815260206004820152601d60248201527f416464726573733a2063616c6c20746f206e6f6e2d636f6e7472616374000000604482015260640162001640565b50816200434d565b6200434d8383815115620045415781518083602001fd5b8060405162461bcd60e51b815260040162001640919062004f5e565b828054828255906000526020600020908101928215620045b5579160200282015b82811115620045b557825182546001600160a01b0319166001600160a01b039091161782556020909201916001909101906200457e565b50620045c3929150620045f0565b5090565b6104c38062005bfe83390190565b5080546000825590600052602060002090810190620012ab91905b5b80821115620045c35760008155600101620045f1565b6000602082840312156200461a57600080fd5b81356001600160e01b031981168114620042cb57600080fd5b6001600160a01b03169052565b6001600160a01b0391909116815260200190565b8015158114620012ab57600080fd5b8035620029d78162004654565b6000602082840312156200468357600080fd5b8135620042cb8162004654565b600060208284031215620046a357600080fd5b5035919050565b6001600160a01b0381168114620012ab57600080fd5b8035620029d781620046aa565b60008060408385031215620046e157600080fd5b8235620046ee81620046aa565b915060208301356200470081620046aa565b809150509250929050565b6000602082840312156200471e57600080fd5b8135620042cb81620046aa565b600080604083850312156200473f57600080fd5b82356200474c81620046aa565b946020939093013593505050565b600080604083850312156200476e57600080fd5b8235915060208301356200470081620046aa565b634e487b7160e01b600052604160045260246000fd5b604080519081016001600160401b0381118282101715620047bd57620047bd62004782565b60405290565b60405161018081016001600160401b0381118282101715620047bd57620047bd62004782565b60405160c081016001600160401b0381118282101715620047bd57620047bd62004782565b60405161014081016001600160401b0381118282101715620047bd57620047bd62004782565b60405160e081016001600160401b0381118282101715620047bd57620047bd62004782565b604051601f8201601f191681016001600160401b038111828210171562004884576200488462004782565b604052919050565b60006001600160401b03821115620048a857620048a862004782565b50601f01601f191660200190565b6000620048cd620048c7846200488c565b62004859565b9050828152838383011115620048e257600080fd5b828260208301376000602084830101529392505050565b600082601f8301126200490b57600080fd5b620042cb83833560208501620048b6565b6000604082840312156200492f57600080fd5b6200493962004798565b82358152905060208201356001600160401b038111156200495957600080fd5b6200496784828501620048f9565b60208301525092915050565b600080600080608085870312156200498a57600080fd5b84356001600160401b0380821115620049a257600080fd5b908601906101808289031215620049b857600080fd5b620049c2620047c3565b620049cd83620046c0565b8152620049dd60208401620046c0565b602082015260408301356040820152606083013560608201526080830135608082015262004a0e60a08401620046c0565b60a082015262004a2160c08401620046c0565b60c082015260e08301358281111562004a3957600080fd5b62004a478a8286016200491c565b60e08301525061010062004a5d818501620046c0565b90820152610120838101358381111562004a7657600080fd5b62004a848b828701620048f9565b82840152505061014062004a9a81850162004663565b90820152610160838101358381111562004ab357600080fd5b62004ac18b828701620048f9565b82840152505080965050505062004adb60208601620046c0565b925062004aeb60408601620046c0565b915062004afb60608601620046c0565b905092959194509250565b60006080828403121562004b1957600080fd5b604051608081016001600160401b038111828210171562004b3e5762004b3e62004782565b8060405250809150823581526020830135602082015260408301356040820152606083013560608201525092915050565b803560038110620029d757600080fd5b60048110620012ab57600080fd5b8035620029d78162004b7f565b60006020828403121562004bad57600080fd5b604051602081016001600160401b038111828210171562004bd25762004bd262004782565b6040529135825250919050565b600060c0828403121562004bf257600080fd5b62004bfc620047e9565b9050813562004c0b81620046aa565b8152602082013562004c1d81620046aa565b8060208301525060408201356040820152606082013560608201526080820135608082015260a082013560a082015292915050565b60006001600160401b0382111562004c6e5762004c6e62004782565b5060051b60200190565b600082601f83011262004c8a57600080fd5b8135602062004c9d620048c78362004c52565b82815260059290921b8401810191818101908684111562004cbd57600080fd5b8286015b8481101562004ce557803562004cd781620046aa565b835291830191830162004cc1565b509695505050505050565b6000610240828403121562004d0457600080fd5b62004d0e6200480e565b905062004d1c838362004b06565b815262004d2c6080830162004b6f565b602082015262004d3f60a0830162004b8d565b604082015262004d538360c0840162004b9a565b606082015262004d678360e0840162004bdf565b608082015262004d7b6101a08301620046c0565b60a082015262004d8f6101c08301620046c0565b60c08201526101e082013560e08201526102008201356001600160401b0381111562004dba57600080fd5b62004dc88482850162004c78565b6101008301525062004dde6102208301620046c0565b61012082015292915050565b60008060006060848603121562004e0057600080fd5b833562004e0d81620046aa565b925060208401356001600160401b038082111562004e2a57600080fd5b62004e388783880162004cf0565b9350604086013591508082111562004e4f57600080fd5b5062004e5e868287016200491c565b9150509250925092565b6000806040838503121562004e7c57600080fd5b823562004e8981620046aa565b915060208301356001600160401b0381111562004ea557600080fd5b8301601f8101851362004eb757600080fd5b62004ec885823560208401620048b6565b9150509250929050565b60006020828403121562004ee557600080fd5b81356001600160401b0381111562004efc57600080fd5b6200434d84828501620048f9565b60005b8381101562004f2757818101518382015260200162004f0d565b50506000910152565b6000815180845262004f4a81602086016020860162004f0a565b601f01601f19169290920160200192915050565b602081526000620042cb602083018462004f30565b6000806000806080858703121562004f8a57600080fd5b843562004f9781620046aa565b9350602085013562004fa981620046aa565b925060408501356001600160401b038082111562004fc657600080fd5b62004fd48883890162004cf0565b9350606087013591508082111562004feb57600080fd5b5062004ffa878288016200491c565b91505092959194509250565b6000602082840312156200501957600080fd5b81356001600160401b03808211156200503157600080fd5b9083019060e082860312156200504657600080fd5b6200505062004834565b6200505b83620046c0565b81526200506b60208401620046c0565b6020820152604083013560408201526060830135828111156200508d57600080fd5b6200509b87828601620048f9565b60608301525060808301356080820152620050b960a0840162004663565b60a082015260c083013582811115620050d157600080fd5b620050df87828601620048f9565b60c08301525095945050505050565b634e487b7160e01b600052601160045260246000fd5b808202811582820484141762000e435762000e43620050ee565b634e487b7160e01b600052602160045260246000fd5b6000602082840312156200514757600080fd5b8151620042cb8162004b7f565b6001600160a01b03929092168252602082015260400190565b6000602082840312156200518057600080fd5b5051919050565b6001600160a01b039384168152919092166020820152604081019190915260600190565b6001600160a01b0392831681529116602082015260400190565b600082620051e357634e487b7160e01b600052601260045260246000fd5b500490565b8082018082111562000e435762000e43620050ee565b600181811c908216806200521357607f821691505b6020821081036200523457634e487b7160e01b600052602260045260246000fd5b50919050565b601f8211156200154b57600081815260208120601f850160051c81016020861015620052635750805b601f850160051c820191505b8181101562005284578281556001016200526f565b505050505050565b81516001600160401b03811115620052a857620052a862004782565b620052c081620052b98454620051fe565b846200523a565b602080601f831160018114620052f85760008415620052df5750858301515b600019600386901b1c1916600185901b17855562005284565b600085815260208120601f198616915b82811015620053295788860151825594840194600190910190840162005308565b5085821015620053485787850151600019600388901b60f8161c191681555b5050505050600190811b01905550565b6000602082840312156200536b57600080fd5b8151620042cb81620046aa565b634e487b7160e01b600052603260045260246000fd5b60006020808385031215620053a257600080fd5b82516001600160401b03811115620053b957600080fd5b8301601f81018513620053cb57600080fd5b8051620053dc620048c78262004c52565b81815260059190911b82018301908381019087831115620053fc57600080fd5b928401925b82841015620044ab5783516200541781620046aa565b8252928401929084019062005401565b6000600182016200543c576200543c620050ee565b5060010190565b8181038181111562000e435762000e43620050ee565b600081546200546881620051fe565b808552602060018381168015620054885760018114620054a357620054d3565b60ff1985168884015283151560051b880183019550620054d3565b866000528260002060005b85811015620054cb5781548a8201860152908301908401620054ae565b890184019650505b505050505092915050565b8051825260006020820151604060208501526200434d604085018262004f30565b600081518084526020808501945080840160005b838110156200553a5781516001600160a01b03168752958201959082019060010162005513565b509495945050505050565b85815260a0602082015260006200556060a083018762005459565b8281036040840152620055748187620054de565b6001600160a01b038616606085015283810360808501529050620055998185620054ff565b98975050505050505050565b838152606060208201526000620055c0606083018562005459565b8281036040840152620043c98185620054de565b6020808252602c90820152600080516020620060e183398151915260408201526b19195b1959d85d1958d85b1b60a21b606082015260800190565b6020808252602c90820152600080516020620060e183398151915260408201526b6163746976652070726f787960a01b606082015260800190565b6001600160a01b03831681526040602082018190526000906200434d9083018462004f30565b6810531313d5d31254d560ba1b8152600981019190915260290190565b6e20a62627aba624a9aa2fa0a226a4a760891b8152600f810191909152602f0190565b60006020808385031215620056c457600080fd5b82516001600160401b0380821115620056dc57600080fd5b9084019060c08287031215620056f157600080fd5b620056fb620047e9565b82518152838301516200570e81620046aa565b8185015260408301516200572281620046aa565b60408201526060830151828111156200573a57600080fd5b8301604081890312156200574d57600080fd5b6200575762004798565b8151815285820151848111156200576d57600080fd5b82019350601f840189136200578157600080fd5b8351915062005794620048c7836200488c565b8281528987848701011115620057a957600080fd5b620057ba8388830189880162004f0a565b95810195909552506060810193909352506080818101519083015260a090810151908201529392505050565b60018060a01b03841681528260208201526060604082015260006200580f606083018462004f30565b95945050505050565b6020808252602b908201527f496e697469616c697a61626c653a20636f6e7472616374206973206e6f74206960408201526a6e697469616c697a696e6760a81b606082015260800190565b600381106200587657620058766200511e565b9052565b600481106200587657620058766200511e565b60208152620058c1602082018351805182526020810151602083015260408101516040830152606081015160608301525050565b60006020830151620058d760a084018262005863565b506040830151620058ec60c08401826200587a565b506060838101515160e084015260808085015180516001600160a01b039081166101008088019190915260208301519091166101208701526040820151610140870152928101516101608601529081015161018085015260a0908101516101a085015284015190620059636101c085018362004633565b60c085015191506200597a6101e085018362004633565b60e08501516102008501528085015191505061024080610220850152620059a6610260850183620054ff565b9150610120850151620059bc8286018262004633565b5090949350505050565b8781526000602060018060a01b03808a168285015260e06040850152620059f160e085018a62004f30565b818916606086015287608086015284810360a086015262005a138188620054de565b85810360c0870152865480825260008881528581209350918501915b8181101562005a4f57835485168352600193840193928601920162005a2f565b50909d9c50505050505050505050505050565b8581526001600160a01b03858116602083015284811660408301528316606082015260a060808201819052600090620044ab90830184620054de565b600080835462005aae81620051fe565b6001828116801562005ac9576001811462005adf5762005b10565b60ff198416875282151583028701945062005b10565b8760005260208060002060005b8581101562005b075781548a82015290840190820162005aec565b50505082870194505b50929695505050505050565b634e487b7160e01b600052603160045260246000fd5b76020b1b1b2b9b9a1b7b73a3937b61d1030b1b1b7bab73a1604d1b81526000835162005b6681601785016020880162004f0a565b7001034b99036b4b9b9b4b733903937b6329607d1b601791840191820152835162005b9981602884016020880162004f0a565b01602801949350505050565b60006020828403121562005bb857600080fd5b8151620042cb8162004654565b60008162005bd75762005bd7620050ee565b506000190190565b6000825162005bf381846020870162004f0a565b919091019291505056fe60806040526040516104c33803806104c3833981016040819052610022916102e9565b61002e82826000610035565b5050610406565b61003e83610061565b60008251118061004b5750805b1561005c5761005a83836100a1565b505b505050565b61006a816100cd565b6040516001600160a01b038216907fbc7cd75a20ee27fd9adebab32041f755214dbc6bffa90cc0225b39da2e5c2d3b90600090a250565b60606100c6838360405180606001604052806027815260200161049c6027913961017e565b9392505050565b6100d6816101f7565b61013d5760405162461bcd60e51b815260206004820152602d60248201527f455243313936373a206e657720696d706c656d656e746174696f6e206973206e60448201526c1bdd08184818dbdb9d1c9858dd609a1b60648201526084015b60405180910390fd5b7f360894a13ba1a3210667c828492db98dca3e2076cc3735a920a3ca505d382bbc80546001600160a01b0319166001600160a01b0392909216919091179055565b6060600080856001600160a01b03168560405161019b91906103b7565b600060405180830381855af49150503d80600081146101d6576040519150601f19603f3d011682016040523d82523d6000602084013e6101db565b606091505b5090925090506101ed86838387610206565b9695505050505050565b6001600160a01b03163b151590565b6060831561027357825160000361026c57610220856101f7565b61026c5760405162461bcd60e51b815260206004820152601d60248201527f416464726573733a2063616c6c20746f206e6f6e2d636f6e74726163740000006044820152606401610134565b508161027d565b61027d8383610285565b949350505050565b8151156102955781518083602001fd5b8060405162461bcd60e51b815260040161013491906103d3565b634e487b7160e01b600052604160045260246000fd5b60005b838110156102e05781810151838201526020016102c8565b50506000910152565b600080604083850312156102fc57600080fd5b82516001600160a01b038116811461031357600080fd5b60208401519092506001600160401b038082111561033057600080fd5b818501915085601f83011261034457600080fd5b815181811115610356576103566102af565b604051601f8201601f19908116603f0116810190838211818310171561037e5761037e6102af565b8160405282815288602084870101111561039757600080fd5b6103a88360208301602088016102c5565b80955050505050509250929050565b600082516103c98184602087016102c5565b9190910192915050565b60208152600082518060208401526103f28160408501602087016102c5565b601f01601f19169190910160400192915050565b6088806104146000396000f3fe608060405236601057600e6013565b005b600e5b601f601b6021565b6058565b565b600060537f360894a13ba1a3210667c828492db98dca3e2076cc3735a920a3ca505d382bbc546001600160a01b031690565b905090565b3660008037600080366000845af43d6000803e8080156076573d6000f35b3d6000fdfea164736f6c6343000813000a416464726573733a206c6f772d6c6576656c2064656c65676174652063616c6c206661696c656403be538b6391ddcd7f2649585cc95b120c9e2a613f70714fbb55345057d809fa46756e6374696f6e206d7573742062652063616c6c6564207468726f75676820360894a13ba1a3210667c828492db98dca3e2076cc3735a920a3ca505d382bbc416464726573733a206c6f772d6c6576656c2064656c65676174652063616c6c206661696c6564a164736f6c6343000813000a","linkReferences":{}},"methodIdentifiers":{"COUNCIL_MEMBER()":"733a2d1f","DEFAULT_ADMIN_ROLE()":"a217fddf","MAX_FEE()":"bc063e1a","NATIVE()":"a0cf0aea","PRECISION_SCALE()":"d7050f07","VERSION()":"ffa1ad74","acceptCouncilSafe()":"b5058c50","activateMemberInStrategy(address,address)":"0d4a8b49","addStrategy(address)":"223e5479","addStrategyByPoolId(uint256)":"82d6a1e7","addressToMemberInfo(address)":"88cfe684","allo()":"d6d8428d","cloneNonce()":"33960459","collateralVaultTemplate()":"77122d56","communityFee()":"8961be6b","communityName()":"c6d572ae","councilSafe()":"6c53db9a","covenantIpfsHash()":"b64e39af","createPool(address,((uint256,uint256,uint256,uint256),uint8,uint8,(uint256),(address,address,uint256,uint256,uint256,uint256),address,address,uint256,address[],address),(uint256,string))":"499ac57f","createPool(address,address,((uint256,uint256,uint256,uint256),uint8,uint8,(uint256),(address,address,uint256,uint256,uint256,uint256),address,address,uint256,address[],address),(uint256,string))":"cd564dae","deactivateMemberInStrategy(address,address)":"22bcf999","decreasePower(uint256)":"5ecf71c5","enabledStrategies(address)":"3a871fe1","feeReceiver()":"b3f00674","gardenToken()":"db61d65c","getBasisStakedAmount()":"0331383c","getMemberPowerInStrategy(address,address)":"7817ee4f","getMemberStakedAmount(address)":"2c611c4a","getRoleAdmin(bytes32)":"248a9ca3","getStakeAmountWithFees()":"28c309e9","grantRole(bytes32,address)":"2f2ff15d","hasRole(bytes32,address)":"91d14854","increasePower(uint256)":"559de05d","initialize((address,address,uint256,uint256,uint256,address,address,(uint256,string),address,string,bool,string),address,address,address)":"34196355","initialize(address)":"c4d66de8","isCouncilMember(address)":"ebd7dc52","isKickEnabled()":"1f787d28","isMember(address)":"a230c524","kickMember(address,address)":"6871eb4d","memberActivatedInStrategies(address,address)":"477a5cc0","memberPowerInStrategy(address,address)":"65e3864c","onlyStrategyEnabled(address)":"411481e6","owner()":"8da5cb5b","pendingCouncilSafe()":"68decabb","profileId()":"08386eba","proxiableUUID()":"52d1902d","proxyOwner()":"025313a2","registerStakeAmount()":"78a0b8a9","registry()":"7b103999","registryFactory()":"f86c5f89","rejectPool(address)":"fb1f6917","removeStrategy(address)":"175188e8","removeStrategyByPoolId(uint256)":"73265c37","renounceOwnership()":"715018a6","renounceRole(bytes32,address)":"36568abe","revokeRole(bytes32,address)":"d547741f","setArchived(bool)":"0b03bb9a","setBasisStakedAmount(uint256)":"31f61bca","setCollateralVaultTemplate(address)":"b0d3713a","setCommunityFee(uint256)":"0d12bbdb","setCommunityParams((address,address,uint256,string,uint256,bool,string))":"f2d774e7","setCouncilSafe(address)":"397e2543","setStrategyTemplate(address)":"1b71f0e4","stakeAndRegisterMember(string)":"9a1f46e2","strategiesByMember(address,uint256)":"2b38c69c","strategyTemplate()":"5c94e4d2","supportsInterface(bytes4)":"01ffc9a7","totalMembers()":"76e92559","transferOwnership(address)":"f2fde38b","unregisterMember()":"b99b4370","upgradeTo(address)":"3659cfe6","upgradeToAndCall(address,bytes)":"4f1ef286"},"storageLayout":{"storage":[{"astId":52952,"contract":"pkg/contracts/src/RegistryCommunity/RegistryCommunityV0_0.sol:RegistryCommunityV0_0","label":"_initialized","offset":0,"slot":"0","type":"t_uint8"},{"astId":52955,"contract":"pkg/contracts/src/RegistryCommunity/RegistryCommunityV0_0.sol:RegistryCommunityV0_0","label":"_initializing","offset":1,"slot":"0","type":"t_bool"},{"astId":53657,"contract":"pkg/contracts/src/RegistryCommunity/RegistryCommunityV0_0.sol:RegistryCommunityV0_0","label":"__gap","offset":0,"slot":"1","type":"t_array(t_uint256)50_storage"},{"astId":52744,"contract":"pkg/contracts/src/RegistryCommunity/RegistryCommunityV0_0.sol:RegistryCommunityV0_0","label":"_owner","offset":0,"slot":"51","type":"t_address"},{"astId":52864,"contract":"pkg/contracts/src/RegistryCommunity/RegistryCommunityV0_0.sol:RegistryCommunityV0_0","label":"__gap","offset":0,"slot":"52","type":"t_array(t_uint256)49_storage"},{"astId":53129,"contract":"pkg/contracts/src/RegistryCommunity/RegistryCommunityV0_0.sol:RegistryCommunityV0_0","label":"_status","offset":0,"slot":"101","type":"t_uint256"},{"astId":53198,"contract":"pkg/contracts/src/RegistryCommunity/RegistryCommunityV0_0.sol:RegistryCommunityV0_0","label":"__gap","offset":0,"slot":"102","type":"t_array(t_uint256)49_storage"},{"astId":53931,"contract":"pkg/contracts/src/RegistryCommunity/RegistryCommunityV0_0.sol:RegistryCommunityV0_0","label":"__gap","offset":0,"slot":"151","type":"t_array(t_uint256)50_storage"},{"astId":52351,"contract":"pkg/contracts/src/RegistryCommunity/RegistryCommunityV0_0.sol:RegistryCommunityV0_0","label":"_roles","offset":0,"slot":"201","type":"t_mapping(t_bytes32,t_struct(RoleData)52346_storage)"},{"astId":52658,"contract":"pkg/contracts/src/RegistryCommunity/RegistryCommunityV0_0.sol:RegistryCommunityV0_0","label":"__gap","offset":0,"slot":"202","type":"t_array(t_uint256)49_storage"},{"astId":76231,"contract":"pkg/contracts/src/RegistryCommunity/RegistryCommunityV0_0.sol:RegistryCommunityV0_0","label":"registerStakeAmount","offset":0,"slot":"251","type":"t_uint256"},{"astId":76234,"contract":"pkg/contracts/src/RegistryCommunity/RegistryCommunityV0_0.sol:RegistryCommunityV0_0","label":"communityFee","offset":0,"slot":"252","type":"t_uint256"},{"astId":76237,"contract":"pkg/contracts/src/RegistryCommunity/RegistryCommunityV0_0.sol:RegistryCommunityV0_0","label":"cloneNonce","offset":0,"slot":"253","type":"t_uint256"},{"astId":76240,"contract":"pkg/contracts/src/RegistryCommunity/RegistryCommunityV0_0.sol:RegistryCommunityV0_0","label":"profileId","offset":0,"slot":"254","type":"t_bytes32"},{"astId":76243,"contract":"pkg/contracts/src/RegistryCommunity/RegistryCommunityV0_0.sol:RegistryCommunityV0_0","label":"isKickEnabled","offset":0,"slot":"255","type":"t_bool"},{"astId":76246,"contract":"pkg/contracts/src/RegistryCommunity/RegistryCommunityV0_0.sol:RegistryCommunityV0_0","label":"feeReceiver","offset":1,"slot":"255","type":"t_address"},{"astId":76249,"contract":"pkg/contracts/src/RegistryCommunity/RegistryCommunityV0_0.sol:RegistryCommunityV0_0","label":"registryFactory","offset":0,"slot":"256","type":"t_address"},{"astId":76252,"contract":"pkg/contracts/src/RegistryCommunity/RegistryCommunityV0_0.sol:RegistryCommunityV0_0","label":"collateralVaultTemplate","offset":0,"slot":"257","type":"t_address"},{"astId":76255,"contract":"pkg/contracts/src/RegistryCommunity/RegistryCommunityV0_0.sol:RegistryCommunityV0_0","label":"strategyTemplate","offset":0,"slot":"258","type":"t_address"},{"astId":76258,"contract":"pkg/contracts/src/RegistryCommunity/RegistryCommunityV0_0.sol:RegistryCommunityV0_0","label":"pendingCouncilSafe","offset":0,"slot":"259","type":"t_address_payable"},{"astId":76262,"contract":"pkg/contracts/src/RegistryCommunity/RegistryCommunityV0_0.sol:RegistryCommunityV0_0","label":"registry","offset":0,"slot":"260","type":"t_contract(IRegistry)2777"},{"astId":76266,"contract":"pkg/contracts/src/RegistryCommunity/RegistryCommunityV0_0.sol:RegistryCommunityV0_0","label":"gardenToken","offset":0,"slot":"261","type":"t_contract(IERC20)56490"},{"astId":76270,"contract":"pkg/contracts/src/RegistryCommunity/RegistryCommunityV0_0.sol:RegistryCommunityV0_0","label":"councilSafe","offset":0,"slot":"262","type":"t_contract(ISafe)81959"},{"astId":76274,"contract":"pkg/contracts/src/RegistryCommunity/RegistryCommunityV0_0.sol:RegistryCommunityV0_0","label":"allo","offset":0,"slot":"263","type":"t_contract(FAllo)81692"},{"astId":76277,"contract":"pkg/contracts/src/RegistryCommunity/RegistryCommunityV0_0.sol:RegistryCommunityV0_0","label":"communityName","offset":0,"slot":"264","type":"t_string_storage"},{"astId":76280,"contract":"pkg/contracts/src/RegistryCommunity/RegistryCommunityV0_0.sol:RegistryCommunityV0_0","label":"covenantIpfsHash","offset":0,"slot":"265","type":"t_string_storage"},{"astId":76285,"contract":"pkg/contracts/src/RegistryCommunity/RegistryCommunityV0_0.sol:RegistryCommunityV0_0","label":"enabledStrategies","offset":0,"slot":"266","type":"t_mapping(t_address,t_bool)"},{"astId":76292,"contract":"pkg/contracts/src/RegistryCommunity/RegistryCommunityV0_0.sol:RegistryCommunityV0_0","label":"memberPowerInStrategy","offset":0,"slot":"267","type":"t_mapping(t_address,t_mapping(t_address,t_uint256))"},{"astId":76298,"contract":"pkg/contracts/src/RegistryCommunity/RegistryCommunityV0_0.sol:RegistryCommunityV0_0","label":"addressToMemberInfo","offset":0,"slot":"268","type":"t_mapping(t_address,t_struct(Member)76005_storage)"},{"astId":76304,"contract":"pkg/contracts/src/RegistryCommunity/RegistryCommunityV0_0.sol:RegistryCommunityV0_0","label":"strategiesByMember","offset":0,"slot":"269","type":"t_mapping(t_address,t_array(t_address)dyn_storage)"},{"astId":76311,"contract":"pkg/contracts/src/RegistryCommunity/RegistryCommunityV0_0.sol:RegistryCommunityV0_0","label":"memberActivatedInStrategies","offset":0,"slot":"270","type":"t_mapping(t_address,t_mapping(t_address,t_bool))"},{"astId":76315,"contract":"pkg/contracts/src/RegistryCommunity/RegistryCommunityV0_0.sol:RegistryCommunityV0_0","label":"initialMembers","offset":0,"slot":"271","type":"t_array(t_address)dyn_storage"},{"astId":76318,"contract":"pkg/contracts/src/RegistryCommunity/RegistryCommunityV0_0.sol:RegistryCommunityV0_0","label":"totalMembers","offset":0,"slot":"272","type":"t_uint256"},{"astId":78200,"contract":"pkg/contracts/src/RegistryCommunity/RegistryCommunityV0_0.sol:RegistryCommunityV0_0","label":"__gap","offset":0,"slot":"273","type":"t_array(t_uint256)49_storage"}],"types":{"t_address":{"encoding":"inplace","label":"address","numberOfBytes":"20"},"t_address_payable":{"encoding":"inplace","label":"address payable","numberOfBytes":"20"},"t_array(t_address)dyn_storage":{"encoding":"dynamic_array","label":"address[]","numberOfBytes":"32","base":"t_address"},"t_array(t_uint256)49_storage":{"encoding":"inplace","label":"uint256[49]","numberOfBytes":"1568","base":"t_uint256"},"t_array(t_uint256)50_storage":{"encoding":"inplace","label":"uint256[50]","numberOfBytes":"1600","base":"t_uint256"},"t_bool":{"encoding":"inplace","label":"bool","numberOfBytes":"1"},"t_bytes32":{"encoding":"inplace","label":"bytes32","numberOfBytes":"32"},"t_contract(FAllo)81692":{"encoding":"inplace","label":"contract FAllo","numberOfBytes":"20"},"t_contract(IERC20)56490":{"encoding":"inplace","label":"contract IERC20","numberOfBytes":"20"},"t_contract(IRegistry)2777":{"encoding":"inplace","label":"contract IRegistry","numberOfBytes":"20"},"t_contract(ISafe)81959":{"encoding":"inplace","label":"contract ISafe","numberOfBytes":"20"},"t_mapping(t_address,t_array(t_address)dyn_storage)":{"encoding":"mapping","key":"t_address","label":"mapping(address => address[])","numberOfBytes":"32","value":"t_array(t_address)dyn_storage"},"t_mapping(t_address,t_bool)":{"encoding":"mapping","key":"t_address","label":"mapping(address => bool)","numberOfBytes":"32","value":"t_bool"},"t_mapping(t_address,t_mapping(t_address,t_bool))":{"encoding":"mapping","key":"t_address","label":"mapping(address => mapping(address => bool))","numberOfBytes":"32","value":"t_mapping(t_address,t_bool)"},"t_mapping(t_address,t_mapping(t_address,t_uint256))":{"encoding":"mapping","key":"t_address","label":"mapping(address => mapping(address => uint256))","numberOfBytes":"32","value":"t_mapping(t_address,t_uint256)"},"t_mapping(t_address,t_struct(Member)76005_storage)":{"encoding":"mapping","key":"t_address","label":"mapping(address => struct Member)","numberOfBytes":"32","value":"t_struct(Member)76005_storage"},"t_mapping(t_address,t_uint256)":{"encoding":"mapping","key":"t_address","label":"mapping(address => uint256)","numberOfBytes":"32","value":"t_uint256"},"t_mapping(t_bytes32,t_struct(RoleData)52346_storage)":{"encoding":"mapping","key":"t_bytes32","label":"mapping(bytes32 => struct AccessControlUpgradeable.RoleData)","numberOfBytes":"32","value":"t_struct(RoleData)52346_storage"},"t_string_storage":{"encoding":"bytes","label":"string","numberOfBytes":"32"},"t_struct(Member)76005_storage":{"encoding":"inplace","label":"struct Member","numberOfBytes":"96","members":[{"astId":76000,"contract":"pkg/contracts/src/RegistryCommunity/RegistryCommunityV0_0.sol:RegistryCommunityV0_0","label":"member","offset":0,"slot":"0","type":"t_address"},{"astId":76002,"contract":"pkg/contracts/src/RegistryCommunity/RegistryCommunityV0_0.sol:RegistryCommunityV0_0","label":"stakedAmount","offset":0,"slot":"1","type":"t_uint256"},{"astId":76004,"contract":"pkg/contracts/src/RegistryCommunity/RegistryCommunityV0_0.sol:RegistryCommunityV0_0","label":"isRegistered","offset":0,"slot":"2","type":"t_bool"}]},"t_struct(RoleData)52346_storage":{"encoding":"inplace","label":"struct AccessControlUpgradeable.RoleData","numberOfBytes":"64","members":[{"astId":52343,"contract":"pkg/contracts/src/RegistryCommunity/RegistryCommunityV0_0.sol:RegistryCommunityV0_0","label":"members","offset":0,"slot":"0","type":"t_mapping(t_address,t_bool)"},{"astId":52345,"contract":"pkg/contracts/src/RegistryCommunity/RegistryCommunityV0_0.sol:RegistryCommunityV0_0","label":"adminRole","offset":0,"slot":"1","type":"t_bytes32"}]},"t_uint256":{"encoding":"inplace","label":"uint256","numberOfBytes":"32"},"t_uint8":{"encoding":"inplace","label":"uint8","numberOfBytes":"1"}}},"id":128}