{"abi":[{"type":"function","name":"COUNCIL_MEMBER","inputs":[],"outputs":[{"name":"","type":"bytes32","internalType":"bytes32"}],"stateMutability":"view"},{"type":"function","name":"DEFAULT_ADMIN_ROLE","inputs":[],"outputs":[{"name":"","type":"bytes32","internalType":"bytes32"}],"stateMutability":"view"},{"type":"function","name":"MAX_FEE","inputs":[],"outputs":[{"name":"","type":"uint256","internalType":"uint256"}],"stateMutability":"view"},{"type":"function","name":"NATIVE","inputs":[],"outputs":[{"name":"","type":"address","internalType":"address"}],"stateMutability":"view"},{"type":"function","name":"PRECISION_SCALE","inputs":[],"outputs":[{"name":"","type":"uint256","internalType":"uint256"}],"stateMutability":"view"},{"type":"function","name":"acceptCouncilSafe","inputs":[],"outputs":[],"stateMutability":"nonpayable"},{"type":"function","name":"activateMemberInStrategy","inputs":[{"name":"_member","type":"address","internalType":"address"},{"name":"_strategy","type":"address","internalType":"address"}],"outputs":[],"stateMutability":"nonpayable"},{"type":"function","name":"addStrategy","inputs":[{"name":"_newStrategy","type":"address","internalType":"address"}],"outputs":[],"stateMutability":"nonpayable"},{"type":"function","name":"addStrategyByPoolId","inputs":[{"name":"poolId","type":"uint256","internalType":"uint256"}],"outputs":[],"stateMutability":"nonpayable"},{"type":"function","name":"addressToMemberInfo","inputs":[{"name":"member","type":"address","internalType":"address"}],"outputs":[{"name":"member","type":"address","internalType":"address"},{"name":"stakedAmount","type":"uint256","internalType":"uint256"},{"name":"isRegistered","type":"bool","internalType":"bool"}],"stateMutability":"view"},{"type":"function","name":"allo","inputs":[],"outputs":[{"name":"","type":"address","internalType":"contract FAllo"}],"stateMutability":"view"},{"type":"function","name":"cloneNonce","inputs":[],"outputs":[{"name":"","type":"uint256","internalType":"uint256"}],"stateMutability":"view"},{"type":"function","name":"communityFee","inputs":[],"outputs":[{"name":"","type":"uint256","internalType":"uint256"}],"stateMutability":"view"},{"type":"function","name":"communityName","inputs":[],"outputs":[{"name":"","type":"string","internalType":"string"}],"stateMutability":"view"},{"type":"function","name":"councilSafe","inputs":[],"outputs":[{"name":"","type":"address","internalType":"contract ISafe"}],"stateMutability":"view"},{"type":"function","name":"covenantIpfsHash","inputs":[],"outputs":[{"name":"","type":"string","internalType":"string"}],"stateMutability":"view"},{"type":"function","name":"createPool","inputs":[{"name":"_token","type":"address","internalType":"address"},{"name":"_params","type":"tuple","internalType":"struct StrategyStruct.InitializeParams","components":[{"name":"cvParams","type":"tuple","internalType":"struct StrategyStruct.CVParams","components":[{"name":"maxRatio","type":"uint256","internalType":"uint256"},{"name":"weight","type":"uint256","internalType":"uint256"},{"name":"decay","type":"uint256","internalType":"uint256"},{"name":"minThresholdPoints","type":"uint256","internalType":"uint256"}]},{"name":"proposalType","type":"uint8","internalType":"enum StrategyStruct.ProposalType"},{"name":"pointSystem","type":"uint8","internalType":"enum StrategyStruct.PointSystem"},{"name":"pointConfig","type":"tuple","internalType":"struct StrategyStruct.PointSystemConfig","components":[{"name":"maxAmount","type":"uint256","internalType":"uint256"}]},{"name":"arbitrableConfig","type":"tuple","internalType":"struct StrategyStruct.ArbitrableConfig","components":[{"name":"arbitrator","type":"address","internalType":"contract IArbitrator"},{"name":"tribunalSafe","type":"address","internalType":"address"},{"name":"submitterCollateralAmount","type":"uint256","internalType":"uint256"},{"name":"challengerCollateralAmount","type":"uint256","internalType":"uint256"},{"name":"defaultRuling","type":"uint256","internalType":"uint256"},{"name":"defaultRulingTimeout","type":"uint256","internalType":"uint256"}]},{"name":"registryCommunity","type":"address","internalType":"address"},{"name":"sybilScorer","type":"address","internalType":"address"}]},{"name":"_metadata","type":"tuple","internalType":"struct Metadata","components":[{"name":"protocol","type":"uint256","internalType":"uint256"},{"name":"pointer","type":"string","internalType":"string"}]}],"outputs":[{"name":"poolId","type":"uint256","internalType":"uint256"},{"name":"strategy","type":"address","internalType":"address"}],"stateMutability":"nonpayable"},{"type":"function","name":"createPool","inputs":[{"name":"_strategy","type":"address","internalType":"address"},{"name":"_token","type":"address","internalType":"address"},{"name":"_params","type":"tuple","internalType":"struct StrategyStruct.InitializeParams","components":[{"name":"cvParams","type":"tuple","internalType":"struct StrategyStruct.CVParams","components":[{"name":"maxRatio","type":"uint256","internalType":"uint256"},{"name":"weight","type":"uint256","internalType":"uint256"},{"name":"decay","type":"uint256","internalType":"uint256"},{"name":"minThresholdPoints","type":"uint256","internalType":"uint256"}]},{"name":"proposalType","type":"uint8","internalType":"enum StrategyStruct.ProposalType"},{"name":"pointSystem","type":"uint8","internalType":"enum StrategyStruct.PointSystem"},{"name":"pointConfig","type":"tuple","internalType":"struct StrategyStruct.PointSystemConfig","components":[{"name":"maxAmount","type":"uint256","internalType":"uint256"}]},{"name":"arbitrableConfig","type":"tuple","internalType":"struct StrategyStruct.ArbitrableConfig","components":[{"name":"arbitrator","type":"address","internalType":"contract IArbitrator"},{"name":"tribunalSafe","type":"address","internalType":"address"},{"name":"submitterCollateralAmount","type":"uint256","internalType":"uint256"},{"name":"challengerCollateralAmount","type":"uint256","internalType":"uint256"},{"name":"defaultRuling","type":"uint256","internalType":"uint256"},{"name":"defaultRulingTimeout","type":"uint256","internalType":"uint256"}]},{"name":"registryCommunity","type":"address","internalType":"address"},{"name":"sybilScorer","type":"address","internalType":"address"}]},{"name":"_metadata","type":"tuple","internalType":"struct Metadata","components":[{"name":"protocol","type":"uint256","internalType":"uint256"},{"name":"pointer","type":"string","internalType":"string"}]}],"outputs":[{"name":"poolId","type":"uint256","internalType":"uint256"},{"name":"strategy","type":"address","internalType":"address"}],"stateMutability":"nonpayable"},{"type":"function","name":"deactivateMemberInStrategy","inputs":[{"name":"_member","type":"address","internalType":"address"},{"name":"_strategy","type":"address","internalType":"address"}],"outputs":[],"stateMutability":"nonpayable"},{"type":"function","name":"decreasePower","inputs":[{"name":"_amountUnstaked","type":"uint256","internalType":"uint256"}],"outputs":[],"stateMutability":"nonpayable"},{"type":"function","name":"enabledStrategies","inputs":[{"name":"strategy","type":"address","internalType":"address"}],"outputs":[{"name":"isEnabled","type":"bool","internalType":"bool"}],"stateMutability":"view"},{"type":"function","name":"feeReceiver","inputs":[],"outputs":[{"name":"","type":"address","internalType":"address"}],"stateMutability":"view"},{"type":"function","name":"gardenToken","inputs":[],"outputs":[{"name":"","type":"address","internalType":"contract IERC20"}],"stateMutability":"view"},{"type":"function","name":"getBasisStakedAmount","inputs":[],"outputs":[{"name":"","type":"uint256","internalType":"uint256"}],"stateMutability":"view"},{"type":"function","name":"getMemberPowerInStrategy","inputs":[{"name":"_member","type":"address","internalType":"address"},{"name":"_strategy","type":"address","internalType":"address"}],"outputs":[{"name":"","type":"uint256","internalType":"uint256"}],"stateMutability":"view"},{"type":"function","name":"getMemberStakedAmount","inputs":[{"name":"_member","type":"address","internalType":"address"}],"outputs":[{"name":"","type":"uint256","internalType":"uint256"}],"stateMutability":"view"},{"type":"function","name":"getRoleAdmin","inputs":[{"name":"role","type":"bytes32","internalType":"bytes32"}],"outputs":[{"name":"","type":"bytes32","internalType":"bytes32"}],"stateMutability":"view"},{"type":"function","name":"getStakeAmountWithFees","inputs":[],"outputs":[{"name":"","type":"uint256","internalType":"uint256"}],"stateMutability":"view"},{"type":"function","name":"grantRole","inputs":[{"name":"role","type":"bytes32","internalType":"bytes32"},{"name":"account","type":"address","internalType":"address"}],"outputs":[],"stateMutability":"nonpayable"},{"type":"function","name":"hasRole","inputs":[{"name":"role","type":"bytes32","internalType":"bytes32"},{"name":"account","type":"address","internalType":"address"}],"outputs":[{"name":"","type":"bool","internalType":"bool"}],"stateMutability":"view"},{"type":"function","name":"increasePower","inputs":[{"name":"_amountStaked","type":"uint256","internalType":"uint256"}],"outputs":[],"stateMutability":"nonpayable"},{"type":"function","name":"initialize","inputs":[{"name":"params","type":"tuple","internalType":"struct IRegistryCommunityV0_0.InitializeParams","components":[{"name":"_allo","type":"address","internalType":"address"},{"name":"_gardenToken","type":"address","internalType":"contract IERC20"},{"name":"_registerStakeAmount","type":"uint256","internalType":"uint256"},{"name":"_communityFee","type":"uint256","internalType":"uint256"},{"name":"_nonce","type":"uint256","internalType":"uint256"},{"name":"_registryFactory","type":"address","internalType":"address"},{"name":"_feeReceiver","type":"address","internalType":"address"},{"name":"_metadata","type":"tuple","internalType":"struct Metadata","components":[{"name":"protocol","type":"uint256","internalType":"uint256"},{"name":"pointer","type":"string","internalType":"string"}]},{"name":"_councilSafe","type":"address","internalType":"address payable"},{"name":"_communityName","type":"string","internalType":"string"},{"name":"_isKickEnabled","type":"bool","internalType":"bool"},{"name":"covenantIpfsHash","type":"string","internalType":"string"},{"name":"_strategyTemplate","type":"address","internalType":"address"}]}],"outputs":[],"stateMutability":"nonpayable"},{"type":"function","name":"isCouncilMember","inputs":[{"name":"_member","type":"address","internalType":"address"}],"outputs":[{"name":"","type":"bool","internalType":"bool"}],"stateMutability":"view"},{"type":"function","name":"isKickEnabled","inputs":[],"outputs":[{"name":"","type":"bool","internalType":"bool"}],"stateMutability":"view"},{"type":"function","name":"isMember","inputs":[{"name":"_member","type":"address","internalType":"address"}],"outputs":[{"name":"_isMember","type":"bool","internalType":"bool"}],"stateMutability":"view"},{"type":"function","name":"kickMember","inputs":[{"name":"_member","type":"address","internalType":"address"},{"name":"_transferAddress","type":"address","internalType":"address"}],"outputs":[],"stateMutability":"nonpayable"},{"type":"function","name":"memberActivatedInStrategies","inputs":[{"name":"member","type":"address","internalType":"address"},{"name":"strategy","type":"address","internalType":"address"}],"outputs":[{"name":"isActivated","type":"bool","internalType":"bool"}],"stateMutability":"view"},{"type":"function","name":"memberPowerInStrategy","inputs":[{"name":"strategy","type":"address","internalType":"address"},{"name":"member","type":"address","internalType":"address"}],"outputs":[{"name":"power","type":"uint256","internalType":"uint256"}],"stateMutability":"view"},{"type":"function","name":"owner","inputs":[],"outputs":[{"name":"","type":"address","internalType":"address"}],"stateMutability":"view"},{"type":"function","name":"pendingCouncilSafe","inputs":[],"outputs":[{"name":"","type":"address","internalType":"address payable"}],"stateMutability":"view"},{"type":"function","name":"profileId","inputs":[],"outputs":[{"name":"","type":"bytes32","internalType":"bytes32"}],"stateMutability":"view"},{"type":"function","name":"proxiableUUID","inputs":[],"outputs":[{"name":"","type":"bytes32","internalType":"bytes32"}],"stateMutability":"view"},{"type":"function","name":"registerStakeAmount","inputs":[],"outputs":[{"name":"","type":"uint256","internalType":"uint256"}],"stateMutability":"view"},{"type":"function","name":"registry","inputs":[],"outputs":[{"name":"","type":"address","internalType":"contract IRegistry"}],"stateMutability":"view"},{"type":"function","name":"registryFactory","inputs":[],"outputs":[{"name":"","type":"address","internalType":"address"}],"stateMutability":"view"},{"type":"function","name":"removeStrategy","inputs":[{"name":"_strategy","type":"address","internalType":"address"}],"outputs":[],"stateMutability":"nonpayable"},{"type":"function","name":"removeStrategyByPoolId","inputs":[{"name":"poolId","type":"uint256","internalType":"uint256"}],"outputs":[],"stateMutability":"nonpayable"},{"type":"function","name":"renounceOwnership","inputs":[],"outputs":[],"stateMutability":"nonpayable"},{"type":"function","name":"renounceRole","inputs":[{"name":"role","type":"bytes32","internalType":"bytes32"},{"name":"account","type":"address","internalType":"address"}],"outputs":[],"stateMutability":"nonpayable"},{"type":"function","name":"revokeRole","inputs":[{"name":"role","type":"bytes32","internalType":"bytes32"},{"name":"account","type":"address","internalType":"address"}],"outputs":[],"stateMutability":"nonpayable"},{"type":"function","name":"setBasisStakedAmount","inputs":[{"name":"_newAmount","type":"uint256","internalType":"uint256"}],"outputs":[],"stateMutability":"nonpayable"},{"type":"function","name":"setCommunityFee","inputs":[{"name":"_newCommunityFee","type":"uint256","internalType":"uint256"}],"outputs":[],"stateMutability":"nonpayable"},{"type":"function","name":"setCouncilSafe","inputs":[{"name":"_safe","type":"address","internalType":"address payable"}],"outputs":[],"stateMutability":"nonpayable"},{"type":"function","name":"stakeAndRegisterMember","inputs":[],"outputs":[],"stateMutability":"nonpayable"},{"type":"function","name":"strategiesByMember","inputs":[{"name":"member","type":"address","internalType":"address"},{"name":"","type":"uint256","internalType":"uint256"}],"outputs":[{"name":"strategiesAddresses","type":"address","internalType":"address"}],"stateMutability":"view"},{"type":"function","name":"strategyTemplate","inputs":[],"outputs":[{"name":"","type":"address","internalType":"address"}],"stateMutability":"view"},{"type":"function","name":"supportsInterface","inputs":[{"name":"interfaceId","type":"bytes4","internalType":"bytes4"}],"outputs":[{"name":"","type":"bool","internalType":"bool"}],"stateMutability":"view"},{"type":"function","name":"transferOwnership","inputs":[{"name":"newOwner","type":"address","internalType":"address"}],"outputs":[],"stateMutability":"nonpayable"},{"type":"function","name":"unregisterMember","inputs":[],"outputs":[],"stateMutability":"nonpayable"},{"type":"function","name":"upgradeTo","inputs":[{"name":"newImplementation","type":"address","internalType":"address"}],"outputs":[],"stateMutability":"nonpayable"},{"type":"function","name":"upgradeToAndCall","inputs":[{"name":"newImplementation","type":"address","internalType":"address"},{"name":"data","type":"bytes","internalType":"bytes"}],"outputs":[],"stateMutability":"payable"},{"type":"event","name":"AdminChanged","inputs":[{"name":"previousAdmin","type":"address","indexed":false,"internalType":"address"},{"name":"newAdmin","type":"address","indexed":false,"internalType":"address"}],"anonymous":false},{"type":"event","name":"AlloSet","inputs":[{"name":"_allo","type":"address","indexed":false,"internalType":"address"}],"anonymous":false},{"type":"event","name":"BasisStakedAmountSet","inputs":[{"name":"_newAmount","type":"uint256","indexed":false,"internalType":"uint256"}],"anonymous":false},{"type":"event","name":"BeaconUpgraded","inputs":[{"name":"beacon","type":"address","indexed":true,"internalType":"address"}],"anonymous":false},{"type":"event","name":"CommunityFeeUpdated","inputs":[{"name":"_newFee","type":"uint256","indexed":false,"internalType":"uint256"}],"anonymous":false},{"type":"event","name":"CouncilSafeChangeStarted","inputs":[{"name":"_safeOwner","type":"address","indexed":false,"internalType":"address"},{"name":"_newSafeOwner","type":"address","indexed":false,"internalType":"address"}],"anonymous":false},{"type":"event","name":"CouncilSafeSet","inputs":[{"name":"_safe","type":"address","indexed":false,"internalType":"address"}],"anonymous":false},{"type":"event","name":"Initialized","inputs":[{"name":"version","type":"uint8","indexed":false,"internalType":"uint8"}],"anonymous":false},{"type":"event","name":"MemberActivatedStrategy","inputs":[{"name":"_member","type":"address","indexed":false,"internalType":"address"},{"name":"_strategy","type":"address","indexed":false,"internalType":"address"},{"name":"_pointsToIncrease","type":"uint256","indexed":false,"internalType":"uint256"}],"anonymous":false},{"type":"event","name":"MemberDeactivatedStrategy","inputs":[{"name":"_member","type":"address","indexed":false,"internalType":"address"},{"name":"_strategy","type":"address","indexed":false,"internalType":"address"}],"anonymous":false},{"type":"event","name":"MemberKicked","inputs":[{"name":"_member","type":"address","indexed":false,"internalType":"address"},{"name":"_transferAddress","type":"address","indexed":false,"internalType":"address"},{"name":"_amountReturned","type":"uint256","indexed":false,"internalType":"uint256"}],"anonymous":false},{"type":"event","name":"MemberPowerDecreased","inputs":[{"name":"_member","type":"address","indexed":false,"internalType":"address"},{"name":"_unstakedAmount","type":"uint256","indexed":false,"internalType":"uint256"}],"anonymous":false},{"type":"event","name":"MemberPowerIncreased","inputs":[{"name":"_member","type":"address","indexed":false,"internalType":"address"},{"name":"_stakedAmount","type":"uint256","indexed":false,"internalType":"uint256"}],"anonymous":false},{"type":"event","name":"MemberRegistered","inputs":[{"name":"_member","type":"address","indexed":false,"internalType":"address"},{"name":"_amountStaked","type":"uint256","indexed":false,"internalType":"uint256"}],"anonymous":false},{"type":"event","name":"MemberUnregistered","inputs":[{"name":"_member","type":"address","indexed":false,"internalType":"address"},{"name":"_amountReturned","type":"uint256","indexed":false,"internalType":"uint256"}],"anonymous":false},{"type":"event","name":"OwnershipTransferred","inputs":[{"name":"previousOwner","type":"address","indexed":true,"internalType":"address"},{"name":"newOwner","type":"address","indexed":true,"internalType":"address"}],"anonymous":false},{"type":"event","name":"PoolCreated","inputs":[{"name":"_poolId","type":"uint256","indexed":false,"internalType":"uint256"},{"name":"_strategy","type":"address","indexed":false,"internalType":"address"},{"name":"_community","type":"address","indexed":false,"internalType":"address"},{"name":"_token","type":"address","indexed":false,"internalType":"address"},{"name":"_metadata","type":"tuple","indexed":false,"internalType":"struct Metadata","components":[{"name":"protocol","type":"uint256","internalType":"uint256"},{"name":"pointer","type":"string","internalType":"string"}]}],"anonymous":false},{"type":"event","name":"RegistryInitialized","inputs":[{"name":"_profileId","type":"bytes32","indexed":false,"internalType":"bytes32"},{"name":"_communityName","type":"string","indexed":false,"internalType":"string"},{"name":"_metadata","type":"tuple","indexed":false,"internalType":"struct Metadata","components":[{"name":"protocol","type":"uint256","internalType":"uint256"},{"name":"pointer","type":"string","internalType":"string"}]}],"anonymous":false},{"type":"event","name":"RoleAdminChanged","inputs":[{"name":"role","type":"bytes32","indexed":true,"internalType":"bytes32"},{"name":"previousAdminRole","type":"bytes32","indexed":true,"internalType":"bytes32"},{"name":"newAdminRole","type":"bytes32","indexed":true,"internalType":"bytes32"}],"anonymous":false},{"type":"event","name":"RoleGranted","inputs":[{"name":"role","type":"bytes32","indexed":true,"internalType":"bytes32"},{"name":"account","type":"address","indexed":true,"internalType":"address"},{"name":"sender","type":"address","indexed":true,"internalType":"address"}],"anonymous":false},{"type":"event","name":"RoleRevoked","inputs":[{"name":"role","type":"bytes32","indexed":true,"internalType":"bytes32"},{"name":"account","type":"address","indexed":true,"internalType":"address"},{"name":"sender","type":"address","indexed":true,"internalType":"address"}],"anonymous":false},{"type":"event","name":"StrategyAdded","inputs":[{"name":"_strategy","type":"address","indexed":false,"internalType":"address"}],"anonymous":false},{"type":"event","name":"StrategyRemoved","inputs":[{"name":"_strategy","type":"address","indexed":false,"internalType":"address"}],"anonymous":false},{"type":"event","name":"Upgraded","inputs":[{"name":"implementation","type":"address","indexed":true,"internalType":"address"}],"anonymous":false},{"type":"error","name":"AddressCannotBeZero","inputs":[]},{"type":"error","name":"CantDecreaseMoreThanPower","inputs":[{"name":"_decreaseAmount","type":"uint256","internalType":"uint256"},{"name":"_currentPower","type":"uint256","internalType":"uint256"}]},{"type":"error","name":"DecreaseUnderMinimum","inputs":[]},{"type":"error","name":"KickNotEnabled","inputs":[]},{"type":"error","name":"NewFeeGreaterThanMax","inputs":[]},{"type":"error","name":"PointsDeactivated","inputs":[]},{"type":"error","name":"RegistryCannotBeZero","inputs":[]},{"type":"error","name":"SenderNotNewOwner","inputs":[]},{"type":"error","name":"SenderNotStrategy","inputs":[]},{"type":"error","name":"StrategyDisabled","inputs":[]},{"type":"error","name":"StrategyExists","inputs":[]},{"type":"error","name":"UserAlreadyActivated","inputs":[]},{"type":"error","name":"UserAlreadyDeactivated","inputs":[]},{"type":"error","name":"UserAlreadyRegistered","inputs":[]},{"type":"error","name":"UserNotGardenOwner","inputs":[]},{"type":"error","name":"UserNotInCouncil","inputs":[]},{"type":"error","name":"UserNotInRegistry","inputs":[]},{"type":"error","name":"ValueCannotBeZero","inputs":[]}],"bytecode":{"object":"0x60a080604052346100315730608052615465908161003782396080518181816111450152818161153c0152611a040152f35b600080fdfe608060405260043610156200001357600080fd5b60003560e01c806301ffc9a714620004555780630331383c146200038957806308386eba146200044f5780630d12bbdb14620004495780630d4a8b491462000443578063175188e8146200043d5780631f787d281462000437578063223e5479146200043157806322bcf999146200042b578063248a9ca3146200042557806328c309e9146200041f5780632b38c69c14620004195780632c611c4a14620004135780632f2ff15d146200040d57806331f61bca14620004075780633396045914620004015780633517aa7d14620003fb57806336568abe14620003f55780633659cfe614620003ef578063397e254314620003e95780633a871fe114620003e3578063477a5cc014620003dd5780634f1ef28614620003d7578063524e59e814620003d157806352d1902d14620003cb578063559de05d14620003c55780635c94e4d214620003bf5780635ecf71c514620003b957806365e3864c146200038f5780636871eb4d14620003b357806368decabb14620003ad5780636c53db9a14620003a7578063715018a614620003a157806373265c37146200039b578063733a2d1f14620003955780637817ee4f146200038f57806378a0b8a914620003895780637b103999146200038357806382d6a1e7146200037d57806388cfe68414620003775780638961be6b14620003715780638da5cb5b146200036b57806391d14854146200036557806396f0adec146200035f578063a0cf0aea1462000359578063a217fddf1462000353578063a230c524146200034d578063b3f006741462000347578063b5058c501462000341578063b64e39af146200033b578063b99b43701462000335578063bc063e1a146200032f578063c6d572ae1462000329578063d547741f1462000323578063d6d8428d146200031d578063d7050f071462000317578063db61d65c1462000311578063e16d0e32146200030b578063ebd7dc521462000305578063f2fde38b14620002ff5763f86c5f8914620002f957600080fd5b62002cfc565b62002c62565b62002c17565b62002b08565b62002adc565b62002abd565b62002a91565b62002a47565b620029b1565b62002991565b62002843565b62002771565b6200264e565b6200261f565b620025b2565b62002594565b62002563565b62002401565b620023ab565b62002380565b62002360565b620022fe565b62002248565b6200221c565b620004c1565b62001ef8565b620021f0565b62002154565b62002103565b620020d7565b620020ab565b62001f37565b62001c80565b62001c54565b62001ab3565b620019ef565b620018e1565b620014e3565b6200134c565b62001305565b62001278565b6200111a565b6200107d565b62000e26565b62000e06565b62000db6565b62000d09565b62000cc4565b62000c5f565b62000aa6565b62000a75565b6200097c565b62000947565b62000923565b620008ec565b620005f9565b62000501565b620004e1565b34620004b0576020366003190112620004b05760043563ffffffff60e01b8116809103620004b057602090637965db0b60e01b81149081156200049e575b506040519015158152f35b6301ffc9a760e01b1490503862000493565b600080fd5b6000910312620004b057565b34620004b0576000366003190112620004b057602060fb54604051908152f35b34620004b0576000366003190112620004b057602060fe54604051908152f35b34620004b0576020366003190112620004b0576004356200052162004d1d565b620186a081116200055d576020817f611668bfcf654a99c33cdb66c29ec37a5aae5c1287d2d9715a24e18cb4d806d69260fc55604051908152a1005b60405163fe925f7d60e01b8152600490fd5b6001600160a01b031690565b6001600160a01b03811603620004b057565b6101c435906200059d826200057b565b565b6101e435906200059d826200057b565b61020435906200059d826200057b565b35906200059d826200057b565b6040906003190112620004b057600435620005e7816200057b565b90602435620005f6816200057b565b90565b34620004b0576200060a36620005cc565b620006158262004713565b620006208162004760565b6200062b8162004257565b6200064c62000645826200063f8562000b94565b62000c00565b5460ff1690565b620008da57602090816200066a620006648562000baf565b6200462d565b015160fb5460405163c329217160e01b8082526000966001600160a01b03861696909490939284816004818c8c5af18015620007a9576003918a91620008b8575b50620006b78162004382565b03620007af57505060405163782aadff60e01b81526001600160a01b038416600482015260006024820152948291508590604490829089905af18015620007a95760008051602062005370833981519152946200076f92879262000775575b50505b806200072a856200063f8662000bca565b556200074c6200073f856200063f8662000b94565b805460ff19166001179055565b62000762846200075c8562000be5565b620046b7565b60405193849384620046f1565b0390a180f35b620007999250803d10620007a1575b62000790818362001446565b81019062003215565b388062000716565b503d62000784565b62003225565b604096919392965193845282846004818b865af18015620007a9578894859162000884575b50620007e08162004382565b62000805575b505050506200076f600080516020620053708339815191529362000719565b82939650906200082d9160405197888094819363782aadff60e01b835289600484016200467d565b03925af18015620007a95760008051602062005370833981519152946200076f92879262000862575b505093859138620007e6565b6200087c9250803d10620007a15762000790818362001446565b388062000856565b620008a99150843d8611620008b0575b620008a0818362001446565b81019062004665565b38620007d4565b503d62000894565b620008d39150863d8811620008b057620008a0818362001446565b38620006ab565b604051636adcde4b60e11b8152600490fd5b34620004b0576020366003190112620004b0576200092160043562000911816200057b565b6200091b62004d1d565b62004de8565b005b34620004b0576000366003190112620004b057602060ff8054166040519015158152f35b34620004b0576020366003190112620004b057620009216004356200096c816200057b565b6200097662004d1d565b62004d6e565b34620004b0576200098d36620005cc565b620009988262004713565b620009a38162004257565b6001600160a01b038116330362000a6357620009d0620009cc62000645836200063f8662000b94565b1590565b62000a51578162000a1462000a0a836200063f7ede109bef4619f7e2cf00c8e5a50ca55f8deb44f87087eed414a91dbf8d1d1b9662000b94565b805460ff19169055565b600062000a26836200063f8462000bca565b5562000a338282620047dc565b604080516001600160a01b03928316815292909116602083015290a1005b604051633048da7760e21b8152600490fd5b60405163bbe7961160e01b8152600490fd5b34620004b0576020366003190112620004b05760043560005260c96020526020600160406000200154604051908152f35b34620004b0576000366003190112620004b05762000ad162000acb610100546200056f565b6200056f565b60fb549062000af062000ae760fc548462002977565b620f4240900490565b91602060405180936302a64b8360e21b8252818062000b13306004830162000c4c565b03916001600160a01b03165afa918215620007a95762000b6d9362000b5062000ae762000b5d9562000b579460009162000b71575b508562002977565b926200302f565b6200302f565b6040519081529081906020820190565b0390f35b62000b8d915060203d8111620007a15762000790818362001446565b3862000b48565b6001600160a01b0316600090815261010d6020526040902090565b6001600160a01b0316600090815261010b6020526040902090565b6001600160a01b0316600090815261010a6020526040902090565b6001600160a01b0316600090815261010c6020526040902090565b9060018060a01b0316600052602052604060002090565b634e487b7160e01b600052603260045260246000fd5b805482101562000c465760005260206000200190600090565b62000c17565b6001600160a01b03909116815260200190565b34620004b0576040366003190112620004b05760043562000c80816200057b565b6024359060018060a01b0380911660005261010c60205260406000208054831015620004b05760209262000cb49162000c2d565b9190546040519260031b1c168152f35b34620004b0576020366003190112620004b05760043562000ce5816200057b565b60018060a01b031660005261010b6020526020600160406000200154604051908152f35b34620004b0576040366003190112620004b05760043560243562000d2d816200057b565b60009180835260c960205262000d4a600160408520015462002d28565b80835260c960205260ff62000d63836040862062000c00565b54161562000d6f578280f35b80835260c960205262000d86826040852062000c00565b805460ff1916600117905533916001600160a01b031690600080516020620053108339815191528480a438808280f35b34620004b0576020366003190112620004b0577f5bcc2c453001fb0e2ba6266d56ecb411e7c6e15c8f9c3d301f93dd36ad25726f602060043562000df962004d1d565b8060fb55604051908152a1005b34620004b0576000366003190112620004b057602060fd54604051908152f35b34620004b0576000806003193601126200107a5762000e4462004894565b62000e4f3362000baf565b62000e6162000acb610100546200056f565b60fb549162000e7762000ae760fc548562002977565b6040516302a64b8360e21b815260209491936001600160a01b0316919085818062000ea6306004830162000c4c565b0381865afa8015620007a95762000ecb9262000ae792899262001056575b5062002977565b9262000eec620009cc604062000ee5620006643362000baf565b0151151590565b62000f01575b8562000efe6001606555565b80f35b8262000f19600260019501600160ff19825416179055565b60fb54938491015562000f516101049362000f468662000b578562000f3f89546200056f565b946200302f565b9030903390620048eb565b8062001028575b508262000fa8575b505050507f67e0244e28040fec15240cd4b6c04c776a2a0278caef23b59e8ada1df31f768962000f9a60fb5460405191829133836200467d565b0390a1388080808062000ef2565b8362000fb7600493546200056f565b9160405193848092634c3a1adf60e11b82525afa918215620007a95762000fe894869362000ff2575b505062004a7d565b3880808062000f60565b62001017929350803d1062001020575b6200100e818362001446565b810190620038ee565b90388062000fe0565b503d62001002565b6200104f906200103984546200056f565b60ff5460081c6001600160a01b03169062004a7d565b3862000f58565b62001072919250883d8a11620007a15762000790818362001446565b903862000ec4565b80fd5b34620004b0576040366003190112620004b0576024356200109e816200057b565b336001600160a01b03821603620010bd57620009219060043562002f16565b60405162461bcd60e51b815260206004820152602f60248201527f416363657373436f6e74726f6c3a2063616e206f6e6c792072656e6f756e636560448201526e103937b632b9903337b91039b2b63360891b6064820152608490fd5b34620004b0576020366003190112620004b0576004356200113b816200057b565b6001600160a01b037f000000000000000000000000000000000000000000000000000000000000000081169190620011763084141562003173565b62001196600080516020620053b0833981519152938285541614620031c4565b620011a062002f8f565b60405190602082016001600160401b03811183821017620012725760405260008252600080516020620053508339815191525460ff1615620011ea575050620009219150620032df565b6020600491604094939451928380926352d1902d60e01b825286165afa600091816200124d575b50620012365760405162461bcd60e51b815280620012326004820162003290565b0390fd5b620009219362001247911462003231565b62003427565b6200126a91925060203d8111620007a15762000790818362001446565b903862001211565b62001390565b34620004b0576020366003190112620004b0577f83eac9fdaff0ac1017624b7eddeb9782e3d707cd894073cb7e8301a41c6e5cf86040600435620012bc816200057b565b620012c662004d1d565b6001600160a01b0390811690620012dd8262004257565b61010280546001600160a01b03191683179055610105548351911681526020810191909152a1005b34620004b0576020366003190112620004b05760043562001326816200057b565b60018060a01b0316600052610109602052602060ff604060002054166040519015158152f35b34620004b057602060ff620013846200136536620005cc565b6001600160a01b03909116600090815261010d85526040902062000c00565b54166040519015158152f35b634e487b7160e01b600052604160045260246000fd5b60c081019081106001600160401b038211176200127257604052565b60e081019081106001600160401b038211176200127257604052565b608081019081106001600160401b038211176200127257604052565b604081019081106001600160401b038211176200127257604052565b606081019081106001600160401b038211176200127257604052565b6001600160401b0381116200127257604052565b601f909101601f19168101906001600160401b038211908210176200127257604052565b604051906101a082016001600160401b038111838210176200127257604052565b6001600160401b0381116200127257601f01601f191660200190565b929192620014b5826200148b565b91620014c5604051938462001446565b829481845281830111620004b0578281602093846000960137010152565b6040366003190112620004b057600435620014fe816200057b565b6024356001600160401b038111620004b05736602382011215620004b05762001532903690602481600401359101620014a7565b6001600160a01b037f000000000000000000000000000000000000000000000000000000000000000081169291906200156e3085141562003173565b6200158e600080516020620053b0833981519152948286541614620031c4565b6200159862002f8f565b600080516020620053508339815191525460ff1615620015c0575050620009219150620032df565b6020600491604094939451928380926352d1902d60e01b825286165afa600091816200161f575b50620016085760405162461bcd60e51b815280620012326004820162003290565b620009219362001619911462003231565b62003371565b6200163c91925060203d8111620007a15762000790818362001446565b9038620015e7565b60a435906003821015620004b057565b60c435906003821015620004b057565b60041115620004b057565b60c435906200059d8262001664565b60e435906200059d8262001664565b60209060e3190112620004b05760405190602082016001600160401b03811183821017620012725760405260e4358252565b602090610103190112620004b05760405190602082016001600160401b038111838210176200127257604052610104358252565b60c090610103190112620004b057604051906200171082620013a6565b816101043562001720816200057b565b81526101243562001731816200057b565b602082015261014435604082015261016435606082015261018435608082015260a06101a435910152565b60c090610123190112620004b057604051906200177982620013a6565b816101243562001789816200057b565b8152610144356200179a816200057b565b60208201526101643560408201526101843560608201526101a435608082015260a06101c435910152565b602319810191906101e08312620004b05760405190620017e582620013c2565b6080829412620004b05762001855906040516200180281620013de565b602435815260443560208201526064356040820152608435606082015283526200182b62001644565b60208401526200183a6200166f565b60408401526200184a816200168d565b6060840152620016f3565b6080820152620018646200058d565b60a082015260c0620018756200059f565b910152565b9080601f83011215620004b057816020620005f693359101620014a7565b9190604083820312620004b05760405190620018b482620013fa565b8335825290928391602082013591906001600160401b038311620004b0576020926200187592016200187a565b34620004b057610220366003190112620004b05760043562001903816200057b565b6200190e36620017c5565b6001600160401b039061020435828111620004b057620019376200197991369060040162001898565b9262001946610101546200056f565b620019886200195c62000acb610106546200056f565b60405163066ad14f60e21b60208201529485916024830162000c4c565b03601f19810185528462001446565b6040519261041091828501938585109085111762001272578493620019b39362004f0086396200427a565b03906000f0928315620007a957620019d4936001600160a01b031662004510565b604080519283526001600160a01b0391909116602083015290f35b34620004b0576000366003190112620004b0577f00000000000000000000000000000000000000000000000000000000000000006001600160a01b0316300362001a4d57604051600080516020620053b08339815191528152602090f35b60405162461bcd60e51b815260206004820152603860248201527f555550535570677261646561626c653a206d757374206e6f742062652063616c6044820152771b1959081d1a1c9bdd59da0819195b1959d85d1958d85b1b60421b6064820152608490fd5b34620004b057602080600319360112620004b05760049081359162001ad762004894565b62001ae162004a2e565b62001af662001af03362000be5565b620042fc565b60005b815181101562001bd85762001b2862000acb62000acb62001b1b8486620039f5565b516001600160a01b031690565b9084604051809363782aadff60e01b82528160008162001b4c8c338c84016200467d565b03925af18015620007a95762001b749260009162001bb6575b508062001b7a575b50620039e5565b62001af9565b62001bad62001ba462001b8d3362000bca565b62001b9d62001b1b8689620039f5565b9062000c00565b9182546200302f565b90553862001b6d565b62001bd19150863d8811620007a15762000790818362001446565b3862001b65565b7f576605f9bfe8911e7508bed3763c7c5c8eb3b86e8b360b90a4bc6abe1104cb7f62001c468662001c1b8162001c11610104546200056f565b30903390620048eb565b600162001c283362000baf565b0162001c368282546200302f565b905560405191829133836200467d565b0390a1620009216001606555565b34620004b0576000366003190112620004b057610101546040516001600160a01b039091168152602090f35b34620004b057602080600319360112620004b05760049081359062001ca462004894565b62001cae62004a2e565b62001cb93362000be5565b9060019362001cd6848662001cce3362000baf565b015462003a2a565b60fb541162001ee95790849262001cfc853362001cf6610104546200056f565b62004a7d565b6000935b62001d46575b7f6ee2c70b2d6b89ae808a2313aab43e925c06624271419cd665d85cfa1ae04ff862001c46868862001d383362000baf565b0162001c3682825462003a2a565b909192948154948587101562001ee05762001d7b62001d66888562000c2d565b905460039190911b1c6001600160a01b031690565b9562001d878762004aa8565b1562001e8f57506040928484518098632ed04b2b60e01b82528160008162001db4888d339084016200467d565b03926001600160a01b03165af1968715620007a95760009762001e6b575b5062001df262001de23362000bca565b62001b9d62001d668b8562000c2d565b54948588111562001e1f5784516311423e6360e31b81528088018981526020810188905281906040010390fd5b945094925094819662001e609162001e5862001e4f62001e3f3362000bca565b62001b9d62001d66868c62000c2d565b91825462003a2a565b9055620039e5565b939092919262001d00565b62001e87919750853d8711620007a15762000790818362001446565b953862001dd2565b9662001eda62001e60929762001ecf62001ebc62001d6662001eb5889d9b999b62003a0a565b8b62000c2d565b62001ec8858b62000c2d565b9062004698565b6200091b8862004796565b620039e5565b94509462001d06565b604051634e23e81760e11b8152fd5b34620004b057602062001f2e62001f0f36620005cc565b6001600160a01b03909116600090815261010a84526040902062000c00565b54604051908152f35b34620004b05762001f4836620005cc565b62001f5262004894565b62001f5c62004d1d565b62001f6d620009cc60ff5460ff1690565b620020995762001f8b620009cc604062000ee5620006648662000baf565b62002087578162001fa26200066460009462000baf565b62001fad8262004e3f565b62001fce62001fbc8362000baf565b60026000918281558260018201550155565b60206200200a8162001fe762000acb610104546200056f565b930192835160405197888094819363a9059cbb60e01b83528a600484016200467d565b03925af1908115620007a9577fb5946f249f8744efe9d14d49a483b54a589b1362944ff6694de93456cceb96a39462001c469262002052575b505160405193849384620046f1565b620020779060203d81116200207f575b6200206e818362001446565b8101906200492c565b503862002043565b503d62002062565b604051636a5cfb6d60e01b8152600490fd5b6040516365b1ee3960e11b8152600490fd5b34620004b0576000366003190112620004b057610102546040516001600160a01b039091168152602090f35b34620004b0576000366003190112620004b057610105546040516001600160a01b039091168152602090f35b34620004b0576000806003193601126200107a576200212162002f8f565b603380546001600160a01b0319811690915581906001600160a01b0316600080516020620053d08339815191528280a380f35b34620004b0576020366003190112620004b0576200217162004d1d565b6101065460405163068bcd8d60e01b81526004803590820152906001600160a01b03906000908390602490829085165afa918215620007a9576200092192602091600091620021ca575b500151166200091b8162004257565b620021e9913d8091833e620021e0818362001446565b81019062004c81565b38620021bb565b34620004b0576000366003190112620004b0576020604051600080516020620053308339815191528152f35b34620004b0576000366003190112620004b057610103546040516001600160a01b039091168152602090f35b34620004b0576020366003190112620004b0576200226562004d1d565b6101065460405163068bcd8d60e01b8152600480359082015290600090829060249082906001600160a01b03165afa8015620007a957602062000acb91620022b993600091620022e1575b5001516200056f565b620022c48162004257565b620022cf8162004aa8565b620022d657005b620009219062004d6e565b620022f7913d8091833e620021e0818362001446565b38620022b0565b34620004b0576020366003190112620004b057606060043562002321816200057b565b60018060a01b0380911660005261010b6020526040600020908154169060ff600260018301549201541690604051928352602083015215156040820152f35b34620004b0576000366003190112620004b057602060fc54604051908152f35b34620004b0576000366003190112620004b0576033546040516001600160a01b039091168152602090f35b34620004b0576040366003190112620004b057602060ff62001384602435620023d4816200057b565b60043560005260c98452604060002062000c00565b80151503620004b057565b35906200059d82620023e9565b34620004b057600319602036820112620004b0576001600160401b039060043590828211620004b0576101a0908236030112620004b057620024426200146a565b906200245181600401620005bf565b82526200246160248201620005bf565b60208301526044810135604083015260648101356060830152608481013560808301526200249260a48201620005bf565b60a0830152620024a560c48201620005bf565b60c083015260e4810135838111620004b057620024c9906004369184010162001898565b60e0830152620024dd6101048201620005bf565b610100830152610124810135838111620004b0576200250390600436918401016200187a565b610120830152620025186101448201620023f4565b610140830152610164810135928311620004b05761018462002557916200254a6200092195600436918401016200187a565b61016085015201620005bf565b6101808201526200353a565b34620004b0576000366003190112620004b057602060405173eeeeeeeeeeeeeeeeeeeeeeeeeeeeeeeeeeeeeeee8152f35b34620004b0576000366003190112620004b057602060405160008152f35b34620004b0576020366003190112620004b05760206040600435620025d7816200057b565b60018060a01b0380911660005261010b835260ff600283600020845193620025ff8562001416565b815416845260018101548685015201541615159182910152604051908152f35b34620004b0576000366003190112620004b05760ff5460405160089190911c6001600160a01b03168152602090f35b34620004b0576000806003193601126200107a5761010280546001600160a01b0381169033829003620026c35761010580546001600160a01b031990811690931790551690556040518181527fad0399dc40331b9a4977aa89da7a164a3fd482c65e6da73b25a94ea74fb6887290602090a180f35b6040516375e686b760e11b8152600490fd5b90600182811c9216801562002707575b6020831014620026f157565b634e487b7160e01b600052602260045260246000fd5b91607f1691620026e5565b60005b838110620027265750506000910152565b818101518382015260200162002715565b90602091620027528151809281855285808601910162002712565b601f01601f1916010190565b906020620005f692818152019062002737565b34620004b0576000806003193601126200107a576040518161010880546200279981620026d5565b80855291600191808316908115620028155750600114620027d5575b62000b6d85620027c88189038262001446565b604051918291826200275e565b835260208084209095505b82841062002801575050508162000b6d93620027c8928201019338620027b5565b8054858501870152928501928101620027e0565b905062000b6d9650620027c89450602092508593915060ff191682840152151560051b8201019338620027b5565b34620004b0576000806003193601126200107a576200286162004894565b6200286c3362004713565b620028773362004e3f565b8062002887620006643362000baf565b6200289662001fbc3362000baf565b620028ab620028a53362000be5565b62003b87565b6020620028e781620028c462000acb610104546200056f565b930192835160405195868094819363a9059cbb60e01b835233600484016200467d565b03925af1908115620007a9577fa13f4668aacb68c4e9eed8e3f6e1cbec3eca776896ec46b5eabcc3983fc8f5f49262002930926200293e575b505160405191829133836200467d565b0390a162000efe6001606555565b620029599060203d81116200207f576200206e818362001446565b503862002920565b634e487b7160e01b600052601160045260246000fd5b818102929181159184041417156200298b57565b62002961565b34620004b0576000366003190112620004b0576020604051620186a08152f35b34620004b0576000806003193601126200107a57604051816101078054620029d981620026d5565b8085529160019180831690811562002815575060011462002a075762000b6d85620027c88189038262001446565b835260208084209095505b82841062002a33575050508162000b6d93620027c8928201019338620027b5565b805485850187015292850192810162002a12565b34620004b0576040366003190112620004b0576200092160243560043562002a6f826200057b565b8060005260c960205262002a8b60016040600020015462002d28565b62002f16565b34620004b0576000366003190112620004b057610106546040516001600160a01b039091168152602090f35b34620004b0576000366003190112620004b05760206040516127108152f35b34620004b0576000366003190112620004b057610104546040516001600160a01b039091168152602090f35b34620004b057610240366003190112620004b05760043562002b2a816200057b565b6024359062002b39826200057b565b36604319016101e08112620004b05760806040519162002b5983620013c2565b12620004b05760405162002b6d81620013de565b60443581526064356020820152608435604082015260a4356060820152815262002b9662001654565b602082015262002ba56200167e565b604082015262002bb536620016bf565b606082015262002bc5366200175c565b608082015262002bd46200059f565b60a082015262002be3620005af565b60c082015261022435926001600160401b038411620004b05762002c10620019d494369060040162001898565b9262004510565b34620004b0576020366003190112620004b057602060ff6200138460043562002c40816200057b565b6000805160206200533083398151915260005260c98452604060002062000c00565b34620004b0576020366003190112620004b05760043562002c83816200057b565b62002c8d62002f8f565b6001600160a01b0381161562002ca857620009219062002fe8565b60405162461bcd60e51b815260206004820152602660248201527f4f776e61626c653a206e6577206f776e657220697320746865207a65726f206160448201526564647265737360d01b6064820152608490fd5b34620004b0576000366003190112620004b057610100546040516001600160a01b039091168152602090f35b8060005260c960205260ff62002d4333604060002062000c00565b54161562002d4e5750565b339062002d5a6200303d565b91603062002d68846200305a565b53607862002d768462003068565b5360295b6001811162002e2d576200123262002de862002e148662002e0562002dab8862002da5891562003099565b620030e5565b62002de160405195869462002de16020870160179076020b1b1b2b9b9a1b7b73a3937b61d1030b1b1b7bab73a1604d1b81520190565b9062002e75565b7001034b99036b4b9b9b4b733903937b6329607d1b815260110190565b03601f19810183528262001446565b60405162461bcd60e51b8152918291600483016200275e565b90600f811690601082101562000c465762002e6f916f181899199a1a9b1b9c1cb0b131b232b360811b901a62002e64848762003079565b5360041c916200308b565b62002d7a565b9062002e8a6020928281519485920162002712565b0190565b60008051602062005330833981519152600081815260c96020529060ff62002ec6846000805160206200541083398151915262000c00565b54161562002ed357505050565b80825260c960205262002eea836040842062000c00565b805460ff1916600117905533926001600160a01b031691600080516020620053108339815191529080a4565b60009080825260c960205260ff62002f32846040852062000c00565b541662002f3e57505050565b80825260c960205262002f55836040842062000c00565b805460ff1916905533926001600160a01b0316917ff6391f5c32d9c69d2a47ea670b442974b53935d1edc7fd64eb21e047a839171b9080a4565b6033546001600160a01b0316330362002fa457565b606460405162461bcd60e51b815260206004820152602060248201527f4f776e61626c653a2063616c6c6572206973206e6f7420746865206f776e65726044820152fd5b603380546001600160a01b039283166001600160a01b031982168117909255909116600080516020620053d0833981519152600080a3565b90600282018092116200298b57565b919082018092116200298b57565b604051906200304c8262001416565b602a82526040366020840137565b80511562000c465760200190565b80516001101562000c465760210190565b90815181101562000c46570160200190565b80156200298b576000190190565b15620030a157565b606460405162461bcd60e51b815260206004820152602060248201527f537472696e67733a20686578206c656e67746820696e73756666696369656e746044820152fd5b60405190620030f482620013de565b60428252606036602084013760306200310d836200305a565b5360786200311b8362003068565b536041905b600182116200313657620005f691501562003099565b600f811690601082101562000c46576200316c916f181899199a1a9b1b9c1cb0b131b232b360811b901a62002e64848662003079565b9062003120565b156200317b57565b60405162461bcd60e51b815260206004820152602c60248201526000805160206200539083398151915260448201526b19195b1959d85d1958d85b1b60a21b6064820152608490fd5b15620031cc57565b60405162461bcd60e51b815260206004820152602c60248201526000805160206200539083398151915260448201526b6163746976652070726f787960a01b6064820152608490fd5b90816020910312620004b0575190565b6040513d6000823e3d90fd5b156200323957565b60405162461bcd60e51b815260206004820152602960248201527f45524331393637557067726164653a20756e737570706f727465642070726f786044820152681a58589b195555525160ba1b6064820152608490fd5b60809060208152602e60208201527f45524331393637557067726164653a206e657720696d706c656d656e7461746960408201526d6f6e206973206e6f74205555505360901b60608201520190565b803b156200331657600080516020620053b083398151915280546001600160a01b0319166001600160a01b03909216919091179055565b60405162461bcd60e51b815260206004820152602d60248201527f455243313936373a206e657720696d706c656d656e746174696f6e206973206e60448201526c1bdd08184818dbdb9d1c9858dd609a1b6064820152608490fd5b906200337d82620032df565b6001600160a01b038216600080516020620053f0833981519152600080a28051158015906200341e575b620033b0575050565b6200341b9160008060405193620033c78562001416565b602785527f416464726573733a206c6f772d6c6576656c2064656c65676174652063616c6c6020860152660819985a5b195960ca1b6040860152602081519101845af4620034146200346e565b91620034a3565b50565b506001620033a7565b906200343382620032df565b6001600160a01b038216600080516020620053f0833981519152600080a28051158015906200346557620033b0575050565b506000620033a7565b3d156200349e573d9062003482826200148b565b9162003492604051938462001446565b82523d6000602084013e565b606090565b91929015620035085750815115620034b9575090565b3b15620034c35790565b60405162461bcd60e51b815260206004820152601d60248201527f416464726573733a2063616c6c20746f206e6f6e2d636f6e74726163740000006044820152606490fd5b8251909150156200351c5750805190602001fd5b60405162461bcd60e51b81529081906200123290600483016200275e565b6000549060ff8260081c16158092819362003669575b811562003646575b5015620035ea5762003583908262003578600160ff196000541617600055565b620035cf5762003c82565b6200358a57565b6200359b61ff001960005416600055565b604051600181527f7f26b83ff96e1f2b6a682f133852f6798a09c465da95921460cefb38474024989080602081015b0390a1565b620035e461010061ff00196000541617600055565b62003c82565b60405162461bcd60e51b815260206004820152602e60248201527f496e697469616c697a61626c653a20636f6e747261637420697320616c72656160448201526d191e481a5b9a5d1a585b1a5e995960921b6064820152608490fd5b303b159150816200365a575b503862003558565b6001915060ff16143862003652565b600160ff821610915062003550565b81811062003684575050565b6000815560010162003678565b90601f82116200369f575050565b6200059d916101076000526020600020906020601f840160051c83019310620036d1575b601f0160051c019062003678565b9091508190620036c3565b90601f8211620036ea575050565b6200059d916101086000526020600020906020601f840160051c83019310620036d157601f0160051c019062003678565b80519091906001600160401b0381116200127257610107906200374a81620037448454620026d5565b62003691565b602080601f8311600114620037895750819293946000926200377d575b50508160011b916000199060031b1c1916179055565b01519050388062003767565b610107600052601f198316959091907f47c4908e245f386bfc1825973249847f4053a761ddb4880ad63c323a7b5a2a25926000905b888210620037f957505083600195969710620037df575b505050811b019055565b015160001960f88460031b161c19169055388080620037d5565b80600185968294968601518155019501930190620037be565b80519091906001600160401b03811162001272576101089062003841816200383b8454620026d5565b620036dc565b602080601f8311600114620038735750819293946000926200377d5750508160011b916000199060031b1c1916179055565b610108600052601f198316959091907f8543e9adbfbe1f62b7411fdf032fcfea758a7d6b332f64d971a1334c2ff364dd926000905b888210620038c857505083600195969710620037df57505050811b019055565b80600185968294968601518155019501930190620038a8565b51906200059d826200057b565b90816020910312620004b05751620005f6816200057b565b6001600160401b038111620012725760051b60200190565b6020908181840312620004b0578051906001600160401b038211620004b057019180601f84011215620004b0578251620039588162003906565b9362003968604051958662001446565b818552838086019260051b820101928311620004b0578301905b82821062003991575050505090565b8380918351620039a1816200057b565b81520191019062003982565b90620039b98262003906565b620039c8604051918262001446565b8281528092620039db601f199162003906565b0190602036910137565b60001981146200298b5760010190565b805182101562000c465760209160051b010190565b6000198101919082116200298b57565b6001198101919082116200298b57565b919082039182116200298b57565b9060009161010780549162003a4d83620026d5565b91828252600193848116908160001462003ab4575060011462003a71575b50505050565b90919394506000526020928360002092846000945b83861062003a9f57505050500101903880808062003a6b565b80548587018301529401938590820162003a86565b9294505050602093945060ff191683830152151560051b0101903880808062003a6b565b9060406020620005f69380518452015191816020820152019062002737565b90815180825260208080930193019160005b82811062003b18575050505090565b83516001600160a01b03168552938101939281019260010162003b09565b90620005f6949262003b6891835260a0602084015262003b5960a0840162003a38565b90838203604085015262003ad8565b6001600160a01b03909316606082015280830360809091015262003af7565b8054600082558062003b97575050565b6200059d9160005260206000209081019062003678565b9060031b9160018060a01b03809116831b921b19161790565b8051906001600160401b0382116200127257600160401b8211620012725761010e90815483835580841062003c34575b50602080910191600052806000209060005b84811062003c18575050505050565b83516001600160a01b0316838201559281019260010162003c09565b62003c4e9083600052846020600020918201910162003678565b3862003bf7565b9091620005f69282526060602083015262003c736060830162003a38565b91604081840391015262003ad8565b9062003c8d6200420f565b62003c9762004238565b62003ca162004193565b62003cab620041a6565b6020908183019062003ccc62003cc662000acb84516200056f565b62004257565b610100840162003ce562003cc662000acb83516200056f565b62003cf562003cc686516200056f565b60a085019062003d0a62003cc683516200056f565b61018086019162003d2062003cc684516200056f565b62003d9462003d726060890196875162004119575b62003d6b62003d4962000acb8c516200056f565b61010680546001600160a01b0319166001600160a01b03909216919091179055565b516200056f565b61010480546001600160a01b0319166001600160a01b03909216919091179055565b604094858801805115620041085762000acb62003ec2959462003e3d62003e1b62003ebc9662003d6b6101608f62003ddf62003e9a9a62003dd962003e779b5160fb55565b5160fc55565b62003e0362003df2610140830151151590565b60ff8019815416911515161760ff55565b62003e136101208201516200371b565b015162003812565b61010080546001600160a01b0319166001600160a01b03909216919091179055565b62003d6b62003e5060c08d01516200056f565b60ff8054610100600160a81b03191660089290921b610100600160a81b0316919091179055565b61010580546001600160a01b0319166001600160a01b0383161790559262003d6b565b61010180546001600160a01b0319166001600160a01b03909216919091179055565b62002e8e565b60048362003ed762000acb610106546200056f565b8451635ab1bd5360e01b815292839182905afa8015620007a95762003f2391600091620040e6575b5061010380546001600160a01b0319166001600160a01b0392909216919091179055565b62003f3562000acb610105546200056f565b9282519263a0e67e2b60e01b8452600084600481885afa938415620007a957600094620040be575b5062003f7462003f6e855162003020565b620039ad565b9560005b855181101562003fbc578062001eda62003f9b62001b1b62003fb6948a620039f5565b62003fa7838c620039f5565b6001600160a01b039091169052565b62003f78565b50929590935062003fe362004039929562003fa762003fdc845162003a0a565b84620039f5565b62003ff83062003fa762003fdc845162003a1a565b84816200400c62000acb610103546200056f565b60e0608087015196019560008751895197889586948593633a92f65f60e01b855230916004860162003b36565b03925af1948515620007a9577f2f2ffcb06f8a1d35e2716f6b43ef2c19bfa76467d8f66964ae12c2583ed0320595620040879362004081926000926200409c575b505060fe55565b62003bc7565b620035ca60fe54915192519283928362003c55565b620040b69250803d10620007a15762000790818362001446565b38806200407a565b620040de91943d8091833e620040d5818362001446565b8101906200391e565b923862003f5d565b620041019150853d871162001020576200100e818362001446565b3862003eff565b86516363868c5560e11b8152600490fd5b6200412c62003cc660c08c01516200056f565b62003d35565b156200413a57565b60405162461bcd60e51b815260206004820152602b60248201527f496e697469616c697a61626c653a20636f6e7472616374206973206e6f74206960448201526a6e697469616c697a696e6760a81b6064820152608490fd5b6200059d60ff60005460081c1662004132565b60008051602062005330833981519152600081815260c96020527fa867e09674d469ee17077111ff66261f5d2fc5820cc6914676cb47231da5881980549082905590917fbd79b86ffe0ab8e8776151514217cd7cacd52c909f66475c3af44e129f0b00ff8380a4565b6200422d60ff60005460081c16620042278162004132565b62004132565b6200059d3362002fe8565b6200425060ff60005460081c16620042278162004132565b6001606555565b6001600160a01b0316156200426857565b6040516303988b8160e61b8152600490fd5b6001600160a01b039091168152604060208201819052620005f69291019062002737565b6040519061010e828154918282526020928383019160005283600020936000905b828210620042d8575050506200059d9250038362001446565b85546001600160a01b031684526001958601958895509381019390910190620042bf565b9060405191828154918282526020928383019160005283600020936000905b82821062004334575050506200059d9250038362001446565b85546001600160a01b0316845260019586019588955093810193909101906200431b565b634e487b7160e01b600052602160045260246000fd5b9060038210156200437c5752565b62004358565b600411156200437c57565b9060048210156200437c5752565b6200059d909291926101c060c06101e08301956060815180518652602081015160208701526040810151604087015201516060850152620043e5602082015160808601906200436e565b620043f9604082015160a08601906200438d565b6060810151518483015260808181015180516001600160a01b0390811660e0880152602082015116610100870152604081015161012087015260608101516101408701529081015161016086015260a0015161018085015260a08101516001600160a01b03166101a085015201516001600160a01b0316910152565b949091620044ab620044c794620005f6989694885260018060a01b03809316602089015260e0604089015260e088019062002737565b921660608601526000608086015284820360a086015262003ad8565b9160c081840391015262003af7565b9081526001600160a01b0391821660208201529181166040830152909116606082015260a060808201819052620005f69291019062003ad8565b9093919273eeeeeeeeeeeeeeeeeeeeeeeeeeeeeeeeeeeeeeee916001600160a01b03861662004624575b60206200457e82968360006200454f6200429e565b92620045ac6200456662000acb610106546200056f565b946200458d60fe54936040519889918b83016200439b565b03601f19810189528862001446565b896040519b8c98899788966370803ea560e11b88526004880162004475565b03925af1918215620007a9577f778cac0ae0b66477341553a4a89398c61ccf448313d3354ad0ca85a5a825d28393600093620045fa575b50620035ca908397604051948594309186620044d6565b620035ca9193506200461c9060203d8111620007a15762000790818362001446565b9290620045e3565b8592506200453a565b906040516200463c8162001416565b82546001600160a01b031681526001830154602082015260029092015460ff1615156040830152565b90816020910312620004b05751620005f68162001664565b6001600160a01b039091168152602081019190915260400190565b80549092620046b3926001600160a01b039091169162003bae565b9055565b805490600160401b821015620012725781620046dd916001620046b39401815562000c2d565b815491936001600160a01b03169162003bae565b6001600160a01b03918216815291166020820152604081019190915260600190565b60018060a01b0380911660005261010b60205260ff60026040600020604051936200473e8562001416565b8154168452600181015460208501520154161590604082159101526200208757565b6001600160a01b03166000908152610109602052604090205460ff16156200478457565b6040516346c26e4b60e01b8152600490fd5b80548015620047c6576000190190620047b0828262000c2d565b81549060018060a01b039060031b1b1916905555565b634e487b7160e01b600052603160045260246000fd5b909160018060a01b0380921660005261010c602052604060002060005b815490818110156200488c5762004811818462000c2d565b905460039391841b1c86168787161462004839575b50620048339150620039e5565b620047f9565b60001981019081116200298b5762004833926200485887928662000c2d565b9054911b1c16620048786200486e838662000c2d565b8193915462003bae565b9055620048858362004796565b3862004826565b505050915050565b600260655414620048a6576002606555565b60405162461bcd60e51b815260206004820152601f60248201527f5265656e7472616e637947756172643a207265656e7472616e742063616c6c006044820152606490fd5b906200492690620049176200059d956040519586936323b872dd60e01b602086015260248501620046f1565b03601f19810184528362001446565b62004944565b90816020910312620004b05751620005f681620023e9565b604051620049a1916001600160a01b03166200496082620013fa565b6000806020958685527f5361666545524332303a206c6f772d6c6576656c2063616c6c206661696c656487860152868151910182855af1620034146200346e565b80519082821592831562004a13575b50505015620049bc5750565b6084906040519062461bcd60e51b82526004820152602a60248201527f5361666545524332303a204552433230206f7065726174696f6e20646964206e6044820152691bdd081cdd58d8d9595960b21b6064820152fd5b62004a2593508201810191016200492c565b388281620049b0565b3360005261010b602052604060002060ff60026040519262004a508462001416565b80546001600160a01b03168452600181015460208501520154161580156040909201919091526200208757565b620049266200059d93926200491760405194859263a9059cbb60e01b6020850152602484016200467d565b6040519060208083018160006301ffc9a760e01b958684528660248201526024815262004ad58162001416565b51617530938685fa933d600051908662004b88575b508562004b7d575b508462004b13575b5050508162004b07575090565b620005f6915062004b94565b83945090600091839460405185810192835263ffffffff60e01b60248201526024815262004b418162001416565b5192fa60005190913d8362004b71575b50508162004b66575b50159038808062004afa565b905015153862004b5a565b10159150388062004b51565b151594503862004af2565b84111595503862004aea565b6000602091604051838101906301ffc9a760e01b825263f1801e6160e01b60248201526024815262004bc68162001416565b5191617530fa6000513d8262004be9575b508162004be2575090565b9050151590565b6020111591503862004bd7565b9190604083820312620004b05760405162004c1181620013fa565b83518152602084015190938491906001600160401b038211620004b057019082601f83011215620004b05781519162004c4a836200148b565b9362004c5a604051958662001446565b83855260208483010111620004b05760209262004c7d9184808701910162002712565b0152565b90602082820312620004b05781516001600160401b0392838211620004b0570160c081830312620004b0576040519262004cbb84620013a6565b81518452602082015162004ccf816200057b565b602085015262004ce260408301620038e1565b60408501526060820151908111620004b05760a09262004d0491830162004bf6565b606084015260808101516080840152015160a082015290565b6000805160206200533083398151915260005260c960205260ff62004d52336000805160206200541083398151915262000c00565b54161562004d5c57565b604051637b1328fd60e11b8152600490fd5b6001600160a01b03166000818152610109602081905260409091205460ff1662004dd657816020917f3f008fd510eae7a9e7bee13513d7b83bef8003d488b5a3d0b0da4de71d6846f19360005282526040600020600160ff19825416179055604051908152a1565b6040516325a2934b60e21b8152600490fd5b60207f09a1db4b80c32706328728508c941a6b954f31eb5affd32f236c1fd405f8fea49162004e178162004257565b6001600160a01b031660008181526101098352604090819020805460ff1916905551908152a1565b9060009160018060a01b038116835261010c60205260409062004e64828520620042fc565b845b815181101562004ef75762004e8862000acb62000acb62001b1b8486620039f5565b90813b1562004ef3578685518093631914f67160e21b825281838162004eb28a6004830162000c4c565b03925af1918215620007a95762004ecf9262004ed55750620039e5565b62004e66565b8062004ee562004eec9262001432565b80620004b5565b3862001b6d565b8680fd5b50505050905056fe604060808152610410908138038061001681610218565b93843982019181818403126102135780516001600160a01b038116808203610213576020838101516001600160401b0394919391858211610213570186601f820112156102135780519061007161006c83610253565b610218565b918083528583019886828401011161021357888661008f930161026e565b813b156101b9577f360894a13ba1a3210667c828492db98dca3e2076cc3735a920a3ca505d382bbc80546001600160a01b031916841790556000927fbc7cd75a20ee27fd9adebab32041f755214dbc6bffa90cc0225b39da2e5c2d3b8480a28051158015906101b2575b61010b575b855160cb90816103458239f35b855194606086019081118682101761019e578697849283926101889952602788527f416464726573733a206c6f772d6c6576656c2064656c65676174652063616c6c87890152660819985a5b195960ca1b8a8901525190845af4913d15610194573d9061017a61006c83610253565b91825281943d92013e610291565b508038808080806100fe565b5060609250610291565b634e487b7160e01b84526041600452602484fd5b50826100f9565b855162461bcd60e51b815260048101859052602d60248201527f455243313936373a206e657720696d706c656d656e746174696f6e206973206e60448201526c1bdd08184818dbdb9d1c9858dd609a1b6064820152608490fd5b600080fd5b6040519190601f01601f191682016001600160401b0381118382101761023d57604052565b634e487b7160e01b600052604160045260246000fd5b6001600160401b03811161023d57601f01601f191660200190565b60005b8381106102815750506000910152565b8181015183820152602001610271565b919290156102f357508151156102a5575090565b3b156102ae5790565b60405162461bcd60e51b815260206004820152601d60248201527f416464726573733a2063616c6c20746f206e6f6e2d636f6e74726163740000006044820152606490fd5b8251909150156103065750805190602001fd5b6044604051809262461bcd60e51b825260206004830152610336815180928160248601526020868601910161026e565b601f01601f19168101030190fdfe60806040523615604157600080516020607683398151915254600090819081906001600160a01b0316368280378136915af43d82803e15603d573d90f35b3d90fd5b600080516020607683398151915254600090819081906001600160a01b0316368280378136915af43d82803e15603d573d90f3fe360894a13ba1a3210667c828492db98dca3e2076cc3735a920a3ca505d382bbca264697066735822122072d7d028fb3045fe8e855ecb202f4850ac57ced137610de05b4f594cfac5e74d64736f6c634300081300332f8788117e7eff1d82e926ec794901d17c78024a50270940304540a733656f0d03be538b6391ddcd7f2649585cc95b120c9e2a613f70714fbb55345057d809fa4910fdfa16fed3260ed0e7147f7cc6da11a60208b5b9406d12a635614ffd9143f56fa57e85e169a12200d12d9921ec069b52e688f6d309d9dab7bceff54614ec46756e6374696f6e206d7573742062652063616c6c6564207468726f75676820360894a13ba1a3210667c828492db98dca3e2076cc3735a920a3ca505d382bbc8be0079c531659141344cd1fd0a4f28419497f9722a3daafe3b4186f6b6457e0bc7cd75a20ee27fd9adebab32041f755214dbc6bffa90cc0225b39da2e5c2d3ba867e09674d469ee17077111ff66261f5d2fc5820cc6914676cb47231da58818a26469706673582212203cdae99874deeed75a427bd3db7982bb822208947912002f5cb6782d8eb5aacf64736f6c63430008130033","linkReferences":{}},"methodIdentifiers":{"COUNCIL_MEMBER()":"733a2d1f","DEFAULT_ADMIN_ROLE()":"a217fddf","MAX_FEE()":"bc063e1a","NATIVE()":"a0cf0aea","PRECISION_SCALE()":"d7050f07","acceptCouncilSafe()":"b5058c50","activateMemberInStrategy(address,address)":"0d4a8b49","addStrategy(address)":"223e5479","addStrategyByPoolId(uint256)":"82d6a1e7","addressToMemberInfo(address)":"88cfe684","allo()":"d6d8428d","cloneNonce()":"33960459","communityFee()":"8961be6b","communityName()":"c6d572ae","councilSafe()":"6c53db9a","covenantIpfsHash()":"b64e39af","createPool(address,((uint256,uint256,uint256,uint256),uint8,uint8,(uint256),(address,address,uint256,uint256,uint256,uint256),address,address),(uint256,string))":"524e59e8","createPool(address,address,((uint256,uint256,uint256,uint256),uint8,uint8,(uint256),(address,address,uint256,uint256,uint256,uint256),address,address),(uint256,string))":"e16d0e32","deactivateMemberInStrategy(address,address)":"22bcf999","decreasePower(uint256)":"5ecf71c5","enabledStrategies(address)":"3a871fe1","feeReceiver()":"b3f00674","gardenToken()":"db61d65c","getBasisStakedAmount()":"0331383c","getMemberPowerInStrategy(address,address)":"7817ee4f","getMemberStakedAmount(address)":"2c611c4a","getRoleAdmin(bytes32)":"248a9ca3","getStakeAmountWithFees()":"28c309e9","grantRole(bytes32,address)":"2f2ff15d","hasRole(bytes32,address)":"91d14854","increasePower(uint256)":"559de05d","initialize((address,address,uint256,uint256,uint256,address,address,(uint256,string),address,string,bool,string,address))":"96f0adec","isCouncilMember(address)":"ebd7dc52","isKickEnabled()":"1f787d28","isMember(address)":"a230c524","kickMember(address,address)":"6871eb4d","memberActivatedInStrategies(address,address)":"477a5cc0","memberPowerInStrategy(address,address)":"65e3864c","owner()":"8da5cb5b","pendingCouncilSafe()":"68decabb","profileId()":"08386eba","proxiableUUID()":"52d1902d","registerStakeAmount()":"78a0b8a9","registry()":"7b103999","registryFactory()":"f86c5f89","removeStrategy(address)":"175188e8","removeStrategyByPoolId(uint256)":"73265c37","renounceOwnership()":"715018a6","renounceRole(bytes32,address)":"36568abe","revokeRole(bytes32,address)":"d547741f","setBasisStakedAmount(uint256)":"31f61bca","setCommunityFee(uint256)":"0d12bbdb","setCouncilSafe(address)":"397e2543","stakeAndRegisterMember()":"3517aa7d","strategiesByMember(address,uint256)":"2b38c69c","strategyTemplate()":"5c94e4d2","supportsInterface(bytes4)":"01ffc9a7","transferOwnership(address)":"f2fde38b","unregisterMember()":"b99b4370","upgradeTo(address)":"3659cfe6","upgradeToAndCall(address,bytes)":"4f1ef286"},"storageLayout":{"storage":[{"astId":53071,"contract":"pkg/contracts/src/RegistryCommunityV0_0.sol:RegistryCommunityV0_0","label":"_initialized","offset":0,"slot":"0","type":"t_uint8"},{"astId":53074,"contract":"pkg/contracts/src/RegistryCommunityV0_0.sol:RegistryCommunityV0_0","label":"_initializing","offset":1,"slot":"0","type":"t_bool"},{"astId":53776,"contract":"pkg/contracts/src/RegistryCommunityV0_0.sol:RegistryCommunityV0_0","label":"__gap","offset":0,"slot":"1","type":"t_array(t_uint256)50_storage"},{"astId":52863,"contract":"pkg/contracts/src/RegistryCommunityV0_0.sol:RegistryCommunityV0_0","label":"_owner","offset":0,"slot":"51","type":"t_address"},{"astId":52983,"contract":"pkg/contracts/src/RegistryCommunityV0_0.sol:RegistryCommunityV0_0","label":"__gap","offset":0,"slot":"52","type":"t_array(t_uint256)49_storage"},{"astId":53248,"contract":"pkg/contracts/src/RegistryCommunityV0_0.sol:RegistryCommunityV0_0","label":"_status","offset":0,"slot":"101","type":"t_uint256"},{"astId":53317,"contract":"pkg/contracts/src/RegistryCommunityV0_0.sol:RegistryCommunityV0_0","label":"__gap","offset":0,"slot":"102","type":"t_array(t_uint256)49_storage"},{"astId":54050,"contract":"pkg/contracts/src/RegistryCommunityV0_0.sol:RegistryCommunityV0_0","label":"__gap","offset":0,"slot":"151","type":"t_array(t_uint256)50_storage"},{"astId":52470,"contract":"pkg/contracts/src/RegistryCommunityV0_0.sol:RegistryCommunityV0_0","label":"_roles","offset":0,"slot":"201","type":"t_mapping(t_bytes32,t_struct(RoleData)52465_storage)"},{"astId":52777,"contract":"pkg/contracts/src/RegistryCommunityV0_0.sol:RegistryCommunityV0_0","label":"__gap","offset":0,"slot":"202","type":"t_array(t_uint256)49_storage"},{"astId":76391,"contract":"pkg/contracts/src/RegistryCommunityV0_0.sol:RegistryCommunityV0_0","label":"registerStakeAmount","offset":0,"slot":"251","type":"t_uint256"},{"astId":76394,"contract":"pkg/contracts/src/RegistryCommunityV0_0.sol:RegistryCommunityV0_0","label":"communityFee","offset":0,"slot":"252","type":"t_uint256"},{"astId":76397,"contract":"pkg/contracts/src/RegistryCommunityV0_0.sol:RegistryCommunityV0_0","label":"cloneNonce","offset":0,"slot":"253","type":"t_uint256"},{"astId":76400,"contract":"pkg/contracts/src/RegistryCommunityV0_0.sol:RegistryCommunityV0_0","label":"profileId","offset":0,"slot":"254","type":"t_bytes32"},{"astId":76403,"contract":"pkg/contracts/src/RegistryCommunityV0_0.sol:RegistryCommunityV0_0","label":"isKickEnabled","offset":0,"slot":"255","type":"t_bool"},{"astId":76406,"contract":"pkg/contracts/src/RegistryCommunityV0_0.sol:RegistryCommunityV0_0","label":"feeReceiver","offset":1,"slot":"255","type":"t_address"},{"astId":76409,"contract":"pkg/contracts/src/RegistryCommunityV0_0.sol:RegistryCommunityV0_0","label":"registryFactory","offset":0,"slot":"256","type":"t_address"},{"astId":76412,"contract":"pkg/contracts/src/RegistryCommunityV0_0.sol:RegistryCommunityV0_0","label":"strategyTemplate","offset":0,"slot":"257","type":"t_address"},{"astId":76415,"contract":"pkg/contracts/src/RegistryCommunityV0_0.sol:RegistryCommunityV0_0","label":"pendingCouncilSafe","offset":0,"slot":"258","type":"t_address_payable"},{"astId":76419,"contract":"pkg/contracts/src/RegistryCommunityV0_0.sol:RegistryCommunityV0_0","label":"registry","offset":0,"slot":"259","type":"t_contract(IRegistry)2802"},{"astId":76423,"contract":"pkg/contracts/src/RegistryCommunityV0_0.sol:RegistryCommunityV0_0","label":"gardenToken","offset":0,"slot":"260","type":"t_contract(IERC20)56609"},{"astId":76427,"contract":"pkg/contracts/src/RegistryCommunityV0_0.sol:RegistryCommunityV0_0","label":"councilSafe","offset":0,"slot":"261","type":"t_contract(ISafe)79371"},{"astId":76431,"contract":"pkg/contracts/src/RegistryCommunityV0_0.sol:RegistryCommunityV0_0","label":"allo","offset":0,"slot":"262","type":"t_contract(FAllo)78781"},{"astId":76434,"contract":"pkg/contracts/src/RegistryCommunityV0_0.sol:RegistryCommunityV0_0","label":"communityName","offset":0,"slot":"263","type":"t_string_storage"},{"astId":76437,"contract":"pkg/contracts/src/RegistryCommunityV0_0.sol:RegistryCommunityV0_0","label":"covenantIpfsHash","offset":0,"slot":"264","type":"t_string_storage"},{"astId":76442,"contract":"pkg/contracts/src/RegistryCommunityV0_0.sol:RegistryCommunityV0_0","label":"enabledStrategies","offset":0,"slot":"265","type":"t_mapping(t_address,t_bool)"},{"astId":76449,"contract":"pkg/contracts/src/RegistryCommunityV0_0.sol:RegistryCommunityV0_0","label":"memberPowerInStrategy","offset":0,"slot":"266","type":"t_mapping(t_address,t_mapping(t_address,t_uint256))"},{"astId":76455,"contract":"pkg/contracts/src/RegistryCommunityV0_0.sol:RegistryCommunityV0_0","label":"addressToMemberInfo","offset":0,"slot":"267","type":"t_mapping(t_address,t_struct(Member)76594_storage)"},{"astId":76461,"contract":"pkg/contracts/src/RegistryCommunityV0_0.sol:RegistryCommunityV0_0","label":"strategiesByMember","offset":0,"slot":"268","type":"t_mapping(t_address,t_array(t_address)dyn_storage)"},{"astId":76468,"contract":"pkg/contracts/src/RegistryCommunityV0_0.sol:RegistryCommunityV0_0","label":"memberActivatedInStrategies","offset":0,"slot":"269","type":"t_mapping(t_address,t_mapping(t_address,t_bool))"},{"astId":76472,"contract":"pkg/contracts/src/RegistryCommunityV0_0.sol:RegistryCommunityV0_0","label":"initialMembers","offset":0,"slot":"270","type":"t_array(t_address)dyn_storage"},{"astId":78057,"contract":"pkg/contracts/src/RegistryCommunityV0_0.sol:RegistryCommunityV0_0","label":"__gap","offset":0,"slot":"271","type":"t_array(t_uint256)50_storage"}],"types":{"t_address":{"encoding":"inplace","label":"address","numberOfBytes":"20"},"t_address_payable":{"encoding":"inplace","label":"address payable","numberOfBytes":"20"},"t_array(t_address)dyn_storage":{"encoding":"dynamic_array","label":"address[]","numberOfBytes":"32","base":"t_address"},"t_array(t_uint256)49_storage":{"encoding":"inplace","label":"uint256[49]","numberOfBytes":"1568","base":"t_uint256"},"t_array(t_uint256)50_storage":{"encoding":"inplace","label":"uint256[50]","numberOfBytes":"1600","base":"t_uint256"},"t_bool":{"encoding":"inplace","label":"bool","numberOfBytes":"1"},"t_bytes32":{"encoding":"inplace","label":"bytes32","numberOfBytes":"32"},"t_contract(FAllo)78781":{"encoding":"inplace","label":"contract FAllo","numberOfBytes":"20"},"t_contract(IERC20)56609":{"encoding":"inplace","label":"contract IERC20","numberOfBytes":"20"},"t_contract(IRegistry)2802":{"encoding":"inplace","label":"contract IRegistry","numberOfBytes":"20"},"t_contract(ISafe)79371":{"encoding":"inplace","label":"contract ISafe","numberOfBytes":"20"},"t_mapping(t_address,t_array(t_address)dyn_storage)":{"encoding":"mapping","key":"t_address","label":"mapping(address => address[])","numberOfBytes":"32","value":"t_array(t_address)dyn_storage"},"t_mapping(t_address,t_bool)":{"encoding":"mapping","key":"t_address","label":"mapping(address => bool)","numberOfBytes":"32","value":"t_bool"},"t_mapping(t_address,t_mapping(t_address,t_bool))":{"encoding":"mapping","key":"t_address","label":"mapping(address => mapping(address => bool))","numberOfBytes":"32","value":"t_mapping(t_address,t_bool)"},"t_mapping(t_address,t_mapping(t_address,t_uint256))":{"encoding":"mapping","key":"t_address","label":"mapping(address => mapping(address => uint256))","numberOfBytes":"32","value":"t_mapping(t_address,t_uint256)"},"t_mapping(t_address,t_struct(Member)76594_storage)":{"encoding":"mapping","key":"t_address","label":"mapping(address => struct RegistryCommunityV0_0.Member)","numberOfBytes":"32","value":"t_struct(Member)76594_storage"},"t_mapping(t_address,t_uint256)":{"encoding":"mapping","key":"t_address","label":"mapping(address => uint256)","numberOfBytes":"32","value":"t_uint256"},"t_mapping(t_bytes32,t_struct(RoleData)52465_storage)":{"encoding":"mapping","key":"t_bytes32","label":"mapping(bytes32 => struct AccessControlUpgradeable.RoleData)","numberOfBytes":"32","value":"t_struct(RoleData)52465_storage"},"t_string_storage":{"encoding":"bytes","label":"string","numberOfBytes":"32"},"t_struct(Member)76594_storage":{"encoding":"inplace","label":"struct RegistryCommunityV0_0.Member","numberOfBytes":"96","members":[{"astId":76589,"contract":"pkg/contracts/src/RegistryCommunityV0_0.sol:RegistryCommunityV0_0","label":"member","offset":0,"slot":"0","type":"t_address"},{"astId":76591,"contract":"pkg/contracts/src/RegistryCommunityV0_0.sol:RegistryCommunityV0_0","label":"stakedAmount","offset":0,"slot":"1","type":"t_uint256"},{"astId":76593,"contract":"pkg/contracts/src/RegistryCommunityV0_0.sol:RegistryCommunityV0_0","label":"isRegistered","offset":0,"slot":"2","type":"t_bool"}]},"t_struct(RoleData)52465_storage":{"encoding":"inplace","label":"struct AccessControlUpgradeable.RoleData","numberOfBytes":"64","members":[{"astId":52462,"contract":"pkg/contracts/src/RegistryCommunityV0_0.sol:RegistryCommunityV0_0","label":"members","offset":0,"slot":"0","type":"t_mapping(t_address,t_bool)"},{"astId":52464,"contract":"pkg/contracts/src/RegistryCommunityV0_0.sol:RegistryCommunityV0_0","label":"adminRole","offset":0,"slot":"1","type":"t_bytes32"}]},"t_uint256":{"encoding":"inplace","label":"uint256","numberOfBytes":"32"},"t_uint8":{"encoding":"inplace","label":"uint8","numberOfBytes":"1"}}},"id":115}