{"abi":[{"type":"function","name":"COUNCIL_MEMBER","inputs":[],"outputs":[{"name":"","type":"bytes32","internalType":"bytes32"}],"stateMutability":"view"},{"type":"function","name":"DEFAULT_ADMIN_ROLE","inputs":[],"outputs":[{"name":"","type":"bytes32","internalType":"bytes32"}],"stateMutability":"view"},{"type":"function","name":"MAX_FEE","inputs":[],"outputs":[{"name":"","type":"uint256","internalType":"uint256"}],"stateMutability":"view"},{"type":"function","name":"NATIVE","inputs":[],"outputs":[{"name":"","type":"address","internalType":"address"}],"stateMutability":"view"},{"type":"function","name":"PRECISION_SCALE","inputs":[],"outputs":[{"name":"","type":"uint256","internalType":"uint256"}],"stateMutability":"view"},{"type":"function","name":"VERSION","inputs":[],"outputs":[{"name":"","type":"string","internalType":"string"}],"stateMutability":"view"},{"type":"function","name":"acceptCouncilSafe","inputs":[],"outputs":[],"stateMutability":"nonpayable"},{"type":"function","name":"activateMemberInStrategy","inputs":[{"name":"_member","type":"address","internalType":"address"},{"name":"_strategy","type":"address","internalType":"address"}],"outputs":[],"stateMutability":"nonpayable"},{"type":"function","name":"addStrategy","inputs":[{"name":"_newStrategy","type":"address","internalType":"address"}],"outputs":[],"stateMutability":"nonpayable"},{"type":"function","name":"addStrategyByPoolId","inputs":[{"name":"poolId","type":"uint256","internalType":"uint256"}],"outputs":[],"stateMutability":"nonpayable"},{"type":"function","name":"addressToMemberInfo","inputs":[{"name":"member","type":"address","internalType":"address"}],"outputs":[{"name":"member","type":"address","internalType":"address"},{"name":"stakedAmount","type":"uint256","internalType":"uint256"},{"name":"isRegistered","type":"bool","internalType":"bool"}],"stateMutability":"view"},{"type":"function","name":"allo","inputs":[],"outputs":[{"name":"","type":"address","internalType":"contract FAllo"}],"stateMutability":"view"},{"type":"function","name":"cloneNonce","inputs":[],"outputs":[{"name":"","type":"uint256","internalType":"uint256"}],"stateMutability":"view"},{"type":"function","name":"collateralVaultTemplate","inputs":[],"outputs":[{"name":"","type":"address","internalType":"address"}],"stateMutability":"view"},{"type":"function","name":"communityFee","inputs":[],"outputs":[{"name":"","type":"uint256","internalType":"uint256"}],"stateMutability":"view"},{"type":"function","name":"communityName","inputs":[],"outputs":[{"name":"","type":"string","internalType":"string"}],"stateMutability":"view"},{"type":"function","name":"councilSafe","inputs":[],"outputs":[{"name":"","type":"address","internalType":"contract ISafe"}],"stateMutability":"view"},{"type":"function","name":"covenantIpfsHash","inputs":[],"outputs":[{"name":"","type":"string","internalType":"string"}],"stateMutability":"view"},{"type":"function","name":"createPool","inputs":[{"name":"_token","type":"address","internalType":"address"},{"name":"_params","type":"tuple","internalType":"struct CVStrategyInitializeParamsV0_1","components":[{"name":"cvParams","type":"tuple","internalType":"struct CVParams","components":[{"name":"maxRatio","type":"uint256","internalType":"uint256"},{"name":"weight","type":"uint256","internalType":"uint256"},{"name":"decay","type":"uint256","internalType":"uint256"},{"name":"minThresholdPoints","type":"uint256","internalType":"uint256"}]},{"name":"proposalType","type":"uint8","internalType":"enum ProposalType"},{"name":"pointSystem","type":"uint8","internalType":"enum PointSystem"},{"name":"pointConfig","type":"tuple","internalType":"struct PointSystemConfig","components":[{"name":"maxAmount","type":"uint256","internalType":"uint256"}]},{"name":"arbitrableConfig","type":"tuple","internalType":"struct ArbitrableConfig","components":[{"name":"arbitrator","type":"address","internalType":"contract IArbitrator"},{"name":"tribunalSafe","type":"address","internalType":"address"},{"name":"submitterCollateralAmount","type":"uint256","internalType":"uint256"},{"name":"challengerCollateralAmount","type":"uint256","internalType":"uint256"},{"name":"defaultRuling","type":"uint256","internalType":"uint256"},{"name":"defaultRulingTimeout","type":"uint256","internalType":"uint256"}]},{"name":"registryCommunity","type":"address","internalType":"address"},{"name":"sybilScorer","type":"address","internalType":"address"},{"name":"sybilScorerThreshold","type":"uint256","internalType":"uint256"},{"name":"initialAllowlist","type":"address[]","internalType":"address[]"}]},{"name":"_metadata","type":"tuple","internalType":"struct Metadata","components":[{"name":"protocol","type":"uint256","internalType":"uint256"},{"name":"pointer","type":"string","internalType":"string"}]}],"outputs":[{"name":"poolId","type":"uint256","internalType":"uint256"},{"name":"strategy","type":"address","internalType":"address"}],"stateMutability":"nonpayable"},{"type":"function","name":"createPool","inputs":[{"name":"_strategy","type":"address","internalType":"address"},{"name":"_token","type":"address","internalType":"address"},{"name":"_params","type":"tuple","internalType":"struct CVStrategyInitializeParamsV0_1","components":[{"name":"cvParams","type":"tuple","internalType":"struct CVParams","components":[{"name":"maxRatio","type":"uint256","internalType":"uint256"},{"name":"weight","type":"uint256","internalType":"uint256"},{"name":"decay","type":"uint256","internalType":"uint256"},{"name":"minThresholdPoints","type":"uint256","internalType":"uint256"}]},{"name":"proposalType","type":"uint8","internalType":"enum ProposalType"},{"name":"pointSystem","type":"uint8","internalType":"enum PointSystem"},{"name":"pointConfig","type":"tuple","internalType":"struct PointSystemConfig","components":[{"name":"maxAmount","type":"uint256","internalType":"uint256"}]},{"name":"arbitrableConfig","type":"tuple","internalType":"struct ArbitrableConfig","components":[{"name":"arbitrator","type":"address","internalType":"contract IArbitrator"},{"name":"tribunalSafe","type":"address","internalType":"address"},{"name":"submitterCollateralAmount","type":"uint256","internalType":"uint256"},{"name":"challengerCollateralAmount","type":"uint256","internalType":"uint256"},{"name":"defaultRuling","type":"uint256","internalType":"uint256"},{"name":"defaultRulingTimeout","type":"uint256","internalType":"uint256"}]},{"name":"registryCommunity","type":"address","internalType":"address"},{"name":"sybilScorer","type":"address","internalType":"address"},{"name":"sybilScorerThreshold","type":"uint256","internalType":"uint256"},{"name":"initialAllowlist","type":"address[]","internalType":"address[]"}]},{"name":"_metadata","type":"tuple","internalType":"struct Metadata","components":[{"name":"protocol","type":"uint256","internalType":"uint256"},{"name":"pointer","type":"string","internalType":"string"}]}],"outputs":[{"name":"poolId","type":"uint256","internalType":"uint256"},{"name":"strategy","type":"address","internalType":"address"}],"stateMutability":"nonpayable"},{"type":"function","name":"deactivateMemberInStrategy","inputs":[{"name":"_member","type":"address","internalType":"address"},{"name":"_strategy","type":"address","internalType":"address"}],"outputs":[],"stateMutability":"nonpayable"},{"type":"function","name":"decreasePower","inputs":[{"name":"_amountUnstaked","type":"uint256","internalType":"uint256"}],"outputs":[],"stateMutability":"nonpayable"},{"type":"function","name":"enabledStrategies","inputs":[{"name":"strategy","type":"address","internalType":"address"}],"outputs":[{"name":"isEnabled","type":"bool","internalType":"bool"}],"stateMutability":"view"},{"type":"function","name":"feeReceiver","inputs":[],"outputs":[{"name":"","type":"address","internalType":"address"}],"stateMutability":"view"},{"type":"function","name":"gardenToken","inputs":[],"outputs":[{"name":"","type":"address","internalType":"contract IERC20"}],"stateMutability":"view"},{"type":"function","name":"getBasisStakedAmount","inputs":[],"outputs":[{"name":"","type":"uint256","internalType":"uint256"}],"stateMutability":"view"},{"type":"function","name":"getMemberPowerInStrategy","inputs":[{"name":"_member","type":"address","internalType":"address"},{"name":"_strategy","type":"address","internalType":"address"}],"outputs":[{"name":"","type":"uint256","internalType":"uint256"}],"stateMutability":"view"},{"type":"function","name":"getMemberStakedAmount","inputs":[{"name":"_member","type":"address","internalType":"address"}],"outputs":[{"name":"","type":"uint256","internalType":"uint256"}],"stateMutability":"view"},{"type":"function","name":"getRoleAdmin","inputs":[{"name":"role","type":"bytes32","internalType":"bytes32"}],"outputs":[{"name":"","type":"bytes32","internalType":"bytes32"}],"stateMutability":"view"},{"type":"function","name":"getStakeAmountWithFees","inputs":[],"outputs":[{"name":"","type":"uint256","internalType":"uint256"}],"stateMutability":"view"},{"type":"function","name":"grantRole","inputs":[{"name":"role","type":"bytes32","internalType":"bytes32"},{"name":"account","type":"address","internalType":"address"}],"outputs":[],"stateMutability":"nonpayable"},{"type":"function","name":"hasRole","inputs":[{"name":"role","type":"bytes32","internalType":"bytes32"},{"name":"account","type":"address","internalType":"address"}],"outputs":[{"name":"","type":"bool","internalType":"bool"}],"stateMutability":"view"},{"type":"function","name":"increasePower","inputs":[{"name":"_amountStaked","type":"uint256","internalType":"uint256"}],"outputs":[],"stateMutability":"nonpayable"},{"type":"function","name":"initialize","inputs":[{"name":"params","type":"tuple","internalType":"struct RegistryCommunityInitializeParamsV0_0","components":[{"name":"_allo","type":"address","internalType":"address"},{"name":"_gardenToken","type":"address","internalType":"contract IERC20"},{"name":"_registerStakeAmount","type":"uint256","internalType":"uint256"},{"name":"_communityFee","type":"uint256","internalType":"uint256"},{"name":"_nonce","type":"uint256","internalType":"uint256"},{"name":"_registryFactory","type":"address","internalType":"address"},{"name":"_feeReceiver","type":"address","internalType":"address"},{"name":"_metadata","type":"tuple","internalType":"struct Metadata","components":[{"name":"protocol","type":"uint256","internalType":"uint256"},{"name":"pointer","type":"string","internalType":"string"}]},{"name":"_councilSafe","type":"address","internalType":"address payable"},{"name":"_communityName","type":"string","internalType":"string"},{"name":"_isKickEnabled","type":"bool","internalType":"bool"},{"name":"covenantIpfsHash","type":"string","internalType":"string"}]},{"name":"_strategyTemplate","type":"address","internalType":"address"},{"name":"_collateralVaultTemplate","type":"address","internalType":"address"},{"name":"_owner","type":"address","internalType":"address"}],"outputs":[],"stateMutability":"nonpayable"},{"type":"function","name":"initialize","inputs":[{"name":"initialOwner","type":"address","internalType":"address"}],"outputs":[],"stateMutability":"nonpayable"},{"type":"function","name":"isCouncilMember","inputs":[{"name":"_member","type":"address","internalType":"address"}],"outputs":[{"name":"","type":"bool","internalType":"bool"}],"stateMutability":"view"},{"type":"function","name":"isKickEnabled","inputs":[],"outputs":[{"name":"","type":"bool","internalType":"bool"}],"stateMutability":"view"},{"type":"function","name":"isMember","inputs":[{"name":"_member","type":"address","internalType":"address"}],"outputs":[{"name":"","type":"bool","internalType":"bool"}],"stateMutability":"view"},{"type":"function","name":"kickMember","inputs":[{"name":"_member","type":"address","internalType":"address"},{"name":"_transferAddress","type":"address","internalType":"address"}],"outputs":[],"stateMutability":"nonpayable"},{"type":"function","name":"memberActivatedInStrategies","inputs":[{"name":"member","type":"address","internalType":"address"},{"name":"strategy","type":"address","internalType":"address"}],"outputs":[{"name":"isActivated","type":"bool","internalType":"bool"}],"stateMutability":"view"},{"type":"function","name":"memberPowerInStrategy","inputs":[{"name":"strategy","type":"address","internalType":"address"},{"name":"member","type":"address","internalType":"address"}],"outputs":[{"name":"power","type":"uint256","internalType":"uint256"}],"stateMutability":"view"},{"type":"function","name":"onlyStrategyEnabled","inputs":[{"name":"_strategy","type":"address","internalType":"address"}],"outputs":[],"stateMutability":"view"},{"type":"function","name":"owner","inputs":[],"outputs":[{"name":"","type":"address","internalType":"address"}],"stateMutability":"view"},{"type":"function","name":"pendingCouncilSafe","inputs":[],"outputs":[{"name":"","type":"address","internalType":"address payable"}],"stateMutability":"view"},{"type":"function","name":"profileId","inputs":[],"outputs":[{"name":"","type":"bytes32","internalType":"bytes32"}],"stateMutability":"view"},{"type":"function","name":"proxiableUUID","inputs":[],"outputs":[{"name":"","type":"bytes32","internalType":"bytes32"}],"stateMutability":"view"},{"type":"function","name":"proxyOwner","inputs":[],"outputs":[{"name":"","type":"address","internalType":"address"}],"stateMutability":"view"},{"type":"function","name":"registerStakeAmount","inputs":[],"outputs":[{"name":"","type":"uint256","internalType":"uint256"}],"stateMutability":"view"},{"type":"function","name":"registry","inputs":[],"outputs":[{"name":"","type":"address","internalType":"contract IRegistry"}],"stateMutability":"view"},{"type":"function","name":"registryFactory","inputs":[],"outputs":[{"name":"","type":"address","internalType":"address"}],"stateMutability":"view"},{"type":"function","name":"rejectPool","inputs":[{"name":"_strategy","type":"address","internalType":"address"}],"outputs":[],"stateMutability":"nonpayable"},{"type":"function","name":"removeStrategy","inputs":[{"name":"_strategy","type":"address","internalType":"address"}],"outputs":[],"stateMutability":"nonpayable"},{"type":"function","name":"removeStrategyByPoolId","inputs":[{"name":"poolId","type":"uint256","internalType":"uint256"}],"outputs":[],"stateMutability":"nonpayable"},{"type":"function","name":"renounceOwnership","inputs":[],"outputs":[],"stateMutability":"nonpayable"},{"type":"function","name":"renounceRole","inputs":[{"name":"role","type":"bytes32","internalType":"bytes32"},{"name":"account","type":"address","internalType":"address"}],"outputs":[],"stateMutability":"nonpayable"},{"type":"function","name":"revokeRole","inputs":[{"name":"role","type":"bytes32","internalType":"bytes32"},{"name":"account","type":"address","internalType":"address"}],"outputs":[],"stateMutability":"nonpayable"},{"type":"function","name":"setBasisStakedAmount","inputs":[{"name":"_newAmount","type":"uint256","internalType":"uint256"}],"outputs":[],"stateMutability":"nonpayable"},{"type":"function","name":"setCollateralVaultTemplate","inputs":[{"name":"template","type":"address","internalType":"address"}],"outputs":[],"stateMutability":"nonpayable"},{"type":"function","name":"setCommunityFee","inputs":[{"name":"_newCommunityFee","type":"uint256","internalType":"uint256"}],"outputs":[],"stateMutability":"nonpayable"},{"type":"function","name":"setCommunityParams","inputs":[{"name":"_params","type":"tuple","internalType":"struct CommunityParams","components":[{"name":"councilSafe","type":"address","internalType":"address"},{"name":"feeReceiver","type":"address","internalType":"address"},{"name":"communityFee","type":"uint256","internalType":"uint256"},{"name":"communityName","type":"string","internalType":"string"},{"name":"registerStakeAmount","type":"uint256","internalType":"uint256"},{"name":"isKickEnabled","type":"bool","internalType":"bool"},{"name":"covenantIpfsHash","type":"string","internalType":"string"}]}],"outputs":[],"stateMutability":"nonpayable"},{"type":"function","name":"setCouncilSafe","inputs":[{"name":"_safe","type":"address","internalType":"address payable"}],"outputs":[],"stateMutability":"nonpayable"},{"type":"function","name":"setStrategyTemplate","inputs":[{"name":"template","type":"address","internalType":"address"}],"outputs":[],"stateMutability":"nonpayable"},{"type":"function","name":"stakeAndRegisterMember","inputs":[{"name":"covenantSig","type":"string","internalType":"string"}],"outputs":[],"stateMutability":"nonpayable"},{"type":"function","name":"strategiesByMember","inputs":[{"name":"member","type":"address","internalType":"address"},{"name":"","type":"uint256","internalType":"uint256"}],"outputs":[{"name":"strategiesAddresses","type":"address","internalType":"address"}],"stateMutability":"view"},{"type":"function","name":"strategyTemplate","inputs":[],"outputs":[{"name":"","type":"address","internalType":"address"}],"stateMutability":"view"},{"type":"function","name":"supportsInterface","inputs":[{"name":"interfaceId","type":"bytes4","internalType":"bytes4"}],"outputs":[{"name":"","type":"bool","internalType":"bool"}],"stateMutability":"view"},{"type":"function","name":"totalMembers","inputs":[],"outputs":[{"name":"","type":"uint256","internalType":"uint256"}],"stateMutability":"view"},{"type":"function","name":"transferOwnership","inputs":[{"name":"newOwner","type":"address","internalType":"address"}],"outputs":[],"stateMutability":"nonpayable"},{"type":"function","name":"unregisterMember","inputs":[],"outputs":[],"stateMutability":"nonpayable"},{"type":"function","name":"upgradeTo","inputs":[{"name":"newImplementation","type":"address","internalType":"address"}],"outputs":[],"stateMutability":"nonpayable"},{"type":"function","name":"upgradeToAndCall","inputs":[{"name":"newImplementation","type":"address","internalType":"address"},{"name":"data","type":"bytes","internalType":"bytes"}],"outputs":[],"stateMutability":"payable"},{"type":"event","name":"AdminChanged","inputs":[{"name":"previousAdmin","type":"address","indexed":false,"internalType":"address"},{"name":"newAdmin","type":"address","indexed":false,"internalType":"address"}],"anonymous":false},{"type":"event","name":"BasisStakedAmountUpdated","inputs":[{"name":"_newAmount","type":"uint256","indexed":false,"internalType":"uint256"}],"anonymous":false},{"type":"event","name":"BeaconUpgraded","inputs":[{"name":"beacon","type":"address","indexed":true,"internalType":"address"}],"anonymous":false},{"type":"event","name":"CommunityFeeUpdated","inputs":[{"name":"_newFee","type":"uint256","indexed":false,"internalType":"uint256"}],"anonymous":false},{"type":"event","name":"CommunityNameUpdated","inputs":[{"name":"_communityName","type":"string","indexed":false,"internalType":"string"}],"anonymous":false},{"type":"event","name":"CouncilSafeChangeStarted","inputs":[{"name":"_safeOwner","type":"address","indexed":false,"internalType":"address"},{"name":"_newSafeOwner","type":"address","indexed":false,"internalType":"address"}],"anonymous":false},{"type":"event","name":"CouncilSafeUpdated","inputs":[{"name":"_safe","type":"address","indexed":false,"internalType":"address"}],"anonymous":false},{"type":"event","name":"CovenantIpfsHashUpdated","inputs":[{"name":"_covenantIpfsHash","type":"string","indexed":false,"internalType":"string"}],"anonymous":false},{"type":"event","name":"FeeReceiverChanged","inputs":[{"name":"_feeReceiver","type":"address","indexed":false,"internalType":"address"}],"anonymous":false},{"type":"event","name":"Initialized","inputs":[{"name":"version","type":"uint8","indexed":false,"internalType":"uint8"}],"anonymous":false},{"type":"event","name":"KickEnabledUpdated","inputs":[{"name":"_isKickEnabled","type":"bool","indexed":false,"internalType":"bool"}],"anonymous":false},{"type":"event","name":"MemberActivatedStrategy","inputs":[{"name":"_member","type":"address","indexed":false,"internalType":"address"},{"name":"_strategy","type":"address","indexed":false,"internalType":"address"},{"name":"_pointsToIncrease","type":"uint256","indexed":false,"internalType":"uint256"}],"anonymous":false},{"type":"event","name":"MemberDeactivatedStrategy","inputs":[{"name":"_member","type":"address","indexed":false,"internalType":"address"},{"name":"_strategy","type":"address","indexed":false,"internalType":"address"}],"anonymous":false},{"type":"event","name":"MemberKicked","inputs":[{"name":"_member","type":"address","indexed":false,"internalType":"address"},{"name":"_transferAddress","type":"address","indexed":false,"internalType":"address"},{"name":"_amountReturned","type":"uint256","indexed":false,"internalType":"uint256"}],"anonymous":false},{"type":"event","name":"MemberPowerDecreased","inputs":[{"name":"_member","type":"address","indexed":false,"internalType":"address"},{"name":"_unstakedAmount","type":"uint256","indexed":false,"internalType":"uint256"}],"anonymous":false},{"type":"event","name":"MemberPowerIncreased","inputs":[{"name":"_member","type":"address","indexed":false,"internalType":"address"},{"name":"_stakedAmount","type":"uint256","indexed":false,"internalType":"uint256"}],"anonymous":false},{"type":"event","name":"MemberRegistered","inputs":[{"name":"_member","type":"address","indexed":false,"internalType":"address"},{"name":"_amountStaked","type":"uint256","indexed":false,"internalType":"uint256"}],"anonymous":false},{"type":"event","name":"MemberRegisteredWithCovenant","inputs":[{"name":"_member","type":"address","indexed":false,"internalType":"address"},{"name":"_amountStaked","type":"uint256","indexed":false,"internalType":"uint256"},{"name":"_covenantSig","type":"string","indexed":false,"internalType":"string"}],"anonymous":false},{"type":"event","name":"MemberUnregistered","inputs":[{"name":"_member","type":"address","indexed":false,"internalType":"address"},{"name":"_amountReturned","type":"uint256","indexed":false,"internalType":"uint256"}],"anonymous":false},{"type":"event","name":"OwnershipTransferred","inputs":[{"name":"previousOwner","type":"address","indexed":true,"internalType":"address"},{"name":"newOwner","type":"address","indexed":true,"internalType":"address"}],"anonymous":false},{"type":"event","name":"PoolCreated","inputs":[{"name":"_poolId","type":"uint256","indexed":false,"internalType":"uint256"},{"name":"_strategy","type":"address","indexed":false,"internalType":"address"},{"name":"_community","type":"address","indexed":false,"internalType":"address"},{"name":"_token","type":"address","indexed":false,"internalType":"address"},{"name":"_metadata","type":"tuple","indexed":false,"internalType":"struct Metadata","components":[{"name":"protocol","type":"uint256","internalType":"uint256"},{"name":"pointer","type":"string","internalType":"string"}]}],"anonymous":false},{"type":"event","name":"PoolRejected","inputs":[{"name":"_strategy","type":"address","indexed":false,"internalType":"address"}],"anonymous":false},{"type":"event","name":"RegistryInitialized","inputs":[{"name":"_profileId","type":"bytes32","indexed":false,"internalType":"bytes32"},{"name":"_communityName","type":"string","indexed":false,"internalType":"string"},{"name":"_metadata","type":"tuple","indexed":false,"internalType":"struct Metadata","components":[{"name":"protocol","type":"uint256","internalType":"uint256"},{"name":"pointer","type":"string","internalType":"string"}]}],"anonymous":false},{"type":"event","name":"RoleAdminChanged","inputs":[{"name":"role","type":"bytes32","indexed":true,"internalType":"bytes32"},{"name":"previousAdminRole","type":"bytes32","indexed":true,"internalType":"bytes32"},{"name":"newAdminRole","type":"bytes32","indexed":true,"internalType":"bytes32"}],"anonymous":false},{"type":"event","name":"RoleGranted","inputs":[{"name":"role","type":"bytes32","indexed":true,"internalType":"bytes32"},{"name":"account","type":"address","indexed":true,"internalType":"address"},{"name":"sender","type":"address","indexed":true,"internalType":"address"}],"anonymous":false},{"type":"event","name":"RoleRevoked","inputs":[{"name":"role","type":"bytes32","indexed":true,"internalType":"bytes32"},{"name":"account","type":"address","indexed":true,"internalType":"address"},{"name":"sender","type":"address","indexed":true,"internalType":"address"}],"anonymous":false},{"type":"event","name":"StrategyAdded","inputs":[{"name":"_strategy","type":"address","indexed":false,"internalType":"address"}],"anonymous":false},{"type":"event","name":"StrategyRemoved","inputs":[{"name":"_strategy","type":"address","indexed":false,"internalType":"address"}],"anonymous":false},{"type":"event","name":"Upgraded","inputs":[{"name":"implementation","type":"address","indexed":true,"internalType":"address"}],"anonymous":false},{"type":"error","name":"AllowlistTooBig","inputs":[{"name":"size","type":"uint256","internalType":"uint256"}]},{"type":"error","name":"CallerNotOwner","inputs":[{"name":"_caller","type":"address","internalType":"address"},{"name":"_owner","type":"address","internalType":"address"}]},{"type":"error","name":"CantDecreaseMoreThanPower","inputs":[{"name":"_decreaseAmount","type":"uint256","internalType":"uint256"},{"name":"_currentPower","type":"uint256","internalType":"uint256"}]},{"type":"error","name":"DecreaseUnderMinimum","inputs":[]},{"type":"error","name":"KickNotEnabled","inputs":[]},{"type":"error","name":"NewFeeGreaterThanMax","inputs":[]},{"type":"error","name":"OnlyEmptyCommunity","inputs":[{"name":"totalMembers","type":"uint256","internalType":"uint256"}]},{"type":"error","name":"PointsDeactivated","inputs":[]},{"type":"error","name":"SenderNotNewOwner","inputs":[]},{"type":"error","name":"SenderNotStrategy","inputs":[]},{"type":"error","name":"StrategyDisabled","inputs":[]},{"type":"error","name":"StrategyExists","inputs":[]},{"type":"error","name":"UserAlreadyActivated","inputs":[]},{"type":"error","name":"UserAlreadyDeactivated","inputs":[]},{"type":"error","name":"UserNotInCouncil","inputs":[{"name":"_user","type":"address","internalType":"address"}]},{"type":"error","name":"UserNotInRegistry","inputs":[]},{"type":"error","name":"ValueCannotBeZero","inputs":[]}],"bytecode":{"object":"0x60a06040523060805234801561001457600080fd5b506080516162c86200004d60003960008181611c2901528181611c6c01528181611d9701528181611dda0152611e5b01526162c86000f3fe608060405260043610620003685760003560e01c806301ffc9a7146200036d578063025313a214620003a75780630331383c14620003ce57806308386eba14620003ef5780630d12bbdb14620004075780630d4a8b49146200042e578063175188e814620004535780631b71f0e414620004785780631f787d28146200049d578063223e547914620004b857806322bcf99914620004dd578063248a9ca3146200050257806328c309e914620005275780632b38c69c146200053f5780632c611c4a14620005645780632f2ff15d14620005a257806331f61bca14620005c75780633396045914620005ec57806334196355146200060457806336568abe14620006295780633659cfe6146200064e578063397e254314620006735780633a871fe11462000698578063411481e614620006cd578063477a5cc014620006f25780634f1ef286146200073257806352d1902d1462000749578063559de05d14620007615780635c94e4d214620007865780635ecf71c514620007a957806365e3864c14620007ce5780636871eb4d146200080b57806368decabb14620008305780636c53db9a1462000853578063715018a6146200087657806373265c37146200088e578063733a2d1f14620008b357806376e9255914620008d857806377122d5614620008f15780637817ee4f146200091457806378a0b8a9146200095f5780637b103999146200097757806382d6a1e7146200099a57806388cfe68414620009bf5780638961be6b1462000a355780638da5cb5b1462000a4d57806391d148541462000a655780639a1f46e21462000a8a578063a0cf0aea1462000aaf578063a217fddf1462000ad9578063a230c5241462000af0578063b0d3713a1462000b15578063b3f006741462000b3a578063b5058c501462000b61578063b64e39af1462000b79578063b99b43701462000ba0578063bc063e1a1462000bb8578063c4d66de81462000bd0578063c6d572ae1462000bf5578063d547741f1462000c0d578063d6d8428d1462000c32578063d7050f071462000c55578063db61d65c1462000c6d578063e0eab9881462000c90578063ebd7dc521462000cd3578063f24b150f1462000cf8578063f2d774e71462000d1d578063f2fde38b1462000d42578063f86c5f891462000d67578063fb1f69171462000d8a578063ffa1ad741462000daf575b600080fd5b3480156200037a57600080fd5b50620003926200038c36600462004783565b62000de0565b60405190151581526020015b60405180910390f35b348015620003b457600080fd5b50620003bf62000e18565b6040516200039e9190620047bc565b348015620003db57600080fd5b5060fb545b6040519081526020016200039e565b348015620003fc57600080fd5b50620003e060fe5481565b3480156200041457600080fd5b506200042c62000426366004620047d0565b62000e32565b005b3480156200043b57600080fd5b506200042c6200044d3660046200480d565b62000ea8565b3480156200046057600080fd5b506200042c620004723660046200484b565b6200122c565b3480156200048557600080fd5b506200042c620004973660046200484b565b62001244565b348015620004aa57600080fd5b5060ff805462000392911681565b348015620004c557600080fd5b506200042c620004d73660046200484b565b62001271565b348015620004ea57600080fd5b506200042c620004fc3660046200480d565b62001286565b3480156200050f57600080fd5b50620003e062000521366004620047d0565b62001375565b3480156200053457600080fd5b50620003e06200138a565b3480156200054c57600080fd5b50620003bf6200055e3660046200486b565b62001485565b3480156200057157600080fd5b50620003e0620005833660046200484b565b6001600160a01b0316600090815261010c602052604090206001015490565b348015620005af57600080fd5b506200042c620005c13660046200489a565b620014bf565b348015620005d457600080fd5b506200042c620005e6366004620047d0565b620014e6565b348015620005f957600080fd5b50620003e060fd5481565b3480156200061157600080fd5b506200042c6200062336600462004acf565b62001530565b3480156200063657600080fd5b506200042c620006483660046200489a565b62001ba1565b3480156200065b57600080fd5b506200042c6200066d3660046200484b565b62001c1f565b3480156200068057600080fd5b506200042c620006923660046200484b565b62001cf0565b348015620006a557600080fd5b5062000392620006b73660046200484b565b61010a6020526000908152604090205460ff1681565b348015620006da57600080fd5b506200042c620006ec3660046200484b565b62001d52565b348015620006ff57600080fd5b5062000392620007113660046200480d565b61010e60209081526000928352604080842090915290825290205460ff1681565b6200042c6200074336600462004c62565b62001d8d565b3480156200075657600080fd5b50620003e062001e4e565b3480156200076e57600080fd5b506200042c62000780366004620047d0565b62001eff565b3480156200079357600080fd5b5061010254620003bf906001600160a01b031681565b348015620007b657600080fd5b506200042c620007c8366004620047d0565b6200211a565b348015620007db57600080fd5b50620003e0620007ed3660046200480d565b61010b60209081526000928352604080842090915290825290205481565b3480156200081857600080fd5b506200042c6200082a3660046200480d565b620024ca565b3480156200083d57600080fd5b5061010354620003bf906001600160a01b031681565b3480156200086057600080fd5b5061010654620003bf906001600160a01b031681565b3480156200088357600080fd5b506200042c62002641565b3480156200089b57600080fd5b506200042c620008ad366004620047d0565b62002659565b348015620008c057600080fd5b50620003e06000805160206200620c83398151915281565b348015620008e557600080fd5b50620003e06101105481565b348015620008fe57600080fd5b5061010154620003bf906001600160a01b031681565b3480156200092157600080fd5b50620003e0620009333660046200480d565b6001600160a01b03918216600090815261010b6020908152604080832093909416825291909152205490565b3480156200096c57600080fd5b50620003e060fb5481565b3480156200098457600080fd5b5061010454620003bf906001600160a01b031681565b348015620009a757600080fd5b506200042c620009b9366004620047d0565b620026ea565b348015620009cc57600080fd5b5062000a0d620009de3660046200484b565b61010c602052600090815260409020805460018201546002909201546001600160a01b03909116919060ff1683565b604080516001600160a01b03909416845260208401929092521515908201526060016200039e565b34801562000a4257600080fd5b50620003e060fc5481565b34801562000a5a57600080fd5b50620003bf6200279d565b34801562000a7257600080fd5b506200039262000a843660046200489a565b6200283f565b34801562000a9757600080fd5b506200042c62000aa936600462004ccc565b6200286a565b34801562000abc57600080fd5b50620003bf73eeeeeeeeeeeeeeeeeeeeeeeeeeeeeeeeeeeeeeee81565b34801562000ae657600080fd5b50620003e0600081565b34801562000afd57600080fd5b506200039262000b0f3660046200484b565b62002ad8565b34801562000b2257600080fd5b506200042c62000b343660046200484b565b62002afa565b34801562000b4757600080fd5b5060ff54620003bf9061010090046001600160a01b031681565b34801562000b6e57600080fd5b506200042c62002b27565b34801562000b8657600080fd5b5062000b9162002c0b565b6040516200039e919062004d58565b34801562000bad57600080fd5b506200042c62002ca2565b34801562000bc557600080fd5b50620003e062002dd1565b34801562000bdd57600080fd5b506200042c62000bef3660046200484b565b62002de3565b34801562000c0257600080fd5b5062000b9162002e18565b34801562000c1a57600080fd5b506200042c62000c2c3660046200489a565b62002e28565b34801562000c3f57600080fd5b5061010754620003bf906001600160a01b031681565b34801562000c6257600080fd5b50620003e061271081565b34801562000c7a57600080fd5b5061010554620003bf906001600160a01b031681565b34801562000c9d57600080fd5b5062000cb562000caf3660046200503c565b62002e4a565b604080519283526001600160a01b039091166020830152016200039e565b34801562000ce057600080fd5b506200039262000cf23660046200484b565b6200308a565b34801562000d0557600080fd5b5062000cb562000d17366004620050ba565b620030a7565b34801562000d2a57600080fd5b506200042c62000d3c3660046200514d565b620031d1565b34801562000d4f57600080fd5b506200042c62000d613660046200484b565b62003472565b34801562000d7457600080fd5b5061010054620003bf906001600160a01b031681565b34801562000d9757600080fd5b506200042c62000da93660046200484b565b620034e3565b34801562000dbc57600080fd5b5062000b91604051806040016040528060038152602001620302e360ec1b81525081565b60006001600160e01b03198216637965db0b60e01b148062000e1257506301ffc9a760e01b6001600160e01b03198316145b92915050565b600062000e2d6033546001600160a01b031690565b905090565b62000e3c6200354c565b62000e4b612710600a6200524b565b81111562000e6c5760405163fe925f7d60e01b815260040160405180910390fd5b60fc8190556040518181527f611668bfcf654a99c33cdb66c29ec37a5aae5c1287d2d9715a24e18cb4d806d6906020015b60405180910390a150565b62000eb262003589565b62000ebd82620035e4565b62000ec88162001d52565b62000ed433826200360d565b6001600160a01b03808316600090815261010e602090815260408083209385168352929052205460ff161562000f1d57604051636adcde4b60e11b815260040160405180910390fd5b6001600160a01b03808316600090815261010c602090815260409182902082516060810184528154909416845260018101549184018290526002015460ff1615159183019190915260fb546003846001600160a01b031663c32921716040518163ffffffff1660e01b81526004016020604051808303816000875af115801562000fab573d6000803e3d6000fd5b505050506040513d601f19601f8201168201806040525081019062000fd191906200527b565b600381111562000fe55762000fe562005265565b036200106a5760405163782aadff60e01b81526001600160a01b0385169063782aadff906200101c9088906000906004016200529b565b6020604051808303816000875af11580156200103c573d6000803e3d6000fd5b505050506040513d601f19601f82011682018060405250810190620010629190620052b4565b905062001166565b6000846001600160a01b031663c32921716040518163ffffffff1660e01b81526004016020604051808303816000875af1158015620010ad573d6000803e3d6000fd5b505050506040513d601f19601f82011682018060405250810190620010d391906200527b565b6003811115620010e757620010e762005265565b14620011665760405163782aadff60e01b81526001600160a01b0385169063782aadff906200111d90889086906004016200529b565b6020604051808303816000875af11580156200113d573d6000803e3d6000fd5b505050506040513d601f19601f82011682018060405250810190620011639190620052b4565b90505b6001600160a01b03808616600081815261010b6020908152604080832094891680845294825280832086905583835261010e82528083208584528252808320805460ff1916600190811790915593835261010d8252808320805494850181558352912090910180546001600160a01b031916909217909155517ff56fa57e85e169a12200d12d9921ec069b52e688f6d309d9dab7bceff54614ec906200121290879087908590620052ce565b60405180910390a1505050620012286001606555565b5050565b620012366200354c565b620012418162003647565b50565b6200124e6200369a565b61010280546001600160a01b0319166001600160a01b0392909216919091179055565b6200127b6200354c565b6200124181620036fd565b6200129182620035e4565b6200129d33826200360d565b6001600160a01b03808316600090815261010e602090815260408083209385168352929052205460ff16620012e557604051633048da7760e21b815260040160405180910390fd5b6001600160a01b03808316600081815261010e60209081526040808320948616808452948252808320805460ff1916905592825261010b81528282209382529290925281205562001337828262003866565b7ede109bef4619f7e2cf00c8e5a50ca55f8deb44f87087eed414a91dbf8d1d1b828260405162001369929190620052f2565b60405180910390a15050565b600090815260c9602052604090206001015490565b6000806200139c61271060646200524b565b60fc5460fb54620013ae91906200524b565b620013ba91906200530c565b90506000620013cd61271060646200524b565b610100546040516302a64b8360e21b81526001600160a01b0390911690630a992e0c9062001400903090600401620047bc565b602060405180830381865afa1580156200141e573d6000803e3d6000fd5b505050506040513d601f19601f82011682018060405250810190620014449190620052b4565b60fb546200145391906200524b565b6200145f91906200530c565b9050808260fb546200147291906200532f565b6200147e91906200532f565b9250505090565b61010d6020528160005260406000208181548110620014a357600080fd5b6000918252602090912001546001600160a01b03169150829050565b620014ca8262001375565b620014d5816200399c565b620014e18383620039a8565b505050565b620014f06200354c565b620014fa62003a32565b60fb8190556040518181527f5e2d447f427e49fd08832fd025a56589500352417199aa65728feaf05123e8569060200162000e9d565b600054610100900460ff1615808015620015515750600054600160ff909116105b80620015765750620015633062003a5d565b15801562001576575060005460ff166001145b620015df5760405162461bcd60e51b815260206004820152602e60248201527f496e697469616c697a61626c653a20636f6e747261637420697320616c72656160448201526d191e481a5b9a5d1a585b1a5e995960921b60648201526084015b60405180910390fd5b6000805460ff19166001179055801562001603576000805461ff0019166101001790555b6200160e8262002de3565b6200161862003a6c565b6200162262003aa0565b6200163e6000805160206200620c833981519152600062003aca565b845161010780546001600160a01b039283166001600160a01b03199182161790915560208701516101058054919093169116179055604085015160000362001699576040516363868c5560e11b815260040160405180910390fd5b604085015160fb55606085015160fc5561014085015160ff805460ff191691151591909117905561012085015161010890620016d69082620053d3565b5061016085015161010990620016ed9082620053d3565b5060a085015161010080546001600160a01b03199081166001600160a01b0393841617825560c088015160ff8054610100600160a81b031916918516840291909117905590870151610106805490921692811692909217905560006101105562001768906000805160206200620c83398151915290620039a8565b61010760009054906101000a90046001600160a01b03166001600160a01b0316635ab1bd536040518163ffffffff1660e01b8152600401602060405180830381865afa158015620017bd573d6000803e3d6000fd5b505050506040513d601f19601f82011682018060405250810190620017e391906200549f565b61010480546001600160a01b0319166001600160a01b0392831617905561010654606091163b6000036200186f576040805160038082526080820190925290602082016060803683370190505090503381600081518110620018495762001849620054bf565b60200260200101906001600160a01b031690816001600160a01b031681525050620019ac565b610106546040805163a0e67e2b60e01b815290516000926001600160a01b03169163a0e67e2b91600480830192869291908290030181865afa158015620018ba573d6000803e3d6000fd5b505050506040513d6000823e601f3d908101601f19168201604052620018e49190810190620054d5565b905080516002620018f691906200532f565b6001600160401b03811115620019105762001910620048c2565b6040519080825280602002602001820160405280156200193a578160200160208202803683370190505b50915060005b8151811015620019a9578181815181106200195f576200195f620054bf565b60200260200101518382815181106200197c576200197c620054bf565b6001600160a01b039092166020928302919091019091015280620019a0816200556e565b91505062001940565b50505b6101065481516001600160a01b03909116908290620019ce906001906200558a565b81518110620019e157620019e1620054bf565b60200260200101906001600160a01b031690816001600160a01b03168152505030816002835162001a1391906200558a565b8151811062001a265762001a26620054bf565b6001600160a01b03928316602091820292909201015261010454608088015160e0890151604051633a92f65f60e01b81529290931692633a92f65f9262001a79929161010891309088906004016200568c565b6020604051808303816000875af115801562001a99573d6000803e3d6000fd5b505050506040513d601f19601f8201168201806040525081019062001abf9190620052b4565b60fe55805162001ad89061010f906020840190620046d4565b5061010280546001600160a01b038088166001600160a01b03199283161790925561010180549287169290911691909117905560fe5460e08701516040517f2f2ffcb06f8a1d35e2716f6b43ef2c19bfa76467d8f66964ae12c2583ed032059262001b4a9290916101089190620056ec565b60405180910390a150801562001b9a576000805461ff0019169055604051600181527f7f26b83ff96e1f2b6a682f133852f6798a09c465da95921460cefb38474024989060200160405180910390a15b5050505050565b6001600160a01b038116331462001c135760405162461bcd60e51b815260206004820152602f60248201527f416363657373436f6e74726f6c3a2063616e206f6e6c792072656e6f756e636560448201526e103937b632b9903337b91039b2b63360891b6064820152608401620015d6565b62001228828262003b1f565b6001600160a01b037f000000000000000000000000000000000000000000000000000000000000000016300362001c6a5760405162461bcd60e51b8152600401620015d6906200571b565b7f00000000000000000000000000000000000000000000000000000000000000006001600160a01b031662001c9e62003b89565b6001600160a01b03161462001cc75760405162461bcd60e51b8152600401620015d69062005756565b62001cd28162003ba6565b60408051600080825260208201909252620012419183919062003be8565b62001cfa6200354c565b61010380546001600160a01b0319166001600160a01b03838116918217909255610106546040517f83eac9fdaff0ac1017624b7eddeb9782e3d707cd894073cb7e8301a41c6e5cf89362000e9d9392169190620052f2565b6001600160a01b038116600090815261010a602052604090205460ff1662001241576040516346c26e4b60e01b815260040160405180910390fd5b6001600160a01b037f000000000000000000000000000000000000000000000000000000000000000016300362001dd85760405162461bcd60e51b8152600401620015d6906200571b565b7f00000000000000000000000000000000000000000000000000000000000000006001600160a01b031662001e0c62003b89565b6001600160a01b03161462001e355760405162461bcd60e51b8152600401620015d69062005756565b62001e408262003ba6565b620012288282600162003be8565b6000306001600160a01b037f0000000000000000000000000000000000000000000000000000000000000000161462001eeb5760405162461bcd60e51b815260206004820152603860248201527f555550535570677261646561626c653a206d757374206e6f742062652063616c6044820152771b1959081d1a1c9bdd59da0819195b1959d85d1958d85b1b60421b6064820152608401620015d6565b506000805160206200624c83398151915290565b62001f0962003589565b62001f1362003d60565b336000805b6001600160a01b038316600090815261010d602052604090205481101562002082576001600160a01b038316600090815261010d6020526040902080548290811062001f685762001f68620054bf565b60009182526020909120015460405163782aadff60e01b81526001600160a01b039091169063782aadff9062001fa590869088906004016200529b565b6020604051808303816000875af115801562001fc5573d6000803e3d6000fd5b505050506040513d601f19601f8201168201806040525081019062001feb9190620052b4565b915081156200206d576001600160a01b038316600090815261010b6020908152604080832061010d909252822080548593919085908110620020315762002031620054bf565b60009182526020808320909101546001600160a01b0316835282019290925260400181208054909190620020679084906200532f565b90915550505b8062002079816200556e565b91505062001f18565b50610105546200209e906001600160a01b031683308662003d89565b6001600160a01b038216600090815261010c602052604081206001018054859290620020cc9084906200532f565b90915550506040517f576605f9bfe8911e7508bed3763c7c5c8eb3b86e8b360b90a4bc6abe1104cb7f906200210590849086906200529b565b60405180910390a15050620012416001606555565b6200212462003589565b6200212e62003d60565b33600081815261010d6020908152604080832060fb5461010c9093529083206001015490929190620021629086906200558a565b10156200218257604051634e23e81760e11b815260040160405180910390fd5b610105546200219c906001600160a01b0316848662003de5565b60005b82548110156200244c576000838281548110620021c057620021c0620054bf565b6000918252602090912001546001600160a01b03169050620021ea8163f1801e6160e01b62003e07565b156200237057604051632ed04b2b60e01b81526001600160a01b03821690632ed04b2b90620022209088908a906004016200529b565b6020604051808303816000875af115801562002240573d6000803e3d6000fd5b505050506040513d601f19601f82011682018060405250810190620022669190620052b4565b9250600061010b6000876001600160a01b03166001600160a01b031681526020019081526020016000206000868581548110620022a757620022a7620054bf565b60009182526020808320909101546001600160a01b03168352820192909252604001902054905080841115620022fb576040516311423e6360e31b81526004810185905260248101829052604401620015d6565b6001600160a01b038616600090815261010b6020526040812086548692908890879081106200232e576200232e620054bf565b60009182526020808320909101546001600160a01b0316835282019290925260400181208054909190620023649084906200558a565b90915550505062002436565b8354849062002382906001906200558a565b81548110620023955762002395620054bf565b9060005260206000200160009054906101000a90046001600160a01b0316848381548110620023c857620023c8620054bf565b9060005260206000200160006101000a8154816001600160a01b0302191690836001600160a01b031602179055508380548062002409576200240962005791565b600082815260209020810160001990810180546001600160a01b0319169055019055620024368162003647565b508062002443816200556e565b9150506200219f565b506001600160a01b038316600090815261010c6020526040812060010180548692906200247b9084906200558a565b90915550506040517f6ee2c70b2d6b89ae808a2313aab43e925c06624271419cd665d85cfa1ae04ff890620024b490859087906200529b565b60405180910390a1505050620012416001606555565b620024d462003589565b620024de6200354c565b60ff80541662002501576040516365b1ee3960e11b815260040160405180910390fd5b6200250c8262002ad8565b6200252a57604051636a5cfb6d60e01b815260040160405180910390fd5b6001600160a01b03808316600090815261010c60209081526040918290208251606081018452815490941684526001810154918401919091526002015460ff161515908201526200257b8362003e2f565b6001600160a01b038316600090815261010c6020526040812080546001600160a01b031916815560018082018390556002909101805460ff19169055610110805491929091620025cd9084906200558a565b9091555050602081015161010554620025f4916001600160a01b0390911690849062003de5565b7fb5946f249f8744efe9d14d49a483b54a589b1362944ff6694de93456cceb96a3838383602001516040516200262d93929190620052ce565b60405180910390a150620012286001606555565b6200264b6200369a565b62002657600062003f44565b565b620026636200354c565b6101075460405163068bcd8d60e01b8152600481018390526000916001600160a01b03169063068bcd8d90602401600060405180830381865afa158015620026af573d6000803e3d6000fd5b505050506040513d6000823e601f3d908101601f19168201604052620026d99190810190620057a7565b602001519050620012288162003647565b620026f46200354c565b6101075460405163068bcd8d60e01b8152600481018390526000916001600160a01b03169063068bcd8d90602401600060405180830381865afa15801562002740573d6000803e3d6000fd5b505050506040513d6000823e601f3d908101601f191682016040526200276a9190810190620057a7565b6020015190506200278c6001600160a01b03821663f1801e6160e01b62003e07565b1562001228576200122881620036fd565b6000620027a962000e18565b6001600160a01b03163b600003620027c55762000e2d62000e18565b620027cf62000e18565b6001600160a01b0316638da5cb5b6040518163ffffffff1660e01b8152600401602060405180830381865afa9250505080156200282b575060408051601f3d908101601f1916820190925262002828918101906200549f565b60015b6200283a5762000e2d62000e18565b919050565b600091825260c9602090815260408084206001600160a01b0393909316845291905290205460ff1690565b6200287462003589565b610100546001600160a01b031660006200289261271060646200524b565b60fc5460fb54620028a491906200524b565b620028b091906200530c565b90506000620028c361271060646200524b565b6040516302a64b8360e21b81526001600160a01b03851690630a992e0c90620028f1903090600401620047bc565b602060405180830381865afa1580156200290f573d6000803e3d6000fd5b505050506040513d601f19601f82011682018060405250810190620029359190620052b4565b60fb546200294491906200524b565b6200295091906200530c565b90506200295d3362002ad8565b62002aca5733600081815261010c6020526040902060028101805460ff1916600190811790915560fb549101819055620029c5919030908490620029a39087906200532f565b620029af91906200532f565b610105546001600160a01b031692919062003d89565b8115620029f25760ff5461010554620029f2916001600160a01b0391821691610100909104168462003de5565b801562002a775762002a77836001600160a01b031663987435be6040518163ffffffff1660e01b8152600401602060405180830381865afa15801562002a3c573d6000803e3d6000fd5b505050506040513d601f19601f8201168201806040525081019062002a6291906200549f565b610105546001600160a01b0316908362003de5565b6001610110600082825462002a8d91906200532f565b909155505060fb546040517f0bd09b1e448ffe881e884ac37014bf3e0274007308056b6469b50fa485542abf91620024b4913391908890620058dd565b505050620012416001606555565b6001600160a01b0316600090815261010c602052604090206002015460ff1690565b62002b046200369a565b61010180546001600160a01b0319166001600160a01b0392909216919091179055565b610103546001600160a01b0316331462002b54576040516375e686b760e11b815260040160405180910390fd5b6101035462002b7d906000805160206200620c833981519152906001600160a01b0316620039a8565b6101065462002ba6906000805160206200620c833981519152906001600160a01b031662003b1f565b610103805461010680546001600160a01b0383166001600160a01b031991821681179092559091169091556040517ffea29da7321ca6d0ee0a7359009bb9d4a57035aea0ef6cb4d062341f4a9615199162002c0191620047bc565b60405180910390a1565b610109805462002c1b9062005345565b80601f016020809104026020016040519081016040528092919081815260200182805462002c499062005345565b801562002c9a5780601f1062002c6e5761010080835404028352916020019162002c9a565b820191906000526020600020905b81548152906001019060200180831162002c7c57829003601f168201915b505050505081565b62002cac62003589565b62002cb662003d60565b3362002cc28162003e2f565b6001600160a01b03808216600081815261010c602090815260408083208151606081018352815496871681526001820180548286015260028301805460ff81161515848701529787526001600160a01b03199098169092559084905560ff1990941690945561010d9052918220909162002d3d91906200473e565b610110541562002d63576001610110600082825462002d5d91906200558a565b90915550505b60208101516101055462002d85916001600160a01b0390911690849062003de5565b7fa13f4668aacb68c4e9eed8e3f6e1cbec3eca776896ec46b5eabcc3983fc8f5f482826020015160405162002dbc9291906200529b565b60405180910390a15050620026576001606555565b62002de0612710600a6200524b565b81565b600054610100900460ff1662002e0d5760405162461bcd60e51b8152600401620015d6906200590f565b620012418162003f44565b610108805462002c1b9062005345565b62002e338262001375565b62002e3e816200399c565b620014e1838362003b1f565b610102546101075461010154600092839283926001600160a01b039283169263184b955960e01b928116911662002e8062000e18565b6040516001600160a01b0393841660248201529183166044830152909116606482015260840160408051601f198184030181529181526020820180516001600160e01b03166001600160e01b031990941693909317909252905162002ee5906200475e565b62002ef29291906200595a565b604051809103906000f08015801562002f0f573d6000803e3d6000fd5b50905062002f2081878787620030a7565b60c087015191945092506001600160a01b031662002ff15761271085610100015151111562002f6d578461010001515160405163107b111560e31b8152600401620015d691815260200190565b60008360405160200162002f82919062005980565b60405160208183030381529060405280519060200120905060005b8661010001515181101562002fee5762002fd982886101000151838151811062002fcb5762002fcb620054bf565b6020026020010151620039a8565b8062002fe5816200556e565b91505062002f9d565b50505b6200304d8360405160200162003008919062005980565b60405160208183030381529060405280519060200120846040516020016200303191906200599d565b6040516020818303038152906040528051906020012062003aca565b62003081836040516020016200306491906200599d565b6040516020818303038152906040528051906020012083620039a8565b50935093915050565b600062000e126000805160206200620c833981519152836200283f565b60008073eeeeeeeeeeeeeeeeeeeeeeeeeeeeeeeeeeeeeeee6001600160a01b03861615620030d25750845b6101075460fe546040518994506001600160a01b039092169163e1007d4a9190859062003104908a90602001620059ea565b6040516020818303038152906040528560008a61010f6040518863ffffffff1660e01b81526004016200313e979695949392919062005afe565b6020604051808303816000875af11580156200315e573d6000803e3d6000fd5b505050506040513d601f19601f82011682018060405250810190620031849190620052b4565b92507f778cac0ae0b66477341553a4a89398c61ccf448313d3354ad0ca85a5a825d2838383308988604051620031bf95949392919062005b9a565b60405180910390a15094509492505050565b620031db6200354c565b60fb548160800151141580620031fe575060ff805460a083015115159116151514155b806200322e575061010960405162003217919062005bd6565b60405180910390208160c001518051906020012014155b1562003339576200323e62003a32565b60fb548160800151146200325b576200325b8160800151620014e6565b60ff805460a083015115159116151514620032b95760a081015160ff805460ff191691151591821790556040519081527f4ca826489011b9a44719ccfa206813b072bb58604af41f245a6a1a6d913588759060200160405180910390a15b610109604051620032cb919062005bd6565b60405180910390208160c001518051906020012014620033395760c081015161010990620032fa9082620053d3565b507f8fd46764d9fde733a671bd3aa6710da0668b1c4eb78d33f42e104553ea4bc76e8160c0015160405162003330919062004d58565b60405180910390a15b6101086040516200334b919062005bd6565b604051809103902081606001518051906020012014620033b9576060810151610108906200337a9082620053d3565b507ff67fb6c95f41f58a276869ca2608214f0a6aab1c9ffe445affaa58680fddd4978160600151604051620033b0919062004d58565b60405180910390a15b60fc54816040015114620033d657620033d6816040015162000e32565b60ff5460208201516001600160a01b0390811661010090920416146200345457602081015160ff8054610100600160a81b0319166101006001600160a01b038416021790556040517f647672599d3468abcfa241a13c9e3d34383caadb5cc80fb67c3cdfcd5f786059916200344b91620047bc565b60405180910390a15b80516001600160a01b03161562001241578051620012419062001cf0565b6200347c6200369a565b6001600160a01b03811662002e0d5760405162461bcd60e51b815260206004820152602660248201527f4f776e61626c653a206e6577206f776e657220697320746865207a65726f206160448201526564647265737360d01b6064820152608401620015d6565b620034ed6200354c565b6001600160a01b038116600090815261010a602052604090205460ff16156200351b576200351b8162003647565b7f6723d9f32d040ca8ddd4dabf6f03ad485e63fc3fd625ac1fa1c557de6719314f8160405162000e9d9190620047bc565b620035676000805160206200620c833981519152336200283f565b62002657573360405163fc4be72f60e01b8152600401620015d69190620047bc565b600260655403620035dd5760405162461bcd60e51b815260206004820152601f60248201527f5265656e7472616e637947756172643a207265656e7472616e742063616c6c006044820152606401620015d6565b6002606555565b620035ef8162002ad8565b6200124157604051636a5cfb6d60e01b815260040160405180910390fd5b806001600160a01b0316826001600160a01b031614620012285760405163bbe7961160e01b815260040160405180910390fd5b6001606555565b6001600160a01b038116600090815261010a602052604090819020805460ff19169055517f09a1db4b80c32706328728508c941a6b954f31eb5affd32f236c1fd405f8fea49062000e9d908390620047bc565b33620036a56200279d565b6001600160a01b031614620026575760405162461bcd60e51b815260206004820181905260248201527f4f776e61626c653a2063616c6c6572206973206e6f7420746865206f776e65726044820152606401620015d6565b6001600160a01b038116600090815261010a602052604090205460ff161562003739576040516325a2934b60e21b815260040160405180910390fd5b6001600160a01b038116600081815261010a60209081526040808320805460ff19166001179055805163b6c61f3160e01b8152905192939263b6c61f31926004808401939192918290030181865afa1580156200379a573d6000803e3d6000fd5b505050506040513d601f19601f82011682018060405250810190620037c091906200549f565b90506001600160a01b0381161562003835576040516306c0752d60e51b81526001600160a01b0382169063d80ea5a09062003800908590600401620047bc565b600060405180830381600087803b1580156200381b57600080fd5b505af115801562003830573d6000803e3d6000fd5b505050505b7f3f008fd510eae7a9e7bee13513d7b83bef8003d488b5a3d0b0da4de71d6846f182604051620013699190620047bc565b6001600160a01b038216600090815261010d60205260408120905b81548110156200399657826001600160a01b0316828281548110620038aa57620038aa620054bf565b6000918252602090912001546001600160a01b031603620039815781548290620038d7906001906200558a565b81548110620038ea57620038ea620054bf565b9060005260206000200160009054906101000a90046001600160a01b03168282815481106200391d576200391d620054bf565b9060005260206000200160006101000a8154816001600160a01b0302191690836001600160a01b03160217905550818054806200395e576200395e62005791565b600082815260209020810160001990810180546001600160a01b03191690550190555b806200398d816200556e565b91505062003881565b50505050565b62001241813362003f96565b620039b482826200283f565b6200122857600082815260c9602090815260408083206001600160a01b03851684529091529020805460ff19166001179055620039ee3390565b6001600160a01b0316816001600160a01b0316837f2f8788117e7eff1d82e926ec794901d17c78024a50270940304540a733656f0d60405160405180910390a45050565b6101105415620026575761011054604051637d95539f60e11b8152600401620015d691815260200190565b6001600160a01b03163b151590565b600054610100900460ff1662003a965760405162461bcd60e51b8152600401620015d6906200590f565b6200265762003ffa565b600054610100900460ff16620026575760405162461bcd60e51b8152600401620015d6906200590f565b600062003ad78362001375565b600084815260c96020526040808220600101859055519192508391839186917fbd79b86ffe0ab8e8776151514217cd7cacd52c909f66475c3af44e129f0b00ff9190a4505050565b62003b2b82826200283f565b156200122857600082815260c9602090815260408083206001600160a01b0385168085529252808320805460ff1916905551339285917ff6391f5c32d9c69d2a47ea670b442974b53935d1edc7fd64eb21e047a839171b9190a45050565b6000805160206200624c833981519152546001600160a01b031690565b3362003bb16200279d565b6001600160a01b03161462001241573362003bcb6200279d565b60405163163678e960e01b8152600401620015d6929190620052f2565b7f4910fdfa16fed3260ed0e7147f7cc6da11a60208b5b9406d12a635614ffd91435460ff161562003c1e57620014e18362004024565b826001600160a01b03166352d1902d6040518163ffffffff1660e01b8152600401602060405180830381865afa92505050801562003c7b575060408051601f3d908101601f1916820190925262003c7891810190620052b4565b60015b62003ce05760405162461bcd60e51b815260206004820152602e60248201527f45524331393637557067726164653a206e657720696d706c656d656e7461746960448201526d6f6e206973206e6f74205555505360901b6064820152608401620015d6565b6000805160206200624c833981519152811462003d525760405162461bcd60e51b815260206004820152602960248201527f45524331393637557067726164653a20756e737570706f727465642070726f786044820152681a58589b195555525160ba1b6064820152608401620015d6565b50620014e1838383620040c3565b62003d6b3362002ad8565b6200265757604051636a5cfb6d60e01b815260040160405180910390fd5b62003996846323b872dd60e01b85858560405160240162003dad93929190620052ce565b60408051601f198184030181529190526020810180516001600160e01b03166001600160e01b031990931692909217909152620040ee565b620014e18363a9059cbb60e01b848460405160240162003dad9291906200529b565b600062003e1483620041ca565b801562003e28575062003e28838362004202565b9392505050565b6001600160a01b038116600090815261010d602090815260408083208054825181850281018501909352808352919290919083018282801562003e9c57602002820191906000526020600020905b81546001600160a01b0316815260019091019060200180831162003e7d575b5050505050905060005b8151811015620014e15781818151811062003ec55762003ec5620054bf565b60200260200101516001600160a01b0316636453d9c4846040518263ffffffff1660e01b815260040162003efa9190620047bc565b600060405180830381600087803b15801562003f1557600080fd5b505af115801562003f2a573d6000803e3d6000fd5b50505050808062003f3b906200556e565b91505062003ea6565b603380546001600160a01b038381166001600160a01b0319831681179093556040519116919082907f8be0079c531659141344cd1fd0a4f28419497f9722a3daafe3b4186f6b6457e090600090a35050565b62003fa282826200283f565b620012285762003fb2816200428d565b62003fbf836020620042a0565b60405160200162003fd292919062005c54565b60408051601f198184030181529082905262461bcd60e51b8252620015d69160040162004d58565b600054610100900460ff16620036405760405162461bcd60e51b8152600401620015d6906200590f565b6200402f8162003a5d565b620040935760405162461bcd60e51b815260206004820152602d60248201527f455243313936373a206e657720696d706c656d656e746174696f6e206973206e60448201526c1bdd08184818dbdb9d1c9858dd609a1b6064820152608401620015d6565b6000805160206200624c83398151915280546001600160a01b0319166001600160a01b0392909216919091179055565b620040ce8362004459565b600082511180620040dc5750805b15620014e1576200399683836200449b565b600062004145826040518060400160405280602081526020017f5361666545524332303a206c6f772d6c6576656c2063616c6c206661696c6564815250856001600160a01b0316620044c39092919063ffffffff16565b90508051600014806200416957508080602001905181019062004169919062005cc7565b620014e15760405162461bcd60e51b815260206004820152602a60248201527f5361666545524332303a204552433230206f7065726174696f6e20646964206e6044820152691bdd081cdd58d8d9595960b21b6064820152608401620015d6565b6000620041df826301ffc9a760e01b62004202565b801562000e125750620041fb826001600160e01b031962004202565b1592915050565b604080516001600160e01b03198316602480830191909152825180830390910181526044909101909152602080820180516001600160e01b03166301ffc9a760e01b178152825160009392849283928392918391908a617530fa92503d9150600051905082801562004275575060208210155b8015620042825750600081115b979650505050505050565b606062000e126001600160a01b03831660145b60606000620042b18360026200524b565b620042be9060026200532f565b6001600160401b03811115620042d857620042d8620048c2565b6040519080825280601f01601f19166020018201604052801562004303576020820181803683370190505b509050600360fc1b81600081518110620043215762004321620054bf565b60200101906001600160f81b031916908160001a905350600f60fb1b81600181518110620043535762004353620054bf565b60200101906001600160f81b031916908160001a9053506000620043798460026200524b565b620043869060016200532f565b90505b600181111562004408576f181899199a1a9b1b9c1cb0b131b232b360811b85600f1660108110620043be57620043be620054bf565b1a60f81b828281518110620043d757620043d7620054bf565b60200101906001600160f81b031916908160001a90535060049490941c93620044008162005ce7565b905062004389565b50831562003e285760405162461bcd60e51b815260206004820181905260248201527f537472696e67733a20686578206c656e67746820696e73756666696369656e746044820152606401620015d6565b620044648162004024565b6040516001600160a01b038216907fbc7cd75a20ee27fd9adebab32041f755214dbc6bffa90cc0225b39da2e5c2d3b90600090a250565b606062003e2883836040518060600160405280602781526020016200626c60279139620044dc565b6060620044d484846000856200455a565b949350505050565b6060600080856001600160a01b031685604051620044fb919062005d01565b600060405180830381855af49150503d806000811462004538576040519150601f19603f3d011682016040523d82523d6000602084013e6200453d565b606091505b509150915062004550868383876200462d565b9695505050505050565b606082471015620045bd5760405162461bcd60e51b815260206004820152602660248201527f416464726573733a20696e73756666696369656e742062616c616e636520666f6044820152651c8818d85b1b60d21b6064820152608401620015d6565b600080866001600160a01b03168587604051620045db919062005d01565b60006040518083038185875af1925050503d80600081146200461a576040519150601f19603f3d011682016040523d82523d6000602084013e6200461f565b606091505b509150915062004282878383875b60608315620046a157825160000362004699576200464b8562003a5d565b620046995760405162461bcd60e51b815260206004820152601d60248201527f416464726573733a2063616c6c20746f206e6f6e2d636f6e74726163740000006044820152606401620015d6565b5081620044d4565b620044d48383815115620046b85781518083602001fd5b8060405162461bcd60e51b8152600401620015d6919062004d58565b8280548282559060005260206000209081019282156200472c579160200282015b828111156200472c57825182546001600160a01b0319166001600160a01b03909116178255602090920191600190910190620046f5565b506200473a9291506200476c565b5090565b50805460008255906000526020600020908101906200124191906200476c565b6104ec8062005d2083390190565b5b808211156200473a57600081556001016200476d565b6000602082840312156200479657600080fd5b81356001600160e01b03198116811462003e2857600080fd5b6001600160a01b03169052565b6001600160a01b0391909116815260200190565b600060208284031215620047e357600080fd5b5035919050565b6001600160a01b03811681146200124157600080fd5b80356200283a81620047ea565b600080604083850312156200482157600080fd5b82356200482e81620047ea565b915060208301356200484081620047ea565b809150509250929050565b6000602082840312156200485e57600080fd5b813562003e2881620047ea565b600080604083850312156200487f57600080fd5b82356200488c81620047ea565b946020939093013593505050565b60008060408385031215620048ae57600080fd5b8235915060208301356200484081620047ea565b634e487b7160e01b600052604160045260246000fd5b604080519081016001600160401b0381118282101715620048fd57620048fd620048c2565b60405290565b60405161018081016001600160401b0381118282101715620048fd57620048fd620048c2565b60405160c081016001600160401b0381118282101715620048fd57620048fd620048c2565b60405161012081016001600160401b0381118282101715620048fd57620048fd620048c2565b60405160e081016001600160401b0381118282101715620048fd57620048fd620048c2565b604051601f8201601f191681016001600160401b0381118282101715620049c457620049c4620048c2565b604052919050565b60006001600160401b03821115620049e857620049e8620048c2565b50601f01601f191660200190565b600062004a0d62004a0784620049cc565b62004999565b905082815283838301111562004a2257600080fd5b828260208301376000602084830101529392505050565b600082601f83011262004a4b57600080fd5b62003e2883833560208501620049f6565b60006040828403121562004a6f57600080fd5b62004a79620048d8565b82358152905060208201356001600160401b0381111562004a9957600080fd5b62004aa78482850162004a39565b60208301525092915050565b80151581146200124157600080fd5b80356200283a8162004ab3565b6000806000806080858703121562004ae657600080fd5b84356001600160401b038082111562004afe57600080fd5b90860190610180828903121562004b1457600080fd5b62004b1e62004903565b62004b298362004800565b815262004b396020840162004800565b602082015260408301356040820152606083013560608201526080830135608082015262004b6a60a0840162004800565b60a082015262004b7d60c0840162004800565b60c082015260e08301358281111562004b9557600080fd5b62004ba38a82860162004a5c565b60e08301525061010062004bb981850162004800565b90820152610120838101358381111562004bd257600080fd5b62004be08b82870162004a39565b82840152505061014062004bf681850162004ac2565b90820152610160838101358381111562004c0f57600080fd5b62004c1d8b82870162004a39565b82840152505080965050505062004c376020860162004800565b925062004c476040860162004800565b915062004c576060860162004800565b905092959194509250565b6000806040838503121562004c7657600080fd5b823562004c8381620047ea565b915060208301356001600160401b0381111562004c9f57600080fd5b8301601f8101851362004cb157600080fd5b62004cc285823560208401620049f6565b9150509250929050565b60006020828403121562004cdf57600080fd5b81356001600160401b0381111562004cf657600080fd5b620044d48482850162004a39565b60005b8381101562004d2157818101518382015260200162004d07565b50506000910152565b6000815180845262004d4481602086016020860162004d04565b601f01601f19169290920160200192915050565b60208152600062003e28602083018462004d2a565b60006080828403121562004d8057600080fd5b604051608081016001600160401b038111828210171562004da55762004da5620048c2565b8060405250809150823581526020830135602082015260408301356040820152606083013560608201525092915050565b8035600381106200283a57600080fd5b600481106200124157600080fd5b80356200283a8162004de6565b60006020828403121562004e1457600080fd5b604051602081016001600160401b038111828210171562004e395762004e39620048c2565b6040529135825250919050565b600060c0828403121562004e5957600080fd5b62004e6362004929565b9050813562004e7281620047ea565b8152602082013562004e8481620047ea565b8060208301525060408201356040820152606082013560608201526080820135608082015260a082013560a082015292915050565b60006001600160401b0382111562004ed55762004ed5620048c2565b5060051b60200190565b600082601f83011262004ef157600080fd5b8135602062004f0462004a078362004eb9565b82815260059290921b8401810191818101908684111562004f2457600080fd5b8286015b8481101562004f4c57803562004f3e81620047ea565b835291830191830162004f28565b509695505050505050565b6000610220828403121562004f6b57600080fd5b62004f756200494e565b905062004f83838362004d6d565b815262004f936080830162004dd6565b602082015262004fa660a0830162004df4565b604082015262004fba8360c0840162004e01565b606082015262004fce8360e0840162004e46565b608082015262004fe26101a0830162004800565b60a082015262004ff66101c0830162004800565b60c08201526101e082013560e08201526102008201356001600160401b038111156200502157600080fd5b6200502f8482850162004edf565b6101008301525092915050565b6000806000606084860312156200505257600080fd5b83356200505f81620047ea565b925060208401356001600160401b03808211156200507c57600080fd5b6200508a8783880162004f57565b93506040860135915080821115620050a157600080fd5b50620050b08682870162004a5c565b9150509250925092565b60008060008060808587031215620050d157600080fd5b8435620050de81620047ea565b93506020850135620050f081620047ea565b925060408501356001600160401b03808211156200510d57600080fd5b6200511b8883890162004f57565b935060608701359150808211156200513257600080fd5b50620051418782880162004a5c565b91505092959194509250565b6000602082840312156200516057600080fd5b81356001600160401b03808211156200517857600080fd5b9083019060e082860312156200518d57600080fd5b6200519762004974565b620051a28362004800565b8152620051b26020840162004800565b602082015260408301356040820152606083013582811115620051d457600080fd5b620051e28782860162004a39565b606083015250608083013560808201526200520060a0840162004ac2565b60a082015260c0830135828111156200521857600080fd5b620052268782860162004a39565b60c08301525095945050505050565b634e487b7160e01b600052601160045260246000fd5b808202811582820484141762000e125762000e1262005235565b634e487b7160e01b600052602160045260246000fd5b6000602082840312156200528e57600080fd5b815162003e288162004de6565b6001600160a01b03929092168252602082015260400190565b600060208284031215620052c757600080fd5b5051919050565b6001600160a01b039384168152919092166020820152604081019190915260600190565b6001600160a01b0392831681529116602082015260400190565b6000826200532a57634e487b7160e01b600052601260045260246000fd5b500490565b8082018082111562000e125762000e1262005235565b600181811c908216806200535a57607f821691505b6020821081036200537b57634e487b7160e01b600052602260045260246000fd5b50919050565b601f821115620014e157600081815260208120601f850160051c81016020861015620053aa5750805b601f850160051c820191505b81811015620053cb57828155600101620053b6565b505050505050565b81516001600160401b03811115620053ef57620053ef620048c2565b620054078162005400845462005345565b8462005381565b602080601f8311600181146200543f5760008415620054265750858301515b600019600386901b1c1916600185901b178555620053cb565b600085815260208120601f198616915b8281101562005470578886015182559484019460019091019084016200544f565b50858210156200548f5787850151600019600388901b60f8161c191681555b5050505050600190811b01905550565b600060208284031215620054b257600080fd5b815162003e2881620047ea565b634e487b7160e01b600052603260045260246000fd5b60006020808385031215620054e957600080fd5b82516001600160401b038111156200550057600080fd5b8301601f810185136200551257600080fd5b80516200552362004a078262004eb9565b81815260059190911b820183019083810190878311156200554357600080fd5b928401925b82841015620042825783516200555e81620047ea565b8252928401929084019062005548565b60006001820162005583576200558362005235565b5060010190565b8181038181111562000e125762000e1262005235565b60008154620055af8162005345565b808552602060018381168015620055cf5760018114620055ea576200561a565b60ff1985168884015283151560051b8801830195506200561a565b866000528260002060005b85811015620056125781548a8201860152908301908401620055f5565b890184019650505b505050505092915050565b805182526000602082015160406020850152620044d4604085018262004d2a565b600081518084526020808501945080840160005b83811015620056815781516001600160a01b0316875295820195908201906001016200565a565b509495945050505050565b85815260a060208201526000620056a760a0830187620055a0565b8281036040840152620056bb818762005625565b6001600160a01b038616606085015283810360808501529050620056e0818562005646565b98975050505050505050565b838152606060208201526000620057076060830185620055a0565b828103604084015262004550818562005625565b6020808252602c908201526000805160206200622c83398151915260408201526b19195b1959d85d1958d85b1b60a21b606082015260800190565b6020808252602c908201526000805160206200622c83398151915260408201526b6163746976652070726f787960a01b606082015260800190565b634e487b7160e01b600052603160045260246000fd5b60006020808385031215620057bb57600080fd5b82516001600160401b0380821115620057d357600080fd5b9084019060c08287031215620057e857600080fd5b620057f262004929565b82518152838301516200580581620047ea565b8185015260408301516200581981620047ea565b60408201526060830151828111156200583157600080fd5b8301604081890312156200584457600080fd5b6200584e620048d8565b8151815285820151848111156200586457600080fd5b82019350601f840189136200587857600080fd5b835191506200588b62004a0783620049cc565b8281528987848701011115620058a057600080fd5b620058b18388830189880162004d04565b95810195909552506060810193909352506080818101519083015260a090810151908201529392505050565b60018060a01b038416815282602082015260606040820152600062005906606083018462004d2a565b95945050505050565b6020808252602b908201527f496e697469616c697a61626c653a20636f6e7472616374206973206e6f74206960408201526a6e697469616c697a696e6760a81b606082015260800190565b6001600160a01b0383168152604060208201819052600090620044d49083018462004d2a565b6810531313d5d31254d560ba1b8152600981019190915260290190565b6e20a62627aba624a9aa2fa0a226a4a760891b8152600f810191909152602f0190565b60038110620059d357620059d362005265565b9052565b60048110620059d357620059d362005265565b6020815262005a1e602082018351805182526020810151602083015260408101516040830152606081015160608301525050565b6000602083015162005a3460a0840182620059c0565b50604083015162005a4960c0840182620059d7565b506060838101515160e084015260808085015180516001600160a01b039081166101008088019190915260208301519091166101208701526040820151610140870152928101516101608601529081015161018085015260a0908101516101a08501528401519062005ac06101c0850183620047af565b60c0850151915062005ad76101e0850183620047af565b60e0850151610200850152840151610220808501529050620044d461024084018262005646565b8781526000602060018060a01b03808a168285015260e0604085015262005b2960e085018a62004d2a565b818916606086015287608086015284810360a086015262005b4b818862005625565b85810360c0870152865480825260008881528581209350918501915b8181101562005b8757835485168352600193840193928601920162005b67565b50909d9c50505050505050505050505050565b8581526001600160a01b03858116602083015284811660408301528316606082015260a060808201819052600090620042829083018462005625565b600080835462005be68162005345565b6001828116801562005c01576001811462005c175762005c48565b60ff198416875282151583028701945062005c48565b8760005260208060002060005b8581101562005c3f5781548a82015290840190820162005c24565b50505082870194505b50929695505050505050565b76020b1b1b2b9b9a1b7b73a3937b61d1030b1b1b7bab73a1604d1b81526000835162005c8881601785016020880162004d04565b7001034b99036b4b9b9b4b733903937b6329607d1b601791840191820152835162005cbb81602884016020880162004d04565b01602801949350505050565b60006020828403121562005cda57600080fd5b815162003e288162004ab3565b60008162005cf95762005cf962005235565b506000190190565b6000825162005d1581846020870162004d04565b919091019291505056fe60806040526040516104ec3803806104ec833981016040819052610022916102e9565b61002e82826000610035565b5050610406565b61003e83610061565b60008251118061004b5750805b1561005c5761005a83836100a1565b505b505050565b61006a816100cd565b6040516001600160a01b038216907fbc7cd75a20ee27fd9adebab32041f755214dbc6bffa90cc0225b39da2e5c2d3b90600090a250565b60606100c683836040518060600160405280602781526020016104c56027913961017e565b9392505050565b6100d6816101f7565b61013d5760405162461bcd60e51b815260206004820152602d60248201527f455243313936373a206e657720696d706c656d656e746174696f6e206973206e60448201526c1bdd08184818dbdb9d1c9858dd609a1b60648201526084015b60405180910390fd5b7f360894a13ba1a3210667c828492db98dca3e2076cc3735a920a3ca505d382bbc80546001600160a01b0319166001600160a01b0392909216919091179055565b6060600080856001600160a01b03168560405161019b91906103b7565b600060405180830381855af49150503d80600081146101d6576040519150601f19603f3d011682016040523d82523d6000602084013e6101db565b606091505b5090925090506101ed86838387610206565b9695505050505050565b6001600160a01b03163b151590565b6060831561027357825160000361026c57610220856101f7565b61026c5760405162461bcd60e51b815260206004820152601d60248201527f416464726573733a2063616c6c20746f206e6f6e2d636f6e74726163740000006044820152606401610134565b508161027d565b61027d8383610285565b949350505050565b8151156102955781518083602001fd5b8060405162461bcd60e51b815260040161013491906103d3565b634e487b7160e01b600052604160045260246000fd5b60005b838110156102e05781810151838201526020016102c8565b50506000910152565b600080604083850312156102fc57600080fd5b82516001600160a01b038116811461031357600080fd5b60208401519092506001600160401b038082111561033057600080fd5b818501915085601f83011261034457600080fd5b815181811115610356576103566102af565b604051601f8201601f19908116603f0116810190838211818310171561037e5761037e6102af565b8160405282815288602084870101111561039757600080fd5b6103a88360208301602088016102c5565b80955050505050509250929050565b600082516103c98184602087016102c5565b9190910192915050565b60208152600082518060208401526103f28160408501602087016102c5565b601f01601f19169190910160400192915050565b60b1806104146000396000f3fe608060405236601057600e6013565b005b600e5b601f601b6021565b6058565b565b600060537f360894a13ba1a3210667c828492db98dca3e2076cc3735a920a3ca505d382bbc546001600160a01b031690565b905090565b3660008037600080366000845af43d6000803e8080156076573d6000f35b3d6000fdfea26469706673582212200823673c0a10d18d317cca6b4146580cb0465a62303846173ba8846c992ad28c64736f6c63430008130033416464726573733a206c6f772d6c6576656c2064656c65676174652063616c6c206661696c656403be538b6391ddcd7f2649585cc95b120c9e2a613f70714fbb55345057d809fa46756e6374696f6e206d7573742062652063616c6c6564207468726f75676820360894a13ba1a3210667c828492db98dca3e2076cc3735a920a3ca505d382bbc416464726573733a206c6f772d6c6576656c2064656c65676174652063616c6c206661696c6564a264697066735822122024ef98697af34f9ae5553abc9f9a86be1e286849632547bbaf4a4a2f05c2f60264736f6c63430008130033","linkReferences":{}},"methodIdentifiers":{"COUNCIL_MEMBER()":"733a2d1f","DEFAULT_ADMIN_ROLE()":"a217fddf","MAX_FEE()":"bc063e1a","NATIVE()":"a0cf0aea","PRECISION_SCALE()":"d7050f07","VERSION()":"ffa1ad74","acceptCouncilSafe()":"b5058c50","activateMemberInStrategy(address,address)":"0d4a8b49","addStrategy(address)":"223e5479","addStrategyByPoolId(uint256)":"82d6a1e7","addressToMemberInfo(address)":"88cfe684","allo()":"d6d8428d","cloneNonce()":"33960459","collateralVaultTemplate()":"77122d56","communityFee()":"8961be6b","communityName()":"c6d572ae","councilSafe()":"6c53db9a","covenantIpfsHash()":"b64e39af","createPool(address,((uint256,uint256,uint256,uint256),uint8,uint8,(uint256),(address,address,uint256,uint256,uint256,uint256),address,address,uint256,address[]),(uint256,string))":"e0eab988","createPool(address,address,((uint256,uint256,uint256,uint256),uint8,uint8,(uint256),(address,address,uint256,uint256,uint256,uint256),address,address,uint256,address[]),(uint256,string))":"f24b150f","deactivateMemberInStrategy(address,address)":"22bcf999","decreasePower(uint256)":"5ecf71c5","enabledStrategies(address)":"3a871fe1","feeReceiver()":"b3f00674","gardenToken()":"db61d65c","getBasisStakedAmount()":"0331383c","getMemberPowerInStrategy(address,address)":"7817ee4f","getMemberStakedAmount(address)":"2c611c4a","getRoleAdmin(bytes32)":"248a9ca3","getStakeAmountWithFees()":"28c309e9","grantRole(bytes32,address)":"2f2ff15d","hasRole(bytes32,address)":"91d14854","increasePower(uint256)":"559de05d","initialize((address,address,uint256,uint256,uint256,address,address,(uint256,string),address,string,bool,string),address,address,address)":"34196355","initialize(address)":"c4d66de8","isCouncilMember(address)":"ebd7dc52","isKickEnabled()":"1f787d28","isMember(address)":"a230c524","kickMember(address,address)":"6871eb4d","memberActivatedInStrategies(address,address)":"477a5cc0","memberPowerInStrategy(address,address)":"65e3864c","onlyStrategyEnabled(address)":"411481e6","owner()":"8da5cb5b","pendingCouncilSafe()":"68decabb","profileId()":"08386eba","proxiableUUID()":"52d1902d","proxyOwner()":"025313a2","registerStakeAmount()":"78a0b8a9","registry()":"7b103999","registryFactory()":"f86c5f89","rejectPool(address)":"fb1f6917","removeStrategy(address)":"175188e8","removeStrategyByPoolId(uint256)":"73265c37","renounceOwnership()":"715018a6","renounceRole(bytes32,address)":"36568abe","revokeRole(bytes32,address)":"d547741f","setBasisStakedAmount(uint256)":"31f61bca","setCollateralVaultTemplate(address)":"b0d3713a","setCommunityFee(uint256)":"0d12bbdb","setCommunityParams((address,address,uint256,string,uint256,bool,string))":"f2d774e7","setCouncilSafe(address)":"397e2543","setStrategyTemplate(address)":"1b71f0e4","stakeAndRegisterMember(string)":"9a1f46e2","strategiesByMember(address,uint256)":"2b38c69c","strategyTemplate()":"5c94e4d2","supportsInterface(bytes4)":"01ffc9a7","totalMembers()":"76e92559","transferOwnership(address)":"f2fde38b","unregisterMember()":"b99b4370","upgradeTo(address)":"3659cfe6","upgradeToAndCall(address,bytes)":"4f1ef286"},"storageLayout":{"storage":[{"astId":14129,"contract":"pkg/contracts/src/RegistryCommunity/RegistryCommunityV0_0.sol:RegistryCommunityV0_0","label":"_initialized","offset":0,"slot":"0","type":"t_uint8"},{"astId":14132,"contract":"pkg/contracts/src/RegistryCommunity/RegistryCommunityV0_0.sol:RegistryCommunityV0_0","label":"_initializing","offset":1,"slot":"0","type":"t_bool"},{"astId":14756,"contract":"pkg/contracts/src/RegistryCommunity/RegistryCommunityV0_0.sol:RegistryCommunityV0_0","label":"__gap","offset":0,"slot":"1","type":"t_array(t_uint256)50_storage"},{"astId":13921,"contract":"pkg/contracts/src/RegistryCommunity/RegistryCommunityV0_0.sol:RegistryCommunityV0_0","label":"_owner","offset":0,"slot":"51","type":"t_address"},{"astId":14041,"contract":"pkg/contracts/src/RegistryCommunity/RegistryCommunityV0_0.sol:RegistryCommunityV0_0","label":"__gap","offset":0,"slot":"52","type":"t_array(t_uint256)49_storage"},{"astId":14306,"contract":"pkg/contracts/src/RegistryCommunity/RegistryCommunityV0_0.sol:RegistryCommunityV0_0","label":"_status","offset":0,"slot":"101","type":"t_uint256"},{"astId":14375,"contract":"pkg/contracts/src/RegistryCommunity/RegistryCommunityV0_0.sol:RegistryCommunityV0_0","label":"__gap","offset":0,"slot":"102","type":"t_array(t_uint256)49_storage"},{"astId":15030,"contract":"pkg/contracts/src/RegistryCommunity/RegistryCommunityV0_0.sol:RegistryCommunityV0_0","label":"__gap","offset":0,"slot":"151","type":"t_array(t_uint256)50_storage"},{"astId":13528,"contract":"pkg/contracts/src/RegistryCommunity/RegistryCommunityV0_0.sol:RegistryCommunityV0_0","label":"_roles","offset":0,"slot":"201","type":"t_mapping(t_bytes32,t_struct(RoleData)13523_storage)"},{"astId":13835,"contract":"pkg/contracts/src/RegistryCommunity/RegistryCommunityV0_0.sol:RegistryCommunityV0_0","label":"__gap","offset":0,"slot":"202","type":"t_array(t_uint256)49_storage"},{"astId":31097,"contract":"pkg/contracts/src/RegistryCommunity/RegistryCommunityV0_0.sol:RegistryCommunityV0_0","label":"registerStakeAmount","offset":0,"slot":"251","type":"t_uint256"},{"astId":31100,"contract":"pkg/contracts/src/RegistryCommunity/RegistryCommunityV0_0.sol:RegistryCommunityV0_0","label":"communityFee","offset":0,"slot":"252","type":"t_uint256"},{"astId":31103,"contract":"pkg/contracts/src/RegistryCommunity/RegistryCommunityV0_0.sol:RegistryCommunityV0_0","label":"cloneNonce","offset":0,"slot":"253","type":"t_uint256"},{"astId":31106,"contract":"pkg/contracts/src/RegistryCommunity/RegistryCommunityV0_0.sol:RegistryCommunityV0_0","label":"profileId","offset":0,"slot":"254","type":"t_bytes32"},{"astId":31109,"contract":"pkg/contracts/src/RegistryCommunity/RegistryCommunityV0_0.sol:RegistryCommunityV0_0","label":"isKickEnabled","offset":0,"slot":"255","type":"t_bool"},{"astId":31112,"contract":"pkg/contracts/src/RegistryCommunity/RegistryCommunityV0_0.sol:RegistryCommunityV0_0","label":"feeReceiver","offset":1,"slot":"255","type":"t_address"},{"astId":31115,"contract":"pkg/contracts/src/RegistryCommunity/RegistryCommunityV0_0.sol:RegistryCommunityV0_0","label":"registryFactory","offset":0,"slot":"256","type":"t_address"},{"astId":31118,"contract":"pkg/contracts/src/RegistryCommunity/RegistryCommunityV0_0.sol:RegistryCommunityV0_0","label":"collateralVaultTemplate","offset":0,"slot":"257","type":"t_address"},{"astId":31121,"contract":"pkg/contracts/src/RegistryCommunity/RegistryCommunityV0_0.sol:RegistryCommunityV0_0","label":"strategyTemplate","offset":0,"slot":"258","type":"t_address"},{"astId":31124,"contract":"pkg/contracts/src/RegistryCommunity/RegistryCommunityV0_0.sol:RegistryCommunityV0_0","label":"pendingCouncilSafe","offset":0,"slot":"259","type":"t_address_payable"},{"astId":31128,"contract":"pkg/contracts/src/RegistryCommunity/RegistryCommunityV0_0.sol:RegistryCommunityV0_0","label":"registry","offset":0,"slot":"260","type":"t_contract(IRegistry)506"},{"astId":31132,"contract":"pkg/contracts/src/RegistryCommunity/RegistryCommunityV0_0.sol:RegistryCommunityV0_0","label":"gardenToken","offset":0,"slot":"261","type":"t_contract(IERC20)17398"},{"astId":31136,"contract":"pkg/contracts/src/RegistryCommunity/RegistryCommunityV0_0.sol:RegistryCommunityV0_0","label":"councilSafe","offset":0,"slot":"262","type":"t_contract(ISafe)33380"},{"astId":31140,"contract":"pkg/contracts/src/RegistryCommunity/RegistryCommunityV0_0.sol:RegistryCommunityV0_0","label":"allo","offset":0,"slot":"263","type":"t_contract(FAllo)33113"},{"astId":31143,"contract":"pkg/contracts/src/RegistryCommunity/RegistryCommunityV0_0.sol:RegistryCommunityV0_0","label":"communityName","offset":0,"slot":"264","type":"t_string_storage"},{"astId":31146,"contract":"pkg/contracts/src/RegistryCommunity/RegistryCommunityV0_0.sol:RegistryCommunityV0_0","label":"covenantIpfsHash","offset":0,"slot":"265","type":"t_string_storage"},{"astId":31151,"contract":"pkg/contracts/src/RegistryCommunity/RegistryCommunityV0_0.sol:RegistryCommunityV0_0","label":"enabledStrategies","offset":0,"slot":"266","type":"t_mapping(t_address,t_bool)"},{"astId":31158,"contract":"pkg/contracts/src/RegistryCommunity/RegistryCommunityV0_0.sol:RegistryCommunityV0_0","label":"memberPowerInStrategy","offset":0,"slot":"267","type":"t_mapping(t_address,t_mapping(t_address,t_uint256))"},{"astId":31164,"contract":"pkg/contracts/src/RegistryCommunity/RegistryCommunityV0_0.sol:RegistryCommunityV0_0","label":"addressToMemberInfo","offset":0,"slot":"268","type":"t_mapping(t_address,t_struct(Member)30875_storage)"},{"astId":31170,"contract":"pkg/contracts/src/RegistryCommunity/RegistryCommunityV0_0.sol:RegistryCommunityV0_0","label":"strategiesByMember","offset":0,"slot":"269","type":"t_mapping(t_address,t_array(t_address)dyn_storage)"},{"astId":31177,"contract":"pkg/contracts/src/RegistryCommunity/RegistryCommunityV0_0.sol:RegistryCommunityV0_0","label":"memberActivatedInStrategies","offset":0,"slot":"270","type":"t_mapping(t_address,t_mapping(t_address,t_bool))"},{"astId":31181,"contract":"pkg/contracts/src/RegistryCommunity/RegistryCommunityV0_0.sol:RegistryCommunityV0_0","label":"initialMembers","offset":0,"slot":"271","type":"t_array(t_address)dyn_storage"},{"astId":31184,"contract":"pkg/contracts/src/RegistryCommunity/RegistryCommunityV0_0.sol:RegistryCommunityV0_0","label":"totalMembers","offset":0,"slot":"272","type":"t_uint256"},{"astId":33071,"contract":"pkg/contracts/src/RegistryCommunity/RegistryCommunityV0_0.sol:RegistryCommunityV0_0","label":"__gap","offset":0,"slot":"273","type":"t_array(t_uint256)49_storage"}],"types":{"t_address":{"encoding":"inplace","label":"address","numberOfBytes":"20"},"t_address_payable":{"encoding":"inplace","label":"address payable","numberOfBytes":"20"},"t_array(t_address)dyn_storage":{"encoding":"dynamic_array","label":"address[]","numberOfBytes":"32","base":"t_address"},"t_array(t_uint256)49_storage":{"encoding":"inplace","label":"uint256[49]","numberOfBytes":"1568","base":"t_uint256"},"t_array(t_uint256)50_storage":{"encoding":"inplace","label":"uint256[50]","numberOfBytes":"1600","base":"t_uint256"},"t_bool":{"encoding":"inplace","label":"bool","numberOfBytes":"1"},"t_bytes32":{"encoding":"inplace","label":"bytes32","numberOfBytes":"32"},"t_contract(FAllo)33113":{"encoding":"inplace","label":"contract FAllo","numberOfBytes":"20"},"t_contract(IERC20)17398":{"encoding":"inplace","label":"contract IERC20","numberOfBytes":"20"},"t_contract(IRegistry)506":{"encoding":"inplace","label":"contract IRegistry","numberOfBytes":"20"},"t_contract(ISafe)33380":{"encoding":"inplace","label":"contract ISafe","numberOfBytes":"20"},"t_mapping(t_address,t_array(t_address)dyn_storage)":{"encoding":"mapping","key":"t_address","label":"mapping(address => address[])","numberOfBytes":"32","value":"t_array(t_address)dyn_storage"},"t_mapping(t_address,t_bool)":{"encoding":"mapping","key":"t_address","label":"mapping(address => bool)","numberOfBytes":"32","value":"t_bool"},"t_mapping(t_address,t_mapping(t_address,t_bool))":{"encoding":"mapping","key":"t_address","label":"mapping(address => mapping(address => bool))","numberOfBytes":"32","value":"t_mapping(t_address,t_bool)"},"t_mapping(t_address,t_mapping(t_address,t_uint256))":{"encoding":"mapping","key":"t_address","label":"mapping(address => mapping(address => uint256))","numberOfBytes":"32","value":"t_mapping(t_address,t_uint256)"},"t_mapping(t_address,t_struct(Member)30875_storage)":{"encoding":"mapping","key":"t_address","label":"mapping(address => struct Member)","numberOfBytes":"32","value":"t_struct(Member)30875_storage"},"t_mapping(t_address,t_uint256)":{"encoding":"mapping","key":"t_address","label":"mapping(address => uint256)","numberOfBytes":"32","value":"t_uint256"},"t_mapping(t_bytes32,t_struct(RoleData)13523_storage)":{"encoding":"mapping","key":"t_bytes32","label":"mapping(bytes32 => struct AccessControlUpgradeable.RoleData)","numberOfBytes":"32","value":"t_struct(RoleData)13523_storage"},"t_string_storage":{"encoding":"bytes","label":"string","numberOfBytes":"32"},"t_struct(Member)30875_storage":{"encoding":"inplace","label":"struct Member","numberOfBytes":"96","members":[{"astId":30870,"contract":"pkg/contracts/src/RegistryCommunity/RegistryCommunityV0_0.sol:RegistryCommunityV0_0","label":"member","offset":0,"slot":"0","type":"t_address"},{"astId":30872,"contract":"pkg/contracts/src/RegistryCommunity/RegistryCommunityV0_0.sol:RegistryCommunityV0_0","label":"stakedAmount","offset":0,"slot":"1","type":"t_uint256"},{"astId":30874,"contract":"pkg/contracts/src/RegistryCommunity/RegistryCommunityV0_0.sol:RegistryCommunityV0_0","label":"isRegistered","offset":0,"slot":"2","type":"t_bool"}]},"t_struct(RoleData)13523_storage":{"encoding":"inplace","label":"struct AccessControlUpgradeable.RoleData","numberOfBytes":"64","members":[{"astId":13520,"contract":"pkg/contracts/src/RegistryCommunity/RegistryCommunityV0_0.sol:RegistryCommunityV0_0","label":"members","offset":0,"slot":"0","type":"t_mapping(t_address,t_bool)"},{"astId":13522,"contract":"pkg/contracts/src/RegistryCommunity/RegistryCommunityV0_0.sol:RegistryCommunityV0_0","label":"adminRole","offset":0,"slot":"1","type":"t_bytes32"}]},"t_uint256":{"encoding":"inplace","label":"uint256","numberOfBytes":"32"},"t_uint8":{"encoding":"inplace","label":"uint8","numberOfBytes":"1"}}},"id":64}