{"abi":[{"type":"function","name":"COUNCIL_MEMBER","inputs":[],"outputs":[{"name":"","type":"bytes32","internalType":"bytes32"}],"stateMutability":"view"},{"type":"function","name":"DEFAULT_ADMIN_ROLE","inputs":[],"outputs":[{"name":"","type":"bytes32","internalType":"bytes32"}],"stateMutability":"view"},{"type":"function","name":"MAX_FEE","inputs":[],"outputs":[{"name":"","type":"uint256","internalType":"uint256"}],"stateMutability":"view"},{"type":"function","name":"NATIVE","inputs":[],"outputs":[{"name":"","type":"address","internalType":"address"}],"stateMutability":"view"},{"type":"function","name":"PRECISION_SCALE","inputs":[],"outputs":[{"name":"","type":"uint256","internalType":"uint256"}],"stateMutability":"view"},{"type":"function","name":"acceptCouncilSafe","inputs":[],"outputs":[],"stateMutability":"nonpayable"},{"type":"function","name":"activateMemberInStrategy","inputs":[{"name":"_member","type":"address","internalType":"address"},{"name":"_strategy","type":"address","internalType":"address"}],"outputs":[],"stateMutability":"nonpayable"},{"type":"function","name":"addStrategy","inputs":[{"name":"_newStrategy","type":"address","internalType":"address"}],"outputs":[],"stateMutability":"nonpayable"},{"type":"function","name":"addStrategyByPoolId","inputs":[{"name":"poolId","type":"uint256","internalType":"uint256"}],"outputs":[],"stateMutability":"nonpayable"},{"type":"function","name":"addressToMemberInfo","inputs":[{"name":"member","type":"address","internalType":"address"}],"outputs":[{"name":"member","type":"address","internalType":"address"},{"name":"stakedAmount","type":"uint256","internalType":"uint256"},{"name":"isRegistered","type":"bool","internalType":"bool"}],"stateMutability":"view"},{"type":"function","name":"allo","inputs":[],"outputs":[{"name":"","type":"address","internalType":"contract FAllo"}],"stateMutability":"view"},{"type":"function","name":"cloneNonce","inputs":[],"outputs":[{"name":"","type":"uint256","internalType":"uint256"}],"stateMutability":"view"},{"type":"function","name":"communityFee","inputs":[],"outputs":[{"name":"","type":"uint256","internalType":"uint256"}],"stateMutability":"view"},{"type":"function","name":"communityName","inputs":[],"outputs":[{"name":"","type":"string","internalType":"string"}],"stateMutability":"view"},{"type":"function","name":"councilSafe","inputs":[],"outputs":[{"name":"","type":"address","internalType":"contract ISafe"}],"stateMutability":"view"},{"type":"function","name":"covenantIpfsHash","inputs":[],"outputs":[{"name":"","type":"string","internalType":"string"}],"stateMutability":"view"},{"type":"function","name":"createPool","inputs":[{"name":"_token","type":"address","internalType":"address"},{"name":"_params","type":"tuple","internalType":"struct StrategyStruct.InitializeParams","components":[{"name":"cvParams","type":"tuple","internalType":"struct StrategyStruct.CVParams","components":[{"name":"maxRatio","type":"uint256","internalType":"uint256"},{"name":"weight","type":"uint256","internalType":"uint256"},{"name":"decay","type":"uint256","internalType":"uint256"},{"name":"minThresholdPoints","type":"uint256","internalType":"uint256"}]},{"name":"proposalType","type":"uint8","internalType":"enum StrategyStruct.ProposalType"},{"name":"pointSystem","type":"uint8","internalType":"enum StrategyStruct.PointSystem"},{"name":"pointConfig","type":"tuple","internalType":"struct StrategyStruct.PointSystemConfig","components":[{"name":"maxAmount","type":"uint256","internalType":"uint256"}]},{"name":"arbitrableConfig","type":"tuple","internalType":"struct StrategyStruct.ArbitrableConfig","components":[{"name":"arbitrator","type":"address","internalType":"contract IArbitrator"},{"name":"tribunalSafe","type":"address","internalType":"address"},{"name":"submitterCollateralAmount","type":"uint256","internalType":"uint256"},{"name":"challengerCollateralAmount","type":"uint256","internalType":"uint256"},{"name":"defaultRuling","type":"uint256","internalType":"uint256"},{"name":"defaultRulingTimeout","type":"uint256","internalType":"uint256"}]},{"name":"registryCommunity","type":"address","internalType":"address"},{"name":"sybilScorer","type":"address","internalType":"address"}]},{"name":"_metadata","type":"tuple","internalType":"struct Metadata","components":[{"name":"protocol","type":"uint256","internalType":"uint256"},{"name":"pointer","type":"string","internalType":"string"}]}],"outputs":[{"name":"poolId","type":"uint256","internalType":"uint256"},{"name":"strategy","type":"address","internalType":"address"}],"stateMutability":"nonpayable"},{"type":"function","name":"createPool","inputs":[{"name":"_strategy","type":"address","internalType":"address"},{"name":"_token","type":"address","internalType":"address"},{"name":"_params","type":"tuple","internalType":"struct StrategyStruct.InitializeParams","components":[{"name":"cvParams","type":"tuple","internalType":"struct StrategyStruct.CVParams","components":[{"name":"maxRatio","type":"uint256","internalType":"uint256"},{"name":"weight","type":"uint256","internalType":"uint256"},{"name":"decay","type":"uint256","internalType":"uint256"},{"name":"minThresholdPoints","type":"uint256","internalType":"uint256"}]},{"name":"proposalType","type":"uint8","internalType":"enum StrategyStruct.ProposalType"},{"name":"pointSystem","type":"uint8","internalType":"enum StrategyStruct.PointSystem"},{"name":"pointConfig","type":"tuple","internalType":"struct StrategyStruct.PointSystemConfig","components":[{"name":"maxAmount","type":"uint256","internalType":"uint256"}]},{"name":"arbitrableConfig","type":"tuple","internalType":"struct StrategyStruct.ArbitrableConfig","components":[{"name":"arbitrator","type":"address","internalType":"contract IArbitrator"},{"name":"tribunalSafe","type":"address","internalType":"address"},{"name":"submitterCollateralAmount","type":"uint256","internalType":"uint256"},{"name":"challengerCollateralAmount","type":"uint256","internalType":"uint256"},{"name":"defaultRuling","type":"uint256","internalType":"uint256"},{"name":"defaultRulingTimeout","type":"uint256","internalType":"uint256"}]},{"name":"registryCommunity","type":"address","internalType":"address"},{"name":"sybilScorer","type":"address","internalType":"address"}]},{"name":"_metadata","type":"tuple","internalType":"struct Metadata","components":[{"name":"protocol","type":"uint256","internalType":"uint256"},{"name":"pointer","type":"string","internalType":"string"}]}],"outputs":[{"name":"poolId","type":"uint256","internalType":"uint256"},{"name":"strategy","type":"address","internalType":"address"}],"stateMutability":"nonpayable"},{"type":"function","name":"deactivateMemberInStrategy","inputs":[{"name":"_member","type":"address","internalType":"address"},{"name":"_strategy","type":"address","internalType":"address"}],"outputs":[],"stateMutability":"nonpayable"},{"type":"function","name":"decreasePower","inputs":[{"name":"_amountUnstaked","type":"uint256","internalType":"uint256"}],"outputs":[],"stateMutability":"nonpayable"},{"type":"function","name":"enabledStrategies","inputs":[{"name":"strategy","type":"address","internalType":"address"}],"outputs":[{"name":"isEnabled","type":"bool","internalType":"bool"}],"stateMutability":"view"},{"type":"function","name":"feeReceiver","inputs":[],"outputs":[{"name":"","type":"address","internalType":"address"}],"stateMutability":"view"},{"type":"function","name":"gardenToken","inputs":[],"outputs":[{"name":"","type":"address","internalType":"contract IERC20"}],"stateMutability":"view"},{"type":"function","name":"getBasisStakedAmount","inputs":[],"outputs":[{"name":"","type":"uint256","internalType":"uint256"}],"stateMutability":"view"},{"type":"function","name":"getMemberPowerInStrategy","inputs":[{"name":"_member","type":"address","internalType":"address"},{"name":"_strategy","type":"address","internalType":"address"}],"outputs":[{"name":"","type":"uint256","internalType":"uint256"}],"stateMutability":"view"},{"type":"function","name":"getMemberStakedAmount","inputs":[{"name":"_member","type":"address","internalType":"address"}],"outputs":[{"name":"","type":"uint256","internalType":"uint256"}],"stateMutability":"view"},{"type":"function","name":"getRoleAdmin","inputs":[{"name":"role","type":"bytes32","internalType":"bytes32"}],"outputs":[{"name":"","type":"bytes32","internalType":"bytes32"}],"stateMutability":"view"},{"type":"function","name":"getStakeAmountWithFees","inputs":[],"outputs":[{"name":"","type":"uint256","internalType":"uint256"}],"stateMutability":"view"},{"type":"function","name":"grantRole","inputs":[{"name":"role","type":"bytes32","internalType":"bytes32"},{"name":"account","type":"address","internalType":"address"}],"outputs":[],"stateMutability":"nonpayable"},{"type":"function","name":"hasRole","inputs":[{"name":"role","type":"bytes32","internalType":"bytes32"},{"name":"account","type":"address","internalType":"address"}],"outputs":[{"name":"","type":"bool","internalType":"bool"}],"stateMutability":"view"},{"type":"function","name":"increasePower","inputs":[{"name":"_amountStaked","type":"uint256","internalType":"uint256"}],"outputs":[],"stateMutability":"nonpayable"},{"type":"function","name":"initialize","inputs":[{"name":"params","type":"tuple","internalType":"struct RegistryCommunityV0_0.InitializeParams","components":[{"name":"_allo","type":"address","internalType":"address"},{"name":"_gardenToken","type":"address","internalType":"contract IERC20"},{"name":"_registerStakeAmount","type":"uint256","internalType":"uint256"},{"name":"_communityFee","type":"uint256","internalType":"uint256"},{"name":"_nonce","type":"uint256","internalType":"uint256"},{"name":"_registryFactory","type":"address","internalType":"address"},{"name":"_feeReceiver","type":"address","internalType":"address"},{"name":"_metadata","type":"tuple","internalType":"struct Metadata","components":[{"name":"protocol","type":"uint256","internalType":"uint256"},{"name":"pointer","type":"string","internalType":"string"}]},{"name":"_councilSafe","type":"address","internalType":"address payable"},{"name":"_communityName","type":"string","internalType":"string"},{"name":"_isKickEnabled","type":"bool","internalType":"bool"},{"name":"covenantIpfsHash","type":"string","internalType":"string"}]},{"name":"_strategyTemplate","type":"address","internalType":"address"},{"name":"_collateralVaultTemplate","type":"address","internalType":"address"},{"name":"owner","type":"address","internalType":"address"}],"outputs":[],"stateMutability":"nonpayable"},{"type":"function","name":"initialize","inputs":[{"name":"initialOwner","type":"address","internalType":"address"}],"outputs":[],"stateMutability":"nonpayable"},{"type":"function","name":"isCouncilMember","inputs":[{"name":"_member","type":"address","internalType":"address"}],"outputs":[{"name":"","type":"bool","internalType":"bool"}],"stateMutability":"view"},{"type":"function","name":"isKickEnabled","inputs":[],"outputs":[{"name":"","type":"bool","internalType":"bool"}],"stateMutability":"view"},{"type":"function","name":"isMember","inputs":[{"name":"_member","type":"address","internalType":"address"}],"outputs":[{"name":"_isMember","type":"bool","internalType":"bool"}],"stateMutability":"view"},{"type":"function","name":"kickMember","inputs":[{"name":"_member","type":"address","internalType":"address"},{"name":"_transferAddress","type":"address","internalType":"address"}],"outputs":[],"stateMutability":"nonpayable"},{"type":"function","name":"memberActivatedInStrategies","inputs":[{"name":"member","type":"address","internalType":"address"},{"name":"strategy","type":"address","internalType":"address"}],"outputs":[{"name":"isActivated","type":"bool","internalType":"bool"}],"stateMutability":"view"},{"type":"function","name":"memberPowerInStrategy","inputs":[{"name":"strategy","type":"address","internalType":"address"},{"name":"member","type":"address","internalType":"address"}],"outputs":[{"name":"power","type":"uint256","internalType":"uint256"}],"stateMutability":"view"},{"type":"function","name":"owner","inputs":[],"outputs":[{"name":"","type":"address","internalType":"address"}],"stateMutability":"view"},{"type":"function","name":"pendingCouncilSafe","inputs":[],"outputs":[{"name":"","type":"address","internalType":"address payable"}],"stateMutability":"view"},{"type":"function","name":"profileId","inputs":[],"outputs":[{"name":"","type":"bytes32","internalType":"bytes32"}],"stateMutability":"view"},{"type":"function","name":"proxiableUUID","inputs":[],"outputs":[{"name":"","type":"bytes32","internalType":"bytes32"}],"stateMutability":"view"},{"type":"function","name":"registerStakeAmount","inputs":[],"outputs":[{"name":"","type":"uint256","internalType":"uint256"}],"stateMutability":"view"},{"type":"function","name":"registry","inputs":[],"outputs":[{"name":"","type":"address","internalType":"contract IRegistry"}],"stateMutability":"view"},{"type":"function","name":"registryFactory","inputs":[],"outputs":[{"name":"","type":"address","internalType":"address"}],"stateMutability":"view"},{"type":"function","name":"removeStrategy","inputs":[{"name":"_strategy","type":"address","internalType":"address"}],"outputs":[],"stateMutability":"nonpayable"},{"type":"function","name":"removeStrategyByPoolId","inputs":[{"name":"poolId","type":"uint256","internalType":"uint256"}],"outputs":[],"stateMutability":"nonpayable"},{"type":"function","name":"renounceOwnership","inputs":[],"outputs":[],"stateMutability":"nonpayable"},{"type":"function","name":"renounceRole","inputs":[{"name":"role","type":"bytes32","internalType":"bytes32"},{"name":"account","type":"address","internalType":"address"}],"outputs":[],"stateMutability":"nonpayable"},{"type":"function","name":"revokeRole","inputs":[{"name":"role","type":"bytes32","internalType":"bytes32"},{"name":"account","type":"address","internalType":"address"}],"outputs":[],"stateMutability":"nonpayable"},{"type":"function","name":"setBasisStakedAmount","inputs":[{"name":"_newAmount","type":"uint256","internalType":"uint256"}],"outputs":[],"stateMutability":"nonpayable"},{"type":"function","name":"setCommunityFee","inputs":[{"name":"_newCommunityFee","type":"uint256","internalType":"uint256"}],"outputs":[],"stateMutability":"nonpayable"},{"type":"function","name":"setCouncilSafe","inputs":[{"name":"_safe","type":"address","internalType":"address payable"}],"outputs":[],"stateMutability":"nonpayable"},{"type":"function","name":"stakeAndRegisterMember","inputs":[],"outputs":[],"stateMutability":"nonpayable"},{"type":"function","name":"strategiesByMember","inputs":[{"name":"member","type":"address","internalType":"address"},{"name":"","type":"uint256","internalType":"uint256"}],"outputs":[{"name":"strategiesAddresses","type":"address","internalType":"address"}],"stateMutability":"view"},{"type":"function","name":"strategyTemplate","inputs":[],"outputs":[{"name":"","type":"address","internalType":"address"}],"stateMutability":"view"},{"type":"function","name":"supportsInterface","inputs":[{"name":"interfaceId","type":"bytes4","internalType":"bytes4"}],"outputs":[{"name":"","type":"bool","internalType":"bool"}],"stateMutability":"view"},{"type":"function","name":"transferOwnership","inputs":[{"name":"newOwner","type":"address","internalType":"address"}],"outputs":[],"stateMutability":"nonpayable"},{"type":"function","name":"unregisterMember","inputs":[],"outputs":[],"stateMutability":"nonpayable"},{"type":"function","name":"upgradeTo","inputs":[{"name":"newImplementation","type":"address","internalType":"address"}],"outputs":[],"stateMutability":"nonpayable"},{"type":"function","name":"upgradeToAndCall","inputs":[{"name":"newImplementation","type":"address","internalType":"address"},{"name":"data","type":"bytes","internalType":"bytes"}],"outputs":[],"stateMutability":"payable"},{"type":"event","name":"AdminChanged","inputs":[{"name":"previousAdmin","type":"address","indexed":false,"internalType":"address"},{"name":"newAdmin","type":"address","indexed":false,"internalType":"address"}],"anonymous":false},{"type":"event","name":"AlloSet","inputs":[{"name":"_allo","type":"address","indexed":false,"internalType":"address"}],"anonymous":false},{"type":"event","name":"BasisStakedAmountSet","inputs":[{"name":"_newAmount","type":"uint256","indexed":false,"internalType":"uint256"}],"anonymous":false},{"type":"event","name":"BeaconUpgraded","inputs":[{"name":"beacon","type":"address","indexed":true,"internalType":"address"}],"anonymous":false},{"type":"event","name":"CommunityFeeUpdated","inputs":[{"name":"_newFee","type":"uint256","indexed":false,"internalType":"uint256"}],"anonymous":false},{"type":"event","name":"CouncilSafeChangeStarted","inputs":[{"name":"_safeOwner","type":"address","indexed":false,"internalType":"address"},{"name":"_newSafeOwner","type":"address","indexed":false,"internalType":"address"}],"anonymous":false},{"type":"event","name":"CouncilSafeSet","inputs":[{"name":"_safe","type":"address","indexed":false,"internalType":"address"}],"anonymous":false},{"type":"event","name":"Initialized","inputs":[{"name":"version","type":"uint8","indexed":false,"internalType":"uint8"}],"anonymous":false},{"type":"event","name":"MemberActivatedStrategy","inputs":[{"name":"_member","type":"address","indexed":false,"internalType":"address"},{"name":"_strategy","type":"address","indexed":false,"internalType":"address"},{"name":"_pointsToIncrease","type":"uint256","indexed":false,"internalType":"uint256"}],"anonymous":false},{"type":"event","name":"MemberDeactivatedStrategy","inputs":[{"name":"_member","type":"address","indexed":false,"internalType":"address"},{"name":"_strategy","type":"address","indexed":false,"internalType":"address"}],"anonymous":false},{"type":"event","name":"MemberKicked","inputs":[{"name":"_member","type":"address","indexed":false,"internalType":"address"},{"name":"_transferAddress","type":"address","indexed":false,"internalType":"address"},{"name":"_amountReturned","type":"uint256","indexed":false,"internalType":"uint256"}],"anonymous":false},{"type":"event","name":"MemberPowerDecreased","inputs":[{"name":"_member","type":"address","indexed":false,"internalType":"address"},{"name":"_unstakedAmount","type":"uint256","indexed":false,"internalType":"uint256"}],"anonymous":false},{"type":"event","name":"MemberPowerIncreased","inputs":[{"name":"_member","type":"address","indexed":false,"internalType":"address"},{"name":"_stakedAmount","type":"uint256","indexed":false,"internalType":"uint256"}],"anonymous":false},{"type":"event","name":"MemberRegistered","inputs":[{"name":"_member","type":"address","indexed":false,"internalType":"address"},{"name":"_amountStaked","type":"uint256","indexed":false,"internalType":"uint256"}],"anonymous":false},{"type":"event","name":"MemberUnregistered","inputs":[{"name":"_member","type":"address","indexed":false,"internalType":"address"},{"name":"_amountReturned","type":"uint256","indexed":false,"internalType":"uint256"}],"anonymous":false},{"type":"event","name":"OwnershipTransferred","inputs":[{"name":"previousOwner","type":"address","indexed":true,"internalType":"address"},{"name":"newOwner","type":"address","indexed":true,"internalType":"address"}],"anonymous":false},{"type":"event","name":"PoolCreated","inputs":[{"name":"_poolId","type":"uint256","indexed":false,"internalType":"uint256"},{"name":"_strategy","type":"address","indexed":false,"internalType":"address"},{"name":"_community","type":"address","indexed":false,"internalType":"address"},{"name":"_token","type":"address","indexed":false,"internalType":"address"},{"name":"_metadata","type":"tuple","indexed":false,"internalType":"struct Metadata","components":[{"name":"protocol","type":"uint256","internalType":"uint256"},{"name":"pointer","type":"string","internalType":"string"}]}],"anonymous":false},{"type":"event","name":"RegistryInitialized","inputs":[{"name":"_profileId","type":"bytes32","indexed":false,"internalType":"bytes32"},{"name":"_communityName","type":"string","indexed":false,"internalType":"string"},{"name":"_metadata","type":"tuple","indexed":false,"internalType":"struct Metadata","components":[{"name":"protocol","type":"uint256","internalType":"uint256"},{"name":"pointer","type":"string","internalType":"string"}]}],"anonymous":false},{"type":"event","name":"RoleAdminChanged","inputs":[{"name":"role","type":"bytes32","indexed":true,"internalType":"bytes32"},{"name":"previousAdminRole","type":"bytes32","indexed":true,"internalType":"bytes32"},{"name":"newAdminRole","type":"bytes32","indexed":true,"internalType":"bytes32"}],"anonymous":false},{"type":"event","name":"RoleGranted","inputs":[{"name":"role","type":"bytes32","indexed":true,"internalType":"bytes32"},{"name":"account","type":"address","indexed":true,"internalType":"address"},{"name":"sender","type":"address","indexed":true,"internalType":"address"}],"anonymous":false},{"type":"event","name":"RoleRevoked","inputs":[{"name":"role","type":"bytes32","indexed":true,"internalType":"bytes32"},{"name":"account","type":"address","indexed":true,"internalType":"address"},{"name":"sender","type":"address","indexed":true,"internalType":"address"}],"anonymous":false},{"type":"event","name":"StrategyAdded","inputs":[{"name":"_strategy","type":"address","indexed":false,"internalType":"address"}],"anonymous":false},{"type":"event","name":"StrategyRemoved","inputs":[{"name":"_strategy","type":"address","indexed":false,"internalType":"address"}],"anonymous":false},{"type":"event","name":"Upgraded","inputs":[{"name":"implementation","type":"address","indexed":true,"internalType":"address"}],"anonymous":false},{"type":"error","name":"AddressCannotBeZero","inputs":[]},{"type":"error","name":"CallerNotOwner","inputs":[{"name":"_caller","type":"address","internalType":"address"},{"name":"_owner","type":"address","internalType":"address"}]},{"type":"error","name":"CantDecreaseMoreThanPower","inputs":[{"name":"_decreaseAmount","type":"uint256","internalType":"uint256"},{"name":"_currentPower","type":"uint256","internalType":"uint256"}]},{"type":"error","name":"DecreaseUnderMinimum","inputs":[]},{"type":"error","name":"KickNotEnabled","inputs":[]},{"type":"error","name":"NewFeeGreaterThanMax","inputs":[]},{"type":"error","name":"PointsDeactivated","inputs":[]},{"type":"error","name":"RegistryCannotBeZero","inputs":[]},{"type":"error","name":"SenderNotNewOwner","inputs":[]},{"type":"error","name":"SenderNotStrategy","inputs":[]},{"type":"error","name":"StrategyDisabled","inputs":[]},{"type":"error","name":"StrategyExists","inputs":[]},{"type":"error","name":"UserAlreadyActivated","inputs":[]},{"type":"error","name":"UserAlreadyDeactivated","inputs":[]},{"type":"error","name":"UserAlreadyRegistered","inputs":[]},{"type":"error","name":"UserNotGardenOwner","inputs":[]},{"type":"error","name":"UserNotInCouncil","inputs":[{"name":"_user","type":"address","internalType":"address"}]},{"type":"error","name":"UserNotInRegistry","inputs":[]},{"type":"error","name":"ValueCannotBeZero","inputs":[]}],"bytecode":{"object":"0x60a06040523060805234801561001457600080fd5b506080516158ff61004c60003960008181611cd101528181611d1401528181611e0f01528181611e520152611fb501526158ff6000f3fe608060405260043610620002fc5760003560e01c806301ffc9a714620003015780630331383c146200033b57806308386eba146200035c5780630d12bbdb14620003745780630d4a8b49146200039b578063175188e814620003c05780631f787d2814620003e5578063223e5479146200040257806322bcf9991462000427578063248a9ca3146200044c57806328c309e914620004715780632b38c69c14620004895780632c611c4a14620004bd5780632f2ff15d14620004fb57806331f61bca146200052057806333960459146200054557806334196355146200055d5780633517aa7d146200058257806336568abe146200059a5780633659cfe614620005bf578063397e254314620005e45780633a871fe11462000609578063477a5cc0146200063e5780634f1ef286146200067e578063524e59e8146200069557806352d1902d14620006d8578063559de05d14620006f05780635c94e4d214620007155780635ecf71c5146200073857806365e3864c146200075d5780636871eb4d146200079a57806368decabb14620007bf5780636c53db9a14620007e2578063715018a6146200080557806373265c37146200081d578063733a2d1f14620008425780637817ee4f146200086757806378a0b8a914620008b25780637b10399914620008ca57806382d6a1e714620008ed57806388cfe68414620009125780638961be6b14620009885780638da5cb5b14620009a057806391d1485414620009b8578063a0cf0aea14620009dd578063a217fddf1462000a07578063a230c5241462000a1e578063b3f006741462000a43578063b5058c501462000a69578063b64e39af1462000a81578063b99b43701462000aa8578063bc063e1a1462000ac0578063c4d66de81462000ad8578063c6d572ae1462000afd578063d547741f1462000b15578063d6d8428d1462000b3a578063d7050f071462000b5d578063db61d65c1462000b75578063e16d0e321462000b98578063ebd7dc521462000bbd578063f2fde38b1462000be2578063f86c5f891462000c07575b600080fd5b3480156200030e57600080fd5b50620003266200032036600462004141565b62000c2a565b60405190151581526020015b60405180910390f35b3480156200034857600080fd5b5060fc545b60405190815260200162000332565b3480156200036957600080fd5b506200034d60ff5481565b3480156200038157600080fd5b5062000399620003933660046200416d565b62000c62565b005b348015620003a857600080fd5b5062000399620003ba366004620041af565b62000cd8565b348015620003cd57600080fd5b5062000399620003df366004620041ed565b62001046565b348015620003f257600080fd5b5061010054620003269060ff1681565b3480156200040f57600080fd5b506200039962000421366004620041ed565b6200105e565b3480156200043457600080fd5b506200039962000446366004620041af565b62001073565b3480156200045957600080fd5b506200034d6200046b3660046200416d565b6200116d565b3480156200047e57600080fd5b506200034d62001182565b3480156200049657600080fd5b50620004ae620004a83660046200420d565b62001287565b60405162000332919062004249565b348015620004ca57600080fd5b506200034d620004dc366004620041ed565b6001600160a01b0316600090815261010c602052604090206001015490565b3480156200050857600080fd5b50620003996200051a3660046200425d565b620012c1565b3480156200052d57600080fd5b50620003996200053f3660046200416d565b620012e8565b3480156200055257600080fd5b506200034d60fe5481565b3480156200056a57600080fd5b50620003996200057c36600462004491565b62001328565b3480156200058f57600080fd5b5062000399620019e6565b348015620005a757600080fd5b5062000399620005b93660046200425d565b62001c45565b348015620005cc57600080fd5b5062000399620005de366004620041ed565b62001cc7565b348015620005f157600080fd5b506200039962000603366004620041ed565b62001d98565b3480156200061657600080fd5b506200032662000628366004620041ed565b61010a6020526000908152604090205460ff1681565b3480156200064b57600080fd5b50620003266200065d366004620041af565b61010e60209081526000928352604080842090915290825290205460ff1681565b620003996200068f36600462004624565b62001e05565b348015620006a257600080fd5b50620006ba620006b43660046200484e565b62001ec6565b604080519283526001600160a01b0390911660208301520162000332565b348015620006e557600080fd5b506200034d62001fa8565b348015620006fd57600080fd5b50620003996200070f3660046200416d565b62002059565b3480156200072257600080fd5b5061010254620004ae906001600160a01b031681565b3480156200074557600080fd5b5062000399620007573660046200416d565b620022a5565b3480156200076a57600080fd5b506200034d6200077c366004620041af565b61010b60209081526000928352604080842090915290825290205481565b348015620007a757600080fd5b5062000399620007b9366004620041af565b6200263f565b348015620007cc57600080fd5b5061010354620004ae906001600160a01b031681565b348015620007ef57600080fd5b5061010654620004ae906001600160a01b031681565b3480156200081257600080fd5b5062000399620027f4565b3480156200082a57600080fd5b50620003996200083c3660046200416d565b6200280a565b3480156200084f57600080fd5b506200034d6000805160206200584383398151915281565b3480156200087457600080fd5b506200034d62000886366004620041af565b6001600160a01b03918216600090815261010b6020908152604080832093909416825291909152205490565b348015620008bf57600080fd5b506200034d60fc5481565b348015620008d757600080fd5b5061010454620004ae906001600160a01b031681565b348015620008fa57600080fd5b50620003996200090c3660046200416d565b620028a6565b3480156200091f57600080fd5b506200096062000931366004620041ed565b61010c602052600090815260409020805460018201546002909201546001600160a01b03909116919060ff1683565b604080516001600160a01b039094168452602084019290925215159082015260600162000332565b3480156200099557600080fd5b506200034d60fd5481565b348015620009ad57600080fd5b50620004ae62002964565b348015620009c557600080fd5b5062000326620009d73660046200425d565b620029ff565b348015620009ea57600080fd5b50620004ae73eeeeeeeeeeeeeeeeeeeeeeeeeeeeeeeeeeeeeeee81565b34801562000a1457600080fd5b506200034d600081565b34801562000a2b57600080fd5b506200032662000a3d366004620041ed565b62002a2a565b34801562000a5057600080fd5b506101008054620004ae916001600160a01b0391041681565b34801562000a7657600080fd5b506200039962002a74565b34801562000a8e57600080fd5b5062000a9962002aab565b6040516200033291906200490c565b34801562000ab557600080fd5b506200039962002b42565b34801562000acd57600080fd5b506200034d62002caa565b34801562000ae557600080fd5b506200039962000af7366004620041ed565b62002cbc565b34801562000b0a57600080fd5b5062000a9962002cf1565b34801562000b2257600080fd5b506200039962000b343660046200425d565b62002d01565b34801562000b4757600080fd5b5061010754620004ae906001600160a01b031681565b34801562000b6a57600080fd5b506200034d61271081565b34801562000b8257600080fd5b5061010554620004ae906001600160a01b031681565b34801562000ba557600080fd5b50620006ba62000bb736600462004921565b62002d23565b34801562000bca57600080fd5b506200032662000bdc366004620041ed565b62002eb0565b34801562000bef57600080fd5b506200039962000c01366004620041ed565b62002ecd565b34801562000c1457600080fd5b5061010154620004ae906001600160a01b031681565b60006001600160e01b03198216637965db0b60e01b148062000c5c57506301ffc9a760e01b6001600160e01b03198316145b92915050565b62000c6c62002f3e565b62000c7b612710600a620049b6565b81111562000c9c5760405163fe925f7d60e01b815260040160405180910390fd5b60fd8190556040518181527f611668bfcf654a99c33cdb66c29ec37a5aae5c1287d2d9715a24e18cb4d806d6906020015b60405180910390a150565b62000ce38262002f7b565b62000cee8162002fa4565b62000cf98162002fdf565b6001600160a01b03808316600090815261010e602090815260408083209385168352929052205460ff161562000d4257604051636adcde4b60e11b815260040160405180910390fd5b6001600160a01b03808316600090815261010c602090815260409182902082516060810184528154909416845260018101549184018290526002015460ff1615159183019190915260fc546003846001600160a01b031663c32921716040518163ffffffff1660e01b81526004016020604051808303816000875af115801562000dd0573d6000803e3d6000fd5b505050506040513d601f19601f8201168201806040525081019062000df69190620049e6565b600381111562000e0a5762000e0a620049d0565b0362000e8f5760405163782aadff60e01b81526001600160a01b0385169063782aadff9062000e4190889060009060040162004a06565b6020604051808303816000875af115801562000e61573d6000803e3d6000fd5b505050506040513d601f19601f8201168201806040525081019062000e87919062004a1f565b905062000f8b565b6000846001600160a01b031663c32921716040518163ffffffff1660e01b81526004016020604051808303816000875af115801562000ed2573d6000803e3d6000fd5b505050506040513d601f19601f8201168201806040525081019062000ef89190620049e6565b600381111562000f0c5762000f0c620049d0565b1462000f8b5760405163782aadff60e01b81526001600160a01b0385169063782aadff9062000f42908890869060040162004a06565b6020604051808303816000875af115801562000f62573d6000803e3d6000fd5b505050506040513d601f19601f8201168201806040525081019062000f88919062004a1f565b90505b6001600160a01b03808616600081815261010b6020908152604080832094891680845294825280832086905583835261010e82528083208584528252808320805460ff1916600190811790915593835261010d8252808320805494850181558352912090910180546001600160a01b031916909217909155517ff56fa57e85e169a12200d12d9921ec069b52e688f6d309d9dab7bceff54614ec90620010379087908790859062004a39565b60405180910390a15050505050565b6200105062002f3e565b6200105b8162003007565b50565b6200106862002f3e565b6200105b8162003065565b6200107e8262002f7b565b620010898162002fdf565b620010953382620030f7565b6001600160a01b03808316600090815261010e602090815260408083209385168352929052205460ff16620010dd57604051633048da7760e21b815260040160405180910390fd5b6001600160a01b03808316600081815261010e60209081526040808320948616808452948252808320805460ff1916905592825261010b8152828220938252929092528120556200112f82826200312a565b7ede109bef4619f7e2cf00c8e5a50ca55f8deb44f87087eed414a91dbf8d1d1b82826040516200116192919062004a5d565b60405180910390a15050565b600090815260c9602052604090206001015490565b610101546000906001600160a01b031681620011a26127106064620049b6565b60fd5460fc54620011b49190620049b6565b620011c0919062004a77565b90506000620011d36127106064620049b6565b6040516302a64b8360e21b81526001600160a01b03851690630a992e0c906200120190309060040162004249565b602060405180830381865afa1580156200121f573d6000803e3d6000fd5b505050506040513d601f19601f8201168201806040525081019062001245919062004a1f565b60fc54620012549190620049b6565b62001260919062004a77565b9050808260fc5462001273919062004a9a565b6200127f919062004a9a565b935050505090565b61010d6020528160005260406000208181548110620012a557600080fd5b6000918252602090912001546001600160a01b03169150829050565b620012cc826200116d565b620012d78162003260565b620012e383836200326c565b505050565b620012f262002f3e565b60fc8190556040518181527f5bcc2c453001fb0e2ba6266d56ecb411e7c6e15c8f9c3d301f93dd36ad25726f9060200162000ccd565b600054610100900460ff1615808015620013495750600054600160ff909116105b806200136e57506200135b30620032f6565b1580156200136e575060005460ff166001145b620013d75760405162461bcd60e51b815260206004820152602e60248201527f496e697469616c697a61626c653a20636f6e747261637420697320616c72656160448201526d191e481a5b9a5d1a585b1a5e995960921b60648201526084015b60405180910390fd5b6000805460ff191660011790558015620013fb576000805461ff0019166101001790555b620014068262002cbc565b6200141062003305565b6200141a62003339565b6200143660008051602062005843833981519152600062003363565b62001445856020015162002fdf565b6200145585610100015162002fdf565b8451620014629062002fdf565b620014718560a0015162002fdf565b6060850151156200148b576200148b8560c0015162002fdf565b845161010780546001600160a01b039283166001600160a01b031991821617909155602087015161010580549190931691161790556040850151600003620014e6576040516363868c5560e11b815260040160405180910390fd5b604085015160fc55606085015160fd55610140850151610100805460ff19169115159190911790556101208501516101089062001524908262004b3e565b50610160850151610109906200153b908262004b3e565b5060a085015161010180546001600160a01b03199081166001600160a01b039384161790915560c08701516101008054610100600160a81b03191691841681029190911781558701516101068054909216928116929092179055620015b19060008051602062005843833981519152906200326c565b61010760009054906101000a90046001600160a01b03166001600160a01b0316635ab1bd536040518163ffffffff1660e01b8152600401602060405180830381865afa15801562001606573d6000803e3d6000fd5b505050506040513d601f19601f820116820180604052508101906200162c919062004c0a565b61010480546001600160a01b0319166001600160a01b0392831617905561010654606091163b600003620016b857604080516003808252608082019092529060208201606080368337019050509050338160008151811062001692576200169262004c2a565b60200260200101906001600160a01b031690816001600160a01b031681525050620017f5565b610106546040805163a0e67e2b60e01b815290516000926001600160a01b03169163a0e67e2b91600480830192869291908290030181865afa15801562001703573d6000803e3d6000fd5b505050506040513d6000823e601f3d908101601f191682016040526200172d919081019062004c40565b9050805160026200173f919062004a9a565b6001600160401b0381111562001759576200175962004285565b60405190808252806020026020018201604052801562001783578160200160208202803683370190505b50915060005b8151811015620017f257818181518110620017a857620017a862004c2a565b6020026020010151838281518110620017c557620017c562004c2a565b6001600160a01b039092166020928302919091019091015280620017e98162004cfe565b91505062001789565b50505b6101065481516001600160a01b03909116908290620018179060019062004d1a565b815181106200182a576200182a62004c2a565b60200260200101906001600160a01b031690816001600160a01b0316815250503081600283516200185c919062004d1a565b815181106200186f576200186f62004c2a565b6001600160a01b03928316602091820292909201015261010454608088015160e0890151604051633a92f65f60e01b81529290931692633a92f65f92620018c29291610108913090889060040162004e1c565b6020604051808303816000875af1158015620018e2573d6000803e3d6000fd5b505050506040513d601f19601f8201168201806040525081019062001908919062004a1f565b60ff558051620019219061010f9060208401906200409b565b5061010280546001600160a01b038088166001600160a01b03199283161790925560fb80549287169290911691909117905560ff5460e08701516040517f2f2ffcb06f8a1d35e2716f6b43ef2c19bfa76467d8f66964ae12c2583ed032059262001992929091610108919062004e70565b60405180910390a1508015620019df576000805461ff0019169055604051600181527f7f26b83ff96e1f2b6a682f133852f6798a09c465da95921460cefb38474024989060200162001037565b5050505050565b620019f0620033b8565b33600081815261010c602052604081206101015490916001600160a01b039091169062001a216127106064620049b6565b60fd5460fc5462001a339190620049b6565b62001a3f919062004a77565b9050600062001a526127106064620049b6565b6040516302a64b8360e21b81526001600160a01b03851690630a992e0c9062001a8090309060040162004249565b602060405180830381865afa15801562001a9e573d6000803e3d6000fd5b505050506040513d601f19601f8201168201806040525081019062001ac4919062004a1f565b60fc5462001ad39190620049b6565b62001adf919062004a77565b905062001aec8562002a2a565b62001c335760028401805460ff1916600190811790915560fc5490850181905562001b469086903090849062001b2490879062004a9a565b62001b30919062004a9a565b610105546001600160a01b031692919062003413565b811562001b705761010080546101055462001b70926001600160a01b03918216920416846200346f565b801562001bf55762001bf5836001600160a01b031663987435be6040518163ffffffff1660e01b8152600401602060405180830381865afa15801562001bba573d6000803e3d6000fd5b505050506040513d601f19601f8201168201806040525081019062001be0919062004c0a565b610105546001600160a01b031690836200346f565b7f67e0244e28040fec15240cd4b6c04c776a2a0278caef23b59e8ada1df31f76898560fc5460405162001c2a92919062004a06565b60405180910390a15b505050505062001c436001606555565b565b6001600160a01b038116331462001cb75760405162461bcd60e51b815260206004820152602f60248201527f416363657373436f6e74726f6c3a2063616e206f6e6c792072656e6f756e636560448201526e103937b632b9903337b91039b2b63360891b6064820152608401620013ce565b62001cc3828262003498565b5050565b6001600160a01b037f000000000000000000000000000000000000000000000000000000000000000016300362001d125760405162461bcd60e51b8152600401620013ce9062004e9f565b7f00000000000000000000000000000000000000000000000000000000000000006001600160a01b031662001d4662003502565b6001600160a01b03161462001d6f5760405162461bcd60e51b8152600401620013ce9062004eda565b62001d7a816200351f565b604080516000808252602082019092526200105b9183919062003561565b62001da262002f3e565b62001dad8162002fdf565b61010380546001600160a01b0319166001600160a01b03838116918217909255610106546040517f83eac9fdaff0ac1017624b7eddeb9782e3d707cd894073cb7e8301a41c6e5cf89362000ccd939216919062004a5d565b6001600160a01b037f000000000000000000000000000000000000000000000000000000000000000016300362001e505760405162461bcd60e51b8152600401620013ce9062004e9f565b7f00000000000000000000000000000000000000000000000000000000000000006001600160a01b031662001e8462003502565b6001600160a01b03161462001ead5760405162461bcd60e51b8152600401620013ce9062004eda565b62001eb8826200351f565b62001cc38282600162003561565b610102546101075460fb54600092839283926001600160a01b039283169263184b955960e01b928116911662001efb62002964565b6040516001600160a01b0393841660248201529183166044830152909116606482015260840160408051601f198184030181529181526020820180516001600160e01b03166001600160e01b031990941693909317909252905162001f609062004101565b62001f6d92919062004f15565b604051809103906000f08015801562001f8a573d6000803e3d6000fd5b50905062001f9b8187878762002d23565b9250925050935093915050565b6000306001600160a01b037f00000000000000000000000000000000000000000000000000000000000000001614620020455760405162461bcd60e51b815260206004820152603860248201527f555550535570677261646561626c653a206d757374206e6f742062652063616c6044820152771b1959081d1a1c9bdd59da0819195b1959d85d1958d85b1b60421b6064820152608401620013ce565b506000805160206200588383398151915290565b62002063620033b8565b6200206d620036d9565b33600081815261010d6020908152604080832080548251818502810185019093528083529192909190830182828015620020d157602002820191906000526020600020905b81546001600160a01b03168152600190910190602001808311620020b2575b50505050509050600080600090505b82518110156200220c57828181518110620020ff57620020ff62004c2a565b60200260200101516001600160a01b031663782aadff85876040518363ffffffff1660e01b81526004016200213692919062004a06565b6020604051808303816000875af115801562002156573d6000803e3d6000fd5b505050506040513d601f19601f820116820180604052508101906200217c919062004a1f565b91508115620021f7576001600160a01b038416600090815261010b602052604081208451849290869085908110620021b857620021b862004c2a565b60200260200101516001600160a01b03166001600160a01b031681526020019081526020016000206000828254620021f1919062004a9a565b90915550505b80620022038162004cfe565b915050620020e0565b506101055462002228906001600160a01b031684308762003413565b6001600160a01b038316600090815261010c6020526040812060010180548692906200225690849062004a9a565b90915550506040517f576605f9bfe8911e7508bed3763c7c5c8eb3b86e8b360b90a4bc6abe1104cb7f906200228f908590879062004a06565b60405180910390a15050506200105b6001606555565b620022af620033b8565b620022b9620036d9565b33600081815261010d6020908152604080832060fc5461010c9093529083206001015490929190620022ed90869062004d1a565b10156200230d57604051634e23e81760e11b815260040160405180910390fd5b6101055462002327906001600160a01b031684866200346f565b60005b8254811015620025d75760008382815481106200234b576200234b62004c2a565b6000918252602090912001546001600160a01b03169050620023758163f1801e6160e01b62003702565b15620024fb57604051632ed04b2b60e01b81526001600160a01b03821690632ed04b2b90620023ab9088908a9060040162004a06565b6020604051808303816000875af1158015620023cb573d6000803e3d6000fd5b505050506040513d601f19601f82011682018060405250810190620023f1919062004a1f565b9250600061010b6000876001600160a01b03166001600160a01b03168152602001908152602001600020600086858154811062002432576200243262004c2a565b60009182526020808320909101546001600160a01b0316835282019290925260400190205490508084111562002486576040516311423e6360e31b81526004810185905260248101829052604401620013ce565b6001600160a01b038616600090815261010b602052604081208654869290889087908110620024b957620024b962004c2a565b60009182526020808320909101546001600160a01b0316835282019290925260400181208054909190620024ef90849062004d1a565b909155505050620025c1565b835484906200250d9060019062004d1a565b8154811062002520576200252062004c2a565b9060005260206000200160009054906101000a90046001600160a01b031684838154811062002553576200255362004c2a565b9060005260206000200160006101000a8154816001600160a01b0302191690836001600160a01b031602179055508380548062002594576200259462004f3b565b600082815260209020810160001990810180546001600160a01b0319169055019055620025c18162003007565b5080620025ce8162004cfe565b9150506200232a565b506001600160a01b038316600090815261010c6020526040812060010180548692906200260690849062004d1a565b90915550506040517f6ee2c70b2d6b89ae808a2313aab43e925c06624271419cd665d85cfa1ae04ff8906200228f908590879062004a06565b62002649620033b8565b6200265362002f3e565b6101005460ff1662002678576040516365b1ee3960e11b815260040160405180910390fd5b620026838262002a2a565b620026a157604051636a5cfb6d60e01b815260040160405180910390fd5b6001600160a01b03808316600090815261010c60209081526040918290208251606081018452815490941684526001810154918401919091526002015460ff16151590820152620026f2836200372a565b6001600160a01b03808416600090815261010c6020908152604080832080546001600160a01b031916815560018101939093556002909201805460ff191690556101055490840151915163a9059cbb60e01b815292169163a9059cbb91620027609186919060040162004a06565b6020604051808303816000875af115801562002780573d6000803e3d6000fd5b505050506040513d601f19601f82011682018060405250810190620027a6919062004f51565b507fb5946f249f8744efe9d14d49a483b54a589b1362944ff6694de93456cceb96a383838360200151604051620027e09392919062004a39565b60405180910390a15062001cc36001606555565b620027fe6200383f565b62001c436000620038a2565b6200281462002f3e565b6101075460405163068bcd8d60e01b8152600481018390526000916001600160a01b03169063068bcd8d90602401600060405180830381865afa15801562002860573d6000803e3d6000fd5b505050506040513d6000823e601f3d908101601f191682016040526200288a919081019062004f71565b6020015190506200289b8162002fdf565b62001cc38162003007565b620028b062002f3e565b6101075460405163068bcd8d60e01b8152600481018390526000916001600160a01b03169063068bcd8d90602401600060405180830381865afa158015620028fc573d6000803e3d6000fd5b505050506040513d6000823e601f3d908101601f1916820160405262002926919081019062004f71565b602001519050620029378162002fdf565b620029536001600160a01b03821663f1801e6160e01b62003702565b1562001cc35762001cc38162003065565b6000806200297a6033546001600160a01b031690565b9050806001600160a01b03163b6000036200299457919050565b806001600160a01b0316638da5cb5b6040518163ffffffff1660e01b8152600401602060405180830381865afa925050508015620029f1575060408051601f3d908101601f19168201909252620029ee9181019062004c0a565b60015b62000c5c57919050565b5090565b600091825260c9602090815260408084206001600160a01b0393909316845291905290205460ff1690565b6001600160a01b03908116600090815261010c60209081526040918290208251606081018452815490941684526001810154918401919091526002015460ff161515910181905290565b610103546001600160a01b0316331462002aa1576040516375e686b760e11b815260040160405180910390fd5b62001c43620038f4565b610109805462002abb9062004ab0565b80601f016020809104026020016040519081016040528092919081815260200182805462002ae99062004ab0565b801562002b3a5780601f1062002b0e5761010080835404028352916020019162002b3a565b820191906000526020600020905b81548152906001019060200180831162002b1c57829003601f168201915b505050505081565b62002b4c620033b8565b3362002b588162002f7b565b62002b63816200372a565b6001600160a01b03808216600081815261010c602090815260408083208151606081018352815496871681526001820180548286015260028301805460ff81161515848701529787526001600160a01b03199098169092559084905560ff1990941690945561010d9052918220909162002bde91906200410f565b61010554602082015160405163a9059cbb60e01b81526001600160a01b039092169163a9059cbb9162002c179186919060040162004a06565b6020604051808303816000875af115801562002c37573d6000803e3d6000fd5b505050506040513d601f19601f8201168201806040525081019062002c5d919062004f51565b507fa13f4668aacb68c4e9eed8e3f6e1cbec3eca776896ec46b5eabcc3983fc8f5f482826020015160405162002c9592919062004a06565b60405180910390a1505062001c436001606555565b62002cb9612710600a620049b6565b81565b600054610100900460ff1662002ce65760405162461bcd60e51b8152600401620013ce90620050a7565b6200105b81620038a2565b610108805462002abb9062004ab0565b62002d0c826200116d565b62002d178162003260565b620012e3838362003498565b60008073eeeeeeeeeeeeeeeeeeeeeeeeeeeeeeeeeeeeeeee6001600160a01b0386161562002d4e5750845b869150600061010f80548060200260200160405190810160405280929190818152602001828054801562002dac57602002820191906000526020600020905b81546001600160a01b0316815260019091019060200180831162002d8d575b50506101075460ff546040519596506001600160a01b039091169463e1007d4a945090925087915062002de4908b906020016200511c565b6040516020818303038152906040528660008b886040518863ffffffff1660e01b815260040162002e1c9796959493929190620051fe565b6020604051808303816000875af115801562002e3c573d6000803e3d6000fd5b505050506040513d601f19601f8201168201806040525081019062002e62919062004a1f565b93507f778cac0ae0b66477341553a4a89398c61ccf448313d3354ad0ca85a5a825d2838484308a8960405162002e9d9594939291906200526f565b60405180910390a1505094509492505050565b600062000c5c6000805160206200584383398151915283620029ff565b62002ed76200383f565b6001600160a01b03811662002ce65760405162461bcd60e51b815260206004820152602660248201527f4f776e61626c653a206e6577206f776e657220697320746865207a65726f206160448201526564647265737360d01b6064820152608401620013ce565b62002f596000805160206200584383398151915233620029ff565b62001c43573360405163fc4be72f60e01b8152600401620013ce919062004249565b62002f868162002a2a565b6200105b57604051636a5cfb6d60e01b815260040160405180910390fd5b6001600160a01b038116600090815261010a602052604090205460ff166200105b576040516346c26e4b60e01b815260040160405180910390fd5b6001600160a01b0381166200105b576040516303988b8160e61b815260040160405180910390fd5b620030128162002fdf565b6001600160a01b038116600090815261010a602052604090819020805460ff19169055517f09a1db4b80c32706328728508c941a6b954f31eb5affd32f236c1fd405f8fea49062000ccd90839062004249565b6001600160a01b038116600090815261010a602052604090205460ff1615620030a1576040516325a2934b60e21b815260040160405180910390fd5b6001600160a01b038116600090815261010a602052604090819020805460ff19166001179055517f3f008fd510eae7a9e7bee13513d7b83bef8003d488b5a3d0b0da4de71d6846f19062000ccd90839062004249565b806001600160a01b0316826001600160a01b03161462001cc35760405163bbe7961160e01b815260040160405180910390fd5b6001600160a01b038216600090815261010d60205260408120905b81548110156200325a57826001600160a01b03168282815481106200316e576200316e62004c2a565b6000918252602090912001546001600160a01b0316036200324557815482906200319b9060019062004d1a565b81548110620031ae57620031ae62004c2a565b9060005260206000200160009054906101000a90046001600160a01b0316828281548110620031e157620031e162004c2a565b9060005260206000200160006101000a8154816001600160a01b0302191690836001600160a01b031602179055508180548062003222576200322262004f3b565b600082815260209020810160001990810180546001600160a01b03191690550190555b80620032518162004cfe565b91505062003145565b50505050565b6200105b813362003958565b620032788282620029ff565b62001cc357600082815260c9602090815260408083206001600160a01b03851684529091529020805460ff19166001179055620032b23390565b6001600160a01b0316816001600160a01b0316837f2f8788117e7eff1d82e926ec794901d17c78024a50270940304540a733656f0d60405160405180910390a45050565b6001600160a01b03163b151590565b600054610100900460ff166200332f5760405162461bcd60e51b8152600401620013ce90620050a7565b62001c43620039bc565b600054610100900460ff1662001c435760405162461bcd60e51b8152600401620013ce90620050a7565b600062003370836200116d565b600084815260c96020526040808220600101859055519192508391839186917fbd79b86ffe0ab8e8776151514217cd7cacd52c909f66475c3af44e129f0b00ff9190a4505050565b6002606554036200340c5760405162461bcd60e51b815260206004820152601f60248201527f5265656e7472616e637947756172643a207265656e7472616e742063616c6c006044820152606401620013ce565b6002606555565b6200325a846323b872dd60e01b858585604051602401620034379392919062004a39565b60408051601f198184030181529190526020810180516001600160e01b03166001600160e01b031990931692909217909152620039e6565b620012e38363a9059cbb60e01b84846040516024016200343792919062004a06565b6001606555565b620034a48282620029ff565b1562001cc357600082815260c9602090815260408083206001600160a01b0385168085529252808320805460ff1916905551339285917ff6391f5c32d9c69d2a47ea670b442974b53935d1edc7fd64eb21e047a839171b9190a45050565b60008051602062005883833981519152546001600160a01b031690565b336200352a62002964565b6001600160a01b0316146200105b57336200354462002964565b60405163163678e960e01b8152600401620013ce92919062004a5d565b7f4910fdfa16fed3260ed0e7147f7cc6da11a60208b5b9406d12a635614ffd91435460ff16156200359757620012e38362003ac2565b826001600160a01b03166352d1902d6040518163ffffffff1660e01b8152600401602060405180830381865afa925050508015620035f4575060408051601f3d908101601f19168201909252620035f19181019062004a1f565b60015b620036595760405162461bcd60e51b815260206004820152602e60248201527f45524331393637557067726164653a206e657720696d706c656d656e7461746960448201526d6f6e206973206e6f74205555505360901b6064820152608401620013ce565b600080516020620058838339815191528114620036cb5760405162461bcd60e51b815260206004820152602960248201527f45524331393637557067726164653a20756e737570706f727465642070726f786044820152681a58589b195555525160ba1b6064820152608401620013ce565b50620012e383838362003b61565b620036e43362002a2a565b62001c4357604051636a5cfb6d60e01b815260040160405180910390fd5b60006200370f8362003b8c565b801562003723575062003723838362003bc4565b9392505050565b6001600160a01b038116600090815261010d60209081526040808320805482518185028101850190935280835291929091908301828280156200379757602002820191906000526020600020905b81546001600160a01b0316815260019091019060200180831162003778575b5050505050905060005b8151811015620012e357818181518110620037c057620037c062004c2a565b60200260200101516001600160a01b0316636453d9c4846040518263ffffffff1660e01b8152600401620037f5919062004249565b600060405180830381600087803b1580156200381057600080fd5b505af115801562003825573d6000803e3d6000fd5b505050508080620038369062004cfe565b915050620037a1565b336200384a62002964565b6001600160a01b03161462001c435760405162461bcd60e51b815260206004820181905260248201527f4f776e61626c653a2063616c6c6572206973206e6f7420746865206f776e65726044820152606401620013ce565b603380546001600160a01b038381166001600160a01b0319831681179093556040519116919082907f8be0079c531659141344cd1fd0a4f28419497f9722a3daafe3b4186f6b6457e090600090a35050565b610103805461010680546001600160a01b03199081166001600160a01b038416179091551690556040517fad0399dc40331b9a4977aa89da7a164a3fd482c65e6da73b25a94ea74fb68872906200394e9060009062004249565b60405180910390a1565b620039648282620029ff565b62001cc357620039748162003c4f565b6200398183602062003c62565b60405160200162003994929190620052ab565b60408051601f198184030181529082905262461bcd60e51b8252620013ce916004016200490c565b600054610100900460ff16620034915760405162461bcd60e51b8152600401620013ce90620050a7565b600062003a3d826040518060400160405280602081526020017f5361666545524332303a206c6f772d6c6576656c2063616c6c206661696c6564815250856001600160a01b031662003e1b9092919063ffffffff16565b905080516000148062003a6157508080602001905181019062003a61919062004f51565b620012e35760405162461bcd60e51b815260206004820152602a60248201527f5361666545524332303a204552433230206f7065726174696f6e20646964206e6044820152691bdd081cdd58d8d9595960b21b6064820152608401620013ce565b62003acd81620032f6565b62003b315760405162461bcd60e51b815260206004820152602d60248201527f455243313936373a206e657720696d706c656d656e746174696f6e206973206e60448201526c1bdd08184818dbdb9d1c9858dd609a1b6064820152608401620013ce565b6000805160206200588383398151915280546001600160a01b0319166001600160a01b0392909216919091179055565b62003b6c8362003e34565b60008251118062003b7a5750805b15620012e3576200325a838362003e76565b600062003ba1826301ffc9a760e01b62003bc4565b801562000c5c575062003bbd826001600160e01b031962003bc4565b1592915050565b604080516001600160e01b03198316602480830191909152825180830390910181526044909101909152602080820180516001600160e01b03166301ffc9a760e01b178152825160009392849283928392918391908a617530fa92503d9150600051905082801562003c37575060208210155b801562003c445750600081115b979650505050505050565b606062000c5c6001600160a01b03831660145b6060600062003c73836002620049b6565b62003c8090600262004a9a565b6001600160401b0381111562003c9a5762003c9a62004285565b6040519080825280601f01601f19166020018201604052801562003cc5576020820181803683370190505b509050600360fc1b8160008151811062003ce35762003ce362004c2a565b60200101906001600160f81b031916908160001a905350600f60fb1b8160018151811062003d155762003d1562004c2a565b60200101906001600160f81b031916908160001a905350600062003d3b846002620049b6565b62003d4890600162004a9a565b90505b600181111562003dca576f181899199a1a9b1b9c1cb0b131b232b360811b85600f166010811062003d805762003d8062004c2a565b1a60f81b82828151811062003d995762003d9962004c2a565b60200101906001600160f81b031916908160001a90535060049490941c9362003dc2816200531e565b905062003d4b565b508315620037235760405162461bcd60e51b815260206004820181905260248201527f537472696e67733a20686578206c656e67746820696e73756666696369656e746044820152606401620013ce565b606062003e2c848460008562003e9e565b949350505050565b62003e3f8162003ac2565b6040516001600160a01b038216907fbc7cd75a20ee27fd9adebab32041f755214dbc6bffa90cc0225b39da2e5c2d3b90600090a250565b6060620037238383604051806060016040528060278152602001620058a36027913962003f76565b60608247101562003f015760405162461bcd60e51b815260206004820152602660248201527f416464726573733a20696e73756666696369656e742062616c616e636520666f6044820152651c8818d85b1b60d21b6064820152608401620013ce565b600080866001600160a01b0316858760405162003f1f919062005338565b60006040518083038185875af1925050503d806000811462003f5e576040519150601f19603f3d011682016040523d82523d6000602084013e62003f63565b606091505b509150915062003c448783838762003ff4565b6060600080856001600160a01b03168560405162003f95919062005338565b600060405180830381855af49150503d806000811462003fd2576040519150601f19603f3d011682016040523d82523d6000602084013e62003fd7565b606091505b509150915062003fea8683838762003ff4565b9695505050505050565b606083156200406857825160000362004060576200401285620032f6565b620040605760405162461bcd60e51b815260206004820152601d60248201527f416464726573733a2063616c6c20746f206e6f6e2d636f6e74726163740000006044820152606401620013ce565b508162003e2c565b62003e2c83838151156200407f5781518083602001fd5b8060405162461bcd60e51b8152600401620013ce91906200490c565b828054828255906000526020600020908101928215620040f3579160200282015b82811115620040f357825182546001600160a01b0319166001600160a01b03909116178255602090920191600190910190620040bc565b50620029fb9291506200412a565b6104ec806200535783390190565b50805460008255906000526020600020908101906200105b91905b5b80821115620029fb57600081556001016200412b565b6000602082840312156200415457600080fd5b81356001600160e01b0319811681146200372357600080fd5b6000602082840312156200418057600080fd5b5035919050565b6001600160a01b03811681146200105b57600080fd5b8035620041aa8162004187565b919050565b60008060408385031215620041c357600080fd5b8235620041d08162004187565b91506020830135620041e28162004187565b809150509250929050565b6000602082840312156200420057600080fd5b8135620037238162004187565b600080604083850312156200422157600080fd5b82356200422e8162004187565b946020939093013593505050565b6001600160a01b03169052565b6001600160a01b0391909116815260200190565b600080604083850312156200427157600080fd5b823591506020830135620041e28162004187565b634e487b7160e01b600052604160045260246000fd5b604080519081016001600160401b0381118282101715620042c057620042c062004285565b60405290565b60405161018081016001600160401b0381118282101715620042c057620042c062004285565b60405160c081016001600160401b0381118282101715620042c057620042c062004285565b60405160e081016001600160401b0381118282101715620042c057620042c062004285565b604051608081016001600160401b0381118282101715620042c057620042c062004285565b604051601f8201601f191681016001600160401b038111828210171562004386576200438662004285565b604052919050565b60006001600160401b03821115620043aa57620043aa62004285565b50601f01601f191660200190565b6000620043cf620043c9846200438e565b6200435b565b9050828152838383011115620043e457600080fd5b828260208301376000602084830101529392505050565b600082601f8301126200440d57600080fd5b6200372383833560208501620043b8565b6000604082840312156200443157600080fd5b6200443b6200429b565b82358152905060208201356001600160401b038111156200445b57600080fd5b6200446984828501620043fb565b60208301525092915050565b80151581146200105b57600080fd5b8035620041aa8162004475565b60008060008060808587031215620044a857600080fd5b84356001600160401b0380821115620044c057600080fd5b908601906101808289031215620044d657600080fd5b620044e0620042c6565b620044eb836200419d565b8152620044fb602084016200419d565b60208201526040830135604082015260608301356060820152608083013560808201526200452c60a084016200419d565b60a08201526200453f60c084016200419d565b60c082015260e0830135828111156200455757600080fd5b620045658a8286016200441e565b60e0830152506101006200457b8185016200419d565b9082015261012083810135838111156200459457600080fd5b620045a28b828701620043fb565b828401525050610140620045b881850162004484565b908201526101608381013583811115620045d157600080fd5b620045df8b828701620043fb565b828401525050809650505050620045f9602086016200419d565b925062004609604086016200419d565b915062004619606086016200419d565b905092959194509250565b600080604083850312156200463857600080fd5b8235620046458162004187565b915060208301356001600160401b038111156200466157600080fd5b8301601f810185136200467357600080fd5b6200468485823560208401620043b8565b9150509250929050565b803560038110620041aa57600080fd5b600481106200105b57600080fd5b8035620041aa816200469e565b600060208284031215620046cc57600080fd5b604051602081016001600160401b0381118282101715620046f157620046f162004285565b6040529135825250919050565b600060c082840312156200471157600080fd5b6200471b620042ec565b905081356200472a8162004187565b815260208201356200473c8162004187565b8060208301525060408201356040820152606082013560608201526080820135608082015260a082013560a082015292915050565b60008183036101e08112156200478657600080fd5b6200479062004311565b91506080811215620047a157600080fd5b50620047ac62004336565b8235815260208301356020820152604083013560408201526060830135606082015280825250620047e0608083016200468e565b6020820152620047f360a08301620046ac565b6040820152620048078360c08401620046b9565b60608201526200481b8360e08401620046fe565b60808201526200482f6101a083016200419d565b60a0820152620048436101c083016200419d565b60c082015292915050565b600080600061022084860312156200486557600080fd5b8335620048728162004187565b925062004883856020860162004771565b91506102008401356001600160401b03811115620048a057600080fd5b620048ae868287016200441e565b9150509250925092565b60005b83811015620048d5578181015183820152602001620048bb565b50506000910152565b60008151808452620048f8816020860160208601620048b8565b601f01601f19169290920160200192915050565b602081526000620037236020830184620048de565b60008060008061024085870312156200493957600080fd5b8435620049468162004187565b93506020850135620049588162004187565b925062004969866040870162004771565b91506102208501356001600160401b038111156200498657600080fd5b62004994878288016200441e565b91505092959194509250565b634e487b7160e01b600052601160045260246000fd5b808202811582820484141762000c5c5762000c5c620049a0565b634e487b7160e01b600052602160045260246000fd5b600060208284031215620049f957600080fd5b815162003723816200469e565b6001600160a01b03929092168252602082015260400190565b60006020828403121562004a3257600080fd5b5051919050565b6001600160a01b039384168152919092166020820152604081019190915260600190565b6001600160a01b0392831681529116602082015260400190565b60008262004a9557634e487b7160e01b600052601260045260246000fd5b500490565b8082018082111562000c5c5762000c5c620049a0565b600181811c9082168062004ac557607f821691505b60208210810362004ae657634e487b7160e01b600052602260045260246000fd5b50919050565b601f821115620012e357600081815260208120601f850160051c8101602086101562004b155750805b601f850160051c820191505b8181101562004b365782815560010162004b21565b505050505050565b81516001600160401b0381111562004b5a5762004b5a62004285565b62004b728162004b6b845462004ab0565b8462004aec565b602080601f83116001811462004baa576000841562004b915750858301515b600019600386901b1c1916600185901b17855562004b36565b600085815260208120601f198616915b8281101562004bdb5788860151825594840194600190910190840162004bba565b508582101562004bfa5787850151600019600388901b60f8161c191681555b5050505050600190811b01905550565b60006020828403121562004c1d57600080fd5b8151620037238162004187565b634e487b7160e01b600052603260045260246000fd5b6000602080838503121562004c5457600080fd5b82516001600160401b038082111562004c6c57600080fd5b818501915085601f83011262004c8157600080fd5b81518181111562004c965762004c9662004285565b8060051b915062004ca98483016200435b565b818152918301840191848101908884111562004cc457600080fd5b938501935b8385101562004cf2578451925062004ce18362004187565b828252938501939085019062004cc9565b98975050505050505050565b60006001820162004d135762004d13620049a0565b5060010190565b8181038181111562000c5c5762000c5c620049a0565b6000815462004d3f8162004ab0565b80855260206001838116801562004d5f576001811462004d7a5762004daa565b60ff1985168884015283151560051b88018301955062004daa565b866000528260002060005b8581101562004da25781548a820186015290830190840162004d85565b890184019650505b505050505092915050565b80518252600060208201516040602085015262003e2c6040850182620048de565b600081518084526020808501945080840160005b8381101562004e115781516001600160a01b03168752958201959082019060010162004dea565b509495945050505050565b85815260a06020820152600062004e3760a083018762004d30565b828103604084015262004e4b818762004db5565b6001600160a01b03861660608501528381036080850152905062004cf2818562004dd6565b83815260606020820152600062004e8b606083018562004d30565b828103604084015262003fea818562004db5565b6020808252602c908201526000805160206200586383398151915260408201526b19195b1959d85d1958d85b1b60a21b606082015260800190565b6020808252602c908201526000805160206200586383398151915260408201526b6163746976652070726f787960a01b606082015260800190565b6001600160a01b038316815260406020820181905260009062003e2c90830184620048de565b634e487b7160e01b600052603160045260246000fd5b60006020828403121562004f6457600080fd5b8151620037238162004475565b6000602080838503121562004f8557600080fd5b82516001600160401b038082111562004f9d57600080fd5b9084019060c0828703121562004fb257600080fd5b62004fbc620042ec565b825181528383015162004fcf8162004187565b81850152604083015162004fe38162004187565b604082015260608301518281111562004ffb57600080fd5b8301604081890312156200500e57600080fd5b620050186200429b565b8151815285820151848111156200502e57600080fd5b82019350601f840189136200504257600080fd5b8351915062005055620043c9836200438e565b82815289878487010111156200506a57600080fd5b6200507b83888301898801620048b8565b95810195909552506060810193909352506080818101519083015260a090810151908201529392505050565b6020808252602b908201527f496e697469616c697a61626c653a20636f6e7472616374206973206e6f74206960408201526a6e697469616c697a696e6760a81b606082015260800190565b60038110620051055762005105620049d0565b9052565b60048110620051055762005105620049d0565b60006101e0820190508251805183526020810151602084015260408101516040840152606081015160608401525060208301516200515e6080840182620050f2565b5060408301516200517360a084018262005109565b506060838101515160c084015260808085015180516001600160a01b0390811660e087015260208201511661010086015260408101516101208601529182015161014085015281015161016084015260a090810151610180840152830151620051e16101a08401826200423c565b5060c0830151620051f76101c08401826200423c565b5092915050565b878152600060018060a01b03808916602084015260e060408401526200522860e0840189620048de565b818816606085015286608085015283810360a08501526200524a818762004db5565b91505082810360c084015262005261818562004dd6565b9a9950505050505050505050565b8581526001600160a01b03858116602083015284811660408301528316606082015260a06080820181905260009062003c449083018462004db5565b76020b1b1b2b9b9a1b7b73a3937b61d1030b1b1b7bab73a1604d1b815260008351620052df816017850160208801620048b8565b7001034b99036b4b9b9b4b733903937b6329607d1b601791840191820152835162005312816028840160208801620048b8565b01602801949350505050565b600081620053305762005330620049a0565b506000190190565b600082516200534c818460208701620048b8565b919091019291505056fe60806040526040516104ec3803806104ec833981016040819052610022916102e9565b61002e82826000610035565b5050610406565b61003e83610061565b60008251118061004b5750805b1561005c5761005a83836100a1565b505b505050565b61006a816100cd565b6040516001600160a01b038216907fbc7cd75a20ee27fd9adebab32041f755214dbc6bffa90cc0225b39da2e5c2d3b90600090a250565b60606100c683836040518060600160405280602781526020016104c56027913961017e565b9392505050565b6100d6816101f7565b61013d5760405162461bcd60e51b815260206004820152602d60248201527f455243313936373a206e657720696d706c656d656e746174696f6e206973206e60448201526c1bdd08184818dbdb9d1c9858dd609a1b60648201526084015b60405180910390fd5b7f360894a13ba1a3210667c828492db98dca3e2076cc3735a920a3ca505d382bbc80546001600160a01b0319166001600160a01b0392909216919091179055565b6060600080856001600160a01b03168560405161019b91906103b7565b600060405180830381855af49150503d80600081146101d6576040519150601f19603f3d011682016040523d82523d6000602084013e6101db565b606091505b5090925090506101ed86838387610206565b9695505050505050565b6001600160a01b03163b151590565b6060831561027357825160000361026c57610220856101f7565b61026c5760405162461bcd60e51b815260206004820152601d60248201527f416464726573733a2063616c6c20746f206e6f6e2d636f6e74726163740000006044820152606401610134565b508161027d565b61027d8383610285565b949350505050565b8151156102955781518083602001fd5b8060405162461bcd60e51b815260040161013491906103d3565b634e487b7160e01b600052604160045260246000fd5b60005b838110156102e05781810151838201526020016102c8565b50506000910152565b600080604083850312156102fc57600080fd5b82516001600160a01b038116811461031357600080fd5b60208401519092506001600160401b038082111561033057600080fd5b818501915085601f83011261034457600080fd5b815181811115610356576103566102af565b604051601f8201601f19908116603f0116810190838211818310171561037e5761037e6102af565b8160405282815288602084870101111561039757600080fd5b6103a88360208301602088016102c5565b80955050505050509250929050565b600082516103c98184602087016102c5565b9190910192915050565b60208152600082518060208401526103f28160408501602087016102c5565b601f01601f19169190910160400192915050565b60b1806104146000396000f3fe608060405236601057600e6013565b005b600e5b601f601b6021565b6058565b565b600060537f360894a13ba1a3210667c828492db98dca3e2076cc3735a920a3ca505d382bbc546001600160a01b031690565b905090565b3660008037600080366000845af43d6000803e8080156076573d6000f35b3d6000fdfea2646970667358221220ad78013471c7ea2271f886ec15c90cc8b0b11ac79f0174f6004c4b8d4b97ac1764736f6c63430008130033416464726573733a206c6f772d6c6576656c2064656c65676174652063616c6c206661696c656403be538b6391ddcd7f2649585cc95b120c9e2a613f70714fbb55345057d809fa46756e6374696f6e206d7573742062652063616c6c6564207468726f75676820360894a13ba1a3210667c828492db98dca3e2076cc3735a920a3ca505d382bbc416464726573733a206c6f772d6c6576656c2064656c65676174652063616c6c206661696c6564a26469706673582212208f9e73fdacea8e39391e1dc9dee435b222de06b538832dd03bea6afa7de41fdd64736f6c63430008130033","linkReferences":{}},"methodIdentifiers":{"COUNCIL_MEMBER()":"733a2d1f","DEFAULT_ADMIN_ROLE()":"a217fddf","MAX_FEE()":"bc063e1a","NATIVE()":"a0cf0aea","PRECISION_SCALE()":"d7050f07","acceptCouncilSafe()":"b5058c50","activateMemberInStrategy(address,address)":"0d4a8b49","addStrategy(address)":"223e5479","addStrategyByPoolId(uint256)":"82d6a1e7","addressToMemberInfo(address)":"88cfe684","allo()":"d6d8428d","cloneNonce()":"33960459","communityFee()":"8961be6b","communityName()":"c6d572ae","councilSafe()":"6c53db9a","covenantIpfsHash()":"b64e39af","createPool(address,((uint256,uint256,uint256,uint256),uint8,uint8,(uint256),(address,address,uint256,uint256,uint256,uint256),address,address),(uint256,string))":"524e59e8","createPool(address,address,((uint256,uint256,uint256,uint256),uint8,uint8,(uint256),(address,address,uint256,uint256,uint256,uint256),address,address),(uint256,string))":"e16d0e32","deactivateMemberInStrategy(address,address)":"22bcf999","decreasePower(uint256)":"5ecf71c5","enabledStrategies(address)":"3a871fe1","feeReceiver()":"b3f00674","gardenToken()":"db61d65c","getBasisStakedAmount()":"0331383c","getMemberPowerInStrategy(address,address)":"7817ee4f","getMemberStakedAmount(address)":"2c611c4a","getRoleAdmin(bytes32)":"248a9ca3","getStakeAmountWithFees()":"28c309e9","grantRole(bytes32,address)":"2f2ff15d","hasRole(bytes32,address)":"91d14854","increasePower(uint256)":"559de05d","initialize((address,address,uint256,uint256,uint256,address,address,(uint256,string),address,string,bool,string),address,address,address)":"34196355","initialize(address)":"c4d66de8","isCouncilMember(address)":"ebd7dc52","isKickEnabled()":"1f787d28","isMember(address)":"a230c524","kickMember(address,address)":"6871eb4d","memberActivatedInStrategies(address,address)":"477a5cc0","memberPowerInStrategy(address,address)":"65e3864c","owner()":"8da5cb5b","pendingCouncilSafe()":"68decabb","profileId()":"08386eba","proxiableUUID()":"52d1902d","registerStakeAmount()":"78a0b8a9","registry()":"7b103999","registryFactory()":"f86c5f89","removeStrategy(address)":"175188e8","removeStrategyByPoolId(uint256)":"73265c37","renounceOwnership()":"715018a6","renounceRole(bytes32,address)":"36568abe","revokeRole(bytes32,address)":"d547741f","setBasisStakedAmount(uint256)":"31f61bca","setCommunityFee(uint256)":"0d12bbdb","setCouncilSafe(address)":"397e2543","stakeAndRegisterMember()":"3517aa7d","strategiesByMember(address,uint256)":"2b38c69c","strategyTemplate()":"5c94e4d2","supportsInterface(bytes4)":"01ffc9a7","transferOwnership(address)":"f2fde38b","unregisterMember()":"b99b4370","upgradeTo(address)":"3659cfe6","upgradeToAndCall(address,bytes)":"4f1ef286"},"storageLayout":{"storage":[{"astId":53071,"contract":"pkg/contracts/src/RegistryCommunityV0_0.sol:RegistryCommunityV0_0","label":"_initialized","offset":0,"slot":"0","type":"t_uint8"},{"astId":53074,"contract":"pkg/contracts/src/RegistryCommunityV0_0.sol:RegistryCommunityV0_0","label":"_initializing","offset":1,"slot":"0","type":"t_bool"},{"astId":53776,"contract":"pkg/contracts/src/RegistryCommunityV0_0.sol:RegistryCommunityV0_0","label":"__gap","offset":0,"slot":"1","type":"t_array(t_uint256)50_storage"},{"astId":52863,"contract":"pkg/contracts/src/RegistryCommunityV0_0.sol:RegistryCommunityV0_0","label":"_owner","offset":0,"slot":"51","type":"t_address"},{"astId":52983,"contract":"pkg/contracts/src/RegistryCommunityV0_0.sol:RegistryCommunityV0_0","label":"__gap","offset":0,"slot":"52","type":"t_array(t_uint256)49_storage"},{"astId":53248,"contract":"pkg/contracts/src/RegistryCommunityV0_0.sol:RegistryCommunityV0_0","label":"_status","offset":0,"slot":"101","type":"t_uint256"},{"astId":53317,"contract":"pkg/contracts/src/RegistryCommunityV0_0.sol:RegistryCommunityV0_0","label":"__gap","offset":0,"slot":"102","type":"t_array(t_uint256)49_storage"},{"astId":54050,"contract":"pkg/contracts/src/RegistryCommunityV0_0.sol:RegistryCommunityV0_0","label":"__gap","offset":0,"slot":"151","type":"t_array(t_uint256)50_storage"},{"astId":52470,"contract":"pkg/contracts/src/RegistryCommunityV0_0.sol:RegistryCommunityV0_0","label":"_roles","offset":0,"slot":"201","type":"t_mapping(t_bytes32,t_struct(RoleData)52465_storage)"},{"astId":52777,"contract":"pkg/contracts/src/RegistryCommunityV0_0.sol:RegistryCommunityV0_0","label":"__gap","offset":0,"slot":"202","type":"t_array(t_uint256)49_storage"},{"astId":77666,"contract":"pkg/contracts/src/RegistryCommunityV0_0.sol:RegistryCommunityV0_0","label":"collateralVaultTemplate","offset":0,"slot":"251","type":"t_address"},{"astId":77685,"contract":"pkg/contracts/src/RegistryCommunityV0_0.sol:RegistryCommunityV0_0","label":"registerStakeAmount","offset":0,"slot":"252","type":"t_uint256"},{"astId":77688,"contract":"pkg/contracts/src/RegistryCommunityV0_0.sol:RegistryCommunityV0_0","label":"communityFee","offset":0,"slot":"253","type":"t_uint256"},{"astId":77691,"contract":"pkg/contracts/src/RegistryCommunityV0_0.sol:RegistryCommunityV0_0","label":"cloneNonce","offset":0,"slot":"254","type":"t_uint256"},{"astId":77694,"contract":"pkg/contracts/src/RegistryCommunityV0_0.sol:RegistryCommunityV0_0","label":"profileId","offset":0,"slot":"255","type":"t_bytes32"},{"astId":77697,"contract":"pkg/contracts/src/RegistryCommunityV0_0.sol:RegistryCommunityV0_0","label":"isKickEnabled","offset":0,"slot":"256","type":"t_bool"},{"astId":77700,"contract":"pkg/contracts/src/RegistryCommunityV0_0.sol:RegistryCommunityV0_0","label":"feeReceiver","offset":1,"slot":"256","type":"t_address"},{"astId":77703,"contract":"pkg/contracts/src/RegistryCommunityV0_0.sol:RegistryCommunityV0_0","label":"registryFactory","offset":0,"slot":"257","type":"t_address"},{"astId":77706,"contract":"pkg/contracts/src/RegistryCommunityV0_0.sol:RegistryCommunityV0_0","label":"strategyTemplate","offset":0,"slot":"258","type":"t_address"},{"astId":77709,"contract":"pkg/contracts/src/RegistryCommunityV0_0.sol:RegistryCommunityV0_0","label":"pendingCouncilSafe","offset":0,"slot":"259","type":"t_address_payable"},{"astId":77713,"contract":"pkg/contracts/src/RegistryCommunityV0_0.sol:RegistryCommunityV0_0","label":"registry","offset":0,"slot":"260","type":"t_contract(IRegistry)2802"},{"astId":77717,"contract":"pkg/contracts/src/RegistryCommunityV0_0.sol:RegistryCommunityV0_0","label":"gardenToken","offset":0,"slot":"261","type":"t_contract(IERC20)56609"},{"astId":77721,"contract":"pkg/contracts/src/RegistryCommunityV0_0.sol:RegistryCommunityV0_0","label":"councilSafe","offset":0,"slot":"262","type":"t_contract(ISafe)80404"},{"astId":77725,"contract":"pkg/contracts/src/RegistryCommunityV0_0.sol:RegistryCommunityV0_0","label":"allo","offset":0,"slot":"263","type":"t_contract(FAllo)80137"},{"astId":77728,"contract":"pkg/contracts/src/RegistryCommunityV0_0.sol:RegistryCommunityV0_0","label":"communityName","offset":0,"slot":"264","type":"t_string_storage"},{"astId":77731,"contract":"pkg/contracts/src/RegistryCommunityV0_0.sol:RegistryCommunityV0_0","label":"covenantIpfsHash","offset":0,"slot":"265","type":"t_string_storage"},{"astId":77736,"contract":"pkg/contracts/src/RegistryCommunityV0_0.sol:RegistryCommunityV0_0","label":"enabledStrategies","offset":0,"slot":"266","type":"t_mapping(t_address,t_bool)"},{"astId":77743,"contract":"pkg/contracts/src/RegistryCommunityV0_0.sol:RegistryCommunityV0_0","label":"memberPowerInStrategy","offset":0,"slot":"267","type":"t_mapping(t_address,t_mapping(t_address,t_uint256))"},{"astId":77749,"contract":"pkg/contracts/src/RegistryCommunityV0_0.sol:RegistryCommunityV0_0","label":"addressToMemberInfo","offset":0,"slot":"268","type":"t_mapping(t_address,t_struct(Member)77890_storage)"},{"astId":77755,"contract":"pkg/contracts/src/RegistryCommunityV0_0.sol:RegistryCommunityV0_0","label":"strategiesByMember","offset":0,"slot":"269","type":"t_mapping(t_address,t_array(t_address)dyn_storage)"},{"astId":77762,"contract":"pkg/contracts/src/RegistryCommunityV0_0.sol:RegistryCommunityV0_0","label":"memberActivatedInStrategies","offset":0,"slot":"270","type":"t_mapping(t_address,t_mapping(t_address,t_bool))"},{"astId":77766,"contract":"pkg/contracts/src/RegistryCommunityV0_0.sol:RegistryCommunityV0_0","label":"initialMembers","offset":0,"slot":"271","type":"t_array(t_address)dyn_storage"},{"astId":79383,"contract":"pkg/contracts/src/RegistryCommunityV0_0.sol:RegistryCommunityV0_0","label":"__gap","offset":0,"slot":"272","type":"t_array(t_uint256)50_storage"}],"types":{"t_address":{"encoding":"inplace","label":"address","numberOfBytes":"20"},"t_address_payable":{"encoding":"inplace","label":"address payable","numberOfBytes":"20"},"t_array(t_address)dyn_storage":{"encoding":"dynamic_array","label":"address[]","numberOfBytes":"32","base":"t_address"},"t_array(t_uint256)49_storage":{"encoding":"inplace","label":"uint256[49]","numberOfBytes":"1568","base":"t_uint256"},"t_array(t_uint256)50_storage":{"encoding":"inplace","label":"uint256[50]","numberOfBytes":"1600","base":"t_uint256"},"t_bool":{"encoding":"inplace","label":"bool","numberOfBytes":"1"},"t_bytes32":{"encoding":"inplace","label":"bytes32","numberOfBytes":"32"},"t_contract(FAllo)80137":{"encoding":"inplace","label":"contract FAllo","numberOfBytes":"20"},"t_contract(IERC20)56609":{"encoding":"inplace","label":"contract IERC20","numberOfBytes":"20"},"t_contract(IRegistry)2802":{"encoding":"inplace","label":"contract IRegistry","numberOfBytes":"20"},"t_contract(ISafe)80404":{"encoding":"inplace","label":"contract ISafe","numberOfBytes":"20"},"t_mapping(t_address,t_array(t_address)dyn_storage)":{"encoding":"mapping","key":"t_address","label":"mapping(address => address[])","numberOfBytes":"32","value":"t_array(t_address)dyn_storage"},"t_mapping(t_address,t_bool)":{"encoding":"mapping","key":"t_address","label":"mapping(address => bool)","numberOfBytes":"32","value":"t_bool"},"t_mapping(t_address,t_mapping(t_address,t_bool))":{"encoding":"mapping","key":"t_address","label":"mapping(address => mapping(address => bool))","numberOfBytes":"32","value":"t_mapping(t_address,t_bool)"},"t_mapping(t_address,t_mapping(t_address,t_uint256))":{"encoding":"mapping","key":"t_address","label":"mapping(address => mapping(address => uint256))","numberOfBytes":"32","value":"t_mapping(t_address,t_uint256)"},"t_mapping(t_address,t_struct(Member)77890_storage)":{"encoding":"mapping","key":"t_address","label":"mapping(address => struct RegistryCommunityV0_0.Member)","numberOfBytes":"32","value":"t_struct(Member)77890_storage"},"t_mapping(t_address,t_uint256)":{"encoding":"mapping","key":"t_address","label":"mapping(address => uint256)","numberOfBytes":"32","value":"t_uint256"},"t_mapping(t_bytes32,t_struct(RoleData)52465_storage)":{"encoding":"mapping","key":"t_bytes32","label":"mapping(bytes32 => struct AccessControlUpgradeable.RoleData)","numberOfBytes":"32","value":"t_struct(RoleData)52465_storage"},"t_string_storage":{"encoding":"bytes","label":"string","numberOfBytes":"32"},"t_struct(Member)77890_storage":{"encoding":"inplace","label":"struct RegistryCommunityV0_0.Member","numberOfBytes":"96","members":[{"astId":77885,"contract":"pkg/contracts/src/RegistryCommunityV0_0.sol:RegistryCommunityV0_0","label":"member","offset":0,"slot":"0","type":"t_address"},{"astId":77887,"contract":"pkg/contracts/src/RegistryCommunityV0_0.sol:RegistryCommunityV0_0","label":"stakedAmount","offset":0,"slot":"1","type":"t_uint256"},{"astId":77889,"contract":"pkg/contracts/src/RegistryCommunityV0_0.sol:RegistryCommunityV0_0","label":"isRegistered","offset":0,"slot":"2","type":"t_bool"}]},"t_struct(RoleData)52465_storage":{"encoding":"inplace","label":"struct AccessControlUpgradeable.RoleData","numberOfBytes":"64","members":[{"astId":52462,"contract":"pkg/contracts/src/RegistryCommunityV0_0.sol:RegistryCommunityV0_0","label":"members","offset":0,"slot":"0","type":"t_mapping(t_address,t_bool)"},{"astId":52464,"contract":"pkg/contracts/src/RegistryCommunityV0_0.sol:RegistryCommunityV0_0","label":"adminRole","offset":0,"slot":"1","type":"t_bytes32"}]},"t_uint256":{"encoding":"inplace","label":"uint256","numberOfBytes":"32"},"t_uint8":{"encoding":"inplace","label":"uint8","numberOfBytes":"1"}}},"id":120}