{"abi":[{"type":"function","name":"COUNCIL_MEMBER","inputs":[],"outputs":[{"name":"","type":"bytes32","internalType":"bytes32"}],"stateMutability":"view"},{"type":"function","name":"DEFAULT_ADMIN_ROLE","inputs":[],"outputs":[{"name":"","type":"bytes32","internalType":"bytes32"}],"stateMutability":"view"},{"type":"function","name":"MAX_FEE","inputs":[],"outputs":[{"name":"","type":"uint256","internalType":"uint256"}],"stateMutability":"view"},{"type":"function","name":"NATIVE","inputs":[],"outputs":[{"name":"","type":"address","internalType":"address"}],"stateMutability":"view"},{"type":"function","name":"PRECISION_SCALE","inputs":[],"outputs":[{"name":"","type":"uint256","internalType":"uint256"}],"stateMutability":"view"},{"type":"function","name":"VERSION","inputs":[],"outputs":[{"name":"","type":"string","internalType":"string"}],"stateMutability":"view"},{"type":"function","name":"acceptCouncilSafe","inputs":[],"outputs":[],"stateMutability":"nonpayable"},{"type":"function","name":"activateMemberInStrategy","inputs":[{"name":"_member","type":"address","internalType":"address"},{"name":"_strategy","type":"address","internalType":"address"}],"outputs":[],"stateMutability":"nonpayable"},{"type":"function","name":"addStrategy","inputs":[{"name":"_newStrategy","type":"address","internalType":"address"}],"outputs":[],"stateMutability":"nonpayable"},{"type":"function","name":"addStrategyByPoolId","inputs":[{"name":"poolId","type":"uint256","internalType":"uint256"}],"outputs":[],"stateMutability":"nonpayable"},{"type":"function","name":"addressToMemberInfo","inputs":[{"name":"member","type":"address","internalType":"address"}],"outputs":[{"name":"member","type":"address","internalType":"address"},{"name":"stakedAmount","type":"uint256","internalType":"uint256"},{"name":"isRegistered","type":"bool","internalType":"bool"}],"stateMutability":"view"},{"type":"function","name":"allo","inputs":[],"outputs":[{"name":"","type":"address","internalType":"contract FAllo"}],"stateMutability":"view"},{"type":"function","name":"cloneNonce","inputs":[],"outputs":[{"name":"","type":"uint256","internalType":"uint256"}],"stateMutability":"view"},{"type":"function","name":"collateralVaultTemplate","inputs":[],"outputs":[{"name":"","type":"address","internalType":"address"}],"stateMutability":"view"},{"type":"function","name":"communityFee","inputs":[],"outputs":[{"name":"","type":"uint256","internalType":"uint256"}],"stateMutability":"view"},{"type":"function","name":"communityName","inputs":[],"outputs":[{"name":"","type":"string","internalType":"string"}],"stateMutability":"view"},{"type":"function","name":"councilSafe","inputs":[],"outputs":[{"name":"","type":"address","internalType":"contract ISafe"}],"stateMutability":"view"},{"type":"function","name":"covenantIpfsHash","inputs":[],"outputs":[{"name":"","type":"string","internalType":"string"}],"stateMutability":"view"},{"type":"function","name":"createPool","inputs":[{"name":"_token","type":"address","internalType":"address"},{"name":"_params","type":"tuple","internalType":"struct CVStrategyInitializeParamsV0_2","components":[{"name":"cvParams","type":"tuple","internalType":"struct CVParams","components":[{"name":"maxRatio","type":"uint256","internalType":"uint256"},{"name":"weight","type":"uint256","internalType":"uint256"},{"name":"decay","type":"uint256","internalType":"uint256"},{"name":"minThresholdPoints","type":"uint256","internalType":"uint256"}]},{"name":"proposalType","type":"uint8","internalType":"enum ProposalType"},{"name":"pointSystem","type":"uint8","internalType":"enum PointSystem"},{"name":"pointConfig","type":"tuple","internalType":"struct PointSystemConfig","components":[{"name":"maxAmount","type":"uint256","internalType":"uint256"}]},{"name":"arbitrableConfig","type":"tuple","internalType":"struct ArbitrableConfig","components":[{"name":"arbitrator","type":"address","internalType":"contract IArbitrator"},{"name":"tribunalSafe","type":"address","internalType":"address"},{"name":"submitterCollateralAmount","type":"uint256","internalType":"uint256"},{"name":"challengerCollateralAmount","type":"uint256","internalType":"uint256"},{"name":"defaultRuling","type":"uint256","internalType":"uint256"},{"name":"defaultRulingTimeout","type":"uint256","internalType":"uint256"}]},{"name":"registryCommunity","type":"address","internalType":"address"},{"name":"sybilScorer","type":"address","internalType":"address"},{"name":"sybilScorerThreshold","type":"uint256","internalType":"uint256"},{"name":"initialAllowlist","type":"address[]","internalType":"address[]"},{"name":"superfluidToken","type":"address","internalType":"address"}]},{"name":"_metadata","type":"tuple","internalType":"struct Metadata","components":[{"name":"protocol","type":"uint256","internalType":"uint256"},{"name":"pointer","type":"string","internalType":"string"}]}],"outputs":[{"name":"poolId","type":"uint256","internalType":"uint256"},{"name":"strategy","type":"address","internalType":"address"}],"stateMutability":"nonpayable"},{"type":"function","name":"createPool","inputs":[{"name":"_strategy","type":"address","internalType":"address"},{"name":"_token","type":"address","internalType":"address"},{"name":"_params","type":"tuple","internalType":"struct CVStrategyInitializeParamsV0_2","components":[{"name":"cvParams","type":"tuple","internalType":"struct CVParams","components":[{"name":"maxRatio","type":"uint256","internalType":"uint256"},{"name":"weight","type":"uint256","internalType":"uint256"},{"name":"decay","type":"uint256","internalType":"uint256"},{"name":"minThresholdPoints","type":"uint256","internalType":"uint256"}]},{"name":"proposalType","type":"uint8","internalType":"enum ProposalType"},{"name":"pointSystem","type":"uint8","internalType":"enum PointSystem"},{"name":"pointConfig","type":"tuple","internalType":"struct PointSystemConfig","components":[{"name":"maxAmount","type":"uint256","internalType":"uint256"}]},{"name":"arbitrableConfig","type":"tuple","internalType":"struct ArbitrableConfig","components":[{"name":"arbitrator","type":"address","internalType":"contract IArbitrator"},{"name":"tribunalSafe","type":"address","internalType":"address"},{"name":"submitterCollateralAmount","type":"uint256","internalType":"uint256"},{"name":"challengerCollateralAmount","type":"uint256","internalType":"uint256"},{"name":"defaultRuling","type":"uint256","internalType":"uint256"},{"name":"defaultRulingTimeout","type":"uint256","internalType":"uint256"}]},{"name":"registryCommunity","type":"address","internalType":"address"},{"name":"sybilScorer","type":"address","internalType":"address"},{"name":"sybilScorerThreshold","type":"uint256","internalType":"uint256"},{"name":"initialAllowlist","type":"address[]","internalType":"address[]"},{"name":"superfluidToken","type":"address","internalType":"address"}]},{"name":"_metadata","type":"tuple","internalType":"struct Metadata","components":[{"name":"protocol","type":"uint256","internalType":"uint256"},{"name":"pointer","type":"string","internalType":"string"}]}],"outputs":[{"name":"poolId","type":"uint256","internalType":"uint256"},{"name":"strategy","type":"address","internalType":"address"}],"stateMutability":"nonpayable"},{"type":"function","name":"deactivateMemberInStrategy","inputs":[{"name":"_member","type":"address","internalType":"address"},{"name":"_strategy","type":"address","internalType":"address"}],"outputs":[],"stateMutability":"nonpayable"},{"type":"function","name":"decreasePower","inputs":[{"name":"_amountUnstaked","type":"uint256","internalType":"uint256"}],"outputs":[],"stateMutability":"nonpayable"},{"type":"function","name":"enabledStrategies","inputs":[{"name":"strategy","type":"address","internalType":"address"}],"outputs":[{"name":"isEnabled","type":"bool","internalType":"bool"}],"stateMutability":"view"},{"type":"function","name":"feeReceiver","inputs":[],"outputs":[{"name":"","type":"address","internalType":"address"}],"stateMutability":"view"},{"type":"function","name":"gardenToken","inputs":[],"outputs":[{"name":"","type":"address","internalType":"contract IERC20"}],"stateMutability":"view"},{"type":"function","name":"getBasisStakedAmount","inputs":[],"outputs":[{"name":"","type":"uint256","internalType":"uint256"}],"stateMutability":"view"},{"type":"function","name":"getMemberPowerInStrategy","inputs":[{"name":"_member","type":"address","internalType":"address"},{"name":"_strategy","type":"address","internalType":"address"}],"outputs":[{"name":"","type":"uint256","internalType":"uint256"}],"stateMutability":"view"},{"type":"function","name":"getMemberStakedAmount","inputs":[{"name":"_member","type":"address","internalType":"address"}],"outputs":[{"name":"","type":"uint256","internalType":"uint256"}],"stateMutability":"view"},{"type":"function","name":"getRoleAdmin","inputs":[{"name":"role","type":"bytes32","internalType":"bytes32"}],"outputs":[{"name":"","type":"bytes32","internalType":"bytes32"}],"stateMutability":"view"},{"type":"function","name":"getStakeAmountWithFees","inputs":[],"outputs":[{"name":"","type":"uint256","internalType":"uint256"}],"stateMutability":"view"},{"type":"function","name":"grantRole","inputs":[{"name":"role","type":"bytes32","internalType":"bytes32"},{"name":"account","type":"address","internalType":"address"}],"outputs":[],"stateMutability":"nonpayable"},{"type":"function","name":"hasRole","inputs":[{"name":"role","type":"bytes32","internalType":"bytes32"},{"name":"account","type":"address","internalType":"address"}],"outputs":[{"name":"","type":"bool","internalType":"bool"}],"stateMutability":"view"},{"type":"function","name":"increasePower","inputs":[{"name":"_amountStaked","type":"uint256","internalType":"uint256"}],"outputs":[],"stateMutability":"nonpayable"},{"type":"function","name":"initialize","inputs":[{"name":"params","type":"tuple","internalType":"struct RegistryCommunityInitializeParamsV0_0","components":[{"name":"_allo","type":"address","internalType":"address"},{"name":"_gardenToken","type":"address","internalType":"contract IERC20"},{"name":"_registerStakeAmount","type":"uint256","internalType":"uint256"},{"name":"_communityFee","type":"uint256","internalType":"uint256"},{"name":"_nonce","type":"uint256","internalType":"uint256"},{"name":"_registryFactory","type":"address","internalType":"address"},{"name":"_feeReceiver","type":"address","internalType":"address"},{"name":"_metadata","type":"tuple","internalType":"struct Metadata","components":[{"name":"protocol","type":"uint256","internalType":"uint256"},{"name":"pointer","type":"string","internalType":"string"}]},{"name":"_councilSafe","type":"address","internalType":"address payable"},{"name":"_communityName","type":"string","internalType":"string"},{"name":"_isKickEnabled","type":"bool","internalType":"bool"},{"name":"covenantIpfsHash","type":"string","internalType":"string"}]},{"name":"_strategyTemplate","type":"address","internalType":"address"},{"name":"_collateralVaultTemplate","type":"address","internalType":"address"},{"name":"_owner","type":"address","internalType":"address"}],"outputs":[],"stateMutability":"nonpayable"},{"type":"function","name":"initialize","inputs":[{"name":"initialOwner","type":"address","internalType":"address"}],"outputs":[],"stateMutability":"nonpayable"},{"type":"function","name":"isCouncilMember","inputs":[{"name":"_member","type":"address","internalType":"address"}],"outputs":[{"name":"","type":"bool","internalType":"bool"}],"stateMutability":"view"},{"type":"function","name":"isKickEnabled","inputs":[],"outputs":[{"name":"","type":"bool","internalType":"bool"}],"stateMutability":"view"},{"type":"function","name":"isMember","inputs":[{"name":"_member","type":"address","internalType":"address"}],"outputs":[{"name":"","type":"bool","internalType":"bool"}],"stateMutability":"view"},{"type":"function","name":"kickMember","inputs":[{"name":"_member","type":"address","internalType":"address"},{"name":"_transferAddress","type":"address","internalType":"address"}],"outputs":[],"stateMutability":"nonpayable"},{"type":"function","name":"memberActivatedInStrategies","inputs":[{"name":"member","type":"address","internalType":"address"},{"name":"strategy","type":"address","internalType":"address"}],"outputs":[{"name":"isActivated","type":"bool","internalType":"bool"}],"stateMutability":"view"},{"type":"function","name":"memberPowerInStrategy","inputs":[{"name":"strategy","type":"address","internalType":"address"},{"name":"member","type":"address","internalType":"address"}],"outputs":[{"name":"power","type":"uint256","internalType":"uint256"}],"stateMutability":"view"},{"type":"function","name":"onlyStrategyEnabled","inputs":[{"name":"_strategy","type":"address","internalType":"address"}],"outputs":[],"stateMutability":"view"},{"type":"function","name":"owner","inputs":[],"outputs":[{"name":"","type":"address","internalType":"address"}],"stateMutability":"view"},{"type":"function","name":"pendingCouncilSafe","inputs":[],"outputs":[{"name":"","type":"address","internalType":"address payable"}],"stateMutability":"view"},{"type":"function","name":"profileId","inputs":[],"outputs":[{"name":"","type":"bytes32","internalType":"bytes32"}],"stateMutability":"view"},{"type":"function","name":"proxiableUUID","inputs":[],"outputs":[{"name":"","type":"bytes32","internalType":"bytes32"}],"stateMutability":"view"},{"type":"function","name":"proxyOwner","inputs":[],"outputs":[{"name":"","type":"address","internalType":"address"}],"stateMutability":"view"},{"type":"function","name":"registerStakeAmount","inputs":[],"outputs":[{"name":"","type":"uint256","internalType":"uint256"}],"stateMutability":"view"},{"type":"function","name":"registry","inputs":[],"outputs":[{"name":"","type":"address","internalType":"contract IRegistry"}],"stateMutability":"view"},{"type":"function","name":"registryFactory","inputs":[],"outputs":[{"name":"","type":"address","internalType":"address"}],"stateMutability":"view"},{"type":"function","name":"rejectPool","inputs":[{"name":"_strategy","type":"address","internalType":"address"}],"outputs":[],"stateMutability":"nonpayable"},{"type":"function","name":"removeStrategy","inputs":[{"name":"_strategy","type":"address","internalType":"address"}],"outputs":[],"stateMutability":"nonpayable"},{"type":"function","name":"removeStrategyByPoolId","inputs":[{"name":"poolId","type":"uint256","internalType":"uint256"}],"outputs":[],"stateMutability":"nonpayable"},{"type":"function","name":"renounceOwnership","inputs":[],"outputs":[],"stateMutability":"nonpayable"},{"type":"function","name":"renounceRole","inputs":[{"name":"role","type":"bytes32","internalType":"bytes32"},{"name":"account","type":"address","internalType":"address"}],"outputs":[],"stateMutability":"nonpayable"},{"type":"function","name":"revokeRole","inputs":[{"name":"role","type":"bytes32","internalType":"bytes32"},{"name":"account","type":"address","internalType":"address"}],"outputs":[],"stateMutability":"nonpayable"},{"type":"function","name":"setArchived","inputs":[{"name":"_isArchived","type":"bool","internalType":"bool"}],"outputs":[],"stateMutability":"nonpayable"},{"type":"function","name":"setBasisStakedAmount","inputs":[{"name":"_newAmount","type":"uint256","internalType":"uint256"}],"outputs":[],"stateMutability":"nonpayable"},{"type":"function","name":"setCollateralVaultTemplate","inputs":[{"name":"template","type":"address","internalType":"address"}],"outputs":[],"stateMutability":"nonpayable"},{"type":"function","name":"setCommunityFee","inputs":[{"name":"_newCommunityFee","type":"uint256","internalType":"uint256"}],"outputs":[],"stateMutability":"nonpayable"},{"type":"function","name":"setCommunityParams","inputs":[{"name":"_params","type":"tuple","internalType":"struct CommunityParams","components":[{"name":"councilSafe","type":"address","internalType":"address"},{"name":"feeReceiver","type":"address","internalType":"address"},{"name":"communityFee","type":"uint256","internalType":"uint256"},{"name":"communityName","type":"string","internalType":"string"},{"name":"registerStakeAmount","type":"uint256","internalType":"uint256"},{"name":"isKickEnabled","type":"bool","internalType":"bool"},{"name":"covenantIpfsHash","type":"string","internalType":"string"}]}],"outputs":[],"stateMutability":"nonpayable"},{"type":"function","name":"setCouncilSafe","inputs":[{"name":"_safe","type":"address","internalType":"address payable"}],"outputs":[],"stateMutability":"nonpayable"},{"type":"function","name":"setStrategyTemplate","inputs":[{"name":"template","type":"address","internalType":"address"}],"outputs":[],"stateMutability":"nonpayable"},{"type":"function","name":"stakeAndRegisterMember","inputs":[{"name":"covenantSig","type":"string","internalType":"string"}],"outputs":[],"stateMutability":"nonpayable"},{"type":"function","name":"strategiesByMember","inputs":[{"name":"member","type":"address","internalType":"address"},{"name":"","type":"uint256","internalType":"uint256"}],"outputs":[{"name":"strategiesAddresses","type":"address","internalType":"address"}],"stateMutability":"view"},{"type":"function","name":"strategyTemplate","inputs":[],"outputs":[{"name":"","type":"address","internalType":"address"}],"stateMutability":"view"},{"type":"function","name":"supportsInterface","inputs":[{"name":"interfaceId","type":"bytes4","internalType":"bytes4"}],"outputs":[{"name":"","type":"bool","internalType":"bool"}],"stateMutability":"view"},{"type":"function","name":"totalMembers","inputs":[],"outputs":[{"name":"","type":"uint256","internalType":"uint256"}],"stateMutability":"view"},{"type":"function","name":"transferOwnership","inputs":[{"name":"newOwner","type":"address","internalType":"address"}],"outputs":[],"stateMutability":"nonpayable"},{"type":"function","name":"unregisterMember","inputs":[],"outputs":[],"stateMutability":"nonpayable"},{"type":"function","name":"upgradeTo","inputs":[{"name":"newImplementation","type":"address","internalType":"address"}],"outputs":[],"stateMutability":"nonpayable"},{"type":"function","name":"upgradeToAndCall","inputs":[{"name":"newImplementation","type":"address","internalType":"address"},{"name":"data","type":"bytes","internalType":"bytes"}],"outputs":[],"stateMutability":"payable"},{"type":"event","name":"AdminChanged","inputs":[{"name":"previousAdmin","type":"address","indexed":false,"internalType":"address"},{"name":"newAdmin","type":"address","indexed":false,"internalType":"address"}],"anonymous":false},{"type":"event","name":"BasisStakedAmountUpdated","inputs":[{"name":"_newAmount","type":"uint256","indexed":false,"internalType":"uint256"}],"anonymous":false},{"type":"event","name":"BeaconUpgraded","inputs":[{"name":"beacon","type":"address","indexed":true,"internalType":"address"}],"anonymous":false},{"type":"event","name":"CommunityArchived","inputs":[{"name":"_archived","type":"bool","indexed":false,"internalType":"bool"}],"anonymous":false},{"type":"event","name":"CommunityFeeUpdated","inputs":[{"name":"_newFee","type":"uint256","indexed":false,"internalType":"uint256"}],"anonymous":false},{"type":"event","name":"CommunityNameUpdated","inputs":[{"name":"_communityName","type":"string","indexed":false,"internalType":"string"}],"anonymous":false},{"type":"event","name":"CouncilSafeChangeStarted","inputs":[{"name":"_safeOwner","type":"address","indexed":false,"internalType":"address"},{"name":"_newSafeOwner","type":"address","indexed":false,"internalType":"address"}],"anonymous":false},{"type":"event","name":"CouncilSafeUpdated","inputs":[{"name":"_safe","type":"address","indexed":false,"internalType":"address"}],"anonymous":false},{"type":"event","name":"CovenantIpfsHashUpdated","inputs":[{"name":"_covenantIpfsHash","type":"string","indexed":false,"internalType":"string"}],"anonymous":false},{"type":"event","name":"FeeReceiverChanged","inputs":[{"name":"_feeReceiver","type":"address","indexed":false,"internalType":"address"}],"anonymous":false},{"type":"event","name":"Initialized","inputs":[{"name":"version","type":"uint8","indexed":false,"internalType":"uint8"}],"anonymous":false},{"type":"event","name":"KickEnabledUpdated","inputs":[{"name":"_isKickEnabled","type":"bool","indexed":false,"internalType":"bool"}],"anonymous":false},{"type":"event","name":"MemberActivatedStrategy","inputs":[{"name":"_member","type":"address","indexed":false,"internalType":"address"},{"name":"_strategy","type":"address","indexed":false,"internalType":"address"},{"name":"_pointsToIncrease","type":"uint256","indexed":false,"internalType":"uint256"}],"anonymous":false},{"type":"event","name":"MemberDeactivatedStrategy","inputs":[{"name":"_member","type":"address","indexed":false,"internalType":"address"},{"name":"_strategy","type":"address","indexed":false,"internalType":"address"}],"anonymous":false},{"type":"event","name":"MemberKicked","inputs":[{"name":"_member","type":"address","indexed":false,"internalType":"address"},{"name":"_transferAddress","type":"address","indexed":false,"internalType":"address"},{"name":"_amountReturned","type":"uint256","indexed":false,"internalType":"uint256"}],"anonymous":false},{"type":"event","name":"MemberPowerDecreased","inputs":[{"name":"_member","type":"address","indexed":false,"internalType":"address"},{"name":"_unstakedAmount","type":"uint256","indexed":false,"internalType":"uint256"}],"anonymous":false},{"type":"event","name":"MemberPowerIncreased","inputs":[{"name":"_member","type":"address","indexed":false,"internalType":"address"},{"name":"_stakedAmount","type":"uint256","indexed":false,"internalType":"uint256"}],"anonymous":false},{"type":"event","name":"MemberRegistered","inputs":[{"name":"_member","type":"address","indexed":false,"internalType":"address"},{"name":"_amountStaked","type":"uint256","indexed":false,"internalType":"uint256"}],"anonymous":false},{"type":"event","name":"MemberRegisteredWithCovenant","inputs":[{"name":"_member","type":"address","indexed":false,"internalType":"address"},{"name":"_amountStaked","type":"uint256","indexed":false,"internalType":"uint256"},{"name":"_covenantSig","type":"string","indexed":false,"internalType":"string"}],"anonymous":false},{"type":"event","name":"MemberUnregistered","inputs":[{"name":"_member","type":"address","indexed":false,"internalType":"address"},{"name":"_amountReturned","type":"uint256","indexed":false,"internalType":"uint256"}],"anonymous":false},{"type":"event","name":"OwnershipTransferred","inputs":[{"name":"previousOwner","type":"address","indexed":true,"internalType":"address"},{"name":"newOwner","type":"address","indexed":true,"internalType":"address"}],"anonymous":false},{"type":"event","name":"PoolCreated","inputs":[{"name":"_poolId","type":"uint256","indexed":false,"internalType":"uint256"},{"name":"_strategy","type":"address","indexed":false,"internalType":"address"},{"name":"_community","type":"address","indexed":false,"internalType":"address"},{"name":"_token","type":"address","indexed":false,"internalType":"address"},{"name":"_metadata","type":"tuple","indexed":false,"internalType":"struct Metadata","components":[{"name":"protocol","type":"uint256","internalType":"uint256"},{"name":"pointer","type":"string","internalType":"string"}]}],"anonymous":false},{"type":"event","name":"PoolRejected","inputs":[{"name":"_strategy","type":"address","indexed":false,"internalType":"address"}],"anonymous":false},{"type":"event","name":"RegistryInitialized","inputs":[{"name":"_profileId","type":"bytes32","indexed":false,"internalType":"bytes32"},{"name":"_communityName","type":"string","indexed":false,"internalType":"string"},{"name":"_metadata","type":"tuple","indexed":false,"internalType":"struct Metadata","components":[{"name":"protocol","type":"uint256","internalType":"uint256"},{"name":"pointer","type":"string","internalType":"string"}]}],"anonymous":false},{"type":"event","name":"RoleAdminChanged","inputs":[{"name":"role","type":"bytes32","indexed":true,"internalType":"bytes32"},{"name":"previousAdminRole","type":"bytes32","indexed":true,"internalType":"bytes32"},{"name":"newAdminRole","type":"bytes32","indexed":true,"internalType":"bytes32"}],"anonymous":false},{"type":"event","name":"RoleGranted","inputs":[{"name":"role","type":"bytes32","indexed":true,"internalType":"bytes32"},{"name":"account","type":"address","indexed":true,"internalType":"address"},{"name":"sender","type":"address","indexed":true,"internalType":"address"}],"anonymous":false},{"type":"event","name":"RoleRevoked","inputs":[{"name":"role","type":"bytes32","indexed":true,"internalType":"bytes32"},{"name":"account","type":"address","indexed":true,"internalType":"address"},{"name":"sender","type":"address","indexed":true,"internalType":"address"}],"anonymous":false},{"type":"event","name":"StrategyAdded","inputs":[{"name":"_strategy","type":"address","indexed":false,"internalType":"address"}],"anonymous":false},{"type":"event","name":"StrategyRemoved","inputs":[{"name":"_strategy","type":"address","indexed":false,"internalType":"address"}],"anonymous":false},{"type":"event","name":"Upgraded","inputs":[{"name":"implementation","type":"address","indexed":true,"internalType":"address"}],"anonymous":false},{"type":"error","name":"AllowlistTooBig","inputs":[{"name":"size","type":"uint256","internalType":"uint256"}]},{"type":"error","name":"CallerNotOwner","inputs":[{"name":"_caller","type":"address","internalType":"address"},{"name":"_owner","type":"address","internalType":"address"}]},{"type":"error","name":"CantDecreaseMoreThanPower","inputs":[{"name":"_decreaseAmount","type":"uint256","internalType":"uint256"},{"name":"_currentPower","type":"uint256","internalType":"uint256"}]},{"type":"error","name":"DecreaseUnderMinimum","inputs":[]},{"type":"error","name":"KickNotEnabled","inputs":[]},{"type":"error","name":"NewFeeGreaterThanMax","inputs":[]},{"type":"error","name":"OnlyEmptyCommunity","inputs":[{"name":"totalMembers","type":"uint256","internalType":"uint256"}]},{"type":"error","name":"PointsDeactivated","inputs":[]},{"type":"error","name":"SenderNotNewOwner","inputs":[]},{"type":"error","name":"SenderNotStrategy","inputs":[]},{"type":"error","name":"StrategyDisabled","inputs":[]},{"type":"error","name":"StrategyExists","inputs":[]},{"type":"error","name":"UserAlreadyActivated","inputs":[]},{"type":"error","name":"UserNotInCouncil","inputs":[{"name":"_user","type":"address","internalType":"address"}]},{"type":"error","name":"UserNotInRegistry","inputs":[]},{"type":"error","name":"ValueCannotBeZero","inputs":[]}],"bytecode":{"object":"0x60a080604052346100325730608052615b109081620000388239608051818181611d9a01528181611e9e01526124920152f35b600080fdfe60808060405260043610156200001457600080fd5b60003560e01c90816301ffc9a71462003a2957508063025313a214620039fe5780630331383c14620015f457806308386eba14620039de5780630b03bb9a14620039865780630d12bbdb14620039665780630d4a8b4914620035f8578063175188e814620035c75780631b71f0e4146200357e5780631f787d28146200355a578063223e5479146200352957806322bcf99914620034f7578063248a9ca314620034c657806328c309e914620033f95780632b38c69c14620033985780632c611c4a14620033565780632f2ff15d146200330f57806331f61bca14620032ef5780633396045914620032cf57806334196355146200275e57806336568abe14620026c55780633659cfe6146200246a578063397e254314620024435780633a871fe114620023ff578063411481e614620023d8578063477a5cc0146200237b578063499ac57f14620020e35780634f1ef2861462001e4857806352d1902d1462001d85578063559de05d1462001bd75780635c94e4d21462001bab5780635ecf71c5146200196e57806365e3864c14620016145780636871eb4d146200181d57806368decabb14620017f15780636c53db9a14620017c5578063715018a6146200177557806373265c3714620016e5578063733a2d1f14620016b957806376e92559146200169857806377122d56146200166c5780637817ee4f146200161457806378a0b8a914620015f45780637b10399914620015c857806382d6a1e7146200152f57806388cfe68414620014d15780638961be6b14620014b15780638da5cb5b146200148057806391d14854146200142f5780639a1f46e214620011ba578063a0cf0aea1462001189578063a217fddf146200116b578063a230c5241462001124578063b0d3713a14620010db578063b3f0067414620010ac578063b5058c501462000f9f578063b64e39af1462000eff578063b99b43701462000d9e578063bc063e1a1462000d7e578063c4d66de81462000d44578063c6d572ae1462000c63578063cd564dae1462000bde578063d547741f1462000b97578063d6d8428d1462000b6b578063d7050f071462000b4c578063db61d65c1462000b20578063ebd7dc521462000acb578063f2d774e71462000522578063f2fde38b146200048a578063f86c5f89146200045e578063fb1f691714620003d35763ffa1ad74146200038057600080fd5b34620003ce576000366003190112620003ce57620003ca604051620003a58162003b07565b60038152620302e360ec1b602082015260405191829160208352602083019062003edb565b0390f35b600080fd5b34620003ce576020366003190112620003ce577f6723d9f32d040ca8ddd4dabf6f03ad485e63fc3fd625ac1fa1c557de6719314f60206200041362003a8f565b6200041d62004bd9565b6001600160a01b038116600081815261010a8452604090205490919060ff166200044c575b50604051908152a1005b620004579062005297565b8362000442565b34620003ce576000366003190112620003ce57610100546040516001600160a01b039091168152602090f35b34620003ce576020366003190112620003ce57620004a762003a8f565b620004b162004346565b6001600160a01b03811615620004ce57620004cc90620043a8565b005b60405162461bcd60e51b815260206004820152602660248201527f4f776e61626c653a206e6577206f776e657220697320746865207a65726f206160448201526564647265737360d01b6064820152608490fd5b34620003ce5760206003198181360112620003ce576001600160401b039060043590828211620003ce5760e0908236030112620003ce576040519160e08301838110828211176200087a576040526200057e8260040162003abd565b83526200058e6024830162003abd565b918484019283526040840191604482013583526064820135818111620003ce57620005c0906004369185010162003bcf565b9160608601928352608086019060848101358252620005e260a4820162003a81565b9060a0880191825260c481013590848211620003ce57600462000609923692010162003bcf565b9160c088019283526200061b62004bd9565b80519060fb5480921480159062000ab7575b801562000a8d575b62000890575b50505050815186815191012060405162000662816200065a81620047a5565b038262003b53565b878151910120036200071f575b50505160fc5481036200070d575b505160ff546001600160a01b03939084831690600881901c86168203620006b8575b50505050511680620006ad57005b620004cc90620052e5565b610100600160a81b03191660089390931b610100600160a81b03169290921760ff556040519182527f647672599d3468abcfa241a13c9e3d34383caadb5cc80fb67c3cdfcd5f78605991a1828080806200069f565b6200071890620053af565b836200067d565b81519081519081116200087a57610108916200073c835462003e79565b601f81116200083a575b508790601f8311600114620007b8579180620007a19492600080516020620059e48339815191529694600092620007ac575b50508160011b916000199060031b1c19161790555b516040519182918883528883019062003edb565b0390a184806200066f565b015190508a8062000778565b90601f1983169184600052896000209260005b8b82821062000823575050926001928592600080516020620059e48339815191529896620007a198961062000809575b505050811b0190556200078d565b015160001960f88460031b161c191690558a8080620007fb565b6001859682939686015181550195019301620007cb565b62000868908460005289600020601f850160051c8101918b86106200086f575b601f0160051c019062004759565b8862000746565b90915081906200085a565b634e487b7160e01b600052604160045260246000fd5b6200089a6200538a565b5190810362000a7b575b505115158760ff549160ff83161515810362000a3c575b5050508051878151910120604051620008d9816200065a8162004845565b88815191012003620008ef575b8080806200063b565b805180518381116200087a57610109916200090b835462003e79565b601f811162000a08575b508990601f83116001146200098657918062000970949260008051602062005a6483398151915296946000926200097a575b50508160011b916000199060031b1c19161790555b516040519182918a83528a83019062003edb565b0390a186620008e6565b015190508c8062000947565b90601f19831691846000528b6000209260005b8d828210620009f157505092600192859260008051602062005a64833981519152989662000970989610620009d7575b505050811b0190556200095c565b015160001960f88460031b161c191690558c8080620009c9565b600185968293968601518155019501930162000999565b62000a3590846000528b600020601f850160051c8101918d86106200086f57601f0160051c019062004759565b8a62000915565b7f4ca826489011b9a44719ccfa206813b072bb58604af41f245a6a1a6d913588759260ff82169060ff19161760ff55604051908152a1878781620008bb565b62000a869062005345565b88620008a4565b5083518a815191012060405162000aa9816200065a8162004845565b8b8151910120141562000635565b508251151560ff805416151514156200062d565b34620003ce576020366003190112620003ce5762000ae862003a8f565b6001600160a01b0316600090815260008051602062005a44833981519152602090815260409182902054915160ff9092161515825290f35b34620003ce576000366003190112620003ce57610105546040516001600160a01b039091168152602090f35b34620003ce576000366003190112620003ce5760206040516127108152f35b34620003ce576000366003190112620003ce57610107546040516001600160a01b039091168152602090f35b34620003ce576040366003190112620003ce57620004cc60043562000bbb62003aa6565b908060005260c960205262000bd860016040600020015462003f16565b620042e0565b34620003ce576080366003190112620003ce5762000bfb62003a8f565b62000c0562003aa6565b6001600160401b039190604435838111620003ce5762000c2a90369060040162003c56565b90606435938411620003ce5762000c4a62000c5194369060040162003bf0565b926200491e565b90620003ca6040519283928362003e60565b34620003ce576000366003190112620003ce5760405160009061010880549062000c8d8262003e79565b90818452600192838116908160001462000d19575060011462000cd3575b620003ca8462000cbe8188038262003b53565b60405191829160208352602083019062003edb565b90935060005260209283600020916000925b82841062000d055750505081620003ca9362000cbe928201019362000cab565b805485850187015292850192810162000ce5565b620003ca965062000cbe9450602092508593915060ff191682840152151560051b8201019362000cab565b34620003ce576020366003190112620003ce57620004cc62000d6562003a8f565b62000d7860ff60005460081c1662004608565b620043a8565b34620003ce576000366003190112620003ce576020604051620186a08152f35b34620003ce576000366003190112620003ce5762000dbb62004c71565b62000dc562004ff7565b62000dd03362005407565b3360005261010c8060205260406000206040519162000def8362003aeb565b60018060a01b0392838354168152604060ff6002600186015495602085019687520154161515910152336000526020526000600260408220828155826001820155015561010d60205260406000208054600082558062000ee0575b50506101108054908162000ead575b7fa13f4668aacb68c4e9eed8e3f6e1cbec3eca776896ec46b5eabcc3983fc8f5f462000ea38462000e94876101055416825190339062005015565b51604051918291338362004c34565b0390a16001606555005b60001982019291831162000eca57919091558062000e9462000e59565b634e487b7160e01b600052601160045260246000fd5b62000ef79160005260206000209081019062004759565b828062000e4a565b34620003ce576000366003190112620003ce5760405160009061010980549062000f298262003e79565b90818452600192838116908160001462000d19575060011462000f5957620003ca8462000cbe8188038262003b53565b90935060005260209283600020916000925b82841062000f8b5750505081620003ca9362000cbe928201019362000cab565b805485850187015292850192810162000f6b565b34620003ce576000366003190112620003ce5761010380546001600160a01b0390811690338290036200109a577ffea29da7321ca6d0ee0a7359009bb9d4a57035aea0ef6cb4d062341f4a9615199262000ffb6020936200421d565b6101068281541660008051602062005924833981519152908160005260c98652604060002081600052865260ff604060002054166200105c575b5050815481546001600160a01b0319908116948216948517909255169055604051908152a1005b8160005260c986526040600020816000528652604060002060ff198154169055339160008051602062005a84833981519152600080a4858062001035565b6040516375e686b760e11b8152600490fd5b34620003ce576000366003190112620003ce5760ff5460405160089190911c6001600160a01b03168152602090f35b34620003ce576020366003190112620003ce57620010f862003a8f565b6200110262004346565b61010180546001600160a01b0319166001600160a01b03909216919091179055005b34620003ce576020366003190112620003ce576001600160a01b036200114962003a8f565b1660005261010c602052602060ff600260406000200154166040519015158152f35b34620003ce576000366003190112620003ce57602060405160008152f35b34620003ce576000366003190112620003ce57602060405173eeeeeeeeeeeeeeeeeeeeeeeeeeeeeeeeeeeeeeee8152f35b34620003ce57602080600319360112620003ce576004356001600160401b038111620003ce57620011f090369060040162003bcf565b620011fa62004c71565b60018060a01b038061010054169060fb5491620f4240806200121f60fc548662003f02565b6040516302a64b8360e21b8152306004820152919004948782602481875afa908115620013cc57600091620013f7575b6200125b925062003f02565b04913360005261010c8652604060002090600282019485549260ff84161562001286575b6001606555005b600196878a9560ff191617905560fb549687910155620012c961010596620012be87620012b885878c541694620043e0565b620043e0565b903090339062004eb7565b80620013d8575b50836200134a575b50505050506101109182546001810180911162000eca577f0bd09b1e448ffe881e884ac37014bf3e0274007308056b6469b50fa485542abf93556200133860fb549260405193849333855284015260606040840152606083019062003edb565b0390a18080808080808080806200127f565b60049454169160405194858092634c3a1adf60e11b82525afa908115620013cc576000916200138b575b62001380935062005015565b8280808481620012d8565b90508483813d8311620013c4575b620013a5818362003b53565b81010312620003ce57620013bd620013809362004669565b9062001374565b503d62001399565b6040513d6000823e3d90fd5b620013f090828754168360ff5460081c169062005015565b87620012d0565b90508782813d831162001427575b62001411818362003b53565b81010312620003ce576200125b9151906200124f565b503d62001405565b34620003ce576040366003190112620003ce576200144c62003aa6565b60043560005260c960205260406000209060018060a01b0316600052602052602060ff604060002054166040519015158152f35b34620003ce576000366003190112620003ce5760206200149f6200467e565b6040516001600160a01b039091168152f35b34620003ce576000366003190112620003ce57602060fc54604051908152f35b34620003ce576020366003190112620003ce5760606001600160a01b0380620014f962003a8f565b1660005261010c6020526040600020908154169060ff600260018301549201541690604051928352602083015215156040820152f35b34620003ce576020366003190112620003ce576200154c62004bd9565b6101075460405163068bcd8d60e01b81526004803590820152906001600160a01b03906000908390602490829085165afa918215620013cc57620004cc92602091600091620015a0575b500151166200514b565b620015c191503d806000833e620015b8818362003b53565b81019062005040565b8462001596565b34620003ce576000366003190112620003ce57610104546040516001600160a01b039091168152602090f35b34620003ce576000366003190112620003ce57602060fb54604051908152f35b34620003ce576040366003190112620003ce576200163162003a8f565b6200163b62003aa6565b9060018060a01b0380911660005261010b602052604060002091166000526020526020604060002054604051908152f35b34620003ce576000366003190112620003ce57610101546040516001600160a01b039091168152602090f35b34620003ce576000366003190112620003ce57602061011054604051908152f35b34620003ce576000366003190112620003ce576020604051600080516020620059248339815191528152f35b34620003ce576020366003190112620003ce576200170262004bd9565b6101075460405163068bcd8d60e01b81526004803590820152906001600160a01b03906000908390602490829085165afa918215620013cc57620004cc9260209160009162001756575b5001511662005297565b6200176e91503d806000833e620015b8818362003b53565b846200174c565b34620003ce576000366003190112620003ce576200179262004346565b603380546001600160a01b031981169091556000906001600160a01b031660008051602062005a048339815191528280a3005b34620003ce576000366003190112620003ce57610106546040516001600160a01b039091168152602090f35b34620003ce576000366003190112620003ce57610103546040516001600160a01b039091168152602090f35b34620003ce576040366003190112620003ce576200183a62003a8f565b6200184462003aa6565b6200184e62004c71565b6200185862004bd9565b60ff805416156200195c5760018060a01b03918281168060005261010c8060205260ff60026040600020015416156200194a578160005280602052604060002091604051620018a78162003aeb565b868454168152604060ff6002600187015496602085019788520154161515910152620018d38462005407565b6000526020526000600260408220828155826001820155015561011090815491600019830192831162000eca577fb5946f249f8744efe9d14d49a483b54a589b1362944ff6694de93456cceb96a39562000ea3936200193c925561010554168583519162005015565b516040519384938462004c4f565b604051636a5cfb6d60e01b8152600490fd5b6040516365b1ee3960e11b8152600490fd5b34620003ce576020366003190112620003ce576200198b62004c71565b6200199562004ff7565b3360005261010d602052604060002061010c602052620019c060043560016040600020015462004797565b60fb541162001b995761010554620019e7906004359033906001600160a01b031662005015565b60005b815481101562001b425780602062001a056000938562003ad2565b905460405180958193632ed04b2b60e01b83528262001a2b600435336004840162004c34565b039360039190911b1c6001600160a01b03165af1918215620013cc5760009262001b08575b503360005261010b9081602052604060002062001a6e828662003ad2565b60018060a01b0391549060031b1c166000526020526040600020549182841160001462001ab35760448484604051916311423e6360e31b835260048301526024820152fd5b62001b029391925033600052602052604060002062001ad3838662003ad2565b60018060a01b0391549060031b1c1660005260205262001afa604060002091825462004797565b905562004772565b620019ea565b9091506020813d60201162001b39575b8162001b276020938362003b53565b81010312620003ce5751908362001a50565b3d915062001b18565b3360005261010c602052600160406000200162001b63600435825462004797565b90557f6ee2c70b2d6b89ae808a2313aab43e925c06624271419cd665d85cfa1ae04ff86040518062000ea3600435338362004c34565b604051634e23e81760e11b8152600490fd5b34620003ce576000366003190112620003ce57610102546040516001600160a01b039091168152602090f35b34620003ce57602080600319360112620003ce576004359062001bf962004c71565b62001c0362004ff7565b60005b3360005261010d908183526040600020805482101562001d16578162001c2c9162003ad2565b905460405163782aadff60e01b8152939085858062001c508a336004840162004c34565b0381600060018060a01b0380966003998a1b1c165af1928315620013cc5760009362001cde575b62001c8e95508362001c94575b5050505062004772565b62001c06565b3360005261010b8752604060002092875262001cb585604060002062003ad2565b9054911b1c16600052845262001cd26040600020918254620043e0565b90558480808062001c84565b92508585813d831162001d0e575b62001cf8818362003b53565b81010312620003ce5762001c8e94519262001c77565b503d62001cec565b7f576605f9bfe8911e7508bed3763c7c5c8eb3b86e8b360b90a4bc6abe1104cb7f62000ea38661010c8762001d5b8360018060a01b0361010554163090339062004eb7565b3360005252600160406000200162001d75828254620043e0565b9055604051918291338362004c34565b34620003ce576000366003190112620003ce577f00000000000000000000000000000000000000000000000000000000000000006001600160a01b0316300362001de2576020604051600080516020620059c48339815191528152f35b60405162461bcd60e51b815260206004820152603860248201527f555550535570677261646561626c653a206d757374206e6f742062652063616c6044820152771b1959081d1a1c9bdd59da0819195b1959d85d1958d85b1b60421b6064820152608490fd5b6040366003190112620003ce5762001e5f62003a8f565b6024356001600160401b038111620003ce5736602382011215620003ce5762001e9390369060248160040135910162003b93565b906001600160a01b037f000000000000000000000000000000000000000000000000000000000000000081169062001ece3083141562004400565b62001eee600080516020620059c483398151915292828454161462004451565b62001ef86200467e565b8133911603620020b657600080516020620059648339815191525460ff161562001f2a575050620004cc9150620044a2565b6040516352d1902d60e01b81526020939291831691908481600481865afa6000918162002081575b5062001fa35760405162461bcd60e51b815260048101869052602e602482015260008051602062005ae483398151915260448201526d6f6e206973206e6f74205555505360901b6064820152608490fd5b036200203b5762001fb482620044a2565b60008051602062005a24833981519152600080a282511580159062002032575b62001fdb57005b600080620004cc946040519462001ff28662003aeb565b6027865260008051602062005ac483398151915281870152660819985a5b195960ca1b604087015281519101845af46200202b62004534565b9162004569565b50600162001fd4565b60405162461bcd60e51b8152600481018490526029602482015260008051602062005aa48339815191526044820152681a58589b195555525160ba1b6064820152608490fd5b9091508581813d8311620020ae575b6200209c818362003b53565b81010312620003ce5751908762001f52565b503d62002090565b620020df620020c46200467e565b60405163163678e960e01b8152918291336004840162004709565b0390fd5b34620003ce576060366003190112620003ce576200210062003a8f565b6001600160401b03602435818111620003ce576200212390369060040162003c56565b91604435828111620003ce576200213f90369060040162003bf0565b9060018060a01b03918261010254168361010754169484610101541685603354166040519160209863184b955960e01b8a8501526024840152604483015260648201526064815260a0810192818410838511176200087a57836040526103e7928383019360a0850191868310908311176200087a57620054fd863952604060c0830152620021d460e0609f1993018262003edb565b0301906000f08015620013cc57620021f092848792166200491e565b9290918060c08601511615620022d0575b5082620022bf91604051818101906810531313d5d31254d560ba1b825285602982015260298152620022338162003aeb565b51902090604051918183016e20a62627aba624a9aa2fa0a226a4a760891b9384825287602f820152602f81526200226a8162003aeb565b519020908060005260c98352600160406000200190828254925560008051602062005944833981519152600080a460405190810191825284602f820152602f8152620022b68162003aeb565b519020620042ad565b620003ca6040519283928362003e60565b919361010001928351516127108111620023635750604051828101906810531313d5d31254d560ba1b825286602982015260298152620023108162003aeb565b5190209460005b855180518210156200234e579062002342866200233983620023489562004782565b511689620042ad565b62004772565b62002317565b505093509350620022bf915083929162002201565b6024906040519063107b111560e31b82526004820152fd5b34620003ce576040366003190112620003ce576200239862003a8f565b620023a262003aa6565b9060018060a01b0380911660005261010e60205260406000209116600052602052602060ff604060002054166040519015158152f35b34620003ce576020366003190112620003ce57620004cc620023f962003a8f565b62004723565b34620003ce576020366003190112620003ce576001600160a01b036200242462003a8f565b1660005261010a602052602060ff604060002054166040519015158152f35b34620003ce576020366003190112620003ce57620004cc6200246462003a8f565b620052e5565b34620003ce57602080600319360112620003ce576200248862003a8f565b6001600160a01b037f000000000000000000000000000000000000000000000000000000000000000081169290620024c33085141562004400565b620024e3600080516020620059c483398151915294828654161462004451565b620024ed6200467e565b8133911603620020b65760405193828501916001600160401b038311868410176200087a57826040526000865260ff600080516020620059648339815191525416600014620025465750505050620004cc9150620044a2565b84939416906040516352d1902d60e01b81528581600481865afa6000918162002690575b50620025bb5760405162461bcd60e51b815260048101879052602e602482015260008051602062005ae483398151915260448201526d6f6e206973206e6f74205555505360901b6064820152608490fd5b036200264a57620025cc83620044a2565b60008051602062005a24833981519152600080a283511580159062002641575b620025f357005b60008091620004cc9560008051602062005ac4833981519152604051966200261b8862003aeb565b60278852870152660819985a5b195960ca1b60408701525190845af46200202b62004534565b506000620025ec565b60405162461bcd60e51b8152600481018590526029602482015260008051602062005aa48339815191526044820152681a58589b195555525160ba1b6064820152608490fd5b9091508681813d8311620026bd575b620026ab818362003b53565b81010312620003ce575190886200256a565b503d6200269f565b34620003ce576040366003190112620003ce57620026e262003aa6565b336001600160a01b038216036200270157620004cc90600435620042e0565b60405162461bcd60e51b815260206004820152602f60248201527f416363657373436f6e74726f6c3a2063616e206f6e6c792072656e6f756e636560448201526e103937b632b9903337b91039b2b63360891b6064820152608490fd5b34620003ce576080366003190112620003ce576001600160401b0360043511620003ce576101808060031960043536030112620003ce576040519081016001600160401b038111828210176200087a57604052620027c160043560040162003abd565b8152600435602401356001600160a01b0381168103620003ce5760208201526004356044810135604083015260648101356060830152608481013560808301526200280f9060a40162003abd565b60a08201526200282460c46004350162003abd565b60c08201526001600160401b0360043560e4013511620003ce5762002854366004803560e4810135010162003bf0565b60e08201526200286a6101046004350162003abd565b61010082015260043561012401356001600160401b038111620003ce576200289a90600436918135010162003bcf565b610120820152620028b16101446004350162003a81565b61014082015260043561016401356001600160401b038111620003ce57620028e190600436918135010162003bcf565b610160820152620028f162003aa6565b6044356001600160a01b0381169003620003ce576064356001600160a01b0381169003620003ce5760005460ff8160081c161590818092620032c1575b8015620032a8575b156200324c5760ff1981166001176000558162003239575b506200296260ff60005460081c1662004608565b6200296f606435620043a8565b6200299d60ff60005460081c16620029878162004608565b620029928162004608565b600160655562004608565b60008051602062005924833981519152600081815260c96020527fa867e09674d469ee17077111ff66261f5d2fc5820cc6914676cb47231da588198054908290559091600080516020620059448339815191528380a4825161010780546001600160a01b039283166001600160a01b031991821617909155602085015161010580549190931691161790556040830151156200322757604083015160fb55606083015160fc55610140830151151560ff801981541691161760ff5561012083015192835160018060401b0381116200087a5762002a7d6101085462003e79565b601f8111620031d3575b506020601f82116001146200316157819293949560009262003155575b50508160011b916000199060031b1c191617610108555b61016081015180519093906001600160401b0381116200087a5762002ae36101095462003e79565b601f811162003101575b506020601f82116001146200308d57819060049660009262003081575b50508160011b916000199060031b1c191617610109555b60a082015161010080546001600160a01b03199081166001600160a01b0393841617825560c085015160ff8054610100600160a81b03191660089290921b610100600160a81b03169190911790559084015161010680549092169216918217905560006101105562002b93906200421d565b61010754604051635ab1bd5360e01b81529460209186919082906001600160a01b03165afa938415620013cc576000946200303d575b5061010480546001600160a01b0319166001600160a01b0386811691909117909155610106541693843b62002eb157604051946001600160401b0360808701908111908711176200087a57608086016040526003865260208601606036823786511562002e9b573390525b8551600019810190811162000eca5762002c4f908762004782565b528451908160011981011162000eca5762002ccb60209162002ce49362002c7c3091600119018a62004782565b526080860151600060e08801519160405196879586948593633a92f65f60e01b8552600485015260a0602485015262002cb860a48501620047a5565b84810360031901604486015290620048c0565b3060648401528281036003190160848401528c620048df565b03926001600160a01b03165af1908115620013cc5760009162002e63575b5060fe5583516001600160401b0381116200087a57600160401b81116200087a57602061010f95865483885580841062002e43575b50019460005260206000209460005b82811062002e255761010280546001600160a01b038681166001600160a01b03199283161790925561010180546044359093169290911691909117905560fe5460e086015160405191825260606020830181905288927f2f2ffcb06f8a1d35e2716f6b43ef2c19bfa76467d8f66964ae12c2583ed03205929091829162002de39162002dd4908401620047a5565b908382036040850152620048c0565b0390a162002ded57005b61ff0019600054166000557f7f26b83ff96e1f2b6a682f133852f6798a09c465da95921460cefb3847402498602060405160018152a1005b81516001600160a01b03168188015560209091019060010162002d46565b62002e5c90886000528484600020918201910162004759565b8762002d37565b90506020813d60201162002e92575b8162002e816020938362003b53565b81010312620003ce57518562002d02565b3d915062002e72565b634e487b7160e01b600052603260045260246000fd5b909193926040519463a0e67e2b60e01b8652600086600481885afa958615620013cc5760009662002f78575b5085519360028501851162000eca5762002efa6002860162003c3e565b9462002f0a604051968762003b53565b600201808652601f199062002f1f9062003c3e565b01366020870137849360005b885181101562002f695762002f63906001600160a01b0362002f4e828c62004782565b511662002f5c828a62004782565b5262004772565b62002f2b565b50929591945092955062002c34565b9095503d806000833e62002f8d818362003b53565b6020828281010312620003ce578151906001600160401b038211620003ce57808301601f838501011215620003ce57818301519162002fcc8362003c3e565b9362002fdc604051958662003b53565b8385526020850192810160208560051b848401010111620003ce5780820160200192915b60208560051b828401010184106200301f575050505050948662002edd565b60208080946200302f8762004669565b815201940193925062003000565b9093506020813d60201162003078575b816200305c6020938362003b53565b81010312620003ce57620030709062004669565b928462002bc9565b3d91506200304d565b01519050868062002b0a565b61010960005260206000209560005b601f1984168110620030e85750958291600497600194601f19811610620030ce575b505050811b016101095562002b21565b015160001960f88460031b161c19169055868080620030be565b828201518855600190970196602092830192016200309c565b6101096000526200314e907fd7f48d1c2d4fdcceabee32a4fd1437f382c65f0f9af09a878c95c20147dc06a8601f840160051c810191602085106200086f57601f0160051c019062004759565b8562002aed565b01519050858062002aa4565b61010860005260206000209060005b601f1984168110620031ba575060019394959683601f19811610620031a0575b505050811b016101085562002abb565b015160001960f88460031b161c1916905585808062003190565b9091602060018192858b01518155019301910162003170565b61010860005262003220907f8543e9adbfbe1f62b7411fdf032fcfea758a7d6b332f64d971a1334c2ff364dd601f840160051c810191602085106200086f57601f0160051c019062004759565b8562002a87565b6040516363868c5560e11b8152600490fd5b61ffff191661010117600055836200294e565b60405162461bcd60e51b815260206004820152602e60248201527f496e697469616c697a61626c653a20636f6e747261637420697320616c72656160448201526d191e481a5b9a5d1a585b1a5e995960921b6064820152608490fd5b50303b158015620029365750600160ff82161462002936565b50600160ff8216106200292e565b34620003ce576000366003190112620003ce57602060fd54604051908152f35b34620003ce576020366003190112620003ce57620004cc60043562005345565b34620003ce576040366003190112620003ce57620004cc6004356200333362003aa6565b908060005260c96020526200335060016040600020015462003f16565b620042ad565b34620003ce576020366003190112620003ce576001600160a01b036200337b62003a8f565b1660005261010c6020526020600160406000200154604051908152f35b34620003ce576040366003190112620003ce57620033b562003a8f565b6024359060018060a01b0380911660005261010d60205260406000208054831015620003ce57602092620033e99162003ad2565b9190546040519260031b1c168152f35b34620003ce576000366003190112620003ce5760fb54620f424090816200342360fc548362003f02565b04916024602060018060a01b036101005416604051928380926302a64b8360e21b82523060048301525afa908115620013cc5760009162003488575b60206200348085620012b8888762003478888562003f02565b0492620043e0565b604051908152f35b90506020929192813d8211620034bd575b81620034a86020938362003b53565b81010312620003ce575190919060206200345f565b3d915062003499565b34620003ce576020366003190112620003ce5760043560005260c96020526020600160406000200154604051908152f35b34620003ce576040366003190112620003ce57620004cc6200351862003a8f565b6200352262003aa6565b9062004d16565b34620003ce576020366003190112620003ce57620004cc6200354a62003a8f565b6200355462004bd9565b6200514b565b34620003ce576000366003190112620003ce57602060ff8054166040519015158152f35b34620003ce576020366003190112620003ce576200359b62003a8f565b620035a562004346565b61010280546001600160a01b0319166001600160a01b03909216919091179055005b34620003ce576020366003190112620003ce57620004cc620035e862003a8f565b620035f262004bd9565b62005297565b34620003ce576040366003190112620003ce576200361562003a8f565b6200361f62003aa6565b6200362962004c71565b620036348262004cc8565b6200363f8162004723565b6200364b813362004cef565b60018060a01b03918281168060005261010e9060208281526040600020958086169687600052825260ff6040600020541662003954578260005261010c8252604060002090604051906200369f8262003aeb565b8254168152604060ff60026001850154948587860152015416151591015260fb549060405163c329217160e01b9081815284816004818d5afa908115620013cc5760009162003932575b506004811015620038e8576003036200382d575050506040519163782aadff60e01b835280600484015260006024840152818360448160008b5af18015620013cc57600090620037f8575b61010d9350935b8160005261010b835260406000208860005283528460406000205581600052825260406000208760005282526040600020600160ff1982541617905560005252604060002090815494600160401b8610156200087a57620037e9620037cc8762000ea39560017ff56fa57e85e169a12200d12d9921ec069b52e688f6d309d9dab7bceff54614ec9a01815562003ad2565b819391549060031b9160018060a01b03809116831b921b19161790565b90556040519384938462004c4f565b508183813d831162003825575b62003811818362003b53565b81010312620003ce5761010d925162003734565b503d62003805565b60409492945190815283816004818c5afa908115620013cc57600091620038fe575b506004811015620038e8576200386c575b5061010d92936200373b565b60405163782aadff60e01b815293508290849081906200389190896004840162004c34565b038160008b5af18015620013cc57600090620038b3575b925061010d62003860565b508183813d8311620038e0575b620038cc818362003b53565b81010312620003ce5761010d9251620038a8565b503d620038c0565b634e487b7160e01b600052602160045260246000fd5b620039239150843d86116200392a575b6200391a818362003b53565b81019062004c1a565b896200384f565b503d6200390e565b6200394d9150853d87116200392a576200391a818362003b53565b8a620036e9565b604051636adcde4b60e11b8152600490fd5b34620003ce576020366003190112620003ce57620004cc600435620053af565b34620003ce576020366003190112620003ce57600435801515809103620003ce5760207f886a0d3c8ef17c1d6de13b8581d5465743d7ebf0f69164667b690350cd1ee68891620039d562004bd9565b604051908152a1005b34620003ce576000366003190112620003ce57602060fe54604051908152f35b34620003ce576000366003190112620003ce576033546040516001600160a01b039091168152602090f35b34620003ce576020366003190112620003ce576004359063ffffffff60e01b8216809203620003ce57602091637965db0b60e01b811490811562003a6f575b5015158152f35b6301ffc9a760e01b1490508362003a68565b35908115158203620003ce57565b600435906001600160a01b0382168203620003ce57565b602435906001600160a01b0382168203620003ce57565b35906001600160a01b0382168203620003ce57565b805482101562002e9b5760005260206000200190600090565b606081019081106001600160401b038211176200087a57604052565b604081019081106001600160401b038211176200087a57604052565b60c081019081106001600160401b038211176200087a57604052565b6001600160401b0381116200087a57604052565b601f909101601f19168101906001600160401b038211908210176200087a57604052565b6001600160401b0381116200087a57601f01601f191660200190565b92919262003ba18262003b77565b9162003bb1604051938462003b53565b829481845281830111620003ce578281602093846000960137010152565b9080601f83011215620003ce5781602062003bed9335910162003b93565b90565b9190604083820312620003ce576040519062003c0c8262003b07565b8335825290928391602082013591906001600160401b038311620003ce5760209262003c39920162003bcf565b910152565b6001600160401b0381116200087a5760051b60200190565b919091808303906102408212620003ce57604080516001600160401b039590936101409182860190888211878310176200087a57869860808412620003ce576101c09485890195848710838811176200087a578796875288358552606060209687968c8c6101609a8b9101359101528c8c6101809c8d9101359101528c8c6101a094859101359101528c5260808b01356003811015620003ce57878d015260a08b01356004811015620003ce57898d01528660bf19820112620003ce5788519087820191808310878411176200087a5760608e60c08f81968f5201358352015260df190112620003ce5787519062003d4e8262003b23565b60e08b0135916001600160a01b0383168303620003ce578b9a8b9962003dc69662003db995845262003d85610100809d0162003abd565b8b8501526101209e8f01358d8501528d013560608401528c013560808301528b013560a082015260808d0152890162003abd565b60a08b0152870162003abd565b60c08901526101e086013560e0890152610200860135908111620003ce57850181601f82011215620003ce5780359062003e0e62003e048362003c3e565b9651968762003b53565b818652838087019260051b820101928311620003ce578301905b82821062003e46575050505084015262003c39906102200162003abd565b83809162003e548462003abd565b81520191019062003e28565b9081526001600160a01b03909116602082015260400190565b90600182811c9216801562003eab575b602083101462003e9557565b634e487b7160e01b600052602260045260246000fd5b91607f169162003e89565b60005b83811062003eca5750506000910152565b818101518382015260200162003eb9565b9060209162003ef68151809281855285808601910162003eb6565b601f01601f1916010190565b8181029291811591840414171562000eca57565b60009080825260209060c98252604092838120338252835260ff84822054161562003f415750505050565b3384519262003f508462003aeb565b602a84528484019086368337845115620042095760308253845192600193841015620041f5576078602187015360295b8481116200418657506200415557865192608084016001600160401b0381118582101762004141578852604284528684019460603687378451156200412d576030865384518210156200412d5790607860218601536041915b818311620040ba575050506200408957620020df9386936200406c936200405c604894620040329a519a8b9576020b1b1b2b9b9a1b7b73a3937b61d1030b1b1b7bab73a1604d1b8c880152518092603788019062003eb6565b8401917001034b99036b4b9b9b4b733903937b6329607d1b60378401525180938684019062003eb6565b0103602881018752018562003b53565b5192839262461bcd60e51b84526004840152602483019062003edb565b60648587519062461bcd60e51b82528060048301526024820152600080516020620059048339815191526044820152fd5b909192600f8116601081101562004119576f181899199a1a9b1b9c1cb0b131b232b360811b901a620040ed8588620043ee565b5360041c928015620041055760001901919062003fd9565b634e487b7160e01b82526011600452602482fd5b634e487b7160e01b83526032600452602483fd5b634e487b7160e01b81526032600452602490fd5b634e487b7160e01b86526041600452602486fd5b60648688519062461bcd60e51b82528060048301526024820152600080516020620059048339815191526044820152fd5b90600f81166010811015620041e1576f181899199a1a9b1b9c1cb0b131b232b360811b901a620041b78389620043ee565b5360041c908015620041cd576000190162003f80565b634e487b7160e01b86526011600452602486fd5b634e487b7160e01b87526032600452602487fd5b634e487b7160e01b85526032600452602485fd5b634e487b7160e01b84526032600452602484fd5b6001600160a01b0316600081815260008051602062005a448339815191526020526040812054909190600080516020620059248339815191529060ff16156200426557505050565b80835260c96020526040832082845260205260408320600160ff198254161790557f2f8788117e7eff1d82e926ec794901d17c78024a50270940304540a733656f0d339380a4565b9060009180835260c9602052604083209160018060a01b03169182845260205260ff604084205416156200426557505050565b9060009180835260c9602052604083209160018060a01b03169182845260205260ff6040842054166200431257505050565b80835260c9602052604083208284526020526040832060ff19815416905560008051602062005a84833981519152339380a4565b620043506200467e565b336001600160a01b03909116036200436457565b606460405162461bcd60e51b815260206004820152602060248201527f4f776e61626c653a2063616c6c6572206973206e6f7420746865206f776e65726044820152fd5b603380546001600160a01b039283166001600160a01b03198216811790925590911660008051602062005a04833981519152600080a3565b9190820180921162000eca57565b90815181101562002e9b570160200190565b156200440857565b60405162461bcd60e51b815260206004820152602c60248201526000805160206200598483398151915260448201526b19195b1959d85d1958d85b1b60a21b6064820152608490fd5b156200445957565b60405162461bcd60e51b815260206004820152602c60248201526000805160206200598483398151915260448201526b6163746976652070726f787960a01b6064820152608490fd5b803b15620044d957600080516020620059c483398151915280546001600160a01b0319166001600160a01b03909216919091179055565b60405162461bcd60e51b815260206004820152602d60248201527f455243313936373a206e657720696d706c656d656e746174696f6e206973206e60448201526c1bdd08184818dbdb9d1c9858dd609a1b6064820152608490fd5b3d1562004564573d90620045488262003b77565b9162004558604051938462003b53565b82523d6000602084013e565b606090565b91929015620045ce57508151156200457f575090565b3b15620045895790565b60405162461bcd60e51b815260206004820152601d60248201527f416464726573733a2063616c6c20746f206e6f6e2d636f6e74726163740000006044820152606490fd5b825190915015620045e25750805190602001fd5b60405162461bcd60e51b815260206004820152908190620020df90602483019062003edb565b156200461057565b60405162461bcd60e51b815260206004820152602b60248201527f496e697469616c697a61626c653a20636f6e7472616374206973206e6f74206960448201526a6e697469616c697a696e6760a81b6064820152608490fd5b51906001600160a01b0382168203620003ce57565b6033546001600160a01b0316803b620046945790565b604051638da5cb5b60e01b8152602081600481855afa60009181620046c3575b50620046be575090565b905090565b90916020823d821162004700575b81620046e06020938362003b53565b81010312620046fd5750620046f59062004669565b9038620046b4565b80fd5b3d9150620046d1565b6001600160a01b0391821681529116602082015260400190565b6001600160a01b0316600090815261010a602052604090205460ff16156200474757565b6040516346c26e4b60e01b8152600490fd5b81811062004765575050565b6000815560010162004759565b600019811462000eca5760010190565b805182101562002e9b5760209160051b010190565b9190820391821162000eca57565b90600091610108805491620047ba8362003e79565b918282526001938481169081600014620048215750600114620047de575b50505050565b90919394506000526020928360002092846000945b8386106200480c575050505001019038808080620047d8565b805485870183015294019385908201620047f3565b9294505050602093945060ff191683830152151560051b01019038808080620047d8565b906000916101098054916200485a8362003e79565b9182825260019384811690816000146200482157506001146200487d5750505050565b90919394506000526020928360002092846000945b838610620048ab575050505001019038808080620047d8565b80548587018301529401938590820162004892565b906040602062003bed9380518452015191816020820152019062003edb565b90815180825260208080930193019160005b82811062004900575050505090565b83516001600160a01b031685529381019392810192600101620048f1565b936001600160a01b039390929173eeeeeeeeeeeeeeeeeeeeeeeeeeeeeeeeeeeeeeee9190858116908162004bd0575b50869580610107541660fe549060409283519a8b98602080809b01528c60a06060835180518a8501528d810151828501528981015160808501520151910152898101516003811015620038e85760c08e0152858101516004811015620038e8578d808c969497959362004a709360e0830152848862004a578c60a060608601515191610100928389015260808701519086808351169661012097888c0152830151166101408a0152810151610160890152606081015161018089015260808101516101a089015201516101c08701528360a0860151166101e08701528360c08601511661020087015260e085015161022087015284015161024080870152610280860190620048df565b920151166102608301520390601f198201815262003b53565b8062004aa48188519788966370803ea560e11b88526004880152169e8f602487015260e0604487015260e486019062003edb565b99166064840152600098899182608486015262004acf60031992838782030160a48801528b620048c0565b918583030160c486015261010f9186835491828152019284528684209184905b82821062004bad57505050509083809203925af194851562004ba257809562004b5b575b50509162004b56918493600080516020620058e4833981519152969599815196879687528601523090850152606084015260a0608084015260a0830190620048c0565b0390a1565b909194508582813d831162004b9a575b62004b77818362003b53565b81010312620046fd5750519281600080516020620058e483398151915262004b13565b503d62004b6b565b8251903d90823e3d90fd5b8354811685528e988a98508e965090940193600193840193919091019062004aef565b9250386200494d565b33600090815260008051602062005a44833981519152602052604090205460ff161562004c0257565b60405163fc4be72f60e01b8152336004820152602490fd5b90816020910312620003ce57516004811015620003ce5790565b6001600160a01b039091168152602081019190915260400190565b6001600160a01b03918216815291166020820152604081019190915260600190565b60026065541462004c83576002606555565b60405162461bcd60e51b815260206004820152601f60248201527f5265656e7472616e637947756172643a207265656e7472616e742063616c6c006044820152606490fd5b6001600160a01b0316600090815261010c602052604090206002015460ff16156200194a57565b6001600160a01b0391821691160362004d0457565b60405163bbe7961160e01b8152600490fd5b9060018060a01b039081831660009481865261010e9060208281526040938489209387871694858b52835260ff868b2054161562004eab579061010d929162004d5f8a62004cc8565b62004d6b883362004cef565b818b528252858a20858b528252858a2060ff198154169055808a5261010b8252858a20858b528252898681205589525282872093875b85548082101562004e715787908562004dbb848a62003ad2565b939054600394851b1c161462004ddf575b505062004dd99062004772565b62004da1565b6000199080820190811162004e5d5762004dfb8a918a62003ad2565b905490841b1c1662004e12620037cc858b62003ad2565b90558754801562004e495762004dd99392918a91019162004e34838b62003ad2565b81939154921b1b191690558755903862004dcc565b634e487b7160e01b8c52603160045260248cfd5b634e487b7160e01b8c52601160045260248cfd5b505094509550507ede109bef4619f7e2cf00c8e5a50ca55f8deb44f87087eed414a91dbf8d1d1b93915062004b5690519283928362004709565b50505095505050505050565b9062004ef29062004ee362004ef8956040519586936323b872dd60e01b60208601526024850162004c4f565b03601f19810184528362003b53565b62004efa565b565b60018060a01b03169062004f5860405162004f158162003b07565b6020938482527f5361666545524332303a206c6f772d6c6576656c2063616c6c206661696c6564858301526000808587829751910182855af16200202b62004534565b80519182159184831562004fcc575b50505090501562004f755750565b6084906040519062461bcd60e51b82526004820152602a60248201527f5361666545524332303a204552433230206f7065726174696f6e20646964206e6044820152691bdd081cdd58d8d9595960b21b6064820152fd5b91938180945001031262004ff357820151908115158203620046fd57508038808462004f67565b5080fd5b3360005261010c60205260ff60026040600020015416156200194a57565b62004ef262004ef8939262004ee360405194859263a9059cbb60e01b60208501526024840162004c34565b906020918281830312620003ce5780516001600160401b0391828211620003ce57019060c082840312620003ce5760408051946200507e8662003b23565b83518652808401516001600160a01b0381168103620003ce5781870152620050a882850162004669565b828701526060840151838111620003ce578401928284870312620003ce57825193620050d48562003b07565b8051855282810151918211620003ce570185601f82011215620003ce578051956200510d620051038862003b77565b9451948562003b53565b868452828783010111620003ce5760a0956200512f9183808601910162003eb6565b820152606084015260808101516080840152015160a082015290565b9060018060a01b038092169160009280845261010a60209281845260409160ff838820541662005286578387528452818620805460ff19166001179055815163b6c61f3160e01b81528481600481875afa9081156200527c5787916200523b575b501680620051d0575b50600080516020620059a483398151915293945051908152a1565b8086913b1562004ff357819060248451809481936306c0752d60e51b83528860048401525af180156200523157600080516020620059a48339815191529596506200521f575b859450620051b5565b6200522a9062003b3f565b3862005216565b82513d88823e3d90fd5b90508481813d831162005274575b62005255818362003b53565b810103126200527057518181168103620052705738620051ac565b8680fd5b503d62005249565b83513d89823e3d90fd5b82516325a2934b60e21b8152600490fd5b6001600160a01b0316600081815261010a6020908152604091829020805460ff1916905590519182527f09a1db4b80c32706328728508c941a6b954f31eb5affd32f236c1fd405f8fea491a1565b60407f83eac9fdaff0ac1017624b7eddeb9782e3d707cd894073cb7e8301a41c6e5cf8916200531362004bd9565b61010380546001600160a01b0319166001600160a01b03928316908117909155610106548351921682526020820152a1565b60207f5e2d447f427e49fd08832fd025a56589500352417199aa65728feaf05123e856916200537362004bd9565b6200537d6200538a565b8060fb55604051908152a1565b6101105480620053975750565b60249060405190637d95539f60e11b82526004820152fd5b620053b962004bd9565b620186a08111620053f5576020817f611668bfcf654a99c33cdb66c29ec37a5aae5c1287d2d9715a24e18cb4d806d69260fc55604051908152a1565b60405163fe925f7d60e01b8152600490fd5b9060018060a01b038092169160009280845260209161010d8352604092838620908451809283918382549182815201918a52838a20938a905b828210620054df57505050620054599250038262003b53565b855b8151811015620054d657868362005473838562004782565b5116803b1562004ff35781906024885180948193631914f67160e21b83528a60048401525af18015620054cc5790620054b49291620054ba575b5062004772565b6200545b565b620054c59062003b3f565b38620054ad565b86513d8a823e3d90fd5b50505050509050565b85548816845260019586019587955093810193909101906200544056fe6040608081526103e7908138038061001681610218565b93843982019181818403126102135780516001600160a01b038116808203610213576020838101516001600160401b0394919391858211610213570186601f820112156102135780519061007161006c83610253565b610218565b918083528583019886828401011161021357888661008f930161026e565b813b156101b9577f360894a13ba1a3210667c828492db98dca3e2076cc3735a920a3ca505d382bbc80546001600160a01b031916841790556000927fbc7cd75a20ee27fd9adebab32041f755214dbc6bffa90cc0225b39da2e5c2d3b8480a28051158015906101b2575b61010b575b855160a290816103458239f35b855194606086019081118682101761019e578697849283926101889952602788527f416464726573733a206c6f772d6c6576656c2064656c65676174652063616c6c87890152660819985a5b195960ca1b8a8901525190845af4913d15610194573d9061017a61006c83610253565b91825281943d92013e610291565b508038808080806100fe565b5060609250610291565b634e487b7160e01b84526041600452602484fd5b50826100f9565b855162461bcd60e51b815260048101859052602d60248201527f455243313936373a206e657720696d706c656d656e746174696f6e206973206e60448201526c1bdd08184818dbdb9d1c9858dd609a1b6064820152608490fd5b600080fd5b6040519190601f01601f191682016001600160401b0381118382101761023d57604052565b634e487b7160e01b600052604160045260246000fd5b6001600160401b03811161023d57601f01601f191660200190565b60005b8381106102815750506000910152565b8181015183820152602001610271565b919290156102f357508151156102a5575090565b3b156102ae5790565b60405162461bcd60e51b815260206004820152601d60248201527f416464726573733a2063616c6c20746f206e6f6e2d636f6e74726163740000006044820152606490fd5b8251909150156103065750805190602001fd5b6044604051809262461bcd60e51b825260206004830152610336815180928160248601526020868601910161026e565b601f01601f19168101030190fdfe60806040523615604157600080516020607683398151915254600090819081906001600160a01b0316368280378136915af43d82803e15603d573d90f35b3d90fd5b600080516020607683398151915254600090819081906001600160a01b0316368280378136915af43d82803e15603d573d90f3fe360894a13ba1a3210667c828492db98dca3e2076cc3735a920a3ca505d382bbca164736f6c6343000813000a778cac0ae0b66477341553a4a89398c61ccf448313d3354ad0ca85a5a825d283537472696e67733a20686578206c656e67746820696e73756666696369656e7403be538b6391ddcd7f2649585cc95b120c9e2a613f70714fbb55345057d809fabd79b86ffe0ab8e8776151514217cd7cacd52c909f66475c3af44e129f0b00ff4910fdfa16fed3260ed0e7147f7cc6da11a60208b5b9406d12a635614ffd914346756e6374696f6e206d7573742062652063616c6c6564207468726f756768203f008fd510eae7a9e7bee13513d7b83bef8003d488b5a3d0b0da4de71d6846f1360894a13ba1a3210667c828492db98dca3e2076cc3735a920a3ca505d382bbcf67fb6c95f41f58a276869ca2608214f0a6aab1c9ffe445affaa58680fddd4978be0079c531659141344cd1fd0a4f28419497f9722a3daafe3b4186f6b6457e0bc7cd75a20ee27fd9adebab32041f755214dbc6bffa90cc0225b39da2e5c2d3ba867e09674d469ee17077111ff66261f5d2fc5820cc6914676cb47231da588188fd46764d9fde733a671bd3aa6710da0668b1c4eb78d33f42e104553ea4bc76ef6391f5c32d9c69d2a47ea670b442974b53935d1edc7fd64eb21e047a839171b45524331393637557067726164653a20756e737570706f727465642070726f78416464726573733a206c6f772d6c6576656c2064656c65676174652063616c6c45524331393637557067726164653a206e657720696d706c656d656e74617469a164736f6c6343000813000a","linkReferences":{}},"methodIdentifiers":{"COUNCIL_MEMBER()":"733a2d1f","DEFAULT_ADMIN_ROLE()":"a217fddf","MAX_FEE()":"bc063e1a","NATIVE()":"a0cf0aea","PRECISION_SCALE()":"d7050f07","VERSION()":"ffa1ad74","acceptCouncilSafe()":"b5058c50","activateMemberInStrategy(address,address)":"0d4a8b49","addStrategy(address)":"223e5479","addStrategyByPoolId(uint256)":"82d6a1e7","addressToMemberInfo(address)":"88cfe684","allo()":"d6d8428d","cloneNonce()":"33960459","collateralVaultTemplate()":"77122d56","communityFee()":"8961be6b","communityName()":"c6d572ae","councilSafe()":"6c53db9a","covenantIpfsHash()":"b64e39af","createPool(address,((uint256,uint256,uint256,uint256),uint8,uint8,(uint256),(address,address,uint256,uint256,uint256,uint256),address,address,uint256,address[],address),(uint256,string))":"499ac57f","createPool(address,address,((uint256,uint256,uint256,uint256),uint8,uint8,(uint256),(address,address,uint256,uint256,uint256,uint256),address,address,uint256,address[],address),(uint256,string))":"cd564dae","deactivateMemberInStrategy(address,address)":"22bcf999","decreasePower(uint256)":"5ecf71c5","enabledStrategies(address)":"3a871fe1","feeReceiver()":"b3f00674","gardenToken()":"db61d65c","getBasisStakedAmount()":"0331383c","getMemberPowerInStrategy(address,address)":"7817ee4f","getMemberStakedAmount(address)":"2c611c4a","getRoleAdmin(bytes32)":"248a9ca3","getStakeAmountWithFees()":"28c309e9","grantRole(bytes32,address)":"2f2ff15d","hasRole(bytes32,address)":"91d14854","increasePower(uint256)":"559de05d","initialize((address,address,uint256,uint256,uint256,address,address,(uint256,string),address,string,bool,string),address,address,address)":"34196355","initialize(address)":"c4d66de8","isCouncilMember(address)":"ebd7dc52","isKickEnabled()":"1f787d28","isMember(address)":"a230c524","kickMember(address,address)":"6871eb4d","memberActivatedInStrategies(address,address)":"477a5cc0","memberPowerInStrategy(address,address)":"65e3864c","onlyStrategyEnabled(address)":"411481e6","owner()":"8da5cb5b","pendingCouncilSafe()":"68decabb","profileId()":"08386eba","proxiableUUID()":"52d1902d","proxyOwner()":"025313a2","registerStakeAmount()":"78a0b8a9","registry()":"7b103999","registryFactory()":"f86c5f89","rejectPool(address)":"fb1f6917","removeStrategy(address)":"175188e8","removeStrategyByPoolId(uint256)":"73265c37","renounceOwnership()":"715018a6","renounceRole(bytes32,address)":"36568abe","revokeRole(bytes32,address)":"d547741f","setArchived(bool)":"0b03bb9a","setBasisStakedAmount(uint256)":"31f61bca","setCollateralVaultTemplate(address)":"b0d3713a","setCommunityFee(uint256)":"0d12bbdb","setCommunityParams((address,address,uint256,string,uint256,bool,string))":"f2d774e7","setCouncilSafe(address)":"397e2543","setStrategyTemplate(address)":"1b71f0e4","stakeAndRegisterMember(string)":"9a1f46e2","strategiesByMember(address,uint256)":"2b38c69c","strategyTemplate()":"5c94e4d2","supportsInterface(bytes4)":"01ffc9a7","totalMembers()":"76e92559","transferOwnership(address)":"f2fde38b","unregisterMember()":"b99b4370","upgradeTo(address)":"3659cfe6","upgradeToAndCall(address,bytes)":"4f1ef286"},"storageLayout":{"storage":[{"astId":14081,"contract":"pkg/contracts/src/RegistryCommunity/RegistryCommunityV0_0.sol:RegistryCommunityV0_0","label":"_initialized","offset":0,"slot":"0","type":"t_uint8"},{"astId":14084,"contract":"pkg/contracts/src/RegistryCommunity/RegistryCommunityV0_0.sol:RegistryCommunityV0_0","label":"_initializing","offset":1,"slot":"0","type":"t_bool"},{"astId":14708,"contract":"pkg/contracts/src/RegistryCommunity/RegistryCommunityV0_0.sol:RegistryCommunityV0_0","label":"__gap","offset":0,"slot":"1","type":"t_array(t_uint256)50_storage"},{"astId":13873,"contract":"pkg/contracts/src/RegistryCommunity/RegistryCommunityV0_0.sol:RegistryCommunityV0_0","label":"_owner","offset":0,"slot":"51","type":"t_address"},{"astId":13993,"contract":"pkg/contracts/src/RegistryCommunity/RegistryCommunityV0_0.sol:RegistryCommunityV0_0","label":"__gap","offset":0,"slot":"52","type":"t_array(t_uint256)49_storage"},{"astId":14258,"contract":"pkg/contracts/src/RegistryCommunity/RegistryCommunityV0_0.sol:RegistryCommunityV0_0","label":"_status","offset":0,"slot":"101","type":"t_uint256"},{"astId":14327,"contract":"pkg/contracts/src/RegistryCommunity/RegistryCommunityV0_0.sol:RegistryCommunityV0_0","label":"__gap","offset":0,"slot":"102","type":"t_array(t_uint256)49_storage"},{"astId":14982,"contract":"pkg/contracts/src/RegistryCommunity/RegistryCommunityV0_0.sol:RegistryCommunityV0_0","label":"__gap","offset":0,"slot":"151","type":"t_array(t_uint256)50_storage"},{"astId":13480,"contract":"pkg/contracts/src/RegistryCommunity/RegistryCommunityV0_0.sol:RegistryCommunityV0_0","label":"_roles","offset":0,"slot":"201","type":"t_mapping(t_bytes32,t_struct(RoleData)13475_storage)"},{"astId":13787,"contract":"pkg/contracts/src/RegistryCommunity/RegistryCommunityV0_0.sol:RegistryCommunityV0_0","label":"__gap","offset":0,"slot":"202","type":"t_array(t_uint256)49_storage"},{"astId":30968,"contract":"pkg/contracts/src/RegistryCommunity/RegistryCommunityV0_0.sol:RegistryCommunityV0_0","label":"registerStakeAmount","offset":0,"slot":"251","type":"t_uint256"},{"astId":30971,"contract":"pkg/contracts/src/RegistryCommunity/RegistryCommunityV0_0.sol:RegistryCommunityV0_0","label":"communityFee","offset":0,"slot":"252","type":"t_uint256"},{"astId":30974,"contract":"pkg/contracts/src/RegistryCommunity/RegistryCommunityV0_0.sol:RegistryCommunityV0_0","label":"cloneNonce","offset":0,"slot":"253","type":"t_uint256"},{"astId":30977,"contract":"pkg/contracts/src/RegistryCommunity/RegistryCommunityV0_0.sol:RegistryCommunityV0_0","label":"profileId","offset":0,"slot":"254","type":"t_bytes32"},{"astId":30980,"contract":"pkg/contracts/src/RegistryCommunity/RegistryCommunityV0_0.sol:RegistryCommunityV0_0","label":"isKickEnabled","offset":0,"slot":"255","type":"t_bool"},{"astId":30983,"contract":"pkg/contracts/src/RegistryCommunity/RegistryCommunityV0_0.sol:RegistryCommunityV0_0","label":"feeReceiver","offset":1,"slot":"255","type":"t_address"},{"astId":30986,"contract":"pkg/contracts/src/RegistryCommunity/RegistryCommunityV0_0.sol:RegistryCommunityV0_0","label":"registryFactory","offset":0,"slot":"256","type":"t_address"},{"astId":30989,"contract":"pkg/contracts/src/RegistryCommunity/RegistryCommunityV0_0.sol:RegistryCommunityV0_0","label":"collateralVaultTemplate","offset":0,"slot":"257","type":"t_address"},{"astId":30992,"contract":"pkg/contracts/src/RegistryCommunity/RegistryCommunityV0_0.sol:RegistryCommunityV0_0","label":"strategyTemplate","offset":0,"slot":"258","type":"t_address"},{"astId":30995,"contract":"pkg/contracts/src/RegistryCommunity/RegistryCommunityV0_0.sol:RegistryCommunityV0_0","label":"pendingCouncilSafe","offset":0,"slot":"259","type":"t_address_payable"},{"astId":30999,"contract":"pkg/contracts/src/RegistryCommunity/RegistryCommunityV0_0.sol:RegistryCommunityV0_0","label":"registry","offset":0,"slot":"260","type":"t_contract(IRegistry)542"},{"astId":31003,"contract":"pkg/contracts/src/RegistryCommunity/RegistryCommunityV0_0.sol:RegistryCommunityV0_0","label":"gardenToken","offset":0,"slot":"261","type":"t_contract(IERC20)17350"},{"astId":31007,"contract":"pkg/contracts/src/RegistryCommunity/RegistryCommunityV0_0.sol:RegistryCommunityV0_0","label":"councilSafe","offset":0,"slot":"262","type":"t_contract(ISafe)33244"},{"astId":31011,"contract":"pkg/contracts/src/RegistryCommunity/RegistryCommunityV0_0.sol:RegistryCommunityV0_0","label":"allo","offset":0,"slot":"263","type":"t_contract(FAllo)32977"},{"astId":31014,"contract":"pkg/contracts/src/RegistryCommunity/RegistryCommunityV0_0.sol:RegistryCommunityV0_0","label":"communityName","offset":0,"slot":"264","type":"t_string_storage"},{"astId":31017,"contract":"pkg/contracts/src/RegistryCommunity/RegistryCommunityV0_0.sol:RegistryCommunityV0_0","label":"covenantIpfsHash","offset":0,"slot":"265","type":"t_string_storage"},{"astId":31022,"contract":"pkg/contracts/src/RegistryCommunity/RegistryCommunityV0_0.sol:RegistryCommunityV0_0","label":"enabledStrategies","offset":0,"slot":"266","type":"t_mapping(t_address,t_bool)"},{"astId":31029,"contract":"pkg/contracts/src/RegistryCommunity/RegistryCommunityV0_0.sol:RegistryCommunityV0_0","label":"memberPowerInStrategy","offset":0,"slot":"267","type":"t_mapping(t_address,t_mapping(t_address,t_uint256))"},{"astId":31035,"contract":"pkg/contracts/src/RegistryCommunity/RegistryCommunityV0_0.sol:RegistryCommunityV0_0","label":"addressToMemberInfo","offset":0,"slot":"268","type":"t_mapping(t_address,t_struct(Member)30744_storage)"},{"astId":31041,"contract":"pkg/contracts/src/RegistryCommunity/RegistryCommunityV0_0.sol:RegistryCommunityV0_0","label":"strategiesByMember","offset":0,"slot":"269","type":"t_mapping(t_address,t_array(t_address)dyn_storage)"},{"astId":31048,"contract":"pkg/contracts/src/RegistryCommunity/RegistryCommunityV0_0.sol:RegistryCommunityV0_0","label":"memberActivatedInStrategies","offset":0,"slot":"270","type":"t_mapping(t_address,t_mapping(t_address,t_bool))"},{"astId":31052,"contract":"pkg/contracts/src/RegistryCommunity/RegistryCommunityV0_0.sol:RegistryCommunityV0_0","label":"initialMembers","offset":0,"slot":"271","type":"t_array(t_address)dyn_storage"},{"astId":31055,"contract":"pkg/contracts/src/RegistryCommunity/RegistryCommunityV0_0.sol:RegistryCommunityV0_0","label":"totalMembers","offset":0,"slot":"272","type":"t_uint256"},{"astId":32935,"contract":"pkg/contracts/src/RegistryCommunity/RegistryCommunityV0_0.sol:RegistryCommunityV0_0","label":"__gap","offset":0,"slot":"273","type":"t_array(t_uint256)49_storage"}],"types":{"t_address":{"encoding":"inplace","label":"address","numberOfBytes":"20"},"t_address_payable":{"encoding":"inplace","label":"address payable","numberOfBytes":"20"},"t_array(t_address)dyn_storage":{"encoding":"dynamic_array","label":"address[]","numberOfBytes":"32","base":"t_address"},"t_array(t_uint256)49_storage":{"encoding":"inplace","label":"uint256[49]","numberOfBytes":"1568","base":"t_uint256"},"t_array(t_uint256)50_storage":{"encoding":"inplace","label":"uint256[50]","numberOfBytes":"1600","base":"t_uint256"},"t_bool":{"encoding":"inplace","label":"bool","numberOfBytes":"1"},"t_bytes32":{"encoding":"inplace","label":"bytes32","numberOfBytes":"32"},"t_contract(FAllo)32977":{"encoding":"inplace","label":"contract FAllo","numberOfBytes":"20"},"t_contract(IERC20)17350":{"encoding":"inplace","label":"contract IERC20","numberOfBytes":"20"},"t_contract(IRegistry)542":{"encoding":"inplace","label":"contract IRegistry","numberOfBytes":"20"},"t_contract(ISafe)33244":{"encoding":"inplace","label":"contract ISafe","numberOfBytes":"20"},"t_mapping(t_address,t_array(t_address)dyn_storage)":{"encoding":"mapping","key":"t_address","label":"mapping(address => address[])","numberOfBytes":"32","value":"t_array(t_address)dyn_storage"},"t_mapping(t_address,t_bool)":{"encoding":"mapping","key":"t_address","label":"mapping(address => bool)","numberOfBytes":"32","value":"t_bool"},"t_mapping(t_address,t_mapping(t_address,t_bool))":{"encoding":"mapping","key":"t_address","label":"mapping(address => mapping(address => bool))","numberOfBytes":"32","value":"t_mapping(t_address,t_bool)"},"t_mapping(t_address,t_mapping(t_address,t_uint256))":{"encoding":"mapping","key":"t_address","label":"mapping(address => mapping(address => uint256))","numberOfBytes":"32","value":"t_mapping(t_address,t_uint256)"},"t_mapping(t_address,t_struct(Member)30744_storage)":{"encoding":"mapping","key":"t_address","label":"mapping(address => struct Member)","numberOfBytes":"32","value":"t_struct(Member)30744_storage"},"t_mapping(t_address,t_uint256)":{"encoding":"mapping","key":"t_address","label":"mapping(address => uint256)","numberOfBytes":"32","value":"t_uint256"},"t_mapping(t_bytes32,t_struct(RoleData)13475_storage)":{"encoding":"mapping","key":"t_bytes32","label":"mapping(bytes32 => struct AccessControlUpgradeable.RoleData)","numberOfBytes":"32","value":"t_struct(RoleData)13475_storage"},"t_string_storage":{"encoding":"bytes","label":"string","numberOfBytes":"32"},"t_struct(Member)30744_storage":{"encoding":"inplace","label":"struct Member","numberOfBytes":"96","members":[{"astId":30739,"contract":"pkg/contracts/src/RegistryCommunity/RegistryCommunityV0_0.sol:RegistryCommunityV0_0","label":"member","offset":0,"slot":"0","type":"t_address"},{"astId":30741,"contract":"pkg/contracts/src/RegistryCommunity/RegistryCommunityV0_0.sol:RegistryCommunityV0_0","label":"stakedAmount","offset":0,"slot":"1","type":"t_uint256"},{"astId":30743,"contract":"pkg/contracts/src/RegistryCommunity/RegistryCommunityV0_0.sol:RegistryCommunityV0_0","label":"isRegistered","offset":0,"slot":"2","type":"t_bool"}]},"t_struct(RoleData)13475_storage":{"encoding":"inplace","label":"struct AccessControlUpgradeable.RoleData","numberOfBytes":"64","members":[{"astId":13472,"contract":"pkg/contracts/src/RegistryCommunity/RegistryCommunityV0_0.sol:RegistryCommunityV0_0","label":"members","offset":0,"slot":"0","type":"t_mapping(t_address,t_bool)"},{"astId":13474,"contract":"pkg/contracts/src/RegistryCommunity/RegistryCommunityV0_0.sol:RegistryCommunityV0_0","label":"adminRole","offset":0,"slot":"1","type":"t_bytes32"}]},"t_uint256":{"encoding":"inplace","label":"uint256","numberOfBytes":"32"},"t_uint8":{"encoding":"inplace","label":"uint8","numberOfBytes":"1"}}},"id":67}