{"abi":[{"type":"function","name":"COUNCIL_MEMBER","inputs":[],"outputs":[{"name":"","type":"bytes32","internalType":"bytes32"}],"stateMutability":"view"},{"type":"function","name":"DEFAULT_ADMIN_ROLE","inputs":[],"outputs":[{"name":"","type":"bytes32","internalType":"bytes32"}],"stateMutability":"view"},{"type":"function","name":"MAX_FEE","inputs":[],"outputs":[{"name":"","type":"uint256","internalType":"uint256"}],"stateMutability":"view"},{"type":"function","name":"NATIVE","inputs":[],"outputs":[{"name":"","type":"address","internalType":"address"}],"stateMutability":"view"},{"type":"function","name":"PRECISION_SCALE","inputs":[],"outputs":[{"name":"","type":"uint256","internalType":"uint256"}],"stateMutability":"view"},{"type":"function","name":"acceptCouncilSafe","inputs":[],"outputs":[],"stateMutability":"nonpayable"},{"type":"function","name":"activateMemberInStrategy","inputs":[{"name":"_member","type":"address","internalType":"address"},{"name":"_strategy","type":"address","internalType":"address"}],"outputs":[],"stateMutability":"nonpayable"},{"type":"function","name":"addStrategy","inputs":[{"name":"_newStrategy","type":"address","internalType":"address"}],"outputs":[],"stateMutability":"nonpayable"},{"type":"function","name":"addStrategyByPoolId","inputs":[{"name":"poolId","type":"uint256","internalType":"uint256"}],"outputs":[],"stateMutability":"nonpayable"},{"type":"function","name":"addressToMemberInfo","inputs":[{"name":"member","type":"address","internalType":"address"}],"outputs":[{"name":"member","type":"address","internalType":"address"},{"name":"stakedAmount","type":"uint256","internalType":"uint256"},{"name":"isRegistered","type":"bool","internalType":"bool"}],"stateMutability":"view"},{"type":"function","name":"allo","inputs":[],"outputs":[{"name":"","type":"address","internalType":"contract FAllo"}],"stateMutability":"view"},{"type":"function","name":"cloneNonce","inputs":[],"outputs":[{"name":"","type":"uint256","internalType":"uint256"}],"stateMutability":"view"},{"type":"function","name":"collateralVaultTemplate","inputs":[],"outputs":[{"name":"","type":"address","internalType":"address"}],"stateMutability":"view"},{"type":"function","name":"communityFee","inputs":[],"outputs":[{"name":"","type":"uint256","internalType":"uint256"}],"stateMutability":"view"},{"type":"function","name":"communityName","inputs":[],"outputs":[{"name":"","type":"string","internalType":"string"}],"stateMutability":"view"},{"type":"function","name":"councilSafe","inputs":[],"outputs":[{"name":"","type":"address","internalType":"contract ISafe"}],"stateMutability":"view"},{"type":"function","name":"covenantIpfsHash","inputs":[],"outputs":[{"name":"","type":"string","internalType":"string"}],"stateMutability":"view"},{"type":"function","name":"createPool","inputs":[{"name":"_token","type":"address","internalType":"address"},{"name":"_params","type":"tuple","internalType":"struct StrategyStruct.InitializeParams","components":[{"name":"cvParams","type":"tuple","internalType":"struct StrategyStruct.CVParams","components":[{"name":"maxRatio","type":"uint256","internalType":"uint256"},{"name":"weight","type":"uint256","internalType":"uint256"},{"name":"decay","type":"uint256","internalType":"uint256"},{"name":"minThresholdPoints","type":"uint256","internalType":"uint256"}]},{"name":"proposalType","type":"uint8","internalType":"enum StrategyStruct.ProposalType"},{"name":"pointSystem","type":"uint8","internalType":"enum StrategyStruct.PointSystem"},{"name":"pointConfig","type":"tuple","internalType":"struct StrategyStruct.PointSystemConfig","components":[{"name":"maxAmount","type":"uint256","internalType":"uint256"}]},{"name":"arbitrableConfig","type":"tuple","internalType":"struct StrategyStruct.ArbitrableConfig","components":[{"name":"arbitrator","type":"address","internalType":"contract IArbitrator"},{"name":"tribunalSafe","type":"address","internalType":"address"},{"name":"submitterCollateralAmount","type":"uint256","internalType":"uint256"},{"name":"challengerCollateralAmount","type":"uint256","internalType":"uint256"},{"name":"defaultRuling","type":"uint256","internalType":"uint256"},{"name":"defaultRulingTimeout","type":"uint256","internalType":"uint256"}]},{"name":"registryCommunity","type":"address","internalType":"address"},{"name":"sybilScorer","type":"address","internalType":"address"}]},{"name":"_metadata","type":"tuple","internalType":"struct Metadata","components":[{"name":"protocol","type":"uint256","internalType":"uint256"},{"name":"pointer","type":"string","internalType":"string"}]}],"outputs":[{"name":"poolId","type":"uint256","internalType":"uint256"},{"name":"strategy","type":"address","internalType":"address"}],"stateMutability":"nonpayable"},{"type":"function","name":"createPool","inputs":[{"name":"_strategy","type":"address","internalType":"address"},{"name":"_token","type":"address","internalType":"address"},{"name":"_params","type":"tuple","internalType":"struct StrategyStruct.InitializeParams","components":[{"name":"cvParams","type":"tuple","internalType":"struct StrategyStruct.CVParams","components":[{"name":"maxRatio","type":"uint256","internalType":"uint256"},{"name":"weight","type":"uint256","internalType":"uint256"},{"name":"decay","type":"uint256","internalType":"uint256"},{"name":"minThresholdPoints","type":"uint256","internalType":"uint256"}]},{"name":"proposalType","type":"uint8","internalType":"enum StrategyStruct.ProposalType"},{"name":"pointSystem","type":"uint8","internalType":"enum StrategyStruct.PointSystem"},{"name":"pointConfig","type":"tuple","internalType":"struct StrategyStruct.PointSystemConfig","components":[{"name":"maxAmount","type":"uint256","internalType":"uint256"}]},{"name":"arbitrableConfig","type":"tuple","internalType":"struct StrategyStruct.ArbitrableConfig","components":[{"name":"arbitrator","type":"address","internalType":"contract IArbitrator"},{"name":"tribunalSafe","type":"address","internalType":"address"},{"name":"submitterCollateralAmount","type":"uint256","internalType":"uint256"},{"name":"challengerCollateralAmount","type":"uint256","internalType":"uint256"},{"name":"defaultRuling","type":"uint256","internalType":"uint256"},{"name":"defaultRulingTimeout","type":"uint256","internalType":"uint256"}]},{"name":"registryCommunity","type":"address","internalType":"address"},{"name":"sybilScorer","type":"address","internalType":"address"}]},{"name":"_metadata","type":"tuple","internalType":"struct Metadata","components":[{"name":"protocol","type":"uint256","internalType":"uint256"},{"name":"pointer","type":"string","internalType":"string"}]}],"outputs":[{"name":"poolId","type":"uint256","internalType":"uint256"},{"name":"strategy","type":"address","internalType":"address"}],"stateMutability":"nonpayable"},{"type":"function","name":"deactivateMemberInStrategy","inputs":[{"name":"_member","type":"address","internalType":"address"},{"name":"_strategy","type":"address","internalType":"address"}],"outputs":[],"stateMutability":"nonpayable"},{"type":"function","name":"decreasePower","inputs":[{"name":"_amountUnstaked","type":"uint256","internalType":"uint256"}],"outputs":[],"stateMutability":"nonpayable"},{"type":"function","name":"enabledStrategies","inputs":[{"name":"strategy","type":"address","internalType":"address"}],"outputs":[{"name":"isEnabled","type":"bool","internalType":"bool"}],"stateMutability":"view"},{"type":"function","name":"feeReceiver","inputs":[],"outputs":[{"name":"","type":"address","internalType":"address"}],"stateMutability":"view"},{"type":"function","name":"gardenToken","inputs":[],"outputs":[{"name":"","type":"address","internalType":"contract IERC20"}],"stateMutability":"view"},{"type":"function","name":"getBasisStakedAmount","inputs":[],"outputs":[{"name":"","type":"uint256","internalType":"uint256"}],"stateMutability":"view"},{"type":"function","name":"getMemberPowerInStrategy","inputs":[{"name":"_member","type":"address","internalType":"address"},{"name":"_strategy","type":"address","internalType":"address"}],"outputs":[{"name":"","type":"uint256","internalType":"uint256"}],"stateMutability":"view"},{"type":"function","name":"getMemberStakedAmount","inputs":[{"name":"_member","type":"address","internalType":"address"}],"outputs":[{"name":"","type":"uint256","internalType":"uint256"}],"stateMutability":"view"},{"type":"function","name":"getRoleAdmin","inputs":[{"name":"role","type":"bytes32","internalType":"bytes32"}],"outputs":[{"name":"","type":"bytes32","internalType":"bytes32"}],"stateMutability":"view"},{"type":"function","name":"getStakeAmountWithFees","inputs":[],"outputs":[{"name":"","type":"uint256","internalType":"uint256"}],"stateMutability":"view"},{"type":"function","name":"grantRole","inputs":[{"name":"role","type":"bytes32","internalType":"bytes32"},{"name":"account","type":"address","internalType":"address"}],"outputs":[],"stateMutability":"nonpayable"},{"type":"function","name":"hasRole","inputs":[{"name":"role","type":"bytes32","internalType":"bytes32"},{"name":"account","type":"address","internalType":"address"}],"outputs":[{"name":"","type":"bool","internalType":"bool"}],"stateMutability":"view"},{"type":"function","name":"increasePower","inputs":[{"name":"_amountStaked","type":"uint256","internalType":"uint256"}],"outputs":[],"stateMutability":"nonpayable"},{"type":"function","name":"initialize","inputs":[{"name":"params","type":"tuple","internalType":"struct RegistryCommunityV0_0.InitializeParams","components":[{"name":"_allo","type":"address","internalType":"address"},{"name":"_gardenToken","type":"address","internalType":"contract IERC20"},{"name":"_registerStakeAmount","type":"uint256","internalType":"uint256"},{"name":"_communityFee","type":"uint256","internalType":"uint256"},{"name":"_nonce","type":"uint256","internalType":"uint256"},{"name":"_registryFactory","type":"address","internalType":"address"},{"name":"_feeReceiver","type":"address","internalType":"address"},{"name":"_metadata","type":"tuple","internalType":"struct Metadata","components":[{"name":"protocol","type":"uint256","internalType":"uint256"},{"name":"pointer","type":"string","internalType":"string"}]},{"name":"_councilSafe","type":"address","internalType":"address payable"},{"name":"_communityName","type":"string","internalType":"string"},{"name":"_isKickEnabled","type":"bool","internalType":"bool"},{"name":"covenantIpfsHash","type":"string","internalType":"string"}]},{"name":"_strategyTemplate","type":"address","internalType":"address"},{"name":"_collateralVaultTemplate","type":"address","internalType":"address"},{"name":"owner","type":"address","internalType":"address"}],"outputs":[],"stateMutability":"nonpayable"},{"type":"function","name":"initialize","inputs":[{"name":"initialOwner","type":"address","internalType":"address"}],"outputs":[],"stateMutability":"nonpayable"},{"type":"function","name":"isCouncilMember","inputs":[{"name":"_member","type":"address","internalType":"address"}],"outputs":[{"name":"","type":"bool","internalType":"bool"}],"stateMutability":"view"},{"type":"function","name":"isKickEnabled","inputs":[],"outputs":[{"name":"","type":"bool","internalType":"bool"}],"stateMutability":"view"},{"type":"function","name":"isMember","inputs":[{"name":"_member","type":"address","internalType":"address"}],"outputs":[{"name":"_isMember","type":"bool","internalType":"bool"}],"stateMutability":"view"},{"type":"function","name":"kickMember","inputs":[{"name":"_member","type":"address","internalType":"address"},{"name":"_transferAddress","type":"address","internalType":"address"}],"outputs":[],"stateMutability":"nonpayable"},{"type":"function","name":"memberActivatedInStrategies","inputs":[{"name":"member","type":"address","internalType":"address"},{"name":"strategy","type":"address","internalType":"address"}],"outputs":[{"name":"isActivated","type":"bool","internalType":"bool"}],"stateMutability":"view"},{"type":"function","name":"memberPowerInStrategy","inputs":[{"name":"strategy","type":"address","internalType":"address"},{"name":"member","type":"address","internalType":"address"}],"outputs":[{"name":"power","type":"uint256","internalType":"uint256"}],"stateMutability":"view"},{"type":"function","name":"owner","inputs":[],"outputs":[{"name":"","type":"address","internalType":"address"}],"stateMutability":"view"},{"type":"function","name":"pendingCouncilSafe","inputs":[],"outputs":[{"name":"","type":"address","internalType":"address payable"}],"stateMutability":"view"},{"type":"function","name":"profileId","inputs":[],"outputs":[{"name":"","type":"bytes32","internalType":"bytes32"}],"stateMutability":"view"},{"type":"function","name":"proxiableUUID","inputs":[],"outputs":[{"name":"","type":"bytes32","internalType":"bytes32"}],"stateMutability":"view"},{"type":"function","name":"registerStakeAmount","inputs":[],"outputs":[{"name":"","type":"uint256","internalType":"uint256"}],"stateMutability":"view"},{"type":"function","name":"registry","inputs":[],"outputs":[{"name":"","type":"address","internalType":"contract IRegistry"}],"stateMutability":"view"},{"type":"function","name":"registryFactory","inputs":[],"outputs":[{"name":"","type":"address","internalType":"address"}],"stateMutability":"view"},{"type":"function","name":"removeStrategy","inputs":[{"name":"_strategy","type":"address","internalType":"address"}],"outputs":[],"stateMutability":"nonpayable"},{"type":"function","name":"removeStrategyByPoolId","inputs":[{"name":"poolId","type":"uint256","internalType":"uint256"}],"outputs":[],"stateMutability":"nonpayable"},{"type":"function","name":"renounceOwnership","inputs":[],"outputs":[],"stateMutability":"nonpayable"},{"type":"function","name":"renounceRole","inputs":[{"name":"role","type":"bytes32","internalType":"bytes32"},{"name":"account","type":"address","internalType":"address"}],"outputs":[],"stateMutability":"nonpayable"},{"type":"function","name":"revokeRole","inputs":[{"name":"role","type":"bytes32","internalType":"bytes32"},{"name":"account","type":"address","internalType":"address"}],"outputs":[],"stateMutability":"nonpayable"},{"type":"function","name":"setBasisStakedAmount","inputs":[{"name":"_newAmount","type":"uint256","internalType":"uint256"}],"outputs":[],"stateMutability":"nonpayable"},{"type":"function","name":"setCollateralVaultTemplate","inputs":[{"name":"template","type":"address","internalType":"address"}],"outputs":[],"stateMutability":"nonpayable"},{"type":"function","name":"setCommunityFee","inputs":[{"name":"_newCommunityFee","type":"uint256","internalType":"uint256"}],"outputs":[],"stateMutability":"nonpayable"},{"type":"function","name":"setCouncilSafe","inputs":[{"name":"_safe","type":"address","internalType":"address payable"}],"outputs":[],"stateMutability":"nonpayable"},{"type":"function","name":"setStrategyTemplate","inputs":[{"name":"template","type":"address","internalType":"address"}],"outputs":[],"stateMutability":"nonpayable"},{"type":"function","name":"stakeAndRegisterMember","inputs":[],"outputs":[],"stateMutability":"nonpayable"},{"type":"function","name":"strategiesByMember","inputs":[{"name":"member","type":"address","internalType":"address"},{"name":"","type":"uint256","internalType":"uint256"}],"outputs":[{"name":"strategiesAddresses","type":"address","internalType":"address"}],"stateMutability":"view"},{"type":"function","name":"strategyTemplate","inputs":[],"outputs":[{"name":"","type":"address","internalType":"address"}],"stateMutability":"view"},{"type":"function","name":"supportsInterface","inputs":[{"name":"interfaceId","type":"bytes4","internalType":"bytes4"}],"outputs":[{"name":"","type":"bool","internalType":"bool"}],"stateMutability":"view"},{"type":"function","name":"transferOwnership","inputs":[{"name":"newOwner","type":"address","internalType":"address"}],"outputs":[],"stateMutability":"nonpayable"},{"type":"function","name":"unregisterMember","inputs":[],"outputs":[],"stateMutability":"nonpayable"},{"type":"function","name":"upgradeTo","inputs":[{"name":"newImplementation","type":"address","internalType":"address"}],"outputs":[],"stateMutability":"nonpayable"},{"type":"function","name":"upgradeToAndCall","inputs":[{"name":"newImplementation","type":"address","internalType":"address"},{"name":"data","type":"bytes","internalType":"bytes"}],"outputs":[],"stateMutability":"payable"},{"type":"event","name":"AdminChanged","inputs":[{"name":"previousAdmin","type":"address","indexed":false,"internalType":"address"},{"name":"newAdmin","type":"address","indexed":false,"internalType":"address"}],"anonymous":false},{"type":"event","name":"AlloSet","inputs":[{"name":"_allo","type":"address","indexed":false,"internalType":"address"}],"anonymous":false},{"type":"event","name":"BasisStakedAmountSet","inputs":[{"name":"_newAmount","type":"uint256","indexed":false,"internalType":"uint256"}],"anonymous":false},{"type":"event","name":"BeaconUpgraded","inputs":[{"name":"beacon","type":"address","indexed":true,"internalType":"address"}],"anonymous":false},{"type":"event","name":"CommunityFeeUpdated","inputs":[{"name":"_newFee","type":"uint256","indexed":false,"internalType":"uint256"}],"anonymous":false},{"type":"event","name":"CouncilSafeChangeStarted","inputs":[{"name":"_safeOwner","type":"address","indexed":false,"internalType":"address"},{"name":"_newSafeOwner","type":"address","indexed":false,"internalType":"address"}],"anonymous":false},{"type":"event","name":"CouncilSafeSet","inputs":[{"name":"_safe","type":"address","indexed":false,"internalType":"address"}],"anonymous":false},{"type":"event","name":"Initialized","inputs":[{"name":"version","type":"uint8","indexed":false,"internalType":"uint8"}],"anonymous":false},{"type":"event","name":"MemberActivatedStrategy","inputs":[{"name":"_member","type":"address","indexed":false,"internalType":"address"},{"name":"_strategy","type":"address","indexed":false,"internalType":"address"},{"name":"_pointsToIncrease","type":"uint256","indexed":false,"internalType":"uint256"}],"anonymous":false},{"type":"event","name":"MemberDeactivatedStrategy","inputs":[{"name":"_member","type":"address","indexed":false,"internalType":"address"},{"name":"_strategy","type":"address","indexed":false,"internalType":"address"}],"anonymous":false},{"type":"event","name":"MemberKicked","inputs":[{"name":"_member","type":"address","indexed":false,"internalType":"address"},{"name":"_transferAddress","type":"address","indexed":false,"internalType":"address"},{"name":"_amountReturned","type":"uint256","indexed":false,"internalType":"uint256"}],"anonymous":false},{"type":"event","name":"MemberPowerDecreased","inputs":[{"name":"_member","type":"address","indexed":false,"internalType":"address"},{"name":"_unstakedAmount","type":"uint256","indexed":false,"internalType":"uint256"}],"anonymous":false},{"type":"event","name":"MemberPowerIncreased","inputs":[{"name":"_member","type":"address","indexed":false,"internalType":"address"},{"name":"_stakedAmount","type":"uint256","indexed":false,"internalType":"uint256"}],"anonymous":false},{"type":"event","name":"MemberRegistered","inputs":[{"name":"_member","type":"address","indexed":false,"internalType":"address"},{"name":"_amountStaked","type":"uint256","indexed":false,"internalType":"uint256"}],"anonymous":false},{"type":"event","name":"MemberUnregistered","inputs":[{"name":"_member","type":"address","indexed":false,"internalType":"address"},{"name":"_amountReturned","type":"uint256","indexed":false,"internalType":"uint256"}],"anonymous":false},{"type":"event","name":"OwnershipTransferred","inputs":[{"name":"previousOwner","type":"address","indexed":true,"internalType":"address"},{"name":"newOwner","type":"address","indexed":true,"internalType":"address"}],"anonymous":false},{"type":"event","name":"PoolCreated","inputs":[{"name":"_poolId","type":"uint256","indexed":false,"internalType":"uint256"},{"name":"_strategy","type":"address","indexed":false,"internalType":"address"},{"name":"_community","type":"address","indexed":false,"internalType":"address"},{"name":"_token","type":"address","indexed":false,"internalType":"address"},{"name":"_metadata","type":"tuple","indexed":false,"internalType":"struct Metadata","components":[{"name":"protocol","type":"uint256","internalType":"uint256"},{"name":"pointer","type":"string","internalType":"string"}]}],"anonymous":false},{"type":"event","name":"RegistryInitialized","inputs":[{"name":"_profileId","type":"bytes32","indexed":false,"internalType":"bytes32"},{"name":"_communityName","type":"string","indexed":false,"internalType":"string"},{"name":"_metadata","type":"tuple","indexed":false,"internalType":"struct Metadata","components":[{"name":"protocol","type":"uint256","internalType":"uint256"},{"name":"pointer","type":"string","internalType":"string"}]}],"anonymous":false},{"type":"event","name":"RoleAdminChanged","inputs":[{"name":"role","type":"bytes32","indexed":true,"internalType":"bytes32"},{"name":"previousAdminRole","type":"bytes32","indexed":true,"internalType":"bytes32"},{"name":"newAdminRole","type":"bytes32","indexed":true,"internalType":"bytes32"}],"anonymous":false},{"type":"event","name":"RoleGranted","inputs":[{"name":"role","type":"bytes32","indexed":true,"internalType":"bytes32"},{"name":"account","type":"address","indexed":true,"internalType":"address"},{"name":"sender","type":"address","indexed":true,"internalType":"address"}],"anonymous":false},{"type":"event","name":"RoleRevoked","inputs":[{"name":"role","type":"bytes32","indexed":true,"internalType":"bytes32"},{"name":"account","type":"address","indexed":true,"internalType":"address"},{"name":"sender","type":"address","indexed":true,"internalType":"address"}],"anonymous":false},{"type":"event","name":"StrategyAdded","inputs":[{"name":"_strategy","type":"address","indexed":false,"internalType":"address"}],"anonymous":false},{"type":"event","name":"StrategyRemoved","inputs":[{"name":"_strategy","type":"address","indexed":false,"internalType":"address"}],"anonymous":false},{"type":"event","name":"Upgraded","inputs":[{"name":"implementation","type":"address","indexed":true,"internalType":"address"}],"anonymous":false},{"type":"error","name":"AddressCannotBeZero","inputs":[]},{"type":"error","name":"CallerNotOwner","inputs":[{"name":"_caller","type":"address","internalType":"address"},{"name":"_owner","type":"address","internalType":"address"}]},{"type":"error","name":"CantDecreaseMoreThanPower","inputs":[{"name":"_decreaseAmount","type":"uint256","internalType":"uint256"},{"name":"_currentPower","type":"uint256","internalType":"uint256"}]},{"type":"error","name":"DecreaseUnderMinimum","inputs":[]},{"type":"error","name":"KickNotEnabled","inputs":[]},{"type":"error","name":"NewFeeGreaterThanMax","inputs":[]},{"type":"error","name":"PointsDeactivated","inputs":[]},{"type":"error","name":"RegistryCannotBeZero","inputs":[]},{"type":"error","name":"SenderNotNewOwner","inputs":[]},{"type":"error","name":"SenderNotStrategy","inputs":[]},{"type":"error","name":"StrategyDisabled","inputs":[]},{"type":"error","name":"StrategyExists","inputs":[]},{"type":"error","name":"UserAlreadyActivated","inputs":[]},{"type":"error","name":"UserAlreadyDeactivated","inputs":[]},{"type":"error","name":"UserAlreadyRegistered","inputs":[]},{"type":"error","name":"UserNotGardenOwner","inputs":[]},{"type":"error","name":"UserNotInCouncil","inputs":[{"name":"_user","type":"address","internalType":"address"}]},{"type":"error","name":"UserNotInRegistry","inputs":[]},{"type":"error","name":"ValueCannotBeZero","inputs":[]}],"bytecode":{"object":"0x60a06040523060805234801561001457600080fd5b5060805161592c6200004d60003960008181611d9001528181611dd301528181611ece01528181611f110152612075015261592c6000f3fe608060405260043610620003205760003560e01c806301ffc9a714620003255780630331383c146200035f57806308386eba14620003805780630d12bbdb14620003985780630d4a8b4914620003bf578063175188e814620003e45780631b71f0e414620004095780631f787d28146200042e578063223e5479146200044957806322bcf999146200046e578063248a9ca3146200049357806328c309e914620004b85780632b38c69c14620004d05780632c611c4a14620005045780632f2ff15d146200054257806331f61bca146200056757806333960459146200058c5780633419635514620005a45780633517aa7d14620005c957806336568abe14620005e15780633659cfe61462000606578063397e2543146200062b5780633a871fe11462000650578063477a5cc014620006855780634f1ef28614620006c5578063524e59e814620006dc57806352d1902d146200071f578063559de05d14620007375780635c94e4d2146200075c5780635ecf71c5146200077f57806365e3864c14620007a45780636871eb4d14620007e157806368decabb14620008065780636c53db9a1462000829578063715018a6146200084c57806373265c371462000864578063733a2d1f146200088957806377122d5614620008ae5780637817ee4f14620008d157806378a0b8a9146200091c5780637b103999146200093457806382d6a1e7146200095757806388cfe684146200097c5780638961be6b14620009f25780638da5cb5b1462000a0a57806391d148541462000a22578063a0cf0aea1462000a47578063a217fddf1462000a71578063a230c5241462000a88578063b0d3713a1462000aad578063b3f006741462000ad2578063b5058c501462000af9578063b64e39af1462000b11578063b99b43701462000b38578063bc063e1a1462000b50578063c4d66de81462000b68578063c6d572ae1462000b8d578063d547741f1462000ba5578063d6d8428d1462000bca578063d7050f071462000bed578063db61d65c1462000c05578063e16d0e321462000c28578063ebd7dc521462000c4d578063f2fde38b1462000c72578063f86c5f891462000c97575b600080fd5b3480156200033257600080fd5b506200034a620003443660046200416e565b62000cba565b60405190151581526020015b60405180910390f35b3480156200036c57600080fd5b5060fb545b60405190815260200162000356565b3480156200038d57600080fd5b506200037160fe5481565b348015620003a557600080fd5b50620003bd620003b73660046200419a565b62000cf2565b005b348015620003cc57600080fd5b50620003bd620003de366004620041dc565b62000d68565b348015620003f157600080fd5b50620003bd620004033660046200421a565b620010d6565b3480156200041657600080fd5b50620003bd620004283660046200421a565b620010ee565b3480156200043b57600080fd5b5060ff80546200034a911681565b3480156200045657600080fd5b50620003bd620004683660046200421a565b6200111b565b3480156200047b57600080fd5b50620003bd6200048d366004620041dc565b62001130565b348015620004a057600080fd5b5062000371620004b23660046200419a565b6200122a565b348015620004c557600080fd5b50620003716200123f565b348015620004dd57600080fd5b50620004f5620004ef3660046200423a565b62001344565b60405162000356919062004276565b3480156200051157600080fd5b5062000371620005233660046200421a565b6001600160a01b0316600090815261010c602052604090206001015490565b3480156200054f57600080fd5b50620003bd620005613660046200428a565b6200137e565b3480156200057457600080fd5b50620003bd620005863660046200419a565b620013a5565b3480156200059957600080fd5b506200037160fd5481565b348015620005b157600080fd5b50620003bd620005c3366004620044be565b620013e5565b348015620005d657600080fd5b50620003bd62001aa2565b348015620005ee57600080fd5b50620003bd620006003660046200428a565b62001d04565b3480156200061357600080fd5b50620003bd620006253660046200421a565b62001d86565b3480156200063857600080fd5b50620003bd6200064a3660046200421a565b62001e57565b3480156200065d57600080fd5b506200034a6200066f3660046200421a565b61010a6020526000908152604090205460ff1681565b3480156200069257600080fd5b506200034a620006a4366004620041dc565b61010e60209081526000928352604080842090915290825290205460ff1681565b620003bd620006d636600462004651565b62001ec4565b348015620006e957600080fd5b5062000701620006fb3660046200487b565b62001f85565b604080519283526001600160a01b0390911660208301520162000356565b3480156200072c57600080fd5b506200037162002068565b3480156200074457600080fd5b50620003bd620007563660046200419a565b62002119565b3480156200076957600080fd5b5061010254620004f5906001600160a01b031681565b3480156200078c57600080fd5b50620003bd6200079e3660046200419a565b62002365565b348015620007b157600080fd5b5062000371620007c3366004620041dc565b61010b60209081526000928352604080842090915290825290205481565b348015620007ee57600080fd5b50620003bd62000800366004620041dc565b620026ff565b3480156200081357600080fd5b5061010354620004f5906001600160a01b031681565b3480156200083657600080fd5b5061010654620004f5906001600160a01b031681565b3480156200085957600080fd5b50620003bd62002852565b3480156200087157600080fd5b50620003bd620008833660046200419a565b62002868565b3480156200089657600080fd5b50620003716000805160206200587083398151915281565b348015620008bb57600080fd5b5061010154620004f5906001600160a01b031681565b348015620008de57600080fd5b5062000371620008f0366004620041dc565b6001600160a01b03918216600090815261010b6020908152604080832093909416825291909152205490565b3480156200092957600080fd5b506200037160fb5481565b3480156200094157600080fd5b5061010454620004f5906001600160a01b031681565b3480156200096457600080fd5b50620003bd620009763660046200419a565b62002904565b3480156200098957600080fd5b50620009ca6200099b3660046200421a565b61010c602052600090815260409020805460018201546002909201546001600160a01b03909116919060ff1683565b604080516001600160a01b039094168452602084019290925215159082015260600162000356565b348015620009ff57600080fd5b506200037160fc5481565b34801562000a1757600080fd5b50620004f5620029c2565b34801562000a2f57600080fd5b506200034a62000a413660046200428a565b62002a5d565b34801562000a5457600080fd5b50620004f573eeeeeeeeeeeeeeeeeeeeeeeeeeeeeeeeeeeeeeee81565b34801562000a7e57600080fd5b5062000371600081565b34801562000a9557600080fd5b506200034a62000aa73660046200421a565b62002a88565b34801562000aba57600080fd5b50620003bd62000acc3660046200421a565b62002ad2565b34801562000adf57600080fd5b5060ff54620004f59061010090046001600160a01b031681565b34801562000b0657600080fd5b50620003bd62002aff565b34801562000b1e57600080fd5b5062000b2962002b36565b60405162000356919062004939565b34801562000b4557600080fd5b50620003bd62002bcd565b34801562000b5d57600080fd5b506200037162002cd7565b34801562000b7557600080fd5b50620003bd62000b873660046200421a565b62002ce9565b34801562000b9a57600080fd5b5062000b2962002d1e565b34801562000bb257600080fd5b50620003bd62000bc43660046200428a565b62002d2e565b34801562000bd757600080fd5b5061010754620004f5906001600160a01b031681565b34801562000bfa57600080fd5b506200037161271081565b34801562000c1257600080fd5b5061010554620004f5906001600160a01b031681565b34801562000c3557600080fd5b506200070162000c473660046200494e565b62002d50565b34801562000c5a57600080fd5b506200034a62000c6c3660046200421a565b62002edd565b34801562000c7f57600080fd5b50620003bd62000c913660046200421a565b62002efa565b34801562000ca457600080fd5b5061010054620004f5906001600160a01b031681565b60006001600160e01b03198216637965db0b60e01b148062000cec57506301ffc9a760e01b6001600160e01b03198316145b92915050565b62000cfc62002f6b565b62000d0b612710600a620049e3565b81111562000d2c5760405163fe925f7d60e01b815260040160405180910390fd5b60fc8190556040518181527f611668bfcf654a99c33cdb66c29ec37a5aae5c1287d2d9715a24e18cb4d806d6906020015b60405180910390a150565b62000d738262002fa8565b62000d7e8162002fd1565b62000d89816200300c565b6001600160a01b03808316600090815261010e602090815260408083209385168352929052205460ff161562000dd257604051636adcde4b60e11b815260040160405180910390fd5b6001600160a01b03808316600090815261010c602090815260409182902082516060810184528154909416845260018101549184018290526002015460ff1615159183019190915260fb546003846001600160a01b031663c32921716040518163ffffffff1660e01b81526004016020604051808303816000875af115801562000e60573d6000803e3d6000fd5b505050506040513d601f19601f8201168201806040525081019062000e86919062004a13565b600381111562000e9a5762000e9a620049fd565b0362000f1f5760405163782aadff60e01b81526001600160a01b0385169063782aadff9062000ed190889060009060040162004a33565b6020604051808303816000875af115801562000ef1573d6000803e3d6000fd5b505050506040513d601f19601f8201168201806040525081019062000f17919062004a4c565b90506200101b565b6000846001600160a01b031663c32921716040518163ffffffff1660e01b81526004016020604051808303816000875af115801562000f62573d6000803e3d6000fd5b505050506040513d601f19601f8201168201806040525081019062000f88919062004a13565b600381111562000f9c5762000f9c620049fd565b146200101b5760405163782aadff60e01b81526001600160a01b0385169063782aadff9062000fd2908890869060040162004a33565b6020604051808303816000875af115801562000ff2573d6000803e3d6000fd5b505050506040513d601f19601f8201168201806040525081019062001018919062004a4c565b90505b6001600160a01b03808616600081815261010b6020908152604080832094891680845294825280832086905583835261010e82528083208584528252808320805460ff1916600190811790915593835261010d8252808320805494850181558352912090910180546001600160a01b031916909217909155517ff56fa57e85e169a12200d12d9921ec069b52e688f6d309d9dab7bceff54614ec90620010c79087908790859062004a66565b60405180910390a15050505050565b620010e062002f6b565b620010eb8162003034565b50565b620010f862003092565b61010280546001600160a01b0319166001600160a01b0392909216919091179055565b6200112562002f6b565b620010eb81620030f5565b6200113b8262002fa8565b62001146816200300c565b62001152338262003187565b6001600160a01b03808316600090815261010e602090815260408083209385168352929052205460ff166200119a57604051633048da7760e21b815260040160405180910390fd5b6001600160a01b03808316600081815261010e60209081526040808320948616808452948252808320805460ff1916905592825261010b815282822093825292909252812055620011ec8282620031ba565b7ede109bef4619f7e2cf00c8e5a50ca55f8deb44f87087eed414a91dbf8d1d1b82826040516200121e92919062004a8a565b60405180910390a15050565b600090815260c9602052604090206001015490565b610100546000906001600160a01b0316816200125f6127106064620049e3565b60fc5460fb54620012719190620049e3565b6200127d919062004aa4565b90506000620012906127106064620049e3565b6040516302a64b8360e21b81526001600160a01b03851690630a992e0c90620012be90309060040162004276565b602060405180830381865afa158015620012dc573d6000803e3d6000fd5b505050506040513d601f19601f8201168201806040525081019062001302919062004a4c565b60fb54620013119190620049e3565b6200131d919062004aa4565b9050808260fb5462001330919062004ac7565b6200133c919062004ac7565b935050505090565b61010d60205281600052604060002081815481106200136257600080fd5b6000918252602090912001546001600160a01b03169150829050565b62001389826200122a565b6200139481620032f0565b620013a08383620032fc565b505050565b620013af62002f6b565b60fb8190556040518181527f5bcc2c453001fb0e2ba6266d56ecb411e7c6e15c8f9c3d301f93dd36ad25726f9060200162000d5d565b600054610100900460ff1615808015620014065750600054600160ff909116105b806200142b5750620014183062003386565b1580156200142b575060005460ff166001145b620014945760405162461bcd60e51b815260206004820152602e60248201527f496e697469616c697a61626c653a20636f6e747261637420697320616c72656160448201526d191e481a5b9a5d1a585b1a5e995960921b60648201526084015b60405180910390fd5b6000805460ff191660011790558015620014b8576000805461ff0019166101001790555b620014c38262002ce9565b620014cd62003395565b620014d7620033c9565b620014f3600080516020620058708339815191526000620033f3565b6200150285602001516200300c565b620015128561010001516200300c565b84516200151f906200300c565b6200152e8560a001516200300c565b6060850151156200154857620015488560c001516200300c565b845161010780546001600160a01b039283166001600160a01b031991821617909155602087015161010580549190931691161790556040850151600003620015a3576040516363868c5560e11b815260040160405180910390fd5b604085015160fb55606085015160fc5561014085015160ff805460ff191691151591909117905561012085015161010890620015e0908262004b6b565b5061016085015161010990620015f7908262004b6b565b5060a085015161010080546001600160a01b03199081166001600160a01b0393841617825560c088015160ff8054610100600160a81b03191691851684029190911790559087015161010680549092169281169290921790556200166c906000805160206200587083398151915290620032fc565b61010760009054906101000a90046001600160a01b03166001600160a01b0316635ab1bd536040518163ffffffff1660e01b8152600401602060405180830381865afa158015620016c1573d6000803e3d6000fd5b505050506040513d601f19601f82011682018060405250810190620016e7919062004c37565b61010480546001600160a01b0319166001600160a01b0392831617905561010654606091163b600003620017735760408051600380825260808201909252906020820160608036833701905050905033816000815181106200174d576200174d62004c57565b60200260200101906001600160a01b031690816001600160a01b031681525050620018b0565b610106546040805163a0e67e2b60e01b815290516000926001600160a01b03169163a0e67e2b91600480830192869291908290030181865afa158015620017be573d6000803e3d6000fd5b505050506040513d6000823e601f3d908101601f19168201604052620017e8919081019062004c6d565b905080516002620017fa919062004ac7565b6001600160401b03811115620018145762001814620042b2565b6040519080825280602002602001820160405280156200183e578160200160208202803683370190505b50915060005b8151811015620018ad5781818151811062001863576200186362004c57565b602002602001015183828151811062001880576200188062004c57565b6001600160a01b039092166020928302919091019091015280620018a48162004d2b565b91505062001844565b50505b6101065481516001600160a01b03909116908290620018d29060019062004d47565b81518110620018e557620018e562004c57565b60200260200101906001600160a01b031690816001600160a01b03168152505030816002835162001917919062004d47565b815181106200192a576200192a62004c57565b6001600160a01b03928316602091820292909201015261010454608088015160e0890151604051633a92f65f60e01b81529290931692633a92f65f926200197d9291610108913090889060040162004e49565b6020604051808303816000875af11580156200199d573d6000803e3d6000fd5b505050506040513d601f19601f82011682018060405250810190620019c3919062004a4c565b60fe558051620019dc9061010f906020840190620040c8565b5061010280546001600160a01b038088166001600160a01b03199283161790925561010180549287169290911691909117905560fe5460e08701516040517f2f2ffcb06f8a1d35e2716f6b43ef2c19bfa76467d8f66964ae12c2583ed032059262001a4e929091610108919062004e9d565b60405180910390a150801562001a9b576000805461ff0019169055604051600181527f7f26b83ff96e1f2b6a682f133852f6798a09c465da95921460cefb384740249890602001620010c7565b5050505050565b62001aac62003448565b33600081815261010c602052604081206101005490916001600160a01b039091169062001add6127106064620049e3565b60fc5460fb5462001aef9190620049e3565b62001afb919062004aa4565b9050600062001b0e6127106064620049e3565b6040516302a64b8360e21b81526001600160a01b03851690630a992e0c9062001b3c90309060040162004276565b602060405180830381865afa15801562001b5a573d6000803e3d6000fd5b505050506040513d601f19601f8201168201806040525081019062001b80919062004a4c565b60fb5462001b8f9190620049e3565b62001b9b919062004aa4565b905062001ba88562002a88565b62001cf25760028401805460ff1916600190811790915560fb5490850181905562001c029086903090849062001be090879062004ac7565b62001bec919062004ac7565b610105546001600160a01b0316929190620034a3565b811562001c2f5760ff546101055462001c2f916001600160a01b03918216916101009091041684620034ff565b801562001cb45762001cb4836001600160a01b031663987435be6040518163ffffffff1660e01b8152600401602060405180830381865afa15801562001c79573d6000803e3d6000fd5b505050506040513d601f19601f8201168201806040525081019062001c9f919062004c37565b610105546001600160a01b03169083620034ff565b7f67e0244e28040fec15240cd4b6c04c776a2a0278caef23b59e8ada1df31f76898560fb5460405162001ce992919062004a33565b60405180910390a15b505050505062001d026001606555565b565b6001600160a01b038116331462001d765760405162461bcd60e51b815260206004820152602f60248201527f416363657373436f6e74726f6c3a2063616e206f6e6c792072656e6f756e636560448201526e103937b632b9903337b91039b2b63360891b60648201526084016200148b565b62001d82828262003528565b5050565b6001600160a01b037f000000000000000000000000000000000000000000000000000000000000000016300362001dd15760405162461bcd60e51b81526004016200148b9062004ecc565b7f00000000000000000000000000000000000000000000000000000000000000006001600160a01b031662001e0562003592565b6001600160a01b03161462001e2e5760405162461bcd60e51b81526004016200148b9062004f07565b62001e3981620035af565b60408051600080825260208201909252620010eb91839190620035f1565b62001e6162002f6b565b62001e6c816200300c565b61010380546001600160a01b0319166001600160a01b03838116918217909255610106546040517f83eac9fdaff0ac1017624b7eddeb9782e3d707cd894073cb7e8301a41c6e5cf89362000d5d939216919062004a8a565b6001600160a01b037f000000000000000000000000000000000000000000000000000000000000000016300362001f0f5760405162461bcd60e51b81526004016200148b9062004ecc565b7f00000000000000000000000000000000000000000000000000000000000000006001600160a01b031662001f4362003592565b6001600160a01b03161462001f6c5760405162461bcd60e51b81526004016200148b9062004f07565b62001f7782620035af565b62001d8282826001620035f1565b610102546101075461010154600092839283926001600160a01b039283169263184b955960e01b928116911662001fbb620029c2565b6040516001600160a01b0393841660248201529183166044830152909116606482015260840160408051601f198184030181529181526020820180516001600160e01b03166001600160e01b031990941693909317909252905162002020906200412e565b6200202d92919062004f42565b604051809103906000f0801580156200204a573d6000803e3d6000fd5b5090506200205b8187878762002d50565b9250925050935093915050565b6000306001600160a01b037f00000000000000000000000000000000000000000000000000000000000000001614620021055760405162461bcd60e51b815260206004820152603860248201527f555550535570677261646561626c653a206d757374206e6f742062652063616c6044820152771b1959081d1a1c9bdd59da0819195b1959d85d1958d85b1b60421b60648201526084016200148b565b50600080516020620058b083398151915290565b6200212362003448565b6200212d62003769565b33600081815261010d60209081526040808320805482518185028101850190935280835291929091908301828280156200219157602002820191906000526020600020905b81546001600160a01b0316815260019091019060200180831162002172575b50505050509050600080600090505b8251811015620022cc57828181518110620021bf57620021bf62004c57565b60200260200101516001600160a01b031663782aadff85876040518363ffffffff1660e01b8152600401620021f692919062004a33565b6020604051808303816000875af115801562002216573d6000803e3d6000fd5b505050506040513d601f19601f820116820180604052508101906200223c919062004a4c565b91508115620022b7576001600160a01b038416600090815261010b60205260408120845184929086908590811062002278576200227862004c57565b60200260200101516001600160a01b03166001600160a01b031681526020019081526020016000206000828254620022b1919062004ac7565b90915550505b80620022c38162004d2b565b915050620021a0565b5061010554620022e8906001600160a01b0316843087620034a3565b6001600160a01b038316600090815261010c6020526040812060010180548692906200231690849062004ac7565b90915550506040517f576605f9bfe8911e7508bed3763c7c5c8eb3b86e8b360b90a4bc6abe1104cb7f906200234f908590879062004a33565b60405180910390a1505050620010eb6001606555565b6200236f62003448565b6200237962003769565b33600081815261010d6020908152604080832060fb5461010c9093529083206001015490929190620023ad90869062004d47565b1015620023cd57604051634e23e81760e11b815260040160405180910390fd5b61010554620023e7906001600160a01b03168486620034ff565b60005b8254811015620026975760008382815481106200240b576200240b62004c57565b6000918252602090912001546001600160a01b03169050620024358163f1801e6160e01b62003792565b15620025bb57604051632ed04b2b60e01b81526001600160a01b03821690632ed04b2b906200246b9088908a9060040162004a33565b6020604051808303816000875af11580156200248b573d6000803e3d6000fd5b505050506040513d601f19601f82011682018060405250810190620024b1919062004a4c565b9250600061010b6000876001600160a01b03166001600160a01b031681526020019081526020016000206000868581548110620024f257620024f262004c57565b60009182526020808320909101546001600160a01b0316835282019290925260400190205490508084111562002546576040516311423e6360e31b815260048101859052602481018290526044016200148b565b6001600160a01b038616600090815261010b60205260408120865486929088908790811062002579576200257962004c57565b60009182526020808320909101546001600160a01b0316835282019290925260400181208054909190620025af90849062004d47565b90915550505062002681565b83548490620025cd9060019062004d47565b81548110620025e057620025e062004c57565b9060005260206000200160009054906101000a90046001600160a01b031684838154811062002613576200261362004c57565b9060005260206000200160006101000a8154816001600160a01b0302191690836001600160a01b031602179055508380548062002654576200265462004f68565b600082815260209020810160001990810180546001600160a01b0319169055019055620026818162003034565b50806200268e8162004d2b565b915050620023ea565b506001600160a01b038316600090815261010c602052604081206001018054869290620026c690849062004d47565b90915550506040517f6ee2c70b2d6b89ae808a2313aab43e925c06624271419cd665d85cfa1ae04ff8906200234f908590879062004a33565b6200270962003448565b6200271362002f6b565b60ff80541662002736576040516365b1ee3960e11b815260040160405180910390fd5b620027418262002a88565b6200275f57604051636a5cfb6d60e01b815260040160405180910390fd5b6001600160a01b03808316600090815261010c60209081526040918290208251606081018452815490941684526001810154918401919091526002015460ff16151590820152620027b083620037ba565b6001600160a01b03808416600090815261010c60209081526040822080546001600160a01b031916815560018101929092556002909101805460ff1916905582015161010554620028059216908490620034ff565b7fb5946f249f8744efe9d14d49a483b54a589b1362944ff6694de93456cceb96a3838383602001516040516200283e9392919062004a66565b60405180910390a15062001d826001606555565b6200285c62003092565b62001d026000620038cf565b6200287262002f6b565b6101075460405163068bcd8d60e01b8152600481018390526000916001600160a01b03169063068bcd8d90602401600060405180830381865afa158015620028be573d6000803e3d6000fd5b505050506040513d6000823e601f3d908101601f19168201604052620028e8919081019062004f7e565b602001519050620028f9816200300c565b62001d828162003034565b6200290e62002f6b565b6101075460405163068bcd8d60e01b8152600481018390526000916001600160a01b03169063068bcd8d90602401600060405180830381865afa1580156200295a573d6000803e3d6000fd5b505050506040513d6000823e601f3d908101601f1916820160405262002984919081019062004f7e565b60200151905062002995816200300c565b620029b16001600160a01b03821663f1801e6160e01b62003792565b1562001d825762001d8281620030f5565b600080620029d86033546001600160a01b031690565b9050806001600160a01b03163b600003620029f257919050565b806001600160a01b0316638da5cb5b6040518163ffffffff1660e01b8152600401602060405180830381865afa92505050801562002a4f575060408051601f3d908101601f1916820190925262002a4c9181019062004c37565b60015b62000cec57919050565b5090565b600091825260c9602090815260408084206001600160a01b0393909316845291905290205460ff1690565b6001600160a01b03908116600090815261010c60209081526040918290208251606081018452815490941684526001810154918401919091526002015460ff161515910181905290565b62002adc62003092565b61010180546001600160a01b0319166001600160a01b0392909216919091179055565b610103546001600160a01b0316331462002b2c576040516375e686b760e11b815260040160405180910390fd5b62001d0262003921565b610109805462002b469062004add565b80601f016020809104026020016040519081016040528092919081815260200182805462002b749062004add565b801562002bc55780601f1062002b995761010080835404028352916020019162002bc5565b820191906000526020600020905b81548152906001019060200180831162002ba757829003601f168201915b505050505081565b62002bd762003448565b3362002be38162002fa8565b62002bee81620037ba565b6001600160a01b03808216600081815261010c602090815260408083208151606081018352815496871681526001820180548286015260028301805460ff81161515848701529787526001600160a01b03199098169092559084905560ff1990941690945561010d9052918220909162002c6991906200413c565b60208101516101055462002c8b916001600160a01b03909116908490620034ff565b7fa13f4668aacb68c4e9eed8e3f6e1cbec3eca776896ec46b5eabcc3983fc8f5f482826020015160405162002cc292919062004a33565b60405180910390a1505062001d026001606555565b62002ce6612710600a620049e3565b81565b600054610100900460ff1662002d135760405162461bcd60e51b81526004016200148b90620050b4565b620010eb81620038cf565b610108805462002b469062004add565b62002d39826200122a565b62002d4481620032f0565b620013a0838362003528565b60008073eeeeeeeeeeeeeeeeeeeeeeeeeeeeeeeeeeeeeeee6001600160a01b0386161562002d7b5750845b869150600061010f80548060200260200160405190810160405280929190818152602001828054801562002dd957602002820191906000526020600020905b81546001600160a01b0316815260019091019060200180831162002dba575b50506101075460fe546040519596506001600160a01b039091169463e1007d4a945090925087915062002e11908b9060200162005129565b6040516020818303038152906040528660008b886040518863ffffffff1660e01b815260040162002e4997969594939291906200520b565b6020604051808303816000875af115801562002e69573d6000803e3d6000fd5b505050506040513d601f19601f8201168201806040525081019062002e8f919062004a4c565b93507f778cac0ae0b66477341553a4a89398c61ccf448313d3354ad0ca85a5a825d2838484308a8960405162002eca9594939291906200527c565b60405180910390a1505094509492505050565b600062000cec600080516020620058708339815191528362002a5d565b62002f0462003092565b6001600160a01b03811662002d135760405162461bcd60e51b815260206004820152602660248201527f4f776e61626c653a206e6577206f776e657220697320746865207a65726f206160448201526564647265737360d01b60648201526084016200148b565b62002f86600080516020620058708339815191523362002a5d565b62001d02573360405163fc4be72f60e01b81526004016200148b919062004276565b62002fb38162002a88565b620010eb57604051636a5cfb6d60e01b815260040160405180910390fd5b6001600160a01b038116600090815261010a602052604090205460ff16620010eb576040516346c26e4b60e01b815260040160405180910390fd5b6001600160a01b038116620010eb576040516303988b8160e61b815260040160405180910390fd5b6200303f816200300c565b6001600160a01b038116600090815261010a602052604090819020805460ff19169055517f09a1db4b80c32706328728508c941a6b954f31eb5affd32f236c1fd405f8fea49062000d5d90839062004276565b336200309d620029c2565b6001600160a01b03161462001d025760405162461bcd60e51b815260206004820181905260248201527f4f776e61626c653a2063616c6c6572206973206e6f7420746865206f776e657260448201526064016200148b565b6001600160a01b038116600090815261010a602052604090205460ff161562003131576040516325a2934b60e21b815260040160405180910390fd5b6001600160a01b038116600090815261010a602052604090819020805460ff19166001179055517f3f008fd510eae7a9e7bee13513d7b83bef8003d488b5a3d0b0da4de71d6846f19062000d5d90839062004276565b806001600160a01b0316826001600160a01b03161462001d825760405163bbe7961160e01b815260040160405180910390fd5b6001600160a01b038216600090815261010d60205260408120905b8154811015620032ea57826001600160a01b0316828281548110620031fe57620031fe62004c57565b6000918252602090912001546001600160a01b031603620032d557815482906200322b9060019062004d47565b815481106200323e576200323e62004c57565b9060005260206000200160009054906101000a90046001600160a01b031682828154811062003271576200327162004c57565b9060005260206000200160006101000a8154816001600160a01b0302191690836001600160a01b0316021790555081805480620032b257620032b262004f68565b600082815260209020810160001990810180546001600160a01b03191690550190555b80620032e18162004d2b565b915050620031d5565b50505050565b620010eb813362003985565b62003308828262002a5d565b62001d8257600082815260c9602090815260408083206001600160a01b03851684529091529020805460ff19166001179055620033423390565b6001600160a01b0316816001600160a01b0316837f2f8788117e7eff1d82e926ec794901d17c78024a50270940304540a733656f0d60405160405180910390a45050565b6001600160a01b03163b151590565b600054610100900460ff16620033bf5760405162461bcd60e51b81526004016200148b90620050b4565b62001d02620039e9565b600054610100900460ff1662001d025760405162461bcd60e51b81526004016200148b90620050b4565b600062003400836200122a565b600084815260c96020526040808220600101859055519192508391839186917fbd79b86ffe0ab8e8776151514217cd7cacd52c909f66475c3af44e129f0b00ff9190a4505050565b6002606554036200349c5760405162461bcd60e51b815260206004820152601f60248201527f5265656e7472616e637947756172643a207265656e7472616e742063616c6c0060448201526064016200148b565b6002606555565b620032ea846323b872dd60e01b858585604051602401620034c79392919062004a66565b60408051601f198184030181529190526020810180516001600160e01b03166001600160e01b03199093169290921790915262003a13565b620013a08363a9059cbb60e01b8484604051602401620034c792919062004a33565b6001606555565b62003534828262002a5d565b1562001d8257600082815260c9602090815260408083206001600160a01b0385168085529252808320805460ff1916905551339285917ff6391f5c32d9c69d2a47ea670b442974b53935d1edc7fd64eb21e047a839171b9190a45050565b600080516020620058b0833981519152546001600160a01b031690565b33620035ba620029c2565b6001600160a01b031614620010eb5733620035d4620029c2565b60405163163678e960e01b81526004016200148b92919062004a8a565b7f4910fdfa16fed3260ed0e7147f7cc6da11a60208b5b9406d12a635614ffd91435460ff16156200362757620013a08362003aef565b826001600160a01b03166352d1902d6040518163ffffffff1660e01b8152600401602060405180830381865afa92505050801562003684575060408051601f3d908101601f19168201909252620036819181019062004a4c565b60015b620036e95760405162461bcd60e51b815260206004820152602e60248201527f45524331393637557067726164653a206e657720696d706c656d656e7461746960448201526d6f6e206973206e6f74205555505360901b60648201526084016200148b565b600080516020620058b083398151915281146200375b5760405162461bcd60e51b815260206004820152602960248201527f45524331393637557067726164653a20756e737570706f727465642070726f786044820152681a58589b195555525160ba1b60648201526084016200148b565b50620013a083838362003b8e565b620037743362002a88565b62001d0257604051636a5cfb6d60e01b815260040160405180910390fd5b60006200379f8362003bb9565b8015620037b35750620037b3838362003bf1565b9392505050565b6001600160a01b038116600090815261010d60209081526040808320805482518185028101850190935280835291929091908301828280156200382757602002820191906000526020600020905b81546001600160a01b0316815260019091019060200180831162003808575b5050505050905060005b8151811015620013a05781818151811062003850576200385062004c57565b60200260200101516001600160a01b0316636453d9c4846040518263ffffffff1660e01b815260040162003885919062004276565b600060405180830381600087803b158015620038a057600080fd5b505af1158015620038b5573d6000803e3d6000fd5b505050508080620038c69062004d2b565b91505062003831565b603380546001600160a01b038381166001600160a01b0319831681179093556040519116919082907f8be0079c531659141344cd1fd0a4f28419497f9722a3daafe3b4186f6b6457e090600090a35050565b610103805461010680546001600160a01b03199081166001600160a01b038416179091551690556040517fad0399dc40331b9a4977aa89da7a164a3fd482c65e6da73b25a94ea74fb68872906200397b9060009062004276565b60405180910390a1565b62003991828262002a5d565b62001d8257620039a18162003c7c565b620039ae83602062003c8f565b604051602001620039c1929190620052b8565b60408051601f198184030181529082905262461bcd60e51b82526200148b9160040162004939565b600054610100900460ff16620035215760405162461bcd60e51b81526004016200148b90620050b4565b600062003a6a826040518060400160405280602081526020017f5361666545524332303a206c6f772d6c6576656c2063616c6c206661696c6564815250856001600160a01b031662003e489092919063ffffffff16565b905080516000148062003a8e57508080602001905181019062003a8e91906200532b565b620013a05760405162461bcd60e51b815260206004820152602a60248201527f5361666545524332303a204552433230206f7065726174696f6e20646964206e6044820152691bdd081cdd58d8d9595960b21b60648201526084016200148b565b62003afa8162003386565b62003b5e5760405162461bcd60e51b815260206004820152602d60248201527f455243313936373a206e657720696d706c656d656e746174696f6e206973206e60448201526c1bdd08184818dbdb9d1c9858dd609a1b60648201526084016200148b565b600080516020620058b083398151915280546001600160a01b0319166001600160a01b0392909216919091179055565b62003b998362003e61565b60008251118062003ba75750805b15620013a057620032ea838362003ea3565b600062003bce826301ffc9a760e01b62003bf1565b801562000cec575062003bea826001600160e01b031962003bf1565b1592915050565b604080516001600160e01b03198316602480830191909152825180830390910181526044909101909152602080820180516001600160e01b03166301ffc9a760e01b178152825160009392849283928392918391908a617530fa92503d9150600051905082801562003c64575060208210155b801562003c715750600081115b979650505050505050565b606062000cec6001600160a01b03831660145b6060600062003ca0836002620049e3565b62003cad90600262004ac7565b6001600160401b0381111562003cc75762003cc7620042b2565b6040519080825280601f01601f19166020018201604052801562003cf2576020820181803683370190505b509050600360fc1b8160008151811062003d105762003d1062004c57565b60200101906001600160f81b031916908160001a905350600f60fb1b8160018151811062003d425762003d4262004c57565b60200101906001600160f81b031916908160001a905350600062003d68846002620049e3565b62003d7590600162004ac7565b90505b600181111562003df7576f181899199a1a9b1b9c1cb0b131b232b360811b85600f166010811062003dad5762003dad62004c57565b1a60f81b82828151811062003dc65762003dc662004c57565b60200101906001600160f81b031916908160001a90535060049490941c9362003def816200534b565b905062003d78565b508315620037b35760405162461bcd60e51b815260206004820181905260248201527f537472696e67733a20686578206c656e67746820696e73756666696369656e7460448201526064016200148b565b606062003e59848460008562003ecb565b949350505050565b62003e6c8162003aef565b6040516001600160a01b038216907fbc7cd75a20ee27fd9adebab32041f755214dbc6bffa90cc0225b39da2e5c2d3b90600090a250565b6060620037b38383604051806060016040528060278152602001620058d06027913962003fa3565b60608247101562003f2e5760405162461bcd60e51b815260206004820152602660248201527f416464726573733a20696e73756666696369656e742062616c616e636520666f6044820152651c8818d85b1b60d21b60648201526084016200148b565b600080866001600160a01b0316858760405162003f4c919062005365565b60006040518083038185875af1925050503d806000811462003f8b576040519150601f19603f3d011682016040523d82523d6000602084013e62003f90565b606091505b509150915062003c718783838762004021565b6060600080856001600160a01b03168560405162003fc2919062005365565b600060405180830381855af49150503d806000811462003fff576040519150601f19603f3d011682016040523d82523d6000602084013e62004004565b606091505b5091509150620040178683838762004021565b9695505050505050565b60608315620040955782516000036200408d576200403f8562003386565b6200408d5760405162461bcd60e51b815260206004820152601d60248201527f416464726573733a2063616c6c20746f206e6f6e2d636f6e747261637400000060448201526064016200148b565b508162003e59565b62003e598383815115620040ac5781518083602001fd5b8060405162461bcd60e51b81526004016200148b919062004939565b82805482825590600052602060002090810192821562004120579160200282015b828111156200412057825182546001600160a01b0319166001600160a01b03909116178255602090920191600190910190620040e9565b5062002a5992915062004157565b6104ec806200538483390190565b5080546000825590600052602060002090810190620010eb91905b5b8082111562002a59576000815560010162004158565b6000602082840312156200418157600080fd5b81356001600160e01b031981168114620037b357600080fd5b600060208284031215620041ad57600080fd5b5035919050565b6001600160a01b0381168114620010eb57600080fd5b8035620041d781620041b4565b919050565b60008060408385031215620041f057600080fd5b8235620041fd81620041b4565b915060208301356200420f81620041b4565b809150509250929050565b6000602082840312156200422d57600080fd5b8135620037b381620041b4565b600080604083850312156200424e57600080fd5b82356200425b81620041b4565b946020939093013593505050565b6001600160a01b03169052565b6001600160a01b0391909116815260200190565b600080604083850312156200429e57600080fd5b8235915060208301356200420f81620041b4565b634e487b7160e01b600052604160045260246000fd5b604080519081016001600160401b0381118282101715620042ed57620042ed620042b2565b60405290565b60405161018081016001600160401b0381118282101715620042ed57620042ed620042b2565b60405160c081016001600160401b0381118282101715620042ed57620042ed620042b2565b60405160e081016001600160401b0381118282101715620042ed57620042ed620042b2565b604051608081016001600160401b0381118282101715620042ed57620042ed620042b2565b604051601f8201601f191681016001600160401b0381118282101715620043b357620043b3620042b2565b604052919050565b60006001600160401b03821115620043d757620043d7620042b2565b50601f01601f191660200190565b6000620043fc620043f684620043bb565b62004388565b90508281528383830111156200441157600080fd5b828260208301376000602084830101529392505050565b600082601f8301126200443a57600080fd5b620037b383833560208501620043e5565b6000604082840312156200445e57600080fd5b62004468620042c8565b82358152905060208201356001600160401b038111156200448857600080fd5b620044968482850162004428565b60208301525092915050565b8015158114620010eb57600080fd5b8035620041d781620044a2565b60008060008060808587031215620044d557600080fd5b84356001600160401b0380821115620044ed57600080fd5b9086019061018082890312156200450357600080fd5b6200450d620042f3565b6200451883620041ca565b81526200452860208401620041ca565b60208201526040830135604082015260608301356060820152608083013560808201526200455960a08401620041ca565b60a08201526200456c60c08401620041ca565b60c082015260e0830135828111156200458457600080fd5b620045928a8286016200444b565b60e083015250610100620045a8818501620041ca565b908201526101208381013583811115620045c157600080fd5b620045cf8b82870162004428565b828401525050610140620045e5818501620044b1565b908201526101608381013583811115620045fe57600080fd5b6200460c8b82870162004428565b8284015250508096505050506200462660208601620041ca565b92506200463660408601620041ca565b91506200464660608601620041ca565b905092959194509250565b600080604083850312156200466557600080fd5b82356200467281620041b4565b915060208301356001600160401b038111156200468e57600080fd5b8301601f81018513620046a057600080fd5b620046b185823560208401620043e5565b9150509250929050565b803560038110620041d757600080fd5b60048110620010eb57600080fd5b8035620041d781620046cb565b600060208284031215620046f957600080fd5b604051602081016001600160401b03811182821017156200471e576200471e620042b2565b6040529135825250919050565b600060c082840312156200473e57600080fd5b6200474862004319565b905081356200475781620041b4565b815260208201356200476981620041b4565b8060208301525060408201356040820152606082013560608201526080820135608082015260a082013560a082015292915050565b60008183036101e0811215620047b357600080fd5b620047bd6200433e565b91506080811215620047ce57600080fd5b50620047d962004363565b82358152602083013560208201526040830135604082015260608301356060820152808252506200480d60808301620046bb565b60208201526200482060a08301620046d9565b6040820152620048348360c08401620046e6565b6060820152620048488360e084016200472b565b60808201526200485c6101a08301620041ca565b60a0820152620048706101c08301620041ca565b60c082015292915050565b600080600061022084860312156200489257600080fd5b83356200489f81620041b4565b9250620048b085602086016200479e565b91506102008401356001600160401b03811115620048cd57600080fd5b620048db868287016200444b565b9150509250925092565b60005b8381101562004902578181015183820152602001620048e8565b50506000910152565b6000815180845262004925816020860160208601620048e5565b601f01601f19169290920160200192915050565b602081526000620037b360208301846200490b565b60008060008061024085870312156200496657600080fd5b84356200497381620041b4565b935060208501356200498581620041b4565b92506200499686604087016200479e565b91506102208501356001600160401b03811115620049b357600080fd5b620049c1878288016200444b565b91505092959194509250565b634e487b7160e01b600052601160045260246000fd5b808202811582820484141762000cec5762000cec620049cd565b634e487b7160e01b600052602160045260246000fd5b60006020828403121562004a2657600080fd5b8151620037b381620046cb565b6001600160a01b03929092168252602082015260400190565b60006020828403121562004a5f57600080fd5b5051919050565b6001600160a01b039384168152919092166020820152604081019190915260600190565b6001600160a01b0392831681529116602082015260400190565b60008262004ac257634e487b7160e01b600052601260045260246000fd5b500490565b8082018082111562000cec5762000cec620049cd565b600181811c9082168062004af257607f821691505b60208210810362004b1357634e487b7160e01b600052602260045260246000fd5b50919050565b601f821115620013a057600081815260208120601f850160051c8101602086101562004b425750805b601f850160051c820191505b8181101562004b635782815560010162004b4e565b505050505050565b81516001600160401b0381111562004b875762004b87620042b2565b62004b9f8162004b98845462004add565b8462004b19565b602080601f83116001811462004bd7576000841562004bbe5750858301515b600019600386901b1c1916600185901b17855562004b63565b600085815260208120601f198616915b8281101562004c085788860151825594840194600190910190840162004be7565b508582101562004c275787850151600019600388901b60f8161c191681555b5050505050600190811b01905550565b60006020828403121562004c4a57600080fd5b8151620037b381620041b4565b634e487b7160e01b600052603260045260246000fd5b6000602080838503121562004c8157600080fd5b82516001600160401b038082111562004c9957600080fd5b818501915085601f83011262004cae57600080fd5b81518181111562004cc35762004cc3620042b2565b8060051b915062004cd684830162004388565b818152918301840191848101908884111562004cf157600080fd5b938501935b8385101562004d1f578451925062004d0e83620041b4565b828252938501939085019062004cf6565b98975050505050505050565b60006001820162004d405762004d40620049cd565b5060010190565b8181038181111562000cec5762000cec620049cd565b6000815462004d6c8162004add565b80855260206001838116801562004d8c576001811462004da75762004dd7565b60ff1985168884015283151560051b88018301955062004dd7565b866000528260002060005b8581101562004dcf5781548a820186015290830190840162004db2565b890184019650505b505050505092915050565b80518252600060208201516040602085015262003e5960408501826200490b565b600081518084526020808501945080840160005b8381101562004e3e5781516001600160a01b03168752958201959082019060010162004e17565b509495945050505050565b85815260a06020820152600062004e6460a083018762004d5d565b828103604084015262004e78818762004de2565b6001600160a01b03861660608501528381036080850152905062004d1f818562004e03565b83815260606020820152600062004eb8606083018562004d5d565b828103604084015262004017818562004de2565b6020808252602c908201526000805160206200589083398151915260408201526b19195b1959d85d1958d85b1b60a21b606082015260800190565b6020808252602c908201526000805160206200589083398151915260408201526b6163746976652070726f787960a01b606082015260800190565b6001600160a01b038316815260406020820181905260009062003e59908301846200490b565b634e487b7160e01b600052603160045260246000fd5b6000602080838503121562004f9257600080fd5b82516001600160401b038082111562004faa57600080fd5b9084019060c0828703121562004fbf57600080fd5b62004fc962004319565b825181528383015162004fdc81620041b4565b81850152604083015162004ff081620041b4565b60408201526060830151828111156200500857600080fd5b8301604081890312156200501b57600080fd5b62005025620042c8565b8151815285820151848111156200503b57600080fd5b82019350601f840189136200504f57600080fd5b8351915062005062620043f683620043bb565b82815289878487010111156200507757600080fd5b6200508883888301898801620048e5565b95810195909552506060810193909352506080818101519083015260a090810151908201529392505050565b6020808252602b908201527f496e697469616c697a61626c653a20636f6e7472616374206973206e6f74206960408201526a6e697469616c697a696e6760a81b606082015260800190565b60038110620051125762005112620049fd565b9052565b60048110620051125762005112620049fd565b60006101e0820190508251805183526020810151602084015260408101516040840152606081015160608401525060208301516200516b6080840182620050ff565b5060408301516200518060a084018262005116565b506060838101515160c084015260808085015180516001600160a01b0390811660e087015260208201511661010086015260408101516101208601529182015161014085015281015161016084015260a090810151610180840152830151620051ee6101a084018262004269565b5060c0830151620052046101c084018262004269565b5092915050565b878152600060018060a01b03808916602084015260e060408401526200523560e08401896200490b565b818816606085015286608085015283810360a085015262005257818762004de2565b91505082810360c08401526200526e818562004e03565b9a9950505050505050505050565b8581526001600160a01b03858116602083015284811660408301528316606082015260a06080820181905260009062003c719083018462004de2565b76020b1b1b2b9b9a1b7b73a3937b61d1030b1b1b7bab73a1604d1b815260008351620052ec816017850160208801620048e5565b7001034b99036b4b9b9b4b733903937b6329607d1b60179184019182015283516200531f816028840160208801620048e5565b01602801949350505050565b6000602082840312156200533e57600080fd5b8151620037b381620044a2565b6000816200535d576200535d620049cd565b506000190190565b6000825162005379818460208701620048e5565b919091019291505056fe60806040526040516104ec3803806104ec833981016040819052610022916102e9565b61002e82826000610035565b5050610406565b61003e83610061565b60008251118061004b5750805b1561005c5761005a83836100a1565b505b505050565b61006a816100cd565b6040516001600160a01b038216907fbc7cd75a20ee27fd9adebab32041f755214dbc6bffa90cc0225b39da2e5c2d3b90600090a250565b60606100c683836040518060600160405280602781526020016104c56027913961017e565b9392505050565b6100d6816101f7565b61013d5760405162461bcd60e51b815260206004820152602d60248201527f455243313936373a206e657720696d706c656d656e746174696f6e206973206e60448201526c1bdd08184818dbdb9d1c9858dd609a1b60648201526084015b60405180910390fd5b7f360894a13ba1a3210667c828492db98dca3e2076cc3735a920a3ca505d382bbc80546001600160a01b0319166001600160a01b0392909216919091179055565b6060600080856001600160a01b03168560405161019b91906103b7565b600060405180830381855af49150503d80600081146101d6576040519150601f19603f3d011682016040523d82523d6000602084013e6101db565b606091505b5090925090506101ed86838387610206565b9695505050505050565b6001600160a01b03163b151590565b6060831561027357825160000361026c57610220856101f7565b61026c5760405162461bcd60e51b815260206004820152601d60248201527f416464726573733a2063616c6c20746f206e6f6e2d636f6e74726163740000006044820152606401610134565b508161027d565b61027d8383610285565b949350505050565b8151156102955781518083602001fd5b8060405162461bcd60e51b815260040161013491906103d3565b634e487b7160e01b600052604160045260246000fd5b60005b838110156102e05781810151838201526020016102c8565b50506000910152565b600080604083850312156102fc57600080fd5b82516001600160a01b038116811461031357600080fd5b60208401519092506001600160401b038082111561033057600080fd5b818501915085601f83011261034457600080fd5b815181811115610356576103566102af565b604051601f8201601f19908116603f0116810190838211818310171561037e5761037e6102af565b8160405282815288602084870101111561039757600080fd5b6103a88360208301602088016102c5565b80955050505050509250929050565b600082516103c98184602087016102c5565b9190910192915050565b60208152600082518060208401526103f28160408501602087016102c5565b601f01601f19169190910160400192915050565b60b1806104146000396000f3fe608060405236601057600e6013565b005b600e5b601f601b6021565b6058565b565b600060537f360894a13ba1a3210667c828492db98dca3e2076cc3735a920a3ca505d382bbc546001600160a01b031690565b905090565b3660008037600080366000845af43d6000803e8080156076573d6000f35b3d6000fdfea264697066735822122039ff772d87b25e9afa50cfc125b6f5f8b542aeb23868644834e3119a8946075664736f6c63430008130033416464726573733a206c6f772d6c6576656c2064656c65676174652063616c6c206661696c656403be538b6391ddcd7f2649585cc95b120c9e2a613f70714fbb55345057d809fa46756e6374696f6e206d7573742062652063616c6c6564207468726f75676820360894a13ba1a3210667c828492db98dca3e2076cc3735a920a3ca505d382bbc416464726573733a206c6f772d6c6576656c2064656c65676174652063616c6c206661696c6564a2646970667358221220afe8d704115789af403c87f4a3e3d50d5f9b8bdd2b0626944e92bfae30c7e24a64736f6c63430008130033","linkReferences":{}},"methodIdentifiers":{"COUNCIL_MEMBER()":"733a2d1f","DEFAULT_ADMIN_ROLE()":"a217fddf","MAX_FEE()":"bc063e1a","NATIVE()":"a0cf0aea","PRECISION_SCALE()":"d7050f07","acceptCouncilSafe()":"b5058c50","activateMemberInStrategy(address,address)":"0d4a8b49","addStrategy(address)":"223e5479","addStrategyByPoolId(uint256)":"82d6a1e7","addressToMemberInfo(address)":"88cfe684","allo()":"d6d8428d","cloneNonce()":"33960459","collateralVaultTemplate()":"77122d56","communityFee()":"8961be6b","communityName()":"c6d572ae","councilSafe()":"6c53db9a","covenantIpfsHash()":"b64e39af","createPool(address,((uint256,uint256,uint256,uint256),uint8,uint8,(uint256),(address,address,uint256,uint256,uint256,uint256),address,address),(uint256,string))":"524e59e8","createPool(address,address,((uint256,uint256,uint256,uint256),uint8,uint8,(uint256),(address,address,uint256,uint256,uint256,uint256),address,address),(uint256,string))":"e16d0e32","deactivateMemberInStrategy(address,address)":"22bcf999","decreasePower(uint256)":"5ecf71c5","enabledStrategies(address)":"3a871fe1","feeReceiver()":"b3f00674","gardenToken()":"db61d65c","getBasisStakedAmount()":"0331383c","getMemberPowerInStrategy(address,address)":"7817ee4f","getMemberStakedAmount(address)":"2c611c4a","getRoleAdmin(bytes32)":"248a9ca3","getStakeAmountWithFees()":"28c309e9","grantRole(bytes32,address)":"2f2ff15d","hasRole(bytes32,address)":"91d14854","increasePower(uint256)":"559de05d","initialize((address,address,uint256,uint256,uint256,address,address,(uint256,string),address,string,bool,string),address,address,address)":"34196355","initialize(address)":"c4d66de8","isCouncilMember(address)":"ebd7dc52","isKickEnabled()":"1f787d28","isMember(address)":"a230c524","kickMember(address,address)":"6871eb4d","memberActivatedInStrategies(address,address)":"477a5cc0","memberPowerInStrategy(address,address)":"65e3864c","owner()":"8da5cb5b","pendingCouncilSafe()":"68decabb","profileId()":"08386eba","proxiableUUID()":"52d1902d","registerStakeAmount()":"78a0b8a9","registry()":"7b103999","registryFactory()":"f86c5f89","removeStrategy(address)":"175188e8","removeStrategyByPoolId(uint256)":"73265c37","renounceOwnership()":"715018a6","renounceRole(bytes32,address)":"36568abe","revokeRole(bytes32,address)":"d547741f","setBasisStakedAmount(uint256)":"31f61bca","setCollateralVaultTemplate(address)":"b0d3713a","setCommunityFee(uint256)":"0d12bbdb","setCouncilSafe(address)":"397e2543","setStrategyTemplate(address)":"1b71f0e4","stakeAndRegisterMember()":"3517aa7d","strategiesByMember(address,uint256)":"2b38c69c","strategyTemplate()":"5c94e4d2","supportsInterface(bytes4)":"01ffc9a7","transferOwnership(address)":"f2fde38b","unregisterMember()":"b99b4370","upgradeTo(address)":"3659cfe6","upgradeToAndCall(address,bytes)":"4f1ef286"},"storageLayout":{"storage":[{"astId":52990,"contract":"pkg/contracts/src/RegistryCommunity/RegistryCommunityV0_0.sol:RegistryCommunityV0_0","label":"_initialized","offset":0,"slot":"0","type":"t_uint8"},{"astId":52993,"contract":"pkg/contracts/src/RegistryCommunity/RegistryCommunityV0_0.sol:RegistryCommunityV0_0","label":"_initializing","offset":1,"slot":"0","type":"t_bool"},{"astId":53695,"contract":"pkg/contracts/src/RegistryCommunity/RegistryCommunityV0_0.sol:RegistryCommunityV0_0","label":"__gap","offset":0,"slot":"1","type":"t_array(t_uint256)50_storage"},{"astId":52782,"contract":"pkg/contracts/src/RegistryCommunity/RegistryCommunityV0_0.sol:RegistryCommunityV0_0","label":"_owner","offset":0,"slot":"51","type":"t_address"},{"astId":52902,"contract":"pkg/contracts/src/RegistryCommunity/RegistryCommunityV0_0.sol:RegistryCommunityV0_0","label":"__gap","offset":0,"slot":"52","type":"t_array(t_uint256)49_storage"},{"astId":53167,"contract":"pkg/contracts/src/RegistryCommunity/RegistryCommunityV0_0.sol:RegistryCommunityV0_0","label":"_status","offset":0,"slot":"101","type":"t_uint256"},{"astId":53236,"contract":"pkg/contracts/src/RegistryCommunity/RegistryCommunityV0_0.sol:RegistryCommunityV0_0","label":"__gap","offset":0,"slot":"102","type":"t_array(t_uint256)49_storage"},{"astId":53969,"contract":"pkg/contracts/src/RegistryCommunity/RegistryCommunityV0_0.sol:RegistryCommunityV0_0","label":"__gap","offset":0,"slot":"151","type":"t_array(t_uint256)50_storage"},{"astId":52389,"contract":"pkg/contracts/src/RegistryCommunity/RegistryCommunityV0_0.sol:RegistryCommunityV0_0","label":"_roles","offset":0,"slot":"201","type":"t_mapping(t_bytes32,t_struct(RoleData)52384_storage)"},{"astId":52696,"contract":"pkg/contracts/src/RegistryCommunity/RegistryCommunityV0_0.sol:RegistryCommunityV0_0","label":"__gap","offset":0,"slot":"202","type":"t_array(t_uint256)49_storage"},{"astId":70434,"contract":"pkg/contracts/src/RegistryCommunity/RegistryCommunityV0_0.sol:RegistryCommunityV0_0","label":"registerStakeAmount","offset":0,"slot":"251","type":"t_uint256"},{"astId":70437,"contract":"pkg/contracts/src/RegistryCommunity/RegistryCommunityV0_0.sol:RegistryCommunityV0_0","label":"communityFee","offset":0,"slot":"252","type":"t_uint256"},{"astId":70440,"contract":"pkg/contracts/src/RegistryCommunity/RegistryCommunityV0_0.sol:RegistryCommunityV0_0","label":"cloneNonce","offset":0,"slot":"253","type":"t_uint256"},{"astId":70443,"contract":"pkg/contracts/src/RegistryCommunity/RegistryCommunityV0_0.sol:RegistryCommunityV0_0","label":"profileId","offset":0,"slot":"254","type":"t_bytes32"},{"astId":70446,"contract":"pkg/contracts/src/RegistryCommunity/RegistryCommunityV0_0.sol:RegistryCommunityV0_0","label":"isKickEnabled","offset":0,"slot":"255","type":"t_bool"},{"astId":70449,"contract":"pkg/contracts/src/RegistryCommunity/RegistryCommunityV0_0.sol:RegistryCommunityV0_0","label":"feeReceiver","offset":1,"slot":"255","type":"t_address"},{"astId":70452,"contract":"pkg/contracts/src/RegistryCommunity/RegistryCommunityV0_0.sol:RegistryCommunityV0_0","label":"registryFactory","offset":0,"slot":"256","type":"t_address"},{"astId":70455,"contract":"pkg/contracts/src/RegistryCommunity/RegistryCommunityV0_0.sol:RegistryCommunityV0_0","label":"collateralVaultTemplate","offset":0,"slot":"257","type":"t_address"},{"astId":70458,"contract":"pkg/contracts/src/RegistryCommunity/RegistryCommunityV0_0.sol:RegistryCommunityV0_0","label":"strategyTemplate","offset":0,"slot":"258","type":"t_address"},{"astId":70461,"contract":"pkg/contracts/src/RegistryCommunity/RegistryCommunityV0_0.sol:RegistryCommunityV0_0","label":"pendingCouncilSafe","offset":0,"slot":"259","type":"t_address_payable"},{"astId":70465,"contract":"pkg/contracts/src/RegistryCommunity/RegistryCommunityV0_0.sol:RegistryCommunityV0_0","label":"registry","offset":0,"slot":"260","type":"t_contract(IRegistry)2802"},{"astId":70469,"contract":"pkg/contracts/src/RegistryCommunity/RegistryCommunityV0_0.sol:RegistryCommunityV0_0","label":"gardenToken","offset":0,"slot":"261","type":"t_contract(IERC20)56528"},{"astId":70473,"contract":"pkg/contracts/src/RegistryCommunity/RegistryCommunityV0_0.sol:RegistryCommunityV0_0","label":"councilSafe","offset":0,"slot":"262","type":"t_contract(ISafe)73240"},{"astId":70477,"contract":"pkg/contracts/src/RegistryCommunity/RegistryCommunityV0_0.sol:RegistryCommunityV0_0","label":"allo","offset":0,"slot":"263","type":"t_contract(FAllo)72973"},{"astId":70480,"contract":"pkg/contracts/src/RegistryCommunity/RegistryCommunityV0_0.sol:RegistryCommunityV0_0","label":"communityName","offset":0,"slot":"264","type":"t_string_storage"},{"astId":70483,"contract":"pkg/contracts/src/RegistryCommunity/RegistryCommunityV0_0.sol:RegistryCommunityV0_0","label":"covenantIpfsHash","offset":0,"slot":"265","type":"t_string_storage"},{"astId":70488,"contract":"pkg/contracts/src/RegistryCommunity/RegistryCommunityV0_0.sol:RegistryCommunityV0_0","label":"enabledStrategies","offset":0,"slot":"266","type":"t_mapping(t_address,t_bool)"},{"astId":70495,"contract":"pkg/contracts/src/RegistryCommunity/RegistryCommunityV0_0.sol:RegistryCommunityV0_0","label":"memberPowerInStrategy","offset":0,"slot":"267","type":"t_mapping(t_address,t_mapping(t_address,t_uint256))"},{"astId":70501,"contract":"pkg/contracts/src/RegistryCommunity/RegistryCommunityV0_0.sol:RegistryCommunityV0_0","label":"addressToMemberInfo","offset":0,"slot":"268","type":"t_mapping(t_address,t_struct(Member)70642_storage)"},{"astId":70507,"contract":"pkg/contracts/src/RegistryCommunity/RegistryCommunityV0_0.sol:RegistryCommunityV0_0","label":"strategiesByMember","offset":0,"slot":"269","type":"t_mapping(t_address,t_array(t_address)dyn_storage)"},{"astId":70514,"contract":"pkg/contracts/src/RegistryCommunity/RegistryCommunityV0_0.sol:RegistryCommunityV0_0","label":"memberActivatedInStrategies","offset":0,"slot":"270","type":"t_mapping(t_address,t_mapping(t_address,t_bool))"},{"astId":70518,"contract":"pkg/contracts/src/RegistryCommunity/RegistryCommunityV0_0.sol:RegistryCommunityV0_0","label":"initialMembers","offset":0,"slot":"271","type":"t_array(t_address)dyn_storage"},{"astId":72159,"contract":"pkg/contracts/src/RegistryCommunity/RegistryCommunityV0_0.sol:RegistryCommunityV0_0","label":"__gap","offset":0,"slot":"272","type":"t_array(t_uint256)50_storage"}],"types":{"t_address":{"encoding":"inplace","label":"address","numberOfBytes":"20"},"t_address_payable":{"encoding":"inplace","label":"address payable","numberOfBytes":"20"},"t_array(t_address)dyn_storage":{"encoding":"dynamic_array","label":"address[]","numberOfBytes":"32","base":"t_address"},"t_array(t_uint256)49_storage":{"encoding":"inplace","label":"uint256[49]","numberOfBytes":"1568","base":"t_uint256"},"t_array(t_uint256)50_storage":{"encoding":"inplace","label":"uint256[50]","numberOfBytes":"1600","base":"t_uint256"},"t_bool":{"encoding":"inplace","label":"bool","numberOfBytes":"1"},"t_bytes32":{"encoding":"inplace","label":"bytes32","numberOfBytes":"32"},"t_contract(FAllo)72973":{"encoding":"inplace","label":"contract FAllo","numberOfBytes":"20"},"t_contract(IERC20)56528":{"encoding":"inplace","label":"contract IERC20","numberOfBytes":"20"},"t_contract(IRegistry)2802":{"encoding":"inplace","label":"contract IRegistry","numberOfBytes":"20"},"t_contract(ISafe)73240":{"encoding":"inplace","label":"contract ISafe","numberOfBytes":"20"},"t_mapping(t_address,t_array(t_address)dyn_storage)":{"encoding":"mapping","key":"t_address","label":"mapping(address => address[])","numberOfBytes":"32","value":"t_array(t_address)dyn_storage"},"t_mapping(t_address,t_bool)":{"encoding":"mapping","key":"t_address","label":"mapping(address => bool)","numberOfBytes":"32","value":"t_bool"},"t_mapping(t_address,t_mapping(t_address,t_bool))":{"encoding":"mapping","key":"t_address","label":"mapping(address => mapping(address => bool))","numberOfBytes":"32","value":"t_mapping(t_address,t_bool)"},"t_mapping(t_address,t_mapping(t_address,t_uint256))":{"encoding":"mapping","key":"t_address","label":"mapping(address => mapping(address => uint256))","numberOfBytes":"32","value":"t_mapping(t_address,t_uint256)"},"t_mapping(t_address,t_struct(Member)70642_storage)":{"encoding":"mapping","key":"t_address","label":"mapping(address => struct RegistryCommunityV0_0.Member)","numberOfBytes":"32","value":"t_struct(Member)70642_storage"},"t_mapping(t_address,t_uint256)":{"encoding":"mapping","key":"t_address","label":"mapping(address => uint256)","numberOfBytes":"32","value":"t_uint256"},"t_mapping(t_bytes32,t_struct(RoleData)52384_storage)":{"encoding":"mapping","key":"t_bytes32","label":"mapping(bytes32 => struct AccessControlUpgradeable.RoleData)","numberOfBytes":"32","value":"t_struct(RoleData)52384_storage"},"t_string_storage":{"encoding":"bytes","label":"string","numberOfBytes":"32"},"t_struct(Member)70642_storage":{"encoding":"inplace","label":"struct RegistryCommunityV0_0.Member","numberOfBytes":"96","members":[{"astId":70637,"contract":"pkg/contracts/src/RegistryCommunity/RegistryCommunityV0_0.sol:RegistryCommunityV0_0","label":"member","offset":0,"slot":"0","type":"t_address"},{"astId":70639,"contract":"pkg/contracts/src/RegistryCommunity/RegistryCommunityV0_0.sol:RegistryCommunityV0_0","label":"stakedAmount","offset":0,"slot":"1","type":"t_uint256"},{"astId":70641,"contract":"pkg/contracts/src/RegistryCommunity/RegistryCommunityV0_0.sol:RegistryCommunityV0_0","label":"isRegistered","offset":0,"slot":"2","type":"t_bool"}]},"t_struct(RoleData)52384_storage":{"encoding":"inplace","label":"struct AccessControlUpgradeable.RoleData","numberOfBytes":"64","members":[{"astId":52381,"contract":"pkg/contracts/src/RegistryCommunity/RegistryCommunityV0_0.sol:RegistryCommunityV0_0","label":"members","offset":0,"slot":"0","type":"t_mapping(t_address,t_bool)"},{"astId":52383,"contract":"pkg/contracts/src/RegistryCommunity/RegistryCommunityV0_0.sol:RegistryCommunityV0_0","label":"adminRole","offset":0,"slot":"1","type":"t_bytes32"}]},"t_uint256":{"encoding":"inplace","label":"uint256","numberOfBytes":"32"},"t_uint8":{"encoding":"inplace","label":"uint8","numberOfBytes":"1"}}},"id":106}