{"abi":[{"type":"function","name":"COUNCIL_MEMBER","inputs":[],"outputs":[{"name":"","type":"bytes32","internalType":"bytes32"}],"stateMutability":"view"},{"type":"function","name":"DEFAULT_ADMIN_ROLE","inputs":[],"outputs":[{"name":"","type":"bytes32","internalType":"bytes32"}],"stateMutability":"view"},{"type":"function","name":"MAX_FEE","inputs":[],"outputs":[{"name":"","type":"uint256","internalType":"uint256"}],"stateMutability":"view"},{"type":"function","name":"NATIVE","inputs":[],"outputs":[{"name":"","type":"address","internalType":"address"}],"stateMutability":"view"},{"type":"function","name":"PRECISION_SCALE","inputs":[],"outputs":[{"name":"","type":"uint256","internalType":"uint256"}],"stateMutability":"view"},{"type":"function","name":"VERSION","inputs":[],"outputs":[{"name":"","type":"string","internalType":"string"}],"stateMutability":"view"},{"type":"function","name":"acceptCouncilSafe","inputs":[],"outputs":[],"stateMutability":"nonpayable"},{"type":"function","name":"activateMemberInStrategy","inputs":[{"name":"_member","type":"address","internalType":"address"},{"name":"_strategy","type":"address","internalType":"address"}],"outputs":[],"stateMutability":"nonpayable"},{"type":"function","name":"addStrategy","inputs":[{"name":"_newStrategy","type":"address","internalType":"address"}],"outputs":[],"stateMutability":"nonpayable"},{"type":"function","name":"addStrategyByPoolId","inputs":[{"name":"poolId","type":"uint256","internalType":"uint256"}],"outputs":[],"stateMutability":"nonpayable"},{"type":"function","name":"addressToMemberInfo","inputs":[{"name":"member","type":"address","internalType":"address"}],"outputs":[{"name":"member","type":"address","internalType":"address"},{"name":"stakedAmount","type":"uint256","internalType":"uint256"},{"name":"isRegistered","type":"bool","internalType":"bool"}],"stateMutability":"view"},{"type":"function","name":"allo","inputs":[],"outputs":[{"name":"","type":"address","internalType":"contract FAllo"}],"stateMutability":"view"},{"type":"function","name":"cloneNonce","inputs":[],"outputs":[{"name":"","type":"uint256","internalType":"uint256"}],"stateMutability":"view"},{"type":"function","name":"collateralVaultTemplate","inputs":[],"outputs":[{"name":"","type":"address","internalType":"address"}],"stateMutability":"view"},{"type":"function","name":"communityFee","inputs":[],"outputs":[{"name":"","type":"uint256","internalType":"uint256"}],"stateMutability":"view"},{"type":"function","name":"communityName","inputs":[],"outputs":[{"name":"","type":"string","internalType":"string"}],"stateMutability":"view"},{"type":"function","name":"councilSafe","inputs":[],"outputs":[{"name":"","type":"address","internalType":"contract ISafe"}],"stateMutability":"view"},{"type":"function","name":"covenantIpfsHash","inputs":[],"outputs":[{"name":"","type":"string","internalType":"string"}],"stateMutability":"view"},{"type":"function","name":"createPool","inputs":[{"name":"_token","type":"address","internalType":"address"},{"name":"_params","type":"tuple","internalType":"struct CVStrategyInitializeParamsV0_1","components":[{"name":"cvParams","type":"tuple","internalType":"struct CVParams","components":[{"name":"maxRatio","type":"uint256","internalType":"uint256"},{"name":"weight","type":"uint256","internalType":"uint256"},{"name":"decay","type":"uint256","internalType":"uint256"},{"name":"minThresholdPoints","type":"uint256","internalType":"uint256"}]},{"name":"proposalType","type":"uint8","internalType":"enum ProposalType"},{"name":"pointSystem","type":"uint8","internalType":"enum PointSystem"},{"name":"pointConfig","type":"tuple","internalType":"struct PointSystemConfig","components":[{"name":"maxAmount","type":"uint256","internalType":"uint256"}]},{"name":"arbitrableConfig","type":"tuple","internalType":"struct ArbitrableConfig","components":[{"name":"arbitrator","type":"address","internalType":"contract IArbitrator"},{"name":"tribunalSafe","type":"address","internalType":"address"},{"name":"submitterCollateralAmount","type":"uint256","internalType":"uint256"},{"name":"challengerCollateralAmount","type":"uint256","internalType":"uint256"},{"name":"defaultRuling","type":"uint256","internalType":"uint256"},{"name":"defaultRulingTimeout","type":"uint256","internalType":"uint256"}]},{"name":"registryCommunity","type":"address","internalType":"address"},{"name":"sybilScorer","type":"address","internalType":"address"},{"name":"sybilScorerThreshold","type":"uint256","internalType":"uint256"},{"name":"initialAllowlist","type":"address[]","internalType":"address[]"}]},{"name":"_metadata","type":"tuple","internalType":"struct Metadata","components":[{"name":"protocol","type":"uint256","internalType":"uint256"},{"name":"pointer","type":"string","internalType":"string"}]}],"outputs":[{"name":"poolId","type":"uint256","internalType":"uint256"},{"name":"strategy","type":"address","internalType":"address"}],"stateMutability":"nonpayable"},{"type":"function","name":"createPool","inputs":[{"name":"_strategy","type":"address","internalType":"address"},{"name":"_token","type":"address","internalType":"address"},{"name":"_params","type":"tuple","internalType":"struct CVStrategyInitializeParamsV0_1","components":[{"name":"cvParams","type":"tuple","internalType":"struct CVParams","components":[{"name":"maxRatio","type":"uint256","internalType":"uint256"},{"name":"weight","type":"uint256","internalType":"uint256"},{"name":"decay","type":"uint256","internalType":"uint256"},{"name":"minThresholdPoints","type":"uint256","internalType":"uint256"}]},{"name":"proposalType","type":"uint8","internalType":"enum ProposalType"},{"name":"pointSystem","type":"uint8","internalType":"enum PointSystem"},{"name":"pointConfig","type":"tuple","internalType":"struct PointSystemConfig","components":[{"name":"maxAmount","type":"uint256","internalType":"uint256"}]},{"name":"arbitrableConfig","type":"tuple","internalType":"struct ArbitrableConfig","components":[{"name":"arbitrator","type":"address","internalType":"contract IArbitrator"},{"name":"tribunalSafe","type":"address","internalType":"address"},{"name":"submitterCollateralAmount","type":"uint256","internalType":"uint256"},{"name":"challengerCollateralAmount","type":"uint256","internalType":"uint256"},{"name":"defaultRuling","type":"uint256","internalType":"uint256"},{"name":"defaultRulingTimeout","type":"uint256","internalType":"uint256"}]},{"name":"registryCommunity","type":"address","internalType":"address"},{"name":"sybilScorer","type":"address","internalType":"address"},{"name":"sybilScorerThreshold","type":"uint256","internalType":"uint256"},{"name":"initialAllowlist","type":"address[]","internalType":"address[]"}]},{"name":"_metadata","type":"tuple","internalType":"struct Metadata","components":[{"name":"protocol","type":"uint256","internalType":"uint256"},{"name":"pointer","type":"string","internalType":"string"}]}],"outputs":[{"name":"poolId","type":"uint256","internalType":"uint256"},{"name":"strategy","type":"address","internalType":"address"}],"stateMutability":"nonpayable"},{"type":"function","name":"deactivateMemberInStrategy","inputs":[{"name":"_member","type":"address","internalType":"address"},{"name":"_strategy","type":"address","internalType":"address"}],"outputs":[],"stateMutability":"nonpayable"},{"type":"function","name":"decreasePower","inputs":[{"name":"_amountUnstaked","type":"uint256","internalType":"uint256"}],"outputs":[],"stateMutability":"nonpayable"},{"type":"function","name":"enabledStrategies","inputs":[{"name":"strategy","type":"address","internalType":"address"}],"outputs":[{"name":"isEnabled","type":"bool","internalType":"bool"}],"stateMutability":"view"},{"type":"function","name":"feeReceiver","inputs":[],"outputs":[{"name":"","type":"address","internalType":"address"}],"stateMutability":"view"},{"type":"function","name":"gardenToken","inputs":[],"outputs":[{"name":"","type":"address","internalType":"contract IERC20"}],"stateMutability":"view"},{"type":"function","name":"getBasisStakedAmount","inputs":[],"outputs":[{"name":"","type":"uint256","internalType":"uint256"}],"stateMutability":"view"},{"type":"function","name":"getMemberPowerInStrategy","inputs":[{"name":"_member","type":"address","internalType":"address"},{"name":"_strategy","type":"address","internalType":"address"}],"outputs":[{"name":"","type":"uint256","internalType":"uint256"}],"stateMutability":"view"},{"type":"function","name":"getMemberStakedAmount","inputs":[{"name":"_member","type":"address","internalType":"address"}],"outputs":[{"name":"","type":"uint256","internalType":"uint256"}],"stateMutability":"view"},{"type":"function","name":"getRoleAdmin","inputs":[{"name":"role","type":"bytes32","internalType":"bytes32"}],"outputs":[{"name":"","type":"bytes32","internalType":"bytes32"}],"stateMutability":"view"},{"type":"function","name":"getStakeAmountWithFees","inputs":[],"outputs":[{"name":"","type":"uint256","internalType":"uint256"}],"stateMutability":"view"},{"type":"function","name":"grantRole","inputs":[{"name":"role","type":"bytes32","internalType":"bytes32"},{"name":"account","type":"address","internalType":"address"}],"outputs":[],"stateMutability":"nonpayable"},{"type":"function","name":"hasRole","inputs":[{"name":"role","type":"bytes32","internalType":"bytes32"},{"name":"account","type":"address","internalType":"address"}],"outputs":[{"name":"","type":"bool","internalType":"bool"}],"stateMutability":"view"},{"type":"function","name":"increasePower","inputs":[{"name":"_amountStaked","type":"uint256","internalType":"uint256"}],"outputs":[],"stateMutability":"nonpayable"},{"type":"function","name":"initialize","inputs":[{"name":"params","type":"tuple","internalType":"struct RegistryCommunityInitializeParamsV0_0","components":[{"name":"_allo","type":"address","internalType":"address"},{"name":"_gardenToken","type":"address","internalType":"contract IERC20"},{"name":"_registerStakeAmount","type":"uint256","internalType":"uint256"},{"name":"_communityFee","type":"uint256","internalType":"uint256"},{"name":"_nonce","type":"uint256","internalType":"uint256"},{"name":"_registryFactory","type":"address","internalType":"address"},{"name":"_feeReceiver","type":"address","internalType":"address"},{"name":"_metadata","type":"tuple","internalType":"struct Metadata","components":[{"name":"protocol","type":"uint256","internalType":"uint256"},{"name":"pointer","type":"string","internalType":"string"}]},{"name":"_councilSafe","type":"address","internalType":"address payable"},{"name":"_communityName","type":"string","internalType":"string"},{"name":"_isKickEnabled","type":"bool","internalType":"bool"},{"name":"covenantIpfsHash","type":"string","internalType":"string"}]},{"name":"_strategyTemplate","type":"address","internalType":"address"},{"name":"_collateralVaultTemplate","type":"address","internalType":"address"},{"name":"_owner","type":"address","internalType":"address"}],"outputs":[],"stateMutability":"nonpayable"},{"type":"function","name":"initialize","inputs":[{"name":"initialOwner","type":"address","internalType":"address"}],"outputs":[],"stateMutability":"nonpayable"},{"type":"function","name":"isCouncilMember","inputs":[{"name":"_member","type":"address","internalType":"address"}],"outputs":[{"name":"","type":"bool","internalType":"bool"}],"stateMutability":"view"},{"type":"function","name":"isKickEnabled","inputs":[],"outputs":[{"name":"","type":"bool","internalType":"bool"}],"stateMutability":"view"},{"type":"function","name":"isMember","inputs":[{"name":"_member","type":"address","internalType":"address"}],"outputs":[{"name":"_isMember","type":"bool","internalType":"bool"}],"stateMutability":"view"},{"type":"function","name":"kickMember","inputs":[{"name":"_member","type":"address","internalType":"address"},{"name":"_transferAddress","type":"address","internalType":"address"}],"outputs":[],"stateMutability":"nonpayable"},{"type":"function","name":"memberActivatedInStrategies","inputs":[{"name":"member","type":"address","internalType":"address"},{"name":"strategy","type":"address","internalType":"address"}],"outputs":[{"name":"isActivated","type":"bool","internalType":"bool"}],"stateMutability":"view"},{"type":"function","name":"memberPowerInStrategy","inputs":[{"name":"strategy","type":"address","internalType":"address"},{"name":"member","type":"address","internalType":"address"}],"outputs":[{"name":"power","type":"uint256","internalType":"uint256"}],"stateMutability":"view"},{"type":"function","name":"owner","inputs":[],"outputs":[{"name":"","type":"address","internalType":"address"}],"stateMutability":"view"},{"type":"function","name":"pendingCouncilSafe","inputs":[],"outputs":[{"name":"","type":"address","internalType":"address payable"}],"stateMutability":"view"},{"type":"function","name":"profileId","inputs":[],"outputs":[{"name":"","type":"bytes32","internalType":"bytes32"}],"stateMutability":"view"},{"type":"function","name":"proxiableUUID","inputs":[],"outputs":[{"name":"","type":"bytes32","internalType":"bytes32"}],"stateMutability":"view"},{"type":"function","name":"registerStakeAmount","inputs":[],"outputs":[{"name":"","type":"uint256","internalType":"uint256"}],"stateMutability":"view"},{"type":"function","name":"registry","inputs":[],"outputs":[{"name":"","type":"address","internalType":"contract IRegistry"}],"stateMutability":"view"},{"type":"function","name":"registryFactory","inputs":[],"outputs":[{"name":"","type":"address","internalType":"address"}],"stateMutability":"view"},{"type":"function","name":"removeStrategy","inputs":[{"name":"_strategy","type":"address","internalType":"address"}],"outputs":[],"stateMutability":"nonpayable"},{"type":"function","name":"removeStrategyByPoolId","inputs":[{"name":"poolId","type":"uint256","internalType":"uint256"}],"outputs":[],"stateMutability":"nonpayable"},{"type":"function","name":"renounceOwnership","inputs":[],"outputs":[],"stateMutability":"nonpayable"},{"type":"function","name":"renounceRole","inputs":[{"name":"role","type":"bytes32","internalType":"bytes32"},{"name":"account","type":"address","internalType":"address"}],"outputs":[],"stateMutability":"nonpayable"},{"type":"function","name":"revokeRole","inputs":[{"name":"role","type":"bytes32","internalType":"bytes32"},{"name":"account","type":"address","internalType":"address"}],"outputs":[],"stateMutability":"nonpayable"},{"type":"function","name":"setBasisStakedAmount","inputs":[{"name":"_newAmount","type":"uint256","internalType":"uint256"}],"outputs":[],"stateMutability":"nonpayable"},{"type":"function","name":"setCollateralVaultTemplate","inputs":[{"name":"template","type":"address","internalType":"address"}],"outputs":[],"stateMutability":"nonpayable"},{"type":"function","name":"setCommunityFee","inputs":[{"name":"_newCommunityFee","type":"uint256","internalType":"uint256"}],"outputs":[],"stateMutability":"nonpayable"},{"type":"function","name":"setCommunityParams","inputs":[{"name":"_params","type":"tuple","internalType":"struct CommunityParams","components":[{"name":"registerStakeAmount","type":"uint256","internalType":"uint256"},{"name":"isKickEnabled","type":"bool","internalType":"bool"},{"name":"covenantIpfsHash","type":"string","internalType":"string"},{"name":"councilSafe","type":"address","internalType":"address"},{"name":"feeReceiver","type":"address","internalType":"address"},{"name":"communityFee","type":"uint256","internalType":"uint256"},{"name":"communityName","type":"string","internalType":"string"}]}],"outputs":[],"stateMutability":"nonpayable"},{"type":"function","name":"setCouncilSafe","inputs":[{"name":"_safe","type":"address","internalType":"address payable"}],"outputs":[],"stateMutability":"nonpayable"},{"type":"function","name":"setKickEnabled","inputs":[],"outputs":[],"stateMutability":"nonpayable"},{"type":"function","name":"setStrategyTemplate","inputs":[{"name":"template","type":"address","internalType":"address"}],"outputs":[],"stateMutability":"nonpayable"},{"type":"function","name":"stakeAndRegisterMember","inputs":[],"outputs":[],"stateMutability":"nonpayable"},{"type":"function","name":"strategiesByMember","inputs":[{"name":"member","type":"address","internalType":"address"},{"name":"","type":"uint256","internalType":"uint256"}],"outputs":[{"name":"strategiesAddresses","type":"address","internalType":"address"}],"stateMutability":"view"},{"type":"function","name":"strategyTemplate","inputs":[],"outputs":[{"name":"","type":"address","internalType":"address"}],"stateMutability":"view"},{"type":"function","name":"supportsInterface","inputs":[{"name":"interfaceId","type":"bytes4","internalType":"bytes4"}],"outputs":[{"name":"","type":"bool","internalType":"bool"}],"stateMutability":"view"},{"type":"function","name":"totalMembers","inputs":[],"outputs":[{"name":"","type":"uint256","internalType":"uint256"}],"stateMutability":"view"},{"type":"function","name":"transferOwnership","inputs":[{"name":"newOwner","type":"address","internalType":"address"}],"outputs":[],"stateMutability":"nonpayable"},{"type":"function","name":"unregisterMember","inputs":[],"outputs":[],"stateMutability":"nonpayable"},{"type":"function","name":"upgradeTo","inputs":[{"name":"newImplementation","type":"address","internalType":"address"}],"outputs":[],"stateMutability":"nonpayable"},{"type":"function","name":"upgradeToAndCall","inputs":[{"name":"newImplementation","type":"address","internalType":"address"},{"name":"data","type":"bytes","internalType":"bytes"}],"outputs":[],"stateMutability":"payable"},{"type":"event","name":"AdminChanged","inputs":[{"name":"previousAdmin","type":"address","indexed":false,"internalType":"address"},{"name":"newAdmin","type":"address","indexed":false,"internalType":"address"}],"anonymous":false},{"type":"event","name":"AlloSet","inputs":[{"name":"_allo","type":"address","indexed":false,"internalType":"address"}],"anonymous":false},{"type":"event","name":"BasisStakedAmountSet","inputs":[{"name":"_newAmount","type":"uint256","indexed":false,"internalType":"uint256"}],"anonymous":false},{"type":"event","name":"BeaconUpgraded","inputs":[{"name":"beacon","type":"address","indexed":true,"internalType":"address"}],"anonymous":false},{"type":"event","name":"CommunityFeeUpdated","inputs":[{"name":"_newFee","type":"uint256","indexed":false,"internalType":"uint256"}],"anonymous":false},{"type":"event","name":"CommunityNameUpdated","inputs":[{"name":"_communityName","type":"string","indexed":false,"internalType":"string"}],"anonymous":false},{"type":"event","name":"CouncilSafeChangeStarted","inputs":[{"name":"_safeOwner","type":"address","indexed":false,"internalType":"address"},{"name":"_newSafeOwner","type":"address","indexed":false,"internalType":"address"}],"anonymous":false},{"type":"event","name":"CouncilSafeSet","inputs":[{"name":"_safe","type":"address","indexed":false,"internalType":"address"}],"anonymous":false},{"type":"event","name":"CovenantIpfsHashUpdated","inputs":[{"name":"_covenantIpfsHash","type":"string","indexed":false,"internalType":"string"}],"anonymous":false},{"type":"event","name":"FeeReceiverChanged","inputs":[{"name":"_feeReceiver","type":"address","indexed":false,"internalType":"address"}],"anonymous":false},{"type":"event","name":"Initialized","inputs":[{"name":"version","type":"uint8","indexed":false,"internalType":"uint8"}],"anonymous":false},{"type":"event","name":"KickEnabledUpdated","inputs":[{"name":"_isKickEnabled","type":"bool","indexed":false,"internalType":"bool"}],"anonymous":false},{"type":"event","name":"MemberActivatedStrategy","inputs":[{"name":"_member","type":"address","indexed":false,"internalType":"address"},{"name":"_strategy","type":"address","indexed":false,"internalType":"address"},{"name":"_pointsToIncrease","type":"uint256","indexed":false,"internalType":"uint256"}],"anonymous":false},{"type":"event","name":"MemberDeactivatedStrategy","inputs":[{"name":"_member","type":"address","indexed":false,"internalType":"address"},{"name":"_strategy","type":"address","indexed":false,"internalType":"address"}],"anonymous":false},{"type":"event","name":"MemberKicked","inputs":[{"name":"_member","type":"address","indexed":false,"internalType":"address"},{"name":"_transferAddress","type":"address","indexed":false,"internalType":"address"},{"name":"_amountReturned","type":"uint256","indexed":false,"internalType":"uint256"}],"anonymous":false},{"type":"event","name":"MemberPowerDecreased","inputs":[{"name":"_member","type":"address","indexed":false,"internalType":"address"},{"name":"_unstakedAmount","type":"uint256","indexed":false,"internalType":"uint256"}],"anonymous":false},{"type":"event","name":"MemberPowerIncreased","inputs":[{"name":"_member","type":"address","indexed":false,"internalType":"address"},{"name":"_stakedAmount","type":"uint256","indexed":false,"internalType":"uint256"}],"anonymous":false},{"type":"event","name":"MemberRegistered","inputs":[{"name":"_member","type":"address","indexed":false,"internalType":"address"},{"name":"_amountStaked","type":"uint256","indexed":false,"internalType":"uint256"}],"anonymous":false},{"type":"event","name":"MemberUnregistered","inputs":[{"name":"_member","type":"address","indexed":false,"internalType":"address"},{"name":"_amountReturned","type":"uint256","indexed":false,"internalType":"uint256"}],"anonymous":false},{"type":"event","name":"OwnershipTransferred","inputs":[{"name":"previousOwner","type":"address","indexed":true,"internalType":"address"},{"name":"newOwner","type":"address","indexed":true,"internalType":"address"}],"anonymous":false},{"type":"event","name":"PoolCreated","inputs":[{"name":"_poolId","type":"uint256","indexed":false,"internalType":"uint256"},{"name":"_strategy","type":"address","indexed":false,"internalType":"address"},{"name":"_community","type":"address","indexed":false,"internalType":"address"},{"name":"_token","type":"address","indexed":false,"internalType":"address"},{"name":"_metadata","type":"tuple","indexed":false,"internalType":"struct Metadata","components":[{"name":"protocol","type":"uint256","internalType":"uint256"},{"name":"pointer","type":"string","internalType":"string"}]}],"anonymous":false},{"type":"event","name":"RegistryInitialized","inputs":[{"name":"_profileId","type":"bytes32","indexed":false,"internalType":"bytes32"},{"name":"_communityName","type":"string","indexed":false,"internalType":"string"},{"name":"_metadata","type":"tuple","indexed":false,"internalType":"struct Metadata","components":[{"name":"protocol","type":"uint256","internalType":"uint256"},{"name":"pointer","type":"string","internalType":"string"}]}],"anonymous":false},{"type":"event","name":"RoleAdminChanged","inputs":[{"name":"role","type":"bytes32","indexed":true,"internalType":"bytes32"},{"name":"previousAdminRole","type":"bytes32","indexed":true,"internalType":"bytes32"},{"name":"newAdminRole","type":"bytes32","indexed":true,"internalType":"bytes32"}],"anonymous":false},{"type":"event","name":"RoleGranted","inputs":[{"name":"role","type":"bytes32","indexed":true,"internalType":"bytes32"},{"name":"account","type":"address","indexed":true,"internalType":"address"},{"name":"sender","type":"address","indexed":true,"internalType":"address"}],"anonymous":false},{"type":"event","name":"RoleRevoked","inputs":[{"name":"role","type":"bytes32","indexed":true,"internalType":"bytes32"},{"name":"account","type":"address","indexed":true,"internalType":"address"},{"name":"sender","type":"address","indexed":true,"internalType":"address"}],"anonymous":false},{"type":"event","name":"StrategyAdded","inputs":[{"name":"_strategy","type":"address","indexed":false,"internalType":"address"}],"anonymous":false},{"type":"event","name":"StrategyRemoved","inputs":[{"name":"_strategy","type":"address","indexed":false,"internalType":"address"}],"anonymous":false},{"type":"event","name":"Upgraded","inputs":[{"name":"implementation","type":"address","indexed":true,"internalType":"address"}],"anonymous":false},{"type":"error","name":"AddressCannotBeZero","inputs":[]},{"type":"error","name":"AllowlistTooBig","inputs":[{"name":"size","type":"uint256","internalType":"uint256"}]},{"type":"error","name":"CallerNotOwner","inputs":[{"name":"_caller","type":"address","internalType":"address"},{"name":"_owner","type":"address","internalType":"address"}]},{"type":"error","name":"CantDecreaseMoreThanPower","inputs":[{"name":"_decreaseAmount","type":"uint256","internalType":"uint256"},{"name":"_currentPower","type":"uint256","internalType":"uint256"}]},{"type":"error","name":"DecreaseUnderMinimum","inputs":[]},{"type":"error","name":"KickNotEnabled","inputs":[]},{"type":"error","name":"NewFeeGreaterThanMax","inputs":[]},{"type":"error","name":"OnlyEmptyCommunity","inputs":[{"name":"totalMembers","type":"uint256","internalType":"uint256"}]},{"type":"error","name":"PointsDeactivated","inputs":[]},{"type":"error","name":"RegistryCannotBeZero","inputs":[]},{"type":"error","name":"SenderNotNewOwner","inputs":[]},{"type":"error","name":"SenderNotStrategy","inputs":[]},{"type":"error","name":"StrategyDisabled","inputs":[]},{"type":"error","name":"StrategyExists","inputs":[]},{"type":"error","name":"UserAlreadyActivated","inputs":[]},{"type":"error","name":"UserAlreadyDeactivated","inputs":[]},{"type":"error","name":"UserAlreadyRegistered","inputs":[]},{"type":"error","name":"UserNotGardenOwner","inputs":[]},{"type":"error","name":"UserNotInCouncil","inputs":[{"name":"_user","type":"address","internalType":"address"}]},{"type":"error","name":"UserNotInRegistry","inputs":[]},{"type":"error","name":"ValueCannotBeZero","inputs":[]}],"bytecode":{"object":"0x60a080604052346100325730608052615f869081620000388239608051818181611536015281816116e8015261174a0152f35b600080fdfe608060405260043610156200001357600080fd5b60003560e01c806301ffc9a714620004e55780630331383c146200040757806308386eba14620004df5780630d12bbdb14620004d95780630d4a8b4914620004d3578063175188e814620004cd5780631b71f0e414620004c75780631f787d2814620004c1578063223e547914620004bb57806322bcf99914620004b5578063248a9ca314620004af57806328c309e914620004a95780632b38c69c14620004a35780632c611c4a146200049d5780632f2ff15d146200049757806331f61bca146200049157806333960459146200048b5780633419635514620004855780633517aa7d146200047f57806336568abe14620004795780633659cfe61462000473578063397e2543146200046d5780633a871fe11462000467578063477a5cc014620004615780634f1ef286146200045b57806352d1902d1462000455578063559de05d146200044f5780635c94e4d214620004495780635ecf71c5146200044357806365e3864c146200040d5780636871eb4d146200043d57806368decabb14620004375780636c53db9a1462000431578063715018a6146200042b57806373265c371462000425578063733a2d1f146200041f57806376e92559146200041957806377122d5614620004135780637817ee4f146200040d57806378a0b8a914620004075780637b103999146200040157806382d6a1e714620003fb57806388cfe68414620003f55780638961be6b14620003ef5780638da5cb5b14620003e957806391d1485414620003e3578063977ef51914620003dd578063a042f42814620003d7578063a0cf0aea14620003d1578063a217fddf14620003cb578063a230c52414620003c5578063b0d3713a14620003bf578063b3f0067414620003b9578063b5058c5014620003b3578063b64e39af14620003ad578063b99b437014620003a7578063bc063e1a14620003a1578063c4d66de8146200039b578063c6d572ae1462000395578063d547741f146200038f578063d6d8428d1462000389578063d7050f071462000383578063db61d65c146200037d578063e0eab9881462000377578063ebd7dc521462000371578063f24b150f146200036b578063f2fde38b1462000365578063f86c5f89146200035f5763ffa1ad74146200035957600080fd5b62002f0d565b62002ee1565b62002e47565b62002dba565b62002d6f565b62002ae8565b6200283a565b6200281b565b620027ef565b620027a5565b6200270f565b620026d1565b620026b1565b62002581565b620024af565b6200238c565b6200235d565b62002310565b620022a3565b62002285565b62002254565b6200220a565b6200212d565b620020ef565b620020be565b6200209e565b6200203c565b62001f86565b62001f5a565b62000551565b62001c3e565b62001f2e565b62001f0d565b62001ee1565b62001e45565b62001df4565b62001dc8565b62001d9c565b62001c7d565b620019c6565b6200199a565b620017f9565b62001735565b6200168b565b62001647565b62001600565b620015d5565b62001507565b6200146a565b620011fa565b6200108d565b62000e87565b62000e3e565b62000df4565b62000daf565b62000d4a565b62000b76565b62000b45565b62000a66565b62000a31565b62000a0d565b620009c0565b62000989565b62000675565b62000591565b62000571565b3462000540576020366003190112620005405760043563ffffffff60e01b81168091036200054057602090637965db0b60e01b81149081156200052e575b506040519015158152f35b6301ffc9a760e01b1490503862000523565b600080fd5b60009103126200054057565b34620005405760003660031901126200054057602060fb54604051908152f35b34620005405760003660031901126200054057602060fe54604051908152f35b34620005405760203660031901126200054057600435620005b1620052ce565b620186a08111620005dc5760208160008051602062005f318339815191529260fc55604051908152a1005b60405163fe925f7d60e01b8152600490fd5b6001600160a01b031690565b6001600160a01b038116036200054057565b602435906200061b82620005fa565b565b604435906200061b82620005fa565b606435906200061b82620005fa565b35906200061b82620005fa565b604090600319011262000540576004356200066381620005fa565b906024356200067281620005fa565b90565b346200054057620006863662000648565b6200069062004cb2565b6200069b8262004d09565b620006a68162004d56565b620006b2813362004d8c565b620006bd816200478d565b620006de620006d782620006d18562000c64565b62000ceb565b5460ff1690565b620009775760209081620006fc620006f68562000c7f565b62004bcc565b015160fb5460405163c329217160e01b8082526000966001600160a01b03861696909490939284816004818c8c5af1801562000846576003918a9162000955575b506200074981620048f4565b036200084c57505060405163782aadff60e01b81526001600160a01b038416600482015260006024820152948291508590604490829089905af18015620008465760008051602062005e31833981519152946200080192879262000812575b50505b80620007bc85620006d18662000c9a565b55620007de620007d185620006d18662000c64565b805460ff19166001179055565b620007f484620007ee8562000cb5565b62004c56565b6040519384938462004c90565b0390a16200080f6001606555565b80f35b620008369250803d106200083e575b6200082d818362000f2b565b810190620034c1565b3880620007a8565b503d62000821565b620034d1565b604096919392965193845282846004818b865af1801562000846578894859162000921575b506200087d81620048f4565b620008a2575b505050506200080160008051602062005e3183398151915293620007ab565b8293965090620008ca9160405197888094819363782aadff60e01b8352896004840162004c1c565b03925af18015620008465760008051602062005e318339815191529462000801928792620008ff575b50509385913862000883565b620009199250803d106200083e576200082d818362000f2b565b3880620008f3565b620009469150843d86116200094d575b6200093d818362000f2b565b81019062004c04565b3862000871565b503d62000931565b620009709150863d88116200094d576200093d818362000f2b565b386200073d565b604051636adcde4b60e11b8152600490fd5b34620005405760203660031901126200054057620009be600435620009ae81620005fa565b620009b8620052ce565b62005456565b005b34620005405760203660031901126200054057600435620009e181620005fa565b620009eb620031eb565b61010280546001600160a01b0319166001600160a01b03909216919091179055005b34620005405760003660031901126200054057602060ff8054166040519015158152f35b34620005405760203660031901126200054057620009be60043562000a5681620005fa565b62000a60620052ce565b62005325565b34620005405762000a773662000648565b62000a828262004d09565b62000a8d816200478d565b62000a99813362004d8c565b60018060a01b03821660005261010f60205260ff62000abd82604060002062000ceb565b54161562000b33578162000af682620006d17ede109bef4619f7e2cf00c8e5a50ca55f8deb44f87087eed414a91dbf8d1d1b9562000c64565b805460ff19169055600062000b1083620006d18462000c9a565b5562000b1d828262004df9565b62000b2e6040519283928362003a76565b0390a1005b604051633048da7760e21b8152600490fd5b3462000540576020366003190112620005405760043560005260c96020526020600160406000200154604051908152f35b3462000540576000366003190112620005405762000ba162000b9b61010054620005ee565b620005ee565b60fb549062000bc062000bb760fc548462002697565b620f4240900490565b91602060405180936302a64b8360e21b8252818062000be3306004830162000d37565b03916001600160a01b03165afa918215620008465762000c3d9362000c2062000bb762000c2d9562000c279460009162000c41575b508562002697565b92620032a3565b620032a3565b6040519081529081906020820190565b0390f35b62000c5d915060203d81116200083e576200082d818362000f2b565b3862000c18565b6001600160a01b0316600090815261010f6020526040902090565b6001600160a01b0316600090815261010d6020526040902090565b6001600160a01b0316600090815261010c6020526040902090565b6001600160a01b0316600090815261010e6020526040902090565b6001600160a01b0316600090815261010b6020526040902090565b9060018060a01b0316600052602052604060002090565b634e487b7160e01b600052603260045260246000fd5b805482101562000d315760005260206000200190600090565b62000d02565b6001600160a01b03909116815260200190565b3462000540576040366003190112620005405760043562000d6b81620005fa565b6024359060018060a01b0380911660005261010e60205260406000208054831015620005405760209262000d9f9162000d18565b9190546040519260031b1c168152f35b3462000540576020366003190112620005405760043562000dd081620005fa565b60018060a01b031660005261010d6020526020600160406000200154604051908152f35b34620005405760403660031901126200054057620009be60243560043562000e1c82620005fa565b8060005260c960205262000e3860016040600020015462002f57565b62003156565b3462000540576020366003190112620005405760008051602062005e51833981519152602060043562000e70620052ce565b62000e7a6200551a565b8060fb55604051908152a1005b34620005405760003660031901126200054057602060fd54604051908152f35b634e487b7160e01b600052604160045260246000fd5b604081019081106001600160401b0382111762000ed957604052565b62000ea7565b606081019081106001600160401b0382111762000ed957604052565b60c081019081106001600160401b0382111762000ed957604052565b6001600160401b03811162000ed957604052565b601f909101601f19168101906001600160401b0382119082101762000ed957604052565b6040519061018082016001600160401b0381118382101762000ed957604052565b6040519060e082016001600160401b0381118382101762000ed957604052565b6040519061012082016001600160401b0381118382101762000ed957604052565b6001600160401b03811162000ed957601f01601f191660200190565b92919262000fdb8262000fb1565b9162000feb604051938462000f2b565b82948184528183011162000540578281602093846000960137010152565b9080601f830112156200054057816020620006729335910162000fcd565b9190604083820312620005405760405190620010438262000ebd565b8335825290928391602082013591906001600160401b038311620005405760209262001070920162001009565b910152565b801515036200054057565b35906200061b8262001075565b3462000540576003196080368201126200054057600435906001600160401b039081831162000540576101809083360301126200054057620010ce62000f4f565b90620010dd836004016200063b565b8252620010ed602484016200063b565b60208301526044830135604083015260648301356060830152608483013560808301526200111e60a484016200063b565b60a08301526200113160c484016200063b565b60c083015260e4830135818111620005405762001155906004369186010162001027565b60e08301526200116961010484016200063b565b61010083015261012483013581811162000540576200118f906004369186010162001009565b610120830152620011a4610144840162001080565b6101408301526101648301359081116200054057620009be926004620011ce923692010162001009565b610160820152620011de6200060c565b620011e86200061d565b90620011f36200062c565b9262003a90565b34620005405760008060031936011262001467576200121862004cb2565b620012233362000c7f565b6200123562000b9b61010054620005ee565b60fb54916200124b62000bb760fc548562002697565b6040516302a64b8360e21b815260209491936001600160a01b031691908581806200127a306004830162000d37565b0381865afa801562000846576200129f9262000bb792899262001443575b5062002697565b92620012c4620012c06040620012b9620006f63362000c7f565b0151151590565b1590565b620012d6575b856200080f6001606555565b82620012ee600260019501600160ff19825416179055565b60fb54938491015562001326610105936200131b8662000c2785620013148954620005ee565b94620032a3565b903090339062004eb1565b8062001415575b508262001395575b50505050620013516200134b61010a5462003285565b61010a55565b7f67e0244e28040fec15240cd4b6c04c776a2a0278caef23b59e8ada1df31f76896200138760fb54604051918291338362004c1c565b0390a13880808080620012ca565b83620013a460049354620005ee565b9160405193848092634c3a1adf60e11b82525afa9182156200084657620013d5948693620013df575b50506200502e565b3880808062001335565b62001404929350803d106200140d575b620013fb818362000f2b565b810190620039f4565b903880620013cd565b503d620013ef565b6200143c90620014268454620005ee565b60ff5460081c6001600160a01b0316906200502e565b386200132d565b6200145f919250883d8a116200083e576200082d818362000f2b565b903862001298565b80fd5b346200054057604036600319011262000540576024356200148b81620005fa565b336001600160a01b03821603620014aa57620009be9060043562003172565b60405162461bcd60e51b815260206004820152602f60248201527f416363657373436f6e74726f6c3a2063616e206f6e6c792072656e6f756e636560448201526e103937b632b9903337b91039b2b63360891b6064820152608490fd5b346200054057602036600319011262000540576004356200152881620005fa565b6001600160a01b036200157f7f0000000000000000000000000000000000000000000000000000000000000000821662001565308214156200341f565b8260008051602062005eb183398151915254161462003470565b6200158962003a0c565b33911603620015a857620009be90620015a1620032b1565b906200358b565b620015d1620015b662003a0c565b60405163163678e960e01b8152918291336004840162003a76565b0390fd5b34620005405760203660031901126200054057620009be600435620015fa81620005fa565b620054ad565b346200054057602036600319011262000540576004356200162181620005fa565b60018060a01b031660005261010b602052602060ff604060002054166040519015158152f35b346200054057602060ff6200167f620016603662000648565b6001600160a01b03909116600090815261010f85526040902062000ceb565b54166040519015158152f35b60403660031901126200054057600435620016a681620005fa565b6024356001600160401b0381116200054057366023820112156200054057620016da90369060248160040135910162000fcd565b6001600160a01b03620017177f0000000000000000000000000000000000000000000000000000000000000000821662001565308214156200341f565b6200172162003a0c565b33911603620015a857620009be916200364f565b346200054057600036600319011262000540577f00000000000000000000000000000000000000000000000000000000000000006001600160a01b03163003620017935760405160008051602062005eb18339815191528152602090f35b60405162461bcd60e51b815260206004820152603860248201527f555550535570677261646561626c653a206d757374206e6f742062652063616c6044820152771b1959081d1a1c9bdd59da0819195b1959d85d1958d85b1b60421b6064820152608490fd5b34620005405760208060031936011262000540576004908135916200181d62004cb2565b6200182762004fdf565b6200183c620018363362000cb5565b6200486e565b60005b81518110156200191e576200186e62000b9b62000b9b62001861848662003f65565b516001600160a01b031690565b9084604051809363782aadff60e01b825281600081620018928c338c840162004c1c565b03925af180156200084657620018ba92600091620018fc575b5080620018c0575b5062003f55565b6200183f565b620018f3620018ea620018d33362000c9a565b620018e362001861868962003f65565b9062000ceb565b918254620032a3565b905538620018b3565b620019179150863d88116200083e576200082d818362000f2b565b38620018ab565b7f576605f9bfe8911e7508bed3763c7c5c8eb3b86e8b360b90a4bc6abe1104cb7f6200198c8662001961816200195761010554620005ee565b3090339062004eb1565b60016200196e3362000c7f565b016200197c828254620032a3565b9055604051918291338362004c1c565b0390a1620009be6001606555565b34620005405760003660031901126200054057610102546040516001600160a01b039091168152602090f35b3462000540576020806003193601126200054057600490813590620019ea62004cb2565b620019f462004fdf565b620019ff3362000cb5565b9060019362001a1c848662001a143362000c7f565b015462003f9a565b60fb541162001c2f5790849262001a42853362001a3c61010554620005ee565b6200502e565b6000935b62001a8c575b7f6ee2c70b2d6b89ae808a2313aab43e925c06624271419cd665d85cfa1ae04ff86200198c868862001a7e3362000c7f565b016200197c82825462003f9a565b909192948154948587101562001c265762001ac162001aac888562000d18565b905460039190911b1c6001600160a01b031690565b9562001acd8762005059565b1562001bd557506040928484518098632ed04b2b60e01b82528160008162001afa888d3390840162004c1c565b03926001600160a01b03165af1968715620008465760009762001bb1575b5062001b3862001b283362000c9a565b620018e362001aac8b8562000d18565b54948588111562001b655784516311423e6360e31b81528088018981526020810188905281906040010390fd5b945094925094819662001ba69162001b9e62001b9562001b853362000c9a565b620018e362001aac868c62000d18565b91825462003f9a565b905562003f55565b939092919262001a46565b62001bcd919750853d87116200083e576200082d818362000f2b565b953862001b18565b9662001c2062001ba6929762001c1562001c0262001aac62001bfb889d9b999b62003f7a565b8b62000d18565b62001c0e858b62000d18565b9062004c37565b620009b88862004db3565b62003f55565b94509462001a4c565b604051634e23e81760e11b8152fd5b346200054057602062001c7462001c553662000648565b6001600160a01b03909116600090815261010c84526040902062000ceb565b54604051908152f35b34620005405762001c8e3662000648565b62001c9862004cb2565b62001ca2620052ce565b62001cb3620012c060ff5460ff1690565b62001d8a5762001cd1620012c06040620012b9620006f68662000c7f565b62001d7857816200198c62001d0b620006f67fb5946f249f8744efe9d14d49a483b54a589b1362944ff6694de93456cceb96a39562000c7f565b62001d168362005907565b62001d3762001d258462000c7f565b60026000918281558260018201550155565b62001d496200134b61010a5462003f7a565b62001d6a602062001d5d61010554620005ee565b920191858351916200502e565b516040519384938462004c90565b604051636a5cfb6d60e01b8152600490fd5b6040516365b1ee3960e11b8152600490fd5b34620005405760003660031901126200054057610103546040516001600160a01b039091168152602090f35b34620005405760003660031901126200054057610106546040516001600160a01b039091168152602090f35b346200054057600080600319360112620014675762001e12620031eb565b603380546001600160a01b0319811690915581906001600160a01b031660008051602062005ed18339815191528280a380f35b3462000540576020366003190112620005405762001e62620052ce565b6101075460405163068bcd8d60e01b81526004803590820152906001600160a01b03906000908390602490829085165afa9182156200084657620009be9260209160009162001ebb575b50015116620009b8816200478d565b62001eda913d8091833e62001ed1818362000f2b565b81019062005232565b3862001eac565b34620005405760003660031901126200054057602060405160008051602062005dd18339815191528152f35b34620005405760003660031901126200054057602061010a54604051908152f35b34620005405760003660031901126200054057610101546040516001600160a01b039091168152602090f35b34620005405760003660031901126200054057610104546040516001600160a01b039091168152602090f35b3462000540576020366003190112620005405762001fa3620052ce565b6101075460405163068bcd8d60e01b8152600480359082015290600090829060249082906001600160a01b03165afa80156200084657602062000b9b9162001ff7936000916200201f575b500151620005ee565b62002002816200478d565b6200200d8162005059565b6200201457005b620009be9062005325565b62002035913d8091833e62001ed1818362000f2b565b3862001fee565b3462000540576020366003190112620005405760606004356200205f81620005fa565b60018060a01b0380911660005261010d6020526040600020908154169060ff600260018301549201541690604051928352602083015215156040820152f35b34620005405760003660031901126200054057602060fc54604051908152f35b346200054057600036600319011262000540576020620020dd62003a0c565b6040516001600160a01b039091168152f35b34620005405760403660031901126200054057602060ff6200167f6024356200211881620005fa565b60043560005260c98452604060002062000ceb565b3462000540576003196020368201126200054057600435906001600160401b0390818311620005405760e090833603011262000540576200216d62000f70565b9082600401358252620021836024840162001080565b602083015260448301358181116200054057620021a7906004369186010162001009565b6040830152620021ba606484016200063b565b6060830152620021cd608484016200063b565b608083015260a483013560a083015260c48301359081116200054057620009be926004620021ff923692010162001009565b60c08201526200560e565b346200054057600036600319011262000540576200222762004cb2565b62002231620052ce565b6200223b6200551a565b60ff805460ff1981169082161582161790556001606555005b34620005405760003660031901126200054057602060405173eeeeeeeeeeeeeeeeeeeeeeeeeeeeeeeeeeeeeeee8152f35b34620005405760003660031901126200054057602060405160008152f35b3462000540576020366003190112620005405760206040600435620022c881620005fa565b60018060a01b0380911660005261010d835260ff600283600020845193620022f08562000edf565b815416845260018101548685015201541615159182910152604051908152f35b346200054057602036600319011262000540576004356200233181620005fa565b6200233b620031eb565b61010180546001600160a01b0319166001600160a01b03909216919091179055005b3462000540576000366003190112620005405760ff5460405160089190911c6001600160a01b03168152602090f35b346200054057600080600319360112620014675761010380546001600160a01b0381169033829003620024015761010680546001600160a01b031990811690931790551690556040518181527fad0399dc40331b9a4977aa89da7a164a3fd482c65e6da73b25a94ea74fb6887290602090a180f35b6040516375e686b760e11b8152600490fd5b90600182811c9216801562002445575b60208310146200242f57565b634e487b7160e01b600052602260045260246000fd5b91607f169162002423565b60005b838110620024645750506000910152565b818101518382015260200162002453565b90602091620024908151809281855285808601910162002450565b601f01601f1916010190565b9060206200067292818152019062002475565b3462000540576000806003193601126200146757604051816101098054620024d78162002413565b8085529160019180831690811562002553575060011462002513575b62000c3d85620025068189038262000f2b565b604051918291826200249c565b835260208084209095505b8284106200253f575050508162000c3d9362002506928201019338620024f3565b80548585018701529285019281016200251e565b905062000c3d9650620025069450602092508593915060ff191682840152151560051b8201019338620024f3565b34620005405760008060031936011262001467576200259f62004cb2565b620025aa3362004d09565b620025b53362005907565b33815261010d6020527fa13f4668aacb68c4e9eed8e3f6e1cbec3eca776896ec46b5eabcc3983fc8f5f46200080160408320604051620025f58162000edf565b81546001600160a01b0316815260018201546020820190815260029092015460ff1615156040909101526200262e62001d253362000c7f565b620026436200263d3362000cb5565b620040f7565b620026556200134b61010a5462003f7a565b620026726200266761010554620005ee565b82519033906200502e565b51604051918291338362004c1c565b634e487b7160e01b600052601160045260246000fd5b81810292918115918404141715620026ab57565b62002681565b346200054057600036600319011262000540576020604051620186a08152f35b34620005405760203660031901126200054057620009be600435620026f681620005fa565b6200270960ff60005460081c166200396e565b6200324d565b3462000540576000806003193601126200146757604051816101088054620027378162002413565b80855291600191808316908115620025535750600114620027655762000c3d85620025068189038262000f2b565b835260208084209095505b82841062002791575050508162000c3d9362002506928201019338620024f3565b805485850187015292850192810162002770565b34620005405760403660031901126200054057620009be602435600435620027cd82620005fa565b8060005260c9602052620027e960016040600020015462002f57565b62003172565b34620005405760003660031901126200054057610107546040516001600160a01b039091168152602090f35b3462000540576000366003190112620005405760206040516127108152f35b34620005405760003660031901126200054057610105546040516001600160a01b039091168152602090f35b91908260809103126200054057604051608081016001600160401b0381118282101762000ed95760405260608082948035845260208101356020850152604081013560408501520135910152565b359060038210156200054057565b600411156200054057565b35906200061b82620028c2565b91908260209103126200054057604051602081016001600160401b0381118282101762000ed95760405291358252565b91908260c09103126200054057604051620029258162000efb565b60a080829480356200293781620005fa565b845260208101356200294981620005fa565b60208501526040810135604085015260608101356060850152608081013560808501520135910152565b6001600160401b03811162000ed95760051b60200190565b81601f820112156200054057803591620029a58362002973565b92620029b5604051948562000f2b565b808452602092838086019260051b82010192831162000540578301905b828210620029e1575050505090565b8380918335620029f181620005fa565b815201910190620029d2565b91909161022081840312620005405762002a1662000f90565b9262002a23818362002866565b845262002a3360808301620028b4565b602085015262002a4660a08301620028cd565b604085015262002a5a8160c08401620028da565b606085015262002a6e8160e084016200290a565b608085015262002a826101a083016200063b565b60a085015262002a966101c083016200063b565b60c08501526101e082013560e08501526102008201356001600160401b038111620005405762002ac792016200298b565b610100830152565b9081526001600160a01b03909116602082015260400190565b3462000540576060366003190112620005405760043562002b0981620005fa565b6001600160401b0390602435828111620005405762002b2d903690600401620029fd565b91604435818111620005405762002b4990369060040162001027565b9162002b5861010254620005ee565b9062002b6b62000b9b61010754620005ee565b9262002b7a61010154620005ee565b9062002b8562003a0c565b6040805163184b955960e01b60208201526001600160a01b039788166024820152938716604485015295166064808401919091528252601f199362002bcc60848462000f2b565b85519261041091828501938585109085111762000ed957849362002bf693620059c18639620047b0565b03906000f093841562000846576001600160a01b039462002c1b928791871662004aaf565b948592919462002c2f60c0830151620005ee565b161562002cd7575b50829162002ccc9162002c9e62000c3d9551602081019062002c6c8162002c5f8b85620047d4565b0385810183528262000f2b565b5190208551602081019062002c948162002c878c85620047ef565b0386810183528262000f2b565b519020906200473b565b835162002cc360208201928262002cb68a86620047ef565b0390810183528262000f2b565b51902062003156565b519283928362002acf565b6101009192500192835151612710811162002d5657508251602081019062002d058162002c5f8585620047d4565b5190209260005b855187815183101562002d4057509062001c2062002d33620018618362002d3a9562003f65565b8762003156565b62002d0c565b9396509194509192915062000c3d905062002c37565b835163107b111560e31b81526004810191909152602490fd5b34620005405760203660031901126200054057602060ff6200167f60043562002d9881620005fa565b60008051602062005dd183398151915260005260c98452604060002062000ceb565b3462000540576080366003190112620005405760043562002ddb81620005fa565b6024359062002dea82620005fa565b6001600160401b0391604435838111620005405762002e0e903690600401620029fd565b90606435938411620005405762002e2e62002e3594369060040162001027565b9262004aaf565b9062000c3d6040519283928362002acf565b3462000540576020366003190112620005405760043562002e6881620005fa565b62002e72620031eb565b6001600160a01b0381161562002e8d57620009be906200324d565b60405162461bcd60e51b815260206004820152602660248201527f4f776e61626c653a206e6577206f776e657220697320746865207a65726f206160448201526564647265737360d01b6064820152608490fd5b34620005405760003660031901126200054057610100546040516001600160a01b039091168152602090f35b3462000540576000366003190112620005405762000c3d60405162002f328162000ebd565b60038152620302e360ec1b602082015260405191829160208352602083019062002475565b8060005260c960205260ff62002f7233604060002062000ceb565b54161562002f7d5750565b339062002f89620032da565b91603062002f9784620032f7565b53607862002fa58462003305565b5360295b600181116200305c57620015d16200301762003043866200303462002fda8862002fd4891562003336565b62003382565b62003010604051958694620030106020870160179076020b1b1b2b9b9a1b7b73a3937b61d1030b1b1b7bab73a1604d1b81520190565b90620030a4565b7001034b99036b4b9b9b4b733903937b6329607d1b815260110190565b03601f19810183528262000f2b565b60405162461bcd60e51b8152918291600483016200249c565b90600f811690601082101562000d31576200309e916f181899199a1a9b1b9c1cb0b131b232b360811b901a62003093848762003316565b5360041c9162003328565b62002fa9565b90620030b96020928281519485920162002450565b0190565b60008051602062005dd1833981519152600081815260c96020529060ff620030f58460008051602062005f1183398151915262000ceb565b5416156200310257505050565b80825260c960205262003119836040842062000ceb565b805460ff1916600117905533926001600160a01b0316917f2f8788117e7eff1d82e926ec794901d17c78024a50270940304540a733656f0d9080a4565b60009080825260c960205260ff620030f5846040852062000ceb565b60009080825260c960205260ff6200318e846040852062000ceb565b54166200319a57505050565b80825260c9602052620031b1836040842062000ceb565b805460ff1916905533926001600160a01b0316917ff6391f5c32d9c69d2a47ea670b442974b53935d1edc7fd64eb21e047a839171b9080a4565b620031f562003a0c565b336001600160a01b03909116036200320957565b606460405162461bcd60e51b815260206004820152602060248201527f4f776e61626c653a2063616c6c6572206973206e6f7420746865206f776e65726044820152fd5b603380546001600160a01b039283166001600160a01b03198216811790925590911660008051602062005ed1833981519152600080a3565b9060018201809211620026ab57565b9060028201809211620026ab57565b91908201809211620026ab57565b604051602081016001600160401b0381118282101762000ed95760405260008152906000368137565b60405190620032e98262000edf565b602a82526040366020840137565b80511562000d315760200190565b80516001101562000d315760210190565b90815181101562000d31570160200190565b8015620026ab576000190190565b156200333e57565b606460405162461bcd60e51b815260206004820152602060248201527f537472696e67733a20686578206c656e67746820696e73756666696369656e746044820152fd5b60405190608082016001600160401b0381118382101762000ed9576040526042825260603660208401376030620033b983620032f7565b536078620033c78362003305565b536041905b60018211620033e2576200067291501562003336565b600f811690601082101562000d315762003418916f181899199a1a9b1b9c1cb0b131b232b360811b901a62003093848662003316565b90620033cc565b156200342757565b60405162461bcd60e51b815260206004820152602c602482015260008051602062005e7183398151915260448201526b19195b1959d85d1958d85b1b60a21b6064820152608490fd5b156200347857565b60405162461bcd60e51b815260206004820152602c602482015260008051602062005e7183398151915260448201526b6163746976652070726f787960a01b6064820152608490fd5b9081602091031262000540575190565b6040513d6000823e3d90fd5b15620034e557565b60405162461bcd60e51b815260206004820152602960248201527f45524331393637557067726164653a20756e737570706f727465642070726f786044820152681a58589b195555525160ba1b6064820152608490fd5b60809060208152602e60208201527f45524331393637557067726164653a206e657720696d706c656d656e7461746960408201526d6f6e206973206e6f74205555505360901b60608201520190565b90620035a760008051602062005e118339815191525460ff1690565b15620035b957506200061b9062003713565b6040516352d1902d60e01b8152916020836004816001600160a01b0385165afa600093816200362a575b50620036045760405162461bcd60e51b815280620015d1600482016200353c565b6200362460008051602062005eb18339815191526200061b9414620034dd565b620037a5565b6200364791945060203d81116200083e576200082d818362000f2b565b9238620035e3565b906200366b60008051602062005e118339815191525460ff1690565b156200367d57506200061b9062003713565b6040516352d1902d60e01b8152916020836004816001600160a01b0385165afa60009381620036ee575b50620036c85760405162461bcd60e51b815280620015d1600482016200353c565b620036e860008051602062005eb18339815191526200061b9414620034dd565b6200385b565b6200370b91945060203d81116200083e576200082d818362000f2b565b9238620036a7565b803b156200374a5760008051602062005eb183398151915280546001600160a01b0319166001600160a01b03909216919091179055565b60405162461bcd60e51b815260206004820152602d60248201527f455243313936373a206e657720696d706c656d656e746174696f6e206973206e60448201526c1bdd08184818dbdb9d1c9858dd609a1b6064820152608490fd5b90620037b18262003713565b6001600160a01b03821660008051602062005ef1833981519152600080a280511580159062003852575b620037e4575050565b6200384f9160008060405193620037fb8562000edf565b602785527f416464726573733a206c6f772d6c6576656c2064656c65676174652063616c6c6020860152660819985a5b195960ca1b6040860152602081519101845af462003848620038a2565b91620038d7565b50565b506000620037db565b90620038678262003713565b6001600160a01b03821660008051602062005ef1833981519152600080a28051158015906200389957620037e4575050565b506001620037db565b3d15620038d2573d90620038b68262000fb1565b91620038c6604051938462000f2b565b82523d6000602084013e565b606090565b919290156200393c5750815115620038ed575090565b3b15620038f75790565b60405162461bcd60e51b815260206004820152601d60248201527f416464726573733a2063616c6c20746f206e6f6e2d636f6e74726163740000006044820152606490fd5b825190915015620039505750805190602001fd5b60405162461bcd60e51b8152908190620015d190600483016200249c565b156200397657565b60405162461bcd60e51b815260206004820152602b60248201527f496e697469616c697a61626c653a20636f6e7472616374206973206e6f74206960448201526a6e697469616c697a696e6760a81b6064820152608490fd5b6200061b906200270960ff60005460081c166200396e565b51906200061b82620005fa565b908160209103126200054057516200067281620005fa565b6033546001600160a01b0316803b62003a225790565b604051638da5cb5b60e01b8152602081600481855afa6000918162003a51575b5062003a4c575090565b905090565b62003a6e91925060203d81116200140d57620013fb818362000f2b565b903862003a42565b6001600160a01b0391821681529116602082015260400190565b919290926000549360ff8560081c16158095819662003bc3575b811562003ba0575b501562003b445762003add938562003ad2600160ff196000541617600055565b62003b2957620041f2565b62003ae457565b62003af561ff001960005416600055565b604051600181527f7f26b83ff96e1f2b6a682f133852f6798a09c465da95921460cefb38474024989080602081015b0390a1565b62003b3e61010061ff00196000541617600055565b620041f2565b60405162461bcd60e51b815260206004820152602e60248201527f496e697469616c697a61626c653a20636f6e747261637420697320616c72656160448201526d191e481a5b9a5d1a585b1a5e995960921b6064820152608490fd5b303b1591508162003bb4575b503862003ab2565b6001915060ff16143862003bac565b600160ff821610915062003aaa565b81811062003bde575050565b6000815560010162003bd2565b90601f821162003bf9575050565b6200061b916101086000526020600020906020601f840160051c8301931062003c2b575b601f0160051c019062003bd2565b909150819062003c1d565b90601f821162003c44575050565b6200061b916101096000526020600020906020601f840160051c8301931062003c2b57601f0160051c019062003bd2565b80519091906001600160401b03811162000ed9576101089062003ca48162003c9e845462002413565b62003beb565b602080601f831160011462003ce357508192939460009262003cd7575b50508160011b916000199060031b1c1916179055565b01519050388062003cc1565b610108600052601f198316959091907f8543e9adbfbe1f62b7411fdf032fcfea758a7d6b332f64d971a1334c2ff364dd926000905b88821062003d535750508360019596971062003d39575b505050811b019055565b015160001960f88460031b161c1916905538808062003d2f565b8060018596829496860151815501950193019062003d18565b80519091906001600160401b03811162000ed9576101099062003d9b8162003d95845462002413565b62003c36565b602080601f831160011462003dcd57508192939460009262003cd75750508160011b916000199060031b1c1916179055565b610109600052601f198316959091907fd7f48d1c2d4fdcceabee32a4fd1437f382c65f0f9af09a878c95c20147dc06a8926000905b88821062003e225750508360019596971062003d3957505050811b019055565b8060018596829496860151815501950193019062003e02565b60ff8054610100600160a81b03191660089290921b610100600160a81b0316919091179055565b602090818184031262000540578051906001600160401b0382116200054057019180601f840112156200054057825162003e9c8162002973565b9362003eac604051958662000f2b565b818552838086019260051b82010192831162000540578301905b82821062003ed5575050505090565b838091835162003ee581620005fa565b81520191019062003ec6565b60405190608082016001600160401b0381118382101762000ed957604052600382526060366020840137565b9062003f298262002973565b62003f38604051918262000f2b565b828152809262003f4b601f199162002973565b0190602036910137565b6000198114620026ab5760010190565b805182101562000d315760209160051b010190565b600019810191908211620026ab57565b600119810191908211620026ab57565b91908203918211620026ab57565b9060009161010880549162003fbd8362002413565b91828252600193848116908160001462004024575060011462003fe1575b50505050565b90919394506000526020928360002092846000945b8386106200400f57505050500101903880808062003fdb565b80548587018301529401938590820162003ff6565b9294505050602093945060ff191683830152151560051b0101903880808062003fdb565b9060406020620006729380518452015191816020820152019062002475565b90815180825260208080930193019160005b82811062004088575050505090565b83516001600160a01b03168552938101939281019260010162004079565b90620006729492620040d891835260a06020840152620040c960a0840162003fa8565b90838203604085015262004048565b6001600160a01b03909316606082015280830360809091015262004067565b8054600082558062004107575050565b6200061b9160005260206000209081019062003bd2565b9060031b9160018060a01b03809116831b921b19161790565b8051906001600160401b03821162000ed957600160401b821162000ed957610110908154838355808410620041a4575b50602080910191600052806000209060005b84811062004188575050505050565b83516001600160a01b0316838201559281019260010162004179565b620041be9083600052846020600020918201910162003bd2565b3862004167565b90916200067292825260606020830152620041e36060830162003fa8565b91604081840391015262004048565b9092620041ff90620039cf565b6200420962004768565b62004213620046d0565b6200421d620046e3565b6020808201926200423d6200423762000b9b8651620005ee565b6200478d565b6101008301620042566200423762000b9b8351620005ee565b62004266620042378551620005ee565b60a084016200427a620042378251620005ee565b620042ee620042cc60608701978851620046b7575b620042c5620042a362000b9b8a51620005ee565b61010780546001600160a01b0319166001600160a01b03909216919091179055565b51620005ee565b61010580546001600160a01b0319166001600160a01b03909216919091179055565b604095868601805115620046a657926200438e6200436c620043a7946200432862000b9b9562004322620043d5995160fb55565b5160fc55565b6200434c6200433b6101408c0151151590565b60ff8019815416911515161760ff55565b6200435c6101208b015162003c75565b620042c56101608b015162003d6c565b61010080546001600160a01b0319166001600160a01b03909216919091179055565b620042c5620043a160c0890151620005ee565b62003e3b565b61010680546001600160a01b0319166001600160a01b038316179055620043cf600061010a55565b620030bd565b600482620043ea62000b9b61010754620005ee565b8651635ab1bd5360e01b815292839182905afa80156200084657620044369160009162004684575b5061010480546001600160a01b0319166001600160a01b0392909216919091179055565b6000946200444b62000b9b61010654620005ee565b95863b620045c65750620044f4906200449e6200446762003ef1565b976200448733620044788b620032f7565b6001600160a01b039091169052565b62004478620044978a5162003f7a565b8a62003f65565b620044b33062004478620044978a5162003f8a565b8387620044c762000b9b61010454620005ee565b60e06080890151980197600089518b5197889586948593633a92f65f60e01b8552309160048601620040a6565b03925af191821562000846577f2f2ffcb06f8a1d35e2716f6b43ef2c19bfa76467d8f66964ae12c2583ed0320597620045456200456d946200454b936200458f98600092620045a4575b505060fe55565b62004137565b61010280546001600160a01b0319166001600160a01b03909216919091179055565b61010180546001600160a01b0319166001600160a01b03909216919091179055565b62003b2460fe549151925192839283620041c5565b620045be9250803d106200083e576200082d818362000f2b565b38806200453e565b94929095969391835163a0e67e2b60e01b815286816004818c5afa968715620008465780976200465a575b50506200460962004603875162003294565b62003f1d565b9660005b875181101562004642578062001c2062004630620018616200463c948c62003f65565b62004478838d62003f65565b6200460d565b5090929497620044f4929496506200449e9062004487565b6200467b9297503d8091833e62004672818362000f2b565b81019062003e62565b943880620045f1565b6200469f9150843d86116200140d57620013fb818362000f2b565b3862004412565b87516363868c5560e11b8152600490fd5b620046ca6200423760c08a0151620005ee565b6200428f565b6200061b60ff60005460081c166200396e565b60008051602062005dd1833981519152600081815260c96020527fa867e09674d469ee17077111ff66261f5d2fc5820cc6914676cb47231da58819805490829055909160008051602062005df18339815191528380a4565b8060005260c9602052600160406000200190828254925560008051602062005df1833981519152600080a4565b6200478660ff60005460081c1662004780816200396e565b6200396e565b6001606555565b6001600160a01b0316156200479e57565b6040516303988b8160e61b8152600490fd5b6001600160a01b039091168152604060208201819052620006729291019062002475565b6029916810531313d5d31254d560ba1b825260098201520190565b602f916e20a62627aba624a9aa2fa0a226a4a760891b8252600f8201520190565b60405190610110828154918282526020928383019160005283600020936000905b8282106200484a575050506200061b9250038362000f2b565b85546001600160a01b03168452600195860195889550938101939091019062004831565b9060405191828154918282526020928383019160005283600020936000905b828210620048a6575050506200061b9250038362000f2b565b85546001600160a01b0316845260019586019588955093810193909101906200488d565b634e487b7160e01b600052602160045260246000fd5b906003821015620048ee5752565b620048ca565b60041115620048ee57565b906004821015620048ee5752565b61024062000672926020835262004946602084018251606080918051845260208101516020850152604081015160408501520151910152565b6200495a602082015160a0850190620048e0565b6200496e604082015160c0850190620048ff565b60608101515160e084015260808181015180516001600160a01b03908116610100878101919091526020830151909116610120870152604082015161014087015260608201516101608701529181015161018086015260a001516101a08501529060a08101516001600160a01b03166101c085015260c08101516001600160a01b03166101e085015260e081015161020085015201519161022080820152019062004067565b94909162004a4a62004a669462000672989694885260018060a01b03809316602089015260e0604089015260e088019062002475565b921660608601526000608086015284820360a086015262004048565b9160c081840391015262004067565b9081526001600160a01b0391821660208201529181166040830152909116606082015260a060808201819052620006729291019062004048565b9093919273eeeeeeeeeeeeeeeeeeeeeeeeeeeeeeeeeeeeeeee916001600160a01b03861662004bc3575b602062004b1d829683600062004aee62004810565b9262004b4b62004b0562000b9b61010754620005ee565b9462004b2c60fe54936040519889918b83016200490d565b03601f19810189528862000f2b565b896040519b8c98899788966370803ea560e11b88526004880162004a14565b03925af191821562000846577f778cac0ae0b66477341553a4a89398c61ccf448313d3354ad0ca85a5a825d2839360009362004b99575b5062003b2490839760405194859430918662004a75565b62003b2491935062004bbb9060203d81116200083e576200082d818362000f2b565b929062004b82565b85925062004ad9565b9060405162004bdb8162000edf565b82546001600160a01b031681526001830154602082015260029092015460ff1615156040830152565b908160209103126200054057516200067281620028c2565b6001600160a01b039091168152602081019190915260400190565b8054909262004c52926001600160a01b03909116916200411e565b9055565b805490600160401b82101562000ed9578162004c7c91600162004c529401815562000d18565b815491936001600160a01b0316916200411e565b6001600160a01b03918216815291166020820152604081019190915260600190565b60026065541462004cc4576002606555565b60405162461bcd60e51b815260206004820152601f60248201527f5265656e7472616e637947756172643a207265656e7472616e742063616c6c006044820152606490fd5b60018060a01b0380911660005261010d60205260ff600260406000206040519362004d348562000edf565b81541684526001810154602085015201541615906040821591015262001d7857565b6001600160a01b0316600090815261010b602052604090205460ff161562004d7a57565b6040516346c26e4b60e01b8152600490fd5b6001600160a01b0391821691160362004da157565b60405163bbe7961160e01b8152600490fd5b8054801562004de357600019019062004dcd828262000d18565b81549060018060a01b039060031b1b1916905555565b634e487b7160e01b600052603160045260246000fd5b909160018060a01b0380921660005261010e602052604060002060005b8154908181101562004ea95762004e2e818462000d18565b905460039391841b1c86168787161462004e56575b5062004e50915062003f55565b62004e16565b6000198101908111620026ab5762004e509262004e7587928662000d18565b9054911b1c1662004e9562004e8b838662000d18565b819391546200411e565b905562004ea28362004db3565b3862004e43565b505050915050565b9062004eec9062004edd6200061b956040519586936323b872dd60e01b60208601526024850162004c90565b03601f19810184528362000f2b565b60405162004f49916001600160a01b031662004f088262000ebd565b6000806020958685527f5361666545524332303a206c6f772d6c6576656c2063616c6c206661696c656487860152868151910182855af162003848620038a2565b805182811591821562004fbb575b505090501562004f645750565b6084906040519062461bcd60e51b82526004820152602a60248201527f5361666545524332303a204552433230206f7065726174696f6e20646964206e6044820152691bdd081cdd58d8d9595960b21b6064820152fd5b8380929350010312620005405781015162004fd68162001075565b80823862004f57565b3360005261010d602052604060002060ff600260405192620050018462000edf565b80546001600160a01b031684526001810154602085015201541615801560409092019190915262001d7857565b62004eec6200061b939262004edd60405194859263a9059cbb60e01b60208501526024840162004c1c565b6040519060208083018160006301ffc9a760e01b9586845286602482015260248152620050868162000edf565b51617530938685fa933d600051908662005139575b50856200512e575b5084620050c4575b50505081620050b8575090565b62000672915062005145565b83945090600091839460405185810192835263ffffffff60e01b602482015260248152620050f28162000edf565b5192fa60005190913d8362005122575b50508162005117575b501590388080620050ab565b90501515386200510b565b10159150388062005102565b1515945038620050a3565b8411159550386200509b565b6000602091604051838101906301ffc9a760e01b825263f1801e6160e01b602482015260248152620051778162000edf565b5191617530fa6000513d826200519a575b508162005193575090565b9050151590565b6020111591503862005188565b91906040838203126200054057604051620051c28162000ebd565b83518152602084015190938491906001600160401b0382116200054057019082601f830112156200054057815191620051fb8362000fb1565b936200520b604051958662000f2b565b8385526020848301011162000540576020926200522e9184808701910162002450565b0152565b90602082820312620005405781516001600160401b039283821162000540570160c0818303126200054057604051926200526c8462000efb565b8151845260208201516200528081620005fa565b60208501526200529360408301620039e7565b60408501526060820151908111620005405760a092620052b5918301620051a7565b606084015260808101516080840152015160a082015290565b60008051602062005dd183398151915260005260c960205260ff620053033360008051602062005f1183398151915262000ceb565b5416156200530d57565b60405163fc4be72f60e01b8152336004820152602490fd5b62005334620006d78262000cd0565b620054445762005348620007d18262000cd0565b60405163b6c61f3160e01b81526001600160a01b03906020816004818686165afa908115620008465760009162005421575b501680620053a6575b5062003b2460008051602062005e91833981519152916040519182918262000d37565b90813b156200054057600060405180936306c0752d60e51b8252818381620053d2876004830162000d37565b03925af1908115620008465760008051602062005e918339815191529262003b249262005403575b50915062005383565b80620054136200541a9262000f17565b8062000545565b38620053fa565b6200543d915060203d81116200140d57620013fb818362000f2b565b386200537a565b6040516325a2934b60e21b8152600490fd5b60207f09a1db4b80c32706328728508c941a6b954f31eb5affd32f236c1fd405f8fea49162005485816200478d565b6001600160a01b0316600081815261010b8352604090819020805460ff1916905551908152a1565b60407f83eac9fdaff0ac1017624b7eddeb9782e3d707cd894073cb7e8301a41c6e5cf891620054db620052ce565b6001600160a01b0390811690620054f2826200478d565b61010380546001600160a01b03191683179055610106548351911681526020810191909152a1565b61010a5480620055275750565b60249060405190637d95539f60e11b82526004820152fd5b6040519060008261010991825492620055588462002413565b908184526001948581169081600014620055cd575060011462005586575b50506200061b9250038362000f2b565b9093915060005260209081600020936000915b818310620055b45750506200061b9350820101388062005576565b8554888401850152948501948794509183019162005599565b9150506200061b94506020925060ff191682840152151560051b820101388062005576565b604051906200061b82620056068162003fa8565b038362000f2b565b62005618620052ce565b805160fb54809114801590620058e3575b8015620058bd575b6200579e575b5060c081018051602081519101206200564f620055f2565b602081519101200362005754575b5060a081015160fc5481036200572b575b50620056c16060620056846080840151620005ee565b60ff54909390620056a19060081c6001600160a01b0316620005ee565b6001600160a01b039490858216908103620056d6575b50500151620005ee565b1680620056cb5750565b6200061b90620054ad565b620056e3575b80620056b7565b6200572181620057147f647672599d3468abcfa241a13c9e3d34383caadb5cc80fb67c3cdfcd5f7860599362003e3b565b6040519182918262000d37565b0390a138620056dc565b6200574a8162000c2d60008051602062005f318339815191529360fc55565b0390a1386200566e565b6200579481620057867ff67fb6c95f41f58a276869ca2608214f0a6aab1c9ffe445affaa58680fddd497935162003c75565b51604051918291826200249c565b0390a1386200565d565b620057a86200551a565b815190810362005894575b5060208101511515620057d1620057cc60ff5460ff1690565b151590565b811515036200583c575b5060408101805160208151910120620057f36200553f565b602081519101201462005637576200583281620057867f8fd46764d9fde733a671bd3aa6710da0668b1c4eb78d33f42e104553ea4bc76e935162003d6c565b0390a13862005637565b6200588a81620058787f4ca826489011b9a44719ccfa206813b072bb58604af41f245a6a1a6d913588759360ff8019815416911515161760ff55565b60405190151581529081906020820190565b0390a138620057db565b620058b38162000c2d60008051602062005e518339815191529360fb55565b0390a138620057b3565b50604082015160208151910120620058d46200553f565b60208151910120141562005631565b5060208201511515620058fc620057cc60ff5460ff1690565b901515141562005629565b9060009160018060a01b038116835261010e6020526040906200592c8285206200486e565b845b8151811015620059b8576200595062000b9b62000b9b62001861848662003f65565b90813b15620059b4578685518093631914f67160e21b82528183816200597a8a6004830162000d37565b03925af1918215620008465762005997926200599d575062003f55565b6200592e565b8062005413620059ad9262000f17565b38620018b3565b8680fd5b50505050905056fe604060808152610410908138038061001681610218565b93843982019181818403126102135780516001600160a01b038116808203610213576020838101516001600160401b0394919391858211610213570186601f820112156102135780519061007161006c83610253565b610218565b918083528583019886828401011161021357888661008f930161026e565b813b156101b9577f360894a13ba1a3210667c828492db98dca3e2076cc3735a920a3ca505d382bbc80546001600160a01b031916841790556000927fbc7cd75a20ee27fd9adebab32041f755214dbc6bffa90cc0225b39da2e5c2d3b8480a28051158015906101b2575b61010b575b855160cb90816103458239f35b855194606086019081118682101761019e578697849283926101889952602788527f416464726573733a206c6f772d6c6576656c2064656c65676174652063616c6c87890152660819985a5b195960ca1b8a8901525190845af4913d15610194573d9061017a61006c83610253565b91825281943d92013e610291565b508038808080806100fe565b5060609250610291565b634e487b7160e01b84526041600452602484fd5b50826100f9565b855162461bcd60e51b815260048101859052602d60248201527f455243313936373a206e657720696d706c656d656e746174696f6e206973206e60448201526c1bdd08184818dbdb9d1c9858dd609a1b6064820152608490fd5b600080fd5b6040519190601f01601f191682016001600160401b0381118382101761023d57604052565b634e487b7160e01b600052604160045260246000fd5b6001600160401b03811161023d57601f01601f191660200190565b60005b8381106102815750506000910152565b8181015183820152602001610271565b919290156102f357508151156102a5575090565b3b156102ae5790565b60405162461bcd60e51b815260206004820152601d60248201527f416464726573733a2063616c6c20746f206e6f6e2d636f6e74726163740000006044820152606490fd5b8251909150156103065750805190602001fd5b6044604051809262461bcd60e51b825260206004830152610336815180928160248601526020868601910161026e565b601f01601f19168101030190fdfe60806040523615604157600080516020607683398151915254600090819081906001600160a01b0316368280378136915af43d82803e15603d573d90f35b3d90fd5b600080516020607683398151915254600090819081906001600160a01b0316368280378136915af43d82803e15603d573d90f3fe360894a13ba1a3210667c828492db98dca3e2076cc3735a920a3ca505d382bbca2646970667358221220b9c533c5cbdc91d32688faca813a72cb34b28bff1b053c4cc32424f62e37a71f64736f6c6343000813003303be538b6391ddcd7f2649585cc95b120c9e2a613f70714fbb55345057d809fabd79b86ffe0ab8e8776151514217cd7cacd52c909f66475c3af44e129f0b00ff4910fdfa16fed3260ed0e7147f7cc6da11a60208b5b9406d12a635614ffd9143f56fa57e85e169a12200d12d9921ec069b52e688f6d309d9dab7bceff54614ec5bcc2c453001fb0e2ba6266d56ecb411e7c6e15c8f9c3d301f93dd36ad25726f46756e6374696f6e206d7573742062652063616c6c6564207468726f756768203f008fd510eae7a9e7bee13513d7b83bef8003d488b5a3d0b0da4de71d6846f1360894a13ba1a3210667c828492db98dca3e2076cc3735a920a3ca505d382bbc8be0079c531659141344cd1fd0a4f28419497f9722a3daafe3b4186f6b6457e0bc7cd75a20ee27fd9adebab32041f755214dbc6bffa90cc0225b39da2e5c2d3ba867e09674d469ee17077111ff66261f5d2fc5820cc6914676cb47231da58818611668bfcf654a99c33cdb66c29ec37a5aae5c1287d2d9715a24e18cb4d806d6a264697066735822122078becb1a45e67700cf409dbe2817c786925448c2e9fd6e659abc6d61aff50ef564736f6c63430008130033","linkReferences":{}},"methodIdentifiers":{"COUNCIL_MEMBER()":"733a2d1f","DEFAULT_ADMIN_ROLE()":"a217fddf","MAX_FEE()":"bc063e1a","NATIVE()":"a0cf0aea","PRECISION_SCALE()":"d7050f07","VERSION()":"ffa1ad74","acceptCouncilSafe()":"b5058c50","activateMemberInStrategy(address,address)":"0d4a8b49","addStrategy(address)":"223e5479","addStrategyByPoolId(uint256)":"82d6a1e7","addressToMemberInfo(address)":"88cfe684","allo()":"d6d8428d","cloneNonce()":"33960459","collateralVaultTemplate()":"77122d56","communityFee()":"8961be6b","communityName()":"c6d572ae","councilSafe()":"6c53db9a","covenantIpfsHash()":"b64e39af","createPool(address,((uint256,uint256,uint256,uint256),uint8,uint8,(uint256),(address,address,uint256,uint256,uint256,uint256),address,address,uint256,address[]),(uint256,string))":"e0eab988","createPool(address,address,((uint256,uint256,uint256,uint256),uint8,uint8,(uint256),(address,address,uint256,uint256,uint256,uint256),address,address,uint256,address[]),(uint256,string))":"f24b150f","deactivateMemberInStrategy(address,address)":"22bcf999","decreasePower(uint256)":"5ecf71c5","enabledStrategies(address)":"3a871fe1","feeReceiver()":"b3f00674","gardenToken()":"db61d65c","getBasisStakedAmount()":"0331383c","getMemberPowerInStrategy(address,address)":"7817ee4f","getMemberStakedAmount(address)":"2c611c4a","getRoleAdmin(bytes32)":"248a9ca3","getStakeAmountWithFees()":"28c309e9","grantRole(bytes32,address)":"2f2ff15d","hasRole(bytes32,address)":"91d14854","increasePower(uint256)":"559de05d","initialize((address,address,uint256,uint256,uint256,address,address,(uint256,string),address,string,bool,string),address,address,address)":"34196355","initialize(address)":"c4d66de8","isCouncilMember(address)":"ebd7dc52","isKickEnabled()":"1f787d28","isMember(address)":"a230c524","kickMember(address,address)":"6871eb4d","memberActivatedInStrategies(address,address)":"477a5cc0","memberPowerInStrategy(address,address)":"65e3864c","owner()":"8da5cb5b","pendingCouncilSafe()":"68decabb","profileId()":"08386eba","proxiableUUID()":"52d1902d","registerStakeAmount()":"78a0b8a9","registry()":"7b103999","registryFactory()":"f86c5f89","removeStrategy(address)":"175188e8","removeStrategyByPoolId(uint256)":"73265c37","renounceOwnership()":"715018a6","renounceRole(bytes32,address)":"36568abe","revokeRole(bytes32,address)":"d547741f","setBasisStakedAmount(uint256)":"31f61bca","setCollateralVaultTemplate(address)":"b0d3713a","setCommunityFee(uint256)":"0d12bbdb","setCommunityParams((uint256,bool,string,address,address,uint256,string))":"977ef519","setCouncilSafe(address)":"397e2543","setKickEnabled()":"a042f428","setStrategyTemplate(address)":"1b71f0e4","stakeAndRegisterMember()":"3517aa7d","strategiesByMember(address,uint256)":"2b38c69c","strategyTemplate()":"5c94e4d2","supportsInterface(bytes4)":"01ffc9a7","totalMembers()":"76e92559","transferOwnership(address)":"f2fde38b","unregisterMember()":"b99b4370","upgradeTo(address)":"3659cfe6","upgradeToAndCall(address,bytes)":"4f1ef286"},"storageLayout":{"storage":[{"astId":52287,"contract":"pkg/contracts/src/RegistryCommunity/RegistryCommunityV0_0.sol:RegistryCommunityV0_0","label":"_initialized","offset":0,"slot":"0","type":"t_uint8"},{"astId":52290,"contract":"pkg/contracts/src/RegistryCommunity/RegistryCommunityV0_0.sol:RegistryCommunityV0_0","label":"_initializing","offset":1,"slot":"0","type":"t_bool"},{"astId":52992,"contract":"pkg/contracts/src/RegistryCommunity/RegistryCommunityV0_0.sol:RegistryCommunityV0_0","label":"__gap","offset":0,"slot":"1","type":"t_array(t_uint256)50_storage"},{"astId":52079,"contract":"pkg/contracts/src/RegistryCommunity/RegistryCommunityV0_0.sol:RegistryCommunityV0_0","label":"_owner","offset":0,"slot":"51","type":"t_address"},{"astId":52199,"contract":"pkg/contracts/src/RegistryCommunity/RegistryCommunityV0_0.sol:RegistryCommunityV0_0","label":"__gap","offset":0,"slot":"52","type":"t_array(t_uint256)49_storage"},{"astId":52464,"contract":"pkg/contracts/src/RegistryCommunity/RegistryCommunityV0_0.sol:RegistryCommunityV0_0","label":"_status","offset":0,"slot":"101","type":"t_uint256"},{"astId":52533,"contract":"pkg/contracts/src/RegistryCommunity/RegistryCommunityV0_0.sol:RegistryCommunityV0_0","label":"__gap","offset":0,"slot":"102","type":"t_array(t_uint256)49_storage"},{"astId":53266,"contract":"pkg/contracts/src/RegistryCommunity/RegistryCommunityV0_0.sol:RegistryCommunityV0_0","label":"__gap","offset":0,"slot":"151","type":"t_array(t_uint256)50_storage"},{"astId":51686,"contract":"pkg/contracts/src/RegistryCommunity/RegistryCommunityV0_0.sol:RegistryCommunityV0_0","label":"_roles","offset":0,"slot":"201","type":"t_mapping(t_bytes32,t_struct(RoleData)51681_storage)"},{"astId":51993,"contract":"pkg/contracts/src/RegistryCommunity/RegistryCommunityV0_0.sol:RegistryCommunityV0_0","label":"__gap","offset":0,"slot":"202","type":"t_array(t_uint256)49_storage"},{"astId":70796,"contract":"pkg/contracts/src/RegistryCommunity/RegistryCommunityV0_0.sol:RegistryCommunityV0_0","label":"registerStakeAmount","offset":0,"slot":"251","type":"t_uint256"},{"astId":70799,"contract":"pkg/contracts/src/RegistryCommunity/RegistryCommunityV0_0.sol:RegistryCommunityV0_0","label":"communityFee","offset":0,"slot":"252","type":"t_uint256"},{"astId":70802,"contract":"pkg/contracts/src/RegistryCommunity/RegistryCommunityV0_0.sol:RegistryCommunityV0_0","label":"cloneNonce","offset":0,"slot":"253","type":"t_uint256"},{"astId":70805,"contract":"pkg/contracts/src/RegistryCommunity/RegistryCommunityV0_0.sol:RegistryCommunityV0_0","label":"profileId","offset":0,"slot":"254","type":"t_bytes32"},{"astId":70808,"contract":"pkg/contracts/src/RegistryCommunity/RegistryCommunityV0_0.sol:RegistryCommunityV0_0","label":"isKickEnabled","offset":0,"slot":"255","type":"t_bool"},{"astId":70811,"contract":"pkg/contracts/src/RegistryCommunity/RegistryCommunityV0_0.sol:RegistryCommunityV0_0","label":"feeReceiver","offset":1,"slot":"255","type":"t_address"},{"astId":70814,"contract":"pkg/contracts/src/RegistryCommunity/RegistryCommunityV0_0.sol:RegistryCommunityV0_0","label":"registryFactory","offset":0,"slot":"256","type":"t_address"},{"astId":70817,"contract":"pkg/contracts/src/RegistryCommunity/RegistryCommunityV0_0.sol:RegistryCommunityV0_0","label":"collateralVaultTemplate","offset":0,"slot":"257","type":"t_address"},{"astId":70820,"contract":"pkg/contracts/src/RegistryCommunity/RegistryCommunityV0_0.sol:RegistryCommunityV0_0","label":"strategyTemplate","offset":0,"slot":"258","type":"t_address"},{"astId":70823,"contract":"pkg/contracts/src/RegistryCommunity/RegistryCommunityV0_0.sol:RegistryCommunityV0_0","label":"pendingCouncilSafe","offset":0,"slot":"259","type":"t_address_payable"},{"astId":70827,"contract":"pkg/contracts/src/RegistryCommunity/RegistryCommunityV0_0.sol:RegistryCommunityV0_0","label":"registry","offset":0,"slot":"260","type":"t_contract(IRegistry)2802"},{"astId":70831,"contract":"pkg/contracts/src/RegistryCommunity/RegistryCommunityV0_0.sol:RegistryCommunityV0_0","label":"gardenToken","offset":0,"slot":"261","type":"t_contract(IERC20)55825"},{"astId":70835,"contract":"pkg/contracts/src/RegistryCommunity/RegistryCommunityV0_0.sol:RegistryCommunityV0_0","label":"councilSafe","offset":0,"slot":"262","type":"t_contract(ISafe)76388"},{"astId":70839,"contract":"pkg/contracts/src/RegistryCommunity/RegistryCommunityV0_0.sol:RegistryCommunityV0_0","label":"allo","offset":0,"slot":"263","type":"t_contract(FAllo)76121"},{"astId":70842,"contract":"pkg/contracts/src/RegistryCommunity/RegistryCommunityV0_0.sol:RegistryCommunityV0_0","label":"communityName","offset":0,"slot":"264","type":"t_string_storage"},{"astId":70845,"contract":"pkg/contracts/src/RegistryCommunity/RegistryCommunityV0_0.sol:RegistryCommunityV0_0","label":"covenantIpfsHash","offset":0,"slot":"265","type":"t_string_storage"},{"astId":70848,"contract":"pkg/contracts/src/RegistryCommunity/RegistryCommunityV0_0.sol:RegistryCommunityV0_0","label":"totalMembers","offset":0,"slot":"266","type":"t_uint256"},{"astId":70853,"contract":"pkg/contracts/src/RegistryCommunity/RegistryCommunityV0_0.sol:RegistryCommunityV0_0","label":"enabledStrategies","offset":0,"slot":"267","type":"t_mapping(t_address,t_bool)"},{"astId":70860,"contract":"pkg/contracts/src/RegistryCommunity/RegistryCommunityV0_0.sol:RegistryCommunityV0_0","label":"memberPowerInStrategy","offset":0,"slot":"268","type":"t_mapping(t_address,t_mapping(t_address,t_uint256))"},{"astId":70866,"contract":"pkg/contracts/src/RegistryCommunity/RegistryCommunityV0_0.sol:RegistryCommunityV0_0","label":"addressToMemberInfo","offset":0,"slot":"269","type":"t_mapping(t_address,t_struct(Member)70574_storage)"},{"astId":70872,"contract":"pkg/contracts/src/RegistryCommunity/RegistryCommunityV0_0.sol:RegistryCommunityV0_0","label":"strategiesByMember","offset":0,"slot":"270","type":"t_mapping(t_address,t_array(t_address)dyn_storage)"},{"astId":70879,"contract":"pkg/contracts/src/RegistryCommunity/RegistryCommunityV0_0.sol:RegistryCommunityV0_0","label":"memberActivatedInStrategies","offset":0,"slot":"271","type":"t_mapping(t_address,t_mapping(t_address,t_bool))"},{"astId":70883,"contract":"pkg/contracts/src/RegistryCommunity/RegistryCommunityV0_0.sol:RegistryCommunityV0_0","label":"initialMembers","offset":0,"slot":"272","type":"t_array(t_address)dyn_storage"},{"astId":72867,"contract":"pkg/contracts/src/RegistryCommunity/RegistryCommunityV0_0.sol:RegistryCommunityV0_0","label":"__gap","offset":0,"slot":"273","type":"t_array(t_uint256)50_storage"}],"types":{"t_address":{"encoding":"inplace","label":"address","numberOfBytes":"20"},"t_address_payable":{"encoding":"inplace","label":"address payable","numberOfBytes":"20"},"t_array(t_address)dyn_storage":{"encoding":"dynamic_array","label":"address[]","numberOfBytes":"32","base":"t_address"},"t_array(t_uint256)49_storage":{"encoding":"inplace","label":"uint256[49]","numberOfBytes":"1568","base":"t_uint256"},"t_array(t_uint256)50_storage":{"encoding":"inplace","label":"uint256[50]","numberOfBytes":"1600","base":"t_uint256"},"t_bool":{"encoding":"inplace","label":"bool","numberOfBytes":"1"},"t_bytes32":{"encoding":"inplace","label":"bytes32","numberOfBytes":"32"},"t_contract(FAllo)76121":{"encoding":"inplace","label":"contract FAllo","numberOfBytes":"20"},"t_contract(IERC20)55825":{"encoding":"inplace","label":"contract IERC20","numberOfBytes":"20"},"t_contract(IRegistry)2802":{"encoding":"inplace","label":"contract IRegistry","numberOfBytes":"20"},"t_contract(ISafe)76388":{"encoding":"inplace","label":"contract ISafe","numberOfBytes":"20"},"t_mapping(t_address,t_array(t_address)dyn_storage)":{"encoding":"mapping","key":"t_address","label":"mapping(address => address[])","numberOfBytes":"32","value":"t_array(t_address)dyn_storage"},"t_mapping(t_address,t_bool)":{"encoding":"mapping","key":"t_address","label":"mapping(address => bool)","numberOfBytes":"32","value":"t_bool"},"t_mapping(t_address,t_mapping(t_address,t_bool))":{"encoding":"mapping","key":"t_address","label":"mapping(address => mapping(address => bool))","numberOfBytes":"32","value":"t_mapping(t_address,t_bool)"},"t_mapping(t_address,t_mapping(t_address,t_uint256))":{"encoding":"mapping","key":"t_address","label":"mapping(address => mapping(address => uint256))","numberOfBytes":"32","value":"t_mapping(t_address,t_uint256)"},"t_mapping(t_address,t_struct(Member)70574_storage)":{"encoding":"mapping","key":"t_address","label":"mapping(address => struct Member)","numberOfBytes":"32","value":"t_struct(Member)70574_storage"},"t_mapping(t_address,t_uint256)":{"encoding":"mapping","key":"t_address","label":"mapping(address => uint256)","numberOfBytes":"32","value":"t_uint256"},"t_mapping(t_bytes32,t_struct(RoleData)51681_storage)":{"encoding":"mapping","key":"t_bytes32","label":"mapping(bytes32 => struct AccessControlUpgradeable.RoleData)","numberOfBytes":"32","value":"t_struct(RoleData)51681_storage"},"t_string_storage":{"encoding":"bytes","label":"string","numberOfBytes":"32"},"t_struct(Member)70574_storage":{"encoding":"inplace","label":"struct Member","numberOfBytes":"96","members":[{"astId":70569,"contract":"pkg/contracts/src/RegistryCommunity/RegistryCommunityV0_0.sol:RegistryCommunityV0_0","label":"member","offset":0,"slot":"0","type":"t_address"},{"astId":70571,"contract":"pkg/contracts/src/RegistryCommunity/RegistryCommunityV0_0.sol:RegistryCommunityV0_0","label":"stakedAmount","offset":0,"slot":"1","type":"t_uint256"},{"astId":70573,"contract":"pkg/contracts/src/RegistryCommunity/RegistryCommunityV0_0.sol:RegistryCommunityV0_0","label":"isRegistered","offset":0,"slot":"2","type":"t_bool"}]},"t_struct(RoleData)51681_storage":{"encoding":"inplace","label":"struct AccessControlUpgradeable.RoleData","numberOfBytes":"64","members":[{"astId":51678,"contract":"pkg/contracts/src/RegistryCommunity/RegistryCommunityV0_0.sol:RegistryCommunityV0_0","label":"members","offset":0,"slot":"0","type":"t_mapping(t_address,t_bool)"},{"astId":51680,"contract":"pkg/contracts/src/RegistryCommunity/RegistryCommunityV0_0.sol:RegistryCommunityV0_0","label":"adminRole","offset":0,"slot":"1","type":"t_bytes32"}]},"t_uint256":{"encoding":"inplace","label":"uint256","numberOfBytes":"32"},"t_uint8":{"encoding":"inplace","label":"uint8","numberOfBytes":"1"}}},"id":105}