{"abi":[{"type":"fallback","stateMutability":"payable"},{"type":"receive","stateMutability":"payable"},{"type":"function","name":"D","inputs":[],"outputs":[{"name":"","type":"uint256","internalType":"uint256"}],"stateMutability":"view"},{"type":"function","name":"DISPUTE_COOLDOWN_SEC","inputs":[],"outputs":[{"name":"","type":"uint256","internalType":"uint256"}],"stateMutability":"view"},{"type":"function","name":"MAX_STAKED_PROPOSALS","inputs":[],"outputs":[{"name":"","type":"uint256","internalType":"uint256"}],"stateMutability":"view"},{"type":"function","name":"NATIVE","inputs":[],"outputs":[{"name":"","type":"address","internalType":"address"}],"stateMutability":"view"},{"type":"function","name":"RULING_OPTIONS","inputs":[],"outputs":[{"name":"","type":"uint256","internalType":"uint256"}],"stateMutability":"view"},{"type":"function","name":"VERSION","inputs":[],"outputs":[{"name":"","type":"string","internalType":"string"}],"stateMutability":"view"},{"type":"function","name":"activatePoints","inputs":[],"outputs":[],"stateMutability":"nonpayable"},{"type":"function","name":"addToAllowList","inputs":[{"name":"members","type":"address[]","internalType":"address[]"}],"outputs":[],"stateMutability":"nonpayable"},{"type":"function","name":"allocate","inputs":[{"name":"_data","type":"bytes","internalType":"bytes"},{"name":"_sender","type":"address","internalType":"address"}],"outputs":[],"stateMutability":"payable"},{"type":"function","name":"arbitrableConfigs","inputs":[{"name":"","type":"uint256","internalType":"uint256"}],"outputs":[{"name":"arbitrator","type":"address","internalType":"contract IArbitrator"},{"name":"tribunalSafe","type":"address","internalType":"address"},{"name":"submitterCollateralAmount","type":"uint256","internalType":"uint256"},{"name":"challengerCollateralAmount","type":"uint256","internalType":"uint256"},{"name":"defaultRuling","type":"uint256","internalType":"uint256"},{"name":"defaultRulingTimeout","type":"uint256","internalType":"uint256"}],"stateMutability":"view"},{"type":"function","name":"calculateConviction","inputs":[{"name":"_timePassed","type":"uint256","internalType":"uint256"},{"name":"_lastConv","type":"uint256","internalType":"uint256"},{"name":"_oldAmount","type":"uint256","internalType":"uint256"}],"outputs":[{"name":"","type":"uint256","internalType":"uint256"}],"stateMutability":"view"},{"type":"function","name":"calculateThreshold","inputs":[{"name":"_requestedAmount","type":"uint256","internalType":"uint256"}],"outputs":[{"name":"_threshold","type":"uint256","internalType":"uint256"}],"stateMutability":"view"},{"type":"function","name":"canExecuteProposal","inputs":[{"name":"proposalId","type":"uint256","internalType":"uint256"}],"outputs":[{"name":"canBeExecuted","type":"bool","internalType":"bool"}],"stateMutability":"view"},{"type":"function","name":"cancelProposal","inputs":[{"name":"proposalId","type":"uint256","internalType":"uint256"}],"outputs":[],"stateMutability":"nonpayable"},{"type":"function","name":"cloneNonce","inputs":[],"outputs":[{"name":"","type":"uint256","internalType":"uint256"}],"stateMutability":"view"},{"type":"function","name":"collateralVault","inputs":[],"outputs":[{"name":"","type":"address","internalType":"contract ICollateralVault"}],"stateMutability":"view"},{"type":"function","name":"currentArbitrableConfigVersion","inputs":[],"outputs":[{"name":"","type":"uint256","internalType":"uint256"}],"stateMutability":"view"},{"type":"function","name":"cvParams","inputs":[],"outputs":[{"name":"maxRatio","type":"uint256","internalType":"uint256"},{"name":"weight","type":"uint256","internalType":"uint256"},{"name":"decay","type":"uint256","internalType":"uint256"},{"name":"minThresholdPoints","type":"uint256","internalType":"uint256"}],"stateMutability":"view"},{"type":"function","name":"deactivatePoints","inputs":[],"outputs":[],"stateMutability":"nonpayable"},{"type":"function","name":"deactivatePoints","inputs":[{"name":"_member","type":"address","internalType":"address"}],"outputs":[],"stateMutability":"nonpayable"},{"type":"function","name":"decreasePower","inputs":[{"name":"_member","type":"address","internalType":"address"},{"name":"_amountToUnstake","type":"uint256","internalType":"uint256"}],"outputs":[{"name":"","type":"uint256","internalType":"uint256"}],"stateMutability":"nonpayable"},{"type":"function","name":"disputeCount","inputs":[],"outputs":[{"name":"","type":"uint64","internalType":"uint64"}],"stateMutability":"view"},{"type":"function","name":"disputeIdToProposalId","inputs":[{"name":"","type":"uint256","internalType":"uint256"}],"outputs":[{"name":"","type":"uint256","internalType":"uint256"}],"stateMutability":"view"},{"type":"function","name":"disputeProposal","inputs":[{"name":"proposalId","type":"uint256","internalType":"uint256"},{"name":"context","type":"string","internalType":"string"},{"name":"_extraData","type":"bytes","internalType":"bytes"}],"outputs":[{"name":"disputeId","type":"uint256","internalType":"uint256"}],"stateMutability":"payable"},{"type":"function","name":"distribute","inputs":[{"name":"_recipientIds","type":"address[]","internalType":"address[]"},{"name":"_data","type":"bytes","internalType":"bytes"},{"name":"_sender","type":"address","internalType":"address"}],"outputs":[],"stateMutability":"nonpayable"},{"type":"function","name":"getAllo","inputs":[],"outputs":[{"name":"","type":"address","internalType":"contract IAllo"}],"stateMutability":"view"},{"type":"function","name":"getArbitrableConfig","inputs":[],"outputs":[{"name":"arbitrator","type":"address","internalType":"contract IArbitrator"},{"name":"tribunalSafe","type":"address","internalType":"address"},{"name":"submitterCollateralAmount","type":"uint256","internalType":"uint256"},{"name":"challengerCollateralAmount","type":"uint256","internalType":"uint256"},{"name":"defaultRuling","type":"uint256","internalType":"uint256"},{"name":"defaultRulingTimeout","type":"uint256","internalType":"uint256"}],"stateMutability":"view"},{"type":"function","name":"getDecay","inputs":[],"outputs":[{"name":"","type":"uint256","internalType":"uint256"}],"stateMutability":"view"},{"type":"function","name":"getMaxAmount","inputs":[],"outputs":[{"name":"","type":"uint256","internalType":"uint256"}],"stateMutability":"view"},{"type":"function","name":"getMaxConviction","inputs":[{"name":"amount","type":"uint256","internalType":"uint256"}],"outputs":[{"name":"","type":"uint256","internalType":"uint256"}],"stateMutability":"view"},{"type":"function","name":"getMetadata","inputs":[{"name":"_proposalId","type":"uint256","internalType":"uint256"}],"outputs":[{"name":"","type":"tuple","internalType":"struct Metadata","components":[{"name":"protocol","type":"uint256","internalType":"uint256"},{"name":"pointer","type":"string","internalType":"string"}]}],"stateMutability":"view"},{"type":"function","name":"getPayouts","inputs":[{"name":"","type":"address[]","internalType":"address[]"},{"name":"","type":"bytes[]","internalType":"bytes[]"}],"outputs":[{"name":"","type":"tuple[]","internalType":"struct IStrategy.PayoutSummary[]","components":[{"name":"recipientAddress","type":"address","internalType":"address"},{"name":"amount","type":"uint256","internalType":"uint256"}]}],"stateMutability":"pure"},{"type":"function","name":"getPointSystem","inputs":[],"outputs":[{"name":"","type":"uint8","internalType":"enum PointSystem"}],"stateMutability":"view"},{"type":"function","name":"getPoolAmount","inputs":[],"outputs":[{"name":"","type":"uint256","internalType":"uint256"}],"stateMutability":"view"},{"type":"function","name":"getPoolId","inputs":[],"outputs":[{"name":"","type":"uint256","internalType":"uint256"}],"stateMutability":"view"},{"type":"function","name":"getProposal","inputs":[{"name":"_proposalId","type":"uint256","internalType":"uint256"}],"outputs":[{"name":"submitter","type":"address","internalType":"address"},{"name":"beneficiary","type":"address","internalType":"address"},{"name":"requestedToken","type":"address","internalType":"address"},{"name":"requestedAmount","type":"uint256","internalType":"uint256"},{"name":"stakedAmount","type":"uint256","internalType":"uint256"},{"name":"proposalStatus","type":"uint8","internalType":"enum ProposalStatus"},{"name":"blockLast","type":"uint256","internalType":"uint256"},{"name":"convictionLast","type":"uint256","internalType":"uint256"},{"name":"threshold","type":"uint256","internalType":"uint256"},{"name":"voterStakedPoints","type":"uint256","internalType":"uint256"},{"name":"arbitrableConfigVersion","type":"uint256","internalType":"uint256"}],"stateMutability":"view"},{"type":"function","name":"getProposalStakedAmount","inputs":[{"name":"_proposalId","type":"uint256","internalType":"uint256"}],"outputs":[{"name":"","type":"uint256","internalType":"uint256"}],"stateMutability":"view"},{"type":"function","name":"getProposalVoterStake","inputs":[{"name":"_proposalId","type":"uint256","internalType":"uint256"},{"name":"_voter","type":"address","internalType":"address"}],"outputs":[{"name":"","type":"uint256","internalType":"uint256"}],"stateMutability":"view"},{"type":"function","name":"getRecipientStatus","inputs":[{"name":"_recipientId","type":"address","internalType":"address"}],"outputs":[{"name":"","type":"uint8","internalType":"enum IStrategy.Status"}],"stateMutability":"view"},{"type":"function","name":"getRegistryCommunity","inputs":[],"outputs":[{"name":"","type":"address","internalType":"contract RegistryCommunityV0_0"}],"stateMutability":"view"},{"type":"function","name":"getRegistryCommunityV0_1","inputs":[],"outputs":[{"name":"","type":"address","internalType":"contract RegistryCommunityV0_1"}],"stateMutability":"view"},{"type":"function","name":"getStrategyId","inputs":[],"outputs":[{"name":"","type":"bytes32","internalType":"bytes32"}],"stateMutability":"view"},{"type":"function","name":"getTotalVoterStakePct","inputs":[{"name":"_voter","type":"address","internalType":"address"}],"outputs":[{"name":"","type":"uint256","internalType":"uint256"}],"stateMutability":"view"},{"type":"function","name":"increasePoolAmount","inputs":[{"name":"_amount","type":"uint256","internalType":"uint256"}],"outputs":[],"stateMutability":"nonpayable"},{"type":"function","name":"increasePower","inputs":[{"name":"_member","type":"address","internalType":"address"},{"name":"_amountToStake","type":"uint256","internalType":"uint256"}],"outputs":[{"name":"","type":"uint256","internalType":"uint256"}],"stateMutability":"nonpayable"},{"type":"function","name":"init","inputs":[{"name":"_allo","type":"address","internalType":"address"},{"name":"_collateralVaultTemplate","type":"address","internalType":"address"},{"name":"owner","type":"address","internalType":"address"}],"outputs":[],"stateMutability":"nonpayable"},{"type":"function","name":"init","inputs":[{"name":"_allo","type":"address","internalType":"address"},{"name":"_name","type":"string","internalType":"string"},{"name":"owner","type":"address","internalType":"address"}],"outputs":[],"stateMutability":"nonpayable"},{"type":"function","name":"initialize","inputs":[{"name":"initialOwner","type":"address","internalType":"address"}],"outputs":[],"stateMutability":"nonpayable"},{"type":"function","name":"initialize","inputs":[{"name":"_poolId","type":"uint256","internalType":"uint256"},{"name":"_data","type":"bytes","internalType":"bytes"}],"outputs":[],"stateMutability":"nonpayable"},{"type":"function","name":"isPoolActive","inputs":[],"outputs":[{"name":"","type":"bool","internalType":"bool"}],"stateMutability":"view"},{"type":"function","name":"isValidAllocator","inputs":[{"name":"_allocator","type":"address","internalType":"address"}],"outputs":[{"name":"","type":"bool","internalType":"bool"}],"stateMutability":"view"},{"type":"function","name":"owner","inputs":[],"outputs":[{"name":"","type":"address","internalType":"address"}],"stateMutability":"view"},{"type":"function","name":"pointConfig","inputs":[],"outputs":[{"name":"maxAmount","type":"uint256","internalType":"uint256"}],"stateMutability":"view"},{"type":"function","name":"pointSystem","inputs":[],"outputs":[{"name":"","type":"uint8","internalType":"enum PointSystem"}],"stateMutability":"view"},{"type":"function","name":"proposalCounter","inputs":[],"outputs":[{"name":"","type":"uint256","internalType":"uint256"}],"stateMutability":"view"},{"type":"function","name":"proposalType","inputs":[],"outputs":[{"name":"","type":"uint8","internalType":"enum ProposalType"}],"stateMutability":"view"},{"type":"function","name":"proposals","inputs":[{"name":"","type":"uint256","internalType":"uint256"}],"outputs":[{"name":"proposalId","type":"uint256","internalType":"uint256"},{"name":"requestedAmount","type":"uint256","internalType":"uint256"},{"name":"stakedAmount","type":"uint256","internalType":"uint256"},{"name":"convictionLast","type":"uint256","internalType":"uint256"},{"name":"beneficiary","type":"address","internalType":"address"},{"name":"submitter","type":"address","internalType":"address"},{"name":"requestedToken","type":"address","internalType":"address"},{"name":"blockLast","type":"uint256","internalType":"uint256"},{"name":"proposalStatus","type":"uint8","internalType":"enum ProposalStatus"},{"name":"metadata","type":"tuple","internalType":"struct Metadata","components":[{"name":"protocol","type":"uint256","internalType":"uint256"},{"name":"pointer","type":"string","internalType":"string"}]},{"name":"disputeInfo","type":"tuple","internalType":"struct ProposalDisputeInfo","components":[{"name":"disputeId","type":"uint256","internalType":"uint256"},{"name":"disputeTimestamp","type":"uint256","internalType":"uint256"},{"name":"challenger","type":"address","internalType":"address"}]},{"name":"lastDisputeCompletion","type":"uint256","internalType":"uint256"},{"name":"arbitrableConfigVersion","type":"uint256","internalType":"uint256"}],"stateMutability":"view"},{"type":"function","name":"proxiableUUID","inputs":[],"outputs":[{"name":"","type":"bytes32","internalType":"bytes32"}],"stateMutability":"view"},{"type":"function","name":"registerRecipient","inputs":[{"name":"_data","type":"bytes","internalType":"bytes"},{"name":"_sender","type":"address","internalType":"address"}],"outputs":[{"name":"recipientId","type":"address","internalType":"address"}],"stateMutability":"payable"},{"type":"function","name":"removeFromAllowList","inputs":[{"name":"members","type":"address[]","internalType":"address[]"}],"outputs":[],"stateMutability":"nonpayable"},{"type":"function","name":"renounceOwnership","inputs":[],"outputs":[],"stateMutability":"nonpayable"},{"type":"function","name":"rule","inputs":[{"name":"_disputeID","type":"uint256","internalType":"uint256"},{"name":"_ruling","type":"uint256","internalType":"uint256"}],"outputs":[],"stateMutability":"nonpayable"},{"type":"function","name":"setCollateralVaultTemplate","inputs":[{"name":"template","type":"address","internalType":"address"}],"outputs":[],"stateMutability":"nonpayable"},{"type":"function","name":"setPoolActive","inputs":[{"name":"_active","type":"bool","internalType":"bool"}],"outputs":[],"stateMutability":"nonpayable"},{"type":"function","name":"setPoolParams","inputs":[{"name":"_arbitrableConfig","type":"tuple","internalType":"struct ArbitrableConfig","components":[{"name":"arbitrator","type":"address","internalType":"contract IArbitrator"},{"name":"tribunalSafe","type":"address","internalType":"address"},{"name":"submitterCollateralAmount","type":"uint256","internalType":"uint256"},{"name":"challengerCollateralAmount","type":"uint256","internalType":"uint256"},{"name":"defaultRuling","type":"uint256","internalType":"uint256"},{"name":"defaultRulingTimeout","type":"uint256","internalType":"uint256"}]},{"name":"_cvParams","type":"tuple","internalType":"struct CVParams","components":[{"name":"maxRatio","type":"uint256","internalType":"uint256"},{"name":"weight","type":"uint256","internalType":"uint256"},{"name":"decay","type":"uint256","internalType":"uint256"},{"name":"minThresholdPoints","type":"uint256","internalType":"uint256"}]}],"outputs":[],"stateMutability":"nonpayable"},{"type":"function","name":"setPoolParams","inputs":[{"name":"_arbitrableConfig","type":"tuple","internalType":"struct ArbitrableConfig","components":[{"name":"arbitrator","type":"address","internalType":"contract IArbitrator"},{"name":"tribunalSafe","type":"address","internalType":"address"},{"name":"submitterCollateralAmount","type":"uint256","internalType":"uint256"},{"name":"challengerCollateralAmount","type":"uint256","internalType":"uint256"},{"name":"defaultRuling","type":"uint256","internalType":"uint256"},{"name":"defaultRulingTimeout","type":"uint256","internalType":"uint256"}]},{"name":"_cvParams","type":"tuple","internalType":"struct CVParams","components":[{"name":"maxRatio","type":"uint256","internalType":"uint256"},{"name":"weight","type":"uint256","internalType":"uint256"},{"name":"decay","type":"uint256","internalType":"uint256"},{"name":"minThresholdPoints","type":"uint256","internalType":"uint256"}]},{"name":"membersToAdd","type":"address[]","internalType":"address[]"},{"name":"membersToRemove","type":"address[]","internalType":"address[]"}],"outputs":[],"stateMutability":"nonpayable"},{"type":"function","name":"setSybilScorer","inputs":[{"name":"_sybilScorer","type":"address","internalType":"address"}],"outputs":[],"stateMutability":"nonpayable"},{"type":"function","name":"supportsInterface","inputs":[{"name":"interfaceId","type":"bytes4","internalType":"bytes4"}],"outputs":[{"name":"","type":"bool","internalType":"bool"}],"stateMutability":"view"},{"type":"function","name":"sybilScorer","inputs":[],"outputs":[{"name":"","type":"address","internalType":"contract ISybilScorer"}],"stateMutability":"view"},{"type":"function","name":"totalEffectiveActivePoints","inputs":[],"outputs":[{"name":"","type":"uint256","internalType":"uint256"}],"stateMutability":"view"},{"type":"function","name":"totalPointsActivated","inputs":[],"outputs":[{"name":"","type":"uint256","internalType":"uint256"}],"stateMutability":"view"},{"type":"function","name":"totalStaked","inputs":[],"outputs":[{"name":"","type":"uint256","internalType":"uint256"}],"stateMutability":"view"},{"type":"function","name":"totalVoterStakePct","inputs":[{"name":"","type":"address","internalType":"address"}],"outputs":[{"name":"","type":"uint256","internalType":"uint256"}],"stateMutability":"view"},{"type":"function","name":"transferOwnership","inputs":[{"name":"newOwner","type":"address","internalType":"address"}],"outputs":[],"stateMutability":"nonpayable"},{"type":"function","name":"updateProposalConviction","inputs":[{"name":"proposalId","type":"uint256","internalType":"uint256"}],"outputs":[{"name":"","type":"uint256","internalType":"uint256"}],"stateMutability":"nonpayable"},{"type":"function","name":"upgradeTo","inputs":[{"name":"newImplementation","type":"address","internalType":"address"}],"outputs":[],"stateMutability":"nonpayable"},{"type":"function","name":"upgradeToAndCall","inputs":[{"name":"newImplementation","type":"address","internalType":"address"},{"name":"data","type":"bytes","internalType":"bytes"}],"outputs":[],"stateMutability":"payable"},{"type":"function","name":"voterStakedProposals","inputs":[{"name":"","type":"address","internalType":"address"},{"name":"","type":"uint256","internalType":"uint256"}],"outputs":[{"name":"","type":"uint256","internalType":"uint256"}],"stateMutability":"view"},{"type":"event","name":"AdminChanged","inputs":[{"name":"previousAdmin","type":"address","indexed":false,"internalType":"address"},{"name":"newAdmin","type":"address","indexed":false,"internalType":"address"}],"anonymous":false},{"type":"event","name":"Allocated","inputs":[{"name":"recipientId","type":"address","indexed":true,"internalType":"address"},{"name":"amount","type":"uint256","indexed":false,"internalType":"uint256"},{"name":"token","type":"address","indexed":false,"internalType":"address"},{"name":"sender","type":"address","indexed":false,"internalType":"address"}],"anonymous":false},{"type":"event","name":"AllowlistMembersAdded","inputs":[{"name":"poolId","type":"uint256","indexed":false,"internalType":"uint256"},{"name":"members","type":"address[]","indexed":false,"internalType":"address[]"}],"anonymous":false},{"type":"event","name":"AllowlistMembersRemoved","inputs":[{"name":"poolId","type":"uint256","indexed":false,"internalType":"uint256"},{"name":"members","type":"address[]","indexed":false,"internalType":"address[]"}],"anonymous":false},{"type":"event","name":"ArbitrableConfigUpdated","inputs":[{"name":"currentArbitrableConfigVersion","type":"uint256","indexed":false,"internalType":"uint256"},{"name":"arbitrator","type":"address","indexed":false,"internalType":"contract IArbitrator"},{"name":"tribunalSafe","type":"address","indexed":false,"internalType":"address"},{"name":"submitterCollateralAmount","type":"uint256","indexed":false,"internalType":"uint256"},{"name":"challengerCollateralAmount","type":"uint256","indexed":false,"internalType":"uint256"},{"name":"defaultRuling","type":"uint256","indexed":false,"internalType":"uint256"},{"name":"defaultRulingTimeout","type":"uint256","indexed":false,"internalType":"uint256"}],"anonymous":false},{"type":"event","name":"BeaconUpgraded","inputs":[{"name":"beacon","type":"address","indexed":true,"internalType":"address"}],"anonymous":false},{"type":"event","name":"CVParamsUpdated","inputs":[{"name":"cvParams","type":"tuple","indexed":false,"internalType":"struct CVParams","components":[{"name":"maxRatio","type":"uint256","internalType":"uint256"},{"name":"weight","type":"uint256","internalType":"uint256"},{"name":"decay","type":"uint256","internalType":"uint256"},{"name":"minThresholdPoints","type":"uint256","internalType":"uint256"}]}],"anonymous":false},{"type":"event","name":"DisputeRequest","inputs":[{"name":"_arbitrator","type":"address","indexed":true,"internalType":"contract IArbitrator"},{"name":"_arbitrableDisputeID","type":"uint256","indexed":true,"internalType":"uint256"},{"name":"_externalDisputeID","type":"uint256","indexed":false,"internalType":"uint256"},{"name":"_templateId","type":"uint256","indexed":false,"internalType":"uint256"},{"name":"_templateUri","type":"string","indexed":false,"internalType":"string"}],"anonymous":false},{"type":"event","name":"Distributed","inputs":[{"name":"proposalId","type":"uint256","indexed":false,"internalType":"uint256"},{"name":"beneficiary","type":"address","indexed":false,"internalType":"address"},{"name":"amount","type":"uint256","indexed":false,"internalType":"uint256"}],"anonymous":false},{"type":"event","name":"Distributed","inputs":[{"name":"recipientId","type":"address","indexed":true,"internalType":"address"},{"name":"recipientAddress","type":"address","indexed":false,"internalType":"address"},{"name":"amount","type":"uint256","indexed":false,"internalType":"uint256"},{"name":"sender","type":"address","indexed":false,"internalType":"address"}],"anonymous":false},{"type":"event","name":"Initialized","inputs":[{"name":"poolId","type":"uint256","indexed":false,"internalType":"uint256"},{"name":"data","type":"bytes","indexed":false,"internalType":"bytes"}],"anonymous":false},{"type":"event","name":"Initialized","inputs":[{"name":"version","type":"uint8","indexed":false,"internalType":"uint8"}],"anonymous":false},{"type":"event","name":"InitializedCV","inputs":[{"name":"poolId","type":"uint256","indexed":false,"internalType":"uint256"},{"name":"data","type":"tuple","indexed":false,"internalType":"struct CVStrategyInitializeParamsV0_0","components":[{"name":"cvParams","type":"tuple","internalType":"struct CVParams","components":[{"name":"maxRatio","type":"uint256","internalType":"uint256"},{"name":"weight","type":"uint256","internalType":"uint256"},{"name":"decay","type":"uint256","internalType":"uint256"},{"name":"minThresholdPoints","type":"uint256","internalType":"uint256"}]},{"name":"proposalType","type":"uint8","internalType":"enum ProposalType"},{"name":"pointSystem","type":"uint8","internalType":"enum PointSystem"},{"name":"pointConfig","type":"tuple","internalType":"struct PointSystemConfig","components":[{"name":"maxAmount","type":"uint256","internalType":"uint256"}]},{"name":"arbitrableConfig","type":"tuple","internalType":"struct ArbitrableConfig","components":[{"name":"arbitrator","type":"address","internalType":"contract IArbitrator"},{"name":"tribunalSafe","type":"address","internalType":"address"},{"name":"submitterCollateralAmount","type":"uint256","internalType":"uint256"},{"name":"challengerCollateralAmount","type":"uint256","internalType":"uint256"},{"name":"defaultRuling","type":"uint256","internalType":"uint256"},{"name":"defaultRulingTimeout","type":"uint256","internalType":"uint256"}]},{"name":"registryCommunity","type":"address","internalType":"address"},{"name":"sybilScorer","type":"address","internalType":"address"}]}],"anonymous":false},{"type":"event","name":"InitializedCV2","inputs":[{"name":"poolId","type":"uint256","indexed":false,"internalType":"uint256"},{"name":"data","type":"tuple","indexed":false,"internalType":"struct CVStrategyInitializeParamsV0_1","components":[{"name":"cvParams","type":"tuple","internalType":"struct CVParams","components":[{"name":"maxRatio","type":"uint256","internalType":"uint256"},{"name":"weight","type":"uint256","internalType":"uint256"},{"name":"decay","type":"uint256","internalType":"uint256"},{"name":"minThresholdPoints","type":"uint256","internalType":"uint256"}]},{"name":"proposalType","type":"uint8","internalType":"enum ProposalType"},{"name":"pointSystem","type":"uint8","internalType":"enum PointSystem"},{"name":"pointConfig","type":"tuple","internalType":"struct PointSystemConfig","components":[{"name":"maxAmount","type":"uint256","internalType":"uint256"}]},{"name":"arbitrableConfig","type":"tuple","internalType":"struct ArbitrableConfig","components":[{"name":"arbitrator","type":"address","internalType":"contract IArbitrator"},{"name":"tribunalSafe","type":"address","internalType":"address"},{"name":"submitterCollateralAmount","type":"uint256","internalType":"uint256"},{"name":"challengerCollateralAmount","type":"uint256","internalType":"uint256"},{"name":"defaultRuling","type":"uint256","internalType":"uint256"},{"name":"defaultRulingTimeout","type":"uint256","internalType":"uint256"}]},{"name":"registryCommunity","type":"address","internalType":"address"},{"name":"sybilScorer","type":"address","internalType":"address"},{"name":"initialAllowlist","type":"address[]","internalType":"address[]"}]}],"anonymous":false},{"type":"event","name":"MinThresholdPointsUpdated","inputs":[{"name":"before","type":"uint256","indexed":false,"internalType":"uint256"},{"name":"minThresholdPoints","type":"uint256","indexed":false,"internalType":"uint256"}],"anonymous":false},{"type":"event","name":"OwnershipTransferred","inputs":[{"name":"previousOwner","type":"address","indexed":true,"internalType":"address"},{"name":"newOwner","type":"address","indexed":true,"internalType":"address"}],"anonymous":false},{"type":"event","name":"PointsDeactivated","inputs":[{"name":"member","type":"address","indexed":false,"internalType":"address"}],"anonymous":false},{"type":"event","name":"PoolActive","inputs":[{"name":"active","type":"bool","indexed":false,"internalType":"bool"}],"anonymous":false},{"type":"event","name":"PoolAmountIncreased","inputs":[{"name":"amount","type":"uint256","indexed":false,"internalType":"uint256"}],"anonymous":false},{"type":"event","name":"PowerDecreased","inputs":[{"name":"member","type":"address","indexed":false,"internalType":"address"},{"name":"tokensUnStaked","type":"uint256","indexed":false,"internalType":"uint256"},{"name":"pointsToDecrease","type":"uint256","indexed":false,"internalType":"uint256"}],"anonymous":false},{"type":"event","name":"PowerIncreased","inputs":[{"name":"member","type":"address","indexed":false,"internalType":"address"},{"name":"tokensStaked","type":"uint256","indexed":false,"internalType":"uint256"},{"name":"pointsToIncrease","type":"uint256","indexed":false,"internalType":"uint256"}],"anonymous":false},{"type":"event","name":"ProposalCancelled","inputs":[{"name":"proposalId","type":"uint256","indexed":false,"internalType":"uint256"}],"anonymous":false},{"type":"event","name":"ProposalCreated","inputs":[{"name":"poolId","type":"uint256","indexed":false,"internalType":"uint256"},{"name":"proposalId","type":"uint256","indexed":false,"internalType":"uint256"}],"anonymous":false},{"type":"event","name":"ProposalDisputed","inputs":[{"name":"arbitrator","type":"address","indexed":false,"internalType":"contract IArbitrator"},{"name":"proposalId","type":"uint256","indexed":false,"internalType":"uint256"},{"name":"disputeId","type":"uint256","indexed":false,"internalType":"uint256"},{"name":"challenger","type":"address","indexed":false,"internalType":"address"},{"name":"context","type":"string","indexed":false,"internalType":"string"},{"name":"timestamp","type":"uint256","indexed":false,"internalType":"uint256"}],"anonymous":false},{"type":"event","name":"Registered","inputs":[{"name":"recipientId","type":"address","indexed":true,"internalType":"address"},{"name":"data","type":"bytes","indexed":false,"internalType":"bytes"},{"name":"sender","type":"address","indexed":false,"internalType":"address"}],"anonymous":false},{"type":"event","name":"RegistryUpdated","inputs":[{"name":"registryCommunity","type":"address","indexed":false,"internalType":"address"}],"anonymous":false},{"type":"event","name":"Ruling","inputs":[{"name":"_arbitrator","type":"address","indexed":true,"internalType":"contract IArbitrator"},{"name":"_disputeID","type":"uint256","indexed":true,"internalType":"uint256"},{"name":"_ruling","type":"uint256","indexed":false,"internalType":"uint256"}],"anonymous":false},{"type":"event","name":"SupportAdded","inputs":[{"name":"from","type":"address","indexed":false,"internalType":"address"},{"name":"proposalId","type":"uint256","indexed":false,"internalType":"uint256"},{"name":"amount","type":"uint256","indexed":false,"internalType":"uint256"},{"name":"totalStakedAmount","type":"uint256","indexed":false,"internalType":"uint256"},{"name":"convictionLast","type":"uint256","indexed":false,"internalType":"uint256"}],"anonymous":false},{"type":"event","name":"TribunaSafeRegistered","inputs":[{"name":"strategy","type":"address","indexed":false,"internalType":"address"},{"name":"arbitrator","type":"address","indexed":false,"internalType":"address"},{"name":"tribunalSafe","type":"address","indexed":false,"internalType":"address"}],"anonymous":false},{"type":"event","name":"Upgraded","inputs":[{"name":"implementation","type":"address","indexed":true,"internalType":"address"}],"anonymous":false},{"type":"error","name":"ALLOCATION_ACTIVE","inputs":[]},{"type":"error","name":"ALLOCATION_NOT_ACTIVE","inputs":[]},{"type":"error","name":"ALLOCATION_NOT_ENDED","inputs":[]},{"type":"error","name":"ALREADY_INITIALIZED","inputs":[]},{"type":"error","name":"AMOUNT_MISMATCH","inputs":[]},{"type":"error","name":"ANCHOR_ERROR","inputs":[]},{"type":"error","name":"ARRAY_MISMATCH","inputs":[]},{"type":"error","name":"AddressCannotBeZero","inputs":[]},{"type":"error","name":"AmountOverMaxRatio","inputs":[]},{"type":"error","name":"ArbitratorCannotBeZero","inputs":[]},{"type":"error","name":"CallerNotOwner","inputs":[{"name":"_caller","type":"address","internalType":"address"},{"name":"_owner","type":"address","internalType":"address"}]},{"type":"error","name":"CantIncreaseFixedSystem","inputs":[]},{"type":"error","name":"ConvictionUnderMinimumThreshold","inputs":[]},{"type":"error","name":"DefaultRulingNotSet","inputs":[]},{"type":"error","name":"DisputeCooldownNotPassed","inputs":[{"name":"_proposalId","type":"uint256","internalType":"uint256"},{"name":"_remainingSec","type":"uint256","internalType":"uint256"}]},{"type":"error","name":"INVALID","inputs":[]},{"type":"error","name":"INVALID_ADDRESS","inputs":[]},{"type":"error","name":"INVALID_FEE","inputs":[]},{"type":"error","name":"INVALID_METADATA","inputs":[]},{"type":"error","name":"INVALID_REGISTRATION","inputs":[]},{"type":"error","name":"IS_APPROVED_STRATEGY","inputs":[]},{"type":"error","name":"InsufficientCollateral","inputs":[{"name":"sentAmount","type":"uint256","internalType":"uint256"},{"name":"requiredAmount","type":"uint256","internalType":"uint256"}]},{"type":"error","name":"MISMATCH","inputs":[]},{"type":"error","name":"MaxPointsReached","inputs":[]},{"type":"error","name":"NONCE_NOT_AVAILABLE","inputs":[]},{"type":"error","name":"NOT_APPROVED_STRATEGY","inputs":[]},{"type":"error","name":"NOT_ENOUGH_FUNDS","inputs":[]},{"type":"error","name":"NOT_IMPLEMENTED","inputs":[]},{"type":"error","name":"NOT_INITIALIZED","inputs":[]},{"type":"error","name":"NOT_PENDING_OWNER","inputs":[]},{"type":"error","name":"NotEnoughPointsToSupport","inputs":[{"name":"pointsSupport","type":"uint256","internalType":"uint256"},{"name":"pointsBalance","type":"uint256","internalType":"uint256"}]},{"type":"error","name":"NotImplemented","inputs":[]},{"type":"error","name":"OnlyArbitrator","inputs":[]},{"type":"error","name":"OnlyCommunityAllowed","inputs":[]},{"type":"error","name":"OnlyCouncilSafe","inputs":[]},{"type":"error","name":"OnlySubmitter","inputs":[{"name":"submitter","type":"address","internalType":"address"},{"name":"sender","type":"address","internalType":"address"}]},{"type":"error","name":"POOL_ACTIVE","inputs":[]},{"type":"error","name":"POOL_INACTIVE","inputs":[]},{"type":"error","name":"PoolAmountNotEnough","inputs":[{"name":"_proposalId","type":"uint256","internalType":"uint256"},{"name":"_requestedAmount","type":"uint256","internalType":"uint256"},{"name":"_poolAmount","type":"uint256","internalType":"uint256"}]},{"type":"error","name":"PoolIdCannotBeZero","inputs":[]},{"type":"error","name":"PoolIsEmpty","inputs":[]},{"type":"error","name":"ProposalDataIsEmpty","inputs":[]},{"type":"error","name":"ProposalIdCannotBeZero","inputs":[]},{"type":"error","name":"ProposalInvalidForAllocation","inputs":[{"name":"_proposalId","type":"uint256","internalType":"uint256"},{"name":"_proposalStatus","type":"uint8","internalType":"enum ProposalStatus"}]},{"type":"error","name":"ProposalNotActive","inputs":[{"name":"_proposalId","type":"uint256","internalType":"uint256"}]},{"type":"error","name":"ProposalNotDisputed","inputs":[{"name":"_proposalId","type":"uint256","internalType":"uint256"}]},{"type":"error","name":"ProposalNotInList","inputs":[{"name":"_proposalId","type":"uint256","internalType":"uint256"}]},{"type":"error","name":"ProposalSupportDuplicated","inputs":[{"name":"_proposalId","type":"uint256","internalType":"uint256"},{"name":"index","type":"uint256","internalType":"uint256"}]},{"type":"error","name":"RECIPIENT_ALREADY_ACCEPTED","inputs":[]},{"type":"error","name":"RECIPIENT_ERROR","inputs":[{"name":"recipientId","type":"address","internalType":"address"}]},{"type":"error","name":"RECIPIENT_NOT_ACCEPTED","inputs":[]},{"type":"error","name":"REGISTRATION_NOT_ACTIVE","inputs":[]},{"type":"error","name":"RegistryCannotBeZero","inputs":[]},{"type":"error","name":"SupportUnderflow","inputs":[{"name":"_support","type":"uint256","internalType":"uint256"},{"name":"_delta","type":"int256","internalType":"int256"},{"name":"_result","type":"int256","internalType":"int256"}]},{"type":"error","name":"TokenCannotBeZero","inputs":[]},{"type":"error","name":"TokenNotAllowed","inputs":[]},{"type":"error","name":"UNAUTHORIZED","inputs":[]},{"type":"error","name":"UserCannotBeZero","inputs":[]},{"type":"error","name":"UserCannotExecuteAction","inputs":[]},{"type":"error","name":"UserIsInactive","inputs":[]},{"type":"error","name":"UserNotInRegistry","inputs":[]},{"type":"error","name":"ZERO_ADDRESS","inputs":[]}],"bytecode":{"object":"0x60a06040523060805234801561001457600080fd5b506080516170726200004d600039600081816118a1015281816118e101528181611980015281816119c00152611a3801526170726000f3fe60806040526004361061036e5760003560e01c8063013cf08b1461037757806301ffc9a7146103b9578063059351cd146103e9578063062f9ece146104765780630a6f0ee9146104965780630ba95909146104b65780630bece79c146104d55780630c0512e9146105025780630f529ba214610518578063125fd1d91461052f57806315cc481e14610545578063184b9559146105635780631aa91a9e146105835780631ddf1e23146105a35780632506b870146105b8578063255ffb38146105fb5780632bbe0cae146106285780632dbd6fdd1461063b5780632ed04b2b14610667578063311a6c561461068757806333960459146106a7578063346db8cb146106bd578063351d9f96146106dd5780633659cfe61461070457806338fff2d014610724578063406244d81461073957806341bb76051461074e57806342fda9c7146107ab57806348f19c1d146107c05780634ab4ba42146107d55780634d31d087146107ea5780634f1ef2861461080a57806352d1902d1461081d57806359a5db8b146108325780635db64b991461085257806360d5dedc1461087f578063626c47e81461089f5780636453d9c4146108b45780636a6f69b4146107c0578063715018a6146108d45780637263cfe2146108e9578063782aadff14610909578063814516ad14610929578063817b1cd21461093e578063824ea8ed14610954578063868c57b8146109745780638da5cb5b14610994578063948e7a59146109a9578063950559d7146109c95780639a1c157c146109e9578063a0cf0aea146109fe578063a28889e114610a26578063a47ff7e514610a5e578063a51312c814610a75578063a574cea414610a95578063aba9ffee14610ac2578063ac1ed7b914610ad8578063b0d3713a14610af8578063b2b878d014610b18578063b41596ec14610b45578063b5f620ce14610b58578063b6c61f3114610b78578063bcc5b93b14610b98578063c329217114610bb8578063c4d66de814610bd5578063c7f758a814610bf5578063d1e3623214610c2c578063dc96ff2d14610c41578063df868ed314610c71578063e0a8f6f514610c86578063e0dd2c3814610ca6578063eb11af9314610cc6578063edd146cc14610cee578063ef2920fc14610d0e578063f2fde38b14610d21578063f5b0dfb714610d41578063f5be3f7c14610d61578063ffa1ad7414610d7757005b3661037557005b005b34801561038357600080fd5b506103976103923660046157d0565b610db3565b6040516103b09d9c9b9a9998979695949392919061588b565b60405180910390f35b3480156103c557600080fd5b506103d96103d436600461592d565b610f01565b60405190151581526020016103b0565b3480156103f557600080fd5b5061043e606f546000908152607f60205260409020805460018201546002830154600384015460048501546005909501546001600160a01b039485169694909316949193909290565b604080516001600160a01b039788168152969095166020870152938501929092526060840152608083015260a082015260c0016103b0565b34801561048257600080fd5b50610375610491366004615b13565b610f38565b3480156104a257600080fd5b506103756104b1366004615c60565b610f4e565b3480156104c257600080fd5b506077545b6040519081526020016103b0565b3480156104e157600080fd5b506079546104f5906001600160a01b031681565b6040516103b09190615cd7565b34801561050e57600080fd5b506104c7606e5481565b34801561052457600080fd5b506104c76298968081565b34801561053b57600080fd5b506104c7606f5481565b34801561055157600080fd5b506065546001600160a01b03166104f5565b34801561056f57600080fd5b5061037561057e366004615ceb565b610f6e565b34801561058f57600080fd5b506104c761059e3660046157d0565b6110ce565b3480156105af57600080fd5b50610375611118565b3480156105c457600080fd5b506072546073546074546075546105db9392919084565b6040805194855260208501939093529183015260608201526080016103b0565b34801561060757600080fd5b506104c76106163660046157d0565b607e6020526000908152604090205481565b6104f5610636366004615d2b565b611123565b34801561064757600080fd5b5060765461065a90610100900460ff1681565b6040516103b09190615d90565b34801561067357600080fd5b506104c7610682366004615d9e565b611146565b34801561069357600080fd5b506103756106a2366004615dca565b61120a565b3480156106b357600080fd5b506104c7606c5481565b3480156106c957600080fd5b506104c76106d8366004615dec565b6117fc565b3480156106e957600080fd5b506076546106f79060ff1681565b6040516103b09190615e28565b34801561071057600080fd5b5061037561071f366004615e36565b611897565b34801561073057600080fd5b506068546104c7565b34801561074557600080fd5b506104c7600a81565b34801561075a57600080fd5b5061043e6107693660046157d0565b607f602052600090815260409020805460018201546002830154600384015460048501546005909501546001600160a01b039485169593909416939192909186565b3480156107b757600080fd5b506066546104c7565b3480156107cc57600080fd5b506104f561195f565b3480156107e157600080fd5b506069546104c7565b3480156107f657600080fd5b506103d9610805366004615e36565b61196e565b610375610818366004615e53565b611976565b34801561082957600080fd5b506104c7611a2b565b34801561083e57600080fd5b506104c761084d3660046157d0565b611ad9565b34801561085e57600080fd5b506104c761086d366004615e36565b607c6020526000908152604090205481565b34801561088b57600080fd5b5061037561089a366004615ea2565b611bf3565b3480156108ab57600080fd5b506104c7600381565b3480156108c057600080fd5b506103756108cf366004615e36565b611c6f565b3480156108e057600080fd5b50610375611c80565b3480156108f557600080fd5b50610375610904366004615efd565b611c92565b34801561091557600080fd5b506104c7610924366004615d9e565b611ca3565b34801561093557600080fd5b50610375611e39565b34801561094a57600080fd5b506104c760705481565b34801561096057600080fd5b506103d961096f3660046157d0565b611f56565b34801561098057600080fd5b506104c761098f366004615d9e565b611fb3565b3480156109a057600080fd5b506104f5611fe4565b3480156109b557600080fd5b506103756109c4366004615f31565b612075565b3480156109d557600080fd5b506104c76109e43660046157d0565b612089565b3480156109f557600080fd5b506074546104c7565b348015610a0a57600080fd5b506104f573eeeeeeeeeeeeeeeeeeeeeeeeeeeeeeeeeeeeeeee81565b348015610a3257600080fd5b50606d54610a46906001600160401b031681565b6040516001600160401b0390911681526020016103b0565b348015610a6a57600080fd5b506077546104c79081565b348015610a8157600080fd5b50610375610a90366004615efd565b6120b3565b348015610aa157600080fd5b50610ab5610ab03660046157d0565b6120c4565b6040516103b09190615fba565b348015610ace57600080fd5b506104c760715481565b348015610ae457600080fd5b50610375610af3366004615e36565b6121a3565b348015610b0457600080fd5b50610375610b13366004615e36565b6121d6565b348015610b2457600080fd5b50610b38610b33366004615fcd565b612200565b6040516103b091906160a1565b6104c7610b5336600461613a565b61221b565b348015610b6457600080fd5b50610375610b733660046161c1565b61256d565b348015610b8457600080fd5b50607a546104f5906001600160a01b031681565b348015610ba457600080fd5b506104c7610bb3366004615e36565b612576565b348015610bc457600080fd5b50607654610100900460ff1661065a565b348015610be157600080fd5b50610375610bf0366004615e36565b612591565b348015610c0157600080fd5b50610c15610c103660046157d0565b6125c1565b6040516103b09b9a999897969594939291906161de565b348015610c3857600080fd5b506071546104c7565b348015610c4d57600080fd5b506104c7610c5c3660046157d0565b6000908152607b602052604090206002015490565b348015610c7d57600080fd5b506103d96126cd565b348015610c9257600080fd5b50610375610ca13660046157d0565b6126e0565b348015610cb257600080fd5b506104c7610cc136600461624d565b612865565b348015610cd257600080fd5b50610ce1610805366004615e36565b6040516103b09190616272565b348015610cfa57600080fd5b50610375610d09366004616285565b612890565b610375610d1c366004615d2b565b612a81565b348015610d2d57600080fd5b50610375610d3c366004615e36565b612aa5565b348015610d4d57600080fd5b50610375610d5c3660046157d0565b612b12565b348015610d6d57600080fd5b506104c7611c2081565b348015610d8357600080fd5b50610da6604051806040016040528060038152602001620302e360ec1b81525081565b6040516103b091906162b5565b607b602090815260009182526040918290208054600182015460028301546003840154600485015460058601546006870154600788015460088901548b51808d01909c52600a8a0180548d52600b8b0180549a9d999c989b979a6001600160a01b039788169a968816999790951697939660ff9093169593949192840191610e3a906162c8565b80601f0160208091040260200160405190810160405280929190818152602001828054610e66906162c8565b8015610eb35780601f10610e8857610100808354040283529160200191610eb3565b820191906000526020600020905b815481529060010190602001808311610e9657829003601f168201915b50505091909252505060408051606081018252600c8501548152600d8501546020820152600e8501546001600160a01b031691810191909152600f840154601090940154929390929091508d565b60006001600160e01b0319821663f1801e6160e01b1480610f3257506301ffc9a760e01b6001600160e01b03198316145b92915050565b610f40612b3b565b610f4a8282612bd5565b5050565b610f56612f4a565b610f5e612f75565b610f69838383612f98565b505050565b600054610100900460ff1615808015610f8e5750600054600160ff909116105b80610faf5750610f9d306132a2565b158015610faf575060005460ff166001145b6110175760405162461bcd60e51b815260206004820152602e60248201527f496e697469616c697a61626c653a20636f6e747261637420697320616c72656160448201526d191e481a5b9a5d1a585b1a5e995960921b60648201526084015b60405180910390fd5b6000805460ff19166001179055801561103a576000805461ff0019166101001790555b611067846040518060400160405280600a8152602001694356537472617465677960b01b81525084611bf3565b606a80546001600160a01b0319166001600160a01b03851617905580156110c8576000805461ff0019169055604051600181527f7f26b83ff96e1f2b6a682f133852f6798a09c465da95921460cefb38474024989060200160405180910390a15b50505050565b6000818152607b60205260408120805483146111005760405163c1d17bef60e01b81526004810184905260240161100e565b61110e8182600201546132b1565b6003015492915050565b611121336132ec565b565b600061112d612f4a565b611135612f75565b61113f8383613418565b9392505050565b6000611150613806565b60006002607654610100900460ff166003811115611170576111706157f6565b148061119757506001607654610100900460ff166003811115611195576111956157f6565b145b156111a35750816111b0565b6111ad8484613831565b90505b80607160008282546111c29190616312565b90915550506040517f70b752f3fadb6ac131c0ece847fcbb6994ec56ed6411595710fd9b29c6ac6cc1906111fb90869086908590616325565b60405180910390a19392505050565b6000828152607e6020908152604080832054808452607b835281842060108101548552607f8452828520835160c08101855281546001600160a01b03908116825260018301541695810195909552600281015493850193909352600383015460608501526004830154608085015260059092015460a0840152929091908390036112aa5760405163c1d17bef60e01b81526004810184905260240161100e565b6005600883015460ff1660068111156112c5576112c56157f6565b146112e657604051634b011ca960e11b81526004810184905260240161100e565b60a0810151600d8301546000916112fc91616346565b42119050801581611317575081516001600160a01b03163314155b1561133557604051631777988560e11b815260040160405180910390fd5b808061133f575084155b1561148857816080015160000361136957604051630dd466dd60e41b815260040160405180910390fd5b81608001516001036113855760088301805460ff191660011790555b81608001516002036114125760088301805460ff191660061790556079546005840154604084810151905163099ea56b60e41b81526001600160a01b03938416936399ea56b0936113df938a939290911691600401616359565b600060405180830381600087803b1580156113f957600080fd5b505af115801561140d573d6000803e3d6000fd5b505050505b607954600e840154606084015160405163099ea56b60e41b81526001600160a01b03938416936399ea56b093611451938a939290911691600401616359565b600060405180830381600087803b15801561146b57600080fd5b505af115801561147f573d6000803e3d6000fd5b50505050611765565b846001036115495760088301805460ff19166001179055607954600e8401546001600160a01b0391821691638969ab53918791166114c461195f565b6001600160a01b0316636c53db9a6040518163ffffffff1660e01b8152600401602060405180830381865afa158015611501573d6000803e3d6000fd5b505050506040513d601f19601f820116820180604052508101906115259190616378565b86606001516040518563ffffffff1660e01b81526004016114519493929190616395565b846002036117655760088301805460ff19166006179055607954600e840154606084015160405163099ea56b60e41b81526001600160a01b03938416936399ea56b09361159f938a939290911691600401616359565b600060405180830381600087803b1580156115b957600080fd5b505af11580156115cd573d6000803e3d6000fd5b505060795460058601546001600160a01b039182169350638969ab5392508791166115f661195f565b6001600160a01b0316636c53db9a6040518163ffffffff1660e01b8152600401602060405180830381865afa158015611633573d6000803e3d6000fd5b505050506040513d601f19601f820116820180604052508101906116579190616378565b606f546000908152607f6020526040902060029081015461167891906163d0565b6040518563ffffffff1660e01b81526004016116979493929190616395565b600060405180830381600087803b1580156116b157600080fd5b505af11580156116c5573d6000803e3d6000fd5b50506079546005860154600e870154606f546000908152607f602052604090206002908101546001600160a01b039485169650638969ab5395508a94938416939092169161171391906163d0565b6040518563ffffffff1660e01b81526004016117329493929190616395565b600060405180830381600087803b15801561174c57600080fd5b505af1158015611760573d6000803e3d6000fd5b505050505b606d80546001600160401b031690600061177e836163f2565b91906101000a8154816001600160401b0302191690836001600160401b03160217905550504283600f01819055508582600001516001600160a01b03167f394027a5fa6e098a1191094d1719d6929b9abc535fcc0c8f448d6a4e75622276876040516117ec91815260200190565b60405180910390a3505050505050565b607454600090849082906118219061181b90629896809060801b6163d0565b83613a34565b905060806001607f1b6072600201546298968061183e9190616312565b61184c84600160801b616312565b6118596298968089616415565b6118639190616415565b61186d91906163d0565b6118778885616415565b6118819190616346565b61188b9190616346565b901c9695505050505050565b6001600160a01b037f00000000000000000000000000000000000000000000000000000000000000001630036118df5760405162461bcd60e51b815260040161100e9061642c565b7f00000000000000000000000000000000000000000000000000000000000000006001600160a01b0316611911613adc565b6001600160a01b0316146119375760405162461bcd60e51b815260040161100e90616466565b61194081613af8565b6040805160008082526020820190925261195c91839190613b33565b50565b6078546001600160a01b031690565b600080610f32565b6001600160a01b037f00000000000000000000000000000000000000000000000000000000000000001630036119be5760405162461bcd60e51b815260040161100e9061642c565b7f00000000000000000000000000000000000000000000000000000000000000006001600160a01b03166119f0613adc565b6001600160a01b031614611a165760405162461bcd60e51b815260040161100e90616466565b611a1f82613af8565b610f4a82826001613b33565b6000306001600160a01b037f00000000000000000000000000000000000000000000000000000000000000001614611ac65760405162461bcd60e51b815260206004820152603860248201527f555550535570677261646561626c653a206d757374206e6f742062652063616c6044820152771b1959081d1a1c9bdd59da0819195b1959d85d1958d85b1b60421b606482015260840161100e565b50600080516020616fd683398151915290565b60008060695411611afd5760405163ed4421ad60e01b815260040160405180910390fd5b611b0682613c9e565b15611b2457604051630efd728560e21b815260040160405180910390fd5b606954600090611b3884600160401b616415565b611b4291906163d0565b6072546298968090611b5890600160401b616415565b611b6291906163d0565b611b6c9190616312565b90506040611b7960715490565b607454611b899062989680616312565b629896806040611b998680616415565b607354911c90611bb090629896809060801b6163d0565b611bba91906163d0565b611bc49190616415565b611bce91906163d0565b611bd89190616415565b607554911c92508211611bed5760755461113f565b50919050565b600054610100900460ff16611c1a5760405162461bcd60e51b815260040161100e906164a0565b611c2381612591565b606580546001600160a01b0319166001600160a01b038516179055604051611c4f9083906020016162b5565b60408051601f198184030181529190528051602090910120606655505050565b611c77613806565b61195c816132ec565b611c88613cc5565b6111216000613d24565b611c9a612b3b565b61195c81613d76565b6000611cad613806565b611cb683614016565b611cd357604051630b72d6b160e31b815260040160405180910390fd5b60006002607654610100900460ff166003811115611cf357611cf36157f6565b03611d0157825b9050611d5e565b6001607654610100900460ff166003811115611d1f57611d1f6157f6565b03611d2e57611cfa84846141c4565b6003607654610100900460ff166003811115611d4c57611d4c6157f6565b03611d5e57611d5b848461426d565b90505b6000611d6861195f565b6001600160a01b031663477a5cc086306040518363ffffffff1660e01b8152600401611d959291906164eb565b602060405180830381865afa158015611db2573d6000803e3d6000fd5b505050506040513d601f19601f82011682018060405250810190611dd69190616505565b90508015611df6578160716000828254611df09190616346565b90915550505b7f0b9150e1e54346ed3fa36b977cd5d65dca5a649c737c3174a26bddaadd47667a858584604051611e2993929190616325565b60405180910390a1509392505050565b33611e4381614016565b611e6057604051630b72d6b160e31b815260040160405180910390fd5b611e6861195f565b6001600160a01b0316630d4a8b4982306040518363ffffffff1660e01b8152600401611e959291906164eb565b600060405180830381600087803b158015611eaf57600080fd5b505af1158015611ec3573d6000803e3d6000fd5b50505050611ecf61195f565b6001600160a01b0316637817ee4f82306040518363ffffffff1660e01b8152600401611efc9291906164eb565b602060405180830381865afa158015611f19573d6000803e3d6000fd5b505050506040513d601f19601f82011682018060405250810190611f3d9190616522565b60716000828254611f4e9190616346565b909155505050565b6000818152607b60205260408120600281015482908190611f7890849061446e565b91509150816000148015611f8a575080155b15611f9757826003015491505b6000611fa68460010154611ad9565b9092101595945050505050565b607d6020528160005260406000208181548110611fcf57600080fd5b90600052602060002001600091509150505481565b600080611ff96033546001600160a01b031690565b9050806001600160a01b03163b60000361201257919050565b806001600160a01b0316638da5cb5b6040518163ffffffff1660e01b8152600401602060405180830381865afa92505050801561206c575060408051601f3d908101601f1916820190925261206991810190616378565b60015b610f3257919050565b61207d612b3b565b6110c8848484846144c6565b60745460009061209c9062989680616312565b6120a96298968084616415565b610f3291906163d0565b6120bb612b3b565b61195c816144de565b6040805180820190915260008152606060208201526000607b6000848152602001908152602001600020905080600a0160405180604001604052908160008201548152602001600182018054612119906162c8565b80601f0160208091040260200160405190810160405280929190818152602001828054612145906162c8565b80156121925780601f1061216757610100808354040283529160200191612192565b820191906000526020600020905b81548152906001019060200180831161217557829003601f168201915b505050505081525050915050919050565b6121ab612b3b565b6121b481614695565b607a80546001600160a01b0319166001600160a01b0392909216919091179055565b6121de613cc5565b606a80546001600160a01b0319166001600160a01b0392909216919091179055565b606060405163d623472560e01b815260040160405180910390fd5b6000858152607b6020908152604080832060108101548452607f8352818420825160c08101845281546001600160a01b0390811680835260018401549091169582019590955260028201549381019390935260038101546060840152600481015460808401526005015460a0830152916122a857604051636c291fd360e01b815260040160405180910390fd5b815488146122cc5760405163c1d17bef60e01b81526004810189905260240161100e565b6001600883015460ff1660068111156122e7576122e76157f6565b14612308576040516344980d8f60e01b81526004810189905260240161100e565b8060600151341015612334576060810151604051632c1f8ef160e21b815261100e91349160040161654b565b600f82015415801590612357575042611c2083600f01546123559190616346565b115b15612395578742611c2084600f01546123709190616346565b61237a9190616312565b604051638d2f6c3160e01b815260040161100e92919061654b565b60008160600151346123a79190616312565b607954606084015160405163240ff7c560e11b81529293506001600160a01b039091169163481fef8a91906123e2908d903390600401616559565b6000604051808303818588803b1580156123fb57600080fd5b505af115801561240f573d6000803e3d6000fd5b5050845160405163c13517e160e01b81526001600160a01b03909116935063c13517e1925084915061244a906003908b908b90600401616599565b60206040518083038185885af1158015612468573d6000803e3d6000fd5b50505050506040513d601f19601f8201168201806040525081019061248d9190616522565b60088401805491955060059160ff19166001830217905550600c830184905542600d840155600e830180546001600160a01b031916331790556000848152607e602052604081208a9055606d80546001600160401b0316916124ee836165bc565b91906101000a8154816001600160401b0302191690836001600160401b03160217905550507f034f6a48076db1bcaaa311ccdc43d473aff44d3918a76fe0fae27c8b3665016d82600001518a86338c8c89600c016001015460405161255997969594939291906165ea565b60405180910390a150505095945050505050565b61195c816146bc565b6001600160a01b03166000908152607c602052604090205490565b600054610100900460ff166125b85760405162461bcd60e51b815260040161100e906164a0565b61195c81613d24565b600080600080600080600080600080600080607b60008e815260200190815260200160002090508060010154600014612606576126018160010154611ad9565b612609565b60005b93508060050160009054906101000a90046001600160a01b03168160040160009054906101000a90046001600160a01b03168260060160009054906101000a90046001600160a01b0316836001015484600201548560080160009054906101000a900460ff16866007015487600301548b896009016000336001600160a01b03166001600160a01b03168152602001908152602001600020548a601001549b509b509b509b509b509b509b509b509b509b509b505091939597999b90929496989a50565b60006126db60675460ff1690565b905090565b60016000828152607b602052604090206008015460ff166006811115612708576127086157f6565b14612729576040516344980d8f60e01b81526004810182905260240161100e565b6000818152607b60205260409020600501546001600160a01b03163314612782576000818152607b602052604090819020600501549051634544dc9160e11b815261100e916001600160a01b03169033906004016164eb565b6079546000828152607b6020908152604080832060058101546010909101548452607f9092529182902060020154915163099ea56b60e41b81526001600160a01b03938416936399ea56b0936127df938793921691600401616359565b600060405180830381600087803b1580156127f957600080fd5b505af115801561280d573d6000803e3d6000fd5b5050506000828152607b6020908152604091829020600801805460ff1916600317905590518381527f416e669c63d9a3a5e36ee7cc7e2104b8db28ccd286aa18966e98fa230c73b08c9250015b60405180910390a150565b6000828152607b602090815260408083206001600160a01b038516845260090190915281205461113f565b612898612f4a565b6128a1826146fd565b606a54606c80546128ca926001600160a01b03169160006128c183616639565b9190505561474c565b607980546001600160a01b0319166001600160a01b039290921691821790556040805163204a7f0760e21b81529051638129fc1c9160048082019260009290919082900301818387803b15801561292057600080fd5b505af1158015612934573d6000803e3d6000fd5b5050505060008180602001905181019061294e91906167c5565b60a08101519091506001600160a01b031661297c57604051635df4b1ef60e01b815260040160405180910390fd5b60a0810151607880546001600160a01b0319166001600160a01b0390921691909117905560208101516076805460ff191660018360028111156129c1576129c16157f6565b021790555060408101516076805461ff0019166101008360038111156129e9576129e96157f6565b021790555060608101515160775560c0810151607a80546001600160a01b0319166001600160a01b039092169190911790556080810151815160408051600080825260208201908152818301909252612a439392916144c6565b7fa489767af337c1767e9c6949fc5a6d3a73bb69ea80a3e619c2e08b7b308d0bcf8382604051612a74929190616919565b60405180910390a1505050565b612a89612f4a565b612a91612f75565b612a9b828261479b565b610f4a82826147f7565b612aad613cc5565b6001600160a01b0381166125b85760405162461bcd60e51b815260206004820152602660248201527f4f776e61626c653a206e6577206f776e657220697320746865207a65726f206160448201526564647265737360d01b606482015260840161100e565b612b1a612f4a565b8060696000828254612b2c9190616346565b9091555061195c9050816148ea565b612b4361195f565b6001600160a01b0316636c53db9a6040518163ffffffff1660e01b8152600401602060405180830381865afa158015612b80573d6000803e3d6000fd5b505050506040513d601f19601f82011682018060405250810190612ba49190616378565b6001600160a01b0316336001600160a01b03161461112157604051637430763f60e11b815260040160405180910390fd5b60208201516001600160a01b031615801590612bfa575081516001600160a01b031615155b8015612ce35750606f546000908152607f6020908152604090912060010154908301516001600160a01b039081169116141580612c565750606f546000908152607f602052604090205482516001600160a01b03908116911614155b80612c7a5750606f546000908152607f602052604090819020600201549083015114155b80612c9d5750606f546000908152607f6020526040902060030154606083015114155b80612cc05750606f546000908152607f6020526040902060040154608083015114155b80612ce35750606f546000908152607f602052604090206005015460a083015114155b15612ef257602080830151606f546000908152607f9092526040909120600101546001600160a01b039081169116141580612d3d57508151606f546000908152607f60205260409020546001600160a01b03908116911614155b15612e06578151602083015160405163446adb9960e11b81526001600160a01b03909216916388d5b73291612d7491600401615cd7565b600060405180830381600087803b158015612d8e57600080fd5b505af1158015612da2573d6000803e3d6000fd5b5050835160208501516040517fdc20f5c479493aac0cf803ca3b82ebc1964faa557450a37ea0a8121b0e98454f9450612dfd9350309291906001600160a01b0393841681529183166020830152909116604082015260600190565b60405180910390a15b606f8054906000612e1683616639565b9091555050606f80546000908152607f6020908152604091829020855181546001600160a01b03199081166001600160a01b03928316908117845588850151600185018054909316931692831790915587850151600284018190556060808a0151600386018190556080808c01516004880181905560a0808e015160059099018990559a548a519081529889019590955297870194909452850152938301529281019190915260c08101919091527fe677e2878aaaaf6a65ecf50f849ad58100c49f6dfd57d055ba4bddd63a175d539060e00160405180910390a15b805160725560208101516073556040808201516074556060820151607555517fec9315d9f4291207475c061feff1e5d7105750ac0ee9534af9444b4ff1dab9bc90612f3e9083906169f8565b60405180910390a15050565b6065546001600160a01b031633146111215760405163075fd2b160e01b815260040160405180910390fd5b60685460000361112157604051630f68fe6360e21b815260040160405180910390fd5b6000825111612fba57604051630317df1360e61b815260040160405180910390fd5b600082806020019051810190612fd09190616522565b905080600003612ff35760405163f881a10d60e01b815260040160405180910390fd5b6000818152607b60205260409020600160765460ff16600281111561301a5761301a6157f6565b0361329b57805482146130435760405163c1d17bef60e01b81526004810183905260240161100e565b6069548160010154111561307657818160010154606954604051632c31d85b60e11b815260040161100e93929190616a06565b6001600882015460ff166006811115613091576130916157f6565b146130b2576040516344980d8f60e01b81526004810183905260240161100e565b60006130bd836110ce565b905060006130ce8360010154611ad9565b905080821080156130e3575060008360010154115b156131015760405163199cf26160e31b815260040160405180910390fd5b60655460685460405163068bcd8d60e01b815260048101919091526000916001600160a01b03169063068bcd8d90602401600060405180830381865afa15801561314f573d6000803e3d6000fd5b505050506040513d6000823e601f3d908101601f191682016040526131779190810190616aa9565b905083600101546069600082825461318f9190616312565b90915550506040810151600485015460018601546131b792916001600160a01b03169061491a565b60088401805460ff191660049081179091556079546005860154606f546000908152607f60205260409081902060020154905163099ea56b60e41b81526001600160a01b03938416946399ea56b094613217948c94911692909101616359565b600060405180830381600087803b15801561323157600080fd5b505af1158015613245573d6000803e3d6000fd5b505050600485015460018601546040517fa7932e9c92f31e1ed56b29d00bbe669a97484dc24de28dd9c8c0429df7f35847935061328f9289926001600160a01b0390911691616359565b60405180910390a15050505b5050505050565b6001600160a01b03163b151590565b6000806132be848461446e565b915091508160001480156132d0575080155b156132db5750505050565b600784015560039092019190915550565b6132f461195f565b6001600160a01b0316637817ee4f82306040518363ffffffff1660e01b81526004016133219291906164eb565b602060405180830381865afa15801561333e573d6000803e3d6000fd5b505050506040513d601f19601f820116820180604052508101906133629190616522565b607160008282546133739190616312565b90915550613381905061195f565b6001600160a01b03166322bcf99982306040518363ffffffff1660e01b81526004016133ae9291906164eb565b600060405180830381600087803b1580156133c857600080fd5b505af11580156133dc573d6000803e3d6000fd5b505050506133e981614954565b7f1468da654b37bb3631011c1917d02e0db437d519918858d40b38b5e980ca033b8160405161285a9190615cd7565b600061342382614016565b61344057604051630b72d6b160e31b815260040160405180910390fd5b6000838060200190518101906134569190616b5c565b805190915060000361347b5760405163273c8bc360e11b815260040160405180910390fd5b600160765460ff166002811115613494576134946157f6565b03613615576134a68160200151614695565b60608101516001600160a01b03166134d15760405163165a825360e21b815260040160405180910390fd5b6000306001600160a01b03166315cc481e6040518163ffffffff1660e01b8152600401602060405180830381865afa158015613511573d6000803e3d6000fd5b505050506040513d601f19601f820116820180604052508101906135359190616378565b825160405163068bcd8d60e01b815260048101919091529091506000906001600160a01b0383169063068bcd8d90602401600060405180830381865afa158015613583573d6000803e3d6000fd5b505050506040513d6000823e601f3d908101601f191682016040526135ab9190810190616aa9565b905080604001516001600160a01b031683606001516001600160a01b0316146135e75760405163514e24c360e11b815260040160405180910390fd5b6135f48360400151613c9e565b1561361257604051630efd728560e21b815260040160405180910390fd5b50505b606f546000908152607f60205260409020546001600160a01b0316158015906136515750606f546000908152607f602052604090206002015434105b1561368757606f546000908152607f602052604090819020600201549051632c1f8ef160e21b815261100e91349160040161654b565b6000606e6000815461369890616639565b91829055506000818152607b602090815260408083208481556005810180546001600160a01b038b81166001600160a01b0319928316179092558885015160048401805491841691831691909117905560608901516006840180549190931691161790559086015160018083019190915560088201805460ff19169091179055436007820155600381019290925560808501518051600a8401908155918101519394509192600b84019061374c9082616c50565b5050606f54601083015550607954600582015460405163240ff7c560e11b81526001600160a01b039283169263481fef8a9234926137909288921690600401616559565b6000604051808303818588803b1580156137a957600080fd5b505af11580156137bd573d6000803e3d6000fd5b50505050507ffcf3b1aa65a464cef2889608f99e8b8c0f680a4be6c2acb9d961c536a5a9294b606854836040516137f592919061654b565b60405180910390a150949350505050565b6078546001600160a01b03163314611121576040516357848b5160e11b815260040160405180910390fd5b6000601261383d61195f565b6001600160a01b031663db61d65c6040518163ffffffff1660e01b8152600401602060405180830381865afa15801561387a573d6000803e3d6000fd5b505050506040513d601f19601f8201168201806040525081019061389e9190616378565b6001600160a01b031663313ce5676040518163ffffffff1660e01b8152600401602060405180830381865afa9250505080156138f7575060408051601f3d908101601f191682019092526138f491810190616d0f565b60015b156139025760ff1690505b60008361390d61195f565b6001600160a01b0316632c611c4a876040518263ffffffff1660e01b81526004016139389190615cd7565b602060405180830381865afa158015613955573d6000803e3d6000fd5b505050506040513d601f19601f820116820180604052508101906139799190616522565b6139839190616312565b905060006139a461399584600a616e16565b61399f9084616415565b614ab5565b90506000816139b161195f565b6001600160a01b0316637817ee4f89306040518363ffffffff1660e01b81526004016139de9291906164eb565b602060405180830381865afa1580156139fb573d6000803e3d6000fd5b505050506040513d601f19601f82011682018060405250810190613a1f9190616522565b613a299190616312565b979650505050505050565b6000600160801b8310613a885760405162461bcd60e51b815260206004820152601c60248201527b0bec240e6d0deead8c840c4ca40d8cae6e640e8d0c2dc4064bc6264760231b604482015260640161100e565b50600160801b82825b8015613ad45780600116600003613ab657613aac8283614b9d565b915060011c613a91565b613ac08383614b9d565b9250613acd600182616312565b9050613a91565b505092915050565b600080516020616fd6833981519152546001600160a01b031690565b33613b01611fe4565b6001600160a01b03161461195c5733613b18611fe4565b60405163163678e960e01b815260040161100e9291906164eb565b7f4910fdfa16fed3260ed0e7147f7cc6da11a60208b5b9406d12a635614ffd91435460ff1615613b6657610f6983614c7a565b826001600160a01b03166352d1902d6040518163ffffffff1660e01b8152600401602060405180830381865afa925050508015613bc0575060408051601f3d908101601f19168201909252613bbd91810190616522565b60015b613c235760405162461bcd60e51b815260206004820152602e60248201527f45524331393637557067726164653a206e657720696d706c656d656e7461746960448201526d6f6e206973206e6f74205555505360901b606482015260840161100e565b600080516020616fd68339815191528114613c925760405162461bcd60e51b815260206004820152602960248201527f45524331393637557067726164653a20756e737570706f727465642070726f786044820152681a58589b195555525160ba1b606482015260840161100e565b50610f69838383614d14565b6000613cad6298968083616415565b606954607254613cbd9190616415565b111592915050565b33613cce611fe4565b6001600160a01b0316146111215760405162461bcd60e51b815260206004820181905260248201527f4f776e61626c653a2063616c6c6572206973206e6f7420746865206f776e6572604482015260640161100e565b603380546001600160a01b038381166001600160a01b0319831681179093556040519116919082907f8be0079c531659141344cd1fd0a4f28419497f9722a3daafe3b4186f6b6457e090600090a35050565b6000606854604051602001613d8b9190616e22565b604051602081830303815290604052805190602001209050613dab61195f565b6001600160a01b03166391d148548260006040518363ffffffff1660e01b8152600401613dd9929190616559565b602060405180830381865afa158015613df6573d6000803e3d6000fd5b505050506040513d601f19601f82011682018060405250810190613e1a9190616505565b15613e8857613e2761195f565b6001600160a01b031663d547741f8260006040518363ffffffff1660e01b8152600401613e55929190616559565b600060405180830381600087803b158015613e6f57600080fd5b505af1158015613e83573d6000803e3d6000fd5b505050505b60005b8251811015613fe257613e9c61195f565b6001600160a01b03166391d1485483858481518110613ebd57613ebd616e3f565b60200260200101516040518363ffffffff1660e01b8152600401613ee2929190616559565b602060405180830381865afa158015613eff573d6000803e3d6000fd5b505050506040513d601f19601f82011682018060405250810190613f239190616505565b613fd057613f2f61195f565b6001600160a01b0316632f2ff15d606854604051602001613f509190616e22565b60405160208183030381529060405280519060200120858481518110613f7857613f78616e3f565b60200260200101516040518363ffffffff1660e01b8152600401613f9d929190616559565b600060405180830381600087803b158015613fb757600080fd5b505af1158015613fcb573d6000803e3d6000fd5b505050505b80613fda81616639565b915050613e8b565b507f7a2e396a5614184c0af2c60827c206595126faa1238b94e19823192de52e728a60685483604051612f3e929190616e55565b607a546000906001600160a01b031661415157600060685460405160200161403e9190616e22565b60405160208183030381529060405280519060200120905061405e61195f565b6001600160a01b03166391d148548260006040518363ffffffff1660e01b815260040161408c929190616559565b602060405180830381865afa1580156140a9573d6000803e3d6000fd5b505050506040513d601f19601f820116820180604052508101906140cd9190616505565b156140db5750600192915050565b6140e361195f565b6001600160a01b03166391d1485482856040518363ffffffff1660e01b8152600401614110929190616559565b602060405180830381865afa15801561412d573d6000803e3d6000fd5b505050506040513d601f19601f8201168201806040525081019061113f9190616505565b607a546040516302154c3d60e51b81526001600160a01b03909116906342a987a09061418390859030906004016164eb565b602060405180830381865afa1580156141a0573d6000803e3d6000fd5b505050506040513d601f19601f82011682018060405250810190610f329190616505565b600081816141d061195f565b6001600160a01b0316637817ee4f86306040518363ffffffff1660e01b81526004016141fd9291906164eb565b602060405180830381865afa15801561421a573d6000803e3d6000fd5b505050506040513d601f19601f8201168201806040525081019061423e9190616522565b60775490915061424e8383616346565b111561426557607754614262908290616312565b91505b509392505050565b6000808261427961195f565b6001600160a01b0316632c611c4a866040518263ffffffff1660e01b81526004016142a49190615cd7565b602060405180830381865afa1580156142c1573d6000803e3d6000fd5b505050506040513d601f19601f820116820180604052508101906142e59190616522565b6142ef9190616346565b905060126142fb61195f565b6001600160a01b031663db61d65c6040518163ffffffff1660e01b8152600401602060405180830381865afa158015614338573d6000803e3d6000fd5b505050506040513d601f19601f8201168201806040525081019061435c9190616378565b6001600160a01b031663313ce5676040518163ffffffff1660e01b8152600401602060405180830381865afa9250505080156143b5575060408051601f3d908101601f191682019092526143b291810190616d0f565b60015b156143c05760ff1690505b60006143da6143d083600a616e16565b61399f9085616415565b905060006143e661195f565b6001600160a01b0316637817ee4f88306040518363ffffffff1660e01b81526004016144139291906164eb565b602060405180830381865afa158015614430573d6000803e3d6000fd5b505050506040513d601f19601f820116820180604052508101906144549190616522565b905060006144628284616312565b98975050505050505050565b600080439050808460070154111561448857614488616e6e565b8084600701540361449e575060009050806144bf565b6144bc8460070154826144b19190616312565b8560030154856117fc565b91505b9250929050565b6144d08484612bd5565b6144d982613d76565b6110c8815b60005b8151811015614661576144f261195f565b6001600160a01b03166391d148546068546040516020016145139190616e22565b6040516020818303038152906040528051906020012084848151811061453b5761453b616e3f565b60200260200101516040518363ffffffff1660e01b8152600401614560929190616559565b602060405180830381865afa15801561457d573d6000803e3d6000fd5b505050506040513d601f19601f820116820180604052508101906145a19190616505565b1561464f576145ae61195f565b6001600160a01b031663d547741f6068546040516020016145cf9190616e22565b604051602081830303815290604052805190602001208484815181106145f7576145f7616e3f565b60200260200101516040518363ffffffff1660e01b815260040161461c929190616559565b600060405180830381600087803b15801561463657600080fd5b505af115801561464a573d6000803e3d6000fd5b505050505b8061465981616639565b9150506144e1565b507fd418c93b6b78d828a87ee1909e6fcdbbf2f8d8f540ad7b232bb3e221e6d7cc1e6068548260405161285a929190616e55565b6001600160a01b03811661195c576040516303988b8160e61b815260040160405180910390fd5b6067805460ff19168215159081179091556040519081527fd94c9bc4d43c51d8dc345a016d8e3d994432fac68e72832e4cf3a616bd8efae09060200161285a565b614705612f4a565b606854156147265760405163439a74c960e01b815260040160405180910390fd5b8060000361474757604051637fcce2a960e01b815260040160405180910390fd5b606855565b6040516001600160601b03193360601b1660208201526034810182905260009081906054016040516020818303038152906040528051906020012090506147938482614d39565b949350505050565b6000828060200190518101906147b19190616e84565b905060005b81518110156110c8576147e58282815181106147d4576147d4616e3f565b602002602001015160000151614dd0565b806147ef81616639565b9150506147b6565b61480081614e8d565b61480981614016565b61482657604051630b72d6b160e31b815260040160405180910390fd5b600061483061195f565b6001600160a01b031663477a5cc083306040518363ffffffff1660e01b815260040161485d9291906164eb565b602060405180830381865afa15801561487a573d6000803e3d6000fd5b505050506040513d601f19601f8201168201806040525081019061489e9190616505565b9050806148be57604051635fccb67f60e01b815260040160405180910390fd5b6000838060200190518101906148d49190616e84565b90506148e08382614f6e565b6110c88382615103565b6040518181527f46aeb5d8770fc4474bc2dfa118fd2595f7fb33ce2cbce6f4e5a3dabfe0f763399060200161285a565b73eeeeeeeeeeeeeeeeeeeeeeeeeeeeeeeeeeeeeeed196001600160a01b0384160161494957610f6982826154db565b610f698383836154f7565b6001600160a01b0381166000908152607d60209081526040808320805482518185028101850190935280835291929091908301828280156149b457602002820191906000526020600020905b8154815260200190600101908083116149a0575b5050505050905060005b8151811015610f695760008282815181106149db576149db616e3f565b602002602001015190506000607b60008381526020019081526020016000209050614a058261553d565b15614aa0576001600160a01b0385166000908152600982016020526040812080549082905560028301805491928392614a3f908490616312565b925050819055508060706000828254614a589190616312565b90915550614a68905082826132b1565b600080516020616ff68339815191528684600085600201548660030154604051614a96959493929190616f2e565b60405180910390a1505b50508080614aad90616639565b9150506149be565b600081600003614ac757506000919050565b60006001614ad484615576565b901c6001901b90506001818481614aed57614aed6163ba565b048201901c90506001818481614b0557614b056163ba565b048201901c90506001818481614b1d57614b1d6163ba565b048201901c90506001818481614b3557614b356163ba565b048201901c90506001818481614b4d57614b4d6163ba565b048201901c90506001818481614b6557614b656163ba565b048201901c90506001818481614b7d57614b7d6163ba565b048201901c905061113f81828581614b9757614b976163ba565b0461560a565b6000600160801b831115614c045760405162461bcd60e51b815260206004820152602860248201527f5f612073686f756c64206265206c657373207468616e206f7220657175616c206044820152670e8de4064bc6264760c31b606482015260840161100e565b600160801b8210614c565760405162461bcd60e51b815260206004820152601c60248201527b0bec440e6d0deead8c840c4ca40d8cae6e640e8d0c2dc4064bc6264760231b604482015260640161100e565b60806001607f1b614c678486616415565b614c719190616346565b901c9392505050565b614c83816132a2565b614ce55760405162461bcd60e51b815260206004820152602d60248201527f455243313936373a206e657720696d706c656d656e746174696f6e206973206e60448201526c1bdd08184818dbdb9d1c9858dd609a1b606482015260840161100e565b600080516020616fd683398151915280546001600160a01b0319166001600160a01b0392909216919091179055565b614d1d83615620565b600082511180614d2a5750805b15610f69576110c88383615660565b6000763d602d80600a3d3981f3363d3d373d3d3d363d730000008360601b60e81c176000526e5af43d82803e903d91602b57fd5bf38360781b1760205281603760096000f590506001600160a01b038116610f325760405162461bcd60e51b8152602060048201526017602482015276115490cc4c4d8dce8818dc99585d194c8819985a5b1959604a1b604482015260640161100e565b6000818152607b6020526040812090600882015460ff166006811115614df857614df86157f6565b1480614e1c57506003600882015460ff166006811115614e1a57614e1a6157f6565b145b80614e3f57506004600882015460ff166006811115614e3d57614e3d6157f6565b145b80614e6257506006600882015460ff166006811115614e6057614e606157f6565b145b15610f4a5760088101546040516394d57ead60e01b815261100e91849160ff90911690600401616f5c565b6001600160a01b038116614eb457604051631a3e505160e31b815260040160405180910390fd5b6078546001600160a01b0316614edd57604051635df4b1ef60e01b815260040160405180910390fd5b614ee561195f565b6001600160a01b031663a230c524826040518263ffffffff1660e01b8152600401614f109190615cd7565b602060405180830381865afa158015614f2d573d6000803e3d6000fd5b505050506040513d601f19601f82011682018060405250810190614f519190616505565b61195c57604051636a5cfb6d60e01b815260040160405180910390fd5b6000805b825181101561502b57828181518110614f8d57614f8d616e3f565b60200260200101516000015160000315615019576000838281518110614fb557614fb5616e3f565b6020026020010151600001519050614fcc8161553d565b614fec5760405163c1d17bef60e01b81526004810182905260240161100e565b838281518110614ffe57614ffe616e3f565b602002602001015160200151836150159190616f79565b9250505b8061502381616639565b915050614f72565b50600061504061503a85612576565b83615685565b9050600061504c61195f565b6001600160a01b0316637817ee4f86306040518363ffffffff1660e01b81526004016150799291906164eb565b602060405180830381865afa158015615096573d6000803e3d6000fd5b505050506040513d601f19601f820116820180604052508101906150ba9190616522565b9050808211156150e1578181604051636b20c17f60e11b815260040161100e92919061654b565b506001600160a01b039093166000908152607c60205260409020929092555050565b606060005b82518110156110c857600083828151811061512557615125616e3f565b60200260200101516000015190508251600003615181576040805160018082528183019092529060208083019080368337019050509250808360008151811061517057615170616e3f565b6020026020010181815250506152b4565b6000805b84518110156151e157828582815181106151a1576151a1616e3f565b6020026020010151036151cf57600191508281604051632b7aec5560e21b815260040161100e92919061654b565b806151d981616639565b915050615185565b50806152b2576000845160016151f79190616346565b6001600160401b0381111561520e5761520e615957565b604051908082528060200260200182016040528015615237578160200160208202803683370190505b50905060005b855181101561528f5785818151811061525857615258616e3f565b602002602001015182828151811061527257615272616e3f565b60209081029190910101528061528781616639565b91505061523d565b5082818651815181106152a4576152a4616e3f565b602090810291909101015293505b505b60008483815181106152c8576152c8616e3f565b6020908102919091018101518101516000848152607b835260408082206001600160a01b038b168352600981019094528120549193506153088285615685565b6001600160a01b038a1660009081526009850160205260408120829055909150805b6001600160a01b038b166000908152607d60205260409020548110156153a15784546001600160a01b038c166000908152607d6020526040902080548390811061537657615376616e3f565b90600052602060002001540361538f57600191506153a1565b8061539981616639565b91505061532a565b50806153d7576001600160a01b038a166000908152607d6020908152604082208654815460018101835591845291909220909101555b818311615427576153e88383616312565b607060008282546153f99190616346565b9091555061540990508383616312565b84600201600082825461541c9190616346565b9091555061546b9050565b6154318284616312565b607060008282546154429190616312565b9091555061545290508284616312565b8460020160008282546154659190616312565b90915550505b8360070154600003615482574360078501556154c2565b61548c84846132b1565b600080516020616ff68339815191528a8784876002015488600301546040516154b9959493929190616f2e565b60405180910390a15b50505050505080806154d390616639565b915050615108565b60008060008084865af1610f4a5763b12d13eb6000526004601cfd5b816014528060345263a9059cbb60601b60005260206000604460106000875af13d156001600051141716615533576390b8ec186000526004601cfd5b6000603452505050565b6000818152607b602052604081205415801590610f325750506000908152607b60205260409020600501546001600160a01b0316151590565b600080608083901c1561558b57608092831c92015b604083901c1561559d57604092831c92015b602083901c156155af57602092831c92015b601083901c156155c157601092831c92015b600883901c156155d357600892831c92015b600483901c156155e557600492831c92015b600283901c156155f757600292831c92015b600183901c15610f325760010192915050565b6000818310615619578161113f565b5090919050565b61562981614c7a565b6040516001600160a01b038216907fbc7cd75a20ee27fd9adebab32041f755214dbc6bffa90cc0225b39da2e5c2d3b90600090a250565b606061113f8383604051806060016040528060278152602001617016602791396156bc565b6000806156928385616f79565b9050600081121561113f57838382604051631dde38a160e11b815260040161100e93929190616a06565b6060600080856001600160a01b0316856040516156d99190616f99565b600060405180830381855af49150503d8060008114615714576040519150601f19603f3d011682016040523d82523d6000602084013e615719565b606091505b509150915061572a86838387615734565b9695505050505050565b606083156157a157825160000361579a5761574e856132a2565b61579a5760405162461bcd60e51b815260206004820152601d60248201527f416464726573733a2063616c6c20746f206e6f6e2d636f6e7472616374000000604482015260640161100e565b5081614793565b61479383838151156157b65781518083602001fd5b8060405162461bcd60e51b815260040161100e91906162b5565b6000602082840312156157e257600080fd5b5035919050565b6001600160a01b03169052565b634e487b7160e01b600052602160045260246000fd5b6007811061195c5761195c6157f6565b60005b8381101561583757818101518382015260200161581f565b50506000910152565b6000815180845261585881602086016020860161581c565b601f01601f19169290920160200192915050565b8051825260006020820151604060208501526147936040850182615840565b60006101e08f83528e60208401528d60408401528c606084015260018060a01b03808d166080850152808c1660a0850152808b1660c08501528960e08501526158d38961580c565b88610100850152816101208501526158ed8285018961586c565b875161014086015260208801516101608601526040909701511661018084015250506101a08101929092526101c0909101529a9950505050505050505050565b60006020828403121561593f57600080fd5b81356001600160e01b03198116811461113f57600080fd5b634e487b7160e01b600052604160045260246000fd5b60405160c081016001600160401b038111828210171561598f5761598f615957565b60405290565b604051608081016001600160401b038111828210171561598f5761598f615957565b60405161010081016001600160401b038111828210171561598f5761598f615957565b604080519081016001600160401b038111828210171561598f5761598f615957565b60405160a081016001600160401b038111828210171561598f5761598f615957565b604051601f8201601f191681016001600160401b0381118282101715615a4657615a46615957565b604052919050565b6001600160a01b038116811461195c57600080fd5b600060c08284031215615a7557600080fd5b615a7d61596d565b90508135615a8a81615a4e565b81526020820135615a9a81615a4e565b8060208301525060408201356040820152606082013560608201526080820135608082015260a082013560a082015292915050565b600060808284031215615ae157600080fd5b615ae9615995565b90508135815260208201356020820152604082013560408201526060820135606082015292915050565b6000806101408385031215615b2757600080fd5b615b318484615a63565b9150615b408460c08501615acf565b90509250929050565b60006001600160401b03821115615b6257615b62615957565b5060051b60200190565b600082601f830112615b7d57600080fd5b81356020615b92615b8d83615b49565b615a1e565b82815260059290921b84018101918181019086841115615bb157600080fd5b8286015b84811015615bd5578035615bc881615a4e565b8352918301918301615bb5565b509695505050505050565b60006001600160401b03821115615bf957615bf9615957565b50601f01601f191660200190565b6000615c15615b8d84615be0565b9050828152838383011115615c2957600080fd5b828260208301376000602084830101529392505050565b600082601f830112615c5157600080fd5b61113f83833560208501615c07565b600080600060608486031215615c7557600080fd5b83356001600160401b0380821115615c8c57600080fd5b615c9887838801615b6c565b94506020860135915080821115615cae57600080fd5b50615cbb86828701615c40565b9250506040840135615ccc81615a4e565b809150509250925092565b6001600160a01b0391909116815260200190565b600080600060608486031215615d0057600080fd5b8335615d0b81615a4e565b92506020840135615d1b81615a4e565b91506040840135615ccc81615a4e565b60008060408385031215615d3e57600080fd5b82356001600160401b03811115615d5457600080fd5b615d6085828601615c40565b9250506020830135615d7181615a4e565b809150509250929050565b60048110615d8c57615d8c6157f6565b9052565b60208101610f328284615d7c565b60008060408385031215615db157600080fd5b8235615dbc81615a4e565b946020939093013593505050565b60008060408385031215615ddd57600080fd5b50508035926020909101359150565b600080600060608486031215615e0157600080fd5b505081359360208301359350604090920135919050565b60038110615d8c57615d8c6157f6565b60208101610f328284615e18565b600060208284031215615e4857600080fd5b813561113f81615a4e565b60008060408385031215615e6657600080fd5b8235615e7181615a4e565b915060208301356001600160401b03811115615e8c57600080fd5b615e9885828601615c40565b9150509250929050565b600080600060608486031215615eb757600080fd5b8335615ec281615a4e565b925060208401356001600160401b03811115615edd57600080fd5b8401601f81018613615eee57600080fd5b615cbb86823560208401615c07565b600060208284031215615f0f57600080fd5b81356001600160401b03811115615f2557600080fd5b61479384828501615b6c565b6000806000806101808587031215615f4857600080fd5b615f528686615a63565b9350615f618660c08701615acf565b92506101408501356001600160401b0380821115615f7e57600080fd5b615f8a88838901615b6c565b9350610160870135915080821115615fa157600080fd5b50615fae87828801615b6c565b91505092959194509250565b60208152600061113f602083018461586c565b60008060408385031215615fe057600080fd5b82356001600160401b0380821115615ff757600080fd5b61600386838701615b6c565b935060209150818501358181111561601a57600080fd5b8501601f8101871361602b57600080fd5b8035616039615b8d82615b49565b81815260059190911b8201840190848101908983111561605857600080fd5b8584015b83811015616090578035868111156160745760008081fd5b6160828c8983890101615c40565b84525091860191860161605c565b508096505050505050509250929050565b602080825282518282018190526000919060409081850190868401855b828110156160ec57815180516001600160a01b031685528601518685015292840192908501906001016160be565b5091979650505050505050565b60008083601f84011261610b57600080fd5b5081356001600160401b0381111561612257600080fd5b6020830191508360208285010111156144bf57600080fd5b60008060008060006060868803121561615257600080fd5b8535945060208601356001600160401b038082111561617057600080fd5b61617c89838a016160f9565b9096509450604088013591508082111561619557600080fd5b506161a2888289016160f9565b969995985093965092949392505050565b801515811461195c57600080fd5b6000602082840312156161d357600080fd5b813561113f816161b3565b6001600160a01b038c811682528b811660208301528a166040820152606081018990526080810188905261016081016162168861580c565b8760a08301528660c08301528560e08301528461010083015283610120830152826101408301529c9b505050505050505050505050565b6000806040838503121561626057600080fd5b823591506020830135615d7181615a4e565b6020810161627f8361580c565b91905290565b6000806040838503121561629857600080fd5b8235915060208301356001600160401b03811115615e8c57600080fd5b60208152600061113f6020830184615840565b600181811c908216806162dc57607f821691505b602082108103611bed57634e487b7160e01b600052602260045260246000fd5b634e487b7160e01b600052601160045260246000fd5b81810381811115610f3257610f326162fc565b6001600160a01b039390931683526020830191909152604082015260600190565b80820180821115610f3257610f326162fc565b9283526001600160a01b03919091166020830152604082015260600190565b60006020828403121561638a57600080fd5b815161113f81615a4e565b9384526001600160a01b03928316602085015291166040830152606082015260800190565b634e487b7160e01b600052601260045260246000fd5b6000826163ed57634e487b7160e01b600052601260045260246000fd5b500490565b60006001600160401b0382168061640b5761640b6162fc565b6000190192915050565b8082028115828204841417610f3257610f326162fc565b6020808252602c90820152600080516020616fb683398151915260408201526b19195b1959d85d1958d85b1b60a21b606082015260800190565b6020808252602c90820152600080516020616fb683398151915260408201526b6163746976652070726f787960a01b606082015260800190565b6020808252602b908201527f496e697469616c697a61626c653a20636f6e7472616374206973206e6f74206960408201526a6e697469616c697a696e6760a81b606082015260800190565b6001600160a01b0392831681529116602082015260400190565b60006020828403121561651757600080fd5b815161113f816161b3565b60006020828403121561653457600080fd5b5051919050565b805161654681615a4e565b919050565b918252602082015260400190565b9182526001600160a01b0316602082015260400190565b81835281816020850137506000828201602090810191909152601f909101601f19169091010190565b8381526040602082015260006165b3604083018486616570565b95945050505050565b60006001600160401b038281166002600160401b031981016165e0576165e06162fc565b6001019392505050565b6001600160a01b03888116825260208201889052604082018790528516606082015260c0608082018190526000906166259083018587616570565b90508260a083015298975050505050505050565b60006001820161664b5761664b6162fc565b5060010190565b60006080828403121561666457600080fd5b61666c615995565b90508151815260208201516020820152604082015160408201526060820151606082015292915050565b80516003811061654657600080fd5b80516004811061654657600080fd5b6000602082840312156166c657600080fd5b604051602081016001600160401b03811182821017156166e8576166e8615957565b6040529151825250919050565b600060c0828403121561670757600080fd5b61670f61596d565b9050815161671c81615a4e565b8152602082015161672c81615a4e565b8060208301525060408201516040820152606082015160608201526080820151608082015260a082015160a082015292915050565b600082601f83011261677257600080fd5b81516020616782615b8d83615b49565b82815260059290921b840181019181810190868411156167a157600080fd5b8286015b84811015615bd55780516167b881615a4e565b83529183019183016167a5565b6000602082840312156167d757600080fd5b81516001600160401b03808211156167ee57600080fd5b90830190610200828603121561680357600080fd5b61680b6159b7565b6168158684616652565b815261682360808401616696565b602082015261683460a084016166a5565b60408201526168468660c085016166b4565b60608201526168588660e085016166f5565b608082015261686a6101a0840161653b565b60a082015261687c6101c0840161653b565b60c08201526101e08301518281111561689457600080fd5b6168a087828601616761565b60e08301525095945050505050565b805182526020810151602083015260408101516040830152606081015160608301525050565b600081518084526020808501945080840160005b8381101561690e5781516001600160a01b0316875295820195908201906001016168e9565b509495945050505050565b828152604060208201526169316040820183516168af565b6000602083015161694560c0840182615e18565b50604083015161695860e0840182615d7c565b506060838101515161010084015260808085015180516001600160a01b039081166101208701526020820151166101408601526040810151610160860152918201516101808501528101516101a084015260a0908101516101c08401528301516169c66101e08401826157e9565b5060c08301516102006169db818501836157e9565b60e0850151915080610220850152506165b36102408401826168d5565b60808101610f3282846168af565b9283526020830191909152604082015260600190565b600060408284031215616a2e57600080fd5b616a366159da565b8251815260208301519091506001600160401b03811115616a5657600080fd5b8201601f81018413616a6757600080fd5b8051616a75615b8d82615be0565b818152856020838501011115616a8a57600080fd5b616a9b82602083016020860161581c565b602084015250909392505050565b600060208284031215616abb57600080fd5b81516001600160401b0380821115616ad257600080fd5b9083019060c08286031215616ae657600080fd5b616aee61596d565b825181526020830151616b0081615a4e565b60208201526040830151616b1381615a4e565b6040820152606083015182811115616b2a57600080fd5b616b3687828601616a1c565b6060830152506080830151608082015260a083015160a082015280935050505092915050565b600060208284031215616b6e57600080fd5b81516001600160401b0380821115616b8557600080fd5b9083019060a08286031215616b9957600080fd5b616ba16159fc565b825181526020830151616bb381615a4e565b6020820152604083810151908201526060830151616bd081615a4e565b6060820152608083015182811115616be757600080fd5b616bf387828601616a1c565b60808301525095945050505050565b601f821115610f6957600081815260208120601f850160051c81016020861015616c295750805b601f850160051c820191505b81811015616c4857828155600101616c35565b505050505050565b81516001600160401b03811115616c6957616c69615957565b616c7d81616c7784546162c8565b84616c02565b602080601f831160018114616cb25760008415616c9a5750858301515b600019600386901b1c1916600185901b178555616c48565b600085815260208120601f198616915b82811015616ce157888601518255948401946001909101908401616cc2565b5085821015616cff5787850151600019600388901b60f8161c191681555b5050505050600190811b01905550565b600060208284031215616d2157600080fd5b815160ff8116811461113f57600080fd5b600181815b80851115616d6d578160001904821115616d5357616d536162fc565b80851615616d6057918102915b93841c9390800290616d37565b509250929050565b600082616d8457506001610f32565b81616d9157506000610f32565b8160018114616da75760028114616db157616dcd565b6001915050610f32565b60ff841115616dc257616dc26162fc565b50506001821b610f32565b5060208310610133831016604e8410600b8410161715616df0575081810a610f32565b616dfa8383616d32565b8060001904821115616e0e57616e0e6162fc565b029392505050565b600061113f8383616d75565b6810531313d5d31254d560ba1b8152600981019190915260290190565b634e487b7160e01b600052603260045260246000fd5b82815260406020820152600061479360408301846168d5565b634e487b7160e01b600052600160045260246000fd5b60006020808385031215616e9757600080fd5b82516001600160401b03811115616ead57600080fd5b8301601f81018513616ebe57600080fd5b8051616ecc615b8d82615b49565b81815260069190911b82018301908381019087831115616eeb57600080fd5b928401925b82841015613a295760408489031215616f095760008081fd5b616f116159da565b845181528585015186820152825260409093019290840190616ef0565b6001600160a01b03959095168552602085019390935260408401919091526060830152608082015260a00190565b82815260408101616f6c8361580c565b8260208301529392505050565b8082018281126000831280158216821582161715613ad457613ad46162fc565b60008251616fab81846020870161581c565b919091019291505056fe46756e6374696f6e206d7573742062652063616c6c6564207468726f75676820360894a13ba1a3210667c828492db98dca3e2076cc3735a920a3ca505d382bbc0227f642ddcf2042ceaeafadb9d540f432072c00cd4862881667168dcc14710f416464726573733a206c6f772d6c6576656c2064656c65676174652063616c6c206661696c6564a26469706673582212207d568181a7096f5a12733da497de8df442fe500c154c4cfd099a985cef599bad64736f6c63430008130033","linkReferences":{}},"methodIdentifiers":{"D()":"0f529ba2","DISPUTE_COOLDOWN_SEC()":"f5be3f7c","MAX_STAKED_PROPOSALS()":"406244d8","NATIVE()":"a0cf0aea","RULING_OPTIONS()":"626c47e8","VERSION()":"ffa1ad74","activatePoints()":"814516ad","addToAllowList(address[])":"7263cfe2","allocate(bytes,address)":"ef2920fc","arbitrableConfigs(uint256)":"41bb7605","calculateConviction(uint256,uint256,uint256)":"346db8cb","calculateThreshold(uint256)":"59a5db8b","canExecuteProposal(uint256)":"824ea8ed","cancelProposal(uint256)":"e0a8f6f5","cloneNonce()":"33960459","collateralVault()":"0bece79c","currentArbitrableConfigVersion()":"125fd1d9","cvParams()":"2506b870","deactivatePoints()":"1ddf1e23","deactivatePoints(address)":"6453d9c4","decreasePower(address,uint256)":"2ed04b2b","disputeCount()":"a28889e1","disputeIdToProposalId(uint256)":"255ffb38","disputeProposal(uint256,string,bytes)":"b41596ec","distribute(address[],bytes,address)":"0a6f0ee9","getAllo()":"15cc481e","getArbitrableConfig()":"059351cd","getDecay()":"9a1c157c","getMaxAmount()":"0ba95909","getMaxConviction(uint256)":"950559d7","getMetadata(uint256)":"a574cea4","getPayouts(address[],bytes[])":"b2b878d0","getPointSystem()":"c3292171","getPoolAmount()":"4ab4ba42","getPoolId()":"38fff2d0","getProposal(uint256)":"c7f758a8","getProposalStakedAmount(uint256)":"dc96ff2d","getProposalVoterStake(uint256,address)":"e0dd2c38","getRecipientStatus(address)":"eb11af93","getRegistryCommunity()":"48f19c1d","getRegistryCommunityV0_1()":"6a6f69b4","getStrategyId()":"42fda9c7","getTotalVoterStakePct(address)":"bcc5b93b","increasePoolAmount(uint256)":"f5b0dfb7","increasePower(address,uint256)":"782aadff","init(address,address,address)":"184b9559","init(address,string,address)":"60d5dedc","initialize(address)":"c4d66de8","initialize(uint256,bytes)":"edd146cc","isPoolActive()":"df868ed3","isValidAllocator(address)":"4d31d087","owner()":"8da5cb5b","pointConfig()":"a47ff7e5","pointSystem()":"2dbd6fdd","proposalCounter()":"0c0512e9","proposalType()":"351d9f96","proposals(uint256)":"013cf08b","proxiableUUID()":"52d1902d","registerRecipient(bytes,address)":"2bbe0cae","removeFromAllowList(address[])":"a51312c8","renounceOwnership()":"715018a6","rule(uint256,uint256)":"311a6c56","setCollateralVaultTemplate(address)":"b0d3713a","setPoolActive(bool)":"b5f620ce","setPoolParams((address,address,uint256,uint256,uint256,uint256),(uint256,uint256,uint256,uint256))":"062f9ece","setPoolParams((address,address,uint256,uint256,uint256,uint256),(uint256,uint256,uint256,uint256),address[],address[])":"948e7a59","setSybilScorer(address)":"ac1ed7b9","supportsInterface(bytes4)":"01ffc9a7","sybilScorer()":"b6c61f31","totalEffectiveActivePoints()":"d1e36232","totalPointsActivated()":"aba9ffee","totalStaked()":"817b1cd2","totalVoterStakePct(address)":"5db64b99","transferOwnership(address)":"f2fde38b","updateProposalConviction(uint256)":"1aa91a9e","upgradeTo(address)":"3659cfe6","upgradeToAndCall(address,bytes)":"4f1ef286","voterStakedProposals(address,uint256)":"868c57b8"},"storageLayout":{"storage":[{"astId":52990,"contract":"pkg/contracts/src/CVStrategy/CVStrategyV0_1.sol:CVStrategyV0_1","label":"_initialized","offset":0,"slot":"0","type":"t_uint8"},{"astId":52993,"contract":"pkg/contracts/src/CVStrategy/CVStrategyV0_1.sol:CVStrategyV0_1","label":"_initializing","offset":1,"slot":"0","type":"t_bool"},{"astId":53695,"contract":"pkg/contracts/src/CVStrategy/CVStrategyV0_1.sol:CVStrategyV0_1","label":"__gap","offset":0,"slot":"1","type":"t_array(t_uint256)50_storage"},{"astId":52782,"contract":"pkg/contracts/src/CVStrategy/CVStrategyV0_1.sol:CVStrategyV0_1","label":"_owner","offset":0,"slot":"51","type":"t_address"},{"astId":52902,"contract":"pkg/contracts/src/CVStrategy/CVStrategyV0_1.sol:CVStrategyV0_1","label":"__gap","offset":0,"slot":"52","type":"t_array(t_uint256)49_storage"},{"astId":64873,"contract":"pkg/contracts/src/CVStrategy/CVStrategyV0_1.sol:CVStrategyV0_1","label":"allo","offset":0,"slot":"101","type":"t_contract(IAllo)2610"},{"astId":64875,"contract":"pkg/contracts/src/CVStrategy/CVStrategyV0_1.sol:CVStrategyV0_1","label":"strategyId","offset":0,"slot":"102","type":"t_bytes32"},{"astId":64877,"contract":"pkg/contracts/src/CVStrategy/CVStrategyV0_1.sol:CVStrategyV0_1","label":"poolActive","offset":0,"slot":"103","type":"t_bool"},{"astId":64879,"contract":"pkg/contracts/src/CVStrategy/CVStrategyV0_1.sol:CVStrategyV0_1","label":"poolId","offset":0,"slot":"104","type":"t_uint256"},{"astId":64881,"contract":"pkg/contracts/src/CVStrategy/CVStrategyV0_1.sol:CVStrategyV0_1","label":"poolAmount","offset":0,"slot":"105","type":"t_uint256"},{"astId":65910,"contract":"pkg/contracts/src/CVStrategy/CVStrategyV0_1.sol:CVStrategyV0_1","label":"collateralVaultTemplate","offset":0,"slot":"106","type":"t_address"},{"astId":65912,"contract":"pkg/contracts/src/CVStrategy/CVStrategyV0_1.sol:CVStrategyV0_1","label":"surpressStateMutabilityWarning","offset":0,"slot":"107","type":"t_uint256"},{"astId":65914,"contract":"pkg/contracts/src/CVStrategy/CVStrategyV0_1.sol:CVStrategyV0_1","label":"cloneNonce","offset":0,"slot":"108","type":"t_uint256"},{"astId":65916,"contract":"pkg/contracts/src/CVStrategy/CVStrategyV0_1.sol:CVStrategyV0_1","label":"disputeCount","offset":0,"slot":"109","type":"t_uint64"},{"astId":65918,"contract":"pkg/contracts/src/CVStrategy/CVStrategyV0_1.sol:CVStrategyV0_1","label":"proposalCounter","offset":0,"slot":"110","type":"t_uint256"},{"astId":65920,"contract":"pkg/contracts/src/CVStrategy/CVStrategyV0_1.sol:CVStrategyV0_1","label":"currentArbitrableConfigVersion","offset":0,"slot":"111","type":"t_uint256"},{"astId":65922,"contract":"pkg/contracts/src/CVStrategy/CVStrategyV0_1.sol:CVStrategyV0_1","label":"totalStaked","offset":0,"slot":"112","type":"t_uint256"},{"astId":65924,"contract":"pkg/contracts/src/CVStrategy/CVStrategyV0_1.sol:CVStrategyV0_1","label":"totalPointsActivated","offset":0,"slot":"113","type":"t_uint256"},{"astId":65927,"contract":"pkg/contracts/src/CVStrategy/CVStrategyV0_1.sol:CVStrategyV0_1","label":"cvParams","offset":0,"slot":"114","type":"t_struct(CVParams)65637_storage"},{"astId":65930,"contract":"pkg/contracts/src/CVStrategy/CVStrategyV0_1.sol:CVStrategyV0_1","label":"proposalType","offset":0,"slot":"118","type":"t_enum(ProposalType)65540"},{"astId":65933,"contract":"pkg/contracts/src/CVStrategy/CVStrategyV0_1.sol:CVStrategyV0_1","label":"pointSystem","offset":1,"slot":"118","type":"t_enum(PointSystem)65545"},{"astId":65936,"contract":"pkg/contracts/src/CVStrategy/CVStrategyV0_1.sol:CVStrategyV0_1","label":"pointConfig","offset":0,"slot":"119","type":"t_struct(PointSystemConfig)65614_storage"},{"astId":65938,"contract":"pkg/contracts/src/CVStrategy/CVStrategyV0_1.sol:CVStrategyV0_1","label":"registryCommunity","offset":0,"slot":"120","type":"t_address"},{"astId":65941,"contract":"pkg/contracts/src/CVStrategy/CVStrategyV0_1.sol:CVStrategyV0_1","label":"collateralVault","offset":0,"slot":"121","type":"t_contract(ICollateralVault)76159"},{"astId":65944,"contract":"pkg/contracts/src/CVStrategy/CVStrategyV0_1.sol:CVStrategyV0_1","label":"sybilScorer","offset":0,"slot":"122","type":"t_contract(ISybilScorer)70122"},{"astId":65949,"contract":"pkg/contracts/src/CVStrategy/CVStrategyV0_1.sol:CVStrategyV0_1","label":"proposals","offset":0,"slot":"123","type":"t_mapping(t_uint256,t_struct(Proposal)65606_storage)"},{"astId":65953,"contract":"pkg/contracts/src/CVStrategy/CVStrategyV0_1.sol:CVStrategyV0_1","label":"totalVoterStakePct","offset":0,"slot":"124","type":"t_mapping(t_address,t_uint256)"},{"astId":65958,"contract":"pkg/contracts/src/CVStrategy/CVStrategyV0_1.sol:CVStrategyV0_1","label":"voterStakedProposals","offset":0,"slot":"125","type":"t_mapping(t_address,t_array(t_uint256)dyn_storage)"},{"astId":65962,"contract":"pkg/contracts/src/CVStrategy/CVStrategyV0_1.sol:CVStrategyV0_1","label":"disputeIdToProposalId","offset":0,"slot":"126","type":"t_mapping(t_uint256,t_uint256)"},{"astId":65967,"contract":"pkg/contracts/src/CVStrategy/CVStrategyV0_1.sol:CVStrategyV0_1","label":"arbitrableConfigs","offset":0,"slot":"127","type":"t_mapping(t_uint256,t_struct(ArbitrableConfig)65628_storage)"},{"astId":69193,"contract":"pkg/contracts/src/CVStrategy/CVStrategyV0_1.sol:CVStrategyV0_1","label":"__gap","offset":0,"slot":"128","type":"t_array(t_uint256)50_storage"}],"types":{"t_address":{"encoding":"inplace","label":"address","numberOfBytes":"20"},"t_array(t_uint256)49_storage":{"encoding":"inplace","label":"uint256[49]","numberOfBytes":"1568","base":"t_uint256"},"t_array(t_uint256)50_storage":{"encoding":"inplace","label":"uint256[50]","numberOfBytes":"1600","base":"t_uint256"},"t_array(t_uint256)dyn_storage":{"encoding":"dynamic_array","label":"uint256[]","numberOfBytes":"32","base":"t_uint256"},"t_bool":{"encoding":"inplace","label":"bool","numberOfBytes":"1"},"t_bytes32":{"encoding":"inplace","label":"bytes32","numberOfBytes":"32"},"t_contract(IAllo)2610":{"encoding":"inplace","label":"contract IAllo","numberOfBytes":"20"},"t_contract(IArbitrator)76126":{"encoding":"inplace","label":"contract IArbitrator","numberOfBytes":"20"},"t_contract(ICollateralVault)76159":{"encoding":"inplace","label":"contract ICollateralVault","numberOfBytes":"20"},"t_contract(ISybilScorer)70122":{"encoding":"inplace","label":"contract ISybilScorer","numberOfBytes":"20"},"t_enum(PointSystem)65545":{"encoding":"inplace","label":"enum PointSystem","numberOfBytes":"1"},"t_enum(ProposalStatus)65565":{"encoding":"inplace","label":"enum ProposalStatus","numberOfBytes":"1"},"t_enum(ProposalType)65540":{"encoding":"inplace","label":"enum ProposalType","numberOfBytes":"1"},"t_mapping(t_address,t_array(t_uint256)dyn_storage)":{"encoding":"mapping","key":"t_address","label":"mapping(address => uint256[])","numberOfBytes":"32","value":"t_array(t_uint256)dyn_storage"},"t_mapping(t_address,t_uint256)":{"encoding":"mapping","key":"t_address","label":"mapping(address => uint256)","numberOfBytes":"32","value":"t_uint256"},"t_mapping(t_uint256,t_struct(ArbitrableConfig)65628_storage)":{"encoding":"mapping","key":"t_uint256","label":"mapping(uint256 => struct ArbitrableConfig)","numberOfBytes":"32","value":"t_struct(ArbitrableConfig)65628_storage"},"t_mapping(t_uint256,t_struct(Proposal)65606_storage)":{"encoding":"mapping","key":"t_uint256","label":"mapping(uint256 => struct Proposal)","numberOfBytes":"32","value":"t_struct(Proposal)65606_storage"},"t_mapping(t_uint256,t_uint256)":{"encoding":"mapping","key":"t_uint256","label":"mapping(uint256 => uint256)","numberOfBytes":"32","value":"t_uint256"},"t_string_storage":{"encoding":"bytes","label":"string","numberOfBytes":"32"},"t_struct(ArbitrableConfig)65628_storage":{"encoding":"inplace","label":"struct ArbitrableConfig","numberOfBytes":"192","members":[{"astId":65617,"contract":"pkg/contracts/src/CVStrategy/CVStrategyV0_1.sol:CVStrategyV0_1","label":"arbitrator","offset":0,"slot":"0","type":"t_contract(IArbitrator)76126"},{"astId":65619,"contract":"pkg/contracts/src/CVStrategy/CVStrategyV0_1.sol:CVStrategyV0_1","label":"tribunalSafe","offset":0,"slot":"1","type":"t_address"},{"astId":65621,"contract":"pkg/contracts/src/CVStrategy/CVStrategyV0_1.sol:CVStrategyV0_1","label":"submitterCollateralAmount","offset":0,"slot":"2","type":"t_uint256"},{"astId":65623,"contract":"pkg/contracts/src/CVStrategy/CVStrategyV0_1.sol:CVStrategyV0_1","label":"challengerCollateralAmount","offset":0,"slot":"3","type":"t_uint256"},{"astId":65625,"contract":"pkg/contracts/src/CVStrategy/CVStrategyV0_1.sol:CVStrategyV0_1","label":"defaultRuling","offset":0,"slot":"4","type":"t_uint256"},{"astId":65627,"contract":"pkg/contracts/src/CVStrategy/CVStrategyV0_1.sol:CVStrategyV0_1","label":"defaultRulingTimeout","offset":0,"slot":"5","type":"t_uint256"}]},"t_struct(CVParams)65637_storage":{"encoding":"inplace","label":"struct CVParams","numberOfBytes":"128","members":[{"astId":65630,"contract":"pkg/contracts/src/CVStrategy/CVStrategyV0_1.sol:CVStrategyV0_1","label":"maxRatio","offset":0,"slot":"0","type":"t_uint256"},{"astId":65632,"contract":"pkg/contracts/src/CVStrategy/CVStrategyV0_1.sol:CVStrategyV0_1","label":"weight","offset":0,"slot":"1","type":"t_uint256"},{"astId":65634,"contract":"pkg/contracts/src/CVStrategy/CVStrategyV0_1.sol:CVStrategyV0_1","label":"decay","offset":0,"slot":"2","type":"t_uint256"},{"astId":65636,"contract":"pkg/contracts/src/CVStrategy/CVStrategyV0_1.sol:CVStrategyV0_1","label":"minThresholdPoints","offset":0,"slot":"3","type":"t_uint256"}]},"t_struct(Metadata)3098_storage":{"encoding":"inplace","label":"struct Metadata","numberOfBytes":"64","members":[{"astId":3094,"contract":"pkg/contracts/src/CVStrategy/CVStrategyV0_1.sol:CVStrategyV0_1","label":"protocol","offset":0,"slot":"0","type":"t_uint256"},{"astId":3097,"contract":"pkg/contracts/src/CVStrategy/CVStrategyV0_1.sol:CVStrategyV0_1","label":"pointer","offset":0,"slot":"1","type":"t_string_storage"}]},"t_struct(PointSystemConfig)65614_storage":{"encoding":"inplace","label":"struct PointSystemConfig","numberOfBytes":"32","members":[{"astId":65613,"contract":"pkg/contracts/src/CVStrategy/CVStrategyV0_1.sol:CVStrategyV0_1","label":"maxAmount","offset":0,"slot":"0","type":"t_uint256"}]},"t_struct(Proposal)65606_storage":{"encoding":"inplace","label":"struct Proposal","numberOfBytes":"544","members":[{"astId":65574,"contract":"pkg/contracts/src/CVStrategy/CVStrategyV0_1.sol:CVStrategyV0_1","label":"proposalId","offset":0,"slot":"0","type":"t_uint256"},{"astId":65576,"contract":"pkg/contracts/src/CVStrategy/CVStrategyV0_1.sol:CVStrategyV0_1","label":"requestedAmount","offset":0,"slot":"1","type":"t_uint256"},{"astId":65578,"contract":"pkg/contracts/src/CVStrategy/CVStrategyV0_1.sol:CVStrategyV0_1","label":"stakedAmount","offset":0,"slot":"2","type":"t_uint256"},{"astId":65580,"contract":"pkg/contracts/src/CVStrategy/CVStrategyV0_1.sol:CVStrategyV0_1","label":"convictionLast","offset":0,"slot":"3","type":"t_uint256"},{"astId":65582,"contract":"pkg/contracts/src/CVStrategy/CVStrategyV0_1.sol:CVStrategyV0_1","label":"beneficiary","offset":0,"slot":"4","type":"t_address"},{"astId":65584,"contract":"pkg/contracts/src/CVStrategy/CVStrategyV0_1.sol:CVStrategyV0_1","label":"submitter","offset":0,"slot":"5","type":"t_address"},{"astId":65586,"contract":"pkg/contracts/src/CVStrategy/CVStrategyV0_1.sol:CVStrategyV0_1","label":"requestedToken","offset":0,"slot":"6","type":"t_address"},{"astId":65588,"contract":"pkg/contracts/src/CVStrategy/CVStrategyV0_1.sol:CVStrategyV0_1","label":"blockLast","offset":0,"slot":"7","type":"t_uint256"},{"astId":65591,"contract":"pkg/contracts/src/CVStrategy/CVStrategyV0_1.sol:CVStrategyV0_1","label":"proposalStatus","offset":0,"slot":"8","type":"t_enum(ProposalStatus)65565"},{"astId":65595,"contract":"pkg/contracts/src/CVStrategy/CVStrategyV0_1.sol:CVStrategyV0_1","label":"voterStakedPoints","offset":0,"slot":"9","type":"t_mapping(t_address,t_uint256)"},{"astId":65598,"contract":"pkg/contracts/src/CVStrategy/CVStrategyV0_1.sol:CVStrategyV0_1","label":"metadata","offset":0,"slot":"10","type":"t_struct(Metadata)3098_storage"},{"astId":65601,"contract":"pkg/contracts/src/CVStrategy/CVStrategyV0_1.sol:CVStrategyV0_1","label":"disputeInfo","offset":0,"slot":"12","type":"t_struct(ProposalDisputeInfo)65572_storage"},{"astId":65603,"contract":"pkg/contracts/src/CVStrategy/CVStrategyV0_1.sol:CVStrategyV0_1","label":"lastDisputeCompletion","offset":0,"slot":"15","type":"t_uint256"},{"astId":65605,"contract":"pkg/contracts/src/CVStrategy/CVStrategyV0_1.sol:CVStrategyV0_1","label":"arbitrableConfigVersion","offset":0,"slot":"16","type":"t_uint256"}]},"t_struct(ProposalDisputeInfo)65572_storage":{"encoding":"inplace","label":"struct ProposalDisputeInfo","numberOfBytes":"96","members":[{"astId":65567,"contract":"pkg/contracts/src/CVStrategy/CVStrategyV0_1.sol:CVStrategyV0_1","label":"disputeId","offset":0,"slot":"0","type":"t_uint256"},{"astId":65569,"contract":"pkg/contracts/src/CVStrategy/CVStrategyV0_1.sol:CVStrategyV0_1","label":"disputeTimestamp","offset":0,"slot":"1","type":"t_uint256"},{"astId":65571,"contract":"pkg/contracts/src/CVStrategy/CVStrategyV0_1.sol:CVStrategyV0_1","label":"challenger","offset":0,"slot":"2","type":"t_address"}]},"t_uint256":{"encoding":"inplace","label":"uint256","numberOfBytes":"32"},"t_uint64":{"encoding":"inplace","label":"uint64","numberOfBytes":"8"},"t_uint8":{"encoding":"inplace","label":"uint8","numberOfBytes":"1"}}},"id":99}