{"abi":[{"type":"fallback","stateMutability":"nonpayable"},{"type":"function","name":"COUNCIL_MEMBER","inputs":[],"outputs":[{"name":"","type":"bytes32","internalType":"bytes32"}],"stateMutability":"view"},{"type":"function","name":"DEFAULT_ADMIN_ROLE","inputs":[],"outputs":[{"name":"","type":"bytes32","internalType":"bytes32"}],"stateMutability":"view"},{"type":"function","name":"MAX_FEE","inputs":[],"outputs":[{"name":"","type":"uint256","internalType":"uint256"}],"stateMutability":"view"},{"type":"function","name":"NATIVE","inputs":[],"outputs":[{"name":"","type":"address","internalType":"address"}],"stateMutability":"view"},{"type":"function","name":"PRECISION_SCALE","inputs":[],"outputs":[{"name":"","type":"uint256","internalType":"uint256"}],"stateMutability":"view"},{"type":"function","name":"VERSION","inputs":[],"outputs":[{"name":"","type":"string","internalType":"string"}],"stateMutability":"view"},{"type":"function","name":"acceptCouncilSafe","inputs":[],"outputs":[],"stateMutability":"nonpayable"},{"type":"function","name":"activateMemberInStrategy","inputs":[{"name":"","type":"address","internalType":"address"},{"name":"","type":"address","internalType":"address"}],"outputs":[],"stateMutability":"nonpayable"},{"type":"function","name":"addStrategy","inputs":[{"name":"","type":"address","internalType":"address"}],"outputs":[],"stateMutability":"nonpayable"},{"type":"function","name":"addStrategyByPoolId","inputs":[{"name":"","type":"uint256","internalType":"uint256"}],"outputs":[],"stateMutability":"nonpayable"},{"type":"function","name":"addressToMemberInfo","inputs":[{"name":"member","type":"address","internalType":"address"}],"outputs":[{"name":"member","type":"address","internalType":"address"},{"name":"stakedAmount","type":"uint256","internalType":"uint256"},{"name":"isRegistered","type":"bool","internalType":"bool"}],"stateMutability":"view"},{"type":"function","name":"allo","inputs":[],"outputs":[{"name":"","type":"address","internalType":"contract FAllo"}],"stateMutability":"view"},{"type":"function","name":"cloneNonce","inputs":[],"outputs":[{"name":"","type":"uint256","internalType":"uint256"}],"stateMutability":"view"},{"type":"function","name":"collateralVaultTemplate","inputs":[],"outputs":[{"name":"","type":"address","internalType":"address"}],"stateMutability":"view"},{"type":"function","name":"communityFee","inputs":[],"outputs":[{"name":"","type":"uint256","internalType":"uint256"}],"stateMutability":"view"},{"type":"function","name":"communityName","inputs":[],"outputs":[{"name":"","type":"string","internalType":"string"}],"stateMutability":"view"},{"type":"function","name":"councilSafe","inputs":[],"outputs":[{"name":"","type":"address","internalType":"contract ISafe"}],"stateMutability":"view"},{"type":"function","name":"covenantIpfsHash","inputs":[],"outputs":[{"name":"","type":"string","internalType":"string"}],"stateMutability":"view"},{"type":"function","name":"createPool","inputs":[{"name":"_strategy","type":"address","internalType":"address"},{"name":"_token","type":"address","internalType":"address"},{"name":"_params","type":"tuple","internalType":"struct CVStrategyInitializeParamsV0_3","components":[{"name":"cvParams","type":"tuple","internalType":"struct CVParams","components":[{"name":"maxRatio","type":"uint256","internalType":"uint256"},{"name":"weight","type":"uint256","internalType":"uint256"},{"name":"decay","type":"uint256","internalType":"uint256"},{"name":"minThresholdPoints","type":"uint256","internalType":"uint256"}]},{"name":"proposalType","type":"uint8","internalType":"enum ProposalType"},{"name":"pointSystem","type":"uint8","internalType":"enum PointSystem"},{"name":"pointConfig","type":"tuple","internalType":"struct PointSystemConfig","components":[{"name":"maxAmount","type":"uint256","internalType":"uint256"}]},{"name":"arbitrableConfig","type":"tuple","internalType":"struct ArbitrableConfig","components":[{"name":"arbitrator","type":"address","internalType":"contract IArbitrator"},{"name":"tribunalSafe","type":"address","internalType":"address"},{"name":"submitterCollateralAmount","type":"uint256","internalType":"uint256"},{"name":"challengerCollateralAmount","type":"uint256","internalType":"uint256"},{"name":"defaultRuling","type":"uint256","internalType":"uint256"},{"name":"defaultRulingTimeout","type":"uint256","internalType":"uint256"}]},{"name":"registryCommunity","type":"address","internalType":"address"},{"name":"votingPowerRegistry","type":"address","internalType":"address"},{"name":"sybilScorer","type":"address","internalType":"address"},{"name":"sybilScorerThreshold","type":"uint256","internalType":"uint256"},{"name":"initialAllowlist","type":"address[]","internalType":"address[]"},{"name":"superfluidToken","type":"address","internalType":"address"},{"name":"streamingRatePerSecond","type":"uint256","internalType":"uint256"}]},{"name":"_metadata","type":"tuple","internalType":"struct Metadata","components":[{"name":"protocol","type":"uint256","internalType":"uint256"},{"name":"pointer","type":"string","internalType":"string"}]}],"outputs":[{"name":"poolId","type":"uint256","internalType":"uint256"},{"name":"strategy","type":"address","internalType":"address"}],"stateMutability":"nonpayable"},{"type":"function","name":"createPool","inputs":[{"name":"_token","type":"address","internalType":"address"},{"name":"_params","type":"tuple","internalType":"struct CVStrategyInitializeParamsV0_3","components":[{"name":"cvParams","type":"tuple","internalType":"struct CVParams","components":[{"name":"maxRatio","type":"uint256","internalType":"uint256"},{"name":"weight","type":"uint256","internalType":"uint256"},{"name":"decay","type":"uint256","internalType":"uint256"},{"name":"minThresholdPoints","type":"uint256","internalType":"uint256"}]},{"name":"proposalType","type":"uint8","internalType":"enum ProposalType"},{"name":"pointSystem","type":"uint8","internalType":"enum PointSystem"},{"name":"pointConfig","type":"tuple","internalType":"struct PointSystemConfig","components":[{"name":"maxAmount","type":"uint256","internalType":"uint256"}]},{"name":"arbitrableConfig","type":"tuple","internalType":"struct ArbitrableConfig","components":[{"name":"arbitrator","type":"address","internalType":"contract IArbitrator"},{"name":"tribunalSafe","type":"address","internalType":"address"},{"name":"submitterCollateralAmount","type":"uint256","internalType":"uint256"},{"name":"challengerCollateralAmount","type":"uint256","internalType":"uint256"},{"name":"defaultRuling","type":"uint256","internalType":"uint256"},{"name":"defaultRulingTimeout","type":"uint256","internalType":"uint256"}]},{"name":"registryCommunity","type":"address","internalType":"address"},{"name":"votingPowerRegistry","type":"address","internalType":"address"},{"name":"sybilScorer","type":"address","internalType":"address"},{"name":"sybilScorerThreshold","type":"uint256","internalType":"uint256"},{"name":"initialAllowlist","type":"address[]","internalType":"address[]"},{"name":"superfluidToken","type":"address","internalType":"address"},{"name":"streamingRatePerSecond","type":"uint256","internalType":"uint256"}]},{"name":"_metadata","type":"tuple","internalType":"struct Metadata","components":[{"name":"protocol","type":"uint256","internalType":"uint256"},{"name":"pointer","type":"string","internalType":"string"}]}],"outputs":[{"name":"poolId","type":"uint256","internalType":"uint256"},{"name":"strategy","type":"address","internalType":"address"}],"stateMutability":"nonpayable"},{"type":"function","name":"deactivateMemberInStrategy","inputs":[{"name":"","type":"address","internalType":"address"},{"name":"","type":"address","internalType":"address"}],"outputs":[],"stateMutability":"nonpayable"},{"type":"function","name":"decreasePower","inputs":[{"name":"","type":"uint256","internalType":"uint256"}],"outputs":[],"stateMutability":"nonpayable"},{"type":"function","name":"diamondCut","inputs":[{"name":"_diamondCut","type":"tuple[]","internalType":"struct IDiamond.FacetCut[]","components":[{"name":"facetAddress","type":"address","internalType":"address"},{"name":"action","type":"uint8","internalType":"enum IDiamond.FacetCutAction"},{"name":"functionSelectors","type":"bytes4[]","internalType":"bytes4[]"}]},{"name":"_init","type":"address","internalType":"address"},{"name":"_calldata","type":"bytes","internalType":"bytes"}],"outputs":[],"stateMutability":"nonpayable"},{"type":"function","name":"enabledStrategies","inputs":[{"name":"strategy","type":"address","internalType":"address"}],"outputs":[{"name":"isEnabled","type":"bool","internalType":"bool"}],"stateMutability":"view"},{"type":"function","name":"feeReceiver","inputs":[],"outputs":[{"name":"","type":"address","internalType":"address"}],"stateMutability":"view"},{"type":"function","name":"gardenToken","inputs":[],"outputs":[{"name":"","type":"address","internalType":"contract IERC20"}],"stateMutability":"view"},{"type":"function","name":"getBasisStakedAmount","inputs":[],"outputs":[{"name":"","type":"uint256","internalType":"uint256"}],"stateMutability":"nonpayable"},{"type":"function","name":"getMemberPowerInStrategy","inputs":[{"name":"","type":"address","internalType":"address"},{"name":"","type":"address","internalType":"address"}],"outputs":[{"name":"","type":"uint256","internalType":"uint256"}],"stateMutability":"nonpayable"},{"type":"function","name":"getMemberStakedAmount","inputs":[{"name":"","type":"address","internalType":"address"}],"outputs":[{"name":"","type":"uint256","internalType":"uint256"}],"stateMutability":"nonpayable"},{"type":"function","name":"getRoleAdmin","inputs":[{"name":"role","type":"bytes32","internalType":"bytes32"}],"outputs":[{"name":"","type":"bytes32","internalType":"bytes32"}],"stateMutability":"view"},{"type":"function","name":"getStakeAmountWithFees","inputs":[],"outputs":[{"name":"","type":"uint256","internalType":"uint256"}],"stateMutability":"nonpayable"},{"type":"function","name":"grantRole","inputs":[{"name":"role","type":"bytes32","internalType":"bytes32"},{"name":"account","type":"address","internalType":"address"}],"outputs":[],"stateMutability":"nonpayable"},{"type":"function","name":"hasRole","inputs":[{"name":"role","type":"bytes32","internalType":"bytes32"},{"name":"account","type":"address","internalType":"address"}],"outputs":[{"name":"","type":"bool","internalType":"bool"}],"stateMutability":"view"},{"type":"function","name":"increasePower","inputs":[{"name":"","type":"uint256","internalType":"uint256"}],"outputs":[],"stateMutability":"nonpayable"},{"type":"function","name":"initialize","inputs":[{"name":"params","type":"tuple","internalType":"struct RegistryCommunityInitializeParams","components":[{"name":"_allo","type":"address","internalType":"address"},{"name":"_gardenToken","type":"address","internalType":"contract IERC20"},{"name":"_registerStakeAmount","type":"uint256","internalType":"uint256"},{"name":"_communityFee","type":"uint256","internalType":"uint256"},{"name":"_nonce","type":"uint256","internalType":"uint256"},{"name":"_registryFactory","type":"address","internalType":"address"},{"name":"_feeReceiver","type":"address","internalType":"address"},{"name":"_metadata","type":"tuple","internalType":"struct Metadata","components":[{"name":"protocol","type":"uint256","internalType":"uint256"},{"name":"pointer","type":"string","internalType":"string"}]},{"name":"_councilSafe","type":"address","internalType":"address payable"},{"name":"_communityName","type":"string","internalType":"string"},{"name":"_isKickEnabled","type":"bool","internalType":"bool"},{"name":"covenantIpfsHash","type":"string","internalType":"string"}]},{"name":"_strategyTemplate","type":"address","internalType":"address"},{"name":"_collateralVaultTemplate","type":"address","internalType":"address"},{"name":"_owner","type":"address","internalType":"address"}],"outputs":[],"stateMutability":"nonpayable"},{"type":"function","name":"initialize","inputs":[{"name":"initialOwner","type":"address","internalType":"address"}],"outputs":[],"stateMutability":"nonpayable"},{"type":"function","name":"isCouncilMember","inputs":[{"name":"","type":"address","internalType":"address"}],"outputs":[{"name":"","type":"bool","internalType":"bool"}],"stateMutability":"nonpayable"},{"type":"function","name":"isKickEnabled","inputs":[],"outputs":[{"name":"","type":"bool","internalType":"bool"}],"stateMutability":"view"},{"type":"function","name":"isMember","inputs":[{"name":"","type":"address","internalType":"address"}],"outputs":[{"name":"","type":"bool","internalType":"bool"}],"stateMutability":"nonpayable"},{"type":"function","name":"kickMember","inputs":[{"name":"","type":"address","internalType":"address"},{"name":"","type":"address","internalType":"address"}],"outputs":[],"stateMutability":"nonpayable"},{"type":"function","name":"memberActivatedInStrategies","inputs":[{"name":"member","type":"address","internalType":"address"},{"name":"strategy","type":"address","internalType":"address"}],"outputs":[{"name":"isActivated","type":"bool","internalType":"bool"}],"stateMutability":"view"},{"type":"function","name":"memberPowerInStrategy","inputs":[{"name":"strategy","type":"address","internalType":"address"},{"name":"member","type":"address","internalType":"address"}],"outputs":[{"name":"power","type":"uint256","internalType":"uint256"}],"stateMutability":"view"},{"type":"function","name":"onlyStrategyEnabled","inputs":[{"name":"_strategy","type":"address","internalType":"address"}],"outputs":[],"stateMutability":"view"},{"type":"function","name":"owner","inputs":[],"outputs":[{"name":"","type":"address","internalType":"address"}],"stateMutability":"view"},{"type":"function","name":"pendingCouncilSafe","inputs":[],"outputs":[{"name":"","type":"address","internalType":"address payable"}],"stateMutability":"view"},{"type":"function","name":"profileId","inputs":[],"outputs":[{"name":"","type":"bytes32","internalType":"bytes32"}],"stateMutability":"view"},{"type":"function","name":"proxiableUUID","inputs":[],"outputs":[{"name":"","type":"bytes32","internalType":"bytes32"}],"stateMutability":"view"},{"type":"function","name":"proxyOwner","inputs":[],"outputs":[{"name":"","type":"address","internalType":"address"}],"stateMutability":"view"},{"type":"function","name":"registerStakeAmount","inputs":[],"outputs":[{"name":"","type":"uint256","internalType":"uint256"}],"stateMutability":"view"},{"type":"function","name":"registry","inputs":[],"outputs":[{"name":"","type":"address","internalType":"contract IRegistry"}],"stateMutability":"view"},{"type":"function","name":"registryFactory","inputs":[],"outputs":[{"name":"","type":"address","internalType":"address"}],"stateMutability":"view"},{"type":"function","name":"rejectPool","inputs":[{"name":"","type":"address","internalType":"address"}],"outputs":[],"stateMutability":"nonpayable"},{"type":"function","name":"removeStrategy","inputs":[{"name":"","type":"address","internalType":"address"}],"outputs":[],"stateMutability":"nonpayable"},{"type":"function","name":"removeStrategyByPoolId","inputs":[{"name":"","type":"uint256","internalType":"uint256"}],"outputs":[],"stateMutability":"nonpayable"},{"type":"function","name":"renounceOwnership","inputs":[],"outputs":[],"stateMutability":"nonpayable"},{"type":"function","name":"renounceRole","inputs":[{"name":"role","type":"bytes32","internalType":"bytes32"},{"name":"account","type":"address","internalType":"address"}],"outputs":[],"stateMutability":"nonpayable"},{"type":"function","name":"revokeRole","inputs":[{"name":"role","type":"bytes32","internalType":"bytes32"},{"name":"account","type":"address","internalType":"address"}],"outputs":[],"stateMutability":"nonpayable"},{"type":"function","name":"setArchived","inputs":[{"name":"","type":"bool","internalType":"bool"}],"outputs":[],"stateMutability":"nonpayable"},{"type":"function","name":"setBasisStakedAmount","inputs":[{"name":"","type":"uint256","internalType":"uint256"}],"outputs":[],"stateMutability":"nonpayable"},{"type":"function","name":"setCollateralVaultTemplate","inputs":[{"name":"template","type":"address","internalType":"address"}],"outputs":[],"stateMutability":"nonpayable"},{"type":"function","name":"setCommunityFee","inputs":[{"name":"","type":"uint256","internalType":"uint256"}],"outputs":[],"stateMutability":"nonpayable"},{"type":"function","name":"setCommunityParams","inputs":[{"name":"","type":"tuple","internalType":"struct CommunityParams","components":[{"name":"councilSafe","type":"address","internalType":"address"},{"name":"feeReceiver","type":"address","internalType":"address"},{"name":"communityFee","type":"uint256","internalType":"uint256"},{"name":"communityName","type":"string","internalType":"string"},{"name":"registerStakeAmount","type":"uint256","internalType":"uint256"},{"name":"isKickEnabled","type":"bool","internalType":"bool"},{"name":"covenantIpfsHash","type":"string","internalType":"string"}]}],"outputs":[],"stateMutability":"nonpayable"},{"type":"function","name":"setCouncilSafe","inputs":[{"name":"","type":"address","internalType":"address payable"}],"outputs":[],"stateMutability":"nonpayable"},{"type":"function","name":"setPauseController","inputs":[{"name":"","type":"address","internalType":"address"}],"outputs":[],"stateMutability":"nonpayable"},{"type":"function","name":"setStrategyTemplate","inputs":[{"name":"template","type":"address","internalType":"address"}],"outputs":[],"stateMutability":"nonpayable"},{"type":"function","name":"stakeAndRegisterMember","inputs":[{"name":"","type":"string","internalType":"string"}],"outputs":[],"stateMutability":"nonpayable"},{"type":"function","name":"strategiesByMember","inputs":[{"name":"member","type":"address","internalType":"address"},{"name":"","type":"uint256","internalType":"uint256"}],"outputs":[{"name":"strategiesAddresses","type":"address","internalType":"address"}],"stateMutability":"view"},{"type":"function","name":"strategyTemplate","inputs":[],"outputs":[{"name":"","type":"address","internalType":"address"}],"stateMutability":"view"},{"type":"function","name":"supportsInterface","inputs":[{"name":"interfaceId","type":"bytes4","internalType":"bytes4"}],"outputs":[{"name":"","type":"bool","internalType":"bool"}],"stateMutability":"view"},{"type":"function","name":"totalMembers","inputs":[],"outputs":[{"name":"","type":"uint256","internalType":"uint256"}],"stateMutability":"view"},{"type":"function","name":"transferOwnership","inputs":[{"name":"newOwner","type":"address","internalType":"address"}],"outputs":[],"stateMutability":"nonpayable"},{"type":"function","name":"unregisterMember","inputs":[],"outputs":[],"stateMutability":"nonpayable"},{"type":"function","name":"upgradeTo","inputs":[{"name":"newImplementation","type":"address","internalType":"address"}],"outputs":[],"stateMutability":"nonpayable"},{"type":"function","name":"upgradeToAndCall","inputs":[{"name":"newImplementation","type":"address","internalType":"address"},{"name":"data","type":"bytes","internalType":"bytes"}],"outputs":[],"stateMutability":"payable"},{"type":"event","name":"AdminChanged","inputs":[{"name":"previousAdmin","type":"address","indexed":false,"internalType":"address"},{"name":"newAdmin","type":"address","indexed":false,"internalType":"address"}],"anonymous":false},{"type":"event","name":"BasisStakedAmountUpdated","inputs":[{"name":"_newAmount","type":"uint256","indexed":false,"internalType":"uint256"}],"anonymous":false},{"type":"event","name":"BeaconUpgraded","inputs":[{"name":"beacon","type":"address","indexed":true,"internalType":"address"}],"anonymous":false},{"type":"event","name":"CommunityArchived","inputs":[{"name":"_archived","type":"bool","indexed":false,"internalType":"bool"}],"anonymous":false},{"type":"event","name":"CommunityFeeUpdated","inputs":[{"name":"_newFee","type":"uint256","indexed":false,"internalType":"uint256"}],"anonymous":false},{"type":"event","name":"CommunityNameUpdated","inputs":[{"name":"_communityName","type":"string","indexed":false,"internalType":"string"}],"anonymous":false},{"type":"event","name":"CouncilSafeChangeStarted","inputs":[{"name":"_safeOwner","type":"address","indexed":false,"internalType":"address"},{"name":"_newSafeOwner","type":"address","indexed":false,"internalType":"address"}],"anonymous":false},{"type":"event","name":"CouncilSafeUpdated","inputs":[{"name":"_safe","type":"address","indexed":false,"internalType":"address"}],"anonymous":false},{"type":"event","name":"CovenantIpfsHashUpdated","inputs":[{"name":"_covenantIpfsHash","type":"string","indexed":false,"internalType":"string"}],"anonymous":false},{"type":"event","name":"DiamondCut","inputs":[{"name":"_diamondCut","type":"tuple[]","indexed":false,"internalType":"struct IDiamond.FacetCut[]","components":[{"name":"facetAddress","type":"address","internalType":"address"},{"name":"action","type":"uint8","internalType":"enum IDiamond.FacetCutAction"},{"name":"functionSelectors","type":"bytes4[]","internalType":"bytes4[]"}]},{"name":"_init","type":"address","indexed":false,"internalType":"address"},{"name":"_calldata","type":"bytes","indexed":false,"internalType":"bytes"}],"anonymous":false},{"type":"event","name":"FeeReceiverChanged","inputs":[{"name":"_feeReceiver","type":"address","indexed":false,"internalType":"address"}],"anonymous":false},{"type":"event","name":"Initialized","inputs":[{"name":"version","type":"uint8","indexed":false,"internalType":"uint8"}],"anonymous":false},{"type":"event","name":"KickEnabledUpdated","inputs":[{"name":"_isKickEnabled","type":"bool","indexed":false,"internalType":"bool"}],"anonymous":false},{"type":"event","name":"MemberActivatedStrategy","inputs":[{"name":"_member","type":"address","indexed":false,"internalType":"address"},{"name":"_strategy","type":"address","indexed":false,"internalType":"address"},{"name":"_pointsToIncrease","type":"uint256","indexed":false,"internalType":"uint256"}],"anonymous":false},{"type":"event","name":"MemberDeactivatedStrategy","inputs":[{"name":"_member","type":"address","indexed":false,"internalType":"address"},{"name":"_strategy","type":"address","indexed":false,"internalType":"address"}],"anonymous":false},{"type":"event","name":"MemberKicked","inputs":[{"name":"_member","type":"address","indexed":false,"internalType":"address"},{"name":"_transferAddress","type":"address","indexed":false,"internalType":"address"},{"name":"_amountReturned","type":"uint256","indexed":false,"internalType":"uint256"}],"anonymous":false},{"type":"event","name":"MemberPowerDecreased","inputs":[{"name":"_member","type":"address","indexed":false,"internalType":"address"},{"name":"_unstakedAmount","type":"uint256","indexed":false,"internalType":"uint256"}],"anonymous":false},{"type":"event","name":"MemberPowerIncreased","inputs":[{"name":"_member","type":"address","indexed":false,"internalType":"address"},{"name":"_stakedAmount","type":"uint256","indexed":false,"internalType":"uint256"}],"anonymous":false},{"type":"event","name":"MemberRegistered","inputs":[{"name":"_member","type":"address","indexed":false,"internalType":"address"},{"name":"_amountStaked","type":"uint256","indexed":false,"internalType":"uint256"}],"anonymous":false},{"type":"event","name":"MemberRegisteredWithCovenant","inputs":[{"name":"_member","type":"address","indexed":false,"internalType":"address"},{"name":"_amountStaked","type":"uint256","indexed":false,"internalType":"uint256"},{"name":"_covenantSig","type":"string","indexed":false,"internalType":"string"}],"anonymous":false},{"type":"event","name":"MemberUnregistered","inputs":[{"name":"_member","type":"address","indexed":false,"internalType":"address"},{"name":"_amountReturned","type":"uint256","indexed":false,"internalType":"uint256"}],"anonymous":false},{"type":"event","name":"OwnershipTransferred","inputs":[{"name":"previousOwner","type":"address","indexed":true,"internalType":"address"},{"name":"newOwner","type":"address","indexed":true,"internalType":"address"}],"anonymous":false},{"type":"event","name":"OwnershipTransferred","inputs":[{"name":"previousOwner","type":"address","indexed":true,"internalType":"address"},{"name":"newOwner","type":"address","indexed":true,"internalType":"address"}],"anonymous":false},{"type":"event","name":"PoolCreated","inputs":[{"name":"_poolId","type":"uint256","indexed":false,"internalType":"uint256"},{"name":"_strategy","type":"address","indexed":false,"internalType":"address"},{"name":"_community","type":"address","indexed":false,"internalType":"address"},{"name":"_token","type":"address","indexed":false,"internalType":"address"},{"name":"_metadata","type":"tuple","indexed":false,"internalType":"struct Metadata","components":[{"name":"protocol","type":"uint256","internalType":"uint256"},{"name":"pointer","type":"string","internalType":"string"}]}],"anonymous":false},{"type":"event","name":"PoolRejected","inputs":[{"name":"_strategy","type":"address","indexed":false,"internalType":"address"}],"anonymous":false},{"type":"event","name":"RegistryInitialized","inputs":[{"name":"_profileId","type":"bytes32","indexed":false,"internalType":"bytes32"},{"name":"_communityName","type":"string","indexed":false,"internalType":"string"},{"name":"_metadata","type":"tuple","indexed":false,"internalType":"struct Metadata","components":[{"name":"protocol","type":"uint256","internalType":"uint256"},{"name":"pointer","type":"string","internalType":"string"}]}],"anonymous":false},{"type":"event","name":"RoleAdminChanged","inputs":[{"name":"role","type":"bytes32","indexed":true,"internalType":"bytes32"},{"name":"previousAdminRole","type":"bytes32","indexed":true,"internalType":"bytes32"},{"name":"newAdminRole","type":"bytes32","indexed":true,"internalType":"bytes32"}],"anonymous":false},{"type":"event","name":"RoleGranted","inputs":[{"name":"role","type":"bytes32","indexed":true,"internalType":"bytes32"},{"name":"account","type":"address","indexed":true,"internalType":"address"},{"name":"sender","type":"address","indexed":true,"internalType":"address"}],"anonymous":false},{"type":"event","name":"RoleRevoked","inputs":[{"name":"role","type":"bytes32","indexed":true,"internalType":"bytes32"},{"name":"account","type":"address","indexed":true,"internalType":"address"},{"name":"sender","type":"address","indexed":true,"internalType":"address"}],"anonymous":false},{"type":"event","name":"StrategyAdded","inputs":[{"name":"_strategy","type":"address","indexed":false,"internalType":"address"}],"anonymous":false},{"type":"event","name":"StrategyRemoved","inputs":[{"name":"_strategy","type":"address","indexed":false,"internalType":"address"}],"anonymous":false},{"type":"event","name":"Upgraded","inputs":[{"name":"implementation","type":"address","indexed":true,"internalType":"address"}],"anonymous":false},{"type":"error","name":"AllowlistTooBig","inputs":[{"name":"size","type":"uint256","internalType":"uint256"}]},{"type":"error","name":"CallerNotOwner","inputs":[{"name":"_caller","type":"address","internalType":"address"},{"name":"_owner","type":"address","internalType":"address"}]},{"type":"error","name":"CannotAddFunctionToDiamondThatAlreadyExists","inputs":[{"name":"_selector","type":"bytes4","internalType":"bytes4"}]},{"type":"error","name":"CannotAddSelectorsToZeroAddress","inputs":[{"name":"_selectors","type":"bytes4[]","internalType":"bytes4[]"}]},{"type":"error","name":"CannotRemoveFunctionThatDoesNotExist","inputs":[{"name":"_selector","type":"bytes4","internalType":"bytes4"}]},{"type":"error","name":"CannotRemoveImmutableFunction","inputs":[{"name":"_selector","type":"bytes4","internalType":"bytes4"}]},{"type":"error","name":"CannotReplaceFunctionThatDoesNotExists","inputs":[{"name":"_selector","type":"bytes4","internalType":"bytes4"}]},{"type":"error","name":"CannotReplaceFunctionWithTheSameFunctionFromTheSameFacet","inputs":[{"name":"_selector","type":"bytes4","internalType":"bytes4"}]},{"type":"error","name":"CannotReplaceFunctionsFromFacetWithZeroAddress","inputs":[{"name":"_selectors","type":"bytes4[]","internalType":"bytes4[]"}]},{"type":"error","name":"CannotReplaceImmutableFunction","inputs":[{"name":"_selector","type":"bytes4","internalType":"bytes4"}]},{"type":"error","name":"CantDecreaseMoreThanPower","inputs":[{"name":"_decreaseAmount","type":"uint256","internalType":"uint256"},{"name":"_currentPower","type":"uint256","internalType":"uint256"}]},{"type":"error","name":"CommunityFunctionDoesNotExist","inputs":[{"name":"selector","type":"bytes4","internalType":"bytes4"}]},{"type":"error","name":"CommunityPaused","inputs":[{"name":"controller","type":"address","internalType":"address"}]},{"type":"error","name":"CommunitySelectorPaused","inputs":[{"name":"selector","type":"bytes4","internalType":"bytes4"},{"name":"controller","type":"address","internalType":"address"}]},{"type":"error","name":"DecreaseUnderMinimum","inputs":[]},{"type":"error","name":"InitializationFunctionReverted","inputs":[{"name":"_initializationContractAddress","type":"address","internalType":"address"},{"name":"_calldata","type":"bytes","internalType":"bytes"}]},{"type":"error","name":"KickNotEnabled","inputs":[]},{"type":"error","name":"NewFeeGreaterThanMax","inputs":[]},{"type":"error","name":"NoBytecodeAtAddress","inputs":[{"name":"_contractAddress","type":"address","internalType":"address"},{"name":"_message","type":"string","internalType":"string"}]},{"type":"error","name":"NoSelectorsProvidedForFacetForCut","inputs":[{"name":"_facetAddress","type":"address","internalType":"address"}]},{"type":"error","name":"OnlyEmptyCommunity","inputs":[{"name":"totalMembers","type":"uint256","internalType":"uint256"}]},{"type":"error","name":"PointsDeactivated","inputs":[]},{"type":"error","name":"RemoveFacetAddressMustBeZeroAddress","inputs":[{"name":"_facetAddress","type":"address","internalType":"address"}]},{"type":"error","name":"SenderNotNewOwner","inputs":[]},{"type":"error","name":"SenderNotStrategy","inputs":[]},{"type":"error","name":"StrategyDisabled","inputs":[]},{"type":"error","name":"StrategyExists","inputs":[]},{"type":"error","name":"UserAlreadyActivated","inputs":[]},{"type":"error","name":"UserNotInCouncil","inputs":[{"name":"_user","type":"address","internalType":"address"}]},{"type":"error","name":"UserNotInRegistry","inputs":[]},{"type":"error","name":"ValueCannotBeZero","inputs":[]}],"bytecode":{"object":"0x60a06040523060805234801562000014575f80fd5b506200001f62000025565b620000e3565b5f54610100900460ff1615620000915760405162461bcd60e51b815260206004820152602760248201527f496e697469616c697a61626c653a20636f6e747261637420697320696e697469604482015266616c697a696e6760c81b606482015260840160405180910390fd5b5f5460ff90811614620000e1575f805460ff191660ff9081179091556040519081527f7f26b83ff96e1f2b6a682f133852f6798a09c465da95921460cefb38474024989060200160405180910390a15b565b6080516144aa620001185f395f818161144f0152818161148f0152818161154c0152818161158c015261160301526144aa5ff3fe608060405260043610610340575f3560e01c806301ffc9a7146103e8578063025313a21461041c5780630331383c1461043d57806308386eba1461045f5780630b03bb9a146104745780630d12bbdb146104935780630d4a8b49146104ad578063175188e8146104cc5780631add1a0d146104cc5780631b71f0e4146104e65780631f787d28146105055780631f931c1c1461051d578063223e5479146104cc57806322bcf999146104ad578063248a9ca31461053c57806328c309e91461043d5780632b38c69c1461055b5780632c611c4a1461057a5780632f2ff15d1461059957806331f61bca1461049357806333960459146105b857806334196355146105cd57806336568abe146105ec5780633659cfe61461060b578063397e2543146104cc5780633a871fe11461062a578063411481e614610659578063477a5cc0146106785780634f1ef286146106b257806352d1902d146106c5578063559de05d146104935780635c94e4d2146106d95780635ecf71c51461049357806365e3864c146106f95780636871eb4d146104ad57806368decabb146107305780636c53db9a14610750578063715018a61461077057806373265c3714610493578063733a2d1f1461078457806376e92559146107a457806377122d56146107ba5780637817ee4f146107da57806378a0b8a9146107f95780637b1039991461080e57806382b18ef41461082e57806382d6a1e71461049357806388cfe6841461086a5780638961be6b146108d95780638da5cb5b146108ee57806391d14854146109025780639a1f46e214610921578063a0cf0aea1461093b578063a217fddf14610962578063a230c52414610975578063b0d3713a1461098f578063b3f00674146109ae578063b5058c50146109d2578063b64e39af146109e6578063b99b4370146109d2578063bc063e1a14610a07578063c4d66de814610a1b578063c6d572ae14610a3a578063ce7e2cd314610a4e578063d547741f14610a6d578063d6d8428d14610a8c578063d7050f0714610aac578063db61d65c14610ac1578063ebd7dc5214610975578063f2d774e714610ae1578063f2fde38b14610afb578063f86c5f8914610b1a578063fb1f6917146104cc578063ffa1ad7414610b3a575b34801561034b575f80fd5b505f80356001600160e01b03191681525f80516020614363833981519152602081905260409091205481906001600160a01b0316806103b3575f356001600160e01b031916604051634715d1b560e11b81526004016103aa9190612eca565b60405180910390fd5b6103c85f356001600160e01b03191682610b68565b365f80375f80365f845af43d5f803e8080156103e2573d5ff35b3d5ffd5b005b3480156103f3575f80fd5b50610407610402366004612ef4565b610d11565b60405190151581526020015b60405180910390f35b348015610427575f80fd5b50610430610d47565b6040516104139190612f0f565b348015610448575f80fd5b50610451610d5f565b604051908152602001610413565b34801561046a575f80fd5b5061045160fe5481565b34801561047f575f80fd5b506103e661048e366004612f3b565b610d6b565b34801561049e575f80fd5b506103e661048e366004612f56565b3480156104b8575f80fd5b506103e66104c7366004612f8c565b610d76565b3480156104d7575f80fd5b506103e661048e366004612fc3565b3480156104f1575f80fd5b506103e6610500366004612fc3565b610d82565b348015610510575f80fd5b5060ff8054610407911681565b348015610528575f80fd5b506103e6610537366004613022565b610dad565b348015610547575f80fd5b50610451610556366004612f56565b610e05565b348015610566575f80fd5b506104306105753660046130ca565b610e19565b348015610585575f80fd5b50610451610594366004612fc3565b610e4e565b3480156105a4575f80fd5b506103e66105b33660046130f4565b610e5c565b3480156105c3575f80fd5b5061045160fd5481565b3480156105d8575f80fd5b506103e66105e73660046132b2565b610e78565b3480156105f7575f80fd5b506103e66106063660046130f4565b6113cb565b348015610616575f80fd5b506103e6610625366004612fc3565b611445565b348015610635575f80fd5b50610407610644366004612fc3565b61010a6020525f908152604090205460ff1681565b348015610664575f80fd5b506103e6610673366004612fc3565b611509565b348015610683575f80fd5b50610407610692366004612f8c565b61010e60209081525f928352604080842090915290825290205460ff1681565b6103e66106c036600461341d565b611542565b3480156106d0575f80fd5b506104516115f7565b3480156106e4575f80fd5b5061010254610430906001600160a01b031681565b348015610704575f80fd5b50610451610713366004612f8c565b61010b60209081525f928352604080842090915290825290205481565b34801561073b575f80fd5b5061010354610430906001600160a01b031681565b34801561075b575f80fd5b5061010654610430906001600160a01b031681565b34801561077b575f80fd5b506103e66116a3565b34801561078f575f80fd5b506104515f8051602061431e83398151915281565b3480156107af575f80fd5b506104516101105481565b3480156107c5575f80fd5b5061010154610430906001600160a01b031681565b3480156107e5575f80fd5b506104516107f4366004612f8c565b6116b6565b348015610804575f80fd5b5061045160fb5481565b348015610819575f80fd5b5061010454610430906001600160a01b031681565b348015610839575f80fd5b5061084d610848366004613755565b6116bf565b604080519283526001600160a01b03909116602083015201610413565b348015610875575f80fd5b506108b2610884366004612fc3565b61010c6020525f90815260409020805460018201546002909201546001600160a01b03909116919060ff1683565b604080516001600160a01b0390941684526020840192909252151590820152606001610413565b3480156108e4575f80fd5b5061045160fc5481565b3480156108f9575f80fd5b506104306116d2565b34801561090d575f80fd5b5061040761091c3660046130f4565b611760565b34801561092c575f80fd5b506103e661048e3660046137d8565b348015610946575f80fd5b5061043073eeeeeeeeeeeeeeeeeeeeeeeeeeeeeeeeeeeeeeee81565b34801561096d575f80fd5b506104515f81565b348015610980575f80fd5b50610407610594366004612fc3565b34801561099a575f80fd5b506103e66109a9366004612fc3565b61178a565b3480156109b9575f80fd5b5060ff546104309061010090046001600160a01b031681565b3480156109dd575f80fd5b506103e66117b5565b3480156109f1575f80fd5b506109fa6117bd565b6040516104139190613856565b348015610a12575f80fd5b5061045161184a565b348015610a26575f80fd5b506103e6610a35366004612fc3565b61185a565b348015610a45575f80fd5b506109fa611913565b348015610a59575f80fd5b5061084d610a68366004613868565b611921565b348015610a78575f80fd5b506103e6610a873660046130f4565b611933565b348015610a97575f80fd5b5061010754610430906001600160a01b031681565b348015610ab7575f80fd5b5061045161271081565b348015610acc575f80fd5b5061010554610430906001600160a01b031681565b348015610aec575f80fd5b506103e661048e3660046138d8565b348015610b06575f80fd5b506103e6610b15366004612fc3565b61194f565b348015610b25575f80fd5b5061010054610430906001600160a01b031681565b348015610b45575f80fd5b506109fa604051806040016040528060038152602001620302e360ec1b81525081565b610b706119c5565b600101546001600160a01b0390811690821603610b8b575050565b610b94826119e9565b15610b9d575050565b5f610ba66119c5565b546001600160a01b0316905080610bbc57505050565b806001600160a01b03163b5f03610bd257505050565b604051635b14f18360e01b81526001600160a01b03821690635b14f18390610bfe903090600401612f0f565b602060405180830381865afa158015610c19573d5f803e3d5ffd5b505050506040513d601f19601f82011682018060405250810190610c3d91906139a9565b15610c5d5780604051633b330e0160e11b81526004016103aa9190612f0f565b6040516374b896f160e01b81523060048201526001600160e01b0319841660248201526001600160a01b038216906374b896f190604401602060405180830381865afa158015610caf573d5f803e3d5ffd5b505050506040513d601f19601f82011682018060405250810190610cd391906139a9565b15610d0c57604051630b0eb9ef60e41b81526001600160e01b0319841660048201526001600160a01b03821660248201526044016103aa565b505050565b5f6001600160e01b03198216637965db0b60e01b1480610d4157506301ffc9a760e01b6001600160e01b03198316145b92915050565b5f610d5a6033546001600160a01b031690565b905090565b5f610d68611b2c565b90565b610d73611b2c565b50565b610d7e611b2c565b5050565b610d8a611b8a565b61010280546001600160a01b0319166001600160a01b0392909216919091179055565b610db5611b8a565b610dfe610dc285876139d0565b8484848080601f0160208091040260200160405190810160405280939291908181526020018383808284375f92019190915250611be992505050565b5050505050565b5f90815260c9602052604090206001015490565b61010d602052815f5260405f208181548110610e33575f80fd5b5f918252602090912001546001600160a01b03169150829050565b5f610e57611b2c565b919050565b610e6582610e05565b610e6e81611d52565b610d0c8383611d5c565b5f54610100900460ff1615808015610e9657505f54600160ff909116105b80610eb65750610ea530611de1565b158015610eb657505f5460ff166001145b610ed25760405162461bcd60e51b81526004016103aa90613aef565b5f805460ff191660011790558015610ef3575f805461ff0019166101001790555b610f008560a00151611df0565b5f805f8760a001516001600160a01b0316631f3854b46040518163ffffffff1660e01b81526004015f60405180830381865afa158015610f42573d5f803e3d5ffd5b505050506040513d5f823e601f3d908101601f19168201604052610f699190810190613b8a565b9250925092505f835111610fbb5760405162461bcd60e51b815260206004820152601960248201527810dbdb5b5d5b9a5d1e48199858d95d1cc81c995c5d5a5c9959603a1b60448201526064016103aa565b610fc48561185a565b610fcd85611e17565b610fd8838383611be9565b610fe0611e62565b610fe8611e90565b610fff5f8051602061431e8339815191525f611eb6565b61100c8860200151611df0565b61101a886101000151611df0565b875161102590611df0565b60608801511561103c5761103c8860c00151611df0565b875161010780546001600160a01b039283166001600160a01b03199182161790915560208a0151610105805491909316911617905560408801515f03611095576040516363868c5560e11b815260040160405180910390fd5b604088015160fb55606088015160fc5561014088015160ff805460ff1916911515919091179055610120880151610108906110d09082613d96565b50610160880151610109906110e59082613d96565b5060a088015161010080546001600160a01b0319166001600160a01b0390921691821790553b1561119b578760a001516001600160a01b0316638c68f2a96040518163ffffffff1660e01b8152600401602060405180830381865afa158015611150573d5f803e3d5ffd5b505050506040513d601f19601f820116820180604052508101906111749190613e55565b61117c6119c5565b80546001600160a01b0319166001600160a01b03929092169190911790555b60c088015160ff8054610100600160a81b0319166101006001600160a01b0393841681029190911790915589015161010680546001600160a01b031916928216929092179091555f610110556111ff905f8051602061431e83398151915290611d5c565b6101075f9054906101000a90046001600160a01b03166001600160a01b0316635ab1bd536040518163ffffffff1660e01b8152600401602060405180830381865afa158015611250573d5f803e3d5ffd5b505050506040513d601f19601f820116820180604052508101906112749190613e55565b61010480546001600160a01b0319166001600160a01b03929092169182179055608089015160e08a0151604080515f81526020810191829052633a92f65f60e01b90915260609392633a92f65f926112d6926101089190309060248101613f07565b6020604051808303815f875af11580156112f2573d5f803e3d5ffd5b505050506040513d601f19601f820116820180604052508101906113169190613f8f565b60fe81905561010280546001600160a01b03808c166001600160a01b0319928316179092556101018054928b169290911691909117905560e08a01516040517f2f2ffcb06f8a1d35e2716f6b43ef2c19bfa76467d8f66964ae12c2583ed03205926113879290916101089190613fa6565b60405180910390a1505050508015610dfe575f805461ff0019169055604051600181525f8051602061440f8339815191529060200160405180910390a15050505050565b6001600160a01b038116331461143b5760405162461bcd60e51b815260206004820152602f60248201527f416363657373436f6e74726f6c3a2063616e206f6e6c792072656e6f756e636560448201526e103937b632b9903337b91039b2b63360891b60648201526084016103aa565b610d7e8282611f07565b6001600160a01b037f000000000000000000000000000000000000000000000000000000000000000016300361148d5760405162461bcd60e51b81526004016103aa90613fd0565b7f00000000000000000000000000000000000000000000000000000000000000006001600160a01b03166114bf611f6d565b6001600160a01b0316146114e55760405162461bcd60e51b81526004016103aa90614009565b6114ee81611f88565b604080515f80825260208201909252610d7391839190611fd4565b6001600160a01b0381165f90815261010a602052604090205460ff16610d73576040516346c26e4b60e01b815260040160405180910390fd5b6001600160a01b037f000000000000000000000000000000000000000000000000000000000000000016300361158a5760405162461bcd60e51b81526004016103aa90613fd0565b7f00000000000000000000000000000000000000000000000000000000000000006001600160a01b03166115bc611f6d565b6001600160a01b0316146115e25760405162461bcd60e51b81526004016103aa90614009565b6115eb82611f88565b610d7e82826001611fd4565b5f306001600160a01b037f000000000000000000000000000000000000000000000000000000000000000016146116915760405162461bcd60e51b815260206004820152603860248201527f555550535570677261646561626c653a206d757374206e6f742062652063616c6044820152771b1959081d1a1c9bdd59da0819195b1959d85d1958d85b1b60421b60648201526084016103aa565b505f805160206143ef83398151915290565b6116ab611b8a565b6116b45f61213e565b565b5f610d41611b2c565b5f806116c9611b2c565b94509492505050565b5f6116db610d47565b6001600160a01b03163b5f036116f357610d5a610d47565b6116fb610d47565b6001600160a01b0316638da5cb5b6040518163ffffffff1660e01b8152600401602060405180830381865afa925050508015611754575060408051601f3d908101601f1916820190925261175191810190613e55565b60015b610e5757610d5a610d47565b5f91825260c9602090815260408084206001600160a01b0393909316845291905290205460ff1690565b611792611b8a565b61010180546001600160a01b0319166001600160a01b0392909216919091179055565b6116b4611b2c565b61010980546117cb90613d1a565b80601f01602080910402602001604051908101604052809291908181526020018280546117f790613d1a565b80156118425780601f1061181957610100808354040283529160200191611842565b820191905f5260205f20905b81548152906001019060200180831161182557829003601f168201915b505050505081565b611857612710600a614056565b81565b5f54610100900460ff161580801561187857505f54600160ff909116105b80611898575061188730611de1565b15801561189857505f5460ff166001145b6118b45760405162461bcd60e51b81526004016103aa90613aef565b5f805460ff1916600117905580156118d5575f805461ff0019166101001790555b6118de8261213e565b8015610d7e575f805461ff0019169055604051600181525f8051602061440f8339815191529060200160405180910390a15050565b61010880546117cb90613d1a565b5f8061192b611b2c565b935093915050565b61193c82610e05565b61194581611d52565b610d0c8383611f07565b611957611b8a565b6001600160a01b0381166119bc5760405162461bcd60e51b815260206004820152602660248201527f4f776e61626c653a206e6577206f776e657220697320746865207a65726f206160448201526564647265737360d01b60648201526084016103aa565b610d738161213e565b7f12ec43b97389db0cfbdf8d85f200f1b822123856376a9d75d3a6918f27c903bb90565b5f6001600160e01b03198216631add1a0d60e01b1480611a1957506001600160e01b0319821663088a8e8160e21b145b80611a3457506001600160e01b0319821663136439dd60e01b145b80611a4f57506001600160e01b031982166380c4a65f60e01b145b80611a6a57506001600160e01b03198216631fa5d41d60e11b145b80611a8557506001600160e01b0319821663bac1e94b60e01b145b80611aa057506001600160e01b0319821663adaf157b60e01b145b80611abb57506001600160e01b031982166360b4778960e01b145b80611ad657506001600160e01b031982166358c3de9360e11b145b80611af157506001600160e01b031982166304db2f3360e11b145b80611b0c57506001600160e01b03198216630da748b160e41b145b80610d4157506001600160e01b03198216632d2ebbef60e01b1492915050565b5f80356001600160e01b03191681525f80516020614363833981519152602081905260409091205481906001600160a01b0316806103b3575f356001600160e01b031916604051634715d1b560e11b81526004016103aa9190612eca565b33611b936116d2565b6001600160a01b0316146116b45760405162461bcd60e51b815260206004820181905260248201527f4f776e61626c653a2063616c6c6572206973206e6f7420746865206f776e657260448201526064016103aa565b5f5b8351811015611d0c575f848281518110611c0757611c0761406d565b60200260200101516040015190505f858381518110611c2857611c2861406d565b60200260200101515f0151905081515f03611c58578060405163e767f91f60e01b81526004016103aa9190612f0f565b5f868481518110611c6b57611c6b61406d565b60200260200101516020015190505f6003811115611c8b57611c8b614081565b816003811115611c9d57611c9d614081565b03611cb157611cac828461217c565b611d01565b6001816003811115611cc557611cc5614081565b03611cd457611cac8284612306565b6002816003811115611ce857611ce8614081565b03611cf757611cac8284612469565b611d0182846126b3565b505050600101611beb565b507f8faa70878671ccd212d20771b795c50af8fd3ff6cf27f4bde57e5d4de0aeb673838383604051611d40939291906140d9565b60405180910390a1610d0c82826128be565b610d738133612980565b611d668282611760565b610d7e575f82815260c9602090815260408083206001600160a01b03851684529091529020805460ff19166001179055611d9d3390565b6001600160a01b0316816001600160a01b0316837f2f8788117e7eff1d82e926ec794901d17c78024a50270940304540a733656f0d60405160405180910390a45050565b6001600160a01b03163b151590565b6001600160a01b038116610d73576040516363868c5560e11b815260040160405180910390fd5b5f611e206129d9565b6003810180546001600160a01b038581166001600160a01b031983168117909355604051939450169182905f8051602061442f833981519152905f90a3505050565b5f54610100900460ff16611e885760405162461bcd60e51b81526004016103aa906141a0565b6116b46129ea565b5f54610100900460ff166116b45760405162461bcd60e51b81526004016103aa906141a0565b5f611ec083610e05565b5f84815260c96020526040808220600101859055519192508391839186917fbd79b86ffe0ab8e8776151514217cd7cacd52c909f66475c3af44e129f0b00ff9190a4505050565b611f118282611760565b15610d7e575f82815260c9602090815260408083206001600160a01b0385168085529252808320805460ff1916905551339285917ff6391f5c32d9c69d2a47ea670b442974b53935d1edc7fd64eb21e047a839171b9190a45050565b5f805160206143ef833981519152546001600160a01b031690565b33611f916116d2565b6001600160a01b031614610d735733611fa86116d2565b60405163163678e960e01b81526001600160a01b039283166004820152911660248201526044016103aa565b7f4910fdfa16fed3260ed0e7147f7cc6da11a60208b5b9406d12a635614ffd91435460ff161561200757610d0c83612a17565b826001600160a01b03166352d1902d6040518163ffffffff1660e01b8152600401602060405180830381865afa925050508015612061575060408051601f3d908101601f1916820190925261205e91810190613f8f565b60015b6120c45760405162461bcd60e51b815260206004820152602e60248201527f45524331393637557067726164653a206e657720696d706c656d656e7461746960448201526d6f6e206973206e6f74205555505360901b60648201526084016103aa565b5f805160206143ef83398151915281146121325760405162461bcd60e51b815260206004820152602960248201527f45524331393637557067726164653a20756e737570706f727465642070726f786044820152681a58589b195555525160ba1b60648201526084016103aa565b50610d0c838383612ab0565b603380546001600160a01b038381166001600160a01b0319831681179093556040519116919082905f8051602061442f833981519152905f90a35050565b6001600160a01b0382166121a557806040516302b8da0760e21b81526004016103aa91906141eb565b5f6121ae6129d9565b90505f816001018054905090506121dd8460405180606001604052806024815260200161438360249139612ad4565b5f5b8351811015610dfe575f8482815181106121fb576121fb61406d565b6020908102919091018101516001600160e01b031981165f908152918690526040909120549091506001600160a01b0316801561224d578160405163ebbf5d0760e01b81526004016103aa9190612eca565b6040805180820182526001600160a01b03808a16825261ffff80881660208085019182526001600160e01b031988165f9081528b8252958620945185549251909316600160a01b026001600160b01b0319909216929093169190911717909155600180880180549182018155835291206008820401805460e085901c60046007909416939093026101000a92830263ffffffff9093021916919091179055836122f5816141fd565b945050600190920191506121df9050565b5f61230f6129d9565b90506001600160a01b03831661233a578160405163cd98a96f60e01b81526004016103aa91906141eb565b61235c8360405180606001604052806028815260200161447660289139612ad4565b5f5b8251811015612463575f83828151811061237a5761237a61406d565b6020908102919091018101516001600160e01b031981165f908152918590526040909120549091506001600160a01b03163081036123cd5781604051632901806d60e11b81526004016103aa9190612eca565b856001600160a01b0316816001600160a01b0316036124015781604051631ac6ce8d60e11b81526004016103aa9190612eca565b6001600160a01b03811661242a5781604051637479f93960e01b81526004016103aa9190612eca565b506001600160e01b0319165f90815260208390526040902080546001600160a01b0319166001600160a01b03861617905560010161235e565b50505050565b5f6124726129d9565b60018101549091506001600160a01b038416156124a4578360405163d091bc8160e01b81526004016103aa9190612f0f565b5f5b8351811015610dfe575f8482815181106124c2576124c261406d565b6020908102919091018101516001600160e01b031981165f9081528683526040908190208151808301909252546001600160a01b038116808352600160a01b90910461ffff1693820193909352909250906125325781604051637a08a22d60e01b81526004016103aa9190612eca565b8051306001600160a01b03909116036125605781604051630df5fd6160e31b81526004016103aa9190612eca565b8361256a8161421d565b94505083816020015161ffff1614612644575f8560010185815481106125925761259261406d565b905f5260205f2090600891828204019190066004029054906101000a900460e01b90508086600101836020015161ffff16815481106125d3576125d361406d565b5f91825260208083206008830401805463ffffffff60079094166004026101000a938402191660e09590951c92909202939093179055838201516001600160e01b03199390931681529087905260409020805461ffff60a01b1916600160a01b61ffff909316929092029190911790555b8460010180548061265757612657614232565b5f828152602080822060085f1990940193840401805463ffffffff600460078716026101000a0219169055919092556001600160e01b0319909316815291859052506040902080546001600160b01b03191690556001016124a6565b6001600160a01b0382166126dc57806040516302b8da0760e21b81526004016103aa91906141eb565b5f6126e56129d9565b90506127098360405180606001604052806025815260200161433e60259139612ad4565b5f82516001600160401b0381111561272357612723613117565b60405190808252806020026020018201604052801561274c578160200160208202803683370190505b5090505f8084516001600160401b0381111561276a5761276a613117565b604051908082528060200260200182016040528015612793578160200160208202803683370190505b5090505f805b8651811015612882575f8782815181106127b5576127b561406d565b6020908102919091018101516001600160e01b031981165f908152918990526040909120549091506001600160a01b031680612827578187876127f781614246565b9850815181106128095761280961406d565b6001600160e01b031990921660209283029190910190910152612878565b896001600160a01b0316816001600160a01b0316146128785781858561284c81614246565b96508151811061285e5761285e61406d565b6001600160e01b0319909216602092830291909101909101525b5050600101612799565b50821561289c5761289c876128978686612afb565b61217c565b80156128b5576128b5876128b08484612afb565b612306565b50505050505050565b6001600160a01b0382166128d0575050565b6128f2826040518060600160405280602881526020016143a760289139612ad4565b5f80836001600160a01b03168360405161290c919061425e565b5f60405180830381855af49150503d805f8114612944576040519150601f19603f3d011682016040523d82523d5f602084013e612949565b606091505b509150915081612463578051156129635780518082602001fd5b838360405163192105d760e01b81526004016103aa929190614279565b61298a8282611760565b610d7e5761299781612ba1565b6129a2836020612bb3565b6040516020016129b392919061429c565b60408051601f198184030181529082905262461bcd60e51b82526103aa91600401613856565b5f8051602061436383398151915290565b5f54610100900460ff16612a105760405162461bcd60e51b81526004016103aa906141a0565b6001606555565b612a2081611de1565b612a825760405162461bcd60e51b815260206004820152602d60248201527f455243313936373a206e657720696d706c656d656e746174696f6e206973206e60448201526c1bdd08184818dbdb9d1c9858dd609a1b60648201526084016103aa565b5f805160206143ef83398151915280546001600160a01b0319166001600160a01b0392909216919091179055565b612ab983612d4f565b5f82511180612ac55750805b15610d0c576124638383612d8e565b813b5f819003610d0c57828260405163919834b960e01b81526004016103aa929190614279565b60605f826001600160401b03811115612b1657612b16613117565b604051908082528060200260200182016040528015612b3f578160200160208202803683370190505b5090505f5b83811015612b9957848181518110612b5e57612b5e61406d565b6020026020010151828281518110612b7857612b7861406d565b6001600160e01b031990921660209283029190910190910152600101612b44565b509392505050565b6060610d416001600160a01b03831660145b60605f612bc1836002614056565b612bcc90600261430a565b6001600160401b03811115612be357612be3613117565b6040519080825280601f01601f191660200182016040528015612c0d576020820181803683370190505b509050600360fc1b815f81518110612c2757612c2761406d565b60200101906001600160f81b03191690815f1a905350600f60fb1b81600181518110612c5557612c5561406d565b60200101906001600160f81b03191690815f1a9053505f612c77846002614056565b612c8290600161430a565b90505b6001811115612cf9576f181899199a1a9b1b9c1cb0b131b232b360811b85600f1660108110612cb657612cb661406d565b1a60f81b828281518110612ccc57612ccc61406d565b60200101906001600160f81b03191690815f1a90535060049490941c93612cf28161421d565b9050612c85565b508315612d485760405162461bcd60e51b815260206004820181905260248201527f537472696e67733a20686578206c656e67746820696e73756666696369656e7460448201526064016103aa565b9392505050565b612d5881612a17565b6040516001600160a01b038216907fbc7cd75a20ee27fd9adebab32041f755214dbc6bffa90cc0225b39da2e5c2d3b905f90a250565b6060612d48838360405180606001604052806027815260200161444f6027913960605f80856001600160a01b031685604051612dca919061425e565b5f60405180830381855af49150503d805f8114612e02576040519150601f19603f3d011682016040523d82523d5f602084013e612e07565b606091505b5091509150612e1886838387612e22565b9695505050505050565b60608315612e8e5782515f03612e8757612e3b85611de1565b612e875760405162461bcd60e51b815260206004820152601d60248201527f416464726573733a2063616c6c20746f206e6f6e2d636f6e747261637400000060448201526064016103aa565b5081612e98565b612e988383612ea0565b949350505050565b815115612eb05781518083602001fd5b8060405162461bcd60e51b81526004016103aa9190613856565b6001600160e01b031991909116815260200190565b6001600160e01b031981168114610d73575f80fd5b5f60208284031215612f04575f80fd5b8135612d4881612edf565b6001600160a01b0391909116815260200190565b8015158114610d73575f80fd5b8035610e5781612f23565b5f60208284031215612f4b575f80fd5b8135612d4881612f23565b5f60208284031215612f66575f80fd5b5035919050565b6001600160a01b0381168114610d73575f80fd5b8035610e5781612f6d565b5f8060408385031215612f9d575f80fd5b8235612fa881612f6d565b91506020830135612fb881612f6d565b809150509250929050565b5f60208284031215612fd3575f80fd5b8135612d4881612f6d565b5f8083601f840112612fee575f80fd5b5081356001600160401b03811115613004575f80fd5b60208301915083602082850101111561301b575f80fd5b9250929050565b5f805f805f60608688031215613036575f80fd5b85356001600160401b038082111561304c575f80fd5b818801915088601f83011261305f575f80fd5b81358181111561306d575f80fd5b8960208260051b8501011115613081575f80fd5b6020830197508096505061309760208901612f81565b945060408801359150808211156130ac575f80fd5b506130b988828901612fde565b969995985093965092949392505050565b5f80604083850312156130db575f80fd5b82356130e681612f6d565b946020939093013593505050565b5f8060408385031215613105575f80fd5b823591506020830135612fb881612f6d565b634e487b7160e01b5f52604160045260245ffd5b60405161018081016001600160401b038111828210171561314e5761314e613117565b60405290565b60405160e081016001600160401b038111828210171561314e5761314e613117565b604051606081016001600160401b038111828210171561314e5761314e613117565b604051601f8201601f191681016001600160401b03811182821017156131c0576131c0613117565b604052919050565b5f6001600160401b038211156131e0576131e0613117565b50601f01601f191660200190565b5f6132006131fb846131c8565b613198565b9050828152838383011115613213575f80fd5b828260208301375f602084830101529392505050565b5f82601f830112613238575f80fd5b612d48838335602085016131ee565b5f60408284031215613257575f80fd5b604080519081016001600160401b03808211838310171561327a5761327a613117565b81604052829350843583526020850135915080821115613298575f80fd5b506132a585828601613229565b6020830152505092915050565b5f805f80608085870312156132c5575f80fd5b84356001600160401b03808211156132db575f80fd5b9086019061018082890312156132ef575f80fd5b6132f761312b565b61330083612f81565b815261330e60208401612f81565b602082015260408301356040820152606083013560608201526080830135608082015261333d60a08401612f81565b60a082015261334e60c08401612f81565b60c082015260e083013582811115613364575f80fd5b6133708a828601613247565b60e083015250610100613384818501612f81565b90820152610120838101358381111561339b575f80fd5b6133a78b828701613229565b8284015250506101406133bb818501612f30565b9082015261016083810135838111156133d2575f80fd5b6133de8b828701613229565b8284015250508096505050506133f660208601612f81565b925061340460408601612f81565b915061341260608601612f81565b905092959194509250565b5f806040838503121561342e575f80fd5b823561343981612f6d565b915060208301356001600160401b03811115613453575f80fd5b8301601f81018513613463575f80fd5b613472858235602084016131ee565b9150509250929050565b5f6080828403121561348c575f80fd5b604051608081016001600160401b03811182821017156134ae576134ae613117565b8060405250809150823581526020830135602082015260408301356040820152606083013560608201525092915050565b803560038110610e57575f80fd5b803560058110610e57575f80fd5b5f6020828403121561350b575f80fd5b604051602081016001600160401b038111828210171561352d5761352d613117565b6040529135825250919050565b5f60c0828403121561354a575f80fd5b60405160c081016001600160401b038111828210171561356c5761356c613117565b604052905080823561357d81612f6d565b8152602083013561358d81612f6d565b8060208301525060408301356040820152606083013560608201526080830135608082015260a083013560a08201525092915050565b5f6001600160401b038211156135db576135db613117565b5060051b60200190565b5f82601f8301126135f4575f80fd5b813560206136046131fb836135c3565b8083825260208201915060208460051b870101935086841115613625575f80fd5b602086015b8481101561364a57803561363d81612f6d565b835291830191830161362a565b509695505050505050565b5f6102808284031215613666575f80fd5b61366e61312b565b905061367a838361347c565b8152613688608083016134df565b602082015261369960a083016134ed565b60408201526136ab8360c084016134fb565b60608201526136bd8360e0840161353a565b60808201526136cf6101a08301612f81565b60a08201526136e16101c08301612f81565b60c08201526136f36101e08301612f81565b60e08201526102008201356101008201526102208201356001600160401b0381111561371d575f80fd5b613729848285016135e5565b6101208301525061373d6102408301612f81565b61014082015261026082013561016082015292915050565b5f805f8060808587031215613768575f80fd5b843561377381612f6d565b9350602085013561378381612f6d565b925060408501356001600160401b038082111561379e575f80fd5b6137aa88838901613655565b935060608701359150808211156137bf575f80fd5b506137cc87828801613247565b91505092959194509250565b5f602082840312156137e8575f80fd5b81356001600160401b038111156137fd575f80fd5b612e9884828501613229565b5f5b8381101561382357818101518382015260200161380b565b50505f910152565b5f8151808452613842816020860160208601613809565b601f01601f19169290920160200192915050565b602081525f612d48602083018461382b565b5f805f6060848603121561387a575f80fd5b833561388581612f6d565b925060208401356001600160401b03808211156138a0575f80fd5b6138ac87838801613655565b935060408601359150808211156138c1575f80fd5b506138ce86828701613247565b9150509250925092565b5f602082840312156138e8575f80fd5b81356001600160401b03808211156138fe575f80fd5b9083019060e08286031215613911575f80fd5b613919613154565b61392283612f81565b815261393060208401612f81565b602082015260408301356040820152606083013582811115613950575f80fd5b61395c87828601613229565b6060830152506080830135608082015261397860a08401612f30565b60a082015260c08301358281111561398e575f80fd5b61399a87828601613229565b60c08301525095945050505050565b5f602082840312156139b9575f80fd5b8151612d4881612f23565b60048110610d73575f80fd5b5f6139dd6131fb846135c3565b83815260208082019190600586811b8601368111156139fa575f80fd5b865b81811015613ae25780356001600160401b0380821115613a1a575f80fd5b818a01915060608236031215613a2e575f80fd5b613a36613176565b8235613a4181612f6d565b815282870135613a50816139c4565b8188015260408381013583811115613a66575f80fd5b939093019236601f850112613a79575f80fd5b83359250613a896131fb846135c3565b83815292871b84018801928881019036851115613aa4575f80fd5b948901945b84861015613acb578535613abc81612edf565b82529489019490890190613aa9565b9183019190915250885250509483019483016139fc565b5092979650505050505050565b6020808252602e908201527f496e697469616c697a61626c653a20636f6e747261637420697320616c72656160408201526d191e481a5b9a5d1a585b1a5e995960921b606082015260800190565b8051610e5781612f6d565b5f82601f830112613b57575f80fd5b8151613b656131fb826131c8565b818152846020838601011115613b79575f80fd5b612e98826020830160208701613809565b5f805f60608486031215613b9c575f80fd5b83516001600160401b0380821115613bb2575f80fd5b818601915086601f830112613bc5575f80fd5b8151613bd36131fb826135c3565b8082825260208201915060208360051b860101925089831115613bf4575f80fd5b602085015b83811015613ce657805185811115613c0f575f80fd5b86016060818d03601f19011215613c24575f80fd5b613c2c613176565b6020820151613c3a81612f6d565b81526040820151613c4a816139c4565b6020820152606082015187811115613c60575f80fd5b8083019250508c603f830112613c74575f80fd5b6020820151613c856131fb826135c3565b81815260059190911b83016040019060208101908f831115613ca5575f80fd5b6040850194505b82851015613cd0578451613cbf81612edf565b825260209485019490910190613cac565b6040840152505084525060209283019201613bf9565b509650613cf891505060208701613b3d565b93506040860151915080821115613d0d575f80fd5b506138ce86828701613b48565b600181811c90821680613d2e57607f821691505b602082108103613d4c57634e487b7160e01b5f52602260045260245ffd5b50919050565b601f821115610d0c57805f5260205f20601f840160051c81016020851015613d775750805b601f840160051c820191505b81811015610dfe575f8155600101613d83565b81516001600160401b03811115613daf57613daf613117565b613dc381613dbd8454613d1a565b84613d52565b602080601f831160018114613df6575f8415613ddf5750858301515b5f19600386901b1c1916600185901b178555613e4d565b5f85815260208120601f198616915b82811015613e2457888601518255948401946001909101908401613e05565b5085821015613e4157878501515f19600388901b60f8161c191681555b505060018460011b0185555b505050505050565b5f60208284031215613e65575f80fd5b8151612d4881612f6d565b5f8154613e7c81613d1a565b808552602060018381168015613e995760018114613eb357613ede565b60ff1985168884015283151560051b880183019550613ede565b865f52825f205f5b85811015613ed65781548a8201860152908301908401613ebb565b890184019650505b505050505092915050565b805182525f602082015160406020850152612e98604085018261382b565b8581525f602060a06020840152613f2160a0840188613e70565b8381036040850152613f338188613ee9565b6001600160a01b0387811660608701528582036080870152865180835260208089019450919291909101905f5b81811015613f7e578451841683529385019391850191600101613f60565b50909b9a5050505050505050505050565b5f60208284031215613f9f575f80fd5b5051919050565b838152606060208201525f613fbe6060830185613e70565b8281036040840152612e188185613ee9565b6020808252602c908201525f805160206143cf83398151915260408201526b19195b1959d85d1958d85b1b60a21b606082015260800190565b6020808252602c908201525f805160206143cf83398151915260408201526b6163746976652070726f787960a01b606082015260800190565b634e487b7160e01b5f52601160045260245ffd5b8082028115828204841417610d4157610d41614042565b634e487b7160e01b5f52603260045260245ffd5b634e487b7160e01b5f52602160045260245ffd5b5f815180845260208085019450602084015f5b838110156140ce5781516001600160e01b031916875295820195908201906001016140a8565b509495945050505050565b5f60608083016060845280875180835260808601915060808160051b87010192506020808a015f5b8381101561417157888603607f19018552815180516001600160a01b0316875283810151600480821061414157634e487b7160e01b5f526021815260245ffd5b508785015260409081015190870188905261415e88880182614095565b9650509382019390820190600101614101565b50506001600160a01b0389169087015250508381036040850152614195818661382b565b979650505050505050565b6020808252602b908201527f496e697469616c697a61626c653a20636f6e7472616374206973206e6f74206960408201526a6e697469616c697a696e6760a81b606082015260800190565b602081525f612d486020830184614095565b5f61ffff80831681810361421357614213614042565b6001019392505050565b5f8161422b5761422b614042565b505f190190565b634e487b7160e01b5f52603160045260245ffd5b5f6001820161425757614257614042565b5060010190565b5f825161426f818460208701613809565b9190910192915050565b6001600160a01b03831681526040602082018190525f90612e989083018461382b565b76020b1b1b2b9b9a1b7b73a3937b61d1030b1b1b7bab73a1604d1b81525f83516142cd816017850160208801613809565b7001034b99036b4b9b9b4b733903937b6329607d1b60179184019182015283516142fe816028840160208801613809565b01602801949350505050565b80820180821115610d4157610d4161404256fe03be538b6391ddcd7f2649585cc95b120c9e2a613f70714fbb55345057d809fa4c69624469616d6f6e644375743a204175746f20666163657420686173206e6f20636f6465c8fcad8db84d3cc18b4c41d551ea0ee66dd599cde068d998e57d5e09332c131c4c69624469616d6f6e644375743a2041646420666163657420686173206e6f20636f64654c69624469616d6f6e644375743a205f696e6974206164647265737320686173206e6f20636f646546756e6374696f6e206d7573742062652063616c6c6564207468726f75676820360894a13ba1a3210667c828492db98dca3e2076cc3735a920a3ca505d382bbc7f26b83ff96e1f2b6a682f133852f6798a09c465da95921460cefb38474024988be0079c531659141344cd1fd0a4f28419497f9722a3daafe3b4186f6b6457e0416464726573733a206c6f772d6c6576656c2064656c65676174652063616c6c206661696c65644c69624469616d6f6e644375743a205265706c61636520666163657420686173206e6f20636f6465a164736f6c6343000817000a","linkReferences":{}},"methodIdentifiers":{"COUNCIL_MEMBER()":"733a2d1f","DEFAULT_ADMIN_ROLE()":"a217fddf","MAX_FEE()":"bc063e1a","NATIVE()":"a0cf0aea","PRECISION_SCALE()":"d7050f07","VERSION()":"ffa1ad74","acceptCouncilSafe()":"b5058c50","activateMemberInStrategy(address,address)":"0d4a8b49","addStrategy(address)":"223e5479","addStrategyByPoolId(uint256)":"82d6a1e7","addressToMemberInfo(address)":"88cfe684","allo()":"d6d8428d","cloneNonce()":"33960459","collateralVaultTemplate()":"77122d56","communityFee()":"8961be6b","communityName()":"c6d572ae","councilSafe()":"6c53db9a","covenantIpfsHash()":"b64e39af","createPool(address,((uint256,uint256,uint256,uint256),uint8,uint8,(uint256),(address,address,uint256,uint256,uint256,uint256),address,address,address,uint256,address[],address,uint256),(uint256,string))":"ce7e2cd3","createPool(address,address,((uint256,uint256,uint256,uint256),uint8,uint8,(uint256),(address,address,uint256,uint256,uint256,uint256),address,address,address,uint256,address[],address,uint256),(uint256,string))":"82b18ef4","deactivateMemberInStrategy(address,address)":"22bcf999","decreasePower(uint256)":"5ecf71c5","diamondCut((address,uint8,bytes4[])[],address,bytes)":"1f931c1c","enabledStrategies(address)":"3a871fe1","feeReceiver()":"b3f00674","gardenToken()":"db61d65c","getBasisStakedAmount()":"0331383c","getMemberPowerInStrategy(address,address)":"7817ee4f","getMemberStakedAmount(address)":"2c611c4a","getRoleAdmin(bytes32)":"248a9ca3","getStakeAmountWithFees()":"28c309e9","grantRole(bytes32,address)":"2f2ff15d","hasRole(bytes32,address)":"91d14854","increasePower(uint256)":"559de05d","initialize((address,address,uint256,uint256,uint256,address,address,(uint256,string),address,string,bool,string),address,address,address)":"34196355","initialize(address)":"c4d66de8","isCouncilMember(address)":"ebd7dc52","isKickEnabled()":"1f787d28","isMember(address)":"a230c524","kickMember(address,address)":"6871eb4d","memberActivatedInStrategies(address,address)":"477a5cc0","memberPowerInStrategy(address,address)":"65e3864c","onlyStrategyEnabled(address)":"411481e6","owner()":"8da5cb5b","pendingCouncilSafe()":"68decabb","profileId()":"08386eba","proxiableUUID()":"52d1902d","proxyOwner()":"025313a2","registerStakeAmount()":"78a0b8a9","registry()":"7b103999","registryFactory()":"f86c5f89","rejectPool(address)":"fb1f6917","removeStrategy(address)":"175188e8","removeStrategyByPoolId(uint256)":"73265c37","renounceOwnership()":"715018a6","renounceRole(bytes32,address)":"36568abe","revokeRole(bytes32,address)":"d547741f","setArchived(bool)":"0b03bb9a","setBasisStakedAmount(uint256)":"31f61bca","setCollateralVaultTemplate(address)":"b0d3713a","setCommunityFee(uint256)":"0d12bbdb","setCommunityParams((address,address,uint256,string,uint256,bool,string))":"f2d774e7","setCouncilSafe(address)":"397e2543","setPauseController(address)":"1add1a0d","setStrategyTemplate(address)":"1b71f0e4","stakeAndRegisterMember(string)":"9a1f46e2","strategiesByMember(address,uint256)":"2b38c69c","strategyTemplate()":"5c94e4d2","supportsInterface(bytes4)":"01ffc9a7","totalMembers()":"76e92559","transferOwnership(address)":"f2fde38b","unregisterMember()":"b99b4370","upgradeTo(address)":"3659cfe6","upgradeToAndCall(address,bytes)":"4f1ef286"},"storageLayout":{"storage":[{"astId":14099,"contract":"pkg/contracts/src/RegistryCommunity/RegistryCommunity.sol:RegistryCommunity","label":"_initialized","offset":0,"slot":"0","type":"t_uint8"},{"astId":14102,"contract":"pkg/contracts/src/RegistryCommunity/RegistryCommunity.sol:RegistryCommunity","label":"_initializing","offset":1,"slot":"0","type":"t_bool"},{"astId":14726,"contract":"pkg/contracts/src/RegistryCommunity/RegistryCommunity.sol:RegistryCommunity","label":"__gap","offset":0,"slot":"1","type":"t_array(t_uint256)50_storage"},{"astId":13891,"contract":"pkg/contracts/src/RegistryCommunity/RegistryCommunity.sol:RegistryCommunity","label":"_owner","offset":0,"slot":"51","type":"t_address"},{"astId":14011,"contract":"pkg/contracts/src/RegistryCommunity/RegistryCommunity.sol:RegistryCommunity","label":"__gap","offset":0,"slot":"52","type":"t_array(t_uint256)49_storage"},{"astId":14276,"contract":"pkg/contracts/src/RegistryCommunity/RegistryCommunity.sol:RegistryCommunity","label":"_status","offset":0,"slot":"101","type":"t_uint256"},{"astId":14345,"contract":"pkg/contracts/src/RegistryCommunity/RegistryCommunity.sol:RegistryCommunity","label":"__gap","offset":0,"slot":"102","type":"t_array(t_uint256)49_storage"},{"astId":15000,"contract":"pkg/contracts/src/RegistryCommunity/RegistryCommunity.sol:RegistryCommunity","label":"__gap","offset":0,"slot":"151","type":"t_array(t_uint256)50_storage"},{"astId":13498,"contract":"pkg/contracts/src/RegistryCommunity/RegistryCommunity.sol:RegistryCommunity","label":"_roles","offset":0,"slot":"201","type":"t_mapping(t_bytes32,t_struct(RoleData)13493_storage)"},{"astId":13805,"contract":"pkg/contracts/src/RegistryCommunity/RegistryCommunity.sol:RegistryCommunity","label":"__gap","offset":0,"slot":"202","type":"t_array(t_uint256)49_storage"},{"astId":61068,"contract":"pkg/contracts/src/RegistryCommunity/RegistryCommunity.sol:RegistryCommunity","label":"registerStakeAmount","offset":0,"slot":"251","type":"t_uint256"},{"astId":61071,"contract":"pkg/contracts/src/RegistryCommunity/RegistryCommunity.sol:RegistryCommunity","label":"communityFee","offset":0,"slot":"252","type":"t_uint256"},{"astId":61074,"contract":"pkg/contracts/src/RegistryCommunity/RegistryCommunity.sol:RegistryCommunity","label":"cloneNonce","offset":0,"slot":"253","type":"t_uint256"},{"astId":61077,"contract":"pkg/contracts/src/RegistryCommunity/RegistryCommunity.sol:RegistryCommunity","label":"profileId","offset":0,"slot":"254","type":"t_bytes32"},{"astId":61080,"contract":"pkg/contracts/src/RegistryCommunity/RegistryCommunity.sol:RegistryCommunity","label":"isKickEnabled","offset":0,"slot":"255","type":"t_bool"},{"astId":61083,"contract":"pkg/contracts/src/RegistryCommunity/RegistryCommunity.sol:RegistryCommunity","label":"feeReceiver","offset":1,"slot":"255","type":"t_address"},{"astId":61086,"contract":"pkg/contracts/src/RegistryCommunity/RegistryCommunity.sol:RegistryCommunity","label":"registryFactory","offset":0,"slot":"256","type":"t_address"},{"astId":61089,"contract":"pkg/contracts/src/RegistryCommunity/RegistryCommunity.sol:RegistryCommunity","label":"collateralVaultTemplate","offset":0,"slot":"257","type":"t_address"},{"astId":61092,"contract":"pkg/contracts/src/RegistryCommunity/RegistryCommunity.sol:RegistryCommunity","label":"strategyTemplate","offset":0,"slot":"258","type":"t_address"},{"astId":61095,"contract":"pkg/contracts/src/RegistryCommunity/RegistryCommunity.sol:RegistryCommunity","label":"pendingCouncilSafe","offset":0,"slot":"259","type":"t_address_payable"},{"astId":61099,"contract":"pkg/contracts/src/RegistryCommunity/RegistryCommunity.sol:RegistryCommunity","label":"registry","offset":0,"slot":"260","type":"t_contract(IRegistry)544"},{"astId":61103,"contract":"pkg/contracts/src/RegistryCommunity/RegistryCommunity.sol:RegistryCommunity","label":"gardenToken","offset":0,"slot":"261","type":"t_contract(IERC20)17720"},{"astId":61107,"contract":"pkg/contracts/src/RegistryCommunity/RegistryCommunity.sol:RegistryCommunity","label":"councilSafe","offset":0,"slot":"262","type":"t_contract(ISafe)66792"},{"astId":61111,"contract":"pkg/contracts/src/RegistryCommunity/RegistryCommunity.sol:RegistryCommunity","label":"allo","offset":0,"slot":"263","type":"t_contract(FAllo)66462"},{"astId":61114,"contract":"pkg/contracts/src/RegistryCommunity/RegistryCommunity.sol:RegistryCommunity","label":"communityName","offset":0,"slot":"264","type":"t_string_storage"},{"astId":61117,"contract":"pkg/contracts/src/RegistryCommunity/RegistryCommunity.sol:RegistryCommunity","label":"covenantIpfsHash","offset":0,"slot":"265","type":"t_string_storage"},{"astId":61122,"contract":"pkg/contracts/src/RegistryCommunity/RegistryCommunity.sol:RegistryCommunity","label":"enabledStrategies","offset":0,"slot":"266","type":"t_mapping(t_address,t_bool)"},{"astId":61129,"contract":"pkg/contracts/src/RegistryCommunity/RegistryCommunity.sol:RegistryCommunity","label":"memberPowerInStrategy","offset":0,"slot":"267","type":"t_mapping(t_address,t_mapping(t_address,t_uint256))"},{"astId":61135,"contract":"pkg/contracts/src/RegistryCommunity/RegistryCommunity.sol:RegistryCommunity","label":"addressToMemberInfo","offset":0,"slot":"268","type":"t_mapping(t_address,t_struct(Member)60830_storage)"},{"astId":61141,"contract":"pkg/contracts/src/RegistryCommunity/RegistryCommunity.sol:RegistryCommunity","label":"strategiesByMember","offset":0,"slot":"269","type":"t_mapping(t_address,t_array(t_address)dyn_storage)"},{"astId":61148,"contract":"pkg/contracts/src/RegistryCommunity/RegistryCommunity.sol:RegistryCommunity","label":"memberActivatedInStrategies","offset":0,"slot":"270","type":"t_mapping(t_address,t_mapping(t_address,t_bool))"},{"astId":61152,"contract":"pkg/contracts/src/RegistryCommunity/RegistryCommunity.sol:RegistryCommunity","label":"initialMembers","offset":0,"slot":"271","type":"t_array(t_address)dyn_storage"},{"astId":61155,"contract":"pkg/contracts/src/RegistryCommunity/RegistryCommunity.sol:RegistryCommunity","label":"totalMembers","offset":0,"slot":"272","type":"t_uint256"},{"astId":61160,"contract":"pkg/contracts/src/RegistryCommunity/RegistryCommunity.sol:RegistryCommunity","label":"strategyFacetCuts","offset":0,"slot":"273","type":"t_array(t_struct(FacetCut)65456_storage)dyn_storage"},{"astId":61163,"contract":"pkg/contracts/src/RegistryCommunity/RegistryCommunity.sol:RegistryCommunity","label":"strategyInit","offset":0,"slot":"274","type":"t_address"},{"astId":61166,"contract":"pkg/contracts/src/RegistryCommunity/RegistryCommunity.sol:RegistryCommunity","label":"strategyInitCalldata","offset":0,"slot":"275","type":"t_bytes_storage"},{"astId":61170,"contract":"pkg/contracts/src/RegistryCommunity/RegistryCommunity.sol:RegistryCommunity","label":"__gap","offset":0,"slot":"276","type":"t_array(t_uint256)46_storage"}],"types":{"t_address":{"encoding":"inplace","label":"address","numberOfBytes":"20"},"t_address_payable":{"encoding":"inplace","label":"address payable","numberOfBytes":"20"},"t_array(t_address)dyn_storage":{"encoding":"dynamic_array","label":"address[]","numberOfBytes":"32","base":"t_address"},"t_array(t_bytes4)dyn_storage":{"encoding":"dynamic_array","label":"bytes4[]","numberOfBytes":"32","base":"t_bytes4"},"t_array(t_struct(FacetCut)65456_storage)dyn_storage":{"encoding":"dynamic_array","label":"struct IDiamond.FacetCut[]","numberOfBytes":"32","base":"t_struct(FacetCut)65456_storage"},"t_array(t_uint256)46_storage":{"encoding":"inplace","label":"uint256[46]","numberOfBytes":"1472","base":"t_uint256"},"t_array(t_uint256)49_storage":{"encoding":"inplace","label":"uint256[49]","numberOfBytes":"1568","base":"t_uint256"},"t_array(t_uint256)50_storage":{"encoding":"inplace","label":"uint256[50]","numberOfBytes":"1600","base":"t_uint256"},"t_bool":{"encoding":"inplace","label":"bool","numberOfBytes":"1"},"t_bytes32":{"encoding":"inplace","label":"bytes32","numberOfBytes":"32"},"t_bytes4":{"encoding":"inplace","label":"bytes4","numberOfBytes":"4"},"t_bytes_storage":{"encoding":"bytes","label":"bytes","numberOfBytes":"32"},"t_contract(FAllo)66462":{"encoding":"inplace","label":"contract FAllo","numberOfBytes":"20"},"t_contract(IERC20)17720":{"encoding":"inplace","label":"contract IERC20","numberOfBytes":"20"},"t_contract(IRegistry)544":{"encoding":"inplace","label":"contract IRegistry","numberOfBytes":"20"},"t_contract(ISafe)66792":{"encoding":"inplace","label":"contract ISafe","numberOfBytes":"20"},"t_enum(FacetCutAction)65447":{"encoding":"inplace","label":"enum IDiamond.FacetCutAction","numberOfBytes":"1"},"t_mapping(t_address,t_array(t_address)dyn_storage)":{"encoding":"mapping","key":"t_address","label":"mapping(address => address[])","numberOfBytes":"32","value":"t_array(t_address)dyn_storage"},"t_mapping(t_address,t_bool)":{"encoding":"mapping","key":"t_address","label":"mapping(address => bool)","numberOfBytes":"32","value":"t_bool"},"t_mapping(t_address,t_mapping(t_address,t_bool))":{"encoding":"mapping","key":"t_address","label":"mapping(address => mapping(address => bool))","numberOfBytes":"32","value":"t_mapping(t_address,t_bool)"},"t_mapping(t_address,t_mapping(t_address,t_uint256))":{"encoding":"mapping","key":"t_address","label":"mapping(address => mapping(address => uint256))","numberOfBytes":"32","value":"t_mapping(t_address,t_uint256)"},"t_mapping(t_address,t_struct(Member)60830_storage)":{"encoding":"mapping","key":"t_address","label":"mapping(address => struct Member)","numberOfBytes":"32","value":"t_struct(Member)60830_storage"},"t_mapping(t_address,t_uint256)":{"encoding":"mapping","key":"t_address","label":"mapping(address => uint256)","numberOfBytes":"32","value":"t_uint256"},"t_mapping(t_bytes32,t_struct(RoleData)13493_storage)":{"encoding":"mapping","key":"t_bytes32","label":"mapping(bytes32 => struct AccessControlUpgradeable.RoleData)","numberOfBytes":"32","value":"t_struct(RoleData)13493_storage"},"t_string_storage":{"encoding":"bytes","label":"string","numberOfBytes":"32"},"t_struct(FacetCut)65456_storage":{"encoding":"inplace","label":"struct IDiamond.FacetCut","numberOfBytes":"64","members":[{"astId":65449,"contract":"pkg/contracts/src/RegistryCommunity/RegistryCommunity.sol:RegistryCommunity","label":"facetAddress","offset":0,"slot":"0","type":"t_address"},{"astId":65452,"contract":"pkg/contracts/src/RegistryCommunity/RegistryCommunity.sol:RegistryCommunity","label":"action","offset":20,"slot":"0","type":"t_enum(FacetCutAction)65447"},{"astId":65455,"contract":"pkg/contracts/src/RegistryCommunity/RegistryCommunity.sol:RegistryCommunity","label":"functionSelectors","offset":0,"slot":"1","type":"t_array(t_bytes4)dyn_storage"}]},"t_struct(Member)60830_storage":{"encoding":"inplace","label":"struct Member","numberOfBytes":"96","members":[{"astId":60825,"contract":"pkg/contracts/src/RegistryCommunity/RegistryCommunity.sol:RegistryCommunity","label":"member","offset":0,"slot":"0","type":"t_address"},{"astId":60827,"contract":"pkg/contracts/src/RegistryCommunity/RegistryCommunity.sol:RegistryCommunity","label":"stakedAmount","offset":0,"slot":"1","type":"t_uint256"},{"astId":60829,"contract":"pkg/contracts/src/RegistryCommunity/RegistryCommunity.sol:RegistryCommunity","label":"isRegistered","offset":0,"slot":"2","type":"t_bool"}]},"t_struct(RoleData)13493_storage":{"encoding":"inplace","label":"struct AccessControlUpgradeable.RoleData","numberOfBytes":"64","members":[{"astId":13490,"contract":"pkg/contracts/src/RegistryCommunity/RegistryCommunity.sol:RegistryCommunity","label":"members","offset":0,"slot":"0","type":"t_mapping(t_address,t_bool)"},{"astId":13492,"contract":"pkg/contracts/src/RegistryCommunity/RegistryCommunity.sol:RegistryCommunity","label":"adminRole","offset":0,"slot":"1","type":"t_bytes32"}]},"t_uint256":{"encoding":"inplace","label":"uint256","numberOfBytes":"32"},"t_uint8":{"encoding":"inplace","label":"uint8","numberOfBytes":"1"}}},"id":125}