{"abi":[{"type":"function","name":"CFA_V1_FORWARDER","inputs":[],"outputs":[{"name":"","type":"address","internalType":"address"}],"stateMutability":"view"},{"type":"function","name":"CURRENT_STORAGE_SCHEMA_VERSION","inputs":[],"outputs":[{"name":"","type":"uint8","internalType":"uint8"}],"stateMutability":"view"},{"type":"function","name":"afterAgreementCreated","inputs":[{"name":"token","type":"address","internalType":"contract ISuperToken"},{"name":"agreementClass","type":"address","internalType":"address"},{"name":"","type":"bytes32","internalType":"bytes32"},{"name":"","type":"bytes","internalType":"bytes"},{"name":"","type":"bytes","internalType":"bytes"},{"name":"ctx","type":"bytes","internalType":"bytes"}],"outputs":[{"name":"newCtx","type":"bytes","internalType":"bytes"}],"stateMutability":"nonpayable"},{"type":"function","name":"afterAgreementTerminated","inputs":[{"name":"token","type":"address","internalType":"contract ISuperToken"},{"name":"agreementClass","type":"address","internalType":"address"},{"name":"","type":"bytes32","internalType":"bytes32"},{"name":"","type":"bytes","internalType":"bytes"},{"name":"","type":"bytes","internalType":"bytes"},{"name":"ctx","type":"bytes","internalType":"bytes"}],"outputs":[{"name":"newCtx","type":"bytes","internalType":"bytes"}],"stateMutability":"nonpayable"},{"type":"function","name":"afterAgreementUpdated","inputs":[{"name":"token","type":"address","internalType":"contract ISuperToken"},{"name":"agreementClass","type":"address","internalType":"address"},{"name":"","type":"bytes32","internalType":"bytes32"},{"name":"","type":"bytes","internalType":"bytes"},{"name":"","type":"bytes","internalType":"bytes"},{"name":"ctx","type":"bytes","internalType":"bytes"}],"outputs":[{"name":"newCtx","type":"bytes","internalType":"bytes"}],"stateMutability":"nonpayable"},{"type":"function","name":"beforeAgreementCreated","inputs":[{"name":"","type":"address","internalType":"contract ISuperToken"},{"name":"","type":"address","internalType":"address"},{"name":"","type":"bytes32","internalType":"bytes32"},{"name":"","type":"bytes","internalType":"bytes"},{"name":"","type":"bytes","internalType":"bytes"}],"outputs":[{"name":"","type":"bytes","internalType":"bytes"}],"stateMutability":"view"},{"type":"function","name":"beforeAgreementTerminated","inputs":[{"name":"","type":"address","internalType":"contract ISuperToken"},{"name":"","type":"address","internalType":"address"},{"name":"","type":"bytes32","internalType":"bytes32"},{"name":"","type":"bytes","internalType":"bytes"},{"name":"","type":"bytes","internalType":"bytes"}],"outputs":[{"name":"","type":"bytes","internalType":"bytes"}],"stateMutability":"view"},{"type":"function","name":"beforeAgreementUpdated","inputs":[{"name":"","type":"address","internalType":"contract ISuperToken"},{"name":"","type":"address","internalType":"address"},{"name":"","type":"bytes32","internalType":"bytes32"},{"name":"","type":"bytes","internalType":"bytes"},{"name":"","type":"bytes","internalType":"bytes"}],"outputs":[{"name":"","type":"bytes","internalType":"bytes"}],"stateMutability":"view"},{"type":"function","name":"beneficiary","inputs":[],"outputs":[{"name":"","type":"address","internalType":"address"}],"stateMutability":"view"},{"type":"function","name":"claim","inputs":[],"outputs":[],"stateMutability":"nonpayable"},{"type":"function","name":"depositAmount","inputs":[],"outputs":[{"name":"","type":"uint256","internalType":"uint256"}],"stateMutability":"view"},{"type":"function","name":"disputed","inputs":[],"outputs":[{"name":"","type":"bool","internalType":"bool"}],"stateMutability":"view"},{"type":"function","name":"drainToBeneficiary","inputs":[],"outputs":[],"stateMutability":"nonpayable"},{"type":"function","name":"drainToStrategy","inputs":[],"outputs":[],"stateMutability":"nonpayable"},{"type":"function","name":"gda","inputs":[],"outputs":[{"name":"","type":"address","internalType":"contract IGeneralDistributionAgreementV1"}],"stateMutability":"view"},{"type":"function","name":"host","inputs":[],"outputs":[{"name":"","type":"address","internalType":"contract ISuperfluid"}],"stateMutability":"view"},{"type":"function","name":"initialize","inputs":[{"name":"_superToken","type":"address","internalType":"contract ISuperToken"},{"name":"_pool","type":"address","internalType":"contract ISuperfluidPool"},{"name":"_beneficiary","type":"address","internalType":"address"},{"name":"_initialOwner","type":"address","internalType":"address"},{"name":"_strategy","type":"address","internalType":"address"}],"outputs":[],"stateMutability":"nonpayable"},{"type":"function","name":"initialize","inputs":[{"name":"initialOwner","type":"address","internalType":"address"}],"outputs":[],"stateMutability":"nonpayable"},{"type":"function","name":"owner","inputs":[],"outputs":[{"name":"","type":"address","internalType":"address"}],"stateMutability":"view"},{"type":"function","name":"pool","inputs":[],"outputs":[{"name":"","type":"address","internalType":"contract ISuperfluidPool"}],"stateMutability":"view"},{"type":"function","name":"proxiableUUID","inputs":[],"outputs":[{"name":"","type":"bytes32","internalType":"bytes32"}],"stateMutability":"view"},{"type":"function","name":"proxyOwner","inputs":[],"outputs":[{"name":"","type":"address","internalType":"address"}],"stateMutability":"view"},{"type":"function","name":"reinitializeV2Migrate","inputs":[],"outputs":[],"stateMutability":"nonpayable"},{"type":"function","name":"renounceOwnership","inputs":[],"outputs":[],"stateMutability":"nonpayable"},{"type":"function","name":"setBeneficiary","inputs":[{"name":"_beneficiary","type":"address","internalType":"address"}],"outputs":[],"stateMutability":"nonpayable"},{"type":"function","name":"setDisputed","inputs":[{"name":"_disputed","type":"bool","internalType":"bool"}],"outputs":[],"stateMutability":"nonpayable"},{"type":"function","name":"storageSchemaVersion","inputs":[],"outputs":[{"name":"","type":"uint8","internalType":"uint8"}],"stateMutability":"view"},{"type":"function","name":"strategy","inputs":[],"outputs":[{"name":"","type":"address","internalType":"address"}],"stateMutability":"view"},{"type":"function","name":"superToken","inputs":[],"outputs":[{"name":"","type":"address","internalType":"contract ISuperToken"}],"stateMutability":"view"},{"type":"function","name":"syncOutflow","inputs":[],"outputs":[],"stateMutability":"nonpayable"},{"type":"function","name":"transferOwnership","inputs":[{"name":"newOwner","type":"address","internalType":"address"}],"outputs":[],"stateMutability":"nonpayable"},{"type":"function","name":"upgradeTo","inputs":[{"name":"newImplementation","type":"address","internalType":"address"}],"outputs":[],"stateMutability":"nonpayable"},{"type":"function","name":"upgradeToAndCall","inputs":[{"name":"newImplementation","type":"address","internalType":"address"},{"name":"data","type":"bytes","internalType":"bytes"}],"outputs":[],"stateMutability":"payable"},{"type":"event","name":"AdminChanged","inputs":[{"name":"previousAdmin","type":"address","indexed":false,"internalType":"address"},{"name":"newAdmin","type":"address","indexed":false,"internalType":"address"}],"anonymous":false},{"type":"event","name":"BeaconUpgraded","inputs":[{"name":"beacon","type":"address","indexed":true,"internalType":"address"}],"anonymous":false},{"type":"event","name":"Initialized","inputs":[{"name":"version","type":"uint8","indexed":false,"internalType":"uint8"}],"anonymous":false},{"type":"event","name":"OwnershipTransferred","inputs":[{"name":"previousOwner","type":"address","indexed":true,"internalType":"address"},{"name":"newOwner","type":"address","indexed":true,"internalType":"address"}],"anonymous":false},{"type":"event","name":"Upgraded","inputs":[{"name":"implementation","type":"address","indexed":true,"internalType":"address"}],"anonymous":false},{"type":"error","name":"CFA_INVALID_FLOW_RATE","inputs":[]},{"type":"error","name":"CallerNotOwner","inputs":[{"name":"_caller","type":"address","internalType":"address"},{"name":"_owner","type":"address","internalType":"address"}]},{"type":"error","name":"ConnectPoolFailed","inputs":[{"name":"pool","type":"address","internalType":"address"},{"name":"superToken","type":"address","internalType":"address"}]},{"type":"error","name":"Disputed","inputs":[]},{"type":"error","name":"InvalidAddress","inputs":[]},{"type":"error","name":"MigrationNotRequired","inputs":[]},{"type":"error","name":"OnlyHost","inputs":[{"name":"sender","type":"address","internalType":"address"}]},{"type":"error","name":"OnlyStrategy","inputs":[{"name":"sender","type":"address","internalType":"address"}]},{"type":"error","name":"SetOutflowFailed","inputs":[{"name":"receiver","type":"address","internalType":"address"},{"name":"flowRate","type":"int96","internalType":"int96"}]},{"type":"error","name":"SuperTokenTransferFailed","inputs":[{"name":"to","type":"address","internalType":"address"},{"name":"amount","type":"uint256","internalType":"uint256"}]}],"bytecode":{"object":"0x60a06040523060805234801562000014575f80fd5b506200001f62000025565b620000e3565b5f54610100900460ff1615620000915760405162461bcd60e51b815260206004820152602760248201527f496e697469616c697a61626c653a20636f6e747261637420697320696e697469604482015266616c697a696e6760c81b606482015260840160405180910390fd5b5f5460ff90811614620000e1575f805460ff191660ff9081179091556040519081527f7f26b83ff96e1f2b6a682f133852f6798a09c465da95921460cefb38474024989060200160405180910390a15b565b6080516130d9620001185f395f8181610b6801528181610ba801528181610ddb01528181610e1b0152610e9601526130d95ff3fe60806040526004361061017d575f3560e01c8063025313a2146101815780630695c46c146101ab5780630c7d3630146101db5780630dee46b5146101fc5780631459457a1461021257806316f0115b146102315780631c31f71014610250578063230dbd291461026f5780632b4116f71461029b57806330d9c915146102ba5780633659cfe6146102d957806338af3eed146102f8578063419759f5146103175780634e71d92d146103395780634f1ef2861461034d57806352d1902d1461036057806353c11f991461026f5780635d13be57146103745780635f9e7d77146103945780635fbd36fa146103b357806364db9168146103d2578063715018a6146103e6578063740ecfdb146103fa578063884d1f40146104195780638da5cb5b14610438578063a8c62e761461044c578063ab8744661461046b578063c4d66de81461047f578063d86ed3e51461026f578063dbc341d41461049e578063eff75f15146104c5578063f2fde38b146104d9578063f437bc59146104f8575b5f80fd5b34801561018c575f80fd5b50610195610517565b6040516101a2919061276b565b60405180910390f35b3480156101b6575f80fd5b50609c546101cb90600160a01b900460ff1681565b60405190151581526020016101a2565b3480156101e6575f80fd5b506101ef600281565b6040516101a2919061277f565b348015610207575f80fd5b5061021061052f565b005b34801561021d575f80fd5b5061021061022c3660046127a1565b610714565b34801561023c575f80fd5b50609854610195906001600160a01b031681565b34801561025b575f80fd5b5061021061026a36600461280e565b6109f5565b34801561027a575f80fd5b5061028e610289366004612874565b610ac4565b6040516101a29190612982565b3480156102a6575f80fd5b50609754610195906001600160a01b031681565b3480156102c5575f80fd5b5061028e6102d4366004612994565b610b0e565b3480156102e4575f80fd5b506102106102f336600461280e565b610b5e565b348015610303575f80fd5b50609c54610195906001600160a01b031681565b348015610322575f80fd5b5061032b610c22565b6040519081526020016101a2565b348015610344575f80fd5b50610210610d9c565b61021061035b366004612a95565b610dd1565b34801561036b575f80fd5b5061032b610e8a565b34801561037f575f80fd5b50609c546101ef90600160a81b900460ff1681565b34801561039f575f80fd5b5061028e6103ae366004612994565b610f36565b3480156103be575f80fd5b50609a54610195906001600160a01b031681565b3480156103dd575f80fd5b50610210610f9d565b3480156103f1575f80fd5b50610210610fec565b348015610405575f80fd5b50610210610414366004612b2e565b610ffd565b348015610424575f80fd5b5061028e610433366004612994565b611096565b348015610443575f80fd5b506101956110e6565b348015610457575f80fd5b50609b54610195906001600160a01b031681565b348015610476575f80fd5b50610210611179565b34801561048a575f80fd5b5061021061049936600461280e565b6111bb565b3480156104a9575f80fd5b5061019573cfa132e353cb4e398080b9700609bb008eceb12581565b3480156104d0575f80fd5b50610210611279565b3480156104e4575f80fd5b506102106104f336600461280e565b6112bb565b348015610503575f80fd5b50609954610195906001600160a01b031681565b5f61052a6033546001600160a01b031690565b905090565b5f54600290610100900460ff1615801561054f57505f5460ff8083169116105b6105745760405162461bcd60e51b815260040161056b90612b49565b60405180910390fd5b5f805461ffff191660ff83161761010017905561058f611331565b6097546001600160a01b03161515806105b257506098546001600160a01b031615155b806105c757506099546001600160a01b031615155b806105dc5750609a546001600160a01b031615155b806105f15750609b546001600160a01b031615155b806106065750609c546001600160a01b031615155b15610624576040516362d902bb60e01b815260040160405180910390fd5b606554606654606754606854606954606a546001600160a01b0381169060a01c60ff161515610651611390565b609780546001600160a01b03199081166001600160a01b03998a16179091556098805482169789169790971790965560998054871695881695909517909455609a8054861693871693909317909255609b805490941690851617909255609c8054929093166001600160a81b031990921691909117600160a01b911515919091021760ff60a81b1916600160a91b1790555f805461ff00191690556040515f805160206130268339815191529061070990839061277f565b60405180910390a150565b5f54610100900460ff161580801561073257505f54600160ff909116105b806107525750610741306113be565b15801561075257505f5460ff166001145b61076e5760405162461bcd60e51b815260040161056b90612b49565b5f805460ff19166001179055801561078f575f805461ff0019166101001790555b6001600160a01b03861615806107ac57506001600160a01b038516155b806107be57506001600160a01b038416155b156107dc5760405163e6c4247b60e01b815260040160405180910390fd5b6001600160a01b03831615806107f957506001600160a01b038216155b156108175760405163e6c4247b60e01b815260040160405180910390fd5b610820836111bb565b610828611390565b609780546001600160a01b038089166001600160a01b0319928316811790935560988054898316908416179055609c8054888316908416179055609b805491861691909216179055604080516320bc442560e01b815290516320bc4425916004808201926020929091908290030181865afa1580156108a9573d5f803e3d5ffd5b505050506040513d601f19601f820116820180604052508101906108cd9190612b97565b609980546001600160a01b0319166001600160a01b03929092169182179055604051635b69006f60e11b81525f8051602061308d833981519152600482015263b6d200de90602401602060405180830381865afa158015610930573d5f803e3d5ffd5b505050506040513d601f19601f820116820180604052508101906109549190612b97565b609a80546001600160a01b0319166001600160a01b03928316179055609c805460ff60a81b1916600160a91b1790555f90610991908816876113cd565b9050806109b557858760405163248a0f7d60e21b815260040161056b929190612bb2565b5080156109ed575f805461ff00191690556040515f80516020613026833981519152906109e49060019061277f565b60405180910390a15b505050505050565b609b546001600160a01b03163314610a225733604051630b4c840b60e31b815260040161056b919061276b565b610a2a6113f2565b6001600160a01b038116610a515760405163e6c4247b60e01b815260040160405180910390fd5b609c546001600160a01b039081169082168103610a6e5750610ab7565b609c54600160a01b900460ff16610a9a57610a895f8261144b565b610a9a610a94611495565b8361144b565b50609c80546001600160a01b0319166001600160a01b0383161790555b610ac16001606555565b50565b6099546060906001600160a01b03163314610af45733604051630ff9d56b60e11b815260040161056b919061276b565b610b008a8a8585611522565b9a9950505050505050505050565b60405162461bcd60e51b815260206004820152602f60248201525f80516020612f8683398151915260448201526e1c99595b595b9d0810dc99585d1959608a1b606482015260609060840161056b565b6001600160a01b037f0000000000000000000000000000000000000000000000000000000000000000163003610ba65760405162461bcd60e51b815260040161056b90612bcc565b7f00000000000000000000000000000000000000000000000000000000000000006001600160a01b0316610bd861161e565b6001600160a01b031614610bfe5760405162461bcd60e51b815260040161056b90612c05565b610c0781611639565b604080515f80825260208201909252610ac191839190611674565b5f80610c2c611495565b90505f81600b0b13610c3f575f91505090565b5f8073cfa132e353cb4e398080b9700609bb008eceb1256001600160a01b03163084604051602401610c72929190612c3e565b60408051601f198184030181529181526020820180516001600160e01b03166346ccbfb760e11b17905251610ca79190612c5a565b5f60405180830381855afa9150503d805f8114610cdf576040519150601f19603f3d011682016040523d82523d5f602084013e610ce4565b606091505b5091509150818015610cf857506020815110155b15610d195780806020019051810190610d119190612c75565b935050505090565b6097546040516309f0b49560e01b815273cfa132e353cb4e398080b9700609bb008eceb125916309f0b49591610d5d916001600160a01b0316908790600401612c3e565b602060405180830381865afa158015610d78573d5f803e3d5ffd5b505050506040513d601f19601f82011682018060405250810190610d119190612c75565b609c54600160a01b900460ff1615610dc7576040516362e6201d60e01b815260040160405180910390fd5b610dcf6117e3565b565b6001600160a01b037f0000000000000000000000000000000000000000000000000000000000000000163003610e195760405162461bcd60e51b815260040161056b90612bcc565b7f00000000000000000000000000000000000000000000000000000000000000006001600160a01b0316610e4b61161e565b6001600160a01b031614610e715760405162461bcd60e51b815260040161056b90612c05565b610e7a82611639565b610e8682826001611674565b5050565b5f306001600160a01b037f00000000000000000000000000000000000000000000000000000000000000001614610f245760405162461bcd60e51b815260206004820152603860248201527f555550535570677261646561626c653a206d757374206e6f742062652063616c6044820152771b1959081d1a1c9bdd59da0819195b1959d85d1958d85b1b60421b606482015260840161056b565b505f80516020612fe683398151915290565b60405162461bcd60e51b815260206004820152603360248201527f556e737570706f727465642063616c6c6261636b202d20204265666f7265204160448201527219dc99595b595b9d0815195c9b5a5b985d1959606a1b606482015260609060840161056b565b610fa56113f2565b610fad6117e3565b609c54610fe290600160a01b900460ff16610fcf57610fca611495565b610fd1565b5f5b609c546001600160a01b031661144b565b610dcf6001606555565b610ff4611331565b610dcf5f611916565b609b546001600160a01b0316331461102a5733604051630b4c840b60e31b815260040161056b919061276b565b6110326113f2565b609c5460ff600160a01b90910416151581151514610ab757801561106c57609c54611067905f906001600160a01b031661144b565b611077565b611077610fd1611495565b609c805460ff60a01b1916600160a01b83151502179055600160655550565b60405162461bcd60e51b815260206004820152602f60248201525f80516020612f8683398151915260448201526e1c99595b595b9d081d5c19185d1959608a1b606482015260609060840161056b565b5f6110ef610517565b6001600160a01b03163b5f036111075761052a610517565b61110f610517565b6001600160a01b0316638da5cb5b6040518163ffffffff1660e01b8152600401602060405180830381865afa925050508015611168575060408051601f3d908101601f1916820190925261116591810190612b97565b60015b6111745761052a610517565b919050565b609b546001600160a01b031633146111a65733604051630b4c840b60e31b815260040161056b919061276b565b609c54610dcf906001600160a01b0316611967565b5f54610100900460ff16158080156111d957505f54600160ff909116105b806111f957506111e8306113be565b1580156111f957505f5460ff166001145b6112155760405162461bcd60e51b815260040161056b90612b49565b5f805460ff191660011790558015611236575f805461ff0019166101001790555b61123f82611916565b8015610e86575f805461ff00191690556040515f805160206130268339815191529061126d9060019061277f565b60405180910390a15050565b609b546001600160a01b031633146112a65733604051630b4c840b60e31b815260040161056b919061276b565b609b54610dcf906001600160a01b0316611967565b6112c3611331565b6001600160a01b0381166113285760405162461bcd60e51b815260206004820152602660248201527f4f776e61626c653a206e6577206f776e657220697320746865207a65726f206160448201526564647265737360d01b606482015260840161056b565b610ac181611916565b3361133a6110e6565b6001600160a01b031614610dcf5760405162461bcd60e51b815260206004820181905260248201527f4f776e61626c653a2063616c6c6572206973206e6f7420746865206f776e6572604482015260640161056b565b5f54610100900460ff166113b65760405162461bcd60e51b815260040161056b90612c8c565b610dcf611a71565b6001600160a01b03163b151590565b604080515f808252602082019092526113e99084908490611a97565b90505b92915050565b6002606554036114445760405162461bcd60e51b815260206004820152601f60248201527f5265656e7472616e637947756172643a207265656e7472616e742063616c6c00604482015260640161056b565b6002606555565b6001600160a01b03811661145d575050565b609754611474906001600160a01b03168284611bb5565b610e8657808260405163161fef2b60e01b815260040161056b929190612c3e565b6098546040516314e7a30760e21b81525f9182916001600160a01b039091169063539e8c1c906114c990309060040161276b565b602060405180830381865afa1580156114e4573d5f803e3d5ffd5b505050506040513d601f19601f820116820180604052508101906115089190612ce8565b90505f81600b0b13611174575f91505090565b6001606555565b6097546060906001600160a01b0386811691161415806115505750609a546001600160a01b03858116911614155b156115935782828080601f0160208091040260200160405190810160405280939291908181526020018383808284375f9201919091525092935061161692505050565b609c545f90600160a01b900460ff166115b3576115ae611495565b6115b5565b5f5b609c54604080516020601f8801819004810282018101909252868152929350611612926001600160a01b0390921691849188908890819084018382808284375f92019190915250506001600160a01b038c16949392915050611bd3565b9150505b949350505050565b5f80516020612fe6833981519152546001600160a01b031690565b336116426110e6565b6001600160a01b031614610ac157336116596110e6565b60405163163678e960e01b815260040161056b929190612bb2565b7f4910fdfa16fed3260ed0e7147f7cc6da11a60208b5b9406d12a635614ffd91435460ff16156116ac576116a783611c6b565b505050565b826001600160a01b03166352d1902d6040518163ffffffff1660e01b8152600401602060405180830381865afa925050508015611706575060408051601f3d908101601f1916820190925261170391810190612c75565b60015b6117695760405162461bcd60e51b815260206004820152602e60248201527f45524331393637557067726164653a206e657720696d706c656d656e7461746960448201526d6f6e206973206e6f74205555505360901b606482015260840161056b565b5f80516020612fe683398151915281146117d75760405162461bcd60e51b815260206004820152602960248201527f45524331393637557067726164653a20756e737570706f727465642070726f786044820152681a58589b195555525160ba1b606482015260840161056b565b506116a7838383611d04565b6097546040516370a0823160e01b81525f916001600160a01b0316906370a082319061181390309060040161276b565b602060405180830381865afa15801561182e573d5f803e3d5ffd5b505050506040513d601f19601f820116820180604052508101906118529190612c75565b90505f61185d610c22565b905080821115610e86575f6118728284612d01565b609754609c5460405163a9059cbb60e01b81529293506001600160a01b039182169263a9059cbb926118aa9216908590600401612d20565b6020604051808303815f875af11580156118c6573d5f803e3d5ffd5b505050506040513d601f19601f820116820180604052508101906118ea9190612d39565b6116a757609c54604051634232230760e01b815261056b916001600160a01b0316908390600401612d20565b603380546001600160a01b038381166001600160a01b0319831681179093556040519116919082907f8be0079c531659141344cd1fd0a4f28419497f9722a3daafe3b4186f6b6457e0905f90a35050565b6097546040516370a0823160e01b81525f916001600160a01b0316906370a082319061199790309060040161276b565b602060405180830381865afa1580156119b2573d5f803e3d5ffd5b505050506040513d601f19601f820116820180604052508101906119d69190612c75565b90508015610e865760975460405163a9059cbb60e01b81526001600160a01b039091169063a9059cbb90611a109085908590600401612d20565b6020604051808303815f875af1158015611a2c573d5f803e3d5ffd5b505050506040513d601f19601f82011682018060405250810190611a509190612d39565b610e86578181604051634232230760e01b815260040161056b929190612d20565b5f54610100900460ff1661151b5760405162461bcd60e51b815260040161056b90612c8c565b5f805f611aa386611d2e565b91509150816001600160a01b03166339255d5b82836001600160a01b031663f0b7b915895f6001600160401b03811115611adf57611adf612a2b565b6040519080825280601f01601f191660200182016040528015611b09576020820181803683370190505b50604051602401611b1b929190612d54565b60408051808303601f1901815291815260208201805160e094851b6001600160e01b03909116179052519185901b6001600160e01b0319168252611b66939250908990600401612d77565b5f604051808303815f875af1158015611b81573d5f803e3d5ffd5b505050506040513d5f823e601f3d908101601f19168201604052611ba89190810190612dee565b5060019695505050505050565b604080515f8082526020820190925261161690859085908590611e92565b6060305f611be2878388611f08565b90505f85600b0b1315611c315780600b0b5f03611c0e57611c0587878787611f9d565b92505050611616565b84600b0b81600b0b14611c2757611c05878787876120bf565b8392505050611616565b84600b0b5f03611c52575f81600b0b1315611c2757611c058783888761210a565b6040516348d6568b60e11b815260040160405180910390fd5b611c74816113be565b611cd65760405162461bcd60e51b815260206004820152602d60248201527f455243313936373a206e657720696d706c656d656e746174696f6e206973206e60448201526c1bdd08184818dbdb9d1c9858dd609a1b606482015260840161056b565b5f80516020612fe683398151915280546001600160a01b0319166001600160a01b0392909216919091179055565b611d0d83612193565b5f82511180611d195750805b156116a757611d2883836121d2565b50505050565b5f8051602061306d833981519152545f805160206130ad833981519152546001600160a01b038116611e61576001600160a01b038216611dcb57826001600160a01b03166320bc44256040518163ffffffff1660e01b8152600401602060405180830381865afa158015611da4573d5f803e3d5ffd5b505050506040513d601f19601f82011682018060405250810190611dc89190612b97565b91505b604051635b69006f60e11b81525f8051602061308d83398151915260048201526001600160a01b0383169063b6d200de90602401602060405180830381865afa158015611e1a573d5f803e3d5ffd5b505050506040513d601f19601f82011682018060405250810190611e3e9190612b97565b9050815f8051602061306d83398151915255805f805160206130ad833981519152555b6001600160a01b038216611e7757611e77612e1f565b6001600160a01b038116611e8d57611e8d612e1f565b915091565b5f3081611ea0878388611f08565b90505f85600b0b1315611ee75780600b0b5f03611ec357611c05878787876121f7565b84600b0b81600b0b14611edc57611c058787878761231a565b600192505050611616565b84600b0b5f03611c52575f81600b0b1315611edc57611c0587838887612364565b5f80611f13856123ec565b604051631cd43d1160e31b81526001600160a01b03888116600483015287811660248301528681166044830152919350908316915063e6a1e88890606401608060405180830381865afa158015611f6c573d5f803e3d5ffd5b505050506040513d601f19601f82011682018060405250810190611f909190612e33565b5090979650505050505050565b60605f80611faa87612514565b91509150816001600160a01b0316634329d29382836001600160a01b03166362fc305e8b8b8b5f6001600160401b03811115611fe857611fe8612a2b565b6040519080825280601f01601f191660200182016040528015612012576020820181803683370190505b506040516024016120269493929190612e6c565b60408051808303601f1901815291815260208201805160e094851b6001600160e01b03909116179052519185901b6001600160e01b0319168252612071939250908990600401612ea1565b5f604051808303815f875af115801561208c573d5f803e3d5ffd5b505050506040513d5f823e601f3d908101601f191682016040526120b39190810190612ef3565b50979650505050505050565b60605f806120cc87612514565b91509150816001600160a01b0316634329d29382836001600160a01b03166350209a628b8b8b5f6001600160401b03811115611fe857611fe8612a2b565b60605f8061211787612514565b91509150816001600160a01b0316634329d29382836001600160a01b031663b4b333c68b8b8b5f6001600160401b0381111561215557612155612a2b565b6040519080825280601f01601f19166020018201604052801561217f576020820181803683370190505b506040516024016120269493929190612f52565b61219c81611c6b565b6040516001600160a01b038216907fbc7cd75a20ee27fd9adebab32041f755214dbc6bffa90cc0225b39da2e5c2d3b905f90a250565b60606113e983836040518060600160405280602781526020016130466027913961265c565b5f805f61220387612514565b91509150816001600160a01b03166339255d5b82836001600160a01b03166362fc305e8b8b8b5f6001600160401b0381111561224157612241612a2b565b6040519080825280601f01601f19166020018201604052801561226b576020820181803683370190505b5060405160240161227f9493929190612e6c565b60408051808303601f1901815291815260208201805160e094851b6001600160e01b03909116179052519185901b6001600160e01b03191682526122ca939250908990600401612d77565b5f604051808303815f875af11580156122e5573d5f803e3d5ffd5b505050506040513d5f823e601f3d908101601f1916820160405261230c9190810190612dee565b506001979650505050505050565b5f805f61232687612514565b91509150816001600160a01b03166339255d5b82836001600160a01b03166350209a628b8b8b5f6001600160401b0381111561224157612241612a2b565b5f805f61237087612514565b91509150816001600160a01b03166339255d5b82836001600160a01b031663b4b333c68b8b8b5f6001600160401b038111156123ae576123ae612a2b565b6040519080825280601f01601f1916602001820160405280156123d8576020820181803683370190505b5060405160240161227f9493929190612f52565b5f8051602061306d833981519152545f80516020613006833981519152546001600160a01b038116611e61576001600160a01b03821661248957826001600160a01b03166320bc44256040518163ffffffff1660e01b8152600401602060405180830381865afa158015612462573d5f803e3d5ffd5b505050506040513d601f19601f820116820180604052508101906124869190612b97565b91505b604051635b69006f60e11b81525f80516020612fa683398151915260048201526001600160a01b0383169063b6d200de90602401602060405180830381865afa1580156124d8573d5f803e3d5ffd5b505050506040513d601f19601f820116820180604052508101906124fc9190612b97565b90506001600160a01b038216611e7757611e77612e1f565b5f8051602061306d833981519152545f80516020613006833981519152546001600160a01b038116611e61576001600160a01b0382166125b157826001600160a01b03166320bc44256040518163ffffffff1660e01b8152600401602060405180830381865afa15801561258a573d5f803e3d5ffd5b505050506040513d601f19601f820116820180604052508101906125ae9190612b97565b91505b604051635b69006f60e11b81525f80516020612fa683398151915260048201526001600160a01b0383169063b6d200de90602401602060405180830381865afa158015612600573d5f803e3d5ffd5b505050506040513d601f19601f820116820180604052508101906126249190612b97565b9050815f8051602061306d83398151915255805f80516020613006833981519152556001600160a01b038216611e7757611e77612e1f565b60605f80856001600160a01b0316856040516126789190612c5a565b5f60405180830381855af49150503d805f81146126b0576040519150601f19603f3d011682016040523d82523d5f602084013e6126b5565b606091505b50915091506126c6868383876126d0565b9695505050505050565b6060831561273c5782515f03612735576126e9856113be565b6127355760405162461bcd60e51b815260206004820152601d60248201527f416464726573733a2063616c6c20746f206e6f6e2d636f6e7472616374000000604482015260640161056b565b5081611616565b61161683838151156127515781518083602001fd5b8060405162461bcd60e51b815260040161056b9190612982565b6001600160a01b0391909116815260200190565b60ff91909116815260200190565b6001600160a01b0381168114610ac1575f80fd5b5f805f805f60a086880312156127b5575f80fd5b85356127c08161278d565b945060208601356127d08161278d565b935060408601356127e08161278d565b925060608601356127f08161278d565b915060808601356128008161278d565b809150509295509295909350565b5f6020828403121561281e575f80fd5b81356128298161278d565b9392505050565b5f8083601f840112612840575f80fd5b5081356001600160401b03811115612856575f80fd5b60208301915083602082850101111561286d575f80fd5b9250929050565b5f805f805f805f805f60c08a8c03121561288c575f80fd5b89356128978161278d565b985060208a01356128a78161278d565b975060408a0135965060608a01356001600160401b03808211156128c9575f80fd5b6128d58d838e01612830565b909850965060808c01359150808211156128ed575f80fd5b6128f98d838e01612830565b909650945060a08c0135915080821115612911575f80fd5b5061291e8c828d01612830565b915080935050809150509295985092959850929598565b5f5b8381101561294f578181015183820152602001612937565b50505f910152565b5f815180845261296e816020860160208601612935565b601f01601f19169290920160200192915050565b602081525f6113e96020830184612957565b5f805f805f805f60a0888a0312156129aa575f80fd5b87356129b58161278d565b965060208801356129c58161278d565b95506040880135945060608801356001600160401b03808211156129e7575f80fd5b6129f38b838c01612830565b909650945060808a0135915080821115612a0b575f80fd5b50612a188a828b01612830565b989b979a50959850939692959293505050565b634e487b7160e01b5f52604160045260245ffd5b604051601f8201601f191681016001600160401b0381118282101715612a6757612a67612a2b565b604052919050565b5f6001600160401b03821115612a8757612a87612a2b565b50601f01601f191660200190565b5f8060408385031215612aa6575f80fd5b8235612ab18161278d565b915060208301356001600160401b03811115612acb575f80fd5b8301601f81018513612adb575f80fd5b8035612aee612ae982612a6f565b612a3f565b818152866020838501011115612b02575f80fd5b816020840160208301375f602083830101528093505050509250929050565b8015158114610ac1575f80fd5b5f60208284031215612b3e575f80fd5b813561282981612b21565b6020808252602e908201527f496e697469616c697a61626c653a20636f6e747261637420697320616c72656160408201526d191e481a5b9a5d1a585b1a5e995960921b606082015260800190565b5f60208284031215612ba7575f80fd5b81516128298161278d565b6001600160a01b0392831681529116602082015260400190565b6020808252602c908201525f80516020612fc683398151915260408201526b19195b1959d85d1958d85b1b60a21b606082015260800190565b6020808252602c908201525f80516020612fc683398151915260408201526b6163746976652070726f787960a01b606082015260800190565b6001600160a01b03929092168252600b0b602082015260400190565b5f8251612c6b818460208701612935565b9190910192915050565b5f60208284031215612c85575f80fd5b5051919050565b6020808252602b908201527f496e697469616c697a61626c653a20636f6e7472616374206973206e6f74206960408201526a6e697469616c697a696e6760a81b606082015260800190565b8051600b81900b8114611174575f80fd5b5f60208284031215612cf8575f80fd5b6113e982612cd7565b818103818111156113ec57634e487b7160e01b5f52601160045260245ffd5b6001600160a01b03929092168252602082015260400190565b5f60208284031215612d49575f80fd5b815161282981612b21565b6001600160a01b03831681526040602082018190525f9061161690830184612957565b6001600160a01b03841681526060602082018190525f90612d9a90830185612957565b82810360408401526116128185612957565b5f82601f830112612dbb575f80fd5b8151612dc9612ae982612a6f565b818152846020838601011115612ddd575f80fd5b611616826020830160208701612935565b5f60208284031215612dfe575f80fd5b81516001600160401b03811115612e13575f80fd5b61161684828501612dac565b634e487b7160e01b5f52600160045260245ffd5b5f805f8060808587031215612e46575f80fd5b84519350612e5660208601612cd7565b6040860151606090960151949790965092505050565b6001600160a01b03858116825284166020820152600b83900b60408201526080606082018190525f906126c690830184612957565b6001600160a01b03841681526080602082018190525f90612ec490830185612957565b8281038060408501526002825261060f60f31b6020830152604081016060850152506116126040820185612957565b5f8060408385031215612f04575f80fd5b82516001600160401b0380821115612f1a575f80fd5b612f2686838701612dac565b93506020850151915080821115612f3b575f80fd5b50612f4885828601612dac565b9150509250929050565b6001600160a01b0385811682528481166020830152831660408201526080606082018190525f906126c69083018461295756fe556e737570706f727465642063616c6c6261636b202d204265666f7265204167a9214cc96615e0085d3bb077758db69497dc2dce3b2b1e97bc93c3d18d83efd346756e6374696f6e206d7573742062652063616c6c6564207468726f75676820360894a13ba1a3210667c828492db98dca3e2076cc3735a920a3ca505d382bbcb969d79d88acd02d04ed7ee7d43b949e7daf093d363abcfbbc43dfdfd1ce969a7f26b83ff96e1f2b6a682f133852f6798a09c465da95921460cefb3847402498416464726573733a206c6f772d6c6576656c2064656c65676174652063616c6c206661696c656465599bf746e17a00ea62e3610586992d88101b78eec3cf380706621fb97ea837dfd8ece9bfbcb8c5c540edb935641f63d67686490a1ab97f000288759f30a946c36f6c05164a669ecb6da53e218d77ae44d51cfc99f91e5a125a18de0949bee4a164736f6c6343000817000a","linkReferences":{}},"methodIdentifiers":{"CFA_V1_FORWARDER()":"dbc341d4","CURRENT_STORAGE_SCHEMA_VERSION()":"0c7d3630","afterAgreementCreated(address,address,bytes32,bytes,bytes,bytes)":"d86ed3e5","afterAgreementTerminated(address,address,bytes32,bytes,bytes,bytes)":"53c11f99","afterAgreementUpdated(address,address,bytes32,bytes,bytes,bytes)":"230dbd29","beforeAgreementCreated(address,address,bytes32,bytes,bytes)":"30d9c915","beforeAgreementTerminated(address,address,bytes32,bytes,bytes)":"5f9e7d77","beforeAgreementUpdated(address,address,bytes32,bytes,bytes)":"884d1f40","beneficiary()":"38af3eed","claim()":"4e71d92d","depositAmount()":"419759f5","disputed()":"0695c46c","drainToBeneficiary()":"ab874466","drainToStrategy()":"eff75f15","gda()":"5fbd36fa","host()":"f437bc59","initialize(address)":"c4d66de8","initialize(address,address,address,address,address)":"1459457a","owner()":"8da5cb5b","pool()":"16f0115b","proxiableUUID()":"52d1902d","proxyOwner()":"025313a2","reinitializeV2Migrate()":"0dee46b5","renounceOwnership()":"715018a6","setBeneficiary(address)":"1c31f710","setDisputed(bool)":"740ecfdb","storageSchemaVersion()":"5d13be57","strategy()":"a8c62e76","superToken()":"2b4116f7","syncOutflow()":"64db9168","transferOwnership(address)":"f2fde38b","upgradeTo(address)":"3659cfe6","upgradeToAndCall(address,bytes)":"4f1ef286"},"storageLayout":{"storage":[{"astId":49373,"contract":"pkg/contracts/src/CVStrategy/StreamingEscrow.sol:StreamingEscrow","label":"_initialized","offset":0,"slot":"0","type":"t_uint8"},{"astId":49376,"contract":"pkg/contracts/src/CVStrategy/StreamingEscrow.sol:StreamingEscrow","label":"_initializing","offset":1,"slot":"0","type":"t_bool"},{"astId":50000,"contract":"pkg/contracts/src/CVStrategy/StreamingEscrow.sol:StreamingEscrow","label":"__gap","offset":0,"slot":"1","type":"t_array(t_uint256)50_storage"},{"astId":49165,"contract":"pkg/contracts/src/CVStrategy/StreamingEscrow.sol:StreamingEscrow","label":"_owner","offset":0,"slot":"51","type":"t_address"},{"astId":49285,"contract":"pkg/contracts/src/CVStrategy/StreamingEscrow.sol:StreamingEscrow","label":"__gap","offset":0,"slot":"52","type":"t_array(t_uint256)49_storage"},{"astId":49550,"contract":"pkg/contracts/src/CVStrategy/StreamingEscrow.sol:StreamingEscrow","label":"_status","offset":0,"slot":"101","type":"t_uint256"},{"astId":49619,"contract":"pkg/contracts/src/CVStrategy/StreamingEscrow.sol:StreamingEscrow","label":"__gap","offset":0,"slot":"102","type":"t_array(t_uint256)49_storage"},{"astId":87808,"contract":"pkg/contracts/src/CVStrategy/StreamingEscrow.sol:StreamingEscrow","label":"superToken","offset":0,"slot":"151","type":"t_contract(ISuperToken)76332"},{"astId":87811,"contract":"pkg/contracts/src/CVStrategy/StreamingEscrow.sol:StreamingEscrow","label":"pool","offset":0,"slot":"152","type":"t_contract(ISuperfluidPool)75160"},{"astId":87814,"contract":"pkg/contracts/src/CVStrategy/StreamingEscrow.sol:StreamingEscrow","label":"host","offset":0,"slot":"153","type":"t_contract(ISuperfluid)77085"},{"astId":87817,"contract":"pkg/contracts/src/CVStrategy/StreamingEscrow.sol:StreamingEscrow","label":"gda","offset":0,"slot":"154","type":"t_contract(IGeneralDistributionAgreementV1)74858"},{"astId":87819,"contract":"pkg/contracts/src/CVStrategy/StreamingEscrow.sol:StreamingEscrow","label":"strategy","offset":0,"slot":"155","type":"t_address"},{"astId":87824,"contract":"pkg/contracts/src/CVStrategy/StreamingEscrow.sol:StreamingEscrow","label":"beneficiary","offset":0,"slot":"156","type":"t_address"},{"astId":87826,"contract":"pkg/contracts/src/CVStrategy/StreamingEscrow.sol:StreamingEscrow","label":"disputed","offset":20,"slot":"156","type":"t_bool"},{"astId":87828,"contract":"pkg/contracts/src/CVStrategy/StreamingEscrow.sol:StreamingEscrow","label":"storageSchemaVersion","offset":21,"slot":"156","type":"t_uint8"},{"astId":87832,"contract":"pkg/contracts/src/CVStrategy/StreamingEscrow.sol:StreamingEscrow","label":"__gap","offset":0,"slot":"157","type":"t_array(t_uint256)45_storage"}],"types":{"t_address":{"encoding":"inplace","label":"address","numberOfBytes":"20"},"t_array(t_uint256)45_storage":{"encoding":"inplace","label":"uint256[45]","numberOfBytes":"1440","base":"t_uint256"},"t_array(t_uint256)49_storage":{"encoding":"inplace","label":"uint256[49]","numberOfBytes":"1568","base":"t_uint256"},"t_array(t_uint256)50_storage":{"encoding":"inplace","label":"uint256[50]","numberOfBytes":"1600","base":"t_uint256"},"t_bool":{"encoding":"inplace","label":"bool","numberOfBytes":"1"},"t_contract(IGeneralDistributionAgreementV1)74858":{"encoding":"inplace","label":"contract IGeneralDistributionAgreementV1","numberOfBytes":"20"},"t_contract(ISuperToken)76332":{"encoding":"inplace","label":"contract ISuperToken","numberOfBytes":"20"},"t_contract(ISuperfluid)77085":{"encoding":"inplace","label":"contract ISuperfluid","numberOfBytes":"20"},"t_contract(ISuperfluidPool)75160":{"encoding":"inplace","label":"contract ISuperfluidPool","numberOfBytes":"20"},"t_uint256":{"encoding":"inplace","label":"uint256","numberOfBytes":"32"},"t_uint8":{"encoding":"inplace","label":"uint8","numberOfBytes":"1"}}},"id":134}