{"abi":[{"type":"function","name":"COUNCIL_MEMBER","inputs":[],"outputs":[{"name":"","type":"bytes32","internalType":"bytes32"}],"stateMutability":"view"},{"type":"function","name":"DEFAULT_ADMIN_ROLE","inputs":[],"outputs":[{"name":"","type":"bytes32","internalType":"bytes32"}],"stateMutability":"view"},{"type":"function","name":"MAX_FEE","inputs":[],"outputs":[{"name":"","type":"uint256","internalType":"uint256"}],"stateMutability":"view"},{"type":"function","name":"NATIVE","inputs":[],"outputs":[{"name":"","type":"address","internalType":"address"}],"stateMutability":"view"},{"type":"function","name":"PRECISION_SCALE","inputs":[],"outputs":[{"name":"","type":"uint256","internalType":"uint256"}],"stateMutability":"view"},{"type":"function","name":"VERSION","inputs":[],"outputs":[{"name":"","type":"string","internalType":"string"}],"stateMutability":"pure"},{"type":"function","name":"acceptCouncilSafe","inputs":[],"outputs":[],"stateMutability":"nonpayable"},{"type":"function","name":"activateMemberInStrategy","inputs":[{"name":"_member","type":"address","internalType":"address"},{"name":"_strategy","type":"address","internalType":"address"}],"outputs":[],"stateMutability":"nonpayable"},{"type":"function","name":"addStrategy","inputs":[{"name":"_newStrategy","type":"address","internalType":"address"}],"outputs":[],"stateMutability":"nonpayable"},{"type":"function","name":"addStrategyByPoolId","inputs":[{"name":"poolId","type":"uint256","internalType":"uint256"}],"outputs":[],"stateMutability":"nonpayable"},{"type":"function","name":"addressToMemberInfo","inputs":[{"name":"member","type":"address","internalType":"address"}],"outputs":[{"name":"member","type":"address","internalType":"address"},{"name":"stakedAmount","type":"uint256","internalType":"uint256"},{"name":"isRegistered","type":"bool","internalType":"bool"}],"stateMutability":"view"},{"type":"function","name":"allo","inputs":[],"outputs":[{"name":"","type":"address","internalType":"contract FAllo"}],"stateMutability":"view"},{"type":"function","name":"cloneNonce","inputs":[],"outputs":[{"name":"","type":"uint256","internalType":"uint256"}],"stateMutability":"view"},{"type":"function","name":"collateralVaultTemplate","inputs":[],"outputs":[{"name":"","type":"address","internalType":"address"}],"stateMutability":"view"},{"type":"function","name":"communityFee","inputs":[],"outputs":[{"name":"","type":"uint256","internalType":"uint256"}],"stateMutability":"view"},{"type":"function","name":"communityName","inputs":[],"outputs":[{"name":"","type":"string","internalType":"string"}],"stateMutability":"view"},{"type":"function","name":"councilSafe","inputs":[],"outputs":[{"name":"","type":"address","internalType":"contract ISafe"}],"stateMutability":"view"},{"type":"function","name":"covenantIpfsHash","inputs":[],"outputs":[{"name":"","type":"string","internalType":"string"}],"stateMutability":"view"},{"type":"function","name":"createPool","inputs":[{"name":"_token","type":"address","internalType":"address"},{"name":"_params","type":"tuple","internalType":"struct CVStrategyInitializeParamsV0_0","components":[{"name":"cvParams","type":"tuple","internalType":"struct CVParams","components":[{"name":"maxRatio","type":"uint256","internalType":"uint256"},{"name":"weight","type":"uint256","internalType":"uint256"},{"name":"decay","type":"uint256","internalType":"uint256"},{"name":"minThresholdPoints","type":"uint256","internalType":"uint256"}]},{"name":"proposalType","type":"uint8","internalType":"enum ProposalType"},{"name":"pointSystem","type":"uint8","internalType":"enum PointSystem"},{"name":"pointConfig","type":"tuple","internalType":"struct PointSystemConfig","components":[{"name":"maxAmount","type":"uint256","internalType":"uint256"}]},{"name":"arbitrableConfig","type":"tuple","internalType":"struct ArbitrableConfig","components":[{"name":"arbitrator","type":"address","internalType":"contract IArbitrator"},{"name":"tribunalSafe","type":"address","internalType":"address"},{"name":"submitterCollateralAmount","type":"uint256","internalType":"uint256"},{"name":"challengerCollateralAmount","type":"uint256","internalType":"uint256"},{"name":"defaultRuling","type":"uint256","internalType":"uint256"},{"name":"defaultRulingTimeout","type":"uint256","internalType":"uint256"}]},{"name":"registryCommunity","type":"address","internalType":"address"},{"name":"sybilScorer","type":"address","internalType":"address"}]},{"name":"_metadata","type":"tuple","internalType":"struct Metadata","components":[{"name":"protocol","type":"uint256","internalType":"uint256"},{"name":"pointer","type":"string","internalType":"string"}]}],"outputs":[{"name":"poolId","type":"uint256","internalType":"uint256"},{"name":"strategy","type":"address","internalType":"address"}],"stateMutability":"nonpayable"},{"type":"function","name":"createPool","inputs":[{"name":"_token","type":"address","internalType":"address"},{"name":"_params","type":"tuple","internalType":"struct CVStrategyInitializeParamsV0_1","components":[{"name":"cvParams","type":"tuple","internalType":"struct CVParams","components":[{"name":"maxRatio","type":"uint256","internalType":"uint256"},{"name":"weight","type":"uint256","internalType":"uint256"},{"name":"decay","type":"uint256","internalType":"uint256"},{"name":"minThresholdPoints","type":"uint256","internalType":"uint256"}]},{"name":"proposalType","type":"uint8","internalType":"enum ProposalType"},{"name":"pointSystem","type":"uint8","internalType":"enum PointSystem"},{"name":"pointConfig","type":"tuple","internalType":"struct PointSystemConfig","components":[{"name":"maxAmount","type":"uint256","internalType":"uint256"}]},{"name":"arbitrableConfig","type":"tuple","internalType":"struct ArbitrableConfig","components":[{"name":"arbitrator","type":"address","internalType":"contract IArbitrator"},{"name":"tribunalSafe","type":"address","internalType":"address"},{"name":"submitterCollateralAmount","type":"uint256","internalType":"uint256"},{"name":"challengerCollateralAmount","type":"uint256","internalType":"uint256"},{"name":"defaultRuling","type":"uint256","internalType":"uint256"},{"name":"defaultRulingTimeout","type":"uint256","internalType":"uint256"}]},{"name":"registryCommunity","type":"address","internalType":"address"},{"name":"sybilScorer","type":"address","internalType":"address"},{"name":"initialAllowlist","type":"address[]","internalType":"address[]"}]},{"name":"_metadata","type":"tuple","internalType":"struct Metadata","components":[{"name":"protocol","type":"uint256","internalType":"uint256"},{"name":"pointer","type":"string","internalType":"string"}]}],"outputs":[{"name":"poolId","type":"uint256","internalType":"uint256"},{"name":"strategy","type":"address","internalType":"address"}],"stateMutability":"nonpayable"},{"type":"function","name":"createPool","inputs":[{"name":"_strategy","type":"address","internalType":"address"},{"name":"_token","type":"address","internalType":"address"},{"name":"_params","type":"tuple","internalType":"struct CVStrategyInitializeParamsV0_1","components":[{"name":"cvParams","type":"tuple","internalType":"struct CVParams","components":[{"name":"maxRatio","type":"uint256","internalType":"uint256"},{"name":"weight","type":"uint256","internalType":"uint256"},{"name":"decay","type":"uint256","internalType":"uint256"},{"name":"minThresholdPoints","type":"uint256","internalType":"uint256"}]},{"name":"proposalType","type":"uint8","internalType":"enum ProposalType"},{"name":"pointSystem","type":"uint8","internalType":"enum PointSystem"},{"name":"pointConfig","type":"tuple","internalType":"struct PointSystemConfig","components":[{"name":"maxAmount","type":"uint256","internalType":"uint256"}]},{"name":"arbitrableConfig","type":"tuple","internalType":"struct ArbitrableConfig","components":[{"name":"arbitrator","type":"address","internalType":"contract IArbitrator"},{"name":"tribunalSafe","type":"address","internalType":"address"},{"name":"submitterCollateralAmount","type":"uint256","internalType":"uint256"},{"name":"challengerCollateralAmount","type":"uint256","internalType":"uint256"},{"name":"defaultRuling","type":"uint256","internalType":"uint256"},{"name":"defaultRulingTimeout","type":"uint256","internalType":"uint256"}]},{"name":"registryCommunity","type":"address","internalType":"address"},{"name":"sybilScorer","type":"address","internalType":"address"},{"name":"initialAllowlist","type":"address[]","internalType":"address[]"}]},{"name":"_metadata","type":"tuple","internalType":"struct Metadata","components":[{"name":"protocol","type":"uint256","internalType":"uint256"},{"name":"pointer","type":"string","internalType":"string"}]}],"outputs":[{"name":"poolId","type":"uint256","internalType":"uint256"},{"name":"strategy","type":"address","internalType":"address"}],"stateMutability":"nonpayable"},{"type":"function","name":"createPool","inputs":[{"name":"_strategy","type":"address","internalType":"address"},{"name":"_token","type":"address","internalType":"address"},{"name":"_params","type":"tuple","internalType":"struct CVStrategyInitializeParamsV0_0","components":[{"name":"cvParams","type":"tuple","internalType":"struct CVParams","components":[{"name":"maxRatio","type":"uint256","internalType":"uint256"},{"name":"weight","type":"uint256","internalType":"uint256"},{"name":"decay","type":"uint256","internalType":"uint256"},{"name":"minThresholdPoints","type":"uint256","internalType":"uint256"}]},{"name":"proposalType","type":"uint8","internalType":"enum ProposalType"},{"name":"pointSystem","type":"uint8","internalType":"enum PointSystem"},{"name":"pointConfig","type":"tuple","internalType":"struct PointSystemConfig","components":[{"name":"maxAmount","type":"uint256","internalType":"uint256"}]},{"name":"arbitrableConfig","type":"tuple","internalType":"struct ArbitrableConfig","components":[{"name":"arbitrator","type":"address","internalType":"contract IArbitrator"},{"name":"tribunalSafe","type":"address","internalType":"address"},{"name":"submitterCollateralAmount","type":"uint256","internalType":"uint256"},{"name":"challengerCollateralAmount","type":"uint256","internalType":"uint256"},{"name":"defaultRuling","type":"uint256","internalType":"uint256"},{"name":"defaultRulingTimeout","type":"uint256","internalType":"uint256"}]},{"name":"registryCommunity","type":"address","internalType":"address"},{"name":"sybilScorer","type":"address","internalType":"address"}]},{"name":"_metadata","type":"tuple","internalType":"struct Metadata","components":[{"name":"protocol","type":"uint256","internalType":"uint256"},{"name":"pointer","type":"string","internalType":"string"}]}],"outputs":[{"name":"poolId","type":"uint256","internalType":"uint256"},{"name":"strategy","type":"address","internalType":"address"}],"stateMutability":"nonpayable"},{"type":"function","name":"deactivateMemberInStrategy","inputs":[{"name":"_member","type":"address","internalType":"address"},{"name":"_strategy","type":"address","internalType":"address"}],"outputs":[],"stateMutability":"nonpayable"},{"type":"function","name":"decreasePower","inputs":[{"name":"_amountUnstaked","type":"uint256","internalType":"uint256"}],"outputs":[],"stateMutability":"nonpayable"},{"type":"function","name":"enabledStrategies","inputs":[{"name":"strategy","type":"address","internalType":"address"}],"outputs":[{"name":"isEnabled","type":"bool","internalType":"bool"}],"stateMutability":"view"},{"type":"function","name":"feeReceiver","inputs":[],"outputs":[{"name":"","type":"address","internalType":"address"}],"stateMutability":"view"},{"type":"function","name":"gardenToken","inputs":[],"outputs":[{"name":"","type":"address","internalType":"contract IERC20"}],"stateMutability":"view"},{"type":"function","name":"getBasisStakedAmount","inputs":[],"outputs":[{"name":"","type":"uint256","internalType":"uint256"}],"stateMutability":"view"},{"type":"function","name":"getMemberPowerInStrategy","inputs":[{"name":"_member","type":"address","internalType":"address"},{"name":"_strategy","type":"address","internalType":"address"}],"outputs":[{"name":"","type":"uint256","internalType":"uint256"}],"stateMutability":"view"},{"type":"function","name":"getMemberStakedAmount","inputs":[{"name":"_member","type":"address","internalType":"address"}],"outputs":[{"name":"","type":"uint256","internalType":"uint256"}],"stateMutability":"view"},{"type":"function","name":"getRoleAdmin","inputs":[{"name":"role","type":"bytes32","internalType":"bytes32"}],"outputs":[{"name":"","type":"bytes32","internalType":"bytes32"}],"stateMutability":"view"},{"type":"function","name":"getStakeAmountWithFees","inputs":[],"outputs":[{"name":"","type":"uint256","internalType":"uint256"}],"stateMutability":"view"},{"type":"function","name":"grantRole","inputs":[{"name":"role","type":"bytes32","internalType":"bytes32"},{"name":"account","type":"address","internalType":"address"}],"outputs":[],"stateMutability":"nonpayable"},{"type":"function","name":"hasRole","inputs":[{"name":"role","type":"bytes32","internalType":"bytes32"},{"name":"account","type":"address","internalType":"address"}],"outputs":[{"name":"","type":"bool","internalType":"bool"}],"stateMutability":"view"},{"type":"function","name":"increasePower","inputs":[{"name":"_amountStaked","type":"uint256","internalType":"uint256"}],"outputs":[],"stateMutability":"nonpayable"},{"type":"function","name":"initialize","inputs":[{"name":"params","type":"tuple","internalType":"struct RegistryCommunityInitializeParamsV0_0","components":[{"name":"_allo","type":"address","internalType":"address"},{"name":"_gardenToken","type":"address","internalType":"contract IERC20"},{"name":"_registerStakeAmount","type":"uint256","internalType":"uint256"},{"name":"_communityFee","type":"uint256","internalType":"uint256"},{"name":"_nonce","type":"uint256","internalType":"uint256"},{"name":"_registryFactory","type":"address","internalType":"address"},{"name":"_feeReceiver","type":"address","internalType":"address"},{"name":"_metadata","type":"tuple","internalType":"struct Metadata","components":[{"name":"protocol","type":"uint256","internalType":"uint256"},{"name":"pointer","type":"string","internalType":"string"}]},{"name":"_councilSafe","type":"address","internalType":"address payable"},{"name":"_communityName","type":"string","internalType":"string"},{"name":"_isKickEnabled","type":"bool","internalType":"bool"},{"name":"covenantIpfsHash","type":"string","internalType":"string"}]},{"name":"_strategyTemplate","type":"address","internalType":"address"},{"name":"_collateralVaultTemplate","type":"address","internalType":"address"},{"name":"_owner","type":"address","internalType":"address"}],"outputs":[],"stateMutability":"nonpayable"},{"type":"function","name":"initialize","inputs":[{"name":"initialOwner","type":"address","internalType":"address"}],"outputs":[],"stateMutability":"nonpayable"},{"type":"function","name":"initializeV2","inputs":[{"name":"_owner","type":"address","internalType":"address"},{"name":"_strategyTemplate","type":"address","internalType":"address"},{"name":"_collateralVaultTemplate","type":"address","internalType":"address"}],"outputs":[],"stateMutability":"nonpayable"},{"type":"function","name":"isCouncilMember","inputs":[{"name":"_member","type":"address","internalType":"address"}],"outputs":[{"name":"","type":"bool","internalType":"bool"}],"stateMutability":"view"},{"type":"function","name":"isKickEnabled","inputs":[],"outputs":[{"name":"","type":"bool","internalType":"bool"}],"stateMutability":"view"},{"type":"function","name":"isMember","inputs":[{"name":"_member","type":"address","internalType":"address"}],"outputs":[{"name":"_isMember","type":"bool","internalType":"bool"}],"stateMutability":"view"},{"type":"function","name":"kickMember","inputs":[{"name":"_member","type":"address","internalType":"address"},{"name":"_transferAddress","type":"address","internalType":"address"}],"outputs":[],"stateMutability":"nonpayable"},{"type":"function","name":"memberActivatedInStrategies","inputs":[{"name":"member","type":"address","internalType":"address"},{"name":"strategy","type":"address","internalType":"address"}],"outputs":[{"name":"isActivated","type":"bool","internalType":"bool"}],"stateMutability":"view"},{"type":"function","name":"memberPowerInStrategy","inputs":[{"name":"strategy","type":"address","internalType":"address"},{"name":"member","type":"address","internalType":"address"}],"outputs":[{"name":"power","type":"uint256","internalType":"uint256"}],"stateMutability":"view"},{"type":"function","name":"owner","inputs":[],"outputs":[{"name":"","type":"address","internalType":"address"}],"stateMutability":"view"},{"type":"function","name":"pendingCouncilSafe","inputs":[],"outputs":[{"name":"","type":"address","internalType":"address payable"}],"stateMutability":"view"},{"type":"function","name":"profileId","inputs":[],"outputs":[{"name":"","type":"bytes32","internalType":"bytes32"}],"stateMutability":"view"},{"type":"function","name":"proxiableUUID","inputs":[],"outputs":[{"name":"","type":"bytes32","internalType":"bytes32"}],"stateMutability":"view"},{"type":"function","name":"registerStakeAmount","inputs":[],"outputs":[{"name":"","type":"uint256","internalType":"uint256"}],"stateMutability":"view"},{"type":"function","name":"registry","inputs":[],"outputs":[{"name":"","type":"address","internalType":"contract IRegistry"}],"stateMutability":"view"},{"type":"function","name":"registryFactory","inputs":[],"outputs":[{"name":"","type":"address","internalType":"address"}],"stateMutability":"view"},{"type":"function","name":"removeStrategy","inputs":[{"name":"_strategy","type":"address","internalType":"address"}],"outputs":[],"stateMutability":"nonpayable"},{"type":"function","name":"removeStrategyByPoolId","inputs":[{"name":"poolId","type":"uint256","internalType":"uint256"}],"outputs":[],"stateMutability":"nonpayable"},{"type":"function","name":"renounceOwnership","inputs":[],"outputs":[],"stateMutability":"nonpayable"},{"type":"function","name":"renounceRole","inputs":[{"name":"role","type":"bytes32","internalType":"bytes32"},{"name":"account","type":"address","internalType":"address"}],"outputs":[],"stateMutability":"nonpayable"},{"type":"function","name":"revokeRole","inputs":[{"name":"role","type":"bytes32","internalType":"bytes32"},{"name":"account","type":"address","internalType":"address"}],"outputs":[],"stateMutability":"nonpayable"},{"type":"function","name":"setBasisStakedAmount","inputs":[{"name":"_newAmount","type":"uint256","internalType":"uint256"}],"outputs":[],"stateMutability":"nonpayable"},{"type":"function","name":"setCollateralVaultTemplate","inputs":[{"name":"template","type":"address","internalType":"address"}],"outputs":[],"stateMutability":"nonpayable"},{"type":"function","name":"setCommunityFee","inputs":[{"name":"_newCommunityFee","type":"uint256","internalType":"uint256"}],"outputs":[],"stateMutability":"nonpayable"},{"type":"function","name":"setCouncilSafe","inputs":[{"name":"_safe","type":"address","internalType":"address payable"}],"outputs":[],"stateMutability":"nonpayable"},{"type":"function","name":"setStrategyTemplate","inputs":[{"name":"template","type":"address","internalType":"address"}],"outputs":[],"stateMutability":"nonpayable"},{"type":"function","name":"stakeAndRegisterMember","inputs":[],"outputs":[],"stateMutability":"nonpayable"},{"type":"function","name":"strategiesByMember","inputs":[{"name":"member","type":"address","internalType":"address"},{"name":"","type":"uint256","internalType":"uint256"}],"outputs":[{"name":"strategiesAddresses","type":"address","internalType":"address"}],"stateMutability":"view"},{"type":"function","name":"strategyTemplate","inputs":[],"outputs":[{"name":"","type":"address","internalType":"address"}],"stateMutability":"view"},{"type":"function","name":"supportsInterface","inputs":[{"name":"_interfaceId","type":"bytes4","internalType":"bytes4"}],"outputs":[{"name":"","type":"bool","internalType":"bool"}],"stateMutability":"view"},{"type":"function","name":"transferOwnership","inputs":[{"name":"newOwner","type":"address","internalType":"address"}],"outputs":[],"stateMutability":"nonpayable"},{"type":"function","name":"unregisterMember","inputs":[],"outputs":[],"stateMutability":"nonpayable"},{"type":"function","name":"upgradeTo","inputs":[{"name":"newImplementation","type":"address","internalType":"address"}],"outputs":[],"stateMutability":"nonpayable"},{"type":"function","name":"upgradeToAndCall","inputs":[{"name":"newImplementation","type":"address","internalType":"address"},{"name":"data","type":"bytes","internalType":"bytes"}],"outputs":[],"stateMutability":"payable"},{"type":"event","name":"AdminChanged","inputs":[{"name":"previousAdmin","type":"address","indexed":false,"internalType":"address"},{"name":"newAdmin","type":"address","indexed":false,"internalType":"address"}],"anonymous":false},{"type":"event","name":"AlloSet","inputs":[{"name":"_allo","type":"address","indexed":false,"internalType":"address"}],"anonymous":false},{"type":"event","name":"BasisStakedAmountSet","inputs":[{"name":"_newAmount","type":"uint256","indexed":false,"internalType":"uint256"}],"anonymous":false},{"type":"event","name":"BeaconUpgraded","inputs":[{"name":"beacon","type":"address","indexed":true,"internalType":"address"}],"anonymous":false},{"type":"event","name":"CommunityFeeUpdated","inputs":[{"name":"_newFee","type":"uint256","indexed":false,"internalType":"uint256"}],"anonymous":false},{"type":"event","name":"CouncilSafeChangeStarted","inputs":[{"name":"_safeOwner","type":"address","indexed":false,"internalType":"address"},{"name":"_newSafeOwner","type":"address","indexed":false,"internalType":"address"}],"anonymous":false},{"type":"event","name":"CouncilSafeSet","inputs":[{"name":"_safe","type":"address","indexed":false,"internalType":"address"}],"anonymous":false},{"type":"event","name":"Initialized","inputs":[{"name":"version","type":"uint8","indexed":false,"internalType":"uint8"}],"anonymous":false},{"type":"event","name":"MemberActivatedStrategy","inputs":[{"name":"_member","type":"address","indexed":false,"internalType":"address"},{"name":"_strategy","type":"address","indexed":false,"internalType":"address"},{"name":"_pointsToIncrease","type":"uint256","indexed":false,"internalType":"uint256"}],"anonymous":false},{"type":"event","name":"MemberDeactivatedStrategy","inputs":[{"name":"_member","type":"address","indexed":false,"internalType":"address"},{"name":"_strategy","type":"address","indexed":false,"internalType":"address"}],"anonymous":false},{"type":"event","name":"MemberKicked","inputs":[{"name":"_member","type":"address","indexed":false,"internalType":"address"},{"name":"_transferAddress","type":"address","indexed":false,"internalType":"address"},{"name":"_amountReturned","type":"uint256","indexed":false,"internalType":"uint256"}],"anonymous":false},{"type":"event","name":"MemberPowerDecreased","inputs":[{"name":"_member","type":"address","indexed":false,"internalType":"address"},{"name":"_unstakedAmount","type":"uint256","indexed":false,"internalType":"uint256"}],"anonymous":false},{"type":"event","name":"MemberPowerIncreased","inputs":[{"name":"_member","type":"address","indexed":false,"internalType":"address"},{"name":"_stakedAmount","type":"uint256","indexed":false,"internalType":"uint256"}],"anonymous":false},{"type":"event","name":"MemberRegistered","inputs":[{"name":"_member","type":"address","indexed":false,"internalType":"address"},{"name":"_amountStaked","type":"uint256","indexed":false,"internalType":"uint256"}],"anonymous":false},{"type":"event","name":"MemberUnregistered","inputs":[{"name":"_member","type":"address","indexed":false,"internalType":"address"},{"name":"_amountReturned","type":"uint256","indexed":false,"internalType":"uint256"}],"anonymous":false},{"type":"event","name":"OwnershipTransferred","inputs":[{"name":"previousOwner","type":"address","indexed":true,"internalType":"address"},{"name":"newOwner","type":"address","indexed":true,"internalType":"address"}],"anonymous":false},{"type":"event","name":"PoolCreated","inputs":[{"name":"_poolId","type":"uint256","indexed":false,"internalType":"uint256"},{"name":"_strategy","type":"address","indexed":false,"internalType":"address"},{"name":"_community","type":"address","indexed":false,"internalType":"address"},{"name":"_token","type":"address","indexed":false,"internalType":"address"},{"name":"_metadata","type":"tuple","indexed":false,"internalType":"struct Metadata","components":[{"name":"protocol","type":"uint256","internalType":"uint256"},{"name":"pointer","type":"string","internalType":"string"}]}],"anonymous":false},{"type":"event","name":"RegistryInitialized","inputs":[{"name":"_profileId","type":"bytes32","indexed":false,"internalType":"bytes32"},{"name":"_communityName","type":"string","indexed":false,"internalType":"string"},{"name":"_metadata","type":"tuple","indexed":false,"internalType":"struct Metadata","components":[{"name":"protocol","type":"uint256","internalType":"uint256"},{"name":"pointer","type":"string","internalType":"string"}]}],"anonymous":false},{"type":"event","name":"RoleAdminChanged","inputs":[{"name":"role","type":"bytes32","indexed":true,"internalType":"bytes32"},{"name":"previousAdminRole","type":"bytes32","indexed":true,"internalType":"bytes32"},{"name":"newAdminRole","type":"bytes32","indexed":true,"internalType":"bytes32"}],"anonymous":false},{"type":"event","name":"RoleGranted","inputs":[{"name":"role","type":"bytes32","indexed":true,"internalType":"bytes32"},{"name":"account","type":"address","indexed":true,"internalType":"address"},{"name":"sender","type":"address","indexed":true,"internalType":"address"}],"anonymous":false},{"type":"event","name":"RoleRevoked","inputs":[{"name":"role","type":"bytes32","indexed":true,"internalType":"bytes32"},{"name":"account","type":"address","indexed":true,"internalType":"address"},{"name":"sender","type":"address","indexed":true,"internalType":"address"}],"anonymous":false},{"type":"event","name":"StrategyAdded","inputs":[{"name":"_strategy","type":"address","indexed":false,"internalType":"address"}],"anonymous":false},{"type":"event","name":"StrategyRemoved","inputs":[{"name":"_strategy","type":"address","indexed":false,"internalType":"address"}],"anonymous":false},{"type":"event","name":"Upgraded","inputs":[{"name":"implementation","type":"address","indexed":true,"internalType":"address"}],"anonymous":false},{"type":"error","name":"AddressCannotBeZero","inputs":[]},{"type":"error","name":"CallerNotOwner","inputs":[{"name":"_caller","type":"address","internalType":"address"},{"name":"_owner","type":"address","internalType":"address"}]},{"type":"error","name":"CantDecreaseMoreThanPower","inputs":[{"name":"_decreaseAmount","type":"uint256","internalType":"uint256"},{"name":"_currentPower","type":"uint256","internalType":"uint256"}]},{"type":"error","name":"DecreaseUnderMinimum","inputs":[]},{"type":"error","name":"KickNotEnabled","inputs":[]},{"type":"error","name":"NewFeeGreaterThanMax","inputs":[]},{"type":"error","name":"PointsDeactivated","inputs":[]},{"type":"error","name":"RegistryCannotBeZero","inputs":[]},{"type":"error","name":"SenderNotNewOwner","inputs":[]},{"type":"error","name":"SenderNotStrategy","inputs":[]},{"type":"error","name":"StrategyDisabled","inputs":[]},{"type":"error","name":"StrategyExists","inputs":[]},{"type":"error","name":"UserAlreadyActivated","inputs":[]},{"type":"error","name":"UserAlreadyDeactivated","inputs":[]},{"type":"error","name":"UserAlreadyRegistered","inputs":[]},{"type":"error","name":"UserNotGardenOwner","inputs":[]},{"type":"error","name":"UserNotInCouncil","inputs":[{"name":"_user","type":"address","internalType":"address"}]},{"type":"error","name":"UserNotInRegistry","inputs":[]},{"type":"error","name":"ValueCannotBeZero","inputs":[]}],"bytecode":{"object":"0x60a06040523060805234801561001457600080fd5b5060805161623b6200004d60003960008181611eed01528181611f300152818161202b0152818161206e01526121c0015261623b6000f3fe608060405260043610620003505760003560e01c806301ffc9a714620003555780630331383c14620003c757806308386eba14620003e85780630d12bbdb14620004005780630d4a8b491462000427578063175188e8146200044c5780631b71f0e414620004715780631f787d281462000496578063223e547914620004b157806322bcf99914620004d6578063248a9ca314620004fb57806328c309e914620005205780632b38c69c14620005385780632c3bb44a146200056c5780632c611c4a14620005915780632f2ff15d14620005cf57806331f61bca14620005f45780633396045914620006195780633419635514620006315780633517aa7d146200065657806336568abe146200066e5780633659cfe61462000693578063397e254314620006b85780633a871fe114620006dd578063477a5cc014620007125780634f1ef2861462000752578063524e59e8146200076957806352d1902d14620007ac578063559de05d14620007c4578063579eb7e514620007e95780635c94e4d2146200080e5780635ecf71c5146200083157806365e3864c14620008565780636871eb4d146200089357806368decabb14620008b85780636c53db9a14620008db578063715018a614620008fe57806373265c371462000916578063733a2d1f146200093b57806377122d5614620009605780637817ee4f146200098357806378a0b8a914620009a85780637b10399914620009c057806382d6a1e714620009e35780638659ffdd1462000a0857806388cfe6841462000a2d5780638961be6b1462000aa35780638da5cb5b1462000abb57806391d148541462000ad3578063a0cf0aea1462000af8578063a217fddf1462000b22578063a230c5241462000b39578063b0d3713a1462000b5e578063b3f006741462000b83578063b5058c501462000baa578063b64e39af1462000bc2578063b99b43701462000be9578063bc063e1a1462000c01578063c4d66de81462000c19578063c6d572ae1462000c3e578063d547741f1462000c56578063d6d8428d1462000c7b578063d7050f071462000c9e578063db61d65c1462000cb6578063e16d0e321462000cd9578063ebd7dc521462000cfe578063f2fde38b1462000d23578063f86c5f891462000d48578063ffa1ad741462000d6b575b600080fd5b3480156200036257600080fd5b50620003b26200037436600462004610565b6001600160e01b03191660009081527fc8fcad8db84d3cc18b4c41d551ea0ee66dd599cde068d998e57d5e09332c131e602052604090205460ff1690565b60405190151581526020015b60405180910390f35b348015620003d457600080fd5b5060fb545b604051908152602001620003be565b348015620003f557600080fd5b50620003d960fe5481565b3480156200040d57600080fd5b50620004256200041f3660046200463c565b62000d99565b005b3480156200043457600080fd5b5062000425620004463660046200467e565b62000e0f565b3480156200045957600080fd5b50620004256200046b366004620046bc565b62001192565b3480156200047e57600080fd5b506200042562000490366004620046bc565b620011aa565b348015620004a357600080fd5b5060ff8054620003b2911681565b348015620004be57600080fd5b5062000425620004d0366004620046bc565b620011d7565b348015620004e357600080fd5b5062000425620004f53660046200467e565b620011ec565b3480156200050857600080fd5b50620003d96200051a3660046200463c565b620012e6565b3480156200052d57600080fd5b50620003d9620012fb565b3480156200054557600080fd5b506200055d62000557366004620046dc565b62001400565b604051620003be919062004718565b3480156200057957600080fd5b50620004256200058b3660046200472c565b6200143a565b3480156200059e57600080fd5b50620003d9620005b0366004620046bc565b6001600160a01b0316600090815261010c602052604090206001015490565b348015620005dc57600080fd5b5062000425620005ee3660046200477e565b62001537565b3480156200060157600080fd5b5062000425620006133660046200463c565b6200155e565b3480156200062657600080fd5b50620003d960fd5481565b3480156200063e57600080fd5b5062000425620006503660046200498e565b6200159e565b3480156200066357600080fd5b506200042562001c03565b3480156200067b57600080fd5b50620004256200068d3660046200477e565b62001e65565b348015620006a057600080fd5b5062000425620006b2366004620046bc565b62001ee3565b348015620006c557600080fd5b5062000425620006d7366004620046bc565b62001fb4565b348015620006ea57600080fd5b50620003b2620006fc366004620046bc565b61010a6020526000908152604090205460ff1681565b3480156200071f57600080fd5b50620003b2620007313660046200467e565b61010e60209081526000928352604080842090915290825290205460ff1681565b620004256200076336600462004b21565b62002021565b3480156200077657600080fd5b506200078e6200078836600462004da5565b620020e2565b604080519283526001600160a01b03909116602083015201620003be565b348015620007b957600080fd5b50620003d9620021b3565b348015620007d157600080fd5b5062000425620007e33660046200463c565b62002264565b348015620007f657600080fd5b506200078e6200080836600462004f86565b620024b0565b3480156200081b57600080fd5b50610102546200055d906001600160a01b031681565b3480156200083e57600080fd5b5062000425620008503660046200463c565b62002718565b3480156200086357600080fd5b50620003d9620008753660046200467e565b61010b60209081526000928352604080842090915290825290205481565b348015620008a057600080fd5b5062000425620008b23660046200467e565b62002ab2565b348015620008c557600080fd5b50610103546200055d906001600160a01b031681565b348015620008e857600080fd5b50610106546200055d906001600160a01b031681565b3480156200090b57600080fd5b506200042562002c05565b3480156200092357600080fd5b5062000425620009353660046200463c565b62002c1b565b3480156200094857600080fd5b50620003d96000805160206200615f83398151915281565b3480156200096d57600080fd5b50610101546200055d906001600160a01b031681565b3480156200099057600080fd5b50620003d9620009a23660046200467e565b62002cb7565b348015620009b557600080fd5b50620003d960fb5481565b348015620009cd57600080fd5b50610104546200055d906001600160a01b031681565b348015620009f057600080fd5b506200042562000a023660046200463c565b62002ce5565b34801562000a1557600080fd5b506200078e62000a2736600462004ffa565b62002da3565b34801562000a3a57600080fd5b5062000a7b62000a4c366004620046bc565b61010c602052600090815260409020805460018201546002909201546001600160a01b03909116919060ff1683565b604080516001600160a01b0390941684526020840192909252151590820152606001620003be565b34801562000ab057600080fd5b50620003d960fc5481565b34801562000ac857600080fd5b506200055d62002f30565b34801562000ae057600080fd5b50620003b262000af23660046200477e565b62002fcb565b34801562000b0557600080fd5b506200055d73eeeeeeeeeeeeeeeeeeeeeeeeeeeeeeeeeeeeeeee81565b34801562000b2f57600080fd5b50620003d9600081565b34801562000b4657600080fd5b50620003b262000b58366004620046bc565b62002ff6565b34801562000b6b57600080fd5b506200042562000b7d366004620046bc565b62003040565b34801562000b9057600080fd5b5060ff546200055d9061010090046001600160a01b031681565b34801562000bb757600080fd5b50620004256200306d565b34801562000bcf57600080fd5b5062000bda620030a4565b604051620003be9190620050e1565b34801562000bf657600080fd5b50620004256200313b565b34801562000c0e57600080fd5b50620003d962003245565b34801562000c2657600080fd5b506200042562000c38366004620046bc565b62003257565b34801562000c4b57600080fd5b5062000bda6200328c565b34801562000c6357600080fd5b506200042562000c753660046200477e565b6200329c565b34801562000c8857600080fd5b50610107546200055d906001600160a01b031681565b34801562000cab57600080fd5b50620003d961271081565b34801562000cc357600080fd5b50610105546200055d906001600160a01b031681565b34801562000ce657600080fd5b506200078e62000cf8366004620050f6565b620032be565b34801562000d0b57600080fd5b50620003b262000d1d366004620046bc565b6200337f565b34801562000d3057600080fd5b506200042562000d42366004620046bc565b6200339c565b34801562000d5557600080fd5b50610100546200055d906001600160a01b031681565b34801562000d7857600080fd5b50604080518082019091526003815262302e3160e81b602082015262000bda565b62000da36200340d565b62000db2612710600a6200517f565b81111562000dd35760405163fe925f7d60e01b815260040160405180910390fd5b60fc8190556040518181527f611668bfcf654a99c33cdb66c29ec37a5aae5c1287d2d9715a24e18cb4d806d6906020015b60405180910390a150565b62000e196200344a565b62000e2482620034a5565b62000e2f81620034ce565b62000e3a8162003509565b6001600160a01b03808316600090815261010e602090815260408083209385168352929052205460ff161562000e8357604051636adcde4b60e11b815260040160405180910390fd5b6001600160a01b03808316600090815261010c602090815260409182902082516060810184528154909416845260018101549184018290526002015460ff1615159183019190915260fb546003846001600160a01b031663c32921716040518163ffffffff1660e01b81526004016020604051808303816000875af115801562000f11573d6000803e3d6000fd5b505050506040513d601f19601f8201168201806040525081019062000f379190620051af565b600381111562000f4b5762000f4b62005199565b0362000fd05760405163782aadff60e01b81526001600160a01b0385169063782aadff9062000f82908890600090600401620051cf565b6020604051808303816000875af115801562000fa2573d6000803e3d6000fd5b505050506040513d601f19601f8201168201806040525081019062000fc89190620051e8565b9050620010cc565b6000846001600160a01b031663c32921716040518163ffffffff1660e01b81526004016020604051808303816000875af115801562001013573d6000803e3d6000fd5b505050506040513d601f19601f82011682018060405250810190620010399190620051af565b60038111156200104d576200104d62005199565b14620010cc5760405163782aadff60e01b81526001600160a01b0385169063782aadff90620010839088908690600401620051cf565b6020604051808303816000875af1158015620010a3573d6000803e3d6000fd5b505050506040513d601f19601f82011682018060405250810190620010c99190620051e8565b90505b6001600160a01b03808616600081815261010b6020908152604080832094891680845294825280832086905583835261010e82528083208584528252808320805460ff1916600190811790915593835261010d8252808320805494850181558352912090910180546001600160a01b031916909217909155517ff56fa57e85e169a12200d12d9921ec069b52e688f6d309d9dab7bceff54614ec90620011789087908790859062005202565b60405180910390a15050506200118e6001606555565b5050565b6200119c6200340d565b620011a78162003538565b50565b620011b462003596565b61010280546001600160a01b0319166001600160a01b0392909216919091179055565b620011e16200340d565b620011a781620035f9565b620011f782620034a5565b620012028162003509565b6200120e33826200368b565b6001600160a01b03808316600090815261010e602090815260408083209385168352929052205460ff166200125657604051633048da7760e21b815260040160405180910390fd5b6001600160a01b03808316600081815261010e60209081526040808320948616808452948252808320805460ff1916905592825261010b815282822093825292909252812055620012a88282620036be565b7ede109bef4619f7e2cf00c8e5a50ca55f8deb44f87087eed414a91dbf8d1d1b8282604051620012da92919062005226565b60405180910390a15050565b600090815260c9602052604090206001015490565b610100546000906001600160a01b0316816200131b61271060646200517f565b60fc5460fb546200132d91906200517f565b62001339919062005240565b905060006200134c61271060646200517f565b6040516302a64b8360e21b81526001600160a01b03851690630a992e0c906200137a90309060040162004718565b602060405180830381865afa15801562001398573d6000803e3d6000fd5b505050506040513d601f19601f82011682018060405250810190620013be9190620051e8565b60fb54620013cd91906200517f565b620013d9919062005240565b9050808260fb54620013ec919062005263565b620013f8919062005263565b935050505090565b61010d60205281600052604060002081815481106200141e57600080fd5b6000918252602090912001546001600160a01b03169150829050565b600054600290610100900460ff161580156200145d575060005460ff8083169116105b620014855760405162461bcd60e51b81526004016200147c9062005279565b60405180910390fd5b6000805461ffff191660ff831617610100179055620014a362003596565b620014ae8462003509565b620014b98362003509565b620014c48262003509565b620014cf846200339c565b61010280546001600160a01b038581166001600160a01b0319928316179092556101018054928516929091169190911790556000805461ff001916905560405160ff82168152600080516020620061bf8339815191529060200160405180910390a150505050565b6200154282620012e6565b6200154d81620037f4565b62001559838362003800565b505050565b620015686200340d565b60fb8190556040518181527f5bcc2c453001fb0e2ba6266d56ecb411e7c6e15c8f9c3d301f93dd36ad25726f9060200162000e04565b600054610100900460ff1615808015620015bf5750600054600160ff909116105b80620015e45750620015d1306200388a565b158015620015e4575060005460ff166001145b620016035760405162461bcd60e51b81526004016200147c9062005279565b6000805460ff19166001179055801562001627576000805461ff0019166101001790555b620016328262003257565b6200163c62003899565b62001646620038cd565b620016626000805160206200615f8339815191526000620038f7565b62001671856020015162003509565b6200168185610100015162003509565b84516200168e9062003509565b6200169d8560a0015162003509565b606085015115620016b757620016b78560c0015162003509565b845161010780546001600160a01b039283166001600160a01b03199182161790915560208701516101058054919093169116179055604085015160000362001712576040516363868c5560e11b815260040160405180910390fd5b604085015160fb55606085015160fc5561014085015160ff805460ff1916911515919091179055610120850151610108906200174f908262005355565b506101608501516101099062001766908262005355565b5060a085015161010080546001600160a01b03199081166001600160a01b0393841617825560c088015160ff8054610100600160a81b0319169185168402919091179055908701516101068054909216928116929092179055620017db906000805160206200615f8339815191529062003800565b61010760009054906101000a90046001600160a01b03166001600160a01b0316635ab1bd536040518163ffffffff1660e01b8152600401602060405180830381865afa15801562001830573d6000803e3d6000fd5b505050506040513d601f19601f8201168201806040525081019062001856919062005421565b61010480546001600160a01b0319166001600160a01b0392831617905561010654606091163b600003620018e2576040805160038082526080820190925290602082016060803683370190505090503381600081518110620018bc57620018bc62005441565b60200260200101906001600160a01b031690816001600160a01b03168152505062001a1f565b610106546040805163a0e67e2b60e01b815290516000926001600160a01b03169163a0e67e2b91600480830192869291908290030181865afa1580156200192d573d6000803e3d6000fd5b505050506040513d6000823e601f3d908101601f1916820160405262001957919081019062005457565b90508051600262001969919062005263565b6001600160401b03811115620019835762001983620047a6565b604051908082528060200260200182016040528015620019ad578160200160208202803683370190505b50915060005b815181101562001a1c57818181518110620019d257620019d262005441565b6020026020010151838281518110620019ef57620019ef62005441565b6001600160a01b03909216602092830291909101909101528062001a1381620054f0565b915050620019b3565b50505b6101065481516001600160a01b0390911690829062001a41906001906200550c565b8151811062001a545762001a5462005441565b60200260200101906001600160a01b031690816001600160a01b03168152505030816002835162001a8691906200550c565b8151811062001a995762001a9962005441565b6001600160a01b03928316602091820292909201015261010454608088015160e0890151604051633a92f65f60e01b81529290931692633a92f65f9262001aec929161010891309088906004016200560e565b6020604051808303816000875af115801562001b0c573d6000803e3d6000fd5b505050506040513d601f19601f8201168201806040525081019062001b329190620051e8565b60fe55805162001b4b9061010f9060208401906200456a565b5061010280546001600160a01b038088166001600160a01b03199283161790925561010180549287169290911691909117905560fe5460e08701516040517f2f2ffcb06f8a1d35e2716f6b43ef2c19bfa76467d8f66964ae12c2583ed032059262001bbd92909161010891906200566e565b60405180910390a150801562001bfc576000805461ff001916905560405160018152600080516020620061bf8339815191529060200160405180910390a15b5050505050565b62001c0d6200344a565b33600081815261010c602052604081206101005490916001600160a01b039091169062001c3e61271060646200517f565b60fc5460fb5462001c5091906200517f565b62001c5c919062005240565b9050600062001c6f61271060646200517f565b6040516302a64b8360e21b81526001600160a01b03851690630a992e0c9062001c9d90309060040162004718565b602060405180830381865afa15801562001cbb573d6000803e3d6000fd5b505050506040513d601f19601f8201168201806040525081019062001ce19190620051e8565b60fb5462001cf091906200517f565b62001cfc919062005240565b905062001d098562002ff6565b62001e535760028401805460ff1916600190811790915560fb5490850181905562001d639086903090849062001d4190879062005263565b62001d4d919062005263565b610105546001600160a01b03169291906200394c565b811562001d905760ff546101055462001d90916001600160a01b03918216916101009091041684620039a8565b801562001e155762001e15836001600160a01b031663987435be6040518163ffffffff1660e01b8152600401602060405180830381865afa15801562001dda573d6000803e3d6000fd5b505050506040513d601f19601f8201168201806040525081019062001e00919062005421565b610105546001600160a01b03169083620039a8565b7f67e0244e28040fec15240cd4b6c04c776a2a0278caef23b59e8ada1df31f76898560fb5460405162001e4a929190620051cf565b60405180910390a15b505050505062001e636001606555565b565b6001600160a01b038116331462001ed75760405162461bcd60e51b815260206004820152602f60248201527f416363657373436f6e74726f6c3a2063616e206f6e6c792072656e6f756e636560448201526e103937b632b9903337b91039b2b63360891b60648201526084016200147c565b6200118e8282620039ca565b6001600160a01b037f000000000000000000000000000000000000000000000000000000000000000016300362001f2e5760405162461bcd60e51b81526004016200147c906200569d565b7f00000000000000000000000000000000000000000000000000000000000000006001600160a01b031662001f6262003a34565b6001600160a01b03161462001f8b5760405162461bcd60e51b81526004016200147c90620056d8565b62001f968162003a51565b60408051600080825260208201909252620011a79183919062003a93565b62001fbe6200340d565b62001fc98162003509565b61010380546001600160a01b0319166001600160a01b03838116918217909255610106546040517f83eac9fdaff0ac1017624b7eddeb9782e3d707cd894073cb7e8301a41c6e5cf89362000e04939216919062005226565b6001600160a01b037f00000000000000000000000000000000000000000000000000000000000000001630036200206c5760405162461bcd60e51b81526004016200147c906200569d565b7f00000000000000000000000000000000000000000000000000000000000000006001600160a01b0316620020a062003a34565b6001600160a01b031614620020c95760405162461bcd60e51b81526004016200147c90620056d8565b620020d48262003a51565b6200118e8282600162003a93565b610102546101075461010154600092839283926001600160a01b039283169263184b955960e01b92811691166200211862002f30565b6040516024016200212c9392919062005713565b60408051601f198184030181529181526020820180516001600160e01b03166001600160e01b03199094169390931790925290516200216b90620045d0565b6200217892919062005736565b604051809103906000f08015801562002195573d6000803e3d6000fd5b509050620021a681878787620032be565b9250925050935093915050565b6000306001600160a01b037f00000000000000000000000000000000000000000000000000000000000000001614620022505760405162461bcd60e51b815260206004820152603860248201527f555550535570677261646561626c653a206d757374206e6f742062652063616c6044820152771b1959081d1a1c9bdd59da0819195b1959d85d1958d85b1b60421b60648201526084016200147c565b506000805160206200619f83398151915290565b6200226e6200344a565b6200227862003c0b565b33600081815261010d6020908152604080832080548251818502810185019093528083529192909190830182828015620022dc57602002820191906000526020600020905b81546001600160a01b03168152600190910190602001808311620022bd575b50505050509050600080600090505b825181101562002417578281815181106200230a576200230a62005441565b60200260200101516001600160a01b031663782aadff85876040518363ffffffff1660e01b815260040162002341929190620051cf565b6020604051808303816000875af115801562002361573d6000803e3d6000fd5b505050506040513d601f19601f82011682018060405250810190620023879190620051e8565b9150811562002402576001600160a01b038416600090815261010b602052604081208451849290869085908110620023c357620023c362005441565b60200260200101516001600160a01b03166001600160a01b031681526020019081526020016000206000828254620023fc919062005263565b90915550505b806200240e81620054f0565b915050620022eb565b506101055462002433906001600160a01b03168430876200394c565b6001600160a01b038316600090815261010c6020526040812060010180548692906200246190849062005263565b90915550506040517f576605f9bfe8911e7508bed3763c7c5c8eb3b86e8b360b90a4bc6abe1104cb7f906200249a9085908790620051cf565b60405180910390a1505050620011a76001606555565b610102546101075461010154600092839283926001600160a01b039283169263184b955960e01b9281169116620024e662002f30565b604051602401620024fa9392919062005713565b60408051601f198184030181529181526020820180516001600160e01b03166001600160e01b03199094169390931790925290516200253990620045d0565b6200254692919062005736565b604051809103906000f08015801562002563573d6000803e3d6000fd5b509050620025748187878762002da3565b60c087015191945092506001600160a01b03166200267f576103e88560e00151511115620025fd5760405162461bcd60e51b815260206004820152602f60248201527f546f6f206d616e7920696e697469616c20616c6c6f776c697374206d656d626560448201526e072732c206d6178206973203130303608c1b60648201526084016200147c565b6000836040516020016200261291906200575c565b60405160208183030381529060405280519060200120905060005b8660e00151518110156200267c5762002667828860e00151838151811062002659576200265962005441565b602002602001015162003800565b806200267381620054f0565b9150506200262d565b50505b620026db836040516020016200269691906200575c565b6040516020818303038152906040528051906020012084604051602001620026bf919062005779565b60405160208183030381529060405280519060200120620038f7565b6200270f83604051602001620026f2919062005779565b604051602081830303815290604052805190602001208362003800565b50935093915050565b620027226200344a565b6200272c62003c0b565b33600081815261010d6020908152604080832060fb5461010c9093529083206001015490929190620027609086906200550c565b10156200278057604051634e23e81760e11b815260040160405180910390fd5b610105546200279a906001600160a01b03168486620039a8565b60005b825481101562002a4a576000838281548110620027be57620027be62005441565b6000918252602090912001546001600160a01b03169050620027e88163f1801e6160e01b62003c34565b156200296e57604051632ed04b2b60e01b81526001600160a01b03821690632ed04b2b906200281e9088908a90600401620051cf565b6020604051808303816000875af11580156200283e573d6000803e3d6000fd5b505050506040513d601f19601f82011682018060405250810190620028649190620051e8565b9250600061010b6000876001600160a01b03166001600160a01b031681526020019081526020016000206000868581548110620028a557620028a562005441565b60009182526020808320909101546001600160a01b03168352820192909252604001902054905080841115620028f9576040516311423e6360e31b815260048101859052602481018290526044016200147c565b6001600160a01b038616600090815261010b6020526040812086548692908890879081106200292c576200292c62005441565b60009182526020808320909101546001600160a01b0316835282019290925260400181208054909190620029629084906200550c565b90915550505062002a34565b8354849062002980906001906200550c565b8154811062002993576200299362005441565b9060005260206000200160009054906101000a90046001600160a01b0316848381548110620029c657620029c662005441565b9060005260206000200160006101000a8154816001600160a01b0302191690836001600160a01b031602179055508380548062002a075762002a076200579c565b600082815260209020810160001990810180546001600160a01b031916905501905562002a348162003538565b508062002a4181620054f0565b9150506200279d565b506001600160a01b038316600090815261010c60205260408120600101805486929062002a799084906200550c565b90915550506040517f6ee2c70b2d6b89ae808a2313aab43e925c06624271419cd665d85cfa1ae04ff8906200249a9085908790620051cf565b62002abc6200344a565b62002ac66200340d565b60ff80541662002ae9576040516365b1ee3960e11b815260040160405180910390fd5b62002af48262002ff6565b62002b1257604051636a5cfb6d60e01b815260040160405180910390fd5b6001600160a01b03808316600090815261010c60209081526040918290208251606081018452815490941684526001810154918401919091526002015460ff1615159082015262002b638362003c5c565b6001600160a01b03808416600090815261010c60209081526040822080546001600160a01b031916815560018101929092556002909101805460ff191690558201516101055462002bb89216908490620039a8565b7fb5946f249f8744efe9d14d49a483b54a589b1362944ff6694de93456cceb96a38383836020015160405162002bf19392919062005202565b60405180910390a1506200118e6001606555565b62002c0f62003596565b62001e63600062003d71565b62002c256200340d565b6101075460405163068bcd8d60e01b8152600481018390526000916001600160a01b03169063068bcd8d90602401600060405180830381865afa15801562002c71573d6000803e3d6000fd5b505050506040513d6000823e601f3d908101601f1916820160405262002c9b9190810190620057b2565b60200151905062002cac8162003509565b6200118e8162003538565b6001600160a01b03808316600090815261010b60209081526040808320938516835292905220545b92915050565b62002cef6200340d565b6101075460405163068bcd8d60e01b8152600481018390526000916001600160a01b03169063068bcd8d90602401600060405180830381865afa15801562002d3b573d6000803e3d6000fd5b505050506040513d6000823e601f3d908101601f1916820160405262002d659190810190620057b2565b60200151905062002d768162003509565b62002d926001600160a01b03821663f1801e6160e01b62003c34565b156200118e576200118e81620035f9565b60008073eeeeeeeeeeeeeeeeeeeeeeeeeeeeeeeeeeeeeeee6001600160a01b0386161562002dce5750845b869150600061010f80548060200260200160405190810160405280929190818152602001828054801562002e2c57602002820191906000526020600020905b81546001600160a01b0316815260019091019060200180831162002e0d575b50506101075460fe546040519596506001600160a01b039091169463e1007d4a945090925087915062002e64908b906020016200597d565b6040516020818303038152906040528660008b886040518863ffffffff1660e01b815260040162002e9c979695949392919062005a26565b6020604051808303816000875af115801562002ebc573d6000803e3d6000fd5b505050506040513d601f19601f8201168201806040525081019062002ee29190620051e8565b93507f778cac0ae0b66477341553a4a89398c61ccf448313d3354ad0ca85a5a825d2838484308a8960405162002f1d95949392919062005a97565b60405180910390a1505094509492505050565b60008062002f466033546001600160a01b031690565b9050806001600160a01b03163b60000362002f6057919050565b806001600160a01b0316638da5cb5b6040518163ffffffff1660e01b8152600401602060405180830381865afa92505050801562002fbd575060408051601f3d908101601f1916820190925262002fba9181019062005421565b60015b62002cdf57919050565b5090565b600091825260c9602090815260408084206001600160a01b0393909316845291905290205460ff1690565b6001600160a01b03908116600090815261010c60209081526040918290208251606081018452815490941684526001810154918401919091526002015460ff161515910181905290565b6200304a62003596565b61010180546001600160a01b0319166001600160a01b0392909216919091179055565b610103546001600160a01b031633146200309a576040516375e686b760e11b815260040160405180910390fd5b62001e6362003dc3565b6101098054620030b490620052c7565b80601f0160208091040260200160405190810160405280929190818152602001828054620030e290620052c7565b8015620031335780601f10620031075761010080835404028352916020019162003133565b820191906000526020600020905b8154815290600101906020018083116200311557829003601f168201915b505050505081565b620031456200344a565b336200315181620034a5565b6200315c8162003c5c565b6001600160a01b03808216600081815261010c602090815260408083208151606081018352815496871681526001820180548286015260028301805460ff81161515848701529787526001600160a01b03199098169092559084905560ff1990941690945561010d90529182209091620031d79190620045de565b602081015161010554620031f9916001600160a01b03909116908490620039a8565b7fa13f4668aacb68c4e9eed8e3f6e1cbec3eca776896ec46b5eabcc3983fc8f5f482826020015160405162003230929190620051cf565b60405180910390a1505062001e636001606555565b62003254612710600a6200517f565b81565b600054610100900460ff16620032815760405162461bcd60e51b81526004016200147c9062005ad3565b620011a78162003d71565b6101088054620030b490620052c7565b620032a782620012e6565b620032b281620037f4565b620015598383620039ca565b60008073eeeeeeeeeeeeeeeeeeeeeeeeeeeeeeeeeeeeeeee6001600160a01b03861615620032e95750845b869150600061010f8054806020026020016040519081016040528092919081815260200182805480156200334757602002820191906000526020600020905b81546001600160a01b0316815260019091019060200180831162003328575b50506101075460fe546040519596506001600160a01b039091169463e1007d4a945090925087915062002e64908b9060200162005b1e565b600062002cdf6000805160206200615f8339815191528362002fcb565b620033a662003596565b6001600160a01b038116620032815760405162461bcd60e51b815260206004820152602660248201527f4f776e61626c653a206e6577206f776e657220697320746865207a65726f206160448201526564647265737360d01b60648201526084016200147c565b620034286000805160206200615f8339815191523362002fcb565b62001e63573360405163fc4be72f60e01b81526004016200147c919062004718565b6002606554036200349e5760405162461bcd60e51b815260206004820152601f60248201527f5265656e7472616e637947756172643a207265656e7472616e742063616c6c0060448201526064016200147c565b6002606555565b620034b08162002ff6565b620011a757604051636a5cfb6d60e01b815260040160405180910390fd5b6001600160a01b038116600090815261010a602052604090205460ff16620011a7576040516346c26e4b60e01b815260040160405180910390fd5b6001600160a01b038116620011a7576040516303988b8160e61b815260040160405180910390fd5b6001606555565b620035438162003509565b6001600160a01b038116600090815261010a602052604090819020805460ff19169055517f09a1db4b80c32706328728508c941a6b954f31eb5affd32f236c1fd405f8fea49062000e0490839062004718565b33620035a162002f30565b6001600160a01b03161462001e635760405162461bcd60e51b815260206004820181905260248201527f4f776e61626c653a2063616c6c6572206973206e6f7420746865206f776e657260448201526064016200147c565b6001600160a01b038116600090815261010a602052604090205460ff161562003635576040516325a2934b60e21b815260040160405180910390fd5b6001600160a01b038116600090815261010a602052604090819020805460ff19166001179055517f3f008fd510eae7a9e7bee13513d7b83bef8003d488b5a3d0b0da4de71d6846f19062000e0490839062004718565b806001600160a01b0316826001600160a01b0316146200118e5760405163bbe7961160e01b815260040160405180910390fd5b6001600160a01b038216600090815261010d60205260408120905b8154811015620037ee57826001600160a01b031682828154811062003702576200370262005441565b6000918252602090912001546001600160a01b031603620037d957815482906200372f906001906200550c565b8154811062003742576200374262005441565b9060005260206000200160009054906101000a90046001600160a01b031682828154811062003775576200377562005441565b9060005260206000200160006101000a8154816001600160a01b0302191690836001600160a01b0316021790555081805480620037b657620037b66200579c565b600082815260209020810160001990810180546001600160a01b03191690550190555b80620037e581620054f0565b915050620036d9565b50505050565b620011a7813362003e27565b6200380c828262002fcb565b6200118e57600082815260c9602090815260408083206001600160a01b03851684529091529020805460ff19166001179055620038463390565b6001600160a01b0316816001600160a01b0316837f2f8788117e7eff1d82e926ec794901d17c78024a50270940304540a733656f0d60405160405180910390a45050565b6001600160a01b03163b151590565b600054610100900460ff16620038c35760405162461bcd60e51b81526004016200147c9062005ad3565b62001e6362003e8b565b600054610100900460ff1662001e635760405162461bcd60e51b81526004016200147c9062005ad3565b60006200390483620012e6565b600084815260c96020526040808220600101859055519192508391839186917fbd79b86ffe0ab8e8776151514217cd7cacd52c909f66475c3af44e129f0b00ff9190a4505050565b620037ee846323b872dd60e01b858585604051602401620039709392919062005202565b60408051601f198184030181529190526020810180516001600160e01b03166001600160e01b03199093169290921790915262003eb5565b620015598363a9059cbb60e01b848460405160240162003970929190620051cf565b620039d6828262002fcb565b156200118e57600082815260c9602090815260408083206001600160a01b0385168085529252808320805460ff1916905551339285917ff6391f5c32d9c69d2a47ea670b442974b53935d1edc7fd64eb21e047a839171b9190a45050565b6000805160206200619f833981519152546001600160a01b031690565b3362003a5c62002f30565b6001600160a01b031614620011a7573362003a7662002f30565b60405163163678e960e01b81526004016200147c92919062005226565b7f4910fdfa16fed3260ed0e7147f7cc6da11a60208b5b9406d12a635614ffd91435460ff161562003ac957620015598362003f91565b826001600160a01b03166352d1902d6040518163ffffffff1660e01b8152600401602060405180830381865afa92505050801562003b26575060408051601f3d908101601f1916820190925262003b2391810190620051e8565b60015b62003b8b5760405162461bcd60e51b815260206004820152602e60248201527f45524331393637557067726164653a206e657720696d706c656d656e7461746960448201526d6f6e206973206e6f74205555505360901b60648201526084016200147c565b6000805160206200619f833981519152811462003bfd5760405162461bcd60e51b815260206004820152602960248201527f45524331393637557067726164653a20756e737570706f727465642070726f786044820152681a58589b195555525160ba1b60648201526084016200147c565b506200155983838362004030565b62003c163362002ff6565b62001e6357604051636a5cfb6d60e01b815260040160405180910390fd5b600062003c41836200405b565b801562003c55575062003c55838362004093565b9392505050565b6001600160a01b038116600090815261010d602090815260408083208054825181850281018501909352808352919290919083018282801562003cc957602002820191906000526020600020905b81546001600160a01b0316815260019091019060200180831162003caa575b5050505050905060005b8151811015620015595781818151811062003cf25762003cf262005441565b60200260200101516001600160a01b0316636453d9c4846040518263ffffffff1660e01b815260040162003d27919062004718565b600060405180830381600087803b15801562003d4257600080fd5b505af115801562003d57573d6000803e3d6000fd5b50505050808062003d6890620054f0565b91505062003cd3565b603380546001600160a01b038381166001600160a01b0319831681179093556040519116919082907f8be0079c531659141344cd1fd0a4f28419497f9722a3daafe3b4186f6b6457e090600090a35050565b610103805461010680546001600160a01b03199081166001600160a01b038416179091551690556040517fad0399dc40331b9a4977aa89da7a164a3fd482c65e6da73b25a94ea74fb688729062003e1d9060009062004718565b60405180910390a1565b62003e33828262002fcb565b6200118e5762003e43816200411e565b62003e5083602062004131565b60405160200162003e6392919062005ba7565b60408051601f198184030181529082905262461bcd60e51b82526200147c91600401620050e1565b600054610100900460ff16620035315760405162461bcd60e51b81526004016200147c9062005ad3565b600062003f0c826040518060400160405280602081526020017f5361666545524332303a206c6f772d6c6576656c2063616c6c206661696c6564815250856001600160a01b0316620042ea9092919063ffffffff16565b905080516000148062003f3057508080602001905181019062003f30919062005c1a565b620015595760405162461bcd60e51b815260206004820152602a60248201527f5361666545524332303a204552433230206f7065726174696f6e20646964206e6044820152691bdd081cdd58d8d9595960b21b60648201526084016200147c565b62003f9c816200388a565b620040005760405162461bcd60e51b815260206004820152602d60248201527f455243313936373a206e657720696d706c656d656e746174696f6e206973206e60448201526c1bdd08184818dbdb9d1c9858dd609a1b60648201526084016200147c565b6000805160206200619f83398151915280546001600160a01b0319166001600160a01b0392909216919091179055565b6200403b8362004303565b600082511180620040495750805b156200155957620037ee838362004345565b600062004070826301ffc9a760e01b62004093565b801562002cdf57506200408c826001600160e01b031962004093565b1592915050565b604080516001600160e01b03198316602480830191909152825180830390910181526044909101909152602080820180516001600160e01b03166301ffc9a760e01b178152825160009392849283928392918391908a617530fa92503d9150600051905082801562004106575060208210155b8015620041135750600081115b979650505050505050565b606062002cdf6001600160a01b03831660145b60606000620041428360026200517f565b6200414f90600262005263565b6001600160401b03811115620041695762004169620047a6565b6040519080825280601f01601f19166020018201604052801562004194576020820181803683370190505b509050600360fc1b81600081518110620041b257620041b262005441565b60200101906001600160f81b031916908160001a905350600f60fb1b81600181518110620041e457620041e462005441565b60200101906001600160f81b031916908160001a90535060006200420a8460026200517f565b6200421790600162005263565b90505b600181111562004299576f181899199a1a9b1b9c1cb0b131b232b360811b85600f16601081106200424f576200424f62005441565b1a60f81b82828151811062004268576200426862005441565b60200101906001600160f81b031916908160001a90535060049490941c93620042918162005c3a565b90506200421a565b50831562003c555760405162461bcd60e51b815260206004820181905260248201527f537472696e67733a20686578206c656e67746820696e73756666696369656e7460448201526064016200147c565b6060620042fb84846000856200436d565b949350505050565b6200430e8162003f91565b6040516001600160a01b038216907fbc7cd75a20ee27fd9adebab32041f755214dbc6bffa90cc0225b39da2e5c2d3b90600090a250565b606062003c558383604051806060016040528060278152602001620061df6027913962004445565b606082471015620043d05760405162461bcd60e51b815260206004820152602660248201527f416464726573733a20696e73756666696369656e742062616c616e636520666f6044820152651c8818d85b1b60d21b60648201526084016200147c565b600080866001600160a01b03168587604051620043ee919062005c54565b60006040518083038185875af1925050503d80600081146200442d576040519150601f19603f3d011682016040523d82523d6000602084013e62004432565b606091505b50915091506200411387838387620044c3565b6060600080856001600160a01b03168560405162004464919062005c54565b600060405180830381855af49150503d8060008114620044a1576040519150601f19603f3d011682016040523d82523d6000602084013e620044a6565b606091505b5091509150620044b986838387620044c3565b9695505050505050565b60608315620045375782516000036200452f57620044e1856200388a565b6200452f5760405162461bcd60e51b815260206004820152601d60248201527f416464726573733a2063616c6c20746f206e6f6e2d636f6e747261637400000060448201526064016200147c565b5081620042fb565b620042fb83838151156200454e5781518083602001fd5b8060405162461bcd60e51b81526004016200147c9190620050e1565b828054828255906000526020600020908101928215620045c2579160200282015b82811115620045c257825182546001600160a01b0319166001600160a01b039091161782556020909201916001909101906200458b565b5062002fc7929150620045f9565b6104ec8062005c7383390190565b5080546000825590600052602060002090810190620011a791905b5b8082111562002fc75760008155600101620045fa565b6000602082840312156200462357600080fd5b81356001600160e01b03198116811462003c5557600080fd5b6000602082840312156200464f57600080fd5b5035919050565b6001600160a01b0381168114620011a757600080fd5b8035620046798162004656565b919050565b600080604083850312156200469257600080fd5b82356200469f8162004656565b91506020830135620046b18162004656565b809150509250929050565b600060208284031215620046cf57600080fd5b813562003c558162004656565b60008060408385031215620046f057600080fd5b8235620046fd8162004656565b946020939093013593505050565b6001600160a01b03169052565b6001600160a01b0391909116815260200190565b6000806000606084860312156200474257600080fd5b83356200474f8162004656565b92506020840135620047618162004656565b91506040840135620047738162004656565b809150509250925092565b600080604083850312156200479257600080fd5b823591506020830135620046b18162004656565b634e487b7160e01b600052604160045260246000fd5b604080519081016001600160401b0381118282101715620047e157620047e1620047a6565b60405290565b60405161018081016001600160401b0381118282101715620047e157620047e1620047a6565b60405160c081016001600160401b0381118282101715620047e157620047e1620047a6565b60405161010081016001600160401b0381118282101715620047e157620047e1620047a6565b604051601f8201601f191681016001600160401b0381118282101715620048835762004883620047a6565b604052919050565b60006001600160401b03821115620048a757620048a7620047a6565b50601f01601f191660200190565b6000620048cc620048c6846200488b565b62004858565b9050828152838383011115620048e157600080fd5b828260208301376000602084830101529392505050565b600082601f8301126200490a57600080fd5b62003c5583833560208501620048b5565b6000604082840312156200492e57600080fd5b62004938620047bc565b82358152905060208201356001600160401b038111156200495857600080fd5b6200496684828501620048f8565b60208301525092915050565b8015158114620011a757600080fd5b8035620046798162004972565b60008060008060808587031215620049a557600080fd5b84356001600160401b0380821115620049bd57600080fd5b908601906101808289031215620049d357600080fd5b620049dd620047e7565b620049e8836200466c565b8152620049f8602084016200466c565b602082015260408301356040820152606083013560608201526080830135608082015262004a2960a084016200466c565b60a082015262004a3c60c084016200466c565b60c082015260e08301358281111562004a5457600080fd5b62004a628a8286016200491b565b60e08301525061010062004a788185016200466c565b90820152610120838101358381111562004a9157600080fd5b62004a9f8b828701620048f8565b82840152505061014062004ab581850162004981565b90820152610160838101358381111562004ace57600080fd5b62004adc8b828701620048f8565b82840152505080965050505062004af6602086016200466c565b925062004b06604086016200466c565b915062004b16606086016200466c565b905092959194509250565b6000806040838503121562004b3557600080fd5b823562004b428162004656565b915060208301356001600160401b0381111562004b5e57600080fd5b8301601f8101851362004b7057600080fd5b62004b8185823560208401620048b5565b9150509250929050565b60006080828403121562004b9e57600080fd5b604051608081016001600160401b038111828210171562004bc35762004bc3620047a6565b8060405250809150823581526020830135602082015260408301356040820152606083013560608201525092915050565b8035600381106200467957600080fd5b60048110620011a757600080fd5b8035620046798162004c04565b60006020828403121562004c3257600080fd5b604051602081016001600160401b038111828210171562004c575762004c57620047a6565b6040529135825250919050565b600060c0828403121562004c7757600080fd5b62004c816200480d565b9050813562004c908162004656565b8152602082013562004ca28162004656565b8060208301525060408201356040820152606082013560608201526080820135608082015260a082013560a082015292915050565b60006101e0828403121562004ceb57600080fd5b60405160e081016001600160401b038111828210171562004d105762004d10620047a6565b60405290508062004d22848462004b8b565b815262004d326080840162004bf4565b602082015260a083013562004d478162004c04565b604082015262004d5b8460c0850162004c1f565b606082015262004d6f8460e0850162004c64565b60808201526101a083013562004d858162004656565b60a082015262004d996101c084016200466c565b60c08201525092915050565b6000806000610220848603121562004dbc57600080fd5b833562004dc98162004656565b925062004dda856020860162004cd7565b91506102008401356001600160401b0381111562004df757600080fd5b62004e05868287016200491b565b9150509250925092565b60006001600160401b0382111562004e2b5762004e2b620047a6565b5060051b60200190565b600082601f83011262004e4757600080fd5b8135602062004e5a620048c68362004e0f565b82815260059290921b8401810191818101908684111562004e7a57600080fd5b8286015b8481101562004ea257803562004e948162004656565b835291830191830162004e7e565b509695505050505050565b6000610200828403121562004ec157600080fd5b62004ecb62004832565b905062004ed9838362004b8b565b815262004ee96080830162004bf4565b602082015262004efc60a0830162004c12565b604082015262004f108360c0840162004c1f565b606082015262004f248360e0840162004c64565b608082015262004f386101a083016200466c565b60a082015262004f4c6101c083016200466c565b60c08201526101e08201356001600160401b0381111562004f6c57600080fd5b62004f7a8482850162004e35565b60e08301525092915050565b60008060006060848603121562004f9c57600080fd5b833562004fa98162004656565b925060208401356001600160401b038082111562004fc657600080fd5b62004fd48783880162004ead565b9350604086013591508082111562004feb57600080fd5b5062004e05868287016200491b565b600080600080608085870312156200501157600080fd5b84356200501e8162004656565b93506020850135620050308162004656565b925060408501356001600160401b03808211156200504d57600080fd5b6200505b8883890162004ead565b935060608701359150808211156200507257600080fd5b5062005081878288016200491b565b91505092959194509250565b60005b83811015620050aa57818101518382015260200162005090565b50506000910152565b60008151808452620050cd8160208601602086016200508d565b601f01601f19169290920160200192915050565b60208152600062003c556020830184620050b3565b60008060008061024085870312156200510e57600080fd5b84356200511b8162004656565b935060208501356200512d8162004656565b92506200513e866040870162004cd7565b91506102208501356001600160401b038111156200515b57600080fd5b62005081878288016200491b565b634e487b7160e01b600052601160045260246000fd5b808202811582820484141762002cdf5762002cdf62005169565b634e487b7160e01b600052602160045260246000fd5b600060208284031215620051c257600080fd5b815162003c558162004c04565b6001600160a01b03929092168252602082015260400190565b600060208284031215620051fb57600080fd5b5051919050565b6001600160a01b039384168152919092166020820152604081019190915260600190565b6001600160a01b0392831681529116602082015260400190565b6000826200525e57634e487b7160e01b600052601260045260246000fd5b500490565b8082018082111562002cdf5762002cdf62005169565b6020808252602e908201527f496e697469616c697a61626c653a20636f6e747261637420697320616c72656160408201526d191e481a5b9a5d1a585b1a5e995960921b606082015260800190565b600181811c90821680620052dc57607f821691505b602082108103620052fd57634e487b7160e01b600052602260045260246000fd5b50919050565b601f8211156200155957600081815260208120601f850160051c810160208610156200532c5750805b601f850160051c820191505b818110156200534d5782815560010162005338565b505050505050565b81516001600160401b03811115620053715762005371620047a6565b6200538981620053828454620052c7565b8462005303565b602080601f831160018114620053c15760008415620053a85750858301515b600019600386901b1c1916600185901b1785556200534d565b600085815260208120601f198616915b82811015620053f257888601518255948401946001909101908401620053d1565b5085821015620054115787850151600019600388901b60f8161c191681555b5050505050600190811b01905550565b6000602082840312156200543457600080fd5b815162003c558162004656565b634e487b7160e01b600052603260045260246000fd5b600060208083850312156200546b57600080fd5b82516001600160401b038111156200548257600080fd5b8301601f810185136200549457600080fd5b8051620054a5620048c68262004e0f565b81815260059190911b82018301908381019087831115620054c557600080fd5b928401925b8284101562004113578351620054e08162004656565b82529284019290840190620054ca565b60006001820162005505576200550562005169565b5060010190565b8181038181111562002cdf5762002cdf62005169565b600081546200553181620052c7565b8085526020600183811680156200555157600181146200556c576200559c565b60ff1985168884015283151560051b8801830195506200559c565b866000528260002060005b85811015620055945781548a820186015290830190840162005577565b890184019650505b505050505092915050565b805182526000602082015160406020850152620042fb6040850182620050b3565b600081518084526020808501945080840160005b83811015620056035781516001600160a01b031687529582019590820190600101620055dc565b509495945050505050565b85815260a0602082015260006200562960a083018762005522565b82810360408401526200563d8187620055a7565b6001600160a01b038616606085015283810360808501529050620056628185620055c8565b98975050505050505050565b83815260606020820152600062005689606083018562005522565b8281036040840152620044b98185620055a7565b6020808252602c908201526000805160206200617f83398151915260408201526b19195b1959d85d1958d85b1b60a21b606082015260800190565b6020808252602c908201526000805160206200617f83398151915260408201526b6163746976652070726f787960a01b606082015260800190565b6001600160a01b0393841681529183166020830152909116604082015260600190565b6001600160a01b0383168152604060208201819052600090620042fb90830184620050b3565b6810531313d5d31254d560ba1b8152600981019190915260290190565b6e20a62627aba624a9aa2fa0a226a4a760891b8152600f810191909152602f0190565b634e487b7160e01b600052603160045260246000fd5b60006020808385031215620057c657600080fd5b82516001600160401b0380821115620057de57600080fd5b9084019060c08287031215620057f357600080fd5b620057fd6200480d565b8251815283830151620058108162004656565b818501526040830151620058248162004656565b60408201526060830151828111156200583c57600080fd5b8301604081890312156200584f57600080fd5b62005859620047bc565b8151815285820151848111156200586f57600080fd5b82019350601f840189136200588357600080fd5b8351915062005896620048c6836200488b565b8281528987848701011115620058ab57600080fd5b620058bc838883018988016200508d565b95810195909552506060810193909352506080818101519083015260a090810151908201529392505050565b805182526020810151602083015260408101516040830152606081015160608301525050565b6003811062005921576200592162005199565b9052565b6004811062005921576200592162005199565b80516001600160a01b0390811683526020808301519091169083015260408082015190830152606080820151908301526080808201519083015260a090810151910152565b6020815262005991602082018351620058e8565b60006020830151620059a760a08401826200590e565b506040830151620059bc60c084018262005925565b5060608301515160e08301526080830151620059dd61010084018262005938565b5060a0830151620059f36101c08401826200470b565b5060c083015162005a096101e08401826200470b565b5060e083015161020083810152620042fb610220840182620055c8565b878152600060018060a01b03808916602084015260e0604084015262005a5060e0840189620050b3565b818816606085015286608085015283810360a085015262005a728187620055a7565b91505082810360c084015262005a898185620055c8565b9a9950505050505050505050565b8581526001600160a01b03858116602083015284811660408301528316606082015260a0608082018190526000906200411390830184620055a7565b6020808252602b908201527f496e697469616c697a61626c653a20636f6e7472616374206973206e6f74206960408201526a6e697469616c697a696e6760a81b606082015260800190565b60006101e08201905062005b34828451620058e8565b602083015162005b4860808401826200590e565b50604083015162005b5d60a084018262005925565b5060608301515160c0830152608083015162005b7d60e084018262005938565b5060a08301516001600160a01b039081166101a084015260c0909301519092166101c09091015290565b76020b1b1b2b9b9a1b7b73a3937b61d1030b1b1b7bab73a1604d1b81526000835162005bdb8160178501602088016200508d565b7001034b99036b4b9b9b4b733903937b6329607d1b601791840191820152835162005c0e8160288401602088016200508d565b01602801949350505050565b60006020828403121562005c2d57600080fd5b815162003c558162004972565b60008162005c4c5762005c4c62005169565b506000190190565b6000825162005c688184602087016200508d565b919091019291505056fe60806040526040516104ec3803806104ec833981016040819052610022916102e9565b61002e82826000610035565b5050610406565b61003e83610061565b60008251118061004b5750805b1561005c5761005a83836100a1565b505b505050565b61006a816100cd565b6040516001600160a01b038216907fbc7cd75a20ee27fd9adebab32041f755214dbc6bffa90cc0225b39da2e5c2d3b90600090a250565b60606100c683836040518060600160405280602781526020016104c56027913961017e565b9392505050565b6100d6816101f7565b61013d5760405162461bcd60e51b815260206004820152602d60248201527f455243313936373a206e657720696d706c656d656e746174696f6e206973206e60448201526c1bdd08184818dbdb9d1c9858dd609a1b60648201526084015b60405180910390fd5b7f360894a13ba1a3210667c828492db98dca3e2076cc3735a920a3ca505d382bbc80546001600160a01b0319166001600160a01b0392909216919091179055565b6060600080856001600160a01b03168560405161019b91906103b7565b600060405180830381855af49150503d80600081146101d6576040519150601f19603f3d011682016040523d82523d6000602084013e6101db565b606091505b5090925090506101ed86838387610206565b9695505050505050565b6001600160a01b03163b151590565b6060831561027357825160000361026c57610220856101f7565b61026c5760405162461bcd60e51b815260206004820152601d60248201527f416464726573733a2063616c6c20746f206e6f6e2d636f6e74726163740000006044820152606401610134565b508161027d565b61027d8383610285565b949350505050565b8151156102955781518083602001fd5b8060405162461bcd60e51b815260040161013491906103d3565b634e487b7160e01b600052604160045260246000fd5b60005b838110156102e05781810151838201526020016102c8565b50506000910152565b600080604083850312156102fc57600080fd5b82516001600160a01b038116811461031357600080fd5b60208401519092506001600160401b038082111561033057600080fd5b818501915085601f83011261034457600080fd5b815181811115610356576103566102af565b604051601f8201601f19908116603f0116810190838211818310171561037e5761037e6102af565b8160405282815288602084870101111561039757600080fd5b6103a88360208301602088016102c5565b80955050505050509250929050565b600082516103c98184602087016102c5565b9190910192915050565b60208152600082518060208401526103f28160408501602087016102c5565b601f01601f19169190910160400192915050565b60b1806104146000396000f3fe608060405236601057600e6013565b005b600e5b601f601b6021565b6058565b565b600060537f360894a13ba1a3210667c828492db98dca3e2076cc3735a920a3ca505d382bbc546001600160a01b031690565b905090565b3660008037600080366000845af43d6000803e8080156076573d6000f35b3d6000fdfea26469706673582212204fe6c3c3dccfaea0fd10fdd343631403db3c1555c6576ad816deaaa45c9f926764736f6c63430008130033416464726573733a206c6f772d6c6576656c2064656c65676174652063616c6c206661696c656403be538b6391ddcd7f2649585cc95b120c9e2a613f70714fbb55345057d809fa46756e6374696f6e206d7573742062652063616c6c6564207468726f75676820360894a13ba1a3210667c828492db98dca3e2076cc3735a920a3ca505d382bbc7f26b83ff96e1f2b6a682f133852f6798a09c465da95921460cefb3847402498416464726573733a206c6f772d6c6576656c2064656c65676174652063616c6c206661696c6564a2646970667358221220e0910e566be8360c1691430fc249ed379beac4d95da38df41d05cad036526e3764736f6c63430008130033","linkReferences":{}},"methodIdentifiers":{"COUNCIL_MEMBER()":"733a2d1f","DEFAULT_ADMIN_ROLE()":"a217fddf","MAX_FEE()":"bc063e1a","NATIVE()":"a0cf0aea","PRECISION_SCALE()":"d7050f07","VERSION()":"ffa1ad74","acceptCouncilSafe()":"b5058c50","activateMemberInStrategy(address,address)":"0d4a8b49","addStrategy(address)":"223e5479","addStrategyByPoolId(uint256)":"82d6a1e7","addressToMemberInfo(address)":"88cfe684","allo()":"d6d8428d","cloneNonce()":"33960459","collateralVaultTemplate()":"77122d56","communityFee()":"8961be6b","communityName()":"c6d572ae","councilSafe()":"6c53db9a","covenantIpfsHash()":"b64e39af","createPool(address,((uint256,uint256,uint256,uint256),uint8,uint8,(uint256),(address,address,uint256,uint256,uint256,uint256),address,address),(uint256,string))":"524e59e8","createPool(address,((uint256,uint256,uint256,uint256),uint8,uint8,(uint256),(address,address,uint256,uint256,uint256,uint256),address,address,address[]),(uint256,string))":"579eb7e5","createPool(address,address,((uint256,uint256,uint256,uint256),uint8,uint8,(uint256),(address,address,uint256,uint256,uint256,uint256),address,address),(uint256,string))":"e16d0e32","createPool(address,address,((uint256,uint256,uint256,uint256),uint8,uint8,(uint256),(address,address,uint256,uint256,uint256,uint256),address,address,address[]),(uint256,string))":"8659ffdd","deactivateMemberInStrategy(address,address)":"22bcf999","decreasePower(uint256)":"5ecf71c5","enabledStrategies(address)":"3a871fe1","feeReceiver()":"b3f00674","gardenToken()":"db61d65c","getBasisStakedAmount()":"0331383c","getMemberPowerInStrategy(address,address)":"7817ee4f","getMemberStakedAmount(address)":"2c611c4a","getRoleAdmin(bytes32)":"248a9ca3","getStakeAmountWithFees()":"28c309e9","grantRole(bytes32,address)":"2f2ff15d","hasRole(bytes32,address)":"91d14854","increasePower(uint256)":"559de05d","initialize((address,address,uint256,uint256,uint256,address,address,(uint256,string),address,string,bool,string),address,address,address)":"34196355","initialize(address)":"c4d66de8","initializeV2(address,address,address)":"2c3bb44a","isCouncilMember(address)":"ebd7dc52","isKickEnabled()":"1f787d28","isMember(address)":"a230c524","kickMember(address,address)":"6871eb4d","memberActivatedInStrategies(address,address)":"477a5cc0","memberPowerInStrategy(address,address)":"65e3864c","owner()":"8da5cb5b","pendingCouncilSafe()":"68decabb","profileId()":"08386eba","proxiableUUID()":"52d1902d","registerStakeAmount()":"78a0b8a9","registry()":"7b103999","registryFactory()":"f86c5f89","removeStrategy(address)":"175188e8","removeStrategyByPoolId(uint256)":"73265c37","renounceOwnership()":"715018a6","renounceRole(bytes32,address)":"36568abe","revokeRole(bytes32,address)":"d547741f","setBasisStakedAmount(uint256)":"31f61bca","setCollateralVaultTemplate(address)":"b0d3713a","setCommunityFee(uint256)":"0d12bbdb","setCouncilSafe(address)":"397e2543","setStrategyTemplate(address)":"1b71f0e4","stakeAndRegisterMember()":"3517aa7d","strategiesByMember(address,uint256)":"2b38c69c","strategyTemplate()":"5c94e4d2","supportsInterface(bytes4)":"01ffc9a7","transferOwnership(address)":"f2fde38b","unregisterMember()":"b99b4370","upgradeTo(address)":"3659cfe6","upgradeToAndCall(address,bytes)":"4f1ef286"},"storageLayout":{"storage":[{"astId":52990,"contract":"pkg/contracts/src/diamonds/facets/RegistryCommunityFacet.sol:RegistryCommunityFacet","label":"_initialized","offset":0,"slot":"0","type":"t_uint8"},{"astId":52993,"contract":"pkg/contracts/src/diamonds/facets/RegistryCommunityFacet.sol:RegistryCommunityFacet","label":"_initializing","offset":1,"slot":"0","type":"t_bool"},{"astId":53695,"contract":"pkg/contracts/src/diamonds/facets/RegistryCommunityFacet.sol:RegistryCommunityFacet","label":"__gap","offset":0,"slot":"1","type":"t_array(t_uint256)50_storage"},{"astId":52782,"contract":"pkg/contracts/src/diamonds/facets/RegistryCommunityFacet.sol:RegistryCommunityFacet","label":"_owner","offset":0,"slot":"51","type":"t_address"},{"astId":52902,"contract":"pkg/contracts/src/diamonds/facets/RegistryCommunityFacet.sol:RegistryCommunityFacet","label":"__gap","offset":0,"slot":"52","type":"t_array(t_uint256)49_storage"},{"astId":53167,"contract":"pkg/contracts/src/diamonds/facets/RegistryCommunityFacet.sol:RegistryCommunityFacet","label":"_status","offset":0,"slot":"101","type":"t_uint256"},{"astId":53236,"contract":"pkg/contracts/src/diamonds/facets/RegistryCommunityFacet.sol:RegistryCommunityFacet","label":"__gap","offset":0,"slot":"102","type":"t_array(t_uint256)49_storage"},{"astId":53969,"contract":"pkg/contracts/src/diamonds/facets/RegistryCommunityFacet.sol:RegistryCommunityFacet","label":"__gap","offset":0,"slot":"151","type":"t_array(t_uint256)50_storage"},{"astId":52389,"contract":"pkg/contracts/src/diamonds/facets/RegistryCommunityFacet.sol:RegistryCommunityFacet","label":"_roles","offset":0,"slot":"201","type":"t_mapping(t_bytes32,t_struct(RoleData)52384_storage)"},{"astId":52696,"contract":"pkg/contracts/src/diamonds/facets/RegistryCommunityFacet.sol:RegistryCommunityFacet","label":"__gap","offset":0,"slot":"202","type":"t_array(t_uint256)49_storage"},{"astId":70459,"contract":"pkg/contracts/src/diamonds/facets/RegistryCommunityFacet.sol:RegistryCommunityFacet","label":"registerStakeAmount","offset":0,"slot":"251","type":"t_uint256"},{"astId":70462,"contract":"pkg/contracts/src/diamonds/facets/RegistryCommunityFacet.sol:RegistryCommunityFacet","label":"communityFee","offset":0,"slot":"252","type":"t_uint256"},{"astId":70465,"contract":"pkg/contracts/src/diamonds/facets/RegistryCommunityFacet.sol:RegistryCommunityFacet","label":"cloneNonce","offset":0,"slot":"253","type":"t_uint256"},{"astId":70468,"contract":"pkg/contracts/src/diamonds/facets/RegistryCommunityFacet.sol:RegistryCommunityFacet","label":"profileId","offset":0,"slot":"254","type":"t_bytes32"},{"astId":70471,"contract":"pkg/contracts/src/diamonds/facets/RegistryCommunityFacet.sol:RegistryCommunityFacet","label":"isKickEnabled","offset":0,"slot":"255","type":"t_bool"},{"astId":70474,"contract":"pkg/contracts/src/diamonds/facets/RegistryCommunityFacet.sol:RegistryCommunityFacet","label":"feeReceiver","offset":1,"slot":"255","type":"t_address"},{"astId":70477,"contract":"pkg/contracts/src/diamonds/facets/RegistryCommunityFacet.sol:RegistryCommunityFacet","label":"registryFactory","offset":0,"slot":"256","type":"t_address"},{"astId":70480,"contract":"pkg/contracts/src/diamonds/facets/RegistryCommunityFacet.sol:RegistryCommunityFacet","label":"collateralVaultTemplate","offset":0,"slot":"257","type":"t_address"},{"astId":70483,"contract":"pkg/contracts/src/diamonds/facets/RegistryCommunityFacet.sol:RegistryCommunityFacet","label":"strategyTemplate","offset":0,"slot":"258","type":"t_address"},{"astId":70486,"contract":"pkg/contracts/src/diamonds/facets/RegistryCommunityFacet.sol:RegistryCommunityFacet","label":"pendingCouncilSafe","offset":0,"slot":"259","type":"t_address_payable"},{"astId":70490,"contract":"pkg/contracts/src/diamonds/facets/RegistryCommunityFacet.sol:RegistryCommunityFacet","label":"registry","offset":0,"slot":"260","type":"t_contract(IRegistry)2802"},{"astId":70494,"contract":"pkg/contracts/src/diamonds/facets/RegistryCommunityFacet.sol:RegistryCommunityFacet","label":"gardenToken","offset":0,"slot":"261","type":"t_contract(IERC20)56528"},{"astId":70498,"contract":"pkg/contracts/src/diamonds/facets/RegistryCommunityFacet.sol:RegistryCommunityFacet","label":"councilSafe","offset":0,"slot":"262","type":"t_contract(ISafe)75245"},{"astId":70502,"contract":"pkg/contracts/src/diamonds/facets/RegistryCommunityFacet.sol:RegistryCommunityFacet","label":"allo","offset":0,"slot":"263","type":"t_contract(FAllo)74978"},{"astId":70505,"contract":"pkg/contracts/src/diamonds/facets/RegistryCommunityFacet.sol:RegistryCommunityFacet","label":"communityName","offset":0,"slot":"264","type":"t_string_storage"},{"astId":70508,"contract":"pkg/contracts/src/diamonds/facets/RegistryCommunityFacet.sol:RegistryCommunityFacet","label":"covenantIpfsHash","offset":0,"slot":"265","type":"t_string_storage"},{"astId":70513,"contract":"pkg/contracts/src/diamonds/facets/RegistryCommunityFacet.sol:RegistryCommunityFacet","label":"enabledStrategies","offset":0,"slot":"266","type":"t_mapping(t_address,t_bool)"},{"astId":70520,"contract":"pkg/contracts/src/diamonds/facets/RegistryCommunityFacet.sol:RegistryCommunityFacet","label":"memberPowerInStrategy","offset":0,"slot":"267","type":"t_mapping(t_address,t_mapping(t_address,t_uint256))"},{"astId":70526,"contract":"pkg/contracts/src/diamonds/facets/RegistryCommunityFacet.sol:RegistryCommunityFacet","label":"addressToMemberInfo","offset":0,"slot":"268","type":"t_mapping(t_address,t_struct(Member)70271_storage)"},{"astId":70532,"contract":"pkg/contracts/src/diamonds/facets/RegistryCommunityFacet.sol:RegistryCommunityFacet","label":"strategiesByMember","offset":0,"slot":"269","type":"t_mapping(t_address,t_array(t_address)dyn_storage)"},{"astId":70539,"contract":"pkg/contracts/src/diamonds/facets/RegistryCommunityFacet.sol:RegistryCommunityFacet","label":"memberActivatedInStrategies","offset":0,"slot":"270","type":"t_mapping(t_address,t_mapping(t_address,t_bool))"},{"astId":70543,"contract":"pkg/contracts/src/diamonds/facets/RegistryCommunityFacet.sol:RegistryCommunityFacet","label":"initialMembers","offset":0,"slot":"271","type":"t_array(t_address)dyn_storage"},{"astId":72173,"contract":"pkg/contracts/src/diamonds/facets/RegistryCommunityFacet.sol:RegistryCommunityFacet","label":"__gap","offset":0,"slot":"272","type":"t_array(t_uint256)50_storage"},{"astId":74029,"contract":"pkg/contracts/src/diamonds/facets/RegistryCommunityFacet.sol:RegistryCommunityFacet","label":"__gap","offset":0,"slot":"322","type":"t_array(t_uint256)50_storage"}],"types":{"t_address":{"encoding":"inplace","label":"address","numberOfBytes":"20"},"t_address_payable":{"encoding":"inplace","label":"address payable","numberOfBytes":"20"},"t_array(t_address)dyn_storage":{"encoding":"dynamic_array","label":"address[]","numberOfBytes":"32","base":"t_address"},"t_array(t_uint256)49_storage":{"encoding":"inplace","label":"uint256[49]","numberOfBytes":"1568","base":"t_uint256"},"t_array(t_uint256)50_storage":{"encoding":"inplace","label":"uint256[50]","numberOfBytes":"1600","base":"t_uint256"},"t_bool":{"encoding":"inplace","label":"bool","numberOfBytes":"1"},"t_bytes32":{"encoding":"inplace","label":"bytes32","numberOfBytes":"32"},"t_contract(FAllo)74978":{"encoding":"inplace","label":"contract FAllo","numberOfBytes":"20"},"t_contract(IERC20)56528":{"encoding":"inplace","label":"contract IERC20","numberOfBytes":"20"},"t_contract(IRegistry)2802":{"encoding":"inplace","label":"contract IRegistry","numberOfBytes":"20"},"t_contract(ISafe)75245":{"encoding":"inplace","label":"contract ISafe","numberOfBytes":"20"},"t_mapping(t_address,t_array(t_address)dyn_storage)":{"encoding":"mapping","key":"t_address","label":"mapping(address => address[])","numberOfBytes":"32","value":"t_array(t_address)dyn_storage"},"t_mapping(t_address,t_bool)":{"encoding":"mapping","key":"t_address","label":"mapping(address => bool)","numberOfBytes":"32","value":"t_bool"},"t_mapping(t_address,t_mapping(t_address,t_bool))":{"encoding":"mapping","key":"t_address","label":"mapping(address => mapping(address => bool))","numberOfBytes":"32","value":"t_mapping(t_address,t_bool)"},"t_mapping(t_address,t_mapping(t_address,t_uint256))":{"encoding":"mapping","key":"t_address","label":"mapping(address => mapping(address => uint256))","numberOfBytes":"32","value":"t_mapping(t_address,t_uint256)"},"t_mapping(t_address,t_struct(Member)70271_storage)":{"encoding":"mapping","key":"t_address","label":"mapping(address => struct Member)","numberOfBytes":"32","value":"t_struct(Member)70271_storage"},"t_mapping(t_address,t_uint256)":{"encoding":"mapping","key":"t_address","label":"mapping(address => uint256)","numberOfBytes":"32","value":"t_uint256"},"t_mapping(t_bytes32,t_struct(RoleData)52384_storage)":{"encoding":"mapping","key":"t_bytes32","label":"mapping(bytes32 => struct AccessControlUpgradeable.RoleData)","numberOfBytes":"32","value":"t_struct(RoleData)52384_storage"},"t_string_storage":{"encoding":"bytes","label":"string","numberOfBytes":"32"},"t_struct(Member)70271_storage":{"encoding":"inplace","label":"struct Member","numberOfBytes":"96","members":[{"astId":70266,"contract":"pkg/contracts/src/diamonds/facets/RegistryCommunityFacet.sol:RegistryCommunityFacet","label":"member","offset":0,"slot":"0","type":"t_address"},{"astId":70268,"contract":"pkg/contracts/src/diamonds/facets/RegistryCommunityFacet.sol:RegistryCommunityFacet","label":"stakedAmount","offset":0,"slot":"1","type":"t_uint256"},{"astId":70270,"contract":"pkg/contracts/src/diamonds/facets/RegistryCommunityFacet.sol:RegistryCommunityFacet","label":"isRegistered","offset":0,"slot":"2","type":"t_bool"}]},"t_struct(RoleData)52384_storage":{"encoding":"inplace","label":"struct AccessControlUpgradeable.RoleData","numberOfBytes":"64","members":[{"astId":52381,"contract":"pkg/contracts/src/diamonds/facets/RegistryCommunityFacet.sol:RegistryCommunityFacet","label":"members","offset":0,"slot":"0","type":"t_mapping(t_address,t_bool)"},{"astId":52383,"contract":"pkg/contracts/src/diamonds/facets/RegistryCommunityFacet.sol:RegistryCommunityFacet","label":"adminRole","offset":0,"slot":"1","type":"t_bytes32"}]},"t_uint256":{"encoding":"inplace","label":"uint256","numberOfBytes":"32"},"t_uint8":{"encoding":"inplace","label":"uint8","numberOfBytes":"1"}}},"id":113}