{"abi":[{"type":"function","name":"DECIMALS","inputs":[],"outputs":[{"name":"","type":"uint256","internalType":"uint256"}],"stateMutability":"view"},{"type":"function","name":"NATIVE","inputs":[],"outputs":[{"name":"","type":"address","internalType":"address"}],"stateMutability":"view"},{"type":"function","name":"PERCENTAGE_SCALE","inputs":[],"outputs":[{"name":"","type":"uint256","internalType":"uint256"}],"stateMutability":"view"},{"type":"function","name":"_calculateConviction","inputs":[{"name":"_timePassed","type":"uint256","internalType":"uint256"},{"name":"_lastConv","type":"uint256","internalType":"uint256"},{"name":"_oldAmount","type":"uint256","internalType":"uint256"},{"name":"decay","type":"uint256","internalType":"uint256"}],"outputs":[{"name":"","type":"uint256","internalType":"uint256"}],"stateMutability":"pure"},{"type":"function","name":"allo_owner","inputs":[],"outputs":[{"name":"","type":"address","internalType":"address"}],"stateMutability":"nonpayable"},{"type":"function","name":"allo_treasury","inputs":[],"outputs":[{"name":"","type":"address","internalType":"address payable"}],"stateMutability":"nonpayable"},{"type":"function","name":"createPool","inputs":[{"name":"allo","type":"address","internalType":"contract Allo"},{"name":"strategy","type":"address","internalType":"address"},{"name":"registryCommunity","type":"address","internalType":"address"},{"name":"registry","type":"address","internalType":"contract IRegistry"},{"name":"token","type":"address","internalType":"address"},{"name":"proposalType","type":"uint8","internalType":"enum StrategyStruct.ProposalType"},{"name":"pointSystem","type":"uint8","internalType":"enum StrategyStruct.PointSystem"}],"outputs":[{"name":"poolId","type":"uint256","internalType":"uint256"}],"stateMutability":"nonpayable"},{"type":"function","name":"createPool","inputs":[{"name":"allo","type":"address","internalType":"contract Allo"},{"name":"strategy","type":"address","internalType":"address"},{"name":"registryCommunity","type":"address","internalType":"address"},{"name":"registry","type":"address","internalType":"contract IRegistry"},{"name":"token","type":"address","internalType":"address"},{"name":"proposalType","type":"uint8","internalType":"enum StrategyStruct.ProposalType"},{"name":"pointSystem","type":"uint8","internalType":"enum StrategyStruct.PointSystem"},{"name":"pointConfig","type":"tuple","internalType":"struct StrategyStruct.PointSystemConfig","components":[{"name":"maxAmount","type":"uint256","internalType":"uint256"}]}],"outputs":[{"name":"poolId","type":"uint256","internalType":"uint256"}],"stateMutability":"nonpayable"},{"type":"function","name":"getParams","inputs":[{"name":"registryCommunity","type":"address","internalType":"address"},{"name":"proposalType","type":"uint8","internalType":"enum StrategyStruct.ProposalType"},{"name":"pointSystem","type":"uint8","internalType":"enum StrategyStruct.PointSystem"},{"name":"pointConfig","type":"tuple","internalType":"struct StrategyStruct.PointSystemConfig","components":[{"name":"maxAmount","type":"uint256","internalType":"uint256"}]}],"outputs":[{"name":"params","type":"tuple","internalType":"struct StrategyStruct.InitializeParams","components":[{"name":"registryCommunity","type":"address","internalType":"address"},{"name":"decay","type":"uint256","internalType":"uint256"},{"name":"maxRatio","type":"uint256","internalType":"uint256"},{"name":"weight","type":"uint256","internalType":"uint256"},{"name":"minThresholdPoints","type":"uint256","internalType":"uint256"},{"name":"proposalType","type":"uint8","internalType":"enum StrategyStruct.ProposalType"},{"name":"pointSystem","type":"uint8","internalType":"enum StrategyStruct.PointSystem"},{"name":"pointConfig","type":"tuple","internalType":"struct StrategyStruct.PointSystemConfig","components":[{"name":"maxAmount","type":"uint256","internalType":"uint256"}]},{"name":"arbitrableConfig","type":"tuple","internalType":"struct StrategyStruct.ArbitrableConfig","components":[{"name":"arbitrator","type":"address","internalType":"contract IArbitrator"},{"name":"tribunalSafe","type":"address","internalType":"address"},{"name":"collateralAmount","type":"uint256","internalType":"uint256"},{"name":"defaultRuling","type":"uint256","internalType":"uint256"},{"name":"defaultRulingTimeout","type":"uint256","internalType":"uint256"},{"name":"collateralVaultTemplate","type":"address","internalType":"address"}]},{"name":"sybilScorer","type":"address","internalType":"address"}]}],"stateMutability":"pure"},{"type":"function","name":"local","inputs":[],"outputs":[{"name":"","type":"address","internalType":"address"}],"stateMutability":"view"},{"type":"function","name":"metadata","inputs":[],"outputs":[{"name":"protocol","type":"uint256","internalType":"uint256"},{"name":"pointer","type":"string","internalType":"string"}],"stateMutability":"view"},{"type":"function","name":"no_recipient","inputs":[],"outputs":[{"name":"","type":"address","internalType":"address"}],"stateMutability":"nonpayable"},{"type":"function","name":"nullProfile_member1","inputs":[],"outputs":[{"name":"","type":"address","internalType":"address"}],"stateMutability":"pure"},{"type":"function","name":"nullProfile_member2","inputs":[],"outputs":[{"name":"","type":"address","internalType":"address"}],"stateMutability":"pure"},{"type":"function","name":"nullProfile_members","inputs":[],"outputs":[{"name":"","type":"address[]","internalType":"address[]"}],"stateMutability":"pure"},{"type":"function","name":"nullProfile_notAMember","inputs":[],"outputs":[{"name":"","type":"address","internalType":"address"}],"stateMutability":"pure"},{"type":"function","name":"nullProfile_owner","inputs":[],"outputs":[{"name":"","type":"address","internalType":"address"}],"stateMutability":"pure"},{"type":"function","name":"poolProfile_id1","inputs":[{"name":"registry","type":"address","internalType":"contract IRegistry"},{"name":"pool_admin","type":"address","internalType":"address"},{"name":"pool_managers","type":"address[]","internalType":"address[]"}],"outputs":[{"name":"","type":"bytes32","internalType":"bytes32"}],"stateMutability":"nonpayable"},{"type":"function","name":"pool_admin","inputs":[],"outputs":[{"name":"","type":"address","internalType":"address"}],"stateMutability":"nonpayable"},{"type":"function","name":"pool_manager1","inputs":[],"outputs":[{"name":"","type":"address","internalType":"address"}],"stateMutability":"nonpayable"},{"type":"function","name":"pool_manager2","inputs":[],"outputs":[{"name":"","type":"address","internalType":"address"}],"stateMutability":"nonpayable"},{"type":"function","name":"pool_managers","inputs":[],"outputs":[{"name":"","type":"address[]","internalType":"address[]"}],"stateMutability":"nonpayable"},{"type":"function","name":"pool_notAManager","inputs":[],"outputs":[{"name":"","type":"address","internalType":"address"}],"stateMutability":"nonpayable"},{"type":"function","name":"profile1_member1","inputs":[],"outputs":[{"name":"","type":"address","internalType":"address"}],"stateMutability":"nonpayable"},{"type":"function","name":"profile1_member2","inputs":[],"outputs":[{"name":"","type":"address","internalType":"address"}],"stateMutability":"nonpayable"},{"type":"function","name":"profile1_members","inputs":[],"outputs":[{"name":"","type":"address[]","internalType":"address[]"}],"stateMutability":"nonpayable"},{"type":"function","name":"profile1_notAMember","inputs":[],"outputs":[{"name":"","type":"address","internalType":"address"}],"stateMutability":"nonpayable"},{"type":"function","name":"profile1_owner","inputs":[],"outputs":[{"name":"","type":"address","internalType":"address"}],"stateMutability":"nonpayable"},{"type":"function","name":"profile2_member1","inputs":[],"outputs":[{"name":"","type":"address","internalType":"address"}],"stateMutability":"nonpayable"},{"type":"function","name":"profile2_member2","inputs":[],"outputs":[{"name":"","type":"address","internalType":"address"}],"stateMutability":"nonpayable"},{"type":"function","name":"profile2_members","inputs":[],"outputs":[{"name":"","type":"address[]","internalType":"address[]"}],"stateMutability":"nonpayable"},{"type":"function","name":"profile2_notAMember","inputs":[],"outputs":[{"name":"","type":"address","internalType":"address"}],"stateMutability":"nonpayable"},{"type":"function","name":"profile2_owner","inputs":[],"outputs":[{"name":"","type":"address","internalType":"address"}],"stateMutability":"nonpayable"},{"type":"function","name":"randomAddress","inputs":[],"outputs":[{"name":"","type":"address","internalType":"address"}],"stateMutability":"nonpayable"},{"type":"function","name":"recipient","inputs":[],"outputs":[{"name":"","type":"address","internalType":"address"}],"stateMutability":"nonpayable"},{"type":"function","name":"recipient1","inputs":[],"outputs":[{"name":"","type":"address","internalType":"address"}],"stateMutability":"nonpayable"},{"type":"function","name":"recipient2","inputs":[],"outputs":[{"name":"","type":"address","internalType":"address"}],"stateMutability":"nonpayable"},{"type":"function","name":"recipientAddress","inputs":[],"outputs":[{"name":"","type":"address","internalType":"address"}],"stateMutability":"nonpayable"},{"type":"function","name":"registry_owner","inputs":[],"outputs":[{"name":"","type":"address","internalType":"address"}],"stateMutability":"nonpayable"}],"bytecode":{"object":"0x60016080908152610120604052602e60c081815260a09162001e8b60e0399052805160099081556020820151600a906200003a9082620000f6565b5050503480156200004a57600080fd5b50620001c2565b634e487b7160e01b600052604160045260246000fd5b600181811c908216806200007c57607f821691505b6020821081036200009d57634e487b7160e01b600052602260045260246000fd5b50919050565b601f821115620000f157600081815260208120601f850160051c81016020861015620000cc5750805b601f850160051c820191505b81811015620000ed57828155600101620000d8565b5050505b505050565b81516001600160401b0381111562000112576200011262000051565b6200012a8162000123845462000067565b84620000a3565b602080601f831160018114620001625760008415620001495750858301515b600019600386901b1c1916600185901b178555620000ed565b600085815260208120601f198616915b82811015620001935788860151825594840194600190910190840162000172565b5085821015620001b25787850151600019600388901b60f8161c191681555b5050505050600190811b01905550565b611cb980620001d26000396000f3fe608060405234801561001057600080fd5b50600436106102ac5760003560e01c8063770b2e661161017b578063aa3744bd116100d8578063da4bf0871161008c578063e99ce91111610071578063e99ce91114610445578063ed62303a14610458578063ef0d790f1461046b57600080fd5b8063da4bf08714610435578063dac4eb161461043d57600080fd5b8063d1f2cd88116100bd578063d1f2cd8814610412578063d5bee9f51461041a578063d8c12dc21461042257600080fd5b8063aa3744bd14610402578063d1e82b581461040a57600080fd5b80638c7408c41161012f5780638e3c2493116101145780638e3c2493146103d7578063a0cf0aea146103df578063a407c67a146103fa57600080fd5b80638c7408c4146102ec5780638e0d1a50146103cf57600080fd5b80637b2edf32116101605780637b2edf32146103bf5780637cbe79ed146103c7578063829e423f146102ec57600080fd5b8063770b2e661461039757806379e62d0d146103b757600080fd5b8063392f37e91161022957806366d003ac116101dd57806370a32944116101c257806370a329441461038757806374d9284e146102ec578063759c9a861461038f57600080fd5b806366d003ac146103775780636a38dd0a1461037f57600080fd5b80634bf4ba211161020e5780634bf4ba2114610352578063587c1243146103675780635aff59991461036f57600080fd5b8063392f37e9146103335780633f26479e1461034957600080fd5b8063174eedde116102805780631e7bcb2e116102655780631e7bcb2e146102fb5780632e0f26251461030357806337d1c4041461032057600080fd5b8063174eedde146102ec5780631b96dce6146102f357600080fd5b8062b1fad7146102b1578063030e4006146102d65780630688b135146102de5780630f166ad4146102e6575b600080fd5b6102b9610473565b6040516001600160a01b0390911681526020015b60405180910390f35b6102b96104b8565b6102b96104f8565b306102b9565b60006102b9565b6102b9610538565b6102b9610578565b610312670de0b6b3a764000081565b6040519081526020016102cd565b61031261032e36600461148e565b6105b8565b61033b6106a2565b6040516102cd9291906115b7565b61031261271081565b61035a610739565b6040516102cd919061161c565b6102b961075c565b6102b961079c565b6102b96107dc565b6102b961081c565b61035a61085c565b6102b96108f4565b6103aa6103a5366004611699565b610934565b6040516102cd919061172c565b61035a610a0f565b6102b9610a77565b6102b9610ab7565b6102b9610af7565b6102b9610b37565b6102b973eeeeeeeeeeeeeeeeeeeeeeeeeeeeeeeeeeeeeeee81565b61035a610b77565b6102b9610bdf565b6102b9610c1f565b6102b9610c5f565b6102b9610c9f565b61031261043036600461180e565b610cdf565b6102b9610d0c565b6102b9610d4c565b6103126104533660046118a0565b610d8c565b6103126104663660046118d2565b610e26565b6102b9611029565b60006104b36040518060400160405280600d81526020017f706f6f6c5f6d616e616765723100000000000000000000000000000000000000815250611065565b905090565b60006104b36040518060400160405280601381526020017f70726f66696c65315f6e6f74414d656d62657200000000000000000000000000815250611065565b60006104b36040518060400160405280600a81526020017f726563697069656e743200000000000000000000000000000000000000000000815250611065565b60006104b36040518060400160405280600e81526020017f70726f66696c65325f6f776e6572000000000000000000000000000000000000815250611065565b60006104b36040518060400160405280601081526020017f70726f66696c65315f6d656d6265723100000000000000000000000000000000815250611065565b600b54600090610697576040805180820182526001815281518083018352600c81527f506f6f6c50726f66696c6531000000000000000000000000000000000000000060208281019190915282015290517f3a92f65f0000000000000000000000000000000000000000000000000000000081526001600160a01b03861691633a92f65f916106509160029188908890600401611976565b6020604051808303816000875af115801561066f573d6000803e3d6000fd5b505050506040513d601f19601f820116820180604052508101906106939190611a06565b600b555b50600b549392505050565b60098054600a80549192916106b690611a1f565b80601f01602080910402602001604051908101604052809291908181526020018280546106e290611a1f565b801561072f5780601f106107045761010080835404028352916020019161072f565b820191906000526020600020905b81548152906001019060200180831161071257829003601f168201915b5050505050905082565b604080516002808252606080830184529260208301908036833701905050905090565b60006104b36040518060400160405280601081526020017f70726f66696c65325f6d656d6265723100000000000000000000000000000000815250611065565b60006104b36040518060400160405280601081526020017f726563697069656e744164647265737300000000000000000000000000000000815250611065565b60006104b36040518060400160405280600981526020017f726563697069656e740000000000000000000000000000000000000000000000815250611065565b60006104b36040518060400160405280600d81526020017f706f6f6c5f6d616e616765723200000000000000000000000000000000000000815250611065565b60408051600280825260608083018452926000929190602083019080368337019050509050610889610578565b8160008151811061089c5761089c611a59565b60200260200101906001600160a01b031690816001600160a01b0316815250506108c4610a77565b816001815181106108d7576108d7611a59565b6001600160a01b0390921660209283029190910190910152919050565b60006104b36040518060400160405280600c81526020017f6e6f5f726563697069656e740000000000000000000000000000000000000000815250611065565b61093c611380565b61094d670de0a46bc207d800611077565b60208201526109636702c68af0bb140000611077565b604082015261097866038d7ea4c68000611077565b60608201526001600160a01b038516815260a0810184600281111561099f5761099f6116f2565b908160028111156109b2576109b26116f2565b90525060c081018360038111156109cb576109cb6116f2565b908160038111156109de576109de6116f2565b9052508151600003610a00576109fd670de0b6b3a764000060c8611a85565b82525b60e08101919091529392505050565b60408051600280825260608083018452926000929190602083019080368337019050509050610a3c610473565b81600081518110610a4f57610a4f611a59565b60200260200101906001600160a01b031690816001600160a01b0316815250506108c461081c565b60006104b36040518060400160405280601081526020017f70726f66696c65315f6d656d6265723200000000000000000000000000000000815250611065565b60006104b36040518060400160405280600a81526020017f616c6c6f5f6f776e657200000000000000000000000000000000000000000000815250611065565b60006104b36040518060400160405280600a81526020017f706f6f6c5f61646d696e00000000000000000000000000000000000000000000815250611065565b60006104b36040518060400160405280601081526020017f70726f66696c65325f6d656d6265723200000000000000000000000000000000815250611065565b60408051600280825260608083018452926000929190602083019080368337019050509050610ba461075c565b81600081518110610bb757610bb7611a59565b60200260200101906001600160a01b031690816001600160a01b0316815250506108c4610b37565b60006104b36040518060400160405280600a81526020017f726563697069656e743100000000000000000000000000000000000000000000815250611065565b60006104b36040518060400160405280601081526020017f706f6f6c5f6e6f74414d616e6167657200000000000000000000000000000000815250611065565b60006104b36040518060400160405280600e81526020017f70726f66696c65315f6f776e6572000000000000000000000000000000000000815250611065565b60006104b36040518060400160405280600b81526020017f72616e646f6d2063686164000000000000000000000000000000000000000000815250611065565b6000610d008888888888888860405180602001604052806000815250610e26565b98975050505050505050565b60006104b36040518060400160405280600d81526020017f616c6c6f5f747265617375727900000000000000000000000000000000000000815250611065565b60006104b36040518060400160405280600e81526020017f72656769737472795f6f776e6572000000000000000000000000000000000000815250611065565b60008481610daa610da462989680608087901b611a9c565b8361108e565b905060806f80000000000000000000000000000000610dcc8662989680611abe565b610dda84600160801b611abe565b610de7629896808a611a85565b610df19190611a85565b610dfb9190611a9c565b610e058985611a85565b610e0f9190611ad1565b610e199190611ad1565b901c979650505050505050565b600080610e3588868686610934565b60408051600280825260608201835292935060009290916020830190803683370190505090503081600081518110610e6f57610e6f611a59565b60200260200101906001600160a01b031690816001600160a01b0316815250503381600181518110610ea357610ea3611a59565b6001600160a01b03928316602091820292909201015273eeeeeeeeeeeeeeeeeeeeeeeeeeeeeeeeeeeeeeee90881615610ed95750865b8b6001600160a01b031663e1007d4a610efa8b610ef4610af7565b866105b8565b8d86604051602001610f0c919061172c565b6040516020818303038152906040528560006009896040518863ffffffff1660e01b8152600401610f439796959493929190611ae4565b6020604051808303816000875af1158015610f62573d6000803e3d6000fd5b505050506040513d601f19601f82011682018060405250810190610f869190611a06565b9350866002811115610f9a57610f9a6116f2565b8b6001600160a01b031663351d9f966040518163ffffffff1660e01b8152600401602060405180830381865afa158015610fd8573d6000803e3d6000fd5b505050506040513d601f19601f82011682018060405250810190610ffc9190611bf5565b600281111561100d5761100d6116f2565b1461101a5761101a611c12565b50505098975050505050505050565b60006104b36040518060400160405280601381526020017f70726f66696c65325f6e6f74414d656d626572000000000000000000000000008152505b60006110708261113c565b5092915050565b600061108864174876e80083611a9c565b92915050565b6000600160801b83106110e85760405162461bcd60e51b815260206004820152601c60248201527f5f612073686f756c64206265206c657373207468616e20325e3132380000000060448201526064015b60405180910390fd5b50600160801b82825b801561113457806001166000036111165761110c8283611281565b915060011c6110f1565b6111208383611281565b925061112d600182611abe565b90506110f1565b505092915050565b600080826040516020016111509190611c28565b60408051808303601f190181529082905280516020909101207fffa18649000000000000000000000000000000000000000000000000000000008252600482018190529150737109709ecfa91a80626ff3989d68f67f5b1dd12d9063ffa1864990602401602060405180830381865afa1580156111d1573d6000803e3d6000fd5b505050506040513d601f19601f820116820180604052508101906111f59190611c44565b6040517fc657c718000000000000000000000000000000000000000000000000000000008152909250737109709ecfa91a80626ff3989d68f67f5b1dd12d9063c657c7189061124a9085908790600401611c61565b600060405180830381600087803b15801561126457600080fd5b505af1158015611278573d6000803e3d6000fd5b50505050915091565b6000600160801b8311156112fd5760405162461bcd60e51b815260206004820152602860248201527f5f612073686f756c64206265206c657373207468616e206f7220657175616c2060448201527f746f20325e31323800000000000000000000000000000000000000000000000060648201526084016110df565b600160801b82106113505760405162461bcd60e51b815260206004820152601c60248201527f5f622073686f756c64206265206c657373207468616e20325e3132380000000060448201526064016110df565b60806f8000000000000000000000000000000061136d8486611a85565b6113779190611ad1565b901c9392505050565b60405180610140016040528060006001600160a01b0316815260200160008152602001600081526020016000815260200160008152602001600060028111156113cb576113cb6116f2565b8152602001600081526020016113ed6040518060200160405280600081525090565b81526040805160c08101825260008082526020828101829052928201819052606082018190526080820181905260a08201529101908152600060209091015290565b6001600160a01b038116811461144457600080fd5b50565b634e487b7160e01b600052604160045260246000fd5b604051601f8201601f1916810167ffffffffffffffff8111828210171561148657611486611447565b604052919050565b6000806000606084860312156114a357600080fd5b83356114ae8161142f565b92506020848101356114bf8161142f565b9250604085013567ffffffffffffffff808211156114dc57600080fd5b818701915087601f8301126114f057600080fd5b81358181111561150257611502611447565b8060051b915061151384830161145d565b818152918301840191848101908a84111561152d57600080fd5b938501935b8385101561155757843592506115478361142f565b8282529385019390850190611532565b8096505050505050509250925092565b60005b8381101561158257818101518382015260200161156a565b50506000910152565b600081518084526115a3816020860160208601611567565b601f01601f19169290920160200192915050565b8281526040602082015260006115d0604083018461158b565b949350505050565b600081518084526020808501945080840160005b838110156116115781516001600160a01b0316875295820195908201906001016115ec565b509495945050505050565b60208152600061162f60208301846115d8565b9392505050565b6003811061144457600080fd5b80356004811061165257600080fd5b919050565b60006020828403121561166957600080fd5b6040516020810181811067ffffffffffffffff8211171561168c5761168c611447565b6040529135825250919050565b600080600080608085870312156116af57600080fd5b84356116ba8161142f565b935060208501356116ca81611636565b92506116d860408601611643565b91506116e78660608701611657565b905092959194509250565b634e487b7160e01b600052602160045260246000fd5b60038110611718576117186116f2565b9052565b60048110611718576117186116f2565b81516001600160a01b031681526101e081016020830151602083015260408301516040830152606083015160608301526080830151608083015260a083015161177860a0840182611708565b5060c083015161178b60c084018261171c565b5060e083015161179e60e0840182519052565b506101008381015180516001600160a01b03908116858401526020820151811661012086015260408201516101408601526060820151610160860152608082015161018086015260a0820151166101a085015250506101208301516001600160a01b0381166101c0840152611070565b600080600080600080600060e0888a03121561182957600080fd5b87356118348161142f565b965060208801356118448161142f565b955060408801356118548161142f565b945060608801356118648161142f565b935060808801356118748161142f565b925060a088013561188481611636565b915061189260c08901611643565b905092959891949750929550565b600080600080608085870312156118b657600080fd5b5050823594602084013594506040840135936060013592509050565b600080600080600080600080610100898b0312156118ef57600080fd5b88356118fa8161142f565b9750602089013561190a8161142f565b9650604089013561191a8161142f565b9550606089013561192a8161142f565b9450608089013561193a8161142f565b935060a089013561194a81611636565b925061195860c08a01611643565b91506119678a60e08b01611657565b90509295985092959890939650565b84815260a06020820152600e60a08201527f506f6f6c2050726f66696c65203100000000000000000000000000000000000060c082015260e06040820152835160e08201526000602085015160406101008401526119d861012084018261158b565b90506001600160a01b038516606084015282810360808401526119fb81856115d8565b979650505050505050565b600060208284031215611a1857600080fd5b5051919050565b600181811c90821680611a3357607f821691505b602082108103611a5357634e487b7160e01b600052602260045260246000fd5b50919050565b634e487b7160e01b600052603260045260246000fd5b634e487b7160e01b600052601160045260246000fd5b808202811582820484141761108857611088611a6f565b600082611ab957634e487b7160e01b600052601260045260246000fd5b500490565b8181038181111561108857611088611a6f565b8082018082111561108857611088611a6f565b878152600060206001600160a01b03808a168285015260e06040850152611b0e60e085018a61158b565b818916606086015287608086015284810360a08601528654815260019150818701604084830152600081548181861c905085821680611b4e57607f821691505b8782108103611b6b57634e487b7160e01b84526022600452602484fd5b60408601829052606086019550808015611b8c5760018114611ba257611bcd565b60ff198416875282151560051b87019450611bcd565b60008681526020902060005b84811015611bc757815489820152908901908a01611bae565b88019550505b5050505086810360c0880152611be381896115d8565b9e9d5050505050505050505050505050565b600060208284031215611c0757600080fd5b815161162f81611636565b634e487b7160e01b600052600160045260246000fd5b60008251611c3a818460208701611567565b9190910192915050565b600060208284031215611c5657600080fd5b815161162f8161142f565b6001600160a01b03831681526040602082015260006115d0604083018461158b56fea2646970667358221220f8e0c540cfcc9333657f946f95b4d61a607a8809757f3797f6ab7aabb22ccbd464736f6c63430008130033516d57347a464c464a524e374a3637457a4e6d64433272324d397532694a44686132666a3547656536684a7a5359","linkReferences":{}},"methodIdentifiers":{"DECIMALS()":"2e0f2625","NATIVE()":"a0cf0aea","PERCENTAGE_SCALE()":"3f26479e","_calculateConviction(uint256,uint256,uint256,uint256)":"e99ce911","allo_owner()":"7cbe79ed","allo_treasury()":"da4bf087","createPool(address,address,address,address,address,uint8,uint8)":"d8c12dc2","createPool(address,address,address,address,address,uint8,uint8,(uint256))":"ed62303a","getParams(address,uint8,uint8,(uint256))":"770b2e66","local()":"0f166ad4","metadata()":"392f37e9","no_recipient()":"759c9a86","nullProfile_member1()":"829e423f","nullProfile_member2()":"8c7408c4","nullProfile_members()":"4bf4ba21","nullProfile_notAMember()":"174eedde","nullProfile_owner()":"74d9284e","poolProfile_id1(address,address,address[])":"37d1c404","pool_admin()":"8e0d1a50","pool_manager1()":"00b1fad7","pool_manager2()":"6a38dd0a","pool_managers()":"79e62d0d","pool_notAManager()":"d1e82b58","profile1_member1()":"1e7bcb2e","profile1_member2()":"7b2edf32","profile1_members()":"70a32944","profile1_notAMember()":"030e4006","profile1_owner()":"d1f2cd88","profile2_member1()":"587c1243","profile2_member2()":"8e3c2493","profile2_members()":"a407c67a","profile2_notAMember()":"ef0d790f","profile2_owner()":"1b96dce6","randomAddress()":"d5bee9f5","recipient()":"66d003ac","recipient1()":"aa3744bd","recipient2()":"0688b135","recipientAddress()":"5aff5999","registry_owner()":"dac4eb16"},"storageLayout":{"storage":[{"astId":9317,"contract":"pkg/contracts/test/CVStrategyHelpers.sol:CVStrategyHelpers","label":"gasMeteringOff","offset":0,"slot":"0","type":"t_bool"},{"astId":11354,"contract":"pkg/contracts/test/CVStrategyHelpers.sol:CVStrategyHelpers","label":"stdstore","offset":0,"slot":"1","type":"t_struct(StdStorage)13235_storage"},{"astId":91422,"contract":"pkg/contracts/test/CVStrategyHelpers.sol:CVStrategyHelpers","label":"metadata","offset":0,"slot":"9","type":"t_struct(Metadata)3098_storage"},{"astId":91434,"contract":"pkg/contracts/test/CVStrategyHelpers.sol:CVStrategyHelpers","label":"_poolProfileId1_","offset":0,"slot":"11","type":"t_bytes32"}],"types":{"t_address":{"encoding":"inplace","label":"address","numberOfBytes":"20"},"t_array(t_bytes32)dyn_storage":{"encoding":"dynamic_array","label":"bytes32[]","numberOfBytes":"32","base":"t_bytes32"},"t_bool":{"encoding":"inplace","label":"bool","numberOfBytes":"1"},"t_bytes32":{"encoding":"inplace","label":"bytes32","numberOfBytes":"32"},"t_bytes4":{"encoding":"inplace","label":"bytes4","numberOfBytes":"4"},"t_bytes_storage":{"encoding":"bytes","label":"bytes","numberOfBytes":"32"},"t_mapping(t_address,t_mapping(t_bytes4,t_mapping(t_bytes32,t_struct(FindData)13210_storage)))":{"encoding":"mapping","key":"t_address","label":"mapping(address => mapping(bytes4 => mapping(bytes32 => struct FindData)))","numberOfBytes":"32","value":"t_mapping(t_bytes4,t_mapping(t_bytes32,t_struct(FindData)13210_storage))"},"t_mapping(t_bytes32,t_struct(FindData)13210_storage)":{"encoding":"mapping","key":"t_bytes32","label":"mapping(bytes32 => struct FindData)","numberOfBytes":"32","value":"t_struct(FindData)13210_storage"},"t_mapping(t_bytes4,t_mapping(t_bytes32,t_struct(FindData)13210_storage))":{"encoding":"mapping","key":"t_bytes4","label":"mapping(bytes4 => mapping(bytes32 => struct FindData))","numberOfBytes":"32","value":"t_mapping(t_bytes32,t_struct(FindData)13210_storage)"},"t_string_storage":{"encoding":"bytes","label":"string","numberOfBytes":"32"},"t_struct(FindData)13210_storage":{"encoding":"inplace","label":"struct FindData","numberOfBytes":"128","members":[{"astId":13203,"contract":"pkg/contracts/test/CVStrategyHelpers.sol:CVStrategyHelpers","label":"slot","offset":0,"slot":"0","type":"t_uint256"},{"astId":13205,"contract":"pkg/contracts/test/CVStrategyHelpers.sol:CVStrategyHelpers","label":"offsetLeft","offset":0,"slot":"1","type":"t_uint256"},{"astId":13207,"contract":"pkg/contracts/test/CVStrategyHelpers.sol:CVStrategyHelpers","label":"offsetRight","offset":0,"slot":"2","type":"t_uint256"},{"astId":13209,"contract":"pkg/contracts/test/CVStrategyHelpers.sol:CVStrategyHelpers","label":"found","offset":0,"slot":"3","type":"t_bool"}]},"t_struct(Metadata)3098_storage":{"encoding":"inplace","label":"struct Metadata","numberOfBytes":"64","members":[{"astId":3094,"contract":"pkg/contracts/test/CVStrategyHelpers.sol:CVStrategyHelpers","label":"protocol","offset":0,"slot":"0","type":"t_uint256"},{"astId":3097,"contract":"pkg/contracts/test/CVStrategyHelpers.sol:CVStrategyHelpers","label":"pointer","offset":0,"slot":"1","type":"t_string_storage"}]},"t_struct(StdStorage)13235_storage":{"encoding":"inplace","label":"struct StdStorage","numberOfBytes":"256","members":[{"astId":13219,"contract":"pkg/contracts/test/CVStrategyHelpers.sol:CVStrategyHelpers","label":"finds","offset":0,"slot":"0","type":"t_mapping(t_address,t_mapping(t_bytes4,t_mapping(t_bytes32,t_struct(FindData)13210_storage)))"},{"astId":13222,"contract":"pkg/contracts/test/CVStrategyHelpers.sol:CVStrategyHelpers","label":"_keys","offset":0,"slot":"1","type":"t_array(t_bytes32)dyn_storage"},{"astId":13224,"contract":"pkg/contracts/test/CVStrategyHelpers.sol:CVStrategyHelpers","label":"_sig","offset":0,"slot":"2","type":"t_bytes4"},{"astId":13226,"contract":"pkg/contracts/test/CVStrategyHelpers.sol:CVStrategyHelpers","label":"_depth","offset":0,"slot":"3","type":"t_uint256"},{"astId":13228,"contract":"pkg/contracts/test/CVStrategyHelpers.sol:CVStrategyHelpers","label":"_target","offset":0,"slot":"4","type":"t_address"},{"astId":13230,"contract":"pkg/contracts/test/CVStrategyHelpers.sol:CVStrategyHelpers","label":"_set","offset":0,"slot":"5","type":"t_bytes32"},{"astId":13232,"contract":"pkg/contracts/test/CVStrategyHelpers.sol:CVStrategyHelpers","label":"_enable_packed_slots","offset":0,"slot":"6","type":"t_bool"},{"astId":13234,"contract":"pkg/contracts/test/CVStrategyHelpers.sol:CVStrategyHelpers","label":"_calldata","offset":0,"slot":"7","type":"t_bytes_storage"}]},"t_uint256":{"encoding":"inplace","label":"uint256","numberOfBytes":"32"}}},"id":146}