{"abi":[{"type":"function","name":"DECIMALS","inputs":[],"outputs":[{"name":"","type":"uint256","internalType":"uint256"}],"stateMutability":"view"},{"type":"function","name":"NATIVE","inputs":[],"outputs":[{"name":"","type":"address","internalType":"address"}],"stateMutability":"view"},{"type":"function","name":"_calculateConviction","inputs":[{"name":"_timePassed","type":"uint256","internalType":"uint256"},{"name":"_lastConv","type":"uint256","internalType":"uint256"},{"name":"_oldAmount","type":"uint256","internalType":"uint256"},{"name":"decay","type":"uint256","internalType":"uint256"}],"outputs":[{"name":"","type":"uint256","internalType":"uint256"}],"stateMutability":"pure"},{"type":"function","name":"allo_owner","inputs":[],"outputs":[{"name":"","type":"address","internalType":"address"}],"stateMutability":"nonpayable"},{"type":"function","name":"allo_treasury","inputs":[],"outputs":[{"name":"","type":"address","internalType":"address payable"}],"stateMutability":"nonpayable"},{"type":"function","name":"createPool","inputs":[{"name":"allo","type":"address","internalType":"contract Allo"},{"name":"strategy","type":"address","internalType":"address"},{"name":"registryCommunity","type":"address","internalType":"address"},{"name":"registry","type":"address","internalType":"contract IRegistry"},{"name":"token","type":"address","internalType":"address"},{"name":"proposalType","type":"uint8","internalType":"enum StrategyStruct.ProposalType"},{"name":"pointSystem","type":"uint8","internalType":"enum StrategyStruct.PointSystem"}],"outputs":[{"name":"poolId","type":"uint256","internalType":"uint256"}],"stateMutability":"nonpayable"},{"type":"function","name":"getParams","inputs":[{"name":"registryCommunity","type":"address","internalType":"address"},{"name":"proposalType","type":"uint8","internalType":"enum StrategyStruct.ProposalType"},{"name":"pointSystem","type":"uint8","internalType":"enum StrategyStruct.PointSystem"}],"outputs":[{"name":"params","type":"tuple","internalType":"struct StrategyStruct.InitializeParams","components":[{"name":"registryCommunity","type":"address","internalType":"address"},{"name":"decay","type":"uint256","internalType":"uint256"},{"name":"maxRatio","type":"uint256","internalType":"uint256"},{"name":"weight","type":"uint256","internalType":"uint256"},{"name":"proposalType","type":"uint8","internalType":"enum StrategyStruct.ProposalType"},{"name":"pointSystem","type":"uint8","internalType":"enum StrategyStruct.PointSystem"},{"name":"pointConfig","type":"tuple","internalType":"struct StrategyStruct.PointSystemConfig","components":[{"name":"pointsPerTokenStaked","type":"uint256","internalType":"uint256"},{"name":"maxAmount","type":"uint256","internalType":"uint256"},{"name":"pointsPerMember","type":"uint256","internalType":"uint256"},{"name":"tokensPerPoint","type":"uint256","internalType":"uint256"}]}]}],"stateMutability":"pure"},{"type":"function","name":"local","inputs":[],"outputs":[{"name":"","type":"address","internalType":"address"}],"stateMutability":"view"},{"type":"function","name":"metadata","inputs":[],"outputs":[{"name":"protocol","type":"uint256","internalType":"uint256"},{"name":"pointer","type":"string","internalType":"string"}],"stateMutability":"view"},{"type":"function","name":"no_recipient","inputs":[],"outputs":[{"name":"","type":"address","internalType":"address"}],"stateMutability":"nonpayable"},{"type":"function","name":"nullProfile_member1","inputs":[],"outputs":[{"name":"","type":"address","internalType":"address"}],"stateMutability":"pure"},{"type":"function","name":"nullProfile_member2","inputs":[],"outputs":[{"name":"","type":"address","internalType":"address"}],"stateMutability":"pure"},{"type":"function","name":"nullProfile_members","inputs":[],"outputs":[{"name":"","type":"address[]","internalType":"address[]"}],"stateMutability":"pure"},{"type":"function","name":"nullProfile_notAMember","inputs":[],"outputs":[{"name":"","type":"address","internalType":"address"}],"stateMutability":"pure"},{"type":"function","name":"nullProfile_owner","inputs":[],"outputs":[{"name":"","type":"address","internalType":"address"}],"stateMutability":"pure"},{"type":"function","name":"poolProfile_id1","inputs":[{"name":"registry","type":"address","internalType":"contract IRegistry"},{"name":"pool_admin","type":"address","internalType":"address"},{"name":"pool_managers","type":"address[]","internalType":"address[]"}],"outputs":[{"name":"","type":"bytes32","internalType":"bytes32"}],"stateMutability":"nonpayable"},{"type":"function","name":"pool_admin","inputs":[],"outputs":[{"name":"","type":"address","internalType":"address"}],"stateMutability":"nonpayable"},{"type":"function","name":"pool_manager1","inputs":[],"outputs":[{"name":"","type":"address","internalType":"address"}],"stateMutability":"nonpayable"},{"type":"function","name":"pool_manager2","inputs":[],"outputs":[{"name":"","type":"address","internalType":"address"}],"stateMutability":"nonpayable"},{"type":"function","name":"pool_managers","inputs":[],"outputs":[{"name":"","type":"address[]","internalType":"address[]"}],"stateMutability":"nonpayable"},{"type":"function","name":"pool_notAManager","inputs":[],"outputs":[{"name":"","type":"address","internalType":"address"}],"stateMutability":"nonpayable"},{"type":"function","name":"profile1_member1","inputs":[],"outputs":[{"name":"","type":"address","internalType":"address"}],"stateMutability":"nonpayable"},{"type":"function","name":"profile1_member2","inputs":[],"outputs":[{"name":"","type":"address","internalType":"address"}],"stateMutability":"nonpayable"},{"type":"function","name":"profile1_members","inputs":[],"outputs":[{"name":"","type":"address[]","internalType":"address[]"}],"stateMutability":"nonpayable"},{"type":"function","name":"profile1_notAMember","inputs":[],"outputs":[{"name":"","type":"address","internalType":"address"}],"stateMutability":"nonpayable"},{"type":"function","name":"profile1_owner","inputs":[],"outputs":[{"name":"","type":"address","internalType":"address"}],"stateMutability":"nonpayable"},{"type":"function","name":"profile2_member1","inputs":[],"outputs":[{"name":"","type":"address","internalType":"address"}],"stateMutability":"nonpayable"},{"type":"function","name":"profile2_member2","inputs":[],"outputs":[{"name":"","type":"address","internalType":"address"}],"stateMutability":"nonpayable"},{"type":"function","name":"profile2_members","inputs":[],"outputs":[{"name":"","type":"address[]","internalType":"address[]"}],"stateMutability":"nonpayable"},{"type":"function","name":"profile2_notAMember","inputs":[],"outputs":[{"name":"","type":"address","internalType":"address"}],"stateMutability":"nonpayable"},{"type":"function","name":"profile2_owner","inputs":[],"outputs":[{"name":"","type":"address","internalType":"address"}],"stateMutability":"nonpayable"},{"type":"function","name":"randomAddress","inputs":[],"outputs":[{"name":"","type":"address","internalType":"address"}],"stateMutability":"nonpayable"},{"type":"function","name":"recipient","inputs":[],"outputs":[{"name":"","type":"address","internalType":"address"}],"stateMutability":"nonpayable"},{"type":"function","name":"recipient1","inputs":[],"outputs":[{"name":"","type":"address","internalType":"address"}],"stateMutability":"nonpayable"},{"type":"function","name":"recipient2","inputs":[],"outputs":[{"name":"","type":"address","internalType":"address"}],"stateMutability":"nonpayable"},{"type":"function","name":"recipientAddress","inputs":[],"outputs":[{"name":"","type":"address","internalType":"address"}],"stateMutability":"nonpayable"},{"type":"function","name":"registry_owner","inputs":[],"outputs":[{"name":"","type":"address","internalType":"address"}],"stateMutability":"nonpayable"}],"bytecode":{"object":"0x60016080908152610120604052602e60c081815260a09162001c9e60e03990528051600890815560208201516009906200003a9082620000f6565b5050503480156200004a57600080fd5b50620001c2565b634e487b7160e01b600052604160045260246000fd5b600181811c908216806200007c57607f821691505b6020821081036200009d57634e487b7160e01b600052602260045260246000fd5b50919050565b601f821115620000f157600081815260208120601f850160051c81016020861015620000cc5750805b601f850160051c820191505b81811015620000ed57828155600101620000d8565b5050505b505050565b81516001600160401b0381111562000112576200011262000051565b6200012a8162000123845462000067565b84620000a3565b602080601f831160018114620001625760008415620001495750858301515b600019600386901b1c1916600185901b178555620000ed565b600085815260208120601f198616915b82811015620001935788860151825594840194600190910190840162000172565b5085821015620001b25787850151600019600388901b60f8161c191681555b5050505050600190811b01905550565b611acc80620001d26000396000f3fe608060405234801561001057600080fd5b50600436106102765760003560e01c806379e62d0d11610160578063a407c67a116100d8578063d8c12dc21161008c578063dac4eb1611610071578063dac4eb16146103fe578063e99ce91114610406578063ef0d790f1461041957600080fd5b8063d8c12dc2146103e3578063da4bf087146103f657600080fd5b8063d1e82b58116100bd578063d1e82b58146103cb578063d1f2cd88146103d3578063d5bee9f5146103db57600080fd5b8063a407c67a146103bb578063aa3744bd146103c357600080fd5b8063829e423f1161012f5780638e0d1a50116101145780638e0d1a50146103905780638e3c249314610398578063a0cf0aea146103a057600080fd5b8063829e423f146102b65780638c7408c4146102b657600080fd5b806379e62d0d146103585780637a330203146103605780637b2edf32146103805780637cbe79ed1461038857600080fd5b8063392f37e9116101f357806366d003ac116101c257806370a32944116101a757806370a329441461034857806374d9284e146102b6578063759c9a861461035057600080fd5b806366d003ac146103385780636a38dd0a1461034057600080fd5b8063392f37e9146102fd5780634bf4ba2114610313578063587c1243146103285780635aff59991461033057600080fd5b8063174eedde1161024a5780631e7bcb2e1161022f5780631e7bcb2e146102c55780632e0f2625146102cd57806337d1c404146102ea57600080fd5b8063174eedde146102b65780631b96dce6146102bd57600080fd5b8062b1fad71461027b578063030e4006146102a05780630688b135146102a85780630f166ad4146102b0575b600080fd5b610283610421565b6040516001600160a01b0390911681526020015b60405180910390f35b610283610466565b6102836104a6565b30610283565b6000610283565b6102836104e6565b610283610526565b6102dc670de0b6b3a764000081565b604051908152602001610297565b6102dc6102f83660046113f5565b610566565b610305610650565b604051610297929190611531565b61031b6106e7565b6040516102979190611596565b61028361070a565b61028361074a565b61028361078a565b6102836107ca565b61031b61080a565b6102836108a2565b61031b6108e2565b61037361036e3660046115cc565b61094a565b6040516102979190611629565b610283610a5e565b610283610a9e565b610283610ade565b610283610b1e565b61028373eeeeeeeeeeeeeeeeeeeeeeeeeeeeeeeeeeeeeeee81565b61031b610b5e565b610283610bc6565b610283610c06565b610283610c46565b610283610c86565b6102dc6103f13660046116c5565b610cc6565b610283610ec7565b610283610f07565b6102dc610414366004611757565b610f47565b610283610fe1565b60006104616040518060400160405280600d81526020017f706f6f6c5f6d616e61676572310000000000000000000000000000000000000081525061101d565b905090565b60006104616040518060400160405280601381526020017f70726f66696c65315f6e6f74414d656d6265720000000000000000000000000081525061101d565b60006104616040518060400160405280600a81526020017f726563697069656e74320000000000000000000000000000000000000000000081525061101d565b60006104616040518060400160405280600e81526020017f70726f66696c65325f6f776e657200000000000000000000000000000000000081525061101d565b60006104616040518060400160405280601081526020017f70726f66696c65315f6d656d626572310000000000000000000000000000000081525061101d565b600a54600090610645576040805180820182526001815281518083018352600c81527f506f6f6c50726f66696c6531000000000000000000000000000000000000000060208281019190915282015290517f3a92f65f0000000000000000000000000000000000000000000000000000000081526001600160a01b03861691633a92f65f916105fe9160029188908890600401611789565b6020604051808303816000875af115801561061d573d6000803e3d6000fd5b505050506040513d601f19601f820116820180604052508101906106419190611819565b600a555b50600a549392505050565b600880546009805491929161066490611832565b80601f016020809104026020016040519081016040528092919081815260200182805461069090611832565b80156106dd5780601f106106b2576101008083540402835291602001916106dd565b820191906000526020600020905b8154815290600101906020018083116106c057829003601f168201915b5050505050905082565b604080516002808252606080830184529260208301908036833701905050905090565b60006104616040518060400160405280601081526020017f70726f66696c65325f6d656d626572310000000000000000000000000000000081525061101d565b60006104616040518060400160405280601081526020017f726563697069656e74416464726573730000000000000000000000000000000081525061101d565b60006104616040518060400160405280600981526020017f726563697069656e74000000000000000000000000000000000000000000000081525061101d565b60006104616040518060400160405280600d81526020017f706f6f6c5f6d616e61676572320000000000000000000000000000000000000081525061101d565b60408051600280825260608083018452926000929190602083019080368337019050509050610837610526565b8160008151811061084a5761084a61186c565b60200260200101906001600160a01b031690816001600160a01b031681525050610872610a5e565b816001815181106108855761088561186c565b6001600160a01b0390921660209283029190910190910152919050565b60006104616040518060400160405280600c81526020017f6e6f5f726563697069656e74000000000000000000000000000000000000000081525061101d565b6040805160028082526060808301845292600092919060208301908036833701905050905061090f610421565b816000815181106109225761092261186c565b60200260200101906001600160a01b031690816001600160a01b0316815250506108726107ca565b610952611338565b610963670de0a46bc207d80061102f565b60208201526109796702c68af0bb14000061102f565b604082015261098e66038d7ea4c6800061102f565b60608201526001600160a01b0384168152608081018360028111156109b5576109b5611613565b908160028111156109c8576109c8611613565b90525060a081018260038111156109e1576109e1611613565b908160038111156109f4576109f4611613565b81525050610a236040518060800160405280600081526020016000815260200160008152602001600081525090565b621e84806020820152620f4240604082015261c3508152610a4d670de0b6b3a76400006001611898565b606082015260c08201529392505050565b60006104616040518060400160405280601081526020017f70726f66696c65315f6d656d626572320000000000000000000000000000000081525061101d565b60006104616040518060400160405280600a81526020017f616c6c6f5f6f776e65720000000000000000000000000000000000000000000081525061101d565b60006104616040518060400160405280600a81526020017f706f6f6c5f61646d696e0000000000000000000000000000000000000000000081525061101d565b60006104616040518060400160405280601081526020017f70726f66696c65325f6d656d626572320000000000000000000000000000000081525061101d565b60408051600280825260608083018452926000929190602083019080368337019050509050610b8b61070a565b81600081518110610b9e57610b9e61186c565b60200260200101906001600160a01b031690816001600160a01b031681525050610872610b1e565b60006104616040518060400160405280600a81526020017f726563697069656e74310000000000000000000000000000000000000000000081525061101d565b60006104616040518060400160405280601081526020017f706f6f6c5f6e6f74414d616e616765720000000000000000000000000000000081525061101d565b60006104616040518060400160405280600e81526020017f70726f66696c65315f6f776e657200000000000000000000000000000000000081525061101d565b60006104616040518060400160405280600b81526020017f72616e646f6d206368616400000000000000000000000000000000000000000081525061101d565b600080610cd487858561094a565b60408051600280825260608201835292935060009290916020830190803683370190505090503081600081518110610d0e57610d0e61186c565b60200260200101906001600160a01b031690816001600160a01b0316815250503381600181518110610d4257610d4261186c565b6001600160a01b03928316602091820292909201015273eeeeeeeeeeeeeeeeeeeeeeeeeeeeeeeeeeeeeeee90871615610d785750855b8a6001600160a01b031663e1007d4a610d998a610d93610ade565b86610566565b8c86604051602001610dab9190611629565b6040516020818303038152906040528560006008896040518863ffffffff1660e01b8152600401610de297969594939291906118af565b6020604051808303816000875af1158015610e01573d6000803e3d6000fd5b505050506040513d601f19601f82011682018060405250810190610e259190611819565b9350856002811115610e3957610e39611613565b8a6001600160a01b031663351d9f966040518163ffffffff1660e01b8152600401602060405180830381865afa158015610e77573d6000803e3d6000fd5b505050506040513d601f19601f82011682018060405250810190610e9b91906119c0565b6002811115610eac57610eac611613565b14610eb957610eb96119dd565b505050979650505050505050565b60006104616040518060400160405280600d81526020017f616c6c6f5f74726561737572790000000000000000000000000000000000000081525061101d565b60006104616040518060400160405280600e81526020017f72656769737472795f6f776e657200000000000000000000000000000000000081525061101d565b60008481610f65610f5f62989680608087901b6119f3565b83611046565b905060806f80000000000000000000000000000000610f878662989680611a15565b610f9584600160801b611a15565b610fa2629896808a611898565b610fac9190611898565b610fb691906119f3565b610fc08985611898565b610fca9190611a28565b610fd49190611a28565b901c979650505050505050565b60006104616040518060400160405280601381526020017f70726f66696c65325f6e6f74414d656d626572000000000000000000000000008152505b6000611028826110f4565b5092915050565b600061104064174876e800836119f3565b92915050565b6000600160801b83106110a05760405162461bcd60e51b815260206004820152601c60248201527f5f612073686f756c64206265206c657373207468616e20325e3132380000000060448201526064015b60405180910390fd5b50600160801b82825b80156110ec57806001166000036110ce576110c48283611239565b915060011c6110a9565b6110d88383611239565b92506110e5600182611a15565b90506110a9565b505092915050565b600080826040516020016111089190611a3b565b60408051808303601f190181529082905280516020909101207fffa18649000000000000000000000000000000000000000000000000000000008252600482018190529150737109709ecfa91a80626ff3989d68f67f5b1dd12d9063ffa1864990602401602060405180830381865afa158015611189573d6000803e3d6000fd5b505050506040513d601f19601f820116820180604052508101906111ad9190611a57565b6040517fc657c718000000000000000000000000000000000000000000000000000000008152909250737109709ecfa91a80626ff3989d68f67f5b1dd12d9063c657c718906112029085908790600401611a74565b600060405180830381600087803b15801561121c57600080fd5b505af1158015611230573d6000803e3d6000fd5b50505050915091565b6000600160801b8311156112b55760405162461bcd60e51b815260206004820152602860248201527f5f612073686f756c64206265206c657373207468616e206f7220657175616c2060448201527f746f20325e3132380000000000000000000000000000000000000000000000006064820152608401611097565b600160801b82106113085760405162461bcd60e51b815260206004820152601c60248201527f5f622073686f756c64206265206c657373207468616e20325e313238000000006044820152606401611097565b60806f800000000000000000000000000000006113258486611898565b61132f9190611a28565b901c9392505050565b6040518060e0016040528060006001600160a01b031681526020016000815260200160008152602001600081526020016000600281111561137b5761137b611613565b8152602001600081526020016113b26040518060800160405280600081526020016000815260200160008152602001600081525090565b905290565b6001600160a01b03811681146113cc57600080fd5b50565b80356113da816113b7565b919050565b634e487b7160e01b600052604160045260246000fd5b60008060006060848603121561140a57600080fd5b8335611415816113b7565b9250602084810135611426816113b7565b9250604085013567ffffffffffffffff8082111561144357600080fd5b818701915087601f83011261145757600080fd5b813581811115611469576114696113df565b8060051b604051601f19603f8301168101818110858211171561148e5761148e6113df565b60405291825284820192508381018501918a8311156114ac57600080fd5b938501935b828510156114d1576114c2856113cf565b845293850193928501926114b1565b8096505050505050509250925092565b60005b838110156114fc5781810151838201526020016114e4565b50506000910152565b6000815180845261151d8160208601602086016114e1565b601f01601f19169290920160200192915050565b82815260406020820152600061154a6040830184611505565b949350505050565b600081518084526020808501945080840160005b8381101561158b5781516001600160a01b031687529582019590820190600101611566565b509495945050505050565b6020815260006115a96020830184611552565b9392505050565b600381106113cc57600080fd5b8035600481106113da57600080fd5b6000806000606084860312156115e157600080fd5b83356115ec816113b7565b925060208401356115fc816115b0565b915061160a604085016115bd565b90509250925092565b634e487b7160e01b600052602160045260246000fd5b6000610140820190506001600160a01b03835116825260208301516020830152604083015160408301526060830151606083015260808301516003811061167257611672611613565b608083015260a08301516004811061168c5761168c611613565b60a083015260c083810151805191840191909152602081015160e084015260408101516101008401526060810151610120840152611028565b600080600080600080600060e0888a0312156116e057600080fd5b87356116eb816113b7565b965060208801356116fb816113b7565b9550604088013561170b816113b7565b9450606088013561171b816113b7565b9350608088013561172b816113b7565b925060a088013561173b816115b0565b915061174960c089016115bd565b905092959891949750929550565b6000806000806080858703121561176d57600080fd5b5050823594602084013594506040840135936060013592509050565b84815260a06020820152600e60a08201527f506f6f6c2050726f66696c65203100000000000000000000000000000000000060c082015260e06040820152835160e08201526000602085015160406101008401526117eb610120840182611505565b90506001600160a01b0385166060840152828103608084015261180e8185611552565b979650505050505050565b60006020828403121561182b57600080fd5b5051919050565b600181811c9082168061184657607f821691505b60208210810361186657634e487b7160e01b600052602260045260246000fd5b50919050565b634e487b7160e01b600052603260045260246000fd5b634e487b7160e01b600052601160045260246000fd5b808202811582820484141761104057611040611882565b878152600060206001600160a01b03808a168285015260e060408501526118d960e085018a611505565b818916606086015287608086015284810360a08601528654815260019150818701604084830152600081548181861c90508582168061191957607f821691505b878210810361193657634e487b7160e01b84526022600452602484fd5b60408601829052606086019550808015611957576001811461196d57611998565b60ff198416875282151560051b87019450611998565b60008681526020902060005b8481101561199257815489820152908901908a01611979565b88019550505b5050505086810360c08801526119ae8189611552565b9e9d5050505050505050505050505050565b6000602082840312156119d257600080fd5b81516115a9816115b0565b634e487b7160e01b600052600160045260246000fd5b600082611a1057634e487b7160e01b600052601260045260246000fd5b500490565b8181038181111561104057611040611882565b8082018082111561104057611040611882565b60008251611a4d8184602087016114e1565b9190910192915050565b600060208284031215611a6957600080fd5b81516115a9816113b7565b6001600160a01b038316815260406020820152600061154a604083018461150556fea264697066735822122026abb3b648c784e80d0ee628aba38f23846c341d433971125f92b57bdd9135a164736f6c63430008130033516d57347a464c464a524e374a3637457a4e6d64433272324d397532694a44686132666a3547656536684a7a5359","linkReferences":{}},"methodIdentifiers":{"DECIMALS()":"2e0f2625","NATIVE()":"a0cf0aea","_calculateConviction(uint256,uint256,uint256,uint256)":"e99ce911","allo_owner()":"7cbe79ed","allo_treasury()":"da4bf087","createPool(address,address,address,address,address,uint8,uint8)":"d8c12dc2","getParams(address,uint8,uint8)":"7a330203","local()":"0f166ad4","metadata()":"392f37e9","no_recipient()":"759c9a86","nullProfile_member1()":"829e423f","nullProfile_member2()":"8c7408c4","nullProfile_members()":"4bf4ba21","nullProfile_notAMember()":"174eedde","nullProfile_owner()":"74d9284e","poolProfile_id1(address,address,address[])":"37d1c404","pool_admin()":"8e0d1a50","pool_manager1()":"00b1fad7","pool_manager2()":"6a38dd0a","pool_managers()":"79e62d0d","pool_notAManager()":"d1e82b58","profile1_member1()":"1e7bcb2e","profile1_member2()":"7b2edf32","profile1_members()":"70a32944","profile1_notAMember()":"030e4006","profile1_owner()":"d1f2cd88","profile2_member1()":"587c1243","profile2_member2()":"8e3c2493","profile2_members()":"a407c67a","profile2_notAMember()":"ef0d790f","profile2_owner()":"1b96dce6","randomAddress()":"d5bee9f5","recipient()":"66d003ac","recipient1()":"aa3744bd","recipient2()":"0688b135","recipientAddress()":"5aff5999","registry_owner()":"dac4eb16"},"id":102}