{"abi":[{"type":"function","name":"DECIMALS","inputs":[],"outputs":[{"name":"","type":"uint256","internalType":"uint256"}],"stateMutability":"view"},{"type":"function","name":"NATIVE","inputs":[],"outputs":[{"name":"","type":"address","internalType":"address"}],"stateMutability":"view"},{"type":"function","name":"PERCENTAGE_SCALE","inputs":[],"outputs":[{"name":"","type":"uint256","internalType":"uint256"}],"stateMutability":"view"},{"type":"function","name":"_calculateConviction","inputs":[{"name":"_timePassed","type":"uint256","internalType":"uint256"},{"name":"_lastConv","type":"uint256","internalType":"uint256"},{"name":"_oldAmount","type":"uint256","internalType":"uint256"},{"name":"decay","type":"uint256","internalType":"uint256"}],"outputs":[{"name":"","type":"uint256","internalType":"uint256"}],"stateMutability":"pure"},{"type":"function","name":"allo_owner","inputs":[],"outputs":[{"name":"","type":"address","internalType":"address"}],"stateMutability":"nonpayable"},{"type":"function","name":"allo_treasury","inputs":[],"outputs":[{"name":"","type":"address","internalType":"address payable"}],"stateMutability":"nonpayable"},{"type":"function","name":"createPool","inputs":[{"name":"allo","type":"address","internalType":"contract Allo"},{"name":"strategy","type":"address","internalType":"address"},{"name":"registryCommunity","type":"address","internalType":"address"},{"name":"registry","type":"address","internalType":"contract IRegistry"},{"name":"token","type":"address","internalType":"address"},{"name":"proposalType","type":"uint8","internalType":"enum ProposalType"},{"name":"pointSystem","type":"uint8","internalType":"enum PointSystem"},{"name":"arbitrableConfig","type":"tuple","internalType":"struct ArbitrableConfig","components":[{"name":"arbitrator","type":"address","internalType":"contract IArbitrator"},{"name":"tribunalSafe","type":"address","internalType":"address"},{"name":"submitterCollateralAmount","type":"uint256","internalType":"uint256"},{"name":"challengerCollateralAmount","type":"uint256","internalType":"uint256"},{"name":"defaultRuling","type":"uint256","internalType":"uint256"},{"name":"defaultRulingTimeout","type":"uint256","internalType":"uint256"}]}],"outputs":[{"name":"poolId","type":"uint256","internalType":"uint256"}],"stateMutability":"nonpayable"},{"type":"function","name":"createPool","inputs":[{"name":"allo","type":"address","internalType":"contract Allo"},{"name":"strategy","type":"address","internalType":"address"},{"name":"registryCommunity","type":"address","internalType":"address"},{"name":"registry","type":"address","internalType":"contract IRegistry"},{"name":"token","type":"address","internalType":"address"},{"name":"proposalType","type":"uint8","internalType":"enum ProposalType"},{"name":"pointSystem","type":"uint8","internalType":"enum PointSystem"},{"name":"pointConfig","type":"tuple","internalType":"struct PointSystemConfig","components":[{"name":"maxAmount","type":"uint256","internalType":"uint256"}]},{"name":"arbitrableConfig","type":"tuple","internalType":"struct ArbitrableConfig","components":[{"name":"arbitrator","type":"address","internalType":"contract IArbitrator"},{"name":"tribunalSafe","type":"address","internalType":"address"},{"name":"submitterCollateralAmount","type":"uint256","internalType":"uint256"},{"name":"challengerCollateralAmount","type":"uint256","internalType":"uint256"},{"name":"defaultRuling","type":"uint256","internalType":"uint256"},{"name":"defaultRulingTimeout","type":"uint256","internalType":"uint256"}]}],"outputs":[{"name":"poolId","type":"uint256","internalType":"uint256"}],"stateMutability":"nonpayable"},{"type":"function","name":"getParams","inputs":[{"name":"registryCommunity","type":"address","internalType":"address"},{"name":"proposalType","type":"uint8","internalType":"enum ProposalType"},{"name":"pointSystem","type":"uint8","internalType":"enum PointSystem"},{"name":"pointConfig","type":"tuple","internalType":"struct PointSystemConfig","components":[{"name":"maxAmount","type":"uint256","internalType":"uint256"}]},{"name":"arbitrableConfig","type":"tuple","internalType":"struct ArbitrableConfig","components":[{"name":"arbitrator","type":"address","internalType":"contract IArbitrator"},{"name":"tribunalSafe","type":"address","internalType":"address"},{"name":"submitterCollateralAmount","type":"uint256","internalType":"uint256"},{"name":"challengerCollateralAmount","type":"uint256","internalType":"uint256"},{"name":"defaultRuling","type":"uint256","internalType":"uint256"},{"name":"defaultRulingTimeout","type":"uint256","internalType":"uint256"}]},{"name":"initialAllowlist","type":"address[]","internalType":"address[]"}],"outputs":[{"name":"params","type":"tuple","internalType":"struct CVStrategyInitializeParamsV0_1","components":[{"name":"cvParams","type":"tuple","internalType":"struct CVParams","components":[{"name":"maxRatio","type":"uint256","internalType":"uint256"},{"name":"weight","type":"uint256","internalType":"uint256"},{"name":"decay","type":"uint256","internalType":"uint256"},{"name":"minThresholdPoints","type":"uint256","internalType":"uint256"}]},{"name":"proposalType","type":"uint8","internalType":"enum ProposalType"},{"name":"pointSystem","type":"uint8","internalType":"enum PointSystem"},{"name":"pointConfig","type":"tuple","internalType":"struct PointSystemConfig","components":[{"name":"maxAmount","type":"uint256","internalType":"uint256"}]},{"name":"arbitrableConfig","type":"tuple","internalType":"struct ArbitrableConfig","components":[{"name":"arbitrator","type":"address","internalType":"contract IArbitrator"},{"name":"tribunalSafe","type":"address","internalType":"address"},{"name":"submitterCollateralAmount","type":"uint256","internalType":"uint256"},{"name":"challengerCollateralAmount","type":"uint256","internalType":"uint256"},{"name":"defaultRuling","type":"uint256","internalType":"uint256"},{"name":"defaultRulingTimeout","type":"uint256","internalType":"uint256"}]},{"name":"registryCommunity","type":"address","internalType":"address"},{"name":"sybilScorer","type":"address","internalType":"address"},{"name":"initialAllowlist","type":"address[]","internalType":"address[]"}]}],"stateMutability":"pure"},{"type":"function","name":"local","inputs":[],"outputs":[{"name":"","type":"address","internalType":"address"}],"stateMutability":"view"},{"type":"function","name":"metadata","inputs":[],"outputs":[{"name":"protocol","type":"uint256","internalType":"uint256"},{"name":"pointer","type":"string","internalType":"string"}],"stateMutability":"view"},{"type":"function","name":"no_recipient","inputs":[],"outputs":[{"name":"","type":"address","internalType":"address"}],"stateMutability":"nonpayable"},{"type":"function","name":"nullProfile_member1","inputs":[],"outputs":[{"name":"","type":"address","internalType":"address"}],"stateMutability":"pure"},{"type":"function","name":"nullProfile_member2","inputs":[],"outputs":[{"name":"","type":"address","internalType":"address"}],"stateMutability":"pure"},{"type":"function","name":"nullProfile_members","inputs":[],"outputs":[{"name":"","type":"address[]","internalType":"address[]"}],"stateMutability":"pure"},{"type":"function","name":"nullProfile_notAMember","inputs":[],"outputs":[{"name":"","type":"address","internalType":"address"}],"stateMutability":"pure"},{"type":"function","name":"nullProfile_owner","inputs":[],"outputs":[{"name":"","type":"address","internalType":"address"}],"stateMutability":"pure"},{"type":"function","name":"poolProfile_id1","inputs":[{"name":"registry","type":"address","internalType":"contract IRegistry"},{"name":"pool_admin","type":"address","internalType":"address"},{"name":"pool_managers","type":"address[]","internalType":"address[]"}],"outputs":[{"name":"","type":"bytes32","internalType":"bytes32"}],"stateMutability":"nonpayable"},{"type":"function","name":"pool_admin","inputs":[],"outputs":[{"name":"","type":"address","internalType":"address"}],"stateMutability":"nonpayable"},{"type":"function","name":"pool_manager1","inputs":[],"outputs":[{"name":"","type":"address","internalType":"address"}],"stateMutability":"nonpayable"},{"type":"function","name":"pool_manager2","inputs":[],"outputs":[{"name":"","type":"address","internalType":"address"}],"stateMutability":"nonpayable"},{"type":"function","name":"pool_managers","inputs":[],"outputs":[{"name":"","type":"address[]","internalType":"address[]"}],"stateMutability":"nonpayable"},{"type":"function","name":"pool_notAManager","inputs":[],"outputs":[{"name":"","type":"address","internalType":"address"}],"stateMutability":"nonpayable"},{"type":"function","name":"profile1_member1","inputs":[],"outputs":[{"name":"","type":"address","internalType":"address"}],"stateMutability":"nonpayable"},{"type":"function","name":"profile1_member2","inputs":[],"outputs":[{"name":"","type":"address","internalType":"address"}],"stateMutability":"nonpayable"},{"type":"function","name":"profile1_members","inputs":[],"outputs":[{"name":"","type":"address[]","internalType":"address[]"}],"stateMutability":"nonpayable"},{"type":"function","name":"profile1_notAMember","inputs":[],"outputs":[{"name":"","type":"address","internalType":"address"}],"stateMutability":"nonpayable"},{"type":"function","name":"profile1_owner","inputs":[],"outputs":[{"name":"","type":"address","internalType":"address"}],"stateMutability":"nonpayable"},{"type":"function","name":"profile2_member1","inputs":[],"outputs":[{"name":"","type":"address","internalType":"address"}],"stateMutability":"nonpayable"},{"type":"function","name":"profile2_member2","inputs":[],"outputs":[{"name":"","type":"address","internalType":"address"}],"stateMutability":"nonpayable"},{"type":"function","name":"profile2_members","inputs":[],"outputs":[{"name":"","type":"address[]","internalType":"address[]"}],"stateMutability":"nonpayable"},{"type":"function","name":"profile2_notAMember","inputs":[],"outputs":[{"name":"","type":"address","internalType":"address"}],"stateMutability":"nonpayable"},{"type":"function","name":"profile2_owner","inputs":[],"outputs":[{"name":"","type":"address","internalType":"address"}],"stateMutability":"nonpayable"},{"type":"function","name":"randomAddress","inputs":[],"outputs":[{"name":"","type":"address","internalType":"address"}],"stateMutability":"nonpayable"},{"type":"function","name":"recipient","inputs":[],"outputs":[{"name":"","type":"address","internalType":"address"}],"stateMutability":"nonpayable"},{"type":"function","name":"recipient1","inputs":[],"outputs":[{"name":"","type":"address","internalType":"address"}],"stateMutability":"nonpayable"},{"type":"function","name":"recipient2","inputs":[],"outputs":[{"name":"","type":"address","internalType":"address"}],"stateMutability":"nonpayable"},{"type":"function","name":"recipientAddress","inputs":[],"outputs":[{"name":"","type":"address","internalType":"address"}],"stateMutability":"nonpayable"},{"type":"function","name":"registry_owner","inputs":[],"outputs":[{"name":"","type":"address","internalType":"address"}],"stateMutability":"nonpayable"}],"bytecode":{"object":"0x60016080908152610120604052602e60c081815260a09162001d3560e0399052805160099081556020820151600a906200003a9082620000f6565b5050503480156200004a57600080fd5b50620001c2565b634e487b7160e01b600052604160045260246000fd5b600181811c908216806200007c57607f821691505b6020821081036200009d57634e487b7160e01b600052602260045260246000fd5b50919050565b601f821115620000f157600081815260208120601f850160051c81016020861015620000cc5750805b601f850160051c820191505b81811015620000ed57828155600101620000d8565b5050505b505050565b81516001600160401b0381111562000112576200011262000051565b6200012a8162000123845462000067565b84620000a3565b602080601f831160018114620001625760008415620001495750858301515b600019600386901b1c1916600185901b178555620000ed565b600085815260208120601f198616915b82811015620001935788860151825594840194600190910190840162000172565b5085821015620001b25787850151600019600388901b60f8161c191681555b5050505050600190811b01905550565b611b6380620001d26000396000f3fe608060405234801561001057600080fd5b50600436106101cc5760003560e01c8062b1fad7146101d1578063030e4006146101f65780630688b135146101fe5780630f166ad414610206578063174eedde1461020c5780631b96dce6146102135780631e7bcb2e1461021b578063237e6b5f146102235780632e0f26251461024357806337d1c40414610260578063392f37e9146102735780633f26479e146102895780634bf4ba2114610292578063587c1243146102a75780635aff5999146102af57806366d003ac146102b75780636a38dd0a146102bf57806370a32944146102c757806374d9284e1461020c578063759c9a86146102cf57806379e62d0d146102d75780637b2edf32146102df5780637cbe79ed146102e7578063829e423f1461020c57806385294f18146102ef5780638c7408c41461020c5780638e0d1a50146103025780638e3c24931461030a578063a0cf0aea14610312578063a407c67a1461032d578063aa3744bd14610335578063d1e82b581461033d578063d1f2cd8814610345578063d5bee9f51461034d578063da4bf08714610355578063dac4eb161461035d578063e070e0ab14610365578063e99ce91114610378578063ef0d790f1461038b575b600080fd5b6101d9610393565b6040516001600160a01b0390911681526020015b60405180910390f35b6101d96103c8565b6101d96103fe565b306101d9565b60006101d9565b6101d961042b565b6101d961045c565b6102366102313660046113be565b61048f565b6040516101ed91906114d2565b610252670de0b6b3a764000081565b6040519081526020016101ed565b61025261026e3660046115c9565b61058e565b61027b61064e565b6040516101ed92919061167a565b61025261271081565b61029a6106e5565b6040516101ed9190611693565b6101d9610708565b6101d961073b565b6101d961076e565b6101d961079a565b61029a6107ca565b6101d9610862565b61029a610891565b6101d96108f9565b6101d961092c565b6102526102fd3660046116ad565b610959565b6101d9610988565b6101d96109b5565b6101d973eeeeeeeeeeeeeeeeeeeeeeeeeeeeeeeeeeeeeeee81565b61029a6109e8565b6101d9610a50565b6101d9610a7d565b6101d9610ab0565b6101d9610ae1565b6101d9610b0f565b6101d9610b3f565b610252610373366004611751565b610b70565b610252610386366004611807565b610da1565b6101d9610e2f565b60006103c36040518060400160405280600d81526020016c706f6f6c5f6d616e616765723160981b815250610e61565b905090565b60006103c360405180604001604052806013815260200172383937b334b63298afb737ba20a6b2b6b132b960691b815250610e61565b60006103c36040518060400160405280600a8152602001693932b1b4b834b2b73a1960b11b815250610e61565b60006103c36040518060400160405280600e81526020016d383937b334b632992fb7bbb732b960911b815250610e61565b60006103c36040518060400160405280601081526020016f70726f66696c65315f6d656d6265723160801b815250610e61565b61049761112a565b6104a8670de0a46bc207d800610e73565b8151604001526104bf6702c68af0bb140000610e73565b8151526104d266038d7ea4c68000610e73565b815160209081019190915281516702c68af0bb1400006060909101526001600160a01b03881660a0830152810186600281111561051157610511611454565b9081600281111561052457610524611454565b9052506040810185600381111561053d5761053d611454565b9081600381111561055057610550611454565b90525083516000036105725761056f670de0b6b3a764000060c861184f565b84525b6060810193909352608083019190915260e08201529392505050565b600b54600090610643576040805180820182526001815281518083018352600c81526b506f6f6c50726f66696c653160a01b6020828101919091528201529051633a92f65f60e01b81526001600160a01b03861691633a92f65f916105fc9160029188908890600401611866565b6020604051808303816000875af115801561061b573d6000803e3d6000fd5b505050506040513d601f19601f8201168201806040525081019061063f91906118dc565b600b555b50600b549392505050565b60098054600a8054919291610662906118f5565b80601f016020809104026020016040519081016040528092919081815260200182805461068e906118f5565b80156106db5780601f106106b0576101008083540402835291602001916106db565b820191906000526020600020905b8154815290600101906020018083116106be57829003601f168201915b5050505050905082565b604080516002808252606080830184529260208301908036833701905050905090565b60006103c36040518060400160405280601081526020016f70726f66696c65325f6d656d6265723160801b815250610e61565b60006103c36040518060400160405280601081526020016f726563697069656e744164647265737360801b815250610e61565b60006103c3604051806040016040528060098152602001681c9958da5c1a595b9d60ba1b815250610e61565b60006103c36040518060400160405280600d81526020016c3837b7b62fb6b0b730b3b2b91960991b815250610e61565b604080516002808252606080830184529260009291906020830190803683370190505090506107f761045c565b8160008151811061080a5761080a61192f565b60200260200101906001600160a01b031690816001600160a01b0316815250506108326108f9565b816001815181106108455761084561192f565b6001600160a01b0390921660209283029190910190910152919050565b60006103c36040518060400160405280600c81526020016b1b9bd7dc9958da5c1a595b9d60a21b815250610e61565b604080516002808252606080830184529260009291906020830190803683370190505090506108be610393565b816000815181106108d1576108d161192f565b60200260200101906001600160a01b031690816001600160a01b03168152505061083261079a565b60006103c36040518060400160405280601081526020016f383937b334b63298afb6b2b6b132b91960811b815250610e61565b60006103c36040518060400160405280600a81526020016930b63637afb7bbb732b960b11b815250610e61565b600061097b89898989898989604051806020016040528060008152508a610b70565b9998505050505050505050565b60006103c36040518060400160405280600a8152602001693837b7b62fb0b236b4b760b11b815250610e61565b60006103c36040518060400160405280601081526020016f383937b334b632992fb6b2b6b132b91960811b815250610e61565b60408051600280825260608083018452926000929190602083019080368337019050509050610a15610708565b81600081518110610a2857610a2861192f565b60200260200101906001600160a01b031690816001600160a01b0316815250506108326109b5565b60006103c36040518060400160405280600a815260200169726563697069656e743160b01b815250610e61565b60006103c36040518060400160405280601081526020016f3837b7b62fb737ba20a6b0b730b3b2b960811b815250610e61565b60006103c36040518060400160405280600e81526020016d383937b334b63298afb7bbb732b960911b815250610e61565b60006103c36040518060400160405280600b81526020016a1c985b991bdb4818da185960aa1b815250610e61565b60006103c36040518060400160405280600d81526020016c616c6c6f5f747265617375727960981b815250610e61565b60006103c36040518060400160405280600e81526020016d3932b3b4b9ba393cafb7bbb732b960911b815250610e61565b600080610bac89878787876001604051908082528060200260200182016040528015610ba6578160200160208202803683370190505b5061048f565b60408051600280825260608201835292935060009290916020830190803683370190505090503081600081518110610be657610be661192f565b60200260200101906001600160a01b031690816001600160a01b0316815250503381600181518110610c1a57610c1a61192f565b6001600160a01b03928316602091820292909201015273eeeeeeeeeeeeeeeeeeeeeeeeeeeeeeeeeeeeeeee90891615610c505750875b8c6001600160a01b031663e1007d4a610c718c610c6b610988565b8661058e565b8e86604051602001610c8391906114d2565b6040516020818303038152906040528560006009896040518863ffffffff1660e01b8152600401610cba9796959493929190611945565b6020604051808303816000875af1158015610cd9573d6000803e3d6000fd5b505050506040513d601f19601f82011682018060405250810190610cfd91906118dc565b9350876002811115610d1157610d11611454565b8c6001600160a01b031663351d9f966040518163ffffffff1660e01b8152600401602060405180830381865afa158015610d4f573d6000803e3d6000fd5b505050506040513d601f19601f82011682018060405250810190610d739190611a55565b6002811115610d8457610d84611454565b14610d9157610d91611a72565b5050509998505050505050505050565b60008481610dbf610db962989680608087901b611a88565b83610e8a565b905060806001607f1b610dd58662989680611aaa565b610de384600160801b611aaa565b610df0629896808a61184f565b610dfa919061184f565b610e049190611a88565b610e0e898561184f565b610e189190611abd565b610e229190611abd565b901c979650505050505050565b60006103c360405180604001604052806013815260200172383937b334b632992fb737ba20a6b2b6b132b960691b8152505b6000610e6c82610f37565b5092915050565b6000610e8464174876e80083611a88565b92915050565b6000600160801b8310610ee35760405162461bcd60e51b815260206004820152601c60248201527b0bec240e6d0deead8c840c4ca40d8cae6e640e8d0c2dc4064bc6264760231b60448201526064015b60405180910390fd5b50600160801b82825b8015610f2f5780600116600003610f1157610f07828361104d565b915060011c610eec565b610f1b838361104d565b9250610f28600182611aaa565b9050610eec565b505092915050565b60008082604051602001610f4b9190611ad0565b60408051808303601f190181529082905280516020909101206001625e79b760e01b03198252600482018190529150737109709ecfa91a80626ff3989d68f67f5b1dd12d9063ffa1864990602401602060405180830381865afa158015610fb6573d6000803e3d6000fd5b505050506040513d601f19601f82011682018060405250810190610fda9190611aec565b6040516318caf8e360e31b8152909250737109709ecfa91a80626ff3989d68f67f5b1dd12d9063c657c718906110169085908790600401611b09565b600060405180830381600087803b15801561103057600080fd5b505af1158015611044573d6000803e3d6000fd5b50505050915091565b6000600160801b8311156110b45760405162461bcd60e51b815260206004820152602860248201527f5f612073686f756c64206265206c657373207468616e206f7220657175616c206044820152670e8de4064bc6264760c31b6064820152608401610eda565b600160801b82106111065760405162461bcd60e51b815260206004820152601c60248201527b0bec440e6d0deead8c840c4ca40d8cae6e640e8d0c2dc4064bc6264760231b6044820152606401610eda565b60806001607f1b611117848661184f565b6111219190611abd565b901c9392505050565b6040518061010001604052806111616040518060800160405280600081526020016000815260200160008152602001600081525090565b8152602001600081526020016000815260200161118a6040518060200160405280600081525090565b81526020016111da6040518060c0016040528060006001600160a01b0316815260200160006001600160a01b03168152602001600081526020016000815260200160008152602001600081525090565b8152600060208201819052604082015260609081015290565b6001600160a01b03169052565b6001600160a01b038116811461121557600080fd5b50565b6003811061121557600080fd5b80356004811061123457600080fd5b919050565b634e487b7160e01b600052604160045260246000fd5b60006020828403121561126157600080fd5b604051602081016001600160401b038111828210171561128357611283611239565b6040529135825250919050565b600060c082840312156112a257600080fd5b60405160c081016001600160401b03811182821017156112c4576112c4611239565b60405290508082356112d581611200565b815260208301356112e581611200565b8060208301525060408301356040820152606083013560608201526080830135608082015260a083013560a08201525092915050565b600082601f83011261132c57600080fd5b813560206001600160401b038083111561134857611348611239565b8260051b604051601f19603f8301168101818110848211171561136d5761136d611239565b60405293845285810183019383810192508785111561138b57600080fd5b83870191505b848210156113b35781356113a481611200565b83529183019190830190611391565b979650505050505050565b60008060008060008061016087890312156113d857600080fd5b86356113e381611200565b955060208701356113f381611218565b945061140160408801611225565b9350611410886060890161124f565b925061141f8860808901611290565b91506101408701356001600160401b0381111561143b57600080fd5b61144789828a0161131b565b9150509295509295509295565b634e487b7160e01b600052602160045260246000fd5b6003811061147a5761147a611454565b9052565b6004811061147a5761147a611454565b600081518084526020808501945080840160005b838110156114c75781516001600160a01b0316875295820195908201906001016114a2565b509495945050505050565b60208152600082518051602084015260208101516040840152604081015160608401526060810151608084015250602083015161151260a084018261146a565b50604083015161152560c084018261147e565b506060838101515160e084015260808085015180516001600160a01b0390811661010087015260208201511661012086015260408101516101408601529182015161016085015281015161018084015260a0908101516101a08401528301516115926101c08401826111f3565b5060c08301516115a66101e08401826111f3565b5060e0830151610200838101526115c161022084018261148e565b949350505050565b6000806000606084860312156115de57600080fd5b83356115e981611200565b925060208401356115f981611200565b915060408401356001600160401b0381111561161457600080fd5b6116208682870161131b565b9150509250925092565b60005b8381101561164557818101518382015260200161162d565b50506000910152565b6000815180845261166681602086016020860161162a565b601f01601f19169290920160200192915050565b8281526040602082015260006115c1604083018461164e565b6020815260006116a6602083018461148e565b9392505050565b6000806000806000806000806101a0898b0312156116ca57600080fd5b88356116d581611200565b975060208901356116e581611200565b965060408901356116f581611200565b9550606089013561170581611200565b9450608089013561171581611200565b935060a089013561172581611218565b925061173360c08a01611225565b91506117428a60e08b01611290565b90509295985092959890939650565b60008060008060008060008060006101c08a8c03121561177057600080fd5b893561177b81611200565b985060208a013561178b81611200565b975060408a013561179b81611200565b965060608a01356117ab81611200565b955060808a01356117bb81611200565b945060a08a01356117cb81611218565b93506117d960c08b01611225565b92506117e88b60e08c0161124f565b91506117f88b6101008c01611290565b90509295985092959850929598565b6000806000806080858703121561181d57600080fd5b5050823594602084013594506040840135936060013592509050565b634e487b7160e01b600052601160045260246000fd5b8082028115828204841417610e8457610e84611839565b84815260a06020820152600e60a08201526d506f6f6c2050726f66696c65203160901b60c082015260e06040820152835160e08201526000602085015160406101008401526118b961012084018261164e565b6001600160a01b0386166060850152838103608085015290506113b3818561148e565b6000602082840312156118ee57600080fd5b5051919050565b600181811c9082168061190957607f821691505b60208210810361192957634e487b7160e01b600052602260045260246000fd5b50919050565b634e487b7160e01b600052603260045260246000fd5b8781526000602060018060a01b03808a168285015260e0604085015261196e60e085018a61164e565b818916606086015287608086015284810360a08601528654815260019150818701604084830152600081548181861c9050858216806119ae57607f821691505b87821081036119cb57634e487b7160e01b84526022600452602484fd5b604086018290526060860195508080156119ec5760018114611a0257611a2d565b60ff198416875282151560051b87019450611a2d565b60008681526020902060005b84811015611a2757815489820152908901908a01611a0e565b88019550505b5050505086810360c0880152611a43818961148e565b9e9d5050505050505050505050505050565b600060208284031215611a6757600080fd5b81516116a681611218565b634e487b7160e01b600052600160045260246000fd5b600082611aa557634e487b7160e01b600052601260045260246000fd5b500490565b81810381811115610e8457610e84611839565b80820180821115610e8457610e84611839565b60008251611ae281846020870161162a565b9190910192915050565b600060208284031215611afe57600080fd5b81516116a681611200565b6001600160a01b03831681526040602082018190526000906115c19083018461164e56fea2646970667358221220ae583150e0225f6c62a532ad98194eb10ca28f4e26448dcabeda6c56fd3a769c64736f6c63430008130033516d57347a464c464a524e374a3637457a4e6d64433272324d397532694a44686132666a3547656536684a7a5359","linkReferences":{}},"methodIdentifiers":{"DECIMALS()":"2e0f2625","NATIVE()":"a0cf0aea","PERCENTAGE_SCALE()":"3f26479e","_calculateConviction(uint256,uint256,uint256,uint256)":"e99ce911","allo_owner()":"7cbe79ed","allo_treasury()":"da4bf087","createPool(address,address,address,address,address,uint8,uint8,(address,address,uint256,uint256,uint256,uint256))":"85294f18","createPool(address,address,address,address,address,uint8,uint8,(uint256),(address,address,uint256,uint256,uint256,uint256))":"e070e0ab","getParams(address,uint8,uint8,(uint256),(address,address,uint256,uint256,uint256,uint256),address[])":"237e6b5f","local()":"0f166ad4","metadata()":"392f37e9","no_recipient()":"759c9a86","nullProfile_member1()":"829e423f","nullProfile_member2()":"8c7408c4","nullProfile_members()":"4bf4ba21","nullProfile_notAMember()":"174eedde","nullProfile_owner()":"74d9284e","poolProfile_id1(address,address,address[])":"37d1c404","pool_admin()":"8e0d1a50","pool_manager1()":"00b1fad7","pool_manager2()":"6a38dd0a","pool_managers()":"79e62d0d","pool_notAManager()":"d1e82b58","profile1_member1()":"1e7bcb2e","profile1_member2()":"7b2edf32","profile1_members()":"70a32944","profile1_notAMember()":"030e4006","profile1_owner()":"d1f2cd88","profile2_member1()":"587c1243","profile2_member2()":"8e3c2493","profile2_members()":"a407c67a","profile2_notAMember()":"ef0d790f","profile2_owner()":"1b96dce6","randomAddress()":"d5bee9f5","recipient()":"66d003ac","recipient1()":"aa3744bd","recipient2()":"0688b135","recipientAddress()":"5aff5999","registry_owner()":"dac4eb16"},"storageLayout":{"storage":[{"astId":9359,"contract":"pkg/contracts/test/CVStrategyHelpers.sol:CVStrategyHelpers","label":"gasMeteringOff","offset":0,"slot":"0","type":"t_bool"},{"astId":11396,"contract":"pkg/contracts/test/CVStrategyHelpers.sol:CVStrategyHelpers","label":"stdstore","offset":0,"slot":"1","type":"t_struct(StdStorage)13277_storage"},{"astId":84241,"contract":"pkg/contracts/test/CVStrategyHelpers.sol:CVStrategyHelpers","label":"metadata","offset":0,"slot":"9","type":"t_struct(Metadata)3098_storage"},{"astId":84253,"contract":"pkg/contracts/test/CVStrategyHelpers.sol:CVStrategyHelpers","label":"_poolProfileId1_","offset":0,"slot":"11","type":"t_bytes32"}],"types":{"t_address":{"encoding":"inplace","label":"address","numberOfBytes":"20"},"t_array(t_bytes32)dyn_storage":{"encoding":"dynamic_array","label":"bytes32[]","numberOfBytes":"32","base":"t_bytes32"},"t_bool":{"encoding":"inplace","label":"bool","numberOfBytes":"1"},"t_bytes32":{"encoding":"inplace","label":"bytes32","numberOfBytes":"32"},"t_bytes4":{"encoding":"inplace","label":"bytes4","numberOfBytes":"4"},"t_bytes_storage":{"encoding":"bytes","label":"bytes","numberOfBytes":"32"},"t_mapping(t_address,t_mapping(t_bytes4,t_mapping(t_bytes32,t_struct(FindData)13252_storage)))":{"encoding":"mapping","key":"t_address","label":"mapping(address => mapping(bytes4 => mapping(bytes32 => struct FindData)))","numberOfBytes":"32","value":"t_mapping(t_bytes4,t_mapping(t_bytes32,t_struct(FindData)13252_storage))"},"t_mapping(t_bytes32,t_struct(FindData)13252_storage)":{"encoding":"mapping","key":"t_bytes32","label":"mapping(bytes32 => struct FindData)","numberOfBytes":"32","value":"t_struct(FindData)13252_storage"},"t_mapping(t_bytes4,t_mapping(t_bytes32,t_struct(FindData)13252_storage))":{"encoding":"mapping","key":"t_bytes4","label":"mapping(bytes4 => mapping(bytes32 => struct FindData))","numberOfBytes":"32","value":"t_mapping(t_bytes32,t_struct(FindData)13252_storage)"},"t_string_storage":{"encoding":"bytes","label":"string","numberOfBytes":"32"},"t_struct(FindData)13252_storage":{"encoding":"inplace","label":"struct FindData","numberOfBytes":"128","members":[{"astId":13245,"contract":"pkg/contracts/test/CVStrategyHelpers.sol:CVStrategyHelpers","label":"slot","offset":0,"slot":"0","type":"t_uint256"},{"astId":13247,"contract":"pkg/contracts/test/CVStrategyHelpers.sol:CVStrategyHelpers","label":"offsetLeft","offset":0,"slot":"1","type":"t_uint256"},{"astId":13249,"contract":"pkg/contracts/test/CVStrategyHelpers.sol:CVStrategyHelpers","label":"offsetRight","offset":0,"slot":"2","type":"t_uint256"},{"astId":13251,"contract":"pkg/contracts/test/CVStrategyHelpers.sol:CVStrategyHelpers","label":"found","offset":0,"slot":"3","type":"t_bool"}]},"t_struct(Metadata)3098_storage":{"encoding":"inplace","label":"struct Metadata","numberOfBytes":"64","members":[{"astId":3094,"contract":"pkg/contracts/test/CVStrategyHelpers.sol:CVStrategyHelpers","label":"protocol","offset":0,"slot":"0","type":"t_uint256"},{"astId":3097,"contract":"pkg/contracts/test/CVStrategyHelpers.sol:CVStrategyHelpers","label":"pointer","offset":0,"slot":"1","type":"t_string_storage"}]},"t_struct(StdStorage)13277_storage":{"encoding":"inplace","label":"struct StdStorage","numberOfBytes":"256","members":[{"astId":13261,"contract":"pkg/contracts/test/CVStrategyHelpers.sol:CVStrategyHelpers","label":"finds","offset":0,"slot":"0","type":"t_mapping(t_address,t_mapping(t_bytes4,t_mapping(t_bytes32,t_struct(FindData)13252_storage)))"},{"astId":13264,"contract":"pkg/contracts/test/CVStrategyHelpers.sol:CVStrategyHelpers","label":"_keys","offset":0,"slot":"1","type":"t_array(t_bytes32)dyn_storage"},{"astId":13266,"contract":"pkg/contracts/test/CVStrategyHelpers.sol:CVStrategyHelpers","label":"_sig","offset":0,"slot":"2","type":"t_bytes4"},{"astId":13268,"contract":"pkg/contracts/test/CVStrategyHelpers.sol:CVStrategyHelpers","label":"_depth","offset":0,"slot":"3","type":"t_uint256"},{"astId":13270,"contract":"pkg/contracts/test/CVStrategyHelpers.sol:CVStrategyHelpers","label":"_target","offset":0,"slot":"4","type":"t_address"},{"astId":13272,"contract":"pkg/contracts/test/CVStrategyHelpers.sol:CVStrategyHelpers","label":"_set","offset":0,"slot":"5","type":"t_bytes32"},{"astId":13274,"contract":"pkg/contracts/test/CVStrategyHelpers.sol:CVStrategyHelpers","label":"_enable_packed_slots","offset":0,"slot":"6","type":"t_bool"},{"astId":13276,"contract":"pkg/contracts/test/CVStrategyHelpers.sol:CVStrategyHelpers","label":"_calldata","offset":0,"slot":"7","type":"t_bytes_storage"}]},"t_uint256":{"encoding":"inplace","label":"uint256","numberOfBytes":"32"}}},"id":144}