{"abi":[{"type":"function","name":"DECIMALS","inputs":[],"outputs":[{"name":"","type":"uint256","internalType":"uint256"}],"stateMutability":"view"},{"type":"function","name":"NATIVE","inputs":[],"outputs":[{"name":"","type":"address","internalType":"address"}],"stateMutability":"view"},{"type":"function","name":"PERCENTAGE_SCALE","inputs":[],"outputs":[{"name":"","type":"uint256","internalType":"uint256"}],"stateMutability":"view"},{"type":"function","name":"_calculateConviction","inputs":[{"name":"_timePassed","type":"uint256","internalType":"uint256"},{"name":"_lastConv","type":"uint256","internalType":"uint256"},{"name":"_oldAmount","type":"uint256","internalType":"uint256"},{"name":"decay","type":"uint256","internalType":"uint256"}],"outputs":[{"name":"","type":"uint256","internalType":"uint256"}],"stateMutability":"pure"},{"type":"function","name":"allo_owner","inputs":[],"outputs":[{"name":"","type":"address","internalType":"address"}],"stateMutability":"nonpayable"},{"type":"function","name":"allo_treasury","inputs":[],"outputs":[{"name":"","type":"address","internalType":"address payable"}],"stateMutability":"nonpayable"},{"type":"function","name":"createPool","inputs":[{"name":"allo","type":"address","internalType":"contract Allo"},{"name":"strategy","type":"address","internalType":"address"},{"name":"registryCommunity","type":"address","internalType":"address"},{"name":"registry","type":"address","internalType":"contract IRegistry"},{"name":"token","type":"address","internalType":"address"},{"name":"proposalType","type":"uint8","internalType":"enum ProposalType"},{"name":"pointSystem","type":"uint8","internalType":"enum PointSystem"},{"name":"arbitrableConfig","type":"tuple","internalType":"struct ArbitrableConfig","components":[{"name":"arbitrator","type":"address","internalType":"contract IArbitrator"},{"name":"tribunalSafe","type":"address","internalType":"address"},{"name":"submitterCollateralAmount","type":"uint256","internalType":"uint256"},{"name":"challengerCollateralAmount","type":"uint256","internalType":"uint256"},{"name":"defaultRuling","type":"uint256","internalType":"uint256"},{"name":"defaultRulingTimeout","type":"uint256","internalType":"uint256"}]}],"outputs":[{"name":"poolId","type":"uint256","internalType":"uint256"}],"stateMutability":"nonpayable"},{"type":"function","name":"createPool","inputs":[{"name":"allo","type":"address","internalType":"contract Allo"},{"name":"strategy","type":"address","internalType":"address"},{"name":"registryCommunity","type":"address","internalType":"address"},{"name":"registry","type":"address","internalType":"contract IRegistry"},{"name":"token","type":"address","internalType":"address"},{"name":"proposalType","type":"uint8","internalType":"enum ProposalType"},{"name":"pointSystem","type":"uint8","internalType":"enum PointSystem"},{"name":"pointConfig","type":"tuple","internalType":"struct PointSystemConfig","components":[{"name":"maxAmount","type":"uint256","internalType":"uint256"}]},{"name":"arbitrableConfig","type":"tuple","internalType":"struct ArbitrableConfig","components":[{"name":"arbitrator","type":"address","internalType":"contract IArbitrator"},{"name":"tribunalSafe","type":"address","internalType":"address"},{"name":"submitterCollateralAmount","type":"uint256","internalType":"uint256"},{"name":"challengerCollateralAmount","type":"uint256","internalType":"uint256"},{"name":"defaultRuling","type":"uint256","internalType":"uint256"},{"name":"defaultRulingTimeout","type":"uint256","internalType":"uint256"}]}],"outputs":[{"name":"poolId","type":"uint256","internalType":"uint256"}],"stateMutability":"nonpayable"},{"type":"function","name":"getDecay","inputs":[{"name":"strategy","type":"address","internalType":"contract CVStrategyV0_0"}],"outputs":[{"name":"","type":"uint256","internalType":"uint256"}],"stateMutability":"view"},{"type":"function","name":"getParams","inputs":[{"name":"registryCommunity","type":"address","internalType":"address"},{"name":"proposalType","type":"uint8","internalType":"enum ProposalType"},{"name":"pointSystem","type":"uint8","internalType":"enum PointSystem"},{"name":"pointConfig","type":"tuple","internalType":"struct PointSystemConfig","components":[{"name":"maxAmount","type":"uint256","internalType":"uint256"}]},{"name":"arbitrableConfig","type":"tuple","internalType":"struct ArbitrableConfig","components":[{"name":"arbitrator","type":"address","internalType":"contract IArbitrator"},{"name":"tribunalSafe","type":"address","internalType":"address"},{"name":"submitterCollateralAmount","type":"uint256","internalType":"uint256"},{"name":"challengerCollateralAmount","type":"uint256","internalType":"uint256"},{"name":"defaultRuling","type":"uint256","internalType":"uint256"},{"name":"defaultRulingTimeout","type":"uint256","internalType":"uint256"}]},{"name":"initialAllowlist","type":"address[]","internalType":"address[]"},{"name":"sybilScorer","type":"address","internalType":"address"},{"name":"sybilScorerThreshold","type":"uint256","internalType":"uint256"},{"name":"superfluidToken","type":"address","internalType":"address"}],"outputs":[{"name":"params","type":"tuple","internalType":"struct CVStrategyInitializeParamsV0_2","components":[{"name":"cvParams","type":"tuple","internalType":"struct CVParams","components":[{"name":"maxRatio","type":"uint256","internalType":"uint256"},{"name":"weight","type":"uint256","internalType":"uint256"},{"name":"decay","type":"uint256","internalType":"uint256"},{"name":"minThresholdPoints","type":"uint256","internalType":"uint256"}]},{"name":"proposalType","type":"uint8","internalType":"enum ProposalType"},{"name":"pointSystem","type":"uint8","internalType":"enum PointSystem"},{"name":"pointConfig","type":"tuple","internalType":"struct PointSystemConfig","components":[{"name":"maxAmount","type":"uint256","internalType":"uint256"}]},{"name":"arbitrableConfig","type":"tuple","internalType":"struct ArbitrableConfig","components":[{"name":"arbitrator","type":"address","internalType":"contract IArbitrator"},{"name":"tribunalSafe","type":"address","internalType":"address"},{"name":"submitterCollateralAmount","type":"uint256","internalType":"uint256"},{"name":"challengerCollateralAmount","type":"uint256","internalType":"uint256"},{"name":"defaultRuling","type":"uint256","internalType":"uint256"},{"name":"defaultRulingTimeout","type":"uint256","internalType":"uint256"}]},{"name":"registryCommunity","type":"address","internalType":"address"},{"name":"sybilScorer","type":"address","internalType":"address"},{"name":"sybilScorerThreshold","type":"uint256","internalType":"uint256"},{"name":"initialAllowlist","type":"address[]","internalType":"address[]"},{"name":"superfluidToken","type":"address","internalType":"address"}]}],"stateMutability":"pure"},{"type":"function","name":"local","inputs":[],"outputs":[{"name":"","type":"address","internalType":"address"}],"stateMutability":"view"},{"type":"function","name":"metadata","inputs":[],"outputs":[{"name":"protocol","type":"uint256","internalType":"uint256"},{"name":"pointer","type":"string","internalType":"string"}],"stateMutability":"view"},{"type":"function","name":"no_recipient","inputs":[],"outputs":[{"name":"","type":"address","internalType":"address"}],"stateMutability":"nonpayable"},{"type":"function","name":"nullProfile_member1","inputs":[],"outputs":[{"name":"","type":"address","internalType":"address"}],"stateMutability":"pure"},{"type":"function","name":"nullProfile_member2","inputs":[],"outputs":[{"name":"","type":"address","internalType":"address"}],"stateMutability":"pure"},{"type":"function","name":"nullProfile_members","inputs":[],"outputs":[{"name":"","type":"address[]","internalType":"address[]"}],"stateMutability":"pure"},{"type":"function","name":"nullProfile_notAMember","inputs":[],"outputs":[{"name":"","type":"address","internalType":"address"}],"stateMutability":"pure"},{"type":"function","name":"nullProfile_owner","inputs":[],"outputs":[{"name":"","type":"address","internalType":"address"}],"stateMutability":"pure"},{"type":"function","name":"poolProfile_id1","inputs":[{"name":"registry","type":"address","internalType":"contract IRegistry"},{"name":"pool_admin","type":"address","internalType":"address"},{"name":"pool_managers","type":"address[]","internalType":"address[]"}],"outputs":[{"name":"","type":"bytes32","internalType":"bytes32"}],"stateMutability":"nonpayable"},{"type":"function","name":"pool_admin","inputs":[],"outputs":[{"name":"","type":"address","internalType":"address"}],"stateMutability":"nonpayable"},{"type":"function","name":"pool_manager1","inputs":[],"outputs":[{"name":"","type":"address","internalType":"address"}],"stateMutability":"nonpayable"},{"type":"function","name":"pool_manager2","inputs":[],"outputs":[{"name":"","type":"address","internalType":"address"}],"stateMutability":"nonpayable"},{"type":"function","name":"pool_managers","inputs":[],"outputs":[{"name":"","type":"address[]","internalType":"address[]"}],"stateMutability":"nonpayable"},{"type":"function","name":"pool_notAManager","inputs":[],"outputs":[{"name":"","type":"address","internalType":"address"}],"stateMutability":"nonpayable"},{"type":"function","name":"profile1_member1","inputs":[],"outputs":[{"name":"","type":"address","internalType":"address"}],"stateMutability":"nonpayable"},{"type":"function","name":"profile1_member2","inputs":[],"outputs":[{"name":"","type":"address","internalType":"address"}],"stateMutability":"nonpayable"},{"type":"function","name":"profile1_members","inputs":[],"outputs":[{"name":"","type":"address[]","internalType":"address[]"}],"stateMutability":"nonpayable"},{"type":"function","name":"profile1_notAMember","inputs":[],"outputs":[{"name":"","type":"address","internalType":"address"}],"stateMutability":"nonpayable"},{"type":"function","name":"profile1_owner","inputs":[],"outputs":[{"name":"","type":"address","internalType":"address"}],"stateMutability":"nonpayable"},{"type":"function","name":"profile2_member1","inputs":[],"outputs":[{"name":"","type":"address","internalType":"address"}],"stateMutability":"nonpayable"},{"type":"function","name":"profile2_member2","inputs":[],"outputs":[{"name":"","type":"address","internalType":"address"}],"stateMutability":"nonpayable"},{"type":"function","name":"profile2_members","inputs":[],"outputs":[{"name":"","type":"address[]","internalType":"address[]"}],"stateMutability":"nonpayable"},{"type":"function","name":"profile2_notAMember","inputs":[],"outputs":[{"name":"","type":"address","internalType":"address"}],"stateMutability":"nonpayable"},{"type":"function","name":"profile2_owner","inputs":[],"outputs":[{"name":"","type":"address","internalType":"address"}],"stateMutability":"nonpayable"},{"type":"function","name":"randomAddress","inputs":[],"outputs":[{"name":"","type":"address","internalType":"address"}],"stateMutability":"nonpayable"},{"type":"function","name":"recipient","inputs":[],"outputs":[{"name":"","type":"address","internalType":"address"}],"stateMutability":"nonpayable"},{"type":"function","name":"recipient1","inputs":[],"outputs":[{"name":"","type":"address","internalType":"address"}],"stateMutability":"nonpayable"},{"type":"function","name":"recipient2","inputs":[],"outputs":[{"name":"","type":"address","internalType":"address"}],"stateMutability":"nonpayable"},{"type":"function","name":"recipientAddress","inputs":[],"outputs":[{"name":"","type":"address","internalType":"address"}],"stateMutability":"nonpayable"},{"type":"function","name":"registry_owner","inputs":[],"outputs":[{"name":"","type":"address","internalType":"address"}],"stateMutability":"nonpayable"}],"bytecode":{"object":"0x608034620001f4576040906001600160401b0381830181811183821017620001de57835260019182815283516060810181811084821117620001de578552602e81526020917f516d57347a464c464a524e374a3637457a4e6d64433272324d397532694a4468838301526d6132666a3547656536684a7a535960901b868301528183820152516009558051928311620001de57600a548481811c91168015620001d3575b83821014620001bd57601f81116200016e575b5081601f8411600114620001015750928293918392600094620000f5575b50501b916000199060031b1c191617600a555b516126ce9081620001fa8239f35b015192503880620000d4565b919083601f198116600a60005284600020946000905b8883831062000153575050501062000139575b505050811b01600a55620000e7565b015160001960f88460031b161c191690553880806200012a565b85870151885590960195948501948793509081019062000117565b600a60005282600020601f850160051c810191848610620001b2575b601f0160051c019085905b828110620001a5575050620000b6565b6000815501859062000195565b90915081906200018a565b634e487b7160e01b600052602260045260246000fd5b90607f1690620000a3565b634e487b7160e01b600052604160045260246000fd5b600080fdfe60808060405260048036101561001457600080fd5b600091823560e01c908162b1fad71461192357508063030e4006146118c55780630688b135146118705780630f166ad414611855578063174eedde14610dfb5780631b96dce6146117fc5780631e7bcb2e146117ae5780632e0f26251461178b57806337d1c4041461173b578063392f37e9146116f35780633f26479e146116d65780634bf4ba2114611696578063587c1243146116485780635aff5999146115ed5780635d6b4bc21461155f57806366d003ac1461146f5780636a38dd0a1461132457806370a329441461118d57806374d9284e14610dfb578063759c9a861461111d57806379e62d0d14610f7a5780637b2edf3214610f2c5780637cbe79ed14610ee4578063829e423f14610dfb57806385294f1814610e005780638c7408c414610dfb5780638e0d1a5014610db35780638e3c249314610d65578063a0cf0aea14610d36578063a407c67a14610a9a578063aa3744bd14610a45578063ca13639e14610810578063d1e82b58146107b5578063d1f2cd8814610769578063d5bee9f514610678578063da4bf08714610620578063dac4eb16146105c7578063e070e0ab146104c9578063e99ce911146103415763ef0d790f146101d957600080fd5b3461033d578160031936011261033d57604051916101f683611b83565b6013835260209283810172383937b334b632992fb737ba20a6b2b6b132b960691b81526040516102298682018093611d33565b6013815261023681611b83565b5190206040519063ffa1864960e01b8252848201526000805160206126a2833981519152908581602481855afa9081156103325784916102f5575b50813b156102f157604080516318caf8e360e31b81526001600160a01b03909216958201869052602482015291839183918290849082906102b6906044830190611dcb565b03925af180156102e6576102cf575b5050604051908152f35b6102d98291611aed565b6102e357806102c5565b80fd5b6040513d84823e3d90fd5b8380fd5b90508581813d831161032b575b61030c8183611bb9565b810103126102f157516001600160a01b03811681036102f15738610271565b503d610302565b6040513d86823e3d90fd5b5080fd5b503461033d57608036600319011261033d5760443591600160801b9162989680606435608081901b829004858110156104865785908435805b61043257505060249661038e8835886120cf565b968482029180830486149015171561042057820391821161040e57906103b3916120cf565b908083039280841161040e57146103fc570483018093116103ea576001607f1b83019283106103ea576020836040519060801c8152f35b634e487b7160e01b8252601190529050fd5b634e487b7160e01b8452601283528584fd5b634e487b7160e01b8652601185528786fd5b634e487b7160e01b8752601186528887fd5b6001918183166104525780610446916125d6565b911c90815b909161037a565b80925061045f91986125d6565b96600019810190811161047357908161044b565b634e487b7160e01b875260118652602487fd5b60405162461bcd60e51b8152602081860152601c60248201527b0bec240e6d0deead8c840c4ca40d8cae6e640e8d0c2dc4064bc6264760231b6044820152606490fd5b503461033d576101c036600319011261033d576104e4611a7f565b906104ed611aab565b6104f5611ac1565b6104fd611a95565b610505611ad7565b9160a4359360038510156105c35760c435958610156105c35760203660e31901126105c3576040519661053788611b16565b60e435885260c0366101031901126105bf57604051986105568a611b31565b6001600160a01b039061010435828116810361033d578b526101243591821682036102e35760206105b78c8c8c8c8c8c8c8c8c8c8b8a01526101443560408a01526101643560608a01526101843560808a01526101a43560a08a01526120f8565b604051908152f35b8880fd5b8780fd5b503461033d578160031936011261033d57604051916105e583611b83565b600e83526020928381016d3932b3b4b9ba393cafb7bbb732b960911b81526040516106138682018093611d7f565b600e815261023681611b83565b503461033d578160031936011261033d576040519161063e83611b83565b600d83526020928381016c616c6c6f5f747265617375727960981b815260405161066b8682018093611d0d565b600d815261023681611b83565b503461033d578160031936011261033d576040519161069683611b83565b600b928381526020936a1c985b991bdb4818da185960aa1b858301526040519085845b82811061075557505083602b83015281526106d381611b83565b8481519101206040519063ffa1864960e01b8252848201526000805160206126a2833981519152908581602481855afa9081156103325784916102f55750813b156102f157604080516318caf8e360e31b81526001600160a01b03909216958201869052602482015291839183918290849082906102b6906044830190611dcb565b8181860101518282860101520186906106b9565b503461033d578160031936011261033d576040519161078783611b83565b600e83526020928381016d383937b334b63298afb7bbb732b960911b81526040516106138682018093611d7f565b503461033d578160031936011261033d57604051916107d383611b83565b601083526020928381016f3837b7b62fb737ba20a6b0b730b3b2b960811b81526040516108038682018093611da5565b6010815261023681611b83565b5090346102e3576101c03660031901126102e35761082c611a7f565b916003602435101561033d5780604435101561033d57602036606319011261033d576040519061085b82611b16565b606435825260c0366083190112610a41576040519061087982611b31565b6084356001600160a01b0381168103610a3d57825260a4356001600160a01b0381168103610a3d57602083015260c435604083015260e43560608301526101043560808301526101243560a0830152610144356001600160401b038111610a3d576108e691369101611bdc565b91610164356001600160a01b0381168103610a3d576101a435906001600160a01b0382168203610a3957610a24966040519661092188611b4c565b60405161092d81611b68565b818152816020820152816040820152816060820152885280602089015280604089015260405161095c81611b16565b818152606089015260405161097081611b31565b8181528160208201528160408201528160608201528160808201528160a0820152608089015260606101008901526297ae656040895101526237c9fc88515262020a2d60208951015260608851015260018060a01b031660a08701526024356020870152604435604087015260018060a01b031660c08601526101843560e086015260018060a01b0316610120850152805115610a28575b6060840152608083015261010082015260405191829182611e48565b0390f35b680ad78ebc5ac62000008152610a08565b8580fd5b8480fd5b8280fd5b503461033d578160031936011261033d5760405191610a6383611b83565b600a835260209283810169726563697069656e743160b01b8152604051610a8d8682018093611d59565b600a815261023681611b83565b5090346102e357806003193601126102e35760405191610ab983611b9e565b6002835260209160403684860137604051610ad381611b83565b601081528381016f70726f66696c65325f6d656d6265723160801b8152604051610b008682018093611da5565b60108152610b0d81611b83565b5190206040519063ffa1864960e01b90818352858301526000805160206126a2833981519152908683602481855afa928315610d2b578593610cec575b50813b15610a3d57604051936318caf8e360e31b94858152868180610b8960018060a01b0380991695868d840152604060248401526044830190611dcb565b038183885af18015610ce157908791610ccd575b5050610ba889611f57565b5260405193610bb685611b83565b601085528785016f383937b334b632992fb6b2b6b132b91960811b8152604051610be38a82018093611da5565b60108152610bf081611b83565b519020604051928352878301528782602481865afa918215610cc2578692610c8a575b50823b15610a3957908580949392610c4760405197889687958694855216809b840152604060248401526044830190611dcb565b03925af180156102e657610c76575b5050610c6183611f7a565b52610a24604051928284938452830190611e0b565b610c808291611aed565b6102e35780610c56565b9091508781813d8311610cbb575b610ca28183611bb9565b81010312610a3957518381168103610a39579038610c13565b503d610c98565b6040513d88823e3d90fd5b610cd690611aed565b610a39578538610b9d565b6040513d89823e3d90fd5b9092508681813d8311610d24575b610d048183611bb9565b81010312610a3d57516001600160a01b0381168103610a3d579138610b4a565b503d610cfa565b6040513d87823e3d90fd5b82346102e357806003193601126102e357602060405173eeeeeeeeeeeeeeeeeeeeeeeeeeeeeeeeeeeeeeee8152f35b503461033d578160031936011261033d5760405191610d8383611b83565b601083526020928381016f383937b334b632992fb6b2b6b132b91960811b81526040516108038682018093611da5565b503461033d578160031936011261033d5760405191610dd183611b83565b600a8352602092838101693837b7b62fb0b236b4b760b11b8152604051610a8d8682018093611d59565b611a5e565b503461033d576101a036600319011261033d57610e1b611a7f565b90610e24611aab565b610e2c611ac1565b610e34611a95565b610e3c611ad7565b9160a4359360038510156105c35760c435958610156105c35760c03660e31901126105c35760405196610e6e88611b31565b6001600160a01b0360e4358181168103610ee0578952610104359081168103610edc5791889795939160209a9795938b6105b79b01526101243560408a01526101443560608a01526101643560808a01526101843560a08a015260405197610ed589611b16565b88526120f8565b8980fd5b8a80fd5b503461033d578160031936011261033d5760405191610f0283611b83565b600a83526020928381016930b63637afb7bbb732b960b11b8152604051610a8d8682018093611d59565b503461033d578160031936011261033d5760405191610f4a83611b83565b601083526020928381016f383937b334b63298afb6b2b6b132b91960811b81526040516108038682018093611da5565b5090346102e357806003193601126102e35760405191610f9983611b9e565b6002835260209160403684860137604051610fb381611b83565b600d81528381016c706f6f6c5f6d616e616765723160981b8152604051610fdd8682018093611d0d565b600d8152610fea81611b83565b5190206040519063ffa1864960e01b90818352858301526000805160206126a2833981519152908683602481855afa928315610d2b5785936110de575b50813b15610a3d57604051936318caf8e360e31b9485815286818061106660018060a01b0380991695868d840152604060248401526044830190611dcb565b038183885af18015610ce1579087916110ca575b505061108589611f57565b526040519361109385611b83565b600d85528785016c3837b7b62fb6b0b730b3b2b91960991b81526040516110bd8a82018093611d0d565b600d8152610bf081611b83565b6110d390611aed565b610a3957853861107a565b9092508681813d8311611116575b6110f68183611bb9565b81010312610a3d57516001600160a01b0381168103610a3d579138611027565b503d6110ec565b503461033d578160031936011261033d576040519161113b83611b83565b600c928381526020936b1b9bd7dc9958da5c1a595b9d60a21b858301526040519085845b82811061117957505083602c83015281526106d381611b83565b81818601015182828601015201869061115f565b5090346102e357806003193601126102e357604051916111ac83611b9e565b60028352602091604036848601376040516111c681611b83565b601081528381016f70726f66696c65315f6d656d6265723160801b81526040516111f38682018093611da5565b6010815261120081611b83565b5190206040519063ffa1864960e01b90818352858301526000805160206126a2833981519152908683602481855afa928315610d2b5785936112e5575b50813b15610a3d57604051936318caf8e360e31b9485815286818061127c60018060a01b0380991695868d840152604060248401526044830190611dcb565b038183885af18015610ce1576112d2575b5061129789611f57565b52604051936112a585611b83565b601085528785016f383937b334b63298afb6b2b6b132b91960811b8152604051610be38a82018093611da5565b6112de90969196611aed565b943861128d565b9092508681813d831161131d575b6112fd8183611bb9565b81010312610a3d57516001600160a01b0381168103610a3d57913861123d565b503d6112f3565b503461033d578160031936011261033d576040519161134283611b83565b600d83526020928381016c3837b7b62fb6b0b730b3b2b91960991b815260405161136f8682018093611d0d565b600d815261137c81611b83565b5190206040519063ffa1864960e01b8252848201526000805160206126a2833981519152908581602481855afa908115610332578491611432575b50813b156102f157604080516318caf8e360e31b81526001600160a01b0390921695820186905260248201529291829184918290849082906113fd906044830190611dcb565b03925af19081156114265750611417575b50604051908152f35b61142090611aed565b3861140e565b604051903d90823e3d90fd5b90508581813d8311611468575b6114498183611bb9565b810103126102f157516001600160a01b03811681036102f157386113b7565b503d61143f565b503461033d578160031936011261033d576040519161148d83611b83565b600992838152602093681c9958da5c1a595b9d60ba1b858301526040519085845b82811061154b57505083602983015281526114c881611b83565b8481519101206040519063ffa1864960e01b8252848201526000805160206126a2833981519152908581602481855afa9081156103325784916114325750813b156102f157604080516318caf8e360e31b81526001600160a01b0390921695820186905260248201529291829184918290849082906113fd906044830190611dcb565b8181860101518282860101520186906114ae565b5090346102e35760203660031901126102e35781356001600160a01b0381169081900361033d57608090604051938480926302506b8760e41b82525afa9081156114265780916115b5575b602082604051908152f35b90506080823d82116115e5575b816115cf60809383611bb9565b810103126102e3575060406020910151386115aa565b3d91506115c2565b503461033d578160031936011261033d576040519161160b83611b83565b601083526020928381016f726563697069656e744164647265737360801b815260405161163b8682018093611da5565b6010815261137c81611b83565b503461033d578160031936011261033d576040519161166683611b83565b601083526020928381016f70726f66696c65325f6d656d6265723160801b815260405161163b8682018093611da5565b82346102e357806003193601126102e357610a246040516116b681611b9e565b600281526040366020830137604051918291602083526020830190611e0b565b82346102e357806003193601126102e35760206040516127108152f35b82346102e357806003193601126102e3576009546040519061171f8261171881611c52565b0383611bb9565b610a246040519283928352604060208401526040830190611dcb565b5090346102e35760603660031901126102e357611756611a7f565b9161175f611aab565b91604435906001600160401b0382116102e35760206105b7868661178536878901611bdc565b91611f8a565b82346102e357806003193601126102e3576020604051670de0b6b3a76400008152f35b503461033d578160031936011261033d57604051916117cc83611b83565b601083526020928381016f70726f66696c65315f6d656d6265723160801b815260405161163b8682018093611da5565b503461033d578160031936011261033d576040519161181a83611b83565b600e83526020928381016d383937b334b632992fb7bbb732b960911b81526040516118488682018093611d7f565b600e815261137c81611b83565b82346102e357806003193601126102e3576020604051308152f35b503461033d578160031936011261033d576040519161188e83611b83565b600a8352602092838101693932b1b4b834b2b73a1960b11b81526040516118b88682018093611d59565b600a815261137c81611b83565b503461033d578160031936011261033d57604051916118e383611b83565b6013835260209283810172383937b334b63298afb737ba20a6b2b6b132b960691b81526040516119168682018093611d33565b6013815261137c81611b83565b8284346102e357806003193601126102e35761193e83611b83565b600d83526020928381016c706f6f6c5f6d616e616765723160981b815260405161196b8682018093611d0d565b600d815261197881611b83565b5190206040519063ffa1864960e01b8252848201526000805160206126a2833981519152908581602481855afa908115610332578491611a21575b50813b156102f157604080516318caf8e360e31b81526001600160a01b0390921695820186905260248201529291829184918290849082906119f9906044830190611dcb565b03925af19081156114265750611a125750604051908152f35b611a1b90611aed565b8261140e565b90508581813d8311611a57575b611a388183611bb9565b810103126102f157516001600160a01b03811681036102f157866119b3565b503d611a2e565b34611a7a576000366003190112611a7a57602060405160008152f35b600080fd5b600435906001600160a01b0382168203611a7a57565b606435906001600160a01b0382168203611a7a57565b602435906001600160a01b0382168203611a7a57565b604435906001600160a01b0382168203611a7a57565b608435906001600160a01b0382168203611a7a57565b6001600160401b038111611b0057604052565b634e487b7160e01b600052604160045260246000fd5b602081019081106001600160401b03821117611b0057604052565b60c081019081106001600160401b03821117611b0057604052565b61014081019081106001600160401b03821117611b0057604052565b608081019081106001600160401b03821117611b0057604052565b604081019081106001600160401b03821117611b0057604052565b606081019081106001600160401b03821117611b0057604052565b601f909101601f19168101906001600160401b03821190821017611b0057604052565b9080601f83011215611a7a578135906001600160401b038211611b00578160051b60405193602093611c1085840187611bb9565b85528380860192820101928311611a7a578301905b828210611c33575050505090565b81356001600160a01b0381168103611a7a578152908301908301611c25565b90600091600a549060019082821c91808416938415611d03575b6020948585108114611ced57848452908115611cd05750600114611c91575b50505050565b9293945090600a6000528360002092846000945b838610611cbc575050505001019038808080611c8b565b805485870183015294019385908201611ca5565b60ff191685840152505090151560051b0101915038808080611c8b565b634e487b7160e01b600052602260045260246000fd5b92607f1692611c6c565b60005b600d8110611d23575050600d6000910152565b8181015183820152602001611d10565b60005b60138110611d4957505060136000910152565b8181015183820152602001611d36565b60005b600a8110611d6f575050600a6000910152565b8181015183820152602001611d5c565b60005b600e8110611d95575050600e6000910152565b8181015183820152602001611d82565b60005b60108110611dbb57505060106000910152565b8181015183820152602001611da8565b919082519283825260005b848110611df7575050826000602080949584010152601f8019910116010190565b602081830181015184830182015201611dd6565b90815180825260208080930193019160005b828110611e2b575050505090565b83516001600160a01b031685529381019392810192600101611e1d565b602081526060825180516020840152602081015160408401526040810151828401520151608082015260208201516003811015611f415760a082015260408201516004811015611f415760c082015260608201515160e0820152608082015160018060a01b0380825116610100908185015260a08260208501511693610120948587015260408101516101408701526060810151610160870152608081015161018087015201516101a08501528160a0860151166101c08501528160c0860151166101e085015260e085015161020085015284015191611f376102409384610220870152610260860190611e0b565b9401511691015290565b634e487b7160e01b600052602160045260246000fd5b805115611f645760200190565b634e487b7160e01b600052603260045260246000fd5b805160011015611f645760400190565b90600b5415611f9d575b505050600b5490565b604080519092818401906001600160401b03821183831017611b0057612055918552600183528451611fce81611b83565b600c8152600060209586956b506f6f6c50726f66696c653160a01b8785015286810193845261207789519a8b9788968794633a92f65f60e01b86526002600487015260a06024870152600e60a48701526d506f6f6c2050726f66696c65203160901b60c487015260e060448701525160e4860152518c610104860152610124850190611dcb565b6001600160a01b03948516606485015283810360031901608485015290611e0b565b0393165af19182156120c55750600091612099575b50600b5550388080611f94565b82813d83116120be575b6120ad8183611bb9565b810103126102e3575051803861208c565b503d6120a3565b513d6000823e3d90fd5b818102929181159184041417156120e257565b634e487b7160e01b600052601160045260246000fd5b9495909897939291936000976040519261211184611b83565b60018452602036818601376040519661212988611b4c565b60405161213581611b68565b8b81528b60208201528b60408201528b606082015288528a60208901528a604089015260405161216481611b16565b8b8152606089015260405161217881611b31565b8b81528b60208201528b60408201528b60608201528b60808201528b60a082015260808901528a60c08901528a60e089015260606101008901528a6101208901526297ae656040895101526237c9fc88515262020a2d6020895101528a60608951015260018060a01b031660a088015260038910156125c25788602088015260048110156125c25760408701528860c08701528860e0870152886101208701528051156125b1575b606086015260808501526101008401526040519061223d82611b9e565b6002825260403660208401373061225383611f57565b523361225e83611f7a565b5273eeeeeeeeeeeeeeeeeeeeeeeeeeeeeeeeeeeeeeee926001600160a01b0381166125a9575b506040519061229282611b83565b600a825260208201693837b7b62fb0b236b4b760b11b81526040516122bb602082018093611d59565b600a81526122c881611b83565b519020916040519263ffa1864960e01b845260048401526000805160206126a283398151915290602084602481855afa93841561259e578a9461255a575b50813b15610edc576123478a9283926040519485809481936318caf8e360e31b835260018060a01b038b166004840152604060248401526044830190611dcb565b03925af1801561254f57908b969594939291612519575b50936124186123d297948461239b61237e60209a978e9761238d9b611f8a565b94604051998a918c8301611e48565b03601f1981018a5289611bb9565b604051998a98899788966370803ea560e11b8852600488015260018060a01b0316602487015260e0604487015260e4860190611dcb565b9160018060a01b03166064850152846084850152612409604060031993848782030160a48801526009548152818c82015201611c52565b918483030160c4850152611e0b565b03926001600160a01b03165af19081156124db5783916124e6575b50604051631a8ecfcb60e11b81529094602090829060049082906001600160a01b03165afa9081156124db5783916124a0575b50600381101561248c57036124785750565b634e487b7160e01b81526001600452602490fd5b634e487b7160e01b83526021600452602483fd5b90506020813d6020116124d3575b816124bb60209383611bb9565b81010312610a4157516003811015610a415738612466565b3d91506124ae565b6040513d85823e3d90fd5b90506020813d602011612511575b8161250160209383611bb9565b81010312610a4157516020612433565b3d91506124f4565b6123d297948461239b61237e60209a9761238d9a96979e61253c61241897611aed565b9e97969a5050505094975094975061235e565b6040513d8b823e3d90fd5b9093506020813d602011612596575b8161257660209383611bb9565b81010312610edc57516001600160a01b0381168103610edc579238612306565b3d9150612569565b6040513d8c823e3d90fd5b925038612284565b680ad78ebc5ac62000008152612220565b634e487b7160e01b8a52602160045260248afd5b90600160801b80831161264b57811015612607576125f3916120cf565b6001607f1b81019081106120e25760801c90565b60405162461bcd60e51b815260206004820152601c60248201527b0bec440e6d0deead8c840c4ca40d8cae6e640e8d0c2dc4064bc6264760231b6044820152606490fd5b60405162461bcd60e51b815260206004820152602860248201527f5f612073686f756c64206265206c657373207468616e206f7220657175616c206044820152670e8de4064bc6264760c31b6064820152608490fdfe0000000000000000000000007109709ecfa91a80626ff3989d68f67f5b1dd12da164736f6c6343000813000a","linkReferences":{}},"methodIdentifiers":{"DECIMALS()":"2e0f2625","NATIVE()":"a0cf0aea","PERCENTAGE_SCALE()":"3f26479e","_calculateConviction(uint256,uint256,uint256,uint256)":"e99ce911","allo_owner()":"7cbe79ed","allo_treasury()":"da4bf087","createPool(address,address,address,address,address,uint8,uint8,(address,address,uint256,uint256,uint256,uint256))":"85294f18","createPool(address,address,address,address,address,uint8,uint8,(uint256),(address,address,uint256,uint256,uint256,uint256))":"e070e0ab","getDecay(address)":"5d6b4bc2","getParams(address,uint8,uint8,(uint256),(address,address,uint256,uint256,uint256,uint256),address[],address,uint256,address)":"ca13639e","local()":"0f166ad4","metadata()":"392f37e9","no_recipient()":"759c9a86","nullProfile_member1()":"829e423f","nullProfile_member2()":"8c7408c4","nullProfile_members()":"4bf4ba21","nullProfile_notAMember()":"174eedde","nullProfile_owner()":"74d9284e","poolProfile_id1(address,address,address[])":"37d1c404","pool_admin()":"8e0d1a50","pool_manager1()":"00b1fad7","pool_manager2()":"6a38dd0a","pool_managers()":"79e62d0d","pool_notAManager()":"d1e82b58","profile1_member1()":"1e7bcb2e","profile1_member2()":"7b2edf32","profile1_members()":"70a32944","profile1_notAMember()":"030e4006","profile1_owner()":"d1f2cd88","profile2_member1()":"587c1243","profile2_member2()":"8e3c2493","profile2_members()":"a407c67a","profile2_notAMember()":"ef0d790f","profile2_owner()":"1b96dce6","randomAddress()":"d5bee9f5","recipient()":"66d003ac","recipient1()":"aa3744bd","recipient2()":"0688b135","recipientAddress()":"5aff5999","registry_owner()":"dac4eb16"},"storageLayout":{"storage":[{"astId":8460,"contract":"pkg/contracts/test/CVStrategyHelpers.sol:CVStrategyHelpers","label":"gasMeteringOff","offset":0,"slot":"0","type":"t_bool"},{"astId":10497,"contract":"pkg/contracts/test/CVStrategyHelpers.sol:CVStrategyHelpers","label":"stdstore","offset":0,"slot":"1","type":"t_struct(StdStorage)12378_storage"},{"astId":77509,"contract":"pkg/contracts/test/CVStrategyHelpers.sol:CVStrategyHelpers","label":"metadata","offset":0,"slot":"9","type":"t_struct(Metadata)3030_storage"},{"astId":77521,"contract":"pkg/contracts/test/CVStrategyHelpers.sol:CVStrategyHelpers","label":"_poolProfileId1_","offset":0,"slot":"11","type":"t_bytes32"}],"types":{"t_address":{"encoding":"inplace","label":"address","numberOfBytes":"20"},"t_array(t_bytes32)dyn_storage":{"encoding":"dynamic_array","label":"bytes32[]","numberOfBytes":"32","base":"t_bytes32"},"t_bool":{"encoding":"inplace","label":"bool","numberOfBytes":"1"},"t_bytes32":{"encoding":"inplace","label":"bytes32","numberOfBytes":"32"},"t_bytes4":{"encoding":"inplace","label":"bytes4","numberOfBytes":"4"},"t_bytes_storage":{"encoding":"bytes","label":"bytes","numberOfBytes":"32"},"t_mapping(t_address,t_mapping(t_bytes4,t_mapping(t_bytes32,t_struct(FindData)12353_storage)))":{"encoding":"mapping","key":"t_address","label":"mapping(address => mapping(bytes4 => mapping(bytes32 => struct FindData)))","numberOfBytes":"32","value":"t_mapping(t_bytes4,t_mapping(t_bytes32,t_struct(FindData)12353_storage))"},"t_mapping(t_bytes32,t_struct(FindData)12353_storage)":{"encoding":"mapping","key":"t_bytes32","label":"mapping(bytes32 => struct FindData)","numberOfBytes":"32","value":"t_struct(FindData)12353_storage"},"t_mapping(t_bytes4,t_mapping(t_bytes32,t_struct(FindData)12353_storage))":{"encoding":"mapping","key":"t_bytes4","label":"mapping(bytes4 => mapping(bytes32 => struct FindData))","numberOfBytes":"32","value":"t_mapping(t_bytes32,t_struct(FindData)12353_storage)"},"t_string_storage":{"encoding":"bytes","label":"string","numberOfBytes":"32"},"t_struct(FindData)12353_storage":{"encoding":"inplace","label":"struct FindData","numberOfBytes":"128","members":[{"astId":12346,"contract":"pkg/contracts/test/CVStrategyHelpers.sol:CVStrategyHelpers","label":"slot","offset":0,"slot":"0","type":"t_uint256"},{"astId":12348,"contract":"pkg/contracts/test/CVStrategyHelpers.sol:CVStrategyHelpers","label":"offsetLeft","offset":0,"slot":"1","type":"t_uint256"},{"astId":12350,"contract":"pkg/contracts/test/CVStrategyHelpers.sol:CVStrategyHelpers","label":"offsetRight","offset":0,"slot":"2","type":"t_uint256"},{"astId":12352,"contract":"pkg/contracts/test/CVStrategyHelpers.sol:CVStrategyHelpers","label":"found","offset":0,"slot":"3","type":"t_bool"}]},"t_struct(Metadata)3030_storage":{"encoding":"inplace","label":"struct Metadata","numberOfBytes":"64","members":[{"astId":3026,"contract":"pkg/contracts/test/CVStrategyHelpers.sol:CVStrategyHelpers","label":"protocol","offset":0,"slot":"0","type":"t_uint256"},{"astId":3029,"contract":"pkg/contracts/test/CVStrategyHelpers.sol:CVStrategyHelpers","label":"pointer","offset":0,"slot":"1","type":"t_string_storage"}]},"t_struct(StdStorage)12378_storage":{"encoding":"inplace","label":"struct StdStorage","numberOfBytes":"256","members":[{"astId":12362,"contract":"pkg/contracts/test/CVStrategyHelpers.sol:CVStrategyHelpers","label":"finds","offset":0,"slot":"0","type":"t_mapping(t_address,t_mapping(t_bytes4,t_mapping(t_bytes32,t_struct(FindData)12353_storage)))"},{"astId":12365,"contract":"pkg/contracts/test/CVStrategyHelpers.sol:CVStrategyHelpers","label":"_keys","offset":0,"slot":"1","type":"t_array(t_bytes32)dyn_storage"},{"astId":12367,"contract":"pkg/contracts/test/CVStrategyHelpers.sol:CVStrategyHelpers","label":"_sig","offset":0,"slot":"2","type":"t_bytes4"},{"astId":12369,"contract":"pkg/contracts/test/CVStrategyHelpers.sol:CVStrategyHelpers","label":"_depth","offset":0,"slot":"3","type":"t_uint256"},{"astId":12371,"contract":"pkg/contracts/test/CVStrategyHelpers.sol:CVStrategyHelpers","label":"_target","offset":0,"slot":"4","type":"t_address"},{"astId":12373,"contract":"pkg/contracts/test/CVStrategyHelpers.sol:CVStrategyHelpers","label":"_set","offset":0,"slot":"5","type":"t_bytes32"},{"astId":12375,"contract":"pkg/contracts/test/CVStrategyHelpers.sol:CVStrategyHelpers","label":"_enable_packed_slots","offset":0,"slot":"6","type":"t_bool"},{"astId":12377,"contract":"pkg/contracts/test/CVStrategyHelpers.sol:CVStrategyHelpers","label":"_calldata","offset":0,"slot":"7","type":"t_bytes_storage"}]},"t_uint256":{"encoding":"inplace","label":"uint256","numberOfBytes":"32"}}},"id":137}