{"abi":[{"type":"function","name":"DECIMALS","inputs":[],"outputs":[{"name":"","type":"uint256","internalType":"uint256"}],"stateMutability":"view"},{"type":"function","name":"NATIVE","inputs":[],"outputs":[{"name":"","type":"address","internalType":"address"}],"stateMutability":"view"},{"type":"function","name":"PERCENTAGE_SCALE","inputs":[],"outputs":[{"name":"","type":"uint256","internalType":"uint256"}],"stateMutability":"view"},{"type":"function","name":"_calculateConviction","inputs":[{"name":"_timePassed","type":"uint256","internalType":"uint256"},{"name":"_lastConv","type":"uint256","internalType":"uint256"},{"name":"_oldAmount","type":"uint256","internalType":"uint256"},{"name":"decay","type":"uint256","internalType":"uint256"}],"outputs":[{"name":"","type":"uint256","internalType":"uint256"}],"stateMutability":"pure"},{"type":"function","name":"allo_owner","inputs":[],"outputs":[{"name":"","type":"address","internalType":"address"}],"stateMutability":"nonpayable"},{"type":"function","name":"allo_treasury","inputs":[],"outputs":[{"name":"","type":"address","internalType":"address payable"}],"stateMutability":"nonpayable"},{"type":"function","name":"createPool","inputs":[{"name":"allo","type":"address","internalType":"contract Allo"},{"name":"strategy","type":"address","internalType":"address"},{"name":"registryCommunity","type":"address","internalType":"address"},{"name":"registry","type":"address","internalType":"contract IRegistry"},{"name":"token","type":"address","internalType":"address"},{"name":"proposalType","type":"uint8","internalType":"enum StrategyStruct.ProposalType"},{"name":"pointSystem","type":"uint8","internalType":"enum StrategyStruct.PointSystem"}],"outputs":[{"name":"poolId","type":"uint256","internalType":"uint256"}],"stateMutability":"nonpayable"},{"type":"function","name":"createPool","inputs":[{"name":"allo","type":"address","internalType":"contract Allo"},{"name":"strategy","type":"address","internalType":"address"},{"name":"registryCommunity","type":"address","internalType":"address"},{"name":"registry","type":"address","internalType":"contract IRegistry"},{"name":"token","type":"address","internalType":"address"},{"name":"proposalType","type":"uint8","internalType":"enum StrategyStruct.ProposalType"},{"name":"pointSystem","type":"uint8","internalType":"enum StrategyStruct.PointSystem"},{"name":"pointConfig","type":"tuple","internalType":"struct StrategyStruct.PointSystemConfig","components":[{"name":"maxAmount","type":"uint256","internalType":"uint256"}]}],"outputs":[{"name":"poolId","type":"uint256","internalType":"uint256"}],"stateMutability":"nonpayable"},{"type":"function","name":"getParams","inputs":[{"name":"registryCommunity","type":"address","internalType":"address"},{"name":"proposalType","type":"uint8","internalType":"enum StrategyStruct.ProposalType"},{"name":"pointSystem","type":"uint8","internalType":"enum StrategyStruct.PointSystem"},{"name":"pointConfig","type":"tuple","internalType":"struct StrategyStruct.PointSystemConfig","components":[{"name":"maxAmount","type":"uint256","internalType":"uint256"}]}],"outputs":[{"name":"params","type":"tuple","internalType":"struct StrategyStruct.InitializeParams","components":[{"name":"registryCommunity","type":"address","internalType":"address"},{"name":"decay","type":"uint256","internalType":"uint256"},{"name":"maxRatio","type":"uint256","internalType":"uint256"},{"name":"weight","type":"uint256","internalType":"uint256"},{"name":"minThresholdPoints","type":"uint256","internalType":"uint256"},{"name":"proposalType","type":"uint8","internalType":"enum StrategyStruct.ProposalType"},{"name":"pointSystem","type":"uint8","internalType":"enum StrategyStruct.PointSystem"},{"name":"pointConfig","type":"tuple","internalType":"struct StrategyStruct.PointSystemConfig","components":[{"name":"maxAmount","type":"uint256","internalType":"uint256"}]},{"name":"arbitrableConfig","type":"tuple","internalType":"struct StrategyStruct.ArbitrableConfig","components":[{"name":"arbitrator","type":"address","internalType":"contract IArbitrator"},{"name":"collateralAmount","type":"uint256","internalType":"uint256"},{"name":"defaultRuling","type":"uint256","internalType":"uint256"},{"name":"defaultRulingTimeout","type":"uint256","internalType":"uint256"}]}]}],"stateMutability":"pure"},{"type":"function","name":"local","inputs":[],"outputs":[{"name":"","type":"address","internalType":"address"}],"stateMutability":"view"},{"type":"function","name":"metadata","inputs":[],"outputs":[{"name":"protocol","type":"uint256","internalType":"uint256"},{"name":"pointer","type":"string","internalType":"string"}],"stateMutability":"view"},{"type":"function","name":"no_recipient","inputs":[],"outputs":[{"name":"","type":"address","internalType":"address"}],"stateMutability":"nonpayable"},{"type":"function","name":"nullProfile_member1","inputs":[],"outputs":[{"name":"","type":"address","internalType":"address"}],"stateMutability":"pure"},{"type":"function","name":"nullProfile_member2","inputs":[],"outputs":[{"name":"","type":"address","internalType":"address"}],"stateMutability":"pure"},{"type":"function","name":"nullProfile_members","inputs":[],"outputs":[{"name":"","type":"address[]","internalType":"address[]"}],"stateMutability":"pure"},{"type":"function","name":"nullProfile_notAMember","inputs":[],"outputs":[{"name":"","type":"address","internalType":"address"}],"stateMutability":"pure"},{"type":"function","name":"nullProfile_owner","inputs":[],"outputs":[{"name":"","type":"address","internalType":"address"}],"stateMutability":"pure"},{"type":"function","name":"poolProfile_id1","inputs":[{"name":"registry","type":"address","internalType":"contract IRegistry"},{"name":"pool_admin","type":"address","internalType":"address"},{"name":"pool_managers","type":"address[]","internalType":"address[]"}],"outputs":[{"name":"","type":"bytes32","internalType":"bytes32"}],"stateMutability":"nonpayable"},{"type":"function","name":"pool_admin","inputs":[],"outputs":[{"name":"","type":"address","internalType":"address"}],"stateMutability":"nonpayable"},{"type":"function","name":"pool_manager1","inputs":[],"outputs":[{"name":"","type":"address","internalType":"address"}],"stateMutability":"nonpayable"},{"type":"function","name":"pool_manager2","inputs":[],"outputs":[{"name":"","type":"address","internalType":"address"}],"stateMutability":"nonpayable"},{"type":"function","name":"pool_managers","inputs":[],"outputs":[{"name":"","type":"address[]","internalType":"address[]"}],"stateMutability":"nonpayable"},{"type":"function","name":"pool_notAManager","inputs":[],"outputs":[{"name":"","type":"address","internalType":"address"}],"stateMutability":"nonpayable"},{"type":"function","name":"profile1_member1","inputs":[],"outputs":[{"name":"","type":"address","internalType":"address"}],"stateMutability":"nonpayable"},{"type":"function","name":"profile1_member2","inputs":[],"outputs":[{"name":"","type":"address","internalType":"address"}],"stateMutability":"nonpayable"},{"type":"function","name":"profile1_members","inputs":[],"outputs":[{"name":"","type":"address[]","internalType":"address[]"}],"stateMutability":"nonpayable"},{"type":"function","name":"profile1_notAMember","inputs":[],"outputs":[{"name":"","type":"address","internalType":"address"}],"stateMutability":"nonpayable"},{"type":"function","name":"profile1_owner","inputs":[],"outputs":[{"name":"","type":"address","internalType":"address"}],"stateMutability":"nonpayable"},{"type":"function","name":"profile2_member1","inputs":[],"outputs":[{"name":"","type":"address","internalType":"address"}],"stateMutability":"nonpayable"},{"type":"function","name":"profile2_member2","inputs":[],"outputs":[{"name":"","type":"address","internalType":"address"}],"stateMutability":"nonpayable"},{"type":"function","name":"profile2_members","inputs":[],"outputs":[{"name":"","type":"address[]","internalType":"address[]"}],"stateMutability":"nonpayable"},{"type":"function","name":"profile2_notAMember","inputs":[],"outputs":[{"name":"","type":"address","internalType":"address"}],"stateMutability":"nonpayable"},{"type":"function","name":"profile2_owner","inputs":[],"outputs":[{"name":"","type":"address","internalType":"address"}],"stateMutability":"nonpayable"},{"type":"function","name":"randomAddress","inputs":[],"outputs":[{"name":"","type":"address","internalType":"address"}],"stateMutability":"nonpayable"},{"type":"function","name":"recipient","inputs":[],"outputs":[{"name":"","type":"address","internalType":"address"}],"stateMutability":"nonpayable"},{"type":"function","name":"recipient1","inputs":[],"outputs":[{"name":"","type":"address","internalType":"address"}],"stateMutability":"nonpayable"},{"type":"function","name":"recipient2","inputs":[],"outputs":[{"name":"","type":"address","internalType":"address"}],"stateMutability":"nonpayable"},{"type":"function","name":"recipientAddress","inputs":[],"outputs":[{"name":"","type":"address","internalType":"address"}],"stateMutability":"nonpayable"},{"type":"function","name":"registry_owner","inputs":[],"outputs":[{"name":"","type":"address","internalType":"address"}],"stateMutability":"nonpayable"}],"bytecode":{"object":"0x60016080908152610120604052602e60c081815260a09162001e5160e0399052805160099081556020820151600a906200003a9082620000f6565b5050503480156200004a57600080fd5b50620001c2565b634e487b7160e01b600052604160045260246000fd5b600181811c908216806200007c57607f821691505b6020821081036200009d57634e487b7160e01b600052602260045260246000fd5b50919050565b601f821115620000f157600081815260208120601f850160051c81016020861015620000cc5750805b601f850160051c820191505b81811015620000ed57828155600101620000d8565b5050505b505050565b81516001600160401b0381111562000112576200011262000051565b6200012a8162000123845462000067565b84620000a3565b602080601f831160018114620001625760008415620001495750858301515b600019600386901b1c1916600185901b178555620000ed565b600085815260208120601f198616915b82811015620001935788860151825594840194600190910190840162000172565b5085821015620001b25787850151600019600388901b60f8161c191681555b5050505050600190811b01905550565b611c7f80620001d26000396000f3fe608060405234801561001057600080fd5b50600436106102ac5760003560e01c8063770b2e661161017b578063aa3744bd116100d8578063da4bf0871161008c578063e99ce91111610071578063e99ce91114610445578063ed62303a14610458578063ef0d790f1461046b57600080fd5b8063da4bf08714610435578063dac4eb161461043d57600080fd5b8063d1f2cd88116100bd578063d1f2cd8814610412578063d5bee9f51461041a578063d8c12dc21461042257600080fd5b8063aa3744bd14610402578063d1e82b581461040a57600080fd5b80638c7408c41161012f5780638e3c2493116101145780638e3c2493146103d7578063a0cf0aea146103df578063a407c67a146103fa57600080fd5b80638c7408c4146102ec5780638e0d1a50146103cf57600080fd5b80637b2edf32116101605780637b2edf32146103bf5780637cbe79ed146103c7578063829e423f146102ec57600080fd5b8063770b2e661461039757806379e62d0d146103b757600080fd5b8063392f37e91161022957806366d003ac116101dd57806370a32944116101c257806370a329441461038757806374d9284e146102ec578063759c9a861461038f57600080fd5b806366d003ac146103775780636a38dd0a1461037f57600080fd5b80634bf4ba211161020e5780634bf4ba2114610352578063587c1243146103675780635aff59991461036f57600080fd5b8063392f37e9146103335780633f26479e1461034957600080fd5b8063174eedde116102805780631e7bcb2e116102655780631e7bcb2e146102fb5780632e0f26251461030357806337d1c4041461032057600080fd5b8063174eedde146102ec5780631b96dce6146102f357600080fd5b8062b1fad7146102b1578063030e4006146102d65780630688b135146102de5780630f166ad4146102e6575b600080fd5b6102b9610473565b6040516001600160a01b0390911681526020015b60405180910390f35b6102b96104b8565b6102b96104f8565b306102b9565b60006102b9565b6102b9610538565b6102b9610578565b610312670de0b6b3a764000081565b6040519081526020016102cd565b61031261032e36600461148a565b6105b8565b61033b6106a2565b6040516102cd9291906115b3565b61031261271081565b61035a610739565b6040516102cd9190611618565b6102b961075c565b6102b961079c565b6102b96107dc565b6102b961081c565b61035a61085c565b6102b96108f4565b6103aa6103a5366004611695565b610934565b6040516102cd9190611718565b61035a610a0f565b6102b9610a77565b6102b9610ab7565b6102b9610af7565b6102b9610b37565b6102b973eeeeeeeeeeeeeeeeeeeeeeeeeeeeeeeeeeeeeeee81565b61035a610b77565b6102b9610bdf565b6102b9610c1f565b6102b9610c5f565b6102b9610c9f565b6103126104303660046117d4565b610cdf565b6102b9610d0c565b6102b9610d4c565b610312610453366004611866565b610d8c565b610312610466366004611898565b610e26565b6102b9611029565b60006104b36040518060400160405280600d81526020017f706f6f6c5f6d616e616765723100000000000000000000000000000000000000815250611065565b905090565b60006104b36040518060400160405280601381526020017f70726f66696c65315f6e6f74414d656d62657200000000000000000000000000815250611065565b60006104b36040518060400160405280600a81526020017f726563697069656e743200000000000000000000000000000000000000000000815250611065565b60006104b36040518060400160405280600e81526020017f70726f66696c65325f6f776e6572000000000000000000000000000000000000815250611065565b60006104b36040518060400160405280601081526020017f70726f66696c65315f6d656d6265723100000000000000000000000000000000815250611065565b600b54600090610697576040805180820182526001815281518083018352600c81527f506f6f6c50726f66696c6531000000000000000000000000000000000000000060208281019190915282015290517f3a92f65f0000000000000000000000000000000000000000000000000000000081526001600160a01b03861691633a92f65f91610650916002918890889060040161193c565b6020604051808303816000875af115801561066f573d6000803e3d6000fd5b505050506040513d601f19601f8201168201806040525081019061069391906119cc565b600b555b50600b549392505050565b60098054600a80549192916106b6906119e5565b80601f01602080910402602001604051908101604052809291908181526020018280546106e2906119e5565b801561072f5780601f106107045761010080835404028352916020019161072f565b820191906000526020600020905b81548152906001019060200180831161071257829003601f168201915b5050505050905082565b604080516002808252606080830184529260208301908036833701905050905090565b60006104b36040518060400160405280601081526020017f70726f66696c65325f6d656d6265723100000000000000000000000000000000815250611065565b60006104b36040518060400160405280601081526020017f726563697069656e744164647265737300000000000000000000000000000000815250611065565b60006104b36040518060400160405280600981526020017f726563697069656e740000000000000000000000000000000000000000000000815250611065565b60006104b36040518060400160405280600d81526020017f706f6f6c5f6d616e616765723200000000000000000000000000000000000000815250611065565b60408051600280825260608083018452926000929190602083019080368337019050509050610889610578565b8160008151811061089c5761089c611a1f565b60200260200101906001600160a01b031690816001600160a01b0316815250506108c4610a77565b816001815181106108d7576108d7611a1f565b6001600160a01b0390921660209283029190910190910152919050565b60006104b36040518060400160405280600c81526020017f6e6f5f726563697069656e740000000000000000000000000000000000000000815250611065565b61093c611380565b61094d670de0a46bc207d800611077565b60208201526109636702c68af0bb140000611077565b604082015261097866038d7ea4c68000611077565b60608201526001600160a01b038516815260a0810184600281111561099f5761099f6116ee565b908160028111156109b2576109b26116ee565b90525060c081018360038111156109cb576109cb6116ee565b908160038111156109de576109de6116ee565b9052508151600003610a00576109fd670de0b6b3a764000060c8611a4b565b82525b60e08101919091529392505050565b60408051600280825260608083018452926000929190602083019080368337019050509050610a3c610473565b81600081518110610a4f57610a4f611a1f565b60200260200101906001600160a01b031690816001600160a01b0316815250506108c461081c565b60006104b36040518060400160405280601081526020017f70726f66696c65315f6d656d6265723200000000000000000000000000000000815250611065565b60006104b36040518060400160405280600a81526020017f616c6c6f5f6f776e657200000000000000000000000000000000000000000000815250611065565b60006104b36040518060400160405280600a81526020017f706f6f6c5f61646d696e00000000000000000000000000000000000000000000815250611065565b60006104b36040518060400160405280601081526020017f70726f66696c65325f6d656d6265723200000000000000000000000000000000815250611065565b60408051600280825260608083018452926000929190602083019080368337019050509050610ba461075c565b81600081518110610bb757610bb7611a1f565b60200260200101906001600160a01b031690816001600160a01b0316815250506108c4610b37565b60006104b36040518060400160405280600a81526020017f726563697069656e743100000000000000000000000000000000000000000000815250611065565b60006104b36040518060400160405280601081526020017f706f6f6c5f6e6f74414d616e6167657200000000000000000000000000000000815250611065565b60006104b36040518060400160405280600e81526020017f70726f66696c65315f6f776e6572000000000000000000000000000000000000815250611065565b60006104b36040518060400160405280600b81526020017f72616e646f6d2063686164000000000000000000000000000000000000000000815250611065565b6000610d008888888888888860405180602001604052806000815250610e26565b98975050505050505050565b60006104b36040518060400160405280600d81526020017f616c6c6f5f747265617375727900000000000000000000000000000000000000815250611065565b60006104b36040518060400160405280600e81526020017f72656769737472795f6f776e6572000000000000000000000000000000000000815250611065565b60008481610daa610da462989680608087901b611a62565b8361108e565b905060806f80000000000000000000000000000000610dcc8662989680611a84565b610dda84600160801b611a84565b610de7629896808a611a4b565b610df19190611a4b565b610dfb9190611a62565b610e058985611a4b565b610e0f9190611a97565b610e199190611a97565b901c979650505050505050565b600080610e3588868686610934565b60408051600280825260608201835292935060009290916020830190803683370190505090503081600081518110610e6f57610e6f611a1f565b60200260200101906001600160a01b031690816001600160a01b0316815250503381600181518110610ea357610ea3611a1f565b6001600160a01b03928316602091820292909201015273eeeeeeeeeeeeeeeeeeeeeeeeeeeeeeeeeeeeeeee90881615610ed95750865b8b6001600160a01b031663e1007d4a610efa8b610ef4610af7565b866105b8565b8d86604051602001610f0c9190611718565b6040516020818303038152906040528560006009896040518863ffffffff1660e01b8152600401610f439796959493929190611aaa565b6020604051808303816000875af1158015610f62573d6000803e3d6000fd5b505050506040513d601f19601f82011682018060405250810190610f8691906119cc565b9350866002811115610f9a57610f9a6116ee565b8b6001600160a01b031663351d9f966040518163ffffffff1660e01b8152600401602060405180830381865afa158015610fd8573d6000803e3d6000fd5b505050506040513d601f19601f82011682018060405250810190610ffc9190611bbb565b600281111561100d5761100d6116ee565b1461101a5761101a611bd8565b50505098975050505050505050565b60006104b36040518060400160405280601381526020017f70726f66696c65325f6e6f74414d656d626572000000000000000000000000008152505b60006110708261113c565b5092915050565b600061108864174876e80083611a62565b92915050565b6000600160801b83106110e85760405162461bcd60e51b815260206004820152601c60248201527f5f612073686f756c64206265206c657373207468616e20325e3132380000000060448201526064015b60405180910390fd5b50600160801b82825b801561113457806001166000036111165761110c8283611281565b915060011c6110f1565b6111208383611281565b925061112d600182611a84565b90506110f1565b505092915050565b600080826040516020016111509190611bee565b60408051808303601f190181529082905280516020909101207fffa18649000000000000000000000000000000000000000000000000000000008252600482018190529150737109709ecfa91a80626ff3989d68f67f5b1dd12d9063ffa1864990602401602060405180830381865afa1580156111d1573d6000803e3d6000fd5b505050506040513d601f19601f820116820180604052508101906111f59190611c0a565b6040517fc657c718000000000000000000000000000000000000000000000000000000008152909250737109709ecfa91a80626ff3989d68f67f5b1dd12d9063c657c7189061124a9085908790600401611c27565b600060405180830381600087803b15801561126457600080fd5b505af1158015611278573d6000803e3d6000fd5b50505050915091565b6000600160801b8311156112fd5760405162461bcd60e51b815260206004820152602860248201527f5f612073686f756c64206265206c657373207468616e206f7220657175616c2060448201527f746f20325e31323800000000000000000000000000000000000000000000000060648201526084016110df565b600160801b82106113505760405162461bcd60e51b815260206004820152601c60248201527f5f622073686f756c64206265206c657373207468616e20325e3132380000000060448201526064016110df565b60806f8000000000000000000000000000000061136d8486611a4b565b6113779190611a97565b901c9392505050565b60405180610120016040528060006001600160a01b0316815260200160008152602001600081526020016000815260200160008152602001600060028111156113cb576113cb6116ee565b8152602001600081526020016113ed6040518060200160405280600081525090565b8152602001611426604051806080016040528060006001600160a01b031681526020016000815260200160008152602001600081525090565b905290565b6001600160a01b038116811461144057600080fd5b50565b634e487b7160e01b600052604160045260246000fd5b604051601f8201601f1916810167ffffffffffffffff8111828210171561148257611482611443565b604052919050565b60008060006060848603121561149f57600080fd5b83356114aa8161142b565b92506020848101356114bb8161142b565b9250604085013567ffffffffffffffff808211156114d857600080fd5b818701915087601f8301126114ec57600080fd5b8135818111156114fe576114fe611443565b8060051b915061150f848301611459565b818152918301840191848101908a84111561152957600080fd5b938501935b8385101561155357843592506115438361142b565b828252938501939085019061152e565b8096505050505050509250925092565b60005b8381101561157e578181015183820152602001611566565b50506000910152565b6000815180845261159f816020860160208601611563565b601f01601f19169290920160200192915050565b8281526040602082015260006115cc6040830184611587565b949350505050565b600081518084526020808501945080840160005b8381101561160d5781516001600160a01b0316875295820195908201906001016115e8565b509495945050505050565b60208152600061162b60208301846115d4565b9392505050565b6003811061144057600080fd5b80356004811061164e57600080fd5b919050565b60006020828403121561166557600080fd5b6040516020810181811067ffffffffffffffff8211171561168857611688611443565b6040529135825250919050565b600080600080608085870312156116ab57600080fd5b84356116b68161142b565b935060208501356116c681611632565b92506116d46040860161163f565b91506116e38660608701611653565b905092959194509250565b634e487b7160e01b600052602160045260246000fd5b60048110611714576117146116ee565b9052565b6000610180820190506001600160a01b0383511682526020830151602083015260408301516040830152606083015160608301526080830151608083015260a08301516003811061176b5761176b6116ee565b8060a08401525060c083015161178460c0840182611704565b5060e083015161179760e0840182519052565b506101008381015180516001600160a01b031684830152602081015161012085015260408101516101408501526060810151610160850152611134565b600080600080600080600060e0888a0312156117ef57600080fd5b87356117fa8161142b565b9650602088013561180a8161142b565b9550604088013561181a8161142b565b9450606088013561182a8161142b565b9350608088013561183a8161142b565b925060a088013561184a81611632565b915061185860c0890161163f565b905092959891949750929550565b6000806000806080858703121561187c57600080fd5b5050823594602084013594506040840135936060013592509050565b600080600080600080600080610100898b0312156118b557600080fd5b88356118c08161142b565b975060208901356118d08161142b565b965060408901356118e08161142b565b955060608901356118f08161142b565b945060808901356119008161142b565b935060a089013561191081611632565b925061191e60c08a0161163f565b915061192d8a60e08b01611653565b90509295985092959890939650565b84815260a06020820152600e60a08201527f506f6f6c2050726f66696c65203100000000000000000000000000000000000060c082015260e06040820152835160e082015260006020850151604061010084015261199e610120840182611587565b90506001600160a01b038516606084015282810360808401526119c181856115d4565b979650505050505050565b6000602082840312156119de57600080fd5b5051919050565b600181811c908216806119f957607f821691505b602082108103611a1957634e487b7160e01b600052602260045260246000fd5b50919050565b634e487b7160e01b600052603260045260246000fd5b634e487b7160e01b600052601160045260246000fd5b808202811582820484141761108857611088611a35565b600082611a7f57634e487b7160e01b600052601260045260246000fd5b500490565b8181038181111561108857611088611a35565b8082018082111561108857611088611a35565b878152600060206001600160a01b03808a168285015260e06040850152611ad460e085018a611587565b818916606086015287608086015284810360a08601528654815260019150818701604084830152600081548181861c905085821680611b1457607f821691505b8782108103611b3157634e487b7160e01b84526022600452602484fd5b60408601829052606086019550808015611b525760018114611b6857611b93565b60ff198416875282151560051b87019450611b93565b60008681526020902060005b84811015611b8d57815489820152908901908a01611b74565b88019550505b5050505086810360c0880152611ba981896115d4565b9e9d5050505050505050505050505050565b600060208284031215611bcd57600080fd5b815161162b81611632565b634e487b7160e01b600052600160045260246000fd5b60008251611c00818460208701611563565b9190910192915050565b600060208284031215611c1c57600080fd5b815161162b8161142b565b6001600160a01b03831681526040602082015260006115cc604083018461158756fea264697066735822122048453af7ce5531520da8a479cf0a69cb8b9859c161acf46ee16f35113e403a5864736f6c63430008130033516d57347a464c464a524e374a3637457a4e6d64433272324d397532694a44686132666a3547656536684a7a5359","linkReferences":{}},"methodIdentifiers":{"DECIMALS()":"2e0f2625","NATIVE()":"a0cf0aea","PERCENTAGE_SCALE()":"3f26479e","_calculateConviction(uint256,uint256,uint256,uint256)":"e99ce911","allo_owner()":"7cbe79ed","allo_treasury()":"da4bf087","createPool(address,address,address,address,address,uint8,uint8)":"d8c12dc2","createPool(address,address,address,address,address,uint8,uint8,(uint256))":"ed62303a","getParams(address,uint8,uint8,(uint256))":"770b2e66","local()":"0f166ad4","metadata()":"392f37e9","no_recipient()":"759c9a86","nullProfile_member1()":"829e423f","nullProfile_member2()":"8c7408c4","nullProfile_members()":"4bf4ba21","nullProfile_notAMember()":"174eedde","nullProfile_owner()":"74d9284e","poolProfile_id1(address,address,address[])":"37d1c404","pool_admin()":"8e0d1a50","pool_manager1()":"00b1fad7","pool_manager2()":"6a38dd0a","pool_managers()":"79e62d0d","pool_notAManager()":"d1e82b58","profile1_member1()":"1e7bcb2e","profile1_member2()":"7b2edf32","profile1_members()":"70a32944","profile1_notAMember()":"030e4006","profile1_owner()":"d1f2cd88","profile2_member1()":"587c1243","profile2_member2()":"8e3c2493","profile2_members()":"a407c67a","profile2_notAMember()":"ef0d790f","profile2_owner()":"1b96dce6","randomAddress()":"d5bee9f5","recipient()":"66d003ac","recipient1()":"aa3744bd","recipient2()":"0688b135","recipientAddress()":"5aff5999","registry_owner()":"dac4eb16"},"id":118}