{"abi":[{"type":"function","name":"NATIVE","inputs":[],"outputs":[{"name":"","type":"address","internalType":"address"}],"stateMutability":"view"},{"type":"function","name":"_calculateConviction","inputs":[{"name":"_timePassed","type":"uint256","internalType":"uint256"},{"name":"_lastConv","type":"uint256","internalType":"uint256"},{"name":"_oldAmount","type":"uint256","internalType":"uint256"},{"name":"decay","type":"uint256","internalType":"uint256"}],"outputs":[{"name":"","type":"uint256","internalType":"uint256"}],"stateMutability":"pure"},{"type":"function","name":"allo_owner","inputs":[],"outputs":[{"name":"","type":"address","internalType":"address"}],"stateMutability":"nonpayable"},{"type":"function","name":"allo_treasury","inputs":[],"outputs":[{"name":"","type":"address","internalType":"address payable"}],"stateMutability":"nonpayable"},{"type":"function","name":"createPool","inputs":[{"name":"allo","type":"address","internalType":"contract Allo"},{"name":"strategy","type":"address","internalType":"address"},{"name":"registryCommunity","type":"address","internalType":"address"},{"name":"registry","type":"address","internalType":"contract IRegistry"},{"name":"token","type":"address","internalType":"address"}],"outputs":[{"name":"poolId","type":"uint256","internalType":"uint256"}],"stateMutability":"nonpayable"},{"type":"function","name":"local","inputs":[],"outputs":[{"name":"","type":"address","internalType":"address"}],"stateMutability":"view"},{"type":"function","name":"metadata","inputs":[],"outputs":[{"name":"protocol","type":"uint256","internalType":"uint256"},{"name":"pointer","type":"string","internalType":"string"}],"stateMutability":"view"},{"type":"function","name":"no_recipient","inputs":[],"outputs":[{"name":"","type":"address","internalType":"address"}],"stateMutability":"nonpayable"},{"type":"function","name":"nullProfile_member1","inputs":[],"outputs":[{"name":"","type":"address","internalType":"address"}],"stateMutability":"pure"},{"type":"function","name":"nullProfile_member2","inputs":[],"outputs":[{"name":"","type":"address","internalType":"address"}],"stateMutability":"pure"},{"type":"function","name":"nullProfile_members","inputs":[],"outputs":[{"name":"","type":"address[]","internalType":"address[]"}],"stateMutability":"pure"},{"type":"function","name":"nullProfile_notAMember","inputs":[],"outputs":[{"name":"","type":"address","internalType":"address"}],"stateMutability":"pure"},{"type":"function","name":"nullProfile_owner","inputs":[],"outputs":[{"name":"","type":"address","internalType":"address"}],"stateMutability":"pure"},{"type":"function","name":"poolProfile_id1","inputs":[{"name":"registry","type":"address","internalType":"contract IRegistry"},{"name":"pool_admin","type":"address","internalType":"address"},{"name":"pool_managers","type":"address[]","internalType":"address[]"}],"outputs":[{"name":"","type":"bytes32","internalType":"bytes32"}],"stateMutability":"nonpayable"},{"type":"function","name":"pool_admin","inputs":[],"outputs":[{"name":"","type":"address","internalType":"address"}],"stateMutability":"nonpayable"},{"type":"function","name":"pool_manager1","inputs":[],"outputs":[{"name":"","type":"address","internalType":"address"}],"stateMutability":"nonpayable"},{"type":"function","name":"pool_manager2","inputs":[],"outputs":[{"name":"","type":"address","internalType":"address"}],"stateMutability":"nonpayable"},{"type":"function","name":"pool_managers","inputs":[],"outputs":[{"name":"","type":"address[]","internalType":"address[]"}],"stateMutability":"nonpayable"},{"type":"function","name":"pool_notAManager","inputs":[],"outputs":[{"name":"","type":"address","internalType":"address"}],"stateMutability":"nonpayable"},{"type":"function","name":"profile1_member1","inputs":[],"outputs":[{"name":"","type":"address","internalType":"address"}],"stateMutability":"nonpayable"},{"type":"function","name":"profile1_member2","inputs":[],"outputs":[{"name":"","type":"address","internalType":"address"}],"stateMutability":"nonpayable"},{"type":"function","name":"profile1_members","inputs":[],"outputs":[{"name":"","type":"address[]","internalType":"address[]"}],"stateMutability":"nonpayable"},{"type":"function","name":"profile1_notAMember","inputs":[],"outputs":[{"name":"","type":"address","internalType":"address"}],"stateMutability":"nonpayable"},{"type":"function","name":"profile1_owner","inputs":[],"outputs":[{"name":"","type":"address","internalType":"address"}],"stateMutability":"nonpayable"},{"type":"function","name":"profile2_member1","inputs":[],"outputs":[{"name":"","type":"address","internalType":"address"}],"stateMutability":"nonpayable"},{"type":"function","name":"profile2_member2","inputs":[],"outputs":[{"name":"","type":"address","internalType":"address"}],"stateMutability":"nonpayable"},{"type":"function","name":"profile2_members","inputs":[],"outputs":[{"name":"","type":"address[]","internalType":"address[]"}],"stateMutability":"nonpayable"},{"type":"function","name":"profile2_notAMember","inputs":[],"outputs":[{"name":"","type":"address","internalType":"address"}],"stateMutability":"nonpayable"},{"type":"function","name":"profile2_owner","inputs":[],"outputs":[{"name":"","type":"address","internalType":"address"}],"stateMutability":"nonpayable"},{"type":"function","name":"randomAddress","inputs":[],"outputs":[{"name":"","type":"address","internalType":"address"}],"stateMutability":"nonpayable"},{"type":"function","name":"recipient","inputs":[],"outputs":[{"name":"","type":"address","internalType":"address"}],"stateMutability":"nonpayable"},{"type":"function","name":"recipient1","inputs":[],"outputs":[{"name":"","type":"address","internalType":"address"}],"stateMutability":"nonpayable"},{"type":"function","name":"recipient2","inputs":[],"outputs":[{"name":"","type":"address","internalType":"address"}],"stateMutability":"nonpayable"},{"type":"function","name":"recipientAddress","inputs":[],"outputs":[{"name":"","type":"address","internalType":"address"}],"stateMutability":"nonpayable"},{"type":"function","name":"registry_owner","inputs":[],"outputs":[{"name":"","type":"address","internalType":"address"}],"stateMutability":"nonpayable"}],"bytecode":{"object":"0x60016080818152610100604052601060c09081526f39ba3930ba32b3bc903837b4b73a32b960811b60e05260a0819052600892835590919060099062000046908262000102565b5050503480156200005657600080fd5b50620001ce565b634e487b7160e01b600052604160045260246000fd5b600181811c908216806200008857607f821691505b602082108103620000a957634e487b7160e01b600052602260045260246000fd5b50919050565b601f821115620000fd57600081815260208120601f850160051c81016020861015620000d85750805b601f850160051c820191505b81811015620000f957828155600101620000e4565b5050505b505050565b81516001600160401b038111156200011e576200011e6200005d565b62000136816200012f845462000073565b84620000af565b602080601f8311600181146200016e5760008415620001555750858301515b600019600386901b1c1916600185901b178555620000f9565b600085815260208120601f198616915b828110156200019f578886015182559484019460019091019084016200017e565b5085821015620001be5787850151600019600388901b60f8161c191681555b5050505050600190811b01905550565b61175f80620001de6000396000f3fe608060405234801561001057600080fd5b50600436106102405760003560e01c806379e62d0d11610145578063aa3744bd116100bd578063d5bee9f51161008c578063dac4eb1611610071578063dac4eb1614610399578063e99ce911146103a1578063ef0d790f146103b457600080fd5b8063d5bee9f514610389578063da4bf0871461039157600080fd5b8063aa3744bd1461035e578063ae15960114610366578063d1e82b5814610379578063d1f2cd881461038157600080fd5b80638c7408c4116101145780638e3c2493116100f95780638e3c249314610333578063a0cf0aea1461033b578063a407c67a1461035657600080fd5b80638c7408c4146102805780638e0d1a501461032b57600080fd5b806379e62d0d146103135780637b2edf321461031b5780637cbe79ed14610323578063829e423f1461028057600080fd5b8063392f37e9116101d857806366d003ac116101a757806370a329441161018c57806370a329441461030357806374d9284e14610280578063759c9a861461030b57600080fd5b806366d003ac146102f35780636a38dd0a146102fb57600080fd5b8063392f37e9146102b85780634bf4ba21146102ce578063587c1243146102e35780635aff5999146102eb57600080fd5b8063174eedde11610214578063174eedde146102805780631b96dce6146102875780631e7bcb2e1461028f57806337d1c4041461029757600080fd5b8062b1fad714610245578063030e40061461026a5780630688b135146102725780630f166ad41461027a575b600080fd5b61024d6103bc565b6040516001600160a01b0390911681526020015b60405180910390f35b61024d610401565b61024d610441565b3061024d565b600061024d565b61024d610481565b61024d6104c1565b6102aa6102a53660046111f1565b610501565b604051908152602001610261565b6102c06105eb565b60405161026192919061132d565b6102d6610682565b6040516102619190611392565b61024d6106a5565b61024d6106e5565b61024d610725565b61024d610765565b6102d66107a5565b61024d61083d565b6102d661087d565b61024d6108e5565b61024d610925565b61024d610965565b61024d6109a5565b61024d73eeeeeeeeeeeeeeeeeeeeeeeeeeeeeeeeeeeeeeee81565b6102d66109e5565b61024d610a4d565b6102aa6103743660046113ac565b610a8d565b61024d610c82565b61024d610cc2565b61024d610d02565b61024d610d42565b61024d610d82565b6102aa6103af36600461141d565b610dc2565b61024d610e5c565b60006103fc6040518060400160405280600d81526020017f706f6f6c5f6d616e616765723100000000000000000000000000000000000000815250610e98565b905090565b60006103fc6040518060400160405280601381526020017f70726f66696c65315f6e6f74414d656d62657200000000000000000000000000815250610e98565b60006103fc6040518060400160405280600a81526020017f726563697069656e743200000000000000000000000000000000000000000000815250610e98565b60006103fc6040518060400160405280600e81526020017f70726f66696c65325f6f776e6572000000000000000000000000000000000000815250610e98565b60006103fc6040518060400160405280601081526020017f70726f66696c65315f6d656d6265723100000000000000000000000000000000815250610e98565b600a546000906105e0576040805180820182526001815281518083018352600c81527f506f6f6c50726f66696c6531000000000000000000000000000000000000000060208281019190915282015290517f3a92f65f0000000000000000000000000000000000000000000000000000000081526001600160a01b03861691633a92f65f91610599916002918890889060040161144f565b6020604051808303816000875af11580156105b8573d6000803e3d6000fd5b505050506040513d601f19601f820116820180604052508101906105dc91906114df565b600a555b50600a549392505050565b60088054600980549192916105ff906114f8565b80601f016020809104026020016040519081016040528092919081815260200182805461062b906114f8565b80156106785780601f1061064d57610100808354040283529160200191610678565b820191906000526020600020905b81548152906001019060200180831161065b57829003601f168201915b5050505050905082565b604080516002808252606080830184529260208301908036833701905050905090565b60006103fc6040518060400160405280601081526020017f70726f66696c65325f6d656d6265723100000000000000000000000000000000815250610e98565b60006103fc6040518060400160405280601081526020017f726563697069656e744164647265737300000000000000000000000000000000815250610e98565b60006103fc6040518060400160405280600981526020017f726563697069656e740000000000000000000000000000000000000000000000815250610e98565b60006103fc6040518060400160405280600d81526020017f706f6f6c5f6d616e616765723200000000000000000000000000000000000000815250610e98565b604080516002808252606080830184529260009291906020830190803683370190505090506107d26104c1565b816000815181106107e5576107e5611532565b60200260200101906001600160a01b031690816001600160a01b03168152505061080d6108e5565b8160018151811061082057610820611532565b6001600160a01b0390921660209283029190910190910152919050565b60006103fc6040518060400160405280600c81526020017f6e6f5f726563697069656e740000000000000000000000000000000000000000815250610e98565b604080516002808252606080830184529260009291906020830190803683370190505090506108aa6103bc565b816000815181106108bd576108bd611532565b60200260200101906001600160a01b031690816001600160a01b03168152505061080d610765565b60006103fc6040518060400160405280601081526020017f70726f66696c65315f6d656d6265723200000000000000000000000000000000815250610e98565b60006103fc6040518060400160405280600a81526020017f616c6c6f5f6f776e657200000000000000000000000000000000000000000000815250610e98565b60006103fc6040518060400160405280600a81526020017f706f6f6c5f61646d696e00000000000000000000000000000000000000000000815250610e98565b60006103fc6040518060400160405280601081526020017f70726f66696c65325f6d656d6265723200000000000000000000000000000000815250610e98565b60408051600280825260608083018452926000929190602083019080368337019050509050610a126106a5565b81600081518110610a2557610a25611532565b60200260200101906001600160a01b031690816001600160a01b03168152505061080d6109a5565b60006103fc6040518060400160405280600a81526020017f726563697069656e743100000000000000000000000000000000000000000000815250610e98565b6040805160808101825260008082526020820181905291810182905260608101829052610ac1670de0a46bc207d800610eaa565b6020820152610ad76702c68af0bb140000610eaa565b6040820152610aec66038d7ea4c68000610eaa565b6060828101919091526001600160a01b0386168252604080516002808252928101825260009290916020830190803683370190505090503081600081518110610b3757610b37611532565b60200260200101906001600160a01b031690816001600160a01b0316815250503381600181518110610b6b57610b6b611532565b6001600160a01b03928316602091820292909201015273eeeeeeeeeeeeeeeeeeeeeeeeeeeeeeeeeeeeeeee90851615610ba15750835b886001600160a01b031663e1007d4a610bc288610bbc610965565b86610501565b6040805187516001600160a01b0316602080830191909152880151818301529087015160608083019190915287015160808201528b9060a0016040516020818303038152906040528560006008896040518863ffffffff1660e01b8152600401610c329796959493929190611548565b6020604051808303816000875af1158015610c51573d6000803e3d6000fd5b505050506040513d601f19601f82011682018060405250810190610c7591906114df565b9998505050505050505050565b60006103fc6040518060400160405280601081526020017f706f6f6c5f6e6f74414d616e6167657200000000000000000000000000000000815250610e98565b60006103fc6040518060400160405280600e81526020017f70726f66696c65315f6f776e6572000000000000000000000000000000000000815250610e98565b60006103fc6040518060400160405280600b81526020017f72616e646f6d2063686164000000000000000000000000000000000000000000815250610e98565b60006103fc6040518060400160405280600d81526020017f616c6c6f5f747265617375727900000000000000000000000000000000000000815250610e98565b60006103fc6040518060400160405280600e81526020017f72656769737472795f6f776e6572000000000000000000000000000000000000815250610e98565b60008481610de0610dda62989680608087901b61166f565b83610ec1565b905060806f80000000000000000000000000000000610e028662989680611691565b610e1084600160801b611691565b610e1d629896808a6116a4565b610e2791906116a4565b610e31919061166f565b610e3b89856116a4565b610e4591906116bb565b610e4f91906116bb565b901c979650505050505050565b60006103fc6040518060400160405280601381526020017f70726f66696c65325f6e6f74414d656d626572000000000000000000000000008152505b6000610ea382610f6f565b5092915050565b6000610ebb64174876e8008361166f565b92915050565b6000600160801b8310610f1b5760405162461bcd60e51b815260206004820152601c60248201527f5f612073686f756c64206265206c657373207468616e20325e3132380000000060448201526064015b60405180910390fd5b50600160801b82825b8015610f675780600116600003610f4957610f3f82836110b4565b915060011c610f24565b610f5383836110b4565b9250610f60600182611691565b9050610f24565b505092915050565b60008082604051602001610f8391906116ce565b60408051808303601f190181529082905280516020909101207fffa18649000000000000000000000000000000000000000000000000000000008252600482018190529150737109709ecfa91a80626ff3989d68f67f5b1dd12d9063ffa1864990602401602060405180830381865afa158015611004573d6000803e3d6000fd5b505050506040513d601f19601f8201168201806040525081019061102891906116ea565b6040517fc657c718000000000000000000000000000000000000000000000000000000008152909250737109709ecfa91a80626ff3989d68f67f5b1dd12d9063c657c7189061107d9085908790600401611707565b600060405180830381600087803b15801561109757600080fd5b505af11580156110ab573d6000803e3d6000fd5b50505050915091565b6000600160801b8311156111305760405162461bcd60e51b815260206004820152602860248201527f5f612073686f756c64206265206c657373207468616e206f7220657175616c2060448201527f746f20325e3132380000000000000000000000000000000000000000000000006064820152608401610f12565b600160801b82106111835760405162461bcd60e51b815260206004820152601c60248201527f5f622073686f756c64206265206c657373207468616e20325e313238000000006044820152606401610f12565b60806f800000000000000000000000000000006111a084866116a4565b6111aa91906116bb565b901c9392505050565b6001600160a01b03811681146111c857600080fd5b50565b80356111d6816111b3565b919050565b634e487b7160e01b600052604160045260246000fd5b60008060006060848603121561120657600080fd5b8335611211816111b3565b9250602084810135611222816111b3565b9250604085013567ffffffffffffffff8082111561123f57600080fd5b818701915087601f83011261125357600080fd5b813581811115611265576112656111db565b8060051b604051601f19603f8301168101818110858211171561128a5761128a6111db565b60405291825284820192508381018501918a8311156112a857600080fd5b938501935b828510156112cd576112be856111cb565b845293850193928501926112ad565b8096505050505050509250925092565b60005b838110156112f85781810151838201526020016112e0565b50506000910152565b600081518084526113198160208601602086016112dd565b601f01601f19169290920160200192915050565b8281526040602082015260006113466040830184611301565b949350505050565b600081518084526020808501945080840160005b838110156113875781516001600160a01b031687529582019590820190600101611362565b509495945050505050565b6020815260006113a5602083018461134e565b9392505050565b600080600080600060a086880312156113c457600080fd5b85356113cf816111b3565b945060208601356113df816111b3565b935060408601356113ef816111b3565b925060608601356113ff816111b3565b9150608086013561140f816111b3565b809150509295509295909350565b6000806000806080858703121561143357600080fd5b5050823594602084013594506040840135936060013592509050565b84815260a06020820152600e60a08201527f506f6f6c2050726f66696c65203100000000000000000000000000000000000060c082015260e06040820152835160e08201526000602085015160406101008401526114b1610120840182611301565b90506001600160a01b038516606084015282810360808401526114d4818561134e565b979650505050505050565b6000602082840312156114f157600080fd5b5051919050565b600181811c9082168061150c57607f821691505b60208210810361152c57634e487b7160e01b600052602260045260246000fd5b50919050565b634e487b7160e01b600052603260045260246000fd5b878152600060206001600160a01b03808a168285015260e0604085015261157260e085018a611301565b818916606086015287608086015284810360a08601528654815260019150818701604084830152600081548181861c9050858216806115b257607f821691505b87821081036115cf57634e487b7160e01b84526022600452602484fd5b604086018290526060860195508080156115f0576001811461160657611631565b60ff198416875282151560051b87019450611631565b60008681526020902060005b8481101561162b57815489820152908901908a01611612565b88019550505b5050505086810360c0880152611647818961134e565b9e9d5050505050505050505050505050565b634e487b7160e01b600052601160045260246000fd5b60008261168c57634e487b7160e01b600052601260045260246000fd5b500490565b81810381811115610ebb57610ebb611659565b8082028115828204841417610ebb57610ebb611659565b80820180821115610ebb57610ebb611659565b600082516116e08184602087016112dd565b9190910192915050565b6000602082840312156116fc57600080fd5b81516113a5816111b3565b6001600160a01b0383168152604060208201526000611346604083018461130156fea26469706673582212200515a8e2d9b43e67b874addf4e5efcfc040b17d4c9007bead88df7a0a103402664736f6c63430008130033","linkReferences":{}},"methodIdentifiers":{"NATIVE()":"a0cf0aea","_calculateConviction(uint256,uint256,uint256,uint256)":"e99ce911","allo_owner()":"7cbe79ed","allo_treasury()":"da4bf087","createPool(address,address,address,address,address)":"ae159601","local()":"0f166ad4","metadata()":"392f37e9","no_recipient()":"759c9a86","nullProfile_member1()":"829e423f","nullProfile_member2()":"8c7408c4","nullProfile_members()":"4bf4ba21","nullProfile_notAMember()":"174eedde","nullProfile_owner()":"74d9284e","poolProfile_id1(address,address,address[])":"37d1c404","pool_admin()":"8e0d1a50","pool_manager1()":"00b1fad7","pool_manager2()":"6a38dd0a","pool_managers()":"79e62d0d","pool_notAManager()":"d1e82b58","profile1_member1()":"1e7bcb2e","profile1_member2()":"7b2edf32","profile1_members()":"70a32944","profile1_notAMember()":"030e4006","profile1_owner()":"d1f2cd88","profile2_member1()":"587c1243","profile2_member2()":"8e3c2493","profile2_members()":"a407c67a","profile2_notAMember()":"ef0d790f","profile2_owner()":"1b96dce6","randomAddress()":"d5bee9f5","recipient()":"66d003ac","recipient1()":"aa3744bd","recipient2()":"0688b135","recipientAddress()":"5aff5999","registry_owner()":"dac4eb16"},"id":96}