{"abi":[{"type":"function","name":"NATIVE","inputs":[],"outputs":[{"name":"","type":"address","internalType":"address"}],"stateMutability":"view"},{"type":"function","name":"_calculateConviction","inputs":[{"name":"_timePassed","type":"uint256","internalType":"uint256"},{"name":"_lastConv","type":"uint256","internalType":"uint256"},{"name":"_oldAmount","type":"uint256","internalType":"uint256"},{"name":"decay","type":"uint256","internalType":"uint256"}],"outputs":[{"name":"","type":"uint256","internalType":"uint256"}],"stateMutability":"pure"},{"type":"function","name":"allo_owner","inputs":[],"outputs":[{"name":"","type":"address","internalType":"address"}],"stateMutability":"nonpayable"},{"type":"function","name":"allo_treasury","inputs":[],"outputs":[{"name":"","type":"address","internalType":"address payable"}],"stateMutability":"nonpayable"},{"type":"function","name":"createPool","inputs":[{"name":"allo","type":"address","internalType":"contract Allo"},{"name":"strategy","type":"address","internalType":"address"},{"name":"registryCommunity","type":"address","internalType":"address"},{"name":"registry","type":"address","internalType":"contract IRegistry"},{"name":"token","type":"address","internalType":"address"},{"name":"proposalType","type":"uint8","internalType":"enum StrategyStruct.ProposalType"},{"name":"pointSystem","type":"uint8","internalType":"enum StrategyStruct.PointSystem"}],"outputs":[{"name":"poolId","type":"uint256","internalType":"uint256"}],"stateMutability":"nonpayable"},{"type":"function","name":"getParams","inputs":[{"name":"registryCommunity","type":"address","internalType":"address"},{"name":"proposalType","type":"uint8","internalType":"enum StrategyStruct.ProposalType"},{"name":"pointSystem","type":"uint8","internalType":"enum StrategyStruct.PointSystem"}],"outputs":[{"name":"params","type":"tuple","internalType":"struct StrategyStruct.InitializeParams","components":[{"name":"registryCommunity","type":"address","internalType":"address"},{"name":"decay","type":"uint256","internalType":"uint256"},{"name":"maxRatio","type":"uint256","internalType":"uint256"},{"name":"weight","type":"uint256","internalType":"uint256"},{"name":"proposalType","type":"uint8","internalType":"enum StrategyStruct.ProposalType"},{"name":"pointSystem","type":"uint8","internalType":"enum StrategyStruct.PointSystem"},{"name":"pointConfig","type":"tuple","internalType":"struct StrategyStruct.PointSystemConfig","components":[{"name":"pointsPerTokenStaked","type":"uint256","internalType":"uint256"},{"name":"maxAmount","type":"uint256","internalType":"uint256"},{"name":"pointsPerMember","type":"uint256","internalType":"uint256"},{"name":"tokensPerPoint","type":"uint256","internalType":"uint256"}]}]}],"stateMutability":"pure"},{"type":"function","name":"local","inputs":[],"outputs":[{"name":"","type":"address","internalType":"address"}],"stateMutability":"view"},{"type":"function","name":"metadata","inputs":[],"outputs":[{"name":"protocol","type":"uint256","internalType":"uint256"},{"name":"pointer","type":"string","internalType":"string"}],"stateMutability":"view"},{"type":"function","name":"no_recipient","inputs":[],"outputs":[{"name":"","type":"address","internalType":"address"}],"stateMutability":"nonpayable"},{"type":"function","name":"nullProfile_member1","inputs":[],"outputs":[{"name":"","type":"address","internalType":"address"}],"stateMutability":"pure"},{"type":"function","name":"nullProfile_member2","inputs":[],"outputs":[{"name":"","type":"address","internalType":"address"}],"stateMutability":"pure"},{"type":"function","name":"nullProfile_members","inputs":[],"outputs":[{"name":"","type":"address[]","internalType":"address[]"}],"stateMutability":"pure"},{"type":"function","name":"nullProfile_notAMember","inputs":[],"outputs":[{"name":"","type":"address","internalType":"address"}],"stateMutability":"pure"},{"type":"function","name":"nullProfile_owner","inputs":[],"outputs":[{"name":"","type":"address","internalType":"address"}],"stateMutability":"pure"},{"type":"function","name":"poolProfile_id1","inputs":[{"name":"registry","type":"address","internalType":"contract IRegistry"},{"name":"pool_admin","type":"address","internalType":"address"},{"name":"pool_managers","type":"address[]","internalType":"address[]"}],"outputs":[{"name":"","type":"bytes32","internalType":"bytes32"}],"stateMutability":"nonpayable"},{"type":"function","name":"pool_admin","inputs":[],"outputs":[{"name":"","type":"address","internalType":"address"}],"stateMutability":"nonpayable"},{"type":"function","name":"pool_manager1","inputs":[],"outputs":[{"name":"","type":"address","internalType":"address"}],"stateMutability":"nonpayable"},{"type":"function","name":"pool_manager2","inputs":[],"outputs":[{"name":"","type":"address","internalType":"address"}],"stateMutability":"nonpayable"},{"type":"function","name":"pool_managers","inputs":[],"outputs":[{"name":"","type":"address[]","internalType":"address[]"}],"stateMutability":"nonpayable"},{"type":"function","name":"pool_notAManager","inputs":[],"outputs":[{"name":"","type":"address","internalType":"address"}],"stateMutability":"nonpayable"},{"type":"function","name":"profile1_member1","inputs":[],"outputs":[{"name":"","type":"address","internalType":"address"}],"stateMutability":"nonpayable"},{"type":"function","name":"profile1_member2","inputs":[],"outputs":[{"name":"","type":"address","internalType":"address"}],"stateMutability":"nonpayable"},{"type":"function","name":"profile1_members","inputs":[],"outputs":[{"name":"","type":"address[]","internalType":"address[]"}],"stateMutability":"nonpayable"},{"type":"function","name":"profile1_notAMember","inputs":[],"outputs":[{"name":"","type":"address","internalType":"address"}],"stateMutability":"nonpayable"},{"type":"function","name":"profile1_owner","inputs":[],"outputs":[{"name":"","type":"address","internalType":"address"}],"stateMutability":"nonpayable"},{"type":"function","name":"profile2_member1","inputs":[],"outputs":[{"name":"","type":"address","internalType":"address"}],"stateMutability":"nonpayable"},{"type":"function","name":"profile2_member2","inputs":[],"outputs":[{"name":"","type":"address","internalType":"address"}],"stateMutability":"nonpayable"},{"type":"function","name":"profile2_members","inputs":[],"outputs":[{"name":"","type":"address[]","internalType":"address[]"}],"stateMutability":"nonpayable"},{"type":"function","name":"profile2_notAMember","inputs":[],"outputs":[{"name":"","type":"address","internalType":"address"}],"stateMutability":"nonpayable"},{"type":"function","name":"profile2_owner","inputs":[],"outputs":[{"name":"","type":"address","internalType":"address"}],"stateMutability":"nonpayable"},{"type":"function","name":"randomAddress","inputs":[],"outputs":[{"name":"","type":"address","internalType":"address"}],"stateMutability":"nonpayable"},{"type":"function","name":"recipient","inputs":[],"outputs":[{"name":"","type":"address","internalType":"address"}],"stateMutability":"nonpayable"},{"type":"function","name":"recipient1","inputs":[],"outputs":[{"name":"","type":"address","internalType":"address"}],"stateMutability":"nonpayable"},{"type":"function","name":"recipient2","inputs":[],"outputs":[{"name":"","type":"address","internalType":"address"}],"stateMutability":"nonpayable"},{"type":"function","name":"recipientAddress","inputs":[],"outputs":[{"name":"","type":"address","internalType":"address"}],"stateMutability":"nonpayable"},{"type":"function","name":"registry_owner","inputs":[],"outputs":[{"name":"","type":"address","internalType":"address"}],"stateMutability":"nonpayable"}],"bytecode":{"object":"0x60016080908152610120604052602e60c081815260a09162001c6a60e03990528051600890815560208201516009906200003a9082620000f6565b5050503480156200004a57600080fd5b50620001c2565b634e487b7160e01b600052604160045260246000fd5b600181811c908216806200007c57607f821691505b6020821081036200009d57634e487b7160e01b600052602260045260246000fd5b50919050565b601f821115620000f157600081815260208120601f850160051c81016020861015620000cc5750805b601f850160051c820191505b81811015620000ed57828155600101620000d8565b5050505b505050565b81516001600160401b0381111562000112576200011262000051565b6200012a8162000123845462000067565b84620000a3565b602080601f831160018114620001625760008415620001495750858301515b600019600386901b1c1916600185901b178555620000ed565b600085815260208120601f198616915b82811015620001935788860151825594840194600190910190840162000172565b5085821015620001b25787850151600019600388901b60f8161c191681555b5050505050600190811b01905550565b611a9880620001d26000396000f3fe608060405234801561001057600080fd5b506004361061025b5760003560e01c80637a33020311610145578063aa3744bd116100bd578063d8c12dc21161008c578063dac4eb1611610071578063dac4eb16146103d4578063e99ce911146103dc578063ef0d790f146103ef57600080fd5b8063d8c12dc2146103b9578063da4bf087146103cc57600080fd5b8063aa3744bd14610399578063d1e82b58146103a1578063d1f2cd88146103a9578063d5bee9f5146103b157600080fd5b80638c7408c4116101145780638e3c2493116100f95780638e3c24931461036e578063a0cf0aea14610376578063a407c67a1461039157600080fd5b80638c7408c41461029b5780638e0d1a501461036657600080fd5b80637a330203146103365780637b2edf32146103565780637cbe79ed1461035e578063829e423f1461029b57600080fd5b80634bf4ba21116101d85780636a38dd0a116101a757806374d9284e1161018c57806374d9284e1461029b578063759c9a861461032657806379e62d0d1461032e57600080fd5b80636a38dd0a1461031657806370a329441461031e57600080fd5b80634bf4ba21146102e9578063587c1243146102fe5780635aff59991461030657806366d003ac1461030e57600080fd5b8063174eedde1161022f5780631e7bcb2e116102145780631e7bcb2e146102aa57806337d1c404146102b2578063392f37e9146102d357600080fd5b8063174eedde1461029b5780631b96dce6146102a257600080fd5b8062b1fad714610260578063030e4006146102855780630688b1351461028d5780630f166ad414610295575b600080fd5b6102686103f7565b6040516001600160a01b0390911681526020015b60405180910390f35b61026861043c565b61026861047c565b30610268565b6000610268565b6102686104bc565b6102686104fc565b6102c56102c03660046113c1565b61053c565b60405190815260200161027c565b6102db610626565b60405161027c9291906114fd565b6102f16106bd565b60405161027c9190611562565b6102686106e0565b610268610720565b610268610760565b6102686107a0565b6102f16107e0565b610268610878565b6102f16108b8565b610349610344366004611598565b610920565b60405161027c91906115f5565b610268610a2a565b610268610a6a565b610268610aaa565b610268610aea565b61026873eeeeeeeeeeeeeeeeeeeeeeeeeeeeeeeeeeeeeeee81565b6102f1610b2a565b610268610b92565b610268610bd2565b610268610c12565b610268610c52565b6102c56103c7366004611691565b610c92565b610268610e93565b610268610ed3565b6102c56103ea366004611723565b610f13565b610268610fad565b60006104376040518060400160405280600d81526020017f706f6f6c5f6d616e616765723100000000000000000000000000000000000000815250610fe9565b905090565b60006104376040518060400160405280601381526020017f70726f66696c65315f6e6f74414d656d62657200000000000000000000000000815250610fe9565b60006104376040518060400160405280600a81526020017f726563697069656e743200000000000000000000000000000000000000000000815250610fe9565b60006104376040518060400160405280600e81526020017f70726f66696c65325f6f776e6572000000000000000000000000000000000000815250610fe9565b60006104376040518060400160405280601081526020017f70726f66696c65315f6d656d6265723100000000000000000000000000000000815250610fe9565b600a5460009061061b576040805180820182526001815281518083018352600c81527f506f6f6c50726f66696c6531000000000000000000000000000000000000000060208281019190915282015290517f3a92f65f0000000000000000000000000000000000000000000000000000000081526001600160a01b03861691633a92f65f916105d49160029188908890600401611755565b6020604051808303816000875af11580156105f3573d6000803e3d6000fd5b505050506040513d601f19601f8201168201806040525081019061061791906117e5565b600a555b50600a549392505050565b600880546009805491929161063a906117fe565b80601f0160208091040260200160405190810160405280929190818152602001828054610666906117fe565b80156106b35780601f10610688576101008083540402835291602001916106b3565b820191906000526020600020905b81548152906001019060200180831161069657829003601f168201915b5050505050905082565b604080516002808252606080830184529260208301908036833701905050905090565b60006104376040518060400160405280601081526020017f70726f66696c65325f6d656d6265723100000000000000000000000000000000815250610fe9565b60006104376040518060400160405280601081526020017f726563697069656e744164647265737300000000000000000000000000000000815250610fe9565b60006104376040518060400160405280600981526020017f726563697069656e740000000000000000000000000000000000000000000000815250610fe9565b60006104376040518060400160405280600d81526020017f706f6f6c5f6d616e616765723200000000000000000000000000000000000000815250610fe9565b6040805160028082526060808301845292600092919060208301908036833701905050905061080d6104fc565b8160008151811061082057610820611838565b60200260200101906001600160a01b031690816001600160a01b031681525050610848610a2a565b8160018151811061085b5761085b611838565b6001600160a01b0390921660209283029190910190910152919050565b60006104376040518060400160405280600c81526020017f6e6f5f726563697069656e740000000000000000000000000000000000000000815250610fe9565b604080516002808252606080830184529260009291906020830190803683370190505090506108e56103f7565b816000815181106108f8576108f8611838565b60200260200101906001600160a01b031690816001600160a01b0316815250506108486107a0565b610928611304565b610939670de0a46bc207d800610ffb565b602082015261094f6702c68af0bb140000610ffb565b604082015261096466038d7ea4c68000610ffb565b60608201526001600160a01b03841681526080810183600281111561098b5761098b6115df565b9081600281111561099e5761099e6115df565b90525060a081018260038111156109b7576109b76115df565b908160038111156109ca576109ca6115df565b815250506109f96040518060800160405280600081526020016000815260200160008152602001600081525090565b621e84806020820152620f42406040820152671bc16d674ec80000606082015261c350815260c08201529392505050565b60006104376040518060400160405280601081526020017f70726f66696c65315f6d656d6265723200000000000000000000000000000000815250610fe9565b60006104376040518060400160405280600a81526020017f616c6c6f5f6f776e657200000000000000000000000000000000000000000000815250610fe9565b60006104376040518060400160405280600a81526020017f706f6f6c5f61646d696e00000000000000000000000000000000000000000000815250610fe9565b60006104376040518060400160405280601081526020017f70726f66696c65325f6d656d6265723200000000000000000000000000000000815250610fe9565b60408051600280825260608083018452926000929190602083019080368337019050509050610b576106e0565b81600081518110610b6a57610b6a611838565b60200260200101906001600160a01b031690816001600160a01b031681525050610848610aea565b60006104376040518060400160405280600a81526020017f726563697069656e743100000000000000000000000000000000000000000000815250610fe9565b60006104376040518060400160405280601081526020017f706f6f6c5f6e6f74414d616e6167657200000000000000000000000000000000815250610fe9565b60006104376040518060400160405280600e81526020017f70726f66696c65315f6f776e6572000000000000000000000000000000000000815250610fe9565b60006104376040518060400160405280600b81526020017f72616e646f6d2063686164000000000000000000000000000000000000000000815250610fe9565b600080610ca0878585610920565b60408051600280825260608201835292935060009290916020830190803683370190505090503081600081518110610cda57610cda611838565b60200260200101906001600160a01b031690816001600160a01b0316815250503381600181518110610d0e57610d0e611838565b6001600160a01b03928316602091820292909201015273eeeeeeeeeeeeeeeeeeeeeeeeeeeeeeeeeeeeeeee90871615610d445750855b8a6001600160a01b031663e1007d4a610d658a610d5f610aaa565b8661053c565b8c86604051602001610d7791906115f5565b6040516020818303038152906040528560006008896040518863ffffffff1660e01b8152600401610dae979695949392919061184e565b6020604051808303816000875af1158015610dcd573d6000803e3d6000fd5b505050506040513d601f19601f82011682018060405250810190610df191906117e5565b9350856002811115610e0557610e056115df565b8a6001600160a01b031663351d9f966040518163ffffffff1660e01b8152600401602060405180830381865afa158015610e43573d6000803e3d6000fd5b505050506040513d601f19601f82011682018060405250810190610e67919061195f565b6002811115610e7857610e786115df565b14610e8557610e8561197c565b505050979650505050505050565b60006104376040518060400160405280600d81526020017f616c6c6f5f747265617375727900000000000000000000000000000000000000815250610fe9565b60006104376040518060400160405280600e81526020017f72656769737472795f6f776e6572000000000000000000000000000000000000815250610fe9565b60008481610f31610f2b62989680608087901b6119a8565b83611012565b905060806f80000000000000000000000000000000610f5386629896806119ca565b610f6184600160801b6119ca565b610f6e629896808a6119dd565b610f7891906119dd565b610f8291906119a8565b610f8c89856119dd565b610f9691906119f4565b610fa091906119f4565b901c979650505050505050565b60006104376040518060400160405280601381526020017f70726f66696c65325f6e6f74414d656d626572000000000000000000000000008152505b6000610ff4826110c0565b5092915050565b600061100c64174876e800836119a8565b92915050565b6000600160801b831061106c5760405162461bcd60e51b815260206004820152601c60248201527f5f612073686f756c64206265206c657373207468616e20325e3132380000000060448201526064015b60405180910390fd5b50600160801b82825b80156110b8578060011660000361109a576110908283611205565b915060011c611075565b6110a48383611205565b92506110b16001826119ca565b9050611075565b505092915050565b600080826040516020016110d49190611a07565b60408051808303601f190181529082905280516020909101207fffa18649000000000000000000000000000000000000000000000000000000008252600482018190529150737109709ecfa91a80626ff3989d68f67f5b1dd12d9063ffa1864990602401602060405180830381865afa158015611155573d6000803e3d6000fd5b505050506040513d601f19601f820116820180604052508101906111799190611a23565b6040517fc657c718000000000000000000000000000000000000000000000000000000008152909250737109709ecfa91a80626ff3989d68f67f5b1dd12d9063c657c718906111ce9085908790600401611a40565b600060405180830381600087803b1580156111e857600080fd5b505af11580156111fc573d6000803e3d6000fd5b50505050915091565b6000600160801b8311156112815760405162461bcd60e51b815260206004820152602860248201527f5f612073686f756c64206265206c657373207468616e206f7220657175616c2060448201527f746f20325e3132380000000000000000000000000000000000000000000000006064820152608401611063565b600160801b82106112d45760405162461bcd60e51b815260206004820152601c60248201527f5f622073686f756c64206265206c657373207468616e20325e313238000000006044820152606401611063565b60806f800000000000000000000000000000006112f184866119dd565b6112fb91906119f4565b901c9392505050565b6040518060e0016040528060006001600160a01b0316815260200160008152602001600081526020016000815260200160006002811115611347576113476115df565b81526020016000815260200161137e6040518060800160405280600081526020016000815260200160008152602001600081525090565b905290565b6001600160a01b038116811461139857600080fd5b50565b80356113a681611383565b919050565b634e487b7160e01b600052604160045260246000fd5b6000806000606084860312156113d657600080fd5b83356113e181611383565b92506020848101356113f281611383565b9250604085013567ffffffffffffffff8082111561140f57600080fd5b818701915087601f83011261142357600080fd5b813581811115611435576114356113ab565b8060051b604051601f19603f8301168101818110858211171561145a5761145a6113ab565b60405291825284820192508381018501918a83111561147857600080fd5b938501935b8285101561149d5761148e8561139b565b8452938501939285019261147d565b8096505050505050509250925092565b60005b838110156114c85781810151838201526020016114b0565b50506000910152565b600081518084526114e98160208601602086016114ad565b601f01601f19169290920160200192915050565b82815260406020820152600061151660408301846114d1565b949350505050565b600081518084526020808501945080840160005b838110156115575781516001600160a01b031687529582019590820190600101611532565b509495945050505050565b602081526000611575602083018461151e565b9392505050565b6003811061139857600080fd5b8035600481106113a657600080fd5b6000806000606084860312156115ad57600080fd5b83356115b881611383565b925060208401356115c88161157c565b91506115d660408501611589565b90509250925092565b634e487b7160e01b600052602160045260246000fd5b6000610140820190506001600160a01b03835116825260208301516020830152604083015160408301526060830151606083015260808301516003811061163e5761163e6115df565b608083015260a083015160048110611658576116586115df565b60a083015260c083810151805191840191909152602081015160e084015260408101516101008401526060810151610120840152610ff4565b600080600080600080600060e0888a0312156116ac57600080fd5b87356116b781611383565b965060208801356116c781611383565b955060408801356116d781611383565b945060608801356116e781611383565b935060808801356116f781611383565b925060a08801356117078161157c565b915061171560c08901611589565b905092959891949750929550565b6000806000806080858703121561173957600080fd5b5050823594602084013594506040840135936060013592509050565b84815260a06020820152600e60a08201527f506f6f6c2050726f66696c65203100000000000000000000000000000000000060c082015260e06040820152835160e08201526000602085015160406101008401526117b76101208401826114d1565b90506001600160a01b038516606084015282810360808401526117da818561151e565b979650505050505050565b6000602082840312156117f757600080fd5b5051919050565b600181811c9082168061181257607f821691505b60208210810361183257634e487b7160e01b600052602260045260246000fd5b50919050565b634e487b7160e01b600052603260045260246000fd5b878152600060206001600160a01b03808a168285015260e0604085015261187860e085018a6114d1565b818916606086015287608086015284810360a08601528654815260019150818701604084830152600081548181861c9050858216806118b857607f821691505b87821081036118d557634e487b7160e01b84526022600452602484fd5b604086018290526060860195508080156118f6576001811461190c57611937565b60ff198416875282151560051b87019450611937565b60008681526020902060005b8481101561193157815489820152908901908a01611918565b88019550505b5050505086810360c088015261194d818961151e565b9e9d5050505050505050505050505050565b60006020828403121561197157600080fd5b81516115758161157c565b634e487b7160e01b600052600160045260246000fd5b634e487b7160e01b600052601160045260246000fd5b6000826119c557634e487b7160e01b600052601260045260246000fd5b500490565b8181038181111561100c5761100c611992565b808202811582820484141761100c5761100c611992565b8082018082111561100c5761100c611992565b60008251611a198184602087016114ad565b9190910192915050565b600060208284031215611a3557600080fd5b815161157581611383565b6001600160a01b038316815260406020820152600061151660408301846114d156fea26469706673582212209ccd503bc32806465cc0692b2a9c44b637fcf72a784bf665e7e33e29b0af32f964736f6c63430008130033516d57347a464c464a524e374a3637457a4e6d64433272324d397532694a44686132666a3547656536684a7a5359","linkReferences":{}},"methodIdentifiers":{"NATIVE()":"a0cf0aea","_calculateConviction(uint256,uint256,uint256,uint256)":"e99ce911","allo_owner()":"7cbe79ed","allo_treasury()":"da4bf087","createPool(address,address,address,address,address,uint8,uint8)":"d8c12dc2","getParams(address,uint8,uint8)":"7a330203","local()":"0f166ad4","metadata()":"392f37e9","no_recipient()":"759c9a86","nullProfile_member1()":"829e423f","nullProfile_member2()":"8c7408c4","nullProfile_members()":"4bf4ba21","nullProfile_notAMember()":"174eedde","nullProfile_owner()":"74d9284e","poolProfile_id1(address,address,address[])":"37d1c404","pool_admin()":"8e0d1a50","pool_manager1()":"00b1fad7","pool_manager2()":"6a38dd0a","pool_managers()":"79e62d0d","pool_notAManager()":"d1e82b58","profile1_member1()":"1e7bcb2e","profile1_member2()":"7b2edf32","profile1_members()":"70a32944","profile1_notAMember()":"030e4006","profile1_owner()":"d1f2cd88","profile2_member1()":"587c1243","profile2_member2()":"8e3c2493","profile2_members()":"a407c67a","profile2_notAMember()":"ef0d790f","profile2_owner()":"1b96dce6","randomAddress()":"d5bee9f5","recipient()":"66d003ac","recipient1()":"aa3744bd","recipient2()":"0688b135","recipientAddress()":"5aff5999","registry_owner()":"dac4eb16"},"id":97}