{
  "abi": [
    {
      "type": "function",
      "name": "DECIMALS",
      "inputs": [],
      "outputs": [
        {
          "name": "",
          "type": "uint256",
          "internalType": "uint256"
        }
      ],
      "stateMutability": "view"
    },
    {
      "type": "function",
      "name": "NATIVE",
      "inputs": [],
      "outputs": [
        {
          "name": "",
          "type": "address",
          "internalType": "address"
        }
      ],
      "stateMutability": "view"
    },
    {
      "type": "function",
      "name": "_calculateConviction",
      "inputs": [
        {
          "name": "_timePassed",
          "type": "uint256",
          "internalType": "uint256"
        },
        {
          "name": "_lastConv",
          "type": "uint256",
          "internalType": "uint256"
        },
        {
          "name": "_oldAmount",
          "type": "uint256",
          "internalType": "uint256"
        },
        {
          "name": "decay",
          "type": "uint256",
          "internalType": "uint256"
        }
      ],
      "outputs": [
        {
          "name": "",
          "type": "uint256",
          "internalType": "uint256"
        }
      ],
      "stateMutability": "pure"
    },
    {
      "type": "function",
      "name": "allo_owner",
      "inputs": [],
      "outputs": [
        {
          "name": "",
          "type": "address",
          "internalType": "address"
        }
      ],
      "stateMutability": "nonpayable"
    },
    {
      "type": "function",
      "name": "allo_treasury",
      "inputs": [],
      "outputs": [
        {
          "name": "",
          "type": "address",
          "internalType": "address payable"
        }
      ],
      "stateMutability": "nonpayable"
    },
    {
      "type": "function",
      "name": "createPool",
      "inputs": [
        {
          "name": "allo",
          "type": "address",
          "internalType": "contract Allo"
        },
        {
          "name": "strategy",
          "type": "address",
          "internalType": "address"
        },
        {
          "name": "registryCommunity",
          "type": "address",
          "internalType": "address"
        },
        {
          "name": "registry",
          "type": "address",
          "internalType": "contract IRegistry"
        },
        {
          "name": "token",
          "type": "address",
          "internalType": "address"
        },
        {
          "name": "proposalType",
          "type": "uint8",
          "internalType": "enum StrategyStruct.ProposalType"
        },
        {
          "name": "pointSystem",
          "type": "uint8",
          "internalType": "enum StrategyStruct.PointSystem"
        }
      ],
      "outputs": [
        {
          "name": "poolId",
          "type": "uint256",
          "internalType": "uint256"
        }
      ],
      "stateMutability": "nonpayable"
    },
    {
      "type": "function",
      "name": "getParams",
      "inputs": [
        {
          "name": "registryCommunity",
          "type": "address",
          "internalType": "address"
        },
        {
          "name": "proposalType",
          "type": "uint8",
          "internalType": "enum StrategyStruct.ProposalType"
        },
        {
          "name": "pointSystem",
          "type": "uint8",
          "internalType": "enum StrategyStruct.PointSystem"
        },
        {
          "name": "pointConfig",
          "type": "tuple",
          "internalType": "struct StrategyStruct.PointSystemConfig",
          "components": [
            {
              "name": "pointsPerTokenStaked",
              "type": "uint256",
              "internalType": "uint256"
            },
            {
              "name": "maxAmount",
              "type": "uint256",
              "internalType": "uint256"
            },
            {
              "name": "pointsPerMember",
              "type": "uint256",
              "internalType": "uint256"
            },
            {
              "name": "tokensPerPoint",
              "type": "uint256",
              "internalType": "uint256"
            }
          ]
        }
      ],
      "outputs": [
        {
          "name": "params",
          "type": "tuple",
          "internalType": "struct StrategyStruct.InitializeParams",
          "components": [
            {
              "name": "registryCommunity",
              "type": "address",
              "internalType": "address"
            },
            {
              "name": "decay",
              "type": "uint256",
              "internalType": "uint256"
            },
            {
              "name": "maxRatio",
              "type": "uint256",
              "internalType": "uint256"
            },
            {
              "name": "weight",
              "type": "uint256",
              "internalType": "uint256"
            },
            {
              "name": "proposalType",
              "type": "uint8",
              "internalType": "enum StrategyStruct.ProposalType"
            },
            {
              "name": "pointSystem",
              "type": "uint8",
              "internalType": "enum StrategyStruct.PointSystem"
            },
            {
              "name": "pointConfig",
              "type": "tuple",
              "internalType": "struct StrategyStruct.PointSystemConfig",
              "components": [
                {
                  "name": "pointsPerTokenStaked",
                  "type": "uint256",
                  "internalType": "uint256"
                },
                {
                  "name": "maxAmount",
                  "type": "uint256",
                  "internalType": "uint256"
                },
                {
                  "name": "pointsPerMember",
                  "type": "uint256",
                  "internalType": "uint256"
                },
                {
                  "name": "tokensPerPoint",
                  "type": "uint256",
                  "internalType": "uint256"
                }
              ]
            }
          ]
        }
      ],
      "stateMutability": "pure"
    },
    {
      "type": "function",
      "name": "local",
      "inputs": [],
      "outputs": [
        {
          "name": "",
          "type": "address",
          "internalType": "address"
        }
      ],
      "stateMutability": "view"
    },
    {
      "type": "function",
      "name": "metadata",
      "inputs": [],
      "outputs": [
        {
          "name": "protocol",
          "type": "uint256",
          "internalType": "uint256"
        },
        {
          "name": "pointer",
          "type": "string",
          "internalType": "string"
        }
      ],
      "stateMutability": "view"
    },
    {
      "type": "function",
      "name": "no_recipient",
      "inputs": [],
      "outputs": [
        {
          "name": "",
          "type": "address",
          "internalType": "address"
        }
      ],
      "stateMutability": "nonpayable"
    },
    {
      "type": "function",
      "name": "nullProfile_member1",
      "inputs": [],
      "outputs": [
        {
          "name": "",
          "type": "address",
          "internalType": "address"
        }
      ],
      "stateMutability": "pure"
    },
    {
      "type": "function",
      "name": "nullProfile_member2",
      "inputs": [],
      "outputs": [
        {
          "name": "",
          "type": "address",
          "internalType": "address"
        }
      ],
      "stateMutability": "pure"
    },
    {
      "type": "function",
      "name": "nullProfile_members",
      "inputs": [],
      "outputs": [
        {
          "name": "",
          "type": "address[]",
          "internalType": "address[]"
        }
      ],
      "stateMutability": "pure"
    },
    {
      "type": "function",
      "name": "nullProfile_notAMember",
      "inputs": [],
      "outputs": [
        {
          "name": "",
          "type": "address",
          "internalType": "address"
        }
      ],
      "stateMutability": "pure"
    },
    {
      "type": "function",
      "name": "nullProfile_owner",
      "inputs": [],
      "outputs": [
        {
          "name": "",
          "type": "address",
          "internalType": "address"
        }
      ],
      "stateMutability": "pure"
    },
    {
      "type": "function",
      "name": "poolProfile_id1",
      "inputs": [
        {
          "name": "registry",
          "type": "address",
          "internalType": "contract IRegistry"
        },
        {
          "name": "pool_admin",
          "type": "address",
          "internalType": "address"
        },
        {
          "name": "pool_managers",
          "type": "address[]",
          "internalType": "address[]"
        }
      ],
      "outputs": [
        {
          "name": "",
          "type": "bytes32",
          "internalType": "bytes32"
        }
      ],
      "stateMutability": "nonpayable"
    },
    {
      "type": "function",
      "name": "pool_admin",
      "inputs": [],
      "outputs": [
        {
          "name": "",
          "type": "address",
          "internalType": "address"
        }
      ],
      "stateMutability": "nonpayable"
    },
    {
      "type": "function",
      "name": "pool_manager1",
      "inputs": [],
      "outputs": [
        {
          "name": "",
          "type": "address",
          "internalType": "address"
        }
      ],
      "stateMutability": "nonpayable"
    },
    {
      "type": "function",
      "name": "pool_manager2",
      "inputs": [],
      "outputs": [
        {
          "name": "",
          "type": "address",
          "internalType": "address"
        }
      ],
      "stateMutability": "nonpayable"
    },
    {
      "type": "function",
      "name": "pool_managers",
      "inputs": [],
      "outputs": [
        {
          "name": "",
          "type": "address[]",
          "internalType": "address[]"
        }
      ],
      "stateMutability": "nonpayable"
    },
    {
      "type": "function",
      "name": "pool_notAManager",
      "inputs": [],
      "outputs": [
        {
          "name": "",
          "type": "address",
          "internalType": "address"
        }
      ],
      "stateMutability": "nonpayable"
    },
    {
      "type": "function",
      "name": "profile1_member1",
      "inputs": [],
      "outputs": [
        {
          "name": "",
          "type": "address",
          "internalType": "address"
        }
      ],
      "stateMutability": "nonpayable"
    },
    {
      "type": "function",
      "name": "profile1_member2",
      "inputs": [],
      "outputs": [
        {
          "name": "",
          "type": "address",
          "internalType": "address"
        }
      ],
      "stateMutability": "nonpayable"
    },
    {
      "type": "function",
      "name": "profile1_members",
      "inputs": [],
      "outputs": [
        {
          "name": "",
          "type": "address[]",
          "internalType": "address[]"
        }
      ],
      "stateMutability": "nonpayable"
    },
    {
      "type": "function",
      "name": "profile1_notAMember",
      "inputs": [],
      "outputs": [
        {
          "name": "",
          "type": "address",
          "internalType": "address"
        }
      ],
      "stateMutability": "nonpayable"
    },
    {
      "type": "function",
      "name": "profile1_owner",
      "inputs": [],
      "outputs": [
        {
          "name": "",
          "type": "address",
          "internalType": "address"
        }
      ],
      "stateMutability": "nonpayable"
    },
    {
      "type": "function",
      "name": "profile2_member1",
      "inputs": [],
      "outputs": [
        {
          "name": "",
          "type": "address",
          "internalType": "address"
        }
      ],
      "stateMutability": "nonpayable"
    },
    {
      "type": "function",
      "name": "profile2_member2",
      "inputs": [],
      "outputs": [
        {
          "name": "",
          "type": "address",
          "internalType": "address"
        }
      ],
      "stateMutability": "nonpayable"
    },
    {
      "type": "function",
      "name": "profile2_members",
      "inputs": [],
      "outputs": [
        {
          "name": "",
          "type": "address[]",
          "internalType": "address[]"
        }
      ],
      "stateMutability": "nonpayable"
    },
    {
      "type": "function",
      "name": "profile2_notAMember",
      "inputs": [],
      "outputs": [
        {
          "name": "",
          "type": "address",
          "internalType": "address"
        }
      ],
      "stateMutability": "nonpayable"
    },
    {
      "type": "function",
      "name": "profile2_owner",
      "inputs": [],
      "outputs": [
        {
          "name": "",
          "type": "address",
          "internalType": "address"
        }
      ],
      "stateMutability": "nonpayable"
    },
    {
      "type": "function",
      "name": "randomAddress",
      "inputs": [],
      "outputs": [
        {
          "name": "",
          "type": "address",
          "internalType": "address"
        }
      ],
      "stateMutability": "nonpayable"
    },
    {
      "type": "function",
      "name": "recipient",
      "inputs": [],
      "outputs": [
        {
          "name": "",
          "type": "address",
          "internalType": "address"
        }
      ],
      "stateMutability": "nonpayable"
    },
    {
      "type": "function",
      "name": "recipient1",
      "inputs": [],
      "outputs": [
        {
          "name": "",
          "type": "address",
          "internalType": "address"
        }
      ],
      "stateMutability": "nonpayable"
    },
    {
      "type": "function",
      "name": "recipient2",
      "inputs": [],
      "outputs": [
        {
          "name": "",
          "type": "address",
          "internalType": "address"
        }
      ],
      "stateMutability": "nonpayable"
    },
    {
      "type": "function",
      "name": "recipientAddress",
      "inputs": [],
      "outputs": [
        {
          "name": "",
          "type": "address",
          "internalType": "address"
        }
      ],
      "stateMutability": "nonpayable"
    },
    {
      "type": "function",
      "name": "registry_owner",
      "inputs": [],
      "outputs": [
        {
          "name": "",
          "type": "address",
          "internalType": "address"
        }
      ],
      "stateMutability": "nonpayable"
    }
  ],
  "bytecode": {
    "object": "0x60016080908152610120604052602e60c081815260a09162001d4660e03990528051600890815560208201516009906200003a9082620000f6565b5050503480156200004a57600080fd5b50620001c2565b634e487b7160e01b600052604160045260246000fd5b600181811c908216806200007c57607f821691505b6020821081036200009d57634e487b7160e01b600052602260045260246000fd5b50919050565b601f821115620000f157600081815260208120601f850160051c81016020861015620000cc5750805b601f850160051c820191505b81811015620000ed57828155600101620000d8565b5050505b505050565b81516001600160401b0381111562000112576200011262000051565b6200012a8162000123845462000067565b84620000a3565b602080601f831160018114620001625760008415620001495750858301515b600019600386901b1c1916600185901b178555620000ed565b600085815260208120601f198616915b82811015620001935788860151825594840194600190910190840162000172565b5085821015620001b25787850151600019600388901b60f8161c191681555b5050505050600190811b01905550565b611b7480620001d26000396000f3fe608060405234801561001057600080fd5b50600436106102765760003560e01c8063759c9a8611610160578063a407c67a116100d8578063d8c12dc21161008c578063dac4eb1611610071578063dac4eb16146103fe578063e99ce91114610406578063ef0d790f1461041957600080fd5b8063d8c12dc2146103e3578063da4bf087146103f657600080fd5b8063d1e82b58116100bd578063d1e82b58146103cb578063d1f2cd88146103d3578063d5bee9f5146103db57600080fd5b8063a407c67a146103bb578063aa3744bd146103c357600080fd5b8063829e423f1161012f5780638e0d1a50116101145780638e0d1a50146103905780638e3c249314610398578063a0cf0aea146103a057600080fd5b8063829e423f146102d65780638c7408c4146102d657600080fd5b8063759c9a861461037057806379e62d0d146103785780637b2edf32146103805780637cbe79ed1461038857600080fd5b806337d1c404116101f35780635aff5999116101c25780636a38dd0a116101a75780636a38dd0a1461036057806370a329441461036857806374d9284e146102d657600080fd5b80635aff59991461035057806366d003ac1461035857600080fd5b806337d1c4041461030a578063392f37e91461031d5780634bf4ba2114610333578063587c12431461034857600080fd5b80630f166ad41161024a5780631b96dce61161022f5780631b96dce6146102dd5780631e7bcb2e146102e55780632e0f2625146102ed57600080fd5b80630f166ad4146102d0578063174eedde146102d657600080fd5b8062b1fad71461027b578063030e4006146102a057806305f7ae31146102a85780630688b135146102c8575b600080fd5b610283610421565b6040516001600160a01b0390911681526020015b60405180910390f35b610283610466565b6102bb6102b6366004611464565b6104a6565b6040516102979190611529565b6102836105c2565b30610283565b6000610283565b610283610602565b610283610642565b6102fc670de0b6b3a764000081565b604051908152602001610297565b6102fc6103183660046115c5565b610682565b61032561076c565b6040516102979291906116ee565b61033b610803565b6040516102979190611753565b610283610826565b610283610866565b6102836108a6565b6102836108e6565b61033b610926565b6102836109be565b61033b6109fe565b610283610a66565b610283610aa6565b610283610ae6565b610283610b26565b61028373eeeeeeeeeeeeeeeeeeeeeeeeeeeeeeeeeeeeeeee81565b61033b610b66565b610283610bce565b610283610c0e565b610283610c4e565b610283610c8e565b6102fc6103f136600461176d565b610cce565b610283610ef4565b610283610f34565b6102fc6104143660046117ff565b610f74565b61028361100e565b60006104616040518060400160405280600d81526020017f706f6f6c5f6d616e61676572310000000000000000000000000000000000000081525061104a565b905090565b60006104616040518060400160405280601381526020017f70726f66696c65315f6e6f74414d656d6265720000000000000000000000000081525061104a565b6104ae611365565b6104bf670de0a46bc207d80061105c565b60208201526104d56702c68af0bb14000061105c565b60408201526104ea66038d7ea4c6800061105c565b60608201526001600160a01b03851681526080810184600281111561051157610511611513565b9081600281111561052457610524611513565b90525060a0810183600381111561053d5761053d611513565b9081600381111561055057610550611513565b905250602082015160000361056957621e848060208301525b816040015160000361057f57620f424060408301525b81606001516000036105a45761059e670de0b6b3a76400006001611847565b60608301525b81516000036105b35761c35082525b60c08101919091529392505050565b60006104616040518060400160405280600a81526020017f726563697069656e74320000000000000000000000000000000000000000000081525061104a565b60006104616040518060400160405280600e81526020017f70726f66696c65325f6f776e657200000000000000000000000000000000000081525061104a565b60006104616040518060400160405280601081526020017f70726f66696c65315f6d656d626572310000000000000000000000000000000081525061104a565b600a54600090610761576040805180820182526001815281518083018352600c81527f506f6f6c50726f66696c6531000000000000000000000000000000000000000060208281019190915282015290517f3a92f65f0000000000000000000000000000000000000000000000000000000081526001600160a01b03861691633a92f65f9161071a916002918890889060040161185e565b6020604051808303816000875af1158015610739573d6000803e3d6000fd5b505050506040513d601f19601f8201168201806040525081019061075d91906118ee565b600a555b50600a549392505050565b600880546009805491929161078090611907565b80601f01602080910402602001604051908101604052809291908181526020018280546107ac90611907565b80156107f95780601f106107ce576101008083540402835291602001916107f9565b820191906000526020600020905b8154815290600101906020018083116107dc57829003601f168201915b5050505050905082565b604080516002808252606080830184529260208301908036833701905050905090565b60006104616040518060400160405280601081526020017f70726f66696c65325f6d656d626572310000000000000000000000000000000081525061104a565b60006104616040518060400160405280601081526020017f726563697069656e74416464726573730000000000000000000000000000000081525061104a565b60006104616040518060400160405280600981526020017f726563697069656e74000000000000000000000000000000000000000000000081525061104a565b60006104616040518060400160405280600d81526020017f706f6f6c5f6d616e61676572320000000000000000000000000000000000000081525061104a565b60408051600280825260608083018452926000929190602083019080368337019050509050610953610642565b8160008151811061096657610966611941565b60200260200101906001600160a01b031690816001600160a01b03168152505061098e610a66565b816001815181106109a1576109a1611941565b6001600160a01b0390921660209283029190910190910152919050565b60006104616040518060400160405280600c81526020017f6e6f5f726563697069656e74000000000000000000000000000000000000000081525061104a565b60408051600280825260608083018452926000929190602083019080368337019050509050610a2b610421565b81600081518110610a3e57610a3e611941565b60200260200101906001600160a01b031690816001600160a01b03168152505061098e6108e6565b60006104616040518060400160405280601081526020017f70726f66696c65315f6d656d626572320000000000000000000000000000000081525061104a565b60006104616040518060400160405280600a81526020017f616c6c6f5f6f776e65720000000000000000000000000000000000000000000081525061104a565b60006104616040518060400160405280600a81526020017f706f6f6c5f61646d696e0000000000000000000000000000000000000000000081525061104a565b60006104616040518060400160405280601081526020017f70726f66696c65325f6d656d626572320000000000000000000000000000000081525061104a565b60408051600280825260608083018452926000929190602083019080368337019050509050610b93610826565b81600081518110610ba657610ba6611941565b60200260200101906001600160a01b031690816001600160a01b03168152505061098e610b26565b60006104616040518060400160405280600a81526020017f726563697069656e74310000000000000000000000000000000000000000000081525061104a565b60006104616040518060400160405280601081526020017f706f6f6c5f6e6f74414d616e616765720000000000000000000000000000000081525061104a565b60006104616040518060400160405280600e81526020017f70726f66696c65315f6f776e657200000000000000000000000000000000000081525061104a565b60006104616040518060400160405280600b81526020017f72616e646f6d206368616400000000000000000000000000000000000000000081525061104a565b600080610d01878585604051806080016040528060008152602001600081526020016000815260200160008152506104a6565b60408051600280825260608201835292935060009290916020830190803683370190505090503081600081518110610d3b57610d3b611941565b60200260200101906001600160a01b031690816001600160a01b0316815250503381600181518110610d6f57610d6f611941565b6001600160a01b03928316602091820292909201015273eeeeeeeeeeeeeeeeeeeeeeeeeeeeeeeeeeeeeeee90871615610da55750855b8a6001600160a01b031663e1007d4a610dc68a610dc0610ae6565b86610682565b8c86604051602001610dd89190611529565b6040516020818303038152906040528560006008896040518863ffffffff1660e01b8152600401610e0f9796959493929190611957565b6020604051808303816000875af1158015610e2e573d6000803e3d6000fd5b505050506040513d601f19601f82011682018060405250810190610e5291906118ee565b9350856002811115610e6657610e66611513565b8a6001600160a01b031663351d9f966040518163ffffffff1660e01b8152600401602060405180830381865afa158015610ea4573d6000803e3d6000fd5b505050506040513d601f19601f82011682018060405250810190610ec89190611a68565b6002811115610ed957610ed9611513565b14610ee657610ee6611a85565b505050979650505050505050565b60006104616040518060400160405280600d81526020017f616c6c6f5f74726561737572790000000000000000000000000000000000000081525061104a565b60006104616040518060400160405280600e81526020017f72656769737472795f6f776e657200000000000000000000000000000000000081525061104a565b60008481610f92610f8c62989680608087901b611a9b565b83611073565b905060806f80000000000000000000000000000000610fb48662989680611abd565b610fc284600160801b611abd565b610fcf629896808a611847565b610fd99190611847565b610fe39190611a9b565b610fed8985611847565b610ff79190611ad0565b6110019190611ad0565b901c979650505050505050565b60006104616040518060400160405280601381526020017f70726f66696c65325f6e6f74414d656d626572000000000000000000000000008152505b600061105582611121565b5092915050565b600061106d64174876e80083611a9b565b92915050565b6000600160801b83106110cd5760405162461bcd60e51b815260206004820152601c60248201527f5f612073686f756c64206265206c657373207468616e20325e3132380000000060448201526064015b60405180910390fd5b50600160801b82825b801561111957806001166000036110fb576110f18283611266565b915060011c6110d6565b6111058383611266565b9250611112600182611abd565b90506110d6565b505092915050565b600080826040516020016111359190611ae3565b60408051808303601f190181529082905280516020909101207fffa18649000000000000000000000000000000000000000000000000000000008252600482018190529150737109709ecfa91a80626ff3989d68f67f5b1dd12d9063ffa1864990602401602060405180830381865afa1580156111b6573d6000803e3d6000fd5b505050506040513d601f19601f820116820180604052508101906111da9190611aff565b6040517fc657c718000000000000000000000000000000000000000000000000000000008152909250737109709ecfa91a80626ff3989d68f67f5b1dd12d9063c657c7189061122f9085908790600401611b1c565b600060405180830381600087803b15801561124957600080fd5b505af115801561125d573d6000803e3d6000fd5b50505050915091565b6000600160801b8311156112e25760405162461bcd60e51b815260206004820152602860248201527f5f612073686f756c64206265206c657373207468616e206f7220657175616c2060448201527f746f20325e31323800000000000000000000000000000000000000000000000060648201526084016110c4565b600160801b82106113355760405162461bcd60e51b815260206004820152601c60248201527f5f622073686f756c64206265206c657373207468616e20325e3132380000000060448201526064016110c4565b60806f800000000000000000000000000000006113528486611847565b61135c9190611ad0565b901c9392505050565b6040518060e0016040528060006001600160a01b03168152602001600081526020016000815260200160008152602001600060028111156113a8576113a8611513565b8152602001600081526020016113df6040518060800160405280600081526020016000815260200160008152602001600081525090565b905290565b6001600160a01b03811681146113f957600080fd5b50565b600381106113f957600080fd5b80356004811061141857600080fd5b919050565b634e487b7160e01b600052604160045260246000fd5b604051601f8201601f1916810167ffffffffffffffff8111828210171561145c5761145c61141d565b604052919050565b60008060008084860360e081121561147b57600080fd5b8535611486816113e4565b94506020860135611496816113fc565b93506114a460408701611409565b92506080605f19820112156114b857600080fd5b506040516080810181811067ffffffffffffffff821117156114dc576114dc61141d565b8060405250606086013581526080860135602082015260a0860135604082015260c086013560608201528091505092959194509250565b634e487b7160e01b600052602160045260246000fd5b6000610140820190506001600160a01b03835116825260208301516020830152604083015160408301526060830151606083015260808301516003811061157257611572611513565b608083015260a08301516004811061158c5761158c611513565b60a083015260c083810151805191840191909152602081015160e084015260408101516101008401526060810151610120840152611055565b6000806000606084860312156115da57600080fd5b83356115e5816113e4565b92506020848101356115f6816113e4565b9250604085013567ffffffffffffffff8082111561161357600080fd5b818701915087601f83011261162757600080fd5b8135818111156116395761163961141d565b8060051b915061164a848301611433565b818152918301840191848101908a84111561166457600080fd5b938501935b8385101561168e578435925061167e836113e4565b8282529385019390850190611669565b8096505050505050509250925092565b60005b838110156116b95781810151838201526020016116a1565b50506000910152565b600081518084526116da81602086016020860161169e565b601f01601f19169290920160200192915050565b82815260406020820152600061170760408301846116c2565b949350505050565b600081518084526020808501945080840160005b838110156117485781516001600160a01b031687529582019590820190600101611723565b509495945050505050565b602081526000611766602083018461170f565b9392505050565b600080600080600080600060e0888a03121561178857600080fd5b8735611793816113e4565b965060208801356117a3816113e4565b955060408801356117b3816113e4565b945060608801356117c3816113e4565b935060808801356117d3816113e4565b925060a08801356117e3816113fc565b91506117f160c08901611409565b905092959891949750929550565b6000806000806080858703121561181557600080fd5b5050823594602084013594506040840135936060013592509050565b634e487b7160e01b600052601160045260246000fd5b808202811582820484141761106d5761106d611831565b84815260a06020820152600e60a08201527f506f6f6c2050726f66696c65203100000000000000000000000000000000000060c082015260e06040820152835160e08201526000602085015160406101008401526118c06101208401826116c2565b90506001600160a01b038516606084015282810360808401526118e3818561170f565b979650505050505050565b60006020828403121561190057600080fd5b5051919050565b600181811c9082168061191b57607f821691505b60208210810361193b57634e487b7160e01b600052602260045260246000fd5b50919050565b634e487b7160e01b600052603260045260246000fd5b878152600060206001600160a01b03808a168285015260e0604085015261198160e085018a6116c2565b818916606086015287608086015284810360a08601528654815260019150818701604084830152600081548181861c9050858216806119c157607f821691505b87821081036119de57634e487b7160e01b84526022600452602484fd5b604086018290526060860195508080156119ff5760018114611a1557611a40565b60ff198416875282151560051b87019450611a40565b60008681526020902060005b84811015611a3a57815489820152908901908a01611a21565b88019550505b5050505086810360c0880152611a56818961170f565b9e9d5050505050505050505050505050565b600060208284031215611a7a57600080fd5b8151611766816113fc565b634e487b7160e01b600052600160045260246000fd5b600082611ab857634e487b7160e01b600052601260045260246000fd5b500490565b8181038181111561106d5761106d611831565b8082018082111561106d5761106d611831565b60008251611af581846020870161169e565b9190910192915050565b600060208284031215611b1157600080fd5b8151611766816113e4565b6001600160a01b038316815260406020820152600061170760408301846116c256fea2646970667358221220a495e833657ee2f3e199c8675e88de3f67874034efe063e34d3a1c46c6ad208364736f6c63430008130033516d57347a464c464a524e374a3637457a4e6d64433272324d397532694a44686132666a3547656536684a7a5359",
    "linkReferences": {}
  },
  "methodIdentifiers": {
    "DECIMALS()": "2e0f2625",
    "NATIVE()": "a0cf0aea",
    "_calculateConviction(uint256,uint256,uint256,uint256)": "e99ce911",
    "allo_owner()": "7cbe79ed",
    "allo_treasury()": "da4bf087",
    "createPool(address,address,address,address,address,uint8,uint8)": "d8c12dc2",
    "getParams(address,uint8,uint8,(uint256,uint256,uint256,uint256))": "05f7ae31",
    "local()": "0f166ad4",
    "metadata()": "392f37e9",
    "no_recipient()": "759c9a86",
    "nullProfile_member1()": "829e423f",
    "nullProfile_member2()": "8c7408c4",
    "nullProfile_members()": "4bf4ba21",
    "nullProfile_notAMember()": "174eedde",
    "nullProfile_owner()": "74d9284e",
    "poolProfile_id1(address,address,address[])": "37d1c404",
    "pool_admin()": "8e0d1a50",
    "pool_manager1()": "00b1fad7",
    "pool_manager2()": "6a38dd0a",
    "pool_managers()": "79e62d0d",
    "pool_notAManager()": "d1e82b58",
    "profile1_member1()": "1e7bcb2e",
    "profile1_member2()": "7b2edf32",
    "profile1_members()": "70a32944",
    "profile1_notAMember()": "030e4006",
    "profile1_owner()": "d1f2cd88",
    "profile2_member1()": "587c1243",
    "profile2_member2()": "8e3c2493",
    "profile2_members()": "a407c67a",
    "profile2_notAMember()": "ef0d790f",
    "profile2_owner()": "1b96dce6",
    "randomAddress()": "d5bee9f5",
    "recipient()": "66d003ac",
    "recipient1()": "aa3744bd",
    "recipient2()": "0688b135",
    "recipientAddress()": "5aff5999",
    "registry_owner()": "dac4eb16"
  },
  "id": 104
}