{"abi":[{"type":"function","name":"DECIMALS","inputs":[],"outputs":[{"name":"","type":"uint256","internalType":"uint256"}],"stateMutability":"view"},{"type":"function","name":"NATIVE","inputs":[],"outputs":[{"name":"","type":"address","internalType":"address"}],"stateMutability":"view"},{"type":"function","name":"PERCENTAGE_SCALE","inputs":[],"outputs":[{"name":"","type":"uint256","internalType":"uint256"}],"stateMutability":"view"},{"type":"function","name":"_calculateConviction","inputs":[{"name":"_timePassed","type":"uint256","internalType":"uint256"},{"name":"_lastConv","type":"uint256","internalType":"uint256"},{"name":"_oldAmount","type":"uint256","internalType":"uint256"},{"name":"decay","type":"uint256","internalType":"uint256"}],"outputs":[{"name":"","type":"uint256","internalType":"uint256"}],"stateMutability":"pure"},{"type":"function","name":"allo_owner","inputs":[],"outputs":[{"name":"","type":"address","internalType":"address"}],"stateMutability":"nonpayable"},{"type":"function","name":"allo_treasury","inputs":[],"outputs":[{"name":"","type":"address","internalType":"address payable"}],"stateMutability":"nonpayable"},{"type":"function","name":"createPool","inputs":[{"name":"allo","type":"address","internalType":"contract Allo"},{"name":"strategy","type":"address","internalType":"address"},{"name":"registryCommunity","type":"address","internalType":"address"},{"name":"registry","type":"address","internalType":"contract IRegistry"},{"name":"token","type":"address","internalType":"address"},{"name":"proposalType","type":"uint8","internalType":"enum StrategyStruct.ProposalType"},{"name":"pointSystem","type":"uint8","internalType":"enum StrategyStruct.PointSystem"},{"name":"arbitrableConfig","type":"tuple","internalType":"struct StrategyStruct.ArbitrableConfig","components":[{"name":"arbitrator","type":"address","internalType":"contract IArbitrator"},{"name":"tribunalSafe","type":"address","internalType":"address"},{"name":"submitterCollateralAmount","type":"uint256","internalType":"uint256"},{"name":"challengerCollateralAmount","type":"uint256","internalType":"uint256"},{"name":"defaultRuling","type":"uint256","internalType":"uint256"},{"name":"defaultRulingTimeout","type":"uint256","internalType":"uint256"}]}],"outputs":[{"name":"poolId","type":"uint256","internalType":"uint256"}],"stateMutability":"nonpayable"},{"type":"function","name":"createPool","inputs":[{"name":"allo","type":"address","internalType":"contract Allo"},{"name":"strategy","type":"address","internalType":"address"},{"name":"registryCommunity","type":"address","internalType":"address"},{"name":"registry","type":"address","internalType":"contract IRegistry"},{"name":"token","type":"address","internalType":"address"},{"name":"proposalType","type":"uint8","internalType":"enum StrategyStruct.ProposalType"},{"name":"pointSystem","type":"uint8","internalType":"enum StrategyStruct.PointSystem"},{"name":"pointConfig","type":"tuple","internalType":"struct StrategyStruct.PointSystemConfig","components":[{"name":"maxAmount","type":"uint256","internalType":"uint256"}]},{"name":"arbitrableConfig","type":"tuple","internalType":"struct StrategyStruct.ArbitrableConfig","components":[{"name":"arbitrator","type":"address","internalType":"contract IArbitrator"},{"name":"tribunalSafe","type":"address","internalType":"address"},{"name":"submitterCollateralAmount","type":"uint256","internalType":"uint256"},{"name":"challengerCollateralAmount","type":"uint256","internalType":"uint256"},{"name":"defaultRuling","type":"uint256","internalType":"uint256"},{"name":"defaultRulingTimeout","type":"uint256","internalType":"uint256"}]}],"outputs":[{"name":"poolId","type":"uint256","internalType":"uint256"}],"stateMutability":"nonpayable"},{"type":"function","name":"getParams","inputs":[{"name":"registryCommunity","type":"address","internalType":"address"},{"name":"proposalType","type":"uint8","internalType":"enum StrategyStruct.ProposalType"},{"name":"pointSystem","type":"uint8","internalType":"enum StrategyStruct.PointSystem"},{"name":"pointConfig","type":"tuple","internalType":"struct StrategyStruct.PointSystemConfig","components":[{"name":"maxAmount","type":"uint256","internalType":"uint256"}]},{"name":"arbitrableConfig","type":"tuple","internalType":"struct StrategyStruct.ArbitrableConfig","components":[{"name":"arbitrator","type":"address","internalType":"contract IArbitrator"},{"name":"tribunalSafe","type":"address","internalType":"address"},{"name":"submitterCollateralAmount","type":"uint256","internalType":"uint256"},{"name":"challengerCollateralAmount","type":"uint256","internalType":"uint256"},{"name":"defaultRuling","type":"uint256","internalType":"uint256"},{"name":"defaultRulingTimeout","type":"uint256","internalType":"uint256"}]}],"outputs":[{"name":"params","type":"tuple","internalType":"struct StrategyStruct2.InitializeParams","components":[{"name":"cvParams","type":"tuple","internalType":"struct StrategyStruct.CVParams","components":[{"name":"maxRatio","type":"uint256","internalType":"uint256"},{"name":"weight","type":"uint256","internalType":"uint256"},{"name":"decay","type":"uint256","internalType":"uint256"},{"name":"minThresholdPoints","type":"uint256","internalType":"uint256"}]},{"name":"proposalType","type":"uint8","internalType":"enum StrategyStruct.ProposalType"},{"name":"pointSystem","type":"uint8","internalType":"enum StrategyStruct.PointSystem"},{"name":"pointConfig","type":"tuple","internalType":"struct StrategyStruct.PointSystemConfig","components":[{"name":"maxAmount","type":"uint256","internalType":"uint256"}]},{"name":"arbitrableConfig","type":"tuple","internalType":"struct StrategyStruct.ArbitrableConfig","components":[{"name":"arbitrator","type":"address","internalType":"contract IArbitrator"},{"name":"tribunalSafe","type":"address","internalType":"address"},{"name":"submitterCollateralAmount","type":"uint256","internalType":"uint256"},{"name":"challengerCollateralAmount","type":"uint256","internalType":"uint256"},{"name":"defaultRuling","type":"uint256","internalType":"uint256"},{"name":"defaultRulingTimeout","type":"uint256","internalType":"uint256"}]},{"name":"registryCommunity","type":"address","internalType":"address"},{"name":"sybilScorer","type":"address","internalType":"address"},{"name":"initialAllowlist","type":"address[]","internalType":"address[]"}]}],"stateMutability":"pure"},{"type":"function","name":"local","inputs":[],"outputs":[{"name":"","type":"address","internalType":"address"}],"stateMutability":"view"},{"type":"function","name":"metadata","inputs":[],"outputs":[{"name":"protocol","type":"uint256","internalType":"uint256"},{"name":"pointer","type":"string","internalType":"string"}],"stateMutability":"view"},{"type":"function","name":"no_recipient","inputs":[],"outputs":[{"name":"","type":"address","internalType":"address"}],"stateMutability":"nonpayable"},{"type":"function","name":"nullProfile_member1","inputs":[],"outputs":[{"name":"","type":"address","internalType":"address"}],"stateMutability":"pure"},{"type":"function","name":"nullProfile_member2","inputs":[],"outputs":[{"name":"","type":"address","internalType":"address"}],"stateMutability":"pure"},{"type":"function","name":"nullProfile_members","inputs":[],"outputs":[{"name":"","type":"address[]","internalType":"address[]"}],"stateMutability":"pure"},{"type":"function","name":"nullProfile_notAMember","inputs":[],"outputs":[{"name":"","type":"address","internalType":"address"}],"stateMutability":"pure"},{"type":"function","name":"nullProfile_owner","inputs":[],"outputs":[{"name":"","type":"address","internalType":"address"}],"stateMutability":"pure"},{"type":"function","name":"poolProfile_id1","inputs":[{"name":"registry","type":"address","internalType":"contract IRegistry"},{"name":"pool_admin","type":"address","internalType":"address"},{"name":"pool_managers","type":"address[]","internalType":"address[]"}],"outputs":[{"name":"","type":"bytes32","internalType":"bytes32"}],"stateMutability":"nonpayable"},{"type":"function","name":"pool_admin","inputs":[],"outputs":[{"name":"","type":"address","internalType":"address"}],"stateMutability":"nonpayable"},{"type":"function","name":"pool_manager1","inputs":[],"outputs":[{"name":"","type":"address","internalType":"address"}],"stateMutability":"nonpayable"},{"type":"function","name":"pool_manager2","inputs":[],"outputs":[{"name":"","type":"address","internalType":"address"}],"stateMutability":"nonpayable"},{"type":"function","name":"pool_managers","inputs":[],"outputs":[{"name":"","type":"address[]","internalType":"address[]"}],"stateMutability":"nonpayable"},{"type":"function","name":"pool_notAManager","inputs":[],"outputs":[{"name":"","type":"address","internalType":"address"}],"stateMutability":"nonpayable"},{"type":"function","name":"profile1_member1","inputs":[],"outputs":[{"name":"","type":"address","internalType":"address"}],"stateMutability":"nonpayable"},{"type":"function","name":"profile1_member2","inputs":[],"outputs":[{"name":"","type":"address","internalType":"address"}],"stateMutability":"nonpayable"},{"type":"function","name":"profile1_members","inputs":[],"outputs":[{"name":"","type":"address[]","internalType":"address[]"}],"stateMutability":"nonpayable"},{"type":"function","name":"profile1_notAMember","inputs":[],"outputs":[{"name":"","type":"address","internalType":"address"}],"stateMutability":"nonpayable"},{"type":"function","name":"profile1_owner","inputs":[],"outputs":[{"name":"","type":"address","internalType":"address"}],"stateMutability":"nonpayable"},{"type":"function","name":"profile2_member1","inputs":[],"outputs":[{"name":"","type":"address","internalType":"address"}],"stateMutability":"nonpayable"},{"type":"function","name":"profile2_member2","inputs":[],"outputs":[{"name":"","type":"address","internalType":"address"}],"stateMutability":"nonpayable"},{"type":"function","name":"profile2_members","inputs":[],"outputs":[{"name":"","type":"address[]","internalType":"address[]"}],"stateMutability":"nonpayable"},{"type":"function","name":"profile2_notAMember","inputs":[],"outputs":[{"name":"","type":"address","internalType":"address"}],"stateMutability":"nonpayable"},{"type":"function","name":"profile2_owner","inputs":[],"outputs":[{"name":"","type":"address","internalType":"address"}],"stateMutability":"nonpayable"},{"type":"function","name":"randomAddress","inputs":[],"outputs":[{"name":"","type":"address","internalType":"address"}],"stateMutability":"nonpayable"},{"type":"function","name":"recipient","inputs":[],"outputs":[{"name":"","type":"address","internalType":"address"}],"stateMutability":"nonpayable"},{"type":"function","name":"recipient1","inputs":[],"outputs":[{"name":"","type":"address","internalType":"address"}],"stateMutability":"nonpayable"},{"type":"function","name":"recipient2","inputs":[],"outputs":[{"name":"","type":"address","internalType":"address"}],"stateMutability":"nonpayable"},{"type":"function","name":"recipientAddress","inputs":[],"outputs":[{"name":"","type":"address","internalType":"address"}],"stateMutability":"nonpayable"},{"type":"function","name":"registry_owner","inputs":[],"outputs":[{"name":"","type":"address","internalType":"address"}],"stateMutability":"nonpayable"}],"bytecode":{"object":"0x60016080908152610120604052602e60c081815260a09162001d4160e0399052805160099081556020820151600a906200003a9082620000f6565b5050503480156200004a57600080fd5b50620001c2565b634e487b7160e01b600052604160045260246000fd5b600181811c908216806200007c57607f821691505b6020821081036200009d57634e487b7160e01b600052602260045260246000fd5b50919050565b601f821115620000f157600081815260208120601f850160051c81016020861015620000cc5750805b601f850160051c820191505b81811015620000ed57828155600101620000d8565b5050505b505050565b81516001600160401b0381111562000112576200011262000051565b6200012a8162000123845462000067565b84620000a3565b602080601f831160018114620001625760008415620001495750858301515b600019600386901b1c1916600185901b178555620000ed565b600085815260208120601f198616915b82811015620001935788860151825594840194600190910190840162000172565b5085821015620001b25787850151600019600388901b60f8161c191681555b5050505050600190811b01905550565b611b6f80620001d26000396000f3fe608060405234801561001057600080fd5b50600436106101cc5760003560e01c8062b1fad7146101d1578063030e4006146101f65780630688b135146101fe5780630f166ad414610206578063174eedde1461020c5780631b96dce6146102135780631e7bcb2e1461021b5780632e0f26251461022357806337d1c40414610240578063392f37e9146102535780633f26479e146102695780634bf4ba2114610272578063587c1243146102875780635aff59991461028f57806366d003ac146102975780636a38dd0a1461029f57806370a32944146102a757806374d9284e1461020c578063759c9a86146102af57806379e62d0d146102b75780637b2edf32146102bf5780637cbe79ed146102c7578063829e423f1461020c57806385294f18146102cf5780638c7408c41461020c5780638e0d1a50146102e25780638e3c2493146102ea578063a0cf0aea146102f2578063a407c67a1461030d578063aa3744bd14610315578063c36e336b1461031d578063d1e82b581461033d578063d1f2cd8814610345578063d5bee9f51461034d578063da4bf08714610355578063dac4eb161461035d578063e070e0ab14610365578063e99ce91114610378578063ef0d790f1461038b575b600080fd5b6101d9610393565b6040516001600160a01b0390911681526020015b60405180910390f35b6101d96103c8565b6101d96103fe565b306101d9565b60006101d9565b6101d961042b565b6101d961045c565b610232670de0b6b3a764000081565b6040519081526020016101ed565b61023261024e366004611285565b61048f565b61025b61054f565b6040516101ed9291906113ad565b61023261271081565b61027a6105e6565b6040516101ed9190611412565b6101d9610609565b6101d961063c565b6101d961066f565b6101d961069b565b61027a6106cb565b6101d9610763565b61027a610792565b6101d96107fa565b6101d961082d565b6102326102dd3660046114d8565b61085a565b6101d9610889565b6101d96108b6565b6101d973eeeeeeeeeeeeeeeeeeeeeeeeeeeeeeeeeeeeeeee81565b61027a6108e9565b6101d9610951565b61033061032b3660046115bd565b61097e565b6040516101ed9190611663565b6101d9610ad0565b6101d9610b03565b6101d9610b34565b6101d9610b62565b6101d9610b92565b610232610373366004611752565b610bc3565b610232610386366004611808565b610dc8565b6101d9610e56565b60006103c36040518060400160405280600d81526020016c706f6f6c5f6d616e616765723160981b815250610e88565b905090565b60006103c360405180604001604052806013815260200172383937b334b63298afb737ba20a6b2b6b132b960691b815250610e88565b60006103c36040518060400160405280600a8152602001693932b1b4b834b2b73a1960b11b815250610e88565b60006103c36040518060400160405280600e81526020016d383937b334b632992fb7bbb732b960911b815250610e88565b60006103c36040518060400160405280601081526020016f70726f66696c65315f6d656d6265723160801b815250610e88565b600b54600090610544576040805180820182526001815281518083018352600c81526b506f6f6c50726f66696c653160a01b6020828101919091528201529051633a92f65f60e01b81526001600160a01b03861691633a92f65f916104fd916002918890889060040161183a565b6020604051808303816000875af115801561051c573d6000803e3d6000fd5b505050506040513d601f19601f8201168201806040525081019061054091906118bb565b600b555b50600b549392505050565b60098054600a8054919291610563906118d4565b80601f016020809104026020016040519081016040528092919081815260200182805461058f906118d4565b80156105dc5780601f106105b1576101008083540402835291602001916105dc565b820191906000526020600020905b8154815290600101906020018083116105bf57829003601f168201915b5050505050905082565b604080516002808252606080830184529260208301908036833701905050905090565b60006103c36040518060400160405280601081526020016f70726f66696c65325f6d656d6265723160801b815250610e88565b60006103c36040518060400160405280601081526020016f726563697069656e744164647265737360801b815250610e88565b60006103c3604051806040016040528060098152602001681c9958da5c1a595b9d60ba1b815250610e88565b60006103c36040518060400160405280600d81526020016c3837b7b62fb6b0b730b3b2b91960991b815250610e88565b604080516002808252606080830184529260009291906020830190803683370190505090506106f861045c565b8160008151811061070b5761070b61190e565b60200260200101906001600160a01b031690816001600160a01b0316815250506107336107fa565b816001815181106107465761074661190e565b6001600160a01b0390921660209283029190910190910152919050565b60006103c36040518060400160405280600c81526020016b1b9bd7dc9958da5c1a595b9d60a21b815250610e88565b604080516002808252606080830184529260009291906020830190803683370190505090506107bf610393565b816000815181106107d2576107d261190e565b60200260200101906001600160a01b031690816001600160a01b03168152505061073361069b565b60006103c36040518060400160405280601081526020016f383937b334b63298afb6b2b6b132b91960811b815250610e88565b60006103c36040518060400160405280600a81526020016930b63637afb7bbb732b960b11b815250610e88565b600061087c89898989898989604051806020016040528060008152508a610bc3565b9998505050505050505050565b60006103c36040518060400160405280600a8152602001693837b7b62fb0b236b4b760b11b815250610e88565b60006103c36040518060400160405280601081526020016f383937b334b632992fb6b2b6b132b91960811b815250610e88565b60408051600280825260608083018452926000929190602083019080368337019050509050610916610609565b816000815181106109295761092961190e565b60200260200101906001600160a01b031690816001600160a01b0316815250506107336108b6565b60006103c36040518060400160405280600a815260200169726563697069656e743160b01b815250610e88565b610986611151565b610997670de0a46bc207d800610e9a565b8151604001526109ae6702c68af0bb140000610e9a565b8151526109c166038d7ea4c68000610e9a565b815160209081019190915281516702c68af0bb1400006060909101526001600160a01b03871660a08301528101856002811115610a0057610a00611629565b90816002811115610a1357610a13611629565b90525060408101846003811115610a2c57610a2c611629565b90816003811115610a3f57610a3f611629565b9052508251600003610a6157610a5e670de0b6b3a764000060c861193a565b83525b6060810183905260808101829052604080516001808252818301909252906020808301908036833750505060e082018190528051600091908290610aa757610aa761190e565b60200260200101906001600160a01b031690816001600160a01b03168152505095945050505050565b60006103c36040518060400160405280601081526020016f3837b7b62fb737ba20a6b0b730b3b2b960811b815250610e88565b60006103c36040518060400160405280600e81526020016d383937b334b63298afb7bbb732b960911b815250610e88565b60006103c36040518060400160405280600b81526020016a1c985b991bdb4818da185960aa1b815250610e88565b60006103c36040518060400160405280600d81526020016c616c6c6f5f747265617375727960981b815250610e88565b60006103c36040518060400160405280600e81526020016d3932b3b4b9ba393cafb7bbb732b960911b815250610e88565b600080610bd3898787878761097e565b60408051600280825260608201835292935060009290916020830190803683370190505090503081600081518110610c0d57610c0d61190e565b60200260200101906001600160a01b031690816001600160a01b0316815250503381600181518110610c4157610c4161190e565b6001600160a01b03928316602091820292909201015273eeeeeeeeeeeeeeeeeeeeeeeeeeeeeeeeeeeeeeee90891615610c775750875b8c6001600160a01b031663e1007d4a610c988c610c92610889565b8661048f565b8e86604051602001610caa9190611663565b6040516020818303038152906040528560006009896040518863ffffffff1660e01b8152600401610ce19796959493929190611951565b6020604051808303816000875af1158015610d00573d6000803e3d6000fd5b505050506040513d601f19601f82011682018060405250810190610d2491906118bb565b9350876002811115610d3857610d38611629565b8c6001600160a01b031663351d9f966040518163ffffffff1660e01b8152600401602060405180830381865afa158015610d76573d6000803e3d6000fd5b505050506040513d601f19601f82011682018060405250810190610d9a9190611a61565b6002811115610dab57610dab611629565b14610db857610db8611a7e565b5050509998505050505050505050565b60008481610de6610de062989680608087901b611a94565b83610eb1565b905060806001607f1b610dfc8662989680611ab6565b610e0a84600160801b611ab6565b610e17629896808a61193a565b610e21919061193a565b610e2b9190611a94565b610e35898561193a565b610e3f9190611ac9565b610e499190611ac9565b901c979650505050505050565b60006103c360405180604001604052806013815260200172383937b334b632992fb737ba20a6b2b6b132b960691b8152505b6000610e9382610f5e565b5092915050565b6000610eab64174876e80083611a94565b92915050565b6000600160801b8310610f0a5760405162461bcd60e51b815260206004820152601c60248201527b0bec240e6d0deead8c840c4ca40d8cae6e640e8d0c2dc4064bc6264760231b60448201526064015b60405180910390fd5b50600160801b82825b8015610f565780600116600003610f3857610f2e8283611074565b915060011c610f13565b610f428383611074565b9250610f4f600182611ab6565b9050610f13565b505092915050565b60008082604051602001610f729190611adc565b60408051808303601f190181529082905280516020909101206001625e79b760e01b03198252600482018190529150737109709ecfa91a80626ff3989d68f67f5b1dd12d9063ffa1864990602401602060405180830381865afa158015610fdd573d6000803e3d6000fd5b505050506040513d601f19601f820116820180604052508101906110019190611af8565b6040516318caf8e360e31b8152909250737109709ecfa91a80626ff3989d68f67f5b1dd12d9063c657c7189061103d9085908790600401611b15565b600060405180830381600087803b15801561105757600080fd5b505af115801561106b573d6000803e3d6000fd5b50505050915091565b6000600160801b8311156110db5760405162461bcd60e51b815260206004820152602860248201527f5f612073686f756c64206265206c657373207468616e206f7220657175616c206044820152670e8de4064bc6264760c31b6064820152608401610f01565b600160801b821061112d5760405162461bcd60e51b815260206004820152601c60248201527b0bec440e6d0deead8c840c4ca40d8cae6e640e8d0c2dc4064bc6264760231b6044820152606401610f01565b60806001607f1b61113e848661193a565b6111489190611ac9565b901c9392505050565b6040518061010001604052806111886040518060800160405280600081526020016000815260200160008152602001600081525090565b815260200160008152602001600081526020016111b16040518060200160405280600081525090565b81526020016112016040518060c0016040528060006001600160a01b0316815260200160006001600160a01b03168152602001600081526020016000815260200160008152602001600081525090565b8152600060208201819052604082015260609081015290565b6001600160a01b03169052565b6001600160a01b038116811461123c57600080fd5b50565b634e487b7160e01b600052604160045260246000fd5b604051601f8201601f191681016001600160401b038111828210171561127d5761127d61123f565b604052919050565b60008060006060848603121561129a57600080fd5b83356112a581611227565b92506020848101356112b681611227565b925060408501356001600160401b03808211156112d257600080fd5b818701915087601f8301126112e657600080fd5b8135818111156112f8576112f861123f565b8060051b9150611309848301611255565b818152918301840191848101908a84111561132357600080fd5b938501935b8385101561134d578435925061133d83611227565b8282529385019390850190611328565b8096505050505050509250925092565b60005b83811015611378578181015183820152602001611360565b50506000910152565b6000815180845261139981602086016020860161135d565b601f01601f19169290920160200192915050565b8281526040602082015260006113c66040830184611381565b949350505050565b600081518084526020808501945080840160005b838110156114075781516001600160a01b0316875295820195908201906001016113e2565b509495945050505050565b60208152600061142560208301846113ce565b9392505050565b6003811061123c57600080fd5b80356004811061144857600080fd5b919050565b600060c0828403121561145f57600080fd5b60405160c081016001600160401b03811182821017156114815761148161123f565b604052905080823561149281611227565b815260208301356114a281611227565b8060208301525060408301356040820152606083013560608201526080830135608082015260a083013560a08201525092915050565b6000806000806000806000806101a0898b0312156114f557600080fd5b883561150081611227565b9750602089013561151081611227565b9650604089013561152081611227565b9550606089013561153081611227565b9450608089013561154081611227565b935060a08901356115508161142c565b925061155e60c08a01611439565b915061156d8a60e08b0161144d565b90509295985092959890939650565b60006020828403121561158e57600080fd5b604051602081016001600160401b03811182821017156115b0576115b061123f565b6040529135825250919050565b600080600080600061014086880312156115d657600080fd5b85356115e181611227565b945060208601356115f18161142c565b93506115ff60408701611439565b925061160e876060880161157c565b915061161d876080880161144d565b90509295509295909350565b634e487b7160e01b600052602160045260246000fd5b6003811061164f5761164f611629565b9052565b6004811061164f5761164f611629565b6020815260008251805160208401526020810151604084015260408101516060840152606081015160808401525060208301516116a360a084018261163f565b5060408301516116b660c0840182611653565b506060838101515160e084015260808085015180516001600160a01b0390811661010087015260208201511661012086015260408101516101408601529182015161016085015281015161018084015260a0908101516101a08401528301516117236101c084018261121a565b5060c08301516117376101e084018261121a565b5060e0830151610200838101526113c66102208401826113ce565b60008060008060008060008060006101c08a8c03121561177157600080fd5b893561177c81611227565b985060208a013561178c81611227565b975060408a013561179c81611227565b965060608a01356117ac81611227565b955060808a01356117bc81611227565b945060a08a01356117cc8161142c565b93506117da60c08b01611439565b92506117e98b60e08c0161157c565b91506117f98b6101008c0161144d565b90509295985092959850929598565b6000806000806080858703121561181e57600080fd5b5050823594602084013594506040840135936060013592509050565b84815260a06020820152600e60a08201526d506f6f6c2050726f66696c65203160901b60c082015260e06040820152835160e082015260006020850151604061010084015261188d610120840182611381565b6001600160a01b0386166060850152838103608085015290506118b081856113ce565b979650505050505050565b6000602082840312156118cd57600080fd5b5051919050565b600181811c908216806118e857607f821691505b60208210810361190857634e487b7160e01b600052602260045260246000fd5b50919050565b634e487b7160e01b600052603260045260246000fd5b634e487b7160e01b600052601160045260246000fd5b8082028115828204841417610eab57610eab611924565b8781526000602060018060a01b03808a168285015260e0604085015261197a60e085018a611381565b818916606086015287608086015284810360a08601528654815260019150818701604084830152600081548181861c9050858216806119ba57607f821691505b87821081036119d757634e487b7160e01b84526022600452602484fd5b604086018290526060860195508080156119f85760018114611a0e57611a39565b60ff198416875282151560051b87019450611a39565b60008681526020902060005b84811015611a3357815489820152908901908a01611a1a565b88019550505b5050505086810360c0880152611a4f81896113ce565b9e9d5050505050505050505050505050565b600060208284031215611a7357600080fd5b81516114258161142c565b634e487b7160e01b600052600160045260246000fd5b600082611ab157634e487b7160e01b600052601260045260246000fd5b500490565b81810381811115610eab57610eab611924565b80820180821115610eab57610eab611924565b60008251611aee81846020870161135d565b9190910192915050565b600060208284031215611b0a57600080fd5b815161142581611227565b6001600160a01b03831681526040602082018190526000906113c69083018461138156fea2646970667358221220362900052d29381cb0024fcb9a4cdbb2c8e93f4286f42c17a11bd189645d1deb64736f6c63430008130033516d57347a464c464a524e374a3637457a4e6d64433272324d397532694a44686132666a3547656536684a7a5359","linkReferences":{}},"methodIdentifiers":{"DECIMALS()":"2e0f2625","NATIVE()":"a0cf0aea","PERCENTAGE_SCALE()":"3f26479e","_calculateConviction(uint256,uint256,uint256,uint256)":"e99ce911","allo_owner()":"7cbe79ed","allo_treasury()":"da4bf087","createPool(address,address,address,address,address,uint8,uint8,(address,address,uint256,uint256,uint256,uint256))":"85294f18","createPool(address,address,address,address,address,uint8,uint8,(uint256),(address,address,uint256,uint256,uint256,uint256))":"e070e0ab","getParams(address,uint8,uint8,(uint256),(address,address,uint256,uint256,uint256,uint256))":"c36e336b","local()":"0f166ad4","metadata()":"392f37e9","no_recipient()":"759c9a86","nullProfile_member1()":"829e423f","nullProfile_member2()":"8c7408c4","nullProfile_members()":"4bf4ba21","nullProfile_notAMember()":"174eedde","nullProfile_owner()":"74d9284e","poolProfile_id1(address,address,address[])":"37d1c404","pool_admin()":"8e0d1a50","pool_manager1()":"00b1fad7","pool_manager2()":"6a38dd0a","pool_managers()":"79e62d0d","pool_notAManager()":"d1e82b58","profile1_member1()":"1e7bcb2e","profile1_member2()":"7b2edf32","profile1_members()":"70a32944","profile1_notAMember()":"030e4006","profile1_owner()":"d1f2cd88","profile2_member1()":"587c1243","profile2_member2()":"8e3c2493","profile2_members()":"a407c67a","profile2_notAMember()":"ef0d790f","profile2_owner()":"1b96dce6","randomAddress()":"d5bee9f5","recipient()":"66d003ac","recipient1()":"aa3744bd","recipient2()":"0688b135","recipientAddress()":"5aff5999","registry_owner()":"dac4eb16"},"storageLayout":{"storage":[{"astId":9278,"contract":"pkg/contracts/test/CVStrategyHelpers.sol:CVStrategyHelpers","label":"gasMeteringOff","offset":0,"slot":"0","type":"t_bool"},{"astId":11315,"contract":"pkg/contracts/test/CVStrategyHelpers.sol:CVStrategyHelpers","label":"stdstore","offset":0,"slot":"1","type":"t_struct(StdStorage)13196_storage"},{"astId":77096,"contract":"pkg/contracts/test/CVStrategyHelpers.sol:CVStrategyHelpers","label":"metadata","offset":0,"slot":"9","type":"t_struct(Metadata)3098_storage"},{"astId":77108,"contract":"pkg/contracts/test/CVStrategyHelpers.sol:CVStrategyHelpers","label":"_poolProfileId1_","offset":0,"slot":"11","type":"t_bytes32"}],"types":{"t_address":{"encoding":"inplace","label":"address","numberOfBytes":"20"},"t_array(t_bytes32)dyn_storage":{"encoding":"dynamic_array","label":"bytes32[]","numberOfBytes":"32","base":"t_bytes32"},"t_bool":{"encoding":"inplace","label":"bool","numberOfBytes":"1"},"t_bytes32":{"encoding":"inplace","label":"bytes32","numberOfBytes":"32"},"t_bytes4":{"encoding":"inplace","label":"bytes4","numberOfBytes":"4"},"t_bytes_storage":{"encoding":"bytes","label":"bytes","numberOfBytes":"32"},"t_mapping(t_address,t_mapping(t_bytes4,t_mapping(t_bytes32,t_struct(FindData)13171_storage)))":{"encoding":"mapping","key":"t_address","label":"mapping(address => mapping(bytes4 => mapping(bytes32 => struct FindData)))","numberOfBytes":"32","value":"t_mapping(t_bytes4,t_mapping(t_bytes32,t_struct(FindData)13171_storage))"},"t_mapping(t_bytes32,t_struct(FindData)13171_storage)":{"encoding":"mapping","key":"t_bytes32","label":"mapping(bytes32 => struct FindData)","numberOfBytes":"32","value":"t_struct(FindData)13171_storage"},"t_mapping(t_bytes4,t_mapping(t_bytes32,t_struct(FindData)13171_storage))":{"encoding":"mapping","key":"t_bytes4","label":"mapping(bytes4 => mapping(bytes32 => struct FindData))","numberOfBytes":"32","value":"t_mapping(t_bytes32,t_struct(FindData)13171_storage)"},"t_string_storage":{"encoding":"bytes","label":"string","numberOfBytes":"32"},"t_struct(FindData)13171_storage":{"encoding":"inplace","label":"struct FindData","numberOfBytes":"128","members":[{"astId":13164,"contract":"pkg/contracts/test/CVStrategyHelpers.sol:CVStrategyHelpers","label":"slot","offset":0,"slot":"0","type":"t_uint256"},{"astId":13166,"contract":"pkg/contracts/test/CVStrategyHelpers.sol:CVStrategyHelpers","label":"offsetLeft","offset":0,"slot":"1","type":"t_uint256"},{"astId":13168,"contract":"pkg/contracts/test/CVStrategyHelpers.sol:CVStrategyHelpers","label":"offsetRight","offset":0,"slot":"2","type":"t_uint256"},{"astId":13170,"contract":"pkg/contracts/test/CVStrategyHelpers.sol:CVStrategyHelpers","label":"found","offset":0,"slot":"3","type":"t_bool"}]},"t_struct(Metadata)3098_storage":{"encoding":"inplace","label":"struct Metadata","numberOfBytes":"64","members":[{"astId":3094,"contract":"pkg/contracts/test/CVStrategyHelpers.sol:CVStrategyHelpers","label":"protocol","offset":0,"slot":"0","type":"t_uint256"},{"astId":3097,"contract":"pkg/contracts/test/CVStrategyHelpers.sol:CVStrategyHelpers","label":"pointer","offset":0,"slot":"1","type":"t_string_storage"}]},"t_struct(StdStorage)13196_storage":{"encoding":"inplace","label":"struct StdStorage","numberOfBytes":"256","members":[{"astId":13180,"contract":"pkg/contracts/test/CVStrategyHelpers.sol:CVStrategyHelpers","label":"finds","offset":0,"slot":"0","type":"t_mapping(t_address,t_mapping(t_bytes4,t_mapping(t_bytes32,t_struct(FindData)13171_storage)))"},{"astId":13183,"contract":"pkg/contracts/test/CVStrategyHelpers.sol:CVStrategyHelpers","label":"_keys","offset":0,"slot":"1","type":"t_array(t_bytes32)dyn_storage"},{"astId":13185,"contract":"pkg/contracts/test/CVStrategyHelpers.sol:CVStrategyHelpers","label":"_sig","offset":0,"slot":"2","type":"t_bytes4"},{"astId":13187,"contract":"pkg/contracts/test/CVStrategyHelpers.sol:CVStrategyHelpers","label":"_depth","offset":0,"slot":"3","type":"t_uint256"},{"astId":13189,"contract":"pkg/contracts/test/CVStrategyHelpers.sol:CVStrategyHelpers","label":"_target","offset":0,"slot":"4","type":"t_address"},{"astId":13191,"contract":"pkg/contracts/test/CVStrategyHelpers.sol:CVStrategyHelpers","label":"_set","offset":0,"slot":"5","type":"t_bytes32"},{"astId":13193,"contract":"pkg/contracts/test/CVStrategyHelpers.sol:CVStrategyHelpers","label":"_enable_packed_slots","offset":0,"slot":"6","type":"t_bool"},{"astId":13195,"contract":"pkg/contracts/test/CVStrategyHelpers.sol:CVStrategyHelpers","label":"_calldata","offset":0,"slot":"7","type":"t_bytes_storage"}]},"t_uint256":{"encoding":"inplace","label":"uint256","numberOfBytes":"32"}}},"id":118}