{"abi":[{"type":"function","name":"DECIMALS","inputs":[],"outputs":[{"name":"","type":"uint256","internalType":"uint256"}],"stateMutability":"view"},{"type":"function","name":"NATIVE","inputs":[],"outputs":[{"name":"","type":"address","internalType":"address"}],"stateMutability":"view"},{"type":"function","name":"_calculateConviction","inputs":[{"name":"_timePassed","type":"uint256","internalType":"uint256"},{"name":"_lastConv","type":"uint256","internalType":"uint256"},{"name":"_oldAmount","type":"uint256","internalType":"uint256"},{"name":"decay","type":"uint256","internalType":"uint256"}],"outputs":[{"name":"","type":"uint256","internalType":"uint256"}],"stateMutability":"pure"},{"type":"function","name":"allo_owner","inputs":[],"outputs":[{"name":"","type":"address","internalType":"address"}],"stateMutability":"nonpayable"},{"type":"function","name":"allo_treasury","inputs":[],"outputs":[{"name":"","type":"address","internalType":"address payable"}],"stateMutability":"nonpayable"},{"type":"function","name":"createPool","inputs":[{"name":"allo","type":"address","internalType":"contract Allo"},{"name":"strategy","type":"address","internalType":"address"},{"name":"registryCommunity","type":"address","internalType":"address"},{"name":"registry","type":"address","internalType":"contract IRegistry"},{"name":"token","type":"address","internalType":"address"},{"name":"proposalType","type":"uint8","internalType":"enum StrategyStruct.ProposalType"},{"name":"pointSystem","type":"uint8","internalType":"enum StrategyStruct.PointSystem"},{"name":"pointConfig","type":"tuple","internalType":"struct StrategyStruct.PointSystemConfig","components":[{"name":"pointsPerTokenStaked","type":"uint256","internalType":"uint256"},{"name":"maxAmount","type":"uint256","internalType":"uint256"},{"name":"pointsPerMember","type":"uint256","internalType":"uint256"},{"name":"tokensPerPoint","type":"uint256","internalType":"uint256"}]}],"outputs":[{"name":"poolId","type":"uint256","internalType":"uint256"}],"stateMutability":"nonpayable"},{"type":"function","name":"createPool","inputs":[{"name":"allo","type":"address","internalType":"contract Allo"},{"name":"strategy","type":"address","internalType":"address"},{"name":"registryCommunity","type":"address","internalType":"address"},{"name":"registry","type":"address","internalType":"contract IRegistry"},{"name":"token","type":"address","internalType":"address"},{"name":"proposalType","type":"uint8","internalType":"enum StrategyStruct.ProposalType"},{"name":"pointSystem","type":"uint8","internalType":"enum StrategyStruct.PointSystem"}],"outputs":[{"name":"poolId","type":"uint256","internalType":"uint256"}],"stateMutability":"nonpayable"},{"type":"function","name":"getParams","inputs":[{"name":"registryCommunity","type":"address","internalType":"address"},{"name":"proposalType","type":"uint8","internalType":"enum StrategyStruct.ProposalType"},{"name":"pointSystem","type":"uint8","internalType":"enum StrategyStruct.PointSystem"},{"name":"pointConfig","type":"tuple","internalType":"struct StrategyStruct.PointSystemConfig","components":[{"name":"pointsPerTokenStaked","type":"uint256","internalType":"uint256"},{"name":"maxAmount","type":"uint256","internalType":"uint256"},{"name":"pointsPerMember","type":"uint256","internalType":"uint256"},{"name":"tokensPerPoint","type":"uint256","internalType":"uint256"}]}],"outputs":[{"name":"params","type":"tuple","internalType":"struct StrategyStruct.InitializeParams","components":[{"name":"registryCommunity","type":"address","internalType":"address"},{"name":"decay","type":"uint256","internalType":"uint256"},{"name":"maxRatio","type":"uint256","internalType":"uint256"},{"name":"weight","type":"uint256","internalType":"uint256"},{"name":"proposalType","type":"uint8","internalType":"enum StrategyStruct.ProposalType"},{"name":"pointSystem","type":"uint8","internalType":"enum StrategyStruct.PointSystem"},{"name":"pointConfig","type":"tuple","internalType":"struct StrategyStruct.PointSystemConfig","components":[{"name":"pointsPerTokenStaked","type":"uint256","internalType":"uint256"},{"name":"maxAmount","type":"uint256","internalType":"uint256"},{"name":"pointsPerMember","type":"uint256","internalType":"uint256"},{"name":"tokensPerPoint","type":"uint256","internalType":"uint256"}]}]}],"stateMutability":"pure"},{"type":"function","name":"local","inputs":[],"outputs":[{"name":"","type":"address","internalType":"address"}],"stateMutability":"view"},{"type":"function","name":"metadata","inputs":[],"outputs":[{"name":"protocol","type":"uint256","internalType":"uint256"},{"name":"pointer","type":"string","internalType":"string"}],"stateMutability":"view"},{"type":"function","name":"no_recipient","inputs":[],"outputs":[{"name":"","type":"address","internalType":"address"}],"stateMutability":"nonpayable"},{"type":"function","name":"nullProfile_member1","inputs":[],"outputs":[{"name":"","type":"address","internalType":"address"}],"stateMutability":"pure"},{"type":"function","name":"nullProfile_member2","inputs":[],"outputs":[{"name":"","type":"address","internalType":"address"}],"stateMutability":"pure"},{"type":"function","name":"nullProfile_members","inputs":[],"outputs":[{"name":"","type":"address[]","internalType":"address[]"}],"stateMutability":"pure"},{"type":"function","name":"nullProfile_notAMember","inputs":[],"outputs":[{"name":"","type":"address","internalType":"address"}],"stateMutability":"pure"},{"type":"function","name":"nullProfile_owner","inputs":[],"outputs":[{"name":"","type":"address","internalType":"address"}],"stateMutability":"pure"},{"type":"function","name":"poolProfile_id1","inputs":[{"name":"registry","type":"address","internalType":"contract IRegistry"},{"name":"pool_admin","type":"address","internalType":"address"},{"name":"pool_managers","type":"address[]","internalType":"address[]"}],"outputs":[{"name":"","type":"bytes32","internalType":"bytes32"}],"stateMutability":"nonpayable"},{"type":"function","name":"pool_admin","inputs":[],"outputs":[{"name":"","type":"address","internalType":"address"}],"stateMutability":"nonpayable"},{"type":"function","name":"pool_manager1","inputs":[],"outputs":[{"name":"","type":"address","internalType":"address"}],"stateMutability":"nonpayable"},{"type":"function","name":"pool_manager2","inputs":[],"outputs":[{"name":"","type":"address","internalType":"address"}],"stateMutability":"nonpayable"},{"type":"function","name":"pool_managers","inputs":[],"outputs":[{"name":"","type":"address[]","internalType":"address[]"}],"stateMutability":"nonpayable"},{"type":"function","name":"pool_notAManager","inputs":[],"outputs":[{"name":"","type":"address","internalType":"address"}],"stateMutability":"nonpayable"},{"type":"function","name":"profile1_member1","inputs":[],"outputs":[{"name":"","type":"address","internalType":"address"}],"stateMutability":"nonpayable"},{"type":"function","name":"profile1_member2","inputs":[],"outputs":[{"name":"","type":"address","internalType":"address"}],"stateMutability":"nonpayable"},{"type":"function","name":"profile1_members","inputs":[],"outputs":[{"name":"","type":"address[]","internalType":"address[]"}],"stateMutability":"nonpayable"},{"type":"function","name":"profile1_notAMember","inputs":[],"outputs":[{"name":"","type":"address","internalType":"address"}],"stateMutability":"nonpayable"},{"type":"function","name":"profile1_owner","inputs":[],"outputs":[{"name":"","type":"address","internalType":"address"}],"stateMutability":"nonpayable"},{"type":"function","name":"profile2_member1","inputs":[],"outputs":[{"name":"","type":"address","internalType":"address"}],"stateMutability":"nonpayable"},{"type":"function","name":"profile2_member2","inputs":[],"outputs":[{"name":"","type":"address","internalType":"address"}],"stateMutability":"nonpayable"},{"type":"function","name":"profile2_members","inputs":[],"outputs":[{"name":"","type":"address[]","internalType":"address[]"}],"stateMutability":"nonpayable"},{"type":"function","name":"profile2_notAMember","inputs":[],"outputs":[{"name":"","type":"address","internalType":"address"}],"stateMutability":"nonpayable"},{"type":"function","name":"profile2_owner","inputs":[],"outputs":[{"name":"","type":"address","internalType":"address"}],"stateMutability":"nonpayable"},{"type":"function","name":"randomAddress","inputs":[],"outputs":[{"name":"","type":"address","internalType":"address"}],"stateMutability":"nonpayable"},{"type":"function","name":"recipient","inputs":[],"outputs":[{"name":"","type":"address","internalType":"address"}],"stateMutability":"nonpayable"},{"type":"function","name":"recipient1","inputs":[],"outputs":[{"name":"","type":"address","internalType":"address"}],"stateMutability":"nonpayable"},{"type":"function","name":"recipient2","inputs":[],"outputs":[{"name":"","type":"address","internalType":"address"}],"stateMutability":"nonpayable"},{"type":"function","name":"recipientAddress","inputs":[],"outputs":[{"name":"","type":"address","internalType":"address"}],"stateMutability":"nonpayable"},{"type":"function","name":"registry_owner","inputs":[],"outputs":[{"name":"","type":"address","internalType":"address"}],"stateMutability":"nonpayable"}],"bytecode":{"object":"0x60016080908152610120604052602e60c081815260a09162001e4760e0399052805160099081556020820151600a906200003a9082620000f6565b5050503480156200004a57600080fd5b50620001c2565b634e487b7160e01b600052604160045260246000fd5b600181811c908216806200007c57607f821691505b6020821081036200009d57634e487b7160e01b600052602260045260246000fd5b50919050565b601f821115620000f157600081815260208120601f850160051c81016020861015620000cc5750805b601f850160051c820191505b81811015620000ed57828155600101620000d8565b5050505b505050565b81516001600160401b0381111562000112576200011262000051565b6200012a8162000123845462000067565b84620000a3565b602080601f831160018114620001625760008415620001495750858301515b600019600386901b1c1916600185901b178555620000ed565b600085815260208120601f198616915b82811015620001935788860151825594840194600190910190840162000172565b5085821015620001b25787850151600019600388901b60f8161c191681555b5050505050600190811b01905550565b611c7580620001d26000396000f3fe608060405234801561001057600080fd5b50600436106102915760003560e01c806379e62d0d11610160578063a8c70aa1116100d8578063d8c12dc21161008c578063dac4eb1611610071578063dac4eb161461042c578063e99ce91114610434578063ef0d790f1461044757600080fd5b8063d8c12dc214610411578063da4bf0871461042457600080fd5b8063d1e82b58116100bd578063d1e82b58146103f9578063d1f2cd8814610401578063d5bee9f51461040957600080fd5b8063a8c70aa1146103de578063aa3744bd146103f157600080fd5b80638c7408c41161012f5780638e3c2493116101145780638e3c2493146103b3578063a0cf0aea146103bb578063a407c67a146103d657600080fd5b80638c7408c4146102f15780638e0d1a50146103ab57600080fd5b806379e62d0d146103935780637b2edf321461039b5780637cbe79ed146103a3578063829e423f146102f157600080fd5b806337d1c4041161020e57806366d003ac116101c257806370a32944116101a757806370a329441461038357806374d9284e146102f1578063759c9a861461038b57600080fd5b806366d003ac146103735780636a38dd0a1461037b57600080fd5b80634bf4ba21116101f35780634bf4ba211461034e578063587c1243146103635780635aff59991461036b57600080fd5b806337d1c40414610325578063392f37e91461033857600080fd5b80630f166ad4116102655780631b96dce61161024a5780631b96dce6146102f85780631e7bcb2e146103005780632e0f26251461030857600080fd5b80630f166ad4146102eb578063174eedde146102f157600080fd5b8062b1fad714610296578063030e4006146102bb57806305f7ae31146102c35780630688b135146102e3575b600080fd5b61029e61044f565b6040516001600160a01b0390911681526020015b60405180910390f35b61029e610494565b6102d66102d1366004611517565b6104d4565b6040516102b29190611586565b61029e6105f0565b3061029e565b600061029e565b61029e610630565b61029e610670565b610317670de0b6b3a764000081565b6040519081526020016102b2565b610317610333366004611622565b6106b0565b61034061079a565b6040516102b292919061174b565b610356610831565b6040516102b291906117b0565b61029e610854565b61029e610894565b61029e6108d4565b61029e610914565b610356610954565b61029e6109ec565b610356610a2c565b61029e610a94565b61029e610ad4565b61029e610b14565b61029e610b54565b61029e73eeeeeeeeeeeeeeeeeeeeeeeeeeeeeeeeeeeeeeee81565b610356610b94565b6103176103ec3660046117ca565b610bfc565b61029e610dff565b61029e610e3f565b61029e610e7f565b61029e610ebf565b61031761041f36600461186e565b610eff565b61029e610f41565b61029e610f81565b610317610442366004611900565b610fc1565b61029e61105b565b600061048f6040518060400160405280600d81526020017f706f6f6c5f6d616e616765723100000000000000000000000000000000000000815250611097565b905090565b600061048f6040518060400160405280601381526020017f70726f66696c65315f6e6f74414d656d62657200000000000000000000000000815250611097565b6104dc6113b2565b6104ed670de0a46bc207d8006110a9565b60208201526105036702c68af0bb1400006110a9565b604082015261051866038d7ea4c680006110a9565b60608201526001600160a01b03851681526080810184600281111561053f5761053f611570565b9081600281111561055257610552611570565b90525060a0810183600381111561056b5761056b611570565b9081600381111561057e5761057e611570565b905250602082015160000361059757621e848060208301525b81604001516000036105ad57620f424060408301525b81606001516000036105d2576105cc670de0b6b3a76400006001611948565b60608301525b81516000036105e15761c35082525b60c08101919091529392505050565b600061048f6040518060400160405280600a81526020017f726563697069656e743200000000000000000000000000000000000000000000815250611097565b600061048f6040518060400160405280600e81526020017f70726f66696c65325f6f776e6572000000000000000000000000000000000000815250611097565b600061048f6040518060400160405280601081526020017f70726f66696c65315f6d656d6265723100000000000000000000000000000000815250611097565b600b5460009061078f576040805180820182526001815281518083018352600c81527f506f6f6c50726f66696c6531000000000000000000000000000000000000000060208281019190915282015290517f3a92f65f0000000000000000000000000000000000000000000000000000000081526001600160a01b03861691633a92f65f91610748916002918890889060040161195f565b6020604051808303816000875af1158015610767573d6000803e3d6000fd5b505050506040513d601f19601f8201168201806040525081019061078b91906119ef565b600b555b50600b549392505050565b60098054600a80549192916107ae90611a08565b80601f01602080910402602001604051908101604052809291908181526020018280546107da90611a08565b80156108275780601f106107fc57610100808354040283529160200191610827565b820191906000526020600020905b81548152906001019060200180831161080a57829003601f168201915b5050505050905082565b604080516002808252606080830184529260208301908036833701905050905090565b600061048f6040518060400160405280601081526020017f70726f66696c65325f6d656d6265723100000000000000000000000000000000815250611097565b600061048f6040518060400160405280601081526020017f726563697069656e744164647265737300000000000000000000000000000000815250611097565b600061048f6040518060400160405280600981526020017f726563697069656e740000000000000000000000000000000000000000000000815250611097565b600061048f6040518060400160405280600d81526020017f706f6f6c5f6d616e616765723200000000000000000000000000000000000000815250611097565b60408051600280825260608083018452926000929190602083019080368337019050509050610981610670565b8160008151811061099457610994611a42565b60200260200101906001600160a01b031690816001600160a01b0316815250506109bc610a94565b816001815181106109cf576109cf611a42565b6001600160a01b0390921660209283029190910190910152919050565b600061048f6040518060400160405280600c81526020017f6e6f5f726563697069656e740000000000000000000000000000000000000000815250611097565b60408051600280825260608083018452926000929190602083019080368337019050509050610a5961044f565b81600081518110610a6c57610a6c611a42565b60200260200101906001600160a01b031690816001600160a01b0316815250506109bc610914565b600061048f6040518060400160405280601081526020017f70726f66696c65315f6d656d6265723200000000000000000000000000000000815250611097565b600061048f6040518060400160405280600a81526020017f616c6c6f5f6f776e657200000000000000000000000000000000000000000000815250611097565b600061048f6040518060400160405280600a81526020017f706f6f6c5f61646d696e00000000000000000000000000000000000000000000815250611097565b600061048f6040518060400160405280601081526020017f70726f66696c65325f6d656d6265723200000000000000000000000000000000815250611097565b60408051600280825260608083018452926000929190602083019080368337019050509050610bc1610854565b81600081518110610bd457610bd4611a42565b60200260200101906001600160a01b031690816001600160a01b0316815250506109bc610b54565b600080610c0b888686866104d4565b60408051600280825260608201835292935060009290916020830190803683370190505090503081600081518110610c4557610c45611a42565b60200260200101906001600160a01b031690816001600160a01b0316815250503381600181518110610c7957610c79611a42565b6001600160a01b03928316602091820292909201015273eeeeeeeeeeeeeeeeeeeeeeeeeeeeeeeeeeeeeeee90881615610caf5750865b8b6001600160a01b031663e1007d4a610cd08b610cca610b14565b866106b0565b8d86604051602001610ce29190611586565b6040516020818303038152906040528560006009896040518863ffffffff1660e01b8152600401610d199796959493929190611a58565b6020604051808303816000875af1158015610d38573d6000803e3d6000fd5b505050506040513d601f19601f82011682018060405250810190610d5c91906119ef565b9350866002811115610d7057610d70611570565b8b6001600160a01b031663351d9f966040518163ffffffff1660e01b8152600401602060405180830381865afa158015610dae573d6000803e3d6000fd5b505050506040513d601f19601f82011682018060405250810190610dd29190611b69565b6002811115610de357610de3611570565b14610df057610df0611b86565b50505098975050505050505050565b600061048f6040518060400160405280600a81526020017f726563697069656e743100000000000000000000000000000000000000000000815250611097565b600061048f6040518060400160405280601081526020017f706f6f6c5f6e6f74414d616e6167657200000000000000000000000000000000815250611097565b600061048f6040518060400160405280600e81526020017f70726f66696c65315f6f776e6572000000000000000000000000000000000000815250611097565b600061048f6040518060400160405280600b81526020017f72616e646f6d2063686164000000000000000000000000000000000000000000815250611097565b6000610f358888888888888860405180608001604052806000815260200160008152602001600081526020016000815250610bfc565b98975050505050505050565b600061048f6040518060400160405280600d81526020017f616c6c6f5f747265617375727900000000000000000000000000000000000000815250611097565b600061048f6040518060400160405280600e81526020017f72656769737472795f6f776e6572000000000000000000000000000000000000815250611097565b60008481610fdf610fd962989680608087901b611b9c565b836110c0565b905060806f800000000000000000000000000000006110018662989680611bbe565b61100f84600160801b611bbe565b61101c629896808a611948565b6110269190611948565b6110309190611b9c565b61103a8985611948565b6110449190611bd1565b61104e9190611bd1565b901c979650505050505050565b600061048f6040518060400160405280601381526020017f70726f66696c65325f6e6f74414d656d626572000000000000000000000000008152505b60006110a28261116e565b5092915050565b60006110ba64174876e80083611b9c565b92915050565b6000600160801b831061111a5760405162461bcd60e51b815260206004820152601c60248201527f5f612073686f756c64206265206c657373207468616e20325e3132380000000060448201526064015b60405180910390fd5b50600160801b82825b801561116657806001166000036111485761113e82836112b3565b915060011c611123565b61115283836112b3565b925061115f600182611bbe565b9050611123565b505092915050565b600080826040516020016111829190611be4565b60408051808303601f190181529082905280516020909101207fffa18649000000000000000000000000000000000000000000000000000000008252600482018190529150737109709ecfa91a80626ff3989d68f67f5b1dd12d9063ffa1864990602401602060405180830381865afa158015611203573d6000803e3d6000fd5b505050506040513d601f19601f820116820180604052508101906112279190611c00565b6040517fc657c718000000000000000000000000000000000000000000000000000000008152909250737109709ecfa91a80626ff3989d68f67f5b1dd12d9063c657c7189061127c9085908790600401611c1d565b600060405180830381600087803b15801561129657600080fd5b505af11580156112aa573d6000803e3d6000fd5b50505050915091565b6000600160801b83111561132f5760405162461bcd60e51b815260206004820152602860248201527f5f612073686f756c64206265206c657373207468616e206f7220657175616c2060448201527f746f20325e3132380000000000000000000000000000000000000000000000006064820152608401611111565b600160801b82106113825760405162461bcd60e51b815260206004820152601c60248201527f5f622073686f756c64206265206c657373207468616e20325e313238000000006044820152606401611111565b60806f8000000000000000000000000000000061139f8486611948565b6113a99190611bd1565b901c9392505050565b6040518060e0016040528060006001600160a01b03168152602001600081526020016000815260200160008152602001600060028111156113f5576113f5611570565b81526020016000815260200161142c6040518060800160405280600081526020016000815260200160008152602001600081525090565b905290565b6001600160a01b038116811461144657600080fd5b50565b6003811061144657600080fd5b80356004811061146557600080fd5b919050565b634e487b7160e01b600052604160045260246000fd5b604051601f8201601f1916810167ffffffffffffffff811182821017156114a9576114a961146a565b604052919050565b6000608082840312156114c357600080fd5b6040516080810181811067ffffffffffffffff821117156114e6576114e661146a565b8060405250809150823581526020830135602082015260408301356040820152606083013560608201525092915050565b60008060008060e0858703121561152d57600080fd5b843561153881611431565b9350602085013561154881611449565b925061155660408601611456565b915061156586606087016114b1565b905092959194509250565b634e487b7160e01b600052602160045260246000fd5b6000610140820190506001600160a01b0383511682526020830151602083015260408301516040830152606083015160608301526080830151600381106115cf576115cf611570565b608083015260a0830151600481106115e9576115e9611570565b60a083015260c083810151805191840191909152602081015160e0840152604081015161010084015260608101516101208401526110a2565b60008060006060848603121561163757600080fd5b833561164281611431565b925060208481013561165381611431565b9250604085013567ffffffffffffffff8082111561167057600080fd5b818701915087601f83011261168457600080fd5b8135818111156116965761169661146a565b8060051b91506116a7848301611480565b818152918301840191848101908a8411156116c157600080fd5b938501935b838510156116eb57843592506116db83611431565b82825293850193908501906116c6565b8096505050505050509250925092565b60005b838110156117165781810151838201526020016116fe565b50506000910152565b600081518084526117378160208601602086016116fb565b601f01601f19169290920160200192915050565b828152604060208201526000611764604083018461171f565b949350505050565b600081518084526020808501945080840160005b838110156117a55781516001600160a01b031687529582019590820190600101611780565b509495945050505050565b6020815260006117c3602083018461176c565b9392505050565b600080600080600080600080610160898b0312156117e757600080fd5b88356117f281611431565b9750602089013561180281611431565b9650604089013561181281611431565b9550606089013561182281611431565b9450608089013561183281611431565b935060a089013561184281611449565b925061185060c08a01611456565b915061185f8a60e08b016114b1565b90509295985092959890939650565b600080600080600080600060e0888a03121561188957600080fd5b873561189481611431565b965060208801356118a481611431565b955060408801356118b481611431565b945060608801356118c481611431565b935060808801356118d481611431565b925060a08801356118e481611449565b91506118f260c08901611456565b905092959891949750929550565b6000806000806080858703121561191657600080fd5b5050823594602084013594506040840135936060013592509050565b634e487b7160e01b600052601160045260246000fd5b80820281158282048414176110ba576110ba611932565b84815260a06020820152600e60a08201527f506f6f6c2050726f66696c65203100000000000000000000000000000000000060c082015260e06040820152835160e08201526000602085015160406101008401526119c161012084018261171f565b90506001600160a01b038516606084015282810360808401526119e4818561176c565b979650505050505050565b600060208284031215611a0157600080fd5b5051919050565b600181811c90821680611a1c57607f821691505b602082108103611a3c57634e487b7160e01b600052602260045260246000fd5b50919050565b634e487b7160e01b600052603260045260246000fd5b878152600060206001600160a01b03808a168285015260e06040850152611a8260e085018a61171f565b818916606086015287608086015284810360a08601528654815260019150818701604084830152600081548181861c905085821680611ac257607f821691505b8782108103611adf57634e487b7160e01b84526022600452602484fd5b60408601829052606086019550808015611b005760018114611b1657611b41565b60ff198416875282151560051b87019450611b41565b60008681526020902060005b84811015611b3b57815489820152908901908a01611b22565b88019550505b5050505086810360c0880152611b57818961176c565b9e9d5050505050505050505050505050565b600060208284031215611b7b57600080fd5b81516117c381611449565b634e487b7160e01b600052600160045260246000fd5b600082611bb957634e487b7160e01b600052601260045260246000fd5b500490565b818103818111156110ba576110ba611932565b808201808211156110ba576110ba611932565b60008251611bf68184602087016116fb565b9190910192915050565b600060208284031215611c1257600080fd5b81516117c381611431565b6001600160a01b0383168152604060208201526000611764604083018461171f56fea26469706673582212205dfb83d9769197aef78d1af2db4265263ba6b322d5be17881e3196dc834c192364736f6c63430008130033516d57347a464c464a524e374a3637457a4e6d64433272324d397532694a44686132666a3547656536684a7a5359","linkReferences":{}},"methodIdentifiers":{"DECIMALS()":"2e0f2625","NATIVE()":"a0cf0aea","_calculateConviction(uint256,uint256,uint256,uint256)":"e99ce911","allo_owner()":"7cbe79ed","allo_treasury()":"da4bf087","createPool(address,address,address,address,address,uint8,uint8)":"d8c12dc2","createPool(address,address,address,address,address,uint8,uint8,(uint256,uint256,uint256,uint256))":"a8c70aa1","getParams(address,uint8,uint8,(uint256,uint256,uint256,uint256))":"05f7ae31","local()":"0f166ad4","metadata()":"392f37e9","no_recipient()":"759c9a86","nullProfile_member1()":"829e423f","nullProfile_member2()":"8c7408c4","nullProfile_members()":"4bf4ba21","nullProfile_notAMember()":"174eedde","nullProfile_owner()":"74d9284e","poolProfile_id1(address,address,address[])":"37d1c404","pool_admin()":"8e0d1a50","pool_manager1()":"00b1fad7","pool_manager2()":"6a38dd0a","pool_managers()":"79e62d0d","pool_notAManager()":"d1e82b58","profile1_member1()":"1e7bcb2e","profile1_member2()":"7b2edf32","profile1_members()":"70a32944","profile1_notAMember()":"030e4006","profile1_owner()":"d1f2cd88","profile2_member1()":"587c1243","profile2_member2()":"8e3c2493","profile2_members()":"a407c67a","profile2_notAMember()":"ef0d790f","profile2_owner()":"1b96dce6","randomAddress()":"d5bee9f5","recipient()":"66d003ac","recipient1()":"aa3744bd","recipient2()":"0688b135","recipientAddress()":"5aff5999","registry_owner()":"dac4eb16"},"id":108}