{"abi":[{"type":"function","name":"COUNCIL_MEMBER","inputs":[],"outputs":[{"name":"","type":"bytes32","internalType":"bytes32"}],"stateMutability":"view"},{"type":"function","name":"DEFAULT_ADMIN_ROLE","inputs":[],"outputs":[{"name":"","type":"bytes32","internalType":"bytes32"}],"stateMutability":"view"},{"type":"function","name":"MAX_FEE","inputs":[],"outputs":[{"name":"","type":"uint256","internalType":"uint256"}],"stateMutability":"view"},{"type":"function","name":"MAX_STRATEGIES_PER_MEMBER","inputs":[],"outputs":[{"name":"","type":"uint256","internalType":"uint256"}],"stateMutability":"view"},{"type":"function","name":"NATIVE","inputs":[],"outputs":[{"name":"","type":"address","internalType":"address"}],"stateMutability":"view"},{"type":"function","name":"PRECISION_SCALE","inputs":[],"outputs":[{"name":"","type":"uint256","internalType":"uint256"}],"stateMutability":"view"},{"type":"function","name":"VERSION","inputs":[],"outputs":[{"name":"","type":"string","internalType":"string"}],"stateMutability":"view"},{"type":"function","name":"addressToMemberInfo","inputs":[{"name":"member","type":"address","internalType":"address"}],"outputs":[{"name":"member","type":"address","internalType":"address"},{"name":"stakedAmount","type":"uint256","internalType":"uint256"},{"name":"isRegistered","type":"bool","internalType":"bool"}],"stateMutability":"view"},{"type":"function","name":"allo","inputs":[],"outputs":[{"name":"","type":"address","internalType":"contract FAllo"}],"stateMutability":"view"},{"type":"function","name":"cloneNonce","inputs":[],"outputs":[{"name":"","type":"uint256","internalType":"uint256"}],"stateMutability":"view"},{"type":"function","name":"collateralVaultTemplate","inputs":[],"outputs":[{"name":"","type":"address","internalType":"address"}],"stateMutability":"view"},{"type":"function","name":"communityFee","inputs":[],"outputs":[{"name":"","type":"uint256","internalType":"uint256"}],"stateMutability":"view"},{"type":"function","name":"communityName","inputs":[],"outputs":[{"name":"","type":"string","internalType":"string"}],"stateMutability":"view"},{"type":"function","name":"councilSafe","inputs":[],"outputs":[{"name":"","type":"address","internalType":"contract ISafe"}],"stateMutability":"view"},{"type":"function","name":"covenantIpfsHash","inputs":[],"outputs":[{"name":"","type":"string","internalType":"string"}],"stateMutability":"view"},{"type":"function","name":"createPool","inputs":[{"name":"_strategy","type":"address","internalType":"address"},{"name":"_token","type":"address","internalType":"address"},{"name":"_params","type":"tuple","internalType":"struct CVStrategyInitializeParamsV0_3","components":[{"name":"cvParams","type":"tuple","internalType":"struct CVParams","components":[{"name":"maxRatio","type":"uint256","internalType":"uint256"},{"name":"weight","type":"uint256","internalType":"uint256"},{"name":"decay","type":"uint256","internalType":"uint256"},{"name":"minThresholdPoints","type":"uint256","internalType":"uint256"}]},{"name":"proposalType","type":"uint8","internalType":"enum ProposalType"},{"name":"pointSystem","type":"uint8","internalType":"enum PointSystem"},{"name":"pointConfig","type":"tuple","internalType":"struct PointSystemConfig","components":[{"name":"maxAmount","type":"uint256","internalType":"uint256"}]},{"name":"arbitrableConfig","type":"tuple","internalType":"struct ArbitrableConfig","components":[{"name":"arbitrator","type":"address","internalType":"contract IArbitrator"},{"name":"tribunalSafe","type":"address","internalType":"address"},{"name":"submitterCollateralAmount","type":"uint256","internalType":"uint256"},{"name":"challengerCollateralAmount","type":"uint256","internalType":"uint256"},{"name":"defaultRuling","type":"uint256","internalType":"uint256"},{"name":"defaultRulingTimeout","type":"uint256","internalType":"uint256"}]},{"name":"registryCommunity","type":"address","internalType":"address"},{"name":"votingPowerRegistry","type":"address","internalType":"address"},{"name":"sybilScorer","type":"address","internalType":"address"},{"name":"sybilScorerThreshold","type":"uint256","internalType":"uint256"},{"name":"initialAllowlist","type":"address[]","internalType":"address[]"},{"name":"superfluidToken","type":"address","internalType":"address"},{"name":"streamingRatePerSecond","type":"uint256","internalType":"uint256"}]},{"name":"_metadata","type":"tuple","internalType":"struct Metadata","components":[{"name":"protocol","type":"uint256","internalType":"uint256"},{"name":"pointer","type":"string","internalType":"string"}]}],"outputs":[{"name":"poolId","type":"uint256","internalType":"uint256"},{"name":"strategy","type":"address","internalType":"address"}],"stateMutability":"nonpayable"},{"type":"function","name":"createPool","inputs":[{"name":"_token","type":"address","internalType":"address"},{"name":"_params","type":"tuple","internalType":"struct CVStrategyInitializeParamsV0_3","components":[{"name":"cvParams","type":"tuple","internalType":"struct CVParams","components":[{"name":"maxRatio","type":"uint256","internalType":"uint256"},{"name":"weight","type":"uint256","internalType":"uint256"},{"name":"decay","type":"uint256","internalType":"uint256"},{"name":"minThresholdPoints","type":"uint256","internalType":"uint256"}]},{"name":"proposalType","type":"uint8","internalType":"enum ProposalType"},{"name":"pointSystem","type":"uint8","internalType":"enum PointSystem"},{"name":"pointConfig","type":"tuple","internalType":"struct PointSystemConfig","components":[{"name":"maxAmount","type":"uint256","internalType":"uint256"}]},{"name":"arbitrableConfig","type":"tuple","internalType":"struct ArbitrableConfig","components":[{"name":"arbitrator","type":"address","internalType":"contract IArbitrator"},{"name":"tribunalSafe","type":"address","internalType":"address"},{"name":"submitterCollateralAmount","type":"uint256","internalType":"uint256"},{"name":"challengerCollateralAmount","type":"uint256","internalType":"uint256"},{"name":"defaultRuling","type":"uint256","internalType":"uint256"},{"name":"defaultRulingTimeout","type":"uint256","internalType":"uint256"}]},{"name":"registryCommunity","type":"address","internalType":"address"},{"name":"votingPowerRegistry","type":"address","internalType":"address"},{"name":"sybilScorer","type":"address","internalType":"address"},{"name":"sybilScorerThreshold","type":"uint256","internalType":"uint256"},{"name":"initialAllowlist","type":"address[]","internalType":"address[]"},{"name":"superfluidToken","type":"address","internalType":"address"},{"name":"streamingRatePerSecond","type":"uint256","internalType":"uint256"}]},{"name":"_metadata","type":"tuple","internalType":"struct Metadata","components":[{"name":"protocol","type":"uint256","internalType":"uint256"},{"name":"pointer","type":"string","internalType":"string"}]}],"outputs":[{"name":"poolId","type":"uint256","internalType":"uint256"},{"name":"strategy","type":"address","internalType":"address"}],"stateMutability":"nonpayable"},{"type":"function","name":"enabledStrategies","inputs":[{"name":"strategy","type":"address","internalType":"address"}],"outputs":[{"name":"isEnabled","type":"bool","internalType":"bool"}],"stateMutability":"view"},{"type":"function","name":"feeReceiver","inputs":[],"outputs":[{"name":"","type":"address","internalType":"address"}],"stateMutability":"view"},{"type":"function","name":"gardenToken","inputs":[],"outputs":[{"name":"","type":"address","internalType":"contract IERC20"}],"stateMutability":"view"},{"type":"function","name":"getRoleAdmin","inputs":[{"name":"role","type":"bytes32","internalType":"bytes32"}],"outputs":[{"name":"","type":"bytes32","internalType":"bytes32"}],"stateMutability":"view"},{"type":"function","name":"grantRole","inputs":[{"name":"role","type":"bytes32","internalType":"bytes32"},{"name":"account","type":"address","internalType":"address"}],"outputs":[],"stateMutability":"nonpayable"},{"type":"function","name":"hasRole","inputs":[{"name":"role","type":"bytes32","internalType":"bytes32"},{"name":"account","type":"address","internalType":"address"}],"outputs":[{"name":"","type":"bool","internalType":"bool"}],"stateMutability":"view"},{"type":"function","name":"initialize","inputs":[{"name":"initialOwner","type":"address","internalType":"address"}],"outputs":[],"stateMutability":"nonpayable"},{"type":"function","name":"isKickEnabled","inputs":[],"outputs":[{"name":"","type":"bool","internalType":"bool"}],"stateMutability":"view"},{"type":"function","name":"memberActivatedInStrategies","inputs":[{"name":"member","type":"address","internalType":"address"},{"name":"strategy","type":"address","internalType":"address"}],"outputs":[{"name":"isActivated","type":"bool","internalType":"bool"}],"stateMutability":"view"},{"type":"function","name":"memberPowerInStrategy","inputs":[{"name":"strategy","type":"address","internalType":"address"},{"name":"member","type":"address","internalType":"address"}],"outputs":[{"name":"power","type":"uint256","internalType":"uint256"}],"stateMutability":"view"},{"type":"function","name":"owner","inputs":[],"outputs":[{"name":"","type":"address","internalType":"address"}],"stateMutability":"view"},{"type":"function","name":"pendingCouncilSafe","inputs":[],"outputs":[{"name":"","type":"address","internalType":"address payable"}],"stateMutability":"view"},{"type":"function","name":"profileId","inputs":[],"outputs":[{"name":"","type":"bytes32","internalType":"bytes32"}],"stateMutability":"view"},{"type":"function","name":"proxiableUUID","inputs":[],"outputs":[{"name":"","type":"bytes32","internalType":"bytes32"}],"stateMutability":"view"},{"type":"function","name":"proxyOwner","inputs":[],"outputs":[{"name":"","type":"address","internalType":"address"}],"stateMutability":"view"},{"type":"function","name":"registerStakeAmount","inputs":[],"outputs":[{"name":"","type":"uint256","internalType":"uint256"}],"stateMutability":"view"},{"type":"function","name":"registry","inputs":[],"outputs":[{"name":"","type":"address","internalType":"contract IRegistry"}],"stateMutability":"view"},{"type":"function","name":"registryFactory","inputs":[],"outputs":[{"name":"","type":"address","internalType":"address"}],"stateMutability":"view"},{"type":"function","name":"renounceOwnership","inputs":[],"outputs":[],"stateMutability":"nonpayable"},{"type":"function","name":"renounceRole","inputs":[{"name":"role","type":"bytes32","internalType":"bytes32"},{"name":"account","type":"address","internalType":"address"}],"outputs":[],"stateMutability":"nonpayable"},{"type":"function","name":"revokeRole","inputs":[{"name":"role","type":"bytes32","internalType":"bytes32"},{"name":"account","type":"address","internalType":"address"}],"outputs":[],"stateMutability":"nonpayable"},{"type":"function","name":"strategiesByMember","inputs":[{"name":"member","type":"address","internalType":"address"},{"name":"","type":"uint256","internalType":"uint256"}],"outputs":[{"name":"strategiesAddresses","type":"address","internalType":"address"}],"stateMutability":"view"},{"type":"function","name":"strategyTemplate","inputs":[],"outputs":[{"name":"","type":"address","internalType":"address"}],"stateMutability":"view"},{"type":"function","name":"supportsInterface","inputs":[{"name":"interfaceId","type":"bytes4","internalType":"bytes4"}],"outputs":[{"name":"","type":"bool","internalType":"bool"}],"stateMutability":"view"},{"type":"function","name":"totalMembers","inputs":[],"outputs":[{"name":"","type":"uint256","internalType":"uint256"}],"stateMutability":"view"},{"type":"function","name":"transferOwnership","inputs":[{"name":"newOwner","type":"address","internalType":"address"}],"outputs":[],"stateMutability":"nonpayable"},{"type":"function","name":"upgradeTo","inputs":[{"name":"newImplementation","type":"address","internalType":"address"}],"outputs":[],"stateMutability":"nonpayable"},{"type":"function","name":"upgradeToAndCall","inputs":[{"name":"newImplementation","type":"address","internalType":"address"},{"name":"data","type":"bytes","internalType":"bytes"}],"outputs":[],"stateMutability":"payable"},{"type":"event","name":"AdminChanged","inputs":[{"name":"previousAdmin","type":"address","indexed":false,"internalType":"address"},{"name":"newAdmin","type":"address","indexed":false,"internalType":"address"}],"anonymous":false},{"type":"event","name":"BeaconUpgraded","inputs":[{"name":"beacon","type":"address","indexed":true,"internalType":"address"}],"anonymous":false},{"type":"event","name":"Initialized","inputs":[{"name":"version","type":"uint8","indexed":false,"internalType":"uint8"}],"anonymous":false},{"type":"event","name":"OwnershipTransferred","inputs":[{"name":"previousOwner","type":"address","indexed":true,"internalType":"address"},{"name":"newOwner","type":"address","indexed":true,"internalType":"address"}],"anonymous":false},{"type":"event","name":"PoolCreated","inputs":[{"name":"_poolId","type":"uint256","indexed":false,"internalType":"uint256"},{"name":"_strategy","type":"address","indexed":false,"internalType":"address"},{"name":"_community","type":"address","indexed":false,"internalType":"address"},{"name":"_token","type":"address","indexed":false,"internalType":"address"},{"name":"_metadata","type":"tuple","indexed":false,"internalType":"struct Metadata","components":[{"name":"protocol","type":"uint256","internalType":"uint256"},{"name":"pointer","type":"string","internalType":"string"}]}],"anonymous":false},{"type":"event","name":"RegistryInitialized","inputs":[{"name":"_profileId","type":"bytes32","indexed":false,"internalType":"bytes32"},{"name":"_communityName","type":"string","indexed":false,"internalType":"string"},{"name":"_metadata","type":"tuple","indexed":false,"internalType":"struct Metadata","components":[{"name":"protocol","type":"uint256","internalType":"uint256"},{"name":"pointer","type":"string","internalType":"string"}]}],"anonymous":false},{"type":"event","name":"RoleAdminChanged","inputs":[{"name":"role","type":"bytes32","indexed":true,"internalType":"bytes32"},{"name":"previousAdminRole","type":"bytes32","indexed":true,"internalType":"bytes32"},{"name":"newAdminRole","type":"bytes32","indexed":true,"internalType":"bytes32"}],"anonymous":false},{"type":"event","name":"RoleGranted","inputs":[{"name":"role","type":"bytes32","indexed":true,"internalType":"bytes32"},{"name":"account","type":"address","indexed":true,"internalType":"address"},{"name":"sender","type":"address","indexed":true,"internalType":"address"}],"anonymous":false},{"type":"event","name":"RoleRevoked","inputs":[{"name":"role","type":"bytes32","indexed":true,"internalType":"bytes32"},{"name":"account","type":"address","indexed":true,"internalType":"address"},{"name":"sender","type":"address","indexed":true,"internalType":"address"}],"anonymous":false},{"type":"event","name":"Upgraded","inputs":[{"name":"implementation","type":"address","indexed":true,"internalType":"address"}],"anonymous":false},{"type":"error","name":"AllowlistTooBig","inputs":[{"name":"size","type":"uint256","internalType":"uint256"}]},{"type":"error","name":"CallerNotOwner","inputs":[{"name":"_caller","type":"address","internalType":"address"},{"name":"_owner","type":"address","internalType":"address"}]},{"type":"error","name":"CommunityPaused","inputs":[{"name":"controller","type":"address","internalType":"address"}]},{"type":"error","name":"CommunitySelectorPaused","inputs":[{"name":"selector","type":"bytes4","internalType":"bytes4"},{"name":"controller","type":"address","internalType":"address"}]},{"type":"error","name":"ValueCannotBeZero","inputs":[]}],"bytecode":{"object":"0x60a06040523060805234801562000014575f80fd5b506200001f62000025565b620000e3565b5f54610100900460ff1615620000915760405162461bcd60e51b815260206004820152602760248201527f496e697469616c697a61626c653a20636f6e747261637420697320696e697469604482015266616c697a696e6760c81b606482015260840160405180910390fd5b5f5460ff90811614620000e1575f805460ff191660ff9081179091556040519081527f7f26b83ff96e1f2b6a682f133852f6798a09c465da95921460cefb38474024989060200160405180910390a15b565b60805161330e620001185f395f8181610a0201528181610a4501528181610ad501528181610b180152610b98015261330e5ff3fe6080604052600436106200022f575f3560e01c806301ffc9a71462000233578063025313a2146200026c57806308386eba14620002925780631f787d2814620002b8578063248a9ca314620002d25780632b38c69c14620002f65780632f2ff15d146200031a57806333960459146200034057806336568abe14620003575780633659cfe6146200037b5780633a871fe1146200039f578063477a5cc014620003d25780634ef9119f14620004105780634f1ef286146200042657806352d1902d146200043d5780635c94e4d2146200045457806365e3864c146200047657806368decabb14620004b15780636c53db9a14620004d3578063715018a614620004f5578063733a2d1f146200050c57806376e92559146200054157806377122d56146200055957806378a0b8a9146200057b5780637b103999146200059257806382b18ef414620005b457806388cfe68414620005f65780638961be6b146200066a5780638da5cb5b146200068157806391d148541462000698578063a0cf0aea14620006bc578063a217fddf14620006e5578063b3f0067414620006fa578063b64e39af1462000720578063bc063e1a1462000746578063c4d66de8146200075d578063c6d572ae1462000781578063ce7e2cd31462000798578063d547741f14620007bc578063d6d8428d14620007e0578063d7050f071462000802578063db61d65c1462000819578063f2fde38b146200083b578063f86c5f89146200085f578063ffa1ad741462000881575b5f80fd5b3480156200023f575f80fd5b50620002576200025136600462001e39565b620008b1565b60405190151581526020015b60405180910390f35b34801562000278575f80fd5b5062000283620008e8565b60405162000263919062001e64565b3480156200029e575f80fd5b50620002a960fe5481565b60405190815260200162000263565b348015620002c4575f80fd5b5060ff805462000257911681565b348015620002de575f80fd5b50620002a9620002f036600462001e78565b62000901565b34801562000302575f80fd5b50620002836200031436600462001eb2565b62000915565b34801562000326575f80fd5b506200033e6200033836600462001edf565b6200094b565b005b3480156200034c575f80fd5b50620002a960fd5481565b34801562000363575f80fd5b506200033e6200037536600462001edf565b62000972565b34801562000387575f80fd5b506200033e6200039936600462001f10565b620009f8565b348015620003ab575f80fd5b5062000257620003bd36600462001f10565b61010a6020525f908152604090205460ff1681565b348015620003de575f80fd5b5062000257620003f036600462001f2e565b61010e60209081525f928352604080842090915290825290205460ff1681565b3480156200041c575f80fd5b50620002a9604081565b6200033e6200043736600462002060565b62000acb565b34801562000449575f80fd5b50620002a962000b8c565b34801562000460575f80fd5b506101025462000283906001600160a01b031681565b34801562000482575f80fd5b50620002a96200049436600462001f2e565b61010b60209081525f928352604080842090915290825290205481565b348015620004bd575f80fd5b506101035462000283906001600160a01b031681565b348015620004df575f80fd5b506101065462000283906001600160a01b031681565b34801562000501575f80fd5b506200033e62000c3b565b34801562000518575f80fd5b50620002a97f03be538b6391ddcd7f2649585cc95b120c9e2a613f70714fbb55345057d809fa81565b3480156200054d575f80fd5b50620002a96101105481565b34801562000565575f80fd5b506101015462000283906001600160a01b031681565b34801562000587575f80fd5b50620002a960fb5481565b3480156200059e575f80fd5b506101045462000283906001600160a01b031681565b348015620005c0575f80fd5b50620005d8620005d23660046200245b565b62000c52565b604080519283526001600160a01b0390911660208301520162000263565b34801562000602575f80fd5b50620006426200061436600462001f10565b61010c6020525f90815260409020805460018201546002909201546001600160a01b03909116919060ff1683565b604080516001600160a01b039094168452602084019290925215159082015260600162000263565b34801562000676575f80fd5b50620002a960fc5481565b3480156200068d575f80fd5b506200028362000d77565b348015620006a4575f80fd5b5062000257620006b636600462001edf565b62000e17565b348015620006c8575f80fd5b506200028373eeeeeeeeeeeeeeeeeeeeeeeeeeeeeeeeeeeeeeee81565b348015620006f1575f80fd5b50620002a95f81565b34801562000706575f80fd5b5060ff54620002839061010090046001600160a01b031681565b3480156200072c575f80fd5b506200073762000e41565b6040516200026391906200253a565b34801562000752575f80fd5b50620002a962000ed6565b34801562000769575f80fd5b506200033e6200077b36600462001f10565b62000ee8565b3480156200078d575f80fd5b506200073762001006565b348015620007a4575f80fd5b50620005d8620007b63660046200254e565b62001016565b348015620007c8575f80fd5b506200033e620007da36600462001edf565b6200129f565b348015620007ec575f80fd5b506101075462000283906001600160a01b031681565b3480156200080e575f80fd5b50620002a961271081565b34801562000825575f80fd5b506101055462000283906001600160a01b031681565b34801562000847575f80fd5b506200033e6200085936600462001f10565b620012c1565b3480156200086b575f80fd5b506101005462000283906001600160a01b031681565b3480156200088d575f80fd5b5062000737604051806040016040528060038152602001620302e360ec1b81525081565b5f6001600160e01b03198216637965db0b60e01b1480620008e257506301ffc9a760e01b6001600160e01b03198316145b92915050565b5f620008fc6033546001600160a01b031690565b905090565b5f90815260c9602052604090206001015490565b61010d602052815f5260405f20818154811062000930575f80fd5b5f918252602090912001546001600160a01b03169150829050565b620009568262000901565b62000961816200133d565b6200096d838362001349565b505050565b6001600160a01b0381163314620009e85760405162461bcd60e51b815260206004820152602f60248201527f416363657373436f6e74726f6c3a2063616e206f6e6c792072656e6f756e636560448201526e103937b632b9903337b91039b2b63360891b60648201526084015b60405180910390fd5b620009f48282620013d2565b5050565b6001600160a01b037f000000000000000000000000000000000000000000000000000000000000000016300362000a435760405162461bcd60e51b8152600401620009df90620025c7565b7f00000000000000000000000000000000000000000000000000000000000000006001600160a01b031662000a776200143b565b6001600160a01b03161462000aa05760405162461bcd60e51b8152600401620009df9062002601565b62000aab8162001457565b604080515f8082526020820190925262000ac891839190620014a9565b50565b6001600160a01b037f000000000000000000000000000000000000000000000000000000000000000016300362000b165760405162461bcd60e51b8152600401620009df90620025c7565b7f00000000000000000000000000000000000000000000000000000000000000006001600160a01b031662000b4a6200143b565b6001600160a01b03161462000b735760405162461bcd60e51b8152600401620009df9062002601565b62000b7e8262001457565b620009f482826001620014a9565b5f306001600160a01b037f0000000000000000000000000000000000000000000000000000000000000000161462000c285760405162461bcd60e51b815260206004820152603860248201527f555550535570677261646561626c653a206d757374206e6f742062652063616c6044820152771b1959081d1a1c9bdd59da0819195b1959d85d1958d85b1b60421b6064820152608401620009df565b505f80516020620032bb83398151915290565b62000c4562001620565b62000c505f62001683565b565b5f8073eeeeeeeeeeeeeeeeeeeeeeeeeeeeeeeeeeeeeeee6001600160a01b0386161562000c7c5750845b6101075460fe546040518994506001600160a01b039092169163e1007d4a9190859062000cae908a90602001620026be565b604051602081830303815290604052855f8a61010f6040518863ffffffff1660e01b815260040162000ce7979695949392919062002839565b6020604051808303815f875af115801562000d04573d5f803e3d5ffd5b505050506040513d601f19601f8201168201806040525081019062000d2a9190620028d6565b92507f778cac0ae0b66477341553a4a89398c61ccf448313d3354ad0ca85a5a825d283838330898860405162000d65959493929190620028ee565b60405180910390a15094509492505050565b5f62000d82620008e8565b6001600160a01b03163b5f0362000d9d57620008fc620008e8565b62000da7620008e8565b6001600160a01b0316638da5cb5b6040518163ffffffff1660e01b8152600401602060405180830381865afa92505050801562000e03575060408051601f3d908101601f1916820190925262000e009181019062002941565b60015b62000e1257620008fc620008e8565b919050565b5f91825260c9602090815260408084206001600160a01b0393909316845291905290205460ff1690565b610109805462000e51906200295f565b80601f016020809104026020016040519081016040528092919081815260200182805462000e7f906200295f565b801562000ece5780601f1062000ea45761010080835404028352916020019162000ece565b820191905f5260205f20905b81548152906001019060200180831162000eb057829003601f168201915b505050505081565b62000ee5612710600a620029ad565b81565b5f54610100900460ff161580801562000f0757505f54600160ff909116105b8062000f2b575062000f1930620016d4565b15801562000f2b57505f5460ff166001145b62000f905760405162461bcd60e51b815260206004820152602e60248201527f496e697469616c697a61626c653a20636f6e747261637420697320616c72656160448201526d191e481a5b9a5d1a585b1a5e995960921b6064820152608401620009df565b5f805460ff19166001179055801562000fb2575f805461ff0019166101001790555b62000fbd8262001683565b8015620009f4575f805461ff0019169055604051600181527f7f26b83ff96e1f2b6a682f133852f6798a09c465da95921460cefb38474024989060200160405180910390a15050565b610108805462000e51906200295f565b5f805f6101005f9054906101000a90046001600160a01b03166001600160a01b0316635c94e4d26040518163ffffffff1660e01b8152600401602060405180830381865afa1580156200106b573d5f803e3d5ffd5b505050506040513d601f19601f8201168201806040525081019062001091919062002941565b6101075461010154604080516001600160a01b0393841660248201529290911660448301523060648084019190915281518084039091018152608490920181526020820180516001600160e01b031663184b955960e01b179052519192505f91839190620010ff9062001e15565b6200110c929190620029c7565b604051809103905ff08015801562001126573d5f803e3d5ffd5b5090506200113481620016e3565b620011428188888862000c52565b60e088015191955093506001600160a01b031662001205576127108661012001515111156200118f578561012001515160405163107b111560e31b8152600401620009df91815260200190565b5f84604051602001620011a39190620029ec565b6040516020818303038152906040528051906020012090505f5b876101200151518110156200120257620011f9828961012001518381518110620011eb57620011eb62002a09565b602002602001015162001349565b600101620011bd565b50505b62001261846040516020016200121c9190620029ec565b604051602081830303815290604052805190602001208560405160200162001245919062002a1d565b6040516020818303038152906040528051906020012062001932565b620012958460405160200162001278919062002a1d565b604051602081830303815290604052805190602001208462001349565b5050935093915050565b620012aa8262000901565b620012b5816200133d565b6200096d8383620013d2565b620012cb62001620565b6001600160a01b038116620013325760405162461bcd60e51b815260206004820152602660248201527f4f776e61626c653a206e6577206f776e657220697320746865207a65726f206160448201526564647265737360d01b6064820152608401620009df565b62000ac88162001683565b62000ac8813362001985565b62001355828262000e17565b620009f4575f82815260c9602090815260408083206001600160a01b03851684529091529020805460ff191660011790556200138e3390565b6001600160a01b0316816001600160a01b0316837f2f8788117e7eff1d82e926ec794901d17c78024a50270940304540a733656f0d60405160405180910390a45050565b620013de828262000e17565b15620009f4575f82815260c9602090815260408083206001600160a01b0385168085529252808320805460ff1916905551339285917ff6391f5c32d9c69d2a47ea670b442974b53935d1edc7fd64eb21e047a839171b9190a45050565b5f80516020620032bb833981519152546001600160a01b031690565b336200146262000d77565b6001600160a01b03161462000ac857336200147c62000d77565b60405163163678e960e01b81526001600160a01b03928316600482015291166024820152604401620009df565b7f4910fdfa16fed3260ed0e7147f7cc6da11a60208b5b9406d12a635614ffd91435460ff1615620014df576200096d83620019e9565b826001600160a01b03166352d1902d6040518163ffffffff1660e01b8152600401602060405180830381865afa9250505080156200153c575060408051601f3d908101601f191682019092526200153991810190620028d6565b60015b620015a15760405162461bcd60e51b815260206004820152602e60248201527f45524331393637557067726164653a206e657720696d706c656d656e7461746960448201526d6f6e206973206e6f74205555505360901b6064820152608401620009df565b5f80516020620032bb8339815191528114620016125760405162461bcd60e51b815260206004820152602960248201527f45524331393637557067726164653a20756e737570706f727465642070726f786044820152681a58589b195555525160ba1b6064820152608401620009df565b506200096d83838362001a87565b336200162b62000d77565b6001600160a01b03161462000c505760405162461bcd60e51b815260206004820181905260248201527f4f776e61626c653a2063616c6c6572206973206e6f7420746865206f776e65726044820152606401620009df565b603380546001600160a01b038381166001600160a01b0319831681179093556040519116919082907f8be0079c531659141344cd1fd0a4f28419497f9722a3daafe3b4186f6b6457e0905f90a35050565b6001600160a01b03163b151590565b5f805f6101005f9054906101000a90046001600160a01b03166001600160a01b03166352a0c2036040518163ffffffff1660e01b81526004015f60405180830381865afa15801562001737573d5f803e3d5ffd5b505050506040513d5f823e601f3d908101601f1916820160405262001760919081019062002a89565b9250925092505f835111806200177e57506001600160a01b03821615155b15620017e6576040516307e4c70760e21b81526001600160a01b03851690631f931c1c90620017b69086908690869060040162002c3b565b5f604051808303815f87803b158015620017ce575f80fd5b505af1158015620017e1573d5f803e3d5ffd5b505050505b6101005460408051638c68f2a960e01b815290515f926001600160a01b031691638c68f2a99160048083019260209291908290030181865afa1580156200182f573d5f803e3d5ffd5b505050506040513d601f19601f8201168201806040525081019062001855919062002941565b90506001600160a01b03811615620018c557604051631add1a0d60e01b81526001600160a01b03861690631add1a0d906200189590849060040162001e64565b5f604051808303815f87803b158015620018ad575f80fd5b505af1158015620018c0573d5f803e3d5ffd5b505050505b846001600160a01b031663f2fde38b620018de620008e8565b6040518263ffffffff1660e01b8152600401620018fc919062001e64565b5f604051808303815f87803b15801562001914575f80fd5b505af115801562001927573d5f803e3d5ffd5b505050505050505050565b5f6200193e8362000901565b5f84815260c96020526040808220600101859055519192508391839186917fbd79b86ffe0ab8e8776151514217cd7cacd52c909f66475c3af44e129f0b00ff9190a4505050565b62001991828262000e17565b620009f457620019a18162001ab7565b620019ae83602062001aca565b604051602001620019c192919062002d37565b60408051601f198184030181529082905262461bcd60e51b8252620009df916004016200253a565b620019f481620016d4565b62001a585760405162461bcd60e51b815260206004820152602d60248201527f455243313936373a206e657720696d706c656d656e746174696f6e206973206e60448201526c1bdd08184818dbdb9d1c9858dd609a1b6064820152608401620009df565b5f80516020620032bb83398151915280546001600160a01b0319166001600160a01b0392909216919091179055565b62001a928362001c84565b5f8251118062001a9f5750805b156200096d5762001ab1838362001cc5565b50505050565b6060620008e26001600160a01b03831660145b60605f62001ada836002620029ad565b62001ae790600262002da9565b6001600160401b0381111562001b015762001b0162001f5f565b6040519080825280601f01601f19166020018201604052801562001b2c576020820181803683370190505b509050600360fc1b815f8151811062001b495762001b4962002a09565b60200101906001600160f81b03191690815f1a905350600f60fb1b8160018151811062001b7a5762001b7a62002a09565b60200101906001600160f81b03191690815f1a9053505f62001b9e846002620029ad565b62001bab90600162002da9565b90505b600181111562001c2c576f181899199a1a9b1b9c1cb0b131b232b360811b85600f166010811062001be35762001be362002a09565b1a60f81b82828151811062001bfc5762001bfc62002a09565b60200101906001600160f81b03191690815f1a90535060049490941c9362001c248162002dbf565b905062001bae565b50831562001c7d5760405162461bcd60e51b815260206004820181905260248201527f537472696e67733a20686578206c656e67746820696e73756666696369656e746044820152606401620009df565b9392505050565b62001c8f81620019e9565b6040516001600160a01b038216907fbc7cd75a20ee27fd9adebab32041f755214dbc6bffa90cc0225b39da2e5c2d3b905f90a250565b606062001c7d8383604051806060016040528060278152602001620032db6027913960605f80856001600160a01b03168560405162001d05919062002dd7565b5f60405180830381855af49150503d805f811462001d3f576040519150601f19603f3d011682016040523d82523d5f602084013e62001d44565b606091505b509150915062001d578683838762001d61565b9695505050505050565b6060831562001dd45782515f0362001dcc5762001d7e85620016d4565b62001dcc5760405162461bcd60e51b815260206004820152601d60248201527f416464726573733a2063616c6c20746f206e6f6e2d636f6e74726163740000006044820152606401620009df565b508162001de0565b62001de0838362001de8565b949350505050565b81511562001df95781518083602001fd5b8060405162461bcd60e51b8152600401620009df91906200253a565b6104a68062002df583390190565b6001600160e01b03198116811462000ac8575f80fd5b5f6020828403121562001e4a575f80fd5b813562001c7d8162001e23565b6001600160a01b03169052565b6001600160a01b0391909116815260200190565b5f6020828403121562001e89575f80fd5b5035919050565b6001600160a01b038116811462000ac8575f80fd5b803562000e128162001e90565b5f806040838503121562001ec4575f80fd5b823562001ed18162001e90565b946020939093013593505050565b5f806040838503121562001ef1575f80fd5b82359150602083013562001f058162001e90565b809150509250929050565b5f6020828403121562001f21575f80fd5b813562001c7d8162001e90565b5f806040838503121562001f40575f80fd5b823562001f4d8162001e90565b9150602083013562001f058162001e90565b634e487b7160e01b5f52604160045260245ffd5b60405161018081016001600160401b038111828210171562001f995762001f9962001f5f565b60405290565b604051606081016001600160401b038111828210171562001f995762001f9962001f5f565b604051601f8201601f191681016001600160401b038111828210171562001fef5762001fef62001f5f565b604052919050565b5f6001600160401b0382111562002012576200201262001f5f565b50601f01601f191660200190565b5f62002036620020308462001ff7565b62001fc4565b90508281528383830111156200204a575f80fd5b828260208301375f602084830101529392505050565b5f806040838503121562002072575f80fd5b82356200207f8162001e90565b915060208301356001600160401b038111156200209a575f80fd5b8301601f81018513620020ab575f80fd5b620020bc8582356020840162002020565b9150509250929050565b5f60808284031215620020d7575f80fd5b604051608081016001600160401b0381118282101715620020fc57620020fc62001f5f565b8060405250809150823581526020830135602082015260408301356040820152606083013560608201525092915050565b80356003811062000e12575f80fd5b80356005811062000e12575f80fd5b5f602082840312156200215c575f80fd5b604051602081016001600160401b038111828210171562002181576200218162001f5f565b6040529135825250919050565b5f60c082840312156200219f575f80fd5b60405160c081016001600160401b0381118282101715620021c457620021c462001f5f565b6040529050808235620021d78162001e90565b81526020830135620021e98162001e90565b8060208301525060408301356040820152606083013560608201526080830135608082015260a083013560a08201525092915050565b5f6001600160401b038211156200223a576200223a62001f5f565b5060051b60200190565b5f82601f83011262002254575f80fd5b813560206200226762002030836200221f565b8083825260208201915060208460051b87010193508684111562002289575f80fd5b602086015b84811015620022b2578035620022a48162001e90565b83529183019183016200228e565b509695505050505050565b5f6102808284031215620022cf575f80fd5b620022d962001f73565b9050620022e78383620020c6565b8152620022f7608083016200212d565b60208201526200230a60a083016200213c565b60408201526200231e8360c084016200214b565b6060820152620023328360e084016200218e565b6080820152620023466101a0830162001ea5565b60a08201526200235a6101c0830162001ea5565b60c08201526200236e6101e0830162001ea5565b60e08201526102008201356101008201526102208201356001600160401b0381111562002399575f80fd5b620023a78482850162002244565b61012083015250620023bd610240830162001ea5565b61014082015261026082013561016082015292915050565b5f60408284031215620023e6575f80fd5b604080519081016001600160401b0380821183831017156200240c576200240c62001f5f565b816040528293508435835260208501359150808211156200242b575f80fd5b508301601f810185136200243d575f80fd5b6200244e8582356020840162002020565b6020830152505092915050565b5f805f80608085870312156200246f575f80fd5b84356200247c8162001e90565b935060208501356200248e8162001e90565b925060408501356001600160401b0380821115620024aa575f80fd5b620024b888838901620022bd565b93506060870135915080821115620024ce575f80fd5b50620024dd87828801620023d5565b91505092959194509250565b5f5b8381101562002505578181015183820152602001620024eb565b50505f910152565b5f815180845262002526816020860160208601620024e9565b601f01601f19169290920160200192915050565b602081525f62001c7d60208301846200250d565b5f805f6060848603121562002561575f80fd5b83356200256e8162001e90565b925060208401356001600160401b03808211156200258a575f80fd5b6200259887838801620022bd565b93506040860135915080821115620025ae575f80fd5b50620025bd86828701620023d5565b9150509250925092565b6020808252602c908201525f805160206200329b83398151915260408201526b19195b1959d85d1958d85b1b60a21b606082015260800190565b6020808252602c908201525f805160206200329b83398151915260408201526b6163746976652070726f787960a01b606082015260800190565b634e487b7160e01b5f52602160045260245ffd5b600381106200266257620026626200263b565b9052565b600581106200266257620026626200263b565b5f815180845260208085019450602084015f5b83811015620026b35781516001600160a01b0316875295820195908201906001016200268c565b509495945050505050565b60208152620026f2602082018351805182526020810151602083015260408101516040830152606081015160608301525050565b5f60208301516200270760a08401826200264f565b5060408301516200271c60c084018262002666565b506060838101515160e084015260808085015180516001600160a01b039081166101008088019190915260208301519091166101208701526040820151610140870152928101516101608601529081015161018085015260a0908101516101a085015284015190620027936101c085018362001e57565b60c08501519150620027aa6101e085018362001e57565b60e08501519150620027c161020085018362001e57565b840151610220840152506101208301516102806102408401819052620027ec6102a085018362002679565b91506101408501516200280461026086018262001e57565b50610160949094015192909301919091525090565b805182525f60208201516040602085015262001de060408501826200250d565b8781525f602060018060a01b03808a16602085015260e060408501526200286460e085018a6200250d565b818916606086015287608086015284810360a086015262002886818862002819565b85810360c087015286548082525f88815260208082209450909201915b81811015620028c3578354851683526001938401939286019201620028a3565b50909d9c50505050505050505050505050565b5f60208284031215620028e7575f80fd5b5051919050565b8581526001600160a01b03858116602083015284811660408301528316606082015260a0608082018190525f90620029299083018462002819565b979650505050505050565b805162000e128162001e90565b5f6020828403121562002952575f80fd5b815162001c7d8162001e90565b600181811c908216806200297457607f821691505b6020821081036200299357634e487b7160e01b5f52602260045260245ffd5b50919050565b634e487b7160e01b5f52601160045260245ffd5b8082028115828204841417620008e257620008e262002999565b6001600160a01b03831681526040602082018190525f9062001de0908301846200250d565b6810531313d5d31254d560ba1b8152600981019190915260290190565b634e487b7160e01b5f52603260045260245ffd5b6e20a62627aba624a9aa2fa0a226a4a760891b8152600f810191909152602f0190565b5f82601f83011262002a50575f80fd5b815162002a61620020308262001ff7565b81815284602083860101111562002a76575f80fd5b62001de0826020830160208701620024e9565b5f805f6060848603121562002a9c575f80fd5b83516001600160401b038082111562002ab3575f80fd5b818601915086601f83011262002ac7575f80fd5b815162002ad862002030826200221f565b8082825260208201915060208360051b86010192508983111562002afa575f80fd5b602085015b8381101562002c025780518581111562002b17575f80fd5b86016060818d03601f1901121562002b2d575f80fd5b62002b3762001f9f565b602082015162002b478162001e90565b815260408201516004811062002b5b575f80fd5b602082015260608201518781111562002b72575f80fd5b8083019250508c603f83011262002b87575f80fd5b602082015162002b9b62002030826200221f565b81815260059190911b83016040019060208101908f83111562002bbc575f80fd5b6040850194505b8285101562002beb57845162002bd98162001e23565b82526020948501949091019062002bc3565b604084015250508452506020928301920162002aff565b50965062002c169150506020870162002934565b9350604086015191508082111562002c2c575f80fd5b50620025bd8682870162002a40565b5f6060808301606084528087518083526080925060808601915060808160051b8701016020808b015f5b8481101562002d0457898403607f19018652815180516001600160a01b0316855283810151898601906004811062002ca15762002ca16200263b565b868601526040918201519186018a9052815190819052908401905f90898701905b8083101562002cee5783516001600160e01b031916825292860192600192909201919086019062002cc2565b5097850197955050509082019060010162002c65565b505062002d148189018b62001e57565b50868103604088015262002d2981896200250d565b9a9950505050505050505050565b76020b1b1b2b9b9a1b7b73a3937b61d1030b1b1b7bab73a1604d1b81525f835162002d6a816017850160208801620024e9565b7001034b99036b4b9b9b4b733903937b6329607d1b601791840191820152835162002d9d816028840160208801620024e9565b01602801949350505050565b80820180821115620008e257620008e262002999565b5f8162002dd05762002dd062002999565b505f190190565b5f825162002dea818460208701620024e9565b919091019291505056fe60806040526040516104a63803806104a6833981016040819052610022916102dd565b61002d82825f610034565b50506103f2565b61003d8361005f565b5f825111806100495750805b1561005a57610058838361009e565b505b505050565b610068816100ca565b6040516001600160a01b038216907fbc7cd75a20ee27fd9adebab32041f755214dbc6bffa90cc0225b39da2e5c2d3b905f90a250565b60606100c3838360405180606001604052806027815260200161047f6027913961017b565b9392505050565b6100d3816101f0565b61013a5760405162461bcd60e51b815260206004820152602d60248201527f455243313936373a206e657720696d706c656d656e746174696f6e206973206e60448201526c1bdd08184818dbdb9d1c9858dd609a1b60648201526084015b60405180910390fd5b7f360894a13ba1a3210667c828492db98dca3e2076cc3735a920a3ca505d382bbc80546001600160a01b0319166001600160a01b0392909216919091179055565b60605f80856001600160a01b03168560405161019791906103a5565b5f60405180830381855af49150503d805f81146101cf576040519150601f19603f3d011682016040523d82523d5f602084013e6101d4565b606091505b5090925090506101e6868383876101ff565b9695505050505050565b6001600160a01b03163b151590565b6060831561026b5782515f0361026457610218856101f0565b6102645760405162461bcd60e51b815260206004820152601d60248201527f416464726573733a2063616c6c20746f206e6f6e2d636f6e74726163740000006044820152606401610131565b5081610275565b610275838361027d565b949350505050565b81511561028d5781518083602001fd5b8060405162461bcd60e51b815260040161013191906103c0565b634e487b7160e01b5f52604160045260245ffd5b5f5b838110156102d55781810151838201526020016102bd565b50505f910152565b5f80604083850312156102ee575f80fd5b82516001600160a01b0381168114610304575f80fd5b60208401519092506001600160401b0380821115610320575f80fd5b818501915085601f830112610333575f80fd5b815181811115610345576103456102a7565b604051601f8201601f19908116603f0116810190838211818310171561036d5761036d6102a7565b81604052828152886020848701011115610385575f80fd5b6103968360208301602088016102bb565b80955050505050509250929050565b5f82516103b68184602087016102bb565b9190910192915050565b602081525f82518060208401526103de8160408501602087016102bb565b601f01601f19169190910160400192915050565b6081806103fe5f395ff3fe608060405236601057600e6013565b005b600e5b601f601b6021565b6057565b565b5f60527f360894a13ba1a3210667c828492db98dca3e2076cc3735a920a3ca505d382bbc546001600160a01b031690565b905090565b365f80375f80365f845af43d5f803e8080156070573d5ff35b3d5ffdfea164736f6c6343000817000a416464726573733a206c6f772d6c6576656c2064656c65676174652063616c6c206661696c656446756e6374696f6e206d7573742062652063616c6c6564207468726f75676820360894a13ba1a3210667c828492db98dca3e2076cc3735a920a3ca505d382bbc416464726573733a206c6f772d6c6576656c2064656c65676174652063616c6c206661696c6564a164736f6c6343000817000a","linkReferences":{}},"methodIdentifiers":{"COUNCIL_MEMBER()":"733a2d1f","DEFAULT_ADMIN_ROLE()":"a217fddf","MAX_FEE()":"bc063e1a","MAX_STRATEGIES_PER_MEMBER()":"4ef9119f","NATIVE()":"a0cf0aea","PRECISION_SCALE()":"d7050f07","VERSION()":"ffa1ad74","addressToMemberInfo(address)":"88cfe684","allo()":"d6d8428d","cloneNonce()":"33960459","collateralVaultTemplate()":"77122d56","communityFee()":"8961be6b","communityName()":"c6d572ae","councilSafe()":"6c53db9a","covenantIpfsHash()":"b64e39af","createPool(address,((uint256,uint256,uint256,uint256),uint8,uint8,(uint256),(address,address,uint256,uint256,uint256,uint256),address,address,address,uint256,address[],address,uint256),(uint256,string))":"ce7e2cd3","createPool(address,address,((uint256,uint256,uint256,uint256),uint8,uint8,(uint256),(address,address,uint256,uint256,uint256,uint256),address,address,address,uint256,address[],address,uint256),(uint256,string))":"82b18ef4","enabledStrategies(address)":"3a871fe1","feeReceiver()":"b3f00674","gardenToken()":"db61d65c","getRoleAdmin(bytes32)":"248a9ca3","grantRole(bytes32,address)":"2f2ff15d","hasRole(bytes32,address)":"91d14854","initialize(address)":"c4d66de8","isKickEnabled()":"1f787d28","memberActivatedInStrategies(address,address)":"477a5cc0","memberPowerInStrategy(address,address)":"65e3864c","owner()":"8da5cb5b","pendingCouncilSafe()":"68decabb","profileId()":"08386eba","proxiableUUID()":"52d1902d","proxyOwner()":"025313a2","registerStakeAmount()":"78a0b8a9","registry()":"7b103999","registryFactory()":"f86c5f89","renounceOwnership()":"715018a6","renounceRole(bytes32,address)":"36568abe","revokeRole(bytes32,address)":"d547741f","strategiesByMember(address,uint256)":"2b38c69c","strategyTemplate()":"5c94e4d2","supportsInterface(bytes4)":"01ffc9a7","totalMembers()":"76e92559","transferOwnership(address)":"f2fde38b","upgradeTo(address)":"3659cfe6","upgradeToAndCall(address,bytes)":"4f1ef286"},"storageLayout":{"storage":[{"astId":48977,"contract":"pkg/contracts/src/RegistryCommunity/facets/CommunityPoolFacet.sol:CommunityPoolFacet","label":"_initialized","offset":0,"slot":"0","type":"t_uint8"},{"astId":48980,"contract":"pkg/contracts/src/RegistryCommunity/facets/CommunityPoolFacet.sol:CommunityPoolFacet","label":"_initializing","offset":1,"slot":"0","type":"t_bool"},{"astId":49604,"contract":"pkg/contracts/src/RegistryCommunity/facets/CommunityPoolFacet.sol:CommunityPoolFacet","label":"__gap","offset":0,"slot":"1","type":"t_array(t_uint256)50_storage"},{"astId":48769,"contract":"pkg/contracts/src/RegistryCommunity/facets/CommunityPoolFacet.sol:CommunityPoolFacet","label":"_owner","offset":0,"slot":"51","type":"t_address"},{"astId":48889,"contract":"pkg/contracts/src/RegistryCommunity/facets/CommunityPoolFacet.sol:CommunityPoolFacet","label":"__gap","offset":0,"slot":"52","type":"t_array(t_uint256)49_storage"},{"astId":49154,"contract":"pkg/contracts/src/RegistryCommunity/facets/CommunityPoolFacet.sol:CommunityPoolFacet","label":"_status","offset":0,"slot":"101","type":"t_uint256"},{"astId":49223,"contract":"pkg/contracts/src/RegistryCommunity/facets/CommunityPoolFacet.sol:CommunityPoolFacet","label":"__gap","offset":0,"slot":"102","type":"t_array(t_uint256)49_storage"},{"astId":49878,"contract":"pkg/contracts/src/RegistryCommunity/facets/CommunityPoolFacet.sol:CommunityPoolFacet","label":"__gap","offset":0,"slot":"151","type":"t_array(t_uint256)50_storage"},{"astId":48376,"contract":"pkg/contracts/src/RegistryCommunity/facets/CommunityPoolFacet.sol:CommunityPoolFacet","label":"_roles","offset":0,"slot":"201","type":"t_mapping(t_bytes32,t_struct(RoleData)48371_storage)"},{"astId":48683,"contract":"pkg/contracts/src/RegistryCommunity/facets/CommunityPoolFacet.sol:CommunityPoolFacet","label":"__gap","offset":0,"slot":"202","type":"t_array(t_uint256)49_storage"},{"astId":97466,"contract":"pkg/contracts/src/RegistryCommunity/facets/CommunityPoolFacet.sol:CommunityPoolFacet","label":"registerStakeAmount","offset":0,"slot":"251","type":"t_uint256"},{"astId":97469,"contract":"pkg/contracts/src/RegistryCommunity/facets/CommunityPoolFacet.sol:CommunityPoolFacet","label":"communityFee","offset":0,"slot":"252","type":"t_uint256"},{"astId":97472,"contract":"pkg/contracts/src/RegistryCommunity/facets/CommunityPoolFacet.sol:CommunityPoolFacet","label":"cloneNonce","offset":0,"slot":"253","type":"t_uint256"},{"astId":97475,"contract":"pkg/contracts/src/RegistryCommunity/facets/CommunityPoolFacet.sol:CommunityPoolFacet","label":"profileId","offset":0,"slot":"254","type":"t_bytes32"},{"astId":97478,"contract":"pkg/contracts/src/RegistryCommunity/facets/CommunityPoolFacet.sol:CommunityPoolFacet","label":"isKickEnabled","offset":0,"slot":"255","type":"t_bool"},{"astId":97481,"contract":"pkg/contracts/src/RegistryCommunity/facets/CommunityPoolFacet.sol:CommunityPoolFacet","label":"feeReceiver","offset":1,"slot":"255","type":"t_address"},{"astId":97484,"contract":"pkg/contracts/src/RegistryCommunity/facets/CommunityPoolFacet.sol:CommunityPoolFacet","label":"registryFactory","offset":0,"slot":"256","type":"t_address"},{"astId":97487,"contract":"pkg/contracts/src/RegistryCommunity/facets/CommunityPoolFacet.sol:CommunityPoolFacet","label":"collateralVaultTemplate","offset":0,"slot":"257","type":"t_address"},{"astId":97490,"contract":"pkg/contracts/src/RegistryCommunity/facets/CommunityPoolFacet.sol:CommunityPoolFacet","label":"strategyTemplate","offset":0,"slot":"258","type":"t_address"},{"astId":97493,"contract":"pkg/contracts/src/RegistryCommunity/facets/CommunityPoolFacet.sol:CommunityPoolFacet","label":"pendingCouncilSafe","offset":0,"slot":"259","type":"t_address_payable"},{"astId":97497,"contract":"pkg/contracts/src/RegistryCommunity/facets/CommunityPoolFacet.sol:CommunityPoolFacet","label":"registry","offset":0,"slot":"260","type":"t_contract(IRegistry)544"},{"astId":97501,"contract":"pkg/contracts/src/RegistryCommunity/facets/CommunityPoolFacet.sol:CommunityPoolFacet","label":"gardenToken","offset":0,"slot":"261","type":"t_contract(IERC20)52598"},{"astId":97505,"contract":"pkg/contracts/src/RegistryCommunity/facets/CommunityPoolFacet.sol:CommunityPoolFacet","label":"councilSafe","offset":0,"slot":"262","type":"t_contract(ISafe)104069"},{"astId":97509,"contract":"pkg/contracts/src/RegistryCommunity/facets/CommunityPoolFacet.sol:CommunityPoolFacet","label":"allo","offset":0,"slot":"263","type":"t_contract(FAllo)103739"},{"astId":97512,"contract":"pkg/contracts/src/RegistryCommunity/facets/CommunityPoolFacet.sol:CommunityPoolFacet","label":"communityName","offset":0,"slot":"264","type":"t_string_storage"},{"astId":97515,"contract":"pkg/contracts/src/RegistryCommunity/facets/CommunityPoolFacet.sol:CommunityPoolFacet","label":"covenantIpfsHash","offset":0,"slot":"265","type":"t_string_storage"},{"astId":97520,"contract":"pkg/contracts/src/RegistryCommunity/facets/CommunityPoolFacet.sol:CommunityPoolFacet","label":"enabledStrategies","offset":0,"slot":"266","type":"t_mapping(t_address,t_bool)"},{"astId":97527,"contract":"pkg/contracts/src/RegistryCommunity/facets/CommunityPoolFacet.sol:CommunityPoolFacet","label":"memberPowerInStrategy","offset":0,"slot":"267","type":"t_mapping(t_address,t_mapping(t_address,t_uint256))"},{"astId":97533,"contract":"pkg/contracts/src/RegistryCommunity/facets/CommunityPoolFacet.sol:CommunityPoolFacet","label":"addressToMemberInfo","offset":0,"slot":"268","type":"t_mapping(t_address,t_struct(Member)97407_storage)"},{"astId":97539,"contract":"pkg/contracts/src/RegistryCommunity/facets/CommunityPoolFacet.sol:CommunityPoolFacet","label":"strategiesByMember","offset":0,"slot":"269","type":"t_mapping(t_address,t_array(t_address)dyn_storage)"},{"astId":97546,"contract":"pkg/contracts/src/RegistryCommunity/facets/CommunityPoolFacet.sol:CommunityPoolFacet","label":"memberActivatedInStrategies","offset":0,"slot":"270","type":"t_mapping(t_address,t_mapping(t_address,t_bool))"},{"astId":97550,"contract":"pkg/contracts/src/RegistryCommunity/facets/CommunityPoolFacet.sol:CommunityPoolFacet","label":"initialMembers","offset":0,"slot":"271","type":"t_array(t_address)dyn_storage"},{"astId":97553,"contract":"pkg/contracts/src/RegistryCommunity/facets/CommunityPoolFacet.sol:CommunityPoolFacet","label":"totalMembers","offset":0,"slot":"272","type":"t_uint256"},{"astId":97558,"contract":"pkg/contracts/src/RegistryCommunity/facets/CommunityPoolFacet.sol:CommunityPoolFacet","label":"strategyFacetCuts","offset":0,"slot":"273","type":"t_array(t_struct(FacetCut)102733_storage)dyn_storage"},{"astId":97560,"contract":"pkg/contracts/src/RegistryCommunity/facets/CommunityPoolFacet.sol:CommunityPoolFacet","label":"strategyInit","offset":0,"slot":"274","type":"t_address"},{"astId":97562,"contract":"pkg/contracts/src/RegistryCommunity/facets/CommunityPoolFacet.sol:CommunityPoolFacet","label":"strategyInitCalldata","offset":0,"slot":"275","type":"t_bytes_storage"},{"astId":97566,"contract":"pkg/contracts/src/RegistryCommunity/facets/CommunityPoolFacet.sol:CommunityPoolFacet","label":"__gap","offset":0,"slot":"276","type":"t_array(t_uint256)46_storage"}],"types":{"t_address":{"encoding":"inplace","label":"address","numberOfBytes":"20"},"t_address_payable":{"encoding":"inplace","label":"address payable","numberOfBytes":"20"},"t_array(t_address)dyn_storage":{"encoding":"dynamic_array","label":"address[]","numberOfBytes":"32","base":"t_address"},"t_array(t_bytes4)dyn_storage":{"encoding":"dynamic_array","label":"bytes4[]","numberOfBytes":"32","base":"t_bytes4"},"t_array(t_struct(FacetCut)102733_storage)dyn_storage":{"encoding":"dynamic_array","label":"struct IDiamond.FacetCut[]","numberOfBytes":"32","base":"t_struct(FacetCut)102733_storage"},"t_array(t_uint256)46_storage":{"encoding":"inplace","label":"uint256[46]","numberOfBytes":"1472","base":"t_uint256"},"t_array(t_uint256)49_storage":{"encoding":"inplace","label":"uint256[49]","numberOfBytes":"1568","base":"t_uint256"},"t_array(t_uint256)50_storage":{"encoding":"inplace","label":"uint256[50]","numberOfBytes":"1600","base":"t_uint256"},"t_bool":{"encoding":"inplace","label":"bool","numberOfBytes":"1"},"t_bytes32":{"encoding":"inplace","label":"bytes32","numberOfBytes":"32"},"t_bytes4":{"encoding":"inplace","label":"bytes4","numberOfBytes":"4"},"t_bytes_storage":{"encoding":"bytes","label":"bytes","numberOfBytes":"32"},"t_contract(FAllo)103739":{"encoding":"inplace","label":"contract FAllo","numberOfBytes":"20"},"t_contract(IERC20)52598":{"encoding":"inplace","label":"contract IERC20","numberOfBytes":"20"},"t_contract(IRegistry)544":{"encoding":"inplace","label":"contract IRegistry","numberOfBytes":"20"},"t_contract(ISafe)104069":{"encoding":"inplace","label":"contract ISafe","numberOfBytes":"20"},"t_enum(FacetCutAction)102724":{"encoding":"inplace","label":"enum IDiamond.FacetCutAction","numberOfBytes":"1"},"t_mapping(t_address,t_array(t_address)dyn_storage)":{"encoding":"mapping","key":"t_address","label":"mapping(address => address[])","numberOfBytes":"32","value":"t_array(t_address)dyn_storage"},"t_mapping(t_address,t_bool)":{"encoding":"mapping","key":"t_address","label":"mapping(address => bool)","numberOfBytes":"32","value":"t_bool"},"t_mapping(t_address,t_mapping(t_address,t_bool))":{"encoding":"mapping","key":"t_address","label":"mapping(address => mapping(address => bool))","numberOfBytes":"32","value":"t_mapping(t_address,t_bool)"},"t_mapping(t_address,t_mapping(t_address,t_uint256))":{"encoding":"mapping","key":"t_address","label":"mapping(address => mapping(address => uint256))","numberOfBytes":"32","value":"t_mapping(t_address,t_uint256)"},"t_mapping(t_address,t_struct(Member)97407_storage)":{"encoding":"mapping","key":"t_address","label":"mapping(address => struct Member)","numberOfBytes":"32","value":"t_struct(Member)97407_storage"},"t_mapping(t_address,t_uint256)":{"encoding":"mapping","key":"t_address","label":"mapping(address => uint256)","numberOfBytes":"32","value":"t_uint256"},"t_mapping(t_bytes32,t_struct(RoleData)48371_storage)":{"encoding":"mapping","key":"t_bytes32","label":"mapping(bytes32 => struct AccessControlUpgradeable.RoleData)","numberOfBytes":"32","value":"t_struct(RoleData)48371_storage"},"t_string_storage":{"encoding":"bytes","label":"string","numberOfBytes":"32"},"t_struct(FacetCut)102733_storage":{"encoding":"inplace","label":"struct IDiamond.FacetCut","numberOfBytes":"64","members":[{"astId":102726,"contract":"pkg/contracts/src/RegistryCommunity/facets/CommunityPoolFacet.sol:CommunityPoolFacet","label":"facetAddress","offset":0,"slot":"0","type":"t_address"},{"astId":102729,"contract":"pkg/contracts/src/RegistryCommunity/facets/CommunityPoolFacet.sol:CommunityPoolFacet","label":"action","offset":20,"slot":"0","type":"t_enum(FacetCutAction)102724"},{"astId":102732,"contract":"pkg/contracts/src/RegistryCommunity/facets/CommunityPoolFacet.sol:CommunityPoolFacet","label":"functionSelectors","offset":0,"slot":"1","type":"t_array(t_bytes4)dyn_storage"}]},"t_struct(Member)97407_storage":{"encoding":"inplace","label":"struct Member","numberOfBytes":"96","members":[{"astId":97402,"contract":"pkg/contracts/src/RegistryCommunity/facets/CommunityPoolFacet.sol:CommunityPoolFacet","label":"member","offset":0,"slot":"0","type":"t_address"},{"astId":97404,"contract":"pkg/contracts/src/RegistryCommunity/facets/CommunityPoolFacet.sol:CommunityPoolFacet","label":"stakedAmount","offset":0,"slot":"1","type":"t_uint256"},{"astId":97406,"contract":"pkg/contracts/src/RegistryCommunity/facets/CommunityPoolFacet.sol:CommunityPoolFacet","label":"isRegistered","offset":0,"slot":"2","type":"t_bool"}]},"t_struct(RoleData)48371_storage":{"encoding":"inplace","label":"struct AccessControlUpgradeable.RoleData","numberOfBytes":"64","members":[{"astId":48368,"contract":"pkg/contracts/src/RegistryCommunity/facets/CommunityPoolFacet.sol:CommunityPoolFacet","label":"members","offset":0,"slot":"0","type":"t_mapping(t_address,t_bool)"},{"astId":48370,"contract":"pkg/contracts/src/RegistryCommunity/facets/CommunityPoolFacet.sol:CommunityPoolFacet","label":"adminRole","offset":0,"slot":"1","type":"t_bytes32"}]},"t_uint256":{"encoding":"inplace","label":"uint256","numberOfBytes":"32"},"t_uint8":{"encoding":"inplace","label":"uint8","numberOfBytes":"1"}}},"id":150}