{"abi":[{"type":"function","name":"COUNCIL_MEMBER","inputs":[],"outputs":[{"name":"","type":"bytes32","internalType":"bytes32"}],"stateMutability":"view"},{"type":"function","name":"DEFAULT_ADMIN_ROLE","inputs":[],"outputs":[{"name":"","type":"bytes32","internalType":"bytes32"}],"stateMutability":"view"},{"type":"function","name":"MAX_FEE","inputs":[],"outputs":[{"name":"","type":"uint256","internalType":"uint256"}],"stateMutability":"view"},{"type":"function","name":"NATIVE","inputs":[],"outputs":[{"name":"","type":"address","internalType":"address"}],"stateMutability":"view"},{"type":"function","name":"PRECISION_SCALE","inputs":[],"outputs":[{"name":"","type":"uint256","internalType":"uint256"}],"stateMutability":"view"},{"type":"function","name":"VERSION","inputs":[],"outputs":[{"name":"","type":"string","internalType":"string"}],"stateMutability":"view"},{"type":"function","name":"addressToMemberInfo","inputs":[{"name":"member","type":"address","internalType":"address"}],"outputs":[{"name":"member","type":"address","internalType":"address"},{"name":"stakedAmount","type":"uint256","internalType":"uint256"},{"name":"isRegistered","type":"bool","internalType":"bool"}],"stateMutability":"view"},{"type":"function","name":"allo","inputs":[],"outputs":[{"name":"","type":"address","internalType":"contract FAllo"}],"stateMutability":"view"},{"type":"function","name":"cloneNonce","inputs":[],"outputs":[{"name":"","type":"uint256","internalType":"uint256"}],"stateMutability":"view"},{"type":"function","name":"collateralVaultTemplate","inputs":[],"outputs":[{"name":"","type":"address","internalType":"address"}],"stateMutability":"view"},{"type":"function","name":"communityFee","inputs":[],"outputs":[{"name":"","type":"uint256","internalType":"uint256"}],"stateMutability":"view"},{"type":"function","name":"communityName","inputs":[],"outputs":[{"name":"","type":"string","internalType":"string"}],"stateMutability":"view"},{"type":"function","name":"councilSafe","inputs":[],"outputs":[{"name":"","type":"address","internalType":"contract ISafe"}],"stateMutability":"view"},{"type":"function","name":"covenantIpfsHash","inputs":[],"outputs":[{"name":"","type":"string","internalType":"string"}],"stateMutability":"view"},{"type":"function","name":"createPool","inputs":[{"name":"_strategy","type":"address","internalType":"address"},{"name":"_token","type":"address","internalType":"address"},{"name":"_params","type":"tuple","internalType":"struct CVStrategyInitializeParamsV0_3","components":[{"name":"cvParams","type":"tuple","internalType":"struct CVParams","components":[{"name":"maxRatio","type":"uint256","internalType":"uint256"},{"name":"weight","type":"uint256","internalType":"uint256"},{"name":"decay","type":"uint256","internalType":"uint256"},{"name":"minThresholdPoints","type":"uint256","internalType":"uint256"}]},{"name":"proposalType","type":"uint8","internalType":"enum ProposalType"},{"name":"pointSystem","type":"uint8","internalType":"enum PointSystem"},{"name":"pointConfig","type":"tuple","internalType":"struct PointSystemConfig","components":[{"name":"maxAmount","type":"uint256","internalType":"uint256"}]},{"name":"arbitrableConfig","type":"tuple","internalType":"struct ArbitrableConfig","components":[{"name":"arbitrator","type":"address","internalType":"contract IArbitrator"},{"name":"tribunalSafe","type":"address","internalType":"address"},{"name":"submitterCollateralAmount","type":"uint256","internalType":"uint256"},{"name":"challengerCollateralAmount","type":"uint256","internalType":"uint256"},{"name":"defaultRuling","type":"uint256","internalType":"uint256"},{"name":"defaultRulingTimeout","type":"uint256","internalType":"uint256"}]},{"name":"registryCommunity","type":"address","internalType":"address"},{"name":"votingPowerRegistry","type":"address","internalType":"address"},{"name":"sybilScorer","type":"address","internalType":"address"},{"name":"sybilScorerThreshold","type":"uint256","internalType":"uint256"},{"name":"initialAllowlist","type":"address[]","internalType":"address[]"},{"name":"superfluidToken","type":"address","internalType":"address"},{"name":"streamingRatePerSecond","type":"uint256","internalType":"uint256"}]},{"name":"_metadata","type":"tuple","internalType":"struct Metadata","components":[{"name":"protocol","type":"uint256","internalType":"uint256"},{"name":"pointer","type":"string","internalType":"string"}]}],"outputs":[{"name":"poolId","type":"uint256","internalType":"uint256"},{"name":"strategy","type":"address","internalType":"address"}],"stateMutability":"nonpayable"},{"type":"function","name":"createPool","inputs":[{"name":"_token","type":"address","internalType":"address"},{"name":"_params","type":"tuple","internalType":"struct CVStrategyInitializeParamsV0_3","components":[{"name":"cvParams","type":"tuple","internalType":"struct CVParams","components":[{"name":"maxRatio","type":"uint256","internalType":"uint256"},{"name":"weight","type":"uint256","internalType":"uint256"},{"name":"decay","type":"uint256","internalType":"uint256"},{"name":"minThresholdPoints","type":"uint256","internalType":"uint256"}]},{"name":"proposalType","type":"uint8","internalType":"enum ProposalType"},{"name":"pointSystem","type":"uint8","internalType":"enum PointSystem"},{"name":"pointConfig","type":"tuple","internalType":"struct PointSystemConfig","components":[{"name":"maxAmount","type":"uint256","internalType":"uint256"}]},{"name":"arbitrableConfig","type":"tuple","internalType":"struct ArbitrableConfig","components":[{"name":"arbitrator","type":"address","internalType":"contract IArbitrator"},{"name":"tribunalSafe","type":"address","internalType":"address"},{"name":"submitterCollateralAmount","type":"uint256","internalType":"uint256"},{"name":"challengerCollateralAmount","type":"uint256","internalType":"uint256"},{"name":"defaultRuling","type":"uint256","internalType":"uint256"},{"name":"defaultRulingTimeout","type":"uint256","internalType":"uint256"}]},{"name":"registryCommunity","type":"address","internalType":"address"},{"name":"votingPowerRegistry","type":"address","internalType":"address"},{"name":"sybilScorer","type":"address","internalType":"address"},{"name":"sybilScorerThreshold","type":"uint256","internalType":"uint256"},{"name":"initialAllowlist","type":"address[]","internalType":"address[]"},{"name":"superfluidToken","type":"address","internalType":"address"},{"name":"streamingRatePerSecond","type":"uint256","internalType":"uint256"}]},{"name":"_metadata","type":"tuple","internalType":"struct Metadata","components":[{"name":"protocol","type":"uint256","internalType":"uint256"},{"name":"pointer","type":"string","internalType":"string"}]}],"outputs":[{"name":"poolId","type":"uint256","internalType":"uint256"},{"name":"strategy","type":"address","internalType":"address"}],"stateMutability":"nonpayable"},{"type":"function","name":"enabledStrategies","inputs":[{"name":"strategy","type":"address","internalType":"address"}],"outputs":[{"name":"isEnabled","type":"bool","internalType":"bool"}],"stateMutability":"view"},{"type":"function","name":"feeReceiver","inputs":[],"outputs":[{"name":"","type":"address","internalType":"address"}],"stateMutability":"view"},{"type":"function","name":"gardenToken","inputs":[],"outputs":[{"name":"","type":"address","internalType":"contract IERC20"}],"stateMutability":"view"},{"type":"function","name":"getRoleAdmin","inputs":[{"name":"role","type":"bytes32","internalType":"bytes32"}],"outputs":[{"name":"","type":"bytes32","internalType":"bytes32"}],"stateMutability":"view"},{"type":"function","name":"grantRole","inputs":[{"name":"role","type":"bytes32","internalType":"bytes32"},{"name":"account","type":"address","internalType":"address"}],"outputs":[],"stateMutability":"nonpayable"},{"type":"function","name":"hasRole","inputs":[{"name":"role","type":"bytes32","internalType":"bytes32"},{"name":"account","type":"address","internalType":"address"}],"outputs":[{"name":"","type":"bool","internalType":"bool"}],"stateMutability":"view"},{"type":"function","name":"initialize","inputs":[{"name":"initialOwner","type":"address","internalType":"address"}],"outputs":[],"stateMutability":"nonpayable"},{"type":"function","name":"isKickEnabled","inputs":[],"outputs":[{"name":"","type":"bool","internalType":"bool"}],"stateMutability":"view"},{"type":"function","name":"memberActivatedInStrategies","inputs":[{"name":"member","type":"address","internalType":"address"},{"name":"strategy","type":"address","internalType":"address"}],"outputs":[{"name":"isActivated","type":"bool","internalType":"bool"}],"stateMutability":"view"},{"type":"function","name":"memberPowerInStrategy","inputs":[{"name":"strategy","type":"address","internalType":"address"},{"name":"member","type":"address","internalType":"address"}],"outputs":[{"name":"power","type":"uint256","internalType":"uint256"}],"stateMutability":"view"},{"type":"function","name":"owner","inputs":[],"outputs":[{"name":"","type":"address","internalType":"address"}],"stateMutability":"view"},{"type":"function","name":"pendingCouncilSafe","inputs":[],"outputs":[{"name":"","type":"address","internalType":"address payable"}],"stateMutability":"view"},{"type":"function","name":"profileId","inputs":[],"outputs":[{"name":"","type":"bytes32","internalType":"bytes32"}],"stateMutability":"view"},{"type":"function","name":"proxiableUUID","inputs":[],"outputs":[{"name":"","type":"bytes32","internalType":"bytes32"}],"stateMutability":"view"},{"type":"function","name":"proxyOwner","inputs":[],"outputs":[{"name":"","type":"address","internalType":"address"}],"stateMutability":"view"},{"type":"function","name":"registerStakeAmount","inputs":[],"outputs":[{"name":"","type":"uint256","internalType":"uint256"}],"stateMutability":"view"},{"type":"function","name":"registry","inputs":[],"outputs":[{"name":"","type":"address","internalType":"contract IRegistry"}],"stateMutability":"view"},{"type":"function","name":"registryFactory","inputs":[],"outputs":[{"name":"","type":"address","internalType":"address"}],"stateMutability":"view"},{"type":"function","name":"renounceOwnership","inputs":[],"outputs":[],"stateMutability":"nonpayable"},{"type":"function","name":"renounceRole","inputs":[{"name":"role","type":"bytes32","internalType":"bytes32"},{"name":"account","type":"address","internalType":"address"}],"outputs":[],"stateMutability":"nonpayable"},{"type":"function","name":"revokeRole","inputs":[{"name":"role","type":"bytes32","internalType":"bytes32"},{"name":"account","type":"address","internalType":"address"}],"outputs":[],"stateMutability":"nonpayable"},{"type":"function","name":"strategiesByMember","inputs":[{"name":"member","type":"address","internalType":"address"},{"name":"","type":"uint256","internalType":"uint256"}],"outputs":[{"name":"strategiesAddresses","type":"address","internalType":"address"}],"stateMutability":"view"},{"type":"function","name":"strategyTemplate","inputs":[],"outputs":[{"name":"","type":"address","internalType":"address"}],"stateMutability":"view"},{"type":"function","name":"supportsInterface","inputs":[{"name":"interfaceId","type":"bytes4","internalType":"bytes4"}],"outputs":[{"name":"","type":"bool","internalType":"bool"}],"stateMutability":"view"},{"type":"function","name":"totalMembers","inputs":[],"outputs":[{"name":"","type":"uint256","internalType":"uint256"}],"stateMutability":"view"},{"type":"function","name":"transferOwnership","inputs":[{"name":"newOwner","type":"address","internalType":"address"}],"outputs":[],"stateMutability":"nonpayable"},{"type":"function","name":"upgradeTo","inputs":[{"name":"newImplementation","type":"address","internalType":"address"}],"outputs":[],"stateMutability":"nonpayable"},{"type":"function","name":"upgradeToAndCall","inputs":[{"name":"newImplementation","type":"address","internalType":"address"},{"name":"data","type":"bytes","internalType":"bytes"}],"outputs":[],"stateMutability":"payable"},{"type":"event","name":"AdminChanged","inputs":[{"name":"previousAdmin","type":"address","indexed":false,"internalType":"address"},{"name":"newAdmin","type":"address","indexed":false,"internalType":"address"}],"anonymous":false},{"type":"event","name":"BeaconUpgraded","inputs":[{"name":"beacon","type":"address","indexed":true,"internalType":"address"}],"anonymous":false},{"type":"event","name":"Initialized","inputs":[{"name":"version","type":"uint8","indexed":false,"internalType":"uint8"}],"anonymous":false},{"type":"event","name":"OwnershipTransferred","inputs":[{"name":"previousOwner","type":"address","indexed":true,"internalType":"address"},{"name":"newOwner","type":"address","indexed":true,"internalType":"address"}],"anonymous":false},{"type":"event","name":"PoolCreated","inputs":[{"name":"_poolId","type":"uint256","indexed":false,"internalType":"uint256"},{"name":"_strategy","type":"address","indexed":false,"internalType":"address"},{"name":"_community","type":"address","indexed":false,"internalType":"address"},{"name":"_token","type":"address","indexed":false,"internalType":"address"},{"name":"_metadata","type":"tuple","indexed":false,"internalType":"struct Metadata","components":[{"name":"protocol","type":"uint256","internalType":"uint256"},{"name":"pointer","type":"string","internalType":"string"}]}],"anonymous":false},{"type":"event","name":"RegistryInitialized","inputs":[{"name":"_profileId","type":"bytes32","indexed":false,"internalType":"bytes32"},{"name":"_communityName","type":"string","indexed":false,"internalType":"string"},{"name":"_metadata","type":"tuple","indexed":false,"internalType":"struct Metadata","components":[{"name":"protocol","type":"uint256","internalType":"uint256"},{"name":"pointer","type":"string","internalType":"string"}]}],"anonymous":false},{"type":"event","name":"RoleAdminChanged","inputs":[{"name":"role","type":"bytes32","indexed":true,"internalType":"bytes32"},{"name":"previousAdminRole","type":"bytes32","indexed":true,"internalType":"bytes32"},{"name":"newAdminRole","type":"bytes32","indexed":true,"internalType":"bytes32"}],"anonymous":false},{"type":"event","name":"RoleGranted","inputs":[{"name":"role","type":"bytes32","indexed":true,"internalType":"bytes32"},{"name":"account","type":"address","indexed":true,"internalType":"address"},{"name":"sender","type":"address","indexed":true,"internalType":"address"}],"anonymous":false},{"type":"event","name":"RoleRevoked","inputs":[{"name":"role","type":"bytes32","indexed":true,"internalType":"bytes32"},{"name":"account","type":"address","indexed":true,"internalType":"address"},{"name":"sender","type":"address","indexed":true,"internalType":"address"}],"anonymous":false},{"type":"event","name":"Upgraded","inputs":[{"name":"implementation","type":"address","indexed":true,"internalType":"address"}],"anonymous":false},{"type":"error","name":"AllowlistTooBig","inputs":[{"name":"size","type":"uint256","internalType":"uint256"}]},{"type":"error","name":"CallerNotOwner","inputs":[{"name":"_caller","type":"address","internalType":"address"},{"name":"_owner","type":"address","internalType":"address"}]},{"type":"error","name":"CommunityPaused","inputs":[{"name":"controller","type":"address","internalType":"address"}]},{"type":"error","name":"CommunitySelectorPaused","inputs":[{"name":"selector","type":"bytes4","internalType":"bytes4"},{"name":"controller","type":"address","internalType":"address"}]},{"type":"error","name":"ValueCannotBeZero","inputs":[]}],"bytecode":{"object":"0x60a060405230608052348015610013575f80fd5b5060805161324c6100485f395f81816109e001528181610a2301528181610ab301528181610af60152610b76015261324c5ff3fe60806040526004361062000223575f3560e01c806301ffc9a71462000227578063025313a2146200026057806308386eba14620002865780631f787d2814620002ac578063248a9ca314620002c65780632b38c69c14620002ea5780632f2ff15d146200030e57806333960459146200033457806336568abe146200034b5780633659cfe6146200036f5780633a871fe11462000393578063477a5cc014620003c65780634f1ef286146200040457806352d1902d146200041b5780635c94e4d2146200043257806365e3864c146200045457806368decabb146200048f5780636c53db9a14620004b1578063715018a614620004d3578063733a2d1f14620004ea57806376e92559146200051f57806377122d56146200053757806378a0b8a914620005595780637b103999146200057057806382b18ef4146200059257806388cfe68414620005d45780638961be6b14620006485780638da5cb5b146200065f57806391d148541462000676578063a0cf0aea146200069a578063a217fddf14620006c3578063b3f0067414620006d8578063b64e39af14620006fe578063bc063e1a1462000724578063c4d66de8146200073b578063c6d572ae146200075f578063ce7e2cd31462000776578063d547741f146200079a578063d6d8428d14620007be578063d7050f0714620007e0578063db61d65c14620007f7578063f2fde38b1462000819578063f86c5f89146200083d578063ffa1ad74146200085f575b5f80fd5b34801562000233575f80fd5b506200024b6200024536600462001d1d565b6200088f565b60405190151581526020015b60405180910390f35b3480156200026c575f80fd5b5062000277620008c6565b60405162000257919062001d53565b34801562000292575f80fd5b506200029d60fe5481565b60405190815260200162000257565b348015620002b8575f80fd5b5060ff80546200024b911681565b348015620002d2575f80fd5b506200029d620002e436600462001d67565b620008df565b348015620002f6575f80fd5b50620002776200030836600462001da1565b620008f3565b3480156200031a575f80fd5b50620003326200032c36600462001dce565b62000929565b005b34801562000340575f80fd5b506200029d60fd5481565b34801562000357575f80fd5b50620003326200036936600462001dce565b62000950565b3480156200037b575f80fd5b50620003326200038d36600462001dff565b620009d6565b3480156200039f575f80fd5b506200024b620003b136600462001dff565b61010a6020525f908152604090205460ff1681565b348015620003d2575f80fd5b506200024b620003e436600462001e1d565b61010e60209081525f928352604080842090915290825290205460ff1681565b620003326200041536600462001f1b565b62000aa9565b34801562000427575f80fd5b506200029d62000b6a565b3480156200043e575f80fd5b506101025462000277906001600160a01b031681565b34801562000460575f80fd5b506200029d6200047236600462001e1d565b61010b60209081525f928352604080842090915290825290205481565b3480156200049b575f80fd5b506101035462000277906001600160a01b031681565b348015620004bd575f80fd5b506101065462000277906001600160a01b031681565b348015620004df575f80fd5b506200033262000c19565b348015620004f6575f80fd5b506200029d7f03be538b6391ddcd7f2649585cc95b120c9e2a613f70714fbb55345057d809fa81565b3480156200052b575f80fd5b506200029d6101105481565b34801562000543575f80fd5b506101015462000277906001600160a01b031681565b34801562000565575f80fd5b506200029d60fb5481565b3480156200057c575f80fd5b506101045462000277906001600160a01b031681565b3480156200059e575f80fd5b50620005b6620005b036600462002308565b62000c30565b604080519283526001600160a01b0390911660208301520162000257565b348015620005e0575f80fd5b5062000620620005f236600462001dff565b61010c6020525f90815260409020805460018201546002909201546001600160a01b03909116919060ff1683565b604080516001600160a01b039094168452602084019290925215159082015260600162000257565b34801562000654575f80fd5b506200029d60fc5481565b3480156200066b575f80fd5b506200027762000d55565b34801562000682575f80fd5b506200024b6200069436600462001dce565b62000df5565b348015620006a6575f80fd5b506200027773eeeeeeeeeeeeeeeeeeeeeeeeeeeeeeeeeeeeeeee81565b348015620006cf575f80fd5b506200029d5f81565b348015620006e4575f80fd5b5060ff54620002779061010090046001600160a01b031681565b3480156200070a575f80fd5b506200071562000e1f565b604051620002579190620023e7565b34801562000730575f80fd5b506200029d62000eb4565b34801562000747575f80fd5b50620003326200075936600462001dff565b62000ec6565b3480156200076b575f80fd5b506200071562000fe4565b34801562000782575f80fd5b50620005b662000794366004620023fb565b62000ff4565b348015620007a6575f80fd5b5062000332620007b836600462001dce565b62001282565b348015620007ca575f80fd5b506101075462000277906001600160a01b031681565b348015620007ec575f80fd5b506200029d61271081565b34801562000803575f80fd5b506101055462000277906001600160a01b031681565b34801562000825575f80fd5b50620003326200083736600462001dff565b620012a4565b34801562000849575f80fd5b506101005462000277906001600160a01b031681565b3480156200086b575f80fd5b5062000715604051806040016040528060038152602001620302e360ec1b81525081565b5f6001600160e01b03198216637965db0b60e01b1480620008c057506301ffc9a760e01b6001600160e01b03198316145b92915050565b5f620008da6033546001600160a01b031690565b905090565b5f90815260c9602052604090206001015490565b61010d602052815f5260405f2081815481106200090e575f80fd5b5f918252602090912001546001600160a01b03169150829050565b6200093482620008df565b6200093f8162001320565b6200094b83836200132c565b505050565b6001600160a01b0381163314620009c65760405162461bcd60e51b815260206004820152602f60248201527f416363657373436f6e74726f6c3a2063616e206f6e6c792072656e6f756e636560448201526e103937b632b9903337b91039b2b63360891b60648201526084015b60405180910390fd5b620009d28282620013b5565b5050565b6001600160a01b037f000000000000000000000000000000000000000000000000000000000000000016300362000a215760405162461bcd60e51b8152600401620009bd9062002474565b7f00000000000000000000000000000000000000000000000000000000000000006001600160a01b031662000a556200141e565b6001600160a01b03161462000a7e5760405162461bcd60e51b8152600401620009bd90620024ae565b62000a89816200143a565b604080515f8082526020820190925262000aa6918391906200148c565b50565b6001600160a01b037f000000000000000000000000000000000000000000000000000000000000000016300362000af45760405162461bcd60e51b8152600401620009bd9062002474565b7f00000000000000000000000000000000000000000000000000000000000000006001600160a01b031662000b286200141e565b6001600160a01b03161462000b515760405162461bcd60e51b8152600401620009bd90620024ae565b62000b5c826200143a565b620009d2828260016200148c565b5f306001600160a01b037f0000000000000000000000000000000000000000000000000000000000000000161462000c065760405162461bcd60e51b815260206004820152603860248201527f555550535570677261646561626c653a206d757374206e6f742062652063616c6044820152771b1959081d1a1c9bdd59da0819195b1959d85d1958d85b1b60421b6064820152608401620009bd565b505f80516020620031f983398151915290565b62000c2362001603565b62000c2e5f62001666565b565b5f8073eeeeeeeeeeeeeeeeeeeeeeeeeeeeeeeeeeeeeeee6001600160a01b0386161562000c5a5750845b6101075460fe546040518994506001600160a01b039092169163e1007d4a9190859062000c8c908a9060200162002576565b604051602081830303815290604052855f8a61010f6040518863ffffffff1660e01b815260040162000cc59796959493929190620026f1565b6020604051808303815f875af115801562000ce2573d5f803e3d5ffd5b505050506040513d601f19601f8201168201806040525081019062000d0891906200278e565b92507f778cac0ae0b66477341553a4a89398c61ccf448313d3354ad0ca85a5a825d283838330898860405162000d43959493929190620027a6565b60405180910390a15094509492505050565b5f62000d60620008c6565b6001600160a01b03163b5f0362000d7b57620008da620008c6565b62000d85620008c6565b6001600160a01b0316638da5cb5b6040518163ffffffff1660e01b8152600401602060405180830381865afa92505050801562000de1575060408051601f3d908101601f1916820190925262000dde91810190620027e1565b60015b62000df057620008da620008c6565b919050565b5f91825260c9602090815260408084206001600160a01b0393909316845291905290205460ff1690565b610109805462000e2f90620027ff565b80601f016020809104026020016040519081016040528092919081815260200182805462000e5d90620027ff565b801562000eac5780601f1062000e825761010080835404028352916020019162000eac565b820191905f5260205f20905b81548152906001019060200180831162000e8e57829003601f168201915b505050505081565b62000ec3612710600a6200284d565b81565b5f54610100900460ff161580801562000ee557505f54600160ff909116105b8062000f09575062000ef730620016b7565b15801562000f0957505f5460ff166001145b62000f6e5760405162461bcd60e51b815260206004820152602e60248201527f496e697469616c697a61626c653a20636f6e747261637420697320616c72656160448201526d191e481a5b9a5d1a585b1a5e995960921b6064820152608401620009bd565b5f805460ff19166001179055801562000f90575f805461ff0019166101001790555b62000f9b8262001666565b8015620009d2575f805461ff0019169055604051600181527f7f26b83ff96e1f2b6a682f133852f6798a09c465da95921460cefb38474024989060200160405180910390a15050565b610108805462000e2f90620027ff565b610102546101075461010154604080516001600160a01b03938416602482015291831660448301523060648084019190915281518084039091018152608490920181526020820180516001600160e01b031663184b955960e01b179052515f9384938493911691620010669062001d0f565b6200107392919062002867565b604051809103905ff0801580156200108d573d5f803e3d5ffd5b5090505f6101005f9054906101000a90046001600160a01b03166001600160a01b0316638c68f2a96040518163ffffffff1660e01b8152600401602060405180830381865afa158015620010e3573d5f803e3d5ffd5b505050506040513d601f19601f82011682018060405250810190620011099190620027e1565b9050620011178282620016c6565b620011258288888862000c30565b60e088015191955093506001600160a01b0316620011e85761271086610120015151111562001172578561012001515160405163107b111560e31b8152600401620009bd91815260200190565b5f846040516020016200118691906200288c565b6040516020818303038152906040528051906020012090505f5b87610120015151811015620011e557620011dc828961012001518381518110620011ce57620011ce620028a9565b60200260200101516200132c565b600101620011a0565b50505b6200124484604051602001620011ff91906200288c565b6040516020818303038152906040528051906020012085604051602001620012289190620028bd565b604051602081830303815290604052805190602001206200182c565b62001278846040516020016200125b9190620028bd565b60405160208183030381529060405280519060200120846200132c565b5050935093915050565b6200128d82620008df565b620012988162001320565b6200094b8383620013b5565b620012ae62001603565b6001600160a01b038116620013155760405162461bcd60e51b815260206004820152602660248201527f4f776e61626c653a206e6577206f776e657220697320746865207a65726f206160448201526564647265737360d01b6064820152608401620009bd565b62000aa68162001666565b62000aa681336200187f565b62001338828262000df5565b620009d2575f82815260c9602090815260408083206001600160a01b03851684529091529020805460ff19166001179055620013713390565b6001600160a01b0316816001600160a01b0316837f2f8788117e7eff1d82e926ec794901d17c78024a50270940304540a733656f0d60405160405180910390a45050565b620013c1828262000df5565b15620009d2575f82815260c9602090815260408083206001600160a01b0385168085529252808320805460ff1916905551339285917ff6391f5c32d9c69d2a47ea670b442974b53935d1edc7fd64eb21e047a839171b9190a45050565b5f80516020620031f9833981519152546001600160a01b031690565b336200144562000d55565b6001600160a01b03161462000aa657336200145f62000d55565b60405163163678e960e01b81526001600160a01b03928316600482015291166024820152604401620009bd565b7f4910fdfa16fed3260ed0e7147f7cc6da11a60208b5b9406d12a635614ffd91435460ff1615620014c2576200094b83620018e3565b826001600160a01b03166352d1902d6040518163ffffffff1660e01b8152600401602060405180830381865afa9250505080156200151f575060408051601f3d908101601f191682019092526200151c918101906200278e565b60015b620015845760405162461bcd60e51b815260206004820152602e60248201527f45524331393637557067726164653a206e657720696d706c656d656e7461746960448201526d6f6e206973206e6f74205555505360901b6064820152608401620009bd565b5f80516020620031f98339815191528114620015f55760405162461bcd60e51b815260206004820152602960248201527f45524331393637557067726164653a20756e737570706f727465642070726f786044820152681a58589b195555525160ba1b6064820152608401620009bd565b506200094b83838362001981565b336200160e62000d55565b6001600160a01b03161462000c2e5760405162461bcd60e51b815260206004820181905260248201527f4f776e61626c653a2063616c6c6572206973206e6f7420746865206f776e65726044820152606401620009bd565b603380546001600160a01b038381166001600160a01b0319831681179093556040519116919082907f8be0079c531659141344cd1fd0a4f28419497f9722a3daafe3b4186f6b6457e0905f90a35050565b6001600160a01b03163b151590565b61011154151580620016e35750610112546001600160a01b031615155b156200175457610112546040516307e4c70760e21b81526001600160a01b0380851692631f931c1c9262001724926101119216906101139060040162002995565b5f604051808303815f87803b1580156200173c575f80fd5b505af11580156200174f573d5f803e3d5ffd5b505050505b6001600160a01b03811615620017c257604051631add1a0d60e01b81526001600160a01b03831690631add1a0d906200179290849060040162001d53565b5f604051808303815f87803b158015620017aa575f80fd5b505af1158015620017bd573d5f803e3d5ffd5b505050505b816001600160a01b031663f2fde38b620017db620008c6565b6040518263ffffffff1660e01b8152600401620017f9919062001d53565b5f604051808303815f87803b15801562001811575f80fd5b505af115801562001824573d5f803e3d5ffd5b505050505050565b5f6200183883620008df565b5f84815260c96020526040808220600101859055519192508391839186917fbd79b86ffe0ab8e8776151514217cd7cacd52c909f66475c3af44e129f0b00ff9190a4505050565b6200188b828262000df5565b620009d2576200189b81620019b1565b620018a8836020620019c4565b604051602001620018bb92919062002c75565b60408051601f198184030181529082905262461bcd60e51b8252620009bd91600401620023e7565b620018ee81620016b7565b620019525760405162461bcd60e51b815260206004820152602d60248201527f455243313936373a206e657720696d706c656d656e746174696f6e206973206e60448201526c1bdd08184818dbdb9d1c9858dd609a1b6064820152608401620009bd565b5f80516020620031f983398151915280546001600160a01b0319166001600160a01b0392909216919091179055565b6200198c8362001b7e565b5f82511180620019995750805b156200094b57620019ab838362001bbf565b50505050565b6060620008c06001600160a01b03831660145b60605f620019d48360026200284d565b620019e190600262002ce7565b6001600160401b03811115620019fb57620019fb62001e4e565b6040519080825280601f01601f19166020018201604052801562001a26576020820181803683370190505b509050600360fc1b815f8151811062001a435762001a43620028a9565b60200101906001600160f81b03191690815f1a905350600f60fb1b8160018151811062001a745762001a74620028a9565b60200101906001600160f81b03191690815f1a9053505f62001a988460026200284d565b62001aa590600162002ce7565b90505b600181111562001b26576f181899199a1a9b1b9c1cb0b131b232b360811b85600f166010811062001add5762001add620028a9565b1a60f81b82828151811062001af65762001af6620028a9565b60200101906001600160f81b03191690815f1a90535060049490941c9362001b1e8162002cfd565b905062001aa8565b50831562001b775760405162461bcd60e51b815260206004820181905260248201527f537472696e67733a20686578206c656e67746820696e73756666696369656e746044820152606401620009bd565b9392505050565b62001b8981620018e3565b6040516001600160a01b038216907fbc7cd75a20ee27fd9adebab32041f755214dbc6bffa90cc0225b39da2e5c2d3b905f90a250565b606062001b778383604051806060016040528060278152602001620032196027913960605f80856001600160a01b03168560405162001bff919062002d15565b5f60405180830381855af49150503d805f811462001c39576040519150601f19603f3d011682016040523d82523d5f602084013e62001c3e565b606091505b509150915062001c518683838762001c5b565b9695505050505050565b6060831562001cce5782515f0362001cc65762001c7885620016b7565b62001cc65760405162461bcd60e51b815260206004820152601d60248201527f416464726573733a2063616c6c20746f206e6f6e2d636f6e74726163740000006044820152606401620009bd565b508162001cda565b62001cda838362001ce2565b949350505050565b81511562001cf35781518083602001fd5b8060405162461bcd60e51b8152600401620009bd9190620023e7565b6104a68062002d3383390190565b5f6020828403121562001d2e575f80fd5b81356001600160e01b03198116811462001b77575f80fd5b6001600160a01b03169052565b6001600160a01b0391909116815260200190565b5f6020828403121562001d78575f80fd5b5035919050565b6001600160a01b038116811462000aa6575f80fd5b803562000df08162001d7f565b5f806040838503121562001db3575f80fd5b823562001dc08162001d7f565b946020939093013593505050565b5f806040838503121562001de0575f80fd5b82359150602083013562001df48162001d7f565b809150509250929050565b5f6020828403121562001e10575f80fd5b813562001b778162001d7f565b5f806040838503121562001e2f575f80fd5b823562001e3c8162001d7f565b9150602083013562001df48162001d7f565b634e487b7160e01b5f52604160045260245ffd5b60405161018081016001600160401b038111828210171562001e885762001e8862001e4e565b60405290565b604051601f8201601f191681016001600160401b038111828210171562001eb95762001eb962001e4e565b604052919050565b5f6001600160401b0383111562001edc5762001edc62001e4e565b62001ef1601f8401601f191660200162001e8e565b905082815283838301111562001f05575f80fd5b828260208301375f602084830101529392505050565b5f806040838503121562001f2d575f80fd5b823562001f3a8162001d7f565b915060208301356001600160401b0381111562001f55575f80fd5b8301601f8101851362001f66575f80fd5b62001f778582356020840162001ec1565b9150509250929050565b5f6080828403121562001f92575f80fd5b604051608081016001600160401b038111828210171562001fb75762001fb762001e4e565b8060405250809150823581526020830135602082015260408301356040820152606083013560608201525092915050565b80356003811062000df0575f80fd5b80356004811062000df0575f80fd5b5f6020828403121562002017575f80fd5b604051602081016001600160401b03811182821017156200203c576200203c62001e4e565b6040529135825250919050565b5f60c082840312156200205a575f80fd5b60405160c081016001600160401b03811182821017156200207f576200207f62001e4e565b6040529050808235620020928162001d7f565b81526020830135620020a48162001d7f565b8060208301525060408301356040820152606083013560608201526080830135608082015260a083013560a08201525092915050565b5f82601f830112620020ea575f80fd5b813560206001600160401b0382111562002108576200210862001e4e565b8160051b6200211982820162001e8e565b928352848101820192828101908785111562002133575f80fd5b83870192505b848310156200215f5782356200214f8162001d7f565b8252918301919083019062002139565b979650505050505050565b5f61028082840312156200217c575f80fd5b6200218662001e62565b905062002194838362001f81565b8152620021a46080830162001fe8565b6020820152620021b760a0830162001ff7565b6040820152620021cb8360c0840162002006565b6060820152620021df8360e0840162002049565b6080820152620021f36101a0830162001d94565b60a0820152620022076101c0830162001d94565b60c08201526200221b6101e0830162001d94565b60e08201526102008201356101008201526102208201356001600160401b0381111562002246575f80fd5b6200225484828501620020da565b610120830152506200226a610240830162001d94565b61014082015261026082013561016082015292915050565b5f6040828403121562002293575f80fd5b604080519081016001600160401b038082118383101715620022b957620022b962001e4e565b81604052829350843583526020850135915080821115620022d8575f80fd5b508301601f81018513620022ea575f80fd5b620022fb8582356020840162001ec1565b6020830152505092915050565b5f805f80608085870312156200231c575f80fd5b8435620023298162001d7f565b935060208501356200233b8162001d7f565b925060408501356001600160401b038082111562002357575f80fd5b62002365888389016200216a565b935060608701359150808211156200237b575f80fd5b506200238a8782880162002282565b91505092959194509250565b5f5b83811015620023b257818101518382015260200162002398565b50505f910152565b5f8151808452620023d381602086016020860162002396565b601f01601f19169290920160200192915050565b602081525f62001b776020830184620023ba565b5f805f606084860312156200240e575f80fd5b83356200241b8162001d7f565b925060208401356001600160401b038082111562002437575f80fd5b62002445878388016200216a565b935060408601359150808211156200245b575f80fd5b506200246a8682870162002282565b9150509250925092565b6020808252602c908201525f80516020620031d983398151915260408201526b19195b1959d85d1958d85b1b60a21b606082015260800190565b6020808252602c908201525f80516020620031d983398151915260408201526b6163746976652070726f787960a01b606082015260800190565b634e487b7160e01b5f52602160045260245ffd5b600381106200250f576200250f620024e8565b9052565b6004811062000aa65762000aa6620024e8565b6200250f8162002513565b5f815180845260208085019450602084015f5b838110156200256b5781516001600160a01b03168752958201959082019060010162002544565b509495945050505050565b60208152620025aa602082018351805182526020810151602083015260408101516040830152606081015160608301525050565b5f6020830151620025bf60a0840182620024fc565b506040830151620025d460c084018262002526565b506060838101515160e084015260808085015180516001600160a01b039081166101008088019190915260208301519091166101208701526040820151610140870152928101516101608601529081015161018085015260a0908101516101a0850152840151906200264b6101c085018362001d46565b60c08501519150620026626101e085018362001d46565b60e085015191506200267961020085018362001d46565b840151610220840152506101208301516102806102408401819052620026a46102a085018362002531565b9150610140850151620026bc61026086018262001d46565b50610160949094015192909301919091525090565b805182525f60208201516040602085015262001cda6040850182620023ba565b8781525f602060018060a01b03808a16602085015260e060408501526200271c60e085018a620023ba565b818916606086015287608086015284810360a08601526200273e8188620026d1565b85810360c087015286548082525f88815260208082209450909201915b818110156200277b5783548516835260019384019392860192016200275b565b50909d9c50505050505050505050505050565b5f602082840312156200279f575f80fd5b5051919050565b8581526001600160a01b03858116602083015284811660408301528316606082015260a0608082018190525f906200215f90830184620026d1565b5f60208284031215620027f2575f80fd5b815162001b778162001d7f565b600181811c908216806200281457607f821691505b6020821081036200283357634e487b7160e01b5f52602260045260245ffd5b50919050565b634e487b7160e01b5f52601160045260245ffd5b8082028115828204841417620008c057620008c062002839565b6001600160a01b03831681526040602082018190525f9062001cda90830184620023ba565b6810531313d5d31254d560ba1b8152600981019190915260290190565b634e487b7160e01b5f52603260045260245ffd5b6e20a62627aba624a9aa2fa0a226a4a760891b8152600f810191909152602f0190565b6001600160e01b0319169052565b80545f90600181811c90808316806200290857607f831692505b602080841082036200292857634e487b7160e01b5f52602260045260245ffd5b838852602088018280156200294657600181146200295d5762002988565b60ff198716825285151560051b8201975062002988565b5f898152602090205f5b87811015620029825781548482015290860190840162002967565b83019850505b5050505050505092915050565b606081525f60608201855480825260808401915060808160051b850101875f526020805f205f5b8481101562002c4457878403607f1901865281546001600160a01b0381168552606085019060a01c60ff16620029f28162002513565b8585015260606040860152600183810180548084525f91825260208083209401905b8060078401101562002adc57845462002a31838260e01b620028e0565b6001600160e01b031962002a4e848b0160c084901b8316620028e0565b62002a6260408501828460a01b16620028e0565b62002a7660608501828460801b16620028e0565b62002a8a60808501828460601b16620028e0565b62002a9e60a08501828460401b16620028e0565b62002ab160c0850182848d1b16620028e0565b62002ac260e08501828416620028e0565b505061010082019150838501945060088301925062002a14565b9354938083101562002b005762002af7828660e01b620028e0565b91830191908701905b8083101562002b2c5762002b238260c087901b6001600160e01b031916620028e0565b91830191908701905b8083101562002b585762002b4f8260a087901b6001600160e01b031916620028e0565b91830191908701905b8083101562002b845762002b7b82608087901b6001600160e01b031916620028e0565b91830191908701905b8083101562002bb05762002ba782606087901b6001600160e01b031916620028e0565b91830191908701905b8083101562002bdc5762002bd382604087901b6001600160e01b031916620028e0565b91830191908701905b8083101562002c065762002bfd82868a1b6001600160e01b031916620028e0565b91830191908701905b8083101562002c2a5762002c25826001600160e01b03198716620028e0565b908701905b5098860198965050506002929092019150600101620029bc565b505062002c548187018962001d46565b50848103604086015262002c698187620028ee565b98975050505050505050565b76020b1b1b2b9b9a1b7b73a3937b61d1030b1b1b7bab73a1604d1b81525f835162002ca881601785016020880162002396565b7001034b99036b4b9b9b4b733903937b6329607d1b601791840191820152835162002cdb81602884016020880162002396565b01602801949350505050565b80820180821115620008c057620008c062002839565b5f8162002d0e5762002d0e62002839565b505f190190565b5f825162002d2881846020870162002396565b919091019291505056fe60806040526040516104a63803806104a6833981016040819052610022916102dd565b61002d82825f610034565b50506103f2565b61003d8361005f565b5f825111806100495750805b1561005a57610058838361009e565b505b505050565b610068816100ca565b6040516001600160a01b038216907fbc7cd75a20ee27fd9adebab32041f755214dbc6bffa90cc0225b39da2e5c2d3b905f90a250565b60606100c3838360405180606001604052806027815260200161047f6027913961017b565b9392505050565b6100d3816101f0565b61013a5760405162461bcd60e51b815260206004820152602d60248201527f455243313936373a206e657720696d706c656d656e746174696f6e206973206e60448201526c1bdd08184818dbdb9d1c9858dd609a1b60648201526084015b60405180910390fd5b7f360894a13ba1a3210667c828492db98dca3e2076cc3735a920a3ca505d382bbc80546001600160a01b0319166001600160a01b0392909216919091179055565b60605f80856001600160a01b03168560405161019791906103a5565b5f60405180830381855af49150503d805f81146101cf576040519150601f19603f3d011682016040523d82523d5f602084013e6101d4565b606091505b5090925090506101e6868383876101ff565b9695505050505050565b6001600160a01b03163b151590565b6060831561026b5782515f0361026457610218856101f0565b6102645760405162461bcd60e51b815260206004820152601d60248201527f416464726573733a2063616c6c20746f206e6f6e2d636f6e74726163740000006044820152606401610131565b5081610275565b610275838361027d565b949350505050565b81511561028d5781518083602001fd5b8060405162461bcd60e51b815260040161013191906103c0565b634e487b7160e01b5f52604160045260245ffd5b5f5b838110156102d55781810151838201526020016102bd565b50505f910152565b5f80604083850312156102ee575f80fd5b82516001600160a01b0381168114610304575f80fd5b60208401519092506001600160401b0380821115610320575f80fd5b818501915085601f830112610333575f80fd5b815181811115610345576103456102a7565b604051601f8201601f19908116603f0116810190838211818310171561036d5761036d6102a7565b81604052828152886020848701011115610385575f80fd5b6103968360208301602088016102bb565b80955050505050509250929050565b5f82516103b68184602087016102bb565b9190910192915050565b602081525f82518060208401526103de8160408501602087016102bb565b601f01601f19169190910160400192915050565b6081806103fe5f395ff3fe608060405236601057600e6013565b005b600e5b601f601b6021565b6057565b565b5f60527f360894a13ba1a3210667c828492db98dca3e2076cc3735a920a3ca505d382bbc546001600160a01b031690565b905090565b365f80375f80365f845af43d5f803e8080156070573d5ff35b3d5ffdfea164736f6c6343000817000a416464726573733a206c6f772d6c6576656c2064656c65676174652063616c6c206661696c656446756e6374696f6e206d7573742062652063616c6c6564207468726f75676820360894a13ba1a3210667c828492db98dca3e2076cc3735a920a3ca505d382bbc416464726573733a206c6f772d6c6576656c2064656c65676174652063616c6c206661696c6564a164736f6c6343000817000a","linkReferences":{}},"methodIdentifiers":{"COUNCIL_MEMBER()":"733a2d1f","DEFAULT_ADMIN_ROLE()":"a217fddf","MAX_FEE()":"bc063e1a","NATIVE()":"a0cf0aea","PRECISION_SCALE()":"d7050f07","VERSION()":"ffa1ad74","addressToMemberInfo(address)":"88cfe684","allo()":"d6d8428d","cloneNonce()":"33960459","collateralVaultTemplate()":"77122d56","communityFee()":"8961be6b","communityName()":"c6d572ae","councilSafe()":"6c53db9a","covenantIpfsHash()":"b64e39af","createPool(address,((uint256,uint256,uint256,uint256),uint8,uint8,(uint256),(address,address,uint256,uint256,uint256,uint256),address,address,address,uint256,address[],address,uint256),(uint256,string))":"ce7e2cd3","createPool(address,address,((uint256,uint256,uint256,uint256),uint8,uint8,(uint256),(address,address,uint256,uint256,uint256,uint256),address,address,address,uint256,address[],address,uint256),(uint256,string))":"82b18ef4","enabledStrategies(address)":"3a871fe1","feeReceiver()":"b3f00674","gardenToken()":"db61d65c","getRoleAdmin(bytes32)":"248a9ca3","grantRole(bytes32,address)":"2f2ff15d","hasRole(bytes32,address)":"91d14854","initialize(address)":"c4d66de8","isKickEnabled()":"1f787d28","memberActivatedInStrategies(address,address)":"477a5cc0","memberPowerInStrategy(address,address)":"65e3864c","owner()":"8da5cb5b","pendingCouncilSafe()":"68decabb","profileId()":"08386eba","proxiableUUID()":"52d1902d","proxyOwner()":"025313a2","registerStakeAmount()":"78a0b8a9","registry()":"7b103999","registryFactory()":"f86c5f89","renounceOwnership()":"715018a6","renounceRole(bytes32,address)":"36568abe","revokeRole(bytes32,address)":"d547741f","strategiesByMember(address,uint256)":"2b38c69c","strategyTemplate()":"5c94e4d2","supportsInterface(bytes4)":"01ffc9a7","totalMembers()":"76e92559","transferOwnership(address)":"f2fde38b","upgradeTo(address)":"3659cfe6","upgradeToAndCall(address,bytes)":"4f1ef286"},"storageLayout":{"storage":[{"astId":48977,"contract":"pkg/contracts/src/RegistryCommunity/facets/CommunityPoolFacet.sol:CommunityPoolFacet","label":"_initialized","offset":0,"slot":"0","type":"t_uint8"},{"astId":48980,"contract":"pkg/contracts/src/RegistryCommunity/facets/CommunityPoolFacet.sol:CommunityPoolFacet","label":"_initializing","offset":1,"slot":"0","type":"t_bool"},{"astId":49604,"contract":"pkg/contracts/src/RegistryCommunity/facets/CommunityPoolFacet.sol:CommunityPoolFacet","label":"__gap","offset":0,"slot":"1","type":"t_array(t_uint256)50_storage"},{"astId":48769,"contract":"pkg/contracts/src/RegistryCommunity/facets/CommunityPoolFacet.sol:CommunityPoolFacet","label":"_owner","offset":0,"slot":"51","type":"t_address"},{"astId":48889,"contract":"pkg/contracts/src/RegistryCommunity/facets/CommunityPoolFacet.sol:CommunityPoolFacet","label":"__gap","offset":0,"slot":"52","type":"t_array(t_uint256)49_storage"},{"astId":49154,"contract":"pkg/contracts/src/RegistryCommunity/facets/CommunityPoolFacet.sol:CommunityPoolFacet","label":"_status","offset":0,"slot":"101","type":"t_uint256"},{"astId":49223,"contract":"pkg/contracts/src/RegistryCommunity/facets/CommunityPoolFacet.sol:CommunityPoolFacet","label":"__gap","offset":0,"slot":"102","type":"t_array(t_uint256)49_storage"},{"astId":49878,"contract":"pkg/contracts/src/RegistryCommunity/facets/CommunityPoolFacet.sol:CommunityPoolFacet","label":"__gap","offset":0,"slot":"151","type":"t_array(t_uint256)50_storage"},{"astId":48376,"contract":"pkg/contracts/src/RegistryCommunity/facets/CommunityPoolFacet.sol:CommunityPoolFacet","label":"_roles","offset":0,"slot":"201","type":"t_mapping(t_bytes32,t_struct(RoleData)48371_storage)"},{"astId":48683,"contract":"pkg/contracts/src/RegistryCommunity/facets/CommunityPoolFacet.sol:CommunityPoolFacet","label":"__gap","offset":0,"slot":"202","type":"t_array(t_uint256)49_storage"},{"astId":92053,"contract":"pkg/contracts/src/RegistryCommunity/facets/CommunityPoolFacet.sol:CommunityPoolFacet","label":"registerStakeAmount","offset":0,"slot":"251","type":"t_uint256"},{"astId":92056,"contract":"pkg/contracts/src/RegistryCommunity/facets/CommunityPoolFacet.sol:CommunityPoolFacet","label":"communityFee","offset":0,"slot":"252","type":"t_uint256"},{"astId":92059,"contract":"pkg/contracts/src/RegistryCommunity/facets/CommunityPoolFacet.sol:CommunityPoolFacet","label":"cloneNonce","offset":0,"slot":"253","type":"t_uint256"},{"astId":92062,"contract":"pkg/contracts/src/RegistryCommunity/facets/CommunityPoolFacet.sol:CommunityPoolFacet","label":"profileId","offset":0,"slot":"254","type":"t_bytes32"},{"astId":92065,"contract":"pkg/contracts/src/RegistryCommunity/facets/CommunityPoolFacet.sol:CommunityPoolFacet","label":"isKickEnabled","offset":0,"slot":"255","type":"t_bool"},{"astId":92068,"contract":"pkg/contracts/src/RegistryCommunity/facets/CommunityPoolFacet.sol:CommunityPoolFacet","label":"feeReceiver","offset":1,"slot":"255","type":"t_address"},{"astId":92071,"contract":"pkg/contracts/src/RegistryCommunity/facets/CommunityPoolFacet.sol:CommunityPoolFacet","label":"registryFactory","offset":0,"slot":"256","type":"t_address"},{"astId":92074,"contract":"pkg/contracts/src/RegistryCommunity/facets/CommunityPoolFacet.sol:CommunityPoolFacet","label":"collateralVaultTemplate","offset":0,"slot":"257","type":"t_address"},{"astId":92077,"contract":"pkg/contracts/src/RegistryCommunity/facets/CommunityPoolFacet.sol:CommunityPoolFacet","label":"strategyTemplate","offset":0,"slot":"258","type":"t_address"},{"astId":92080,"contract":"pkg/contracts/src/RegistryCommunity/facets/CommunityPoolFacet.sol:CommunityPoolFacet","label":"pendingCouncilSafe","offset":0,"slot":"259","type":"t_address_payable"},{"astId":92084,"contract":"pkg/contracts/src/RegistryCommunity/facets/CommunityPoolFacet.sol:CommunityPoolFacet","label":"registry","offset":0,"slot":"260","type":"t_contract(IRegistry)544"},{"astId":92088,"contract":"pkg/contracts/src/RegistryCommunity/facets/CommunityPoolFacet.sol:CommunityPoolFacet","label":"gardenToken","offset":0,"slot":"261","type":"t_contract(IERC20)52598"},{"astId":92092,"contract":"pkg/contracts/src/RegistryCommunity/facets/CommunityPoolFacet.sol:CommunityPoolFacet","label":"councilSafe","offset":0,"slot":"262","type":"t_contract(ISafe)98445"},{"astId":92096,"contract":"pkg/contracts/src/RegistryCommunity/facets/CommunityPoolFacet.sol:CommunityPoolFacet","label":"allo","offset":0,"slot":"263","type":"t_contract(FAllo)98115"},{"astId":92099,"contract":"pkg/contracts/src/RegistryCommunity/facets/CommunityPoolFacet.sol:CommunityPoolFacet","label":"communityName","offset":0,"slot":"264","type":"t_string_storage"},{"astId":92102,"contract":"pkg/contracts/src/RegistryCommunity/facets/CommunityPoolFacet.sol:CommunityPoolFacet","label":"covenantIpfsHash","offset":0,"slot":"265","type":"t_string_storage"},{"astId":92107,"contract":"pkg/contracts/src/RegistryCommunity/facets/CommunityPoolFacet.sol:CommunityPoolFacet","label":"enabledStrategies","offset":0,"slot":"266","type":"t_mapping(t_address,t_bool)"},{"astId":92114,"contract":"pkg/contracts/src/RegistryCommunity/facets/CommunityPoolFacet.sol:CommunityPoolFacet","label":"memberPowerInStrategy","offset":0,"slot":"267","type":"t_mapping(t_address,t_mapping(t_address,t_uint256))"},{"astId":92120,"contract":"pkg/contracts/src/RegistryCommunity/facets/CommunityPoolFacet.sol:CommunityPoolFacet","label":"addressToMemberInfo","offset":0,"slot":"268","type":"t_mapping(t_address,t_struct(Member)91998_storage)"},{"astId":92126,"contract":"pkg/contracts/src/RegistryCommunity/facets/CommunityPoolFacet.sol:CommunityPoolFacet","label":"strategiesByMember","offset":0,"slot":"269","type":"t_mapping(t_address,t_array(t_address)dyn_storage)"},{"astId":92133,"contract":"pkg/contracts/src/RegistryCommunity/facets/CommunityPoolFacet.sol:CommunityPoolFacet","label":"memberActivatedInStrategies","offset":0,"slot":"270","type":"t_mapping(t_address,t_mapping(t_address,t_bool))"},{"astId":92137,"contract":"pkg/contracts/src/RegistryCommunity/facets/CommunityPoolFacet.sol:CommunityPoolFacet","label":"initialMembers","offset":0,"slot":"271","type":"t_array(t_address)dyn_storage"},{"astId":92140,"contract":"pkg/contracts/src/RegistryCommunity/facets/CommunityPoolFacet.sol:CommunityPoolFacet","label":"totalMembers","offset":0,"slot":"272","type":"t_uint256"},{"astId":92145,"contract":"pkg/contracts/src/RegistryCommunity/facets/CommunityPoolFacet.sol:CommunityPoolFacet","label":"strategyFacetCuts","offset":0,"slot":"273","type":"t_array(t_struct(FacetCut)97075_storage)dyn_storage"},{"astId":92147,"contract":"pkg/contracts/src/RegistryCommunity/facets/CommunityPoolFacet.sol:CommunityPoolFacet","label":"strategyInit","offset":0,"slot":"274","type":"t_address"},{"astId":92149,"contract":"pkg/contracts/src/RegistryCommunity/facets/CommunityPoolFacet.sol:CommunityPoolFacet","label":"strategyInitCalldata","offset":0,"slot":"275","type":"t_bytes_storage"},{"astId":92153,"contract":"pkg/contracts/src/RegistryCommunity/facets/CommunityPoolFacet.sol:CommunityPoolFacet","label":"__gap","offset":0,"slot":"276","type":"t_array(t_uint256)46_storage"}],"types":{"t_address":{"encoding":"inplace","label":"address","numberOfBytes":"20"},"t_address_payable":{"encoding":"inplace","label":"address payable","numberOfBytes":"20"},"t_array(t_address)dyn_storage":{"encoding":"dynamic_array","label":"address[]","numberOfBytes":"32","base":"t_address"},"t_array(t_bytes4)dyn_storage":{"encoding":"dynamic_array","label":"bytes4[]","numberOfBytes":"32","base":"t_bytes4"},"t_array(t_struct(FacetCut)97075_storage)dyn_storage":{"encoding":"dynamic_array","label":"struct IDiamond.FacetCut[]","numberOfBytes":"32","base":"t_struct(FacetCut)97075_storage"},"t_array(t_uint256)46_storage":{"encoding":"inplace","label":"uint256[46]","numberOfBytes":"1472","base":"t_uint256"},"t_array(t_uint256)49_storage":{"encoding":"inplace","label":"uint256[49]","numberOfBytes":"1568","base":"t_uint256"},"t_array(t_uint256)50_storage":{"encoding":"inplace","label":"uint256[50]","numberOfBytes":"1600","base":"t_uint256"},"t_bool":{"encoding":"inplace","label":"bool","numberOfBytes":"1"},"t_bytes32":{"encoding":"inplace","label":"bytes32","numberOfBytes":"32"},"t_bytes4":{"encoding":"inplace","label":"bytes4","numberOfBytes":"4"},"t_bytes_storage":{"encoding":"bytes","label":"bytes","numberOfBytes":"32"},"t_contract(FAllo)98115":{"encoding":"inplace","label":"contract FAllo","numberOfBytes":"20"},"t_contract(IERC20)52598":{"encoding":"inplace","label":"contract IERC20","numberOfBytes":"20"},"t_contract(IRegistry)544":{"encoding":"inplace","label":"contract IRegistry","numberOfBytes":"20"},"t_contract(ISafe)98445":{"encoding":"inplace","label":"contract ISafe","numberOfBytes":"20"},"t_enum(FacetCutAction)97066":{"encoding":"inplace","label":"enum IDiamond.FacetCutAction","numberOfBytes":"1"},"t_mapping(t_address,t_array(t_address)dyn_storage)":{"encoding":"mapping","key":"t_address","label":"mapping(address => address[])","numberOfBytes":"32","value":"t_array(t_address)dyn_storage"},"t_mapping(t_address,t_bool)":{"encoding":"mapping","key":"t_address","label":"mapping(address => bool)","numberOfBytes":"32","value":"t_bool"},"t_mapping(t_address,t_mapping(t_address,t_bool))":{"encoding":"mapping","key":"t_address","label":"mapping(address => mapping(address => bool))","numberOfBytes":"32","value":"t_mapping(t_address,t_bool)"},"t_mapping(t_address,t_mapping(t_address,t_uint256))":{"encoding":"mapping","key":"t_address","label":"mapping(address => mapping(address => uint256))","numberOfBytes":"32","value":"t_mapping(t_address,t_uint256)"},"t_mapping(t_address,t_struct(Member)91998_storage)":{"encoding":"mapping","key":"t_address","label":"mapping(address => struct Member)","numberOfBytes":"32","value":"t_struct(Member)91998_storage"},"t_mapping(t_address,t_uint256)":{"encoding":"mapping","key":"t_address","label":"mapping(address => uint256)","numberOfBytes":"32","value":"t_uint256"},"t_mapping(t_bytes32,t_struct(RoleData)48371_storage)":{"encoding":"mapping","key":"t_bytes32","label":"mapping(bytes32 => struct AccessControlUpgradeable.RoleData)","numberOfBytes":"32","value":"t_struct(RoleData)48371_storage"},"t_string_storage":{"encoding":"bytes","label":"string","numberOfBytes":"32"},"t_struct(FacetCut)97075_storage":{"encoding":"inplace","label":"struct IDiamond.FacetCut","numberOfBytes":"64","members":[{"astId":97068,"contract":"pkg/contracts/src/RegistryCommunity/facets/CommunityPoolFacet.sol:CommunityPoolFacet","label":"facetAddress","offset":0,"slot":"0","type":"t_address"},{"astId":97071,"contract":"pkg/contracts/src/RegistryCommunity/facets/CommunityPoolFacet.sol:CommunityPoolFacet","label":"action","offset":20,"slot":"0","type":"t_enum(FacetCutAction)97066"},{"astId":97074,"contract":"pkg/contracts/src/RegistryCommunity/facets/CommunityPoolFacet.sol:CommunityPoolFacet","label":"functionSelectors","offset":0,"slot":"1","type":"t_array(t_bytes4)dyn_storage"}]},"t_struct(Member)91998_storage":{"encoding":"inplace","label":"struct Member","numberOfBytes":"96","members":[{"astId":91993,"contract":"pkg/contracts/src/RegistryCommunity/facets/CommunityPoolFacet.sol:CommunityPoolFacet","label":"member","offset":0,"slot":"0","type":"t_address"},{"astId":91995,"contract":"pkg/contracts/src/RegistryCommunity/facets/CommunityPoolFacet.sol:CommunityPoolFacet","label":"stakedAmount","offset":0,"slot":"1","type":"t_uint256"},{"astId":91997,"contract":"pkg/contracts/src/RegistryCommunity/facets/CommunityPoolFacet.sol:CommunityPoolFacet","label":"isRegistered","offset":0,"slot":"2","type":"t_bool"}]},"t_struct(RoleData)48371_storage":{"encoding":"inplace","label":"struct AccessControlUpgradeable.RoleData","numberOfBytes":"64","members":[{"astId":48368,"contract":"pkg/contracts/src/RegistryCommunity/facets/CommunityPoolFacet.sol:CommunityPoolFacet","label":"members","offset":0,"slot":"0","type":"t_mapping(t_address,t_bool)"},{"astId":48370,"contract":"pkg/contracts/src/RegistryCommunity/facets/CommunityPoolFacet.sol:CommunityPoolFacet","label":"adminRole","offset":0,"slot":"1","type":"t_bytes32"}]},"t_uint256":{"encoding":"inplace","label":"uint256","numberOfBytes":"32"},"t_uint8":{"encoding":"inplace","label":"uint8","numberOfBytes":"1"}}},"id":148}